02174020482557925AD675906759000000151648008888000009071900011406810000001987003202023NYY07923ND6759800888032220232023079020879                                                                                                                                                                                                                                                                                                                                                                                                                                                                                                                                                                                              
02174030482557928AD675906759000000142748001028000009071900012520200000001589003202023NYY07923ND6759800102032220232023079020880                                                                                                                                                                                                                                                                                                                                                                                                                                                                                                                                                                                              
02174040482557931AD675906759000000151648008888000009071900011409270000001394803202023NYY07923ND6759800888032220232023079020881                                                                                                                                                                                                                                                                                                                                                                                                                                                                                                                                                                                              
02174050482557934AD675906759000000151648008888000009071900011406340000001637003202023NYY07923ND6759800888032220232023079020882                                                                                                                                                                                                                                                                                                                                                                                                                                                                                                                                                                                              
02174060482557937AD675906759000000151648008888000009071900011002680000001987003202023NYY07923ND6759800888032220232023079020883                                                                                                                                                                                                                                                                                                                                                                                                                                                                                                                                                                                              
02174070482557940AD675906759000000151648008888000009071900011002690000000654803202023NYY07923ND6759800888032220232023079020884                                                                                                                                                                                                                                                                                                                                                                                                                                                                                                                                                                                              
02174080482557943AD675906759000000151648008888000009071900011002700000000519003202023NYY07923ND6759800888032220232023079020885                                                                                                                                                                                                                                                                                                                                                                                                                                                                                                                                                                                              
02174090482557946AD675906759000000151648008888000009071900011103960000000987003202023NYY07923ND6759800888032220232023079020886                                                                                                                                                                                                                                                                                                                                                                                                                                                                                                                                                                                              
02174100482557949AD675906759000000151648008888000009071900011003170000000519003202023NYY07923ND6759800888032220232023079020887                                                                                                                                                                                                                                                                                                                                                                                                                                                                                                                                                                                              
02174110482557952AD675906759000000151648008888000009071900011512000000002487003202023NYY07923ND6759800888032220232023079034108                                                                                                                                                                                                                                                                                                                                                                                                                                                                                                                                                                                              
02174120482557955AD675906759000000151648008888000009071900011512010000000654803202023NYY07923ND6759800888032220232023079034111                                                                                                                                                                                                                                                                                                                                                                                                                                                                                                                                                                                              
02174130485050002BH6759067590000000288180088880000090170321202308023000000000112742    0000090001760025N8008886759C03222023                                                                                                                                                                                                                                                                                                                                                                                                                                                                                                                                                                                                 
02174140485050003DT67590675900000002881800888800000010180088877287283080900017600014032120230000000799908023000000000112742526929XXXXXX4923       ME03MS02WI09      NY 1 0 AMDJNYWABK0321  N840000000007999          01DNHAPPY HIPPIE             553572    MD84000000007999 N  549976487158                            000000000+M1010115434C    MDJ  10811                     000000000  1                0000000000000.00 0000000.00   0000000.00                             000000000000000                                                                                                                                                   E101418  000000000000 0000000000000.26     00050 02200                  
02174150485050004DT67590675900000002881800888800000010180088824001193080900017600020032120230000000219608023000000000112742443238XXXXXX1229       VS11    0001111   NYV1 A E463080528167441N840000000002196NXD700    07DNHAPPY HIPPIE             004016    VD84000000002196 N  549976487158                            000000000+                F DF 00381                     000000000  N000000000       0000000000000.00 0000000.00   0000000.00                             000000000000000                                                                                                                                                     01418 A000000000000 0000000000000.33     00800 01500                  
02174160485050005DT67590675900000002881800888800000010180088824001193080900017600038032120230000000246808023000000000112742419090XXXXXX6209       VS11    0001111   NYV1 A E583080533691134N840000000002468R46H00    05DNHAPPY HIPPIE             575476    VD84000000002468 N  549976487158                            000000000+                F DF 00381                     000000000  N000000000       0000000000000.00 0000000.00   0000000.00                             000000000000000                                                                                                                                                     01418 A000000000000 0000000000000.35     00800 01500                  
02174170485050006DT67590675900000002881800888800000010180088824001193080900017600046032120230000000237108023000000000112742415978XXXXXX6979       VS11    0001111   NYV1 A E583080541928717N840000000002371PVP500    07DNHAPPY HIPPIE             001610    VD84000000002371 N  549976487158                            000000000+                F DF 10433                     000000000  Y000000000 338   0000000000000.00 0000000.00   0000000.00                             000000000000000                                                                                                                                                     01418 A000000000000 0000000000000.23     00050 02200                  
02174180485050007DT67590675900000002881800888800000010180088824001193080900017600053032120230000000822808023000000000112742419090XXXXXX4355       VS11    0001111   NYV1 A E303080555768214N840000000008228NBZV00    05DNHAPPY HIPPIE             576569    VD84000000008228 N  549976487158                            000000000+                F DF 00381                     000000000  N000000000       0000000000000.00 0000000.00   0000000.00                             000000000000000                                                                                                                                                     01418 A000000000000 0000000000000.81     00800 01500                  
02174190485050008DT67590675900000002881800888800000010180088824001193080900017600061032120230000000615908023000000000112742473984XXXXXX3846       VS11    0001111   NYV1 A E463080584627230N840000000006159KFPW00    05DNHAPPY HIPPIE             011423    VD84000000006159 N  549976487158                            000000000+                G DG 08704                     000000000  N000000000       0000000000000.00 0000000.00   0000000.00                             000000000000000                                                                                                                                                     01418 A000000000000 0000000000001.15     01700 01000                  
02174200485050009DT67590675900000002881800888800000010180088824001193080900017600079032120230000000790008023000000000112742473916XXXXXX6307       VS11    0001111   NYV1 A E463080586315400N840000000007900D7CP00    07DNHAPPY HIPPIE             021711    VD84000000007900 N  549976487158                            000000000+                G DG 08704                     000000000  N000000000       0000000000000.00 0000000.00   0000000.00                             000000000000000                                                                                                                                                     01418 A000000000000 0000000000001.44     01700 01000                  
02174210485050010DT67590675900000002881800888800000010180088824001193080900017600087032120230000000790008023000000000112742435546XXXXXX8931       VS11    0001111   NYV1 A E383080597704347N840000000007900KHMT00    05DNHAPPY HIPPIE             098142    VD84000000007900 N  549976487158                            000000000+                F DF 10433                     000000000  Y000000000 338   0000000000000.00 0000000.00   0000000.00                             000000000000000                                                                                                                                                     01418 A000000000000 0000000000000.26     00050 02200                  
02174220485050011DT67590675900000002881800888800000010180088824001193080900017600095032120230000000548808023000000000112742413022XXXXXX5316       VS11    0001111   NYV1 A E303080600294138N840000000005488B64900    07DNHAPPY HIPPIE             868732    VD84000000005488 N  549976487158                            000000000+                F DF 00381                     000000000  N000000000       0000000000000.00 0000000.00   0000000.00                             000000000000000                                                                                                                                                     01418 A000000000000 0000000000000.59     00800 01500                  
02174230485050012DT67590675900000002881800888800000010180088824001193080900017600103032120230000000206308023000000000112742481852XXXXXX3515       VS11    0001111   NYV1 A E583080606686802N84000000000206384LZ00    07DNHAPPY HIPPIE             095108    VD84000000002063 N  549976487158                            000000000+                F PF 08170                     000000000  N000000000       0000000000000.00 0000000.00   0000000.00                             000000000000000                                                                                                                                                     01418 A000000000000 0000000000000.39     01150 01500                  
02174240485050013DT67590675900000002881800888800000010180088824001193080900017600111032120230000000197308023000000000112742422921XXXXXX3596       VS11    0001111   NYV1 A E383080615745680N8400000000019735NMS00    05DNHAPPY HIPPIE             047175    VD84000000001973 N  549976487158                            000000000+                F DF 00381                     000000000  N000000000       0000000000000.00 0000000.00   0000000.00                             000000000000000                                                                                                                                                     01418 A000000000000 0000000000000.31     00800 01500                  
02174250485050014DT67590675900000002881800888800000010180088824001193080900017600129032120230000000157808023000000000112742400344XXXXXX3626       VS11    0001111   NYV1 A E463080625696596N840000000001578QMLD00    05DNHAPPY HIPPIE             07484B    VS84000000001578 N  549976487158                            000000000+                B CB 12111                     000000000  N000000000 495   0000000000000.00 0000000.00   0000000.00                             000000000000000                                                                                                                                                     01418 A000000000000 0000000000000.36     01650 01000                  
02174260485050015DT67590675900000002881800888800000010180088877287283080900017600139032120230000000276608023000000000112742514377XXXXXX2431       MS02WI09          NY 1 0 AMDJYQVKP30321  N840000000002766          07DNHAPPY HIPPIE             2BFOMR    MD84000000002766 N  549976487158                            000000000+M10101M0034C    MDJ  00402                     000000000  N                0000000000000.00 0000000.00   0000000.00                             000000000000000                                                                                                                                                   B101418  000000000000 0000000000000.44     01050 01500                  
02174270485050016DT67590675900000002881800888800000010180088877287283080900017600147032120230000000137108023000000000112742511953XXXXXX0916       MS02WI09          NY 1 0 AMDJH2CXE60321  N840000000001371          05DNHAPPY HIPPIE             075408    MD84000000001371 N  549976487158                            000000000+M10101C5434C    MDJ  00505                     000000000  N                0000000000000.00 0000000.00   0000000.00                             000000000000000                                                                                                                                                   B101418  000000000000 0000000000000.25     01550 00400                  
02174280485050017DT67590675900000002881800888800000010180088824001193080900017600152032120230000000849208023000000000112742435545XXXXXX9025       VS11    0001111   NYV1 A E383080661018654N8400000000084925MK500    07DNHAPPY HIPPIE             086080    VD84000000008492 N  549976487158                            000000000+                F DF 10433                     000000000  Y000000000 338   0000000000000.00 0000000.00   0000000.00                             000000000000000                                                                                                                                                     01418 A000000000000 0000000000000.26     00050 02200                  
02174290485050018DT67590675900000002881800888800000010180088824001193080900017600160032120230000000493808023000000000112742422921XXXXXX7391       VS11    0001111   NYV1 A E383080670684547N840000000004938SR7X00    05DNHAPPY HIPPIE             052670    VD84000000004938 N  549976487158                            000000000+                F DF 00381                     000000000  N000000000       0000000000000.00 0000000.00   0000000.00                             000000000000000                                                                                                                                                     01418 A000000000000 0000000000000.55     00800 01500                  
02174300485050019DT67590675900000002881800888800000010180088824001193080900017600178032120230000000188908023000000000112742415978XXXXXX3360       VS11    0001111   NYV1 A E303080697763863N840000000001889DPLR00    07DNHAPPY HIPPIE             034275    VD84000000001889 N  549976487158                            000000000+                F DF 10433                     000000000  Y000000000 338   0000000000000.00 0000000.00   0000000.00                             000000000000000                                                                                                                                                     01418 A000000000000 0000000000000.23     00050 02200                  
02174310485050020DT67590675900000002881800888800000010180088824001193080900017600186032120230000000362108023000000000112742443041XXXXXX6386       VS11    0001111   NYV1 A E583080699992740N840000000003621HDPR00    05DNHAPPY HIPPIE             290972    VD84000000003621 N  549976487158                            000000000+                F DF 10433                     000000000  Y000000000 338   0000000000000.00 0000000.00   0000000.00                             000000000000000                                                                                                                                                     01418 A000000000000 0000000000000.24     00050 02200                  
02174320485050021DT67590675900000002881800888800000010180088824001193080900017600194032120230000000438908023000000000112742443041XXXXXX6386       VS11    0001111   NYV1 A E583080701168558N840000000004389WZJ600    05DNHAPPY HIPPIE             537791    VD84000000004389 N  549976487158                            000000000+                F DF 10433                     000000000  Y000000000 338   0000000000000.00 0000000.00   0000000.00                             000000000000000                                                                                                                                                     01418 A000000000000 0000000000000.24     00050 02200                  
02174330485050022DT67590675900000002881800888800000010180088824001193080900017600202032120230000000790008023000000000112742422921XXXXXX2826       VS11    0001111   NYV1 A E583080712252397N8400000000079005FR500    07DNHAPPY HIPPIE             056826    VD84000000007900 N  549976487158                            000000000+                F DF 00381                     000000000  N000000000       0000000000000.00 0000000.00   0000000.00                             000000000000000                                                                                                                                                     01418 A000000000000 0000000000000.78     00800 01500                  
02174340485050023DT67590675900000002881800888800000010180088824001193080900017600210032120230000000438908023000000000112742473151XXXXXX9644       VS11    0001111   NYV1 A E303080720299612N8400000000043892M6700    05DNHAPPY HIPPIE             154114    VD84000000004389 N  549976487158                            000000000+                F DF 00381                     000000000  N000000000       0000000000000.00 0000000.00   0000000.00                             000000000000000                                                                                                                                                     01418 A000000000000 0000000000000.50     00800 01500                  
02174350485050024DT67590675900000002881800888800000010180088824001193080900017600228032120230000000548808023000000000112742435547XXXXXX9872       VS11    0001111   NYV1 A E383080739191548N8400000000054888V4500    07DNHAPPY HIPPIE             035071    VD84000000005488 N  549976487158                            000000000+                F DF 10433                     000000000  Y000000000 338   0000000000000.00 0000000.00   0000000.00                             000000000000000                                                                                                                                                     01418 A000000000000 0000000000000.25     00050 02200                  
02174360485050025DT67590675900000002881800888800000010180088877287283080900017600238032120230000000740608023000000000112742531815XXXXXX9356       MS02WI09          NY 1 0 AMPLT1O0BK0321  N840000000007406          05DNHAPPY HIPPIE             021641    MC84000000007406 N  549976487158                            000000000+M10101C5434C    MPL  00043                     000000000  N                0000000000000.00 0000000.00   0000000.00                             000000000000000                                                                                                                                                   B101418  000000000000 0000000000001.26     01650 00400                  
02174370485050026DT67590675900000002881800888800000010180088824001193080900017600244032120230000000219408023000000000112742440393XXXXXX5535       VS11    0001111   NYV1 A E303080778448414N840000000002194P8HC00    07DNHAPPY HIPPIE             077296    VD84000000002194 N  549976487158                            000000000+                F PF 08170                     000000000  N000000000       0000000000000.00 0000000.00   0000000.00                             000000000000000                                                                                                                                                     01418 A000000000000 0000000000000.40     01150 01500                  
02174380485050027DT67590675900000002881800888800000010180088877287283080900017600253032120230000000157608023000000000112742513085XXXXXX0989       MS02WI09          NY 1 0 AMPAQC8DTC0321  N840000000001576          90DNHAPPY HIPPIE             000885    MD84000000001576 N  549976487158                            000000000+M10101B5434C    MPA  11964                     000000000  N                0000000000000.00 0000000.00   0000000.00                             000000000000000                                                                                                                                                   C101418  000000000000 0000000000000.33     01150 01500                  
02174390485050028BH6759067590000000288180088880000090170321202308023000000000065044    0000090001740017N8008886759C03222023                                                                                                                                                                                                                                                                                                                                                                                                                                                                                                                                                                                                 
02174400485050029DT67590675900000002881800888800000010180088824001193080900017400017032120230000000080008023000000000065044444796XXXXXX5752       VK04VS111111111   NYV1 A E463080507442710N840000000000800R57400    05DNHAPPY HIPPIE             021614    VS84000000000800 N  549976487134                            000000000+                A CA 12053                     000000000  N000000000 450   0000000000000.00 0000000.00   0000000.00                             000000000000000                                                                                                                                                     01418 F000000000000 0000000000000.15     01900 00000                  
02174410485050030DT67590675900000002881800888800000010180088824001193080900017400025032120230000000078008023000000000065044415978XXXXXX3184       VK04VS111111111   NYV1 A E583080507729852N840000000000780BSZ600    05DNHAPPY HIPPIE             028335    VD84000000000780 N  549976487134                            000000000+                F DF 10439                     000000000  Y000000000 331   0000000000000.00 0000000.00   0000000.00                             000000000000000                                                                                                                                                     01418 F000000000000 0000000000000.22     00050 02200                  
02174420485050031DT67590675900000002881800888800000010180088824001193080900017400033032120230000000582008023000000000065044451723XXXXXX4806       VS11    0001111   NYV1 A E303080511776040N8400000000058202R9Q00    07DNHAPPY HIPPIE             997845    VD84000000005820 N  549976487134                            000000000+                F DF 00381                     000000000  N000000000       0000000000000.00 0000000.00   0000000.00                             000000000000000                                                                                                                                                     01418 A000000000000 0000000000000.62     00800 01500                  
02174430485050032DT67590675900000002881800888800000010180088824001193080900017400041032120230000000241208023000000000065044444796XXXXXX2131       VS11    0001111   NYV1 A E463080523935725N840000000002412QQR700    05DNHAPPY HIPPIE             021686    VS84000000002412 N  549976487134                            000000000+                A CA 12110                     000000000  N000000000 493   0000000000000.00 0000000.00   0000000.00                             000000000000000                                                                                                                                                     01418 A000000000000 0000000000000.46     01510 01000                  
02174440485050033DT67590675900000002881800888800000010180088824001193080900017400058032120230000000158008023000000000065044432739XXXXXX3439       VS11    0001111   NYV1 A E383080669887218N8400000000015806T9Q00    05DNHAPPY HIPPIE             265801    VD84000000001580 N  549976487134                            000000000+                F DF 10433                     000000000  Y000000000 338   0000000000000.00 0000000.00   0000000.00                             000000000000000                                                                                                                                                     01418 A000000000000 0000000000000.23     00050 02200                  
02174450485050034DT67590675900000002881800888800000010180088824001193080900017400066032120230000000877808023000000000065044432739XXXXXX7035       VS11    0001111   NYV1 A E303080673709366N840000000008778VX9D00    05DNHAPPY HIPPIE             284175    VD84000000008778 N  549976487134                            000000000+                F DF 10433                     000000000  Y000000000 338   0000000000000.00 0000000.00   0000000.00                             000000000000000                                                                                                                                                     01418 A000000000000 0000000000000.26     00050 02200                  
02174460485050035DT67590675900000002881800888800000010180088877287283080900017400076032120230000000395008023000000000065044517805XXXXXX9817       MS02WI09          NY 1 0 AMPLMKIDTC0321  N840000000003950          05DNHAPPY HIPPIE             01670B    MC84000000003950 N  549976487134                            000000000+M10101C5434C    MPL  00364                     000000000  N                0000000000000.00 0000000.00   0000000.00                             000000000000000                                                                                                                                                   B101418  000000000000 0000000000000.75     01800 00400                  
02174470485050036DT67590675900000002881800888800000010180088824001193080900017400082032120230000000362108023000000000065044480639XXXXXX8127       VS11    0001111   NYV1 A E303080731791465N840000000003621J6M400    05DNHAPPY HIPPIE             007716    VD84000000003621 N  549976487134                            000000000+                F DF 00381                     000000000  N000000000       0000000000000.00 0000000.00   0000000.00                             000000000000000                                                                                                                                                     01418 A000000000000 0000000000000.44     00800 01500                  
02174480485050037DT67590675900000002881800888800000010180088824001193080900017400090032120230000000790008023000000000065044422921XXXXXX8232       VS11    0001111   NYV1 A E583080753259927N840000000007900753V00    05DNHAPPY HIPPIE             060927    VD84000000007900 N  549976487134                            000000000+                F DF 00381                     000000000  N000000000       0000000000000.00 0000000.00   0000000.00                             000000000000000                                                                                                                                                     01418 A000000000000 0000000000000.78     00800 01500                  
02174490485050038DT67590675900000002881800888800000010180088877287283080900017400100032120230000000054808023000000000065044542418XXXXXX0601       MS02WI09          NY 1 0 AMCWW2OZII0321  N840000000000548          05DNHAPPY HIPPIE             76666Y    MC84000000000548 N  549976487134                            000000000+M10101C5434C    MCW  00364                     000000000  N                0000000000000.00 0000000.00   0000000.00                             000000000000000                                                                                                                                                   B101418  000000000000 0000000000000.14     01800 00400                  
02174500485050039DT67590675900000002881800888800000010180088877287283080900017400118032120230000000362108023000000000065044517546XXXXXX5716       MS02WI09          NY 2 0 AMDJF3AQTC0321  N840000000003621          05DNHAPPY HIPPIE             021603    MD84000000003621 N  549976487134                            000000000+M10101C1334C    MDJ  10815                     000000000  1                0000000000000.00 0000000.00   0000000.00                             000000000000000                                                                                                                                                   B101418  000000000000 0000000000000.24     00050 02200                  
02174510485050040DT67590675900000002881800888800000010180088824001193080900017400124032120230000000355508023000000000065044411464XXXXXX8364       VS11    0001111   NYV1 A E383080773373384N8400000000035553F3V00    07DNHAPPY HIPPIE             072858    VD84000000003555 N  549976487134                            000000000+                F DF 00381                     000000000  N000000000       0000000000000.00 0000000.00   0000000.00                             000000000000000                                                                                                                                                     01418 A000000000000 0000000000000.43     00800 01500                  
02174520485050041DT67590675900000002881800888800000010180088824001193080900017400132032120230000000395008023000000000065044415978XXXXXX9683       VS11    0001111   NYV1 A E383080779533574N8400000000039509FFF00    05DNHAPPY HIPPIE             060533    VD84000000003950 N  549976487134                            000000000+                F DF 10433                     000000000  Y000000000 338   0000000000000.00 0000000.00   0000000.00                             000000000000000                                                                                                                                                     01418 A000000000000 0000000000000.24     00050 02200                  
02174530485050042DT67590675900000002881800888800000010180088824001193080900017400140032120230000000938708023000000000065044459954XXXXXX5604       VS11    0001111   NYV1 A E383080781281616N840000000009387SDRK00    05DNHAPPY HIPPIE             H73661    VD84000000009387 N  549976487134                            000000000+                F DF 10433                     000000000  Y000000000 338   0000000000000.00 0000000.00   0000000.00                             000000000000000                                                                                                                                                     01418 A000000000000 0000000000000.27     00050 02200                  
02174540485050043DT67590675900000002881800888800000010180088824001193080900017400157032120230000000098708023000000000065044440393XXXXXX3132       VK04VS111111111   NYV1 A E463080783343165N840000000000987N3DJ00    05DNHAPPY HIPPIE             013087    VD84000000000987 N  549976487134                            000000000+                F PF 08165                     000000000  N000000000       0000000000000.00 0000000.00   0000000.00                             000000000000000                                                                                                                                                     01418 F000000000000 0000000000000.21     01600 00500                  
02174550485050044DT67590675900000002881800888800000010180088824001193080900017400165032120230000000567808023000000000065044443238XXXXXX7228       VS11    0001111   NYV1 A E463080787452263N8400000000056784B6X00    05DNHAPPY HIPPIE             075225    VD84000000005678 N  549976487134                            000000000+                F DF 00381                     000000000  N000000000       0000000000000.00 0000000.00   0000000.00                             000000000000000                                                                                                                                                     01418 A000000000000 0000000000000.60     00800 01500                  
02174560485050045DT67590675900000002881800888800000010180088824001193080900017400173032120230000000167708023000000000065044410801XXXXXX8742       VS11    0001111   NYV1 A E583080796560761N8400000000016775SHT00    05DNHAPPY HIPPIE             080736    VD84000000001677 N  549976487134                            000000000+                F DF 00381                     000000000  N000000000       0000000000000.00 0000000.00   0000000.00                             000000000000000                                                                                                                                                     01418 A000000000000 0000000000000.28     00800 01500                  
02174570485050046BH6759067590000000215480088880000090170321202308023000000001790950    0000090001390966N8008886759C03222023                                                                                                                                                                                                                                                                                                                                                                                                                                                                                                                                                                                                 
02174580485050047DT67590675900000002154800888800000010180088887287283080900013909228032120230000008100008023000000001790950557159XXXXXX8615                         NY 4607AMDBCS7NRY0321  N840000000081000          81DNDRIP DROP DISTRO LLC     296573    MD84000000081000 NP1519900000001   INV-001188               000000000+600450S00140    MDB  00062                     000000000  N                0000000000000.00 0000000.00   0000000.00                             000000000000000                                                                                                                                                   U001418  000000000000 0000000000021.57     02650 01000                  
02174590485050001P1675906759000000021548008888000000101                                                          000000000000          8000            471534935                                                                                                                                                                                                                                                                                                                                                                                                                                                                                                                                                            
02174600485050048DT67590675900000002154800888800000010180088824001193080900013965062032120230000008850008023000000001790950415417XXXXXX8676               2111111   NYV4 A7W583079860844099N84000000008850048RW00    01DNDRIP DROP DISTRO LLC     03349G    VB84000000088500 NP1519971004114   INV-001234               000000000+                G4CG411355                     000000000  N000000000 377   0000000000000.00 0000000.00   0000000.00                             000000000000000                                                                                                                                                     01418 G000000088500 0000000000026.21     02950 01000                  
02174610485050001P16759067590000000215480088880000001010000000000000000    44011191869              2000000000000000000000000              000000000000                    0000000000000000000000000                    000000000000                                                                                                                                                                                                                                                                                                                                                                                                                                                                                        
02174620485050049DT67590675900000002154800888800000010180088824001193080900013935560032120230000091200008023000000001790950415417XXXXXX2554               2111111   NYV4 A7W303080748539740N8400000009120009ZXH00    01DNDRIP DROP DISTRO LLC     02019G    VB84000000912000 NP1519971004114   INV-001260               000000000+                G4CG411355                     000000000  N000000000 377   0000000000000.00 0000000.00   0000000.00                             000000000000000                                                                                                                                                     01418 G000000912000 0000000000269.14     02950 01000                  
02174630485050001P16759067590000000215480088880000001010000000000000000    44012990683              2000000000000000000000000              000000000000                    0000000000000000000000000                    000000000000                                                                                                                                                                                                                                                                                                                                                                                                                                                                                        
02174640485050050DT67590675900000002154800888800000010180088824001193080900013965476032120230000005400008023000000001790950415417XXXXXX8676               2111111   NYV4 A7W383079861812769N840000000054000CZK900    01DNDRIP DROP DISTRO LLC     08649G    VB84000000054000 NP1519971004114   INV-001235               000000000+                G4CG411355                     000000000  N000000000 377   0000000000000.00 0000000.00   0000000.00                             000000000000000                                                                                                                                                     01418 G000000054000 0000000000016.03     02950 01000                  
02174650485050001P16759067590000000215480088880000001010000000000000000    44011194209              2000000000000000000000000              000000000000                    0000000000000000000000000                    000000000000                                                                                                                                                                                                                                                                                                                                                                                                                                                                                        
02174660485050051DT67590675900000002154800888800000010180088824001193080900013957747032120230000003710008023000000001790950464018XXXXXX9401               2111111   NYV4 A7W463080589191723N8400000000371006GZJ00    01DNDRIP DROP DISTRO LLC     04794D    VS84000000037100 NP1519971004114   INV-001209               000000000+                D CD 12109                     000000000  N000000000 498   0000000000000.00 0000000.00   0000000.00                             000000000000000                                                                                                                                                     01418 G000000037100 0000000000009.38     02500 01000                  
02174670485050001P16759067590000000215480088880000001010000000000000000                             2000000000000000000000000              000000000000                    0000000000000000000000000                    000000000000                                                                                                                                                                                                                                                                                                                                                                                                                                                                                        
02174680485050052DT67590675900000002154800888800000010180088824001193080900013999723032120230000010435008023000000001790950424631XXXXXX2112               2111111   NYV4 A7W463080665509714N840000000104350G47K00    01DNDRIP DROP DISTRO LLC     07308G    VB84000000104350 NP1519971004114   INV-001259               000000000+                G5CG511887                     000000000  N000000000 163   0000000000000.00 0000000.00   0000000.00                             000000000000000                                                                                                                                                     01418 G000000104350 0000000000031.41     03000 01000                  
02174690485050001P16759067590000000215480088880000001010000000000000000    44012686672              2000000000000000000000000              000000000000                    0000000000000000000000000                    000000000000                                                                                                                                                                                                                                                                                                                                                                                                                                                                                        
02174700485050053DT67590675900000002154800888800000010180088887287283080900013909665032120230000051400008023000000001790950557159XXXXXX8615                         NY 4607AMDBCQYRRY0321  N840000000514000          81DNDRIP DROP DISTRO LLC     296567    MD84000000514000 NP1519900000001   INV-001186               000000000+600450S00140    MDB  00062                     000000000  N                0000000000000.00 0000000.00   0000000.00                             000000000000000                                                                                                                                                   U001418  000000000000 0000000000136.31     02650 01000                  
02174710485050001P1675906759000000021548008888000000101                                                          000000000000          8000            471534935                                                                                                                                                                                                                                                                                                                                                                                                                                                                                                                                                            
02174720485050054BH6759067590000000570280088880000090170321202308023000000000369597    0000090001277869N8008886759C03222023                                                                                                                                                                                                                                                                                                                                                                                                                                                                                                                                                                                                 
02174730485050055DT67590675900000005702800888800000010180088824001193080900012740896032120230000000599908023000000000369597427088XXXXXX6472               2111111   NYV4 A7W303080096129148N840000000005999BMTZ00    01DNPSILOMART                024009    VD84000000005999 NP1549971004114   RX9OIPDJRGCBJVE7IPYC     000000000+                F DF 10420                     000000000  Y000000000 338   0000000000000.00 0000000.00   0000000.00                             000000000000000                                                                                                                                                     01418 G000000005999 0000000000000.25     00050 02200                  
02174740485050001P16759067590000000570280088880000001010000000000000000                             2000000000000000000000000              000000000000                    0000000000000000000000000                    000000000000                                                                                                                                                                                                                                                                                                                                                                                                                                                                                        
02174750485050056DT67590675900000005702800888800000010180088887287283080900012722986032120230000000579908023000000000369597524574XXXXXX8249       ME03KE06MS02      NY 4607AMDJQDUQZS0320  N840000000005799          81DNPSILOMART                749524    MD84000000005799 N  549900000001   rP0gEFO8x2hilpUYTMLs     000000000+600450S00140    MDJ  00401                     000000000  N                0000000000000.00 0000000.00   0000000.00                             000000000000000                                                                                                                                                   U001418  000000000000 0000000000001.11     01650 01500                  
02174760485050057DT67590675900000005702800888800000010180088887287283080900012734429032120230000000329908023000000000369597514750XXXXXX3938       ME03KE06MS02      NY 4607AMDJCOII1T0320  N840000000003299          81DNPSILOMART                783716    MD84000000003299 N  549900000001   rvF78wck0VUtLh0tVXHu     000000000+600450S00140    MDJ  10813                     000000000  1                0000000000000.00 0000000.00   0000000.00                             000000000000000                                                                                                                                                   U001418  000000000000 0000000000000.24     00050 02200                  
02174770485050058DT67590675900000005702800888800000010180088824001193080900012729535032120230000000799908023000000000369597443045XXXXXX1131               2111111   NYV4 A7W463080545681339N840000000007999NDV500    01DNPSILOMART                765708    VD84000000007999 NP1549971004114   RPZEVNMUW14T9EWTXAN9     000000000+                F DF 10420                     000000000  Y000000000 338   0000000000000.00 0000000.00   0000000.00                             000000000000000                                                                                                                                                     01418 G000000007999 0000000000000.26     00050 02200                  
02174780485050001P16759067590000000570280088880000001010000000000000000                             2000000000000000000000000              000000000000                    0000000000000000000000000                    000000000000                                                                                                                                                                                                                                                                                                                                                                                                                                                                                        
02174790485050059DT67590675900000005702800888800000010180088824001193080900012790214032120230000001307908023000000000369597435546XXXXXX3153               2111111   NYV4 A7W383079851940658N8400000000130795GL900    01DNPSILOMART                053041    VD84000000013079 NP1549971004114   RKXSVNA7CXDCXM1DZOOR     000000000+                F DF 10420                     000000000  Y000000000 338   0000000000000.00 0000000.00   0000000.00                             000000000000000                                                                                                                                                     01418 G000000013079 0000000000000.29     00050 02200                  
02174800485050001P16759067590000000570280088880000001010000000000000000                             2000000000000000000000000              000000000000                    0000000000000000000000000                    000000000000                                                                                                                                                                                                                                                                                                                                                                                                                                                                                        
02174810485050060DT67590675900000005702800888800000010180088887287283080900012712292032120230000000541108023000000000369597521853XXXXXX9980       ME03KE06PT01      NY 4607AMCWEBT9E60321  N840000000005411          81DNPSILOMART                02110T    MC84000000005411 N  549900000001   rJti2Ix3KmPHRy05yH51     000000000+600450S00140    MCW  02182                     000000000  N                0000000000000.00 0000000.00   0000000.00                             000000000000000                                                                                                                                                   U001418  000000000000 0000000000001.51     02600 01000                  
02174820485050061DT67590675900000005702800888800000010180088887287283080900012710650032120230000000495608023000000000369597512876XXXXXX2044       ME03KE06MS02      NY 4607AMDJN7C8TC0321  N840000000004956          81DNPSILOMART                105013    MD84000000004956 N  549900000001   ranUjuUrFEeHsUQdubEl     000000000+600450S00140    MDJ  10813                     000000000  1                0000000000000.00 0000000.00   0000000.00                             000000000000000                                                                                                                                                   U001418  000000000000 0000000000000.24     00050 02200                  
02174830485050062DT67590675900000005702800888800000010180088824001193080900012727877032120230000000560008023000000000369597443044XXXXXX0277               2111111   NYV4 A7W303080800371139N8400000000056002JNJ00    01DNPSILOMART                385582    VD84000000005600 NP1549971004114   RZPF4XHZFR8Y9K5GNPYG     000000000+                F DF 10420                     000000000  Y000000000 338   0000000000000.00 0000000.00   0000000.00                             000000000000000                                                                                                                                                     01418 G000000005600 0000000000000.25     00050 02200                  
02174840485050001P16759067590000000570280088880000001010000000000000000                             2000000000000000000000000              000000000000                    0000000000000000000000000                    000000000000                                                                                                                                                                                                                                                                                                                                                                                                                                                                                        
02174850485050063DT67590675900000005702800888800000010180088824001193080900012713430032120230000001899508023000000000369597449210XXXXXX1617               2111111   NYV4 A7W303080069325081N8400000000189952QPW00    01DNPSILOMART                075532    VD84000000018995 NP1549971004114   RM7FG2P6Y9TPBXDUFPJ9     000000000+                F DF 10420                     000000000  Y000000000 338   0000000000000.00 0000000.00   0000000.00                             000000000000000                                                                                                                                                     01418 G000000018995 0000000000000.31     00050 02200                  
02174860485050001P16759067590000000570280088880000001010000000000000000                             2000000000000000000000000              000000000000                    0000000000000000000000000                    000000000000                                                                                                                                                                                                                                                                                                                                                                                                                                                                                        
02174870485050064DT67590675900000005702800888800000010180088824001193080900012757494032120230000000279908023000000000369597473703XXXXXX3212               2111111   NYV4 A7W583080177541215N8400000000027998RGJ00    01DNPSILOMART                036835    VD84000000002799 NP1549971004114   RLLZKWCNIYLDPC4CXCQQ     000000000+                F DF 10420                     000000000  Y000000000 338   0000000000000.00 0000000.00   0000000.00                             000000000000000                                                                                                                                                     01418 G000000002799 0000000000000.23     00050 02200                  
02174880485050001P16759067590000000570280088880000001010000000000000000                             2000000000000000000000000              000000000000                    0000000000000000000000000                    000000000000                                                                                                                                                                                                                                                                                                                                                                                                                                                                                        
02174890485050065DT67590675900000005702800888800000010180088824001193080900012702409032120230000000759808023000000000369597415977XXXXXX9577               2111111   NYV4 A7W303080348170615N840000000007598CXHZ00    01DNPSILOMART                064239    VD84000000007598 NP1549971004114   R7MYZPAUY7SHHWCMGWJ1     000000000+                F DF 10420                     000000000  Y000000000 338   0000000000000.00 0000000.00   0000000.00                             000000000000000                                                                                                                                                     01418 G000000007598 0000000000000.26     00050 02200                  
02174900485050001P16759067590000000570280088880000001010000000000000000                             2000000000000000000000000              000000000000                    0000000000000000000000000                    000000000000                                                                                                                                                                                                                                                                                                                                                                                                                                                                                        
02174910485050066DT67590675900000005702800888800000010180088824001193080900012709834032120230000004200008023000000000369597403690XXXXXX6021               2111111   NYV4 A7W303080393113865N840000000042000RZRK00    01DNPSILOMART                05356B    VS84000000042000 NP1549971004114   RTCO1XENIFQUBZX1CIT3     000000000+                B CB 12107                     000000000  N000000000 494   0000000000000.00 0000000.00   0000000.00                             000000000000000                                                                                                                                                     01418 G000000042000 0000000000008.67     02040 01000                  
02174920485050001P16759067590000000570280088880000001010000000000000000                             2000000000000000000000000              000000000000                    0000000000000000000000000                    000000000000                                                                                                                                                                                                                                                                                                                                                                                                                                                                                        
02174930485050067DT67590675900000005702800888800000010180088824001193080900012711608032120230000000503308023000000000369597427088XXXXXX8199               2111111   NYV4 A7W583080546888072N840000000005033WTQV00    01DNPSILOMART                011125    VD84000000005033 NP1549971004114   RSZYQCD1TKRRA7RS2F2G     000000000+                F DF 10420                     000000000  Y000000000 338   0000000000000.00 0000000.00   0000000.00                             000000000000000                                                                                                                                                     01418 G000000005033 0000000000000.25     00050 02200                  
02174940485050001P16759067590000000570280088880000001010000000000000000                             2000000000000000000000000              000000000000                    0000000000000000000000000                    000000000000                                                                                                                                                                                                                                                                                                                                                                                                                                                                                        
02174950485050068DT67590675900000005702800888800000010180088824001193080900012735532032120230000000479908023000000000369597448816XXXXXX6132               2111111   NYV4 A7W303080559742501N840000000004799CQ8G00    01DNPSILOMART                040865    VD84000000004799 NP1549971004114   RGJYEET2IBJR5RYSMN3B     000000000+                F DF 00415                     000000000  N000000000       0000000000000.00 0000000.00   0000000.00                             000000000000000                                                                                                                                                     01418 G000000004799 0000000000000.94     01650 01500                  
02174960485050001P16759067590000000570280088880000001010000000000000000                             2000000000000000000000000              000000000000                    0000000000000000000000000                    000000000000                                                                                                                                                                                                                                                                                                                                                                                                                                                                                        
02174970485050069DT67590675900000005702800888800000010180088824001193080900012769648032120230000000509908023000000000369597443264XXXXXX2826               2111111   NYV4 A7W303080648428988N840000000005099ZNGT00    01DNPSILOMART                016970    VD84000000005099 NP1549971004114   RLHI1IXSTD3A9GBD3AZF     000000000+                F DF 10420                     000000000  Y000000000 338   0000000000000.00 0000000.00   0000000.00                             000000000000000                                                                                                                                                     01418 G000000005099 0000000000000.25     00050 02200                  
02174980485050001P16759067590000000570280088880000001010000000000000000                             2000000000000000000000000              000000000000                    0000000000000000000000000                    000000000000                                                                                                                                                                                                                                                                                                                                                                                                                                                                                        
02174990485050070DT67590675900000005702800888800000010180088876509753080900012774547032120230000000399908023000000000369597601101XXXXXX3214   BA00                  NY 4 07N813068765070436N840000000003999    00    01DNPSILOMART                02174B    DZ84000000003999 N  549971004114010                         000000000+1015104910600   DMCDI01012334140  110827000000 000000000  0          124   0000000000000.00 0000000.00   0000000.00                             000000000000000                                                                                                                                                     01418  000000000000 0000000000001.13     02450 01500                  
02175000485050071DT67590675900000005702800888800000010180088824001193080900012700098032120230000000343808023000000000369597483316XXXXXX1540               2111111   NYV4 A7W383080717073560N840000000003438SRG700    01DNPSILOMART                075515    VD84000000003438 NP1549971004114   RECVEIYPMCFREN1TZJUR     000000000+                F DF 10420                     000000000  Y000000000 338   0000000000000.00 0000000.00   0000000.00                             000000000000000                                                                                                                                                     01418 G000000003438 0000000000000.24     00050 02200                  
02175010485050001P16759067590000000570280088880000001010000000000000000                             2000000000000000000000000              000000000000                    0000000000000000000000000                    000000000000                                                                                                                                                                                                                                                                                                                                                                                                                                                                                        
02175020485050072DT67590675900000005702800888800000010180088824001193080900012779878032120230000000209908023000000000369597446540XXXXXX4918               2111111   NYV4 A7W463080728603455N840000000002099NQ8M00    01DNPSILOMART                021307    VS84000000002099 NP1549971004114   RXL38T7JHBLB5RZNNBEF     000000000+                D CD 12109                     000000000  N000000000 498   0000000000000.00 0000000.00   0000000.00                             000000000000000                                                                                                                                                     01418 G000000002099 0000000000000.62     02500 01000                  
02175030485050001P16759067590000000570280088880000001010000000000000000                             2000000000000000000000000              000000000000                    0000000000000000000000000                    000000000000                                                                                                                                                                                                                                                                                                                                                                                                                                                                                        
02175040485050073DT67590675900000005702800888800000010180088824001193080900012775223032120230000000479908023000000000369597423223XXXXXX6808               2111111   NYV4 A7W583080297169877N8400000000047994N6700    01DNPSILOMART                024939    VD84000000004799 NP1549971004114   RV4CW3FSADKKQVSQCZD3     000000000+                F DF 00415                     000000000  N000000000       0000000000000.00 0000000.00   0000000.00                             000000000000000                                                                                                                                                     01418 G000000004799 0000000000000.94     01650 01500                  
02175050485050001P16759067590000000570280088880000001010000000000000000                             2000000000000000000000000              000000000000                    0000000000000000000000000                    000000000000                                                                                                                                                                                                                                                                                                                                                                                                                                                                                        
02175060485050074DT67590675900000005702800888800000010180088887287283080900012718620032120230000000799808023000000000369597525363XXXXXX5558       ME03KE06MS02      NY 4607AMWEFQBO8L0321  N840000000007998          81DNPSILOMART                57969Z    MC84000000007998 N  549900000001   r1IoXonUDmEPrdE7PVvf     000000000+600450S00140    MWE  00737                     000000000  N                0000000000000.00 0000000.00   0000000.00                             000000000000000                                                                                                                                                   U001418  000000000000 0000000000002.18     02600 01000                  
02175070485050075DT67590675900000005702800888800000010180088824001193080900012749806032120230000020400008023000000000369597424631XXXXXX6538               2111111   NYV4 A7W463080647536601N840000000204000CX3800    01DNPSILOMART                07396G    VB84000000204000 NP1549971004114   RTSECOKCFL64KMSWWOEC     000000000+                G5CG511887                     000000000  N000000000 163   0000000000000.00 0000000.00   0000000.00                             000000000000000                                                                                                                                                     01418 G000000204000 0000000000061.30     03000 01000                  
02175080485050001P16759067590000000570280088880000001010000000000000000    64267132643              2000000000000000000000000              000000000000                    0000000000000000000000000                    000000000000                                                                                                                                                                                                                                                                                                                                                                                                                                                                                        
02175090485050076DT67590675900000005702800888800000010180088824001193080900012778698032120230000000479908023000000000369597419002XXXXXX5778               2111111   NYV4 A7W303080723693744N840000000004799Q3HF00    01DNPSILOMART                000015    VD84000000004799 NP1549971004114   RJUOWDE0RL94ST4Z1NUY     000000000+                F DF 10420                     000000000  Y000000000 338   0000000000000.00 0000000.00   0000000.00                             000000000000000                                                                                                                                                     01418 G000000004799 0000000000000.24     00050 02200                  
02175100485050001P16759067590000000570280088880000001010000000000000000                             2000000000000000000000000              000000000000                    0000000000000000000000000                    000000000000                                                                                                                                                                                                                                                                                                                                                                                                                                                                                        
02175110485050077BH6759067590000000766680010180000090170321202308023000000000090386    0000090001040027N8001016759C03222023                                                                                                                                                                                                                                                                                                                                                                                                                                                                                                                                                                                                 
02175120485050078DT67590675900000007666800101800000010180010124001193080900010400014032120230000000269908023000000000090386473703XXXXXX6566       VS11    0001111   NYV1 A E303080547355883N840000000002699ZQX400    05DNPLANET VAPOR INC #300    027193    VD84000000002699 N  599977384654                            000000000+                F DF 10433                     000000000  Y000000000 338   0000000000000.00 0000000.00   0000000.00                             000000000000000                                                                                                                                                     01418 A000000000000 0000000000000.23     00050 02200                  
02175130485050079DT67590675900000007666800101800000010180010124001193080900010400022032120230000000410208023000000000090386448233XXXXXX0797       VS11    0001111   NYV1 A E463080570221316N84000000000410286MQ00    05DNPLANET VAPOR INC #300    005022    VD84000000004102 N  599977384654                            000000000+                F DF 10433                     000000000  Y000000000 338   0000000000000.00 0000000.00   0000000.00                             000000000000000                                                                                                                                                     01418 A000000000000 0000000000000.24     00050 02200                  
02175140485050080DT67590675900000007666800101800000010180010173011003080900010400036032120230000000151108023000000000090386373965XXXXX2009                          NY 1 0 N007277551597062N840000000001511          05DNPLANET VAPOR #300        894438    AM84000000001511 N  599977384654                            000000000+51010155434C 258     11261                     000000000                   0000000000000.00 0000000.00   0000000.00                             000000000000000 61248972086759675900000007666 PLANET VAPOR #300        300 HUGER ST STE A       8035462263      29201     KEVIN@MOOREDISTRO.COM                     01418  000000000000 0000000000000.34     01600 00000                  
02175150485050081DT67590675900000007666800101800000010180010124001193080900010400048032120230000000485508023000000000090386465638XXXXXX7919       VS11    0001111   NYV1 A E383080585445386N840000000004855R4ZB00    05DNPLANET VAPOR INC #300    486480    VS84000000004855 N  599977384654                            000000000+                B CB 12111                     000000000  N000000000 495   0000000000000.00 0000000.00   0000000.00                             000000000000000                                                                                                                                                     01418 A000000000000 0000000000000.90     01650 01000                  
02175160485050082DT67590675900000007666800101800000010180010124001193080900010400055032120230000000561308023000000000090386466189XXXXXX0784       VS11    0001111   NYV1 A E383080590890625N8400000000056133QTJ00    05DNPLANET VAPOR INC #300    008745    VD84000000005613 N  599977384654                            000000000+                F DF 10433                     000000000  Y000000000 338   0000000000000.00 0000000.00   0000000.00                             000000000000000                                                                                                                                                     01418 A000000000000 0000000000000.25     00050 02200                  
02175170485050083DT67590675900000007666800101800000010180010177287283080900010400065032120230000000205008023000000000090386531258XXXXXX1859       MS02WI09          NY 1 0 AMDJMRR7PP0321  N840000000002050          05DNPLANET VAPOR INC #300    112771    MD84000000002050 N  599977384654                            000000000+M10101C5434C    MDJ  10815                     000000000  1                0000000000000.00 0000000.00   0000000.00                             000000000000000                                                                                                                                                   B101418  000000000000 0000000000000.23     00050 02200                  
02175180485050084DT67590675900000007666800101800000010180010124001193080900010400071032120230000000213708023000000000090386400022XXXXXX6151       VS11    0001111   NYV1 A E583080597609867N840000000002137XWLG00    05DNPLANET VAPOR INC #300    708701    VD84000000002137 N  599977384654                            000000000+                F DF 10433                     000000000  Y000000000 338   0000000000000.00 0000000.00   0000000.00                             000000000000000                                                                                                                                                     01418 A000000000000 0000000000000.23     00050 02200                  
02175190485050085DT67590675900000007666800101800000010180010124001193080900010400089032120230000000431808023000000000090386433477XXXXXX2250       VS11    0001111   NYV1 A E583080606563753N840000000004318LTPR00    05DNPLANET VAPOR INC #300    576912    VD84000000004318 N  599977384654                            000000000+                F DF 10433                     000000000  Y000000000 338   0000000000000.00 0000000.00   0000000.00                             000000000000000                                                                                                                                                     01418 A000000000000 0000000000000.24     00050 02200                  
02175200485050086DT67590675900000007666800101800000010180010124001193080900010400097032120230000000399408023000000000090386473703XXXXXX8252       VS11    0001111   NYV1 A E583080615979027N840000000003994DLCL00    05DNPLANET VAPOR INC #300    082833    VD84000000003994 N  599977384654                            000000000+                F DF 10433                     000000000  Y000000000 338   0000000000000.00 0000000.00   0000000.00                             000000000000000                                                                                                                                                     01418 A000000000000 0000000000000.24     00050 02200                  
02175210485050087DT67590675900000007666800101800000010180010124001193080900010400105032120230000000161708023000000000090386410444XXXXXX0556       VS11    0001111   NYV1 A E583080619010748N840000000001617SHZ600    07DNPLANET VAPOR INC #300    021202    VS84000000001617 N  599977384654                            000000000+                D CD 12113                     000000000  N000000000 499   0000000000000.00 0000000.00   0000000.00                             000000000000000                                                                                                                                                     01418 A000000000000 0000000000000.44     02100 01000                  
02175220485050088DT67590675900000007666800101800000010180010124001193080900010400113032120230000000237508023000000000090386446540XXXXXX8041       VS11    0001111   NYV1 A E583080625169018N840000000002375FHMD00    05DNPLANET VAPOR INC #300    021069    VS84000000002375 N  599977384654                            000000000+                C CC 12112                     000000000  N000000000 497   0000000000000.00 0000000.00   0000000.00                             000000000000000                                                                                                                                                     01418 A000000000000 0000000000000.49     01650 01000                  
02175230485050089DT67590675900000007666800101800000010180010177287283080900010400123032120230000001195408023000000000090386521876XXXXXX2131       MS02WI09          NY 1 0 AMWEHG9LE60321  N840000000011954          05DNPLANET VAPOR INC #300    19550Z    MC84000000011954 N  599977384654                            000000000+M10101C5434C    MWE  00739                     000000000  N                0000000000000.00 0000000.00   0000000.00                             000000000000000                                                                                                                                                   B101418  000000000000 0000000000002.85     02300 01000                  
02175240485050090DT67590675900000007666800101800000010180010124001193080900010400139032120230000000340008023000000000090386448233XXXXXX6860       VS11    0001111   NYV1 A E583080659065241N840000000003400565P00    05DNPLANET VAPOR INC #300    031826    VD84000000003400 N  599977384654                            000000000+                F DF 10433                     000000000  Y000000000 338   0000000000000.00 0000000.00   0000000.00                             000000000000000                                                                                                                                                     01418 A000000000000 0000000000000.24     00050 02200                  
02175250485050091DT67590675900000007666800101800000010180010124001193080900010400147032120230000000307608023000000000090386433477XXXXXX2191       VS11    0001111   NYV1 A E463080665351080N840000000003076VCRM00    05DNPLANET VAPOR INC #300    669594    VD84000000003076 N  599977384654                            000000000+                F DF 10433                     000000000  Y000000000 338   0000000000000.00 0000000.00   0000000.00                             000000000000000                                                                                                                                                     01418 A000000000000 0000000000000.24     00050 02200                  
02175260485050092DT67590675900000007666800101800000010180010177287283080900010400156032120230000000213708023000000000090386531258XXXXXX0739       MS02WI09          NY 1 0 AMDJBQ9WRY0321  N840000000002137          05DNPLANET VAPOR INC #300    104626    MD84000000002137 N  599977384654                            000000000+M10101C5434C    MDJ  10815                     000000000  1                0000000000000.00 0000000.00   0000000.00                             000000000000000                                                                                                                                                   B101418  000000000000 0000000000000.23     00050 02200                  
02175270485050093DT67590675900000007666800101800000010180010124001193080900010400162032120230000000323808023000000000090386448232XXXXXX2751       VS11    0001111   NYV1 A E303080685322706N840000000003238N5F300    05DNPLANET VAPOR INC #300    050205    VD84000000003238 N  599977384654                            000000000+                F DF 00381                     000000000  N000000000       0000000000000.00 0000000.00   0000000.00                             000000000000000                                                                                                                                                     01418 A000000000000 0000000000000.41     00800 01500                  
02175280485050094DT67590675900000007666800101800000010180010124001193080900010400170032120230000000359408023000000000090386443040XXXXXX9168       VS11    0001111   NYV1 A E463080699242372N840000000003594TFTX00    05DNPLANET VAPOR INC #300    378576    VD84000000003594 N  599977384654                            000000000+                F DF 10433                     000000000  Y000000000 338   0000000000000.00 0000000.00   0000000.00                             000000000000000                                                                                                                                                     01418 A000000000000 0000000000000.24     00050 02200                  
02175290485050095DT67590675900000007666800101800000010180010124001193080900010400188032120230000000242908023000000000090386403216XXXXXX6522       VS11    0001111   NYV1 A E583080725401728N840000000002429MKSC00    05DNPLANET VAPOR INC #300    070360    VS84000000002429 N  599977384654                            000000000+                A CA 12110                     000000000  N000000000 493   0000000000000.00 0000000.00   0000000.00                             000000000000000                                                                                                                                                     01418 A000000000000 0000000000000.47     01510 01000                  
02175300485050096DT67590675900000007666800101800000010180010124001193080900010400196032120230000000075308023000000000090386473703XXXXXX2436       VK04VS111111111   NYV1 A E303080742112781N840000000000753J7Q700    05DNPLANET VAPOR INC #300    051620    VD84000000000753 N  599977384654                            000000000+                F DF 10439                     000000000  Y000000000 331   0000000000000.00 0000000.00   0000000.00                             000000000000000                                                                                                                                                     01418 F000000000000 0000000000000.22     00050 02200                  
02175310485050097DT67590675900000007666800101800000010180010124001193080900010400204032120230000000161908023000000000090386406049XXXXXX0137       VS11    0001111   NYV1 A E303080749161671N840000000001619BZQD00    05DNPLANET VAPOR INC #300    054836    VD84000000001619 N  599977384654                            000000000+                F DF 10433                     000000000  Y000000000 338   0000000000000.00 0000000.00   0000000.00                             000000000000000                                                                                                                                                     01418 A000000000000 0000000000000.23     00050 02200                  
02175320485050098DT67590675900000007666800101800000010180010177287283080900010400214032120230000000137508023000000000090386531258XXXXXX7657       MS02WI09          NY 1 0 AMDJCBBTH50321  N840000000001375          05DNPLANET VAPOR INC #300    105142    MD84000000001375 N  599977384654                            000000000+M10101C5434C    MDJ  10815                     000000000  1                0000000000000.00 0000000.00   0000000.00                             000000000000000                                                                                                                                                   B101418  000000000000 0000000000000.23     00050 02200                  
02175330485050099DT67590675900000007666800101800000010180010124001193080900010400220032120230000000583008023000000000090386440066XXXXXX5538       VS11    0001111   NYV1 A E383080759016357N840000000005830TL7C00    05DNPLANET VAPOR INC #300    07700B    VS84000000005830 N  599977384654                            000000000+                B CB 12111                     000000000  N000000000 495   0000000000000.00 0000000.00   0000000.00                             000000000000000                                                                                                                                                     01418 A000000000000 0000000000001.06     01650 01000                  
02175340485050100DT67590675900000007666800101800000010180010177287283080900010400230032120230000000151008023000000000090386517800XXXXXX8712       MS02WI09          NY 2 0 AMCSDEF5H50321  N840000000001510          05DNPLANET VAPOR INC #300    021809    MC84000000001510 N  599977384654                            000000000+M10101C1334C    MCS  00015                     000000000  N                0000000000000.00 0000000.00   0000000.00                             000000000000000                                                                                                                                                   B101418  000000000000 0000000000000.35     01650 01000                  
02175350485050101DT67590675900000007666800101800000010180010177287283080900010400248032120230000000377908023000000000090386553781XXXXXX4920       MS02WI09          NY 2 0 AMDSQ0B5TC0321  N840000000003779          05DNPLANET VAPOR INC #300    709179    MD84000000003779 N  599977384654                            000000000+M10101C1334C    MDS  00402                     000000000  N                0000000000000.00 0000000.00   0000000.00                             000000000000000                                                                                                                                                     01418  000000000000 0000000000000.55     01050 01500                  
02175360485050102DT67590675900000007666800101800000010180010124001193080900010400253032120230000000213708023000000000090386438419XXXXXX9982       VS11    0001111   NYV1 A E463080804504641N840000000002137TT2R00    05DNPLANET VAPOR INC #300    082050    VD84000000002137 N  599977384654                            000000000+                F DF 00381                     000000000  N000000000       0000000000000.00 0000000.00   0000000.00                             000000000000000                                                                                                                                                     01418 A000000000000 0000000000000.32     00800 01500                  
02175370485050103DT67590675900000007666800101800000010180010124001193080900010400261032120230000000151108023000000000090386410492XXXXXX9791       VS11    0001111   NYV1 A E383080806061951N8400000000015117BQ800    07DNPLANET VAPOR INC #300    062461    VD84000000001511 N  599977384654                            000000000+                F DF 10433                     000000000  Y000000000 338   0000000000000.00 0000000.00   0000000.00                             000000000000000                                                                                                                                                     01418 A000000000000 0000000000000.23     00050 02200                  
02175380485050104DT67590675900000007666800101800000010180010177287283080900010400271032120230000000677308023000000000090386520118XXXXXX2508       MS02WI09          NY 1 0 AMWEZ822II0321  N840000000006773          05DNPLANET VAPOR INC #300    01786P    MC84000000006773 N  599977384654                            000000000+M10101C5434C    MWE  00739                     000000000  N                0000000000000.00 0000000.00   0000000.00                             000000000000000                                                                                                                                                   B101418  000000000000 0000000000001.66     02300 01000                  
02175390485050105BH6759067590000000659380010180000090170321202308023000000000119793    0000090001050031N8001016759C03222023                                                                                                                                                                                                                                                                                                                                                                                                                                                                                                                                                                                                 
02175400485050106DT67590675900000006593800101800000010180010177287283080900010500013032120230000000280708023000000000119793523957XXXXXX3969       MS02WI09          NY 1 0 AMDJIRAXPP0321  N840000000002807          05DNPLANET VAPOR INC #100    377560    MD84000000002807 N  599977384444                            000000000+M10101C5434C    MDJ  00402                     000000000  N                0000000000000.00 0000000.00   0000000.00                             000000000000000                                                                                                                                                   B101418  000000000000 0000000000000.44     01050 01500                  
02175410485050107DT67590675900000006593800101800000010180010124001193080900010500029032120230000000302208023000000000119793474166XXXXXX0811       VS11    0001111   NYV1 A E383080529096520N840000000003022LLWM00    05DNPLANET VAPOR INC #100    020351    VD84000000003022 N  599977384444                            000000000+                G DG 10351                     000000000  Y000000000 338   0000000000000.00 0000000.00   0000000.00                             000000000000000                                                                                                                                                     01418 A000000000000 0000000000000.24     00050 02200                  
02175420485050108DT67590675900000006593800101800000010180010124001193080900010500037032120230000000890508023000000000119793410492XXXXXX9122       VS11    0001111   NYV1 A E583080544261562N840000000008905LG4200    07DNPLANET VAPOR INC #100    754625    VD84000000008905 N  599977384444                            000000000+                F DF 10433                     000000000  Y000000000 338   0000000000000.00 0000000.00   0000000.00                             000000000000000                                                                                                                                                     01418 A000000000000 0000000000000.26     00050 02200                  
02175430485050109DT67590675900000006593800101800000010180010124001193080900010500045032120230000000323808023000000000119793400022XXXXXX8950       VS11    0001111   NYV1 A E583080586861729N8400000000032387M2Z00    05DNPLANET VAPOR INC #100    657549    VD84000000003238 N  599977384444                            000000000+                F DF 10433                     000000000  Y000000000 338   0000000000000.00 0000000.00   0000000.00                             000000000000000                                                                                                                                                     01418 A000000000000 0000000000000.24     00050 02200                  
