00002100565560002BH6759067590000000288180088880000090171226202236022000000000004098    0000090001290075N8008886759C12262022                                                                                                                                                                                                                                                                                                                                                                                                                                                                                                                                                                                                 
00002110565560003DT67590675900000002881800888800000010180088824001192360900012900758122520220000000409836022000000000004098440393XXXXXX3359               2111111   NYV4 A7W302359561144700N840000000004098ZB3V00    01DNHAPPY HIPPIE             463635    VD84000000004098 NP1549976044904   1893                     000000000+                F PF 08175                     000000000  N000000000       0000000000000.00 0000000.00   0000000.00                             000000000000000                                                                                                                                                     01418 G000000004098 0000000000000.92     01750 02000                  
00002120565560001P16759067590000000288180088880000001010000000000000000                             2000000000000000000000000              000000000000                    0000000000000000000000000                    000000000000                                                                                                                                                                                                                                                                                                                                                                                                                                                                                        
