03353070404370002BH6759067590000000370780088880000090170217202304823000000000071690    0000090001350256Y8008886759C02202023                                                                                                                                                                                                                                                                                                                                                                                                                                                                                                                                                                                                 
03353080404370003DT67590675900000003707800888800000010180088887287283048900013502503021620230000000569904823000000000071690533248XXXXXX0048       ME03KE06MS02      NY 4607AMPVWZ63QP0216  N840000000005699          81DNMR HEMP FLOWER           JLEO5Z    MD84000000005699 N  549976053336   85949                    000000000+600450S00130    MPV  09899                     000000000  N                0000000000000.00 0000000.00   0000000.00                             000000000000000                                                                                                                                                   U001424  000000000000 0000000000001.20     01760 02000                  
03353090404370004DT67590675900000003707800888800000010180088887287283048900013502511021620230000001087404823000000000071690521853XXXXXX8149       ME03KE06PT01      NY 4607AMCWK9R0QQ0216  N840000000010874          81DNMR HEMP FLOWER           01630T    MC84000000010874 N  549976053336   85950                    000000000+600450S00130    MCW  02182                     000000000  N                0000000000000.00 0000000.00   0000000.00                             000000000000000                                                                                                                                                   U001424  000000000000 0000000000002.93     02600 01000                  
03353100404370005DT67590675900000003707800888800000010180088824001193048900013502528021720230000001699004823000000000071690410039XXXXXX2936               2111111   NYV4 A7W303048640265968N8400000000169909KDR00    01DNMR HEMP FLOWER           18773D    VS84000000016990 NP1549976053336   86013                    000000000+                D CD 12109                     000000000  N000000000 498   0000000000000.00 0000000.00   0000000.00                             000000000000000                                                                                                                                                     01424 G000000016990 0000000000004.35     02500 01000                  
03353110404370001P16759067590000000370780088880000001010000000000000000                             2000000000000000000000000              000000000000                    0000000000000000000000000                    000000000000                                                                                                                                                                                                                                                                                                                                                                                                                                                                                        
03353120404370006DT67590675900000003707800888800000010180088887287283048900013502537021720230000001949804823000000000071690512230XXXXXX6184       ME03KE06MS02      NY 4607AMWEZ5YF6N0217  N840000000019498          81DNMR HEMP FLOWER           14166Z    MC84000000019498 N  549976053336   86014                    000000000+600450S00130    MWE  00737                     000000000  N                0000000000000.00 0000000.00   0000000.00                             000000000000000                                                                                                                                                   U001424  000000000000 0000000000005.17     02600 01000                  
03353130404370007DT67590675900000003707800888800000010180088824001193048900013502544021720230000000349904823000000000071690433477XXXXXX3743               2111111   NYV4 A7W303048793860969N84000000000349932QC00    01DNMR HEMP FLOWER           620431    VD84000000003499 NP1549976053336   86023                    000000000+                F DF 10420                     000000000  Y000000000 338   0000000000000.00 0000000.00   0000000.00                             000000000000000                                                                                                                                                     01424 G000000003499 0000000000000.24     00050 02200                  
03353140404370001P16759067590000000370780088880000001010000000000000000                             2000000000000000000000000              000000000000                    0000000000000000000000000                    000000000000                                                                                                                                                                                                                                                                                                                                                                                                                                                                                        
03353150404370008DT67590675900000003707800888800000010180088876509753048900013502567021720230000001513004823000000000071690601100XXXXXX2465   BA00                  NY 4 07N753041261090177N840000000015130    00    01DNMR HEMP FLOWER           01740R    DS84000000015130 N  549976053336070                         000000000+1015104910600   DCCDI11325166225  170829000000 000000000  0          460   0000000000000.00 0000000.00   0000000.00                             000000000000000                                                                                                                                                     01424  000000000000 0000000000003.17     02030 01000                  
03353160404370009BH6759067590000001427480010280000090170217202304823000000000277526    0000090001020076Y8001026759C02202023                                                                                                                                                                                                                                                                                                                                                                                                                                                                                                                                                                                                 
03353170404370010DT67590675900000014274800102800000010180010224001193048900010200365021720230000002106204823000000000277526427122XXXXXX6554               2111111   NYV4 A7W463048529738824N840000000021062X7HF00    01DNCBD8666317293            647524    VD84000000021062 NP1549977145232   DB998F7B14TF48282C24C3F  000000000+                F DF 10420                     000000000  Y000000000 338   0000000000000.00 0000000.00   0000000.00                             000000000000000                                                                                                                                                     01424 G000000021062 0000000000000.33     00050 02200                  
03353180404370001P16759067590000001427480010280000001010000000000000000                             2000000000000000000000000              000000000000                    0000000000000000000000000                    000000000000                                                                                                                                                                                                                                                                                                                                                                                                                                                                                        
03353190404370011DT67590675900000014274800102800000010180010224001193048900010200373021720230000002182704823000000000277526451440XXXXXX0914               2111111   NYV4 A7W383048553106711N840000000021827RB6K00    01DNCBD8666317293            072150    VD84000000021827 NP1549977145232   24E5C23171T7D628EAE4499  000000000+                F PF 08175                     000000000  N000000000       0000000000000.00 0000000.00   0000000.00                             000000000000000                                                                                                                                                     01424 G000000021827 0000000000004.02     01750 02000                  
03353200404370001P16759067590000001427480010280000001010000000000000000                             2000000000000000000000000              000000000000                    0000000000000000000000000                    000000000000                                                                                                                                                                                                                                                                                                                                                                                                                                                                                        
03353210404370012DT67590675900000014274800102800000010180010224001193048900010200381021720230000000149504823000000000277526414720XXXXXX0060               2111111   NYV4 A7W583048584591267N840000000001495GQNL00    01DNCBD8666317293            02583D    VS84000000001495 NP1549977145232   CA9B388847TB8688332FB80  000000000+                D CD 12109                     000000000  N000000000 498   0000000000000.00 0000000.00   0000000.00                             000000000000000                                                                                                                                                     01424 G000000001495 0000000000000.47     02500 01000                  
03353220404370001P16759067590000001427480010280000001010000000000000000                             2000000000000000000000000              000000000000                    0000000000000000000000000                    000000000000                                                                                                                                                                                                                                                                                                                                                                                                                                                                                        
03353230404370013DT67590675900000014274800102800000010180010224001193048900010200399021720230000001499104823000000000277526459954XXXXXX9886               2111111   NYV4 A7W303048586010693N840000000014991GNHV00    01DNCBD8666317293            H16723    VD84000000014991 NP1549977145232   FB1366A84ET2B05DACF74C7  000000000+                F DF 10420                     000000000  Y000000000 338   0000000000000.00 0000000.00   0000000.00                             000000000000000                                                                                                                                                     01424 G000000014991 0000000000000.29     00050 02200                  
03353240404370001P16759067590000001427480010280000001010000000000000000                             2000000000000000000000000              000000000000                    0000000000000000000000000                    000000000000                                                                                                                                                                                                                                                                                                                                                                                                                                                                                        
03353250404370014DT67590675900000014274800102800000010180010287287283048900010200416021720230000001987004823000000000277526548032XXXXXX8787       ME03KE06MS02      NY 4607AMCSY8W9L80217  N840000000019870          81DNCBD8666317293            003317    MC84000000019870 N  549977145232   7A5D09E779T497599C99B3D  000000000+600450S00130    MCS  00013                     000000000  N                0000000000000.00 0000000.00   0000000.00                             000000000000000                                                                                                                                                   U001424  000000000000 0000000000003.97     01950 01000                  
03353260404370015DT67590675900000014274800102800000010180010287287283048900010200432021720230000001589004823000000000277526517545XXXXXX3083       ME03KE06MS02      NY 4607AMDJITVB6O0217  N840000000015890          81DNCBD8666317293            017150    MD84000000015890 N  549977145232   17038956B2T4F8BD2575052  000000000+600450S00130    MDJ  10813                     000000000  1                0000000000000.00 0000000.00   0000000.00                             000000000000000                                                                                                                                                   U001424  000000000000 0000000000000.30     00050 02200                  
03353270404370016DT67590675900000014274800102800000010180010287287283048900010200440021720230000001987004823000000000277526511217XXXXXX5136       ME03KE06MS02      NY 4607AMDJJ70H6O0217  N840000000019870          81DNCBD8666317293            009077    MD84000000019870 N  549977145232   D2A91CC8B5TE93C198A59EF  000000000+600450S00130    MDJ  00401                     000000000  N                0000000000000.00 0000000.00   0000000.00                             000000000000000                                                                                                                                                   U001424  000000000000 0000000000003.43     01650 01500                  
03353280404370017DT67590675900000014274800102800000010180010224001193048900010200456021720230000001577604823000000000277526451440XXXXXX0004               2111111   NYV4 A7W463048676757730N840000000015776TCQR00    01DNCBD8666317293            104755    VD84000000015776 NP1549977145232   FB18AF0548T93692A1F1BFF  000000000+                F PF 08175                     000000000  N000000000       0000000000000.00 0000000.00   0000000.00                             000000000000000                                                                                                                                                     01424 G000000015776 0000000000002.96     01750 02000                  
03353290404370001P16759067590000001427480010280000001010000000000000000                             2000000000000000000000000              000000000000                    0000000000000000000000000                    000000000000                                                                                                                                                                                                                                                                                                                                                                                                                                                                                        
03353300404370018DT67590675900000014274800102800000010180010224001193048900010200514021720230000000749904823000000000277526440393XXXXXX9173               2111111   NYV4 A7W303048709468294N840000000007499FQQ700    01DNCBD8666317293            369077    VD84000000007499 NP1549977145232   0BE5C0D0F1TA95394F93214  000000000+                F PF 08175                     000000000  N000000000       0000000000000.00 0000000.00   0000000.00                             000000000000000                                                                                                                                                     01424 G000000007499 0000000000001.51     01750 02000                  
03353310404370001P16759067590000001427480010280000001010000000000000000                             2000000000000000000000000              000000000000                    0000000000000000000000000                    000000000000                                                                                                                                                                                                                                                                                                                                                                                                                                                                                        
03353320404370019DT67590675900000014274800102800000010180010224001193048900010200522021720230000001987004823000000000277526427082XXXXXX6988               2111111   NYV4 A7W303048717093929N840000000019870JS4400    01DNCBD8666317293            017707    VS84000000019870 NP1549977145232   4705FFEC54T2BBBE2BB69BA  000000000+                D CD 12109                     000000000  N000000000 498   0000000000000.00 0000000.00   0000000.00                             000000000000000                                                                                                                                                     01424 G000000019870 0000000000005.07     02500 01000                  
03353330404370001P16759067590000001427480010280000001010000000000000000                             2000000000000000000000000              000000000000                    0000000000000000000000000                    000000000000                                                                                                                                                                                                                                                                                                                                                                                                                                                                                        
03353340404370020DT67590675900000014274800102800000010180010224001193048900010200571021720230000002146004823000000000277526434258XXXXXX9723               2111111   NYV4 A7W463048763523028N8400000000214605LPH00    01DNCBD8666317293            012983    VD84000000021460 NP1549977145232   FBD2C0B39DT37F7C6DDCABA  000000000+                F DF 10420                     000000000  Y000000000 338   0000000000000.00 0000000.00   0000000.00                             000000000000000                                                                                                                                                     01424 G000000021460 0000000000000.33     00050 02200                  
03353350404370001P16759067590000001427480010280000001010000000000000000                             2000000000000000000000000              000000000000                    0000000000000000000000000                    000000000000                                                                                                                                                                                                                                                                                                                                                                                                                                                                                        
03353360404370021DT67590675900000014274800102800000010180010224001193048900010200613021720230000002755004823000000000277526412781XXXXXX7018               2111111   NYV4 A7W583048800429957N840000000027550B89C00    01DNCBD8666317293            017503    VS84000000027550 NP1549977145232   44EF6FEBE5T1C2AEBC4F71D  000000000+                B CB 12107                     000000000  N000000000 494   0000000000000.00 0000000.00   0000000.00                             000000000000000                                                                                                                                                     01424 G000000027550 0000000000005.72     02040 01000                  
03353370404370001P16759067590000001427480010280000001010000000000000000                             2000000000000000000000000              000000000000                    0000000000000000000000000                    000000000000                                                                                                                                                                                                                                                                                                                                                                                                                                                                                        
03353380404370022DT67590675900000014274800102800000010180010287287283048900010200622021720230000000539904823000000000277526523957XXXXXX4968       ME03KE06MS02      NY 4607AMDJCCJQ350217  N840000000005399          81DNCBD8666317293            152230    MD84000000005399 N  549977145232   CD5AE5C9D4T6266D7014FB7  000000000+600450S00130    MDJ  00401                     000000000  N                0000000000000.00 0000000.00   0000000.00                             000000000000000                                                                                                                                                   U001424  000000000000 0000000000001.04     01650 01500                  
03353390404370023DT67590675900000014274800102800000010180010224001193048900010200639021720230000002126104823000000000277526435546XXXXXX9285               2111111   NYV4 A7W463048812627456N840000000021261BTHB00    01DNCBD8666317293            076084    VD84000000021261 NP1549977145232   368EC37702T3D16E2450F82  000000000+                F DF 10420                     000000000  Y000000000 338   0000000000000.00 0000000.00   0000000.00                             000000000000000                                                                                                                                                     01424 G000000021261 0000000000000.33     00050 02200                  
03353400404370001P16759067590000001427480010280000001010000000000000000                             2000000000000000000000000              000000000000                    0000000000000000000000000                    000000000000                                                                                                                                                                                                                                                                                                                                                                                                                                                                                        
03353410404370024DT67590675900000014274800102800000010180010224001193048900010200712021720230000002636204823000000000277526443047XXXXXX8733               2111111   NYV4 A7W463048863425627N84000000002636262TM00    01DNCBD8666317293            405290    VD84000000026362 NP1549977145232   45648F0193T48F3783CC9FA  000000000+                F DF 10420                     000000000  Y000000000 338   0000000000000.00 0000000.00   0000000.00                             000000000000000                                                                                                                                                     01424 G000000026362 0000000000000.35     00050 02200                  
03353420404370001P16759067590000001427480010280000001010000000000000000                             2000000000000000000000000              000000000000                    0000000000000000000000000                    000000000000                                                                                                                                                                                                                                                                                                                                                                                                                                                                                        
03353430404370025DT67590675900000014274800102800000010180010224001193048900010200720021720230000000109804823000000000277526443047XXXXXX8733               2111111   NYV4 A7W303048863479393N840000000001098T64L00    01DNCBD8666317293            884694    VD84000000001098 NP1549977145232   45648F0193T61630D845AF5  000000000+                F DF 10420                     000000000  Y000000000 338   0000000000000.00 0000000.00   0000000.00                             000000000000000                                                                                                                                                     01424 G000000001098 0000000000000.23     00050 02200                  
03353440404370001P16759067590000001427480010280000001010000000000000000                             2000000000000000000000000              000000000000                    0000000000000000000000000                    000000000000                                                                                                                                                                                                                                                                                                                                                                                                                                                                                        
03353450404370026DT67590675900000014274800102800000010180010287287283048900010200762021720230000001624604823000000000277526515676XXXXXX9509       ME03KE06MS02      NY 4607AMWE6EO4320217  N840000000016246          81DNCBD8666317293            09438Z    MC84000000016246 N  549977145232   D11AB30402T6FC3C941E5BA  000000000+600450S00130    MWE  00737                     000000000  N                0000000000000.00 0000000.00   0000000.00                             000000000000000                                                                                                                                                   U001424  000000000000 0000000000004.32     02600 01000                  
03353460404370027BH6759067590000001330080010280000090170217202304823000000000266889    0000090001020089Y8001026759C02202023                                                                                                                                                                                                                                                                                                                                                                                                                                                                                                                                                                                                 
03353470404370028DT67590675900000013300800102800000010180010287287283048900010200465021720230000002487004823000000000266889518941XXXXXX9677       ME03KE06MS02      NY 4607AMWEUFO1ZU0217  N840000000024870          81DNCBD8666317293            41601Z    MC84000000024870 N  549977133133   94229C61D5TEDB80850FDBF  000000000+600450S00130    MWE  00737                     000000000  N                0000000000000.00 0000000.00   0000000.00                             000000000000000                                                                                                                                                   U001424  000000000000 0000000000006.57     02600 01000                  
03353480404370029DT67590675900000013300800102800000010180010287287283048900010200473021720230000000810204823000000000266889542418XXXXXX1807       ME03KE06MS02      NY 4607AMPLTNB5L90217  N840000000008102          81DNCBD8666317293            13341B    MC84000000008102 N  549977133133   E5EA5AF6CCTF3B1E39AA074  000000000+600450S00130    MPL  00580                     000000000  N                0000000000000.00 0000000.00   0000000.00                             000000000000000                                                                                                                                                   U001424  000000000000 0000000000001.80     02100 01000                  
03353490404370030DT67590675900000013300800102800000010180010276509753048900010200520021720230000000749004823000000000266889601100XXXXXX5032   BA00                  NY 4 07N873041008823784N840000000007490    00    01DNCBD8666317293            01711R    DS84000000007490 N  549977133133070                         000000000+1015104910600   DCCDI11325333086  100802000000 000000000  0          460   0000000000000.00 0000000.00   0000000.00                             000000000000000                                                                                                                                                     01424  000000000000 0000000000001.62     02030 01000                  
03353500404370031DT67590675900000013300800102800000010180010224001193048900010200548021720230000001799104823000000000266889414720XXXXXX0060               2111111   NYV4 A7W383048583854249N840000000017991LHD800    01DNCBD8666317293            09165D    VS84000000017991 NP1549977133133   CA9B388847TDF713FB92A62  000000000+                D CD 12109                     000000000  N000000000 498   0000000000000.00 0000000.00   0000000.00                             000000000000000                                                                                                                                                     01424 G000000017991 0000000000004.60     02500 01000                  
03353510404370001P16759067590000001330080010280000001010000000000000000                             2000000000000000000000000              000000000000                    0000000000000000000000000                    000000000000                                                                                                                                                                                                                                                                                                                                                                                                                                                                                        
03353520404370032DT67590675900000013300800102800000010180010224001193048900010200571021720230000001987004823000000000266889421832XXXXXX7769               2111111   NYV4 A7W383048613241300N840000000019870Q9XB00    01DNCBD8666317293            004755    VS84000000019870 NP1549977133133   919745E096TA65D58DE2B58  000000000+                B CB 12107                     000000000  N000000000 494   0000000000000.00 0000000.00   0000000.00                             000000000000000                                                                                                                                                     01424 G000000019870 0000000000004.15     02040 01000                  
03353530404370001P16759067590000001330080010280000001010000000000000000                             2000000000000000000000000              000000000000                    0000000000000000000000000                    000000000000                                                                                                                                                                                                                                                                                                                                                                                                                                                                                        
03353540404370033DT67590675900000013300800102800000010180010224001193048900010200589021720230000000103604823000000000266889421832XXXXXX7769               2111111   NYV4 A7W463048613281081N84000000000103654X600    01DNCBD8666317293            005355    VS84000000001036 NP1549977133133   919745E096T0B9048D139EF  000000000+                B CB 12107                     000000000  N000000000 494   0000000000000.00 0000000.00   0000000.00                             000000000000000                                                                                                                                                     01424 G000000001036 0000000000000.31     02040 01000                  
03353550404370001P16759067590000001330080010280000001010000000000000000                             2000000000000000000000000              000000000000                    0000000000000000000000000                    000000000000                                                                                                                                                                                                                                                                                                                                                                                                                                                                                        
03353560404370034DT67590675900000013300800102800000010180010287287283048900010200630021720230000002401604823000000000266889547242XXXXXX2996                         NY 4607AMCBJ1TI6O0217  N840000000024016          81DNCBD8666317293            01714G    MB84000000024016 NP1549977133133                            000000000+600450S00130    MCB  10989                     000000000  N                0000000000000.00 0000000.00   0000000.00                             000000000000000                                                                                                                                                   U001424  000000000000 0000000000005.14     02100 01000                  
03353570404370001P1675906759000000133008001028000000101                                                 000001466000000000000          8000   000000000871584967            000000000000                                                                                                                                                                                                                                                                                                                                                                                                                                                                                                                                    
03353580404370035DT67590675900000013300800102800000010180010224001193048900010200654021720230000002487004823000000000266889434256XXXXXX4357               2111111   NYV4 A7W383048668484782N840000000024870D93H00    01DNCBD8666317293            085273    VD84000000024870 NP1549977133133   542C7D1DAAT7DEEE05F6449  000000000+                F DF 10420                     000000000  Y000000000 338   0000000000000.00 0000000.00   0000000.00                             000000000000000                                                                                                                                                     01424 G000000024870 0000000000000.34     00050 02200                  
03353590404370001P16759067590000001330080010280000001010000000000000000                             2000000000000000000000000              000000000000                    0000000000000000000000000                    000000000000                                                                                                                                                                                                                                                                                                                                                                                                                                                                                        
03353600404370036DT67590675900000013300800102800000010680010274001193048900010200667021720230000001243504823000000000266889434256XXXXXX4357               0000000   NYV4 07T583048674470257N840000000012435GGGD00    01CNCBD8666317293            048092    VD84000000012435 NP1549977133133   542C7D1DAAT7DEEE05F6449  000000000+                F DF 08168                     000000000  Y000000000 369   0000000000000.00 0000000.00   0000000.00                             000000000000000                                                                                                                                                     01424  000000012435 0000000000000.00     00000 00000                  
03353610404370001P16759067590000001330080010280000001060000000000000000                             2000000000000000000000000              000000000000                    0000000000000000000000000                    000000000000                                                                                                                                                                                                                                                                                                                                                                                                                                                                                        
03353620404370037DT67590675900000013300800102800000010680010274001193048900010200675021720230000001243504823000000000266889434256XXXXXX4357               0000000   NYV4 07T303048678355275N8400000000124358R2C00    01CNCBD8666317293            075331    VD84000000012435 NP1549977133133   542C7D1DAAT7DEEE05F6449  000000000+                F DF 08168                     000000000  Y000000000 369   0000000000000.00 0000000.00   0000000.00                             000000000000000                                                                                                                                                     01424  000000012435 0000000000000.00     00000 00000                  
03353630404370001P16759067590000001330080010280000001060000000000000000                             2000000000000000000000000              000000000000                    0000000000000000000000000                    000000000000                                                                                                                                                                                                                                                                                                                                                                                                                                                                                        
03353640404370038DT67590675900000013300800102800000010180010224001193048900010200712021720230000002255004823000000000266889400344XXXXXX8943               2111111   NYV4 A7W303048697115348N840000000022550DZC900    01DNCBD8666317293            04568C    VS84000000022550 NP1549977133133   0B9692CABATAFA99D311475  000000000+                C CC 12108                     000000000  N000000000 496   0000000000000.00 0000000.00   0000000.00                             000000000000000                                                                                                                                                     01424 G000000022550 0000000000004.72     02050 01000                  
03353650404370001P16759067590000001330080010280000001010000000000000000                             2000000000000000000000000              000000000000                    0000000000000000000000000                    000000000000                                                                                                                                                                                                                                                                                                                                                                                                                                                                                        
03353660404370039DT67590675900000013300800102800000010180010224001193048900010200738021720230000002670404823000000000266889403995XXXXXX4223               2111111   NYV4 A7W303048721702697N840000000026704CHLN00    01DNCBD8666317293            000004    VD84000000026704 NP1549977133133   943F283A8FT4AA23E7759F4  000000000+                F PF 08175                     000000000  N000000000       0000000000000.00 0000000.00   0000000.00                             000000000000000                                                                                                                                                     01424 G000000026704 0000000000004.87     01750 02000                  
03353670404370001P16759067590000001330080010280000001010000000000000000                             2000000000000000000000000              000000000000                    0000000000000000000000000                    000000000000                                                                                                                                                                                                                                                                                                                                                                                                                                                                                        
03353680404370040DT67590675900000013300800102800000010180010287287283048900010200770021720230000001987004823000000000266889552433XXXXXX6408       ME03KE06MS02      NY 4607AMPLKN9T6Q0217  N840000000019870          81DNCBD8666317293            08957M    MC84000000019870 N  549977133133   6FACC3422CT5C6A8D7B7BA3  000000000+600450S00130    MPL  00580                     000000000  N                0000000000000.00 0000000.00   0000000.00                             000000000000000                                                                                                                                                   U001424  000000000000 0000000000004.27     02100 01000                  
03353690404370041DT67590675900000013300800102800000010180010287287283048900010200853021720230000002146004823000000000266889523957XXXXXX4968       ME03KE06MS02      NY 4607AMDJEG54320217  N840000000021460          81DNCBD8666317293            149920    MD84000000021460 N  549977133133   CD5AE5C9D4TF7682ABCB652  000000000+600450S00130    MDJ  00401                     000000000  N                0000000000000.00 0000000.00   0000000.00                             000000000000000                                                                                                                                                   U001424  000000000000 0000000000003.69     01650 01500                  
03353700404370042DT67590675900000013300800102800000010180010287287283048900010200879021720230000002636204823000000000266889512107XXXXXX1110       ME03KE06PT01      NY 4607AMCW5E4H340217  N840000000026362          81DNCBD8666317293            01799P    MC84000000026362 N  549977133133   9AAA621892TF2CB741256BE  000000000+600450S00130    MCW  00642                     000000000  N                0000000000000.00 0000000.00   0000000.00                             000000000000000                                                                                                                                                   U001424  000000000000 0000000000005.90     02200 01000                  
03353710404370043DT67590675900000013300800102800000010180010224001193048900010200886021720230000002169804823000000000266889410039XXXXXX0024               2111111   NYV4 A7W463049009561690N840000000021698N5WW00    01DNCBD8666317293            07570D    VS84000000021698 NP1549977133133   F285AA3477T20FD1F919909  000000000+                D CD 12109                     000000000  N000000000 498   0000000000000.00 0000000.00   0000000.00                             000000000000000                                                                                                                                                     01424 G000000021698 0000000000005.52     02500 01000                  
03353720404370001P16759067590000001330080010280000001010000000000000000                             2000000000000000000000000              000000000000                    0000000000000000000000000                    000000000000                                                                                                                                                                                                                                                                                                                                                                                                                                                                                        
03353730404370044DT67590675900000013300800102800000010180010224001193048900010200894021720230000002487004823000000000266889435546XXXXXX2653               2111111   NYV4 A7W383049024650849N840000000024870L7L300    01DNCBD8666317293            065117    VD84000000024870 NP1549977133133   B65E3896FDT6AD99C2D6334  000000000+                F DF 10420                     000000000  Y000000000 338   0000000000000.00 0000000.00   0000000.00                             000000000000000                                                                                                                                                     01424 G000000024870 0000000000000.34     00050 02200                  
03353740404370001P16759067590000001330080010280000001010000000000000000                             2000000000000000000000000              000000000000                    0000000000000000000000000                    000000000000                                                                                                                                                                                                                                                                                                                                                                                                                                                                                        
03353750418020002BH6759067590000001165080088880000090170219202305023000000000069002    0000090001070019N8008886759C02202023                                                                                                                                                                                                                                                                                                                                                                                                                                                                                                                                                                                                 
03353760418020003DT67590675900000011650800888800000010180088824001193050900010700013021720230000000313305023000000000069002483313XXXXXX7600       VS11    0001111   NYV1 A E463048702317004N840000000003133RBGM00    07DNVPODS HOLDING INC        013014    VD84000000003133 N  599977032122                            000000000+                F DF 10433                     000000000  Y000000000 338   0000000000000.00 0000000.00   0000000.00                             000000000000000                                                                                                                                                     01418 A000000000000 0000000000000.24     00050 02200                  
03353770418020004DT67590675900000011650800888800000010180088824001193050900010700021021720230000000227005023000000000069002483313XXXXXX7600       VS11    0001111   NYV1 A E583048707258386N840000000002270L72W00    07DNVPODS HOLDING INC        063814    VD84000000002270 N  599977032122                            000000000+                F DF 10433                     000000000  Y000000000 338   0000000000000.00 0000000.00   0000000.00                             000000000000000                                                                                                                                                     01418 A000000000000 0000000000000.23     00050 02200                  
03353780418020005DT67590675900000011650800888800000010180088877287283049900010700035021720230000000340505023000000000069002549170XXXXXX3889       MS02WI09          NY 1 0 AMDJISMG5D0217  N840000000003405          07DNVPODS HOLDING INC        105847    MD84000000003405 N  599977032122                            000000000+M10101M0034C    MDJ  10815                     000000000  1                0000000000000.00 0000000.00   0000000.00                             000000000000000                                                                                                                                                   B101418  000000000000 0000000000000.24     00050 02200                  
03353790418020006DT67590675900000011650800888800000010180088824001193050900010700047021720230000000454105023000000000069002426684XXXXXX5685       VS11    0001111   NYV1 A E303048739863510N8400000000045418T4D00    07DNVPODS HOLDING INC        09186B    VS84000000004541 N  599977032122                            000000000+                B CB 12111                     000000000  N000000000 495   0000000000000.00 0000000.00   0000000.00                             000000000000000                                                                                                                                                     01418 A000000000000 0000000000000.85     01650 01000                  
03353800418020007DT67590675900000011650800888800000010180088824001193050900010700054021720230000000340505023000000000069002411770XXXXXX7176       VS11    0001111   NYV1 A E383048804257129N8400000000034052FLX00    05DNVPODS HOLDING INC        112107    VD84000000003405 N  599977032122                            000000000+                F DF 10433                     000000000  Y000000000 338   0000000000000.00 0000000.00   0000000.00                             000000000000000                                                                                                                                                     01418 A000000000000 0000000000000.24     00050 02200                  
03353810418020008DT67590675900000011650800888800000010180088877287283049900010700068021720230000000283805023000000000069002521307XXXXXX5762       MS02WI09          NY 1 0 AMWEFMXO320217  N840000000002838          05DNVPODS HOLDING INC        05269Z    MC84000000002838 N  599977032122                            000000000+M10101C5434C    MWE  00739                     000000000  N                0000000000000.00 0000000.00   0000000.00                             000000000000000                                                                                                                                                   B101418  000000000000 0000000000000.75     02300 01000                  
03353820418020009DT67590675900000011650800888800000010180088873011003050900010700076021720230000000283805023000000000069002376796XXXXX1007                          NY 1 0 N007121774111063N840000000002838          07DNVPODS HOLDINGS INC       846320    AM84000000002838 N  599977032122                            000000000+51010X50034C 258     11261                     000000000                   0000000000000.00 0000000.00   0000000.00                             000000000000000 61248972086759675900000011650 VPODS HOLDINGS INC       2527 N LINCOLN AVE       7732092463      60614     SMOKEDREAMS2@ICLOUD.COM                   01418  000000000000 0000000000000.55     01600 00000                  
03353830418020010DT67590675900000011650800888800000010180088824001193050900010700088021720230000000533505023000000000069002414709XXXXXX1418       VS11    0001111   NYV1 A E463048856966059N84000000000533564PP00    07DNVPODS HOLDING INC        04498D    VS84000000005335 N  599977032122                            000000000+                D CD 12113                     000000000  N000000000 499   0000000000000.00 0000000.00   0000000.00                             000000000000000                                                                                                                                                     01418 A000000000000 0000000000001.22     02100 01000                  
03353840418020011DT67590675900000011650800888800000010180088877287283049900010700092021720230000000113405023000000000069002517542XXXXXX5228       MS02WI09          NY 1 0 AMDJM4OM350217  N840000000001134          07DNVPODS HOLDING INC        765769    MD84000000001134 N  599977032122                            000000000+M10101M0034C    MDJ  00402                     000000000  N                0000000000000.00 0000000.00   0000000.00                             000000000000000                                                                                                                                                   B101418  000000000000 0000000000000.27     01050 01500                  
03353850418020012DT67590675900000011650800888800000010180088877287283049900010700100021720230000000029705023000000000069002536062XXXXXX3125       MS02WI09          NY 1 0 AMDJN8BF350217  N840000000000297          07DNVPODS HOLDING INC        377484    MD84000000000297 N  599977032122                            000000000+M10101M0034C    MDJ  10815                     000000000  1                0000000000000.00 0000000.00   0000000.00                             000000000000000                                                                                                                                                   B101418  000000000000 0000000000000.22     00050 02200                  
03353860418020013DT67590675900000011650800888800000010180088877287283049900010700118021720230000000794705023000000000069002517805XXXXXX9183       MS02WI09          NY 1 0 AMPL8RGY340217  N840000000007947          05DNVPODS HOLDING INC        09306B    MC84000000007947 N  599977032122                            000000000+M10101C5434C    MPL  00353                     000000000  N                0000000000000.00 0000000.00   0000000.00                             000000000000000                                                                                                                                                   B101418  000000000000 0000000000001.53     01800 01000                  
03353870418020014DT67590675900000011650800888800000010180088877287283049900010700126021720230000000340605023000000000069002542432XXXXXX4408       MS02WI09          NY 1 0 AMDJ93RQ850217  N840000000003406          07DNVPODS HOLDING INC        572088    MD84000000003406 N  599977032122                            000000000+M10101M0034C    MDJ  10815                     000000000  1                0000000000000.00 0000000.00   0000000.00                             000000000000000                                                                                                                                                   B101418  000000000000 0000000000000.24     00050 02200                  
03353880418020015DT67590675900000011650800888800000010180088824001193050900010700138021720230000000317905023000000000069002414720XXXXXX0607       VS11    0001111   NYV1 A E383049063808052N840000000003179W6RX00    05DNVPODS HOLDING INC        08628I    VS84000000003179 N  599977032122                            000000000+                I CI 12113                     000000000  N000000000 499   0000000000000.00 0000000.00   0000000.00                             000000000000000                                                                                                                                                     01418 A000000000000 0000000000000.77     02100 01000                  
03353890418020016DT67590675900000011650800888800000010180088824001193050900010700146021720230000000772505023000000000069002419002XXXXXX5021       VS11    0001111   NYV1 A E583049070950807N840000000007725PMSF00    07DNVPODS HOLDING INC        029135    VD84000000007725 N  599977032122                            000000000+                F DF 10433                     000000000  Y000000000 338   0000000000000.00 0000000.00   0000000.00                             000000000000000                                                                                                                                                     01418 A000000000000 0000000000000.26     00050 02200                  
03353900418020017DT67590675900000011650800888800000010180088824001193050900010700153021720230000000068005023000000000069002492125XXXXXX4198       VK04VS111111111   NYV1 A E583049072786477N840000000000680HR9Z00    07DNVPODS HOLDING INC        080121    VD84000000000680 N  599977032122                            000000000+                F DF 10439                     000000000  Y000000000 331   0000000000000.00 0000000.00   0000000.00                             000000000000000                                                                                                                                                     01418 F000000000000 0000000000000.22     00050 02200                  
03353910418020018DT67590675900000011650800888800000010180088824001193050900010700161021720230000000261005023000000000069002443044XXXXXX4101       VS11    0001111   NYV1 A E463049139699112N840000000002610BHNR00    07DNVPODS HOLDING INC        160858    VD84000000002610 N  599977032122                            000000000+                F DF 10433                     000000000  Y000000000 338   0000000000000.00 0000000.00   0000000.00                             000000000000000                                                                                                                                                     01418 A000000000000 0000000000000.23     00050 02200                  
03353920418020019DT67590675900000011650800888800000010180088824001193050900010700179021720230000000227005023000000000069002480990XXXXXX4011       VS11    0001111   NYV1 A E463049148820181N840000000002270X9G700    07DNVPODS HOLDING INC        063830    VD84000000002270 N  599977032122                            000000000+                F DF 10433                     000000000  Y000000000 338   0000000000000.00 0000000.00   0000000.00                             000000000000000                                                                                                                                                     01418 A000000000000 0000000000000.23     00050 02200                  
03353930418020020DT67590675900000011650800888800000010180088824001193050900010700187021720230000000551605023000000000069002410492XXXXXX6830       VS11    0001111   NYV1 A E583049197387103N840000000005516253X00    07DNVPODS HOLDING INC        663385    VD84000000005516 N  599977032122                            000000000+                F DF 10433                     000000000  Y000000000 338   0000000000000.00 0000000.00   0000000.00                             000000000000000                                                                                                                                                     01418 A000000000000 0000000000000.25     00050 02200                  
03353940418020021DT67590675900000011650800888800000010180088824001193050900010700195021720230000000647305023000000000069002410492XXXXXX6830       VS11    0001111   NYV1 A E383049200395430N8400000000064739K7G00    07DNVPODS HOLDING INC        429165    VD84000000006473 N  599977032122                            000000000+                F DF 10433                     000000000  Y000000000 338   0000000000000.00 0000000.00   0000000.00                             000000000000000                                                                                                                                                     01418 A000000000000 0000000000000.25     00050 02200                  
03353950418020022BH6759067590000001107280010180000090170219202305023000000000000511    0000090001130001N8001016759C02202023                                                                                                                                                                                                                                                                                                                                                                                                                                                                                                                                                                                                 
03353960418020023DT67590675900000011072800101800000010180010124001193050900011300011021820230000000051105023000000000000511486284XXXXXX4371       VK04VS111111111   NYV1 A E383049544116359N840000000000511R7KD00    07DNPLANET VAPOR #900        022437    VD84000000000511 N  599976923588                            000000000+                F DF 00451                     000000000  N000000000 214   0000000000000.00 0000000.00   0000000.00                             000000000000000                                                                                                                                                     01418 F000000000000 0000000000000.12     01550 00400                  
03353970418020024BH6759067590000000215480088880000090170219202305023000000000106605    0000090001129083N8008886759C02202023                                                                                                                                                                                                                                                                                                                                                                                                                                                                                                                                                                                                 
03353980418020025DT67590675900000002154800888800000010180088824001193050900011234517021820230000003059105023000000000106605433993XXXXXX7424               2111111   NYV4 A7W583049818415649N8400000000305913W9H00    01DNDRIP DROP DISTRO LLC     09954G    VB84000000030591 NP1519971004114   17451                    000000000+                G3CG308002                     000000000  N000000000 381   0000000000000.00 0000000.00   0000000.00                             000000000000000                                                                                                                                                     01418 G000000030591 0000000000008.67     02800 01000                  
03353990418020001P16759067590000000215480088880000001010000000000000000    43949388776              2000000000000000000000000              000000000000                    0000000000000000000000000                    000000000000                                                                                                                                                                                                                                                                                                                                                                                                                                                                                        
03354000418020026DT67590675900000002154800888800000010180088887287283049900011290837021820230000007601405023000000000106605547415XXXXXX7571                         NY 4607AMEBZ18DVD0218  N840000000076014          81DNDRIP DROP DISTRO LLC     00282Q    MB84000000076014 NP1519900000001   17450                    000000000+600450S00140    MEB  11637                     000000000  N                0000000000000.00 0000000.00   0000000.00                             000000000000000                                                                                                                                                   U001418  000000000000 0000000000022.90     03000 01000                  
03354010418020001P1675906759000000021548008888000000101                                                          000000000000          8000            471534935                                                                                                                                                                                                                                                                                                                                                                                                                                                                                                                                                            
03354020418020027BH6759067590000000096880088880000090170219202305023000000000013977    0000090001457381N8008886759C02202023                                                                                                                                                                                                                                                                                                                                                                                                                                                                                                                                                                                                 
03354030418020028DT67590675900000000968800888800000010180088887287283049900014523655021820230000000752605023000000000013977542418XXXXXX6496       ME03KE06PT01      NY 4607AMCW819J340217  N840000000007526          81DNHIGHER FLOUR LLC         09006P    MC84000000007526 N  546200000001   rcW1C92LRgSGsMXLCaNZ     000000000+600450S00140    MCW  00642                     000000000  N                0000000000000.00 0000000.00   0000000.00                             000000000000000                                                                                                                                                   U001418  000000000000 0000000000001.76     02200 01000                  
03354040418020029DT67590675900000000968800888800000010180088887287283049900014573817021820230000000645105023000000000013977554331XXXXXX9931       ME03KE06MS02      NY 4607AMDJUDOS1X0218  N840000000006451          81DNHIGHER FLOUR LLC         772066    MD84000000006451 N  546200000001   r1iEmD4QhZCDjYUIxhnw     000000000+600450S00140    MDJ  00401                     000000000  N                0000000000000.00 0000000.00   0000000.00                             000000000000000                                                                                                                                                   U001418  000000000000 0000000000001.21     01650 01500                  
03354050418020030BH6759067590000000708880010180000090170219202305023000000000143047    0000090001100037N8001016759C02202023                                                                                                                                                                                                                                                                                                                                                                                                                                                                                                                                                                                                 
03354060418020031DT67590675900000007088800101800000010180010177287283049900011000013021820230000000410205023000000000143047542418XXXXXX3651       MS02WI09          NY 1 0 AMWEPF6MIJ0218  N840000000004102          05DNPLANET VAPOR #200        17163P    MC84000000004102 N  599976770268                            000000000+M10101C5434C    MWE  00739                     000000000  N                0000000000000.00 0000000.00   0000000.00                             000000000000000                                                                                                                                                   B101418  000000000000 0000000000001.04     02300 01000                  
03354070418020032DT67590675900000007088800101800000010180010124001193050900011000025021820230000000280705023000000000143047430602XXXXXX2469       VS11    0001111   NYV1 A E303049582398772N8400000000028073HTN00    05DNPLANET VAPOR #200        971921    VD84000000002807 N  599976770268                            000000000+                F DF 00381                     000000000  N000000000       0000000000000.00 0000000.00   0000000.00                             000000000000000                                                                                                                                                     01418 A000000000000 0000000000000.37     00800 01500                  
03354080418020033DT67590675900000007088800101800000010180010124001193050900011000033021820230000000051305023000000000143047474474XXXXXX6447       VK04VS111111111   NYV1 A E303049590113401N840000000000513MQBB00    05DNPLANET VAPOR #200        102035    VD84000000000513 N  599976770268                            000000000+                F DF 10439                     000000000  Y000000000 331   0000000000000.00 0000000.00   0000000.00                             000000000000000                                                                                                                                                     01418 F000000000000 0000000000000.22     00050 02200                  
03354090418020034DT67590675900000007088800101800000010180010124001193050900011000041021820230000000237505023000000000143047400022XXXXXX0816       VS11    0001111   NYV1 A E463049598652948N840000000002375MW5H00    05DNPLANET VAPOR #200        016960    VD84000000002375 N  599976770268                            000000000+                F DF 10433                     000000000  Y000000000 338   0000000000000.00 0000000.00   0000000.00                             000000000000000                                                                                                                                                     01418 A000000000000 0000000000000.23     00050 02200                  
03354100418020035DT67590675900000007088800101800000010180010124001193050900011000058021820230000000971505023000000000143047430602XXXXXX8931       VS11    0001111   NYV1 A E303049599848424N840000000009715TZ5H00    05DNPLANET VAPOR #200        976086    VD84000000009715 N  599976770268                            000000000+                F DF 00381                     000000000  N000000000       0000000000000.00 0000000.00   0000000.00                             000000000000000                                                                                                                                                     01418 A000000000000 0000000000000.93     00800 01500                  
03354110418020036DT67590675900000007088800101800000010180010124001193050900011000066021820230000000345405023000000000143047446540XXXXXX5645       VS11    0001111   NYV1 A E303049618623697N84000000000345489TZ00    05DNPLANET VAPOR #200        018721    VS84000000003454 N  599976770268                            000000000+                C CC 12112                     000000000  N000000000 497   0000000000000.00 0000000.00   0000000.00                             000000000000000                                                                                                                                                     01418 A000000000000 0000000000000.67     01650 01000                  
03354120418020037DT67590675900000007088800101800000010180010177287283049900011000070021820230000000563405023000000000143047527519XXXXXX0545       MS02WI09          NY 1 0 AMDJQ77VIJ0218  N840000000005634          05DNPLANET VAPOR #200        102062    MD84000000005634 N  599976770268                            000000000+M10101C5434C    MDJ  10815                     000000000  1                0000000000000.00 0000000.00   0000000.00                             000000000000000                                                                                                                                                   B101418  000000000000 0000000000000.25     00050 02200                  
03354130418020038DT67590675900000007088800101800000010180010124001193050900011000082021820230000000233105023000000000143047415978XXXXXX2133       VS11    0001111   NYV1 A E383049648522045N8400000000023319F4B00    05DNPLANET VAPOR #200        086512    VD84000000002331 N  599976770268                            000000000+                F DF 10433                     000000000  Y000000000 338   0000000000000.00 0000000.00   0000000.00                             000000000000000                                                                                                                                                     01418 A000000000000 0000000000000.23     00050 02200                  
03354140418020039DT67590675900000007088800101800000010180010124001193050900011000090021820230000000496605023000000000143047466189XXXXXX2541       VS11    0001111   NYV1 A E583049675014565N840000000004966C5P600    05DNPLANET VAPOR #200        080746    VD84000000004966 N  599976770268                            000000000+                F DF 10433                     000000000  Y000000000 338   0000000000000.00 0000000.00   0000000.00                             000000000000000                                                                                                                                                     01418 A000000000000 0000000000000.24     00050 02200                  
03354150418020040DT67590675900000007088800101800000010180010177287283049900011000104021820230000000323805023000000000143047531258XXXXXX2599       MS02WI09          NY 1 0 AMDJLU7RLY0218  N840000000003238          05DNPLANET VAPOR #200        100120    MD84000000003238 N  599976770268                            000000000+M10101C5434C    MDJ  10815                     000000000  1                0000000000000.00 0000000.00   0000000.00                             000000000000000                                                                                                                                                   B101418  000000000000 0000000000000.24     00050 02200                  
03354160418020041DT67590675900000007088800101800000010180010124001193050900011000116021820230000000067705023000000000143047400022XXXXXX1141       VK04VS111111111   NYV1 A E303049692266392N840000000000677DK4R00    05DNPLANET VAPOR #200        122800    VD84000000000677 N  599976770268                            000000000+                F DF 10439                     000000000  Y000000000 331   0000000000000.00 0000000.00   0000000.00                             000000000000000                                                                                                                                                     01418 F000000000000 0000000000000.22     00050 02200                  
03354170418020042DT67590675900000007088800101800000010180010124001193050900011000124021820230000000237505023000000000143047400022XXXXXX4483       VS11    0001111   NYV1 A E383049709275507N840000000002375H3RQ00    05DNPLANET VAPOR #200        165869    VD84000000002375 N  599976770268                            000000000+                F DF 10433                     000000000  Y000000000 338   0000000000000.00 0000000.00   0000000.00                             000000000000000                                                                                                                                                     01418 A000000000000 0000000000000.23     00050 02200                  
03354180418020043DT67590675900000007088800101800000010180010124001193050900011000132021820230000001133605023000000000143047423223XXXXXX5506       VS11    0001111   NYV1 A E463049712767320N8400000000113369DVH00    05DNPLANET VAPOR #200        047495    VD84000000011336 N  599976770268                            000000000+                F DF 00381                     000000000  N000000000       0000000000000.00 0000000.00   0000000.00                             000000000000000                                                                                                                                                     01418 A000000000000 0000000000001.06     00800 01500                  
03354190418020044DT67590675900000007088800101800000010180010124001193050900011000140021820230000000280705023000000000143047430602XXXXXX2414       VS11    0001111   NYV1 A E583049734963975N840000000002807CSRW00    05DNPLANET VAPOR #200        015355    VD84000000002807 N  599976770268                            000000000+                F DF 00381                     000000000  N000000000       0000000000000.00 0000000.00   0000000.00                             000000000000000                                                                                                                                                     01418 A000000000000 0000000000000.37     00800 01500                  
03354200418020045DT67590675900000007088800101800000010180010124001193050900011000157021820230000000213705023000000000143047400022XXXXXX9869       VS11    0001111   NYV1 A E383049736912913N840000000002137C3K700    05DNPLANET VAPOR #200        631200    VD84000000002137 N  599976770268                            000000000+                F DF 10433                     000000000  Y000000000 338   0000000000000.00 0000000.00   0000000.00                             000000000000000                                                                                                                                                     01418 A000000000000 0000000000000.23     00050 02200                  
03354210418020046DT67590675900000007088800101800000010180010124001193050900011000165021820230000000431805023000000000143047461675XXXXXX1868       VS11    0001111   NYV1 A E383049751076205N840000000004318S3KC00    05DNPLANET VAPOR #200        046900    VD84000000004318 N  599976770268                            000000000+                F DF 00381                     000000000  N000000000       0000000000000.00 0000000.00   0000000.00                             000000000000000                                                                                                                                                     01418 A000000000000 0000000000000.50     00800 01500                  
03354220418020047DT67590675900000007088800101800000010180010124001193050900011000173021820230000000161905023000000000143047406049XXXXXX5328       VS11    0001111   NYV1 A E463049753819496N840000000001619C7B300    05DNPLANET VAPOR #200        045621    VD84000000001619 N  599976770268                            000000000+                F DF 10433                     000000000  Y000000000 338   0000000000000.00 0000000.00   0000000.00                             000000000000000                                                                                                                                                     01418 A000000000000 0000000000000.23     00050 02200                  
03354230418020048DT67590675900000007088800101800000010180010177287283049900011000187021820230000000045805023000000000143047531258XXXXXX1921       MS02WI09          NY 1 0 AMDJPNL4LY0218  N840000000000458          05DNPLANET VAPOR #200        101181    MD84000000000458 N  599976770268                            000000000+M10101C5434C    MDJ  10815                     000000000  1                0000000000000.00 0000000.00   0000000.00                             000000000000000                                                                                                                                                   B101418  000000000000 0000000000000.22     00050 02200                  
03354240418020049DT67590675900000007088800101800000010180010177287283049900011000195021820230000000016205023000000000143047531258XXXXXX1921       MS02WI09          NY 1 0 AMDJPQSZLY0218  N840000000000162          05DNPLANET VAPOR #200        102122    MD84000000000162 N  599976770268                            000000000+M10101C5434C    MDJ  10815                     000000000  1                0000000000000.00 0000000.00   0000000.00                             000000000000000                                                                                                                                                   B101418  000000000000 0000000000000.22     00050 02200                  
03354250418020050DT67590675900000007088800101800000010180010124001193050900011000207021820230000000215905023000000000143047433477XXXXXX8906       VS11    0001111   NYV1 A E383049773754363N840000000002159BK3700    05DNPLANET VAPOR #200        472298    VD84000000002159 N  599976770268                            000000000+                F DF 10433                     000000000  Y000000000 338   0000000000000.00 0000000.00   0000000.00                             000000000000000                                                                                                                                                     01418 A000000000000 0000000000000.23     00050 02200                  
03354260418020051DT67590675900000007088800101800000010180010124001193050900011000215021820230000000048605023000000000143047433477XXXXXX8906       VK04VS111111111   NYV1 A E303049774456687N8400000000004863NW200    05DNPLANET VAPOR #200        473367    VD84000000000486 N  599976770268                            000000000+                F DF 10439                     000000000  Y000000000 331   0000000000000.00 0000000.00   0000000.00                             000000000000000                                                                                                                                                     01418 F000000000000 0000000000000.22     00050 02200                  
03354270418020052DT67590675900000007088800101800000010180010124001193050900011000223021820230000000340005023000000000143047441103XXXXXX6464       VS11    0001111   NYV1 A E303049787925159N840000000003400CTLL00    05DNPLANET VAPOR #200        025316    VD84000000003400 N  599976770268                            000000000+                F DF 10433                     000000000  Y000000000 338   0000000000000.00 0000000.00   0000000.00                             000000000000000                                                                                                                                                     01418 A000000000000 0000000000000.24     00050 02200                  
03354280418020053DT67590675900000007088800101800000010180010124001193050900011000231021820230000000237505023000000000143047448233XXXXXX9793       VS11    0001111   NYV1 A E383049791542623N8400000000023754Q8C00    05DNPLANET VAPOR #200        055914    VD84000000002375 N  599976770268                            000000000+                F DF 10433                     000000000  Y000000000 338   0000000000000.00 0000000.00   0000000.00                             000000000000000                                                                                                                                                     01418 A000000000000 0000000000000.23     00050 02200                  
03354290418020054DT67590675900000007088800101800000010180010177287283049900011000245021820230000000377905023000000000143047523680XXXXXX3820       MS02WI09          NY 1 0 AMPGR1AGLO0218  N840000000003779          05DNPLANET VAPOR #200        140244    MD84000000003779 N  599976770268                            000000000+M10101C5434C    MPG  11964                     000000000  N                0000000000000.00 0000000.00   0000000.00                             000000000000000                                                                                                                                                   B101418  000000000000 0000000000000.58     01150 01500                  
03354300418020055DT67590675900000007088800101800000010180010124001193050900011000256021820230000000161905023000000000143047473703XXXXXX9051       VS11    0001111   NYV1 A E463049797063282N84000000000161982B600    05DNPLANET VAPOR #200        059829    VD84000000001619 N  599976770268                            000000000+                F DF 10433                     000000000  Y000000000 338   0000000000000.00 0000000.00   0000000.00                             000000000000000                                                                                                                                                     01418 A000000000000 0000000000000.23     00050 02200                  
03354310418020056DT67590675900000007088800101800000010180010177287283049900011000260021820230000000237505023000000000143047531258XXXXXX7317       MS02WI09          NY 1 0 AMDJTVIQ1X0218  N840000000002375          05DNPLANET VAPOR #200        103146    MD84000000002375 N  599976770268                            000000000+M10101C5434C    MDJ  10815                     000000000  1                0000000000000.00 0000000.00   0000000.00                             000000000000000                                                                                                                                                   B101418  000000000000 0000000000000.23     00050 02200                  
03354320418020057DT67590675900000007088800101800000010180010177287283049900011000278021820230000000194305023000000000143047553818XXXXXX5422       MS02WI09          NY 1 0 AMDSYXRNLY0218  N840000000001943          05DNPLANET VAPOR #200        174812    MD84000000001943 N  599976770268                            000000000+M10101C5434C    MDS  00402                     000000000  N                0000000000000.00 0000000.00   0000000.00                             000000000000000                                                                                                                                                   B101418  000000000000 0000000000000.35     01050 01500                  
03354330418020058DT67590675900000007088800101800000010180010124001193050900011000280021820230000000728805023000000000143047400022XXXXXX1059       VS11    0001111   NYV1 A E383049823213311N840000000007288HTWN00    05DNPLANET VAPOR #200        869605    VD84000000007288 N  599976770268                            000000000+                F DF 10433                     000000000  Y000000000 338   0000000000000.00 0000000.00   0000000.00                             000000000000000                                                                                                                                                     01418 A000000000000 0000000000000.26     00050 02200                  
03354340418020059DT67590675900000007088800101800000010180010124001193050900011000298021820230000000323805023000000000143047433477XXXXXX6841       VS11    0001111   NYV1 A E303049831439189N840000000003238JXLP00    05DNPLANET VAPOR #200        564174    VD84000000003238 N  599976770268                            000000000+                F DF 10433                     000000000  Y000000000 338   0000000000000.00 0000000.00   0000000.00                             000000000000000                                                                                                                                                     01418 A000000000000 0000000000000.24     00050 02200                  
03354350418020060DT67590675900000007088800101800000010180010124001193050900011000306021820230000001276505023000000000143047400022XXXXXX1852       VS11    0001111   NYV1 A E303049838392131N840000000012765WP4Q00    05DNPLANET VAPOR #200        149970    VD84000000012765 N  599976770268                            000000000+                F DF 10433                     000000000  Y000000000 338   0000000000000.00 0000000.00   0000000.00                             000000000000000                                                                                                                                                     01418 A000000000000 0000000000000.28     00050 02200                  
03354360418020061DT67590675900000007088800101800000010180010124001193050900011000314021820230000000431805023000000000143047473703XXXXXX0473       VS11    0001111   NYV1 A E383049844027073N840000000004318J5F200    05DNPLANET VAPOR #200        099198    VD84000000004318 N  599976770268                            000000000+                F DF 10433                     000000000  Y000000000 338   0000000000000.00 0000000.00   0000000.00                             000000000000000                                                                                                                                                     01418 A000000000000 0000000000000.24     00050 02200                  
03354370418020062DT67590675900000007088800101800000010180010124001193050900011000322021820230000000213705023000000000143047453506XXXXXX8547       VS11    0001111   NYV1 A E383049847893959N840000000002137N94500    05DNPLANET VAPOR #200        H75508    VD84000000002137 N  599976770268                            000000000+                F DF 10433                     000000000  Y000000000 338   0000000000000.00 0000000.00   0000000.00                             000000000000000                                                                                                                                                     01418 A000000000000 0000000000000.23     00050 02200                  
03354380418020063DT67590675900000007088800101800000010180010124001193050900011000330021820230000000741705023000000000143047438419XXXXXX6817       VS11    0001111   NYV1 A E383049851190577N840000000007417QNW600    05DNPLANET VAPOR #200        083839    VD84000000007417 N  599976770268                            000000000+                F DF 00381                     000000000  N000000000       0000000000000.00 0000000.00   0000000.00                             000000000000000                                                                                                                                                     01418 A000000000000 0000000000000.74     00800 01500                  
03354390418020064DT67590675900000007088800101800000010180010124001193050900011000348021820230000000647805023000000000143047463405XXXXXX2400       VS11    0001111   NYV1 A E463050003030783N840000000006478K2TH00    05DNPLANET VAPOR #200        027669    VD84000000006478 N  599976770268                            000000000+                F DF 10433                     000000000  Y000000000 338   0000000000000.00 0000000.00   0000000.00                             000000000000000                                                                                                                                                     01418 A000000000000 0000000000000.25     00050 02200                  
03354400418020065DT67590675900000007088800101800000010180010124001193050900011000355021820230000000471705023000000000143047438419XXXXXX6817       VS11    0001111   NYV1 A E583050004171549N840000000004717DCJ200    05DNPLANET VAPOR #200        090657    VD84000000004717 N  599976770268                            000000000+                F DF 00381                     000000000  N000000000       0000000000000.00 0000000.00   0000000.00                             000000000000000                                                                                                                                                     01418 A000000000000 0000000000000.53     00800 01500                  
03354410418020066DT67590675900000007088800101800000010180010124001193050900011000363021820230000000939205023000000000143047453506XXXXXX5860       VS11    0001111   NYV1 A E583050007931048N84000000000939248KQ00    05DNPLANET VAPOR #200        H90775    VD84000000009392 NP1599976770268                            000000000+                F DF 10433                     000000000  Y000000000 338   0000000000000.00 0000000.00   0000000.00                             000000000000000                                                                                                                                                     01418 A000000000000 0000000000000.27     00050 02200                  
03354420418020001P16759067590000000708880010180000001010000000000000000                             1000000000696000000000000              000000000000                    0000000000000000000000000                    000000000000                                                                                                                                                                                                                                                                                                                                                                                                                                                                                        
03354430418020067DT67590675900000007088800101800000010180010173011003050900011000377021820230000000213705023000000000143047379550XXXXX6890                          NY 1 0 N007139426212063N840000000002137          05DNPLANET VAPOR INC #200    323354    AM84000000002137 N  599976770268                            000000000+51010155434C 258     11261                     000000000                   0000000000000.00 0000000.00   0000000.00                             000000000000000 61248972086759675900000007088 PLANET VAPOR INC #200    7457 PATTERSON RD STE 1098035462263      29209     KEVIN@MOOREDISTRO.COM                     01418  000000000000 0000000000000.44     01600 00000                  
03354440418020068BH6759067590000000909280010180000090170219202305023000000000145153    0000090001100037N8001016759C02202023                                                                                                                                                                                                                                                                                                                                                                                                                                                                                                                                                                                                 
03354450418020069DT67590675900000009092800101800000010180010124001193050900011000017021820230000000129405023000000000145153440393XXXXXX8008       VK04VS111111111   NYV1 A E303049542247404N8400000000012949WZC00    05DNPLANET VAPOR #500        457774    VD84000000001294 N  599976781988                            000000000+                F PF 08165                     000000000  N000000000       0000000000000.00 0000000.00   0000000.00                             000000000000000                                                                                                                                                     01418 F000000000000 0000000000000.26     01600 00500                  
03354460418020070DT67590675900000009092800101800000010180010124001193050900011000025021820230000000129505023000000000145153440393XXXXXX8008       VK04VS111111111   NYV1 A E463049547214976N840000000001295J95V00    07DNPLANET VAPOR #500        546371    VD84000000001295 N  599976781988                            000000000+                F PF 08165                     000000000  N000000000       0000000000000.00 0000000.00   0000000.00                             000000000000000                                                                                                                                                     01418 F000000000000 0000000000000.26     01600 00500                  
03354470418020071DT67590675900000009092800101800000010180010124001193050900011000033021820230000000057505023000000000145153465078XXXXXX9522       VK04VS111111111   NYV1 A E303049551821768N840000000000575LFZV00    07DNPLANET VAPOR #500        101091    VD84000000000575 N  599976781988                            000000000+                F DF 10439                     000000000  Y000000000 331   0000000000000.00 0000000.00   0000000.00                             000000000000000                                                                                                                                                     01418 F000000000000 0000000000000.22     00050 02200                  
03354480418020072DT67590675900000009092800101800000010180010124001193050900011000041021820230000000323805023000000000145153485340XXXXXX6767       VS11    0001111   NYV1 A E583049558109224N840000000003238T43Q00    90DNPLANET VAPOR #500        073010    VD84000000003238 N  599976781988                            000000000+                F PF 08170                     000000000  N000000000       0000000000000.00 0000000.00   0000000.00                             000000000000000                                                                                                                                                     01418 A000000000000 0000000000000.52     01150 01500                  
