00002880533630002BH6759067590000000288180088880000090170123202302323000000000005486    0000090001460098Y8008886759C01242023                                                                                                                                                                                                                                                                                                                                                                                                                                                                                                                                                                                                 
00002890533630003DT67590675900000002881800888800000010180088824001193023900014600981012320230000000548602323000000000005486422921XXXXXX1855               2111111   NYV4 A7W303023624445241N840000000005486G9HQ00    01DNHAPPY HIPPIE             044445    VD84000000005486 NP1549976044904   1915                     000000000+                F DF 00415                     000000000  N000000000       0000000000000.00 0000000.00   0000000.00                             000000000000000                                                                                                                                                     01424 G000000005486 0000000000001.06     01650 01500                  
00002900533630001P16759067590000000288180088880000001010000000000000000                             2000000000000000000000000              000000000000                    0000000000000000000000000                    000000000000                                                                                                                                                                                                                                                                                                                                                                                                                                                                                        
