00014010611290002BH6759067590000004615180015980000090170726202320723000000000202120    0000090001020032Y8001596759C07272023002                                                                                                                                                                                                                                                                                                                                                                                                                                                                                                                                                                                              
00014020611290003DT67590675900000046151800159800000010180015924001193207900010200164072520230000004753620723000000000202120409758XXXXXX9875               2111111   NYV4 A7W583207055986712N8400000000475366ZG500    01DNMELKEE LOCAL VENTURING - 767091    VD84000000047536 NDR596978764370   NMI6565610               000000000+                F PF 08175                     000000000  N000000000       0000000000000.00 0000000.00   0000000.00                             000000000000000                                                                                                                                                     01424 G000000047536 0000000000008.52     01750 02000                  
00014030611290003DR675906759000000461518001598000000101NMI6565610               U000000047536                 P1                                                                                                                                                                                                                                                                                                                                                                                                                                                                                                                                                                                                            
00014040611290001P16759067590000004615180015980000001010000000000000000                             2000000000000000000000000              000000000000                    0000000000000000000000000                    000000000000                                                                                                                                                                                                                                                                                                                                                                                                                                                                                        
00014050611290002G2675906759000000461518001598000000101800-2028993              TX           9 P                00                                      NNNN   N                      000000000000                                                                   78764370                                                                                                                                                                                                                                                                                                                                                                                                                                               
00014060611290004DT67590675900000046151800159800000010180015924001193207900010200180072520230000004171020723000000000202120434256XXXXXX9206               2111111   NYV4 A7W303207070517967N8400000000417106FHC00    01DNMELKEE LOCAL VENTURING - 074599    VD84000000041710 NDR596978764370   NMI6565667               000000000+                F DF 10420                     000000000  Y000000000 338   0000000000000.00 0000000.00   0000000.00                             000000000000000                                                                                                                                                     01424 G000000041710 0000000000000.43     00050 02200                  
00014070611290004DR675906759000000461518001598000000101NMI6565667               Y000000041710                 P1                                                                                                                                                                                                                                                                                                                                                                                                                                                                                                                                                                                                            
00014080611290001P16759067590000004615180015980000001010000000000000000                             2000000000000000000000000              000000000000                    0000000000000000000000000                    000000000000                                                                                                                                                                                                                                                                                                                                                                                                                                                                                        
00014090611290002G2675906759000000461518001598000000101800-2028993              TX           9 D                00                                      NNNN   N                      000000000000                                                                   78764370                                                                                                                                                                                                                                                                                                                                                                                                                                               
00014100611290005DT67590675900000046151800159800000010180015924001193207900010200198072520230000001075020723000000000202120481582XXXXXX3795               2111111   NYV4 A7W383207081611158N840000000010750KZQZ00    01DNMELKEE LOCAL VENTURING - 131166    VD84000000010750 NDR596978764370   NMI6565711               000000000+                F DF 10420                     000000000  Y000000000 338   0000000000000.00 0000000.00   0000000.00                             000000000000000                                                                                                                                                     01424 G000000010750 0000000000000.27     00050 02200                  
00014110611290005DR675906759000000461518001598000000101NMI6565711               Y000000010750                 P1                                                                                                                                                                                                                                                                                                                                                                                                                                                                                                                                                                                                            
00014120611290001P16759067590000004615180015980000001010000000000000000                             2000000000000000000000000              000000000000                    0000000000000000000000000                    000000000000                                                                                                                                                                                                                                                                                                                                                                                                                                                                                        
00014130611290002G2675906759000000461518001598000000101800-2028993              TX           9 D                00                                      NNNN   N                      000000000000                                                                   78764370                                                                                                                                                                                                                                                                                                                                                                                                                                               
00014140611290006DT67590675900000046151800159800000010180015987287283207900010200215072520230000000752520723000000000202120542418XXXXXX6008       ME07KE06MS02      NY 4607AMWERTZ0PW0725  N840000000007525          81DNMELKEE LOCAL VENTURING - 53796P    MC84000000007525 NDR596978764370   NMI6566057               000000000+600450S00130    MWE  00737                     000000000  N                0000000000000.00 0000000.00   0000000.00                             000000000000000                                                                                                                                                   U001424  000000000000 0000000000002.06     02600 01000                  
00014150611290006DR675906759000000461518001598000000101NMI6566057               Y000000000000                                                                                                                                                                                                                                                                                                                                                                                                                                                                                                                                                                                                                               
00014160611290001G2675906759000000461518001598000000101726-2083508              TX           9 E               210                                      NNNN           210000000000000000000000000                        7                                          78764370                                                                                                                                                                                                                                                                                                                                                                                                                                               
00014170611290007DT67590675900000046151800159800000010180015987287283207900010200231072620230000001128820723000000000202120511317XXXXXX6089       ME07KE06MS02      NY 4607AMPGK6I2R30726  N840000000011288          81DNMELKEE LOCAL VENTURING - 000513    MD84000000011288 NDR596978764370   NMI6567820               000000000+600450S00130    MPG  09899                     000000000  N                0000000000000.00 0000000.00   0000000.00                             000000000000000                                                                                                                                                   U001424  000000000000 0000000000002.19     01760 02000                  
00014180611290007DR675906759000000461518001598000000101NMI6567820               Y000000000000                                                                                                                                                                                                                                                                                                                                                                                                                                                                                                                                                                                                                               
00014190611290001G2675906759000000461518001598000000101726-2083508              TX           9 G               210                                      NNNN           210000000000000000000000000                                                                   78764370                                                                                                                                                                                                                                                                                                                                                                                                                                               
00014200611290008DT67590675900000046151800159800000010180015987287283207900010200256072620230000005005520723000000000202120519605XXXXXX9582       ME07KE06MS02      NY 4607AMPLB055230726  N840000000050055          81DNMELKEE LOCAL VENTURING - ZTZ7UL    MC84000000050055 NDR596978764370   NMI6568382               000000000+600450S00130    MPL  00013                     000000000  N                0000000000000.00 0000000.00   0000000.00                             000000000000000                                                                                                                                                   U001424  000000000000 0000000000009.86     01950 01000                  
00014210611290008DR675906759000000461518001598000000101NMI6568382               Y000000000000                                                                                                                                                                                                                                                                                                                                                                                                                                                                                                                                                                                                                               
00014220611290001G2675906759000000461518001598000000101726-2083508              TX           9 L               210                                      NNNN           210000000000000000000000000                        7                                          78764370                                                                                                                                                                                                                                                                                                                                                                                                                                               
00014230611290009DT67590675900000046151800159800000010180015987287283207900010200264072620230000000501420723000000000202120514377XXXXXX0955       ME07KE06MS02      NY 4607AMDJK40LDM0726  N840000000005014          81DNMELKEE LOCAL VENTURING - 27IKCM    MD84000000005014 NDR596978764370   NMI6568837               000000000+600450S00130    MDJ  00401                     000000000  N                0000000000000.00 0000000.00   0000000.00                             000000000000000                                                                                                                                                   U001424  000000000000 0000000000000.98     01650 01500                  
00014240611290009DR675906759000000461518001598000000101NMI6568837               Y000000000000                                                                                                                                                                                                                                                                                                                                                                                                                                                                                                                                                                                                                               
00014250611290001G2675906759000000461518001598000000101726-2083508              TX           9 J               210                                      NNNN           210000000000000000000000000                        7                                          78764370                                                                                                                                                                                                                                                                                                                                                                                                                                               
00014260611290010DT67590675900000046151800159800000010180015924001193207900010200289072620230000000559020723000000000202120414720XXXXXX1937               2111111   NYV4 A7W463207735632981N840000000005590S2RX00    01DNMELKEE LOCAL VENTURING - 08110D    VS84000000005590 NDR596978764370   NMI6569412               000000000+                D CD 12109                     000000000  N000000000 498   0000000000000.00 0000000.00   0000000.00                             000000000000000                                                                                                                                                     01424 G000000005590 0000000000001.50     02500 01000                  
00014270611290010DR675906759000000461518001598000000101NMI6569412               Y000000005590                 P1                                                                                                                                                                                                                                                                                                                                                                                                                                                                                                                                                                                                            
00014280611290001P16759067590000004615180015980000001010000000000000000                             2000000000000000000000000              000000000000                    0000000000000000000000000                    000000000000                                                                                                                                                                                                                                                                                                                                                                                                                                                                                        
00014290611290002G2675906759000000461518001598000000101800-2028993              TX           9 C                00                                      NNNN   Y                      000000000000                                                                   78764370                                                                                                                                                                                                                                                                                                                                                                                                                                               
00014300611290011DT67590675900000046151800159800000010180015973011003207900010200319072620230000001258020723000000000202120379364XXXXX2473                          NY 4 07N008547460981063N840000000012580          01DNMELKEE LOCAL VENTURING LL168026    AM84000000012580 YP1596978764370   NMI6569859               000000000+6004S0S00130 258     11265                     000000000                   0000000000000.00 0000000.00   0000000.00                             000000000000000 61248972656759675900000046151 MELKEE LOCAL VENTURING LL1150 N LOOP 1604 W ST 1087262083508      78248     MELKEELOCALVENTURINGLLC@OUTLOOK.COM       01324  000000000000 0000000000002.18     01650 00000                  
00014310611290001P1675906759000000461518001598000000101                    NMI6569859                            00000000000018706     8000   000000000923481034            000000000000                                                                                                      D                                                                                                                                                                                                                                                                                                                                                                                                                             
00014320611290002P2675906759000000461518001598000000101                                                                                              00000                   000000000                                                                                                                                                                                                                                                                                                                                                                                                                                                                                                                                      
00014330611290003G2675906759000000461518001598000000101SAN ANTONIO              TX           9                  00                  923481034           YNNN                          000000000000                                                                   78764370                                                                                                                                                                                                                                                                                                                                                                                                                                               
00014340611290012DT67590675900000046151800159800000010180015924001193207900010200321072620230000001007220723000000000202120481582XXXXXX0786               2111111   NYV4 A7W383207834672070N8400000000100728DPM00    01DNMELKEE LOCAL VENTURING - 141816    VD84000000010072 NDR596978764370   NMI6570162               000000000+                F DF 10420                     000000000  Y000000000 338   0000000000000.00 0000000.00   0000000.00                             000000000000000                                                                                                                                                     01424 G000000010072 0000000000000.27     00050 02200                  
00014350611290012DR675906759000000461518001598000000101NMI6570162               Y000000010072                 P1                                                                                                                                                                                                                                                                                                                                                                                                                                                                                                                                                                                                            
00014360611290001P16759067590000004615180015980000001010000000000000000                             2000000000000000000000000              000000000000                    0000000000000000000000000                    000000000000                                                                                                                                                                                                                                                                                                                                                                                                                                                                                        
00014370611290002G2675906759000000461518001598000000101800-2028993              TX           9 D                00                                      NNNN   N                      000000000000                                                                   78764370                                                                                                                                                                                                                                                                                                                                                                                                                                               
00014380611290013BH675906759000000198288001098000009017072620232072300000000001987001970000090001130814N8001096759D07272023113                                                                                                                                                                                                                                                                                                                                                                                                                                                                                                                                                                                              
00014390611290014DT67590675900000019828800109800000010680010987287283207900011308140072620230000001987020723000000000019870549113XXXXXX5296                         NN 4607AMCCKG2XR30726  N840000000019870          81CNKETOFUSION 8885968154    4864430197MC84000000019870 NDR599977547467   7BFD49ADAAT142F5F8AB879  000000000+600450S00130    MCC  00000                     000000000  N                0000000000000.00 0000000.00   0000000.00             000000000019870C000000000000000                                                                                                                                                     01424  000000000000 0000000000000.00     00000 00000                  
00014400611290014DR6759067590000001982880010980000001067BFD49ADAAT142F5F8AB879  U000000000000                                                                                                                                                                                                                                                                                                                                                                                                                                                                                                                                                                                                                               
00014410611290001G2675906759000000198288001098000000106888-5968154              UT           9 C               210                                      NNNN           210000000000000000000000000                        7                                          77547467                                                                                                                                                                                                                                                                                                                                                                                                                                               
00014420611290015BH6759067590000004650880015980000090170726202320723000000000212223    0000090001030078Y8001596759C07272023003                                                                                                                                                                                                                                                                                                                                                                                                                                                                                                                                                                                              
00014430611290016DT67590675900000046508800159800000010180015973011003207900010300515072520230000002150020723000000000212223379364XXXXX5596                          NY 4 07N008533726837067N840000000021500          01DNMELKEE LOCAL VENTURING LL881025    AM84000000021500 YP1596978766724   NMI6565686               000000000+6004S0S00130 258     11266                     000000000                   0000000000000.00 0000000.00   0000000.00                             000000000000000 61248972656759675900000046508 MELKEE LOCAL VENTURING LL1150 N LOOP 1604 W ST 1087262083508      78248     INFO@KETOSQUIRREL.COM                     01324  000000000000 0000000000004.40     02000 00000                  
00014440611290001P1675906759000000465088001598000000101                    NMI6565686                            00000000000076006     8000   000000000923481034            000000000000                                                                                                      D                                                                                                                                                                                                                                                                                                                                                                                                                             
00014450611290002P2675906759000000465088001598000000101                                                                                              00000                   000000000                                                                                                                                                                                                                                                                                                                                                                                                                                                                                                                                      
00014460611290003G2675906759000000465088001598000000101SAN ANTONIO              TX           9                  00                  923481034           YNNN                          000000000000                                                                   78766724                                                                                                                                                                                                                                                                                                                                                                                                                                               
00014470611290017DT67590675900000046508800159800000010180015924001193207900010300535072520230000001001120723000000000212223498503XXXXXX8890               2111111   NYV4 A7W383207112976142N840000000010011PN6D00    01DNMELKEE LOCAL VENTURING - 099645    VD84000000010011 NDR596978766724   NMI6565833               000000000+                F DF 00415                     000000000  N000000000       0000000000000.00 0000000.00   0000000.00                             000000000000000                                                                                                                                                     01424 G000000010011 0000000000001.80     01650 01500                  
00014480611290017DR675906759000000465088001598000000101NMI6565833               Y000000010011                 P1                                                                                                                                                                                                                                                                                                                                                                                                                                                                                                                                                                                                            
00014490611290001P16759067590000004650880015980000001010000000000000000                             2000000000000000000000000              000000000000                    0000000000000000000000000                    000000000000                                                                                                                                                                                                                                                                                                                                                                                                                                                                                        
00014500611290002G2675906759000000465088001598000000101800-2028993              TX           9 D                00                                      NNNN   N                      000000000000                                                                   78766724                                                                                                                                                                                                                                                                                                                                                                                                                                               
00014510611290018DT67590675900000046508800159800000010180015987287283207900010300544072520230000000645020723000000000212223552433XXXXXX9131       ME07KE06MS02      NY 4607AMPLJKNSON0725  N840000000006450          81DNMELKEE LOCAL VENTURING - 08288M    MC84000000006450 NDR596978766724   NMI6565934               000000000+600450S00130    MPL  00580                     000000000  N                0000000000000.00 0000000.00   0000000.00                             000000000000000                                                                                                                                                   U001424  000000000000 0000000000001.45     02100 01000                  
00014520611290018DR675906759000000465088001598000000101NMI6565934               N000000000000                                                                                                                                                                                                                                                                                                                                                                                                                                                                                                                                                                                                                               
00014530611290001G2675906759000000465088001598000000101726-2083508              TX           9 L               210                                      NNNN           210000000000000000000000000                        7                                          78766724                                                                                                                                                                                                                                                                                                                                                                                                                                               
00014540611290019DT67590675900000046508800159800000010180015924001193207900010300550072520230000001075020723000000000212223440066XXXXXX7749               2111111   NYV4 A7W583207150176567N840000000010750F8NT00    01DNMELKEE LOCAL VENTURING - 00820D    VS84000000010750 NDR596978766724   NMI6565988               000000000+                D CD 12383                     000000000  N000000000 628   0000000000000.00 0000000.00   0000000.00                             000000000000000                                                                                                                                                     01424 G000000010750 0000000000002.68     02400 01000                  
00014550611290019DR675906759000000465088001598000000101NMI6565988               Y000000010750                 P1                                                                                                                                                                                                                                                                                                                                                                                                                                                                                                                                                                                                            
00014560611290001P16759067590000004650880015980000001010000000000000000                             2000000000000000000000000              000000000000                    0000000000000000000000000                    000000000000                                                                                                                                                                                                                                                                                                                                                                                                                                                                                        
00014570611290002G2675906759000000465088001598000000101800-2028993              TX           9 C                00                                      NNNN   Y                      000000000000                                                                   78766724                                                                                                                                                                                                                                                                                                                                                                                                                                               
00014580611290020DT67590675900000046508800159800000010180015924001193207900010300568072520230000000946020723000000000212223474476XXXXXX3715               2111111   NYV4 A7W383207162769977N840000000009460D5ZK00    01DNMELKEE LOCAL VENTURING - 133119    VD84000000009460 NDR596978766724   NMI6566035               000000000+                F DF 10420                     000000000  Y000000000 338   0000000000000.00 0000000.00   0000000.00                             000000000000000                                                                                                                                                     01424 G000000009460 0000000000000.27     00050 02200                  
00014590611290020DR675906759000000465088001598000000101NMI6566035               Y000000009460                 P1                                                                                                                                                                                                                                                                                                                                                                                                                                                                                                                                                                                                            
00014600611290001P16759067590000004650880015980000001010000000000000000                             2000000000000000000000000              000000000000                    0000000000000000000000000                    000000000000                                                                                                                                                                                                                                                                                                                                                                                                                                                                                        
00014610611290002G2675906759000000465088001598000000101800-2028993              TX           9 D                00                                      NNNN   N                      000000000000                                                                   78766724                                                                                                                                                                                                                                                                                                                                                                                                                                               
00014620611290021DT67590675900000046508800159800000010180015924001193207900010300584072620230000001000120723000000000212223483316XXXXXX1270               2111111   NYV4 A7W463207183525055N840000000010001CCGM00    01DNMELKEE LOCAL VENTURING - 020501    VD84000000010001 NDR596978766724   NMI6566127               000000000+                F DF 10420                     000000000  Y000000000 338   0000000000000.00 0000000.00   0000000.00                             000000000000000                                                                                                                                                     01424 G000000010001 0000000000000.27     00050 02200                  
00014630611290021DR675906759000000465088001598000000101NMI6566127               Y000000010001                 P1                                                                                                                                                                                                                                                                                                                                                                                                                                                                                                                                                                                                            
00014640611290001P16759067590000004650880015980000001010000000000000000                             2000000000000000000000000              000000000000                    0000000000000000000000000                    000000000000                                                                                                                                                                                                                                                                                                                                                                                                                                                                                        
00014650611290002G2675906759000000465088001598000000101800-2028993              TX           9 D                00                                      NNNN   N                      000000000000                                                                   78766724                                                                                                                                                                                                                                                                                                                                                                                                                                               
00014660611290022DT67590675900000046508800159800000010180015924001193207900010300642072620230000002687520723000000000212223434257XXXXXX3980               2111111   NYV4 A7W383207376274108N840000000026875LGCD00    01DNMELKEE LOCAL VENTURING - 055291    VD84000000026875 NDR596978766724   NMI6567092               000000000+                F DF 10420                     000000000  Y000000000 338   0000000000000.00 0000000.00   0000000.00                             000000000000000                                                                                                                                                     01424 G000000026875 0000000000000.35     00050 02200                  
00014670611290022DR675906759000000465088001598000000101NMI6567092               Y000000026875                 P1                                                                                                                                                                                                                                                                                                                                                                                                                                                                                                                                                                                                            
00014680611290001P16759067590000004650880015980000001010000000000000000                             2000000000000000000000000              000000000000                    0000000000000000000000000                    000000000000                                                                                                                                                                                                                                                                                                                                                                                                                                                                                        
00014690611290002G2675906759000000465088001598000000101800-2028993              TX           9 D                00                                      NNNN   N                      000000000000                                                                   78766724                                                                                                                                                                                                                                                                                                                                                                                                                                               
00014700611290023DT67590675900000046508800159800000010180015924001193207900010300659072620230000000806320723000000000212223444796XXXXXX7012               2111111   NYV4 A7W463207450512081N840000000008063GJNG00    01DNMELKEE LOCAL VENTURING - 026985    VS84000000008063 NDR596978766724   NMI6567530               000000000+                A CA 12106                     000000000  N000000000 492   0000000000000.00 0000000.00   0000000.00                             000000000000000                                                                                                                                                     01424 G000000008063 0000000000001.62     01890 01000                  
00014710611290023DR675906759000000465088001598000000101NMI6567530               Y000000008063                 P1                                                                                                                                                                                                                                                                                                                                                                                                                                                                                                                                                                                                            
00014720611290001P16759067590000004650880015980000001010000000000000000                             2000000000000000000000000              000000000000                    0000000000000000000000000                    000000000000                                                                                                                                                                                                                                                                                                                                                                                                                                                                                        
00014730611290002G2675906759000000465088001598000000101800-2028993              TX           9 C                00                                      NNNN   N                      000000000000                                                                   78766724                                                                                                                                                                                                                                                                                                                                                                                                                                               
00014740611290024DT67590675900000046508800159800000010180015924001193207900010300667072620230000000752520723000000000212223423223XXXXXX3905               2111111   NYV4 A7W383207476498726N8400000000075259GJG00    01DNMELKEE LOCAL VENTURING - 083543    VD84000000007525 NDR596978766724   NMI6567609               000000000+                F DF 00415                     000000000  N000000000       0000000000000.00 0000000.00   0000000.00                             000000000000000                                                                                                                                                     01424 G000000007525 0000000000001.39     01650 01500                  
00014750611290024DR675906759000000465088001598000000101NMI6567609               N000000007525                 P1                                                                                                                                                                                                                                                                                                                                                                                                                                                                                                                                                                                                            
00014760611290001P16759067590000004650880015980000001010000000000000000                             2000000000000000000000000              000000000000                    0000000000000000000000000                    000000000000                                                                                                                                                                                                                                                                                                                                                                                                                                                                                        
00014770611290002G2675906759000000465088001598000000101800-2028993              TX           9 D                00                                      NNNN   N                      000000000000                                                                   78766724                                                                                                                                                                                                                                                                                                                                                                                                                                               
00014780611290025DT67590675900000046508800159800000010180015924001193207900010300683072620230000001612520723000000000212223434257XXXXXX3980               2111111   NYV4 A7W463207505452959N840000000016125WW2700    01DNMELKEE LOCAL VENTURING - 072975    VD84000000016125 NDR596978766724   NMI6567778               000000000+                F DF 10420                     000000000  Y000000000 338   0000000000000.00 0000000.00   0000000.00                             000000000000000                                                                                                                                                     01424 G000000016125 0000000000000.30     00050 02200                  
00014790611290025DR675906759000000465088001598000000101NMI6567778               Y000000016125                 P1                                                                                                                                                                                                                                                                                                                                                                                                                                                                                                                                                                                                            
00014800611290001P16759067590000004650880015980000001010000000000000000                             2000000000000000000000000              000000000000                    0000000000000000000000000                    000000000000                                                                                                                                                                                                                                                                                                                                                                                                                                                                                        
00014810611290002G2675906759000000465088001598000000101800-2028993              TX           9 D                00                                      NNNN   N                      000000000000                                                                   78766724                                                                                                                                                                                                                                                                                                                                                                                                                                               
00014820611290026DT67590675900000046508800159800000010180015924001193207900010300691072620230000003225020723000000000212223434256XXXXXX9602               2111111   NYV4 A7W303207512060848N84000000003225049VR00    01DNMELKEE LOCAL VENTURING - 074758    VD84000000032250 NDR596978766724   NMI6567833               000000000+                F DF 10420                     000000000  Y000000000 338   0000000000000.00 0000000.00   0000000.00                             000000000000000                                                                                                                                                     01424 G000000032250 0000000000000.38     00050 02200                  
00014830611290026DR675906759000000465088001598000000101NMI6567833               N000000032250                 P1                                                                                                                                                                                                                                                                                                                                                                                                                                                                                                                                                                                                            
00014840611290001P16759067590000004650880015980000001010000000000000000                             2000000000000000000000000              000000000000                    0000000000000000000000000                    000000000000                                                                                                                                                                                                                                                                                                                                                                                                                                                                                        
00014850611290002G2675906759000000465088001598000000101800-2028993              TX           9 D                00                                      NNNN   N                      000000000000                                                                   78766724                                                                                                                                                                                                                                                                                                                                                                                                                                               
00014860611290027DT67590675900000046508800159800000010180015924001193207900010300709072620230000000752520723000000000212223411773XXXXXX8480               2111111   NYV4 A7W463207521597629N8400000000075259TQ700    01DNMELKEE LOCAL VENTURING - 132990    VD84000000007525 NDR596978766724   NMI6567891               000000000+                F DF 10420                     000000000  Y000000000 338   0000000000000.00 0000000.00   0000000.00                             000000000000000                                                                                                                                                     01424 G000000007525 0000000000000.26     00050 02200                  
00014870611290027DR675906759000000465088001598000000101NMI6567891               Y000000007525                 P1                                                                                                                                                                                                                                                                                                                                                                                                                                                                                                                                                                                                            
00014880611290001P16759067590000004650880015980000001010000000000000000                             2000000000000000000000000              000000000000                    0000000000000000000000000                    000000000000                                                                                                                                                                                                                                                                                                                                                                                                                                                                                        
00014890611290002G2675906759000000465088001598000000101800-2028993              TX           9 D                00                                      NNNN   N                      000000000000                                                                   78766724                                                                                                                                                                                                                                                                                                                                                                                                                                               
00014900611290028DT67590675900000046508800159800000010180015924001193207900010300733072620230000000537520723000000000212223475055XXXXXX5476               2111111   NYV4 A7W583207551236930N8400000000053752F4F00    01DNMELKEE LOCAL VENTURING - 031811    VD84000000005375 NDR596978766724   NMI6568089               000000000+                F DF 10420                     000000000  Y000000000 338   0000000000000.00 0000000.00   0000000.00                             000000000000000                                                                                                                                                     01424 G000000005375 0000000000000.25     00050 02200                  
00014910611290028DR675906759000000465088001598000000101NMI6568089               Y000000005375                 P1                                                                                                                                                                                                                                                                                                                                                                                                                                                                                                                                                                                                            
00014920611290001P16759067590000004650880015980000001010000000000000000                             2000000000000000000000000              000000000000                    0000000000000000000000000                    000000000000                                                                                                                                                                                                                                                                                                                                                                                                                                                                                        
00014930611290002G2675906759000000465088001598000000101800-2028993              TX           9 D                00                                      NNNN   N                      000000000000                                                                   78766724                                                                                                                                                                                                                                                                                                                                                                                                                                               
00014940611290029DT67590675900000046508800159800000010180015924001193207900010300741072620230000001343820723000000000212223400344XXXXXX2719               2111111   NYV4 A7W463207554623387N84000000001343844HW00    01DNMELKEE LOCAL VENTURING - 02674D    VS84000000013438 NDR596978766724   NMI6568114               000000000+                D CD 12383                     000000000  N000000000 628   0000000000000.00 0000000.00   0000000.00                             000000000000000                                                                                                                                                     01424 G000000013438 0000000000003.33     02400 01000                  
00014950611290029DR675906759000000465088001598000000101NMI6568114               Y000000013438                 P1                                                                                                                                                                                                                                                                                                                                                                                                                                                                                                                                                                                                            
00014960611290001P16759067590000004650880015980000001010000000000000000                             2000000000000000000000000              000000000000                    0000000000000000000000000                    000000000000                                                                                                                                                                                                                                                                                                                                                                                                                                                                                        
00014970611290002G2675906759000000465088001598000000101800-2028993              TX           9 C                00                                      NNNN   Y                      000000000000                                                                   78766724                                                                                                                                                                                                                                                                                                                                                                                                                                               
00014980611290030DT67590675900000046508800159800000010180015924001193207900010300758072620230000000537520723000000000212223443040XXXXXX2389               2111111   NYV4 A7W463207561676986N840000000005375LQWT00    01DNMELKEE LOCAL VENTURING - 218662    VD84000000005375 NDR596978766724   NMI6568167               000000000+                F DF 10420                     000000000  Y000000000 338   0000000000000.00 0000000.00   0000000.00                             000000000000000                                                                                                                                                     01424 G000000005375 0000000000000.25     00050 02200                  
00014990611290030DR675906759000000465088001598000000101NMI6568167               Y000000005375                 P1                                                                                                                                                                                                                                                                                                                                                                                                                                                                                                                                                                                                            
00015000611290001P16759067590000004650880015980000001010000000000000000                             2000000000000000000000000              000000000000                    0000000000000000000000000                    000000000000                                                                                                                                                                                                                                                                                                                                                                                                                                                                                        
00015010611290002G2675906759000000465088001598000000101800-2028993              TX           9 D                00                                      NNNN   N                      000000000000                                                                   78766724                                                                                                                                                                                                                                                                                                                                                                                                                                               
00015020611290031DT67590675900000046508800159800000010180015924001193207900010300782072620230000002150020723000000000212223443041XXXXXX9617               2111111   NYV4 A7W383207608426846N840000000021500PJK400    01DNMELKEE LOCAL VENTURING - 521800    VD84000000021500 NDR596978766724   NMI6568507               000000000+                F DF 10420                     000000000  Y000000000 338   0000000000000.00 0000000.00   0000000.00                             000000000000000                                                                                                                                                     01424 G000000021500 0000000000000.33     00050 02200                  
00015030611290031DR675906759000000465088001598000000101NMI6568507               Y000000021500                 P1                                                                                                                                                                                                                                                                                                                                                                                                                                                                                                                                                                                                            
00015040611290001P16759067590000004650880015980000001010000000000000000                             2000000000000000000000000              000000000000                    0000000000000000000000000                    000000000000                                                                                                                                                                                                                                                                                                                                                                                                                                                                                        
00015050611290002G2675906759000000465088001598000000101800-2028993              TX           9 D                00                                      NNNN   N                      000000000000                                                                   78766724                                                                                                                                                                                                                                                                                                                                                                                                                                               
00015060611290032BH6759067590000004749880016180000090170726202320723000000000031535    0000090001020006Y8001616759C07272023002                                                                                                                                                                                                                                                                                                                                                                                                                                                                                                                                                                                              
00015070611290033DT67590675900000047498800161800000010180016187287283207900010200033072520230000001858520723000000000031535542418XXXXXX3523       ME03KE06PT01      NY 4607AMCWP6EI2I0725  N840000000018585          81DNKUSHIEBITES8773144242    20004T    MC84000000018585 NDR599978777627   10240                    000000000+600450S00130    MCW  02182                     000000000  N                0000000000000.00 0000000.00   0000000.00                             000000000000000                                                                                                                                                   U001424  000000000000 0000000000004.93     02600 01000                  
00015080611290033DR67590675900000047498800161800000010110240                    Y000000000000                                                                                                                                                                                                                                                                                                                                                                                                                                                                                                                                                                                                                               
00015090611290001G2675906759000000474988001618000000101877-3144242              FL           9 W               210                                      NNNN           210000000000000000000000000                        7                                          78777627                                                                                                                                                                                                                                                                                                                                                                                                                                               
00015100611290034DT67590675900000047498800161800000010180016187287283207900010200058072620230000000708520723000000000031535514377XXXXXX7246       ME03KE06MS02      NY 4607AMDJU9KODM0726  N840000000007085          81DNKUSHIEBITES8773144242    1JE818    MD84000000007085 NDR599978777627   10241                    000000000+600450S00130    MDJ  00401                     000000000  N                0000000000000.00 0000000.00   0000000.00                             000000000000000                                                                                                                                                   U001424  000000000000 0000000000001.32     01650 01500                  
00015110611290034DR67590675900000047498800161800000010110241                    N000000000000                                                                                                                                                                                                                                                                                                                                                                                                                                                                                                                                                                                                                               
00015120611290001G2675906759000000474988001618000000101877-3144242              FL           9 J               210                                      NNNN           210000000000000000000000000                        7                                          78777627                                                                                                                                                                                                                                                                                                                                                                                                                                               
00015130611290035DT67590675900000047498800161800000010180016124001193207900010200065072620230000000586520723000000000031535410039XXXXXX8500               2111111   NYV4 A7W383207829370821N840000000005865B87G00    01DNKUSHIEBITES8773144242    91305C    VS84000000005865 NDR599978777627   10242                    000000000+                C CC 12108                     000000000  N000000000 496   0000000000000.00 0000000.00   0000000.00                             000000000000000                                                                                                                                                     01424 G000000005865 0000000000001.30     02050 01000                  
00015140611290035DR67590675900000047498800161800000010110242                    Y000000005865                 P1                                                                                                                                                                                                                                                                                                                                                                                                                                                                                                                                                                                                            
00015150611290001P16759067590000004749880016180000001010000000000000000                             2000000000000000000000000              000000000000                    0000000000000000000000000                    000000000000                                                                                                                                                                                                                                                                                                                                                                                                                                                                                        
00015160611290002G2675906759000000474988001618000000101877-3144242              FL           9 C                00                                      NNNN   Y                      000000000000                                                                   78777627                                                                                                                                                                                                                                                                                                                                                                                                                                               
00015170611290036BH6759067590000002092580011280000090170726202320723000000000012167    0000090001600132Y8001126759C07272023060                                                                                                                                                                                                                                                                                                                                                                                                                                                                                                                                                                                              
00015180611290037DT67590675900000020925800112800000010180011224001193207900016001327072620230000001216720723000000000012167499998XXXXXX7655               2111111   NYV4 A7W383207672375295N840000000012167MJFR00    01DNJ K DISTRIBUTION INC     525347    VD84000000012167 NDR549977712156   8565718099               000000000+                G DG 08705                     000000000  N000000000       0000000000000.00 0000000.00   0000000.00                             000000000000000                                                                                                                                                     01424 G000000012167 0000000000003.08     02450 01000                  
00015190611290037DR6759067590000002092580011280000001018565718099               U000000012167                 P1                                                                                                                                                                                                                                                                                                                                                                                                                                                                                                                                                                                                            
00015200611290001P16759067590000002092580011280000001010000000000000000                             2000000000000000000000000              000000000000                    0000000000000000000000000                    000000000000                                                                                                                                                                                                                                                                                                                                                                                                                                                                                        
00015210611290002G2675906759000000209258001128000000101203-8159817              CT           9 D                00                                      NNNN   N                      000000000000                                                                   77712156                                                                                                                                                                                                                                                                                                                                                                                                                                               
00015220611290038BH6759067590000004566680015680000090170726202320723000000000024898    0000090001040003Y8001566759C07272023004                                                                                                                                                                                                                                                                                                                                                                                                                                                                                                                                                                                              
00015230611290039DT67590675900000045666800156800000010180015677287283207900010400014072620230000000378920723000000000024898517800XXXXXX1337       MS02WI09          NY 1 0 AMCSR15SWL0726  N840000000003789          07DNTHE DOSE LLC             026855    MC84000000003789 N  599978722488                            000000000+M10101M0034C    MCS  00015                     000000000  N                0000000000000.00 0000000.00   0000000.00                             000000000000000                                                                                                                                                   B101424  000000000000 0000000000000.73     01650 01000                  
00015240611290001E167590675900000045666800156800000010100E008C80017 00000000000.00404040404040404040404040404040404040404040404040400510A04001220000000000000000000000FF00000000000000000000000000  00010840198000000080012307267B4DBBCC0085C69F3A34B276404040400840A0000000041010000000000000000000404040404040404040404040404040404040401F40404040 000000037.89 000000000.001F03020000000000000000    80                                                                                                                                                                                                                                                                                                                  
00015250611290002G2675906759000000456668001568000000101LAS VEGAS                NV           5 S                                                        NNNN              000000000000000000000000       00               7                                          78722488                                                                                                                                                                                                                                                                                                                                                                                                                                               
00015260611290040DT67590675900000045666800156800000010180015624001193207900010400020072620230000001840320723000000000024898464018XXXXXX2810       VS11    0001111   NYV1 A E303207832050859N840000000018403JN4B00    05DNTHE DOSE LLC             09356D    VS84000000018403 N  599978722488                            000000000+                D CD 12113                     000000000  N000000000 499   0000000000000.00 0000000.00   0000000.00                             000000000000000                                                                                                                                                     01424 A000000000000 0000000000003.96     02100 01000                  
00015270611290001E167590675900000045666800156800000010100E0F8C8001F 00000000000.004040404040404040404040404040404040404040404040404006021203A0A002000000000000000000404040404040404040404040404040  000508403800000000800023072651DCFF5C63571BA9A07DF453404040400840A0000000031010000000000000000000EDCB02340082000000000000000000004040405E40404040 000000184.03 000000000.005E00000000000000000000    80                                                                                                                                                                                                                                                                                                                  
00015280611290002G2675906759000000456668001568000000101LAS VEGAS                NV           5 C                00                                      NNNN00 Y 00                   000000000000                                                                   78722488                                                                                                                                                                                                                                                                                                                                                                                                                                               
00015290611290041DT67590675900000045666800156800000010180015673011003207900010400034072620230000000270620723000000000024898376742XXXXX1008                          NY 1 0 N008549562323061N840000000002706          05DNTHE DOSE LLC             804194    AM84000000002706 Y  599978722488                            000000000+51010155434C 258     11261                     000000000                   0000000000000.00 0000000.00   0000000.00                             000000000000000 61248972086759675900000045666 THE DOSE LLC             6655 S FORT APACHE RD APT7022505375      89148     THEDOSECBD@GMAIL.COM                      01324  000000000000 0000000000000.53     01600 00000                  
00015300611290001E167590675900000045666800156800000010100E0F8C8019D 00000000000.004040404040404040404040404040404040404040404040404006550103A02002000000000000000000404040404040404040404040404040  000008403C000000008000230726EC58291F59C4641D5DB3C41B404040400840A00000002501080100000000000000008D0005DDF6D3896030300000000000004040405E40404040 000000027.06 000000000.005E03000000000000000000    80                                                                                                                                                                                                                                                                                                                  
00015310611290002G2675906759000000456668001568000000101LAS VEGAS                NV           5                  00                                      NNNN                          000000000000                                                                   78722488                                                                                                                                                                                                                                                                                                                                                                                                                                               
00015320611290042BH6759067590000003433080014180000090170726202320723000000000150356    0000090001240048Y8001416759C07272023024                                                                                                                                                                                                                                                                                                                                                                                                                                                                                                                                                                                              
00015330611290043DT67590675900000034330800141800000010180014124001193207900012400010072620230000000641920723000000000150356440393XXXXXX7474       VS11    0001111   NYV1 A E303207546903910N840000000006419NVCS00    07DNJBLISS LLC               991324    VD84000000006419 N  599978512540                            000000000+                F PF 08170                     000000000  N000000000       0000000000000.00 0000000.00   0000000.00                             000000000000000                                                                                                                                                     01424 A000000000000 0000000000000.89     01150 01500                  
00015340611290001E167590675900000034330800141800000010100E068C800FF 00000000000.004040404040404040404040404040404040404040404040404006011203A00000000000000000000000404040404040404040404040404040  0000084020000000000000230726A76167A9EB354CB98DEE7E8E404040400840A0000000031010000000000000000000D2E60DBB5C87561130300000000000004040404040404040 000000064.19 000000000.004040400000000000000000    80                                                                                                                                                                                                                                                                                                                  
00015350611290002G2675906759000000343308001418000000101GREENWOOD                SC           5 P                00                                      NNNN00 N 00                   000000000000                                                                   78512540                                                                                                                                                                                                                                                                                                                                                                                                                                               
00015360611290044DT67590675900000034330800141800000010180014177287283207900012400020072620230000000152420723000000000150356522355XXXXXX3900       MS02WI09          NY 1 0 AMWE961S220726  N840000000001524          07DNJBLISS LLC               12977Z    MC84000000001524 N  599978512540                            000000000+M10101M0034C    MWE  00739                     000000000  N                0000000000000.00 0000000.00   0000000.00                             000000000000000                                                                                                                                                   A101424  000000000000 0000000000000.45     02300 01000                  
00015370611290001E1675906759000000343308001418000000101000008480037 00000000000.00404040404040404040404040404040404040404040404040400114A14003020000000000000000000000FF00000000000000000000000000  000008401B8000000080012307268F73BB3197E61DCC258B402A404040400840A0000000041010000000000000000000404040404040404040404040404040404040403F40404040 000000015.24 000000000.003F00020000000000000000    80                                                                                                                                                                                                                                                                                                                  
00015380611290002G2675906759000000343308001418000000101GREENWOOD                SC           5 E                                                        NNNN              000000000000000000000000       03               C                                          78512540                                                                                                                                                                                                                                                                                                                                                                                                                                               
00015390611290045DT67590675900000034330800141800000010180014124001193207900012400036072620230000000427920723000000000150356473703XXXXXX5404       VS11    0001111   NYV1 A E303207563153821N840000000004279WDX200    05DNJBLISS LLC               048920    VD84000000004279 N  599978512540                            000000000+                F DF 10433                     000000000  Y000000000 338   0000000000000.00 0000000.00   0000000.00                             000000000000000                                                                                                                                                     01424 A000000000000 0000000000000.24     00050 02200                  
00015400611290001E167590675900000034330800141800000010100E0F8C801C3 00000000000.004040404040404040404040404040404040404040404040404006061203A0A000000000000000000000404040404040404040404040404040  0000084018008080008000230726AD6055E17D72D79E069B3225404040400840A000000003101000000000000000000000809050109080C020200000000000004040401E40404040 000000042.79 000000000.001E00000000000000000000    80                                                                                                                                                                                                                                                                                                                  
00015410611290002G2675906759000000343308001418000000101GREENWOOD                SC           5 D                00                                      NNNN00 N 00                   000000000000                                                                   78512540                                                                                                                                                                                                                                                                                                                                                                                                                                               
00015420611290046DT67590675900000034330800141800000010180014124001193207900012400044072620230000000203220723000000000150356449594XXXXXX5794       VS11    0001111   NYV1 A E303207569505358N84000000000203228PQ00    05DNJBLISS LLC               834461    VD84000000002032 N  599978512540                            000000000+                F DF 00381                     000000000  N000000000       0000000000000.00 0000000.00   0000000.00                             000000000000000                                                                                                                                                     01424 A000000000000 0000000000000.31     00800 01500                  
