00051360143150002BH6759067590000003201180013680000090171005202327823000000000008434    0000090001830533Y8001366759C10062023183                                                                                                                                                                                                                                                                                                                                                                                                                                                                                                                                                                                              
00051370143150003DT67590675900000032011800136800000010180013624001193278900018305332100520230000000843427823000000000008434410039XXXXXX1211               1001111   NYV4 A1V303278568144671N840000000008434W5FN00    01DNCHOICE BOTANICALS INC    28634D    VS84000000008434 NDR549971004114   C33921180664021.1        000000000+                D CD 12109                     000000000  N000000000 498   0000000000000.00 0000000.00   0000000.00                             000000000000000                                                                                                                                                     01424 7000000008434 0000000000002.21     02500 01000                  
00051380143150003DR675906759000000320118001368000000101C33921180664021.1        Y000000008434                 P1                                                                                                                                                                                                                                                                                                                                                                                                                                                                                                                                                                                                            
00051390143150001P16759067590000003201180013680000001010000000000000000                             2000000000000000000000000              000000000000                    0000000000000000000000000                    000000000000                                                                                                                                                                                                                                                                                                                                                                                                                                                                                        
00051400143150002G2675906759000000320118001368000000101888-4377779              TX           9 C                00                                      NNNN   Y                      000000000000                                                                   71004114                                                                                                                                                                                                                                                                                                                                                                                                                                               
00051410143150004BH675906759000000581318001778000009017100520232782300000000001999501970000090001180813N8001776759D10062023018                                                                                                                                                                                                                                                                                                                                                                                                                                                                                                                                                                                              
00051420143150005DT67590675900000058131800177800000010680017774001193278900011808139100520230000001999527823000000000019995476190XXXXXX3911               0000000   NN94 07N000000000000000N   000000000000          01CNDYNAMIC SKIN GLOW              0197VD84000000019995 N  596975173585                            000000000+                F DF 00000                     000000000  N000000000 369   0000000000000.00 0000000.00   0000000.00             000000000019995C000000000000000                                                                                                                                                     01424  000000000000 0000000000000.00     00000 00000                  
00051430143150001G2675906759000000581318001778000000106561-2920184              FL           9 D                00                                      NNNN00 N 00                   000000000000                                                                   75173585                                                                                                                                                                                                                                                                                                                                                                                                                                               
00051440143150006BH6759067590000004225980015280000090171005202327823000000000007998    0000090001140626Y8001526759C10062023014                                                                                                                                                                                                                                                                                                                                                                                                                                                                                                                                                                                              
00051450143150007DT67590675900000042259800152800000010180015224001193278900011406269100520230000000799827823000000000007998413978XXXXXX3928               2111111   NYV4 A7W463278525613102N840000000007998MSPS00    01DNKKIND LLC                003601    VD84000000007998 NDR549978706676   371477                   000000000+                F DF 00415                     000000000  N000000000       0000000000000.00 0000000.00   0000000.00                             000000000000000                                                                                                                                                     01424 G000000007998 0000000000001.47     01650 01500                  
00051460143150007DR675906759000000422598001528000000101371477                   Y000000007998                 P1                                                                                                                                                                                                                                                                                                                                                                                                                                                                                                                                                                                                            
00051470143150001P16759067590000004225980015280000001010000000000000000                             2000000000000000000000000              000000000000                    0000000000000000000000000                    000000000000                                                                                                                                                                                                                                                                                                                                                                                                                                                                                        
00051480143150002G2675906759000000422598001528000000101855-5515463              CA           9 D                00                                      NNNN   N                      000000000000                                                                   78706676                                                                                                                                                                                                                                                                                                                                                                                                                                               
00051490143150008BH6759067590000006999780019280000090171005202327823000000000021070    0000090001030006Y8001926759C10062023003                                                                                                                                                                                                                                                                                                                                                                                                                                                                                                                                                                                              
00051500143150009DT67590675900000069997800192800000010180019276509753278900010300065100520230000002107027823000000000021070601149XXXXXX1294   BA00                  NY 4 07N873239880903622N840000000021070    00    01DNSSDS ENTERPRISES LLC     00521P    DS84000000021070 NDR599976155501070                         000000000+1015104910600   DCPDI11327333032  142130000000 000000000  0          462   0000000000000.00 0000000.00   0000000.00                             000000000000000                                                                                                                                                     01424  000000000000 0000000000004.42     02050 01000                  
00051510143150009DR675906759000000699978001928000000101                         Y                                                                                                                                                                                                                                                                                                                                                                                                                                                                                                                                                                                                                                           
00051520143150001G2675906759000000699978001928000000101614-9875885              OH           0 P                00                                      NNNN                          000000000000                         00000650975601179750001376                76155501                                                                                                                                                                                                                                                                                                                                                                                                                                               
00051530143150010BH6759067590000003469480014280000090171005202327823000000000560000    0000090001340066Y8001426759C10062023034                                                                                                                                                                                                                                                                                                                                                                                                                                                                                                                                                                                              
00051540143150011DT67590675900000034694800142800000010180014224001193278900013400658100520230000050000027823000000000560000430926XXXXXX2296       PS01EF100000000   NYV4 07N463278695309561N840000000500000PVBV00    01DNHORIZON WHOLESALE LLC    041850    VD84000000500000 N  549978512084                            000000000+                G DG 10354                     000000000  Y000000010 338   0000000000000.00 0000000.00   0000000.00                             000000000000000                                                                                                                                                     01424  000000000000 0000000000002.72     00050 02200                  
00051550143150001G2675906759000000346948001428000000101801-5186233              UT           9 D                00                                      NNNN00 N 00                   000000000000                                                                   78512084                                                                                                                                                                                                                                                                                                                                                                                                                                               
00051560143150012DT67590675900000034694800142800000010180014224001193278900013400666100520230000006000027823000000000560000430926XXXXXX2296       PS01EF100000000   NYV4 07N303278696984496N840000000060000SMQ500    01DNHORIZON WHOLESALE LLC    042138    VD84000000060000 N  549978512084                            000000000+                G DG 10354                     000000000  Y000000010 338   0000000000000.00 0000000.00   0000000.00                             000000000000000                                                                                                                                                     01424  000000000000 0000000000000.52     00050 02200                  
00051570143150001G2675906759000000346948001428000000101801-5186233              UT           9 D                00                                      NNNN00 N 00                   000000000000                                                                   78512084                                                                                                                                                                                                                                                                                                                                                                                                                                               
00051580143150013BH675906759000000527128001698000009017100520232782300000000075315201970000090001341058N8001696759D10062023034                                                                                                                                                                                                                                                                                                                                                                                                                                                                                                                                                                                              
00051590143150014DT67590675900000052712800169800000010680016987287283278900013409775100520230000001999527823000000000753152546616XXXXXX8754                         NN 4607AMCWE9G49A1005  N840000000019995          81CNALACRITY CAMPAIGN LLC - 23713780197MC84000000019995 NDR599978819315   NMI4390972               000000000+600450S00130    MCW  00000                     000000000  N                0000000000000.00 0000000.00   0000000.00             000000000019995C000000000000000                                                                                                                                                     01424  000000000000 0000000000000.00     00000 00000                  
00051600143150014DR675906759000000527128001698000000106NMI4390972               U000000000000                                                                                                                                                                                                                                                                                                                                                                                                                                                                                                                                                                                                                               
00051610143150001G2675906759000000527128001698000000106313-2170186              MI           9 W               210                                      NNNN           210000000000000000000000000                        7                                          78819315                                                                                                                                                                                                                                                                                                                                                                                                                                               
00051620143150015DT67590675900000052712800169800000010680016987287283278900013409783100520230000000299527823000000000753152542432XXXXXX0372                         NN 4607AMDJPBIGCG1005  N840000000002995          81CNALACRITY CAMPAIGN LLC - 22851480197MD84000000002995 NDR599978819315   NMI4390981               000000000+600450S00130    MDJ  00000                     000000000  1                0000000000000.00 0000000.00   0000000.00             000000000002995C000000000000000                                                                                                                                                     01424  000000000000 0000000000000.00     00000 00000                  
00051630143150015DR675906759000000527128001698000000106NMI4390981               Y000000000000                                                                                                                                                                                                                                                                                                                                                                                                                                                                                                                                                                                                                               
00051640143150001G2675906759000000527128001698000000106313-2170186              MI           9 J               210                                      NNNN           210000000000000000000000000                        7                                          78819315                                                                                                                                                                                                                                                                                                                                                                                                                                               
00051650143150016DT67590675900000052712800169800000010680016987287283278900013409791100520230000000299527823000000000753152551150XXXXXX0539                         NN 4607AMDJHAFXQK1005  N840000000002995          81CNALACRITY CAMPAIGN LLC - 20008210197MD84000000002995 NDR599978819315   NMI4391184               000000000+600450S00130    MDJ  00000                     000000000  N                0000000000000.00 0000000.00   0000000.00             000000000002995C000000000000000                                                                                                                                                     01424  000000000000 0000000000000.00     00000 00000                  
00051660143150016DR675906759000000527128001698000000106NMI4391184               U000000000000                                                                                                                                                                                                                                                                                                                                                                                                                                                                                                                                                                                                                               
00051670143150001G2675906759000000527128001698000000106313-2170186              MI           9 J               210                                      NNNN           210000000000000000000000000                        7                                          78819315                                                                                                                                                                                                                                                                                                                                                                                                                                               
00051680143150017DT67590675900000052712800169800000010680016987287283278900013410609100520230000000299527823000000000753152550114XXXXXX8949                         NN94607N         1005  N840000000000000          81CNALACRITY CAMPAIGN LLC - 2      0197MC84000000002995 N  599978819315   NMI4391896               000000000+600450S00130    MCS  00000                     000000000  N                0000000000000.00 0000000.00   0000000.00             000000000002995C000000000000000                                                                                                                                                     01424  000000000000 0000000000000.00     00000 00000                  
00051690143150001G2675906759000000527128001698000000106313-2170186              MI           9 S               210                                      NNNN           210000000000000000000000000                        7                                          78819315                                                                                                                                                                                                                                                                                                                                                                                                                                               
00051700143150018DT67590675900000052712800169800000010680016987287283278900013409817100520230000000299527823000000000753152511317XXXXXX5908                         NN 4607AMPGBAOLCK1005  N840000000002995          81CNALACRITY CAMPAIGN LLC - 20006480197MD84000000002995 NDR599978819315   NMI4392057               000000000+600450S00130    MPG  00000                     000000000  N                0000000000000.00 0000000.00   0000000.00             000000000002995C000000000000000                                                                                                                                                     01424  000000000000 0000000000000.00     00000 00000                  
00051710143150018DR675906759000000527128001698000000106NMI4392057               N000000000000                                                                                                                                                                                                                                                                                                                                                                                                                                                                                                                                                                                                                               
00051720143150001G2675906759000000527128001698000000106313-2170186              MI           9 G               210                                      NNNN           210000000000000000000000000                                                                   78819315                                                                                                                                                                                                                                                                                                                                                                                                                                               
00051730143150019DT67590675900000052712800169800000010680016987287283278900013409825100520230000001999527823000000000753152521333XXXXXX5911                         NN 4607AMPLPCC5CG1005  N840000000019995          81CNALACRITY CAMPAIGN LLC - 20055960197MC84000000019995 NDR599978819315   NMI4392486               000000000+600450S00130    MPL  00000                     000000000  N                0000000000000.00 0000000.00   0000000.00             000000000019995C000000000000000                                                                                                                                                     01424  000000000000 0000000000000.00     00000 00000                  
00051740143150019DR675906759000000527128001698000000106NMI4392486               R000000000000                                                                                                                                                                                                                                                                                                                                                                                                                                                                                                                                                                                                                               
00051750143150001G2675906759000000527128001698000000106313-2170186              MI           9 L               210                                      NNNN           210000000000000000000000000                        7                                          78819315                                                                                                                                                                                                                                                                                                                                                                                                                                               
00051760143150020DT67590675900000052712800169800000010680016987287283278900013409833100520230000000299527823000000000753152517545XXXXXX4663                         NN 4607AMDJWCKLQJ1005  N840000000002995          81CNALACRITY CAMPAIGN LLC - 20058550197MD84000000002995 NDR599978819315   NMI4389726               000000000+600450S00130    MDJ  00000                     000000000  1                0000000000000.00 0000000.00   0000000.00             000000000002995C000000000000000                                                                                                                                                     01424  000000000000 0000000000000.00     00000 00000                  
00051770143150020DR675906759000000527128001698000000106NMI4389726               R000000000000                                                                                                                                                                                                                                                                                                                                                                                                                                                                                                                                                                                                                               
00051780143150001G2675906759000000527128001698000000106313-2170186              MI           9 J               210                                      NNNN           210000000000000000000000000                        7                                          78819315                                                                                                                                                                                                                                                                                                                                                                                                                                               
00051790143150021DT67590675900000052712800169800000010680016987287283278900013410617100520230000000299527823000000000753152517542XXXXXX2240                         NN94607N         1005  N840000000000000          81CNALACRITY CAMPAIGN LLC - 2      0197MD84000000002995 N  599978819315   NMI4389769               000000000+600450S00130    MDJ  00000                     000000000  N                0000000000000.00 0000000.00   0000000.00             000000000002995C000000000000000                                                                                                                                                     01424  000000000000 0000000000000.00     00000 00000                  
00051800143150001G2675906759000000527128001698000000106313-2170186              MI           9 J               210                                      NNNN           210000000000000000000000000                        7                                          78819315                                                                                                                                                                                                                                                                                                                                                                                                                                               
00051810143150022DT67590675900000052712800169800000010680016987287283278900013409858100520230000000299527823000000000753152545457XXXXXX8832                         NN 4607AMPLBCPOCH1005  N840000000002995          81CNALACRITY CAMPAIGN LLC - 20059430197MC84000000002995 NDR599978819315   NMI4389938               000000000+600450S00130    MPL  00000                     000000000  N                0000000000000.00 0000000.00   0000000.00             000000000002995C000000000000000                                                                                                                                                     01424  000000000000 0000000000000.00     00000 00000                  
00051820143150022DR675906759000000527128001698000000106NMI4389938               R000000000000                                                                                                                                                                                                                                                                                                                                                                                                                                                                                                                                                                                                                               
00051830143150001G2675906759000000527128001698000000106313-2170186              MI           9 L               210                                      NNNN           210000000000000000000000000                        7                                          78819315                                                                                                                                                                                                                                                                                                                                                                                                                                               
00051840143150023DT67590675900000052712800169800000010680016987287283278900013409866100520230000000299527823000000000753152519837XXXXXX6128                         NN 4607AMDJPCX9CG1005  N840000000002995          81CNALACRITY CAMPAIGN LLC - 20151330197MD84000000002995 NDR599978819315   NMI4390377               000000000+600450S00130    MDJ  00000                     000000000  1                0000000000000.00 0000000.00   0000000.00             000000000002995C000000000000000                                                                                                                                                     01424  000000000000 0000000000000.00     00000 00000                  
00051850143150023DR675906759000000527128001698000000106NMI4390377               Y000000000000                                                                                                                                                                                                                                                                                                                                                                                                                                                                                                                                                                                                                               
00051860143150001G2675906759000000527128001698000000106313-2170186              MI           9 J               210                                      NNNN           210000000000000000000000000                        7                                          78819315                                                                                                                                                                                                                                                                                                                                                                                                                                               
00051870143150024DT67590675900000052712800169800000010680016987287283278900013409874100520230000000299527823000000000753152511119XXXXXX1467                         NN 4607AMDJPDOTCG1005  N840000000002995          81CNALACRITY CAMPAIGN LLC - 20067420197MD84000000002995 NDR599978819315   NMI4390492               000000000+600450S00130    MDJ  00000                     000000000  N                0000000000000.00 0000000.00   0000000.00             000000000002995C000000000000000                                                                                                                                                     01424  000000000000 0000000000000.00     00000 00000                  
00051880143150024DR675906759000000527128001698000000106NMI4390492               U000000000000                                                                                                                                                                                                                                                                                                                                                                                                                                                                                                                                                                                                                               
00051890143150001G2675906759000000527128001698000000106313-2170186              MI           9 J               210                                      NNNN           210000000000000000000000000                                                                   78819315                                                                                                                                                                                                                                                                                                                                                                                                                                               
00051900143150025DT67590675900000052712800169800000010680016987287283278900013409882100520230000000299527823000000000753152514820XXXXXX9085                         NN 4607AMDJBDK0CH1005  N840000000002995          81CNALACRITY CAMPAIGN LLC - 20046480197MD84000000002995 NDR599978819315   NMI4390535               000000000+600450S00130    MDJ  00000                     000000000  N                0000000000000.00 0000000.00   0000000.00             000000000002995C000000000000000                                                                                                                                                     01424  000000000000 0000000000000.00     00000 00000                  
00051910143150025DR675906759000000527128001698000000106NMI4390535               U000000000000                                                                                                                                                                                                                                                                                                                                                                                                                                                                                                                                                                                                                               
00051920143150001G2675906759000000527128001698000000106313-2170186              MI           9 J               210                                      NNNN           210000000000000000000000000                                                                   78819315                                                                                                                                                                                                                                                                                                                                                                                                                                               
00051930143150026DT67590675900000052712800169800000010680016987287283278900013409890100520230000000299527823000000000753152551343XXXXXX2684                         NN 4607AMDJBDNECH1005  N840000000002995          81CNALACRITY CAMPAIGN LLC - 20256060197MD84000000002995 NDR599978819315   NMI4390719               000000000+600450S00130    MDJ  00000                     000000000  N                0000000000000.00 0000000.00   0000000.00             000000000002995C000000000000000                                                                                                                                                     01424  000000000000 0000000000000.00     00000 00000                  
00051940143150026DR675906759000000527128001698000000106NMI4390719               U000000000000                                                                                                                                                                                                                                                                                                                                                                                                                                                                                                                                                                                                                               
00051950143150001G2675906759000000527128001698000000106313-2170186              MI           9 J               210                                      NNNN           210000000000000000000000000                        7                                          78819315                                                                                                                                                                                                                                                                                                                                                                                                                                               
00051960143150027DT67590675900000052712800169800000010680016987287283278900013409908100520230000001999527823000000000753152518941XXXXXX4698                         NN 4607AMWEBCCUCK1005  N840000000019995          81CNALACRITY CAMPAIGN LLC - 21753450197MC84000000019995 NDR599978819315   NMI4390934               000000000+600450S00130    MWE  00000                     000000000  N                0000000000000.00 0000000.00   0000000.00             000000000019995C000000000000000                                                                                                                                                     01424  000000000000 0000000000000.00     00000 00000                  
00051970143150027DR675906759000000527128001698000000106NMI4390934               U000000000000                                                                                                                                                                                                                                                                                                                                                                                                                                                                                                                                                                                                                               
00051980143150001G2675906759000000527128001698000000106313-2170186              MI           9 E               210                                      NNNN           210000000000000000000000000                        7                                          78819315                                                                                                                                                                                                                                                                                                                                                                                                                                               
00051990143150028DT67590675900000052712800169800000010680016987287283278900013409916100520230000000537527823000000000753152533248XXXXXX0498                         NN 4607AMPVHOIFQK1005  N840000000005375          81CNALACRITY CAMPAIGN LLC - 2E552IV0197MD84000000005375 NDR599978819315   NMI6721485               000000000+600450S00130    MPV  00000                     000000000  N                0000000000000.00 0000000.00   0000000.00             000000000005375C000000000000000                                                                                                                                                     01424  000000000000 0000000000000.00     00000 00000                  
00052000143150028DR675906759000000527128001698000000106NMI6721485               A000000000000                                                                                                                                                                                                                                                                                                                                                                                                                                                                                                                                                                                                                               
00052010143150001G2675906759000000527128001698000000106313-2170186              MI           9 V               210                                      NNNN           210000000000000000000000000                                                                   78819315                                                                                                                                                                                                                                                                                                                                                                                                                                               
00052020143150029DT67590675900000052712800169800000010680016987287283278900013409924100520230000002003427823000000000753152514377XXXXXX7410                         NN 4607AMDJBP4UCH1005  N840000000020034          81CNALACRITY CAMPAIGN LLC - 22QIT670197MD84000000020034 NDR599978819315   NMI6721419               000000000+600450S00130    MDJ  00000                     000000000  N                0000000000000.00 0000000.00   0000000.00             000000000020034C000000000000000                                                                                                                                                     01424  000000000000 0000000000000.00     00000 00000                  
00052030143150029DR675906759000000527128001698000000106NMI6721419               N000000000000                                                                                                                                                                                                                                                                                                                                                                                                                                                                                                                                                                                                                               
00052040143150001G2675906759000000527128001698000000106313-2170186              MI           9 J               210                                      NNNN           210000000000000000000000000                        7                                          78819315                                                                                                                                                                                                                                                                                                                                                                                                                                               
00052050143150030DT67590675900000052712800169800000010680016974001193278900013409936100520230000001001127823000000000753152415769XXXXXX7384               0000000   NNV4 07T583278614185094N8400000000100118D5H00    01CNALACRITY CAMPAIGN LLC - 20203390197VD84000000010011 NDR599978819315   NMI6721705               000000000+                F DF 00000                     000000000  N000000000 369   0000000000000.00 0000000.00   0000000.00             000000000010011C000000000000000                                                                                                                                                     01424  000000010011 0000000000000.00     00000 00000                  
00052060143150030DR675906759000000527128001698000000106NMI6721705               Y000000010011                 P1                                                                                                                                                                                                                                                                                                                                                                                                                                                                                                                                                                                                            
00052070143150001P16759067590000005271280016980000001060000000000000000                             2000000000000000000000000              000000000000                    0000000000000000000000000                    000000000000                                                                                                                                                                                                                                                                                                                                                                                                                                                                                        
00052080143150002G2675906759000000527128001698000000106800-5802856              MI           9 D                00                                      NNNN   N                      000000000000                                                                   78819315                                                                                                                                                                                                                                                                                                                                                                                                                                               
00052090143150031DT67590675900000052712800169800000010680016987287283278900013409940100520230000000368827823000000000753152533248XXXXXX1629                         NN 4607AMPVSQFGCJ1005  N840000000003688          81CNALACRITY CAMPAIGN LLC - 2E554PB0197MD84000000003688 NDR599978819315   NMI6721752               000000000+600450S00130    MPV  00000                     000000000  N                0000000000000.00 0000000.00   0000000.00             000000000003688C000000000000000                                                                                                                                                     01424  000000000000 0000000000000.00     00000 00000                  
00052100143150031DR675906759000000527128001698000000106NMI6721752               Y000000000000                                                                                                                                                                                                                                                                                                                                                                                                                                                                                                                                                                                                                               
00052110143150001G2675906759000000527128001698000000106313-2170186              MI           9 V               210                                      NNNN           210000000000000000000000000                                                                   78819315                                                                                                                                                                                                                                                                                                                                                                                                                                               
00052120143150032DT67590675900000052712800169800000010680016987287283278900013409957100520230000001005627823000000000753152521267XXXXXX2643                         NN 4607AMWEWRGKQJ1005  N840000000010056          81CNALACRITY CAMPAIGN LLC - 25350580197MC84000000010056 NDR599978819315   NMI6721959               000000000+600450S00130    MWE  00000                     000000000  N                0000000000000.00 0000000.00   0000000.00             000000000010056C000000000000000                                                                                                                                                     01424  000000000000 0000000000000.00     00000 00000                  
00052130143150032DR675906759000000527128001698000000106NMI6721959               N000000000000                                                                                                                                                                                                                                                                                                                                                                                                                                                                                                                                                                                                                               
00052140143150001G2675906759000000527128001698000000106313-2170186              MI           9 E               210                                      NNNN           210000000000000000000000000                                                                   78819315                                                                                                                                                                                                                                                                                                                                                                                                                                               
00052150143150033DT67590675900000052712800169800000010680016987287283278900013409965100520230000001001027823000000000753152514377XXXXXX5007                         NN 4607AMDJSQJ2CJ1005  N840000000010010          81CNALACRITY CAMPAIGN LLC - 21INIBL0197MD84000000010010 NDR599978819315   NMI6722022               000000000+600450S00130    MDJ  00000                     000000000  N                0000000000000.00 0000000.00   0000000.00             000000000010010C000000000000000                                                                                                                                                     01424  000000000000 0000000000000.00     00000 00000                  
00052160143150033DR675906759000000527128001698000000106NMI6722022               N000000000000                                                                                                                                                                                                                                                                                                                                                                                                                                                                                                                                                                                                                               
00052170143150001G2675906759000000527128001698000000106313-2170186              MI           9 J               210                                      NNNN           210000000000000000000000000                        7                                          78819315                                                                                                                                                                                                                                                                                                                                                                                                                                               
00052180143150034DT67590675900000052712800169800000010680016987287283278900013409973100520230000000301027823000000000753152555753XXXXXX1869                         NN 4607AMDHSQMMCJ1005  N840000000003010          81CNALACRITY CAMPAIGN LLC - 20712580197MD84000000003010 NDR599978819315   NMI6722719               000000000+600450S00130    MDH  00000                     000000000  N                0000000000000.00 0000000.00   0000000.00             000000000003010C000000000000000                                                                                                                                                     01424  000000000000 0000000000000.00     00000 00000                  
00052190143150034DR675906759000000527128001698000000106NMI6722719               N000000000000                                                                                                                                                                                                                                                                                                                                                                                                                                                                                                                                                                                                                               
00052200143150001G2675906759000000527128001698000000106313-2170186              MI           9 H               210                                      NNNN           210000000000000000000000000                        7                                          78819315                                                                                                                                                                                                                                                                                                                                                                                                                                               
00052210143150035DT67590675900000052712800169800000010680016987287283278900013409981100520230000001075027823000000000753152517800XXXXXX1995                         NN 4607AMCSHQN4QK1005  N840000000010750          81CNALACRITY CAMPAIGN LLC - 20059050197MC84000000010750 NDR599978819315   NMI6722908               000000000+600450S00130    MCS  00000                     000000000  N                0000000000000.00 0000000.00   0000000.00             000000000010750C000000000000000                                                                                                                                                     01424  000000000000 0000000000000.00     00000 00000                  
00052220143150035DR675906759000000527128001698000000106NMI6722908               R000000000000                                                                                                                                                                                                                                                                                                                                                                                                                                                                                                                                                                                                                               
00052230143150001G2675906759000000527128001698000000106313-2170186              MI           9 S               210                                      NNNN           210000000000000000000000000                        7                                          78819315                                                                                                                                                                                                                                                                                                                                                                                                                                               
00052240143150036DT67590675900000052712800169800000010680016987287283278900013409999100520230000000250127823000000000753152514377XXXXXX3606                         NN 4607AMDJBQTNCK1005  N840000000002501          81CNALACRITY CAMPAIGN LLC - 21H26VX0197MD84000000002501 NDR599978819315   NMI6723066               000000000+600450S00130    MDJ  00000                     000000000  N                0000000000000.00 0000000.00   0000000.00             000000000002501C000000000000000                                                                                                                                                     01424  000000000000 0000000000000.00     00000 00000                  
00052250143150036DR675906759000000527128001698000000106NMI6723066               Y000000000000                                                                                                                                                                                                                                                                                                                                                                                                                                                                                                                                                                                                                               
00052260143150001G2675906759000000527128001698000000106313-2170186              MI           9 J               210                                      NNNN           210000000000000000000000000                        7                                          78819315                                                                                                                                                                                                                                                                                                                                                                                                                                               
00052270143150037DT67590675900000052712800169800000010680016987287283278900013410005100520230000001004427823000000000753152521267XXXXXX2643                         NN 4607AMWEBRTRCH1005  N840000000010044          81CNALACRITY CAMPAIGN LLC - 26358460197MC84000000010044 NDR599978819315   NMI6723097               000000000+600450S00130    MWE  00000                     000000000  N                0000000000000.00 0000000.00   0000000.00             000000000010044C000000000000000                                                                                                                                                     01424  000000000000 0000000000000.00     00000 00000                  
00052280143150037DR675906759000000527128001698000000106NMI6723097               N000000000000                                                                                                                                                                                                                                                                                                                                                                                                                                                                                                                                                                                                                               
00052290143150001G2675906759000000527128001698000000106313-2170186              MI           9 E               210                                      NNNN           210000000000000000000000000                                                                   78819315                                                                                                                                                                                                                                                                                                                                                                                                                                               
00052300143150038DT67590675900000052712800169800000010680016974001193278900013410017100520230000000350227823000000000753152440393XXXXXX3643               0000000   NNV4 07T463278692926142N8400000000035025HV800    01CNALACRITY CAMPAIGN LLC - 21419190197VD84000000003502 NDR599978819315   NMI6721767               000000000+                F PF 00000                     000000000  N000000000 369   0000000000000.00 0000000.00   0000000.00             000000000003502C000000000000000                                                                                                                                                     01424  000000003502 0000000000000.00     00000 00000                  
00052310143150038DR675906759000000527128001698000000106NMI6721767               Y000000003502                 P1                                                                                                                                                                                                                                                                                                                                                                                                                                                                                                                                                                                                            
00052320143150001P16759067590000005271280016980000001060000000000000000                             2000000000000000000000000              000000000000                    0000000000000000000000000                    000000000000                                                                                                                                                                                                                                                                                                                                                                                                                                                                                        
00052330143150002G2675906759000000527128001698000000106800-5802856              MI           9 P                00                                      NNNN   N                      000000000000                                                                   78819315                                                                                                                                                                                                                                                                                                                                                                                                                                               
00052340143150039DT67590675900000052712800169800000010680016974001193278900013410025100520230000004999527823000000000753152449292XXXXXX0884               0000000   NNV4 07T583278693009509N840000000049995C7QJ85    01CNALACRITY CAMPAIGN LLC - 20338120197VD84000000049995 NDR599978819315   NMI6721806               000000000+                F DF 00000                     000000000  Y000000000 369   0000000000000.00 0000000.00   0000000.00             000000000049995C000000000000000                                                                                                                                                     01424  000000049995 0000000000000.00     00000 00000                  
00052350143150039DR675906759000000527128001698000000106NMI6721806               R000000049995                 P1                                                                                                                                                                                                                                                                                                                                                                                                                                                                                                                                                                                                            
00052360143150001P16759067590000005271280016980000001060000000000000000                             2000000000000000000000000              000000000000                    0000000000000000000000000                    000000000000                                                                                                                                                                                                                                                                                                                                                                                                                                                                                        
00052370143150002G2675906759000000527128001698000000106800-5802856              MI           9 D                00                                      NNNN   N                      000000000000                                                                   78819315                                                                                                                                                                                                                                                                                                                                                                                                                                               
00052380143150040DT67590675900000052712800169800000010680016974001193278900013410033100520230000000504727823000000000753152404206XXXXXX6546               0000000   NNV4 07T303278693027200N840000000005047CN8M00    01CNALACRITY CAMPAIGN LLC - 20336260197VD84000000005047 NDR599978819315   NMI6721813               000000000+                F PF 00000                     000000000  N000000000 369   0000000000000.00 0000000.00   0000000.00             000000000005047C000000000000000                                                                                                                                                     01424  000000005047 0000000000000.00     00000 00000                  
00052390143150040DR675906759000000527128001698000000106NMI6721813               U000000005047                 P1                                                                                                                                                                                                                                                                                                                                                                                                                                                                                                                                                                                                            
00052400143150001P16759067590000005271280016980000001060000000000000000                             2000000000000000000000000              000000000000                    0000000000000000000000000                    000000000000                                                                                                                                                                                                                                                                                                                                                                                                                                                                                        
00052410143150002G2675906759000000527128001698000000106800-5802856              MI           9 P                00                                      NNNN   N                      000000000000                                                                   78819315                                                                                                                                                                                                                                                                                                                                                                                                                                               
00052420143150041DT67590675900000052712800169800000010680016974001193278900013410041100520230000000500127823000000000753152466355XXXXXX8928               0000000   NNV4 07T303278693088043N840000000005001R56P00    01CNALACRITY CAMPAIGN LLC - 20056350197VD84000000005001 NDR599978819315   NMI6721834               000000000+                F DF 00000                     000000000  N000000000 369   0000000000000.00 0000000.00   0000000.00             000000000005001C000000000000000                                                                                                                                                     01424  000000005001 0000000000000.00     00000 00000                  
00052430143150041DR675906759000000527128001698000000106NMI6721834               U000000005001                 P1                                                                                                                                                                                                                                                                                                                                                                                                                                                                                                                                                                                                            
00052440143150001P16759067590000005271280016980000001060000000000000000                             2000000000000000000000000              000000000000                    0000000000000000000000000                    000000000000                                                                                                                                                                                                                                                                                                                                                                                                                                                                                        
00052450143150002G2675906759000000527128001698000000106800-5802856              MI           9 D                00                                      NNNN   N                      000000000000                                                                   78819315                                                                                                                                                                                                                                                                                                                                                                                                                                               
00052460143150042DT67590675900000052712800169800000010680016974001193278900013410058100520230000000300927823000000000753152413037XXXXXX1205               0000000   NNV4 07T303278693689994N840000000003009DRNQ00    01CNALACRITY CAMPAIGN LLC - 20163900197VD84000000003009 NDR599978819315   NMI6721849               000000000+                F DF 00000                     000000000  Y000000000 369   0000000000000.00 0000000.00   0000000.00             000000000003009C000000000000000                                                                                                                                                     01424  000000003009 0000000000000.00     00000 00000                  
00052470143150042DR675906759000000527128001698000000106NMI6721849               N000000003009                 P1                                                                                                                                                                                                                                                                                                                                                                                                                                                                                                                                                                                                            
00052480143150001P16759067590000005271280016980000001060000000000000000                             2000000000000000000000000              000000000000                    0000000000000000000000000                    000000000000                                                                                                                                                                                                                                                                                                                                                                                                                                                                                        
00052490143150002G2675906759000000527128001698000000106800-5802856              MI           9 D                00                                      NNNN   N                      000000000000                                                                   78819315                                                                                                                                                                                                                                                                                                                                                                                                                                               
00052500143150043DT67590675900000052712800169800000010680016974001193278900013410066100520230000003001127823000000000753152409561XXXXXX2077               0000000   NNV4 07T583278693708591N840000000030011PZCP00    01CNALACRITY CAMPAIGN LLC - 20071060197VS84000000030011 NDR599978819315   NMI6721915               000000000+                A CA 00000                     000000000  N000000000 166   0000000000000.00 0000000.00   0000000.00             000000000030011C000000000000000                                                                                                                                                     01424  000000030011 0000000000000.00     00000 00000                  
00052510143150043DR675906759000000527128001698000000106NMI6721915               U000000030011                 P1                                                                                                                                                                                                                                                                                                                                                                                                                                                                                                                                                                                                            
00052520143150001P16759067590000005271280016980000001060000000000000000                             2000000000000000000000000              000000000000                    0000000000000000000000000                    000000000000                                                                                                                                                                                                                                                                                                                                                                                                                                                                                        
00052530143150002G2675906759000000527128001698000000106800-5802856              MI           9 C                00                                      NNNN   N                      000000000000                                                                   78819315                                                                                                                                                                                                                                                                                                                                                                                                                                               
00052540143150044DT67590675900000052712800169800000010680016974001193278900013410074100520230000000490827823000000000753152440393XXXXXX6758               0000000   NNV4 07T463278693714826N840000000004908CCRL00    01CNALACRITY CAMPAIGN LLC - 27670370197VD84000000004908 NDR599978819315   NMI6721939               000000000+                F PF 00000                     000000000  N000000000 369   0000000000000.00 0000000.00   0000000.00             000000000004908C000000000000000                                                                                                                                                     01424  000000004908 0000000000000.00     00000 00000                  
00052550143150044DR675906759000000527128001698000000106NMI6721939               Y000000004908                 P1                                                                                                                                                                                                                                                                                                                                                                                                                                                                                                                                                                                                            
00052560143150001P16759067590000005271280016980000001060000000000000000                             2000000000000000000000000              000000000000                    0000000000000000000000000                    000000000000                                                                                                                                                                                                                                                                                                                                                                                                                                                                                        
00052570143150002G2675906759000000527128001698000000106800-5802856              MI           9 P                00                                      NNNN   N                      000000000000                                                                   78819315                                                                                                                                                                                                                                                                                                                                                                                                                                               
00052580143150045DT67590675900000052712800169800000010680016974001193278900013410082100520230000000251127823000000000753152414398XXXXXX0571               0000000   NNV4 07T383278693741955N840000000002511DMR500    01CNALACRITY CAMPAIGN LLC - 28398820197VD84000000002511 NDR599978819315   NMI6721950               000000000+                F DF 00000                     000000000  N000000000 369   0000000000000.00 0000000.00   0000000.00             000000000002511C000000000000000                                                                                                                                                     01424  000000002511 0000000000000.00     00000 00000                  
00052590143150045DR675906759000000527128001698000000106NMI6721950               Y000000002511                 P1                                                                                                                                                                                                                                                                                                                                                                                                                                                                                                                                                                                                            
00052600143150001P16759067590000005271280016980000001060000000000000000                             2000000000000000000000000              000000000000                    0000000000000000000000000                    000000000000                                                                                                                                                                                                                                                                                                                                                                                                                                                                                        
00052610143150002G2675906759000000527128001698000000106800-5802856              MI           9 D                00                                      NNNN   N                      000000000000                                                                   78819315                                                                                                                                                                                                                                                                                                                                                                                                                                               
00052620143150046DT67590675900000052712800169800000010680016974001193278900013410090100520230000001000527823000000000753152420767XXXXXX7914               0000000   NNV4 07T463278694041511N8400000000100053HF785    01CNALACRITY CAMPAIGN LLC - 20301830197VD84000000010005 NDR599978819315   NMI6721993               000000000+                F DF 00000                     000000000  Y000000000 369   0000000000000.00 0000000.00   0000000.00             000000000010005C000000000000000                                                                                                                                                     01424  000000010005 0000000000000.00     00000 00000                  
00052630143150046DR675906759000000527128001698000000106NMI6721993               R000000010005                 P1                                                                                                                                                                                                                                                                                                                                                                                                                                                                                                                                                                                                            
00052640143150001P16759067590000005271280016980000001060000000000000000                             2000000000000000000000000              000000000000                    0000000000000000000000000                    000000000000                                                                                                                                                                                                                                                                                                                                                                                                                                                                                        
00052650143150002G2675906759000000527128001698000000106800-5802856              MI           9 D                00                                      NNNN   N                      000000000000                                                                   78819315                                                                                                                                                                                                                                                                                                                                                                                                                                               
00052660143150047DT67590675900000052712800169800000010680016974001193278900013410108100520230000001612527823000000000753152445379XXXXXX7363               0000000   NNV4 07T463278694083381N8400000000161259HK400    01CNALACRITY CAMPAIGN LLC - 20058610197VS84000000016125 NDR599978819315   NMI6721994               000000000+                C CC 00000                     000000000  N000000000 166   0000000000000.00 0000000.00   0000000.00             000000000016125C000000000000000                                                                                                                                                     01424  000000016125 0000000000000.00     00000 00000                  
00052670143150047DR675906759000000527128001698000000106NMI6721994               U000000016125                 P1                                                                                                                                                                                                                                                                                                                                                                                                                                                                                                                                                                                                            
00052680143150001P16759067590000005271280016980000001060000000000000000                             2000000000000000000000000              000000000000                    0000000000000000000000000                    000000000000                                                                                                                                                                                                                                                                                                                                                                                                                                                                                        
00052690143150002G2675906759000000527128001698000000106800-5802856              MI           9 C                00                                      NNNN   N                      000000000000                                                                   78819315                                                                                                                                                                                                                                                                                                                                                                                                                                               
00052700143150048DT67590675900000052712800169800000010680016974001193278900013410116100520230000000300727823000000000753152411600XXXXXX5377               0000000   NNV4 07T303278694242049N840000000003007HJQZ85    01CNALACRITY CAMPAIGN LLC - 20135090197VD84000000003007 NDR599978819315   NMI6722038               000000000+                F PF 00000                     000000000  N000000000 369   0000000000000.00 0000000.00   0000000.00             000000000003007C000000000000000                                                                                                                                                     01424  000000003007 0000000000000.00     00000 00000                  
00052710143150048DR675906759000000527128001698000000106NMI6722038               R000000003007                 P1                                                                                                                                                                                                                                                                                                                                                                                                                                                                                                                                                                                                            
00052720143150001P16759067590000005271280016980000001060000000000000000                             2000000000000000000000000              000000000000                    0000000000000000000000000                    000000000000                                                                                                                                                                                                                                                                                                                                                                                                                                                                                        
00052730143150002G2675906759000000527128001698000000106800-5802856              MI           9 P                00                                      NNNN   N                      000000000000                                                                   78819315                                                                                                                                                                                                                                                                                                                                                                                                                                               
00052740143150049DT67590675900000052712800169800000010680016974001193278900013410124100520230000000301027823000000000753152423223XXXXXX8265               0000000   NNV4 07T383278694268878N840000000003010XTN200    01CNALACRITY CAMPAIGN LLC - 20810850197VD84000000003010 NDR599978819315   NMI6722074               000000000+                F DF 00000                     000000000  N000000000 369   0000000000000.00 0000000.00   0000000.00             000000000003010C000000000000000                                                                                                                                                     01424  000000003010 0000000000000.00     00000 00000                  
00052750143150049DR675906759000000527128001698000000106NMI6722074               U000000003010                 P1                                                                                                                                                                                                                                                                                                                                                                                                                                                                                                                                                                                                            
00052760143150001P16759067590000005271280016980000001060000000000000000                             2000000000000000000000000              000000000000                    0000000000000000000000000                    000000000000                                                                                                                                                                                                                                                                                                                                                                                                                                                                                        
00052770143150002G2675906759000000527128001698000000106800-5802856              MI           9 D                00                                      NNNN   N                      000000000000                                                                   78819315                                                                                                                                                                                                                                                                                                                                                                                                                                               
