06684030325705036AD675906759000000161968001028000009077900014316900000001587206132023NYY16423YC6759800102061520232023153032429                                                                                                                                                                                                                                                                                                                                                                                                                                                                                                                                                                                              
06684040325705039AD675906759000000151648008888000009071900013959510000002487006132023NYY16423ND6759800888061520232023164054947                                                                                                                                                                                                                                                                                                                                                                                                                                                                                                                                                                                              
06684050325705042AD675906759000000151648008888000009071900016659190000002487006132023NYY16423ND6759800888061520232023164055133                                                                                                                                                                                                                                                                                                                                                                                                                                                                                                                                                                                              
06684060325705045AD675906759000000198288001098000009071900013472250000001587506132023NYY16423ND6759800109061520232023164032750                                                                                                                                                                                                                                                                                                                                                                                                                                                                                                                                                                                              
06684070325705048AD675906759000000198288001098000009071900011829420000001987006132023NYY16423ND6759800109061520232023164032751                                                                                                                                                                                                                                                                                                                                                                                                                                                                                                                                                                                              
06684080325705051AD675906759000000176738001068000009071900015921270000000654006132023NYY16423ND6759800106061520232023164009797                                                                                                                                                                                                                                                                                                                                                                                                                                                                                                                                                                                              
06684090325705054AD675906759000000268498001258000009071900012658910000001977006132023NYY16423ND6759800125061520232023164009798                                                                                                                                                                                                                                                                                                                                                                                                                                                                                                                                                                                              
06684100325705057AD675906759000000176738001068000009071900011307010000002178906132023NYY16423ND6759800106061520232023164009799                                                                                                                                                                                                                                                                                                                                                                                                                                                                                                                                                                                              
06684110325705060AD675906759000000151648008888000009071900017169230000001194806132023NYY16423ND6759800888061520232023164009801                                                                                                                                                                                                                                                                                                                                                                                                                                                                                                                                                                                              
06684120325705063AD675906759000000133008001028000009071900010344340000000319906132023NYY16423ND6759800102061520232023164009802                                                                                                                                                                                                                                                                                                                                                                                                                                                                                                                                                                                              
06684130325705066AD675906759000000142748001028000009071900017088270000001484806132023NYY16423ND6759800102061520232023164040640                                                                                                                                                                                                                                                                                                                                                                                                                                                                                                                                                                                              
06684140325705069AD675906759000000142748001028000009071900010937250000001484806132023NYY16423ND6759800102061520232023164040641                                                                                                                                                                                                                                                                                                                                                                                                                                                                                                                                                                                              
06684150325705072AD675906759000000239118001208000009071900010601470000000544906132023NYY16423ND6759800120061520232023164040642                                                                                                                                                                                                                                                                                                                                                                                                                                                                                                                                                                                              
06684160326081893AD675906759000000198288001098000009071231610012770000002487006132023NYY16423ND6759800109061520232023161001277                                                                                                                                                                                                                                                                                                                                                                                                                                                                                                                                                                                              
06684170327729893BH6759067590000000288180088880000090170614202316523000000000002195    0000090001390274N8008886759D06152023139                                                                                                                                                                                                                                                                                                                                                                                                                                                                                                                                                                                              
06684180327729894DT67590675900000002881800888800000010680088874001193165900013902746061320230000000219516523000000000002195413037XXXXXX0228               0000000   YYV4 07T463164730979458N840000000002195TQR900    01CNHAPPY HIPPIE             074270    VD84000000002195 NDR549976044904   2079                     000000000+                F DF 08168                     000000000  Y000000000 369   0000000000000.00 0000000.00   0000000.00                             000000000000000                                                                                                                                                     015WPE 000000002195 0000000000000.00     00000 00000                  
06684190327729894DR6759067590000000288180088880000001062079                     Y000000002195                 P1                                                                                                                                                                                                                                                                                                                                                                                                                                                                                                                                                                                                            
06684200327720001P16759067590000000288180088880000001060000000000000000                             2000000000000000000000000              000000000000                    0000000000000000000000000                    000000000000                                                                                                                                                                                                                                                                                                                                                                                                                                                                                        
06684210327720002G2675906759000000028818008888000000106865-3663142              TN           9 D                00                                      NNNN   N                      000000000000                                                                   76044904                                                                                                                                                                                                                                                                                                                                                                                                                                               
06684220327729897BH6759067590000003201180013680000090170614202316523000000000896375    0000090001261775N8001366759C06152023000                                                                                                                                                                                                                                                                                                                                                                                                                                                                                                                                                                                              
06684230327729898DT67590675900000032011800136800000010180013687287283165900012681826061320230000089637516523000000000896375555000XXXXXX9116                         YY 4607AMCPTHGGT70613  N840000000896375          81DNCHOICE BOTANICALS INC    032173    MB84000000896375FNP1549900000001   2581                     000000000+600450S00140    MCP  00074                     0000053781 N                0000000000000.00 0000000.00   0000000.00                             000000000000000                                                                                                                                                     015WPE 000000000000 0000000000179.28     02000 00000                  
06684240327720001P1675906759000000320118001368000000101                                                          000000000000          8000            471128992                                                                                                                                                                                                                                                                                                                                                                                                                                                                                                                                                            
06684250327720002G26759067590000003201180013680000001018884377779               TX           9 P               210                  471128992           YNNN           210000000000000000000000000                                                                   00000001                                                                                                                                                                                                                                                                                                                                                                                                                                               
06684260328270002BH6759067590000000288180088880000090170614202316523000000000023707    0000090001360005N8008886759C06152023036                                                                                                                                                                                                                                                                                                                                                                                                                                                                                                                                                                                              
06684270328270003DT67590675900000002881800888800000010180088824001193165900013600014061420230000000395016523000000000023707422921XXXXXX6063       VS11    0001111   NYV1 A E303165655647562N840000000003950P6D500    07DNHAPPY HIPPIE             051165    VD84000000003950 N  549976487169                            000000000+                F DF 00381                     000000000  N000000000       0000000000000.00 0000000.00   0000000.00                             000000000000000                                                                                                                                                     01418 A000000000000 0000000000000.47     00800 01500                  
06684280328270001E167590675900000002881800888800000010100E068C80283 00000000000.004040404040404040404040404040404040404040404040404006011203A00000000000000000000000404040404040404040404040404040  0000084000000000000000230614A2BE2E0D193C00C174FB70D1404040400840A0000000031010000000000000000000C494D1000382000000000000000000004040404040404040 000000039.50 000000000.004040400000000000000000    80                                                                                                                                                                                                                                                                                                                  
06684290328270002G2675906759000000028818008888000000101SEVIERVILLE              TN           5 D                00                                      NNNN00 N 00                   000000000000                                                                   76487169                                                                                                                                                                                                                                                                                                                                                                                                                                               
06684300328270004DT67590675900000002881800888800000010180088877287283165900013600024061420230000000691216523000000000023707514377XXXXXX4509       MS02WI09          NY 1 0 AMDJMITTAZ0614  N840000000006912          07DNHAPPY HIPPIE             2EZUAP    MD84000000006912 N  549976487169                            000000000+M10101M5434C    MDJ  00402                     000000000  N                0000000000000.00 0000000.00   0000000.00                             000000000000000                                                                                                                                                   B101418  000000000000 0000000000000.88     01050 01500                  
06684310328270001E1675906759000000028818008888000000101000060C8002D 00000000000.00404040404040404040404040404040404040404040404040400110A04001220000000000000000000000FF00000000000000000000000000  0002084019800000008001230614A6620E03520094CA68E610CF404040400840A0000000041010000000000000000000404040404040404040404040404040404040401E40404040 000000069.12 000000000.001E03000000000000000000    80                                                                                                                                                                                                                                                                                                                  
06684320328270002G2675906759000000028818008888000000101SEVIERVILLE              TN           5 J                                                        NNNN              000000000000000000000000       03               7                                          76487169                                                                                                                                                                                                                                                                                                                                                                                                                                               
06684330328270005DT67590675900000002881800888800000010180088877287283165900013600032061420230000000274916523000000000023707517805XXXXXX2490       MS02WI09          NY 1 0 AMCW9ME1580614  N840000000002749          05DNHAPPY HIPPIE             07006P    MC84000000002749 N  549976487169                            000000000+M10101C5434C    MCW  00646                     000000000  N                0000000000000.00 0000000.00   0000000.00                             000000000000000                                                                                                                                                   B101418  000000000000 0000000000000.56     01900 00400                  
06684340328270001E167590675900000002881800888800000010100E0F8C80041 00000000000.00404040404040404040404040404040404040404040404040400110A04001220000000000000000000000FF00000000000000000000000000  000108403900000000800023061402F9D2AEB3AED745384B7787404040400840A000000004101000000000000000000010F0FB2B400FEF7A00120000000000004040401E40404040 000000027.49 000000000.001E03000000000000000000    80                                                                                                                                                                                                                                                                                                                  
06684350328270002G2675906759000000028818008888000000101SEVIERVILLE              TN           5 W                                                        NNNN              000000000000000000000000                        7                                          76487169                                                                                                                                                                                                                                                                                                                                                                                                                                               
06684360328270006DT67590675900000002881800888800000010180088824001193165900013600048061420230000000444416523000000000023707473703XXXXXX0043       VS11    0001111   NYV1 A E383165702384550N840000000004444DQWZ00    05DNHAPPY HIPPIE             023099    VD84000000004444 N  549976487169                            000000000+                F DF 10433                     000000000  Y000000000 338   0000000000000.00 0000000.00   0000000.00                             000000000000000                                                                                                                                                     01418 A000000000000 0000000000000.24     00050 02200                  
06684370328270001E167590675900000002881800888800000010100E0F8C805E4 00000000000.004040404040404040404040404040404040404040404040404006061203A0A000000000000000000000404040404040404040404040404040  00000840180080800080002306143C3295AD231CB42B4F72D495404040400840A0000000031010000000000000000000507040706050202020200000000000004040401E40404040 000000044.44 000000000.001E00000000000000000000    80                                                                                                                                                                                                                                                                                                                  
06684380328270002G2675906759000000028818008888000000101SEVIERVILLE              TN           5 D                00                                      NNNN00 N 00                   000000000000                                                                   76487169                                                                                                                                                                                                                                                                                                                                                                                                                                               
06684390328270007DT67590675900000002881800888800000010180088824001193165900013600055061420230000000565216523000000000023707459954XXXXXX5604       VS11    0001111   NYV1 A E583165759654604N8400000000056526FVJ00    05DNHAPPY HIPPIE             H66323    VD84000000005652 N  549976487169                            000000000+                F DF 10433                     000000000  Y000000000 338   0000000000000.00 0000000.00   0000000.00                             000000000000000                                                                                                                                                     01418 A000000000000 0000000000000.25     00050 02200                  
06684400328270001E167590675900000002881800888800000010100E0F8C801DF 00000000000.004040404040404040404040404040404040404040404040404006011203A0A002000000000000000000404040404040404040404040404040  0000084039000080008000230614377C1CFF77743C3179017D3A404040400840A00000000310100000000000000000003403348E0082000000000000000000004040401E40404040 000000056.52 000000000.001E03000000000000000000    80                                                                                                                                                                                                                                                                                                                  
06684410328270002G2675906759000000028818008888000000101SEVIERVILLE              TN           5 D                00                                      NNNN00 N 00                   000000000000                                                                   76487169                                                                                                                                                                                                                                                                                                                                                                                                                                               
06684420328270008BH6759067590000000288180088880000090170614202316523000000000071946    0000090001470010N8008886759C06152023147                                                                                                                                                                                                                                                                                                                                                                                                                                                                                                                                                                                              
06684430328270009DT67590675900000002881800888800000010180088877287283165900014700013061420230000000395016523000000000071946511953XXXXXX5061       MS02WI09          NY 1 0 AMDJXLAR6M0614  N840000000003950          05DNHAPPY HIPPIE             076688    MD84000000003950 N  549976487158                            000000000+M10101C5434C    MDJ  00402                     000000000  N                0000000000000.00 0000000.00   0000000.00                             000000000000000                                                                                                                                                   B101418  000000000000 0000000000000.56     01050 01500                  
06684440328270001E167590675900000002881800888800000010100E0F8C8000C 00000000000.00404040404040404040404040404040404040404040404040400110A04001220000000000000000000000FF00000000000000000000000000  00010840390000000080002306149ADF766FB0AFE2865D864264404040400840A000000004101000000000000000000089946E4400A8365A031A0000000000004040401E40404040 000000039.50 000000000.001E03000000000000000000    80                                                                                                                                                                                                                                                                                                                  
06684450328270002G2675906759000000028818008888000000101SEVIERVILLE              TN           5 J                                                        NNNN              000000000000000000000000                        7                                          76487158                                                                                                                                                                                                                                                                                                                                                                                                                                               
06684460328270010DT67590675900000002881800888800000010180088877287283165900014700021061420230000000395016523000000000071946521730XXXXXX6547       MS02WI09          NY 2 0 AMDJBYJW6B0614  N840000000003950          05DNHAPPY HIPPIE             002340    MD84000000003950 N  549976487158                            000000000+M10101C1334C    MDJ  10815                     000000000  1                0000000000000.00 0000000.00   0000000.00                             000000000000000                                                                                                                                                   B101418  000000000000 0000000000000.24     00050 02200                  
06684470328270001E167590675900000002881800888800000010100E0F8C8028D 00000000000.00404040404040404040404040404040404040404040404040400110A04001220000000000000000000000FF00000000000000000000000000  00000840390000000480002306147FB23013E30CB03C0E9853B9404040400840A00000000410100000000000000000007A48E922D80FD8A2031A0000000000004040400240404040 000000039.50 000000000.000203000000000000000000    80                                                                                                                                                                                                                                                                                                                  
06684480328270002G2675906759000000028818008888000000101SEVIERVILLE              TN           5 J                                                        NNNN              000000000000000000000000                        7                                          76487158                                                                                                                                                                                                                                                                                                                                                                                                                                               
06684490328270011DT67590675900000002881800888800000010180088824001193165900014700037061420230000000790116523000000000071946443238XXXXXX7857       VS11    0001111   NYV1 A E303165555364315N840000000007901NJC600    05DNHAPPY HIPPIE             012536    VD84000000007901 N  549976487158                            000000000+                F DF 00381                     000000000  N000000000       0000000000000.00 0000000.00   0000000.00                             000000000000000                                                                                                                                                     01418 A000000000000 0000000000000.78     00800 01500                  
06684500328270001E167590675900000002881800888800000010100E0F8C804EF 00000000000.004040404040404040404040404040404040404040404040404006011203A08000000000000000000000404040404040404040404040404040  00000840180080800080002306146A89CF7114D0BEB5E42A30B9404040400840A0000000031010000000000000000000404040404040404040404040404040404040401E40404040 000000079.01 000000000.001E00000000000000000000    80                                                                                                                                                                                                                                                                                                                  
06684510328270002G2675906759000000028818008888000000101SEVIERVILLE              TN           5 D                00                                      NNNN00 N 00                   000000000000                                                                   76487158                                                                                                                                                                                                                                                                                                                                                                                                                                               
06684520328270012DT67590675900000002881800888800000010180088824001193165900014700045061420230000000128316523000000000071946435546XXXXXX4132       VK04VS111111111   NYV1 A E383165557118891N840000000001283SS5J00    05DNHAPPY HIPPIE             118071    VD84000000001283 N  549976487158                            000000000+                F DF 10439                     000000000  Y000000000 331   0000000000000.00 0000000.00   0000000.00                             000000000000000                                                                                                                                                     01418 F000000000000 0000000000000.23     00050 02200                  
06684530328270001E167590675900000002881800888800000010100E0F8C80065 00000000000.004040404040404040404040404040404040404040404040404006011203A08000000000000000000000404040404040404040404040404040  000108401800808000800023061436FE0991C870C74910A433D9404040400840A000000003101000000000000000000031A62E6B0082000000000000000000004040401E40404040 000000012.83 000000000.001E00000000000000000000    80                                                                                                                                                                                                                                                                                                                  
06684540328270002G2675906759000000028818008888000000101SEVIERVILLE              TN           5 D                00                                      NNNN00 N 00                   000000000000                                                                   76487158                                                                                                                                                                                                                                                                                                                                                                                                                                               
06684550328270013DT67590675900000002881800888800000010180088824001193165900014700052061420230000000493816523000000000071946419090XXXXXX4369       VS11    0001111   NYV1 A E583165682185704N840000000004938P34T00    05DNHAPPY HIPPIE             023704    VD84000000004938 N  549976487158                            000000000+                F DF 00381                     000000000  N000000000       0000000000000.00 0000000.00   0000000.00                             000000000000000                                                                                                                                                     01418 A000000000000 0000000000000.55     00800 01500                  
06684560328270001E167590675900000002881800888800000010100E0F8C80019 00000000000.004040404040404040404040404040404040404040404040404006011203A0A000000000000000000000404040404040404040404040404040  0003084018008080008000230614A9B4D0FC857EDADB252455EA404040400840A00000000310100000000000000000003E3A516B0082000000000000000000004040401E40404040 000000049.38 000000000.001E00000000000000000000    80                                                                                                                                                                                                                                                                                                                  
06684570328270002G2675906759000000028818008888000000101SEVIERVILLE              TN           5 D                00                                      NNNN00 N 00                   000000000000                                                                   76487158                                                                                                                                                                                                                                                                                                                                                                                                                                               
06684580328270014DT67590675900000002881800888800000010180088877287283165900014700062061420230000000219116523000000000071946517604XXXXXX1425       MS02WI09          NY 1 0 AMWEGI6LAZ0614  N840000000002191          07DNHAPPY HIPPIE             79069Z    MC84000000002191 N  549976487158                            000000000+M10101M0034C    MWE  00743                     000000000  N                0000000000000.00 0000000.00   0000000.00                             000000000000000                                                                                                                                                   A101418  000000000000 0000000000000.54     02300 00400                  
06684590328270001E1675906759000000028818008888000000101000008480312 00000000000.00404040404040404040404040404040404040404040404040400114A14003020000000000000000000000FF00000000000000000000000000  000008401B800000008001230614C85AF2A1BAB713F012D87C3C404040400840A0000000041010000000000000000000404040404040404040404040404040404040403F40404040 000000021.91 000000000.003F00020000000000000000    80                                                                                                                                                                                                                                                                                                                  
06684600328270002G2675906759000000028818008888000000101SEVIERVILLE              TN           5 E                                                        NNNN              000000000000000000000000       03               C                                          76487158                                                                                                                                                                                                                                                                                                                                                                                                                                               
06684610328270015DT67590675900000002881800888800000010180088824001193165900014700078061420230000001239716523000000000071946407731XXXXXX4596       VS11    0001111   NYV1 A E383165704188530N84000000001239728RM00    05DNHAPPY HIPPIE             014189    VD84000000012397 N  549976487158                            000000000+                F DF 10433                     000000000  Y000000000 338   0000000000000.00 0000000.00   0000000.00                             000000000000000                                                                                                                                                     01418 A000000000000 0000000000000.28     00050 02200                  
06684620328270001E167590675900000002881800888800000010100E0F8C8002B 00000000000.004040404040404040404040404040404040404040404040404006011203A0A000000000000000000000404040404040404040404040404040  00010840180080800080002306142F77ED3A42C2D39AA7410649404040400840A000000003101000000000000000000094CC6B710082000000000000000000004040401E40404040 000000123.97 000000000.001E00000000000000000000    80                                                                                                                                                                                                                                                                                                                  
06684630328270002G2675906759000000028818008888000000101SEVIERVILLE              TN           5 D                00                                      NNNN00 N 00                   000000000000                                                                   76487158                                                                                                                                                                                                                                                                                                                                                                                                                                               
06684640328270016DT67590675900000002881800888800000010180088824001193165900014700086061420230000000142616523000000000071946486796XXXXXX8138       VK04VS111111111   NYV1 A E303165728901224N840000000001426DLRH00    05DNHAPPY HIPPIE             011416    VD84000000001426 N  549976487158                            000000000+                F DF 10439                     000000000  Y000000000 331   0000000000000.00 0000000.00   0000000.00                             000000000000000                                                                                                                                                     01418 F000000000000 0000000000000.23     00050 02200                  
06684650328270001E167590675900000002881800888800000010100E0F8C800C3 00000000000.004040404040404040404040404040404040404040404040404006011203A08000000000000000000000404040404040404040404040404040  0000084018008080008000230614A5A73023EA4872B99C64F5BD404040400840A0000000031010000000000000000000108080C00080000020200000000000004040401E40404040 000000014.26 000000000.001E00000000000000000000    80                                                                                                                                                                                                                                                                                                                  
06684660328270002G2675906759000000028818008888000000101SEVIERVILLE              TN           5 D                00                                      NNNN00 N 00                   000000000000                                                                   76487158                                                                                                                                                                                                                                                                                                                                                                                                                                               
06684670328270017DT67590675900000002881800888800000010180088877287283165900014700096061420230000000296316523000000000071946511953XXXXXX8888       MS02WI09          NY 1 0 AMDJKD3D590614  N840000000002963          05DNHAPPY HIPPIE             071318    MD84000000002963 N  549976487158                            000000000+M10101C5434C    MDJ  00402                     000000000  N                0000000000000.00 0000000.00   0000000.00                             000000000000000                                                                                                                                                   B101418  000000000000 0000000000000.46     01050 01500                  
06684680328270001E167590675900000002881800888800000010100E0F8C80018 00000000000.00404040404040404040404040404040404040404040404040400110A04001220000000000000000000000FF00000000000000000000000000  0001084039000000008000230614443572A5D780E64A420FE93B404040400840A0000000041010000000000000000000ACD461B04AE623D7031A0000000000004040401E40404040 000000029.63 000000000.001E03000000000000000000    80                                                                                                                                                                                                                                                                                                                  
06684690328270002G2675906759000000028818008888000000101SEVIERVILLE              TN           5 J                                                        NNNN              000000000000000000000000                        7                                          76487158                                                                                                                                                                                                                                                                                                                                                                                                                                               
06684700328270018DT67590675900000002881800888800000010180088877287283165900014700104061420230000003094716523000000000071946515676XXXXXX1538       MS02WI09          NY 1 0 AMWE4PB3580614  N840000000030947          05DNHAPPY HIPPIE             06685Z    MC84000000030947 N  549976487158                            000000000+M10101C5434C    MWE  00743                     000000000  N                0000000000000.00 0000000.00   0000000.00                             000000000000000                                                                                                                                                   B101418  000000000000 0000000000007.16     02300 00400                  
06684710328270001E167590675900000002881800888800000010100E0F8C8000E 00000000000.00404040404040404040404040404040404040404040404040400110A04001220000000000000000000000FF00000000000000000000000000  0001084039000000008000230614F9F7F0F608A0161AF2ACC440404040400840A0000000041010000000000000000000FC900F4D765A89CE00120000000000004040401E40404040 000000309.47 000000000.001E03000000000000000000    80                                                                                                                                                                                                                                                                                                                  
06684720328270002G2675906759000000028818008888000000101SEVIERVILLE              TN           5 E                                                        NNNN              000000000000000000000000                        7                                          76487158                                                                                                                                                                                                                                                                                                                                                                                                                                               
06684730328270019BH6759067590000000288180088880000090170614202316523000000000097302    0000090001390019N8008886759C06152023139                                                                                                                                                                                                                                                                                                                                                                                                                                                                                                                                                                                              
06684740328270020DT67590675900000002881800888800000010180088824001193165900013900018061420230000000197616523000000000097302443238XXXXXX8062       VS11    0001111   NYV1 A E303165516125967N840000000001976MPPC00    07DNHAPPY HIPPIE             002012    VD84000000001976 N  549976487134                            000000000+                F DF 00381                     000000000  N000000000       0000000000000.00 0000000.00   0000000.00                             000000000000000                                                                                                                                                     01418 A000000000000 0000000000000.31     00800 01500                  
06684750328270001E167590675900000002881800888800000010100E068C80200 00000000000.004040404040404040404040404040404040404040404040404006011203A00000000000000000000000404040404040404040404040404040  0000084000000000000000230614B39C70AE4B1B19C09B58E286404040400840A0000000031010000000000000000000404040404040404040404040404040404040404040404040 000000019.76 000000000.004040400000000000000000    80                                                                                                                                                                                                                                                                                                                  
06684760328270002G2675906759000000028818008888000000101SEVIERVILLE              TN           5 D                00                                      NNNN00 N 00                   000000000000                                                                   76487134                                                                                                                                                                                                                                                                                                                                                                                                                                               
06684770328270021DT67590675900000002881800888800000010180088824001193165900013900026061420230000001207316523000000000097302451440XXXXXX1209       VS11    0001111   NYV1 A E303165520284955N840000000012073XC3H00    05DNHAPPY HIPPIE             072709    VD84000000012073 N  549976487134                            000000000+                F PF 08170                     000000000  N000000000       0000000000000.00 0000000.00   0000000.00                             000000000000000                                                                                                                                                     01418 A000000000000 0000000000001.54     01150 01500                  
06684780328270001E167590675900000002881800888800000010100E0F8C80014 00000000000.004040404040404040404040404040404040404040404040404006011203A08000000000000000000000404040404040404040404040404040  000008401800808000800023061493A09FF4C6EC7C4DF346D740404040400840A0000000031010000000000000000000404040404040404040404040404040404040401E40404040 000000120.73 000000000.001E00000000000000000000    80                                                                                                                                                                                                                                                                                                                  
06684790328270002G2675906759000000028818008888000000101SEVIERVILLE              TN           5 P                00                                      NNNN00 N 00                   000000000000                                                                   76487134                                                                                                                                                                                                                                                                                                                                                                                                                                               
06684800328270022DT67590675900000002881800888800000010180088877287283165900013900036061420230000000164616523000000000097302534142XXXXXX2529       MS02WI09          NY 1 0 AMDJUOV9Z60614  N840000000001646          05DNHAPPY HIPPIE             350229    MD84000000001646 N  549976487134                            000000000+M10101C5434C    MDJ  00402                     000000000  N                0000000000000.00 0000000.00   0000000.00                             000000000000000                                                                                                                                                   B101418  000000000000 0000000000000.32     01050 01500                  
06684810328270001E167590675900000002881800888800000010100E0F8C80203 00000000000.00404040404040404040404040404040404040404040404040400110A00001220000000000000000000000FF00000000000000000000000000  0000084018008000008000230614A3F0C45DDA21F966686A5A22404040400840A000000004101000000000000000000043EF3366925E8BA803120000000000004040401E40404040 000000016.46 000000000.001E03000000000000000000    80                                                                                                                                                                                                                                                                                                                  
06684820328270002G2675906759000000028818008888000000101SEVIERVILLE              TN           5 J                                                        NNNN              000000000000000000000000                                                                   76487134                                                                                                                                                                                                                                                                                                                                                                                                                                               
06684830328270023DT67590675900000002881800888800000010180088877287283165900013900044061420230000000329316523000000000097302534774XXXXXX9862                         NY 1 0 AMDBUV7EZ60614  N840000000003293          05DNHAPPY HIPPIE             240707    MD84000000003293 NP1549976487134                            000000000+M10101C5434C    MDB  00062                     000000000  N                0000000000000.00 0000000.00   0000000.00                             000000000000000                                                                                                                                                   B101418  000000000000 0000000000000.97     02650 01000                  
06684840328270001P1675906759000000028818008888000000101                                                          000000000000          3000            814767769                                                                                                                                                                                                                                                                                                                                                                                                                                                                                                                                                            
06684850328270002E167590675900000002881800888800000010100E0F8C80006 00000000000.00404040404040404040404040404040404040404040404040400114A00001220000000000000000000000FF00000000000000000000000000  00000840180080000080002306146CC2D2F8962D1936A4FAC0FB404040400840A0000000041010000000000000000000711F30BD522D0C0600120000000000004040401E40404040 000000032.93 000000000.001E03000000000000000000    80                                                                                                                                                                                                                                                                                                                  
06684860328270003G2675906759000000028818008888000000101SEVIERVILLE              TN           5 B                                    814767769           YNNN              000000000000000000000000                        7                                          76487134                                                                                                                                                                                                                                                                                                                                                                                                                                               
06684870328270024DT67590675900000002881800888800000010180088824001193165900013900059061420230000000658516523000000000097302440393XXXXXX9718       VS11    0001111   NYV1 A E303165588828072N840000000006585D86Z00    07DNHAPPY HIPPIE             667358    VD84000000006585 N  549976487134                            000000000+                F PF 08170                     000000000  N000000000       0000000000000.00 0000000.00   0000000.00                             000000000000000                                                                                                                                                     01418 A000000000000 0000000000000.91     01150 01500                  
06684880328270001E167590675900000002881800888800000010100E068C80049 00000000000.004040404040404040404040404040404040404040404040404006011203A00000000000000000000000404040404040404040404040404040  0000084020000000000000230614D88A71598680CF21E81422C9404040400840A00000000310100000000000000000004BF3E70B61634BDE30300000000000004040404040404040 000000065.85 000000000.004040400000000000000000    80                                                                                                                                                                                                                                                                                                                  
06684890328270002G2675906759000000028818008888000000101SEVIERVILLE              TN           5 P                00                                      NNNN00 N 00                   000000000000                                                                   76487134                                                                                                                                                                                                                                                                                                                                                                                                                                               
06684900328270025DT67590675900000002881800888800000010180088824001193165900013900067061420230000000493816523000000000097302480639XXXXXX3989       VS11    0001111   NYV1 A E583165610428865N840000000004938PLC300    05DNHAPPY HIPPIE             075911    VD84000000004938 N  549976487134                            000000000+                F DF 00381                     000000000  N000000000       0000000000000.00 0000000.00   0000000.00                             000000000000000                                                                                                                                                     01418 A000000000000 0000000000000.55     00800 01500                  
06684910328270001E167590675900000002881800888800000010100E0F8C8060E 00000000000.004040404040404040404040404040404040404040404040404006010A03A0A000000000000000000000404040404040404040404040404040  0000084018008080008000230614CEAD064A42ED5CB81392CED6404040400840A00000000310100000000000000000005F8611E1C599996D30300000000000004040401E40404040 000000049.38 000000000.001E00000000000000000000    80                                                                                                                                                                                                                                                                                                                  
06684920328270002G2675906759000000028818008888000000101SEVIERVILLE              TN           5 D                00                                      NNNN00 N 00                   000000000000                                                                   76487134                                                                                                                                                                                                                                                                                                                                                                                                                                               
06684930328270026DT67590675900000002881800888800000010180088824001193165900013900075061420230000001195016523000000000097302464018XXXXXX0001       VS11    0001111   NYV1 A E583165638343305N840000000011950XC6S00    05DNHAPPY HIPPIE             00632D    VS84000000011950 N  549976487134                            000000000+                D CD 12113                     000000000  N000000000 499   0000000000000.00 0000000.00   0000000.00                             000000000000000                                                                                                                                                     01418 A000000000000 0000000000002.61     02100 01000                  
06684940328270001E167590675900000002881800888800000010100E0F8C800CE 00000000000.004040404040404040404040404040404040404040404040404006021203A0A006000000000000000000404040404040404040404040404040  00020840380000800080002306144521023B012AD7B3261BC28F404040400840A0000000031010000000000000000000BCAFC6FF0082000000000000000000004040401E40404040 000000119.50 000000000.001E00000000000000000000    80                                                                                                                                                                                                                                                                                                                  
06684950328270002G2675906759000000028818008888000000101SEVIERVILLE              TN           5 C                00                                      NNNN00 Y 00                   000000000000                                                                   76487134                                                                                                                                                                                                                                                                                                                                                                                                                                               
06684960328270027DT67590675900000002881800888800000010180088824001193165900013900083061420230000000685816523000000000097302443238XXXXXX5023       VS11    0001111   NYV1 A E303165655227045N840000000006858MTFK00    07DNHAPPY HIPPIE             041202    VD84000000006858 N  549976487134                            000000000+                F DF 00381                     000000000  N000000000       0000000000000.00 0000000.00   0000000.00                             000000000000000                                                                                                                                                     01418 A000000000000 0000000000000.70     00800 01500                  
06684970328270001E167590675900000002881800888800000010100E068C80330 00000000000.004040404040404040404040404040404040404040404040404006011203A00000000000000000000000404040404040404040404040404040  0000084020000000000000230614282ED7E99EC29D903E027B57404040400840A0000000031010000000000000000000404040404040404040404040404040404040404040404040 000000068.58 000000000.004040400000000000000000    80                                                                                                                                                                                                                                                                                                                  
06684980328270002G2675906759000000028818008888000000101SEVIERVILLE              TN           5 D                00                                      NNNN00 N 00                   000000000000                                                                   76487134                                                                                                                                                                                                                                                                                                                                                                                                                                               
06684990328270028DT67590675900000002881800888800000010180088824001193165900013900091061420230000000558516523000000000097302445101XXXXXX9604       VS11    0001111   NYV1 A E583165710315006N840000000005585MQ9K00    05DNHAPPY HIPPIE             451597    VD84000000005585 N  549976487134                            000000000+                F DF 10433                     000000000  Y000000000 338   0000000000000.00 0000000.00   0000000.00                             000000000000000                                                                                                                                                     01418 A000000000000 0000000000000.25     00050 02200                  
06685000328270001E167590675900000002881800888800000010100E0F8C80014 00000000000.004040404040404040404040404040404040404040404040404006011203A08000000000000000000000404040404040404040404040404040  0001084018008080008000230614DA458E78CE9666E6D5E44D0A404040400840A0000000031010000000000000000000BD80E8340082000000000000000000004040401E40404040 000000055.85 000000000.001E00000000000000000000    80                                                                                                                                                                                                                                                                                                                  
06685010328270002G2675906759000000028818008888000000101SEVIERVILLE              TN           5 D                00                                      NNNN00 N 00                   000000000000                                                                   76487134                                                                                                                                                                                                                                                                                                                                                                                                                                               
06685020328270029DT67590675900000002881800888800000010180088824001193165900013900109061420230000000246816523000000000097302445101XXXXXX7152       VS11    0001111   NYV1 A E383165715127130N840000000002468LLBP00    05DNHAPPY HIPPIE             455397    VD84000000002468 N  549976487134                            000000000+                F DF 10433                     000000000  Y000000000 338   0000000000000.00 0000000.00   0000000.00                             000000000000000                                                                                                                                                     01418 A000000000000 0000000000000.23     00050 02200                  
06685030328270001E167590675900000002881800888800000010100E0F8C800E5 00000000000.004040404040404040404040404040404040404040404040404006011203A08000000000000000000000404040404040404040404040404040  00010840180080800080002306140E2CCAAD3BF1477278FFF346404040400840A00000000310100000000000000000000771515E0082000000000000000000004040401E40404040 000000024.68 000000000.001E00000000000000000000    80                                                                                                                                                                                                                                                                                                                  
06685040328270002G2675906759000000028818008888000000101SEVIERVILLE              TN           5 D                00                                      NNNN00 N 00                   000000000000                                                                   76487134                                                                                                                                                                                                                                                                                                                                                                                                                                               
06685050328270030DT67590675900000002881800888800000010180088824001193165900013900117061420230000000790116523000000000097302416056XXXXXX2404       VS11    0001111   NYV1 A E463165716898951N840000000007901L4JM00    05DNHAPPY HIPPIE             014674    VS84000000007901 N  549976487134                            000000000+                C CC 12112                     000000000  N000000000 497   0000000000000.00 0000000.00   0000000.00                             000000000000000                                                                                                                                                     01418 A000000000000 0000000000001.40     01650 01000                  
06685060328270001E167590675900000002881800888800000010100E0F8C80643 00000000000.004040404040404040404040404040404040404040404040404006010A03A0A000000000000000000000404040404040404040404040404040  00010840180080800080002306147F033A46543E4AE06714A8D4404040400840A00000000310100000000000000000001AD72042A70C8AD430300000000000004040401E40404040 000000079.01 000000000.001E00000000000000000000    80                                                                                                                                                                                                                                                                                                                  
06685070328270002G2675906759000000028818008888000000101SEVIERVILLE              TN           5 C                00                                      NNNN00 N 00                   000000000000                                                                   76487134                                                                                                                                                                                                                                                                                                                                                                                                                                               
06685080328270031DT67590675900000002881800888800000010180088824001193165900013900125061420230000000362116523000000000097302415978XXXXXX1455       VS11    0001111   NYV1 A E383165717789493N840000000003621QK5900    07DNHAPPY HIPPIE             070738    VD84000000003621 N  549976487134                            000000000+                F DF 10433                     000000000  Y000000000 338   0000000000000.00 0000000.00   0000000.00                             000000000000000                                                                                                                                                     01418 A000000000000 0000000000000.24     00050 02200                  
06685090328270001E167590675900000002881800888800000010100E068C802AD 00000000000.004040404040404040404040404040404040404040404040404006011203A00000000000000000000000404040404040404040404040404040  0000084000000000000000230614D964D25895178AF73F4613B2404040400840A00000000310100000000000000000008389B47DC3DD3BC630300000000000004040404040404040 000000036.21 000000000.004040400000000000000000    80                                                                                                                                                                                                                                                                                                                  
06685100328270002G2675906759000000028818008888000000101SEVIERVILLE              TN           5 D                00                                      NNNN00 N 00                   000000000000                                                                   76487134                                                                                                                                                                                                                                                                                                                                                                                                                                               
06685110328270032DT67590675900000002881800888800000010180088824001193165900013900133061420230000000129316523000000000097302445100XXXXXX5955       VK04VS111111111   NYV1 A E303165723567966N840000000001293M9N400    05DNHAPPY HIPPIE             462240    VD84000000001293 N  549976487134                            000000000+                F DF 10439                     000000000  Y000000000 331   0000000000000.00 0000000.00   0000000.00                             000000000000000                                                                                                                                                     01418 F000000000000 0000000000000.23     00050 02200                  
06685120328270001E167590675900000002881800888800000010100E0F8C800F0 00000000000.004040404040404040404040404040404040404040404040404006011203A0A000000000000000000000404040404040404040404040404040  0002084018008080008000230614757988C8A301ADC0385B2F51404040400840A0000000031010000000000000000000EBF4B08F0082000000000000000000004040401E40404040 000000012.93 000000000.001E00000000000000000000    80                                                                                                                                                                                                                                                                                                                  
06685130328270002G2675906759000000028818008888000000101SEVIERVILLE              TN           5 D                00                                      NNNN00 N 00                   000000000000                                                                   76487134                                                                                                                                                                                                                                                                                                                                                                                                                                               
06685140328270033DT67590675900000002881800888800000010180088873011003165900013900147061420230000000493816523000000000097302379793XXXXX1001                          NY 1 0 N005265762780306N840000000004938          07DNHAPPY HIPPIE             844825    AM84000000004938 N  549976487134                            000000000+51010X50034C 258     11261                     000000000                   0000000000000.00 0000000.00   0000000.00                             000000000000000 61248972086759675900000002881 HAPPY HIPPIE             832 PARKWAY              8656540830      37862     HAPPYHIPPIE832@GMAIL.COM                  01418  000000000000 0000000000000.89     01600 00000                  
06685150328270001E167590675900000002881800888800000010100E0E8C80021 00000000000.004040404040404040404040404040404040404040404040404006550103A00002000000000000000000404040404040404040404040404040  000008401980000000800023061408048FFB1C9C91DF52721FA7404040400840A0000000250108010000000000000000A1798D508FDCC41430300000000000004040401F40404040 000000049.38 000000000.001F02020000000000000000    80                                                                                                                                                                                                                                                                                                                  
06685160328270002G2675906759000000028818008888000000101SEVIERVILLE              TN           5                  00                                      NNNN                          000000000000                                                                   76487134                                                                                                                                                                                                                                                                                                                                                                                                                                               
06685170328270034DT67590675900000002881800888800000010180088877287283165900013900150061420230000000384116523000000000097302530964XXXXXX4046       MS02WI09          NY 1 0 AMPG3NN1580614  N840000000003841          90DNHAPPY HIPPIE             937128    MD84000000003841 N  549976487134                            000000000+M10101B5434C    MPG  11964                     000000000  N                0000000000000.00 0000000.00   0000000.00                             000000000000000                                                                                                                                                   C101418  000000000000 0000000000000.59     01150 01500                  
06685180328270001G2675906759000000028818008888000000101SEVIERVILLE              TN           5 G                                                        NNNN              000000000000000000000000                                                                   76487134                                                                                                                                                                                                                                                                                                                                                                                                                                               
06685190328270035DT67590675900000002881800888800000010180088824001193165900013900166061420230000000720916523000000000097302460713XXXXXX6994       VS11    0001111   NYV1 A E583165758997722N8400000000072092K7G00    05DNHAPPY HIPPIE             754375    VD84000000007209 N  549976487134                            000000000+                F DF 00381                     000000000  N000000000       0000000000000.00 0000000.00   0000000.00                             000000000000000                                                                                                                                                     01418 A000000000000 0000000000000.73     00800 01500                  
06685200328270001E167590675900000002881800888800000010100E0F8C8016F 00000000000.004040404040404040404040404040404040404040404040404006011203A0A000000000000000000000404040404040404040404040404040  0000084018008080008000230614790628239D79F45E1F0E7803404040400840A000000003101000000000000000000091EB0CE00080000000000000000000004040401E40404040 000000072.09 000000000.001E00000000000000000000    80                                                                                                                                                                                                                                                                                                                  
06685210328270002G2675906759000000028818008888000000101SEVIERVILLE              TN           5 D                00                                      NNNN00 N 00                   000000000000                                                                   76487134                                                                                                                                                                                                                                                                                                                                                                                                                                               
06685220328270036DT67590675900000002881800888800000010180088824001193165900013900174061420230000000296216523000000000097302426690XXXXXX1663       VS11    0001111   NYV1 A E463165770064850N840000000002962X5DT00    05DNHAPPY HIPPIE             09801D    VS84000000002962 N  549976487134                            000000000+                D CD 12113                     000000000  N000000000 499   0000000000000.00 0000000.00   0000000.00                             000000000000000                                                                                                                                                     01418 A000000000000 0000000000000.72     02100 01000                  
06685230328270001E167590675900000002881800888800000010100E0F8C80107 00000000000.004040404040404040404040404040404040404040404040404006021203A0A002000000000000000000404040404040404040404040404040  0000084038000080008000230614F84F8EFC6AD16930B97689D6404040400840A0000000031010000000000000000000091792DA0082000000000000000000004040401E40404040 000000029.62 000000000.001E00000000000000000000    80                                                                                                                                                                                                                                                                                                                  
06685240328270002G2675906759000000028818008888000000101SEVIERVILLE              TN           5 C                00                                      NNNN00 Y 00                   000000000000                                                                   76487134                                                                                                                                                                                                                                                                                                                                                                                                                                               
06685250328270037DT67590675900000002881800888800000010180088824001193165900013900182061420230000000329316523000000000097302423223XXXXXX7746       VS11    0001111   NYV1 A E303165772038562N840000000003293QXMW00    05DNHAPPY HIPPIE             043485    VD84000000003293 N  549976487134                            000000000+                F DF 00381                     000000000  N000000000       0000000000000.00 0000000.00   0000000.00                             000000000000000                                                                                                                                                     01418 A000000000000 0000000000000.41     00800 01500                  
06685260328270001E167590675900000002881800888800000010100E0F8C801BA 00000000000.004040404040404040404040404040404040404040404040404006011203A0A000000000000000000000404040404040404040404040404040  0000084018008080008000230614B38A20E507BE0F5CE09E09EE404040400840A00000000310100000000000000000009A1860C10080000000000000000000004040401E40404040 000000032.93 000000000.001E00000000000000000000    80                                                                                                                                                                                                                                                                                                                  
06685270328270002G2675906759000000028818008888000000101SEVIERVILLE              TN           5 D                00                                      NNNN00 N 00                   000000000000                                                                   76487134                                                                                                                                                                                                                                                                                                                                                                                                                                               
06685280328270038DT67590675900000002881800888800000010180088824001193165900013900190061420230000000487216523000000000097302415978XXXXXX1976       VS11    0001111   NYV1 A E463165787023447N840000000004872D8Q600    07DNHAPPY HIPPIE             062246    VD84000000004872 N  549976487134                            000000000+                F DF 10433                     000000000  Y000000000 338   0000000000000.00 0000000.00   0000000.00                             000000000000000                                                                                                                                                     01418 A000000000000 0000000000000.24     00050 02200                  
06685290328270001E167590675900000002881800888800000010100E068C80177 00000000000.004040404040404040404040404040404040404040404040404006011203A00000000000000000000000404040404040404040404040404040  00000840000000000000002306143840A4EE51FA7E484276CD8B404040400840A00000000310100000000000000000006861A9DFEAF7EAA030300000000000004040404040404040 000000048.72 000000000.004040400000000000000000    80                                                                                                                                                                                                                                                                                                                  
06685300328270002G2675906759000000028818008888000000101SEVIERVILLE              TN           5 D                00                                      NNNN00 N 00                   000000000000                                                                   76487134                                                                                                                                                                                                                                                                                                                                                                                                                                               
06685310328270039BH6759067590000002962980013180000090170614202316523000000000040126    0000090001240006N8001316759C06152023024                                                                                                                                                                                                                                                                                                                                                                                                                                                                                                                                                                                              
06685320328270040DT67590675900000029629800131800000010180013177287283165900012400012061420230000001150316523000000000040126551406XXXXXX5231       ME03MS02WI09      NY 1 0 AMDSBOVTAZ0614  N840000000011503          01DNPAK VENTURES             333608    MD84000000011503 N  599978419189                            000000000+M1010115434C    MDS  00399                     000000000  N                0000000000000.00 0000000.00   0000000.00                             000000000000000                                                                                                                                                   E101418  000000000000 0000000000002.05     01650 01500                  
06685330328270001G2675906759000000296298001318000000101MILTON                   FL           5 S                                                        NNNN              000000000000000000000000                                                                   78419189                                                                                                                                                                                                                                                                                                                                                                                                                                               
06685340328270041DT67590675900000029629800131800000010180013177287283165900012400020061420230000000401316523000000000040126510805XXXXXX4547       ME03MS02WI09      NY 1 0 AMDJ5MYO580614  N840000000004013          01DNPAK VENTURES             020311    MD84000000004013 N  599978419189                            000000000+M1010115434C    MDJ  10811                     000000000  1                0000000000000.00 0000000.00   0000000.00                             000000000000000                                                                                                                                                   E101418  000000000000 0000000000000.24     00050 02200                  
06685350328270001G2675906759000000296298001318000000101MILTON                   FL           5 J                                                        NNNN              000000000000000000000000                        7                                          78419189                                                                                                                                                                                                                                                                                                                                                                                                                                               
06685360328270042DT67590675900000029629800131800000010180013124001193165900012400036061420230000000535016523000000000040126435546XXXXXX3822       VS11    0001111   NYV1 A E463165652310689N840000000005350FXX400    05DNPAK VENTURES             069078    VD84000000005350 N  599978419189                            000000000+                F DF 10433                     000000000  Y000000000 338   0000000000000.00 0000000.00   0000000.00                             000000000000000                                                                                                                                                     01418 A000000000000 0000000000000.25     00050 02200                  
06685370328270001E167590675900000029629800131800000010100E0F8C80186 00000000000.004040404040404040404040404040404040404040404040404006011203A08000000000000000000000404040404040404040404040404040  000108401800808000800023061447D2A5C8B3F05D15CF92E969404040400840A00000000310100000000000000000005E5838710082000000000000000000004040401E40404040 000000053.50 000000000.001E00000000000000000000    80                                                                                                                                                                                                                                                                                                                  
06685380328270002G2675906759000000296298001318000000101MILTON                   FL           5 D                00                                      NNNN00 N 00                   000000000000                                                                   78419189                                                                                                                                                                                                                                                                                                                                                                                                                                               
06685390328270043DT67590675900000029629800131800000010180013124001193165900012400044061420230000001016516523000000000040126400022XXXXXX4681       VS11    0001111   NYV1 A E583165719224404N840000000010165JWJS00    05DNPAK VENTURES             457392    VD84000000010165 N  599978419189                            000000000+                F DF 10433                     000000000  Y000000000 338   0000000000000.00 0000000.00   0000000.00                             000000000000000                                                                                                                                                     01418 A000000000000 0000000000000.27     00050 02200                  
06685400328270001E167590675900000029629800131800000010100E0F8C80093 00000000000.004040404040404040404040404040404040404040404040404006021203A0A000000000000000000000404040404040404040404040404040  000008401800808000800023061465B9087C4EA3704DED417DD7404040400840A0000000031010000000000000000000404040404040404040404040404040404040401E40404040 000000101.65 000000000.001E00000000000000000000    80                                                                                                                                                                                                                                                                                                                  
06685410328270002G2675906759000000296298001318000000101MILTON                   FL           5 D                00                                      NNNN00 N 00                   000000000000                                                                   78419189                                                                                                                                                                                                                                                                                                                                                                                                                                               
06685420328270044DT67590675900000029629800131800000010180013124001193165900012400051061420230000000374516523000000000040126405447XXXXXX4080       VS11    0001111   NYV1 A E303165725562586N840000000003745HV8M00    05DNPAK VENTURES             054556    VD84000000003745 N  599978419189                            000000000+                F DF 00381                     000000000  N000000000       0000000000000.00 0000000.00   0000000.00                             000000000000000                                                                                                                                                     01418 A000000000000 0000000000000.45     00800 01500                  
06685430328270001E167590675900000029629800131800000010100E0F8C80182 00000000000.004040404040404040404040404040404040404040404040404006140A03A08000000000000000000000404040404040404040404040404040  000008401800808000800023061412DA7240B4B9FAEF4E0877A3404040400840A0000000031010000000000000000000404040404040404040404040404040404040401E40404040 000000037.45 000000000.001E00000000000000000000    80                                                                                                                                                                                                                                                                                                                  
06685440328270002G2675906759000000296298001318000000101MILTON                   FL           5 D                00                                      NNNN00 N 00                   000000000000                                                                   78419189                                                                                                                                                                                                                                                                                                                                                                                                                                               
