07772330630414046AD675906759000000198288001098000009071900015395040000001194807262023NYY20723ND6759800109072820232023207027222                                                                                                                                                                                                                                                                                                                                                                                                                                                                                                                                                                                              
07772340630414049AD675906759000000142748001028000009071900014897700000001987007262023NYY20723ND6759800102072820232023207026880                                                                                                                                                                                                                                                                                                                                                                                                                                                                                                                                                                                              
07772350630414058AD675906759000000142748001028000009071900012064630000002136707262023NYY20723ND6759800102072820232023207023707                                                                                                                                                                                                                                                                                                                                                                                                                                                                                                                                                                                              
07772360630962643AD675906759000000232598001168000009071232060568290000001306707262023NYY20723ND6759800116072820232023206056829                                                                                                                                                                                                                                                                                                                                                                                                                                                                                                                                                                                              
07772370632157167BH6759067590000001982880010980000090170727202320823000000000019870    0000090001130814N8001096759D07282023113                                                                                                                                                                                                                                                                                                                                                                                                                                                                                                                                                                                              
07772380632157168DT67590675900000019828800109800000010680010987287283208900011308149072620230000001987020823000000000019870549113XXXXXX5296                         YY 4607AMCCKG2XR30726  N840000000019870          81CNKETOFUSION 8885968154    486443    MC84000000019870 NDR599977547467   7BFD49ADAAT142F5F8AB879  000000000+600450S00130    MCC  00564                     000000000  N                0000000000000.00 0000000.00   0000000.00                             000000000000000                                                                                                                                                     015WPE 000000000000-0000000000003.48     01750 00000                  
07772390632157168DR6759067590000001982880010980000001067BFD49ADAAT142F5F8AB879  U000000000000                                                                                                                                                                                                                                                                                                                                                                                                                                                                                                                                                                                                                               
07772400632150001G26759067590000001982880010980000001068885968154               UT           9 C               210                                      NNNN           210000000000000000000000000                        7                                          77547467                                                                                                                                                                                                                                                                                                                                                                                                                                               
07772410632157171BH6759067590000002684980012580000090170727202320823000000000028269    0000090001028179N8001256759D07282023102                                                                                                                                                                                                                                                                                                                                                                                                                                                                                                                                                                                              
07772420632157172DT67590675900000026849800125800000010680012574001193208900010281770072620230000001489220823000000000028269410040XXXXXX6143               0000000   YYV4 07T463207425238609N840000000014892HZZ900    01CNCBD8885133385            09875G    VB84000000014892 NDR599978220273   55B4F7C31DT4C1857429FB4  000000000+                G3CG300246                     000000000  N000000000 167   0000000000000.00 0000000.00   0000000.00                             000000000000000                                                                                                                                                     015WPE 000000014892-0000000000003.50     02350 00000                  
07772430632157172DR67590675900000026849800125800000010655B4F7C31DT4C1857429FB4  U000000014892                 P1                                                                                                                                                                                                                                                                                                                                                                                                                                                                                                                                                                                                            
07772440632150001P16759067590000002684980012580000001060000000000000000                             2000000000000000000000000              000000000000                    0000000000000000000000000                    000000000000                                                                                                                                                                                                                                                                                                                                                                                                                                                                                        
07772450632150002G2675906759000000268498001258000000106888-5133385              WY           9 C                00                                      NNNN   Y                      000000000000                                                                   78220273                                                                                                                                                                                                                                                                                                                                                                                                                                               
07772460632157173DT67590675900000026849800125800000010680012587287283208900010281784072620230000000593120823000000000028269513519XXXXXX3616                         YY 4607AMDJO740230726  N840000000005931          81CNCBD8885133385            006115    MD84000000005931 NDR599978220273   8D0EE86631TA74FCA846B52  000000000+600450S00130    MDJ  00560                     000000000  N                0000000000000.00 0000000.00   0000000.00                             000000000000000                                                                                                                                                     015WPE 000000000000 0000000000000.00     00000 00000                  
07772470632157173DR6759067590000002684980012580000001068D0EE86631TA74FCA846B52  U000000000000                                                                                                                                                                                                                                                                                                                                                                                                                                                                                                                                                                                                                               
07772480632150001G26759067590000002684980012580000001068885133385               WY           9 J               210                                      NNNN           210000000000000000000000000                        7                                          78220273                                                                                                                                                                                                                                                                                                                                                                                                                                               
07772490632157174DT67590675900000026849800125800000010680012574001193208900010281796072620230000000744620823000000000028269443603XXXXXX5998               0000000   YYV4 07T303207559393358N8400000000074464TML00    01CNCBD8885133385            026990    VB84000000007446 NDR599978220273   4C78B17C44T5BE46C9D5058  000000000+                G CG 00246                     000000000  N000000000 167   0000000000000.00 0000000.00   0000000.00                             000000000000000                                                                                                                                                     015WPE 000000007446-0000000000001.75     02350 00000                  
07772500632157174DR6759067590000002684980012580000001064C78B17C44T5BE46C9D5058  U000000007446                 P1                                                                                                                                                                                                                                                                                                                                                                                                                                                                                                                                                                                                            
07772510632150001P16759067590000002684980012580000001060000000000000000                             2000000000000000000000000              000000000000                    0000000000000000000000000                    000000000000                                                                                                                                                                                                                                                                                                                                                                                                                                                                                        
07772520632150002G2675906759000000268498001258000000106888-5133385              WY           9 C                00                                      NNNN   Y                      000000000000                                                                   78220273                                                                                                                                                                                                                                                                                                                                                                                                                                               
07772530633060002BH6759067590000002148580111380000090170727202320823000000000355000    0000090001107162N8011136759C07282023010                                                                                                                                                                                                                                                                                                                                                                                                                                                                                                                                                                                              
07772540633060003DT67590675900000021485801113800000010180111324001193208900011037218072720230000005000020823000000000355000404602XXXXXX8984               2111111   NYV4 A7W383207610651884N840000000050000ZPNB00    01DNFED CONTRACTING CTR INC  674523    VB84000000050000 NDR739271004114   3444                     000000000+                K CK 00691                     000000000  N000000000 234   0000000000000.00 0000000.00   0000000.00                             000000000000000                                                                                                                                                     01418 G000000050000 0000000000013.60     02700 01000                  
07772550633060003DR6759067590000002148580111380000001013444                     Y000000050000                 P1                                                                                                                                                                                                                                                                                                                                                                                                                                                                                                                                                                                                            
07772560633060001P16759067590000002148580111380000001010000000000000000    64504324350              2000000000000000000000000              000000000000                    0000000000000000000000000                    000000000000                                                                                                                                                                                                                                                                                                                                                                                                                                                                                        
07772570633060002G2675906759000000214858011138000000101855-7005143              FL           9 C                00                                      NNNN   N                      000000000000                                                                   71004114                                                                                                                                                                                                                                                                                                                                                                                                                                               
07772580633060004DT67590675900000021485801113800000010180111324001193208900011038711072720230000005000020823000000000355000425907XXXXXX4112               2111111   NYV4 A7W303207613563774N840000000050000M78G00    01DNFED CONTRACTING CTR INC  023432    VD84000000050000 NDR739271004114   3448                     000000000+                G DG 10352                     000000000  Y000000000 338   0000000000000.00 0000000.00   0000000.00                             000000000000000                                                                                                                                                     01418 G000000050000 0000000000000.47     00050 02200                  
07772590633060004DR6759067590000002148580111380000001013448                     N000000050000                 P1                                                                                                                                                                                                                                                                                                                                                                                                                                                                                                                                                                                                            
07772600633060001P16759067590000002148580111380000001010000000000000000    64504335372              2000000000000000000000000              000000000000                    0000000000000000000000000                    000000000000                                                                                                                                                                                                                                                                                                                                                                                                                                                                                        
07772610633060002G2675906759000000214858011138000000101855-7005143              FL           9 D                00                                      NNNN   N                      000000000000                                                                   71004114                                                                                                                                                                                                                                                                                                                                                                                                                                               
07772620633060005DT67590675900000021485801113800000010180111324001193208900011069864072720230000006000020823000000000355000452088XXXXXX5571               2111111   NYV4 07W303207681677771N8400000000600008PCJ00    01DNFED CONTRACTING CTR INC  08222I    VS84000000060000FNDR739271004114   3454                     000000000+                I CI 02828                     000000000  N000000000       0000000000000.00 0000000.0000 0000006.00D                            000000000000000                                                                                                                                                     01418 G000000060000 0000000000010.80     01800 00000                  
07772630633060005DR6759067590000002148580111380000001013454                     Y000000060000                 P1                                                                                                                                                                                                                                                                                                                                                                                                                                                                                                                                                                                                            
07772640633060001P16759067590000002148580111380000001010000000000000000                             2000000000000000000000000              000000000000                    0000000000000000000000000                    000000000000                                                                                                                                                                                                                                                                                                                                                                                                                                                                                        
07772650633060002G2675906759000000214858011138000000101855-7005143              FL           9 C                00                                      NNNN   Y                      000000000000                                                                   71004114                                                                                                                                                                                                                                                                                                                                                                                                                                               
07772660633060006DT67590675900000021485801113800000010180111324001193208900011084574072720230000013500020823000000000355000433993XXXXXX0212               2111111   NYV4 A7W583207718666407N8400000001350008GVK00    01DNFED CONTRACTING CTR INC  02291G    VB84000000135000 NDR739271004114   3460                     000000000+                G1CG108010                     000000000  N000000000 390   0000000000000.00 0000000.00   0000000.00                             000000000000000                                                                                                                                                     01418 G000000135000 0000000000038.58     02850 01000                  
07772670633060006DR6759067590000002148580111380000001013460                     Y000000135000                 P1                                                                                                                                                                                                                                                                                                                                                                                                                                                                                                                                                                                                            
07772680633060001P16759067590000002148580111380000001010000000000000000    64504735101              2000000000000000000000000              000000000000                    0000000000000000000000000                    000000000000                                                                                                                                                                                                                                                                                                                                                                                                                                                                                        
07772690633060002G2675906759000000214858011138000000101855-7005143              FL           9 C                00                                      NNNN   Y                      000000000000                                                                   71004114                                                                                                                                                                                                                                                                                                                                                                                                                                               
07772700633060007DT67590675900000021485801113800000010180111387287283208900011071622072720230000006000020823000000000355000555671XXXXXX1630                         NY 4607AMABV4IRWK0726  N840000000060000          81DNFED CONTRACTING CTR INC  818248    MB84000000060000 NDR739200000001   3458                     000000000+600450S00140    MAB  10988                     000000000  N                0000000000000.00 0000000.00   0000000.00                             000000000000000                                                                                                                                                   U001418  000000000000 0000000000017.20     02850 01000                  
07772710633060007DR6759067590000002148580111380000001013458                     Y000000000000                 P1                                                                                                                                                                                                                                                                                                                                                                                                                                                                                                                                                                                                            
07772720633060001P1675906759000000214858011138000000101                                                          000000000000          1000            871304360                                                                                                                                                                                                                                                                                                                                                                                                                                                                                                                                                            
07772730633060002G2675906759000000214858011138000000101727-8515483              FL           9 B               210                  871304360           YNNN           210000000000000000000000000                        7                                          71004114                                                                                                                                                                                                                                                                                                                                                                                                                                               
07772740633060008BH6759067590000000288180088880000090170727202320823000000000039453    0000090001730009N8008886759C07282023073                                                                                                                                                                                                                                                                                                                                                                                                                                                                                                                                                                                              
07772750633060009DT67590675900000002881800888800000010180088824001193208900017300016072720230000000343720823000000000039453435547XXXXXX0875       VS11    0001111   NYV1 A E463208538253869N840000000003437J77M00    05DNHAPPY HIPPIE             058093    VD84000000003437 N  549976487169                            000000000+                F DF 10433                     000000000  Y000000000 338   0000000000000.00 0000000.00   0000000.00                             000000000000000                                                                                                                                                     01418 A000000000000 0000000000000.24     00050 02200                  
07772760633060001E167590675900000002881800888800000010100E0F8C802DA 00000000000.004040404040404040404040404040404040404040404040404006011203A08000000000000000000000404040404040404040404040404040  00010840180080800080002307278A888A70FB628F8AB9F45C0F404040400840A0000000031010000000000000000000E3DC93290082000000000000000000004040401E40404040 000000034.37 000000000.001E00000000000000000000    80                                                                                                                                                                                                                                                                                                                  
07772770633060002G2675906759000000028818008888000000101SEVIERVILLE              TN           5 D                00                                      NNNN00 N 00                   000000000000                                                                   76487169                                                                                                                                                                                                                                                                                                                                                                                                                                               
07772780633060010DT67590675900000002881800888800000010180088824001193208900017300024072720230000000381920823000000000039453473703XXXXXX9534       VS11    0001111   NYV1 A E463208551117928N840000000003819MPWF00    05DNHAPPY HIPPIE             002696    VD84000000003819 N  549976487169                            000000000+                F DF 10433                     000000000  Y000000000 338   0000000000000.00 0000000.00   0000000.00                             000000000000000                                                                                                                                                     01418 A000000000000 0000000000000.24     00050 02200                  
07772790633060001E167590675900000002881800888800000010100E0F8C80077 00000000000.004040404040404040404040404040404040404040404040404006061203A02000000000000000000000404040404040404040404040404040  00000840180080800080002307277E350617215156820A352401404040400840A0000000031010000000000000000000E080E080F0B0A01020200000000000004040401E40404040 000000038.19 000000000.001E00000000000000000000    80                                                                                                                                                                                                                                                                                                                  
07772800633060002G2675906759000000028818008888000000101SEVIERVILLE              TN           5 D                00                                      NNNN00 N 00                   000000000000                                                                   76487169                                                                                                                                                                                                                                                                                                                                                                                                                                               
07772810633060011DT67590675900000002881800888800000010180088824001193208900017300032072720230000000524820823000000000039453422921XXXXXX4174       VS11    0001111   NYV1 A E583208564027724N8400000000052487CS800    05DNHAPPY HIPPIE             042004    VD84000000005248 N  549976487169                            000000000+                F DF 00381                     000000000  N000000000       0000000000000.00 0000000.00   0000000.00                             000000000000000                                                                                                                                                     01418 A000000000000 0000000000000.57     00800 01500                  
07772820633060001E167590675900000002881800888800000010100E0F8C800EF 00000000000.004040404040404040404040404040404040404040404040404006011203A00000000000000000000000404040404040404040404040404040  0000084018008080008000230727A3A458B385B8948D772DA06D404040400840A0000000031010000000000000000000738104550382000000000000000000004040401E40404040 000000052.48 000000000.001E00000000000000000000    80                                                                                                                                                                                                                                                                                                                  
07772830633060002G2675906759000000028818008888000000101SEVIERVILLE              TN           5 D                00                                      NNNN00 N 00                   000000000000                                                                   76487169                                                                                                                                                                                                                                                                                                                                                                                                                                               
07772840633060012DT67590675900000002881800888800000010180088877287283208900017300042072720230000000565120823000000000039453521730XXXXXX0683       MS02WI09          NY 2 0 AMDJXCSF5T0727  N840000000005651          05DNHAPPY HIPPIE             004758    MD84000000005651 N  549976487169                            000000000+M10101C1334C    MDJ  10815                     000000000  1                0000000000000.00 0000000.00   0000000.00                             000000000000000                                                                                                                                                   B101418  000000000000 0000000000000.25     00050 02200                  
07772850633060001E167590675900000002881800888800000010100E0F8C80034 00000000000.00404040404040404040404040404040404040404040404040400110A04001220000000000000000000000FF00000000000000000000000000  0000084039000000048000230727B377D61E746DBC11CE501D04404040400840A0000000041010000000000000000000DF2561928AF8905E031A0000000000004040400240404040 000000056.51 000000000.000203000000000000000000    80                                                                                                                                                                                                                                                                                                                  
07772860633060002G2675906759000000028818008888000000101SEVIERVILLE              TN           5 J                                                        NNNN              000000000000000000000000                        7                                          76487169                                                                                                                                                                                                                                                                                                                                                                                                                                               
07772870633060013DT67590675900000002881800888800000010180088824001193208900017300057072720230000000694520823000000000039453410889XXXXXX6262       VS11    0001111   NYV1 A E383208577429992N84000000000694597F800    05DNHAPPY HIPPIE             543343    VS84000000006945 N  549976487169                            000000000+                B CB 12111                     000000000  N000000000 495   0000000000000.00 0000000.00   0000000.00                             000000000000000                                                                                                                                                     01418 A000000000000 0000000000001.25     01650 01000                  
07772880633060001E167590675900000002881800888800000010100E0F8C8001A 00000000000.004040404040404040404040404040404040404040404040404006011203A00000000000000000000000404040404040404040404040404040  000008401800808000800023072720DEF9D14A4B615732199EA5404040400840A00000000310100000000000000000002C920C6B0382000000000000000000004040401E40404040 000000069.45 000000000.001E00000000000000000000    80                                                                                                                                                                                                                                                                                                                  
07772890633060002G2675906759000000028818008888000000101SEVIERVILLE              TN           5 C                00                                      NNNN00 N 00                   000000000000                                                                   76487169                                                                                                                                                                                                                                                                                                                                                                                                                                               
07772900633060014DT67590675900000002881800888800000010180088877287283208900017300067072720230000000104220823000000000039453517805XXXXXX6471       MS02WI09          NY 1 0 AMPLX4L05T0727  N840000000001042          05DNHAPPY HIPPIE             08789B    MC84000000001042 N  549976487169                            000000000+M10101C5434C    MPL  00364                     000000000  N                0000000000000.00 0000000.00   0000000.00                             000000000000000                                                                                                                                                   B101418  000000000000 0000000000000.23     01800 00400                  
07772910633060001E167590675900000002881800888800000010100E0F8C8001C 00000000000.00404040404040404040404040404040404040404040404040400110A04001220000000000000000000000FF00000000000000000000000000  000208403900000000800023072701FCB4FD997E5874706AA652404040400840A0000000041010000000000000000000B9D0AC29EEB8FB3900120000000000004040401E40404040 000000010.42 000000000.001E03000000000000000000    80                                                                                                                                                                                                                                                                                                                  
07772920633060002G2675906759000000028818008888000000101SEVIERVILLE              TN           5 L                                                        NNNN              000000000000000000000000                        7                                          76487169                                                                                                                                                                                                                                                                                                                                                                                                                                               
07772930633060015DT67590675900000002881800888800000010180088877287283208900017300075072720230000000520820823000000000039453546616XXXXXX8203       MS02WI09          NY 1 0 AMCWD7PG5U0727  N840000000005208          07DNHAPPY HIPPIE             84296Z    MC84000000005208 N  549976487169                            000000000+M10101M5434C    MCW  00646                     000000000  N                0000000000000.00 0000000.00   0000000.00                             000000000000000                                                                                                                                                   B101418  000000000000 0000000000001.03     01900 00400                  
07772940633060001E1675906759000000028818008888000000101000060C800EB 00000000000.00404040404040404040404040404040404040404040404040400110A04001220000000000000000000000FF00000000000000000000000000  0003084019800000008001230727AF3AA4FE9873411DE3995890404040400840A0000000041010000000000000000000D05D869FCBBA582F00120000000000004040401E40404040 000000052.08 000000000.001E03000000000000000000    80                                                                                                                                                                                                                                                                                                                  
07772950633060002G2675906759000000028818008888000000101SEVIERVILLE              TN           5 W                                                        NNNN              000000000000000000000000       03               7                                          76487169                                                                                                                                                                                                                                                                                                                                                                                                                                               
07772960633060016DT67590675900000002881800888800000010180088824001193208900017300081072720230000000694520823000000000039453419090XXXXXX6989       VS11    0001111   NYV1 A E383208589609082N84000000000694565DH00    05DNHAPPY HIPPIE             248407    VD84000000006945 N  549976487169                            000000000+                F DF 00381                     000000000  N000000000       0000000000000.00 0000000.00   0000000.00                             000000000000000                                                                                                                                                     01418 A000000000000 0000000000000.71     00800 01500                  
07772970633060001E167590675900000002881800888800000010100E0F8C800B4 00000000000.004040404040404040404040404040404040404040404040404006011203A0A000000000000000000000404040404040404040404040404040  000108401800808000800023072796F12509E18A0A4BFBB90A33404040400840A0000000031010000000000000000000C7E608650080000000000000000000004040401E40404040 000000069.45 000000000.001E00000000000000000000    80                                                                                                                                                                                                                                                                                                                  
07772980633060002G2675906759000000028818008888000000101SEVIERVILLE              TN           5 D                00                                      NNNN00 N 00                   000000000000                                                                   76487169                                                                                                                                                                                                                                                                                                                                                                                                                                               
07772990633060017DT67590675900000002881800888800000010180088824001193208900017300099072720230000000115820823000000000039453474474XXXXXX6632       VK04VS111111111   NYV1 A E463208776192908N84000000000115854Z900    07DNHAPPY HIPPIE             103539    VD84000000001158 N  549976487169                            000000000+                F DF 10439                     000000000  Y000000000 331   0000000000000.00 0000000.00   0000000.00                             000000000000000                                                                                                                                                     01418 F000000000000 0000000000000.23     00050 02200                  
07773000633060001E167590675900000002881800888800000010100E068C8027A 00000000000.004040404040404040404040404040404040404040404040404006011203A00000000000000000000000404040404040404040404040404040  0000084020000000000000230727E9AC2DCD6D8EEE33F1177B51404040400840A0000000031010000000000000000000404040404040404040404040404040404040404040404040 000000011.58 000000000.004040400000000000000000    80                                                                                                                                                                                                                                                                                                                  
07773010633060002G2675906759000000028818008888000000101SEVIERVILLE              TN           5 D                00                                      NNNN00 N 00                   000000000000                                                                   76487169                                                                                                                                                                                                                                                                                                                                                                                                                                               
07773020633060018BH6759067590000000288180088880000090170727202320823000000000283811    0000090001720047N8008886759C07282023172                                                                                                                                                                                                                                                                                                                                                                                                                                                                                                                                                                                              
07773030633060019DT67590675900000002881800888800000010180088824001193208900017200018072720230000000493820823000000000283811419090XXXXXX6124       VS11    0001111   NYV1 A E383208506522250N840000000004938NF5N00    05DNHAPPY HIPPIE             243584    VD84000000004938 N  549976487134                            000000000+                F DF 00381                     000000000  N000000000       0000000000000.00 0000000.00   0000000.00                             000000000000000                                                                                                                                                     01418 A000000000000 0000000000000.55     00800 01500                  
07773040633060001E167590675900000002881800888800000010100E0F8C8003B 00000000000.004040404040404040404040404040404040404040404040404006011203A0A000000000000000000000404040404040404040404040404040  000208401800808000800023072736CD94D36E421FCAAB303381404040400840A0000000031010000000000000000000907B3F610082000000000000000000004040401E40404040 000000049.38 000000000.001E00000000000000000000    80                                                                                                                                                                                                                                                                                                                  
07773050633060002G2675906759000000028818008888000000101SEVIERVILLE              TN           5 D                00                                      NNNN00 N 00                   000000000000                                                                   76487134                                                                                                                                                                                                                                                                                                                                                                                                                                               
07773060633060020DT67590675900000002881800888800000010180088877287283208900017200028072720230000000393820823000000000283811542543XXXXXX3429       MS02WI09          NY 1 0 AMDHWNA8JH0727  N840000000003938          05DNHAPPY HIPPIE             044879    MD84000000003938 N  549976487134                            000000000+M10101C5434C    MDH  00402                     000000000  N                0000000000000.00 0000000.00   0000000.00                             000000000000000                                                                                                                                                   B101418  000000000000 0000000000000.56     01050 01500                  
07773070633060001E167590675900000002881800888800000010100E0F8C80011 00000000000.00404040404040404040404040404040404040404040404040400110A04003220000000000000000000000FF00000000000000000000000000  00000840390000000080002307278639A5212045EADFDBB7CB8F404040400840A0000000041010000000000000000000B596DEE2A92E50A600120000000000004040401E40404040 000000039.38 000000000.001E03000000000000000000    80                                                                                                                                                                                                                                                                                                                  
07773080633060002G2675906759000000028818008888000000101SEVIERVILLE              TN           5 H                                                        NNNN              000000000000000000000000                        7                                          76487134                                                                                                                                                                                                                                                                                                                                                                                                                                               
07773090633060021DT67590675900000002881800888800000010180088877287283208900017200036072720230000001041520823000000000283811542539XXXXXX8741       MS02WI09          NY 1 0 AMPLEO4QJI0727  N840000000010415          05DNHAPPY HIPPIE             027296    MC84000000010415 N  549976487134                            000000000+M10101C5434C    MPL  00043                     000000000  N                0000000000000.00 0000000.00   0000000.00                             000000000000000                                                                                                                                                   B101418  000000000000 0000000000001.76     01650 00400                  
07773100633060001E167590675900000002881800888800000010100E0F8C8000C 00000000000.00404040404040404040404040404040404040404040404040400210A04001220000000000000000000000FF00000000000000000000000000  00010840390000000080002307274722DDCDD02FE69320B4E920404040400840A000000004101000000000000000000018E418316591E52300120000000000004040401E40404040 000000104.15 000000000.001E03000000000000000000    80                                                                                                                                                                                                                                                                                                                  
07773110633060002G2675906759000000028818008888000000101SEVIERVILLE              TN           5 L                                                        NNNN              000000000000000000000000                        7                                          76487134                                                                                                                                                                                                                                                                                                                                                                                                                                               
07773120633060022DT67590675900000002881800888800000010180088824001193208900017200042072720230000000962520823000000000283811425828XXXXXX1869       VS11    0001111   NYV1 A E583208511953443N840000000009625X89700    05DNHAPPY HIPPIE             052074    VD84000000009625 N  549976487134                            000000000+                F DF 10433                     000000000  Y000000000 338   0000000000000.00 0000000.00   0000000.00                             000000000000000                                                                                                                                                     01418 A000000000000 0000000000000.27     00050 02200                  
07773130633060001E167590675900000002881800888800000010100E0F8C8033B 00000000000.004040404040404040404040404040404040404040404040404006011203A00000000000000000000000404040404040404040404040404040  00000840180080800080002307279EBBDF6394E91127E8BD0F98404040400840A000000003101000000000000000000001C69A510086000000000000000000004040401E40404040 000000096.25 000000000.001E00000000000000000000    80                                                                                                                                                                                                                                                                                                                  
07773140633060002G2675906759000000028818008888000000101SEVIERVILLE              TN           5 D                00                                      NNNN00 N 00                   000000000000                                                                   76487134                                                                                                                                                                                                                                                                                                                                                                                                                                               
07773150633060023DT67590675900000002881800888800000010180088824001193208900017200059072720230000000104220823000000000283811480639XXXXXX8415       VK04VS111111111   NYV1 A E463208515694979N840000000001042N5WD00    05DNHAPPY HIPPIE             125494    VD84000000001042 N  549976487134                            000000000+                F DF 00451                     000000000  N000000000 214   0000000000000.00 0000000.00   0000000.00                             000000000000000                                                                                                                                                     01418 F000000000000 0000000000000.20     01550 00400                  
07773160633060001E167590675900000002881800888800000010100E0F8C800A5 00000000000.004040404040404040404040404040404040404040404040404006011203A0A000000000000000000000404040404040404040404040404040  0000084018008080008000230727AAD8BF23006FBBC60707C35D404040400840A0000000031010000000000000000000162F50530080000000000000000000004040401E40404040 000000010.42 000000000.001E00000000000000000000    80                                                                                                                                                                                                                                                                                                                  
07773170633060002G2675906759000000028818008888000000101SEVIERVILLE              TN           5 D                00                                      NNNN00 N 00                   000000000000                                                                   76487134                                                                                                                                                                                                                                                                                                                                                                                                                                               
07773180633060024DT67590675900000002881800888800000010180088824001193208900017200067072720230000000148120823000000000283811444796XXXXXX3357       VK04VS111111111   NYV1 A E583208516914591N8400000000014819CNW00    07DNHAPPY HIPPIE             027587    VS84000000001481 N  549976487134                            000000000+                A CA 12053                     000000000  N000000000 450   0000000000000.00 0000000.00   0000000.00                             000000000000000                                                                                                                                                     01418 F000000000000 0000000000000.28     01900 00000                  
07773190633060001E167590675900000002881800888800000010100E068C8002C 00000000000.004040404040404040404040404040404040404040404040404006021203A00000000000000000000000404040404040404040404040404040  0001084000000000000000230727A269B828AD330A436B0CA223404040400840A0000000031010000000000000000000404040404040404040404040404040404040404040404040 000000014.81 000000000.004040400000000000000000    80                                                                                                                                                                                                                                                                                                                  
07773200633060002G2675906759000000028818008888000000101SEVIERVILLE              TN           5 C                00                                      NNNN00 N 00                   000000000000                                                                   76487134                                                                                                                                                                                                                                                                                                                                                                                                                                               
07773210633060025DT67590675900000002881800888800000010180088824001193208900017200075072720230000001249920823000000000283811443264XXXXXX1577       VS11    0001111   NYV1 A E303208520029973N840000000012499JKBX00    05DNHAPPY HIPPIE             022545    VD84000000012499 N  549976487134                            000000000+                F DF 10433                     000000000  Y000000000 338   0000000000000.00 0000000.00   0000000.00                             000000000000000                                                                                                                                                     01418 A000000000000 0000000000000.28     00050 02200                  
07773220633060001E167590675900000002881800888800000010100E0F8C80316 00000000000.004040404040404040404040404040404040404040404040404006011203A08000000000000000000000404040404040404040404040404040  000008401800808000800023072747DF07D4772E774456D1F941404040400840A0000000031010000000000000000000B93AEDD60080000000000000000000004040401E40404040 000000124.99 000000000.001E00000000000000000000    80                                                                                                                                                                                                                                                                                                                  
07773230633060002G2675906759000000028818008888000000101SEVIERVILLE              TN           5 D                00                                      NNNN00 N 00                   000000000000                                                                   76487134                                                                                                                                                                                                                                                                                                                                                                                                                                               
07773240633060026DT67590675900000002881800888800000010180088824001193208900017200083072720230000000470320823000000000283811443238XXXXXX7228       VS11    0001111   NYV1 A E583208524554836N840000000004703P72R00    05DNHAPPY HIPPIE             003416    VD84000000004703 N  549976487134                            000000000+                F DF 00381                     000000000  N000000000       0000000000000.00 0000000.00   0000000.00                             000000000000000                                                                                                                                                     01418 A000000000000 0000000000000.53     00800 01500                  
07773250633060001E167590675900000002881800888800000010100E0F8C802D9 00000000000.004040404040404040404040404040404040404040404040404006011203A0A000000000000000000000404040404040404040404040404040  0000084018008080008000230727D4DB5AF5ACA1731D0FDDC9B6404040400840A0000000031010000000000000000000404040404040404040404040404040404040401E40404040 000000047.03 000000000.001E00000000000000000000    80                                                                                                                                                                                                                                                                                                                  
07773260633060002G2675906759000000028818008888000000101SEVIERVILLE              TN           5 D                00                                      NNNN00 N 00                   000000000000                                                                   76487134                                                                                                                                                                                                                                                                                                                                                                                                                                               
07773270633060027DT67590675900000002881800888800000010180088824001193208900017200091072720230000002215020823000000000283811414724XXXXXX5499       VS11    0001111   NYV1 A E583208535687289N840000000022150MFFS00    05DNHAPPY HIPPIE             24913C    VS84000000022150 N  549976487134                            000000000+                C CC 12112                     000000000  N000000000 497   0000000000000.00 0000000.00   0000000.00                             000000000000000                                                                                                                                                     01418 A000000000000 0000000000003.75     01650 01000                  
07773280633060001E167590675900000002881800888800000010100E0F8C80029 00000000000.004040404040404040404040404040404040404040404040404006011203A0A000000000000000000000404040404040404040404040404040  00030840180080800080002307273D0DEA3BEFBBD4E7513F1B2A404040400840A00000000310100000000000000000008BBE20510392000000000000000000004040401E40404040 000000221.50 000000000.001E00000000000000000000    80                                                                                                                                                                                                                                                                                                                  
07773290633060002G2675906759000000028818008888000000101SEVIERVILLE              TN           5 C                00                                      NNNN00 Y 00                   000000000000                                                                   76487134                                                                                                                                                                                                                                                                                                                                                                                                                                               
07773300633060028DT67590675900000002881800888800000010180088877287283208900017200101072720230000001215020823000000000283811533248XXXXXX0154       MS02WI09          NY 2 0 AMPVXQHWJH0727  N840000000012150          05DNHAPPY HIPPIE             KKBVJL    MD84000000012150 N  549976487134                            000000000+M10101C1334C    MPV  11964                     000000000  N                0000000000000.00 0000000.00   0000000.00                             000000000000000                                                                                                                                                     01418  000000000000 0000000000001.55     01150 01500                  
07773310633060001E167590675900000002881800888800000010100E0F8C801D7 00000000000.00404040404040404040404040404040404040404040404040400110A00001220000000000000000000000FF00000000000000000000000000  000008401800800004800023072767BC8C40DA08B0AB32C771AE404040400840A0000000041010000000000000000000822383BF84D07CB500100000000000004040400240404040 000000121.50 000000000.000203000000000000000000    80                                                                                                                                                                                                                                                                                                                  
07773320633060002G2675906759000000028818008888000000101SEVIERVILLE              TN           5 V                                                        NNNN              000000000000000000000000                                                                   76487134                                                                                                                                                                                                                                                                                                                                                                                                                                               
07773330633060029DT67590675900000002881800888800000010180088824001193208900017200117072720230000000937320823000000000283811426684XXXXXX9647       VS11    0001111   NYV1 A E463208553878066N840000000009373HZPZ00    05DNHAPPY HIPPIE             09222C    VS84000000009373 N  549976487134                            000000000+                C CC 12112                     000000000  N000000000 497   0000000000000.00 0000000.00   0000000.00                             000000000000000                                                                                                                                                     01418 A000000000000 0000000000001.65     01650 01000                  
07773340633060001E167590675900000002881800888800000010100E0F8C800E3 00000000000.004040404040404040404040404040404040404040404040404006021203A0A002000000000000000000404040404040404040404040404040  00060840380000800080002307273588B19FD91E8CC7AD3FBA76404040400840A000000003101000000000000000000074B3A8FA0082000000000000000000004040401E40404040 000000093.73 000000000.001E00000000000000000000    80                                                                                                                                                                                                                                                                                                                  
07773350633060002G2675906759000000028818008888000000101SEVIERVILLE              TN           5 C                00                                      NNNN00 Y 00                   000000000000                                                                   76487134                                                                                                                                                                                                                                                                                                                                                                                                                                               
07773360633060030DT67590675900000002881800888800000010180088824001193208900017200125072720230000000416620823000000000283811415978XXXXXX6755       VS11    0001111   NYV1 A E463208559984960N8400000000041669LGK00    05DNHAPPY HIPPIE             084947    VD84000000004166 N  549976487134                            000000000+                F DF 10433                     000000000  Y000000000 338   0000000000000.00 0000000.00   0000000.00                             000000000000000                                                                                                                                                     01418 A000000000000 0000000000000.24     00050 02200                  
07773370633060001E167590675900000002881800888800000010100E0F8C80214 00000000000.004040404040404040404040404040404040404040404040404006011203A0A000000000000000000000404040404040404040404040404040  0000084018008080008000230727C3B68DE4BF474BBC7F5BE73C404040400840A0000000031010000000000000000000AC6E6D1469DEC7EA30300000000000004040401E40404040 000000041.66 000000000.001E00000000000000000000    80                                                                                                                                                                                                                                                                                                                  
07773380633060002G2675906759000000028818008888000000101SEVIERVILLE              TN           5 D                00                                      NNNN00 N 00                   000000000000                                                                   76487134                                                                                                                                                                                                                                                                                                                                                                                                                                               
07773390633060031DT67590675900000002881800888800000010180088877287283208900017200135072720230000000466220823000000000283811511058XXXXXX0113       MS02WI09          NY 1 0 AMDSW28T5T0727  N840000000004662          05DNHAPPY HIPPIE             000354    MD84000000004662 N  549976487134                            000000000+M10101C5434C    MDS  00402                     000000000  N                0000000000000.00 0000000.00   0000000.00                             000000000000000                                                                                                                                                   B101418  000000000000 0000000000000.64     01050 01500                  
07773400633060001E167590675900000002881800888800000010100E0F8C803F6 00000000000.00404040404040404040404040404040404040404040404040400110A00001220000000000000000000000FF00000000000000000000000000  0000084018008000008000230727D1B81B9C97EF1C913876FBA4404040400840A00000000410100000000000000000003E303A7EF38EC1D803120000000000004040401E40404040 000000046.62 000000000.001E03000000000000000000    80                                                                                                                                                                                                                                                                                                                  
07773410633060002G2675906759000000028818008888000000101SEVIERVILLE              TN           5 S                                                        NNNN              000000000000000000000000                                                                   76487134                                                                                                                                                                                                                                                                                                                                                                                                                                               
07773420633060032DT67590675900000002881800888800000010180088877287283208900017200143072720230000000493820823000000000283811531815XXXXXX9356       MS02WI09          NY 1 0 AMPLDNJE5U0727  N840000000004938          05DNHAPPY HIPPIE             027807    MC84000000004938 N  549976487134                            000000000+M10101C5434C    MPL  00043                     000000000  N                0000000000000.00 0000000.00   0000000.00                             000000000000000                                                                                                                                                   B101418  000000000000 0000000000000.85     01650 00400                  
07773430633060001E167590675900000002881800888800000010100E0F8C8007C 00000000000.00404040404040404040404040404040404040404040404040400110A00001220000000000000000000000FF00000000000000000000000000  0001084018008000008000230727A1B4FCFB92B236EE481576A0404040400840A0000000041010000000000000000000165D99AE5863153D00120000000000004040401E40404040 000000049.38 000000000.001E03000000000000000000    80                                                                                                                                                                                                                                                                                                                  
07773440633060002G2675906759000000028818008888000000101SEVIERVILLE              TN           5 L                                                        NNNN              000000000000000000000000                        7                                          76487134                                                                                                                                                                                                                                                                                                                                                                                                                                               
07773450633060033DT67590675900000002881800888800000010180088877287283208900017200150072720230000000312520823000000000283811511953XXXXXX5373       MS02WI09          NY 1 0 AMDJXWHT5T0727  N840000000003125          07DNHAPPY HIPPIE             046147    MD84000000003125 N  549976487134                            000000000+M10101M0034C    MDJ  00402                     000000000  N                0000000000000.00 0000000.00   0000000.00                             000000000000000                                                                                                                                                   B101418  000000000000 0000000000000.48     01050 01500                  
07773460633060001E1675906759000000028818008888000000101000008480076 00000000000.00404040404040404040404040404040404040404040404040400110A04001220000000000000000000000FF00000000000000000000000000  0000084019800000008001230727D7A97078DA5EE9D637967B6E404040400840A0000000041010000000000000000000404040404040404040404040404040404040401F40404040 000000031.25 000000000.001F03020000000000000000    80                                                                                                                                                                                                                                                                                                                  
07773470633060002G2675906759000000028818008888000000101SEVIERVILLE              TN           5 J                                                        NNNN              000000000000000000000000       03               7                                          76487134                                                                                                                                                                                                                                                                                                                                                                                                                                               
07773480633060034DT67590675900000002881800888800000010180088824001193208900017200166072720230000000115820823000000000283811443208XXXXXX5258       VK04VS111111111   NYV1 A E303208587849403N840000000001158PMFX00    07DNHAPPY HIPPIE             021944    VD84000000001158 N  549976487134                            000000000+                F DF 00451                     000000000  N000000000 214   0000000000000.00 0000000.00   0000000.00                             000000000000000                                                                                                                                                     01418 F000000000000 0000000000000.22     01550 00400                  
07773490633060001E167590675900000002881800888800000010100E068C80081 00000000000.00404040404040404040404040404040404040404040404040401F42FF31A00000000010030273000000004000000000000000000000000000  000008400060000000000023072762C03B55ECE3E343357613FE404040400840A0000000031010000000000000000000EDC429B80086000000000000000000004040404040404040 000000011.58 000000000.004040400000000000000000    80                                                                                                                                                                                                                                                                                                                  
07773500633060002G2675906759000000028818008888000000101SEVIERVILLE              TN           5 D                00                                      NNNN00 N 00                   000000000000                                                                   76487134                                                                                                                                                                                                                                                                                                                                                                                                                                               
07773510633060035DT67590675900000002881800888800000010180088877287283208900017200176072720230000000495720823000000000283811518941XXXXXX4856       MS02WI09          NY 1 0 AMWEHFIZ1C0727  N840000000004957          05DNHAPPY HIPPIE             90861Z    MC84000000004957 N  549976487134                            000000000+M10101C5434C    MWE  00743                     000000000  N                0000000000000.00 0000000.00   0000000.00                             000000000000000                                                                                                                                                   B101418  000000000000 0000000000001.18     02300 00400                  
07773520633060001E167590675900000002881800888800000010100E0F8C80058 00000000000.00404040404040404040404040404040404040404040404040400110A04001220000000000000000000000FF00000000000000000000000000  0001084039000000008000230727F40445DE30087FEE4FDFC456404040400840A000000004101000000000000000000087B58E02E4D9ED6100120000000000004040401E40404040 000000049.57 000000000.001E03000000000000000000    80                                                                                                                                                                                                                                                                                                                  
07773530633060002G2675906759000000028818008888000000101SEVIERVILLE              TN           5 E                                                        NNNN              000000000000000000000000                        7                                          76487134                                                                                                                                                                                                                                                                                                                                                                                                                                               
07773540633060036DT67590675900000002881800888800000010180088824001193208900017200182072720230000000289320823000000000283811445100XXXXXX5955       VS11    0001111   NYV1 A E463208601063260N8400000000028932FK700    05DNHAPPY HIPPIE             057608    VD84000000002893 N  549976487134                            000000000+                F DF 10433                     000000000  Y000000000 338   0000000000000.00 0000000.00   0000000.00                             000000000000000                                                                                                                                                     01418 A000000000000 0000000000000.23     00050 02200                  
07773550633060001E167590675900000002881800888800000010100E0F8C8010B 00000000000.004040404040404040404040404040404040404040404040404006011203A0A000000000000000000000404040404040404040404040404040  000208401800808000800023072722B398AE8B301F1BD340FFEB404040400840A0000000031010000000000000000000CB23F05F0082000000000000000000004040401E40404040 000000028.93 000000000.001E00000000000000000000    80                                                                                                                                                                                                                                                                                                                  
07773560633060002G2675906759000000028818008888000000101SEVIERVILLE              TN           5 D                00                                      NNNN00 N 00                   000000000000                                                                   76487134                                                                                                                                                                                                                                                                                                                                                                                                                                               
07773570633060037DT67590675900000002881800888800000010180088824001193208900017200190072720230000000687320823000000000283811415978XXXXXX6979       VS11    0001111   NYV1 A E463208617017230N8400000000068733QZZ00    05DNHAPPY HIPPIE             083952    VD84000000006873 N  549976487134                            000000000+                F DF 10433                     000000000  Y000000000 338   0000000000000.00 0000000.00   0000000.00                             000000000000000                                                                                                                                                     01418 A000000000000 0000000000000.25     00050 02200                  
07773580633060001E167590675900000002881800888800000010100E0F8C80462 00000000000.004040404040404040404040404040404040404040404040404006011203A0A000000000000000000000404040404040404040404040404040  000008401800808000800023072783BC740323DE6C5C02C4DDC9404040400840A0000000031010000000000000000000B3C723D3B51941E330300000000000004040401E40404040 000000068.73 000000000.001E00000000000000000000    80                                                                                                                                                                                                                                                                                                                  
07773590633060002G2675906759000000028818008888000000101SEVIERVILLE              TN           5 D                00                                      NNNN00 N 00                   000000000000                                                                   76487134                                                                                                                                                                                                                                                                                                                                                                                                                                               
07773600633060038DT67590675900000002881800888800000010180088824001193208900017200208072720230000000068920823000000000283811460227XXXXXX4270       VK04VS111111111   NYV1 A E383208623276382N840000000000689MVXV00    05DNHAPPY HIPPIE             333431    VS84000000000689 N  549976487134                            000000000+                A CA 12053                     000000000  N000000000 450   0000000000000.00 0000000.00   0000000.00                             000000000000000                                                                                                                                                     01418 F000000000000 0000000000000.13     01900 00000                  
07773610633060001E167590675900000002881800888800000010100E0F8C80021 00000000000.004040404040404040404040404040404040404040404040404006011203A0A000000000000000000000404040404040404040404040404040  000008401800808000800023072780091A82D02F6F8E5B5827D9404040400840A0000000031010000000000000000000404040404040404040404040404040404040401E40404040 000000006.89 000000000.001E00000000000000000000    80                                                                                                                                                                                                                                                                                                                  
07773620633060002G2675906759000000028818008888000000101SEVIERVILLE              TN           5 C                00                                      NNNN00 N 00                   000000000000                                                                   76487134                                                                                                                                                                                                                                                                                                                                                                                                                                               
07773630633060039DT67590675900000002881800888800000010180088824001193208900017200216072720230000001097420823000000000283811429413XXXXXX8988       VS11    0001111   NYV1 A E303208631437850N84000000001097448Q800    05DNHAPPY HIPPIE             412262    VD84000000010974 N  549976487134                            000000000+                F DF 00381                     000000000  N000000000       0000000000000.00 0000000.00   0000000.00                             000000000000000                                                                                                                                                     01418 A000000000000 0000000000001.03     00800 01500                  
07773640633060001E167590675900000002881800888800000010100E0F8C8021D 00000000000.004040404040404040404040404040404040404040404040404006011203A08000000000000000000000404040404040404040404040404040  000008401800808000800023072719FB09790B7AEB200935371B404040400840A0000000031010000000000000000000404040404040404040404040404040404040401E40404040 000000109.74 000000000.001E00000000000000000000    80                                                                                                                                                                                                                                                                                                                  
07773650633060002G2675906759000000028818008888000000101SEVIERVILLE              TN           5 D                00                                      NNNN00 N 00                   000000000000                                                                   76487134                                                                                                                                                                                                                                                                                                                                                                                                                                               
07773660633060040DT67590675900000002881800888800000010180088824001193208900017200224072720230000000578520823000000000283811443264XXXXXX8921       VS11    0001111   NYV1 A E383208634389493N84000000000578566J500    07DNHAPPY HIPPIE             013300    VD84000000005785 N  549976487134                            000000000+                F DF 10433                     000000000  Y000000000 338   0000000000000.00 0000000.00   0000000.00                             000000000000000                                                                                                                                                     01418 A000000000000 0000000000000.25     00050 02200                  
07773670633060001E167590675900000002881800888800000010100E068C803E8 00000000000.004040404040404040404040404040404040404040404040404006011203A00000000000000000000000404040404040404040404040404040  0000084020000000000000230727B429D507287DFBA2F49B1546404040400840A0000000031010000000000000000000404040404040404040404040404040404040404040404040 000000057.85 000000000.004040400000000000000000    80                                                                                                                                                                                                                                                                                                                  
07773680633060002G2675906759000000028818008888000000101SEVIERVILLE              TN           5 D                00                                      NNNN00 N 00                   000000000000                                                                   76487134                                                                                                                                                                                                                                                                                                                                                                                                                                               
07773690633060041DT67590675900000002881800888800000010180088824001193208900017200232072720230000000021820823000000000283811443264XXXXXX8921       VK04VS111111111   NYV1 A E383208639516428N840000000000218NBRF00    05DNHAPPY HIPPIE             032514    VD84000000000218 N  549976487134                            000000000+                F DF 10439                     000000000  Y000000000 331   0000000000000.00 0000000.00   0000000.00                             000000000000000                                                                                                                                                     01418 F000000000000 0000000000000.22     00050 02200                  
07773700633060001E167590675900000002881800888800000010100E0F8C803E9 00000000000.004040404040404040404040404040404040404040404040404006011203A00000000000000000000000404040404040404040404040404040  0000084018008080008000230727A720329CBBB3EE4E82B213A7404040400840A0000000031010000000000000000000266A91CA0080000000000000000000004040401E40404040 000000002.18 000000000.001E00000000000000000000    80                                                                                                                                                                                                                                                                                                                  
07773710633060002G2675906759000000028818008888000000101SEVIERVILLE              TN           5 D                00                                      NNNN00 N 00                   000000000000                                                                   76487134                                                                                                                                                                                                                                                                                                                                                                                                                                               
07773720633060042DT67590675900000002881800888800000010180088824001193208900017200240072720230000000694520823000000000283811449052XXXXXX7044       VS11    0001111   NYV1 A E463208673291808N840000000006945MDC200    05DNHAPPY HIPPIE             034210    VD84000000006945 N  549976487134                            000000000+                F DF 00381                     000000000  N000000000       0000000000000.00 0000000.00   0000000.00                             000000000000000                                                                                                                                                     01418 A000000000000 0000000000000.71     00800 01500                  
07773730633060001E167590675900000002881800888800000010100E0F8C80113 00000000000.004040404040404040404040404040404040404040404040404006011203A0A000000000000000000000404040404040404040404040404040  0000084018008080008000230727786B80039DDB106E79C21575404040400840A0000000031010000000000000000000938C19520080000000000000000000004040401E40404040 000000069.45 000000000.001E00000000000000000000    80                                                                                                                                                                                                                                                                                                                  
07773740633060002G2675906759000000028818008888000000101SEVIERVILLE              TN           5 D                00                                      NNNN00 N 00                   000000000000                                                                   76487134                                                                                                                                                                                                                                                                                                                                                                                                                                               
