09260830497750002BH6759067590000002092580011280000090170721202320223000000000175500    0000090001580130Y8001126759C07242023058                                                                                                                                                                                                                                                                                                                                                                                                                                                                                                                                                                                              
09260840497750003DT67590675900000020925800112800000010180011287287283202900015801301072120230000017550020223000000000175500558212XXXXXX8626                         NY 4607AMDBPMEX2P0721  N840000000175500          81DNJ K DISTRIBUTION INC     044117    MD84000000175500 NDR549977712156   8551922650               000000000+600450S00130    MDB  00062                     000000000  N                0000000000000.00 0000000.00   0000000.00                             000000000000000                                                                                                                                                   U001424  000000000000 0000000000046.61     02650 01000                  
09260850497750003DR6759067590000002092580011280000001018551922650               Y000000000000                 P1                                                                                                                                                                                                                                                                                                                                                                                                                                                                                                                                                                                                            
09260860497750001P1675906759000000209258001128000000101                                                          000000000000          1000            850871923                                                                                                                                                                                                                                                                                                                                                                                                                                                                                                                                                            
09260870497750002G2675906759000000209258001128000000101860-8957639              CT           9 B               210                  850871923           YNNN           210000000000000000000000000                        7                                          77712156                                                                                                                                                                                                                                                                                                                                                                                                                                               
09260880497750004BH6759067590000003469480014280000090170721202320223000000000241204    0000090001160036Y8001426759C07242023016                                                                                                                                                                                                                                                                                                                                                                                                                                                                                                                                                                                              
09260890497750005DT67590675900000034694800142800000010180014224001193202900011600367072120230000024120420223000000000241204444395XXXXXX9616               2111111   NYV4 A7W583202722283134N840000000241204Z7GH00    01DNHORIZON WHOLESALE LLC    00730G    VB84000000241204 NDR549978512084   8551991554               000000000+                G5CG511887                     000000000  N000000000 163   0000000000000.00 0000000.00   0000000.00                             000000000000000                                                                                                                                                     01424 G000000241204 0000000000072.46     03000 01000                  
09260900497750005DR6759067590000003469480014280000001018551991554               Y000000241204                 P1                                                                                                                                                                                                                                                                                                                                                                                                                                                                                                                                                                                                            
09260910497750001P16759067590000003469480014280000001010000000000000000                             2000000000000000000000000              000000000000                    0000000000000000000000000                    000000000000                                                                                                                                                                                                                                                                                                                                                                                                                                                                                        
09260920497750002G2675906759000000346948001428000000101800-9611703              UT           9 C                00                                      NNNN   Y                      000000000000                                                                   78512084                                                                                                                                                                                                                                                                                                                                                                                                                                               
09260930497750006BH675906759000000151648008888000009017072120232022300000000001987001970000090001439117N8008886759D07242023143                                                                                                                                                                                                                                                                                                                                                                                                                                                                                                                                                                                              
09260940497750007DT67590675900000015164800888800000010680088874001193202900014391175072120230000001987020223000000000019870443044XXXXXX8237               0000000   NNV4 07T383202485713656N840000000019870R52R00    01CNKETOFUSION833-923-3587   0219290197VD84000000019870 NDR599977360677   9DE8F7F441T6FB3B0562498  000000000+                F DF 00000                     000000000  Y000000000 369   0000000000000.00 0000000.00   0000000.00             000000000019870C000000000000000                                                                                                                                                     01424  000000019870 0000000000000.00     00000 00000                  
09260950497750007DR6759067590000001516480088880000001069DE8F7F441T6FB3B0562498  U000000019870                 P1                                                                                                                                                                                                                                                                                                                                                                                                                                                                                                                                                                                                            
09260960497750001P16759067590000001516480088880000001060000000000000000                             2000000000000000000000000              000000000000                    0000000000000000000000000                    000000000000                                                                                                                                                                                                                                                                                                                                                                                                                                                                                        
09260970497750002G2675906759000000151648008888000000106801-4041097              UT           9 D                00                                      NNNN   N                      000000000000                                                                   77360677                                                                                                                                                                                                                                                                                                                                                                                                                                               
09260980497750008BH675906759000000198288001098000009017072120232022300000000002487001970000090001110813N8001096759D07242023111                                                                                                                                                                                                                                                                                                                                                                                                                                                                                                                                                                                              
09260990497750009DT67590675900000019828800109800000010680010987287283202900011108131072120230000002487020223000000000024870550883XXXXXX3633                         NN94607N         0721  N840000000000000          81CNKETOFUSION 8885968154          0197MD84000000024870 N  599977547467   DADCB6DE1FT8F4FC4FF557F  000000000+600450S00130    MDS  00000                     000000000  N                0000000000000.00 0000000.00   0000000.00             000000000024870C000000000000000                                                                                                                                                     01424  000000000000 0000000000000.00     00000 00000                  
09261000497750001G2675906759000000198288001098000000106888-5968154              UT           9 S               210                                      NNNN           210000000000000000000000000                        7                                          77547467                                                                                                                                                                                                                                                                                                                                                                                                                                               
09261010497750010BH6759067590000004108780015180000090170721202320223000000000000000    0000090001010002Y8001516759C07242023001                                                                                                                                                                                                                                                                                                                                                                                                                                                                                                                                                                                              
09261020497750011DT67590675900000041087800151800000010180015187287283202900010100014072120230000000569420223000000000000000526947XXXXXX7143       ME03KE06PT01      NY 4607AMCWJ357EF0721  N840000000005694          81DNROCKSTAR ROLL ON         00591Z    MC84000000005694 NDR599978763402   105                      000000000+600450S00130    MCW  00642                     000000000  N                0000000000000.00 0000000.00   0000000.00                             000000000000000                                                                                                                                                   U001424  000000000000 0000000000001.35     02200 01000                  
09261030497750011DR675906759000000410878001518000000101105                      Y000000000000                                                                                                                                                                                                                                                                                                                                                                                                                                                                                                                                                                                                                               
09261040497750001G2675906759000000410878001518000000101619-2325999              FL           9 W               210                                      NNNN           210000000000000000000000000                        7                                          78763402                                                                                                                                                                                                                                                                                                                                                                                                                                               
09261050497750012DT67590675900000041087800151800000010680015187287283202900010100022072120230000000569420223000000000000000526947XXXXXX7143                         NY 4607AMCWQSB0EE0721  N840000000005694          81CNROCKSTAR ROLL ON         070069    MC84000000005694 NDR599978763402   105                      000000000+600450S00130    MCW  00564                     000000000  N                0000000000000.00 0000000.00   0000000.00                             000000000000000                                                                                                                                                     01424  000000000000-0000000000001.00     01750 00000                  
09261060497750012DR675906759000000410878001518000000106105                      Y000000000000                                                                                                                                                                                                                                                                                                                                                                                                                                                                                                                                                                                                                               
09261070497750001G2675906759000000410878001518000000106619-2325999              FL           9 W               210                                      NNNN           210000000000000000000000000                        7                                          78763402                                                                                                                                                                                                                                                                                                                                                                                                                                               
09261080497750013BH6759067590000001857280010580000090170721202320223000000000015740    0000090001340003Y8001056759C07242023134                                                                                                                                                                                                                                                                                                                                                                                                                                                                                                                                                                                              
09261090497750014DT67590675900000018572800105800000010180010524001193202900013400022072120230000001094920223000000000015740473310XXXXXX9825       VS11    0001111   NYV1 A E303202605590978N8400000000109497VJT00    05DNGALLERY SMOKE SHOP LLC   834265    VD84000000010949 N  599977453598                            000000000+                F DF 10433                     000000000  Y000000000 338   0000000000000.00 0000000.00   0000000.00                             000000000000000                                                                                                                                                     01424 A000000000000 0000000000000.27     00050 02200                  
09261100497750001E167590675900000018572800105800000010100E0F8C8026C 00000000000.004040404040404040404040404040404040404040404040404006011203A08000000000000000000000404040404040404040404040404040  0000084018008000008000230721701AE9DD6553FEA9832345E8404040400840A0000000031010000000000000000000F604304E0382000000000000000000004040405E40404040 000000109.49 000000000.005E00000000000000000000    80                                                                                                                                                                                                                                                                                                                  
09261110497750002G2675906759000000185728001058000000101SEMINOLE                 FL           5 D                00                                      NNNN00 N 00                   000000000000                                                                   77453598                                                                                                                                                                                                                                                                                                                                                                                                                                               
09261120497750015DT67590675900000018572800105800000010180010524001193202900013400048072120230000000179920223000000000015740460819XXXXXX6129       VS11    0001111   NYV1 A E383202789083894N840000000001799VQVB00    05DNGALLERY SMOKE SHOP LLC   650852    VS84000000001799 N  599977453598                            000000000+                B CB 12111                     000000000  N000000000 495   0000000000000.00 0000000.00   0000000.00                             000000000000000                                                                                                                                                     01424 A000000000000 0000000000000.40     01650 01000                  
09261130497750001E167590675900000018572800105800000010100E0F8C80073 00000000000.004040404040404040404040404040404040404040404040404006011203A02000000000000000000000404040404040404040404040404040  001408401800800000800023072141C2E1F8527D8386D9C3DBE3404040400840A0000000031010000000000000000000A237A1080392000000000000000000004040405E40404040 000000017.99 000000000.005E00000000000000000000    80                                                                                                                                                                                                                                                                                                                  
09261140497750002G2675906759000000185728001058000000101SEMINOLE                 FL           5 C                00                                      NNNN00 N 00                   000000000000                                                                   77453598                                                                                                                                                                                                                                                                                                                                                                                                                                               
09261150497750016DT67590675900000018572800105800000033080010576759003202900013400019072120230000000218920223000000000015740428190XXXXXX7368                         NY 2 0 N               N840000000002189      IL  90DNGALLERY SMOKE SHOP LLC   624585    DB84000000002189 N  599977453598                            000000000+                     09576                                N          346   0000000000000.00 0000000.00   0000000.00                             000000000000000                                                                                                                                                     01424  000000000000 0000000000000.40     01150 00000                  
09261160497750001G2675906759000000185728001058000000330SEMINOLE                 FL           5 P                00                                      NNNN                          000000000000                                                                   77453598                                                                                                                                                                                                                                                                                                                                                                                                                                               
09261170497750017DT67590675900000018572800105800000033080010576759003202900013400035072120230000000080320223000000000015740440393XXXXXX4186                         NY 2 0 N               N840000000000803      IL  07DNGALLERY SMOKE SHOP LLC   734355    DB84000000000803 N  599977453598                            000000000+                     09576                                N          346   0000000000000.00 0000000.00   0000000.00                             000000000000000                                                                                                                                                     01424  000000000000 0000000000000.24     01150 00000                  
09261180497750001G2675906759000000185728001058000000330SEMINOLE                 FL           5 P                00                                      NNNN                          000000000000                                                                   77453598                                                                                                                                                                                                                                                                                                                                                                                                                                               
09261190497750018BH6759067590000003433080014180000090170721202320223000000000139057    0000090001190046Y8001416759C07242023019                                                                                                                                                                                                                                                                                                                                                                                                                                                                                                                                                                                              
09261200497750019DT67590675900000034330800141800000010180014177287283202900011900017072120230000000406420223000000000139057515327XXXXXX7909       MS02WI09          NY 1 0 AMDJN3ZEEE0721  N840000000004064          05DNJBLISS LLC               725059    MD84000000004064 N  599978503056                            000000000+M10101C5434C    MDJ  00402                     000000000  N                0000000000000.00 0000000.00   0000000.00                             000000000000000                                                                                                                                                   B101424  000000000000 0000000000000.58     01050 01500                  
09261210497750001E167590675900000034330800141800000010100E0F8C80120 00000000000.00404040404040404040404040404040404040404040404040400114A00001220000000000000000000000FF00000000000000000000000000  0000084018008000088000230721671AA1CD02473A4280310175404040400840A0000000041010000000000000000000E9FF59743BB94A1F031A0000000000004040401E40404040 000000040.64 000000000.001E03000000000000000000    80                                                                                                                                                                                                                                                                                                                  
09261220497750002G2675906759000000343308001418000000101GREENWOOD                SC           5 J                                                        NNNN              000000000000000000000000                                                                   78503056                                                                                                                                                                                                                                                                                                                                                                                                                                               
09261230497750020DT67590675900000034330800141800000010180014124001193202900011900023072120230000000267420223000000000139057447734XXXXXX7815       VS11    0001111   NYV1 A E583202545625773N840000000002674C62300    05DNJBLISS LLC               104900    VD84000000002674 N  599978503056                            000000000+                F DF 00381                     000000000  N000000000       0000000000000.00 0000000.00   0000000.00                             000000000000000                                                                                                                                                     01424 A000000000000 0000000000000.36     00800 01500                  
09261240497750001E167590675900000034330800141800000010100E0F8C80206 00000000000.004040404040404040404040404040404040404040404040404006011203A0A000000000000000000000404040404040404040404040404040  000108401800808000800023072180C0C9B3667CD0DC15E1F433404040400840A0000000031010000000000000000000B7A0A2B90382000000000000000000004040401E40404040 000000026.74 000000000.001E00000000000000000000    80                                                                                                                                                                                                                                                                                                                  
09261250497750002G2675906759000000343308001418000000101GREENWOOD                SC           5 D                00                                      NNNN00 N 00                   000000000000                                                                   78503056                                                                                                                                                                                                                                                                                                                                                                                                                                               
09261260497750021DT67590675900000034330800141800000010180014124001193202900011900031072120230000000385120223000000000139057448261XXXXXX9949       VS11    0001111   NYV1 A E303202553080802N840000000003851GVN900    05DNJBLISS LLC               332217    VD84000000003851 N  599978503056                            000000000+                F DF 10433                     000000000  Y000000000 338   0000000000000.00 0000000.00   0000000.00                             000000000000000                                                                                                                                                     01424 A000000000000 0000000000000.24     00050 02200                  
09261270497750001E167590675900000034330800141800000010100E0F8C80143 00000000000.004040404040404040404040404040404040404040404040404006011203A0A000000000000000000000404040404040404040404040404040  0000084018008080008000230721054BB6D50FBED6BEA5F1E281404040400840A0000000031010000000000000000000C4646F8C0382000000000000000000004040401E40404040 000000038.51 000000000.001E00000000000000000000    80                                                                                                                                                                                                                                                                                                                  
09261280497750002G2675906759000000343308001418000000101GREENWOOD                SC           5 D                00                                      NNNN00 N 00                   000000000000                                                                   78503056                                                                                                                                                                                                                                                                                                                                                                                                                                               
09261290497750022DT67590675900000034330800141800000010180014124001193202900011900049072120230000000203220223000000000139057449594XXXXXX2289       VS11    0001111   NYV1 A E303202580026110N840000000002032FNXK00    07DNJBLISS LLC               001181    VD84000000002032 N  599978503056                            000000000+                F DF 00381                     000000000  N000000000       0000000000000.00 0000000.00   0000000.00                             000000000000000                                                                                                                                                     01424 A000000000000 0000000000000.31     00800 01500                  
09261300497750001E167590675900000034330800141800000010100E068C80050 00000000000.004040404040404040404040404040404040404040404040404006011203A00000000000000000000000404040404040404040404040404040  0000084020000000000000230721E0887A1736904377CB8D72EC404040400840A00000000310100000000000000000004C14B2160382000000000000000000004040404040404040 000000020.32 000000000.004040400000000000000000    80                                                                                                                                                                                                                                                                                                                  
09261310497750002G2675906759000000343308001418000000101GREENWOOD                SC           5 D                00                                      NNNN00 N 00                   000000000000                                                                   78503056                                                                                                                                                                                                                                                                                                                                                                                                                                               
09261320497750023DT67590675900000034330800141800000010180014124001193202900011900056072120230000000470620223000000000139057473703XXXXXX2059       VS11    0001111   NYV1 A E583202586171291N8400000000047063F6Z00    05DNJBLISS LLC               005522    VD84000000004706 N  599978503056                            000000000+                F DF 10433                     000000000  Y000000000 338   0000000000000.00 0000000.00   0000000.00                             000000000000000                                                                                                                                                     01424 A000000000000 0000000000000.24     00050 02200                  
09261330497750001E167590675900000034330800141800000010100E0F8C800B0 00000000000.004040404040404040404040404040404040404040404040404006061203A0A000000000000000000000404040404040404040404040404040  0000084018008080008000230721457B051FBB45DD19580E7D3F404040400840A0000000031010000000000000000000E050809020E0602020200000000000004040401E40404040 000000047.06 000000000.001E00000000000000000000    80                                                                                                                                                                                                                                                                                                                  
09261340497750002G2675906759000000343308001418000000101GREENWOOD                SC           5 D                00                                      NNNN00 N 00                   000000000000                                                                   78503056                                                                                                                                                                                                                                                                                                                                                                                                                                               
09261350497750024DT67590675900000034330800141800000010180014124001193202900011900064072120230000000267420223000000000139057449594XXXXXX0687       VS11    0001111   NYV1 A E383202594107973N8400000000026748RTQ00    07DNJBLISS LLC               833241    VD84000000002674 N  599978503056                            000000000+                F DF 00381                     000000000  N000000000       0000000000000.00 0000000.00   0000000.00                             000000000000000                                                                                                                                                     01424 A000000000000 0000000000000.36     00800 01500                  
09261360497750001E167590675900000034330800141800000010100E068C800B3 00000000000.004040404040404040404040404040404040404040404040404006011203A00000000000000000000000404040404040404040404040404040  0000084020000000000000230721ABAC11A744893D99F8EE62A0404040400840A000000003101000000000000000000024D35CE30382000000000000000000004040404040404040 000000026.74 000000000.004040400000000000000000    80                                                                                                                                                                                                                                                                                                                  
09261370497750002G2675906759000000343308001418000000101GREENWOOD                SC           5 D                00                                      NNNN00 N 00                   000000000000                                                                   78503056                                                                                                                                                                                                                                                                                                                                                                                                                                               
09261380497750025DT67590675900000034330800141800000010180014124001193202900011900072072120230000000406420223000000000139057473703XXXXXX6058       VS11    0001111   NYV1 A E383202601186753N840000000004064KX4Q00    07DNJBLISS LLC               077120    VD84000000004064 N  599978503056                            000000000+                F DF 10433                     000000000  Y000000000 338   0000000000000.00 0000000.00   0000000.00                             000000000000000                                                                                                                                                     01424 A000000000000 0000000000000.24     00050 02200                  
09261390497750001E167590675900000034330800141800000010100E068C80037 00000000000.004040404040404040404040404040404040404040404040404006061203A00000000000000000000000404040404040404040404040404040  0000084000000000000000230721E0A81BBE91C75C0A9D8E5396404040400840A0000000031010000000000000000000402020708030105020200000000000004040404040404040 000000040.64 000000000.004040400000000000000000    80                                                                                                                                                                                                                                                                                                                  
09261400497750002G2675906759000000343308001418000000101GREENWOOD                SC           5 D                00                                      NNNN00 N 00                   000000000000                                                                   78503056                                                                                                                                                                                                                                                                                                                                                                                                                                               
09261410497750026DT67590675900000034330800141800000010180014124001193202900011900080072120230000000106820223000000000139057440393XXXXXX6234       VK04VS111111111   NYV1 A E383202601611291N840000000001068ZGQ700    07DNJBLISS LLC               821622    VD84000000001068 N  599978503056                            000000000+                F PF 08165                     000000000  N000000000       0000000000000.00 0000000.00   0000000.00                             000000000000000                                                                                                                                                     01424 F000000000000 0000000000000.22     01600 00500                  
09261420497750001E167590675900000034330800141800000010100E068C80036 00000000000.004040404040404040404040404040404040404040404040404006011203A00000000000000000000000404040404040404040404040404040  0000084020000000000000230721A868985303380A11BE7FE019404040400840A00000000310100000000000000000002A1C3D92771473D430300000000000004040404040404040 000000010.68 000000000.004040400000000000000000    80                                                                                                                                                                                                                                                                                                                  
09261430497750002G2675906759000000343308001418000000101GREENWOOD                SC           5 P                00                                      NNNN00 N 00                   000000000000                                                                   78503056                                                                                                                                                                                                                                                                                                                                                                                                                                               
09261440497750027DT67590675900000034330800141800000010180014124001193202900011900098072120230000000427820223000000000139057447734XXXXXX0372       VS11    0001111   NYV1 A E303202610334532N840000000004278ZNXH00    05DNJBLISS LLC               118911    VD84000000004278 N  599978503056                            000000000+                F DF 00381                     000000000  N000000000       0000000000000.00 0000000.00   0000000.00                             000000000000000                                                                                                                                                     01424 A000000000000 0000000000000.49     00800 01500                  
09261450497750001E167590675900000034330800141800000010100E0F8C80160 00000000000.004040404040404040404040404040404040404040404040404006011203A0A000000000000000000000404040404040404040404040404040  00010840180080800080002307214B60D05F8397E5B2519A3E45404040400840A0000000031010000000000000000000303CE8450382000000000000000000004040401E40404040 000000042.78 000000000.001E00000000000000000000    80                                                                                                                                                                                                                                                                                                                  
09261460497750002G2675906759000000343308001418000000101GREENWOOD                SC           5 D                00                                      NNNN00 N 00                   000000000000                                                                   78503056                                                                                                                                                                                                                                                                                                                                                                                                                                               
09261470497750028DT67590675900000034330800141800000010180014124001193202900011900106072120230000001048320223000000000139057448261XXXXXX9109       VS11    0001111   NYV1 A E303202617363093N8400000000104834S6D00    05DNJBLISS LLC               166220    VD84000000010483 N  599978503056                            000000000+                F DF 10433                     000000000  Y000000000 338   0000000000000.00 0000000.00   0000000.00                             000000000000000                                                                                                                                                     01424 A000000000000 0000000000000.27     00050 02200                  
09261480497750001E167590675900000034330800141800000010100E0F8C80035 00000000000.004040404040404040404040404040404040404040404040404006011203A0A000000000000000000000404040404040404040404040404040  000108401800808000800023072197BEA3E2344ED9C7572936D1404040400840A00000000310100000000000000000005E0E38EA0382000000000000000000004040401E40404040 000000104.83 000000000.001E00000000000000000000    80                                                                                                                                                                                                                                                                                                                  
09261490497750002G2675906759000000343308001418000000101GREENWOOD                SC           5 D                00                                      NNNN00 N 00                   000000000000                                                                   78503056                                                                                                                                                                                                                                                                                                                                                                                                                                               
09261500497750029DT67590675900000034330800141800000010180014124001193202900011900114072120230000000267420223000000000139057408138XXXXXX8938       VS11    0001111   NYV1 A E583202627563102N8400000000026742XHN00    07DNJBLISS LLC               519260    VD84000000002674 N  599978503056                            000000000+                F PF 08170                     000000000  N000000000       0000000000000.00 0000000.00   0000000.00                             000000000000000                                                                                                                                                     01424 A000000000000 0000000000000.46     01150 01500                  
09261510497750001E167590675900000034330800141800000010100E068C80004 00000000000.00404040404040404040404040404040404040404040404040401F42FF32A00000000010030273000000004000000000000000000000000000  0000084000400000000000230721674EFEC4FE14F39251ACE470404040400840A0000000031010000000000000000000BFF828300086000000000000000000004040404040404040 000000026.74 000000000.004040400000000000000000    80                                                                                                                                                                                                                                                                                                                  
09261520497750002G2675906759000000343308001418000000101GREENWOOD                SC           5 P                00                                      NNNN00 N 00                   000000000000                                                                   78503056                                                                                                                                                                                                                                                                                                                                                                                                                                               
09261530497750030DT67590675900000034330800141800000010180014124001193202900011900122072120230000000288620223000000000139057498503XXXXXX8371       VS11    0001111   NYV1 A E583202630757440N8400000000028863CND00    05DNJBLISS LLC               017340    VD84000000002886 N  599978503056                            000000000+                F DF 00381                     000000000  N000000000       0000000000000.00 0000000.00   0000000.00                             000000000000000                                                                                                                                                     01424 A000000000000 0000000000000.38     00800 01500                  
09261540497750001E167590675900000034330800141800000010100E0F8C80266 00000000000.004040404040404040404040404040404040404040404040404006011203A0A000000000000000000000404040404040404040404040404040  000008401800808000800023072173BDF5D541D411386B884272404040400840A0000000031010000000000000000000A2EC7E560080000000000000000000004040401E40404040 000000028.86 000000000.001E00000000000000000000    80                                                                                                                                                                                                                                                                                                                  
09261550497750002G2675906759000000343308001418000000101GREENWOOD                SC           5 D                00                                      NNNN00 N 00                   000000000000                                                                   78503056                                                                                                                                                                                                                                                                                                                                                                                                                                               
09261560497750031DT67590675900000034330800141800000010180014124001193202900011900130072120230000000374420223000000000139057465124XXXXXX1383       VS11    0001111   NYV1 A E583202631642128N840000000003744Q29D00    07DNJBLISS LLC               083629    VD84000000003744 N  599978503056                            000000000+                F DF 10433                     000000000  Y000000000 338   0000000000000.00 0000000.00   0000000.00                             000000000000000                                                                                                                                                     01424 A000000000000 0000000000000.24     00050 02200                  
09261570497750001E167590675900000034330800141800000010100E068C80095 00000000000.00404040404040404040404040404040404040404040404040401F4A0432A00000000010030273000000004000000000000000000000000000  00000840004000000000002307210339131BFC95FAA463D76E4E404040400840A00000000310100000000000000000000EC0A5E2B3D6D1D330300000000000004040404040404040 000000037.44 000000000.004040400000000000000000    80                                                                                                                                                                                                                                                                                                                  
09261580497750002G2675906759000000343308001418000000101GREENWOOD                SC           5 D                00                                      NNNN00 N 00                   000000000000                                                                   78503056                                                                                                                                                                                                                                                                                                                                                                                                                                               
09261590497750032DT67590675900000034330800141800000010180014124001193202900011900148072120230000000385120223000000000139057473703XXXXXX7329       VS11    0001111   NYV1 A E583202638253192N840000000003851584900    05DNJBLISS LLC               035109    VD84000000003851 N  599978503056                            000000000+                F DF 10433                     000000000  Y000000000 338   0000000000000.00 0000000.00   0000000.00                             000000000000000                                                                                                                                                     01424 A000000000000 0000000000000.24     00050 02200                  
09261600497750001E167590675900000034330800141800000010100E0F8C80486 00000000000.004040404040404040404040404040404040404040404040404006061203A0A000000000000000000000404040404040404040404040404040  0000084018008080008000230721BC2AABF456F90FDF9D7BB2A8404040400840A0000000031010000000000000000000300080C0C0D0B04020200000000000004040401E40404040 000000038.51 000000000.001E00000000000000000000    80                                                                                                                                                                                                                                                                                                                  
09261610497750002G2675906759000000343308001418000000101GREENWOOD                SC           5 D                00                                      NNNN00 N 00                   000000000000                                                                   78503056                                                                                                                                                                                                                                                                                                                                                                                                                                               
09261620497750033DT67590675900000034330800141800000010180014124001193202900011900155072120230000000427820223000000000139057414740XXXXXX5058       VS11    0001111   NYV1 A E383202647935592N840000000004278PLPP00    05DNJBLISS LLC               08601D    VS84000000004278 N  599978503056                            000000000+                D CD 12113                     000000000  N000000000 499   0000000000000.00 0000000.00   0000000.00                             000000000000000                                                                                                                                                     01424 A000000000000 0000000000001.00     02100 01000                  
09261630497750001E167590675900000034330800141800000010100E0F8C8008A 00000000000.004040404040404040404040404040404040404040404040404006021203A0A002000000000000000000404040404040404040404040404040  000108403800008000800023072191EFBD259E16F8C2384AAD97404040400840A00000000310100000000000000000009C38EBF70082000000000000000000004040401E40404040 000000042.78 000000000.001E00000000000000000000    80                                                                                                                                                                                                                                                                                                                  
09261640497750002G2675906759000000343308001418000000101GREENWOOD                SC           5 C                00                                      NNNN00 Y 00                   000000000000                                                                   78503056                                                                                                                                                                                                                                                                                                                                                                                                                                               
09261650497750034DT67590675900000034330800141800000010180014124001193202900011900163072120230000000365720223000000000139057473703XXXXXX2897       VS11    0001111   NYV1 A E383202654202879N840000000003657T3RX00    07DNJBLISS LLC               077369    VD84000000003657 N  599978503056                            000000000+                F DF 10433                     000000000  Y000000000 338   0000000000000.00 0000000.00   0000000.00                             000000000000000                                                                                                                                                     01424 A000000000000 0000000000000.24     00050 02200                  
09261660497750001E167590675900000034330800141800000010100E068C80027 00000000000.004040404040404040404040404040404040404040404040404006061203A00000000000000000000000404040404040404040404040404040  00000840000000000000002307211D9FBE7851C397539F9241E2404040400840A00000000310100000000000000000008040A07010F090D020200000000000004040404040404040 000000036.57 000000000.004040400000000000000000    80                                                                                                                                                                                                                                                                                                                  
09261670497750002G2675906759000000343308001418000000101GREENWOOD                SC           5 D                00                                      NNNN00 N 00                   000000000000                                                                   78503056                                                                                                                                                                                                                                                                                                                                                                                                                                               
09261680497750035DT67590675900000034330800141800000010180014124001193202900011900171072120230000000037220223000000000139057473703XXXXXX2897       VK04VS111111111   NYV1 A E383202655095636N840000000000372DX2F00    07DNJBLISS LLC               055879    VD84000000000372 N  599978503056                            000000000+                F DF 10439                     000000000  Y000000000 331   0000000000000.00 0000000.00   0000000.00                             000000000000000                                                                                                                                                     01424 F000000000000 0000000000000.22     00050 02200                  
09261690497750001E167590675900000034330800141800000010100E068C80028 00000000000.004040404040404040404040404040404040404040404040404006061203A00000000000000000000000404040404040404040404040404040  00000840000000000000002307214E62570DE78B257280F2F6CA404040400840A0000000031010000000000000000000D040F0C0E0E0A0D020200000000000004040404040404040 000000003.72 000000000.004040400000000000000000    80                                                                                                                                                                                                                                                                                                                  
09261700497750002G2675906759000000343308001418000000101GREENWOOD                SC           5 D                00                                      NNNN00 N 00                   000000000000                                                                   78503056                                                                                                                                                                                                                                                                                                                                                                                                                                               
09261710497750036DT67590675900000034330800141800000010180014124001193202900011900189072120230000000128320223000000000139057449594XXXXXX4428       VK04VS111111111   NYV1 A E383202661773044N840000000001283KMXH00    07DNJBLISS LLC               001193    VD84000000001283 N  599978503056                            000000000+                F DF 00451                     000000000  N000000000 214   0000000000000.00 0000000.00   0000000.00                             000000000000000                                                                                                                                                     01424 F000000000000 0000000000000.24     01550 00400                  
09261720497750001E167590675900000034330800141800000010100E068C80016 00000000000.004040404040404040404040404040404040404040404040404006011203A00000000000000000000000404040404040404040404040404040  000008402000000000000023072182B3BE4B766FF270FFD0AC85404040400840A0000000031010000000000000000000273ECEFD0382000000000000000000004040404040404040 000000012.83 000000000.004040400000000000000000    80                                                                                                                                                                                                                                                                                                                  
09261730497750002G2675906759000000343308001418000000101GREENWOOD                SC           5 D                00                                      NNNN00 N 00                   000000000000                                                                   78503056                                                                                                                                                                                                                                                                                                                                                                                                                                               
09261740497750037DT67590675900000034330800141800000010180014124001193202900011900197072120230000000213920223000000000139057449594XXXXXX8303       VS11    0001111   NYV1 A E303202685388447N840000000002139XSKS00    05DNJBLISS LLC               023182    VD84000000002139 N  599978503056                            000000000+                F DF 00381                     000000000  N000000000       0000000000000.00 0000000.00   0000000.00                             000000000000000                                                                                                                                                     01424 A000000000000 0000000000000.32     00800 01500                  
09261750497750001E167590675900000034330800141800000010100E0F8C80029 00000000000.004040404040404040404040404040404040404040404040404006011203A08000000000000000000000404040404040404040404040404040  0000084018008080008000230721C0E051A1682304358B9678E3404040400840A000000003101000000000000000000019C7BA110382000000000000000000004040401E40404040 000000021.39 000000000.001E00000000000000000000    80                                                                                                                                                                                                                                                                                                                  
09261760497750002G2675906759000000343308001418000000101GREENWOOD                SC           5 D                00                                      NNNN00 N 00                   000000000000                                                                   78503056                                                                                                                                                                                                                                                                                                                                                                                                                                               
09261770497750038DT67590675900000034330800141800000010180014124001193202900011900205072120230000000213920223000000000139057484608XXXXXX0875       VS11    0001111   NYV1 A E383202685770756N840000000002139B4JZ00    05DNJBLISS LLC               770756    VD84000000002139 N  599978503056                            000000000+                F DF 00381                     000000000  N000000000       0000000000000.00 0000000.00   0000000.00                             000000000000000                                                                                                                                                     01424 A000000000000 0000000000000.32     00800 01500                  
09261780497750001E167590675900000034330800141800000010100E0F8C8034B 00000000000.004040404040404040404040404040404040404040404040404006011203A0A000000000000000000000404040404040404040404040404040  000008401800808000800023072109D9FE8F684AE95EDE61BA44404040400840A0000000031010000000000000000000520FB73A0382000000000000000000004040401E40404040 000000021.39 000000000.001E00000000000000000000    80                                                                                                                                                                                                                                                                                                                  
09261790497750002G2675906759000000343308001418000000101GREENWOOD                SC           5 D                00                                      NNNN00 N 00                   000000000000                                                                   78503056                                                                                                                                                                                                                                                                                                                                                                                                                                               
09261800497750039DT67590675900000034330800141800000010180014124001193202900011900213072120230000000256620223000000000139057411399XXXXXX3912       VS11    0001111   NYV1 A E583202692506605N840000000002566HJDT00    05DNJBLISS LLC               091411    VD84000000002566 N  599978503056                            000000000+                F DF 00381                     000000000  N000000000       0000000000000.00 0000000.00   0000000.00                             000000000000000                                                                                                                                                     01424 A000000000000 0000000000000.36     00800 01500                  
09261810497750001E167590675900000034330800141800000010100E0F8C8024E 00000000000.004040404040404040404040404040404040404040404040404006011203A0A000000000000000000000404040404040404040404040404040  0000084018008080008000230721334DEC7A8FFBC35F119F0DEB404040400840A000000003101000000000000000000010037DE60382000000000000000000004040401E40404040 000000025.66 000000000.001E00000000000000000000    80                                                                                                                                                                                                                                                                                                                  
09261820497750002G2675906759000000343308001418000000101GREENWOOD                SC           5 D                00                                      NNNN00 N 00                   000000000000                                                                   78503056                                                                                                                                                                                                                                                                                                                                                                                                                                               
09261830497750040DT67590675900000034330800141800000010180014124001193202900011900221072120230000000256620223000000000139057474474XXXXXX0136       VS11    0001111   NYV1 A E383202696071922N840000000002566ZGHW00    05DNJBLISS LLC               122500    VD84000000002566 N  599978503056                            000000000+                F DF 10433                     000000000  Y000000000 338   0000000000000.00 0000000.00   0000000.00                             000000000000000                                                                                                                                                     01424 A000000000000 0000000000000.23     00050 02200                  
09261840497750001E167590675900000034330800141800000010100E0F8C80459 00000000000.004040404040404040404040404040404040404040404040404006011203A00000000000000000000000404040404040404040404040404040  0000084018008080008000230721AE812D57AECC7F5B5D97DFEE404040400840A0000000031010000000000000000000F0A010D00080000020200000000000004040401E40404040 000000025.66 000000000.001E00000000000000000000    80                                                                                                                                                                                                                                                                                                                  
09261850497750002G2675906759000000343308001418000000101GREENWOOD                SC           5 D                00                                      NNNN00 N 00                   000000000000                                                                   78503056                                                                                                                                                                                                                                                                                                                                                                                                                                               
09261860497750041DT67590675900000034330800141800000010180014124001193202900011900239072120230000000182920223000000000139057440393XXXXXX5878       VS11    0001111   NYV1 A E583202699125546N840000000001829XQZ300    07DNJBLISS LLC               849931    VD84000000001829 N  599978503056                            000000000+                F PF 08170                     000000000  N000000000       0000000000000.00 0000000.00   0000000.00                             000000000000000                                                                                                                                                     01424 A000000000000 0000000000000.36     01150 01500                  
09261870497750001E167590675900000034330800141800000010100E068C800D8 00000000000.004040404040404040404040404040404040404040404040404006011203A00000000000000000000000404040404040404040404040404040  0000084020000000000000230721CA7D215D3ABF556EEB138782404040400840A00000000310100000000000000000009F4CBA60CAC658C530300000000000004040404040404040 000000018.29 000000000.004040400000000000000000    80                                                                                                                                                                                                                                                                                                                  
09261880497750002G2675906759000000343308001418000000101GREENWOOD                SC           5 P                00                                      NNNN00 N 00                   000000000000                                                                   78503056                                                                                                                                                                                                                                                                                                                                                                                                                                               
09261890497750042DT67590675900000034330800141800000010180014124001193202900011900247072120230000000374320223000000000139057463405XXXXXX4396       VS11    0001111   NYV1 A E583202714974194N840000000003743K9QS00    05DNJBLISS LLC               001473    VD84000000003743 N  599978503056                            000000000+                F DF 10433                     000000000  Y000000000 338   0000000000000.00 0000000.00   0000000.00                             000000000000000                                                                                                                                                     01424 A000000000000 0000000000000.24     00050 02200                  
09261900497750001E167590675900000034330800141800000010100E0F8C803C1 00000000000.004040404040404040404040404040404040404040404040404006011203A0A000000000000000000000404040404040404040404040404040  000008401800808000800023072190D62DB8EC1E77E9F44680D3404040400840A0000000031010000000000000000000FBFBDF5EEEFDAC0030300000000000004040401E40404040 000000037.43 000000000.001E00000000000000000000    80                                                                                                                                                                                                                                                                                                                  
09261910497750002G2675906759000000343308001418000000101GREENWOOD                SC           5 D                00                                      NNNN00 N 00                   000000000000                                                                   78503056                                                                                                                                                                                                                                                                                                                                                                                                                                               
09261920497750043DT67590675900000034330800141800000010180014177287283202900011900256072120230000000203220223000000000139057510805XXXXXX6517       MS02WI09          NY 1 0 AMDJU4OD2N0721  N840000000002032          07DNJBLISS LLC               045758    MD84000000002032 N  599978503056                            000000000+M10101M0034C    MDJ  10815                     000000000  1                0000000000000.00 0000000.00   0000000.00                             000000000000000                                                                                                                                                   B101424  000000000000 0000000000000.23     00050 02200                  
09261930497750001E16759067590000003433080014180000001010000084801E7 00000000000.00404040404040404040404040404040404040404040404040400110A04001220000000000000000000000FF00000000000000000000000000  00000840198000000080012307213F226159E9213BA0C6EDACCD404040400840A0000000041010000000000000000000404040404040404040404040404040404040401F40404040 000000020.32 000000000.001F03020000000000000000    80                                                                                                                                                                                                                                                                                                                  
09261940497750002G2675906759000000343308001418000000101GREENWOOD                SC           5 J                                                        NNNN              000000000000000000000000       03               7                                          78503056                                                                                                                                                                                                                                                                                                                                                                                                                                               
09261950497750044DT67590675900000034330800141800000010180014124001193202900011900262072120230000000160320223000000000139057449594XXXXXX9324       VS11    0001111   NYV1 A E303202740578123N840000000001603P3VZ00    05DNJBLISS LLC               002200    VD84000000001603 N  599978503056                            000000000+                F DF 00381                     000000000  N000000000       0000000000000.00 0000000.00   0000000.00                             000000000000000                                                                                                                                                     01424 A000000000000 0000000000000.28     00800 01500                  
09261960497750001E167590675900000034330800141800000010100E0F8C8008C 00000000000.004040404040404040404040404040404040404040404040404006011203A00000000000000000000000404040404040404040404040404040  00000840180080800080002307217DEF167E9DD2FB54C82ABD49404040400840A00000000310100000000000000000005CE4A2BC0382000000000000000000004040401E40404040 000000016.03 000000000.001E00000000000000000000    80                                                                                                                                                                                                                                                                                                                  
09261970497750002G2675906759000000343308001418000000101GREENWOOD                SC           5 D                00                                      NNNN00 N 00                   000000000000                                                                   78503056                                                                                                                                                                                                                                                                                                                                                                                                                                               
09261980497750045DT67590675900000034330800141800000010180014124001193202900011900270072120230000000203220223000000000139057449594XXXXXX3829       VS11    0001111   NYV1 A E463202741002223N840000000002032NQNL00    05DNJBLISS LLC               166231    VD84000000002032 N  599978503056                            000000000+                F DF 00381                     000000000  N000000000       0000000000000.00 0000000.00   0000000.00                             000000000000000                                                                                                                                                     01424 A000000000000 0000000000000.31     00800 01500                  
09261990497750001E167590675900000034330800141800000010100E0F8C80039 00000000000.004040404040404040404040404040404040404040404040404006011203A08000000000000000000000404040404040404040404040404040  0000084018008080008000230721C763FC49AE662903B79515D8404040400840A0000000031010000000000000000000C2C9DAFD0382000000000000000000004040401E40404040 000000020.32 000000000.001E00000000000000000000    80                                                                                                                                                                                                                                                                                                                  
09262000497750002G2675906759000000343308001418000000101GREENWOOD                SC           5 D                00                                      NNNN00 N 00                   000000000000                                                                   78503056                                                                                                                                                                                                                                                                                                                                                                                                                                               
09262010497750046DT67590675900000034330800141800000010180014124001193202900011900288072120230000000620320223000000000139057484608XXXXXX1617       VS11    0001111   NYV1 A E583202752792360N8400000000062037NWH00    05DNJBLISS LLC               792360    VD84000000006203 N  599978503056                            000000000+                F DF 00381                     000000000  N000000000       0000000000000.00 0000000.00   0000000.00                             000000000000000                                                                                                                                                     01424 A000000000000 0000000000000.65     00800 01500                  
09262020497750001E167590675900000034330800141800000010100E0F8C80479 00000000000.004040404040404040404040404040404040404040404040404006011203A0A000000000000000000000404040404040404040404040404040  00000840180080800080002307210D38B53939D4950386AD82FB404040400840A0000000031010000000000000000000A8D71A740382000000000000000000004040401E40404040 000000062.03 000000000.001E00000000000000000000    80                                                                                                                                                                                                                                                                                                                  
09262030497750002G2675906759000000343308001418000000101GREENWOOD                SC           5 D                00                                      NNNN00 N 00                   000000000000                                                                   78503056                                                                                                                                                                                                                                                                                                                                                                                                                                               
09262040497750047DT67590675900000034330800141800000010180014124001193202900011900296072120230000000374420223000000000139057449594XXXXXX7037       VS11    0001111   NYV1 A E463202756590549N840000000003744BQTL00    07DNJBLISS LLC               834283    VD84000000003744 N  599978503056                            000000000+                F DF 00381                     000000000  N000000000       0000000000000.00 0000000.00   0000000.00                             000000000000000                                                                                                                                                     01424 A000000000000 0000000000000.45     00800 01500                  
09262050497750001E167590675900000034330800141800000010100E068C8000E 00000000000.004040404040404040404040404040404040404040404040404006011203A00000000000000000000000404040404040404040404040404040  00000840200000000000002307218C3C1EC9F31F4D1CD708F901404040400840A0000000031010000000000000000000DDA44A930382000000000000000000004040404040404040 000000037.44 000000000.004040400000000000000000    80                                                                                                                                                                                                                                                                                                                  
09262060497750002G2675906759000000343308001418000000101GREENWOOD                SC           5 D                00                                      NNNN00 N 00                   000000000000                                                                   78503056                                                                                                                                                                                                                                                                                                                                                                                                                                               
09262070497750048DT67590675900000034330800141800000010180014124001193202900011900304072120230000000406420223000000000139057448261XXXXXX5480       VS11    0001111   NYV1 A E303202758336276N840000000004064N7V800    07DNJBLISS LLC               830263    VD84000000004064 N  599978503056                            000000000+                F DF 10433                     000000000  Y000000000 338   0000000000000.00 0000000.00   0000000.00                             000000000000000                                                                                                                                                     01424 A000000000000 0000000000000.24     00050 02200                  
09262080497750001E167590675900000034330800141800000010100E068C80026 00000000000.004040404040404040404040404040404040404040404040404006011203A00000000000000000000000404040404040404040404040404040  00010840000000000000002307213624BA3FC312D8E9C3554611404040400840A0000000031010000000000000000000FEC389A70382000000000000000000004040404040404040 000000040.64 000000000.004040400000000000000000    80                                                                                                                                                                                                                                                                                                                  
09262090497750002G2675906759000000343308001418000000101GREENWOOD                SC           5 D                00                                      NNNN00 N 00                   000000000000                                                                   78503056                                                                                                                                                                                                                                                                                                                                                                                                                                               
09262100497750049DT67590675900000034330800141800000010180014124001193202900011900312072120230000000117520223000000000139057474476XXXXXX7803       VK04VS111111111   NYV1 A E383202763148634N84000000000117527LR00    05DNJBLISS LLC               121314    VD84000000001175 N  599978503056                            000000000+                F DF 10439                     000000000  Y000000000 331   0000000000000.00 0000000.00   0000000.00                             000000000000000                                                                                                                                                     01424 F000000000000 0000000000000.23     00050 02200                  
09262110497750001E167590675900000034330800141800000010100E0F8C80270 00000000000.004040404040404040404040404040404040404040404040404006010A03A00000000000000000000000404040404040404040404040404040  000008401800808000800023072150202AA52D4CB12C703FE0E9404040400840A00000000310100000000000000000005F64DA17F2D5DFA530300000000000004040401E40404040 000000011.75 000000000.001E00000000000000000000    80                                                                                                                                                                                                                                                                                                                  
09262120497750002G2675906759000000343308001418000000101GREENWOOD                SC           5 D                00                                      NNNN00 N 00                   000000000000                                                                   78503056                                                                                                                                                                                                                                                                                                                                                                                                                                               
09262130497750050DT67590675900000034330800141800000010180014124001193202900011900320072120230000000160420223000000000139057408138XXXXXX2315       VS11    0001111   NYV1 A E463202763483194N840000000001604J5VW00    07DNJBLISS LLC               345066    VD84000000001604 N  599978503056                            000000000+                F PF 08170                     000000000  N000000000       0000000000000.00 0000000.00   0000000.00                             000000000000000                                                                                                                                                     01424 A000000000000 0000000000000.33     01150 01500                  
09262140497750001E167590675900000034330800141800000010100E068C80016 00000000000.00404040404040404040404040404040404040404040404040401F42FF31A00000000010030273000000004000000000000000000000000000  00000840004000000000002307218062393A2263B9E9E63D04B2404040400840A000000003101000000000000000000075E512C70086000000000000000000004040404040404040 000000016.04 000000000.004040400000000000000000    80                                                                                                                                                                                                                                                                                                                  
09262150497750002G2675906759000000343308001418000000101GREENWOOD                SC           5 P                00                                      NNNN00 N 00                   000000000000                                                                   78503056                                                                                                                                                                                                                                                                                                                                                                                                                                               
09262160497750051DT67590675900000034330800141800000010180014124001193202900011900338072120230000000182920223000000000139057440393XXXXXX7981       VS11    0001111   NYV1 A E383202773118870N8400000000018297CMM00    05DNJBLISS LLC               130615    VD84000000001829 N  599978503056                            000000000+                F PF 08170                     000000000  N000000000       0000000000000.00 0000000.00   0000000.00                             000000000000000                                                                                                                                                     01424 A000000000000 0000000000000.36     01150 01500                  
09262170497750001E167590675900000034330800141800000010100E0F8C8026A 00000000000.004040404040404040404040404040404040404040404040404006011203A0A000000000000000000000404040404040404040404040404040  0000084018008080008000230721C2FC27E4F2B30E29BA5368E8404040400840A0000000031010000000000000000000A59D742B90C6964630300000000000004040401E40404040 000000018.29 000000000.001E00000000000000000000    80                                                                                                                                                                                                                                                                                                                  
09262180497750002G2675906759000000343308001418000000101GREENWOOD                SC           5 P                00                                      NNNN00 N 00                   000000000000                                                                   78503056                                                                                                                                                                                                                                                                                                                                                                                                                                               
09262190497750052DT67590675900000034330800141800000010180014124001193202900011900346072120230000000363620223000000000139057448261XXXXXX1115       VS11    0001111   NYV1 A E463202785299832N840000000003636LJPC00    05DNJBLISS LLC               834287    VD84000000003636 N  599978503056                            000000000+                F DF 10433                     000000000  Y000000000 338   0000000000000.00 0000000.00   0000000.00                             000000000000000                                                                                                                                                     01424 A000000000000 0000000000000.24     00050 02200                  
09262200497750001E167590675900000034330800141800000010100E0F8C800AF 00000000000.004040404040404040404040404040404040404040404040404006011203A02000000000000000000000404040404040404040404040404040  0001084018008080008000230721A35A5F14EB07CFFE2F788A65404040400840A0000000031010000000000000000000B8FC23A20382000000000000000000004040401E40404040 000000036.36 000000000.001E00000000000000000000    80                                                                                                                                                                                                                                                                                                                  
09262210497750002G2675906759000000343308001418000000101GREENWOOD                SC           5 D                00                                      NNNN00 N 00                   000000000000                                                                   78503056                                                                                                                                                                                                                                                                                                                                                                                                                                               
09262220497750053DT67590675900000034330800141800000010180014177287283202900011900355072120230000000802320223000000000139057549686XXXXXX5530       MS02WI09          NY 1 0 AMDJDLRK2Q0721  N840000000008023          05DNJBLISS LLC               003646    MD84000000008023 N  599978503056                            000000000+M10101C5434C    MDJ  00402                     000000000  N                0000000000000.00 0000000.00   0000000.00                             000000000000000                                                                                                                                                   B101424  000000000000 0000000000000.99     01050 01500                  
09262230497750001E167590675900000034330800141800000010100E0F8C802D2 00000000000.00404040404040404040404040404040404040404040404040400110A00001220800000000000000000000FF00000000000000000000000000  00020840180080000880002307213C0BDE5262915FB0CDCD25E0404040400840A0000000041010000000000000000000B5A8A732ADD2B25D00140000000000004040401E40404040 000000080.23 000000000.001E03000000000000000000    80                                                                                                                                                                                                                                                                                                                  
09262240497750002G2675906759000000343308001418000000101GREENWOOD                SC           5 J                                                        NNNN              000000000000000000000000                                                                   78503056                                                                                                                                                                                                                                                                                                                                                                                                                                               
