03264890159612476AD675906759000000151648008888000009077900011512000000002487004062023NYY09623YC6759800888040920232023096034155                                                                                                                                                                                                                                                                                                                                                                                                                                                                                                                                                                                              
03264900159612479AD675906759000000151648008888000009077900011512010000000654804062023NYY09623YC6759800888040920232023096034156                                                                                                                                                                                                                                                                                                                                                                                                                                                                                                                                                                                              
03264910159612482AD675906759000000151648008888000009071900012238910000002487004062023NYY09623ND6759800888040920232023096025164                                                                                                                                                                                                                                                                                                                                                                                                                                                                                                                                                                                              
03264920159612485AD675906759000000151648008888000009071900012133990000000654804062023NYY09623ND6759800888040920232023096025166                                                                                                                                                                                                                                                                                                                                                                                                                                                                                                                                                                                              
03264930159612488AD675906759000000151648008888000009071900012133970000001394804062023NYY09623ND6759800888040920232023096025167                                                                                                                                                                                                                                                                                                                                                                                                                                                                                                                                                                                              
03264940159612491AD675906759000000151648008888000009071900012772280000000654804062023NYY09623ND6759800888040920232023096025168                                                                                                                                                                                                                                                                                                                                                                                                                                                                                                                                                                                              
03264950159612494AD675906759000000151648008888000009071900012772270000001206604062023NYY09623ND6759800888040920232023096025169                                                                                                                                                                                                                                                                                                                                                                                                                                                                                                                                                                                              
03264960159612497AD675906759000000142748001028000009071900013126960000001987004062023NYY09623ND6759800102040920232023096025170                                                                                                                                                                                                                                                                                                                                                                                                                                                                                                                                                                                              
03264970159612500AD675906759000000133008001028000009071900014446190000002255004062023NYY09623ND6759800102040920232023096025171                                                                                                                                                                                                                                                                                                                                                                                                                                                                                                                                                                                              
03264980159612503AD675906759000000151648008888000009071900013342140000001987004062023NYY09623ND6759800888040920232023096025172                                                                                                                                                                                                                                                                                                                                                                                                                                                                                                                                                                                              
03264990159612506AD675906759000000151648008888000009071900012242890000002255004062023NYY09623ND6759800888040920232023096025173                                                                                                                                                                                                                                                                                                                                                                                                                                                                                                                                                                                              
03265000159612509AD675906759000000151648008888000009071900012876680000000519004062023NYY09623ND6759800888040920232023096025174                                                                                                                                                                                                                                                                                                                                                                                                                                                                                                                                                                                              
03265010159612512AD675906759000000151648008888000009071900012876690000000198804062023NYY09623ND6759800888040920232023096025175                                                                                                                                                                                                                                                                                                                                                                                                                                                                                                                                                                                              
03265020159612515AD675906759000000151648008888000009071900012876670000000654804062023NYY09623ND6759800888040920232023096025176                                                                                                                                                                                                                                                                                                                                                                                                                                                                                                                                                                                              
03265030159612518AD675906759000000151648008888000009071900012876660000002487004062023NYY09623ND6759800888040920232023096025177                                                                                                                                                                                                                                                                                                                                                                                                                                                                                                                                                                                              
03265040161920002BH6759067590000000215480088880000090170407202309723000000001732000    0000090001557330N8008886759C04092023                                                                                                                                                                                                                                                                                                                                                                                                                                                                                                                                                                                                 
03265050161920003DT67590675900000002154800888800000010180088824001193097900015558445040720230000007200009723000000001732000440393XXXXXX0304               2111111   NYV4 A7W383097742323590N840000000072000VT6Z00    01DNDRIP DROP DISTRO LLC     071933    VD84000000072000 NP1519971004114   INV-001593               000000000+                F PF 08175                     000000000  N000000000       0000000000000.00 0000000.00   0000000.00                             000000000000000                                                                                                                                                     01418 G000000072000 0000000000012.80     01750 02000                  
03265060161920001P16759067590000000215480088880000001010000000000000000                             2000000000000000000000000              000000000000                    0000000000000000000000000                    000000000000                                                                                                                                                                                                                                                                                                                                                                                                                                                                                        
03265070161920004DT67590675900000002154800888800000010180088824001193097900015570382040720230000009900009723000000001732000403623XXXXXX6705               2111111   NYV4 A7W383097767659610N8400000000990005H4G00    01DNDRIP DROP DISTRO LLC     064108    VD84000000099000 NP1519971004114   INV-001580               000000000+                G DG 10352                     000000000  Y000000000 338   0000000000000.00 0000000.00   0000000.00                             000000000000000                                                                                                                                                     01418 G000000099000 0000000000000.72     00050 02200                  
03265080161920001P16759067590000000215480088880000001010000000000000000    44046247363              2000000000000000000000000              000000000000                    0000000000000000000000000                    000000000000                                                                                                                                                                                                                                                                                                                                                                                                                                                                                        
03265090161920005DT67590675900000002154800888800000010180088887287283097900015586926040720230000008400009723000000001732000547415XXXXXX3768                         NY 4607AMEBF1XAAT0407  N840000000084000          81DNDRIP DROP DISTRO LLC     04016Q    MB84000000084000 NP1519900000001   17659                    000000000+600450S00140    MEB  11637                     000000000  N                0000000000000.00 0000000.00   0000000.00                             000000000000000                                                                                                                                                   U001418  000000000000 0000000000025.30     03000 01000                  
03265100161920001P1675906759000000021548008888000000101                                                          000000000000          8000            471534935                                                                                                                                                                                                                                                                                                                                                                                                                                                                                                                                                            
03265110161920006DT67590675900000002154800888800000010180088887287283097900015590480040720230000011250009723000000001732000558962XXXXXX7952                         NY 4607AMWBBET87D0407  N840000000112500          81DNDRIP DROP DISTRO LLC     08586Q    MB84000000112500 NP1519900000001   17660                    000000000+600450S00140    MWB  11637                     000000000  N                0000000000000.00 0000000.00   0000000.00                             000000000000000                                                                                                                                                   U001418  000000000000 0000000000033.85     03000 01000                  
03265120161920001P1675906759000000021548008888000000101                                                          000000000000          8000            471534935                                                                                                                                                                                                                                                                                                                                                                                                                                                                                                                                                            
03265130161920007DT67590675900000002154800888800000010180088873011003097900015521530040720230000020650009723000000001732000372241XXXXX1007                          NY 4 07N007567949125067N840000000206500          01DNDRIP DROP DISTRO LLC     282199    AM84000000206500 N  519971004114                            000000000+6004S0S00140 258     11244                     000000000                   0000000000000.00 0000000.00   0000000.00                             000000000000000 61248972736759675900000002154 DRIP DROP DISTRO LLC     1445 W COMMERCE AVE SUITE2087248209      83705     TROY@DRIPDROPDISTRO.COM                   01418  000000000000 0000000000039.34     01900 00000                  
03265140161920008DT67590675900000002154800888800000010180088824001193097900015596742040720230000002400009723000000001732000433993XXXXXX7424               2111111   NYV4 A7W463097600331116N8400000000240008PCN00    01DNDRIP DROP DISTRO LLC     02871G    VB84000000024000 NP1519971004114   17661                    000000000+                G3CG308002                     000000000  N000000000 381   0000000000000.00 0000000.00   0000000.00                             000000000000000                                                                                                                                                     01418 G000000024000 0000000000006.82     02800 01000                  
03265150161920001P16759067590000000215480088880000001010000000000000000    44045691711              2000000000000000000000000              000000000000                    0000000000000000000000000                    000000000000                                                                                                                                                                                                                                                                                                                                                                                                                                                                                        
03265160161920009DT67590675900000002154800888800000010180088873011003097900015509436040720230000111000009723000000001732000371559XXXXX6002                          NY 4 07N007004334294076N840000001110000          01DNDRIP DROP DISTRO LLC     229324    AM84000001110000 N  519971004114                            000000000+6004S0S00140 258     11245                     000000000                   0000000000000.00 0000000.00   0000000.00                             000000000000000 61248972736759675900000002154 DRIP DROP DISTRO LLC     1445 W COMMERCE AVE SUITE2087248209      83705     TROY@DRIPDROPDISTRO.COM                   01418  000000000000 0000000000260.95     02350 00000                  
03265170161920010DT67590675900000002154800888800000010180088824001193097900015573303040720230000002400009723000000001732000425797XXXXXX7646               2111111   NYV4 A7W303097777883806N840000000024000PJ3V00    01DNDRIP DROP DISTRO LLC     040717    VD84000000024000 NP1519971004114   INV-001611               000000000+                G DG 08705                     000000000  N000000000       0000000000000.00 0000000.00   0000000.00                             000000000000000                                                                                                                                                     01418 G000000024000 0000000000005.98     02450 01000                  
03265180161920001P16759067590000000215480088880000001010000000000000000    44046277120              2000000000000000000000000              000000000000                    0000000000000000000000000                    000000000000                                                                                                                                                                                                                                                                                                                                                                                                                                                                                        
03265190161920011BH6759067590000000995180010180000090170407202309723000000000065465    0000090001220018N8001016759C04092023                                                                                                                                                                                                                                                                                                                                                                                                                                                                                                                                                                                                 
03265200161920012DT67590675900000009951800101800000010180010124001193097900012200017040720230000000194409723000000000065465473703XXXXXX4165       VS11    0001111   NYV1 A E463097511594201N8400000000019446KVR00    05DNPLANET VAPOR INC #600    070674    VD84000000001944 N  599977384956                            000000000+                F DF 10433                     000000000  Y000000000 338   0000000000000.00 0000000.00   0000000.00                             000000000000000                                                                                                                                                     01418 A000000000000 0000000000000.23     00050 02200                  
03265210161920013DT67590675900000009951800101800000010180010124001193097900012200025040720230000000242909723000000000065465473703XXXXXX4165       VS11    0001111   NYV1 A E463097514897725N840000000002429LLNC00    05DNPLANET VAPOR INC #600    032388    VD84000000002429 N  599977384956                            000000000+                F DF 10433                     000000000  Y000000000 338   0000000000000.00 0000000.00   0000000.00                             000000000000000                                                                                                                                                     01418 A000000000000 0000000000000.23     00050 02200                  
03265220161920014DT67590675900000009951800101800000010180010177287283097900012200035040720230000000242909723000000000065465530388XXXXXX6165       MS02WI09          NY 1 0 AMDJTPG81Y0407  N840000000002429          05DNPLANET VAPOR INC #600    421179    MD84000000002429 N  599977384956                            000000000+M10101C5434C    MDJ  00402                     000000000  N                0000000000000.00 0000000.00   0000000.00                             000000000000000                                                                                                                                                   B101418  000000000000 0000000000000.41     01050 01500                  
03265230161920015DT67590675900000009951800101800000010180010124001193097900012200041040720230000000410209723000000000065465449370XXXXXX8385       VS11    0001111   NYV1 A E383097573239311N840000000004102RKLC00    05DNPLANET VAPOR INC #600    791529    VD84000000004102 N  599977384956                            000000000+                F DF 00381                     000000000  N000000000       0000000000000.00 0000000.00   0000000.00                             000000000000000                                                                                                                                                     01418 A000000000000 0000000000000.48     00800 01500                  
03265240161920016DT67590675900000009951800101800000010180010124001193097900012200058040720230000000377909723000000000065465403710XXXXXX6442       VS11    0001111   NYV1 A E463097592289253N8400000000037794QVL00    05DNPLANET VAPOR INC #600    022708    VD84000000003779 N  599977384956                            000000000+                F DF 00381                     000000000  N000000000       0000000000000.00 0000000.00   0000000.00                             000000000000000                                                                                                                                                     01418 A000000000000 0000000000000.45     00800 01500                  
03265250161920017DT67590675900000009951800101800000010180010124001193097900012200066040720230000000695109723000000000065465449370XXXXXX5969       VS11    0001111   NYV1 A E303097614709892N8400000000069514NVW00    05DNPLANET VAPOR INC #600    796060    VD84000000006951 N  599977384956                            000000000+                F DF 00381                     000000000  N000000000       0000000000000.00 0000000.00   0000000.00                             000000000000000                                                                                                                                                     01418 A000000000000 0000000000000.71     00800 01500                  
03265260161920018DT67590675900000009951800101800000010180010124001193097900012200074040720230000000641209723000000000065465415967XXXXXX4794       VS11    0001111   NYV1 A E583097680787350N840000000006412X7PB00    05DNPLANET VAPOR INC #600    045438    VD84000000006412 N  599977384956                            000000000+                F DF 00381                     000000000  N000000000       0000000000000.00 0000000.00   0000000.00                             000000000000000                                                                                                                                                     01418 A000000000000 0000000000000.66     00800 01500                  
03265270161920019DT67590675900000009951800101800000010180010124001193097900012200082040720230000000242909723000000000065465433477XXXXXX8249       VS11    0001111   NYV1 A E303097682272782N840000000002429FF8F00    07DNPLANET VAPOR INC #600    690753    VD84000000002429 N  599977384956                            000000000+                F DF 10433                     000000000  Y000000000 338   0000000000000.00 0000000.00   0000000.00                             000000000000000                                                                                                                                                     01418 A000000000000 0000000000000.23     00050 02200                  
03265280161920020DT67590675900000009951800101800000010180010177287283097900012200092040720230000000216009723000000000065465530388XXXXXX2249       MS02WI09          NY 1 0 AMDJXTZXDW0407  N840000000002160          05DNPLANET VAPOR INC #600    426931    MD84000000002160 N  599977384956                            000000000+M10101C5434C    MDJ  00402                     000000000  N                0000000000000.00 0000000.00   0000000.00                             000000000000000                                                                                                                                                   B101418  000000000000 0000000000000.38     01050 01500                  
03265290161920021DT67590675900000009951800101800000010180010124001193097900012200108040720230000000184609723000000000065465474166XXXXXX6211       VS11    0001111   NYV1 A E383097716074320N840000000001846KRWG00    05DNPLANET VAPOR INC #600    004724    VD84000000001846 N  599977384956                            000000000+                G DG 10351                     000000000  Y000000000 338   0000000000000.00 0000000.00   0000000.00                             000000000000000                                                                                                                                                     01418 A000000000000 0000000000000.23     00050 02200                  
03265300161920022DT67590675900000009951800101800000010180010124001193097900012200116040720230000000205109723000000000065465473703XXXXXX2128       VS11    0001111   NYV1 A E303097728443371N840000000002051P9KB00    05DNPLANET VAPOR INC #600    025972    VD84000000002051 N  599977384956                            000000000+                F DF 10433                     000000000  Y000000000 338   0000000000000.00 0000000.00   0000000.00                             000000000000000                                                                                                                                                     01418 A000000000000 0000000000000.23     00050 02200                  
03265310161920023DT67590675900000009951800101800000010180010124001193097900012200124040720230000000323809723000000000065465415967XXXXXX6086       VS11    0001111   NYV1 A E303097729150128N840000000003238V6TM00    05DNPLANET VAPOR INC #600    047740    VD84000000003238 N  599977384956                            000000000+                F DF 00381                     000000000  N000000000       0000000000000.00 0000000.00   0000000.00                             000000000000000                                                                                                                                                     01418 A000000000000 0000000000000.41     00800 01500                  
03265320161920024DT67590675900000009951800101800000010180010124001193097900012200132040720230000000145709723000000000065465414314XXXXXX6441       VK04VS111111111   NYV1 A E303097732181799N840000000001457XM3D00    05DNPLANET VAPOR INC #600    930237    VD84000000001457 N  599977384956                            000000000+                F DF 10439                     000000000  Y000000000 331   0000000000000.00 0000000.00   0000000.00                             000000000000000                                                                                                                                                     01418 F000000000000 0000000000000.23     00050 02200                  
03265330161920025DT67590675900000009951800101800000010180010124001193097900012200140040720230000000323809723000000000065465458643XXXXXX5503       VS11    0001111   NYV1 A E583097803232007N840000000003238PNL400    05DNPLANET VAPOR INC #600    H75144    VD84000000003238 N  599977384956                            000000000+                F DF 10433                     000000000  Y000000000 338   0000000000000.00 0000000.00   0000000.00                             000000000000000                                                                                                                                                     01418 A000000000000 0000000000000.24     00050 02200                  
03265340161920026DT67590675900000009951800101800000010180010124001193097900012200157040720230000000226609723000000000065465448261XXXXXX8675       VS11    0001111   NYV1 A E463097804077830N840000000002266V5W400    05DNPLANET VAPOR INC #600    664302    VD84000000002266 N  599977384956                            000000000+                F DF 10433                     000000000  Y000000000 338   0000000000000.00 0000000.00   0000000.00                             000000000000000                                                                                                                                                     01418 A000000000000 0000000000000.23     00050 02200                  
03265350161920027DT67590675900000009951800101800000010180010177287283097900012200167040720230000000755809723000000000065465530388XXXXXX0297       MS02WI09          NY 1 0 AMDJES15FT0407  N840000000007558          05DNPLANET VAPOR INC #600    429800    MD84000000007558 N  599977384956                            000000000+M10101C5434C    MDJ  00402                     000000000  N                0000000000000.00 0000000.00   0000000.00                             000000000000000                                                                                                                                                   B101418  000000000000 0000000000000.94     01050 01500                  
03265360161920028DT67590675900000009951800101800000010180010177287283097900012200175040720230000000242909723000000000065465528149XXXXXX5549       MS02WI09          NY 1 0 AMDJEZAZFT0407  N840000000002429          07DNPLANET VAPOR INC #600    066544    MD84000000002429 N  599977384956                            000000000+M10101M0034C    MDJ  00402                     000000000  N                0000000000000.00 0000000.00   0000000.00                             000000000000000                                                                                                                                                   B101418  000000000000 0000000000000.41     01050 01500                  
03265370161920029DT67590675900000009951800101800000010180010124001193097900012200181040720230000000874709723000000000065465473703XXXXXX4736       VS11    0001111   NYV1 A E463097857557307N840000000008747XNMN00    05DNPLANET VAPOR INC #600    084262    VD84000000008747 N  599977384956                            000000000+                F DF 10433                     000000000  Y000000000 338   0000000000000.00 0000000.00   0000000.00                             000000000000000                                                                                                                                                     01418 A000000000000 0000000000000.26     00050 02200                  
03265380161920030BH6759067590000001094280010180000090170407202309723000000000082340    0000090001230022N8001016759C04092023                                                                                                                                                                                                                                                                                                                                                                                                                                                                                                                                                                                                 
03265390161920031DT67590675900000010942800101800000010180010124001193097900012300015040720230000000205109723000000000082340432739XXXXXX2223       VS11    0001111   NYV1 A E463097512850879N8400000000020516MGS00    07DNPLANET VAPOR INC #800    567906    VD84000000002051 N  599971384997                            000000000+                F DF 10433                     000000000  Y000000000 338   0000000000000.00 0000000.00   0000000.00                             000000000000000                                                                                                                                                     01418 A000000000000 0000000000000.23     00050 02200                  
03265400161920032DT67590675900000010942800101800000010180010124001193097900012300023040720230000000269909723000000000082340440393XXXXXX3606       VS11    0001111   NYV1 A E303097530616315N8400000000026998SXH00    05DNPLANET VAPOR INC #800    163722    VD84000000002699 N  599971384997                            000000000+                F PF 08170                     000000000  N000000000       0000000000000.00 0000000.00   0000000.00                             000000000000000                                                                                                                                                     01418 A000000000000 0000000000000.46     01150 01500                  
03265410161920033DT67590675900000010942800101800000010180010124001193097900012300031040720230000000356209723000000000082340473702XXXXXX9561       VS11    0001111   NYV1 A E303097550304417N8400000000035628BF600    07DNPLANET VAPOR INC #800    056149    VD84000000003562 N  599971384997                            000000000+                F DF 10433                     000000000  Y000000000 338   0000000000000.00 0000000.00   0000000.00                             000000000000000                                                                                                                                                     01418 A000000000000 0000000000000.24     00050 02200                  
03265420161920034DT67590675900000010942800101800000010180010124001193097900012300049040720230000000542309723000000000082340473702XXXXXX8330       VS11    0001111   NYV1 A E303097560340202N8400000000054237LJD00    07DNPLANET VAPOR INC #800    008673    VD84000000005423 N  599971384997                            000000000+                F DF 10433                     000000000  Y000000000 338   0000000000000.00 0000000.00   0000000.00                             000000000000000                                                                                                                                                     01418 A000000000000 0000000000000.25     00050 02200                  
03265430161920035DT67590675900000010942800101800000010180010124001193097900012300056040720230000000825809723000000000082340466189XXXXXX2879       VS11    0001111   NYV1 A E303097576983654N8400000000082583QC800    07DNPLANET VAPOR INC #800    099789    VD84000000008258 N  599971384997                            000000000+                F DF 10433                     000000000  Y000000000 338   0000000000000.00 0000000.00   0000000.00                             000000000000000                                                                                                                                                     01418 A000000000000 0000000000000.26     00050 02200                  
03265440161920036DT67590675900000010942800101800000010180010124001193097900012300064040720230000000389309723000000000082340433477XXXXXX2726       VS11    0001111   NYV1 A E383097617674687N840000000003893DXFF00    05DNPLANET VAPOR INC #800    560137    VD84000000003893 N  599971384997                            000000000+                F DF 10433                     000000000  Y000000000 338   0000000000000.00 0000000.00   0000000.00                             000000000000000                                                                                                                                                     01418 A000000000000 0000000000000.24     00050 02200                  
03265450161920037DT67590675900000010942800101800000010180010124001193097900012300072040720230000000389709723000000000082340461675XXXXXX9114       VS11    0001111   NYV1 A E383097624013775N840000000003897TCRB00    05DNPLANET VAPOR INC #800    291020    VD84000000003897 N  599971384997                            000000000+                F DF 00381                     000000000  N000000000       0000000000000.00 0000000.00   0000000.00                             000000000000000                                                                                                                                                     01418 A000000000000 0000000000000.46     00800 01500                  
03265460161920038DT67590675900000010942800101800000010180010177287283097900012300082040720230000000237509723000000000082340523957XXXXXX0324       MS02WI09          NY 1 0 AMDJDLTY7D0407  N840000000002375          05DNPLANET VAPOR INC #800    964830    MD84000000002375 N  599971384997                            000000000+M10101C5434C    MDJ  00402                     000000000  N                0000000000000.00 0000000.00   0000000.00                             000000000000000                                                                                                                                                   B101418  000000000000 0000000000000.40     01050 01500                  
03265470161920039DT67590675900000010942800101800000010180010124001193097900012300098040720230000000033609723000000000082340440393XXXXXX7556       VK04VS111111111   NYV1 A E303097649445210N840000000000336P2TG00    05DNPLANET VAPOR INC #800    045059    VD84000000000336 N  599971384997                            000000000+                F PF 08165                     000000000  N000000000       0000000000000.00 0000000.00   0000000.00                             000000000000000                                                                                                                                                     01418 F000000000000 0000000000000.10     01600 00500                  
03265480161920040DT67590675900000010942800101800000010180010124001193097900012300106040720230000000809809723000000000082340448233XXXXXX1619       VS11    0001111   NYV1 A E383097680083864N840000000008098ZR6V00    05DNPLANET VAPOR INC #800    035329    VD84000000008098 N  599971384997                            000000000+                F DF 10433                     000000000  Y000000000 338   0000000000000.00 0000000.00   0000000.00                             000000000000000                                                                                                                                                     01418 A000000000000 0000000000000.26     00050 02200                  
03265490161920041DT67590675900000010942800101800000010180010177287283097900012300116040720230000000237509723000000000082340520711XXXXXX5883                         NY 1 0 AMDBKAVZDS0407  N840000000002375          05DNPLANET VAPOR INC #800    403631    MD84000000002375 NP1599971384997                            000000000+M10101C5434C    MDB  00062                     000000000  N                0000000000000.00 0000000.00   0000000.00                             000000000000000                                                                                                                                                   B101418  000000000000 0000000000000.73     02650 01000                  
03265500161920001P1675906759000000109428001018000000101                                                          000000000000          1000            472803059                                                                                                                                                                                                                                                                                                                                                                                                                                                                                                                                                            
03265510161920042DT67590675900000010942800101800000010180010124001193097900012300122040720230000000059209723000000000082340461675XXXXXX2519       VK04VS111111111   NYV1 A E303097724913135N840000000000592SKGL00    05DNPLANET VAPOR INC #800    436470    VD84000000000592 N  599971384997                            000000000+                F DF 00451                     000000000  N000000000 214   0000000000000.00 0000000.00   0000000.00                             000000000000000                                                                                                                                                     01418 F000000000000 0000000000000.13     01550 00400                  
03265520161920043DT67590675900000010942800101800000010180010177287283097900012300132040720230000000428909723000000000082340531258XXXXXX9532       MS02WI09          NY 1 0 AMDJZHBGDW0407  N840000000004289          07DNPLANET VAPOR INC #800    173254    MD84000000004289 N  599971384997                            000000000+M10101M0034C    MDJ  10815                     000000000  1                0000000000000.00 0000000.00   0000000.00                             000000000000000                                                                                                                                                   B101418  000000000000 0000000000000.24     00050 02200                  
03265530161920044DT67590675900000010942800101800000010180010124001193097900012300148040720230000000377909723000000000082340448233XXXXXX7601       VS11    0001111   NYV1 A E303097744107227N840000000003779G8RB00    07DNPLANET VAPOR INC #800    054010    VD84000000003779 N  599971384997                            000000000+                F DF 10433                     000000000  Y000000000 338   0000000000000.00 0000000.00   0000000.00                             000000000000000                                                                                                                                                     01418 A000000000000 0000000000000.24     00050 02200                  
03265540161920045DT67590675900000010942800101800000010180010124001193097900012300155040720230000000216009723000000000082340400022XXXXXX7674       VS11    0001111   NYV1 A E583097763313668N8400000000021609CL400    05DNPLANET VAPOR INC #800    635334    VD84000000002160 N  599971384997                            000000000+                F DF 10433                     000000000  Y000000000 338   0000000000000.00 0000000.00   0000000.00                             000000000000000                                                                                                                                                     01418 A000000000000 0000000000000.23     00050 02200                  
03265550161920046DT67590675900000010942800101800000010180010124001193097900012300163040720230000000275309723000000000082340400022XXXXXX7674       VS11    0001111   NYV1 A E583097763891674N840000000002753HPQJ00    05DNPLANET VAPOR INC #800    659988    VD84000000002753 N  599971384997                            000000000+                F DF 10433                     000000000  Y000000000 338   0000000000000.00 0000000.00   0000000.00                             000000000000000                                                                                                                                                     01418 A000000000000 0000000000000.23     00050 02200                  
03265560161920047DT67590675900000010942800101800000010180010124001193097900012300171040720230000000269909723000000000082340430602XXXXXX0549       VS11    0001111   NYV1 A E463097766911196N8400000000026995DVX00    07DNPLANET VAPOR INC #800    253258    VD84000000002699 N  599971384997                            000000000+                F DF 00381                     000000000  N000000000       0000000000000.00 0000000.00   0000000.00                             000000000000000                                                                                                                                                     01418 A000000000000 0000000000000.37     00800 01500                  
03265570161920048DT67590675900000010942800101800000010180010124001193097900012300189040720230000000680109723000000000082340433477XXXXXX4989       VS11    0001111   NYV1 A E383097778934109N840000000006801TZB500    05DNPLANET VAPOR INC #800    877796    VD84000000006801 N  599971384997                            000000000+                F DF 10433                     000000000  Y000000000 338   0000000000000.00 0000000.00   0000000.00                             000000000000000                                                                                                                                                     01418 A000000000000 0000000000000.25     00050 02200                  
03265580161920049DT67590675900000010942800101800000010180010124001193097900012300197040720230000000063209723000000000082340440393XXXXXX8461       VK04VS111111111   NYV1 A E383097793882450N8400000000006328XNC00    05DNPLANET VAPOR INC #800    812129    VD84000000000632 N  599971384997                            000000000+                F PF 08165                     000000000  N000000000       0000000000000.00 0000000.00   0000000.00                             000000000000000                                                                                                                                                     01418 F000000000000 0000000000000.15     01600 00500                  
03265590161920050DT67590675900000010942800101800000010180010124001193097900012300205040720230000000237509723000000000082340438419XXXXXX8718       VS11    0001111   NYV1 A E383097795883387N840000000002375D9DR00    07DNPLANET VAPOR INC #800    080628    VD84000000002375 N  599971384997                            000000000+                F DF 00381                     000000000  N000000000       0000000000000.00 0000000.00   0000000.00                             000000000000000                                                                                                                                                     01418 A000000000000 0000000000000.34     00800 01500                  
03265600161920051DT67590675900000010942800101800000010180010124001193097900012300213040720230000001133509723000000000082340474474XXXXXX1441       VS11    0001111   NYV1 A E383097800990493N840000000011335SWWJ00    05DNPLANET VAPOR INC #800    111649    VD84000000011335 N  599971384997                            000000000+                F DF 10433                     000000000  Y000000000 338   0000000000000.00 0000000.00   0000000.00                             000000000000000                                                                                                                                                     01418 A000000000000 0000000000000.28     00050 02200                  
03265610161920052DT67590675900000010942800101800000010180010124001193097900012300221040720230000000195809723000000000082340466189XXXXXX1969       VS11    0001111   NYV1 A E383097853035938N840000000001958JP2K00    07DNPLANET VAPOR INC #800    088331    VD84000000001958 N  599971384997                            000000000+                F DF 10433                     000000000  Y000000000 338   0000000000000.00 0000000.00   0000000.00                             000000000000000                                                                                                                                                     01418 A000000000000 0000000000000.23     00050 02200                  
03265620161920053BH6759067590000001956280010180000090170407202309723000000000024108    0000090001100008N8001016759C04092023                                                                                                                                                                                                                                                                                                                                                                                                                                                                                                                                                                                                 
03265630161920054DT67590675900000019562800101800000010180010124001193097900011000012040720230000000376209723000000000024108408138XXXXXX2728       VS11    0001111   NYV1 A E583097525347842N8400000000037629CB200    07DNPLANET VAPOR #1100       256830    VD84000000003762 N  599977439645                            000000000+                F PF 08170                     000000000  N000000000       0000000000000.00 0000000.00   0000000.00                             000000000000000                                                                                                                                                     01418 A000000000000 0000000000000.58     01150 01500                  
03265640161920055DT67590675900000019562800101800000010180010124001193097900011000020040720230000000188909723000000000024108474166XXXXXX9125       VS11    0001111   NYV1 A E383097577493648N8400000000018894GNV00    07DNPLANET VAPOR #1100       002761    VD84000000001889 N  599977439645                            000000000+                G DG 10351                     000000000  Y000000000 338   0000000000000.00 0000000.00   0000000.00                             000000000000000                                                                                                                                                     01418 A000000000000 0000000000000.23     00050 02200                  
03265650161920056DT67590675900000019562800101800000010180010124001193097900011000038040720230000000488309723000000000024108438419XXXXXX9886       VS11    0001111   NYV1 A E383097610932771N840000000004883T5SV00    07DNPLANET VAPOR #1100       025814    VD84000000004883 N  599977439645                            000000000+                F DF 00381                     000000000  N000000000       0000000000000.00 0000000.00   0000000.00                             000000000000000                                                                                                                                                     01418 A000000000000 0000000000000.54     00800 01500                  
03265660161920057DT67590675900000019562800101800000010180010124001193097900011000046040720230000000798909723000000000024108430602XXXXXX7717       VS11    0001111   NYV1 A E463097621784412N8400000000079894D6S00    05DNPLANET VAPOR #1100       199626    VD84000000007989 N  599977439645                            000000000+                F DF 00381                     000000000  N000000000       0000000000000.00 0000000.00   0000000.00                             000000000000000                                                                                                                                                     01418 A000000000000 0000000000000.79     00800 01500                  
03265670161920058DT67590675900000019562800101800000010180010124001193097900011000053040720230000000188909723000000000024108473702XXXXXX2628       VS11    0001111   NYV1 A E383097679655396N840000000001889RJCK00    07DNPLANET VAPOR #1100       086641    VD84000000001889 N  599977439645                            000000000+                F DF 10433                     000000000  Y000000000 338   0000000000000.00 0000000.00   0000000.00                             000000000000000                                                                                                                                                     01418 A000000000000 0000000000000.23     00050 02200                  
03265680161920059DT67590675900000019562800101800000010180010124001193097900011000061040720230000000077509723000000000024108473702XXXXXX2628       VK04VS111111111   NYV1 A E303097689947437N840000000000775XN4R00    07DNPLANET VAPOR #1100       042889    VD84000000000775 N  599977439645                            000000000+                F DF 10439                     000000000  Y000000000 331   0000000000000.00 0000000.00   0000000.00                             000000000000000                                                                                                                                                     01418 F000000000000 0000000000000.22     00050 02200                  
03265690161920060DT67590675900000019562800101800000010180010177287283097900011000071040720230000000184609723000000000024108549657XXXXXX8928       MS02WI09          NY 1 0 AMDSKLNIDS0407  N840000000001846          05DNPLANET VAPOR #1100       483699    MD84000000001846 N  599977439645                            000000000+M10101C5434C    MDS  00402                     000000000  N                0000000000000.00 0000000.00   0000000.00                             000000000000000                                                                                                                                                   B101418  000000000000 0000000000000.34     01050 01500                  
03265700161920061DT67590675900000019562800101800000010180010124001193097900011000087040720230000000107509723000000000024108400022XXXXXX3973       VK04VS111111111   NYV1 A E303097781804027N8400000000010755GNN00    07DNPLANET VAPOR #1100       342092    VD84000000001075 N  599977439645                            000000000+                F DF 10439                     000000000  Y000000000 331   0000000000000.00 0000000.00   0000000.00                             000000000000000                                                                                                                                                     01418 F000000000000 0000000000000.23     00050 02200                  
03265710161920062BH6759067590000000096880111580000090170407202309723000000000016900    0000090001725069N8011156759C04092023                                                                                                                                                                                                                                                                                                                                                                                                                                                                                                                                                                                                 
03265720161920063DT67590675900000000968801115800000010180111524001193097900017259521040720230000000535009723000000000016900474476XXXXXX7031               2111111   NYV4 A7W583097066051279N840000000005350RDD900    01DNHIGHER FLOUR LLC         115106    VD84000000005350 NP1546271004114   R2XAWLYO7NV1M8TGD7QQ     000000000+                F DF 10420                     000000000  Y000000000 338   0000000000000.00 0000000.00   0000000.00                             000000000000000                                                                                                                                                     01418 G000000005350 0000000000000.25     00050 02200                  
03265730161920001P16759067590000000096880111580000001010000000000000000                             2000000000000000000000000              000000000000                    0000000000000000000000000                    000000000000                                                                                                                                                                                                                                                                                                                                                                                                                                                                                        
03265740161920064DT67590675900000000968801115800000010180111524001193097900017217065040720230000000577509723000000000016900478200XXXXXX3656               2111111   NYV4 A7W463097732789990N840000000005775K4G700    01DNHIGHER FLOUR LLC         092116    VD84000000005775 NP1546271004114   R3QAO7DUFSD4OCBI6FYO     000000000+                F DF 10420                     000000000  Y000000000 338   0000000000000.00 0000000.00   0000000.00                             000000000000000                                                                                                                                                     01418 G000000005775 0000000000000.25     00050 02200                  
03265750161920001P16759067590000000096880111580000001010000000000000000                             2000000000000000000000000              000000000000                    0000000000000000000000000                    000000000000                                                                                                                                                                                                                                                                                                                                                                                                                                                                                        
03265760161920065DT67590675900000000968801115800000010180111587287283097900017250695040720230000000577509723000000000016900524366XXXXXX2315       ME03KE06PT01      NY 4607AMCWJNHWJP0406  N840000000005775          81DNHIGHER FLOUR LLC         00681P    MC84000000005775 N  546200000001   reIay7RPeMAhh8C0tIGW     000000000+600450S00140    MCW  00642                     000000000  N                0000000000000.00 0000000.00   0000000.00                             000000000000000                                                                                                                                                   U001418  000000000000 0000000000001.37     02200 01000                  
03265770161920066BH6759067590000001107280010180000090170407202309723000000000029995    0000090001210011N8001016759C04092023                                                                                                                                                                                                                                                                                                                                                                                                                                                                                                                                                                                                 
03265780161920067DT67590675900000011072800101800000010180010124001193097900012100019040720230000000347509723000000000029995448968XXXXXX2066       VS11    0001111   NYV1 A E583097578486735N8400000000034756HSJ00    07DNPLANET VAPOR INC #1000   184757    VD84000000003475 N  599977385027                            000000000+                F DF 00381                     000000000  N000000000       0000000000000.00 0000000.00   0000000.00                             000000000000000                                                                                                                                                     01418 A000000000000 0000000000000.43     00800 01500                  
03265790161920068DT67590675900000011072800101800000010180010124001193097900012100027040720230000000278109723000000000029995433477XXXXXX1831       VS11    0001111   NYV1 A E383097581648437N8400000000027814NJR00    05DNPLANET VAPOR INC #1000   485157    VD84000000002781 N  599977385027                            000000000+                F DF 10433                     000000000  Y000000000 338   0000000000000.00 0000000.00   0000000.00                             000000000000000                                                                                                                                                     01418 A000000000000 0000000000000.23     00050 02200                  
03265800161920069DT67590675900000011072800101800000010180010124001193097900012100035040720230000000556209723000000000029995440393XXXXXX9459       VS11    0001111   NYV1 A E383097583970527N840000000005562JD3X00    05DNPLANET VAPOR INC #1000   181411    VD84000000005562 N  599977385027                            000000000+                F PF 08170                     000000000  N000000000       0000000000000.00 0000000.00   0000000.00                             000000000000000                                                                                                                                                     01418 A000000000000 0000000000000.79     01150 01500                  
03265810161920070DT67590675900000011072800101800000010180010124001193097900012100043040720230000000187309723000000000029995440393XXXXXX3752       VS11    0001111   NYV1 A E583097592533954N840000000001873RKNK00    05DNPLANET VAPOR INC #1000   542354    VD84000000001873 N  599977385027                            000000000+                F PF 08170                     000000000  N000000000       0000000000000.00 0000000.00   0000000.00                             000000000000000                                                                                                                                                     01418 A000000000000 0000000000000.37     01150 01500                  
03265820161920071DT67590675900000011072800101800000010180010124001193097900012100050040720230000000182309723000000000029995498503XXXXXX3953       VS11    0001111   NYV1 A E463097607616608N840000000001823BG4300    05DNPLANET VAPOR INC #1000   006612    VD84000000001823 N  599977385027                            000000000+                F DF 00381                     000000000  N000000000       0000000000000.00 0000000.00   0000000.00                             000000000000000                                                                                                                                                     01418 A000000000000 0000000000000.30     00800 01500                  
03265830161920072DT67590675900000011072800101800000010180010124001193097900012100068040720230000000203209723000000000029995408138XXXXXX7446       VS11    0001111   NYV1 A E583097741253096N840000000002032V5W500    07DNPLANET VAPOR INC #1000   271167    VD84000000002032 N  599977385027                            000000000+                F PF 08170                     000000000  N000000000       0000000000000.00 0000000.00   0000000.00                             000000000000000                                                                                                                                                     01418 A000000000000 0000000000000.38     01150 01500                  
03265840161920073DT67590675900000011072800101800000010180010177287283097900012100078040720230000000427609723000000000029995515549XXXXXX6711       MS02WI09          NY 1 0 AMPVNM10NR0407  N840000000004276          05DNPLANET VAPOR INC #1000   D86C6J    MD84000000004276 N  599977385027                            000000000+M10101C5434C    MPV  11964                     000000000  N                0000000000000.00 0000000.00   0000000.00                             000000000000000                                                                                                                                                   B101418  000000000000 0000000000000.64     01150 01500                  
03265850161920074DT67590675900000011072800101800000010180010124001193097900012100084040720230000000230809723000000000029995413037XXXXXX9285       VS11    0001111   NYV1 A E583097788070642N840000000002308MJLW00    05DNPLANET VAPOR INC #1000   011440    VD84000000002308 N  599977385027                            000000000+                F DF 10433                     000000000  Y000000000 338   0000000000000.00 0000000.00   0000000.00                             000000000000000                                                                                                                                                     01418 A000000000000 0000000000000.23     00050 02200                  
03265860161920075DT67590675900000011072800101800000010180010124001193097900012100092040720230000000272709723000000000029995430602XXXXXX9659       VS11    0001111   NYV1 A E463097803390160N84000000000272723S900    05DNPLANET VAPOR INC #1000   263851    VD84000000002727 N  599977385027                            000000000+                F DF 00381                     000000000  N000000000       0000000000000.00 0000000.00   0000000.00                             000000000000000                                                                                                                                                     01418 A000000000000 0000000000000.37     00800 01500                  
03265870161920076DT67590675900000011072800101800000010180010124001193097900012100100040720230000000182909723000000000029995433477XXXXXX1288       VS11    0001111   NYV1 A E383097848719610N8400000000018297FVP00    05DNPLANET VAPOR INC #1000   011328    VD84000000001829 N  599977385027                            000000000+                F DF 10433                     000000000  Y000000000 338   0000000000000.00 0000000.00   0000000.00                             000000000000000                                                                                                                                                     01418 A000000000000 0000000000000.23     00050 02200                  
03265880161920077DT67590675900000011072800101800000010180010124001193097900012100118040720230000000130909723000000000029995448968XXXXXX2066       VK04VS111111111   NYV1 A E583097863242887N840000000001309GCP200    07DNPLANET VAPOR INC #1000   278927    VD84000000001309 N  599977385027                            000000000+                F DF 00451                     000000000  N000000000 214   0000000000000.00 0000000.00   0000000.00                             000000000000000                                                                                                                                                     01418 F000000000000 0000000000000.24     01550 00400                  
03265890161920078BH6759067590000000708880010180000090170407202309723000000000118392    0000090001230032N8001016759C04092023                                                                                                                                                                                                                                                                                                                                                                                                                                                                                                                                                                                                 
03265900161920079DT67590675900000007088800101800000010180010177287283097900012300017040720230000000237509723000000000118392514230XXXXXX0518       MS02WI09          NY 1 0 AMDJNLU71Y0407  N840000000002375          07DNPLANET VAPOR INC #200    752ED9    MD84000000002375 N  599977384620                            000000000+M10101M0034C    MDJ  00402                     000000000  N                0000000000000.00 0000000.00   0000000.00                             000000000000000                                                                                                                                                   B101418  000000000000 0000000000000.40     01050 01500                  
03265910161920080DT67590675900000007088800101800000010180010124001193097900012300023040720230000000262209723000000000118392465992XXXXXX2952       VS11    0001111   NYV1 A E583097532600764N840000000002622FLP300    07DNPLANET VAPOR INC #200    709494    VD84000000002622 N  599977384620                            000000000+                F DF 00381                     000000000  N000000000       0000000000000.00 0000000.00   0000000.00                             000000000000000                                                                                                                                                     01418 A000000000000 0000000000000.36     00800 01500                  
03265920161920081DT67590675900000007088800101800000010180010124001193097900012300031040720230000000215909723000000000118392430602XXXXXX9888       VS11    0001111   NYV1 A E583097537251385N8400000000021592S2300    07DNPLANET VAPOR INC #200    173930    VD84000000002159 N  599977384620                            000000000+                F DF 00381                     000000000  N000000000       0000000000000.00 0000000.00   0000000.00                             000000000000000                                                                                                                                                     01418 A000000000000 0000000000000.32     00800 01500                  
03265930161920082DT67590675900000007088800101800000010180010124001193097900012300049040720230000000388609723000000000118392421783XXXXXX4459       VS11    0001111   NYV1 A E303097542282530N84000000000388632W900    05DNPLANET VAPOR INC #200    023610    VS84000000003886 N  599977384620                            000000000+                A CA 12110                     000000000  N000000000 493   0000000000000.00 0000000.00   0000000.00                             000000000000000                                                                                                                                                     01418 A000000000000 0000000000000.69     01510 01000                  
03265940161920083DT67590675900000007088800101800000010180010124001193097900012300056040720230000000928509723000000000118392487917XXXXXX9948       VS11    0001111   NYV1 A E583097545725778N840000000009285KKVS00    05DNPLANET VAPOR INC #200    130172    VD84000000009285 N  599977384620                            000000000+                F DF 00381                     000000000  N000000000       0000000000000.00 0000000.00   0000000.00                             000000000000000                                                                                                                                                     01418 A000000000000 0000000000000.89     00800 01500                  
03265950161920084DT67590675900000007088800101800000010180010124001193097900012300064040720230000000690809723000000000118392458643XXXXXX6911       VS11    0001111   NYV1 A E583097559025077N8400000000069087XFC00    05DNPLANET VAPOR INC #200    H10120    VD84000000006908 N  599977384620                            000000000+                F DF 10433                     000000000  Y000000000 338   0000000000000.00 0000000.00   0000000.00                             000000000000000                                                                                                                                                     01418 A000000000000 0000000000000.25     00050 02200                  
03265960161920085DT67590675900000007088800101800000010180010124001193097900012300072040720230000000280709723000000000118392400022XXXXXX3257       VS11    0001111   NYV1 A E383097570255644N840000000002807PRND00    05DNPLANET VAPOR INC #200    395949    VD84000000002807 N  599977384620                            000000000+                F DF 10433                     000000000  Y000000000 338   0000000000000.00 0000000.00   0000000.00                             000000000000000                                                                                                                                                     01418 A000000000000 0000000000000.23     00050 02200                  
03265970161920086DT67590675900000007088800101800000010180010124001193097900012300080040720230000000528909723000000000118392474474XXXXXX2281       VS11    0001111   NYV1 A E583097574018556N840000000005289XZFQ00    07DNPLANET VAPOR INC #200    165563    VD84000000005289 N  599977384620                            000000000+                F DF 10433                     000000000  Y000000000 338   0000000000000.00 0000000.00   0000000.00                             000000000000000                                                                                                                                                     01418 A000000000000 0000000000000.25     00050 02200                  
03265980161920087DT67590675900000007088800101800000010180010124001193097900012300098040720230000000184609723000000000118392400022XXXXXX0816       VS11    0001111   NYV1 A E463097575829519N840000000001846TPJH00    07DNPLANET VAPOR INC #200    587098    VD84000000001846 N  599977384620                            000000000+                F DF 10433                     000000000  Y000000000 338   0000000000000.00 0000000.00   0000000.00                             000000000000000                                                                                                                                                     01418 A000000000000 0000000000000.23     00050 02200                  
03265990161920088DT67590675900000007088800101800000010180010124001193097900012300106040720230000000180209723000000000118392413037XXXXXX7755       VS11    0001111   NYV1 A E583097599165704N840000000001802HX5N00    07DNPLANET VAPOR INC #200    068745    VD84000000001802 N  599977384620                            000000000+                F DF 10433                     000000000  Y000000000 338   0000000000000.00 0000000.00   0000000.00                             000000000000000                                                                                                                                                     01418 A000000000000 0000000000000.23     00050 02200                  
03266000161920089DT67590675900000007088800101800000010180010124001193097900012300114040720230000000174909723000000000118392400022XXXXXX5058       VS11    0001111   NYV1 A E303097626347454N84000000000174994KX00    07DNPLANET VAPOR INC #200    379234    VD84000000001749 N  599977384620                            000000000+                F DF 10433                     000000000  Y000000000 338   0000000000000.00 0000000.00   0000000.00                             000000000000000                                                                                                                                                     01418 A000000000000 0000000000000.23     00050 02200                  
03266010161920090DT67590675900000007088800101800000010180010124001193097900012300122040720230000000053909723000000000118392400022XXXXXX5058       VK04VS111111111   NYV1 A E303097629753026N840000000000539R95D00    05DNPLANET VAPOR INC #200    567885    VD84000000000539 N  599977384620                            000000000+                F DF 10439                     000000000  Y000000000 331   0000000000000.00 0000000.00   0000000.00                             000000000000000                                                                                                                                                     01418 F000000000000 0000000000000.22     00050 02200                  
03266020161920091DT67590675900000007088800101800000010180010124001193097900012300130040720230000000505209723000000000118392405376XXXXXX0161       VS11    0001111   NYV1 A E583097633437127N84000000000505264XM00    05DNPLANET VAPOR INC #200    437127    VD84000000005052 N  599977384620                            000000000+                F DF 00381                     000000000  N000000000       0000000000000.00 0000000.00   0000000.00                             000000000000000                                                                                                                                                     01418 A000000000000 0000000000000.55     00800 01500                  
03266030161920092DT67590675900000007088800101800000010180010124001193097900012300148040720230000000280709723000000000118392466189XXXXXX2541       VS11    0001111   NYV1 A E583097634815522N840000000002807VX2C00    05DNPLANET VAPOR INC #200    043228    VD84000000002807 N  599977384620                            000000000+                F DF 10433                     000000000  Y000000000 338   0000000000000.00 0000000.00   0000000.00                             000000000000000                                                                                                                                                     01418 A000000000000 0000000000000.23     00050 02200                  
03266040161920093DT67590675900000007088800101800000010180010124001193097900012300155040720230000000690809723000000000118392433477XXXXXX4438       VS11    0001111   NYV1 A E583097674367610N840000000006908JGJT00    05DNPLANET VAPOR INC #200    675194    VD84000000006908 N  599977384620                            000000000+                F DF 10433                     000000000  Y000000000 338   0000000000000.00 0000000.00   0000000.00                             000000000000000                                                                                                                                                     01418 A000000000000 0000000000000.25     00050 02200                  
03266050161920094DT67590675900000007088800101800000010180010124001193097900012300163040720230000000237509723000000000118392474474XXXXXX5781       VS11    0001111   NYV1 A E583097684846826N840000000002375XCXL00    07DNPLANET VAPOR INC #200    110516    VD84000000002375 N  599977384620                            000000000+                F DF 10433                     000000000  Y000000000 338   0000000000000.00 0000000.00   0000000.00                             000000000000000                                                                                                                                                     01418 A000000000000 0000000000000.23     00050 02200                  
03266060161920095DT67590675900000007088800101800000010180010177287283097900012300173040720230000000777309723000000000118392510805XXXXXX9419       MS02WI09          NY 2 0 AMDJM9FA8X0407  N840000000007773          07DNPLANET VAPOR INC #200    043613    MD84000000007773 N  599977384620                            000000000+M10101M1334C    MDJ  10815                     000000000  1                0000000000000.00 0000000.00   0000000.00                             000000000000000                                                                                                                                                   B101418  000000000000 0000000000000.26     00050 02200                  
03266070161920096DT67590675900000007088800101800000010180010124001193097900012300189040720230000000205109723000000000118392423223XXXXXX9066       VS11    0001111   NYV1 A E383097706726530N8400000000020516B2T00    05DNPLANET VAPOR INC #200    013532    VD84000000002051 N  599977384620                            000000000+                F DF 00381                     000000000  N000000000       0000000000000.00 0000000.00   0000000.00                             000000000000000                                                                                                                                                     01418 A000000000000 0000000000000.31     00800 01500                  
03266080161920097DT67590675900000007088800101800000010180010124001193097900012300197040720230000000369109723000000000118392456367XXXXXX5732       VS11    0001111   NYV1 A E463097707744266N840000000003691VPZQ00    05DNPLANET VAPOR INC #200    H47682    VD84000000003691 N  599977384620                            000000000+                F DF 10433                     000000000  Y000000000 338   0000000000000.00 0000000.00   0000000.00                             000000000000000                                                                                                                                                     01418 A000000000000 0000000000000.24     00050 02200                  
03266090161920098DT67590675900000007088800101800000010180010124001193097900012300205040720230000000252609723000000000118392433477XXXXXX9944       VS11    0001111   NYV1 A E463097717154942N840000000002526RZT300    05DNPLANET VAPOR INC #200    758907    VD84000000002526 N  599977384620                            000000000+                F DF 10433                     000000000  Y000000000 338   0000000000000.00 0000000.00   0000000.00                             000000000000000                                                                                                                                                     01418 A000000000000 0000000000000.23     00050 02200                  
03266100161920099DT67590675900000007088800101800000010180010124001193097900012300213040720230000000326409723000000000118392433477XXXXXX2225       VS11    0001111   NYV1 A E303097744851442N840000000003264FX6N00    05DNPLANET VAPOR INC #200    812488    VD84000000003264 N  599977384620                            000000000+                F DF 10433                     000000000  Y000000000 338   0000000000000.00 0000000.00   0000000.00                             000000000000000                                                                                                                                                     01418 A000000000000 0000000000000.24     00050 02200                  
03266110161920100DT67590675900000007088800101800000010180010177287283097900012300223040720230000000647809723000000000118392517805XXXXXX3122       MS02WI09          NY 1 0 AMWEPRXL8X0407  N840000000006478          07DNPLANET VAPOR INC #200    09596P    MC84000000006478 N  599977384620                            000000000+M10101M5434C    MWE  00739                     000000000  N                0000000000000.00 0000000.00   0000000.00                             000000000000000                                                                                                                                                   B101418  000000000000 0000000000001.59     02300 01000                  
03266120161920101DT67590675900000007088800101800000010180010124001193097900012300239040720230000000280709723000000000118392473703XXXXXX5066       VS11    0001111   NYV1 A E383097763963532N8400000000028074M6C00    05DNPLANET VAPOR INC #200    093629    VD84000000002807 N  599977384620                            000000000+                F DF 10433                     000000000  Y000000000 338   0000000000000.00 0000000.00   0000000.00                             000000000000000                                                                                                                                                     01418 A000000000000 0000000000000.23     00050 02200                  
03266130161920102DT67590675900000007088800101800000010180010124001193097900012300247040720230000000323909723000000000118392473703XXXXXX4306       VS11    0001111   NYV1 A E383097782567326N840000000003239WTRF00    05DNPLANET VAPOR INC #200    033537    VD84000000003239 N  599977384620                            000000000+                F DF 10433                     000000000  Y000000000 338   0000000000000.00 0000000.00   0000000.00                             000000000000000                                                                                                                                                     01418 A000000000000 0000000000000.24     00050 02200                  
03266140161920103DT67590675900000007088800101800000010180010124001193097900012300254040720230000000269909723000000000118392474474XXXXXX6447       VS11    0001111   NYV1 A E303097797282722N840000000002699M8GH00    07DNPLANET VAPOR INC #200    170387    VD84000000002699 N  599977384620                            000000000+                F DF 10433                     000000000  Y000000000 338   0000000000000.00 0000000.00   0000000.00                             000000000000000                                                                                                                                                     01418 A000000000000 0000000000000.23     00050 02200                  
03266150161920104DT67590675900000007088800101800000010180010177287283097900012300264040720230000000539909723000000000118392515676XXXXXX8274       MS02WI09          NY 1 0 AMWEOZEXNR0407  N840000000005399          07DNPLANET VAPOR INC #200    00061Z    MC84000000005399 N  599977384620                            000000000+M10101M5434C    MWE  00739                     000000000  N                0000000000000.00 0000000.00   0000000.00                             000000000000000                                                                                                                                                   B101418  000000000000 0000000000001.34     02300 01000                  
03266160161920105DT67590675900000007088800101800000010180010124001193097900012300270040720230000000242909723000000000118392448251XXXXXX8614       VS11    0001111   NYV1 A E303097812400545N840000000002429KSCL00    07DNPLANET VAPOR INC #200    083400    VD84000000002429 N  599977384620                            000000000+                F DF 00381                     000000000  N000000000       0000000000000.00 0000000.00   0000000.00                             000000000000000                                                                                                                                                     01418 A000000000000 0000000000000.34     00800 01500                  
03266170161920106DT67590675900000007088800101800000010180010124001193097900012300288040720230000000626109723000000000118392400022XXXXXX2572       VS11    0001111   NYV1 A E463097827369911N840000000006261JT7S00    07DNPLANET VAPOR INC #200    388761    VD84000000006261 N  599977384620                            000000000+                F DF 10433                     000000000  Y000000000 338   0000000000000.00 0000000.00   0000000.00                             000000000000000                                                                                                                                                     01418 A000000000000 0000000000000.25     00050 02200                  
03266180161920107DT67590675900000007088800101800000010180010124001193097900012300296040720230000000215809723000000000118392430602XXXXXX5527       VS11    0001111   NYV1 A E383097842948473N840000000002158FWM200    05DNPLANET VAPOR INC #200    273882    VD84000000002158 N  599977384620                            000000000+                F DF 00381                     000000000  N000000000       0000000000000.00 0000000.00   0000000.00                             000000000000000                                                                                                                                                     01418 A000000000000 0000000000000.32     00800 01500                  
03266190161920108DT67590675900000007088800101800000010180010124001193097900012300304040720230000000631609723000000000118392453506XXXXXX5538       VS11    0001111   NYV1 A E383097849577609N840000000006316QFTL00    07DNPLANET VAPOR INC #200    H89940    VD84000000006316 N  599977384620                            000000000+                F DF 10433                     000000000  Y000000000 338   0000000000000.00 0000000.00   0000000.00                             000000000000000                                                                                                                                                     01418 A000000000000 0000000000000.25     00050 02200                  
03266200161920109DT67590675900000007088800101800000010180010124001193097900012300312040720230000000075509723000000000118392461675XXXXXX6773       VK04VS111111111   NYV1 A E583097863754974N8400000000007554TMW00    05DNPLANET VAPOR INC #200    607440    VD84000000000755 N  599977384620                            000000000+                F DF 00451                     000000000  N000000000 214   0000000000000.00 0000000.00   0000000.00                             000000000000000                                                                                                                                                     01418 F000000000000 0000000000000.16     01550 00400                  
03266210161920110DT67590675900000007088800101800000010180010124001193097900012300320040720230000000213709723000000000118392466189XXXXXX9732       VS11    0001111   NYV1 A E463098003034373N840000000002137SRNF00    07DNPLANET VAPOR INC #200    028156    VD84000000002137 N  599977384620                            000000000+                F DF 10433                     000000000  Y000000000 338   0000000000000.00 0000000.00   0000000.00                             000000000000000                                                                                                                                                     01418 A000000000000 0000000000000.23     00050 02200                  
03266220161920111BH6759067590000000833480010180000090170407202309723000000000298247    0000090001230068N8001016759C04092023                                                                                                                                                                                                                                                                                                                                                                                                                                                                                                                                                                                                 
03266230161920112DT67590675900000008334800101800000010180010124001193097900012300015040720230000000438509723000000000298247466189XXXXXX3628       VS11    0001111   NYV1 A E583097508061276N840000000004385GXKP00    07DNPLANET VAPOR INC #400    032825    VD84000000004385 N  599977384698                            000000000+                F DF 10433                     000000000  Y000000000 338   0000000000000.00 0000000.00   0000000.00                             000000000000000                                                                                                                                                     01418 A000000000000 0000000000000.24     00050 02200                  
03266240161920113DT67590675900000008334800101800000010180010124001193097900012300023040720230000000235309723000000000298247430602XXXXXX0758       VS11    0001111   NYV1 A E383097510878393N840000000002353QB4B00    05DNPLANET VAPOR INC #400    167960    VD84000000002353 N  599977384698                            000000000+                F DF 00381                     000000000  N000000000       0000000000000.00 0000000.00   0000000.00                             000000000000000                                                                                                                                                     01418 A000000000000 0000000000000.34     00800 01500                  
03266250161920114DT67590675900000008334800101800000010180010124001193097900012300031040720230000000320809723000000000298247463405XXXXXX9940       VS11    0001111   NYV1 A E463097511593755N840000000003208ZTFR00    05DNPLANET VAPOR INC #400    092660    VD84000000003208 N  599977384698                            000000000+                F DF 10433                     000000000  Y000000000 338   0000000000000.00 0000000.00   0000000.00                             000000000000000                                                                                                                                                     01418 A000000000000 0000000000000.24     00050 02200                  
03266260161920115DT67590675900000008334800101800000010180010124001193097900012300049040720230000000641909723000000000298247461675XXXXXX5222       VS11    0001111   NYV1 A E583097521917414N8400000000064194PLK00    05DNPLANET VAPOR INC #400    148560    VD84000000006419 N  599977384698                            000000000+                F DF 00381                     000000000  N000000000       0000000000000.00 0000000.00   0000000.00                             000000000000000                                                                                                                                                     01418 A000000000000 0000000000000.66     00800 01500                  
03266270161920116DT67590675900000008334800101800000010180010124001193097900012300056040720230000000288709723000000000298247466189XXXXXX0145       VS11    0001111   NYV1 A E303097533969013N8400000000028877DR200    05DNPLANET VAPOR INC #400    090887    VD84000000002887 N  599977384698                            000000000+                F DF 10433                     000000000  Y000000000 338   0000000000000.00 0000000.00   0000000.00                             000000000000000                                                                                                                                                     01418 A000000000000 0000000000000.23     00050 02200                  
03266280161920117DT67590675900000008334800101800000010180010124001193097900012300064040720230000000235309723000000000298247440393XXXXXX6628       VS11    0001111   NYV1 A E463097536396103N840000000002353T52200    05DNPLANET VAPOR INC #400    401973    VD84000000002353 N  599977384698                            000000000+                F PF 08170                     000000000  N000000000       0000000000000.00 0000000.00   0000000.00                             000000000000000                                                                                                                                                     01418 A000000000000 0000000000000.42     01150 01500                  
03266290161920118DT67590675900000008334800101800000010180010124001193097900012300072040720230000000320809723000000000298247473703XXXXXX8267       VS11    0001111   NYV1 A E383097551677947N840000000003208K9W300    05DNPLANET VAPOR INC #400    064859    VD84000000003208 N  599977384698                            000000000+                F DF 10433                     000000000  Y000000000 338   0000000000000.00 0000000.00   0000000.00                             000000000000000                                                                                                                                                     01418 A000000000000 0000000000000.24     00050 02200                  
03266300161920119DT67590675900000008334800101800000010180010124001193097900012300080040720230000000203209723000000000298247406042XXXXXX7437       VS11    0001111   NYV1 A E583097554250788N8400000000020325RVD00    05DNPLANET VAPOR INC #400    052311    VD84000000002032 N  599977384698                            000000000+                F DF 10433                     000000000  Y000000000 338   0000000000000.00 0000000.00   0000000.00                             000000000000000                                                                                                                                                     01418 A000000000000 0000000000000.23     00050 02200                  
