02990900243820002BH6759067590000000370780088880000090170310202306923000000000059753    0000090001560382Y8008886759C03132023                                                                                                                                                                                                                                                                                                                                                                                                                                                                                                                                                                                                 
02990910243820003DT67590675900000003707800888800000010180088824001193069900015603740030920230000000432306923000000000059753409311XXXXXX1615               2111111   NYV4 A7W303069122974805N840000000004323ZDFW00    01DNMR HEMP FLOWER           020453    VD84000000004323 NP1549976053336   86956                    000000000+                F DF 10420                     000000000  Y000000000 338   0000000000000.00 0000000.00   0000000.00                             000000000000000                                                                                                                                                     01424 G000000004323 0000000000000.24     00050 02200                  
02990920243820001P16759067590000000370780088880000001010000000000000000                             2000000000000000000000000              000000000000                    0000000000000000000000000                    000000000000                                                                                                                                                                                                                                                                                                                                                                                                                                                                                        
02990930243820004DT67590675900000003707800888800000010180088824001193069900015603757031020230000000589906923000000000059753402944XXXXXX8341               2111111   NYV4 A7W383069592663060N840000000005899WV9R00    01DNMR HEMP FLOWER           002746    VD84000000005899 NP1549976053336   86972                    000000000+                F DF 10420                     000000000  Y000000000 338   0000000000000.00 0000000.00   0000000.00                             000000000000000                                                                                                                                                     01424 G000000005899 0000000000000.25     00050 02200                  
02990940243820001P16759067590000000370780088880000001010000000000000000                             2000000000000000000000000              000000000000                    0000000000000000000000000                    000000000000                                                                                                                                                                                                                                                                                                                                                                                                                                                                                        
02990950243820005DT67590675900000003707800888800000010180088824001193069900015603765031020230000000649706923000000000059753448224XXXXXX9167               2111111   NYV4 A7W463069660532727N840000000006497WRKM00    01DNMR HEMP FLOWER           019314    VD84000000006497 NP1549976053336   86983                    000000000+                F DF 00415                     000000000  N000000000       0000000000000.00 0000000.00   0000000.00                             000000000000000                                                                                                                                                     01424 G000000006497 0000000000001.22     01650 01500                  
02990960243820001P16759067590000000370780088880000001010000000000000000                             2000000000000000000000000              000000000000                    0000000000000000000000000                    000000000000                                                                                                                                                                                                                                                                                                                                                                                                                                                                                        
02990970243820006DT67590675900000003707800888800000010180088824001193069900015603773031020230000000349906923000000000059753425907XXXXXX8464               2111111   NYV4 A7W463069677800205N840000000003499R6QM00    01DNMR HEMP FLOWER           058480    VD84000000003499 NP1549976053336   86984                    000000000+                G DG 10352                     000000000  Y000000000 338   0000000000000.00 0000000.00   0000000.00                             000000000000000                                                                                                                                                     01424 G000000003499 0000000000000.24     00050 02200                  
02990980243820001P16759067590000000370780088880000001010000000000000000                             2000000000000000000000000              000000000000                    0000000000000000000000000                    000000000000                                                                                                                                                                                                                                                                                                                                                                                                                                                                                        
02990990243820007DT67590675900000003707800888800000010180088824001193069900015603799031020230000001049706923000000000059753473703XXXXXX0723               2111111   NYV4 A7W463069772979475N840000000010497BLF300    01DNMR HEMP FLOWER           086147    VD84000000010497 NP1549976053336   86993                    000000000+                F DF 10420                     000000000  Y000000000 338   0000000000000.00 0000000.00   0000000.00                             000000000000000                                                                                                                                                     01424 G000000010497 0000000000000.27     00050 02200                  
02991000243820001P16759067590000000370780088880000001010000000000000000                             2000000000000000000000000              000000000000                    0000000000000000000000000                    000000000000                                                                                                                                                                                                                                                                                                                                                                                                                                                                                        
02991010243820008DT67590675900000003707800888800000010180088824001193069900015603807031020230000001704006923000000000059753426938XXXXXX2496               2111111   NYV4 A7W383069776697264N8400000000170407HPV00    01DNMR HEMP FLOWER           010853    VS84000000017040 NP1549976053336   86994                    000000000+                B CB 12107                     000000000  N000000000 494   0000000000000.00 0000000.00   0000000.00                             000000000000000                                                                                                                                                     01424 G000000017040 0000000000003.58     02040 01000                  
02991020243820001P16759067590000000370780088880000001010000000000000000                             2000000000000000000000000              000000000000                    0000000000000000000000000                    000000000000                                                                                                                                                                                                                                                                                                                                                                                                                                                                                        
02991030243820009DT67590675900000003707800888800000010180088824001193069900015603815031020230000000789906923000000000059753409758XXXXXX1585               2111111   NYV4 A7W383069837345420N840000000007899X2MV00    01DNMR HEMP FLOWER           316614    VD84000000007899 NP1549976053336   87002                    000000000+                F PF 08175                     000000000  N000000000       0000000000000.00 0000000.00   0000000.00                             000000000000000                                                                                                                                                     01424 G000000007899 0000000000001.58     01750 02000                  
02991040243820001P16759067590000000370780088880000001010000000000000000                             2000000000000000000000000              000000000000                    0000000000000000000000000                    000000000000                                                                                                                                                                                                                                                                                                                                                                                                                                                                                        
02991050243820010DT67590675900000003707800888800000010180088824001193069900015603823031020230000000409906923000000000059753434256XXXXXX5345               2111111   NYV4 A7W463069838167583N840000000004099WVGP00    01DNMR HEMP FLOWER           002437    VD84000000004099 NP1549976053336   87003                    000000000+                F DF 10420                     000000000  Y000000000 338   0000000000000.00 0000000.00   0000000.00                             000000000000000                                                                                                                                                     01424 G000000004099 0000000000000.24     00050 02200                  
02991060243820001P16759067590000000370780088880000001010000000000000000                             2000000000000000000000000              000000000000                    0000000000000000000000000                    000000000000                                                                                                                                                                                                                                                                                                                                                                                                                                                                                        
02991070243820011BH6759067590000001767380010680000090170310202306923000000000000555    0000090001010001Y8001066759C03132023                                                                                                                                                                                                                                                                                                                                                                                                                                                                                                                                                                                                 
02991080243820012DT67590675900000017673800106800000010180010687287283069900010100016030920230000000055506923000000000000555512230XXXXXX2143       ME03KE06MS02      NY 4607AMWEUN6P1B0309  N840000000000555          81DNVGHEMP.COM               79436Z    MC84000000000555 N  549977427364   8138312508               000000000+600450S00130    MWE  00737                     000000000  N                0000000000000.00 0000000.00   0000000.00                             000000000000000                                                                                                                                                   U001424  000000000000 0000000000000.24     02600 01000                  
02991090243820013BH675906759000000028818008888000009017031020230692300000000000001401970000090001740150N8008886759D03132023                                                                                                                                                                                                                                                                                                                                                                                                                                                                                                                                                                                                 
02991100243820014DT67590675900000002881800888800000010680088874001193069900017401494031020230000000659806923000000000000014427178XXXXXX8540               0000000   NNV4 07T583069605864078N840000000006598GK8700    01CNHAPPY HIPPIE             0700710197VD84000000006598 NP1549976044904   1966                     000000000+                F DF 00000                     000000000  Y000000000 369   0000000000000.00 0000000.00   0000000.00             000000000006598C000000000000000                                                                                                                                                     01424  000000006598 0000000000000.00     00000 00000                  
02991110243820001P16759067590000000288180088880000001060000000000000000                             2000000000000000000000000              000000000000                    0000000000000000000000000                    000000000000                                                                                                                                                                                                                                                                                                                                                                                                                                                                                        
02991120243820015DT67590675900000002881800888800000010180088824001193069900017401507031020230000000658406923000000000000014419090XXXXXX5887               2111111   NNV4 A7W383069799204059N840000000006584LT6300    01DNHAPPY HIPPIE             2832370197VD84000000006584 NP1549976044904   1967                     000000000+                F DF 00000                     000000000  N000000000       0000000000000.00 0000000.00   0000000.00             000000000006584D000000000000000                                                                                                                                                     01424 G000000006584 0000000000000.00     00000 00000                  
02991130243820001P16759067590000000288180088880000001010000000000000000                             2000000000000000000000000              000000000000                    0000000000000000000000000                    000000000000                                                                                                                                                                                                                                                                                                                                                                                                                                                                                        
02991140243820016BH6759067590000001857280010580000090170310202306923000000000000555    0000090001010002Y8001056759C03132023                                                                                                                                                                                                                                                                                                                                                                                                                                                                                                                                                                                                 
02991150243820017DT67590675900000018572800105800000010180010587287283069900010100024030920230000000055506923000000000000555512230XXXXXX2143       ME03KE06MS02      NY 4607AMWEB78K1C0309  N840000000000555          81DNGALLERY SMOKE SHOP LLC   57869Z    MC84000000000555 N  599977428319   8138374495               000000000+600450S00130    MWE  00737                     000000000  N                0000000000000.00 0000000.00   0000000.00                             000000000000000                                                                                                                                                   U001424  000000000000 0000000000000.24     02600 01000                  
02991160243820018BH6759067590000001427480010280000090170310202306923000000000477483    0000090001231839Y8001026759C03132023                                                                                                                                                                                                                                                                                                                                                                                                                                                                                                                                                                                                 
02991170243820019DT67590675900000014274800102800000010180010276509753069900012312459030920230000002487006923000000000477483601100XXXXXX2572   BA00                  NY 4 07N863055482045026N840000000024870    00    01DNCBD8666317293            00603R    DS84000000024870 N  549977145232070                         000000000+1015104910600   DCCDI11325500491  041004000000 000000000  0          460   0000000000000.00 0000000.00   0000000.00                             000000000000000                                                                                                                                                     01424  000000000000 0000000000005.15     02030 01000                  
02991180243820020DT67590675900000014274800102800000010180010287287283069900012313278030920230000001631806923000000000477483537961XXXXXX0491       ME03KE06MS02      NY 4607AMCGM128SQ0306  N840000000016318          81DNCBD8666317293            05151P    MC84000000016318 N  549977145232   471689C0BET35336F0274AA  000000000+600450S00130    MCG  00013                     000000000  N                0000000000000.00 0000000.00   0000000.00                             000000000000000                                                                                                                                                   U001424  000000000000 0000000000003.28     01950 01000                  
02991190243820021DT67590675900000014274800102800000010180010224001193069900012317484030920230000001624606923000000000477483423568XXXXXX1229               2111111   NYV4 A7W463069040972336N8400000000162469CMK00    01DNCBD8666317293            070817    VD84000000016246 NP1549977145232   6712657802T2397154042CE  000000000+                F DF 10420                     000000000  Y000000000 338   0000000000000.00 0000000.00   0000000.00                             000000000000000                                                                                                                                                     01424 G000000016246 0000000000000.30     00050 02200                  
02991200243820001P16759067590000001427480010280000001010000000000000000                             2000000000000000000000000              000000000000                    0000000000000000000000000                    000000000000                                                                                                                                                                                                                                                                                                                                                                                                                                                                                        
02991210243820022DT67590675900000014274800102800000010180010287287283069900012317527030920230000001925006923000000000477483539783XXXXXX4192       ME03KE06MS02      NY 4607AMDJSGJT0C0309  N840000000019250          81DNCBD8666317293            213517    MD84000000019250 N  549977145232   CA47E401A1TE3F5B28864AE  000000000+600450S00130    MDJ  00401                     000000000  N                0000000000000.00 0000000.00   0000000.00                             000000000000000                                                                                                                                                   U001424  000000000000 0000000000003.33     01650 01500                  
02991220243820023DT67590675900000014274800102800000010180010287287283069900012317535030920230000000159606923000000000477483549113XXXXXX8941       ME03KE06PT01      NY 4607AMCWCQKC1C0309  N840000000001596          81DNCBD8666317293            05425P    MC84000000001596 N  549977145232   2F9A3671FDT09E9B6B57114  000000000+600450S00130    MCW  00642                     000000000  N                0000000000000.00 0000000.00   0000000.00                             000000000000000                                                                                                                                                   U001424  000000000000 0000000000000.45     02200 01000                  
02991230243820024DT67590675900000014274800102800000010180010287287283069900012317543030920230000002487006923000000000477483526947XXXXXX0304       ME03KE06PT01      NY 4607AMCWS5VY0C0309  N840000000024870          81DNCBD8666317293            05670Z    MC84000000024870 N  549977145232   83025C48DBTB4F79C008876  000000000+600450S00130    MCW  00642                     000000000  N                0000000000000.00 0000000.00   0000000.00                             000000000000000                                                                                                                                                   U001424  000000000000 0000000000005.57     02200 01000                  
02991240243820025DT67590675900000014274800102800000010180010287287283069900012317568030920230000000339906923000000000477483532500XXXXXX4761       ME03KE06MS02      NY 4607AMDSK9DLYT0309  N840000000003399          81DNCBD8666317293            260253    MD84000000003399 N  549977145232   07D7C0CD60T7F70953A9057  000000000+600450S00130    MDS  00401                     000000000  N                0000000000000.00 0000000.00   0000000.00                             000000000000000                                                                                                                                                   U001424  000000000000 0000000000000.71     01650 01500                  
02991250243820026DT67590675900000014274800102800000010180010287287283069900012317576030920230000000137606923000000000477483532500XXXXXX4761       ME03KE06MS02      NY 4607AMDSV2AC1B0309  N840000000001376          81DNCBD8666317293            260263    MD84000000001376 N  549977145232   07D7C0CD60TE8A93D991326  000000000+600450S00130    MDS  00401                     000000000  N                0000000000000.00 0000000.00   0000000.00                             000000000000000                                                                                                                                                   U001424  000000000000 0000000000000.38     01650 01500                  
02991260243820027DT67590675900000014274800102800000010180010287287283069900012317584030920230000001558406923000000000477483531260XXXXXX7803       ME03KE06MS02      NY 4607AMDJTGO20C0309  N840000000015584          81DNCBD8666317293            152649    MD84000000015584 N  549977145232   9D9F21E2EFT998EB533D4D4  000000000+600450S00130    MDJ  10813                     000000000  1                0000000000000.00 0000000.00   0000000.00                             000000000000000                                                                                                                                                   U001424  000000000000 0000000000000.30     00050 02200                  
02991270243820028DT67590675900000014274800102800000010180010287287283069900012317592030920230000002390306923000000000477483517805XXXXXX6623       ME03KE06MS02      NY 4607AMPLT0JQ0C0309  N840000000023903          81DNCBD8666317293            09567B    MC84000000023903 N  549977145232   1102881859TF6BB5AC2B883  000000000+600450S00130    MPL  00580                     000000000  N                0000000000000.00 0000000.00   0000000.00                             000000000000000                                                                                                                                                   U001424  000000000000 0000000000005.12     02100 01000                  
02991280243820029DT67590675900000014274800102800000010180010287287283069900012317717031020230000001604006923000000000477483542418XXXXXX7899       ME03KE06MS02      NY 4607AMWEYSAT5E0310  N840000000016040          81DNCBD8666317293            76318P    MC84000000016040 N  549977145232   A1E9A5F13AT30CC38250231  000000000+600450S00130    MWE  00737                     000000000  N                0000000000000.00 0000000.00   0000000.00                             000000000000000                                                                                                                                                   U001424  000000000000 0000000000004.27     02600 01000                  
02991290243820030DT67590675900000014274800102800000010180010224001193069900012317765031020230000002651806923000000000477483448233XXXXXX0985               2111111   NYV4 A7W303069442587649N840000000026518BSKL00    01DNCBD8666317293            061738    VD84000000026518 NP1549977145232   0A6680E65AT52B41795E6C7  000000000+                F DF 10420                     000000000  Y000000000 338   0000000000000.00 0000000.00   0000000.00                             000000000000000                                                                                                                                                     01424 G000000026518 0000000000000.35     00050 02200                  
02991300243820001P16759067590000001427480010280000001010000000000000000                             2000000000000000000000000              000000000000                    0000000000000000000000000                    000000000000                                                                                                                                                                                                                                                                                                                                                                                                                                                                                        
02991310243820031DT67590675900000014274800102800000010180010224001193069900012317781031020230000001907006923000000000477483412777XXXXXX1155               2111111   NYV4 A7W583069487389094N8400000000190709LTC00    01DNCBD8666317293            000365    VS84000000019070 NP1549977145232   C0FA2004CET7468B961160A  000000000+                D CD 12109                     000000000  N000000000 498   0000000000000.00 0000000.00   0000000.00                             000000000000000                                                                                                                                                     01424 G000000019070 0000000000004.87     02500 01000                  
02991320243820001P16759067590000001427480010280000001010000000000000000                             2000000000000000000000000              000000000000                    0000000000000000000000000                    000000000000                                                                                                                                                                                                                                                                                                                                                                                                                                                                                        
02991330243820032DT67590675900000014274800102800000010180010224001193069900012317849031020230000002187706923000000000477483440066XXXXXX2745               2111111   NYV4 A7W583069499808835N840000000021877KZCX00    01DNCBD8666317293            05210D    VS84000000021877 NP1549977145232   70B1B10CD4T92AAA5EBBBE9  000000000+                D CD 12109                     000000000  N000000000 498   0000000000000.00 0000000.00   0000000.00                             000000000000000                                                                                                                                                     01424 G000000021877 0000000000005.57     02500 01000                  
02991340243820001P16759067590000001427480010280000001010000000000000000                             2000000000000000000000000              000000000000                    0000000000000000000000000                    000000000000                                                                                                                                                                                                                                                                                                                                                                                                                                                                                        
02991350243820033DT67590675900000014274800102800000010180010224001193069900012317864031020230000002740706923000000000477483440066XXXXXX6863               2111111   NYV4 A7W463069501713697N840000000027407KXR800    01DNCBD8666317293            02577C    VS84000000027407 NP1549977145232   6A445C07EAT477214177BDD  000000000+                C CC 12108                     000000000  N000000000 496   0000000000000.00 0000000.00   0000000.00                             000000000000000                                                                                                                                                     01424 G000000027407 0000000000005.72     02050 01000                  
02991360243820001P16759067590000001427480010280000001010000000000000000                             2000000000000000000000000              000000000000                    0000000000000000000000000                    000000000000                                                                                                                                                                                                                                                                                                                                                                                                                                                                                        
02991370243820034DT67590675900000014274800102800000010180010287287283069900012317931031020230000001596506923000000000477483510875XXXXXX8148       ME03KE06PT01      NY 4607AMCW1ITJ670310  N840000000015965          81DNCBD8666317293            00543S    MC84000000015965 N  549977145232   FFE37476B8TDB24149ACDD4  000000000+600450S00130    MCW  02182                     000000000  N                0000000000000.00 0000000.00   0000000.00                             000000000000000                                                                                                                                                   U001424  000000000000 0000000000004.25     02600 01000                  
02991380243820035DT67590675900000014274800102800000010180010287287283069900012317956031020230000001055606923000000000477483551072XXXXXX2768       ME03KE06MS02      NY 4607AMDSCAEXDW0310  N840000000010556          81DNCBD8666317293            007250    MD84000000010556 N  549977145232   2FCF4EDD44TA8F94A829BC1  000000000+600450S00130    MDS  00401                     000000000  N                0000000000000.00 0000000.00   0000000.00                             000000000000000                                                                                                                                                   U001424  000000000000 0000000000001.89     01650 01500                  
02991390243820036DT67590675900000014274800102800000010180010224001193069900012318037031020230000002487006923000000000477483426684XXXXXX6590               2111111   NYV4 A7W583069594054350N84000000002487086TT00    01DNCBD8666317293            00170D    VS84000000024870 NP1549977145232   B90861138ETA0FFE76CF9BC  000000000+                D CD 12109                     000000000  N000000000 498   0000000000000.00 0000000.00   0000000.00                             000000000000000                                                                                                                                                     01424 G000000024870 0000000000006.32     02500 01000                  
02991400243820001P16759067590000001427480010280000001010000000000000000                             2000000000000000000000000              000000000000                    0000000000000000000000000                    000000000000                                                                                                                                                                                                                                                                                                                                                                                                                                                                                        
02991410243820037DT67590675900000014274800102800000010180010287287283069900012318020031020230000001723506923000000000477483517805XXXXXX3552       ME03KE06MS02      NY 4607AMWE2K6W670310  N840000000017235          81DNCBD8666317293            00176P    MC84000000017235 N  549977145232   714B99D8EBTCD347608E977  000000000+600450S00130    MWE  00737                     000000000  N                0000000000000.00 0000000.00   0000000.00                             000000000000000                                                                                                                                                   U001424  000000000000 0000000000004.58     02600 01000                  
02991420243820038DT67590675900000014274800102800000010180010224001193069900012318094031020230000002673506923000000000477483473702XXXXXX9099               2111111   NYV4 A7W463069621813534N8400000000267352GB600    01DNCBD8666317293            034287    VD84000000026735 NP1549977145232   192646EA27TB7208FBE6B04  000000000+                F DF 10420                     000000000  Y000000000 338   0000000000000.00 0000000.00   0000000.00                             000000000000000                                                                                                                                                     01424 G000000026735 0000000000000.35     00050 02200                  
02991430243820001P16759067590000001427480010280000001010000000000000000                             2000000000000000000000000              000000000000                    0000000000000000000000000                    000000000000                                                                                                                                                                                                                                                                                                                                                                                                                                                                                        
02991440243820039DT67590675900000014274800102800000010680010274001193069900012318131031020230000000499906923000000000477483410039XXXXXX2140               0000000   NYV4 07T463069642510740N840000000004999X3SR00    01CNCBD8666317293            49151C    VS84000000004999 NP1549977145232   51045D6D8DT7C1C47E1BC33  000000000+                C CC 00245                     000000000  N000000000 166   0000000000000.00 0000000.00   0000000.00                             000000000000000                                                                                                                                                     01424  000000004999-0000000000000.88     01760 00000                  
02991450243820001P16759067590000001427480010280000001060000000000000000                             2000000000000000000000000              000000000000                    0000000000000000000000000                    000000000000                                                                                                                                                                                                                                                                                                                                                                                                                                                                                        
02991460243820040DT67590675900000014274800102800000010180010224001193069900012318144031020230000002412906923000000000477483474473XXXXXX6301               2111111   NYV4 A7W303069643328302N840000000024129X8ZK00    01DNCBD8666317293            155623    VD84000000024129 NP1549977145232   D1803546CET6D8DF71EBB16  000000000+                F DF 10420                     000000000  Y000000000 338   0000000000000.00 0000000.00   0000000.00                             000000000000000                                                                                                                                                     01424 G000000024129 0000000000000.34     00050 02200                  
02991470243820001P16759067590000001427480010280000001010000000000000000                             2000000000000000000000000              000000000000                    0000000000000000000000000                    000000000000                                                                                                                                                                                                                                                                                                                                                                                                                                                                                        
02991480243820041DT67590675900000014274800102800000010180010224001193069900012318151031020230000002487006923000000000477483410040XXXXXX3687               2111111   NYV4 A7W463069657807927N840000000024870C4TW00    01DNCBD8666317293            25263G    VB84000000024870 NP1549977145232   21E7D2E2DBT7C7B1A07800E  000000000+                G3CG308002                     000000000  N000000000 381   0000000000000.00 0000000.00   0000000.00                             000000000000000                                                                                                                                                     01424 G000000024870 0000000000007.06     02800 01000                  
02991490243820001P16759067590000001427480010280000001010000000000000000                             2000000000000000000000000              000000000000                    0000000000000000000000000                    000000000000                                                                                                                                                                                                                                                                                                                                                                                                                                                                                        
02991500243820042DT67590675900000014274800102800000010180010287287283069900012318228031020230000002071006923000000000477483519452XXXXXX5158       ME03KE06PT01      NY 4607AMCWYLZESD0310  N840000000020710          81DNCBD8666317293            05184Z    MC84000000020710 N  549977145232   451C4AA23AT15D3E058052B  000000000+600450S00130    MCW  00642                     000000000  N                0000000000000.00 0000000.00   0000000.00                             000000000000000                                                                                                                                                   U001424  000000000000 0000000000004.66     02200 01000                  
02991510243820043DT67590675900000014274800102800000010180010287287283069900012318244031020230000002592106923000000000477483517148XXXXXX0752       ME03KE06MS02      NY 4607AMWEN64DHN0310  N840000000025921          81DNCBD8666317293            04645Z    MC84000000025921 N  549977145232   FAC47A7959T95A19B0ABF5D  000000000+600450S00130    MWE  00737                     000000000  N                0000000000000.00 0000000.00   0000000.00                             000000000000000                                                                                                                                                   U001424  000000000000 0000000000006.84     02600 01000                  
02991520243820044DT67590675900000014274800102800000010680010274001193069900012318255031020230000001243506923000000000477483410040XXXXXX3687               0000000   NYV4 07T583069740819093N840000000012435QZK700    01CNCBD8666317293            28490G    VB84000000012435 NP1549977145232   21E7D2E2DBT7C7B1A07800E  000000000+                G3CG300246                     000000000  N000000000 167   0000000000000.00 0000000.00   0000000.00                             000000000000000                                                                                                                                                     01424  000000012435-0000000000002.92     02350 00000                  
02991530243820001P16759067590000001427480010280000001060000000000000000                             2000000000000000000000000              000000000000                    0000000000000000000000000                    000000000000                                                                                                                                                                                                                                                                                                                                                                                                                                                                                        
02991540243820045DT67590675900000014274800102800000010680010287287283069900012318269031020230000001195106923000000000477483517805XXXXXX6623                         NY 4607AMPLB8Z0SE0310  N840000000011951          81CNCBD8666317293            062881    MC84000000011951 N  549977145232   1102881859TF6BB5AC2B883  000000000+600450S00130    MPL  00565                     000000000  N                0000000000000.00 0000000.00   0000000.00                             000000000000000                                                                                                                                                     01424  000000000000-0000000000002.09     01750 00000                  
02991550243820046DT67590675900000014274800102800000010680010274001193069900012318271031020230000000933906923000000000477483440066XXXXXX2131               0000000   NYV4 07T303069762475058N840000000009339VW3C00    01CNCBD8666317293            00011D    VS84000000009339 NP1549977145232   531378260CT4F06811B1C12  000000000+                D CD 00245                     000000000  N000000000 166   0000000000000.00 0000000.00   0000000.00                             000000000000000                                                                                                                                                     01424  000000009339-0000000000001.64     01760 00000                  
02991560243820001P16759067590000001427480010280000001060000000000000000                             2000000000000000000000000              000000000000                    0000000000000000000000000                    000000000000                                                                                                                                                                                                                                                                                                                                                                                                                                                                                        
02991570243820047DT67590675900000014274800102800000010180010224001193069900012318300031020230000002698406923000000000477483410039XXXXXX8386               2111111   NYV4 A7W383069804207337N84000000002698449KT00    01DNCBD8666317293            50969D    VS84000000026984 NP1549977145232   820DC1210FT790B7D6FBDA0  000000000+                D CD 12109                     000000000  N000000000 498   0000000000000.00 0000000.00   0000000.00                             000000000000000                                                                                                                                                     01424 G000000026984 0000000000006.85     02500 01000                  
02991580243820001P16759067590000001427480010280000001010000000000000000                             2000000000000000000000000              000000000000                    0000000000000000000000000                    000000000000                                                                                                                                                                                                                                                                                                                                                                                                                                                                                        
02991590243820048DT67590675900000014274800102800000010180010224001193069900012318383031020230000001335906923000000000477483443044XXXXXX1140               2111111   NYV4 A7W463070033281297N840000000013359LXMR00    01DNCBD8666317293            451132    VD84000000013359 NP1549977145232   6A94A01F06T1AEA7DF737CE  000000000+                F DF 10420                     000000000  Y000000000 338   0000000000000.00 0000000.00   0000000.00                             000000000000000                                                                                                                                                     01424 G000000013359 0000000000000.29     00050 02200                  
02991600243820001P16759067590000001427480010280000001010000000000000000                             2000000000000000000000000              000000000000                    0000000000000000000000000                    000000000000                                                                                                                                                                                                                                                                                                                                                                                                                                                                                        
02991610243820049DT67590675900000014274800102800000010180010224001193069900012318391031020230000002654906923000000000477483442644XXXXXX3427               2111111   NYV4 A7W463070033335470N840000000026549Q7SJ00    01DNCBD8666317293            010684    VS84000000026549 NP1549977145232   CE7BA976DETFCD670D42140  000000000+                A CA 12106                     000000000  N000000000 492   0000000000000.00 0000000.00   0000000.00                             000000000000000                                                                                                                                                     01424 G000000026549 0000000000005.12     01890 01000                  
02991620243820001P16759067590000001427480010280000001010000000000000000                             2000000000000000000000000              000000000000                    0000000000000000000000000                    000000000000                                                                                                                                                                                                                                                                                                                                                                                                                                                                                        
02991630243820050BH6759067590000001563680010380000090170310202306923000000000000222    0000090001010001Y8001036759C03132023                                                                                                                                                                                                                                                                                                                                                                                                                                                                                                                                                                                                 
02991640243820051DT67590675900000015636800103800000010180010387287283069900010100016031020230000000022206923000000000000222512230XXXXXX2143                         NY 4607AMWE2VVJ670310  N840000000000222          81DNCAROLINA BEST DISTRIBUTIO95755Z    MC84000000000222 N  549977384318   8140470993               000000000+600450S00130    MWE  12152                     000000000  N                0000000000000.00 0000000.00   0000000.00                             000000000000000                                                                                                                                                   U001424  000000000000 0000000000000.08     02600 00200                  
02991650243820052BH6759067590000001330080010280000090170310202306923000000000474725    0000090001232246Y8001026759C03132023                                                                                                                                                                                                                                                                                                                                                                                                                                                                                                                                                                                                 
02991660243820053DT67590675900000013300800102800000010180010224001193069900012314457030920230000001499106923000000000474725417095XXXXXX1057               2111111   NYV4 A7W303065393057776N840000000014991GDLL00    01DNCBD8666317293            05166D    VS84000000014991 NP1549977133133   11E541B9AFT29B13BFD1EAF  000000000+                D CD 12109                     000000000  N000000000 498   0000000000000.00 0000000.00   0000000.00                             000000000000000                                                                                                                                                     01424 G000000014991 0000000000003.85     02500 01000                  
02991670243820001P16759067590000001330080010280000001010000000000000000                             2000000000000000000000000              000000000000                    0000000000000000000000000                    000000000000                                                                                                                                                                                                                                                                                                                                                                                                                                                                                        
02991680243820054DT67590675900000013300800102800000010180010287287283069900012315539030920230000002106206923000000000474725528742XXXXXX0266       ME03KE06MS02      NY 4607AMDJVAN1HL0306  N840000000021062          81DNCBD8666317293            666493    MD84000000021062 N  549977133133   D863B4F72BT9BD591860CCA  000000000+600450S00130    MDJ  00401                     000000000  N                0000000000000.00 0000000.00   0000000.00                             000000000000000                                                                                                                                                   U001424  000000000000 0000000000003.63     01650 01500                  
02991690243820055DT67590675900000013300800102800000010180010224001193069900012315652030920230000000749406923000000000474725473702XXXXXX3209               2111111   NYV4 A7W303065801055078N840000000007494WQ3F00    01DNCBD8666317293            087379    VD84000000007494 NP1549977133133   BB610BF427T5A65B6E61BA7  000000000+                F DF 10420                     000000000  Y000000000 338   0000000000000.00 0000000.00   0000000.00                             000000000000000                                                                                                                                                     01424 G000000007494 0000000000000.26     00050 02200                  
02991700243820001P16759067590000001330080010280000001010000000000000000                             2000000000000000000000000              000000000000                    0000000000000000000000000                    000000000000                                                                                                                                                                                                                                                                                                                                                                                                                                                                                        
02991710243820056DT67590675900000013300800102800000010180010224001193069900012321122030920230000001987006923000000000474725408188XXXXXX9587               2111111   NYV4 A7W583069047032093N840000000019870ZLJ700    01DNCBD8666317293            191823    VD84000000019870 NP1549977133133   3A2DC40A34T5B0305028BD9  000000000+                F DF 10420                     000000000  Y000000000 338   0000000000000.00 0000000.00   0000000.00                             000000000000000                                                                                                                                                     01424 G000000019870 0000000000000.32     00050 02200                  
02991720243820001P16759067590000001330080010280000001010000000000000000                             2000000000000000000000000              000000000000                    0000000000000000000000000                    000000000000                                                                                                                                                                                                                                                                                                                                                                                                                                                                                        
02991730243820057DT67590675900000013300800102800000010180010224001193069900012321163030920230000000019906923000000000474725428821XXXXXX0498               2111111   NYV4 A7W383069064866106N840000000000199SQHT00    01DNCBD8666317293            631908    VB84000000000199 NP1549977133133   C50737093ET9396ABAF695F  000000000+                S CS 00692                     000000000  N000000000 237   0000000000000.00 0000000.00   0000000.00                             000000000000000                                                                                                                                                     01424 G000000000199 0000000000000.15     02700 01000                  
02991740243820001P16759067590000001330080010280000001010000000000000000                             2000000000000000000000000              000000000000                    0000000000000000000000000                    000000000000                                                                                                                                                                                                                                                                                                                                                                                                                                                                                        
02991750243820058DT67590675900000013300800102800000010180010287287283069900012321172030920230000002654906923000000000474725549113XXXXXX8941       ME03KE06PT01      NY 4607AMCWCOOB1C0309  N840000000026549          81DNCBD8666317293            67425P    MC84000000026549 N  549977133133   2F9A3671FDTAF82D1E22B65  000000000+600450S00130    MCW  00642                     000000000  N                0000000000000.00 0000000.00   0000000.00                             000000000000000                                                                                                                                                   U001424  000000000000 0000000000005.94     02200 01000                  
02991760243820059DT67590675900000013300800102800000010180010287287283069900012321198030920230000000129506923000000000474725526947XXXXXX0304       ME03KE06PT01      NY 4607AMCWT81GZY0309  N840000000001295          81DNCBD8666317293            09190Z    MC84000000001295 N  549977133133   83025C48DBT24BE8C623F40  000000000+600450S00130    MCW  00642                     000000000  N                0000000000000.00 0000000.00   0000000.00                             000000000000000                                                                                                                                                   U001424  000000000000 0000000000000.38     02200 01000                  
02991770243820060DT67590675900000013300800102800000010180010287287283069900012321206030920230000000149506923000000000474725526947XXXXXX0304       ME03KE06PT01      NY 4607AMCWCY561C0309  N840000000001495          81DNCBD8666317293            09777Z    MC84000000001495 N  549977133133   83025C48DBT4A6CF06652E2  000000000+600450S00130    MCW  00642                     000000000  N                0000000000000.00 0000000.00   0000000.00                             000000000000000                                                                                                                                                   U001424  000000000000 0000000000000.43     02200 01000                  
02991780243820061DT67590675900000013300800102800000010180010287287283069900012321214030920230000002642406923000000000474725532500XXXXXX4761       ME03KE06MS02      NY 4607AMDSK8AWYT0309  N840000000026424          81DNCBD8666317293            260220    MD84000000026424 N  549977133133   07D7C0CD60T36532DC0D02B  000000000+600450S00130    MDS  00401                     000000000  N                0000000000000.00 0000000.00   0000000.00                             000000000000000                                                                                                                                                   U001424  000000000000 0000000000004.51     01650 01500                  
02991790243820062DT67590675900000013300800102800000010180010287287283069900012321222030920230000000019906923000000000474725559292XXXXXX6795                         NY 4607AMCOUCGJZY0309  N840000000000199          81DNCBD8666317293            NNDSWE    MB84000000000199 NP1549977133133   6E4E9B20DDT1A30198BB74B  000000000+600450S00130    MCO  00303                     000000000  N                0000000000000.00 0000000.00   0000000.00                             000000000000000                                                                                                                                                     01424  000000000000 0000000000000.15     02700 01000                  
02991800243820001P1675906759000000133008001028000000101                                                          000000000000          8000            871584967                                                                                                                                                                                                                                                                                                                                                                                                                                                                                                                                                            
02991810243820063DT67590675900000013300800102800000010180010224001193069900012321239030920230000000019906923000000000474725428821XXXXXX2016               2111111   NYV4 A7W463069079327647N84000000000019975VX00    01DNCBD8666317293            844093    VB84000000000199 NP1549977133133   E23A9E07A8T2033887327DC  000000000+                S CS 00692                     000000000  N000000000 237   0000000000000.00 0000000.00   0000000.00                             000000000000000                                                                                                                                                     01424 G000000000199 0000000000000.15     02700 01000                  
02991820243820001P16759067590000001330080010280000001010000000000000000                             2000000000000000000000000              000000000000                    0000000000000000000000000                    000000000000                                                                                                                                                                                                                                                                                                                                                                                                                                                                                        
02991830243820064DT67590675900000013300800102800000010180010224001193069900012321247030920230000000019906923000000000474725412076XXXXXX1073               2111111   NYV4 A7W383069089443221N840000000000199KM3R00    01DNCBD8666317293            716372    VS84000000000199 NP1549977133133   6BF15E29B4T1ED5E683C06C  000000000+                A CA 12106                     000000000  N000000000 492   0000000000000.00 0000000.00   0000000.00                             000000000000000                                                                                                                                                     01424 G000000000199 0000000000000.14     01890 01000                  
02991840243820001P16759067590000001330080010280000001010000000000000000                             2000000000000000000000000              000000000000                    0000000000000000000000000                    000000000000                                                                                                                                                                                                                                                                                                                                                                                                                                                                                        
02991850243820065DT67590675900000013300800102800000010180010287287283069900012321255030920230000000019906923000000000474725519075XXXXXX4362                         NY 4607AMCPKFJCYZ0309  N840000000000199          81DNCBD8666317293            YMB3UE    MB84000000000199 NP1549977133133   A0D84E6733T4B6B28F90EB0  000000000+600450S00130    MCP  00303                     000000000  N                0000000000000.00 0000000.00   0000000.00                             000000000000000                                                                                                                                                     01424  000000000000 0000000000000.15     02700 01000                  
02991860243820001P1675906759000000133008001028000000101                                                          000000000000          8000            871584967                                                                                                                                                                                                                                                                                                                                                                                                                                                                                                                                                            
02991870243820066DT67590675900000013300800102800000010180010224001193069900012321262030920230000000019906923000000000474725408544XXXXXX5902               2111111   NYV4 A7W583069096134977N840000000000199ZV2600    01DNCBD8666317293            342518    VB84000000000199 NP1549977133133   7BE85EF41ETC45F89AB54AC  000000000+                K CK 00691                     000000000  N000000000 234   0000000000000.00 0000000.00   0000000.00                             000000000000000                                                                                                                                                     01424 G000000000199 0000000000000.15     02700 01000                  
02991880243820001P16759067590000001330080010280000001010000000000000000                             2000000000000000000000000              000000000000                    0000000000000000000000000                    000000000000                                                                                                                                                                                                                                                                                                                                                                                                                                                                                        
02991890243820067DT67590675900000013300800102800000010180010224001193069900012321296030920230000000701906923000000000474725442732XXXXXX1327               2111111   NYV4 A7W383069109798810N840000000007019QT6D00    01DNCBD8666317293            090222    VD84000000007019 NP1549977133133   82F19F7D1FT2339A87D5E80  000000000+                G DG 10352                     000000000  Y000000000 338   0000000000000.00 0000000.00   0000000.00                             000000000000000                                                                                                                                                     01424 G000000007019 0000000000000.26     00050 02200                  
02991900243820001P16759067590000001330080010280000001010000000000000000                             1000000000420000000000000              000000000000                    0000000000000000000000000                    000000000000                                                                                                                                                                                                                                                                                                                                                                                                                                                                                        
02991910243820068DT67590675900000013300800102800000010180010224001193069900012321346030920230000000019906923000000000474725428813XXXXXX1665               2111111   NYV4 A7W463069131444913N8400000000001999D4900    01DNCBD8666317293            348611    VB84000000000199 NP1549977133133   D30D0EFA6BT327BED32EA2B  000000000+                S CS 00692                     000000000  N000000000 237   0000000000000.00 0000000.00   0000000.00                             000000000000000                                                                                                                                                     01424 G000000000199 0000000000000.15     02700 01000                  
02991920243820001P16759067590000001330080010280000001010000000000000000                             2000000000000000000000000              000000000000                    0000000000000000000000000                    000000000000                                                                                                                                                                                                                                                                                                                                                                                                                                                                                        
02991930243820069DT67590675900000013300800102800000010180010224001193069900012321395030920230000000019906923000000000474725433451XXXXXX2486               2111111   NYV4 A7W303069202837767N840000000000199BQ5T00    01DNCBD8666317293            4TQTFM    VD84000000000199 NP1549977133133   9CB1141EF6TFC4F1774F079  000000000+                S PS 10179                     000000000  N000000000 364   0000000000000.00 0000000.00   0000000.00                             000000000000000                                                                                                                                                     01424 G000000000199 0000000000000.15     02650 01000                  
02991940243820001P16759067590000001330080010280000001010000000000000000                             2000000000000000000000000              000000000000                    0000000000000000000000000                    000000000000                                                                                                                                                                                                                                                                                                                                                                                                                                                                                        
02991950243820070DT67590675900000013300800102800000010180010224001193069900012321403031020230000000019906923000000000474725428813XXXXXX1028               2111111   NYV4 A7W303069220249726N8400000000001993TRR00    01DNCBD8666317293            104468    VB84000000000199 NP1549977133133   38BE045529T70B9001F6AE2  000000000+                S CS 00692                     000000000  N000000000 237   0000000000000.00 0000000.00   0000000.00                             000000000000000                                                                                                                                                     01424 G000000000199 0000000000000.15     02700 01000                  
02991960243820001P16759067590000001330080010280000001010000000000000000                             2000000000000000000000000              000000000000                    0000000000000000000000000                    000000000000                                                                                                                                                                                                                                                                                                                                                                                                                                                                                        
02991970243820071DT67590675900000013300800102800000010180010287287283069900012321412031020230000000019906923000000000474725556371XXXXXX0727                         NY 4607AMCF1F8TGP0310  N840000000000199          81DNCBD8666317293            YXC92U    MB84000000000199 NP1549977133133   A35FFA4B03T00F2BE6BFB12  000000000+600450S00130    MCF  00060                     000000000  N                0000000000000.00 0000000.00   0000000.00                             000000000000000                                                                                                                                                   U001424  000000000000 0000000000000.16     02950 01000                  
02991980243820001P1675906759000000133008001028000000101                                                          000000000000          8000            871584967                                                                                                                                                                                                                                                                                                                                                                                                                                                                                                                                                            
02991990243820072DT67590675900000013300800102800000010180010224001193069900012321429031020230000000019906923000000000474725433451XXXXXX7336               2111111   NYV4 A7W383069376302292N840000000000199PMGC00    01DNCBD8666317293            19B4O0    VD84000000000199 NP1549977133133   435C445D87TD4524BA7E6B0  000000000+                S PS 10179                     000000000  N000000000 364   0000000000000.00 0000000.00   0000000.00                             000000000000000                                                                                                                                                     01424 G000000000199 0000000000000.15     02650 01000                  
02992000243820001P16759067590000001330080010280000001010000000000000000                             2000000000000000000000000              000000000000                    0000000000000000000000000                    000000000000                                                                                                                                                                                                                                                                                                                                                                                                                                                                                        
02992010243820073DT67590675900000013300800102800000010180010287287283069900012321453031020230000002487006923000000000474725551991XXXXXX5081       ME03KE06MS02      NY 4607AMDJZCWS5E0310  N840000000024870          81DNCBD8666317293            032703    MD84000000024870 N  549977133133   9D9AD8D67DT682733F21BA2  000000000+600450S00130    MDJ  00401                     000000000  N                0000000000000.00 0000000.00   0000000.00                             000000000000000                                                                                                                                                   U001424  000000000000 0000000000004.25     01650 01500                  
02992020243820074DT67590675900000013300800102800000010180010287287283069900012321461031020230000000019906923000000000474725519075XXXXXX7758                         NY 4607AMCPW5JX670310  N840000000000199          81DNCBD8666317293            EWQ8U9    MB84000000000199 NP1549977133133   4E7F76E0EET31345D877E0C  000000000+600450S00130    MCP  00303                     000000000  N                0000000000000.00 0000000.00   0000000.00                             000000000000000                                                                                                                                                     01424  000000000000 0000000000000.15     02700 01000                  
02992030243820001P1675906759000000133008001028000000101                                                          000000000000          8000            871584967                                                                                                                                                                                                                                                                                                                                                                                                                                                                                                                                                            
02992040243820075DT67590675900000013300800102800000010180010287287283069900012321479031020230000001987006923000000000474725542418XXXXXX6528       ME03KE06MS02      NY 4607AMPLR51D1T0310  N840000000019870          81DNCBD8666317293            75411B    MC84000000019870 N  549977133133   8821DC11FAT4E10E035D9C9  000000000+600450S00130    MPL  00580                     000000000  N                0000000000000.00 0000000.00   0000000.00                             000000000000000                                                                                                                                                   U001424  000000000000 0000000000004.27     02100 01000                  
02992050243820076DT67590675900000013300800102800000010180010276509753069900012321484031020230000001987006923000000000474725601149XXXXXX7151   BA00                  NY 4 07N813059047749204N840000000019870    00    01DNCBD8666317293            01036P    DS84000000019870 N  549977133133070                         000000000+1015104910600   DCPDI11327336599  071254000000 000000000  0          462   0000000000000.00 0000000.00   0000000.00                             000000000000000                                                                                                                                                     01424  000000000000 0000000000004.17     02050 01000                  
02992060243820077DT67590675900000013300800102800000010180010224001193069900012321585031020230000002106206923000000000474725448915XXXXXX9775               2111111   NYV4 A7W583069501662216N840000000021062RLPJ00    01DNCBD8666317293            010085    VS84000000021062 NP1549977133133   717DE2BB7FT755FDC5082F9  000000000+                D CD 12109                     000000000  N000000000 498   0000000000000.00 0000000.00   0000000.00                             000000000000000                                                                                                                                                     01424 G000000021062 0000000000005.37     02500 01000                  
02992070243820001P16759067590000001330080010280000001010000000000000000                             2000000000000000000000000              000000000000                    0000000000000000000000000                    000000000000                                                                                                                                                                                                                                                                                                                                                                                                                                                                                        
02992080243820078DT67590675900000013300800102800000010180010224001193069900012321619031020230000002487006923000000000474725424156XXXXXX1733               2111111   NYV4 A7W463069503121204N840000000024870CXJQ00    01DNCBD8666317293            075833    VD84000000024870 NP1549977133133   8A8D1ACDD0T2EEDF3DA17E8  000000000+                F DF 00415                     000000000  N000000000       0000000000000.00 0000000.00   0000000.00                             000000000000000                                                                                                                                                     01424 G000000024870 0000000000004.25     01650 01500                  
02992090243820001P16759067590000001330080010280000001010000000000000000                             2000000000000000000000000              000000000000                    0000000000000000000000000                    000000000000                                                                                                                                                                                                                                                                                                                                                                                                                                                                                        
02992100243820079DT67590675900000013300800102800000010180010224001193069900012321635031020230000000019906923000000000474725428813XXXXXX6688               2111111   NYV4 A7W583069517235603N840000000000199WDSN00    01DNCBD8666317293            244085    VB84000000000199 NP1549977133133   325DE50B6FT815FBD32EF74  000000000+                S CS 00692                     000000000  N000000000 237   0000000000000.00 0000000.00   0000000.00                             000000000000000                                                                                                                                                     01424 G000000000199 0000000000000.15     02700 01000                  
02992110243820001P16759067590000001330080010280000001010000000000000000                             2000000000000000000000000              000000000000                    0000000000000000000000000                    000000000000                                                                                                                                                                                                                                                                                                                                                                                                                                                                                        
02992120243820080DT67590675900000013300800102800000010180010224001193069900012321676031020230000000019906923000000000474725489683XXXXXX8253               2111111   NYV4 A7W303069529862613N840000000000199GXH900    01DNCBD8666317293            YVAVCE    VD84000000000199 NP1549977133133   DDCD473267T622B17CECF5A  000000000+                S PS 10179                     000000000  N000000000 364   0000000000000.00 0000000.00   0000000.00                             000000000000000                                                                                                                                                     01424 G000000000199 0000000000000.15     02650 01000                  
02992130243820001P16759067590000001330080010280000001010000000000000000                             2000000000000000000000000              000000000000                    0000000000000000000000000                    000000000000                                                                                                                                                                                                                                                                                                                                                                                                                                                                                        
02992140243820081DT67590675900000013300800102800000010180010287287283069900012321735031020230000000695906923000000000474725552952XXXXXX0062                         NY 4607AMCB1DL8670310  N840000000006959          81DNCBD8666317293            90014C    MB84000000006959 NP1549977133133                            000000000+600450S00130    MCB  11034                     000000000  N                0000000000000.00 0000000.00   0000000.00                             000000000000000                                                                                                                                                   U001424  000000000000 0000000000001.42     01900 01000                  
02992150243820001P1675906759000000133008001028000000101                                                 000000360000000000000          8000   000000000871584967            000000000000                                                                                                                                                                                                                                                                                                                                                                                                                                                                                                                                    
02992160243820082DT67590675900000013300800102800000010180010224001193069900012321759031020230000002418506923000000000474725435371XXXXXX3866               2111111   NYV4 A7W303069571812146N8400000000241853BTS00    01DNCBD8666317293            085301    VS84000000024185 NP1549977133133   6C5B5698E6TF562359596D8  000000000+                B CB 12107                     000000000  N000000000 494   0000000000000.00 0000000.00   0000000.00                             000000000000000                                                                                                                                                     01424 G000000024185 0000000000005.03     02040 01000                  
02992170243820001P16759067590000001330080010280000001010000000000000000                             2000000000000000000000000              000000000000                    0000000000000000000000000                    000000000000                                                                                                                                                                                                                                                                                                                                                                                                                                                                                        
02992180243820083DT67590675900000013300800102800000010180010224001193069900012321767031020230000000019906923000000000474725440393XXXXXX0658               2111111   NYV4 A7W463069573033025N840000000000199QXQ400    01DNCBD8666317293            428224    VD84000000000199 NP1549977133133   B2B4226B58T53DA1FC2CFB0  000000000+                F PF 08175                     000000000  N000000000       0000000000000.00 0000000.00   0000000.00                             000000000000000                                                                                                                                                     01424 G000000000199 0000000000000.23     01750 02000                  
02992190243820001P16759067590000001330080010280000001010000000000000000                             2000000000000000000000000              000000000000                    0000000000000000000000000                    000000000000                                                                                                                                                                                                                                                                                                                                                                                                                                                                                        
02992200243820084DT67590675900000013300800102800000010180010224001193069900012321890031020230000001987006923000000000474725440393XXXXXX6326               2111111   NYV4 A7W303069594920514N840000000019870THLZ00    01DNCBD8666317293            810993    VD84000000019870 NP1549977133133   D8225E422DTFE2A1B0240C5  000000000+                F PF 08175                     000000000  N000000000       0000000000000.00 0000000.00   0000000.00                             000000000000000                                                                                                                                                     01424 G000000019870 0000000000003.68     01750 02000                  
02992210243820001P16759067590000001330080010280000001010000000000000000                             2000000000000000000000000              000000000000                    0000000000000000000000000                    000000000000                                                                                                                                                                                                                                                                                                                                                                                                                                                                                        
02992220243820085DT67590675900000013300800102800000010180010287287283069900012321917031020230000001987006923000000000474725552417XXXXXX1085       ME03KE06PT01      NY 4607AMCW2OTY670310  N840000000019870          81DNCBD8666317293            72105Z    MC84000000019870 N  549977133133   70A4AD0E8BT5F0E6BE79ADC  000000000+600450S00130    MCW  00642                     000000000  N                0000000000000.00 0000000.00   0000000.00                             000000000000000                                                                                                                                                   U001424  000000000000 0000000000004.47     02200 01000                  
02992230243820086DT67590675900000013300800102800000010180010224001193069900012321932031020230000000160706923000000000474725473702XXXXXX9099               2111111   NYV4 A7W583069622535774N840000000001607LTBX00    01DNCBD8666317293            043217    VD84000000001607 NP1549977133133   192646EA27T0FAC426D7716  000000000+                F DF 10420                     000000000  Y000000000 338   0000000000000.00 0000000.00   0000000.00                             000000000000000                                                                                                                                                     01424 G000000001607 0000000000000.23     00050 02200                  
02992240243820001P16759067590000001330080010280000001010000000000000000                             2000000000000000000000000              000000000000                    0000000000000000000000000                    000000000000                                                                                                                                                                                                                                                                                                                                                                                                                                                                                        
02992250243820087DT67590675900000013300800102800000010180010287287283069900012321958031020230000000019906923000000000474725534786XXXXXX5997                         NY 4607AMCOK4QOPL0310  N840000000000199          81DNCBD8666317293            3DO0OD    MB84000000000199 NP1549977133133   2ABDF6D9BDT055CB2BF5DBF  000000000+600450S00130    MCO  00303                     000000000  N                0000000000000.00 0000000.00   0000000.00                             000000000000000                                                                                                                                                   U001424  000000000000 0000000000000.15     02700 01000                  
02992260243820001P1675906759000000133008001028000000101                                                          000000000000          8000            871584967                                                                                                                                                                                                                                                                                                                                                                                                                                                                                                                                                            
02992270243820088DT67590675900000013300800102800000010180010224001193069900012321965031020230000001353306923000000000474725434257XXXXXX3112               2111111   NYV4 A7W463069631703348N840000000013533SSRN00    01DNCBD8666317293            061072    VD84000000013533 NP1549977133133   0246C8B2CBT54ABAF69E79A  000000000+                F DF 10420                     000000000  Y000000000 338   0000000000000.00 0000000.00   0000000.00                             000000000000000                                                                                                                                                     01424 G000000013533 0000000000000.29     00050 02200                  
02992280243820001P16759067590000001330080010280000001010000000000000000                             2000000000000000000000000              000000000000                    0000000000000000000000000                    000000000000                                                                                                                                                                                                                                                                                                                                                                                                                                                                                        
02992290243820089DT67590675900000013300800102800000010180010276509753069900012321971031020230000001925006923000000000474725601149XXXXXX9774   BA00                  NY 4 07N753059208083582N840000000019250    00    01DNCBD8666317293            01053P    DS84000000019250 N  549977133133070                         000000000+1015104910600   DCPDI11327666632  114008000000 000000000  0          462   0000000000000.00 0000000.00   0000000.00                             000000000000000                                                                                                                                                     01424  000000000000 0000000000004.05     02050 01000                  
02992300243820090DT67590675900000013300800102800000010180010287287283069900012321982031020230000001987006923000000000474725542418XXXXXX2708       ME03KE06MS02      NY 4607AMPLV7LPSD0310  N840000000019870          81DNCBD8666317293            14278B    MC84000000019870 N  549977133133   FF55219C5CTBB31495110D3  000000000+600450S00130    MPL  00580                     000000000  N                0000000000000.00 0000000.00   0000000.00                             000000000000000                                                                                                                                                   U001424  000000000000 0000000000004.27     02100 01000                  
02992310243820091DT67590675900000013300800102800000010180010287287283069900012321990031020230000002661106923000000000474725559551XXXXXX1176       ME03KE06PT01      NY 4607AMCWVQNVG00310  N840000000026611          81DNCBD8666317293            60505S    MC84000000026611 N  549977133133   F29C0DC17CT549660B6B857  000000000+600450S00130    MCW  02182                     000000000  N                0000000000000.00 0000000.00   0000000.00                             000000000000000                                                                                                                                                   U001424  000000000000 0000000000007.02     02600 01000                  
