00681720646227877AD675906759000000151648008888000009071900011615230000001987003272023NYY08623ND6759800888032920232023086026134                                                                                                                                                                                                                                                                                                                                                                                                                                                                                                                                                                                              
00681730646227880AD675906759000000198288001098000009071900010204100000001987003272023NYY08623ND6759800109032920232023086026135                                                                                                                                                                                                                                                                                                                                                                                                                                                                                                                                                                                              
00681740646227883AD675906759000000151648008888000009071900010701070000002255003272023NYY08623ND6759800888032920232023086026136                                                                                                                                                                                                                                                                                                                                                                                                                                                                                                                                                                                              
00681750646227886AD675906759000000151648008888000009071900011822520000001987003272023NYY08623ND6759800888032920232023086026137                                                                                                                                                                                                                                                                                                                                                                                                                                                                                                                                                                                              
00681760646227889AD675906759000000151648008888000009071900011822530000000654803272023NYY08623ND6759800888032920232023086026138                                                                                                                                                                                                                                                                                                                                                                                                                                                                                                                                                                                              
00681770646227892AD675906759000000151648008888000009071900011821170000002117003272023NYY08623ND6759800888032920232023086026139                                                                                                                                                                                                                                                                                                                                                                                                                                                                                                                                                                                              
00681780646227895AD675906759000000151648008888000009071900011924970000002487003272023NYY08623ND6759800888032920232023086026140                                                                                                                                                                                                                                                                                                                                                                                                                                                                                                                                                                                              
00681790646227898AD675906759000000151648008888000009071900011924510000001987003272023NYY08623ND6759800888032920232023086026141                                                                                                                                                                                                                                                                                                                                                                                                                                                                                                                                                                                              
00681800646227901AD675906759000000151648008888000009071900011923390000001194803272023NYY08623ND6759800888032920232023086026142                                                                                                                                                                                                                                                                                                                                                                                                                                                                                                                                                                                              
00681810646227904AD675906759000000151648008888000009071900011923400000000654803272023NYY08623ND6759800888032920232023086026143                                                                                                                                                                                                                                                                                                                                                                                                                                                                                                                                                                                              
00681820646227907AD675906759000000151648008888000009071900012132910000000519003272023NYY08623ND6759800888032920232023086026144                                                                                                                                                                                                                                                                                                                                                                                                                                                                                                                                                                                              
00681830646227910AD675906759000000151648008888000009071900012132900000000654803272023NYY08623ND6759800888032920232023086026145                                                                                                                                                                                                                                                                                                                                                                                                                                                                                                                                                                                              
00681840646227913AD675906759000000151648008888000009071900012132880000002487003272023NYY08623ND6759800888032920232023086026146                                                                                                                                                                                                                                                                                                                                                                                                                                                                                                                                                                                              
00681850646227916AD675906759000000142748001028000009071900013126990000002126103272023NYY08623ND6759800102032920232023086026147                                                                                                                                                                                                                                                                                                                                                                                                                                                                                                                                                                                              
00681860646227919AD675906759000000151648008888000009071900012029050000001194803272023NYY08623ND6759800888032920232023086026148                                                                                                                                                                                                                                                                                                                                                                                                                                                                                                                                                                                              
00681870646227922AD675906759000000142748001028000009071900011811690000000759803272023NYY08623ND6759800102032920232023086026149                                                                                                                                                                                                                                                                                                                                                                                                                                                                                                                                                                                              
00681880646227925AD675906759000000151648008888000009071900011822570000000654803272023NYY08623ND6759800888032920232023086026150                                                                                                                                                                                                                                                                                                                                                                                                                                                                                                                                                                                              
00681890646227928AD675906759000000151648008888000009071900011822600000000198803272023NYY08623ND6759800888032920232023086026151                                                                                                                                                                                                                                                                                                                                                                                                                                                                                                                                                                                              
00681900646227931AD675906759000000151648008888000009071900011822590000000519003272023NYY08623ND6759800888032920232023086026152                                                                                                                                                                                                                                                                                                                                                                                                                                                                                                                                                                                              
00681910646227934AD675906759000000151648008888000009071900011613870000000654803272023NYY08623ND6759800888032920232023086026153                                                                                                                                                                                                                                                                                                                                                                                                                                                                                                                                                                                              
00681920646227937AD675906759000000151648008888000009071900011613880000000519003272023NYY08623ND6759800888032920232023086026154                                                                                                                                                                                                                                                                                                                                                                                                                                                                                                                                                                                              
00681930646227940AD675906759000000151648008888000009071900011409040000001194803272023NYY08623ND6759800888032920232023086026155                                                                                                                                                                                                                                                                                                                                                                                                                                                                                                                                                                                              
00681940646227943AD675906759000000151648008888000009071900011409060000000519003272023NYY08623ND6759800888032920232023086026156                                                                                                                                                                                                                                                                                                                                                                                                                                                                                                                                                                                              
00681950646227946AD675906759000000151648008888000009071900011409050000000654803272023NYY08623ND6759800888032920232023086026157                                                                                                                                                                                                                                                                                                                                                                                                                                                                                                                                                                                              
00681960648730002BH6759067590000000288180088880000090170328202308723000000000046134    0000090001820010N8008886759C03292023                                                                                                                                                                                                                                                                                                                                                                                                                                                                                                                                                                                                 
00681970648730003DT67590675900000002881800888800000010180088877287283087900018200015032820230000000149708723000000000046134518941XXXXXX4253       MS02WI09          NY 1 0 AMWEPWOPQ70328  N840000000001497          07DNHAPPY HIPPIE             33930Z    MC84000000001497 N  549976487158                            000000000+M10101M0034C    MWE  00743                     000000000  N                0000000000000.00 0000000.00   0000000.00                             000000000000000                                                                                                                                                   B101418  000000000000 0000000000000.38     02300 00400                  
00681980648730004DT67590675900000002881800888800000010180088824001193087900018200021032820230000000175608723000000000046134423223XXXXXX1683       VS11    0001111   NYV1 A E383087516823117N8400000000017568PWS00    05DNHAPPY HIPPIE             031411    VD84000000001756 N  549976487158                            000000000+                F DF 00381                     000000000  N000000000       0000000000000.00 0000000.00   0000000.00                             000000000000000                                                                                                                                                     01418 A000000000000 0000000000000.29     00800 01500                  
00681990648730005DT67590675900000002881800888800000010180088824001193087900018200039032820230000000246808723000000000046134443264XXXXXX0813       VS11    0001111   NYV1 A E383087677905861N8400000000024683Z8500    07DNHAPPY HIPPIE             020312    VD84000000002468 N  549976487158                            000000000+                F DF 10433                     000000000  Y000000000 338   0000000000000.00 0000000.00   0000000.00                             000000000000000                                                                                                                                                     01418 A000000000000 0000000000000.23     00050 02200                  
00682000648730006DT67590675900000002881800888800000010180088824001193087900018200047032820230000000395008723000000000046134419090XXXXXX5354       VS11    0001111   NYV1 A E383087682598480N840000000003950VDKH00    05DNHAPPY HIPPIE             780802    VD84000000003950 N  549976487158                            000000000+                F DF 00381                     000000000  N000000000       0000000000000.00 0000000.00   0000000.00                             000000000000000                                                                                                                                                     01418 A000000000000 0000000000000.47     00800 01500                  
00682010648730007DT67590675900000002881800888800000010180088824001193087900018200054032820230000000630808723000000000046134435546XXXXXX8931       VS11    0001111   NYV1 A E383087685921130N840000000006308KV3T00    07DNHAPPY HIPPIE             106150    VD84000000006308 N  549976487158                            000000000+                F DF 10433                     000000000  Y000000000 338   0000000000000.00 0000000.00   0000000.00                             000000000000000                                                                                                                                                     01418 A000000000000 0000000000000.25     00050 02200                  
00682020648730008DT67590675900000002881800888800000010180088824001193087900018200062032820230000000375008723000000000046134480639XXXXXX9457       VS11    0001111   NYV1 A E303087688660435N8400000000037505R8200    05DNHAPPY HIPPIE             173427    VD84000000003750 N  549976487158                            000000000+                F DF 00381                     000000000  N000000000       0000000000000.00 0000000.00   0000000.00                             000000000000000                                                                                                                                                     01418 A000000000000 0000000000000.45     00800 01500                  
00682030648730009DT67590675900000002881800888800000010180088877287283087900018200072032820230000001646208723000000000046134511975XXXXXX4657                         NY 1 0 AMDBWHH2JW0328  N840000000016462          05DNHAPPY HIPPIE             048281    MD84000000016462 NP1549976487158                            000000000+M10101C5434C    MDB  00062                     000000000  N                0000000000000.00 0000000.00   0000000.00                             000000000000000                                                                                                                                                   B101418  000000000000 0000000000004.46     02650 01000                  
00682040648730001P1675906759000000028818008888000000101                                                          000000000000          3000            814767769                                                                                                                                                                                                                                                                                                                                                                                                                                                                                                                                                            
00682050648730010DT67590675900000002881800888800000010180088824001193087900018200088032820230000000208408723000000000046134473302XXXXXX6492       VS11    0001111   NYV1 A E303087714502891N840000000002084QLBF00    05DNHAPPY HIPPIE             045050    VD84000000002084 N  549976487158                            000000000+                F DF 00381                     000000000  N000000000       0000000000000.00 0000000.00   0000000.00                             000000000000000                                                                                                                                                     01418 A000000000000 0000000000000.32     00800 01500                  
00682060648730011DT67590675900000002881800888800000010180088824001193087900018200096032820230000000237108723000000000046134480639XXXXXX3210       VS11    0001111   NYV1 A E383087765953487N840000000002371NHK700    05DNHAPPY HIPPIE             177032    VD84000000002371 N  549976487158                            000000000+                F DF 00381                     000000000  N000000000       0000000000000.00 0000000.00   0000000.00                             000000000000000                                                                                                                                                     01418 A000000000000 0000000000000.34     00800 01500                  
00682070648730012DT67590675900000002881800888800000010180088824001193087900018200104032820230000000548808723000000000046134498503XXXXXX0161       VS11    0001111   NYV1 A E303087767347161N8400000000054885W3400    05DNHAPPY HIPPIE             053596    VD84000000005488 N  549976487158                            000000000+                F DF 00381                     000000000  N000000000       0000000000000.00 0000000.00   0000000.00                             000000000000000                                                                                                                                                     01418 A000000000000 0000000000000.59     00800 01500                  
00682080648730013BH6759067590000000288180088880000090170328202308723000000000132194    0000090001800022N8008886759C03292023                                                                                                                                                                                                                                                                                                                                                                                                                                                                                                                                                                                                 
00682090648730014DT67590675900000002881800888800000010180088824001193087900018000017032820230000002701808723000000000132194410889XXXXXX3300       VS11    0001111   NYV1 A E583087526783064N84000000002701867RH00    05DNHAPPY HIPPIE             538279    VS84000000027018 N  549976487134                            000000000+                B CB 12111                     000000000  N000000000 495   0000000000000.00 0000000.00   0000000.00                             000000000000000                                                                                                                                                     01418 A000000000000 0000000000004.56     01650 01000                  
00682100648730015DT67590675900000002881800888800000010180088824001193087900018000025032820230000000395008723000000000132194422921XXXXXX3299       VS11    0001111   NYV1 A E303087541621631N840000000003950ZP9300    05DNHAPPY HIPPIE             039764    VD84000000003950 N  549976487134                            000000000+                F DF 00381                     000000000  N000000000       0000000000000.00 0000000.00   0000000.00                             000000000000000                                                                                                                                                     01418 A000000000000 0000000000000.47     00800 01500                  
00682110648730016DT67590675900000002881800888800000010180088877287283087900018000035032820230000000148108723000000000132194511953XXXXXX3897       MS02WI09          NY 1 0 AMDJQZHNG50328  N840000000001481          05DNHAPPY HIPPIE             066768    MD84000000001481 N  549976487134                            000000000+M10101C5434C    MDJ  00505                     000000000  N                0000000000000.00 0000000.00   0000000.00                             000000000000000                                                                                                                                                   B101418  000000000000 0000000000000.27     01550 00400                  
00682120648730017DT67590675900000002881800888800000010180088824001193087900018000041032820230000000158008723000000000132194400022XXXXXX0750       VS11    0001111   NYV1 A E463087564376010N8400000000015809MNK00    05DNHAPPY HIPPIE             328443    VD84000000001580 N  549976487134                            000000000+                F DF 10433                     000000000  Y000000000 338   0000000000000.00 0000000.00   0000000.00                             000000000000000                                                                                                                                                     01418 A000000000000 0000000000000.23     00050 02200                  
00682130648730018DT67590675900000002881800888800000010180088824001193087900018000058032820230000001075408723000000000132194491278XXXXXX2480       VS11    0001111   NYV1 A E383087579731545N840000000010754869X00    90DNHAPPY HIPPIE             410772    VD84000000010754 N  549976487134                            000000000+                F PF 08170                     000000000  N000000000       0000000000000.00 0000000.00   0000000.00                             000000000000000                                                                                                                                                     01418 A000000000000 0000000000001.39     01150 01500                  
00682140648730019DT67590675900000002881800888800000010180088824001193087900018000066032820230000000325808723000000000132194443264XXXXXX0719       VS11    0001111   NYV1 A E303087584439281N840000000003258LG2H00    07DNHAPPY HIPPIE             013488    VD84000000003258 N  549976487134                            000000000+                F DF 10433                     000000000  Y000000000 338   0000000000000.00 0000000.00   0000000.00                             000000000000000                                                                                                                                                     01418 A000000000000 0000000000000.24     00050 02200                  
00682150648730020DT67590675900000002881800888800000010180088824001193087900018000074032820230000000079008723000000000132194422921XXXXXX6466       VK04VS111111111   NYV1 A E463087602135244N84000000000079044V300    05DNHAPPY HIPPIE             045814    VD84000000000790 N  549976487134                            000000000+                F DF 00451                     000000000  N000000000 214   0000000000000.00 0000000.00   0000000.00                             000000000000000                                                                                                                                                     01418 F000000000000 0000000000000.16     01550 00400                  
00682160648730021DT67590675900000002881800888800000010180088824001193087900018000082032820230000000087808723000000000132194411568XXXXXX0693       VK04VS111111111   NYV1 A E383087618360388N840000000000878XW5L00    05DNHAPPY HIPPIE             987077    VD84000000000878 N  549976487134                            000000000+                F DF 00451                     000000000  N000000000 214   0000000000000.00 0000000.00   0000000.00                             000000000000000                                                                                                                                                     01418 F000000000000 0000000000000.18     01550 00400                  
00682170648730022DT67590675900000002881800888800000010180088824001193087900018000090032820230000001173108723000000000132194449507XXXXXX2805       VS11    0001111   NYV1 A E303087633037703N8400000000117316MXV00    05DNHAPPY HIPPIE             033503    VD84000000011731 N  549976487134                            000000000+                F DF 00381                     000000000  N000000000       0000000000000.00 0000000.00   0000000.00                             000000000000000                                                                                                                                                     01418 A000000000000 0000000000001.09     00800 01500                  
00682180648730023DT67590675900000002881800888800000010180088824001193087900018000108032820230000000713208723000000000132194473702XXXXXX1781       VS11    0001111   NYV1 A E383087635585580N8400000000071326P7T00    05DNHAPPY HIPPIE             060038    VD84000000007132 N  549976487134                            000000000+                F DF 10433                     000000000  Y000000000 338   0000000000000.00 0000000.00   0000000.00                             000000000000000                                                                                                                                                     01418 A000000000000 0000000000000.26     00050 02200                  
00682190648730024DT67590675900000002881800888800000010180088877287283087900018000118032820230000000246808723000000000132194531815XXXXXX9356       MS02WI09          NY 1 0 AMPLL6KLJ00328  N840000000002468          05DNHAPPY HIPPIE             028434    MC84000000002468 N  549976487134                            000000000+M10101C5434C    MPL  00043                     000000000  N                0000000000000.00 0000000.00   0000000.00                             000000000000000                                                                                                                                                   B101418  000000000000 0000000000000.45     01650 00400                  
00682200648730025DT67590675900000002881800888800000010180088877287283087900018000126032820230000000128308723000000000132194555426XXXXXX7922       MS02WI09          NY 1 0 AMPGM13ZJW0328  N840000000001283          90DNHAPPY HIPPIE             030908    MD84000000001283 N  549976487134                            000000000+M10101B5434C    MPG  00505                     000000000  N                0000000000000.00 0000000.00   0000000.00                             000000000000000                                                                                                                                                   C101418  000000000000 0000000000000.24     01550 00400                  
00682210648730026DT67590675900000002881800888800000010180088824001193087900018000132032820230000000585808723000000000132194480639XXXXXX1059       VS11    0001111   NYV1 A E383087667564424N840000000005858RPBR00    05DNHAPPY HIPPIE             172488    VD84000000005858 N  549976487134                            000000000+                F DF 00381                     000000000  N000000000       0000000000000.00 0000000.00   0000000.00                             000000000000000                                                                                                                                                     01418 A000000000000 0000000000000.62     00800 01500                  
00682220648730027DT67590675900000002881800888800000010180088824001193087900018000140032820230000001017208723000000000132194415978XXXXXX1455       VS11    0001111   NYV1 A E463087671297702N840000000010172VHCW00    05DNHAPPY HIPPIE             069711    VD84000000010172 N  549976487134                            000000000+                F DF 10433                     000000000  Y000000000 338   0000000000000.00 0000000.00   0000000.00                             000000000000000                                                                                                                                                     01418 A000000000000 0000000000000.27     00050 02200                  
00682230648730028DT67590675900000002881800888800000010180088824001193087900018000157032820230000000439008723000000000132194473302XXXXXX1643       VS11    0001111   NYV1 A E583087706619809N840000000004390D4ZS00    05DNHAPPY HIPPIE             043741    VD84000000004390 N  549976487134                            000000000+                F DF 00381                     000000000  N000000000       0000000000000.00 0000000.00   0000000.00                             000000000000000                                                                                                                                                     01418 A000000000000 0000000000000.50     00800 01500                  
00682240648730029DT67590675900000002881800888800000010180088824001193087900018000165032820230000000740608723000000000132194463405XXXXXX7864       VS11    0001111   NYV1 A E303087726011009N8400000000074069KQ700    05DNHAPPY HIPPIE             069100    VD84000000007406 N  549976487134                            000000000+                F DF 10433                     000000000  Y000000000 338   0000000000000.00 0000000.00   0000000.00                             000000000000000                                                                                                                                                     01418 A000000000000 0000000000000.26     00050 02200                  
00682250648730030DT67590675900000002881800888800000010180088824001193087900018000173032820230000000142608723000000000132194473703XXXXXX0947       VK04VS111111111   NYV1 A E583087728157208N84000000000142683R700    05DNHAPPY HIPPIE             077229    VD84000000001426 N  549976487134                            000000000+                F DF 10439                     000000000  Y000000000 331   0000000000000.00 0000000.00   0000000.00                             000000000000000                                                                                                                                                     01418 F000000000000 0000000000000.23     00050 02200                  
00682260648730031DT67590675900000002881800888800000010180088824001193087900018000181032820230000000548808723000000000132194445101XXXXXX0323       VS11    0001111   NYV1 A E463087740273296N8400000000054882NCW00    05DNHAPPY HIPPIE             511703    VD84000000005488 N  549976487134                            000000000+                F DF 10433                     000000000  Y000000000 338   0000000000000.00 0000000.00   0000000.00                             000000000000000                                                                                                                                                     01418 A000000000000 0000000000000.25     00050 02200                  
00682270648730032DT67590675900000002881800888800000010180088824001193087900018000199032820230000000503408723000000000132194422921XXXXXX1211       VS11    0001111   NYV1 A E383087755568769N840000000005034MB3200    05DNHAPPY HIPPIE             061157    VD84000000005034 N  549976487134                            000000000+                F DF 00381                     000000000  N000000000       0000000000000.00 0000000.00   0000000.00                             000000000000000                                                                                                                                                     01418 A000000000000 0000000000000.55     00800 01500                  
00682280648730033DT67590675900000002881800888800000010180088824001193087900018000207032820230000001437408723000000000132194410881XXXXXX5565       VS11    0001111   NYV1 A E303087758424069N8400000000143743W3700    05DNHAPPY HIPPIE             228776    VD84000000014374 N  549976487134                            000000000+                F DF 00381                     000000000  N000000000       0000000000000.00 0000000.00   0000000.00                             000000000000000                                                                                                                                                     01418 A000000000000 0000000000001.30     00800 01500                  
00682290648730034DT67590675900000002881800888800000010180088824001193087900018000215032820230000000325508723000000000132194408138XXXXXX7228       VS11    0001111   NYV1 A E463087762225477N84000000000325553F900    07DNHAPPY HIPPIE             018277    VD84000000003255 N  549976487134                            000000000+                F PF 08170                     000000000  N000000000       0000000000000.00 0000000.00   0000000.00                             000000000000000                                                                                                                                                     01418 A000000000000 0000000000000.52     01150 01500                  
00682300648730035DT67590675900000002881800888800000010180088824001193087900018000223032820230000000246808723000000000132194422921XXXXXX0297       VS11    0001111   NYV1 A E583087772858703N8400000000024688P8200    05DNHAPPY HIPPIE             062886    VD84000000002468 N  549976487134                            000000000+                F DF 00381                     000000000  N000000000       0000000000000.00 0000000.00   0000000.00                             000000000000000                                                                                                                                                     01418 A000000000000 0000000000000.35     00800 01500                  
00682310648730036BH6759067590000000215480088880000090170328202308723000000000081300    0000090001453483N8008886759C03292023                                                                                                                                                                                                                                                                                                                                                                                                                                                                                                                                                                                                 
00682320648730037DT67590675900000002154800888800000010180088887287283087900014534838032820230000008130008723000000000081300543840XXXXXX6093                         NY 4607AMDBMSH7120327  N840000000081300          81DNDRIP DROP DISTRO LLC     023034    MD84000000081300 NP1519900000001   INV-001379               000000000+600450S00140    MDB  00062                     000000000  N                0000000000000.00 0000000.00   0000000.00                             000000000000000                                                                                                                                                   U001418  000000000000 0000000000021.64     02650 01000                  
00682330648730001P1675906759000000021548008888000000101                                                          000000000000          8000            471534935                                                                                                                                                                                                                                                                                                                                                                                                                                                                                                                                                            
00682340648730038BH6759067590000000833480010180000090170328202308723000000000184694    0000090001130048N8001016759C03292023                                                                                                                                                                                                                                                                                                                                                                                                                                                                                                                                                                                                 
00682350648730039DT67590675900000008334800101800000010180010124001193087900011300018032820230000000213908723000000000184694430602XXXXXX4450       VS11    0001111   NYV1 A E303087502998590N840000000002139B2KG00    05DNPLANET VAPOR INC #400    387408    VD84000000002139 N  599977384698                            000000000+                F DF 00381                     000000000  N000000000       0000000000000.00 0000000.00   0000000.00                             000000000000000                                                                                                                                                     01418 A000000000000 0000000000000.32     00800 01500                  
00682360648730040DT67590675900000008334800101800000010180010124001193087900011300026032820230000000100008723000000000184694448261XXXXXX9299       VK04VS111111111   NYV1 A E583087508911074N840000000001000LBGD00    05DNPLANET VAPOR INC #400    500480    VD84000000001000 N  599977384698                            000000000+                F DF 10439                     000000000  Y000000000 331   0000000000000.00 0000000.00   0000000.00                             000000000000000                                                                                                                                                     01418 F000000000000 0000000000000.23     00050 02200                  
00682370648730041DT67590675900000008334800101800000010180010124001193087900011300034032820230000000063608723000000000184694427665XXXXXX0296       VK04VS111111111   NYV1 A E583087509171617N840000000000636MQS800    07DNPLANET VAPOR INC #400    068990    VD84000000000636 N  599977384698                            000000000+                F DF 10439                     000000000  Y000000000 331   0000000000000.00 0000000.00   0000000.00                             000000000000000                                                                                                                                                     01418 F000000000000 0000000000000.22     00050 02200                  
00682380648730042DT67590675900000008334800101800000010180010124001193087900011300042032820230000000149708723000000000184694461675XXXXXX5669       VK04VS111111111   NYV1 A E383087511633400N8400000000014975X5Q00    05DNPLANET VAPOR INC #400    278680    VD84000000001497 N  599977384698                            000000000+                F DF 00451                     000000000  N000000000 214   0000000000000.00 0000000.00   0000000.00                             000000000000000                                                                                                                                                     01418 F000000000000 0000000000000.27     01550 00400                  
00682390648730043DT67590675900000008334800101800000010180010124001193087900011300059032820230000000167408723000000000184694459954XXXXXX2029       VS11    0001111   NYV1 A E583087517496893N840000000001674KFSP00    05DNPLANET VAPOR INC #400    H93965    VD84000000001674 N  599977384698                            000000000+                F DF 10433                     000000000  Y000000000 338   0000000000000.00 0000000.00   0000000.00                             000000000000000                                                                                                                                                     01418 A000000000000 0000000000000.23     00050 02200                  
00682400648730044DT67590675900000008334800101800000010180010124001193087900011300067032820230000000172708723000000000184694421783XXXXXX0647       VS11    0001111   NYV1 A E463087526889592N8400000000017279H7D00    05DNPLANET VAPOR INC #400    061231    VS84000000001727 N  599977384698                            000000000+                A CA 12110                     000000000  N000000000 493   0000000000000.00 0000000.00   0000000.00                             000000000000000                                                                                                                                                     01418 A000000000000 0000000000000.36     01510 01000                  
00682410648730045DT67590675900000008334800101800000010180010177287283087900011300077032820230000000240608723000000000184694531258XXXXXX0683       MS02WI09          NY 1 0 AMDJQ70EG50328  N840000000002406          07DNPLANET VAPOR INC #400    142804    MD84000000002406 N  599977384698                            000000000+M10101M0034C    MDJ  10815                     000000000  1                0000000000000.00 0000000.00   0000000.00                             000000000000000                                                                                                                                                   B101418  000000000000 0000000000000.23     00050 02200                  
00682420648730046DT67590675900000008334800101800000010180010177287283087900011300085032820230000000672708723000000000184694515678XXXXXX9059       MS02WI09          NY 1 0 AMWEDCEPG60328  N840000000006727          05DNPLANET VAPOR INC #400    06131Z    MC84000000006727 N  599977384698                            000000000+M10101C5434C    MWE  00739                     000000000  N                0000000000000.00 0000000.00   0000000.00                             000000000000000                                                                                                                                                   B101418  000000000000 0000000000001.65     02300 01000                  
00682430648730047DT67590675900000008334800101800000010180010124001193087900011300091032820230000000320908723000000000184694433477XXXXXX4142       VS11    0001111   NYV1 A E383087604533461N840000000003209NML300    05DNPLANET VAPOR INC #400    541084    VD84000000003209 N  599977384698                            000000000+                F DF 10433                     000000000  Y000000000 338   0000000000000.00 0000000.00   0000000.00                             000000000000000                                                                                                                                                     01418 A000000000000 0000000000000.24     00050 02200                  
00682440648730048DT67590675900000008334800101800000010180010124001193087900011300109032820230000000235308723000000000184694463405XXXXXX9692       VS11    0001111   NYV1 A E383087606632352N840000000002353VV9V00    05DNPLANET VAPOR INC #400    012742    VD84000000002353 N  599977384698                            000000000+                F DF 10433                     000000000  Y000000000 338   0000000000000.00 0000000.00   0000000.00                             000000000000000                                                                                                                                                     01418 A000000000000 0000000000000.23     00050 02200                  
00682450648730049DT67590675900000008334800101800000010180010124001193087900011300117032820230000000187108723000000000184694400022XXXXXX9951       VS11    0001111   NYV1 A E583087611439963N840000000001871HDZG00    07DNPLANET VAPOR INC #400    847917    VD84000000001871 N  599977384698                            000000000+                F DF 10433                     000000000  Y000000000 338   0000000000000.00 0000000.00   0000000.00                             000000000000000                                                                                                                                                     01418 A000000000000 0000000000000.23     00050 02200                  
00682460648730050DT67590675900000008334800101800000010180010177287283087900011300127032820230000000427908723000000000184694523914XXXXXX7596       MS02WI09          NY 1 0 AMCWLBYQJ00328  N840000000004279          05DNPLANET VAPOR INC #400    08935Z    MC84000000004279 N  599977384698                            000000000+M10101C5434C    MCW  00644                     000000000  N                0000000000000.00 0000000.00   0000000.00                             000000000000000                                                                                                                                                   B101418  000000000000 0000000000000.91     01900 01000                  
00682470648730051DT67590675900000008334800101800000010180010124001193087900011300133032820230000000395608723000000000184694427199XXXXXX9513       VS11    0001111   NYV1 A E303087623849726N840000000003956KJ8500    05DNPLANET VAPOR INC #400    676173    VD84000000003956 N  599977384698                            000000000+                F DF 00381                     000000000  N000000000       0000000000000.00 0000000.00   0000000.00                             000000000000000                                                                                                                                                     01418 A000000000000 0000000000000.47     00800 01500                  
00682480648730052DT67590675900000008334800101800000010180010124001193087900011300141032820230000000818408723000000000184694465638XXXXXX9719               1001111   NYV1 A K303087634613271N840000000008184C8BP00    01DNPLANET VAPOR INC #400    395220    VS84000000008184 N  599977384698                            000000000+                B CB 12107                     000000000  N000000000 494   0000000000000.00 0000000.00   0000000.00                             000000000000000                                                                                                                                                     01418 E000000000000 0000000000001.77     02040 01000                  
00682490648730053DT67590675900000008334800101800000010180010124001193087900011300158032820230000000250308723000000000184694448232XXXXXX8949       VS11    0001111   NYV1 A E303087641646299N8400000000025032FDZ00    05DNPLANET VAPOR INC #400    034917    VD84000000002503 N  599977384698                            000000000+                F DF 00381                     000000000  N000000000       0000000000000.00 0000000.00   0000000.00                             000000000000000                                                                                                                                                     01418 A000000000000 0000000000000.35     00800 01500                  
00682500648730054DT67590675900000008334800101800000010180010124001193087900011300166032820230000000320808723000000000184694429977XXXXXX8593       VS11    0001111   NYV1 A E583087644611486N840000000003208B49200    05DNPLANET VAPOR INC #400    669441    VD84000000003208 N  599977384698                            000000000+                G DG 10351                     000000000  Y000000000 338   0000000000000.00 0000000.00   0000000.00                             000000000000000                                                                                                                                                     01418 A000000000000 0000000000000.24     00050 02200                  
00682510648730055DT67590675900000008334800101800000010180010177287283087900011300176032820230000000211808723000000000184694520760XXXXXX5921       MS02WI09          NY 1 0 AMDJFQDHJW0328  N840000000002118          05DNPLANET VAPOR INC #400    035633    MD84000000002118 N  599977384698                            000000000+M10101C5434C    MDJ  00402                     000000000  N                0000000000000.00 0000000.00   0000000.00                             000000000000000                                                                                                                                                   B101418  000000000000 0000000000000.37     01050 01500                  
00682520648730056DT67590675900000008334800101800000010180010124001193087900011300182032820230000000327808723000000000184694473703XXXXXX6039       VS11    0001111   NYV1 A E383087655187306N840000000003278WGZS00    05DNPLANET VAPOR INC #400    036404    VD84000000003278 N  599977384698                            000000000+                F DF 10433                     000000000  Y000000000 338   0000000000000.00 0000000.00   0000000.00                             000000000000000                                                                                                                                                     01418 A000000000000 0000000000000.24     00050 02200                  
00682530648730057DT67590675900000008334800101800000010180010177287283087900011300192032820230000000211808723000000000184694517805XXXXXX6072       MS02WI09          NY 1 0 AMPLT9CXJW0328  N840000000002118          05DNPLANET VAPOR INC #400    09609B    MC84000000002118 N  599977384698                            000000000+M10101C5434C    MPL  00353                     000000000  N                0000000000000.00 0000000.00   0000000.00                             000000000000000                                                                                                                                                   B101418  000000000000 0000000000000.48     01800 01000                  
00682540648730058DT67590675900000008334800101800000010180010124001193087900011300208032820230000000192508723000000000184694466189XXXXXX6111       VS11    0001111   NYV1 A E463087676405954N84000000000192539MQ00    07DNPLANET VAPOR INC #400    083182    VD84000000001925 N  599977384698                            000000000+                F DF 10433                     000000000  Y000000000 338   0000000000000.00 0000000.00   0000000.00                             000000000000000                                                                                                                                                     01418 A000000000000 0000000000000.23     00050 02200                  
00682550648730059DT67590675900000008334800101800000010180010124001193087900011300216032820230000000167408723000000000184694473703XXXXXX2489       VS11    0001111   NYV1 A E583087682810576N840000000001674GPL600    05DNPLANET VAPOR INC #400    030528    VD84000000001674 N  599977384698                            000000000+                F DF 10433                     000000000  Y000000000 338   0000000000000.00 0000000.00   0000000.00                             000000000000000                                                                                                                                                     01418 A000000000000 0000000000000.23     00050 02200                  
00682560648730060DT67590675900000008334800101800000010180010124001193087900011300224032820230000000962808723000000000184694411770XXXXXX4414       VS11    0001111   NYV1 A E583087683904605N840000000009628ND5T00    05DNPLANET VAPOR INC #400    165799    VD84000000009628 N  599977384698                            000000000+                F DF 10433                     000000000  Y000000000 338   0000000000000.00 0000000.00   0000000.00                             000000000000000                                                                                                                                                     01418 A000000000000 0000000000000.27     00050 02200                  
00682570648730061DT67590675900000008334800101800000010180010177287283087900011300234032820230000000156008723000000000184694520760XXXXXX1940       MS02WI09          NY 1 0 AMDJVDTIJW0328  N840000000001560          05DNPLANET VAPOR INC #400    050129    MD84000000001560 N  599977384698                            000000000+M10101C5434C    MDJ  00402                     000000000  N                0000000000000.00 0000000.00   0000000.00                             000000000000000                                                                                                                                                   B101418  000000000000 0000000000000.31     01050 01500                  
00682580648730062DT67590675900000008334800101800000010180010177287283087900011300242032820230000000192508723000000000184694542418XXXXXX0720       MS02WI09          NY 1 0 AMWEIBPDJW0328  N840000000001925          05DNPLANET VAPOR INC #400    72789P    MC84000000001925 N  599977384698                            000000000+M10101C5434C    MWE  00739                     000000000  N                0000000000000.00 0000000.00   0000000.00                             000000000000000                                                                                                                                                   B101418  000000000000 0000000000000.54     02300 01000                  
00682590648730063DT67590675900000008334800101800000010180010124001193087900011300257032820230000000481308723000000000184694461675XXXXXX1767       VS11    0001111   NYV1 A E463087708164982N840000000004813XNC400    05DNPLANET VAPOR INC #400    470190    VD84000000004813 N  599977384698                            000000000+                F DF 00381                     000000000  N000000000       0000000000000.00 0000000.00   0000000.00                             000000000000000                                                                                                                                                     01418 A000000000000 0000000000000.54     00800 01500                  
00682600648730064DT67590675900000008334800101800000010180010177287283087900011300267032820230000000274408723000000000184694531258XXXXXX0304       MS02WI09          NY 1 0 AMDJW9KMTW0328  N840000000002744          07DNPLANET VAPOR INC #400    152404    MD84000000002744 N  599977384698                            000000000+M10101M0034C    MDJ  10815                     000000000  1                0000000000000.00 0000000.00   0000000.00                             000000000000000                                                                                                                                                   B101418  000000000000 0000000000000.23     00050 02200                  
00682610648730065DT67590675900000008334800101800000010180010124001193087900011300273032820230000001698408723000000000184694459954XXXXXX9669       VS11    0001111   NYV1 A E463087744424076N840000000016984FHNN00    05DNPLANET VAPOR INC #400    H71122    VD84000000016984 N  599977384698                            000000000+                F DF 10433                     000000000  Y000000000 338   0000000000000.00 0000000.00   0000000.00                             000000000000000                                                                                                                                                     01418 A000000000000 0000000000000.30     00050 02200                  
00682620648730066DT67590675900000008334800101800000010180010177287283087900011300283032820230000000702308723000000000184694515549XXXXXX5724       MS02WI09          NY 1 0 AMPVJV6JJW0328  N840000000007023          05DNPLANET VAPOR INC #400    AAKK2Z    MD84000000007023 N  599977384698                            000000000+M10101C5434C    MPV  11964                     000000000  N                0000000000000.00 0000000.00   0000000.00                             000000000000000                                                                                                                                                   B101418  000000000000 0000000000000.96     01150 01500                  
00682630648730067DT67590675900000008334800101800000010180010177287283087900011300291032820230000000374408723000000000184694519836XXXXXX9297       MS02WI09          NY 1 0 AMDJQ04SJW0328  N840000000003744          07DNPLANET VAPOR INC #400    590055    MD84000000003744 N  599977384698                            000000000+M10101M0034C    MDJ  00402                     000000000  N                0000000000000.00 0000000.00   0000000.00                             000000000000000                                                                                                                                                   B101418  000000000000 0000000000000.54     01050 01500                  
00682640648730068DT67590675900000008334800101800000010180010124001193087900011300307032820230000000278108723000000000184694427082XXXXXX2293       VS11    0001111   NYV1 A E303087750077181N840000000002781JZ6600    05DNPLANET VAPOR INC #400    028139    VS84000000002781 N  599977384698                            000000000+                D CD 12113                     000000000  N000000000 499   0000000000000.00 0000000.00   0000000.00                             000000000000000                                                                                                                                                     01418 A000000000000 0000000000000.68     02100 01000                  
00682650648730069DT67590675900000008334800101800000010180010177287283087900011300317032820230000000240608723000000000184694531258XXXXXX1573       MS02WI09          NY 1 0 AMDJQ1QHJ00328  N840000000002406          05DNPLANET VAPOR INC #400    175013    MD84000000002406 N  599977384698                            000000000+M10101C5434C    MDJ  10815                     000000000  1                0000000000000.00 0000000.00   0000000.00                             000000000000000                                                                                                                                                   B101418  000000000000 0000000000000.23     00050 02200                  
00682660648730070DT67590675900000008334800101800000010180010124001193087900011300323032820230000000199408723000000000184694473703XXXXXX6424       VS11    0001111   NYV1 A E583087767275511N840000000001994CLRT00    07DNPLANET VAPOR INC #400    086623    VD84000000001994 N  599977384698                            000000000+                F DF 10433                     000000000  Y000000000 338   0000000000000.00 0000000.00   0000000.00                             000000000000000                                                                                                                                                     01418 A000000000000 0000000000000.23     00050 02200                  
00682670648730071DT67590675900000008334800101800000010180010124001193087900011300331032820230000000452308723000000000184694461675XXXXXX0805       VS11    0001111   NYV1 A E583087768819974N840000000004523L2H900    05DNPLANET VAPOR INC #400    540330    VD84000000004523 N  599977384698                            000000000+                F DF 00381                     000000000  N000000000       0000000000000.00 0000000.00   0000000.00                             000000000000000                                                                                                                                                     01418 A000000000000 0000000000000.51     00800 01500                  
00682680648730072DT67590675900000008334800101800000010180010124001193087900011300349032820230000000413408723000000000184694433477XXXXXX7693       VS11    0001111   NYV1 A E303087776301795N840000000004134TNKM00    07DNPLANET VAPOR INC #400    816193    VD84000000004134 N  599977384698                            000000000+                F DF 10433                     000000000  Y000000000 338   0000000000000.00 0000000.00   0000000.00                             000000000000000                                                                                                                                                     01418 A000000000000 0000000000000.24     00050 02200                  
00682690648730073DT67590675900000008334800101800000010180010177287283087900011300358032820230000000181808723000000000184694542418XXXXXX4532       MS02WI09          NY 1 0 AMWEY94SJW0328  N840000000001818          07DNPLANET VAPOR INC #400    58959P    MC84000000001818 N  599977384698                            000000000+M10101M0034C    MWE  00739                     000000000  N                0000000000000.00 0000000.00   0000000.00                             000000000000000                                                                                                                                                   B101418  000000000000 0000000000000.52     02300 01000                  
00682700648730074DT67590675900000008334800101800000010180010124001193087900011300364032820230000000641708723000000000184694473703XXXXXX6949       VS11    0001111   NYV1 A E463087781005595N840000000006417JSH400    05DNPLANET VAPOR INC #400    087042    VD84000000006417 N  599977384698                            000000000+                F DF 10433                     000000000  Y000000000 338   0000000000000.00 0000000.00   0000000.00                             000000000000000                                                                                                                                                     01418 A000000000000 0000000000000.25     00050 02200                  
00682710648730075DT67590675900000008334800101800000010180010177287283087900011300374032820230000000908608723000000000184694531258XXXXXX7623       MS02WI09          NY 1 0 AMDJZH9TTW0328  N840000000009086          07DNPLANET VAPOR INC #400    174461    MD84000000009086 N  599977384698                            000000000+M10101M5434C    MDJ  10815                     000000000  1                0000000000000.00 0000000.00   0000000.00                             000000000000000                                                                                                                                                   B101418  000000000000 0000000000000.27     00050 02200                  
00682720648730076DT67590675900000008334800101800000010180010177287283087900011300382032820230000000235308723000000000184694520760XXXXXX5794       MS02WI09          NY 1 0 AMDJBJFZTY0328  N840000000002353          05DNPLANET VAPOR INC #400    074809    MD84000000002353 N  599977384698                            000000000+M10101C5434C    MDJ  00402                     000000000  N                0000000000000.00 0000000.00   0000000.00                             000000000000000                                                                                                                                                   B101418  000000000000 0000000000000.40     01050 01500                  
00682730648730077DT67590675900000008334800101800000010180010124001193087900011300398032820230000000909208723000000000184694406049XXXXXX3258       VS11    0001111   NYV1 A E583087795774360N840000000009092TJ3M00    05DNPLANET VAPOR INC #400    070617    VD84000000009092 N  599977384698                            000000000+                F DF 10433                     000000000  Y000000000 338   0000000000000.00 0000000.00   0000000.00                             000000000000000                                                                                                                                                     01418 A000000000000 0000000000000.27     00050 02200                  
00682740648730078DT67590675900000008334800101800000010180010124001193087900011300406032820230000000834308723000000000184694473703XXXXXX5508       VS11    0001111   NYV1 A E583087797054078N8400000000083432RDT00    05DNPLANET VAPOR INC #400    086599    VD84000000008343 N  599977384698                            000000000+                F DF 10433                     000000000  Y000000000 338   0000000000000.00 0000000.00   0000000.00                             000000000000000                                                                                                                                                     01418 A000000000000 0000000000000.26     00050 02200                  
00682750648730079DT67590675900000008334800101800000010180010124001193087900011300414032820230000000267408723000000000184694430926XXXXXX5383       VS11    0001111   NYV1 A E383087797617650N840000000002674RSKF00    07DNPLANET VAPOR INC #400    070921    VD84000000002674 N  599977384698                            000000000+                G DG 10351                     000000000  Y000000000 338   0000000000000.00 0000000.00   0000000.00                             000000000000000                                                                                                                                                     01418 A000000000000 0000000000000.23     00050 02200                  
00682760648730080DT67590675900000008334800101800000010180010124001193087900011300422032820230000000113908723000000000184694430602XXXXXX4797       VK04VS111111111   NYV1 A E383087801497609N84000000000113948CT00    05DNPLANET VAPOR INC #400    460802    VD84000000001139 N  599977384698                            000000000+                F DF 00451                     000000000  N000000000 214   0000000000000.00 0000000.00   0000000.00                             000000000000000                                                                                                                                                     01418 F000000000000 0000000000000.22     01550 00400                  
00682770648730081DT67590675900000008334800101800000010180010177287283087900011300432032820230000000203208723000000000184694531258XXXXXX7623       MS02WI09          NY 1 0 AMDJJ7PPVP0328  N840000000002032          05DNPLANET VAPOR INC #400    141691    MD84000000002032 N  599977384698                            000000000+M10101C5434C    MDJ  10815                     000000000  1                0000000000000.00 0000000.00   0000000.00                             000000000000000                                                                                                                                                   B101418  000000000000 0000000000000.23     00050 02200                  
00682780648730082DT67590675900000008334800101800000010180010124001193087900011300448032820230000000213908723000000000184694438419XXXXXX9504       VS11    0001111   NYV1 A E383087826462905N8400000000021393HR800    07DNPLANET VAPOR INC #400    085726    VD84000000002139 N  599977384698                            000000000+                F DF 00381                     000000000  N000000000       0000000000000.00 0000000.00   0000000.00                             000000000000000                                                                                                                                                     01418 A000000000000 0000000000000.32     00800 01500                  
00682790648730083DT67590675900000008334800101800000010180010124001193087900011300455032820230000000641608723000000000184694430602XXXXXX2868       VS11    0001111   NYV1 A E583087837306215N840000000006416WQ6K00    05DNPLANET VAPOR INC #400    468790    VD84000000006416 N  599977384698                            000000000+                F DF 00381                     000000000  N000000000       0000000000000.00 0000000.00   0000000.00                             000000000000000                                                                                                                                                     01418 A000000000000 0000000000000.66     00800 01500                  
00682800648730084DT67590675900000008334800101800000010180010124001193087900011300463032820230000000096208723000000000184694430602XXXXXX2868       VK04VS111111111   NYV1 A E383087838237657N840000000000962DRF300    05DNPLANET VAPOR INC #400    468981    VD84000000000962 N  599977384698                            000000000+                F DF 00451                     000000000  N000000000 214   0000000000000.00 0000000.00   0000000.00                             000000000000000                                                                                                                                                     01418 F000000000000 0000000000000.19     01550 00400                  
00682810648730085DT67590675900000008334800101800000010180010177287283087900011300473032820230000000299408723000000000184694531258XXXXXX2354       MS02WI09          NY 1 0 AMDJLOJJVP0328  N840000000002994          05DNPLANET VAPOR INC #400    142334    MD84000000002994 N  599977384698                            000000000+M10101C5434C    MDJ  10815                     000000000  1                0000000000000.00 0000000.00   0000000.00                             000000000000000                                                                                                                                                   B101418  000000000000 0000000000000.23     00050 02200                  
00682820648730086DT67590675900000008334800101800000010180010177287283087900011300481032820230000000648808723000000000184694515676XXXXXX9749       MS02WI09          NY 1 0 AMWEX2A8VO0328  N840000000006488          05DNPLANET VAPOR INC #400    00386Z    MC84000000006488 N  599977384698                            000000000+M10101C5434C    MWE  00739                     000000000  N                0000000000000.00 0000000.00   0000000.00                             000000000000000                                                                                                                                                   B101418  000000000000 0000000000001.59     02300 01000                  
00682830648730087BH6759067590000001107280010180000090170328202308723000000000027393    0000090001120009N8001016759C03292023                                                                                                                                                                                                                                                                                                                                                                                                                                                                                                                                                                                                 
00682840648730088DT67590675900000011072800101800000010180010124001193087900011200010032820230000000278108723000000000027393454481XXXXXX8758       VS11    0001111   NYV1 A E383087558868801N8400000000027815HRV00    05DNPLANET VAPOR INC #1000   9PL39L    VD84000000002781 N  599977385027                            000000000+                F PF 08170                     000000000  N000000000       0000000000000.00 0000000.00   0000000.00                             000000000000000                                                                                                                                                     01418 A000000000000 0000000000000.47     01150 01500                  
00682850648730089DT67590675900000011072800101800000010180010124001193087900011200028032820230000000644908723000000000027393473703XXXXXX0280       VS11    0001111   NYV1 A E383087617443783N840000000006449CDF800    05DNPLANET VAPOR INC #1000   067620    VD84000000006449 N  599977385027                            000000000+                F DF 10433                     000000000  Y000000000 338   0000000000000.00 0000000.00   0000000.00                             000000000000000                                                                                                                                                     01418 A000000000000 0000000000000.25     00050 02200                  
00682860648730090DT67590675900000011072800101800000010180010124001193087900011200036032820230000000278108723000000000027393425307XXXXXX8641       VS11    0001111   NYV1 A E583087644532069N8400000000027812P4H00    90DNPLANET VAPOR INC #1000   000043    VD84000000002781 N  599977385027                            000000000+                F PF 08170                     000000000  N000000000       0000000000000.00 0000000.00   0000000.00                             000000000000000                                                                                                                                                     01418 A000000000000 0000000000000.47     01150 01500                  
00682870648730091DT67590675900000011072800101800000010180010124001193087900011200044032820230000000213908723000000000027393473703XXXXXX6319       VS11    0001111   NYV1 A E303087645857019N840000000002139QQN700    05DNPLANET VAPOR INC #1000   056544    VD84000000002139 N  599977385027                            000000000+                F DF 10433                     000000000  Y000000000 338   0000000000000.00 0000000.00   0000000.00                             000000000000000                                                                                                                                                     01418 A000000000000 0000000000000.23     00050 02200                  
00682880648730092DT67590675900000011072800101800000010180010124001193087900011200051032820230000000039708723000000000027393408138XXXXXX6111       VK04VS111111111   NYV1 A E463087660328540N840000000000397NCR500    07DNPLANET VAPOR INC #1000   622317    VD84000000000397 N  599977385027                            000000000+                F PF 08165                     000000000  N000000000       0000000000000.00 0000000.00   0000000.00                             000000000000000                                                                                                                                                     01418 F000000000000 0000000000000.11     01600 00500                  
00682890648730093DT67590675900000011072800101800000010180010124001193087900011200069032820230000000267408723000000000027393430602XXXXXX8438       VS11    0001111   NYV1 A E583087710551724N840000000002674V8LR00    05DNPLANET VAPOR INC #1000   437924    VD84000000002674 N  599977385027                            000000000+                F DF 00381                     000000000  N000000000       0000000000000.00 0000000.00   0000000.00                             000000000000000                                                                                                                                                     01418 A000000000000 0000000000000.36     00800 01500                  
00682900648730094DT67590675900000011072800101800000010180010124001193087900011200077032820230000000534808723000000000027393423223XXXXXX5852       VS11    0001111   NYV1 A E583087735188094N8400000000053489KGR00    05DNPLANET VAPOR INC #1000   023035    VD84000000005348 N  599977385027                            000000000+                F DF 00381                     000000000  N000000000       0000000000000.00 0000000.00   0000000.00                             000000000000000                                                                                                                                                     01418 A000000000000 0000000000000.58     00800 01500                  
00682910648730095DT67590675900000011072800101800000010180010124001193087900011200085032820230000000481308723000000000027393438419XXXXXX7500       VS11    0001111   NYV1 A E583087761726814N840000000004813JXCH00    05DNPLANET VAPOR INC #1000   070933    VD84000000004813 N  599977385027                            000000000+                F DF 00381                     000000000  N000000000       0000000000000.00 0000000.00   0000000.00                             000000000000000                                                                                                                                                     01418 A000000000000 0000000000000.54     00800 01500                  
00682920648730096DT67590675900000011072800101800000010180010177287283087900011200095032820230000000001108723000000000027393528847XXXXXX9189                         NY 1 0 AMPWH8OIV50328  N840000000000011          90DNPLANET VAPOR INC #1000   271456    MD84000000000011 NP1599977385027                            000000000+M10101B5434C    MPW  00062                     000000000  N                0000000000000.00 0000000.00   0000000.00                             000000000000000                                                                                                                                                   C101418  000000000000 0000000000000.10     02650 01000                  
00682930648730001P1675906759000000110728001018000000101                                                          000000000000          1000            472803059                                                                                                                                                                                                                                                                                                                                                                                                                                                                                                                                                            
00682940648730097BH6759067590000000995180010180000090170328202308723000000000044794    0000090001120012N8001016759C03292023                                                                                                                                                                                                                                                                                                                                                                                                                                                                                                                                                                                                 
00682950648730098DT67590675900000009951800101800000010180010124001193087900011200010032820230000000755808723000000000044794440393XXXXXX3047       VS11    0001111   NYV1 A E463087619613627N840000000007558QJ5H00    07DNPLANET VAPOR INC #600    332439    VD84000000007558 N  599977384956                            000000000+                F PF 08170                     000000000  N000000000       0000000000000.00 0000000.00   0000000.00                             000000000000000                                                                                                                                                     01418 A000000000000 0000000000001.02     01150 01500                  
00682960648730099DT67590675900000009951800101800000010180010124001193087900011200028032820230000000194308723000000000044794448261XXXXXX8780       VS11    0001111   NYV1 A E583087620649986N840000000001943V2CZ00    07DNPLANET VAPOR INC #600    668418    VD84000000001943 N  599977384956                            000000000+                F DF 10433                     000000000  Y000000000 338   0000000000000.00 0000000.00   0000000.00                             000000000000000                                                                                                                                                     01418 A000000000000 0000000000000.23     00050 02200                  
00682970648730100DT67590675900000009951800101800000010180010124001193087900011200036032820230000000701808723000000000044794448261XXXXXX0295       VS11    0001111   NYV1 A E383087688516386N8400000000070184C8J00    05DNPLANET VAPOR INC #600    334681    VD84000000007018 N  599977384956                            000000000+                F DF 10433                     000000000  Y000000000 338   0000000000000.00 0000000.00   0000000.00                             000000000000000                                                                                                                                                     01418 A000000000000 0000000000000.26     00050 02200                  
00682980648730101DT67590675900000009951800101800000010180010177287283087900011200046032820230000000517908723000000000044794527433XXXXXX3656       MS02WI09          NY 1 0 AMPGVU9IJW0328  N840000000005179          05DNPLANET VAPOR INC #600    952812    MD84000000005179 N  599977384956                            000000000+M10101C5434C    MPG  11964                     000000000  N                0000000000000.00 0000000.00   0000000.00                             000000000000000                                                                                                                                                   B101418  000000000000 0000000000000.75     01150 01500                  
00682990648730102DT67590675900000009951800101800000010180010124001193087900011200051032820230000000118708723000000000044794448261XXXXXX2796       VK04VS111111111   NYV1 A E463087719513929N8400000000011877M4Q00    07DNPLANET VAPOR INC #600    334686    VD84000000001187 N  599977384956                            000000000+                F DF 10439                     000000000  Y000000000 331   0000000000000.00 0000000.00   0000000.00                             000000000000000                                                                                                                                                     01418 F000000000000 0000000000000.23     00050 02200                  
00683000648730103DT67590675900000009951800101800000010180010124001193087900011200069032820230000000825708723000000000044794400022XXXXXX2780       VS11    0001111   NYV1 A E463087769920602N8400000000082577X9Q00    07DNPLANET VAPOR INC #600    762051    VD84000000008257 N  599977384956                            000000000+                F DF 10433                     000000000  Y000000000 338   0000000000000.00 0000000.00   0000000.00                             000000000000000                                                                                                                                                     01418 A000000000000 0000000000000.26     00050 02200                  
00683010648730104DT67590675900000009951800101800000010180010124001193087900011200077032820230000000151108723000000000044794415967XXXXXX3725       VS11    0001111   NYV1 A E383087789811972N840000000001511S7MB00    05DNPLANET VAPOR INC #600    841493    VD84000000001511 N  599977384956                            000000000+                F DF 00381                     000000000  N000000000       0000000000000.00 0000000.00   0000000.00                             000000000000000                                                                                                                                                     01418 A000000000000 0000000000000.27     00800 01500                  
00683020648730105DT67590675900000009951800101800000010180010124001193087900011200085032820230000000064708723000000000044794407624XXXXXX5808       VK04VS111111111   NYV1 A E583087801912549N840000000000647THVC00    07DNPLANET VAPOR INC #600    272223    VD84000000000647 N  599977384956                            000000000+                F DF 00451                     000000000  N000000000 214   0000000000000.00 0000000.00   0000000.00                             000000000000000                                                                                                                                                     01418 F000000000000 0000000000000.14     01550 00400                  
00683030648730106DT67590675900000009951800101800000010180010124001193087900011200093032820230000000593608723000000000044794407624XXXXXX5808       VS11    0001111   NYV1 A E303087806575282N840000000005936727M00    07DNPLANET VAPOR INC #600    274160    VD84000000005936 N  599977384956                            000000000+                F DF 00381                     000000000  N000000000       0000000000000.00 0000000.00   0000000.00                             000000000000000                                                                                                                                                     01418 A000000000000 0000000000000.62     00800 01500                  
00683040648730107DT67590675900000009951800101800000010180010124001193087900011200101032820230000000075408723000000000044794407624XXXXXX5808       VK04VS111111111   NYV1 A E463087809670368N8400000000007546VF600    07DNPLANET VAPOR INC #600    275283    VD84000000000754 N  599977384956                            000000000+                F DF 00451                     000000000  N000000000 214   0000000000000.00 0000000.00   0000000.00                             000000000000000                                                                                                                                                     01418 F000000000000 0000000000000.16     01550 00400                  
00683050648730108DT67590675900000009951800101800000010180010124001193087900011200119032820230000000242908723000000000044794440393XXXXXX4340       VS11    0001111   NYV1 A E383087812083423N840000000002429TPW300    05DNPLANET VAPOR INC #600    501873    VD84000000002429 N  599977384956                            000000000+                F PF 08170                     000000000  N000000000       0000000000000.00 0000000.00   0000000.00                             000000000000000                                                                                                                                                     01418 A000000000000 0000000000000.43     01150 01500                  
00683060648730109DT67590675900000009951800101800000010180010124001193087900011200127032820230000000237508723000000000044794440393XXXXXX2165       VS11    0001111   NYV1 A E303087822463506N840000000002375XMDV00    07DNPLANET VAPOR INC #600    197462    VD84000000002375 N  599977384956                            000000000+                F PF 08170                     000000000  N000000000       0000000000000.00 0000000.00   0000000.00                             000000000000000                                                                                                                                                     01418 A000000000000 0000000000000.42     01150 01500                  
00683070648730110BH6759067590000000909280010180000090170328202308723000000000176799    0000090001130046N8001016759C03292023                                                                                                                                                                                                                                                                                                                                                                                                                                                                                                                                                                                                 
00683080648730111DT67590675900000009092800101800000010180010124001193087900011300018032820230000000647708723000000000176799455225XXXXXX4035       VS11    0001111   NYV1 A E303087519483638N84000000000647726KD00    05DNPLANET VAPOR INC #500    H99086    VD84000000006477 N  599977384801                            000000000+                F DF 10433                     000000000  Y000000000 338   0000000000000.00 0000000.00   0000000.00                             000000000000000                                                                                                                                                     01418 A000000000000 0000000000000.25     00050 02200                  
00683090648730112DT67590675900000009092800101800000010180010124001193087900011300026032820230000000269908723000000000176799458643XXXXXX2527       VS11    0001111   NYV1 A E463087539156272N8400000000026996RXL00    05DNPLANET VAPOR INC #500    H98610    VD84000000002699 N  599977384801                            000000000+                F DF 10433                     000000000  Y000000000 338   0000000000000.00 0000000.00   0000000.00                             000000000000000                                                                                                                                                     01418 A000000000000 0000000000000.23     00050 02200                  
00683100648730113DT67590675900000009092800101800000010180010124001193087900011300034032820230000000979808723000000000176799438419XXXXXX1630       VS11    0001111   NYV1 A E463087557771185N8400000000097983WCL00    05DNPLANET VAPOR INC #500    012937    VD84000000009798 N  599977384801                            000000000+                F DF 00381                     000000000  N000000000       0000000000000.00 0000000.00   0000000.00                             000000000000000                                                                                                                                                     01418 A000000000000 0000000000000.93     00800 01500                  
00683110648730114DT67590675900000009092800101800000010180010124001193087900011300042032820230000000442608723000000000176799489724XXXXXX1806       VS11    0001111   NYV1 A E303087565123933N8400000000044269N9700    07DNPLANET VAPOR INC #500    717492    VD84000000004426 N  599977384801                            000000000+                F DF 00381                     000000000  N000000000       0000000000000.00 0000000.00   0000000.00                             000000000000000                                                                                                                                                     01418 A000000000000 0000000000000.50     00800 01500                  
00683120648730115DT67590675900000009092800101800000010180010124001193087900011300059032820230000000388608723000000000176799491523XXXXXX7898       VS11    0001111   NYV1 A E463087571439994N840000000003886SQP800    07DNPLANET VAPOR INC #500    010143    VD84000000003886 N  599977384801                            000000000+                F DF 10433                     000000000  Y000000000 338   0000000000000.00 0000000.00   0000000.00                             000000000000000                                                                                                                                                     01418 A000000000000 0000000000000.24     00050 02200                  
00683130648730116DT67590675900000009092800101800000010180010177287283087900011300069032820230000000237508723000000000176799542418XXXXXX6457       MS02WI09          NY 1 0 AMCWEB29RE0328  N840000000002375          07DNPLANET VAPOR INC #500    26735T    MC84000000002375 N  599977384801                            000000000+M10101M0034C    MCW  02184                     000000000  N                0000000000000.00 0000000.00   0000000.00                             000000000000000                                                                                                                                                   B101418  000000000000 0000000000000.65     02300 01000                  
