00011480609430002BH6759067590000001982880010980000090170626202317723000000000017716    0000090001920629Y8001096759C06272023092                                                                                                                                                                                                                                                                                                                                                                                                                                                                                                                                                                                              
00011490609430003DT67590675900000019828800109800000010180010924001193177900019205988062620230000002487017723000000000017716475824XXXXXX3323               2111111   NYV4 A7W383177483844907N840000000024870P4H400    01DNKETOFUSION 8885968154    026186    VD84000000024870 NDR599977547467   71ECCCBA51T45ED1128903E  000000000+                F DF 10420                     000000000  Y000000000 338   0000000000000.00 0000000.00   0000000.00                             000000000000000                                                                                                                                                     01424 G000000024870 0000000000000.34     00050 02200                  
00011500609430003DR67590675900000019828800109800000010171ECCCBA51T45ED1128903E  Y000000024870                 P1                                                                                                                                                                                                                                                                                                                                                                                                                                                                                                                                                                                                            
00011510609430001P16759067590000001982880010980000001010000000000000000                             2000000000000000000000000              000000000000                    0000000000000000000000000                    000000000000                                                                                                                                                                                                                                                                                                                                                                                                                                                                                        
00011520609430002G2675906759000000198288001098000000101888-5968154              UT           9 D                00                                      NNNN   N                      000000000000                                                                   77547467                                                                                                                                                                                                                                                                                                                                                                                                                                               
00011530609430004DT67590675900000019828800109800000010180010987287283177900019205997062620230000000198817723000000000017716542418XXXXXX8190       ME03KE06PT01      NY 4607AMCWVOVYHG0626  N840000000001988          81DNKETOFUSION 8885968154    63636P    MC84000000001988 NDR599977547467   2A29B87F43TD215E98AAD56  000000000+600450S00130    MCW  00642                     000000000  N                0000000000000.00 0000000.00   0000000.00                             000000000000000                                                                                                                                                   U001424  000000000000 0000000000000.54     02200 01000                  
00011540609430004DR6759067590000001982880010980000001012A29B87F43TD215E98AAD56  N000000000000                                                                                                                                                                                                                                                                                                                                                                                                                                                                                                                                                                                                                               
00011550609430001G2675906759000000198288001098000000101888-5968154              UT           9 W               210                                      NNNN           210000000000000000000000000                        7                                          77547467                                                                                                                                                                                                                                                                                                                                                                                                                                               
00011560609430005DT67590675900000019828800109800000010180010987287283177900019206003062620230000000654817723000000000017716542418XXXXXX8190       ME03KE06PT01      NY 4607AMCWOPHRHG0626  N840000000006548          81DNKETOFUSION 8885968154    09270P    MC84000000006548 NDR599977547467   2A29B87F43TD29894C2CD99  000000000+600450S00130    MCW  00642                     000000000  N                0000000000000.00 0000000.00   0000000.00                             000000000000000                                                                                                                                                   U001424  000000000000 0000000000001.54     02200 01000                  
00011570609430005DR6759067590000001982880010980000001012A29B87F43TD29894C2CD99  N000000000000                                                                                                                                                                                                                                                                                                                                                                                                                                                                                                                                                                                                                               
00011580609430001G2675906759000000198288001098000000101888-5968154              UT           9 W               210                                      NNNN           210000000000000000000000000                        7                                          77547467                                                                                                                                                                                                                                                                                                                                                                                                                                               
00011590609430006DT67590675900000019828800109800000010180010924001193177900019206010062620230000000327417723000000000017716443044XXXXXX7316               2111111   NYV4 A7W583177492375983N840000000003274DNGK00    01DNKETOFUSION 8885968154    758190    VD84000000003274 NDR599977547467   E43214D439T92E1AEA218E4  000000000+                F DF 10420                     000000000  Y000000000 338   0000000000000.00 0000000.00   0000000.00                             000000000000000                                                                                                                                                     01424 G000000003274 0000000000000.24     00050 02200                  
00011600609430006DR675906759000000198288001098000000101E43214D439T92E1AEA218E4  Y000000003274                 P1                                                                                                                                                                                                                                                                                                                                                                                                                                                                                                                                                                                                            
00011610609430001P16759067590000001982880010980000001010000000000000000                             2000000000000000000000000              000000000000                    0000000000000000000000000                    000000000000                                                                                                                                                                                                                                                                                                                                                                                                                                                                                        
00011620609430002G2675906759000000198288001098000000101888-5968154              UT           9 D                00                                      NNNN   N                      000000000000                                                                   77547467                                                                                                                                                                                                                                                                                                                                                                                                                                               
00011630609430007DT67590675900000019828800109800000010180010924001193177900019206028062620230000000259517723000000000017716443044XXXXXX7316               2111111   NYV4 A7W463177492493466N840000000002595V7N800    01DNKETOFUSION 8885968154    337523    VD84000000002595 NDR599977547467   E43214D439TCCD835F1796C  000000000+                F DF 10420                     000000000  Y000000000 338   0000000000000.00 0000000.00   0000000.00                             000000000000000                                                                                                                                                     01424 G000000002595 0000000000000.23     00050 02200                  
00011640609430007DR675906759000000198288001098000000101E43214D439TCCD835F1796C  Y000000002595                 P1                                                                                                                                                                                                                                                                                                                                                                                                                                                                                                                                                                                                            
00011650609430001P16759067590000001982880010980000001010000000000000000                             2000000000000000000000000              000000000000                    0000000000000000000000000                    000000000000                                                                                                                                                                                                                                                                                                                                                                                                                                                                                        
00011660609430002G2675906759000000198288001098000000101888-5968154              UT           9 D                00                                      NNNN   N                      000000000000                                                                   77547467                                                                                                                                                                                                                                                                                                                                                                                                                                               
00011670609430008DT67590675900000019828800109800000010180010987287283177900019206037062620230000001987017723000000000017716542418XXXXXX7587       ME03KE06MS02      NY 4607AMWEPTBZS90626  N840000000019870          81DNKETOFUSION 8885968154    37200P    MC84000000019870 NDR599977547467   E52018EE7BTEF6D26527EC9  000000000+600450S00130    MWE  00737                     000000000  N                0000000000000.00 0000000.00   0000000.00                             000000000000000                                                                                                                                                   U001424  000000000000 0000000000005.27     02600 01000                  
00011680609430008DR675906759000000198288001098000000101E52018EE7BTEF6D26527EC9  Y000000000000                                                                                                                                                                                                                                                                                                                                                                                                                                                                                                                                                                                                                               
00011690609430001G2675906759000000198288001098000000101888-5968154              UT           9 E               210                                      NNNN           210000000000000000000000000                        7                                          77547467                                                                                                                                                                                                                                                                                                                                                                                                                                               
00011700609430009DT67590675900000019828800109800000010180010987287283177900019206045062620230000000198817723000000000017716518941XXXXXX1644       ME03KE06MS02      NY 4607AMWEGXHKHJ0626  N840000000001988          81DNKETOFUSION 8885968154    66194Z    MC84000000001988 NDR599977547467   4B768C0B0BTC38A2E23E0D0  000000000+600450S00130    MWE  00737                     000000000  N                0000000000000.00 0000000.00   0000000.00                             000000000000000                                                                                                                                                   U001424  000000000000 0000000000000.62     02600 01000                  
00011710609430009DR6759067590000001982880010980000001014B768C0B0BTC38A2E23E0D0  Y000000000000                                                                                                                                                                                                                                                                                                                                                                                                                                                                                                                                                                                                                               
00011720609430001G2675906759000000198288001098000000101888-5968154              UT           9 E               210                                      NNNN           210000000000000000000000000                        7                                          77547467                                                                                                                                                                                                                                                                                                                                                                                                                                               
00011730609430010DT67590675900000019828800109800000010180010987287283177900019206052062620230000000654817723000000000017716518941XXXXXX1644       ME03KE06MS02      NY 4607AMWEVT7AHG0626  N840000000006548          81DNKETOFUSION 8885968154    87586Z    MC84000000006548 NDR599977547467   4B768C0B0BTE58DEAA346E9  000000000+600450S00130    MWE  00737                     000000000  N                0000000000000.00 0000000.00   0000000.00                             000000000000000                                                                                                                                                   U001424  000000000000 0000000000001.80     02600 01000                  
00011740609430010DR6759067590000001982880010980000001014B768C0B0BTE58DEAA346E9  Y000000000000                                                                                                                                                                                                                                                                                                                                                                                                                                                                                                                                                                                                                               
00011750609430001G2675906759000000198288001098000000101888-5968154              UT           9 E               210                                      NNNN           210000000000000000000000000                        7                                          77547467                                                                                                                                                                                                                                                                                                                                                                                                                                               
00011760609430011DT67590675900000019828800109800000010180010987287283177900019206060062620230000000198817723000000000017716551076XXXXXX0814       ME03KE06MS02      NY 4607AMDJPZ4GS90626  N840000000001988          81DNKETOFUSION 8885968154    338161    MD84000000001988 NDR599977547467   1CC7CEC67BT65D260F3C4CB  000000000+600450S00130    MDJ  00401                     000000000  N                0000000000000.00 0000000.00   0000000.00                             000000000000000                                                                                                                                                   U001424  000000000000 0000000000000.48     01650 01500                  
00011770609430011DR6759067590000001982880010980000001011CC7CEC67BT65D260F3C4CB  Z000000000000                                                                                                                                                                                                                                                                                                                                                                                                                                                                                                                                                                                                                               
00011780609430001G2675906759000000198288001098000000101888-5968154              UT           9 J               210                                      NNNN           210000000000000000000000000                                                                   77547467                                                                                                                                                                                                                                                                                                                                                                                                                                               
00011790609430012DT67590675900000019828800109800000010180010987287283177900019206078062620230000000259517723000000000017716551076XXXXXX0814       ME03KE06MS02      NY 4607AMDJE4H8HI0626  N840000000002595          81DNKETOFUSION 8885968154    338168    MD84000000002595 NDR599977547467   1CC7CEC67BT4746EF4AA55E  000000000+600450S00130    MDJ  00401                     000000000  N                0000000000000.00 0000000.00   0000000.00                             000000000000000                                                                                                                                                   U001424  000000000000 0000000000000.58     01650 01500                  
00011800609430012DR6759067590000001982880010980000001011CC7CEC67BT4746EF4AA55E  Z000000000000                                                                                                                                                                                                                                                                                                                                                                                                                                                                                                                                                                                                                               
00011810609430001G2675906759000000198288001098000000101888-5968154              UT           9 J               210                                      NNNN           210000000000000000000000000                                                                   77547467                                                                                                                                                                                                                                                                                                                                                                                                                                               
00011820609430013DT67590675900000019828800109800000010180010987287283177900019206136062620230000001194817723000000000017716518941XXXXXX9605       ME03KE06MS02      NY 4607AMWEO5NFHG0626  N840000000011948          81DNKETOFUSION 8885968154    37164Z    MC84000000011948 NDR599977547467   48B697E294T77BFFD753681  000000000+600450S00130    MWE  00737                     000000000  N                0000000000000.00 0000000.00   0000000.00                             000000000000000                                                                                                                                                   U001424  000000000000 0000000000003.21     02600 01000                  
00011830609430013DR67590675900000019828800109800000010148B697E294T77BFFD753681  Y000000000000                                                                                                                                                                                                                                                                                                                                                                                                                                                                                                                                                                                                                               
00011840609430001G2675906759000000198288001098000000101888-5968154              UT           9 E               210                                      NNNN           210000000000000000000000000                        7                                          77547467                                                                                                                                                                                                                                                                                                                                                                                                                                               
00011850609430014DT67590675900000019828800109800000010180010987287283177900019206144062620230000000198817723000000000017716518941XXXXXX9605       ME03KE06MS02      NY 4607AMWEE97PHI0626  N840000000001988          81DNKETOFUSION 8885968154    40348Z    MC84000000001988 NDR599977547467   48B697E294T9F1793B2DEBF  000000000+600450S00130    MWE  00737                     000000000  N                0000000000000.00 0000000.00   0000000.00                             000000000000000                                                                                                                                                   U001424  000000000000 0000000000000.62     02600 01000                  
00011860609430014DR67590675900000019828800109800000010148B697E294T9F1793B2DEBF  Y000000000000                                                                                                                                                                                                                                                                                                                                                                                                                                                                                                                                                                                                                               
00011870609430001G2675906759000000198288001098000000101888-5968154              UT           9 E               210                                      NNNN           210000000000000000000000000                        7                                          77547467                                                                                                                                                                                                                                                                                                                                                                                                                                               
00011880609430015DT67590675900000019828800109800000010180010987287283177900019206219062620230000001799117723000000000017716514752XXXXXX6226       ME03KE06MS02      NY 4607AMDJWDDLHG0626  N840000000017991          81DNKETOFUSION 8885968154    766736    MD84000000017991 NDR599977547467   32D019EFCBT0EA451D72F6E  000000000+600450S00130    MDJ  10813                     000000000  1                0000000000000.00 0000000.00   0000000.00                             000000000000000                                                                                                                                                   U001424  000000000000 0000000000000.31     00050 02200                  
00011890609430015DR67590675900000019828800109800000010132D019EFCBT0EA451D72F6E  Y000000000000                                                                                                                                                                                                                                                                                                                                                                                                                                                                                                                                                                                                                               
00011900609430001G2675906759000000198288001098000000101888-5968154              UT           9 J               210                                      NNNN           210000000000000000000000000                        7                                          77547467                                                                                                                                                                                                                                                                                                                                                                                                                                               
00011910609430016DT67590675900000019828800109800000010180010987287283177900019206227062620230000001987017723000000000017716522094XXXXXX5459       ME03KE06MS02      NY 4607AMPGQP0HHG0626  N840000000019870          81DNKETOFUSION 8885968154    032477    MD84000000019870 NDR599977547467   C2B7F62A2DT44D26CA277F6  000000000+600450S00130    MPG  09899                     000000000  N                0000000000000.00 0000000.00   0000000.00                             000000000000000                                                                                                                                                   U001424  000000000000 0000000000003.70     01760 02000                  
00011920609430016DR675906759000000198288001098000000101C2B7F62A2DT44D26CA277F6  N000000000000                                                                                                                                                                                                                                                                                                                                                                                                                                                                                                                                                                                                                               
00011930609430001G2675906759000000198288001098000000101888-5968154              UT           9 G               210                                      NNNN           210000000000000000000000000                        7                                          77547467                                                                                                                                                                                                                                                                                                                                                                                                                                               
00011940609430017DT67590675900000019828800109800000010680010987287283177900019206235062620230000002487017723000000000017716524363XXXXXX3781                         NY 4607AMPLT4RMTA0626  N840000000024870          81CNKETOFUSION 8885968154    026232    MC84000000024870 NDR599977547467   AE7F6775D6T8FF23B4A1E7A  000000000+600450S00130    MPL  00564                     000000000  N                0000000000000.00 0000000.00   0000000.00                             000000000000000                                                                                                                                                     01424  000000000000-0000000000004.35     01750 00000                  
00011950609430017DR675906759000000198288001098000000106AE7F6775D6T8FF23B4A1E7A  R000000000000                                                                                                                                                                                                                                                                                                                                                                                                                                                                                                                                                                                                                               
00011960609430001G2675906759000000198288001098000000106888-5968154              UT           9 L               210                                      NNNN           210000000000000000000000000                        7                                          77547467                                                                                                                                                                                                                                                                                                                                                                                                                                               
00011970609430018DT67590675900000019828800109800000010680010987287283177900019206243062620230000001499017723000000000017716521333XXXXXX4842                         NY 4607AMPLG7RUHI0626  N840000000014990          81CNKETOFUSION 8885968154    026516    MC84000000014990 NDR599977547467   C20DCB79D8T0D5AE50DBE29  000000000+600450S00130    MPL  00564                     000000000  N                0000000000000.00 0000000.00   0000000.00                             000000000000000                                                                                                                                                     01424  000000000000-0000000000002.62     01750 00000                  
00011980609430018DR675906759000000198288001098000000106C20DCB79D8T0D5AE50DBE29  R000000000000                                                                                                                                                                                                                                                                                                                                                                                                                                                                                                                                                                                                                               
00011990609430001G2675906759000000198288001098000000106888-5968154              UT           9 L               210                                      NNNN           210000000000000000000000000                        7                                          77547467                                                                                                                                                                                                                                                                                                                                                                                                                                               
00012000609430019DT67590675900000019828800109800000010680010987287283177900019206250062620230000002487017723000000000017716515676XXXXXX6459                         NY 4607AMWEULR2TA0626  N840000000024870          81CNKETOFUSION 8885968154    040155    MC84000000024870 NDR599977547467   44F0EC212CTEF36C4444060  000000000+600450S00130    MWE  00564                     000000000  N                0000000000000.00 0000000.00   0000000.00                             000000000000000                                                                                                                                                     01424  000000000000-0000000000004.35     01750 00000                  
00012010609430019DR67590675900000019828800109800000010644F0EC212CTEF36C4444060  Z000000000000                                                                                                                                                                                                                                                                                                                                                                                                                                                                                                                                                                                                                               
00012020609430001G2675906759000000198288001098000000106888-5968154              UT           9 E               210                                      NNNN           210000000000000000000000000                        7                                          77547467                                                                                                                                                                                                                                                                                                                                                                                                                                               
00012030609430020DT67590675900000019828800109800000010680010974001193177900019206262062620230000000982217723000000000017716410040XXXXXX8041               0000000   NYV4 07T463177570122739N8400000000098225ZPW00    01CNKETOFUSION 8885968154    48350G    VB84000000009822 NDR599977547467   5C7AF9A788T100DB82FFA30  000000000+                G CG 00246                     000000000  N000000000 167   0000000000000.00 0000000.00   0000000.00                             000000000000000                                                                                                                                                     01424  000000009822-0000000000002.31     02350 00000                  
00012040609430020DR6759067590000001982880010980000001065C7AF9A788T100DB82FFA30  U000000009822                 P1                                                                                                                                                                                                                                                                                                                                                                                                                                                                                                                                                                                                            
00012050609430001P16759067590000001982880010980000001060000000000000000                             2000000000000000000000000              000000000000                    0000000000000000000000000                    000000000000                                                                                                                                                                                                                                                                                                                                                                                                                                                                                        
00012060609430002G2675906759000000198288001098000000106888-5968154              UT           9 C                00                                      NNNN   Y                      000000000000                                                                   77547467                                                                                                                                                                                                                                                                                                                                                                                                                                               
00012070609430021DT67590675900000019828800109800000010680010987287283177900019206276062620230000000198817723000000000017716542418XXXXXX7805                         NY 4607AMPLSKJMS90626  N840000000001988          81CNKETOFUSION 8885968154    404971    MC84000000001988 NDR599977547467   8286081D4FTAD8F3B0DD14B  000000000+600450S00130    MPL  00564                     000000000  N                0000000000000.00 0000000.00   0000000.00                             000000000000000                                                                                                                                                     01424  000000000000-0000000000000.35     01750 00000                  
00012080609430021DR6759067590000001982880010980000001068286081D4FTAD8F3B0DD14B  U000000000000                                                                                                                                                                                                                                                                                                                                                                                                                                                                                                                                                                                                                               
00012090609430001G2675906759000000198288001098000000106888-5968154              UT           9 L               210                                      NNNN           210000000000000000000000000                        7                                          77547467                                                                                                                                                                                                                                                                                                                                                                                                                                               
00012100609430022DT67590675900000019828800109800000010680010987287283177900019206284062620230000001987017723000000000017716546616XXXXXX3052                         NY 4607AMCWHXDPHI0626  N840000000019870          81CNKETOFUSION 8885968154    869398    MC84000000019870 NDR599977547467   20A648F581TC502CE5B4B73  000000000+600450S00130    MCW  00564                     000000000  N                0000000000000.00 0000000.00   0000000.00                             000000000000000                                                                                                                                                     01424  000000000000-0000000000003.48     01750 00000                  
00012110609430022DR67590675900000019828800109800000010620A648F581TC502CE5B4B73  U000000000000                                                                                                                                                                                                                                                                                                                                                                                                                                                                                                                                                                                                                               
00012120609430001G2675906759000000198288001098000000106888-5968154              UT           9 W               210                                      NNNN           210000000000000000000000000                        7                                          77547467                                                                                                                                                                                                                                                                                                                                                                                                                                               
00012130609430023DT67590675900000019828800109800000010680010987287283177900019206292062620230000000993517723000000000017716552433XXXXXX7597                         NY 4607AMCWJZQBHJ0626  N840000000009935          81CNKETOFUSION 8885968154    006504    MC84000000009935 NDR599977547467   F88A8F37ECTCCE0A2F2A658  000000000+600450S00130    MCW  00564                     000000000  N                0000000000000.00 0000000.00   0000000.00                             000000000000000                                                                                                                                                     01424  000000000000-0000000000001.74     01750 00000                  
00012140609430023DR675906759000000198288001098000000106F88A8F37ECTCCE0A2F2A658  Y000000000000                                                                                                                                                                                                                                                                                                                                                                                                                                                                                                                                                                                                                               
00012150609430001G2675906759000000198288001098000000106888-5968154              UT           9 W               210                                      NNNN           210000000000000000000000000                        7                                          77547467                                                                                                                                                                                                                                                                                                                                                                                                                                               
00012160609430024BH6759067590000001619680010280000090170626202317723000000000259729    0000090001775437Y8001026759C06272023077                                                                                                                                                                                                                                                                                                                                                                                                                                                                                                                                                                                              
00012170609430025DT67590675900000016196800102800000010180010276509753177900017749597062520230000001499117723000000000259729601149XXXXXX5342   BA00                  NY 4 07N813148720466877N840000000014991    00    01DNGREEN OTTER LLC          02268P    DS84000000014991 NDR549977424386070                         000000000+1015104910600   DCPDI11327334297  020726000000 000000000  0          462   0000000000000.00 0000000.00   0000000.00                             000000000000000                                                                                                                                                     01424  000000000000 0000000000003.17     02050 01000                  
00012180609430025DR675906759000000161968001028000000101                         Y                                                                                                                                                                                                                                                                                                                                                                                                                                                                                                                                                                                                                                           
00012190609430001G2675906759000000161968001028000000101866-6317293              GA           9 P                00                                      NNNN                          000000000000                         00000650975601179750000337                77424386                                                                                                                                                                                                                                                                                                                                                                                                                                               
00012200609430026DT67590675900000016196800102800000010180010224001193177900017749656062520230000001200817723000000000259729433443XXXXXX7459               2111111   NYV4 A7W583173354049983N840000000012008PWMQ00    01DNGREEN OTTER LLC          227093    VD84000000012008 NDR549977424386   69122EAA87T0A1300A4B3CC  000000000+                F DF 10420                     000000000  Y000000000 338   0000000000000.00 0000000.00   0000000.00                             000000000000000                                                                                                                                                     01424 G000000012008 0000000000000.28     00050 02200                  
00012210609430026DR67590675900000016196800102800000010169122EAA87T0A1300A4B3CC  Y000000012008                 P1                                                                                                                                                                                                                                                                                                                                                                                                                                                                                                                                                                                                            
00012220609430001P16759067590000001619680010280000001010000000000000000                             2000000000000000000000000              000000000000                    0000000000000000000000000                    000000000000                                                                                                                                                                                                                                                                                                                                                                                                                                                                                        
00012230609430002G2675906759000000161968001028000000101866-6317293              GA           9 D                00                                      NNNN   N                      000000000000                                                                   77424386                                                                                                                                                                                                                                                                                                                                                                                                                                               
00012240609430027DT67590675900000016196800102800000010180010287287283177900017749673062520230000002642417723000000000259729546616XXXXXX9764       ME03KE06PT01      NY 4607AMCWEC63O30622  N840000000026424          81DNGREEN OTTER LLC          09072Z    MC84000000026424 NDR549977424386   A3885B845ET0287FAA5A5A4  000000000+600450S00130    MCW  00642                     000000000  N                0000000000000.00 0000000.00   0000000.00                             000000000000000                                                                                                                                                   U001424  000000000000 0000000000005.91     02200 01000                  
00012250609430027DR675906759000000161968001028000000101A3885B845ET0287FAA5A5A4  Y000000000000                                                                                                                                                                                                                                                                                                                                                                                                                                                                                                                                                                                                                               
00012260609430001G2675906759000000161968001028000000101866-6317293              GA           9 W               210                                      NNNN           210000000000000000000000000                        7                                          77424386                                                                                                                                                                                                                                                                                                                                                                                                                                               
00012270609430028DT67590675900000016196800102800000010180010287287283177900017750358062520230000002106217723000000000259729532205XXXXXX2896                         NY 4607AMDBJ2K0HY0622  N840000000021062          81DNGREEN OTTER LLC          667279    MD84000000021062 NDR549977424386                            000000000+600450S00130    MDB  10788                     000000000  1                0000000000000.00 0000000.00   0000000.00                             000000000000000                                                                                                                                                   U001424  000000000000 0000000000000.33     00050 02200                  
00012280609430028DR675906759000000161968001028000000101                         Y000000000000                 P1                                                                                                                                                                                                                                                                                                                                                                                                                                                                                                                                                                                                            
00012290609430001P1675906759000000161968001028000000101                                                 000001192000000000000          8000   000000000871584967            000000000000                                                                                                                                                                                                                                                                                                                                                                                                                                                                                                                                    
00012300609430002G2675906759000000161968001028000000101866-6317293              GA           9 B               210                  871584967           YNNN           210000000000000000000000000                        7                                          77424386                                                                                                                                                                                                                                                                                                                                                                                                                                               
00012310609430029DT67590675900000016196800102800000010180010287287283177900017751026062520230000002487017723000000000259729518941XXXXXX2655       ME03KE06MS02      NY 4607AMWERJKLVM0622  N840000000024870          81DNGREEN OTTER LLC          68817Z    MC84000000024870 NDR549977424386   D50E1C3F18T8EA676751409  000000000+600450S00130    MWE  00737                     000000000  N                0000000000000.00 0000000.00   0000000.00                             000000000000000                                                                                                                                                   U001424  000000000000 0000000000006.57     02600 01000                  
00012320609430029DR675906759000000161968001028000000101D50E1C3F18T8EA676751409  Y000000000000                                                                                                                                                                                                                                                                                                                                                                                                                                                                                                                                                                                                                               
00012330609430001G2675906759000000161968001028000000101866-6317293              GA           9 E               210                                      NNNN           210000000000000000000000000                        7                                          77424386                                                                                                                                                                                                                                                                                                                                                                                                                                               
00012340609430030DT67590675900000016196800102800000010180010224001193177900017753120062520230000002146017723000000000259729474474XXXXXX7582               2111111   NYV4 A7W303177003049095N840000000021460D36M00    01DNGREEN OTTER LLC          150551    VD84000000021460 NDR549977424386   E61A704464TE5CF270B0730  000000000+                F DF 10420                     000000000  Y000000000 338   0000000000000.00 0000000.00   0000000.00                             000000000000000                                                                                                                                                     01424 G000000021460 0000000000000.33     00050 02200                  
00012350609430030DR675906759000000161968001028000000101E61A704464TE5CF270B0730  Y000000021460                 P1                                                                                                                                                                                                                                                                                                                                                                                                                                                                                                                                                                                                            
00012360609430001P16759067590000001619680010280000001010000000000000000                             2000000000000000000000000              000000000000                    0000000000000000000000000                    000000000000                                                                                                                                                                                                                                                                                                                                                                                                                                                                                        
00012370609430002G2675906759000000161968001028000000101866-6317293              GA           9 D                00                                      NNNN   N                      000000000000                                                                   77424386                                                                                                                                                                                                                                                                                                                                                                                                                                               
00012380609430031DT67590675900000016196800102800000010180010287287283177900017753220062620230000001987017723000000000259729517279XXXXXX4258       ME03KE06MS02      NY 4607AMDJ16SWGR0626  N840000000019870          81DNGREEN OTTER LLC          099271    MD84000000019870 NDR549977424386   D6066D58BFTA3288F1435AC  000000000+600450S00130    MDJ  00401                     000000000  N                0000000000000.00 0000000.00   0000000.00                             000000000000000                                                                                                                                                   U001424  000000000000 0000000000003.43     01650 01500                  
00012390609430031DR675906759000000161968001028000000101D6066D58BFTA3288F1435AC  Y000000000000                                                                                                                                                                                                                                                                                                                                                                                                                                                                                                                                                                                                                               
00012400609430001G2675906759000000161968001028000000101866-6317293              GA           9 J               210                                      NNNN           210000000000000000000000000                                                                   77424386                                                                                                                                                                                                                                                                                                                                                                                                                                               
00012410609430032DT67590675900000016196800102800000010680010287287283177900017753303062620230000000923917723000000000259729537993XXXXXX0309                         NY 4607AMPLP6FZS90626  N840000000009239          81CNGREEN OTTER LLC          026141    MC84000000009239 NDR549977424386   428EFE2CA6T0267CFCAA579  000000000+600450S00130    MPL  00565                     000000000  N                0000000000000.00 0000000.00   0000000.00                             000000000000000                                                                                                                                                     01424  000000000000-0000000000001.62     01750 00000                  
00012420609430032DR675906759000000161968001028000000106428EFE2CA6T0267CFCAA579  R000000000000                                                                                                                                                                                                                                                                                                                                                                                                                                                                                                                                                                                                                               
00012430609430001G2675906759000000161968001028000000106866-6317293              GA           9 L               210                                      NNNN           210000000000000000000000000                        7                                          77424386                                                                                                                                                                                                                                                                                                                                                                                                                                               
00012440609430033DT67590675900000016196800102800000010180010224001193177900017753385062620230000002106217723000000000259729425828XXXXXX9104               2111111   NYV4 A7W303177529821893N840000000021062LZ2D00    01DNGREEN OTTER LLC          008098    VD84000000021062 NDR549977424386   733922FBC5T6D2954B85CDE  000000000+                F DF 10420                     000000000  Y000000000 338   0000000000000.00 0000000.00   0000000.00                             000000000000000                                                                                                                                                     01424 G000000021062 0000000000000.33     00050 02200                  
00012450609430033DR675906759000000161968001028000000101733922FBC5T6D2954B85CDE  Y000000021062                 P1                                                                                                                                                                                                                                                                                                                                                                                                                                                                                                                                                                                                            
00012460609430001P16759067590000001619680010280000001010000000000000000                             2000000000000000000000000              000000000000                    0000000000000000000000000                    000000000000                                                                                                                                                                                                                                                                                                                                                                                                                                                                                        
00012470609430002G2675906759000000161968001028000000101866-6317293              GA           9 D                00                                      NNNN   N                      000000000000                                                                   77424386                                                                                                                                                                                                                                                                                                                                                                                                                                               
00012480609430034DT67590675900000016196800102800000010180010224001193177900017753419062620230000000659917723000000000259729486872XXXXXX5854               2111111   NYV4 A7W463177557714478N840000000006599H8SF00    01DNGREEN OTTER LLC          026889    VD84000000006599 NDR549977424386   A416196004T8099216B7CDA  000000000+                G DG 10352                     000000000  Y000000000 338   0000000000000.00 0000000.00   0000000.00                             000000000000000                                                                                                                                                     01424 G000000006599 0000000000000.25     00050 02200                  
00012490609430034DR675906759000000161968001028000000101A416196004T8099216B7CDA  Y000000006599                 P1                                                                                                                                                                                                                                                                                                                                                                                                                                                                                                                                                                                                            
00012500609430001P16759067590000001619680010280000001010000000000000000                             2000000000000000000000000              000000000000                    0000000000000000000000000                    000000000000                                                                                                                                                                                                                                                                                                                                                                                                                                                                                        
00012510609430002G2675906759000000161968001028000000101866-6317293              GA           9 D                00                                      NNNN   N                      000000000000                                                                   77424386                                                                                                                                                                                                                                                                                                                                                                                                                                               
00012520609430035DT67590675900000016196800102800000010680010274001193177900017753422062620230000000223017723000000000259729444278XXXXXX3300               0000000   NYV4 07T583177559762599N8400000000022308PBF00    01CNGREEN OTTER LLC          732413    VS84000000002230 NDR549977424386   F9BAA6759ET85CB192451F8  000000000+                C CC 00245                     000000000  N000000000 166   0000000000000.00 0000000.00   0000000.00                             000000000000000                                                                                                                                                     01424  000000002230-0000000000000.39     01760 00000                  
00012530609430035DR675906759000000161968001028000000106F9BAA6759ET85CB192451F8  U000000002230                 P1                                                                                                                                                                                                                                                                                                                                                                                                                                                                                                                                                                                                            
00012540609430001P16759067590000001619680010280000001060000000000000000                             2000000000000000000000000              000000000000                    0000000000000000000000000                    000000000000                                                                                                                                                                                                                                                                                                                                                                                                                                                                                        
00012550609430002G2675906759000000161968001028000000106866-6317293              GA           9 C                00                                      NNNN   Y                      000000000000                                                                   77424386                                                                                                                                                                                                                                                                                                                                                                                                                                               
00012560609430036DT67590675900000016196800102800000010680010274001193177900017753430062620230000002954717723000000000259729444278XXXXXX3300               0000000   NYV4 07T383177559858499N8400000000295479QHT00    01CNGREEN OTTER LLC          384655    VS84000000029547 NDR549977424386   F9BAA6759ETB971AB799966  000000000+                C CC 00245                     000000000  N000000000 166   0000000000000.00 0000000.00   0000000.00                             000000000000000                                                                                                                                                     01424  000000029547-0000000000005.20     01760 00000                  
00012570609430036DR675906759000000161968001028000000106F9BAA6759ETB971AB799966  U000000029547                 P1                                                                                                                                                                                                                                                                                                                                                                                                                                                                                                                                                                                                            
00012580609430001P16759067590000001619680010280000001060000000000000000                             2000000000000000000000000              000000000000                    0000000000000000000000000                    000000000000                                                                                                                                                                                                                                                                                                                                                                                                                                                                                        
00012590609430002G2675906759000000161968001028000000106866-6317293              GA           9 C                00                                      NNNN   Y                      000000000000                                                                   77424386                                                                                                                                                                                                                                                                                                                                                                                                                                               
00012600609430037DT67590675900000016196800102800000010180010287287283177900017753485062620230000002126117723000000000259729542432XXXXXX8690       ME03KE06MS02      NY 4607AMDJH9H1HI0626  N840000000021261          81DNGREEN OTTER LLC          280083    MD84000000021261 NDR549977424386   222E0F0FF7TCBD43DA8AA06  000000000+600450S00130    MDJ  10813                     000000000  1                0000000000000.00 0000000.00   0000000.00                             000000000000000                                                                                                                                                   U001424  000000000000 0000000000000.33     00050 02200                  
00012610609430037DR675906759000000161968001028000000101222E0F0FF7TCBD43DA8AA06  Y000000000000                                                                                                                                                                                                                                                                                                                                                                                                                                                                                                                                                                                                                               
00012620609430001G2675906759000000161968001028000000101866-6317293              GA           9 J               210                                      NNNN           210000000000000000000000000                        7                                          77424386                                                                                                                                                                                                                                                                                                                                                                                                                                               
00012630609430038DT67590675900000016196800102800000010180010287287283177900017753519062620230000001987017723000000000259729544544XXXXXX4391       ME03KE06MS02      NY 4607AMPMVNDYTA0626  N840000000019870          81DNGREEN OTTER LLC          026696    MD84000000019870 NDR549977424386   B03C974D46T08DF5D2FF17D  000000000+600450S00130    MPM  09899                     000000000  N                0000000000000.00 0000000.00   0000000.00                             000000000000000                                                                                                                                                   U001424  000000000000 0000000000003.70     01760 02000                  
00012640609430038DR675906759000000161968001028000000101B03C974D46T08DF5D2FF17D  Y000000000000                                                                                                                                                                                                                                                                                                                                                                                                                                                                                                                                                                                                                               
00012650609430001G2675906759000000161968001028000000101866-6317293              GA           9 M               210                                      NNNN           210000000000000000000000000                                                                   77424386                                                                                                                                                                                                                                                                                                                                                                                                                                               
00012660609430039DT67590675900000016196800102800000010180010287287283177900017753584062620230000001589017723000000000259729537993XXXXXX8935       ME03KE06MS02      NY 4607AMPLLBWYXI0626  N840000000015890          81DNGREEN OTTER LLC          02631Z    MC84000000015890 NDR549977424386   45C9AFC84FT50FF64698314  000000000+600450S00130    MPL  00013                     000000000  N                0000000000000.00 0000000.00   0000000.00                             000000000000000                                                                                                                                                   U001424  000000000000 0000000000003.20     01950 01000                  
00012670609430039DR67590675900000016196800102800000010145C9AFC84FT50FF64698314  Y000000000000                                                                                                                                                                                                                                                                                                                                                                                                                                                                                                                                                                                                                               
00012680609430001G2675906759000000161968001028000000101866-6317293              GA           9 L               210                                      NNNN           210000000000000000000000000                        7                                          77424386                                                                                                                                                                                                                                                                                                                                                                                                                                               
00012690609430040DT67590675900000016196800102800000010180010287287283177900017753634062620230000000659917723000000000259729548042XXXXXX0049       ME03KE06MS02      NY 4607AMWEDSESLK0626  N840000000006599          81DNGREEN OTTER LLC          03406P    MC84000000006599 NDR549977424386   78303E666ATAD3F33862FE0  000000000+600450S00130    MWE  00737                     000000000  N                0000000000000.00 0000000.00   0000000.00                             000000000000000                                                                                                                                                   U001424  000000000000 0000000000001.82     02600 01000                  
00012700609430040DR67590675900000016196800102800000010178303E666ATAD3F33862FE0  Y000000000000                                                                                                                                                                                                                                                                                                                                                                                                                                                                                                                                                                                                                               
00012710609430001G2675906759000000161968001028000000101866-6317293              GA           9 E               210                                      NNNN           210000000000000000000000000                        7                                          77424386                                                                                                                                                                                                                                                                                                                                                                                                                                               
00012720609430041DT67590675900000016196800102800000010680010287287283177900017753659062620230000002255017723000000000259729511786XXXXXX2775                         NY 4607AMCST1MUXI0626  N840000000022550          81CNGREEN OTTER LLC          005588    MC84000000022550 NDR549977424386   A23FF1B0D9T922A8A78E8AD  000000000+600450S00130    MCS  00565                     000000000  N                0000000000000.00 0000000.00   0000000.00                             000000000000000                                                                                                                                                     01424  000000000000-0000000000003.95     01750 00000                  
00012730609430041DR675906759000000161968001028000000106A23FF1B0D9T922A8A78E8AD  Y000000000000                                                                                                                                                                                                                                                                                                                                                                                                                                                                                                                                                                                                                               
00012740609430001G2675906759000000161968001028000000106866-6317293              GA           9 S               210                                      NNNN           210000000000000000000000000                        7                                          77424386                                                                                                                                                                                                                                                                                                                                                                                                                                               
00012750609430042DT67590675900000016196800102800000010180010287287283177900017753667062620230000001206617723000000000259729546616XXXXXX0021       ME03KE06PT01      NY 4607AMCWTYBRXP0626  N840000000012066          81DNGREEN OTTER LLC          21335Z    MC84000000012066 NDR549977424386   9136DA2EC7TEEBFDD143B75  000000000+600450S00130    MCW  00642                     000000000  N                0000000000000.00 0000000.00   0000000.00                             000000000000000                                                                                                                                                   U001424  000000000000 0000000000002.75     02200 01000                  
00012760609430042DR6759067590000001619680010280000001019136DA2EC7TEEBFDD143B75  Y000000000000                                                                                                                                                                                                                                                                                                                                                                                                                                                                                                                                                                                                                               
00012770609430001G2675906759000000161968001028000000101866-6317293              GA           9 W               210                                      NNNN           210000000000000000000000000                        7                                          77424386                                                                                                                                                                                                                                                                                                                                                                                                                                               
00012780609430043DT67590675900000016196800102800000010180010224001193177900017753690062620230000002118617723000000000259729427082XXXXXX8688               2111111   NYV4 A7W303177651515309N840000000021186SRTT00    01DNGREEN OTTER LLC          026170    VS84000000021186 NDR549977424386   12AFFF22B0T7CEC8E23AE4E  000000000+                D CD 12109                     000000000  N000000000 498   0000000000000.00 0000000.00   0000000.00                             000000000000000                                                                                                                                                     01424 G000000021186 0000000000005.40     02500 01000                  
00012790609430043DR67590675900000016196800102800000010112AFFF22B0T7CEC8E23AE4E  Y000000021186                 P1                                                                                                                                                                                                                                                                                                                                                                                                                                                                                                                                                                                                            
00012800609430001P16759067590000001619680010280000001010000000000000000                             2000000000000000000000000              000000000000                    0000000000000000000000000                    000000000000                                                                                                                                                                                                                                                                                                                                                                                                                                                                                        
00012810609430002G2675906759000000161968001028000000101866-6317293              GA           9 C                00                                      NNNN   Y                      000000000000                                                                   77424386                                                                                                                                                                                                                                                                                                                                                                                                                                               
00012820609430044DT67590675900000016196800102800000010680010287287283177900017753717062620230000001987017723000000000259729515034XXXXXX1291                         NY 4607AMDSM0I7XI0626  N840000000019870          81CNGREEN OTTER LLC          486131    MD84000000019870 NDR549977424386   BFFEB93F6ETC3E0FB69AC6F  000000000+600450S00130    MDS  00560                     000000000  N                0000000000000.00 0000000.00   0000000.00                             000000000000000                                                                                                                                                     01424  000000000000 0000000000000.00     00000 00000                  
00012830609430044DR675906759000000161968001028000000106BFFEB93F6ETC3E0FB69AC6F  Y000000000000                                                                                                                                                                                                                                                                                                                                                                                                                                                                                                                                                                                                                               
00012840609430001G2675906759000000161968001028000000106866-6317293              GA           9 S               210                                      NNNN           210000000000000000000000000                                                                   77424386                                                                                                                                                                                                                                                                                                                                                                                                                                               
00012850609430045DT67590675900000016196800102800000010180010224001193177900017753740062620230000002126117723000000000259729441840XXXXXX9733               2111111   NYV4 A7W463177665210779N8400000000212615TQN00    01DNGREEN OTTER LLC          301162    VS84000000021261 NDR549977424386   030961D98DT3C2D8933B239  000000000+                C CC 12108                     000000000  N000000000 496   0000000000000.00 0000000.00   0000000.00                             000000000000000                                                                                                                                                     01424 G000000021261 0000000000004.46     02050 01000                  
00012860609430045DR675906759000000161968001028000000101030961D98DT3C2D8933B239  Y000000021261                 P1                                                                                                                                                                                                                                                                                                                                                                                                                                                                                                                                                                                                            
00012870609430001P16759067590000001619680010280000001010000000000000000                             2000000000000000000000000              000000000000                    0000000000000000000000000                    000000000000                                                                                                                                                                                                                                                                                                                                                                                                                                                                                        
00012880609430002G2675906759000000161968001028000000101866-6317293              GA           9 C                00                                      NNNN   Y                      000000000000                                                                   77424386                                                                                                                                                                                                                                                                                                                                                                                                                                               
00012890609430046DT67590675900000016196800102800000010180010287287283177900017753949062620230000002941017723000000000259729552433XXXXXX0655       ME03KE06MS02      NY 4607AMPLWOIIXI0626  N840000000029410          81DNGREEN OTTER LLC          02603M    MC84000000029410 NDR549977424386   1446E27A1AT3C6046749F54  000000000+600450S00130    MPL  00580                     000000000  N                0000000000000.00 0000000.00   0000000.00                             000000000000000                                                                                                                                                   U001424  000000000000 0000000000006.28     02100 01000                  
