00003570680290002BH6759067590000001427480010280000090170329202308823000000000148578    0000090001423612Y8001026759C03302023                                                                                                                                                                                                                                                                                                                                                                                                                                                                                                                                                                                                 
00003580680290003DT67590675900000014274800102800000010180010224001193088900014232522032820230000002487008823000000000148578413013XXXXXX9697               2111111   NYV4 A7W463084600047785N840000000024870DVCL00    01DNCBD8666317293            024004    VD84000000024870 NP1549977145232   0F87B9829DT28AA2D828EF5  000000000+                F DF 00415                     000000000  N000000000       0000000000000.00 0000000.00   0000000.00                             000000000000000                                                                                                                                                     01424 G000000024870 0000000000004.25     01650 01500                  
00003590680290001P16759067590000001427480010280000001010000000000000000                             2000000000000000000000000              000000000000                    0000000000000000000000000                    000000000000                                                                                                                                                                                                                                                                                                                                                                                                                                                                                        
00003600680290004DT67590675900000014274800102800000010180010287287283088900014232671032820230000001987008823000000000148578548032XXXXXX8787       ME03KE06MS02      NY 4607AMCSJRZJSB0325  N840000000019870          81DNCBD8666317293            002542    MC84000000019870 N  549977145232   F2D9C3F680TD7F297623A70  000000000+600450S00130    MCS  00013                     000000000  N                0000000000000.00 0000000.00   0000000.00                             000000000000000                                                                                                                                                   U001424  000000000000 0000000000003.97     01950 01000                  
00003610680290005DT67590675900000014274800102800000010180010287287283088900014232689032820230000001589008823000000000148578517545XXXXXX3083       ME03KE06MS02      NY 4607AMDJJ2M8SB0325  N840000000015890          81DNCBD8666317293            025813    MD84000000015890 N  549977145232   B94940EF94T37B4A209B158  000000000+600450S00130    MDJ  10813                     000000000  1                0000000000000.00 0000000.00   0000000.00                             000000000000000                                                                                                                                                   U001424  000000000000 0000000000000.30     00050 02200                  
00003620680290006DT67590675900000014274800102800000010180010287287283088900014232713032820230000001987008823000000000148578526929XXXXXX1586       ME03KE06MS02      NY 4607AMDJXICQ580325  N840000000019870          81DNCBD8666317293            092258    MD84000000019870 N  549977145232   16456487A1TAA70751E1DA9  000000000+600450S00130    MDJ  10813                     000000000  1                0000000000000.00 0000000.00   0000000.00                             000000000000000                                                                                                                                                   U001424  000000000000 0000000000000.32     00050 02200                  
00003630680290007DT67590675900000014274800102800000010180010224001193088900014232753032820230000001604008823000000000148578443047XXXXXX6368               2111111   NYV4 A7W383084771056644N840000000016040LXW400    01DNCBD8666317293            434058    VD84000000016040 NP1549977145232   86C56DAEFFTEBE49628519B  000000000+                F DF 10420                     000000000  Y000000000 338   0000000000000.00 0000000.00   0000000.00                             000000000000000                                                                                                                                                     01424 G000000016040 0000000000000.30     00050 02200                  
00003640680290001P16759067590000001427480010280000001010000000000000000                             2000000000000000000000000              000000000000                    0000000000000000000000000                    000000000000                                                                                                                                                                                                                                                                                                                                                                                                                                                                                        
00003650680290008DT67590675900000014274800102800000010180010287287283088900014232788032820230000001987008823000000000148578511217XXXXXX5136       ME03KE06MS02      NY 4607AMDJNR16AZ0325  N840000000019870          81DNCBD8666317293            011617    MD84000000019870 N  549977145232   BDAC5C2F03T7BCC5ADC6F88  000000000+600450S00130    MDJ  00401                     000000000  N                0000000000000.00 0000000.00   0000000.00                             000000000000000                                                                                                                                                   U001424  000000000000 0000000000003.43     01650 01500                  
00003660680290009DT67590675900000014274800102800000010180010224001193088900014235467032820230000000019908823000000000148578408544XXXXXX1336               2111111   NYV4 A7W463088006085067N840000000000199L3BM00    01DNCBD8666317293            461232    VB84000000000199 NP1549977145232   A26535EF23TB52C8E60FAEE  000000000+                K CK 00691                     000000000  N000000000 234   0000000000000.00 0000000.00   0000000.00                             000000000000000                                                                                                                                                     01424 G000000000199 0000000000000.15     02700 01000                  
00003670680290001P16759067590000001427480010280000001010000000000000000                             2000000000000000000000000              000000000000                    0000000000000000000000000                    000000000000                                                                                                                                                                                                                                                                                                                                                                                                                                                                                        
00003680680290010DT67590675900000014274800102800000010180010224001193088900014235533032820230000000019908823000000000148578408544XXXXXX2939               2111111   NYV4 A7W383088063621919N840000000000199GS7800    01DNCBD8666317293            355624    VB84000000000199 NP1549977145232   333841C9F8T1E3E8A5CC84A  000000000+                K CK 00691                     000000000  N000000000 234   0000000000000.00 0000000.00   0000000.00                             000000000000000                                                                                                                                                     01424 G000000000199 0000000000000.15     02700 01000                  
00003690680290001P16759067590000001427480010280000001010000000000000000                             2000000000000000000000000              000000000000                    0000000000000000000000000                    000000000000                                                                                                                                                                                                                                                                                                                                                                                                                                                                                        
00003700680290011DT67590675900000014274800102800000010180010224001193088900014235566032820230000000019908823000000000148578485932XXXXXX3600               2111111   NYV4 A7W303088080421758N840000000000199F4H200    01DNCBD8666317293            903301    VB84000000000199 NP1549977145232   3AFDF33724T9B5182032D97  000000000+                S CS 00692                     000000000  N000000000 237   0000000000000.00 0000000.00   0000000.00                             000000000000000                                                                                                                                                     01424 G000000000199 0000000000000.15     02700 01000                  
00003710680290001P16759067590000001427480010280000001010000000000000000                             2000000000000000000000000              000000000000                    0000000000000000000000000                    000000000000                                                                                                                                                                                                                                                                                                                                                                                                                                                                                        
00003720680290012DT67590675900000014274800102800000010180010224001193088900014235574032820230000000019908823000000000148578440393XXXXXX4726               2111111   NYV4 A7W303088081753162N840000000000199ZWWN00    01DNCBD8666317293            575543    VD84000000000199 NP1549977145232   5188A1CD31T41A8E53A5599  000000000+                F PF 08175                     000000000  N000000000       0000000000000.00 0000000.00   0000000.00                             000000000000000                                                                                                                                                     01424 G000000000199 0000000000000.23     01750 02000                  
00003730680290001P16759067590000001427480010280000001010000000000000000                             2000000000000000000000000              000000000000                    0000000000000000000000000                    000000000000                                                                                                                                                                                                                                                                                                                                                                                                                                                                                        
00003740680290013DT67590675900000014274800102800000010180010287287283088900014235658032820230000000019908823000000000148578534786XXXXXX1019                         NY 4607AMCOGRAZMD0328  N840000000000199          81DNCBD8666317293            GFUAVM    MB84000000000199 NP1549977145232   33C92DB005T63A1C802C3CA  000000000+600450S00130    MCO  00303                     000000000  N                0000000000000.00 0000000.00   0000000.00                             000000000000000                                                                                                                                                   U001424  000000000000 0000000000000.15     02700 01000                  
00003750680290001P1675906759000000142748001028000000101                                                          000000000000          8000            871584967                                                                                                                                                                                                                                                                                                                                                                                                                                                                                                                                                            
00003760680290014DT67590675900000014274800102800000010180010287287283088900014235666032820230000000019908823000000000148578524897XXXXXX1938                         NY 4607AMCOBCB1VP0328  N840000000000199          81DNCBD8666317293            GTOOWC    MB84000000000199 NP1549977145232   B1C45E9FB8TF8A0AB30BF48  000000000+600450S00130    MCO  00303                     000000000  N                0000000000000.00 0000000.00   0000000.00                             000000000000000                                                                                                                                                   U001424  000000000000 0000000000000.15     02700 01000                  
00003770680290001P1675906759000000142748001028000000101                                                          000000000000          8000            871584967                                                                                                                                                                                                                                                                                                                                                                                                                                                                                                                                                            
00003780680290015DT67590675900000014274800102800000010180010224001193088900014235673032820230000000019908823000000000148578433451XXXXXX2171               2111111   NYV4 A7W583088166276740N840000000000199L4L900    01DNCBD8666317293            A02T8G    VD84000000000199 NP1549977145232   F91D5F2464TBBE70BCC5A9C  000000000+                S PS 10179                     000000000  N000000000 364   0000000000000.00 0000000.00   0000000.00                             000000000000000                                                                                                                                                     01424 G000000000199 0000000000000.15     02650 01000                  
00003790680290001P16759067590000001427480010280000001010000000000000000                             2000000000000000000000000              000000000000                    0000000000000000000000000                    000000000000                                                                                                                                                                                                                                                                                                                                                                                                                                                                                        
00003800680290016DT67590675900000014274800102800000010180010224001193088900014235681032920230000000019908823000000000148578485932XXXXXX3222               2111111   NYV4 A7W303088235883154N840000000000199FJK600    01DNCBD8666317293            115132    VB84000000000199 NP1549977145232   745D0EFBB6T3BCED511AFEC  000000000+                S CS 00692                     000000000  N000000000 237   0000000000000.00 0000000.00   0000000.00                             000000000000000                                                                                                                                                     01424 G000000000199 0000000000000.15     02700 01000                  
00003810680290001P16759067590000001427480010280000001010000000000000000                             2000000000000000000000000              000000000000                    0000000000000000000000000                    000000000000                                                                                                                                                                                                                                                                                                                                                                                                                                                                                        
00003820680290017DT67590675900000014274800102800000010180010224001193088900014235707032920230000000019908823000000000148578428813XXXXXX7529               2111111   NYV4 A7W583088265915434N84000000000019994D800    01DNCBD8666317293            582544    VB84000000000199 NP1549977145232   AD7CE8AD0BTDA04F0B05907  000000000+                S CS 00692                     000000000  N000000000 237   0000000000000.00 0000000.00   0000000.00                             000000000000000                                                                                                                                                     01424 G000000000199 0000000000000.15     02700 01000                  
00003830680290001P16759067590000001427480010280000001010000000000000000                             2000000000000000000000000              000000000000                    0000000000000000000000000                    000000000000                                                                                                                                                                                                                                                                                                                                                                                                                                                                                        
00003840680290018DT67590675900000014274800102800000010180010224001193088900014235715032920230000000019908823000000000148578412076XXXXXX1570               2111111   NYV4 A7W383088312630243N840000000000199LMK800    01DNCBD8666317293            407702    VS84000000000199 NP1549977145232   6942CF5852TE1F86048A258  000000000+                A CA 12106                     000000000  N000000000 492   0000000000000.00 0000000.00   0000000.00                             000000000000000                                                                                                                                                     01424 G000000000199 0000000000000.14     01890 01000                  
00003850680290001P16759067590000001427480010280000001010000000000000000                             2000000000000000000000000              000000000000                    0000000000000000000000000                    000000000000                                                                                                                                                                                                                                                                                                                                                                                                                                                                                        
00003860680290019DT67590675900000014274800102800000010180010287287283088900014235799032920230000000019908823000000000148578524897XXXXXX9275                         NY 4607AMCPDJ85XJ0329  N840000000000199          81DNCBD8666317293            URO55P    MB84000000000199 NP1549977145232   1CD6D967A9T93D8902CDB56  000000000+600450S00130    MCP  00303                     000000000  N                0000000000000.00 0000000.00   0000000.00                             000000000000000                                                                                                                                                   U001424  000000000000 0000000000000.15     02700 01000                  
00003870680290001P1675906759000000142748001028000000101                                                          000000000000          8000            871584967                                                                                                                                                                                                                                                                                                                                                                                                                                                                                                                                                            
00003880680290020DT67590675900000014274800102800000010180010224001193088900014235814032920230000000149508823000000000148578434258XXXXXX3067               2111111   NYV4 A7W583088390006956N840000000001495R3CJ00    01DNCBD8666317293            000201    VD84000000001495 NP1549977145232   BF6FA63271T34DF891B831F  000000000+                F DF 10420                     000000000  Y000000000 338   0000000000000.00 0000000.00   0000000.00                             000000000000000                                                                                                                                                     01424 G000000001495 0000000000000.23     00050 02200                  
00003890680290001P16759067590000001427480010280000001010000000000000000                             2000000000000000000000000              000000000000                    0000000000000000000000000                    000000000000                                                                                                                                                                                                                                                                                                                                                                                                                                                                                        
00003900680290021DT67590675900000014274800102800000010180010224001193088900014235822032920230000000019908823000000000148578489683XXXXXX1485               2111111   NYV4 A7W583088408699952N840000000000199PMF600    01DNCBD8666317293            MNWN1H    VD84000000000199 NP1549977145232   3E57F73528T9288B6C79CAE  000000000+                S PS 10179                     000000000  N000000000 364   0000000000000.00 0000000.00   0000000.00                             000000000000000                                                                                                                                                     01424 G000000000199 0000000000000.15     02650 01000                  
00003910680290001P16759067590000001427480010280000001010000000000000000                             2000000000000000000000000              000000000000                    0000000000000000000000000                    000000000000                                                                                                                                                                                                                                                                                                                                                                                                                                                                                        
00003920680290022DT67590675900000014274800102800000010180010287287283088900014235849032920230000000019908823000000000148578553231XXXXXX2628                         NY 4607AMCFSCAOX20329  N840000000000199          81DNCBD8666317293            0JWF6D    MB84000000000199 NP1549977145232   B5BE291495T8E84FB54834F  000000000+600450S00130    MCF  00060                     000000000  N                0000000000000.00 0000000.00   0000000.00                             000000000000000                                                                                                                                                   U001424  000000000000 0000000000000.16     02950 01000                  
00003930680290001P1675906759000000142748001028000000101                                                          000000000000          8000            871584967                                                                                                                                                                                                                                                                                                                                                                                                                                                                                                                                                            
00003940680290023DT67590675900000014274800102800000010180010224001193088900014235855032920230000000019908823000000000148578428813XXXXXX5151               2111111   NYV4 A7W463088490240361N840000000000199FWQ800    01DNCBD8666317293            507469    VB84000000000199 NP1549977145232   68BB68FA3BT5DE0869385B6  000000000+                S CS 00692                     000000000  N000000000 237   0000000000000.00 0000000.00   0000000.00                             000000000000000                                                                                                                                                     01424 G000000000199 0000000000000.15     02700 01000                  
00003950680290001P16759067590000001427480010280000001010000000000000000                             2000000000000000000000000              000000000000                    0000000000000000000000000                    000000000000                                                                                                                                                                                                                                                                                                                                                                                                                                                                                        
00003960680290024DT67590675900000014274800102800000010180010224001193088900014235863032920230000000019908823000000000148578428813XXXXXX1573               2111111   NYV4 A7W303088496260057N840000000000199CWZJ00    01DNCBD8666317293            634743    VB84000000000199 NP1549977145232   A922212388TCA923345E7B6  000000000+                S CS 00692                     000000000  N000000000 237   0000000000000.00 0000000.00   0000000.00                             000000000000000                                                                                                                                                     01424 G000000000199 0000000000000.15     02700 01000                  
00003970680290001P16759067590000001427480010280000001010000000000000000                             2000000000000000000000000              000000000000                    0000000000000000000000000                    000000000000                                                                                                                                                                                                                                                                                                                                                                                                                                                                                        
00003980680290025DT67590675900000014274800102800000010180010287287283088900014235872032920230000000019908823000000000148578553370XXXXXX6457                         NY 4607AMCFCLI6CI0329  N840000000000199          81DNCBD8666317293            K6QAZA    MB84000000000199 NP1549977145232   292FED6091TF853A2FB4885  000000000+600450S00130    MCF  00060                     000000000  N                0000000000000.00 0000000.00   0000000.00                             000000000000000                                                                                                                                                   U001424  000000000000 0000000000000.16     02950 01000                  
00003990680290001P1675906759000000142748001028000000101                                                          000000000000          8000            871584967                                                                                                                                                                                                                                                                                                                                                                                                                                                                                                                                                            
00004000680290026DT67590675900000014274800102800000010180010224001193088900014235897032920230000000019908823000000000148578412076XXXXXX9148               2111111   NYV4 A7W583088544848781N840000000000199TH5F00    01DNCBD8666317293            170368    VS84000000000199 NP1549977145232   0219144034TC47F3E6F0121  000000000+                A CA 12106                     000000000  N000000000 492   0000000000000.00 0000000.00   0000000.00                             000000000000000                                                                                                                                                     01424 G000000000199 0000000000000.14     01890 01000                  
00004010680290001P16759067590000001427480010280000001010000000000000000                             2000000000000000000000000              000000000000                    0000000000000000000000000                    000000000000                                                                                                                                                                                                                                                                                                                                                                                                                                                                                        
00004020680290027DT67590675900000014274800102800000010180010224001193088900014235905032920230000000019908823000000000148578428813XXXXXX0036               2111111   NYV4 A7W383088558082689N840000000000199RJ9D00    01DNCBD8666317293            198507    VB84000000000199 NP1549977145232   43F907C129T0C0F491557D8  000000000+                S CS 00692                     000000000  N000000000 237   0000000000000.00 0000000.00   0000000.00                             000000000000000                                                                                                                                                     01424 G000000000199 0000000000000.15     02700 01000                  
00004030680290001P16759067590000001427480010280000001010000000000000000                             2000000000000000000000000              000000000000                    0000000000000000000000000                    000000000000                                                                                                                                                                                                                                                                                                                                                                                                                                                                                        
00004040680290028DT67590675900000014274800102800000010180010287287283088900014235914032920230000000019908823000000000148578556371XXXXXX5037                         NY 4607AMCFTCTLCH0329  N840000000000199          81DNCBD8666317293            KCUYJN    MB84000000000199 NP1549977145232   EADB1A75E2TB21B2CDF1467  000000000+600450S00130    MCF  00060                     000000000  N                0000000000000.00 0000000.00   0000000.00                             000000000000000                                                                                                                                                   U001424  000000000000 0000000000000.16     02950 01000                  
00004050680290001P1675906759000000142748001028000000101                                                          000000000000          8000            871584967                                                                                                                                                                                                                                                                                                                                                                                                                                                                                                                                                            
00004060680290029DT67590675900000014274800102800000010680010287287283088900014235922032920230000001035508823000000000148578519452XXXXXX5158                         NY 4607AMCWFN4FCI0329  N840000000010355          81CNCBD8666317293            064673    MC84000000010355 N  549977145232   451C4AA23AT15D3E058052B  000000000+600450S00130    MCW  00565                     000000000  N                0000000000000.00 0000000.00   0000000.00                             000000000000000                                                                                                                                                     01424  000000000000-0000000000001.81     01750 00000                  
00004070680290030DT67590675900000014274800102800000010180010224001193088900014235939032920230000001499108823000000000148578439707XXXXXX6107               2111111   NYV4 A7W463088596191827N840000000014991NKFC00    01DNCBD8666317293            00197C    VS84000000014991 NP1549977145232   866D0EC4F5T21085D65FBE5  000000000+                C CC 12108                     000000000  N000000000 496   0000000000000.00 0000000.00   0000000.00                             000000000000000                                                                                                                                                     01424 G000000014991 0000000000003.17     02050 01000                  
00004080680290001P16759067590000001427480010280000001010000000000000000                             2000000000000000000000000              000000000000                    0000000000000000000000000                    000000000000                                                                                                                                                                                                                                                                                                                                                                                                                                                                                        
00004090680290031DT67590675900000014274800102800000010180010224001193088900014235954032920230000000019908823000000000148578485932XXXXXX1754               2111111   NYV4 A7W463088614434477N840000000000199435G00    01DNCBD8666317293            372808    VB84000000000199 NP1549977145232   7485A7F986T824E71A4216F  000000000+                S CS 00692                     000000000  N000000000 237   0000000000000.00 0000000.00   0000000.00                             000000000000000                                                                                                                                                     01424 G000000000199 0000000000000.15     02700 01000                  
00004100680290001P16759067590000001427480010280000001010000000000000000                             2000000000000000000000000              000000000000                    0000000000000000000000000                    000000000000                                                                                                                                                                                                                                                                                                                                                                                                                                                                                        
00004110680290032DT67590675900000014274800102800000010180010224001193088900014235996032920230000000019908823000000000148578408544XXXXXX6530               2111111   NYV4 A7W383088681671403N840000000000199VWZM00    01DNCBD8666317293            530872    VB84000000000199 NP1549977145232   646CEAF033T60D8B71A5CE6  000000000+                K CK 00691                     000000000  N000000000 234   0000000000000.00 0000000.00   0000000.00                             000000000000000                                                                                                                                                     01424 G000000000199 0000000000000.15     02700 01000                  
00004120680290001P16759067590000001427480010280000001010000000000000000                             2000000000000000000000000              000000000000                    0000000000000000000000000                    000000000000                                                                                                                                                                                                                                                                                                                                                                                                                                                                                        
00004130680290033DT67590675900000014274800102800000010180010287287283088900014236003032920230000000019908823000000000148578524897XXXXXX2675                         NY 4607AMCOXO2CEK0329  N840000000000199          81DNCBD8666317293            2UMAM7    MB84000000000199 NP1549977145232   8BD1E72A98TB640B4E5B07A  000000000+600450S00130    MCO  00303                     000000000  N                0000000000000.00 0000000.00   0000000.00                             000000000000000                                                                                                                                                   U001424  000000000000 0000000000000.15     02700 01000                  
00004140680290001P1675906759000000142748001028000000101                                                          000000000000          8000            871584967                                                                                                                                                                                                                                                                                                                                                                                                                                                                                                                                                            
00004150680290034DT67590675900000014274800102800000010180010224001193088900014236028032920230000000019908823000000000148578428813XXXXXX6244               2111111   NYV4 A7W463088756647817N840000000000199TFWP00    01DNCBD8666317293            490044    VB84000000000199 NP1549977145232   9E47E101F2TDD6CC2C92D5D  000000000+                S CS 00692                     000000000  N000000000 237   0000000000000.00 0000000.00   0000000.00                             000000000000000                                                                                                                                                     01424 G000000000199 0000000000000.15     02700 01000                  
00004160680290001P16759067590000001427480010280000001010000000000000000                             2000000000000000000000000              000000000000                    0000000000000000000000000                    000000000000                                                                                                                                                                                                                                                                                                                                                                                                                                                                                        
00004170680290035DT67590675900000014274800102800000010180010224001193088900014236036032920230000000019908823000000000148578404038XXXXXX9403               2111111   NYV4 A7W583088757911065N84000000000019993RM00    01DNCBD8666317293            V0EPT3    VD84000000000199 NP1549977145232   72F6EF3DC5TE0BA7A53E6D9  000000000+                S PS 10179                     000000000  N000000000 364   0000000000000.00 0000000.00   0000000.00                             000000000000000                                                                                                                                                     01424 G000000000199 0000000000000.15     02650 01000                  
00004180680290001P16759067590000001427480010280000001010000000000000000                             2000000000000000000000000              000000000000                    0000000000000000000000000                    000000000000                                                                                                                                                                                                                                                                                                                                                                                                                                                                                        
00004190680290036DT67590675900000014274800102800000010180010224001193088900014236085032920230000000019908823000000000148578441112XXXXXX0791               2111111   NYV4 A7W583088822644276N840000000000199LVZV00    01DNCBD8666317293            1KUBGH    VD84000000000199 NP1549977145232   E49993C3AFTC45B2D88681B  000000000+                S PS 10179                     000000000  N000000000 364   0000000000000.00 0000000.00   0000000.00                             000000000000000                                                                                                                                                     01424 G000000000199 0000000000000.15     02650 01000                  
00004200680290001P16759067590000001427480010280000001010000000000000000                             2000000000000000000000000              000000000000                    0000000000000000000000000                    000000000000                                                                                                                                                                                                                                                                                                                                                                                                                                                                                        
00004210680290037DT67590675900000014274800102800000010180010287287283088900014236128032920230000002106208823000000000148578517546XXXXXX7215       ME03KE06MS02      NY 4607AMDJMNRHF30329  N840000000021062          81DNCBD8666317293            029354    MD84000000021062 N  549977145232   EBA217504FT3044FC6E36DF  000000000+600450S00130    MDJ  10813                     000000000  1                0000000000000.00 0000000.00   0000000.00                             000000000000000                                                                                                                                                   U001424  000000000000 0000000000000.33     00050 02200                  
00004220680290038BH6759067590000001516480088880000090170329202308823000000002917288    0000090001298863Y8008886759C03302023                                                                                                                                                                                                                                                                                                                                                                                                                                                                                                                                                                                                 
00004230680290039DT67590675900000015164800888800000010180088887287283088900012979604032820230000001987008823000000002917288510888XXXXXX2329       ME03KE06MS02      NY 4607AMDJJ7H5V50328  N840000000019870          81DNKETOFUSION833-923-3587   739330    MD84000000019870 N  599977360677   CFC23E28C8T903CC7275DC9  000000000+600450S00130    MDJ  00401                     000000000  N                0000000000000.00 0000000.00   0000000.00                             000000000000000                                                                                                                                                   U001424  000000000000 0000000000003.43     01650 01500                  
00004240680290040DT67590675900000015164800888800000010180088824001193088900012979611032820230000001987008823000000002917288403766XXXXXX8376               2111111   NYV4 A7W303088018816136N840000000019870JVN700    01DNKETOFUSION833-923-3587   918213    VS84000000019870 NP1599977360677   327EDECFE4TE579A2FF4939  000000000+                C CC 12108                     000000000  N000000000 496   0000000000000.00 0000000.00   0000000.00                             000000000000000                                                                                                                                                     01424 G000000019870 0000000000004.17     02050 01000                  
00004250680290001P16759067590000001516480088880000001010000000000000000                             2000000000000000000000000              000000000000                    0000000000000000000000000                    000000000000                                                                                                                                                                                                                                                                                                                                                                                                                                                                                        
00004260680290041DT67590675900000015164800888800000010180088824001193088900012979629032820230000000654808823000000002917288403766XXXXXX8376               2111111   NYV4 A7W383088018902025N8400000000065489HR200    01DNKETOFUSION833-923-3587   918213    VS84000000006548 NP1599977360677   327EDECFE4TC191E2293C44  000000000+                C CC 12108                     000000000  N000000000 496   0000000000000.00 0000000.00   0000000.00                             000000000000000                                                                                                                                                     01424 G000000006548 0000000000001.44     02050 01000                  
00004270680290001P16759067590000001516480088880000001010000000000000000                             2000000000000000000000000              000000000000                    0000000000000000000000000                    000000000000                                                                                                                                                                                                                                                                                                                                                                                                                                                                                        
00004280680290042DT67590675900000015164800888800000010180088824001193088900012979637032820230000000519008823000000002917288403766XXXXXX8376               2111111   NYV4 A7W463088019385804N840000000005190FRMW00    01DNKETOFUSION833-923-3587   918223    VS84000000005190 NP1599977360677   327EDECFE4T0FC6E16E4F7C  000000000+                C CC 12108                     000000000  N000000000 496   0000000000000.00 0000000.00   0000000.00                             000000000000000                                                                                                                                                     01424 G000000005190 0000000000001.16     02050 01000                  
00004290680290001P16759067590000001516480088880000001010000000000000000                             2000000000000000000000000              000000000000                    0000000000000000000000000                    000000000000                                                                                                                                                                                                                                                                                                                                                                                                                                                                                        
00004300680290043DT67590675900000015164800888800000010180088824001193088900012979710032820230000001799108823000000002917288440066XXXXXX5801               2111111   NYV4 A7W303088040947584N8400000000179912LLS00    01DNKETOFUSION833-923-3587   02262D    VS84000000017991 NP1599977360677   CF888CE64ET61B0FDE577CE  000000000+                D CD 12109                     000000000  N000000000 498   0000000000000.00 0000000.00   0000000.00                             000000000000000                                                                                                                                                     01424 G000000017991 0000000000004.60     02500 01000                  
00004310680290001P16759067590000001516480088880000001010000000000000000                             2000000000000000000000000              000000000000                    0000000000000000000000000                    000000000000                                                                                                                                                                                                                                                                                                                                                                                                                                                                                        
00004320680290044DT67590675900000015164800888800000010180088824001193088900012979728032820230000000519008823000000002917288440066XXXXXX5801               2111111   NYV4 A7W583088041297124N840000000005190VQ2N00    01DNKETOFUSION833-923-3587   00928D    VS84000000005190 NP1599977360677   CF888CE64ET4DB91079031C  000000000+                D CD 12109                     000000000  N000000000 498   0000000000000.00 0000000.00   0000000.00                             000000000000000                                                                                                                                                     01424 G000000005190 0000000000001.40     02500 01000                  
00004330680290001P16759067590000001516480088880000001010000000000000000                             2000000000000000000000000              000000000000                    0000000000000000000000000                    000000000000                                                                                                                                                                                                                                                                                                                                                                                                                                                                                        
00004340680290045DT67590675900000015164800888800000010180088887287283088900012979745032820230000000654808823000000002917288551733XXXXXX8458       ME03KE06MS02      NY 4607AMDSGTANVP0328  N840000000006548          81DNKETOFUSION833-923-3587   037467    MD84000000006548 N  599977360677   8B4C48073FT502F7A6C0D9B  000000000+600450S00130    MDS  10813                     000000000  1                0000000000000.00 0000000.00   0000000.00                             000000000000000                                                                                                                                                   U001424  000000000000 0000000000000.25     00050 02200                  
00004350680290046DT67590675900000015164800888800000010180088887287283088900012979752032820230000000519008823000000002917288551733XXXXXX8458       ME03KE06MS02      NY 4607AMDSGTG3VP0328  N840000000005190          81DNKETOFUSION833-923-3587   055074    MD84000000005190 N  599977360677   8B4C48073FT5F000E94DF06  000000000+600450S00130    MDS  10813                     000000000  1                0000000000000.00 0000000.00   0000000.00                             000000000000000                                                                                                                                                   U001424  000000000000 0000000000000.25     00050 02200                  
00004360680290047DT67590675900000015164800888800000010180088887287283088900012979760032820230000001799108823000000002917288536219XXXXXX9747       ME03KE06MS02      NY 4607AMDJE5RIMD0328  N840000000017991          81DNKETOFUSION833-923-3587   33688Z    MD84000000017991 N  599977360677   273F40249ET9B68630DCDFE  000000000+600450S00130    MDJ  10813                     000000000  1                0000000000000.00 0000000.00   0000000.00                             000000000000000                                                                                                                                                   U001424  000000000000 0000000000000.31     00050 02200                  
00004370680290048DT67590675900000015164800888800000010180088824001193088900012979777032820230000002487008823000000002917288429413XXXXXX3834               2111111   NYV4 A7W383088047960619N840000000024870FV4W00    01DNKETOFUSION833-923-3587   101502    VD84000000024870 NP1599977360677   99AF798F3DT8939993C6321  000000000+                F DF 00415                     000000000  N000000000       0000000000000.00 0000000.00   0000000.00                             000000000000000                                                                                                                                                     01424 G000000024870 0000000000004.25     01650 01500                  
00004380680290001P16759067590000001516480088880000001010000000000000000                             2000000000000000000000000              000000000000                    0000000000000000000000000                    000000000000                                                                                                                                                                                                                                                                                                                                                                                                                                                                                        
00004390680290049DT67590675900000015164800888800000010180088887287283088900012979802032820230000001987008823000000002917288524300XXXXXX1211       ME03KE06MS02      NY 4607AMPLE8JEMD0328  N840000000019870          81DNKETOFUSION833-923-3587   02868Z    MC84000000019870 N  599977360677   5FB60DF517T3941F1880A27  000000000+600450S00130    MPL  00013                     000000000  N                0000000000000.00 0000000.00   0000000.00                             000000000000000                                                                                                                                                   U001424  000000000000 0000000000003.97     01950 01000                  
00004400680290050DT67590675900000015164800888800000010180088887287283088900012979810032820230000000654808823000000002917288524300XXXXXX1211       ME03KE06MS02      NY 4607AMPLK7ZXV50328  N840000000006548          81DNKETOFUSION833-923-3587   02867Z    MC84000000006548 N  599977360677   5FB60DF517TAC001E73EE49  000000000+600450S00130    MPL  00013                     000000000  N                0000000000000.00 0000000.00   0000000.00                             000000000000000                                                                                                                                                   U001424  000000000000 0000000000001.38     01950 01000                  
00004410680290051DT67590675900000015164800888800000010180088824001193088900012979835032820230000001987008823000000002917288431644XXXXXX1001               2111111   NYV4 A7W383088050462651N840000000019870CQN200    01DNKETOFUSION833-923-3587   02199A    VS84000000019870 NP1599977360677   E277010622T5315F3FBC972  000000000+                A CA 12106                     000000000  N000000000 492   0000000000000.00 0000000.00   0000000.00                             000000000000000                                                                                                                                                     01424 G000000019870 0000000000003.86     01890 01000                  
00004420680290001P16759067590000001516480088880000001010000000000000000                             2000000000000000000000000              000000000000                    0000000000000000000000000                    000000000000                                                                                                                                                                                                                                                                                                                                                                                                                                                                                        
00004430680290052DT67590675900000015164800888800000010180088824001193088900012979876032820230000002487008823000000002917288440393XXXXXX2530               2111111   NYV4 A7W463088060041576N8400000000248702ZGW00    01DNKETOFUSION833-923-3587   311927    VD84000000024870 NP1599977360677   F29070C182T0774AF018E1D  000000000+                F PF 08175                     000000000  N000000000       0000000000000.00 0000000.00   0000000.00                             000000000000000                                                                                                                                                     01424 G000000024870 0000000000004.55     01750 02000                  
00004440680290001P16759067590000001516480088880000001010000000000000000                             2000000000000000000000000              000000000000                    0000000000000000000000000                    000000000000                                                                                                                                                                                                                                                                                                                                                                                                                                                                                        
00004450680290053DT67590675900000015164800888800000010180088824001193088900012979884032820230000000654808823000000002917288426684XXXXXX7002               2111111   NYV4 A7W303088070776335N84000000000654835CQ00    01DNKETOFUSION833-923-3587   02738D    VS84000000006548 NP1599977360677   6664A8EB46T39CB75BE5F1F  000000000+                D CD 12109                     000000000  N000000000 498   0000000000000.00 0000000.00   0000000.00                             000000000000000                                                                                                                                                     01424 G000000006548 0000000000001.74     02500 01000                  
00004460680290001P16759067590000001516480088880000001010000000000000000                             2000000000000000000000000              000000000000                    0000000000000000000000000                    000000000000                                                                                                                                                                                                                                                                                                                                                                                                                                                                                        
00004470680290054DT67590675900000015164800888800000010180088824001193088900012979892032820230000000519008823000000002917288426684XXXXXX7002               2111111   NYV4 A7W583088070841784N840000000005190R7RF00    01DNKETOFUSION833-923-3587   04131D    VS84000000005190 NP1599977360677   6664A8EB46T33381D6A1DB0  000000000+                D CD 12109                     000000000  N000000000 498   0000000000000.00 0000000.00   0000000.00                             000000000000000                                                                                                                                                     01424 G000000005190 0000000000001.40     02500 01000                  
00004480680290001P16759067590000001516480088880000001010000000000000000                             2000000000000000000000000              000000000000                    0000000000000000000000000                    000000000000                                                                                                                                                                                                                                                                                                                                                                                                                                                                                        
00004490680290055DT67590675900000015164800888800000010180088876509753088900012979916032820230000002487008823000000002917288601101XXXXXX4337   BA00                  NY 4 07N743075096049228N840000000024870    00    01DNKETOFUSION833-923-3587   02813P    DS84000000024870 N  599977360677070                         000000000+1015104910600   DCPDI11327001565  210004000000 000000000  0          462   0000000000000.00 0000000.00   0000000.00                             000000000000000                                                                                                                                                     01424  000000000000 0000000000005.20     02050 01000                  
00004500680290056DT67590675900000015164800888800000010180088887287283088900012979950032820230000000654808823000000002917288515034XXXXXX3975       ME03KE06MS02      NY 4607AMDSFTMQMD0328  N840000000006548          81DNKETOFUSION833-923-3587   768581    MD84000000006548 N  599977360677   9512B48C46T50EFBDC1962D  000000000+600450S00130    MDS  00401                     000000000  N                0000000000000.00 0000000.00   0000000.00                             000000000000000                                                                                                                                                   U001424  000000000000 0000000000001.23     01650 01500                  
00004510680290057DT67590675900000015164800888800000010180088887287283088900012979968032820230000000519008823000000002917288515034XXXXXX3975       ME03KE06MS02      NY 4607AMDSAHF5VP0328  N840000000005190          81DNKETOFUSION833-923-3587   768595    MD84000000005190 N  599977360677   9512B48C46TA0F64D8A1A3F  000000000+600450S00130    MDS  00401                     000000000  N                0000000000000.00 0000000.00   0000000.00                             000000000000000                                                                                                                                                   U001424  000000000000 0000000000001.01     01650 01500                  
00004520680290058DT67590675900000015164800888800000010180088824001193088900012979975032820230000001987008823000000002917288426452XXXXXX1266               2111111   NYV4 A7W383088074934682N8400000000198703LZP00    01DNKETOFUSION833-923-3587   08504D    VS84000000019870 NP1599977360677   FFB9FDDE1DT9E0642C88C49  000000000+                D CD 12109                     000000000  N000000000 498   0000000000000.00 0000000.00   0000000.00                             000000000000000                                                                                                                                                     01424 G000000019870 0000000000005.07     02500 01000                  
00004530680290001P16759067590000001516480088880000001010000000000000000                             2000000000000000000000000              000000000000                    0000000000000000000000000                    000000000000                                                                                                                                                                                                                                                                                                                                                                                                                                                                                        
00004540680290059DT67590675900000015164800888800000010180088824001193088900012979983032820230000001987008823000000002917288426684XXXXXX6285               2111111   NYV4 A7W303088075040981N840000000019870VPZH00    01DNKETOFUSION833-923-3587   05127A    VS84000000019870 NP1599977360677   752B758376T493469A29738  000000000+                A CA 12106                     000000000  N000000000 492   0000000000000.00 0000000.00   0000000.00                             000000000000000                                                                                                                                                     01424 G000000019870 0000000000003.86     01890 01000                  
00004550680290001P16759067590000001516480088880000001010000000000000000                             2000000000000000000000000              000000000000                    0000000000000000000000000                    000000000000                                                                                                                                                                                                                                                                                                                                                                                                                                                                                        
00004560680290060DT67590675900000015164800888800000010180088824001193088900012979991032820230000000654808823000000002917288426452XXXXXX1266               2111111   NYV4 A7W583088075103706N840000000006548W6CC00    01DNKETOFUSION833-923-3587   03964D    VS84000000006548 NP1599977360677   FFB9FDDE1DTBA62C1C43E1F  000000000+                D CD 12109                     000000000  N000000000 498   0000000000000.00 0000000.00   0000000.00                             000000000000000                                                                                                                                                     01424 G000000006548 0000000000001.74     02500 01000                  
00004570680290001P16759067590000001516480088880000001010000000000000000                             2000000000000000000000000              000000000000                    0000000000000000000000000                    000000000000                                                                                                                                                                                                                                                                                                                                                                                                                                                                                        
00004580680290061DT67590675900000015164800888800000010180088824001193088900012980015032820230000001194808823000000002917288473702XXXXXX0004               2111111   NYV4 A7W463088077311321N84000000001194868X400    01DNKETOFUSION833-923-3587   047850    VD84000000011948 NP1599977360677   CB1A0D7741TCA5DA350D9E0  000000000+                F DF 10420                     000000000  Y000000000 338   0000000000000.00 0000000.00   0000000.00                             000000000000000                                                                                                                                                     01424 G000000011948 0000000000000.28     00050 02200                  
00004590680290001P16759067590000001516480088880000001010000000000000000                             2000000000000000000000000              000000000000                    0000000000000000000000000                    000000000000                                                                                                                                                                                                                                                                                                                                                                                                                                                                                        
00004600680290062DT67590675900000015164800888800000010180088824001193088900012980023032820230000000654808823000000002917288473702XXXXXX0004               2111111   NYV4 A7W303088077516347N840000000006548TNF600    01DNKETOFUSION833-923-3587   057886    VD84000000006548 NP1599977360677   CB1A0D7741T52A089AB25EF  000000000+                F DF 10420                     000000000  Y000000000 338   0000000000000.00 0000000.00   0000000.00                             000000000000000                                                                                                                                                     01424 G000000006548 0000000000000.25     00050 02200                  
00004610680290001P16759067590000001516480088880000001010000000000000000                             2000000000000000000000000              000000000000                    0000000000000000000000000                    000000000000                                                                                                                                                                                                                                                                                                                                                                                                                                                                                        
00004620680290063DT67590675900000015164800888800000010180088887287283088900012980057032820230000002487008823000000002917288520738XXXXXX5612       ME03KE06MS02      NY 4607AMPLHK1KVP0328  N840000000024870          81DNKETOFUSION833-923-3587   028445    MC84000000024870 N  599977360677   5D097A37E4T2A3B422A219E  000000000+600450S00130    MPL  00013                     000000000  N                0000000000000.00 0000000.00   0000000.00                             000000000000000                                                                                                                                                   U001424  000000000000 0000000000004.95     01950 01000                  
00004630680290064DT67590675900000015164800888800000010180088887287283088900012980065032820230000000519008823000000002917288520738XXXXXX5612       ME03KE06MS02      NY 4607AMPLOK3IVP0328  N840000000005190          81DNKETOFUSION833-923-3587   028643    MC84000000005190 N  599977360677   5D097A37E4T8A25A3279971  000000000+600450S00130    MPL  00013                     000000000  N                0000000000000.00 0000000.00   0000000.00                             000000000000000                                                                                                                                                   U001424  000000000000 0000000000001.11     01950 01000                  
00004640680290065DT67590675900000015164800888800000010180088887287283088900012980073032820230000000198808823000000002917288520738XXXXXX5612       ME03KE06MS02      NY 4607AMPLFYWIMD0328  N840000000001988          81DNKETOFUSION833-923-3587   028387    MC84000000001988 N  599977360677   5D097A37E4TCA3B76B4134D  000000000+600450S00130    MPL  00013                     000000000  N                0000000000000.00 0000000.00   0000000.00                             000000000000000                                                                                                                                                   U001424  000000000000 0000000000000.49     01950 01000                  
00004650680290066DT67590675900000015164800888800000010180088824001193088900012980080032820230000001987008823000000002917288414718XXXXXX0911               2111111   NYV4 A7W303088082557190N840000000019870T3XS00    01DNKETOFUSION833-923-3587   028064    VS84000000019870 NP1599977360677   763D49080FTCCCD0BB6F6D6  000000000+                D CD 12109                     000000000  N000000000 498   0000000000000.00 0000000.00   0000000.00                             000000000000000                                                                                                                                                     01424 G000000019870 0000000000005.07     02500 01000                  
00004660680290001P16759067590000001516480088880000001010000000000000000                             2000000000000000000000000              000000000000                    0000000000000000000000000                    000000000000                                                                                                                                                                                                                                                                                                                                                                                                                                                                                        
00004670680290067DT67590675900000015164800888800000010180088824001193088900012980098032820230000000654808823000000002917288414718XXXXXX0911               2111111   NYV4 A7W583088082889572N840000000006548T4D400    01DNKETOFUSION833-923-3587   028658    VS84000000006548 NP1599977360677   763D49080FT19179796D46A  000000000+                D CD 12109                     000000000  N000000000 498   0000000000000.00 0000000.00   0000000.00                             000000000000000                                                                                                                                                     01424 G000000006548 0000000000001.74     02500 01000                  
00004680680290001P16759067590000001516480088880000001010000000000000000                             2000000000000000000000000              000000000000                    0000000000000000000000000                    000000000000                                                                                                                                                                                                                                                                                                                                                                                                                                                                                        
00004690680290068DT67590675900000015164800888800000010180088824001193088900012980106032820230000000519008823000000002917288414718XXXXXX0911               2111111   NYV4 A7W463088082968620N840000000005190M3XD00    01DNKETOFUSION833-923-3587   028868    VS84000000005190 NP1599977360677   763D49080FT2AB7E1980E3E  000000000+                D CD 12109                     000000000  N000000000 498   0000000000000.00 0000000.00   0000000.00                             000000000000000                                                                                                                                                     01424 G000000005190 0000000000001.40     02500 01000                  
00004700680290001P16759067590000001516480088880000001010000000000000000                             2000000000000000000000000              000000000000                    0000000000000000000000000                    000000000000                                                                                                                                                                                                                                                                                                                                                                                                                                                                                        
00004710680290069DT67590675900000015164800888800000010180088824001193088900012980114032820230000001578508823000000002917288423848XXXXXX3600               2111111   NYV4 A7W463088095401919N840000000015785F7BH00    01DNKETOFUSION833-923-3587   971135    VD84000000015785 NP1599977360677   BA413F8E54TC693B1C45F09  000000000+                F DF 00415                     000000000  N000000000       0000000000000.00 0000000.00   0000000.00                             000000000000000                                                                                                                                                     01424 G000000015785 0000000000002.75     01650 01500                  
00004720680290001P16759067590000001516480088880000001010000000000000000                             2000000000000000000000000              000000000000                    0000000000000000000000000                    000000000000                                                                                                                                                                                                                                                                                                                                                                                                                                                                                        
00004730680290070DT67590675900000015164800888800000010180088887287283088900012980123032820230000000654808823000000002917288555832XXXXXX1386       ME03KE06MS02      NY 4607AMDJY8DLMC0328  N840000000006548          81DNKETOFUSION833-923-3587   023910    MD84000000006548 N  599977360677   C03A87D7CBTF6A2BE2E3225  000000000+600450S00130    MDJ  00401                     000000000  N                0000000000000.00 0000000.00   0000000.00                             000000000000000                                                                                                                                                   U001424  000000000000 0000000000001.23     01650 01500                  
00004740680290071DT67590675900000015164800888800000010180088824001193088900012980130032820230000002487008823000000002917288400344XXXXXX6376               2111111   NYV4 A7W303088097967688N840000000024870CL6300    01DNKETOFUSION833-923-3587   09491B    VS84000000024870 NP1599977360677   CD58F830C5T2A01F6B0E2AA  000000000+                B CB 12107                     000000000  N000000000 494   0000000000000.00 0000000.00   0000000.00                             000000000000000                                                                                                                                                     01424 G000000024870 0000000000005.17     02040 01000                  
00004750680290001P16759067590000001516480088880000001010000000000000000                             2000000000000000000000000              000000000000                    0000000000000000000000000                    000000000000                                                                                                                                                                                                                                                                                                                                                                                                                                                                                        
00004760680290072DT67590675900000015164800888800000010180088824001193088900012980148032820230000000654808823000000002917288400344XXXXXX6376               2111111   NYV4 A7W463088098255809N840000000006548T7SR00    01DNKETOFUSION833-923-3587   00385B    VS84000000006548 NP1599977360677   CD58F830C5T2AB45A83E748  000000000+                B CB 12107                     000000000  N000000000 494   0000000000000.00 0000000.00   0000000.00                             000000000000000                                                                                                                                                     01424 G000000006548 0000000000001.44     02040 01000                  
00004770680290001P16759067590000001516480088880000001010000000000000000                             2000000000000000000000000              000000000000                    0000000000000000000000000                    000000000000                                                                                                                                                                                                                                                                                                                                                                                                                                                                                        
00004780680290073DT67590675900000015164800888800000010180088824001193088900012980155032820230000000519008823000000002917288400344XXXXXX6376               2111111   NYV4 A7W383088098411539N840000000005190LD4200    01DNKETOFUSION833-923-3587   02043B    VS84000000005190 NP1599977360677   CD58F830C5TA9D86D086961  000000000+                B CB 12107                     000000000  N000000000 494   0000000000000.00 0000000.00   0000000.00                             000000000000000                                                                                                                                                     01424 G000000005190 0000000000001.16     02040 01000                  
00004790680290001P16759067590000001516480088880000001010000000000000000                             2000000000000000000000000              000000000000                    0000000000000000000000000                    000000000000                                                                                                                                                                                                                                                                                                                                                                                                                                                                                        
00004800680290074DT67590675900000015164800888800000010180088824001193088900012980197032820230000001987008823000000002917288415158XXXXXX8700               2111111   NYV4 A7W463088104070264N8400000000198704KXM00    01DNKETOFUSION833-923-3587   001698    VD84000000019870 NP1599977360677   20DC315DCFT7D1997291642  000000000+                F DF 00415                     000000000  N000000000       0000000000000.00 0000000.00   0000000.00                             000000000000000                                                                                                                                                     01424 G000000019870 0000000000003.43     01650 01500                  
00004810680290001P16759067590000001516480088880000001010000000000000000                             2000000000000000000000000              000000000000                    0000000000000000000000000                    000000000000                                                                                                                                                                                                                                                                                                                                                                                                                                                                                        
00004820680290075DT67590675900000015164800888800000010180088887287283088900012980206032820230000001499108823000000002917288542418XXXXXX7169       ME03KE06MS02      NY 4607AMPLH0I5VP0328  N840000000014991          81DNKETOFUSION833-923-3587   03601B    MC84000000014991 N  599977360677   E297EDCD3DTA1AB2436242D  000000000+600450S00130    MPL  00580                     000000000  N                0000000000000.00 0000000.00   0000000.00                             000000000000000                                                                                                                                                   U001424  000000000000 0000000000003.25     02100 01000                  
00004830680290076DT67590675900000015164800888800000010180088887287283088900012980255032820230000001987008823000000002917288552736XXXXXX8726       ME03KE06MS02      NY 4607AMPLZKAVMC0328  N840000000019870          81DNKETOFUSION833-923-3587   05629B    MC84000000019870 N  599977360677   A098C6BF69T95F11F1E2538  000000000+600450S00130    MPL  00580                     000000000  N                0000000000000.00 0000000.00   0000000.00                             000000000000000                                                                                                                                                   U001424  000000000000 0000000000004.27     02100 01000                  
00004840680290077DT67590675900000015164800888800000010180088876509753088900012980286032820230000001987008823000000002917288601149XXXXXX8416   BA00                  NY 4 07N753075144041502N840000000019870    00    01DNKETOFUSION833-923-3587   02804P    DS84000000019870 N  599977360677070                         000000000+1015104910600   DCPDI11327833581  222004000000 000000000  0          462   0000000000000.00 0000000.00   0000000.00                             000000000000000                                                                                                                                                     01424  000000000000 0000000000004.17     02050 01000                  
00004850680290078DT67590675900000015164800888800000010180088887287283088900012980297032820230000001987008823000000002917288546325XXXXXX0749       ME03KE06MS02      NY 4607AMWEH6NAVP0328  N840000000019870          81DNKETOFUSION833-923-3587   07569P    MC84000000019870 N  599977360677   DC75E409F7T37D9744A4717  000000000+600450S00130    MWE  00737                     000000000  N                0000000000000.00 0000000.00   0000000.00                             000000000000000                                                                                                                                                   U001424  000000000000 0000000000005.27     02600 01000                  
00004860680290079DT67590675900000015164800888800000010180088824001193088900012980338032820230000002078508823000000002917288436618XXXXXX0069               2111111   NYV4 A7W303088141221246N840000000020785TMWC00    01DNKETOFUSION833-923-3587   007199    VD84000000020785 NP1599977360677   F440F4D7DCT522776DB9CDB  000000000+                F DF 10420                     000000000  Y000000000 338   0000000000000.00 0000000.00   0000000.00                             000000000000000                                                                                                                                                     01424 G000000020785 0000000000000.32     00050 02200                  
00004870680290001P16759067590000001516480088880000001010000000000000000                             2000000000000000000000000              000000000000                    0000000000000000000000000                    000000000000                                                                                                                                                                                                                                                                                                                                                                                                                                                                                        
00004880680290080DT67590675900000015164800888800000010180088824001193088900012980346032820230000000654808823000000002917288436618XXXXXX0069               2111111   NYV4 A7W463088141375000N8400000000065489FMK00    01DNKETOFUSION833-923-3587   026523    VD84000000006548 NP1599977360677   F440F4D7DCT0A39A90A3E6A  000000000+                F DF 10420                     000000000  Y000000000 338   0000000000000.00 0000000.00   0000000.00                             000000000000000                                                                                                                                                     01424 G000000006548 0000000000000.25     00050 02200                  
00004890680290001P16759067590000001516480088880000001010000000000000000                             2000000000000000000000000              000000000000                    0000000000000000000000000                    000000000000                                                                                                                                                                                                                                                                                                                                                                                                                                                                                        
00004900680290081DT67590675900000015164800888800000010180088887287283088900012980370032820230000001987008823000000002917288521853XXXXXX7674       ME03KE06PT01      NY 4607AMCWZU2TMC0328  N840000000019870          81DNKETOFUSION833-923-3587   02842T    MC84000000019870 N  599977360677   A3AA1C848ETA0337EBA5321  000000000+600450S00130    MCW  02182                     000000000  N                0000000000000.00 0000000.00   0000000.00                             000000000000000                                                                                                                                                   U001424  000000000000 0000000000005.27     02600 01000                  
00004910680290082DT67590675900000015164800888800000010180088887287283088900012980396032820230000002487008823000000002917288542418XXXXXX3177       ME03KE06MS02      NY 4607AMPLBE72VP0328  N840000000024870          81DNKETOFUSION833-923-3587   06300B    MC84000000024870 N  599977360677   B7A761DBA1TAD2F10E5730D  000000000+600450S00130    MPL  00580                     000000000  N                0000000000000.00 0000000.00   0000000.00                             000000000000000                                                                                                                                                   U001424  000000000000 0000000000005.32     02100 01000                  
00004920680290083DT67590675900000015164800888800000010180088824001193088900012980403032820230000001987008823000000002917288414776XXXXXX4901               2111111   NYV4 A7W303088143413393N8400000000198702NXZ00    01DNKETOFUSION833-923-3587   228295    VS84000000019870 NP1599977360677   7DFFA6EBF6T56BB4367C579  000000000+                D CD 12109                     000000000  N000000000 498   0000000000000.00 0000000.00   0000000.00                             000000000000000                                                                                                                                                     01424 G000000019870 0000000000005.07     02500 01000                  
00004930680290001P16759067590000001516480088880000001010000000000000000                             2000000000000000000000000              000000000000                    0000000000000000000000000                    000000000000                                                                                                                                                                                                                                                                                                                                                                                                                                                                                        
00004940680290084DT67590675900000015164800888800000010180088887287283088900012980412032820230000000654808823000000002917288542539XXXXXX3485       ME03KE06MS02      NY 4607AMPLGV2XMD0328  N840000000006548          81DNKETOFUSION833-923-3587   028574    MC84000000006548 N  599977360677   3028815D21T1D14F7641401  000000000+600450S00130    MPL  00013                     000000000  N                0000000000000.00 0000000.00   0000000.00                             000000000000000                                                                                                                                                   U001424  000000000000 0000000000001.38     01950 01000                  
00004950680290085DT67590675900000015164800888800000010180088887287283088900012980420032820230000000519008823000000002917288542539XXXXXX3485       ME03KE06MS02      NY 4607AMPLGV4YMD0328  N840000000005190          81DNKETOFUSION833-923-3587   028044    MC84000000005190 N  599977360677   3028815D21T2D9A76949A26  000000000+600450S00130    MPL  00013                     000000000  N                0000000000000.00 0000000.00   0000000.00                             000000000000000                                                                                                                                                   U001424  000000000000 0000000000001.11     01950 01000                  
00004960680290086DT67590675900000015164800888800000010180088824001193088900012980437032820230000001699008823000000002917288438857XXXXXX0552               2111111   NYV4 A7W583088145947419N840000000016990TB4J00    01DNKETOFUSION833-923-3587   09443D    VS84000000016990 NP1599977360677   9BE3A7E5FDTCE8B05266CF6  000000000+                D CD 12109                     000000000  N000000000 498   0000000000000.00 0000000.00   0000000.00                             000000000000000                                                                                                                                                     01424 G000000016990 0000000000004.35     02500 01000                  
00004970680290001P16759067590000001516480088880000001010000000000000000                             2000000000000000000000000              000000000000                    0000000000000000000000000                    000000000000                                                                                                                                                                                                                                                                                                                                                                                                                                                                                        
00004980680290087DT67590675900000015164800888800000010180088824001193088900012980445032820230000000654808823000000002917288438857XXXXXX0552               2111111   NYV4 A7W383088146830950N8400000000065489JRX00    01DNKETOFUSION833-923-3587   03310D    VS84000000006548 NP1599977360677   9BE3A7E5FDT8210808BD9AD  000000000+                D CD 12109                     000000000  N000000000 498   0000000000000.00 0000000.00   0000000.00                             000000000000000                                                                                                                                                     01424 G000000006548 0000000000001.74     02500 01000                  
