00016110471480002BH675906759000000142748001028000009017072020232012300000000007853301970000090001539831N8001026759D07212023153                                                                                                                                                                                                                                                                                                                                                                                                                                                                                                                                                                                              
00016120471480003DT67590675900000014274800102800000010680010287287283201900015398291071920230000002604220123000000000078533517805XXXXXX2274                         NN 4607AMPLPJTW0N0719  N840000000026042          81CNCBD8666317293            0111490197MC84000000026042 NDR549977145232   E3AD72DA1ATB8D56BD1D6A8  000000000+600450S00130    MPL  00000                     000000000  N                0000000000000.00 0000000.00   0000000.00             000000000026042C000000000000000                                                                                                                                                     01424  000000000000 0000000000000.00     00000 00000                  
00016130471480003DR675906759000000142748001028000000106E3AD72DA1ATB8D56BD1D6A8  Y000000000000                                                                                                                                                                                                                                                                                                                                                                                                                                                                                                                                                                                                                               
00016140471480001G2675906759000000142748001028000000106866-6317293              GA           9 L               210                                      NNNN           210000000000000000000000000                        7                                          77145232                                                                                                                                                                                                                                                                                                                                                                                                                                               
00016150471480004DT67590675900000014274800102800000010680010287287283201900015398309071920230000002604220123000000000078533517805XXXXXX2274                         NN 4607AMPLNJ6KIQ0719  N840000000026042          81CNCBD8666317293            0138430197MC84000000026042 NDR549977145232   61EA3D7ECFTA40D8E9D0306  000000000+600450S00130    MPL  00000                     000000000  N                0000000000000.00 0000000.00   0000000.00             000000000026042C000000000000000                                                                                                                                                     01424  000000000000 0000000000000.00     00000 00000                  
00016160471480004DR67590675900000014274800102800000010661EA3D7ECFTA40D8E9D0306  Y000000000000                                                                                                                                                                                                                                                                                                                                                                                                                                                                                                                                                                                                                               
00016170471480001G2675906759000000142748001028000000106866-6317293              GA           9 L               210                                      NNNN           210000000000000000000000000                        7                                          77145232                                                                                                                                                                                                                                                                                                                                                                                                                                               
00016180471480005DT67590675900000014274800102800000010680010287287283201900015398317072020230000002644920123000000000078533512107XXXXXX0254                         NN 4607AMCC1DOY540720  N840000000026449          81CNCBD8666317293            0204280197MC84000000026449 NDR549977145232   1F6F3FB74BT154224AD6347  000000000+600450S00130    MCC  00000                     000000000  N                0000000000000.00 0000000.00   0000000.00             000000000026449C000000000000000                                                                                                                                                     01424  000000000000 0000000000000.00     00000 00000                  
00016190471480005DR6759067590000001427480010280000001061F6F3FB74BT154224AD6347  R000000000000                                                                                                                                                                                                                                                                                                                                                                                                                                                                                                                                                                                                                               
00016200471480001G2675906759000000142748001028000000106866-6317293              GA           9 C               210                                      NNNN           210000000000000000000000000                        7                                          77145232                                                                                                                                                                                                                                                                                                                                                                                                                                               
00016210471480006BH6759067590000002092580011280000090170720202320123000000000122000    0000090001570129Y8001126759C07212023057                                                                                                                                                                                                                                                                                                                                                                                                                                                                                                                                                                                              
00016220471480007DT67590675900000020925800112800000010180011287287283201900015701296072020230000012200020123000000000122000534869XXXXXX6361                         NY 4607AMDBC4P2P30720  N840000000122000          81DNJ K DISTRIBUTION INC     124050    MD84000000122000 NDR549977712156   8548719080               000000000+600450S00130    MDB  10786                     000000000  1                0000000000000.00 0000000.00   0000000.00                             000000000000000                                                                                                                                                   U001424  000000000000 0000000000000.83     00050 02200                  
00016230471480007DR6759067590000002092580011280000001018548719080               Z000000000000                 P1                                                                                                                                                                                                                                                                                                                                                                                                                                                                                                                                                                                                            
00016240471480001P1675906759000000209258001128000000101                                                          000000000000          1000            850871923                                                                                                                                                                                                                                                                                                                                                                                                                                                                                                                                                            
00016250471480002G2675906759000000209258001128000000101860-8957639              CT           9 B               210                  850871923           YNNN           210000000000000000000000000                        7                                          77712156                                                                                                                                                                                                                                                                                                                                                                                                                                               
00016260471480008BH675906759000000151648008888000009017072020232012300000000002487001970000090001429111N8008886759D07212023142                                                                                                                                                                                                                                                                                                                                                                                                                                                                                                                                                                                              
00016270471480009DT67590675900000015164800888800000010680088887287283201900014291117072020230000002487020123000000000024870527519XXXXXX5947                         NN 4607AMDJKMPCMG0720  N840000000024870          81CNKETOFUSION833-923-3587   9792240197MD84000000024870 NDR599977360677   74C22AB107TB43FD251712D  000000000+600450S00130    MDJ  00000                     000000000  1                0000000000000.00 0000000.00   0000000.00             000000000024870C000000000000000                                                                                                                                                     01424  000000000000 0000000000000.00     00000 00000                  
00016280471480009DR67590675900000015164800888800000010674C22AB107TB43FD251712D  Y000000000000                                                                                                                                                                                                                                                                                                                                                                                                                                                                                                                                                                                                                               
00016290471480001G2675906759000000151648008888000000106833-9233587              UT           9 J               210                                      NNNN           210000000000000000000000000                        7                                          77360677                                                                                                                                                                                                                                                                                                                                                                                                                                               
00016300471480010BH675906759000000161968001028000009017072020232012300000000003545801970000090001986881N8001026759D07212023098                                                                                                                                                                                                                                                                                                                                                                                                                                                                                                                                                                                              
00016310471480011DT67590675900000016196800102800000010680010274001193201900019868772072020230000002486020123000000000035458448232XXXXXX3433               0000000   NNV4 07T383201530434690N8400000000248603DBF00    01CNGREEN OTTER LLC          0205570197VD84000000024860 NDR549977424386   6A3032F19ETCB2052C42695  000000000+                F DF 00000                     000000000  N000000000 369   0000000000000.00 0000000.00   0000000.00             000000000024860C000000000000000                                                                                                                                                     01424  000000024860 0000000000000.00     00000 00000                  
00016320471480011DR6759067590000001619680010280000001066A3032F19ETCB2052C42695  U000000024860                 P1                                                                                                                                                                                                                                                                                                                                                                                                                                                                                                                                                                                                            
00016330471480001P16759067590000001619680010280000001060000000000000000                             2000000000000000000000000              000000000000                    0000000000000000000000000                    000000000000                                                                                                                                                                                                                                                                                                                                                                                                                                                                                        
00016340471480002G2675906759000000161968001028000000106866-6317293              GA           9 D                00                                      NNNN   N                      000000000000                                                                   77424386                                                                                                                                                                                                                                                                                                                                                                                                                                               
00016350471480012DT67590675900000016196800102800000010680010287287283201900019868810072020230000001059820123000000000035458533248XXXXXX1264                         NN94607N         0720  N840000000000000          81CNGREEN OTTER LLC                0197MD84000000010598 N  549977424386   D11F34DBC7T0D76D7C94AFE  000000000+600450S00130    MPV  00000                     000000000  N                0000000000000.00 0000000.00   0000000.00             000000000010598C000000000000000                                                                                                                                                     01424  000000000000 0000000000000.00     00000 00000                  
00016360471480001G2675906759000000161968001028000000106866-6317293              GA           9 V               210                                      NNNN           210000000000000000000000000                                                                   77424386                                                                                                                                                                                                                                                                                                                                                                                                                                               
00016370471480013BH6759067590000003469480014280000090170720202320123000000000036000    0000090001150032Y8001426759C07212023015                                                                                                                                                                                                                                                                                                                                                                                                                                                                                                                                                                                              
00016380471480014DT67590675900000034694800142800000010180014287287283201900011500320072020230000003600020123000000000036000517805XXXXXX3120       ME03KE06MS02      NY 4607AMWEWXLLP20720  N840000000036000          81DNHORIZON WHOLESALE LLC    05375P    MC84000000036000 N  549978512084   8548079261               000000000+600450S00130    MWE  00737                     000000000  N                0000000000000.00 0000000.00   0000000.00                             000000000000000                                                                                                                                                   U001424  000000000000 0000000000009.46     02600 01000                  
00016390471480001G2675906759000000346948001428000000101801-5186233              UT           9 E               210                                      NNNN           210000000000000000000000000                        7                                          78512084                                                                                                                                                                                                                                                                                                                                                                                                                                               
00016400471480015BH675906759000000422598001528000009017072020232012300000000000159901970000090001050160N8001526759D07212023005                                                                                                                                                                                                                                                                                                                                                                                                                                                                                                                                                                                              
00016410471480016DT67590675900000042259800152800000010680015274001193201900010501604071920230000000159920123000000000001599406587XXXXXX3856               0000000   NNV4 07T463201073602342N840000000001599MQ9Q00    01CNKKIND LLC                0829820197VD84000000001599FNDR549978706676   344662                   000000000+                G DG 00000                     000000000  N000000000       0000000000000.00 0000000.00   0000000.00             000000000001599C000000000000000                                                                                                                                                     01424  000000001599 0000000000000.00     00000 00000                  
00016420471480016DR675906759000000422598001528000000106344662                   U000000001599                 P1                                                                                                                                                                                                                                                                                                                                                                                                                                                                                                                                                                                                            
00016430471480001P16759067590000004225980015280000001060000000000000000                             2000000000000000000000000              000000000000                    0000000000000000000000000                    000000000000                                                                                                                                                                                                                                                                                                                                                                                                                                                                                        
00016440471480002G2675906759000000422598001528000000106855-5515463              CA           9 D                00                                      NNNN   N                      000000000000                                                                   78706676                                                                                                                                                                                                                                                                                                                                                                                                                                               
00016450471480017BH6759067590000002962980013180000090170720202320123000000000025680    0000090001590004Y8001316759C07212023059                                                                                                                                                                                                                                                                                                                                                                                                                                                                                                                                                                                              
00016460471480018DT67590675900000029629800131800000010180013173011003201900015900018072020230000001498020123000000000025680372271XXXXX1001                          NY 1 0 N008443121043065N840000000014980          05DNPAK VENTURES             825112    AM84000000014980 Y  599978419189                            000000000+51010155434C 258     11262                     000000000                   0000000000000.00 0000000.00   0000000.00                             000000000000000 61248972086759675900000029629 PAK VENTURES             4430 US 90 UNIT H        8502810009      32571     DELTALIFEPENSACOLA@GMAIL.COM              01324  000000000000 0000000000003.02     01950 00000                  
00016470471480001E167590675900000029629800131800000010100E0F8C801D7 00000000000.004040404040404040404040404040404040404040404040404006570103A0A002000000000000000000404040404040404040404040404040  000008403C0000000080002307205F37E01B71778FD796ED4E56404040400840A0000000250108010000000000000000B2C78ACE97A4BF4530300000000000004040401E40404040 000000149.80 000000000.001E03000000000000000000    80                                                                                                                                                                                                                                                                                                                  
00016480471480002G2675906759000000296298001318000000101MILTON                   FL           5                  00                                      NNNN                          000000000000                                                                   78419189                                                                                                                                                                                                                                                                                                                                                                                                                                               
00016490471480019DT67590675900000029629800131800000010180013124001193201900015900020072020230000000535020123000000000025680421783XXXXXX1633       VS11    0001111   NYV1 A E303201669945533N840000000005350QWTQ00    05DNPAK VENTURES             060899    VS84000000005350 N  599978419189                            000000000+                A CA 12110                     000000000  N000000000 493   0000000000000.00 0000000.00   0000000.00                             000000000000000                                                                                                                                                     01424 A000000000000 0000000000000.91     01510 01000                  
00016500471480001E167590675900000029629800131800000010100E0F8C8001C 00000000000.004040404040404040404040404040404040404040404040404006011203A02000000000000000000000404040404040404040404040404040  00000840180080800080002307206DF389EEA75B81CC865A133B404040400840A0000000031010000000000000000000E5A7ED170080000000000000000000004040401E40404040 000000053.50 000000000.001E00000000000000000000    80                                                                                                                                                                                                                                                                                                                  
00016510471480002G2675906759000000296298001318000000101MILTON                   FL           5 C                00                                      NNNN00 N 00                   000000000000                                                                   78419189                                                                                                                                                                                                                                                                                                                                                                                                                                               
00016520471480020DT67590675900000029629800131800000010180013177287283201900015900030072020230000000267520123000000000025680549271XXXXXX6874       MS02WI09          NY 1 0 AMDSW3B1PT0720  N840000000002675          05DNPAK VENTURES             133854    MD84000000002675 N  599978419189                            000000000+M10101C5434C    MDS  00402                     000000000  N                0000000000000.00 0000000.00   0000000.00                             000000000000000                                                                                                                                                   B101424  000000000000 0000000000000.43     01050 01500                  
00016530471480001E167590675900000029629800131800000010100E0F8C801BD 00000000000.00404040404040404040404040404040404040404040404040400110A00001220000000000000000000000FF00000000000000000000000000  0000084018008000008000230720674D8092F07563BD0CF1F8DF404040400840A0000000041010000000000000000000FA5DB7C741AFC5AC03120000000000004040401E40404040 000000026.75 000000000.001E03000000000000000000    80                                                                                                                                                                                                                                                                                                                  
00016540471480002G2675906759000000296298001318000000101MILTON                   FL           5 S                                                        NNNN              000000000000000000000000                                                                   78419189                                                                                                                                                                                                                                                                                                                                                                                                                                               
00016550471480021DT67590675900000029629800131800000010180013124001193201900015900046072020230000000267520123000000000025680422324XXXXXX9667       VS11    0001111   NYV1 A E303201742010852N840000000002675VZC400    05DNPAK VENTURES             988410    VD84000000002675 N  599978419189                            000000000+                F DF 10433                     000000000  Y000000000 338   0000000000000.00 0000000.00   0000000.00                             000000000000000                                                                                                                                                     01424 A000000000000 0000000000000.23     00050 02200                  
00016560471480001E167590675900000029629800131800000010100E0F8C80262 00000000000.004040404040404040404040404040404040404040404040404006011203A0A000000000000000000000404040404040404040404040404040  000108401800808000800023072022D21C1ADC3AB523DCC187CD404040400840A0000000031010000000000000000000404040404040404040404040404040404040401E40404040 000000026.75 000000000.001E00000000000000000000    80                                                                                                                                                                                                                                                                                                                  
00016570471480002G2675906759000000296298001318000000101MILTON                   FL           5 D                00                                      NNNN00 N 00                   000000000000                                                                   78419189                                                                                                                                                                                                                                                                                                                                                                                                                                               
00016580471480022BH6759067590000003433080014180000090170720202320123000000000125893    0000090001180036Y8001416759C07212023018                                                                                                                                                                                                                                                                                                                                                                                                                                                                                                                                                                                              
00016590471480023DT67590675900000034330800141800000010180014124001193201900011800018072020230000000203220123000000000125893444796XXXXXX4914       VS11    0001111   NYV1 A E463201545094528N840000000002032HLMP00    05DNJBLISS LLC               020666    VS84000000002032 N  599978503056                            000000000+                A CA 12110                     000000000  N000000000 493   0000000000000.00 0000000.00   0000000.00                             000000000000000                                                                                                                                                     01424 A000000000000 0000000000000.41     01510 01000                  
00016600471480001E167590675900000034330800141800000010100E0F8C80019 00000000000.004040404040404040404040404040404040404040404040404006081203A0A000000000000000000000404040404040404040404040404040  000108401800808000800023072095AD918D37FFB748E942752A404040400840A0000000031010000000000000000000A71156990082000000000000000000004040401E40404040 000000020.32 000000000.001E00000000000000000000    80                                                                                                                                                                                                                                                                                                                  
00016610471480002G2675906759000000343308001418000000101GREENWOOD                SC           5 C                00                                      NNNN00 N 00                   000000000000                                                                   78503056                                                                                                                                                                                                                                                                                                                                                                                                                                               
00016620471480024DT67590675900000034330800141800000010180014124001193201900011800026072020230000000106920123000000000125893440393XXXXXX2194       VK04VS111111111   NYV1 A E303201559426216N8400000000010697X8G00    05DNJBLISS LLC               893529    VD84000000001069 N  599978503056                            000000000+                F PF 08165                     000000000  N000000000       0000000000000.00 0000000.00   0000000.00                             000000000000000                                                                                                                                                     01424 F000000000000 0000000000000.22     01600 00500                  
00016630471480001E167590675900000034330800141800000010100E0F8C80072 00000000000.004040404040404040404040404040404040404040404040404006011203A02000000000000000000000404040404040404040404040404040  000008401800808000800023072081C0A59D0E2AC8DB070CACEB404040400840A00000000310100000000000000000005E9CB5F34061522230300000000000004040401E40404040 000000010.69 000000000.001E00000000000000000000    80                                                                                                                                                                                                                                                                                                                  
00016640471480002G2675906759000000343308001418000000101GREENWOOD                SC           5 P                00                                      NNNN00 N 00                   000000000000                                                                   78503056                                                                                                                                                                                                                                                                                                                                                                                                                                               
00016650471480025DT67590675900000034330800141800000010180014177287283201900011800036072020230000000545420123000000000125893544579XXXXXX5266       MS02WI09          NY 1 0 AMDJEZATMG0720  N840000000005454          05DNJBLISS LLC               668128    MD84000000005454 N  599978503056                            000000000+M10101C5434C    MDJ  10815                     000000000  1                0000000000000.00 0000000.00   0000000.00                             000000000000000                                                                                                                                                   B101424  000000000000 0000000000000.25     00050 02200                  
00016660471480001E167590675900000034330800141800000010100E0F8C8025E 00000000000.00404040404040404040404040404040404040404040404040400110A00001220000000000000000000000FF00000000000000000000000000  0000084018008000088000230720B40F3B122283131335C3BEF2404040400840A00000000410100000000000000000005A3D8F244DBB7CDF03120000000000004040401E40404040 000000054.54 000000000.001E03000000000000000000    80                                                                                                                                                                                                                                                                                                                  
00016670471480002G2675906759000000343308001418000000101GREENWOOD                SC           5 J                                                        NNNN              000000000000000000000000                        7                                          78503056                                                                                                                                                                                                                                                                                                                                                                                                                                               
00016680471480026DT67590675900000034330800141800000010180014124001193201900011800042072020230000000588420123000000000125893498503XXXXXX5576       VS11    0001111   NYV1 A E303201582104931N840000000005884V7FQ00    05DNJBLISS LLC               062133    VD84000000005884 N  599978503056                            000000000+                F DF 00381                     000000000  N000000000       0000000000000.00 0000000.00   0000000.00                             000000000000000                                                                                                                                                     01424 A000000000000 0000000000000.62     00800 01500                  
00016690471480001E167590675900000034330800141800000010100E0F8C8012F 00000000000.004040404040404040404040404040404040404040404040404006011203A0A000000000000000000000404040404040404040404040404040  000008401800808000800023072030A7DA73D25F35D1A8E1DF21404040400840A000000003101000000000000000000087F79E3F0080000000000000000000004040401E40404040 000000058.84 000000000.001E00000000000000000000    80                                                                                                                                                                                                                                                                                                                  
00016700471480002G2675906759000000343308001418000000101GREENWOOD                SC           5 D                00                                      NNNN00 N 00                   000000000000                                                                   78503056                                                                                                                                                                                                                                                                                                                                                                                                                                               
00016710471480027DT67590675900000034330800141800000010180014124001193201900011800059072020230000000213920123000000000125893473703XXXXXX4505       VS11    0001111   NYV1 A E463201605416455N8400000000021395XLP00    07DNJBLISS LLC               016159    VD84000000002139 N  599978503056                            000000000+                F DF 10433                     000000000  Y000000000 338   0000000000000.00 0000000.00   0000000.00                             000000000000000                                                                                                                                                     01424 A000000000000 0000000000000.23     00050 02200                  
00016720471480001E167590675900000034330800141800000010100E068C80021 00000000000.004040404040404040404040404040404040404040404040404006061203A00000000000000000000000404040404040404040404040404040  0000084000000000000000230720A7F16D59A58443B410E9E3FB404040400840A000000003101000000000000000000080200030A060002020200000000000004040404040404040 000000021.39 000000000.004040400000000000000000    80                                                                                                                                                                                                                                                                                                                  
00016730471480002G2675906759000000343308001418000000101GREENWOOD                SC           5 D                00                                      NNNN00 N 00                   000000000000                                                                   78503056                                                                                                                                                                                                                                                                                                                                                                                                                                               
00016740471480028DT67590675900000034330800141800000010180014124001193201900011800067072020230000000213920123000000000125893448261XXXXXX0158       VS11    0001111   NYV1 A E383201622546261N840000000002139SPTR00    05DNJBLISS LLC               166153    VD84000000002139 N  599978503056                            000000000+                F DF 10433                     000000000  Y000000000 338   0000000000000.00 0000000.00   0000000.00                             000000000000000                                                                                                                                                     01424 A000000000000 0000000000000.23     00050 02200                  
00016750471480001E167590675900000034330800141800000010100E0F8C80035 00000000000.004040404040404040404040404040404040404040404040404006011203A02000000000000000000000404040404040404040404040404040  0001084018008080008000230720CD38B703513A003E17FC45F4404040400840A00000000310100000000000000000007385E7360382000000000000000000004040401E40404040 000000021.39 000000000.001E00000000000000000000    80                                                                                                                                                                                                                                                                                                                  
00016760471480002G2675906759000000343308001418000000101GREENWOOD                SC           5 D                00                                      NNNN00 N 00                   000000000000                                                                   78503056                                                                                                                                                                                                                                                                                                                                                                                                                                               
00016770471480029DT67590675900000034330800141800000010180014124001193201900011800075072020230000000010620123000000000125893408138XXXXXX9536       VK04VS111111111   NYV1 A E303201649151121N840000000000106SCH400    07DNJBLISS LLC               746008    VD84000000000106 N  599978503056                            000000000+                F PF 08165                     000000000  N000000000       0000000000000.00 0000000.00   0000000.00                             000000000000000                                                                                                                                                     01424 F000000000000 0000000000000.07     01600 00500                  
00016780471480001E167590675900000034330800141800000010100E068C8001B 00000000000.00404040404040404040404040404040404040404040404040401F42FF31A00000000010030273000000004000000000000000000000000000  00000840006000000000002307204C82C7BF1875298BBAC06CC3404040400840A0000000031010000000000000000000CE7B0CD70086000000000000000000004040404040404040 000000001.06 000000000.004040400000000000000000    80                                                                                                                                                                                                                                                                                                                  
00016790471480002G2675906759000000343308001418000000101GREENWOOD                SC           5 P                00                                      NNNN00 N 00                   000000000000                                                                   78503056                                                                                                                                                                                                                                                                                                                                                                                                                                               
00016800471480030DT67590675900000034330800141800000010180014124001193201900011800083072020230000000534820123000000000125893449594XXXXXX1473       VS11    0001111   NYV1 A E583201653286059N840000000005348MP9X00    05DNJBLISS LLC               669147    VD84000000005348 N  599978503056                            000000000+                F DF 00381                     000000000  N000000000       0000000000000.00 0000000.00   0000000.00                             000000000000000                                                                                                                                                     01424 A000000000000 0000000000000.58     00800 01500                  
00016810471480001E167590675900000034330800141800000010100E0F8C80031 00000000000.004040404040404040404040404040404040404040404040404006011203A08000000000000000000000404040404040404040404040404040  00000840180080800080002307205269073419DD436E67BB46CE404040400840A000000003101000000000000000000094EE4A3C0382000000000000000000004040401E40404040 000000053.48 000000000.001E00000000000000000000    80                                                                                                                                                                                                                                                                                                                  
00016820471480002G2675906759000000343308001418000000101GREENWOOD                SC           5 D                00                                      NNNN00 N 00                   000000000000                                                                   78503056                                                                                                                                                                                                                                                                                                                                                                                                                                               
00016830471480031DT67590675900000034330800141800000010180014124001193201900011800091072020230000000203220123000000000125893440393XXXXXX4392       VS11    0001111   NYV1 A E463201660349132N840000000002032VTD400    05DNJBLISS LLC               435752    VD84000000002032 N  599978503056                            000000000+                F PF 08170                     000000000  N000000000       0000000000000.00 0000000.00   0000000.00                             000000000000000                                                                                                                                                     01424 A000000000000 0000000000000.38     01150 01500                  
00016840471480001E167590675900000034330800141800000010100E0F8C80021 00000000000.004040404040404040404040404040404040404040404040404006011203A0A000000000000000000000404040404040404040404040404040  0000084018008080008000230720765AA0395274C53D60BCC35E404040400840A00000000310100000000000000000001B75FC25CC5BF94030300000000000004040401E40404040 000000020.32 000000000.001E00000000000000000000    80                                                                                                                                                                                                                                                                                                                  
00016850471480002G2675906759000000343308001418000000101GREENWOOD                SC           5 P                00                                      NNNN00 N 00                   000000000000                                                                   78503056                                                                                                                                                                                                                                                                                                                                                                                                                                               
00016860471480032DT67590675900000034330800141800000010180014124001193201900011800109072020230000000171020123000000000125893441707XXXXXX5868       VS11    0001111   NYV1 A E303201661552335N840000000001710TGJR00    07DNJBLISS LLC               710920    VD84000000001710 N  599978503056                            000000000+                F PF 08170                     000000000  N000000000       0000000000000.00 0000000.00   0000000.00                             000000000000000                                                                                                                                                     01424 A000000000000 0000000000000.35     01150 01500                  
00016870471480001E167590675900000034330800141800000010100E068C80156 00000000000.00404040404040404040404040404040404040404040404040401F42FF32A00000000010030273000000004000000000000000000000000000  00000840006000000000002307203ABBFAAC2D7982EE4D3BF27A404040400840A0000000031010000000000000000000A4AF8C9A0086000000000000000000004040404040404040 000000017.10 000000000.004040400000000000000000    80                                                                                                                                                                                                                                                                                                                  
00016880471480002G2675906759000000343308001418000000101GREENWOOD                SC           5 P                00                                      NNNN00 N 00                   000000000000                                                                   78503056                                                                                                                                                                                                                                                                                                                                                                                                                                               
00016890471480033DT67590675900000034330800141800000010180014124001193201900011800117072020230000000427920123000000000125893411399XXXXXX3774       VS11    0001111   NYV1 A E463201662865743N840000000004279LMHV00    05DNJBLISS LLC               082447    VD84000000004279 N  599978503056                            000000000+                F DF 00381                     000000000  N000000000       0000000000000.00 0000000.00   0000000.00                             000000000000000                                                                                                                                                     01424 A000000000000 0000000000000.49     00800 01500                  
00016900471480001E167590675900000034330800141800000010100E0F8C80161 00000000000.004040404040404040404040404040404040404040404040404006011203A0A000000000000000000000404040404040404040404040404040  00000840180080800080002307204FE06B6806173F8F8185E0E6404040400840A00000000310100000000000000000004E41FF4B0382000000000000000000004040401E40404040 000000042.79 000000000.001E00000000000000000000    80                                                                                                                                                                                                                                                                                                                  
00016910471480002G2675906759000000343308001418000000101GREENWOOD                SC           5 D                00                                      NNNN00 N 00                   000000000000                                                                   78503056                                                                                                                                                                                                                                                                                                                                                                                                                                               
00016920471480034DT67590675900000034330800141800000010180014124001193201900011800125072020230000000203220123000000000125893449594XXXXXX3788       VS11    0001111   NYV1 A E383201673239386N84000000000203259DH00    07DNJBLISS LLC               834200    VD84000000002032 N  599978503056                            000000000+                F DF 00381                     000000000  N000000000       0000000000000.00 0000000.00   0000000.00                             000000000000000                                                                                                                                                     01424 A000000000000 0000000000000.31     00800 01500                  
00016930471480001E167590675900000034330800141800000010100E068C800AE 00000000000.004040404040404040404040404040404040404040404040404006011203A00000000000000000000000404040404040404040404040404040  00000840200000000000002307206DC7679E950C657EC6D041AA404040400840A00000000310100000000000000000008ECECFAC0382000000000000000000004040404040404040 000000020.32 000000000.004040400000000000000000    80                                                                                                                                                                                                                                                                                                                  
00016940471480002G2675906759000000343308001418000000101GREENWOOD                SC           5 D                00                                      NNNN00 N 00                   000000000000                                                                   78503056                                                                                                                                                                                                                                                                                                                                                                                                                                               
00016950471480035DT67590675900000034330800141800000010180014124001193201900011800133072020230000000406320123000000000125893440393XXXXXX7615       VS11    0001111   NYV1 A E383201691749094N84000000000406367T200    07DNJBLISS LLC               076780    VD84000000004063 N  599978503056                            000000000+                F PF 08170                     000000000  N000000000       0000000000000.00 0000000.00   0000000.00                             000000000000000                                                                                                                                                     01424 A000000000000 0000000000000.62     01150 01500                  
00016960471480001E167590675900000034330800141800000010100E068C8007D 00000000000.004040404040404040404040404040404040404040404040404006011203A00000000000000000000000404040404040404040404040404040  00000840200000000000002307205326A7BCB583037FB0199625404040400840A000000003101000000000000000000062E973AAA2AD280930300000000000004040404040404040 000000040.63 000000000.004040400000000000000000    80                                                                                                                                                                                                                                                                                                                  
00016970471480002G2675906759000000343308001418000000101GREENWOOD                SC           5 P                00                                      NNNN00 N 00                   000000000000                                                                   78503056                                                                                                                                                                                                                                                                                                                                                                                                                                               
00016980471480036DT67590675900000034330800141800000010180014177287283201900011800143072020230000000342320123000000000125893544579XXXXXX0700       MS02WI09          NY 1 0 AMDJW2HT9L0720  N840000000003423          05DNJBLISS LLC               169158    MD84000000003423 N  599978503056                            000000000+M10101C5434C    MDJ  10815                     000000000  1                0000000000000.00 0000000.00   0000000.00                             000000000000000                                                                                                                                                   B101424  000000000000 0000000000000.24     00050 02200                  
00016990471480001E167590675900000034330800141800000010100E0F8C800D6 00000000000.00404040404040404040404040404040404040404040404040400110A00001220000000000000000000000FF00000000000000000000000000  0000084018008000008000230720A35E530767F3E8CB74EBF8D5404040400840A0000000041010000000000000000000D4273C3293FDDD6903120000000000004040401E40404040 000000034.23 000000000.001E03000000000000000000    80                                                                                                                                                                                                                                                                                                                  
00017000471480002G2675906759000000343308001418000000101GREENWOOD                SC           5 J                                                        NNNN              000000000000000000000000                        7                                          78503056                                                                                                                                                                                                                                                                                                                                                                                                                                               
00017010471480037DT67590675900000034330800141800000010180014124001193201900011800158072020230000000427920123000000000125893440393XXXXXX7615       VS11    0001111   NYV1 A E303201696824566N8400000000042794SNQ00    07DNJBLISS LLC               887158    VD84000000004279 N  599978503056                            000000000+                F PF 08170                     000000000  N000000000       0000000000000.00 0000000.00   0000000.00                             000000000000000                                                                                                                                                     01424 A000000000000 0000000000000.64     01150 01500                  
00017020471480001E167590675900000034330800141800000010100E068C8007E 00000000000.004040404040404040404040404040404040404040404040404006011203A00000000000000000000000404040404040404040404040404040  0000084020000000000000230720744B5A61462F307FBE25B152404040400840A0000000031010000000000000000000CF4F3471E1065EC230300000000000004040404040404040 000000042.79 000000000.004040400000000000000000    80                                                                                                                                                                                                                                                                                                                  
00017030471480002G2675906759000000343308001418000000101GREENWOOD                SC           5 P                00                                      NNNN00 N 00                   000000000000                                                                   78503056                                                                                                                                                                                                                                                                                                                                                                                                                                               
00017040471480038DT67590675900000034330800141800000010180014124001193201900011800166072020230000000267420123000000000125893427199XXXXXX0585       VS11    0001111   NYV1 A E463201724052626N8400000000026746SQ500    05DNJBLISS LLC               759482    VD84000000002674 N  599978503056                            000000000+                F DF 00381                     000000000  N000000000       0000000000000.00 0000000.00   0000000.00                             000000000000000                                                                                                                                                     01424 A000000000000 0000000000000.36     00800 01500                  
00017050471480001E167590675900000034330800141800000010100E0F8C8050F 00000000000.004040404040404040404040404040404040404040404040404006011203A0A000000000000000000000404040404040404040404040404040  0001084018008080008000230720CCF2705E24EA7488F3EF27AE404040400840A0000000031010000000000000000000404040404040404040404040404040404040401E40404040 000000026.74 000000000.001E00000000000000000000    80                                                                                                                                                                                                                                                                                                                  
00017060471480002G2675906759000000343308001418000000101GREENWOOD                SC           5 D                00                                      NNNN00 N 00                   000000000000                                                                   78503056                                                                                                                                                                                                                                                                                                                                                                                                                                               
00017070471480039DT67590675900000034330800141800000010180014124001193201900011800174072020230000000962820123000000000125893448232XXXXXX1000       VS11    0001111   NYV1 A E583201726078806N84000000000962867JJ00    05DNJBLISS LLC               060958    VD84000000009628 N  599978503056                            000000000+                F DF 00381                     000000000  N000000000       0000000000000.00 0000000.00   0000000.00                             000000000000000                                                                                                                                                     01424 A000000000000 0000000000000.92     00800 01500                  
00017080471480001E167590675900000034330800141800000010100E0F8C801BE 00000000000.004040404040404040404040404040404040404040404040404006011203A0A000000000000000000000404040404040404040404040404040  000108401800808000800023072007AEC6C68158E49FE9CDA4B4404040400840A0000000031010000000000000000000D372890B0082000000000000000000004040401E40404040 000000096.28 000000000.001E00000000000000000000    80                                                                                                                                                                                                                                                                                                                  
00017090471480002G2675906759000000343308001418000000101GREENWOOD                SC           5 D                00                                      NNNN00 N 00                   000000000000                                                                   78503056                                                                                                                                                                                                                                                                                                                                                                                                                                               
00017100471480040DT67590675900000034330800141800000010180014124001193201900011800182072020230000000427820123000000000125893421783XXXXXX5845       VS11    0001111   NYV1 A E463201730073380N840000000004278WCRQ00    07DNJBLISS LLC               060590    VS84000000004278 N  599978503056                            000000000+                A CA 12110                     000000000  N000000000 493   0000000000000.00 0000000.00   0000000.00                             000000000000000                                                                                                                                                     01424 A000000000000 0000000000000.75     01510 01000                  
00017110471480001E167590675900000034330800141800000010100E068C8000A 00000000000.004040404040404040404040404040404040404040404040404006011203A00000000000000000000000404040404040404040404040404040  00000840200000000000002307200339401B184DFABCCF7A53A3404040400840A0000000031010000000000000000000995996E40080000000000000000000004040404040404040 000000042.78 000000000.004040400000000000000000    80                                                                                                                                                                                                                                                                                                                  
00017120471480002G2675906759000000343308001418000000101GREENWOOD                SC           5 C                00                                      NNNN00 N 00                   000000000000                                                                   78503056                                                                                                                                                                                                                                                                                                                                                                                                                                               
00017130471480041DT67590675900000034330800141800000010180014124001193201900011800190072020230000000267420123000000000125893449594XXXXXX2842       VS11    0001111   NYV1 A E583201733065547N8400000000026744V7900    07DNJBLISS LLC               001140    VD84000000002674 N  599978503056                            000000000+                F DF 00381                     000000000  N000000000       0000000000000.00 0000000.00   0000000.00                             000000000000000                                                                                                                                                     01424 A000000000000 0000000000000.36     00800 01500                  
00017140471480001E167590675900000034330800141800000010100E068C80112 00000000000.004040404040404040404040404040404040404040404040404006011203A00000000000000000000000404040404040404040404040404040  0000084020000000000000230720F340F8B23D10E858BDCCF662404040400840A0000000031010000000000000000000C477FDBE0382000000000000000000004040404040404040 000000026.74 000000000.004040400000000000000000    80                                                                                                                                                                                                                                                                                                                  
00017150471480002G2675906759000000343308001418000000101GREENWOOD                SC           5 D                00                                      NNNN00 N 00                   000000000000                                                                   78503056                                                                                                                                                                                                                                                                                                                                                                                                                                               
00017160471480042DT67590675900000034330800141800000010180014124001193201900011800208072020230000000267420123000000000125893449594XXXXXX6125       VS11    0001111   NYV1 A E463201735451205N840000000002674BCHH00    05DNJBLISS LLC               166162    VD84000000002674 N  599978503056                            000000000+                F DF 00381                     000000000  N000000000       0000000000000.00 0000000.00   0000000.00                             000000000000000                                                                                                                                                     01424 A000000000000 0000000000000.36     00800 01500                  
00017170471480001E167590675900000034330800141800000010100E0F8C8048D 00000000000.004040404040404040404040404040404040404040404040404006011203A02000000000000000000000404040404040404040404040404040  0000084018008080008000230720BB260B4326E3565CCFA36F60404040400840A0000000031010000000000000000000042461440382000000000000000000004040401E40404040 000000026.74 000000000.001E00000000000000000000    80                                                                                                                                                                                                                                                                                                                  
00017180471480002G2675906759000000343308001418000000101GREENWOOD                SC           5 D                00                                      NNNN00 N 00                   000000000000                                                                   78503056                                                                                                                                                                                                                                                                                                                                                                                                                                               
00017190471480043DT67590675900000034330800141800000010180014124001193201900011800216072020230000000203220123000000000125893440393XXXXXX1493       VS11    0001111   NYV1 A E383201736627543N840000000002032NV8V00    05DNJBLISS LLC               559507    VD84000000002032 N  599978503056                            000000000+                F PF 08170                     000000000  N000000000       0000000000000.00 0000000.00   0000000.00                             000000000000000                                                                                                                                                     01424 A000000000000 0000000000000.38     01150 01500                  
00017200471480001E167590675900000034330800141800000010100E0F8C80033 00000000000.004040404040404040404040404040404040404040404040404006011203A08000000000000000000000404040404040404040404040404040  0000084018008080008000230720BD18314460C37AF211BFFE94404040400840A00000000310100000000000000000000859EEE97F9D80AD30300000000000004040401E40404040 000000020.32 000000000.001E00000000000000000000    80                                                                                                                                                                                                                                                                                                                  
00017210471480002G2675906759000000343308001418000000101GREENWOOD                SC           5 P                00                                      NNNN00 N 00                   000000000000                                                                   78503056                                                                                                                                                                                                                                                                                                                                                                                                                                               
00017220471480044DT67590675900000034330800141800000010180014124001193201900011800224072020230000000144320123000000000125893447734XXXXXX8710       VK04VS111111111   NYV1 A E383201745410241N840000000001443DKS300    05DNJBLISS LLC               160118    VD84000000001443 N  599978503056                            000000000+                F DF 00451                     000000000  N000000000 214   0000000000000.00 0000000.00   0000000.00                             000000000000000                                                                                                                                                     01424 F000000000000 0000000000000.26     01550 00400                  
00017230471480001E167590675900000034330800141800000010100E0F8C8001C 00000000000.004040404040404040404040404040404040404040404040404006011203A0A000000000000000000000404040404040404040404040404040  0001084018008080008000230720A9D4927198304FB7CC0ABE5C404040400840A0000000031010000000000000000000D0C6DAF00382000000000000000000004040401E40404040 000000014.43 000000000.001E00000000000000000000    80                                                                                                                                                                                                                                                                                                                  
00017240471480002G2675906759000000343308001418000000101GREENWOOD                SC           5 D                00                                      NNNN00 N 00                   000000000000                                                                   78503056                                                                                                                                                                                                                                                                                                                                                                                                                                               
00017250471480045DT67590675900000034330800141800000010180014124001193201900011800232072020230000000213920123000000000125893484608XXXXXX8887       VS11    0001111   NYV1 A E583201765877721N8400000000021399CTP00    05DNJBLISS LLC               877721    VD84000000002139 N  599978503056                            000000000+                F DF 00381                     000000000  N000000000       0000000000000.00 0000000.00   0000000.00                             000000000000000                                                                                                                                                     01424 A000000000000 0000000000000.32     00800 01500                  
00017260471480001E167590675900000034330800141800000010100E0F8C800C2 00000000000.004040404040404040404040404040404040404040404040404006011203A0A000000000000000000000404040404040404040404040404040  0000084018008080008000230720B0072F0394524675C225B095404040400840A00000000310100000000000000000005571A5820382000000000000000000004040401E40404040 000000021.39 000000000.001E00000000000000000000    80                                                                                                                                                                                                                                                                                                                  
00017270471480002G2675906759000000343308001418000000101GREENWOOD                SC           5 D                00                                      NNNN00 N 00                   000000000000                                                                   78503056                                                                                                                                                                                                                                                                                                                                                                                                                                               
00017280471480046DT67590675900000034330800141800000010180014124001193201900011800240072020230000000427820123000000000125893484608XXXXXX9099       VS11    0001111   NYV1 A E303201777668522N840000000004278WSVH00    90DNJBLISS LLC               668522    VD84000000004278 N  599978503056                            000000000+                F DF 00381                     000000000  N000000000       0000000000000.00 0000000.00   0000000.00                             000000000000000                                                                                                                                                     01424 A000000000000 0000000000000.49     00800 01500                  
00017290471480001G2675906759000000343308001418000000101GREENWOOD                SC           5 D                00                                      NNNN00 N 00                   000000000000                                                                   78503056                                                                                                                                                                                                                                                                                                                                                                                                                                               
00017300471480047DT67590675900000034330800141800000010180014124001193201900011800257072020230000000203220123000000000125893440393XXXXXX8443       VS11    0001111   NYV1 A E463201778980921N840000000002032BJKK00    05DNJBLISS LLC               947228    VD84000000002032 N  599978503056                            000000000+                F PF 08170                     000000000  N000000000       0000000000000.00 0000000.00   0000000.00                             000000000000000                                                                                                                                                     01424 A000000000000 0000000000000.38     01150 01500                  
00017310471480001E167590675900000034330800141800000010100E0F8C8004E 00000000000.004040404040404040404040404040404040404040404040404006011203A08000000000000000000000404040404040404040404040404040  000008401800808000800023072059FB0B96497CE1F682A2FA3F404040400840A0000000031010000000000000000000EB572172734DF10230300000000000004040401E40404040 000000020.32 000000000.001E00000000000000000000    80                                                                                                                                                                                                                                                                                                                  
00017320471480002G2675906759000000343308001418000000101GREENWOOD                SC           5 P                00                                      NNNN00 N 00                   000000000000                                                                   78503056                                                                                                                                                                                                                                                                                                                                                                                                                                               
00017330471480048DT67590675900000034330800141800000010180014124001193201900011800265072020230000000236420123000000000125893449594XXXXXX9688       VS11    0001111   NYV1 A E583201783198291N8400000000023644J5900    05DNJBLISS LLC               167162    VD84000000002364 N  599978503056                            000000000+                F DF 00381                     000000000  N000000000       0000000000000.00 0000000.00   0000000.00                             000000000000000                                                                                                                                                     01424 A000000000000 0000000000000.34     00800 01500                  
00017340471480001E167590675900000034330800141800000010100E0F8C801C9 00000000000.004040404040404040404040404040404040404040404040404006011203A08000000000000000000000404040404040404040404040404040  0000084018008080008000230720956AAAAF2DA65B368FB2CDDC404040400840A0000000031010000000000000000000CEEE7F9A0382000000000000000000004040401E40404040 000000023.64 000000000.001E00000000000000000000    80                                                                                                                                                                                                                                                                                                                  
00017350471480002G2675906759000000343308001418000000101GREENWOOD                SC           5 D                00                                      NNNN00 N 00                   000000000000                                                                   78503056                                                                                                                                                                                                                                                                                                                                                                                                                                               
00017360471480049DT67590675900000034330800141800000010180014124001193201900011800273072020230000000106920123000000000125893484608XXXXXX4646       VK04VS111111111   NYV1 A E303201795054893N840000000001069BCJ500    05DNJBLISS LLC               054893    VD84000000001069 N  599978503056                            000000000+                F DF 00451                     000000000  N000000000 214   0000000000000.00 0000000.00   0000000.00                             000000000000000                                                                                                                                                     01424 F000000000000 0000000000000.21     01550 00400                  
00017370471480001E167590675900000034330800141800000010100E0F8C8026D 00000000000.004040404040404040404040404040404040404040404040404006011203A0A000000000000000000000404040404040404040404040404040  0000084018008080008000230720E1D51E502D05F833624C866C404040400840A0000000031010000000000000000000F4FD1D630382000000000000000000004040401E40404040 000000010.69 000000000.001E00000000000000000000    80                                                                                                                                                                                                                                                                                                                  
00017380471480002G2675906759000000343308001418000000101GREENWOOD                SC           5 D                00                                      NNNN00 N 00                   000000000000                                                                   78503056                                                                                                                                                                                                                                                                                                                                                                                                                                               
00017390471480050DT67590675900000034330800141800000010180014124001193201900011800281072020230000000411720123000000000125893474474XXXXXX6611       VS11    0001111   NYV1 A E583201807650820N8400000000041174W4R00    07DNJBLISS LLC               112662    VD84000000004117 N  599978503056                            000000000+                F DF 10433                     000000000  Y000000000 338   0000000000000.00 0000000.00   0000000.00                             000000000000000                                                                                                                                                     01424 A000000000000 0000000000000.24     00050 02200                  
00017400471480001E167590675900000034330800141800000010100E068C80126 00000000000.004040404040404040404040404040404040404040404040404006011203A00000000000000000000000404040404040404040404040404040  0000084020000000000000230720C49EE0530403FD75F8E59EA9404040400840A0000000031010000000000000000000404040404040404040404040404040404040404040404040 000000041.17 000000000.004040400000000000000000    80                                                                                                                                                                                                                                                                                                                  
00017410471480002G2675906759000000343308001418000000101GREENWOOD                SC           5 D                00                                      NNNN00 N 00                   000000000000                                                                   78503056                                                                                                                                                                                                                                                                                                                                                                                                                                               
00017420471480051DT67590675900000034330800141800000010180014124001193201900011800299072020230000000245920123000000000125893433477XXXXXX6443       VS11    0001111   NYV1 A E303201808201092N840000000002459HSNT00    05DNJBLISS LLC               716530    VD84000000002459 N  599978503056                            000000000+                F DF 10433                     000000000  Y000000000 338   0000000000000.00 0000000.00   0000000.00                             000000000000000                                                                                                                                                     01424 A000000000000 0000000000000.23     00050 02200                  
00017430471480001E167590675900000034330800141800000010100E0F8C805BA 00000000000.004040404040404040404040404040404040404040404040404006011203A0A000000000000000000000404040404040404040404040404040  000208401800808000800023072032FDD7834D12E63BD6640723404040400840A000000003101000000000000000000086B040ED0082000000000000000000004040401E40404040 000000024.59 000000000.001E00000000000000000000    80                                                                                                                                                                                                                                                                                                                  
00017440471480002G2675906759000000343308001418000000101GREENWOOD                SC           5 D                00                                      NNNN00 N 00                   000000000000                                                                   78503056                                                                                                                                                                                                                                                                                                                                                                                                                                               
00017450471480052DT67590675900000034330800141800000010180014177287283201900011800309072020230000000299420123000000000125893552433XXXXXX8654       MS02WI09          NY 1 0 AMCWVACLSK0720  N840000000002994          05DNJBLISS LLC               08910S    MC84000000002994 N  599978503056                            000000000+M10101C5434C    MCW  02184                     000000000  N                0000000000000.00 0000000.00   0000000.00                             000000000000000                                                                                                                                                   B101424  000000000000 0000000000000.79     02300 01000                  
00017460471480001E167590675900000034330800141800000010100E0F8C80183 00000000000.00404040404040404040404040404040404040404040404040400110A00001220000000000000000000000FF00000000000000000000000000  000108401800800000800023072019D1F3342EFFF9BA71C8AC99404040400840A0000000041010000000000000000000D2D2F6198D81536100120000000000004040401E40404040 000000029.94 000000000.001E03000000000000000000    80                                                                                                                                                                                                                                                                                                                  
00017470471480002G2675906759000000343308001418000000101GREENWOOD                SC           5 W                                                        NNNN              000000000000000000000000                        7                                          78503056                                                                                                                                                                                                                                                                                                                                                                                                                                               
00017480471480053DT67590675900000034330800141800000010180014124001193201900011800315072020230000001497520123000000000125893435880XXXXXX1616       VS11    0001111   NYV1 A E583201815385498N840000000014975L95Q00    90DNJBLISS LLC               620377    VD84000000014975 N  599978503056                            000000000+                F PF 08170                     000000000  N000000000       0000000000000.00 0000000.00   0000000.00                             000000000000000                                                                                                                                                     01424 A000000000000 0000000000001.87     01150 01500                  
00017490471480001G2675906759000000343308001418000000101GREENWOOD                SC           5 P                00                                      NNNN00 N 00                   000000000000                                                                   78503056                                                                                                                                                                                                                                                                                                                                                                                                                                               
00017500471480054DT67590675900000034330800141800000010180014177287283201900011800325072020230000000673820123000000000125893514230XXXXXX0718       MS02WI09          NY 1 0 AMDJKL73AZ0720  N840000000006738          05DNJBLISS LLC               AB8A0C    MD84000000006738 N  599978503056                            000000000+M10101C5434C    MDJ  00402                     000000000  N                0000000000000.00 0000000.00   0000000.00                             000000000000000                                                                                                                                                   B101424  000000000000 0000000000000.86     01050 01500                  
00017510471480001E167590675900000034330800141800000010100E0F8C80061 00000000000.00404040404040404040404040404040404040404040404040400110A04001220000000000000000000000FF00000000000000000000000000  00010840390000000080002307204CEDF05225946E3ABA88D602404040400840A00000000410100000000000000000001904B1C8D5EE152B00120000000000004040401E40404040 000000067.38 000000000.001E03000000000000000000    80                                                                                                                                                                                                                                                                                                                  
00017520471480002G2675906759000000343308001418000000101GREENWOOD                SC           5 J                                                        NNNN              000000000000000000000000                        7                                          78503056                                                                                                                                                                                                                                                                                                                                                                                                                                               
