01716470715300002BH6759067590000000215480088880000090170131202303123000000000645395    0000090001969175N8008886759C02012023                                                                                                                                                                                                                                                                                                                                                                                                                                                                                                                                                                                                 
01716480715300003DT67590675900000002154800888800000010180088887287283031900019608022013120230000045732003123000000000645395558134XXXXXX1925                         NY 4607AMDBWJ6FD60131  N840000000457320          81DNDRIP DROP DISTRO LLC     499001    MD84000000457320 NP1519900000001   17384                    000000000+600450S00140    MDB  00062                     000000000  N                0000000000000.00 0000000.00   0000000.00                             000000000000000                                                                                                                                                   U001418  000000000000 0000000000121.29     02650 01000                  
01716490715300001P1675906759000000021548008888000000101                                                          000000000000          8000            471534935                                                                                                                                                                                                                                                                                                                                                                                                                                                                                                                                                            
01716500715300004DT67590675900000002154800888800000010180088824001193031900019694914013120230000005407503123000000000645395424631XXXXXX1237               2111111   NYV4 A7W303031697137370N840000000054075BTLL00    01DNDRIP DROP DISTRO LLC     04617G    VB84000000054075 NP1519971004114   17383                    000000000+                G5CG511887                     000000000  N000000000 163   0000000000000.00 0000000.00   0000000.00                             000000000000000                                                                                                                                                     01418 G000000054075 0000000000016.32     03000 01000                  
01716510715300001P16759067590000000215480088880000001010000000000000000    43907850933              2000000000000000000000000              000000000000                    0000000000000000000000000                    000000000000                                                                                                                                                                                                                                                                                                                                                                                                                                                                                        
01716520715300005DT67590675900000002154800888800000010180088824001193031900019691753013120230000013400003123000000000645395415417XXXXXX9596               2111111   NYV4 A7W583031688096627N840000000134000QMGC00    01DNDRIP DROP DISTRO LLC     09492G    VB84000000134000 NP1519971004114   INV-000425               000000000+                G5CG511887                     000000000  N000000000 163   0000000000000.00 0000000.00   0000000.00                             000000000000000                                                                                                                                                     01418 G000000134000 0000000000040.30     03000 01000                  
01716530715300001P16759067590000000215480088880000001010000000000000000    43907815599              2000000000000000000000000              000000000000                    0000000000000000000000000                    000000000000                                                                                                                                                                                                                                                                                                                                                                                                                                                                                        
01716540715300006BH6759067590000000288180088880000090170131202303123000000000077190    0000090001330018N8008886759C02012023                                                                                                                                                                                                                                                                                                                                                                                                                                                                                                                                                                                                 
01716550715300007DT67590675900000002881800888800000010180088877287283031900013300015013120230000001027003123000000000077190517805XXXXXX3417       MS02WI09          NY 1 0 AMWEVCBLQC0131  N840000000010270          05DNHAPPY HIPPIE             01340P    MC84000000010270 N  549976487158                            000000000+M10101C5434C    MWE  00743                     000000000  N                0000000000000.00 0000000.00   0000000.00                             000000000000000                                                                                                                                                   B101418  000000000000 0000000000002.40     02300 00400                  
01716560715300008DT67590675900000002881800888800000010180088824001193031900013300021013120230000000316003123000000000077190415978XXXXXX6979       VS11    0001111   NYV1 A E383031582377701N8400000000031606Q9C00    05DNHAPPY HIPPIE             007663    VD84000000003160 N  549976487158                            000000000+                F DF 10433                     000000000  Y000000000 338   0000000000000.00 0000000.00   0000000.00                             000000000000000                                                                                                                                                     01418 A000000000000 0000000000000.24     00050 02200                  
01716570715300009DT67590675900000002881800888800000010180088824001193031900013300039013120230000000790103123000000000077190414720XXXXXX9640       VS11    0001111   NYV1 A E583031595062986N8400000000079019ZCF00    05DNHAPPY HIPPIE             04412D    VS84000000007901 N  549976487158                            000000000+                D CD 12113                     000000000  N000000000 499   0000000000000.00 0000000.00   0000000.00                             000000000000000                                                                                                                                                     01418 A000000000000 0000000000001.76     02100 01000                  
01716580715300010DT67590675900000002881800888800000010180088824001193031900013300047013120230000000176603123000000000077190400022XXXXXX0750       VS11    0001111   NYV1 A E463031606555667N840000000001766LGBP00    05DNHAPPY HIPPIE             758330    VD84000000001766 N  549976487158                            000000000+                F DF 10433                     000000000  Y000000000 338   0000000000000.00 0000000.00   0000000.00                             000000000000000                                                                                                                                                     01418 A000000000000 0000000000000.23     00050 02200                  
01716590715300011DT67590675900000002881800888800000010180088877287283031900013300056013120230000000088803123000000000077190511953XXXXXX9825       MS02WI09          NY 1 0 AMDJQ2YGSN0131  N840000000000888          05DNHAPPY HIPPIE             044616    MD84000000000888 N  549976487158                            000000000+M10101C5434C    MDJ  00505                     000000000  N                0000000000000.00 0000000.00   0000000.00                             000000000000000                                                                                                                                                   B101418  000000000000 0000000000000.18     01550 00400                  
01716600715300012DT67590675900000002881800888800000010180088824001193031900013300062013120230000000548803123000000000077190480639XXXXXX1059       VS11    0001111   NYV1 A E463031685111031N840000000005488DDP800    05DNHAPPY HIPPIE             835144    VD84000000005488 N  549976487158                            000000000+                F DF 00381                     000000000  N000000000       0000000000000.00 0000000.00   0000000.00                             000000000000000                                                                                                                                                     01418 A000000000000 0000000000000.59     00800 01500                  
01716610715300013DT67590675900000002881800888800000010180088824001193031900013300070013120230000000325803123000000000077190461608XXXXXX6824       VS11    0001111   NYV1 A E463031685866202N840000000003258P83K00    05DNHAPPY HIPPIE             30613A    VS84000000003258 N  549976487158                            000000000+                A CA 12110                     000000000  N000000000 493   0000000000000.00 0000000.00   0000000.00                             000000000000000                                                                                                                                                     01418 A000000000000 0000000000000.59     01510 01000                  
01716620715300014DT67590675900000002881800888800000010180088876509753031900013300086013120230000000335703123000000000077190601100XXXXXX9915   BA50                  NY41 0 N873026436134823N840000000003357    00    05DNHAPPY HIPPIE             03163R    DS84000000003357 N  549976487158050                         000000000+0000004910H00   DCCDI01000664004  122013000000 000000000  0          112   0000000000000.00 0000000.00   0000000.00                             000000000000000                                                                                                                                                     01418  000000000000 0000000000000.68     01720 01000                  
01716630715300015DT67590675900000002881800888800000010180088824001193031900013300096013120230000000493803123000000000077190410801XXXXXX7347       VS11    0001111   NYV1 A E303031731055184N840000000004938243900    05DNHAPPY HIPPIE             051825    VD84000000004938 N  549976487158                            000000000+                F DF 00381                     000000000  N000000000       0000000000000.00 0000000.00   0000000.00                             000000000000000                                                                                                                                                     01418 A000000000000 0000000000000.55     00800 01500                  
01716640715300016DT67590675900000002881800888800000010180088824001193031900013300104013120230000000548803123000000000077190419090XXXXXX1975       VS11    0001111   NYV1 A E463031732760605N840000000005488ZJ9M00    05DNHAPPY HIPPIE             188880    VD84000000005488 N  549976487158                            000000000+                F DF 00381                     000000000  N000000000       0000000000000.00 0000000.00   0000000.00                             000000000000000                                                                                                                                                     01418 A000000000000 0000000000000.59     00800 01500                  
01716650715300017DT67590675900000002881800888800000010180088877287283031900013300114013120230000000730603123000000000077190516693XXXXXX0242       MS02WI09          NY 1 0 AMDSIKQVEK0131  N840000000007306          05DNHAPPY HIPPIE             872682    MD84000000007306 N  549976487158                            000000000+M10101C5434C    MDS  00402                     000000000  N                0000000000000.00 0000000.00   0000000.00                             000000000000000                                                                                                                                                   B101418  000000000000 0000000000000.92     01050 01500                  
01716660715300018DT67590675900000002881800888800000010180088877287283031900013300122013120230000000290803123000000000077190552379XXXXXX6688       MS02WI09          NY 1 0 AMCWOY5UEK0131  N840000000002908          05DNHAPPY HIPPIE             55573Z    MC84000000002908 N  549976487158                            000000000+M10101C5434C    MCW  00646                     000000000  N                0000000000000.00 0000000.00   0000000.00                             000000000000000                                                                                                                                                   B101418  000000000000 0000000000000.59     01900 00400                  
01716670715300019DT67590675900000002881800888800000010180088877287283031900013300130013120230000000158003123000000000077190542418XXXXXX5033       MS02WI09          NY 1 0 AMWETURHS10131  N840000000001580          05DNHAPPY HIPPIE             32996P    MC84000000001580 N  549976487158                            000000000+M10101C5434C    MWE  00743                     000000000  N                0000000000000.00 0000000.00   0000000.00                             000000000000000                                                                                                                                                   B101418  000000000000 0000000000000.40     02300 00400                  
01716680715300020DT67590675900000002881800888800000010180088824001193031900013300146013120230000000325803123000000000077190419090XXXXXX8251       VS11    0001111   NYV1 A E383031774240942N840000000003258GNVS00    05DNHAPPY HIPPIE             191141    VD84000000003258 N  549976487158                            000000000+                F DF 00381                     000000000  N000000000       0000000000000.00 0000000.00   0000000.00                             000000000000000                                                                                                                                                     01418 A000000000000 0000000000000.41     00800 01500                  
01716690715300021DT67590675900000002881800888800000010180088824001193031900013300153013120230000000216103123000000000077190419090XXXXXX5725               1001111   NYV1 A K303031777913257N840000000002161DQFH00    01DNHAPPY HIPPIE             191347    VD84000000002161 N  549976487158                            000000000+                F DF 00412                     000000000  N000000000       0000000000000.00 0000000.00   0000000.00                             000000000000000                                                                                                                                                     01418 E000000000000 0000000000000.51     01650 01500                  
01716700715300022DT67590675900000002881800888800000010180088824001193031900013300161013120230000000468503123000000000077190435546XXXXXX4585       VS11    0001111   NYV1 A E383031790247970N840000000004685GTBN00    05DNHAPPY HIPPIE             033095    VD84000000004685 N  549976487158                            000000000+                F DF 10433                     000000000  Y000000000 338   0000000000000.00 0000000.00   0000000.00                             000000000000000                                                                                                                                                     01418 A000000000000 0000000000000.24     00050 02200                  
01716710715300023DT67590675900000002881800888800000010180088824001193031900013300179013120230000000438903123000000000077190442063XXXXXX7703               1001111   NYV1 A K463031815427461N84000000000438963H500    01DNHAPPY HIPPIE             500002    VD84000000004389 N  549976487158                            000000000+                F DF 00412                     000000000  N000000000       0000000000000.00 0000000.00   0000000.00                             000000000000000                                                                                                                                                     01418 E000000000000 0000000000000.87     01650 01500                  
01716720715300024DT67590675900000002881800888800000010180088824001193031900013300187013120230000000438903123000000000077190442063XXXXXX7703               1001111   NYV1 A K383031816443713N840000000004389NTSX00    01DNHAPPY HIPPIE             167001    VD84000000004389 N  549976487158                            000000000+                F DF 00412                     000000000  N000000000       0000000000000.00 0000000.00   0000000.00                             000000000000000                                                                                                                                                     01418 E000000000000 0000000000000.87     01650 01500                  
01716730715300025BH6759067590000000288180088880000090170131202303123000000000057684    0000090001330015N8008886759C02012023                                                                                                                                                                                                                                                                                                                                                                                                                                                                                                                                                                                                 
01716740715300026DT67590675900000002881800888800000010180088876509753031900013300011013120230000000515503123000000000057684601101XXXXXX1553   BA50                  NY41 0 N873026282240147N840000000005155    00    05DNHAPPY HIPPIE             03116P    DS84000000005155 N  549976487134050                         000000000+0000004910H00   DCPDI01118664000  080344000000 000000000  0          146   0000000000000.00 0000000.00   0000000.00                             000000000000000                                                                                                                                                     01418  000000000000 0000000000001.00     01740 01000                  
01716750715300027DT67590675900000002881800888800000010180088824001193031900013300021013120230000000120003123000000000057684445101XXXXXX2081       VK04VS111111111   NYV1 A E303031557792524N840000000001200BVD800    05DNHAPPY HIPPIE             154499    VD84000000001200 N  549976487134                            000000000+                F DF 10439                     000000000  Y000000000 331   0000000000000.00 0000000.00   0000000.00                             000000000000000                                                                                                                                                     01418 F000000000000 0000000000000.23     00050 02200                  
01716760715300028DT67590675900000002881800888800000010180088877287283031900013300031013120230000000587503123000000000057684518941XXXXXX4253       MS02WI09          NY 1 0 AMWEVEQGQC0131  N840000000005875          05DNHAPPY HIPPIE             67400Z    MC84000000005875 N  549976487134                            000000000+M10101C5434C    MWE  00743                     000000000  N                0000000000000.00 0000000.00   0000000.00                             000000000000000                                                                                                                                                   B101418  000000000000 0000000000001.39     02300 00400                  
01716770715300029DT67590675900000002881800888800000010180088877287283031900013300049013120230000000156303123000000000057684518941XXXXXX4253       MS02WI09          NY 1 0 AMWEYV65180131  N840000000001563          05DNHAPPY HIPPIE             07592Z    MC84000000001563 N  549976487134                            000000000+M10101C5434C    MWE  00743                     000000000  N                0000000000000.00 0000000.00   0000000.00                             000000000000000                                                                                                                                                   B101418  000000000000 0000000000000.40     02300 00400                  
01716780715300030DT67590675900000002881800888800000010180088824001193031900013300054013120230000000548603123000000000057684445115XXXXXX6564       VS11    0001111   NYV1 A E383031590854842N840000000005486VK3900    05DNHAPPY HIPPIE             176299    VD84000000005486 N  549976487134                            000000000+                F DF 10433                     000000000  Y000000000 338   0000000000000.00 0000000.00   0000000.00                             000000000000000                                                                                                                                                     01418 A000000000000 0000000000000.25     00050 02200                  
01716790715300031DT67590675900000002881800888800000010180088824001193031900013300062013120230000000208403123000000000057684445115XXXXXX6564       VS11    0001111   NYV1 A E383031594740175N84000000000208425J400    05DNHAPPY HIPPIE             179053    VD84000000002084 N  549976487134                            000000000+                F DF 10433                     000000000  Y000000000 338   0000000000000.00 0000000.00   0000000.00                             000000000000000                                                                                                                                                     01418 A000000000000 0000000000000.23     00050 02200                  
01716800715300032DT67590675900000002881800888800000010180088824001193031900013300070013120230000000690003123000000000057684474487XXXXXX1417       VS11    0001111   NYV1 A E583031630985679N8400000000069004LQD00    05DNHAPPY HIPPIE             103011    VD84000000006900 N  549976487134                            000000000+                F DF 10433                     000000000  Y000000000 338   0000000000000.00 0000000.00   0000000.00                             000000000000000                                                                                                                                                     01418 A000000000000 0000000000000.25     00050 02200                  
01716810715300033DT67590675900000002881800888800000010180088824001193031900013300088013120230000000329003123000000000057684480639XXXXXX8568       VS11    0001111   NYV1 A E463031647004856N840000000003290N4LK00    05DNHAPPY HIPPIE             833421    VD84000000003290 N  549976487134                            000000000+                F DF 00381                     000000000  N000000000       0000000000000.00 0000000.00   0000000.00                             000000000000000                                                                                                                                                     01418 A000000000000 0000000000000.41     00800 01500                  
01716820715300034DT67590675900000002881800888800000010180088824001193031900013300096013120230000000384703123000000000057684422921XXXXXX0361       VS11    0001111   NYV1 A E383031650835987N840000000003847M5KR00    05DNHAPPY HIPPIE             047084    VD84000000003847 N  549976487134                            000000000+                F DF 00381                     000000000  N000000000       0000000000000.00 0000000.00   0000000.00                             000000000000000                                                                                                                                                     01418 A000000000000 0000000000000.46     00800 01500                  
01716830715300035DT67590675900000002881800888800000010180088824001193031900013300104013120230000000395003123000000000057684419090XXXXXX3972       VS11    0001111   NYV1 A E303031653938414N840000000003950KLJR00    05DNHAPPY HIPPIE             184792    VD84000000003950 N  549976487134                            000000000+                F DF 00381                     000000000  N000000000       0000000000000.00 0000000.00   0000000.00                             000000000000000                                                                                                                                                     01418 A000000000000 0000000000000.47     00800 01500                  
01716840715300036DT67590675900000002881800888800000010180088877287283031900013300114013120230000000849003123000000000057684511953XXXXXX9825       MS02WI09          NY 1 0 AMDJFYOEEK0131  N840000000008490          05DNHAPPY HIPPIE             028980    MD84000000008490 N  549976487134                            000000000+M10101C5434C    MDJ  00402                     000000000  N                0000000000000.00 0000000.00   0000000.00                             000000000000000                                                                                                                                                   B101418  000000000000 0000000000001.04     01050 01500                  
01716850715300037DT67590675900000002881800888800000010180088824001193031900013300120013120230000000554103123000000000057684419090XXXXXX3689       VS11    0001111   NYV1 A E583031666713823N840000000005541LDD200    05DNHAPPY HIPPIE             185430    VD84000000005541 N  549976487134                            000000000+                F DF 00381                     000000000  N000000000       0000000000000.00 0000000.00   0000000.00                             000000000000000                                                                                                                                                     01418 A000000000000 0000000000000.59     00800 01500                  
01716860715300038DT67590675900000002881800888800000010180088824001193031900013300138013120230000000276203123000000000057684422921XXXXXX6998       VS11    0001111   NYV1 A E463031700624603N840000000002762C8KS00    05DNHAPPY HIPPIE             052064    VD84000000002762 N  549976487134                            000000000+                F DF 00381                     000000000  N000000000       0000000000000.00 0000000.00   0000000.00                             000000000000000                                                                                                                                                     01418 A000000000000 0000000000000.37     00800 01500                  
01716870715300039DT67590675900000002881800888800000010180088824001193031900013300146013120230000000128303123000000000057684445101XXXXXX9188       VK04VS111111111   NYV1 A E583031769704233N840000000001283Q9JH00    05DNHAPPY HIPPIE             323522    VD84000000001283 N  549976487134                            000000000+                F DF 10439                     000000000  Y000000000 331   0000000000000.00 0000000.00   0000000.00                             000000000000000                                                                                                                                                     01418 F000000000000 0000000000000.23     00050 02200                  
01716880715300040DT67590675900000002881800888800000010180088824001193031900013300153013120230000000025803123000000000057684419090XXXXXX5211       VK04VS111111111   NYV1 A E383031798598692N8400000000002587DNT00    05DNHAPPY HIPPIE             192432    VD84000000000258 N  549976487134                            000000000+                F DF 00451                     000000000  N000000000 214   0000000000000.00 0000000.00   0000000.00                             000000000000000                                                                                                                                                     01418 F000000000000 0000000000000.08     01550 00400                  
01716890715300041BH6759067590000000561180088880000090170131202303123000000000005988    0000090001062975N8008886759C02012023                                                                                                                                                                                                                                                                                                                                                                                                                                                                                                                                                                                                 
01716900715300042DT67590675900000005611800888800000010180088824001193031900010629752013120230000000598803123000000000005988407624XXXXXX4925               2111111   NYV4 A7W583031260306459N840000000005988557900    01DNK DIVINE 503-689-7182    485128    VD84000000005988 NP1549971004114   5172                     000000000+                F DF 00415                     000000000  N000000000       0000000000000.00 0000000.00   0000000.00                             000000000000000                                                                                                                                                     01418 G000000005988 0000000000001.14     01650 01500                  
01716910715300001P16759067590000000561180088880000001010000000000000000                             2000000000000000000000000              000000000000                    0000000000000000000000000                    000000000000                                                                                                                                                                                                                                                                                                                                                                                                                                                                                        
01716920715300043BH6759067590000000096880088880000090170131202303123000000000012363    0000090001334079N8008886759C02012023                                                                                                                                                                                                                                                                                                                                                                                                                                                                                                                                                                                                 
01716930715300044DT67590675900000000968800888800000010180088824001193031900013340795013120230000001236303123000000000012363440066XXXXXX2453               2111111   NYV4 A7W383031593603667N840000000012363NDLS00    01DNHIGHER FLOUR LLC         03969D    VS84000000012363 NP1546271004114   RYPVTUJDEDSBJCR17ZDW     000000000+                D CD 12109                     000000000  N000000000 498   0000000000000.00 0000000.00   0000000.00                             000000000000000                                                                                                                                                     01418 G000000012363 0000000000003.19     02500 01000                  
01716940715300001P16759067590000000096880088880000001010000000000000000                             2000000000000000000000000              000000000000                    0000000000000000000000000                    000000000000                                                                                                                                                                                                                                                                                                                                                                                                                                                                                        
