00003100239970002BH6759067590000000288180088880000090170110202301023000000000003999    0000090001380086Y8008886759C01112023                                                                                                                                                                                                                                                                                                                                                                                                                                                                                                                                                                                                 
00003110239970003DT67590675900000002881800888800000010180088824001193010900013800868011020230000000399901023000000000003999448261XXXXXX2015               2111111   NYV4 A7W383010607431065N840000000003999RG8K00    01DNHAPPY HIPPIE             203006    VD84000000003999 NP1549976044904   1904                     000000000+                F DF 10420                     000000000  Y000000000 338   0000000000000.00 0000000.00   0000000.00                             000000000000000                                                                                                                                                     01424 G000000003999 0000000000000.24     00050 02200                  
00003120239970001P16759067590000000288180088880000001010000000000000000                             2000000000000000000000000              000000000000                    0000000000000000000000000                    000000000000                                                                                                                                                                                                                                                                                                                                                                                                                                                                                        
00003130239970004BH6759067590000000370780088880000090170110202301023000000000052466    0000090001130085Y8008886759C01112023                                                                                                                                                                                                                                                                                                                                                                                                                                                                                                                                                                                                 
00003140239970005DT67590675900000003707800888800000010180088824001193010900011300812010920230000000349901023000000000052466442793XXXXXX0197               2111111   NYV4 A7W463010119179416N840000000003499PWJ800    01DNMR HEMP FLOWER           738523    VD84000000003499 NP1549976053336   83998                    000000000+                F DF 10420                     000000000  Y000000000 338   0000000000000.00 0000000.00   0000000.00                             000000000000000                                                                                                                                                     01424 G000000003499 0000000000000.24     00050 02200                  
00003150239970001P16759067590000000370780088880000001010000000000000000                             2000000000000000000000000              000000000000                    0000000000000000000000000                    000000000000                                                                                                                                                                                                                                                                                                                                                                                                                                                                                        
00003160239970006DT67590675900000003707800888800000010180088824001193010900011300820010920230000000799901023000000000052466440393XXXXXX5458               2111111   NYV4 A7W583010135776322N840000000007999VCPG00    01DNMR HEMP FLOWER           259166    VD84000000007999 NP1549976053336   83999                    000000000+                F PF 08175                     000000000  N000000000       0000000000000.00 0000000.00   0000000.00                             000000000000000                                                                                                                                                     01424 G000000007999 0000000000001.60     01750 02000                  
00003170239970001P16759067590000000370780088880000001010000000000000000                             2000000000000000000000000              000000000000                    0000000000000000000000000                    000000000000                                                                                                                                                                                                                                                                                                                                                                                                                                                                                        
00003180239970007DT67590675900000003707800888800000010180088887287283010900011300839011020230000002246901023000000000052466542418XXXXXX0257       ME03KE06PT01      NY 4607AMCWQ0OAA50110  N840000000022469          81DNMR HEMP FLOWER           35024P    MC84000000022469 N  549976053336   84009                    000000000+600450S00130    MCW  00642                     000000000  N                0000000000000.00 0000000.00   0000000.00                             000000000000000                                                                                                                                                   U001424  000000000000 0000000000005.04     02200 01000                  
00003190239970008DT67590675900000003707800888800000010180088824001193010900011300846011020230000000849901023000000000052466432739XXXXXX7907               2111111   NYV4 A7W463010827369277N840000000008499R3F600    01DNMR HEMP FLOWER           778926    VD84000000008499 NP1549976053336   84018                    000000000+                F DF 10420                     000000000  Y000000000 338   0000000000000.00 0000000.00   0000000.00                             000000000000000                                                                                                                                                     01424 G000000008499 0000000000000.26     00050 02200                  
00003200239970001P16759067590000000370780088880000001010000000000000000                             2000000000000000000000000              000000000000                    0000000000000000000000000                    000000000000                                                                                                                                                                                                                                                                                                                                                                                                                                                                                        
00003210239970009DT67590675900000003707800888800000010180088824001193010900011300853011020230000001000001023000000000052466446542XXXXXX2629               2111111   NYV4 A7W303010846873784N8400000000100005J5N00    01DNMR HEMP FLOWER           010390    VS84000000010000 NP1549976053336   84019                    000000000+                A CA 12106                     000000000  N000000000 492   0000000000000.00 0000000.00   0000000.00                             000000000000000                                                                                                                                                     01424 G000000010000 0000000000001.99     01890 01000                  
00003220239970001P16759067590000000370780088880000001010000000000000000                             2000000000000000000000000              000000000000                    0000000000000000000000000                    000000000000                                                                                                                                                                                                                                                                                                                                                                                                                                                                                        
