02986050048730002BH6759067590000000215480088880000090171202202233622000000000099000    0000090001525487N8008886759C12042022                                                                                                                                                                                                                                                                                                                                                                                                                                                                                                                                                                                                 
02986060048730003DT67590675900000002154800888800000010180088887287282336900015254874120220220000009900033622000000000099000558958XXXXXX6162                         NY 4607AMABFQT8IE1202  N840000000099000          81DNDRIP DROP DISTRO LLC     04224Q    MB84000000099000 NP1519900000001   INV-27630                000000000+600450S00140    MAB  11637                     000000000  N                0000000000000.00 0000000.00   0000000.00                             000000000000000                                                                                                                                                   U001418  000000000000 0000000000029.80     03000 01000                  
02986070048730001P1675906759000000021548008888000000101                                                          000000000000          8000            471534935                                                                                                                                                                                                                                                                                                                                                                                                                                                                                                                                                            
02986080048730004BH6759067590000000096880088880000090171202202233622000000000006391    0000090001039466N8008886759C12042022                                                                                                                                                                                                                                                                                                                                                                                                                                                                                                                                                                                                 
02986090048730005DT67590675900000000968800888800000010180088824001192336900010394666120220220000000639133622000000000006391414740XXXXXX6893               2111111   NYV4 A7W582336841120962N8400000000063918CRT00    01DNHIGHER FLOUR LLC         04590D    VS84000000006391 NP1546271004114   RUA6QCCA9K2FNGATGKUZ     000000000+                D CD 12109                     000000000  N000000000 498   0000000000000.00 0000000.00   0000000.00                             000000000000000                                                                                                                                                     01418 G000000006391 0000000000001.70     02500 01000                  
02986100048730001P16759067590000000096880088880000001010000000000000000                             2000000000000000000000000              000000000000                    0000000000000000000000000                    000000000000                                                                                                                                                                                                                                                                                                                                                                                                                                                                                        
