07394850603153438AD675906759000000268498001258000009071900011733210000001977007252023NYY20623ND6759800125072720232023206031429                                                                                                                                                                                                                                                                                                                                                                                                                                                                                                                                                                                              
07394860603153441AD675906759000000142748001028000009071900011655700000002126107252023NYY20623ND6759800102072720232023206031430                                                                                                                                                                                                                                                                                                                                                                                                                                                                                                                                                                                              
07394870603153444AD675906759000000142748001028000009071900011244920000001800007252023NYY20623ND6759800102072720232023206031433                                                                                                                                                                                                                                                                                                                                                                                                                                                                                                                                                                                              
07394880603153447AD675906759000000161968001028000009071900018563250000002636207252023NYY20623ND6759800102072720232023206031431                                                                                                                                                                                                                                                                                                                                                                                                                                                                                                                                                                                              
07394890603153450AD675906759000000151648008888000009071900012689730000001394807252023NYY20623ND6759800888072720232023206031432                                                                                                                                                                                                                                                                                                                                                                                                                                                                                                                                                                                              
07394900603153453AD675906759000000209258001128000009071900012500640000003000007252023NYY20623ND6759800112072720232023206041719                                                                                                                                                                                                                                                                                                                                                                                                                                                                                                                                                                                              
07394910603153456AD675906759000000320118001368000009071900016385940000058987507252023NYY20623ND6759800136072720232023199052421                                                                                                                                                                                                                                                                                                                                                                                                                                                                                                                                                                                              
07394920603153459AD675906759000000320118001368000009071900016393800000063127507252023NYY20623ND6759800136072720232023199052422                                                                                                                                                                                                                                                                                                                                                                                                                                                                                                                                                                                              
07394930603153462AD675906759000000320118001368000009071900016384520000175500007252023NYY20623ND6759800136072720232023199052423                                                                                                                                                                                                                                                                                                                                                                                                                                                                                                                                                                                              
07394940603153465AD675906759000000320118001368000009071900016388680000161385707252023NYY20623ND6759800136072720232023202027393                                                                                                                                                                                                                                                                                                                                                                                                                                                                                                                                                                                              
07394950603153468AD675906759000000142748001028000009071900010132750000000999807252023NYY20623ND6759800102072720232023206052659                                                                                                                                                                                                                                                                                                                                                                                                                                                                                                                                                                                              
07394960604918692BH6759067590000001516480088880000090170726202320723000000000036818    0000090001459121N8008886759D07272023145                                                                                                                                                                                                                                                                                                                                                                                                                                                                                                                                                                                              
07394970604918693DT67590675900000015164800888800000010680088887287283207900014591205072520230000002487020723000000000036818524366XXXXXX3302                         YY 4607AMPLYDSOHX0725  N840000000024870          81CNKETOFUSION833-923-3587   025577    MC84000000024870 NDR599977360677   AC6BE6B18ET2835A18FB484  000000000+600450S00130    MPL  00564                     000000000  N                0000000000000.00 0000000.00   0000000.00                             000000000000000                                                                                                                                                     015WPE 000000000000-0000000000004.35     01750 00000                  
07394980604918693DR675906759000000151648008888000000106AC6BE6B18ET2835A18FB484  R000000000000                                                                                                                                                                                                                                                                                                                                                                                                                                                                                                                                                                                                                               
07394990604910001G26759067590000001516480088880000001068014041097               UT           9 L               210                                      NNNN           210000000000000000000000000                        7                                          77360677                                                                                                                                                                                                                                                                                                                                                                                                                                               
07395000604918694DT67590675900000015164800888800000010680088887287283207900014591213072520230000001194820723000000000036818536062XXXXXX4288                         YY 4607AMDJRTO3HX0725  N840000000011948          81CNKETOFUSION833-923-3587   B95780    MD84000000011948 NDR599977360677   0C0B666FE0TDE7D17800F6D  000000000+600450S00130    MDJ  10828                     000000000  1                0000000000000.00 0000000.00   0000000.00                             000000000000000                                                                                                                                                     015WPE 000000000000 0000000000000.00     00000 00000                  
07395010604918694DR6759067590000001516480088880000001060C0B666FE0TDE7D17800F6D  U000000000000                                                                                                                                                                                                                                                                                                                                                                                                                                                                                                                                                                                                                               
07395020604910001G26759067590000001516480088880000001068014041097               UT           9 J               210                                      NNNN           210000000000000000000000000                        7                                          77360677                                                                                                                                                                                                                                                                                                                                                                                                                                               
07395030604918697BH6759067590000001982880010980000090170726202320723000000000024870    0000090001120813N8001096759D07272023112                                                                                                                                                                                                                                                                                                                                                                                                                                                                                                                                                                                              
07395040604918698DT67590675900000019828800109800000010680010987287283207900011208134072520230000002487020723000000000024870535041XXXXXX3310                         YY 4607AMDJJSJ00P0725  N840000000024870          81CNKETOFUSION 8885968154    025095    MD84000000024870 NDR599977547467   D70C3B7B3ETD83547940A27  000000000+600450S00130    MDJ  00560                     000000000  N                0000000000000.00 0000000.00   0000000.00                             000000000000000                                                                                                                                                     015WPE 000000000000 0000000000000.00     00000 00000                  
07395050604918698DR675906759000000198288001098000000106D70C3B7B3ETD83547940A27  R000000000000                                                                                                                                                                                                                                                                                                                                                                                                                                                                                                                                                                                                                               
07395060604910001G26759067590000001982880010980000001068885968154               UT           9 J               210                                      NNNN           210000000000000000000000000                                                                   77547467                                                                                                                                                                                                                                                                                                                                                                                                                                               
07395070605750002BH6759067590000002148580111380000090170726202320723000000001751500    0000090001090766N8011136759C07272023009                                                                                                                                                                                                                                                                                                                                                                                                                                                                                                                                                                                              
07395080605750003DT67590675900000021485801113800000010180111324001193207900010902736072620230000006000020723000000001751500479851XXXXXX3848               2111111   NYV4 A7W383206581598694N84000000006000045CQ00    01DNFED CONTRACTING CTR INC  115290    VB84000000060000 NDR739271004114   3428                     000000000+                G1CG108010                     000000000  N000000000 390   0000000000000.00 0000000.00   0000000.00                             000000000000000                                                                                                                                                     01418 G000000060000 0000000000017.20     02850 01000                  
07395090605750003DR6759067590000002148580111380000001013428                     Y000000060000                 P1                                                                                                                                                                                                                                                                                                                                                                                                                                                                                                                                                                                                            
07395100605750001P16759067590000002148580111380000001010000000000000000    64502178492              2000000000000000000000000              000000000000                    0000000000000000000000000                    000000000000                                                                                                                                                                                                                                                                                                                                                                                                                                                                                        
07395110605750002G2675906759000000214858011138000000101855-7005143              FL           9 C                00                                      NNNN   Y                      000000000000                                                                   71004114                                                                                                                                                                                                                                                                                                                                                                                                                                               
07395120605750004DT67590675900000021485801113800000010180111324001193207900010960601072620230000006000020723000000001751500410039XXXXXX2297               2111111   NYV4 A7W583206485689976N840000000060000VJK600    01DNFED CONTRACTING CTR INC  18397D    VS84000000060000 NDR739271004114   3420                     000000000+                D CD 12383                     000000000  N000000000 628   0000000000000.00 0000000.00   0000000.00                             000000000000000                                                                                                                                                     01418 G000000060000 0000000000014.50     02400 01000                  
07395130605750004DR6759067590000002148580111380000001013420                     Y000000060000                 P1                                                                                                                                                                                                                                                                                                                                                                                                                                                                                                                                                                                                            
07395140605750001P16759067590000002148580111380000001010000000000000000                             2000000000000000000000000              000000000000                    0000000000000000000000000                    000000000000                                                                                                                                                                                                                                                                                                                                                                                                                                                                                        
07395150605750002G2675906759000000214858011138000000101855-7005143              FL           9 C                00                                      NNNN   Y                      000000000000                                                                   71004114                                                                                                                                                                                                                                                                                                                                                                                                                                               
07395160605750005DT67590675900000021485801113800000010180111324001193207900010962391072620230000016200020723000000001751500424631XXXXXX7530               2111111   NYV4 A7W383206489040275N840000000162000J87400    01DNFED CONTRACTING CTR INC  05142G    VB84000000162000 NDR739271004114   3422                     000000000+                G5CG511887                     000000000  N000000000 163   0000000000000.00 0000000.00   0000000.00                             000000000000000                                                                                                                                                     01418 G000000162000 0000000000048.70     03000 01000                  
07395170605750005DR6759067590000002148580111380000001013422                     Y000000162000                 P1                                                                                                                                                                                                                                                                                                                                                                                                                                                                                                                                                                                                            
07395180605750001P16759067590000002148580111380000001010000000000000000    64501837088              2000000000000000000000000              000000000000                    0000000000000000000000000                    000000000000                                                                                                                                                                                                                                                                                                                                                                                                                                                                                        
07395190605750002G2675906759000000214858011138000000101855-7005143              FL           9 C                00                                      NNNN   Y                      000000000000                                                                   71004114                                                                                                                                                                                                                                                                                                                                                                                                                                               
07395200605750006DT67590675900000021485801113800000010180111373011003207900010929891072620230000016200020723000000001751500372734XXXXX4008                          NY 4 07N008525316933066N840000000162000          01DNFED CONTRACTING CTR INC  150968    AM84000000162000 N  739271004114                            000000000+6004S0600140 258     11244                     000000000                   0000000000000.00 0000000.00   0000000.00                             000000000000000 61248972736759675900000021485 FED CONTRACTING CTR INC  15500 ROOSEVELT BLVD STE 8557005143      33760     MIKE@FEDERALCONTRACTINGCENTER.COM         01418  000000000000 0000000000030.88     01900 00000                  
07395210605750001G2675906759000000214858011138000000101CLEARWATER               FL           9                  00                                      NNNN                          000000000000                                                                   71004114                                                                                                                                                                                                                                                                                                                                                                                                                                               
07395220605750007DT67590675900000021485801113800000010180111387287283207900010959398072620230000006000020723000000001751500546630XXXXXX4821       ME03KE06MS02      NY 4607AMWE68OA800725  N840000000060000          81DNFED CONTRACTING CTR INC  02154P    MC84000000060000 NDR739200000001   3438                     000000000+600450S00140    MWE  00737                     000000000  N                0000000000000.00 0000000.00   0000000.00                             000000000000000                                                                                                                                                   U001418  000000000000 0000000000015.70     02600 01000                  
07395230605750007DR6759067590000002148580111380000001013438                     Y000000000000                                                                                                                                                                                                                                                                                                                                                                                                                                                                                                                                                                                                                               
07395240605750001G2675906759000000214858011138000000101727-8515483              FL           9 E               210                                      NNNN           210000000000000000000000000                        7                                          71004114                                                                                                                                                                                                                                                                                                                                                                                                                                               
07395250605750008DT67590675900000021485801113800000010680111373011003207900010966596072620230000031190020723000000001751500371544XXXXX5003                          NY 4 07N008520854908067N840000000311900          01CNFED CONTRACTING CTR INC  104216    AM84000000311900 N  739271004114                            000000000+6004S0600140 258     11314                     000000000                   0000000000000.00 0000000.00   0000000.00                             000000000000000 61248972736759675900000021485 FED CONTRACTING CTR INC  15500 ROOSEVELT BLVD STE 8557005143      33760     MIKE@FEDERALCONTRACTINGCENTER.COM         01418  000000000000 0000000000000.00     00000 00000                  
07395260605750001G2675906759000000214858011138000000106CLEARWATER               FL           9                  00                                      NNNN                          000000000000                                                                   71004114                                                                                                                                                                                                                                                                                                                                                                                                                                               
07395270605750009DT67590675900000021485801113800000010180111387287283207900010977416072620230000005000020723000000001751500552433XXXXXX8974       ME03KE06PT01      NY 4607AMCWR8DK0P0725  N840000000050000          81DNFED CONTRACTING CTR INC  02043S    MC84000000050000 NDR739200000001   3424                     000000000+600450S00140    MCW  02182                     000000000  N                0000000000000.00 0000000.00   0000000.00                             000000000000000                                                                                                                                                   U001418  000000000000 0000000000013.10     02600 01000                  
07395280605750009DR6759067590000002148580111380000001013424                     Y000000000000                                                                                                                                                                                                                                                                                                                                                                                                                                                                                                                                                                                                                               
07395290605750001G2675906759000000214858011138000000101727-8515483              FL           9 W               210                                      NNNN           210000000000000000000000000                        7                                          71004114                                                                                                                                                                                                                                                                                                                                                                                                                                               
07395300605750010DT67590675900000021485801113800000010180111387287283207900010909633072620230000114750020723000000001751500534860XXXXXX6366                         NY 4607AMDBQTV5690725  N840000001147500          81DNFED CONTRACTING CTR INC  142285    MD84000001147500 NDR739200000001   3432                     000000000+600450S00140    MDB  10786                     000000000  1                0000000000000.00 0000000.00   0000000.00                             000000000000000                                                                                                                                                   U001418  000000000000 0000000000005.96     00050 02200                  
07395310605750010DR6759067590000002148580111380000001013432                     Y000000000000                 P1                                                                                                                                                                                                                                                                                                                                                                                                                                                                                                                                                                                                            
07395320605750001P1675906759000000214858011138000000101                                                          000000000000          1000            871304360                                                                                                                                                                                                                                                                                                                                                                                                                                                                                                                                                            
07395330605750002G2675906759000000214858011138000000101727-8515483              FL           9 B               210                  871304360           YNNN           210000000000000000000000000                        7                                          71004114                                                                                                                                                                                                                                                                                                                                                                                                                                               
07395340605750011DT67590675900000021485801113800000010180111324001193207900010927949072620230000031190020723000000001751500485620XXXXXX1054               2111111   NYV4 A7W583206625856704N840000000311900GF2B00    01DNFED CONTRACTING CTR INC  025942    VB84000000311900 NDR739271004114   3434                     000000000+                G3CG308002                     000000000  N000000000 381   0000000000000.00 0000000.00   0000000.00                             000000000000000                                                                                                                                                     01418 G000000311900 0000000000087.43     02800 01000                  
07395350605750011DR6759067590000002148580111380000001013434                     A000000311900                 P1                                                                                                                                                                                                                                                                                                                                                                                                                                                                                                                                                                                                            
07395360605750001P16759067590000002148580111380000001010000000000000000    64502357176              2000000000000000000000000              000000000000                    0000000000000000000000000                    000000000000                                                                                                                                                                                                                                                                                                                                                                                                                                                                                        
07395370605750002G2675906759000000214858011138000000101855-7005143              FL           9 C                00                                      NNNN   Y                      000000000000                                                                   71004114                                                                                                                                                                                                                                                                                                                                                                                                                                               
07395380605750012DT67590675900000021485801113800000010180111324001193207900010907669072620230000005000020723000000001751500424631XXXXXX5845               2111111   NYV4 A7W303206585694053N840000000050000ZK2M00    01DNFED CONTRACTING CTR INC  08300G    VB84000000050000 NDR739271004114   3430                     000000000+                G3CG308002                     000000000  N000000000 381   0000000000000.00 0000000.00   0000000.00                             000000000000000                                                                                                                                                     01418 G000000050000 0000000000014.10     02800 01000                  
07395390605750012DR6759067590000002148580111380000001013430                     Y000000050000                 P1                                                                                                                                                                                                                                                                                                                                                                                                                                                                                                                                                                                                            
07395400605750001P16759067590000002148580111380000001010000000000000000    64502196183              2000000000000000000000000              000000000000                    0000000000000000000000000                    000000000000                                                                                                                                                                                                                                                                                                                                                                                                                                                                                        
07395410605750002G2675906759000000214858011138000000101855-7005143              FL           9 C                00                                      NNNN   Y                      000000000000                                                                   71004114                                                                                                                                                                                                                                                                                                                                                                                                                                               
07395420605750013BH6759067590000000288180088880000090170726202320723000000000219587    0000090001720036N8008886759C07272023072                                                                                                                                                                                                                                                                                                                                                                                                                                                                                                                                                                                              
07395430605750014DT67590675900000002881800888800000010180088824001193207900017200019072620230000000520820723000000000219587440393XXXXXX5140       VS11    0001111   NYV1 A E463207525900501N840000000005208RZQB00    05DNHAPPY HIPPIE             052363    VD84000000005208 N  549976487169                            000000000+                F PF 08170                     000000000  N000000000       0000000000000.00 0000000.00   0000000.00                             000000000000000                                                                                                                                                     01418 A000000000000 0000000000000.75     01150 01500                  
07395440605750001E167590675900000002881800888800000010100E0F8C80045 00000000000.004040404040404040404040404040404040404040404040404006011203A0A000000000000000000000404040404040404040404040404040  0000084018008080008000230726D5B9906D3807489A8E93F709404040400840A0000000031010000000000000000000AC5B4567289EFCA530300000000000004040401E40404040 000000052.08 000000000.001E00000000000000000000    80                                                                                                                                                                                                                                                                                                                  
07395450605750002G2675906759000000028818008888000000101SEVIERVILLE              TN           5 P                00                                      NNNN00 N 00                   000000000000                                                                   76487169                                                                                                                                                                                                                                                                                                                                                                                                                                               
07395460605750015DT67590675900000002881800888800000010180088824001193207900017200027072620230000000316720723000000000219587440393XXXXXX5140       VS11    0001111   NYV1 A E463207527684004N840000000003167G9JS00    07DNHAPPY HIPPIE             705636    VD84000000003167 N  549976487169                            000000000+                F PF 08170                     000000000  N000000000       0000000000000.00 0000000.00   0000000.00                             000000000000000                                                                                                                                                     01418 A000000000000 0000000000000.51     01150 01500                  
07395470605750001E167590675900000002881800888800000010100E068C80046 00000000000.004040404040404040404040404040404040404040404040404006011203A00000000000000000000000404040404040404040404040404040  000008402000000000000023072600ADE55DD7233D1B15CD140B404040400840A00000000310100000000000000000003A48A8033CF3689330300000000000004040404040404040 000000031.67 000000000.004040400000000000000000    80                                                                                                                                                                                                                                                                                                                  
07395480605750002G2675906759000000028818008888000000101SEVIERVILLE              TN           5 P                00                                      NNNN00 N 00                   000000000000                                                                   76487169                                                                                                                                                                                                                                                                                                                                                                                                                                               
07395490605750016DT67590675900000002881800888800000010180088877287283207900017200037072620230000000462920723000000000219587525363XXXXXX3668       MS02WI09          NY 1 0 AMWEMZX3340726  N840000000004629          05DNHAPPY HIPPIE             54972Z    MC84000000004629 N  549976487169                            000000000+M10101C0034C    MWE  00743                     000000000  N                0000000000000.00 0000000.00   0000000.00                             000000000000000                                                                                                                                                   B101418  000000000000 0000000000001.10     02300 00400                  
07395500605750001E167590675900000002881800888800000010100E0F8C8005A 00000000000.00404040404040404040404040404040404040404040404040400110A00001220800000000000000000000FF00000000000000000000000000  000108401800800000800023072641C078925A880E55268C7F25404040400840A000000004101000000000000000000052DE4D51545E3C5400140000000000004040401F40404040 000000046.29 000000000.001F03020000000000000000    80                                                                                                                                                                                                                                                                                                                  
07395510605750002G2675906759000000028818008888000000101SEVIERVILLE              TN           5 E                                                        NNNN              000000000000000000000000                                                                   76487169                                                                                                                                                                                                                                                                                                                                                                                                                                               
07395520605750017DT67590675900000002881800888800000010180088824001193207900017200043072620230000000439620723000000000219587408138XXXXXX1912       VS11    0001111   NYV1 A E383207543053575N840000000004396PNZW00    07DNHAPPY HIPPIE             629745    VD84000000004396 N  549976487169                            000000000+                F PF 08170                     000000000  N000000000       0000000000000.00 0000000.00   0000000.00                             000000000000000                                                                                                                                                     01418 A000000000000 0000000000000.66     01150 01500                  
07395530605750001E167590675900000002881800888800000010100E068C80064 00000000000.00404040404040404040404040404040404040404040404040401F42FF32A00000000010030273000000004000000000000000000000000000  0000084000600000000000230726CF5D14F369FE8E61AF3D88DD404040400840A0000000031010000000000000000000D3E7AE8C0086000000000000000000004040404040404040 000000043.96 000000000.004040400000000000000000    80                                                                                                                                                                                                                                                                                                                  
07395540605750002G2675906759000000028818008888000000101SEVIERVILLE              TN           5 P                00                                      NNNN00 N 00                   000000000000                                                                   76487169                                                                                                                                                                                                                                                                                                                                                                                                                                               
07395550605750018DT67590675900000002881800888800000010180088824001193207900017200050072620230000000393820723000000000219587435546XXXXXX8931       VS11    0001111   NYV1 A E383207548546164N8400000000039388CZD00    05DNHAPPY HIPPIE             116080    VD84000000003938 N  549976487169                            000000000+                F DF 10433                     000000000  Y000000000 338   0000000000000.00 0000000.00   0000000.00                             000000000000000                                                                                                                                                     01418 A000000000000 0000000000000.24     00050 02200                  
07395560605750001E167590675900000002881800888800000010100E0F8C809BD 00000000000.004040404040404040404040404040404040404040404040404006011203A08000000000000000000000404040404040404040404040404040  00010840180080800080002307264798B8A75CA9E6EA89BB938D404040400840A00000000310100000000000000000009D0976850082000000000000000000004040401E40404040 000000039.38 000000000.001E00000000000000000000    80                                                                                                                                                                                                                                                                                                                  
07395570605750002G2675906759000000028818008888000000101SEVIERVILLE              TN           5 D                00                                      NNNN00 N 00                   000000000000                                                                   76487169                                                                                                                                                                                                                                                                                                                                                                                                                                               
07395580605750019DT67590675900000002881800888800000010180088877287283207900017200060072620230000002221720723000000000219587517545XXXXXX7761       MS02WI09          NY 2 0 AMDJNGI5340726  N840000000022217          05DNHAPPY HIPPIE             026445    MD84000000022217 N  549976487169                            000000000+M10101C1334C    MDJ  10815                     000000000  1                0000000000000.00 0000000.00   0000000.00                             000000000000000                                                                                                                                                   B101418  000000000000 0000000000000.33     00050 02200                  
07395590605750001E167590675900000002881800888800000010100E0F8C8020A 00000000000.00404040404040404040404040404040404040404040404040400110A040002A0000000000000000000000FF00000000000000000000000000  00010840390000000480002307263EC48C67A37A2D9A8D8519F4404040400840A00000000410100000000000000000007976E79E51D63CDB00120000000000004040400240404040 000000222.17 000000000.000203000000000000000000    80                                                                                                                                                                                                                                                                                                                  
07395600605750002G2675906759000000028818008888000000101SEVIERVILLE              TN           5 J                                                        NNNN              000000000000000000000000                        7                                          76487169                                                                                                                                                                                                                                                                                                                                                                                                                                               
07395610605750020DT67590675900000002881800888800000010180088824001193207900017200076072620230000000230120723000000000219587419090XXXXXX8466       VS11    0001111   NYV1 A E383207553184807N840000000002301QHS300    05DNHAPPY HIPPIE             216527    VD84000000002301 N  549976487169                            000000000+                F DF 00381                     000000000  N000000000       0000000000000.00 0000000.00   0000000.00                             000000000000000                                                                                                                                                     01418 A000000000000 0000000000000.33     00800 01500                  
07395620605750001E167590675900000002881800888800000010100E0F8C8011C 00000000000.004040404040404040404040404040404040404040404040404006011203A0A000000000000000000000404040404040404040404040404040  0001084018008080008000230726D71411992F2440542627DA81404040400840A00000000310100000000000000000007375324F0080000000000000000000004040401E40404040 000000023.01 000000000.001E00000000000000000000    80                                                                                                                                                                                                                                                                                                                  
07395630605750002G2675906759000000028818008888000000101SEVIERVILLE              TN           5 D                00                                      NNNN00 N 00                   000000000000                                                                   76487169                                                                                                                                                                                                                                                                                                                                                                                                                                               
07395640605750021DT67590675900000002881800888800000010180088824001193207900017200084072620230000002211420723000000000219587414720XXXXXX9938       VS11    0001111   NYV1 A E383207555198732N8400000000221142WWK00    05DNHAPPY HIPPIE             05577C    VS84000000022114 N  549976487169                            000000000+                C CC 12112                     000000000  N000000000 497   0000000000000.00 0000000.00   0000000.00                             000000000000000                                                                                                                                                     01418 A000000000000 0000000000003.75     01650 01000                  
07395650605750001E167590675900000002881800888800000010100E0F8C80012 00000000000.004040404040404040404040404040404040404040404040404006021203A0A002000000000000000000404040404040404040404040404040  0001084038000080008000230726FFC9F66A2811CDE42CB64CAC404040400840A00000000310100000000000000000000D18D63F0082000000000000000000004040401E40404040 000000221.14 000000000.001E00000000000000000000    80                                                                                                                                                                                                                                                                                                                  
07395660605750002G2675906759000000028818008888000000101SEVIERVILLE              TN           5 C                00                                      NNNN00 Y 00                   000000000000                                                                   76487169                                                                                                                                                                                                                                                                                                                                                                                                                                               
07395670605750022DT67590675900000002881800888800000010180088824001193207900017200092072620230000000393320723000000000219587438911XXXXXX6926       VS11    0001111   NYV1 A E383207560375507N840000000003933QP8P00    07DNHAPPY HIPPIE             275058    VD84000000003933 N  549976487169                            000000000+                F DF 10433                     000000000  Y000000000 338   0000000000000.00 0000000.00   0000000.00                             000000000000000                                                                                                                                                     01418 A000000000000 0000000000000.24     00050 02200                  
07395680605750001E167590675900000002881800888800000010100E068C80012 00000000000.00404040404040404040404040404040404040404040404040401F42FF32A00000000010030273000000004000000000000000000000000000  0000084000600000000000230726098B7E13BD6CC46E0653AA66404040400840A00000000310100000000000000000001C0CDEA40086000000000000000000004040404040404040 000000039.33 000000000.004040400000000000000000    80                                                                                                                                                                                                                                                                                                                  
07395690605750002G2675906759000000028818008888000000101SEVIERVILLE              TN           5 D                00                                      NNNN00 N 00                   000000000000                                                                   76487169                                                                                                                                                                                                                                                                                                                                                                                                                                               
07395700605750023DT67590675900000002881800888800000010680088874001193207900017200105072620230000000347120723000000000219587438911XXXXXX6926               0000000   NYV1 0 T463207565766017N840000000003471FF4P00    07CNHAPPY HIPPIE             247894    VD84000000003471 N  549976487169                            000000000+                F DF 08168                     000000000  Y000000000 369   0000000000000.00 0000000.00   0000000.00                             000000000000000                                                                                                                                                     01418  000000000000 0000000000000.00     00000 00000                  
07395710605750001G2675906759000000028818008888000000106SEVIERVILLE              TN           5 D                00                                      NNNN00 N 00                   000000000000                                                                   76487169                                                                                                                                                                                                                                                                                                                                                                                                                                               
07395720605750024DT67590675900000002881800888800000010180088877287283207900017200110072620230000000219420723000000000219587517895XXXXXX0329       MS02WI09          NY 2 0 AMDJAZDX230726  N840000000002194          05DNHAPPY HIPPIE             764193    MD84000000002194 N  549976487169                            000000000+M10101C1334C    MDJ  00402                     000000000  N                0000000000000.00 0000000.00   0000000.00                             000000000000000                                                                                                                                                   B101418  000000000000 0000000000000.38     01050 01500                  
07395730605750001E167590675900000002881800888800000010100E0F8C8007E 00000000000.00404040404040404040404040404040404040404040404040400110A00001220000000000000000000000FF00000000000000000000000000  00020840180080000480002307269D394F50C07DCA45CBDF9686404040400840A000000004101000000000000000000032030A9AF586C88000100000000000004040400240404040 000000021.94 000000000.000203000000000000000000    80                                                                                                                                                                                                                                                                                                                  
07395740605750002G2675906759000000028818008888000000101SEVIERVILLE              TN           5 J                                                        NNNN              000000000000000000000000                        7                                          76487169                                                                                                                                                                                                                                                                                                                                                                                                                                               
07395750605750025DT67590675900000002881800888800000010180088824001193207900017200126072620230000000520920723000000000219587415978XXXXXX3184       VS11    0001111   NYV1 A E383207575220499N8400000000052096SVX00    05DNHAPPY HIPPIE             086443    VD84000000005209 N  549976487169                            000000000+                F DF 10433                     000000000  Y000000000 338   0000000000000.00 0000000.00   0000000.00                             000000000000000                                                                                                                                                     01418 A000000000000 0000000000000.25     00050 02200                  
07395760605750001E167590675900000002881800888800000010100E0F8C801AF 00000000000.004040404040404040404040404040404040404040404040404006011203A0A000000000000000000000404040404040404040404040404040  0000084018008080008000230726326B730F170A71252F60B9D8404040400840A00000000310100000000000000000001565D857067D685330300000000000004040401E40404040 000000052.09 000000000.001E00000000000000000000    80                                                                                                                                                                                                                                                                                                                  
07395770605750002G2675906759000000028818008888000000101SEVIERVILLE              TN           5 D                00                                      NNNN00 N 00                   000000000000                                                                   76487169                                                                                                                                                                                                                                                                                                                                                                                                                                               
07395780605750026DT67590675900000002881800888800000010180088824001193207900017200134072620230000000415720723000000000219587480639XXXXXX0039       VS11    0001111   NYV1 A E583207578299908N840000000004157WSQC00    05DNHAPPY HIPPIE             103315    VD84000000004157 N  549976487169                            000000000+                F DF 00381                     000000000  N000000000       0000000000000.00 0000000.00   0000000.00                             000000000000000                                                                                                                                                     01418 A000000000000 0000000000000.48     00800 01500                  
07395790605750001E167590675900000002881800888800000010100E0F8C80157 00000000000.004040404040404040404040404040404040404040404040404006011203A0A000000000000000000000404040404040404040404040404040  000008401800808000800023072692C210FD9EC5E61F498CD0E2404040400840A0000000031010000000000000000000BC06C0C40080000000000000000000004040401E40404040 000000041.57 000000000.001E00000000000000000000    80                                                                                                                                                                                                                                                                                                                  
07395800605750002G2675906759000000028818008888000000101SEVIERVILLE              TN           5 D                00                                      NNNN00 N 00                   000000000000                                                                   76487169                                                                                                                                                                                                                                                                                                                                                                                                                                               
07395810605750027DT67590675900000002881800888800000010180088877287283207900017200144072620230000000844920723000000000219587541413XXXXXX1887       MS02WI09          NY 1 0 AMCWKJNE230726  N840000000008449          05DNHAPPY HIPPIE             02514S    MC84000000008449 N  549976487169                            000000000+M10101C5434C    MCW  02188                     000000000  N                0000000000000.00 0000000.00   0000000.00                             000000000000000                                                                                                                                                   B101418  000000000000 0000000000001.98     02300 00400                  
07395820605750001E167590675900000002881800888800000010100E0F8C801D5 00000000000.00404040404040404040404040404040404040404040404040400110A04001220000000000000000000000FF00000000000000000000000000  0001084039000000008000230726AD78CD93112C7EA6C0B1F61F404040400840A00000000410100000000000000000002DE1DC9477DC3D8F00120000000000004040401E40404040 000000084.49 000000000.001E03000000000000000000    80                                                                                                                                                                                                                                                                                                                  
07395830605750002G2675906759000000028818008888000000101SEVIERVILLE              TN           5 W                                                        NNNN              000000000000000000000000                        7                                          76487169                                                                                                                                                                                                                                                                                                                                                                                                                                               
07395840605750028DT67590675900000002881800888800000010180088877287283207900017200151072620230000000416620723000000000219587511953XXXXXX8179       MS02WI09          NY 1 0 AMDJB7BR230726  N840000000004166          07DNHAPPY HIPPIE             046909    MD84000000004166 N  549976487169                            000000000+M10101M0034C    MDJ  00402                     000000000  N                0000000000000.00 0000000.00   0000000.00                             000000000000000                                                                                                                                                   B101418  000000000000 0000000000000.59     01050 01500                  
07395850605750001E1675906759000000028818008888000000101000008480119 00000000000.00404040404040404040404040404040404040404040404040400110A04001220000000000000000000000FF00000000000000000000000000  00000840198000000080012307268B168B073985ED9C54827C38404040400840A0000000041010000000000000000000404040404040404040404040404040404040401F40404040 000000041.66 000000000.001F03020000000000000000    80                                                                                                                                                                                                                                                                                                                  
07395860605750002G2675906759000000028818008888000000101SEVIERVILLE              TN           5 J                                                        NNNN              000000000000000000000000       03               7                                          76487169                                                                                                                                                                                                                                                                                                                                                                                                                                               
07395870605750029DT67590675900000002881800888800000010180088877287283207900017200169072620230000000381920723000000000219587528217XXXXXX5781       MS02WI09          NY 1 0 AMDJDMCC230726  N840000000003819          05DNHAPPY HIPPIE             786449    MD84000000003819 N  549976487169                            000000000+M10101C5434C    MDJ  00402                     000000000  N                0000000000000.00 0000000.00   0000000.00                             000000000000000                                                                                                                                                   B101418  000000000000 0000000000000.55     01050 01500                  
07395880605750001E167590675900000002881800888800000010100E0F8C80215 00000000000.00404040404040404040404040404040404040404040404040400110A00001220000000000000000000000FF00000000000000000000000000  0000084018008000088000230726B8DFBADDA842EB31792A57CC404040400840A000000004101000000000000000000097BD26EB64DD442700100000000000004040401E40404040 000000038.19 000000000.001E03000000000000000000    80                                                                                                                                                                                                                                                                                                                  
07395890605750002G2675906759000000028818008888000000101SEVIERVILLE              TN           5 J                                                        NNNN              000000000000000000000000                        7                                          76487169                                                                                                                                                                                                                                                                                                                                                                                                                                               
07395900605750030DT67590675900000002881800888800000010180088877287283207900017200177072620230000000115820723000000000219587528217XXXXXX5781       MS02WI09          NY 2 0 AMDJDRH0230726  N840000000001158          05DNHAPPY HIPPIE             787518    MD84000000001158 N  549976487169                            000000000+M10101C1334C    MDJ  00505                     000000000  N                0000000000000.00 0000000.00   0000000.00                             000000000000000                                                                                                                                                   B101418  000000000000 0000000000000.22     01550 00400                  
07395910605750001E167590675900000002881800888800000010100E0F8C80216 00000000000.00404040404040404040404040404040404040404040404040400110A00001220000000000000000000000FF00000000000000000000000000  0000084018008000048000230726570D2C12F7D043508F96ED69404040400840A0000000041010000000000000000000FC69907060D75A6500100000000000004040400240404040 000000011.58 000000000.000203000000000000000000    80                                                                                                                                                                                                                                                                                                                  
07395920605750002G2675906759000000028818008888000000101SEVIERVILLE              TN           5 J                                                        NNNN              000000000000000000000000                        7                                          76487169                                                                                                                                                                                                                                                                                                                                                                                                                                               
07395930605750031DT67590675900000002881800888800000010180088824001193207900017200183072620230000000208120723000000000219587498503XXXXXX1731       VS11    0001111   NYV1 A E463207627081001N840000000002081NX2S00    05DNHAPPY HIPPIE             017188    VD84000000002081 N  549976487169                            000000000+                F DF 00381                     000000000  N000000000       0000000000000.00 0000000.00   0000000.00                             000000000000000                                                                                                                                                     01418 A000000000000 0000000000000.32     00800 01500                  
07395940605750001E167590675900000002881800888800000010100E0F8C80409 00000000000.004040404040404040404040404040404040404040404040404006010A03A0A000000000000000000000404040404040404040404040404040  000008401800808000800023072689862E3C51B3B11E28E46794404040400840A00000000310100000000000000000007FE50AA413E6841230300000000000004040401E40404040 000000020.81 000000000.001E00000000000000000000    80                                                                                                                                                                                                                                                                                                                  
07395950605750002G2675906759000000028818008888000000101SEVIERVILLE              TN           5 D                00                                      NNNN00 N 00                   000000000000                                                                   76487169                                                                                                                                                                                                                                                                                                                                                                                                                                               
07395960605750032DT67590675900000002881800888800000010180088824001193207900017200191072620230000000704220723000000000219587419090XXXXXX1975       VS11    0001111   NYV1 A E463207653909055N84000000000704263G800    05DNHAPPY HIPPIE             222276    VD84000000007042 N  549976487169                            000000000+                F DF 00381                     000000000  N000000000       0000000000000.00 0000000.00   0000000.00                             000000000000000                                                                                                                                                     01418 A000000000000 0000000000000.71     00800 01500                  
07395970605750001E167590675900000002881800888800000010100E0F8C800C6 00000000000.004040404040404040404040404040404040404040404040404006011203A0A000000000000000000000404040404040404040404040404040  00010840180080800080002307268480FB02592211C2BB3888EA404040400840A00000000310100000000000000000006F4B49C90080000000000000000000004040401E40404040 000000070.42 000000000.001E00000000000000000000    80                                                                                                                                                                                                                                                                                                                  
07395980605750002G2675906759000000028818008888000000101SEVIERVILLE              TN           5 D                00                                      NNNN00 N 00                   000000000000                                                                   76487169                                                                                                                                                                                                                                                                                                                                                                                                                                               
07395990605750033DT67590675900000002881800888800000010180088824001193207900017200209072620230000000239520723000000000219587419090XXXXXX9032       VS11    0001111   NYV1 A E463207665129250N840000000002395GZXF00    05DNHAPPY HIPPIE             222889    VD84000000002395 N  549976487169                            000000000+                F DF 00381                     000000000  N000000000       0000000000000.00 0000000.00   0000000.00                             000000000000000                                                                                                                                                     01418 A000000000000 0000000000000.34     00800 01500                  
07396000605750001E167590675900000002881800888800000010100E0F8C8022D 00000000000.004040404040404040404040404040404040404040404040404006011203A0A000000000000000000000404040404040404040404040404040  00010840180080800080002307267F05B5E0738CF902B4CA0F5A404040400840A0000000031010000000000000000000FE78800E0080000000000000000000004040401E40404040 000000023.95 000000000.001E00000000000000000000    80                                                                                                                                                                                                                                                                                                                  
07396010605750002G2675906759000000028818008888000000101SEVIERVILLE              TN           5 D                00                                      NNNN00 N 00                   000000000000                                                                   76487169                                                                                                                                                                                                                                                                                                                                                                                                                                               
07396020605750034DT67590675900000002881800888800000010180088824001193207900017200217072620230000001562920723000000000219587448915XXXXXX1375       VS11    0001111   NYV1 A E463207680492942N840000000015629CZHF00    05DNHAPPY HIPPIE             026307    VS84000000015629 N  549976487169                            000000000+                D CD 12113                     000000000  N000000000 499   0000000000000.00 0000000.00   0000000.00                             000000000000000                                                                                                                                                     01418 A000000000000 0000000000003.38     02100 01000                  
07396030605750001E167590675900000002881800888800000010100E0F8C80057 00000000000.004040404040404040404040404040404040404040404040404006121203A0A000000000000000000000404040404040404040404040404040  000608401800808000800023072687324D4EA07B83355554FD37404040400840A0000000031010000000000000000000827318430082000000000000000000004040401E40404040 000000156.29 000000000.001E00000000000000000000    80                                                                                                                                                                                                                                                                                                                  
07396040605750002G2675906759000000028818008888000000101SEVIERVILLE              TN           5 C                00                                      NNNN00 Y 00                   000000000000                                                                   76487169                                                                                                                                                                                                                                                                                                                                                                                                                                               
07396050605750035DT67590675900000002881800888800000010180088824001193207900017200225072620230000001165920723000000000219587414709XXXXXX7367       VS11    0001111   NYV1 A E383207694356756N840000000011659XF9300    05DNHAPPY HIPPIE             01474D    VS84000000011659 N  549976487169                            000000000+                D CD 12113                     000000000  N000000000 499   0000000000000.00 0000000.00   0000000.00                             000000000000000                                                                                                                                                     01418 A000000000000 0000000000002.55     02100 01000                  
07396060605750001E167590675900000002881800888800000010100E0F8C800F8 00000000000.004040404040404040404040404040404040404040404040404006011203A0A002000000000000000000404040404040404040404040404040  0002084038000080008000230726EDF8D1A2BA2F3A92F91E1968404040400840A0000000031010000000000000000000AC7EE9800082000000000000000000004040401E40404040 000000116.59 000000000.001E00000000000000000000    80                                                                                                                                                                                                                                                                                                                  
07396070605750002G2675906759000000028818008888000000101SEVIERVILLE              TN           5 C                00                                      NNNN00 Y 00                   000000000000                                                                   76487169                                                                                                                                                                                                                                                                                                                                                                                                                                               
07396080605750036DT67590675900000002881800888800000010180088824001193207900017200233072620230000000249820723000000000219587401099XXXXXX4641       VS11    0001111   NYV1 A E303207711766689N8400000000024984XT700    05DNHAPPY HIPPIE             503190    VS84000000002498 N  549976487169                            000000000+                A CA 12110                     000000000  N000000000 493   0000000000000.00 0000000.00   0000000.00                             000000000000000                                                                                                                                                     01418 A000000000000 0000000000000.48     01510 01000                  
07396090605750001E167590675900000002881800888800000010100E0F8C80005 00000000000.004040404040404040404040404040404040404040404040404006011203A0B000000000000000000000404040404040404040404040404040  00000840180080800080002307265B9C485E9B9F59F836158272404040400840A0000000031010000000000000000000404040404040404040404040404040404040401E40404040 000000024.98 000000000.001E00000000000000000000    80                                                                                                                                                                                                                                                                                                                  
07396100605750002G2675906759000000028818008888000000101SEVIERVILLE              TN           5 C                00                                      NNNN00 N 00                   000000000000                                                                   76487169                                                                                                                                                                                                                                                                                                                                                                                                                                               
07396110605750037DT67590675900000002881800888800000010180088877287283207900017200243072620230000000219420723000000000219587522094XXXXXX6222       MS02WI09          NY 1 0 AMPGNKW7DM0726  N840000000002194          05DNHAPPY HIPPIE             054791    MD84000000002194 N  549976487169                            000000000+M10101C5434C    MPG  11964                     000000000  N                0000000000000.00 0000000.00   0000000.00                             000000000000000                                                                                                                                                   B101418  000000000000 0000000000000.40     01150 01500                  
07396120605750001E167590675900000002881800888800000010100E0F8C80065 00000000000.00404040404040404040404040404040404040404040404040400110A00001220000000000000000000000FF00000000000000000000000000  0000084018008000008000230726AF09284FFFE9BDD507406CA4404040400840A00000000410100000000000000000001BB5256CD270550500120000000000004040401E40404040 000000021.94 000000000.001E03000000000000000000    80                                                                                                                                                                                                                                                                                                                  
07396130605750002G2675906759000000028818008888000000101SEVIERVILLE              TN           5 G                                                        NNNN              000000000000000000000000                        7                                          76487169                                                                                                                                                                                                                                                                                                                                                                                                                                               
07396140605750038DT67590675900000002881800888800000010180088824001193207900017200258072620230000000462920723000000000219587435547XXXXXX8329       VS11    0001111   NYV1 A E383207713929842N8400000000046292JBX00    05DNHAPPY HIPPIE             084068    VD84000000004629 N  549976487169                            000000000+                F DF 10433                     000000000  Y000000000 338   0000000000000.00 0000000.00   0000000.00                             000000000000000                                                                                                                                                     01418 A000000000000 0000000000000.24     00050 02200                  
07396150605750001E167590675900000002881800888800000010100E0F8C8031D 00000000000.004040404040404040404040404040404040404040404040404006011203A08000000000000000000000404040404040404040404040404040  00010840180080800080002307269BFF21DBE9DB45032D2CA33A404040400840A0000000031010000000000000000000ACADD8F30082000000000000000000004040401E40404040 000000046.29 000000000.001E00000000000000000000    80                                                                                                                                                                                                                                                                                                                  
07396160605750002G2675906759000000028818008888000000101SEVIERVILLE              TN           5 D                00                                      NNNN00 N 00                   000000000000                                                                   76487169                                                                                                                                                                                                                                                                                                                                                                                                                                               
07396170605750039DT67590675900000002881800888800000010180088824001193207900017200266072620230000000120620723000000000219587481566XXXXXX8041       VK04VS111111111   NYV1 A E303207715762013N840000000001206P6KK00    07DNHAPPY HIPPIE             H46528    VD84000000001206 N  549976487169                            000000000+                F DF 10439                     000000000  Y000000000 331   0000000000000.00 0000000.00   0000000.00                             000000000000000                                                                                                                                                     01418 F000000000000 0000000000000.23     00050 02200                  
07396180605750001E167590675900000002881800888800000010100E068C80006 00000000000.00404040404040404040404040404040404040404040404040401F42FF32A00000000010030273000000004000000000000000000000000000  00000840006000000000002307267ABA6BF5EBBF7A038D91860F404040400840A00000000310100000000000000000009FF1948B0086000000000000000000004040404040404040 000000012.06 000000000.004040400000000000000000    80                                                                                                                                                                                                                                                                                                                  
07396190605750002G2675906759000000028818008888000000101SEVIERVILLE              TN           5 D                00                                      NNNN00 N 00                   000000000000                                                                   76487169                                                                                                                                                                                                                                                                                                                                                                                                                                               
07396200605750040DT67590675900000002881800888800000010180088877287283207900017200276072620230000000532820723000000000219587514377XXXXXX9515       MS02WI09          NY 1 0 AMDJPDEEWL0726  N840000000005328          07DNHAPPY HIPPIE             16UOUL    MD84000000005328 N  549976487169                            000000000+M10101M5434C    MDJ  00402                     000000000  N                0000000000000.00 0000000.00   0000000.00                             000000000000000                                                                                                                                                   B101418  000000000000 0000000000000.71     01050 01500                  
07396210605750001E1675906759000000028818008888000000101000060C80029 00000000000.00404040404040404040404040404040404040404040404040400110A04001220000000000000000000000FF00000000000000000000000000  0001084019800000008001230726D0858F441F672EE19490D3C6404040400840A0000000041010000000000000000000404040404040404040404040404040404040401E40404040 000000053.28 000000000.001E03000000000000000000    80                                                                                                                                                                                                                                                                                                                  
07396220605750002G2675906759000000028818008888000000101SEVIERVILLE              TN           5 J                                                        NNNN              000000000000000000000000       03               7                                          76487169                                                                                                                                                                                                                                                                                                                                                                                                                                               
07396230605750041DT67590675900000002881800888800000010180088824001193207900017200282072620230000000520820723000000000219587419090XXXXXX3215       VS11    0001111   NYV1 A E583207726750952N840000000005208CRQT00    05DNHAPPY HIPPIE             226248    VD84000000005208 N  549976487169                            000000000+                F DF 00381                     000000000  N000000000       0000000000000.00 0000000.00   0000000.00                             000000000000000                                                                                                                                                     01418 A000000000000 0000000000000.57     00800 01500                  
07396240605750001E167590675900000002881800888800000010100E0F8C80249 00000000000.004040404040404040404040404040404040404040404040404006011203A02000000000000000000000404040404040404040404040404040  00010840180080800080002307261A0CA82AC58B8FB90DC40DF1404040400840A00000000310100000000000000000009F35036E0080000000000000000000004040401E40404040 000000052.08 000000000.001E00000000000000000000    80                                                                                                                                                                                                                                                                                                                  
07396250605750002G2675906759000000028818008888000000101SEVIERVILLE              TN           5 D                00                                      NNNN00 N 00                   000000000000                                                                   76487169                                                                                                                                                                                                                                                                                                                                                                                                                                               
07396260605750042DT67590675900000002881800888800000010180088877287283207900017200292072620230000000672320723000000000219587511975XXXXXX7596                         NY 1 0 AMDBN9V9DM0726  N840000000006723          07DNHAPPY HIPPIE             075596    MD84000000006723 NP1549976487169                            000000000+M10101M5434C    MDB  00062                     000000000  N                0000000000000.00 0000000.00   0000000.00                             000000000000000                                                                                                                                                   B101418  000000000000 0000000000001.88     02650 01000                  
