06608660461024326AD675906759000000133008001028000009071900016688140000002126106192023NYY17023ND6759800102062120232023170020370                                                                                                                                                                                                                                                                                                                                                                                                                                                                                                                                                                                              
06608670461024329AD675906759000000151648008888000009071900014892250000002487006192023NYY17023ND6759800888062120232023170020371                                                                                                                                                                                                                                                                                                                                                                                                                                                                                                                                                                                              
06608680461024332AD675906759000000142748001028000009071900011849290000001987006192023NYY17023ND6759800102062120232023170020372                                                                                                                                                                                                                                                                                                                                                                                                                                                                                                                                                                                              
06608690461024335AD675906759000000151648008888000009077900012345870000000695506192023NYY17023YC6759800888062120232023170030645                                                                                                                                                                                                                                                                                                                                                                                                                                                                                                                                                                                              
06608700461024338AD675906759000000133008001028000009071900016780510000001925006192023NYY17023ND6759800102062120232023170030361                                                                                                                                                                                                                                                                                                                                                                                                                                                                                                                                                                                              
06608710461024341AD675906759000000133008001028000009071900012321970000001925006192023NYY17023ND6759800102062120232023170030362                                                                                                                                                                                                                                                                                                                                                                                                                                                                                                                                                                                              
06608720461024344AD675906759000000151648008888000009077900013121610000000654806192023NYY17023YC6759800888062120232023170030689                                                                                                                                                                                                                                                                                                                                                                                                                                                                                                                                                                                              
06608730461024347AD675906759000000151648008888000009077900013121620000000519006192023NYY17023YC6759800888062120232023170030690                                                                                                                                                                                                                                                                                                                                                                                                                                                                                                                                                                                              
06608740461024353AD675906759000000151648008888000009077900012770440000001291506192023NYY17023YC6759800888062120232023144004074                                                                                                                                                                                                                                                                                                                                                                                                                                                                                                                                                                                              
06608750461402052AD675906759000000320118001368000009078123456789100000006845906202023NYY17123ND675980013606212023                                                                                                                                                                                                                                                                                                                                                                                                                                                                                                                                                                                                           
06608760462763991BH6759067590000001767380010680000090170620202317123000000000038178    0000090001692178N8001066759D06212023069                                                                                                                                                                                                                                                                                                                                                                                                                                                                                                                                                                                              
06608770462763992DT67590675900000017673800106800000010680010674001193171900016921778061620230000001638917123000000000038178483316XXXXXX7755               0000000   YYV4 07T383168130851491N840000000016389TVF785    01CNVGHEMP.COM833-246-5225   045481    VD84000000016389 NDR549977427364   9AB1C631D1TF7BC679A3732  000000000+                F DF 08168                     000000000  Y000000000 369   0000000000000.00 0000000.00   0000000.00                             000000000000000                                                                                                                                                     015WPE 000000016389 0000000000000.00     00000 00000                  
06608780462763992DR6759067590000001767380010680000001069AB1C631D1TF7BC679A3732  R000000016389                 P1                                                                                                                                                                                                                                                                                                                                                                                                                                                                                                                                                                                                            
06608790462760001P16759067590000001767380010680000001060000000000000000                             2000000000000000000000000              000000000000                    0000000000000000000000000                    000000000000                                                                                                                                                                                                                                                                                                                                                                                                                                                                                        
06608800462760002G2675906759000000176738001068000000106720-3077930              CA           9 D                00                                      NNNN   N                      000000000000                                                                   77427364                                                                                                                                                                                                                                                                                                                                                                                                                                               
06608810462763993DT67590675900000017673800106800000010680010674001193171900016921786061720230000002178917123000000000038178477888XXXXXX8420               0000000   YYV4 07T583168182149800N840000000021789CM3K00    01CNVGHEMP.COM833-246-5225   149800    VD84000000021789 NDR549977427364   855CA277ECT14B15CC11CEF  000000000+                F DF 08168                     000000000  N000000000 369   0000000000000.00 0000000.00   0000000.00                             000000000000000                                                                                                                                                     015WPE 000000021789 0000000000000.00     00000 00000                  
06608820462763993DR675906759000000176738001068000000106855CA277ECT14B15CC11CEF  U000000021789                 P1                                                                                                                                                                                                                                                                                                                                                                                                                                                                                                                                                                                                            
06608830462760001P16759067590000001767380010680000001060000000000000000                             2000000000000000000000000              000000000000                    0000000000000000000000000                    000000000000                                                                                                                                                                                                                                                                                                                                                                                                                                                                                        
06608840462760002G2675906759000000176738001068000000106720-3077930              CA           9 D                00                                      NNNN   N                      000000000000                                                                   77427364                                                                                                                                                                                                                                                                                                                                                                                                                                               
06608850462763996BH6759067590000002684980012580000090170620202317123000000000046677    0000090001676805N8001256759D06212023067                                                                                                                                                                                                                                                                                                                                                                                                                                                                                                                                                                                              
06608860462763997DT67590675900000026849800125800000010180012524001193171900016763969061720230000002477017123000000000046677401119XXXXXX0931               2111111   YYV4 A7W463165185791825N8400000000247706TH200    01DNCBD8885133385            020922    VD84000000024770 NDR599978220273   9D246C5796T14631B888993  000000000+                F DF 00415                     000000000  N000000000       0000000000000.00 0000000.00   0000000.00                             000000000000000                                                                                                                                                     015WPEG000000024770 0000000000004.24     01650 01500                  
06608870462763997DR6759067590000002684980012580000001019D246C5796T14631B888993  Y000000024770                 P1                                                                                                                                                                                                                                                                                                                                                                                                                                                                                                                                                                                                            
06608880462760001P16759067590000002684980012580000001010000000000000000                             2000000000000000000000000              000000000000                    0000000000000000000000000                    000000000000                                                                                                                                                                                                                                                                                                                                                                                                                                                                                        
06608890462760002G2675906759000000268498001258000000101888-5133385              WY           9 D                00                                      NNNN   N                      000000000000                                                                   78220273                                                                                                                                                                                                                                                                                                                                                                                                                                               
06608900462763998DT67590675900000026849800125800000010180012587287283171900016764026061720230000001977017123000000000046677559692XXXXXX5901                         YY 4607AMDBRSRG6A0614  N840000000019770          81DNCBD8885133385            665355    MD84000000019770 NDR599978220273   4E462FA145T77A177B9038C  000000000+600450S00130    MDB  00062                     000000000  N                0000000000000.00 0000000.00   0000000.00                             000000000000000                                                                                                                                                   U0015WPE 000000000000 0000000000005.34     02650 01000                  
06608910462763998DR6759067590000002684980012580000001014E462FA145T77A177B9038C  Y000000000000                 P1                                                                                                                                                                                                                                                                                                                                                                                                                                                                                                                                                                                                            
06608920462760001P1675906759000000268498001258000000101                                                          000000000000          8000            922897448                                                                                                                                                                                                                                                                                                                                                                                                                                                                                                                                                            
06608930462760002G26759067590000002684980012580000001018885133385               WY           9 B               210                  922897448           YNNN           210000000000000000000000000                                                                   78220273                                                                                                                                                                                                                                                                                                                                                                                                                                               
06608940462763999DT67590675900000026849800125800000010180012587287283171900016764034061720230000001977017123000000000046677514887XXXXXX9768       ME03KE06PT01      YY 4607AMCWSH106A0614  N840000000019770          81DNCBD8885133385            05063P    MC84000000019770 NDR599978220273   DD878D3C91TBB3C48D30D20  000000000+600450S00130    MCW  00642                     000000000  N                0000000000000.00 0000000.00   0000000.00                             000000000000000                                                                                                                                                   U0015WPE 000000000000 0000000000004.45     02200 01000                  
06608950462763999DR675906759000000268498001258000000101DD878D3C91TBB3C48D30D20  Y000000000000                                                                                                                                                                                                                                                                                                                                                                                                                                                                                                                                                                                                                               
06608960462760001G26759067590000002684980012580000001018885133385               WY           9 W               210                                      NNNN           210000000000000000000000000                        7                                          78220273                                                                                                                                                                                                                                                                                                                                                                                                                                               
06608970462764000DT67590675900000026849800125800000010180012524001193171900016764108061720230000001280317123000000000046677473702XXXXXX7344               2111111   YYV4 A7W303165508675683N840000000012803VZTX00    01DNCBD8885133385            098406    VD84000000012803 NDR599978220273   EE49D702E9T3E4ACE2EF5A7  000000000+                F DF 10420                     000000000  Y000000000 338   0000000000000.00 0000000.00   0000000.00                             000000000000000                                                                                                                                                     015WPEG000000012803 0000000000000.28     00050 02200                  
06608980462764000DR675906759000000268498001258000000101EE49D702E9T3E4ACE2EF5A7  Y000000012803                 P1                                                                                                                                                                                                                                                                                                                                                                                                                                                                                                                                                                                                            
06608990462760001P16759067590000002684980012580000001010000000000000000                             2000000000000000000000000              000000000000                    0000000000000000000000000                    000000000000                                                                                                                                                                                                                                                                                                                                                                                                                                                                                        
06609000462760002G2675906759000000268498001258000000101888-5133385              WY           9 D                00                                      NNNN   N                      000000000000                                                                   78220273                                                                                                                                                                                                                                                                                                                                                                                                                                               
06609010462764001DT67590675900000026849800125800000010180012524001193171900016764165061720230000001489217123000000000046677465108XXXXXX3162               2111111   YYV4 A7W383165544706596N840000000014892G64B00    01DNCBD8885133385            004557    VS84000000014892 NDR599978220273   345CD38A1AT6AA33C0FB909  000000000+                C CC 12108                     000000000  N000000000 496   0000000000000.00 0000000.00   0000000.00                             000000000000000                                                                                                                                                     015WPEG000000014892 0000000000003.15     02050 01000                  
06609020462764001DR675906759000000268498001258000000101345CD38A1AT6AA33C0FB909  Y000000014892                 P1                                                                                                                                                                                                                                                                                                                                                                                                                                                                                                                                                                                                            
06609030462760001P16759067590000002684980012580000001010000000000000000                             2000000000000000000000000              000000000000                    0000000000000000000000000                    000000000000                                                                                                                                                                                                                                                                                                                                                                                                                                                                                        
06609040462760002G2675906759000000268498001258000000101888-5133385              WY           9 C                00                                      NNNN   Y                      000000000000                                                                   78220273                                                                                                                                                                                                                                                                                                                                                                                                                                               
06609050462764002DT67590675900000026849800125800000010180012524001193171900016764199061720230000001489217123000000000046677446542XXXXXX6690               2111111   YYV4 A7W583165580824749N840000000014892F3F200    01DNCBD8885133385            014060    VS84000000014892 NDR599978220273   08C3C6F4B9TE6A4812937DE  000000000+                D CD 12109                     000000000  N000000000 498   0000000000000.00 0000000.00   0000000.00                             000000000000000                                                                                                                                                     015WPEG000000014892 0000000000003.82     02500 01000                  
06609060462764002DR67590675900000026849800125800000010108C3C6F4B9TE6A4812937DE  Y000000014892                 P1                                                                                                                                                                                                                                                                                                                                                                                                                                                                                                                                                                                                            
06609070462760001P16759067590000002684980012580000001010000000000000000                             2000000000000000000000000              000000000000                    0000000000000000000000000                    000000000000                                                                                                                                                                                                                                                                                                                                                                                                                                                                                        
06609080462760002G2675906759000000268498001258000000101888-5133385              WY           9 C                00                                      NNNN   Y                      000000000000                                                                   78220273                                                                                                                                                                                                                                                                                                                                                                                                                                               
06609090462764003DT67590675900000026849800125800000010180012524001193171900016764215061720230000001280317123000000000046677414720XXXXXX2746               2111111   YYV4 A7W383165580885322N840000000012803J4BP00    01DNCBD8885133385            04247D    VS84000000012803 NDR599978220273   018B195955TC2FF63E311DB  000000000+                D CD 12109                     000000000  N000000000 498   0000000000000.00 0000000.00   0000000.00                             000000000000000                                                                                                                                                     015WPEG000000012803 0000000000003.30     02500 01000                  
06609100462764003DR675906759000000268498001258000000101018B195955TC2FF63E311DB  Y000000012803                 P1                                                                                                                                                                                                                                                                                                                                                                                                                                                                                                                                                                                                            
06609110462760001P16759067590000002684980012580000001010000000000000000                             2000000000000000000000000              000000000000                    0000000000000000000000000                    000000000000                                                                                                                                                                                                                                                                                                                                                                                                                                                                                        
06609120462760002G2675906759000000268498001258000000101888-5133385              WY           9 C                00                                      NNNN   Y                      000000000000                                                                   78220273                                                                                                                                                                                                                                                                                                                                                                                                                                               
06609130462764004DT67590675900000026849800125800000010680012587287283171900016766500061820230000000988517123000000000046677542418XXXXXX7607                         YY 4607AMPLM6SSNP0618  N840000000009885          81CNCBD8885133385            914592    MC84000000009885 NDR599978220273   CD3E7E77B2T7DF5DABCB415  000000000+600450S00130    MPL  00564                     000000000  N                0000000000000.00 0000000.00   0000000.00                             000000000000000                                                                                                                                                     015WPE 000000000000-0000000000001.73     01750 00000                  
06609140462764004DR675906759000000268498001258000000106CD3E7E77B2T7DF5DABCB415  U000000000000                                                                                                                                                                                                                                                                                                                                                                                                                                                                                                                                                                                                                               
06609150462760001G26759067590000002684980012580000001068885133385               WY           9 L               210                                      NNNN           210000000000000000000000000                        7                                          78220273                                                                                                                                                                                                                                                                                                                                                                                                                                               
06609160462764005DT67590675900000026849800125800000010680012587287283171900016766518061820230000001489217123000000000046677542418XXXXXX2702                         YY 4607AMPLF3RCCG0618  N840000000014892          81CNCBD8885133385            286769    MC84000000014892 NDR599978220273   04C28A9899T20DB75B985BC  000000000+600450S00130    MPL  00564                     000000000  N                0000000000000.00 0000000.00   0000000.00                             000000000000000                                                                                                                                                     015WPE 000000000000-0000000000002.61     01750 00000                  
06609170462764005DR67590675900000026849800125800000010604C28A9899T20DB75B985BC  U000000000000                                                                                                                                                                                                                                                                                                                                                                                                                                                                                                                                                                                                                               
06609180462760001G26759067590000002684980012580000001068885133385               WY           9 L               210                                      NNNN           210000000000000000000000000                        7                                          78220273                                                                                                                                                                                                                                                                                                                                                                                                                                               
06609190462764006DT67590675900000026849800125800000010680012587287283171900016766526061820230000000979817123000000000046677542418XXXXXX2702                         YY 4607AMPLF3RICG0618  N840000000009798          81CNCBD8885133385            293302    MC84000000009798 NDR599978220273   04C28A9899T5CE0D37112BC  000000000+600450S00130    MPL  00564                     000000000  N                0000000000000.00 0000000.00   0000000.00                             000000000000000                                                                                                                                                     015WPE 000000000000-0000000000001.71     01750 00000                  
06609200462764006DR67590675900000026849800125800000010604C28A9899T5CE0D37112BC  U000000000000                                                                                                                                                                                                                                                                                                                                                                                                                                                                                                                                                                                                                               
06609210462760001G26759067590000002684980012580000001068885133385               WY           9 L               210                                      NNNN           210000000000000000000000000                        7                                          78220273                                                                                                                                                                                                                                                                                                                                                                                                                                               
06609220462764007DT67590675900000026849800125800000010680012574001193171900016766538061820230000002078517123000000000046677410040XXXXXX4252               0000000   YYV4 07T303169356005879N840000000020785LFVV00    01CNCBD8885133385            30664G    VB84000000020785 NDR599978220273   F611596328TBEC27C36DAEF  000000000+                G CG 00246                     000000000  N000000000 167   0000000000000.00 0000000.00   0000000.00                             000000000000000                                                                                                                                                     015WPE 000000020785-0000000000004.88     02350 00000                  
06609230462764007DR675906759000000268498001258000000106F611596328TBEC27C36DAEF  U000000020785                 P1                                                                                                                                                                                                                                                                                                                                                                                                                                                                                                                                                                                                            
06609240462760001P16759067590000002684980012580000001060000000000000000                             2000000000000000000000000              000000000000                    0000000000000000000000000                    000000000000                                                                                                                                                                                                                                                                                                                                                                                                                                                                                        
06609250462760002G2675906759000000268498001258000000106888-5133385              WY           9 C                00                                      NNNN   Y                      000000000000                                                                   78220273                                                                                                                                                                                                                                                                                                                                                                                                                                               
06609260462764008DT67590675900000026849800125800000010680012574001193171900016766546061820230000001480317123000000000046677410039XXXXXX9469               0000000   YYV4 07T463169356067095N840000000014803T5ML00    01CNCBD8885133385            31748A    VS84000000014803 NDR599978220273   9472AA91FDTC889F07AD73C  000000000+                A CA 00245                     000000000  N000000000 166   0000000000000.00 0000000.00   0000000.00                             000000000000000                                                                                                                                                     015WPE 000000014803-0000000000002.61     01760 00000                  
06609270462764008DR6759067590000002684980012580000001069472AA91FDTC889F07AD73C  U000000014803                 P1                                                                                                                                                                                                                                                                                                                                                                                                                                                                                                                                                                                                            
06609280462760001P16759067590000002684980012580000001060000000000000000                             2000000000000000000000000              000000000000                    0000000000000000000000000                    000000000000                                                                                                                                                                                                                                                                                                                                                                                                                                                                                        
06609290462760002G2675906759000000268498001258000000106888-5133385              WY           9 C                00                                      NNNN   Y                      000000000000                                                                   78220273                                                                                                                                                                                                                                                                                                                                                                                                                                               
06609300462764009DT67590675900000026849800125800000010680012574001193171900016766553061820230000002477017123000000000046677409451XXXXXX0024               0000000   YYV4 07T463169356134675N840000000024770F96K00    01CNCBD8885133385            408135    VS84000000024770 NDR599978220273   A91B86B4DFT1C68545DD02E  000000000+                D CD 00245                     000000000  N000000000 166   0000000000000.00 0000000.00   0000000.00                             000000000000000                                                                                                                                                     015WPE 000000024770-0000000000004.36     01760 00000                  
06609310462764009DR675906759000000268498001258000000106A91B86B4DFT1C68545DD02E  Y000000024770                 P1                                                                                                                                                                                                                                                                                                                                                                                                                                                                                                                                                                                                            
06609320462760001P16759067590000002684980012580000001060000000000000000                             2000000000000000000000000              000000000000                    0000000000000000000000000                    000000000000                                                                                                                                                                                                                                                                                                                                                                                                                                                                                        
06609330462760002G2675906759000000268498001258000000106888-5133385              WY           9 C                00                                      NNNN   Y                      000000000000                                                                   78220273                                                                                                                                                                                                                                                                                                                                                                                                                                               
06609340462764010DT67590675900000026849800125800000010680012587287283171900016766567061820230000000129517123000000000046677521333XXXXXX7550                         YY 4607AMPLF3TUCG0618  N840000000001295          81CNCBD8885133385            018884    MC84000000001295 NDR599978220273   E6B4552C27T23BD636EE5B4  000000000+600450S00130    MPL  00564                     000000000  N                0000000000000.00 0000000.00   0000000.00                             000000000000000                                                                                                                                                     015WPE 000000000000-0000000000000.23     01750 00000                  
06609350462764010DR675906759000000268498001258000000106E6B4552C27T23BD636EE5B4  R000000000000                                                                                                                                                                                                                                                                                                                                                                                                                                                                                                                                                                                                                               
06609360462760001G26759067590000002684980012580000001068885133385               WY           9 L               210                                      NNNN           210000000000000000000000000                        7                                          78220273                                                                                                                                                                                                                                                                                                                                                                                                                                               
06609370462764011DT67590675900000026849800125800000010680012587287283171900016766575061820230000000129517123000000000046677521333XXXXXX7550                         YY 4607AMPLX6V0NP0618  N840000000001295          81CNCBD8885133385            018890    MC84000000001295 NDR599978220273   E6B4552C27T23BD636EE5B4  000000000+600450S00130    MPL  00564                     000000000  N                0000000000000.00 0000000.00   0000000.00                             000000000000000                                                                                                                                                     015WPE 000000000000-0000000000000.23     01750 00000                  
06609380462764011DR675906759000000268498001258000000106E6B4552C27T23BD636EE5B4  R000000000000                                                                                                                                                                                                                                                                                                                                                                                                                                                                                                                                                                                                                               
06609390462760001G26759067590000002684980012580000001068885133385               WY           9 L               210                                      NNNN           210000000000000000000000000                        7                                          78220273                                                                                                                                                                                                                                                                                                                                                                                                                                               
06609400462764012DT67590675900000026849800125800000010680012587287283171900016766583061820230000000129517123000000000046677521333XXXXXX7550                         YY 4607AMPLQ64RNO0618  N840000000001295          81CNCBD8885133385            018834    MC84000000001295 NDR599978220273   E6B4552C27T23BD636EE5B4  000000000+600450S00130    MPL  00564                     000000000  N                0000000000000.00 0000000.00   0000000.00                             000000000000000                                                                                                                                                     015WPE 000000000000-0000000000000.23     01750 00000                  
06609410462764012DR675906759000000268498001258000000106E6B4552C27T23BD636EE5B4  R000000000000                                                                                                                                                                                                                                                                                                                                                                                                                                                                                                                                                                                                                               
06609420462760001G26759067590000002684980012580000001068885133385               WY           9 L               210                                      NNNN           210000000000000000000000000                        7                                          78220273                                                                                                                                                                                                                                                                                                                                                                                                                                               
06609430462764013DT67590675900000026849800125800000010680012587287283171900016766591061820230000000129517123000000000046677521333XXXXXX7550                         YY 4607AMPLE3R9NR0618  N840000000001295          81CNCBD8885133385            018902    MC84000000001295 NDR599978220273   E6B4552C27T23BD636EE5B4  000000000+600450S00130    MPL  00564                     000000000  N                0000000000000.00 0000000.00   0000000.00                             000000000000000                                                                                                                                                     015WPE 000000000000-0000000000000.23     01750 00000                  
06609440462764013DR675906759000000268498001258000000106E6B4552C27T23BD636EE5B4  R000000000000                                                                                                                                                                                                                                                                                                                                                                                                                                                                                                                                                                                                                               
06609450462760001G26759067590000002684980012580000001068885133385               WY           9 L               210                                      NNNN           210000000000000000000000000                        7                                          78220273                                                                                                                                                                                                                                                                                                                                                                                                                                               
06609460462764014DT67590675900000026849800125800000010680012587287283171900016766609061820230000002245017123000000000046677545210XXXXXX3638                         YY 4607AMWEFB0HNR0618  N840000000022450          81CNCBD8885133385            045637    MC84000000022450 NDR599978220273   0CE68B040DT05013EB47092  000000000+600450S00130    MWE  00564                     000000000  N                0000000000000.00 0000000.00   0000000.00                             000000000000000                                                                                                                                                     015WPE 000000000000-0000000000003.93     01750 00000                  
06609470462764014DR6759067590000002684980012580000001060CE68B040DT05013EB47092  Y000000000000                                                                                                                                                                                                                                                                                                                                                                                                                                                                                                                                                                                                                               
06609480462760001G26759067590000002684980012580000001068885133385               WY           9 E               210                                      NNNN           210000000000000000000000000                        7                                          78220273                                                                                                                                                                                                                                                                                                                                                                                                                                               
06609490462764015DT67590675900000026849800125800000010680012587287283171900016766674061820230000000415217123000000000046677521333XXXXXX5125                         YY 4607AMPLRXGHNO0618  N840000000004152          81CNCBD8885133385            018569    MC84000000004152 NDR599978220273   86BF80BA38TA64DB26CF09A  000000000+600450S00130    MPL  00564                     000000000  N                0000000000000.00 0000000.00   0000000.00                             000000000000000                                                                                                                                                     015WPE 000000000000-0000000000000.73     01750 00000                  
06609500462764015DR67590675900000026849800125800000010686BF80BA38TA64DB26CF09A  R000000000000                                                                                                                                                                                                                                                                                                                                                                                                                                                                                                                                                                                                                               
06609510462760001G26759067590000002684980012580000001068885133385               WY           9 L               210                                      NNNN           210000000000000000000000000                        7                                          78220273                                                                                                                                                                                                                                                                                                                                                                                                                                               
06609520462764016DT67590675900000026849800125800000010680012574001193171900016767932061820230000001489217123000000000046677446542XXXXXX8643               0000000   YYV4 07T583169763255575N840000000014892425K00    01CNCBD8885133385            018198    VS84000000014892 NDR599978220273   468AA478CET96FA7D0B3152  000000000+                D CD 00245                     000000000  N000000000 166   0000000000000.00 0000000.00   0000000.00                             000000000000000                                                                                                                                                     015WPE 000000014892-0000000000002.62     01760 00000                  
06609530462764016DR675906759000000268498001258000000106468AA478CET96FA7D0B3152  U000000014892                 P1                                                                                                                                                                                                                                                                                                                                                                                                                                                                                                                                                                                                            
06609540462760001P16759067590000002684980012580000001060000000000000000                             2000000000000000000000000              000000000000                    0000000000000000000000000                    000000000000                                                                                                                                                                                                                                                                                                                                                                                                                                                                                        
06609550462760002G2675906759000000268498001258000000106888-5133385              WY           9 C                00                                      NNNN   Y                      000000000000                                                                   78220273                                                                                                                                                                                                                                                                                                                                                                                                                                               
06609560462764017DT67590675900000026849800125800000010680012574001193171900016768054061820230000002477017123000000000046677423747XXXXXX0803               0000000   YYV4 07T463170003424793N840000000024770KS8J00    01CNCBD8885133385            004395    VS84000000024770 NDR599978220273   B281FFC24DT749B0EE5FB55  000000000+                A CA 00245                     000000000  N000000000 166   0000000000000.00 0000000.00   0000000.00                             000000000000000                                                                                                                                                     015WPE 000000024770-0000000000004.36     01760 00000                  
06609570462764017DR675906759000000268498001258000000106B281FFC24DT749B0EE5FB55  U000000024770                 P1                                                                                                                                                                                                                                                                                                                                                                                                                                                                                                                                                                                                            
06609580462760001P16759067590000002684980012580000001060000000000000000                             2000000000000000000000000              000000000000                    0000000000000000000000000                    000000000000                                                                                                                                                                                                                                                                                                                                                                                                                                                                                        
06609590462760002G2675906759000000268498001258000000106888-5133385              WY           9 C                00                                      NNNN   N                      000000000000                                                                   78220273                                                                                                                                                                                                                                                                                                                                                                                                                                               
06609600462764020BH6759067590000001982880010980000090170620202317123000000000019870    0000090001850354N8001096759D06212023085                                                                                                                                                                                                                                                                                                                                                                                                                                                                                                                                                                                              
06609610462764021DT67590675900000019828800109800000010680010987287283171900018503547061920230000001987017123000000000019870552486XXXXXX5470                         YY 4607AMWEXQCALQ0619  N840000000019870          81CNKETOFUSION 8885968154    061588    MC84000000019870 NDR599977547467   CCDDB1E43AT996D283AFD9E  000000000+600450S00130    MWE  00564                     000000000  N                0000000000000.00 0000000.00   0000000.00                             000000000000000                                                                                                                                                     015WPE 000000000000-0000000000003.48     01750 00000                  
06609620462764021DR675906759000000198288001098000000106CCDDB1E43AT996D283AFD9E  Y000000000000                                                                                                                                                                                                                                                                                                                                                                                                                                                                                                                                                                                                                               
06609630462760001G26759067590000001982880010980000001068885968154               UT           9 E               210                                      NNNN           210000000000000000000000000                        7                                          77547467                                                                                                                                                                                                                                                                                                                                                                                                                                               
06609640462764024BH6759067590000002325980011680000090170620202317123000000000021789    0000090001712328N8001166759D06212023071                                                                                                                                                                                                                                                                                                                                                                                                                                                                                                                                                                                              
06609650462764025DT67590675900000023259800116800000010680011674001193171900017123283061920230000002178917123000000000021789407359XXXXXX7720               0000000   YYV4 07T383170519727087N840000000021789S9KP00    01CNGFORCEHEMP844-258-9322   005610    VD84000000021789 NDR549977768166   2D5232F1CBTF762A02DB954  000000000+                F DF 08168                     000000000  N000000000 369   0000000000000.00 0000000.00   0000000.00                             000000000000000                                                                                                                                                     015WPE 000000021789 0000000000000.00     00000 00000                  
06609660462764025DR6759067590000002325980011680000001062D5232F1CBTF762A02DB954  U000000021789                 P1                                                                                                                                                                                                                                                                                                                                                                                                                                                                                                                                                                                                            
06609670462760001P16759067590000002325980011680000001060000000000000000                             2000000000000000000000000              000000000000                    0000000000000000000000000                    000000000000                                                                                                                                                                                                                                                                                                                                                                                                                                                                                        
06609680462760002G2675906759000000232598001168000000106844-2589322              CA           9 D                00                                      NNNN   N                      000000000000                                                                   77768166                                                                                                                                                                                                                                                                                                                                                                                                                                               
06609690462764028BH6759067590000001767380010680000090170620202317123000000000043004    0000090001702186N8001066759D06212023070                                                                                                                                                                                                                                                                                                                                                                                                                                                                                                                                                                                              
06609700462764029DT67590675900000017673800106800000010680010687287283171900017021848061920230000001638917123000000000043004512106XXXXXX4554                         YY 4607AMPLXO8ILN0619  N840000000016389          81CNVGHEMP.COM833-246-5225   019031    MC84000000016389 NDR549977427364   7D279FA7BDTA94D764EB068  000000000+600450S00130    MPL  00565                     000000000  N                0000000000000.00 0000000.00   0000000.00                             000000000000000                                                                                                                                                     015WPE 000000000000-0000000000002.87     01750 00000                  
06609710462764029DR6759067590000001767380010680000001067D279FA7BDTA94D764EB068  R000000000000                                                                                                                                                                                                                                                                                                                                                                                                                                                                                                                                                                                                                               
06609720462760001G26759067590000001767380010680000001067203077930               CA           9 L               210                                      NNNN           210000000000000000000000000                        7                                          77427364                                                                                                                                                                                                                                                                                                                                                                                                                                               
06609730462764030DT67590675900000017673800106800000010680010687287283171900017021855061920230000001278917123000000000043004512106XXXXXX4554                         YY 4607AMPLVLGMLQ0619  N840000000012789          81CNVGHEMP.COM833-246-5225   019639    MC84000000012789 NDR549977427364   8D81349A73TA064B0E79633  000000000+600450S00130    MPL  00565                     000000000  N                0000000000000.00 0000000.00   0000000.00                             000000000000000                                                                                                                                                     015WPE 000000000000-0000000000002.24     01750 00000                  
06609740462764030DR6759067590000001767380010680000001068D81349A73TA064B0E79633  R000000000000                                                                                                                                                                                                                                                                                                                                                                                                                                                                                                                                                                                                                               
06609750462760001G26759067590000001767380010680000001067203077930               CA           9 L               210                                      NNNN           210000000000000000000000000                        7                                          77427364                                                                                                                                                                                                                                                                                                                                                                                                                                               
06609760462764031DT67590675900000017673800106800000010680010687287283171900017021863061920230000001382617123000000000043004539640XXXXXX4351                         YY 4607AMCCXQU4LN0619  N840000000013826          81CNVGHEMP.COM833-246-5225   398502    MC84000000013826 NDR549977427364   69CADE6C3BT655AAF001A5E  000000000+600450S00130    MCC  00565                     000000000  N                0000000000000.00 0000000.00   0000000.00                             000000000000000                                                                                                                                                     015WPE 000000000000-0000000000002.42     01750 00000                  
06609770462764031DR67590675900000017673800106800000010669CADE6C3BT655AAF001A5E  U000000000000                                                                                                                                                                                                                                                                                                                                                                                                                                                                                                                                                                                                                               
06609780462760001G26759067590000001767380010680000001067203077930               CA           9 C               210                                      NNNN           210000000000000000000000000                        7                                          77427364                                                                                                                                                                                                                                                                                                                                                                                                                                               
06609790462764034BH6759067590000003008080013280000090170620202317123000000000002684    0000090001060153N8001326759D06212023006                                                                                                                                                                                                                                                                                                                                                                                                                                                                                                                                                                                              
06609800462764035DT67590675900000030080800132800000010680013287287283171900010601539061920230000000268417123000000000002684517805XXXXXX5501                         YY 4607AMPLKWAE6B0619  N840000000002684          81CNCBD18882414921           015584    MC84000000002684 NDR549978391202   04FC4CBA66T607CDE11B5A5  000000000+600450S00130    MPL  00565                     000000000  N                0000000000000.00 0000000.00   0000000.00                             000000000000000                                                                                                                                                     015WPE 000000000000-0000000000000.47     01750 00000                  
06609810462764035DR67590675900000030080800132800000010604FC4CBA66T607CDE11B5A5  Y000000000000                                                                                                                                                                                                                                                                                                                                                                                                                                                                                                                                                                                                                               
06609820462760001G26759067590000003008080013280000001068445754156               CA           9 L               210                                      NNNN           210000000000000000000000000                        7                                          78391202                                                                                                                                                                                                                                                                                                                                                                                                                                               
06609830463470002BH6759067590000001107280010180000090170620202317123000000000002318    0000090001840002N8001016759C06212023084                                                                                                                                                                                                                                                                                                                                                                                                                                                                                                                                                                                              
06609840463470003DT67590675900000011072800101800000010180010124001193171900018400016061920230000000166317123000000000002318430602XXXXXX8236       VS11    0001111   NYV1 A E383170612834605N840000000001663T8WB00    07DNPLANET VAPOR INC #1000   478783    VD84000000001663 N  599977385027                            000000000+                F DF 00381                     000000000  N000000000       0000000000000.00 0000000.00   0000000.00                             000000000000000                                                                                                                                                     01418 A000000000000 0000000000000.28     00800 01500                  
06609850463470001E167590675900000011072800101800000010100E068C8037A 00000000000.004040404040404040404040404040404040404040404040404006011203A00000000000000000000000404040404040404040404040404040  00000840200000000000002306197025D77D9338C318D1AE664D404040400840A000000003101000000000000000000034979C140382000000000000000000004040404040404040 000000016.63 000000000.004040400000000000000000    80                                                                                                                                                                                                                                                                                                                  
06609860463470002G2675906759000000110728001018000000101WINNSBORO                SC           5 D                00                                      NNNN00 N 00                   000000000000                                                                   77385027                                                                                                                                                                                                                                                                                                                                                                                                                                               
06609870463470004DT67590675900000011072800101800000010180010124001193171900018400024061920230000000065517123000000000002318440393XXXXXX6686       VK04VS111111111   NYV1 A E463170733931464N8400000000006555P7600    05DNPLANET VAPOR INC #1000   380707    VD84000000000655 N  599977385027                            000000000+                F PF 08165                     000000000  N000000000       0000000000000.00 0000000.00   0000000.00                             000000000000000                                                                                                                                                     01418 F000000000000 0000000000000.15     01600 00500                  
06609880463470001E167590675900000011072800101800000010100E0F8C804A0 00000000000.004040404040404040404040404040404040404040404040404006011203A08000000000000000000000404040404040404040404040404040  00000840180080800080002306191CF4E2047490F43D04174221404040400840A0000000031010000000000000000000C828EF86E51AAD0B30300000000000004040401E40404040 000000006.55 000000000.001E00000000000000000000    80                                                                                                                                                                                                                                                                                                                  
06609890463470002G2675906759000000110728001018000000101WINNSBORO                SC           5 P                00                                      NNNN00 N 00                   000000000000                                                                   77385027                                                                                                                                                                                                                                                                                                                                                                                                                                               
06609900463470005BH6759067590000003377980013880000090170620202317123000000000038189    0000090001010023N8001386759C06212023001                                                                                                                                                                                                                                                                                                                                                                                                                                                                                                                                                                                              
06609910463470006DT67590675900000033779800138800000010180013824001193171900010100010060620230000000005317123000000000038189440066XXXXXX2705       PS02VK040111111   NYV1 0 N463157711076191N840000000000053WFMC00    07DNSLOW PUFFS LLC           04147D    VS84000000000053 N  599378415682                            000000000+                D CD 11868                     000000000  N000000010 105   0000000000000.00 0000000.00   0000000.00                             000000000000000                                                                                                                                                     01418  000000000000 0000000000000.12     03150 01000                  
06609920463470001E167590675900000033779800138800000010100E068C80045 00000000000.004040404040404040404040404040404040404040404040404006011203A00000000000000000000000404040404040404040404040404040  0001084020000000000000230606FBBEC7B2D3D0C2FC87E4227F404040400840A0000000031010000000000000000000404040404040404040404040404040404040404040404040 000000000.53 000000000.004040400000000000000000    80                                                                                                                                                                                                                                                                                                                  
06609930463470002G2675906759000000337798001388000000101HAMDEN                   CT           5 C                00                                      NNNN00 Y 00                   000000000000                                                                   78415682                                                                                                                                                                                                                                                                                                                                                                                                                                               
06609940463470007DT67590675900000033779800138800000010180013877287283171900010100020060820230000000031817123000000000038189545965XXXXXX2736       ME01KE01M101      NY 1 0 AMDJPGYLXX0608  N840000000000318          05DNSLOW PUFFS LLC           914726    MD84000000000318 N  599378415682                            000000000+M10101C5434C    MDJ  00397                     000000000  N                0000000000000.00 0000000.00   0000000.00                             000000000000000                                                                                                                                                   B101418  000000000000 0000000000000.31     01900 02500                  
06609950463470001E167590675900000033779800138800000010100E0F8C800ED 00000000000.00404040404040404040404040404040404040404040404040400110A00001220000000000000000000000FF00000000000000000000000000  000008401800800000800023060814A9E368A48988FF50E0E869404040400840A00000000410100000000000000000009DBEF15BB838DF0903120000000000004040401E40404040 000000003.18 000000000.001E03000000000000000000    80                                                                                                                                                                                                                                                                                                                  
06609960463470002G2675906759000000337798001388000000101HAMDEN                   CT           5 J                                                        NNNN              000000000000000000000000                        7                                          78415682                                                                                                                                                                                                                                                                                                                                                                                                                                               
06609970463470008DT67590675900000033779800138800000010180013824001193171900010100036061220230000000318917123000000000038189448233XXXXXX1104       PS02VK040111111   NYV1 0 E583163516260099N840000000003189MDKP00    05DNSLOW PUFFS LLC           092027    VD84000000003189 N  599378415682                            000000000+                F DF 10440                     000000000  Y000000010 338   0000000000000.00 0000000.00   0000000.00                             000000000000000                                                                                                                                                     01418 A000000000000 0000000000000.24     00050 02200                  
06609980463470001E167590675900000033779800138800000010100E0F8C80051 00000000000.004040404040404040404040404040404040404040404040404006011203A02000000000000000000000404040404040404040404040404040  0000084018008080008000230612DF1AF7BE1791C1242D7693CE404040400840A000000003101000000000000000000055CB5A860080000000000000000000004040401E40404040 000000031.89 000000000.001E00000000000000000000    80                                                                                                                                                                                                                                                                                                                  
06609990463470002G2675906759000000337798001388000000101HAMDEN                   CT           5 D                00                                      NNNN00 N 00                   000000000000                                                                   78415682                                                                                                                                                                                                                                                                                                                                                                                                                                               
06610000463470009DT67590675900000033779800138800000010180013824001193171900010100044061220230000000265817123000000000038189411776XXXXXX8952       PS02VK040111111   NYV1 0 E303163644405122N840000000002658LK5800    07DNSLOW PUFFS LLC           125730    VD84000000002658 N  599378415682                            000000000+                F DF 10440                     000000000  Y000000010 338   0000000000000.00 0000000.00   0000000.00                             000000000000000                                                                                                                                                     01418 A000000000000 0000000000000.23     00050 02200                  
06610010463470001E167590675900000033779800138800000010100E068C802BC 00000000000.004040404040404040404040404040404040404040404040404006011203A00000000000000000000000404040404040404040404040404040  0000084020000000000000230612C7AF196B96FD84A92247A627404040400840A0000000031010000000000000000000404040404040404040404040404040404040404040404040 000000026.58 000000000.004040400000000000000000    80                                                                                                                                                                                                                                                                                                                  
06610020463470002G2675906759000000337798001388000000101HAMDEN                   CT           5 D                00                                      NNNN00 N 00                   000000000000                                                                   78415682                                                                                                                                                                                                                                                                                                                                                                                                                                               
06610030463470010DT67590675900000033779800138800000010180013824001193171900010100051061220230000000265817123000000000038189465214XXXXXX5207       PS02VK040111111   NYV1 0 E303163696060581N840000000002658B48Z00    07DNSLOW PUFFS LLC           062015    VD84000000002658 N  599378415682                            000000000+                F DF 10440                     000000000  Y000000010 338   0000000000000.00 0000000.00   0000000.00                             000000000000000                                                                                                                                                     01418 A000000000000 0000000000000.23     00050 02200                  
06610040463470001E167590675900000033779800138800000010100E068C80090 00000000000.00404040404040404040404040404040404040404040404040401F4A0132A00000000010030273000000004000000000000000000000000000  00000840004000000000002306122A25182A7161008A555828E1404040400840A0000000031010000000000000000000C4BB05537BC7B2C430300000000000004040404040404040 000000026.58 000000000.004040400000000000000000    80                                                                                                                                                                                                                                                                                                                  
06610050463470002G2675906759000000337798001388000000101HAMDEN                   CT           5 D                00                                      NNNN00 N 00                   000000000000                                                                   78415682                                                                                                                                                                                                                                                                                                                                                                                                                                               
06610060463470011DT67590675900000033779800138800000010180013824001193171900010100069061220230000000127417123000000000038189425836XXXXXX7101       PS02VK040111111   NYV1 0 E303163752364577N840000000001274FMF300    07DNSLOW PUFFS LLC           099070    VD84000000001274 N  599378415682                            000000000+                F DF 10440                     000000000  Y000000010 338   0000000000000.00 0000000.00   0000000.00                             000000000000000                                                                                                                                                     01418 A000000000000 0000000000000.23     00050 02200                  
06610070463470001E167590675900000033779800138800000010100E068C8010B 00000000000.004040404040404040404040404040404040404040404040404006011203A00000000000000000000000404040404040404040404040404040  00000840200000000000002306122FBAE4C9EDCE75ABB776FA8F404040400840A0000000031010000000000000000000EF3F01A50086000000000000000000004040404040404040 000000012.74 000000000.004040400000000000000000    80                                                                                                                                                                                                                                                                                                                  
