02096210023200002BH6759067590000000215480088880000090171201202233522000000002427218    0000090001519018N8008886759C12022022                                                                                                                                                                                                                                                                                                                                                                                                                                                                                                                                                                                                 
02096220023200003DT67590675900000002154800888800000010180088824001192335900015153423120120220000002250033522000000002427218424631XXXXXX8295               2111111   NYV4 A7W302335579805769N840000000022500G62L00    01DNDRIP DROP DISTRO LLC     08613G    VB84000000022500 NP1519971004114   INV-27576                000000000+                G3CG308002                     000000000  N000000000 381   0000000000000.00 0000000.00   0000000.00                             000000000000000                                                                                                                                                     01418 G000000022500 0000000000006.40     02800 01000                  
02096230023200001P16759067590000000215480088880000001010000000000000000    43794905438              2000000000000000000000000              000000000000                    0000000000000000000000000                    000000000000                                                                                                                                                                                                                                                                                                                                                                                                                                                                                        
02096240023200004DT67590675900000002154800888800000010180088824001192335900015136691120120220000188823833522000000002427218415417XXXXXX8332               2111111   NYV4 A7W382335695468250N840000001888238K33M00    01DNDRIP DROP DISTRO LLC     07193G    VB84000001888238 NP1519971004114   INV-27614                000000000+                G5CG511887                     000000000  N000000000 163   0000000000000.00 0000000.00   0000000.00                             000000000000000                                                                                                                                                     01418 G000001888238 0000000000566.57     03000 01000                  
02096250023200001P16759067590000000215480088880000001010000000000000000    43795542809              2000000000000000000000000              000000000000                    0000000000000000000000000                    000000000000                                                                                                                                                                                                                                                                                                                                                                                                                                                                                        
02096260023200005DT67590675900000002154800888800000010180088824001192335900015190185120120220000051648033522000000002427218486697XXXXXX8448               2111111   NYV4 A7W582335644251186N840000000516480K72D00    01DNDRIP DROP DISTRO LLC     001431    VB84000000516480 NP1519971004114   INV-27608                000000000+                S CS 00692                     000000000  N000000000 237   0000000000000.00 0000000.00   0000000.00                             000000000000000                                                                                                                                                     01418 G000000516480 0000000000139.55     02700 01000                  
02096270023200001P16759067590000000215480088880000001010000000000000000    43795271917              2000000000000000000000000              000000000000                    0000000000000000000000000                    000000000000                                                                                                                                                                                                                                                                                                                                                                                                                                                                                        
