01717900454750002BH6759067590000000215480088880000090171220202235422000000000020400    0000090001633988N8008886759C12212022                                                                                                                                                                                                                                                                                                                                                                                                                                                                                                                                                                                                 
01717910454750003DT67590675900000002154800888800000010180088887287282354900016339887122020220000002040035422000000000020400543840XXXXXX6093                         NY 4607AMDBTTV0P41220  N840000000020400          81DNDRIP DROP DISTRO LLC     006577    MD84000000020400 NP1519900000001   INV-27911                000000000+600450S00140    MDB  00062                     000000000  N                0000000000000.00 0000000.00   0000000.00                             000000000000000                                                                                                                                                   U001418  000000000000 0000000000005.51     02650 01000                  
01717920454750001P1675906759000000021548008888000000101                                                          000000000000          8000            471534935                                                                                                                                                                                                                                                                                                                                                                                                                                                                                                                                                            
01717930454750004BH6759067590000000096880088880000090171220202235422000000000036885    0000090001106830N8008886759C12212022                                                                                                                                                                                                                                                                                                                                                                                                                                                                                                                                                                                                 
01717940454750005DT67590675900000000968800888800000010180088824001192354900011068308122020220000003688535422000000000036885440066XXXXXX9353               2111111   NYV4 A7W382354079230920N8400000000368853L6200    01DNHIGHER FLOUR LLC         00460D    VS84000000036885 NP1546271004114   RS2KVZQ2JCHTUSOQ9ISY     000000000+                D CD 12109                     000000000  N000000000 498   0000000000000.00 0000000.00   0000000.00                             000000000000000                                                                                                                                                     01418 G000000036885 0000000000009.32     02500 01000                  
01717950454750001P16759067590000000096880088880000001010000000000000000                             2000000000000000000000000              000000000000                    0000000000000000000000000                    000000000000                                                                                                                                                                                                                                                                                                                                                                                                                                                                                        
