10131330323462375AD675906759000000151648008888000009071900010280470000001987007132023NYY19423ND6759800888071620232023194025350                                                                                                                                                                                                                                                                                                                                                                                                                                                                                                                                                                                              
10131340323462378AD675906759000000151648008888000009071900017068420000000327407132023NYY19423ND6759800888071620232023194019879                                                                                                                                                                                                                                                                                                                                                                                                                                                                                                                                                                                              
10131350323462381AD675906759000000142748001028000009071900014088420000001499107132023NYY19423ND6759800102071620232023194019880                                                                                                                                                                                                                                                                                                                                                                                                                                                                                                                                                                                              
10131360323462384AD675906759000000142748001028000009071900010329850000001499107132023NYY19423ND6759800102071620232023194019881                                                                                                                                                                                                                                                                                                                                                                                                                                                                                                                                                                                              
10131370323462387AD675906759000000161968001028000009071900018664850000001542307132023NYY19423ND6759800102071620232023194019882                                                                                                                                                                                                                                                                                                                                                                                                                                                                                                                                                                                              
10131380323462390AD675906759000000268498001258000009071900013004670000001977007132023NYY19423ND6759800125071620232023194019883                                                                                                                                                                                                                                                                                                                                                                                                                                                                                                                                                                                              
10131390323462393AD675906759000000161968001028000009071900018261170000002146007132023NYY19423ND6759800102071620232023194019884                                                                                                                                                                                                                                                                                                                                                                                                                                                                                                                                                                                              
10131400323801924AD675906759000000151648008888000009071231930288110000001291507132023NYY19423ND6759800888071620232023193028811                                                                                                                                                                                                                                                                                                                                                                                                                                                                                                                                                                                              
10131410325275280BH6759067590000001266680088880000090170714202319523000000000129700    0000090001101287N8008886759D07162023010                                                                                                                                                                                                                                                                                                                                                                                                                                                                                                                                                                                              
10131420325275281DT67590675900000012666800888800000010680088874001193195900011012872071320230000012970019523000000000129700407945XXXXXX0567               0000000   YYV4 01T463194667046210N8400000001297007G6S00    01CNB AND L VENTURES         043145    VS84000000129700 NDR829971004114   64480270390              000000000+                A CA 00245                     000000000  N000000000 166   0000000000000.00 0000000.00   0000000.00                             000000000000000                                                                                                                                                     015WPE 000000129700-0000000000022.83     01760 00000                  
10131430325275281DR67590675900000012666800888800000010664480270390              Z000000129700                 P1                                                                                                                                                                                                                                                                                                                                                                                                                                                                                                                                                                                                            
10131440325270001P16759067590000001266680088880000001060000000000000000                             2000000000000000000000000              000000000000                    0000000000000000000000000                    000000000000                                                                                                                                                                                                                                                                                                                                                                                                                                                                                        
10131450325270002G2675906759000000126668008888000000106702-2133534              NV           9 C                00                                      NNNN   N                      000000000000                                                                   71004114                                                                                                                                                                                                                                                                                                                                                                                                                                               
10131460325275284BH6759067590000002684980012580000090170714202319523000000000026711    0000090001928134N8001256759D07162023092                                                                                                                                                                                                                                                                                                                                                                                                                                                                                                                                                                                              
10131470325275285DT67590675900000026849800125800000010180012587287283195900019280956071220230000001977019523000000000026711518747XXXXXX4447       ME03KE06MS02      YY 4607AMPLEVNG5Q0709  N840000000019770          81DNCBD8885133385            90729B    MC84000000019770 NDR599978220273   B2D65C5E33T2195C01E3E40  000000000+600450S00130    MPL  00580                     000000000  N                0000000000000.00 0000000.00   0000000.00                             000000000000000                                                                                                                                                   U0015WPE 000000000000 0000000000004.25     02100 01000                  
10131480325275285DR675906759000000268498001258000000101B2D65C5E33T2195C01E3E40  Y000000000000                                                                                                                                                                                                                                                                                                                                                                                                                                                                                                                                                                                                                               
10131490325270001G26759067590000002684980012580000001018885133385               WY           9 L               210                                      NNNN           210000000000000000000000000                        7                                          78220273                                                                                                                                                                                                                                                                                                                                                                                                                                               
10131500325275286DT67590675900000026849800125800000010180012576509753195900019280995071220230000001489219523000000000026711601149XXXXXX0422   BA00                  YY 4 07N873163768578624N840000000014892    00    01DNCBD8885133385            00922P    DS84000000014892 NDR599978220273070                         000000000+1015104910600   DCPDI11327832399  120737000000 000000000  0          462   0000000000000.00 0000000.00   0000000.00                             000000000000000                                                                                                                                                     015WPE 000000000000 0000000000003.15     02050 01000                  
10131510325275286DR675906759000000268498001258000000101                         Y                                                                                                                                                                                                                                                                                                                                                                                                                                                                                                                                                                                                                                           
10131520325270001G2675906759000000268498001258000000101855-4401547              WY           9 P                00                                      NNNN                          000000000000                         00000650975601179750000543                78220273                                                                                                                                                                                                                                                                                                                                                                                                                                               
10131530325275287DT67590675900000026849800125800000010180012524001193195900019281003071220230000001977019523000000000026711462161XXXXXX1225               2111111   YYV4 A7W303190652661908N840000000019770VQCP00    01DNCBD8885133385            498316    VD84000000019770 NDR599978220273   922DD77303T73902F596295  000000000+                F DF 00415                     000000000  N000000000       0000000000000.00 0000000.00   0000000.00                             000000000000000                                                                                                                                                     015WPEG000000019770 0000000000003.41     01650 01500                  
10131540325275287DR675906759000000268498001258000000101922DD77303T73902F596295  Y000000019770                 P1                                                                                                                                                                                                                                                                                                                                                                                                                                                                                                                                                                                                            
10131550325270001P16759067590000002684980012580000001010000000000000000                             2000000000000000000000000              000000000000                    0000000000000000000000000                    000000000000                                                                                                                                                                                                                                                                                                                                                                                                                                                                                        
10131560325270002G2675906759000000268498001258000000101888-5133385              WY           9 D                00                                      NNNN   N                      000000000000                                                                   78220273                                                                                                                                                                                                                                                                                                                                                                                                                                               
10131570325275288DT67590675900000026849800125800000010180012587287283195900019281012071220230000001285119523000000000026711552433XXXXXX3123       ME03KE06PT01      YY 4607AMCWYEPD4S0709  N840000000012851          81DNCBD8885133385            05160S    MC84000000012851 NDR599978220273   164BCB4C30T915EC7DA3B9A  000000000+600450S00130    MCW  02182                     000000000  N                0000000000000.00 0000000.00   0000000.00                             000000000000000                                                                                                                                                   U0015WPE 000000000000 0000000000003.44     02600 01000                  
10131580325275288DR675906759000000268498001258000000101164BCB4C30T915EC7DA3B9A  Y000000000000                                                                                                                                                                                                                                                                                                                                                                                                                                                                                                                                                                                                                               
10131590325270001G26759067590000002684980012580000001018885133385               WY           9 W               210                                      NNNN           210000000000000000000000000                        7                                          78220273                                                                                                                                                                                                                                                                                                                                                                                                                                               
10131600325275289DT67590675900000026849800125800000010180012587287283195900019281020071220230000002477019523000000000026711518941XXXXXX5890       ME03KE06MS02      YY 4607AMWEKX5K0I0709  N840000000024770          81DNCBD8885133385            56769Z    MC84000000024770 NDR599978220273   71734F7B58T4C4B33488799  000000000+600450S00130    MWE  00737                     000000000  N                0000000000000.00 0000000.00   0000000.00                             000000000000000                                                                                                                                                   U0015WPE 000000000000 0000000000006.54     02600 01000                  
10131610325275289DR67590675900000026849800125800000010171734F7B58T4C4B33488799  Y000000000000                                                                                                                                                                                                                                                                                                                                                                                                                                                                                                                                                                                                                               
10131620325270001G26759067590000002684980012580000001018885133385               WY           9 E               210                                      NNNN           210000000000000000000000000                        7                                          78220273                                                                                                                                                                                                                                                                                                                                                                                                                                               
10131630325275290DT67590675900000026849800125800000010180012524001193195900019281037071220230000001280319523000000000026711474165XXXXXX6939               2111111   YYV4 A7W583190688565990N840000000012803DXDP00    01DNCBD8885133385            034367    VD84000000012803 NDR599978220273   B7E6CA927ATFA9A17992977  000000000+                G DG 10352                     000000000  Y000000000 338   0000000000000.00 0000000.00   0000000.00                             000000000000000                                                                                                                                                     015WPEG000000012803 0000000000000.28     00050 02200                  
10131640325275290DR675906759000000268498001258000000101B7E6CA927ATFA9A17992977  Y000000012803                 P1                                                                                                                                                                                                                                                                                                                                                                                                                                                                                                                                                                                                            
10131650325270001P16759067590000002684980012580000001010000000000000000                             2000000000000000000000000              000000000000                    0000000000000000000000000                    000000000000                                                                                                                                                                                                                                                                                                                                                                                                                                                                                        
10131660325270002G2675906759000000268498001258000000101888-5133385              WY           9 D                00                                      NNNN   N                      000000000000                                                                   78220273                                                                                                                                                                                                                                                                                                                                                                                                                                               
10131670325275291DT67590675900000026849800125800000010180012587287283195900019281046071220230000001977019523000000000026711537802XXXXXX3357       ME03KE06MS02      YY 4607AMWETVUWM80709  N840000000019770          81DNCBD8885133385            02203Z    MC84000000019770 NDR599978220273   FC567866C1T0436B00F8796  000000000+600450S00130    MWE  00737                     000000000  N                0000000000000.00 0000000.00   0000000.00                             000000000000000                                                                                                                                                   U0015WPE 000000000000 0000000000005.24     02600 01000                  
10131680325275291DR675906759000000268498001258000000101FC567866C1T0436B00F8796  Y000000000000                                                                                                                                                                                                                                                                                                                                                                                                                                                                                                                                                                                                                               
10131690325270001G26759067590000002684980012580000001018885133385               WY           9 E               210                                      NNNN           210000000000000000000000000                                                                   78220273                                                                                                                                                                                                                                                                                                                                                                                                                                               
10131700325275292DT67590675900000026849800125800000010180012587287283195900019281079071220230000001977019523000000000026711514321XXXXXX2814       ME03KE06MS02      YY 4607AMDJXVCFM80709  N840000000019770          81DNCBD8885133385            498336    MD84000000019770 NDR599978220273   96AEBDAA33TC24C79319B47  000000000+600450S00130    MDJ  00401                     000000000  N                0000000000000.00 0000000.00   0000000.00                             000000000000000                                                                                                                                                   U0015WPE 000000000000 0000000000003.41     01650 01500                  
10131710325275292DR67590675900000026849800125800000010196AEBDAA33TC24C79319B47  Y000000000000                                                                                                                                                                                                                                                                                                                                                                                                                                                                                                                                                                                                                               
10131720325270001G26759067590000002684980012580000001018885133385               WY           9 J               210                                      NNNN           210000000000000000000000000                                                                   78220273                                                                                                                                                                                                                                                                                                                                                                                                                                               
10131730325275293DT67590675900000026849800125800000010680012587287283195900019281228071320230000001285019523000000000026711511308XXXXXX8512                         YY 4607AMDJ1OIGGP0713  N840000000012850          81CNCBD8885133385            010724    MD84000000012850 NDR599978220273   2EE78344F2TFB7BF491A765  000000000+600450S00130    MDJ  10828                     000000000  1                0000000000000.00 0000000.00   0000000.00                             000000000000000                                                                                                                                                     015WPE 000000000000 0000000000000.00     00000 00000                  
10131740325275293DR6759067590000002684980012580000001062EE78344F2TFB7BF491A765  Y000000000000                                                                                                                                                                                                                                                                                                                                                                                                                                                                                                                                                                                                                               
10131750325270001G26759067590000002684980012580000001068885133385               WY           9 J               210                                      NNNN           210000000000000000000000000                                                                   78220273                                                                                                                                                                                                                                                                                                                                                                                                                                               
10131760325275294DT67590675900000026849800125800000010680012587287283195900019281236071320230000001977019523000000000026711552417XXXXXX7435                         YY 4607AMCW0RMU5J0713  N840000000019770          81CNCBD8885133385            848716    MC84000000019770 NDR599978220273   ABFE905511TEA885E4F0DF6  000000000+600450S00130    MCW  00564                     000000000  N                0000000000000.00 0000000.00   0000000.00                             000000000000000                                                                                                                                                     015WPE 000000000000-0000000000003.46     01750 00000                  
10131770325275294DR675906759000000268498001258000000106ABFE905511TEA885E4F0DF6  R000000000000                                                                                                                                                                                                                                                                                                                                                                                                                                                                                                                                                                                                                               
10131780325270001G26759067590000002684980012580000001068885133385               WY           9 W               210                                      NNNN           210000000000000000000000000                        7                                          78220273                                                                                                                                                                                                                                                                                                                                                                                                                                               
10131790325275295DT67590675900000026849800125800000010680012587287283195900019281244071320230000000489919523000000000026711552417XXXXXX7435                         YY 4607AMCW0NOC5H0713  N840000000004899          81CNCBD8885133385            300399    MC84000000004899 NDR599978220273   ABFE905511T06353939DF9C  000000000+600450S00130    MCW  00564                     000000000  N                0000000000000.00 0000000.00   0000000.00                             000000000000000                                                                                                                                                     015WPE 000000000000-0000000000000.86     01750 00000                  
10131800325275295DR675906759000000268498001258000000106ABFE905511T06353939DF9C  R000000000000                                                                                                                                                                                                                                                                                                                                                                                                                                                                                                                                                                                                                               
10131810325270001G26759067590000002684980012580000001068885133385               WY           9 W               210                                      NNNN           210000000000000000000000000                        7                                          78220273                                                                                                                                                                                                                                                                                                                                                                                                                                               
10131820325275296DT67590675900000026849800125800000010680012587287283195900019281251071320230000000200319523000000000026711524366XXXXXX8446                         YY 4607AMPLDVFF8A0713  N840000000002003          81CNCBD8885133385            013353    MC84000000002003 NDR599978220273   10D9965680T68269A13802F  000000000+600450S00130    MPL  00564                     000000000  N                0000000000000.00 0000000.00   0000000.00                             000000000000000                                                                                                                                                     015WPE 000000000000-0000000000000.35     01750 00000                  
10131830325275296DR67590675900000026849800125800000010610D9965680T68269A13802F  R000000000000                                                                                                                                                                                                                                                                                                                                                                                                                                                                                                                                                                                                                               
10131840325270001G26759067590000002684980012580000001068885133385               WY           9 L               210                                      NNNN           210000000000000000000000000                        7                                          78220273                                                                                                                                                                                                                                                                                                                                                                                                                                               
10131850325275297DT67590675900000026849800125800000010680012587287283195900019281269071320230000001280319523000000000026711524366XXXXXX8446                         YY 4607AMPLK72J850713  N840000000012803          81CNCBD8885133385            013373    MC84000000012803 NDR599978220273   A46EFE0B17TBEC336E1D4E6  000000000+600450S00130    MPL  00564                     000000000  N                0000000000000.00 0000000.00   0000000.00                             000000000000000                                                                                                                                                     015WPE 000000000000-0000000000002.24     01750 00000                  
10131860325275297DR675906759000000268498001258000000106A46EFE0B17TBEC336E1D4E6  R000000000000                                                                                                                                                                                                                                                                                                                                                                                                                                                                                                                                                                                                                               
10131870325270001G26759067590000002684980012580000001068885133385               WY           9 L               210                                      NNNN           210000000000000000000000000                        7                                          78220273                                                                                                                                                                                                                                                                                                                                                                                                                                               
10131880325275298DT67590675900000026849800125800000010680012587287283195900019281277071320230000001977019523000000000026711542418XXXXXX0185                         YY 4607AMPLF8VP8A0713  N840000000019770          81CNCBD8885133385            046559    MC84000000019770 NDR599978220273   9C4316F581T13F2575E4AAE  000000000+600450S00130    MPL  00564                     000000000  N                0000000000000.00 0000000.00   0000000.00                             000000000000000                                                                                                                                                     015WPE 000000000000-0000000000003.46     01750 00000                  
10131890325275298DR6759067590000002684980012580000001069C4316F581T13F2575E4AAE  U000000000000                                                                                                                                                                                                                                                                                                                                                                                                                                                                                                                                                                                                                               
10131900325270001G26759067590000002684980012580000001068885133385               WY           9 L               210                                      NNNN           210000000000000000000000000                        7                                          78220273                                                                                                                                                                                                                                                                                                                                                                                                                                               
10131910325275299DT67590675900000026849800125800000010680012587287283195900019281285071320230000001977019523000000000026711514887XXXXXX7839                         YY 4607AMPLF3Y7910713  N840000000019770          81CNCBD8885133385            052584    MC84000000019770 NDR599978220273   644247AC01T404C043EE10E  000000000+600450S00130    MPL  00564                     000000000  N                0000000000000.00 0000000.00   0000000.00                             000000000000000                                                                                                                                                     015WPE 000000000000-0000000000003.46     01750 00000                  
10131920325275299DR675906759000000268498001258000000106644247AC01T404C043EE10E  Z000000000000                                                                                                                                                                                                                                                                                                                                                                                                                                                                                                                                                                                                                               
10131930325270001G26759067590000002684980012580000001068885133385               WY           9 L               210                                      NNNN           210000000000000000000000000                        7                                          78220273                                                                                                                                                                                                                                                                                                                                                                                                                                               
10131940325275300DT67590675900000026849800125800000010680012576509753195900019281290071320230000001482819523000000000026711601100XXXXXX2617   BA00                  YY 4 07N743167245253834N840000000014828    00    01CNCBD8885133385            01338R    DS84000000014828 NDR599978220273070                         000000000+1015104910600   DCCDI01022500399  124205200000 000000000  0          134   0000000000000.00 0000000.00   0000000.00                             000000000000000                                                                                                                                                     015WPE 000000000000-0000000000002.59     01750 00000                  
10131950325275300DR675906759000000268498001258000000106                         R                                                                                                                                                                                                                                                                                                                                                                                                                                                                                                                                                                                                                                           
10131960325270001G2675906759000000268498001258000000106855-4401547              WY           9 C                00                                      NNNN                          000000000000                         00000650975601179750000543                78220273                                                                                                                                                                                                                                                                                                                                                                                                                                               
10131970325275301DT67590675900000026849800125800000010680012574001193195900019281305071320230000002245019523000000000026711403784XXXXXX7790               0000000   YYV4 07T303194765071637N840000000022450BWX700    01CNCBD8885133385            613151    VS84000000022450 NDR599978220273   BDEF8F3144T0A8F586FE593  000000000+                A CA 00245                     000000000  N000000000 166   0000000000000.00 0000000.00   0000000.00                             000000000000000                                                                                                                                                     015WPE 000000022450-0000000000003.95     01760 00000                  
10131980325275301DR675906759000000268498001258000000106BDEF8F3144T0A8F586FE593  Y000000022450                 P1                                                                                                                                                                                                                                                                                                                                                                                                                                                                                                                                                                                                            
10131990325270001P16759067590000002684980012580000001060000000000000000                             2000000000000000000000000              000000000000                    0000000000000000000000000                    000000000000                                                                                                                                                                                                                                                                                                                                                                                                                                                                                        
10132000325270002G2675906759000000268498001258000000106888-5133385              WY           9 C                00                                      NNNN   Y                      000000000000                                                                   78220273                                                                                                                                                                                                                                                                                                                                                                                                                                               
10132010325275302DT67590675900000026849800125800000010680012574001193195900019281313071320230000000979819523000000000026711403784XXXXXX7790               0000000   YYV4 07T303194766865170N840000000009798N6LB00    01CNCBD8885133385            613181    VS84000000009798 NDR599978220273   BDEF8F3144T37032A70CD8E  000000000+                A CA 00245                     000000000  N000000000 166   0000000000000.00 0000000.00   0000000.00                             000000000000000                                                                                                                                                     015WPE 000000009798-0000000000001.72     01760 00000                  
10132020325275302DR675906759000000268498001258000000106BDEF8F3144T37032A70CD8E  Y000000009798                 P1                                                                                                                                                                                                                                                                                                                                                                                                                                                                                                                                                                                                            
10132030325270001P16759067590000002684980012580000001060000000000000000                             2000000000000000000000000              000000000000                    0000000000000000000000000                    000000000000                                                                                                                                                                                                                                                                                                                                                                                                                                                                                        
10132040325270002G2675906759000000268498001258000000106888-5133385              WY           9 C                00                                      NNNN   Y                      000000000000                                                                   78220273                                                                                                                                                                                                                                                                                                                                                                                                                                               
10132050325275303DT67590675900000026849800125800000010680012574001193195900019281321071320230000000619819523000000000026711403784XXXXXX7790               0000000   YYV4 07T303194770469279N840000000006198JNFF00    01CNCBD8885133385            613142    VS84000000006198 NDR599978220273   B577FBEA99TADC5DBCA379B  000000000+                A CA 00245                     000000000  N000000000 166   0000000000000.00 0000000.00   0000000.00                             000000000000000                                                                                                                                                     015WPE 000000006198-0000000000001.09     01760 00000                  
10132060325275303DR675906759000000268498001258000000106B577FBEA99TADC5DBCA379B  Y000000006198                 P1                                                                                                                                                                                                                                                                                                                                                                                                                                                                                                                                                                                                            
10132070325270001P16759067590000002684980012580000001060000000000000000                             2000000000000000000000000              000000000000                    0000000000000000000000000                    000000000000                                                                                                                                                                                                                                                                                                                                                                                                                                                                                        
10132080325270002G2675906759000000268498001258000000106888-5133385              WY           9 C                00                                      NNNN   Y                      000000000000                                                                   78220273                                                                                                                                                                                                                                                                                                                                                                                                                                               
10132090325275304DT67590675900000026849800125800000010680012574001193195900019281339071320230000000619819523000000000026711403784XXXXXX7790               0000000   YYV4 07T583194772261363N840000000006198FCQJ00    01CNCBD8885133385            613172    VS84000000006198 NDR599978220273   B577FBEA99TADC5DBCA379B  000000000+                A CA 00245                     000000000  N000000000 166   0000000000000.00 0000000.00   0000000.00                             000000000000000                                                                                                                                                     015WPE 000000006198-0000000000001.09     01760 00000                  
10132100325275304DR675906759000000268498001258000000106B577FBEA99TADC5DBCA379B  Y000000006198                 P1                                                                                                                                                                                                                                                                                                                                                                                                                                                                                                                                                                                                            
10132110325270001P16759067590000002684980012580000001060000000000000000                             2000000000000000000000000              000000000000                    0000000000000000000000000                    000000000000                                                                                                                                                                                                                                                                                                                                                                                                                                                                                        
10132120325270002G2675906759000000268498001258000000106888-5133385              WY           9 C                00                                      NNNN   Y                      000000000000                                                                   78220273                                                                                                                                                                                                                                                                                                                                                                                                                                               
10132130325275305DT67590675900000026849800125800000010680012587287283195900019281343071320230000001977019523000000000026711541065XXXXXX2913                         YY 4607AMCCW5VMSS0713  N840000000019770          81CNCBD8885133385            277991    MC84000000019770 NDR599978220273   1D5F27BB3FTEF72E97738E1  000000000+600450S00130    MCC  00564                     000000000  N                0000000000000.00 0000000.00   0000000.00                             000000000000000                                                                                                                                                     015WPE 000000000000-0000000000003.46     01750 00000                  
10132140325275305DR6759067590000002684980012580000001061D5F27BB3FTEF72E97738E1  U000000000000                                                                                                                                                                                                                                                                                                                                                                                                                                                                                                                                                                                                                               
10132150325270001G26759067590000002684980012580000001068885133385               WY           9 C               210                                      NNNN           210000000000000000000000000                        7                                          78220273                                                                                                                                                                                                                                                                                                                                                                                                                                               
10132160326200002BH6759067590000003284780013580000090170714202319523000000000032518    0000090001250017N8001356759C07162023025                                                                                                                                                                                                                                                                                                                                                                                                                                                                                                                                                                                              
10132170326200003DT67590675900000032847800135800000010180013577287283195900012500088071320230000000108019523000000000032518552433XXXXXX6151       MS02WI09          NY 1 0 AMCWA4B9TT0713  N840000000001080          05DNDAYDREAMS SMOKE WORLD LLC04143S    MC84000000001080 N  599378639041                            000000000+M10101C5434C    MCW  02184                     000000000  N                0000000000000.00 0000000.00   0000000.00                             000000000000000                                                                                                                                                   B101418  000000000000 0000000000000.35     02300 01000                  
10132180326200001E167590675900000032847800135800000010100E0F8C80150 00000000000.00404040404040404040404040404040404040404040404040400110A00001220000000000000000000000FF00000000000000000000000000  000108401800800000800023071329A5D1EDDB111543A785FBCB404040400840A0000000041010000000000000000000A1EAF8F7926852F400120000000000004040401E40404040 000000010.80 000000000.001E03000000000000000000    80                                                                                                                                                                                                                                                                                                                  
10132190326200002G2675906759000000328478001358000000101MCALLEN                  TX           5 W                                                        NNNN              000000000000000000000000                        7                                          78639041                                                                                                                                                                                                                                                                                                                                                                                                                                               
10132200326200004DT67590675900000032847800135800000033080013576759003195900012500016071320230000000309719523000000000032518440393XXXXXX9038                         NY 2 0 N               N840000000003097      IL  05DNDAYDREAMS SMOKE WORLD LLC373078    DB84000000003097 N  599378639041                            000000000+                     09576                                N          346   0000000000000.00 0000000.00   0000000.00                             000000000000000                                                                                                                                                     01418  000000000000 0000000000000.51     01150 00000                  
10132210326200001G2675906759000000328478001358000000330MCALLEN                  TX           5 P                00                                      NNNN                          000000000000                                                                   78639041                                                                                                                                                                                                                                                                                                                                                                                                                                               
10132220326200005DT67590675900000032847800135800000033080013576759003195900012500024071320230000000324619523000000000032518516289XXXXXX7675                         NY42 0 N               N840000000003246      ME  05DNDAYDREAMS SMOKE WORLD LLC633506    DB84000000003246 N  599378639041                            000000000+                     09597                                N                0000000000000.00 0000000.00   0000000.00                             000000000000000                                                                                                                                                     01418  000000000000 0000000000000.44     00900 00000                  
10132230326200001G2675906759000000328478001358000000330MCALLEN                  TX           5 D                00                                      NNNN                          000000000000                                                                   78639041                                                                                                                                                                                                                                                                                                                                                                                                                                               
10132240326200006DT67590675900000032847800135800000033080013576759003195900012500032071320230000000053119523000000000032518467010XXXXXX7256                         NY 2 0 N               N840000000000531      IL  05DNDAYDREAMS SMOKE WORLD LLC515861    DB84000000000531 N  599378639041                            000000000+                     09580                                Y          342   0000000000000.00 0000000.00   0000000.00                             000000000000000                                                                                                                                                     01418  000000000000 0000000000000.22     00050 00000                  
10132250326200001G2675906759000000328478001358000000330MCALLEN                  TX           5 D                00                                      NNNN                          000000000000                                                                   78639041                                                                                                                                                                                                                                                                                                                                                                                                                                               
10132260326200007DT67590675900000032847800135800000033080013576759003195900012500040071320230000000074719523000000000032518467010XXXXXX7256                         NY 2 0 N               N840000000000747      IL  05DNDAYDREAMS SMOKE WORLD LLC179565    DB84000000000747 N  599378639041                            000000000+                     09580                                Y          342   0000000000000.00 0000000.00   0000000.00                             000000000000000                                                                                                                                                     01418  000000000000 0000000000000.22     00050 00000                  
10132270326200001G2675906759000000328478001358000000330MCALLEN                  TX           5 D                00                                      NNNN                          000000000000                                                                   78639041                                                                                                                                                                                                                                                                                                                                                                                                                                               
10132280326200008DT67590675900000032847800135800000033080013576759003195900012500057071320230000000129619523000000000032518544544XXXXXX4885                         NY42 0 N               N840000000001296      ME  90DNDAYDREAMS SMOKE WORLD LLC141846    DB84000000001296 N  599378639041                            000000000+                     09597                                N                0000000000000.00 0000000.00   0000000.00                             000000000000000                                                                                                                                                     01418  000000000000 0000000000000.27     00900 00000                  
10132290326200001G2675906759000000328478001358000000330MCALLEN                  TX           5 D                00                                      NNNN                          000000000000                                                                   78639041                                                                                                                                                                                                                                                                                                                                                                                                                                               
10132300326200009DT67590675900000032847800135800000033080013576759003195900012500065071320230000000097119523000000000032518440393XXXXXX7576                         NY 2 0 N               N840000000000971      IL  05DNDAYDREAMS SMOKE WORLD LLC085328    DB84000000000971 N  599378639041                            000000000+                     09576                                N          346   0000000000000.00 0000000.00   0000000.00                             000000000000000                                                                                                                                                     01418  000000000000 0000000000000.26     01150 00000                  
10132310326200001G2675906759000000328478001358000000330MCALLEN                  TX           5 P                00                                      NNNN                          000000000000                                                                   78639041                                                                                                                                                                                                                                                                                                                                                                                                                                               
10132320326200010DT67590675900000032847800135800000033080013576759003195900012500073071320230000000035419523000000000032518440393XXXXXX9182                         NY 2 0 N               N840000000000354      IL  90DNDAYDREAMS SMOKE WORLD LLC443787    DB84000000000354 N  599378639041                            000000000+                     09576                                N          346   0000000000000.00 0000000.00   0000000.00                             000000000000000                                                                                                                                                     01418  000000000000 0000000000000.19     01150 00000                  
10132330326200001G2675906759000000328478001358000000330MCALLEN                  TX           5 P                00                                      NNNN                          000000000000                                                                   78639041                                                                                                                                                                                                                                                                                                                                                                                                                                               
10132340326200011DT67590675900000032847800135800000033080013576759003195900012500099071320230000000357019523000000000032518440393XXXXXX6016                         NY 2 0 N               N840000000003570      IL  05DNDAYDREAMS SMOKE WORLD LLC860816    DB84000000003570 N  599378639041                            000000000+                     09576                                N          346   0000000000000.00 0000000.00   0000000.00                             000000000000000                                                                                                                                                     01418  000000000000 0000000000000.56     01150 00000                  
10132350326200001G2675906759000000328478001358000000330MCALLEN                  TX           5 P                00                                      NNNN                          000000000000                                                                   78639041                                                                                                                                                                                                                                                                                                                                                                                                                                               
10132360326200012DT67590675900000032847800135800000033080013576759003195900012500107071320230000000681819523000000000032518559915XXXXXX5828                         NY42 0 N               N840000000006818      ME  07DNDAYDREAMS SMOKE WORLD LLC103914    DB84000000006818 N  599378639041                            000000000+                     09601                                1          MA1   0000000000000.00 0000000.00   0000000.00                             000000000000000                                                                                                                                                     01418  000000000000 0000000000000.25     00050 00000                  
10132370326200001G2675906759000000328478001358000000330MCALLEN                  TX           5 D                00                                      NNNN                          000000000000                                                                   78639041                                                                                                                                                                                                                                                                                                                                                                                                                                               
10132380326200013DT67590675900000032847800135800000033080013576759003195900012500115071320230000000038819523000000000032518527515XXXXXX1163                         NY41 0 N               N840000000000388      ME  07DNDAYDREAMS SMOKE WORLD LLC122553    DB84000000000388 N  599378639041                            000000000+                     09601                                1          MA1   0000000000000.00 0000000.00   0000000.00                             000000000000000                                                                                                                                                     01418  000000000000 0000000000000.22     00050 00000                  
10132390326200001G2675906759000000328478001358000000330MCALLEN                  TX           5 D                00                                      NNNN                          000000000000                                                                   78639041                                                                                                                                                                                                                                                                                                                                                                                                                                               
10132400326200014DT67590675900000032847800135800000033080013576759003195900012500123071320230000000086419523000000000032518415082XXXXXX1603                         NY 2 0 N               N840000000000864      IL  05DNDAYDREAMS SMOKE WORLD LLC462321    DB84000000000864 N  599378639041                            000000000+                     09590                                N          279   0000000000000.00 0000000.00   0000000.00                             000000000000000                                                                                                                                                     01418  000000000000 0000000000000.22     00800 00000                  
10132410326200001G2675906759000000328478001358000000330MCALLEN                  TX           5 D                00                                      NNNN                          000000000000                                                                   78639041                                                                                                                                                                                                                                                                                                                                                                                                                                               
10132420326200015DT67590675900000032847800135800000033080013576759003195900012500131071320230000000147219523000000000032518461046XXXXXX2307                         NY 2 0 N               N840000000001472      IL  07DNDAYDREAMS SMOKE WORLD LLC080022    DB84000000001472 N  599378639041                            000000000+                     09580                                Y          342   0000000000000.00 0000000.00   0000000.00                             000000000000000                                                                                                                                                     01418  000000000000 0000000000000.23     00050 00000                  
10132430326200001G2675906759000000328478001358000000330MCALLEN                  TX           5 D                00                                      NNNN                          000000000000                                                                   78639041                                                                                                                                                                                                                                                                                                                                                                                                                                               
10132440326200016DT67590675900000032847800135800000033080013576759003195900012500149071320230000000311019523000000000032518474472XXXXXX2980                         NY 2 0 N               N840000000003110      IL  05DNDAYDREAMS SMOKE WORLD LLC142324    DB84000000003110 N  599378639041                            000000000+                     09580                                Y          342   0000000000000.00 0000000.00   0000000.00                             000000000000000                                                                                                                                                     01418  000000000000 0000000000000.24     00050 00000                  
10132450326200001G2675906759000000328478001358000000330MCALLEN                  TX           5 D                00                                      NNNN                          000000000000                                                                   78639041                                                                                                                                                                                                                                                                                                                                                                                                                                               
10132460326200017DT67590675900000032847800135800000033080013576759003195900012500156071320230000000108019523000000000032518440393XXXXXX2022                         NY 2 0 N               N840000000001080      IL  05DNDAYDREAMS SMOKE WORLD LLC647262    DB84000000001080 N  599378639041                            000000000+                     09576                                N          346   0000000000000.00 0000000.00   0000000.00                             000000000000000                                                                                                                                                     01418  000000000000 0000000000000.27     01150 00000                  
10132470326200001G2675906759000000328478001358000000330MCALLEN                  TX           5 P                00                                      NNNN                          000000000000                                                                   78639041                                                                                                                                                                                                                                                                                                                                                                                                                                               
10132480326200018DT67590675900000032847800135800000033080013576759003195900012500164071320230000000064819523000000000032518440393XXXXXX5038                         NY 2 0 N               N840000000000648      IL  05DNDAYDREAMS SMOKE WORLD LLC298902    DB84000000000648 N  599378639041                            000000000+                     09576                                N          346   0000000000000.00 0000000.00   0000000.00                             000000000000000                                                                                                                                                     01418  000000000000 0000000000000.22     01150 00000                  
10132490326200001G2675906759000000328478001358000000330MCALLEN                  TX           5 P                00                                      NNNN                          000000000000                                                                   78639041                                                                                                                                                                                                                                                                                                                                                                                                                                               
10132500326200019DT67590675900000032847800135800000033080013576759003195900012500172071320230000000324619523000000000032518440393XXXXXX5296                         NY 2 0 N               N840000000003246      IL  05DNDAYDREAMS SMOKE WORLD LLC700806    DB84000000003246 N  599378639041                            000000000+                     09576                                N          346   0000000000000.00 0000000.00   0000000.00                             000000000000000                                                                                                                                                     01418  000000000000 0000000000000.52     01150 00000                  
10132510326200001G2675906759000000328478001358000000330MCALLEN                  TX           5 P                00                                      NNNN                          000000000000                                                                   78639041                                                                                                                                                                                                                                                                                                                                                                                                                                               
10132520326200020BH6759067590000003284780013580000090170714202319523000000000011425    0000090001530004N8001356759C07162023053                                                                                                                                                                                                                                                                                                                                                                                                                                                                                                                                                                                              
10132530326200021DT67590675900000032847800135800000010180013576509753195900015300011071320230000000285719523000000000011425601100XXXXXX6486   BA50                  NY41 0 N873167401491676N840000000002857    00    05DNDAYDREAMS SMOKE WORLD LLC01356R    DS84000000002857 N  599378480415050                         000000000+0000004910H00   DCCDI01000333335  170229000000 000000000  0          112   0000000000000.00 0000000.00   0000000.00                             000000000000000                                                                                                                                                     01418  000000000000 0000000000000.59     01720 01000                  
10132540326200001E167590675900000032847800135800000010100E0F8C8000A 00000000000.00404040404040404040404040404040404040404040404040400105A080030000000000000000000000404040404040404040404040404040  0001084078000000008000230713FB40FA26BAEE20FDC557D099404040400840A000000152301000000000000000000017ED7843F2E70BF900320000000000004040401E40404040 000000028.57 000000000.001E03000000000000000000    80                                                                                                                                                                                                                                                                                                                  
10132550326200002G2675906759000000328478001358000000101MCALLEN                  TX           0 C                00                                      NNNN                          000000000000                         00000650975601179750000659                78480415                                                                                                                                                                                                                                                                                                                                                                                                                                               
10132560326200022DT67590675900000032847800135800000033080013576759003195900015300026071320230000000183919523000000000011425544544XXXXXX8885                         NY42 0 N               N840000000001839      ME  90DNDAYDREAMS SMOKE WORLD LLC662810    DB84000000001839 N  599378480415                            000000000+                     09597                                N                0000000000000.00 0000000.00   0000000.00                             000000000000000                                                                                                                                                     01418  000000000000 0000000000000.32     00900 00000                  
10132570326200001G2675906759000000328478001358000000330MCALLEN                  TX           5 D                00                                      NNNN                          000000000000                                                                   78480415                                                                                                                                                                                                                                                                                                                                                                                                                                               
10132580326200023DT67590675900000032847800135800000033080013576759003195900015300034071320230000000380719523000000000011425529709XXXXXX0504                         NY42 0 N               N840000000003807      ME  05DNDAYDREAMS SMOKE WORLD LLC642425    DB84000000003807 N  599378480415                            000000000+                     09597                                N                0000000000000.00 0000000.00   0000000.00                             000000000000000                                                                                                                                                     01418  000000000000 0000000000000.49     00900 00000                  
10132590326200001G2675906759000000328478001358000000330MCALLEN                  TX           5                  00                                      NNNN                          000000000000                                                                   78480415                                                                                                                                                                                                                                                                                                                                                                                                                                               
10132600326200024DT67590675900000032847800135800000033080013576759003195900015300042071420230000000292219523000000000011425400022XXXXXX7334                         NY 2 0 N               N840000000002922      IL  05DNDAYDREAMS SMOKE WORLD LLC515065    DB84000000002922 N  599378480415                            000000000+                     09580                                Y          342   0000000000000.00 0000000.00   0000000.00                             000000000000000                                                                                                                                                     01418  000000000000 0000000000000.23     00050 00000                  
10132610326200001G2675906759000000328478001358000000330MCALLEN                  TX           5 D                00                                      NNNN                          000000000000                                                                   78480415                                                                                                                                                                                                                                                                                                                                                                                                                                               
10132620326200025BH6759067590000003284780013580000090170714202319523000000000037647    0000090001250016N8001356759C07162023025                                                                                                                                                                                                                                                                                                                                                                                                                                                                                                                                                                                              
10132630326200026DT67590675900000032847800135800000010180013524001193195900012500037071320230000000162119523000000000037647420590XXXXXX8378       VS11    0001111   NYV1 A E463194650062202N840000000001621LF3J00    07DNDAYDREAMS SMOKE WORLD LLC075734    VD84000000001621 N  599378639007                            000000000+                F DF 10433                     000000000  Y000000000 338   0000000000000.00 0000000.00   0000000.00                             000000000000000                                                                                                                                                     01418 A000000000000 0000000000000.23     00050 02200                  
10132640326200001E16759067590000003284780013580000001010040404000D5 00000000000.00404040404040404040404040404040404040404040404040401F4A0432A00000000010030273000000004000000000000000000000000000  0000084000400000000000230713022BDBA05AAD118CBC558841404040400840A0000000031010000000000000000000434553E80FE9BA9330300000000000004040404040404040 000000016.21 000000000.004040400000000000000000    80                                                                                                                                                                                                                                                                                                                  
10132650326200002G2675906759000000328478001358000000101MCALLEN                  TX           5 D                00                                      NNNN00 N 00                   000000000000                                                                   78639007                                                                                                                                                                                                                                                                                                                                                                                                                                               
10132660326200027DT67590675900000032847800135800000010180013577287283195900012500047071320230000000324619523000000000037647542418XXXXXX3235       MS02WI09          NY 1 0 AMWESL7PBI0713  N840000000003246          07DNDAYDREAMS SMOKE WORLD LLC98031P    MC84000000003246 N  599378639007                            000000000+M10101M0034C    MWE  00739                     000000000  N                0000000000000.00 0000000.00   0000000.00                             000000000000000                                                                                                                                                   B101418  000000000000 0000000000000.85     02300 01000                  
10132670326200001E167590675900000032847800135800000010100E008C80017 00000000000.00404040404040404040404040404040404040404040404040400110A04001220000000000000000000000FF00000000000000000000000000  00010840198000000080012307133A7C8DD5A4AA578A98B10B43404040400840A0000000041010000000000000000000EA9F2607992015A200120000000000004040401F40404040 000000032.46 000000000.001F03020000000000000000    80                                                                                                                                                                                                                                                                                                                  
10132680326200002G2675906759000000328478001358000000101MCALLEN                  TX           5 E                                                        NNNN              000000000000000000000000       20               7                                          78639007                                                                                                                                                                                                                                                                                                                                                                                                                                               
10132690326200028DT67590675900000032847800135800000010180013577287283195900012500153071420230000000140619523000000000037647515676XXXXXX5361       MS02WI09          NY 1 0 AMWE1FC0GQ0714  N840000000001406          05DNDAYDREAMS SMOKE WORLD LLC01461Z    MC84000000001406 N  599378639007                            000000000+M10101C5434C    MWE  00739                     000000000  N                0000000000000.00 0000000.00   0000000.00                             000000000000000                                                                                                                                                   B101418  000000000000 0000000000000.42     02300 01000                  
10132700326200001E167590675900000032847800135800000010100E0F8C80063 00000000000.00404040404040404040404040404040404040404040404040400110A04001220000000000000000000000FF00000000000000000000000000  0001084039000000008000230714CF74D2AF7FE9173BF0ADA40D404040400840A0000000041010000000000000000000A1E613614F133FCC00120000000000004040401E40404040 000000014.06 000000000.001E03000000000000000000    80                                                                                                                                                                                                                                                                                                                  
10132710326200002G2675906759000000328478001358000000101MCALLEN                  TX           5 E                                                        NNNN              000000000000000000000000                        7                                          78639007                                                                                                                                                                                                                                                                                                                                                                                                                                               
10132720326200029DT67590675900000032847800135800000033080013576759003195900012500016071320230000000037219523000000000037647443045XXXXXX1987                         NY 2 0 N               N840000000000372      IL  05DNDAYDREAMS SMOKE WORLD LLC190378    DB84000000000372 N  599378639007                            000000000+                     09580                                Y          342   0000000000000.00 0000000.00   0000000.00                             000000000000000                                                                                                                                                     01418  000000000000 0000000000000.22     00050 00000                  
10132730326200001G2675906759000000328478001358000000330MCALLEN                  TX           5 D                00                                      NNNN                          000000000000                                                                   78639007                                                                                                                                                                                                                                                                                                                                                                                                                                               
10132740326200030DT67590675900000032847800135800000033080013576759003195900012500024071320230000000541119523000000000037647400022XXXXXX5984                         NY 2 0 N               N840000000005411      IL  05DNDAYDREAMS SMOKE WORLD LLC178629    DB84000000005411 N  599378639007                            000000000+                     09580                                Y          342   0000000000000.00 0000000.00   0000000.00                             000000000000000                                                                                                                                                     01418  000000000000 0000000000000.25     00050 00000                  
