08459630486545102AD675906759000000142748001028000009071900019625450000001569706202023NYY17123ND6759800102062220232023171046088                                                                                                                                                                                                                                                                                                                                                                                                                                                                                                                                                                                              
08459640486545105AD675906759000000198288001098000009077900013560750000002487006202023NYY17123YC6759800109062220232023171046099                                                                                                                                                                                                                                                                                                                                                                                                                                                                                                                                                                                              
08459650486545108AD675906759000000142748001028000009071900012418740000000759906202023NYY17123ND6759800102062220232023171046089                                                                                                                                                                                                                                                                                                                                                                                                                                                                                                                                                                                              
08459660486545111AD675906759000000133008001028000009071900010951020000002487006202023NYY17123ND6759800102062220232023171046090                                                                                                                                                                                                                                                                                                                                                                                                                                                                                                                                                                                              
08459670486545114AD675906759000000142748001028000009071900010940660000002487006202023NYY17123ND6759800102062220232023171046091                                                                                                                                                                                                                                                                                                                                                                                                                                                                                                                                                                                              
08459680486545117AD675906759000000268498001258000009071900012039350000001977006202023NYY17123ND6759800125062220232023171046092                                                                                                                                                                                                                                                                                                                                                                                                                                                                                                                                                                                              
08459690486545120AD675906759000000198288001098000009071900015797430000001987006202023NYY17123ND6759800109062220232023171046093                                                                                                                                                                                                                                                                                                                                                                                                                                                                                                                                                                                              
08459700486545123AD675906759000000198288001098000009071900012033690000001987006202023NYY17123ND6759800109062220232023171046094                                                                                                                                                                                                                                                                                                                                                                                                                                                                                                                                                                                              
08459710486545126AD675906759000000268498001258000009071900015856340000001660306202023NYY17123ND6759800125062220232023171046095                                                                                                                                                                                                                                                                                                                                                                                                                                                                                                                                                                                              
08459720486545129AD675906759000000268498001258000009071900011527630000001977006202023NYY17123ND6759800125062220232023171046096                                                                                                                                                                                                                                                                                                                                                                                                                                                                                                                                                                                              
08459730486545132AD675906759000000268498001258000009071900015853980000001977006202023NYY17123ND6759800125062220232023171046097                                                                                                                                                                                                                                                                                                                                                                                                                                                                                                                                                                                              
08459740486545135AD675906759000000133008001028000009071900018819470000002487006202023NYY17123ND6759800102062220232023171046098                                                                                                                                                                                                                                                                                                                                                                                                                                                                                                                                                                                              
08459750486545138AD675906759000000268498001258000009071900012985680000002245006202023NYY17123ND6759800125062220232023171046103                                                                                                                                                                                                                                                                                                                                                                                                                                                                                                                                                                                              
08459760486545141AD675906759000000268498001258000009071900010609260000001977006202023NYY17123ND6759800125062220232023171046104                                                                                                                                                                                                                                                                                                                                                                                                                                                                                                                                                                                              
08459770486545144AD675906759000000133008001028000009071900010134570000002136006202023NYY17123ND6759800102062220232023171046100                                                                                                                                                                                                                                                                                                                                                                                                                                                                                                                                                                                              
08459780486545147AD675906759000000268498001258000009071900013913180000001977006202023NYY17123ND6759800125062220232023171046101                                                                                                                                                                                                                                                                                                                                                                                                                                                                                                                                                                                              
08459790486545150AD675906759000000133008001028000009071900010745350000001499106202023NYY17123ND6759800102062220232023171039807                                                                                                                                                                                                                                                                                                                                                                                                                                                                                                                                                                                              
08459800486545153AD675906759000000142748001028000009071900011139550000002131106202023NYY17123ND6759800102062220232023171039808                                                                                                                                                                                                                                                                                                                                                                                                                                                                                                                                                                                              
08459810486545156AD675906759000000151648008888000009077900015004210000000993506202023NYY17123YC6759800888062220232023171039809                                                                                                                                                                                                                                                                                                                                                                                                                                                                                                                                                                                              
08459820486545171AD675906759000000268498001258000009071900015954090000001977006202023NYY17123ND6759800125062220232023171051141                                                                                                                                                                                                                                                                                                                                                                                                                                                                                                                                                                                              
08459830487971676AD675906759000000151648008888000009071231450310910000000654806202023NYY17123ND6759800888062220232023145031091                                                                                                                                                                                                                                                                                                                                                                                                                                                                                                                                                                                              
08459840487971679AD675906759000000151648008888000009071231450311170000002487006202023NYY17123ND6759800888062220232023145031117                                                                                                                                                                                                                                                                                                                                                                                                                                                                                                                                                                                              
08459850488434092BH6759067590000002872080012780000090170621202317223000000000999700    0000090001100001N8001276759D06222023010                                                                                                                                                                                                                                                                                                                                                                                                                                                                                                                                                                                              
08459860488434093DT67590675900000028720800127800000010680012777287283172900011000012062020230000099970017223000000000999700547415XXXXXX2148                         YY94 01N         0620  N840000000000000          01CNLIFFE SURGE LLC                    MB84000000999700 NP1899971004114   64436617304              000000000+C00320100140    MEB  00568                     000000000  N                0000000000000.00 0000000.00   0000000.00                             000000000000000                                                                                                                                                     015WPE 000000000000-0000000000220.93     02210 00000                  
08459870488430001P1675906759000000287208001278000000106                                                          000000000000          8000            844159498                                                                                                                                                                                                                                                                                                                                                                                                                                                                                                                                                            
08459880488430002G26759067590000002872080012780000001068012056743               FL           5 B                                    844159498           YNNN              000000000000000000000000                        7                                          71004114                                                                                                                                                                                                                                                                                                                                                                                                                                               
08459890488434096BH6759067590000001767380010680000090170621202317223000000000007305    0000090001712187N8001066759D06222023071                                                                                                                                                                                                                                                                                                                                                                                                                                                                                                                                                                                              
08459900488434097DT67590675900000017673800106800000010680010687287283172900017121878062020230000000730517223000000000007305518941XXXXXX3753                         YY 4607AMWEH3M7R70620  N840000000007305          81CNVGHEMP.COM833-246-5225   549651    MC84000000007305 NDR549977427364   B52A4D095BTE10207A4AA65  000000000+600450S00130    MWE  00565                     000000000  N                0000000000000.00 0000000.00   0000000.00                             000000000000000                                                                                                                                                     015WPE 000000000000-0000000000001.28     01750 00000                  
08459910488434097DR675906759000000176738001068000000106B52A4D095BTE10207A4AA65  U000000000000                                                                                                                                                                                                                                                                                                                                                                                                                                                                                                                                                                                                                               
08459920488430001G26759067590000001767380010680000001067203077930               CA           9 E               210                                      NNNN           210000000000000000000000000                        7                                          77427364                                                                                                                                                                                                                                                                                                                                                                                                                                               
08459930489160002BH6759067590000000909280010180000090170621202317223000000000041507    0000090001970012N8001016759C06222023097                                                                                                                                                                                                                                                                                                                                                                                                                                                                                                                                                                                              
08459940489160003DT67590675900000009092800101800000010180010124001193172900019700017062020230000000184617223000000000041507461675XXXXXX6928       VS11    0001111   NYV1 A E583171506600067N8400000000018466S8V00    05DNPLANET VAPOR INC #500    648540    VD84000000001846 N  599977384801                            000000000+                F DF 00381                     000000000  N000000000       0000000000000.00 0000000.00   0000000.00                             000000000000000                                                                                                                                                     01418 A000000000000 0000000000000.30     00800 01500                  
08459950489160001E167590675900000009092800101800000010100E0F8C800A6 00000000000.004040404040404040404040404040404040404040404040404006010A03A08000000000000000000000404040404040404040404040404040  000008401800808000800023062058838151DDFCC99C5D053256404040400840A000000003101000000000000000000016DE38DEE89DD02830300000000000004040401E40404040 000000018.46 000000000.001E00000000000000000000    80                                                                                                                                                                                                                                                                                                                  
08459960489160002G2675906759000000090928001018000000101IRMO                     SC           5 D                00                                      NNNN00 N 00                   000000000000                                                                   77384801                                                                                                                                                                                                                                                                                                                                                                                                                                               
08459970489160004DT67590675900000009092800101800000010180010124001193172900019700025062020230000000205117223000000000041507473703XXXXXX8578       VS11    0001111   NYV1 A E583171515754627N840000000002051XQFN00    07DNPLANET VAPOR INC #500    025085    VD84000000002051 N  599977384801                            000000000+                F DF 10433                     000000000  Y000000000 338   0000000000000.00 0000000.00   0000000.00                             000000000000000                                                                                                                                                     01418 A000000000000 0000000000000.23     00050 02200                  
08459980489160001E167590675900000009092800101800000010100E068C801C7 00000000000.004040404040404040404040404040404040404040404040404006061203A00000000000000000000000404040404040404040404040404040  0000084000000000000000230620C830899F83D30AF22EF89217404040400840A000000003101000000000000000000020803050E0D000B020200000000000004040404040404040 000000020.51 000000000.004040400000000000000000    80                                                                                                                                                                                                                                                                                                                  
08459990489160002G2675906759000000090928001018000000101IRMO                     SC           5 D                00                                      NNNN00 N 00                   000000000000                                                                   77384801                                                                                                                                                                                                                                                                                                                                                                                                                                               
08460000489160005DT67590675900000009092800101800000010180010124001193172900019700033062020230000000302217223000000000041507466189XXXXXX1393       VS11    0001111   NYV1 A E463171553589256N8400000000030228M5X00    07DNPLANET VAPOR INC #500    097270    VD84000000003022 N  599977384801                            000000000+                F DF 10433                     000000000  Y000000000 338   0000000000000.00 0000000.00   0000000.00                             000000000000000                                                                                                                                                     01418 A000000000000 0000000000000.24     00050 02200                  
08460010489160001E167590675900000009092800101800000010100E068C800C5 00000000000.004040404040404040404040404040404040404040404040404006011203A00000000000000000000000404040404040404040404040404040  00000840000000000000002306208FCB02AABEE75606D9ECA0CB404040400840A0000000031010000000000000000000848277C3CEAFC31F30300000000000004040404040404040 000000030.22 000000000.004040400000000000000000    80                                                                                                                                                                                                                                                                                                                  
08460020489160002G2675906759000000090928001018000000101IRMO                     SC           5 D                00                                      NNNN00 N 00                   000000000000                                                                   77384801                                                                                                                                                                                                                                                                                                                                                                                                                                               
08460030489160006DT67590675900000009092800101800000010180010124001193172900019700041062020230000000518117223000000000041507411773XXXXXX5752       VS11    0001111   NYV1 A E463171565316369N840000000005181GN7W00    07DNPLANET VAPOR INC #500    114327    VD84000000005181 N  599977384801                            000000000+                F DF 10433                     000000000  Y000000000 338   0000000000000.00 0000000.00   0000000.00                             000000000000000                                                                                                                                                     01418 A000000000000 0000000000000.25     00050 02200                  
08460040489160001E167590675900000009092800101800000010100E068C8019D 00000000000.004040404040404040404040404040404040404040404040404006011203A00000000000000000000000404040404040404040404040404040  0000084020000000000000230620E61145F4AFB94BA75508D1CB404040400840A0000000031010000000000000000000404040404040404040404040404040404040404040404040 000000051.81 000000000.004040400000000000000000    80                                                                                                                                                                                                                                                                                                                  
08460050489160002G2675906759000000090928001018000000101IRMO                     SC           5 D                00                                      NNNN00 N 00                   000000000000                                                                   77384801                                                                                                                                                                                                                                                                                                                                                                                                                                               
08460060489160007DT67590675900000009092800101800000010180010124001193172900019700058062020230000000431717223000000000041507415978XXXXXX8889       VS11    0001111   NYV1 A E583171568890608N840000000004317P34900    05DNPLANET VAPOR INC #500    047197    VD84000000004317 N  599977384801                            000000000+                F DF 10433                     000000000  Y000000000 338   0000000000000.00 0000000.00   0000000.00                             000000000000000                                                                                                                                                     01418 A000000000000 0000000000000.24     00050 02200                  
08460070489160001E167590675900000009092800101800000010100E0F8C80082 00000000000.004040404040404040404040404040404040404040404040404006011203A02000000000000000000000404040404040404040404040404040  0000084018008080008000230620F3FADA1E5E913FDFC7DC47A5404040400840A00000000310100000000000000000005168FF60E25EC1D130300000000000004040401E40404040 000000043.17 000000000.001E00000000000000000000    80                                                                                                                                                                                                                                                                                                                  
08460080489160002G2675906759000000090928001018000000101IRMO                     SC           5 D                00                                      NNNN00 N 00                   000000000000                                                                   77384801                                                                                                                                                                                                                                                                                                                                                                                                                                               
08460090489160008DT67590675900000009092800101800000010180010124001193172900019700066062020230000000528917223000000000041507411878XXXXXX9434       VS11    0001111   NYV1 A E583171599224235N8400000000052895JS500    05DNPLANET VAPOR INC #500    451206    VD84000000005289 N  599977384801                            000000000+                F DF 00381                     000000000  N000000000       0000000000000.00 0000000.00   0000000.00                             000000000000000                                                                                                                                                     01418 A000000000000 0000000000000.57     00800 01500                  
08460100489160001E167590675900000009092800101800000010100E0F8C801B7 00000000000.004040404040404040404040404040404040404040404040404006011203A08000000000000000000000404040404040404040404040404040  0000084018008080008000230620059DF269114D1497046DCE1D404040400840A000000003101000000000000000000055E5C0F70382000000000000000000004040401E40404040 000000052.89 000000000.001E00000000000000000000    80                                                                                                                                                                                                                                                                                                                  
08460110489160002G2675906759000000090928001018000000101IRMO                     SC           5 D                00                                      NNNN00 N 00                   000000000000                                                                   77384801                                                                                                                                                                                                                                                                                                                                                                                                                                               
08460120489160009DT67590675900000009092800101800000010180010124001193172900019700074062020230000000422717223000000000041507430602XXXXXX4078       VS11    0001111   NYV1 A E463171605887060N840000000004227B29R00    05DNPLANET VAPOR INC #500    616272    VD84000000004227 N  599977384801                            000000000+                F DF 00381                     000000000  N000000000       0000000000000.00 0000000.00   0000000.00                             000000000000000                                                                                                                                                     01418 A000000000000 0000000000000.49     00800 01500                  
08460130489160001E167590675900000009092800101800000010100E0F8C80044 00000000000.004040404040404040404040404040404040404040404040404006011203A08000000000000000000000404040404040404040404040404040  0000084018008080008000230620E3877BB0C9FCDDA406FD9017404040400840A0000000031010000000000000000000BD6C41810382000000000000000000004040401E40404040 000000042.27 000000000.001E00000000000000000000    80                                                                                                                                                                                                                                                                                                                  
08460140489160002G2675906759000000090928001018000000101IRMO                     SC           5 D                00                                      NNNN00 N 00                   000000000000                                                                   77384801                                                                                                                                                                                                                                                                                                                                                                                                                                               
08460150489160010DT67590675900000009092800101800000010180010124001193172900019700082062020230000000280717223000000000041507438419XXXXXX8272       VS11    0001111   NYV1 A E383171608771931N840000000002807GWC600    05DNPLANET VAPOR INC #500    025437    VD84000000002807 N  599977384801                            000000000+                F DF 00381                     000000000  N000000000       0000000000000.00 0000000.00   0000000.00                             000000000000000                                                                                                                                                     01418 A000000000000 0000000000000.37     00800 01500                  
08460160489160001E167590675900000009092800101800000010100E0F8C80456 00000000000.004040404040404040404040404040404040404040404040404006011203A0A000000000000000000000404040404040404040404040404040  0000084018008080008000230620A7C1D653F92B78DAE9A1E679404040400840A0000000031010000000000000000000120DDEDC0080000000000000000000004040401E40404040 000000028.07 000000000.001E00000000000000000000    80                                                                                                                                                                                                                                                                                                                  
08460170489160002G2675906759000000090928001018000000101IRMO                     SC           5 D                00                                      NNNN00 N 00                   000000000000                                                                   77384801                                                                                                                                                                                                                                                                                                                                                                                                                                               
08460180489160011DT67590675900000009092800101800000010180010124001193172900019700090062020230000000148317223000000000041507430602XXXXXX9845       VK04VS111111111   NYV1 A E583171635241419N840000000001483W46V00    05DNPLANET VAPOR INC #500    623626    VD84000000001483 N  599977384801                            000000000+                F DF 00451                     000000000  N000000000 214   0000000000000.00 0000000.00   0000000.00                             000000000000000                                                                                                                                                     01418 F000000000000 0000000000000.27     01550 00400                  
08460190489160001E167590675900000009092800101800000010100E0F8C8022D 00000000000.004040404040404040404040404040404040404040404040404006010A03A08000000000000000000000404040404040404040404040404040  0000084018008080008000230620B6EED3DCA0A604BDA9260EF3404040400840A0000000031010000000000000000000C0813CDDEEC7B83230300000000000004040401E40404040 000000014.83 000000000.001E00000000000000000000    80                                                                                                                                                                                                                                                                                                                  
08460200489160002G2675906759000000090928001018000000101IRMO                     SC           5 D                00                                      NNNN00 N 00                   000000000000                                                                   77384801                                                                                                                                                                                                                                                                                                                                                                                                                                               
08460210489160012DT67590675900000009092800101800000010180010124001193172900019700108062020230000000242917223000000000041507400022XXXXXX4059       VS11    0001111   NYV1 A E463171658663326N840000000002429GVPF00    05DNPLANET VAPOR INC #500    558318    VD84000000002429 N  599977384801                            000000000+                F DF 10433                     000000000  Y000000000 338   0000000000000.00 0000000.00   0000000.00                             000000000000000                                                                                                                                                     01418 A000000000000 0000000000000.23     00050 02200                  
08460220489160001E167590675900000009092800101800000010100E0F8C80116 00000000000.004040404040404040404040404040404040404040404040404006021203A0A000000000000000000000404040404040404040404040404040  0000084018008080008000230620D83493EEF9628278721712C6404040400840A0000000031010000000000000000000404040404040404040404040404040404040401E40404040 000000024.29 000000000.001E00000000000000000000    80                                                                                                                                                                                                                                                                                                                  
08460230489160002G2675906759000000090928001018000000101IRMO                     SC           5 D                00                                      NNNN00 N 00                   000000000000                                                                   77384801                                                                                                                                                                                                                                                                                                                                                                                                                                               
08460240489160013DT67590675900000009092800101800000010180010177287283172900019700118062020230000000213717223000000000041507545443XXXXXX9372       MS02WI09          NY 1 0 AMDJDGEPGR0620  N840000000002137          05DNPLANET VAPOR INC #500    081891    MD84000000002137 N  599977384801                            000000000+M10101C5434C    MDJ  00402                     000000000  N                0000000000000.00 0000000.00   0000000.00                             000000000000000                                                                                                                                                   B101418  000000000000 0000000000000.37     01050 01500                  
08460250489160001E167590675900000009092800101800000010100E0F8C8003D 00000000000.00404040404040404040404040404040404040404040404040400110A04001220000000000000000000000FF00000000000000000000000000  000008403900000008800023062046266016DF17E111DEB3C61B404040400840A00000000410100000000000000000000A3909099C34F764031A0000000000004040401E40404040 000000021.37 000000000.001E03000000000000000000    80                                                                                                                                                                                                                                                                                                                  
08460260489160002G2675906759000000090928001018000000101IRMO                     SC           5 J                                                        NNNN              000000000000000000000000                        7                                          77384801                                                                                                                                                                                                                                                                                                                                                                                                                                               
08460270489160014DT67590675900000009092800101800000010180010124001193172900019700124062020230000000671817223000000000041507440066XXXXXX5332       VS11    0001111   NYV1 A E463171671924566N840000000006718K97800    07DNPLANET VAPOR INC #500    07340A    VS84000000006718 N  599977384801                            000000000+                A CA 12110                     000000000  N000000000 493   0000000000000.00 0000000.00   0000000.00                             000000000000000                                                                                                                                                     01418 A000000000000 0000000000001.11     01510 01000                  
08460280489160001E167590675900000009092800101800000010100E068C80082 00000000000.004040404040404040404040404040404040404040404040404006011203A00000000000000000000000404040404040404040404040404040  0001084020000000000000230620AB48F1847783190E1E8AE3D0404040400840A0000000031010000000000000000000404040404040404040404040404040404040404040404040 000000067.18 000000000.004040400000000000000000    80                                                                                                                                                                                                                                                                                                                  
08460290489160002G2675906759000000090928001018000000101IRMO                     SC           5 C                00                                      NNNN00 Y 00                   000000000000                                                                   77384801                                                                                                                                                                                                                                                                                                                                                                                                                                               
08460300489160015BH6759067590000003284780013580000090170621202317223000000000032654    0000090001020020N8001356759C06222023002                                                                                                                                                                                                                                                                                                                                                                                                                                                                                                                                                                                              
08460310489160016DT67590675900000032847800135800000010180013577287283172900010200027062020230000000270517223000000000032654521307XXXXXX6806       MS02WI09          NY 1 0 AMWEEXM2R60620  N840000000002705          05DNDAYDREAMS SMOKE WORLD LLC06727Z    MC84000000002705 N  599378639007                            000000000+M10101C5434C    MWE  00739                     000000000  N                0000000000000.00 0000000.00   0000000.00                             000000000000000                                                                                                                                                   B101418  000000000000 0000000000000.72     02300 01000                  
08460320489160001E167590675900000032847800135800000010100E0F8C8005C 00000000000.00404040404040404040404040404040404040404040404040400214A04203220000000000000000000000FF00000000000000000000000000  0001084039000000008000230620734851DCAD0CB02A5550F56D404040400840A0000000041010000000000000000000398867FAC9D942EC00120000000000004040401E40404040 000000027.05 000000000.001E03000000000000000000    80                                                                                                                                                                                                                                                                                                                  
08460330489160002G2675906759000000328478001358000000101MCALLEN                  TX           5 E                                                        NNNN              000000000000000000000000                        7                                          78639007                                                                                                                                                                                                                                                                                                                                                                                                                                               
08460340489160017DT67590675900000032847800135800000010180013524001193172900010200074062020230000000108117223000000000032654400022XXXXXX3353       VK04VS111111111   NYV1 A E383171819991923N840000000001081V9KD00    05DNDAYDREAMS SMOKE WORLD LLC799005    VD84000000001081 N  599378639007                            000000000+                F DF 10439                     000000000  Y000000000 331   0000000000000.00 0000000.00   0000000.00                             000000000000000                                                                                                                                                     01418 F000000000000 0000000000000.23     00050 02200                  
08460350489160001E167590675900000032847800135800000010100E0F8C8002A 00000000000.004040404040404040404040404040404040404040404040404006021203A0A000000000000000000000404040404040404040404040404040  000008401800800000800023062069987348C2005B679012A04D404040400840A0000000031010000000000000000000404040404040404040404040404040404040405E40404040 000000010.81 000000000.005E00000000000000000000    80                                                                                                                                                                                                                                                                                                                  
08460360489160002G2675906759000000328478001358000000101MCALLEN                  TX           5 D                00                                      NNNN00 N 00                   000000000000                                                                   78639007                                                                                                                                                                                                                                                                                                                                                                                                                                               
08460370489160018DT67590675900000032847800135800000010180013524001193172900010200090062020230000000129717223000000000032654491566XXXXXX8098       VK04    1111111   NYV1 B E463171842777130N8400000000012974CPM00    05DNDAYDREAMS SMOKE WORLD LLC002809    VD84000000001297FN  599378639007                            000000000+                F DF 00022                     000000000  N000000000       0000000000000.00 0000000.0000 0000000.13D                            000000000000000                                                                                                                                                     01418 F000000000000 0000000000000.14     01100 00000                  
08460380489160001E167590675900000032847800135800000010100E0F8C80083 00000000000.004040404040404040404040404040404040404040404040404006010A03A48000000000000000000000404040404040404040404040404040  000008401C008080008000230620BA58ABD7453F5C5EEDDDE305404040400840A0000000031010000000000000000000993162AE254B0C7130300000000000004040400140404040 000000012.97 000000000.000103020000000000000000    80                                                                                                                                                                                                                                                                                                                  
08460390489160002G2675906759000000328478001358000000101MCALLEN                  TX           5 D                00                                      NNNN00 N 00                   000000000000                                                                   78639007                                                                                                                                                                                                                                                                                                                                                                                                                                               
08460400489160019DT67590675900000032847800135800000010180013577287283172900010200100062020230000000021417223000000000032654527505XXXXXX9492       MS02WI09          NY 1 0 AMDJFMBVIT0620  N840000000000214          07DNDAYDREAMS SMOKE WORLD LLC775279    MD84000000000214 N  599378639007                            000000000+M10101M0034C    MDJ  10815                     000000000  1                0000000000000.00 0000000.00   0000000.00                             000000000000000                                                                                                                                                   B101418  000000000000 0000000000000.22     00050 02200                  
08460410489160001E167590675900000032847800135800000010100E008C80180 00000000000.00404040404040404040404040404040404040404040404040400114A04003220000000000000000000000FF00000000000000000000000000  000008401980000000800123062080F5C7429FAF912068E2C0F4404040400840A0000000041010000000000000000000404040404040404040404040404040404040401F40404040 000000002.14 000000000.001F03020000000000000000    80                                                                                                                                                                                                                                                                                                                  
08460420489160002G2675906759000000328478001358000000101MCALLEN                  TX           5 J                                                        NNNN              000000000000000000000000       00               7                                          78639007                                                                                                                                                                                                                                                                                                                                                                                                                                               
08460430489160020DT67590675900000032847800135800000010180013524001193172900010200199062020230000000021417223000000000032654440393XXXXXX5099       VK04VS111111111   NYV1 A E583172121470030N840000000000214L6MF00    05DNDAYDREAMS SMOKE WORLD LLC922504    VD84000000000214 N  599378639007                            000000000+                F PF 08165                     000000000  N000000000       0000000000000.00 0000000.00   0000000.00                             000000000000000                                                                                                                                                     01418 F000000000000 0000000000000.08     01600 00500                  
08460440489160001E167590675900000032847800135800000010100E0F8C80043 00000000000.004040404040404040404040404040404040404040404040404006011203A0A000000000000000000000404040404040404040404040404040  000008401800800000800023062031BA58E4264E6FCB79BA2213404040400840A0000000031010000000000000000000033045C4C07ED4F530300000000000004040405E40404040 000000002.14 000000000.005E00000000000000000000    80                                                                                                                                                                                                                                                                                                                  
08460450489160002G2675906759000000328478001358000000101MCALLEN                  TX           5 P                00                                      NNNN00 N 00                   000000000000                                                                   78639007                                                                                                                                                                                                                                                                                                                                                                                                                                               
08460460489160021DT67590675900000032847800135800000010180013524001193172900010200215062020230000000108117223000000000032654400022XXXXXX3353       VK04VS111111111   NYV1 A E383172145663828N840000000001081572D00    05DNDAYDREAMS SMOKE WORLD LLC717438    VD84000000001081 N  599378639007                            000000000+                F DF 10439                     000000000  Y000000000 331   0000000000000.00 0000000.00   0000000.00                             000000000000000                                                                                                                                                     01418 F000000000000 0000000000000.23     00050 02200                  
08460470489160001E167590675900000032847800135800000010100E0F8C8002D 00000000000.004040404040404040404040404040404040404040404040404006021203A0A000000000000000000000404040404040404040404040404040  0000084018008000008000230621734851DCB0EC657B31CD2FA4404040400840A0000000031010000000000000000000404040404040404040404040404040404040405E40404040 000000010.81 000000000.005E00000000000000000000    80                                                                                                                                                                                                                                                                                                                  
08460480489160002G2675906759000000328478001358000000101MCALLEN                  TX           5 D                00                                      NNNN00 N 00                   000000000000                                                                   78639007                                                                                                                                                                                                                                                                                                                                                                                                                                               
08460490489160022DT67590675900000032847800135800000010180013577287283172900010200225062020230000000033217223000000000032654544544XXXXXX9198       MS02WI09          NY 1 0 AMPMQTWBT70620  N840000000000332          90DNDAYDREAMS SMOKE WORLD LLC020594    MD84000000000332 N  599378639007                            000000000+M10101B5434C    MPM  11964                     000000000  N                0000000000000.00 0000000.00   0000000.00                             000000000000000                                                                                                                                                   C101418  000000000000 0000000000000.19     01150 01500                  
08460500489160001G2675906759000000328478001358000000101MCALLEN                  TX           5 M                                                        NNNN              000000000000000000000000                                                                   78639007                                                                                                                                                                                                                                                                                                                                                                                                                                               
08460510489160023DT67590675900000032847800135800000010180013524001193172900010200231062120230000000043217223000000000032654423223XXXXXX4321       VK04VS111111111   NYV1 A E303172211201922N840000000000432876F00    05DNDAYDREAMS SMOKE WORLD LLC034483    VD84000000000432 N  599378639007                            000000000+                F DF 00451                     000000000  N000000000 214   0000000000000.00 0000000.00   0000000.00                             000000000000000                                                                                                                                                     01418 F000000000000 0000000000000.11     01550 00400                  
08460520489160001E167590675900000032847800135800000010100E0F8C800F9 00000000000.004040404040404040404040404040404040404040404040404006011203A0A000000000000000000000404040404040404040404040404040  0000084018008000008000230622BA58ABD78945EA702F1D7254404040400840A0000000031010000000000000000000B1D21F3B0080000000000000000000004040405E40404040 000000004.32 000000000.005E00000000000000000000    80                                                                                                                                                                                                                                                                                                                  
08460530489160002G2675906759000000328478001358000000101MCALLEN                  TX           5 D                00                                      NNNN00 N 00                   000000000000                                                                   78639007                                                                                                                                                                                                                                                                                                                                                                                                                                               
08460540489160024DT67590675900000032847800135800000033080013576759003172900010200012062020230000000021417223000000000032654440393XXXXXX6008                         NY 2 0 N               N840000000000214      IL  05DNDAYDREAMS SMOKE WORLD LLC265371    DB84000000000214 N  599378639007                            000000000+                     09576                                N          346   0000000000000.00 0000000.00   0000000.00                             000000000000000                                                                                                                                                     01418  000000000000 0000000000000.17     01150 00000                  
08460550489160001G2675906759000000328478001358000000330MCALLEN                  TX           5 P                00                                      NNNN                          000000000000                                                                   78639007                                                                                                                                                                                                                                                                                                                                                                                                                                               
08460560489160025DT67590675900000032847800135800000033080013576759003172900010200038062020230000000324617223000000000032654474472XXXXXX4107                         NY 2 0 N               N840000000003246      IL  07DNDAYDREAMS SMOKE WORLD LLC101244    DB84000000003246 N  599378639007                            000000000+                     09580                                Y          342   0000000000000.00 0000000.00   0000000.00                             000000000000000                                                                                                                                                     01418  000000000000 0000000000000.24     00050 00000                  
08460570489160001G2675906759000000328478001358000000330MCALLEN                  TX           5 D                00                                      NNNN                          000000000000                                                                   78639007                                                                                                                                                                                                                                                                                                                                                                                                                                               
08460580489160026DT67590675900000032847800135800000033080013576759003172900010200046062020230000000216417223000000000032654474472XXXXXX6345                         NY 2 0 N               N840000000002164      IL  05DNDAYDREAMS SMOKE WORLD LLC100255    DB84000000002164 N  599378639007                            000000000+                     09580                                Y          342   0000000000000.00 0000000.00   0000000.00                             000000000000000                                                                                                                                                     01418  000000000000 0000000000000.23     00050 00000                  
08460590489160001G2675906759000000328478001358000000330MCALLEN                  TX           5 D                00                                      NNNN                          000000000000                                                                   78639007                                                                                                                                                                                                                                                                                                                                                                                                                                               
08460600489160027DT67590675900000032847800135800000033080013576759003172900010200053062020230000000642217223000000000032654410492XXXXXX3197                         NY 2 0 N               N840000000006422      IL  07DNDAYDREAMS SMOKE WORLD LLC104096    DB84000000006422 N  599378639007                            000000000+                     09580                                Y          342   0000000000000.00 0000000.00   0000000.00                             000000000000000                                                                                                                                                     01418  000000000000 0000000000000.25     00050 00000                  
08460610489160001G2675906759000000328478001358000000330MCALLEN                  TX           5 D                00                                      NNNN                          000000000000                                                                   78639007                                                                                                                                                                                                                                                                                                                                                                                                                                               
08460620489160028DT67590675900000032847800135800000033080013576759003172900010200061062020230000000324617223000000000032654410492XXXXXX3197                         NY 2 0 N               N840000000003246      IL  07DNDAYDREAMS SMOKE WORLD LLC059762    DB84000000003246 N  599378639007                            000000000+                     09580                                Y          342   0000000000000.00 0000000.00   0000000.00                             000000000000000                                                                                                                                                     01418  000000000000 0000000000000.24     00050 00000                  
08460630489160001G2675906759000000328478001358000000330MCALLEN                  TX           5 D                00                                      NNNN                          000000000000                                                                   78639007                                                                                                                                                                                                                                                                                                                                                                                                                                               
08460640489160029DT67590675900000032847800135800000033080013576759003172900010200087062020230000000062117223000000000032654542432XXXXXX4264                         NY42 0 N               N840000000000621      ME  05DNDAYDREAMS SMOKE WORLD LLC169443    DB84000000000621 N  599378639007                            000000000+                     09601                                1          MA1   0000000000000.00 0000000.00   0000000.00                             000000000000000                                                                                                                                                     01418  000000000000 0000000000000.22     00050 00000                  
08460650489160001G2675906759000000328478001358000000330MCALLEN                  TX           5 D                00                                      NNNN                          000000000000                                                                   78639007                                                                                                                                                                                                                                                                                                                                                                                                                                               
08460660489160030DT67590675900000032847800135800000033080013576759003172900010200111062020230000000205417223000000000032654434769XXXXXX6890                         NY 2 0 N               N840000000002054      IL  05DNDAYDREAMS SMOKE WORLD LLC003320    DB84000000002054 N  599378639007                            000000000+                     09580                                Y          342   0000000000000.00 0000000.00   0000000.00                             000000000000000                                                                                                                                                     01418  000000000000 0000000000000.23     00050 00000                  
08460670489160001G2675906759000000328478001358000000330MCALLEN                  TX           5 D                00                                      NNNN                          000000000000                                                                   78639007                                                                                                                                                                                                                                                                                                                                                                                                                                               
08460680489160031DT67590675900000032847800135800000033080013576759003172900010200129062020230000000302717223000000000032654440393XXXXXX2746                         NY 2 0 N               N840000000003027      IL  05DNDAYDREAMS SMOKE WORLD LLC325068    DB84000000003027 N  599378639007                            000000000+                     09576                                N          346   0000000000000.00 0000000.00   0000000.00                             000000000000000                                                                                                                                                     01418  000000000000 0000000000000.50     01150 00000                  
08460690489160001G2675906759000000328478001358000000330MCALLEN                  TX           5 P                00                                      NNNN                          000000000000                                                                   78639007                                                                                                                                                                                                                                                                                                                                                                                                                                               
08460700489160032DT67590675900000032847800135800000033080013576759003172900010200137062020230000000066717223000000000032654411238XXXXXX7277                         NY 2 0 N               N840000000000667      IL  90DNDAYDREAMS SMOKE WORLD LLC679187    DB84000000000667 N  599378639007                            000000000+                     09576                                N          346   0000000000000.00 0000000.00   0000000.00                             000000000000000                                                                                                                                                     01418  000000000000 0000000000000.23     01150 00000                  
08460710489160001G2675906759000000328478001358000000330MCALLEN                  TX           5 P                00                                      NNNN                          000000000000                                                                   78639007                                                                                                                                                                                                                                                                                                                                                                                                                                               
08460720489160033DT67590675900000032847800135800000033080013576759003172900010200145062020230000000021517223000000000032654411238XXXXXX7277                         NY 2 0 N               N840000000000215      IL  90DNDAYDREAMS SMOKE WORLD LLC607429    DB84000000000215 N  599378639007                            000000000+                     09576                                N          346   0000000000000.00 0000000.00   0000000.00                             000000000000000                                                                                                                                                     01418  000000000000 0000000000000.17     01150 00000                  
08460730489160001G2675906759000000328478001358000000330MCALLEN                  TX           5 P                00                                      NNNN                          000000000000                                                                   78639007                                                                                                                                                                                                                                                                                                                                                                                                                                               
08460740489160034DT67590675900000032847800135800000033080013576759003172900010200152062020230000000099317223000000000032654467010XXXXXX0306                         NY 2 0 N               N840000000000993      IL  05DNDAYDREAMS SMOKE WORLD LLC861432    DB84000000000993 N  599378639007                            000000000+                     09580                                Y          342   0000000000000.00 0000000.00   0000000.00                             000000000000000                                                                                                                                                     01418  000000000000 0000000000000.22     00050 00000                  
08460750489160001G2675906759000000328478001358000000330MCALLEN                  TX           5 D                00                                      NNNN                          000000000000                                                                   78639007                                                                                                                                                                                                                                                                                                                                                                                                                                               
08460760489160035DT67590675900000032847800135800000033080013576759003172900010200160062020230000000035417223000000000032654472776XXXXXX4977                         NY 2 0 N               N840000000000354      IL  90DNDAYDREAMS SMOKE WORLD LLC137025    DB84000000000354 N  599378639007                            000000000+                     09576                                N          346   0000000000000.00 0000000.00   0000000.00                             000000000000000                                                                                                                                                     01418  000000000000 0000000000000.19     01150 00000                  
08460770489160001G2675906759000000328478001358000000330MCALLEN                  TX           5 P                00                                      NNNN                          000000000000                                                                   78639007                                                                                                                                                                                                                                                                                                                                                                                                                                               
08460780489160036DT67590675900000032847800135800000033080013576759003172900010200178062020230000000021417223000000000032654411600XXXXXX1158                         NY 2 0 N               N840000000000214      IL  05DNDAYDREAMS SMOKE WORLD LLC267433    DB84000000000214 N  599378639007                            000000000+                     09576                                N          346   0000000000000.00 0000000.00   0000000.00                             000000000000000                                                                                                                                                     01418  000000000000 0000000000000.17     01150 00000                  
08460790489160001G2675906759000000328478001358000000330MCALLEN                  TX           5 P                00                                      NNNN                          000000000000                                                                   78639007                                                                                                                                                                                                                                                                                                                                                                                                                                               
08460800489160037DT67590675900000032847800135800000033080013576759003172900010200186062020230000000056417223000000000032654461046XXXXXX1437                         NY 2 0 N               N840000000000564      IL  07DNDAYDREAMS SMOKE WORLD LLC064622    DB84000000000564 N  599378639007                            000000000+                     09580                                Y          342   0000000000000.00 0000000.00   0000000.00                             000000000000000                                                                                                                                                     01418  000000000000 0000000000000.22     00050 00000                  
08460810489160001G2675906759000000328478001358000000330MCALLEN                  TX           5 D                00                                      NNNN                          000000000000                                                                   78639007                                                                                                                                                                                                                                                                                                                                                                                                                                               
08460820489160038DT67590675900000032847800135800000033080013576759003172900010200202062020230000000129717223000000000032654423223XXXXXX8487                         NY 2 0 N               N840000000001297      IL  05DNDAYDREAMS SMOKE WORLD LLC079784    DB84000000001297 N  599378639007                            000000000+                     09573                                N          121   0000000000000.00 0000000.00   0000000.00                             000000000000000                                                                                                                                                     01418  000000000000 0000000000000.25     00800 00000                  
08460830489160001G2675906759000000328478001358000000330MCALLEN                  TX           5 D                00                                      NNNN                          000000000000                                                                   78639007                                                                                                                                                                                                                                                                                                                                                                                                                                               
08460840489160039BH6759067590000000288180088880000090170621202317223000000000004168    0000090001420001N8008886759C06222023042                                                                                                                                                                                                                                                                                                                                                                                                                                                                                                                                                                                              
08460850489160040DT67590675900000002881800888800000010180088824001193172900014200013062120230000000416817223000000000004168422921XXXXXX8580       VS11    0001111   NYV1 A E583172700339720N840000000004168RMBK00    07DNHAPPY HIPPIE             055634    VD84000000004168 N  549976487169                            000000000+                F DF 00381                     000000000  N000000000       0000000000000.00 0000000.00   0000000.00                             000000000000000                                                                                                                                                     01418 A000000000000 0000000000000.48     00800 01500                  
08460860489160001E167590675900000002881800888800000010100E068C80099 00000000000.004040404040404040404040404040404040404040404040404006011203A00000000000000000000000404040404040404040404040404040  000008402000000000000023062180C004BAA3F9C2722CFA4E2E404040400840A0000000031010000000000000000000086400280382000000000000000000004040404040404040 000000041.68 000000000.004040400000000000000000    80                                                                                                                                                                                                                                                                                                                  
08460870489160002G2675906759000000028818008888000000101SEVIERVILLE              TN           5 D                00                                      NNNN00 N 00                   000000000000                                                                   76487169                                                                                                                                                                                                                                                                                                                                                                                                                                               
08460880489160041BH6759067590000000288180088880000090170621202317223000000000032893    0000090001530008N8008886759C06222023153                                                                                                                                                                                                                                                                                                                                                                                                                                                                                                                                                                                              
08460890489160042DT67590675900000002881800888800000010180088824001193172900015300010062120230000000182717223000000000032893421783XXXXXX4327       VS11    0001111   NYV1 A E383172539547452N840000000001827K8GW00    05DNHAPPY HIPPIE             095019    VS84000000001827 N  549976487158                            000000000+                A CA 12110                     000000000  N000000000 493   0000000000000.00 0000000.00   0000000.00                             000000000000000                                                                                                                                                     01418 A000000000000 0000000000000.38     01510 01000                  
08460900489160001E167590675900000002881800888800000010100E0F8C800DD 00000000000.004040404040404040404040404040404040404040404040404006011203A0A000000000000000000000404040404040404040404040404040  00000840180080800080002306210823661A21D601895FBA2E65404040400840A000000003101000000000000000000071C9DAED0080000000000000000000004040401E40404040 000000018.27 000000000.001E00000000000000000000    80                                                                                                                                                                                                                                                                                                                  
08460910489160002G2675906759000000028818008888000000101SEVIERVILLE              TN           5 C                00                                      NNNN00 N 00                   000000000000                                                                   76487158                                                                                                                                                                                                                                                                                                                                                                                                                                               
08460920489160043DT67590675900000002881800888800000010180088824001193172900015300028062120230000000523217223000000000032893419090XXXXXX2103       VS11    0001111   NYV1 A E383172590229065N840000000005232RDVV00    05DNHAPPY HIPPIE             216230    VD84000000005232 N  549976487158                            000000000+                F DF 00381                     000000000  N000000000       0000000000000.00 0000000.00   0000000.00                             000000000000000                                                                                                                                                     01418 A000000000000 0000000000000.57     00800 01500                  
08460930489160001E167590675900000002881800888800000010100E0F8C80324 00000000000.004040404040404040404040404040404040404040404040404006010A03A0A000000000000000000000404040404040404040404040404040  000208401800808000800023062136C03C11BCAA8679FD8AE7CD404040400840A0000000031010000000000000000000664316FEB920F11030300000000000004040401E40404040 000000052.32 000000000.001E00000000000000000000    80                                                                                                                                                                                                                                                                                                                  
08460940489160002G2675906759000000028818008888000000101SEVIERVILLE              TN           5 D                00                                      NNNN00 N 00                   000000000000                                                                   76487158                                                                                                                                                                                                                                                                                                                                                                                                                                               
08460950489160044DT67590675900000002881800888800000010180088824001193172900015300036062120230000000298817223000000000032893449507XXXXXX1514       VS11    0001111   NYV1 A E463172661793698N8400000000029888MDK00    05DNHAPPY HIPPIE             042259    VD84000000002988 N  549976487158                            000000000+                F DF 00381                     000000000  N000000000       0000000000000.00 0000000.00   0000000.00                             000000000000000                                                                                                                                                     01418 A000000000000 0000000000000.39     00800 01500                  
08460960489160001E167590675900000002881800888800000010100E0F8C804E9 00000000000.004040404040404040404040404040404040404040404040404006011203A00000000000000000000000404040404040404040404040404040  0000084018008080008000230621F8640035EE990D5BF8C3A82B404040400840A0000000031010000000000000000000404040404040404040404040404040404040401E40404040 000000029.88 000000000.001E00000000000000000000    80                                                                                                                                                                                                                                                                                                                  
08460970489160002G2675906759000000028818008888000000101SEVIERVILLE              TN           5 D                00                                      NNNN00 N 00                   000000000000                                                                   76487158                                                                                                                                                                                                                                                                                                                                                                                                                                               
08460980489160045DT67590675900000002881800888800000010180088824001193172900015300044062120230000000274317223000000000032893445115XXXXXX4748       VS11    0001111   NYV1 A E383172673631168N840000000002743RVJD00    05DNHAPPY HIPPIE             768470    VD84000000002743 N  549976487158                            000000000+                F DF 10433                     000000000  Y000000000 338   0000000000000.00 0000000.00   0000000.00                             000000000000000                                                                                                                                                     01418 A000000000000 0000000000000.23     00050 02200                  
08460990489160001E167590675900000002881800888800000010100E0F8C801BE 00000000000.004040404040404040404040404040404040404040404040404006011203A08000000000000000000000404040404040404040404040404040  00010840180080800080002306212DBE719960089576B678B6AF404040400840A00000000310100000000000000000002BE471AA0082000000000000000000004040401E40404040 000000027.43 000000000.001E00000000000000000000    80                                                                                                                                                                                                                                                                                                                  
08461000489160002G2675906759000000028818008888000000101SEVIERVILLE              TN           5 D                00                                      NNNN00 N 00                   000000000000                                                                   76487158                                                                                                                                                                                                                                                                                                                                                                                                                                               
08461010489160046DT67590675900000002881800888800000010180088877287283172900015300053062120230000000778617223000000000032893551672XXXXXX4049       MS02WI09          NY 1 0 AMDSS0ZV390621  N840000000007786          05DNHAPPY HIPPIE             228877    MD84000000007786 N  549976487158                            000000000+M10101C5434C    MDS  00402                     000000000  N                0000000000000.00 0000000.00   0000000.00                             000000000000000                                                                                                                                                   B101418  000000000000 0000000000000.97     01050 01500                  
08461020489160001E167590675900000002881800888800000010100E0F8C800B4 00000000000.00404040404040404040404040404040404040404040404040400110A00001220000000000000000000000FF00000000000000000000000000  0000084018008000008000230621F59A44C28B274A70495CF01A404040400840A0000000041010000000000000000000000D34700900633C00120000000000004040401E40404040 000000077.86 000000000.001E03000000000000000000    80                                                                                                                                                                                                                                                                                                                  
08461030489160002G2675906759000000028818008888000000101SEVIERVILLE              TN           5 S                                                        NNNN              000000000000000000000000                                                                   76487158                                                                                                                                                                                                                                                                                                                                                                                                                                               
08461040489160047DT67590675900000002881800888800000010180088877287283172900015300061062120230000000877617223000000000032893517805XXXXXX2737       MS02WI09          NY 1 0 AMWEOQWJ510621  N840000000008776          05DNHAPPY HIPPIE             00598P    MC84000000008776 N  549976487158                            000000000+M10101C5434C    MWE  00743                     000000000  N                0000000000000.00 0000000.00   0000000.00                             000000000000000                                                                                                                                                   B101418  000000000000 0000000000002.06     02300 00400                  
