00012580115290002BH6759067590000001330080010280000090170605202315623000000000326965    0000090001105254Y8001026759C06062023110                                                                                                                                                                                                                                                                                                                                                                                                                                                                                                                                                                                              
00012590115290003DT67590675900000013300800102800000010180010224001193156900011048860060420230000001598415623000000000326965448233XXXXXX8122               2111111   NYV4 A7W383152495134230N840000000015984RPWK00    01DNCBD8666317293            084513    VD84000000015984 NDR549977133133   61690E8DB5T7343E5CFFD88  000000000+                F DF 10420                     000000000  Y000000000 338   0000000000000.00 0000000.00   0000000.00                             000000000000000                                                                                                                                                     01424 G000000015984 0000000000000.30     00050 02200                  
00012600115290003DR67590675900000013300800102800000010161690E8DB5T7343E5CFFD88  Y000000015984                 P1                                                                                                                                                                                                                                                                                                                                                                                                                                                                                                                                                                                                            
00012610115290001P16759067590000001330080010280000001010000000000000000                             2000000000000000000000000              000000000000                    0000000000000000000000000                    000000000000                                                                                                                                                                                                                                                                                                                                                                                                                                                                                        
00012620115290002G2675906759000000133008001028000000101866-6317293              GA           9 D                00                                      NNNN   N                      000000000000                                                                   77133133                                                                                                                                                                                                                                                                                                                                                                                                                                               
00012630115290004DT67590675900000013300800102800000010180010224001193156900011049025060420230000001272815623000000000326965402316XXXXXX0256               2111111   NYV4 A7W463152693076150N840000000012728N6F700    01DNCBD8666317293            051507    VS84000000012728 NDR549977133133   BE1EFE7590TE4F9169A1949  000000000+                A CA 12106                     000000000  N000000000 492   0000000000000.00 0000000.00   0000000.00                             000000000000000                                                                                                                                                     01424 G000000012728 0000000000002.51     01890 01000                  
00012640115290004DR675906759000000133008001028000000101BE1EFE7590TE4F9169A1949  Y000000012728                 P1                                                                                                                                                                                                                                                                                                                                                                                                                                                                                                                                                                                                            
00012650115290001P16759067590000001330080010280000001010000000000000000                             2000000000000000000000000              000000000000                    0000000000000000000000000                    000000000000                                                                                                                                                                                                                                                                                                                                                                                                                                                                                        
00012660115290002G2675906759000000133008001028000000101866-6317293              GA           9 C                00                                      NNNN   N                      000000000000                                                                   77133133                                                                                                                                                                                                                                                                                                                                                                                                                                               
00012670115290005DT67590675900000013300800102800000010180010224001193156900011049157060420230000001987015623000000000326965410881XXXXXX7218               2111111   NYV4 A7W463152740311928N840000000019870DZK400    01DNCBD8666317293            226767    VD84000000019870 NDR549977133133   C28E298D6ATA3239C5BDAB2  000000000+                F DF 00415                     000000000  N000000000       0000000000000.00 0000000.00   0000000.00                             000000000000000                                                                                                                                                     01424 G000000019870 0000000000003.43     01650 01500                  
00012680115290005DR675906759000000133008001028000000101C28E298D6ATA3239C5BDAB2  Y000000019870                 P1                                                                                                                                                                                                                                                                                                                                                                                                                                                                                                                                                                                                            
00012690115290001P16759067590000001330080010280000001010000000000000000                             2000000000000000000000000              000000000000                    0000000000000000000000000                    000000000000                                                                                                                                                                                                                                                                                                                                                                                                                                                                                        
00012700115290002G2675906759000000133008001028000000101866-6317293              GA           9 D                00                                      NNNN   N                      000000000000                                                                   77133133                                                                                                                                                                                                                                                                                                                                                                                                                                               
00012710115290006DT67590675900000013300800102800000010180010224001193156900011049165060420230000001499115623000000000326965410039XXXXXX8515               2111111   NYV4 A7W583152740513088N8400000000149918KJR00    01DNCBD8666317293            89269D    VS84000000014991 NDR549977133133   382D27F137T5FD479FD7082  000000000+                D CD 12109                     000000000  N000000000 498   0000000000000.00 0000000.00   0000000.00                             000000000000000                                                                                                                                                     01424 G000000014991 0000000000003.85     02500 01000                  
00012720115290006DR675906759000000133008001028000000101382D27F137T5FD479FD7082  Y000000014991                 P1                                                                                                                                                                                                                                                                                                                                                                                                                                                                                                                                                                                                            
00012730115290001P16759067590000001330080010280000001010000000000000000                             2000000000000000000000000              000000000000                    0000000000000000000000000                    000000000000                                                                                                                                                                                                                                                                                                                                                                                                                                                                                        
00012740115290002G2675906759000000133008001028000000101866-6317293              GA           9 C                00                                      NNNN   Y                      000000000000                                                                   77133133                                                                                                                                                                                                                                                                                                                                                                                                                                               
00012750115290007DT67590675900000013300800102800000010180010287287283156900011049174060420230000001400815623000000000326965552368XXXXXX7978       ME03KE06PT01      NY 4607AMCWGMXB6A0601  N840000000014008          81DNCBD8666317293            51105Z    MC84000000014008 NDR549977133133   D433688CD4TC85EE3A0AFA4  000000000+600450S00130    MCW  00642                     000000000  N                0000000000000.00 0000000.00   0000000.00                             000000000000000                                                                                                                                                   U001424  000000000000 0000000000003.18     02200 01000                  
00012760115290007DR675906759000000133008001028000000101D433688CD4TC85EE3A0AFA4  Y000000000000                                                                                                                                                                                                                                                                                                                                                                                                                                                                                                                                                                                                                               
00012770115290001G2675906759000000133008001028000000101866-6317293              GA           9 W               210                                      NNNN           210000000000000000000000000                        7                                          77133133                                                                                                                                                                                                                                                                                                                                                                                                                                               
00012780115290008DT67590675900000013300800102800000010180010287287283156900011049547060420230000001987015623000000000326965559591XXXXXX1784       ME03KE06PT01      NY 4607AMCWTEPR0Y0601  N840000000019870          81DNCBD8666317293            05179S    MC84000000019870 NDR549977133133   1C5D95D4CBTB7DFCC93170C  000000000+600450S00130    MCW  02182                     000000000  N                0000000000000.00 0000000.00   0000000.00                             000000000000000                                                                                                                                                   U001424  000000000000 0000000000005.27     02600 01000                  
00012790115290008DR6759067590000001330080010280000001011C5D95D4CBTB7DFCC93170C  Y000000000000                                                                                                                                                                                                                                                                                                                                                                                                                                                                                                                                                                                                                               
00012800115290001G2675906759000000133008001028000000101866-6317293              GA           9 W               210                                      NNNN           210000000000000000000000000                        7                                          77133133                                                                                                                                                                                                                                                                                                                                                                                                                                               
00012810115290009DT67590675900000013300800102800000010180010224001193156900011049603060420230000001799115623000000000326965443589XXXXXX3619               2111111   NYV4 A7W463153099055364N840000000017991J7K200    01DNCBD8666317293            921837    VD84000000017991 NDR549977133133   26FA2ECE75T9019D151E2B6  000000000+                F DF 10420                     000000000  Y000000000 338   0000000000000.00 0000000.00   0000000.00                             000000000000000                                                                                                                                                     01424 G000000017991 0000000000000.31     00050 02200                  
00012820115290009DR67590675900000013300800102800000010126FA2ECE75T9019D151E2B6  Y000000017991                 P1                                                                                                                                                                                                                                                                                                                                                                                                                                                                                                                                                                                                            
00012830115290001P16759067590000001330080010280000001010000000000000000                             2000000000000000000000000              000000000000                    0000000000000000000000000                    000000000000                                                                                                                                                                                                                                                                                                                                                                                                                                                                                        
00012840115290002G2675906759000000133008001028000000101866-6317293              GA           9 D                00                                      NNNN   N                      000000000000                                                                   77133133                                                                                                                                                                                                                                                                                                                                                                                                                                               
00012850115290010DT67590675900000013300800102800000010180010287287283156900011049612060420230000002487015623000000000326965522116XXXXXX2549       ME03KE06MS02      NY 4607AMDJIGOKX20601  N840000000024870          81DNCBD8666317293            079873    MD84000000024870 NDR549977133133   16A6076E26TAE395DC4E3FD  000000000+600450S00130    MDJ  00401                     000000000  N                0000000000000.00 0000000.00   0000000.00                             000000000000000                                                                                                                                                   U001424  000000000000 0000000000004.25     01650 01500                  
00012860115290010DR67590675900000013300800102800000010116A6076E26TAE395DC4E3FD  Y000000000000                                                                                                                                                                                                                                                                                                                                                                                                                                                                                                                                                                                                                               
00012870115290001G2675906759000000133008001028000000101866-6317293              GA           9 J               210                                      NNNN           210000000000000000000000000                                                                   77133133                                                                                                                                                                                                                                                                                                                                                                                                                                               
00012880115290011DT67590675900000013300800102800000010180010224001193156900011051211060420230000001987015623000000000326965441811XXXXXX8071               2111111   NYV4 A7W583156034095734N840000000019870N3TF00    01DNCBD8666317293            902264    VS84000000019870 NDR549977133133   B330202D62T3B8892043C79  000000000+                A CA 12106                     000000000  N000000000 492   0000000000000.00 0000000.00   0000000.00                             000000000000000                                                                                                                                                     01424 G000000019870 0000000000003.86     01890 01000                  
00012890115290011DR675906759000000133008001028000000101B330202D62T3B8892043C79  Y000000019870                 P1                                                                                                                                                                                                                                                                                                                                                                                                                                                                                                                                                                                                            
00012900115290001P16759067590000001330080010280000001010000000000000000                             2000000000000000000000000              000000000000                    0000000000000000000000000                    000000000000                                                                                                                                                                                                                                                                                                                                                                                                                                                                                        
00012910115290002G2675906759000000133008001028000000101866-6317293              GA           9 C                00                                      NNNN   Y                      000000000000                                                                   77133133                                                                                                                                                                                                                                                                                                                                                                                                                                               
00012920115290012DT67590675900000013300800102800000010180010224001193156900011051294060420230000001274015623000000000326965440393XXXXXX8000               2111111   NYV4 A7W583156069727630N840000000012740C38B00    01DNCBD8666317293            719777    VD84000000012740 NDR549977133133   DFB9E0F842T7098E81C8568  000000000+                F PF 08175                     000000000  N000000000       0000000000000.00 0000000.00   0000000.00                             000000000000000                                                                                                                                                     01424 G000000012740 0000000000002.43     01750 02000                  
00012930115290012DR675906759000000133008001028000000101DFB9E0F842T7098E81C8568  Y000000012740                 P1                                                                                                                                                                                                                                                                                                                                                                                                                                                                                                                                                                                                            
00012940115290001P16759067590000001330080010280000001010000000000000000                             2000000000000000000000000              000000000000                    0000000000000000000000000                    000000000000                                                                                                                                                                                                                                                                                                                                                                                                                                                                                        
00012950115290002G2675906759000000133008001028000000101866-6317293              GA           9 P                00                                      NNNN   N                      000000000000                                                                   77133133                                                                                                                                                                                                                                                                                                                                                                                                                                               
00012960115290013DT67590675900000013300800102800000010180010224001193156900011051302060420230000001987015623000000000326965411507XXXXXX9878               2111111   NYV4 A7W303156084033004N840000000019870RN4400    01DNCBD8666317293            001216    VB84000000019870 NDR549977133133   32BECBBE4ETA5D3F7F03359  000000000+                G3CG308002                     000000000  N000000000 381   0000000000000.00 0000000.00   0000000.00                             000000000000000                                                                                                                                                     01424 G000000019870 0000000000005.66     02800 01000                  
00012970115290013DR67590675900000013300800102800000010132BECBBE4ETA5D3F7F03359  Y000000019870                 P1                                                                                                                                                                                                                                                                                                                                                                                                                                                                                                                                                                                                            
00012980115290001P16759067590000001330080010280000001010000000000000000                             2000000000000000000000000              000000000000                    0000000000000000000000000                    000000000000                                                                                                                                                                                                                                                                                                                                                                                                                                                                                        
00012990115290002G2675906759000000133008001028000000101866-6317293              GA           9 C                00                                      NNNN   Y                      000000000000                                                                   77133133                                                                                                                                                                                                                                                                                                                                                                                                                                               
00013000115290014DT67590675900000013300800102800000010180010224001193156900011051310060420230000001987015623000000000326965414740XXXXXX0531               2111111   NYV4 A7W303156084033137N840000000019870PS5V00    01DNCBD8666317293            00117D    VS84000000019870 NDR549977133133   272A3EFC66T221E46A97939  000000000+                D CD 12109                     000000000  N000000000 498   0000000000000.00 0000000.00   0000000.00                             000000000000000                                                                                                                                                     01424 G000000019870 0000000000005.07     02500 01000                  
00013010115290014DR675906759000000133008001028000000101272A3EFC66T221E46A97939  Y000000019870                 P1                                                                                                                                                                                                                                                                                                                                                                                                                                                                                                                                                                                                            
00013020115290001P16759067590000001330080010280000001010000000000000000                             2000000000000000000000000              000000000000                    0000000000000000000000000                    000000000000                                                                                                                                                                                                                                                                                                                                                                                                                                                                                        
00013030115290002G2675906759000000133008001028000000101866-6317293              GA           9 C                00                                      NNNN   Y                      000000000000                                                                   77133133                                                                                                                                                                                                                                                                                                                                                                                                                                               
00013040115290015DT67590675900000013300800102800000010180010224001193156900011051336060420230000002146015623000000000326965435722XXXXXX7089               2111111   NYV4 A7W463156089411190N840000000021460XHBK00    01DNCBD8666317293            012845    VD84000000021460 NDR549977133133   97DAF24F3DT7BC9784EE93F  000000000+                F DF 00415                     000000000  N000000000       0000000000000.00 0000000.00   0000000.00                             000000000000000                                                                                                                                                     01424 G000000021460 0000000000003.69     01650 01500                  
00013050115290015DR67590675900000013300800102800000010197DAF24F3DT7BC9784EE93F  Y000000021460                 P1                                                                                                                                                                                                                                                                                                                                                                                                                                                                                                                                                                                                            
00013060115290001P16759067590000001330080010280000001010000000000000000                             2000000000000000000000000              000000000000                    0000000000000000000000000                    000000000000                                                                                                                                                                                                                                                                                                                                                                                                                                                                                        
00013070115290002G2675906759000000133008001028000000101866-6317293              GA           9 D                00                                      NNNN   N                      000000000000                                                                   77133133                                                                                                                                                                                                                                                                                                                                                                                                                                               
00013080115290016DT67590675900000013300800102800000010680010274001193156900011051562060520230000001272815623000000000326965400022XXXXXX0625               0000000   NYV4 07T383156497526026N840000000012728WW4B00    01CNCBD8666317293            726678    VD84000000012728 NDR549977133133   CA29DF6D9ATAC35901DF5FB  000000000+                F DF 08168                     000000000  Y000000000 369   0000000000000.00 0000000.00   0000000.00                             000000000000000                                                                                                                                                     01424  000000012728 0000000000000.00     00000 00000                  
00013090115290016DR675906759000000133008001028000000106CA29DF6D9ATAC35901DF5FB  Y000000012728                 P1                                                                                                                                                                                                                                                                                                                                                                                                                                                                                                                                                                                                            
00013100115290001P16759067590000001330080010280000001060000000000000000                             2000000000000000000000000              000000000000                    0000000000000000000000000                    000000000000                                                                                                                                                                                                                                                                                                                                                                                                                                                                                        
00013110115290002G2675906759000000133008001028000000106866-6317293              GA           9 D                00                                      NNNN   N                      000000000000                                                                   77133133                                                                                                                                                                                                                                                                                                                                                                                                                                               
00013120115290017DT67590675900000013300800102800000010180010287287283156900011051584060520230000000149515623000000000326965518941XXXXXX4809       ME03KE06MS02      NY 4607AMWEGMG7Y40605  N840000000001495          81DNCBD8666317293            44823Z    MC84000000001495 NDR549977133133   4F6A19128FTCA202B01DFE2  000000000+600450S00130    MWE  00737                     000000000  N                0000000000000.00 0000000.00   0000000.00                             000000000000000                                                                                                                                                   U001424  000000000000 0000000000000.49     02600 01000                  
00013130115290017DR6759067590000001330080010280000001014F6A19128FTCA202B01DFE2  Y000000000000                                                                                                                                                                                                                                                                                                                                                                                                                                                                                                                                                                                                                               
00013140115290001G2675906759000000133008001028000000101866-6317293              GA           9 E               210                                      NNNN           210000000000000000000000000                        7                                          77133133                                                                                                                                                                                                                                                                                                                                                                                                                                               
00013150115290018DT67590675900000013300800102800000010680010274001193156900011051604060520230000000999815623000000000326965414740XXXXXX7696               0000000   NYV4 07T583156539876347N840000000009998CBVX00    01CNCBD8666317293            08424D    VS84000000009998 NDR549977133133   24F7FB06ABT905CF5056F49  000000000+                D CD 00245                     000000000  N000000000 166   0000000000000.00 0000000.00   0000000.00                             000000000000000                                                                                                                                                     01424  000000009998-0000000000001.76     01760 00000                  
00013160115290018DR67590675900000013300800102800000010624F7FB06ABT905CF5056F49  Y000000009998                 P1                                                                                                                                                                                                                                                                                                                                                                                                                                                                                                                                                                                                            
00013170115290001P16759067590000001330080010280000001060000000000000000                             2000000000000000000000000              000000000000                    0000000000000000000000000                    000000000000                                                                                                                                                                                                                                                                                                                                                                                                                                                                                        
00013180115290002G2675906759000000133008001028000000106866-6317293              GA           9 C                00                                      NNNN   Y                      000000000000                                                                   77133133                                                                                                                                                                                                                                                                                                                                                                                                                                               
00013190115290019DT67590675900000013300800102800000010680010287287283156900011051618060520230000002255015623000000000326965552312XXXXXX9480                         NY 4607AMCWRUKZ9E0605  N840000000022550          81CNCBD8666317293            005185    MC84000000022550 NDR549977133133   4FDB284EA5T168A920F34DC  000000000+600450S00130    MCW  00565                     000000000  N                0000000000000.00 0000000.00   0000000.00                             000000000000000                                                                                                                                                     01424  000000000000-0000000000003.95     01750 00000                  
00013200115290019DR6759067590000001330080010280000001064FDB284EA5T168A920F34DC  R000000000000                                                                                                                                                                                                                                                                                                                                                                                                                                                                                                                                                                                                                               
00013210115290001G2675906759000000133008001028000000106866-6317293              GA           9 W               210                                      NNNN           210000000000000000000000000                        7                                          77133133                                                                                                                                                                                                                                                                                                                                                                                                                                               
00013220115290020DT67590675900000013300800102800000010680010287287283156900011051741060520230000001200815623000000000326965516693XXXXXX1554                         NY 4607AMDSAM2YY40605  N840000000012008          81CNCBD8666317293            007948    MD84000000012008 NDR549977133133   0D661D26C3TD7EE796FC218  000000000+600450S00130    MDS  00560                     000000000  N                0000000000000.00 0000000.00   0000000.00                             000000000000000                                                                                                                                                     01424  000000000000 0000000000000.00     00000 00000                  
00013230115290020DR6759067590000001330080010280000001060D661D26C3TD7EE796FC218  U000000000000                                                                                                                                                                                                                                                                                                                                                                                                                                                                                                                                                                                                                               
00013240115290001G2675906759000000133008001028000000106866-6317293              GA           9 S               210                                      NNNN           210000000000000000000000000                        7                                          77133133                                                                                                                                                                                                                                                                                                                                                                                                                                               
00013250115290021DT67590675900000013300800102800000010180010224001193156900011051831060520230000002146015623000000000326965443044XXXXXX0706               2111111   NYV4 A7W303156588040481N840000000021460XSSH00    01DNCBD8666317293            516117    VD84000000021460 NDR549977133133   E734FE4F4BTF33940B8D328  000000000+                F DF 10420                     000000000  Y000000000 338   0000000000000.00 0000000.00   0000000.00                             000000000000000                                                                                                                                                     01424 G000000021460 0000000000000.33     00050 02200                  
00013260115290021DR675906759000000133008001028000000101E734FE4F4BTF33940B8D328  Y000000021460                 P1                                                                                                                                                                                                                                                                                                                                                                                                                                                                                                                                                                                                            
00013270115290001P16759067590000001330080010280000001010000000000000000                             2000000000000000000000000              000000000000                    0000000000000000000000000                    000000000000                                                                                                                                                                                                                                                                                                                                                                                                                                                                                        
00013280115290002G2675906759000000133008001028000000101866-6317293              GA           9 D                00                                      NNNN   N                      000000000000                                                                   77133133                                                                                                                                                                                                                                                                                                                                                                                                                                               
00013290115290022DT67590675900000013300800102800000010180010224001193156900011051856060520230000001987015623000000000326965442719XXXXXX5452               2111111   NYV4 A7W583156590914974N840000000019870C5MQ00    01DNCBD8666317293            961572    VD84000000019870 NDR549977133133   EA51AB2564T3A4741059998  000000000+                F DF 00415                     000000000  N000000000       0000000000000.00 0000000.00   0000000.00                             000000000000000                                                                                                                                                     01424 G000000019870 0000000000003.43     01650 01500                  
00013300115290022DR675906759000000133008001028000000101EA51AB2564T3A4741059998  Y000000019870                 P1                                                                                                                                                                                                                                                                                                                                                                                                                                                                                                                                                                                                            
00013310115290001P16759067590000001330080010280000001010000000000000000                             2000000000000000000000000              000000000000                    0000000000000000000000000                    000000000000                                                                                                                                                                                                                                                                                                                                                                                                                                                                                        
00013320115290002G2675906759000000133008001028000000101866-6317293              GA           9 D                00                                      NNNN   N                      000000000000                                                                   77133133                                                                                                                                                                                                                                                                                                                                                                                                                                               
00013330115290023DT67590675900000013300800102800000010180010224001193156900011051898060520230000002106215623000000000326965432672XXXXXX4788               2111111   NYV4 A7W303156597706333N840000000021062WBRC00    01DNCBD8666317293            023610    VD84000000021062 NDR549977133133   10C3FE18C6TF7715C2783B6  000000000+                F DF 00415                     000000000  N000000000       0000000000000.00 0000000.00   0000000.00                             000000000000000                                                                                                                                                     01424 G000000021062 0000000000003.63     01650 01500                  
00013340115290023DR67590675900000013300800102800000010110C3FE18C6TF7715C2783B6  N000000021062                 P1                                                                                                                                                                                                                                                                                                                                                                                                                                                                                                                                                                                                            
00013350115290001P16759067590000001330080010280000001010000000000000000                             2000000000000000000000000              000000000000                    0000000000000000000000000                    000000000000                                                                                                                                                                                                                                                                                                                                                                                                                                                                                        
00013360115290002G2675906759000000133008001028000000101866-6317293              GA           9 D                00                                      NNNN   N                      000000000000                                                                   77133133                                                                                                                                                                                                                                                                                                                                                                                                                                               
00013370115290024DT67590675900000013300800102800000010680010274001193156900011051901060520230000000749515623000000000326965410039XXXXXX8515               0000000   NYV4 07T583156599951125N840000000007495K64R00    01CNCBD8666317293            30889D    VS84000000007495 NDR549977133133   382D27F137T5FD479FD7082  000000000+                D CD 00245                     000000000  N000000000 166   0000000000000.00 0000000.00   0000000.00                             000000000000000                                                                                                                                                     01424  000000007495-0000000000001.32     01760 00000                  
00013380115290024DR675906759000000133008001028000000106382D27F137T5FD479FD7082  U000000007495                 P1                                                                                                                                                                                                                                                                                                                                                                                                                                                                                                                                                                                                            
00013390115290001P16759067590000001330080010280000001060000000000000000                             2000000000000000000000000              000000000000                    0000000000000000000000000                    000000000000                                                                                                                                                                                                                                                                                                                                                                                                                                                                                        
00013400115290002G2675906759000000133008001028000000106866-6317293              GA           9 C                00                                      NNNN   Y                      000000000000                                                                   77133133                                                                                                                                                                                                                                                                                                                                                                                                                                               
00013410115290025DT67590675900000013300800102800000010180010287287283156900011051923060520230000002947915623000000000326965511374XXXXXX0018       ME03KE06MS02      NY 4607AMDJJM358Y0605  N840000000029479          81DNCBD8666317293            121711    MD84000000029479 NDR549977133133   9102B3B048TC98C80611BEB  000000000+600450S00130    MDJ  00401                     000000000  N                0000000000000.00 0000000.00   0000000.00                             000000000000000                                                                                                                                                   U001424  000000000000 0000000000005.01     01650 01500                  
00013420115290025DR6759067590000001330080010280000001019102B3B048TC98C80611BEB  Y000000000000                                                                                                                                                                                                                                                                                                                                                                                                                                                                                                                                                                                                                               
00013430115290001G2675906759000000133008001028000000101866-6317293              GA           9 J               210                                      NNNN           210000000000000000000000000                                                                   77133133                                                                                                                                                                                                                                                                                                                                                                                                                                               
00013440115290026DT67590675900000013300800102800000010180010224001193156900011051955060520230000002187715623000000000326965470132XXXXXX7701               2111111   NYV4 A7W583156638262545N840000000021877N6DK00    01DNCBD8666317293            114630    VD84000000021877 NDR549977133133   07C4C10EE5T573B369A92E1  000000000+                F DF 10420                     000000000  Y000000000 338   0000000000000.00 0000000.00   0000000.00                             000000000000000                                                                                                                                                     01424 G000000021877 0000000000000.33     00050 02200                  
00013450115290026DR67590675900000013300800102800000010107C4C10EE5T573B369A92E1  Y000000021877                 P1                                                                                                                                                                                                                                                                                                                                                                                                                                                                                                                                                                                                            
00013460115290001P16759067590000001330080010280000001010000000000000000                             2000000000000000000000000              000000000000                    0000000000000000000000000                    000000000000                                                                                                                                                                                                                                                                                                                                                                                                                                                                                        
00013470115290002G2675906759000000133008001028000000101866-6317293              GA           9 D                00                                      NNNN   N                      000000000000                                                                   77133133                                                                                                                                                                                                                                                                                                                                                                                                                                               
00013480115290027DT67590675900000013300800102800000010680010274001193156900011051968060520230000001987015623000000000326965400802XXXXXX1755               0000000   NYV4 07T463156646956991N840000000019870SFBC00    01CNCBD8666317293            166056    VS84000000019870 NDR549977133133   9A80EBB88DT295B58FF095F  000000000+                A CA 00245                     000000000  N000000000 166   0000000000000.00 0000000.00   0000000.00                             000000000000000                                                                                                                                                     01424  000000019870-0000000000003.50     01760 00000                  
00013490115290027DR6759067590000001330080010280000001069A80EBB88DT295B58FF095F  U000000019870                 P1                                                                                                                                                                                                                                                                                                                                                                                                                                                                                                                                                                                                            
00013500115290001P16759067590000001330080010280000001060000000000000000                             2000000000000000000000000              000000000000                    0000000000000000000000000                    000000000000                                                                                                                                                                                                                                                                                                                                                                                                                                                                                        
00013510115290002G2675906759000000133008001028000000106866-6317293              GA           9 C                00                                      NNNN   N                      000000000000                                                                   77133133                                                                                                                                                                                                                                                                                                                                                                                                                                               
00013520115290028DT67590675900000013300800102800000010180010287287283156900011052046060520230000001309015623000000000326965521333XXXXXX0308       ME03KE06MS02      NY 4607AMWEBYD1B40605  N840000000013090          81DNCBD8666317293            00508P    MC84000000013090 NDR549977133133   5FFC19D93BTC9450C1348BF  000000000+600450S00130    MWE  00737                     000000000  N                0000000000000.00 0000000.00   0000000.00                             000000000000000                                                                                                                                                   U001424  000000000000 0000000000003.50     02600 01000                  
00013530115290028DR6759067590000001330080010280000001015FFC19D93BTC9450C1348BF  Y000000000000                                                                                                                                                                                                                                                                                                                                                                                                                                                                                                                                                                                                                               
00013540115290001G2675906759000000133008001028000000101866-6317293              GA           9 E               210                                      NNNN           210000000000000000000000000                        7                                          77133133                                                                                                                                                                                                                                                                                                                                                                                                                                               
00013550115290029DT67590675900000013300800102800000010680010287287283156900011052707060520230000002733215623000000000326965528749XXXXXX5506                         NY94607N         0605  N840000000000000          81CNCBD8666317293                      MD84000000027332 N  549977133133   66BEAE860ETD8DA706AD53F  000000000+600450S00130    MDJ  10828                     000000000  1                0000000000000.00 0000000.00   0000000.00                             000000000000000                                                                                                                                                     01424  000000000000 0000000000000.00     00000 00000                  
00013560115290001G2675906759000000133008001028000000106866-6317293              GA           9 J               210                                      NNNN           210000000000000000000000000                                                                   77133133                                                                                                                                                                                                                                                                                                                                                                                                                                               
00013570115290030DT67590675900000013300800102800000010680010287287283156900011052715060520230000002733215623000000000326965528749XXXXXX5506                         NY94607N         0605  N840000000000000          81CNCBD8666317293                      MD84000000027332 N  549977133133   D7F029025ATB7F35E6BF654  000000000+600450S00130    MDJ  10828                     000000000  1                0000000000000.00 0000000.00   0000000.00                             000000000000000                                                                                                                                                     01424  000000000000 0000000000000.00     00000 00000                  
00013580115290001G2675906759000000133008001028000000106866-6317293              GA           9 J               210                                      NNNN           210000000000000000000000000                                                                   77133133                                                                                                                                                                                                                                                                                                                                                                                                                                               
00013590115290031DT67590675900000013300800102800000010180010287287283156900011052111060520230000002112215623000000000326965543775XXXXXX5155       ME03KE06MS02      NY 4607AMCGP2IGB30605  N840000000021122          81DNCBD8666317293            005755    MC84000000021122 NDR549977133133   29EC2E7C1FT2FBFD7D88BFF  000000000+600450S00130    MCG  00013                     000000000  N                0000000000000.00 0000000.00   0000000.00                             000000000000000                                                                                                                                                   U001424  000000000000 0000000000004.22     01950 01000                  
00013600115290031DR67590675900000013300800102800000010129EC2E7C1FT2FBFD7D88BFF  Y000000000000                                                                                                                                                                                                                                                                                                                                                                                                                                                                                                                                                                                                                               
00013610115290001G2675906759000000133008001028000000101866-6317293              GA           9 G               210                                      NNNN           210000000000000000000000000                                                                   77133133                                                                                                                                                                                                                                                                                                                                                                                                                                               
00013620115290032DT67590675900000013300800102800000010680010287287283156900011052210060520230000000300015623000000000326965517805XXXXXX5069                         NY 4607AMPLPEXA8Y0605  N840000000003000          81CNCBD8666317293            056638    MC84000000003000 NDR549977133133   139AD6E371TBFF557E9D178  000000000+600450S00130    MPL  00565                     000000000  N                0000000000000.00 0000000.00   0000000.00                             000000000000000                                                                                                                                                     01424  000000000000-0000000000000.53     01750 00000                  
00013630115290032DR675906759000000133008001028000000106139AD6E371TBFF557E9D178  Z000000000000                                                                                                                                                                                                                                                                                                                                                                                                                                                                                                                                                                                                                               
00013640115290001G2675906759000000133008001028000000106866-6317293              GA           9 L               210                                      NNNN           210000000000000000000000000                        7                                          77133133                                                                                                                                                                                                                                                                                                                                                                                                                                               
00013650115290033DT67590675900000013300800102800000010180010224001193156900011052250060520230000001723515623000000000326965426684XXXXXX5895               2111111   NYV4 A7W383156749543599N8400000000172359RRV00    01DNCBD8666317293            07438D    VS84000000017235 NDR549977133133   0E8112DA9CT044BE36BA93E  000000000+                D CD 12109                     000000000  N000000000 498   0000000000000.00 0000000.00   0000000.00                             000000000000000                                                                                                                                                     01424 G000000017235 0000000000004.41     02500 01000                  
00013660115290033DR6759067590000001330080010280000001010E8112DA9CT044BE36BA93E  Y000000017235                 P1                                                                                                                                                                                                                                                                                                                                                                                                                                                                                                                                                                                                            
00013670115290001P16759067590000001330080010280000001010000000000000000                             2000000000000000000000000              000000000000                    0000000000000000000000000                    000000000000                                                                                                                                                                                                                                                                                                                                                                                                                                                                                        
00013680115290002G2675906759000000133008001028000000101866-6317293              GA           9 C                00                                      NNNN   Y                      000000000000                                                                   77133133                                                                                                                                                                                                                                                                                                                                                                                                                                               
00013690115290034DT67590675900000013300800102800000010180010287287283156900011052269060520230000000158515623000000000326965542179XXXXXX5854       ME03KE06MS02      NY 4607AMDJXFC2B80605  N840000000001585          81DNCBD8666317293            440986    MD84000000001585 NDR549977133133   4FAA64F9F3T36F61AB2A500  000000000+600450S00130    MDJ  10813                     000000000  1                0000000000000.00 0000000.00   0000000.00                             000000000000000                                                                                                                                                   U001424  000000000000 0000000000000.23     00050 02200                  
00013700115290034DR6759067590000001330080010280000001014FAA64F9F3T36F61AB2A500  Z000000000000                                                                                                                                                                                                                                                                                                                                                                                                                                                                                                                                                                                                                               
00013710115290001G2675906759000000133008001028000000101866-6317293              GA           9 J               210                                      NNNN           210000000000000000000000000                        7                                          77133133                                                                                                                                                                                                                                                                                                                                                                                                                                               
00013720115290035DT67590675900000013300800102800000010180010287287283156900011052335060520230000001799115623000000000326965550114XXXXXX9380       ME03KE06MS02      NY 4607AMCSO0S7900605  N840000000017991          81DNCBD8666317293            005158    MC84000000017991 NDR549977133133   122A8C6D92T798FA58607B6  000000000+600450S00130    MCS  00013                     000000000  N                0000000000000.00 0000000.00   0000000.00                             000000000000000                                                                                                                                                   U001424  000000000000 0000000000003.61     01950 01000                  
00013730115290035DR675906759000000133008001028000000101122A8C6D92T798FA58607B6  Y000000000000                                                                                                                                                                                                                                                                                                                                                                                                                                                                                                                                                                                                                               
00013740115290001G2675906759000000133008001028000000101866-6317293              GA           9 S               210                                      NNNN           210000000000000000000000000                        7                                          77133133                                                                                                                                                                                                                                                                                                                                                                                                                                               
00013750115290036DT67590675900000013300800102800000010180010287287283156900011052384060520230000000137315623000000000326965542418XXXXXX9560       ME03KE06MS02      NY 4607AMPLU52PNF0605  N840000000001373          81DNCBD8666317293            03038B    MC84000000001373 NDR549977133133   75AEB2A7D2T5037BF30138D  000000000+600450S00130    MPL  00580                     000000000  N                0000000000000.00 0000000.00   0000000.00                             000000000000000                                                                                                                                                   U001424  000000000000 0000000000000.39     02100 01000                  
00013760115290036DR67590675900000013300800102800000010175AEB2A7D2T5037BF30138D  Y000000000000                                                                                                                                                                                                                                                                                                                                                                                                                                                                                                                                                                                                                               
00013770115290001G2675906759000000133008001028000000101866-6317293              GA           9 L               210                                      NNNN           210000000000000000000000000                        7                                          77133133                                                                                                                                                                                                                                                                                                                                                                                                                                               
00013780115290037DT67590675900000013300800102800000010180010287287283156900011052392060520230000000158515623000000000326965542418XXXXXX9560       ME03KE06MS02      NY 4607AMPLXOQT900605  N840000000001585          81DNCBD8666317293            23708B    MC84000000001585 NDR549977133133   75AEB2A7D2T60DA2D74E705  000000000+600450S00130    MPL  00580                     000000000  N                0000000000000.00 0000000.00   0000000.00                             000000000000000                                                                                                                                                   U001424  000000000000 0000000000000.43     02100 01000                  
00013790115290037DR67590675900000013300800102800000010175AEB2A7D2T60DA2D74E705  Y000000000000                                                                                                                                                                                                                                                                                                                                                                                                                                                                                                                                                                                                                               
00013800115290001G2675906759000000133008001028000000101866-6317293              GA           9 L               210                                      NNNN           210000000000000000000000000                        7                                          77133133                                                                                                                                                                                                                                                                                                                                                                                                                                               
00013810115290038DT67590675900000013300800102800000010180010287287283156900011052418060520230000002106215623000000000326965519047XXXXXX3453                         NY 4607AMDBXU23900605  N840000000021062          81DNCBD8666317293            8CC51E    MD84000000021062 NDR549977133133                            000000000+600450S00130    MDB  00063                     000000000  N                0000000000000.00 0000000.00   0000000.00                             000000000000000                                                                                                                                                   U001424  000000000000 0000000000004.42     02050 01000                  
00013820115290038DR675906759000000133008001028000000101                         Y000000000000                 P1                                                                                                                                                                                                                                                                                                                                                                                                                                                                                                                                                                                                            
00013830115290001P1675906759000000133008001028000000101                                                 000001192000000000000          8000   000000000871584967            000000000000                                                                                                                                                                                                                                                                                                                                                                                                                                                                                                                                    
00013840115290002G2675906759000000133008001028000000101866-6317293              GA           9 B               210                  871584967           YNNN           210000000000000000000000000                        7                                          77133133                                                                                                                                                                                                                                                                                                                                                                                                                                               
00013850115290039DT67590675900000013300800102800000010180010287287283156900011052541060520230000002487015623000000000326965551044XXXXXX5698       ME03KE06MS02      NY 4607AMDSYVOE900605  N840000000024870          81DNCBD8666317293            334070    MD84000000024870 NDR549977133133   3DCEA133DET6A00BEF1DA5D  000000000+600450S00130    MDS  10813                     000000000  1                0000000000000.00 0000000.00   0000000.00                             000000000000000                                                                                                                                                   U001424  000000000000 0000000000000.34     00050 02200                  
00013860115290039DR6759067590000001330080010280000001013DCEA133DET6A00BEF1DA5D  Y000000000000                                                                                                                                                                                                                                                                                                                                                                                                                                                                                                                                                                                                                               
00013870115290001G2675906759000000133008001028000000101866-6317293              GA           9 S               210                                      NNNN           210000000000000000000000000                        7                                          77133133                                                                                                                                                                                                                                                                                                                                                                                                                                               
00013880115290040BH6759067590000001427480010280000090170605202315623000000000334511    0000090001104223Y8001026759C06062023110                                                                                                                                                                                                                                                                                                                                                                                                                                                                                                                                                                                              
00013890115290041DT67590675900000014274800102800000010180010287287283156900011038045060420230000001987015623000000000334511529727XXXXXX4409       ME03KE06MS02      NY 4607AMDJRFEWHU0601  N840000000019870          81DNCBD8666317293            018306    MD84000000019870 NDR549977145232   14A0F8225DT0172DC1D77EB  000000000+600450S00130    MDJ  00401                     000000000  N                0000000000000.00 0000000.00   0000000.00                             000000000000000                                                                                                                                                   U001424  000000000000 0000000000003.43     01650 01500                  
00013900115290041DR67590675900000014274800102800000010114A0F8225DT0172DC1D77EB  Y000000000000                                                                                                                                                                                                                                                                                                                                                                                                                                                                                                                                                                                                                               
00013910115290001G2675906759000000142748001028000000101866-6317293              GA           9 J               210                                      NNNN           210000000000000000000000000                                                                   77145232                                                                                                                                                                                                                                                                                                                                                                                                                                               
00013920115290042DT67590675900000014274800102800000010180010287287283156900011038078060420230000002106215623000000000334511542539XXXXXX0677       ME03KE06MS02      NY 4607AMPLRJOBHU0601  N840000000021062          81DNCBD8666317293            001084    MC84000000021062 NDR549977145232   C708882099T95DF08E57B99  000000000+600450S00130    MPL  00013                     000000000  N                0000000000000.00 0000000.00   0000000.00                             000000000000000                                                                                                                                                   U001424  000000000000 0000000000004.21     01950 01000                  
00013930115290042DR675906759000000142748001028000000101C708882099T95DF08E57B99  Y000000000000                                                                                                                                                                                                                                                                                                                                                                                                                                                                                                                                                                                                                               
00013940115290001G2675906759000000142748001028000000101866-6317293              GA           9 L               210                                      NNNN           210000000000000000000000000                        7                                          77145232                                                                                                                                                                                                                                                                                                                                                                                                                                               
00013950115290043DT67590675900000014274800102800000010180010287287283156900011038425060420230000001987015623000000000334511528432XXXXXX6010       ME03KE06MS02      NY 4607AMPLDV496A0601  N840000000019870          81DNCBD8666317293            00163B    MC84000000019870 NDR549977145232   0AF6EDD90DT307BC2D188C2  000000000+600450S00130    MPL  00580                     000000000  N                0000000000000.00 0000000.00   0000000.00                             000000000000000                                                                                                                                                   U001424  000000000000 0000000000004.27     02100 01000                  
00013960115290043DR6759067590000001427480010280000001010AF6EDD90DT307BC2D188C2  Z000000000000                                                                                                                                                                                                                                                                                                                                                                                                                                                                                                                                                                                                                               
00013970115290001G2675906759000000142748001028000000101866-6317293              GA           9 L               210                                      NNNN           210000000000000000000000000                        7                                          77145232                                                                                                                                                                                                                                                                                                                                                                                                                                               
00013980115290044DT67590675900000014274800102800000010180010224001193156900011038812060420230000001200815623000000000334511425808XXXXXX0363               2111111   NYV4 A7W383152819041287N840000000012008QNFR00    01DNCBD8666317293            048029    VD84000000012008 NDR549977145232   E8DC1B9134TEFCF08396219  000000000+                F DF 10420                     000000000  Y000000000 338   0000000000000.00 0000000.00   0000000.00                             000000000000000                                                                                                                                                     01424 G000000012008 0000000000000.28     00050 02200                  
00013990115290044DR675906759000000142748001028000000101E8DC1B9134TEFCF08396219  Y000000012008                 P1                                                                                                                                                                                                                                                                                                                                                                                                                                                                                                                                                                                                            
