00003980304710002BH675906759000000176738001068000009017041320231032300000000002995201970000090001170808N8001066759D04142023                                                                                                                                                                                                                                                                                                                                                                                                                                                                                                                                                                                                 
00003990304710003DT67590675900000017673800106800000010680010674001193103900011708066041320230000002178910323000000000029952434256XXXXXX1956               0000000   NNV4 07T303103721908388N840000000021789D23900    01CNVGHEMP.COM833-246-5225   0830210197VD84000000021789 NP1549977427364   2ADAF490E4T54227E5B3697  000000000+                F DF 00000                     000000000  Y000000000 369   0000000000000.00 0000000.00   0000000.00             000000000021789C000000000000000                                                                                                                                                     01424  000000021789 0000000000000.00     00000 00000                  
00004000304710001P16759067590000001767380010680000001060000000000000000                             2000000000000000000000000              000000000000                    0000000000000000000000000                    000000000000                                                                                                                                                                                                                                                                                                                                                                                                                                                                                        
00004010304710004DT67590675900000017673800106800000010680010674001193103900011708074041320230000000653310323000000000029952411079XXXXXX6474               0000000   NNV4 07T383103751947167N8400000000065333ZBS00    01CNVGHEMP.COM833-246-5225   0356810197VD84000000006533 NP1549977427364   6445F78009T8CBBB2C44362  000000000+                F DF 00000                     000000000  Y000000000 369   0000000000000.00 0000000.00   0000000.00             000000000006533C000000000000000                                                                                                                                                     01424  000000006533 0000000000000.00     00000 00000                  
00004020304710001P16759067590000001767380010680000001060000000000000000                             2000000000000000000000000              000000000000                    0000000000000000000000000                    000000000000                                                                                                                                                                                                                                                                                                                                                                                                                                                                                        
00004030304710005DT67590675900000017673800106800000010680010674001193103900011708082041320230000000163010323000000000029952410039XXXXXX7498               0000000   NNV4 07T583103819489401N840000000001630XFD600    01CNVGHEMP.COM833-246-5225   68959C0197VS84000000001630 NP1549977427364   7587FA026DTBCC42A52B8CF  000000000+                C CC 00000                     000000000  N000000000 166   0000000000000.00 0000000.00   0000000.00             000000000001630C000000000000000                                                                                                                                                     01424  000000001630 0000000000000.00     00000 00000                  
00004040304710001P16759067590000001767380010680000001060000000000000000                             2000000000000000000000000              000000000000                    0000000000000000000000000                    000000000000                                                                                                                                                                                                                                                                                                                                                                                                                                                                                        
00004050304710006BH6759067590000001619680010280000090170413202310323000000000034417    0000090001030013Y8001026759C04142023                                                                                                                                                                                                                                                                                                                                                                                                                                                                                                                                                                                                 
00004060304710007DT67590675900000016196800102800000010180010276509753103900010300116041320230000001499110323000000000034417601149XXXXXX5342   BA00                  NY 4 07N753088509532620N840000000014991    00    01DNGREEN OTTER LLC          01370P    DS84000000014991 N  549977424386070                         000000000+1015104910600   DCPDI11327831215  093553000000 000000000  0          462   0000000000000.00 0000000.00   0000000.00                             000000000000000                                                                                                                                                     01424  000000000000 0000000000003.17     02050 01000                  
00004070304710008DT67590675900000016196800102800000010180010224001193103900010300126041320230000000678210323000000000034417476970XXXXXX5450               2111111   NYV4 A7W383103659690689N840000000006782GHDZ00    01DNGREEN OTTER LLC          001035    VD84000000006782 NP1549977424386   9D7F6EA62ETD92ECA3218F4  000000000+                F PF 08175                     000000000  N000000000       0000000000000.00 0000000.00   0000000.00                             000000000000000                                                                                                                                                     01424 G000000006782 0000000000001.39     01750 02000                  
00004080304710001P16759067590000001619680010280000001010000000000000000                             2000000000000000000000000              000000000000                    0000000000000000000000000                    000000000000                                                                                                                                                                                                                                                                                                                                                                                                                                                                                        
00004090304710009DT67590675900000016196800102800000010180010276509753103900010300132041320230000001264410323000000000034417601100XXXXXX0730   BA00                  NY 4 07N753088658991282N840000000012644    00    01DNGREEN OTTER LLC          01384R    DS84000000012644 N  549977424386070                         000000000+1015104910600   DCCDI11325667727  134459000000 000000000  0          460   0000000000000.00 0000000.00   0000000.00                             000000000000000                                                                                                                                                     01424  000000000000 0000000000002.67     02030 01000                  
00004100304710010BH6759067590000001516480088880000090170413202310323000000001022642    0000090001458318Y8008886759C04142023                                                                                                                                                                                                                                                                                                                                                                                                                                                                                                                                                                                                 
00004110304710011DT67590675900000015164800888800000010180088824001193103900014562283041220230000001987010323000000001022642442743XXXXXX7418               2111111   NYV4 A7W463099399067451N840000000019870792V00    01DNKETOFUSION833-923-3587   860545    VD84000000019870 NP1599977360677   4EED6692D7TDD26A1EC0699  000000000+                F PF 08175                     000000000  N000000000       0000000000000.00 0000000.00   0000000.00                             000000000000000                                                                                                                                                     01424 G000000019870 0000000000003.68     01750 02000                  
00004120304710001P16759067590000001516480088880000001010000000000000000                             2000000000000000000000000              000000000000                    0000000000000000000000000                    000000000000                                                                                                                                                                                                                                                                                                                                                                                                                                                                                        
00004130304710012DT67590675900000015164800888800000010180088824001193103900014562838041220230000001987010323000000001022642414718XXXXXX7035               2111111   NYV4 A7W383099544386599N8400000000198707JJ400    01DNKETOFUSION833-923-3587   009376    VS84000000019870 NP1599977360677   02E5D2C799T04763D97BE18  000000000+                D CD 12109                     000000000  N000000000 498   0000000000000.00 0000000.00   0000000.00                             000000000000000                                                                                                                                                     01424 G000000019870 0000000000005.07     02500 01000                  
00004140304710001P16759067590000001516480088880000001010000000000000000                             2000000000000000000000000              000000000000                    0000000000000000000000000                    000000000000                                                                                                                                                                                                                                                                                                                                                                                                                                                                                        
00004150304710013DT67590675900000015164800888800000010180088824001193103900014563059041220230000001194810323000000001022642483314XXXXXX6397               2111111   NYV4 A7W463099606048243N8400000000119484W2S00    01DNKETOFUSION833-923-3587   045012    VD84000000011948 NP1599977360677   C2546CE5A7T5AEEFA4749C8  000000000+                F DF 10420                     000000000  Y000000000 338   0000000000000.00 0000000.00   0000000.00                             000000000000000                                                                                                                                                     01424 G000000011948 0000000000000.28     00050 02200                  
00004160304710001P16759067590000001516480088880000001010000000000000000                             2000000000000000000000000              000000000000                    0000000000000000000000000                    000000000000                                                                                                                                                                                                                                                                                                                                                                                                                                                                                        
00004170304710014DT67590675900000015164800888800000010180088887287283103900014563464041220230000001291610323000000001022642521333XXXXXX5854       ME03KE06MS02      NY 4607AMPLX6R5SA0409  N840000000012916          81DNKETOFUSION833-923-3587   00914B    MC84000000012916 N  599977360677   22C4101481TC0C2527EFC5F  000000000+600450S00130    MPL  00580                     000000000  N                0000000000000.00 0000000.00   0000000.00                             000000000000000                                                                                                                                                   U001424  000000000000 0000000000002.81     02100 01000                  
00004180304710015DT67590675900000015164800888800000010180088887287283103900014580435041220230000001578510323000000001022642552318XXXXXX7813       ME03KE06MS02      NY 4607AMWEXCODX40412  N840000000015785          81DNKETOFUSION833-923-3587   69507Z    MC84000000015785 N  599977360677   0E0A12D93ET99C075ED4025  000000000+600450S00130    MWE  00737                     000000000  N                0000000000000.00 0000000.00   0000000.00                             000000000000000                                                                                                                                                   U001424  000000000000 0000000000004.20     02600 01000                  
00004190304710016DT67590675900000015164800888800000010180088887287283103900014580450041220230000000029910323000000001022642524897XXXXXX3991                         NY 4607AMCOXHGGX40412  N840000000000299          81DNKETOFUSION833-923-3587   ZGG1MF    MB84000000000299 NP1599977360677   E83AC4C693T70A25D6AD8FC  000000000+600450S00130    MCO  00303                     000000000  N                0000000000000.00 0000000.00   0000000.00                             000000000000000                                                                                                                                                   U001424  000000000000 0000000000000.18     02700 01000                  
00004200304710001P1675906759000000151648008888000000101                                                          000000000000          8000            884295529                                                                                                                                                                                                                                                                                                                                                                                                                                                                                                                                                            
00004210304710017DT67590675900000015164800888800000010180088824001193103900014580467041220230000000029910323000000001022642485932XXXXXX3950               2111111   NYV4 A7W383103009696091N840000000000299442300    01DNKETOFUSION833-923-3587   368975    VB84000000000299 NP1599977360677   2CEAD9B389TE651669A6569  000000000+                S CS 00692                     000000000  N000000000 237   0000000000000.00 0000000.00   0000000.00                             000000000000000                                                                                                                                                     01424 G000000000299 0000000000000.18     02700 01000                  
00004220304710001P16759067590000001516480088880000001010000000000000000                             2000000000000000000000000              000000000000                    0000000000000000000000000                    000000000000                                                                                                                                                                                                                                                                                                                                                                                                                                                                                        
00004230304710018DT67590675900000015164800888800000010180088824001193103900014580483041220230000000029910323000000001022642440393XXXXXX4065               2111111   NYV4 A7W303103012707918N8400000000002999ZLN00    01DNKETOFUSION833-923-3587   929612    VD84000000000299 NP1599977360677   CDE13AF400TE9158289AFA8  000000000+                F PF 08175                     000000000  N000000000       0000000000000.00 0000000.00   0000000.00                             000000000000000                                                                                                                                                     01424 G000000000299 0000000000000.25     01750 02000                  
00004240304710001P16759067590000001516480088880000001010000000000000000                             2000000000000000000000000              000000000000                    0000000000000000000000000                    000000000000                                                                                                                                                                                                                                                                                                                                                                                                                                                                                        
00004250304710019DT67590675900000015164800888800000010180088824001193103900014580491041220230000000029910323000000001022642485932XXXXXX8578               2111111   NYV4 A7W383103013239877N840000000000299B29800    01DNKETOFUSION833-923-3587   990530    VB84000000000299 NP1599977360677   834DFD9C3ETCF54B42C515E  000000000+                S CS 00692                     000000000  N000000000 237   0000000000000.00 0000000.00   0000000.00                             000000000000000                                                                                                                                                     01424 G000000000299 0000000000000.18     02700 01000                  
00004260304710001P16759067590000001516480088880000001010000000000000000                             2000000000000000000000000              000000000000                    0000000000000000000000000                    000000000000                                                                                                                                                                                                                                                                                                                                                                                                                                                                                        
00004270304710020DT67590675900000015164800888800000010180088887287283103900014580500041220230000002487010323000000001022642540385XXXXXX5189       ME03KE06MS02      NY 4607AMDSCCQHYU0412  N840000000024870          81DNKETOFUSION833-923-3587   89383Z    MD84000000024870 N  599977360677   06A072E1B6T67ADC371ED06  000000000+600450S00130    MDS  10813                     000000000  1                0000000000000.00 0000000.00   0000000.00                             000000000000000                                                                                                                                                   U001424  000000000000 0000000000000.34     00050 02200                  
00004280304710021DT67590675900000015164800888800000010180088824001193103900014580517041220230000000029910323000000001022642408544XXXXXX9899               2111111   NYV4 A7W303103014447623N840000000000299W47200    01DNKETOFUSION833-923-3587   616945    VB84000000000299 NP1599977360677   4464A46187TF08060378153  000000000+                K CK 00691                     000000000  N000000000 234   0000000000000.00 0000000.00   0000000.00                             000000000000000                                                                                                                                                     01424 G000000000299 0000000000000.18     02700 01000                  
00004290304710001P16759067590000001516480088880000001010000000000000000                             2000000000000000000000000              000000000000                    0000000000000000000000000                    000000000000                                                                                                                                                                                                                                                                                                                                                                                                                                                                                        
00004300304710022DT67590675900000015164800888800000010180088887287283103900014580534041220230000000029910323000000001022642553437XXXXXX8326                         NY 4607AMBSP1Y9YU0412  N840000000000299          81DNKETOFUSION833-923-3587   0443DB    MB84000000000299 NP1599977360677   F402874D96T0FD22F5F92C3  000000000+600450S00130    MBS  00303                     000000000  N                0000000000000.00 0000000.00   0000000.00                             000000000000000                                                                                                                                                   U001424  000000000000 0000000000000.18     02700 01000                  
00004310304710001P1675906759000000151648008888000000101                                                          000000000000          8000            884295529                                                                                                                                                                                                                                                                                                                                                                                                                                                                                                                                                            
00004320304710023DT67590675900000015164800888800000010180088824001193103900014580558041220230000001394810323000000001022642435546XXXXXX0741               2111111   NYV4 A7W303103025473848N840000000013948FHNZ00    01DNKETOFUSION833-923-3587   074077    VD84000000013948 NP1599977360677   C5CA679FA5TFA22402EC1CA  000000000+                F DF 10420                     000000000  Y000000000 338   0000000000000.00 0000000.00   0000000.00                             000000000000000                                                                                                                                                     01424 G000000013948 0000000000000.29     00050 02200                  
00004330304710001P16759067590000001516480088880000001010000000000000000                             2000000000000000000000000              000000000000                    0000000000000000000000000                    000000000000                                                                                                                                                                                                                                                                                                                                                                                                                                                                                        
00004340304710024DT67590675900000015164800888800000010180088824001193103900014580566041220230000000327410323000000001022642435546XXXXXX0741               2111111   NYV4 A7W583103025742128N840000000003274LRF200    01DNKETOFUSION833-923-3587   020099    VD84000000003274 NP1599977360677   C5CA679FA5T21B7052D3E03  000000000+                F DF 10420                     000000000  Y000000000 338   0000000000000.00 0000000.00   0000000.00                             000000000000000                                                                                                                                                     01424 G000000003274 0000000000000.24     00050 02200                  
00004350304710001P16759067590000001516480088880000001010000000000000000                             2000000000000000000000000              000000000000                    0000000000000000000000000                    000000000000                                                                                                                                                                                                                                                                                                                                                                                                                                                                                        
00004360304710025DT67590675900000015164800888800000010180088824001193103900014580582041220230000000029910323000000001022642412076XXXXXX9342               2111111   NYV4 A7W583103029457175N840000000000299STS400    01DNKETOFUSION833-923-3587   925993    VS84000000000299 NP1599977360677   CF03D4ED4DT7F6CCFD5B7AE  000000000+                A CA 12106                     000000000  N000000000 492   0000000000000.00 0000000.00   0000000.00                             000000000000000                                                                                                                                                     01424 G000000000299 0000000000000.16     01890 01000                  
00004370304710001P16759067590000001516480088880000001010000000000000000                             2000000000000000000000000              000000000000                    0000000000000000000000000                    000000000000                                                                                                                                                                                                                                                                                                                                                                                                                                                                                        
00004380304710026DT67590675900000015164800888800000010180088887287283103900014580591041220230000000029910323000000001022642512507XXXXXX6394                         NY 4607AMCPYBZHX40412  N840000000000299          81DNKETOFUSION833-923-3587   266624    MB84000000000299 NP1599977360677   9702AC9D18T2081FCA1BF8E  000000000+600450S00130    MCP  00303                     000000000  N                0000000000000.00 0000000.00   0000000.00                             000000000000000                                                                                                                                                   U001424  000000000000 0000000000000.18     02700 01000                  
00004390304710001P1675906759000000151648008888000000101                                                          000000000000          8000            884295529                                                                                                                                                                                                                                                                                                                                                                                                                                                                                                                                                            
00004400304710027DT67590675900000015164800888800000010180088824001193103900014580616041220230000000029910323000000001022642428803XXXXXX6876               2111111   NYV4 A7W583103033055006N840000000000299DWTS00    01DNKETOFUSION833-923-3587   957598    VD84000000000299 NP1599977360677   7AB81DDCB8T2254EB7AE7F5  000000000+                S PS 10179                     000000000  N000000000 364   0000000000000.00 0000000.00   0000000.00                             000000000000000                                                                                                                                                     01424 G000000000299 0000000000000.18     02650 01000                  
00004410304710001P16759067590000001516480088880000001010000000000000000                             2000000000000000000000000              000000000000                    0000000000000000000000000                    000000000000                                                                                                                                                                                                                                                                                                                                                                                                                                                                                        
00004420304710028DT67590675900000015164800888800000010180088824001193103900014580624041220230000000029910323000000001022642489683XXXXXX5910               2111111   NYV4 A7W383103033724186N840000000000299LL8N00    01DNKETOFUSION833-923-3587   B0HDU8    VD84000000000299 NP1599977360677   DB44F9DD73TDE5A62BD68B0  000000000+                S PS 10179                     000000000  N000000000 364   0000000000000.00 0000000.00   0000000.00                             000000000000000                                                                                                                                                     01424 G000000000299 0000000000000.18     02650 01000                  
00004430304710001P16759067590000001516480088880000001010000000000000000                             2000000000000000000000000              000000000000                    0000000000000000000000000                    000000000000                                                                                                                                                                                                                                                                                                                                                                                                                                                                                        
00004440304710029DT67590675900000015164800888800000010180088824001193103900014580640041220230000000542810323000000001022642433857XXXXXX2577               2111111   NYV4 A7W383103037807412N8400000000054286F9600    01DNKETOFUSION833-923-3587   000300    VD84000000005428 NP1599977360677   55C744C929T77BE365DE794  000000000+                F DF 00415                     000000000  N000000000       0000000000000.00 0000000.00   0000000.00                             000000000000000                                                                                                                                                     01424 G000000005428 0000000000001.05     01650 01500                  
00004450304710001P16759067590000001516480088880000001010000000000000000                             2000000000000000000000000              000000000000                    0000000000000000000000000                    000000000000                                                                                                                                                                                                                                                                                                                                                                                                                                                                                        
00004460304710030DT67590675900000015164800888800000010180088824001193103900014580715041220230000001194810323000000001022642414718XXXXXX5420               2111111   NYV4 A7W463103046595444N840000000011948H94C00    01DNKETOFUSION833-923-3587   012092    VS84000000011948 NP1599977360677   356A8C3D15T82405B9AD54A  000000000+                D CD 12109                     000000000  N000000000 498   0000000000000.00 0000000.00   0000000.00                             000000000000000                                                                                                                                                     01424 G000000011948 0000000000003.09     02500 01000                  
00004470304710001P16759067590000001516480088880000001010000000000000000                             2000000000000000000000000              000000000000                    0000000000000000000000000                    000000000000                                                                                                                                                                                                                                                                                                                                                                                                                                                                                        
00004480304710031DT67590675900000015164800888800000010180088824001193103900014580723041220230000000029910323000000001022642428803XXXXXX4517               2111111   NYV4 A7W383103050501544N840000000000299PVG300    01DNKETOFUSION833-923-3587   426144    VD84000000000299 NP1599977360677   F65B9AB523TD555B255EAAB  000000000+                S PS 10179                     000000000  N000000000 364   0000000000000.00 0000000.00   0000000.00                             000000000000000                                                                                                                                                     01424 G000000000299 0000000000000.18     02650 01000                  
00004490304710001P16759067590000001516480088880000001010000000000000000                             2000000000000000000000000              000000000000                    0000000000000000000000000                    000000000000                                                                                                                                                                                                                                                                                                                                                                                                                                                                                        
00004500304710032DT67590675900000015164800888800000010180088887287283103900014580757041220230000001987010323000000001022642544928XXXXXX8060       ME03KE06MS02      NY 4607AMDJQ9DBYU0412  N840000000019870          81DNKETOFUSION833-923-3587   H25046    MD84000000019870 N  599977360677   23CF30302FTB47476F0D775  000000000+600450S00130    MDJ  10813                     000000000  1                0000000000000.00 0000000.00   0000000.00                             000000000000000                                                                                                                                                   U001424  000000000000 0000000000000.32     00050 02200                  
00004510304710033DT67590675900000015164800888800000010180088824001193103900014580764041220230000001987010323000000001022642414720XXXXXX7725               2111111   NYV4 A7W463103069800870N840000000019870G9PN00    01DNKETOFUSION833-923-3587   08615D    VS84000000019870 NP1599977360677   47F355982DTCEB419872CB2  000000000+                D CD 12109                     000000000  N000000000 498   0000000000000.00 0000000.00   0000000.00                             000000000000000                                                                                                                                                     01424 G000000019870 0000000000005.07     02500 01000                  
00004520304710001P16759067590000001516480088880000001010000000000000000                             2000000000000000000000000              000000000000                    0000000000000000000000000                    000000000000                                                                                                                                                                                                                                                                                                                                                                                                                                                                                        
00004530304710034DT67590675900000015164800888800000010180088887287283103900014580773041220230000000029910323000000001022642512507XXXXXX0785                         NY 4607AMCPRFYPYU0412  N840000000000299          81DNKETOFUSION833-923-3587   372193    MB84000000000299 NP1599977360677   CDDC1B66F5T45E002D9EB76  000000000+600450S00130    MCP  00303                     000000000  N                0000000000000.00 0000000.00   0000000.00                             000000000000000                                                                                                                                                   U001424  000000000000 0000000000000.18     02700 01000                  
00004540304710001P1675906759000000151648008888000000101                                                          000000000000          8000            884295529                                                                                                                                                                                                                                                                                                                                                                                                                                                                                                                                                            
00004550304710035DT67590675900000015164800888800000010180088824001193103900014580780041220230000000029910323000000001022642412076XXXXXX3212               2111111   NYV4 A7W303103081043528N840000000000299TRTZ00    01DNKETOFUSION833-923-3587   772914    VS84000000000299 NP1599977360677   4777A0FFC9TF400B6B96989  000000000+                A CA 12106                     000000000  N000000000 492   0000000000000.00 0000000.00   0000000.00                             000000000000000                                                                                                                                                     01424 G000000000299 0000000000000.16     01890 01000                  
00004560304710001P16759067590000001516480088880000001010000000000000000                             2000000000000000000000000              000000000000                    0000000000000000000000000                    000000000000                                                                                                                                                                                                                                                                                                                                                                                                                                                                                        
00004570304710036DT67590675900000015164800888800000010180088824001193103900014580806041220230000001499110323000000001022642440066XXXXXX1434               2111111   NYV4 A7W583103090376003N840000000014991BKF400    01DNKETOFUSION833-923-3587   03071D    VS84000000014991 NP1599977360677   A03024F0FFTC9D9B39629BF  000000000+                D CD 12109                     000000000  N000000000 498   0000000000000.00 0000000.00   0000000.00                             000000000000000                                                                                                                                                     01424 G000000014991 0000000000003.85     02500 01000                  
00004580304710001P16759067590000001516480088880000001010000000000000000                             2000000000000000000000000              000000000000                    0000000000000000000000000                    000000000000                                                                                                                                                                                                                                                                                                                                                                                                                                                                                        
00004590304710037DT67590675900000015164800888800000010180088824001193103900014580855041220230000002487010323000000001022642473360XXXXXX5192               2111111   NYV4 A7W583103110077069N840000000024870NRQ900    01DNKETOFUSION833-923-3587   577148    VD84000000024870 NP1599977360677   3D3AA3ED1AT53F0D787E058  000000000+                F DF 00415                     000000000  N000000000       0000000000000.00 0000000.00   0000000.00                             000000000000000                                                                                                                                                     01424 G000000024870 0000000000004.25     01650 01500                  
00004600304710001P16759067590000001516480088880000001010000000000000000                             2000000000000000000000000              000000000000                    0000000000000000000000000                    000000000000                                                                                                                                                                                                                                                                                                                                                                                                                                                                                        
00004610304710038DT67590675900000015164800888800000010180088887287283103900014580872041220230000000327410323000000001022642542539XXXXXX7515       ME03KE06MS02      NY 4607AMPLL0H5YU0412  N840000000003274          81DNKETOFUSION833-923-3587   012483    MC84000000003274 N  599977360677   3579DFC032T93214D68535E  000000000+600450S00130    MPL  00013                     000000000  N                0000000000000.00 0000000.00   0000000.00                             000000000000000                                                                                                                                                   U001424  000000000000 0000000000000.74     01950 01000                  
00004620304710039DT67590675900000015164800888800000010180088887287283103900014580880041220230000000259510323000000001022642542539XXXXXX7515       ME03KE06MS02      NY 4607AMPLR1LOYU0412  N840000000002595          81DNKETOFUSION833-923-3587   012848    MC84000000002595 N  599977360677   3579DFC032T6648E9862B62  000000000+600450S00130    MPL  00013                     000000000  N                0000000000000.00 0000000.00   0000000.00                             000000000000000                                                                                                                                                   U001424  000000000000 0000000000000.61     01950 01000                  
00004630304710040DT67590675900000015164800888800000010180088824001193103900014580897041220230000000642810323000000001022642411770XXXXXX6568               2111111   NYV4 A7W463103114354284N84000000000642855JC00    01DNKETOFUSION833-923-3587   191004    VD84000000006428 NP1599977360677   2A3E1246A9T271EC4DA54D8  000000000+                F DF 10420                     000000000  Y000000000 338   0000000000000.00 0000000.00   0000000.00                             000000000000000                                                                                                                                                     01424 G000000006428 0000000000000.25     00050 02200                  
00004640304710001P16759067590000001516480088880000001010000000000000000                             2000000000000000000000000              000000000000                    0000000000000000000000000                    000000000000                                                                                                                                                                                                                                                                                                                                                                                                                                                                                        
00004650304710041DT67590675900000015164800888800000010180088824001193103900014580913041220230000001499010323000000001022642406189XXXXXX0161               2111111   NYV4 A7W383103120934707N840000000014990XZ8R00    01DNKETOFUSION833-923-3587   012097    VS84000000014990 NP1599977360677   C2EEA35EAFTDBAAEA65A852  000000000+                B CB 12107                     000000000  N000000000 494   0000000000000.00 0000000.00   0000000.00                             000000000000000                                                                                                                                                     01424 G000000014990 0000000000003.16     02040 01000                  
00004660304710001P16759067590000001516480088880000001010000000000000000                             2000000000000000000000000              000000000000                    0000000000000000000000000                    000000000000                                                                                                                                                                                                                                                                                                                                                                                                                                                                                        
00004670304710042DT67590675900000015164800888800000010180088887287283103900014580997041220230000001987010323000000001022642514478XXXXXX3840       ME03KE06MS02      NY 4607AMDS2GTI400412  N840000000019870          81DNKETOFUSION833-923-3587   499865    MD84000000019870 N  599977360677   4965B6B484T0D796C43546E  000000000+600450S00130    MDS  10813                     000000000  1                0000000000000.00 0000000.00   0000000.00                             000000000000000                                                                                                                                                   U001424  000000000000 0000000000000.32     00050 02200                  
00004680304710043DT67590675900000015164800888800000010180088887287283103900014581037041220230000002487010323000000001022642542539XXXXXX4148       ME03KE06MS02      NY 4607AMPLLP57Z80412  N840000000024870          81DNKETOFUSION833-923-3587   012015    MC84000000024870 N  599977360677   9949EB09CBT7577730EF826  000000000+600450S00130    MPL  00013                     000000000  N                0000000000000.00 0000000.00   0000000.00                             000000000000000                                                                                                                                                   U001424  000000000000 0000000000004.95     01950 01000                  
00004690304710044DT67590675900000015164800888800000010180088824001193103900014581051041220230000000259510323000000001022642408586XXXXXX2408               2111111   NYV4 07W463103174284445N840000000002595GGP700    01DNKETOFUSION833-923-3587   008554    VS84000000002595FNP1599977360677   41A89919C7T5D9D0D7580BE  000000000+                F CF 00012                     000000000  N000000000       0000000000000.00 0000000.0000 0000000.26D                            000000000000000                                                                                                                                                     01424 G000000002595 0000000000000.41     01600 00000                  
00004700304710001P16759067590000001516480088880000001010000000000000000                             2000000000000000000000000              000000000000                    0000000000000000000000000                    000000000000                                                                                                                                                                                                                                                                                                                                                                                                                                                                                        
00004710304710045DT67590675900000015164800888800000010180088824001193103900014581069041220230000001194810323000000001022642402348XXXXXX1121               2111111   NYV4 A7W463103174317979N840000000011948F84D00    01DNKETOFUSION833-923-3587   025031    VS84000000011948 NP1599977360677   669D19DCC9T9C180B3962C8  000000000+                C CC 12108                     000000000  N000000000 496   0000000000000.00 0000000.00   0000000.00                             000000000000000                                                                                                                                                     01424 G000000011948 0000000000002.55     02050 01000                  
00004720304710001P16759067590000001516480088880000001010000000000000000                             2000000000000000000000000              000000000000                    0000000000000000000000000                    000000000000                                                                                                                                                                                                                                                                                                                                                                                                                                                                                        
00004730304710046DT67590675900000015164800888800000010180088824001193103900014581085041320230000002487010323000000001022642434769XXXXXX4311               2111111   NYV4 A7W463103192044547N840000000024870TKJP00    01DNKETOFUSION833-923-3587   042001    VD84000000024870 NP1599977360677   3712CAA1CBT2E7DE1C0FCCC  000000000+                F DF 10420                     000000000  Y000000000 338   0000000000000.00 0000000.00   0000000.00                             000000000000000                                                                                                                                                     01424 G000000024870 0000000000000.34     00050 02200                  
00004740304710001P16759067590000001516480088880000001010000000000000000                             2000000000000000000000000              000000000000                    0000000000000000000000000                    000000000000                                                                                                                                                                                                                                                                                                                                                                                                                                                                                        
00004750304710047DT67590675900000015164800888800000010180088824001193103900014581127041320230000002487010323000000001022642440066XXXXXX2354               2111111   NYV4 A7W303103234043681N840000000024870NPWZ00    01DNKETOFUSION833-923-3587   03404D    VS84000000024870 NP1599977360677   0B1BB18785T75667C55798B  000000000+                D CD 12109                     000000000  N000000000 498   0000000000000.00 0000000.00   0000000.00                             000000000000000                                                                                                                                                     01424 G000000024870 0000000000006.32     02500 01000                  
00004760304710001P16759067590000001516480088880000001010000000000000000                             2000000000000000000000000              000000000000                    0000000000000000000000000                    000000000000                                                                                                                                                                                                                                                                                                                                                                                                                                                                                        
00004770304710048DT67590675900000015164800888800000010180088824001193103900014581226041320230000002487010323000000001022642410064XXXXXX5187               2111111   NYV4 A7W303103279040660N8400000000248709BCL00    01DNKETOFUSION833-923-3587   05136A    VS84000000024870 NP1599977360677   00D6BE8648T51FF1786E612  000000000+                A CA 12106                     000000000  N000000000 492   0000000000000.00 0000000.00   0000000.00                             000000000000000                                                                                                                                                     01424 G000000024870 0000000000004.80     01890 01000                  
00004780304710001P16759067590000001516480088880000001010000000000000000                             2000000000000000000000000              000000000000                    0000000000000000000000000                    000000000000                                                                                                                                                                                                                                                                                                                                                                                                                                                                                        
00004790304710049DT67590675900000015164800888800000010180088824001193103900014581234041320230000001987010323000000001022642414734XXXXXX5975               2111111   NYV4 A7W383103286635369N840000000019870SBW800    01DNKETOFUSION833-923-3587   03622D    VS84000000019870 NP1599977360677   3A3B5E4640TF5AF4D950522  000000000+                D CD 12109                     000000000  N000000000 498   0000000000000.00 0000000.00   0000000.00                             000000000000000                                                                                                                                                     01424 G000000019870 0000000000005.07     02500 01000                  
00004800304710001P16759067590000001516480088880000001010000000000000000                             2000000000000000000000000              000000000000                    0000000000000000000000000                    000000000000                                                                                                                                                                                                                                                                                                                                                                                                                                                                                        
00004810304710050DT67590675900000015164800888800000010180088887287283103900014581276041320230000000542810323000000001022642511786XXXXXX7981       ME03KE06MS02      NY 4607AMCS075I5I0413  N840000000005428          81DNKETOFUSION833-923-3587   02529B    MC84000000005428 N  599977360677   6902479373TABF235ACCF59  000000000+600450S00130    MCS  00580                     000000000  N                0000000000000.00 0000000.00   0000000.00                             000000000000000                                                                                                                                                   U001424  000000000000 0000000000001.24     02100 01000                  
00004820304710051DT67590675900000015164800888800000010180088887287283103900014581284041320230000000519010323000000001022642511786XXXXXX7981       ME03KE06MS02      NY 4607AMCS07YA5J0413  N840000000005190          81DNKETOFUSION833-923-3587   03636B    MC84000000005190 N  599977360677   6902479373TDC28F6116F22  000000000+600450S00130    MCS  00580                     000000000  N                0000000000000.00 0000000.00   0000000.00                             000000000000000                                                                                                                                                   U001424  000000000000 0000000000001.19     02100 01000                  
00004830304710052DT67590675900000015164800888800000010180088824001193103900014581341041320230000001499010323000000001022642420231XXXXXX0494               2111111   NYV4 A7W303103367699031N8400000000149902H3V00    01DNKETOFUSION833-923-3587   503121    VS84000000014990 NP1599977360677   D520C8BA66TA898CC4C5F26  000000000+                D CD 12109                     000000000  N000000000 498   0000000000000.00 0000000.00   0000000.00                             000000000000000                                                                                                                                                     01424 G000000014990 0000000000003.85     02500 01000                  
00004840304710001P16759067590000001516480088880000001010000000000000000                             2000000000000000000000000              000000000000                    0000000000000000000000000                    000000000000                                                                                                                                                                                                                                                                                                                                                                                                                                                                                        
00004850304710053DT67590675900000015164800888800000010180088887287283103900014581409041320230000002255010323000000001022642512230XXXXXX9067       ME03KE06MS02      NY 4607AMWEI2M11T0413  N840000000022550          81DNKETOFUSION833-923-3587   61970Z    MC84000000022550 N  599977360677   8AB97BEB45T9252CA342CA3  000000000+600450S00130    MWE  00737                     000000000  N                0000000000000.00 0000000.00   0000000.00                             000000000000000                                                                                                                                                   U001424  000000000000 0000000000005.96     02600 01000                  
00004860304710054DT67590675900000015164800888800000010180088824001193103900014581416041320230000002487010323000000001022642443063XXXXXX0855               2111111   NYV4 A7W463103412027891N840000000024870JQRV00    01DNKETOFUSION833-923-3587   368227    VD84000000024870 NP1599977360677   0E0F6B51DATB76599625EBF  000000000+                F DF 10420                     000000000  Y000000000 338   0000000000000.00 0000000.00   0000000.00                             000000000000000                                                                                                                                                     01424 G000000024870 0000000000000.34     00050 02200                  
00004870304710001P16759067590000001516480088880000001010000000000000000                             2000000000000000000000000              000000000000                    0000000000000000000000000                    000000000000                                                                                                                                                                                                                                                                                                                                                                                                                                                                                        
00004880304710055DT67590675900000015164800888800000010180088887287283103900014581458041320230000001987010323000000001022642515307XXXXXX1174       ME03KE06PT01      NY 4607AMCWQC27DH0413  N840000000019870          81DNKETOFUSION833-923-3587   09172Z    MC84000000019870 N  599977360677   5E12426828T6209B7370B3C  000000000+600450S00130    MCW  00642                     000000000  N                0000000000000.00 0000000.00   0000000.00                             000000000000000                                                                                                                                                   U001424  000000000000 0000000000004.47     02200 01000                  
00004890304710056DT67590675900000015164800888800000010680088887287283103900014581466041320230000001987010323000000001022642521990XXXXXX5717                         NY 4607AMDJQT6YDH0413  N840000000019870          81CNKETOFUSION833-923-3587   013034    MD84000000019870 N  599977360677   E1436C8382TC520489DD08A  000000000+600450S00130    MDJ  00560                     000000000  N                0000000000000.00 0000000.00   0000000.00                             000000000000000                                                                                                                                                     01424  000000000000 0000000000000.00     00000 00000                  
00004900304710057DT67590675900000015164800888800000010680088887287283103900014581474041320230000000654810323000000001022642521990XXXXXX5717                         NY 4607AMDJJUAM1T0413  N840000000006548          81CNKETOFUSION833-923-3587   013500    MD84000000006548 N  599977360677   E1436C8382T30472A770C28  000000000+600450S00130    MDJ  00560                     000000000  N                0000000000000.00 0000000.00   0000000.00                             000000000000000                                                                                                                                                     01424  000000000000 0000000000000.00     00000 00000                  
00004910304710058DT67590675900000015164800888800000010180088824001193103900014581499041320230000001987010323000000001022642400344XXXXXX2819               2111111   NYV4 A7W463103465949410N840000000019870P4NZ00    01DNKETOFUSION833-923-3587   09046B    VS84000000019870 NP1599977360677   0CF6EA8D97T22002255454F  000000000+                B CB 12107                     000000000  N000000000 494   0000000000000.00 0000000.00   0000000.00                             000000000000000                                                                                                                                                     01424 G000000019870 0000000000004.15     02040 01000                  
00004920304710001P16759067590000001516480088880000001010000000000000000                             2000000000000000000000000              000000000000                    0000000000000000000000000                    000000000000                                                                                                                                                                                                                                                                                                                                                                                                                                                                                        
00004930304710059DT67590675900000015164800888800000010180088824001193103900014581507041320230000002487010323000000001022642469497XXXXXX4282               2111111   NYV4 A7W583103472071217N840000000024870H9T300    01DNKETOFUSION833-923-3587   013870    VD84000000024870 NP1599977360677   F438CAEBC6TEE8BD44FCBFA  000000000+                F PF 08175                     000000000  N000000000       0000000000000.00 0000000.00   0000000.00                             000000000000000                                                                                                                                                     01424 G000000024870 0000000000004.55     01750 02000                  
00004940304710001P16759067590000001516480088880000001010000000000000000                             2000000000000000000000000              000000000000                    0000000000000000000000000                    000000000000                                                                                                                                                                                                                                                                                                                                                                                                                                                                                        
00004950304710060DT67590675900000015164800888800000010180088887287283103900014581516041320230000001987010323000000001022642538710XXXXXX1815       ME03KE06MS02      NY 4607AMDJYO4JG80413  N840000000019870          81DNKETOFUSION833-923-3587   089870    MD84000000019870 N  599977360677   7B40768EF9TDEE9F47E5DF4  000000000+600450S00130    MDJ  00401                     000000000  N                0000000000000.00 0000000.00   0000000.00                             000000000000000                                                                                                                                                   U001424  000000000000 0000000000003.43     01650 01500                  
00004960304710061DT67590675900000015164800888800000010680088887287283103900014581524041320230000002255010323000000001022642521853XXXXXX4675                         NY 4607AMPLIS0WG90413  N840000000022550          81CNKETOFUSION833-923-3587   013929    MC84000000022550 N  599977360677   88A0C58BA8T64E596085743  000000000+600450S00130    MPL  00564                     000000000  N                0000000000000.00 0000000.00   0000000.00                             000000000000000                                                                                                                                                     01424  000000000000-0000000000003.95     01750 00000                  
00004970304710062DT67590675900000015164800888800000010680088874001193103900014583300041320230000002487010323000000001022642442796XXXXXX9127               0000000   NY94 07N000000000000000N   000000000000          01CNKETOFUSION833-923-3587             VD84000000024870 N  599977360677                            000000000+                F DF 08168                     000000000  Y000000000 369   0000000000000.00 0000000.00   0000000.00                             000000000000000                                                                                                                                                     01424  000000000000 0000000000000.00     00000 00000                  
00004980304710063DT67590675900000015164800888800000010180088887287283103900014581557041320230000001987010323000000001022642542432XXXXXX2228       ME03KE06MS02      NY 4607AMDJLP2AHF0413  N840000000019870          81DNKETOFUSION833-923-3587   923982    MD84000000019870 N  599977360677   C98E19E686T7B1828594EB7  000000000+600450S00130    MDJ  10813                     000000000  1                0000000000000.00 0000000.00   0000000.00                             000000000000000                                                                                                                                                   U001424  000000000000 0000000000000.32     00050 02200                  
00004990304710064DT67590675900000015164800888800000010180088887287283103900014581573041320230000001499010323000000001022642526218XXXXXX1903       ME03KE06MS02      NY 4607AMDSJLD0G90413  N840000000014990          81DNKETOFUSION833-923-3587   35934Z    MD84000000014990 N  599977360677   CDE539C118T206B3221499C  000000000+600450S00130    MDS  10813                     000000000  1                0000000000000.00 0000000.00   0000000.00                             000000000000000                                                                                                                                                   U001424  000000000000 0000000000000.29     00050 02200                  
00005000304710065DT67590675900000015164800888800000010680088887287283103900014581607041320230000000695510323000000001022642551010XXXXXX7725                         NY 4607AMDJRFJPHF0413  N840000000006955          81CNKETOFUSION833-923-3587   332221    MD84000000006955 N  599977360677   A8E40BA125T2EA03EF3C7EA  000000000+600450S00130    MDJ  00560                     000000000  N                0000000000000.00 0000000.00   0000000.00                             000000000000000                                                                                                                                                     01424  000000000000 0000000000000.00     00000 00000                  
00005010304710066DT67590675900000015164800888800000010680088887287283103900014581615041320230000000654810323000000001022642551010XXXXXX7725                         NY 4607AMDJRFR1HF0413  N840000000006548          81CNKETOFUSION833-923-3587   332222    MD84000000006548 N  599977360677   A8E40BA125T31D2483ABE23  000000000+600450S00130    MDJ  00560                     000000000  N                0000000000000.00 0000000.00   0000000.00                             000000000000000                                                                                                                                                     01424  000000000000 0000000000000.00     00000 00000                  
00005020304710067DT67590675900000015164800888800000010680088874001193103900014581627041320230000000993510323000000001022642410039XXXXXX0364               0000000   NYV4 07T303103517343654N8400000000099353DJX00    01CNKETOFUSION833-923-3587   67686D    VS84000000009935 NP1599977360677   7D7D60B0C7T88542D1CC273  000000000+                D CD 00245                     000000000  N000000000 166   0000000000000.00 0000000.00   0000000.00                             000000000000000                                                                                                                                                     01424  000000009935-0000000000001.75     01760 00000                  
00005030304710001P16759067590000001516480088880000001060000000000000000                             2000000000000000000000000              000000000000                    0000000000000000000000000                    000000000000                                                                                                                                                                                                                                                                                                                                                                                                                                                                                        
00005040304710068DT67590675900000015164800888800000010180088887287283103900014581656041320230000001987010323000000001022642537811XXXXXX7235       ME03KE06MS02      NY 4607AMWEMO76HF0413  N840000000019870          81DNKETOFUSION833-923-3587   02251Z    MC84000000019870 N  599977360677   EADDCC3FD4TE76764C55D4C  000000000+600450S00130    MWE  00737                     000000000  N                0000000000000.00 0000000.00   0000000.00                             000000000000000                                                                                                                                                   U001424  000000000000 0000000000005.27     02600 01000                  
00005050304710069DT67590675900000015164800888800000010680088874001193103900014581676041320230000001157210323000000001022642410039XXXXXX3460               0000000   NYV4 07T583103527325214N840000000011572TZFX00    01CNKETOFUSION833-923-3587   14411D    VS84000000011572 NP1599977360677   719F26BCD1T56DDE8E27B97  000000000+                D CD 00245                     000000000  N000000000 166   0000000000000.00 0000000.00   0000000.00                             000000000000000                                                                                                                                                     01424  000000011572-0000000000002.04     01760 00000                  
00005060304710001P16759067590000001516480088880000001060000000000000000                             2000000000000000000000000              000000000000                    0000000000000000000000000                    000000000000                                                                                                                                                                                                                                                                                                                                                                                                                                                                                        
00005070304710070DT67590675900000015164800888800000010680088874001193103900014581684041320230000000519010323000000001022642448233XXXXXX8470               0000000   NYV4 07T463103531853508N8400000000051905DPK00    01CNKETOFUSION833-923-3587   094626    VD84000000005190 NP1599977360677   ED7A4BE2EFT7016FB6E8CB9  000000000+                F DF 08168                     000000000  Y000000000 369   0000000000000.00 0000000.00   0000000.00                             000000000000000                                                                                                                                                     01424  000000005190 0000000000000.00     00000 00000                  
00005080304710001P16759067590000001516480088880000001060000000000000000                             2000000000000000000000000              000000000000                    0000000000000000000000000                    000000000000                                                                                                                                                                                                                                                                                                                                                                                                                                                                                        
00005090304710071DT67590675900000015164800888800000010180088887287283103900014581698041320230000002487010323000000001022642517805XXXXXX8592       ME03KE06MS02      NY 4607AMPLS1CHDH0413  N840000000024870          81DNKETOFUSION833-923-3587   03959B    MC84000000024870 N  599977360677   58E82DA24CT7EB9F1BB89D2  000000000+600450S00130    MPL  00580                     000000000  N                0000000000000.00 0000000.00   0000000.00                             000000000000000                                                                                                                                                   U001424  000000000000 0000000000005.32     02100 01000                  
00005100304710072DT67590675900000015164800888800000010180088887287283103900014581706041320230000000327410323000000001022642517805XXXXXX8592       ME03KE06MS02      NY 4607AMPLR1LRHF0413  N840000000003274          81DNKETOFUSION833-923-3587   06054B    MC84000000003274 N  599977360677   58E82DA24CT4CCF0975CC63  000000000+600450S00130    MPL  00580                     000000000  N                0000000000000.00 0000000.00   0000000.00                             000000000000000                                                                                                                                                   U001424  000000000000 0000000000000.79     02100 01000                  
00005110304710073DT67590675900000015164800888800000010180088887287283103900014581714041320230000000259510323000000001022642517805XXXXXX8592       ME03KE06MS02      NY 4607AMPLAJQEG90413  N840000000002595          81DNKETOFUSION833-923-3587   06691B    MC84000000002595 N  599977360677   58E82DA24CT1B9EE937F039  000000000+600450S00130    MPL  00580                     000000000  N                0000000000000.00 0000000.00   0000000.00                             000000000000000                                                                                                                                                   U001424  000000000000 0000000000000.64     02100 01000                  
00005120304710074DT67590675900000015164800888800000010680088887287283103900014581722041320230000000993510323000000001022642517805XXXXXX9071                         NY 4607AMPLZJI9PA0413  N840000000009935          81CNKETOFUSION833-923-3587   072346    MC84000000009935 N  599977360677   BA79EB1FBDTADC0C7AA2CFD  000000000+600450S00130    MPL  00564                     000000000  N                0000000000000.00 0000000.00   0000000.00                             000000000000000                                                                                                                                                     01424  000000000000-0000000000001.74     01750 00000                  
00005130304710075DT67590675900000015164800888800000010180088824001193103900014581762041320230000002487010323000000001022642483480XXXXXX3059               2111111   NYV4 A7W303103540865311N84000000002487049L700    01DNKETOFUSION833-923-3587   962568    VD84000000024870 NP1599977360677   6AB75D3D0ETDDCA5205780E  000000000+                F DF 10420                     000000000  Y000000000 338   0000000000000.00 0000000.00   0000000.00                             000000000000000                                                                                                                                                     01424 G000000024870 0000000000000.34     00050 02200                  
00005140304710001P16759067590000001516480088880000001010000000000000000                             2000000000000000000000000              000000000000                    0000000000000000000000000                    000000000000                                                                                                                                                                                                                                                                                                                                                                                                                                                                                        
00005150304710076DT67590675900000015164800888800000010180088824001193103900014581770041320230000000327410323000000001022642438854XXXXXX0842               2111111   NYV4 A7W463103549755391N840000000003274P88600    01DNKETOFUSION833-923-3587   08467I    VS84000000003274 NP1599977360677   9ED24C18BDTA89DB259091F  000000000+                I CI 12109                     000000000  N000000000 498   0000000000000.00 0000000.00   0000000.00                             000000000000000                                                                                                                                                     01424 G000000003274 0000000000000.92     02500 01000                  
00005160304710001P16759067590000001516480088880000001010000000000000000                             2000000000000000000000000              000000000000                    0000000000000000000000000                    000000000000                                                                                                                                                                                                                                                                                                                                                                                                                                                                                        
00005170304710077DT67590675900000015164800888800000010680088874001193103900014581783041320230000000519010323000000001022642414720XXXXXX2336               0000000   NYV4 07T463103551998934N840000000005190T2VS00    01CNKETOFUSION833-923-3587   08775D    VS84000000005190 NP1599977360677   D8E6E49DADTC48FFCCB6D6E  000000000+                D CD 00245                     000000000  N000000000 166   0000000000000.00 0000000.00   0000000.00                             000000000000000                                                                                                                                                     01424  000000005190-0000000000000.91     01760 00000                  
00005180304710001P16759067590000001516480088880000001060000000000000000                             2000000000000000000000000              000000000000                    0000000000000000000000000                    000000000000                                                                                                                                                                                                                                                                                                                                                                                                                                                                                        
00005190304710078DT67590675900000015164800888800000010680088874001193103900014583318041320230000000880710323000000001022642473984XXXXXX0945               0000000   NY94 07N000000000000000N   000000000000          01CNKETOFUSION833-923-3587             VD84000000008807 N  599977360677                            000000000+                G DG 08168                     000000000  N000000000 369   0000000000000.00 0000000.00   0000000.00                             000000000000000                                                                                                                                                     01424  000000000000 0000000000000.00     00000 00000                  
00005200304710079DT67590675900000015164800888800000010680088874001193103900014583326041320230000000146410323000000001022642473984XXXXXX0945               0000000   NY94 07N000000000000000N   000000000000          01CNKETOFUSION833-923-3587             VD84000000001464 N  599977360677                            000000000+                G DG 08168                     000000000  N000000000 369   0000000000000.00 0000000.00   0000000.00                             000000000000000                                                                                                                                                     01424  000000000000 0000000000000.00     00000 00000                  
00005210304710080DT67590675900000015164800888800000010680088887287283103900014581813041320230000000418410323000000001022642518941XXXXXX4545                         NY 4607AMWEA8QQG90413  N840000000004184          81CNKETOFUSION833-923-3587   292970    MC84000000004184 N  599977360677   45BDD563A3TF8ADD8BEC8C3  000000000+600450S00130    MWE  00564                     000000000  N                0000000000000.00 0000000.00   0000000.00                             000000000000000                                                                                                                                                     01424  000000000000-0000000000000.73     01750 00000                  
00005220304710081DT67590675900000015164800888800000010180088887287283103900014581839041320230000001987010323000000001022642542418XXXXXX4796       ME03KE06MS02      NY 4607AMWETUP3DH0413  N840000000019870          81DNKETOFUSION833-923-3587   50020P    MC84000000019870 N  599977360677   1701C87B10T64833A9528F4  000000000+600450S00130    MWE  00737                     000000000  N                0000000000000.00 0000000.00   0000000.00                             000000000000000                                                                                                                                                   U001424  000000000000 0000000000005.27     02600 01000                  
00005230304710082DT67590675900000015164800888800000010180088824001193103900014581846041320230000000327410323000000001022642431715XXXXXX4057               2111111   NYV4 A7W463103562340089N840000000003274DLFZ00    01DNKETOFUSION833-923-3587   608938    VD84000000003274 NP1599977360677   A80D91B9E1T94CD69EB0D47  000000000+                F DF 00415                     000000000  N000000000       0000000000000.00 0000000.00   0000000.00                             000000000000000                                                                                                                                                     01424 G000000003274 0000000000000.69     01650 01500                  
00005240304710001P16759067590000001516480088880000001010000000000000000                             2000000000000000000000000              000000000000                    0000000000000000000000000                    000000000000                                                                                                                                                                                                                                                                                                                                                                                                                                                                                        
00005250304710083DT67590675900000015164800888800000010180088887287283103900014581862041320230000001987010323000000001022642514380XXXXXX8017       ME03KE06MS02      NY 4607AMDJLM26G90413  N840000000019870          81DNKETOFUSION833-923-3587   010948    MD84000000019870 N  599977360677   E67A256A00TD32816638CB6  000000000+600450S00130    MDJ  00401                     000000000  N                0000000000000.00 0000000.00   0000000.00                             000000000000000                                                                                                                                                   U001424  000000000000 0000000000003.43     01650 01500                  
00005260304710084DT67590675900000015164800888800000010680088874001193103900014581890041320230000001987010323000000001022642440066XXXXXX2128               0000000   NYV4 07T463103567838479N840000000019870W28Q00    01CNKETOFUSION833-923-3587   09942C    VS84000000019870 NP1599977360677   FC02EA401FT879FD6A2E76F  000000000+                C CC 00245                     000000000  N000000000 166   0000000000000.00 0000000.00   0000000.00                             000000000000000                                                                                                                                                     01424  000000019870-0000000000003.50     01760 00000                  
00005270304710001P16759067590000001516480088880000001060000000000000000                             2000000000000000000000000              000000000000                    0000000000000000000000000                    000000000000                                                                                                                                                                                                                                                                                                                                                                                                                                                                                        
00005280304710085DT67590675900000015164800888800000010180088824001193103900014581903041320230000000259510323000000001022642431715XXXXXX4057               2111111   NYV4 A7W463103567883389N840000000002595X8PM00    01DNKETOFUSION833-923-3587   609172    VD84000000002595 NP1599977360677   A80D91B9E1T9AC2071409BC  000000000+                F DF 00415                     000000000  N000000000       0000000000000.00 0000000.00   0000000.00                             000000000000000                                                                                                                                                     01424 G000000002595 0000000000000.58     01650 01500                  
00005290304710001P16759067590000001516480088880000001010000000000000000                             2000000000000000000000000              000000000000                    0000000000000000000000000                    000000000000                                                                                                                                                                                                                                                                                                                                                                                                                                                                                        
00005300304710086DT67590675900000015164800888800000010680088887287283103900014581912041320230000000695510323000000001022642514380XXXXXX8017                         NY 4607AMDJUBDBDH0413  N840000000006955          81CNKETOFUSION833-923-3587   171589    MD84000000006955 N  599977360677   E67A256A00TD32816638CB6  000000000+600450S00130    MDJ  00560                     000000000  N                0000000000000.00 0000000.00   0000000.00                             000000000000000                                                                                                                                                     01424  000000000000 0000000000000.00     00000 00000                  
00005310304710087DT67590675900000015164800888800000010180088887287283103900014581946041320230000001499010323000000001022642536817XXXXXX3790       ME03KE06MS02      NY 4607AMPLBXKVG90413  N840000000014990          81DNKETOFUSION833-923-3587   00315B    MC84000000014990 N  599977360677   E460D64E8DT3097D672B804  000000000+600450S00130    MPL  00580                     000000000  N                0000000000000.00 0000000.00   0000000.00                             000000000000000                                                                                                                                                   U001424  000000000000 0000000000003.25     02100 01000                  
00005320304710088DT67590675900000015164800888800000010180088887287283103900014581953041320230000000327410323000000001022642536817XXXXXX3790       ME03KE06MS02      NY 4607AMPLLXD5G90413  N840000000003274          81DNKETOFUSION833-923-3587   00319B    MC84000000003274 N  599977360677   E460D64E8DT45E338C9CFF9  000000000+600450S00130    MPL  00580                     000000000  N                0000000000000.00 0000000.00   0000000.00                             000000000000000                                                                                                                                                   U001424  000000000000 0000000000000.79     02100 01000                  
00005330304710089DT67590675900000015164800888800000010680088887287283103900014581961041320230000001987010323000000001022642518941XXXXXX7537                         NY 4607AMWETCWUHF0413  N840000000019870          81CNKETOFUSION833-923-3587   466111    MC84000000019870 N  599977360677   22A533FCCAT55EF1CEF4B78  000000000+600450S00130    MWE  00564                     000000000  N                0000000000000.00 0000000.00   0000000.00                             000000000000000                                                                                                                                                     01424  000000000000-0000000000003.48     01750 00000                  
00005340304710090DT67590675900000015164800888800000010680088887287283103900014582001041320230000000596110323000000001022642515307XXXXXX1174                         NY 4607AMCWTHDGHF0413  N840000000005961          81CNKETOFUSION833-923-3587   088680    MC84000000005961 N  599977360677   5E12426828T6209B7370B3C  000000000+600450S00130    MCW  00564                     000000000  N                0000000000000.00 0000000.00   0000000.00                             000000000000000                                                                                                                                                     01424  000000000000-0000000000001.04     01750 00000                  
00005350304710091DT67590675900000015164800888800000010180088824001193103900014582034041320230000001987010323000000001022642414740XXXXXX9948               2111111   NYV4 A7W463103578281364N840000000019870V2VP00    01DNKETOFUSION833-923-3587   00456D    VS84000000019870 NP1599977360677   5F1D1C92E7T3F48383D7059  000000000+                D CD 12109                     000000000  N000000000 498   0000000000000.00 0000000.00   0000000.00                             000000000000000                                                                                                                                                     01424 G000000019870 0000000000005.07     02500 01000                  
00005360304710001P16759067590000001516480088880000001010000000000000000                             2000000000000000000000000              000000000000                    0000000000000000000000000                    000000000000                                                                                                                                                                                                                                                                                                                                                                                                                                                                                        
00005370304710092DT67590675900000015164800888800000010180088824001193103900014582059041320230000002487010323000000001022642473703XXXXXX3894               2111111   NYV4 A7W303103579040584N840000000024870QQ7L00    01DNKETOFUSION833-923-3587   046719    VD84000000024870 NP1599977360677   DE1E8B4FCFTA2E686865FBC  000000000+                F DF 10420                     000000000  Y000000000 338   0000000000000.00 0000000.00   0000000.00                             000000000000000                                                                                                                                                     01424 G000000024870 0000000000000.34     00050 02200                  
00005380304710001P16759067590000001516480088880000001010000000000000000                             2000000000000000000000000              000000000000                    0000000000000000000000000                    000000000000                                                                                                                                                                                                                                                                                                                                                                                                                                                                                        
00005390304710093DT67590675900000015164800888800000010180088824001193103900014582083041320230000001499010323000000001022642474488XXXXXX2681               2111111   NYV4 A7W383103582041179N8400000000149907LV500    01DNKETOFUSION833-923-3587   121206    VD84000000014990 NP1599977360677   899BCBE774T927B96EF45E2  000000000+                F DF 10420                     000000000  Y000000000 338   0000000000000.00 0000000.00   0000000.00                             000000000000000                                                                                                                                                     01424 G000000014990 0000000000000.29     00050 02200                  
