02390020049810002BH6759067590000000288180088880000090170102202300223000000000176161    0000090001080027N8008886759C01032023                                                                                                                                                                                                                                                                                                                                                                                                                                                                                                                                                                                                 
02390030049810003DT67590675900000002881800888800000010180088824001193002900010800010010220230000000088600223000000000176161451440XXXXXX1209       VK04VS111111111   NYV1 A E383002542189248N840000000000886M9JZ00    05DNHAPPY HIPPIE             070338    VD84000000000886 N  549976487158                            000000000+                F PF 08165                     000000000  N000000000       0000000000000.00 0000000.00   0000000.00                             000000000000000                                                                                                                                                     01418 F000000000000 0000000000000.19     01600 00500                  
02390040049810004DT67590675900000002881800888800000010180088824001193002900010800028010220230000000658500223000000000176161419090XXXXXX6665               1001111   NYV1 A K303002595728066N840000000006585K9RR00    01DNHAPPY HIPPIE             413891    VD84000000006585 N  549976487158                            000000000+                F DF 00412                     000000000  N000000000       0000000000000.00 0000000.00   0000000.00                             000000000000000                                                                                                                                                     01418 E000000000000 0000000000001.24     01650 01500                  
02390050049810005DT67590675900000002881800888800000010180088824001193002900010800036010220230000000117800223000000000176161480639XXXXXX8059       VK04VS111111111   NYV1 A E383002605989514N8400000000011789NSP00    05DNHAPPY HIPPIE             176578    VD84000000001178 N  549976487158                            000000000+                F DF 00451                     000000000  N000000000 214   0000000000000.00 0000000.00   0000000.00                             000000000000000                                                                                                                                                     01418 F000000000000 0000000000000.22     01550 00400                  
02390060049810006DT67590675900000002881800888800000010180088824001193002900010800044010220230000000120600223000000000176161434769XXXXXX6236       VK04VS111111111   NYV1 A E463002635090716N840000000001206B92B00    05DNHAPPY HIPPIE             093812    VD84000000001206 N  549976487158                            000000000+                F DF 10439                     000000000  Y000000000 331   0000000000000.00 0000000.00   0000000.00                             000000000000000                                                                                                                                                     01418 F000000000000 0000000000000.23     00050 02200                  
02390070049810007DT67590675900000002881800888800000010180088877287283002900010800053010220230000000395100223000000000176161542432XXXXXX9219       MS02WI09          NY 2 0 AMDJV4HGX40102  N840000000003951          05DNHAPPY HIPPIE             678868    MD84000000003951 N  549976487158                            000000000+M10101C1334C    MDJ  10815                     000000000  1                0000000000000.00 0000000.00   0000000.00                             000000000000000                                                                                                                                                   B101418  000000000000 0000000000000.24     00050 02200                  
02390080049810008DT67590675900000002881800888800000010180088877287283002900010800061010220230000001536500223000000000176161517148XXXXXX4240       MS02WI09          NY 1 0 AMWEWJGLX40102  N840000000015365          05DNHAPPY HIPPIE             02970Z    MC84000000015365 N  549976487158                            000000000+M10101C5434C    MWE  00743                     000000000  N                0000000000000.00 0000000.00   0000000.00                             000000000000000                                                                                                                                                   B101418  000000000000 0000000000003.57     02300 00400                  
02390090049810009DT67590675900000002881800888800000010180088824001193002900010800077010220230000000723800223000000000176161459954XXXXXX5604       VS11    0001111   NYV1 A E383002666253000N8400000000072382JL300    05DNHAPPY HIPPIE             H30328    VD84000000007238 N  549976487158                            000000000+                F DF 10433                     000000000  Y000000000 338   0000000000000.00 0000000.00   0000000.00                             000000000000000                                                                                                                                                     01418 A000000000000 0000000000000.26     00050 02200                  
02390100049810010DT67590675900000002881800888800000010180088824001193002900010800085010220230000000620800223000000000176161434292XXXXXX6609       VS11    0001111   NYV1 A E383002684107761N840000000006208KL5K00    05DNHAPPY HIPPIE             02906D    VS84000000006208 N  549976487158                            000000000+                D CD 12113                     000000000  N000000000 499   0000000000000.00 0000000.00   0000000.00                             000000000000000                                                                                                                                                     01418 A000000000000 0000000000001.40     02100 01000                  
02390110049810011DT67590675900000002881800888800000010180088824001193002900010800093010220230000000167800223000000000176161410881XXXXXX6333       VS11    0001111   NYV1 A E463002712376775N8400000000016785HM300    05DNHAPPY HIPPIE             684266    VD84000000001678 N  549976487158                            000000000+                F DF 00381                     000000000  N000000000       0000000000000.00 0000000.00   0000000.00                             000000000000000                                                                                                                                                     01418 A000000000000 0000000000000.28     00800 01500                  
02390120049810012DT67590675900000002881800888800000010180088873011003002900010800107010220230000000395000223000000000176161372324XXXXX2002                          NY 1 0 N004124758981306N840000000003950          05DNHAPPY HIPPIE             829001    AM84000000003950 N  549976487158                            000000000+51010155434C 258     11261                     000000000                   0000000000000.00 0000000.00   0000000.00                             000000000000000 61248972086759675900000002881 HAPPY HIPPIE             832 PARKWAY              8656540830      37862     HAPPYHIPPIE832@GMAIL.COM                  01418  000000000000 0000000000000.73     01600 00000                  
02390130049810013DT67590675900000002881800888800000010180088873011003002900010800115010220230000002776100223000000000176161376736XXXXX2008                          NY 1 0 N004125365985309N840000000027761          05DNHAPPY HIPPIE             824707    AM84000000027761 N  549976487158                            000000000+51010155434C 258     11262                     000000000                   0000000000000.00 0000000.00   0000000.00                             000000000000000 61248972086759675900000002881 HAPPY HIPPIE             832 PARKWAY              8656540830      37862     HAPPYHIPPIE832@GMAIL.COM                  01418  000000000000 0000000000005.51     01950 00000                  
02390140049810014DT67590675900000002881800888800000010180088824001193002900010800127010220230000000219400223000000000176161426684XXXXXX2374       VS11    0001111   NYV1 A E303002736724503N840000000002194H9D400    05DNHAPPY HIPPIE             02576C    VS84000000002194 N  549976487158                            000000000+                C CC 12112                     000000000  N000000000 497   0000000000000.00 0000000.00   0000000.00                             000000000000000                                                                                                                                                     01418 A000000000000 0000000000000.46     01650 01000                  
02390150049810015DT67590675900000002881800888800000010180088824001193002900010800135010220230000000790000223000000000176161410894XXXXXX2287       VS11    0001111   NYV1 A E303002737360811N840000000007900Z77X00    05DNHAPPY HIPPIE             000502    VD84000000007900 N  549976487158                            000000000+                F DF 10433                     000000000  Y000000000 338   0000000000000.00 0000000.00   0000000.00                             000000000000000                                                                                                                                                     01418 A000000000000 0000000000000.26     00050 02200                  
02390160049810016DT67590675900000002881800888800000010180088876509753002900010800141010220230000000592400223000000000176161601101XXXXXX8540   BA50                  NY41 0 N873001440726612N840000000005924    00    05DNHAPPY HIPPIE             00286B    DZ84000000005924 N  549976487158050                         000000000+0000004910H00   DMCDI01012200032  140112000000 000000000  0          124   0000000000000.00 0000000.00   0000000.00                             000000000000000                                                                                                                                                     01418  000000000000 0000000000001.60     02450 01500                  
02390170049810017DT67590675900000002881800888800000010180088824001193002900010800150010220230000000513600223000000000176161445101XXXXXX0003       VS11    0001111   NYV1 A E383002762414403N840000000005136K5QV00    05DNHAPPY HIPPIE             898076    VD84000000005136 N  549976487158                            000000000+                F DF 10433                     000000000  Y000000000 338   0000000000000.00 0000000.00   0000000.00                             000000000000000                                                                                                                                                     01418 A000000000000 0000000000000.25     00050 02200                  
02390180049810018DT67590675900000002881800888800000010180088824001193002900010800168010220230000000487800223000000000176161480639XXXXXX1059       VS11    0001111   NYV1 A E583002769604204N840000000004878C7ZL00    05DNHAPPY HIPPIE             184307    VD84000000004878 N  549976487158                            000000000+                F DF 00381                     000000000  N000000000       0000000000000.00 0000000.00   0000000.00                             000000000000000                                                                                                                                                     01418 A000000000000 0000000000000.54     00800 01500                  
02390190049810019DT67590675900000002881800888800000010180088824001193002900010800176010220230000004067500223000000000176161463405XXXXXX1854       VS11    0001111   NYV1 A E463002773510767N840000000040675X7K800    05DNHAPPY HIPPIE             083233    VD84000000040675 N  549976487158                            000000000+                F DF 10433                     000000000  Y000000000 338   0000000000000.00 0000000.00   0000000.00                             000000000000000                                                                                                                                                     01418 A000000000000 0000000000000.42     00050 02200                  
02390200049810020DT67590675900000002881800888800000010180088877287283002900010800186010220230000000658200223000000000176161517805XXXXXX9286       MS02WI09          NY 1 0 AMPLSG7T1N0102  N840000000006582          05DNHAPPY HIPPIE             07755B    MC84000000006582 N  549976487158                            000000000+M10101C5434C    MPL  00364                     000000000  N                0000000000000.00 0000000.00   0000000.00                             000000000000000                                                                                                                                                   B101418  000000000000 0000000000001.22     01800 00400                  
02390210049810021DT67590675900000002881800888800000010180088877287283002900010800194010220230000000395000223000000000176161511953XXXXXX8236       MS02WI09          NY 1 0 AMDJLQ2R0D0102  N840000000003950          05DNHAPPY HIPPIE             010418    MD84000000003950 N  549976487158                            000000000+M10101C5434C    MDJ  00402                     000000000  N                0000000000000.00 0000000.00   0000000.00                             000000000000000                                                                                                                                                   B101418  000000000000 0000000000000.56     01050 01500                  
02390220049810022DT67590675900000002881800888800000010180088877287283002900010800202010220230000000493800223000000000176161517805XXXXXX9286       MS02WI09          NY 1 0 AMPLES7G0D0102  N840000000004938          05DNHAPPY HIPPIE             01170B    MC84000000004938 N  549976487158                            000000000+M10101C5434C    MPL  00364                     000000000  N                0000000000000.00 0000000.00   0000000.00                             000000000000000                                                                                                                                                   B101418  000000000000 0000000000000.93     01800 00400                  
02390230049810023DT67590675900000002881800888800000010180088824001193002900010800218010220230000000158000223000000000176161443264XXXXXX7069       VS11    0001111   NYV1 A E583002791882236N840000000001580XLLB00    90DNHAPPY HIPPIE             016221    VD84000000001580 N  549976487158                            000000000+                F DF 10433                     000000000  Y000000000 338   0000000000000.00 0000000.00   0000000.00                             000000000000000                                                                                                                                                     01418 A000000000000 0000000000000.23     00050 02200                  
02390240049810024DT67590675900000002881800888800000010180088877287283002900010800228010220230000000790000223000000000176161515676XXXXXX9224       MS02WI09          NY 1 0 AMWEDVHO1O0102  N840000000007900          05DNHAPPY HIPPIE             06095Z    MC84000000007900 N  549976487158                            000000000+M10101C5434C    MWE  00743                     000000000  N                0000000000000.00 0000000.00   0000000.00                             000000000000000                                                                                                                                                   B101418  000000000000 0000000000001.86     02300 00400                  
02390250049810025DT67590675900000002881800888800000010180088877287283002900010800236010220230000000167800223000000000176161527833XXXXXX9306       MS02WI09          NY 1 0 AMDJMA7N0D0102  N840000000001678          05DNHAPPY HIPPIE             164979    MD84000000001678 N  549976487158                            000000000+M10101C5434C    MDJ  00402                     000000000  N                0000000000000.00 0000000.00   0000000.00                             000000000000000                                                                                                                                                   B101418  000000000000 0000000000000.33     01050 01500                  
02390260049810026DT67590675900000002881800888800000010180088824001193002900010800242010220230000000325800223000000000176161443238XXXXXX1853       VS11    0001111   NYV1 A E583002804769652N840000000003258TRJC00    05DNHAPPY HIPPIE             072117    VD84000000003258 N  549976487158                            000000000+                F DF 00381                     000000000  N000000000       0000000000000.00 0000000.00   0000000.00                             000000000000000                                                                                                                                                     01418 A000000000000 0000000000000.41     00800 01500                  
02390270049810027DT67590675900000002881800888800000010180088824001193002900010800259010220230000000118200223000000000176161443238XXXXXX0990       VK04VS111111111   NYV1 A E583002820801613N840000000001182BVMF00    05DNHAPPY HIPPIE             074800    VD84000000001182 N  549976487158                            000000000+                F DF 00451                     000000000  N000000000 214   0000000000000.00 0000000.00   0000000.00                             000000000000000                                                                                                                                                     01418 F000000000000 0000000000000.22     01550 00400                  
02390280049810028DT67590675900000002881800888800000010180088824001193002900010800267010220230000000150900223000000000176161434257XXXXXX8094       VS11    0001111   NYV1 A E583002826505618N8400000000015098G5D00    05DNHAPPY HIPPIE             080247    VD84000000001509 N  549976487158                            000000000+                F DF 10433                     000000000  Y000000000 338   0000000000000.00 0000000.00   0000000.00                             000000000000000                                                                                                                                                     01418 A000000000000 0000000000000.23     00050 02200                  
02390290049810029DT67590675900000002881800888800000010180088824001193002900010800275010220230000000087100223000000000176161434257XXXXXX8094       VK04VS111111111   NYV1 A E583002829034677N8400000000008715FGL00    05DNHAPPY HIPPIE             076333    VD84000000000871 N  549976487158                            000000000+                F DF 10439                     000000000  Y000000000 331   0000000000000.00 0000000.00   0000000.00                             000000000000000                                                                                                                                                     01418 F000000000000 0000000000000.22     00050 02200                  
02390300049810030BH6759067590000000288180088880000090170102202300223000000000054039    0000090001080012N8008886759C01032023                                                                                                                                                                                                                                                                                                                                                                                                                                                                                                                                                                                                 
02390310049810031DT67590675900000002881800888800000010180088824001193002900010800010010220230000000296100223000000000054039419090XXXXXX6408       VS11    0001111   NYV1 A E463002562490952N8400000000029614CD700    05DNHAPPY HIPPIE             412473    VD84000000002961 N  549976487134                            000000000+                F DF 00381                     000000000  N000000000       0000000000000.00 0000000.00   0000000.00                             000000000000000                                                                                                                                                     01418 A000000000000 0000000000000.39     00800 01500                  
02390320049810032DT67590675900000002881800888800000010180088824001193002900010800028010220230000000083900223000000000054039422921XXXXXX5755       VK04VS111111111   NYV1 A E583002584026492N840000000000839F5R700    05DNHAPPY HIPPIE             040403    VD84000000000839 N  549976487134                            000000000+                F DF 00451                     000000000  N000000000 214   0000000000000.00 0000000.00   0000000.00                             000000000000000                                                                                                                                                     01418 F000000000000 0000000000000.17     01550 00400                  
02390330049810033DT67590675900000002881800888800000010180088824001193002900010800036010220230000000098700223000000000054039429413XXXXXX6616       VK04VS111111111   NYV1 A E303002596063224N840000000000987CN4Q00    05DNHAPPY HIPPIE             674835    VD84000000000987 N  549976487134                            000000000+                F DF 00451                     000000000  N000000000 214   0000000000000.00 0000000.00   0000000.00                             000000000000000                                                                                                                                                     01418 F000000000000 0000000000000.19     01550 00400                  
02390340049810034DT67590675900000002881800888800000010180088824001193002900010800044010220230000002513200223000000000054039419090XXXXXX3017       VS11    0001111   NYV1 A E463002624815355N840000000025132RRGV00    05DNHAPPY HIPPIE             415461    VD84000000025132 N  549976487134                            000000000+                F DF 00381                     000000000  N000000000       0000000000000.00 0000000.00   0000000.00                             000000000000000                                                                                                                                                     01418 A000000000000 0000000000002.16     00800 01500                  
02390350049810035DT67590675900000002881800888800000010180088824001193002900010800051010220230000000098700223000000000054039443264XXXXXX5370       VK04VS111111111   NYV1 A E303002649660741N840000000000987PC8400    05DNHAPPY HIPPIE             019981    VD84000000000987 N  549976487134                            000000000+                F DF 10439                     000000000  Y000000000 331   0000000000000.00 0000000.00   0000000.00                             000000000000000                                                                                                                                                     01418 F000000000000 0000000000000.22     00050 02200                  
02390360049810036DT67590675900000002881800888800000010180088824001193002900010800069010220230000000240600223000000000054039440393XXXXXX7101       VS11    0001111   NYV1 A E463002664616699N840000000002406DFKR00    05DNHAPPY HIPPIE             685372    VD84000000002406 N  549976487134                            000000000+                F PF 08170                     000000000  N000000000       0000000000000.00 0000000.00   0000000.00                             000000000000000                                                                                                                                                     01418 A000000000000 0000000000000.43     01150 01500                  
02390370049810037DT67590675900000002881800888800000010180088824001193002900010800077010220230000000142600223000000000054039486796XXXXXX8138       VK04VS111111111   NYV1 A E583002679748981N840000000001426QP5800    05DNHAPPY HIPPIE             045213    VD84000000001426 N  549976487134                            000000000+                F DF 10439                     000000000  Y000000000 331   0000000000000.00 0000000.00   0000000.00                             000000000000000                                                                                                                                                     01418 F000000000000 0000000000000.23     00050 02200                  
02390380049810038DT67590675900000002881800888800000010180088824001193002900010800085010220230000000316100223000000000054039415978XXXXXX9354       VS11    0001111   NYV1 A E303002693501945N840000000003161KMSF00    05DNHAPPY HIPPIE             074952    VD84000000003161 N  549976487134                            000000000+                F DF 10433                     000000000  Y000000000 338   0000000000000.00 0000000.00   0000000.00                             000000000000000                                                                                                                                                     01418 A000000000000 0000000000000.24     00050 02200                  
02390390049810039DT67590675900000002881800888800000010180088877287283002900010800095010220230000000439000223000000000054039539277XXXXXX2706       MS02WI09          NY 1 0 AMWEIAJI0D0102  N840000000004390          05DNHAPPY HIPPIE             07278Z    MC84000000004390 N  549976487134                            000000000+M10101C5434C    MWE  00743                     000000000  N                0000000000000.00 0000000.00   0000000.00                             000000000000000                                                                                                                                                   B101418  000000000000 0000000000001.05     02300 00400                  
02390400049810040DT67590675900000002881800888800000010180088824001193002900010800101010220230000000720800223000000000054039434769XXXXXX6440       VS11    0001111   NYV1 A E463002702018528N840000000007208ZR3K00    05DNHAPPY HIPPIE             013014    VD84000000007208 N  549976487134                            000000000+                F DF 10433                     000000000  Y000000000 338   0000000000000.00 0000000.00   0000000.00                             000000000000000                                                                                                                                                     01418 A000000000000 0000000000000.26     00050 02200                  
02390410049810041DT67590675900000002881800888800000010180088824001193002900010800119010220230000000158000223000000000054039421783XXXXXX4327       VS11    0001111   NYV1 A E583002763457261N840000000001580BFWN00    05DNHAPPY HIPPIE             024201    VS84000000001580 N  549976487134                            000000000+                A CA 12110                     000000000  N000000000 493   0000000000000.00 0000000.00   0000000.00                             000000000000000                                                                                                                                                     01418 A000000000000 0000000000000.34     01510 01000                  
02390420049810042DT67590675900000002881800888800000010180088877287283002900010800129010220230000000296200223000000000054039511953XXXXXX3911       MS02WI09          NY 1 0 AMDJTB7E1N0102  N840000000002962          05DNHAPPY HIPPIE             009170    MD84000000002962 N  549976487134                            000000000+M10101C5434C    MDJ  00402                     000000000  N                0000000000000.00 0000000.00   0000000.00                             000000000000000                                                                                                                                                   B101418  000000000000 0000000000000.46     01050 01500                  
02390430049810043BH6759067590000000215480088880000090170102202300223000000000029664    0000090001718397N8008886759C01032023                                                                                                                                                                                                                                                                                                                                                                                                                                                                                                                                                                                                 
02390440049810044DT67590675900000002154800888800000010180088824001193002900017183972010220230000002966400223000000000029664400567XXXXXX0996               2111111   NYV4 A7W303002713471669N840000000029664W8ZD00    01DNDRIP DROP DISTRO LLC     344317    VD84000000029664 NP1519971004114   17198                    000000000+                G DG 08705                     000000000  N000000000       0000000000000.00 0000000.00   0000000.00                             000000000000000                                                                                                                                                     01418 G000000029664 0000000000007.37     02450 01000                  
02390450049810001P16759067590000000215480088880000001010000000000000000    43854604522              2000000000000000000000000              000000000000                    0000000000000000000000000                    000000000000                                                                                                                                                                                                                                                                                                                                                                                                                                                                                        
02390460049810045BH6759067590000000370780088880000090170102202300223000000000039418    0000090001050023N8008886759C01032023                                                                                                                                                                                                                                                                                                                                                                                                                                                                                                                                                                                                 
02390470049810046DT67590675900000003707800888800000010180088824001193002900010500172010220230000000449900223000000000039418443900XXXXXX2930               2111111   NYV4 A7W383002573719336N8400000000044998D4D00    01DNMR HEMP FLOWER           603032    VD84000000004499 NP1549976053336   83698                    000000000+                F DF 00415                     000000000  N000000000       0000000000000.00 0000000.00   0000000.00                             000000000000000                                                                                                                                                     01418 G000000004499 0000000000000.89     01650 01500                  
02390480049810001P16759067590000000370780088880000001010000000000000000                             2000000000000000000000000              000000000000                    0000000000000000000000000                    000000000000                                                                                                                                                                                                                                                                                                                                                                                                                                                                                        
02390490049810047DT67590675900000003707800888800000010180088824001193002900010500180010220230000000304800223000000000039418414709XXXXXX0895               2111111   NYV4 A7W463002591658074N840000000003048J5HC00    01DNMR HEMP FLOWER           08176D    VS84000000003048 NP1549976053336   83699                    000000000+                D CD 12109                     000000000  N000000000 498   0000000000000.00 0000000.00   0000000.00                             000000000000000                                                                                                                                                     01418 G000000003048 0000000000000.86     02500 01000                  
02390500049810001P16759067590000000370780088880000001010000000000000000                             2000000000000000000000000              000000000000                    0000000000000000000000000                    000000000000                                                                                                                                                                                                                                                                                                                                                                                                                                                                                        
02390510049810048DT67590675900000003707800888800000010180088824001193002900010500198010220230000001000000223000000000039418440066XXXXXX2197               2111111   NYV4 A7W383002712748690N840000000010000XDKW00    01DNMR HEMP FLOWER           05663A    VS84000000010000 NP1549976053336   83710                    000000000+                A CA 12106                     000000000  N000000000 492   0000000000000.00 0000000.00   0000000.00                             000000000000000                                                                                                                                                     01418 G000000010000 0000000000001.99     01890 01000                  
02390520049810001P16759067590000000370780088880000001010000000000000000                             2000000000000000000000000              000000000000                    0000000000000000000000000                    000000000000                                                                                                                                                                                                                                                                                                                                                                                                                                                                                        
02390530049810049DT67590675900000003707800888800000010180088887287283002900010500207010220230000001232500223000000000039418542418XXXXXX9212       ME03KE06MS02      NY 4607AMWEIZ490D0102  N840000000012325          81DNMR HEMP FLOWER           03917P    MC84000000012325 N  549976053336   83711                    000000000+600450S00130    MWE  00737                     000000000  N                0000000000000.00 0000000.00   0000000.00                             000000000000000                                                                                                                                                   U001418  000000000000 0000000000003.30     02600 01000                  
02390540049810050DT67590675900000003707800888800000010180088824001193002900010500214010220230000000304800223000000000039418435546XXXXXX0145               2111111   NYV4 A7W583003022346589N840000000003048R2B200    01DNMR HEMP FLOWER           085103    VD84000000003048 NP1549976053336   83721                    000000000+                F DF 10420                     000000000  Y000000000 338   0000000000000.00 0000000.00   0000000.00                             000000000000000                                                                                                                                                     01418 G000000003048 0000000000000.24     00050 02200                  
02390550049810001P16759067590000000370780088880000001010000000000000000                             2000000000000000000000000              000000000000                    0000000000000000000000000                    000000000000                                                                                                                                                                                                                                                                                                                                                                                                                                                                                        
02390560049810051DT67590675900000003707800888800000010180088887287283002900010500231010220230000000649800223000000000039418517805XXXXXX3417       ME03KE06MS02      NY 4607AMWEUZBM4D0102  N840000000006498          81DNMR HEMP FLOWER           01739P    MC84000000006498 N  549976053336   83722                    000000000+600450S00130    MWE  00737                     000000000  N                0000000000000.00 0000000.00   0000000.00                             000000000000000                                                                                                                                                   U001418  000000000000 0000000000001.79     02600 01000                  
