00004210367040002BH6759067590000002604780012480000090170515202313523000000000108349    0000090001270019N8001246759C05152023                                                                                                                                                                                                                                                                                                                                                                                                                                                                                                                                                                                                 
00004220367040003DT67590675900000026047800124800000010180012424001193135900012700010051420230000000369813523000000000108349434258XXXXXX2443       VS11    0001111   NYV1 A E303134595560941N840000000003698PCQ600    07DNHPPYC                    077672    VD84000000003698 N  599978201978                            000000000+                F DF 10433                     000000000  Y000000000 338   0000000000000.00 0000000.00   0000000.00                             000000000000000                                                                                                                                                     01424 A000000000000 0000000000000.24     00050 02200                  
00004230367040004DT67590675900000026047800124800000010180012424001193135900012700028051420230000000610413523000000000108349443047XXXXXX6777       VS11    0001111   NYV1 A E463134655825964N840000000006104CBVG00    05DNHPPYC                    572860    VD84000000006104 N  599978201978                            000000000+                F DF 10433                     000000000  Y000000000 338   0000000000000.00 0000000.00   0000000.00                             000000000000000                                                                                                                                                     01424 A000000000000 0000000000000.25     00050 02200                  
00004240367040005DT67590675900000026047800124800000010180012424001193135900012700036051420230000001930313523000000000108349414740XXXXXX2775       VS11    0001111   NYV1 A E303134674774549N840000000019303BFSV00    05DNHPPYC                    03132C    VS84000000019303 N  599978201978                            000000000+                C CC 12112                     000000000  N000000000 497   0000000000000.00 0000000.00   0000000.00                             000000000000000                                                                                                                                                     01424 A000000000000 0000000000003.28     01650 01000                  
00004250367040006DT67590675900000026047800124800000010180012424001193135900012700044051420230000000643513523000000000108349426684XXXXXX4058       VS11    0001111   NYV1 A E303134686358876N840000000006435WGMN00    05DNHPPYC                    00670D    VS84000000006435 N  599978201978                            000000000+                D CD 12113                     000000000  N000000000 499   0000000000000.00 0000000.00   0000000.00                             000000000000000                                                                                                                                                     01424 A000000000000 0000000000001.45     02100 01000                  
00004260367040007DT67590675900000026047800124800000010180012473011003135900012700057051420230000000502513523000000000108349376777XXXXX1000                          NY 1 0 N005179104917304N840000000005025          05DNHPPYC LLC                803391    AM84000000005025 N  599978201978                            000000000+51010155434C 258     11261                     000000000                   0000000000000.00 0000000.00   0000000.00                             000000000000000 61248972086759675900000026047 HPPYC LLC                401 HAWTHORNE LN 110263  9802368861      28204     TORI@SMOKEMFG.COM                         01424  000000000000 0000000000000.90     01600 00000                  
00004270367040008DT67590675900000026047800124800000010180012424001193135900012700069051420230000000578913523000000000108349414709XXXXXX4514       VS11    0001111   NYV1 A E383134719143347N840000000005789D7FH00    05DNHPPYC                    05030D    VS84000000005789 N  599978201978                            000000000+                D CD 12113                     000000000  N000000000 499   0000000000000.00 0000000.00   0000000.00                             000000000000000                                                                                                                                                     01424 A000000000000 0000000000001.32     02100 01000                  
00004280367040009DT67590675900000026047800124800000010180012477287283135900012700079051420230000000683613523000000000108349517805XXXXXX0503       MS02WI09          NY 1 0 AMWEL3MO2P0514  N840000000006836          05DNHPPYC                    04148P    MC84000000006836 N  599978201978                            000000000+M10101C5434C    MWE  00739                     000000000  N                0000000000000.00 0000000.00   0000000.00                             000000000000000                                                                                                                                                   B101424  000000000000 0000000000001.67     02300 01000                  
00004290367040010DT67590675900000026047800124800000010180012424001193135900012700085051420230000000425313523000000000108349420767XXXXXX7109       VS11    0001111   NYV1 A E583134723669372N8400000000042532T3Z00    05DNHPPYC                    060616    VD84000000004253 N  599978201978                            000000000+                F DF 10433                     000000000  Y000000000 338   0000000000000.00 0000000.00   0000000.00                             000000000000000                                                                                                                                                     01424 A000000000000 0000000000000.24     00050 02200                  
00004300367040011DT67590675900000026047800124800000010180012424001193135900012700093051420230000000750813523000000000108349466188XXXXXX4336       VS11    0001111   NYV1 A E463134732395164N8400000000075087W9700    05DNHPPYC                    094512    VD84000000007508 N  599978201978                            000000000+                F DF 10433                     000000000  Y000000000 338   0000000000000.00 0000000.00   0000000.00                             000000000000000                                                                                                                                                     01424 A000000000000 0000000000000.26     00050 02200                  
00004310367040012DT67590675900000026047800124800000010180012424001193135900012700101051420230000001312213523000000000108349432739XXXXXX5293       VS11    0001111   NYV1 A E383134739379064N8400000000131224V7600    05DNHPPYC                    551424    VD84000000013122 N  599978201978                            000000000+                F DF 10433                     000000000  Y000000000 338   0000000000000.00 0000000.00   0000000.00                             000000000000000                                                                                                                                                     01424 A000000000000 0000000000000.29     00050 02200                  
00004320367040013DT67590675900000026047800124800000010180012424001193135900012700119051420230000000192813523000000000108349400022XXXXXX6873       VS11    0001111   NYV1 A E383134778596203N840000000001928HP8Q00    05DNHPPYC                    543939    VD84000000001928 N  599978201978                            000000000+                F DF 10433                     000000000  Y000000000 338   0000000000000.00 0000000.00   0000000.00                             000000000000000                                                                                                                                                     01424 A000000000000 0000000000000.23     00050 02200                  
00004330367040014DT67590675900000026047800124800000010180012424001193135900012700127051420230000000616213523000000000108349426684XXXXXX2830       VS11    0001111   NYV1 A E303134796124746N840000000006162XTR600    05DNHPPYC                    09589I    VS84000000006162 N  599978201978                            000000000+                I CI 12777                     000000000  N000000000 690   0000000000000.00 0000000.00   0000000.00                             000000000000000                                                                                                                                                     01424 A000000000000 0000000000001.39     02100 01000                  
00004340367040015DT67590675900000026047800124800000010180012424001193135900012700135051420230000000598913523000000000108349402475XXXXXX2317       VS11    0001111   NYV1 A E303134826085234N8400000000059894D8G00    05DNHPPYC                    085648    VS84000000005989 N  599978201978                            000000000+                A CA 12110                     000000000  N000000000 493   0000000000000.00 0000000.00   0000000.00                             000000000000000                                                                                                                                                     01424 A000000000000 0000000000001.00     01510 01000                  
00004350367040016DT67590675900000026047800124800000010180012424001193135900012700143051420230000000231213523000000000108349430455XXXXXX6575       VS11    0001111   NYV1 A E583135004392561N840000000002312VXMR00    07DNHPPYC                    090720    VD84000000002312 N  599978201978                            000000000+                F DF 10433                     000000000  Y000000000 338   0000000000000.00 0000000.00   0000000.00                             000000000000000                                                                                                                                                     01424 A000000000000 0000000000000.23     00050 02200                  
00004360367040017DT67590675900000026047800124800000010180012477287283135900012700152051420230000000214513523000000000108349517545XXXXXX0644       MS02WI09          NY 2 0 AMDJMDWQB50514  N840000000002145          05DNHPPYC                    014565    MD84000000002145 N  599978201978                            000000000+M10101C1334C    MDJ  10815                     000000000  1                0000000000000.00 0000000.00   0000000.00                             000000000000000                                                                                                                                                   B101424  000000000000 0000000000000.23     00050 02200                  
00004370367040018DT67590675900000026047800124800000010180012477287283135900012700160051420230000000214513523000000000108349517545XXXXXX0644       MS02WI09          NY 2 0 AMDJSFRIB50514  N840000000002145          05DNHPPYC                    014761    MD84000000002145 N  599978201978                            000000000+M10101C1334C    MDJ  10815                     000000000  1                0000000000000.00 0000000.00   0000000.00                             000000000000000                                                                                                                                                   B101424  000000000000 0000000000000.23     00050 02200                  
00004380367040019DT67590675900000026047800124800000010180012424001193135900012700176051420230000000021313523000000000108349440393XXXXXX6615       VK04VS111111111   NYV1 A E583135022542790N840000000000213B3BT00    05DNHPPYC                    017729    VD84000000000213 N  599978201978                            000000000+                F PF 08165                     000000000  N000000000       0000000000000.00 0000000.00   0000000.00                             000000000000000                                                                                                                                                     01424 F000000000000 0000000000000.08     01600 00500                  
00004390367040020DT67590675900000026047800124800000010180012424001193135900012700184051420230000000643413523000000000108349440066XXXXXX9907       VS11    0001111   NYV1 A E303135023800601N840000000006434JJPP00    05DNHPPYC                    01702D    VS84000000006434 N  599978201978                            000000000+                D CD 12113                     000000000  N000000000 499   0000000000000.00 0000000.00   0000000.00                             000000000000000                                                                                                                                                     01424 A000000000000 0000000000001.45     02100 01000                  
00004400367040021DT67590675900000026047800124800000010180012424001193135900012700192051420230000000294813523000000000108349402282XXXXXX1388       VS11    0001111   NYV1 A E583135030111034N840000000002948ST6F00    05DNHPPYC                    005012    VD84000000002948 N  599978201978                            000000000+                F DF 00381                     000000000  N000000000       0000000000000.00 0000000.00   0000000.00                             000000000000000                                                                                                                                                     01424 A000000000000 0000000000000.39     00800 01500                  
00004410367040022BH6759067590000002684980012580000090170515202313523000000000071171    0000090001245652N8001256759C05152023                                                                                                                                                                                                                                                                                                                                                                                                                                                                                                                                                                                                 
00004420367040023DT67590675900000026849800125800000010180012524001193135900012455912051320230000000682813523000000000071171434258XXXXXX8210               2111111   NYV4 A7W463134110587901N8400000000068285DX500    01DNCBD8885133385            025214    VD84000000006828 NP1599978220273   E5A2C359A6T2EBA41C4D5DF  000000000+                F DF 10420                     000000000  Y000000000 338   0000000000000.00 0000000.00   0000000.00                             000000000000000                                                                                                                                                     01424 G000000006828 0000000000000.25     00050 02200                  
00004430367040001P16759067590000002684980012580000001010000000000000000                             2000000000000000000000000              000000000000                    0000000000000000000000000                    000000000000                                                                                                                                                                                                                                                                                                                                                                                                                                                                                        
00004440367040024DT67590675900000026849800125800000010180012524001193135900012455938051320230000000582813523000000000071171438857XXXXXX5875               2111111   NYV4 A7W383134135033376N840000000005828BQTG00    01DNCBD8885133385            05119I    VS84000000005828 NP1599978220273   E8726B5608T11FCB69D77B8  000000000+                I CI 12778                     000000000  N000000000 689   0000000000000.00 0000000.00   0000000.00                             000000000000000                                                                                                                                                     01424 G000000005828 0000000000001.56     02500 01000                  
00004450367040001P16759067590000002684980012580000001010000000000000000                             2000000000000000000000000              000000000000                    0000000000000000000000000                    000000000000                                                                                                                                                                                                                                                                                                                                                                                                                                                                                        
00004460367040025DT67590675900000026849800125800000010180012587287283135900012456028051420230000001977013523000000000071171559692XXXXXX5901                         NY 4607AMDBSXLS2A0514  N840000000019770          81DNCBD8885133385            167367    MD84000000019770 NP1599978220273   A729502F8DT0DC493D7867D  000000000+600450S00130    MDB  00062                     000000000  N                0000000000000.00 0000000.00   0000000.00                             000000000000000                                                                                                                                                   U001424  000000000000 0000000000005.34     02650 01000                  
00004470367040001P1675906759000000268498001258000000101                                                          000000000000          8000            922897448                                                                                                                                                                                                                                                                                                                                                                                                                                                                                                                                                            
00004480367040026DT67590675900000026849800125800000010180012587287283135900012456036051420230000000979813523000000000071171559692XXXXXX5901                         NY 4607AMDBLPCMK90514  N840000000009798          81DNCBD8885133385            831531    MD84000000009798 NP1599978220273   A729502F8DT716F9D683A64  000000000+600450S00130    MDB  00062                     000000000  N                0000000000000.00 0000000.00   0000000.00                             000000000000000                                                                                                                                                   U001424  000000000000 0000000000002.70     02650 01000                  
00004490367040001P1675906759000000268498001258000000101                                                          000000000000          8000            922897448                                                                                                                                                                                                                                                                                                                                                                                                                                                                                                                                                            
00004500367040027DT67590675900000026849800125800000010180012576509753135900012456066051420230000001977013523000000000071171601100XXXXXX6808   BA00                  NY 4 07N813115235498925N840000000019770    00    01DNCBD8885133385            01412R    DS84000000019770 N  599978220273070                         000000000+1015104910600   DCCDI11325834512  075909000000 000000000  0          460   0000000000000.00 0000000.00   0000000.00                             000000000000000                                                                                                                                                     01424  000000000000 0000000000004.11     02030 01000                  
00004510367040028DT67590675900000026849800125800000010180012576509753135900012456074051420230000000489913523000000000071171601100XXXXXX6808   BA00                  NY 4 07N813115235789993N840000000004899    00    01DNCBD8885133385            01471R    DS84000000004899 N  599978220273070                         000000000+1015104910600   DCCDI11325665388  075938000000 000000000  0          460   0000000000000.00 0000000.00   0000000.00                             000000000000000                                                                                                                                                     01424  000000000000 0000000000001.09     02030 01000                  
00004520367040029DT67590675900000026849800125800000010180012576509753135900012456082051420230000000309913523000000000071171601100XXXXXX6808   BA00                  NY 4 07N873115236007301N840000000003099    00    01DNCBD8885133385            01470R    DS84000000003099 N  599978220273070                         000000000+1015104910600   DCCDI11325668410  080000000000 000000000  0          460   0000000000000.00 0000000.00   0000000.00                             000000000000000                                                                                                                                                     01424  000000000000 0000000000000.73     02030 01000                  
00004530367040030DT67590675900000026849800125800000010180012587287283135900012456101051420230000001977013523000000000071171514887XXXXXX9768       ME03KE06PT01      NY 4607AMCWZKZ5V60514  N840000000019770          81DNCBD8885133385            08419P    MC84000000019770 N  599978220273   D4773579F4TA215293C93F8  000000000+600450S00130    MCW  00642                     000000000  N                0000000000000.00 0000000.00   0000000.00                             000000000000000                                                                                                                                                   U001424  000000000000 0000000000004.45     02200 01000                  
00004540367040031DT67590675900000026849800125800000010180012524001193135900012456142051420230000001280313523000000000071171473702XXXXXX7344               2111111   NYV4 A7W303134504031118N840000000012803QR4500    01DNCBD8885133385            041161    VD84000000012803 NP1599978220273   D36E3FE162TDE2F40351462  000000000+                F DF 10420                     000000000  Y000000000 338   0000000000000.00 0000000.00   0000000.00                             000000000000000                                                                                                                                                     01424 G000000012803 0000000000000.28     00050 02200                  
00004550367040001P16759067590000002684980012580000001010000000000000000                             2000000000000000000000000              000000000000                    0000000000000000000000000                    000000000000                                                                                                                                                                                                                                                                                                                                                                                                                                                                                        
00004560367040032DT67590675900000026849800125800000010180012524001193135900012456175051420230000001578513523000000000071171414720XXXXXX0805               2111111   NYV4 A7W583134513556597N8400000000157859WX900    01DNCBD8885133385            06660D    VS84000000015785 NP1599978220273   2EE716795BT3B4EB01ACEE5  000000000+                D CD 12109                     000000000  N000000000 498   0000000000000.00 0000000.00   0000000.00                             000000000000000                                                                                                                                                     01424 G000000015785 0000000000004.05     02500 01000                  
00004570367040001P16759067590000002684980012580000001010000000000000000                             2000000000000000000000000              000000000000                    0000000000000000000000000                    000000000000                                                                                                                                                                                                                                                                                                                                                                                                                                                                                        
00004580367040033DT67590675900000026849800125800000010680012574001193135900012456238051420230000000640113523000000000071171426684XXXXXX0735               0000000   NYV4 07T303134546638439N840000000006401MXWW00    01CNCBD8885133385            03098B    VS84000000006401 NP1599978220273   484E948D98TCE4B35107256  000000000+                B CB 00245                     000000000  N000000000 166   0000000000000.00 0000000.00   0000000.00                             000000000000000                                                                                                                                                     01424  000000006401-0000000000001.13     01760 00000                  
00004590367040001P16759067590000002684980012580000001060000000000000000                             2000000000000000000000000              000000000000                    0000000000000000000000000                    000000000000                                                                                                                                                                                                                                                                                                                                                                                                                                                                                        
00004600367040034DT67590675900000026849800125800000010680012587287283135900012456242051420230000002477013523000000000071171559433XXXXXX6886                         NY 4607AMDJUZTY2A0514  N840000000024770          81CNCBD8885133385            014043    MD84000000024770 N  599978220273   5AB3912EA4T9744722EE95D  000000000+600450S00130    MDJ  00560                     000000000  N                0000000000000.00 0000000.00   0000000.00                             000000000000000                                                                                                                                                     01424  000000000000 0000000000000.00     00000 00000                  
00004610367040035DT67590675900000026849800125800000010680012587287283135900012456259051420230000000979813523000000000071171559433XXXXXX6886                         NY 4607AMDJBQ3VXV0514  N840000000009798          81CNCBD8885133385            014081    MD84000000009798 N  599978220273   5AB3912EA4TE2A2D4132EAF  000000000+600450S00130    MDJ  00560                     000000000  N                0000000000000.00 0000000.00   0000000.00                             000000000000000                                                                                                                                                     01424  000000000000 0000000000000.00     00000 00000                  
00004620367040036DT67590675900000026849800125800000010680012574001193135900012456279051420230000001977013523000000000071171467237XXXXXX0974               0000000   NYV4 07T583134555273822N840000000019770QQRS00    01CNCBD8885133385            014908    VD84000000019770 NP1599978220273   367FC934DBT2B7AF225C8D4  000000000+                F DF 08168                     000000000  N000000000 369   0000000000000.00 0000000.00   0000000.00                             000000000000000                                                                                                                                                     01424  000000019770 0000000000000.00     00000 00000                  
00004630367040001P16759067590000002684980012580000001060000000000000000                             2000000000000000000000000              000000000000                    0000000000000000000000000                    000000000000                                                                                                                                                                                                                                                                                                                                                                                                                                                                                        
00004640367040037DT67590675900000026849800125800000010680012574001193135900012456287051420230000001296613523000000000071171440066XXXXXX2965               0000000   NYV4 07T383134557080969N840000000012966WVGT00    01CNCBD8885133385            05971D    VS84000000012966 NP1599978220273   42652B9C16TB325903EBB88  000000000+                D CD 00245                     000000000  N000000000 166   0000000000000.00 0000000.00   0000000.00                             000000000000000                                                                                                                                                     01424  000000012966-0000000000002.28     01760 00000                  
00004650367040001P16759067590000002684980012580000001060000000000000000                             2000000000000000000000000              000000000000                    0000000000000000000000000                    000000000000                                                                                                                                                                                                                                                                                                                                                                                                                                                                                        
00004660367040038DT67590675900000026849800125800000010680012574001193135900012456295051420230000002477013523000000000071171411773XXXXXX1614               0000000   NYV4 07T303134558649305N840000000024770MQSC00    01CNCBD8885133385            090361    VD84000000024770 NP1599978220273   3D1BE6D216T8AC2814D4D59  000000000+                F DF 08168                     000000000  Y000000000 369   0000000000000.00 0000000.00   0000000.00                             000000000000000                                                                                                                                                     01424  000000024770 0000000000000.00     00000 00000                  
00004670367040001P16759067590000002684980012580000001060000000000000000                             2000000000000000000000000              000000000000                    0000000000000000000000000                    000000000000                                                                                                                                                                                                                                                                                                                                                                                                                                                                                        
00004680367040039DT67590675900000026849800125800000010680012574001193135900012456576051420230000001977013523000000000071171441281XXXXXX6341               0000000   NY94 07N000000000000000N   000000000000          01CNCBD8885133385                      VD84000000019770 N  599978220273                            000000000+                F DF 08168                     000000000  Y000000000 369   0000000000000.00 0000000.00   0000000.00                             000000000000000                                                                                                                                                     01424  000000000000 0000000000000.00     00000 00000                  
00004690367040040DT67590675900000026849800125800000010680012574001193135900012456311051420230000002477013523000000000071171464018XXXXXX6073               0000000   NYV4 07T463134561325195N840000000024770KPQ900    01CNCBD8885133385            05992D    VS84000000024770 NP1599978220273   8F919C88F2T4CB70E37B2EB  000000000+                D CD 00245                     000000000  N000000000 166   0000000000000.00 0000000.00   0000000.00                             000000000000000                                                                                                                                                     01424  000000024770-0000000000004.36     01760 00000                  
00004700367040001P16759067590000002684980012580000001060000000000000000                             2000000000000000000000000              000000000000                    0000000000000000000000000                    000000000000                                                                                                                                                                                                                                                                                                                                                                                                                                                                                        
00004710367040041DT67590675900000026849800125800000010180012524001193135900012456340051420230000001489213523000000000071171465108XXXXXX3162               2111111   NYV4 A7W303134569226753N840000000014892392K00    01DNCBD8885133385            004535    VS84000000014892 NP1599978220273   622D39EB84T18B462293744  000000000+                C CC 12108                     000000000  N000000000 496   0000000000000.00 0000000.00   0000000.00                             000000000000000                                                                                                                                                     01424 G000000014892 0000000000003.15     02050 01000                  
00004720367040001P16759067590000002684980012580000001010000000000000000                             2000000000000000000000000              000000000000                    0000000000000000000000000                    000000000000                                                                                                                                                                                                                                                                                                                                                                                                                                                                                        
00004730367040042DT67590675900000026849800125800000010680012574001193135900012456378051420230000001977013523000000000071171449787XXXXXX1709               0000000   NYV4 07T463134590453417N84000000001977083DK00    01CNCBD8885133385            014529    VD84000000019770 NP1599978220273   9547829E8DT4F42AEA00A7C  000000000+                F DF 08168                     000000000  N000000000 369   0000000000000.00 0000000.00   0000000.00                             000000000000000                                                                                                                                                     01424  000000019770 0000000000000.00     00000 00000                  
00004740367040001P16759067590000002684980012580000001060000000000000000                             2000000000000000000000000              000000000000                    0000000000000000000000000                    000000000000                                                                                                                                                                                                                                                                                                                                                                                                                                                                                        
00004750367040043DT67590675900000026849800125800000010180012524001193135900012456381051420230000001280313523000000000071171414720XXXXXX2746               2111111   NYV4 A7W583134600044505N840000000012803C4D700    01DNCBD8885133385            00134D    VS84000000012803 NP1599978220273   BD20E31D84TB70C04CCD140  000000000+                D CD 12109                     000000000  N000000000 498   0000000000000.00 0000000.00   0000000.00                             000000000000000                                                                                                                                                     01424 G000000012803 0000000000003.30     02500 01000                  
00004760367040001P16759067590000002684980012580000001010000000000000000                             2000000000000000000000000              000000000000                    0000000000000000000000000                    000000000000                                                                                                                                                                                                                                                                                                                                                                                                                                                                                        
00004770367040044DT67590675900000026849800125800000010180012524001193135900012456415051420230000002477013523000000000071171440066XXXXXX0824               2111111   NYV4 A7W303134621038128N8400000000247704GDV00    01DNCBD8885133385            04803D    VS84000000024770 NP1599978220273   5038E4C71AT6C0D304BE4D6  000000000+                D CD 12109                     000000000  N000000000 498   0000000000000.00 0000000.00   0000000.00                             000000000000000                                                                                                                                                     01424 G000000024770 0000000000006.29     02500 01000                  
00004780367040001P16759067590000002684980012580000001010000000000000000                             2000000000000000000000000              000000000000                    0000000000000000000000000                    000000000000                                                                                                                                                                                                                                                                                                                                                                                                                                                                                        
00004790367040045DT67590675900000026849800125800000010180012524001193135900012456431051420230000001578513523000000000071171414740XXXXXX3435               2111111   NYV4 A7W583134634993760N840000000015785X82K00    01DNCBD8885133385            04601D    VS84000000015785 NP1599978220273   B3FE23D05FT1862DE9A762D  000000000+                D CD 12109                     000000000  N000000000 498   0000000000000.00 0000000.00   0000000.00                             000000000000000                                                                                                                                                     01424 G000000015785 0000000000004.05     02500 01000                  
00004800367040001P16759067590000002684980012580000001010000000000000000                             2000000000000000000000000              000000000000                    0000000000000000000000000                    000000000000                                                                                                                                                                                                                                                                                                                                                                                                                                                                                        
00004810367040046DT67590675900000026849800125800000010680012587287283135900012456440051420230000001280313523000000000071171525363XXXXXX4567                         NY 4607AMWEMU00XV0514  N840000000012803          81CNCBD8885133385            746319    MC84000000012803 N  599978220273   3DAC71B065T08BBD566A67A  000000000+600450S00130    MWE  00564                     000000000  N                0000000000000.00 0000000.00   0000000.00                             000000000000000                                                                                                                                                     01424  000000000000-0000000000002.24     01750 00000                  
00004820367040047DT67590675900000026849800125800000010180012587287283135900012456473051420230000001660313523000000000071171542539XXXXXX7569       ME03KE06MS02      NY 4607AMPLYXW82A0514  N840000000016603          81DNCBD8885133385            014696    MC84000000016603 N  599978220273   59C82EDD31T5901233041CB  000000000+600450S00130    MPL  00013                     000000000  N                0000000000000.00 0000000.00   0000000.00                             000000000000000                                                                                                                                                   U001424  000000000000 0000000000003.34     01950 01000                  
00004830367040048DT67590675900000026849800125800000010180012587287283135900012456481051420230000000979813523000000000071171542539XXXXXX7569       ME03KE06MS02      NY 4607AMPLBOEK6K0514  N840000000009798          81DNCBD8885133385            014536    MC84000000009798 N  599978220273   59C82EDD31T1983BE43E5DC  000000000+600450S00130    MPL  00013                     000000000  N                0000000000000.00 0000000.00   0000000.00                             000000000000000                                                                                                                                                   U001424  000000000000 0000000000002.01     01950 01000                  
00004840367040049DT67590675900000026849800125800000010180012587287283135900012456499051420230000000619813523000000000071171542539XXXXXX7569       ME03KE06MS02      NY 4607AMPLNO1ZXV0514  N840000000006198          81DNCBD8885133385            014300    MC84000000006198 N  599978220273   59C82EDD31T6F5EFE00FEFD  000000000+600450S00130    MPL  00013                     000000000  N                0000000000000.00 0000000.00   0000000.00                             000000000000000                                                                                                                                                   U001424  000000000000 0000000000001.31     01950 01000                  
00004850367040050DT67590675900000026849800125800000010180012524001193135900012456506051420230000002477013523000000000071171410039XXXXXX7745               2111111   NYV4 A7W303134660629820N840000000024770WG5600    01DNCBD8885133385            24025D    VS84000000024770 NP1599978220273   6DD465A4E7T567C1A97D6DA  000000000+                D CD 12109                     000000000  N000000000 498   0000000000000.00 0000000.00   0000000.00                             000000000000000                                                                                                                                                     01424 G000000024770 0000000000006.29     02500 01000                  
00004860367040001P16759067590000002684980012580000001010000000000000000                             2000000000000000000000000              000000000000                    0000000000000000000000000                    000000000000                                                                                                                                                                                                                                                                                                                                                                                                                                                                                        
00004870367040051DT67590675900000026849800125800000010180012587287283135900012456515051420230000000129513523000000000071171542539XXXXXX7569       ME03KE06MS02      NY 4607AMPLEZZVV70514  N840000000001295          81DNCBD8885133385            014085    MC84000000001295 N  599978220273   59C82EDD31TB233BCB3B6D2  000000000+600450S00130    MPL  00013                     000000000  N                0000000000000.00 0000000.00   0000000.00                             000000000000000                                                                                                                                                   U001424  000000000000 0000000000000.35     01950 01000                  
00004880367040052DT67590675900000026849800125800000010180012587287283135900012456523051420230000000149513523000000000071171542539XXXXXX7569       ME03KE06MS02      NY 4607AMPLS0EEV60514  N840000000001495          81DNCBD8885133385            014126    MC84000000001495 N  599978220273   59C82EDD31TD971DB89A29F  000000000+600450S00130    MPL  00013                     000000000  N                0000000000000.00 0000000.00   0000000.00                             000000000000000                                                                                                                                                   U001424  000000000000 0000000000000.39     01950 01000                  
00004890367040053BH6759067590000001165080088880000090170515202313523000000000035586    0000090001940013N8008886759C05152023                                                                                                                                                                                                                                                                                                                                                                                                                                                                                                                                                                                                 
00004900367040054DT67590675900000011650800888800000010180088824001193135900019400010051320230000000283013523000000000035586487000XXXXXX3837       VS11    0001111   NYV1 A E383134140278232N840000000002830XJMG00    07DNVPODS HOLDING INC        075323    VD84000000002830 N  599977032122                            000000000+                F DF 10433                     000000000  Y000000000 338   0000000000000.00 0000000.00   0000000.00                             000000000000000                                                                                                                                                     01424 A000000000000 0000000000000.23     00050 02200                  
00004910367040055DT67590675900000011650800888800000010180088877287283135900019400020051320230000000566013523000000000035586510805XXXXXX7974       MS02WI09          NY 2 0 AMDJE71USN0513  N840000000005660          05DNVPODS HOLDING INC        032735    MD84000000005660 N  599977032122                            000000000+M10101C1334C    MDJ  10815                     000000000  1                0000000000000.00 0000000.00   0000000.00                             000000000000000                                                                                                                                                   B101424  000000000000 0000000000000.25     00050 02200                  
00004920367040056DT67590675900000011650800888800000010180088877287283135900019400038051420230000000283013523000000000035586527520XXXXXX8726       MS02WI09          NY 1 0 AMDJCA0MV70514  N840000000002830          07DNVPODS HOLDING INC        132885    MD84000000002830 N  599977032122                            000000000+M10101M0034C    MDJ  10815                     000000000  1                0000000000000.00 0000000.00   0000000.00                             000000000000000                                                                                                                                                   B101424  000000000000 0000000000000.23     00050 02200                  
00004930367040057DT67590675900000011650800888800000010180088877287283135900019400046051420230000000283013523000000000035586527485XXXXXX2961       MS02WI09          NY 1 0 AMDJYAG22A0514  N840000000002830          07DNVPODS HOLDING INC        014937    MD84000000002830 N  599977032122                            000000000+M10101M0034C    MDJ  10815                     000000000  1                0000000000000.00 0000000.00   0000000.00                             000000000000000                                                                                                                                                   A101424  000000000000 0000000000000.23     00050 02200                  
00004940367040058DT67590675900000011650800888800000010180088824001193135900019400051051420230000000283013523000000000035586414720XXXXXX7802       VS11    0001111   NYV1 A E303134677724399N8400000000028302ZJ300    07DNVPODS HOLDING INC        07990D    VS84000000002830 N  599977032122                            000000000+                D CD 12113                     000000000  N000000000 499   0000000000000.00 0000000.00   0000000.00                             000000000000000                                                                                                                                                     01424 A000000000000 0000000000000.69     02100 01000                  
00004950367040059DT67590675900000011650800888800000010180088824001193135900019400069051420230000000064013523000000000035586483313XXXXXX6396       VK04VS111111111   NYV1 A E383134690457491N8400000000006409DTP00    07DNVPODS HOLDING INC        051015    VD84000000000640 N  599977032122                            000000000+                F DF 10439                     000000000  Y000000000 331   0000000000000.00 0000000.00   0000000.00                             000000000000000                                                                                                                                                     01424 F000000000000 0000000000000.22     00050 02200                  
00004960367040060DT67590675900000011650800888800000010180088877287283135900019400079051420230000000051013523000000000035586522914XXXXXX8456       MS02WI09          NY 1 0 AMDJUHX2V60514  N840000000000510          07DNVPODS HOLDING INC        042407    MD84000000000510 N  599977032122                            000000000+M10101M0034C    MDJ  10815                     000000000  1                0000000000000.00 0000000.00   0000000.00                             000000000000000                                                                                                                                                   B101424  000000000000 0000000000000.22     00050 02200                  
00004970367040061DT67590675900000011650800888800000010180088824001193135900019400085051420230000000226413523000000000035586483312XXXXXX0619       VS11    0001111   NYV1 A E583134714665147N840000000002264T9XF00    07DNVPODS HOLDING INC        065115    VD84000000002264 N  599977032122                            000000000+                F DF 10433                     000000000  Y000000000 338   0000000000000.00 0000000.00   0000000.00                             000000000000000                                                                                                                                                     01424 A000000000000 0000000000000.23     00050 02200                  
00004980367040062DT67590675900000011650800888800000010180088824001193135900019400093051420230000000339613523000000000035586478200XXXXXX4194       VS11    0001111   NYV1 A E463134744954127N8400000000033968VZP00    07DNVPODS HOLDING INC        064116    VD84000000003396 N  599977032122                            000000000+                F DF 10433                     000000000  Y000000000 338   0000000000000.00 0000000.00   0000000.00                             000000000000000                                                                                                                                                     01424 A000000000000 0000000000000.24     00050 02200                  
00004990367040063DT67590675900000011650800888800000010180088824001193135900019400101051420230000000226413523000000000035586434769XXXXXX2668       VS11    0001111   NYV1 A E463134763971299N840000000002264L9V800    05DNVPODS HOLDING INC        071317    VD84000000002264 N  599977032122                            000000000+                F DF 10433                     000000000  Y000000000 338   0000000000000.00 0000000.00   0000000.00                             000000000000000                                                                                                                                                     01424 A000000000000 0000000000000.23     00050 02200                  
00005000367040064DT67590675900000011650800888800000010180088824001193135900019400119051420230000000283013523000000000035586438857XXXXXX4124       VS11    0001111   NYV1 A E303134828195674N840000000002830P9XD00    05DNVPODS HOLDING INC        00580I    VS84000000002830 N  599977032122                            000000000+                I CI 12777                     000000000  N000000000 690   0000000000000.00 0000000.00   0000000.00                             000000000000000                                                                                                                                                     01424 A000000000000 0000000000000.69     02100 01000                  
00005010367040065DT67590675900000011650800888800000010180088824001193135900019400127051420230000000339613523000000000035586478858XXXXXX3667       VS11    0001111   NYV1 A E583134837810063N840000000003396ZSKQ00    07DNVPODS HOLDING INC        08656C    VS84000000003396 N  599977032122                            000000000+                C CC 12112                     000000000  N000000000 497   0000000000000.00 0000000.00   0000000.00                             000000000000000                                                                                                                                                     01424 A000000000000 0000000000000.66     01650 01000                  
00005020367040066DT67590675900000011650800888800000010180088824001193135900019400135051420230000000330613523000000000035586465992XXXXXX5013       VS11    0001111   NYV1 A E463135034495813N840000000003306KWJ700    07DNVPODS HOLDING INC        269275    VD84000000003306 N  599977032122                            000000000+                F DF 00381                     000000000  N000000000       0000000000000.00 0000000.00   0000000.00                             000000000000000                                                                                                                                                     01424 A000000000000 0000000000000.41     00800 01500                  
00005030367040067BH6759067590000001857280010580000090170515202313523000000000028439    0000090001670008N8001056759C05152023                                                                                                                                                                                                                                                                                                                                                                                                                                                                                                                                                                                                 
00005040367040068DT67590675900000018572800105800000010180010524001193135900016700024051420230000000556913523000000000028439404601XXXXXX4767       VS11    0001111   NYV1 A E383134610375588N840000000005569N29700    07DNGALLERY SMOKE SHOP LLC   71783G    VB84000000005569 N  599977453598                            000000000+                G1CG108011                     000000000  N000000000 391   0000000000000.00 0000000.00   0000000.00                             000000000000000                                                                                                                                                     01424 A000000000000 0000000000001.27     02100 01000                  
00005050367040069DT67590675900000018572800105800000010180010524001193135900016700057051420230000000502713523000000000028439430455XXXXXX9818       VS11    0001111   NYV1 A E303134727199141N840000000005027VWTS00    07DNGALLERY SMOKE SHOP LLC   04795D    VS84000000005027 N  599977453598                            000000000+                D CD 12113                     000000000  N000000000 499   0000000000000.00 0000000.00   0000000.00                             000000000000000                                                                                                                                                     01424 A000000000000 0000000000001.16     02100 01000                  
00005060367040070DT67590675900000018572800105800000010180010524001193135900016700065051420230000000577613523000000000028439414709XXXXXX6361       VS11    0001111   NYV1 A E383134778583917N840000000005776HK4P00    05DNGALLERY SMOKE SHOP LLC   02152D    VS84000000005776 N  599977453598                            000000000+                D CD 12113                     000000000  N000000000 499   0000000000000.00 0000000.00   0000000.00                             000000000000000                                                                                                                                                     01424 A000000000000 0000000000001.31     02100 01000                  
00005070367040071DT67590675900000018572800105800000033080010576759003135900016700011051420230000000716613523000000000028439443041XXXXXX7318                         NY 2 0 N               N840000000007166      IL  05DNGALLERY SMOKE SHOP LLC   743124    DB84000000007166 N  599977453598                            000000000+                     09580                                Y          342   0000000000000.00 0000000.00   0000000.00                             000000000000000                                                                                                                                                     01424  000000000000 0000000000000.26     00050 00000                  
00005080367040072DT67590675900000018572800105800000033080010576759003135900016700037051420230000000267513523000000000028439440393XXXXXX6221                         NY 2 0 N               N840000000002675      IL  07DNGALLERY SMOKE SHOP LLC   452279    DB84000000002675 N  599977453598                            000000000+                     09576                                N          346   0000000000000.00 0000000.00   0000000.00                             000000000000000                                                                                                                                                     01424  000000000000 0000000000000.46     01150 00000                  
00005090367040073DT67590675900000018572800105800000033080010576759003135900016700045051420230000000014013523000000000028439443041XXXXXX7318                         NY 2 0 N               N840000000000140      IL  05DNGALLERY SMOKE SHOP LLC   786075    DB84000000000140 N  599977453598                            000000000+                     09580                                Y          342   0000000000000.00 0000000.00   0000000.00                             000000000000000                                                                                                                                                     01424  000000000000 0000000000000.22     00050 00000                  
00005100367040074DT67590675900000018572800105800000033080010576759003135900016700078051420230000000192513523000000000028439435546XXXXXX6715                         NY 2 0 N               N840000000001925      IL  05DNGALLERY SMOKE SHOP LLC   138093    DB84000000001925 N  599977453598                            000000000+                     09580                                Y          342   0000000000000.00 0000000.00   0000000.00                             000000000000000                                                                                                                                                     01424  000000000000 0000000000000.23     00050 00000                  
00005110367040075DT67590675900000018572800105800000033080010576759003135900016700086051420230000000016113523000000000028439443041XXXXXX7318                         NY 2 0 N               N840000000000161      IL  05DNGALLERY SMOKE SHOP LLC   804139    DB84000000000161 N  599977453598                            000000000+                     09580                                Y          342   0000000000000.00 0000000.00   0000000.00                             000000000000000                                                                                                                                                     01424  000000000000 0000000000000.22     00050 00000                  
