09373290540813151AD675906759000000133008001028000009071900011553570000001200806222023NYY17323ND6759800102062520232023173015375                                                                                                                                                                                                                                                                                                                                                                                                                                                                                                                                                                                              
09373300540813154AD675906759000000198288001098000009071900012648710000002487006222023NYY17323ND6759800109062520232023173015376                                                                                                                                                                                                                                                                                                                                                                                                                                                                                                                                                                                              
09373310540813157AD675906759000000133008001028000009071900018211800000002654906222023NYY17323ND6759800102062520232023173015377                                                                                                                                                                                                                                                                                                                                                                                                                                                                                                                                                                                              
09373320541091328AD675906759000000151648008888000009077231510190360000001987006222023NYY17323YC6759800888062520232023151019036                                                                                                                                                                                                                                                                                                                                                                                                                                                                                                                                                                                              
09373330541091331AD675906759000000151648008888000009071231670306750000000519006222023NYY17323ND6759800888062520232023167030675                                                                                                                                                                                                                                                                                                                                                                                                                                                                                                                                                                                              
09373340541091334AD675906759000000151648008888000009071231710010190000001499006222023NYY17323ND6759800888062520232023171001019                                                                                                                                                                                                                                                                                                                                                                                                                                                                                                                                                                                              
09373350541091337AD675906759000000151648008888000009071231720039590000001987006222023NYY17323ND6759800888062520232023172003959                                                                                                                                                                                                                                                                                                                                                                                                                                                                                                                                                                                              
09373360542635046BH6759067590000001982880010980000090170623202317423000000000077496    0000090001880490N8001096759D06252023088                                                                                                                                                                                                                                                                                                                                                                                                                                                                                                                                                                                              
09373370542635047DT67590675900000019828800109800000010180010987287283174900018804744062120230000001987017423000000000077496552433XXXXXX7597       ME03KE06MS02      YY 4607AMPL2HDV700621  N840000000019870          81DNKETOFUSION 8885968154    07859M    MC84000000019870 NDR599977547467   F88A8F37ECTCCE0A2F2A658  000000000+600450S00130    MPL  00580                     000000000  N                0000000000000.00 0000000.00   0000000.00                             000000000000000                                                                                                                                                   U0015WPE 000000000000 0000000000004.27     02100 01000                  
09373380542635047DR675906759000000198288001098000000101F88A8F37ECTCCE0A2F2A658  Y000000000000                                                                                                                                                                                                                                                                                                                                                                                                                                                                                                                                                                                                                               
09373390542630001G26759067590000001982880010980000001018885968154               UT           9 L               210                                      NNNN           210000000000000000000000000                        7                                          77547467                                                                                                                                                                                                                                                                                                                                                                                                                                               
09373400542635048DT67590675900000019828800109800000010180010924001193174900018804750062120230000000198817423000000000077496436618XXXXXX8544               2111111   YYV4 A7W463173179885250N8400000000019889KNL00    01DNKETOFUSION 8885968154    029932    VD84000000001988 NDR599977547467   B7B2049A05T2750D1F17BA2  000000000+                F DF 10420                     000000000  Y000000000 338   0000000000000.00 0000000.00   0000000.00                             000000000000000                                                                                                                                                     015WPEG000000001988 0000000000000.23     00050 02200                  
09373410542635048DR675906759000000198288001098000000101B7B2049A05T2750D1F17BA2  Y000000001988                 P1                                                                                                                                                                                                                                                                                                                                                                                                                                                                                                                                                                                                            
09373420542630001P16759067590000001982880010980000001010000000000000000                             2000000000000000000000000              000000000000                    0000000000000000000000000                    000000000000                                                                                                                                                                                                                                                                                                                                                                                                                                                                                        
09373430542630002G2675906759000000198288001098000000101888-5968154              UT           9 D                00                                      NNNN   N                      000000000000                                                                   77547467                                                                                                                                                                                                                                                                                                                                                                                                                                               
09373440542635049DT67590675900000019828800109800000010680010987287283174900018804777062220230000002487017423000000000077496542418XXXXXX1195                         YY 4607AMPLAQ18O40622  N840000000024870          81CNKETOFUSION 8885968154    560480    MC84000000024870 NDR599977547467   CA24928741TF9AF7583580E  000000000+600450S00130    MPL  00564                     000000000  N                0000000000000.00 0000000.00   0000000.00                             000000000000000                                                                                                                                                     015WPE 000000000000-0000000000004.35     01750 00000                  
09373450542635049DR675906759000000198288001098000000106CA24928741TF9AF7583580E  U000000000000                                                                                                                                                                                                                                                                                                                                                                                                                                                                                                                                                                                                                               
09373460542630001G26759067590000001982880010980000001068885968154               UT           9 L               210                                      NNNN           210000000000000000000000000                        7                                          77547467                                                                                                                                                                                                                                                                                                                                                                                                                                               
09373470542635050DT67590675900000019828800109800000010680010987287283174900018804785062220230000000327417423000000000077496518941XXXXXX4141                         YY 4607AMWEYMXFO20622  N840000000003274          81CNKETOFUSION 8885968154    948361    MC84000000003274 NDR599977547467   8CE82EC6B6TA446AE2ED1C5  000000000+600450S00130    MWE  00564                     000000000  N                0000000000000.00 0000000.00   0000000.00                             000000000000000                                                                                                                                                     015WPE 000000000000-0000000000000.57     01750 00000                  
09373480542635050DR6759067590000001982880010980000001068CE82EC6B6TA446AE2ED1C5  U000000000000                                                                                                                                                                                                                                                                                                                                                                                                                                                                                                                                                                                                                               
09373490542630001G26759067590000001982880010980000001068885968154               UT           9 E               210                                      NNNN           210000000000000000000000000                        7                                          77547467                                                                                                                                                                                                                                                                                                                                                                                                                                               
09373500542635051DT67590675900000019828800109800000010680010987287283174900018804793062220230000002255017423000000000077496514736XXXXXX5679                         YY 4607AMCWAX83O40622  N840000000022550          81CNKETOFUSION 8885968154    083297    MC84000000022550 NDR599977547467   9BCD16F768T632B31FC3462  000000000+600450S00130    MCW  00564                     000000000  N                0000000000000.00 0000000.00   0000000.00                             000000000000000                                                                                                                                                     015WPE 000000000000-0000000000003.95     01750 00000                  
09373510542635051DR6759067590000001982880010980000001069BCD16F768T632B31FC3462  N000000000000                                                                                                                                                                                                                                                                                                                                                                                                                                                                                                                                                                                                                               
09373520542630001G26759067590000001982880010980000001068885968154               UT           9 W               210                                      NNNN           210000000000000000000000000                        7                                          77547467                                                                                                                                                                                                                                                                                                                                                                                                                                               
09373530542635052DT67590675900000019828800109800000010680010987287283174900018804801062220230000002487017423000000000077496527516XXXXXX6457                         YY 4607AMDJTZ9OO30622  N840000000024870          81CNKETOFUSION 8885968154    240975    MD84000000024870 NDR599977547467   897D6FEE07TADE84F1AB911  000000000+600450S00130    MDJ  10828                     000000000  1                0000000000000.00 0000000.00   0000000.00                             000000000000000                                                                                                                                                     015WPE 000000000000 0000000000000.00     00000 00000                  
09373540542635052DR675906759000000198288001098000000106897D6FEE07TADE84F1AB911  Y000000000000                                                                                                                                                                                                                                                                                                                                                                                                                                                                                                                                                                                                                               
09373550542630001G26759067590000001982880010980000001068885968154               UT           9 J               210                                      NNNN           210000000000000000000000000                        7                                          77547467                                                                                                                                                                                                                                                                                                                                                                                                                                               
09373560542635053DT67590675900000019828800109800000010680010987287283174900018804819062220230000000198817423000000000077496542418XXXXXX1540                         YY 4607AMPLA174O40622  N840000000001988          81CNKETOFUSION 8885968154    724282    MC84000000001988 NDR599977547467   8968FC6E9ETC580FAAD312F  000000000+600450S00130    MPL  00564                     000000000  N                0000000000000.00 0000000.00   0000000.00                             000000000000000                                                                                                                                                     015WPE 000000000000-0000000000000.35     01750 00000                  
09373570542635053DR6759067590000001982880010980000001068968FC6E9ETC580FAAD312F  U000000000000                                                                                                                                                                                                                                                                                                                                                                                                                                                                                                                                                                                                                               
09373580542630001G26759067590000001982880010980000001068885968154               UT           9 L               210                                      NNNN           210000000000000000000000000                        7                                          77547467                                                                                                                                                                                                                                                                                                                                                                                                                                               
09373590542635054DT67590675900000019828800109800000010180010987287283174900018804827062220230000001499117423000000000077496554514XXXXXX4117       ME03KE06MS02      YY 4607AMPLGGEWO30622  N840000000014991          81DNKETOFUSION 8885968154    02432B    MC84000000014991 NDR599977547467   7B937A408CT6DAAF354B18E  000000000+600450S00130    MPL  00580                     000000000  N                0000000000000.00 0000000.00   0000000.00                             000000000000000                                                                                                                                                   U0015WPE 000000000000 0000000000003.25     02100 01000                  
09373600542635054DR6759067590000001982880010980000001017B937A408CT6DAAF354B18E  Y000000000000                                                                                                                                                                                                                                                                                                                                                                                                                                                                                                                                                                                                                               
09373610542630001G26759067590000001982880010980000001018885968154               UT           9 L               210                                      NNNN           210000000000000000000000000                        7                                          77547467                                                                                                                                                                                                                                                                                                                                                                                                                                               
09373620542635055DT67590675900000019828800109800000010680010987287283174900018804835062220230000000993517423000000000077496552433XXXXXX7597                         YY 4607AMCWV277O30622  N840000000009935          81CNKETOFUSION 8885968154    001216    MC84000000009935 NDR599977547467   F88A8F37ECTCCE0A2F2A658  000000000+600450S00130    MCW  00564                     000000000  N                0000000000000.00 0000000.00   0000000.00                             000000000000000                                                                                                                                                     015WPE 000000000000-0000000000001.74     01750 00000                  
09373630542635055DR675906759000000198288001098000000106F88A8F37ECTCCE0A2F2A658  Y000000000000                                                                                                                                                                                                                                                                                                                                                                                                                                                                                                                                                                                                                               
09373640542630001G26759067590000001982880010980000001068885968154               UT           9 W               210                                      NNNN           210000000000000000000000000                        7                                          77547467                                                                                                                                                                                                                                                                                                                                                                                                                                               
09373650542635056DT67590675900000019828800109800000010680010987287283174900018804850062220230000002487017423000000000077496517546XXXXXX7094                         YY 4607AMDJH2OWDO0622  N840000000024870          81CNKETOFUSION 8885968154    022494    MD84000000024870 NDR599977547467   B6A525773BT09F1351F915A  000000000+600450S00130    MDJ  10828                     000000000  1                0000000000000.00 0000000.00   0000000.00                             000000000000000                                                                                                                                                     015WPE 000000000000 0000000000000.00     00000 00000                  
09373660542635056DR675906759000000198288001098000000106B6A525773BT09F1351F915A  R000000000000                                                                                                                                                                                                                                                                                                                                                                                                                                                                                                                                                                                                                               
09373670542630001G26759067590000001982880010980000001068885968154               UT           9 J               210                                      NNNN           210000000000000000000000000                        7                                          77547467                                                                                                                                                                                                                                                                                                                                                                                                                                               
09373680542635057DT67590675900000019828800109800000010680010987287283174900018804900062220230000000198817423000000000077496515384XXXXXX7202                         YY94607N         0622  N840000000000000          81CNKETOFUSION 8885968154              MD84000000001988 NP1599977547467   75CB275D7ET58A4EF9863D7  000000000+600450S00130    MDB  00568                     000000000  N                0000000000000.00 0000000.00   0000000.00                             000000000000000                                                                                                                                                     015WPE 000000000000-0000000000000.44     02210 00000                  
09373690542630001P1675906759000000198288001098000000106                                                          000000000000          8000            884295529                                                                                                                                                                                                                                                                                                                                                                                                                                                                                                                                                            
09373700542630002G26759067590000001982880010980000001068885968154               UT           9 B               210                  884295529           YNNN           210000000000000000000000000                                                                   77547467                                                                                                                                                                                                                                                                                                                                                                                                                                               
09373710542635060BH6759067590000001516480088880000090170623202317423000000000127193    0000090001158732N8008886759D06252023115                                                                                                                                                                                                                                                                                                                                                                                                                                                                                                                                                                                              
09373720542635061DT67590675900000015164800888800000010180088824001193174900011584771062120230000001394817423000000000127193486796XXXXXX8816               2111111   YYV4 A7W303169405069042N8400000000139486F3R00    01DNKETOFUSION833-923-3587   061507    VD84000000013948 NDR599977360677   5E405B434FTDE210A63FEFE  000000000+                F DF 10420                     000000000  Y000000000 338   0000000000000.00 0000000.00   0000000.00                             000000000000000                                                                                                                                                     015WPEG000000013948 0000000000000.29     00050 02200                  
09373730542635061DR6759067590000001516480088880000001015E405B434FTDE210A63FEFE  Y000000013948                 P1                                                                                                                                                                                                                                                                                                                                                                                                                                                                                                                                                                                                            
09373740542630001P16759067590000001516480088880000001010000000000000000                             2000000000000000000000000              000000000000                    0000000000000000000000000                    000000000000                                                                                                                                                                                                                                                                                                                                                                                                                                                                                        
09373750542630002G2675906759000000151648008888000000101801-4041097              UT           9 D                00                                      NNNN   N                      000000000000                                                                   77360677                                                                                                                                                                                                                                                                                                                                                                                                                                               
09373760542635062DT67590675900000015164800888800000010180088824001193174900011587105062120230000002255017423000000000127193436618XXXXXX8544               2111111   YYV4 A7W583173179854770N840000000022550GWH600    01DNKETOFUSION833-923-3587   012177    VD84000000022550 NDR599977360677   B7B2049A05T07CCC0430A33  000000000+                F DF 10420                     000000000  Y000000000 338   0000000000000.00 0000000.00   0000000.00                             000000000000000                                                                                                                                                     015WPEG000000022550 0000000000000.33     00050 02200                  
09373770542635062DR675906759000000151648008888000000101B7B2049A05T07CCC0430A33  Y000000022550                 P1                                                                                                                                                                                                                                                                                                                                                                                                                                                                                                                                                                                                            
09373780542630001P16759067590000001516480088880000001010000000000000000                             2000000000000000000000000              000000000000                    0000000000000000000000000                    000000000000                                                                                                                                                                                                                                                                                                                                                                                                                                                                                        
09373790542630002G2675906759000000151648008888000000101801-4041097              UT           9 D                00                                      NNNN   N                      000000000000                                                                   77360677                                                                                                                                                                                                                                                                                                                                                                                                                                               
09373800542635063DT67590675900000015164800888800000010680088887287283174900011587114062220230000002487017423000000000127193542418XXXXXX7363                         YY 4607AMPLTPULO30622  N840000000024870          81CNKETOFUSION833-923-3587   614222    MC84000000024870 NDR599977360677   3EC178B091T9709B90DB725  000000000+600450S00130    MPL  00564                     000000000  N                0000000000000.00 0000000.00   0000000.00                             000000000000000                                                                                                                                                     015WPE 000000000000-0000000000004.35     01750 00000                  
09373810542635063DR6759067590000001516480088880000001063EC178B091T9709B90DB725  U000000000000                                                                                                                                                                                                                                                                                                                                                                                                                                                                                                                                                                                                                               
09373820542630001G26759067590000001516480088880000001068014041097               UT           9 L               210                                      NNNN           210000000000000000000000000                        7                                          77360677                                                                                                                                                                                                                                                                                                                                                                                                                                               
09373830542635064DT67590675900000015164800888800000010680088887287283174900011587122062220230000002487017423000000000127193542432XXXXXX3180                         YY 4607AMDJTSILO30622  N840000000024870          81CNKETOFUSION833-923-3587   074551    MD84000000024870 NDR599977360677   FDC6FF1D2DT1BD490B8205D  000000000+600450S00130    MDJ  10828                     000000000  1                0000000000000.00 0000000.00   0000000.00                             000000000000000                                                                                                                                                     015WPE 000000000000 0000000000000.00     00000 00000                  
09373840542635064DR675906759000000151648008888000000106FDC6FF1D2DT1BD490B8205D  N000000000000                                                                                                                                                                                                                                                                                                                                                                                                                                                                                                                                                                                                                               
09373850542630001G26759067590000001516480088880000001068014041097               UT           9 J               210                                      NNNN           210000000000000000000000000                        7                                          77360677                                                                                                                                                                                                                                                                                                                                                                                                                                               
09373860542635065DT67590675900000015164800888800000010680088887287283174900011587130062220230000002487017423000000000127193518941XXXXXX4141                         YY 4607AMWETVM4O30622  N840000000024870          81CNKETOFUSION833-923-3587   675087    MC84000000024870 NDR599977360677   8CE82EC6B6T0517E8F0F599  000000000+600450S00130    MWE  00564                     000000000  N                0000000000000.00 0000000.00   0000000.00                             000000000000000                                                                                                                                                     015WPE 000000000000-0000000000004.35     01750 00000                  
09373870542635065DR6759067590000001516480088880000001068CE82EC6B6T0517E8F0F599  U000000000000                                                                                                                                                                                                                                                                                                                                                                                                                                                                                                                                                                                                                               
09373880542630001G26759067590000001516480088880000001068014041097               UT           9 E               210                                      NNNN           210000000000000000000000000                        7                                          77360677                                                                                                                                                                                                                                                                                                                                                                                                                                               
09373890542635066DT67590675900000015164800888800000010680088887287283174900011587148062220230000002487017423000000000127193515735XXXXXX8132                         YY 4607AMCWDN6FDO0622  N840000000024870          81CNKETOFUSION833-923-3587   205080    MC84000000024870 NDR599977360677   C63F010964TF0C1A575CA0D  000000000+600450S00130    MCW  00564                     000000000  N                0000000000000.00 0000000.00   0000000.00                             000000000000000                                                                                                                                                     015WPE 000000000000-0000000000004.35     01750 00000                  
09373900542635066DR675906759000000151648008888000000106C63F010964TF0C1A575CA0D  U000000000000                                                                                                                                                                                                                                                                                                                                                                                                                                                                                                                                                                                                                               
09373910542630001G26759067590000001516480088880000001068014041097               UT           9 W               210                                      NNNN           210000000000000000000000000                        7                                          77360677                                                                                                                                                                                                                                                                                                                                                                                                                                               
09373920542635067DT67590675900000015164800888800000010680088887287283174900011587155062220230000000327417423000000000127193527516XXXXXX6457                         YY 4607AMDJAZPVO40622  N840000000003274          81CNKETOFUSION833-923-3587   746002    MD84000000003274 NDR599977360677   897D6FEE07TF776222478F0  000000000+600450S00130    MDJ  10828                     000000000  1                0000000000000.00 0000000.00   0000000.00                             000000000000000                                                                                                                                                     015WPE 000000000000 0000000000000.00     00000 00000                  
09373930542635067DR675906759000000151648008888000000106897D6FEE07TF776222478F0  Y000000000000                                                                                                                                                                                                                                                                                                                                                                                                                                                                                                                                                                                                                               
09373940542630001G26759067590000001516480088880000001068014041097               UT           9 J               210                                      NNNN           210000000000000000000000000                        7                                          77360677                                                                                                                                                                                                                                                                                                                                                                                                                                               
09373950542635068DT67590675900000015164800888800000010680088887287283174900011587163062220230000000198817423000000000127193527516XXXXXX6457                         YY 4607AMDJA0RMO40622  N840000000001988          81CNKETOFUSION833-923-3587   857744    MD84000000001988 NDR599977360677   897D6FEE07T1D7A02CA9313  000000000+600450S00130    MDJ  10828                     000000000  1                0000000000000.00 0000000.00   0000000.00                             000000000000000                                                                                                                                                     015WPE 000000000000 0000000000000.00     00000 00000                  
09373960542635068DR675906759000000151648008888000000106897D6FEE07T1D7A02CA9313  Y000000000000                                                                                                                                                                                                                                                                                                                                                                                                                                                                                                                                                                                                                               
09373970542630001G26759067590000001516480088880000001068014041097               UT           9 J               210                                      NNNN           210000000000000000000000000                        7                                          77360677                                                                                                                                                                                                                                                                                                                                                                                                                                               
09373980542635069DT67590675900000015164800888800000010180088824001193174900011587196062220230000001578517423000000000127193446542XXXXXX3991               2111111   YYV4 A7W383173574202353N840000000015785Q64900    01DNKETOFUSION833-923-3587   022277    VS84000000015785 NDR599977360677   B46A5217F6T23AE4B68516E  000000000+                D CD 12109                     000000000  N000000000 498   0000000000000.00 0000000.00   0000000.00                             000000000000000                                                                                                                                                     015WPEG000000015785 0000000000004.05     02500 01000                  
09373990542635069DR675906759000000151648008888000000101B46A5217F6T23AE4B68516E  Z000000015785                 P1                                                                                                                                                                                                                                                                                                                                                                                                                                                                                                                                                                                                            
09374000542630001P16759067590000001516480088880000001010000000000000000                             2000000000000000000000000              000000000000                    0000000000000000000000000                    000000000000                                                                                                                                                                                                                                                                                                                                                                                                                                                                                        
09374010542630002G2675906759000000151648008888000000101801-4041097              UT           9 C                00                                      NNNN   Y                      000000000000                                                                   77360677                                                                                                                                                                                                                                                                                                                                                                                                                                               
09374020542635070DT67590675900000015164800888800000010680088887287283174900011587221062220230000000654817423000000000127193517546XXXXXX7094                         YY 4607AMDJH1CADO0622  N840000000006548          81CNKETOFUSION833-923-3587   022762    MD84000000006548 NDR599977360677   B6A525773BT187FE98D3C0C  000000000+600450S00130    MDJ  10828                     000000000  1                0000000000000.00 0000000.00   0000000.00                             000000000000000                                                                                                                                                     015WPE 000000000000 0000000000000.00     00000 00000                  
09374030542635070DR675906759000000151648008888000000106B6A525773BT187FE98D3C0C  R000000000000                                                                                                                                                                                                                                                                                                                                                                                                                                                                                                                                                                                                                               
09374040542630001G26759067590000001516480088880000001068014041097               UT           9 J               210                                      NNNN           210000000000000000000000000                        7                                          77360677                                                                                                                                                                                                                                                                                                                                                                                                                                               
09374050542635071DT67590675900000015164800888800000010680088887287283174900011587239062220230000000198817423000000000127193517546XXXXXX7094                         YY 4607AMDJZQ62HX0622  N840000000001988          81CNKETOFUSION833-923-3587   022090    MD84000000001988 NDR599977360677   B6A525773BTB497363D231C  000000000+600450S00130    MDJ  10828                     000000000  1                0000000000000.00 0000000.00   0000000.00                             000000000000000                                                                                                                                                     015WPE 000000000000 0000000000000.00     00000 00000                  
09374060542635071DR675906759000000151648008888000000106B6A525773BTB497363D231C  R000000000000                                                                                                                                                                                                                                                                                                                                                                                                                                                                                                                                                                                                                               
09374070542630001G26759067590000001516480088880000001068014041097               UT           9 J               210                                      NNNN           210000000000000000000000000                        7                                          77360677                                                                                                                                                                                                                                                                                                                                                                                                                                               
09374080542635072DT67590675900000015164800888800000010680088887287283174900011587247062220230000002487017423000000000127193514377XXXXXX9704                         YY 4607AMDJRSE9HX0622  N840000000024870          81CNKETOFUSION833-923-3587   2KX2UG    MD84000000024870 NDR599977360677   54C518C58DTCCFD4CDD5222  000000000+600450S00130    MDJ  00560                     000000000  N                0000000000000.00 0000000.00   0000000.00                             000000000000000                                                                                                                                                     015WPE 000000000000 0000000000000.00     00000 00000                  
09374090542635072DR67590675900000015164800888800000010654C518C58DTCCFD4CDD5222  Z000000000000                                                                                                                                                                                                                                                                                                                                                                                                                                                                                                                                                                                                                               
09374100542630001G26759067590000001516480088880000001068014041097               UT           9 J               210                                      NNNN           210000000000000000000000000                        7                                          77360677                                                                                                                                                                                                                                                                                                                                                                                                                                               
09374110542635073DT67590675900000015164800888800000010680088887287283174900011587254062220230000000654817423000000000127193547725XXXXXX8451                         YY 4607AMCBV30XO20622  N840000000006548          81CNKETOFUSION833-923-3587   170780    MB84000000006548 NDR599977360677   9540AD9585T6A4880693F8C  000000000+600450S00130    MCB  00568                     000000000  N                0000000000000.00 0000000.00   0000000.00                             000000000000000                                                                                                                                                     015WPE 000000000000-0000000000001.45     02210 00000                  
09374120542635073DR6759067590000001516480088880000001069540AD9585T6A4880693F8C  R000000000000                 P1                                                                                                                                                                                                                                                                                                                                                                                                                                                                                                                                                                                                            
09374130542630001P1675906759000000151648008888000000106                                                          000000000000          8000            884295529                                                                                                                                                                                                                                                                                                                                                                                                                                                                                                                                                            
09374140542630002G26759067590000001516480088880000001068014041097               UT           9 B               210                  884295529           YNNN           210000000000000000000000000                        7                                          77360677                                                                                                                                                                                                                                                                                                                                                                                                                                               
09374150542635074DT67590675900000015164800888800000010680088887287283174900011587262062220230000000198817423000000000127193547725XXXXXX8451                         YY 4607AMCBH4WSDO0622  N840000000001988          81CNKETOFUSION833-923-3587   101874    MB84000000001988 NDR599977360677   9540AD9585T739F948FAD0B  000000000+600450S00130    MCB  00568                     000000000  N                0000000000000.00 0000000.00   0000000.00                             000000000000000                                                                                                                                                     015WPE 000000000000-0000000000000.44     02210 00000                  
09374160542635074DR6759067590000001516480088880000001069540AD9585T739F948FAD0B  R000000000000                 P1                                                                                                                                                                                                                                                                                                                                                                                                                                                                                                                                                                                                            
09374170542630001P1675906759000000151648008888000000106                                                          000000000000          8000            884295529                                                                                                                                                                                                                                                                                                                                                                                                                                                                                                                                                            
09374180542630002G26759067590000001516480088880000001068014041097               UT           9 B               210                  884295529           YNNN           210000000000000000000000000                        7                                          77360677                                                                                                                                                                                                                                                                                                                                                                                                                                               
09374190542635075DT67590675900000015164800888800000010680088887287283174900011587387062220230000002487017423000000000127193515384XXXXXX7202                         YY94607N         0622  N840000000000000          81CNKETOFUSION833-923-3587             MD84000000024870 NP1599977360677   75CB275D7ET468CFD7B63ED  000000000+600450S00130    MDB  00568                     000000000  N                0000000000000.00 0000000.00   0000000.00                             000000000000000                                                                                                                                                     015WPE 000000000000-0000000000005.50     02210 00000                  
09374200542630001P1675906759000000151648008888000000106                                                          000000000000          8000            884295529                                                                                                                                                                                                                                                                                                                                                                                                                                                                                                                                                            
09374210542630002G26759067590000001516480088880000001068014041097               UT           9 B               210                  884295529           YNNN           210000000000000000000000000                                                                   77360677                                                                                                                                                                                                                                                                                                                                                                                                                                               
09374220542635076DT67590675900000015164800888800000010680088887287283174900011587296062220230000001987017423000000000127193537959XXXXXX0248                         YY 4607AMPLK50QHY0622  N840000000019870          81CNKETOFUSION833-923-3587   620608    MC84000000019870 NDR599977360677   45ED9172AAT529C09829039  000000000+600450S00130    MPL  00564                     000000000  N                0000000000000.00 0000000.00   0000000.00                             000000000000000                                                                                                                                                     015WPE 000000000000-0000000000003.48     01750 00000                  
09374230542635076DR67590675900000015164800888800000010645ED9172AAT529C09829039  U000000000000                                                                                                                                                                                                                                                                                                                                                                                                                                                                                                                                                                                                                               
09374240542630001G26759067590000001516480088880000001068014041097               UT           9 L               210                                      NNNN           210000000000000000000000000                                                                   77360677                                                                                                                                                                                                                                                                                                                                                                                                                                               
09374250542635077DT67590675900000015164800888800000010180088824001193174900011587329062220230000001194817423000000000127193426684XXXXXX2416               2111111   YYV4 A7W303173777047077N840000000011948XD2C00    01DNKETOFUSION833-923-3587   05135A    VS84000000011948 NDR599977360677   F835F330EET6B96B8F5C260  000000000+                A CA 12106                     000000000  N000000000 492   0000000000000.00 0000000.00   0000000.00                             000000000000000                                                                                                                                                     015WPEG000000011948 0000000000002.36     01890 01000                  
09374260542635077DR675906759000000151648008888000000101F835F330EET6B96B8F5C260  Y000000011948                 P1                                                                                                                                                                                                                                                                                                                                                                                                                                                                                                                                                                                                            
09374270542630001P16759067590000001516480088880000001010000000000000000                             2000000000000000000000000              000000000000                    0000000000000000000000000                    000000000000                                                                                                                                                                                                                                                                                                                                                                                                                                                                                        
09374280542630002G2675906759000000151648008888000000101801-4041097              UT           9 C                00                                      NNNN   Y                      000000000000                                                                   77360677                                                                                                                                                                                                                                                                                                                                                                                                                                               
09374290542635080BH6759067590000002325980011680000090170623202317423000000000043578    0000090001732332N8001166759D06252023073                                                                                                                                                                                                                                                                                                                                                                                                                                                                                                                                                                                              
09374300542635081DT67590675900000023259800116800000010680011687287283174900017323316062220230000002178917423000000000043578533051XXXXXX0455                         YY 4607AMDJTHUVIB0622  N840000000021789          81CNGFORCEHEMP844-258-9322   022022    MD84000000021789 NDR549977768166   4EF96723B9T29C3112A6D06  000000000+600450S00130    MDJ  00560                     000000000  N                0000000000000.00 0000000.00   0000000.00                             000000000000000                                                                                                                                                     015WPE 000000000000 0000000000000.00     00000 00000                  
09374310542635081DR6759067590000002325980011680000001064EF96723B9T29C3112A6D06  R000000000000                                                                                                                                                                                                                                                                                                                                                                                                                                                                                                                                                                                                                               
09374320542630001G26759067590000002325980011680000001068442589322               CA           9 J               210                                      NNNN           210000000000000000000000000                        7                                          77768166                                                                                                                                                                                                                                                                                                                                                                                                                                               
09374330542635082DT67590675900000023259800116800000010680011687287283174900017323324062220230000002178917423000000000043578533051XXXXXX0455                         YY 4607AMDJZQC6VM0622  N840000000021789          81CNGFORCEHEMP844-258-9322   022623    MD84000000021789 NDR549977768166   F259E0F0FDT2703604A0FF0  000000000+600450S00130    MDJ  00560                     000000000  N                0000000000000.00 0000000.00   0000000.00                             000000000000000                                                                                                                                                     015WPE 000000000000 0000000000000.00     00000 00000                  
09374340542635082DR675906759000000232598001168000000106F259E0F0FDT2703604A0FF0  R000000000000                                                                                                                                                                                                                                                                                                                                                                                                                                                                                                                                                                                                                               
09374350542630001G26759067590000002325980011680000001068442589322               CA           9 J               210                                      NNNN           210000000000000000000000000                        7                                          77768166                                                                                                                                                                                                                                                                                                                                                                                                                                               
09374360542635085BH6759067590000003201180013680000090170623202317423000000000717875    0000090001396633N8001366759C06252023000                                                                                                                                                                                                                                                                                                                                                                                                                                                                                                                                                                                              
09374370542635086DT67590675900000032011800136800000010180013673011003174900013939441062220230000071787517423000000000717875372725XXXXX3004                          YY 4 07N005403469114301N840000000717875          01DNCHOICE BOTANICALS INC    140215    AM84000000717875 N  549971004114                            000000000+6004S0600140 258     11263                     000000000                   0000000000000.00 0000000.00   0000000.00                             000000000000000 61248972086759675900000032011                          5390 GREENS RD                           77032                                               015WPE 000000000000 0000000000172.39     02400 00000                  
09374380542630001G2675906759000000320118001368000000101HOUSTON                  TX           9                  00                                      NNNN                          000000000000                                                                   71004114                                                                                                                                                                                                                                                                                                                                                                                                                                               
09374390543370002BH6759067590000003284780013580000090170623202317423000000000008927    0000090001320007N8001356759C06252023032                                                                                                                                                                                                                                                                                                                                                                                                                                                                                                                                                                                              
09374400543370003DT67590675900000032847800135800000033080013576759003174900013200017062220230000000060517423000000000008927445026XXXXXX9438                         NY 2 0 N               N840000000000605      IL  07DNDAYDREAMS SMOKE WORLD LLC396166    DB84000000000605 N  599378480415                            000000000+                     09580                                Y          342   0000000000000.00 0000000.00   0000000.00                             000000000000000                                                                                                                                                     01418  000000000000 0000000000000.22     00050 00000                  
09374410543370001G2675906759000000328478001358000000330MCALLEN                  TX           5 D                00                                      NNNN                          000000000000                                                                   78480415                                                                                                                                                                                                                                                                                                                                                                                                                                               
09374420543370004DT67590675900000032847800135800000033080013576759003174900013200025062220230000000357117423000000000008927527515XXXXXX1487                         NY42 0 N               N840000000003571      ME  05DNDAYDREAMS SMOKE WORLD LLC133424    DB84000000003571 N  599378480415                            000000000+                     09601                                1          MA1   0000000000000.00 0000000.00   0000000.00                             000000000000000                                                                                                                                                     01418  000000000000 0000000000000.24     00050 00000                  
09374430543370001G2675906759000000328478001358000000330MCALLEN                  TX           5 D                00                                      NNNN                          000000000000                                                                   78480415                                                                                                                                                                                                                                                                                                                                                                                                                                               
09374440543370005DT67590675900000032847800135800000033080013576759003174900013200033062220230000000216317423000000000008927455408XXXXXX9241                         NY 2 0 N               N840000000002163      IL  05DNDAYDREAMS SMOKE WORLD LLC752803    DB84000000002163 N  599378480415                            000000000+                     09590                                N          279   0000000000000.00 0000000.00   0000000.00                             000000000000000                                                                                                                                                     01418  000000000000 0000000000000.32     00800 00000                  
09374450543370001G2675906759000000328478001358000000330MCALLEN                  TX           5 D                00                                      NNNN                          000000000000                                                                   78480415                                                                                                                                                                                                                                                                                                                                                                                                                                               
09374460543370006DT67590675900000032847800135800000033080013576759003174900013200041062220230000000108117423000000000008927461046XXXXXX1418                         NY 2 0 N               N840000000001081      IL  05DNDAYDREAMS SMOKE WORLD LLC075621    DB84000000001081 N  599378480415                            000000000+                     09580                                Y          342   0000000000000.00 0000000.00   0000000.00                             000000000000000                                                                                                                                                     01418  000000000000 0000000000000.23     00050 00000                  
09374470543370001G2675906759000000328478001358000000330MCALLEN                  TX           5 D                00                                      NNNN                          000000000000                                                                   78480415                                                                                                                                                                                                                                                                                                                                                                                                                                               
09374480543370007DT67590675900000032847800135800000033080013576759003174900013200058062220230000000032417423000000000008927440393XXXXXX4056                         NY 2 0 N               N840000000000324      IL  05DNDAYDREAMS SMOKE WORLD LLC545487    DB84000000000324 N  599378480415                            000000000+                     09576                                N          346   0000000000000.00 0000000.00   0000000.00                             000000000000000                                                                                                                                                     01418  000000000000 0000000000000.19     01150 00000                  
09374490543370001G2675906759000000328478001358000000330MCALLEN                  TX           5 P                00                                      NNNN                          000000000000                                                                   78480415                                                                                                                                                                                                                                                                                                                                                                                                                                               
09374500543370008DT67590675900000032847800135800000033080013576759003174900013200066062220230000000053617423000000000008927440393XXXXXX2508                         NY 2 0 N               N840000000000536      IL  05DNDAYDREAMS SMOKE WORLD LLC409709    DB84000000000536 N  599378480415                            000000000+                     09576                                N          346   0000000000000.00 0000000.00   0000000.00                             000000000000000                                                                                                                                                     01418  000000000000 0000000000000.21     01150 00000                  
09374510543370001G2675906759000000328478001358000000330MCALLEN                  TX           5 P                00                                      NNNN                          000000000000                                                                   78480415                                                                                                                                                                                                                                                                                                                                                                                                                                               
09374520543370009DT67590675900000032847800135800000033080013576759003174900013200074062220230000000064717423000000000008927434258XXXXXX2593                         NY 2 0 N               N840000000000647      IL  05DNDAYDREAMS SMOKE WORLD LLC018962    DB84000000000647 N  599378480415                            000000000+                     09580                                Y          342   0000000000000.00 0000000.00   0000000.00                             000000000000000                                                                                                                                                     01418  000000000000 0000000000000.22     00050 00000                  
09374530543370001G2675906759000000328478001358000000330MCALLEN                  TX           5 D                00                                      NNNN                          000000000000                                                                   78480415                                                                                                                                                                                                                                                                                                                                                                                                                                               
09374540543370010BH6759067590000003284780013580000090170623202317423000000000063526    0000090001040023N8001356759C06252023004                                                                                                                                                                                                                                                                                                                                                                                                                                                                                                                                                                                              
09374550543370011DT67590675900000032847800135800000010180013524001193174900010400029062220230000000021417423000000000063526440393XXXXXX5099       VK04VS111111111   NYV1 A E383173736091007N840000000000214DXCG00    05DNDAYDREAMS SMOKE WORLD LLC393038    VD84000000000214 N  599378639007                            000000000+                F PF 08165                     000000000  N000000000       0000000000000.00 0000000.00   0000000.00                             000000000000000                                                                                                                                                     01418 F000000000000 0000000000000.08     01600 00500                  
09374560543370001E167590675900000032847800135800000010100E0F8C80048 00000000000.004040404040404040404040404040404040404040404040404006011203A0A000000000000000000000404040404040404040404040404040  0000084018008000008000230622B7D731BA33FFA5894D25E2EC404040400840A000000003101000000000000000000079E6218B811C642A30300000000000004040405E40404040 000000002.14 000000000.005E00000000000000000000    80                                                                                                                                                                                                                                                                                                                  
09374570543370002G2675906759000000328478001358000000101MCALLEN                  TX           5 P                00                                      NNNN00 N 00                   000000000000                                                                   78639007                                                                                                                                                                                                                                                                                                                                                                                                                                               
09374580543370012DT67590675900000032847800135800000010180013577287283174900010400112062220230000000072817423000000000063526515676XXXXXX4825       MS02WI09          NY 1 0 AMWEW0HNV00622  N840000000000728          07DNDAYDREAMS SMOKE WORLD LLC09049Z    MC84000000000728 N  599378639007                            000000000+M10101M0034C    MWE  00739                     000000000  N                0000000000000.00 0000000.00   0000000.00                             000000000000000                                                                                                                                                   B101418  000000000000 0000000000000.27     02300 01000                  
09374590543370001E167590675900000032847800135800000010100E008C80017 00000000000.00404040404040404040404040404040404040404040404040400110A04001220000000000000000000000FF00000000000000000000000000  0001084019800000008001230622B3FEC5BD9CD5E5CBF39FCFD9404040400840A0000000041010000000000000000000404040404040404040404040404040404040401F40404040 000000007.28 000000000.001F03020000000000000000    80                                                                                                                                                                                                                                                                                                                  
09374600543370002G2675906759000000328478001358000000101MCALLEN                  TX           5 E                                                        NNNN              000000000000000000000000       00               7                                          78639007                                                                                                                                                                                                                                                                                                                                                                                                                                               
09374610543370013DT67590675900000032847800135800000010180013573011003174900010400124062220230000000357117423000000000063526373965XXXXX2002                          NY 1 0 N005407014544300N840000000003571          05DNDAYDREAMS SMOKE WORLD LLC884931    AM84000000003571 N  599378639007                            000000000+51010155434C 258     11261                     000000000                   0000000000000.00 0000000.00   0000000.00                             000000000000000 61248972086759675900000032847 DAYDREAMS SMOKE WORLD LLC900 N 10TH ST            9563387102      78501     DAYDREAMSSMOKEWORLD@GMAIL.COM             01418  000000000000 0000000000000.67     01600 00000                  
09374620543370001E167590675900000032847800135800000010100E0F8C80393 00000000000.004040404040404040404040404040404040404040404040404006580103A02002000000000000000000404040404040404040404040404040  000008403C00000000800023062211860EC4AE37A12397869083404040400840A00000002501080100000000000000002BE76A7C0B1E5D8F30300000000000004040405E40404040 000000035.71 000000000.005E03000000000000000000    80                                                                                                                                                                                                                                                                                                                  
09374630543370002G2675906759000000328478001358000000101MCALLEN                  TX           5                  00                                      NNNN                          000000000000                                                                   78639007                                                                                                                                                                                                                                                                                                                                                                                                                                               
09374640543370014DT67590675900000032847800135800000010180013577287283174900010400161062220230000002023117423000000000063526538756XXXXXX7601                         NY 2 0 AMDWQCFWVM0622  N840000000020231          05DNDAYDREAMS SMOKE WORLD LLC733700    MD84000000020231FN  599378639007                            000000000+M10101C1334C    MDW  12231                     0000001211 N                0000000000000.00 0000000.00   0000000.00                             000000000000000                                                                                                                                                     01418  000000000000 0000000000004.01     01980 00000                  
09374650543370001E167590675900000032847800135800000010100E0F8C80073 00000000000.00404040404040404040404040404040404040404040404040400210A04003240000000000000000000000FF00000000000000000000000000  0001084039000000048000230622A1D441C23049B55C53384EA3404040400840A00000000410100000000000000000002256CBD2AA08ABB903120000000000004040404240404040 000000202.31 000000000.004203000000000000000000    80                                                                                                                                                                                                                                                                                                                  
09374660543370002G2675906759000000328478001358000000101MCALLEN                  TX           5 W                                                        NNNN              000000000000000000000000                                                                   78639007                                                                                                                                                                                                                                                                                                                                                                                                                                               
09374670543370015DT67590675900000032847800135800000033080013576759003174900010400016062220230000000627717423000000000063526467010XXXXXX9868                         NY 2 0 N               N840000000006277      IL  05DNDAYDREAMS SMOKE WORLD LLC425158    DB84000000006277 N  599378639007                            000000000+                     09580                                Y          342   0000000000000.00 0000000.00   0000000.00                             000000000000000                                                                                                                                                     01418  000000000000 0000000000000.25     00050 00000                  
09374680543370001G2675906759000000328478001358000000330MCALLEN                  TX           5 D                00                                      NNNN                          000000000000                                                                   78639007                                                                                                                                                                                                                                                                                                                                                                                                                                               
09374690543370016DT67590675900000032847800135800000033080013576759003174900010400032062220230000000270517423000000000063526527515XXXXXX9911                         NY41 0 N               N840000000002705      ME  07DNDAYDREAMS SMOKE WORLD LLC145362    DB84000000002705 N  599378639007                            000000000+                     09601                                1          MA1   0000000000000.00 0000000.00   0000000.00                             000000000000000                                                                                                                                                     01418  000000000000 0000000000000.23     00050 00000                  
09374700543370001G2675906759000000328478001358000000330MCALLEN                  TX           5 D                00                                      NNNN                          000000000000                                                                   78639007                                                                                                                                                                                                                                                                                                                                                                                                                                               
