00003700371340002BH6759067590000000370780088880000090170116202301623000000000034362    0000090001190141Y8008886759C01172023                                                                                                                                                                                                                                                                                                                                                                                                                                                                                                                                                                                                 
00003710371340003DT67590675900000003707800888800000010180088824001193016900011901381011520230000000481601623000000000034362473703XXXXXX0027               2111111   NYV4 A7W383016106817278N840000000004816MWZL00    01DNMR HEMP FLOWER           095920    VD84000000004816 NP1549976053336   84286                    000000000+                F DF 10420                     000000000  Y000000000 338   0000000000000.00 0000000.00   0000000.00                             000000000000000                                                                                                                                                     01424 G000000004816 0000000000000.24     00050 02200                  
00003720371340001P16759067590000000370780088880000001010000000000000000                             2000000000000000000000000              000000000000                    0000000000000000000000000                    000000000000                                                                                                                                                                                                                                                                                                                                                                                                                                                                                        
00003730371340004DT67590675900000003707800888800000010180088824001193016900011901399011520230000000849901623000000000034362401532XXXXXX4831               2111111   NYV4 A7W583016112535334N840000000008499PB2D00    01DNMR HEMP FLOWER           866181    VS84000000008499 NP1549976053336   84287                    000000000+                B CB 12107                     000000000  N000000000 494   0000000000000.00 0000000.00   0000000.00                             000000000000000                                                                                                                                                     01424 G000000008499 0000000000001.83     02040 01000                  
00003740371340001P16759067590000000370780088880000001010000000000000000                             2000000000000000000000000              000000000000                    0000000000000000000000000                    000000000000                                                                                                                                                                                                                                                                                                                                                                                                                                                                                        
00003750371340005DT67590675900000003707800888800000010180088824001193016900011901407011620230000001065001623000000000034362426938XXXXXX2496               2111111   NYV4 A7W463016596091643N840000000010650K49M00    01DNMR HEMP FLOWER           016852    VS84000000010650 NP1549976053336   84297                    000000000+                B CB 12107                     000000000  N000000000 494   0000000000000.00 0000000.00   0000000.00                             000000000000000                                                                                                                                                     01424 G000000010650 0000000000002.27     02040 01000                  
00003760371340001P16759067590000000370780088880000001010000000000000000                             2000000000000000000000000              000000000000                    0000000000000000000000000                    000000000000                                                                                                                                                                                                                                                                                                                                                                                                                                                                                        
00003770371340006DT67590675900000003707800888800000010180088824001193016900011901415011620230000001039701623000000000034362448224XXXXXX9167               2111111   NYV4 A7W383016616829669N840000000010397S2TH00    01DNMR HEMP FLOWER           078217    VD84000000010397 NP1549976053336   84298                    000000000+                F DF 00415                     000000000  N000000000       0000000000000.00 0000000.00   0000000.00                             000000000000000                                                                                                                                                     01424 G000000010397 0000000000001.87     01650 01500                  
00003780371340001P16759067590000000370780088880000001010000000000000000                             2000000000000000000000000              000000000000                    0000000000000000000000000                    000000000000                                                                                                                                                                                                                                                                                                                                                                                                                                                                                        
