00012390333930002BH6759067590000001982880010980000090170614202316523000000000207234    0000090001800268Y8001096759C06152023080                                                                                                                                                                                                                                                                                                                                                                                                                                                                                                                                                                                              
00012400333930003DT67590675900000019828800109800000010180010987287283165900018001110061320230000001394816523000000000207234514518XXXXXX9740       ME03KE06MS02      NY 4607AMDJHNF6WK0610  N840000000013948          81DNKETOFUSION 8885968154    044869    MD84000000013948 NDR599977547467   7AD69820F8T0D302CFC8EE5  000000000+600450S00130    MDJ  10813                     000000000  1                0000000000000.00 0000000.00   0000000.00                             000000000000000                                                                                                                                                   U001424  000000000000 0000000000000.29     00050 02200                  
00012410333930003DR6759067590000001982880010980000001017AD69820F8T0D302CFC8EE5  Y000000000000                                                                                                                                                                                                                                                                                                                                                                                                                                                                                                                                                                                                                               
00012420333930001G2675906759000000198288001098000000101888-5968154              UT           9 J               210                                      NNNN           210000000000000000000000000                                                                   77547467                                                                                                                                                                                                                                                                                                                                                                                                                                               
00012430333930004DT67590675900000019828800109800000010180010924001193165900018001168061320230000001194816523000000000207234453506XXXXXX0884               2111111   NYV4 A7W383161703001921N8400000000119488HH200    01DNKETOFUSION 8885968154    H55161    VD84000000011948 NDR599977547467   75844461D9TB6299A5A924A  000000000+                F DF 10420                     000000000  Y000000000 338   0000000000000.00 0000000.00   0000000.00                             000000000000000                                                                                                                                                     01424 G000000011948 0000000000000.28     00050 02200                  
00012440333930004DR67590675900000019828800109800000010175844461D9TB6299A5A924A  Y000000011948                 P1                                                                                                                                                                                                                                                                                                                                                                                                                                                                                                                                                                                                            
00012450333930001P16759067590000001982880010980000001010000000000000000                             2000000000000000000000000              000000000000                    0000000000000000000000000                    000000000000                                                                                                                                                                                                                                                                                                                                                                                                                                                                                        
00012460333930002G2675906759000000198288001098000000101888-5968154              UT           9 D                00                                      NNNN   N                      000000000000                                                                   77547467                                                                                                                                                                                                                                                                                                                                                                                                                                               
00012470333930005DT67590675900000019828800109800000010180010987287283165900018001193061320230000001987016523000000000207234519277XXXXXX7397       ME03KE06MS02      NY 4607AMDJUWZ89V0610  N840000000019870          81DNKETOFUSION 8885968154    486636    MD84000000019870 NDR599977547467   4E4EA6A6D9TD51A11E66011  000000000+600450S00130    MDJ  00401                     000000000  N                0000000000000.00 0000000.00   0000000.00                             000000000000000                                                                                                                                                   U001424  000000000000 0000000000003.43     01650 01500                  
00012480333930005DR6759067590000001982880010980000001014E4EA6A6D9TD51A11E66011  Y000000000000                                                                                                                                                                                                                                                                                                                                                                                                                                                                                                                                                                                                                               
00012490333930001G2675906759000000198288001098000000101888-5968154              UT           9 J               210                                      NNNN           210000000000000000000000000                                                                   77547467                                                                                                                                                                                                                                                                                                                                                                                                                                               
00012500333930006DT67590675900000019828800109800000010180010987287283165900018001243061320230000002487016523000000000207234545510XXXXXX9373       ME03KE06MS02      NY 4607AMDSEXGHA70610  N840000000024870          81DNKETOFUSION 8885968154    051396    MD84000000024870 NDR599977547467   58720BB29AT7AF9007726A4  000000000+600450S00130    MDS  10813                     000000000  1                0000000000000.00 0000000.00   0000000.00                             000000000000000                                                                                                                                                   U001424  000000000000 0000000000000.34     00050 02200                  
00012510333930006DR67590675900000019828800109800000010158720BB29AT7AF9007726A4  Y000000000000                                                                                                                                                                                                                                                                                                                                                                                                                                                                                                                                                                                                                               
00012520333930001G2675906759000000198288001098000000101888-5968154              UT           9 S               210                                      NNNN           210000000000000000000000000                                                                   77547467                                                                                                                                                                                                                                                                                                                                                                                                                                               
00012530333930007DT67590675900000019828800109800000010180010987287283165900018001268061320230000002487016523000000000207234546164XXXXXX4295       ME03KE06MS02      NY 4607AMDSBB58C60610  N840000000024870          81DNKETOFUSION 8885968154    015332    MD84000000024870 NDR599977547467   501D98C831TF05ACC9099A6  000000000+600450S00130    MDS  00401                     000000000  N                0000000000000.00 0000000.00   0000000.00                             000000000000000                                                                                                                                                   U001424  000000000000 0000000000004.25     01650 01500                  
00012540333930007DR675906759000000198288001098000000101501D98C831TF05ACC9099A6  Y000000000000                                                                                                                                                                                                                                                                                                                                                                                                                                                                                                                                                                                                                               
00012550333930001G2675906759000000198288001098000000101888-5968154              UT           9 S               210                                      NNNN           210000000000000000000000000                        7                                          77547467                                                                                                                                                                                                                                                                                                                                                                                                                                               
00012560333930008DT67590675900000019828800109800000010180010987287283165900018001326061320230000001499016523000000000207234542418XXXXXX2470       ME03KE06MS02      NY 4607AMWE70Y7970610  N840000000014990          81DNKETOFUSION 8885968154    05664P    MC84000000014990 NDR599977547467   90A2C667E8T4D5BF3DBE2E4  000000000+600450S00130    MWE  00737                     000000000  N                0000000000000.00 0000000.00   0000000.00                             000000000000000                                                                                                                                                   U001424  000000000000 0000000000004.00     02600 01000                  
00012570333930008DR67590675900000019828800109800000010190A2C667E8T4D5BF3DBE2E4  Y000000000000                                                                                                                                                                                                                                                                                                                                                                                                                                                                                                                                                                                                                               
00012580333930001G2675906759000000198288001098000000101888-5968154              UT           9 E               210                                      NNNN           210000000000000000000000000                        7                                          77547467                                                                                                                                                                                                                                                                                                                                                                                                                                               
00012590333930009DT67590675900000019828800109800000010180010987287283165900018002191061320230000002487016523000000000207234552433XXXXXX7910       ME03KE06PT01      NY 4607AMCWG3B5L40613  N840000000024870          81DNKETOFUSION 8885968154    03481S    MC84000000024870 NDR599977547467   3234135F36TFF7A6DF47400  000000000+600450S00130    MCW  02182                     000000000  N                0000000000000.00 0000000.00   0000000.00                             000000000000000                                                                                                                                                   U001424  000000000000 0000000000006.57     02600 01000                  
00012600333930009DR6759067590000001982880010980000001013234135F36TFF7A6DF47400  Y000000000000                                                                                                                                                                                                                                                                                                                                                                                                                                                                                                                                                                                                                               
00012610333930001G2675906759000000198288001098000000101888-5968154              UT           9 W               210                                      NNNN           210000000000000000000000000                        7                                          77547467                                                                                                                                                                                                                                                                                                                                                                                                                                               
00012620333930010DT67590675900000019828800109800000010180010987287283165900018002233061420230000000519016523000000000207234524300XXXXXX9037       ME03KE06MS02      NY 4607AMPLSRLM6A0614  N840000000005190          81DNKETOFUSION 8885968154    01442B    MC84000000005190 NDR599977547467   973635A559T643AFBDB2907  000000000+600450S00130    MPL  00580                     000000000  N                0000000000000.00 0000000.00   0000000.00                             000000000000000                                                                                                                                                   U001424  000000000000 0000000000001.19     02100 01000                  
00012630333930010DR675906759000000198288001098000000101973635A559T643AFBDB2907  Y000000000000                                                                                                                                                                                                                                                                                                                                                                                                                                                                                                                                                                                                                               
00012640333930001G2675906759000000198288001098000000101888-5968154              UT           9 L               210                                      NNNN           210000000000000000000000000                        7                                          77547467                                                                                                                                                                                                                                                                                                                                                                                                                                               
00012650333930011DT67590675900000019828800109800000010680010987287283165900018002258061420230000001987016523000000000207234546616XXXXXX7009                         NY 4607AMCWL03I6A0614  N840000000019870          81CNKETOFUSION 8885968154    045468    MC84000000019870 NDR599977547467   AF4223A8C6T42AE5D237C10  000000000+600450S00130    MCW  00564                     000000000  N                0000000000000.00 0000000.00   0000000.00                             000000000000000                                                                                                                                                     01424  000000000000-0000000000003.48     01750 00000                  
00012660333930011DR675906759000000198288001098000000106AF4223A8C6T42AE5D237C10  U000000000000                                                                                                                                                                                                                                                                                                                                                                                                                                                                                                                                                                                                                               
00012670333930001G2675906759000000198288001098000000106888-5968154              UT           9 W               210                                      NNNN           210000000000000000000000000                        7                                          77547467                                                                                                                                                                                                                                                                                                                                                                                                                                               
00012680333930012DT67590675900000019828800109800000010680010987287283165900018002266061420230000000497416523000000000207234552486XXXXXX0925                         NY 4607AMWEZ1IO6A0614  N840000000004974          81CNKETOFUSION 8885968154    055969    MC84000000004974 NDR599977547467   8D58A2FB78TBED85B52D074  000000000+600450S00130    MWE  00564                     000000000  N                0000000000000.00 0000000.00   0000000.00                             000000000000000                                                                                                                                                     01424  000000000000-0000000000000.87     01750 00000                  
00012690333930012DR6759067590000001982880010980000001068D58A2FB78TBED85B52D074  Y000000000000                                                                                                                                                                                                                                                                                                                                                                                                                                                                                                                                                                                                                               
00012700333930001G2675906759000000198288001098000000106888-5968154              UT           9 E               210                                      NNNN           210000000000000000000000000                        7                                          77547467                                                                                                                                                                                                                                                                                                                                                                                                                                               
00012710333930013DT67590675900000019828800109800000010180010987287283165900018002274061420230000002487016523000000000207234533248XXXXXX7056       ME03KE06MS02      NY 4607AMPVAJ6R6B0614  N840000000024870          81DNKETOFUSION 8885968154    FD3PMM    MD84000000024870 NDR599977547467   4264A8721CTCA69E9C7756C  000000000+600450S00130    MPV  09899                     000000000  N                0000000000000.00 0000000.00   0000000.00                             000000000000000                                                                                                                                                   U001424  000000000000 0000000000004.58     01760 02000                  
00012720333930013DR6759067590000001982880010980000001014264A8721CTCA69E9C7756C  Y000000000000                                                                                                                                                                                                                                                                                                                                                                                                                                                                                                                                                                                                                               
00012730333930001G2675906759000000198288001098000000101888-5968154              UT           9 V               210                                      NNNN           210000000000000000000000000                                                                   77547467                                                                                                                                                                                                                                                                                                                                                                                                                                               
00012740333930014DT67590675900000019828800109800000010680010987287283165900018002282061420230000000768416523000000000207234533248XXXXXX7056                         NY 4607AMPVWUVR6M0614  N840000000007684          81CNKETOFUSION 8885968154    FD8XQW    MD84000000007684 NDR599977547467   4264A8721CTCA69E9C7756C  000000000+600450S00130    MPV  00560                     000000000  N                0000000000000.00 0000000.00   0000000.00                             000000000000000                                                                                                                                                     01424  000000000000 0000000000000.00     00000 00000                  
00012750333930014DR6759067590000001982880010980000001064264A8721CTCA69E9C7756C  Y000000000000                                                                                                                                                                                                                                                                                                                                                                                                                                                                                                                                                                                                                               
00012760333930001G2675906759000000198288001098000000106888-5968154              UT           9 V               210                                      NNNN           210000000000000000000000000                                                                   77547467                                                                                                                                                                                                                                                                                                                                                                                                                                               
00012770333930015DT67590675900000019828800109800000010680010974001193165900018002328061420230000000259516523000000000207234486796XXXXXX9766               0000000   NYV4 07T583165553738815N8400000000025953Q5M85    01CNKETOFUSION 8885968154    084606    VD84000000002595 NDR599977547467   88ED7B1A39TE976F3F36AF9  000000000+                F DF 08168                     000000000  Y000000000 369   0000000000000.00 0000000.00   0000000.00                             000000000000000                                                                                                                                                     01424  000000002595 0000000000000.00     00000 00000                  
00012780333930015DR67590675900000019828800109800000010688ED7B1A39TE976F3F36AF9  R000000002595                 P1                                                                                                                                                                                                                                                                                                                                                                                                                                                                                                                                                                                                            
00012790333930001P16759067590000001982880010980000001060000000000000000                             2000000000000000000000000              000000000000                    0000000000000000000000000                    000000000000                                                                                                                                                                                                                                                                                                                                                                                                                                                                                        
00012800333930002G2675906759000000198288001098000000106888-5968154              UT           9 D                00                                      NNNN   N                      000000000000                                                                   77547467                                                                                                                                                                                                                                                                                                                                                                                                                                               
00012810333930016DT67590675900000019828800109800000010180010987287283165900018002332061420230000001578516523000000000207234521333XXXXXX0146       ME03KE06MS02      NY 4607AMWENNK4Z60614  N840000000015785          81DNKETOFUSION 8885968154    01400Y    MC84000000015785 NDR599977547467   58C9C4BA27T74F55AE35772  000000000+600450S00130    MWE  00642                     000000000  N                0000000000000.00 0000000.00   0000000.00                             000000000000000                                                                                                                                                   U001424  000000000000 0000000000003.57     02200 01000                  
00012820333930016DR67590675900000019828800109800000010158C9C4BA27T74F55AE35772  Y000000000000                                                                                                                                                                                                                                                                                                                                                                                                                                                                                                                                                                                                                               
00012830333930001G2675906759000000198288001098000000101888-5968154              UT           9 E               210                                      NNNN           210000000000000000000000000                        7                                          77547467                                                                                                                                                                                                                                                                                                                                                                                                                                               
00012840333930017DT67590675900000019828800109800000010180010987287283165900018002357061420230000002255016523000000000207234515316XXXXXX3301       ME03KE06MS02      NY 4607AMDJCB9U6B0614  N840000000022550          81DNKETOFUSION 8885968154    200068    MD84000000022550 NDR599977547467   1401D97237T58D73B41CCE2  000000000+600450S00130    MDJ  00401                     000000000  N                0000000000000.00 0000000.00   0000000.00                             000000000000000                                                                                                                                                   U001424  000000000000 0000000000003.87     01650 01500                  
00012850333930017DR6759067590000001982880010980000001011401D97237T58D73B41CCE2  Y000000000000                                                                                                                                                                                                                                                                                                                                                                                                                                                                                                                                                                                                                               
00012860333930001G2675906759000000198288001098000000101888-5968154              UT           9 J               210                                      NNNN           210000000000000000000000000                                                                   77547467                                                                                                                                                                                                                                                                                                                                                                                                                                               
00012870333930018DT67590675900000019828800109800000010180010924001193165900018002364061420230000000198816523000000000207234418505XXXXXX0578               2111111   NYV4 A7W463165579442723N840000000001988KPCK00    01DNKETOFUSION 8885968154    150773    VD84000000001988 NDR599977547467   841C82D468T78A834AA958D  000000000+                F DF 00415                     000000000  N000000000       0000000000000.00 0000000.00   0000000.00                             000000000000000                                                                                                                                                     01424 G000000001988 0000000000000.48     01650 01500                  
00012880333930018DR675906759000000198288001098000000101841C82D468T78A834AA958D  Y000000001988                 P1                                                                                                                                                                                                                                                                                                                                                                                                                                                                                                                                                                                                            
00012890333930001P16759067590000001982880010980000001010000000000000000                             2000000000000000000000000              000000000000                    0000000000000000000000000                    000000000000                                                                                                                                                                                                                                                                                                                                                                                                                                                                                        
00012900333930002G2675906759000000198288001098000000101888-5968154              UT           9 D                00                                      NNNN   N                      000000000000                                                                   77547467                                                                                                                                                                                                                                                                                                                                                                                                                                               
00012910333930019DT67590675900000019828800109800000010180010987287283165900018002423061420230000001194816523000000000207234515676XXXXXX2432       ME03KE06MS02      NY 4607AMWEDGZ3590614  N840000000011948          81DNKETOFUSION 8885968154    02510Z    MC84000000011948 NDR599977547467   1ED3D61262TB84674E2C8D7  000000000+600450S00130    MWE  00737                     000000000  N                0000000000000.00 0000000.00   0000000.00                             000000000000000                                                                                                                                                   U001424  000000000000 0000000000003.21     02600 01000                  
00012920333930019DR6759067590000001982880010980000001011ED3D61262TB84674E2C8D7  Y000000000000                                                                                                                                                                                                                                                                                                                                                                                                                                                                                                                                                                                                                               
00012930333930001G2675906759000000198288001098000000101888-5968154              UT           9 E               210                                      NNNN           210000000000000000000000000                        7                                          77547467                                                                                                                                                                                                                                                                                                                                                                                                                                               
00012940333930020DT67590675900000019828800109800000010680010987287283165900018002431061420230000001194816523000000000207234515676XXXXXX2432                         NY 4607AMWE5ZRK580614  N840000000011948          81CNKETOFUSION 8885968154    035959    MC84000000011948 NDR599977547467   1ED3D61262TB84674E2C8D7  000000000+600450S00130    MWE  00564                     000000000  N                0000000000000.00 0000000.00   0000000.00                             000000000000000                                                                                                                                                     01424  000000000000-0000000000002.09     01750 00000                  
00012950333930020DR6759067590000001982880010980000001061ED3D61262TB84674E2C8D7  Y000000000000                                                                                                                                                                                                                                                                                                                                                                                                                                                                                                                                                                                                                               
00012960333930001G2675906759000000198288001098000000106888-5968154              UT           9 E               210                                      NNNN           210000000000000000000000000                        7                                          77547467                                                                                                                                                                                                                                                                                                                                                                                                                                               
00012970333930021DT67590675900000019828800109800000010180010924001193165900018002448061420230000002487016523000000000207234447494XXXXXX8623               2111111   NYV4 A7W583165627121178N840000000024870724Q00    01DNKETOFUSION 8885968154    002512    VD84000000024870 NDR599977547467   44087C5939T84E919675DB1  000000000+                F DF 00415                     000000000  N000000000       0000000000000.00 0000000.00   0000000.00                             000000000000000                                                                                                                                                     01424 G000000024870 0000000000004.25     01650 01500                  
00012980333930021DR67590675900000019828800109800000010144087C5939T84E919675DB1  Y000000024870                 P1                                                                                                                                                                                                                                                                                                                                                                                                                                                                                                                                                                                                            
00012990333930001P16759067590000001982880010980000001010000000000000000                             2000000000000000000000000              000000000000                    0000000000000000000000000                    000000000000                                                                                                                                                                                                                                                                                                                                                                                                                                                                                        
00013000333930002G2675906759000000198288001098000000101888-5968154              UT           9 D                00                                      NNNN   N                      000000000000                                                                   77547467                                                                                                                                                                                                                                                                                                                                                                                                                                               
00013010333930022DT67590675900000019828800109800000010180010987287283165900018002472061420230000000654816523000000000207234522539XXXXXX2368       ME03KE06MS02      NY 4607AMDJG5YC590614  N840000000006548          81DNKETOFUSION 8885968154    931628    MD84000000006548 NDR599977547467   90DF24D10ET95FF9BF13D54  000000000+600450S00130    MDJ  00401                     000000000  N                0000000000000.00 0000000.00   0000000.00                             000000000000000                                                                                                                                                   U001424  000000000000 0000000000001.23     01650 01500                  
00013020333930022DR67590675900000019828800109800000010190DF24D10ET95FF9BF13D54  Y000000000000                                                                                                                                                                                                                                                                                                                                                                                                                                                                                                                                                                                                                               
00013030333930001G2675906759000000198288001098000000101888-5968154              UT           9 J               210                                      NNNN           210000000000000000000000000                                                                   77547467                                                                                                                                                                                                                                                                                                                                                                                                                                               
00013040333930023DT67590675900000019828800109800000010180010987287283165900018002480061420230000000519016523000000000207234522539XXXXXX2368       ME03KE06MS02      NY 4607AMDJ06FI580614  N840000000005190          81DNKETOFUSION 8885968154    931630    MD84000000005190 NDR599977547467   90DF24D10ETE4110544DF1F  000000000+600450S00130    MDJ  00401                     000000000  N                0000000000000.00 0000000.00   0000000.00                             000000000000000                                                                                                                                                   U001424  000000000000 0000000000001.01     01650 01500                  
00013050333930023DR67590675900000019828800109800000010190DF24D10ETE4110544DF1F  Y000000000000                                                                                                                                                                                                                                                                                                                                                                                                                                                                                                                                                                                                                               
00013060333930001G2675906759000000198288001098000000101888-5968154              UT           9 J               210                                      NNNN           210000000000000000000000000                                                                   77547467                                                                                                                                                                                                                                                                                                                                                                                                                                               
00013070333930024DT67590675900000019828800109800000010180010987287283165900018002514061420230000001987016523000000000207234549460XXXXXX0021       ME03KE06PT01      NY 4607AMCW1EK7580614  N840000000019870          81DNKETOFUSION 8885968154    01435Z    MC84000000019870 NDR599977547467   1130E8E9EDT47C9F42888E4  000000000+600450S00130    MCW  00642                     000000000  N                0000000000000.00 0000000.00   0000000.00                             000000000000000                                                                                                                                                   U001424  000000000000 0000000000004.47     02200 01000                  
00013080333930024DR6759067590000001982880010980000001011130E8E9EDT47C9F42888E4  Y000000000000                                                                                                                                                                                                                                                                                                                                                                                                                                                                                                                                                                                                                               
00013090333930001G2675906759000000198288001098000000101888-5968154              UT           9 W               210                                      NNNN           210000000000000000000000000                        7                                          77547467                                                                                                                                                                                                                                                                                                                                                                                                                                               
00013100333930025DT67590675900000019828800109800000010180010924001193165900018002554061420230000002487016523000000000207234462192XXXXXX8833               2111111   NYV4 A7W583165734175661N840000000024870FZNR00    01DNKETOFUSION 8885968154    014873    VS84000000024870 NDR599977547467   EA102E9808T65ABA473FD16  000000000+                A CA 12106                     000000000  N000000000 492   0000000000000.00 0000000.00   0000000.00                             000000000000000                                                                                                                                                     01424 G000000024870 0000000000004.80     01890 01000                  
00013110333930025DR675906759000000198288001098000000101EA102E9808T65ABA473FD16  Y000000024870                 P1                                                                                                                                                                                                                                                                                                                                                                                                                                                                                                                                                                                                            
00013120333930001P16759067590000001982880010980000001010000000000000000                             2000000000000000000000000              000000000000                    0000000000000000000000000                    000000000000                                                                                                                                                                                                                                                                                                                                                                                                                                                                                        
00013130333930002G2675906759000000198288001098000000101888-5968154              UT           9 C                00                                      NNNN   N                      000000000000                                                                   77547467                                                                                                                                                                                                                                                                                                                                                                                                                                               
00013140333930026DT67590675900000019828800109800000010680010974001193165900018002583061420230000002487016523000000000207234414709XXXXXX9610               0000000   NYV4 07T383165752638545N840000000024870GS7M85    01CNKETOFUSION 8885968154    054441    VS84000000024870 NDR599977547467   88B53C6246TD794BF3131F3  000000000+                D CD 00245                     000000000  N000000000 166   0000000000000.00 0000000.00   0000000.00                             000000000000000                                                                                                                                                     01424  000000024870-0000000000004.38     01760 00000                  
00013150333930026DR67590675900000019828800109800000010688B53C6246TD794BF3131F3  R000000024870                 P1                                                                                                                                                                                                                                                                                                                                                                                                                                                                                                                                                                                                            
00013160333930001P16759067590000001982880010980000001060000000000000000                             2000000000000000000000000              000000000000                    0000000000000000000000000                    000000000000                                                                                                                                                                                                                                                                                                                                                                                                                                                                                        
00013170333930002G2675906759000000198288001098000000106888-5968154              UT           9 C                00                                      NNNN   Y                      000000000000                                                                   77547467                                                                                                                                                                                                                                                                                                                                                                                                                                               
00013180333930027DT67590675900000019828800109800000010680010987287283165900018002597061420230000002487016523000000000207234520943XXXXXX1320                         NY 4607AMCWKDNM590614  N840000000024870          81CNKETOFUSION 8885968154    022318    MC84000000024870 NDR599977547467   4475980D8CT3FCABAF4453D  000000000+600450S00130    MCW  00564                     000000000  N                0000000000000.00 0000000.00   0000000.00                             000000000000000                                                                                                                                                     01424  000000000000-0000000000004.35     01750 00000                  
00013190333930027DR6759067590000001982880010980000001064475980D8CT3FCABAF4453D  Z000000000000                                                                                                                                                                                                                                                                                                                                                                                                                                                                                                                                                                                                                               
00013200333930001G2675906759000000198288001098000000106888-5968154              UT           9 W               210                                      NNNN           210000000000000000000000000                        7                                          77547467                                                                                                                                                                                                                                                                                                                                                                                                                                               
00013210333930028DT67590675900000019828800109800000010680010974001193165900018002724061420230000001987016523000000000207234449210XXXXXX2203               0000000   NY94 07N000000000000000N   000000000000          01CNKETOFUSION 8885968154              VD84000000019870 N  599977547467                            000000000+                F DF 08168                     000000000  Y000000000 369   0000000000000.00 0000000.00   0000000.00                             000000000000000                                                                                                                                                     01424  000000000000 0000000000000.00     00000 00000                  
00013220333930001G2675906759000000198288001098000000106888-5968154              UT           9 D                00                                      NNNN00 N 00                   000000000000                                                                   77547467                                                                                                                                                                                                                                                                                                                                                                                                                                               
00013230333930029DT67590675900000019828800109800000010180010924001193165900018002661061420230000002487016523000000000207234459954XXXXXX2336               2111111   NYV4 A7W583165796825174N8400000000248708VZX00    01DNKETOFUSION 8885968154    H95745    VD84000000024870 NDR599977547467   533C0B9F85T0CF958CC758E  000000000+                F DF 10420                     000000000  Y000000000 338   0000000000000.00 0000000.00   0000000.00                             000000000000000                                                                                                                                                     01424 G000000024870 0000000000000.34     00050 02200                  
00013240333930029DR675906759000000198288001098000000101533C0B9F85T0CF958CC758E  Y000000024870                 P1                                                                                                                                                                                                                                                                                                                                                                                                                                                                                                                                                                                                            
00013250333930001P16759067590000001982880010980000001010000000000000000                             2000000000000000000000000              000000000000                    0000000000000000000000000                    000000000000                                                                                                                                                                                                                                                                                                                                                                                                                                                                                        
00013260333930002G2675906759000000198288001098000000101888-5968154              UT           9 D                00                                      NNNN   N                      000000000000                                                                   77547467                                                                                                                                                                                                                                                                                                                                                                                                                                               
00013270333930030DT67590675900000019828800109800000010180010987287283165900018002670061420230000000654816523000000000207234524306XXXXXX5585       ME03KE06MS02      NY 4607AMPLGH63C80614  N840000000006548          81DNKETOFUSION 8885968154    01431B    MC84000000006548 NDR599977547467   B8FF8B0652T24C9A9CE25E4  000000000+600450S00130    MPL  00580                     000000000  N                0000000000000.00 0000000.00   0000000.00                             000000000000000                                                                                                                                                     01424  000000000000 0000000000001.48     02100 01000                  
00013280333930030DR675906759000000198288001098000000101B8FF8B0652T24C9A9CE25E4  Y000000000000                                                                                                                                                                                                                                                                                                                                                                                                                                                                                                                                                                                                                               
00013290333930001G2675906759000000198288001098000000101888-5968154              UT           9 L               210                                      NNNN           210000000000000000000000000                        7                                          77547467                                                                                                                                                                                                                                                                                                                                                                                                                                               
00013300333930031DT67590675900000019828800109800000010680010987287283165900018002688061420230000000654816523000000000207234524306XXXXXX5585                         NY 4607AMPLIV9QCW0614  N840000000006548          81CNKETOFUSION 8885968154    014908    MC84000000006548 NDR599977547467   B8FF8B0652T24C9A9CE25E4  000000000+600450S00130    MPL  00564                     000000000  N                0000000000000.00 0000000.00   0000000.00                             000000000000000                                                                                                                                                     01424  000000000000-0000000000001.15     01750 00000                  
00013310333930031DR675906759000000198288001098000000106B8FF8B0652T24C9A9CE25E4  R000000000000                                                                                                                                                                                                                                                                                                                                                                                                                                                                                                                                                                                                                               
00013320333930001G2675906759000000198288001098000000106888-5968154              UT           9 L               210                                      NNNN           210000000000000000000000000                        7                                          77547467                                                                                                                                                                                                                                                                                                                                                                                                                                               
00013330333930032BH675906759000000232598001168000009017061420231652300000000003282701970000090001682319N8001166759D06152023068                                                                                                                                                                                                                                                                                                                                                                                                                                                                                                                                                                                              
00013340333930033DT67590675900000023259800116800000010680011674001193165900016823170061420230000001638916523000000000032827410039XXXXXX8505               0000000   NNV4 07T583165790414238N8400000000163892MW300    01CNGFORCEHEMP844-258-9322   34225C0197VS84000000016389 NDR549977768166   1A042E4808T2A2A529B0B0E  000000000+                C CC 00000                     000000000  N000000000 166   0000000000000.00 0000000.00   0000000.00             000000000016389C000000000000000                                                                                                                                                     01424  000000016389 0000000000000.00     00000 00000                  
00013350333930033DR6759067590000002325980011680000001061A042E4808T2A2A529B0B0E  U000000016389                 P1                                                                                                                                                                                                                                                                                                                                                                                                                                                                                                                                                                                                            
00013360333930001P16759067590000002325980011680000001060000000000000000                             2000000000000000000000000              000000000000                    0000000000000000000000000                    000000000000                                                                                                                                                                                                                                                                                                                                                                                                                                                                                        
00013370333930002G2675906759000000232598001168000000106844-2589322              CA           9 C                00                                      NNNN   Y                      000000000000                                                                   77768166                                                                                                                                                                                                                                                                                                                                                                                                                                               
00013380333930034DT67590675900000023259800116800000010680011674001193165900016823188061420230000001278916523000000000032827410039XXXXXX8505               0000000   NNV4 07T463165791001850N840000000012789WW5V00    01CNGFORCEHEMP844-258-9322   76050C0197VS84000000012789 NDR549977768166   8ECF895AD2T8065E2265DAB  000000000+                C CC 00000                     000000000  N000000000 166   0000000000000.00 0000000.00   0000000.00             000000000012789C000000000000000                                                                                                                                                     01424  000000012789 0000000000000.00     00000 00000                  
00013390333930034DR6759067590000002325980011680000001068ECF895AD2T8065E2265DAB  U000000012789                 P1                                                                                                                                                                                                                                                                                                                                                                                                                                                                                                                                                                                                            
00013400333930001P16759067590000002325980011680000001060000000000000000                             2000000000000000000000000              000000000000                    0000000000000000000000000                    000000000000                                                                                                                                                                                                                                                                                                                                                                                                                                                                                        
00013410333930002G2675906759000000232598001168000000106844-2589322              CA           9 C                00                                      NNNN   Y                      000000000000                                                                   77768166                                                                                                                                                                                                                                                                                                                                                                                                                                               
00013420333930035DT67590675900000023259800116800000010680011674001193165900016823196061420230000000364916523000000000032827410039XXXXXX8505               0000000   NNV4 07T583165791186319N840000000003649XB4J00    01CNGFORCEHEMP844-258-9322   88838C0197VS84000000003649 NDR549977768166   8ECF895AD2TE17A079B92EC  000000000+                C CC 00000                     000000000  N000000000 166   0000000000000.00 0000000.00   0000000.00             000000000003649C000000000000000                                                                                                                                                     01424  000000003649 0000000000000.00     00000 00000                  
00013430333930035DR6759067590000002325980011680000001068ECF895AD2TE17A079B92EC  U000000003649                 P1                                                                                                                                                                                                                                                                                                                                                                                                                                                                                                                                                                                                            
00013440333930001P16759067590000002325980011680000001060000000000000000                             2000000000000000000000000              000000000000                    0000000000000000000000000                    000000000000                                                                                                                                                                                                                                                                                                                                                                                                                                                                                        
00013450333930002G2675906759000000232598001168000000106844-2589322              CA           9 C                00                                      NNNN   Y                      000000000000                                                                   77768166                                                                                                                                                                                                                                                                                                                                                                                                                                               
00013460333930036BH6759067590000001619680010280000090170614202316523000000000567840    0000090001654106Y8001026759C06152023065                                                                                                                                                                                                                                                                                                                                                                                                                                                                                                                                                                                              
00013470333930037DT67590675900000016196800102800000010180010287287283165900016535432061320230000001272816523000000000567840517479XXXXXX5011       ME03KE06MS02      NY 4607AMPLMYDJWJ0610  N840000000012728          81DNGREEN OTTER LLC          01066B    MC84000000012728 NDR549977424386   5AEFEBCC5AT1C8A72D426A2  000000000+600450S00130    MPL  00580                     000000000  N                0000000000000.00 0000000.00   0000000.00                             000000000000000                                                                                                                                                   U001424  000000000000 0000000000002.77     02100 01000                  
00013480333930037DR6759067590000001619680010280000001015AEFEBCC5AT1C8A72D426A2  Y000000000000                                                                                                                                                                                                                                                                                                                                                                                                                                                                                                                                                                                                                               
00013490333930001G2675906759000000161968001028000000101866-6317293              GA           9 L               210                                      NNNN           210000000000000000000000000                        7                                          77424386                                                                                                                                                                                                                                                                                                                                                                                                                                               
00013500333930038DT67590675900000016196800102800000010180010224001193165900016535456061320230000002147916523000000000567840410039XXXXXX0579               2111111   NYV4 A7W463161333043233N840000000021479FZMG00    01DNGREEN OTTER LLC          94286D    VS84000000021479 NDR549977424386   E1D90CF438T88A3E420F6F4  000000000+                D CD 12109                     000000000  N000000000 498   0000000000000.00 0000000.00   0000000.00                             000000000000000                                                                                                                                                     01424 G000000021479 0000000000005.47     02500 01000                  
00013510333930038DR675906759000000161968001028000000101E1D90CF438T88A3E420F6F4  Y000000021479                 P1                                                                                                                                                                                                                                                                                                                                                                                                                                                                                                                                                                                                            
00013520333930001P16759067590000001619680010280000001010000000000000000                             2000000000000000000000000              000000000000                    0000000000000000000000000                    000000000000                                                                                                                                                                                                                                                                                                                                                                                                                                                                                        
00013530333930002G2675906759000000161968001028000000101866-6317293              GA           9 C                00                                      NNNN   Y                      000000000000                                                                   77424386                                                                                                                                                                                                                                                                                                                                                                                                                                               
00013540333930039DT67590675900000016196800102800000010180010287287283165900016539640061320230000001598416523000000000567840510805XXXXXX3647       ME03KE06MS02      NY 4607AMDJKMRTL00613  N840000000015984          81DNGREEN OTTER LLC          092724    MD84000000015984 NDR549977424386   B275675FE5T77DDD2CBDFCB  000000000+600450S00130    MDJ  10813                     000000000  1                0000000000000.00 0000000.00   0000000.00                             000000000000000                                                                                                                                                   U001424  000000000000 0000000000000.30     00050 02200                  
00013550333930039DR675906759000000161968001028000000101B275675FE5T77DDD2CBDFCB  Y000000000000                                                                                                                                                                                                                                                                                                                                                                                                                                                                                                                                                                                                                               
00013560333930001G2675906759000000161968001028000000101866-6317293              GA           9 J               210                                      NNNN           210000000000000000000000000                        7                                          77424386                                                                                                                                                                                                                                                                                                                                                                                                                                               
00013570333930040DT67590675900000016196800102800000010180010224001193165900016539680061320230000000158516523000000000567840409758XXXXXX0376               2111111   NYV4 A7W383165030122195N840000000001585442F00    01DNGREEN OTTER LLC          945457    VD84000000001585 NDR549977424386   11AF4138F6T908666526185  000000000+                F PF 08175                     000000000  N000000000       0000000000000.00 0000000.00   0000000.00                             000000000000000                                                                                                                                                     01424 G000000001585 0000000000000.48     01750 02000                  
00013580333930040DR67590675900000016196800102800000010111AF4138F6T908666526185  U000000001585                 P1                                                                                                                                                                                                                                                                                                                                                                                                                                                                                                                                                                                                            
00013590333930001P16759067590000001619680010280000001010000000000000000                             2000000000000000000000000              000000000000                    0000000000000000000000000                    000000000000                                                                                                                                                                                                                                                                                                                                                                                                                                                                                        
00013600333930002G2675906759000000161968001028000000101866-6317293              GA           9 P                00                                      NNNN   N                      000000000000                                                                   77424386                                                                                                                                                                                                                                                                                                                                                                                                                                               
00013610333930041DT67590675900000016196800102800000010180010287287283165900016539871061320230000002755016523000000000567840549429XXXXXX3353       ME03KE06MS02      NY 4607AMPLHFLBL40613  N840000000027550          81DNGREEN OTTER LLC          694639    MC84000000027550 NDR549977424386   C29880A2EBT9AFF91E893F3  000000000+600450S00130    MPL  00013                     000000000  N                0000000000000.00 0000000.00   0000000.00                             000000000000000                                                                                                                                                   U001424  000000000000 0000000000005.47     01950 01000                  
00013620333930041DR675906759000000161968001028000000101C29880A2EBT9AFF91E893F3  Y000000000000                                                                                                                                                                                                                                                                                                                                                                                                                                                                                                                                                                                                                               
00013630333930001G2675906759000000161968001028000000101866-6317293              GA           9 L               210                                      NNNN           210000000000000000000000000                        7                                          77424386                                                                                                                                                                                                                                                                                                                                                                                                                                               
00013640333930042DT67590675900000016196800102800000010180010287287283165900016539889061320230000001848516523000000000567840512230XXXXXX7756       ME03KE06MS02      NY 4607AMWEVJQ8V40613  N840000000018485          81DNGREEN OTTER LLC          60843Z    MC84000000018485 NDR549977424386   753918579FT2D13A541C39F  000000000+600450S00130    MWE  00737                     000000000  N                0000000000000.00 0000000.00   0000000.00                             000000000000000                                                                                                                                                   U001424  000000000000 0000000000004.91     02600 01000                  
00013650333930042DR675906759000000161968001028000000101753918579FT2D13A541C39F  Y000000000000                                                                                                                                                                                                                                                                                                                                                                                                                                                                                                                                                                                                                               
00013660333930001G2675906759000000161968001028000000101866-6317293              GA           9 E               210                                      NNNN           210000000000000000000000000                                                                   77424386                                                                                                                                                                                                                                                                                                                                                                                                                                               
00013670333930043DT67590675900000016196800102800000010180010287287283165900016539988061320230000001200816523000000000567840548031XXXXXX6619       ME03KE06MS02      NY 4607AMCGVRYOV40613  N840000000012008          81DNGREEN OTTER LLC          01302Z    MC84000000012008 NDR549977424386   B8960BE3C5T74952C8AB00C  000000000+600450S00130    MCG  00013                     000000000  N                0000000000000.00 0000000.00   0000000.00                             000000000000000                                                                                                                                                   U001424  000000000000 0000000000002.44     01950 01000                  
00013680333930043DR675906759000000161968001028000000101B8960BE3C5T74952C8AB00C  Y000000000000                                                                                                                                                                                                                                                                                                                                                                                                                                                                                                                                                                                                                               
00013690333930001G2675906759000000161968001028000000101866-6317293              GA           9 G               210                                      NNNN           210000000000000000000000000                        7                                          77424386                                                                                                                                                                                                                                                                                                                                                                                                                                               
00013700333930044DT67590675900000016196800102800000010180010224001193165900016540035061320230000001987016523000000000567840456367XXXXXX8951               2111111   NYV4 A7W303165072048874N840000000019870NKM400    01DNGREEN OTTER LLC          H29947    VD84000000019870 NDR549977424386   E7A5532E62T39BC923906ED  000000000+                F DF 10420                     000000000  Y000000000 338   0000000000000.00 0000000.00   0000000.00                             000000000000000                                                                                                                                                     01424 G000000019870 0000000000000.32     00050 02200                  
00013710333930044DR675906759000000161968001028000000101E7A5532E62T39BC923906ED  Y000000019870                 P1                                                                                                                                                                                                                                                                                                                                                                                                                                                                                                                                                                                                            
00013720333930001P16759067590000001619680010280000001010000000000000000                             2000000000000000000000000              000000000000                    0000000000000000000000000                    000000000000                                                                                                                                                                                                                                                                                                                                                                                                                                                                                        
00013730333930002G2675906759000000161968001028000000101866-6317293              GA           9 D                00                                      NNNN   N                      000000000000                                                                   77424386                                                                                                                                                                                                                                                                                                                                                                                                                                               
00013740333930045DT67590675900000016196800102800000010180010224001193165900016540076061320230000002487016523000000000567840436618XXXXXX9849               2111111   NYV4 A7W583165072158191N840000000024870MS9H00    01DNGREEN OTTER LLC          003479    VD84000000024870 NDR549977424386   CB391D7480T805FAEFE863B  000000000+                F DF 10420                     000000000  Y000000000 338   0000000000000.00 0000000.00   0000000.00                             000000000000000                                                                                                                                                     01424 G000000024870 0000000000000.34     00050 02200                  
00013750333930045DR675906759000000161968001028000000101CB391D7480T805FAEFE863B  Y000000024870                 P1                                                                                                                                                                                                                                                                                                                                                                                                                                                                                                                                                                                                            
00013760333930001P16759067590000001619680010280000001010000000000000000                             2000000000000000000000000              000000000000                    0000000000000000000000000                    000000000000                                                                                                                                                                                                                                                                                                                                                                                                                                                                                        
00013770333930002G2675906759000000161968001028000000101866-6317293              GA           9 D                00                                      NNNN   N                      000000000000                                                                   77424386                                                                                                                                                                                                                                                                                                                                                                                                                                               
00013780333930046DT67590675900000016196800102800000010180010224001193165900016540167061320230000000639816523000000000567840465345XXXXXX3926               2111111   NYV4 A7W303165113573544N840000000006398STS700    01DNGREEN OTTER LLC          480454    VD84000000006398 NDR549977424386   79B9018767T03C8FF98D689  000000000+                F DF 10420                     000000000  Y000000000 338   0000000000000.00 0000000.00   0000000.00                             000000000000000                                                                                                                                                     01424 G000000006398 0000000000000.25     00050 02200                  
00013790333930046DR67590675900000016196800102800000010179B9018767T03C8FF98D689  Y000000006398                 P1                                                                                                                                                                                                                                                                                                                                                                                                                                                                                                                                                                                                            
00013800333930001P16759067590000001619680010280000001010000000000000000                             2000000000000000000000000              000000000000                    0000000000000000000000000                    000000000000                                                                                                                                                                                                                                                                                                                                                                                                                                                                                        
