02316300506940002BH6759067590000000215480088880000090171222202235622000000000420967    0000090001658246N8008886759C12232022                                                                                                                                                                                                                                                                                                                                                                                                                                                                                                                                                                                                 
02316310506940003DT67590675900000002154800888800000010180088887287282356900016516292122220220000005150035622000000000420967534875XXXXXX6300                         NY 4607AMDBB79WLX1222  N840000000051500          81DNDRIP DROP DISTRO LLC     102148    MD84000000051500 NP1519900000001   17151                    000000000+600450S00140    MDB  10786                     000000000  1                0000000000000.00 0000000.00   0000000.00                             000000000000000                                                                                                                                                   U001418  000000000000 0000000000000.48     00050 02200                  
02316320506940001P1675906759000000021548008888000000101                                                          000000000000          8000            471534935                                                                                                                                                                                                                                                                                                                                                                                                                                                                                                                                                            
02316330506940004DT67590675900000002154800888800000010180088873011002356900016582463122220220000036946735622000000000420967372728XXXXX5001                          NY 4 07N003956910616309N840000000369467          01DNDRIP DROP DISTRO LLC     209458    AM84000000369467 N  519971004114                            000000000+6004S0S00140 258     11244                     000000000                   0000000000000.00 0000000.00   0000000.00                             000000000000000 61248972736759675900000002154 DRIP DROP DISTRO LLC     1445 W COMMERCE AVE SUITE2087248209      83705     TROY@DRIPDROPDISTRO.COM                   01418  000000000000 0000000000070.30     01900 00000                  
02316340506940005BH6759067590000000096880088880000090171222202235622000000000017145    0000090001120840N8008886759C12232022                                                                                                                                                                                                                                                                                                                                                                                                                                                                                                                                                                                                 
02316350506940006DT67590675900000000968800888800000010180088824001192356900011272973122220220000000664535622000000000017145435142XXXXXX4679               2111111   NYV4 A7W302356480802880N8400000000066458HDR00    01DNHIGHER FLOUR LLC         002876    VD84000000006645 NP1546271004114   RTEGV594Y8LF3MHRDNRA     000000000+                F DF 10420                     000000000  Y000000000 338   0000000000000.00 0000000.00   0000000.00                             000000000000000                                                                                                                                                     01418 G000000006645 0000000000000.25     00050 02200                  
02316360506940001P16759067590000000096880088880000001010000000000000000                             2000000000000000000000000              000000000000                    0000000000000000000000000                    000000000000                                                                                                                                                                                                                                                                                                                                                                                                                                                                                        
02316370506940007DT67590675900000000968800888800000010180088824001192356900011208407122220220000001050035622000000000017145443047XXXXXX8355               2111111   NYV4 A7W462356589559395N8400000000105005V8300    01DNHIGHER FLOUR LLC         627682    VD84000000010500 NP1546271004114   ROP4SSVCWSKAERDMDND1     000000000+                F DF 10420                     000000000  Y000000000 338   0000000000000.00 0000000.00   0000000.00                             000000000000000                                                                                                                                                     01418 G000000010500 0000000000000.27     00050 02200                  
02316380506940001P16759067590000000096880088880000001010000000000000000                             2000000000000000000000000              000000000000                    0000000000000000000000000                    000000000000                                                                                                                                                                                                                                                                                                                                                                                                                                                                                        
