02370380054454234AD675906759000000151648008888000009071900012241250000001972004022023NYY09223ND6759800888040420232023090024992                                                                                                                                                                                                                                                                                                                                                                                                                                                                                                                                                                                              
02370390054454237AD675906759000000151648008888000009071900012352060000002487004022023NYY09223ND6759800888040420232023090024993                                                                                                                                                                                                                                                                                                                                                                                                                                                                                                                                                                                              
02370400054454240AD675906759000000151648008888000009071900012352080000000654804022023NYY09223ND6759800888040420232023090024994                                                                                                                                                                                                                                                                                                                                                                                                                                                                                                                                                                                              
02370410054454243AD675906759000000151648008888000009071900011613070000002255004022023NYY09223ND6759800888040420232023090024995                                                                                                                                                                                                                                                                                                                                                                                                                                                                                                                                                                                              
02370420054454246AD675906759000000151648008888000009071900012663620000001987004022023NYY09223ND6759800888040420232023090024996                                                                                                                                                                                                                                                                                                                                                                                                                                                                                                                                                                                              
02370430054454249AD675906759000000151648008888000009071900012559700000001206604022023NYY09223ND6759800888040420232023090024997                                                                                                                                                                                                                                                                                                                                                                                                                                                                                                                                                                                              
02370440054454252AD675906759000000151648008888000009071900012878980000000654804022023NYY09223ND6759800888040420232023090024998                                                                                                                                                                                                                                                                                                                                                                                                                                                                                                                                                                                              
02370450054454255AD675906759000000151648008888000009071900012878970000001499104022023NYY09223ND6759800888040420232023090024999                                                                                                                                                                                                                                                                                                                                                                                                                                                                                                                                                                                              
02370460054454258AD675906759000000151648008888000009071900012878990000000519004022023NYY09223ND6759800888040420232023090025000                                                                                                                                                                                                                                                                                                                                                                                                                                                                                                                                                                                              
02370470054454261AD675906759000000142748001028000009071900011710550000002673504022023NYY09223ND6759800102040420232023090025001                                                                                                                                                                                                                                                                                                                                                                                                                                                                                                                                                                                              
02370480054454264AD675906759000000142748001028000009071900012621450000001987004022023NYY09223ND6759800102040420232023090025002                                                                                                                                                                                                                                                                                                                                                                                                                                                                                                                                                                                              
02370490054454267AD675906759000000151648008888000009071900012133740000001987004022023NYY09223ND6759800888040420232023090025003                                                                                                                                                                                                                                                                                                                                                                                                                                                                                                                                                                                              
02370500054454270AD675906759000000151648008888000009071900012459360000001987004022023NYY09223ND6759800888040420232023090025004                                                                                                                                                                                                                                                                                                                                                                                                                                                                                                                                                                                              
02370510054454273AD675906759000000151648008888000009071900012234370000001987004022023NYY09223ND6759800888040420232023090025005                                                                                                                                                                                                                                                                                                                                                                                                                                                                                                                                                                                              
02370520054454276AD675906759000000151648008888000009071900012346710000002487004022023NYY09223ND6759800888040420232023090025006                                                                                                                                                                                                                                                                                                                                                                                                                                                                                                                                                                                              
02370530054454279AD675906759000000151648008888000009071900012236530000002487004022023NYY09223ND6759800888040420232023090025007                                                                                                                                                                                                                                                                                                                                                                                                                                                                                                                                                                                              
02370540054454282AD675906759000000198288001098000009071900010201360000002487004022023NYY09223ND6759800109040420232023090025008                                                                                                                                                                                                                                                                                                                                                                                                                                                                                                                                                                                              
02370550054454285AD675906759000000151648008888000009071900012349760000001194804022023NYY09223ND6759800888040420232023090025009                                                                                                                                                                                                                                                                                                                                                                                                                                                                                                                                                                                              
02370560054454288AD675906759000000151648008888000009071900012349780000000519004022023NYY09223ND6759800888040420232023090025010                                                                                                                                                                                                                                                                                                                                                                                                                                                                                                                                                                                              
02370570054454291AD675906759000000151648008888000009071900012349770000000654804022023NYY09223ND6759800888040420232023090025011                                                                                                                                                                                                                                                                                                                                                                                                                                                                                                                                                                                              
02370580054454294AD675906759000000151648008888000009071900012347330000001987004022023NYY09223ND6759800888040420232023090025013                                                                                                                                                                                                                                                                                                                                                                                                                                                                                                                                                                                              
02370590054454297AD675906759000000151648008888000009071900012459160000002487004022023NYY09223ND6759800888040420232023090025014                                                                                                                                                                                                                                                                                                                                                                                                                                                                                                                                                                                              
02370600056970002BH6759067590000000288180088880000090170403202309323000000000025169    0000090001850007N8008886759C04042023                                                                                                                                                                                                                                                                                                                                                                                                                                                                                                                                                                                                 
02370610056970003DT67590675900000002881800888800000010180088824001193093900018500018040320230000000049909323000000000025169491523XXXXXX7823       VK04VS111111111   NYV1 A E463093565225627N840000000000499LPQF00    07DNHAPPY HIPPIE             021266    VD84000000000499 N  549976487134                            000000000+                F DF 10439                     000000000  Y000000000 331   0000000000000.00 0000000.00   0000000.00                             000000000000000                                                                                                                                                     01418 F000000000000 0000000000000.22     00050 02200                  
02370620056970004DT67590675900000002881800888800000010180088824001193093900018500026040320230000000088609323000000000025169443238XXXXXX7126       VK04VS111111111   NYV1 A E463093638803595N8400000000008863ZZN00    07DNHAPPY HIPPIE             034441    VD84000000000886 N  549976487134                            000000000+                F DF 00451                     000000000  N000000000 214   0000000000000.00 0000000.00   0000000.00                             000000000000000                                                                                                                                                     01418 F000000000000 0000000000000.18     01550 00400                  
02370630056970005DT67590675900000002881800888800000010180088824001193093900018500034040320230000000128309323000000000025169419090XXXXXX1589       VK04VS111111111   NYV1 A E583093649242049N8400000000012839SGD00    05DNHAPPY HIPPIE             955582    VD84000000001283 N  549976487134                            000000000+                F DF 00451                     000000000  N000000000 214   0000000000000.00 0000000.00   0000000.00                             000000000000000                                                                                                                                                     01418 F000000000000 0000000000000.24     01550 00400                  
02370640056970006DT67590675900000002881800888800000010180088824001193093900018500042040320230000000039309323000000000025169419090XXXXXX9805       VK04VS111111111   NYV1 A E463093650248557N840000000000393H7CF00    05DNHAPPY HIPPIE             955650    VD84000000000393 N  549976487134                            000000000+                F DF 00451                     000000000  N000000000 214   0000000000000.00 0000000.00   0000000.00                             000000000000000                                                                                                                                                     01418 F000000000000 0000000000000.10     01550 00400                  
02370650056970007DT67590675900000002881800888800000010180088824001193093900018500059040320230000000570509323000000000025169426938XXXXXX9663       VS11    0001111   NYV1 A E383093682754956N840000000005705KGJ400    07DNHAPPY HIPPIE             003881    VS84000000005705 N  549976487134                            000000000+                B CB 12111                     000000000  N000000000 495   0000000000000.00 0000000.00   0000000.00                             000000000000000                                                                                                                                                     01418 A000000000000 0000000000001.04     01650 01000                  
02370660056970008DT67590675900000002881800888800000010180088877287283093900018500069040320230000001624209323000000000025169511953XXXXXX9431       MS02WI09          NY 1 0 AMDJM7DRBI0403  N840000000016242          05DNHAPPY HIPPIE             066348    MD84000000016242 N  549976487134                            000000000+M10101C5434C    MDJ  00402                     000000000  N                0000000000000.00 0000000.00   0000000.00                             000000000000000                                                                                                                                                   B101418  000000000000 0000000000001.86     01050 01500                  
02370670056970009DT67590675900000002881800888800000010180088824001193093900018500075040320230000000016109323000000000025169498503XXXXXX9797       VK04VS111111111   NYV1 A E463093693752856N840000000000161CDPJ00    05DNHAPPY HIPPIE             089139    VD84000000000161 N  549976487134                            000000000+                F DF 00451                     000000000  N000000000 214   0000000000000.00 0000000.00   0000000.00                             000000000000000                                                                                                                                                     01418 F000000000000 0000000000000.06     01550 00400                  
02370680056970010BH6759067590000000288180088880000090170403202309323000000000196463    0000090001870026N8008886759C04042023                                                                                                                                                                                                                                                                                                                                                                                                                                                                                                                                                                                                 
02370690056970011DT67590675900000002881800888800000010180088877287283093900018700016040320230000000079009323000000000196463517805XXXXXX5135       MS02WI09          NY 1 0 AMPLNVNR1D0403  N840000000000790          07DNHAPPY HIPPIE             07566B    MC84000000000790 N  549976487158                            000000000+M10101M0034C    MPL  00364                     000000000  N                0000000000000.00 0000000.00   0000000.00                             000000000000000                                                                                                                                                   B101418  000000000000 0000000000000.18     01800 00400                  
02370700056970012DT67590675900000002881800888800000010180088877287283093900018700024040320230000000256609323000000000196463511953XXXXXX0299       MS02WI09          NY 1 0 AMDJN66A1D0403  N840000000002566          07DNHAPPY HIPPIE             058613    MD84000000002566 N  549976487158                            000000000+M10101M0034C    MDJ  00402                     000000000  N                0000000000000.00 0000000.00   0000000.00                             000000000000000                                                                                                                                                   B101418  000000000000 0000000000000.42     01050 01500                  
02370710056970013DT67590675900000002881800888800000010180088824001193093900018700030040320230000000125009323000000000196463465992XXXXXX3565       VK04VS111111111   NYV1 A E463093531193054N840000000001250TXVK00    07DNHAPPY HIPPIE             651797    VD84000000001250 N  549976487158                            000000000+                F DF 00451                     000000000  N000000000 214   0000000000000.00 0000000.00   0000000.00                             000000000000000                                                                                                                                                     01418 F000000000000 0000000000000.23     01550 00400                  
02370720056970014DT67590675900000002881800888800000010180088824001193093900018700048040320230000002019209323000000000196463443264XXXXXX8338       VS11    0001111   NYV1 A E583093547526401N840000000020192Z7DT00    05DNHAPPY HIPPIE             005014    VD84000000020192 N  549976487158                            000000000+                F DF 10433                     000000000  Y000000000 338   0000000000000.00 0000000.00   0000000.00                             000000000000000                                                                                                                                                     01418 A000000000000 0000000000000.32     00050 02200                  
02370730056970015DT67590675900000002881800888800000010180088873011003093900018700051040320230000001972109323000000000196463379295XXXXX3003                          NY 1 0 N007494325261061N840000000019721          05DNHAPPY HIPPIE             889484    AM84000000019721 N  549976487158                            000000000+51010155434C 258     11262                     000000000                   0000000000000.00 0000000.00   0000000.00                             000000000000000 61248972086759675900000002881 HAPPY HIPPIE             832 PARKWAY              8656540830      37862     HAPPYHIPPIE832@GMAIL.COM                  01418  000000000000 0000000000003.95     01950 00000                  
02370740056970016DT67590675900000002881800888800000010180088873011003093900018700069040320230000000285109323000000000196463379295XXXXX3003                          NY 1 0 N007494568122061N840000000002851          05DNHAPPY HIPPIE             829652    AM84000000002851 N  549976487158                            000000000+51010155434C 258     11261                     000000000                   0000000000000.00 0000000.00   0000000.00                             000000000000000 61248972086759675900000002881 HAPPY HIPPIE             832 PARKWAY              8656540830      37862     HAPPYHIPPIE832@GMAIL.COM                  01418  000000000000 0000000000000.56     01600 00000                  
02370750056970017DT67590675900000002881800888800000010180088824001193093900018700071040320230000000395009323000000000196463443264XXXXXX3780       VS11    0001111   NYV1 A E583093565735080N840000000003950KSPK00    07DNHAPPY HIPPIE             009061    VD84000000003950 N  549976487158                            000000000+                F DF 10433                     000000000  Y000000000 338   0000000000000.00 0000000.00   0000000.00                             000000000000000                                                                                                                                                     01418 A000000000000 0000000000000.24     00050 02200                  
02370760056970018DT67590675900000002881800888800000010180088824001193093900018700089040320230000000395409323000000000196463491523XXXXXX7823       VS11    0001111   NYV1 A E303093594812387N840000000003954XXF700    07DNHAPPY HIPPIE             021067    VD84000000003954 N  549976487158                            000000000+                F DF 10433                     000000000  Y000000000 338   0000000000000.00 0000000.00   0000000.00                             000000000000000                                                                                                                                                     01418 A000000000000 0000000000000.24     00050 02200                  
02370770056970019DT67590675900000002881800888800000010180088824001193093900018700097040320230000000581509323000000000196463487917XXXXXX5992       VS11    0001111   NYV1 A E303093619572128N840000000005815DL5800    07DNHAPPY HIPPIE             187558    VD84000000005815 N  549976487158                            000000000+                F DF 00381                     000000000  N000000000       0000000000000.00 0000000.00   0000000.00                             000000000000000                                                                                                                                                     01418 A000000000000 0000000000000.62     00800 01500                  
02370780056970020DT67590675900000002881800888800000010180088824001193093900018700105040320230000000548809323000000000196463445101XXXXXX0281       VS11    0001111   NYV1 A E583093620101722N8400000000054886K6L00    05DNHAPPY HIPPIE             400173    VD84000000005488 N  549976487158                            000000000+                F DF 10433                     000000000  Y000000000 338   0000000000000.00 0000000.00   0000000.00                             000000000000000                                                                                                                                                     01418 A000000000000 0000000000000.25     00050 02200                  
02370790056970021DT67590675900000002881800888800000010180088824001193093900018700113040320230000000394909323000000000196463449507XXXXXX3418       VS11    0001111   NYV1 A E583093621510046N8400000000039496Z5V00    07DNHAPPY HIPPIE             031551    VD84000000003949 N  549976487158                            000000000+                F DF 00381                     000000000  N000000000       0000000000000.00 0000000.00   0000000.00                             000000000000000                                                                                                                                                     01418 A000000000000 0000000000000.47     00800 01500                  
02370800056970022DT67590675900000002881800888800000010180088824001193093900018700121040320230000003292509323000000000196463464018XXXXXX0001       VS11    0001111   NYV1 A E463093678080409N84000000003292537DZ00    05DNHAPPY HIPPIE             00265D    VS84000000032925 N  549976487158                            000000000+                D CD 12113                     000000000  N000000000 499   0000000000000.00 0000000.00   0000000.00                             000000000000000                                                                                                                                                     01418 A000000000000 0000000000007.01     02100 01000                  
02370810056970023DT67590675900000002881800888800000010180088824001193093900018700139040320230000000691309323000000000196463480639XXXXXX9981       VS11    0001111   NYV1 A E583093686130508N840000000006913TH8M00    05DNHAPPY HIPPIE             319856    VD84000000006913 N  549976487158                            000000000+                F DF 00381                     000000000  N000000000       0000000000000.00 0000000.00   0000000.00                             000000000000000                                                                                                                                                     01418 A000000000000 0000000000000.70     00800 01500                  
02370820056970024DT67590675900000002881800888800000010180088824001193093900018700147040320230000000548809323000000000196463413022XXXXXX5316       VS11    0001111   NYV1 A E303093688463444N840000000005488627J00    07DNHAPPY HIPPIE             832088    VD84000000005488 N  549976487158                            000000000+                F DF 00381                     000000000  N000000000       0000000000000.00 0000000.00   0000000.00                             000000000000000                                                                                                                                                     01418 A000000000000 0000000000000.59     00800 01500                  
02370830056970025DT67590675900000002881800888800000010180088824001193093900018700154040320230000001185109323000000000196463449507XXXXXX6597       VS11    0001111   NYV1 A E583093714665002N840000000011851NH3H00    05DNHAPPY HIPPIE             055106    VD84000000011851 N  549976487158                            000000000+                F DF 00381                     000000000  N000000000       0000000000000.00 0000000.00   0000000.00                             000000000000000                                                                                                                                                     01418 A000000000000 0000000000001.10     00800 01500                  
02370840056970026DT67590675900000002881800888800000010180088824001193093900018700162040320230000000325809323000000000196463475644XXXXXX6150       VS11    0001111   NYV1 A E303093727122508N840000000003258GSBR00    05DNHAPPY HIPPIE             931118    VD84000000003258 N  549976487158                            000000000+                F DF 00381                     000000000  N000000000       0000000000000.00 0000000.00   0000000.00                             000000000000000                                                                                                                                                     01418 A000000000000 0000000000000.41     00800 01500                  
02370850056970027DT67590675900000002881800888800000010180088877287283093900018700172040320230000000274309323000000000196463517805XXXXXX0973       MS02WI09          NY 1 0 AMPLXKQO7P0403  N840000000002743          05DNHAPPY HIPPIE             04442B    MC84000000002743 N  549976487158                            000000000+M10101C5434C    MPL  00364                     000000000  N                0000000000000.00 0000000.00   0000000.00                             000000000000000                                                                                                                                                   B101418  000000000000 0000000000000.53     01800 00400                  
02370860056970028DT67590675900000002881800888800000010180088824001193093900018700188040320230000000424609323000000000196463404227XXXXXX4399       VS11    0001111   NYV1 A E383093736719246N84000000000424635JN00    05DNHAPPY HIPPIE             982487    VD84000000004246 N  549976487158                            000000000+                F DF 00381                     000000000  N000000000       0000000000000.00 0000000.00   0000000.00                             000000000000000                                                                                                                                                     01418 A000000000000 0000000000000.49     00800 01500                  
02370870056970029DT67590675900000002881800888800000010180088824001193093900018700196040320230000000395009323000000000196463419090XXXXXX7968       VS11    0001111   NYV1 A E303093743138323N840000000003950Q2V600    05DNHAPPY HIPPIE             960856    VD84000000003950 N  549976487158                            000000000+                F DF 00381                     000000000  N000000000       0000000000000.00 0000000.00   0000000.00                             000000000000000                                                                                                                                                     01418 A000000000000 0000000000000.47     00800 01500                  
02370880056970030DT67590675900000002881800888800000010180088824001193093900018700204040320230000000325809323000000000196463464018XXXXXX5781       VS11    0001111   NYV1 A E383093745413580N840000000003258M7KC00    05DNHAPPY HIPPIE             06646D    VS84000000003258 N  549976487158                            000000000+                D CD 12113                     000000000  N000000000 499   0000000000000.00 0000000.00   0000000.00                             000000000000000                                                                                                                                                     01418 A000000000000 0000000000000.78     02100 01000                  
02370890056970031DT67590675900000002881800888800000010180088824001193093900018700212040320230000000923109323000000000196463479213XXXXXX8709       VS11    0001111   NYV1 A E583093758670674N840000000009231CP3900    05DNHAPPY HIPPIE             060427    VD84000000009231 N  549976487158                            000000000+                F DF 10433                     000000000  Y000000000 338   0000000000000.00 0000000.00   0000000.00                             000000000000000                                                                                                                                                     01418 A000000000000 0000000000000.27     00050 02200                  
02370900056970032DT67590675900000002881800888800000010180088824001193093900018700220040320230000001119509323000000000196463443041XXXXXX1492       VS11    0001111   NYV1 A E463093759672115N8400000000111952BZ400    05DNHAPPY HIPPIE             270929    VD84000000011195 N  549976487158                            000000000+                F DF 10433                     000000000  Y000000000 338   0000000000000.00 0000000.00   0000000.00                             000000000000000                                                                                                                                                     01418 A000000000000 0000000000000.28     00050 02200                  
02370910056970033DT67590675900000002881800888800000010180088824001193093900018700238040320230000000208409323000000000196463443041XXXXXX0038       VS11    0001111   NYV1 A E463093760211583N840000000002084PJTL00    07DNHAPPY HIPPIE             788565    VD84000000002084 N  549976487158                            000000000+                F DF 10433                     000000000  Y000000000 338   0000000000000.00 0000000.00   0000000.00                             000000000000000                                                                                                                                                     01418 A000000000000 0000000000000.23     00050 02200                  
02370920056970034DT67590675900000002881800888800000010180088877287283093900018700248040320230000000987509323000000000196463511953XXXXXX2421       MS02WI09          NY 1 0 AMDJQLNRBI0403  N840000000009875          07DNHAPPY HIPPIE             088976    MD84000000009875 N  549976487158                            000000000+M10101M5434C    MDJ  00402                     000000000  N                0000000000000.00 0000000.00   0000000.00                             000000000000000                                                                                                                                                   B101418  000000000000 0000000000001.19     01050 01500                  
02370930056970035DT67590675900000002881800888800000010180088877287283093900018700255040320230000001343209323000000000196463511953XXXXXX2846       MS02WI09          NY 1 0 AMDJXOTE8U0403  N840000000013432          05DNHAPPY HIPPIE             001970    MD84000000013432 N  549976487158                            000000000+M10101C5434C    MDJ  00402                     000000000  N                0000000000000.00 0000000.00   0000000.00                             000000000000000                                                                                                                                                   B101418  000000000000 0000000000001.56     01050 01500                  
02370940056970036DT67590675900000002881800888800000010180088824001193093900018700261040320230000000548809323000000000196463449507XXXXXX0245       VS11    0001111   NYV1 A E383093772934209N840000000005488MGDW00    05DNHAPPY HIPPIE             072813    VD84000000005488 N  549976487158                            000000000+                F DF 00381                     000000000  N000000000       0000000000000.00 0000000.00   0000000.00                             000000000000000                                                                                                                                                     01418 A000000000000 0000000000000.59     00800 01500                  
02370950056970037BH6759067590000000215480088880000090170403202309323000000000938987    0000090001512495N8008886759C04042023                                                                                                                                                                                                                                                                                                                                                                                                                                                                                                                                                                                                 
02370960056970038DT67590675900000002154800888800000010180088887287283093900015158019040320230000003960009323000000000938987547415XXXXXX6095                         NY 4607AMEBLUGWBI0403  N840000000039600          81DNDRIP DROP DISTRO LLC     08779Q    MB84000000039600 NP1519900000001   17637                    000000000+600450S00140    MEB  11637                     000000000  N                0000000000000.00 0000000.00   0000000.00                             000000000000000                                                                                                                                                   U001418  000000000000 0000000000011.98     03000 01000                  
02370970056970001P1675906759000000021548008888000000101                                                          000000000000          8000            471534935                                                                                                                                                                                                                                                                                                                                                                                                                                                                                                                                                            
02370980056970039DT67590675900000002154800888800000010180088887287283093900015149539040320230000013906709323000000000938987515119XXXXXX8145                         NY 4607AMDBV5K38Y0403  N840000000139067          81DNDRIP DROP DISTRO LLC     926460    MD84000000139067 NP1519900000001   INV-001474               000000000+600450S00140    MDB  00062                     000000000  N                0000000000000.00 0000000.00   0000000.00                             000000000000000                                                                                                                                                   U001418  000000000000 0000000000036.95     02650 01000                  
02370990056970001P1675906759000000021548008888000000101                                                          000000000000          8000            471534935                                                                                                                                                                                                                                                                                                                                                                                                                                                                                                                                                            
02371000056970040DT67590675900000002154800888800000010180088887287283093900015164173040320230000065232009323000000000938987542418XXXXXX9220       ME03KE06MS02      NY 4607AMWEV5J7WR0403  N840000000652320          81DNDRIP DROP DISTRO LLC     28578P    MC84000000652320 N  519900000001   INV-001469               000000000+600450S00140    MWE  00737                     000000000  N                0000000000000.00 0000000.00   0000000.00                             000000000000000                                                                                                                                                   U001418  000000000000 0000000000169.70     02600 01000                  
02371010056970041DT67590675900000002154800888800000010180088873011003093900015124958040320230000010800009323000000000938987372718XXXXX1049                          NY 4 07N006942459111073N840000000108000          01DNDRIP DROP DISTRO LLC     247582    AM84000000108000 N  519971004114                            000000000+6004S0S00140 258     11244                     000000000                   0000000000000.00 0000000.00   0000000.00                             000000000000000 61248972736759675900000002154 DRIP DROP DISTRO LLC     1445 W COMMERCE AVE SUITE2087248209      83705     TROY@DRIPDROPDISTRO.COM                   01418  000000000000 0000000000020.62     01900 00000                  
02371020056970042BH6759067590000000659380010180000090170403202309323000000000174386    0000090001180036N8001016759C04042023                                                                                                                                                                                                                                                                                                                                                                                                                                                                                                                                                                                                 
02371030056970043DT67590675900000006593800101800000010180010124001193093900011800019040320230000000205109323000000000174386441707XXXXXX6767       VS11    0001111   NYV1 A E303093541069001N840000000002051NQFQ00    07DNPLANET VAPOR INC #100    358696    VD84000000002051 N  599977384444                            000000000+                F PF 08170                     000000000  N000000000       0000000000000.00 0000000.00   0000000.00                             000000000000000                                                                                                                                                     01418 A000000000000 0000000000000.39     01150 01500                  
02371040056970044DT67590675900000006593800101800000010180010177287283093900011800029040320230000000216109323000000000174386525363XXXXXX6504       MS02WI09          NY 1 0 AMWERB41WR0403  N840000000002161          05DNPLANET VAPOR INC #100    53129Z    MC84000000002161 N  599977384444                            000000000+M10101C0034C    MWE  00739                     000000000  N                0000000000000.00 0000000.00   0000000.00                             000000000000000                                                                                                                                                   B101418  000000000000 0000000000000.60     02300 01000                  
02371050056970045DT67590675900000006593800101800000010180010124001193093900011800035040320230000001619809323000000000174386453506XXXXXX0528       VS11    0001111   NYV1 A E383093599384785N840000000016198PHJ500    05DNPLANET VAPOR INC #100    H30116    VD84000000016198 N  599977384444                            000000000+                F DF 10433                     000000000  Y000000000 338   0000000000000.00 0000000.00   0000000.00                             000000000000000                                                                                                                                                     01418 A000000000000 0000000000000.30     00050 02200                  
02371060056970046DT67590675900000006593800101800000010180010177287283093900011800045040320230000000507409323000000000174386531258XXXXXX1955       MS02WI09          NY 1 0 AMDJT5J7WR0403  N840000000005074          05DNPLANET VAPOR INC #100    104624    MD84000000005074 N  599977384444                            000000000+M10101C5434C    MDJ  10815                     000000000  1                0000000000000.00 0000000.00   0000000.00                             000000000000000                                                                                                                                                   B101418  000000000000 0000000000000.25     00050 02200                  
02371070056970047DT67590675900000006593800101800000010180010177287283093900011800052040320230000002623409323000000000174386531258XXXXXX8240       MS02WI09          NY 1 0 AMDJSH341D0403  N840000000026234          05DNPLANET VAPOR INC #100    125725    MD84000000026234 N  599977384444                            000000000+M10101C5434C    MDJ  10815                     000000000  1                0000000000000.00 0000000.00   0000000.00                             000000000000000                                                                                                                                                   B101418  000000000000 0000000000000.35     00050 02200                  
02371080056970048DT67590675900000006593800101800000010180010124001193093900011800068040320230000000188909323000000000174386457431XXXXXX1941       VS11    0001111   NYV1 A E463093609774957N840000000001889KS8700    05DNPLANET VAPOR INC #100    H17559    VD84000000001889 N  599977384444                            000000000+                F DF 10433                     000000000  Y000000000 338   0000000000000.00 0000000.00   0000000.00                             000000000000000                                                                                                                                                     01418 A000000000000 0000000000000.23     00050 02200                  
02371090056970049DT67590675900000006593800101800000010180010124001193093900011800076040320230000000269909323000000000174386430602XXXXXX1367       VS11    0001111   NYV1 A E303093611884048N840000000002699VRCP00    05DNPLANET VAPOR INC #100    491984    VD84000000002699 N  599977384444                            000000000+                F DF 00381                     000000000  N000000000       0000000000000.00 0000000.00   0000000.00                             000000000000000                                                                                                                                                     01418 A000000000000 0000000000000.37     00800 01500                  
02371100056970050DT67590675900000006593800101800000010180010177287283093900011800086040320230000000151109323000000000174386534774XXXXXX5730                         NY 1 0 AMDBIC2S6W0403  N840000000001511          05DNPLANET VAPOR INC #100    069179    MD84000000001511 NP1599977384444                            000000000+M10101C5434C    MDB  00062                     000000000  N                0000000000000.00 0000000.00   0000000.00                             000000000000000                                                                                                                                                   B101418  000000000000 0000000000000.50     02650 01000                  
02371110056970001P1675906759000000065938001018000000101                                                          000000000000          1000            472803059                                                                                                                                                                                                                                                                                                                                                                                                                                                                                                                                                            
02371120056970051DT67590675900000006593800101800000010180010124001193093900011800092040320230000000248309323000000000174386473703XXXXXX9165       VS11    0001111   NYV1 A E383093619561627N840000000002483G3NR00    05DNPLANET VAPOR INC #100    051568    VD84000000002483 N  599977384444                            000000000+                F DF 10433                     000000000  Y000000000 338   0000000000000.00 0000000.00   0000000.00                             000000000000000                                                                                                                                                     01418 A000000000000 0000000000000.23     00050 02200                  
02371130056970052DT67590675900000006593800101800000010180010124001193093900011800100040320230000000075509323000000000174386461675XXXXXX1868       VK04VS111111111   NYV1 A E383093625973268N840000000000755WQR200    05DNPLANET VAPOR INC #100    923150    VD84000000000755 N  599977384444                            000000000+                F DF 00451                     000000000  N000000000 214   0000000000000.00 0000000.00   0000000.00                             000000000000000                                                                                                                                                     01418 F000000000000 0000000000000.16     01550 00400                  
02371140056970053DT67590675900000006593800101800000010180010124001193093900011800118040320230000000777209323000000000174386433477XXXXXX0774       VS11    0001111   NYV1 A E303093638610752N8400000000077725PH600    05DNPLANET VAPOR INC #100    067822    VD84000000007772 N  599977384444                            000000000+                F DF 10433                     000000000  Y000000000 338   0000000000000.00 0000000.00   0000000.00                             000000000000000                                                                                                                                                     01418 A000000000000 0000000000000.26     00050 02200                  
02371150056970054DT67590675900000006593800101800000010180010124001193093900011800126040320230000000936609323000000000174386473703XXXXXX7716       VS11    0001111   NYV1 A E583093660574567N840000000009366J7GW00    05DNPLANET VAPOR INC #100    085136    VD84000000009366 N  599977384444                            000000000+                F DF 10433                     000000000  Y000000000 338   0000000000000.00 0000000.00   0000000.00                             000000000000000                                                                                                                                                     01418 A000000000000 0000000000000.27     00050 02200                  
02371160056970055DT67590675900000006593800101800000010180010124001193093900011800134040320230000000180709323000000000174386473703XXXXXX4741       VS11    0001111   NYV1 A E383093667380309N840000000001807X8KX00    05DNPLANET VAPOR INC #100    045883    VD84000000001807 N  599977384444                            000000000+                F DF 10433                     000000000  Y000000000 338   0000000000000.00 0000000.00   0000000.00                             000000000000000                                                                                                                                                     01418 A000000000000 0000000000000.23     00050 02200                  
02371170056970056DT67590675900000006593800101800000010180010124001193093900011800142040320230000000523509323000000000174386444607XXXXXX5803       VS11    0001111   NYV1 A E383093676309023N840000000005235939M00    05DNPLANET VAPOR INC #100    MA1Y9W    VD84000000005235 N  599977384444                            000000000+                G PG 10178                     000000000  N000000000 363   0000000000000.00 0000000.00   0000000.00                             000000000000000                                                                                                                                                     01418 A000000000000 0000000000001.23     02150 01000                  
02371180056970057DT67590675900000006593800101800000010180010124001193093900011800159040320230000000275109323000000000174386443047XXXXXX1089       VS11    0001111   NYV1 A E583093680466590N840000000002751B5J900    05DNPLANET VAPOR INC #100    814472    VD84000000002751 N  599977384444                            000000000+                F DF 10433                     000000000  Y000000000 338   0000000000000.00 0000000.00   0000000.00                             000000000000000                                                                                                                                                     01418 A000000000000 0000000000000.23     00050 02200                  
02371190056970058DT67590675900000006593800101800000010180010124001193093900011800167040320230000000485909323000000000174386473703XXXXXX2433       VS11    0001111   NYV1 A E463093686120355N8400000000048594HXB00    05DNPLANET VAPOR INC #100    042672    VD84000000004859 N  599977384444                            000000000+                F DF 10433                     000000000  Y000000000 338   0000000000000.00 0000000.00   0000000.00                             000000000000000                                                                                                                                                     01418 A000000000000 0000000000000.24     00050 02200                  
02371200056970059DT67590675900000006593800101800000010180010177287283093900011800177040320230000000936409323000000000174386553818XXXXXX7210       MS02WI09          NY 1 0 AMDSRRM48Y0403  N840000000009364          05DNPLANET VAPOR INC #100    151509    MD84000000009364 N  599977384444                            000000000+M10101C5434C    MDS  00402                     000000000  N                0000000000000.00 0000000.00   0000000.00                             000000000000000                                                                                                                                                   B101418  000000000000 0000000000001.13     01050 01500                  
02371210056970060DT67590675900000006593800101800000010180010124001193093900011800183040320230000000388609323000000000174386440393XXXXXX1999       VS11    0001111   NYV1 A E463093704664121N840000000003886N8TZ00    05DNPLANET VAPOR INC #100    788136    VD84000000003886 N  599977384444                            000000000+                F PF 08170                     000000000  N000000000       0000000000000.00 0000000.00   0000000.00                             000000000000000                                                                                                                                                     01418 A000000000000 0000000000000.60     01150 01500                  
02371220056970061DT67590675900000006593800101800000010180010124001193093900011800191040320230000000213709323000000000174386453506XXXXXX0013       VS11    0001111   NYV1 A E463093716531874N840000000002137F5Q900    05DNPLANET VAPOR INC #100    H47593    VD84000000002137 N  599977384444                            000000000+                F DF 10433                     000000000  Y000000000 338   0000000000000.00 0000000.00   0000000.00                             000000000000000                                                                                                                                                     01418 A000000000000 0000000000000.23     00050 02200                  
02371230056970062DT67590675900000006593800101800000010180010177287283093900011800201040320230000001446409323000000000174386515599XXXXXX9829       MS02WI09          NY 1 0 AMWEW2XS7P0403  N840000000014464          05DNPLANET VAPOR INC #100    01079P    MC84000000014464 N  599977384444                            000000000+M10101C5434C    MWE  00739                     000000000  N                0000000000000.00 0000000.00   0000000.00                             000000000000000                                                                                                                                                   B101418  000000000000 0000000000003.43     02300 01000                  
02371240056970063DT67590675900000006593800101800000010180010124001193093900011800217040320230000000287909323000000000174386429977XXXXXX9997       VS11    0001111   NYV1 A E383093730711230N840000000002879KQDT00    05DNPLANET VAPOR INC #100    831331    VD84000000002879 N  599977384444                            000000000+                G DG 10351                     000000000  Y000000000 338   0000000000000.00 0000000.00   0000000.00                             000000000000000                                                                                                                                                     01418 A000000000000 0000000000000.23     00050 02200                  
02371250056970064DT67590675900000006593800101800000010180010124001193093900011800225040320230000000237509323000000000174386400022XXXXXX8708       VS11    0001111   NYV1 A E383093736803273N840000000002375TX3Q00    05DNPLANET VAPOR INC #100    631762    VD84000000002375 N  599977384444                            000000000+                F DF 10433                     000000000  Y000000000 338   0000000000000.00 0000000.00   0000000.00                             000000000000000                                                                                                                                                     01418 A000000000000 0000000000000.23     00050 02200                  
02371260056970065DT67590675900000006593800101800000010180010124001193093900011800233040320230000000269909323000000000174386440393XXXXXX0626       VS11    0001111   NYV1 A E383093745174377N840000000002699BX4K00    05DNPLANET VAPOR INC #100    601191    VD84000000002699 N  599977384444                            000000000+                F PF 08170                     000000000  N000000000       0000000000000.00 0000000.00   0000000.00                             000000000000000                                                                                                                                                     01418 A000000000000 0000000000000.46     01150 01500                  
02371270056970066DT67590675900000006593800101800000010180010124001193093900011800241040320230000000053909323000000000174386440393XXXXXX9732       VK04VS111111111   NYV1 A E383093750067513N840000000000539D4CK00    05DNPLANET VAPOR INC #100    450861    VD84000000000539 N  599977384444                            000000000+                F PF 08165                     000000000  N000000000       0000000000000.00 0000000.00   0000000.00                             000000000000000                                                                                                                                                     01418 F000000000000 0000000000000.14     01600 00500                  
02371280056970067DT67590675900000006593800101800000010180010124001193093900011800258040320230000000561409323000000000174386466189XXXXXX8354       VS11    0001111   NYV1 A E383093754380614N840000000005614NQQ500    05DNPLANET VAPOR INC #100    069525    VD84000000005614 N  599977384444                            000000000+                F DF 10433                     000000000  Y000000000 338   0000000000000.00 0000000.00   0000000.00                             000000000000000                                                                                                                                                     01418 A000000000000 0000000000000.25     00050 02200                  
02371290056970068DT67590675900000006593800101800000010180010124001193093900011800266040320230000000427509323000000000174386453506XXXXXX2214       VS11    0001111   NYV1 A E303093756371205N840000000004275VJQL00    05DNPLANET VAPOR INC #100    H64366    VD84000000004275 N  599977384444                            000000000+                F DF 10433                     000000000  Y000000000 338   0000000000000.00 0000000.00   0000000.00                             000000000000000                                                                                                                                                     01418 A000000000000 0000000000000.24     00050 02200                  
02371300056970069DT67590675900000006593800101800000010180010177287283093900011800276040320230000000323809323000000000174386531258XXXXXX2391       MS02WI09          NY 1 0 AMDJQDJ7BI0403  N840000000003238          05DNPLANET VAPOR INC #100    110530    MD84000000003238 N  599977384444                            000000000+M10101C5434C    MDJ  10815                     000000000  1                0000000000000.00 0000000.00   0000000.00                             000000000000000                                                                                                                                                   B101418  000000000000 0000000000000.24     00050 02200                  
02371310056970070DT67590675900000006593800101800000010180010177287283093900011800284040320230000000237509323000000000174386545443XXXXXX9559       MS02WI09          NY 1 0 AMDJP1826W0403  N840000000002375          05DNPLANET VAPOR INC #100    053674    MD84000000002375 N  599977384444                            000000000+M10101C5434C    MDJ  00402                     000000000  N                0000000000000.00 0000000.00   0000000.00                             000000000000000                                                                                                                                                   B101418  000000000000 0000000000000.40     01050 01500                  
02371320056970071DT67590675900000006593800101800000010180010124001193093900011800290040320230000000118709323000000000174386421783XXXXXX6925       VK04VS111111111   NYV1 A E303093789694184N840000000001187HWHL00    05DNPLANET VAPOR INC #100    098458    VS84000000001187 N  599977384444                            000000000+                A CA 12110                     000000000  N000000000 493   0000000000000.00 0000000.00   0000000.00                             000000000000000                                                                                                                                                     01418 F000000000000 0000000000000.28     01510 01000                  
02371330056970072DT67590675900000006593800101800000010180010124001193093900011800308040320230000000252609323000000000174386430602XXXXXX0326       VS11    0001111   NYV1 A E383093792698046N840000000002526HHSX00    05DNPLANET VAPOR INC #100    541253    VD84000000002526 N  599977384444                            000000000+                F DF 00381                     000000000  N000000000       0000000000000.00 0000000.00   0000000.00                             000000000000000                                                                                                                                                     01418 A000000000000 0000000000000.35     00800 01500                  
02371340056970073DT67590675900000006593800101800000010180010124001193093900011800316040320230000000215909323000000000174386433477XXXXXX0588       VS11    0001111   NYV1 A E583093798349466N840000000002159M7CJ00    05DNPLANET VAPOR INC #100    266074    VD84000000002159 N  599977384444                            000000000+                F DF 10433                     000000000  Y000000000 338   0000000000000.00 0000000.00   0000000.00                             000000000000000                                                                                                                                                     01418 A000000000000 0000000000000.23     00050 02200                  
02371350056970074DT67590675900000006593800101800000010180010124001193093900011800324040320230000000744809323000000000174386433477XXXXXX0503       VS11    0001111   NYV1 A E383093816431383N8400000000074487DNW00    05DNPLANET VAPOR INC #100    292846    VD84000000007448 N  599977384444                            000000000+                F DF 10433                     000000000  Y000000000 338   0000000000000.00 0000000.00   0000000.00                             000000000000000                                                                                                                                                     01418 A000000000000 0000000000000.26     00050 02200                  
02371360056970075DT67590675900000006593800101800000010180010124001193093900011800332040320230000000431609323000000000174386400022XXXXXX6263       VS11    0001111   NYV1 A E303093822466112N8400000000043168JLW00    05DNPLANET VAPOR INC #100    100608    VD84000000004316 N  599977384444                            000000000+                F DF 10433                     000000000  Y000000000 338   0000000000000.00 0000000.00   0000000.00                             000000000000000                                                                                                                                                     01418 A000000000000 0000000000000.24     00050 02200                  
02371370056970076DT67590675900000006593800101800000010180010124001193093900011800340040320230000000466309323000000000174386423223XXXXXX2831       VS11    0001111   NYV1 A E383093823610493N840000000004663RCHH00    05DNPLANET VAPOR INC #100    040465    VD84000000004663 N  599977384444                            000000000+                F DF 00381                     000000000  N000000000       0000000000000.00 0000000.00   0000000.00                             000000000000000                                                                                                                                                     01418 A000000000000 0000000000000.52     00800 01500                  
02371380056970077DT67590675900000006593800101800000010180010124001193093900011800357040320230000000215909323000000000174386430602XXXXXX6562       VS11    0001111   NYV1 A E303093824652145N840000000002159M82H00    05DNPLANET VAPOR INC #100    549383    VD84000000002159 N  599977384444                            000000000+                F DF 00381                     000000000  N000000000       0000000000000.00 0000000.00   0000000.00                             000000000000000                                                                                                                                                     01418 A000000000000 0000000000000.32     00800 01500                  
02371390056970078DT67590675900000006593800101800000010180010124001193093900011800365040320230000000323809323000000000174386429977XXXXXX7165       VS11    0001111   NYV1 A E583093857285082N8400000000032387QSN00    05DNPLANET VAPOR INC #100    500135    VD84000000003238 N  599977384444                            000000000+                G DG 10351                     000000000  Y000000000 338   0000000000000.00 0000000.00   0000000.00                             000000000000000                                                                                                                                                     01418 A000000000000 0000000000000.24     00050 02200                  
02371400056970079BH6759067590000000766680010180000090170403202309323000000000079901    0000090001170020N8001016759C04042023                                                                                                                                                                                                                                                                                                                                                                                                                                                                                                                                                                                                 
02371410056970080DT67590675900000007666800101800000010180010124001193093900011700011040320230000000215909323000000000079901414709XXXXXX7848       VS11    0001111   NYV1 A E463093519135387N840000000002159BWWW00    07DNPLANET VAPOR INC #300    05423C    VS84000000002159 N  599977384654                            000000000+                C CC 12112                     000000000  N000000000 497   0000000000000.00 0000000.00   0000000.00                             000000000000000                                                                                                                                                     01418 A000000000000 0000000000000.46     01650 01000                  
02371420056970081DT67590675900000007666800101800000010180010124001193093900011700029040320230000000237509323000000000079901433477XXXXXX0786       VS11    0001111   NYV1 A E383093540118713N840000000002375QCV200    05DNPLANET VAPOR INC #300    786619    VD84000000002375 N  599977384654                            000000000+                F DF 10433                     000000000  Y000000000 338   0000000000000.00 0000000.00   0000000.00                             000000000000000                                                                                                                                                     01418 A000000000000 0000000000000.23     00050 02200                  
02371430056970082DT67590675900000007666800101800000010180010124001193093900011700037040320230000000252609323000000000079901458643XXXXXX7719       VS11    0001111   NYV1 A E383093543509542N840000000002526PMCB00    05DNPLANET VAPOR INC #300    H03161    VD84000000002526 N  599977384654                            000000000+                F DF 10433                     000000000  Y000000000 338   0000000000000.00 0000000.00   0000000.00                             000000000000000                                                                                                                                                     01418 A000000000000 0000000000000.23     00050 02200                  
02371440056970083DT67590675900000007666800101800000010180010124001193093900011700045040320230000000216009323000000000079901440393XXXXXX1795       VS11    0001111   NYV1 A E463093552756811N8400000000021604GCV00    07DNPLANET VAPOR INC #300    293465    VD84000000002160 N  599977384654                            000000000+                F PF 08170                     000000000  N000000000       0000000000000.00 0000000.00   0000000.00                             000000000000000                                                                                                                                                     01418 A000000000000 0000000000000.40     01150 01500                  
02371450056970084DT67590675900000007666800101800000010180010124001193093900011700052040320230000000213709323000000000079901400022XXXXXX6771       VS11    0001111   NYV1 A E583093568493632N840000000002137J45L00    05DNPLANET VAPOR INC #300    068042    VD84000000002137 N  599977384654                            000000000+                F DF 10433                     000000000  Y000000000 338   0000000000000.00 0000000.00   0000000.00                             000000000000000                                                                                                                                                     01418 A000000000000 0000000000000.23     00050 02200                  
02371460056970085DT67590675900000007666800101800000010180010124001193093900011700060040320230000000237509323000000000079901414720XXXXXX4026       VS11    0001111   NYV1 A E383093586833254N840000000002375T3BQ00    05DNPLANET VAPOR INC #300    04100C    VS84000000002375 N  599977384654                            000000000+                C CC 12112                     000000000  N000000000 497   0000000000000.00 0000000.00   0000000.00                             000000000000000                                                                                                                                                     01418 A000000000000 0000000000000.49     01650 01000                  
02371470056970086DT67590675900000007666800101800000010180010124001193093900011700078040320230000000280709323000000000079901433477XXXXXX2250       VS11    0001111   NYV1 A E463093623561436N84000000000280733T500    05DNPLANET VAPOR INC #300    040797    VD84000000002807 N  599977384654                            000000000+                F DF 10433                     000000000  Y000000000 338   0000000000000.00 0000000.00   0000000.00                             000000000000000                                                                                                                                                     01418 A000000000000 0000000000000.23     00050 02200                  
02371480056970087DT67590675900000007666800101800000010180010124001193093900011700086040320230000000323809323000000000079901473703XXXXXX2340       VS11    0001111   NYV1 A E463093636097088N840000000003238B4ZJ00    05DNPLANET VAPOR INC #300    024670    VD84000000003238 N  599977384654                            000000000+                F DF 10433                     000000000  Y000000000 338   0000000000000.00 0000000.00   0000000.00                             000000000000000                                                                                                                                                     01418 A000000000000 0000000000000.24     00050 02200                  
02371490056970088DT67590675900000007666800101800000010180010124001193093900011700094040320230000000431809323000000000079901474475XXXXXX5802       VS11    0001111   NYV1 A E463093639482629N840000000004318TXDB00    05DNPLANET VAPOR INC #300    134654    VD84000000004318 N  599977384654                            000000000+                F DF 10433                     000000000  Y000000000 338   0000000000000.00 0000000.00   0000000.00                             000000000000000                                                                                                                                                     01418 A000000000000 0000000000000.24     00050 02200                  
02371500056970089DT67590675900000007666800101800000010180010124001193093900011700102040320230000000194309323000000000079901448233XXXXXX3495       VS11    0001111   NYV1 A E583093651525295N840000000001943K9G200    05DNPLANET VAPOR INC #300    030552    VD84000000001943 N  599977384654                            000000000+                F DF 10433                     000000000  Y000000000 338   0000000000000.00 0000000.00   0000000.00                             000000000000000                                                                                                                                                     01418 A000000000000 0000000000000.23     00050 02200                  
02371510056970090DT67590675900000007666800101800000010180010124001193093900011700110040320230000000097109323000000000079901413037XXXXXX9318       VK04VS111111111   NYV1 A E583093683374711N840000000000971JF6800    05DNPLANET VAPOR INC #300    017883    VD84000000000971 N  599977384654                            000000000+                F DF 10439                     000000000  Y000000000 331   0000000000000.00 0000000.00   0000000.00                             000000000000000                                                                                                                                                     01418 F000000000000 0000000000000.22     00050 02200                  
02371520056970091DT67590675900000007666800101800000010180010124001193093900011700128040320230000000291409323000000000079901430602XXXXXX6376       VS11    0001111   NYV1 A E463093687860845N840000000002914XCZK00    05DNPLANET VAPOR INC #300    513505    VD84000000002914 N  599977384654                            000000000+                F DF 00381                     000000000  N000000000       0000000000000.00 0000000.00   0000000.00                             000000000000000                                                                                                                                                     01418 A000000000000 0000000000000.38     00800 01500                  
02371530056970092DT67590675900000007666800101800000010180010124001193093900011700136040320230000000219909323000000000079901498503XXXXXX5235       VS11    0001111   NYV1 A E383093708692395N8400000000021999PWQ00    05DNPLANET VAPOR INC #300    095793    VD84000000002199 N  599977384654                            000000000+                F DF 00381                     000000000  N000000000       0000000000000.00 0000000.00   0000000.00                             000000000000000                                                                                                                                                     01418 A000000000000 0000000000000.33     00800 01500                  
02371540056970093DT67590675900000007666800101800000010180010124001193093900011700144040320230000000648209323000000000079901433477XXXXXX5156       VS11    0001111   NYV1 A E583093710699433N840000000006482DFKX00    05DNPLANET VAPOR INC #300    115153    VD84000000006482 N  599977384654                            000000000+                F DF 10433                     000000000  Y000000000 338   0000000000000.00 0000000.00   0000000.00                             000000000000000                                                                                                                                                     01418 A000000000000 0000000000000.25     00050 02200                  
02371550056970094DT67590675900000007666800101800000010180010177287283093900011700153040320230000000539809323000000000079901534858XXXXXX9872                         NY 1 0 AMDBVY3S8U0403  N840000000005398          05DNPLANET VAPOR INC #300    131837    MD84000000005398 NP1599977384654                            000000000+M10101C5434C    MDB  10786                     000000000  1                0000000000000.00 0000000.00   0000000.00                             000000000000000                                                                                                                                                   B101418  000000000000 0000000000000.25     00050 02200                  
02371560056970001P1675906759000000076668001018000000101                                                          000000000000          1000            472803059                                                                                                                                                                                                                                                                                                                                                                                                                                                                                                                                                            
02371570056970095DT67590675900000007666800101800000010180010176509753093900011700167040320230000000458909323000000000079901601101XXXXXX3447   BA50                  NY41 0 N873080094359919N840000000004589    00    05DNPLANET VAPOR INC #300    00385B    DZ84000000004589 N  599977384654050                         000000000+0000004910H00   DMCDI01012831334  165035000000 000000000  0          124   0000000000000.00 0000000.00   0000000.00                             000000000000000                                                                                                                                                     01418  000000000000 0000000000001.27     02450 01500                  
02371580056970096DT67590675900000007666800101800000010180010177287283093900011700179040320230000000377909323000000000079901523081XXXXXX9560       MS02WI09          NY 1 0 AMPL3ZFU880403  N840000000003779          05DNPLANET VAPOR INC #300    04491Z    MC84000000003779 N  599977384654                            000000000+M10101C5434C    MPL  00015                     000000000  N                0000000000000.00 0000000.00   0000000.00                             000000000000000                                                                                                                                                   B101418  000000000000 0000000000000.72     01650 01000                  
02371590056970097DT67590675900000007666800101800000010180010124001193093900011700185040320230000002267409323000000000079901473703XXXXXX7180       VS11    0001111   NYV1 A E383093822033616N84000000002267484B700    05DNPLANET VAPOR INC #300    031779    VD84000000022674 N  599977384654                            000000000+                F DF 10433                     000000000  Y000000000 338   0000000000000.00 0000000.00   0000000.00                             000000000000000                                                                                                                                                     01418 A000000000000 0000000000000.33     00050 02200                  
02371600056970098DT67590675900000007666800101800000010180010124001193093900011700193040320230000000388609323000000000079901453506XXXXXX0331       VS11    0001111   NYV1 A E583093846291096N840000000003886FHPW00    07DNPLANET VAPOR INC #300    H86959    VD84000000003886 N  599977384654                            000000000+                F DF 10433                     000000000  Y000000000 338   0000000000000.00 0000000.00   0000000.00                             000000000000000                                                                                                                                                     01418 A000000000000 0000000000000.24     00050 02200                  
02371610056970099DT67590675900000007666800101800000010180010124001193093900011700201040320230000000097109323000000000079901438419XXXXXX3012       VK04VS111111111   NYV1 A E383093852157304N840000000000971XX7S00    05DNPLANET VAPOR INC #300    094015    VD84000000000971 N  599977384654                            000000000+                F DF 00451                     000000000  N000000000 214   0000000000000.00 0000000.00   0000000.00                             000000000000000                                                                                                                                                     01418 F000000000000 0000000000000.19     01550 00400                  
02371620056970100BH6759067590000000708880010180000090170403202309323000000000116569    0000090001190026N8001016759C04042023                                                                                                                                                                                                                                                                                                                                                                                                                                                                                                                                                                                                 
02371630056970101DT67590675900000007088800101800000010180010124001193093900011900017040320230000000194309323000000000116569414709XXXXXX7848       VS11    0001111   NYV1 A E383093506619717N840000000001943RLB400    05DNPLANET VAPOR INC #200    02650C    VS84000000001943 N  599977384620                            000000000+                C CC 12112                     000000000  N000000000 497   0000000000000.00 0000000.00   0000000.00                             000000000000000                                                                                                                                                     01418 A000000000000 0000000000000.42     01650 01000                  
02371640056970102DT67590675900000007088800101800000010180010124001193093900011900025040320230000000115909323000000000116569410702XXXXXX5177       VK04VS111111111   NYV1 A E463093553463354N840000000001159TFGF00    05DNPLANET VAPOR INC #200    105955    VD84000000001159 N  599977384620                            000000000+                F DF 00451                     000000000  N000000000 214   0000000000000.00 0000000.00   0000000.00                             000000000000000                                                                                                                                                     01418 F000000000000 0000000000000.22     01550 00400                  
02371650056970103DT67590675900000007088800101800000010180010124001193093900011900033040320230000000252609323000000000116569486796XXXXXX0007       VS11    0001111   NYV1 A E463093574094328N840000000002526RZJN00    05DNPLANET VAPOR INC #200    005611    VD84000000002526 N  599977384620                            000000000+                F DF 10433                     000000000  Y000000000 338   0000000000000.00 0000000.00   0000000.00                             000000000000000                                                                                                                                                     01418 A000000000000 0000000000000.23     00050 02200                  
02371660056970104DT67590675900000007088800101800000010180010124001193093900011900041040320230000000115909323000000000116569413037XXXXXX6487       VK04VS111111111   NYV1 A E303093575279896N840000000001159GVQK00    05DNPLANET VAPOR INC #200    073494    VD84000000001159 N  599977384620                            000000000+                F DF 10439                     000000000  Y000000000 331   0000000000000.00 0000000.00   0000000.00                             000000000000000                                                                                                                                                     01418 F000000000000 0000000000000.23     00050 02200                  
02371670056970105DT67590675900000007088800101800000010180010124001193093900011900058040320230000000205109323000000000116569473703XXXXXX4205       VS11    0001111   NYV1 A E383093582487097N840000000002051VPWS00    05DNPLANET VAPOR INC #200    094135    VD84000000002051 N  599977384620                            000000000+                F DF 10433                     000000000  Y000000000 338   0000000000000.00 0000000.00   0000000.00                             000000000000000                                                                                                                                                     01418 A000000000000 0000000000000.23     00050 02200                  
02371680056970106DT67590675900000007088800101800000010180010177287283093900011900068040320230000000213709323000000000116569531258XXXXXX5548       MS02WI09          NY 1 0 AMDJDQH40U0403  N840000000002137          05DNPLANET VAPOR INC #200    131353    MD84000000002137 N  599977384620                            000000000+M10101C5434C    MDJ  10815                     000000000  1                0000000000000.00 0000000.00   0000000.00                             000000000000000                                                                                                                                                   B101418  000000000000 0000000000000.23     00050 02200                  
02371690056970107DT67590675900000007088800101800000010180010124001193093900011900074040320230000000237509323000000000116569466189XXXXXX9169       VS11    0001111   NYV1 A E383093586137555N840000000002375C7K300    05DNPLANET VAPOR INC #200    005704    VD84000000002375 N  599977384620                            000000000+                F DF 10433                     000000000  Y000000000 338   0000000000000.00 0000000.00   0000000.00                             000000000000000                                                                                                                                                     01418 A000000000000 0000000000000.23     00050 02200                  
02371700056970108DT67590675900000007088800101800000010180010124001193093900011900082040320230000000323809323000000000116569455225XXXXXX2926       VS11    0001111   NYV1 A E383093588626176N840000000003238NPMJ00    05DNPLANET VAPOR INC #200    H15398    VD84000000003238 N  599977384620                            000000000+                F DF 10433                     000000000  Y000000000 338   0000000000000.00 0000000.00   0000000.00                             000000000000000                                                                                                                                                     01418 A000000000000 0000000000000.24     00050 02200                  
02371710056970109DT67590675900000007088800101800000010180010124001193093900011900090040320230000000233109323000000000116569455225XXXXXX2926       VS11    0001111   NYV1 A E463093589605621N8400000000023317DBC00    05DNPLANET VAPOR INC #200    H14629    VD84000000002331 N  599977384620                            000000000+                F DF 10433                     000000000  Y000000000 338   0000000000000.00 0000000.00   0000000.00                             000000000000000                                                                                                                                                     01418 A000000000000 0000000000000.23     00050 02200                  
02371720056970110DT67590675900000007088800101800000010180010124001193093900011900108040320230000002353609323000000000116569445761XXXXXX3989       VS11    0001111   NYV1 A E383093603790773N8400000000235362LZL00    05DNPLANET VAPOR INC #200    896550    VD84000000023536 N  599977384620                            000000000+                F DF 00381                     000000000  N000000000       0000000000000.00 0000000.00   0000000.00                             000000000000000                                                                                                                                                     01418 A000000000000 0000000000002.03     00800 01500                  
02371730056970111DT67590675900000007088800101800000010180010177287283093900011900118040320230000002008309323000000000116569510805XXXXXX4033       MS02WI09          NY 1 0 AMDJJLSUBI0403  N840000000020083          05DNPLANET VAPOR INC #200    021317    MD84000000020083 N  599977384620                            000000000+M10101C5434C    MDJ  10815                     000000000  1                0000000000000.00 0000000.00   0000000.00                             000000000000000                                                                                                                                                   B101418  000000000000 0000000000000.32     00050 02200                  
02371740056970112DT67590675900000007088800101800000010180010124001193093900011900124040320230000000377809323000000000116569461675XXXXXX1271       VS11    0001111   NYV1 A E583093626917347N840000000003778KSLZ00    05DNPLANET VAPOR INC #200    924420    VD84000000003778 N  599977384620                            000000000+                F DF 00381                     000000000  N000000000       0000000000000.00 0000000.00   0000000.00                             000000000000000                                                                                                                                                     01418 A000000000000 0000000000000.45     00800 01500                  
02371750056970113DT67590675900000007088800101800000010180010124001193093900011900132040320230000000496609323000000000116569461675XXXXXX9601       VS11    0001111   NYV1 A E463093633721850N840000000004966S4XZ00    05DNPLANET VAPOR INC #200    932490    VD84000000004966 N  599977384620                            000000000+                F DF 00381                     000000000  N000000000       0000000000000.00 0000000.00   0000000.00                             000000000000000                                                                                                                                                     01418 A000000000000 0000000000000.55     00800 01500                  
02371760056970114DT67590675900000007088800101800000010180010124001193093900011900140040320230000000213709323000000000116569466189XXXXXX0413       VS11    0001111   NYV1 A E383093648812190N8400000000021374LQX00    05DNPLANET VAPOR INC #200    027233    VD84000000002137 N  599977384620                            000000000+                F DF 10433                     000000000  Y000000000 338   0000000000000.00 0000000.00   0000000.00                             000000000000000                                                                                                                                                     01418 A000000000000 0000000000000.23     00050 02200                  
02371770056970115DT67590675900000007088800101800000010180010124001193093900011900157040320230000000461309323000000000116569483950XXXXXX5219       VS11    0001111   NYV1 A E583093729157607N840000000004613F3TQ00    05DNPLANET VAPOR INC #200    05470B    VS84000000004613 N  599977384620                            000000000+                B CB 12111                     000000000  N000000000 495   0000000000000.00 0000000.00   0000000.00                             000000000000000                                                                                                                                                     01418 A000000000000 0000000000000.86     01650 01000                  
02371780056970116DT67590675900000007088800101800000010180010124001193093900011900165040320230000000323809323000000000116569455843XXXXXX1172       VS11    0001111   NYV1 A E583093731855435N840000000003238HFX200    07DNPLANET VAPOR INC #200    131945    VD84000000003238 N  599977384620                            000000000+                F PF 08170                     000000000  N000000000       0000000000000.00 0000000.00   0000000.00                             000000000000000                                                                                                                                                     01418 A000000000000 0000000000000.52     01150 01500                  
02371790056970117DT67590675900000007088800101800000010180010124001193093900011900173040320230000000269909323000000000116569447913XXXXXX5838       VS11    0001111   NYV1 A E383093745398524N840000000002699Z5K300    90DNPLANET VAPOR INC #200    002606    VD84000000002699 N  599977384620                            000000000+                F PF 08170                     000000000  N000000000       0000000000000.00 0000000.00   0000000.00                             000000000000000                                                                                                                                                     01418 A000000000000 0000000000000.46     01150 01500                  
