02741690488700002BH6759067590000000096880088880000090170122202302223000000000006420    0000090001259773N8008886759C01232023                                                                                                                                                                                                                                                                                                                                                                                                                                                                                                                                                                                                 
02741700488700003DT67590675900000000968800888800000010180088824001193022900012597735012120230000000642002223000000000006420453506XXXXXX6295               2111111   NYV4 A7W583021048716434N840000000006420FSZS00    01DNHIGHER FLOUR LLC         H98587    VD84000000006420 NP1546271004114   REXIGD4DWNLXUXEPMAOB     000000000+                F DF 10420                     000000000  Y000000000 338   0000000000000.00 0000000.00   0000000.00                             000000000000000                                                                                                                                                     01418 G000000006420 0000000000000.25     00050 02200                  
02741710488700001P16759067590000000096880088880000001010000000000000000                             2000000000000000000000000              000000000000                    0000000000000000000000000                    000000000000                                                                                                                                                                                                                                                                                                                                                                                                                                                                                        
02741720488700004BH6759067590000000288180088880000090170122202302223000000000017083    0000090001450097N8008886759C01232023                                                                                                                                                                                                                                                                                                                                                                                                                                                                                                                                                                                                 
02741730488700005DT67590675900000002881800888800000010180088887287283021900014500960012020230000000908402223000000000017083519052XXXXXX9908                         NY 4607AMDBT0AWLH0120  N840000000009084          81DNHAPPY HIPPIE             399457    MD84000000009084 NP1549976044904   1913                     000000000+600450S00130    MDB  10786                     000000000  1                0000000000000.00 0000000.00   0000000.00                             000000000000000                                                                                                                                                   U001418  000000000000 0000000000000.27     00050 02200                  
02741740488700001P1675906759000000028818008888000000101                                                          000000000000          3000            814767769                                                                                                                                                                                                                                                                                                                                                                                                                                                                                                                                                            
02741750488700006DT67590675900000002881800888800000010180088887287283021900014500978012120230000000799902223000000000017083546325XXXXXX1644       ME03KE06MS02      NY 4607AMWELWA88J0121  N840000000007999          81DNHAPPY HIPPIE             04719P    MC84000000007999 N  549976044904   1914                     000000000+600450S00130    MWE  00737                     000000000  N                0000000000000.00 0000000.00   0000000.00                             000000000000000                                                                                                                                                   U001418  000000000000 0000000000002.18     02600 01000                  
02741760504580002BH6759067590000000288180088880000090170122202302223000000000078835    0000090001250019N8008886759C01232023                                                                                                                                                                                                                                                                                                                                                                                                                                                                                                                                                                                                 
02741770504580003DT67590675900000002881800888800000010180088873011003022900012500016012220230000000355502223000000000078835379364XXXXX0628                          NY 1 0 N006707622796062N840000000003555          05DNHAPPY HIPPIE             320022    AM84000000003555 N  549976487158                            000000000+51010155434C 258     11261                     000000000                   0000000000000.00 0000000.00   0000000.00                             000000000000000 61248972086759675900000002881 HAPPY HIPPIE             832 PARKWAY              8656540830      37862     HAPPYHIPPIE832@GMAIL.COM                  01418  000000000000 0000000000000.67     01600 00000                  
02741780504580004DT67590675900000002881800888800000010180088877287283022900012500020012220230000000219402223000000000078835544951XXXXXX2587       MS02WI09          NY 1 0 AMDSWIM65B0122  N840000000002194          05DNHAPPY HIPPIE             001728    MD84000000002194 N  549976487158                            000000000+M10101C5434C    MDS  00402                     000000000  N                0000000000000.00 0000000.00   0000000.00                             000000000000000                                                                                                                                                   B101418  000000000000 0000000000000.38     01050 01500                  
02741790504580005DT67590675900000002881800888800000010180088877287283022900012500038012220230000000021802223000000000078835544951XXXXXX2587       MS02WI09          NY 1 0 AMDSWIWE5B0122  N840000000000218          05DNHAPPY HIPPIE             001815    MD84000000000218 N  549976487158                            000000000+M10101C5434C    MDS  00505                     000000000  N                0000000000000.00 0000000.00   0000000.00                             000000000000000                                                                                                                                                   B101418  000000000000 0000000000000.07     01550 00400                  
02741800504580006DT67590675900000002881800888800000010180088824001193022900012500044012220230000000162402223000000000078835491523XXXXXX8164       VS11    0001111   NYV1 A E383022551753416N8400000000016242M6600    07DNHAPPY HIPPIE             004522    VD84000000001624 N  549976487158                            000000000+                F DF 10433                     000000000  Y000000000 338   0000000000000.00 0000000.00   0000000.00                             000000000000000                                                                                                                                                     01418 A000000000000 0000000000000.23     00050 02200                  
02741810504580007DT67590675900000002881800888800000010180088824001193022900012500051012220230000000395002223000000000078835419090XXXXXX3821       VS11    0001111   NYV1 A E303022586512118N840000000003950CCG500    05DNHAPPY HIPPIE             950463    VD84000000003950 N  549976487158                            000000000+                F DF 00381                     000000000  N000000000       0000000000000.00 0000000.00   0000000.00                             000000000000000                                                                                                                                                     01418 A000000000000 0000000000000.47     00800 01500                  
02741820504580008DT67590675900000002881800888800000010180088824001193022900012500069012220230000000394902223000000000078835419090XXXXXX3821       VS11    0001111   NYV1 A E583022588140162N840000000003949S6JN00    05DNHAPPY HIPPIE             950513    VD84000000003949 N  549976487158                            000000000+                F DF 00381                     000000000  N000000000       0000000000000.00 0000000.00   0000000.00                             000000000000000                                                                                                                                                     01418 A000000000000 0000000000000.47     00800 01500                  
02741830504580009DT67590675900000002881800888800000010180088824001193022900012500077012220230000000877802223000000000078835466188XXXXXX4190       VS11    0001111   NYV1 A E583022598064574N840000000008778D23400    05DNHAPPY HIPPIE             039301    VD84000000008778 N  549976487158                            000000000+                F DF 10433                     000000000  Y000000000 338   0000000000000.00 0000000.00   0000000.00                             000000000000000                                                                                                                                                     01418 A000000000000 0000000000000.26     00050 02200                  
02741840504580010DT67590675900000002881800888800000010180088877287283022900012500087012220230000000345702223000000000078835511953XXXXXX9431       MS02WI09          NY 1 0 AMDJCSRG5Q0122  N840000000003457          05DNHAPPY HIPPIE             043354    MD84000000003457 N  549976487158                            000000000+M10101C5434C    MDJ  00402                     000000000  N                0000000000000.00 0000000.00   0000000.00                             000000000000000                                                                                                                                                   B101418  000000000000 0000000000000.51     01050 01500                  
02741850504580011DT67590675900000002881800888800000010180088824001193022900012500093012220230000000274302223000000000078835443264XXXXXX8239       VS11    0001111   NYV1 A E383022637176246N840000000002743ZNSW00    05DNHAPPY HIPPIE             001507    VD84000000002743 N  549976487158                            000000000+                F DF 10433                     000000000  Y000000000 338   0000000000000.00 0000000.00   0000000.00                             000000000000000                                                                                                                                                     01418 A000000000000 0000000000000.23     00050 02200                  
02741860504580012DT67590675900000002881800888800000010180088824001193022900012500101012220230000000219402223000000000078835443264XXXXXX8239       VS11    0001111   NYV1 A E463022638004197N840000000002194MGZ600    05DNHAPPY HIPPIE             031505    VD84000000002194 N  549976487158                            000000000+                F DF 10433                     000000000  Y000000000 338   0000000000000.00 0000000.00   0000000.00                             000000000000000                                                                                                                                                     01418 A000000000000 0000000000000.23     00050 02200                  
02741870504580013DT67590675900000002881800888800000010180088877287283022900012500111012220230000000395002223000000000078835511953XXXXXX9825       MS02WI09          NY 1 0 AMDJYPWU5B0122  N840000000003950          05DNHAPPY HIPPIE             078985    MD84000000003950 N  549976487158                            000000000+M10101C5434C    MDJ  00402                     000000000  N                0000000000000.00 0000000.00   0000000.00                             000000000000000                                                                                                                                                   B101418  000000000000 0000000000000.56     01050 01500                  
02741880504580014DT67590675900000002881800888800000010180088824001193022900012500127012220230000000219502223000000000078835486796XXXXXX6377       VS11    0001111   NYV1 A E383022702753440N840000000002195563P00    05DNHAPPY HIPPIE             053114    VD84000000002195 N  549976487158                            000000000+                F DF 10433                     000000000  Y000000000 338   0000000000000.00 0000000.00   0000000.00                             000000000000000                                                                                                                                                     01418 A000000000000 0000000000000.23     00050 02200                  
02741890504580015DT67590675900000002881800888800000010180088877287283022900012500137012220230000002159202223000000000078835517805XXXXXX8793       ME03MS02WI09      NY 1 0 AMPLGBDQ5Q0122  N840000000021592          01DNHAPPY HIPPIE             02659B    MC84000000021592 N  549976487158                            000000000+M1010115434C    MPL  00581                     000000000  N                0000000000000.00 0000000.00   0000000.00                             000000000000000                                                                                                                                                   E101418  000000000000 0000000000004.63     02100 01000                  
02741900504580016DT67590675900000002881800888800000010180088824001193022900012500143012220230000000263402223000000000078835422921XXXXXX6466       VS11    0001111   NYV1 A E583022724531879N840000000002634WTFF00    05DNHAPPY HIPPIE             054455    VD84000000002634 N  549976487158                            000000000+                F DF 00381                     000000000  N000000000       0000000000000.00 0000000.00   0000000.00                             000000000000000                                                                                                                                                     01418 A000000000000 0000000000000.36     00800 01500                  
02741910504580017DT67590675900000002881800888800000010180088824001193022900012500150012220230000000128302223000000000078835445101XXXXXX5482       VK04VS111111111   NYV1 A E303022742902722N840000000001283G4K700    05DNHAPPY HIPPIE             244248    VD84000000001283 N  549976487158                            000000000+                F DF 10439                     000000000  Y000000000 331   0000000000000.00 0000000.00   0000000.00                             000000000000000                                                                                                                                                     01418 F000000000000 0000000000000.23     00050 02200                  
02741920504580018DT67590675900000002881800888800000010180088824001193022900012500168012220230000000385002223000000000078835435546XXXXXX0476       VS11    0001111   NYV1 A E303022759507925N840000000003850QJBP00    05DNHAPPY HIPPIE             095088    VD84000000003850 N  549976487158                            000000000+                F DF 10433                     000000000  Y000000000 338   0000000000000.00 0000000.00   0000000.00                             000000000000000                                                                                                                                                     01418 A000000000000 0000000000000.24     00050 02200                  
02741930504580019DT67590675900000002881800888800000010180088824001193022900012500176012220230000000481002223000000000078835429117XXXXXX7322       VS11    0001111   NYV1 A E583022774878991N840000000004810HPQV00    05DNHAPPY HIPPIE             053127    VD84000000004810 N  549976487158                            000000000+                F DF 00381                     000000000  N000000000       0000000000000.00 0000000.00   0000000.00                             000000000000000                                                                                                                                                     01418 A000000000000 0000000000000.53     00800 01500                  
02741940504580020DT67590675900000002881800888800000010180088824001193022900012500184012220230000000192102223000000000078835441707XXXXXX2330       VS11    0001111   NYV1 A E463022789971910N8400000000019212RCW00    07DNHAPPY HIPPIE             026526    VD84000000001921 N  549976487158                            000000000+                F PF 08170                     000000000  N000000000       0000000000000.00 0000000.00   0000000.00                             000000000000000                                                                                                                                                     01418 A000000000000 0000000000000.37     01150 01500                  
02741950504580021DT67590675900000002881800888800000010180088824001193022900012500192012220230000000393802223000000000078835422921XXXXXX6692       VS11    0001111   NYV1 A E303022801324447N840000000003938KJTG00    05DNHAPPY HIPPIE             062133    VD84000000003938 N  549976487158                            000000000+                F DF 00381                     000000000  N000000000       0000000000000.00 0000000.00   0000000.00                             000000000000000                                                                                                                                                     01418 A000000000000 0000000000000.47     00800 01500                  
02741960504580022BH6759067590000000288180088880000090170122202302223000000000083692    0000090001250024N8008886759C01232023                                                                                                                                                                                                                                                                                                                                                                                                                                                                                                                                                                                                 
02741970504580023DT67590675900000002881800888800000010180088824001193022900012500010012220230000000444402223000000000083692443264XXXXXX1793       VS11    0001111   NYV1 A E303022543138182N840000000004444F9FX00    05DNHAPPY HIPPIE             001475    VD84000000004444 N  549976487134                            000000000+                F DF 10433                     000000000  Y000000000 338   0000000000000.00 0000000.00   0000000.00                             000000000000000                                                                                                                                                     01418 A000000000000 0000000000000.24     00050 02200                  
02741980504580024DT67590675900000002881800888800000010180088824001193022900012500028012220230000000651702223000000000083692480639XXXXXX6162       VS11    0001111   NYV1 A E303022567807476N840000000006517WQ9800    05DNHAPPY HIPPIE             630935    VD84000000006517 N  549976487134                            000000000+                F DF 00381                     000000000  N000000000       0000000000000.00 0000000.00   0000000.00                             000000000000000                                                                                                                                                     01418 A000000000000 0000000000000.67     00800 01500                  
02741990504580025DT67590675900000002881800888800000010180088824001193022900012500036012220230000000295002223000000000083692480639XXXXXX6162       VS11    0001111   NYV1 A E383022569467535N8400000000029503VNM00    05DNHAPPY HIPPIE             630971    VD84000000002950 N  549976487134                            000000000+                F DF 00381                     000000000  N000000000       0000000000000.00 0000000.00   0000000.00                             000000000000000                                                                                                                                                     01418 A000000000000 0000000000000.39     00800 01500                  
02742000504580026DT67590675900000002881800888800000010180088824001193022900012500044012220230000000024902223000000000083692491523XXXXXX7823       VK04VS111111111   NYV1 A E383022578335377N840000000000249X5JD00    07DNHAPPY HIPPIE             010400    VD84000000000249 N  549976487134                            000000000+                F DF 10439                     000000000  Y000000000 331   0000000000000.00 0000000.00   0000000.00                             000000000000000                                                                                                                                                     01418 F000000000000 0000000000000.22     00050 02200                  
02742010504580027DT67590675900000002881800888800000010180088824001193022900012500051012220230000000241202223000000000083692443044XXXXXX3358       VS11    0001111   NYV1 A E583022625926392N8400000000024126H5N00    05DNHAPPY HIPPIE             737080    VD84000000002412 N  549976487134                            000000000+                F DF 10433                     000000000  Y000000000 338   0000000000000.00 0000000.00   0000000.00                             000000000000000                                                                                                                                                     01418 A000000000000 0000000000000.23     00050 02200                  
02742020504580028DT67590675900000002881800888800000010180088824001193022900012500069012220230000000285102223000000000083692443044XXXXXX5057       VS11    0001111   NYV1 A E463022627011121N840000000002851HQWC00    05DNHAPPY HIPPIE             394681    VD84000000002851 N  549976487134                            000000000+                F DF 10433                     000000000  Y000000000 338   0000000000000.00 0000000.00   0000000.00                             000000000000000                                                                                                                                                     01418 A000000000000 0000000000000.23     00050 02200                  
02742030504580029DT67590675900000002881800888800000010180088824001193022900012500077012220230000000553002223000000000083692419090XXXXXX5725       VS11    0001111   NYV1 A E463022630571140N840000000005530PP9V00    05DNHAPPY HIPPIE             952250    VD84000000005530 N  549976487134                            000000000+                F DF 00381                     000000000  N000000000       0000000000000.00 0000000.00   0000000.00                             000000000000000                                                                                                                                                     01418 A000000000000 0000000000000.59     00800 01500                  
02742040504580030DT67590675900000002881800888800000010180088877287283022900012500087012220230000000548602223000000000083692517805XXXXXX7023       MS02WI09          NY 1 0 AMWEDKAE5Q0122  N840000000005486          05DNHAPPY HIPPIE             03740P    MC84000000005486 N  549976487134                            000000000+M10101C5434C    MWE  00743                     000000000  N                0000000000000.00 0000000.00   0000000.00                             000000000000000                                                                                                                                                   B101418  000000000000 0000000000001.30     02300 00400                  
02742050504580031DT67590675900000002881800888800000010180088824001193022900012500093012220230000000098702223000000000083692440393XXXXXX2003       VK04VS111111111   NYV1 A E463022650844046N8400000000009877WRR00    05DNHAPPY HIPPIE             760770    VD84000000000987 N  549976487134                            000000000+                F PF 08165                     000000000  N000000000       0000000000000.00 0000000.00   0000000.00                             000000000000000                                                                                                                                                     01418 F000000000000 0000000000000.21     01600 00500                  
02742060504580032DT67590675900000002881800888800000010180088824001193022900012500101012220230000000158002223000000000083692415978XXXXXX6979       VS11    0001111   NYV1 A E583022654328004N8400000000015805VW500    05DNHAPPY HIPPIE             088490    VD84000000001580 N  549976487134                            000000000+                F DF 10433                     000000000  Y000000000 338   0000000000000.00 0000000.00   0000000.00                             000000000000000                                                                                                                                                     01418 A000000000000 0000000000000.23     00050 02200                  
02742070504580033DT67590675900000002881800888800000010180088824001193022900012500119012220230000000207302223000000000083692423223XXXXXX7930       VS11    0001111   NYV1 A E303022659136576N8400000000020738JTD00    05DNHAPPY HIPPIE             003641    VD84000000002073 N  549976487134                            000000000+                F DF 00381                     000000000  N000000000       0000000000000.00 0000000.00   0000000.00                             000000000000000                                                                                                                                                     01418 A000000000000 0000000000000.32     00800 01500                  
02742080504580034DT67590675900000002881800888800000010180088824001193022900012500127012220230000000592502223000000000083692414720XXXXXX3113       VS11    0001111   NYV1 A E463022661567889N8400000000059258C9G00    05DNHAPPY HIPPIE             07092D    VS84000000005925 N  549976487134                            000000000+                D CD 12113                     000000000  N000000000 499   0000000000000.00 0000000.00   0000000.00                             000000000000000                                                                                                                                                     01418 A000000000000 0000000000001.34     02100 01000                  
02742090504580035DT67590675900000002881800888800000010180088824001193022900012500135012220230000000252302223000000000083692429413XXXXXX1043       VS11    0001111   NYV1 A E583022673575506N840000000002523W8TN00    05DNHAPPY HIPPIE             043386    VD84000000002523 N  549976487134                            000000000+                F DF 00381                     000000000  N000000000       0000000000000.00 0000000.00   0000000.00                             000000000000000                                                                                                                                                     01418 A000000000000 0000000000000.35     00800 01500                  
02742100504580036DT67590675900000002881800888800000010180088824001193022900012500143012220230000000329302223000000000083692445100XXXXXX5955       VS11    0001111   NYV1 A E303022677043871N8400000000032938RBN00    05DNHAPPY HIPPIE             193103    VD84000000003293 N  549976487134                            000000000+                F DF 10433                     000000000  Y000000000 338   0000000000000.00 0000000.00   0000000.00                             000000000000000                                                                                                                                                     01418 A000000000000 0000000000000.24     00050 02200                  
02742110504580037DT67590675900000002881800888800000010180088824001193022900012500150012220230000000131702223000000000083692443041XXXXXX3572       VK04VS111111111   NYV1 A E583022683109641N840000000001317GDFD00    05DNHAPPY HIPPIE             410936    VD84000000001317 N  549976487134                            000000000+                F DF 10439                     000000000  Y000000000 331   0000000000000.00 0000000.00   0000000.00                             000000000000000                                                                                                                                                     01418 F000000000000 0000000000000.23     00050 02200                  
02742120504580038DT67590675900000002881800888800000010180088877287283022900012500160012220230000000395002223000000000083692525363XXXXXX2005       MS02WI09          NY 1 0 AMWEDUJ75O0122  N840000000003950          05DNHAPPY HIPPIE             53869Z    MC84000000003950 N  549976487134                            000000000+M10101C0034C    MWE  00743                     000000000  N                0000000000000.00 0000000.00   0000000.00                             000000000000000                                                                                                                                                   B101418  000000000000 0000000000000.95     02300 00400                  
02742130504580039DT67590675900000002881800888800000010180088824001193022900012500176012220230000000079002223000000000083692415978XXXXXX3096       VK04VS111111111   NYV1 A E583022714087705N8400000000007902DV600    05DNHAPPY HIPPIE             084743    VD84000000000790 N  549976487134                            000000000+                F DF 10439                     000000000  Y000000000 331   0000000000000.00 0000000.00   0000000.00                             000000000000000                                                                                                                                                     01418 F000000000000 0000000000000.22     00050 02200                  
02742140504580040DT67590675900000002881800888800000010180088824001193022900012500184012220230000000395002223000000000083692414398XXXXXX5134       VS11    0001111   NYV1 A E383022720878277N84000000000395067G300    05DNHAPPY HIPPIE             334185    VD84000000003950 N  549976487134                            000000000+                F DF 00381                     000000000  N000000000       0000000000000.00 0000000.00   0000000.00                             000000000000000                                                                                                                                                     01418 A000000000000 0000000000000.47     00800 01500                  
02742150504580041DT67590675900000002881800888800000010180088824001193022900012500192012220230000000818202223000000000083692415978XXXXXX1976       VS11    0001111   NYV1 A E583022722854982N8400000000081826CX800    05DNHAPPY HIPPIE             045461    VD84000000008182 N  549976487134                            000000000+                F DF 10433                     000000000  Y000000000 338   0000000000000.00 0000000.00   0000000.00                             000000000000000                                                                                                                                                     01418 A000000000000 0000000000000.26     00050 02200                  
02742160504580042DT67590675900000002881800888800000010180088824001193022900012500200012220230000000424502223000000000083692434769XXXXXX7926       VS11    0001111   NYV1 A E583022725181229N840000000004245CLS500    05DNHAPPY HIPPIE             080815    VD84000000004245 N  549976487134                            000000000+                F DF 10433                     000000000  Y000000000 338   0000000000000.00 0000000.00   0000000.00                             000000000000000                                                                                                                                                     01418 A000000000000 0000000000000.24     00050 02200                  
02742170504580043DT67590675900000002881800888800000010180088877287283022900012500210012220230000000219402223000000000083692531259XXXXXX3324       MS02WI09          NY 1 0 AMDJ8JHL410122  N840000000002194          05DNHAPPY HIPPIE             111116    MD84000000002194 N  549976487134                            000000000+M10101C5434C    MDJ  10815                     000000000  1                0000000000000.00 0000000.00   0000000.00                             000000000000000                                                                                                                                                   B101418  000000000000 0000000000000.23     00050 02200                  
02742180504580044DT67590675900000002881800888800000010180088824001193022900012500226012220230000000473902223000000000083692440393XXXXXX9486       VS11    0001111   NYV1 A E583022769865497N8400000000047394QZK00    05DNHAPPY HIPPIE             549799    VD84000000004739 N  549976487134                            000000000+                F PF 08170                     000000000  N000000000       0000000000000.00 0000000.00   0000000.00                             000000000000000                                                                                                                                                     01418 A000000000000 0000000000000.69     01150 01500                  
02742190504580045DT67590675900000002881800888800000010180088824001193022900012500234012220230000000395002223000000000083692445102XXXXXX5402       VS11    0001111   NYV1 A E383022775448681N840000000003950MSND00    05DNHAPPY HIPPIE             266360    VD84000000003950 N  549976487134                            000000000+                F DF 10433                     000000000  Y000000000 338   0000000000000.00 0000000.00   0000000.00                             000000000000000                                                                                                                                                     01418 A000000000000 0000000000000.24     00050 02200                  
02742200504580046DT67590675900000002881800888800000010180088824001193022900012500242012220230000000355502223000000000083692422921XXXXXX4100       VS11    0001111   NYV1 A E383022815951495N84000000000355544SX00    05DNHAPPY HIPPIE             063597    VD84000000003555 N  549976487134                            000000000+                F DF 00381                     000000000  N000000000       0000000000000.00 0000000.00   0000000.00                             000000000000000                                                                                                                                                     01418 A000000000000 0000000000000.43     00800 01500                  
02742210504580047BH6759067590000000215480088880000090170122202302223000000000047586    0000090001884684N8008886759C01232023                                                                                                                                                                                                                                                                                                                                                                                                                                                                                                                                                                                                 
02742220504580048DT67590675900000002154800888800000010180088824001193022900018846847012220230000004758602223000000000047586481588XXXXXX7710               2111111   NYV4 A7W303021855309810N840000000047586CXJ500    01DNDRIP DROP DISTRO LLC     104353    VD84000000047586 NP1519971004114   17293                    000000000+                G DG 10352                     000000000  Y000000000 338   0000000000000.00 0000000.00   0000000.00                             000000000000000                                                                                                                                                     01418 G000000047586 0000000000000.46     00050 02200                  
02742230504580001P16759067590000000215480088880000001010000000000000000    43891034847              2000000000000000000000000              000000000000                    0000000000000000000000000                    000000000000                                                                                                                                                                                                                                                                                                                                                                                                                                                                                        
02742240504580049BH6759067590000000561180088880000090170122202302223000000000014990    0000090001024160N8008886759C01232023                                                                                                                                                                                                                                                                                                                                                                                                                                                                                                                                                                                                 
02742250504580050DT67590675900000005611800888800000010180088824001193022900010241609012220230000001499002223000000000014990474473XXXXXX2660               2111111   NYV4 A7W583022648721999N8400000000149906HNC00    01DNK DIVINE 503-689-7182    110114    VD84000000014990 NP1549971004114   5157                     000000000+                F DF 10420                     000000000  Y000000000 338   0000000000000.00 0000000.00   0000000.00                             000000000000000                                                                                                                                                     01418 G000000014990 0000000000000.29     00050 02200                  
02742260504580001P16759067590000000561180088880000001010000000000000000                             2000000000000000000000000              000000000000                    0000000000000000000000000                    000000000000                                                                                                                                                                                                                                                                                                                                                                                                                                                                                        
02742270504580051BH6759067590000000096880088880000090170122202302223000000000007095    0000090001267652N8008886759C01232023                                                                                                                                                                                                                                                                                                                                                                                                                                                                                                                                                                                                 
02742280504580052DT67590675900000000968800888800000010180088824001193022900012676521012220230000000709502223000000000007095442732XXXXXX0866               2111111   NYV4 A7W303022807404807N840000000007095P77J00    01DNHIGHER FLOUR LLC         002517    VD84000000007095 NP1546271004114   RTCCIJXRTWR8LKP29WCW     000000000+                G DG 10352                     000000000  Y000000000 338   0000000000000.00 0000000.00   0000000.00                             000000000000000                                                                                                                                                     01418 G000000007095 0000000000000.26     00050 02200                  
02742290504580001P16759067590000000096880088880000001010000000000000000    64166885229              2000000000000000000000000              000000000000                    0000000000000000000000000                    000000000000                                                                                                                                                                                                                                                                                                                                                                                                                                                                                        
