02917330312520002BH6759067590000000288180088880000090170113202301323000000000083694    0000090001180016N8008886759C01152023                                                                                                                                                                                                                                                                                                                                                                                                                                                                                                                                                                                                 
02917340312520003DT67590675900000002881800888800000010180088824001193013900011800016011320230000000146801323000000000083694487917XXXXXX3512       VK04VS111111111   NYV1 A E463013609034494N840000000001468QD8X00    05DNHAPPY HIPPIE             702903    VD84000000001468 N  549976487134                            000000000+                F DF 00451                     000000000  N000000000 214   0000000000000.00 0000000.00   0000000.00                             000000000000000                                                                                                                                                     01418 F000000000000 0000000000000.27     01550 00400                  
02917350312520004DT67590675900000002881800888800000010180088824001193013900011800024011320230000000423301323000000000083694414709XXXXXX4150       VS11    0001111   NYV1 A E383013610137240N8400000000042337LKJ00    05DNHAPPY HIPPIE             09603D    VS84000000004233 N  549976487134                            000000000+                D CD 12113                     000000000  N000000000 499   0000000000000.00 0000000.00   0000000.00                             000000000000000                                                                                                                                                     01418 A000000000000 0000000000000.99     02100 01000                  
02917360312520005DT67590675900000002881800888800000010180088824001193013900011800032011320230000000908601323000000000083694480639XXXXXX3608       VS11    0001111   NYV1 A E463013661502422N840000000009086DBBR00    05DNHAPPY HIPPIE             431309    VD84000000009086 N  549976487134                            000000000+                F DF 00381                     000000000  N000000000       0000000000000.00 0000000.00   0000000.00                             000000000000000                                                                                                                                                     01418 A000000000000 0000000000000.88     00800 01500                  
02917370312520006DT67590675900000002881800888800000010180088824001193013900011800040011320230000000532101323000000000083694419090XXXXXX8251       VS11    0001111   NYV1 A E383013687556734N840000000005321QHZM00    05DNHAPPY HIPPIE             720926    VD84000000005321 N  549976487134                            000000000+                F DF 00381                     000000000  N000000000       0000000000000.00 0000000.00   0000000.00                             000000000000000                                                                                                                                                     01418 A000000000000 0000000000000.58     00800 01500                  
02917380312520007DT67590675900000002881800888800000010180088877287283013900011800059011320230000000032801323000000000083694515676XXXXXX8877                         NY 1 0 AMWEU91WIU0113  N840000000000328          05DNHAPPY HIPPIE             09226Z    MC84000000000328 N  549976487134                            000000000+M10101C5434C    MWE  12147                     000000000  N                0000000000000.00 0000000.00   0000000.00                             000000000000000                                                                                                                                                   B101418  000000000000 0000000000000.10     02300 00200                  
02917390312520008DT67590675900000002881800888800000010180088877287283013900011800067011320230000000989601323000000000083694537993XXXXXX2557       MS02WI09          NY 1 0 AMPLQKHSWN0113  N840000000009896          05DNHAPPY HIPPIE             01369B    MC84000000009896 N  549976487134                            000000000+M10101C5434C    MPL  00364                     000000000  N                0000000000000.00 0000000.00   0000000.00                             000000000000000                                                                                                                                                   B101418  000000000000 0000000000001.82     01800 00400                  
02917400312520009DT67590675900000002881800888800000010180088824001193013900011800073011320230000000730701323000000000083694471830XXXXXX6200       VS11    0001111   NYV1 A E383013704182646N840000000007307GCGC00    05DNHAPPY HIPPIE             313133    VS84000000007307 N  549976487134                            000000000+                C CC 12112                     000000000  N000000000 497   0000000000000.00 0000000.00   0000000.00                             000000000000000                                                                                                                                                     01418 A000000000000 0000000000001.31     01650 01000                  
02917410312520010DT67590675900000002881800888800000010180088877287283013900011800083011320230000000790001323000000000083694511953XXXXXX7848       MS02WI09          NY 1 0 AMDJV0JGIU0113  N840000000007900          05DNHAPPY HIPPIE             057311    MD84000000007900 N  549976487134                            000000000+M10101C5434C    MDJ  00402                     000000000  N                0000000000000.00 0000000.00   0000000.00                             000000000000000                                                                                                                                                   B101418  000000000000 0000000000000.98     01050 01500                  
02917420312520011DT67590675900000002881800888800000010180088877287283013900011800091011320230000000230001323000000000083694515676XXXXXX7816       MS02WI09          NY 1 0 AMWEV38JIU0113  N840000000002300          05DNHAPPY HIPPIE             03360Z    MC84000000002300 N  549976487134                            000000000+M10101C5434C    MWE  00743                     000000000  N                0000000000000.00 0000000.00   0000000.00                             000000000000000                                                                                                                                                   B101418  000000000000 0000000000000.57     02300 00400                  
02917430312520012DT67590675900000002881800888800000010180088877287283013900011800109011320230000000395001323000000000083694514377XXXXXX8204       MS02WI09          NY 1 0 AMDJJ9EZWO0113  N840000000003950          05DNHAPPY HIPPIE             1X8V9T    MD84000000003950 N  549976487134                            000000000+M10101C5434C    MDJ  00402                     000000000  N                0000000000000.00 0000000.00   0000000.00                             000000000000000                                                                                                                                                   B101418  000000000000 0000000000000.56     01050 01500                  
02917440312520013DT67590675900000002881800888800000010180088824001193013900011800115011320230000000237101323000000000083694422921XXXXXX2148       VS11    0001111   NYV1 A E303013738465029N8400000000023718DH900    05DNHAPPY HIPPIE             055847    VD84000000002371 N  549976487134                            000000000+                F DF 00381                     000000000  N000000000       0000000000000.00 0000000.00   0000000.00                             000000000000000                                                                                                                                                     01418 A000000000000 0000000000000.34     00800 01500                  
02917450312520014DT67590675900000002881800888800000010180088824001193013900011800123011320230000000158001323000000000083694415978XXXXXX9559       VS11    0001111   NYV1 A E463013746687203N8400000000015805FVB00    05DNHAPPY HIPPIE             092095    VD84000000001580 N  549976487134                            000000000+                F DF 10433                     000000000  Y000000000 338   0000000000000.00 0000000.00   0000000.00                             000000000000000                                                                                                                                                     01418 A000000000000 0000000000000.23     00050 02200                  
02917460312520015DT67590675900000002881800888800000010180088824001193013900011800131011320230000000230301323000000000083694411600XXXXXX7264       VS11    0001111   NYV1 A E583013759648175N8400000000023033TQ700    90DNHAPPY HIPPIE             130604    VD84000000002303 N  549976487134                            000000000+                F PF 08170                     000000000  N000000000       0000000000000.00 0000000.00   0000000.00                             000000000000000                                                                                                                                                     01418 A000000000000 0000000000000.41     01150 01500                  
02917470312520016DT67590675900000002881800888800000010180088824001193013900011800149011320230000001282401323000000000083694443264XXXXXX6098       VS11    0001111   NYV1 A E463013767738419N840000000012824L9Z500    05DNHAPPY HIPPIE             001219    VD84000000012824 N  549976487134                            000000000+                F DF 10433                     000000000  Y000000000 338   0000000000000.00 0000000.00   0000000.00                             000000000000000                                                                                                                                                     01418 A000000000000 0000000000000.28     00050 02200                  
02917480312520017DT67590675900000002881800888800000010180088824001193013900011800156011320230000000888901323000000000083694415978XXXXXX6173       VS11    0001111   NYV1 A E383013779860454N840000000008889Z9H600    05DNHAPPY HIPPIE             098655    VD84000000008889 N  549976487134                            000000000+                F DF 10433                     000000000  Y000000000 338   0000000000000.00 0000000.00   0000000.00                             000000000000000                                                                                                                                                     01418 A000000000000 0000000000000.26     00050 02200                  
02917490312520018DT67590675900000002881800888800000010180088824001193013900011800164011320230000000393801323000000000083694480639XXXXXX1725       VS11    0001111   NYV1 A E383013785934086N840000000003938BHXW00    05DNHAPPY HIPPIE             438026    VD84000000003938 N  549976487134                            000000000+                F DF 00381                     000000000  N000000000       0000000000000.00 0000000.00   0000000.00                             000000000000000                                                                                                                                                     01418 A000000000000 0000000000000.47     00800 01500                  
02917500312520019BH6759067590000000288180088880000090170113202301323000000000106959    0000090001180018N8008886759C01152023                                                                                                                                                                                                                                                                                                                                                                                                                                                                                                                                                                                                 
02917510312520020DT67590675900000002881800888800000010180088877287283013900011800018011320230000000770201323000000000106959511953XXXXXX9825       MS02WI09          NY 1 0 AMDJCHJBTV0113  N840000000007702          05DNHAPPY HIPPIE             076879    MD84000000007702 N  549976487158                            000000000+M10101C5434C    MDJ  00402                     000000000  N                0000000000000.00 0000000.00   0000000.00                             000000000000000                                                                                                                                                   B101418  000000000000 0000000000000.96     01050 01500                  
02917520312520021DT67590675900000002881800888800000010180088824001193013900011800024011320230000000434301323000000000106959443238XXXXXX1822       VS11    0001111   NYV1 A E303013563916880N8400000000043432JNF00    05DNHAPPY HIPPIE             003951    VD84000000004343 N  549976487158                            000000000+                F DF 00381                     000000000  N000000000       0000000000000.00 0000000.00   0000000.00                             000000000000000                                                                                                                                                     01418 A000000000000 0000000000000.50     00800 01500                  
02917530312520022DT67590675900000002881800888800000010180088824001193013900011800032011320230000000552901323000000000106959443238XXXXXX3776       VS11    0001111   NYV1 A E303013576955859N840000000005529HW9K00    05DNHAPPY HIPPIE             010135    VD84000000005529 N  549976487158                            000000000+                F DF 00381                     000000000  N000000000       0000000000000.00 0000000.00   0000000.00                             000000000000000                                                                                                                                                     01418 A000000000000 0000000000000.59     00800 01500                  
02917540312520023DT67590675900000002881800888800000010180088824001193013900011800040011320230000000750601323000000000106959422921XXXXXX7352       VS11    0001111   NYV1 A E463013585966837N840000000007506RN3500    05DNHAPPY HIPPIE             040597    VD84000000007506 N  549976487158                            000000000+                F DF 00381                     000000000  N000000000       0000000000000.00 0000000.00   0000000.00                             000000000000000                                                                                                                                                     01418 A000000000000 0000000000000.75     00800 01500                  
02917550312520024DT67590675900000002881800888800000010180088824001193013900011800057011320230000000395001323000000000106959419090XXXXXX3821       VS11    0001111   NYV1 A E303013587215594N840000000003950DMFF00    05DNHAPPY HIPPIE             714560    VD84000000003950 N  549976487158                            000000000+                F DF 00381                     000000000  N000000000       0000000000000.00 0000000.00   0000000.00                             000000000000000                                                                                                                                                     01418 A000000000000 0000000000000.47     00800 01500                  
02917560312520025DT67590675900000002881800888800000010180088824001193013900011800065011320230000000790001323000000000106959419090XXXXXX9446       VS11    0001111   NYV1 A E583013595044425N840000000007900J4NB00    05DNHAPPY HIPPIE             715016    VD84000000007900 N  549976487158                            000000000+                F DF 00381                     000000000  N000000000       0000000000000.00 0000000.00   0000000.00                             000000000000000                                                                                                                                                     01418 A000000000000 0000000000000.78     00800 01500                  
02917570312520026DT67590675900000002881800888800000010180088824001193013900011800073011320230000000109801323000000000106959443040XXXXXX3051       VK04VS111111111   NYV1 A E463013653635182N840000000001098ZR6J00    05DNHAPPY HIPPIE             599507    VD84000000001098 N  549976487158                            000000000+                F DF 10439                     000000000  Y000000000 331   0000000000000.00 0000000.00   0000000.00                             000000000000000                                                                                                                                                     01418 F000000000000 0000000000000.23     00050 02200                  
02917580312520027DT67590675900000002881800888800000010180088824001193013900011800081011320230000000578301323000000000106959421783XXXXXX4165       VS11    0001111   NYV1 A E463013655127835N840000000005783SZWQ00    05DNHAPPY HIPPIE             083216    VS84000000005783 N  549976487158                            000000000+                A CA 12110                     000000000  N000000000 493   0000000000000.00 0000000.00   0000000.00                             000000000000000                                                                                                                                                     01418 A000000000000 0000000000000.97     01510 01000                  
02917590312520028DT67590675900000002881800888800000010180088877287283013900011800091011320230000001054601323000000000106959511975XXXXXX4657                         NY 1 0 AMDBP2ITWN0113  N840000000010546          05DNHAPPY HIPPIE             044075    MD84000000010546 NP1549976487158                            000000000+M10101C5434C    MDB  00062                     000000000  N                0000000000000.00 0000000.00   0000000.00                             000000000000000                                                                                                                                                   B101418  000000000000 0000000000002.89     02650 01000                  
02917600312520001P1675906759000000028818008888000000101                                                          000000000000          3000            814767769                                                                                                                                                                                                                                                                                                                                                                                                                                                                                                                                                            
02917610312520029DT67590675900000002881800888800000010180088824001193013900011800107011320230000000296201323000000000106959419090XXXXXX2665       VS11    0001111   NYV1 A E583013721097754N8400000000029623JMF00    05DNHAPPY HIPPIE             723011    VD84000000002962 N  549976487158                            000000000+                F DF 00381                     000000000  N000000000       0000000000000.00 0000000.00   0000000.00                             000000000000000                                                                                                                                                     01418 A000000000000 0000000000000.39     00800 01500                  
02917620312520030DT67590675900000002881800888800000010180088824001193013900011800115011320230000000137201323000000000106959440393XXXXXX4658       VK04VS111111111   NYV1 A E463013721837362N840000000001372QVLJ00    05DNHAPPY HIPPIE             173715    VD84000000001372 N  549976487158                            000000000+                F PF 08165                     000000000  N000000000       0000000000000.00 0000000.00   0000000.00                             000000000000000                                                                                                                                                     01418 F000000000000 0000000000000.27     01600 00500                  
02917630312520031DT67590675900000002881800888800000010180088824001193013900011800123011320230000000908501323000000000106959426684XXXXXX6627       VS11    0001111   NYV1 A E583013723526334N840000000009085VZ2800    05DNHAPPY HIPPIE             06574A    VS84000000009085 N  549976487158                            000000000+                A CA 12110                     000000000  N000000000 493   0000000000000.00 0000000.00   0000000.00                             000000000000000                                                                                                                                                     01418 A000000000000 0000000000001.47     01510 01000                  
02917640312520032DT67590675900000002881800888800000010180088824001193013900011800131011320230000001085001323000000000106959422921XXXXXX0652       VS11    0001111   NYV1 A E303013736434407N840000000010850JQQG00    05DNHAPPY HIPPIE             055645    VD84000000010850 N  549976487158                            000000000+                F DF 00381                     000000000  N000000000       0000000000000.00 0000000.00   0000000.00                             000000000000000                                                                                                                                                     01418 A000000000000 0000000000001.02     00800 01500                  
02917650312520033DT67590675900000002881800888800000010180088824001193013900011800149011320230000001234601323000000000106959419090XXXXXX2246       VS11    0001111   NYV1 A E583013764340879N840000000012346J8JL00    05DNHAPPY HIPPIE             725585    VD84000000012346 N  549976487158                            000000000+                F DF 00381                     000000000  N000000000       0000000000000.00 0000000.00   0000000.00                             000000000000000                                                                                                                                                     01418 A000000000000 0000000000001.14     00800 01500                  
02917660312520034DT67590675900000002881800888800000010180088824001193013900011800156011320230000000227301323000000000106959415978XXXXXX4600       VS11    0001111   NYV1 A E463013767204497N840000000002273DF6C00    05DNHAPPY HIPPIE             026514    VD84000000002273 N  549976487158                            000000000+                F DF 10433                     000000000  Y000000000 338   0000000000000.00 0000000.00   0000000.00                             000000000000000                                                                                                                                                     01418 A000000000000 0000000000000.23     00050 02200                  
02917670312520035DT67590675900000002881800888800000010180088824001193013900011800164011320230000000315901323000000000106959445101XXXXXX0304       VS11    0001111   NYV1 A E583013768902976N8400000000031594V9D00    05DNHAPPY HIPPIE             066802    VD84000000003159 N  549976487158                            000000000+                F DF 10433                     000000000  Y000000000 338   0000000000000.00 0000000.00   0000000.00                             000000000000000                                                                                                                                                     01418 A000000000000 0000000000000.24     00050 02200                  
02917680312520036DT67590675900000002881800888800000010180088824001193013900011800172011320230000000788901323000000000106959419090XXXXXX9434       VS11    0001111   NYV1 A E463013786329170N840000000007889C87J00    05DNHAPPY HIPPIE             726906    VD84000000007889 N  549976487158                            000000000+                F DF 00381                     000000000  N000000000       0000000000000.00 0000000.00   0000000.00                             000000000000000                                                                                                                                                     01418 A000000000000 0000000000000.78     00800 01500                  
02917690312520037DT67590675900000002881800888800000010180088877287283013900011800182011320230000000266601323000000000106959512230XXXXXX4271       MS02WI09          NY 1 0 AMWEUV8OWN0113  N840000000002666          05DNHAPPY HIPPIE             72803Z    MC84000000002666 N  549976487158                            000000000+M10101C0034C    MWE  00743                     000000000  N                0000000000000.00 0000000.00   0000000.00                             000000000000000                                                                                                                                                   B101418  000000000000 0000000000000.65     02300 00400                  
02917700312520038BH6759067590000000215480088880000090170113202301323000000000390066    0000090001817332N8008886759C01152023                                                                                                                                                                                                                                                                                                                                                                                                                                                                                                                                                                                                 
02917710312520039DT67590675900000002154800888800000010180088824001193013900018149391011320230000010800001323000000000390066425907XXXXXX7030               2111111   NYV4 A7W303013682229232N8400000001080009WW400    01DNDRIP DROP DISTRO LLC     090851    VD84000000108000 NP1519971004114   INV-000205               000000000+                G DG 10352                     000000000  Y000000000 338   0000000000000.00 0000000.00   0000000.00                             000000000000000                                                                                                                                                     01418 G000000108000 0000000000000.76     00050 02200                  
02917720312520001P16759067590000000215480088880000001010000000000000000    43876137734              2000000000000000000000000              000000000000                    0000000000000000000000000                    000000000000                                                                                                                                                                                                                                                                                                                                                                                                                                                                                        
02917730312520040DT67590675900000002154800888800000010180088873011003013900018118681011320230000009450301323000000000390066372722XXXXX2014                          NY 4 07N004291390306307N840000000094503          01DNDRIP DROP DISTRO LLC     281414    AM84000000094503 N  519971004114                            000000000+6004S0S00140 258     11244                     000000000                   0000000000000.00 0000000.00   0000000.00                             000000000000000 61248972736759675900000002154 DRIP DROP DISTRO LLC     1445 W COMMERCE AVE SUITE2087248209      83705     TROY@DRIPDROPDISTRO.COM                   01418  000000000000 0000000000018.06     01900 00000                  
02917740312520041DT67590675900000002154800888800000010180088887287283013900018130251011320230000013596001323000000000390066547415XXXXXX3768                         NY 4607AMEBFPYCWO0113  N840000000135960          81DNDRIP DROP DISTRO LLC     08887Q    MB84000000135960 NP1519900000001   17250                    000000000+600450S00140    MEB  11637                     000000000  N                0000000000000.00 0000000.00   0000000.00                             000000000000000                                                                                                                                                   U001418  000000000000 0000000000040.89     03000 01000                  
02917750312520001P1675906759000000021548008888000000101                                                          000000000000          8000            471534935                                                                                                                                                                                                                                                                                                                                                                                                                                                                                                                                                            
02917760312520042DT67590675900000002154800888800000010180088873011003013900018173322011320230000005160301323000000000390066372731XXXXX6006                          NY 4 07N004054712401325N840000000051603          01DNDRIP DROP DISTRO LLC     208340    AM84000000051603 N  519971004114                            000000000+6004S0S00140 258     11244                     000000000                   0000000000000.00 0000000.00   0000000.00                             000000000000000 61248972736759675900000002154 DRIP DROP DISTRO LLC     1445 W COMMERCE AVE SUITE2087248209      83705     TROY@DRIPDROPDISTRO.COM                   01418  000000000000 0000000000009.90     01900 00000                  
02917770312520043BH6759067590000000096880088880000090170113202301323000000000016050    0000090001207440N8008886759C01152023                                                                                                                                                                                                                                                                                                                                                                                                                                                                                                                                                                                                 
02917780312520044DT67590675900000000968800888800000010180088824001193013900012074405011320230000001605001323000000000016050473702XXXXXX9629               2111111   NYV4 A7W303013048042229N840000000016050SWC700    01DNHIGHER FLOUR LLC         017456    VD84000000016050 NP1546271004114   R8D3WLGKEZSUY7RMDFFP     000000000+                F DF 10420                     000000000  Y000000000 338   0000000000000.00 0000000.00   0000000.00                             000000000000000                                                                                                                                                     01418 G000000016050 0000000000000.30     00050 02200                  
02917790312520001P16759067590000000096880088880000001010000000000000000                             2000000000000000000000000              000000000000                    0000000000000000000000000                    000000000000                                                                                                                                                                                                                                                                                                                                                                                                                                                                                        
