06420860627685555AD675906759000000151648008888000009077900012236140000002255006262023NYY17723YC6759800888062820232023153005929                                                                                                                                                                                                                                                                                                                                                                                                                                                                                                                                                                                              
06420870627685558AD675906759000000300808001328000009071900010100380000001977006262023NYY17723ND6759800132062820232023177027486                                                                                                                                                                                                                                                                                                                                                                                                                                                                                                                                                                                              
06420880627685561AD675906759000000268498001258000009071900012040260000000129506262023NYY17723ND6759800125062820232023177027487                                                                                                                                                                                                                                                                                                                                                                                                                                                                                                                                                                                              
06420890627685564AD675906759000000268498001258000009071900012040270000000149506262023NYY17723ND6759800125062820232023177027488                                                                                                                                                                                                                                                                                                                                                                                                                                                                                                                                                                                              
06420900627685567AD675906759000000268498001258000009071900012040250000000619806262023NYY17723ND6759800125062820232023177027489                                                                                                                                                                                                                                                                                                                                                                                                                                                                                                                                                                                              
06420910627685570AD675906759000000268498001258000009071900012040220000002477006262023NYY17723ND6759800125062820232023177027490                                                                                                                                                                                                                                                                                                                                                                                                                                                                                                                                                                                              
06420920627685573AD675906759000000268498001258000009071900012040230000000979806262023NYY17723ND6759800125062820232023177027491                                                                                                                                                                                                                                                                                                                                                                                                                                                                                                                                                                                              
06420930627685576AD675906759000000151648008888000009071900010079310000000327406262023NYY17723ND6759800888062820232023177027492                                                                                                                                                                                                                                                                                                                                                                                                                                                                                                                                                                                              
06420940627685579AD675906759000000151648008888000009071900010079290000002487006262023NYY17723ND6759800888062820232023177027493                                                                                                                                                                                                                                                                                                                                                                                                                                                                                                                                                                                              
06420950627685582AD675906759000000151648008888000009071900010079320000000259506262023NYY17723ND6759800888062820232023177027494                                                                                                                                                                                                                                                                                                                                                                                                                                                                                                                                                                                              
06420960627685585AD675906759000000142748001028000009071900012266860000002126106262023NYY17723ND6759800102062820232023177027495                                                                                                                                                                                                                                                                                                                                                                                                                                                                                                                                                                                              
06420970627685588AD675906759000000151648008888000009071900013549790000001987006262023NYY17723ND6759800888062820232023177027496                                                                                                                                                                                                                                                                                                                                                                                                                                                                                                                                                                                              
06420980627685591AD675906759000000151648008888000009071900013549800000000654806262023NYY17723ND6759800888062820232023177027497                                                                                                                                                                                                                                                                                                                                                                                                                                                                                                                                                                                              
06420990627685594AD675906759000000151648008888000009071900017569940000001987006262023NYY17723ND6759800888062820232023177027498                                                                                                                                                                                                                                                                                                                                                                                                                                                                                                                                                                                              
06421000627685597AD675906759000000268498001258000009071900015957110000002477006262023NYY17723ND6759800125062820232023177027499                                                                                                                                                                                                                                                                                                                                                                                                                                                                                                                                                                                              
06421010627685600AD675906759000000151648008888000009071900013339200000001987006262023NYY17723ND6759800888062820232023177027500                                                                                                                                                                                                                                                                                                                                                                                                                                                                                                                                                                                              
06421020627685603AD675906759000000232598001168000009071900016322120000002178906262023NYY17723ND6759800116062820232023177027502                                                                                                                                                                                                                                                                                                                                                                                                                                                                                                                                                                                              
06421030629608726BH6759067590000001516480088880000090170627202317823000000000032200    0000090001198821N8008886759D06282023119                                                                                                                                                                                                                                                                                                                                                                                                                                                                                                                                                                                              
06421040629608727DT67590675900000015164800888800000010680088887287283178900011988185062620230000000198817823000000000032200521333XXXXXX4842                         YY 4607AMPLI529HJ0626  N840000000001988          81CNKETOFUSION833-923-3587   026806    MC84000000001988 NDR599977360677   C20DCB79D8T38966D50F976  000000000+600450S00130    MPL  00564                     000000000  N                0000000000000.00 0000000.00   0000000.00                             000000000000000                                                                                                                                                     015WPE 000000000000-0000000000000.35     01750 00000                  
06421050629608727DR675906759000000151648008888000000106C20DCB79D8T38966D50F976  R000000000000                                                                                                                                                                                                                                                                                                                                                                                                                                                                                                                                                                                                                               
06421060629600001G26759067590000001516480088880000001068014041097               UT           9 L               210                                      NNNN           210000000000000000000000000                        7                                          77360677                                                                                                                                                                                                                                                                                                                                                                                                                                               
06421070629608728DT67590675900000015164800888800000010680088887287283178900011988193062620230000001499017823000000000032200521333XXXXXX2267                         YY 4607AMPLG9ARHI0626  N840000000014990          81CNKETOFUSION833-923-3587   026260    MC84000000014990 NDR599977360677   E3A96C598ATA48A6CC4448B  000000000+600450S00130    MPL  00564                     000000000  N                0000000000000.00 0000000.00   0000000.00                             000000000000000                                                                                                                                                     015WPE 000000000000-0000000000002.62     01750 00000                  
06421080629608728DR675906759000000151648008888000000106E3A96C598ATA48A6CC4448B  R000000000000                                                                                                                                                                                                                                                                                                                                                                                                                                                                                                                                                                                                                               
06421090629600001G26759067590000001516480088880000001068014041097               UT           9 L               210                                      NNNN           210000000000000000000000000                        7                                          77360677                                                                                                                                                                                                                                                                                                                                                                                                                                               
06421100629608729DT67590675900000015164800888800000010680088874001193178900011988205062620230000001194817823000000000032200414720XXXXXX9034               0000000   YYV4 07T583177565487452N840000000011948775F00    01CNKETOFUSION833-923-3587   06860D    VS84000000011948 NDR599977360677   58F8F635C8T4C272F0197AB  000000000+                D CD 00245                     000000000  N000000000 166   0000000000000.00 0000000.00   0000000.00                             000000000000000                                                                                                                                                     015WPE 000000011948-0000000000002.10     01760 00000                  
06421110629608729DR67590675900000015164800888800000010658F8F635C8T4C272F0197AB  Y000000011948                 P1                                                                                                                                                                                                                                                                                                                                                                                                                                                                                                                                                                                                            
06421120629600001P16759067590000001516480088880000001060000000000000000                             2000000000000000000000000              000000000000                    0000000000000000000000000                    000000000000                                                                                                                                                                                                                                                                                                                                                                                                                                                                                        
06421130629600002G2675906759000000151648008888000000106801-4041097              UT           9 C                00                                      NNNN   Y                      000000000000                                                                   77360677                                                                                                                                                                                                                                                                                                                                                                                                                                               
06421140629608730DT67590675900000015164800888800000010680088887287283178900011988219062620230000000327417823000000000032200515676XXXXXX6459                         YY 4607AMWESBOOS90626  N840000000003274          81CNKETOFUSION833-923-3587   037648    MC84000000003274 NDR599977360677   44F0EC212CTC1CC8C4BC643  000000000+600450S00130    MWE  00564                     000000000  N                0000000000000.00 0000000.00   0000000.00                             000000000000000                                                                                                                                                     015WPE 000000000000-0000000000000.57     01750 00000                  
06421150629608730DR67590675900000015164800888800000010644F0EC212CTC1CC8C4BC643  Z000000000000                                                                                                                                                                                                                                                                                                                                                                                                                                                                                                                                                                                                                               
06421160629600001G26759067590000001516480088880000001068014041097               UT           9 E               210                                      NNNN           210000000000000000000000000                        7                                          77360677                                                                                                                                                                                                                                                                                                                                                                                                                                               
06421170630370002BH6759067590000001452280088880000090170627202317823000000000032342    0000090001030001N8008886759C06282023003                                                                                                                                                                                                                                                                                                                                                                                                                                                                                                                                                                                              
06421180630370003DT67590675900000014522800888800000010180088824001193178900010300019062720230000003234217823000000000032342480011XXXXXX3660               1001111   NYV1 A K583178680567363N840000000032342LRMS00    01DNRIP STRIPS LLC           05136B    VS84000000032342 NDR549977185156                            000000000+                B CB 12107                     000000000  N000000000 494   0000000000000.00 0000000.00   0000000.00                             000000000000000                                                                                                                                                     01418 E000000000000 0000000000006.70     02040 01000                  
06421190630370003DR675906759000000145228008888000000101                         Z000000000000                                                                                                                                                                                                                                                                                                                                                                                                                                                                                                                                                                                                                               
06421200630370001G2675906759000000145228008888000000101214-4972076              MI           5 C                00                                      NNNN   Y                      000000000000                                                                   77185156                                                                                                                                                                                                                                                                                                                                                                                                                                               
06421210630370004BH6759067590000000051389000189000090170627202317823000000000000105    0000090001010497N8900016759C06282023001                                                                                                                                                                                                                                                                                                                                                                                                                                                                                                                                                                                              
06421220630370005DT67590675900000000513890001890000010189000177287283178900010104975062720230000000010517823000000000000105558158XXXXXX7298                         NY 1 0 AMDBLDDK4Z0627  N840000000000105          07DNVERMONT STATE BANK DEJAVO2GLVQY    MD84000000000105 NP1549978644052                            000000000+M10101M0034C    MDB  00062                     000000000  N                0000000000000.00 0000000.00   0000000.00                             000000000000000                                                                                                                                                   B101418  000000000000 0000000000000.13     02650 01000                  
06421230630370001P1675906759000000005138900018900000101                                                          000000000000          1000            390335740                                                                                                                                                                                                                                                                                                                                                                                                                                                                                                                                                            
06421240630370002E167590675900000000513890001890000010100E008C800C5 00000000000.00404040404040404040404040404040404040404040404040400110A04001220000000000000000000000FF00000000000000000000000000  0000084019800000008001230627EE99F7D71AE34B6CE2CAADEA404040400840A0000000041010000000000000000000404040404040404040404040404040404040401F40404040 000000001.05 000000000.001F03020000000000000000    80                                                                                                                                                                                                                                                                                                                  
06421250630370003G2675906759000000005138900018900000101VERMONT                  IL           5 B                                    390335740           YNNN              000000000000000000000000                        7                                          78644052                                                                                                                                                                                                                                                                                                                                                                                                                                               
06421260630370006BH6759067590000000288180088880000090170627202317823000000000063849    0000090001500011N8008886759C06282023150                                                                                                                                                                                                                                                                                                                                                                                                                                                                                                                                                                                              
06421270630370007DT67590675900000002881800888800000010180088824001193178900015000010062720230000001646317823000000000063849443238XXXXXX1385       VS11    0001111   NYV1 A E303178612168784N840000000016463CMFW00    05DNHAPPY HIPPIE             030016    VD84000000016463 N  549976487134                            000000000+                F DF 00381                     000000000  N000000000       0000000000000.00 0000000.00   0000000.00                             000000000000000                                                                                                                                                     01418 A000000000000 0000000000001.47     00800 01500                  
06421280630370001E167590675900000002881800888800000010100E0F8C800A1 00000000000.004040404040404040404040404040404040404040404040404006011203A02000000000000000000000404040404040404040404040404040  000008401800808000800023062780E52CB2BA29C8AC21B52706404040400840A0000000031010000000000000000000404040404040404040404040404040404040401E40404040 000000164.63 000000000.001E00000000000000000000    80                                                                                                                                                                                                                                                                                                                  
06421290630370002G2675906759000000028818008888000000101SEVIERVILLE              TN           5 D                00                                      NNNN00 N 00                   000000000000                                                                   76487134                                                                                                                                                                                                                                                                                                                                                                                                                                               
06421300630370008DT67590675900000002881800888800000010180088876509753178900015000026062720230000000989817823000000000063849601100XXXXXX9052   BA50                  NY41 0 N753153398546879N840000000009898    00    05DNHAPPY HIPPIE             02797R    DS84000000009898 N  549976487134050                         000000000+0000004910H00   DCCDI01000166013  100414000000 000000000  0          112   0000000000000.00 0000000.00   0000000.00                             000000000000000                                                                                                                                                     01418  000000000000 0000000000001.80     01720 01000                  
06421310630370001E167590675900000002881800888800000010100E0F8C80021 00000000000.00404040404040404040404040404040404040404040404040400105A0800F8000000000000000000000404040404040404040404040404040  0001084078000000008000230627E52E9604E459A1E149C9DC78404040400840A0000001523010000000000000000000D37FEA4407674A8100320000000000004040401E40404040 000000098.98 000000000.001E03000000000000000000    80                                                                                                                                                                                                                                                                                                                  
06421320630370002G2675906759000000028818008888000000101SEVIERVILLE              TN           5 C                00                                      NNNN                          000000000000                         00000650975601179750000063                76487134                                                                                                                                                                                                                                                                                                                                                                                                                                               
06421330630370009DT67590675900000002881800888800000010180088824001193178900015000036062720230000000335417823000000000063849449507XXXXXX5742       VS11    0001111   NYV1 A E583178620738661N840000000003354N45H00    05DNHAPPY HIPPIE             031434    VD84000000003354 N  549976487134                            000000000+                F DF 00381                     000000000  N000000000       0000000000000.00 0000000.00   0000000.00                             000000000000000                                                                                                                                                     01418 A000000000000 0000000000000.42     00800 01500                  
06421340630370001E167590675900000002881800888800000010100E0F8C800A2 00000000000.004040404040404040404040404040404040404040404040404006011203A08000000000000000000000404040404040404040404040404040  00000840180080800080002306275F92A3F1E224E2754A61A248404040400840A0000000031010000000000000000000404040404040404040404040404040404040401E40404040 000000033.54 000000000.001E00000000000000000000    80                                                                                                                                                                                                                                                                                                                  
06421350630370002G2675906759000000028818008888000000101SEVIERVILLE              TN           5 D                00                                      NNNN00 N 00                   000000000000                                                                   76487134                                                                                                                                                                                                                                                                                                                                                                                                                                               
06421360630370010DT67590675900000002881800888800000010180088824001193178900015000044062720230000000362117823000000000063849435793XXXXXX5791       VS11    0001111   NYV1 A E463178649901126N840000000003621XTJH00    05DNHAPPY HIPPIE             000014    VD84000000003621 N  549976487134                            000000000+                F DF 00381                     000000000  N000000000       0000000000000.00 0000000.00   0000000.00                             000000000000000                                                                                                                                                     01418 A000000000000 0000000000000.44     00800 01500                  
06421370630370001E167590675900000002881800888800000010100E0F8C801B9 00000000000.004040404040404040404040404040404040404040404040404006011203A0A000000000000000000000404040404040404040404040404040  0000084018008080008000230627DA9E52217F14F9C05F717274404040400840A00000000310100000000000000000006C0B6D6A0382000000000000000000004040401E40404040 000000036.21 000000000.001E00000000000000000000    80                                                                                                                                                                                                                                                                                                                  
06421380630370002G2675906759000000028818008888000000101SEVIERVILLE              TN           5 D                00                                      NNNN00 N 00                   000000000000                                                                   76487134                                                                                                                                                                                                                                                                                                                                                                                                                                               
06421390630370011DT67590675900000002881800888800000010180088824001193178900015000051062720230000000344417823000000000063849479213XXXXXX8709       VS11    0001111   NYV1 A E303178673159837N8400000000034443G8G00    05DNHAPPY HIPPIE             034156    VD84000000003444 N  549976487134                            000000000+                F DF 10433                     000000000  Y000000000 338   0000000000000.00 0000000.00   0000000.00                             000000000000000                                                                                                                                                     01418 A000000000000 0000000000000.24     00050 02200                  
06421400630370001E167590675900000002881800888800000010100E0F8C80811 00000000000.004040404040404040404040404040404040404040404040404006010A03A00000000000000000000000404040404040404040404040404040  0000084018008080008000230627F6335B8DB81B1092EE3B7330404040400840A0000000031010000000000000000000B78785C577E1BC4830300000000000004040401E40404040 000000034.44 000000000.001E00000000000000000000    80                                                                                                                                                                                                                                                                                                                  
06421410630370002G2675906759000000028818008888000000101SEVIERVILLE              TN           5 D                00                                      NNNN00 N 00                   000000000000                                                                   76487134                                                                                                                                                                                                                                                                                                                                                                                                                                               
06421420630370012DT67590675900000002881800888800000010180088824001193178900015000069062720230000000461017823000000000063849406145XXXXXX5131       VS11    0001111   NYV1 A E303178688147378N840000000004610BTKN00    07DNHAPPY HIPPIE             055420    VD84000000004610 N  549976487134                            000000000+                F DF 10433                     000000000  Y000000000 338   0000000000000.00 0000000.00   0000000.00                             000000000000000                                                                                                                                                     01418 A000000000000 0000000000000.24     00050 02200                  
06421430630370001E167590675900000002881800888800000010100E068C800A0 00000000000.00404040404040404040404040404040404040404040404040401F4AFF32A00000000010030273000000004000000000000000000000000000  00000840006000000000002306275A5F0A71D83D31253958BEAF404040400840A00000000310100000000000000000002A0C1431EC94645830300000000000004040404040404040 000000046.10 000000000.004040400000000000000000    80                                                                                                                                                                                                                                                                                                                  
06421440630370002G2675906759000000028818008888000000101SEVIERVILLE              TN           5 D                00                                      NNNN00 N 00                   000000000000                                                                   76487134                                                                                                                                                                                                                                                                                                                                                                                                                                               
06421450630370013DT67590675900000002881800888800000010180088824001193178900015000077062720230000000098817823000000000063849422921XXXXXX6793       VK04VS111111111   NYV1 A E463178693622925N840000000000988J9KS00    05DNHAPPY HIPPIE             054963    VD84000000000988 N  549976487134                            000000000+                F DF 00451                     000000000  N000000000 214   0000000000000.00 0000000.00   0000000.00                             000000000000000                                                                                                                                                     01418 F000000000000 0000000000000.19     01550 00400                  
06421460630370001E167590675900000002881800888800000010100E0F8C800D4 00000000000.004040404040404040404040404040404040404040404040404006011203A08000000000000000000000404040404040404040404040404040  0000084018008080008000230627D1C75C0F32F36B28B87AF240404040400840A000000003101000000000000000000055B276260382000000000000000000004040401E40404040 000000009.88 000000000.001E00000000000000000000    80                                                                                                                                                                                                                                                                                                                  
06421470630370002G2675906759000000028818008888000000101SEVIERVILLE              TN           5 D                00                                      NNNN00 N 00                   000000000000                                                                   76487134                                                                                                                                                                                                                                                                                                                                                                                                                                               
06421480630370014DT67590675900000002881800888800000010180088877287283178900015000087062720230000000887617823000000000063849511953XXXXXX5690       MS02WI09          NY 1 0 AMDJK7QNOW0627  N840000000008876          07DNHAPPY HIPPIE             021268    MD84000000008876 N  549976487134                            000000000+M10101M5434C    MDJ  00402                     000000000  N                0000000000000.00 0000000.00   0000000.00                             000000000000000                                                                                                                                                   B101418  000000000000 0000000000001.08     01050 01500                  
06421490630370001E1675906759000000028818008888000000101000060C800C6 00000000000.00404040404040404040404040404040404040404040404040400110A04001220000000000000000000000FF00000000000000000000000000  000108401980000000800123062716C1E9EB3082FC5D4B634547404040400840A0000000041010000000000000000000404040404040404040404040404040404040401E40404040 000000088.76 000000000.001E03000000000000000000    80                                                                                                                                                                                                                                                                                                                  
06421500630370002G2675906759000000028818008888000000101SEVIERVILLE              TN           5 J                                                        NNNN              000000000000000000000000       03               7                                          76487134                                                                                                                                                                                                                                                                                                                                                                                                                                               
06421510630370015DT67590675900000002881800888800000010180088824001193178900015000093062720230000000306017823000000000063849443264XXXXXX8085       VS11    0001111   NYV1 A E583178705132069N840000000003060DF7700    05DNHAPPY HIPPIE             023707    VD84000000003060 N  549976487134                            000000000+                F DF 10433                     000000000  Y000000000 338   0000000000000.00 0000000.00   0000000.00                             000000000000000                                                                                                                                                     01418 A000000000000 0000000000000.24     00050 02200                  
06421520630370001E167590675900000002881800888800000010100E0F8C80123 00000000000.004040404040404040404040404040404040404040404040404006011203A08000000000000000000000404040404040404040404040404040  0000084018008080008000230627223CE5CB468C3B2E7A4DC521404040400840A0000000031010000000000000000000F4AD7CBF0080000000000000000000004040401E40404040 000000030.60 000000000.001E00000000000000000000    80                                                                                                                                                                                                                                                                                                                  
06421530630370002G2675906759000000028818008888000000101SEVIERVILLE              TN           5 D                00                                      NNNN00 N 00                   000000000000                                                                   76487134                                                                                                                                                                                                                                                                                                                                                                                                                                               
06421540630370016DT67590675900000002881800888800000010180088824001193178900015000101062720230000000395017823000000000063849480639XXXXXX7870       VS11    0001111   NYV1 A E383178706266833N8400000000039504WX900    05DNHAPPY HIPPIE             393564    VD84000000003950 N  549976487134                            000000000+                F DF 00381                     000000000  N000000000       0000000000000.00 0000000.00   0000000.00                             000000000000000                                                                                                                                                     01418 A000000000000 0000000000000.47     00800 01500                  
06421550630370001E167590675900000002881800888800000010100E0F8C80095 00000000000.004040404040404040404040404040404040404040404040404006011203A02000000000000000000000404040404040404040404040404040  000008401800808000800023062736B68ED70C7BD2755422FF6B404040400840A0000000031010000000000000000000CF5CDBA30080000000000000000000004040401E40404040 000000039.50 000000000.001E00000000000000000000    80                                                                                                                                                                                                                                                                                                                  
06421560630370002G2675906759000000028818008888000000101SEVIERVILLE              TN           5 D                00                                      NNNN00 N 00                   000000000000                                                                   76487134                                                                                                                                                                                                                                                                                                                                                                                                                                               
06421570630370017DT67590675900000002881800888800000010180088824001193178900015000119062720230000000558517823000000000063849419090XXXXXX1975       VS11    0001111   NYV1 A E463178726952091N840000000005585BDD500    05DNHAPPY HIPPIE             392204    VD84000000005585 N  549976487134                            000000000+                F DF 00381                     000000000  N000000000       0000000000000.00 0000000.00   0000000.00                             000000000000000                                                                                                                                                     01418 A000000000000 0000000000000.60     00800 01500                  
06421580630370001E167590675900000002881800888800000010100E0F8C800B1 00000000000.004040404040404040404040404040404040404040404040404006011203A0A000000000000000000000404040404040404040404040404040  00010840180080800080002306276CEE367BFD0C59EF115737E0404040400840A00000000310100000000000000000008B74F2FA0080000000000000000000004040401E40404040 000000055.85 000000000.001E00000000000000000000    80                                                                                                                                                                                                                                                                                                                  
06421590630370002G2675906759000000028818008888000000101SEVIERVILLE              TN           5 D                00                                      NNNN00 N 00                   000000000000                                                                   76487134                                                                                                                                                                                                                                                                                                                                                                                                                                               
06421600630370018BH6759067590000000995180010180000090170627202317823000000000014207    0000090001040005N8001016759C06282023104                                                                                                                                                                                                                                                                                                                                                                                                                                                                                                                                                                                              
06421610630370019DT67590675900000009951800101800000010180010124001193178900010400017062720230000000136017823000000000014207440393XXXXXX7027       VK04VS111111111   NYV1 A E303178586125487N840000000001360JPSB00    07DNPLANET VAPOR INC #600    359925    VD84000000001360 N  599977384956                            000000000+                F PF 08165                     000000000  N000000000       0000000000000.00 0000000.00   0000000.00                             000000000000000                                                                                                                                                     01418 F000000000000 0000000000000.27     01600 00500                  
06421620630370001E167590675900000009951800101800000010100E068C80046 00000000000.004040404040404040404040404040404040404040404040404006011203A00000000000000000000000404040404040404040404040404040  0000084020000000000000230627C3A264D5F7BB011B53E67E2D404040400840A00000000310100000000000000000000AECDF3A1C26F81130300000000000004040404040404040 000000013.60 000000000.004040400000000000000000    80                                                                                                                                                                                                                                                                                                                  
06421630630370002G2675906759000000099518001018000000101FLORENCE                 SC           5 P                00                                      NNNN00 N 00                   000000000000                                                                   77384956                                                                                                                                                                                                                                                                                                                                                                                                                                               
06421640630370020DT67590675900000009951800101800000010180010124001193178900010400025062720230000000270017823000000000014207498503XXXXXX3069       VS11    0001111   NYV1 A E463178587198720N8400000000027007ZKP00    05DNPLANET VAPOR INC #600    035764    VD84000000002700 N  599977384956                            000000000+                F DF 00381                     000000000  N000000000       0000000000000.00 0000000.00   0000000.00                             000000000000000                                                                                                                                                     01418 A000000000000 0000000000000.37     00800 01500                  
06421650630370001E167590675900000009951800101800000010100E0F8C8001D 00000000000.004040404040404040404040404040404040404040404040404006011203A09000000000000000000000404040404040404040404040404040  000008401800808000800023062727F3AC7D2DE4A29BEF5CB68C404040400840A00000000310100000000000000000007361BA200080000000000000000000004040401E40404040 000000027.00 000000000.001E00000000000000000000    80                                                                                                                                                                                                                                                                                                                  
06421660630370002G2675906759000000099518001018000000101FLORENCE                 SC           5 D                00                                      NNNN00 N 00                   000000000000                                                                   77384956                                                                                                                                                                                                                                                                                                                                                                                                                                               
06421670630370021DT67590675900000009951800101800000010180010124001193178900010400033062720230000000194317823000000000014207448261XXXXXX0704       VS11    0001111   NYV1 A E383178595768632N840000000001943MTSZ00    05DNPLANET VAPOR INC #600    333014    VD84000000001943 N  599977384956                            000000000+                F DF 10433                     000000000  Y000000000 338   0000000000000.00 0000000.00   0000000.00                             000000000000000                                                                                                                                                     01418 A000000000000 0000000000000.23     00050 02200                  
06421680630370001E167590675900000009951800101800000010100E0F8C80379 00000000000.004040404040404040404040404040404040404040404040404006011203A0A000000000000000000000404040404040404040404040404040  0002084018008080008000230627AC7F79A2D6945A1C1117AE5A404040400840A0000000031010000000000000000000A11AF5500382000000000000000000004040401E40404040 000000019.43 000000000.001E00000000000000000000    80                                                                                                                                                                                                                                                                                                                  
06421690630370002G2675906759000000099518001018000000101FLORENCE                 SC           5 D                00                                      NNNN00 N 00                   000000000000                                                                   77384956                                                                                                                                                                                                                                                                                                                                                                                                                                               
06421700630370022DT67590675900000009951800101800000010180010124001193178900010400041062720230000000388617823000000000014207414109XXXXXX0511       VS11    0001111   NYV1 A E303178648959291N840000000003886VXHC00    07DNPLANET VAPOR INC #600    027111    VS84000000003886 N  599977384956                            000000000+                C CC 12112                     000000000  N000000000 497   0000000000000.00 0000000.00   0000000.00                             000000000000000                                                                                                                                                     01418 A000000000000 0000000000000.74     01650 01000                  
06421710630370001E167590675900000009951800101800000010100E068C80479 00000000000.004040404040404040404040404040404040404040404040404006011203A00000000000000000000000404040404040404040404040404040  0004084000000000000000230627DB4939CDB5C2302E89043389404040400840A0000000031010000000000000000000404040404040404040404040404040404040404040404040 000000038.86 000000000.004040400000000000000000    80                                                                                                                                                                                                                                                                                                                  
06421720630370002G2675906759000000099518001018000000101FLORENCE                 SC           5 C                00                                      NNNN00 N 00                   000000000000                                                                   77384956                                                                                                                                                                                                                                                                                                                                                                                                                                               
06421730630370023DT67590675900000009951800101800000010180010124001193178900010400058062720230000000431817823000000000014207473703XXXXXX3765       VS11    0001111   NYV1 A E303178673590396N8400000000043185FVQ00    05DNPLANET VAPOR INC #600    025409    VD84000000004318 N  599977384956                            000000000+                F DF 10433                     000000000  Y000000000 338   0000000000000.00 0000000.00   0000000.00                             000000000000000                                                                                                                                                     01418 A000000000000 0000000000000.24     00050 02200                  
06421740630370001E167590675900000009951800101800000010100E0F8C8061D 00000000000.004040404040404040404040404040404040404040404040404006061203A0A000000000000000000000404040404040404040404040404040  0000084018008080008000230627E2B41F6FF0EFA5FABF0220FF404040400840A000000003101000000000000000000040C070F0C0B070B020200000000000004040401E40404040 000000043.18 000000000.001E00000000000000000000    80                                                                                                                                                                                                                                                                                                                  
06421750630370002G2675906759000000099518001018000000101FLORENCE                 SC           5 D                00                                      NNNN00 N 00                   000000000000                                                                   77384956                                                                                                                                                                                                                                                                                                                                                                                                                                               
06421760630370024BH6759067590000000288180088880000090170627202317823000000000142699    0000090001470026N8008886759C06282023047                                                                                                                                                                                                                                                                                                                                                                                                                                                                                                                                                                                              
06421770630370025DT67590675900000002881800888800000010180088824001193178900014700016062720230000000286217823000000000142699419090XXXXXX9623       VS11    0001111   NYV1 A E303178514912749N840000000002862F62600    05DNHAPPY HIPPIE             380678    VD84000000002862 N  549976487169                            000000000+                F DF 00381                     000000000  N000000000       0000000000000.00 0000000.00   0000000.00                             000000000000000                                                                                                                                                     01418 A000000000000 0000000000000.38     00800 01500                  
06421780630370001E167590675900000002881800888800000010100E0F8C800C1 00000000000.004040404040404040404040404040404040404040404040404006011203A0A000000000000000000000404040404040404040404040404040  000208401800808000800023062734376BDFB85E8DF965019146404040400840A0000000031010000000000000000000B90027660082000000000000000000004040401E40404040 000000028.62 000000000.001E00000000000000000000    80                                                                                                                                                                                                                                                                                                                  
06421790630370002G2675906759000000028818008888000000101SEVIERVILLE              TN           5 D                00                                      NNNN00 N 00                   000000000000                                                                   76487169                                                                                                                                                                                                                                                                                                                                                                                                                                               
06421800630370026DT67590675900000002881800888800000010180088824001193178900014700024062720230000000768317823000000000142699451440XXXXXX1209       VS11    0001111   NYV1 A E463178522362084N840000000007683B9DL00    05DNHAPPY HIPPIE             073037    VD84000000007683 N  549976487169                            000000000+                F PF 08170                     000000000  N000000000       0000000000000.00 0000000.00   0000000.00                             000000000000000                                                                                                                                                     01418 A000000000000 0000000000001.03     01150 01500                  
06421810630370001E167590675900000002881800888800000010100E0F8C80017 00000000000.004040404040404040404040404040404040404040404040404006011203A08000000000000000000000404040404040404040404040404040  0000084018008080008000230627EA55E3777F49729A55CD974F404040400840A0000000031010000000000000000000404040404040404040404040404040404040401E40404040 000000076.83 000000000.001E00000000000000000000    80                                                                                                                                                                                                                                                                                                                  
06421820630370002G2675906759000000028818008888000000101SEVIERVILLE              TN           5 P                00                                      NNNN00 N 00                   000000000000                                                                   76487169                                                                                                                                                                                                                                                                                                                                                                                                                                               
06421830630370027DT67590675900000002881800888800000010180088877287283178900014700034062720230000000355517823000000000142699514377XXXXXX1883       MS02WI09          NY 1 0 AMDJCGQCA70627  N840000000003555          07DNHAPPY HIPPIE             1FVQUM    MD84000000003555 N  549976487169                            000000000+M10101M0034C    MDJ  00402                     000000000  N                0000000000000.00 0000000.00   0000000.00                             000000000000000                                                                                                                                                   B101418  000000000000 0000000000000.52     01050 01500                  
06421840630370001E1675906759000000028818008888000000101000008480681 00000000000.00404040404040404040404040404040404040404040404040400110A04001220000000000000000000000FF00000000000000000000000000  00010840198000000080012306277C7E884CC7476ACCA7F4148F404040400840A0000000041010000000000000000000404040404040404040404040404040404040401F40404040 000000035.55 000000000.001F03020000000000000000    80                                                                                                                                                                                                                                                                                                                  
06421850630370002G2675906759000000028818008888000000101SEVIERVILLE              TN           5 J                                                        NNNN              000000000000000000000000       03               7                                          76487169                                                                                                                                                                                                                                                                                                                                                                                                                                               
06421860630370028DT67590675900000002881800888800000010180088824001193178900014700040062720230000000148117823000000000142699435546XXXXXX4132       VK04VS111111111   NYV1 A E303178554881130N8400000000014817CPJ00    05DNHAPPY HIPPIE             031092    VD84000000001481 N  549976487169                            000000000+                F DF 10439                     000000000  Y000000000 331   0000000000000.00 0000000.00   0000000.00                             000000000000000                                                                                                                                                     01418 F000000000000 0000000000000.23     00050 02200                  
06421870630370001E167590675900000002881800888800000010100E0F8C80076 00000000000.004040404040404040404040404040404040404040404040404006011203A08000000000000000000000404040404040404040404040404040  0001084018008080008000230627E0CD6B62D5F180BCA808D4E4404040400840A0000000031010000000000000000000C074CF0C0082000000000000000000004040401E40404040 000000014.81 000000000.001E00000000000000000000    80                                                                                                                                                                                                                                                                                                                  
06421880630370002G2675906759000000028818008888000000101SEVIERVILLE              TN           5 D                00                                      NNNN00 N 00                   000000000000                                                                   76487169                                                                                                                                                                                                                                                                                                                                                                                                                                               
06421890630370029DT67590675900000002881800888800000010180088824001193178900014700057062720230000000439017823000000000142699414776XXXXXX1458       VS11    0001111   NYV1 A E383178556087757N840000000004390RQMB00    07DNHAPPY HIPPIE             017262    VS84000000004390 N  549976487169                            000000000+                D CD 12113                     000000000  N000000000 499   0000000000000.00 0000000.00   0000000.00                             000000000000000                                                                                                                                                     01418 A000000000000 0000000000001.02     02100 01000                  
06421900630370001E167590675900000002881800888800000010100E068C80083 00000000000.004040404040404040404040404040404040404040404040404006011203A00000000000000000000000404040404040404040404040404040  000308402000000000000023062777A2D4C7A0F3E29BCDA51E24404040400840A0000000031010000000000000000000404040404040404040404040404040404040404040404040 000000043.90 000000000.004040400000000000000000    80                                                                                                                                                                                                                                                                                                                  
06421910630370002G2675906759000000028818008888000000101SEVIERVILLE              TN           5 C                00                                      NNNN00 Y 00                   000000000000                                                                   76487169                                                                                                                                                                                                                                                                                                                                                                                                                                               
06421920630370030DT67590675900000002881800888800000010180088824001193178900014700065062720230000000131417823000000000142699443238XXXXXX2029       VK04VS111111111   NYV1 A E303178562087108N840000000001314BKFX00    07DNHAPPY HIPPIE             013648    VD84000000001314 N  549976487169                            000000000+                F DF 00451                     000000000  N000000000 214   0000000000000.00 0000000.00   0000000.00                             000000000000000                                                                                                                                                     01418 F000000000000 0000000000000.24     01550 00400                  
06421930630370001E167590675900000002881800888800000010100E068C800F3 00000000000.004040404040404040404040404040404040404040404040404006011203A00000000000000000000000404040404040404040404040404040  0000084020000000000000230627D68F3C05117A3FAD18A5D73E404040400840A0000000031010000000000000000000404040404040404040404040404040404040404040404040 000000013.14 000000000.004040400000000000000000    80                                                                                                                                                                                                                                                                                                                  
06421940630370002G2675906759000000028818008888000000101SEVIERVILLE              TN           5 D                00                                      NNNN00 N 00                   000000000000                                                                   76487169                                                                                                                                                                                                                                                                                                                                                                                                                                               
06421950630370031DT67590675900000002881800888800000010180088824001193178900014700073062720230000000208417823000000000142699427153XXXXXX1493       VS11    0001111   NYV1 A E463178568906240N840000000002084926W00    05DNHAPPY HIPPIE             169005    VD84000000002084 N  549976487169                            000000000+                F DF 00381                     000000000  N000000000       0000000000000.00 0000000.00   0000000.00                             000000000000000                                                                                                                                                     01418 A000000000000 0000000000000.32     00800 01500                  
06421960630370001E167590675900000002881800888800000010100E0F8C800C1 00000000000.004040404040404040404040404040404040404040404040404006011203A0A000000000000000000000404040404040404040404040404040  000008401800808000800023062731337E065D3544B09F9293C8404040400840A0000000031010000000000000000000D42D79930382000000000000000000004040401E40404040 000000020.84 000000000.001E00000000000000000000    80                                                                                                                                                                                                                                                                                                                  
06421970630370002G2675906759000000028818008888000000101SEVIERVILLE              TN           5 D                00                                      NNNN00 N 00                   000000000000                                                                   76487169                                                                                                                                                                                                                                                                                                                                                                                                                                               
06421980630370032DT67590675900000002881800888800000010180088824001193178900014700081062720230000001677717823000000000142699415978XXXXXX7833       VS11    0001111   NYV1 A E383178580741648N840000000016777JBZ800    05DNHAPPY HIPPIE             016815    VD84000000016777 N  549976487169                            000000000+                F DF 10433                     000000000  Y000000000 338   0000000000000.00 0000000.00   0000000.00                             000000000000000                                                                                                                                                     01418 A000000000000 0000000000000.30     00050 02200                  
06421990630370001E167590675900000002881800888800000010100E0F8C804FC 00000000000.004040404040404040404040404040404040404040404040404006011203A0A000000000000000000000404040404040404040404040404040  000008401800808000800023062716081CB01B4E327072F91524404040400840A0000000031010000000000000000000766D181C9E30C2CD30300000000000004040401E40404040 000000167.77 000000000.001E00000000000000000000    80                                                                                                                                                                                                                                                                                                                  
06422000630370002G2675906759000000028818008888000000101SEVIERVILLE              TN           5 D                00                                      NNNN00 N 00                   000000000000                                                                   76487169                                                                                                                                                                                                                                                                                                                                                                                                                                               
06422010630370033DT67590675900000002881800888800000010180088824001193178900014700099062720230000001107317823000000000142699411600XXXXXX4357       VS11    0001111   NYV1 A E583178584985582N840000000011073XHMW00    05DNHAPPY HIPPIE             091459    VD84000000011073 N  549976487169                            000000000+                F PF 08170                     000000000  N000000000       0000000000000.00 0000000.00   0000000.00                             000000000000000                                                                                                                                                     01418 A000000000000 0000000000001.42     01150 01500                  
06422020630370001E167590675900000002881800888800000010100E0F8C801B8 00000000000.004040404040404040404040404040404040404040404040404006011203A08000000000000000000000404040404040404040404040404040  00000840180080800080002306279DC93B8041F8ACF83C779F5E404040400840A0000000031010000000000000000000404040404040404040404040404040404040401E40404040 000000110.73 000000000.001E00000000000000000000    80                                                                                                                                                                                                                                                                                                                  
06422030630370002G2675906759000000028818008888000000101SEVIERVILLE              TN           5 P                00                                      NNNN00 N 00                   000000000000                                                                   76487169                                                                                                                                                                                                                                                                                                                                                                                                                                               
06422040630370034DT67590675900000002881800888800000010180088824001193178900014700107062720230000001580117823000000000142699435547XXXXXX4213       VS11    0001111   NYV1 A E383178597997375N84000000001580146P600    05DNHAPPY HIPPIE             131136    VD84000000015801 N  549976487169                            000000000+                F DF 10433                     000000000  Y000000000 338   0000000000000.00 0000000.00   0000000.00                             000000000000000                                                                                                                                                     01418 A000000000000 0000000000000.30     00050 02200                  
06422050630370001E167590675900000002881800888800000010100E0F8C80258 00000000000.004040404040404040404040404040404040404040404040404006011203A08000000000000000000000404040404040404040404040404040  0001084018008080008000230627E8331BB6CC5A2D170EF4139F404040400840A00000000310100000000000000000006DBB515D0082000000000000000000004040401E40404040 000000158.01 000000000.001E00000000000000000000    80                                                                                                                                                                                                                                                                                                                  
06422060630370002G2675906759000000028818008888000000101SEVIERVILLE              TN           5 D                00                                      NNNN00 N 00                   000000000000                                                                   76487169                                                                                                                                                                                                                                                                                                                                                                                                                                               
06422070630370035DT67590675900000002881800888800000010180088824001193178900014700115062720230000000197617823000000000142699419090XXXXXX6989       VS11    0001111   NYV1 A E303178600220405N840000000001976GQX700    05DNHAPPY HIPPIE             385256    VD84000000001976 N  549976487169                            000000000+                F DF 00381                     000000000  N000000000       0000000000000.00 0000000.00   0000000.00                             000000000000000                                                                                                                                                     01418 A000000000000 0000000000000.31     00800 01500                  
06422080630370001E167590675900000002881800888800000010100E0F8C80060 00000000000.004040404040404040404040404040404040404040404040404006011203A0A000000000000000000000404040404040404040404040404040  00010840180080800080002306275AE007FC867B7AA2A9196CF6404040400840A000000003101000000000000000000058EA1E9A0080000000000000000000004040401E40404040 000000019.76 000000000.001E00000000000000000000    80                                                                                                                                                                                                                                                                                                                  
06422090630370002G2675906759000000028818008888000000101SEVIERVILLE              TN           5 D                00                                      NNNN00 N 00                   000000000000                                                                   76487169                                                                                                                                                                                                                                                                                                                                                                                                                                               
06422100630370036DT67590675900000002881800888800000010180088877287283178900014700125062720230000000554717823000000000142699511953XXXXXX4370       MS02WI09          NY 1 0 AMDJZ4KJ7G0627  N840000000005547          05DNHAPPY HIPPIE             090433    MD84000000005547 N  549976487169                            000000000+M10101C5434C    MDJ  00402                     000000000  N                0000000000000.00 0000000.00   0000000.00                             000000000000000                                                                                                                                                   B101418  000000000000 0000000000000.73     01050 01500                  
06422110630370001E167590675900000002881800888800000010100E0F8C8017B 00000000000.00404040404040404040404040404040404040404040404040400110A04001220000000000000000000000FF00000000000000000000000000  0000084039000000008000230627D003FDA4A2F590A68B4E439B404040400840A00000000410100000000000000000004DF9F9A594CC51F1031A0000000000004040401E40404040 000000055.47 000000000.001E03000000000000000000    80                                                                                                                                                                                                                                                                                                                  
06422120630370002G2675906759000000028818008888000000101SEVIERVILLE              TN           5 J                                                        NNNN              000000000000000000000000                        7                                          76487169                                                                                                                                                                                                                                                                                                                                                                                                                                               
06422130630370037DT67590675900000002881800888800000010180088824001193178900014700131062720230000000438917823000000000142699435787XXXXXX8850       VS11    0001111   NYV1 A E383178623602680N840000000004389GPMJ00    07DNHAPPY HIPPIE             07627A    VS84000000004389 N  549976487169                            000000000+                A CA 12110                     000000000  N000000000 493   0000000000000.00 0000000.00   0000000.00                             000000000000000                                                                                                                                                     01418 A000000000000 0000000000000.76     01510 01000                  
06422140630370001E167590675900000002881800888800000010100E068C80029 00000000000.004040404040404040404040404040404040404040404040404006021203A00000000000000000000000404040404040404040404040404040  0004084020000000000000230627A066AD774DA78C1648C63F49404040400840A0000000031010000000000000000000D40F6B950082000000000000000000004040404040404040 000000043.89 000000000.004040400000000000000000    80                                                                                                                                                                                                                                                                                                                  
06422150630370002G2675906759000000028818008888000000101SEVIERVILLE              TN           5 C                00                                      NNNN00 Y 00                   000000000000                                                                   76487169                                                                                                                                                                                                                                                                                                                                                                                                                                               
06422160630370038DT67590675900000002881800888800000010180088877287283178900014700141062720230000000395017823000000000142699517805XXXXXX4473       MS02WI09          NY 1 0 AMCWRAEBC10627  N840000000003950          07DNHAPPY HIPPIE             05285P    MC84000000003950 N  549976487169                            000000000+M10101M0034C    MCW  00646                     000000000  N                0000000000000.00 0000000.00   0000000.00                             000000000000000                                                                                                                                                   B101418  000000000000 0000000000000.79     01900 00400                  
06422170630370001E167590675900000002881800888800000010100000848002B 00000000000.00404040404040404040404040404040404040404040404040400110A04001220000000000000000000000FF00000000000000000000000000  00010840198000000080012306272F0AA5F0E4334E6C9DC43146404040400840A0000000041010000000000000000000404040404040404040404040404040404040401F40404040 000000039.50 000000000.001F03020000000000000000    80                                                                                                                                                                                                                                                                                                                  
06422180630370002G2675906759000000028818008888000000101SEVIERVILLE              TN           5 W                                                        NNNN              000000000000000000000000       03               7                                          76487169                                                                                                                                                                                                                                                                                                                                                                                                                                               
06422190630370039DT67590675900000002881800888800000010180088877287283178900014700158062720230000000641817823000000000142699511953XXXXXX0941       MS02WI09          NY 1 0 AMDJIM2SOW0627  N840000000006418          07DNHAPPY HIPPIE             002777    MD84000000006418 N  549976487169                            000000000+M10101M5434C    MDJ  00402                     000000000  N                0000000000000.00 0000000.00   0000000.00                             000000000000000                                                                                                                                                   B101418  000000000000 0000000000000.82     01050 01500                  
06422200630370001E1675906759000000028818008888000000101000060C8000D 00000000000.00404040404040404040404040404040404040404040404040400110A04001220000000000000000000000FF00000000000000000000000000  00010840198000000080012306270D66AAFF9B1FF019692C92C9404040400840A0000000041010000000000000000000404040404040404040404040404040404040401E40404040 000000064.18 000000000.001E03000000000000000000    80                                                                                                                                                                                                                                                                                                                  
06422210630370002G2675906759000000028818008888000000101SEVIERVILLE              TN           5 J                                                        NNNN              000000000000000000000000       03               7                                          76487169                                                                                                                                                                                                                                                                                                                                                                                                                                               
06422220630370040DT67590675900000002881800888800000010180088824001193178900014700164062720230000001020517823000000000142699480639XXXXXX4699       VS11    0001111   NYV1 A E303178672466642N840000000010205W47H00    05DNHAPPY HIPPIE             392093    VD84000000010205 N  549976487169                            000000000+                F DF 00381                     000000000  N000000000       0000000000000.00 0000000.00   0000000.00                             000000000000000                                                                                                                                                     01418 A000000000000 0000000000000.97     00800 01500                  
06422230630370001E167590675900000002881800888800000010100E0F8C8000C 00000000000.004040404040404040404040404040404040404040404040404006011203A0B000000000000000000000404040404040404040404040404040  0000084018008080008000230627A0062A00D7B5B877A68D5BFC404040400840A00000000310100000000000000000003DC03BDD0080000000000000000000004040401E40404040 000000102.05 000000000.001E00000000000000000000    80                                                                                                                                                                                                                                                                                                                  
06422240630370002G2675906759000000028818008888000000101SEVIERVILLE              TN           5 D                00                                      NNNN00 N 00                   000000000000                                                                   76487169                                                                                                                                                                                                                                                                                                                                                                                                                                               
06422250630370041DT67590675900000002881800888800000010180088877287283178900014700174062720230000000493817823000000000142699511558XXXXXX5317       MS02WI09          NY 2 0 AMPVTAP7C10627  N840000000004938          05DNHAPPY HIPPIE             KCA8U6    MD84000000004938 N  549976487169                            000000000+M10101C1334C    MPV  11964                     000000000  N                0000000000000.00 0000000.00   0000000.00                             000000000000000                                                                                                                                                     01418  000000000000 0000000000000.72     01150 01500                  
06422260630370001E167590675900000002881800888800000010100E0F8C80062 00000000000.00404040404040404040404040404040404040404040404040400110A00001220000000000000000000000FF00000000000000000000000000  000008401800800004800023062736698A9927CE537EE833F011404040400840A0000000041010000000000000000000C152C64A9E894E8D00100000000000004040400240404040 000000049.38 000000000.000203000000000000000000    80                                                                                                                                                                                                                                                                                                                  
06422270630370002G2675906759000000028818008888000000101SEVIERVILLE              TN           5 V                                                        NNNN              000000000000000000000000                                                                   76487169                                                                                                                                                                                                                                                                                                                                                                                                                                               
