00004660326470002BH6759067590000000370780088880000090170214202304523000000000090817    0000090001320237Y8008886759C02152023                                                                                                                                                                                                                                                                                                                                                                                                                                                                                                                                                                                                 
00004670326470003DT67590675900000003707800888800000010180088887287283045900013202255021320230000001800004523000000000090817541413XXXXXX7621       ME03KE06PT01      NY 4607AMCWH804960213  N840000000018000          81DNMR HEMP FLOWER           02079S    MC84000000018000 N  549976053336   85772                    000000000+600450S00130    MCW  02182                     000000000  N                0000000000000.00 0000000.00   0000000.00                             000000000000000                                                                                                                                                   U001424  000000000000 0000000000004.78     02600 01000                  
00004680326470004DT67590675900000003707800888800000010180088824001193045900013202262021320230000001312504523000000000090817443042XXXXXX8935               2111111   NYV4 A7W303045111585224N840000000013125DLN200    01DNMR HEMP FLOWER           775685    VD84000000013125 NP1549976053336   85774                    000000000+                F DF 10420                     000000000  Y000000000 338   0000000000000.00 0000000.00   0000000.00                             000000000000000                                                                                                                                                     01424 G000000013125 0000000000000.29     00050 02200                  
00004690326470001P16759067590000000370780088880000001010000000000000000                             2000000000000000000000000              000000000000                    0000000000000000000000000                    000000000000                                                                                                                                                                                                                                                                                                                                                                                                                                                                                        
00004700326470005DT67590675900000003707800888800000010180088887287283045900013202289021420230000000699504523000000000090817517279XXXXXX8313       ME03KE06MS02      NY 4607AMDJEJWGON0214  N840000000006995          81DNMR HEMP FLOWER           042707    MD84000000006995 N  549976053336   85785                    000000000+600450S00130    MDJ  00401                     000000000  N                0000000000000.00 0000000.00   0000000.00                             000000000000000                                                                                                                                                   U001424  000000000000 0000000000001.30     01650 01500                  
00004710326470006DT67590675900000003707800888800000010180088876509753045900013202302021420230000000772204523000000000090817601100XXXXXX0724   BA00                  NY 4 07N753038443086059N840000000007722    00    01DNMR HEMP FLOWER           01429R    DS84000000007722 N  549976053336070                         000000000+1015104910600   DCCDI11325664154  105148000000 000000000  0          460   0000000000000.00 0000000.00   0000000.00                             000000000000000                                                                                                                                                     01424  000000000000 0000000000001.67     02030 01000                  
00004720326470007DT67590675900000003707800888800000010180088876509753045900013202310021420230000000657404523000000000090817601100XXXXXX2871   BA00                  NY 4 07N753038462519773N840000000006574    00    01DNMR HEMP FLOWER           01445R    DS84000000006574 N  549976053336070                         000000000+1015104910600   DCCDI11325332018  112411000000 000000000  0          460   0000000000000.00 0000000.00   0000000.00                             000000000000000                                                                                                                                                     01424  000000000000 0000000000001.43     02030 01000                  
00004730326470008DT67590675900000003707800888800000010180088876509753045900013202328021420230000000312304523000000000090817601100XXXXXX3056   BA00                  NY 4 07N863038507441233N840000000003123    00    01DNMR HEMP FLOWER           01471R    DS84000000003123 N  549976053336070                         000000000+1015104910600   DCCDI11325498182  123904000000 000000000  0          460   0000000000000.00 0000000.00   0000000.00                             000000000000000                                                                                                                                                     01424  000000000000 0000000000000.73     02030 01000                  
00004740326470009DT67590675900000003707800888800000010180088824001193045900013202338021420230000001524604523000000000090817426684XXXXXX2774               2111111   NYV4 A7W583045717108626N840000000015246FFX400    01DNMR HEMP FLOWER           05309B    VS84000000015246 NP1549976053336   85817                    000000000+                B CB 12107                     000000000  N000000000 494   0000000000000.00 0000000.00   0000000.00                             000000000000000                                                                                                                                                     01424 G000000015246 0000000000003.21     02040 01000                  
00004750326470001P16759067590000000370780088880000001010000000000000000                             2000000000000000000000000              000000000000                    0000000000000000000000000                    000000000000                                                                                                                                                                                                                                                                                                                                                                                                                                                                                        
00004760326470010DT67590675900000003707800888800000010180088824001193045900013202346021420230000000049904523000000000090817443045XXXXXX0169               2111111   NYV4 A7W383045761214480N840000000000499R5ZG00    01DNMR HEMP FLOWER           744400    VD84000000000499 NP1549976053336   85832                    000000000+                F DF 10420                     000000000  Y000000000 338   0000000000000.00 0000000.00   0000000.00                             000000000000000                                                                                                                                                     01424 G000000000499 0000000000000.22     00050 02200                  
00004770326470001P16759067590000000370780088880000001010000000000000000                             2000000000000000000000000              000000000000                    0000000000000000000000000                    000000000000                                                                                                                                                                                                                                                                                                                                                                                                                                                                                        
00004780326470011DT67590675900000003707800888800000010180088824001193045900013202353021420230000000499904523000000000090817406095XXXXXX7891               2111111   NYV4 A7W303045764639951N840000000004999K6J200    01DNMR HEMP FLOWER           02698C    VS84000000004999 NP1549976053336   85833                    000000000+                C CC 12108                     000000000  N000000000 496   0000000000000.00 0000000.00   0000000.00                             000000000000000                                                                                                                                                     01424 G000000004999 0000000000001.12     02050 01000                  
00004790326470001P16759067590000000370780088880000001010000000000000000                             2000000000000000000000000              000000000000                    0000000000000000000000000                    000000000000                                                                                                                                                                                                                                                                                                                                                                                                                                                                                        
00004800326470012DT67590675900000003707800888800000010180088824001193045900013202361021420230000000289804523000000000090817435643XXXXXX9067               2111111   NYV4 A7W463045844078766N840000000002898MMSZ00    01DNMR HEMP FLOWER           112961    VD84000000002898 NP1549976053336   85844                    000000000+                F DF 10420                     000000000  Y000000000 338   0000000000000.00 0000000.00   0000000.00                             000000000000000                                                                                                                                                     01424 G000000002898 0000000000000.23     00050 02200                  
00004810326470001P16759067590000000370780088880000001010000000000000000                             2000000000000000000000000              000000000000                    0000000000000000000000000                    000000000000                                                                                                                                                                                                                                                                                                                                                                                                                                                                                        
00004820326470013DT67590675900000003707800888800000010180088824001193045900013202379021420230000001163604523000000000090817414720XXXXXX7920               2111111   NYV4 A7W303045844639694N840000000011636QNQ400    01DNMR HEMP FLOWER           02305D    VS84000000011636 NP1549976053336   85845                    000000000+                D CD 12109                     000000000  N000000000 498   0000000000000.00 0000000.00   0000000.00                             000000000000000                                                                                                                                                     01424 G000000011636 0000000000003.01     02500 01000                  
00004830326470001P16759067590000000370780088880000001010000000000000000                             2000000000000000000000000              000000000000                    0000000000000000000000000                    000000000000                                                                                                                                                                                                                                                                                                                                                                                                                                                                                        
00004840326470014BH6759067590000001094280088880000090170214202304523000000000039419    0000090001060015Y8008886759C02152023                                                                                                                                                                                                                                                                                                                                                                                                                                                                                                                                                                                                 
00004850326470015DT67590675900000010942800888800000010180088824001193045900010600013021420230000000211804523000000000039419435640XXXXXX0537       VS11    0001111   NYV1 A E303045552483444N840000000002118JC9900    05DNPLANET VAPOR #800        102102    VD84000000002118 N  599976923545                            000000000+                F DF 10433                     000000000  Y000000000 338   0000000000000.00 0000000.00   0000000.00                             000000000000000                                                                                                                                                     01424 A000000000000 0000000000000.23     00050 02200                  
00004860326470016DT67590675900000010942800888800000010180088877287283045900010600023021420230000000173204523000000000039419514230XXXXXX2352       MS02WI09          NY 1 0 AMDJR3QJJF0214  N840000000001732          07DNPLANET VAPOR #800        0A4EFB    MD84000000001732 N  599976923545                            000000000+M10101M0034C    MDJ  00402                     000000000  N                0000000000000.00 0000000.00   0000000.00                             000000000000000                                                                                                                                                   B101424  000000000000 0000000000000.33     01050 01500                  
00004870326470017DT67590675900000010942800888800000010180088824001193045900010600039021420230000000235304523000000000039419440393XXXXXX0842       VS11    0001111   NYV1 A E583045740395638N840000000002353W77800    07DNPLANET VAPOR #800        985163    VD84000000002353 N  599976923545                            000000000+                F PF 08170                     000000000  N000000000       0000000000000.00 0000000.00   0000000.00                             000000000000000                                                                                                                                                     01424 A000000000000 0000000000000.42     01150 01500                  
00004880326470018DT67590675900000010942800888800000010180088824001193045900010600047021420230000000235304523000000000039419440393XXXXXX0842       VS11    0001111   NYV1 A E463045743678424N840000000002353WGD200    07DNPLANET VAPOR #800        629806    VD84000000002353 N  599976923545                            000000000+                F PF 08170                     000000000  N000000000       0000000000000.00 0000000.00   0000000.00                             000000000000000                                                                                                                                                     01424 A000000000000 0000000000000.42     01150 01500                  
00004890326470019DT67590675900000010942800888800000010180088877287283045900010600056021420230000000192504523000000000039419529099XXXXXX3486       MS02WI09          NY 1 0 AMDJQWO6MI0214  N840000000001925          05DNPLANET VAPOR #800        797625    MD84000000001925 N  599976923545                            000000000+M10101C5434C    MDJ  10815                     000000000  1                0000000000000.00 0000000.00   0000000.00                             000000000000000                                                                                                                                                   B101424  000000000000 0000000000000.23     00050 02200                  
00004900326470020DT67590675900000010942800888800000010180088824001193045900010600062021420230000000470604523000000000039419423223XXXXXX9414       VS11    0001111   NYV1 A E463045764704475N840000000004706NHHV00    05DNPLANET VAPOR #800        043605    VD84000000004706 N  599976923545                            000000000+                F DF 00381                     000000000  N000000000       0000000000000.00 0000000.00   0000000.00                             000000000000000                                                                                                                                                     01424 A000000000000 0000000000000.53     00800 01500                  
00004910326470021DT67590675900000010942800888800000010180088824001193045900010600070021420230000000213904523000000000039419438419XXXXXX2510       VS11    0001111   NYV1 A E303045770434386N840000000002139QRKM00    05DNPLANET VAPOR #800        062403    VD84000000002139 N  599976923545                            000000000+                F DF 00381                     000000000  N000000000       0000000000000.00 0000000.00   0000000.00                             000000000000000                                                                                                                                                     01424 A000000000000 0000000000000.32     00800 01500                  
00004920326470022DT67590675900000010942800888800000010180088824001193045900010600088021420230000000288704523000000000039419433477XXXXXX9923       VS11    0001111   NYV1 A E303045784162103N840000000002887NPTX00    07DNPLANET VAPOR #800        023539    VD84000000002887 N  599976923545                            000000000+                F DF 10433                     000000000  Y000000000 338   0000000000000.00 0000000.00   0000000.00                             000000000000000                                                                                                                                                     01424 A000000000000 0000000000000.23     00050 02200                  
00004930326470023DT67590675900000010942800888800000010180088824001193045900010600096021420230000000267404523000000000039419461675XXXXXX0667       VS11    0001111   NYV1 A E383045798220296N840000000002674L9MP00    05DNPLANET VAPOR #800        716260    VD84000000002674 N  599976923545                            000000000+                F DF 00381                     000000000  N000000000       0000000000000.00 0000000.00   0000000.00                             000000000000000                                                                                                                                                     01424 A000000000000 0000000000000.36     00800 01500                  
00004940326470024DT67590675900000010942800888800000010180088824001193045900010600104021420230000000192304523000000000039419427199XXXXXX2500       VS11    0001111   NYV1 A E583045812665900N840000000001923JS7900    05DNPLANET VAPOR #800        031966    VD84000000001923 N  599976923545                            000000000+                F DF 00381                     000000000  N000000000       0000000000000.00 0000000.00   0000000.00                             000000000000000                                                                                                                                                     01424 A000000000000 0000000000000.30     00800 01500                  
00004950326470025DT67590675900000010942800888800000010180088824001193045900010600112021420230000000267404523000000000039419448261XXXXXX9498       VS11    0001111   NYV1 A E463045833609607N840000000002674ZWWD00    07DNPLANET VAPOR #800        830024    VD84000000002674 N  599976923545                            000000000+                F DF 10433                     000000000  Y000000000 338   0000000000000.00 0000000.00   0000000.00                             000000000000000                                                                                                                                                     01424 A000000000000 0000000000000.23     00050 02200                  
00004960326470026DT67590675900000010942800888800000010180088824001193045900010600120021420230000000235304523000000000039419410881XXXXXX6651       VS11    0001111   NYV1 A E383045855957157N840000000002353L94T00    07DNPLANET VAPOR #800        417880    VD84000000002353 N  599976923545                            000000000+                F DF 00381                     000000000  N000000000       0000000000000.00 0000000.00   0000000.00                             000000000000000                                                                                                                                                     01424 A000000000000 0000000000000.34     00800 01500                  
00004970326470027DT67590675900000010942800888800000010180088824001193045900010600138021420230000000423504523000000000039419438419XXXXXX7229       VS11    0001111   NYV1 A E303045861448756N840000000004235B6MV00    05DNPLANET VAPOR #800        085545    VD84000000004235 N  599976923545                            000000000+                F DF 00381                     000000000  N000000000       0000000000000.00 0000000.00   0000000.00                             000000000000000                                                                                                                                                     01424 A000000000000 0000000000000.49     00800 01500                  
00004980326470028DT67590675900000010942800888800000010180088877287283045900010600148021420230000000459904523000000000039419526226XXXXXX5185       MS02WI09          NY 1 0 AMDSKGY41F0214  N840000000004599          07DNPLANET VAPOR #800        28620Z    MD84000000004599 N  599976923545                            000000000+M10101M0034C    MDS  10815                     000000000  1                0000000000000.00 0000000.00   0000000.00                             000000000000000                                                                                                                                                   B101424  000000000000 0000000000000.24     00050 02200                  
00004990326470029DT67590675900000010942800888800000010180088824001193045900010600153021420230000000074804523000000000039419441707XXXXXX1188       VK04VS111111111   NYV1 A E463046017995855N840000000000748RBMR00    07DNPLANET VAPOR #800        712008    VD84000000000748 N  599976923545                            000000000+                F PF 08165                     000000000  N000000000       0000000000000.00 0000000.00   0000000.00                             000000000000000                                                                                                                                                     01424 F000000000000 0000000000000.17     01600 00500                  
