06893300436831951AD675906759000000133008001028000009071900013485190000002160907182023NYY19923ND6759800102072020232023199020243                                                                                                                                                                                                                                                                                                                                                                                                                                                                                                                                                                                              
06893310436831954AD675906759000000268498001258000009071900017268380000002477007182023NYY19923ND6759800125072020232023199020244                                                                                                                                                                                                                                                                                                                                                                                                                                                                                                                                                                                              
06893320436831957AD675906759000000268498001258000009071900013004470000000299907182023NYY19923ND6759800125072020232023199020245                                                                                                                                                                                                                                                                                                                                                                                                                                                                                                                                                                                              
06893330436831960AD675906759000000198288001098000009071900018704680000002487007182023NYY19923ND6759800109072020232023199020246                                                                                                                                                                                                                                                                                                                                                                                                                                                                                                                                                                                              
06893340436831963AD675906759000000151648008888000009071900012489260000001987007182023NYY19923ND6759800888072020232023199041281                                                                                                                                                                                                                                                                                                                                                                                                                                                                                                                                                                                              
06893350438878812BH6759067590000001427480010280000090170719202320023000000000021410    0000090001519828N8001026759D07202023151                                                                                                                                                                                                                                                                                                                                                                                                                                                                                                                                                                                              
06893360438878813DT67590675900000014274800102800000010680010274001193200900015198282071820230000002141020023000000000021410402347XXXXXX0252               0000000   YY94 07N000000000000000N   000000000000          01CNCBD8666317293                      VD84000000021410 N  549977145232                            000000000+                F DF 08168                     000000000  Y000000000 369   0000000000000.00 0000000.00   0000000.00                             000000000000000                                                                                                                                                     015WPE 000000000000 0000000000000.00     00000 00000                  
06893370438870001G2675906759000000142748001028000000106866-6317293              GA           9 D                00                                      NNNN00 N 00                   000000000000                                                                   77145232                                                                                                                                                                                                                                                                                                                                                                                                                                               
06893380438878816BH6759067590000001516480088880000090170719202320023000000000024870    0000090001409110N8008886759D07202023140                                                                                                                                                                                                                                                                                                                                                                                                                                                                                                                                                                                              
06893390438878817DT67590675900000015164800888800000010680088874001193200900014091108071820230000002487020023000000000024870410039XXXXXX2156               0000000   YYV4 07T583199672021387N840000000024870T6NN00    01CNKETOFUSION833-923-3587   40841D    VS84000000024870 NDR599977360677   1A94BCEECFT2D2C7885D25D  000000000+                D CD 00245                     000000000  N000000000 166   0000000000000.00 0000000.00   0000000.00                             000000000000000                                                                                                                                                     015WPE 000000024870-0000000000004.38     01760 00000                  
06893400438878817DR6759067590000001516480088880000001061A94BCEECFT2D2C7885D25D  U000000024870                 P1                                                                                                                                                                                                                                                                                                                                                                                                                                                                                                                                                                                                            
06893410438870001P16759067590000001516480088880000001060000000000000000                             2000000000000000000000000              000000000000                    0000000000000000000000000                    000000000000                                                                                                                                                                                                                                                                                                                                                                                                                                                                                        
06893420438870002G2675906759000000151648008888000000106801-4041097              UT           9 C                00                                      NNNN   Y                      000000000000                                                                   77360677                                                                                                                                                                                                                                                                                                                                                                                                                                               
06893430438878820BH6759067590000001330080010280000090170719202320023000000000062665    0000090001511194N8001026759D07202023151                                                                                                                                                                                                                                                                                                                                                                                                                                                                                                                                                                                              
06893440438878821DT67590675900000013300800102800000010680010274001193200900015111921071720230000001987020023000000000062665427082XXXXXX7095               0000000   YYV4 07T303199079441125N840000000019870SWBX00    01CNCBD8666317293            017024    VS84000000019870 NDR549977133133   605E64FC60T5F239FD790BC  000000000+                A CA 00245                     000000000  N000000000 166   0000000000000.00 0000000.00   0000000.00                             000000000000000                                                                                                                                                     015WPE 000000019870-0000000000003.50     01760 00000                  
06893450438878821DR675906759000000133008001028000000106605E64FC60T5F239FD790BC  U000000019870                 P1                                                                                                                                                                                                                                                                                                                                                                                                                                                                                                                                                                                                            
06893460438870001P16759067590000001330080010280000001060000000000000000                             2000000000000000000000000              000000000000                    0000000000000000000000000                    000000000000                                                                                                                                                                                                                                                                                                                                                                                                                                                                                        
06893470438870002G2675906759000000133008001028000000106866-6317293              GA           9 C                00                                      NNNN   Y                      000000000000                                                                   77133133                                                                                                                                                                                                                                                                                                                                                                                                                                               
06893480438878822DT67590675900000013300800102800000010680010274001193200900015111939071820230000002153420023000000000062665474489XXXXXX9427               0000000   YYV4 07T383199570016602N840000000021534QCG400    01CNCBD8666317293            137199    VD84000000021534 NDR549977133133   515510F5CFTFC9A8866CEC3  000000000+                F DF 08168                     000000000  Y000000000 369   0000000000000.00 0000000.00   0000000.00                             000000000000000                                                                                                                                                     015WPE 000000021534 0000000000000.00     00000 00000                  
06893490438878822DR675906759000000133008001028000000106515510F5CFTFC9A8866CEC3  U000000021534                 P1                                                                                                                                                                                                                                                                                                                                                                                                                                                                                                                                                                                                            
06893500438870001P16759067590000001330080010280000001060000000000000000                             2000000000000000000000000              000000000000                    0000000000000000000000000                    000000000000                                                                                                                                                                                                                                                                                                                                                                                                                                                                                        
06893510438870002G2675906759000000133008001028000000106866-6317293              GA           9 D                00                                      NNNN   N                      000000000000                                                                   77133133                                                                                                                                                                                                                                                                                                                                                                                                                                               
06893520438878823DT67590675900000013300800102800000010680010287287283200900015111943071820230000002126120023000000000062665552225XXXXXX6193                         YY 4607AMPLBS5HNT0718  N840000000021261          81CNCBD8666317293            418132    MC84000000021261 NDR549977133133   1DE264DE08TB8B1BD3721B9  000000000+600450S00130    MPL  00565                     000000000  N                0000000000000.00 0000000.00   0000000.00                             000000000000000                                                                                                                                                     015WPE 000000000000-0000000000003.72     01750 00000                  
06893530438878823DR6759067590000001330080010280000001061DE264DE08TB8B1BD3721B9  Y000000000000                                                                                                                                                                                                                                                                                                                                                                                                                                                                                                                                                                                                                               
06893540438870001G26759067590000001330080010280000001068666317293               GA           9 L               210                                      NNNN           210000000000000000000000000                        7                                          77133133                                                                                                                                                                                                                                                                                                                                                                                                                                               
06893550438878826BH6759067590000001619680010280000090170719202320023000000000036376    0000090001976876N8001026759D07202023097                                                                                                                                                                                                                                                                                                                                                                                                                                                                                                                                                                                              
06893560438878827DT67590675900000016196800102800000010680010287287283200900019768755071820230000001611520023000000000036376517805XXXXXX8067                         YY 4607AMPLNBISLK0718  N840000000016115          81CNGREEN OTTER LLC          006069    MC84000000016115 NDR549977424386   B4F521DA7ET3009AAB5D028  000000000+600450S00130    MPL  00565                     000000000  N                0000000000000.00 0000000.00   0000000.00                             000000000000000                                                                                                                                                     015WPE 000000000000-0000000000002.82     01750 00000                  
06893570438878827DR675906759000000161968001028000000106B4F521DA7ET3009AAB5D028  Z000000000000                                                                                                                                                                                                                                                                                                                                                                                                                                                                                                                                                                                                                               
06893580438870001G26759067590000001619680010280000001068666317293               GA           9 L               210                                      NNNN           210000000000000000000000000                        7                                          77424386                                                                                                                                                                                                                                                                                                                                                                                                                                               
06893590438878828DT67590675900000016196800102800000010680010287287283200900019768763071820230000002026120023000000000036376515676XXXXXX0131                         YY 4607AMWEWNFFNS0718  N840000000020261          81CNGREEN OTTER LLC          091317    MC84000000020261 NDR549977424386   4CAE33D6D7T50B6CA45531D  000000000+600450S00130    MWE  00565                     000000000  N                0000000000000.00 0000000.00   0000000.00                             000000000000000                                                                                                                                                     015WPE 000000000000-0000000000003.55     01750 00000                  
06893600438878828DR6759067590000001619680010280000001064CAE33D6D7T50B6CA45531D  Z000000000000                                                                                                                                                                                                                                                                                                                                                                                                                                                                                                                                                                                                                               
06893610438870001G26759067590000001619680010280000001068666317293               GA           9 E               210                                      NNNN           210000000000000000000000000                        7                                          77424386                                                                                                                                                                                                                                                                                                                                                                                                                                               
06893620438878831BH6759067590000002684980012580000090170719202320023000000000097423    0000090001958149N8001256759D07202023095                                                                                                                                                                                                                                                                                                                                                                                                                                                                                                                                                                                              
06893630438878832DT67590675900000026849800125800000010680012587287283200900019581448071820230000001610020023000000000097423552433XXXXXX7850                         YY 4607AMCWYDGJNS0718  N840000000016100          81CNCBD8885133385            034498    MC84000000016100 NDR599978220273   A1604F99BBT058F66E66FFB  000000000+600450S00130    MCW  00564                     000000000  N                0000000000000.00 0000000.00   0000000.00                             000000000000000                                                                                                                                                     015WPE 000000000000-0000000000002.82     01750 00000                  
06893640438878832DR675906759000000268498001258000000106A1604F99BBT058F66E66FFB  Y000000000000                                                                                                                                                                                                                                                                                                                                                                                                                                                                                                                                                                                                                               
06893650438870001G26759067590000002684980012580000001068885133385               WY           9 W               210                                      NNNN           210000000000000000000000000                        7                                          78220273                                                                                                                                                                                                                                                                                                                                                                                                                                               
06893660438878833DT67590675900000026849800125800000010680012587287283200900019581455071820230000002477020023000000000097423552433XXXXXX7850                         YY 4607AMCWCCIUN40718  N840000000024770          81CNCBD8885133385            092247    MC84000000024770 NDR599978220273   95FE7130D5T3D5DD2C11085  000000000+600450S00130    MCW  00564                     000000000  N                0000000000000.00 0000000.00   0000000.00                             000000000000000                                                                                                                                                     015WPE 000000000000-0000000000004.33     01750 00000                  
06893670438878833DR67590675900000026849800125800000010695FE7130D5T3D5DD2C11085  Y000000000000                                                                                                                                                                                                                                                                                                                                                                                                                                                                                                                                                                                                                               
06893680438870001G26759067590000002684980012580000001068885133385               WY           9 W               210                                      NNNN           210000000000000000000000000                        7                                          78220273                                                                                                                                                                                                                                                                                                                                                                                                                                               
06893690438878834DT67590675900000026849800125800000010680012587287283200900019581463071820230000000979820023000000000097423552433XXXXXX7850                         YY 4607AMCWYGMYNS0718  N840000000009798          81CNCBD8885133385            095615    MC84000000009798 NDR599978220273   95FE7130D5T482337013CDA  000000000+600450S00130    MCW  00564                     000000000  N                0000000000000.00 0000000.00   0000000.00                             000000000000000                                                                                                                                                     015WPE 000000000000-0000000000001.71     01750 00000                  
06893700438878834DR67590675900000026849800125800000010695FE7130D5T482337013CDA  Y000000000000                                                                                                                                                                                                                                                                                                                                                                                                                                                                                                                                                                                                                               
06893710438870001G26759067590000002684980012580000001068885133385               WY           9 W               210                                      NNNN           210000000000000000000000000                        7                                          78220273                                                                                                                                                                                                                                                                                                                                                                                                                                               
06893720438878835DT67590675900000026849800125800000010680012574001193200900019581475071820230000001977020023000000000097423416085XXXXXX5914               0000000   YYV4 07T583199670580710N840000000019770DJL400    01CNCBD8885133385            029463    VD84000000019770 NDR599978220273   93FE51E9D0T40EDF8FC9387  000000000+                F DF 08168                     000000000  Y000000000 369   0000000000000.00 0000000.00   0000000.00                             000000000000000                                                                                                                                                     015WPE 000000019770 0000000000000.00     00000 00000                  
06893730438878835DR67590675900000026849800125800000010693FE51E9D0T40EDF8FC9387  U000000019770                 P1                                                                                                                                                                                                                                                                                                                                                                                                                                                                                                                                                                                                            
06893740438870001P16759067590000002684980012580000001060000000000000000                             2000000000000000000000000              000000000000                    0000000000000000000000000                    000000000000                                                                                                                                                                                                                                                                                                                                                                                                                                                                                        
06893750438870002G2675906759000000268498001258000000106888-5133385              WY           9 D                00                                      NNNN   N                      000000000000                                                                   78220273                                                                                                                                                                                                                                                                                                                                                                                                                                               
06893760438878836DT67590675900000026849800125800000010680012574001193200900019581483071820230000001581620023000000000097423416085XXXXXX5914               0000000   YYV4 07T463199671043222N840000000015816MNRW00    01CNCBD8885133385            011296    VD84000000015816 NDR599978220273   89C9EEABA5TA41C980FEAAD  000000000+                F DF 08168                     000000000  Y000000000 369   0000000000000.00 0000000.00   0000000.00                             000000000000000                                                                                                                                                     015WPE 000000015816 0000000000000.00     00000 00000                  
06893770438878836DR67590675900000026849800125800000010689C9EEABA5TA41C980FEAAD  U000000015816                 P1                                                                                                                                                                                                                                                                                                                                                                                                                                                                                                                                                                                                            
06893780438870001P16759067590000002684980012580000001060000000000000000                             2000000000000000000000000              000000000000                    0000000000000000000000000                    000000000000                                                                                                                                                                                                                                                                                                                                                                                                                                                                                        
06893790438870002G2675906759000000268498001258000000106888-5133385              WY           9 D                00                                      NNNN   N                      000000000000                                                                   78220273                                                                                                                                                                                                                                                                                                                                                                                                                                               
06893800438878837DT67590675900000026849800125800000010680012574001193200900019581491071820230000001116920023000000000097423410039XXXXXX1437               0000000   YYV4 07T463199827962483N840000000011169KV9F00    01CNCBD8885133385            13593C    VS84000000011169 NDR599978220273   F863A0B725T14C3ACF1BD9E  000000000+                C CC 00245                     000000000  N000000000 166   0000000000000.00 0000000.00   0000000.00                             000000000000000                                                                                                                                                     015WPE 000000011169-0000000000001.97     01760 00000                  
06893810438878837DR675906759000000268498001258000000106F863A0B725T14C3ACF1BD9E  U000000011169                 P1                                                                                                                                                                                                                                                                                                                                                                                                                                                                                                                                                                                                            
06893820438870001P16759067590000002684980012580000001060000000000000000                             2000000000000000000000000              000000000000                    0000000000000000000000000                    000000000000                                                                                                                                                                                                                                                                                                                                                                                                                                                                                        
06893830438870002G2675906759000000268498001258000000106888-5133385              WY           9 C                00                                      NNNN   Y                      000000000000                                                                   78220273                                                                                                                                                                                                                                                                                                                                                                                                                                               
06893840439460002BH6759067590000002148580111380000090170719202320023000000001903700    0000090001049844N8011136759C07202023004                                                                                                                                                                                                                                                                                                                                                                                                                                                                                                                                                                                              
06893850439460003DT67590675900000021485801113800000010180111324001193200900010407295071920230000016200020023000000001903700447207XXXXXX3076               2111111   NYV4 A7W463199675710742N8400000001620004TVH00    01DNFED CONTRACTING CTR INC  002631    VB84000000162000 NDR739271004114   3372                     000000000+                G CG 00690                     000000000  N000000000 231   0000000000000.00 0000000.00   0000000.00                             000000000000000                                                                                                                                                     01418 G000000162000 0000000000043.03     02650 01000                  
06893860439460003DR6759067590000002148580111380000001013372                     Y000000162000                 P1                                                                                                                                                                                                                                                                                                                                                                                                                                                                                                                                                                                                            
06893870439460001P16759067590000002148580111380000001010000000000000000    64489966519              2000000000000000000000000              000000000000                    0000000000000000000000000                    000000000000                                                                                                                                                                                                                                                                                                                                                                                                                                                                                        
06893880439460002G2675906759000000214858011138000000101855-7005143              FL           9 C                00                                      NNNN   N                      000000000000                                                                   71004114                                                                                                                                                                                                                                                                                                                                                                                                                                               
06893890439460004DT67590675900000021485801113800000010180111387287283200900010471961071920230000016200020023000000001903700556375XXXXXX2027                         NY 4607AMCFVAD8NS0718  N840000000162000          81DNFED CONTRACTING CTR INC  016839    MB84000000162000 NDR739200000001   3374                     000000000+600450S00140    MCF  00303                     000000000  N                0000000000000.00 0000000.00   0000000.00                             000000000000000                                                                                                                                                   U001418  000000000000 0000000000043.84     02700 01000                  
06893900439460004DR6759067590000002148580111380000001013374                     Y000000000000                 P1                                                                                                                                                                                                                                                                                                                                                                                                                                                                                                                                                                                                            
06893910439460001P1675906759000000214858011138000000101                                                          000000000000          1000            871304360                                                                                                                                                                                                                                                                                                                                                                                                                                                                                                                                                            
06893920439460002G2675906759000000214858011138000000101727-8515483              FL           9 F               210                  871304360           YNNN           210000000000000000000000000                                                                   71004114                                                                                                                                                                                                                                                                                                                                                                                                                                               
06893930439460005DT67590675900000021485801113800000010180111324001193200900010402726071920230000005000020023000000001903700476153XXXXXX8863               2111111   NYV4 A7W583199555464502N840000000050000CLWF00    01DNFED CONTRACTING CTR INC  018152    VB84000000050000 NDR739271004114   3360                     000000000+                G3CG308002                     000000000  N000000000 381   0000000000000.00 0000000.00   0000000.00                             000000000000000                                                                                                                                                     01418 G000000050000 0000000000014.10     02800 01000                  
06893940439460005DR6759067590000002148580111380000001013360                     Y000000050000                 P1                                                                                                                                                                                                                                                                                                                                                                                                                                                                                                                                                                                                            
06893950439460001P16759067590000002148580111380000001010000000000000000    64489502873              2000000000000000000000000              000000000000                    0000000000000000000000000                    000000000000                                                                                                                                                                                                                                                                                                                                                                                                                                                                                        
06893960439460002G2675906759000000214858011138000000101855-7005143              FL           9 C                00                                      NNNN   Y                      000000000000                                                                   71004114                                                                                                                                                                                                                                                                                                                                                                                                                                               
06893970439460006DT67590675900000021485801113800000010180111324001193200900010429273071920230000006000020023000000001903700425829XXXXXX9244               2111111   NYV4 A7W463199617021286N840000000060000W8LW00    01DNFED CONTRACTING CTR INC  072112    VD84000000060000 NDR739271004114   3362                     000000000+                G DG 10352                     000000000  Y000000000 338   0000000000000.00 0000000.00   0000000.00                             000000000000000                                                                                                                                                     01418 G000000060000 0000000000000.52     00050 02200                  
06893980439460006DR6759067590000002148580111380000001013362                     Z000000060000                 P1                                                                                                                                                                                                                                                                                                                                                                                                                                                                                                                                                                                                            
06893990439460001P16759067590000002148580111380000001010000000000000000    64489747813              2000000000000000000000000              000000000000                    0000000000000000000000000                    000000000000                                                                                                                                                                                                                                                                                                                                                                                                                                                                                        
06894000439460002G2675906759000000214858011138000000101855-7005143              FL           9 D                00                                      NNNN   N                      000000000000                                                                   71004114                                                                                                                                                                                                                                                                                                                                                                                                                                               
06894010439460007DT67590675900000021485801113800000010180111373011003200900010434121071920230000006000020023000000001903700372880XXXXX2007                          NY 4 07N007714076573079N840000000060000          01DNFED CONTRACTING CTR INC  123502    AM84000000060000 N  739271004114                            000000000+6004S0600140 258     11244                     000000000                   0000000000000.00 0000000.00   0000000.00                             000000000000000 61248972736759675900000021485 FED CONTRACTING CTR INC  15500 ROOSEVELT BLVD STE 8557005143      33760     MIKE@FEDERALCONTRACTINGCENTER.COM         01418  000000000000 0000000000011.50     01900 00000                  
06894020439460001G2675906759000000214858011138000000101CLEARWATER               FL           9                  00                                      NNNN                          000000000000                                                                   71004114                                                                                                                                                                                                                                                                                                                                                                                                                                               
06894030439460008DT67590675900000021485801113800000010180111324001193200900010443928071920230000015000020023000000001903700448470XXXXXX3605               2111111   NYV4 A7W583199512260110N840000000150000FQ6R00    01DNFED CONTRACTING CTR INC  634624    VB84000000150000 NDR739271004114   3354                     000000000+                S1CS100692                     000000000  N000000000 237   0000000000000.00 0000000.00   0000000.00                             000000000000000                                                                                                                                                     01418 G000000150000 0000000000040.60     02700 01000                  
06894040439460008DR6759067590000002148580111380000001013354                     Y000000150000                 P1                                                                                                                                                                                                                                                                                                                                                                                                                                                                                                                                                                                                            
06894050439460001P16759067590000002148580111380000001010000000000000000    64489346637              2000000000000000000000000              000000000000                    0000000000000000000000000                    000000000000                                                                                                                                                                                                                                                                                                                                                                                                                                                                                        
06894060439460002G2675906759000000214858011138000000101855-7005143              FL           9 C                00                                      NNNN   N                      000000000000                                                                   71004114                                                                                                                                                                                                                                                                                                                                                                                                                                               
06894070439460009DT67590675900000021485801113800000010180111324001193200900010444959071920230000006000020023000000001903700433993XXXXXX3071               2111111   NYV4 A7W303199514444121N840000000060000JGXQ00    01DNFED CONTRACTING CTR INC  06193G    VB84000000060000 NDR739271004114   3356                     000000000+                G3CG308002                     000000000  N000000000 381   0000000000000.00 0000000.00   0000000.00                             000000000000000                                                                                                                                                     01418 G000000060000 0000000000016.90     02800 01000                  
06894080439460009DR6759067590000002148580111380000001013356                     Y000000060000                 P1                                                                                                                                                                                                                                                                                                                                                                                                                                                                                                                                                                                                            
06894090439460001P16759067590000002148580111380000001010000000000000000    64489353411              2000000000000000000000000              000000000000                    0000000000000000000000000                    000000000000                                                                                                                                                                                                                                                                                                                                                                                                                                                                                        
06894100439460002G2675906759000000214858011138000000101855-7005143              FL           9 C                00                                      NNNN   Y                      000000000000                                                                   71004114                                                                                                                                                                                                                                                                                                                                                                                                                                               
06894110439460010DT67590675900000021485801113800000010180111387287283200900010447326071920230000055970020023000000001903700547415XXXXXX5668                         NY 4607AMEBXH4ELQ0718  N840000000559700          81DNFED CONTRACTING CTR INC  01394E    MB84000000559700 NDR739200000001   3358                     000000000+600450S00140    MEB  02663                     000000000  N                0000000000000.00 0000000.00   0000000.00                             000000000000000                                                                                                                                                   U001418  000000000000 0000000000156.82     02800 01000                  
06894120439460010DR6759067590000002148580111380000001013358                     Y000000000000                 P1                                                                                                                                                                                                                                                                                                                                                                                                                                                                                                                                                                                                            
06894130439460001P1675906759000000214858011138000000101                                                          000000000000          1000            871304360                                                                                                                                                                                                                                                                                                                                                                                                                                                                                                                                                            
06894140439460002G2675906759000000214858011138000000101727-8515483              FL           9 B               210                  871304360           YNNN           210000000000000000000000000                        7                                          71004114                                                                                                                                                                                                                                                                                                                                                                                                                                               
06894150439460011DT67590675900000021485801113800000010180111387287283200900010496257071920230000006000020023000000001903700556920XXXXXX3244                         NY 4607AMCFQZ6B5J0718  N840000000060000          81DNFED CONTRACTING CTR INC  068960    MB84000000060000 NDR739200000001   3364                     000000000+600450S00140    MCF  00303                     000000000  N                0000000000000.00 0000000.00   0000000.00                             000000000000000                                                                                                                                                   U001418  000000000000 0000000000016.30     02700 01000                  
06894160439460011DR6759067590000002148580111380000001013364                     A000000000000                 P1                                                                                                                                                                                                                                                                                                                                                                                                                                                                                                                                                                                                            
06894170439460001P1675906759000000214858011138000000101                                                          000000000000          1000            871304360                                                                                                                                                                                                                                                                                                                                                                                                                                                                                                                                                            
06894180439460002G2675906759000000214858011138000000101727-8515483              FL           9 F               210                  871304360           YNNN           210000000000000000000000000                                                                   71004114                                                                                                                                                                                                                                                                                                                                                                                                                                               
06894190439460012DT67590675900000021485801113800000010180111324001193200900010495639071920230000040000020023000000001903700479851XXXXXX3588               2111111   NYV4 A7W303199648360166N840000000400000DFD800    01DNFED CONTRACTING CTR INC  318100    VB84000000400000 NDR739271004114   3366                     000000000+                G1CG108010                     000000000  N000000000 390   0000000000000.00 0000000.00   0000000.00                             000000000000000                                                                                                                                                     01418 G000000400000 0000000000114.10     02850 01000                  
06894200439460012DR6759067590000002148580111380000001013366                     Y000000400000                 P1                                                                                                                                                                                                                                                                                                                                                                                                                                                                                                                                                                                                            
06894210439460001P16759067590000002148580111380000001010000000000000000    64489864407              2000000000000000000000000              000000000000                    0000000000000000000000000                    000000000000                                                                                                                                                                                                                                                                                                                                                                                                                                                                                        
06894220439460002G2675906759000000214858011138000000101855-7005143              FL           9 C                00                                      NNNN   Y                      000000000000                                                                   71004114                                                                                                                                                                                                                                                                                                                                                                                                                                               
06894230439460013DT67590675900000021485801113800000010180111324001193200900010443985071920230000006000020023000000001903700498865XXXXXX4708               2111111   NYV4 A7W383199669133711N840000000060000P92D00    01DNFED CONTRACTING CTR INC  457054    VB84000000060000 NDR739271004114   3368                     000000000+                G4CG411355                     000000000  N000000000 377   0000000000000.00 0000000.00   0000000.00                             000000000000000                                                                                                                                                     01418 G000000060000 0000000000017.80     02950 01000                  
06894240439460013DR6759067590000002148580111380000001013368                     Y000000060000                 P1                                                                                                                                                                                                                                                                                                                                                                                                                                                                                                                                                                                                            
06894250439460001P16759067590000002148580111380000001010000000000000000    64489942608              2000000000000000000000000              000000000000                    0000000000000000000000000                    000000000000                                                                                                                                                                                                                                                                                                                                                                                                                                                                                        
06894260439460002G2675906759000000214858011138000000101855-7005143              FL           9 C                00                                      NNNN   Y                      000000000000                                                                   71004114                                                                                                                                                                                                                                                                                                                                                                                                                                               
06894270439460014DT67590675900000021485801113800000010180111324001193200900010454685071920230000006000020023000000001903700424631XXXXXX2896               2111111   NYV4 A7W583199671988542N840000000060000BP4F00    01DNFED CONTRACTING CTR INC  08748G    VB84000000060000 NDR739271004114   3370                     000000000+                G3CG308002                     000000000  N000000000 381   0000000000000.00 0000000.00   0000000.00                             000000000000000                                                                                                                                                     01418 G000000060000 0000000000016.90     02800 01000                  
06894280439460014DR6759067590000002148580111380000001013370                     Y000000060000                 P1                                                                                                                                                                                                                                                                                                                                                                                                                                                                                                                                                                                                            
06894290439460001P16759067590000002148580111380000001010000000000000000    64489952856              2000000000000000000000000              000000000000                    0000000000000000000000000                    000000000000                                                                                                                                                                                                                                                                                                                                                                                                                                                                                        
06894300439460002G2675906759000000214858011138000000101855-7005143              FL           9 C                00                                      NNNN   Y                      000000000000                                                                   71004114                                                                                                                                                                                                                                                                                                                                                                                                                                               
06894310439460015DT67590675900000021485801113800000010180111324001193200900010498443071920230000006000020023000000001903700485631XXXXXX8819               2111111   NYV4 A7W303199757439149N840000000060000WV2G00    01DNFED CONTRACTING CTR INC  B20292    VD84000000060000 NDR739271004114   3378                     000000000+                G DG 10352                     000000000  Y000000000 338   0000000000000.00 0000000.00   0000000.00                             000000000000000                                                                                                                                                     01418 G000000060000 0000000000000.52     00050 02200                  
06894320439460015DR6759067590000002148580111380000001013378                     Z000000060000                 P1                                                                                                                                                                                                                                                                                                                                                                                                                                                                                                                                                                                                            
06894330439460001P16759067590000002148580111380000001010000000000000000    64490267182              2000000000000000000000000              000000000000                    0000000000000000000000000                    000000000000                                                                                                                                                                                                                                                                                                                                                                                                                                                                                        
06894340439460002G2675906759000000214858011138000000101855-7005143              FL           9 D                00                                      NNNN   N                      000000000000                                                                   71004114                                                                                                                                                                                                                                                                                                                                                                                                                                               
06894350439460016BH6759067590000000288180088880000090170719202320023000000000121030    0000090001650021N8008886759C07202023165                                                                                                                                                                                                                                                                                                                                                                                                                                                                                                                                                                                              
06894360439460017DT67590675900000002881800888800000010180088877287283200900016500012071920230000001010620023000000000121030523081XXXXXX0645       MS02WI09          NY 1 0 AMPLXCIMC00719  N840000000010106          05DNHAPPY HIPPIE             09055Z    MC84000000010106 N  549976487134                            000000000+M10101C5434C    MPL  00043                     000000000  N                0000000000000.00 0000000.00   0000000.00                             000000000000000                                                                                                                                                   B101418  000000000000 0000000000001.71     01650 00400                  
06894370439460001E167590675900000002881800888800000010100E0F8C80014 00000000000.00404040404040404040404040404040404040404040404040400110A04003220000000000000000000000FF00000000000000000000000000  000108403900000000800023071979DC2424CCCC5B7A71EAA3B7404040400840A0000000041010000000000000000000579F0F288C040DEE00120000000000004040401E40404040 000000101.06 000000000.001E03000000000000000000    80                                                                                                                                                                                                                                                                                                                  
06894380439460002G2675906759000000028818008888000000101SEVIERVILLE              TN           5 L                                                        NNNN              000000000000000000000000                                                                   76487134                                                                                                                                                                                                                                                                                                                                                                                                                                               
06894390439460018DT67590675900000002881800888800000010180088824001193200900016500028071920230000000416620023000000000121030422921XXXXXX1980       VS11    0001111   NYV1 A E383200527916880N840000000004166P7SG00    05DNHAPPY HIPPIE             038392    VD84000000004166 N  549976487134                            000000000+                F DF 00381                     000000000  N000000000       0000000000000.00 0000000.00   0000000.00                             000000000000000                                                                                                                                                     01418 A000000000000 0000000000000.48     00800 01500                  
06894400439460001E167590675900000002881800888800000010100E0F8C80053 00000000000.004040404040404040404040404040404040404040404040404006011203A08000000000000000000000404040404040404040404040404040  00000840180080800080002307198DAD1B91E8009D83627291AC404040400840A0000000031010000000000000000000CCE8C0520382000000000000000000004040401E40404040 000000041.66 000000000.001E00000000000000000000    80                                                                                                                                                                                                                                                                                                                  
06894410439460002G2675906759000000028818008888000000101SEVIERVILLE              TN           5 D                00                                      NNNN00 N 00                   000000000000                                                                   76487134                                                                                                                                                                                                                                                                                                                                                                                                                                               
06894420439460019DT67590675900000002881800888800000010180088824001193200900016500036071920230000001599820023000000000121030414776XXXXXX1072       PS01    0000000   NYV1 0 N583200553677114N840000000015998PB2300    01DNHAPPY HIPPIE             019122    VS84000000015998 N  549976487134                            000000000+                D CD 11868                     000000000  N000000010 105   0000000000000.00 0000000.00   0000000.00                             000000000000000                                                                                                                                                     01418  000000000000 0000000000005.14     03150 01000                  
06894430439460001G2675906759000000028818008888000000101SEVIERVILLE              TN           5 C                00                                      NNNN00 Y 00                   000000000000                                                                   76487134                                                                                                                                                                                                                                                                                                                                                                                                                                               
06894440439460020DT67590675900000002881800888800000010180088824001193200900016500044071920230000000092420023000000000121030423223XXXXXX4451       VK04VS111111111   NYV1 A E383200556136139N840000000000924Z5QG00    05DNHAPPY HIPPIE             000374    VD84000000000924 N  549976487134                            000000000+                F DF 00451                     000000000  N000000000 214   0000000000000.00 0000000.00   0000000.00                             000000000000000                                                                                                                                                     01418 F000000000000 0000000000000.18     01550 00400                  
06894450439460001E167590675900000002881800888800000010100E0F8C800C2 00000000000.004040404040404040404040404040404040404040404040404006011203A00000000000000000000000404040404040404040404040404040  0000084018008080008000230719483D06C34A7790C6D2AAE532404040400840A0000000031010000000000000000000A9EC99560080000000000000000000004040401E40404040 000000009.24 000000000.001E00000000000000000000    80                                                                                                                                                                                                                                                                                                                  
06894460439460002G2675906759000000028818008888000000101SEVIERVILLE              TN           5 D                00                                      NNNN00 N 00                   000000000000                                                                   76487134                                                                                                                                                                                                                                                                                                                                                                                                                                               
06894470439460021DT67590675900000002881800888800000010180088824001193200900016500051071920230000000115820023000000000121030443547XXXXXX4238       VK04VS111111111   NYV1 A E383200566284678N840000000001158W9NL00    05DNHAPPY HIPPIE             092577    VD84000000001158 N  549976487134                            000000000+                F DF 10439                     000000000  Y000000000 331   0000000000000.00 0000000.00   0000000.00                             000000000000000                                                                                                                                                     01418 F000000000000 0000000000000.23     00050 02200                  
06894480439460001E167590675900000002881800888800000010100E0F8C80808 00000000000.004040404040404040404040404040404040404040404040404006011203A0A000000000000000000000404040404040404040404040404040  0000084018008080008000230719676701BA0C73450FC8616ACC404040400840A00000000310100000000000000000009B90BE60327393FC00800000000000004040401E40404040 000000011.58 000000000.001E00000000000000000000    80                                                                                                                                                                                                                                                                                                                  
06894490439460002G2675906759000000028818008888000000101SEVIERVILLE              TN           5 D                00                                      NNNN00 N 00                   000000000000                                                                   76487134                                                                                                                                                                                                                                                                                                                                                                                                                                               
06894500439460022DT67590675900000002881800888800000010180088876509753200900016500067071920230000000493820023000000000121030601101XXXXXX4161   BA50                  NY41 0 N813172362003566N840000000004938    00    05DNHAPPY HIPPIE             01941P    DS84000000004938 N  549976487134050                         000000000+0000004910H00   DCPDI01118334135  085000000000 000000000  0          146   0000000000000.00 0000000.00   0000000.00                             000000000000000                                                                                                                                                     01418  000000000000 0000000000000.96     01740 01000                  
06894510439460001E167590675900000002881800888800000010100E0F8C8022B 00000000000.00404040404040404040404040404040404040404040404040400105A080038000000000000000000000404040404040404040404040404040  00020840780000000080002307195FC9A98F47B9E88CA63AE0BB404040400840A00000015230100000000000000000006CA7915AA5812B9B00320000000000004040401E40404040 000000049.38 000000000.001E03000000000000000000    80                                                                                                                                                                                                                                                                                                                  
06894520439460002G2675906759000000028818008888000000101SEVIERVILLE              TN           5 P                00                                      NNNN                          000000000000                         00000650975601179750000063                76487134                                                                                                                                                                                                                                                                                                                                                                                                                                               
06894530439460023DT67590675900000002881800888800000010180088877287283200900016500079071920230000000947720023000000000121030516249XXXXXX3181       MS02WI09          NY 1 0 AMDJZP18CR0719  N840000000009477          05DNHAPPY HIPPIE             114151    MD84000000009477 N  549976487134                            000000000+M10101C5434C    MDJ  00402                     000000000  N                0000000000000.00 0000000.00   0000000.00                             000000000000000                                                                                                                                                   B101418  000000000000 0000000000001.15     01050 01500                  
06894540439460001E167590675900000002881800888800000010100E0F8C8007A 00000000000.00404040404040404040404040404040404040404040404040400110A00001220000000000000000000000FF00000000000000000000000000  0000084018008000008000230719545EB709F0C5707D978AA597404040400840A0000000041010000000000000000000C8C6BFA99D24451B03120000000000004040401E40404040 000000094.77 000000000.001E03000000000000000000    80                                                                                                                                                                                                                                                                                                                  
06894550439460002G2675906759000000028818008888000000101SEVIERVILLE              TN           5 J                                                        NNNN              000000000000000000000000                                                                   76487134                                                                                                                                                                                                                                                                                                                                                                                                                                               
06894560439460024DT67590675900000002881800888800000010180088877287283200900016500087071920230000000068620023000000000121030544579XXXXXX0621       MS02WI09          NY 1 0 AMDJTSGVC00719  N840000000000686          07DNHAPPY HIPPIE             334137    MD84000000000686 N  549976487134                            000000000+M10101M0034C    MDJ  10831                     000000000  1                0000000000000.00 0000000.00   0000000.00                             000000000000000                                                                                                                                                   B101418  000000000000 0000000000000.22     00050 02200                  
06894570439460001E167590675900000002881800888800000010100000848034D 00000000000.00404040404040404040404040404040404040404040404040400110A04001220000000000000000000000FF00000000000000000000000000  00000840198000000080012307195AF4B11161425A83F6F1CA66404040400840A0000000041010000000000000000000B6D88983D32E83DB03120000000000004040401F40404040 000000006.86 000000000.001F03020000000000000000    80                                                                                                                                                                                                                                                                                                                  
06894580439460002G2675906759000000028818008888000000101SEVIERVILLE              TN           5 J                                                        NNNN              000000000000000000000000       03               7                                          76487134                                                                                                                                                                                                                                                                                                                                                                                                                                               
06894590439460025DT67590675900000002881800888800000010180088877287283200900016500095071920230000000289320023000000000121030511832XXXXXX5354       MS02WI09          NY 2 0 AMDJYUSVX20719  N840000000002893          05DNHAPPY HIPPIE             063853    MD84000000002893 N  549976487134                            000000000+M10101C1334C    MDJ  00402                     000000000  N                0000000000000.00 0000000.00   0000000.00                             000000000000000                                                                                                                                                   B101418  000000000000 0000000000000.45     01050 01500                  
06894600439460001E167590675900000002881800888800000010100E0F8C8047C 00000000000.00404040404040404040404040404040404040404040404040400110A00001220000000000000000000000FF00000000000000000000000000  00040840180080000480002307197AC76E106121B31EDC5D531A404040400840A0000000041010000000000000000000413597BAE32DC4D500120000000000004040400240404040 000000028.93 000000000.000203000000000000000000    80                                                                                                                                                                                                                                                                                                                  
06894610439460002G2675906759000000028818008888000000101SEVIERVILLE              TN           5 J                                                        NNNN              000000000000000000000000                                                                   76487134                                                                                                                                                                                                                                                                                                                                                                                                                                               
06894620439460026DT67590675900000002881800888800000010180088877287283200900016500103071920230000000364520023000000000121030523914XXXXXX8085       MS02WI09          NY 1 0 AMCWZGZ2XZ0719  N840000000003645          05DNHAPPY HIPPIE             03612Z    MC84000000003645 N  549976487134                            000000000+M10101C5434C    MCW  00646                     000000000  N                0000000000000.00 0000000.00   0000000.00                             000000000000000                                                                                                                                                   B101418  000000000000 0000000000000.73     01900 00400                  
06894630439460001E167590675900000002881800888800000010100E0F8C80001 00000000000.00404040404040404040404040404040404040404040404040401910A04001220800000000000000000000FF00000000000000000000000000  00010840390000000080002307194894C69E5D9A56CD05B44A09404040400840A0000000041010000000000000000000E2C79DA5287FB2AE00120000000000004040401E40404040 000000036.45 000000000.001E03000000000000000000    80                                                                                                                                                                                                                                                                                                                  
06894640439460002G2675906759000000028818008888000000101SEVIERVILLE              TN           5 W                                                        NNNN              000000000000000000000000                        7                                          76487134                                                                                                                                                                                                                                                                                                                                                                                                                                               
06894650439460027DT67590675900000002881800888800000010180088824001193200900016500119071920230000000208420023000000000121030445101XXXXXX7499       VS11    0001111   NYV1 A E303200716571087N840000000002084642X00    05DNHAPPY HIPPIE             307385    VD84000000002084 N  549976487134                            000000000+                F DF 10433                     000000000  Y000000000 338   0000000000000.00 0000000.00   0000000.00                             000000000000000                                                                                                                                                     01418 A000000000000 0000000000000.23     00050 02200                  
06894660439460001E167590675900000002881800888800000010100E0F8C8020F 00000000000.004040404040404040404040404040404040404040404040404006011203A00000000000000000000000404040404040404040404040404040  00010840180080800080002307192549B1C9BF57839A6585BC93404040400840A00000000310100000000000000000009EBF3CB80082000000000000000000004040401E40404040 000000020.84 000000000.001E00000000000000000000    80                                                                                                                                                                                                                                                                                                                  
06894670439460002G2675906759000000028818008888000000101SEVIERVILLE              TN           5 D                00                                      NNNN00 N 00                   000000000000                                                                   76487134                                                                                                                                                                                                                                                                                                                                                                                                                                               
06894680439460028DT67590675900000002881800888800000010180088824001193200900016500127071920230000000694520023000000000121030422921XXXXXX6466       VS11    0001111   NYV1 A E383200724644405N840000000006945V7G700    05DNHAPPY HIPPIE             058065    VD84000000006945 N  549976487134                            000000000+                F DF 00381                     000000000  N000000000       0000000000000.00 0000000.00   0000000.00                             000000000000000                                                                                                                                                     01418 A000000000000 0000000000000.71     00800 01500                  
06894690439460001E167590675900000002881800888800000010100E0F8C803D9 00000000000.004040404040404040404040404040404040404040404040404006011203A08000000000000000000000404040404040404040404040404040  0000084018008080008000230719E61D9B85A09633405BE0F2F2404040400840A00000000310100000000000000000005E78C64C0382000000000000000000004040401E40404040 000000069.45 000000000.001E00000000000000000000    80                                                                                                                                                                                                                                                                                                                  
06894700439460002G2675906759000000028818008888000000101SEVIERVILLE              TN           5 D                00                                      NNNN00 N 00                   000000000000                                                                   76487134                                                                                                                                                                                                                                                                                                                                                                                                                                               
06894710439460029DT67590675900000002881800888800000010180088873011003200900016500131071920230000000694520023000000000121030379831XXXXX2005                          NY 1 0 N008428825991065N840000000006945          07DNHAPPY HIPPIE             852180    AM84000000006945 N  549976487134                            000000000+51010X55434C 258     11261                     000000000                   0000000000000.00 0000000.00   0000000.00                             000000000000000 61248972086759675900000002881 HAPPY HIPPIE             832 PARKWAY              8656540830      37862     HAPPYHIPPIE832@GMAIL.COM                  01418  000000000000 0000000000001.21     01600 00000                  
