01819050319200002BH6759067590000000215480088880000090171214202234822000000000148435    0000090001605177N8008886759C12152022                                                                                                                                                                                                                                                                                                                                                                                                                                                                                                                                                                                                 
01819060319200003DT67590675900000002154800888800000010180088887287282348900016051309121420220000000990034822000000000148435552433XXXXXX9930       ME03KE06MS02      NY 4607AMPLMAXCMG1214  N840000000009900          81DNDRIP DROP DISTRO LLC     04436M    MC84000000009900 N  519900000001   INV-27872                000000000+600450S00140    MPL  00580                     000000000  N                0000000000000.00 0000000.00   0000000.00                             000000000000000                                                                                                                                                   U001418  000000000000 0000000000002.18     02100 01000                  
01819070319200004DT67590675900000002154800888800000010180088824001192348900016053361121420220000003151834822000000000148435433993XXXXXX0400               2111111   NYV4 A7W302348151063168N8400000000315187PWM00    01DNDRIP DROP DISTRO LLC     04083G    VB84000000031518 NP1519971004114   17098                    000000000+                G5CG511887                     000000000  N000000000 163   0000000000000.00 0000000.00   0000000.00                             000000000000000                                                                                                                                                     01418 G000000031518 0000000000009.56     03000 01000                  
01819080319200001P16759067590000000215480088880000001010000000000000000    43819291165              2000000000000000000000000              000000000000                    0000000000000000000000000                    000000000000                                                                                                                                                                                                                                                                                                                                                                                                                                                                                        
01819090319200005DT67590675900000002154800888800000010180088824001192348900016024982121420220000001030034822000000000148435400022XXXXXX4253               2111111   NYV4 A7W582348540997231N840000000010300W2R600    01DNDRIP DROP DISTRO LLC     506136    VD84000000010300 NP1519971004114   17099                    000000000+                F DF 10420                     000000000  Y000000000 338   0000000000000.00 0000000.00   0000000.00                             000000000000000                                                                                                                                                     01418 G000000010300 0000000000000.27     00050 02200                  
01819100319200001P16759067590000000215480088880000001010000000000000000                             2000000000000000000000000              000000000000                    0000000000000000000000000                    000000000000                                                                                                                                                                                                                                                                                                                                                                                                                                                                                        
01819110319200006DT67590675900000002154800888800000010180088824001192348900016018653121420220000007632334822000000000148435433993XXXXXX7424               2111111   NYV4 A7W302348729635454N840000000076323HPFJ00    01DNDRIP DROP DISTRO LLC     09121G    VB84000000076323 NP1519971004114   17101                    000000000+                G3CG308002                     000000000  N000000000 381   0000000000000.00 0000000.00   0000000.00                             000000000000000                                                                                                                                                     01418 G000000076323 0000000000021.47     02800 01000                  
01819120319200001P16759067590000000215480088880000001010000000000000000    43820551207              2000000000000000000000000              000000000000                    0000000000000000000000000                    000000000000                                                                                                                                                                                                                                                                                                                                                                                                                                                                                        
01819130319200007DT67590675900000002154800888800000010180088887287282348900016051770121420220000002039434822000000000148435547415XXXXXX8783                         NY 4607AMEBAGSL5V1214  N840000000020394          81DNDRIP DROP DISTRO LLC     05248Q    MB84000000020394 NP1519900000001   17104                    000000000+600450S00140    MEB  11637                     000000000  N                0000000000000.00 0000000.00   0000000.00                             000000000000000                                                                                                                                                   U001418  000000000000 0000000000006.22     03000 01000                  
01819140319200001P1675906759000000021548008888000000101                                                          000000000000          8000            471534935                                                                                                                                                                                                                                                                                                                                                                                                                                                                                                                                                            
01819150319200008BH6759067590000000096880088880000090171214202234822000000000015735    0000090001068080N8008886759C12152022                                                                                                                                                                                                                                                                                                                                                                                                                                                                                                                                                                                                 
01819160319200009DT67590675900000000968800888800000010180088887287282348900010630199121420220000000450034822000000000015735517546XXXXXX0092       ME03KE06MS02      NY 4607AMDJWUJK9G1213  N840000000004500          81DNHIGHER FLOUR LLC         013045    MD84000000004500 N  546200000001   rVhgOkxgef1nFz3Y09zq     000000000+600450S00140    MDJ  10813                     000000000  1                0000000000000.00 0000000.00   0000000.00                             000000000000000                                                                                                                                                   U001418  000000000000 0000000000000.24     00050 02200                  
01819170319200010DT67590675900000000968800888800000010180088824001192348900010680805121420220000001123534822000000000015735408188XXXXXX1561               2111111   NYV4 A7W582348786041112N840000000011235MNFN00    01DNHIGHER FLOUR LLC         135005    VD84000000011235 NP1546271004114   RNAHJEMD0LQUV24PK2MF     000000000+                F DF 10420                     000000000  Y000000000 338   0000000000000.00 0000000.00   0000000.00                             000000000000000                                                                                                                                                     01418 G000000011235 0000000000000.28     00050 02200                  
01819180319200001P16759067590000000096880088880000001010000000000000000                             2000000000000000000000000              000000000000                    0000000000000000000000000                    000000000000                                                                                                                                                                                                                                                                                                                                                                                                                                                                                        
