02170450524930002BH6759067590000000215480088880000090171123202232722000000000062000    0000090001469258N8008886759C11252022                                                                                                                                                                                                                                                                                                                                                                                                                                                                                                                                                                                                 
02170460524930003DT67590675900000002154800888800000010180088824001192327900014675434112320220000001750032722000000000062000424631XXXXXX5829               2111111   NYV4 A7W582326840162242N840000000017500VS8F00    01DNDRIP DROP DISTRO LLC     00499G    VB84000000017500 NP1519971004114   INV-27509                000000000+                G CG 00690                     000000000  N000000000 231   0000000000000.00 0000000.00   0000000.00                             000000000000000                                                                                                                                                     01418 G000000017500 0000000000004.74     02650 01000                  
02170470524930001P16759067590000000215480088880000001010000000000000000    43776939994              2000000000000000000000000              000000000000                    0000000000000000000000000                    000000000000                                                                                                                                                                                                                                                                                                                                                                                                                                                                                        
02170480524930004DT67590675900000002154800888800000010180088887287282327900014616173112320220000002160032722000000000062000558341XXXXXX5099       ME03KE06MS02      NY 4607AMDJ0PZA491122  N840000000021600          81DNDRIP DROP DISTRO LLC     093331    MD84000000021600 N  519900000001   INV-27473                000000000+600450S00140    MDJ  00401                     000000000  N                0000000000000.00 0000000.00   0000000.00                             000000000000000                                                                                                                                                   U001418  000000000000 0000000000003.71     01650 01500                  
02170490524930005DT67590675900000002154800888800000010680088873011002327900014600313112320220000000210032722000000000062000372728XXXXX1170                          NY94 07N000000000000000N840000000000000          01CNDRIP DROP DISTRO LLC               AM84000000002100 N  519971004114                            000000000+5004S0600140 258     11314                     000000000                   0000000000000.00 0000000.00   0000000.00                             000000000000000 61248972736759675900000002154 DRIP DROP DISTRO LLC     1445 W COMMERCE AVE SUITE2087248209      83705     TROY@DRIPDROPDISTRO.COM                   01418  000000000000 0000000000000.00     00000 00000                  
02170500524930006DT67590675900000002154800888800000010180088876509752327900014692585112320220000002500032722000000000062000601129XXXXXX3546   BA00                  NY 4 07N802282263682647N840000000025000    00    01DNDRIP DROP DISTRO LLC     02354R    DS84000000025000 N  519971004114010                         000000000+1015104910600   DCCDI01008002002  133928000000 000000000  0          120   0000000000000.00 0000000.00   0000000.00                             000000000000000                                                                                                                                                     01418  000000000000 0000000000005.18     02030 01000                  
