00004720141020002BH6759067590000000288180088880000090170504202312423000000000011386    0000090001110218Y8008886759C05052023                                                                                                                                                                                                                                                                                                                                                                                                                                                                                                                                                                                                 
00004730141020003DT67590675900000002881800888800000010180088824001193124900011102161050420230000001338312423000000000011386435140XXXXXX6749               2111111   NYV4 A7W303124387238262N840000000013383XP6S00    01DNHAPPY HIPPIE             038589    VD84000000013383 NP1549976044904   2033                     000000000+                F DF 10420                     000000000  Y000000000 338   0000000000000.00 0000000.00   0000000.00                             000000000000000                                                                                                                                                     01424 G000000013383 0000000000000.29     00050 02200                  
00004740141020001P16759067590000000288180088880000001010000000000000000                             2000000000000000000000000              000000000000                    0000000000000000000000000                    000000000000                                                                                                                                                                                                                                                                                                                                                                                                                                                                                        
00004750141020004DT67590675900000002881800888800000010680088887287283124900011102170050420230000000079912423000000000011386511020XXXXXX0274                         NY 4607AMDJDPNEVD0504  N840000000000799          81CNHAPPY HIPPIE             025782    MD84000000000799 N  549976044904   2028                     000000000+600450S00130    MDJ  00560                     000000000  N                0000000000000.00 0000000.00   0000000.00                             000000000000000                                                                                                                                                     01424  000000000000 0000000000000.00     00000 00000                  
00004760141020005DT67590675900000002881800888800000010680088887287283124900011102188050420230000000119812423000000000011386546197XXXXXX6561                         NY 4607AMDJK2B2VD0504  N840000000001198          81CNHAPPY HIPPIE             000945    MD84000000001198 N  549976044904   2024                     000000000+600450S00130    MDJ  00560                     000000000  N                0000000000000.00 0000000.00   0000000.00                             000000000000000                                                                                                                                                     01424  000000000000 0000000000000.00     00000 00000                  
00004770141020006BH6759067590000001427480010280000090170504202312423000000000435596    0000090001780165Y8001026759C05052023                                                                                                                                                                                                                                                                                                                                                                                                                                                                                                                                                                                                 
00004780141020007DT67590675900000014274800102800000010180010224001193124900017896949050320230000001632512423000000000435596449497XXXXXX4014               2111111   NYV4 A7W583120702068880N840000000016325TKXK00    01DNCBD8666317293            488580    VD84000000016325 NP1549977145232   6594B44D52TA7961339DA8D  000000000+                F DF 00415                     000000000  N000000000       0000000000000.00 0000000.00   0000000.00                             000000000000000                                                                                                                                                     01424 G000000016325 0000000000002.84     01650 01500                  
00004790141020001P16759067590000001427480010280000001010000000000000000                             2000000000000000000000000              000000000000                    0000000000000000000000000                    000000000000                                                                                                                                                                                                                                                                                                                                                                                                                                                                                        
00004800141020008DT67590675900000014274800102800000010180010224001193124900017897020050320230000002106212423000000000435596412422XXXXXX0445               2111111   NYV4 A7W383120793089435N840000000021062366K00    01DNCBD8666317293            614859    VS84000000021062 NP1549977145232   BF7691C3A4TF61B1DB52009  000000000+                B CB 12107                     000000000  N000000000 494   0000000000000.00 0000000.00   0000000.00                             000000000000000                                                                                                                                                     01424 G000000021062 0000000000004.40     02040 01000                  
00004810141020001P16759067590000001427480010280000001010000000000000000                             2000000000000000000000000              000000000000                    0000000000000000000000000                    000000000000                                                                                                                                                                                                                                                                                                                                                                                                                                                                                        
00004820141020009DT67590675900000014274800102800000010180010287287283124900017897070050320230000001499112423000000000435596545958XXXXXX5254       ME03KE06MS02      NY 4607AMDJTC4J610430  N840000000014991          81DNCBD8666317293            075505    MD84000000014991 N  549977145232   8DA1DFAEA3T9CA6427705F4  000000000+600450S00130    MDJ  10813                     000000000  1                0000000000000.00 0000000.00   0000000.00                             000000000000000                                                                                                                                                   U001424  000000000000 0000000000000.29     00050 02200                  
00004830141020010DT67590675900000014274800102800000010180010287287283124900017897286050320230000002487012423000000000435596546249XXXXXX7575       ME03KE06MS02      NY 4607AMDJLKN4NN0430  N840000000024870          81DNCBD8666317293            002505    MD84000000024870 N  549977145232   A98F5AD876TC4375978A606  000000000+600450S00130    MDJ  10813                     000000000  1                0000000000000.00 0000000.00   0000000.00                             000000000000000                                                                                                                                                   U001424  000000000000 0000000000000.34     00050 02200                  
00004840141020011DT67590675900000014274800102800000010180010287287283124900017800363050320230000001987012423000000000435596517805XXXXXX6695       ME03KE06MS02      NY 4607AMPLWJMBHU0503  N840000000019870          81DNCBD8666317293            00163B    MC84000000019870 N  549977145232   88897B816CT317E01AB915B  000000000+600450S00130    MPL  00580                     000000000  N                0000000000000.00 0000000.00   0000000.00                             000000000000000                                                                                                                                                   U001424  000000000000 0000000000004.27     02100 01000                  
00004850141020012DT67590675900000014274800102800000010180010287287283124900017800371050320230000002654912423000000000435596517805XXXXXX3492       ME03KE06MS02      NY 4607AMPLDUAZHV0503  N840000000026549          81DNCBD8666317293            03593B    MC84000000026549 N  549977145232   66C0657178T351DED79269B  000000000+600450S00130    MPL  00580                     000000000  N                0000000000000.00 0000000.00   0000000.00                             000000000000000                                                                                                                                                   U001424  000000000000 0000000000005.68     02100 01000                  
00004860141020013DT67590675900000014274800102800000010180010287287283124900017800421050320230000000682212423000000000435596517768XXXXXX2604       ME03KE06MS02      NY 4607AMPLXMNGHU0503  N840000000006822          81DNCBD8666317293            003105    MC84000000006822 N  549977145232   16DD9DF18DT14B418530C85  000000000+600450S00130    MPL  00013                     000000000  N                0000000000000.00 0000000.00   0000000.00                             000000000000000                                                                                                                                                   U001424  000000000000 0000000000001.43     01950 01000                  
00004870141020014DT67590675900000014274800102800000010180010224001193124900017800438050320230000000149512423000000000435596476516XXXXXX5415               2111111   NYV4 A7W463124055772963N840000000001495DZTC00    01DNCBD8666317293            509044    VD84000000001495 NP1549977145232   FF46B8330ATCE8145ECCA69  000000000+                F DF 00415                     000000000  N000000000       0000000000000.00 0000000.00   0000000.00                             000000000000000                                                                                                                                                     01424 G000000001495 0000000000000.40     01650 01500                  
00004880141020001P16759067590000001427480010280000001010000000000000000                             2000000000000000000000000              000000000000                    0000000000000000000000000                    000000000000                                                                                                                                                                                                                                                                                                                                                                                                                                                                                        
00004890141020015DT67590675900000014274800102800000010180010287287283124900017800462050320230000001484812423000000000435596533248XXXXXX9400       ME03KE06MS02      NY 4607AMPVTCLMHK0503  N840000000014848          81DNCBD8666317293            AHCZOJ    MD84000000014848 N  549977145232   E35442A05AT2A4C3011BEF3  000000000+600450S00130    MPV  09899                     000000000  N                0000000000000.00 0000000.00   0000000.00                             000000000000000                                                                                                                                                   U001424  000000000000 0000000000002.81     01760 02000                  
00004900141020016DT67590675900000014274800102800000010180010224001193124900017800479050320230000002604212423000000000435596410039XXXXXX4472               2111111   NYV4 A7W303124072044743N840000000026042M62600    01DNCBD8666317293            77290D    VS84000000026042 NP1549977145232   FAD01D6834T3E594F36981A  000000000+                D CD 12109                     000000000  N000000000 498   0000000000000.00 0000000.00   0000000.00                             000000000000000                                                                                                                                                     01424 G000000026042 0000000000006.61     02500 01000                  
00004910141020001P16759067590000001427480010280000001010000000000000000                             2000000000000000000000000              000000000000                    0000000000000000000000000                    000000000000                                                                                                                                                                                                                                                                                                                                                                                                                                                                                        
00004920141020017DT67590675900000014274800102800000010180010224001193124900017800503050320230000002487012423000000000435596434256XXXXXX4745               2111111   NYV4 A7W583124081049581N840000000024870MVG600    01DNCBD8666317293            045795    VD84000000024870 NP1549977145232   D0731FF01AT0C23741462A1  000000000+                F DF 10420                     000000000  Y000000000 338   0000000000000.00 0000000.00   0000000.00                             000000000000000                                                                                                                                                     01424 G000000024870 0000000000000.34     00050 02200                  
00004930141020001P16759067590000001427480010280000001010000000000000000                             2000000000000000000000000              000000000000                    0000000000000000000000000                    000000000000                                                                                                                                                                                                                                                                                                                                                                                                                                                                                        
00004940141020018DT67590675900000014274800102800000010180010224001193124900017800586050420230000001499112423000000000435596483316XXXXXX8266               2111111   NYV4 A7W303124240044645N840000000014991ZRHC00    01DNCBD8666317293            044002    VD84000000014991 NP1549977145232   B9038FD86CT10AFE1D07058  000000000+                F DF 10420                     000000000  Y000000000 338   0000000000000.00 0000000.00   0000000.00                             000000000000000                                                                                                                                                     01424 G000000014991 0000000000000.29     00050 02200                  
00004950141020001P16759067590000001427480010280000001010000000000000000                             2000000000000000000000000              000000000000                    0000000000000000000000000                    000000000000                                                                                                                                                                                                                                                                                                                                                                                                                                                                                        
00004960141020019DT67590675900000014274800102800000010180010224001193124900017800651050420230000002255012423000000000435596414720XXXXXX6423               2111111   NYV4 A7W463124267047456N840000000022550FWQK00    01DNCBD8666317293            05138D    VS84000000022550 NP1549977145232   A756433E58T241120592D0B  000000000+                D CD 12109                     000000000  N000000000 498   0000000000000.00 0000000.00   0000000.00                             000000000000000                                                                                                                                                     01424 G000000022550 0000000000005.74     02500 01000                  
00004970141020001P16759067590000001427480010280000001010000000000000000                             2000000000000000000000000              000000000000                    0000000000000000000000000                    000000000000                                                                                                                                                                                                                                                                                                                                                                                                                                                                                        
00004980141020020DT67590675900000014274800102800000010180010224001193124900017800768050420230000001987012423000000000435596402018XXXXXX2806               2111111   NYV4 A7W463124405980633N8400000000198709B8X00    01DNCBD8666317293            041638    VD84000000019870 NP1549977145232   B2EFCC8060T67AACF54BB83  000000000+                F PF 08175                     000000000  N000000000       0000000000000.00 0000000.00   0000000.00                             000000000000000                                                                                                                                                     01424 G000000019870 0000000000003.68     01750 02000                  
00004990141020001P16759067590000001427480010280000001010000000000000000                             2000000000000000000000000              000000000000                    0000000000000000000000000                    000000000000                                                                                                                                                                                                                                                                                                                                                                                                                                                                                        
00005000141020021DT67590675900000014274800102800000010680010287287283124900017800785050420230000001064812423000000000435596551895XXXXXX2976                         NY 4607AMDSAL1WVD0504  N840000000010648          81CNCBD8666317293            011682    MD84000000010648 N  549977145232   CA49BDFB8CT084E61E92D8C  000000000+600450S00130    MDS  00560                     000000000  N                0000000000000.00 0000000.00   0000000.00                             000000000000000                                                                                                                                                     01424  000000000000 0000000000000.00     00000 00000                  
00005010141020022DT67590675900000014274800102800000010180010224001193124900017800842050420230000001604012423000000000435596440066XXXXXX3016               2111111   NYV4 A7W383124523085115N840000000016040Z48M00    01DNCBD8666317293            00081I    VS84000000016040 NP1549977145232   A6062FA9F8T6EA8089D3176  000000000+                I CI 12778                     000000000  N000000000 689   0000000000000.00 0000000.00   0000000.00                             000000000000000                                                                                                                                                     01424 G000000016040 0000000000004.11     02500 01000                  
00005020141020001P16759067590000001427480010280000001010000000000000000                             2000000000000000000000000              000000000000                    0000000000000000000000000                    000000000000                                                                                                                                                                                                                                                                                                                                                                                                                                                                                        
00005030141020023DT67590675900000014274800102800000010680010274001193124900017800854050420230000002131112423000000000435596475824XXXXXX7659               0000000   NYV4 07T303124534106062N840000000021311R7P200    01CNCBD8666317293            004573    VD84000000021311 NP1549977145232   427D4DB56ATC18DC65FF6A1  000000000+                F DF 08168                     000000000  Y000000000 369   0000000000000.00 0000000.00   0000000.00                             000000000000000                                                                                                                                                     01424  000000021311 0000000000000.00     00000 00000                  
00005040141020001P16759067590000001427480010280000001060000000000000000                             2000000000000000000000000              000000000000                    0000000000000000000000000                    000000000000                                                                                                                                                                                                                                                                                                                                                                                                                                                                                        
00005050141020024DT67590675900000014274800102800000010180010224001193124900017800974050420230000002487012423000000000435596426684XXXXXX4088               2111111   NYV4 A7W383124546303642N840000000024870KWW700    01DNCBD8666317293            00905C    VS84000000024870 NP1549977145232   5EFCF39D27T809CD1761362  000000000+                C CC 12108                     000000000  N000000000 496   0000000000000.00 0000000.00   0000000.00                             000000000000000                                                                                                                                                     01424 G000000024870 0000000000005.20     02050 01000                  
00005060141020001P16759067590000001427480010280000001010000000000000000                             2000000000000000000000000              000000000000                    0000000000000000000000000                    000000000000                                                                                                                                                                                                                                                                                                                                                                                                                                                                                        
00005070141020025DT67590675900000014274800102800000010180010224001193124900017800982050420230000000207912423000000000435596426684XXXXXX4088               2111111   NYV4 A7W303124547869680N840000000002079PSDF00    01DNCBD8666317293            09197C    VS84000000002079 NP1549977145232   5EFCF39D27T16A2D6E714F0  000000000+                C CC 12108                     000000000  N000000000 496   0000000000000.00 0000000.00   0000000.00                             000000000000000                                                                                                                                                     01424 G000000002079 0000000000000.53     02050 01000                  
00005080141020001P16759067590000001427480010280000001010000000000000000                             2000000000000000000000000              000000000000                    0000000000000000000000000                    000000000000                                                                                                                                                                                                                                                                                                                                                                                                                                                                                        
00005090141020026DT67590675900000014274800102800000010180010287287283124900017801049050420230000002487012423000000000435596524366XXXXXX7058       ME03KE06MS02      NY 4607AMPLY4VVWZ0504  N840000000024870          81DNCBD8666317293            00487B    MC84000000024870 N  549977145232   857853E0DAT5622513BB51E  000000000+600450S00130    MPL  00580                     000000000  N                0000000000000.00 0000000.00   0000000.00                             000000000000000                                                                                                                                                   U001424  000000000000 0000000000005.32     02100 01000                  
00005100141020027DT67590675900000014274800102800000010680010287287283124900017801064050420230000000987912423000000000435596524366XXXXXX7058                         NY 4607AMPLKAQ26E0504  N840000000009879          81CNCBD8666317293            004660    MC84000000009879 N  549977145232   857853E0DAT5622513BB51E  000000000+600450S00130    MPL  00565                     000000000  N                0000000000000.00 0000000.00   0000000.00                             000000000000000                                                                                                                                                     01424  000000000000-0000000000001.73     01750 00000                  
00005110141020028DT67590675900000014274800102800000010180010287287283124900017801098050420230000001400812423000000000435596516417XXXXXX2099       ME03KE06MS02      NY 4607AMDJKQL56E0504  N840000000014008          81DNCBD8666317293            746268    MD84000000014008 N  549977145232   F97787EAC6T57A785B4D124  000000000+600450S00130    MDJ  00401                     000000000  N                0000000000000.00 0000000.00   0000000.00                             000000000000000                                                                                                                                                   U001424  000000000000 0000000000002.46     01650 01500                  
00005120141020029DT67590675900000014274800102800000010680010274001193124900017801118050420230000001589012423000000000435596431196XXXXXX7895               0000000   NYV4 07T463124598257932N840000000015890C5SR00    01CNCBD8666317293            004812    VS84000000015890 NP1549977145232   6BAE6F7AA5TFD6CF0A6B95C  000000000+                D CD 00245                     000000000  N000000000 166   0000000000000.00 0000000.00   0000000.00                             000000000000000                                                                                                                                                     01424  000000015890-0000000000002.80     01760 00000                  
00005130141020001P16759067590000001427480010280000001060000000000000000                             2000000000000000000000000              000000000000                    0000000000000000000000000                    000000000000                                                                                                                                                                                                                                                                                                                                                                                                                                                                                        
00005140141020030DT67590675900000014274800102800000010180010224001193124900017801139050420230000001284912423000000000435596440393XXXXXX0791               2111111   NYV4 A7W463124601991047N840000000012849CMXM00    01DNCBD8666317293            737600    VD84000000012849 NP1549977145232   DFBFDE5077T2E38636D838D  000000000+                F PF 08175                     000000000  N000000000       0000000000000.00 0000000.00   0000000.00                             000000000000000                                                                                                                                                     01424 G000000012849 0000000000002.45     01750 02000                  
00005150141020001P16759067590000001427480010280000001010000000000000000                             2000000000000000000000000              000000000000                    0000000000000000000000000                    000000000000                                                                                                                                                                                                                                                                                                                                                                                                                                                                                        
00005160141020031DT67590675900000014274800102800000010680010287287283124900017801148050420230000000993512423000000000435596536740XXXXXX3524                         NY 4607AMDJJECG480504  N840000000009935          81CNCBD8666317293            001028    MD84000000009935 N  549977145232   93631A2125T136D99499784  000000000+600450S00130    MDJ  00560                     000000000  N                0000000000000.00 0000000.00   0000000.00                             000000000000000                                                                                                                                                     01424  000000000000 0000000000000.00     00000 00000                  
00005170141020032DT67590675900000014274800102800000010680010274001193124900017801159050420230000000600012423000000000435596440393XXXXXX0791               0000000   NYV4 07T303124607242881N840000000006000N6JM00    01CNCBD8666317293            920217    VD84000000006000 NP1549977145232   DFBFDE5077T2E38636D838D  000000000+                F PF 08168                     000000000  N000000000 369   0000000000000.00 0000000.00   0000000.00                             000000000000000                                                                                                                                                     01424  000000006000 0000000000000.00     00000 00000                  
00005180141020001P16759067590000001427480010280000001060000000000000000                             2000000000000000000000000              000000000000                    0000000000000000000000000                    000000000000                                                                                                                                                                                                                                                                                                                                                                                                                                                                                        
00005190141020033DT67590675900000014274800102800000010180010224001193124900017801196050420230000001000012423000000000435596434256XXXXXX0191               2111111   NYV4 A7W383124612471290N840000000010000S5CF00    01DNCBD8666317293            004627    VD84000000010000 NP1549977145232   F1E345283FT40DE83B2357E  000000000+                F DF 10420                     000000000  Y000000000 338   0000000000000.00 0000000.00   0000000.00                             000000000000000                                                                                                                                                     01424 G000000010000 0000000000000.27     00050 02200                  
00005200141020001P16759067590000001427480010280000001010000000000000000                             2000000000000000000000000              000000000000                    0000000000000000000000000                    000000000000                                                                                                                                                                                                                                                                                                                                                                                                                                                                                        
00005210141020034DT67590675900000014274800102800000010180010224001193124900017801238050420230000002126112423000000000435596486933XXXXXX0081               2111111   NYV4 A7W303124616757519N840000000021261G6B500    01DNCBD8666317293            650294    VD84000000021261 NP1549977145232   56F0592C82T7F86499C9C5A  000000000+                F DF 00415                     000000000  N000000000       0000000000000.00 0000000.00   0000000.00                             000000000000000                                                                                                                                                     01424 G000000021261 0000000000003.66     01650 01500                  
00005220141020001P16759067590000001427480010280000001010000000000000000                             2000000000000000000000000              000000000000                    0000000000000000000000000                    000000000000                                                                                                                                                                                                                                                                                                                                                                                                                                                                                        
00005230141020035DT67590675900000014274800102800000010680010287287283124900017801270050420230000001799112423000000000435596511560XXXXXX6638                         NY 4607AMPVKY5E480504  N840000000017991          81CNCBD8666317293            769184    MD84000000017991 N  549977145232   3FC0673810T84709918E440  000000000+600450S00130    MPV  00560                     000000000  N                0000000000000.00 0000000.00   0000000.00                             000000000000000                                                                                                                                                     01424  000000000000 0000000000000.00     00000 00000                  
00005240141020036DT67590675900000014274800102800000010180010224001193124900017801303050420230000000639812423000000000435596454951XXXXXX2279               2111111   NYV4 07W463124640653745N8400000000063985VX700    01DNCBD8666317293            657093    VD84000000006398FNP1549977145232   3620B3B05ETC5D8A550C71B  000000000+                F DF 10574                     000000000  Y000000000 603   0000000000000.00 0000000.0000 0000000.64D                            000000000000000                                                                                                                                                     01424 G000000006398 0000000000000.25     00050 02200                  
00005250141020001P16759067590000001427480010280000001010000000000000000                             2000000000000000000000000              000000000000                    0000000000000000000000000                    000000000000                                                                                                                                                                                                                                                                                                                                                                                                                                                                                        
00005260141020037DT67590675900000014274800102800000010180010224001193124900017801311050420230000000319912423000000000435596414720XXXXXX0098               2111111   NYV4 A7W383124646953734N840000000003199FBJ800    01DNCBD8666317293            04475D    VS84000000003199 NP1549977145232   B01F93CEEBTA265EA96AF9B  000000000+                D CD 12109                     000000000  N000000000 498   0000000000000.00 0000000.00   0000000.00                             000000000000000                                                                                                                                                     01424 G000000003199 0000000000000.90     02500 01000                  
00005270141020001P16759067590000001427480010280000001010000000000000000                             2000000000000000000000000              000000000000                    0000000000000000000000000                    000000000000                                                                                                                                                                                                                                                                                                                                                                                                                                                                                        
00005280141020038DT67590675900000014274800102800000010180010224001193124900017801352050420230000002136012423000000000435596444796XXXXXX4024               2111111   NYV4 A7W383124650614012N840000000021360CKL300    01DNCBD8666317293            004400    VS84000000021360 NP1549977145232   67906EEFEET833602E79B56  000000000+                A CA 12106                     000000000  N000000000 492   0000000000000.00 0000000.00   0000000.00                             000000000000000                                                                                                                                                     01424 G000000021360 0000000000004.14     01890 01000                  
00005290141020001P16759067590000001427480010280000001010000000000000000                             2000000000000000000000000              000000000000                    0000000000000000000000000                    000000000000                                                                                                                                                                                                                                                                                                                                                                                                                                                                                        
00005300141020039DT67590675900000014274800102800000010180010287287283124900017801387050420230000001987012423000000000435596552433XXXXXX6461       ME03KE06MS02      NY 4607AMPLLBI7ZU0504  N840000000019870          81DNCBD8666317293            05461M    MC84000000019870 N  549977145232   2C99ACFFB1T7C85A4C1F8A9  000000000+600450S00130    MPL  00580                     000000000  N                0000000000000.00 0000000.00   0000000.00                             000000000000000                                                                                                                                                   U001424  000000000000 0000000000004.27     02100 01000                  
00005310141020040DT67590675900000014274800102800000010180010224001193124900017801402050420230000000158512423000000000435596443041XXXXXX7746               2111111   NYV4 A7W383124668821542N840000000001585DMTW00    01DNCBD8666317293            444015    VD84000000001585 NP1549977145232   1B07071FC3T969800C497C3  000000000+                F DF 10420                     000000000  Y000000000 338   0000000000000.00 0000000.00   0000000.00                             000000000000000                                                                                                                                                     01424 G000000001585 0000000000000.23     00050 02200                  
00005320141020001P16759067590000001427480010280000001010000000000000000                             2000000000000000000000000              000000000000                    0000000000000000000000000                    000000000000                                                                                                                                                                                                                                                                                                                                                                                                                                                                                        
00005330141020041DT67590675900000014274800102800000010180010224001193124900017801410050420230000002487012423000000000435596434769XXXXXX2709               2111111   NYV4 A7W303124669040046N840000000024870PDMW00    01DNCBD8666317293            043514    VD84000000024870 NP1549977145232   41704C86F5T30670A945312  000000000+                F DF 10420                     000000000  Y000000000 338   0000000000000.00 0000000.00   0000000.00                             000000000000000                                                                                                                                                     01424 G000000024870 0000000000000.34     00050 02200                  
00005340141020001P16759067590000001427480010280000001010000000000000000                             2000000000000000000000000              000000000000                    0000000000000000000000000                    000000000000                                                                                                                                                                                                                                                                                                                                                                                                                                                                                        
00005350141020042DT67590675900000014274800102800000010180010224001193124900017801444050420230000002636212423000000000435596445390XXXXXX1427               2111111   NYV4 A7W303124669367161N84000000002636273Q800    01DNCBD8666317293            003592    VD84000000026362 NP1549977145232   0D3A3FEE5BT3CB4A2D6AD0B  000000000+                G DG 08705                     000000000  N000000000       0000000000000.00 0000000.00   0000000.00                             000000000000000                                                                                                                                                     01424 G000000026362 0000000000006.56     02450 01000                  
00005360141020001P16759067590000001427480010280000001010000000000000000                             1000000001492000000000000              000000000000                    0000000000000000000000000                    000000000000                                                                                                                                                                                                                                                                                                                                                                                                                                                                                        
00005370141020043DT67590675900000014274800102800000010680010287287283124900017801759050420230000002126112423000000000435596514230XXXXXX9421                         NY94607N         0504  N840000000000000          81CNCBD8666317293                      MD84000000021261 N  549977145232   FA2265C553TD61B4257F42A  000000000+600450S00130    MDJ  00560                     000000000  N                0000000000000.00 0000000.00   0000000.00                             000000000000000                                                                                                                                                     01424  000000000000 0000000000000.00     00000 00000                  
00005380141020044DT67590675900000014274800102800000010180010287287283124900017801551050420230000001342312423000000000435596529149XXXXXX6278       ME03KE06MS02      NY 4607AMWEMB2HB00504  N840000000013423          81DNCBD8666317293            05172P    MC84000000013423 N  549977145232   FC672F40A5T44CE2F8A8EE4  000000000+600450S00130    MWE  00737                     000000000  N                0000000000000.00 0000000.00   0000000.00                             000000000000000                                                                                                                                                   U001424  000000000000 0000000000003.59     02600 01000                  
00005390141020045DT67590675900000014274800102800000010180010224001193124900017801600050420230000001569712423000000000435596438857XXXXXX1553               2111111   NYV4 A7W383124786422049N840000000015697D9HD00    01DNCBD8666317293            01282D    VS84000000015697 NP1549977145232   BF1DBF7E9BT5CD1B546B6A6  000000000+                D CD 12109                     000000000  N000000000 498   0000000000000.00 0000000.00   0000000.00                             000000000000000                                                                                                                                                     01424 G000000015697 0000000000004.02     02500 01000                  
00005400141020001P16759067590000001427480010280000001010000000000000000                             2000000000000000000000000              000000000000                    0000000000000000000000000                    000000000000                                                                                                                                                                                                                                                                                                                                                                                                                                                                                        
00005410141020046DT67590675900000014274800102800000010180010287287283124900017801643050420230000002126112423000000000435596542432XXXXXX4947       ME03KE06MS02      NY 4607AMDJI1F75S0504  N840000000021261          81DNCBD8666317293            726435    MD84000000021261 N  549977145232   3A742176DET274A5D6BB934  000000000+600450S00130    MDJ  10813                     000000000  1                0000000000000.00 0000000.00   0000000.00                             000000000000000                                                                                                                                                   U001424  000000000000 0000000000000.33     00050 02200                  
00005420141020047DT67590675900000014274800102800000010180010224001193124900017801659050420230000001335412423000000000435596438857XXXXXX5918               2111111   NYV4 A7W383124828107949N840000000013354DPRJ00    01DNCBD8666317293            00308D    VS84000000013354 NP1549977145232   D07F95DB27T57CEDBBE7FCC  000000000+                D CD 12109                     000000000  N000000000 498   0000000000000.00 0000000.00   0000000.00                             000000000000000                                                                                                                                                     01424 G000000013354 0000000000003.44     02500 01000                  
00005430141020001P16759067590000001427480010280000001010000000000000000                             2000000000000000000000000              000000000000                    0000000000000000000000000                    000000000000                                                                                                                                                                                                                                                                                                                                                                                                                                                                                        
00005440141020048BH675906759000000198288001098000009017050420231242300000000012764501970000090001459326N8001096759D05052023                                                                                                                                                                                                                                                                                                                                                                                                                                                                                                                                                                                                 
00005450141020049DT67590675900000019828800109800000010680010987287283124900014593284050420230000001987012423000000000127645523957XXXXXX7224                         NN94607N         0504  N840000000000000          81CNKETOFUSION 8885968154          0197MD84000000019870 N  599977547467   663AADB86FT0E444EB440C9  000000000+600450S00130    MDJ  00000                     000000000  N                0000000000000.00 0000000.00   0000000.00             000000000019870C000000000000000                                                                                                                                                     01424  000000000000 0000000000000.00     00000 00000                  
00005460141020050DT67590675900000019828800109800000010680010987287283124900014593193050420230000002487012423000000000127645553853XXXXXX6622                         NN 4607AMDJAV0TVD0504  N840000000024870          81CNKETOFUSION 8885968154    3606150197MD84000000024870 N  599977547467   716B69D635T4390F4E11C3C  000000000+600450S00130    MDJ  00000                     000000000  N                0000000000000.00 0000000.00   0000000.00             000000000024870C000000000000000                                                                                                                                                     01424  000000000000 0000000000000.00     00000 00000                  
00005470141020051DT67590675900000019828800109800000010680010987287283124900014593201050420230000000507812423000000000127645559591XXXXXX0177                         NN 4607AMCWCK586E0504  N840000000005078          81CNKETOFUSION 8885968154    0624880197MC84000000005078 N  599977547467   96ED9F06FFT8A12086B9DA9  000000000+600450S00130    MCW  00000                     000000000  N                0000000000000.00 0000000.00   0000000.00             000000000005078C000000000000000                                                                                                                                                     01424  000000000000 0000000000000.00     00000 00000                  
00005480141020052DT67590675900000019828800109800000010680010976509753124900014593216050420230000001465512423000000000127645601101XXXXXX6498   BA00                  NN 4 07N803106826518842N840000000014655    00    01CNKETOFUSION 8885968154    00413R0197DS84000000014655 N  599977547467070                         000000000+1015104910600   DCCDI00000000583  142411200000 000000000  0          134   0000000000000.00 0000000.00   0000000.00             000000000014655C000000000000000                                                                                                                                                     01424  000000000000 0000000000000.00     00000 00000                  
00005490141020053DT67590675900000019828800109800000010680010987287283124900014593227050420230000000656612423000000000127645536223XXXXXX0648                         NN 4607AMDJGIV9480504  N840000000006566          81CNKETOFUSION 8885968154    7919770197MD84000000006566 N  599977547467   4263BC1221TE6567B6372CB  000000000+600450S00130    MDJ  00000                     000000000  1                0000000000000.00 0000000.00   0000000.00             000000000006566C000000000000000                                                                                                                                                     01424  000000000000 0000000000000.00     00000 00000                  
00005500141020054DT67590675900000019828800109800000010680010987287283124900014593235050420230000001987012423000000000127645526924XXXXXX9353                         NN 4607AMDJFI7SZU0504  N840000000019870          81CNKETOFUSION 8885968154    0042060197MD84000000019870 N  599977547467   9E43CB24EFT0E22D8E50479  000000000+600450S00130    MDJ  00000                     000000000  N                0000000000000.00 0000000.00   0000000.00             000000000019870C000000000000000                                                                                                                                                     01424  000000000000 0000000000000.00     00000 00000                  
00005510141020055DT67590675900000019828800109800000010680010974001193124900014593247050420230000000899612423000000000127645442868XXXXXX9539               0000000   NNV4 07T583124810488470N840000000008996GQ9G00    01CNKETOFUSION 8885968154    0041580197VS84000000008996 NP1599977547467   FE92D7B357T70BBE3E0CDB3  000000000+                C CC 00000                     000000000  N000000000 166   0000000000000.00 0000000.00   0000000.00             000000000008996C000000000000000                                                                                                                                                     01424  000000008996 0000000000000.00     00000 00000                  
00005520141020001P16759067590000001982880010980000001060000000000000000                             2000000000000000000000000              000000000000                    0000000000000000000000000                    000000000000                                                                                                                                                                                                                                                                                                                                                                                                                                                                                        
00005530141020056DT67590675900000019828800109800000010680010974001193124900014593254050420230000002255012423000000000127645463405XXXXXX8228               0000000   NNV4 07T463124856075267N840000000022550J9FF00    01CNKETOFUSION 8885968154    0140530197VD84000000022550 NP1599977547467   49AFE23C24T8722FCE36CF3  000000000+                F DF 00000                     000000000  Y000000000 369   0000000000000.00 0000000.00   0000000.00             000000000022550C000000000000000                                                                                                                                                     01424  000000022550 0000000000000.00     00000 00000                  
00005540141020001P16759067590000001982880010980000001060000000000000000                             2000000000000000000000000              000000000000                    0000000000000000000000000                    000000000000                                                                                                                                                                                                                                                                                                                                                                                                                                                                                        
00005550141020057DT67590675900000019828800109800000010680010974001193124900014593262050420230000000519012423000000000127645463405XXXXXX8228               0000000   NNV4 07T303124856103739N840000000005190VNB600    01CNKETOFUSION 8885968154    0406110197VD84000000005190 NP1599977547467   49AFE23C24T6CF9B5A7B70D  000000000+                F DF 00000                     000000000  Y000000000 369   0000000000000.00 0000000.00   0000000.00             000000000005190C000000000000000                                                                                                                                                     01424  000000005190 0000000000000.00     00000 00000                  
00005560141020001P16759067590000001982880010980000001060000000000000000                             2000000000000000000000000              000000000000                    0000000000000000000000000                    000000000000                                                                                                                                                                                                                                                                                                                                                                                                                                                                                        
00005570141020058BH6759067590000001767380010680000090170504202312423000000000168852    0000090001381535Y8001066759C05052023                                                                                                                                                                                                                                                                                                                                                                                                                                                                                                                                                                                                 
00005580141020059DT67590675900000017673800106800000010180010624001193124900013814805050320230000001742612423000000000168852482199XXXXXX2062               2111111   NYV4 A7W583124008731945N840000000017426PGJ400    01DNVGHEMP.COM833-246-5225   091433    VD84000000017426 NP1549977427364   BA21E7478CT95935C637047  000000000+                F DF 00415                     000000000  N000000000       0000000000000.00 0000000.00   0000000.00                             000000000000000                                                                                                                                                     01424 G000000017426 0000000000003.03     01650 01500                  
00005590141020001P16759067590000001767380010680000001010000000000000000                             2000000000000000000000000              000000000000                    0000000000000000000000000                    000000000000                                                                                                                                                                                                                                                                                                                                                                                                                                                                                        
00005600141020060DT67590675900000017673800106800000010180010624001193124900013814896050320230000002178912423000000000168852410039XXXXXX8790               2111111   NYV4 A7W463124168938484N840000000021789VNW600    01DNVGHEMP.COM833-246-5225   36020D    VS84000000021789 NP1549977427364   9F364A8944T01CDF6966EDE  000000000+                D CD 12109                     000000000  N000000000 498   0000000000000.00 0000000.00   0000000.00                             000000000000000                                                                                                                                                     01424 G000000021789 0000000000005.55     02500 01000                  
00005610141020001P16759067590000001767380010680000001010000000000000000                             2000000000000000000000000              000000000000                    0000000000000000000000000                    000000000000                                                                                                                                                                                                                                                                                                                                                                                                                                                                                        
00005620141020061DT67590675900000017673800106800000010180010624001193124900013814904050320230000000544912423000000000168852410039XXXXXX8790               2111111   NYV4 A7W303124170657361N840000000005449C8FP00    01DNVGHEMP.COM833-246-5225   07827D    VS84000000005449 NP1549977427364   9F364A8944T1B8572CB618D  000000000+                D CD 12109                     000000000  N000000000 498   0000000000000.00 0000000.00   0000000.00                             000000000000000                                                                                                                                                     01424 G000000005449 0000000000001.46     02500 01000                  
00005630141020001P16759067590000001767380010680000001010000000000000000                             2000000000000000000000000              000000000000                    0000000000000000000000000                    000000000000                                                                                                                                                                                                                                                                                                                                                                                                                                                                                        
00005640141020062DT67590675900000017673800106800000010180010624001193124900013815018050420230000002178912423000000000168852443547XXXXXX4016               2111111   NYV4 A7W383124580859938N840000000021789Z73Z00    01DNVGHEMP.COM833-246-5225   093454    VD84000000021789 NP1549977427364   44F687D3D9T19B6239B4404  000000000+                F DF 10420                     000000000  Y000000000 338   0000000000000.00 0000000.00   0000000.00                             000000000000000                                                                                                                                                     01424 G000000021789 0000000000000.33     00050 02200                  
00005650141020001P16759067590000001767380010680000001010000000000000000                             2000000000000000000000000              000000000000                    0000000000000000000000000                    000000000000                                                                                                                                                                                                                                                                                                                                                                                                                                                                                        
00005660141020063DT67590675900000017673800106800000010180010687287283124900013815043050420230000002178912423000000000168852512876XXXXXX0938       ME03KE06MS02      NY 4607AMDJT7ZZ480504  N840000000021789          81DNVGHEMP.COM833-246-5225   702648    MD84000000021789 N  549977427364   BA845D7C05TCD353FB2ACB6  000000000+600450S00130    MDJ  10813                     000000000  1                0000000000000.00 0000000.00   0000000.00                             000000000000000                                                                                                                                                   U001424  000000000000 0000000000000.33     00050 02200                  
00005670141020064DT67590675900000017673800106800000010180010687287283124900013815050050420230000000544912423000000000168852512876XXXXXX0938       ME03KE06MS02      NY 4607AMDJ172K480504  N840000000005449          81DNVGHEMP.COM833-246-5225   702710    MD84000000005449 N  549977427364   BA845D7C05TB236FF2A94E6  000000000+600450S00130    MDJ  10813                     000000000  1                0000000000000.00 0000000.00   0000000.00                             000000000000000                                                                                                                                                   U001424  000000000000 0000000000000.25     00050 02200                  
00005680141020065DT67590675900000017673800106800000010180010687287283124900013815068050420230000002178912423000000000168852515959XXXXXX1715       ME03KE06MS02      NY 4607AMPLEIJ4480504  N840000000021789          81DNVGHEMP.COM833-246-5225   004055    MC84000000021789 N  549977427364   2A141BE37ETCE06FB7B7B7B  000000000+600450S00130    MPL  00013                     000000000  N                0000000000000.00 0000000.00   0000000.00                             000000000000000                                                                                                                                                   U001424  000000000000 0000000000004.35     01950 01000                  
00005690141020066DT67590675900000017673800106800000010180010687287283124900013815225050420230000002178912423000000000168852542539XXXXXX1539       ME03KE06MS02      NY 4607AMPL3FL5480504  N840000000021789          81DNVGHEMP.COM833-246-5225   004849    MC84000000021789 N  549977427364   BB6DEC8C46TF8FC95CCB534  000000000+600450S00130    MPL  00013                     000000000  N                0000000000000.00 0000000.00   0000000.00                             000000000000000                                                                                                                                                   U001424  000000000000 0000000000004.35     01950 01000                  
00005700141020067DT67590675900000017673800106800000010180010687287283124900013815241050420230000000544912423000000000168852542539XXXXXX1539       ME03KE06MS02      NY 4607AMPLFII4480504  N840000000005449          81DNVGHEMP.COM833-246-5225   004459    MC84000000005449 N  549977427364   BB6DEC8C46T91E071095F29  000000000+600450S00130    MPL  00013                     000000000  N                0000000000000.00 0000000.00   0000000.00                             000000000000000                                                                                                                                                   U001424  000000000000 0000000000001.16     01950 01000                  
00005710141020068DT67590675900000017673800106800000010180010624001193124900013815281050420230000001306712423000000000168852466189XXXXXX6470               2111111   NYV4 A7W383124724726564N8400000000130673GT700    01DNVGHEMP.COM833-246-5225   011990    VD84000000013067 NP1549977427364   415C9136F6T621AE941C06D  000000000+                F DF 10420                     000000000  Y000000000 338   0000000000000.00 0000000.00   0000000.00                             000000000000000                                                                                                                                                     01424 G000000013067 0000000000000.29     00050 02200                  
00005720141020001P16759067590000001767380010680000001010000000000000000                             2000000000000000000000000              000000000000                    0000000000000000000000000                    000000000000                                                                                                                                                                                                                                                                                                                                                                                                                                                                                        
00005730141020069DT67590675900000017673800106800000010180010624001193124900013815356050420230000001306712423000000000168852426684XXXXXX0327               2111111   NYV4 A7W303124751174299N8400000000130673XVK00    01DNVGHEMP.COM833-246-5225   04718B    VS84000000013067 NP1549977427364   3277DA9151TC7C33B500B37  000000000+                B CB 12107                     000000000  N000000000 494   0000000000000.00 0000000.00   0000000.00                             000000000000000                                                                                                                                                     01424 G000000013067 0000000000002.77     02040 01000                  
00005740141020001P16759067590000001767380010680000001010000000000000000                             2000000000000000000000000              000000000000                    0000000000000000000000000                    000000000000                                                                                                                                                                                                                                                                                                                                                                                                                                                                                        
00005750141020070BH6759067590000000370780088880000090170504202312423000000000073209    0000090001980694Y8008886759C05052023                                                                                                                                                                                                                                                                                                                                                                                                                                                                                                                                                                                                 
00005760141020071DT67590675900000003707800888800000010180088824001193124900019806896050320230000002999912423000000000073209425907XXXXXX0363               2111111   NYV4 A7W303124006618490N840000000029999XG7Z00    01DNMR HEMP FLOWER           070259    VD84000000029999 NP1549976053336   89308                    000000000+                G DG 10352                     000000000  Y000000000 338   0000000000000.00 0000000.00   0000000.00                             000000000000000                                                                                                                                                     01424 G000000029999 0000000000000.37     00050 02200                  
00005770141020001P16759067590000000370780088880000001010000000000000000                             2000000000000000000000000              000000000000                    0000000000000000000000000                    000000000000                                                                                                                                                                                                                                                                                                                                                                                                                                                                                        
00005780141020072DT67590675900000003707800888800000010180088824001193124900019806904050420230000000449912423000000000073209411773XXXXXX1500               2111111   NYV4 A7W583124486534918N840000000004499W9WZ00    01DNMR HEMP FLOWER           153506    VD84000000004499 NP1549976053336   89318                    000000000+                F DF 10420                     000000000  Y000000000 338   0000000000000.00 0000000.00   0000000.00                             000000000000000                                                                                                                                                     01424 G000000004499 0000000000000.24     00050 02200                  
00005790141020001P16759067590000000370780088880000001010000000000000000                             2000000000000000000000000              000000000000                    0000000000000000000000000                    000000000000                                                                                                                                                                                                                                                                                                                                                                                                                                                                                        
00005800141020073DT67590675900000003707800888800000010180088824001193124900019806912050420230000001050012423000000000073209411773XXXXXX1500               2111111   NYV4 A7W383124491642929N840000000010500534V00    01DNMR HEMP FLOWER           153994    VD84000000010500 NP1549976053336   89320                    000000000+                F DF 10420                     000000000  Y000000000 338   0000000000000.00 0000000.00   0000000.00                             000000000000000                                                                                                                                                     01424 G000000010500 0000000000000.27     00050 02200                  
00005810141020001P16759067590000000370780088880000001010000000000000000                             2000000000000000000000000              000000000000                    0000000000000000000000000                    000000000000                                                                                                                                                                                                                                                                                                                                                                                                                                                                                        
00005820141020074DT67590675900000003707800888800000010180088876509753124900019806928050420230000001450012423000000000073209601101XXXXXX0650   BA00                  NY 4 07N743106683906405N840000000014500    00    01DNMR HEMP FLOWER           00422P    DS84000000014500 N  549976053336070                         000000000+1015104910600   DCPDI11327500697  102630000000 000000000  0          462   0000000000000.00 0000000.00   0000000.00                             000000000000000                                                                                                                                                     01424  000000000000 0000000000003.07     02050 01000                  
00005830141020075DT67590675900000003707800888800000010180088824001193124900019806938050420230000000721212423000000000073209473703XXXXXX2032               2111111   NYV4 A7W383124563782834N8400000000072127QZG00    01DNMR HEMP FLOWER           080507    VD84000000007212 NP1549976053336   89322                    000000000+                F DF 10420                     000000000  Y000000000 338   0000000000000.00 0000000.00   0000000.00                             000000000000000                                                                                                                                                     01424 G000000007212 0000000000000.26     00050 02200                  
00005840141020001P16759067590000000370780088880000001010000000000000000                             2000000000000000000000000              000000000000                    0000000000000000000000000                    000000000000                                                                                                                                                                                                                                                                                                                                                                                                                                                                                        
00005850141020076DT67590675900000003707800888800000010180088824001193124900019806946050420230000000649912423000000000073209466188XXXXXX7542               2111111   NYV4 A7W303124747545662N8400000000064992FWJ00    01DNMR HEMP FLOWER           051181    VD84000000006499 NP1549976053336   89330                    000000000+                F DF 10420                     000000000  Y000000000 338   0000000000000.00 0000000.00   0000000.00                             000000000000000                                                                                                                                                     01424 G000000006499 0000000000000.25     00050 02200                  
00005860141020001P16759067590000000370780088880000001010000000000000000                             2000000000000000000000000              000000000000                    0000000000000000000000000                    000000000000                                                                                                                                                                                                                                                                                                                                                                                                                                                                                        
00005870141020077BH6759067590000001330080010280000090170504202312423000000000442745    0000090001780929Y8001026759C05052023                                                                                                                                                                                                                                                                                                                                                                                                                                                                                                                                                                                                 
00005880141020078DT67590675900000013300800102800000010180010287287283124900017804423050320230000002185712423000000000442745526947XXXXXX9905       ME03KE06PT01      NY 4607AMCWMPGT1T0430  N840000000021857          81DNCBD8666317293            04430Z    MC84000000021857 N  549977133133   CFF4CF4DE6T6326828AC186  000000000+600450S00130    MCW  00642                     000000000  N                0000000000000.00 0000000.00   0000000.00                             000000000000000                                                                                                                                                   U001424  000000000000 0000000000004.91     02200 01000                  
00005890141020079DT67590675900000013300800102800000010180010287287283124900017804506050320230000001925012423000000000442745537993XXXXXX6964       ME03KE06MS02      NY 4607AMPLQBSF610430  N840000000019250          81DNCBD8666317293            03055Z    MC84000000019250 N  549977133133   DA070AD7D8TF5408DC48155  000000000+600450S00130    MPL  00013                     000000000  N                0000000000000.00 0000000.00   0000000.00                             000000000000000                                                                                                                                                   U001424  000000000000 0000000000003.85     01950 01000                  
00005900141020080DT67590675900000013300800102800000010180010287287283124900017804563050320230000001604012423000000000442745542418XXXXXX0678       ME03KE06MS02      NY 4607AMPLGXLU5K0430  N840000000016040          81DNCBD8666317293            35777B    MC84000000016040 N  549977133133   C0B70B17FFTC25008289209  000000000+600450S00130    MPL  00580                     000000000  N                0000000000000.00 0000000.00   0000000.00                             000000000000000                                                                                                                                                   U001424  000000000000 0000000000003.47     02100 01000                  
00005910141020081DT67590675900000013300800102800000010180010287287283124900017804696050320230000002487012423000000000442745546616XXXXXX1435       ME03KE06PT01      NY 4607AMCW4S3H610430  N840000000024870          81DNCBD8666317293            51308S    MC84000000024870 N  549977133133   502817AF10T04F6E7991BB0  000000000+600450S00130    MCW  02182                     000000000  N                0000000000000.00 0000000.00   0000000.00                             000000000000000                                                                                                                                                   U001424  000000000000 0000000000006.57     02600 01000                  
00005920141020082DT67590675900000013300800102800000010180010287287283124900017804753050320230000002487012423000000000442745542418XXXXXX5878       ME03KE06PT01      NY 4607AMCWKPBZNN0430  N840000000024870          81DNCBD8666317293            61613T    MC84000000024870 N  549977133133   5B324AAD05T9A635B0043B6  000000000+600450S00130    MCW  02182                     000000000  N                0000000000000.00 0000000.00   0000000.00                             000000000000000                                                                                                                                                   U001424  000000000000 0000000000006.57     02600 01000                  
00005930141020083DT67590675900000013300800102800000010180010287287283124900017804761050320230000002146012423000000000442745517835XXXXXX8047       ME03KE06MS02      NY 4607AMPLLM5L5K0430  N840000000021460          81DNCBD8666317293            650671    MC84000000021460 N  549977133133   77C8EBB76CT4D69412E049F  000000000+600450S00130    MPL  00013                     000000000  N                0000000000000.00 0000000.00   0000000.00                             000000000000000                                                                                                                                                   U001424  000000000000 0000000000004.28     01950 01000                  
00005940141020084DT67590675900000013300800102800000010180010287287283124900017804779050320230000001499112423000000000442745546081XXXXXX5973       ME03KE06MS02      NY 4607AMDJHDKTNN0430  N840000000014991          81DNCBD8666317293            666427    MD84000000014991 N  549977133133   D7067D6961T4C22AF936FC8  000000000+600450S00130    MDJ  00401                     000000000  N                0000000000000.00 0000000.00   0000000.00                             000000000000000                                                                                                                                                   U001424  000000000000 0000000000002.62     01650 01500                  
00005950141020085DT67590675900000013300800102800000010180010287287283124900017808044050320230000000533612423000000000442745517805XXXXXX3492       ME03KE06MS02      NY 4607AMPLF8TEO00503  N840000000005336          81DNCBD8666317293            01738B    MC84000000005336 N  549977133133   66C0657178T75747015488F  000000000+600450S00130    MPL  00580                     000000000  N                0000000000000.00 0000000.00   0000000.00                             000000000000000                                                                                                                                                   U001424  000000000000 0000000000001.22     02100 01000                  
00005960141020086DT67590675900000013300800102800000010180010287287283124900017808093050320230000001484812423000000000442745517546XXXXXX4952       ME03KE06MS02      NY 4607AMDJASR8H60503  N840000000014848          81DNCBD8666317293            003082    MD84000000014848 N  549977133133   41F01FE18FT08962E5C218F  000000000+600450S00130    MDJ  10813                     000000000  1                0000000000000.00 0000000.00   0000000.00                             000000000000000                                                                                                                                                   U001424  000000000000 0000000000000.29     00050 02200                  
00005970141020087DT67590675900000013300800102800000010180010287287283124900017808101050320230000001066012423000000000442745517768XXXXXX2604       ME03KE06MS02      NY 4607AMPLAXBDH60503  N840000000010660          81DNCBD8666317293            003001    MC84000000010660 N  549977133133   16DD9DF18DT71DBB9A4AAF7  000000000+600450S00130    MPL  00013                     000000000  N                0000000000000.00 0000000.00   0000000.00                             000000000000000                                                                                                                                                   U001424  000000000000 0000000000002.18     01950 01000                  
00005980141020088DT67590675900000013300800102800000010180010287287283124900017808143050320230000001059812423000000000442745533248XXXXXX9400       ME03KE06MS02      NY 4607AMPVX1FZHU0503  N840000000010598          81DNCBD8666317293            AHDKWQ    MD84000000010598 N  549977133133   E35442A05ATE17DC92B88FB  000000000+600450S00130    MPV  09899                     000000000  N                0000000000000.00 0000000.00   0000000.00                             000000000000000                                                                                                                                                   U001424  000000000000 0000000000002.07     01760 02000                  
00005990141020089DT67590675900000013300800102800000010180010224001193124900017808209050320230000002190712423000000000442745403784XXXXXX8671               2111111   NYV4 A7W583124117046365N8400000000219073H3H00    01DNCBD8666317293            223051    VS84000000021907 NP1549977133133   89279B1666T843A98F11AEA  000000000+                C CC 12108                     000000000  N000000000 496   0000000000000.00 0000000.00   0000000.00                             000000000000000                                                                                                                                                     01424 G000000021907 0000000000004.59     02050 01000                  
00006000141020001P16759067590000001330080010280000001010000000000000000                             2000000000000000000000000              000000000000                    0000000000000000000000000                    000000000000                                                                                                                                                                                                                                                                                                                                                                                                                                                                                        
00006010141020090DT67590675900000013300800102800000010180010287287283124900017808416050420230000002151912423000000000442745518941XXXXXX2486       ME03KE06MS02      NY 4607AMWEZ0FFVC0504  N840000000021519          81DNCBD8666317293            59404Z    MC84000000021519 N  549977133133   2BD7274D32T4EB2FAA4F5BD  000000000+600450S00130    MWE  00737                     000000000  N                0000000000000.00 0000000.00   0000000.00                             000000000000000                                                                                                                                                   U001424  000000000000 0000000000005.69     02600 01000                  
00006020141020091DT67590675900000013300800102800000010680010287287283124900017808424050420230000001059812423000000000442745533248XXXXXX9400                         NY 4607AMPVATIZ6E0504  N840000000010598          81CNCBD8666317293            AK6O5J    MD84000000010598 N  549977133133   E35442A05ATE17DC92B88FB  000000000+600450S00130    MPV  00560                     000000000  N                0000000000000.00 0000000.00   0000000.00                             000000000000000                                                                                                                                                     01424  000000000000 0000000000000.00     00000 00000                  
00006030141020092DT67590675900000013300800102800000010180010224001193124900017808449050420230000002421312423000000000442745499110XXXXXX8039               2111111   NYV4 A7W303124503641745N840000000024213CGVT00    01DNCBD8666317293            004806    VS84000000024213 NP1549977133133   B47366F7D5T1A6825A1E7F0  000000000+                A CA 12106                     000000000  N000000000 492   0000000000000.00 0000000.00   0000000.00                             000000000000000                                                                                                                                                     01424 G000000024213 0000000000004.68     01890 01000                  
00006040141020001P16759067590000001330080010280000001010000000000000000                             2000000000000000000000000              000000000000                    0000000000000000000000000                    000000000000                                                                                                                                                                                                                                                                                                                                                                                                                                                                                        
00006050141020093DT67590675900000013300800102800000010680010274001193124900017808451050420230000000500012423000000000442745499110XXXXXX8039               0000000   NYV4 07T583124510552668N840000000005000BX2T00    01CNCBD8666317293            004804    VS84000000005000 NP1549977133133   B47366F7D5T1A6825A1E7F0  000000000+                A CA 00245                     000000000  N000000000 166   0000000000000.00 0000000.00   0000000.00                             000000000000000                                                                                                                                                     01424  000000005000-0000000000000.88     01760 00000                  
00006060141020001P16759067590000001330080010280000001060000000000000000                             2000000000000000000000000              000000000000                    0000000000000000000000000                    000000000000                                                                                                                                                                                                                                                                                                                                                                                                                                                                                        
00006070141020094DT67590675900000013300800102800000010180010287287283124900017808499050420230000001260312423000000000442745540656XXXXXX6677       ME03KE06MS02      NY 4607AMCGYJDOWZ0504  N840000000012603          81DNCBD8666317293            00483Z    MC84000000012603 N  549977133133   DE14F7E776T6E910E28501B  000000000+600450S00130    MCG  00013                     000000000  N                0000000000000.00 0000000.00   0000000.00                             000000000000000                                                                                                                                                   U001424  000000000000 0000000000002.56     01950 01000                  
00006080141020095DT67590675900000013300800102800000010180010224001193124900017808506050420230000001314412423000000000442745403784XXXXXX5335               2111111   NYV4 A7W583124552886540N84000000001314482ND00    01DNCBD8666317293            014012    VS84000000013144 NP1549977133133   D0F0E5F6FFTDFDC56D5102C  000000000+                C CC 12108                     000000000  N000000000 496   0000000000000.00 0000000.00   0000000.00                             000000000000000                                                                                                                                                     01424 G000000013144 0000000000002.79     02050 01000                  
00006090141020001P16759067590000001330080010280000001010000000000000000                             2000000000000000000000000              000000000000                    0000000000000000000000000                    000000000000                                                                                                                                                                                                                                                                                                                                                                                                                                                                                        
00006100141020096DT67590675900000013300800102800000010180010287287283124900017808523050420230000001987012423000000000442745521333XXXXXX8983       ME03KE06MS02      NY 4607AMWED1LW6E0504  N840000000019870          81DNCBD8666317293            00445P    MC84000000019870 N  549977133133   0F8338D985TE22B86C77F85  000000000+600450S00130    MWE  00737                     000000000  N                0000000000000.00 0000000.00   0000000.00                             000000000000000                                                                                                                                                   U001424  000000000000 0000000000005.27     02600 01000                  
00006110141020097DT67590675900000013300800102800000010680010274001193124900017808535050420230000002755012423000000000442745413022XXXXXX3106               0000000   NYV4 07T383124564091560N840000000027550GDTN00    01CNCBD8666317293            844274    VD84000000027550 NP1549977133133   8B90D4AACCT9F6D315139AF  000000000+                F DF 08168                     000000000  N000000000 369   0000000000000.00 0000000.00   0000000.00                             000000000000000                                                                                                                                                     01424  000000027550 0000000000000.00     00000 00000                  
00006120141020001P16759067590000001330080010280000001060000000000000000                             2000000000000000000000000              000000000000                    0000000000000000000000000                    000000000000                                                                                                                                                                                                                                                                                                                                                                                                                                                                                        
00006130141020098DT67590675900000013300800102800000010180010287287283124900017808549050420230000002092312423000000000442745536013XXXXXX5754       ME03KE06MS02      NY 4607AMDJRO1CVD0504  N840000000020923          81DNCBD8666317293            002500    MD84000000020923 N  549977133133   FCB10009D9T626E9421EE9D  000000000+600450S00130    MDJ  00401                     000000000  N                0000000000000.00 0000000.00   0000000.00                             000000000000000                                                                                                                                                   U001424  000000000000 0000000000003.60     01650 01500                  
