02316300374000002BH6759067590000001165080088880000090170216202304723000000000039615    0000090001050013N8008886759C02172023                                                                                                                                                                                                                                                                                                                                                                                                                                                                                                                                                                                                 
02316310374000003DT67590675900000011650800888800000010180088824001193047900010500013021520230000000283804723000000000039615478200XXXXXX2722       VS11    0001111   NYV1 A E463046656877599N8400000000028383RCG00    07DNVPODS HOLDING INC        081413    VD84000000002838 N  599977032122                            000000000+                F DF 10433                     000000000  Y000000000 338   0000000000000.00 0000000.00   0000000.00                             000000000000000                                                                                                                                                     01418 A000000000000 0000000000000.23     00050 02200                  
02316320374000004DT67590675900000011650800888800000010180088824001193047900010500021021520230000000298504723000000000039615419002XXXXXX5021       VS11    0001111   NYV1 A E583046668563839N8400000000029854HV600    07DNVPODS HOLDING INC        022061    VD84000000002985 N  599977032122                            000000000+                F DF 10433                     000000000  Y000000000 338   0000000000000.00 0000000.00   0000000.00                             000000000000000                                                                                                                                                     01418 A000000000000 0000000000000.23     00050 02200                  
02316330374000005DT67590675900000011650800888800000010180088824001193047900010500039021520230000000257504723000000000039615434236XXXXXX9826       VS11    0001111   NYV1 A E463046688480523N840000000002575PJ4V00    07DNVPODS HOLDING INC        078410    VD84000000002575 N  599977032122                            000000000+                F DF 00381                     000000000  N000000000       0000000000000.00 0000000.00   0000000.00                             000000000000000                                                                                                                                                     01418 A000000000000 0000000000000.36     00800 01500                  
02316340374000006DT67590675900000011650800888800000010180088877287283047900010500049021520230000000181604723000000000039615559619XXXXXX8879       MS02WI09          NY 1 0 AMDJR2Y8HI0215  N840000000001816          07DNVPODS HOLDING INC        112847    MD84000000001816 N  599977032122                            000000000+M10101M0034C    MDJ  10815                     000000000  1                0000000000000.00 0000000.00   0000000.00                             000000000000000                                                                                                                                                   A101418  000000000000 0000000000000.23     00050 02200                  
02316350374000007DT67590675900000011650800888800000010180088873011003047900010500050021520230000000737904723000000000039615372651XXXXX3020                          NY 1 0 N007086675705067N840000000007379          07DNVPODS HOLDINGS INC       885153    AM84000000007379 N  599977032122                            000000000+51010X55434C 258     11261                     000000000                   0000000000000.00 0000000.00   0000000.00                             000000000000000 61248972086759675900000011650 VPODS HOLDINGS INC       2527 N LINCOLN AVE       7732092463      60614     SMOKEDREAMS2@ICLOUD.COM                   01418  000000000000 0000000000001.28     01600 00000                  
02316360374000008DT67590675900000011650800888800000010180088873011003047900010500068021520230000000385904723000000000039615372651XXXXX3020                          NY 1 0 N007086770038067N840000000003859          07DNVPODS HOLDINGS INC       865858    AM84000000003859 N  599977032122                            000000000+51010X50034C 258     11261                     000000000                   0000000000000.00 0000000.00   0000000.00                             000000000000000 61248972086759675900000011650 VPODS HOLDINGS INC       2527 N LINCOLN AVE       7732092463      60614     SMOKEDREAMS2@ICLOUD.COM                   01418  000000000000 0000000000000.72     01600 00000                  
02316370374000009DT67590675900000011650800888800000010180088824001193047900010500070021520230000000295104723000000000039615414720XXXXXX5025       VS11    0001111   NYV1 A E583046846414129N840000000002951R7HD00    07DNVPODS HOLDING INC        01248I    VS84000000002951 N  599977032122                            000000000+                I CI 12113                     000000000  N000000000 499   0000000000000.00 0000000.00   0000000.00                             000000000000000                                                                                                                                                     01418 A000000000000 0000000000000.72     02100 01000                  
02316380374000010DT67590675900000011650800888800000010180088877287283047900010500080021520230000000340504723000000000039615542432XXXXXX5520       MS02WI09          NY 2 0 AMDJTJTOV80215  N840000000003405          05DNVPODS HOLDING INC        488856    MD84000000003405 N  599977032122                            000000000+M10101C1334C    MDJ  10815                     000000000  1                0000000000000.00 0000000.00   0000000.00                             000000000000000                                                                                                                                                   B101418  000000000000 0000000000000.24     00050 02200                  
02316390374000011DT67590675900000011650800888800000010180088824001193047900010500096021520230000000283904723000000000039615482915XXXXXX8273       VS11    0001111   NYV1 A E383047025188486N8400000000028394VKC00    07DNVPODS HOLDING INC        084119    VD84000000002839 N  599977032122                            000000000+                F DF 10433                     000000000  Y000000000 338   0000000000000.00 0000000.00   0000000.00                             000000000000000                                                                                                                                                     01418 A000000000000 0000000000000.23     00050 02200                  
02316400374000012DT67590675900000011650800888800000010180088824001193047900010500104021520230000000283904723000000000039615491712XXXXXX1435       VS11    0001111   NYV1 A E583047057745015N840000000002839FZQQ00    07DNVPODS HOLDING INC        043620    VD84000000002839 N  599977032122                            000000000+                F DF 10433                     000000000  Y000000000 338   0000000000000.00 0000000.00   0000000.00                             000000000000000                                                                                                                                                     01418 A000000000000 0000000000000.23     00050 02200                  
02316410374000013DT67590675900000011650800888800000010180088824001193047900010500112021520230000000283804723000000000039615405413XXXXXX3369       VS11    0001111   NYV1 A E383047108077010N840000000002838VL4F00    07DNVPODS HOLDING INC        00221D    VS84000000002838 N  599977032122                            000000000+                D CD 12113                     000000000  N000000000 499   0000000000000.00 0000000.00   0000000.00                             000000000000000                                                                                                                                                     01418 A000000000000 0000000000000.70     02100 01000                  
02316420374000014DT67590675900000011650800888800000010180088824001193047900010500120021520230000000283804723000000000039615426684XXXXXX5079       VS11    0001111   NYV1 A E383047116145562N840000000002838C23800    07DNVPODS HOLDING INC        00037B    VS84000000002838 N  599977032122                            000000000+                B CB 12111                     000000000  N000000000 495   0000000000000.00 0000000.00   0000000.00                             000000000000000                                                                                                                                                     01418 A000000000000 0000000000000.57     01650 01000                  
02316430374000015DT67590675900000011650800888800000010180088824001193047900010500138021520230000000045304723000000000039615440393XXXXXX0075       VK04VS111111111   NYV1 A E463047129540962N840000000000453FJMB00    07DNVPODS HOLDING INC        309516    VD84000000000453 N  599977032122                            000000000+                F PF 08165                     000000000  N000000000       0000000000000.00 0000000.00   0000000.00                             000000000000000                                                                                                                                                     01418 F000000000000 0000000000000.12     01600 00500                  
02316440374000016BH6759067590000001129680088880000090170216202304723000000000057337    0000090001120031N8008886759C02172023                                                                                                                                                                                                                                                                                                                                                                                                                                                                                                                                                                                                 
02316450374000017DT67590675900000011296800888800000010180088877287283047900011200144021520230000000223504723000000000057337517546XXXXXX3674       MS02WI09          NY 1 0 AMDJM25EQJ0215  N840000000002235          05DNPLANET VAPOR #1000       015824    MD84000000002235 N  599976923732                            000000000+M10101C5434C    MDJ  10815                     000000000  1                0000000000000.00 0000000.00   0000000.00                             000000000000000                                                                                                                                                   B101418  000000000000 0000000000000.23     00050 02200                  
02316460374000018DT67590675900000011296800888800000010180088824001193047900011200159021520230000000572204723000000000057337421783XXXXXX0608       VS11    0001111   NYV1 A E383046596591310N840000000005722ND4P00    05DNPLANET VAPOR #1000       008374    VS84000000005722 N  599976923732                            000000000+                A CA 12110                     000000000  N000000000 493   0000000000000.00 0000000.00   0000000.00                             000000000000000                                                                                                                                                     01418 A000000000000 0000000000000.96     01510 01000                  
02316470374000019DT67590675900000011296800888800000010180088824001193047900011200167021520230000000237504723000000000057337474489XXXXXX2240       VS11    0001111   NYV1 A E383046601455472N840000000002375ZQTM00    05DNPLANET VAPOR #1000       114629    VD84000000002375 N  599976923732                            000000000+                F DF 10433                     000000000  Y000000000 338   0000000000000.00 0000000.00   0000000.00                             000000000000000                                                                                                                                                     01418 A000000000000 0000000000000.23     00050 02200                  
02316480374000020DT67590675900000011296800888800000010180088824001193047900011200175021520230000000323904723000000000057337427178XXXXXX3694       VS11    0001111   NYV1 A E583046603888104N840000000003239RMXJ00    07DNPLANET VAPOR #1000       127087    VD84000000003239 N  599976923732                            000000000+                F DF 10433                     000000000  Y000000000 338   0000000000000.00 0000000.00   0000000.00                             000000000000000                                                                                                                                                     01418 A000000000000 0000000000000.24     00050 02200                  
02316490374000021DT67590675900000011296800888800000010180088824001193047900011200183021520230000000323804723000000000057337434256XXXXXX4723       VS11    0001111   NYV1 A E463046612320759N8400000000032386JDP00    05DNPLANET VAPOR #1000       025095    VD84000000003238 NP1599976923732                            000000000+                F DF 10433                     000000000  Y000000000 338   0000000000000.00 0000000.00   0000000.00                             000000000000000                                                                                                                                                     01418 A000000000000 0000000000000.24     00050 02200                  
02316500374000001P16759067590000001129680088880000001010000000000000000                             1000000000240000000000000              000000000000                    0000000000000000000000000                    000000000000                                                                                                                                                                                                                                                                                                                                                                                                                                                                                        
02316510374000022DT67590675900000011296800888800000010180088877287283047900011200193021520230000000107804723000000000057337531258XXXXXX4741       MS02WI09          NY 1 0 AMDJMWPPQI0215  N840000000001078          05DNPLANET VAPOR #1000       113733    MD84000000001078 N  599976923732                            000000000+M10101C5434C    MDJ  10815                     000000000  1                0000000000000.00 0000000.00   0000000.00                             000000000000000                                                                                                                                                   B101418  000000000000 0000000000000.23     00050 02200                  
02316520374000023DT67590675900000011296800888800000010180088824001193047900011200209021520230000000112804723000000000057337440393XXXXXX9372       VK04VS111111111   NYV1 A E383046658032017N84000000000112839XT00    05DNPLANET VAPOR #1000       830272    VD84000000001128 N  599976923732                            000000000+                F PF 08165                     000000000  N000000000       0000000000000.00 0000000.00   0000000.00                             000000000000000                                                                                                                                                     01418 F000000000000 0000000000000.23     01600 00500                  
02316530374000024DT67590675900000011296800888800000010180088877287283047900011200219021520230000000116604723000000000057337542432XXXXXX9862       MS02WI09          NY 1 0 AMDJOTSYQI0215  N840000000001166          05DNPLANET VAPOR #1000       177210    MD84000000001166 N  599976923732                            000000000+M10101C5434C    MDJ  10815                     000000000  1                0000000000000.00 0000000.00   0000000.00                             000000000000000                                                                                                                                                   B101418  000000000000 0000000000000.23     00050 02200                  
02316540374000025DT67590675900000011296800888800000010180088877287283047900011200227021520230000000213704723000000000057337552433XXXXXX2112       MS02WI09          NY 1 0 AMCWMB0LG40215  N840000000002137          07DNPLANET VAPOR #1000       00021S    MC84000000002137 N  599976923732                            000000000+M10101M0034C    MCW  02184                     000000000  N                0000000000000.00 0000000.00   0000000.00                             000000000000000                                                                                                                                                   B101418  000000000000 0000000000000.59     02300 01000                  
02316550374000026DT67590675900000011296800888800000010180088824001193047900011200233021520230000000573004723000000000057337440393XXXXXX5156       VS11    0001111   NYV1 A E303046711639354N840000000005730TJF600    07DNPLANET VAPOR #1000       345893    VD84000000005730 N  599976923732                            000000000+                F PF 08170                     000000000  N000000000       0000000000000.00 0000000.00   0000000.00                             000000000000000                                                                                                                                                     01418 A000000000000 0000000000000.81     01150 01500                  
02316560374000027DT67590675900000011296800888800000010180088877287283047900011200243021520230000000206104723000000000057337519836XXXXXX7532       MS02WI09          NY 1 0 AMDJPL9FG40215  N840000000002061          07DNPLANET VAPOR #1000       052878    MD84000000002061 N  599976923732                            000000000+M10101M0034C    MDJ  00402                     000000000  N                0000000000000.00 0000000.00   0000000.00                             000000000000000                                                                                                                                                   B101418  000000000000 0000000000000.37     01050 01500                  
02316570374000028DT67590675900000011296800888800000010180088824001193047900011200258021520230000000213704723000000000057337440393XXXXXX8355       VS11    0001111   NYV1 A E383046776768794N840000000002137LBB900    05DNPLANET VAPOR #1000       254253    VD84000000002137 N  599976923732                            000000000+                F PF 08170                     000000000  N000000000       0000000000000.00 0000000.00   0000000.00                             000000000000000                                                                                                                                                     01418 A000000000000 0000000000000.40     01150 01500                  
02316580374000029DT67590675900000011296800888800000010180088824001193047900011200266021520230000000431804723000000000057337473702XXXXXX7205       VS11    0001111   NYV1 A E303046817575201N840000000004318V6DX00    05DNPLANET VAPOR #1000       096961    VD84000000004318 N  599976923732                            000000000+                F DF 10433                     000000000  Y000000000 338   0000000000000.00 0000000.00   0000000.00                             000000000000000                                                                                                                                                     01418 A000000000000 0000000000000.24     00050 02200                  
02316590374000030DT67590675900000011296800888800000010180088824001193047900011200274021520230000000475004723000000000057337474474XXXXXX5220       VS11    0001111   NYV1 A E583046818531235N840000000004750K75S00    05DNPLANET VAPOR #1000       114848    VD84000000004750 N  599976923732                            000000000+                F DF 10433                     000000000  Y000000000 338   0000000000000.00 0000000.00   0000000.00                             000000000000000                                                                                                                                                     01418 A000000000000 0000000000000.24     00050 02200                  
02316600374000031DT67590675900000011296800888800000010180088877287283047900011200284021520230000000237504723000000000057337517805XXXXXX0969       MS02WI09          NY 1 0 AMWEARSJT60215  N840000000002375          05DNPLANET VAPOR #1000       05022P    MC84000000002375 N  599976923732                            000000000+M10101C5434C    MWE  00739                     000000000  N                0000000000000.00 0000000.00   0000000.00                             000000000000000                                                                                                                                                   B101418  000000000000 0000000000000.65     02300 01000                  
02316610374000032DT67590675900000011296800888800000010180088824001193047900011200290021520230000000410204723000000000057337415977XXXXXX1035       VS11    0001111   NYV1 A E463046858747236N840000000004102X96T00    07DNPLANET VAPOR #1000       042461    VD84000000004102 N  599976923732                            000000000+                F DF 10433                     000000000  Y000000000 338   0000000000000.00 0000000.00   0000000.00                             000000000000000                                                                                                                                                     01418 A000000000000 0000000000000.24     00050 02200                  
02316620374000033DT67590675900000011296800888800000010180088824001193047900011200308021520230000000889904723000000000057337415783XXXXXX0210       VS11    0001111   NYV1 A E463047004705091N8400000000088994G5400    05DNPLANET VAPOR #1000       466919    VD84000000008899 N  599976923732                            000000000+                F DF 00381                     000000000  N000000000       0000000000000.00 0000000.00   0000000.00                             000000000000000                                                                                                                                                     01418 A000000000000 0000000000000.86     00800 01500                  
02316630374000034DT67590675900000011296800888800000010180088877287283047900011200318021520230000000064704723000000000057337515645XXXXXX1445       MS02WI09          NY 1 0 AMDJT96VV80215  N840000000000647          05DNPLANET VAPOR #1000       073041    MD84000000000647 N  599976923732                            000000000+M10101C5434C    MDJ  00402                     000000000  N                0000000000000.00 0000000.00   0000000.00                             000000000000000                                                                                                                                                   B101418  000000000000 0000000000000.22     01050 01500                  
02316640374000035BH6759067590000000288180088880000090170216202304723000000000023244    0000090001460008N8008886759C02172023                                                                                                                                                                                                                                                                                                                                                                                                                                                                                                                                                                                                 
02316650374000036DT67590675900000002881800888800000010180088824001193047900014600017021620230000000384004723000000000023244419090XXXXXX6017       VS11    0001111   NYV1 A E303047541250197N840000000003840LJVF00    05DNHAPPY HIPPIE             625520    VD84000000003840 N  549976487134                            000000000+                F DF 00381                     000000000  N000000000       0000000000000.00 0000000.00   0000000.00                             000000000000000                                                                                                                                                     01418 A000000000000 0000000000000.46     00800 01500                  
02316660374000037DT67590675900000002881800888800000010180088824001193047900014600025021620230000000142104723000000000023244491523XXXXXX5551       VK04VS111111111   NYV1 A E583047543482158N8400000000014214PSR00    07DNHAPPY HIPPIE             025886    VD84000000001421 N  549976487134                            000000000+                F DF 10439                     000000000  Y000000000 331   0000000000000.00 0000000.00   0000000.00                             000000000000000                                                                                                                                                     01418 F000000000000 0000000000000.23     00050 02200                  
02316670374000038DT67590675900000002881800888800000010180088824001193047900014600033021620230000000325804723000000000023244440393XXXXXX0447       VS11    0001111   NYV1 A E463047545462646N8400000000032589P2300    05DNHAPPY HIPPIE             930804    VD84000000003258 N  549976487134                            000000000+                F PF 08170                     000000000  N000000000       0000000000000.00 0000000.00   0000000.00                             000000000000000                                                                                                                                                     01418 A000000000000 0000000000000.52     01150 01500                  
02316680374000039DT67590675900000002881800888800000010180088824001193047900014600041021620230000000548804723000000000023244400022XXXXXX0750       VS11    0001111   NYV1 A E583047587458737N840000000005488KBQK00    05DNHAPPY HIPPIE             756812    VD84000000005488 N  549976487134                            000000000+                F DF 10433                     000000000  Y000000000 338   0000000000000.00 0000000.00   0000000.00                             000000000000000                                                                                                                                                     01418 A000000000000 0000000000000.25     00050 02200                  
02316690374000040DT67590675900000002881800888800000010180088824001193047900014600058021620230000000274304723000000000023244400231XXXXXX5254       VS11    0001111   NYV1 A E303047600509971N840000000002743FTPH00    05DNHAPPY HIPPIE             893551    VD84000000002743 N  549976487134                            000000000+                F DF 00381                     000000000  N000000000       0000000000000.00 0000000.00   0000000.00                             000000000000000                                                                                                                                                     01418 A000000000000 0000000000000.37     00800 01500                  
02316700374000041DT67590675900000002881800888800000010180088824001193047900014600066021620230000000325804723000000000023244483950XXXXXX4838       VS11    0001111   NYV1 A E583047608050093N840000000003258GQ3D00    05DNHAPPY HIPPIE             09777D    VS84000000003258 N  549976487134                            000000000+                D CD 12113                     000000000  N000000000 499   0000000000000.00 0000000.00   0000000.00                             000000000000000                                                                                                                                                     01418 A000000000000 0000000000000.78     02100 01000                  
02316710374000042DT67590675900000002881800888800000010180088824001193047900014600074021620230000000027404723000000000023244401670XXXXXX1016       VK04VS111111111   NYV1 A E463047700099297N840000000000274R7HK00    05DNHAPPY HIPPIE             722061    VD84000000000274 N  549976487134                            000000000+                F DF 00451                     000000000  N000000000 214   0000000000000.00 0000000.00   0000000.00                             000000000000000                                                                                                                                                     01418 F000000000000 0000000000000.08     01550 00400                  
02316720374000043DT67590675900000002881800888800000010180088877287283047900014600084021620230000000296204723000000000023244527854XXXXXX8748       MS02WI09          NY 1 0 AMWEXYNBBS0216  N840000000002962          05DNHAPPY HIPPIE             31615Z    MC84000000002962 N  549976487134                            000000000+M10101C5434C    MWE  00743                     000000000  N                0000000000000.00 0000000.00   0000000.00                             000000000000000                                                                                                                                                   B101418  000000000000 0000000000000.72     02300 00400                  
02316730374000044BH6759067590000000215480088880000090170216202304723000000000282529    0000090001106196N8008886759C02172023                                                                                                                                                                                                                                                                                                                                                                                                                                                                                                                                                                                                 
02316740374000045DT67590675900000002154800888800000010180088887287283047900011065181021620230000006622904723000000000282529545212XXXXXX5082       ME03KE06MS02      NY 4607AMWEZP8MBS0216  N840000000066229          81DNDRIP DROP DISTRO LLC     06079Z    MC84000000066229 N  519900000001   INV-000714               000000000+600450S00140    MWE  00737                     000000000  N                0000000000000.00 0000000.00   0000000.00                             000000000000000                                                                                                                                                   U001418  000000000000 0000000000017.32     02600 01000                  
02316750374000046DT67590675900000002154800888800000010180088824001193047900011061965021620230000021630004723000000000282529424631XXXXXX6481               2111111   NYV4 A7W583047749666711N840000000216300ZV5S00    01DNDRIP DROP DISTRO LLC     07810G    VB84000000216300 NP1519971004114   INV-000738               000000000+                G CG 00690                     000000000  N000000000 231   0000000000000.00 0000000.00   0000000.00                             000000000000000                                                                                                                                                     01418 G000000216300 0000000000057.42     02650 01000                  
02316760374000001P16759067590000000215480088880000001010000000000000000    43945484148              2000000000000000000000000              000000000000                    0000000000000000000000000                    000000000000                                                                                                                                                                                                                                                                                                                                                                                                                                                                                        
02316770374000047BH6759067590000000288180088880000090170216202304723000000000099163    0000090001470021N8008886759C02172023                                                                                                                                                                                                                                                                                                                                                                                                                                                                                                                                                                                                 
02316780374000048DT67590675900000002881800888800000010180088824001193047900014700015021620230000000493804723000000000099163487917XXXXXX3512       VS11    0001111   NYV1 A E463047540624824N840000000004938V6XM00    05DNHAPPY HIPPIE             196063    VD84000000004938 N  549976487158                            000000000+                F DF 00381                     000000000  N000000000       0000000000000.00 0000000.00   0000000.00                             000000000000000                                                                                                                                                     01418 A000000000000 0000000000000.55     00800 01500                  
02316790374000049DT67590675900000002881800888800000010180088877287283047900014700025021620230000000651704723000000000099163531259XXXXXX6957       MS02WI09          NY 1 0 AMDJG0MQ280216  N840000000006517          05DNHAPPY HIPPIE             112962    MD84000000006517 N  549976487158                            000000000+M10101C5434C    MDJ  10815                     000000000  1                0000000000000.00 0000000.00   0000000.00                             000000000000000                                                                                                                                                   B101418  000000000000 0000000000000.25     00050 02200                  
02316800374000050DT67590675900000002881800888800000010180088877287283047900014700033021620230000000142604723000000000099163523568XXXXXX2852       MS02WI09          NY 1 0 AMDJHF37280216  N840000000001426          05DNHAPPY HIPPIE             017465    MD84000000001426 N  549976487158                            000000000+M10101C5434C    MDJ  00505                     000000000  N                0000000000000.00 0000000.00   0000000.00                             000000000000000                                                                                                                                                   B101418  000000000000 0000000000000.26     01550 00400                  
02316810374000051DT67590675900000002881800888800000010180088824001193047900014700049021620230000000548804723000000000099163443264XXXXXX4906       VS11    0001111   NYV1 A E383047571883929N840000000005488SW4900    05DNHAPPY HIPPIE             008686    VD84000000005488 N  549976487158                            000000000+                F DF 10433                     000000000  Y000000000 338   0000000000000.00 0000000.00   0000000.00                             000000000000000                                                                                                                                                     01418 A000000000000 0000000000000.25     00050 02200                  
02316820374000052DT67590675900000002881800888800000010180088824001193047900014700056021620230000000196204723000000000099163419090XXXXXX5725       PS01    0000000   NYV1 J N383047586676228N840000000001962MF8600    01DNHAPPY HIPPIE             627580    VD84000000001962 N  549976487158                            000000000+                F DF 00425                     000000000  N000000010       0000000000000.00 0000000.00   0000000.00                             000000000000000                                                                                                                                                     01418  000000000000 0000000000000.54     01750 02000                  
02316830374000053DT67590675900000002881800888800000010180088824001193047900014700064021620230000000108504723000000000099163419090XXXXXX5431       VK04VS111111111   NYV1 A E303047601593097N8400000000010858FPX00    05DNHAPPY HIPPIE             628438    VD84000000001085 N  549976487158                            000000000+                F DF 00451                     000000000  N000000000 214   0000000000000.00 0000000.00   0000000.00                             000000000000000                                                                                                                                                     01418 F000000000000 0000000000000.21     01550 00400                  
02316840374000054DT67590675900000002881800888800000010180088824001193047900014700072021620230000001422104723000000000099163419090XXXXXX6286               1001111   NYV1 A K463047607937072N8400000000142219G8V00    01DNHAPPY HIPPIE             628812    VD84000000014221 N  549976487158                            000000000+                F DF 00412                     000000000  N000000000       0000000000000.00 0000000.00   0000000.00                             000000000000000                                                                                                                                                     01418 E000000000000 0000000000002.50     01650 01500                  
02316850374000055DT67590675900000002881800888800000010180088877287283047900014700082021620230000000395004723000000000099163511953XXXXXX8179       MS02WI09          NY 1 0 AMDJOTD5280216  N840000000003950          05DNHAPPY HIPPIE             077444    MD84000000003950 N  549976487158                            000000000+M10101C5434C    MDJ  00402                     000000000  N                0000000000000.00 0000000.00   0000000.00                             000000000000000                                                                                                                                                   B101418  000000000000 0000000000000.56     01050 01500                  
02316860374000056DT67590675900000002881800888800000010180088824001193047900014700098021620230000000737804723000000000099163435547XXXXXX9872       VS11    0001111   NYV1 A E463047642922701N840000000007378NR9P00    05DNHAPPY HIPPIE             061081    VD84000000007378 N  549976487158                            000000000+                F DF 10433                     000000000  Y000000000 338   0000000000000.00 0000000.00   0000000.00                             000000000000000                                                                                                                                                     01418 A000000000000 0000000000000.26     00050 02200                  
02316870374000057DT67590675900000002881800888800000010180088824001193047900014700106021620230000000625504723000000000099163480639XXXXXX4062       VS11    0001111   NYV1 A E303047646869580N840000000006255N5CR00    05DNHAPPY HIPPIE             210354    VD84000000006255 N  549976487158                            000000000+                F DF 00381                     000000000  N000000000       0000000000000.00 0000000.00   0000000.00                             000000000000000                                                                                                                                                     01418 A000000000000 0000000000000.65     00800 01500                  
02316880374000058DT67590675900000002881800888800000010180088877287283047900014700116021620230000000548804723000000000099163542432XXXXXX6544       MS02WI09          NY 2 0 AMDJK8DZ280216  N840000000005488          05DNHAPPY HIPPIE             112506    MD84000000005488 N  549976487158                            000000000+M10101C1334C    MDJ  10815                     000000000  1                0000000000000.00 0000000.00   0000000.00                             000000000000000                                                                                                                                                   B101418  000000000000 0000000000000.25     00050 02200                  
02316890374000059DT67590675900000002881800888800000010180088824001193047900014700122021620230000000079004723000000000099163498503XXXXXX0161       VK04VS111111111   NYV1 A E583047681032477N840000000000790D26F00    05DNHAPPY HIPPIE             019527    VD84000000000790 N  549976487158                            000000000+                F DF 00451                     000000000  N000000000 214   0000000000000.00 0000000.00   0000000.00                             000000000000000                                                                                                                                                     01418 F000000000000 0000000000000.16     01550 00400                  
02316900374000060DT67590675900000002881800888800000010180088824001193047900014700130021620230000000499904723000000000099163400022XXXXXX6579               1001111   NYV1 A K303047689731339N840000000004999X47G00    01DNHAPPY HIPPIE             781512    VD84000000004999 N  549976487158                            000000000+                F DF 10436                     000000000  Y000000000 338   0000000000000.00 0000000.00   0000000.00                             000000000000000                                                                                                                                                     01418 E000000000000 0000000000000.24     00050 02200                  
02316910374000061DT67590675900000002881800888800000010180088824001193047900014700148021620230000000849104723000000000099163487917XXXXXX5992       VS11    0001111   NYV1 A E583047693644002N840000000008491MTFD00    05DNHAPPY HIPPIE             031364    VD84000000008491 N  549976487158                            000000000+                F DF 00381                     000000000  N000000000       0000000000000.00 0000000.00   0000000.00                             000000000000000                                                                                                                                                     01418 A000000000000 0000000000000.83     00800 01500                  
02316920374000062DT67590675900000002881800888800000010180088824001193047900014700155021620230000000246804723000000000099163435687XXXXXX6025       VS11    0001111   NYV1 A E463047736161990N840000000002468KRSS00    05DNHAPPY HIPPIE             102761    VD84000000002468 N  549976487158                            000000000+                F DF 10433                     000000000  Y000000000 338   0000000000000.00 0000000.00   0000000.00                             000000000000000                                                                                                                                                     01418 A000000000000 0000000000000.23     00050 02200                  
02316930374000063DT67590675900000002881800888800000010180088877287283047900014700165021620230000000395004723000000000099163517805XXXXXX2490       MS02WI09          NY 1 0 AMCWOBMXOW0216  N840000000003950          05DNHAPPY HIPPIE             07360P    MC84000000003950 N  549976487158                            000000000+M10101C5434C    MCW  00646                     000000000  N                0000000000000.00 0000000.00   0000000.00                             000000000000000                                                                                                                                                   B101418  000000000000 0000000000000.79     01900 00400                  
02316940374000064DT67590675900000002881800888800000010180088824001193047900014700171021620230000000088704723000000000099163419090XXXXXX2877       VK04VS111111111   NYV1 A E463047778520290N840000000000887RPMR00    05DNHAPPY HIPPIE             638822    VD84000000000887 N  549976487158                            000000000+                F DF 00451                     000000000  N000000000 214   0000000000000.00 0000000.00   0000000.00                             000000000000000                                                                                                                                                     01418 F000000000000 0000000000000.18     01550 00400                  
02316950374000065DT67590675900000002881800888800000010180088824001193047900014700189021620230000000395004723000000000099163422921XXXXXX7676       VS11    0001111   NYV1 A E583047784792967N8400000000039505RPN00    05DNHAPPY HIPPIE             060480    VD84000000003950 N  549976487158                            000000000+                F DF 00381                     000000000  N000000000       0000000000000.00 0000000.00   0000000.00                             000000000000000                                                                                                                                                     01418 A000000000000 0000000000000.47     00800 01500                  
02316960374000066DT67590675900000002881800888800000010180088824001193047900014700197021620230000000109804723000000000099163443238XXXXXX3958       VK04VS111111111   NYV1 A E463047789177611N840000000001098L7SZ00    05DNHAPPY HIPPIE             065517    VD84000000001098 N  549976487158                            000000000+                F DF 00451                     000000000  N000000000 214   0000000000000.00 0000000.00   0000000.00                             000000000000000                                                                                                                                                     01418 F000000000000 0000000000000.21     01550 00400                  
02316970374000067DT67590675900000002881800888800000010180088824001193047900014700205021620230000000548604723000000000099163449435XXXXXX0794       VS11    0001111   NYV1 A E583047792274738N840000000005486RHTG00    05DNHAPPY HIPPIE             876345    VD84000000005486 N  549976487158                            000000000+                F DF 00381                     000000000  N000000000       0000000000000.00 0000000.00   0000000.00                             000000000000000                                                                                                                                                     01418 A000000000000 0000000000000.59     00800 01500                  
02316980374000068DT67590675900000002881800888800000010180088877287283047900014700215021620230000000833604723000000000099163534354XXXXXX4047       MS02WI09          NY 1 0 AMDJB77DBT0216  N840000000008336          05DNHAPPY HIPPIE             072638    MD84000000008336 N  549976487158                            000000000+M10101C5434C    MDJ  00402                     000000000  N                0000000000000.00 0000000.00   0000000.00                             000000000000000                                                                                                                                                     01418  000000000000 0000000000001.03     01050 01500                  
02316990374000069BH6759067590000000589280088880000090170216202304723000000000226450    0000090001089803N8008886759C02172023                                                                                                                                                                                                                                                                                                                                                                                                                                                                                                                                                                                                 
02317000374000070DT67590675900000005892800888800000010180088824001193047900010898037021620230000022645004723000000000226450430679XXXXXX7376               2111111   NYV4 A7W583047825119894N840000000226450XQFG00    01DNPLANET VAPOR INC         016965    VS84000000226450 NP1599971004114   1127                     000000000+                D CD 12109                     000000000  N000000000 498   0000000000000.00 0000000.00   0000000.00                             000000000000000                                                                                                                                                     01418 G000000226450 0000000000056.71     02500 01000                  
02317010374000001P16759067590000000589280088880000001010000000000000000                             2000000000000000000000000              000000000000                    0000000000000000000000000                    000000000000                                                                                                                                                                                                                                                                                                                                                                                                                                                                                        
02317020374000071BH6759067590000000096880088880000090170216202304723000000000005568    0000090001437664N8008886759C02172023                                                                                                                                                                                                                                                                                                                                                                                                                                                                                                                                                                                                 
02317030374000072DT67590675900000000968800888800000010180088887287283047900014376643021620230000000556804723000000000005568542432XXXXXX7481       ME03KE06MS02      NY 4607AMDJSHYLOW0216  N840000000005778          81DNHIGHER FLOUR LLC         411564    MD84000000005568 N  546200000001   rA0Y9vcUnkb3jQIMHZTl     000000000+600450S00140    MDJ  10813                     000000000  1                0000000000000.00 0000000.00   0000000.00                             000000000000000                                                                                                                                                   U001418  000000000000 0000000000000.25     00050 02200                  
02317040374000073BH6759067590000000659380088880000090170216202304723000000000164399    0000090001080038N8008886759C02172023                                                                                                                                                                                                                                                                                                                                                                                                                                                                                                                                                                                                 
02317050374000074DT67590675900000006593800888800000010180088824001193047900010800017021620230000000755704723000000000164399423223XXXXXX6702       VS11    0001111   NYV1 A E583047544630776N8400000000075572BWS00    05DNPLANET VAPOR #100        030335    VD84000000007557 N  599976768560                            000000000+                F DF 00381                     000000000  N000000000       0000000000000.00 0000000.00   0000000.00                             000000000000000                                                                                                                                                     01418 A000000000000 0000000000000.75     00800 01500                  
02317060374000075DT67590675900000006593800888800000010180088824001193047900010800025021620230000000604504723000000000164399456367XXXXXX9833       VS11    0001111   NYV1 A E583047559201563N840000000006045CCLP00    05DNPLANET VAPOR #100        H99280    VD84000000006045 N  599976768560                            000000000+                F DF 10433                     000000000  Y000000000 338   0000000000000.00 0000000.00   0000000.00                             000000000000000                                                                                                                                                     01418 A000000000000 0000000000000.25     00050 02200                  
02317070374000076DT67590675900000006593800888800000010180088824001193047900010800033021620230000000738304723000000000164399406095XXXXXX3970       VS11    0001111   NYV1 A E463047563372442N840000000007383S8DS00    05DNPLANET VAPOR #100        05744D    VS84000000007383 N  599976768560                            000000000+                D CD 12113                     000000000  N000000000 499   0000000000000.00 0000000.00   0000000.00                             000000000000000                                                                                                                                                     01418 A000000000000 0000000000001.65     02100 01000                  
02317080374000077DT67590675900000006593800888800000010180088877287283047900010800043021620230000000237504723000000000164399531257XXXXXX3065       MS02WI09          NY 1 0 AMDJWVGD670216  N840000000002375          05DNPLANET VAPOR #100        120257    MD84000000002375 N  599976768560                            000000000+M10101C5434C    MDJ  10815                     000000000  1                0000000000000.00 0000000.00   0000000.00                             000000000000000                                                                                                                                                   B101418  000000000000 0000000000000.23     00050 02200                  
02317090374000078DT67590675900000006593800888800000010180088824001193047900010800058021620230000000242904723000000000164399400022XXXXXX9284       VS11    0001111   NYV1 A E463047589987960N840000000002429N6FM00    05DNPLANET VAPOR #100        707519    VD84000000002429 N  599976768560                            000000000+                F DF 10433                     000000000  Y000000000 338   0000000000000.00 0000000.00   0000000.00                             000000000000000                                                                                                                                                     01418 A000000000000 0000000000000.23     00050 02200                  
02317100374000079DT67590675900000006593800888800000010180088824001193047900010800066021620230000000259004723000000000164399400022XXXXXX9650       VS11    0001111   NYV1 A E303047598537907N840000000002590SF5B00    05DNPLANET VAPOR #100        159510    VD84000000002590 N  599976768560                            000000000+                F DF 10433                     000000000  Y000000000 338   0000000000000.00 0000000.00   0000000.00                             000000000000000                                                                                                                                                     01418 A000000000000 0000000000000.23     00050 02200                  
02317110374000080DT67590675900000006593800888800000010180088877287283047900010800076021620230000000375004723000000000164399528149XXXXXX9864       MS02WI09          NY 1 0 AMDJNNIB670216  N840000000003750          05DNPLANET VAPOR #100        041964    MD84000000003750 N  599976768560                            000000000+M10101C5434C    MDJ  00402                     000000000  N                0000000000000.00 0000000.00   0000000.00                             000000000000000                                                                                                                                                   B101418  000000000000 0000000000000.54     01050 01500                  
02317120374000081DT67590675900000006593800888800000010180088824001193047900010800082021620230000000188904723000000000164399473703XXXXXX2180       VS11    0001111   NYV1 A E463047606073863N840000000001889D6WZ00    05DNPLANET VAPOR #100        028990    VD84000000001889 N  599976768560                            000000000+                F DF 10433                     000000000  Y000000000 338   0000000000000.00 0000000.00   0000000.00                             000000000000000                                                                                                                                                     01418 A000000000000 0000000000000.23     00050 02200                  
02317130374000082DT67590675900000006593800888800000010180088877287283047900010800092021620230000000237504723000000000164399559898XXXXXX8321       MS02WI09          NY 1 0 AMDJI0GX670216  N840000000002375          07DNPLANET VAPOR #100        125138    MD84000000002375 N  599976768560                            000000000+M10101M0034C    MDJ  10815                     000000000  1                0000000000000.00 0000000.00   0000000.00                             000000000000000                                                                                                                                                   A101418  000000000000 0000000000000.23     00050 02200                  
02317140374000083DT67590675900000006593800888800000010180088824001193047900010800108021620230000000971904723000000000164399400022XXXXXX9650       VS11    0001111   NYV1 A E583047616634090N840000000009719GQM700    05DNPLANET VAPOR #100        513832    VD84000000009719 N  599976768560                            000000000+                F DF 10433                     000000000  Y000000000 338   0000000000000.00 0000000.00   0000000.00                             000000000000000                                                                                                                                                     01418 A000000000000 0000000000000.27     00050 02200                  
02317150374000084DT67590675900000006593800888800000010180088824001193047900010800116021620230000000237504723000000000164399473703XXXXXX4520       VS11    0001111   NYV1 A E383047617752758N840000000002375CFD900    05DNPLANET VAPOR #100        020430    VD84000000002375 N  599976768560                            000000000+                F DF 10433                     000000000  Y000000000 338   0000000000000.00 0000000.00   0000000.00                             000000000000000                                                                                                                                                     01418 A000000000000 0000000000000.23     00050 02200                  
02317160374000085DT67590675900000006593800888800000010180088824001193047900010800124021620230000000259004723000000000164399475869XXXXXX8139       VS11    0001111   NYV1 A E303047625188584N840000000002590392Q00    05DNPLANET VAPOR #100        440814    VD84000000002590 N  599976768560                            000000000+                F DF 00381                     000000000  N000000000       0000000000000.00 0000000.00   0000000.00                             000000000000000                                                                                                                                                     01418 A000000000000 0000000000000.36     00800 01500                  
02317170374000086DT67590675900000006593800888800000010180088824001193047900010800132021620230000000349704723000000000164399438419XXXXXX3033       VS11    0001111   NYV1 A E583047647870041N84000000000349729NV00    05DNPLANET VAPOR #100        025948    VD84000000003497 N  599976768560                            000000000+                F DF 00381                     000000000  N000000000       0000000000000.00 0000000.00   0000000.00                             000000000000000                                                                                                                                                     01418 A000000000000 0000000000000.43     00800 01500                  
02317180374000087DT67590675900000006593800888800000010180088824001193047900010800140021620230000000205104723000000000164399473702XXXXXX9763       VS11    0001111   NYV1 A E383047668765255N840000000002051BNH300    05DNPLANET VAPOR #100        060116    VD84000000002051 N  599976768560                            000000000+                F DF 10433                     000000000  Y000000000 338   0000000000000.00 0000000.00   0000000.00                             000000000000000                                                                                                                                                     01418 A000000000000 0000000000000.23     00050 02200                  
02317190374000088DT67590675900000006593800888800000010180088824001193047900010800157021620230000000712504723000000000164399453506XXXXXX8173       VS11    0001111   NYV1 A E583047679201269N84000000000712586ZZ00    05DNPLANET VAPOR #100        H32345    VD84000000007125 N  599976768560                            000000000+                F DF 10433                     000000000  Y000000000 338   0000000000000.00 0000000.00   0000000.00                             000000000000000                                                                                                                                                     01418 A000000000000 0000000000000.26     00050 02200                  
02317200374000089DT67590675900000006593800888800000010180088877287283047900010800167021620230000000323804723000000000164399553818XXXXXX7210       MS02WI09          NY 1 0 AMDSGPK2BS0216  N840000000003238          05DNPLANET VAPOR #100        135916    MD84000000003238 N  599976768560                            000000000+M10101C5434C    MDS  00402                     000000000  N                0000000000000.00 0000000.00   0000000.00                             000000000000000                                                                                                                                                   B101418  000000000000 0000000000000.49     01050 01500                  
02317210374000090DT67590675900000006593800888800000010180088824001193047900010800173021620230000000323804723000000000164399400022XXXXXX6263       VS11    0001111   NYV1 A E463047685320066N840000000003238573B00    05DNPLANET VAPOR #100        057842    VD84000000003238 N  599976768560                            000000000+                F DF 10433                     000000000  Y000000000 338   0000000000000.00 0000000.00   0000000.00                             000000000000000                                                                                                                                                     01418 A000000000000 0000000000000.24     00050 02200                  
02317220374000091DT67590675900000006593800888800000010180088824001193047900010800181021620230000000398304723000000000164399400022XXXXXX7696       VS11    0001111   NYV1 A E463047700086066N840000000003983X63R00    05DNPLANET VAPOR #100        635516    VD84000000003983 N  599976768560                            000000000+                F DF 10433                     000000000  Y000000000 338   0000000000000.00 0000000.00   0000000.00                             000000000000000                                                                                                                                                     01418 A000000000000 0000000000000.24     00050 02200                  
02317230374000092DT67590675900000006593800888800000010180088824001193047900010800199021620230000000252604723000000000164399400022XXXXXX9284       VS11    0001111   NYV1 A E583047704888808N840000000002526S3XQ00    05DNPLANET VAPOR #100        450279    VD84000000002526 N  599976768560                            000000000+                F DF 10433                     000000000  Y000000000 338   0000000000000.00 0000000.00   0000000.00                             000000000000000                                                                                                                                                     01418 A000000000000 0000000000000.23     00050 02200                  
02317240374000093DT67590675900000006593800888800000010180088877287283047900010800209021620230000000680204723000000000164399517604XXXXXX8970       MS02WI09          NY 1 0 AMWEF0LBOW0216  N840000000006802          07DNPLANET VAPOR #100        96412Z    MC84000000006802 N  599976768560                            000000000+M10101M1134C    MWE  00739                     000000000  N                0000000000000.00 0000000.00   0000000.00                             000000000000000                                                                                                                                                   A101418  000000000000 0000000000001.66     02300 01000                  
02317250374000094DT67590675900000006593800888800000010180088824001193047900010800215021620230000000323804723000000000164399440066XXXXXX8850       VS11    0001111   NYV1 A E383047735079448N8400000000032382GFF00    05DNPLANET VAPOR #100        04681D    VS84000000003238 N  599976768560                            000000000+                D CD 12113                     000000000  N000000000 499   0000000000000.00 0000000.00   0000000.00                             000000000000000                                                                                                                                                     01418 A000000000000 0000000000000.78     02100 01000                  
02317260374000095DT67590675900000006593800888800000010180088877287283047900010800225021620230000000323804723000000000164399531258XXXXXX7164       MS02WI09          NY 1 0 AMDJG90QOW0216  N840000000003238          05DNPLANET VAPOR #100        101722    MD84000000003238 N  599976768560                            000000000+M10101C5434C    MDJ  10815                     000000000  1                0000000000000.00 0000000.00   0000000.00                             000000000000000                                                                                                                                                   B101418  000000000000 0000000000000.24     00050 02200                  
02317270374000096DT67590675900000006593800888800000010180088824001193047900010800231021620230000000091704723000000000164399440393XXXXXX1733       VK04VS111111111   NYV1 A E463047773814794N840000000000917DPHF00    05DNPLANET VAPOR #100        054703    VD84000000000917 N  599976768560                            000000000+                F PF 08165                     000000000  N000000000       0000000000000.00 0000000.00   0000000.00                             000000000000000                                                                                                                                                     01418 F000000000000 0000000000000.20     01600 00500                  
02317280374000097DT67590675900000006593800888800000010180088824001193047900010800249021620230000000485704723000000000164399438419XXXXXX0425       VS11    0001111   NYV1 A E303047789234495N840000000004857N7PX00    05DNPLANET VAPOR #100        065523    VD84000000004857 N  599976768560                            000000000+                F DF 00381                     000000000  N000000000       0000000000000.00 0000000.00   0000000.00                             000000000000000                                                                                                                                                     01418 A000000000000 0000000000000.54     00800 01500                  
02317290374000098DT67590675900000006593800888800000010180088824001193047900010800256021620230000000763604723000000000164399435640XXXXXX2326       VS11    0001111   NYV1 A E303047809667422N840000000007636WR8V00    05DNPLANET VAPOR #100        122092    VD84000000007636 N  599976768560                            000000000+                F DF 10433                     000000000  Y000000000 338   0000000000000.00 0000000.00   0000000.00                             000000000000000                                                                                                                                                     01418 A000000000000 0000000000000.26     00050 02200                  
02317300374000099DT67590675900000006593800888800000010180088824001193047900010800264021620230000000485804723000000000164399400022XXXXXX2054       VS11    0001111   NYV1 A E583047814946716N8400000000048587LLH00    05DNPLANET VAPOR #100        594617    VD84000000004858 N  599976768560                            000000000+                F DF 10433                     000000000  Y000000000 338   0000000000000.00 0000000.00   0000000.00                             000000000000000                                                                                                                                                     01418 A000000000000 0000000000000.24     00050 02200                  
02317310374000100DT67590675900000006593800888800000010180088824001193047900010800272021620230000000352004723000000000164399400022XXXXXX2450       VS11    0001111   NYV1 A E383047820628705N840000000003520JFJW00    05DNPLANET VAPOR #100        111044    VD84000000003520 N  599976768560                            000000000+                F DF 10433                     000000000  Y000000000 338   0000000000000.00 0000000.00   0000000.00                             000000000000000                                                                                                                                                     01418 A000000000000 0000000000000.24     00050 02200                  
02317320374000101DT67590675900000006593800888800000010180088824001193047900010800280021620230000000323804723000000000164399434256XXXXXX6208       VS11    0001111   NYV1 A E383047822131625N8400000000032387P9Z00    05DNPLANET VAPOR #100        091133    VD84000000003238 N  599976768560                            000000000+                F DF 10433                     000000000  Y000000000 338   0000000000000.00 0000000.00   0000000.00                             000000000000000                                                                                                                                                     01418 A000000000000 0000000000000.24     00050 02200                  
02317330374000102DT67590675900000006593800888800000010180088824001193047900010800298021620230000000097004723000000000164399473703XXXXXX4373       VK04VS111111111   NYV1 A E583047849683619N8400000000009705FJX00    05DNPLANET VAPOR #100        060787    VD84000000000970 N  599976768560                            000000000+                F DF 10439                     000000000  Y000000000 331   0000000000000.00 0000000.00   0000000.00                             000000000000000                                                                                                                                                     01418 F000000000000 0000000000000.22     00050 02200                  
02317340374000103DT67590675900000006593800888800000010180088824001193047900010800306021620230000000426404723000000000164399461675XXXXXX9739       VS11    0001111   NYV1 A E303047855756639N840000000004264TNTK00    05DNPLANET VAPOR #100        927650    VD84000000004264 N  599976768560                            000000000+                F DF 00381                     000000000  N000000000       0000000000000.00 0000000.00   0000000.00                             000000000000000                                                                                                                                                     01418 A000000000000 0000000000000.49     00800 01500                  
02317350374000104DT67590675900000006593800888800000010180088824001193047900010800314021620230000000539804723000000000164399494149XXXXXX9585       VS11    0001111   NYV1 A E383047859064128N840000000005398HFD600    90DNPLANET VAPOR #100        843251    VD84000000005398 N  599976768560                            000000000+                F PF 08170                     000000000  N000000000       0000000000000.00 0000000.00   0000000.00                             000000000000000                                                                                                                                                     01418 A000000000000 0000000000000.77     01150 01500                  
02317360374000105DT67590675900000006593800888800000010180088824001193047900010800322021620230000000825104723000000000164399465638XXXXXX9940       VS11    0001111   NYV1 A E383047863784395N840000000008251D8TK00    05DNPLANET VAPOR #100        936810    VS84000000008251 N  599976768560                            000000000+                B CB 12111                     000000000  N000000000 495   0000000000000.00 0000000.00   0000000.00                             000000000000000                                                                                                                                                     01418 A000000000000 0000000000001.46     01650 01000                  
02317370374000106DT67590675900000006593800888800000010180088877287283047900010800332021620230000000981604723000000000164399552433XXXXXX4679       MS02WI09          NY 1 0 AMPLS9QFOW0216  N840000000009816          05DNPLANET VAPOR #100        04327M    MC84000000009816 N  599976768560                            000000000+M10101C5434C    MPL  00353                     000000000  N                0000000000000.00 0000000.00   0000000.00                             000000000000000                                                                                                                                                   B101418  000000000000 0000000000001.87     01800 01000                  
02317380374000107DT67590675900000006593800888800000010180088824001193047900010800348021620230000000323804723000000000164399414718XXXXXX3090       VS11    0001111   NYV1 A E463048002911614N840000000003238PC8G00    05DNPLANET VAPOR #100        016227    VS84000000003238 N  599976768560                            000000000+                D CD 12113                     000000000  N000000000 499   0000000000000.00 0000000.00   0000000.00                             000000000000000                                                                                                                                                     01418 A000000000000 0000000000000.78     02100 01000                  
02317390374000108DT67590675900000006593800888800000010180088824001193047900010800355021620230000000313404723000000000164399400022XXXXXX5301       VS11    0001111   NYV1 A E583048005012036N840000000003134BP7Q00    05DNPLANET VAPOR #100        756261    VD84000000003134 N  599976768560                            000000000+                F DF 10433                     000000000  Y000000000 338   0000000000000.00 0000000.00   0000000.00                             000000000000000                                                                                                                                                     01418 A000000000000 0000000000000.24     00050 02200                  
02317400374000109DT67590675900000006593800888800000010180088824001193047900010800363021620230000000763904723000000000164399423223XXXXXX6702       VS11    0001111   NYV1 A E383048015646577N840000000007639S89800    05DNPLANET VAPOR #100        037030    VD84000000007639 N  599976768560                            000000000+                F DF 00381                     000000000  N000000000       0000000000000.00 0000000.00   0000000.00                             000000000000000                                                                                                                                                     01418 A000000000000 0000000000000.76     00800 01500                  
02317410374000110DT67590675900000006593800888800000010180088824001193047900010800371021620230000000427504723000000000164399474473XXXXXX8049       VS11    0001111   NYV1 A E303048018697779N8400000000042758S3L00    05DNPLANET VAPOR #100        123511    VD84000000004275 N  599976768560                            000000000+                F DF 10433                     000000000  Y000000000 338   0000000000000.00 0000000.00   0000000.00                             000000000000000                                                                                                                                                     01418 A000000000000 0000000000000.24     00050 02200                  
02317420374000111DT67590675900000006593800888800000010180088824001193047900010800389021620230000000237504723000000000164399400022XXXXXX5676       VS11    0001111   NYV1 A E303048022641645N840000000002375HZX300    05DNPLANET VAPOR #100        428698    VD84000000002375 N  599976768560                            000000000+                F DF 10433                     000000000  Y000000000 338   0000000000000.00 0000000.00   0000000.00                             000000000000000                                                                                                                                                     01418 A000000000000 0000000000000.23     00050 02200                  
02317430374000112BH6759067590000000995180088880000090170216202304723000000000044716    0000090001080015N8008886759C02172023                                                                                                                                                                                                                                                                                                                                                                                                                                                                                                                                                                                                 
02317440374000113DT67590675900000009951800888800000010180088824001193047900010800017021620230000000539804723000000000044716440393XXXXXX4085       VS11    0001111   NYV1 A E303047677195297N840000000005398ZKXG00    05DNPLANET VAPOR #500        903449    VD84000000005398 N  599976923295                            000000000+                F PF 08170                     000000000  N000000000       0000000000000.00 0000000.00   0000000.00                             000000000000000                                                                                                                                                     01418 A000000000000 0000000000000.77     01150 01500                  
02317450374000114DT67590675900000009951800888800000010180088824001193047900010800025021620230000000377804723000000000044716448261XXXXXX4942       VS11    0001111   NYV1 A E383047699472306N840000000003778S58P00    05DNPLANET VAPOR #500        666187    VD84000000003778 N  599976923295                            000000000+                F DF 10433                     000000000  Y000000000 338   0000000000000.00 0000000.00   0000000.00                             000000000000000                                                                                                                                                     01418 A000000000000 0000000000000.24     00050 02200                  
02317460374000115DT67590675900000009951800888800000010180088824001193047900010800033021620230000000223804723000000000044716449370XXXXXX5042       VS11    0001111   NYV1 A E303047719593276N840000000002238WWWS00    05DNPLANET VAPOR #500        760984    VD84000000002238 N  599976923295                            000000000+                F DF 00381                     000000000  N000000000       0000000000000.00 0000000.00   0000000.00                             000000000000000                                                                                                                                                     01418 A000000000000 0000000000000.33     00800 01500                  
02317470374000116DT67590675900000009951800888800000010180088824001193047900010800041021620230000000280704723000000000044716449370XXXXXX5042       VS11    0001111   NYV1 A E583047723372315N840000000002807P4H200    05DNPLANET VAPOR #500        761262    VD84000000002807 N  599976923295                            000000000+                F DF 00381                     000000000  N000000000       0000000000000.00 0000000.00   0000000.00                             000000000000000                                                                                                                                                     01418 A000000000000 0000000000000.37     00800 01500                  
02317480374000117DT67590675900000009951800888800000010180088824001193047900010800058021620230000000161904723000000000044716449370XXXXXX9947       VS11    0001111   NYV1 A E383047744675643N840000000001619V2T900    05DNPLANET VAPOR #500        762839    VD84000000001619 N  599976923295                            000000000+                F DF 00381                     000000000  N000000000       0000000000000.00 0000000.00   0000000.00                             000000000000000                                                                                                                                                     01418 A000000000000 0000000000000.28     00800 01500                  
02317490374000118DT67590675900000009951800888800000010180088824001193047900010800066021620230000000323804723000000000044716473703XXXXXX1267       VS11    0001111   NYV1 A E583047752189310N840000000003238H22B00    05DNPLANET VAPOR #500        075702    VD84000000003238 N  599976923295                            000000000+                F DF 10433                     000000000  Y000000000 338   0000000000000.00 0000000.00   0000000.00                             000000000000000                                                                                                                                                     01418 A000000000000 0000000000000.24     00050 02200                  
02317500374000119DT67590675900000009951800888800000010180088824001193047900010800074021620230000000550604723000000000044716473703XXXXXX7331       VS11    0001111   NYV1 A E383047767043357N840000000005506F5GG00    05DNPLANET VAPOR #500        084694    VD84000000005506 N  599976923295                            000000000+                F DF 10433                     000000000  Y000000000 338   0000000000000.00 0000000.00   0000000.00                             000000000000000                                                                                                                                                     01418 A000000000000 0000000000000.25     00050 02200                  
02317510374000120DT67590675900000009951800888800000010180088824001193047900010800082021620230000000340004723000000000044716464744XXXXXX4563       VS11    0001111   NYV1 A E463047816628828N840000000003400HH5K00    05DNPLANET VAPOR #500        490791    VD84000000003400 N  599976923295                            000000000+                F DF 00381                     000000000  N000000000       0000000000000.00 0000000.00   0000000.00                             000000000000000                                                                                                                                                     01418 A000000000000 0000000000000.42     00800 01500                  
02317520374000121DT67590675900000009951800888800000010180088824001193047900010800090021620230000000205104723000000000044716438419XXXXXX3664       VS11    0001111   NYV1 A E383047818203273N840000000002051F3NT00    05DNPLANET VAPOR #500        074340    VD84000000002051 N  599976923295                            000000000+                F DF 00381                     000000000  N000000000       0000000000000.00 0000000.00   0000000.00                             000000000000000                                                                                                                                                     01418 A000000000000 0000000000000.31     00800 01500                  
02317530374000122DT67590675900000009951800888800000010180088824001193047900010800108021620230000000323704723000000000044716463405XXXXXX2480       VS11    0001111   NYV1 A E383047829735638N840000000003237PR6H00    05DNPLANET VAPOR #500        023947    VD84000000003237 N  599976923295                            000000000+                F DF 10433                     000000000  Y000000000 338   0000000000000.00 0000000.00   0000000.00                             000000000000000                                                                                                                                                     01418 A000000000000 0000000000000.24     00050 02200                  
02317540374000123DT67590675900000009951800888800000010180088824001193047900010800116021620230000000237504723000000000044716440393XXXXXX5239       VS11    0001111   NYV1 A E303047831822220N8400000000023752QB300    05DNPLANET VAPOR #500        982870    VD84000000002375 N  599976923295                            000000000+                F PF 08170                     000000000  N000000000       0000000000000.00 0000000.00   0000000.00                             000000000000000                                                                                                                                                     01418 A000000000000 0000000000000.42     01150 01500                  
02317550374000124DT67590675900000009951800888800000010180088824001193047900010800124021620230000000215904723000000000044716474474XXXXXX3505       VS11    0001111   NYV1 A E303047861891176N84000000000215987GK00    05DNPLANET VAPOR #500        125161    VD84000000002159 N  599976923295                            000000000+                F DF 10433                     000000000  Y000000000 338   0000000000000.00 0000000.00   0000000.00                             000000000000000                                                                                                                                                     01418 A000000000000 0000000000000.23     00050 02200                  
02317560374000125DT67590675900000009951800888800000010180088824001193047900010800132021620230000000151304723000000000044716448233XXXXXX9834       VS11    0001111   NYV1 A E463048003004824N840000000001513DKRL00    05DNPLANET VAPOR #500        080500    VD84000000001513 N  599976923295                            000000000+                F DF 10433                     000000000  Y000000000 338   0000000000000.00 0000000.00   0000000.00                             000000000000000                                                                                                                                                     01418 A000000000000 0000000000000.23     00050 02200                  
02317570374000126DT67590675900000009951800888800000010180088824001193047900010800140021620230000000269804723000000000044716448261XXXXXX7612       VS11    0001111   NYV1 A E383048019631540N840000000002698X9ZP00    05DNPLANET VAPOR #500        499209    VD84000000002698 N  599976923295                            000000000+                F DF 10433                     000000000  Y000000000 338   0000000000000.00 0000000.00   0000000.00                             000000000000000                                                                                                                                                     01418 A000000000000 0000000000000.23     00050 02200                  
02317580374000127DT67590675900000009951800888800000010180088824001193047900010800157021620230000000269904723000000000044716434769XXXXXX9289       VS11    0001111   NYV1 A E303048023845376N84000000000269987KZ00    05DNPLANET VAPOR #500        043919    VD84000000002699 N  599976923295                            000000000+                F DF 10433                     000000000  Y000000000 338   0000000000000.00 0000000.00   0000000.00                             000000000000000                                                                                                                                                     01418 A000000000000 0000000000000.23     00050 02200                  
02317590374000128BH6759067590000000909280088880000090170216202304723000000000211000    0000090001080049N8008886759C02172023                                                                                                                                                                                                                                                                                                                                                                                                                                                                                                                                                                                                 
02317600374000129DT67590675900000009092800888800000010180088824001193047900010800017021620230000000194304723000000000211000458643XXXXXX5991       VS11    0001111   NYV1 A E303047558529882N8400000000019439FNC00    05DNPLANET VAPOR #500        H95069    VD84000000001943 N  599976781988                            000000000+                F DF 10433                     000000000  Y000000000 338   0000000000000.00 0000000.00   0000000.00                             000000000000000                                                                                                                                                     01418 A000000000000 0000000000000.23     00050 02200                  
02317610374000130DT67590675900000009092800888800000010180088824001193047900010800025021620230000000259004723000000000211000430602XXXXXX2799       VS11    0001111   NYV1 A E303047560845501N840000000002590V6Q900    07DNPLANET VAPOR #500        597044    VD84000000002590 N  599976781988                            000000000+                F DF 00381                     000000000  N000000000       0000000000000.00 0000000.00   0000000.00                             000000000000000                                                                                                                                                     01418 A000000000000 0000000000000.36     00800 01500                  
02317620374000131DT67590675900000009092800888800000010180088877287283047900010800035021620230000000237504723000000000211000531258XXXXXX3512       MS02WI09          NY 1 0 AMDJWEF2670216  N840000000002375          07DNPLANET VAPOR #500        104623    MD84000000002375 N  599976781988                            000000000+M10101M0034C    MDJ  10815                     000000000  1                0000000000000.00 0000000.00   0000000.00                             000000000000000                                                                                                                                                   B101418  000000000000 0000000000000.23     00050 02200                  
02317630374000132DT67590675900000009092800888800000010180088824001193047900010800041021620230000000404804723000000000211000410702XXXXXX9078       VS11    0001111   NYV1 A E583047585959213N840000000004048DH4L00    05DNPLANET VAPOR #500        107475    VD84000000004048 N  599976781988                            000000000+                F DF 00381                     000000000  N000000000       0000000000000.00 0000000.00   0000000.00                             000000000000000                                                                                                                                                     01418 A000000000000 0000000000000.47     00800 01500                  
02317640374000133DT67590675900000009092800888800000010180088877287283047900010800050021620230000000431304723000000000211000531258XXXXXX0534       MS02WI09          NY 1 0 AMDJL3OD1N0216  N840000000004313          05DNPLANET VAPOR #500        112829    MD84000000004313 N  599976781988                            000000000+M10101C5434C    MDJ  10815                     000000000  1                0000000000000.00 0000000.00   0000000.00                             000000000000000                                                                                                                                                   B101418  000000000000 0000000000000.24     00050 02200                  
02317650374000134DT67590675900000009092800888800000010180088824001193047900010800066021620230000000539804723000000000211000461675XXXXXX8051       VS11    0001111   NYV1 A E583047606416671N8400000000053983X9B00    05DNPLANET VAPOR #500        627430    VD84000000005398 N  599976781988                            000000000+                F DF 00381                     000000000  N000000000       0000000000000.00 0000000.00   0000000.00                             000000000000000                                                                                                                                                     01418 A000000000000 0000000000000.58     00800 01500                  
02317660374000135DT67590675900000009092800888800000010180088824001193047900010800074021620230000000237504723000000000211000473703XXXXXX2749       VS11    0001111   NYV1 A E463047608195912N840000000002375J7FZ00    07DNPLANET VAPOR #500        013713    VD84000000002375 N  599976781988                            000000000+                F DF 10433                     000000000  Y000000000 338   0000000000000.00 0000000.00   0000000.00                             000000000000000                                                                                                                                                     01418 A000000000000 0000000000000.23     00050 02200                  
02317670374000136DT67590675900000009092800888800000010180088824001193047900010800082021620230000000188904723000000000211000458643XXXXXX1404       VS11    0001111   NYV1 A E463047613293635N840000000001889RGM400    05DNPLANET VAPOR #500        H12161    VD84000000001889 N  599976781988                            000000000+                F DF 10433                     000000000  Y000000000 338   0000000000000.00 0000000.00   0000000.00                             000000000000000                                                                                                                                                     01418 A000000000000 0000000000000.23     00050 02200                  
02317680374000137DT67590675900000009092800888800000010180088824001193047900010800090021620230000000388604723000000000211000427199XXXXXX2626       VS11    0001111   NYV1 A E463047623893630N840000000003886N8M800    05DNPLANET VAPOR #500        180433    VD84000000003886 N  599976781988                            000000000+                F DF 00381                     000000000  N000000000       0000000000000.00 0000000.00   0000000.00                             000000000000000                                                                                                                                                     01418 A000000000000 0000000000000.46     00800 01500                  
02317690374000138DT67590675900000009092800888800000010180088824001193047900010800108021620230000000377804723000000000211000473703XXXXXX9720       VS11    0001111   NYV1 A E463047625921036N840000000003778SQMN00    07DNPLANET VAPOR #500        090689    VD84000000003778 N  599976781988                            000000000+                F DF 10433                     000000000  Y000000000 338   0000000000000.00 0000000.00   0000000.00                             000000000000000                                                                                                                                                     01418 A000000000000 0000000000000.24     00050 02200                  
02317700374000139DT67590675900000009092800888800000010180088824001193047900010800116021620230000000237504723000000000211000432739XXXXXX8930       VS11    0001111   NYV1 A E463047628269278N840000000002375QTN700    05DNPLANET VAPOR #500        045501    VD84000000002375 N  599976781988                            000000000+                F DF 10433                     000000000  Y000000000 338   0000000000000.00 0000000.00   0000000.00                             000000000000000                                                                                                                                                     01418 A000000000000 0000000000000.23     00050 02200                  
02317710374000140DT67590675900000009092800888800000010180088877287283047900010800126021620230000000059404723000000000211000553781XXXXXX4653       MS02WI09          NY 1 0 AMDSYZ6M670216  N840000000000594          05DNPLANET VAPOR #500        571460    MD84000000000594 N  599976781988                            000000000+M10101C5434C    MDS  00402                     000000000  N                0000000000000.00 0000000.00   0000000.00                             000000000000000                                                                                                                                                   B101418  000000000000 0000000000000.21     01050 01500                  
