02207250606750002BH6759067590000000215480088880000090170126202302623000000000001000    0000090001030001N8008886759C01272023                                                                                                                                                                                                                                                                                                                                                                                                                                                                                                                                                                                                 
02207260606750003DT67590675900000002154800888800000010180088824001193026900010300013012620230000000100002623000000000001000498865XXXXXX7239       VK04VS111111111   NYV1 A E303026703477649N8400000000010008T6600    05DNDRIP DROP DISTRO LLC     581549    VB84000000001000 N  519976225826                            000000000+                G4CG411354                     000000000  N000000000 378   0000000000000.00 0000000.00   0000000.00                             000000000000000                                                                                                                                                     01418 F000000000000 0000000000000.32     02200 01000                  
02207270606750004BH6759067590000000288180088880000090170126202302623000000000147187    0000090001290022N8008886759C01272023                                                                                                                                                                                                                                                                                                                                                                                                                                                                                                                                                                                                 
02207280606750005DT67590675900000002881800888800000010180088873011003026900012900014012620230000000444402623000000000147187379364XXXXX7256                          NY 1 0 N006761772683067N840000000004444          05DNHAPPY HIPPIE             384026    AM84000000004444 N  549976487134                            000000000+51010155434C 258     11261                     000000000                   0000000000000.00 0000000.00   0000000.00                             000000000000000 61248972086759675900000002881 HAPPY HIPPIE             832 PARKWAY              8656540830      37862     HAPPYHIPPIE832@GMAIL.COM                  01418  000000000000 0000000000000.81     01600 00000                  
02207290606750006DT67590675900000002881800888800000010180088824001193026900012900026012620230000000246802623000000000147187487917XXXXXX3512       VS11    0001111   NYV1 A E303026542126393N840000000002468254400    05DNHAPPY HIPPIE             306213    VD84000000002468 N  549976487134                            000000000+                F DF 00381                     000000000  N000000000       0000000000000.00 0000000.00   0000000.00                             000000000000000                                                                                                                                                     01418 A000000000000 0000000000000.35     00800 01500                  
02207300606750007DT67590675900000002881800888800000010180088824001193026900012900034012620230000000335702623000000000147187419090XXXXXX6750       VS11    0001111   NYV1 A E303026568024043N840000000003357ZP3J00    05DNHAPPY HIPPIE             050868    VD84000000003357 N  549976487134                            000000000+                F DF 00381                     000000000  N000000000       0000000000000.00 0000000.00   0000000.00                             000000000000000                                                                                                                                                     01418 A000000000000 0000000000000.42     00800 01500                  
02207310606750008DT67590675900000002881800888800000010180088877287283026900012900044012620230000000444202623000000000147187517805XXXXXX6616       MS02WI09          NY 1 0 AMPLTV12UM0126  N840000000004442          05DNHAPPY HIPPIE             07327B    MC84000000004442 N  549976487134                            000000000+M10101C5434C    MPL  00364                     000000000  N                0000000000000.00 0000000.00   0000000.00                             000000000000000                                                                                                                                                   B101418  000000000000 0000000000000.84     01800 00400                  
02207320606750009DT67590675900000002881800888800000010180088824001193026900012900059012620230000000658502623000000000147187473703XXXXXX7851       VS11    0001111   NYV1 A E383026589864631N840000000006585PHLW00    05DNHAPPY HIPPIE             089545    VD84000000006585 N  549976487134                            000000000+                F DF 10433                     000000000  Y000000000 338   0000000000000.00 0000000.00   0000000.00                             000000000000000                                                                                                                                                     01418 A000000000000 0000000000000.25     00050 02200                  
02207330606750010DT67590675900000002881800888800000010180088877287283026900012900069012620230000000788902623000000000147187511953XXXXXX1086       MS02WI09          NY 1 0 AMDJA9AXX40126  N840000000007889          05DNHAPPY HIPPIE             025843    MD84000000007889 N  549976487134                            000000000+M10101C5434C    MDJ  00402                     000000000  N                0000000000000.00 0000000.00   0000000.00                             000000000000000                                                                                                                                                   B101418  000000000000 0000000000000.98     01050 01500                  
02207340606750011DT67590675900000002881800888800000010180088824001193026900012900075012620230000000438902623000000000147187458415XXXXXX8283       VS11    0001111   NYV1 A E463026625089138N840000000004389CR3K00    90DNHAPPY HIPPIE             228432    VD84000000004389 N  549976487134                            000000000+                F PF 08170                     000000000  N000000000       0000000000000.00 0000000.00   0000000.00                             000000000000000                                                                                                                                                     01418 A000000000000 0000000000000.65     01150 01500                  
02207350606750012DT67590675900000002881800888800000010180088824001193026900012900083012620230000000592402623000000000147187480639XXXXXX0039       VS11    0001111   NYV1 A E383026634839099N840000000005924D7JC00    05DNHAPPY HIPPIE             720215    VD84000000005924 N  549976487134                            000000000+                F DF 00381                     000000000  N000000000       0000000000000.00 0000000.00   0000000.00                             000000000000000                                                                                                                                                     01418 A000000000000 0000000000000.62     00800 01500                  
02207360606750013DT67590675900000002881800888800000010180088824001193026900012900091012620230000000395102623000000000147187480639XXXXXX0039       VS11    0001111   NYV1 A E463026635861185N840000000003951LDWG00    05DNHAPPY HIPPIE             720268    VD84000000003951 N  549976487134                            000000000+                F DF 00381                     000000000  N000000000       0000000000000.00 0000000.00   0000000.00                             000000000000000                                                                                                                                                     01418 A000000000000 0000000000000.47     00800 01500                  
02207370606750014DT67590675900000002881800888800000010180088824001193026900012900109012620230000000148102623000000000147187422921XXXXXX2391       VK04VS111111111   NYV1 A E383026643640881N840000000001481G93K00    05DNHAPPY HIPPIE             046365    VD84000000001481 N  549976487134                            000000000+                F DF 00451                     000000000  N000000000 214   0000000000000.00 0000000.00   0000000.00                             000000000000000                                                                                                                                                     01418 F000000000000 0000000000000.27     01550 00400                  
02207380606750015DT67590675900000002881800888800000010180088824001193026900012900117012620230000000051902623000000000147187411600XXXXXX7264       VK04VS111111111   NYV1 A E463026651252273N840000000000519LR6F00    90DNHAPPY HIPPIE             100525    VD84000000000519 N  549976487134                            000000000+                F PF 08165                     000000000  N000000000       0000000000000.00 0000000.00   0000000.00                             000000000000000                                                                                                                                                     01418 F000000000000 0000000000000.13     01600 00500                  
02207390606750016DT67590675900000002881800888800000010180088824001193026900012900125012620230000000145002623000000000147187443264XXXXXX3780       VK04VS111111111   NYV1 A E583026657414915N8400000000014508LL300    05DNHAPPY HIPPIE             029090    VD84000000001450 N  549976487134                            000000000+                F DF 10439                     000000000  Y000000000 331   0000000000000.00 0000000.00   0000000.00                             000000000000000                                                                                                                                                     01418 F000000000000 0000000000000.23     00050 02200                  
02207400606750017DT67590675900000002881800888800000010180088824001193026900012900133012620230000000691302623000000000147187413037XXXXXX6303       VS11    0001111   NYV1 A E583026695984025N84000000000691392DR00    05DNHAPPY HIPPIE             044626    VD84000000006913 N  549976487134                            000000000+                F DF 10433                     000000000  Y000000000 338   0000000000000.00 0000000.00   0000000.00                             000000000000000                                                                                                                                                     01418 A000000000000 0000000000000.25     00050 02200                  
02207410606750018DT67590675900000002881800888800000010180088824001193026900012900141012620230000000155502623000000000147187443264XXXXXX7877       VS11    0001111   NYV1 A E463026712900761N8400000000015552ZJ400    05DNHAPPY HIPPIE             028660    VD84000000001555 N  549976487134                            000000000+                F DF 10433                     000000000  Y000000000 338   0000000000000.00 0000000.00   0000000.00                             000000000000000                                                                                                                                                     01418 A000000000000 0000000000000.23     00050 02200                  
02207420606750019DT67590675900000002881800888800000010180088824001193026900012900158012620230000000361802623000000000147187435547XXXXXX9872       VS11    0001111   NYV1 A E463026714815416N840000000003618VMDH00    05DNHAPPY HIPPIE             070087    VD84000000003618 N  549976487134                            000000000+                F DF 10433                     000000000  Y000000000 338   0000000000000.00 0000000.00   0000000.00                             000000000000000                                                                                                                                                     01418 A000000000000 0000000000000.24     00050 02200                  
02207430606750020DT67590675900000002881800888800000010180088873011003026900012900162012620230000000246802623000000000147187379363XXXXX1842                          NY 1 0 N006214478853071N840000000002468          05DNHAPPY HIPPIE             669026    AM84000000002468 N  549976487134                            000000000+51010155434C 258     11261                     000000000                   0000000000000.00 0000000.00   0000000.00                             000000000000000 61248972086759675900000002881 HAPPY HIPPIE             832 PARKWAY              8656540830      37862     HAPPYHIPPIE832@GMAIL.COM                  01418  000000000000 0000000000000.49     01600 00000                  
02207440606750021DT67590675900000002881800888800000010180088824001193026900012900174012620230000006517202623000000000147187486732XXXXXX4270       VS11    0001111   NYV1 A E583026761583137N840000000065172PJZV00    05DNHAPPY HIPPIE             080916    VD84000000065172 N  549976487134                            000000000+                F DF 10433                     000000000  Y000000000 338   0000000000000.00 0000000.00   0000000.00                             000000000000000                                                                                                                                                     01418 A000000000000 0000000000000.55     00050 02200                  
02207450606750022DT67590675900000002881800888800000010180088824001193026900012900182012620230000000691302623000000000147187415978XXXXXX1435       VS11    0001111   NYV1 A E303026779760607N840000000006913L5QQ00    05DNHAPPY HIPPIE             090838    VD84000000006913 N  549976487134                            000000000+                F DF 10433                     000000000  Y000000000 338   0000000000000.00 0000000.00   0000000.00                             000000000000000                                                                                                                                                     01418 A000000000000 0000000000000.25     00050 02200                  
02207460606750023DT67590675900000002881800888800000010180088824001193026900012900190012620230000000493802623000000000147187435546XXXXXX8931       VS11    0001111   NYV1 A E583026805186597N840000000004938Z38C00    05DNHAPPY HIPPIE             033095    VD84000000004938 N  549976487134                            000000000+                F DF 10433                     000000000  Y000000000 338   0000000000000.00 0000000.00   0000000.00                             000000000000000                                                                                                                                                     01418 A000000000000 0000000000000.24     00050 02200                  
02207470606750024DT67590675900000002881800888800000010180088824001193026900012900208012620230000000246802623000000000147187422921XXXXXX4671       VS11    0001111   NYV1 A E583026807330032N840000000002468PQ6V00    05DNHAPPY HIPPIE             062734    VD84000000002468 N  549976487134                            000000000+                F DF 00381                     000000000  N000000000       0000000000000.00 0000000.00   0000000.00                             000000000000000                                                                                                                                                     01418 A000000000000 0000000000000.35     00800 01500                  
02207480606750025DT67590675900000002881800888800000010180088824001193026900012900216012620230000000295002623000000000147187410894XXXXXX4308       VS11    0001111   NYV1 A E383026813932329N840000000002950QNH400    05DNHAPPY HIPPIE             024054    VD84000000002950 N  549976487134                            000000000+                F DF 10433                     000000000  Y000000000 338   0000000000000.00 0000000.00   0000000.00                             000000000000000                                                                                                                                                     01418 A000000000000 0000000000000.23     00050 02200                  
02207490606750026DT67590675900000002881800888800000010180088824001193026900012900224012620230000000329302623000000000147187443238XXXXXX6040       VS11    0001111   NYV1 A E303026829145518N840000000003293S7PH00    05DNHAPPY HIPPIE             080154    VD84000000003293 N  549976487134                            000000000+                F DF 00381                     000000000  N000000000       0000000000000.00 0000000.00   0000000.00                             000000000000000                                                                                                                                                     01418 A000000000000 0000000000000.41     00800 01500                  
02207500606750027BH6759067590000000288180088880000090170126202302623000000000062352    0000090001290014N8008886759C01272023                                                                                                                                                                                                                                                                                                                                                                                                                                                                                                                                                                                                 
02207510606750028DT67590675900000002881800888800000010180088824001193026900012900018012620230000000131602623000000000062352445101XXXXXX1002       VK04VS111111111   NYV1 A E583026540609199N84000000000131667W600    05DNHAPPY HIPPIE             835318    VD84000000001316 N  549976487158                            000000000+                F DF 10439                     000000000  Y000000000 331   0000000000000.00 0000000.00   0000000.00                             000000000000000                                                                                                                                                     01418 F000000000000 0000000000000.23     00050 02200                  
02207520606750029DT67590675900000002881800888800000010180088824001193026900012900026012620230000000316102623000000000062352422921XXXXXX6466       VS11    0001111   NYV1 A E303026601474545N840000000003161FL6N00    05DNHAPPY HIPPIE             042148    VD84000000003161 N  549976487158                            000000000+                F DF 00381                     000000000  N000000000       0000000000000.00 0000000.00   0000000.00                             000000000000000                                                                                                                                                     01418 A000000000000 0000000000000.40     00800 01500                  
02207530606750030DT67590675900000002881800888800000010180088824001193026900012900034012620230000000444402623000000000062352422921XXXXXX9132       VS11    0001111   NYV1 A E463026612965223N840000000004444J44M00    05DNHAPPY HIPPIE             043297    VD84000000004444 N  549976487158                            000000000+                F DF 00381                     000000000  N000000000       0000000000000.00 0000000.00   0000000.00                             000000000000000                                                                                                                                                     01418 A000000000000 0000000000000.51     00800 01500                  
02207540606750031DT67590675900000002881800888800000010180088824001193026900012900042012620230000000987802623000000000062352411600XXXXXX4357       VS11    0001111   NYV1 A E303026622944606N840000000009878KGNX00    05DNHAPPY HIPPIE             091814    VD84000000009878 N  549976487158                            000000000+                F PF 08170                     000000000  N000000000       0000000000000.00 0000000.00   0000000.00                             000000000000000                                                                                                                                                     01418 A000000000000 0000000000001.29     01150 01500                  
02207550606750032DT67590675900000002881800888800000010180088824001193026900012900059012620230000000097402623000000000062352498503XXXXXX9797       VK04VS111111111   NYV1 A E463026635598223N840000000000974NTDC00    05DNHAPPY HIPPIE             086050    VD84000000000974 N  549976487158                            000000000+                F DF 00451                     000000000  N000000000 214   0000000000000.00 0000000.00   0000000.00                             000000000000000                                                                                                                                                     01418 F000000000000 0000000000000.19     01550 00400                  
02207560606750033DT67590675900000002881800888800000010180088873011003026900012900063012620230000000119902623000000000062352379301XXXXX1000                          NY 1 0 N006765030899068N840000000001199          01DNHAPPY HIPPIE             129850    AM84000000001199 N  549976487158                            000000000+51010165434C 258     11261                     000000000                   0000000000000.00 0000000.00   0000000.00                             000000000000000 61248972086759675900000002881 HAPPY HIPPIE             832 PARKWAY              8656540830      37862     HAPPYHIPPIE832@GMAIL.COM                  01418  000000000000 0000000000000.29     01600 00000                  
02207570606750034DT67590675900000002881800888800000010180088824001193026900012900075012620230000000296202623000000000062352498503XXXXXX6779       VS11    0001111   NYV1 A E463026687282696N840000000002962RJH400    05DNHAPPY HIPPIE             003544    VD84000000002962 N  549976487158                            000000000+                F DF 00381                     000000000  N000000000       0000000000000.00 0000000.00   0000000.00                             000000000000000                                                                                                                                                     01418 A000000000000 0000000000000.39     00800 01500                  
02207580606750035DT67590675900000002881800888800000010180088824001193026900012900083012620230000001062002623000000000062352403216XXXXXX5866       VS11    0001111   NYV1 A E383026706066950N840000000010620T9HW00    05DNHAPPY HIPPIE             094102    VS84000000010620 N  549976487158                            000000000+                A CA 12110                     000000000  N000000000 493   0000000000000.00 0000000.00   0000000.00                             000000000000000                                                                                                                                                     01418 A000000000000 0000000000001.70     01510 01000                  
02207590606750036DT67590675900000002881800888800000010180088824001193026900012900091012620230000000274402623000000000062352419455XXXXXX7869       VS11    0001111   NYV1 A E583026749320767N8400000000027444JBN00    05DNHAPPY HIPPIE             405859    VD84000000002744 N  549976487158                            000000000+                F DF 00381                     000000000  N000000000       0000000000000.00 0000000.00   0000000.00                             000000000000000                                                                                                                                                     01418 A000000000000 0000000000000.37     00800 01500                  
02207600606750037DT67590675900000002881800888800000010180088824001193026900012900109012620230000000328502623000000000062352419090XXXXXX5725       VS11    0001111   NYV1 A E383026753318356N840000000003285GLQ700    05DNHAPPY HIPPIE             061073    VD84000000003285 N  549976487158                            000000000+                F DF 00381                     000000000  N000000000       0000000000000.00 0000000.00   0000000.00                             000000000000000                                                                                                                                                     01418 A000000000000 0000000000000.41     00800 01500                  
02207610606750038DT67590675900000002881800888800000010180088824001193026900012900117012620230000000711002623000000000062352419090XXXXXX8251       VS11    0001111   NYV1 A E303026769972235N840000000007110HVXT00    05DNHAPPY HIPPIE             062047    VD84000000007110 N  549976487158                            000000000+                F DF 00381                     000000000  N000000000       0000000000000.00 0000000.00   0000000.00                             000000000000000                                                                                                                                                     01418 A000000000000 0000000000000.72     00800 01500                  
02207620606750039DT67590675900000002881800888800000010180088876509753026900012900123012620230000000548802623000000000062352601101XXXXXX0847   BA50                  NY41 0 N863022204702362N840000000005488    00    05DNHAPPY HIPPIE             02615R    DS84000000005488 N  549976487158050                         000000000+0000004910H00   DCCDI01000002092  144750000000 000000000  0          112   0000000000000.00 0000000.00   0000000.00                             000000000000000                                                                                                                                                     01418  000000000000 0000000000001.04     01720 01000                  
02207630606750040DT67590675900000002881800888800000010180088824001193026900012900133012620230000000591302623000000000062352449507XXXXXX6597       VS11    0001111   NYV1 A E303026785470587N840000000005913JBTX00    05DNHAPPY HIPPIE             064908    VD84000000005913 N  549976487158                            000000000+                F DF 00381                     000000000  N000000000       0000000000000.00 0000000.00   0000000.00                             000000000000000                                                                                                                                                     01418 A000000000000 0000000000000.62     00800 01500                  
02207640606750041DT67590675900000002881800888800000010180088824001193026900012900141012620230000000325802623000000000062352480639XXXXXX5004       VS11    0001111   NYV1 A E303026809825807N8400000000032582MWK00    05DNHAPPY HIPPIE             728390    VD84000000003258 N  549976487158                            000000000+                F DF 00381                     000000000  N000000000       0000000000000.00 0000000.00   0000000.00                             000000000000000                                                                                                                                                     01418 A000000000000 0000000000000.41     00800 01500                  
02207650606750042BH6759067590000000215480088880000090170126202302623000000000820520    0000090001920076N8008886759C01272023                                                                                                                                                                                                                                                                                                                                                                                                                                                                                                                                                                                                 
02207660606750043DT67590675900000002154800888800000010180088824001193026900019279127012620230000013061402623000000000820520478442XXXXXX0852               2111111   NYV4 A7W463026661530020N8400000001306147C5K00    01DNDRIP DROP DISTRO LLC     042196    VD84000000130614 NP1519971004114   INV-000392               000000000+                G DG 10352                     000000000  Y000000000 338   0000000000000.00 0000000.00   0000000.00                             000000000000000                                                                                                                                                     01418 G000000130614 0000000000000.87     00050 02200                  
02207670606750001P16759067590000000215480088880000001010000000000000000    43899103909              2000000000000000000000000              000000000000                    0000000000000000000000000                    000000000000                                                                                                                                                                                                                                                                                                                                                                                                                                                                                        
02207680606750044DT67590675900000002154800888800000010180088887287283026900019245111012620230000044850002623000000000820520547415XXXXXX6337                         NY 4607AMEBFHA3B40125  N840000000448500          81DNDRIP DROP DISTRO LLC     05464J    MB84000000448500 NP1519900000001   INV-000352               000000000+600450S00140    MEB  10991                     000000000  N                0000000000000.00 0000000.00   0000000.00                             000000000000000                                                                                                                                                   U001418  000000000000 0000000000132.41     02950 01000                  
02207690606750001P1675906759000000021548008888000000101                                                          000000000000          8000            471534935                                                                                                                                                                                                                                                                                                                                                                                                                                                                                                                                                            
02207700606750045DT67590675900000002154800888800000010180088887287283026900019201882012620230000004982602623000000000820520515412XXXXXX7134                         NY 4607AMDBD8F0PU0125  N840000000049826          81DNDRIP DROP DISTRO LLC     646701    MD84000000049826 NP1519900000001   17357                    000000000+600450S00140    MDB  00062                     000000000  N                0000000000000.00 0000000.00   0000000.00                             000000000000000                                                                                                                                                   U001418  000000000000 0000000000013.30     02650 01000                  
02207710606750001P1675906759000000021548008888000000101                                                          000000000000          8000            471534935                                                                                                                                                                                                                                                                                                                                                                                                                                                                                                                                                            
02207720606750046DT67590675900000002154800888800000010180088887287283026900019200769012620230000019158002623000000000820520557159XXXXXX8615                         NY 4607AMDBHDSG2P0126  N840000000191580          81DNDRIP DROP DISTRO LLC     396024    MD84000000191580 NP1519900000001   INV-000305               000000000+600450S00140    MDB  00062                     000000000  N                0000000000000.00 0000000.00   0000000.00                             000000000000000                                                                                                                                                   U001418  000000000000 0000000000050.87     02650 01000                  
02207730606750001P1675906759000000021548008888000000101                                                          000000000000          8000            471534935                                                                                                                                                                                                                                                                                                                                                                                                                                                                                                                                                            
02207740606750047BH6759067590000000561180088880000090170126202302623000000000012186    0000090001059987N8008886759C01272023                                                                                                                                                                                                                                                                                                                                                                                                                                                                                                                                                                                                 
02207750606750048DT67590675900000005611800888800000010180088824001193026900010599879012620230000001218602623000000000012186473702XXXXXX1672               2111111   NYV4 A7W303026603187073N8400000000121866JTT00    01DNK DIVINE 503-689-7182    008037    VD84000000012186 NP1549971004114   5169                     000000000+                F DF 10420                     000000000  Y000000000 338   0000000000000.00 0000000.00   0000000.00                             000000000000000                                                                                                                                                     01418 G000000012186 0000000000000.28     00050 02200                  
02207760606750001P16759067590000000561180088880000001010000000000000000                             2000000000000000000000000              000000000000                    0000000000000000000000000                    000000000000                                                                                                                                                                                                                                                                                                                                                                                                                                                                                        
02207770606750049BH6759067590000000096880088880000090170126202302623000000000021900    0000090001296083N8008886759C01272023                                                                                                                                                                                                                                                                                                                                                                                                                                                                                                                                                                                                 
02207780606750050DT67590675900000000968800888800000010180088824001193026900012960830012620230000002190002623000000000021900410039XXXXXX3644               2111111   NYV4 A7W583026501932638N8400000000219005PG600    01DNHIGHER FLOUR LLC         44031D    VS84000000021900 NP1546271004114   RHZPJZRCHQEXUQAYWNMR     000000000+                D CD 12109                     000000000  N000000000 498   0000000000000.00 0000000.00   0000000.00                             000000000000000                                                                                                                                                     01418 G000000021900 0000000000005.58     02500 01000                  
02207790606750001P16759067590000000096880088880000001010000000000000000                             2000000000000000000000000              000000000000                    0000000000000000000000000                    000000000000                                                                                                                                                                                                                                                                                                                                                                                                                                                                                        
