00004380531590002BH6759067590000002604780012480000090170424202311423000000000068510    0000090001030025N8001246759C04242023                                                                                                                                                                                                                                                                                                                                                                                                                                                                                                                                                                                                 
00004390531590003DT67590675900000026047800124800000010180012424001193114900010300016042020230000000268111423000000000068510426290XXXXXX3431       PS02VK040111111   NYV1 0 N303110707224330N840000000002681HSQF00    05DNHPPYC                    05278C    VS84000000002681 N  599978202445                            000000000+                C CC 11868                     000000000  N000000010 105   0000000000000.00 0000000.00   0000000.00                             000000000000000                                                                                                                                                     01424  000000000000 0000000000000.94     03150 01000                  
00004400531590004DT67590675900000026047800124800000010180012473011003114900010300020042020230000000536111423000000000068510370382XXXXX2631                          NY 1 0 N004595855719329N840000000005361          07DNHPPYC LLC                805480    AM84000000005361 N  599978202445                            000000000+51010X51134C 258     11261                     000000000                   0000000000000.00 0000000.00   0000000.00                             000000000000000 61248972086759675900000026047 HPPYC LLC                401 HAWTHORNE LN 110263  9802368861      28204     TORI@SMOKEMFG.COM                         01424  000000000000 0000000000000.96     01600 00000                  
00004410531590005DT67590675900000026047800124800000010180012477287283114900010300034042020230000000064211423000000000068510534857XXXXXX8154                         NY 1 0 AMDBW5NM0E0420  N840000000000642          05DNHPPYC                    142855    MD84000000000642 NP1599978202445                            000000000+M10101C5434C    MDB  10802                     000000000  1                0000000000000.00 0000000.00   0000000.00                             000000000000000                                                                                                                                                   B101424  000000000000 0000000000000.22     00050 02200                  
00004420531590001P1675906759000000260478001248000000101                                                          000000000000          8000            880856097                                                                                                                                                                                                                                                                                                                                                                                                                                                                                                                                                            
00004430531590006DT67590675900000026047800124800000010180012424001193114900010300040042020230000000100011423000000000068510474473XXXXXX4228       PS02VK040111111   NYV1 J E583110789367694N840000000001000M67K00    05DNHPPYC                    145758    VD84000000001000 N  599978202445                            000000000+                F DF 10425                     000000000  Y000000010 338   0000000000000.00 0000000.00   0000000.00                             000000000000000                                                                                                                                                     01424 A000000000000 0000000000000.23     00050 02200                  
00004440531590007DT67590675900000026047800124800000010180012424001193114900010300057042020230000000060011423000000000068510473703XXXXXX9978       PS02VK040111111   NYV1 J E463110858393703N840000000000600M2W400    07DNHPPYC                    057803    VD84000000000600 N  599978202445                            000000000+                F DF 10425                     000000000  Y000000010 338   0000000000000.00 0000000.00   0000000.00                             000000000000000                                                                                                                                                     01424 A000000000000 0000000000000.22     00050 02200                  
00004450531590008DT67590675900000026047800124800000010180012424001193114900010300065042120230000000096611423000000000068510426684XXXXXX5975       VK04VS111111111   NYV1 A E463111655918349N84000000000096673DK00    05DNHPPYC                    09348D    VS84000000000966 N  599978202445                            000000000+                D CD 12113                     000000000  N000000000 499   0000000000000.00 0000000.00   0000000.00                             000000000000000                                                                                                                                                     01424 F000000000000 0000000000000.30     02100 01000                  
00004460531590009DT67590675900000026047800124800000010180012473011003114900010300079042120230000000554911423000000000068510379009XXXXX3008                          NY 1 0 N004614801835327N840000000005549          05DNHPPYC LLC                803080    AM84000000005549 N  599978202445                            000000000+51010155434C 258     11261                     000000000                   0000000000000.00 0000000.00   0000000.00                             000000000000000 61248972086759675900000026047 HPPYC LLC                401 HAWTHORNE LN 110263  9802368861      28204     TORI@SMOKEMFG.COM                         01424  000000000000 0000000000000.99     01600 00000                  
00004470531590010DT67590675900000026047800124800000010180012424001193114900010300081042120230000000428911423000000000068510400344XXXXXX4475       VS11    0001111   NYV1 A E583111689448520N8400000000042894WJT00    05DNHPPYC                    07145B    VS84000000004289 N  599978202445                            000000000+                B CB 12111                     000000000  N000000000 495   0000000000000.00 0000000.00   0000000.00                             000000000000000                                                                                                                                                     01424 A000000000000 0000000000000.81     01650 01000                  
00004480531590011DT67590675900000026047800124800000010180012473011003114900010300095042120230000000429011423000000000068510379701XXXXX4007                          NY 1 0 N004807533985309N840000000004290          05DNHPPYC LLC                823065    AM84000000004290 N  599978202445                            000000000+51010155434C 258     11261                     000000000                   0000000000000.00 0000000.00   0000000.00                             000000000000000 61248972086759675900000026047 HPPYC LLC                401 HAWTHORNE LN 110263  9802368861      28204     TORI@SMOKEMFG.COM                         01424  000000000000 0000000000000.79     01600 00000                  
00004490531590012DT67590675900000026047800124800000010180012424001193114900010300107042120230000000042911423000000000068510441707XXXXXX9785       VK04VS111111111   NYV1 A E463111765566490N840000000000429VDPZ00    07DNHPPYC                    484001    VD84000000000429 N  599978202445                            000000000+                F PF 08165                     000000000  N000000000       0000000000000.00 0000000.00   0000000.00                             000000000000000                                                                                                                                                     01424 F000000000000 0000000000000.12     01600 00500                  
00004500531590013DT67590675900000026047800124800000010180012424001193114900010300115042120230000000120011423000000000068510402047XXXXXX6750       VK04VS111111111   NYV1 A E303111790682740N840000000001200S3ZM00    07DNHPPYC                    810431    VD84000000001200 N  599978202445                            000000000+                F DF 00451                     000000000  N000000000 214   0000000000000.00 0000000.00   0000000.00                             000000000000000                                                                                                                                                     01424 F000000000000 0000000000000.23     01550 00400                  
00004510531590014DT67590675900000026047800124800000010180012477287283114900010300125042120230000000040011423000000000068510550442XXXXXX2293       ME01KE01MS01      NY 1 0 AMDJUTRMSV0421  N840000000000400          01DNHPPYC                    180607    MD84000000000400 N  599978202445                            000000000+M1010115434C    MDJ  00401                     000000000  N                0000000000000.00 0000000.00   0000000.00                             000000000000000                                                                                                                                                   E101424  000000000000 0000000000000.22     01650 01500                  
00004520531590015DT67590675900000026047800124800000010180012477287283114900010300133042120230000000345011423000000000068510514377XXXXXX6726       ME01KE01MS01      NY 1 0 AMDJUM1ZSW0421  N840000000003450          05DNHPPYC                    1MY30F    MD84000000003450 N  599978202445                            000000000+M10101C5434C    MDJ  00401                     000000000  N                0000000000000.00 0000000.00   0000000.00                             000000000000000                                                                                                                                                   B101424  000000000000 0000000000000.72     01650 01500                  
00004530531590016DT67590675900000026047800124800000010180012424001193114900010300149042120230000000308311423000000000068510473703XXXXXX1219       VS11    0001111   NYV1 A E383111862241936N840000000003083GBRS00    05DNHPPYC                    084330    VD84000000003083 N  599978202445                            000000000+                F DF 10433                     000000000  Y000000000 338   0000000000000.00 0000000.00   0000000.00                             000000000000000                                                                                                                                                     01424 A000000000000 0000000000000.24     00050 02200                  
00004540531590017DT67590675900000026047800124800000010180012424001193114900010300156042120230000000308211423000000000068510473703XXXXXX1219       VS11    0001111   NYV1 A E463112055012217N840000000003082HH9P00    05DNHPPYC                    068280    VD84000000003082 N  599978202445                            000000000+                F DF 10433                     000000000  Y000000000 338   0000000000000.00 0000000.00   0000000.00                             000000000000000                                                                                                                                                     01424 A000000000000 0000000000000.24     00050 02200                  
00004550531590018DT67590675900000026047800124800000010180012424001193114900010300164042120230000000670111423000000000068510427088XXXXXX4213       VS11    0001111   NYV1 A E463112069173572N84000000000670146RM00    05DNHPPYC                    015513    VD84000000006701 N  599978202445                            000000000+                F DF 10433                     000000000  Y000000000 338   0000000000000.00 0000000.00   0000000.00                             000000000000000                                                                                                                                                     01424 A000000000000 0000000000000.25     00050 02200                  
00004560531590019DT67590675900000026047800124800000010180012424001193114900010300172042120230000000200011423000000000068510427088XXXXXX4213       VS11    0001111   NYV1 A E303112069871993N8400000000020009ZL400    05DNHPPYC                    015623    VD84000000002000 N  599978202445                            000000000+                F DF 10433                     000000000  Y000000000 338   0000000000000.00 0000000.00   0000000.00                             000000000000000                                                                                                                                                     01424 A000000000000 0000000000000.23     00050 02200                  
00004570531590020DT67590675900000026047800124800000010180012424001193114900010300180042220230000000600011423000000000068510432739XXXXXX5689       VS11    0001111   NYV1 A E303112610156177N840000000006000ZPJN00    05DNHPPYC                    826137    VD84000000006000 N  599978202445                            000000000+                F DF 10433                     000000000  Y000000000 338   0000000000000.00 0000000.00   0000000.00                             000000000000000                                                                                                                                                     01424 A000000000000 0000000000000.25     00050 02200                  
00004580531590021DT67590675900000026047800124800000010180012424001193114900010300198042220230000000122111423000000000068510498503XXXXXX7382       VK04VS111111111   NYV1 A E583112665310018N840000000001221CHXT00    07DNHPPYC                    025047    VD84000000001221 N  599978202445                            000000000+                F DF 00451                     000000000  N000000000 214   0000000000000.00 0000000.00   0000000.00                             000000000000000                                                                                                                                                     01424 F000000000000 0000000000000.23     01550 00400                  
00004590531590022DT67590675900000026047800124800000010180012424001193114900010300206042220230000000536111423000000000068510473702XXXXXX0264       VS11    0001111   NYV1 A E463112668915618N840000000005361G26W00    05DNHPPYC                    031215    VD84000000005361 N  599978202445                            000000000+                F DF 10433                     000000000  Y000000000 338   0000000000000.00 0000000.00   0000000.00                             000000000000000                                                                                                                                                     01424 A000000000000 0000000000000.25     00050 02200                  
00004600531590023DT67590675900000026047800124800000010180012476509753114900010300212042220230000000115011423000000000068510601101XXXXXX3681   BA05                  NY41 0 N873096431812386N840000000001150    00    07DNHPPYC                    02253R    DS84000000001150 N  599978202445830                         000000000+0000004910H00   DCCDI01000831767  143940000000 000000000  0          112   0000000000000.00 0000000.00   0000000.00                             000000000000000                                                                                                                                                     01424  000000000000 0000000000000.30     01720 01000                  
00004610531590024DT67590675900000026047800124800000010180012424001193114900010300222042220230000000246711423000000000068510431503XXXXXX5985       VS11    0001111   NYV1 A E383112706503089N840000000002467N2B900    05DNHPPYC                    01934A    VS84000000002467 N  599978202445                            000000000+                A CA 12110                     000000000  N000000000 493   0000000000000.00 0000000.00   0000000.00                             000000000000000                                                                                                                                                     01424 A000000000000 0000000000000.47     01510 01000                  
00004620531590025DT67590675900000026047800124800000010180012424001193114900010300230042220230000000100011423000000000068510473703XXXXXX2642       VK04VS111111111   NYV1 A E583112714247685N840000000001000243N00    05DNHPPYC                    079997    VD84000000001000 N  599978202445                            000000000+                F DF 10439                     000000000  Y000000000 331   0000000000000.00 0000000.00   0000000.00                             000000000000000                                                                                                                                                     01424 F000000000000 0000000000000.23     00050 02200                  
00004630531590026DT67590675900000026047800124800000010180012473011003114900010300244042220230000000443811423000000000068510379774XXXXX1008                          NY 1 0 N004634106036322N840000000004438          05DNHPPYC LLC                822263    AM84000000004438 N  599978202445                            000000000+51010155434C 258     11261                     000000000                   0000000000000.00 0000000.00   0000000.00                             000000000000000 61248972086759675900000026047 HPPYC LLC                401 HAWTHORNE LN 110263  9802368861      28204     TORI@SMOKEMFG.COM                         01424  000000000000 0000000000000.81     01600 00000                  
00004640531590027DT67590675900000026047800124800000010180012424001193114900010300255042220230000000115011423000000000068510435643XXXXXX4153       VK04VS111111111   NYV1 A E463112753816932N840000000001150KSG900    05DNHPPYC                    165566    VD84000000001150 N  599978202445                            000000000+                F DF 10439                     000000000  Y000000000 331   0000000000000.00 0000000.00   0000000.00                             000000000000000                                                                                                                                                     01424 F000000000000 0000000000000.23     00050 02200                  
00004650531590028BH6759067590000002604780012480000090170424202311423000000000143563    0000090001060024N8001246759C04242023                                                                                                                                                                                                                                                                                                                                                                                                                                                                                                                                                                                                 
00004660531590029DT67590675900000026047800124800000010180012424001193114900010600019042320230000000686411423000000000143563420767XXXXXX2617       VS11    0001111   NYV1 A E463113584487006N84000000000686455MN00    05DNHPPYC                    666776    VD84000000006864 N  599978201978                            000000000+                F DF 10433                     000000000  Y000000000 338   0000000000000.00 0000000.00   0000000.00                             000000000000000                                                                                                                                                     01424 A000000000000 0000000000000.25     00050 02200                  
00004670531590030DT67590675900000026047800124800000010180012477287283114900010600029042320230000000642611423000000000143563515676XXXXXX2899       MS02WI09          NY 1 0 AMWEPRK76K0423  N840000000006426          05DNHPPYC                    03528Z    MC84000000006426 N  599978201978                            000000000+M10101C5434C    MWE  00739                     000000000  N                0000000000000.00 0000000.00   0000000.00                             000000000000000                                                                                                                                                   B101424  000000000000 0000000000001.58     02300 01000                  
00004680531590031DT67590675900000026047800124800000010180012477287283114900010600037042320230000000734911423000000000143563515676XXXXXX6580       MS02WI09          NY 1 0 AMWELY0UT10423  N840000000007349          05DNHPPYC                    08957Z    MC84000000007349 N  599978201978                            000000000+M10101C5434C    MWE  00739                     000000000  N                0000000000000.00 0000000.00   0000000.00                             000000000000000                                                                                                                                                   B101424  000000000000 0000000000001.79     02300 01000                  
00004690531590032DT67590675900000026047800124800000010180012473011003114900010600049042320230000000048311423000000000143563379304XXXXX2005                          NY 1 0 N004646467936320N840000000000483          05DNHPPYC LLC                842356    AM84000000000483 N  599978201978                            000000000+51010155434C 258     11261                     000000000                   0000000000000.00 0000000.00   0000000.00                             000000000000000 61248972086759675900000026047 HPPYC LLC                401 HAWTHORNE LN 110263  9802368861      28204     TORI@SMOKEMFG.COM                         01424  000000000000 0000000000000.18     01600 00000                  
00004700531590033DT67590675900000026047800124800000010180012424001193114900010600050042320230000000084011423000000000143563400022XXXXXX3256       VK04VS111111111   NYV1 A E303113626230342N840000000000840BWM200    05DNHPPYC                    815860    VD84000000000840 N  599978201978                            000000000+                F DF 10439                     000000000  Y000000000 331   0000000000000.00 0000000.00   0000000.00                             000000000000000                                                                                                                                                     01424 F000000000000 0000000000000.22     00050 02200                  
00004710531590034DT67590675900000026047800124800000010180012424001193114900010600068042320230000000343111423000000000143563464808XXXXXX8214       VS11    0001111   NYV1 A E463113669177835N840000000003431SWGG00    05DNHPPYC                    620972    VD84000000003431 N  599978201978                            000000000+                F DF 00381                     000000000  N000000000       0000000000000.00 0000000.00   0000000.00                             000000000000000                                                                                                                                                     01424 A000000000000 0000000000000.42     00800 01500                  
00004720531590035DT67590675900000026047800124800000010180012477287283114900010600078042320230000000773511423000000000143563545212XXXXXX5138       MS02WI09          NY 1 0 AMWEWY126L0423  N840000000007735          05DNHPPYC                    09353Z    MC84000000007735 N  599978201978                            000000000+M10101C5434C    MWE  00739                     000000000  N                0000000000000.00 0000000.00   0000000.00                             000000000000000                                                                                                                                                   B101424  000000000000 0000000000001.88     02300 01000                  
00004730531590036DT67590675900000026047800124800000010180012424001193114900010600084042320230000000831711423000000000143563411774XXXXXX1735       VS11    0001111   NYV1 A E303113688376592N840000000008317J3S600    07DNHPPYC                    180979    VD84000000008317 N  599978201978                            000000000+                F DF 10433                     000000000  Y000000000 338   0000000000000.00 0000000.00   0000000.00                             000000000000000                                                                                                                                                     01424 A000000000000 0000000000000.26     00050 02200                  
00004740531590037DT67590675900000026047800124800000010180012424001193114900010600092042320230000000640211423000000000143563466188XXXXXX5991       VS11    0001111   NYV1 A E303113698991634N840000000006402K22X00    07DNHPPYC                    048342    VD84000000006402 N  599978201978                            000000000+                F DF 10433                     000000000  Y000000000 338   0000000000000.00 0000000.00   0000000.00                             000000000000000                                                                                                                                                     01424 A000000000000 0000000000000.25     00050 02200                  
00004750531590038DT67590675900000026047800124800000010180012424001193114900010600100042320230000000449011423000000000143563473703XXXXXX6736       VS11    0001111   NYV1 A E383113724207924N840000000004490WMZD00    05DNHPPYC                    001575    VD84000000004490 N  599978201978                            000000000+                F DF 10433                     000000000  Y000000000 338   0000000000000.00 0000000.00   0000000.00                             000000000000000                                                                                                                                                     01424 A000000000000 0000000000000.24     00050 02200                  
00004760531590039DT67590675900000026047800124800000010180012424001193114900010600118042320230000000168011423000000000143563408138XXXXXX3927       VS11    0001111   NYV1 A E463113738110730N840000000001680526300    07DNHPPYC                    049061    VD84000000001680 N  599978201978                            000000000+                F PF 08170                     000000000  N000000000       0000000000000.00 0000000.00   0000000.00                             000000000000000                                                                                                                                                     01424 A000000000000 0000000000000.34     01150 01500                  
00004770531590040DT67590675900000026047800124800000010180012424001193114900010600126042320230000001000811423000000000143563446540XXXXXX4674       VS11    0001111   NYV1 A E583113748696699N840000000010008XMRM00    05DNHPPYC                    023367    VS84000000010008 N  599978201978                            000000000+                D CD 12113                     000000000  N000000000 499   0000000000000.00 0000000.00   0000000.00                             000000000000000                                                                                                                                                     01424 A000000000000 0000000000002.20     02100 01000                  
00004780531590041DT67590675900000026047800124800000010180012424001193114900010600134042320230000000922911423000000000143563446540XXXXXX0241       VS11    0001111   NYV1 A E383113750545900N84000000000922993GW00    05DNHPPYC                    023898    VS84000000009229 N  599978201978                            000000000+                D CD 12113                     000000000  N000000000 499   0000000000000.00 0000000.00   0000000.00                             000000000000000                                                                                                                                                     01424 A000000000000 0000000000002.04     02100 01000                  
00004790531590042DT67590675900000026047800124800000010180012477287283114900010600144042320230000001774311423000000000143563552433XXXXXX9377       MS02WI09          NY 1 0 AMCWWMHB0V0423  N840000000017743          05DNHPPYC                    00143S    MC84000000017743 N  599978201978                            000000000+M10101C5434C    MCW  02184                     000000000  N                0000000000000.00 0000000.00   0000000.00                             000000000000000                                                                                                                                                   B101424  000000000000 0000000000004.18     02300 01000                  
00004800531590043DT67590675900000026047800124800000010180012424001193114900010600159042320230000000213611423000000000143563424067XXXXXX7127       VS11    0001111   NYV1 A E383113756190921N840000000002136N6D400    05DNHPPYC                    771031    VD84000000002136 N  599978201978                            000000000+                F DF 00381                     000000000  N000000000       0000000000000.00 0000000.00   0000000.00                             000000000000000                                                                                                                                                     01424 A000000000000 0000000000000.32     00800 01500                  
00004810531590044DT67590675900000026047800124800000010180012477287283114900010600169042320230000000470911423000000000143563552433XXXXXX4673       MS02WI09          NY 1 0 AMCWXMBH0V0423  N840000000004709          05DNHPPYC                    01835S    MC84000000004709 N  599978201978                            000000000+M10101C5434C    MCW  02184                     000000000  N                0000000000000.00 0000000.00   0000000.00                             000000000000000                                                                                                                                                   B101424  000000000000 0000000000001.18     02300 01000                  
00004820531590045DT67590675900000026047800124800000010180012477287283114900010600177042320230000001075911423000000000143563552486XXXXXX6658       MS02WI09          NY 1 0 AMWEDSTV0T0423  N840000000010759          05DNHPPYC                    02277Z    MC84000000010759 N  599978201978                            000000000+M10101C5434C    MWE  00739                     000000000  N                0000000000000.00 0000000.00   0000000.00                             000000000000000                                                                                                                                                   B101424  000000000000 0000000000002.57     02300 01000                  
00004830531590046DT67590675900000026047800124800000010180012424001193114900010600183042320230000000102711423000000000143563432739XXXXXX3840       VK04VS111111111   NYV1 A E463113803470705N840000000001027RMQP00    05DNHPPYC                    455371    VD84000000001027 N  599978201978                            000000000+                F DF 10439                     000000000  Y000000000 331   0000000000000.00 0000000.00   0000000.00                             000000000000000                                                                                                                                                     01424 F000000000000 0000000000000.23     00050 02200                  
00004840531590047DT67590675900000026047800124800000010180012424001193114900010600191042320230000000420211423000000000143563466188XXXXXX2248       VS11    0001111   NYV1 A E583113824113673N840000000004202S5K500    05DNHPPYC                    042450    VD84000000004202 N  599978201978                            000000000+                F DF 10433                     000000000  Y000000000 338   0000000000000.00 0000000.00   0000000.00                             000000000000000                                                                                                                                                     01424 A000000000000 0000000000000.24     00050 02200                  
00004850531590048DT67590675900000026047800124800000010180012424001193114900010600209042320230000001307111423000000000143563473703XXXXXX8061       VS11    0001111   NYV1 A E583113826027698N8400000000130716V4X00    05DNHPPYC                    047009    VD84000000013071 N  599978201978                            000000000+                F DF 10433                     000000000  Y000000000 338   0000000000000.00 0000000.00   0000000.00                             000000000000000                                                                                                                                                     01424 A000000000000 0000000000000.29     00050 02200                  
00004860531590049DT67590675900000026047800124800000010180012424001193114900010600217042320230000000107211423000000000143563474473XXXXXX1789       VK04VS111111111   NYV1 A E383113837517382N8400000000010725THH00    05DNHPPYC                    171157    VD84000000001072 N  599978201978                            000000000+                F DF 10439                     000000000  Y000000000 331   0000000000000.00 0000000.00   0000000.00                             000000000000000                                                                                                                                                     01424 F000000000000 0000000000000.23     00050 02200                  
00004870531590050DT67590675900000026047800124800000010180012424001193114900010600225042320230000000452111423000000000143563414720XXXXXX4100       VS11    0001111   NYV1 A E383113838488130N840000000004521W2HZ00    05DNHPPYC                    01872C    VS84000000004521 N  599978201978                            000000000+                C CC 12112                     000000000  N000000000 497   0000000000000.00 0000000.00   0000000.00                             000000000000000                                                                                                                                                     01424 A000000000000 0000000000000.85     01650 01000                  
00004880531590051DT67590675900000026047800124800000010180012424001193114900010600233042320230000000624411423000000000143563436698XXXXXX5944       VS11    0001111   NYV1 A E583113862307403N840000000006244H93K00    05DNHPPYC                    095710    VD84000000006244 N  599978201978                            000000000+                F DF 00381                     000000000  N000000000       0000000000000.00 0000000.00   0000000.00                             000000000000000                                                                                                                                                     01424 A000000000000 0000000000000.65     00800 01500                  
00004890531590052DT67590675900000026047800124800000010180012424001193114900010600241042320230000000482511423000000000143563402282XXXXXX1388       VS11    0001111   NYV1 A E303114028459187N840000000004825R6MC00    05DNHPPYC                    004725    VD84000000004825 N  599978201978                            000000000+                F DF 00381                     000000000  N000000000       0000000000000.00 0000000.00   0000000.00                             000000000000000                                                                                                                                                     01424 A000000000000 0000000000000.54     00800 01500                  
00004900531590053BH6759067590000001857280010580000090170424202311423000000000026771    0000090001470006N8001056759C04242023                                                                                                                                                                                                                                                                                                                                                                                                                                                                                                                                                                                                 
00004910531590054DT67590675900000018572800105800000010180010577287283114900014700015042320230000000770311423000000000026771512230XXXXXX6347       MS02WI09          NY 1 0 AMWEKTK9T10423  N840000000007703          05DNGALLERY SMOKE SHOP LLC   28925W    MC84000000007703 N  599977453598                            000000000+M10101C0034C    MWE  00644                     000000000  N                0000000000000.00 0000000.00   0000000.00                             000000000000000                                                                                                                                                   B101424  000000000000 0000000000001.56     01900 01000                  
00004920531590055DT67590675900000018572800105800000010180010524001193114900014700047042320230000000181811423000000000026771443512XXXXXX8725       VS11    0001111   NYV1 A E583113753872716N840000000001818VCMF00    05DNGALLERY SMOKE SHOP LLC   750989    VD84000000001818 N  599977453598                            000000000+                F DF 00381                     000000000  N000000000       0000000000000.00 0000000.00   0000000.00                             000000000000000                                                                                                                                                     01424 A000000000000 0000000000000.30     00800 01500                  
00004930531590056DT67590675900000018572800105800000010180010524001193114900014700070042320230000000162311423000000000026771430455XXXXXX9818       VS11    0001111   NYV1 A E303113849378778N8400000000016233X9X00    07DNGALLERY SMOKE SHOP LLC   06142D    VS84000000001623 N  599977453598                            000000000+                D CD 12113                     000000000  N000000000 499   0000000000000.00 0000000.00   0000000.00                             000000000000000                                                                                                                                                     01424 A000000000000 0000000000000.44     02100 01000                  
00004940531590057DT67590675900000018572800105800000033080010576759003114900014700026042320230000000256811423000000000026771443041XXXXXX7318                         NY 2 0 N               N840000000002568      IL  05DNGALLERY SMOKE SHOP LLC   808660    DB84000000002568 N  599977453598                            000000000+                     09580                                Y          342   0000000000000.00 0000000.00   0000000.00                             000000000000000                                                                                                                                                     01424  000000000000 0000000000000.23     00050 00000                  
00004950531590058DT67590675900000018572800105800000033080010576759003114900014700034042320230000001123411423000000000026771435546XXXXXX2089                         NY 2 0 N               N840000000011234      IL  05DNGALLERY SMOKE SHOP LLC   046103    DB84000000011234 N  599977453598                            000000000+                     09580                                Y          342   0000000000000.00 0000000.00   0000000.00                             000000000000000                                                                                                                                                     01424  000000000000 0000000000000.28     00050 00000                  
00004960531590059DT67590675900000018572800105800000033080010576759003114900014700059042320230000000028011423000000000026771443041XXXXXX7318                         NY 2 0 N               N840000000000280      IL  05DNGALLERY SMOKE SHOP LLC   889933    DB84000000000280 N  599977453598                            000000000+                     09580                                Y          342   0000000000000.00 0000000.00   0000000.00                             000000000000000                                                                                                                                                     01424  000000000000 0000000000000.22     00050 00000                  
00004970531590060DT67590675900000018572800105800000033080010576759003114900014700067042320230000000154511423000000000026771483312XXXXXX2689                         NY 2 0 N               N840000000001545      IL  05DNGALLERY SMOKE SHOP LLC   093519    DB84000000001545 N  599977453598                            000000000+                     09580                                Y          342   0000000000000.00 0000000.00   0000000.00                             000000000000000                                                                                                                                                     01424  000000000000 0000000000000.23     00050 00000                  
00004980531590061BH6759067590000001165080088880000090170424202311423000000000061671    0000090001720012N8008886759C04242023                                                                                                                                                                                                                                                                                                                                                                                                                                                                                                                                                                                                 
00004990531590062DT67590675900000011650800888800000010180088877287283114900017200013042220230000000226411423000000000061671515676XXXXXX5685       MS02WI09          NY 1 0 AMWEUWD7I50422  N840000000002264          05DNVPODS HOLDING INC        09171Z    MC84000000002264 N  599977032122                            000000000+M10101C5434C    MWE  00739                     000000000  N                0000000000000.00 0000000.00   0000000.00                             000000000000000                                                                                                                                                   B101424  000000000000 0000000000000.62     02300 01000                  
00005000531590063DT67590675900000011650800888800000010180088876509753114900017200027042320230000000902311423000000000061671601190XXXXXX0542   BA50                  NY41 0 N803097266999876N840000000009023    00    05DNVPODS HOLDING INC        001242    DD84000000009023 N  599977032122050                         000000000+0000004910H00   DPKDI10157001681  125139000000 000000000  0          350   0000000000000.00 0000000.00   0000000.00                             000000000000000                                                                                                                                                     01424  000000000000 0000000000001.17     01120 01600                  
00005010531590064DT67590675900000011650800888800000010180088824001193114900017200037042320230000000566011423000000000061671478357XXXXXX2148       VS11    0001111   NYV1 A E303113644074811N840000000005660SXQX00    07DNVPODS HOLDING INC        081979    VS84000000005660 N  599977032122                            000000000+                A CA 12110                     000000000  N000000000 493   0000000000000.00 0000000.00   0000000.00                             000000000000000                                                                                                                                                     01424 A000000000000 0000000000000.95     01510 01000                  
00005020531590065DT67590675900000011650800888800000010180088873011003114900017200041042320230000001358611423000000000061671371243XXXXX5017                          NY 1 0 N004838455141308N840000000013586          05DNVPODS HOLDINGS INC       806766    AM84000000013586 N  599977032122                            000000000+51010155434C 258     11262                     000000000                   0000000000000.00 0000000.00   0000000.00                             000000000000000 61248972086759675900000011650 VPODS HOLDINGS INC       2527 N LINCOLN AVE       7732092463      60614     SMOKEDREAMS2@ICLOUD.COM                   01424  000000000000 0000000000002.75     01950 00000                  
00005030531590066DT67590675900000011650800888800000010180088873011003114900017200058042320230000000169811423000000000061671373919XXXXX3009                          NY 1 0 N004841381183303N840000000001698          05DNVPODS HOLDINGS INC       808327    AM84000000001698 N  599977032122                            000000000+51010155434C 258     11261                     000000000                   0000000000000.00 0000000.00   0000000.00                             000000000000000 61248972086759675900000011650 VPODS HOLDINGS INC       2527 N LINCOLN AVE       7732092463      60614     SMOKEDREAMS2@ICLOUD.COM                   01424  000000000000 0000000000000.37     01600 00000                  
00005040531590067DT67590675900000011650800888800000010180088877287283114900017200062042320230000000283011423000000000061671521730XXXXXX0231       MS02WI09          NY 2 0 AMDJZJMM0V0423  N840000000002830          05DNVPODS HOLDING INC        081719    MD84000000002830 N  599977032122                            000000000+M10101C1334C    MDJ  10815                     000000000  1                0000000000000.00 0000000.00   0000000.00                             000000000000000                                                                                                                                                   B101424  000000000000 0000000000000.23     00050 02200                  
00005050531590068DT67590675900000011650800888800000010180088824001193114900017200078042320230000000452911423000000000061671414720XXXXXX7862       VS11    0001111   NYV1 A E583113852373426N840000000004529S6J500    07DNVPODS HOLDING INC        01140C    VS84000000004529 N  599977032122                            000000000+                C CC 12112                     000000000  N000000000 497   0000000000000.00 0000000.00   0000000.00                             000000000000000                                                                                                                                                     01424 A000000000000 0000000000000.85     01650 01000                  
00005060531590069DT67590675900000011650800888800000010180088877287283114900017200088042320230000000690611423000000000061671552433XXXXXX1251       MS02WI09          NY 1 0 AMPLEL8JB80423  N840000000006906          07DNVPODS HOLDING INC        00580M    MC84000000006906 N  599977032122                            000000000+M10101M5434C    MPL  00353                     000000000  N                0000000000000.00 0000000.00   0000000.00                             000000000000000                                                                                                                                                   B101424  000000000000 0000000000001.34     01800 01000                  
00005070531590070DT67590675900000011650800888800000010180088824001193114900017200094042320230000000926811423000000000061671465026XXXXXX1538       VS11    0001111   NYV1 A E383114041491189N840000000009268BD8R00    07DNVPODS HOLDING INC        001645    VD84000000009268 N  599977032122                            000000000+                F DF 10433                     000000000  Y000000000 338   0000000000000.00 0000000.00   0000000.00                             000000000000000                                                                                                                                                     01424 A000000000000 0000000000000.27     00050 02200                  
00005080531590071DT67590675900000011650800888800000010180088877287283114900017200104042320230000000039811423000000000061671527297XXXXXX8304       MS02WI09          NY 1 0 AMDJF1BAB80423  N840000000000398          07DNVPODS HOLDING INC        005537    MD84000000000398 N  599977032122                            000000000+M10101M0034C    MDJ  10815                     000000000  1                0000000000000.00 0000000.00   0000000.00                             000000000000000                                                                                                                                                   A101424  000000000000 0000000000000.22     00050 02200                  
00005090531590072DT67590675900000011650800888800000010180088824001193114900017200110042320230000000296711423000000000061671476892XXXXXX5997       VS11    0001111   NYV1 A E583114072810639N840000000002967CHV300    07DNVPODS HOLDING INC        010122    VD84000000002967 N  599977032122                            000000000+                F DF 10433                     000000000  Y000000000 338   0000000000000.00 0000000.00   0000000.00                             000000000000000                                                                                                                                                     01424 A000000000000 0000000000000.23     00050 02200                  
00005100531590073DT67590675900000011650800888800000010180088876509753114900017200126042320230000000254211423000000000061671601100XXXXXX3589   BA50                  NY41 0 N873097563791087N840000000002542    00    05DNVPODS HOLDING INC        02341R    DS84000000002542 N  599977032122050                         000000000+0000004910H00   DCCDI01000831930  210619000000 000000000  0          112   0000000000000.00 0000000.00   0000000.00                             000000000000000                                                                                                                                                     01424  000000000000 0000000000000.54     01720 01000                  
