00019160522500002BH675906759000000198288001098000009017062220231732300000000007749601970000090001880490N8001096759D06232023088                                                                                                                                                                                                                                                                                                                                                                                                                                                                                                                                                                                              
00019170522500003DT67590675900000019828800109800000010180010987287283173900018804745062120230000001987017323000000000077496552433XXXXXX7597       ME03KE06MS02      NN 4607AMPL2HDV700621  N840000000019870          81DNKETOFUSION 8885968154    07859M0197MC84000000019870 NDR599977547467   F88A8F37ECTCCE0A2F2A658  000000000+600450S00130    MPL  00000                     000000000  N                0000000000000.00 0000000.00   0000000.00             000000000019870D000000000000000                                                                                                                                                   U001424  000000000000 0000000000000.00     00000 00000                  
00019180522500003DR675906759000000198288001098000000101F88A8F37ECTCCE0A2F2A658  Y000000000000                                                                                                                                                                                                                                                                                                                                                                                                                                                                                                                                                                                                                               
00019190522500001G2675906759000000198288001098000000101888-5968154              UT           9 L               210                                      NNNN           210000000000000000000000000                        7                                          77547467                                                                                                                                                                                                                                                                                                                                                                                                                                               
00019200522500004DT67590675900000019828800109800000010180010924001193173900018804751062120230000000198817323000000000077496436618XXXXXX8544               2111111   NNV4 A7W463173179885250N8400000000019889KNL00    01DNKETOFUSION 8885968154    0299320197VD84000000001988 NDR599977547467   B7B2049A05T2750D1F17BA2  000000000+                F DF 00000                     000000000  Y000000000 338   0000000000000.00 0000000.00   0000000.00             000000000001988D000000000000000                                                                                                                                                     01424 G000000001988 0000000000000.00     00000 00000                  
00019210522500004DR675906759000000198288001098000000101B7B2049A05T2750D1F17BA2  Y000000001988                 P1                                                                                                                                                                                                                                                                                                                                                                                                                                                                                                                                                                                                            
00019220522500001P16759067590000001982880010980000001010000000000000000                             2000000000000000000000000              000000000000                    0000000000000000000000000                    000000000000                                                                                                                                                                                                                                                                                                                                                                                                                                                                                        
00019230522500002G2675906759000000198288001098000000101888-5968154              UT           9 D                00                                      NNNN   N                      000000000000                                                                   77547467                                                                                                                                                                                                                                                                                                                                                                                                                                               
00019240522500005DT67590675900000019828800109800000010680010987287283173900018804778062220230000002487017323000000000077496542418XXXXXX1195                         NN 4607AMPLAQ18O40622  N840000000024870          81CNKETOFUSION 8885968154    5604800197MC84000000024870 NDR599977547467   CA24928741TF9AF7583580E  000000000+600450S00130    MPL  00000                     000000000  N                0000000000000.00 0000000.00   0000000.00             000000000024870C000000000000000                                                                                                                                                     01424  000000000000 0000000000000.00     00000 00000                  
00019250522500005DR675906759000000198288001098000000106CA24928741TF9AF7583580E  U000000000000                                                                                                                                                                                                                                                                                                                                                                                                                                                                                                                                                                                                                               
00019260522500001G2675906759000000198288001098000000106888-5968154              UT           9 L               210                                      NNNN           210000000000000000000000000                        7                                          77547467                                                                                                                                                                                                                                                                                                                                                                                                                                               
00019270522500006DT67590675900000019828800109800000010680010987287283173900018804786062220230000000327417323000000000077496518941XXXXXX4141                         NN 4607AMWEYMXFO20622  N840000000003274          81CNKETOFUSION 8885968154    9483610197MC84000000003274 NDR599977547467   8CE82EC6B6TA446AE2ED1C5  000000000+600450S00130    MWE  00000                     000000000  N                0000000000000.00 0000000.00   0000000.00             000000000003274C000000000000000                                                                                                                                                     01424  000000000000 0000000000000.00     00000 00000                  
00019280522500006DR6759067590000001982880010980000001068CE82EC6B6TA446AE2ED1C5  U000000000000                                                                                                                                                                                                                                                                                                                                                                                                                                                                                                                                                                                                                               
00019290522500001G2675906759000000198288001098000000106888-5968154              UT           9 E               210                                      NNNN           210000000000000000000000000                        7                                          77547467                                                                                                                                                                                                                                                                                                                                                                                                                                               
00019300522500007DT67590675900000019828800109800000010680010987287283173900018804794062220230000002255017323000000000077496514736XXXXXX5679                         NN 4607AMCWAX83O40622  N840000000022550          81CNKETOFUSION 8885968154    0832970197MC84000000022550 NDR599977547467   9BCD16F768T632B31FC3462  000000000+600450S00130    MCW  00000                     000000000  N                0000000000000.00 0000000.00   0000000.00             000000000022550C000000000000000                                                                                                                                                     01424  000000000000 0000000000000.00     00000 00000                  
00019310522500007DR6759067590000001982880010980000001069BCD16F768T632B31FC3462  N000000000000                                                                                                                                                                                                                                                                                                                                                                                                                                                                                                                                                                                                                               
00019320522500001G2675906759000000198288001098000000106888-5968154              UT           9 W               210                                      NNNN           210000000000000000000000000                        7                                          77547467                                                                                                                                                                                                                                                                                                                                                                                                                                               
00019330522500008DT67590675900000019828800109800000010680010987287283173900018804802062220230000002487017323000000000077496527516XXXXXX6457                         NN 4607AMDJTZ9OO30622  N840000000024870          81CNKETOFUSION 8885968154    2409750197MD84000000024870 NDR599977547467   897D6FEE07TADE84F1AB911  000000000+600450S00130    MDJ  00000                     000000000  1                0000000000000.00 0000000.00   0000000.00             000000000024870C000000000000000                                                                                                                                                     01424  000000000000 0000000000000.00     00000 00000                  
00019340522500008DR675906759000000198288001098000000106897D6FEE07TADE84F1AB911  Y000000000000                                                                                                                                                                                                                                                                                                                                                                                                                                                                                                                                                                                                                               
00019350522500001G2675906759000000198288001098000000106888-5968154              UT           9 J               210                                      NNNN           210000000000000000000000000                        7                                          77547467                                                                                                                                                                                                                                                                                                                                                                                                                                               
00019360522500009DT67590675900000019828800109800000010680010987287283173900018804810062220230000000198817323000000000077496542418XXXXXX1540                         NN 4607AMPLA174O40622  N840000000001988          81CNKETOFUSION 8885968154    7242820197MC84000000001988 NDR599977547467   8968FC6E9ETC580FAAD312F  000000000+600450S00130    MPL  00000                     000000000  N                0000000000000.00 0000000.00   0000000.00             000000000001988C000000000000000                                                                                                                                                     01424  000000000000 0000000000000.00     00000 00000                  
00019370522500009DR6759067590000001982880010980000001068968FC6E9ETC580FAAD312F  U000000000000                                                                                                                                                                                                                                                                                                                                                                                                                                                                                                                                                                                                                               
00019380522500001G2675906759000000198288001098000000106888-5968154              UT           9 L               210                                      NNNN           210000000000000000000000000                        7                                          77547467                                                                                                                                                                                                                                                                                                                                                                                                                                               
00019390522500010DT67590675900000019828800109800000010180010987287283173900018804828062220230000001499117323000000000077496554514XXXXXX4117       ME03KE06MS02      NN 4607AMPLGGEWO30622  N840000000014991          81DNKETOFUSION 8885968154    02432B0197MC84000000014991 NDR599977547467   7B937A408CT6DAAF354B18E  000000000+600450S00130    MPL  00000                     000000000  N                0000000000000.00 0000000.00   0000000.00             000000000014991D000000000000000                                                                                                                                                   U001424  000000000000 0000000000000.00     00000 00000                  
00019400522500010DR6759067590000001982880010980000001017B937A408CT6DAAF354B18E  Y000000000000                                                                                                                                                                                                                                                                                                                                                                                                                                                                                                                                                                                                                               
00019410522500001G2675906759000000198288001098000000101888-5968154              UT           9 L               210                                      NNNN           210000000000000000000000000                        7                                          77547467                                                                                                                                                                                                                                                                                                                                                                                                                                               
00019420522500011DT67590675900000019828800109800000010680010987287283173900018804836062220230000000993517323000000000077496552433XXXXXX7597                         NN 4607AMCWV277O30622  N840000000009935          81CNKETOFUSION 8885968154    0012160197MC84000000009935 NDR599977547467   F88A8F37ECTCCE0A2F2A658  000000000+600450S00130    MCW  00000                     000000000  N                0000000000000.00 0000000.00   0000000.00             000000000009935C000000000000000                                                                                                                                                     01424  000000000000 0000000000000.00     00000 00000                  
00019430522500011DR675906759000000198288001098000000106F88A8F37ECTCCE0A2F2A658  Y000000000000                                                                                                                                                                                                                                                                                                                                                                                                                                                                                                                                                                                                                               
00019440522500001G2675906759000000198288001098000000106888-5968154              UT           9 W               210                                      NNNN           210000000000000000000000000                        7                                          77547467                                                                                                                                                                                                                                                                                                                                                                                                                                               
00019450522500012DT67590675900000019828800109800000010680010987287283173900018804851062220230000002487017323000000000077496517546XXXXXX7094                         NN 4607AMDJH2OWDO0622  N840000000024870          81CNKETOFUSION 8885968154    0224940197MD84000000024870 NDR599977547467   B6A525773BT09F1351F915A  000000000+600450S00130    MDJ  00000                     000000000  1                0000000000000.00 0000000.00   0000000.00             000000000024870C000000000000000                                                                                                                                                     01424  000000000000 0000000000000.00     00000 00000                  
00019460522500012DR675906759000000198288001098000000106B6A525773BT09F1351F915A  R000000000000                                                                                                                                                                                                                                                                                                                                                                                                                                                                                                                                                                                                                               
00019470522500001G2675906759000000198288001098000000106888-5968154              UT           9 J               210                                      NNNN           210000000000000000000000000                        7                                          77547467                                                                                                                                                                                                                                                                                                                                                                                                                                               
00019480522500013DT67590675900000019828800109800000010680010987287283173900018804901062220230000000198817323000000000077496515384XXXXXX7202                         NN94607N         0622  N840000000000000          81CNKETOFUSION 8885968154          0197MD84000000001988 NP1599977547467   75CB275D7ET58A4EF9863D7  000000000+600450S00130    MDB  00000                     000000000  N                0000000000000.00 0000000.00   0000000.00             000000000001988C000000000000000                                                                                                                                                     01424  000000000000 0000000000000.00     00000 00000                  
00019490522500001P1675906759000000198288001098000000106                                                          000000000000          8000            884295529                                                                                                                                                                                                                                                                                                                                                                                                                                                                                                                                                            
00019500522500002G2675906759000000198288001098000000106888-5968154              UT           9 B               210                  884295529           YNNN           210000000000000000000000000                                                                   77547467                                                                                                                                                                                                                                                                                                                                                                                                                                               
00019510522500014BH6759067590000002092580011280000090170622202317323000000000021122    0000090001420100Y8001126759C06232023042                                                                                                                                                                                                                                                                                                                                                                                                                                                                                                                                                                                              
00019520522500015DT67590675900000020925800112800000010180011287287283173900014201003062220230000002112217323000000000021122527519XXXXXX6014       ME03KE06MS02      NY 4607AMDJJSF7IB0622  N840000000021122          81DNJ K DISTRIBUTION INC     131179    MD84000000021122 N  549977712156   8464920975               000000000+600450S00130    MDJ  10813                     000000000  1                0000000000000.00 0000000.00   0000000.00                             000000000000000                                                                                                                                                   U001424  000000000000 0000000000000.33     00050 02200                  
00019530522500001G2675906759000000209258001128000000101860-8957639              CT           9 J               210                                      NNNN           210000000000000000000000000                        7                                          77712156                                                                                                                                                                                                                                                                                                                                                                                                                                               
00019540522500016BH6759067590000001619680010280000090170622202317323000000000630277    0000090001735123Y8001026759C06232023073                                                                                                                                                                                                                                                                                                                                                                                                                                                                                                                                                                                              
00019550522500017DT67590675900000016196800102800000010180010224001193173900017345673062120230000001296917323000000000630277440066XXXXXX0122               2111111   NYV4 A7W383169256625602N84000000001296955WZ00    01DNGREEN OTTER LLC          03656D    VS84000000012969 NDR549977424386   FF633FCD31TB697393AA0B3  000000000+                D CD 12109                     000000000  N000000000 498   0000000000000.00 0000000.00   0000000.00                             000000000000000                                                                                                                                                     01424 G000000012969 0000000000003.34     02500 01000                  
00019560522500017DR675906759000000161968001028000000101FF633FCD31TB697393AA0B3  Y000000012969                 P1                                                                                                                                                                                                                                                                                                                                                                                                                                                                                                                                                                                                            
00019570522500001P16759067590000001619680010280000001010000000000000000                             2000000000000000000000000              000000000000                    0000000000000000000000000                    000000000000                                                                                                                                                                                                                                                                                                                                                                                                                                                                                        
00019580522500002G2675906759000000161968001028000000101866-6317293              GA           9 C                00                                      NNNN   Y                      000000000000                                                                   77424386                                                                                                                                                                                                                                                                                                                                                                                                                                               
00019590522500018DT67590675900000016196800102800000010180010287287283173900017345799062120230000000648317323000000000630277511271XXXXXX0387       ME03KE06MS02      NY 4607AMDJFYOFCG0618  N840000000006483          81DNGREEN OTTER LLC          07E1D5    MD84000000006483 NDR549977424386   ED01B60948T62D4FA916700  000000000+600450S00130    MDJ  10813                     000000000  1                0000000000000.00 0000000.00   0000000.00                             000000000000000                                                                                                                                                   U001424  000000000000 0000000000000.25     00050 02200                  
00019600522500018DR675906759000000161968001028000000101ED01B60948T62D4FA916700  Y000000000000                                                                                                                                                                                                                                                                                                                                                                                                                                                                                                                                                                                                                               
00019610522500001G2675906759000000161968001028000000101866-6317293              GA           9 J               210                                      NNNN           210000000000000000000000000                                                                   77424386                                                                                                                                                                                                                                                                                                                                                                                                                                               
00019620522500019DT67590675900000016196800102800000010180010224001193173900017346093062120230000002126117323000000000630277483312XXXXXX6593               2111111   NYV4 A7W303169708052376N840000000021261PNLT00    01DNGREEN OTTER LLC          064015    VD84000000021261 NDR549977424386   0CEFD8BADDT30C72A8C9036  000000000+                F DF 10420                     000000000  Y000000000 338   0000000000000.00 0000000.00   0000000.00                             000000000000000                                                                                                                                                     01424 G000000021261 0000000000000.33     00050 02200                  
00019630522500019DR6759067590000001619680010280000001010CEFD8BADDT30C72A8C9036  Y000000021261                 P1                                                                                                                                                                                                                                                                                                                                                                                                                                                                                                                                                                                                            
00019640522500001P16759067590000001619680010280000001010000000000000000                             2000000000000000000000000              000000000000                    0000000000000000000000000                    000000000000                                                                                                                                                                                                                                                                                                                                                                                                                                                                                        
00019650522500002G2675906759000000161968001028000000101866-6317293              GA           9 D                00                                      NNNN   N                      000000000000                                                                   77424386                                                                                                                                                                                                                                                                                                                                                                                                                                               
00019660522500020DT67590675900000016196800102800000010180010287287283173900017346243062120230000001498917323000000000630277517542XXXXXX3329       ME03KE06MS02      NY 4607AMDJZXUMTI0618  N840000000014989          81DNGREEN OTTER LLC          845233    MD84000000014989 NDR549977424386   CF78D7F116T2BD0130E637B  000000000+600450S00130    MDJ  00401                     000000000  N                0000000000000.00 0000000.00   0000000.00                             000000000000000                                                                                                                                                   U001424  000000000000 0000000000002.62     01650 01500                  
00019670522500020DR675906759000000161968001028000000101CF78D7F116T2BD0130E637B  Y000000000000                                                                                                                                                                                                                                                                                                                                                                                                                                                                                                                                                                                                                               
00019680522500001G2675906759000000161968001028000000101866-6317293              GA           9 J               210                                      NNNN           210000000000000000000000000                        7                                          77424386                                                                                                                                                                                                                                                                                                                                                                                                                                               
00019690522500021DT67590675900000016196800102800000010180010224001193173900017346267062120230000001604017323000000000630277440066XXXXXX5633               2111111   NYV4 A7W303169807059564N8400000000160409GQS00    01DNGREEN OTTER LLC          03304A    VS84000000016040 NDR549977424386   87C837D923TAC14F0E203C2  000000000+                A CA 12106                     000000000  N000000000 492   0000000000000.00 0000000.00   0000000.00                             000000000000000                                                                                                                                                     01424 G000000016040 0000000000003.13     01890 01000                  
00019700522500021DR67590675900000016196800102800000010187C837D923TAC14F0E203C2  Y000000016040                 P1                                                                                                                                                                                                                                                                                                                                                                                                                                                                                                                                                                                                            
00019710522500001P16759067590000001619680010280000001010000000000000000                             2000000000000000000000000              000000000000                    0000000000000000000000000                    000000000000                                                                                                                                                                                                                                                                                                                                                                                                                                                                                        
00019720522500002G2675906759000000161968001028000000101866-6317293              GA           9 C                00                                      NNNN   Y                      000000000000                                                                   77424386                                                                                                                                                                                                                                                                                                                                                                                                                                               
00019730522500022DT67590675900000016196800102800000010180010287287283173900017346482062120230000002487017323000000000630277544446XXXXXX0244       ME03KE06MS02      NY 4607AMDJUMU0IH0618  N840000000024870          81DNGREEN OTTER LLC          527368    MD84000000024870 NDR549977424386   779F9635FATEC010897348B  000000000+600450S00130    MDJ  00401                     000000000  N                0000000000000.00 0000000.00   0000000.00                             000000000000000                                                                                                                                                   U001424  000000000000 0000000000004.25     01650 01500                  
00019740522500022DR675906759000000161968001028000000101779F9635FATEC010897348B  Y000000000000                                                                                                                                                                                                                                                                                                                                                                                                                                                                                                                                                                                                                               
00019750522500001G2675906759000000161968001028000000101866-6317293              GA           9 J               210                                      NNNN           210000000000000000000000000                                                                   77424386                                                                                                                                                                                                                                                                                                                                                                                                                                               
00019760522500023DT67590675900000016196800102800000010180010224001193173900017346572062120230000001278917323000000000630277434769XXXXXX9193               2111111   NYV4 A7W383170099054797N840000000012789BHGX00    01DNGREEN OTTER LLC          054522    VD84000000012789 NDR549977424386   F3A0B61AC6T07F93557613C  000000000+                F DF 10420                     000000000  Y000000000 338   0000000000000.00 0000000.00   0000000.00                             000000000000000                                                                                                                                                     01424 G000000012789 0000000000000.28     00050 02200                  
00019770522500023DR675906759000000161968001028000000101F3A0B61AC6T07F93557613C  Y000000012789                 P1                                                                                                                                                                                                                                                                                                                                                                                                                                                                                                                                                                                                            
00019780522500001P16759067590000001619680010280000001010000000000000000                             2000000000000000000000000              000000000000                    0000000000000000000000000                    000000000000                                                                                                                                                                                                                                                                                                                                                                                                                                                                                        
00019790522500002G2675906759000000161968001028000000101866-6317293              GA           9 D                00                                      NNNN   N                      000000000000                                                                   77424386                                                                                                                                                                                                                                                                                                                                                                                                                                               
00019800522500024DT67590675900000016196800102800000010180010224001193173900017349311062120230000001987017323000000000630277443113XXXXXX0695               2111111   NYV4 A7W463173021967408N840000000019870QWVC00    01DNGREEN OTTER LLC          073636    VD84000000019870 NDR549977424386   EF1F76B3CETE0A515FF7A71  000000000+                F DF 00415                     000000000  N000000000       0000000000000.00 0000000.00   0000000.00                             000000000000000                                                                                                                                                     01424 G000000019870 0000000000003.43     01650 01500                  
00019810522500024DR675906759000000161968001028000000101EF1F76B3CETE0A515FF7A71  Y000000019870                 P1                                                                                                                                                                                                                                                                                                                                                                                                                                                                                                                                                                                                            
00019820522500001P16759067590000001619680010280000001010000000000000000                             2000000000000000000000000              000000000000                    0000000000000000000000000                    000000000000                                                                                                                                                                                                                                                                                                                                                                                                                                                                                        
00019830522500002G2675906759000000161968001028000000101866-6317293              GA           9 D                00                                      NNNN   N                      000000000000                                                                   77424386                                                                                                                                                                                                                                                                                                                                                                                                                                               
00019840522500025DT67590675900000016196800102800000010180010287287283173900017349387062120230000000149517323000000000630277524364XXXXXX1022       ME03KE06MS02      NY 4607AMPL7ETV660621  N840000000001495          81DNGREEN OTTER LLC          02192B    MC84000000001495 NDR549977424386   8029E39639TD40526CE2403  000000000+600450S00130    MPL  00580                     000000000  N                0000000000000.00 0000000.00   0000000.00                             000000000000000                                                                                                                                                   U001424  000000000000 0000000000000.41     02100 01000                  
00019850522500025DR6759067590000001619680010280000001018029E39639TD40526CE2403  Y000000000000                                                                                                                                                                                                                                                                                                                                                                                                                                                                                                                                                                                                                               
00019860522500001G2675906759000000161968001028000000101866-6317293              GA           9 L               210                                      NNNN           210000000000000000000000000                        7                                          77424386                                                                                                                                                                                                                                                                                                                                                                                                                                               
00019870522500026DT67590675900000016196800102800000010180010224001193173900017349402062120230000001987017323000000000630277447436XXXXXX3655               2111111   NYV4 A7W463173069628139N8400000000198709VHM00    01DNGREEN OTTER LLC          057997    VD84000000019870 NDR549977424386   2A9699231CT2DED70B3F6FA  000000000+                F DF 00415                     000000000  N000000000       0000000000000.00 0000000.00   0000000.00                             000000000000000                                                                                                                                                     01424 G000000019870 0000000000003.43     01650 01500                  
00019880522500026DR6759067590000001619680010280000001012A9699231CT2DED70B3F6FA  Y000000019870                 P1                                                                                                                                                                                                                                                                                                                                                                                                                                                                                                                                                                                                            
00019890522500001P16759067590000001619680010280000001010000000000000000                             2000000000000000000000000              000000000000                    0000000000000000000000000                    000000000000                                                                                                                                                                                                                                                                                                                                                                                                                                                                                        
00019900522500002G2675906759000000161968001028000000101866-6317293              GA           9 D                00                                      NNNN   N                      000000000000                                                                   77424386                                                                                                                                                                                                                                                                                                                                                                                                                                               
00019910522500027DT67590675900000016196800102800000010180010224001193173900017349501062120230000001987017323000000000630277476546XXXXXX9854               2111111   NYV4 A7W463173115064862N840000000019870PV7Z00    01DNGREEN OTTER LLC          854195    VD84000000019870 NDR549977424386   D8566BAB5CT63AEF50316D0  000000000+                F DF 00415                     000000000  N000000000       0000000000000.00 0000000.00   0000000.00                             000000000000000                                                                                                                                                     01424 G000000019870 0000000000003.43     01650 01500                  
00019920522500027DR675906759000000161968001028000000101D8566BAB5CT63AEF50316D0  Y000000019870                 P1                                                                                                                                                                                                                                                                                                                                                                                                                                                                                                                                                                                                            
00019930522500001P16759067590000001619680010280000001010000000000000000                             2000000000000000000000000              000000000000                    0000000000000000000000000                    000000000000                                                                                                                                                                                                                                                                                                                                                                                                                                                                                        
00019940522500002G2675906759000000161968001028000000101866-6317293              GA           9 D                00                                      NNNN   N                      000000000000                                                                   77424386                                                                                                                                                                                                                                                                                                                                                                                                                                               
00019950522500028DT67590675900000016196800102800000010180010224001193173900017349550062120230000001200817323000000000630277415342XXXXXX5377               2111111   NYV4 A7W583173173878001N840000000012008R28K00    01DNGREEN OTTER LLC          014947    VD84000000012008 NDR549977424386   73C935C020TB624A7478BD4  000000000+                F DF 00415                     000000000  N000000000       0000000000000.00 0000000.00   0000000.00                             000000000000000                                                                                                                                                     01424 G000000012008 0000000000002.13     01650 01500                  
00019960522500028DR67590675900000016196800102800000010173C935C020TB624A7478BD4  Z000000012008                 P1                                                                                                                                                                                                                                                                                                                                                                                                                                                                                                                                                                                                            
00019970522500001P16759067590000001619680010280000001010000000000000000                             2000000000000000000000000              000000000000                    0000000000000000000000000                    000000000000                                                                                                                                                                                                                                                                                                                                                                                                                                                                                        
00019980522500002G2675906759000000161968001028000000101866-6317293              GA           9 D                00                                      NNNN   N                      000000000000                                                                   77424386                                                                                                                                                                                                                                                                                                                                                                                                                                               
00019990522500029DT67590675900000016196800102800000010180010224001193173900017349584062220230000001257417323000000000630277466309XXXXXX8218               2111111   NYV4 A7W383173229442569N8400000000125744JH700    01DNGREEN OTTER LLC          06749D    VS84000000012574 NDR549977424386   E4C18691E6T9D5AFC53292A  000000000+                D CD 12109                     000000000  N000000000 498   0000000000000.00 0000000.00   0000000.00                             000000000000000                                                                                                                                                     01424 G000000012574 0000000000003.24     02500 01000                  
00020000522500029DR675906759000000161968001028000000101E4C18691E6T9D5AFC53292A  Y000000012574                 P1                                                                                                                                                                                                                                                                                                                                                                                                                                                                                                                                                                                                            
00020010522500001P16759067590000001619680010280000001010000000000000000                             2000000000000000000000000              000000000000                    0000000000000000000000000                    000000000000                                                                                                                                                                                                                                                                                                                                                                                                                                                                                        
00020020522500002G2675906759000000161968001028000000101866-6317293              GA           9 C                00                                      NNNN   Y                      000000000000                                                                   77424386                                                                                                                                                                                                                                                                                                                                                                                                                                               
00020030522500030DT67590675900000016196800102800000010180010224001193173900017349667062220230000001987017323000000000630277433443XXXXXX0118               2111111   NYV4 A7W383173386638351N840000000019870R82S00    01DNGREEN OTTER LLC          180204    VD84000000019870 NDR549977424386   A26249C105TB0EF52EFF516  000000000+                F DF 10420                     000000000  Y000000000 338   0000000000000.00 0000000.00   0000000.00                             000000000000000                                                                                                                                                     01424 G000000019870 0000000000000.32     00050 02200                  
00020040522500030DR675906759000000161968001028000000101A26249C105TB0EF52EFF516  Y000000019870                 P1                                                                                                                                                                                                                                                                                                                                                                                                                                                                                                                                                                                                            
00020050522500001P16759067590000001619680010280000001010000000000000000                             2000000000000000000000000              000000000000                    0000000000000000000000000                    000000000000                                                                                                                                                                                                                                                                                                                                                                                                                                                                                        
00020060522500002G2675906759000000161968001028000000101866-6317293              GA           9 D                00                                      NNNN   N                      000000000000                                                                   77424386                                                                                                                                                                                                                                                                                                                                                                                                                                               
00020070522500031DT67590675900000016196800102800000010180010287287283173900017349759062220230000002636217323000000000630277551010XXXXXX0705       ME03KE06MS02      NY 4607AMDJSKWOO30622  N840000000026362          81DNGREEN OTTER LLC          833346    MD84000000026362 NDR549977424386   1A74EE7ECCTA25C2A6D97D5  000000000+600450S00130    MDJ  00401                     000000000  N                0000000000000.00 0000000.00   0000000.00                             000000000000000                                                                                                                                                   U001424  000000000000 0000000000004.50     01650 01500                  
00020080522500031DR6759067590000001619680010280000001011A74EE7ECCTA25C2A6D97D5  N000000000000                                                                                                                                                                                                                                                                                                                                                                                                                                                                                                                                                                                                                               
00020090522500001G2675906759000000161968001028000000101866-6317293              GA           9 J               210                                      NNNN           210000000000000000000000000                        7                                          77424386                                                                                                                                                                                                                                                                                                                                                                                                                                               
00020100522500032DT67590675900000016196800102800000010180010224001193173900017349907062220230000001400817323000000000630277486796XXXXXX8068               2111111   NYV4 A7W303173495657669N84000000001400856FZ00    01DNGREEN OTTER LLC          054609    VD84000000014008 NDR549977424386   40BCDA8F1ET80377A812A06  000000000+                F DF 10420                     000000000  Y000000000 338   0000000000000.00 0000000.00   0000000.00                             000000000000000                                                                                                                                                     01424 G000000014008 0000000000000.29     00050 02200                  
00020110522500032DR67590675900000016196800102800000010140BCDA8F1ET80377A812A06  Y000000014008                 P1                                                                                                                                                                                                                                                                                                                                                                                                                                                                                                                                                                                                            
00020120522500001P16759067590000001619680010280000001010000000000000000                             2000000000000000000000000              000000000000                    0000000000000000000000000                    000000000000                                                                                                                                                                                                                                                                                                                                                                                                                                                                                        
00020130522500002G2675906759000000161968001028000000101866-6317293              GA           9 D                00                                      NNNN   N                      000000000000                                                                   77424386                                                                                                                                                                                                                                                                                                                                                                                                                                               
00020140522500033DT67590675900000016196800102800000010180010287287283173900017349981062220230000001059817323000000000630277534636XXXXXX0528       ME03KE06MS02      NY 4607AMPLZMENO20622  N840000000010598          81DNGREEN OTTER LLC          022738    MC84000000010598 NDR549977424386   C1BEFE0B4CTAB49FE297561  000000000+600450S00130    MPL  00013                     000000000  N                0000000000000.00 0000000.00   0000000.00                             000000000000000                                                                                                                                                   U001424  000000000000 0000000000002.17     01950 01000                  
00020150522500033DR675906759000000161968001028000000101C1BEFE0B4CTAB49FE297561  Y000000000000                                                                                                                                                                                                                                                                                                                                                                                                                                                                                                                                                                                                                               
00020160522500001G2675906759000000161968001028000000101866-6317293              GA           9 L               210                                      NNNN           210000000000000000000000000                                                                   77424386                                                                                                                                                                                                                                                                                                                                                                                                                                               
00020170522500034DT67590675900000016196800102800000010680010287287283173900017351300062220230000001987017323000000000630277545983XXXXXX4787                         NY94607N         0622  N840000000000000          81CNGREEN OTTER LLC                    MD84000000019870 N  549977424386   1608C55752T51864E8EA8DA  000000000+600450S00130    MDS  00560                     000000000  N                0000000000000.00 0000000.00   0000000.00                             000000000000000                                                                                                                                                     01424  000000000000 0000000000000.00     00000 00000                  
00020180522500001G2675906759000000161968001028000000106866-6317293              GA           9 S               210                                      NNNN           210000000000000000000000000                                                                   77424386                                                                                                                                                                                                                                                                                                                                                                                                                                               
00020190522500035DT67590675900000016196800102800000010180010224001193173900017350012062220230000002255017323000000000630277414740XXXXXX5498               2111111   NYV4 A7W463173545953234N840000000022550F6RX00    01DNGREEN OTTER LLC          08654D    VS84000000022550 NDR549977424386   160978B05FTBD9BD4C2FE8D  000000000+                D CD 12109                     000000000  N000000000 498   0000000000000.00 0000000.00   0000000.00                             000000000000000                                                                                                                                                     01424 G000000022550 0000000000005.74     02500 01000                  
00020200522500035DR675906759000000161968001028000000101160978B05FTBD9BD4C2FE8D  Y000000022550                 P1                                                                                                                                                                                                                                                                                                                                                                                                                                                                                                                                                                                                            
00020210522500001P16759067590000001619680010280000001010000000000000000                             2000000000000000000000000              000000000000                    0000000000000000000000000                    000000000000                                                                                                                                                                                                                                                                                                                                                                                                                                                                                        
00020220522500002G2675906759000000161968001028000000101866-6317293              GA           9 C                00                                      NNNN   Y                      000000000000                                                                   77424386                                                                                                                                                                                                                                                                                                                                                                                                                                               
00020230522500036DT67590675900000016196800102800000010180010287287283173900017350021062220230000000642817323000000000630277542432XXXXXX2446       ME03KE06MS02      NY 4607AMDJDJM3O40622  N840000000006428          81DNGREEN OTTER LLC          199431    MD84000000006428 NDR549977424386   0E27819698T370AA946D0CE  000000000+600450S00130    MDJ  10813                     000000000  1                0000000000000.00 0000000.00   0000000.00                             000000000000000                                                                                                                                                   U001424  000000000000 0000000000000.25     00050 02200                  
00020240522500036DR6759067590000001619680010280000001010E27819698T370AA946D0CE  U000000000000                                                                                                                                                                                                                                                                                                                                                                                                                                                                                                                                                                                                                               
00020250522500001G2675906759000000161968001028000000101866-6317293              GA           9 J               210                                      NNNN           210000000000000000000000000                        7                                          77424386                                                                                                                                                                                                                                                                                                                                                                                                                                               
00020260522500037DT67590675900000016196800102800000010180010224001193173900017350038062220230000001069817323000000000630277411870XXXXXX9569               2111111   NYV4 A7W583173563894211N840000000010698KNXK00    01DNGREEN OTTER LLC          022695    VS84000000010698 NDR549977424386   5B177B6D03TD9874FE58614  000000000+                C CC 12108                     000000000  N000000000 496   0000000000000.00 0000000.00   0000000.00                             000000000000000                                                                                                                                                     01424 G000000010698 0000000000002.29     02050 01000                  
00020270522500037DR6759067590000001619680010280000001015B177B6D03TD9874FE58614  Y000000010698                 P1                                                                                                                                                                                                                                                                                                                                                                                                                                                                                                                                                                                                            
00020280522500001P16759067590000001619680010280000001010000000000000000                             2000000000000000000000000              000000000000                    0000000000000000000000000                    000000000000                                                                                                                                                                                                                                                                                                                                                                                                                                                                                        
00020290522500002G2675906759000000161968001028000000101866-6317293              GA           9 C                00                                      NNNN   Y                      000000000000                                                                   77424386                                                                                                                                                                                                                                                                                                                                                                                                                                               
00020300522500038DT67590675900000016196800102800000010680010287287283173900017350047062220230000001260317323000000000630277521333XXXXXX3343                         NY 4607AMPLA4MIO30622  N840000000012603          81CNGREEN OTTER LLC          022394    MC84000000012603 NDR549977424386   5421599DFAT5299DA2ABD5A  000000000+600450S00130    MPL  00565                     000000000  N                0000000000000.00 0000000.00   0000000.00                             000000000000000                                                                                                                                                     01424  000000000000-0000000000002.21     01750 00000                  
00020310522500038DR6759067590000001619680010280000001065421599DFAT5299DA2ABD5A  R000000000000                                                                                                                                                                                                                                                                                                                                                                                                                                                                                                                                                                                                                               
00020320522500001G2675906759000000161968001028000000106866-6317293              GA           9 L               210                                      NNNN           210000000000000000000000000                        7                                          77424386                                                                                                                                                                                                                                                                                                                                                                                                                                               
00020330522500039DT67590675900000016196800102800000010180010287287283173900017350070062220230000001499117323000000000630277528556XXXXXX0099       ME03KE06PT01      NY 4607AMCWXA5ZO30622  N840000000014991          81DNGREEN OTTER LLC          02278Z    MC84000000014991 NDR549977424386   256F887C03T8E28D1FD85E9  000000000+600450S00130    MCW  00642                     000000000  N                0000000000000.00 0000000.00   0000000.00                             000000000000000                                                                                                                                                   U001424  000000000000 0000000000003.40     02200 01000                  
00020340522500039DR675906759000000161968001028000000101256F887C03T8E28D1FD85E9  Y000000000000                                                                                                                                                                                                                                                                                                                                                                                                                                                                                                                                                                                                                               
00020350522500001G2675906759000000161968001028000000101866-6317293              GA           9 W               210                                      NNNN           210000000000000000000000000                        7                                          77424386                                                                                                                                                                                                                                                                                                                                                                                                                                               
00020360522500040DT67590675900000016196800102800000010180010224001193173900017350087062220230000002106217323000000000630277446662XXXXXX1561               2111111   NYV4 A7W463173584692415N840000000021062FKKB00    01DNGREEN OTTER LLC          111429    VD84000000021062 NDR549977424386   B6FA171314T82DEEC2A2547  000000000+                F DF 00415                     000000000  N000000000       0000000000000.00 0000000.00   0000000.00                             000000000000000                                                                                                                                                     01424 G000000021062 0000000000003.63     01650 01500                  
00020370522500040DR675906759000000161968001028000000101B6FA171314T82DEEC2A2547  Y000000021062                 P1                                                                                                                                                                                                                                                                                                                                                                                                                                                                                                                                                                                                            
00020380522500001P16759067590000001619680010280000001010000000000000000                             2000000000000000000000000              000000000000                    0000000000000000000000000                    000000000000                                                                                                                                                                                                                                                                                                                                                                                                                                                                                        
00020390522500002G2675906759000000161968001028000000101866-6317293              GA           9 D                00                                      NNNN   N                      000000000000                                                                   77424386                                                                                                                                                                                                                                                                                                                                                                                                                                               
00020400522500041DT67590675900000016196800102800000010680010274001193173900017350124062220230000001327117323000000000630277443113XXXXXX0695               0000000   NYV4 07T583173586280287N840000000013271894C00    01CNGREEN OTTER LLC          091708    VD84000000013271 NDR549977424386   EF1F76B3CETE0A515FF7A71  000000000+                F DF 08168                     000000000  N000000000 369   0000000000000.00 0000000.00   0000000.00                             000000000000000                                                                                                                                                     01424  000000013271 0000000000000.00     00000 00000                  
00020410522500041DR675906759000000161968001028000000106EF1F76B3CETE0A515FF7A71  Y000000013271                 P1                                                                                                                                                                                                                                                                                                                                                                                                                                                                                                                                                                                                            
00020420522500001P16759067590000001619680010280000001060000000000000000                             2000000000000000000000000              000000000000                    0000000000000000000000000                    000000000000                                                                                                                                                                                                                                                                                                                                                                                                                                                                                        
00020430522500002G2675906759000000161968001028000000106866-6317293              GA           9 D                00                                      NNNN   N                      000000000000                                                                   77424386                                                                                                                                                                                                                                                                                                                                                                                                                                               
00020440522500042DT67590675900000016196800102800000010180010224001193173900017350145062220230000001200817323000000000630277446542XXXXXX2489               2111111   NYV4 A7W583173598269407N840000000012008BK9D00    01DNGREEN OTTER LLC          022268    VS84000000012008 NDR549977424386   6B4DE21AC7T070B30833195  000000000+                D CD 12109                     000000000  N000000000 498   0000000000000.00 0000000.00   0000000.00                             000000000000000                                                                                                                                                     01424 G000000012008 0000000000003.10     02500 01000                  
00020450522500042DR6759067590000001619680010280000001016B4DE21AC7T070B30833195  Z000000012008                 P1                                                                                                                                                                                                                                                                                                                                                                                                                                                                                                                                                                                                            
00020460522500001P16759067590000001619680010280000001010000000000000000                             2000000000000000000000000              000000000000                    0000000000000000000000000                    000000000000                                                                                                                                                                                                                                                                                                                                                                                                                                                                                        
00020470522500002G2675906759000000161968001028000000101866-6317293              GA           9 C                00                                      NNNN   Y                      000000000000                                                                   77424386                                                                                                                                                                                                                                                                                                                                                                                                                                               
00020480522500043DT67590675900000016196800102800000010180010287287283173900017350211062220230000001498917323000000000630277515307XXXXXX1283       ME03KE06PT01      NY 4607AMCWH3OODO0622  N840000000014989          81DNGREEN OTTER LLC          09154Z    MC84000000014989 NDR549977424386   600918E8B2TD457CBF042D1  000000000+600450S00130    MCW  00642                     000000000  N                0000000000000.00 0000000.00   0000000.00                             000000000000000                                                                                                                                                   U001424  000000000000 0000000000003.40     02200 01000                  
00020490522500043DR675906759000000161968001028000000101600918E8B2TD457CBF042D1  Z000000000000                                                                                                                                                                                                                                                                                                                                                                                                                                                                                                                                                                                                                               
00020500522500001G2675906759000000161968001028000000101866-6317293              GA           9 W               210                                      NNNN           210000000000000000000000000                        7                                          77424386                                                                                                                                                                                                                                                                                                                                                                                                                                               
00020510522500044DT67590675900000016196800102800000010180010287287283173900017350294062220230000001499117323000000000630277543010XXXXXX2034       ME03KE06MS02      NY 4607AMDSG9CXTJ0622  N840000000014991          81DNGREEN OTTER LLC          336449    MD84000000014991 NDR549977424386   9A69523367T46D0B25D225B  000000000+600450S00130    MDS  00401                     000000000  N                0000000000000.00 0000000.00   0000000.00                             000000000000000                                                                                                                                                   U001424  000000000000 0000000000002.62     01650 01500                  
00020520522500044DR6759067590000001619680010280000001019A69523367T46D0B25D225B  Y000000000000                                                                                                                                                                                                                                                                                                                                                                                                                                                                                                                                                                                                                               
00020530522500001G2675906759000000161968001028000000101866-6317293              GA           9 S               210                                      NNNN           210000000000000000000000000                                                                   77424386                                                                                                                                                                                                                                                                                                                                                                                                                                               
00020540522500045DT67590675900000016196800102800000010180010224001193173900017350327062220230000000642817323000000000630277441103XXXXXX9530               2111111   NYV4 A7W463173643817713N840000000006428NFG700    01DNGREEN OTTER LLC          015313    VD84000000006428 NDR549977424386   DA1D966981T33F1A95D8EC5  000000000+                F DF 10420                     000000000  Y000000000 338   0000000000000.00 0000000.00   0000000.00                             000000000000000                                                                                                                                                     01424 G000000006428 0000000000000.25     00050 02200                  
00020550522500045DR675906759000000161968001028000000101DA1D966981T33F1A95D8EC5  Y000000006428                 P1                                                                                                                                                                                                                                                                                                                                                                                                                                                                                                                                                                                                            
00020560522500001P16759067590000001619680010280000001010000000000000000                             2000000000000000000000000              000000000000                    0000000000000000000000000                    000000000000                                                                                                                                                                                                                                                                                                                                                                                                                                                                                        
00020570522500002G2675906759000000161968001028000000101866-6317293              GA           9 D                00                                      NNNN   N                      000000000000                                                                   77424386                                                                                                                                                                                                                                                                                                                                                                                                                                               
