02948820237090002BH6759067590000001129680088880000090170210202304123000000000001835    0000090001020001N8008886759C02122023                                                                                                                                                                                                                                                                                                                                                                                                                                                                                                                                                                                                 
02948830237090003DT67590675900000011296800888800000010180088877287283041900010200018021020230000000183504123000000000001835539113XXXXXX0626       MS02WI09          NY 1 0 AMDJGHUXJW0210  N840000000001835          07DNPLANET VAPOR #1000       105792    MD84000000001835 N  599976923732                            000000000+M10101M0034C    MDJ  10815                     000000000  1                0000000000000.00 0000000.00   0000000.00                             000000000000000                                                                                                                                                   A101418  000000000000 0000000000000.23     00050 02200                  
02948840237090004BH6759067590000000288180088880000090170210202304123000000000217484    0000090001420039N8008886759C02122023                                                                                                                                                                                                                                                                                                                                                                                                                                                                                                                                                                                                 
02948850237090005DT67590675900000002881800888800000010180088824001193041900014200012021020230000000296204123000000000217484415978XXXXXX3505       VS11    0001111   NYV1 A E383041546845257N8400000000029625BZ900    07DNHAPPY HIPPIE             005107    VD84000000002962 N  549976487158                            000000000+                F DF 10433                     000000000  Y000000000 338   0000000000000.00 0000000.00   0000000.00                             000000000000000                                                                                                                                                     01418 A000000000000 0000000000000.23     00050 02200                  
02948860237090006DT67590675900000002881800888800000010180088824001193041900014200020021020230000000078904123000000000217484434769XXXXXX0922       VK04VS111111111   NYV1 A E303041553499666N840000000000789SGS700    05DNHAPPY HIPPIE             092210    VD84000000000789 N  549976487158                            000000000+                F DF 10439                     000000000  Y000000000 331   0000000000000.00 0000000.00   0000000.00                             000000000000000                                                                                                                                                     01418 F000000000000 0000000000000.22     00050 02200                  
02948870237090007DT67590675900000002881800888800000010180088824001193041900014200038021020230000000799904123000000000217484407221XXXXXX7749               1001111   NYV1 A K383041573681865N840000000007999J7FS00    01DNHAPPY HIPPIE             010431    VS84000000007999 N  549976487158                            000000000+                D CD 12109                     000000000  N000000000 498   0000000000000.00 0000000.00   0000000.00                             000000000000000                                                                                                                                                     01418 E000000000000 0000000000002.10     02500 01000                  
02948880237090008DT67590675900000002881800888800000010180088877287283041900014200048021020230000001170804123000000000217484525363XXXXXX4979       MS02WI09          NY 1 0 AMWEHWETJW0210  N840000000011708          05DNHAPPY HIPPIE             75748Z    MC84000000011708 N  549976487158                            000000000+M10101C0034C    MWE  00743                     000000000  N                0000000000000.00 0000000.00   0000000.00                             000000000000000                                                                                                                                                   B101418  000000000000 0000000000002.73     02300 00400                  
02948890237090009DT67590675900000002881800888800000010180088877287283041900014200055021020230000000335804123000000000217484542432XXXXXX6544       MS02WI09          NY 2 0 AMDJW58HJX0210  N840000000003358          05DNHAPPY HIPPIE             867816    MD84000000003358 N  549976487158                            000000000+M10101C1334C    MDJ  10815                     000000000  1                0000000000000.00 0000000.00   0000000.00                             000000000000000                                                                                                                                                   B101418  000000000000 0000000000000.24     00050 02200                  
02948900237090010DT67590675900000002881800888800000010180088824001193041900014200061021020230000000246804123000000000217484422921XXXXXX5252       VS11    0001111   NYV1 A E463041586227459N840000000002468VL9K00    05DNHAPPY HIPPIE             040623    VD84000000002468 N  549976487158                            000000000+                F DF 00381                     000000000  N000000000       0000000000000.00 0000000.00   0000000.00                             000000000000000                                                                                                                                                     01418 A000000000000 0000000000000.35     00800 01500                  
02948910237090011DT67590675900000002881800888800000010180088824001193041900014200079021020230000000158004123000000000217484498503XXXXXX0161       VS11    0001111   NYV1 A E383041589592012N840000000001580GP4S00    05DNHAPPY HIPPIE             098900    VD84000000001580 N  549976487158                            000000000+                F DF 00381                     000000000  N000000000       0000000000000.00 0000000.00   0000000.00                             000000000000000                                                                                                                                                     01418 A000000000000 0000000000000.28     00800 01500                  
02948920237090012DT67590675900000002881800888800000010180088824001193041900014200087021020230000000690004123000000000217484414709XXXXXX3976       VS11    0001111   NYV1 A E383041604394491N840000000006900HRGL00    07DNHAPPY HIPPIE             01606D    VS84000000006900 N  549976487158                            000000000+                D CD 12113                     000000000  N000000000 499   0000000000000.00 0000000.00   0000000.00                             000000000000000                                                                                                                                                     01418 A000000000000 0000000000001.55     02100 01000                  
02948930237090013DT67590675900000002881800888800000010180088824001193041900014200095021020230000001017204123000000000217484419090XXXXXX3405       VS11    0001111   NYV1 A E583041609988894N840000000010172C7FH00    05DNHAPPY HIPPIE             465973    VD84000000010172 N  549976487158                            000000000+                F DF 00381                     000000000  N000000000       0000000000000.00 0000000.00   0000000.00                             000000000000000                                                                                                                                                     01418 A000000000000 0000000000000.96     00800 01500                  
02948940237090014DT67590675900000002881800888800000010180088824001193041900014200103021020230000000887804123000000000217484480639XXXXXX8686       VS11    0001111   NYV1 A E383041612805217N840000000008878ZJW400    05DNHAPPY HIPPIE             069484    VD84000000008878 N  549976487158                            000000000+                F DF 00381                     000000000  N000000000       0000000000000.00 0000000.00   0000000.00                             000000000000000                                                                                                                                                     01418 A000000000000 0000000000000.86     00800 01500                  
02948950237090015DT67590675900000002881800888800000010180088877287283041900014200113021020230000001655804123000000000217484515676XXXXXX0299       MS02WI09          NY 1 0 AMWEOH6YWH0210  N840000000016558          05DNHAPPY HIPPIE             00765Z    MC84000000016558 N  549976487158                            000000000+M10101C5434C    MWE  00743                     000000000  N                0000000000000.00 0000000.00   0000000.00                             000000000000000                                                                                                                                                   B101418  000000000000 0000000000003.85     02300 00400                  
02948960237090016DT67590675900000002881800888800000010180088824001193041900014200129021020230000000227104123000000000217484499151XXXXXX0377       VS11    0001111   NYV1 A E583041633792034N840000000002271TDCN00    07DNHAPPY HIPPIE             458096    VD84000000002271 N  549976487158                            000000000+                F DF 00381                     000000000  N000000000       0000000000000.00 0000000.00   0000000.00                             000000000000000                                                                                                                                                     01418 A000000000000 0000000000000.33     00800 01500                  
02948970237090017DT67590675900000002881800888800000010180088824001193041900014200137021020230000000395004123000000000217484449507XXXXXX1292       VS11    0001111   NYV1 A E303041648761422N84000000000395057R300    05DNHAPPY HIPPIE             030117    VD84000000003950 N  549976487158                            000000000+                F DF 00381                     000000000  N000000000       0000000000000.00 0000000.00   0000000.00                             000000000000000                                                                                                                                                     01418 A000000000000 0000000000000.47     00800 01500                  
02948980237090018DT67590675900000002881800888800000010180088824001193041900014200145021020230000000197104123000000000217484419090XXXXXX0885       VS11    0001111   NYV1 A E463041658593649N8400000000019719QG500    05DNHAPPY HIPPIE             469226    VD84000000001971 N  549976487158                            000000000+                F DF 00381                     000000000  N000000000       0000000000000.00 0000000.00   0000000.00                             000000000000000                                                                                                                                                     01418 A000000000000 0000000000000.31     00800 01500                  
02948990237090019DT67590675900000002881800888800000010180088824001193041900014200152021020230000000296204123000000000217484415978XXXXXX9315       VS11    0001111   NYV1 A E583041662809491N840000000002962W8PN00    05DNHAPPY HIPPIE             092670    VD84000000002962 N  549976487158                            000000000+                F DF 10433                     000000000  Y000000000 338   0000000000000.00 0000000.00   0000000.00                             000000000000000                                                                                                                                                     01418 A000000000000 0000000000000.23     00050 02200                  
02949000237090020DT67590675900000002881800888800000010180088824001193041900014200160021020230000000118104123000000000217484414740XXXXXX7574       VK04VS111111111   NYV1 A E463041669210689N840000000001181DQFP00    07DNHAPPY HIPPIE             05641D    VS84000000001181 N  549976487158                            000000000+                D CD 12057                     000000000  N000000000 452   0000000000000.00 0000000.00   0000000.00                             000000000000000                                                                                                                                                     01418 F000000000000 0000000000000.26     02200 00000                  
02949010237090021DT67590675900000002881800888800000010180088824001193041900014200178021020230000000118204123000000000217484480639XXXXXX8006       VK04VS111111111   NYV1 A E383041676774378N8400000000011823W9900    05DNHAPPY HIPPIE             073157    VD84000000001182 N  549976487158                            000000000+                F DF 00451                     000000000  N000000000 214   0000000000000.00 0000000.00   0000000.00                             000000000000000                                                                                                                                                     01418 F000000000000 0000000000000.22     01550 00400                  
02949020237090022DT67590675900000002881800888800000010180088824001193041900014200186021020230000000493804123000000000217484480639XXXXXX1725       VS11    0001111   NYV1 A E583041689016703N8400000000049388DCT00    05DNHAPPY HIPPIE             073807    VD84000000004938 N  549976487158                            000000000+                F DF 00381                     000000000  N000000000       0000000000000.00 0000000.00   0000000.00                             000000000000000                                                                                                                                                     01418 A000000000000 0000000000000.55     00800 01500                  
02949030237090023DT67590675900000002881800888800000010180088824001193041900014200194021020230000001677704123000000000217484415978XXXXXX7833       VS11    0001111   NYV1 A E383041698149605N840000000016777J2NB00    05DNHAPPY HIPPIE             048364    VD84000000016777 N  549976487158                            000000000+                F DF 10433                     000000000  Y000000000 338   0000000000000.00 0000000.00   0000000.00                             000000000000000                                                                                                                                                     01418 A000000000000 0000000000000.30     00050 02200                  
02949040237090024DT67590675900000002881800888800000010180088824001193041900014200202021020230000000158004123000000000217484415978XXXXXX3096       VS11    0001111   NYV1 A E463041700891010N8400000000015805CTK00    05DNHAPPY HIPPIE             053005    VD84000000001580 N  549976487158                            000000000+                F DF 10433                     000000000  Y000000000 338   0000000000000.00 0000000.00   0000000.00                             000000000000000                                                                                                                                                     01418 A000000000000 0000000000000.23     00050 02200                  
02949050237090025DT67590675900000002881800888800000010180088877287283041900014200212021020230000000414604123000000000217484540789XXXXXX5651       MS02WI09          NY 1 0 AMWEM1WRMT0210  N840000000004146          05DNHAPPY HIPPIE             65385Z    MC84000000004146 N  549976487158                            000000000+M10101C5434C    MWE  00743                     000000000  N                0000000000000.00 0000000.00   0000000.00                             000000000000000                                                                                                                                                   B101418  000000000000 0000000000000.99     02300 00400                  
02949060237090026DT67590675900000002881800888800000010180088824001193041900014200228021020230000000432104123000000000217484445102XXXXXX6903       VS11    0001111   NYV1 A E303041713661142N840000000004321MFKP00    05DNHAPPY HIPPIE             154455    VD84000000004321 N  549976487158                            000000000+                F DF 10433                     000000000  Y000000000 338   0000000000000.00 0000000.00   0000000.00                             000000000000000                                                                                                                                                     01418 A000000000000 0000000000000.24     00050 02200                  
02949070237090027DT67590675900000002881800888800000010180088824001193041900014200236021020230000000576204123000000000217484480639XXXXXX0039       VS11    0001111   NYV1 A E383041715976935N840000000005762VBPD00    05DNHAPPY HIPPIE             075219    VD84000000005762 N  549976487158                            000000000+                F DF 00381                     000000000  N000000000       0000000000000.00 0000000.00   0000000.00                             000000000000000                                                                                                                                                     01418 A000000000000 0000000000000.61     00800 01500                  
02949080237090028DT67590675900000002881800888800000010180088824001193041900014200244021020230000000790004123000000000217484461608XXXXXX1580       VS11    0001111   NYV1 A E583041728112296N840000000007900SQ5J00    05DNHAPPY HIPPIE             33135D    VS84000000007900 N  549976487158                            000000000+                D CD 12113                     000000000  N000000000 499   0000000000000.00 0000000.00   0000000.00                             000000000000000                                                                                                                                                     01418 A000000000000 0000000000001.76     02100 01000                  
02949090237090029DT67590675900000002881800888800000010180088877287283041900014200253021020230000000118204123000000000217484511953XXXXXX3362       MS02WI09          NY 1 0 AMDJW7THMT0210  N840000000001182          05DNHAPPY HIPPIE             074530    MD84000000001182 N  549976487158                            000000000+M10101C5434C    MDJ  00505                     000000000  N                0000000000000.00 0000000.00   0000000.00                             000000000000000                                                                                                                                                   B101418  000000000000 0000000000000.22     01550 00400                  
02949100237090030DT67590675900000002881800888800000010180088824001193041900014200269021020230000000167704123000000000217484422921XXXXXX4564       VS11    0001111   NYV1 A E463041736187892N840000000001677XLZP00    05DNHAPPY HIPPIE             055620    VD84000000001677 N  549976487158                            000000000+                F DF 00381                     000000000  N000000000       0000000000000.00 0000000.00   0000000.00                             000000000000000                                                                                                                                                     01418 A000000000000 0000000000000.28     00800 01500                  
02949110237090031DT67590675900000002881800888800000010180088877287283041900014200279021020230000000651704123000000000217484558158XXXXXX8211                         NY 1 0 AMDBOJXOMT0210  N840000000006517          07DNHAPPY HIPPIE             2XJRVB    MD84000000006517 NP1549976487158                            000000000+M10101M5434C    MDB  00062                     000000000  N                0000000000000.00 0000000.00   0000000.00                             000000000000000                                                                                                                                                   B101418  000000000000 0000000000001.83     02650 01000                  
02949120237090001P1675906759000000028818008888000000101                                                          000000000000          3000            814767769                                                                                                                                                                                                                                                                                                                                                                                                                                                                                                                                                            
02949130237090032DT67590675900000002881800888800000010180088877287283041900014200287021020230000000049304123000000000217484534942XXXXXX8407       MS02WI09          NY 1 0 AMDHONN8MT0210  N840000000000493          07DNHAPPY HIPPIE             032626    MD84000000000493 N  549976487158                            000000000+M10101M0034C    MDH  00505                     000000000  N                0000000000000.00 0000000.00   0000000.00                             000000000000000                                                                                                                                                   A101418  000000000000 0000000000000.12     01550 00400                  
02949140237090033DT67590675900000002881800888800000010180088877287283041900014200295021020230000000246804123000000000217484517805XXXXXX0940       MS02WI09          NY 1 0 AMWEJGIDZR0210  N840000000002468          05DNHAPPY HIPPIE             06462P    MC84000000002468 N  549976487158                            000000000+M10101C5434C    MWE  00743                     000000000  N                0000000000000.00 0000000.00   0000000.00                             000000000000000                                                                                                                                                   B101418  000000000000 0000000000000.61     02300 00400                  
02949150237090034DT67590675900000002881800888800000010180088824001193041900014200301021020230000000329104123000000000217484414709XXXXXX1116       VS11    0001111   NYV1 A E303041760750762N840000000003291NP9400    05DNHAPPY HIPPIE             02673D    VS84000000003291 N  549976487158                            000000000+                D CD 12113                     000000000  N000000000 499   0000000000000.00 0000000.00   0000000.00                             000000000000000                                                                                                                                                     01418 A000000000000 0000000000000.79     02100 01000                  
02949160237090035DT67590675900000002881800888800000010180088876509753041900014200317021020230000000329304123000000000217484601101XXXXXX1313   BA05                  NY41 0 N873035142124120N840000000003293    00    07DNHAPPY HIPPIE             01059B    DZ84000000003293 N  549976487158830                         000000000+0000004910H00   DMCDI01012168089  141012000000 000000000  0          124   0000000000000.00 0000000.00   0000000.00                             000000000000000                                                                                                                                                     01418  000000000000 0000000000000.96     02450 01500                  
02949170237090036DT67590675900000002881800888800000010180088877287283041900014200329021020230000000054904123000000000217484510805XXXXXX6141       MS02WI09          NY 2 0 AMDJLPFIZP0210  N840000000000549          05DNHAPPY HIPPIE             051309    MD84000000000549 N  549976487158                            000000000+M10101C1334C    MDJ  10831                     000000000  1                0000000000000.00 0000000.00   0000000.00                             000000000000000                                                                                                                                                   B101418  000000000000 0000000000000.22     00050 02200                  
02949180237090037DT67590675900000002881800888800000010180088824001193041900014200335021020230000000395104123000000000217484415978XXXXXX9559       VS11    0001111   NYV1 A E383041775587435N840000000003951HWZZ00    05DNHAPPY HIPPIE             076372    VD84000000003951 N  549976487158                            000000000+                F DF 10433                     000000000  Y000000000 338   0000000000000.00 0000000.00   0000000.00                             000000000000000                                                                                                                                                     01418 A000000000000 0000000000000.24     00050 02200                  
02949190237090038DT67590675900000002881800888800000010180088824001193041900014200343021020230000000241304123000000000217484443512XXXXXX6371       VS11    0001111   NYV1 A E583041777854727N840000000002413DHWS00    05DNHAPPY HIPPIE             019076    VD84000000002413 N  549976487158                            000000000+                F DF 00381                     000000000  N000000000       0000000000000.00 0000000.00   0000000.00                             000000000000000                                                                                                                                                     01418 A000000000000 0000000000000.34     00800 01500                  
02949200237090039DT67590675900000002881800888800000010180088824001193041900014200350021020230000000109504123000000000217484422921XXXXXX2116       VK04VS111111111   NYV1 A E463041783455733N840000000001095R3FC00    05DNHAPPY HIPPIE             060347    VD84000000001095 N  549976487158                            000000000+                F DF 00451                     000000000  N000000000 214   0000000000000.00 0000000.00   0000000.00                             000000000000000                                                                                                                                                     01418 F000000000000 0000000000000.21     01550 00400                  
02949210237090040DT67590675900000002881800888800000010180088877287283041900014200360021020230000002982204123000000000217484525363XXXXXX1579       MS02WI09          NY 1 0 AMWEG4E9ZQ0210  N840000000029822          05DNHAPPY HIPPIE             94533Z    MC84000000029822 N  549976487158                            000000000+M10101C0034C    MWE  00743                     000000000  N                0000000000000.00 0000000.00   0000000.00                             000000000000000                                                                                                                                                   B101418  000000000000 0000000000006.90     02300 00400                  
02949220237090041DT67590675900000002881800888800000010180088877287283041900014200378021020230000001025204123000000000217484511953XXXXXX6970       MS02WI09          NY 1 0 AMDJL4RIZR0210  N840000000010252          05DNHAPPY HIPPIE             047015    MD84000000010252 N  549976487158                            000000000+M10101C5434C    MDJ  00402                     000000000  N                0000000000000.00 0000000.00   0000000.00                             000000000000000                                                                                                                                                   B101418  000000000000 0000000000001.23     01050 01500                  
02949230237090042DT67590675900000002881800888800000010180088877287283041900014200386021020230000001016904123000000000217484511953XXXXXX3911       MS02WI09          NY 1 0 AMDJIOK05P0210  N840000000010169          05DNHAPPY HIPPIE             010331    MD84000000010169 N  549976487158                            000000000+M10101C5434C    MDJ  00402                     000000000  N                0000000000000.00 0000000.00   0000000.00                             000000000000000                                                                                                                                                   B101418  000000000000 0000000000001.22     01050 01500                  
02949240237090043DT67590675900000002881800888800000010180088877287283041900014200394021020230000000799904123000000000217484526929XXXXXX4923       ME03MS02WI09      NY 1 0 AMDJO2HNZP0210  N840000000007999          01DNHAPPY HIPPIE             240288    MD84000000007999 N  549976487158                            000000000+M1010115434C    MDJ  10811                     000000000  1                0000000000000.00 0000000.00   0000000.00                             000000000000000                                                                                                                                                   E101418  000000000000 0000000000000.26     00050 02200                  
02949250237090044BH6759067590000000215480088880000090170210202304123000000001149552    0000090001049509N8008886759C02122023                                                                                                                                                                                                                                                                                                                                                                                                                                                                                                                                                                                                 
02949260237090045DT67590675900000002154800888800000010180088824001193041900010411407021020230000013680004123000000001149552442742XXXXXX4709               2111111   NYV4 A7W383041082446187N8400000001368009CG700    01DNDRIP DROP DISTRO LLC     041721    VD84000000136800 NP1519971004114   INV-000634               000000000+                G DG 10352                     000000000  Y000000000 338   0000000000000.00 0000000.00   0000000.00                             000000000000000                                                                                                                                                     01418 G000000136800 0000000000000.90     00050 02200                  
02949270237090001P16759067590000000215480088880000001010000000000000000    43932209635              2000000000000000000000000              000000000000                    0000000000000000000000000                    000000000000                                                                                                                                                                                                                                                                                                                                                                                                                                                                                        
02949280237090046DT67590675900000002154800888800000010180088824001193041900010483331021020230000015900004123000000001149552410040XXXXXX3762               2111111   NYV4 A7W463040855386190N8400000001590003F6N00    01DNDRIP DROP DISTRO LLC     58091G    VB84000000159000 NP1519971004114   INV-000637               000000000+                G1CG108010                     000000000  N000000000 390   0000000000000.00 0000000.00   0000000.00                             000000000000000                                                                                                                                                     01418 G000000159000 0000000000045.42     02850 01000                  
02949290237090001P16759067590000000215480088880000001010000000000000000    43932003611              2000000000000000000000000              000000000000                    0000000000000000000000000                    000000000000                                                                                                                                                                                                                                                                                                                                                                                                                                                                                        
02949300237090047DT67590675900000002154800888800000010180088873011003041900010482008021020230000006960004123000000001149552372723XXXXX1013                          NY 4 07N006431786260076N840000000069600          01DNDRIP DROP DISTRO LLC     224786    AM84000000069600 N  519971004114                            000000000+6004S0S00140 258     11244                     000000000                   0000000000000.00 0000000.00   0000000.00                             000000000000000 61248972736759675900000002154 DRIP DROP DISTRO LLC     1445 W COMMERCE AVE SUITE2087248209      83705     TROY@DRIPDROPDISTRO.COM                   01418  000000000000 0000000000013.32     01900 00000                  
02949310237090048DT67590675900000002154800888800000010180088824001193041900010473191021020230000054000004123000000001149552424631XXXXXX1323               2111111   NYV4 A7W583041719704916N84000000054000026R500    01DNDRIP DROP DISTRO LLC     07931G    VB84000000540000 NP1519971004114   INV-000662               000000000+                G5CG511887                     000000000  N000000000 163   0000000000000.00 0000000.00   0000000.00                             000000000000000                                                                                                                                                     01418 G000000540000 0000000000162.10     03000 01000                  
02949320237090001P16759067590000000215480088880000001010000000000000000    43933721238              2000000000000000000000000              000000000000                    0000000000000000000000000                    000000000000                                                                                                                                                                                                                                                                                                                                                                                                                                                                                        
02949330237090049DT67590675900000002154800888800000010180088824001193041900010412462021020230000023550004123000000001149552442742XXXXXX7549               2111111   NYV4 A7W383041080665332N840000000235500PBK700    01DNDRIP DROP DISTRO LLC     071421    VD84000000235500 NP1519971004114   INV-000630               000000000+                G DG 10352                     000000000  Y000000000 338   0000000000000.00 0000000.00   0000000.00                             000000000000000                                                                                                                                                     01418 G000000235500 0000000000001.40     00050 02200                  
02949340237090001P16759067590000000215480088880000001010000000000000000    43932206645              2000000000000000000000000              000000000000                    0000000000000000000000000                    000000000000                                                                                                                                                                                                                                                                                                                                                                                                                                                                                        
02949350237090050DT67590675900000002154800888800000010180088824001193041900010495095021020230000000865204123000000001149552426684XXXXXX6447               2111111   NYV4 A7W463041757769236N840000000008652SZWZ00    01DNDRIP DROP DISTRO LLC     07687C    VS84000000008652 NP1519971004114   17422                    000000000+                C CC 12108                     000000000  N000000000 496   0000000000000.00 0000000.00   0000000.00                             000000000000000                                                                                                                                                     01418 G000000008652 0000000000001.87     02050 01000                  
02949360237090001P16759067590000000215480088880000001010000000000000000                             2000000000000000000000000              000000000000                    0000000000000000000000000                    000000000000                                                                                                                                                                                                                                                                                                                                                                                                                                                                                        
02949370237090051BH6759067590000000589280088880000090170210202304123000000000004098    0000090001042730N8008886759C02122023                                                                                                                                                                                                                                                                                                                                                                                                                                                                                                                                                                                                 
02949380237090052DT67590675900000005892800888800000010180088824001193041900010427304021020230000000409804123000000000004098440393XXXXXX0479               2111111   NYV4 A7W463041546370790N840000000004098Z3BJ00    01DNPLANET VAPOR INC         081817    VD84000000004098 NP1599971004114   14287899                 000000000+                F PF 08175                     000000000  N000000000       0000000000000.00 0000000.00   0000000.00                             000000000000000                                                                                                                                                     01418 G000000004098 0000000000000.92     01750 02000                  
02949390237090001P16759067590000000589280088880000001010000000000000000                             2000000000000000000000000              000000000000                    0000000000000000000000000                    000000000000                                                                                                                                                                                                                                                                                                                                                                                                                                                                                        
02949400237090053BH6759067590000000909280088880000090170210202304123000000000185918    0000090001020019N8008886759C02122023                                                                                                                                                                                                                                                                                                                                                                                                                                                                                                                                                                                                 
02949410237090054DT67590675900000009092800888800000010180088824001193041900010200172021020230000000201904123000000000185918400022XXXXXX6228       VS11    0001111   NYV1 A E303041681515344N840000000002019ZWPV00    07DNPLANET VAPOR #500        472319    VD84000000002019 N  599976781988                            000000000+                F DF 10433                     000000000  Y000000000 338   0000000000000.00 0000000.00   0000000.00                             000000000000000                                                                                                                                                     01418 A000000000000 0000000000000.23     00050 02200                  
02949420237090055DT67590675900000009092800888800000010180088824001193041900010200206021020230000000215904123000000000185918448233XXXXXX4312       VS11    0001111   NYV1 A E303041696174521N840000000002159J2TF00    07DNPLANET VAPOR #500        032017    VD84000000002159 N  599976781988                            000000000+                F DF 10433                     000000000  Y000000000 338   0000000000000.00 0000000.00   0000000.00                             000000000000000                                                                                                                                                     01418 A000000000000 0000000000000.23     00050 02200                  
02949430237090056DT67590675900000009092800888800000010180088824001193041900010200214021020230000000505304123000000000185918473703XXXXXX9894       VS11    0001111   NYV1 A E383041700907085N840000000005053QSXT00    07DNPLANET VAPOR #500        006140    VD84000000005053 N  599976781988                            000000000+                F DF 10433                     000000000  Y000000000 338   0000000000000.00 0000000.00   0000000.00                             000000000000000                                                                                                                                                     01418 A000000000000 0000000000000.25     00050 02200                  
02949440237090057DT67590675900000009092800888800000010180088877287283041900010200224021020230000000798304123000000000185918555426XXXXXX6753       MS02WI09          NY 1 0 AMPGCKPGZQ0210  N840000000007983          90DNPLANET VAPOR #500        033040    MD84000000007983 N  599976781988                            000000000+M10101B5434C    MPG  11964                     000000000  N                0000000000000.00 0000000.00   0000000.00                             000000000000000                                                                                                                                                   C101418  000000000000 0000000000001.07     01150 01500                  
02949450237090058DT67590675900000009092800888800000010180088824001193041900010200230021020230000000242804123000000000185918461675XXXXXX7175       VS11    0001111   NYV1 A E463041703123572N840000000002428TLNS00    05DNPLANET VAPOR #500        471640    VD84000000002428 N  599976781988                            000000000+                F DF 00381                     000000000  N000000000       0000000000000.00 0000000.00   0000000.00                             000000000000000                                                                                                                                                     01418 A000000000000 0000000000000.34     00800 01500                  
02949460237090059DT67590675900000009092800888800000010180088877287283041900010200240021020230000000321004123000000000185918536013XXXXXX9566       MS02WI09          NY 1 0 AMDJGKTBZR0210  N840000000003210          07DNPLANET VAPOR #500        002693    MD84000000003210 N  599976781988                            000000000+M10101M0034C    MDJ  00402                     000000000  N                0000000000000.00 0000000.00   0000000.00                             000000000000000                                                                                                                                                   B101418  000000000000 0000000000000.49     01050 01500                  
02949470237090060DT67590675900000009092800888800000010180088876509753041900010200253021020230000001313604123000000000185918601101XXXXXX9405   BA50                  NY41 0 N753035097462854N840000000013136    00    05DNPLANET VAPOR #500        01035B    DZ84000000013136 N  599976781988050                         000000000+0000004910H00   DMCDI01012664093  145545000000 000000000  0          124   0000000000000.00 0000000.00   0000000.00                             000000000000000                                                                                                                                                     01418  000000000000 0000000000003.37     02450 01500                  
02949480237090061DT67590675900000009092800888800000010180088824001193041900010200263021020230000000194304123000000000185918435274XXXXXX4205       VS11    0001111   NYV1 A E303041728828131N8400000000019438M8700    07DNPLANET VAPOR #500        101946    VD84000000001943 N  599976781988                            000000000+                F DF 10433                     000000000  Y000000000 338   0000000000000.00 0000000.00   0000000.00                             000000000000000                                                                                                                                                     01418 A000000000000 0000000000000.23     00050 02200                  
02949490237090062DT67590675900000009092800888800000010180088877287283041900010200273021020230000000326404123000000000185918515676XXXXXX9878       MS02WI09          NY 1 0 AMWEKCXZZP0210  N840000000003264          07DNPLANET VAPOR #500        02322Z    MC84000000003264 N  599976781988                            000000000+M10101M0034C    MWE  00739                     000000000  N                0000000000000.00 0000000.00   0000000.00                             000000000000000                                                                                                                                                   B101418  000000000000 0000000000000.85     02300 01000                  
02949500237090063DT67590675900000009092800888800000010180088824001193041900010200289021020230000000456604123000000000185918441707XXXXXX5214       VS11    0001111   NYV1 A E303041746775932N840000000004566C7ZP00    07DNPLANET VAPOR #500        474019    VD84000000004566 N  599976781988                            000000000+                F PF 08170                     000000000  N000000000       0000000000000.00 0000000.00   0000000.00                             000000000000000                                                                                                                                                     01418 A000000000000 0000000000000.68     01150 01500                  
02949510237090064DT67590675900000009092800888800000010180088824001193041900010200297021020230000000058204123000000000185918458643XXXXXX5991       VK04VS111111111   NYV1 A E383041769025845N8400000000005829SFM00    05DNPLANET VAPOR #500        H52799    VD84000000000582 N  599976781988                            000000000+                F DF 10439                     000000000  Y000000000 331   0000000000000.00 0000000.00   0000000.00                             000000000000000                                                                                                                                                     01418 F000000000000 0000000000000.22     00050 02200                  
02949520237090065DT67590675900000009092800888800000010180088824001193041900010200305021020230000000558604123000000000185918498503XXXXXX1706       VS11    0001111   NYV1 A E303041785402588N8400000000055862ZBW00    05DNPLANET VAPOR #500        090818    VD84000000005586 N  599976781988                            000000000+                F DF 00381                     000000000  N000000000       0000000000000.00 0000000.00   0000000.00                             000000000000000                                                                                                                                                     01418 A000000000000 0000000000000.60     00800 01500                  
02949530237090066DT67590675900000009092800888800000010180088824001193041900010200313021020230000000323804123000000000185918448261XXXXXX7008       VS11    0001111   NYV1 A E463041786152647N840000000003238JVRZ00    05DNPLANET VAPOR #500        665092    VD84000000003238 N  599976781988                            000000000+                F DF 10433                     000000000  Y000000000 338   0000000000000.00 0000000.00   0000000.00                             000000000000000                                                                                                                                                     01418 A000000000000 0000000000000.24     00050 02200                  
02949540237090067DT67590675900000009092800888800000010180088877287283041900010200323021020230000000377904123000000000185918531258XXXXXX3320       MS02WI09          NY 1 0 AMDJZZAJMT0210  N840000000003779          05DNPLANET VAPOR #500        115043    MD84000000003779 N  599976781988                            000000000+M10101C5434C    MDJ  10815                     000000000  1                0000000000000.00 0000000.00   0000000.00                             000000000000000                                                                                                                                                   B101418  000000000000 0000000000000.24     00050 02200                  
02949550237090068DT67590675900000009092800888800000010180088824001193041900010200339021020230000000277904123000000000185918430602XXXXXX7748       VS11    0001111   NYV1 A E463041792299434N8400000000027794CFV00    07DNPLANET VAPOR #500        722613    VD84000000002779 N  599976781988                            000000000+                F DF 00381                     000000000  N000000000       0000000000000.00 0000000.00   0000000.00                             000000000000000                                                                                                                                                     01418 A000000000000 0000000000000.37     00800 01500                  
02949560237090069DT67590675900000009092800888800000010180088824001193041900010200347021020230000000151104123000000000185918440393XXXXXX1941       VS11    0001111   NYV1 A E383041797332519N840000000001511LGPG00    07DNPLANET VAPOR #500        901176    VD84000000001511 N  599976781988                            000000000+                F PF 08170                     000000000  N000000000       0000000000000.00 0000000.00   0000000.00                             000000000000000                                                                                                                                                     01418 A000000000000 0000000000000.32     01150 01500                  
02949570237090070DT67590675900000009092800888800000010180088824001193041900010200354021020230000000137504123000000000185918473703XXXXXX3919       VK04VS111111111   NYV1 A E463041798460840N840000000001375G7F200    07DNPLANET VAPOR #500        095738    VD84000000001375 N  599976781988                            000000000+                F DF 10439                     000000000  Y000000000 331   0000000000000.00 0000000.00   0000000.00                             000000000000000                                                                                                                                                     01418 F000000000000 0000000000000.23     00050 02200                  
02949580237090071DT67590675900000009092800888800000010180088824001193041900010200362021020230000000067704123000000000185918408138XXXXXX8846       VK04VS111111111   NYV1 A E463041843050768N840000000000677XPVB00    07DNPLANET VAPOR #500        895339    VD84000000000677 N  599976781988                            000000000+                F PF 08165                     000000000  N000000000       0000000000000.00 0000000.00   0000000.00                             000000000000000                                                                                                                                                     01418 F000000000000 0000000000000.16     01600 00500                  
02949590237090072DT67590675900000009092800888800000010180088824001193041900010200370021020230000000377904123000000000185918473702XXXXXX8235       VS11    0001111   NYV1 A E303041844424784N840000000003779VV2Z00    07DNPLANET VAPOR #500        051485    VD84000000003779 N  599976781988                            000000000+                F DF 10433                     000000000  Y000000000 338   0000000000000.00 0000000.00   0000000.00                             000000000000000                                                                                                                                                     01418 A000000000000 0000000000000.24     00050 02200                  
02949600237090073DT67590675900000009092800888800000010180088824001193041900010200388021020230000000439904123000000000185918456367XXXXXX4437       VS11    0001111   NYV1 A E463041847901971N8400000000043993TQZ00    05DNPLANET VAPOR #500        H77770    VD84000000004399 N  599976781988                            000000000+                F DF 10433                     000000000  Y000000000 338   0000000000000.00 0000000.00   0000000.00                             000000000000000                                                                                                                                                     01418 A000000000000 0000000000000.24     00050 02200                  
02949610237090074DT67590675900000009092800888800000010180088824001193041900010200396021020230000001241704123000000000185918443040XXXXXX9799       VS11    0001111   NYV1 A E383042002082526N8400000000124179TMF00    05DNPLANET VAPOR #500        793896    VD84000000012417 N  599976781988                            000000000+                F DF 10433                     000000000  Y000000000 338   0000000000000.00 0000000.00   0000000.00                             000000000000000                                                                                                                                                     01418 A000000000000 0000000000000.28     00050 02200                  
02949620237090075DT67590675900000009092800888800000010180088824001193041900010200404021020230000000701804123000000000185918473702XXXXXX5905       VS11    0001111   NYV1 A E583042003857813N840000000007018H4SD00    07DNPLANET VAPOR #500        043531    VD84000000007018 N  599976781988                            000000000+                F DF 10433                     000000000  Y000000000 338   0000000000000.00 0000000.00   0000000.00                             000000000000000                                                                                                                                                     01418 A000000000000 0000000000000.26     00050 02200                  
02949630237090076DT67590675900000009092800888800000010180088824001193041900010200412021020230000000323804123000000000185918438419XXXXXX3166       VS11    0001111   NYV1 A E303042011610853N840000000003238MGTH00    05DNPLANET VAPOR #500        091921    VD84000000003238 N  599976781988                            000000000+                F DF 00381                     000000000  N000000000       0000000000000.00 0000000.00   0000000.00                             000000000000000                                                                                                                                                     01418 A000000000000 0000000000000.41     00800 01500                  
02949640237090077DT67590675900000009092800888800000010180088824001193041900010200420021020230000000863704123000000000185918481582XXXXXX1612       VS11    0001111   NYV1 A E583042019201002N840000000008637BQFL00    07DNPLANET VAPOR #500        103821    VD84000000008637 N  599976781988                            000000000+                F DF 10433                     000000000  Y000000000 338   0000000000000.00 0000000.00   0000000.00                             000000000000000                                                                                                                                                     01418 A000000000000 0000000000000.26     00050 02200                  
02949650237090078DT67590675900000009092800888800000010180088824001193041900010200438021020230000000369104123000000000185918400022XXXXXX7314       VS11    0001111   NYV1 A E303042020364189N84000000000369198MW00    07DNPLANET VAPOR #500        429543    VD84000000003691 N  599976781988                            000000000+                F DF 10433                     000000000  Y000000000 338   0000000000000.00 0000000.00   0000000.00                             000000000000000                                                                                                                                                     01418 A000000000000 0000000000000.24     00050 02200                  
02949660237090079DT67590675900000009092800888800000010180088824001193041900010200446021020230000000073404123000000000185918400022XXXXXX7314       VK04VS111111111   NYV1 A E583042021360033N840000000000734H3T700    07DNPLANET VAPOR #500        767015    VD84000000000734 N  599976781988                            000000000+                F DF 10439                     000000000  Y000000000 331   0000000000000.00 0000000.00   0000000.00                             000000000000000                                                                                                                                                     01418 F000000000000 0000000000000.22     00050 02200                  
02949670237090080DT67590675900000009092800888800000010180088824001193041900010200453021020230000000172204123000000000185918447976XXXXXX3401       VS11    0001111   NYV1 A E583042027339577N840000000001722QMBN00    05DNPLANET VAPOR #500        094533    VD84000000001722 N  599976781988                            000000000+                F DF 00381                     000000000  N000000000       0000000000000.00 0000000.00   0000000.00                             000000000000000                                                                                                                                                     01418 A000000000000 0000000000000.29     00800 01500                  
02949680237090081DT67590675900000009092800888800000010180088824001193041900010200461021020230000000583004123000000000185918400022XXXXXX5573       VS11    0001111   NYV1 A E303042029176109N840000000005830TXRR00    07DNPLANET VAPOR #500        362231    VD84000000005830 N  599976781988                            000000000+                F DF 10433                     000000000  Y000000000 338   0000000000000.00 0000000.00   0000000.00                             000000000000000                                                                                                                                                     01418 A000000000000 0000000000000.25     00050 02200                  
02949690237090082DT67590675900000009092800888800000010180088824001193041900010200479021020230000000427504123000000000185918400344XXXXXX6827       VS11    0001111   NYV1 A E583042032194836N840000000004275B5W400    05DNPLANET VAPOR #500        00198B    VS84000000004275 N  599976781988                            000000000+                B CB 12111                     000000000  N000000000 495   0000000000000.00 0000000.00   0000000.00                             000000000000000                                                                                                                                                     01418 A000000000000 0000000000000.81     01650 01000                  
02949700237090083DT67590675900000009092800888800000033080088876759003041900010200011021020230000000064704123000000000185918461675XXXXXX8373                         NY 2 0 N               N840000000000647      IL  05DNPLANET VAPOR #500        316580    DB84000000000647 N  599976781988                            000000000+                     09590                                N          279   0000000000000.00 0000000.00   0000000.00                             000000000000000                                                                                                                                                     01418  000000000000 0000000000000.20     00800 00000                  
02949710237090084DT67590675900000009092800888800000033080088876759003041900010200029021020230000000051604123000000000185918440393XXXXXX2875                         NY 2 0 N               N840000000000516      IL  07DNPLANET VAPOR #500        521939    DB84000000000516 N  599976781988                            000000000+                     09576                                N          346   0000000000000.00 0000000.00   0000000.00                             000000000000000                                                                                                                                                     01418  000000000000 0000000000000.21     01150 00000                  
02949720237090085DT67590675900000009092800888800000033080088876759003041900010200037021020230000000647704123000000000185918430602XXXXXX3682                         NY 2 0 N               N840000000006477      IL  07DNPLANET VAPOR #500        790682    DB84000000006477 N  599976781988                            000000000+                     09590                                N          279   0000000000000.00 0000000.00   0000000.00                             000000000000000                                                                                                                                                     01418  000000000000 0000000000000.67     00800 00000                  
02949730237090086DT67590675900000009092800888800000033080088876759003041900010200045021020230000000169904123000000000185918531258XXXXXX8775                         NY41 0 N               N840000000001699      ME  07DNPLANET VAPOR #500        160785    DB84000000001699 N  599976781988                            000000000+                     09601                                1          MA1   0000000000000.00 0000000.00   0000000.00                             000000000000000                                                                                                                                                     01418  000000000000 0000000000000.23     00050 00000                  
02949740237090087DT67590675900000009092800888800000033080088876759003041900010200052021020230000000215904123000000000185918400022XXXXXX9316                         NY 2 0 N               N840000000002159      IL  07DNPLANET VAPOR #500        185015    DB84000000002159 N  599976781988                            000000000+                     09580                                Y          342   0000000000000.00 0000000.00   0000000.00                             000000000000000                                                                                                                                                     01418  000000000000 0000000000000.23     00050 00000                  
02949750237090088DT67590675900000009092800888800000033080088876759003041900010200060021020230000000539904123000000000185918473703XXXXXX3521                         NY 2 0 N               N840000000005399      IL  07DNPLANET VAPOR #500        093443    DB84000000005399 N  599976781988                            000000000+                     09580                                Y          342   0000000000000.00 0000000.00   0000000.00                             000000000000000                                                                                                                                                     01418  000000000000 0000000000000.25     00050 00000                  
02949760237090089DT67590675900000009092800888800000033080088876759003041900010200078021020230000000474804123000000000185918427199XXXXXX0841                         NY 2 0 N               N840000000004748      IL  05DNPLANET VAPOR #500        167619    DB84000000004748 N  599976781988                            000000000+                     09573                                N          121   0000000000000.00 0000000.00   0000000.00                             000000000000000                                                                                                                                                     01418  000000000000 0000000000000.53     00800 00000                  
02949770237090090DT67590675900000009092800888800000033080088876759003041900010200086021020230000000427504123000000000185918430602XXXXXX6502                         NY 2 0 N               N840000000004275      IL  05DNPLANET VAPOR #500        173728    DB84000000004275 N  599976781988                            000000000+                     09590                                N          279   0000000000000.00 0000000.00   0000000.00                             000000000000000                                                                                                                                                     01418  000000000000 0000000000000.49     00800 00000                  
02949780237090091DT67590675900000009092800888800000033080088876759003041900010200094021020230000000280604123000000000185918474474XXXXXX8929                         NY 2 0 N               N840000000002806      IL  07DNPLANET VAPOR #500        101182    DB84000000002806 N  599976781988                            000000000+                     09580                                Y          342   0000000000000.00 0000000.00   0000000.00                             000000000000000                                                                                                                                                     01418  000000000000 0000000000000.23     00050 00000                  
02949790237090092DT67590675900000009092800888800000033080088876759003041900010200102021020230000000539704123000000000185918406502XXXXXX2537                         NY 2 0 N               N840000000005397      IL  07DNPLANET VAPOR #500        024239    DB84000000005397 N  599976781988                            000000000+                     09580                                Y          342   0000000000000.00 0000000.00   0000000.00                             000000000000000                                                                                                                                                     01418  000000000000 0000000000000.25     00050 00000                  
02949800237090093DT67590675900000009092800888800000033080088876759003041900010200110021020230000000712604123000000000185918400022XXXXXX3435                         NY 2 0 N               N840000000007126      IL  07DNPLANET VAPOR #500        305243    DB84000000007126 N  599976781988                            000000000+                     09580                                Y          342   0000000000000.00 0000000.00   0000000.00                             000000000000000                                                                                                                                                     01418  000000000000 0000000000000.26     00050 00000                  
02949810237090094DT67590675900000009092800888800000033080088876759003041900010200128021020230000000183504123000000000185918478373XXXXXX6221                         NY 2 0 N               N840000000001835      IL  07DNPLANET VAPOR #500        013323    DB84000000001835 N  599976781988                            000000000+                     09584                                Y          273   0000000000000.00 0000000.00   0000000.00                             000000000000000                                                                                                                                                     01418  000000000000 0000000000000.23     00050 00000                  
02949820237090095DT67590675900000009092800888800000033080088876759003041900010200136021020230000000213704123000000000185918438419XXXXXX5495                         NY 2 0 N               N840000000002137      IL  05DNPLANET VAPOR #500        692118    DB84000000002137 N  599976781988                            000000000+                     09573                                N          121   0000000000000.00 0000000.00   0000000.00                             000000000000000                                                                                                                                                     01418  000000000000 0000000000000.32     00800 00000                  
02949830237090096DT67590675900000009092800888800000033080088876759003041900010200144021020230000000205104123000000000185918461675XXXXXX0989                         NY 2 0 N               N840000000002051      IL  05DNPLANET VAPOR #500        390530    DB84000000002051 N  599976781988                            000000000+                     09590                                N          279   0000000000000.00 0000000.00   0000000.00                             000000000000000                                                                                                                                                     01418  000000000000 0000000000000.31     00800 00000                  
02949840237090097DT67590675900000009092800888800000033080088876759003041900010200151021020230000000534404123000000000185918400022XXXXXX4059                         NY 2 0 N               N840000000005344      IL  07DNPLANET VAPOR #500        751956    DB84000000005344 N  599976781988                            000000000+                     09580                                Y          342   0000000000000.00 0000000.00   0000000.00                             000000000000000                                                                                                                                                     01418  000000000000 0000000000000.25     00050 00000                  
02949850237090098DT67590675900000009092800888800000033080088876759003041900010200169021020230000000442604123000000000185918430602XXXXXX3654                         NY 2 0 N               N840000000004426      IL  05DNPLANET VAPOR #500        205406    DB84000000004426 N  599976781988                            000000000+                     09590                                N          279   0000000000000.00 0000000.00   0000000.00                             000000000000000                                                                                                                                                     01418  000000000000 0000000000000.50     00800 00000                  
02949860237090099DT67590675900000009092800888800000033080088876759003041900010200185021020230000000201904123000000000185918461675XXXXXX8373                         NY 2 0 N               N840000000002019      IL  05DNPLANET VAPOR #500        446140    DB84000000002019 N  599976781988                            000000000+                     09590                                N          279   0000000000000.00 0000000.00   0000000.00                             000000000000000                                                                                                                                                     01418  000000000000 0000000000000.31     00800 00000                  
02949870237090100DT67590675900000009092800888800000033080088876759003041900010200193021020230000000582904123000000000185918408540XXXXXX7602                         NY 2 0 N               N840000000005829      IL  07DNPLANET VAPOR #500        031503    DB84000000005829 N  599976781988                            000000000+                     09584                                Y          273   0000000000000.00 0000000.00   0000000.00                             000000000000000                                                                                                                                                     01418  000000000000 0000000000000.25     00050 00000                  
02949880237090101BH6759067590000000659380088880000090170210202304123000000000163031    0000090001020036N8008886759C02122023                                                                                                                                                                                                                                                                                                                                                                                                                                                                                                                                                                                                 
02949890237090102DT67590675900000006593800888800000010180088824001193041900010200016021020230000000971604123000000000163031473703XXXXXX5839       VS11    0001111   NYV1 A E303041542661407N840000000009716F46F00    05DNPLANET VAPOR #100        085157    VD84000000009716 N  599976768560                            000000000+                F DF 10433                     000000000  Y000000000 338   0000000000000.00 0000000.00   0000000.00                             000000000000000                                                                                                                                                     01418 A000000000000 0000000000000.27     00050 02200                  
02949900237090103DT67590675900000006593800888800000010180088824001193041900010200024021020230000001554704123000000000163031400022XXXXXX6155       VS11    0001111   NYV1 A E583041555411337N840000000015547HC2P00    05DNPLANET VAPOR #100        175632    VD84000000015547 N  599976768560                            000000000+                F DF 10433                     000000000  Y000000000 338   0000000000000.00 0000000.00   0000000.00                             000000000000000                                                                                                                                                     01418 A000000000000 0000000000000.30     00050 02200                  
02949910237090104DT67590675900000006593800888800000010180088824001193041900010200032021020230000000485904123000000000163031430602XXXXXX9120       VS11    0001111   NYV1 A E303041556961784N8400000000048599C8Z00    05DNPLANET VAPOR #100        649272    VD84000000004859 N  599976768560                            000000000+                F DF 00381                     000000000  N000000000       0000000000000.00 0000000.00   0000000.00                             000000000000000                                                                                                                                                     01418 A000000000000 0000000000000.54     00800 01500                  
02949920237090105DT67590675900000006593800888800000010180088824001193041900010200040021020230000000647704123000000000163031461675XXXXXX2615       VS11    0001111   NYV1 A E463041557525267N840000000006477RQ4Q00    05DNPLANET VAPOR #100        286830    VD84000000006477 N  599976768560                            000000000+                F DF 00381                     000000000  N000000000       0000000000000.00 0000000.00   0000000.00                             000000000000000                                                                                                                                                     01418 A000000000000 0000000000000.67     00800 01500                  
02949930237090106DT67590675900000006593800888800000010180088824001193041900010200057021020230000000291404123000000000163031441707XXXXXX2248       VS11    0001111   NYV1 A E463041573670396N840000000002914FP9300    07DNPLANET VAPOR #100        624644    VD84000000002914 N  599976768560                            000000000+                F PF 08170                     000000000  N000000000       0000000000000.00 0000000.00   0000000.00                             000000000000000                                                                                                                                                     01418 A000000000000 0000000000000.49     01150 01500                  
02949940237090107DT67590675900000006593800888800000010180088873011003041900010200061021020230000000496604123000000000163031376743XXXXX2002                          NY 1 0 N007002537111063N840000000004966          05DNPLANET VAPOR INC #100    824041    AM84000000004966 N  599976768560                            000000000+51010155434C 258     11261                     000000000                   0000000000000.00 0000000.00   0000000.00                             000000000000000 61248972086759675900000006593 PLANET VAPOR INC #100    9300 TOP NOTCH RD STE 1  8035462263      29223     KEVIN@MOOREDISTRO.COM                     01418  000000000000 0000000000000.89     01600 00000                  
02949950237090108DT67590675900000006593800888800000010180088877287283041900010200075021020230000000129404123000000000163031527395XXXXXX6190       MS02WI09          NY 1 0 AMPGADU7WI0210  N840000000001294          05DNPLANET VAPOR #100        518150    MD84000000001294 N  599976768560                            000000000+M10101C5434C    MPG  11964                     000000000  N                0000000000000.00 0000000.00   0000000.00                             000000000000000                                                                                                                                                   B101418  000000000000 0000000000000.30     01150 01500                  
02949960237090109DT67590675900000006593800888800000010180088824001193041900010200081021020230000000647704123000000000163031474474XXXXXX0513       VS11    0001111   NYV1 A E463041589632933N840000000006477S35M00    05DNPLANET VAPOR #100        102821    VD84000000006477 N  599976768560                            000000000+                F DF 10433                     000000000  Y000000000 338   0000000000000.00 0000000.00   0000000.00                             000000000000000                                                                                                                                                     01418 A000000000000 0000000000000.25     00050 02200                  
02949970237090110DT67590675900000006593800888800000010180088824001193041900010200099021020230000000137504123000000000163031474474XXXXXX0513       VK04VS111111111   NYV1 A E383041590415643N840000000001375XX5P00    05DNPLANET VAPOR #100        102640    VD84000000001375 N  599976768560                            000000000+                F DF 10439                     000000000  Y000000000 331   0000000000000.00 0000000.00   0000000.00                             000000000000000                                                                                                                                                     01418 F000000000000 0000000000000.23     00050 02200                  
02949980237090111DT67590675900000006593800888800000010180088824001193041900010200107021020230000000356204123000000000163031430602XXXXXX6689       VS11    0001111   NYV1 A E583041605226359N840000000003562NQLW00    05DNPLANET VAPOR #100        663012    VD84000000003562 N  599976768560                            000000000+                F DF 00381                     000000000  N000000000       0000000000000.00 0000000.00   0000000.00                             000000000000000                                                                                                                                                     01418 A000000000000 0000000000000.43     00800 01500                  
02949990237090112DT67590675900000006593800888800000010180088824001193041900010200115021020230000000917804123000000000163031414720XXXXXX5115       VS11    0001111   NYV1 A E303041608010389N840000000009178MGFM00    05DNPLANET VAPOR #100        09660C    VS84000000009178 N  599976768560                            000000000+                C CC 12112                     000000000  N000000000 497   0000000000000.00 0000000.00   0000000.00                             000000000000000                                                                                                                                                     01418 A000000000000 0000000000001.61     01650 01000                  
02950000237090113DT67590675900000006593800888800000010180088877287283041900010200125021020230000000280704123000000000163031520760XXXXXX1418       MS02WI09          NY 1 0 AMDJJHGOJW0210  N840000000002807          05DNPLANET VAPOR #100        015514    MD84000000002807 N  599976768560                            000000000+M10101C5434C    MDJ  00402                     000000000  N                0000000000000.00 0000000.00   0000000.00                             000000000000000                                                                                                                                                   B101418  000000000000 0000000000000.44     01050 01500                  
02950010237090114DT67590675900000006593800888800000010180088824001193041900010200131021020230000000334604123000000000163031465078XXXXXX1816       VS11    0001111   NYV1 A E303041621390676N8400000000033468MNS00    07DNPLANET VAPOR #100        101854    VD84000000003346 N  599976768560                            000000000+                F DF 10433                     000000000  Y000000000 338   0000000000000.00 0000000.00   0000000.00                             000000000000000                                                                                                                                                     01418 A000000000000 0000000000000.24     00050 02200                  
02950020237090115DT67590675900000006593800888800000010180088824001193041900010200149021020230000000215904123000000000163031440393XXXXXX8961       VS11    0001111   NYV1 A E463041648945515N840000000002159LPJ300    05DNPLANET VAPOR #100        946493    VD84000000002159 N  599976768560                            000000000+                F PF 08170                     000000000  N000000000       0000000000000.00 0000000.00   0000000.00                             000000000000000                                                                                                                                                     01418 A000000000000 0000000000000.40     01150 01500                  
02950030237090116DT67590675900000006593800888800000010180088824001193041900010200156021020230000000130104123000000000163031432739XXXXXX5538       VK04VS111111111   NYV1 A E463041666353500N840000000001301Q8CP00    05DNPLANET VAPOR #100        663007    VD84000000001301 N  599976768560                            000000000+                F DF 10439                     000000000  Y000000000 331   0000000000000.00 0000000.00   0000000.00                             000000000000000                                                                                                                                                     01418 F000000000000 0000000000000.23     00050 02200                  
02950040237090117DT67590675900000006593800888800000010180088824001193041900010200164021020230000000356204123000000000163031423223XXXXXX4730       VS11    0001111   NYV1 A E463041680115523N840000000003562F69W00    05DNPLANET VAPOR #100        029203    VD84000000003562 N  599976768560                            000000000+                F DF 00381                     000000000  N000000000       0000000000000.00 0000000.00   0000000.00                             000000000000000                                                                                                                                                     01418 A000000000000 0000000000000.43     00800 01500                  
02950050237090118DT67590675900000006593800888800000010180088824001193041900010200172021020230000000398304123000000000163031411870XXXXXX9018       VS11    0001111   NYV1 A E383041688149162N840000000003983K48700    05DNPLANET VAPOR #100        010571    VS84000000003983 N  599976768560                            000000000+                C CC 12112                     000000000  N000000000 497   0000000000000.00 0000000.00   0000000.00                             000000000000000                                                                                                                                                     01418 A000000000000 0000000000000.76     01650 01000                  
02950060237090119DT67590675900000006593800888800000010180088824001193041900010200180021020230000000280704123000000000163031429449XXXXXX7832       VS11    0001111   NYV1 A E303041693832215N8400000000028077L9600    05DNPLANET VAPOR #100        589180    VD84000000002807 N  599976768560                            000000000+                F DF 00381                     000000000  N000000000       0000000000000.00 0000000.00   0000000.00                             000000000000000                                                                                                                                                     01418 A000000000000 0000000000000.37     00800 01500                  
02950070237090120DT67590675900000006593800888800000010180088824001193041900010200198021020230000000280704123000000000163031400022XXXXXX5492       VS11    0001111   NYV1 A E383041696387029N840000000002807S38200    05DNPLANET VAPOR #100        055219    VD84000000002807 N  599976768560                            000000000+                F DF 10433                     000000000  Y000000000 338   0000000000000.00 0000000.00   0000000.00                             000000000000000                                                                                                                                                     01418 A000000000000 0000000000000.23     00050 02200                  
02950080237090121DT67590675900000006593800888800000010180088877287283041900010200208021020230000000388604123000000000163031542217XXXXXX8724       MS02WI09          NY 1 0 AMCSCTGDZQ0210  N840000000003886          05DNPLANET VAPOR #100        04628B    MC84000000003886 N  599976768560                            000000000+M10101C5434C    MCS  00353                     000000000  N                0000000000000.00 0000000.00   0000000.00                             000000000000000                                                                                                                                                   B101418  000000000000 0000000000000.80     01800 01000                  
02950090237090122DT67590675900000006593800888800000010180088877287283041900010200216021020230000000205104123000000000163031531258XXXXXX6383       MS02WI09          NY 1 0 AMDJI0IQZP0210  N840000000002051          05DNPLANET VAPOR #100        104649    MD84000000002051 N  599976768560                            000000000+M10101C5434C    MDJ  10815                     000000000  1                0000000000000.00 0000000.00   0000000.00                             000000000000000                                                                                                                                                   B101418  000000000000 0000000000000.23     00050 02200                  
02950100237090123DT67590675900000006593800888800000010180088824001193041900010200222021020230000000388704123000000000163031473703XXXXXX8688       VS11    0001111   NYV1 A E303041715694507N840000000003887W7QW00    05DNPLANET VAPOR #100        090477    VD84000000003887 N  599976768560                            000000000+                F DF 10433                     000000000  Y000000000 338   0000000000000.00 0000000.00   0000000.00                             000000000000000                                                                                                                                                     01418 A000000000000 0000000000000.24     00050 02200                  
02950110237090124DT67590675900000006593800888800000010180088824001193041900010200230021020230000000252604123000000000163031400022XXXXXX5478       VS11    0001111   NYV1 A E463041722647624N840000000002526VFR300    05DNPLANET VAPOR #100        757183    VD84000000002526 N  599976768560                            000000000+                F DF 10433                     000000000  Y000000000 338   0000000000000.00 0000000.00   0000000.00                             000000000000000                                                                                                                                                     01418 A000000000000 0000000000000.23     00050 02200                  
02950120237090125DT67590675900000006593800888800000010180088824001193041900010200248021020230000000340104123000000000163031400022XXXXXX0876       VS11    0001111   NYV1 A E463041735131985N840000000003401W84T00    05DNPLANET VAPOR #100        890066    VD84000000003401 N  599976768560                            000000000+                F DF 10433                     000000000  Y000000000 338   0000000000000.00 0000000.00   0000000.00                             000000000000000                                                                                                                                                     01418 A000000000000 0000000000000.24     00050 02200                  
02950130237090126DT67590675900000006593800888800000010180088877287283041900010200257021020230000000734204123000000000163031553453XXXXXX6601       MS02WI09          NY 1 0 AMPLPCCFMT0210  N840000000007342          05DNPLANET VAPOR #100        010936    MC84000000007342 N  599976768560                            000000000+M10101C5434C    MPL  00015                     000000000  N                0000000000000.00 0000000.00   0000000.00                             000000000000000                                                                                                                                                     01418  000000000000 0000000000001.31     01650 01000                  
02950140237090127DT67590675900000006593800888800000010180088824001193041900010200263021020230000000237504123000000000163031473703XXXXXX0208       VS11    0001111   NYV1 A E383041757987137N840000000002375M55Q00    05DNPLANET VAPOR #100        048583    VD84000000002375 N  599976768560                            000000000+                F DF 10433                     000000000  Y000000000 338   0000000000000.00 0000000.00   0000000.00                             000000000000000                                                                                                                                                     01418 A000000000000 0000000000000.23     00050 02200                  
02950150237090128DT67590675900000006593800888800000010180088824001193041900010200271021020230000001069104123000000000163031453506XXXXXX7392       VS11    0001111   NYV1 A E383041766811703N8400000000106919K3J00    05DNPLANET VAPOR #100        H62550    VD84000000010691 N  599976768560                            000000000+                F DF 10433                     000000000  Y000000000 338   0000000000000.00 0000000.00   0000000.00                             000000000000000                                                                                                                                                     01418 A000000000000 0000000000000.27     00050 02200                  
02950160237090129DT67590675900000006593800888800000010180088824001193041900010200289021020230000000653804123000000000163031473703XXXXXX1933       VS11    0001111   NYV1 A E303041768515994N8400000000065382V5X00    05DNPLANET VAPOR #100        020581    VD84000000006538 N  599976768560                            000000000+                F DF 10433                     000000000  Y000000000 338   0000000000000.00 0000000.00   0000000.00                             000000000000000                                                                                                                                                     01418 A000000000000 0000000000000.25     00050 02200                  
02950170237090130DT67590675900000006593800888800000010180088824001193041900010200297021020230000000115904123000000000163031473703XXXXXX6700       VK04VS111111111   NYV1 A E383041769471296N8400000000011592F7T00    05DNPLANET VAPOR #100        051771    VD84000000001159 N  599976768560                            000000000+                F DF 10439                     000000000  Y000000000 331   0000000000000.00 0000000.00   0000000.00                             000000000000000                                                                                                                                                     01418 F000000000000 0000000000000.23     00050 02200                  
02950180237090131DT67590675900000006593800888800000010180088824001193041900010200305021020230000000388604123000000000163031406095XXXXXX4202       VS11    0001111   NYV1 A E583041786676331N840000000003886GVPK00    05DNPLANET VAPOR #100        03232D    VS84000000003886 N  599976768560                            000000000+                D CD 12113                     000000000  N000000000 499   0000000000000.00 0000000.00   0000000.00                             000000000000000                                                                                                                                                     01418 A000000000000 0000000000000.92     02100 01000                  
02950190237090132DT67590675900000006593800888800000010180088824001193041900010200313021020230000000925604123000000000163031427199XXXXXX9476       VS11    0001111   NYV1 A E463041794433657N840000000009256MGFQ00    05DNPLANET VAPOR #100        713181    VD84000000009256 N  599976768560                            000000000+                F DF 00381                     000000000  N000000000       0000000000000.00 0000000.00   0000000.00                             000000000000000                                                                                                                                                     01418 A000000000000 0000000000000.89     00800 01500                  
02950200237090133DT67590675900000006593800888800000010180088824001193041900010200321021020230000000280704123000000000163031400022XXXXXX7773       VS11    0001111   NYV1 A E383041795268299N840000000002807R3D900    07DNPLANET VAPOR #100        567184    VD84000000002807 N  599976768560                            000000000+                F DF 10433                     000000000  Y000000000 338   0000000000000.00 0000000.00   0000000.00                             000000000000000                                                                                                                                                     01418 A000000000000 0000000000000.23     00050 02200                  
02950210237090134DT67590675900000006593800888800000010180088824001193041900010200339021020230000000323904123000000000163031473703XXXXXX3616       VS11    0001111   NYV1 A E383041796559057N840000000003239VTKT00    05DNPLANET VAPOR #100        023189    VD84000000003239 N  599976768560                            000000000+                F DF 10433                     000000000  Y000000000 338   0000000000000.00 0000000.00   0000000.00                             000000000000000                                                                                                                                                     01418 A000000000000 0000000000000.24     00050 02200                  
02950220237090135DT67590675900000006593800888800000010180088824001193041900010200347021020230000000437204123000000000163031400022XXXXXX3050       VS11    0001111   NYV1 A E583041797706087N840000000004372QM5P00    05DNPLANET VAPOR #100        570730    VD84000000004372 N  599976768560                            000000000+                F DF 10433                     000000000  Y000000000 338   0000000000000.00 0000000.00   0000000.00                             000000000000000                                                                                                                                                     01418 A000000000000 0000000000000.24     00050 02200                  
02950230237090136DT67590675900000006593800888800000010180088824001193041900010200354021020230000000269904123000000000163031406095XXXXXX6186       VS11    0001111   NYV1 A E463041839406738N840000000002699MB7R00    05DNPLANET VAPOR #100        07025B    VS84000000002699 N  599976768560                            000000000+                B CB 12111                     000000000  N000000000 495   0000000000000.00 0000000.00   0000000.00                             000000000000000                                                                                                                                                     01418 A000000000000 0000000000000.55     01650 01000                  
