03281630001950002BH6759067590000002092580011280000090170428202311823000000000005946    0000090001110015Y8001126759C05012023                                                                                                                                                                                                                                                                                                                                                                                                                                                                                                                                                                                                 
03281640001950003DT67590675900000020925800112800000010180011224001193118900011100155042820230000000594611823000000000005946440393XXXXXX3799               2111111   NYV4 A7W583118561628610N840000000005946D95R00    01DNJ K DISTRIBUTION INC     597131    VD84000000005946 NP1549977712156   8291136489               000000000+                F PF 08175                     000000000  N000000000       0000000000000.00 0000000.00   0000000.00                             000000000000000                                                                                                                                                     01424 G000000005946 0000000000001.24     01750 02000                  
03281650001950001P16759067590000002092580011280000001010000000000000000                             2000000000000000000000000              000000000000                    0000000000000000000000000                    000000000000                                                                                                                                                                                                                                                                                                                                                                                                                                                                                        
03281660001950004BH675906759000000198288001098000009017042820231182300000000009291601970000090001399222N8001096759D05012023                                                                                                                                                                                                                                                                                                                                                                                                                                                                                                                                                                                                 
03281670001950005DT67590675900000019828800109800000010180010924001193118900013965118042720230000001987011823000000000092916423908XXXXXX7771               2111111   NNV4 A7W583114162058632N840000000019870C74P00    01DNKETOFUSION 8885968154    8102700197VD84000000019870 NP1599977547467   D4B5975ECETAF178D25684F  000000000+                F DF 00000                     000000000  Y000000000 338   0000000000000.00 0000000.00   0000000.00             000000000019870D000000000000000                                                                                                                                                     01424 G000000019870 0000000000000.00     00000 00000                  
03281680001950001P16759067590000001982880010980000001010000000000000000                             2000000000000000000000000              000000000000                    0000000000000000000000000                    000000000000                                                                                                                                                                                                                                                                                                                                                                                                                                                                                        
03281690001950006DT67590675900000019828800109800000010180010924001193118900013966926042720230000001394811823000000000092916408104XXXXXX6861               2111111   NNV4 A7W303114477115837N840000000013948NT8800    01DNKETOFUSION 8885968154    8871900197VD84000000013948 NP1599977547467   0AD592B80FT19B5704BA454  000000000+                F DF 00000                     000000000  N000000000       0000000000000.00 0000000.00   0000000.00             000000000013948D000000000000000                                                                                                                                                     01424 G000000013948 0000000000000.00     00000 00000                  
03281700001950001P16759067590000001982880010980000001010000000000000000                             2000000000000000000000000              000000000000                    0000000000000000000000000                    000000000000                                                                                                                                                                                                                                                                                                                                                                                                                                                                                        
03281710001950007DT67590675900000019828800109800000010180010924001193118900013971793042720230000001987011823000000000092916418555XXXXXX9594               2111111   NNV4 A7W303114585050988N840000000019870NPC800    01DNKETOFUSION 8885968154    05164A0197VS84000000019870 NP1599977547467   B2278AC0C8TF9D4BE71B02A  000000000+                A CA 00000                     000000000  N000000000 492   0000000000000.00 0000000.00   0000000.00             000000000019870D000000000000000                                                                                                                                                     01424 G000000019870 0000000000000.00     00000 00000                  
03281720001950001P16759067590000001982880010980000001010000000000000000                             2000000000000000000000000              000000000000                    0000000000000000000000000                    000000000000                                                                                                                                                                                                                                                                                                                                                                                                                                                                                        
03281730001950008DT67590675900000019828800109800000010180010987287283118900013973451042720230000001499011823000000000092916542217XXXXXX9531       ME03KE06MS02      NN 4607AMCSXVY6L60424  N840000000014990          81DNKETOFUSION 8885968154    00177B0197MC84000000014990 N  599977547467   7647630DF5T8DE02ED6310B  000000000+600450S00130    MCS  00000                     000000000  N                0000000000000.00 0000000.00   0000000.00             000000000014990D000000000000000                                                                                                                                                   U001424  000000000000 0000000000000.00     00000 00000                  
03281740001950009DT67590675900000019828800109800000010180010924001193118900013973476042720230000001987011823000000000092916415982XXXXXX3366               2111111   NNV4 A7W303114639042889N840000000019870X4LC00    01DNKETOFUSION 8885968154    0345040197VD84000000019870 NP1599977547467   F82638064CT40B3E5F88D9E  000000000+                F DF 00000                     000000000  N000000000       0000000000000.00 0000000.00   0000000.00             000000000019870D000000000000000                                                                                                                                                     01424 G000000019870 0000000000000.00     00000 00000                  
03281750001950001P16759067590000001982880010980000001010000000000000000                             2000000000000000000000000              000000000000                    0000000000000000000000000                    000000000000                                                                                                                                                                                                                                                                                                                                                                                                                                                                                        
03281760001950010DT67590675900000019828800109800000010180010987287283118900013973519042720230000002487011823000000000092916514400XXXXXX9971       ME03KE06MS02      NN 4607AMDJRJQPL60424  N840000000024870          81DNKETOFUSION 8885968154    3790340197MD84000000024870 N  599977547467   57DFC01305TD7AD58C5341C  000000000+600450S00130    MDJ  00000                     000000000  N                0000000000000.00 0000000.00   0000000.00             000000000024870D000000000000000                                                                                                                                                   U001424  000000000000 0000000000000.00     00000 00000                  
03281770001950011DT67590675900000019828800109800000010180010987287283118900013973725042720230000002487011823000000000092916545510XXXXXX8085       ME03KE06MS02      NN 4607AMDSAPCWT80424  N840000000024870          81DNKETOFUSION 8885968154    0540620197MD84000000024870 N  599977547467   BCBE71A8C6T4EC10BD770F4  000000000+600450S00130    MDS  00000                     000000000  1                0000000000000.00 0000000.00   0000000.00             000000000024870D000000000000000                                                                                                                                                   U001424  000000000000 0000000000000.00     00000 00000                  
03281780001950012DT67590675900000019828800109800000010680010987287283118900013991958042820230000000654811823000000000092916517805XXXXXX3503                         NN 4607AMPL1MVAGP0428  N840000000006548          81CNKETOFUSION 8885968154    0631410197MC84000000006548 N  599977547467   B0F4C31ADCT540775EE2D41  000000000+600450S00130    MPL  00000                     000000000  N                0000000000000.00 0000000.00   0000000.00             000000000006548C000000000000000                                                                                                                                                     01424  000000000000 0000000000000.00     00000 00000                  
03281790001950013DT67590675900000019828800109800000010680010974001193118900013991960042820230000000596111823000000000092916443242XXXXXX8298               0000000   NNV4 07T583118210748449N840000000005961WLZN00    01CNKETOFUSION 8885968154    0251140197VD84000000005961 NP1599977547467   C2B5F7D589TFEE3D6CF9C51  000000000+                F DF 00000                     000000000  N000000000 369   0000000000000.00 0000000.00   0000000.00             000000000005961C000000000000000                                                                                                                                                     01424  000000005961 0000000000000.00     00000 00000                  
03281800001950001P16759067590000001982880010980000001060000000000000000                             2000000000000000000000000              000000000000                    0000000000000000000000000                    000000000000                                                                                                                                                                                                                                                                                                                                                                                                                                                                                        
03281810001950014DT67590675900000019828800109800000010680010974001193118900013991978042820230000002487011823000000000092916427082XXXXXX3166               0000000   NNV4 07T303118228786069N840000000024870Z42R00    01CNKETOFUSION 8885968154    0283410197VS84000000024870 NP1599977547467   5D01DA3486TEDB90F18DC02  000000000+                D CD 00000                     000000000  N000000000 166   0000000000000.00 0000000.00   0000000.00             000000000024870C000000000000000                                                                                                                                                     01424  000000024870 0000000000000.00     00000 00000                  
03281820001950001P16759067590000001982880010980000001060000000000000000                             2000000000000000000000000              000000000000                    0000000000000000000000000                    000000000000                                                                                                                                                                                                                                                                                                                                                                                                                                                                                        
03281830001950015DT67590675900000019828800109800000010680010987287283118900013992030042820230000000327411823000000000092916514887XXXXXX2306                         NN 4607AMPLYH83PP0428  N840000000003274          81CNKETOFUSION 8885968154    0167950197MC84000000003274 N  599977547467   1E7780629DT62F12E265411  000000000+600450S00130    MPL  00000                     000000000  N                0000000000000.00 0000000.00   0000000.00             000000000003274C000000000000000                                                                                                                                                     01424  000000000000 0000000000000.00     00000 00000                  
03281840001950016DT67590675900000019828800109800000010680010987287283118900013992048042820230000002487011823000000000092916514887XXXXXX2306                         NN 4607AMPLL6RKH00428  N840000000024870          81CNKETOFUSION 8885968154    0344230197MC84000000024870 N  599977547467   1E7780629DT8280A198A7B8  000000000+600450S00130    MPL  00000                     000000000  N                0000000000000.00 0000000.00   0000000.00             000000000024870C000000000000000                                                                                                                                                     01424  000000000000 0000000000000.00     00000 00000                  
03281850001950017DT67590675900000019828800109800000010680010974001193118900013992059042820230000002487011823000000000092916402282XXXXXX2196               0000000   NNV4 07T303118458737983N840000000024870WW5800    01CNKETOFUSION 8885968154    0285210197VD84000000024870 NP1599977547467   A91933BF91T17819A8F9DC9  000000000+                F DF 00000                     000000000  N000000000 369   0000000000000.00 0000000.00   0000000.00             000000000024870C000000000000000                                                                                                                                                     01424  000000024870 0000000000000.00     00000 00000                  
03281860001950001P16759067590000001982880010980000001060000000000000000                             2000000000000000000000000              000000000000                    0000000000000000000000000                    000000000000                                                                                                                                                                                                                                                                                                                                                                                                                                                                                        
03281870001950018DT67590675900000019828800109800000010680010974001193118900013992067042820230000002255011823000000000092916414720XXXXXX8309               0000000   NNV4 07T383118499442868N840000000022550PBK800    01CNKETOFUSION 8885968154    06743D0197VS84000000022550 NP1599977547467   D8DED63E24T27C55FC1975A  000000000+                D CD 00000                     000000000  N000000000 166   0000000000000.00 0000000.00   0000000.00             000000000022550C000000000000000                                                                                                                                                     01424  000000022550 0000000000000.00     00000 00000                  
03281880001950001P16759067590000001982880010980000001060000000000000000                             2000000000000000000000000              000000000000                    0000000000000000000000000                    000000000000                                                                                                                                                                                                                                                                                                                                                                                                                                                                                        
03281890001950019DT67590675900000019828800109800000010680010987287283118900013992246042820230000000327411823000000000092916523957XXXXXX2135                         NN94607N         0428  N840000000000000          81CNKETOFUSION 8885968154          0197MD84000000003274 N  599977547467   4CACDA2D44T75F125070564  000000000+600450S00130    MDJ  00000                     000000000  N                0000000000000.00 0000000.00   0000000.00             000000000003274C000000000000000                                                                                                                                                     01424  000000000000 0000000000000.00     00000 00000                  
03281900001950020DT67590675900000019828800109800000010680010987287283118900013992253042820230000001987011823000000000092916523957XXXXXX2135                         NN94607N         0428  N840000000000000          81CNKETOFUSION 8885968154          0197MD84000000019870 N  599977547467   4CACDA2D44T26125F1ECB03  000000000+600450S00130    MDJ  00000                     000000000  N                0000000000000.00 0000000.00   0000000.00             000000000019870C000000000000000                                                                                                                                                     01424  000000000000 0000000000000.00     00000 00000                  
03281910001950021DT67590675900000019828800109800000010680010974001193118900013992133042820230000000418211823000000000092916422843XXXXXX9200               0000000   NNV4 07T303118572929035N840000000004182F32485    01CNKETOFUSION 8885968154    0505140197VD84000000004182 NP1599977547467   6FC6D0ACA3T91B4A73DF671  000000000+                F DF 00000                     000000000  N000000000 369   0000000000000.00 0000000.00   0000000.00             000000000004182C000000000000000                                                                                                                                                     01424  000000004182 0000000000000.00     00000 00000                  
03281920001950001P16759067590000001982880010980000001060000000000000000                             2000000000000000000000000              000000000000                    0000000000000000000000000                    000000000000                                                                                                                                                                                                                                                                                                                                                                                                                                                                                        
03281930001950022DT67590675900000019828800109800000010680010987287283118900013992147042820230000000412011823000000000092916542418XXXXXX8836                         NN 4607AMPLOGC9KY0428  N840000000004120          81CNKETOFUSION 8885968154    2900040197MC84000000004120 N  599977547467   5D57850447T93F884899809  000000000+600450S00130    MPL  00000                     000000000  N                0000000000000.00 0000000.00   0000000.00             000000000004120C000000000000000                                                                                                                                                     01424  000000000000 0000000000000.00     00000 00000                  
03281940001950023DT67590675900000019828800109800000010680010974001193118900013992158042820230000000635811823000000000092916410039XXXXXX0253               0000000   NNV4 07T383118626754843N840000000006358Z9BS00    01CNKETOFUSION 8885968154    59732C0197VS84000000006358 NP1599977547467   0FFFA717F4TED44988B5887  000000000+                C CC 00000                     000000000  N000000000 166   0000000000000.00 0000000.00   0000000.00             000000000006358C000000000000000                                                                                                                                                     01424  000000006358 0000000000000.00     00000 00000                  
03281950001950001P16759067590000001982880010980000001060000000000000000                             2000000000000000000000000              000000000000                    0000000000000000000000000                    000000000000                                                                                                                                                                                                                                                                                                                                                                                                                                                                                        
03281960001950024DT67590675900000019828800109800000010680010974001193118900013992166042820230000001194811823000000000092916446542XXXXXX9353               0000000   NNV4 07T383118649644002N840000000011948CHXW00    01CNKETOFUSION 8885968154    0281340197VS84000000011948 NP1599977547467   36524C5ADET3BCFEF9AB318  000000000+                D CD 00000                     000000000  N000000000 166   0000000000000.00 0000000.00   0000000.00             000000000011948C000000000000000                                                                                                                                                     01424  000000011948 0000000000000.00     00000 00000                  
03281970001950001P16759067590000001982880010980000001060000000000000000                             2000000000000000000000000              000000000000                    0000000000000000000000000                    000000000000                                                                                                                                                                                                                                                                                                                                                                                                                                                                                        
03281980001950025DT67590675900000019828800109800000010680010987287283118900013992170042820230000000259511823000000000092916514978XXXXXX3801                         NN 4607AMDJK0SWK80428  N840000000002595          81CNKETOFUSION 8885968154    0317020197MD84000000002595 N  599977547467   ED4D568E73T4F09542AA7B9  000000000+600450S00130    MDJ  00000                     000000000  1                0000000000000.00 0000000.00   0000000.00             000000000002595C000000000000000                                                                                                                                                     01424  000000000000 0000000000000.00     00000 00000                  
03281990001950026DT67590675900000019828800109800000010680010987287283118900013992188042820230000000327411823000000000092916514978XXXXXX3801                         NN 4607AMDJRGCTKY0428  N840000000003274          81CNKETOFUSION 8885968154    0317220197MD84000000003274 N  599977547467   ED4D568E73T698152F37CB5  000000000+600450S00130    MDJ  00000                     000000000  1                0000000000000.00 0000000.00   0000000.00             000000000003274C000000000000000                                                                                                                                                     01424  000000000000 0000000000000.00     00000 00000                  
03282000001950027DT67590675900000019828800109800000010680010987287283118900013992196042820230000001291511823000000000092916540404XXXXXX1722                         NN 4607AMDJNI8IK80428  N840000000012915          81CNKETOFUSION 8885968154    0303570197MD84000000012915 N  599977547467   54D62AFA6FT68B5FF31C816  000000000+600450S00130    MDJ  00000                     000000000  1                0000000000000.00 0000000.00   0000000.00             000000000012915C000000000000000                                                                                                                                                     01424  000000000000 0000000000000.00     00000 00000                  
03282010001950028DT67590675900000019828800109800000010680010987287283118900013992204042820230000001987011823000000000092916517805XXXXXX3041                         NN 4607AMPLKTOYS00428  N840000000019870          81CNKETOFUSION 8885968154    0580860197MC84000000019870 N  599977547467   5B853067ACT5853E3B6CF27  000000000+600450S00130    MPL  00000                     000000000  N                0000000000000.00 0000000.00   0000000.00             000000000019870C000000000000000                                                                                                                                                     01424  000000000000 0000000000000.00     00000 00000                  
03282020001950029DT67590675900000019828800109800000010680010974001193118900013992216042820230000001987011823000000000092916438854XXXXXX7738               0000000   NNV4 07T583118723856236N840000000019870WRGX00    01CNKETOFUSION 8885968154    08767D0197VS84000000019870 NP1599977547467   4F22CC3461T5E79001C2CDF  000000000+                D CD 00000                     000000000  N000000000 166   0000000000000.00 0000000.00   0000000.00             000000000019870C000000000000000                                                                                                                                                     01424  000000019870 0000000000000.00     00000 00000                  
03282030001950001P16759067590000001982880010980000001060000000000000000                             2000000000000000000000000              000000000000                    0000000000000000000000000                    000000000000                                                                                                                                                                                                                                                                                                                                                                                                                                                                                        
03282040001950030DT67590675900000019828800109800000010680010974001193118900013992224042820230000000998511823000000000092916426684XXXXXX9548               0000000   NNV4 07T463118786563319N8400000000099858TVC00    01CNKETOFUSION 8885968154    01690C0197VS84000000009985 NP1599977547467   AC0D7E84E8TBCFBDCF39E82  000000000+                C CC 00000                     000000000  N000000000 166   0000000000000.00 0000000.00   0000000.00             000000000009985C000000000000000                                                                                                                                                     01424  000000009985 0000000000000.00     00000 00000                  
03282050001950001P16759067590000001982880010980000001060000000000000000                             2000000000000000000000000              000000000000                    0000000000000000000000000                    000000000000                                                                                                                                                                                                                                                                                                                                                                                                                                                                                        
03282060001950031BH6759067590000002325980011680000090170428202311823000000000125292    0000090001271246Y8001166759C05012023                                                                                                                                                                                                                                                                                                                                                                                                                                                                                                                                                                                                 
03282070001950032DT67590675900000023259800116800000010180011687287283118900012712223042820230000002178911823000000000125292521876XXXXXX7835       ME03KE06MS02      NY 4607AMWEM4JJBQ0428  N840000000021789          81DNGFORCEHEMP844-258-9322   39170Z    MC84000000021789 N  549977768166   998A55A359T206A2FCA8A64  000000000+600450S00130    MWE  00737                     000000000  N                0000000000000.00 0000000.00   0000000.00                             000000000000000                                                                                                                                                   U001424  000000000000 0000000000005.77     02600 01000                  
03282080001950033DT67590675900000023259800116800000010180011624001193118900012712339042820230000002178911823000000000125292483316XXXXXX7304               2111111   NYV4 A7W463118739342893N840000000021789WVBX00    01DNGFORCEHEMP844-258-9322   053216    VD84000000021789 NP1549977768166   01057F751CTBF64F34FD52A  000000000+                F DF 10420                     000000000  Y000000000 338   0000000000000.00 0000000.00   0000000.00                             000000000000000                                                                                                                                                     01424 G000000021789 0000000000000.33     00050 02200                  
03282090001950001P16759067590000002325980011680000001010000000000000000                             2000000000000000000000000              000000000000                    0000000000000000000000000                    000000000000                                                                                                                                                                                                                                                                                                                                                                                                                                                                                        
03282100001950034DT67590675900000023259800116800000010180011624001193118900012712396042820230000002178911823000000000125292403766XXXXXX3065               2111111   NYV4 A7W463118782040198N8400000000217893CCF00    01DNGFORCEHEMP844-258-9322   618234    VS84000000021789 NP1549977768166   6F2D73176DT69F7E818F55E  000000000+                A CA 12106                     000000000  N000000000 492   0000000000000.00 0000000.00   0000000.00                             000000000000000                                                                                                                                                     01424 G000000021789 0000000000004.22     01890 01000                  
03282110001950001P16759067590000002325980011680000001010000000000000000                             2000000000000000000000000              000000000000                    0000000000000000000000000                    000000000000                                                                                                                                                                                                                                                                                                                                                                                                                                                                                        
03282120001950035DT67590675900000023259800116800000010180011624001193118900012712404042820230000000544911823000000000125292403766XXXXXX3065               2111111   NYV4 A7W583118782305214N8400000000054493LQL00    01DNGFORCEHEMP844-258-9322   618234    VS84000000005449 NP1549977768166   6F2D73176DT36B9A57904D8  000000000+                A CA 12106                     000000000  N000000000 492   0000000000000.00 0000000.00   0000000.00                             000000000000000                                                                                                                                                     01424 G000000005449 0000000000001.13     01890 01000                  
03282130001950001P16759067590000002325980011680000001010000000000000000                             2000000000000000000000000              000000000000                    0000000000000000000000000                    000000000000                                                                                                                                                                                                                                                                                                                                                                                                                                                                                        
03282140001950036DT67590675900000023259800116800000010180011687287283118900012712421042820230000002178911823000000000125292510805XXXXXX0398       ME03KE06MS02      NY 4607AMDJQ15FVY0428  N840000000021789          81DNGFORCEHEMP844-258-9322   072712    MD84000000021789 N  549977768166   F38F3442E3TB6293FE04AC1  000000000+600450S00130    MDJ  10813                     000000000  1                0000000000000.00 0000000.00   0000000.00                             000000000000000                                                                                                                                                   U001424  000000000000 0000000000000.33     00050 02200                  
03282150001950037DT67590675900000023259800116800000010180011687287283118900012712439042820230000000544911823000000000125292510805XXXXXX0398       ME03KE06MS02      NY 4607AMDJMEHTVX0428  N840000000005449          81DNGFORCEHEMP844-258-9322   072741    MD84000000005449 N  549977768166   F38F3442E3T687D639CB34F  000000000+600450S00130    MDJ  10813                     000000000  1                0000000000000.00 0000000.00   0000000.00                             000000000000000                                                                                                                                                   U001424  000000000000 0000000000000.25     00050 02200                  
03282160001950038DT67590675900000023259800116800000010180011687287283118900012712454042820230000002178911823000000000125292521333XXXXXX3052       ME03KE06MS02      NY 4607AMWETJL6VY0428  N840000000021789          81DNGFORCEHEMP844-258-9322   02836P    MC84000000021789 N  549977768166   2AE825C9E3TEB0101C87F8B  000000000+600450S00130    MWE  00737                     000000000  N                0000000000000.00 0000000.00   0000000.00                             000000000000000                                                                                                                                                   U001424  000000000000 0000000000005.77     02600 01000                  
03282170001950039DT67590675900000023259800116800000010180011687287283118900012712462042820230000000544911823000000000125292521333XXXXXX3052       ME03KE06MS02      NY 4607AMWEOZ4UVX0428  N840000000005449          81DNGFORCEHEMP844-258-9322   02807P    MC84000000005449 N  549977768166   2AE825C9E3T95074F16C704  000000000+600450S00130    MWE  00737                     000000000  N                0000000000000.00 0000000.00   0000000.00                             000000000000000                                                                                                                                                   U001424  000000000000 0000000000001.52     02600 01000                  
03282180001950040BH6759067590000002684980012580000090170428202311823000000001298335    0000090001081365Y8001256759C05012023                                                                                                                                                                                                                                                                                                                                                                                                                                                                                                                                                                                                 
03282190001950041DT67590675900000026849800125800000010180012587287283118900010811696042720230000002245011823000000001298335542784XXXXXX1002       ME03KE06MS02      NY 4607AMCSUIVIY70427  N840000000022450          81DNCBD8885133385            027072    MC84000000022450 N  599978220273   842C4EDACDT80D4BCCBA6AE  000000000+600450S00130    MCS  00013                     000000000  N                0000000000000.00 0000000.00   0000000.00                             000000000000000                                                                                                                                                   U001424  000000000000 0000000000004.48     01950 01000                  
03282200001950042DT67590675900000026849800125800000010180012524001193118900010811711042720230000001977011823000000001298335434256XXXXXX3407               2111111   NYV4 A7W383118003035432N840000000019770VTLD00    01DNCBD8885133385            043146    VD84000000019770 NP1599978220273   766464F175T1FD40B71A63F  000000000+                F DF 10420                     000000000  Y000000000 338   0000000000000.00 0000000.00   0000000.00                             000000000000000                                                                                                                                                     01424 G000000019770 0000000000000.32     00050 02200                  
03282210001950001P16759067590000002684980012580000001010000000000000000                             2000000000000000000000000              000000000000                    0000000000000000000000000                    000000000000                                                                                                                                                                                                                                                                                                                                                                                                                                                                                        
03282220001950043DT67590675900000026849800125800000010180012587287283118900010811720042720230000001506611823000000001298335552433XXXXXX0196       ME03KE06MS02      NY 4607AMPLNLU9260427  N840000000015066          81DNCBD8885133385            04361M    MC84000000015066 N  599978220273   EA92314382TAD1D0F31C654  000000000+600450S00130    MPL  00580                     000000000  N                0000000000000.00 0000000.00   0000000.00                             000000000000000                                                                                                                                                   U001424  000000000000 0000000000003.26     02100 01000                  
03282230001950044DT67590675900000026849800125800000010180012587287283118900010811738042720230000000619811823000000001298335552433XXXXXX0196       ME03KE06MS02      NY 4607AMPLXMDV260427  N840000000006198          81DNCBD8885133385            09506M    MC84000000006198 N  599978220273   EA92314382T18FB5F898802  000000000+600450S00130    MPL  00580                     000000000  N                0000000000000.00 0000000.00   0000000.00                             000000000000000                                                                                                                                                   U001424  000000000000 0000000000001.40     02100 01000                  
03282240001950045DT67590675900000026849800125800000010180012587287283118900010811753042720230000002477011823000000001298335552433XXXXXX2317       ME03KE06PT01      NY 4607AMCWN2B4260427  N840000000024770          81DNCBD8885133385            04879S    MC84000000024770 N  599978220273   4165B971BATC65DDE3E97F1  000000000+600450S00130    MCW  02182                     000000000  N                0000000000000.00 0000000.00   0000000.00                             000000000000000                                                                                                                                                   U001424  000000000000 0000000000006.54     02600 01000                  
03282250001950046DT67590675900000026849800125800000010180012587287283118900010811761042720230000000979811823000000001298335552433XXXXXX2317       ME03KE06PT01      NY 4607AMCWIYAS240427  N840000000009798          81DNCBD8885133385            00764S    MC84000000009798 N  599978220273   4165B971BAT2BC62E44F5E4  000000000+600450S00130    MCW  02182                     000000000  N                0000000000000.00 0000000.00   0000000.00                             000000000000000                                                                                                                                                   U001424  000000000000 0000000000002.65     02600 01000                  
03282260001950047DT67590675900000026849800125800000010180012524001193118900010811794042720230000001977011823000000001298335430325XXXXXX0619               2111111   NYV4 A7W303118022203589N840000000019770RXB800    01DNCBD8885133385            D8RRLD    VD84000000019770 NP1599978220273   09B16498E9TCAC79B53D571  000000000+                F PF 10453                     000000000  Y000000000 338   0000000000000.00 0000000.00   0000000.00                             000000000000000                                                                                                                                                     01424 G000000019770 0000000000000.32     00050 02200                  
03282270001950001P16759067590000002684980012580000001010000000000000000                             2000000000000000000000000              000000000000                    0000000000000000000000000                    000000000000                                                                                                                                                                                                                                                                                                                                                                                                                                                                                        
03282280001950048DT67590675900000026849800125800000010180012524001193118900010811810042720230000001977011823000000001298335428208XXXXXX0039               2111111   NYV4 A7W463118024030020N840000000019770KS4400    01DNCBD8885133385            044020    VD84000000019770 NP1599978220273   97D5EEB234T9BB9DDF8F6C1  000000000+                F DF 10420                     000000000  Y000000000 338   0000000000000.00 0000000.00   0000000.00                             000000000000000                                                                                                                                                     01424 G000000019770 0000000000000.32     00050 02200                  
03282290001950001P16759067590000002684980012580000001010000000000000000                             2000000000000000000000000              000000000000                    0000000000000000000000000                    000000000000                                                                                                                                                                                                                                                                                                                                                                                                                                                                                        
03282300001950049DT67590675900000026849800125800000010180012524001193118900010811828042720230000001489211823000000001298335414718XXXXXX5176               2111111   NYV4 A7W303118025821425N840000000014892HL2K00    01DNCBD8885133385            027411    VS84000000014892 NP1599978220273   48F171C1C2TF1A77C376AA9  000000000+                D CD 12109                     000000000  N000000000 498   0000000000000.00 0000000.00   0000000.00                             000000000000000                                                                                                                                                     01424 G000000014892 0000000000003.82     02500 01000                  
03282310001950001P16759067590000002684980012580000001010000000000000000                             2000000000000000000000000              000000000000                    0000000000000000000000000                    000000000000                                                                                                                                                                                                                                                                                                                                                                                                                                                                                        
03282320001950050DT67590675900000026849800125800000010180012524001193118900010811836042720230000000489911823000000001298335414718XXXXXX5176               2111111   NYV4 A7W463118026200534N840000000004899FQNP00    01DNCBD8885133385            027074    VS84000000004899 NP1599978220273   48F171C1C2T57EBCDF3C399  000000000+                D CD 12109                     000000000  N000000000 498   0000000000000.00 0000000.00   0000000.00                             000000000000000                                                                                                                                                     01424 G000000004899 0000000000001.32     02500 01000                  
03282330001950001P16759067590000002684980012580000001010000000000000000                             2000000000000000000000000              000000000000                    0000000000000000000000000                    000000000000                                                                                                                                                                                                                                                                                                                                                                                                                                                                                        
03282340001950051DT67590675900000026849800125800000010180012524001193118900010811844042720230000000309911823000000001298335414718XXXXXX5176               2111111   NYV4 A7W463118026406593N840000000003099K97500    01DNCBD8885133385            027962    VS84000000003099 NP1599978220273   48F171C1C2T3704C6041C3C  000000000+                D CD 12109                     000000000  N000000000 498   0000000000000.00 0000000.00   0000000.00                             000000000000000                                                                                                                                                     01424 G000000003099 0000000000000.87     02500 01000                  
03282350001950001P16759067590000002684980012580000001010000000000000000                             2000000000000000000000000              000000000000                    0000000000000000000000000                    000000000000                                                                                                                                                                                                                                                                                                                                                                                                                                                                                        
03282360001950052DT67590675900000026849800125800000010180012524001193118900010811851042720230000000149511823000000001298335414718XXXXXX5176               2111111   NYV4 A7W303118026619771N8400000000014958S9V00    01DNCBD8885133385            027932    VS84000000001495 NP1599978220273   48F171C1C2TBE2234D6A809  000000000+                D CD 12109                     000000000  N000000000 498   0000000000000.00 0000000.00   0000000.00                             000000000000000                                                                                                                                                     01424 G000000001495 0000000000000.47     02500 01000                  
03282370001950001P16759067590000002684980012580000001010000000000000000                             2000000000000000000000000              000000000000                    0000000000000000000000000                    000000000000                                                                                                                                                                                                                                                                                                                                                                                                                                                                                        
03282380001950053DT67590675900000026849800125800000010180012524001193118900010811885042720230000002245011823000000001298335414720XXXXXX0853               2111111   NYV4 A7W383118032881182N8400000000224502QBW00    01DNCBD8885133385            03472D    VS84000000022450 NP1599978220273   CC13573FE7TC4ABBDBB692A  000000000+                D CD 12109                     000000000  N000000000 498   0000000000000.00 0000000.00   0000000.00                             000000000000000                                                                                                                                                     01424 G000000022450 0000000000005.71     02500 01000                  
03282390001950001P16759067590000002684980012580000001010000000000000000                             2000000000000000000000000              000000000000                    0000000000000000000000000                    000000000000                                                                                                                                                                                                                                                                                                                                                                                                                                                                                        
03282400001950054DT67590675900000026849800125800000010180012587287283118900010811902042720230000002245011823000000001298335532795XXXXXX3077       ME03KE06PT01      NY 4607AMCWYRMK260427  N840000000022450          81DNCBD8885133385            02771Z    MC84000000022450 N  599978220273   76D0EF5685T776E0D0F6994  000000000+600450S00130    MCW  00642                     000000000  N                0000000000000.00 0000000.00   0000000.00                             000000000000000                                                                                                                                                   U001424  000000000000 0000000000005.04     02200 01000                  
03282410001950055DT67590675900000026849800125800000010180012587287283118900010811910042720230000000979811823000000001298335532795XXXXXX3077       ME03KE06PT01      NY 4607AMCWXUNNZC0427  N840000000009798          81DNCBD8885133385            02771Z    MC84000000009798 N  599978220273   76D0EF5685T7D6C6F2D5B11  000000000+600450S00130    MCW  00642                     000000000  N                0000000000000.00 0000000.00   0000000.00                             000000000000000                                                                                                                                                   U001424  000000000000 0000000000002.26     02200 01000                  
03282420001950056DT67590675900000026849800125800000010180012524001193118900010811950042720230000002477011823000000001298335440066XXXXXX8604               2111111   NYV4 A7W383118075045700N84000000002477034LJ00    01DNCBD8885133385            01340D    VS84000000024770 NP1599978220273   834B17226BT70101DE9CB96  000000000+                D CD 12109                     000000000  N000000000 498   0000000000000.00 0000000.00   0000000.00                             000000000000000                                                                                                                                                     01424 G000000024770 0000000000006.29     02500 01000                  
03282430001950001P16759067590000002684980012580000001010000000000000000                             2000000000000000000000000              000000000000                    0000000000000000000000000                    000000000000                                                                                                                                                                                                                                                                                                                                                                                                                                                                                        
03282440001950057DT67590675900000026849800125800000010180012524001193118900010811968042720230000001977011823000000001298335435895XXXXXX0007               2111111   NYV4 A7W463118077985249N840000000019770TSNN00    01DNCBD8885133385            210817    VD84000000019770 NP1599978220273   4D807D17AET3E1470D3AF42  000000000+                F DF 00415                     000000000  N000000000       0000000000000.00 0000000.00   0000000.00                             000000000000000                                                                                                                                                     01424 G000000019770 0000000000003.41     01650 01500                  
03282450001950001P16759067590000002684980012580000001010000000000000000                             2000000000000000000000000              000000000000                    0000000000000000000000000                    000000000000                                                                                                                                                                                                                                                                                                                                                                                                                                                                                        
03282460001950058DT67590675900000026849800125800000010180012524001193118900010811976042720230000000979811823000000001298335435895XXXXXX0007               2111111   NYV4 A7W583118078927737N8400000000097985PGK00    01DNCBD8885133385            210952    VD84000000009798 NP1599978220273   4D807D17AET3F2AF5231A81  000000000+                F DF 00415                     000000000  N000000000       0000000000000.00 0000000.00   0000000.00                             000000000000000                                                                                                                                                     01424 G000000009798 0000000000001.77     01650 01500                  
03282470001950001P16759067590000002684980012580000001010000000000000000                             2000000000000000000000000              000000000000                    0000000000000000000000000                    000000000000                                                                                                                                                                                                                                                                                                                                                                                                                                                                                        
03282480001950059DT67590675900000026849800125800000010180012524001193118900010811984042720230000000619811823000000001298335435895XXXXXX0007               2111111   NYV4 A7W383118079255102N84000000000619875SQ00    01DNCBD8885133385            211024    VD84000000006198 NP1599978220273   4D807D17AET01D5D2DB16BB  000000000+                F DF 00415                     000000000  N000000000       0000000000000.00 0000000.00   0000000.00                             000000000000000                                                                                                                                                     01424 G000000006198 0000000000001.17     01650 01500                  
03282490001950001P16759067590000002684980012580000001010000000000000000                             2000000000000000000000000              000000000000                    0000000000000000000000000                    000000000000                                                                                                                                                                                                                                                                                                                                                                                                                                                                                        
03282500001950060DT67590675900000026849800125800000010180012576509753118900010812030042720230000001480311823000000001298335601100XXXXXX5497   BA00                  NY 4 07N873101091229654N840000000014803    00    01DNCBD8885133385            02819R    DS84000000014803 N  599978220273070                         000000000+1015104910600   DCCDI11325332427  230522000000 000000000  0          460   0000000000000.00 0000000.00   0000000.00                             000000000000000                                                                                                                                                     01424  000000000000 0000000000003.11     02030 01000                  
03282510001950061DT67590675900000026849800125800000010180012576509753118900010812048042720230000000979811823000000001298335601100XXXXXX5497   BA00                  NY 4 07N863101091359529N840000000009798    00    01DNCBD8885133385            02844R    DS84000000009798 N  599978220273070                         000000000+1015104910600   DCCDI11325499324  230535000000 000000000  0          460   0000000000000.00 0000000.00   0000000.00                             000000000000000                                                                                                                                                     01424  000000000000 0000000000002.09     02030 01000                  
03282520001950062DT67590675900000026849800125800000010180012524001193118900010812057042720230000001206611823000000001298335445101XXXXXX8880               2111111   NYV4 A7W383118149387407N8400000000120667ZLR00    01DNCBD8885133385            177577    VD84000000012066 NP1599978220273   3ADA3079BAT70C4A966AF74  000000000+                F DF 10420                     000000000  Y000000000 338   0000000000000.00 0000000.00   0000000.00                             000000000000000                                                                                                                                                     01424 G000000012066 0000000000000.28     00050 02200                  
03282530001950001P16759067590000002684980012580000001010000000000000000                             2000000000000000000000000              000000000000                    0000000000000000000000000                    000000000000                                                                                                                                                                                                                                                                                                                                                                                                                                                                                        
03282540001950063DT67590675900000026849800125800000010180012524001193118900010812081042820230000001977011823000000001298335434258XXXXXX9430               2111111   NYV4 A7W463118183048549N840000000019770HQDR00    01DNCBD8885133385            064998    VD84000000019770 NP1599978220273   BEB45EB4F7T6F887343A2F2  000000000+                F DF 10420                     000000000  Y000000000 338   0000000000000.00 0000000.00   0000000.00                             000000000000000                                                                                                                                                     01424 G000000019770 0000000000000.32     00050 02200                  
03282550001950001P16759067590000002684980012580000001010000000000000000                             2000000000000000000000000              000000000000                    0000000000000000000000000                    000000000000                                                                                                                                                                                                                                                                                                                                                                                                                                                                                        
03282560001950064DT67590675900000026849800125800000010180012587287283118900010812132042820230000001977011823000000001298335517063XXXXXX4532       ME03KE06MS02      NY 4607AMDJP0CTPP0428  N840000000019770          81DNCBD8885133385            071100    MD84000000019770 N  599978220273   14CE820FCAT01B24695E688  000000000+600450S00130    MDJ  10813                     000000000  1                0000000000000.00 0000000.00   0000000.00                             000000000000000                                                                                                                                                   U001424  000000000000 0000000000000.32     00050 02200                  
03282570001950065DT67590675900000026849800125800000010180012524001193118900010812156042820230000002745011823000000001298335410040XXXXXX3914               2111111   NYV4 A7W463118443272614N840000000027450F27L00    01DNCBD8885133385            81911G    VB84000000027450 NP1599978220273   C206BCC31DTCFB218A7BC03  000000000+                G CG 00690                     000000000  N000000000 231   0000000000000.00 0000000.00   0000000.00                             000000000000000                                                                                                                                                     01424 G000000027450 0000000000007.37     02650 01000                  
03282580001950001P16759067590000002684980012580000001010000000000000000                             2000000000000000000000000              000000000000                    0000000000000000000000000                    000000000000                                                                                                                                                                                                                                                                                                                                                                                                                                                                                        
03282590001950066DT67590675900000026849800125800000010180012524001193118900010812164042820230000001480311823000000001298335426684XXXXXX8893               2111111   NYV4 A7W583118450032579N8400000000148033QR400    01DNCBD8885133385            00121C    VS84000000014803 NP1599978220273   70442C9FAATE44002CA3CE7  000000000+                C CC 12108                     000000000  N000000000 496   0000000000000.00 0000000.00   0000000.00                             000000000000000                                                                                                                                                     01424 G000000014803 0000000000003.13     02050 01000                  
03282600001950001P16759067590000002684980012580000001010000000000000000                             2000000000000000000000000              000000000000                    0000000000000000000000000                    000000000000                                                                                                                                                                                                                                                                                                                                                                                                                                                                                        
03282610001950067DT67590675900000026849800125800000010180012587287283118900010812173042820230000002245011823000000001298335552393XXXXXX4863       ME03KE06PT01      NY 4607AMCWM0ZVPU0428  N840000000022450          81DNCBD8885133385            06619Z    MC84000000022450 N  599978220273   B3C735F2C5T4039DAD925B2  000000000+600450S00130    MCW  00642                     000000000  N                0000000000000.00 0000000.00   0000000.00                             000000000000000                                                                                                                                                   U001424  000000000000 0000000000005.04     02200 01000                  
03282620001950068DT67590675900000026849800125800000010180012524001193118900010812180042820230000002477011823000000001298335470111XXXXXX2908               2111111   NYV4 A7W383118456437135N840000000024770SMMB00    01DNCBD8885133385            028891    VS84000000024770 NP1599978220273   E9F04FFBDDTBDE834DAFEFA  000000000+                B CB 12107                     000000000  N000000000 494   0000000000000.00 0000000.00   0000000.00                             000000000000000                                                                                                                                                     01424 G000000024770 0000000000005.15     02040 01000                  
03282630001950001P16759067590000002684980012580000001010000000000000000                             2000000000000000000000000              000000000000                    0000000000000000000000000                    000000000000                                                                                                                                                                                                                                                                                                                                                                                                                                                                                        
03282640001950069DT67590675900000026849800125800000010180012524001193118900010812198042820230000000979811823000000001298335470111XXXXXX2908               2111111   NYV4 A7W583118456928286N8400000000097989P9Z00    01DNCBD8885133385            028561    VS84000000009798 NP1599978220273   E9F04FFBDDT9B68B878E8D5  000000000+                B CB 12107                     000000000  N000000000 494   0000000000000.00 0000000.00   0000000.00                             000000000000000                                                                                                                                                     01424 G000000009798 0000000000002.10     02040 01000                  
03282650001950001P16759067590000002684980012580000001010000000000000000                             2000000000000000000000000              000000000000                    0000000000000000000000000                    000000000000                                                                                                                                                                                                                                                                                                                                                                                                                                                                                        
03282660001950070DT67590675900000026849800125800000010180012524001193118900010812263042820230000001789211823000000001298335414709XXXXXX5095               2111111   NYV4 A7W383118472225890N840000000017892FN8H00    01DNCBD8885133385            01097D    VS84000000017892 NP1599978220273   0B5AFD6389TFB0C631DFEE1  000000000+                D CD 12109                     000000000  N000000000 498   0000000000000.00 0000000.00   0000000.00                             000000000000000                                                                                                                                                     01424 G000000017892 0000000000004.57     02500 01000                  
03282670001950001P16759067590000002684980012580000001010000000000000000                             2000000000000000000000000              000000000000                    0000000000000000000000000                    000000000000                                                                                                                                                                                                                                                                                                                                                                                                                                                                                        
03282680001950071DT67590675900000026849800125800000010180012587287283118900010812314042820230000001977011823000000001298335552433XXXXXX5357       ME03KE06PT01      NY 4607AMCWZFCDPP0428  N840000000019770          81DNCBD8885133385            03371S    MC84000000019770 N  599978220273   CD8D7D9B6DTA7D4F1634CD3  000000000+600450S00130    MCW  02182                     000000000  N                0000000000000.00 0000000.00   0000000.00                             000000000000000                                                                                                                                                   U001424  000000000000 0000000000005.24     02600 01000                  
03282690001950072DT67590675900000026849800125800000010180012587287283118900010812322042820230000000979811823000000001298335552433XXXXXX5357       ME03KE06PT01      NY 4607AMCWRGEHPP0428  N840000000009798          81DNCBD8885133385            01189S    MC84000000009798 N  599978220273   CD8D7D9B6DTC52CD11148BA  000000000+600450S00130    MCW  02182                     000000000  N                0000000000000.00 0000000.00   0000000.00                             000000000000000                                                                                                                                                   U001424  000000000000 0000000000002.65     02600 01000                  
03282700001950073DT67590675900000026849800125800000010680012574001193118900010812359042820230000000485011823000000001298335470111XXXXXX2908               0000000   NYV4 07T463118487291941N840000000004850B6L800    01CNCBD8885133385            028682    VS84000000004850 NP1599978220273   E9F04FFBDDT9B68B878E8D5  000000000+                B CB 00245                     000000000  N000000000 166   0000000000000.00 0000000.00   0000000.00                             000000000000000                                                                                                                                                     01424  000000004850-0000000000000.85     01760 00000                  
03282710001950001P16759067590000002684980012580000001060000000000000000                             2000000000000000000000000              000000000000                    0000000000000000000000000                    000000000000                                                                                                                                                                                                                                                                                                                                                                                                                                                                                        
03282720001950074DT67590675900000026849800125800000010180012524001193118900010812396042820230000001977011823000000001298335448915XXXXXX0163               2111111   NYV4 A7W463118495043218N8400000000197708XTX00    01DNCBD8885133385            028685    VS84000000019770 NP1599978220273   C5F691B571TF2214E9CA6A1  000000000+                D CD 12109                     000000000  N000000000 498   0000000000000.00 0000000.00   0000000.00                             000000000000000                                                                                                                                                     01424 G000000019770 0000000000005.04     02500 01000                  
03282730001950001P16759067590000002684980012580000001010000000000000000                             2000000000000000000000000              000000000000                    0000000000000000000000000                    000000000000                                                                                                                                                                                                                                                                                                                                                                                                                                                                                        
03282740001950075DT67590675900000026849800125800000010180012587287283118900010812439042820230000001460311823000000001298335545800XXXXXX7255       ME03KE06MS02      NY 4607AMPLKBXLPP0428  N840000000014603          81DNCBD8885133385            07726B    MC84000000014603 N  599978220273   D0110D3B36T33FB77452289  000000000+600450S00130    MPL  00580                     000000000  N                0000000000000.00 0000000.00   0000000.00                             000000000000000                                                                                                                                                   U001424  000000000000 0000000000003.17     02100 01000                  
03282750001950076DT67590675900000026849800125800000010180012587287283118900010812462042820230000002245011823000000001298335517800XXXXXX2792       ME03KE06MS02      NY 4607AMCSKJ2UPP0428  N840000000022450          81DNCBD8885133385            028574    MC84000000022450 N  599978220273   A36020ACABT20E5F2E70210  000000000+600450S00130    MCS  00013                     000000000  N                0000000000000.00 0000000.00   0000000.00                             000000000000000                                                                                                                                                   U001424  000000000000 0000000000004.48     01950 01000                  
03282760001950077DT67590675900000026849800125800000010180012587287283118900010812504042820230000001977011823000000001298335541065XXXXXX0060       ME03KE06PT01      NY 4607AMCWKVVCPP0428  N840000000019770          81DNCBD8885133385            52001P    MC84000000019770 N  599978220273   A59FFF9AF0T6C30E7FBDFCC  000000000+600450S00130    MCW  00642                     000000000  N                0000000000000.00 0000000.00   0000000.00                             000000000000000                                                                                                                                                   U001424  000000000000 0000000000004.45     02200 01000                  
03282770001950078DT67590675900000026849800125800000010180012587287283118900010812520042820230000002245011823000000001298335514759XXXXXX9443       ME03KE06MS02      NY 4607AMDJILU1PU0428  N840000000022450          81DNCBD8885133385            093847    MD84000000022450 N  599978220273   503038B16CT4F1820B5D2EF  000000000+600450S00130    MDJ  10813                     000000000  1                0000000000000.00 0000000.00   0000000.00                             000000000000000                                                                                                                                                   U001424  000000000000 0000000000000.33     00050 02200                  
03282780001950079DT67590675900000026849800125800000010180012524001193118900010812545042820230000001480311823000000001298335490070XXXXXX1712               2111111   NYV4 A7W383118543012015N8400000000148037QCW00    01DNCBD8885133385            010511    VD84000000014803 NP1599978220273   67CEF19F03TC02E270AA263  000000000+                F DF 10420                     000000000  Y000000000 338   0000000000000.00 0000000.00   0000000.00                             000000000000000                                                                                                                                                     01424 G000000014803 0000000000000.29     00050 02200                  
03282790001950001P16759067590000002684980012580000001010000000000000000                             2000000000000000000000000              000000000000                    0000000000000000000000000                    000000000000                                                                                                                                                                                                                                                                                                                                                                                                                                                                                        
03282800001950080DT67590675900000026849800125800000010180012524001193118900010812594042820230000002245011823000000001298335415975XXXXXX2799               2111111   NYV4 A7W303118549043793N840000000022450DFJ300    01DNCBD8885133385            066735    VD84000000022450 NP1599978220273   9EEB741962TED20F990E692  000000000+                F DF 10420                     000000000  Y000000000 338   0000000000000.00 0000000.00   0000000.00                             000000000000000                                                                                                                                                     01424 G000000022450 0000000000000.33     00050 02200                  
03282810001950001P16759067590000002684980012580000001010000000000000000                             2000000000000000000000000              000000000000                    0000000000000000000000000                    000000000000                                                                                                                                                                                                                                                                                                                                                                                                                                                                                        
03282820001950081DT67590675900000026849800125800000010180012524001193118900010812602042820230000001977011823000000001298335410039XXXXXX0279               2111111   NYV4 A7W463118549750487N840000000019770LZGD00    01DNCBD8885133385            20373C    VS84000000019770 NP1599978220273   CF67FB5F4DT50E3A65D2984  000000000+                C CC 12108                     000000000  N000000000 496   0000000000000.00 0000000.00   0000000.00                             000000000000000                                                                                                                                                     01424 G000000019770 0000000000004.15     02050 01000                  
03282830001950001P16759067590000002684980012580000001010000000000000000                             2000000000000000000000000              000000000000                    0000000000000000000000000                    000000000000                                                                                                                                                                                                                                                                                                                                                                                                                                                                                        
03282840001950082DT67590675900000026849800125800000010180012524001193118900010812677042820230000002477011823000000001298335475570XXXXXX0545               2111111   NYV4 A7W583118563632597N8400000000247703WS600    01DNCBD8885133385            330081    VD84000000024770 NP1599978220273   E0D9A0D84CTE0707E4569E7  000000000+                G DG 08705                     000000000  N000000000       0000000000000.00 0000000.00   0000000.00                             000000000000000                                                                                                                                                     01424 G000000024770 0000000000006.17     02450 01000                  
03282850001950001P16759067590000002684980012580000001010000000000000000                             2000000000000000000000000              000000000000                    0000000000000000000000000                    000000000000                                                                                                                                                                                                                                                                                                                                                                                                                                                                                        
03282860001950083DT67590675900000026849800125800000010180012524001193118900010812685042820230000000979811823000000001298335475570XXXXXX0545               2111111   NYV4 A7W463118563734476N840000000009798JZTM00    01DNCBD8885133385            330089    VD84000000009798 NP1599978220273   E0D9A0D84CT5783DD0B56F1  000000000+                G DG 08705                     000000000  N000000000       0000000000000.00 0000000.00   0000000.00                             000000000000000                                                                                                                                                     01424 G000000009798 0000000000002.50     02450 01000                  
03282870001950001P16759067590000002684980012580000001010000000000000000                             2000000000000000000000000              000000000000                    0000000000000000000000000                    000000000000                                                                                                                                                                                                                                                                                                                                                                                                                                                                                        
03282880001950084DT67590675900000026849800125800000010180012524001193118900010812743042820230000001280311823000000001298335426684XXXXXX2338               2111111   NYV4 A7W463118573035877N840000000012803LMB600    01DNCBD8885133385            05125A    VS84000000012803 NP1599978220273   B3AF8406CAT4D9330F4D80A  000000000+                A CA 12106                     000000000  N000000000 492   0000000000000.00 0000000.00   0000000.00                             000000000000000                                                                                                                                                     01424 G000000012803 0000000000002.52     01890 01000                  
03282890001950001P16759067590000002684980012580000001010000000000000000                             2000000000000000000000000              000000000000                    0000000000000000000000000                    000000000000                                                                                                                                                                                                                                                                                                                                                                                                                                                                                        
03282900001950085DT67590675900000026849800125800000010180012524001193118900010812750042820230000001977011823000000001298335403784XXXXXX2773               2111111   NYV4 A7W383118573042373N840000000019770934L00    01DNCBD8885133385            018255    VS84000000019770 NP1599978220273   62687FEC54T575D5EF2E6BC  000000000+                D CD 12109                     000000000  N000000000 498   0000000000000.00 0000000.00   0000000.00                             000000000000000                                                                                                                                                     01424 G000000019770 0000000000005.04     02500 01000                  
03282910001950001P16759067590000002684980012580000001010000000000000000                             2000000000000000000000000              000000000000                    0000000000000000000000000                    000000000000                                                                                                                                                                                                                                                                                                                                                                                                                                                                                        
03282920001950086DT67590675900000026849800125800000010180012524001193118900010812842042820230000000582811823000000001298335473702XXXXXX9845               2111111   NYV4 A7W463118589396408N8400000000058282Q2T00    01DNCBD8885133385            056369    VD84000000005828 NP1599978220273   5B757FB88DT2B4DC2D50299  000000000+                F DF 10420                     000000000  Y000000000 338   0000000000000.00 0000000.00   0000000.00                             000000000000000                                                                                                                                                     01424 G000000005828 0000000000000.25     00050 02200                  
03282930001950001P16759067590000002684980012580000001010000000000000000                             2000000000000000000000000              000000000000                    0000000000000000000000000                    000000000000                                                                                                                                                                                                                                                                                                                                                                                                                                                                                        
03282940001950087DT67590675900000026849800125800000010180012576509753118900010812865042820230000001977011823000000001298335601100XXXXXX3952   BA00                  NY 4 07N873101541562797N840000000019770    00    01DNCBD8885133385            02828R    DS84000000019770 N  599978220273070                         000000000+1015104910600   DCCDI11325332452  113556000000 000000000  0          460   0000000000000.00 0000000.00   0000000.00                             000000000000000                                                                                                                                                     01424  000000000000 0000000000004.11     02030 01000                  
03282950001950088DT67590675900000026849800125800000010180012587287283118900010812892042820230000001280311823000000001298335553718XXXXXX2746       ME03KE06MS02      NY 4607AMDSR6ICH00428  N840000000012803          81DNCBD8885133385            877348    MD84000000012803 N  599978220273   3D4EBCF6DDTA4871200981D  000000000+600450S00130    MDS  00401                     000000000  N                0000000000000.00 0000000.00   0000000.00                             000000000000000                                                                                                                                                   U001424  000000000000 0000000000002.26     01650 01500                  
03282960001950089DT67590675900000026849800125800000010680012587287283118900010812900042820230000000640211823000000001298335553718XXXXXX2746                         NY 4607AMDSYH5IKY0428  N840000000006402          81CNCBD8885133385            009686    MD84000000006402 N  599978220273   3D4EBCF6DDTA4871200981D  000000000+600450S00130    MDS  00560                     000000000  N                0000000000000.00 0000000.00   0000000.00                             000000000000000                                                                                                                                                     01424  000000000000 0000000000000.00     00000 00000                  
03282970001950090DT67590675900000026849800125800000010180012587287283118900010812942042820230000002477011823000000001298335559034XXXXXX8123       ME03KE06MS02      NY 4607AMDJI1UVK80428  N840000000024770          81DNCBD8885133385            021959    MD84000000024770 N  599978220273   36FBE7CB43TAE75C259B76A  000000000+600450S00130    MDJ  00401                     000000000  N                0000000000000.00 0000000.00   0000000.00                             000000000000000                                                                                                                                                   U001424  000000000000 0000000000004.24     01650 01500                  
03282980001950091DT67590675900000026849800125800000010180012587287283118900010812967042820230000000979811823000000001298335559034XXXXXX8123       ME03KE06MS02      NY 4607AMDJI2KDK80428  N840000000009798          81DNCBD8885133385            022032    MD84000000009798 N  599978220273   36FBE7CB43TA64AE77BF589  000000000+600450S00130    MDJ  00401                     000000000  N                0000000000000.00 0000000.00   0000000.00                             000000000000000                                                                                                                                                   U001424  000000000000 0000000000001.77     01650 01500                  
03282990001950092DT67590675900000026849800125800000010180012587287283118900010812975042820230000000619811823000000001298335559034XXXXXX8123       ME03KE06MS02      NY 4607AMDJO5AFK70428  N840000000006198          81DNCBD8885133385            022144    MD84000000006198 N  599978220273   36FBE7CB43T1EE87FAB99EB  000000000+600450S00130    MDJ  00401                     000000000  N                0000000000000.00 0000000.00   0000000.00                             000000000000000                                                                                                                                                   U001424  000000000000 0000000000001.17     01650 01500                  
03283000001950093DT67590675900000026849800125800000010180012587287283118900010812983042820230000000129511823000000001298335559034XXXXXX8123       ME03KE06MS02      NY 4607AMDJPLQ1KY0428  N840000000001295          81DNCBD8885133385            022210    MD84000000001295 N  599978220273   36FBE7CB43T980DE94E9648  000000000+600450S00130    MDJ  00401                     000000000  N                0000000000000.00 0000000.00   0000000.00                             000000000000000                                                                                                                                                   U001424  000000000000 0000000000000.36     01650 01500                  
03283010001950094DT67590675900000026849800125800000010180012587287283118900010813015042820230000002477011823000000001298335552433XXXXXX5292       ME03KE06PT01      NY 4607AMCWPS3HKY0428  N840000000024770          81DNCBD8885133385            08060Z    MC84000000024770 N  599978220273   47C0E7D7FATE85CBDF00E62  000000000+600450S00130    MCW  00642                     000000000  N                0000000000000.00 0000000.00   0000000.00                             000000000000000                                                                                                                                                   U001424  000000000000 0000000000005.55     02200 01000                  
03283020001950095DT67590675900000026849800125800000010180012524001193118900010813030042820230000001977011823000000001298335440066XXXXXX0298               2111111   NYV4 A7W383118630589617N840000000019770926P00    01DNCBD8885133385            01217D    VS84000000019770 NP1599978220273   8B5FB544F3T6CD35A363F6C  000000000+                D CD 12109                     000000000  N000000000 498   0000000000000.00 0000000.00   0000000.00                             000000000000000                                                                                                                                                     01424 G000000019770 0000000000005.04     02500 01000                  
03283030001950001P16759067590000002684980012580000001010000000000000000                             2000000000000000000000000              000000000000                    0000000000000000000000000                    000000000000                                                                                                                                                                                                                                                                                                                                                                                                                                                                                        
03283040001950096DT67590675900000026849800125800000010180012587287283118900010813064042820230000002078511823000000001298335521333XXXXXX8853       ME03KE06MS02      NY 4607AMWEP75EK70428  N840000000020785          81DNCBD8885133385            02830Y    MC84000000020785 N  599978220273   99120BC016TE6950140E40A  000000000+600450S00130    MWE  00642                     000000000  N                0000000000000.00 0000000.00   0000000.00                             000000000000000                                                                                                                                                   U001424  000000000000 0000000000004.67     02200 01000                  
