00002310078530002BH6759067590000000370780088880000090170103202300323000000000035194    0000090001060028Y8008886759C01042023                                                                                                                                                                                                                                                                                                                                                                                                                                                                                                                                                                                                 
00002320078530003DT67590675900000003707800888800000010180088887287283003900010600246010220230000001319800323000000000035194558158XXXXXX1798                         NY 4607AMDBHM4S8O0102  N840000000013198          81DNMR HEMP FLOWER           2GJHWJ    MD84000000013198 NP1549976053336   83731                    000000000+600450S00130    MDB  00062                     000000000  N                0000000000000.00 0000000.00   0000000.00                             000000000000000                                                                                                                                                   U001424  000000000000 0000000000003.60     02650 01000                  
00002330078530001P1675906759000000037078008888000000101                                                          000000000000          1000            833952842                                                                                                                                                                                                                                                                                                                                                                                                                                                                                                                                                            
00002340078530004DT67590675900000003707800888800000010180088824001193003900010600252010220230000000349900323000000000035194486796XXXXXX4144               2111111   NYV4 A7W463003158792124N840000000003499Z6PF00    01DNMR HEMP FLOWER           092423    VD84000000003499 NP1549976053336   83732                    000000000+                F DF 10420                     000000000  Y000000000 338   0000000000000.00 0000000.00   0000000.00                             000000000000000                                                                                                                                                     01424 G000000003499 0000000000000.24     00050 02200                  
00002350078530001P16759067590000000370780088880000001010000000000000000                             2000000000000000000000000              000000000000                    0000000000000000000000000                    000000000000                                                                                                                                                                                                                                                                                                                                                                                                                                                                                        
00002360078530005DT67590675900000003707800888800000010180088824001193003900010600260010220230000000199800323000000000035194400899XXXXXX9430               2111111   NYV4 A7W303003171869812N8400000000019989K2300    01DNMR HEMP FLOWER           002107    VS84000000001998 NP1549976053336   83733                    000000000+                B CB 12107                     000000000  N000000000 494   0000000000000.00 0000000.00   0000000.00                             000000000000000                                                                                                                                                     01424 G000000001998 0000000000000.51     02040 01000                  
00002370078530001P16759067590000000370780088880000001010000000000000000                             2000000000000000000000000              000000000000                    0000000000000000000000000                    000000000000                                                                                                                                                                                                                                                                                                                                                                                                                                                                                        
00002380078530006DT67590675900000003707800888800000010180088824001193003900010600278010320230000001450000323000000000035194477748XXXXXX5734               2111111   NYV4 A7W463003575324005N840000000014500DLDM00    01DNMR HEMP FLOWER           121021    VD84000000014500 NP1549976053336   83743                    000000000+                F DF 00415                     000000000  N000000000       0000000000000.00 0000000.00   0000000.00                             000000000000000                                                                                                                                                     01424 G000000014500 0000000000002.54     01650 01500                  
00002390078530001P16759067590000000370780088880000001010000000000000000                             2000000000000000000000000              000000000000                    0000000000000000000000000                    000000000000                                                                                                                                                                                                                                                                                                                                                                                                                                                                                        
00002400078530007DT67590675900000003707800888800000010180088824001193003900010600286010320230000000199900323000000000035194449465XXXXXX1206               2111111   NYV4 A7W383003597435550N840000000001999RTLX00    01DNMR HEMP FLOWER           360776    VD84000000001999 NP1549976053336   83744                    000000000+                F DF 10420                     000000000  Y000000000 338   0000000000000.00 0000000.00   0000000.00                             000000000000000                                                                                                                                                     01424 G000000001999 0000000000000.23     00050 02200                  
00002410078530001P16759067590000000370780088880000001010000000000000000                             2000000000000000000000000              000000000000                    0000000000000000000000000                    000000000000                                                                                                                                                                                                                                                                                                                                                                                                                                                                                        
