03546820075820002BH6759067590000000288180088880000090170303202306223000000000091968    0000090001590015N8008886759C03052023                                                                                                                                                                                                                                                                                                                                                                                                                                                                                                                                                                                                 
03546830075820003DT67590675900000002881800888800000010180088824001193062900015900010030320230000001681606223000000000091968426452XXXXXX1231       VS11    0001111   NYV1 A E463062599741797N8400000000168162PHL00    05DNHAPPY HIPPIE             05665D    VS84000000016816 N  549976487134                            000000000+                D CD 12113                     000000000  N000000000 499   0000000000000.00 0000000.00   0000000.00                             000000000000000                                                                                                                                                     01418 A000000000000 0000000000003.63     02100 01000                  
03546840075820004DT67590675900000002881800888800000010180088824001193062900015900028030320230000000548806223000000000091968440393XXXXXX0203       VS11    0001111   NYV1 A E383062602537976N84000000000548865WX00    05DNHAPPY HIPPIE             914797    VD84000000005488 N  549976487134                            000000000+                F PF 08170                     000000000  N000000000       0000000000000.00 0000000.00   0000000.00                             000000000000000                                                                                                                                                     01418 A000000000000 0000000000000.78     01150 01500                  
03546850075820005DT67590675900000002881800888800000010180088824001193062900015900036030320230000000043706223000000000091968440393XXXXXX0203       VK04VS111111111   NYV1 A E303062605373733N840000000000437438900    05DNHAPPY HIPPIE             177116    VD84000000000437 N  549976487134                            000000000+                F PF 08165                     000000000  N000000000       0000000000000.00 0000000.00   0000000.00                             000000000000000                                                                                                                                                     01418 F000000000000 0000000000000.12     01600 00500                  
03546860075820006DT67590675900000002881800888800000010180088824001193062900015900044030320230000000196206223000000000091968423223XXXXXX1655       VS11    0001111   NYV1 A E303062606624236N84000000000196235XL00    05DNHAPPY HIPPIE             096594    VD84000000001962 N  549976487134                            000000000+                F DF 00381                     000000000  N000000000       0000000000000.00 0000000.00   0000000.00                             000000000000000                                                                                                                                                     01418 A000000000000 0000000000000.31     00800 01500                  
03546870075820007DT67590675900000002881800888800000010180088824001193062900015900051030320230000000335606223000000000091968419090XXXXXX0035       VS11    0001111   NYV1 A E383062617166607N8400000000033566MRR00    05DNHAPPY HIPPIE             068203    VD84000000003356 N  549976487134                            000000000+                F DF 00381                     000000000  N000000000       0000000000000.00 0000000.00   0000000.00                             000000000000000                                                                                                                                                     01418 A000000000000 0000000000000.42     00800 01500                  
03546880075820008DT67590675900000002881800888800000010180088877287283062900015900061030320230000001031306223000000000091968525363XXXXXX4979       MS02WI09          NY 1 0 AMWERS4WZI0303  N840000000010313          05DNHAPPY HIPPIE             13653Z    MC84000000010313 N  549976487134                            000000000+M10101C0034C    MWE  00743                     000000000  N                0000000000000.00 0000000.00   0000000.00                             000000000000000                                                                                                                                                   B101418  000000000000 0000000000002.41     02300 00400                  
03546890075820009DT67590675900000002881800888800000010180088824001193062900015900077030320230000000478806223000000000091968498503XXXXXX9797       VS11    0001111   NYV1 A E463062673790827N840000000004788TD3B00    05DNHAPPY HIPPIE             088231    VD84000000004788 N  549976487134                            000000000+                F DF 00381                     000000000  N000000000       0000000000000.00 0000000.00   0000000.00                             000000000000000                                                                                                                                                     01418 A000000000000 0000000000000.53     00800 01500                  
03546900075820010DT67590675900000002881800888800000010180088824001193062900015900085030320230000000493806223000000000091968449507XXXXXX2805       VS11    0001111   NYV1 A E583062675096753N8400000000049384RPV00    05DNHAPPY HIPPIE             034509    VD84000000004938 N  549976487134                            000000000+                F DF 00381                     000000000  N000000000       0000000000000.00 0000000.00   0000000.00                             000000000000000                                                                                                                                                     01418 A000000000000 0000000000000.55     00800 01500                  
03546910075820011DT67590675900000002881800888800000010180088824001193062900015900093030320230000000570906223000000000091968480639XXXXXX1311       VS11    0001111   NYV1 A E583062682536020N840000000005709PPKX00    05DNHAPPY HIPPIE             577653    VD84000000005709 N  549976487134                            000000000+                F DF 00381                     000000000  N000000000       0000000000000.00 0000000.00   0000000.00                             000000000000000                                                                                                                                                     01418 A000000000000 0000000000000.61     00800 01500                  
03546920075820012DT67590675900000002881800888800000010180088877287283062900015900103030320230000000592406223000000000091968511953XXXXXX9825       MS02WI09          NY 1 0 AMDJZIYVN20303  N840000000005924          05DNHAPPY HIPPIE             031482    MD84000000005924 N  549976487134                            000000000+M10101C5434C    MDJ  00402                     000000000  N                0000000000000.00 0000000.00   0000000.00                             000000000000000                                                                                                                                                   B101418  000000000000 0000000000000.77     01050 01500                  
03546930075820013DT67590675900000002881800888800000010180088824001193062900015900119030320230000000808506223000000000091968409758XXXXXX9069       VS11    0001111   NYV1 A E583062714539207N840000000008085GTSJ00    90DNHAPPY HIPPIE             592738    VD84000000008085 N  549976487134                            000000000+                F PF 08170                     000000000  N000000000       0000000000000.00 0000000.00   0000000.00                             000000000000000                                                                                                                                                     01418 A000000000000 0000000000001.08     01150 01500                  
03546940075820014DT67590675900000002881800888800000010180088877287283062900015900129030320230000001064806223000000000091968515676XXXXXX1373       MS02WI09          NY 1 0 AMWEDU7MDZ0303  N840000000010648          05DNHAPPY HIPPIE             08456Z    MC84000000010648 N  549976487134                            000000000+M10101C5434C    MWE  00743                     000000000  N                0000000000000.00 0000000.00   0000000.00                             000000000000000                                                                                                                                                   B101418  000000000000 0000000000002.49     02300 00400                  
03546950075820015DT67590675900000002881800888800000010180088824001193062900015900135030320230000000690006223000000000091968473336XXXXXX5051       VS11    0001111   NYV1 A E463062770827397N840000000006900KF2S00    05DNHAPPY HIPPIE             042443    VD84000000006900 N  549976487134                            000000000+                F DF 00381                     000000000  N000000000       0000000000000.00 0000000.00   0000000.00                             000000000000000                                                                                                                                                     01418 A000000000000 0000000000000.70     00800 01500                  
03546960075820016DT67590675900000002881800888800000010180088824001193062900015900143030320230000000493806223000000000091968443238XXXXXX0397       VS11    0001111   NYV1 A E383062772490088N840000000004938LTND00    05DNHAPPY HIPPIE             062729    VD84000000004938 N  549976487134                            000000000+                F DF 00381                     000000000  N000000000       0000000000000.00 0000000.00   0000000.00                             000000000000000                                                                                                                                                     01418 A000000000000 0000000000000.55     00800 01500                  
03546970075820017DT67590675900000002881800888800000010180088824001193062900015900150030320230000000166606223000000000091968419090XXXXXX5616       VS11    0001111   NYV1 A E383062796163892N840000000001666LJS300    05DNHAPPY HIPPIE             079589    VD84000000001666 N  549976487134                            000000000+                F DF 00381                     000000000  N000000000       0000000000000.00 0000000.00   0000000.00                             000000000000000                                                                                                                                                     01418 A000000000000 0000000000000.28     00800 01500                  
03546980075820018BH6759067590000000288180088880000090170303202306223000000000097278    0000090001600026N8008886759C03052023                                                                                                                                                                                                                                                                                                                                                                                                                                                                                                                                                                                                 
03546990075820019DT67590675900000002881800888800000010180088824001193062900016000018030320230000000296206223000000000097278427088XXXXXX0719       VS11    0001111   NYV1 A E463062551177901N840000000002962HQVB00    05DNHAPPY HIPPIE             001835    VD84000000002962 N  549976487158                            000000000+                F DF 10433                     000000000  Y000000000 338   0000000000000.00 0000000.00   0000000.00                             000000000000000                                                                                                                                                     01418 A000000000000 0000000000000.23     00050 02200                  
03547000075820020DT67590675900000002881800888800000010180088824001193062900016000026030320230000000316106223000000000097278415978XXXXXX3184       VS11    0001111   NYV1 A E463062552720667N840000000003161KLZP00    05DNHAPPY HIPPIE             003146    VD84000000003161 N  549976487158                            000000000+                F DF 10433                     000000000  Y000000000 338   0000000000000.00 0000000.00   0000000.00                             000000000000000                                                                                                                                                     01418 A000000000000 0000000000000.24     00050 02200                  
03547010075820021DT67590675900000002881800888800000010180088824001193062900016000034030320230000000488006223000000000097278415978XXXXXX3096       VS11    0001111   NYV1 A E463062560856424N840000000004880ZHGX00    05DNHAPPY HIPPIE             016396    VD84000000004880 N  549976487158                            000000000+                F DF 10433                     000000000  Y000000000 338   0000000000000.00 0000000.00   0000000.00                             000000000000000                                                                                                                                                     01418 A000000000000 0000000000000.24     00050 02200                  
03547020075820022DT67590675900000002881800888800000010180088877287283062900016000044030320230000000125006223000000000097278514377XXXXXX7120       MS02WI09          NY 1 0 AMDJNWX9450303  N840000000001250          07DNHAPPY HIPPIE             1C6I93    MD84000000001250 N  549976487158                            000000000+M10101M0034C    MDJ  00505                     000000000  N                0000000000000.00 0000000.00   0000000.00                             000000000000000                                                                                                                                                   B101418  000000000000 0000000000000.23     01550 00400                  
03547030075820023DT67590675900000002881800888800000010180088824001193062900016000059030320230000000362106223000000000097278466188XXXXXX7281       VS11    0001111   NYV1 A E383062564548101N840000000003621JVXM00    05DNHAPPY HIPPIE             003820    VD84000000003621 N  549976487158                            000000000+                F DF 10433                     000000000  Y000000000 338   0000000000000.00 0000000.00   0000000.00                             000000000000000                                                                                                                                                     01418 A000000000000 0000000000000.24     00050 02200                  
03547040075820024DT67590675900000002881800888800000010180088824001193062900016000067030320230000000158006223000000000097278415978XXXXXX6979       VS11    0001111   NYV1 A E303062572778520N840000000001580L9CF00    05DNHAPPY HIPPIE             033015    VD84000000001580 N  549976487158                            000000000+                F DF 10433                     000000000  Y000000000 338   0000000000000.00 0000000.00   0000000.00                             000000000000000                                                                                                                                                     01418 A000000000000 0000000000000.23     00050 02200                  
03547050075820025DT67590675900000002881800888800000010180088824001193062900016000075030320230000000548806223000000000097278445101XXXXXX0323       VS11    0001111   NYV1 A E583062579484577N84000000000548877RG00    05DNHAPPY HIPPIE             325869    VD84000000005488 N  549976487158                            000000000+                F DF 10433                     000000000  Y000000000 338   0000000000000.00 0000000.00   0000000.00                             000000000000000                                                                                                                                                     01418 A000000000000 0000000000000.25     00050 02200                  
03547060075820026DT67590675900000002881800888800000010180088877287283062900016000085030320230000000438906223000000000097278517805XXXXXX6381       MS02WI09          NY 1 0 AMPLPDQNZI0303  N840000000004389          05DNHAPPY HIPPIE             07074B    MC84000000004389 N  549976487158                            000000000+M10101C5434C    MPL  00364                     000000000  N                0000000000000.00 0000000.00   0000000.00                             000000000000000                                                                                                                                                   B101418  000000000000 0000000000000.83     01800 00400                  
03547070075820027DT67590675900000002881800888800000010180088824001193062900016000091030320230000000691306223000000000097278419090XXXXXX9589       VS11    0001111   NYV1 A E583062627894842N840000000006913WLP500    05DNHAPPY HIPPIE             069035    VD84000000006913 N  549976487158                            000000000+                F DF 00381                     000000000  N000000000       0000000000000.00 0000000.00   0000000.00                             000000000000000                                                                                                                                                     01418 A000000000000 0000000000000.70     00800 01500                  
03547080075820028DT67590675900000002881800888800000010180088824001193062900016000109030320230000000282106223000000000097278427088XXXXXX3986       VS11    0001111   NYV1 A E303062651401076N840000000002821GBSC00    05DNHAPPY HIPPIE             030538    VD84000000002821 N  549976487158                            000000000+                F DF 10433                     000000000  Y000000000 338   0000000000000.00 0000000.00   0000000.00                             000000000000000                                                                                                                                                     01418 A000000000000 0000000000000.23     00050 02200                  
03547090075820029DT67590675900000002881800888800000010180088824001193062900016000117030320230000000076706223000000000097278415978XXXXXX1279       VK04VS111111111   NYV1 A E383062666807647N840000000000767XWF900    05DNHAPPY HIPPIE             090161    VD84000000000767 N  549976487158                            000000000+                F DF 10439                     000000000  Y000000000 331   0000000000000.00 0000000.00   0000000.00                             000000000000000                                                                                                                                                     01418 F000000000000 0000000000000.22     00050 02200                  
03547100075820030DT67590675900000002881800888800000010180088824001193062900016000125030320230000000345606223000000000097278449507XXXXXX9937       VS11    0001111   NYV1 A E383062674101944N84000000000345633LN00    07DNHAPPY HIPPIE             034330    VD84000000003456 N  549976487158                            000000000+                F DF 00381                     000000000  N000000000       0000000000000.00 0000000.00   0000000.00                             000000000000000                                                                                                                                                     01418 A000000000000 0000000000000.43     00800 01500                  
03547110075820031DT67590675900000002881800888800000010180088877287283062900016000135030320230000000572706223000000000097278559427XXXXXX6399       MS02WI09          NY 1 0 AMDJBVF0DZ0303  N840000000005727          05DNHAPPY HIPPIE             578790    MD84000000005727 N  549976487158                            000000000+M10101C5434C    MDJ  10815                     000000000  1                0000000000000.00 0000000.00   0000000.00                             000000000000000                                                                                                                                                   B101418  000000000000 0000000000000.25     00050 02200                  
03547120075820032DT67590675900000002881800888800000010180088824001193062900016000141030320230000000186506223000000000097278402047XXXXXX9529       VS11    0001111   NYV1 A E463062706230655N840000000001865WKBL00    05DNHAPPY HIPPIE             444418    VD84000000001865 N  549976487158                            000000000+                F DF 00381                     000000000  N000000000       0000000000000.00 0000000.00   0000000.00                             000000000000000                                                                                                                                                     01418 A000000000000 0000000000000.30     00800 01500                  
03547130075820033DT67590675900000002881800888800000010180088824001193062900016000158030320230000000246806223000000000097278435546XXXXXX3748       VS11    0001111   NYV1 A E383062726013301N840000000002468Q6BC00    05DNHAPPY HIPPIE             112027    VD84000000002468 N  549976487158                            000000000+                F DF 10433                     000000000  Y000000000 338   0000000000000.00 0000000.00   0000000.00                             000000000000000                                                                                                                                                     01418 A000000000000 0000000000000.23     00050 02200                  
03547140075820034DT67590675900000002881800888800000010180088824001193062900016000166030320230000000395006223000000000097278445100XXXXXX2335       VS11    0001111   NYV1 A E303062727672153N840000000003950VMPB00    05DNHAPPY HIPPIE             494687    VD84000000003950 N  549976487158                            000000000+                F DF 10433                     000000000  Y000000000 338   0000000000000.00 0000000.00   0000000.00                             000000000000000                                                                                                                                                     01418 A000000000000 0000000000000.24     00050 02200                  
03547150075820035DT67590675900000002881800888800000010180088824001193062900016000174030320230000001023706223000000000097278449052XXXXXX6472       VS11    0001111   NYV1 A E463062734300034N840000000010237JSD400    05DNHAPPY HIPPIE             042350    VD84000000010237 N  549976487158                            000000000+                F DF 00381                     000000000  N000000000       0000000000000.00 0000000.00   0000000.00                             000000000000000                                                                                                                                                     01418 A000000000000 0000000000000.97     00800 01500                  
03547160075820036DT67590675900000002881800888800000010180088877287283062900016000184030320230000000149706223000000000097278518941XXXXXX4253       MS02WI09          NY 1 0 AMWEEH5LDZ0303  N840000000001497          05DNHAPPY HIPPIE             60603Z    MC84000000001497 N  549976487158                            000000000+M10101C5434C    MWE  00743                     000000000  N                0000000000000.00 0000000.00   0000000.00                             000000000000000                                                                                                                                                   B101418  000000000000 0000000000000.38     02300 00400                  
03547170075820037DT67590675900000002881800888800000010180088824001193062900016000190030320230000000296206223000000000097278445102XXXXXX2101       VS11    0001111   NYV1 A E463062785247432N840000000002962XX4Z00    05DNHAPPY HIPPIE             549867    VD84000000002962 N  549976487158                            000000000+                F DF 10433                     000000000  Y000000000 338   0000000000000.00 0000000.00   0000000.00                             000000000000000                                                                                                                                                     01418 A000000000000 0000000000000.23     00050 02200                  
03547180075820038DT67590675900000002881800888800000010180088824001193062900016000208030320230000000395106223000000000097278480639XXXXXX4015       VS11    0001111   NYV1 A E303062788275064N8400000000039518SGX00    05DNHAPPY HIPPIE             583142    VD84000000003951 N  549976487158                            000000000+                F DF 00381                     000000000  N000000000       0000000000000.00 0000000.00   0000000.00                             000000000000000                                                                                                                                                     01418 A000000000000 0000000000000.47     00800 01500                  
03547190075820039DT67590675900000002881800888800000010180088824001193062900016000216030320230000000877806223000000000097278413022XXXXXX5316       VS11    0001111   NYV1 A E383062791037248N840000000008778MVFK00    05DNHAPPY HIPPIE             825673    VD84000000008778 N  549976487158                            000000000+                F DF 00381                     000000000  N000000000       0000000000000.00 0000000.00   0000000.00                             000000000000000                                                                                                                                                     01418 A000000000000 0000000000000.85     00800 01500                  
03547200075820040DT67590675900000002881800888800000010180088877287283062900016000226030320230000000256606223000000000097278516693XXXXXX1259       MS02WI09          NY 1 0 AMDSJJRKN10303  N840000000002566          05DNHAPPY HIPPIE             349812    MD84000000002566 N  549976487158                            000000000+M10101C5434C    MDS  00402                     000000000  N                0000000000000.00 0000000.00   0000000.00                             000000000000000                                                                                                                                                   B101418  000000000000 0000000000000.42     01050 01500                  
03547210075820041DT67590675900000002881800888800000010180088824001193062900016000232030320230000000231506223000000000097278419090XXXXXX5616       VS11    0001111   NYV1 A E383062795781280N840000000002315JTWP00    05DNHAPPY HIPPIE             079572    VD84000000002315 N  549976487158                            000000000+                F DF 00381                     000000000  N000000000       0000000000000.00 0000000.00   0000000.00                             000000000000000                                                                                                                                                     01418 A000000000000 0000000000000.34     00800 01500                  
03547220075820042DT67590675900000002881800888800000010180088824001193062900016000240030320230000000439006223000000000097278443238XXXXXX1744       VS11    0001111   NYV1 A E383062809141276N84000000000439063MW00    07DNHAPPY HIPPIE             072834    VD84000000004390 N  549976487158                            000000000+                F DF 00381                     000000000  N000000000       0000000000000.00 0000000.00   0000000.00                             000000000000000                                                                                                                                                     01418 A000000000000 0000000000000.50     00800 01500                  
03547230075820043DT67590675900000002881800888800000010180088876509753062900016000255030320230000000158006223000000000097278601100XXXXXX4557   BA50                  NY41 0 N873053348818245N840000000001580    00    05DNHAPPY HIPPIE             00347R    DS84000000001580 N  549976487158050                         000000000+0000004910H00   DCCDI01000668354  155440000000 000000000  0          112   0000000000000.00 0000000.00   0000000.00                             000000000000000                                                                                                                                                     01418  000000000000 0000000000000.37     01720 01000                  
03547240075820044DT67590675900000002881800888800000010180088877287283062900016000267030320230000000370406223000000000097278514377XXXXXX7120       MS02WI09          NY 1 0 AMDJWJ2PFK0303  N840000000003704          07DNHAPPY HIPPIE             18NSIE    MD84000000003704 N  549976487158                            000000000+M10101M0034C    MDJ  00402                     000000000  N                0000000000000.00 0000000.00   0000000.00                             000000000000000                                                                                                                                                   B101418  000000000000 0000000000000.54     01050 01500                  
03547250075820045BH6759067590000000215480088880000090170303202306223000000000065508    0000090001232598N8008886759C03052023                                                                                                                                                                                                                                                                                                                                                                                                                                                                                                                                                                                                 
03547260075820046DT67590675900000002154800888800000010180088887287283062900012325980030320230000006550806223000000000065508547415XXXXXX7571                         NY 4607AMEBOY9GZI0303  N840000000065508          81DNDRIP DROP DISTRO LLC     00175Q    MB84000000065508 NP1519900000001   17497                    000000000+600450S00140    MEB  11637                     000000000  N                0000000000000.00 0000000.00   0000000.00                             000000000000000                                                                                                                                                   U001418  000000000000 0000000000019.75     03000 01000                  
03547270075820001P1675906759000000021548008888000000101                                                          000000000000          8000            471534935                                                                                                                                                                                                                                                                                                                                                                                                                                                                                                                                                            
03547280075820047BH6759067590000000096880088880000090170303202306223000000000007815    0000090001517553N8008886759C03052023                                                                                                                                                                                                                                                                                                                                                                                                                                                                                                                                                                                                 
03547290075820048DT67590675900000000968800888800000010180088824001193062900015175530030320230000000781506223000000000007815400022XXXXXX2032               2111111   NYV4 A7W383062675016606N840000000008025XWKB00    01DNHIGHER FLOUR LLC         323425    VD84000000007815 NP1546271004114   RYDAH8BILKV67CN3XGGW     000000000+                F DF 10420                     000000000  Y000000000 338   0000000000000.00 0000000.00   0000000.00                             000000000000000                                                                                                                                                     01418 G000000007815 0000000000000.26     00050 02200                  
03547300075820001P16759067590000000096880088880000001010000000000000000                             2000000000000000000000000              000000000000                    0000000000000000000000000                    000000000000                                                                                                                                                                                                                                                                                                                                                                                                                                                                                        
03547310075820049BH6759067590000000570280088880000090170303202306223000000000373217    0000090001074743N8008886759C03052023                                                                                                                                                                                                                                                                                                                                                                                                                                                                                                                                                                                                 
03547320075820050DT67590675900000005702800888800000010180088873011003062900010788887030320230000001800006223000000000373217379822XXXXX3006                          NY 4 07N004527034459303N840000000018000          01DNTRADE READY LLC          288324    AM84000000018000 N  549971004114                            000000000+6004S0S00140 258     11262                     000000000                   0000000000000.00 0000000.00   0000000.00                             000000000000000 61248972086759675900000005702 TRADE READY LLC          4744 PARADISE RD         7023386941      89169     PSILOMART@GMAIL.COM                       01418  000000000000 0000000000003.61     01950 00000                  
03547330075820051DT67590675900000005702800888800000010180088824001193062900010742169030320230000000543806223000000000373217426684XXXXXX2532               2111111   NYV4 A7W463062224335630N840000000005438L6RT00    01DNPSILOMART                00614C    VS84000000005438 NP1549971004114   RSNXSIA8FP4CJC4HPJUL     000000000+                C CC 12108                     000000000  N000000000 496   0000000000000.00 0000000.00   0000000.00                             000000000000000                                                                                                                                                     01418 G000000005438 0000000000001.21     02050 01000                  
03547340075820001P16759067590000000570280088880000001010000000000000000                             2000000000000000000000000              000000000000                    0000000000000000000000000                    000000000000                                                                                                                                                                                                                                                                                                                                                                                                                                                                                        
03547350075820052DT67590675900000005702800888800000010180088824001193062900010704003030320230000000279906223000000000373217473703XXXXXX9750               2111111   NYV4 A7W583062527729490N8400000000027999F8Q00    01DNPSILOMART                009369    VD84000000002799 NP1549971004114   RKJNT2HR9VSXXRV3JIVC     000000000+                F DF 10420                     000000000  Y000000000 338   0000000000000.00 0000000.00   0000000.00                             000000000000000                                                                                                                                                     01418 G000000002799 0000000000000.23     00050 02200                  
03547360075820001P16759067590000000570280088880000001010000000000000000                             2000000000000000000000000              000000000000                    0000000000000000000000000                    000000000000                                                                                                                                                                                                                                                                                                                                                                                                                                                                                        
03547370075820053DT67590675900000005702800888800000010180088887287283062900010758257030320230000000569806223000000000373217524574XXXXXX8249       ME03KE06MS02      NY 4607AMDJL10VCX0303  N840000000005698          81DNPSILOMART                783397    MD84000000005698 N  549900000001   r8Z2hT07JBcaks8oHxqK     000000000+600450S00140    MDJ  00401                     000000000  N                0000000000000.00 0000000.00   0000000.00                             000000000000000                                                                                                                                                   U001418  000000000000 0000000000001.09     01650 01500                  
03547380075820054DT67590675900000005702800888800000010180088824001193062900010715439030320230000003000006223000000000373217475497XXXXXX4989               2111111   NYV4 A7W463062764008555N840000000030000PK9J00    01DNPSILOMART                743615    VD84000000030000 NP1549971004114   RECZVUXWVTRDX4KSRS6W     000000000+                G DG 08705                     000000000  N000000000       0000000000000.00 0000000.00   0000000.00                             000000000000000                                                                                                                                                     01418 G000000030000 0000000000007.45     02450 01000                  
03547390075820001P16759067590000000570280088880000001010000000000000000    64235344688              2000000000000000000000000              000000000000                    0000000000000000000000000                    000000000000                                                                                                                                                                                                                                                                                                                                                                                                                                                                                        
03547400075820055DT67590675900000005702800888800000010180088887287283062900010704673030320230000000479806223000000000373217512230XXXXXX2826       ME03KE06MS02      NY 4607AMWEQZBUI80302  N840000000004798          81DNPSILOMART                64375Z    MC84000000004798 N  549900000001   rbD8vKLMZizcjJcEJUdt     000000000+600450S00140    MWE  00737                     000000000  N                0000000000000.00 0000000.00   0000000.00                             000000000000000                                                                                                                                                   U001418  000000000000 0000000000001.35     02600 01000                  
03547410075820056DT67590675900000005702800888800000010180088873011003062900010729881030320230000000320006223000000000373217378335XXXXX2003                          NY 4 07N004252699991322N840000000003200          01DNTRADE READY LLC          229754    AM84000000003200 N  549971004114                            000000000+6004S0S00140 258     11261                     000000000                   0000000000000.00 0000000.00   0000000.00                             000000000000000 61248972086759675900000005702 TRADE READY LLC          4744 PARADISE RD         7023386941      89169     PSILOMART@GMAIL.COM                       01418  000000000000 0000000000000.61     01600 00000                  
03547420075820057DT67590675900000005702800888800000010180088887287283062900010741840030320230000000579606223000000000373217531260XXXXXX2469       ME03KE06MS02      NY 4607AMDJAQN3KT0302  N840000000005796          81DNPSILOMART                135401    MD84000000005796 N  549900000001   r9NE5YbpswZjaFPzMkgF     000000000+600450S00140    MDJ  10813                     000000000  1                0000000000000.00 0000000.00   0000000.00                             000000000000000                                                                                                                                                   U001418  000000000000 0000000000000.25     00050 02200                  
03547430075820058DT67590675900000005702800888800000010180088824001193062900010796389030320230000003999906223000000000373217442742XXXXXX0401               2111111   NYV4 A7W383062513965034N840000000039999GXF900    01DNPSILOMART                061609    VD84000000039999 NP1549971004114   RIDJEQBAZ61LTTFPYIQ7     000000000+                G DG 10352                     000000000  Y000000000 338   0000000000000.00 0000000.00   0000000.00                             000000000000000                                                                                                                                                     01418 G000000039999 0000000000000.42     00050 02200                  
03547440075820001P16759067590000000570280088880000001010000000000000000    64234420880              2000000000000000000000000              000000000000                    0000000000000000000000000                    000000000000                                                                                                                                                                                                                                                                                                                                                                                                                                                                                        
03547450075820059DT67590675900000005702800888800000010180088824001193062900010716635030320230000000209906223000000000373217459954XXXXXX5006               2111111   NYV4 A7W463062554722019N840000000002099BN6200    01DNPSILOMART                H94609    VD84000000002099 NP1549971004114   RF2MZRKM4WMRICPFX5KX     000000000+                F DF 10420                     000000000  Y000000000 338   0000000000000.00 0000000.00   0000000.00                             000000000000000                                                                                                                                                     01418 G000000002099 0000000000000.23     00050 02200                  
03547460075820001P16759067590000000570280088880000001010000000000000000                             2000000000000000000000000              000000000000                    0000000000000000000000000                    000000000000                                                                                                                                                                                                                                                                                                                                                                                                                                                                                        
03547470075820060DT67590675900000005702800888800000010180088824001193062900010732111030320230000000209906223000000000373217435142XXXXXX4457               2111111   NYV4 A7W303062589136056N840000000002099C4QQ00    01DNPSILOMART                069145    VD84000000002099 NP1549971004114   ROAAJJ4KZE7SZ9XN8PYN     000000000+                F DF 10420                     000000000  Y000000000 338   0000000000000.00 0000000.00   0000000.00                             000000000000000                                                                                                                                                     01418 G000000002099 0000000000000.23     00050 02200                  
03547480075820001P16759067590000000570280088880000001010000000000000000                             2000000000000000000000000              000000000000                    0000000000000000000000000                    000000000000                                                                                                                                                                                                                                                                                                                                                                                                                                                                                        
03547490075820061DT67590675900000005702800888800000010180088887287283062900010738267030320230000000559906223000000000373217517546XXXXXX9629       ME03KE06MS02      NY 4607AMDJPKID450303  N840000000005599          81DNPSILOMART                003427    MD84000000005599 N  549900000001   rWmT7ZXbwNDV0AvnQzoW     000000000+600450S00140    MDJ  10813                     000000000  1                0000000000000.00 0000000.00   0000000.00                             000000000000000                                                                                                                                                   U001418  000000000000 0000000000000.25     00050 02200                  
03547500075820062DT67590675900000005702800888800000010180088824001193062900010766606030320230000000279906223000000000373217432739XXXXXX2703               2111111   NYV4 A7W383062662011077N8400000000027993VRS00    01DNPSILOMART                155079    VD84000000002799 NP1549971004114   RHYSLXUOYL9UEAMTNZPZ     000000000+                F DF 10420                     000000000  Y000000000 338   0000000000000.00 0000000.00   0000000.00                             000000000000000                                                                                                                                                     01418 G000000002799 0000000000000.23     00050 02200                  
03547510075820001P16759067590000000570280088880000001010000000000000000                             2000000000000000000000000              000000000000                    0000000000000000000000000                    000000000000                                                                                                                                                                                                                                                                                                                                                                                                                                                                                        
03547520075820063DT67590675900000005702800888800000010180088824001193062900010700241030320230000000230006223000000000373217451129XXXXXX6801               2111111   NYV4 A7W463062852248633N8400000000023008J7800    01DNPSILOMART                050338    VD84000000002300 NP1549971004114   RBP6FYF5HOE9SRODOAYU     000000000+                F PF 08175                     000000000  N000000000       0000000000000.00 0000000.00   0000000.00                             000000000000000                                                                                                                                                     01418 G000000002300 0000000000000.60     01750 02000                  
03547530075820001P16759067590000000570280088880000001010000000000000000                             2000000000000000000000000              000000000000                    0000000000000000000000000                    000000000000                                                                                                                                                                                                                                                                                                                                                                                                                                                                                        
03547540075820064DT67590675900000005702800888800000010180088824001193062900010799177030320230000000329906223000000000373217426684XXXXXX7351               2111111   NYV4 A7W463062012133659N840000000003299GJRV00    01DNPSILOMART                00418C    VS84000000003299 NP1549971004114   RKQUY57PFLVZHIEHLBLN     000000000+                C CC 12108                     000000000  N000000000 496   0000000000000.00 0000000.00   0000000.00                             000000000000000                                                                                                                                                     01418 G000000003299 0000000000000.78     02050 01000                  
03547550075820001P16759067590000000570280088880000001010000000000000000                             2000000000000000000000000              000000000000                    0000000000000000000000000                    000000000000                                                                                                                                                                                                                                                                                                                                                                                                                                                                                        
03547560075820065DT67590675900000005702800888800000010180088824001193062900010702502030320230000000183906223000000000373217498503XXXXXX6619               2111111   NYV4 A7W383062026914712N840000000001839FNFF00    01DNPSILOMART                000209    VD84000000001839 NP1549971004114   RTOFFHUTHKQWMQS8VSPQ     000000000+                F DF 00415                     000000000  N000000000       0000000000000.00 0000000.00   0000000.00                             000000000000000                                                                                                                                                     01418 G000000001839 0000000000000.45     01650 01500                  
03547570075820001P16759067590000000570280088880000001010000000000000000                             2000000000000000000000000              000000000000                    0000000000000000000000000                    000000000000                                                                                                                                                                                                                                                                                                                                                                                                                                                                                        
03547580075820066DT67590675900000005702800888800000010180088824001193062900010726378030320230000001479606223000000000373217400344XXXXXX7718               2111111   NYV4 A7W383062113269856N840000000014796V3L700    01DNPSILOMART                05410B    VS84000000014796 NP1549971004114   RRE6ZB9KJ5DEWNGLNVJQ     000000000+                B CB 12107                     000000000  N000000000 494   0000000000000.00 0000000.00   0000000.00                             000000000000000                                                                                                                                                     01418 G000000014796 0000000000003.12     02040 01000                  
03547590075820001P16759067590000000570280088880000001010000000000000000                             2000000000000000000000000              000000000000                    0000000000000000000000000                    000000000000                                                                                                                                                                                                                                                                                                                                                                                                                                                                                        
03547600075820067DT67590675900000005702800888800000010180088824001193062900010733820030320230000000399806223000000000373217408696XXXXXX0119               2111111   NYV4 A7W303062157064527N84000000000399892ZR00    01DNPSILOMART                034298    VD84000000003998 NP1549971004114   RFDPRMFANFKHMTVIBBIR     000000000+                F DF 00415                     000000000  N000000000       0000000000000.00 0000000.00   0000000.00                             000000000000000                                                                                                                                                     01418 G000000003998 0000000000000.81     01650 01500                  
03547610075820001P16759067590000000570280088880000001010000000000000000                             2000000000000000000000000              000000000000                    0000000000000000000000000                    000000000000                                                                                                                                                                                                                                                                                                                                                                                                                                                                                        
03547620075820068DT67590675900000005702800888800000010180088824001193062900010741153030320230000000279906223000000000373217414718XXXXXX6197               2111111   NYV4 A7W303062206428923N840000000002799ZWGB00    01DNPSILOMART                002721    VS84000000002799 NP1549971004114   R2YC78YCNMCEEOJJOHHZ     000000000+                D CD 12109                     000000000  N000000000 498   0000000000000.00 0000000.00   0000000.00                             000000000000000                                                                                                                                                     01418 G000000002799 0000000000000.80     02500 01000                  
03547630075820001P16759067590000000570280088880000001010000000000000000                             2000000000000000000000000              000000000000                    0000000000000000000000000                    000000000000                                                                                                                                                                                                                                                                                                                                                                                                                                                                                        
03547640075820069DT67590675900000005702800888800000010180088887287283062900010773116030320230000000399706223000000000373217531260XXXXXX7789       ME03KE06MS02      NY 4607AMDJNKWWV10303  N840000000003997          81DNPSILOMART                133621    MD84000000003997 N  549900000001   rEXFhtwuKwvC5cZAwJEh     000000000+600450S00140    MDJ  10813                     000000000  1                0000000000000.00 0000000.00   0000000.00                             000000000000000                                                                                                                                                   U001418  000000000000 0000000000000.24     00050 02200                  
03547650075820070DT67590675900000005702800888800000010180088824001193062900010780227030320230000000479906223000000000373217415977XXXXXX3339               2111111   NYV4 A7W383062457453873N840000000004799HDJN00    01DNPSILOMART                049809    VD84000000004799 NP1549971004114   RH7XFUDGJ4AATLDSHQ4Z     000000000+                F DF 10420                     000000000  Y000000000 338   0000000000000.00 0000000.00   0000000.00                             000000000000000                                                                                                                                                     01418 G000000004799 0000000000000.24     00050 02200                  
03547660075820001P16759067590000000570280088880000001010000000000000000                             2000000000000000000000000              000000000000                    0000000000000000000000000                    000000000000                                                                                                                                                                                                                                                                                                                                                                                                                                                                                        
03547670075820071DT67590675900000005702800888800000010180088824001193062900010707725030320230000001199706223000000000373217414720XXXXXX9023               2111111   NYV4 A7W463062534312702N840000000011997TD5400    01DNPSILOMART                00950C    VS84000000011997 NP1549971004114   RTPUIP7O9LLAPOZ8SOQO     000000000+                C CC 12108                     000000000  N000000000 496   0000000000000.00 0000000.00   0000000.00                             000000000000000                                                                                                                                                     01418 G000000011997 0000000000002.56     02050 01000                  
03547680075820001P16759067590000000570280088880000001010000000000000000                             2000000000000000000000000              000000000000                    0000000000000000000000000                    000000000000                                                                                                                                                                                                                                                                                                                                                                                                                                                                                        
03547690075820072DT67590675900000005702800888800000010180088824001193062900010726477030320230000000599706223000000000373217414718XXXXXX1086               2111111   NYV4 A7W463062572272604N840000000005997DLVC00    01DNPSILOMART                003064    VS84000000005997 NP1549971004114   RJFRNNUTGW97ZDYYCCCD     000000000+                D CD 12109                     000000000  N000000000 498   0000000000000.00 0000000.00   0000000.00                             000000000000000                                                                                                                                                     01418 G000000005997 0000000000001.60     02500 01000                  
03547700075820001P16759067590000000570280088880000001010000000000000000                             2000000000000000000000000              000000000000                    0000000000000000000000000                    000000000000                                                                                                                                                                                                                                                                                                                                                                                                                                                                                        
03547710075820073DT67590675900000005702800888800000010180088887287283062900010739984030320230000000600006223000000000373217525363XXXXXX6012       ME03KE06MS02      NY 4607AMWEOGJYZI0303  N840000000006000          81DNPSILOMART                82905Z    MC84000000006000 N  549900000001   rnMDTRR5nvwJ7NFr13d7     000000000+600450S00140    MWE  00737                     000000000  N                0000000000000.00 0000000.00   0000000.00                             000000000000000                                                                                                                                                   U001418  000000000000 0000000000001.66     02600 01000                  
03547720075820074DT67590675900000005702800888800000010180088873011003062900010738114030320230000000799806223000000000373217379312XXXXX1014                          NY 4 07N004259113085326N840000000007998          01DNTRADE READY LLC          223410    AM84000000007998 N  549971004114                            000000000+6004S0S00140 258     11262                     000000000                   0000000000000.00 0000000.00   0000000.00                             000000000000000 61248972086759675900000005702 TRADE READY LLC          4744 PARADISE RD         7023386941      89169     PSILOMART@GMAIL.COM                       01418  000000000000 0000000000001.66     01950 00000                  
03547730075820075DT67590675900000005702800888800000010180088876509753062900010774376030320230000000500006223000000000373217601149XXXXXX9950   BA00                  NY 4 07N873053201955959N840000000005000    00    01DNPSILOMART                00384P    DS84000000005000 N  549971004114010                         000000000+1015104910600   DCPDI01122666374  104955000000 000000000  0          150   0000000000000.00 0000000.00   0000000.00                             000000000000000                                                                                                                                                     01418  000000000000 0000000000001.13     02050 01000                  
03547740075820076DT67590675900000005702800888800000010180088824001193062900010786091030320230000000663806223000000000373217430657XXXXXX3792               2111111   NYV4 A7W463062706024384N8400000000066388J3L00    01DNPSILOMART                003553    VS84000000006638 NP1549971004114   RR59CYDKV1RGZ3JVSNQR     000000000+                B CB 12107                     000000000  N000000000 494   0000000000000.00 0000000.00   0000000.00                             000000000000000                                                                                                                                                     01418 G000000006638 0000000000001.45     02040 01000                  
03547750075820001P16759067590000000570280088880000001010000000000000000                             2000000000000000000000000              000000000000                    0000000000000000000000000                    000000000000                                                                                                                                                                                                                                                                                                                                                                                                                                                                                        
03547760075820077DT67590675900000005702800888800000010180088824001193062900010797783030320230000000230006223000000000373217440393XXXXXX7552               2111111   NYV4 A7W583062730629518N8400000000023004KGR00    01DNPSILOMART                580359    VD84000000002300 NP1549971004114   R7BOLCTPKM9LKGSR8BGD     000000000+                F PF 08175                     000000000  N000000000       0000000000000.00 0000000.00   0000000.00                             000000000000000                                                                                                                                                     01418 G000000002300 0000000000000.60     01750 02000                  
03547770075820001P16759067590000000570280088880000001010000000000000000                             2000000000000000000000000              000000000000                    0000000000000000000000000                    000000000000                                                                                                                                                                                                                                                                                                                                                                                                                                                                                        
03547780075820078DT67590675900000005702800888800000010180088887287283062900010702693030320230000015000006223000000000373217517805XXXXXX2860       ME03KE06MS02      NY 4607AMWERL5LCX0303  N840000000150000          81DNPSILOMART                01040P    MC84000000150000 N  549900000001   rTXFb1IIHVSRb9GrZnc5     000000000+600450S00140    MWE  00737                     000000000  N                0000000000000.00 0000000.00   0000000.00                             000000000000000                                                                                                                                                   U001418  000000000000 0000000000039.10     02600 01000                  
03547790075820079DT67590675900000005702800888800000010180088887287283062900010729001030320230000000609706223000000000373217517546XXXXXX2285       ME03KE06MS02      NY 4607AMDJJSN5N10303  N840000000006097          81DNPSILOMART                003648    MD84000000006097 N  549900000001   r1Cw6WmFBhb8rBnOXEHU     000000000+600450S00140    MDJ  10813                     000000000  1                0000000000000.00 0000000.00   0000000.00                             000000000000000                                                                                                                                                   U001418  000000000000 0000000000000.25     00050 02200                  
03547800075820080DT67590675900000005702800888800000010180088824001193062900010744280030320230000000183906223000000000373217420767XXXXXX7340               2111111   NYV4 A7W583062846994521N8400000000018399ZM700    01DNPSILOMART                093118    VD84000000001839 NP1549971004114   ROZVGR3CMWFMAPE3AP6S     000000000+                F DF 10420                     000000000  Y000000000 338   0000000000000.00 0000000.00   0000000.00                             000000000000000                                                                                                                                                     01418 G000000001839 0000000000000.23     00050 02200                  
03547810075820001P16759067590000000570280088880000001010000000000000000                             2000000000000000000000000              000000000000                    0000000000000000000000000                    000000000000                                                                                                                                                                                                                                                                                                                                                                                                                                                                                        
03547820075820081DT67590675900000005702800888800000010180088887287283062900010747433030320230000000320006223000000000373217521853XXXXXX2826       ME03KE06PT01      NY 4607AMCWSIUBFN0303  N840000000003200          81DNPSILOMART                00391T    MC84000000003200 N  549900000001   r6LInxxWVsYflSYTn8mi     000000000+600450S00140    MCW  02182                     000000000  N                0000000000000.00 0000000.00   0000000.00                             000000000000000                                                                                                                                                   U001418  000000000000 0000000000000.93     02600 01000                  
03547830075820082BH6759067590000000570280088880000090170303202306223000000000136200    0000090001086032N8008886759C03052023                                                                                                                                                                                                                                                                                                                                                                                                                                                                                                                                                                                                 
03547840075820083DT67590675900000005702800888800000010180088887287283062900010860327030320230000013620006223000000000136200528072XXXXXX2036       ME06KE06PT01      NY 4 01AMCWMJYMCX0303  N840000000136200          01DNPSILOMART                03265S    MC84000000136200 N  549900000001   c24699993686075.1        000000000+600320100140    MCW  02182                     000000000  N                0000000000000.00 0000000.00   0000000.00                             000000000000000                                                                                                                                                   U001418  000000000000 0000000000035.51     02600 01000                  
03547850075820084BH6759067590000001094280010180000090170303202306223000000000109137    0000090001230020N8001016759C03052023                                                                                                                                                                                                                                                                                                                                                                                                                                                                                                                                                                                                 
03547860075820085DT67590675900000010942800101800000010180010124001193062900012300016030320230000001647106223000000000109137406049XXXXXX6924       VS11    0001111   NYV1 A E383062540327021N840000000016471CVPC00    05DNPLANET VAPOR #800        090032    VD84000000016471 N  599976923545                            000000000+                F DF 10433                     000000000  Y000000000 338   0000000000000.00 0000000.00   0000000.00                             000000000000000                                                                                                                                                     01418 A000000000000 0000000000000.30     00050 02200                  
03547870075820086DT67590675900000010942800101800000010180010124001193062900012300024030320230000000299206223000000000109137485340XXXXXX8149       VS11    0001111   NYV1 A E583062546962791N840000000002992P2JV00    90DNPLANET VAPOR #800        071136    VD84000000002992 N  599976923545                            000000000+                F PF 08170                     000000000  N000000000       0000000000000.00 0000000.00   0000000.00                             000000000000000                                                                                                                                                     01418 A000000000000 0000000000000.49     01150 01500                  
03547880075820087DT67590675900000010942800101800000010180010124001193062900012300032030320230000000588306223000000000109137438419XXXXXX7128       VS11    0001111   NYV1 A E383062551966800N840000000005883V9TL00    05DNPLANET VAPOR #800        001956    VD84000000005883 N  599976923545                            000000000+                F DF 00381                     000000000  N000000000       0000000000000.00 0000000.00   0000000.00                             000000000000000                                                                                                                                                     01418 A000000000000 0000000000000.62     00800 01500                  
03547890075820088DT67590675900000010942800101800000010180010124001193062900012300040030320230000000556106223000000000109137427199XXXXXX4253       VS11    0001111   NYV1 A E583062552639948N840000000005561FBQ500    05DNPLANET VAPOR #800        505387    VD84000000005561 N  599976923545                            000000000+                F DF 00381                     000000000  N000000000       0000000000000.00 0000000.00   0000000.00                             000000000000000                                                                                                                                                     01418 A000000000000 0000000000000.59     00800 01500                  
03547900075820089DT67590675900000010942800101800000010180010177287283062900012300059030320230000000695006223000000000109137517805XXXXXX8297       MS02WI09          NY 1 0 AMCWN1S5450303  N840000000006950          07DNPLANET VAPOR #800        06700P    MC84000000006950 N  599976923545                            000000000+M10101M5434C    MCW  00644                     000000000  N                0000000000000.00 0000000.00   0000000.00                             000000000000000                                                                                                                                                   B101418  000000000000 0000000000001.42     01900 01000                  
03547910075820090DT67590675900000010942800101800000010180010124001193062900012300065030320230000000181706223000000000109137473703XXXXXX5399       VS11    0001111   NYV1 A E463062597629792N840000000001817MGJK00    05DNPLANET VAPOR #800        009148    VD84000000001817 N  599976923545                            000000000+                F DF 10433                     000000000  Y000000000 338   0000000000000.00 0000000.00   0000000.00                             000000000000000                                                                                                                                                     01418 A000000000000 0000000000000.23     00050 02200                  
03547920075820091DT67590675900000010942800101800000010180010124001193062900012300073030320230000000240606223000000000109137440393XXXXXX0732       VS11    0001111   NYV1 A E303062598909156N840000000002406HKF900    05DNPLANET VAPOR #800        260312    VD84000000002406 N  599976923545                            000000000+                F PF 08170                     000000000  N000000000       0000000000000.00 0000000.00   0000000.00                             000000000000000                                                                                                                                                     01418 A000000000000 0000000000000.43     01150 01500                  
03547930075820092DT67590675900000010942800101800000010180010124001193062900012300081030320230000000067106223000000000109137448233XXXXXX4916       VK04VS111111111   NYV1 A E583062607622101N840000000000671463700    05DNPLANET VAPOR #800        005243    VD84000000000671 N  599976923545                            000000000+                F DF 10439                     000000000  Y000000000 331   0000000000000.00 0000000.00   0000000.00                             000000000000000                                                                                                                                                     01418 F000000000000 0000000000000.22     00050 02200                  
03547940075820093DT67590675900000010942800101800000010180010124001193062900012300099030320230000001176806223000000000109137403995XXXXXX8795       VS11    0001111   NYV1 A E463062628824993N840000000011768SZ9500    90DNPLANET VAPOR #800        001505    VD84000000011768 N  599976923545                            000000000+                F PF 08170                     000000000  N000000000       0000000000000.00 0000000.00   0000000.00                             000000000000000                                                                                                                                                     01418 A000000000000 0000000000001.50     01150 01500                  
03547950075820094DT67590675900000010942800101800000010180010124001193062900012300107030320230000000213906223000000000109137403995XXXXXX8795       VS11    0001111   NYV1 A E463062631150514N8400000000021397V2Q00    90DNPLANET VAPOR #800        001506    VD84000000002139 N  599976923545                            000000000+                F PF 08170                     000000000  N000000000       0000000000000.00 0000000.00   0000000.00                             000000000000000                                                                                                                                                     01418 A000000000000 0000000000000.40     01150 01500                  
03547960075820095DT67590675900000010942800101800000010180010177287283062900012300117030320230000001069806223000000000109137514377XXXXXX3220       MS02WI09          NY 1 0 AMDJAYI9N10303  N840000000010698          05DNPLANET VAPOR #800        1YA9GK    MD84000000010698 N  599976923545                            000000000+M10101C5434C    MDJ  00402                     000000000  N                0000000000000.00 0000000.00   0000000.00                             000000000000000                                                                                                                                                   B101418  000000000000 0000000000001.27     01050 01500                  
03547970075820096DT67590675900000010942800101800000010180010124001193062900012300123030320230000000235306223000000000109137445761XXXXXX4254       VS11    0001111   NYV1 A E463062664665460N840000000002353B9VT00    05DNPLANET VAPOR #800        326800    VD84000000002353 N  599976923545                            000000000+                F DF 00381                     000000000  N000000000       0000000000000.00 0000000.00   0000000.00                             000000000000000                                                                                                                                                     01418 A000000000000 0000000000000.34     00800 01500                  
03547980075820097DT67590675900000010942800101800000010180010124001193062900012300131030320230000000705906223000000000109137474474XXXXXX1441       VS11    0001111   NYV1 A E463062686857175N840000000007059N65B00    05DNPLANET VAPOR #800        130448    VD84000000007059 N  599976923545                            000000000+                F DF 10433                     000000000  Y000000000 338   0000000000000.00 0000000.00   0000000.00                             000000000000000                                                                                                                                                     01418 A000000000000 0000000000000.26     00050 02200                  
03547990075820098DT67590675900000010942800101800000010180010124001193062900012300149030320230000000235306223000000000109137415977XXXXXX9670       VS11    0001111   NYV1 A E463062749052939N840000000002353CZ7700    05DNPLANET VAPOR #800        073541    VD84000000002353 N  599976923545                            000000000+                F DF 10433                     000000000  Y000000000 338   0000000000000.00 0000000.00   0000000.00                             000000000000000                                                                                                                                                     01418 A000000000000 0000000000000.23     00050 02200                  
03548000075820099DT67590675900000010942800101800000010180010124001193062900012300156030320230000000470606223000000000109137473703XXXXXX4524       VS11    0001111   NYV1 A E463062762543037N840000000004706BHP800    07DNPLANET VAPOR #800        056925    VD84000000004706 N  599976923545                            000000000+                F DF 10433                     000000000  Y000000000 338   0000000000000.00 0000000.00   0000000.00                             000000000000000                                                                                                                                                     01418 A000000000000 0000000000000.24     00050 02200                  
03548010075820100DT67590675900000010942800101800000010180010124001193062900012300164030320230000000346506223000000000109137430602XXXXXX4427       VS11    0001111   NYV1 A E583062827689405N8400000000034659T7500    05DNPLANET VAPOR #800        285982    VD84000000003465 N  599976923545                            000000000+                F DF 00381                     000000000  N000000000       0000000000000.00 0000000.00   0000000.00                             000000000000000                                                                                                                                                     01418 A000000000000 0000000000000.43     00800 01500                  
03548020075820101DT67590675900000010942800101800000010180010124001193062900012300172030320230000000213906223000000000109137440393XXXXXX2084       VS11    0001111   NYV1 A E463062831696004N840000000002139HXFN00    07DNPLANET VAPOR #800        002808    VD84000000002139 N  599976923545                            000000000+                F PF 08170                     000000000  N000000000       0000000000000.00 0000000.00   0000000.00                             000000000000000                                                                                                                                                     01418 A000000000000 0000000000000.40     01150 01500                  
03548030075820102DT67590675900000010942800101800000010180010177287283062900012300182030320230000000641906223000000000109137517604XXXXXX3612       MS02WI09          NY 1 0 AMWEW603FK0303  N840000000006419          07DNPLANET VAPOR #800        99495Z    MC84000000006419 N  599976923545                            000000000+M10101M1134C    MWE  00739                     000000000  N                0000000000000.00 0000000.00   0000000.00                             000000000000000                                                                                                                                                   A101418  000000000000 0000000000001.58     02300 01000                  
03548040075820103DT67590675900000010942800101800000010180010124001193062900012300198030320230000001116906223000000000109137440393XXXXXX6616       VS11    0001111   NYV1 A E463063030675470N8400000000111694X5N00    05DNPLANET VAPOR #800        049708    VD84000000011169 N  599976923545                            000000000+                F PF 08170                     000000000  N000000000       0000000000000.00 0000000.00   0000000.00                             000000000000000                                                                                                                                                     01418 A000000000000 0000000000001.43     01150 01500                  
03548050075820104DT67590675900000010942800101800000010180010124001193062900012300206030320230000000211806223000000000109137400022XXXXXX5166       VS11    0001111   NYV1 A E383063031202913N8400000000021187L7N00    05DNPLANET VAPOR #800        499324    VD84000000002118 N  599976923545                            000000000+                F DF 10433                     000000000  Y000000000 338   0000000000000.00 0000000.00   0000000.00                             000000000000000                                                                                                                                                     01418 A000000000000 0000000000000.23     00050 02200                  
03548060075820105BH6759067590000001107280010180000090170303202306223000000000036352    0000090001240012N8001016759C03052023                                                                                                                                                                                                                                                                                                                                                                                                                                                                                                                                                                                                 
03548070075820106DT67590675900000011072800101800000010180010124001193062900012400014030320230000000427806223000000000036352400022XXXXXX8196       VS11    0001111   NYV1 A E303062629905424N8400000000042786GZL00    05DNPLANET VAPOR #900        352923    VD84000000004278 N  599976923588                            000000000+                F DF 10433                     000000000  Y000000000 338   0000000000000.00 0000000.00   0000000.00                             000000000000000                                                                                                                                                     01418 A000000000000 0000000000000.24     00050 02200                  
03548080075820107DT67590675900000011072800101800000010180010124001193062900012400022030320230000000133606223000000000036352400022XXXXXX8196       VK04VS111111111   NYV1 A E583062631302653N84000000000133669TW00    05DNPLANET VAPOR #900        784462    VD84000000001336 N  599976923588                            000000000+                F DF 10439                     000000000  Y000000000 331   0000000000000.00 0000000.00   0000000.00                             000000000000000                                                                                                                                                     01418 F000000000000 0000000000000.23     00050 02200                  
03548090075820108DT67590675900000011072800101800000010180010124001193062900012400030030320230000000171106223000000000036352413037XXXXXX9293       VS11    0001111   NYV1 A E463062657667799N840000000001711RH8X00    07DNPLANET VAPOR #900        029845    VD84000000001711 N  599976923588                            000000000+                F DF 10433                     000000000  Y000000000 338   0000000000000.00 0000000.00   0000000.00                             000000000000000                                                                                                                                                     01418 A000000000000 0000000000000.23     00050 02200                  
03548100075820109DT67590675900000011072800101800000010180010124001193062900012400048030320230000000320806223000000000036352430602XXXXXX2065       VS11    0001111   NYV1 A E383062669015218N840000000003208LHDC00    07DNPLANET VAPOR #900        230543    VD84000000003208 N  599976923588                            000000000+                F DF 00381                     000000000  N000000000       0000000000000.00 0000000.00   0000000.00                             000000000000000                                                                                                                                                     01418 A000000000000 0000000000000.41     00800 01500                  
03548110075820110DT67590675900000011072800101800000010180010124001193062900012400055030320230000000481306223000000000036352438419XXXXXX6941       VS11    0001111   NYV1 A E583062701240682N840000000004813Z3ZZ00    07DNPLANET VAPOR #900        042844    VD84000000004813 N  599976923588                            000000000+                F DF 00381                     000000000  N000000000       0000000000000.00 0000000.00   0000000.00                             000000000000000                                                                                                                                                     01418 A000000000000 0000000000000.54     00800 01500                  
03548120075820111DT67590675900000011072800101800000010180010124001193062900012400063030320230000000470606223000000000036352433477XXXXXX6339       VS11    0001111   NYV1 A E383062759829415N840000000004706QSHG00    05DNPLANET VAPOR #900        516204    VD84000000004706 N  599976923588                            000000000+                F DF 10433                     000000000  Y000000000 338   0000000000000.00 0000000.00   0000000.00                             000000000000000                                                                                                                                                     01418 A000000000000 0000000000000.24     00050 02200                  
03548130075820112DT67590675900000011072800101800000010180010124001193062900012400071030320230000000267406223000000000036352430602XXXXXX3486       VS11    0001111   NYV1 A E463062761192038N840000000002674ZF6K00    07DNPLANET VAPOR #900        263743    VD84000000002674 N  599976923588                            000000000+                F DF 00381                     000000000  N000000000       0000000000000.00 0000000.00   0000000.00                             000000000000000                                                                                                                                                     01418 A000000000000 0000000000000.36     00800 01500                  
03548140075820113DT67590675900000011072800101800000010180010124001193062900012400089030320230000000213906223000000000036352440393XXXXXX8232       VS11    0001111   NYV1 A E583062763324687N840000000002139XKGB00    07DNPLANET VAPOR #900        987396    VD84000000002139 N  599976923588                            000000000+                F PF 08170                     000000000  N000000000       0000000000000.00 0000000.00   0000000.00                             000000000000000                                                                                                                                                     01418 A000000000000 0000000000000.40     01150 01500                  
03548150075820114DT67590675900000011072800101800000010180010124001193062900012400097030320230000000250306223000000000036352455225XXXXXX4003       VS11    0001111   NYV1 A E583062770405109N840000000002503WTR900    05DNPLANET VAPOR #900        H54913    VD84000000002503 N  599976923588                            000000000+                F DF 10433                     000000000  Y000000000 338   0000000000000.00 0000000.00   0000000.00                             000000000000000                                                                                                                                                     01418 A000000000000 0000000000000.23     00050 02200                  
03548160075820115DT67590675900000011072800101800000010180010124001193062900012400105030320230000000470606223000000000036352461675XXXXXX0446       VS11    0001111   NYV1 A E583062773791881N840000000004706TMCF00    05DNPLANET VAPOR #900        470030    VD84000000004706 N  599976923588                            000000000+                F DF 00381                     000000000  N000000000       0000000000000.00 0000000.00   0000000.00                             000000000000000                                                                                                                                                     01418 A000000000000 0000000000000.53     00800 01500                  
03548170075820116DT67590675900000011072800101800000010180010124001193062900012400113030320230000000267406223000000000036352401670XXXXXX9628       VS11    0001111   NYV1 A E583062784368662N840000000002674NLBV00    07DNPLANET VAPOR #900        828449    VD84000000002674 N  599976923588                            000000000+                F DF 00381                     000000000  N000000000       0000000000000.00 0000000.00   0000000.00                             000000000000000                                                                                                                                                     01418 A000000000000 0000000000000.36     00800 01500                  
03548180075820117DT67590675900000011072800101800000010180010124001193062900012400121030320230000000160406223000000000036352440393XXXXXX3976       VS11    0001111   NYV1 A E463063010860547N8400000000016046HGK00    07DNPLANET VAPOR #900        186736    VD84000000001604 N  599976923588                            000000000+                F PF 08170                     000000000  N000000000       0000000000000.00 0000000.00   0000000.00                             000000000000000                                                                                                                                                     01418 A000000000000 0000000000000.33     01150 01500                  
03548190075820118BH6759067590000000833480010180000090170303202306223000000000352071    0000090001230062N8001016759C03052023                                                                                                                                                                                                                                                                                                                                                                                                                                                                                                                                                                                                 
03548200075820119DT67590675900000008334800101800000010180010124001193062900012300016030320230000000200006223000000000352071400022XXXXXX7674       VS11    0001111   NYV1 A E583062532023374N840000000002000VXFH00    05DNPLANET VAPOR #400        107575    VD84000000002000 N  599976779447                            000000000+                F DF 10433                     000000000  Y000000000 338   0000000000000.00 0000000.00   0000000.00                             000000000000000                                                                                                                                                     01418 A000000000000 0000000000000.23     00050 02200                  
03548210075820120DT67590675900000008334800101800000010180010124001193062900012300024030320230000000454606223000000000352071400022XXXXXX7674       VS11    0001111   NYV1 A E463062535427719N840000000004546TWXG00    05DNPLANET VAPOR #400        324763    VD84000000004546 N  599976779447                            000000000+                F DF 10433                     000000000  Y000000000 338   0000000000000.00 0000000.00   0000000.00                             000000000000000                                                                                                                                                     01418 A000000000000 0000000000000.24     00050 02200                  
03548220075820121DT67590675900000008334800101800000010180010177287283062900012300034030320230000000240606223000000000352071531258XXXXXX1573       MS02WI09          NY 1 0 AMDJRUW6420303  N840000000002406          05DNPLANET VAPOR #400        120807    MD84000000002406 N  599976779447                            000000000+M10101C5434C    MDJ  10815                     000000000  1                0000000000000.00 0000000.00   0000000.00                             000000000000000                                                                                                                                                   B101418  000000000000 0000000000000.23     00050 02200                  
03548230075820122DT67590675900000008334800101800000010180010177287283062900012300042030320230000000427906223000000000352071529099XXXXXX8413       MS02WI09          NY 1 0 AMDJG8R38S0303  N840000000004279          05DNPLANET VAPOR #400        554346    MD84000000004279 N  599976779447                            000000000+M10101C5434C    MDJ  10815                     000000000  1                0000000000000.00 0000000.00   0000000.00                             000000000000000                                                                                                                                                   B101418  000000000000 0000000000000.24     00050 02200                  
