02197080345640002BH6759067590000000215480088880000090171215202234922000000001206259    0000090001614779N8008886759C12162022                                                                                                                                                                                                                                                                                                                                                                                                                                                                                                                                                                                                 
02197090345640003DT67590675900000002154800888800000010180088824001192349900016116738121520220000000669534922000000001206259403784XXXXXX6669               2111111   NYV4 A7W582349535975654N840000000006695MPS200    01DNDRIP DROP DISTRO LLC     805135    VS84000000006695 NP1519971004114   17109                    000000000+                A CA 12106                     000000000  N000000000 492   0000000000000.00 0000000.00   0000000.00                             000000000000000                                                                                                                                                     01418 G000000006695 0000000000001.37     01890 01000                  
02197100345640001P16759067590000000215480088880000001010000000000000000                             2000000000000000000000000              000000000000                    0000000000000000000000000                    000000000000                                                                                                                                                                                                                                                                                                                                                                                                                                                                                        
02197110345640004DT67590675900000002154800888800000010180088824001192349900016122819121520220000092864034922000000001206259486697XXXXXX8448               2111111   NYV4 A7W382349547171795N840000000928640WDPS00    01DNDRIP DROP DISTRO LLC     015454    VB84000000928640 NP1519971004114   INV-27869                000000000+                S CS 00692                     000000000  N000000000 237   0000000000000.00 0000000.00   0000000.00                             000000000000000                                                                                                                                                     01418 G000000928640 0000000000250.83     02700 01000                  
02197120345640001P16759067590000000215480088880000001010000000000000000    43822138796              2000000000000000000000000              000000000000                    0000000000000000000000000                    000000000000                                                                                                                                                                                                                                                                                                                                                                                                                                                                                        
02197130345640005DT67590675900000002154800888800000010180088887287282349900016172369121520220000010530034922000000001206259547725XXXXXX9918                         NY 4607AMCBEETUCM1215  N840000000105300          81DNDRIP DROP DISTRO LLC     18652C    MB84000000105300 NP1519900000001   INV-27879                000000000+600450S00140    MCB  11033                     000000000  N                0000000000000.00 0000000.00   0000000.00                             000000000000000                                                                                                                                                   U001418  000000000000 0000000000028.00     02650 01000                  
02197140345640001P1675906759000000021548008888000000101                                                          000000000000          8000            471534935                                                                                                                                                                                                                                                                                                                                                                                                                                                                                                                                                            
02197150345640006DT67590675900000002154800888800000010180088887287282349900016147791121520220000016562434922000000001206259547415XXXXXX6095                         NY 4607AMEBESVTGD1215  N840000000165624          81DNDRIP DROP DISTRO LLC     05117Q    MB84000000165624 NP1519900000001   17112                    000000000+600450S00140    MEB  11637                     000000000  N                0000000000000.00 0000000.00   0000000.00                             000000000000000                                                                                                                                                   U001418  000000000000 0000000000049.79     03000 01000                  
02197160345640001P1675906759000000021548008888000000101                                                          000000000000          8000            471534935                                                                                                                                                                                                                                                                                                                                                                                                                                                                                                                                                            
02197170345640007BH6759067590000000096880088880000090171215202234922000000000005549    0000090001070001N8008886759C12162022                                                                                                                                                                                                                                                                                                                                                                                                                                                                                                                                                                                                 
02197180345640008DT67590675900000000968800888800000010180088824001192349900010723026121520220000001200034922000000000005549473702XXXXXX3264               2111111   NYV4 A7W582349078430127N840000000012000ZXL300    01DNHIGHER FLOUR LLC         094830    VD84000000012000 NP1546271004114   RYGHLIWPGN4RV1XZW2MG     000000000+                F DF 10420                     000000000  Y000000000 338   0000000000000.00 0000000.00   0000000.00                             000000000000000                                                                                                                                                     01418 G000000012000 0000000000000.28     00050 02200                  
02197190345640001P16759067590000000096880088880000001010000000000000000                             2000000000000000000000000              000000000000                    0000000000000000000000000                    000000000000                                                                                                                                                                                                                                                                                                                                                                                                                                                                                        
02197200345640009DT67590675900000000968800888800000010680088874001192349900010700011121520220000000645134922000000000005549430652XXXXXX5259               0000000   NY94 07N000000000000000N   000000000000          01CNHIGHER FLOUR LLC                   VD84000000006451 N  546271004114                            000000000+                F DF 08168                     000000000  N000000000 369   0000000000000.00 0000000.00   0000000.00                             000000000000000                                                                                                                                                     01418  000000000000 0000000000000.00     00000 00000                  
