00013680224550002BH6759067590000001516480088880000090170710202319123000000000025590    0000090001339086Y8008886759C07112023133                                                                                                                                                                                                                                                                                                                                                                                                                                                                                                                                                                                              
00013690224550003DT67590675900000015164800888800000010180088887287283191900013390128070920230000001987019123000000000025590518941XXXXXX0059       ME03KE06MS02      NY 4607AMWEOUKW9L0706  N840000000019870          81DNKETOFUSION833-923-3587   80028Z    MC84000000019870 NDR599977360677   C00E5663A2T3F4BD8B0D88A  000000000+600450S00130    MWE  00737                     000000000  N                0000000000000.00 0000000.00   0000000.00                             000000000000000                                                                                                                                                   U001424  000000000000 0000000000005.27     02600 01000                  
00013700224550003DR675906759000000151648008888000000101C00E5663A2T3F4BD8B0D88A  A000000000000                                                                                                                                                                                                                                                                                                                                                                                                                                                                                                                                                                                                                               
00013710224550001G2675906759000000151648008888000000101833-9233587              UT           9 E               210                                      NNNN           210000000000000000000000000                        7                                          77360677                                                                                                                                                                                                                                                                                                                                                                                                                                               
00013720224550004DT67590675900000015164800888800000010180088887287283191900013390169070920230000001987019123000000000025590552433XXXXXX8171       ME03KE06PT01      NY 4607AMCWILUSE10706  N840000000019870          81DNKETOFUSION833-923-3587   03009S    MC84000000019870 NDR599977360677   FD6E5516E1TB2671A2CB2CF  000000000+600450S00130    MCW  02182                     000000000  N                0000000000000.00 0000000.00   0000000.00                             000000000000000                                                                                                                                                   U001424  000000000000 0000000000005.27     02600 01000                  
00013730224550004DR675906759000000151648008888000000101FD6E5516E1TB2671A2CB2CF  Y000000000000                                                                                                                                                                                                                                                                                                                                                                                                                                                                                                                                                                                                                               
00013740224550001G2675906759000000151648008888000000101833-9233587              UT           9 W               210                                      NNNN           210000000000000000000000000                        7                                          77360677                                                                                                                                                                                                                                                                                                                                                                                                                                               
00013750224550005DT67590675900000015164800888800000010180088824001193191900013390697071020230000001987019123000000000025590414720XXXXXX4943               2111111   NYV4 A7W463191543045398N84000000001987034B700    01DNKETOFUSION833-923-3587   05137D    VS84000000019870 NDR599977360677   E978A9582AT0AEB3FCE1C8D  000000000+                D CD 12109                     000000000  N000000000 498   0000000000000.00 0000000.00   0000000.00                             000000000000000                                                                                                                                                     01424 G000000019870 0000000000005.07     02500 01000                  
00013760224550005DR675906759000000151648008888000000101E978A9582AT0AEB3FCE1C8D  Y000000019870                 P1                                                                                                                                                                                                                                                                                                                                                                                                                                                                                                                                                                                                            
00013770224550001P16759067590000001516480088880000001010000000000000000                             2000000000000000000000000              000000000000                    0000000000000000000000000                    000000000000                                                                                                                                                                                                                                                                                                                                                                                                                                                                                        
00013780224550002G2675906759000000151648008888000000101801-4041097              UT           9 C                00                                      NNNN   Y                      000000000000                                                                   77360677                                                                                                                                                                                                                                                                                                                                                                                                                                               
00013790224550006DT67590675900000015164800888800000010180088824001193191900013390713071020230000001506619123000000000025590434256XXXXXX2337               2111111   NYV4 A7W383191580511745N840000000015066PPGZ00    01DNKETOFUSION833-923-3587   044534    VD84000000015066 NDR599977360677   D0CEEEFFC6TB56211ADA817  000000000+                F DF 10420                     000000000  Y000000000 338   0000000000000.00 0000000.00   0000000.00                             000000000000000                                                                                                                                                     01424 G000000015066 0000000000000.30     00050 02200                  
00013800224550006DR675906759000000151648008888000000101D0CEEEFFC6TB56211ADA817  Y000000015066                 P1                                                                                                                                                                                                                                                                                                                                                                                                                                                                                                                                                                                                            
00013810224550001P16759067590000001516480088880000001010000000000000000                             2000000000000000000000000              000000000000                    0000000000000000000000000                    000000000000                                                                                                                                                                                                                                                                                                                                                                                                                                                                                        
00013820224550002G2675906759000000151648008888000000101801-4041097              UT           9 D                00                                      NNNN   N                      000000000000                                                                   77360677                                                                                                                                                                                                                                                                                                                                                                                                                                               
00013830224550007DT67590675900000015164800888800000010180088887287283191900013390763071020230000000198819123000000000025590539277XXXXXX8887       ME03KE06MS02      NY 4607AMWEFJ2EHK0710  N840000000001988          81DNKETOFUSION833-923-3587   06627Z    MC84000000001988 NDR599977360677   402CDEB062T627C34AD021C  000000000+600450S00130    MWE  00737                     000000000  N                0000000000000.00 0000000.00   0000000.00                             000000000000000                                                                                                                                                   U001424  000000000000 0000000000000.62     02600 01000                  
00013840224550007DR675906759000000151648008888000000101402CDEB062T627C34AD021C  Y000000000000                                                                                                                                                                                                                                                                                                                                                                                                                                                                                                                                                                                                                               
00013850224550001G2675906759000000151648008888000000101833-9233587              UT           9 E               210                                      NNNN           210000000000000000000000000                        7                                          77360677                                                                                                                                                                                                                                                                                                                                                                                                                                               
00013860224550008DT67590675900000015164800888800000010180088887287283191900013390771071020230000000654819123000000000025590539277XXXXXX8887       ME03KE06MS02      NY 4607AMWEFKL6HK0710  N840000000006548          81DNKETOFUSION833-923-3587   08843Z    MC84000000006548 NDR599977360677   402CDEB062T72CC64D727F3  000000000+600450S00130    MWE  00737                     000000000  N                0000000000000.00 0000000.00   0000000.00                             000000000000000                                                                                                                                                   U001424  000000000000 0000000000001.80     02600 01000                  
00013870224550008DR675906759000000151648008888000000101402CDEB062T72CC64D727F3  Y000000000000                                                                                                                                                                                                                                                                                                                                                                                                                                                                                                                                                                                                                               
00013880224550001G2675906759000000151648008888000000101833-9233587              UT           9 E               210                                      NNNN           210000000000000000000000000                        7                                          77360677                                                                                                                                                                                                                                                                                                                                                                                                                                               
00013890224550009DT67590675900000015164800888800000010180088824001193191900013390812071020230000000198819123000000000025590414718XXXXXX2086               2111111   NYV4 A7W303191742838340N840000000001988RXZC00    01DNKETOFUSION833-923-3587   010459    VS84000000001988 NDR599977360677   8B52D502D5TFD566F43ACE4  000000000+                D CD 12109                     000000000  N000000000 498   0000000000000.00 0000000.00   0000000.00                             000000000000000                                                                                                                                                     01424 G000000001988 0000000000000.60     02500 01000                  
00013900224550009DR6759067590000001516480088880000001018B52D502D5TFD566F43ACE4  Y000000001988                 P1                                                                                                                                                                                                                                                                                                                                                                                                                                                                                                                                                                                                            
00013910224550001P16759067590000001516480088880000001010000000000000000                             2000000000000000000000000              000000000000                    0000000000000000000000000                    000000000000                                                                                                                                                                                                                                                                                                                                                                                                                                                                                        
00013920224550002G2675906759000000151648008888000000101801-4041097              UT           9 C                00                                      NNNN   Y                      000000000000                                                                   77360677                                                                                                                                                                                                                                                                                                                                                                                                                                               
00013930224550010DT67590675900000015164800888800000010680088887287283191900013390839071020230000001987019123000000000025590542418XXXXXX8307                         NY 4607AMPLK4HNW80710  N840000000019870          81CNKETOFUSION833-923-3587   667280    MC84000000019870 NDR599977360677   3B924CF151TF5060FC185D2  000000000+600450S00130    MPL  00564                     000000000  N                0000000000000.00 0000000.00   0000000.00                             000000000000000                                                                                                                                                     01424  000000000000-0000000000003.48     01750 00000                  
00013940224550010DR6759067590000001516480088880000001063B924CF151TF5060FC185D2  U000000000000                                                                                                                                                                                                                                                                                                                                                                                                                                                                                                                                                                                                                               
00013950224550001G2675906759000000151648008888000000106833-9233587              UT           9 L               210                                      NNNN           210000000000000000000000000                        7                                          77360677                                                                                                                                                                                                                                                                                                                                                                                                                                               
00013960224550011DT67590675900000015164800888800000010680088874001193191900013390841071020230000001987019123000000000025590441833XXXXXX5524               0000000   NYV4 07T303191747179763N840000000019870SR7700    01CNKETOFUSION833-923-3587   322255    VS84000000019870 NDR599977360677   4E78A8425BT5CEDB0FB75BD  000000000+                A CA 00245                     000000000  N000000000 166   0000000000000.00 0000000.00   0000000.00                             000000000000000                                                                                                                                                     01424  000000019870-0000000000003.50     01760 00000                  
00013970224550011DR6759067590000001516480088880000001064E78A8425BT5CEDB0FB75BD  U000000019870                 P1                                                                                                                                                                                                                                                                                                                                                                                                                                                                                                                                                                                                            
00013980224550001P16759067590000001516480088880000001060000000000000000                             2000000000000000000000000              000000000000                    0000000000000000000000000                    000000000000                                                                                                                                                                                                                                                                                                                                                                                                                                                                                        
00013990224550002G2675906759000000151648008888000000106801-4041097              UT           9 C                00                                      NNNN   Y                      000000000000                                                                   77360677                                                                                                                                                                                                                                                                                                                                                                                                                                               
00014000224550012DT67590675900000015164800888800000010680088874001193191900013390866071020230000001987019123000000000025590441833XXXXXX5524               0000000   NYV4 07T303191747282943N8400000000198705S9400    01CNKETOFUSION833-923-3587   403117    VS84000000019870 NDR599977360677   B3023EC6CET4081AAF141A9  000000000+                A CA 00245                     000000000  N000000000 166   0000000000000.00 0000000.00   0000000.00                             000000000000000                                                                                                                                                     01424  000000019870-0000000000003.50     01760 00000                  
00014010224550012DR675906759000000151648008888000000106B3023EC6CET4081AAF141A9  U000000019870                 P1                                                                                                                                                                                                                                                                                                                                                                                                                                                                                                                                                                                                            
00014020224550001P16759067590000001516480088880000001060000000000000000                             2000000000000000000000000              000000000000                    0000000000000000000000000                    000000000000                                                                                                                                                                                                                                                                                                                                                                                                                                                                                        
00014030224550002G2675906759000000151648008888000000106801-4041097              UT           9 C                00                                      NNNN   Y                      000000000000                                                                   77360677                                                                                                                                                                                                                                                                                                                                                                                                                                               
00014040224550013BH6759067590000000370780088880000090170710202319123000000000055188    0000090001351220Y8008886759C07112023135                                                                                                                                                                                                                                                                                                                                                                                                                                                                                                                                                                                              
00014050224550014DT67590675900000003707800888800000010180088824001193191900013512159071020230000000693919123000000000055188448915XXXXXX9346               2111111   NYV4 A7W383191391579259N84000000000693979V400    01DNMR HEMP FLOWER           010115    VS84000000006939 NDR549976053336   837                      000000000+                D CD 12109                     000000000  N000000000 498   0000000000000.00 0000000.00   0000000.00                             000000000000000                                                                                                                                                     01424 G000000006939 0000000000001.83     02500 01000                  
00014060224550014DR675906759000000037078008888000000101837                      Y000000006939                 P1                                                                                                                                                                                                                                                                                                                                                                                                                                                                                                                                                                                                            
00014070224550001P16759067590000000370780088880000001010000000000000000                             2000000000000000000000000              000000000000                    0000000000000000000000000                    000000000000                                                                                                                                                                                                                                                                                                                                                                                                                                                                                        
00014080224550002G2675906759000000037078008888000000101833-3877579              FL           9 C                00                                      NNNN   Y                      000000000000                                                                   76053336                                                                                                                                                                                                                                                                                                                                                                                                                                               
00014090224550015DT67590675900000003707800888800000010180088876509753191900013512165071020230000001450019123000000000055188601101XXXXXX6744   BA00                  NY 4 07N813164561239618N840000000014500    00    01DNMR HEMP FLOWER           01089Q    DS84000000014500 NDR549976053336070                         000000000+1015104910600   DPPDI11329666194  100843000000 000000000  0          464   0000000000000.00 0000000.00   0000000.00                             000000000000000                                                                                                                                                     01424  000000000000 0000000000003.80     02550 01000                  
00014100224550015DR675906759000000037078008888000000101                         Y                                                                                                                                                                                                                                                                                                                                                                                                                                                                                                                                                                                                                                           
00014110224550001G2675906759000000037078008888000000101833-3877579              FL           9 P                00                                      NNNN                          000000000000                         00000650975601179750000071                76053336                                                                                                                                                                                                                                                                                                                                                                                                                                               
00014120224550016DT67590675900000003707800888800000010180088824001193191900013512175071020230000000499919123000000000055188483316XXXXXX4813               2111111   NYV4 A7W303191557748995N840000000004999VSJ300    01DNMR HEMP FLOWER           042911    VD84000000004999 NDR549976053336   91926                    000000000+                F DF 10420                     000000000  Y000000000 338   0000000000000.00 0000000.00   0000000.00                             000000000000000                                                                                                                                                     01424 G000000004999 0000000000000.24     00050 02200                  
00014130224550016DR67590675900000003707800888800000010191926                    Y000000004999                 P1                                                                                                                                                                                                                                                                                                                                                                                                                                                                                                                                                                                                            
00014140224550001P16759067590000000370780088880000001010000000000000000                             2000000000000000000000000              000000000000                    0000000000000000000000000                    000000000000                                                                                                                                                                                                                                                                                                                                                                                                                                                                                        
00014150224550002G2675906759000000037078008888000000101833-3877579              FL           9 D                00                                      NNNN   N                      000000000000                                                                   76053336                                                                                                                                                                                                                                                                                                                                                                                                                                               
00014160224550017DT67590675900000003707800888800000010180088887287283191900013512192071020230000001275019123000000000055188514377XXXXXX4690       ME03KE06MS02      NY 4607AMDJIHHNJT0710  N840000000012750          81DNMR HEMP FLOWER           2S1KWE    MD84000000012750 NDR549976053336   91946                    000000000+600450S00130    MDJ  00401                     000000000  N                0000000000000.00 0000000.00   0000000.00                             000000000000000                                                                                                                                                   U001424  000000000000 0000000000002.25     01650 01500                  
00014170224550017DR67590675900000003707800888800000010191946                    Y000000000000                                                                                                                                                                                                                                                                                                                                                                                                                                                                                                                                                                                                                               
00014180224550001G2675906759000000037078008888000000101833-3877579              FL           9 J               210                                      NNNN           210000000000000000000000000                        7                                          76053336                                                                                                                                                                                                                                                                                                                                                                                                                                               
00014190224550018DT67590675900000003707800888800000010180088824001193191900013512209071020230000001600019123000000000055188463405XXXXXX8514               2111111   NYV4 A7W383191797865271N840000000016000FZN400    01DNMR HEMP FLOWER           092968    VD84000000016000 NDR549976053336   91950                    000000000+                F DF 10420                     000000000  Y000000000 338   0000000000000.00 0000000.00   0000000.00                             000000000000000                                                                                                                                                     01424 G000000016000 0000000000000.30     00050 02200                  
00014200224550018DR67590675900000003707800888800000010191950                    Y000000016000                 P1                                                                                                                                                                                                                                                                                                                                                                                                                                                                                                                                                                                                            
00014210224550001P16759067590000000370780088880000001010000000000000000                             2000000000000000000000000              000000000000                    0000000000000000000000000                    000000000000                                                                                                                                                                                                                                                                                                                                                                                                                                                                                        
00014220224550002G2675906759000000037078008888000000101833-3877579              FL           9 D                00                                      NNNN   N                      000000000000                                                                   76053336                                                                                                                                                                                                                                                                                                                                                                                                                                               
00014230224550019BH6759067590000001330080010280000090170710202319123000000000012397    0000090001451171Y8001026759C07112023145                                                                                                                                                                                                                                                                                                                                                                                                                                                                                                                                                                                              
00014240224550020DT67590675900000013300800102800000010180010224001193191900014507638070920230000000636419123000000000012397443047XXXXXX7988               2111111   NYV4 A7W383187330053348N840000000006364F4MM00    01DNCBD8666317293            654966    VD84000000006364 NDR549977133133   162DA3B065T68FE034F0806  000000000+                F DF 10420                     000000000  Y000000000 338   0000000000000.00 0000000.00   0000000.00                             000000000000000                                                                                                                                                     01424 G000000006364 0000000000000.25     00050 02200                  
00014250224550020DR675906759000000133008001028000000101162DA3B065T68FE034F0806  Y000000006364                 P1                                                                                                                                                                                                                                                                                                                                                                                                                                                                                                                                                                                                            
00014260224550001P16759067590000001330080010280000001010000000000000000                             2000000000000000000000000              000000000000                    0000000000000000000000000                    000000000000                                                                                                                                                                                                                                                                                                                                                                                                                                                                                        
00014270224550002G2675906759000000133008001028000000101866-6317293              GA           9 D                00                                      NNNN   N                      000000000000                                                                   77133133                                                                                                                                                                                                                                                                                                                                                                                                                                               
00014280224550021DT67590675900000013300800102800000010180010287287283191900014507761070920230000001987019123000000000012397546645XXXXXX6613       ME03KE06MS02      NY 4607AMPLK1OV080706  N840000000019870          81DNCBD8666317293            006905    MC84000000019870 NDR549977133133   8B645909B4TBF5DE332FA99  000000000+600450S00130    MPL  00013                     000000000  N                0000000000000.00 0000000.00   0000000.00                             000000000000000                                                                                                                                                   U001424  000000000000 0000000000003.97     01950 01000                  
00014290224550021DR6759067590000001330080010280000001018B645909B4TBF5DE332FA99  Y000000000000                                                                                                                                                                                                                                                                                                                                                                                                                                                                                                                                                                                                                               
00014300224550001G2675906759000000133008001028000000101866-6317293              GA           9 L               210                                      NNNN           210000000000000000000000000                        7                                          77133133                                                                                                                                                                                                                                                                                                                                                                                                                                               
00014310224550022DT67590675900000013300800102800000010180010224001193191900014508156070920230000001611519123000000000012397427088XXXXXX0702               2111111   NYV4 A7W303187654066349N840000000016115JMZD00    01DNCBD8666317293            040958    VD84000000016115 NDR549977133133   8A34FCC9A0T5B21E94CB934  000000000+                F DF 10420                     000000000  Y000000000 338   0000000000000.00 0000000.00   0000000.00                             000000000000000                                                                                                                                                     01424 G000000016115 0000000000000.30     00050 02200                  
00014320224550022DR6759067590000001330080010280000001018A34FCC9A0T5B21E94CB934  Y000000016115                 P1                                                                                                                                                                                                                                                                                                                                                                                                                                                                                                                                                                                                            
00014330224550001P16759067590000001330080010280000001010000000000000000                             2000000000000000000000000              000000000000                    0000000000000000000000000                    000000000000                                                                                                                                                                                                                                                                                                                                                                                                                                                                                        
00014340224550002G2675906759000000133008001028000000101866-6317293              GA           9 D                00                                      NNNN   N                      000000000000                                                                   77133133                                                                                                                                                                                                                                                                                                                                                                                                                                               
00014350224550023DT67590675900000013300800102800000010180010287287283191900014508199070920230000002487019123000000000012397542418XXXXXX9897       ME03KE06MS02      NY 4607AMWETB7SCY0706  N840000000024870          81DNCBD8666317293            92619P    MC84000000024870 NDR549977133133   3FB16EFC96T43F9ECE18374  000000000+600450S00130    MWE  00737                     000000000  N                0000000000000.00 0000000.00   0000000.00                             000000000000000                                                                                                                                                   U001424  000000000000 0000000000006.57     02600 01000                  
00014360224550023DR6759067590000001330080010280000001013FB16EFC96T43F9ECE18374  Y000000000000                                                                                                                                                                                                                                                                                                                                                                                                                                                                                                                                                                                                                               
00014370224550001G2675906759000000133008001028000000101866-6317293              GA           9 E               210                                      NNNN           210000000000000000000000000                        7                                          77133133                                                                                                                                                                                                                                                                                                                                                                                                                                               
00014380224550024DT67590675900000013300800102800000010180010287287283191900014508546070920230000001987019123000000000012397541147XXXXXX4269       ME03KE06PT01      NY 4607AMCWE7L9Q30706  N840000000019870          81DNCBD8666317293            80454P    MC84000000019870 NDR549977133133   E8820D5E22T6051E0EDFBAD  000000000+600450S00130    MCW  00642                     000000000  N                0000000000000.00 0000000.00   0000000.00                             000000000000000                                                                                                                                                   U001424  000000000000 0000000000004.47     02200 01000                  
00014390224550024DR675906759000000133008001028000000101E8820D5E22T6051E0EDFBAD  Y000000000000                                                                                                                                                                                                                                                                                                                                                                                                                                                                                                                                                                                                                               
00014400224550001G2675906759000000133008001028000000101866-6317293              GA           9 W               210                                      NNNN           210000000000000000000000000                        7                                          77133133                                                                                                                                                                                                                                                                                                                                                                                                                                               
00014410224550025DT67590675900000013300800102800000010180010287287283191900014508777070920230000001400819123000000000012397552368XXXXXX7978       ME03KE06PT01      NY 4607AMCWGV3CE10706  N840000000014008          81DNCBD8666317293            71605Z    MC84000000014008 NDR549977133133   4DB2BCA998T919D395167EE  000000000+600450S00130    MCW  00642                     000000000  N                0000000000000.00 0000000.00   0000000.00                             000000000000000                                                                                                                                                   U001424  000000000000 0000000000003.18     02200 01000                  
00014420224550025DR6759067590000001330080010280000001014DB2BCA998T919D395167EE  Y000000000000                                                                                                                                                                                                                                                                                                                                                                                                                                                                                                                                                                                                                               
00014430224550001G2675906759000000133008001028000000101866-6317293              GA           9 W               210                                      NNNN           210000000000000000000000000                        7                                          77133133                                                                                                                                                                                                                                                                                                                                                                                                                                               
00014440224550026DT67590675900000013300800102800000010180010287287283191900014508835070920230000000636419123000000000012397519674XXXXXX4807                         NY 4607AMDBHLYVE10706  N840000000006364          81DNCBD8666317293            278170    MD84000000006364 NDR549977133133                            000000000+600450S00130    MDB  00063                     000000000  N                0000000000000.00 0000000.00   0000000.00                             000000000000000                                                                                                                                                   U001424  000000000000 0000000000001.40     02050 01000                  
00014450224550026DR675906759000000133008001028000000101                         Y000000000000                 P1                                                                                                                                                                                                                                                                                                                                                                                                                                                                                                                                                                                                            
00014460224550001P1675906759000000133008001028000000101                                                 000000360000000000000          8000   000000000871584967            000000000000                                                                                                                                                                                                                                                                                                                                                                                                                                                                                                                                    
00014470224550002G2675906759000000133008001028000000101866-6317293              GA           9 B               210                  871584967           YNNN           210000000000000000000000000                        7                                          77133133                                                                                                                                                                                                                                                                                                                                                                                                                                               
00014480224550027DT67590675900000013300800102800000010180010224001193191900014508958070920230000002136019123000000000012397432739XXXXXX3844               2111111   NYV4 A7W383188099059214N8400000000213604JT500    01DNCBD8666317293            242418    VD84000000021360 NDR549977133133   E08BE66D7BTB82D9198A85F  000000000+                F DF 10420                     000000000  Y000000000 338   0000000000000.00 0000000.00   0000000.00                             000000000000000                                                                                                                                                     01424 G000000021360 0000000000000.33     00050 02200                  
00014490224550027DR675906759000000133008001028000000101E08BE66D7BTB82D9198A85F  N000000021360                 P1                                                                                                                                                                                                                                                                                                                                                                                                                                                                                                                                                                                                            
00014500224550001P16759067590000001330080010280000001010000000000000000                             2000000000000000000000000              000000000000                    0000000000000000000000000                    000000000000                                                                                                                                                                                                                                                                                                                                                                                                                                                                                        
00014510224550002G2675906759000000133008001028000000101866-6317293              GA           9 D                00                                      NNNN   N                      000000000000                                                                   77133133                                                                                                                                                                                                                                                                                                                                                                                                                                               
00014520224550028DT67590675900000013300800102800000010180010224001193191900014511523070920230000000642819123000000000012397440393XXXXXX6412               2111111   NYV4 A7W303191081617465N840000000006428SM2Q00    01DNCBD8666317293            011890    VD84000000006428 NDR549977133133   ABF838F005T116C35BB896A  000000000+                F PF 08175                     000000000  N000000000       0000000000000.00 0000000.00   0000000.00                             000000000000000                                                                                                                                                     01424 G000000006428 0000000000001.32     01750 02000                  
00014530224550028DR675906759000000133008001028000000101ABF838F005T116C35BB896A  Y000000006428                 P1                                                                                                                                                                                                                                                                                                                                                                                                                                                                                                                                                                                                            
00014540224550001P16759067590000001330080010280000001010000000000000000                             2000000000000000000000000              000000000000                    0000000000000000000000000                    000000000000                                                                                                                                                                                                                                                                                                                                                                                                                                                                                        
00014550224550002G2675906759000000133008001028000000101866-6317293              GA           9 P                00                                      NNNN   N                      000000000000                                                                   77133133                                                                                                                                                                                                                                                                                                                                                                                                                                               
00014560224550029DT67590675900000013300800102800000010680010274001193191900014511643071020230000002146019123000000000012397443047XXXXXX7863               0000000   NYV4 07T583191573243359N8400000000214604NWL00    01CNCBD8666317293            010024    VD84000000021460 NDR549977133133   1630A2F668T24055FE8F318  000000000+                F DF 08168                     000000000  Y000000000 369   0000000000000.00 0000000.00   0000000.00                             000000000000000                                                                                                                                                     01424  000000021460 0000000000000.00     00000 00000                  
00014570224550029DR6759067590000001330080010280000001061630A2F668T24055FE8F318  U000000021460                 P1                                                                                                                                                                                                                                                                                                                                                                                                                                                                                                                                                                                                            
00014580224550001P16759067590000001330080010280000001060000000000000000                             2000000000000000000000000              000000000000                    0000000000000000000000000                    000000000000                                                                                                                                                                                                                                                                                                                                                                                                                                                                                        
00014590224550002G2675906759000000133008001028000000106866-6317293              GA           9 D                00                                      NNNN   N                      000000000000                                                                   77133133                                                                                                                                                                                                                                                                                                                                                                                                                                               
00014600224550030DT67590675900000013300800102800000010680010274001193191900014511650071020230000000999819123000000000012397486236XXXXXX5197               0000000   NYV4 07T583191574681111N84000000000999886Z385    01CNCBD8666317293            067235    VS84000000009998 NDR549977133133   F67B2829F5T1F44F6ECB661  000000000+                C CC 00245                     000000000  N000000000 166   0000000000000.00 0000000.00   0000000.00                             000000000000000                                                                                                                                                     01424  000000009998-0000000000001.76     01760 00000                  
00014610224550030DR675906759000000133008001028000000106F67B2829F5T1F44F6ECB661  R000000009998                 P1                                                                                                                                                                                                                                                                                                                                                                                                                                                                                                                                                                                                            
00014620224550001P16759067590000001330080010280000001060000000000000000                             2000000000000000000000000              000000000000                    0000000000000000000000000                    000000000000                                                                                                                                                                                                                                                                                                                                                                                                                                                                                        
00014630224550002G2675906759000000133008001028000000106866-6317293              GA           9 C                00                                      NNNN   Y                      000000000000                                                                   77133133                                                                                                                                                                                                                                                                                                                                                                                                                                               
00014640224550031DT67590675900000013300800102800000010680010287287283191900014511664071020230000000976019123000000000012397518941XXXXXX2486                         NY 4607AMWEDD2FW80710  N840000000009760          81CNCBD8666317293            246322    MC84000000009760 NDR549977133133   2BD7274D32T4EB2FAA4F5BD  000000000+600450S00130    MWE  00565                     000000000  N                0000000000000.00 0000000.00   0000000.00                             000000000000000                                                                                                                                                     01424  000000000000-0000000000001.71     01750 00000                  
00014650224550031DR6759067590000001330080010280000001062BD7274D32T4EB2FAA4F5BD  U000000000000                                                                                                                                                                                                                                                                                                                                                                                                                                                                                                                                                                                                                               
00014660224550001G2675906759000000133008001028000000106866-6317293              GA           9 E               210                                      NNNN           210000000000000000000000000                        7                                          77133133                                                                                                                                                                                                                                                                                                                                                                                                                                               
00014670224550032DT67590675900000013300800102800000010680010287287283191900014511672071020230000002170819123000000000012397548190XXXXXX9146                         NY 4607AMCWPYZCDS0710  N840000000021708          81CNCBD8666317293            076124    MC84000000021708 NDR549977133133   D26D0058F9T4DC5917D1EBD  000000000+600450S00130    MCW  00565                     000000000  N                0000000000000.00 0000000.00   0000000.00                             000000000000000                                                                                                                                                     01424  000000000000-0000000000003.80     01750 00000                  
00014680224550032DR675906759000000133008001028000000106D26D0058F9T4DC5917D1EBD  Y000000000000                                                                                                                                                                                                                                                                                                                                                                                                                                                                                                                                                                                                                               
00014690224550001G2675906759000000133008001028000000106866-6317293              GA           9 W               210                                      NNNN           210000000000000000000000000                        7                                          77133133                                                                                                                                                                                                                                                                                                                                                                                                                                               
00014700224550033DT67590675900000013300800102800000010680010276509753191900014511687071020230000001916019123000000000012397601100XXXXXX3044   BA00                  NY 4 07N873164680712214N840000000019160    00    01CNCBD8666317293            01034R    DS84000000019160 NDR549977133133070                         000000000+1015104910600   DCCDI01022666203  132751200000 000000000  0          134   0000000000000.00 0000000.00   0000000.00                             000000000000000                                                                                                                                                     01424  000000000000-0000000000003.35     01750 00000                  
00014710224550033DR675906759000000133008001028000000106                         R                                                                                                                                                                                                                                                                                                                                                                                                                                                                                                                                                                                                                                           
00014720224550001G2675906759000000133008001028000000106866-6317293              GA           9 C                00                                      NNNN                          000000000000                         00000650975601179750000261                77133133                                                                                                                                                                                                                                                                                                                                                                                                                                               
00014730224550034DT67590675900000013300800102800000010680010287287283191900014511706071020230000002487019123000000000012397517279XXXXXX7932                         NY 4607AMDJILCSXV0710  N840000000024870          81CNCBD8666317293            007155    MD84000000024870 NDR549977133133   C9A1916A76TA64E7934FE08  000000000+600450S00130    MDJ  00560                     000000000  N                0000000000000.00 0000000.00   0000000.00                             000000000000000                                                                                                                                                     01424  000000000000 0000000000000.00     00000 00000                  
00014740224550034DR675906759000000133008001028000000106C9A1916A76TA64E7934FE08  U000000000000                                                                                                                                                                                                                                                                                                                                                                                                                                                                                                                                                                                                                               
00014750224550001G2675906759000000133008001028000000106866-6317293              GA           9 J               210                                      NNNN           210000000000000000000000000                                                                   77133133                                                                                                                                                                                                                                                                                                                                                                                                                                               
00014760224550035DT67590675900000013300800102800000010680010274001193191900014511718071020230000001589619123000000000012397409259XXXXXX1760               0000000   NYV4 07T463191680475686N840000000015896XR4800    01CNCBD8666317293            032292    VD84000000015896 NDR549977133133   E3F69EF9C9T17786CC9D038  000000000+                F DF 08168                     000000000  N000000000 369   0000000000000.00 0000000.00   0000000.00                             000000000000000                                                                                                                                                     01424  000000015896 0000000000000.00     00000 00000                  
00014770224550035DR675906759000000133008001028000000106E3F69EF9C9T17786CC9D038  U000000015896                 P1                                                                                                                                                                                                                                                                                                                                                                                                                                                                                                                                                                                                            
00014780224550001P16759067590000001330080010280000001060000000000000000                             2000000000000000000000000              000000000000                    0000000000000000000000000                    000000000000                                                                                                                                                                                                                                                                                                                                                                                                                                                                                        
00014790224550002G2675906759000000133008001028000000106866-6317293              GA           9 D                00                                      NNNN   N                      000000000000                                                                   77133133                                                                                                                                                                                                                                                                                                                                                                                                                                               
00014800224550036BH6759067590000001427480010280000090170710202319123000000000182523    0000090001459809Y8001026759C07112023145                                                                                                                                                                                                                                                                                                                                                                                                                                                                                                                                                                                              
00014810224550037DT67590675900000014274800102800000010180010287287283191900014593902070920230000001200819123000000000182523512230XXXXXX1616       ME03KE06MS02      NY 4607AMWE1Y2VGP0706  N840000000012008          81DNCBD8666317293            53824Z    MC84000000012008 NDR549977145232   8E2A10E26FT80DB1317C9E1  000000000+600450S00130    MWE  00737                     000000000  N                0000000000000.00 0000000.00   0000000.00                             000000000000000                                                                                                                                                   U001424  000000000000 0000000000003.22     02600 01000                  
00014820224550037DR6759067590000001427480010280000001018E2A10E26FT80DB1317C9E1  Y000000000000                                                                                                                                                                                                                                                                                                                                                                                                                                                                                                                                                                                                                               
00014830224550001G2675906759000000142748001028000000101866-6317293              GA           9 E               210                                      NNNN           210000000000000000000000000                                                                   77145232                                                                                                                                                                                                                                                                                                                                                                                                                                               
00014840224550038DT67590675900000014274800102800000010180010287287283191900014594009070920230000001499119123000000000182523559034XXXXXX6431       ME03KE06MS02      NY 4607AMDJMMVD080706  N840000000014991          81DNCBD8666317293            042005    MD84000000014991 NDR549977145232   2639AE4DD3TBC111CFA83E9  000000000+600450S00130    MDJ  00401                     000000000  N                0000000000000.00 0000000.00   0000000.00                             000000000000000                                                                                                                                                   U001424  000000000000 0000000000002.62     01650 01500                  
00014850224550038DR6759067590000001427480010280000001012639AE4DD3TBC111CFA83E9  Y000000000000                                                                                                                                                                                                                                                                                                                                                                                                                                                                                                                                                                                                                               
00014860224550001G2675906759000000142748001028000000101866-6317293              GA           9 J               210                                      NNNN           210000000000000000000000000                        7                                          77145232                                                                                                                                                                                                                                                                                                                                                                                                                                               
00014870224550039DT67590675900000014274800102800000010180010287287283191900014594017070920230000002100819123000000000182523514430XXXXXX9097       ME03KE06MS02      NY 4607AMDJMPGY080706  N840000000021008          81DNCBD8666317293            043504    MD84000000021008 NDR549977145232   F01C395F4ATD1A31A77A151  000000000+600450S00130    MDJ  00401                     000000000  N                0000000000000.00 0000000.00   0000000.00                             000000000000000                                                                                                                                                   U001424  000000000000 0000000000003.62     01650 01500                  
00014880224550039DR675906759000000142748001028000000101F01C395F4ATD1A31A77A151  Y000000000000                                                                                                                                                                                                                                                                                                                                                                                                                                                                                                                                                                                                                               
00014890224550001G2675906759000000142748001028000000101866-6317293              GA           9 J               210                                      NNNN           210000000000000000000000000                        7                                          77145232                                                                                                                                                                                                                                                                                                                                                                                                                                               
00014900224550040DT67590675900000014274800102800000010180010273011003191900014594038070920230000002487019123000000000182523372739XXXXX1003                          NY 4 07N007488310479076N840000000024870          01DNCBD8666317293            287843    AM84000000024870 Y  549977145232                            000000000+6004S0S00130 258     11262                     000000000                   0000000000000.00 0000000.00   0000000.00                             000000000000000 61248972086759675900000014274 CBD8666317293            2993 SANDY PLAINS RD STE 6787614584      30066     EMORRIS@GREENOTTERCBD.COM                 01324  000000000000 0000000000004.95     01950 00000                  
00014910224550001G2675906759000000142748001028000000101MARIETTA                 GA           9                  00                                      NNNN                          000000000000                                                                   77145232                                                                                                                                                                                                                                                                                                                                                                                                                                               
00014920224550041DT67590675900000014274800102800000010180010287287283191900014594207070920230000001589019123000000000182523549170XXXXXX6692       ME03KE06MS02      NY 4607AMDJGGP1Q30706  N840000000015890          81DNCBD8666317293            101157    MD84000000015890 NDR549977145232   DF779DF5C6T11C1DBC16882  000000000+600450S00130    MDJ  10813                     000000000  1                0000000000000.00 0000000.00   0000000.00                             000000000000000                                                                                                                                                   U001424  000000000000 0000000000000.30     00050 02200                  
00014930224550041DR675906759000000142748001028000000101DF779DF5C6T11C1DBC16882  Y000000000000                                                                                                                                                                                                                                                                                                                                                                                                                                                                                                                                                                                                                               
00014940224550001G2675906759000000142748001028000000101866-6317293              GA           9 J               210                                      NNNN           210000000000000000000000000                        7                                          77145232                                                                                                                                                                                                                                                                                                                                                                                                                                               
00014950224550042DT67590675900000014274800102800000010180010287287283191900014594546070920230000002126119123000000000182523515676XXXXXX4502       ME03KE06MS02      NY 4607AMWEJU5KQ30706  N840000000021261          81DNCBD8666317293            00237Z    MC84000000021261 NDR549977145232   88E4F000CAT717D27658212  000000000+600450S00130    MWE  00737                     000000000  N                0000000000000.00 0000000.00   0000000.00                             000000000000000                                                                                                                                                   U001424  000000000000 0000000000005.63     02600 01000                  
00014960224550042DR67590675900000014274800102800000010188E4F000CAT717D27658212  Z000000000000                                                                                                                                                                                                                                                                                                                                                                                                                                                                                                                                                                                                                               
00014970224550001G2675906759000000142748001028000000101866-6317293              GA           9 E               210                                      NNNN           210000000000000000000000000                        7                                          77145232                                                                                                                                                                                                                                                                                                                                                                                                                                               
00014980224550043DT67590675900000014274800102800000010180010287287283191900014594694070920230000002487019123000000000182523534368XXXXXX0760                         NY 4607AMDBDZESQ30706  N840000000024870          81DNCBD8666317293            166496    MD84000000024870 NDR549977145232   B280EE2715T6FAD187EBF50  000000000+600450S00130    MDB  00062                     000000000  N                0000000000000.00 0000000.00   0000000.00                             000000000000000                                                                                                                                                   U001424  000000000000 0000000000006.69     02650 01000                  
00014990224550043DR675906759000000142748001028000000101B280EE2715T6FAD187EBF50  N000000000000                 P1                                                                                                                                                                                                                                                                                                                                                                                                                                                                                                                                                                                                            
00015000224550001P1675906759000000142748001028000000101                                                          000000000000          8000            871584967                                                                                                                                                                                                                                                                                                                                                                                                                                                                                                                                                            
00015010224550002G2675906759000000142748001028000000101866-6317293              GA           9 B               210                  871584967           YNNN           210000000000000000000000000                        7                                          77145232                                                                                                                                                                                                                                                                                                                                                                                                                                               
00015020224550044DT67590675900000014274800102800000010180010273011003191900014594970070920230000001200819123000000000182523372282XXXXX3016                          NY 4 07N005646578595303N840000000012008          01DNCBD8666317293            219784    AM84000000012008 Y  549977145232                            000000000+6004S0S00130 258     11262                     000000000                   0000000000000.00 0000000.00   0000000.00                             000000000000000 61248972086759675900000014274 CBD8666317293            2993 SANDY PLAINS RD STE 6787614584      30066     EMORRIS@GREENOTTERCBD.COM                 01324  000000000000 0000000000002.44     01950 00000                  
00015030224550001G2675906759000000142748001028000000101MARIETTA                 GA           9                  00                                      NNNN                          000000000000                                                                   77145232                                                                                                                                                                                                                                                                                                                                                                                                                                               
00015040224550045DT67590675900000014274800102800000010180010224001193191900014594990070920230000002126119123000000000182523434349XXXXXX2213               2111111   NYV4 A7W303187807053722N840000000021261NFFC00    01DNCBD8666317293            077219    VS84000000021261 NDR549977145232   2D68370ADCT395CE596A767  000000000+                A CA 12106                     000000000  N000000000 492   0000000000000.00 0000000.00   0000000.00                             000000000000000                                                                                                                                                     01424 G000000021261 0000000000004.12     01890 01000                  
00015050224550045DR6759067590000001427480010280000001012D68370ADCT395CE596A767  Y000000021261                 P1                                                                                                                                                                                                                                                                                                                                                                                                                                                                                                                                                                                                            
00015060224550001P16759067590000001427480010280000001010000000000000000                             2000000000000000000000000              000000000000                    0000000000000000000000000                    000000000000                                                                                                                                                                                                                                                                                                                                                                                                                                                                                        
00015070224550002G2675906759000000142748001028000000101866-6317293              GA           9 C                00                                      NNNN   N                      000000000000                                                                   77145232                                                                                                                                                                                                                                                                                                                                                                                                                                               
00015080224550046DT67590675900000014274800102800000010180010224001193191900014595039070920230000002141019123000000000182523440066XXXXXX3774               2111111   NYV4 A7W463187816060703N8400000000214107HGG00    01DNCBD8666317293            00678C    VS84000000021410 NDR549977145232   E117924202TB6084C0F4100  000000000+                C CC 12108                     000000000  N000000000 496   0000000000000.00 0000000.00   0000000.00                             000000000000000                                                                                                                                                     01424 G000000021410 0000000000004.49     02050 01000                  
00015090224550046DR675906759000000142748001028000000101E117924202TB6084C0F4100  Y000000021410                 P1                                                                                                                                                                                                                                                                                                                                                                                                                                                                                                                                                                                                            
