00016500194960002BH6759067590000001982880010980000090170608202315923000000000018966    0000090001740025Y8001096759C06092023074                                                                                                                                                                                                                                                                                                                                                                                                                                                                                                                                                                                              
00016510194960003DT67590675900000019828800109800000010180010987287283159900017400121060820230000000198815923000000000018966554337XXXXXX3931       ME03KE06MS02      NY 4607AMDSZB4C3D0608  N840000000001988          81DNKETOFUSION 8885968154    142787    MD84000000001988 NDR599977547467   E3A97C31EETAAD23E335A17  000000000+600450S00130    MDS  00401                     000000000  N                0000000000000.00 0000000.00   0000000.00                             000000000000000                                                                                                                                                   U001424  000000000000 0000000000000.48     01650 01500                  
00016520194960003DR675906759000000198288001098000000101E3A97C31EETAAD23E335A17  Y000000000000                                                                                                                                                                                                                                                                                                                                                                                                                                                                                                                                                                                                                               
00016530194960001G2675906759000000198288001098000000101888-5968154              UT           9 S               210                                      NNNN           210000000000000000000000000                                                                   77547467                                                                                                                                                                                                                                                                                                                                                                                                                                               
00016540194960004DT67590675900000019828800109800000010180010924001193159900017400237060820230000001499015923000000000018966434257XXXXXX8762               2111111   NYV4 A7W383159818811592N840000000014990DH7600    01DNKETOFUSION 8885968154    030717    VD84000000014990 NDR599977547467   DEA79EC793TA653F124F004  000000000+                F DF 10420                     000000000  Y000000000 338   0000000000000.00 0000000.00   0000000.00                             000000000000000                                                                                                                                                     01424 G000000014990 0000000000000.29     00050 02200                  
00016550194960004DR675906759000000198288001098000000101DEA79EC793TA653F124F004  Y000000014990                 P1                                                                                                                                                                                                                                                                                                                                                                                                                                                                                                                                                                                                            
00016560194960001P16759067590000001982880010980000001010000000000000000                             2000000000000000000000000              000000000000                    0000000000000000000000000                    000000000000                                                                                                                                                                                                                                                                                                                                                                                                                                                                                        
00016570194960002G2675906759000000198288001098000000101888-5968154              UT           9 D                00                                      NNNN   N                      000000000000                                                                   77547467                                                                                                                                                                                                                                                                                                                                                                                                                                               
00016580194960005DT67590675900000019828800109800000010180010976509753159900017400250060820230000000198815923000000000018966601120XXXXXX2619   BA00                  NY 4 07N813137231252744N840000000001988    00    01DNKETOFUSION 8885968154    00859R    DS84000000001988 NDR599977547467070                         000000000+1015104910600   DCCDI11325334186  185845000000 000000000  0          460   0000000000000.00 0000000.00   0000000.00                             000000000000000                                                                                                                                                     01424  000000000000 0000000000000.50     02030 01000                  
00016590194960005DR675906759000000198288001098000000101                         N                                                                                                                                                                                                                                                                                                                                                                                                                                                                                                                                                                                                                                           
00016600194960001G2675906759000000198288001098000000101888-5968154              UT           9 C                00                                      NNNN                          000000000000                         00000650975601179750000394                77547467                                                                                                                                                                                                                                                                                                                                                                                                                                               
00016610194960006BH6759067590000001427480010280000090170608202315923000000000198307    0000090001134840Y8001026759C06092023113                                                                                                                                                                                                                                                                                                                                                                                                                                                                                                                                                                                              
00016620194960007DT67590675900000014274800102800000010180010287287283159900011340802060720230000002157915923000000000198307533248XXXXXX0606       ME03KE06MS02      NY 4607AMPVZ0XLG50604  N840000000021579          81DNCBD8666317293            E4XCG7    MD84000000021579 NDR549977145232   0D0FCABEB9TF147F2ED86A5  000000000+600450S00130    MPV  09899                     000000000  N                0000000000000.00 0000000.00   0000000.00                             000000000000000                                                                                                                                                   U001424  000000000000 0000000000004.00     01760 02000                  
00016630194960007DR6759067590000001427480010280000001010D0FCABEB9TF147F2ED86A5  Y000000000000                                                                                                                                                                                                                                                                                                                                                                                                                                                                                                                                                                                                                               
00016640194960001G2675906759000000142748001028000000101866-6317293              GA           9 V               210                                      NNNN           210000000000000000000000000                                                                   77145232                                                                                                                                                                                                                                                                                                                                                                                                                                               
00016650194960008DT67590675900000014274800102800000010180010287287283159900011341248060720230000001400815923000000000198307527515XXXXXX4767       ME03KE06MS02      NY 4607AMDJKB12VM0604  N840000000014008          81DNCBD8666317293            132053    MD84000000014008 NDR549977145232   D020294C84T53B73580A640  000000000+600450S00130    MDJ  10813                     000000000  1                0000000000000.00 0000000.00   0000000.00                             000000000000000                                                                                                                                                   U001424  000000000000 0000000000000.29     00050 02200                  
00016660194960008DR675906759000000142748001028000000101D020294C84T53B73580A640  Y000000000000                                                                                                                                                                                                                                                                                                                                                                                                                                                                                                                                                                                                                               
00016670194960001G2675906759000000142748001028000000101866-6317293              GA           9 J               210                                      NNNN           210000000000000000000000000                        7                                          77145232                                                                                                                                                                                                                                                                                                                                                                                                                                               
00016680194960009DT67590675900000014274800102800000010180010224001193159900011345735060720230000000019915923000000000198307428803XXXXXX1024               2111111   NYV4 A7W463159010265484N840000000000199LRKD00    01DNCBD8666317293            612300    VD84000000000199 NDR549977145232   E009EF2B8CT6062E246EA7D  000000000+                S PS 10179                     000000000  N000000000 364   0000000000000.00 0000000.00   0000000.00                             000000000000000                                                                                                                                                     01424 G000000000199 0000000000000.15     02650 01000                  
00016690194960009DR675906759000000142748001028000000101E009EF2B8CT6062E246EA7D  Y000000000199                 P1                                                                                                                                                                                                                                                                                                                                                                                                                                                                                                                                                                                                            
00016700194960001P16759067590000001427480010280000001010000000000000000                             2000000000000000000000000              000000000000                    0000000000000000000000000                    000000000000                                                                                                                                                                                                                                                                                                                                                                                                                                                                                        
00016710194960002G2675906759000000142748001028000000101866-6317293              GA           9 P                00                                      NNNN   N                      000000000000                                                                   77145232                                                                                                                                                                                                                                                                                                                                                                                                                                               
00016720194960010DT67590675900000014274800102800000010180010224001193159900011345818060720230000000019915923000000000198307440393XXXXXX9604               2111111   NYV4 A7W303159082984187N840000000000199VGS900    01DNCBD8666317293            998716    VD84000000000199 NDR549977145232   1AD819074DT6FDF70C95C87  000000000+                F PF 08175                     000000000  N000000000       0000000000000.00 0000000.00   0000000.00                             000000000000000                                                                                                                                                     01424 G000000000199 0000000000000.23     01750 02000                  
00016730194960010DR6759067590000001427480010280000001011AD819074DT6FDF70C95C87  Y000000000199                 P1                                                                                                                                                                                                                                                                                                                                                                                                                                                                                                                                                                                                            
00016740194960001P16759067590000001427480010280000001010000000000000000                             2000000000000000000000000              000000000000                    0000000000000000000000000                    000000000000                                                                                                                                                                                                                                                                                                                                                                                                                                                                                        
00016750194960002G2675906759000000142748001028000000101866-6317293              GA           9 P                00                                      NNNN   N                      000000000000                                                                   77145232                                                                                                                                                                                                                                                                                                                                                                                                                                               
00016760194960011DT67590675900000014274800102800000010180010224001193159900011345917060720230000000019915923000000000198307412076XXXXXX4359               2111111   NYV4 A7W383159171223602N840000000000199DGBS00    01DNCBD8666317293            463970    VS84000000000199 NDR549977145232   E472A996F5T70E59F84AFED  000000000+                A CA 12106                     000000000  N000000000 492   0000000000000.00 0000000.00   0000000.00                             000000000000000                                                                                                                                                     01424 G000000000199 0000000000000.14     01890 01000                  
00016770194960011DR675906759000000142748001028000000101E472A996F5T70E59F84AFED  Y000000000199                 P1                                                                                                                                                                                                                                                                                                                                                                                                                                                                                                                                                                                                            
00016780194960001P16759067590000001427480010280000001010000000000000000                             2000000000000000000000000              000000000000                    0000000000000000000000000                    000000000000                                                                                                                                                                                                                                                                                                                                                                                                                                                                                        
00016790194960002G2675906759000000142748001028000000101866-6317293              GA           9 C                00                                      NNNN   N                      000000000000                                                                   77145232                                                                                                                                                                                                                                                                                                                                                                                                                                               
00016800194960012DT67590675900000014274800102800000010180010287287283159900011345967060820230000000019915923000000000198307553231XXXXXX7709                         NY 4607AMCF1V86GQ0608  N840000000000199          81DNCBD8666317293            8VSWWV    MB84000000000199 NDR549977145232   EF4606FDA7T64968508E50A  000000000+600450S00130    MCF  00060                     000000000  N                0000000000000.00 0000000.00   0000000.00                             000000000000000                                                                                                                                                   U001424  000000000000 0000000000000.16     02950 01000                  
00016810194960012DR675906759000000142748001028000000101EF4606FDA7T64968508E50A  Y000000000000                 P1                                                                                                                                                                                                                                                                                                                                                                                                                                                                                                                                                                                                            
00016820194960001P1675906759000000142748001028000000101                                                          000000000000          8000            871584967                                                                                                                                                                                                                                                                                                                                                                                                                                                                                                                                                            
00016830194960002G2675906759000000142748001028000000101866-6317293              GA           9 F               210                  871584967           YNNN           210000000000000000000000000                                                                   77145232                                                                                                                                                                                                                                                                                                                                                                                                                                               
00016840194960013DT67590675900000014274800102800000010180010224001193159900011346006060820230000000019915923000000000198307441112XXXXXX8504               2111111   NYV4 A7W463159312645936N84000000000019979N500    01DNCBD8666317293            ZYK9C1    VD84000000000199 NDR549977145232   F591D47B98TD299ABCC0B0E  000000000+                S PS 10179                     000000000  N000000000 364   0000000000000.00 0000000.00   0000000.00                             000000000000000                                                                                                                                                     01424 G000000000199 0000000000000.15     02650 01000                  
00016850194960013DR675906759000000142748001028000000101F591D47B98TD299ABCC0B0E  Y000000000199                 P1                                                                                                                                                                                                                                                                                                                                                                                                                                                                                                                                                                                                            
00016860194960001P16759067590000001427480010280000001010000000000000000                             2000000000000000000000000              000000000000                    0000000000000000000000000                    000000000000                                                                                                                                                                                                                                                                                                                                                                                                                                                                                        
00016870194960002G2675906759000000142748001028000000101866-6317293              GA           9 P                00                                      NNNN   N                      000000000000                                                                   77145232                                                                                                                                                                                                                                                                                                                                                                                                                                               
00016880194960014DT67590675900000014274800102800000010180010224001193159900011346071060820230000000019915923000000000198307412076XXXXXX5297               2111111   NYV4 A7W463159364859268N8400000000001992KZ200    01DNCBD8666317293            243985    VS84000000000199 NDR549977145232   70A2509584TF297EE5B2468  000000000+                A CA 12106                     000000000  N000000000 492   0000000000000.00 0000000.00   0000000.00                             000000000000000                                                                                                                                                     01424 G000000000199 0000000000000.14     01890 01000                  
00016890194960014DR67590675900000014274800102800000010170A2509584TF297EE5B2468  Y000000000199                 P1                                                                                                                                                                                                                                                                                                                                                                                                                                                                                                                                                                                                            
00016900194960001P16759067590000001427480010280000001010000000000000000                             2000000000000000000000000              000000000000                    0000000000000000000000000                    000000000000                                                                                                                                                                                                                                                                                                                                                                                                                                                                                        
00016910194960002G2675906759000000142748001028000000101866-6317293              GA           9 C                00                                      NNNN   N                      000000000000                                                                   77145232                                                                                                                                                                                                                                                                                                                                                                                                                                               
00016920194960015DT67590675900000014274800102800000010180010287287283159900011346197060820230000000019915923000000000198307531993XXXXXX5150                         NY 4607AMCPWMH6KN0608  N840000000000199          81DNCBD8666317293            9M2NV1    MB84000000000199 NDR549977145232   4082B5FED5T2AADD460DBD1  000000000+600450S00130    MCP  00303                     000000000  N                0000000000000.00 0000000.00   0000000.00                             000000000000000                                                                                                                                                   U001424  000000000000 0000000000000.15     02700 01000                  
00016930194960015DR6759067590000001427480010280000001014082B5FED5T2AADD460DBD1  Y000000000000                 P1                                                                                                                                                                                                                                                                                                                                                                                                                                                                                                                                                                                                            
00016940194960001P1675906759000000142748001028000000101                                                          000000000000          8000            871584967                                                                                                                                                                                                                                                                                                                                                                                                                                                                                                                                                            
00016950194960002G2675906759000000142748001028000000101866-6317293              GA           9 P               210                  871584967           YNNN           210000000000000000000000000                                                                   77145232                                                                                                                                                                                                                                                                                                                                                                                                                                               
00016960194960016DT67590675900000014274800102800000010180010224001193159900011346329060820230000000019915923000000000198307485932XXXXXX6498               2111111   NYV4 A7W303159465046769N840000000000199MPRM00    01DNCBD8666317293            939339    VB84000000000199 NDR549977145232   7E073E2225T9B578AC30A94  000000000+                S CS 00692                     000000000  N000000000 237   0000000000000.00 0000000.00   0000000.00                             000000000000000                                                                                                                                                     01424 G000000000199 0000000000000.15     02700 01000                  
00016970194960016DR6759067590000001427480010280000001017E073E2225T9B578AC30A94  Y000000000199                 P1                                                                                                                                                                                                                                                                                                                                                                                                                                                                                                                                                                                                            
00016980194960001P16759067590000001427480010280000001010000000000000000                             2000000000000000000000000              000000000000                    0000000000000000000000000                    000000000000                                                                                                                                                                                                                                                                                                                                                                                                                                                                                        
00016990194960002G2675906759000000142748001028000000101866-6317293              GA           9 C                00                                      NNNN   N                      000000000000                                                                   77145232                                                                                                                                                                                                                                                                                                                                                                                                                                               
00017000194960017DT67590675900000014274800102800000010680010287287283159900011346486060820230000001987015923000000000198307518941XXXXXX2576                         NY 4607AMWEWRC5TE0608  N840000000019870          81CNCBD8666317293            003133    MC84000000019870 NDR549977145232   DC2D8DB0D0T152B682A901F  000000000+600450S00130    MWE  00565                     000000000  N                0000000000000.00 0000000.00   0000000.00                             000000000000000                                                                                                                                                     01424  000000000000-0000000000003.48     01750 00000                  
00017010194960017DR675906759000000142748001028000000106DC2D8DB0D0T152B682A901F  U000000000000                                                                                                                                                                                                                                                                                                                                                                                                                                                                                                                                                                                                                               
00017020194960001G2675906759000000142748001028000000106866-6317293              GA           9 E               210                                      NNNN           210000000000000000000000000                        7                                          77145232                                                                                                                                                                                                                                                                                                                                                                                                                                               
00017030194960018DT67590675900000014274800102800000010180010224001193159900011346600060820230000002106215923000000000198307447954XXXXXX2068               2111111   NYV4 A7W583159507724452N840000000021062PHMW00    01DNCBD8666317293            090612    VD84000000021062 NDR549977145232   BD3119B7B5T77B56A6FE64D  000000000+                F DF 10420                     000000000  Y000000000 338   0000000000000.00 0000000.00   0000000.00                             000000000000000                                                                                                                                                     01424 G000000021062 0000000000000.33     00050 02200                  
00017040194960018DR675906759000000142748001028000000101BD3119B7B5T77B56A6FE64D  Y000000021062                 P1                                                                                                                                                                                                                                                                                                                                                                                                                                                                                                                                                                                                            
00017050194960001P16759067590000001427480010280000001010000000000000000                             2000000000000000000000000              000000000000                    0000000000000000000000000                    000000000000                                                                                                                                                                                                                                                                                                                                                                                                                                                                                        
00017060194960002G2675906759000000142748001028000000101866-6317293              GA           9 D                00                                      NNNN   N                      000000000000                                                                   77145232                                                                                                                                                                                                                                                                                                                                                                                                                                               
00017070194960019DT67590675900000014274800102800000010680010274001193159900011346688060820230000002618815923000000000198307441767XXXXXX9302               0000000   NYV4 07T583159518935419N840000000026188MJSN00    01CNCBD8666317293            008154    VD84000000026188 NDR549977145232   FCA033ADA0T80E7F3C8FCDE  000000000+                F DF 08168                     000000000  N000000000 369   0000000000000.00 0000000.00   0000000.00                             000000000000000                                                                                                                                                     01424  000000026188 0000000000000.00     00000 00000                  
00017080194960019DR675906759000000142748001028000000106FCA033ADA0T80E7F3C8FCDE  U000000026188                 P1                                                                                                                                                                                                                                                                                                                                                                                                                                                                                                                                                                                                            
00017090194960001P16759067590000001427480010280000001060000000000000000                             2000000000000000000000000              000000000000                    0000000000000000000000000                    000000000000                                                                                                                                                                                                                                                                                                                                                                                                                                                                                        
00017100194960002G2675906759000000142748001028000000106866-6317293              GA           9 D                00                                      NNNN   N                      000000000000                                                                   77145232                                                                                                                                                                                                                                                                                                                                                                                                                                               
00017110194960020DT67590675900000014274800102800000010680010274001193159900011348536060820230000001079815923000000000198307461675XXXXXX6680               0000000   NY94 07N000000000000000N   000000000000          01CNCBD8666317293                      VD84000000010798 N  549977145232                            000000000+                F DF 08168                     000000000  N000000000 369   0000000000000.00 0000000.00   0000000.00                             000000000000000                                                                                                                                                     01424  000000000000 0000000000000.00     00000 00000                  
00017120194960001G2675906759000000142748001028000000106866-6317293              GA           9 D                00                                      NNNN00 N 00                   000000000000                                                                   77145232                                                                                                                                                                                                                                                                                                                                                                                                                                               
00017130194960021DT67590675900000014274800102800000010180010224001193159900011347038060820230000002636215923000000000198307401105XXXXXX9123               2111111   NYV4 A7W583159554223149N84000000002636298LG00    01DNCBD8666317293            008818    VD84000000026362 NDR549977145232   4B9ADF046BT66D1BE640F74  000000000+                F DF 10420                     000000000  Y000000000 338   0000000000000.00 0000000.00   0000000.00                             000000000000000                                                                                                                                                     01424 G000000026362 0000000000000.35     00050 02200                  
00017140194960021DR6759067590000001427480010280000001014B9ADF046BT66D1BE640F74  Y000000026362                 P1                                                                                                                                                                                                                                                                                                                                                                                                                                                                                                                                                                                                            
00017150194960001P16759067590000001427480010280000001010000000000000000                             2000000000000000000000000              000000000000                    0000000000000000000000000                    000000000000                                                                                                                                                                                                                                                                                                                                                                                                                                                                                        
00017160194960002G2675906759000000142748001028000000101866-6317293              GA           9 D                00                                      NNNN   N                      000000000000                                                                   77145232                                                                                                                                                                                                                                                                                                                                                                                                                                               
00017170194960022DT67590675900000014274800102800000010680010287287283159900011347096060820230000001987015923000000000198307546617XXXXXX3286                         NY 4607AMCWUKQMKH0608  N840000000019870          81CNCBD8666317293            708815    MC84000000019870 NDR549977145232   0590D1660DT9AADE5CE98FC  000000000+600450S00130    MCW  00565                     000000000  N                0000000000000.00 0000000.00   0000000.00                             000000000000000                                                                                                                                                     01424  000000000000-0000000000003.48     01750 00000                  
00017180194960022DR6759067590000001427480010280000001060590D1660DT9AADE5CE98FC  R000000000000                                                                                                                                                                                                                                                                                                                                                                                                                                                                                                                                                                                                                               
00017190194960001G2675906759000000142748001028000000106866-6317293              GA           9 W               210                                      NNNN           210000000000000000000000000                        7                                          77145232                                                                                                                                                                                                                                                                                                                                                                                                                                               
00017200194960023DT67590675900000014274800102800000010180010224001193159900011347236060820230000002636215923000000000198307486796XXXXXX3170               2111111   NYV4 A7W303159573086330N8400000000263625QSX00    01DNCBD8666317293            085511    VD84000000026362 NDR549977145232   D7FE75F677T2B5FD1A54AA7  000000000+                F DF 10420                     000000000  Y000000000 338   0000000000000.00 0000000.00   0000000.00                             000000000000000                                                                                                                                                     01424 G000000026362 0000000000000.35     00050 02200                  
00017210194960023DR675906759000000142748001028000000101D7FE75F677T2B5FD1A54AA7  Y000000026362                 P1                                                                                                                                                                                                                                                                                                                                                                                                                                                                                                                                                                                                            
00017220194960001P16759067590000001427480010280000001010000000000000000                             2000000000000000000000000              000000000000                    0000000000000000000000000                    000000000000                                                                                                                                                                                                                                                                                                                                                                                                                                                                                        
00017230194960002G2675906759000000142748001028000000101866-6317293              GA           9 D                00                                      NNNN   N                      000000000000                                                                   77145232                                                                                                                                                                                                                                                                                                                                                                                                                                               
00017240194960024DT67590675900000014274800102800000010180010224001193159900011347400060820230000000019915923000000000198307404038XXXXXX8728               2111111   NYV4 A7W383159596442052N8400000000001996XC700    01DNCBD8666317293            7EFASC    VD84000000000199 NDR549977145232   191A50B217TBC2EBBDC7AF8  000000000+                S PS 10179                     000000000  N000000000 364   0000000000000.00 0000000.00   0000000.00                             000000000000000                                                                                                                                                     01424 G000000000199 0000000000000.15     02650 01000                  
00017250194960024DR675906759000000142748001028000000101191A50B217TBC2EBBDC7AF8  Y000000000199                 P1                                                                                                                                                                                                                                                                                                                                                                                                                                                                                                                                                                                                            
00017260194960001P16759067590000001427480010280000001010000000000000000                             2000000000000000000000000              000000000000                    0000000000000000000000000                    000000000000                                                                                                                                                                                                                                                                                                                                                                                                                                                                                        
00017270194960002G2675906759000000142748001028000000101866-6317293              GA           9 P                00                                      NNNN   N                      000000000000                                                                   77145232                                                                                                                                                                                                                                                                                                                                                                                                                                               
00017280194960025DT67590675900000014274800102800000010180010224001193159900011347509060820230000000019915923000000000198307412076XXXXXX7621               2111111   NYV4 A7W383159604856514N840000000000199PLFV00    01DNCBD8666317293            888432    VS84000000000199 NDR549977145232   AE0F85D937T331F2D0A8C58  000000000+                A CA 12106                     000000000  N000000000 492   0000000000000.00 0000000.00   0000000.00                             000000000000000                                                                                                                                                     01424 G000000000199 0000000000000.14     01890 01000                  
00017290194960025DR675906759000000142748001028000000101AE0F85D937T331F2D0A8C58  Y000000000199                 P1                                                                                                                                                                                                                                                                                                                                                                                                                                                                                                                                                                                                            
00017300194960001P16759067590000001427480010280000001010000000000000000                             2000000000000000000000000              000000000000                    0000000000000000000000000                    000000000000                                                                                                                                                                                                                                                                                                                                                                                                                                                                                        
00017310194960002G2675906759000000142748001028000000101866-6317293              GA           9 C                00                                      NNNN   N                      000000000000                                                                   77145232                                                                                                                                                                                                                                                                                                                                                                                                                                               
00017320194960026DT67590675900000014274800102800000010180010224001193159900011347558060820230000001488415923000000000198307440066XXXXXX1961               2111111   NYV4 A7W463159612053391N840000000014884XV2F00    01DNCBD8666317293            09250D    VS84000000014884 NDR549977145232   0989C934D6T2186759CB58D  000000000+                D CD 12109                     000000000  N000000000 498   0000000000000.00 0000000.00   0000000.00                             000000000000000                                                                                                                                                     01424 G000000014884 0000000000003.82     02500 01000                  
00017330194960026DR6759067590000001427480010280000001010989C934D6T2186759CB58D  Y000000014884                 P1                                                                                                                                                                                                                                                                                                                                                                                                                                                                                                                                                                                                            
00017340194960001P16759067590000001427480010280000001010000000000000000                             2000000000000000000000000              000000000000                    0000000000000000000000000                    000000000000                                                                                                                                                                                                                                                                                                                                                                                                                                                                                        
00017350194960002G2675906759000000142748001028000000101866-6317293              GA           9 C                00                                      NNNN   Y                      000000000000                                                                   77145232                                                                                                                                                                                                                                                                                                                                                                                                                                               
00017360194960027DT67590675900000014274800102800000010180010224001193159900011347632060820230000001619015923000000000198307449370XXXXXX2328               2111111   NYV4 A7W583159619410027N840000000016190PD4F00    01DNCBD8666317293            269305    VD84000000016190 NDR549977145232   B34DD15752T51447D5A1E10  000000000+                F DF 00415                     000000000  N000000000       0000000000000.00 0000000.00   0000000.00                             000000000000000                                                                                                                                                     01424 G000000016190 0000000000002.82     01650 01500                  
00017370194960027DR675906759000000142748001028000000101B34DD15752T51447D5A1E10  Y000000016190                 P1                                                                                                                                                                                                                                                                                                                                                                                                                                                                                                                                                                                                            
00017380194960001P16759067590000001427480010280000001010000000000000000                             2000000000000000000000000              000000000000                    0000000000000000000000000                    000000000000                                                                                                                                                                                                                                                                                                                                                                                                                                                                                        
00017390194960002G2675906759000000142748001028000000101866-6317293              GA           9 D                00                                      NNNN   N                      000000000000                                                                   77145232                                                                                                                                                                                                                                                                                                                                                                                                                                               
00017400194960028DT67590675900000014274800102800000010180010287287283159900011347849060820230000000341115923000000000198307548042XXXXXX2351       ME03KE06MS02      NY 4607AMCCI8UOXX0608  N840000000003411          81DNCBD8666317293            00355B    MC84000000003411 NDR549977145232   ED0E72AAA1TE96A4C7ADC36  000000000+600450S00130    MCC  00580                     000000000  N                0000000000000.00 0000000.00   0000000.00                             000000000000000                                                                                                                                                   U001424  000000000000 0000000000000.82     02100 01000                  
00017410194960028DR675906759000000142748001028000000101ED0E72AAA1TE96A4C7ADC36  Z000000000000                                                                                                                                                                                                                                                                                                                                                                                                                                                                                                                                                                                                                               
00017420194960001G2675906759000000142748001028000000101866-6317293              GA           9 C               210                                      NNNN           210000000000000000000000000                        7                                          77145232                                                                                                                                                                                                                                                                                                                                                                                                                                               
00017430194960029DT67590675900000014274800102800000010180010287287283159900011347914060820230000002071015923000000000198307511271XXXXXX7390       ME03KE06MS02      NY 4607AMDJTOMTXV0608  N840000000020710          81DNCBD8666317293            0BBF6B    MD84000000020710 NDR549977145232   30DA9FBD62T93BAB51D4B41  000000000+600450S00130    MDJ  10813                     000000000  1                0000000000000.00 0000000.00   0000000.00                             000000000000000                                                                                                                                                   U001424  000000000000 0000000000000.32     00050 02200                  
00017440194960029DR67590675900000014274800102800000010130DA9FBD62T93BAB51D4B41  Y000000000000                                                                                                                                                                                                                                                                                                                                                                                                                                                                                                                                                                                                                               
00017450194960001G2675906759000000142748001028000000101866-6317293              GA           9 J               210                                      NNNN           210000000000000000000000000                                                                   77145232                                                                                                                                                                                                                                                                                                                                                                                                                                               
00017460194960030DT67590675900000014274800102800000010180010224001193159900011347947060820230000001925015923000000000198307438857XXXXXX5079               2111111   NYV4 A7W583159669048601N840000000019250JW7B00    01DNCBD8666317293            05147I    VS84000000019250 NDR549977145232   A4BC1E4808T5BA7AC49AC51  000000000+                I CI 12778                     000000000  N000000000 689   0000000000000.00 0000000.00   0000000.00                             000000000000000                                                                                                                                                     01424 G000000019250 0000000000004.91     02500 01000                  
00017470194960030DR675906759000000142748001028000000101A4BC1E4808T5BA7AC49AC51  Y000000019250                 P1                                                                                                                                                                                                                                                                                                                                                                                                                                                                                                                                                                                                            
00017480194960001P16759067590000001427480010280000001010000000000000000                             2000000000000000000000000              000000000000                    0000000000000000000000000                    000000000000                                                                                                                                                                                                                                                                                                                                                                                                                                                                                        
00017490194960002G2675906759000000142748001028000000101866-6317293              GA           9 C                00                                      NNNN  QY                      000000000000                                                                   77145232                                                                                                                                                                                                                                                                                                                                                                                                                                               
00017500194960031DT67590675900000014274800102800000010680010287287283159900011347989060820230000002071015923000000000198307543148XXXXXX3835                         NY 4607AMDJUHGEXV0608  N840000000020710          81CNCBD8666317293            008054    MD84000000020710 NDR549977145232   6AEEF618F1T608F4AE2CAD5  000000000+600450S00130    MDJ  00560                     000000000  N                0000000000000.00 0000000.00   0000000.00                             000000000000000                                                                                                                                                     01424  000000000000 0000000000000.00     00000 00000                  
00017510194960031DR6759067590000001427480010280000001066AEEF618F1T608F4AE2CAD5  R000000000000                                                                                                                                                                                                                                                                                                                                                                                                                                                                                                                                                                                                                               
00017520194960001G2675906759000000142748001028000000106866-6317293              GA           9 J               210                                      NNNN           210000000000000000000000000                        7                                          77145232                                                                                                                                                                                                                                                                                                                                                                                                                                               
00017530194960032DT67590675900000014274800102800000010180010224001193159900011348028060820230000002648715923000000000198307479146XXXXXX6394               2111111   NYV4 A7W383159680594471N840000000026487SF8X00    01DNCBD8666317293            249531    VD84000000026487 NDR549977145232   94ABD7BA79T0B2BBD47DE61  000000000+                F DF 00415                     000000000  N000000000       0000000000000.00 0000000.00   0000000.00                             000000000000000                                                                                                                                                     01424 G000000026487 0000000000004.52     01650 01500                  
00017540194960032DR67590675900000014274800102800000010194ABD7BA79T0B2BBD47DE61  Y000000026487                 P1                                                                                                                                                                                                                                                                                                                                                                                                                                                                                                                                                                                                            
00017550194960001P16759067590000001427480010280000001010000000000000000                             2000000000000000000000000              000000000000                    0000000000000000000000000                    000000000000                                                                                                                                                                                                                                                                                                                                                                                                                                                                                        
00017560194960002G2675906759000000142748001028000000101866-6317293              GA           9 D                00                                      NNNN   N                      000000000000                                                                   77145232                                                                                                                                                                                                                                                                                                                                                                                                                                               
00017570194960033DT67590675900000014274800102800000010180010224001193159900011348044060820230000000138115923000000000198307450268XXXXXX7129               2111111   NYV4 A7W583159694324688N840000000001381VP3200    01DNCBD8666317293            913876    VD84000000001381 NDR549977145232   1E9D17FC21T86C107FC8FAD  000000000+                F DF 00415                     000000000  N000000000       0000000000000.00 0000000.00   0000000.00                             000000000000000                                                                                                                                                     01424 G000000001381 0000000000000.38     01650 01500                  
00017580194960033DR6759067590000001427480010280000001011E9D17FC21T86C107FC8FAD  Y000000001381                 P1                                                                                                                                                                                                                                                                                                                                                                                                                                                                                                                                                                                                            
00017590194960001P16759067590000001427480010280000001010000000000000000                             2000000000000000000000000              000000000000                    0000000000000000000000000                    000000000000                                                                                                                                                                                                                                                                                                                                                                                                                                                                                        
00017600194960002G2675906759000000142748001028000000101866-6317293              GA           9 D                00                                      NNNN   N                      000000000000                                                                   77145232                                                                                                                                                                                                                                                                                                                                                                                                                                               
00017610194960034DT67590675900000014274800102800000010180010224001193159900011348077060820230000002636215923000000000198307427569XXXXXX7695               2111111   NYV4 A7W583159699054003N840000000026362WZMQ00    01DNCBD8666317293            426551    VD84000000026362 NDR549977145232   7C691C55E0T9BA5FBAD6C16  000000000+                F DF 00415                     000000000  N000000000       0000000000000.00 0000000.00   0000000.00                             000000000000000                                                                                                                                                     01424 G000000026362 0000000000004.50     01650 01500                  
00017620194960034DR6759067590000001427480010280000001017C691C55E0T9BA5FBAD6C16  Y000000026362                 P1                                                                                                                                                                                                                                                                                                                                                                                                                                                                                                                                                                                                            
00017630194960001P16759067590000001427480010280000001010000000000000000                             2000000000000000000000000              000000000000                    0000000000000000000000000                    000000000000                                                                                                                                                                                                                                                                                                                                                                                                                                                                                        
00017640194960002G2675906759000000142748001028000000101866-6317293              GA           9 D                00                                      NNNN   N                      000000000000                                                                   77145232                                                                                                                                                                                                                                                                                                                                                                                                                                               
00017650194960035DT67590675900000014274800102800000010180010287287283159900011348110060820230000001287915923000000000198307531462XXXXXX0702       ME03KE06MS02      NY 4607AMPAA4PM3E0608  N840000000012879          81DNCBD8666317293            142175    MD84000000012879 NDR549977145232   95535B73C1TC7F94E656C30  000000000+600450S00130    MPA  09899                     000000000  N                0000000000000.00 0000000.00   0000000.00                             000000000000000                                                                                                                                                   U001424  000000000000 0000000000002.47     01760 02000                  
00017660194960035DR67590675900000014274800102800000010195535B73C1TC7F94E656C30  Z000000000000                                                                                                                                                                                                                                                                                                                                                                                                                                                                                                                                                                                                                               
00017670194960001G2675906759000000142748001028000000101866-6317293              GA           9 A               210                                      NNNN           210000000000000000000000000                                                                   77145232                                                                                                                                                                                                                                                                                                                                                                                                                                               
00017680194960036DT67590675900000014274800102800000010180010287287283159900011348177060820230000001987015923000000000198307559591XXXXXX6864       ME03KE06MS02      NY 4607AMWEDW47XX0608  N840000000019870          81DNCBD8666317293            00161P    MC84000000019870 NDR549977145232   BC5CF7ED20T9BD76F76F5D0  000000000+600450S00130    MWE  00737                     000000000  N                0000000000000.00 0000000.00   0000000.00                             000000000000000                                                                                                                                                   U001424  000000000000 0000000000005.27     02600 01000                  
00017690194960036DR675906759000000142748001028000000101BC5CF7ED20T9BD76F76F5D0  Y000000000000                                                                                                                                                                                                                                                                                                                                                                                                                                                                                                                                                                                                                               
00017700194960001G2675906759000000142748001028000000101866-6317293              GA           9 E               210                                      NNNN           210000000000000000000000000                        7                                          77145232                                                                                                                                                                                                                                                                                                                                                                                                                                               
00017710194960037DT67590675900000014274800102800000010180010224001193159900011348192060820230000000019915923000000000198307408544XXXXXX2997               2111111   NYV4 A7W383159731491782N840000000000199R3R200    01DNCBD8666317293            701833    VB84000000000199 NDR549977145232   8E4C58627DT7F96DA22FBF4  000000000+                K CK 00691                     000000000  N000000000 234   0000000000000.00 0000000.00   0000000.00                             000000000000000                                                                                                                                                     01424 G000000000199 0000000000000.15     02700 01000                  
00017720194960037DR6759067590000001427480010280000001018E4C58627DT7F96DA22FBF4  Y000000000199                 P1                                                                                                                                                                                                                                                                                                                                                                                                                                                                                                                                                                                                            
00017730194960001P16759067590000001427480010280000001010000000000000000                             2000000000000000000000000              000000000000                    0000000000000000000000000                    000000000000                                                                                                                                                                                                                                                                                                                                                                                                                                                                                        
00017740194960002G2675906759000000142748001028000000101866-6317293              GA           9 C                00                                      NNNN   N                      000000000000                                                                   77145232                                                                                                                                                                                                                                                                                                                                                                                                                                               
00017750194960038DT67590675900000014274800102800000010680010287287283159900011348201060820230000001987015923000000000198307517805XXXXXX8522                         NY 4607AMPLB3B43E0608  N840000000019870          81CNCBD8666317293            077439    MC84000000019870 NDR549977145232   EF27C53312TE27B0CC41FFD  000000000+600450S00130    MPL  00565                     000000000  N                0000000000000.00 0000000.00   0000000.00                             000000000000000                                                                                                                                                     01424  000000000000-0000000000003.48     01750 00000                  
00017760194960038DR675906759000000142748001028000000106EF27C53312TE27B0CC41FFD  Y000000000000                                                                                                                                                                                                                                                                                                                                                                                                                                                                                                                                                                                                                               
00017770194960001G2675906759000000142748001028000000106866-6317293              GA           9 L               210                                      NNNN           210000000000000000000000000                        7                                          77145232                                                                                                                                                                                                                                                                                                                                                                                                                                               
00017780194960039DT67590675900000014274800102800000010680010287287283159900011348227060820230000001589015923000000000198307521333XXXXXX9285                         NY 4607AMPLCG1S3E0608  N840000000015890          81CNCBD8666317293            008481    MC84000000015890 NDR549977145232   8444F84E92T01BCD08F9F85  000000000+600450S00130    MPL  00565                     000000000  N                0000000000000.00 0000000.00   0000000.00                             000000000000000                                                                                                                                                     01424  000000000000-0000000000002.78     01750 00000                  
00017790194960039DR6759067590000001427480010280000001068444F84E92T01BCD08F9F85  R000000000000                                                                                                                                                                                                                                                                                                                                                                                                                                                                                                                                                                                                                               
00017800194960001G2675906759000000142748001028000000106866-6317293              GA           9 L               210                                      NNNN           210000000000000000000000000                        7                                          77145232                                                                                                                                                                                                                                                                                                                                                                                                                                               
00017810194960040DT67590675900000014274800102800000010180010224001193159900011348309060820230000001200815923000000000198307438857XXXXXX5084               2111111   NYV4 A7W303159761773014N840000000012008VKTP00    01DNCBD8666317293            08115D    VS84000000012008 NDR549977145232   18A221BBA2T2165198821F1  000000000+                D CD 12109                     000000000  N000000000 498   0000000000000.00 0000000.00   0000000.00                             000000000000000                                                                                                                                                     01424 G000000012008 0000000000003.10     02500 01000                  
00017820194960040DR67590675900000014274800102800000010118A221BBA2T2165198821F1  Y000000012008                 P1                                                                                                                                                                                                                                                                                                                                                                                                                                                                                                                                                                                                            
00017830194960001P16759067590000001427480010280000001010000000000000000                             2000000000000000000000000              000000000000                    0000000000000000000000000                    000000000000                                                                                                                                                                                                                                                                                                                                                                                                                                                                                        
00017840194960002G2675906759000000142748001028000000101866-6317293              GA           9 C                00                                      NNNN   Y                      000000000000                                                                   77145232                                                                                                                                                                                                                                                                                                                                                                                                                                               
00017850194960041DT67590675900000014274800102800000010180010224001193159900011348325060820230000001987015923000000000198307440393XXXXXX3640               2111111   NYV4 A7W303159775822101N840000000019870THF800    01DNCBD8666317293            495646    VD84000000019870 NDR549977145232   A6CC8C1E15T1179543F2166  000000000+                F PF 08175                     000000000  N000000000       0000000000000.00 0000000.00   0000000.00                             000000000000000                                                                                                                                                     01424 G000000019870 0000000000003.68     01750 02000                  
00017860194960041DR675906759000000142748001028000000101A6CC8C1E15T1179543F2166  Y000000019870                 P1                                                                                                                                                                                                                                                                                                                                                                                                                                                                                                                                                                                                            
00017870194960001P16759067590000001427480010280000001010000000000000000                             2000000000000000000000000              000000000000                    0000000000000000000000000                    000000000000                                                                                                                                                                                                                                                                                                                                                                                                                                                                                        
00017880194960002G2675906759000000142748001028000000101866-6317293              GA           9 P                00                                      NNNN   N                      000000000000                                                                   77145232                                                                                                                                                                                                                                                                                                                                                                                                                                               
00017890194960042DT67590675900000014274800102800000010180010224001193159900011348382060820230000002121115923000000000198307410039XXXXXX3790               2111111   NYV4 A7W303159816329725N840000000021211FCWN00    01DNCBD8666317293            48092C    VS84000000021211 NDR549977145232   142555D25FTF82AE72D94FF  000000000+                C CC 12108                     000000000  N000000000 496   0000000000000.00 0000000.00   0000000.00                             000000000000000                                                                                                                                                     01424 G000000021211 0000000000004.45     02050 01000                  
00017900194960042DR675906759000000142748001028000000101142555D25FTF82AE72D94FF  Y000000021211                 P1                                                                                                                                                                                                                                                                                                                                                                                                                                                                                                                                                                                                            
00017910194960001P16759067590000001427480010280000001010000000000000000                             2000000000000000000000000              000000000000                    0000000000000000000000000                    000000000000                                                                                                                                                                                                                                                                                                                                                                                                                                                                                        
