01728950367000002BH6759067590000000288180088880000090170116202301623000000000062248    0000090001200015N8008886759C01172023                                                                                                                                                                                                                                                                                                                                                                                                                                                                                                                                                                                                 
01728960367000003DT67590675900000002881800888800000010180088877287283016900012000011011620230000000087701623000000000062248548955XXXXXX3824       MS02WI09          NY 1 0 AMWEMSGJW00116  N840000000000877          05DNHAPPY HIPPIE             00213P    MC84000000000877 N  549976487134                            000000000+M10101C5434C    MWE  00743                     000000000  N                0000000000000.00 0000000.00   0000000.00                             000000000000000                                                                                                                                                   B101418  000000000000 0000000000000.24     02300 00400                  
01728970367000004DT67590675900000002881800888800000010180088824001193016900012000027011620230000000023201623000000000062248491523XXXXXX7823       VK04VS111111111   NYV1 A E463016591360820N8400000000002328S8Q00    07DNHAPPY HIPPIE             021353    VD84000000000232 N  549976487134                            000000000+                F DF 10439                     000000000  Y000000000 331   0000000000000.00 0000000.00   0000000.00                             000000000000000                                                                                                                                                     01418 F000000000000 0000000000000.22     00050 02200                  
01728980367000005DT67590675900000002881800888800000010180088824001193016900012000035011620230000000493701623000000000062248435546XXXXXX8931       VS11    0001111   NYV1 A E303016596999043N840000000004937VKN700    05DNHAPPY HIPPIE             046049    VD84000000004937 N  549976487134                            000000000+                F DF 10433                     000000000  Y000000000 338   0000000000000.00 0000000.00   0000000.00                             000000000000000                                                                                                                                                     01418 A000000000000 0000000000000.24     00050 02200                  
01728990367000006DT67590675900000002881800888800000010180088877287283016900012000045011620230000000423301623000000000062248511953XXXXXX3911       MS02WI09          NY 1 0 AMDJJPVDW00116  N840000000004233          05DNHAPPY HIPPIE             080207    MD84000000004233 N  549976487134                            000000000+M10101C5434C    MDJ  00402                     000000000  N                0000000000000.00 0000000.00   0000000.00                             000000000000000                                                                                                                                                   B101418  000000000000 0000000000000.59     01050 01500                  
01729000367000007DT67590675900000002881800888800000010180088824001193016900012000050011620230000000394901623000000000062248419090XXXXXX2900       VS11    0001111   NYV1 A E383016618515668N840000000003949GMLL00    05DNHAPPY HIPPIE             790613    VD84000000003949 N  549976487134                            000000000+                F DF 00381                     000000000  N000000000       0000000000000.00 0000000.00   0000000.00                             000000000000000                                                                                                                                                     01418 A000000000000 0000000000000.47     00800 01500                  
01729010367000008DT67590675900000002881800888800000010180088824001193016900012000068011620230000000877801623000000000062248410039XXXXXX7421       VS11    0001111   NYV1 A E463016621953334N840000000008778DSLR00    05DNHAPPY HIPPIE             90405D    VS84000000008778 N  549976487134                            000000000+                D CD 12113                     000000000  N000000000 499   0000000000000.00 0000000.00   0000000.00                             000000000000000                                                                                                                                                     01418 A000000000000 0000000000001.94     02100 01000                  
01729020367000009DT67590675900000002881800888800000010180088824001193016900012000076011620230000001305801623000000000062248443040XXXXXX3051       VS11    0001111   NYV1 A E303016635743973N840000000013058CMQF00    05DNHAPPY HIPPIE             755957    VD84000000013058 N  549976487134                            000000000+                F DF 10433                     000000000  Y000000000 338   0000000000000.00 0000000.00   0000000.00                             000000000000000                                                                                                                                                     01418 A000000000000 0000000000000.29     00050 02200                  
01729030367000010DT67590675900000002881800888800000010180088824001193016900012000084011620230000000224201623000000000062248445101XXXXXX2081       VS11    0001111   NYV1 A E303016658755097N840000000002242HX8B00    05DNHAPPY HIPPIE             343612    VD84000000002242 N  549976487134                            000000000+                F DF 10433                     000000000  Y000000000 338   0000000000000.00 0000000.00   0000000.00                             000000000000000                                                                                                                                                     01418 A000000000000 0000000000000.23     00050 02200                  
01729040367000011DT67590675900000002881800888800000010180088824001193016900012000092011620230000000197401623000000000062248435546XXXXXX0621       VS11    0001111   NYV1 A E383016692880262N8400000000019747LWR00    05DNHAPPY HIPPIE             037076    VD84000000001974 N  549976487134                            000000000+                F DF 10433                     000000000  Y000000000 338   0000000000000.00 0000000.00   0000000.00                             000000000000000                                                                                                                                                     01418 A000000000000 0000000000000.23     00050 02200                  
01729050367000012DT67590675900000002881800888800000010180088824001193016900012000100011620230000000395101623000000000062248415978XXXXXX9354       VS11    0001111   NYV1 A E303016698767428N840000000003951BZC600    05DNHAPPY HIPPIE             015054    VD84000000003951 N  549976487134                            000000000+                F DF 10433                     000000000  Y000000000 338   0000000000000.00 0000000.00   0000000.00                             000000000000000                                                                                                                                                     01418 A000000000000 0000000000000.24     00050 02200                  
01729060367000013DT67590675900000002881800888800000010180088824001193016900012000118011620230000000065401623000000000062248440393XXXXXX7023       VK04VS111111111   NYV1 A E383016704382285N8400000000006549G6N00    05DNHAPPY HIPPIE             382431    VD84000000000654 N  549976487134                            000000000+                F PF 08165                     000000000  N000000000       0000000000000.00 0000000.00   0000000.00                             000000000000000                                                                                                                                                     01418 F000000000000 0000000000000.15     01600 00500                  
01729070367000014DT67590675900000002881800888800000010180088877287283016900012000128011620230000000802901623000000000062248558341XXXXXX7565       MS02WI09          NY 1 0 AMDJIZWULA0116  N840000000008029          05DNHAPPY HIPPIE             051125    MD84000000008029 N  549976487134                            000000000+M10101C5434C    MDJ  00402                     000000000  N                0000000000000.00 0000000.00   0000000.00                             000000000000000                                                                                                                                                   B101418  000000000000 0000000000000.99     01050 01500                  
01729080367000015DT67590675900000002881800888800000010180088824001193016900012000134011620230000000024901623000000000062248491523XXXXXX7823       VK04VS111111111   NYV1 A E583016738740360N8400000000002497F3F00    07DNHAPPY HIPPIE             028143    VD84000000000249 N  549976487134                            000000000+                F DF 10439                     000000000  Y000000000 331   0000000000000.00 0000000.00   0000000.00                             000000000000000                                                                                                                                                     01418 F000000000000 0000000000000.22     00050 02200                  
01729090367000016DT67590675900000002881800888800000010180088824001193016900012000142011620230000000395001623000000000062248423223XXXXXX2326       VS11    0001111   NYV1 A E303016791988543N8400000000039506JQN00    05DNHAPPY HIPPIE             090080    VD84000000003950 N  549976487134                            000000000+                F DF 00381                     000000000  N000000000       0000000000000.00 0000000.00   0000000.00                             000000000000000                                                                                                                                                     01418 A000000000000 0000000000000.47     00800 01500                  
01729100367000017DT67590675900000002881800888800000010180088824001193016900012000159011620230000000513501623000000000062248445101XXXXXX0964       VS11    0001111   NYV1 A E583016813890612N840000000005135QMB300    05DNHAPPY HIPPIE             473350    VD84000000005135 N  549976487134                            000000000+                F DF 10433                     000000000  Y000000000 338   0000000000000.00 0000000.00   0000000.00                             000000000000000                                                                                                                                                     01418 A000000000000 0000000000000.25     00050 02200                  
01729110367000018BH6759067590000000288180088880000090170116202301623000000000096735    0000090001200021N8008886759C01172023                                                                                                                                                                                                                                                                                                                                                                                                                                                                                                                                                                                                 
01729120367000019DT67590675900000002881800888800000010180088824001193016900012000019011620230000000473801623000000000096735419090XXXXXX5616       VS11    0001111   NYV1 A E463016578337727N840000000004738MSJX00    05DNHAPPY HIPPIE             788774    VD84000000004738 N  549976487158                            000000000+                F DF 00381                     000000000  N000000000       0000000000000.00 0000000.00   0000000.00                             000000000000000                                                                                                                                                     01418 A000000000000 0000000000000.53     00800 01500                  
01729130367000020DT67590675900000002881800888800000010180088824001193016900012000027011620230000000016601623000000000096735465992XXXXXX3565       VK04VS111111111   NYV1 A E383016592570422N840000000000166TSQH00    07DNHAPPY HIPPIE             311682    VD84000000000166 N  549976487158                            000000000+                F DF 00451                     000000000  N000000000 214   0000000000000.00 0000000.00   0000000.00                             000000000000000                                                                                                                                                     01418 F000000000000 0000000000000.07     01550 00400                  
01729140367000021DT67590675900000002881800888800000010180088824001193016900012000035011620230000000164501623000000000096735415978XXXXXX9782       VS11    0001111   NYV1 A E583016594461543N8400000000016452WV700    05DNHAPPY HIPPIE             077752    VD84000000001645 N  549976487158                            000000000+                F DF 10433                     000000000  Y000000000 338   0000000000000.00 0000000.00   0000000.00                             000000000000000                                                                                                                                                     01418 A000000000000 0000000000000.23     00050 02200                  
01729150367000022DT67590675900000002881800888800000010180088824001193016900012000043011620230000000200301623000000000096735415978XXXXXX6979       VS11    0001111   NYV1 A E383016613400086N84000000000200353LW00    05DNHAPPY HIPPIE             018550    VD84000000002003 N  549976487158                            000000000+                F DF 10433                     000000000  Y000000000 338   0000000000000.00 0000000.00   0000000.00                             000000000000000                                                                                                                                                     01418 A000000000000 0000000000000.23     00050 02200                  
01729160367000023DT67590675900000002881800888800000010180088824001193016900012000050011620230000000495201623000000000096735429136XXXXXX3697               1001111   NYV1 A K583016618257943N840000000004952TQVJ00    01DNHAPPY HIPPIE             121025    VD84000000004952 N  549976487158                            000000000+                F DF 00412                     000000000  N000000000       0000000000000.00 0000000.00   0000000.00                             000000000000000                                                                                                                                                     01418 E000000000000 0000000000000.97     01650 01500                  
01729170367000024DT67590675900000002881800888800000010180088824001193016900012000068011620230000000058901623000000000096735480639XXXXXX0512       VK04VS111111111   NYV1 A E463016633225772N840000000000589W56Z00    05DNHAPPY HIPPIE             495203    VD84000000000589 N  549976487158                            000000000+                F DF 00451                     000000000  N000000000 214   0000000000000.00 0000000.00   0000000.00                             000000000000000                                                                                                                                                     01418 F000000000000 0000000000000.13     01550 00400                  
01729180367000025DT67590675900000002881800888800000010180088824001193016900012000076011620230000000345601623000000000096735419090XXXXXX6017       VS11    0001111   NYV1 A E303016650116740N840000000003456PQMN00    05DNHAPPY HIPPIE             792315    VD84000000003456 N  549976487158                            000000000+                F DF 00381                     000000000  N000000000       0000000000000.00 0000000.00   0000000.00                             000000000000000                                                                                                                                                     01418 A000000000000 0000000000000.43     00800 01500                  
01729190367000026DT67590675900000002881800888800000010180088824001193016900012000084011620230000000548801623000000000096735435545XXXXXX9300       VS11    0001111   NYV1 A E383016652815032N840000000005488X72N00    07DNHAPPY HIPPIE             049107    VD84000000005488 N  549976487158                            000000000+                F DF 10433                     000000000  Y000000000 338   0000000000000.00 0000000.00   0000000.00                             000000000000000                                                                                                                                                     01418 A000000000000 0000000000000.25     00050 02200                  
01729200367000027DT67590675900000002881800888800000010180088876509753016900012000090011620230000000325801623000000000096735601101XXXXXX2385   BA50                  NY41 0 N873013437516700N840000000003258    00    05DNHAPPY HIPPIE             01628P    DS84000000003258 N  549976487158050                         000000000+0000004910H00   DCPDI01118600017  111551000000 000000000  0          146   0000000000000.00 0000000.00   0000000.00                             000000000000000                                                                                                                                                     01418  000000000000 0000000000000.67     01740 01000                  
01729210367000028DT67590675900000002881800888800000010180088824001193016900012000100011620230000000859001623000000000096735480639XXXXXX7751       VS11    0001111   NYV1 A E583016674874987N840000000008590KXQR00    05DNHAPPY HIPPIE             497279    VD84000000008590 N  549976487158                            000000000+                F DF 00381                     000000000  N000000000       0000000000000.00 0000000.00   0000000.00                             000000000000000                                                                                                                                                     01418 A000000000000 0000000000000.84     00800 01500                  
01729220367000029DT67590675900000002881800888800000010180088877287283016900012000110011620230000000175001623000000000096735552393XXXXXX6493       MS02WI09          NY 1 0 AMCWNFHPLA0116  N840000000001750          05DNHAPPY HIPPIE             01629S    MC84000000001750 N  549976487158                            000000000+M10101C5434C    MCW  02188                     000000000  N                0000000000000.00 0000000.00   0000000.00                             000000000000000                                                                                                                                                   B101418  000000000000 0000000000000.44     02300 00400                  
01729230367000030DT67590675900000002881800888800000010180088824001193016900012000126011620230000000438901623000000000096735423223XXXXXX3112       VS11    0001111   NYV1 A E583016754070405N840000000004389VLPM00    05DNHAPPY HIPPIE             003103    VD84000000004389 N  549976487158                            000000000+                F DF 00381                     000000000  N000000000       0000000000000.00 0000000.00   0000000.00                             000000000000000                                                                                                                                                     01418 A000000000000 0000000000000.50     00800 01500                  
01729240367000031DT67590675900000002881800888800000010180088824001193016900012000134011620230000000329101623000000000096735440393XXXXXX3664       VS11    0001111   NYV1 A E583016758098612N840000000003291WV7M00    05DNHAPPY HIPPIE             522076    VD84000000003291 N  549976487158                            000000000+                F PF 08170                     000000000  N000000000       0000000000000.00 0000000.00   0000000.00                             000000000000000                                                                                                                                                     01418 A000000000000 0000000000000.53     01150 01500                  
01729250367000032DT67590675900000002881800888800000010180088824001193016900012000142011620230000001085101623000000000096735419090XXXXXX9868       VS11    0001111   NYV1 A E383016762044279N840000000010851B76N00    05DNHAPPY HIPPIE             797923    VD84000000010851 N  549976487158                            000000000+                F DF 00381                     000000000  N000000000       0000000000000.00 0000000.00   0000000.00                             000000000000000                                                                                                                                                     01418 A000000000000 0000000000001.02     00800 01500                  
01729260367000033DT67590675900000002881800888800000010180088824001193016900012000159011620230000001015701623000000000096735480639XXXXXX0039       VS11    0001111   NYV1 A E583016763906067N840000000010157WX9G00    05DNHAPPY HIPPIE             501431    VD84000000010157 N  549976487158                            000000000+                F DF 00381                     000000000  N000000000       0000000000000.00 0000000.00   0000000.00                             000000000000000                                                                                                                                                     01418 A000000000000 0000000000000.96     00800 01500                  
01729270367000034DT67590675900000002881800888800000010180088824001193016900012000167011620230000000439001623000000000096735483312XXXXXX0879       VS11    0001111   NYV1 A E383016776481229N840000000004390HGPP00    05DNHAPPY HIPPIE             083416    VD84000000004390 N  549976487158                            000000000+                F DF 10433                     000000000  Y000000000 338   0000000000000.00 0000000.00   0000000.00                             000000000000000                                                                                                                                                     01418 A000000000000 0000000000000.24     00050 02200                  
01729280367000035DT67590675900000002881800888800000010180088824001193016900012000175011620230000000395001623000000000096735434769XXXXXX6440       VS11    0001111   NYV1 A E463016776956474N840000000003950R35V00    05DNHAPPY HIPPIE             053416    VD84000000003950 N  549976487158                            000000000+                F DF 10433                     000000000  Y000000000 338   0000000000000.00 0000000.00   0000000.00                             000000000000000                                                                                                                                                     01418 A000000000000 0000000000000.24     00050 02200                  
01729290367000036DT67590675900000002881800888800000010180088824001193016900012000183011620230000000493701623000000000096735403784XXXXXX6815       VS11    0001111   NYV1 A E463016787312767N840000000004937MSVT00    05DNHAPPY HIPPIE             516125    VS84000000004937 N  549976487158                            000000000+                A CA 12110                     000000000  N000000000 493   0000000000000.00 0000000.00   0000000.00                             000000000000000                                                                                                                                                     01418 A000000000000 0000000000000.85     01510 01000                  
01729300367000037DT67590675900000002881800888800000010180088824001193016900012000191011620230000000599001623000000000096735465992XXXXXX3565       VS11    0001111   NYV1 A E383016800567704N840000000005990C7CZ00    07DNHAPPY HIPPIE             441346    VD84000000005990 N  549976487158                            000000000+                F DF 00381                     000000000  N000000000       0000000000000.00 0000000.00   0000000.00                             000000000000000                                                                                                                                                     01418 A000000000000 0000000000000.63     00800 01500                  
01729310367000038DT67590675900000002881800888800000010180088824001193016900012000209011620230000000651701623000000000096735419090XXXXXX6772       VS11    0001111   NYV1 A E463016802562781N8400000000065175QWS00    05DNHAPPY HIPPIE             800047    VD84000000006517 N  549976487158                            000000000+                F DF 00381                     000000000  N000000000       0000000000000.00 0000000.00   0000000.00                             000000000000000                                                                                                                                                     01418 A000000000000 0000000000000.67     00800 01500                  
01729320367000039DT67590675900000002881800888800000010180088824001193016900012000217011620230000000562801623000000000096735426754XXXXXX0519       VS11    0001111   NYV1 A E583016828226342N840000000005628582Z00    05DNHAPPY HIPPIE             173873    VD84000000005628 N  549976487158                            000000000+                F DF 00381                     000000000  N000000000       0000000000000.00 0000000.00   0000000.00                             000000000000000                                                                                                                                                     01418 A000000000000 0000000000000.60     00800 01500                  
01729330367000040BH675906759000000021548008888000009017011620230162300000000023955601970000090001830035N8008886759D01172023                                                                                                                                                                                                                                                                                                                                                                                                                                                                                                                                                                                                 
01729340367000041DT67590675900000002154800888800000010680088874001193016900018300335011620230000021753601623000000000239556442742XXXXXX8167               0000000   NN94 07N000000000000000N   000000000000          01CNDRIP DROP DISTRO LLC           0197VD84000000217536 N  519971004114                            000000000+                G DG 00000                     000000000  Y000000000 369   0000000000000.00 0000000.00   0000000.00             000000000217536C000000000000000                                                                                                                                                     01418  000000000000 0000000000000.00     00000 00000                  
01729350367000042DT67590675900000002154800888800000010180088824001193016900018355722011620230000003360001623000000000239556444395XXXXXX6413               2111111   NNV4 A7W383016790155684N840000000033600K79400    01DNDRIP DROP DISTRO LLC     00915G0197VB84000000033600 NP1519971004114   INV-000052               000000000+                G5CG500000                     000000000  N000000000 163   0000000000000.00 0000000.00   0000000.00             000000000033600D000000000000000                                                                                                                                                     01418 G000000033600 0000000000000.00     00000 00000                  
01729360367000001P16759067590000000215480088880000001010000000000000000    43881077072              2000000000000000000000000              000000000000                    0000000000000000000000000                    000000000000                                                                                                                                                                                                                                                                                                                                                                                                                                                                                        
01729370367000043DT67590675900000002154800888800000010680088874001193016900018300343011620230000005562001623000000000239556433993XXXXXX7007               0000000   NN94 07N000000000000000N   000000000000          01CNDRIP DROP DISTRO LLC           0197VB84000000055620 N  519971004114                            000000000+                G CG 00000                     000000000  N000000000 167   0000000000000.00 0000000.00   0000000.00             000000000055620C000000000000000                                                                                                                                                     01418  000000000000 0000000000000.00     00000 00000                  
01729380367000044DT67590675900000002154800888800000010180088873011003016900018374844011620230000009450301623000000000239556372722XXXXX2014                          NN 4 07N004335406528303N840000000094503          01DNDRIP DROP DISTRO LLC     2044500197AM84000000094503 N  519971004114                            000000000+6004S0S00140 258     00000                     000000000                   0000000000000.00 0000000.00   0000000.00             000000000094503D000000000000000 61248972736759675900000002154 DRIP DROP DISTRO LLC     1445 W COMMERCE AVE SUITE2087248209      83705     TROY@DRIPDROPDISTRO.COM                   01418  000000000000 0000000000000.00     00000 00000                  
01729390367000045DT67590675900000002154800888800000010680088873011003016900018300351011620230000009450301623000000000239556372722XXXXX2014                          NN94 07N000000000000000N840000000000000          01CNDRIP DROP DISTRO LLC           0197AM84000000094503 N  519971004114                            000000000+5004S0600140 258     00000                     000000000                   0000000000000.00 0000000.00   0000000.00             000000000094503C000000000000000 61248972736759675900000002154 DRIP DROP DISTRO LLC     1445 W COMMERCE AVE SUITE2087248209      83705     TROY@DRIPDROPDISTRO.COM                   01418  000000000000 0000000000000.00     00000 00000                  
01729400367000046BH6759067590000000096880088880000090170116202301623000000000019635    0000090001213747N8008886759C01172023                                                                                                                                                                                                                                                                                                                                                                                                                                                                                                                                                                                                 
01729410367000047DT67590675900000000968800888800000010180088824001193016900012151937011620230000000750001623000000000019635400022XXXXXX1696               2111111   NYV4 A7W303016565561797N8400000000075003HCM00    01DNHIGHER FLOUR LLC         037243    VD84000000007500 NP1546271004114   RLIPV6ZBVWKJT4YQMVFN     000000000+                F DF 10420                     000000000  Y000000000 338   0000000000000.00 0000000.00   0000000.00                             000000000000000                                                                                                                                                     01418 G000000007500 0000000000000.26     00050 02200                  
01729420367000001P16759067590000000096880088880000001010000000000000000                             2000000000000000000000000              000000000000                    0000000000000000000000000                    000000000000                                                                                                                                                                                                                                                                                                                                                                                                                                                                                        
01729430367000048DT67590675900000000968800888800000010180088824001193016900012137472011620230000001213501623000000000019635435142XXXXXX4679               2111111   NYV4 A7W383016524315890N840000000012135FXC600    01DNHIGHER FLOUR LLC         019003    VD84000000012135 NP1546271004114   RSWWWAO5NHWKWRRU4JBD     000000000+                F DF 10420                     000000000  Y000000000 338   0000000000000.00 0000000.00   0000000.00                             000000000000000                                                                                                                                                     01418 G000000012135 0000000000000.28     00050 02200                  
01729440367000001P16759067590000000096880088880000001010000000000000000                             2000000000000000000000000              000000000000                    0000000000000000000000000                    000000000000                                                                                                                                                                                                                                                                                                                                                                                                                                                                                        
