00002310277630002BH6759067590000001857280010580000090170313202307223000000000018900    0000090001020005N8001056759C03132023                                                                                                                                                                                                                                                                                                                                                                                                                                                                                                                                                                                                 
00002320277630003DT67590675900000018572800105800000010180010577287283072900010200036031220230000000299507223000000000018900517805XXXXXX8626       MS02WI09          NY 1 0 AMWESG7F170312  N840000000002995          05DNGALLERY SMOKE SHOP LLC   06320P    MC84000000002995 N  599977453598                            000000000+M10101C5434C    MWE  00739                     000000000  N                0000000000000.00 0000000.00   0000000.00                             000000000000000                                                                                                                                                   B101424  000000000000 0000000000000.79     02300 01000                  
00002330277630004DT67590675900000018572800105800000010180010524001193072900010200042031220230000000877207223000000000018900483950XXXXXX0967       VS11    0001111   NYV1 A E383071821032183N840000000008772STFR00    07DNGALLERY SMOKE SHOP LLC   04709B    VS84000000008772 N  599977453598                            000000000+                B CB 12111                     000000000  N000000000 495   0000000000000.00 0000000.00   0000000.00                             000000000000000                                                                                                                                                     01424 A000000000000 0000000000001.55     01650 01000                  
00002340277630005DT67590675900000018572800105800000033080010576759003072900010200013031220230000000089607223000000000018900483312XXXXXX0364                         NY 2 0 N               N840000000000896      IL  07DNGALLERY SMOKE SHOP LLC   005312    DB84000000000896 N  599977453598                            000000000+                     09580                                Y          342   0000000000000.00 0000000.00   0000000.00                             000000000000000                                                                                                                                                     01424  000000000000 0000000000000.22     00050 00000                  
00002350277630006DT67590675900000018572800105800000033080010576759003072900010200021031220230000000256807223000000000018900423223XXXXXX8959                         NY 2 0 N               N840000000002568      IL  05DNGALLERY SMOKE SHOP LLC   088102    DB84000000002568 N  599977453598                            000000000+                     09573                                N          121   0000000000000.00 0000000.00   0000000.00                             000000000000000                                                                                                                                                     01424  000000000000 0000000000000.36     00800 00000                  
00002360277630007DT67590675900000018572800105800000033080010576759003072900010200054031220230000000366907223000000000018900410881XXXXXX5461                         NY 2 0 N               N840000000003669      IL  05DNGALLERY SMOKE SHOP LLC   117262    DB84000000003669 N  599977453598                            000000000+                     09573                                N          121   0000000000000.00 0000000.00   0000000.00                             000000000000000                                                                                                                                                     01424  000000000000 0000000000000.44     00800 00000                  
00002370277630008BH6759067590000001165080088880000090170313202307223000000000030425    0000090001300007N8008886759C03132023                                                                                                                                                                                                                                                                                                                                                                                                                                                                                                                                                                                                 
00002380277630009DT67590675900000011650800888800000010180088824001193072900013000019031120230000000567607223000000000030425443044XXXXXX6349       VS11    0001111   NYV1 A E383071162804697N8400000000056764C2D00    07DNVPODS HOLDING INC        827434    VD84000000005676 N  599977032122                            000000000+                F DF 10433                     000000000  Y000000000 338   0000000000000.00 0000000.00   0000000.00                             000000000000000                                                                                                                                                     01424 A000000000000 0000000000000.25     00050 02200                  
00002390277630010DT67590675900000011650800888800000010180088824001193072900013000027031120230000000125007223000000000030425483390XXXXXX1365       VK04VS111111111   NYV1 A E463071200935244N840000000001250BVL800    05DNVPODS HOLDING INC        327220    VD84000000001250 N  599977032122                            000000000+                F DF 00451                     000000000  N000000000 214   0000000000000.00 0000000.00   0000000.00                             000000000000000                                                                                                                                                     01424 F000000000000 0000000000000.23     01550 00400                  
00002400277630011DT67590675900000011650800888800000010180088824001193072900013000035031220230000000227107223000000000030425483312XXXXXX6998       VS11    0001111   NYV1 A E463071660021296N8400000000022715C4P00    07DNVPODS HOLDING INC        022014    VD84000000002271 N  599977032122                            000000000+                F DF 10433                     000000000  Y000000000 338   0000000000000.00 0000000.00   0000000.00                             000000000000000                                                                                                                                                     01424 A000000000000 0000000000000.23     00050 02200                  
00002410277630012DT67590675900000011650800888800000010180088824001193072900013000043031220230000000283807223000000000030425478200XXXXXX5541       VS11    0001111   NYV1 A E383071736172942N840000000002838QMXD00    07DNVPODS HOLDING INC        072616    VD84000000002838 N  599977032122                            000000000+                F DF 10433                     000000000  Y000000000 338   0000000000000.00 0000000.00   0000000.00                             000000000000000                                                                                                                                                     01424 A000000000000 0000000000000.23     00050 02200                  
00002420277630013DT67590675900000011650800888800000010180088824001193072900013000050031220230000000851307223000000000030425489750XXXXXX4401       VS11    0001111   NYV1 A E463071769711784N840000000008513WVZD00    07DNVPODS HOLDING INC        022217    VD84000000008513 N  599977032122                            000000000+                F DF 10433                     000000000  Y000000000 338   0000000000000.00 0000000.00   0000000.00                             000000000000000                                                                                                                                                     01424 A000000000000 0000000000000.26     00050 02200                  
00002430277630014DT67590675900000011650800888800000010180088824001193072900013000068031220230000000567707223000000000030425482915XXXXXX9925       VS11    0001111   NYV1 A E303071788154231N840000000005677DSCH00    07DNVPODS HOLDING INC        055317    VD84000000005677 N  599977032122                            000000000+                F DF 10433                     000000000  Y000000000 338   0000000000000.00 0000000.00   0000000.00                             000000000000000                                                                                                                                                     01424 A000000000000 0000000000000.25     00050 02200                  
00002440277630015DT67590675900000011650800888800000010180088824001193072900013000076031220230000000420007223000000000030425482915XXXXXX9594       VS11    0001111   NYV1 A E303072047219881N840000000004200H42Q00    07DNVPODS HOLDING INC        099571    VD84000000004200 N  599977032122                            000000000+                F DF 10433                     000000000  Y000000000 338   0000000000000.00 0000000.00   0000000.00                             000000000000000                                                                                                                                                     01424 A000000000000 0000000000000.24     00050 02200                  
