00003820139600002BH6759067590000000288180088880000090170306202306523000000000006069    0000090001700145Y8008886759C03072023                                                                                                                                                                                                                                                                                                                                                                                                                                                                                                                                                                                                 
00003830139600003DT67590675900000002881800888800000010680088874001193065900017001439030620230000000362106523000000000006069410801XXXXXX9505               0000000   NYV4 07T463065586507068N8400000000036216T9500    01CNHAPPY HIPPIE             011730    VD84000000003621 NP1549976044904   1961                     000000000+                F DF 08168                     000000000  N000000000 369   0000000000000.00 0000000.00   0000000.00                             000000000000000                                                                                                                                                     01424  000000003621 0000000000000.00     00000 00000                  
00003840139600001P16759067590000000288180088880000001060000000000000000                             2000000000000000000000000              000000000000                    0000000000000000000000000                    000000000000                                                                                                                                                                                                                                                                                                                                                                                                                                                                                        
00003850139600004DT67590675900000002881800888800000010180088824001193065900017001442030620230000000685206523000000000006069435544XXXXXX3632               2111111   NYV4 A7W383065762403286N8400000000068525Q8800    01DNHAPPY HIPPIE             138079    VD84000000006852 NP1549976044904   1962                     000000000+                F DF 10420                     000000000  Y000000000 338   0000000000000.00 0000000.00   0000000.00                             000000000000000                                                                                                                                                     01424 G000000006852 0000000000000.25     00050 02200                  
00003860139600001P16759067590000000288180088880000001010000000000000000                             2000000000000000000000000              000000000000                    0000000000000000000000000                    000000000000                                                                                                                                                                                                                                                                                                                                                                                                                                                                                        
00003870139600005DT67590675900000002881800888800000010180088824001193065900017001459030620230000000283806523000000000006069410801XXXXXX9505               2111111   NYV4 A7W583065762891482N8400000000028388V3C00    01DNHAPPY HIPPIE             061129    VD84000000002838 NP1549976044904   1963                     000000000+                F DF 00415                     000000000  N000000000       0000000000000.00 0000000.00   0000000.00                             000000000000000                                                                                                                                                     01424 G000000002838 0000000000000.62     01650 01500                  
00003880139600001P16759067590000000288180088880000001010000000000000000                             2000000000000000000000000              000000000000                    0000000000000000000000000                    000000000000                                                                                                                                                                                                                                                                                                                                                                                                                                                                                        
00003890139600006BH6759067590000001427480010280000090170306202306523000000000517116    0000090001191333Y8001026759C03072023                                                                                                                                                                                                                                                                                                                                                                                                                                                                                                                                                                                                 
00003900139600007DT67590675900000014274800102800000010180010224001193065900011908824030520230000001987006523000000000517116464413XXXXXX9390               2111111   NYV4 A7W583061657042724N840000000019870M4QK00    01DNCBD8666317293            859753    VD84000000019870 NP1549977145232   3742F7599BT444F9EB71977  000000000+                F DF 00415                     000000000  N000000000       0000000000000.00 0000000.00   0000000.00                             000000000000000                                                                                                                                                     01424 G000000019870 0000000000003.43     01650 01500                  
00003910139600001P16759067590000001427480010280000001010000000000000000                             2000000000000000000000000              000000000000                    0000000000000000000000000                    000000000000                                                                                                                                                                                                                                                                                                                                                                                                                                                                                        
00003920139600008DT67590675900000014274800102800000010180010287287283065900011908924030520230000000768706523000000000517116518941XXXXXX7581       ME03KE06MS02      NY 4607AMWETIWISE0302  N840000000007687          81DNCBD8666317293            86654Z    MC84000000007687 N  549977145232   14EB171FFDT0F835A25C50C  000000000+600450S00130    MWE  00737                     000000000  N                0000000000000.00 0000000.00   0000000.00                             000000000000000                                                                                                                                                   U001424  000000000000 0000000000002.10     02600 01000                  
00003930139600009DT67590675900000014274800102800000010180010224001193065900011909178030520230000000643906523000000000517116486796XXXXXX7416               2111111   NYV4 A7W383062138057127N8400000000064396NQ200    01DNCBD8666317293            055022    VD84000000006439 NP1549977145232   0799955B98T1D1A4F67CE78  000000000+                F DF 10420                     000000000  Y000000000 338   0000000000000.00 0000000.00   0000000.00                             000000000000000                                                                                                                                                     01424 G000000006439 0000000000000.25     00050 02200                  
00003940139600001P16759067590000001427480010280000001010000000000000000                             2000000000000000000000000              000000000000                    0000000000000000000000000                    000000000000                                                                                                                                                                                                                                                                                                                                                                                                                                                                                        
00003950139600010DT67590675900000014274800102800000010180010287287283065900011912256030520230000002136006523000000000517116541413XXXXXX4424       ME03KE06PT01      NY 4607AMCWNG3GZU0305  N840000000021360          81DNCBD8666317293            08906S    MC84000000021360 N  549977145232   CED12EB00DTE117E21CAB67  000000000+600450S00130    MCW  02182                     000000000  N                0000000000000.00 0000000.00   0000000.00                             000000000000000                                                                                                                                                   U001424  000000000000 0000000000005.65     02600 01000                  
00003960139600011DT67590675900000014274800102800000010180010287287283065900011912264030520230000002686006523000000000517116551285XXXXXX9677       ME03KE06MS02      NY 4607AMDSN7QZZU0305  N840000000026860          81DNCBD8666317293            332416    MD84000000026860 N  549977145232   557EEA09BAT76E7D47989DC  000000000+600450S00130    MDS  00401                     000000000  N                0000000000000.00 0000000.00   0000000.00                             000000000000000                                                                                                                                                   U001424  000000000000 0000000000004.58     01650 01500                  
00003970139600012DT67590675900000014274800102800000010180010276509753065900011912279030520230000001604006523000000000517116601100XXXXXX6298   BA00                  NY 4 07N753055215461853N840000000016040    00    01DNCBD8666317293            00590R    DS84000000016040 N  549977145232070                         000000000+1015104910600   DCCDI11325668420  204546000000 000000000  0          460   0000000000000.00 0000000.00   0000000.00                             000000000000000                                                                                                                                                     01424  000000000000 0000000000003.36     02030 01000                  
00003980139600013DT67590675900000014274800102800000010180010287287283065900011912322030520230000001987006523000000000517116521333XXXXXX0393       ME03KE06MS02      NY 4607AMWEBOH42V0305  N840000000019870          81DNCBD8666317293            00577Y    MC84000000019870 N  549977145232   8599B3F805T093B2B646814  000000000+600450S00130    MWE  00642                     000000000  N                0000000000000.00 0000000.00   0000000.00                             000000000000000                                                                                                                                                   U001424  000000000000 0000000000004.47     02200 01000                  
00003990139600014DT67590675900000014274800102800000010180010224001193065900011912362030520230000002740706523000000000517116434258XXXXXX3767               2111111   NYV4 A7W303065199136883N8400000000274075LVH00    01DNCBD8666317293            083029    VD84000000027407 NP1549977145232   C1DD1B0790T733AD5CC48DC  000000000+                F DF 10420                     000000000  Y000000000 338   0000000000000.00 0000000.00   0000000.00                             000000000000000                                                                                                                                                     01424 G000000027407 0000000000000.36     00050 02200                  
00004000139600001P16759067590000001427480010280000001010000000000000000                             2000000000000000000000000              000000000000                    0000000000000000000000000                    000000000000                                                                                                                                                                                                                                                                                                                                                                                                                                                                                        
00004010139600015DT67590675900000014274800102800000010180010224001193065900011912396030620230000001987006523000000000517116481582XXXXXX2079               2111111   NYV4 A7W303065311553258N840000000019870M8K500    01DNCBD8666317293            143690    VD84000000019870 NP1549977145232   ECC4B8F8FDT86C4757E07B8  000000000+                F DF 10420                     000000000  Y000000000 338   0000000000000.00 0000000.00   0000000.00                             000000000000000                                                                                                                                                     01424 G000000019870 0000000000000.32     00050 02200                  
00004020139600001P16759067590000001427480010280000001010000000000000000                             2000000000000000000000000              000000000000                    0000000000000000000000000                    000000000000                                                                                                                                                                                                                                                                                                                                                                                                                                                                                        
00004030139600016DT67590675900000014274800102800000010180010224001193065900011912404030620230000000319906523000000000517116481582XXXXXX2079               2111111   NYV4 A7W383065312677157N840000000003199L82V00    01DNCBD8666317293            144315    VD84000000003199 NP1549977145232   ECC4B8F8FDT8F37B3D4B1D1  000000000+                F DF 10420                     000000000  Y000000000 338   0000000000000.00 0000000.00   0000000.00                             000000000000000                                                                                                                                                     01424 G000000003199 0000000000000.24     00050 02200                  
00004040139600001P16759067590000001427480010280000001010000000000000000                             2000000000000000000000000              000000000000                    0000000000000000000000000                    000000000000                                                                                                                                                                                                                                                                                                                                                                                                                                                                                        
00004050139600017DT67590675900000014274800102800000010180010224001193065900011912412030620230000000149506523000000000517116481582XXXXXX2079               2111111   NYV4 A7W583065313642559N840000000001495TGC600    01DNCBD8666317293            144221    VD84000000001495 NP1549977145232   ECC4B8F8FDT128433775B01  000000000+                F DF 10420                     000000000  Y000000000 338   0000000000000.00 0000000.00   0000000.00                             000000000000000                                                                                                                                                     01424 G000000001495 0000000000000.23     00050 02200                  
00004060139600001P16759067590000001427480010280000001010000000000000000                             2000000000000000000000000              000000000000                    0000000000000000000000000                    000000000000                                                                                                                                                                                                                                                                                                                                                                                                                                                                                        
00004070139600018DT67590675900000014274800102800000010180010224001193065900011912420030620230000000160006523000000000517116474639XXXXXX4853               2111111   NYV4 A7W303065315231302N8400000000016006T7B00    01DNCBD8666317293            024524    VD84000000001600 NP1549977145232   6B3B3BB44DT72D1F4EBB8CF  000000000+                F DF 00415                     000000000  N000000000       0000000000000.00 0000000.00   0000000.00                             000000000000000                                                                                                                                                     01424 G000000001600 0000000000000.41     01650 01500                  
00004080139600001P16759067590000001427480010280000001010000000000000000                             2000000000000000000000000              000000000000                    0000000000000000000000000                    000000000000                                                                                                                                                                                                                                                                                                                                                                                                                                                                                        
00004090139600019DT67590675900000014274800102800000010180010276509753065900011912501030620230000001332306523000000000517116601100XXXXXX1521   BA00                  NY 4 07N803055500565909N840000000013323    00    01DNCBD8666317293            00605R    DS84000000013323 N  549977145232070                         000000000+1015104910600   DCCDI11325501511  044056000000 000000000  0          460   0000000000000.00 0000000.00   0000000.00                             000000000000000                                                                                                                                                     01424  000000000000 0000000000002.80     02030 01000                  
00004100139600020DT67590675900000014274800102800000010180010224001193065900011912602030620230000002947906523000000000517116474166XXXXXX2839               2111111   NYV4 A7W463065444412177N840000000029479K23D00    01DNCBD8666317293            013010    VD84000000029479 NP1549977145232   D994325035T17D2F789AB65  000000000+                G DG 10352                     000000000  Y000000000 338   0000000000000.00 0000000.00   0000000.00                             000000000000000                                                                                                                                                     01424 G000000029479 0000000000000.37     00050 02200                  
00004110139600001P16759067590000001427480010280000001010000000000000000                             1000000001929000000000000              000000000000                    0000000000000000000000000                    000000000000                                                                                                                                                                                                                                                                                                                                                                                                                                                                                        
00004120139600021DT67590675900000014274800102800000010180010224001193065900011912644030620230000001557006523000000000517116443051XXXXXX6760               2111111   NYV4 A7W463065496179137N84000000001557058NN00    01DNCBD8666317293            609275    VD84000000015570 NP1549977145232   8EA954DE37T2A0AD3F383B2  000000000+                F DF 10420                     000000000  Y000000000 338   0000000000000.00 0000000.00   0000000.00                             000000000000000                                                                                                                                                     01424 G000000015570 0000000000000.30     00050 02200                  
00004130139600001P16759067590000001427480010280000001010000000000000000                             2000000000000000000000000              000000000000                    0000000000000000000000000                    000000000000                                                                                                                                                                                                                                                                                                                                                                                                                                                                                        
00004140139600022DT67590675900000014274800102800000010180010287287283065900011912660030620230000002126106523000000000517116550442XXXXXX7079       ME03KE06MS02      NY 4607AMDJD0H04S0306  N840000000021261          81DNCBD8666317293            085628    MD84000000021261 N  549977145232   F41F9F1E9CTF0152BF099BB  000000000+600450S00130    MDJ  00401                     000000000  N                0000000000000.00 0000000.00   0000000.00                             000000000000000                                                                                                                                                   U001424  000000000000 0000000000003.66     01650 01500                  
00004150139600023DT67590675900000014274800102800000010680010276509753065900011912675030620230000002435406523000000000517116601149XXXXXX5985   BA00                  NY 4 07N863055623906872N840000000024354    00    01CNCBD8666317293            00605P    DS84000000024354 N  549977145232070                         000000000+1015104910600   DCPDI01128500497  080630200000 000000000  0          156   0000000000000.00 0000000.00   0000000.00                             000000000000000                                                                                                                                                     01424  000000000000-0000000000004.26     01750 00000                  
00004160139600024DT67590675900000014274800102800000010680010287287283065900011912686030620230000001127506523000000000517116551357XXXXXX7180                         NY 4607AMDSVD43FD0306  N840000000011275          81CNCBD8666317293            023798    MD84000000011275 N  549977145232   B959522BBBT53EDF6749CDD  000000000+600450S00130    MDS  00560                     000000000  N                0000000000000.00 0000000.00   0000000.00                             000000000000000                                                                                                                                                     01424  000000000000 0000000000000.00     00000 00000                  
00004170139600025DT67590675900000014274800102800000010180010224001193065900011912693030620230000002118106523000000000517116434256XXXXXX6658               2111111   NYV4 A7W463065510521128N840000000021181975P00    01DNCBD8666317293            064683    VD84000000021181 NP1549977145232   E806731FA3TE0F677F73B75  000000000+                F DF 10420                     000000000  Y000000000 338   0000000000000.00 0000000.00   0000000.00                             000000000000000                                                                                                                                                     01424 G000000021181 0000000000000.33     00050 02200                  
00004180139600001P16759067590000001427480010280000001010000000000000000                             2000000000000000000000000              000000000000                    0000000000000000000000000                    000000000000                                                                                                                                                                                                                                                                                                                                                                                                                                                                                        
00004190139600026DT67590675900000014274800102800000010680010287287283065900011912702030620230000002487006523000000000517116546249XXXXXX8328                         NY 4607AMDJTBFNQU0306  N840000000024870          81CNCBD8666317293            081553    MD84000000024870 N  549977145232   AD25AD3291TE7ADB1EF088A  000000000+600450S00130    MDJ  10828                     000000000  1                0000000000000.00 0000000.00   0000000.00                             000000000000000                                                                                                                                                     01424  000000000000 0000000000000.00     00000 00000                  
00004200139600027DT67590675900000014274800102800000010680010274001193065900011912714030620230000002934106523000000000517116410040XXXXXX1254               0000000   NYV4 07T583065514501680N840000000029341DCPJ00    01CNCBD8666317293            07908G    VB84000000029341 NP1549977145232   5D5347FBD0T5443F1819443  000000000+                G CG 00246                     000000000  N000000000 167   0000000000000.00 0000000.00   0000000.00                             000000000000000                                                                                                                                                     01424  000000029341-0000000000006.90     02350 00000                  
00004210139600001P16759067590000001427480010280000001060000000000000000                             2000000000000000000000000              000000000000                    0000000000000000000000000                    000000000000                                                                                                                                                                                                                                                                                                                                                                                                                                                                                        
00004220139600028DT67590675900000014274800102800000010180010224001193065900011912768030620230000001987006523000000000517116420767XXXXXX9265               2111111   NYV4 A7W383065543165668N840000000019870882G00    01DNCBD8666317293            070510    VD84000000019870 NP1549977145232   C87BE89167T67EA12FFD51C  000000000+                F DF 10420                     000000000  Y000000000 338   0000000000000.00 0000000.00   0000000.00                             000000000000000                                                                                                                                                     01424 G000000019870 0000000000000.32     00050 02200                  
00004230139600001P16759067590000001427480010280000001010000000000000000                             2000000000000000000000000              000000000000                    0000000000000000000000000                    000000000000                                                                                                                                                                                                                                                                                                                                                                                                                                                                                        
00004240139600029DT67590675900000014274800102800000010680010276509753065900011912774030620230000001342306523000000000517116601100XXXXXX0846   BA00                  NY 4 07N863055663032410N840000000013423    00    01CNCBD8666317293            00675R    DS84000000013423 N  549977145232070                         000000000+1015104910600   DCCDI01022001428  091143200000 000000000  0          134   0000000000000.00 0000000.00   0000000.00                             000000000000000                                                                                                                                                     01424  000000000000-0000000000002.35     01750 00000                  
00004250139600030DT67590675900000014274800102800000010680010274001193065900011912797030620230000002190706523000000000517116440066XXXXXX5522               0000000   NYV4 07T583065554945922N84000000002190776TP00    01CNCBD8666317293            03621D    VS84000000021907 NP1549977145232   4C9137FA5DTE61CB587A1F6  000000000+                D CD 00245                     000000000  N000000000 166   0000000000000.00 0000000.00   0000000.00                             000000000000000                                                                                                                                                     01424  000000021907-0000000000003.86     01760 00000                  
00004260139600001P16759067590000001427480010280000001060000000000000000                             2000000000000000000000000              000000000000                    0000000000000000000000000                    000000000000                                                                                                                                                                                                                                                                                                                                                                                                                                                                                        
00004270139600031DT67590675900000014274800102800000010180010224001193065900011912800030620230000002487006523000000000517116425907XXXXXX2884               2111111   NYV4 A7W463065560865116N8400000000248707FX200    01DNCBD8666317293            059690    VD84000000024870 NP1549977145232   1927E19C8CT23A0264C03DC  000000000+                G DG 10352                     000000000  Y000000000 338   0000000000000.00 0000000.00   0000000.00                             000000000000000                                                                                                                                                     01424 G000000024870 0000000000000.34     00050 02200                  
00004280139600001P16759067590000001427480010280000001010000000000000000                             2000000000000000000000000              000000000000                    0000000000000000000000000                    000000000000                                                                                                                                                                                                                                                                                                                                                                                                                                                                                        
00004290139600032DT67590675900000014274800102800000010180010224001193065900011912818030620230000000499906523000000000517116425907XXXXXX2884               2111111   NYV4 A7W383065561479980N840000000004999GPS200    01DNCBD8666317293            080434    VD84000000004999 NP1549977145232   1927E19C8CTC5C7C7FC6E99  000000000+                G DG 10352                     000000000  Y000000000 338   0000000000000.00 0000000.00   0000000.00                             000000000000000                                                                                                                                                     01424 G000000004999 0000000000000.24     00050 02200                  
00004300139600001P16759067590000001427480010280000001010000000000000000                             2000000000000000000000000              000000000000                    0000000000000000000000000                    000000000000                                                                                                                                                                                                                                                                                                                                                                                                                                                                                        
00004310139600033DT67590675900000014274800102800000010180010287287283065900011912827030620230000001799106523000000000517116540341XXXXXX3255       ME03KE06MS02      NY 4607AMDSMSQBFF0306  N840000000017991          81DNCBD8666317293            062734    MD84000000017991 N  549977145232   C46F243A54TD07F14FAB8CF  000000000+600450S00130    MDS  00401                     000000000  N                0000000000000.00 0000000.00   0000000.00                             000000000000000                                                                                                                                                   U001424  000000000000 0000000000003.12     01650 01500                  
00004320139600034DT67590675900000014274800102800000010180010287287283065900011912868030620230000002071006523000000000517116543148XXXXXX3835       ME03KE06MS02      NY 4607AMDJJKLKQR0306  N840000000020710          81DNCBD8666317293            233827    MD84000000020710 N  549977145232   6B77272C73TB90BF8531D2A  000000000+600450S00130    MDJ  00401                     000000000  N                0000000000000.00 0000000.00   0000000.00                             000000000000000                                                                                                                                                   U001424  000000000000 0000000000003.57     01650 01500                  
00004330139600035DT67590675900000014274800102800000010680010274001193065900011912888030620230000000993506523000000000517116431449XXXXXX1528               0000000   NYV4 07T463065579132086N840000000009935RM3G00    01CNCBD8666317293            006323    VD84000000009935 NP1549977145232   E853B99999TE51E4031140A  000000000+                F DF 08168                     000000000  N000000000 369   0000000000000.00 0000000.00   0000000.00                             000000000000000                                                                                                                                                     01424  000000009935 0000000000000.00     00000 00000                  
00004340139600001P16759067590000001427480010280000001060000000000000000                             2000000000000000000000000              000000000000                    0000000000000000000000000                    000000000000                                                                                                                                                                                                                                                                                                                                                                                                                                                                                        
00004350139600036DT67590675900000014274800102800000010180010224001193065900011912909030620230000000995406523000000000517116403766XXXXXX1468               2111111   NYV4 A7W303065582707485N84000000000995482D600    01DNCBD8666317293            016011    VS84000000009954 NP1549977145232   228B5571FCTC500CDA5565E  000000000+                A CA 12106                     000000000  N000000000 492   0000000000000.00 0000000.00   0000000.00                             000000000000000                                                                                                                                                     01424 G000000009954 0000000000001.98     01890 01000                  
00004360139600001P16759067590000001427480010280000001010000000000000000                             2000000000000000000000000              000000000000                    0000000000000000000000000                    000000000000                                                                                                                                                                                                                                                                                                                                                                                                                                                                                        
00004370139600037DT67590675900000014274800102800000010180010224001193065900011912933030620230000001987006523000000000517116427178XXXXXX4711               2111111   NYV4 A7W583065603793889N840000000019870X3T700    01DNCBD8666317293            117124    VD84000000019870 NP1549977145232   AFB5BFCFFFT9338875D1A47  000000000+                F DF 10420                     000000000  Y000000000 338   0000000000000.00 0000000.00   0000000.00                             000000000000000                                                                                                                                                     01424 G000000019870 0000000000000.32     00050 02200                  
00004380139600001P16759067590000001427480010280000001010000000000000000                             2000000000000000000000000              000000000000                    0000000000000000000000000                    000000000000                                                                                                                                                                                                                                                                                                                                                                                                                                                                                        
00004390139600038DT67590675900000014274800102800000010180010287287283065900011912942030620230000002170806523000000000517116524363XXXXXX4075       ME03KE06PT01      NY 4607AMCWFXMJQR0306  N840000000021708          81DNCBD8666317293            00628P    MC84000000021708 N  549977145232   E5ECB72A55T053CEAF17CD7  000000000+600450S00130    MCW  00642                     000000000  N                0000000000000.00 0000000.00   0000000.00                             000000000000000                                                                                                                                                   U001424  000000000000 0000000000004.88     02200 01000                  
00004400139600039DT67590675900000014274800102800000010180010287287283065900011912959030620230000002255006523000000000517116553726XXXXXX7770       ME03KE06MS02      NY 4607AMDJGCVLQR0306  N840000000022550          81DNCBD8666317293            092660    MD84000000022550 N  549977145232   F173060FAFTBDF9B3577E28  000000000+600450S00130    MDJ  00401                     000000000  N                0000000000000.00 0000000.00   0000000.00                             000000000000000                                                                                                                                                   U001424  000000000000 0000000000003.87     01650 01500                  
00004410139600040DT67590675900000014274800102800000010680010274001193065900011912979030620230000002686006523000000000517116435547XXXXXX6464               0000000   NYV4 07T383065618241042N840000000026860M4L400    01CNCBD8666317293            100107    VD84000000026860 NP1549977145232   061FE92576T57EDE3C9ED2F  000000000+                F DF 08168                     000000000  Y000000000 369   0000000000000.00 0000000.00   0000000.00                             000000000000000                                                                                                                                                     01424  000000026860 0000000000000.00     00000 00000                  
00004420139600001P16759067590000001427480010280000001060000000000000000                             2000000000000000000000000              000000000000                    0000000000000000000000000                    000000000000                                                                                                                                                                                                                                                                                                                                                                                                                                                                                        
00004430139600041DT67590675900000014274800102800000010180010224001193065900011913014030620230000002255006523000000000517116411774XXXXXX7301               2111111   NYV4 A7W303065624038372N840000000022550V8TG00    01DNCBD8666317293            142106    VD84000000022550 NP1549977145232   42E1430256T47EFF50E1B4F  000000000+                F DF 10420                     000000000  Y000000000 338   0000000000000.00 0000000.00   0000000.00                             000000000000000                                                                                                                                                     01424 G000000022550 0000000000000.33     00050 02200                  
00004440139600001P16759067590000001427480010280000001010000000000000000                             2000000000000000000000000              000000000000                    0000000000000000000000000                    000000000000                                                                                                                                                                                                                                                                                                                                                                                                                                                                                        
00004450139600042DT67590675900000014274800102800000010180010287287283065900011913023030620230000002255006523000000000517116521333XXXXXX1497       ME03KE06MS02      NY 4607AMWEX8URQU0306  N840000000022550          81DNCBD8666317293            00628Y    MC84000000022550 N  549977145232   572ED7767CT1600FE4836B0  000000000+600450S00130    MWE  00642                     000000000  N                0000000000000.00 0000000.00   0000000.00                             000000000000000                                                                                                                                                   U001424  000000000000 0000000000005.06     02200 01000                  
00004460139600043DT67590675900000014274800102800000010180010224001193065900011913048030620230000000534906523000000000517116473703XXXXXX5306               2111111   NYV4 A7W583065664853606N8400000000053497RXC00    01DNCBD8666317293            058659    VD84000000005349 NP1549977145232   F5652DE5F3T7E08D46DBE4C  000000000+                F DF 10420                     000000000  Y000000000 338   0000000000000.00 0000000.00   0000000.00                             000000000000000                                                                                                                                                     01424 G000000005349 0000000000000.25     00050 02200                  
00004470139600001P16759067590000001427480010280000001010000000000000000                             2000000000000000000000000              000000000000                    0000000000000000000000000                    000000000000                                                                                                                                                                                                                                                                                                                                                                                                                                                                                        
00004480139600044DT67590675900000014274800102800000010180010276509753065900011913053030620230000002141006523000000000517116601100XXXXXX5389   BA00                  NY 4 07N813055781183404N840000000021410    00    01DNCBD8666317293            00634R    DS84000000021410 N  549977145232070                         000000000+1015104910600   DCCDI11325167418  122838000000 000000000  0          460   0000000000000.00 0000000.00   0000000.00                             000000000000000                                                                                                                                                     01424  000000000000 0000000000004.45     02030 01000                  
00004490139600045DT67590675900000014274800102800000010180010276509753065900011913103030620230000002661106523000000000517116601100XXXXXX1216   BA00                  NY 4 07N873055805696435N840000000026611    00    01DNCBD8666317293            00643R    DS84000000026611 N  549977145232070                         000000000+1015104910600   DCCDI11325666491  130929000000 000000000  0          460   0000000000000.00 0000000.00   0000000.00                             000000000000000                                                                                                                                                     01424  000000000000 0000000000005.50     02030 01000                  
00004500139600046DT67590675900000014274800102800000010180010224001193065900011913121030620230000002661106523000000000517116473702XXXXXX9981               2111111   NYV4 A7W463065703475931N840000000026611JDJC00    01DNCBD8666317293            008874    VD84000000026611 NP1549977145232   104DDE7D01T30FC90EAF82C  000000000+                F DF 10420                     000000000  Y000000000 338   0000000000000.00 0000000.00   0000000.00                             000000000000000                                                                                                                                                     01424 G000000026611 0000000000000.35     00050 02200                  
00004510139600001P16759067590000001427480010280000001010000000000000000                             2000000000000000000000000              000000000000                    0000000000000000000000000                    000000000000                                                                                                                                                                                                                                                                                                                                                                                                                                                                                        
00004520139600047DT67590675900000014274800102800000010180010224001193065900011913154030620230000000659906523000000000517116410039XXXXXX4705               2111111   NYV4 A7W383065720471412N840000000006599VSZG00    01DNCBD8666317293            89984C    VS84000000006599 NP1549977145232   25C196FA55T645EE5BA6E25  000000000+                C CC 12108                     000000000  N000000000 496   0000000000000.00 0000000.00   0000000.00                             000000000000000                                                                                                                                                     01424 G000000006599 0000000000001.45     02050 01000                  
00004530139600001P16759067590000001427480010280000001010000000000000000                             2000000000000000000000000              000000000000                    0000000000000000000000000                    000000000000                                                                                                                                                                                                                                                                                                                                                                                                                                                                                        
00004540139600048DT67590675900000014274800102800000010680010287287283065900011913163030620230000002021506523000000000517116537800XXXXXX5584                         NY 4607AMWEWIR1HL0306  N840000000020215          81CNCBD8666317293            031946    MC84000000020215 N  549977145232   F4CB407281TE51D65443160  000000000+600450S00130    MWE  00565                     000000000  N                0000000000000.00 0000000.00   0000000.00                             000000000000000                                                                                                                                                     01424  000000000000-0000000000003.54     01750 00000                  
00004550139600049DT67590675900000014274800102800000010180010276509753065900011913178030620230000001578606523000000000517116601100XXXXXX0498   BA00                  NY 4 07N743055861612736N840000000015786    00    01DNCBD8666317293            00637R    DS84000000015786 N  549977145232070                         000000000+1015104910600   DCCDI11325003469  144241000000 000000000  0          460   0000000000000.00 0000000.00   0000000.00                             000000000000000                                                                                                                                                     01424  000000000000 0000000000003.30     02030 01000                  
00004560139600050DT67590675900000014274800102800000010180010287287283065900011913213030620230000000499906523000000000517116542418XXXXXX1229       ME03KE06PT01      NY 4607AMCWXTRLHL0306  N840000000004999          81DNCBD8666317293            77831P    MC84000000004999 N  549977145232   3381563BE8TA0DBAB102300  000000000+600450S00130    MCW  00642                     000000000  N                0000000000000.00 0000000.00   0000000.00                             000000000000000                                                                                                                                                   U001424  000000000000 0000000000001.20     02200 01000                  
00004570139600051DT67590675900000014274800102800000010180010287287283065900011913221030620230000000319906523000000000517116542418XXXXXX1229       ME03KE06PT01      NY 4607AMCWLWVVSQ0306  N840000000003199          81DNCBD8666317293            33306P    MC84000000003199 N  549977145232   3381563BE8T525F39D1F8A7  000000000+600450S00130    MCW  00642                     000000000  N                0000000000000.00 0000000.00   0000000.00                             000000000000000                                                                                                                                                   U001424  000000000000 0000000000000.80     02200 01000                  
00004580139600052DT67590675900000014274800102800000010180010287287283065900011913239030620230000000149506523000000000517116542418XXXXXX1229       ME03KE06PT01      NY 4607AMCWFVBYHM0306  N840000000001495          81DNCBD8666317293            94271P    MC84000000001495 N  549977145232   3381563BE8TA1EE529F170C  000000000+600450S00130    MCW  00642                     000000000  N                0000000000000.00 0000000.00   0000000.00                             000000000000000                                                                                                                                                   U001424  000000000000 0000000000000.43     02200 01000                  
00004590139600053DT67590675900000014274800102800000010180010287287283065900011913247030620230000001916006523000000000517116534860XXXXXX9210                         NY 4607AMDBLX26SQ0306  N840000000019160          81DNCBD8666317293            142343    MD84000000019160 NP1549977145232                            000000000+600450S00130    MDB  10788                     000000000  1                0000000000000.00 0000000.00   0000000.00                             000000000000000                                                                                                                                                   U001424  000000000000 0000000000000.32     00050 02200                  
00004600139600001P1675906759000000142748001028000000101                                                 000001169000000000000          8000   000000000871584967            000000000000                                                                                                                                                                                                                                                                                                                                                                                                                                                                                                                                    
00004610139600054DT67590675900000014274800102800000010180010224001193065900011913253030620230000001578506523000000000517116414740XXXXXX3630               2111111   NYV4 A7W383065771464824N840000000015785WFV400    01DNCBD8666317293            06404D    VS84000000015785 NP1549977145232   6727D44581TAB2429586897  000000000+                D CD 12109                     000000000  N000000000 498   0000000000000.00 0000000.00   0000000.00                             000000000000000                                                                                                                                                     01424 G000000015785 0000000000004.05     02500 01000                  
00004620139600001P16759067590000001427480010280000001010000000000000000                             2000000000000000000000000              000000000000                    0000000000000000000000000                    000000000000                                                                                                                                                                                                                                                                                                                                                                                                                                                                                        
00004630139600055DT67590675900000014274800102800000010180010224001193065900011913287030620230000000499906523000000000517116476736XXXXXX7424               2111111   NYV4 A7W463065813509210N840000000004999QV5P00    01DNCBD8666317293            506451    VD84000000004999 NP1549977145232   EADBF3E894TE243993ADECE  000000000+                F DF 00415                     000000000  N000000000       0000000000000.00 0000000.00   0000000.00                             000000000000000                                                                                                                                                     01424 G000000004999 0000000000000.97     01650 01500                  
00004640139600001P16759067590000001427480010280000001010000000000000000                             2000000000000000000000000              000000000000                    0000000000000000000000000                    000000000000                                                                                                                                                                                                                                                                                                                                                                                                                                                                                        
00004650139600056DT67590675900000014274800102800000010180010287287283065900011913296030620230000002424106523000000000517116511308XXXXXX5246       ME03KE06MS02      NY 4607AMDJWBVDJY0306  N840000000024241          81DNCBD8666317293            071000    MD84000000024241 N  549977145232   E041E0874DT348B2F831C2F  000000000+600450S00130    MDJ  10813                     000000000  1                0000000000000.00 0000000.00   0000000.00                             000000000000000                                                                                                                                                   U001424  000000000000 0000000000000.34     00050 02200                  
00004660139600057DT67590675900000014274800102800000010180010224001193065900011913311030620230000002136006523000000000517116445312XXXXXX4180       EF10    2111111   NYV4 A7W303065856870996N840000000021360FR2T00    01DNCBD8666317293            84808G    VB84000000021360 NP1549977145232   8F9B7DA569T60708D1BC42C  000000000+                G CG 00476                     000000000  N000000000 170   0000000000000.00 0000000.00   0000000.00                             000000000000000                                                                                                                                                     01424 G000000021360 0000000000004.16     01900 01000                  
00004670139600001P16759067590000001427480010280000001010000000000000000                             1000000001490000000000000              000000000000                    0000000000000000000000000                    000000000000                                                                                                                                                                                                                                                                                                                                                                                                                                                                                        
00004680139600058DT67590675900000014274800102800000010180010287287283065900011913338030620230000002155906523000000000517116542539XXXXXX2760       ME03KE06MS02      NY 4607AMPLLUPDJY0306  N840000000021559          81DNCBD8666317293            006083    MC84000000021559 N  549977145232   30AB8A0D1BTB053A6724EED  000000000+600450S00130    MPL  00013                     000000000  N                0000000000000.00 0000000.00   0000000.00                             000000000000000                                                                                                                                                   U001424  000000000000 0000000000004.30     01950 01000                  
00004690139600059BH6759067590000000370780088880000090170306202306523000000000020571    0000090001520354Y8008886759C03072023                                                                                                                                                                                                                                                                                                                                                                                                                                                                                                                                                                                                 
00004700139600060DT67590675900000003707800888800000010180088824001193065900015203529030620230000000602306523000000000020571439707XXXXXX0088               2111111   NYV4 A7W303065600941590N840000000006023725G00    01DNMR HEMP FLOWER           04024C    VS84000000006023 NP1549976053336   86753                    000000000+                C CC 12108                     000000000  N000000000 496   0000000000000.00 0000000.00   0000000.00                             000000000000000                                                                                                                                                     01424 G000000006023 0000000000001.33     02050 01000                  
00004710139600001P16759067590000000370780088880000001010000000000000000                             2000000000000000000000000              000000000000                    0000000000000000000000000                    000000000000                                                                                                                                                                                                                                                                                                                                                                                                                                                                                        
00004720139600061DT67590675900000003707800888800000010180088824001193065900015203537030620230000000349806523000000000020571445100XXXXXX7316               2111111   NYV4 A7W303065774363778N840000000003498GG6600    01DNMR HEMP FLOWER           018744    VD84000000003498 NP1549976053336   86764                    000000000+                F DF 10420                     000000000  Y000000000 338   0000000000000.00 0000000.00   0000000.00                             000000000000000                                                                                                                                                     01424 G000000003498 0000000000000.24     00050 02200                  
00004730139600001P16759067590000000370780088880000001010000000000000000                             2000000000000000000000000              000000000000                    0000000000000000000000000                    000000000000                                                                                                                                                                                                                                                                                                                                                                                                                                                                                        
00004740139600062DT67590675900000003707800888800000010180088824001193065900015203545030620230000001105006523000000000020571432739XXXXXX6815               2111111   NYV4 A7W463066026649010N840000000011050GDT500    01DNMR HEMP FLOWER           266039    VD84000000011050 NP1549976053336   86772                    000000000+                F DF 10420                     000000000  Y000000000 338   0000000000000.00 0000000.00   0000000.00                             000000000000000                                                                                                                                                     01424 G000000011050 0000000000000.28     00050 02200                  
00004750139600001P16759067590000000370780088880000001010000000000000000                             2000000000000000000000000              000000000000                    0000000000000000000000000                    000000000000                                                                                                                                                                                                                                                                                                                                                                                                                                                                                        
00004760139600063BH6759067590000001516480088880000090170306202306523000000000027523    0000090001060095Y8008886759C03072023                                                                                                                                                                                                                                                                                                                                                                                                                                                                                                                                                                                                 
00004770139600064DT67590675900000015164800888800000010180088887287283065900010600936030620230000001578506523000000000027523524300XXXXXX0375       ME03KE06MS02      NY 4607AMPLGPBTSQ0306  N840000000015785          81DNKETOFUSION477.COM        00657B    MC84000000015785 N  599977360677   98F628FCD1T002CB7342C4E  000000000+600450S00130    MPL  00580                     000000000  N                0000000000000.00 0000000.00   0000000.00                             000000000000000                                                                                                                                                   U001424  000000000000 0000000000003.41     02100 01000                  
00004780139600065DT67590675900000015164800888800000010180088824001193065900010600943030620230000000654806523000000000027523410977XXXXXX8208               2111111   NYV4 A7W303065700710267N84000000000654864V700    01DNKETOFUSION477.COM        008429    VS84000000006548 NP1599977360677   6A4B99B5A3TA648AE18B80B  000000000+                B CB 12107                     000000000  N000000000 494   0000000000000.00 0000000.00   0000000.00                             000000000000000                                                                                                                                                     01424 G000000006548 0000000000001.44     02040 01000                  
00004790139600001P16759067590000001516480088880000001010000000000000000                             2000000000000000000000000              000000000000                    0000000000000000000000000                    000000000000                                                                                                                                                                                                                                                                                                                                                                                                                                                                                        
00004800139600066DT67590675900000015164800888800000010180088887287283065900010600951030620230000000519006523000000000027523553981XXXXXX6871       ME03KE06MS02      NY 4607AMDSJANLJY0306  N840000000005190          81DNKETOFUSION477.COM        169415    MD84000000005190 N  599977360677   89A3AA8DFATF7EDE30788F1  000000000+600450S00130    MDS  00401                     000000000  N                0000000000000.00 0000000.00   0000000.00                             000000000000000                                                                                                                                                   U001424  000000000000 0000000000001.01     01650 01500                  
00004810139600067BH6759067590000001330080010280000090170306202306523000000000578392    0000090001191590Y8001026759C03072023                                                                                                                                                                                                                                                                                                                                                                                                                                                                                                                                                                                                 
00004820139600068DT67590675900000013300800102800000010180010224001193065900011907990030520230000001799106523000000000578392461100XXXXXX0954               2111111   NYV4 A7W463061687047030N840000000017991MNQS00    01DNCBD8666317293            910040    VD84000000017991 NP1549977133133   E9AEBFCA6BTF4626B86ED6A  000000000+                F DF 10420                     000000000  Y000000000 338   0000000000000.00 0000000.00   0000000.00                             000000000000000                                                                                                                                                     01424 G000000017991 0000000000000.31     00050 02200                  
00004830139600001P16759067590000001330080010280000001010000000000000000                             2000000000000000000000000              000000000000                    0000000000000000000000000                    000000000000                                                                                                                                                                                                                                                                                                                                                                                                                                                                                        
00004840139600069DT67590675900000013300800102800000010180010224001193065900011908014030520230000000600406523000000000578392447437XXXXXX5603               2111111   NYV4 A7W463061721071173N8400000000060045VQ700    01DNCBD8666317293            245247    VD84000000006004 NP1549977133133   1E581A2646TDF477446BC1E  000000000+                F DF 10420                     000000000  Y000000000 338   0000000000000.00 0000000.00   0000000.00                             000000000000000                                                                                                                                                     01424 G000000006004 0000000000000.25     00050 02200                  
00004850139600001P16759067590000001330080010280000001010000000000000000                             2000000000000000000000000              000000000000                    0000000000000000000000000                    000000000000                                                                                                                                                                                                                                                                                                                                                                                                                                                                                        
00004860139600070DT67590675900000013300800102800000010180010287287283065900011908395030520230000000637906523000000000578392544646XXXXXX8117       ME03KE06MS02      NY 4607AMDJI2VGI80302  N840000000006379          81DNCBD8666317293            585752    MD84000000006379 N  549977133133   4F72A5E054TB02AA0A449E4  000000000+600450S00130    MDJ  00401                     000000000  N                0000000000000.00 0000000.00   0000000.00                             000000000000000                                                                                                                                                   U001424  000000000000 0000000000001.20     01650 01500                  
00004870139600071DT67590675900000013300800102800000010180010224001193065900011913840030520230000000019906523000000000578392428813XXXXXX1838               2111111   NYV4 A7W303065048033741N840000000000199Q6RS00    01DNCBD8666317293            938029    VB84000000000199 NP1549977133133   0E8C7BD97ET43F1B308556D  000000000+                S CS 00692                     000000000  N000000000 237   0000000000000.00 0000000.00   0000000.00                             000000000000000                                                                                                                                                     01424 G000000000199 0000000000000.15     02700 01000                  
00004880139600001P16759067590000001330080010280000001010000000000000000                             2000000000000000000000000              000000000000                    0000000000000000000000000                    000000000000                                                                                                                                                                                                                                                                                                                                                                                                                                                                                        
00004890139600072DT67590675900000013300800102800000010180010224001193065900011913857030520230000000019906523000000000578392441112XXXXXX4909               2111111   NYV4 A7W383065049270317N840000000000199LMNQ00    01DNCBD8666317293            QDEXY8    VD84000000000199 NP1549977133133   97010131F5T79C9EBB670FB  000000000+                S PS 10179                     000000000  N000000000 364   0000000000000.00 0000000.00   0000000.00                             000000000000000                                                                                                                                                     01424 G000000000199 0000000000000.15     02650 01000                  
00004900139600001P16759067590000001330080010280000001010000000000000000                             2000000000000000000000000              000000000000                    0000000000000000000000000                    000000000000                                                                                                                                                                                                                                                                                                                                                                                                                                                                                        
00004910139600073DT67590675900000013300800102800000010180010287287283065900011913940030520230000001332306523000000000578392539736XXXXXX6490       ME03KE06MS02      NY 4607AMPGP3SM3B0305  N840000000013323          81DNCBD8666317293            187416    MD84000000013323 N  549977133133   EE5B340196TA422186C036E  000000000+600450S00130    MPG  09899                     000000000  N                0000000000000.00 0000000.00   0000000.00                             000000000000000                                                                                                                                                   U001424  000000000000 0000000000002.54     01760 02000                  
00004920139600074DT67590675900000013300800102800000010180010224001193065900011913956030520230000000019906523000000000578392428803XXXXXX4281               2111111   NYV4 A7W463065062430691N840000000000199SBDF00    01DNCBD8666317293            297917    VD84000000000199 NP1549977133133   6F6105678ET20ED719475C8  000000000+                S PS 10179                     000000000  N000000000 364   0000000000000.00 0000000.00   0000000.00                             000000000000000                                                                                                                                                     01424 G000000000199 0000000000000.15     02650 01000                  
00004930139600001P16759067590000001330080010280000001010000000000000000                             2000000000000000000000000              000000000000                    0000000000000000000000000                    000000000000                                                                                                                                                                                                                                                                                                                                                                                                                                                                                        
00004940139600075DT67590675900000013300800102800000010180010224001193065900011913972030520230000000019906523000000000578392408544XXXXXX2487               2111111   NYV4 A7W383065063088177N840000000000199C8KD00    01DNCBD8666317293            054640    VB84000000000199 NP1549977133133   3262C35971T48C4390A33AB  000000000+                K CK 00691                     000000000  N000000000 234   0000000000000.00 0000000.00   0000000.00                             000000000000000                                                                                                                                                     01424 G000000000199 0000000000000.15     02700 01000                  
00004950139600001P16759067590000001330080010280000001010000000000000000                             2000000000000000000000000              000000000000                    0000000000000000000000000                    000000000000                                                                                                                                                                                                                                                                                                                                                                                                                                                                                        
00004960139600076DT67590675900000013300800102800000010180010224001193065900011913980030520230000002421306523000000000578392455417XXXXXX9287               2111111   NYV4 A7W303065063842081N840000000024213MHGC00    01DNCBD8666317293            014624    VD84000000024213 NP1549977133133   42839CA8B4TD891EDB162F2  000000000+                F DF 00415                     000000000  N000000000       0000000000000.00 0000000.00   0000000.00                             000000000000000                                                                                                                                                     01424 G000000024213 0000000000004.15     01650 01500                  
00004970139600001P16759067590000001330080010280000001010000000000000000                             2000000000000000000000000              000000000000                    0000000000000000000000000                    000000000000                                                                                                                                                                                                                                                                                                                                                                                                                                                                                        
00004980139600077DT67590675900000013300800102800000010180010287287283065900011914005030520230000000019906523000000000578392514376XXXXXX3021                         NY 4607AMPWNSS9ZU0305  N840000000000199          81DNCBD8666317293            698456    MD84000000000199 NP1549977133133   EDB7646BABTE2E3758C7184  000000000+600450S00130    MPW  00062                     000000000  N                0000000000000.00 0000000.00   0000000.00                             000000000000000                                                                                                                                                   U001424  000000000000 0000000000000.15     02650 01000                  
00004990139600001P1675906759000000133008001028000000101                                                          000000000000          8000            871584967                                                                                                                                                                                                                                                                                                                                                                                                                                                                                                                                                            
00005000139600078DT67590675900000013300800102800000010180010287287283065900011914013030520230000000019906523000000000578392515177XXXXXX5603                         NY 4607AMPLRU6DHP0305  N840000000000199          81DNCBD8666317293            774963    MC84000000000199 N  549977133133   3256B28CE8T81171882FD44  000000000+600450S00130    MPL  12148                     000000000  N                0000000000000.00 0000000.00   0000000.00                             000000000000000                                                                                                                                                   U001424  000000000000 0000000000000.06     01950 00200                  
00005010139600079DT67590675900000013300800102800000010180010287287283065900011914021030520230000000019906523000000000578392556150XXXXXX5924                         NY 4607AMCFD3CRHL0305  N840000000000199          81DNCBD8666317293            S1TTB3    MB84000000000199 NP1549977133133   CE3C55D6CATE4FCA2146EC6  000000000+600450S00130    MCF  00060                     000000000  N                0000000000000.00 0000000.00   0000000.00                             000000000000000                                                                                                                                                     01424  000000000000 0000000000000.16     02950 01000                  
00005020139600001P1675906759000000133008001028000000101                                                          000000000000          8000            871584967                                                                                                                                                                                                                                                                                                                                                                                                                                                                                                                                                            
00005030139600080DT67590675900000013300800102800000010180010287287283065900011914039030520230000000539906523000000000578392551285XXXXXX9677       ME03KE06MS02      NY 4607AMDSRZ26HP0305  N840000000005399          81DNCBD8666317293            500481    MD84000000005399 N  549977133133   557EEA09BAT2D80949823D2  000000000+600450S00130    MDS  00401                     000000000  N                0000000000000.00 0000000.00   0000000.00                             000000000000000                                                                                                                                                   U001424  000000000000 0000000000001.04     01650 01500                  
00005040139600081DT67590675900000013300800102800000010180010224001193065900011914046030520230000000019906523000000000578392412076XXXXXX4532               2111111   NYV4 A7W383065095481896N840000000000199G95L00    01DNCBD8666317293            480570    VS84000000000199 NP1549977133133   9249773863TA5CC859C38AA  000000000+                A CA 12106                     000000000  N000000000 492   0000000000000.00 0000000.00   0000000.00                             000000000000000                                                                                                                                                     01424 G000000000199 0000000000000.14     01890 01000                  
00005050139600001P16759067590000001330080010280000001010000000000000000                             2000000000000000000000000              000000000000                    0000000000000000000000000                    000000000000                                                                                                                                                                                                                                                                                                                                                                                                                                                                                        
00005060139600082DT67590675900000013300800102800000010180010224001193065900011914061030520230000000019906523000000000578392408544XXXXXX4918               2111111   NYV4 A7W463065103889117N840000000000199LN6400    01DNCBD8666317293            202762    VB84000000000199 NP1549977133133   027350F72DT5C928E50D7A0  000000000+                K CK 00691                     000000000  N000000000 234   0000000000000.00 0000000.00   0000000.00                             000000000000000                                                                                                                                                     01424 G000000000199 0000000000000.15     02700 01000                  
00005070139600001P16759067590000001330080010280000001010000000000000000                             2000000000000000000000000              000000000000                    0000000000000000000000000                    000000000000                                                                                                                                                                                                                                                                                                                                                                                                                                                                                        
00005080139600083DT67590675900000013300800102800000010180010224001193065900011914087030520230000000019906523000000000578392489683XXXXXX3642               2111111   NYV4 A7W583065107446535N840000000000199JV8K00    01DNCBD8666317293            X4482U    VD84000000000199 NP1549977133133   9664488C37TBEF68DE2484B  000000000+                S PS 10179                     000000000  N000000000 364   0000000000000.00 0000000.00   0000000.00                             000000000000000                                                                                                                                                     01424 G000000000199 0000000000000.15     02650 01000                  
00005090139600001P16759067590000001330080010280000001010000000000000000                             2000000000000000000000000              000000000000                    0000000000000000000000000                    000000000000                                                                                                                                                                                                                                                                                                                                                                                                                                                                                        
00005100139600084DT67590675900000013300800102800000010180010224001193065900011914095030520230000002691606523000000000578392423980XXXXXX1388               2111111   NYV4 A7W463065107898741N840000000026916287J00    01DNCBD8666317293            005499    VS84000000026916 NP1549977133133   05414ABDC5T5ED5716647B8  000000000+                A CA 12106                     000000000  N000000000 492   0000000000000.00 0000000.00   0000000.00                             000000000000000                                                                                                                                                     01424 G000000026916 0000000000005.19     01890 01000                  
00005110139600001P16759067590000001330080010280000001010000000000000000                             2000000000000000000000000              000000000000                    0000000000000000000000000                    000000000000                                                                                                                                                                                                                                                                                                                                                                                                                                                                                        
00005120139600085DT67590675900000013300800102800000010180010224001193065900011914103030520230000000019906523000000000578392433451XXXXXX9627               2111111   NYV4 A7W463065115870553N840000000000199TCBK00    01DNCBD8666317293            TQFRE5    VD84000000000199 NP1549977133133   EF74AD2ED6TFB4E1C5390BA  000000000+                S PS 10179                     000000000  N000000000 364   0000000000000.00 0000000.00   0000000.00                             000000000000000                                                                                                                                                     01424 G000000000199 0000000000000.15     02650 01000                  
00005130139600001P16759067590000001330080010280000001010000000000000000                             2000000000000000000000000              000000000000                    0000000000000000000000000                    000000000000                                                                                                                                                                                                                                                                                                                                                                                                                                                                                        
00005140139600086DT67590675900000013300800102800000010180010224001193065900011914111030520230000000019906523000000000578392433451XXXXXX6557               2111111   NYV4 A7W303065123062773N840000000000199M3LF00    01DNCBD8666317293            KQPGSX    VD84000000000199 NP1549977133133   A434786C82T7A6E4401289C  000000000+                S PS 10179                     000000000  N000000000 364   0000000000000.00 0000000.00   0000000.00                             000000000000000                                                                                                                                                     01424 G000000000199 0000000000000.15     02650 01000                  
00005150139600001P16759067590000001330080010280000001010000000000000000                             2000000000000000000000000              000000000000                    0000000000000000000000000                    000000000000                                                                                                                                                                                                                                                                                                                                                                                                                                                                                        
00005160139600087DT67590675900000013300800102800000010180010224001193065900011914129030520230000000019906523000000000578392428813XXXXXX1209               2111111   NYV4 A7W583065128464081N840000000000199NDGZ00    01DNCBD8666317293            086200    VB84000000000199 NP1549977133133   B9D3C7DEB2TD43EF02A4FC0  000000000+                S CS 00692                     000000000  N000000000 237   0000000000000.00 0000000.00   0000000.00                             000000000000000                                                                                                                                                     01424 G000000000199 0000000000000.15     02700 01000                  
00005170139600001P16759067590000001330080010280000001010000000000000000                             2000000000000000000000000              000000000000                    0000000000000000000000000                    000000000000                                                                                                                                                                                                                                                                                                                                                                                                                                                                                        
00005180139600088DT67590675900000013300800102800000010180010224001193065900011914137030520230000001987006523000000000578392434258XXXXXX3480               2111111   NYV4 A7W583065146330912N84000000001987039BQ00    01DNCBD8666317293            015346    VD84000000019870 NP1549977133133   EAFCD9E554TAC1B0C90D93D  000000000+                F DF 10420                     000000000  Y000000000 338   0000000000000.00 0000000.00   0000000.00                             000000000000000                                                                                                                                                     01424 G000000019870 0000000000000.32     00050 02200                  
00005190139600001P16759067590000001330080010280000001010000000000000000                             2000000000000000000000000              000000000000                    0000000000000000000000000                    000000000000                                                                                                                                                                                                                                                                                                                                                                                                                                                                                        
00005200139600089DT67590675900000013300800102800000010180010224001193065900011914145030520230000000019906523000000000578392408544XXXXXX4842               2111111   NYV4 A7W463065191463441N8400000000001999R6F00    01DNCBD8666317293            121750    VB84000000000199 NP1549977133133   3A540FF21CTDE5A140EE3CB  000000000+                K CK 00691                     000000000  N000000000 234   0000000000000.00 0000000.00   0000000.00                             000000000000000                                                                                                                                                     01424 G000000000199 0000000000000.15     02700 01000                  
00005210139600001P16759067590000001330080010280000001010000000000000000                             2000000000000000000000000              000000000000                    0000000000000000000000000                    000000000000                                                                                                                                                                                                                                                                                                                                                                                                                                                                                        
00005220139600090DT67590675900000013300800102800000010180010287287283065900011914153030520230000000019906523000000000578392531993XXXXXX8794                         NY 4607AMCPCDDO2V0305  N840000000000199          81DNCBD8666317293            14QCJ7    MB84000000000199 NP1549977133133   DB28DCC7BFT3486E156F4C1  000000000+600450S00130    MCP  00303                     000000000  N                0000000000000.00 0000000.00   0000000.00                             000000000000000                                                                                                                                                   U001424  000000000000 0000000000000.15     02700 01000                  
00005230139600001P1675906759000000133008001028000000101                                                          000000000000          8000            871584967                                                                                                                                                                                                                                                                                                                                                                                                                                                                                                                                                            
