06650340102253874AD675906759000000198288001098000009077900011512440000000596007042023NYY18523YC6759800109070620232023185023203                                                                                                                                                                                                                                                                                                                                                                                                                                                                                                                                                                                              
06650350102253877AD675906759000000142748001028000009071900013073050000002126107042023NYY18523ND6759800102070620232023185023202                                                                                                                                                                                                                                                                                                                                                                                                                                                                                                                                                                                              
06650360102253880AD675906759000000161968001028000009071900017754370000002106207042023NYY18523ND6759800102070620232023185023312                                                                                                                                                                                                                                                                                                                                                                                                                                                                                                                                                                                              
06650370102253883AD675906759000000268498001258000009071900012875790000002477007042023NYY18523ND6759800125070620232023185023313                                                                                                                                                                                                                                                                                                                                                                                                                                                                                                                                                                                              
06650380102253886AD675906759000000176738001068000009071900012810860000001742607042023NYY18523ND6759800106070620232023185040185                                                                                                                                                                                                                                                                                                                                                                                                                                                                                                                                                                                              
06650390102253889AD675906759000000268498001258000009071900013916390000001280307042023NYY18523ND6759800125070620232023185048820                                                                                                                                                                                                                                                                                                                                                                                                                                                                                                                                                                                              
06650400102253892AD675906759000000142748001028000009071900010335280000001089807042023NYY18523ND6759800102070620232023185051004                                                                                                                                                                                                                                                                                                                                                                                                                                                                                                                                                                                              
06650410102253895AD675906759000000142748001028000009071900010335270000002165807042023NYY18523ND6759800102070620232023185051005                                                                                                                                                                                                                                                                                                                                                                                                                                                                                                                                                                                              
06650420103906464BH6759067590000001982880010980000090170705202318623000000000082659    0000090001990749N8001096759D07062023099                                                                                                                                                                                                                                                                                                                                                                                                                                                                                                                                                                                              
06650430103906465DT67590675900000019828800109800000010680010987287283186900019907443070320230000002487018623000000000082659526219XXXXXX7879                         YY 4607AMDSIVH8FM0703  N840000000024870          81CNKETOFUSION 8885968154    832655    MD84000000024870 NDR599977547467   3C089D2677T0681636C3EAC  000000000+600450S00130    MDS  10828                     000000000  1                0000000000000.00 0000000.00   0000000.00                             000000000000000                                                                                                                                                     015WPE 000000000000 0000000000000.00     00000 00000                  
06650440103906465DR6759067590000001982880010980000001063C089D2677T0681636C3EAC  Y000000000000                                                                                                                                                                                                                                                                                                                                                                                                                                                                                                                                                                                                                               
06650450103900001G26759067590000001982880010980000001068885968154               UT           9 S               210                                      NNNN           210000000000000000000000000                        7                                          77547467                                                                                                                                                                                                                                                                                                                                                                                                                                               
06650460103906466DT67590675900000019828800109800000010680010987287283186900019907450070320230000001194818623000000000082659524300XXXXXX2286                         YY 4607AMPLSUQTEW0703  N840000000011948          81CNKETOFUSION 8885968154    003352    MC84000000011948 NDR599977547467   21A971F0C0T90023E783E62  000000000+600450S00130    MPL  00564                     000000000  N                0000000000000.00 0000000.00   0000000.00                             000000000000000                                                                                                                                                     015WPE 000000000000-0000000000002.09     01750 00000                  
06650470103906466DR67590675900000019828800109800000010621A971F0C0T90023E783E62  R000000000000                                                                                                                                                                                                                                                                                                                                                                                                                                                                                                                                                                                                                               
06650480103900001G26759067590000001982880010980000001068885968154               UT           9 L               210                                      NNNN           210000000000000000000000000                        7                                          77547467                                                                                                                                                                                                                                                                                                                                                                                                                                               
06650490103906467DT67590675900000019828800109800000010680010987287283186900019907526070320230000002487018623000000000082659546497XXXXXX6279                         YY94607N         0703  N840000000000000          81CNKETOFUSION 8885968154              MC84000000024870FN  599977547467   94B21D69F6TD9EB10FF5C9E  000000000+600450S00130    MCT  12242                     000000000  N                0000000000000.00 0000000.00   0000000.00                             000000000000000                                                                                                                                                     015WPE 000000000000-0000000000002.49     01000 00000                  
06650500103900001G26759067590000001982880010980000001068885968154               UT           9 T               210                                      NNNN           210000000000000000000000000                                                                   77547467                                                                                                                                                                                                                                                                                                                                                                                                                                               
06650510103906468DT67590675900000019828800109800000010680010987287283186900019907476070320230000000654818623000000000082659518941XXXXXX1644                         YY 4607AMWEU7JGEV0703  N840000000006548          81CNKETOFUSION 8885968154    507508    MC84000000006548 NDR599977547467   4B768C0B0BTE58DEAA346E9  000000000+600450S00130    MWE  00564                     000000000  N                0000000000000.00 0000000.00   0000000.00                             000000000000000                                                                                                                                                     015WPE 000000000000-0000000000001.15     01750 00000                  
06650520103906468DR6759067590000001982880010980000001064B768C0B0BTE58DEAA346E9  U000000000000                                                                                                                                                                                                                                                                                                                                                                                                                                                                                                                                                                                                                               
06650530103900001G26759067590000001982880010980000001068885968154               UT           9 E               210                                      NNNN           210000000000000000000000000                        7                                          77547467                                                                                                                                                                                                                                                                                                                                                                                                                                               
06650540103906469DT67590675900000019828800109800000010680010987287283186900019907484070320230000000198818623000000000082659518941XXXXXX1644                         YY 4607AMWEB40MFM0703  N840000000001988          81CNKETOFUSION 8885968154    178739    MC84000000001988 NDR599977547467   4B768C0B0BTC38A2E23E0D0  000000000+600450S00130    MWE  00564                     000000000  N                0000000000000.00 0000000.00   0000000.00                             000000000000000                                                                                                                                                     015WPE 000000000000-0000000000000.35     01750 00000                  
06650550103906469DR6759067590000001982880010980000001064B768C0B0BTC38A2E23E0D0  U000000000000                                                                                                                                                                                                                                                                                                                                                                                                                                                                                                                                                                                                                               
06650560103900001G26759067590000001982880010980000001068885968154               UT           9 E               210                                      NNNN           210000000000000000000000000                        7                                          77547467                                                                                                                                                                                                                                                                                                                                                                                                                                               
06650570103906470DT67590675900000019828800109800000010680010974001193186900019907496070320230000001243518623000000000082659427514XXXXXX2423               0000000   YYV4 07T383184600748852N840000000012435JTJL00    01CNKETOFUSION 8885968154    254932    VD84000000012435 NDR599977547467   2A9FFB668FT9622296E8730  000000000+                F DF 08168                     000000000  Y000000000 369   0000000000000.00 0000000.00   0000000.00                             000000000000000                                                                                                                                                     015WPE 000000012435 0000000000000.00     00000 00000                  
06650580103906470DR6759067590000001982880010980000001062A9FFB668FT9622296E8730  U000000012435                 P1                                                                                                                                                                                                                                                                                                                                                                                                                                                                                                                                                                                                            
06650590103900001P16759067590000001982880010980000001060000000000000000                             2000000000000000000000000              000000000000                    0000000000000000000000000                    000000000000                                                                                                                                                                                                                                                                                                                                                                                                                                                                                        
06650600103900002G2675906759000000198288001098000000106888-5968154              UT           9 D                00                                      NNNN   N                      000000000000                                                                   77547467                                                                                                                                                                                                                                                                                                                                                                                                                                               
06650610103906473BH6759067590000001982880010980000090170705202318623000000000044740    0000090001000758N8001096759D07062023100                                                                                                                                                                                                                                                                                                                                                                                                                                                                                                                                                                                              
06650620103906474DT67590675900000019828800109800000010680010974001193186900010007569070420230000002487018623000000000044740431503XXXXXX8080               0000000   YYV4 07T383185517063348N840000000024870RKJP00    01CNKETOFUSION 8885968154    04412A    VS84000000024870 NDR599977547467   C1E5A74B5ET79B1C3F301CA  000000000+                A CA 00245                     000000000  N000000000 166   0000000000000.00 0000000.00   0000000.00                             000000000000000                                                                                                                                                     015WPE 000000024870-0000000000004.38     01760 00000                  
06650630103906474DR675906759000000198288001098000000106C1E5A74B5ET79B1C3F301CA  Y000000024870                 P1                                                                                                                                                                                                                                                                                                                                                                                                                                                                                                                                                                                                            
06650640103900001P16759067590000001982880010980000001060000000000000000                             2000000000000000000000000              000000000000                    0000000000000000000000000                    000000000000                                                                                                                                                                                                                                                                                                                                                                                                                                                                                        
06650650103900002G2675906759000000198288001098000000106888-5968154              UT           9 C                00                                      NNNN   Y                      000000000000                                                                   77547467                                                                                                                                                                                                                                                                                                                                                                                                                                               
06650660103906475DT67590675900000019828800109800000010680010987287283186900010007581070420230000001987018623000000000044740512106XXXXXX8570                         YY 4607AMPLPSKR7V0704  N840000000019870          81CNKETOFUSION 8885968154    004377    MC84000000019870 NDR599977547467   2B58B06736T895EF988D738  000000000+600450S00130    MPL  00564                     000000000  N                0000000000000.00 0000000.00   0000000.00                             000000000000000                                                                                                                                                     015WPE 000000000000-0000000000003.48     01750 00000                  
06650670103906475DR6759067590000001982880010980000001062B58B06736T895EF988D738  R000000000000                                                                                                                                                                                                                                                                                                                                                                                                                                                                                                                                                                                                                               
06650680103900001G26759067590000001982880010980000001068885968154               UT           9 L               210                                      NNNN           210000000000000000000000000                        7                                          77547467                                                                                                                                                                                                                                                                                                                                                                                                                                               
06650690104720002BH6759067590000000215480088880000090170705202318623000000000413919    0000090001231941N8008886759C07062023823                                                                                                                                                                                                                                                                                                                                                                                                                                                                                                                                                                                              
06650700104720003DT67590675900000002154800888800000010180088887287283186900012369153070520230000024601918623000000000413919521876XXXXXX4128       ME03KE06MS02      NY 4607AMWEUPL5G70705  N840000000246019          81DNDRIP DROP DISTRO LLC     67210Z    MC84000000246019 NDR519900000001   INV-002953               000000000+600450S00140    MWE  00737                     000000000  N                0000000000000.00 0000000.00   0000000.00                             000000000000000                                                                                                                                                   U001418  000000000000 0000000000064.06     02600 01000                  
06650710104720003DR675906759000000021548008888000000101INV-002953               Y000000000000                                                                                                                                                                                                                                                                                                                                                                                                                                                                                                                                                                                                                               
06650720104720001G2675906759000000021548008888000000101208-7033453              ID           9 E               210                                      NNNN           210000000000000000000000000                        7                                          71004114                                                                                                                                                                                                                                                                                                                                                                                                                                               
06650730104720004DT67590675900000002154800888800000010180088887287283186900012332342070520230000001440018623000000000413919547415XXXXXX7571                         NY 4607AMEBX1SQGG0705  N840000000014400          81DNDRIP DROP DISTRO LLC     09264Q    MB84000000014400 NDR519900000001   18000                    000000000+600450S00140    MEB  11637                     000000000  N                0000000000000.00 0000000.00   0000000.00                             000000000000000                                                                                                                                                   U001418  000000000000 0000000000004.42     03000 01000                  
06650740104720004DR67590675900000002154800888800000010118000                    Z000000000000                 P1                                                                                                                                                                                                                                                                                                                                                                                                                                                                                                                                                                                                            
06650750104720001P1675906759000000021548008888000000101                                                          000000000000          8000            471534935                                                                                                                                                                                                                                                                                                                                                                                                                                                                                                                                                            
06650760104720002G2675906759000000021548008888000000101208-7033453              ID           9 B               210                  471534935           YNNN           210000000000000000000000000                        7                                          71004114                                                                                                                                                                                                                                                                                                                                                                                                                                               
06650770104720005DT67590675900000002154800888800000010180088824001193186900012377957070520230000006250018623000000000413919415417XXXXXX0722               2111111   NYV4 A7W463186709597738N840000000062500ZW6P00    01DNDRIP DROP DISTRO LLC     07199G    VB84000000062500 NDR519971004114   18001                    000000000+                G4CG411355                     000000000  N000000000 377   0000000000000.00 0000000.00   0000000.00                             000000000000000                                                                                                                                                     01418 G000000062500 0000000000018.54     02950 01000                  
06650780104720005DR67590675900000002154800888800000010118001                    Y000000062500                 P1                                                                                                                                                                                                                                                                                                                                                                                                                                                                                                                                                                                                            
06650790104720001P16759067590000000215480088880000001010000000000000000    44183461973              2000000000000000000000000              000000000000                    0000000000000000000000000                    000000000000                                                                                                                                                                                                                                                                                                                                                                                                                                                                                        
06650800104720002G2675906759000000021548008888000000101800-9833326              ID           9 C                00                                      NNNN   Y                      000000000000                                                                   71004114                                                                                                                                                                                                                                                                                                                                                                                                                                               
06650810104720006DT67590675900000002154800888800000010180088824001193186900012398037070520230000001000018623000000000413919410040XXXXXX9203               2111111   NYV4 A7W303186751122374N840000000010000T89D00    01DNDRIP DROP DISTRO LLC     42935G    VB84000000010000 NDR519971004114   INV-002943               000000000+                G5CG511887                     000000000  N000000000 163   0000000000000.00 0000000.00   0000000.00                             000000000000000                                                                                                                                                     01418 G000000010000 0000000000003.10     03000 01000                  
06650820104720006DR675906759000000021548008888000000101INV-002943               Y000000010000                 P1                                                                                                                                                                                                                                                                                                                                                                                                                                                                                                                                                                                                            
06650830104720001P16759067590000000215480088880000001010000000000000000    44183593277              2000000000000000000000000              000000000000                    0000000000000000000000000                    000000000000                                                                                                                                                                                                                                                                                                                                                                                                                                                                                        
06650840104720002G2675906759000000021548008888000000101800-9833326              ID           9 C                00                                      NNNN   Y                      000000000000                                                                   71004114                                                                                                                                                                                                                                                                                                                                                                                                                                               
06650850104720007DT67590675900000002154800888800000010180088824001193186900012319413070520230000008100018623000000000413919481588XXXXXX1246               2111111   NYV4 A7W463186153664296N840000000081000MCCD00    01DNDRIP DROP DISTRO LLC     111665    VD84000000081000 NDR519971004114   17998                    000000000+                G DG 10352                     000000000  Y000000000 338   0000000000000.00 0000000.00   0000000.00                             000000000000000                                                                                                                                                     01418 G000000081000 0000000000000.63     00050 02200                  
06650860104720007DR67590675900000002154800888800000010117998                    Y000000081000                 P1                                                                                                                                                                                                                                                                                                                                                                                                                                                                                                                                                                                                            
06650870104720001P16759067590000000215480088880000001010000000000000000    44182364077              2000000000000000000000000              000000000000                    0000000000000000000000000                    000000000000                                                                                                                                                                                                                                                                                                                                                                                                                                                                                        
06650880104720002G2675906759000000021548008888000000101800-9833326              ID           9 D                00                                      NNNN   N                      000000000000                                                                   71004114                                                                                                                                                                                                                                                                                                                                                                                                                                               
06650890104720008BH6759067590000000288180088880000090170705202318623000000000068258    0000090001650012N8008886759C07062023165                                                                                                                                                                                                                                                                                                                                                                                                                                                                                                                                                                                              
06650900104720009DT67590675900000002881800888800000010180088824001193186900016500018070520230000001392118623000000000068258445101XXXXXX1781       VS11    0001111   NYV1 A E463186562090421N840000000013921CBQZ00    05DNHAPPY HIPPIE             402036    VD84000000013921 N  549976487158                            000000000+                F DF 10433                     000000000  Y000000000 338   0000000000000.00 0000000.00   0000000.00                             000000000000000                                                                                                                                                     01418 A000000000000 0000000000000.29     00050 02200                  
06650910104720001E167590675900000002881800888800000010100E0F8C805DF 00000000000.004040404040404040404040404040404040404040404040404006010A03A0A000000000000000000000404040404040404040404040404040  0002084018008080008000230705DCAD8F6C958742E1042F2BCB404040400840A000000003101000000000000000000087BE84907A67252D30300000000000004040401E40404040 000000139.21 000000000.001E00000000000000000000    80                                                                                                                                                                                                                                                                                                                  
06650920104720002G2675906759000000028818008888000000101SEVIERVILLE              TN           5 D                00                                      NNNN00 N 00                   000000000000                                                                   76487158                                                                                                                                                                                                                                                                                                                                                                                                                                               
06650930104720010DT67590675900000002881800888800000010180088824001193186900016500026070520230000000427818623000000000068258474665XXXXXX5163       VS11    0001111   NYV1 A E583186577569785N840000000004278DZ7B00    05DNHAPPY HIPPIE             752401    VD84000000004278 N  549976487158                            000000000+                F DF 10433                     000000000  Y000000000 338   0000000000000.00 0000000.00   0000000.00                             000000000000000                                                                                                                                                     01418 A000000000000 0000000000000.24     00050 02200                  
06650940104720001E167590675900000002881800888800000010100E0F8C800E8 00000000000.004040404040404040404040404040404040404040404040404006011203A02000000000000000000000404040404040404040404040404040  000008401800808000800023070502B26D224D09F422F0C28D17404040400840A0000000031010000000000000000000404040404040404040404040404040404040401E40404040 000000042.78 000000000.001E00000000000000000000    80                                                                                                                                                                                                                                                                                                                  
06650950104720002G2675906759000000028818008888000000101SEVIERVILLE              TN           5 D                00                                      NNNN00 N 00                   000000000000                                                                   76487158                                                                                                                                                                                                                                                                                                                                                                                                                                               
06650960104720011DT67590675900000002881800888800000010180088824001193186900016500034070520230000000895718623000000000068258473702XXXXXX8028       VS11    0001111   NYV1 A E303186677818509N8400000000089575NCB00    07DNHAPPY HIPPIE             098288    VD84000000008957 N  549976487158                            000000000+                F DF 10433                     000000000  Y000000000 338   0000000000000.00 0000000.00   0000000.00                             000000000000000                                                                                                                                                     01418 A000000000000 0000000000000.26     00050 02200                  
06650970104720001E167590675900000002881800888800000010100E068C80201 00000000000.004040404040404040404040404040404040404040404040404006061203A00000000000000000000000404040404040404040404040404040  0000084000000000000000230705C72E5C8AA8BFF6D8C179F54A404040400840A0000000031010000000000000000000D02060A03010A00020200000000000004040404040404040 000000089.57 000000000.004040400000000000000000    80                                                                                                                                                                                                                                                                                                                  
06650980104720002G2675906759000000028818008888000000101SEVIERVILLE              TN           5 D                00                                      NNNN00 N 00                   000000000000                                                                   76487158                                                                                                                                                                                                                                                                                                                                                                                                                                               
06650990104720012DT67590675900000002881800888800000010180088824001193186900016500042070520230000000570218623000000000068258427082XXXXXX9433       VS11    0001111   NYV1 A E303186691144242N840000000005702626V00    07DNHAPPY HIPPIE             005541    VS84000000005702 N  549976487158                            000000000+                A CA 12110                     000000000  N000000000 493   0000000000000.00 0000000.00   0000000.00                             000000000000000                                                                                                                                                     01418 A000000000000 0000000000000.96     01510 01000                  
06651000104720001E167590675900000002881800888800000010100E068C801F6 00000000000.004040404040404040404040404040404040404040404040404006011203A00000000000000000000000404040404040404040404040404040  00010840000000000000002307054D0005B2F8436920E1C09D2B404040400840A0000000031010000000000000000000404040404040404040404040404040404040404040404040 000000057.02 000000000.004040400000000000000000    80                                                                                                                                                                                                                                                                                                                  
06651010104720002G2675906759000000028818008888000000101SEVIERVILLE              TN           5 C                00                                      NNNN00 Y 00                   000000000000                                                                   76487158                                                                                                                                                                                                                                                                                                                                                                                                                                               
06651020104720013DT67590675900000002881800888800000010180088824001193186900016500059070520230000000241218623000000000068258438854XXXXXX8343       VS11    0001111   NYV1 A E583186692440352N840000000002412KMZ400    07DNHAPPY HIPPIE             02127D    VS84000000002412 N  549976487158                            000000000+                D CD 12113                     000000000  N000000000 499   0000000000000.00 0000000.00   0000000.00                             000000000000000                                                                                                                                                     01418 A000000000000 0000000000000.61     02100 01000                  
06651030104720001E167590675900000002881800888800000010100E068C800A0 00000000000.004040404040404040404040404040404040404040404040404006021203A00000000000000000000000404040404040404040404040404040  0001084020000000000000230705225555E279C026360DB22FB2404040400840A0000000031010000000000000000000F4819B7F0082000000000000000000004040404040404040 000000024.12 000000000.004040400000000000000000    80                                                                                                                                                                                                                                                                                                                  
06651040104720002G2675906759000000028818008888000000101SEVIERVILLE              TN           5 C                00                                      NNNN00 Y 00                   000000000000                                                                   76487158                                                                                                                                                                                                                                                                                                                                                                                                                                               
06651050104720014DT67590675900000002881800888800000010180088877287283186900016500069070520230000000887518623000000000068258517805XXXXXX7109       MS02WI09          NY 1 0 AMPLPBIBYQ0705  N840000000008875          07DNHAPPY HIPPIE             02578B    MC84000000008875 N  549976487158                            000000000+M10101M5434C    MPL  00364                     000000000  N                0000000000000.00 0000000.00   0000000.00                             000000000000000                                                                                                                                                   B101418  000000000000 0000000000001.64     01800 00400                  
06651060104720001E1675906759000000028818008888000000101000060C80002 00000000000.00404040404040404040404040404040404040404040404040400110A04001220800000000000000000000FF00000000000000000000000000  00020840198000000080012307055FD0F612EB08008F0B405C39404040400840A0000000041010000000000000000000404040404040404040404040404040404040401E40404040 000000088.75 000000000.001E03000000000000000000    80                                                                                                                                                                                                                                                                                                                  
06651070104720002G2675906759000000028818008888000000101SEVIERVILLE              TN           5 L                                                        NNNN              000000000000000000000000       03               7                                          76487158                                                                                                                                                                                                                                                                                                                                                                                                                                               
06651080104720015DT67590675900000002881800888800000010180088824001193186900016500075070520230000000694418623000000000068258414720XXXXXX8238       VS11    0001111   NYV1 A E303186710668424N840000000006944NXDJ00    07DNHAPPY HIPPIE             02808D    VS84000000006944 N  549976487158                            000000000+                D CD 12113                     000000000  N000000000 499   0000000000000.00 0000000.00   0000000.00                             000000000000000                                                                                                                                                     01418 A000000000000 0000000000001.56     02100 01000                  
06651090104720001E167590675900000002881800888800000010100E068C800B2 00000000000.004040404040404040404040404040404040404040404040404006021203A00000000000000000000000404040404040404040404040404040  000108402000000000000023070546DE38F8B6FA6B63A449D43D404040400840A0000000031010000000000000000000F949B0810082000000000000000000004040404040404040 000000069.44 000000000.004040400000000000000000    80                                                                                                                                                                                                                                                                                                                  
06651100104720002G2675906759000000028818008888000000101SEVIERVILLE              TN           5 C                00                                      NNNN00 Y 00                   000000000000                                                                   76487158                                                                                                                                                                                                                                                                                                                                                                                                                                               
06651110104720016DT67590675900000002881800888800000010180088824001193186900016500083070520230000000059218623000000000068258480639XXXXXX6016       VK04VS111111111   NYV1 A E383186711745511N84000000000059259GM00    05DNHAPPY HIPPIE             589416    VD84000000000592 N  549976487158                            000000000+                F DF 00451                     000000000  N000000000 214   0000000000000.00 0000000.00   0000000.00                             000000000000000                                                                                                                                                     01418 F000000000000 0000000000000.13     01550 00400                  
06651120104720001E167590675900000002881800888800000010100E0F8C80100 00000000000.004040404040404040404040404040404040404040404040404006011203A0A000000000000000000000404040404040404040404040404040  00000840180080800080002307059F17AEB5BCCA65C731174129404040400840A00000000310100000000000000000001A08ECA60080000000000000000000004040401E40404040 000000005.92 000000000.001E00000000000000000000    80                                                                                                                                                                                                                                                                                                                  
06651130104720002G2675906759000000028818008888000000101SEVIERVILLE              TN           5 D                00                                      NNNN00 N 00                   000000000000                                                                   76487158                                                                                                                                                                                                                                                                                                                                                                                                                                               
06651140104720017DT67590675900000002881800888800000010180088824001193186900016500091070520230000000246818623000000000068258422921XXXXXX3724       VS11    0001111   NYV1 A E383186713791960N840000000002468RWT300    05DNHAPPY HIPPIE             056980    VD84000000002468 N  549976487158                            000000000+                F DF 00381                     000000000  N000000000       0000000000000.00 0000000.00   0000000.00                             000000000000000                                                                                                                                                     01418 A000000000000 0000000000000.35     00800 01500                  
06651150104720001E167590675900000002881800888800000010100E0F8C8016D 00000000000.004040404040404040404040404040404040404040404040404006011203A08000000000000000000000404040404040404040404040404040  00000840180080800080002307054F7519A5409E6C5D3CB8FAE5404040400840A00000000310100000000000000000006DBAE2A90382000000000000000000004040401E40404040 000000024.68 000000000.001E00000000000000000000    80                                                                                                                                                                                                                                                                                                                  
06651160104720002G2675906759000000028818008888000000101SEVIERVILLE              TN           5 D                00                                      NNNN00 N 00                   000000000000                                                                   76487158                                                                                                                                                                                                                                                                                                                                                                                                                                               
06651170104720018DT67590675900000002881800888800000010180088824001193186900016500109070520230000000763118623000000000068258476546XXXXXX0713       VS11    0001111   NYV1 A E583186767931792N840000000007631D94N00    07DNHAPPY HIPPIE             712999    VD84000000007631 N  549976487158                            000000000+                F DF 00381                     000000000  N000000000       0000000000000.00 0000000.00   0000000.00                             000000000000000                                                                                                                                                     01418 A000000000000 0000000000000.76     00800 01500                  
06651180104720001E167590675900000002881800888800000010100E068C80034 00000000000.004040404040404040404040404040404040404040404040404006011203A00000000000000000000000404040404040404040404040404040  0000084020000000000000230705DDB34B5472122482FEA06270404040400840A0000000031010000000000000000000404040404040404040404040404040404040404040404040 000000076.31 000000000.004040400000000000000000    80                                                                                                                                                                                                                                                                                                                  
06651190104720002G2675906759000000028818008888000000101SEVIERVILLE              TN           5 D                00                                      NNNN00 N 00                   000000000000                                                                   76487158                                                                                                                                                                                                                                                                                                                                                                                                                                               
06651200104720019DT67590675900000002881800888800000010180088877287283186900016500119070520230000000417518623000000000068258511953XXXXXX4896       MS02WI09          NY 1 0 AMDJZVH2ZD0705  N840000000004175          07DNHAPPY HIPPIE             008011    MD84000000004175 N  549976487158                            000000000+M10101M0034C    MDJ  00402                     000000000  N                0000000000000.00 0000000.00   0000000.00                             000000000000000                                                                                                                                                   B101418  000000000000 0000000000000.59     01050 01500                  
06651210104720001E1675906759000000028818008888000000101000008480024 00000000000.00404040404040404040404040404040404040404040404040400110A04001220000000000000000000000FF00000000000000000000000000  00010840198000000080012307051FCF7284C303D041A5E5580D404040400840A0000000041010000000000000000000404040404040404040404040404040404040401F40404040 000000041.75 000000000.001F03020000000000000000    80                                                                                                                                                                                                                                                                                                                  
06651220104720002G2675906759000000028818008888000000101SEVIERVILLE              TN           5 J                                                        NNNN              000000000000000000000000       03               7                                          76487158                                                                                                                                                                                                                                                                                                                                                                                                                                               
06651230104720020DT67590675900000002881800888800000010180088824001193186900016500125070520230000000230318623000000000068258414740XXXXXX7771       VS11    0001111   NYV1 A E463186795097898N840000000002303WVFP00    07DNHAPPY HIPPIE             05296C    VS84000000002303 N  549976487158                            000000000+                C CC 12112                     000000000  N000000000 497   0000000000000.00 0000000.00   0000000.00                             000000000000000                                                                                                                                                     01418 A000000000000 0000000000000.48     01650 01000                  
06651240104720001E167590675900000002881800888800000010100E068C801B4 00000000000.004040404040404040404040404040404040404040404040404006021203A00000000000000000000000404040404040404040404040404040  00030840200000000000002307053168E928FBA02626E5F93DBF404040400840A00000000310100000000000000000005E49F5A80082000000000000000000004040404040404040 000000023.03 000000000.004040400000000000000000    80                                                                                                                                                                                                                                                                                                                  
06651250104720002G2675906759000000028818008888000000101SEVIERVILLE              TN           5 C                00                                      NNNN00 Y 00                   000000000000                                                                   76487158                                                                                                                                                                                                                                                                                                                                                                                                                                               
06651260104720021BH6759067590000000288180088880000090170705202318623000000000090527    0000090001540012N8008886759C07062023154                                                                                                                                                                                                                                                                                                                                                                                                                                                                                                                                                                                              
06651270104720022DT67590675900000002881800888800000010180088824001193186900015400012070520230000000416618623000000000090527480639XXXXXX7211               1001111   NYV1 A K583186586766645N840000000004166D6BK00    01DNHAPPY HIPPIE             583177    VD84000000004166 NDR549976487134                            000000000+                F DF 00412                     000000000  N000000000       0000000000000.00 0000000.00   0000000.00                             000000000000000                                                                                                                                                     01418 E000000000000 0000000000000.84     01650 01500                  
06651280104720022DR675906759000000028818008888000000101                         Z000000000000                                                                                                                                                                                                                                                                                                                                                                                                                                                                                                                                                                                                                               
06651290104720001G2675906759000000028818008888000000101865-3663142              TN           5 D                00                                      NNNN   N                      000000000000                                                                   76487134                                                                                                                                                                                                                                                                                                                                                                                                                                               
06651300104720023DT67590675900000002881800888800000010180088824001193186900015400020070520230000000652618623000000000090527422921XXXXXX9132       VS11    0001111   NYV1 A E383186628246174N840000000006526QB7H00    07DNHAPPY HIPPIE             048426    VD84000000006526 N  549976487134                            000000000+                F DF 00381                     000000000  N000000000       0000000000000.00 0000000.00   0000000.00                             000000000000000                                                                                                                                                     01418 A000000000000 0000000000000.67     00800 01500                  
06651310104720001E167590675900000002881800888800000010100E068C8008D 00000000000.004040404040404040404040404040404040404040404040404006011203A00000000000000000000000404040404040404040404040404040  0000084020000000000000230705CD4765D6A2C33382F87EFD91404040400840A000000003101000000000000000000012C701C40382000000000000000000004040404040404040 000000065.26 000000000.004040400000000000000000    80                                                                                                                                                                                                                                                                                                                  
06651320104720002G2675906759000000028818008888000000101SEVIERVILLE              TN           5 D                00                                      NNNN00 N 00                   000000000000                                                                   76487134                                                                                                                                                                                                                                                                                                                                                                                                                                               
06651330104720024DT67590675900000002881800888800000010180088824001193186900015400038070520230000000128318623000000000090527480639XXXXXX0299       VK04VS111111111   NYV1 A E303186689173534N84000000000128383L700    05DNHAPPY HIPPIE             588317    VD84000000001283 N  549976487134                            000000000+                F DF 00451                     000000000  N000000000 214   0000000000000.00 0000000.00   0000000.00                             000000000000000                                                                                                                                                     01418 F000000000000 0000000000000.24     01550 00400                  
06651340104720001E167590675900000002881800888800000010100E0F8C80184 00000000000.004040404040404040404040404040404040404040404040404006011203A02000000000000000000000404040404040404040404040404040  0000084018008080008000230705A4B660F8ED1DC039218C3A42404040400840A0000000031010000000000000000000577C044F0080000000000000000000004040401E40404040 000000012.83 000000000.001E00000000000000000000    80                                                                                                                                                                                                                                                                                                                  
06651350104720002G2675906759000000028818008888000000101SEVIERVILLE              TN           5 D                00                                      NNNN00 N 00                   000000000000                                                                   76487134                                                                                                                                                                                                                                                                                                                                                                                                                                               
06651360104720025DT67590675900000002881800888800000010180088824001193186900015400046070520230000000135318623000000000090527435546XXXXXX4132       VK04VS111111111   NYV1 A E463186691707811N840000000001353F6PJ00    05DNHAPPY HIPPIE             022089    VD84000000001353 N  549976487134                            000000000+                F DF 10439                     000000000  Y000000000 331   0000000000000.00 0000000.00   0000000.00                             000000000000000                                                                                                                                                     01418 F000000000000 0000000000000.23     00050 02200                  
06651370104720001E167590675900000002881800888800000010100E0F8C80084 00000000000.004040404040404040404040404040404040404040404040404006011203A08000000000000000000000404040404040404040404040404040  00010840180080800080002307055C9C2B44ED96CE0D847AF4CF404040400840A0000000031010000000000000000000E74AE5E00082000000000000000000004040401E40404040 000000013.53 000000000.001E00000000000000000000    80                                                                                                                                                                                                                                                                                                                  
06651380104720002G2675906759000000028818008888000000101SEVIERVILLE              TN           5 D                00                                      NNNN00 N 00                   000000000000                                                                   76487134                                                                                                                                                                                                                                                                                                                                                                                                                                               
06651390104720026DT67590675900000002881800888800000010180088824001193186900015400053070520230000001527418623000000000090527410889XXXXXX1655       VS11    0001111   NYV1 A E463186702382159N8400000000152746V2S00    05DNHAPPY HIPPIE             555839    VS84000000015274 N  549976487134                            000000000+                B CB 12111                     000000000  N000000000 495   0000000000000.00 0000000.00   0000000.00                             000000000000000                                                                                                                                                     01418 A000000000000 0000000000002.62     01650 01000                  
06651400104720001E167590675900000002881800888800000010100E0F8C80012 00000000000.004040404040404040404040404040404040404040404040404006011203A00000000000000000000000404040404040404040404040404040  00000840180080800080002307059CC5F6ADF7057A6FA9A63ED9404040400840A0000000031010000000000000000000CCD74AC90382000000000000000000004040401E40404040 000000152.74 000000000.001E00000000000000000000    80                                                                                                                                                                                                                                                                                                                  
06651410104720002G2675906759000000028818008888000000101SEVIERVILLE              TN           5 C                00                                      NNNN00 N 00                   000000000000                                                                   76487134                                                                                                                                                                                                                                                                                                                                                                                                                                               
06651420104720027DT67590675900000002881800888800000010180088824001193186900015400061070520230000002215018623000000000090527435547XXXXXX9872       VS11    0001111   NYV1 A E303186712322976N8400000000221505D4K00    05DNHAPPY HIPPIE             120112    VD84000000022150 N  549976487134                            000000000+                F DF 10433                     000000000  Y000000000 338   0000000000000.00 0000000.00   0000000.00                             000000000000000                                                                                                                                                     01418 A000000000000 0000000000000.33     00050 02200                  
06651430104720001E167590675900000002881800888800000010100E0F8C802BA 00000000000.004040404040404040404040404040404040404040404040404006011203A08000000000000000000000404040404040404040404040404040  0001084018008080008000230705189FE003D92AED3C121F070A404040400840A0000000031010000000000000000000F71F1ABC0082000000000000000000004040401E40404040 000000221.50 000000000.001E00000000000000000000    80                                                                                                                                                                                                                                                                                                                  
06651440104720002G2675906759000000028818008888000000101SEVIERVILLE              TN           5 D                00                                      NNNN00 N 00                   000000000000                                                                   76487134                                                                                                                                                                                                                                                                                                                                                                                                                                               
06651450104720028DT67590675900000002881800888800000010180088824001193186900015400079070520230000001525018623000000000090527419090XXXXXX2246       VS11    0001111   NYV1 A E463186740616579N8400000000152502KCP00    05DNHAPPY HIPPIE             624925    VD84000000015250 N  549976487134                            000000000+                F DF 00381                     000000000  N000000000       0000000000000.00 0000000.00   0000000.00                             000000000000000                                                                                                                                                     01418 A000000000000 0000000000001.37     00800 01500                  
06651460104720001E167590675900000002881800888800000010100E0F8C801AB 00000000000.004040404040404040404040404040404040404040404040404006011203A0A000000000000000000000404040404040404040404040404040  000208401800808000800023070549C92CE275A9D81ACC222641404040400840A0000000031010000000000000000000A191AEFE0082000000000000000000004040401E40404040 000000152.50 000000000.001E00000000000000000000    80                                                                                                                                                                                                                                                                                                                  
06651470104720002G2675906759000000028818008888000000101SEVIERVILLE              TN           5 D                00                                      NNNN00 N 00                   000000000000                                                                   76487134                                                                                                                                                                                                                                                                                                                                                                                                                                               
06651480104720029DT67590675900000002881800888800000010180088824001193186900015400087070520230000000594518623000000000090527459954XXXXXX5604       VS11    0001111   NYV1 A E463186748062374N840000000005945HFCT00    05DNHAPPY HIPPIE             H60657    VD84000000005945 N  549976487134                            000000000+                F DF 10433                     000000000  Y000000000 338   0000000000000.00 0000000.00   0000000.00                             000000000000000                                                                                                                                                     01418 A000000000000 0000000000000.25     00050 02200                  
06651490104720001E167590675900000002881800888800000010100E0F8C801FC 00000000000.004040404040404040404040404040404040404040404040404006011203A0A002000000000000000000404040404040404040404040404040  0000084039000080008000230705AD503134D22125D4124630C1404040400840A00000000310100000000000000000002823E0FC0082000000000000000000004040401E40404040 000000059.45 000000000.001E03000000000000000000    80                                                                                                                                                                                                                                                                                                                  
06651500104720002G2675906759000000028818008888000000101SEVIERVILLE              TN           5 D                00                                      NNNN00 N 00                   000000000000                                                                   76487134                                                                                                                                                                                                                                                                                                                                                                                                                                               
06651510104720030DT67590675900000002881800888800000010180088824001193186900015400095070520230000000519618623000000000090527429413XXXXXX7195       VS11    0001111   NYV1 A E383186754616680N840000000005196X32X00    05DNHAPPY HIPPIE             112469    VD84000000005196 N  549976487134                            000000000+                F DF 00381                     000000000  N000000000       0000000000000.00 0000000.00   0000000.00                             000000000000000                                                                                                                                                     01418 A000000000000 0000000000000.57     00800 01500                  
06651520104720001E167590675900000002881800888800000010100E0F8C80992 00000000000.004040404040404040404040404040404040404040404040404006011203A0A000000000000000000000404040404040404040404040404040  0000084018008080008000230705BE6014026480A25D08D83C41404040400840A0000000031010000000000000000000404040404040404040404040404040404040401E40404040 000000051.96 000000000.001E00000000000000000000    80                                                                                                                                                                                                                                                                                                                  
06651530104720002G2675906759000000028818008888000000101SEVIERVILLE              TN           5 D                00                                      NNNN00 N 00                   000000000000                                                                   76487134                                                                                                                                                                                                                                                                                                                                                                                                                                               
06651540104720031DT67590675900000002881800888800000010180088824001193186900015400103070520230000000478818623000000000090527480639XXXXXX6940       VS11    0001111   NYV1 A E583186757295595N8400000000047883LRM00    05DNHAPPY HIPPIE             591535    VD84000000004788 N  549976487134                            000000000+                F DF 00381                     000000000  N000000000       0000000000000.00 0000000.00   0000000.00                             000000000000000                                                                                                                                                     01418 A000000000000 0000000000000.53     00800 01500                  
06651550104720001E167590675900000002881800888800000010100E0F8C80322 00000000000.004040404040404040404040404040404040404040404040404006011203A0A000000000000000000000404040404040404040404040404040  0000084018008080008000230705A76C433069FFC9AD31D41B58404040400840A000000003101000000000000000000059D4AD270080000000000000000000004040401E40404040 000000047.88 000000000.001E00000000000000000000    80                                                                                                                                                                                                                                                                                                                  
06651560104720002G2675906759000000028818008888000000101SEVIERVILLE              TN           5 D                00                                      NNNN00 N 00                   000000000000                                                                   76487134                                                                                                                                                                                                                                                                                                                                                                                                                                               
06651570104720032DT67590675900000002881800888800000010180088824001193186900015400111070520230000000493718623000000000090527480639XXXXXX0421       VS11    0001111   NYV1 A E583186776715944N840000000004937WZMR00    05DNHAPPY HIPPIE             592498    VD84000000004937 N  549976487134                            000000000+                F DF 00381                     000000000  N000000000       0000000000000.00 0000000.00   0000000.00                             000000000000000                                                                                                                                                     01418 A000000000000 0000000000000.54     00800 01500                  
06651580104720001E167590675900000002881800888800000010100E0F8C8009F 00000000000.004040404040404040404040404040404040404040404040404006011203A02000000000000000000000404040404040404040404040404040  0000084018008080008000230705DDA52ACB4F2C685D3A393514404040400840A000000003101000000000000000000061162A760080000000000000000000004040401E40404040 000000049.37 000000000.001E00000000000000000000    80                                                                                                                                                                                                                                                                                                                  
06651590104720002G2675906759000000028818008888000000101SEVIERVILLE              TN           5 D                00                                      NNNN00 N 00                   000000000000                                                                   76487134                                                                                                                                                                                                                                                                                                                                                                                                                                               
06651600104720033DT67590675900000002881800888800000010180088877287283186900015400121070520230000000365918623000000000090527533248XXXXXX4488       MS02WI09          NY 1 0 AMPVZTU1ZD0705  N840000000003659          05DNHAPPY HIPPIE             ICIBSG    MD84000000003659 N  549976487134                            000000000+M10101C5434C    MPV  11964                     000000000  N                0000000000000.00 0000000.00   0000000.00                             000000000000000                                                                                                                                                   B101418  000000000000 0000000000000.57     01150 01500                  
06651610104720001E167590675900000002881800888800000010100E0F8C800CE 00000000000.00404040404040404040404040404040404040404040404040400110A00001220000000000000000000000FF00000000000000000000000000  0000084018008000088000230705646410655DE6AC4D3E6CCDB7404040400840A000000004101000000000000000000062D6CF10D1F20F3C00100000000000004040401E40404040 000000036.59 000000000.001E03000000000000000000    80                                                                                                                                                                                                                                                                                                                  
06651620104720002G2675906759000000028818008888000000101SEVIERVILLE              TN           5 V                                                        NNNN              000000000000000000000000                                                                   76487134                                                                                                                                                                                                                                                                                                                                                                                                                                               
06651630104720034BH6759067590000000288180088880000090170705202318623000000000184678    0000090001540024N8008886759C07062023054                                                                                                                                                                                                                                                                                                                                                                                                                                                                                                                                                                                              
06651640104720035DT67590675900000002881800888800000010180088824001193186900015400012070520230000000521818623000000000184678400344XXXXXX4705       VS11    0001111   NYV1 A E463186521254800N84000000000521888XL00    05DNHAPPY HIPPIE             05386B    VS84000000005218 N  549976487169                            000000000+                B CB 12111                     000000000  N000000000 495   0000000000000.00 0000000.00   0000000.00                             000000000000000                                                                                                                                                     01418 A000000000000 0000000000000.96     01650 01000                  
06651650104720001E167590675900000002881800888800000010100E0F8C80022 00000000000.004040404040404040404040404040404040404040404040404006011203A0A002000000000000000000404040404040404040404040404040  0001084038000080008000230705B5F3AA58A88946C46CB6E6F9404040400840A0000000031010000000000000000000EB9787510082000000000000000000004040401E40404040 000000052.18 000000000.001E00000000000000000000    80                                                                                                                                                                                                                                                                                                                  
06651660104720002G2675906759000000028818008888000000101SEVIERVILLE              TN           5 C                00                                      NNNN00 Y 00                   000000000000                                                                   76487169                                                                                                                                                                                                                                                                                                                                                                                                                                               
06651670104720036DT67590675900000002881800888800000010180088824001193186900015400020070520230000000780318623000000000184678445101XXXXXX1781       VS11    0001111   NYV1 A E383186546483592N840000000007803WRJR00    05DNHAPPY HIPPIE             389109    VD84000000007803 N  549976487169                            000000000+                F DF 10433                     000000000  Y000000000 338   0000000000000.00 0000000.00   0000000.00                             000000000000000                                                                                                                                                     01418 A000000000000 0000000000000.26     00050 02200                  
06651680104720001E167590675900000002881800888800000010100E0F8C805DE 00000000000.004040404040404040404040404040404040404040404040404006010A03A0A000000000000000000000404040404040404040404040404040  000208401800808000800023070545026F3A551DB9B89AB4D5A7404040400840A000000003101000000000000000000092C8DC718106668530300000000000004040401E40404040 000000078.03 000000000.001E00000000000000000000    80                                                                                                                                                                                                                                                                                                                  
06651690104720002G2675906759000000028818008888000000101SEVIERVILLE              TN           5 D                00                                      NNNN00 N 00                   000000000000                                                                   76487169                                                                                                                                                                                                                                                                                                                                                                                                                                               
06651700104720037DT67590675900000002881800888800000010180088873011003186900015400034070520230000000343718623000000000184678371345XXXXX1003                          NY 1 0 N005623922022300N840000000003437          07DNHAPPY HIPPIE             807454    AM84000000003437 N  549976487169                            000000000+51010X50034C 258     11261                     000000000                   0000000000000.00 0000000.00   0000000.00                             000000000000000 61248972086759675900000002881 HAPPY HIPPIE             832 PARKWAY              8656540830      37862     HAPPYHIPPIE832@GMAIL.COM                  01418  000000000000 0000000000000.65     01600 00000                  
06651710104720001E167590675900000002881800888800000010100E0E8C80588 00000000000.004040404040404040404040404040404040404040404040404006480103A00002000000000000000000404040404040404040404040404040  000008401D800000008000230705C30AEEEFE5D7D7071DD392B0404040400840A000000025010801000000000000000094324B6944DFD69030300000000000004040401F40404040 000000034.37 000000000.001F02020000000000000000    80                                                                                                                                                                                                                                                                                                                  
06651720104720002G2675906759000000028818008888000000101SEVIERVILLE              TN           5                  00                                      NNNN                          000000000000                                                                   76487169                                                                                                                                                                                                                                                                                                                                                                                                                                               
06651730104720038DT67590675900000002881800888800000010180088824001193186900015400046070520230000000423318623000000000184678498503XXXXXX9797       VS11    0001111   NYV1 A E383186559163968N840000000004233SL8600    05DNHAPPY HIPPIE             031038    VD84000000004233 N  549976487169                            000000000+                F DF 00381                     000000000  N000000000       0000000000000.00 0000000.00   0000000.00                             000000000000000                                                                                                                                                     01418 A000000000000 0000000000000.49     00800 01500                  
06651740104720001E167590675900000002881800888800000010100E0F8C80144 00000000000.004040404040404040404040404040404040404040404040404006011203A08000000000000000000000404040404040404040404040404040  0000084018008080008000230705CD1D16583F793378C80C14BC404040400840A00000000310100000000000000000000EC533800080000000000000000000004040401E40404040 000000042.33 000000000.001E00000000000000000000    80                                                                                                                                                                                                                                                                                                                  
06651750104720002G2675906759000000028818008888000000101SEVIERVILLE              TN           5 D                00                                      NNNN00 N 00                   000000000000                                                                   76487169                                                                                                                                                                                                                                                                                                                                                                                                                                               
