00004410029190002BH6759067590000001516480088880000090170301202306023000000000000555    0000090001010001Y8008886759C03022023                                                                                                                                                                                                                                                                                                                                                                                                                                                                                                                                                                                                 
00004420029190003DT67590675900000015164800888800000010180088873011003060900010100010030120230000000055506023000000000000555376742XXXXX1001                          NY 4 07N004229722119329N840000000000555          01DNGOLDAXA LLC              148857    AM84000000000555 Y  599977360677                            000000000+6004S0000130 258     11261                     000000000                   0000000000000.00 0000000.00   0000000.00                             000000000000000 61248972086759675900000015164 GOLDAXA LLC              1721 W SORRENTO LANE     8014041097      84043     NEIL@GOLDAXAPRODUCTS.COM                  01324  000000000000 0000000000000.19     01600 00000                  
00004430029190004BH6759067590000000370780088880000090170301202306023000000000128666    0000090001470327Y8008886759C03022023                                                                                                                                                                                                                                                                                                                                                                                                                                                                                                                                                                                                 
00004440029190005DT67590675900000003707800888800000010180088824001193060900014703151022820230000000289706023000000000128666426690XXXXXX9922               2111111   NYV4 A7W383060083297983N840000000002897P8M700    01DNMR HEMP FLOWER           05501C    VS84000000002897 NP1549976053336   86533                    000000000+                C CC 12108                     000000000  N000000000 496   0000000000000.00 0000000.00   0000000.00                             000000000000000                                                                                                                                                     01424 G000000002897 0000000000000.69     02050 01000                  
00004450029190001P16759067590000000370780088880000001010000000000000000                             2000000000000000000000000              000000000000                    0000000000000000000000000                    000000000000                                                                                                                                                                                                                                                                                                                                                                                                                                                                                        
00004460029190006DT67590675900000003707800888800000010180088887287283060900014703160022820230000000849806023000000000128666521105XXXXXX7293       ME03KE06MS02      NY 4607AMDJ9SEA580228  N840000000008498          81DNMR HEMP FLOWER           013100    MD84000000008498 N  549976053336   86534                    000000000+600450S00130    MDJ  10813                     000000000  1                0000000000000.00 0000000.00   0000000.00                             000000000000000                                                                                                                                                   U001424  000000000000 0000000000000.26     00050 02200                  
00004470029190007DT67590675900000003707800888800000010180088824001193060900014703201030120230000001027406023000000000128666474475XXXXXX5131               2111111   NYV4 A7W583060533183070N840000000010274VZKQ00    01DNMR HEMP FLOWER           124285    VD84000000010274 NP1549976053336   86543                    000000000+                F DF 10420                     000000000  Y000000000 338   0000000000000.00 0000000.00   0000000.00                             000000000000000                                                                                                                                                     01424 G000000010274 0000000000000.27     00050 02200                  
00004480029190001P16759067590000000370780088880000001010000000000000000                             2000000000000000000000000              000000000000                    0000000000000000000000000                    000000000000                                                                                                                                                                                                                                                                                                                                                                                                                                                                                        
00004490029190008DT67590675900000003707800888800000010180088887287283060900014703210030120230000001500006023000000000128666542418XXXXXX0574       ME03KE06MS02      NY 4607AMPLKIOJST0301  N840000000015000          81DNMR HEMP FLOWER           82171B    MC84000000015000 N  549976053336   86544                    000000000+600450S00130    MPL  00580                     000000000  N                0000000000000.00 0000000.00   0000000.00                             000000000000000                                                                                                                                                   U001424  000000000000 0000000000003.25     02100 01000                  
00004500029190009DT67590675900000003707800888800000010180088824001193060900014703227030120230000003200006023000000000128666427082XXXXXX4382               2111111   NYV4 A7W383060627186851N840000000032000GT8V00    01DNMR HEMP FLOWER           001259    VS84000000032000 NP1549976053336   86554                    000000000+                D CD 12109                     000000000  N000000000 498   0000000000000.00 0000000.00   0000000.00                             000000000000000                                                                                                                                                     01424 G000000032000 0000000000008.10     02500 01000                  
00004510029190001P16759067590000000370780088880000001010000000000000000                             2000000000000000000000000              000000000000                    0000000000000000000000000                    000000000000                                                                                                                                                                                                                                                                                                                                                                                                                                                                                        
00004520029190010DT67590675900000003707800888800000010180088887287283060900014703236030120230000001449906023000000000128666552486XXXXXX7881       ME03KE06MS02      NY 4607AMWEAWU2SL0301  N840000000014499          81DNMR HEMP FLOWER           02064Z    MC84000000014499 N  549976053336   86555                    000000000+600450S00130    MWE  00737                     000000000  N                0000000000000.00 0000000.00   0000000.00                             000000000000000                                                                                                                                                   U001424  000000000000 0000000000003.87     02600 01000                  
00004530029190011DT67590675900000003707800888800000010180088824001193060900014703243030120230000000799906023000000000128666419002XXXXXX7742               2111111   NYV4 A7W583060692039185N840000000007999VH5H00    01DNMR HEMP FLOWER           006224    VD84000000007999 NP1549976053336   86564                    000000000+                F DF 10420                     000000000  Y000000000 338   0000000000000.00 0000000.00   0000000.00                             000000000000000                                                                                                                                                     01424 G000000007999 0000000000000.26     00050 02200                  
00004540029190001P16759067590000000370780088880000001010000000000000000                             2000000000000000000000000              000000000000                    0000000000000000000000000                    000000000000                                                                                                                                                                                                                                                                                                                                                                                                                                                                                        
00004550029190012DT67590675900000003707800888800000010180088824001193060900014703250030120230000001300006023000000000128666412781XXXXXX5244               2111111   NYV4 A7W583060723761801N840000000013000N5RM00    01DNMR HEMP FLOWER           001955    VS84000000013000 NP1549976053336   86565                    000000000+                A CA 12106                     000000000  N000000000 492   0000000000000.00 0000000.00   0000000.00                             000000000000000                                                                                                                                                     01424 G000000013000 0000000000002.56     01890 01000                  
00004560029190001P16759067590000000370780088880000001010000000000000000                             2000000000000000000000000              000000000000                    0000000000000000000000000                    000000000000                                                                                                                                                                                                                                                                                                                                                                                                                                                                                        
00004570029190013DT67590675900000003707800888800000010180088824001193060900014703268030120230000001750006023000000000128666438857XXXXXX7809               2111111   NYV4 A7W303060723782853N840000000017500B9DS00    01DNMR HEMP FLOWER           08548D    VS84000000017500 NP1549976053336   86566                    000000000+                D CD 12109                     000000000  N000000000 498   0000000000000.00 0000000.00   0000000.00                             000000000000000                                                                                                                                                     01424 G000000017500 0000000000004.48     02500 01000                  
00004580029190001P16759067590000000370780088880000001010000000000000000                             2000000000000000000000000              000000000000                    0000000000000000000000000                    000000000000                                                                                                                                                                                                                                                                                                                                                                                                                                                                                        
00004590029190014DT67590675900000003707800888800000010180088824001193060900014703276030120230000000699906023000000000128666414740XXXXXX8517               2111111   NYV4 A7W463060797867214N8400000000069996MML00    01DNMR HEMP FLOWER           08384C    VS84000000006999 NP1549976053336   86578                    000000000+                C CC 12108                     000000000  N000000000 496   0000000000000.00 0000000.00   0000000.00                             000000000000000                                                                                                                                                     01424 G000000006999 0000000000001.53     02050 01000                  
00004600029190001P16759067590000000370780088880000001010000000000000000                             2000000000000000000000000              000000000000                    0000000000000000000000000                    000000000000                                                                                                                                                                                                                                                                                                                                                                                                                                                                                        
00004610029190015BH6759067590000001330080010280000090170301202306023000000000529434    0000090001140746Y8001026759C03022023                                                                                                                                                                                                                                                                                                                                                                                                                                                                                                                                                                                                 
00004620029190016DT67590675900000013300800102800000010180010224001193060900011405883022820230000000019906023000000000529434433451XXXXXX6042               2111111   NYV4 A7W383060036059869N84000000000019994Z700    01DNCBD8666317293            8YH3TW    VD84000000000199 NP1549977133133   5596147CF0T8E1CF74A9C4A  000000000+                S PS 10179                     000000000  N000000000 364   0000000000000.00 0000000.00   0000000.00                             000000000000000                                                                                                                                                     01424 G000000000199 0000000000000.15     02650 01000                  
00004630029190001P16759067590000001330080010280000001010000000000000000                             2000000000000000000000000              000000000000                    0000000000000000000000000                    000000000000                                                                                                                                                                                                                                                                                                                                                                                                                                                                                        
00004640029190017DT67590675900000013300800102800000010180010224001193060900011405891022820230000000019906023000000000529434433451XXXXXX8063               2111111   NYV4 A7W583060037879777N8400000000001993VBB00    01DNCBD8666317293            JJ0X01    VD84000000000199 NP1549977133133   63936CA464T301DCD59616B  000000000+                S PS 10179                     000000000  N000000000 364   0000000000000.00 0000000.00   0000000.00                             000000000000000                                                                                                                                                     01424 G000000000199 0000000000000.15     02650 01000                  
00004650029190001P16759067590000001330080010280000001010000000000000000                             2000000000000000000000000              000000000000                    0000000000000000000000000                    000000000000                                                                                                                                                                                                                                                                                                                                                                                                                                                                                        
00004660029190018DT67590675900000013300800102800000010180010287287283060900011405918022820230000000019906023000000000529434512507XXXXXX6843                         NY 4607AMCPRVX9340228  N840000000000199          81DNCBD8666317293            612723    MB84000000000199 NP1549977133133   C4DA7F5C9ETE384CA1292AC  000000000+600450S00130    MCP  00303                     000000000  N                0000000000000.00 0000000.00   0000000.00                             000000000000000                                                                                                                                                   U001424  000000000000 0000000000000.15     02700 01000                  
00004670029190001P1675906759000000133008001028000000101                                                          000000000000          8000            871584967                                                                                                                                                                                                                                                                                                                                                                                                                                                                                                                                                            
00004680029190019DT67590675900000013300800102800000010180010224001193060900011405925022820230000000019906023000000000529434412076XXXXXX4571               2111111   NYV4 A7W383060040869447N8400000000001999HRJ00    01DNCBD8666317293            322642    VS84000000000199 NP1549977133133   64207DC6D3T874C24BE0136  000000000+                A CA 12106                     000000000  N000000000 492   0000000000000.00 0000000.00   0000000.00                             000000000000000                                                                                                                                                     01424 G000000000199 0000000000000.14     01890 01000                  
00004690029190001P16759067590000001330080010280000001010000000000000000                             2000000000000000000000000              000000000000                    0000000000000000000000000                    000000000000                                                                                                                                                                                                                                                                                                                                                                                                                                                                                        
00004700029190020DT67590675900000013300800102800000010180010224001193060900011405933022820230000000019906023000000000529434433451XXXXXX7084               2111111   NYV4 A7W463060046911622N8400000000001994PFC00    01DNCBD8666317293            H1HFZG    VD84000000000199 NP1549977133133   846409F45FT0DC2ED5E9F0C  000000000+                S PS 10179                     000000000  N000000000 364   0000000000000.00 0000000.00   0000000.00                             000000000000000                                                                                                                                                     01424 G000000000199 0000000000000.15     02650 01000                  
00004710029190001P16759067590000001330080010280000001010000000000000000                             2000000000000000000000000              000000000000                    0000000000000000000000000                    000000000000                                                                                                                                                                                                                                                                                                                                                                                                                                                                                        
00004720029190021DT67590675900000013300800102800000010180010224001193060900011405941022820230000002157606023000000000529434414718XXXXXX5192               2111111   NYV4 A7W463060048993153N840000000021576LZRM00    01DNCBD8666317293            028925    VS84000000021576 NP1549977133133   AC9E173B8DT8C59D34EDEF8  000000000+                D CD 12109                     000000000  N000000000 498   0000000000000.00 0000000.00   0000000.00                             000000000000000                                                                                                                                                     01424 G000000021576 0000000000005.49     02500 01000                  
00004730029190001P16759067590000001330080010280000001010000000000000000                             2000000000000000000000000              000000000000                    0000000000000000000000000                    000000000000                                                                                                                                                                                                                                                                                                                                                                                                                                                                                        
00004740029190022DT67590675900000013300800102800000010180010224001193060900011405966022820230000001499106023000000000529434434258XXXXXX4310               2111111   NYV4 A7W383060050075460N840000000014991L33Z00    01DNCBD8666317293            017127    VD84000000014991 NP1549977133133   4B1688D8A5TECEAA47FD083  000000000+                F DF 10420                     000000000  Y000000000 338   0000000000000.00 0000000.00   0000000.00                             000000000000000                                                                                                                                                     01424 G000000014991 0000000000000.29     00050 02200                  
00004750029190001P16759067590000001330080010280000001010000000000000000                             2000000000000000000000000              000000000000                    0000000000000000000000000                    000000000000                                                                                                                                                                                                                                                                                                                                                                                                                                                                                        
00004760029190023DT67590675900000013300800102800000010180010224001193060900011405974022820230000000019906023000000000529434428813XXXXXX2351               2111111   NYV4 A7W383060053537567N840000000000199ZNZQ00    01DNCBD8666317293            860591    VB84000000000199 NP1549977133133   A2AA3248C6T12CB36DFCEED  000000000+                S CS 00692                     000000000  N000000000 237   0000000000000.00 0000000.00   0000000.00                             000000000000000                                                                                                                                                     01424 G000000000199 0000000000000.15     02700 01000                  
00004770029190001P16759067590000001330080010280000001010000000000000000                             2000000000000000000000000              000000000000                    0000000000000000000000000                    000000000000                                                                                                                                                                                                                                                                                                                                                                                                                                                                                        
00004780029190024DT67590675900000013300800102800000010180010224001193060900011405982022820230000000019906023000000000529434433451XXXXXX8469               2111111   NYV4 A7W303060055253269N8400000000001995JRZ00    01DNCBD8666317293            T285WF    VD84000000000199 NP1549977133133   2F3E92B3D1T4EC257499ED5  000000000+                S PS 10179                     000000000  N000000000 364   0000000000000.00 0000000.00   0000000.00                             000000000000000                                                                                                                                                     01424 G000000000199 0000000000000.15     02650 01000                  
00004790029190001P16759067590000001330080010280000001010000000000000000                             2000000000000000000000000              000000000000                    0000000000000000000000000                    000000000000                                                                                                                                                                                                                                                                                                                                                                                                                                                                                        
00004800029190025DT67590675900000013300800102800000010180010224001193060900011405990022820230000000019906023000000000529434412076XXXXXX0171               2111111   NYV4 A7W583060058837315N8400000000001996GLD00    01DNCBD8666317293            088618    VS84000000000199 NP1549977133133   2DCED76D38TBDBD08BB1363  000000000+                A CA 12106                     000000000  N000000000 492   0000000000000.00 0000000.00   0000000.00                             000000000000000                                                                                                                                                     01424 G000000000199 0000000000000.14     01890 01000                  
00004810029190001P16759067590000001330080010280000001010000000000000000                             2000000000000000000000000              000000000000                    0000000000000000000000000                    000000000000                                                                                                                                                                                                                                                                                                                                                                                                                                                                                        
00004820029190026DT67590675900000013300800102800000010180010224001193060900011406014022820230000000019906023000000000529434485932XXXXXX0636               2111111   NYV4 A7W463060069083426N8400000000001992KKL00    01DNCBD8666317293            684324    VB84000000000199 NP1549977133133   8B8D9FE793T2ABDE1E68D66  000000000+                S CS 00692                     000000000  N000000000 237   0000000000000.00 0000000.00   0000000.00                             000000000000000                                                                                                                                                     01424 G000000000199 0000000000000.15     02700 01000                  
00004830029190001P16759067590000001330080010280000001010000000000000000                             2000000000000000000000000              000000000000                    0000000000000000000000000                    000000000000                                                                                                                                                                                                                                                                                                                                                                                                                                                                                        
00004840029190027DT67590675900000013300800102800000010180010287287283060900011406023022820230000000019906023000000000529434514376XXXXXX1935                         NY 4607AMPWYVQX340228  N840000000000199          81DNCBD8666317293            582038    MD84000000000199 NP1549977133133   7B490215DAT54C73AFF934A  000000000+600450S00130    MPW  00062                     000000000  N                0000000000000.00 0000000.00   0000000.00                             000000000000000                                                                                                                                                   U001424  000000000000 0000000000000.15     02650 01000                  
00004850029190001P1675906759000000133008001028000000101                                                          000000000000          8000            871584967                                                                                                                                                                                                                                                                                                                                                                                                                                                                                                                                                            
00004860029190028DT67590675900000013300800102800000010180010287287283060900011406049022820230000000019906023000000000529434512507XXXXXX7717                         NY 4607AMCPYX1T340228  N840000000000199          81DNCBD8666317293            366780    MB84000000000199 NP1549977133133   66A2BD5A38T9FB5613CAD1D  000000000+600450S00130    MCP  00303                     000000000  N                0000000000000.00 0000000.00   0000000.00                             000000000000000                                                                                                                                                   U001424  000000000000 0000000000000.15     02700 01000                  
00004870029190001P1675906759000000133008001028000000101                                                          000000000000          8000            871584967                                                                                                                                                                                                                                                                                                                                                                                                                                                                                                                                                            
00004880029190029DT67590675900000013300800102800000010180010224001193060900011406055022820230000000019906023000000000529434428813XXXXXX0737               2111111   NYV4 A7W583060078122817N840000000000199V25500    01DNCBD8666317293            178176    VB84000000000199 NP1549977133133   32D2AA36A6TC7AB3414F4F9  000000000+                S CS 00692                     000000000  N000000000 237   0000000000000.00 0000000.00   0000000.00                             000000000000000                                                                                                                                                     01424 G000000000199 0000000000000.15     02700 01000                  
00004890029190001P16759067590000001330080010280000001010000000000000000                             2000000000000000000000000              000000000000                    0000000000000000000000000                    000000000000                                                                                                                                                                                                                                                                                                                                                                                                                                                                                        
00004900029190030DT67590675900000013300800102800000010180010287287283060900011406064022820230000000019906023000000000529434514376XXXXXX1315                         NY 4607AMPWYU7Q3X0228  N840000000000199          81DNCBD8666317293            252113    MD84000000000199 NP1549977133133   E3289383CDTF6D9BD5FF69F  000000000+600450S00130    MPW  00062                     000000000  N                0000000000000.00 0000000.00   0000000.00                             000000000000000                                                                                                                                                   U001424  000000000000 0000000000000.15     02650 01000                  
00004910029190001P1675906759000000133008001028000000101                                                          000000000000          8000            871584967                                                                                                                                                                                                                                                                                                                                                                                                                                                                                                                                                            
00004920029190031DT67590675900000013300800102800000010180010287287283060900011406072022820230000000019906023000000000529434559666XXXXXX0886                         NY 4607AMPLJ3U47P0228  N840000000000199          81DNCBD8666317293            Q55NL3    MC84000000000199 N  549977133133   59F9D6068AT16CF34868F5D  000000000+600450S00130    MPL  12148                     000000000  N                0000000000000.00 0000000.00   0000000.00                             000000000000000                                                                                                                                                     01424  000000000000 0000000000000.06     01950 00200                  
00004930029190032DT67590675900000013300800102800000010180010287287283060900011406080022820230000000019906023000000000529434553437XXXXXX5969                         NY 4607AMBSYWBI3X0228  N840000000000199          81DNCBD8666317293            3O0HYT    MB84000000000199 NP1549977133133   DBCD54D21BT8CB423E74838  000000000+600450S00130    MBS  00303                     000000000  N                0000000000000.00 0000000.00   0000000.00                             000000000000000                                                                                                                                                   U001424  000000000000 0000000000000.15     02700 01000                  
00004940029190001P1675906759000000133008001028000000101                                                          000000000000          8000            871584967                                                                                                                                                                                                                                                                                                                                                                                                                                                                                                                                                            
00004950029190033DT67590675900000013300800102800000010180010224001193060900011406097022820230000000019906023000000000529434408544XXXXXX2637               2111111   NYV4 A7W583060083503556N840000000000199SP8Z00    01DNCBD8666317293            623314    VB84000000000199 NP1549977133133   60F900FC68T8C2B8AB92159  000000000+                K CK 00691                     000000000  N000000000 234   0000000000000.00 0000000.00   0000000.00                             000000000000000                                                                                                                                                     01424 G000000000199 0000000000000.15     02700 01000                  
00004960029190001P16759067590000001330080010280000001010000000000000000                             2000000000000000000000000              000000000000                    0000000000000000000000000                    000000000000                                                                                                                                                                                                                                                                                                                                                                                                                                                                                        
00004970029190034DT67590675900000013300800102800000010180010287287283060900011406106022820230000000019906023000000000529434559292XXXXXX9570                         NY 4607AMCOA3FI8E0228  N840000000000199          81DNCBD8666317293            98RTPO    MB84000000000199 NP1549977133133   10A7E1AAA1TA03056E47230  000000000+600450S00130    MCO  00303                     000000000  N                0000000000000.00 0000000.00   0000000.00                             000000000000000                                                                                                                                                     01424  000000000000 0000000000000.15     02700 01000                  
00004980029190001P1675906759000000133008001028000000101                                                          000000000000          8000            871584967                                                                                                                                                                                                                                                                                                                                                                                                                                                                                                                                                            
00004990029190035DT67590675900000013300800102800000010180010287287283060900011406114022820230000000019906023000000000529434531993XXXXXX7727                         NY 4607AMCPY6X33X0228  N840000000000199          81DNCBD8666317293            E0PB18    MB84000000000199 NP1549977133133   0B0655B119TF17575223FB7  000000000+600450S00130    MCP  00303                     000000000  N                0000000000000.00 0000000.00   0000000.00                             000000000000000                                                                                                                                                   U001424  000000000000 0000000000000.15     02700 01000                  
00005000029190001P1675906759000000133008001028000000101                                                          000000000000          8000            871584967                                                                                                                                                                                                                                                                                                                                                                                                                                                                                                                                                            
00005010029190036DT67590675900000013300800102800000010180010287287283060900011406122022820230000000019906023000000000529434556150XXXXXX8079                         NY 4607AMCFTE7M340228  N840000000000199          81DNCBD8666317293            67UGRB    MB84000000000199 NP1549977133133   C62D6BF74ETCA8EE3F0DB68  000000000+600450S00130    MCF  00060                     000000000  N                0000000000000.00 0000000.00   0000000.00                             000000000000000                                                                                                                                                     01424  000000000000 0000000000000.16     02950 01000                  
00005020029190001P1675906759000000133008001028000000101                                                          000000000000          8000            871584967                                                                                                                                                                                                                                                                                                                                                                                                                                                                                                                                                            
00005030029190037DT67590675900000013300800102800000010180010224001193060900011406139022820230000000019906023000000000529434428813XXXXXX2815               2111111   NYV4 A7W583060097857922N8400000000001996FQS00    01DNCBD8666317293            776495    VB84000000000199 NP1549977133133   49230EA92ET44C2B5BDCC45  000000000+                S CS 00692                     000000000  N000000000 237   0000000000000.00 0000000.00   0000000.00                             000000000000000                                                                                                                                                     01424 G000000000199 0000000000000.15     02700 01000                  
00005040029190001P16759067590000001330080010280000001010000000000000000                             2000000000000000000000000              000000000000                    0000000000000000000000000                    000000000000                                                                                                                                                                                                                                                                                                                                                                                                                                                                                        
00005050029190038DT67590675900000013300800102800000010180010224001193060900011406154022820230000000019906023000000000529434428821XXXXXX1549               2111111   NYV4 A7W383060099118289N840000000000199SV4200    01DNCBD8666317293            722968    VB84000000000199 NP1549977133133   388A271B86T05EFD98D732C  000000000+                S CS 00692                     000000000  N000000000 237   0000000000000.00 0000000.00   0000000.00                             000000000000000                                                                                                                                                     01424 G000000000199 0000000000000.15     02700 01000                  
00005060029190001P16759067590000001330080010280000001010000000000000000                             2000000000000000000000000              000000000000                    0000000000000000000000000                    000000000000                                                                                                                                                                                                                                                                                                                                                                                                                                                                                        
00005070029190039DT67590675900000013300800102800000010180010287287283060900011406171022820230000001987006023000000000529434515940XXXXXX8603       ME03KE06MS02      NY 4607AMDSZI7S340228  N840000000019870          81DNCBD8666317293            166249    MD84000000019870 N  549977133133   E4D66F6F46T3F2D42126F94  000000000+600450S00130    MDS  00401                     000000000  N                0000000000000.00 0000000.00   0000000.00                             000000000000000                                                                                                                                                   U001424  000000000000 0000000000003.43     01650 01500                  
00005080029190040DT67590675900000013300800102800000010180010224001193060900011406188022820230000002126106023000000000529434431196XXXXXX3979               2111111   NYV4 A7W383060101350527N840000000021261X5HW00    01DNCBD8666317293            028175    VS84000000021261 NP1549977133133   DA85DBDF9ETD2D23B490079  000000000+                B CB 12107                     000000000  N000000000 494   0000000000000.00 0000000.00   0000000.00                             000000000000000                                                                                                                                                     01424 G000000021261 0000000000004.44     02040 01000                  
00005090029190001P16759067590000001330080010280000001010000000000000000                             2000000000000000000000000              000000000000                    0000000000000000000000000                    000000000000                                                                                                                                                                                                                                                                                                                                                                                                                                                                                        
00005100029190041DT67590675900000013300800102800000010180010224001193060900011406204022820230000000019906023000000000529434441112XXXXXX0468               2111111   NYV4 A7W383060102049851N840000000000199J47P00    01DNCBD8666317293            NF3OXX    VD84000000000199 NP1549977133133   5138EEC3C0TDB30992B1B28  000000000+                S PS 10179                     000000000  N000000000 364   0000000000000.00 0000000.00   0000000.00                             000000000000000                                                                                                                                                     01424 G000000000199 0000000000000.15     02650 01000                  
00005110029190001P16759067590000001330080010280000001010000000000000000                             2000000000000000000000000              000000000000                    0000000000000000000000000                    000000000000                                                                                                                                                                                                                                                                                                                                                                                                                                                                                        
00005120029190042DT67590675900000013300800102800000010180010224001193060900011406212022820230000000019906023000000000529434428803XXXXXX1288               2111111   NYV4 A7W463060102069034N840000000000199DKJH00    01DNCBD8666317293            164185    VD84000000000199 NP1549977133133   EC5899F315T3344A9B52E74  000000000+                S PS 10179                     000000000  N000000000 364   0000000000000.00 0000000.00   0000000.00                             000000000000000                                                                                                                                                     01424 G000000000199 0000000000000.15     02650 01000                  
00005130029190001P16759067590000001330080010280000001010000000000000000                             2000000000000000000000000              000000000000                    0000000000000000000000000                    000000000000                                                                                                                                                                                                                                                                                                                                                                                                                                                                                        
00005140029190043DT67590675900000013300800102800000010180010224001193060900011406220022820230000000019906023000000000529434404038XXXXXX7476               2111111   NYV4 A7W463060103855750N840000000000199ZS5H00    01DNCBD8666317293            2PYZZ5    VD84000000000199 NP1549977133133   C81EE1D184T7F62E1A58036  000000000+                S PS 10179                     000000000  N000000000 364   0000000000000.00 0000000.00   0000000.00                             000000000000000                                                                                                                                                     01424 G000000000199 0000000000000.15     02650 01000                  
00005150029190001P16759067590000001330080010280000001010000000000000000                             2000000000000000000000000              000000000000                    0000000000000000000000000                    000000000000                                                                                                                                                                                                                                                                                                                                                                                                                                                                                        
00005160029190044DT67590675900000013300800102800000010180010224001193060900011406238022820230000000019906023000000000529434489683XXXXXX8128               2111111   NYV4 A7W303060105048195N840000000000199XHFP00    01DNCBD8666317293            1F3CYW    VD84000000000199 NP1549977133133   98DF56D8EBT146C0383A099  000000000+                S PS 10179                     000000000  N000000000 364   0000000000000.00 0000000.00   0000000.00                             000000000000000                                                                                                                                                     01424 G000000000199 0000000000000.15     02650 01000                  
00005170029190001P16759067590000001330080010280000001010000000000000000                             2000000000000000000000000              000000000000                    0000000000000000000000000                    000000000000                                                                                                                                                                                                                                                                                                                                                                                                                                                                                        
00005180029190045DT67590675900000013300800102800000010180010287287283060900011406247022820230000000019906023000000000529434559292XXXXXX1553                         NY 4607AMCOTPCY340228  N840000000000199          81DNCBD8666317293            L554TM    MB84000000000199 NP1549977133133   64AB1E5E32T8FBAF2C655D0  000000000+600450S00130    MCO  00303                     000000000  N                0000000000000.00 0000000.00   0000000.00                             000000000000000                                                                                                                                                     01424  000000000000 0000000000000.15     02700 01000                  
00005190029190001P1675906759000000133008001028000000101                                                          000000000000          8000            871584967                                                                                                                                                                                                                                                                                                                                                                                                                                                                                                                                                            
00005200029190046DT67590675900000013300800102800000010180010224001193060900011406253022820230000000019906023000000000529434428821XXXXXX1841               2111111   NYV4 A7W303060110459132N840000000000199JZP500    01DNCBD8666317293            192445    VB84000000000199 NP1549977133133   CB455271F4T5F65016B3583  000000000+                S CS 00692                     000000000  N000000000 237   0000000000000.00 0000000.00   0000000.00                             000000000000000                                                                                                                                                     01424 G000000000199 0000000000000.15     02700 01000                  
00005210029190001P16759067590000001330080010280000001010000000000000000                             2000000000000000000000000              000000000000                    0000000000000000000000000                    000000000000                                                                                                                                                                                                                                                                                                                                                                                                                                                                                        
00005220029190047DT67590675900000013300800102800000010180010224001193060900011406261022820230000000019906023000000000529434428821XXXXXX7595               2111111   NYV4 A7W463060115246619N84000000000019943CF00    01DNCBD8666317293            211069    VB84000000000199 NP1549977133133   C7E4ADB3B4T648FCD703763  000000000+                S CS 00692                     000000000  N000000000 237   0000000000000.00 0000000.00   0000000.00                             000000000000000                                                                                                                                                     01424 G000000000199 0000000000000.15     02700 01000                  
00005230029190001P16759067590000001330080010280000001010000000000000000                             2000000000000000000000000              000000000000                    0000000000000000000000000                    000000000000                                                                                                                                                                                                                                                                                                                                                                                                                                                                                        
00005240029190048DT67590675900000013300800102800000010180010287287283060900011406270022820230000000019906023000000000529434512507XXXXXX1315                         NY 4607AMCP9R1R580228  N840000000000199          81DNCBD8666317293            525702    MB84000000000199 NP1549977133133   292A8E80ABT17263D6F8FCF  000000000+600450S00130    MCP  00303                     000000000  N                0000000000000.00 0000000.00   0000000.00                             000000000000000                                                                                                                                                   U001424  000000000000 0000000000000.15     02700 01000                  
00005250029190001P1675906759000000133008001028000000101                                                          000000000000          8000            871584967                                                                                                                                                                                                                                                                                                                                                                                                                                                                                                                                                            
00005260029190049DT67590675900000013300800102800000010180010224001193060900011406287022820230000000019906023000000000529434412076XXXXXX1276               2111111   NYV4 A7W303060127268192N840000000000199S2HD00    01DNCBD8666317293            043859    VS84000000000199 NP1549977133133   1925039B49T05CAADF0AD20  000000000+                A CA 12106                     000000000  N000000000 492   0000000000000.00 0000000.00   0000000.00                             000000000000000                                                                                                                                                     01424 G000000000199 0000000000000.14     01890 01000                  
00005270029190001P16759067590000001330080010280000001010000000000000000                             2000000000000000000000000              000000000000                    0000000000000000000000000                    000000000000                                                                                                                                                                                                                                                                                                                                                                                                                                                                                        
00005280029190050DT67590675900000013300800102800000010180010224001193060900011406295022820230000000019906023000000000529434441112XXXXXX9468               2111111   NYV4 A7W303060127904897N840000000000199JFZ200    01DNCBD8666317293            D5T6RC    VD84000000000199 NP1549977133133   B94FCEDC92TE5257A1251AB  000000000+                S PS 10179                     000000000  N000000000 364   0000000000000.00 0000000.00   0000000.00                             000000000000000                                                                                                                                                     01424 G000000000199 0000000000000.15     02650 01000                  
00005290029190001P16759067590000001330080010280000001010000000000000000                             2000000000000000000000000              000000000000                    0000000000000000000000000                    000000000000                                                                                                                                                                                                                                                                                                                                                                                                                                                                                        
00005300029190051DT67590675900000013300800102800000010180010224001193060900011406303022820230000000019906023000000000529434408544XXXXXX8444               2111111   NYV4 A7W463060131570473N840000000000199D87C00    01DNCBD8666317293            477806    VB84000000000199 NP1549977133133   B9CB132B6BTC02C55CD4536  000000000+                K CK 00691                     000000000  N000000000 234   0000000000000.00 0000000.00   0000000.00                             000000000000000                                                                                                                                                     01424 G000000000199 0000000000000.15     02700 01000                  
00005310029190001P16759067590000001330080010280000001010000000000000000                             2000000000000000000000000              000000000000                    0000000000000000000000000                    000000000000                                                                                                                                                                                                                                                                                                                                                                                                                                                                                        
00005320029190052DT67590675900000013300800102800000010180010224001193060900011406311022820230000000019906023000000000529434428803XXXXXX8163               2111111   NYV4 A7W383060132656694N840000000000199R9VZ00    01DNCBD8666317293            043210    VD84000000000199 NP1549977133133   FF5F5FF0DCT41B22EFCEB80  000000000+                S PS 10179                     000000000  N000000000 364   0000000000000.00 0000000.00   0000000.00                             000000000000000                                                                                                                                                     01424 G000000000199 0000000000000.15     02650 01000                  
00005330029190001P16759067590000001330080010280000001010000000000000000                             2000000000000000000000000              000000000000                    0000000000000000000000000                    000000000000                                                                                                                                                                                                                                                                                                                                                                                                                                                                                        
00005340029190053DT67590675900000013300800102800000010180010224001193060900011406329022820230000001844106023000000000529434426684XXXXXX0268               2111111   NYV4 A7W583060133677468N84000000001844132L400    01DNCBD8666317293            07439C    VS84000000018441 NP1549977133133   A34BC58275TFAACF2B99354  000000000+                C CC 12108                     000000000  N000000000 496   0000000000000.00 0000000.00   0000000.00                             000000000000000                                                                                                                                                     01424 G000000018441 0000000000003.88     02050 01000                  
00005350029190001P16759067590000001330080010280000001010000000000000000                             2000000000000000000000000              000000000000                    0000000000000000000000000                    000000000000                                                                                                                                                                                                                                                                                                                                                                                                                                                                                        
00005360029190054DT67590675900000013300800102800000010180010287287283060900011406338022820230000000019906023000000000529434559666XXXXXX5593                         NY 4607AMPLK3Y37P0228  N840000000000199          81DNCBD8666317293            D7U797    MC84000000000199 N  549977133133   6DF6A145AAT1F1BD713B4B7  000000000+600450S00130    MPL  12148                     000000000  N                0000000000000.00 0000000.00   0000000.00                             000000000000000                                                                                                                                                     01424  000000000000 0000000000000.06     01950 00200                  
00005370029190055DT67590675900000013300800102800000010180010287287283060900011406353022820230000002106206023000000000529434516648XXXXXX0501       ME03KE06MS02      NY 4607AMCSK56N7P0228  N840000000021062          81DNCBD8666317293            028739    MC84000000021062 N  549977133133   F7EA92D363T51A7D1A7C398  000000000+600450S00130    MCS  00013                     000000000  N                0000000000000.00 0000000.00   0000000.00                             000000000000000                                                                                                                                                   U001424  000000000000 0000000000004.21     01950 01000                  
00005380029190056DT67590675900000013300800102800000010180010287287283060900011406361022820230000000529906023000000000529434516648XXXXXX0501       ME03KE06MS02      NY 4607AMCSO26ZAF0228  N840000000005299          81DNCBD8666317293            028979    MC84000000005299 N  549977133133   F7EA92D363TCC7B13981937  000000000+600450S00130    MCS  00013                     000000000  N                0000000000000.00 0000000.00   0000000.00                             000000000000000                                                                                                                                                   U001424  000000000000 0000000000001.13     01950 01000                  
00005390029190057DT67590675900000013300800102800000010180010287287283060900011406379022820230000000339106023000000000529434516648XXXXXX0501       ME03KE06MS02      NY 4607AMCSK6467P0228  N840000000003391          81DNCBD8666317293            028217    MC84000000003391 N  549977133133   F7EA92D363T21852E1A0F79  000000000+600450S00130    MCS  00013                     000000000  N                0000000000000.00 0000000.00   0000000.00                             000000000000000                                                                                                                                                   U001424  000000000000 0000000000000.76     01950 01000                  
00005400029190058DT67590675900000013300800102800000010180010287287283060900011406395022820230000000137306023000000000529434516648XXXXXX0501       ME03KE06MS02      NY 4607AMCSD1BK590228  N840000000001373          81DNCBD8666317293            028168    MC84000000001373 N  549977133133   F7EA92D363T1E5EB67E250A  000000000+600450S00130    MCS  00013                     000000000  N                0000000000000.00 0000000.00   0000000.00                             000000000000000                                                                                                                                                   U001424  000000000000 0000000000000.37     01950 01000                  
00005410029190059DT67590675900000013300800102800000010180010224001193060900011406402022820230000000019906023000000000529434408544XXXXXX6858               2111111   NYV4 A7W383060140434959N840000000000199G4K700    01DNCBD8666317293            526338    VB84000000000199 NP1549977133133   502D1FA648T78F128A40630  000000000+                K CK 00691                     000000000  N000000000 234   0000000000000.00 0000000.00   0000000.00                             000000000000000                                                                                                                                                     01424 G000000000199 0000000000000.15     02700 01000                  
00005420029190001P16759067590000001330080010280000001010000000000000000                             2000000000000000000000000              000000000000                    0000000000000000000000000                    000000000000                                                                                                                                                                                                                                                                                                                                                                                                                                                                                        
00005430029190060DT67590675900000013300800102800000010180010224001193060900011406444022820230000002657406023000000000529434426628XXXXXX4146               2111111   NYV4 A7W303060158653529N840000000026574RM7H00    01DNCBD8666317293            028582    VD84000000026574 NP1549977133133   4333E6D4A7TC85505E9D82D  000000000+                F DF 10420                     000000000  Y000000000 338   0000000000000.00 0000000.00   0000000.00                             000000000000000                                                                                                                                                     01424 G000000026574 0000000000000.35     00050 02200                  
00005440029190001P16759067590000001330080010280000001010000000000000000                             2000000000000000000000000              000000000000                    0000000000000000000000000                    000000000000                                                                                                                                                                                                                                                                                                                                                                                                                                                                                        
00005450029190061DT67590675900000013300800102800000010180010224001193060900011406477030120230000002023506023000000000529434434256XXXXXX9685               2111111   NYV4 A7W463060231967109N840000000020235F3K700    01DNCBD8666317293            089267    VD84000000020235 NP1549977133133   F169C1D4D6T6A82505FD650  000000000+                F DF 10420                     000000000  Y000000000 338   0000000000000.00 0000000.00   0000000.00                             000000000000000                                                                                                                                                     01424 G000000020235 0000000000000.32     00050 02200                  
00005460029190001P16759067590000001330080010280000001010000000000000000                             2000000000000000000000000              000000000000                    0000000000000000000000000                    000000000000                                                                                                                                                                                                                                                                                                                                                                                                                                                                                        
00005470029190062DT67590675900000013300800102800000010680010274001193060900011406480030120230000001499106023000000000529434444796XXXXXX8725               0000000   NYV4 07T463060261109155N84000000001499144N900    01CNCBD8666317293            001890    VS84000000014991 NP1549977133133   DA0414F825TAE3DD3054227  000000000+                A CA 00245                     000000000  N000000000 166   0000000000000.00 0000000.00   0000000.00                             000000000000000                                                                                                                                                     01424  000000014991-0000000000002.64     01760 00000                  
00005480029190001P16759067590000001330080010280000001060000000000000000                             2000000000000000000000000              000000000000                    0000000000000000000000000                    000000000000                                                                                                                                                                                                                                                                                                                                                                                                                                                                                        
00005490029190063DT67590675900000013300800102800000010180010287287283060900011406494030120230000000499906023000000000529434546645XXXXXX8657       ME03KE06MS02      NY 4607AMPLXKNOA10301  N840000000004999          81DNCBD8666317293            001672    MC84000000004999 N  549977133133   2EA8F89031T29C966484643  000000000+600450S00130    MPL  00013                     000000000  N                0000000000000.00 0000000.00   0000000.00                             000000000000000                                                                                                                                                   U001424  000000000000 0000000000001.07     01950 01000                  
00005500029190064DT67590675900000013300800102800000010180010287287283060900011406502030120230000000149506023000000000529434546645XXXXXX8657       ME03KE06MS02      NY 4607AMPL08NS5I0301  N840000000001495          81DNCBD8666317293            001826    MC84000000001495 N  549977133133   2EA8F89031T361526617B00  000000000+600450S00130    MPL  00013                     000000000  N                0000000000000.00 0000000.00   0000000.00                             000000000000000                                                                                                                                                   U001424  000000000000 0000000000000.39     01950 01000                  
00005510029190065DT67590675900000013300800102800000010180010224001193060900011406535030120230000002698406023000000000529434428733XXXXXX6329               2111111   NYV4 A7W383060307065422N840000000026984F3GF00    01DNCBD8666317293            003146    VD84000000026984 NP1549977133133   459C82E2F4T8253DF2C677A  000000000+                F DF 00415                     000000000  N000000000       0000000000000.00 0000000.00   0000000.00                             000000000000000                                                                                                                                                     01424 G000000026984 0000000000004.60     01650 01500                  
00005520029190001P16759067590000001330080010280000001010000000000000000                             2000000000000000000000000              000000000000                    0000000000000000000000000                    000000000000                                                                                                                                                                                                                                                                                                                                                                                                                                                                                        
00005530029190066DT67590675900000013300800102800000010180010287287283060900011406585030120230000002106206023000000000529434528725XXXXXX9609       ME03KE06MS02      NY 4607AMDJSHZ7SK0301  N840000000021062          81DNCBD8666317293            063840    MD84000000021062 N  549977133133   44AB51C435T6C081AA171CD  000000000+600450S00130    MDJ  00401                     000000000  N                0000000000000.00 0000000.00   0000000.00                             000000000000000                                                                                                                                                   U001424  000000000000 0000000000003.63     01650 01500                  
00005540029190067DT67590675900000013300800102800000010180010224001193060900011406592030120230000000149506023000000000529434409259XXXXXX4807               2111111   NYV4 A7W383060438068143N840000000001495V8FP00    01DNCBD8666317293            823802    VD84000000001495 NP1549977133133   4FB84DD287TCFA248337CA9  000000000+                F DF 00415                     000000000  N000000000       0000000000000.00 0000000.00   0000000.00                             000000000000000                                                                                                                                                     01424 G000000001495 0000000000000.40     01650 01500                  
00005550029190001P16759067590000001330080010280000001010000000000000000                             2000000000000000000000000              000000000000                    0000000000000000000000000                    000000000000                                                                                                                                                                                                                                                                                                                                                                                                                                                                                        
00005560029190068DT67590675900000013300800102800000010180010224001193060900011406667030120230000001351706023000000000529434443047XXXXXX9754               2111111   NYV4 A7W463060468240387N840000000013517T8KN00    01DNCBD8666317293            331428    VD84000000013517 NP1549977133133   E489ABBEE9T5FA2CDDE162C  000000000+                F DF 10420                     000000000  Y000000000 338   0000000000000.00 0000000.00   0000000.00                             000000000000000                                                                                                                                                     01424 G000000013517 0000000000000.29     00050 02200                  
00005570029190001P16759067590000001330080010280000001010000000000000000                             2000000000000000000000000              000000000000                    0000000000000000000000000                    000000000000                                                                                                                                                                                                                                                                                                                                                                                                                                                                                        
00005580029190069DT67590675900000013300800102800000010180010224001193060900011406691030120230000001987006023000000000529434469451XXXXXX0143               2111111   NYV4 A7W383060480483124N840000000019870N62B00    01DNCBD8666317293            486228    VS84000000019870 NP1549977133133   EB2D415E64T73D9E975E208  000000000+                D CD 12109                     000000000  N000000000 498   0000000000000.00 0000000.00   0000000.00                             000000000000000                                                                                                                                                     01424 G000000019870 0000000000005.07     02500 01000                  
00005590029190001P16759067590000001330080010280000001010000000000000000                             2000000000000000000000000              000000000000                    0000000000000000000000000                    000000000000                                                                                                                                                                                                                                                                                                                                                                                                                                                                                        
00005600029190070DT67590675900000013300800102800000010180010224001193060900011406717030120230000001987006023000000000529434414740XXXXXX0141               2111111   NYV4 A7W303060496344222N84000000001987042HB00    01DNCBD8666317293            01426D    VS84000000019870 NP1549977133133   68E60F039BT6653670029CA  000000000+                D CD 12109                     000000000  N000000000 498   0000000000000.00 0000000.00   0000000.00                             000000000000000                                                                                                                                                     01424 G000000019870 0000000000005.07     02500 01000                  
00005610029190001P16759067590000001330080010280000001010000000000000000                             2000000000000000000000000              000000000000                    0000000000000000000000000                    000000000000                                                                                                                                                                                                                                                                                                                                                                                                                                                                                        
00005620029190071DT67590675900000013300800102800000010180010224001193060900011406733030120230000001799106023000000000529434448233XXXXXX3074               2111111   NYV4 A7W463060510991528N840000000017991GJ5M00    01DNCBD8666317293            081140    VD84000000017991 NP1549977133133   83A787A591T768B99B7DDA1  000000000+                F DF 10420                     000000000  Y000000000 338   0000000000000.00 0000000.00   0000000.00                             000000000000000                                                                                                                                                     01424 G000000017991 0000000000000.31     00050 02200                  
00005630029190001P16759067590000001330080010280000001010000000000000000                             2000000000000000000000000              000000000000                    0000000000000000000000000                    000000000000                                                                                                                                                                                                                                                                                                                                                                                                                                                                                        
00005640029190072DT67590675900000013300800102800000010680010274001193060900011406746030120230000000500006023000000000529434449289XXXXXX4374               0000000   NYV4 07T303060512219199N840000000005000KLGT00    01CNCBD8666317293            121508    VD84000000005000 NP1549977133133   C5BF9B048CT87E56D985BBF  000000000+                F DF 08168                     000000000  N000000000 369   0000000000000.00 0000000.00   0000000.00                             000000000000000                                                                                                                                                     01424  000000005000 0000000000000.00     00000 00000                  
00005650029190001P16759067590000001330080010280000001060000000000000000                             2000000000000000000000000              000000000000                    0000000000000000000000000                    000000000000                                                                                                                                                                                                                                                                                                                                                                                                                                                                                        
00005660029190073DT67590675900000013300800102800000010180010224001193060900011406782030120230000001987006023000000000529434449635XXXXXX1787               2111111   NYV4 A7W463060519130711N840000000019870QM6K00    01DNCBD8666317293            092513    VD84000000019870 NP1549977133133   1596180900T150F7A81D8CC  000000000+                F DF 00415                     000000000  N000000000       0000000000000.00 0000000.00   0000000.00                             000000000000000                                                                                                                                                     01424 G000000019870 0000000000003.43     01650 01500                  
00005670029190001P16759067590000001330080010280000001010000000000000000                             2000000000000000000000000              000000000000                    0000000000000000000000000                    000000000000                                                                                                                                                                                                                                                                                                                                                                                                                                                                                        
00005680029190074DT67590675900000013300800102800000010180010224001193060900011406808030120230000002661106023000000000529434429362XXXXXX5021               2111111   NYV4 A7W463060519183190N8400000000266115CW600    01DNCBD8666317293            126234    VD84000000026611 NP1549977133133   111A142286T566EEB704816  000000000+                F DF 00415                     000000000  N000000000       0000000000000.00 0000000.00   0000000.00                             000000000000000                                                                                                                                                     01424 G000000026611 0000000000004.54     01650 01500                  
00005690029190001P16759067590000001330080010280000001010000000000000000                             2000000000000000000000000              000000000000                    0000000000000000000000000                    000000000000                                                                                                                                                                                                                                                                                                                                                                                                                                                                                        
00005700029190075DT67590675900000013300800102800000010680010274001193060900011406829030120230000000993506023000000000529434449635XXXXXX1787               0000000   NYV4 07T303060528067701N840000000009935RKZ585    01CNCBD8666317293            069785    VD84000000009935 NP1549977133133   1596180900T150F7A81D8CC  000000000+                F DF 08168                     000000000  N000000000 369   0000000000000.00 0000000.00   0000000.00                             000000000000000                                                                                                                                                     01424  000000009935 0000000000000.00     00000 00000                  
00005710029190001P16759067590000001330080010280000001060000000000000000                             2000000000000000000000000              000000000000                    0000000000000000000000000                    000000000000                                                                                                                                                                                                                                                                                                                                                                                                                                                                                        
00005720029190076DT67590675900000013300800102800000010180010224001193060900011406832030120230000001615306023000000000529434423901XXXXXX3888               2111111   NYV4 A7W303060529669094N840000000016153XJFS00    01DNCBD8666317293            343723    VD84000000016153 NP1549977133133   714F3AB46DTAEB9947CBE30  000000000+                F DF 10420                     000000000  Y000000000 338   0000000000000.00 0000000.00   0000000.00                             000000000000000                                                                                                                                                     01424 G000000016153 0000000000000.30     00050 02200                  
00005730029190001P16759067590000001330080010280000001010000000000000000                             2000000000000000000000000              000000000000                    0000000000000000000000000                    000000000000                                                                                                                                                                                                                                                                                                                                                                                                                                                                                        
00005740029190077DT67590675900000013300800102800000010180010224001193060900011406865030120230000002179706023000000000529434472356XXXXXX6822               2111111   NYV4 A7W303060578010156N840000000021797S3K300    01DNCBD8666317293            003286    VD84000000021797 NP1549977133133   F679347A17TDD0D706A6947  000000000+                F DF 00415                     000000000  N000000000       0000000000000.00 0000000.00   0000000.00                             000000000000000                                                                                                                                                     01424 G000000021797 0000000000003.75     01650 01500                  
00005750029190001P16759067590000001330080010280000001010000000000000000                             2000000000000000000000000              000000000000                    0000000000000000000000000                    000000000000                                                                                                                                                                                                                                                                                                                                                                                                                                                                                        
00005760029190078DT67590675900000013300800102800000010180010224001193060900011406873030120230000002920306023000000000529434443597XXXXXX9579               2111111   NYV4 A7W303060591832706N840000000029203G5M400    01DNCBD8666317293            064471    VD84000000029203 NP1549977133133   469856B643TFD3BA72D6763  000000000+                F DF 00415                     000000000  N000000000       0000000000000.00 0000000.00   0000000.00                             000000000000000                                                                                                                                                     01424 G000000029203 0000000000004.97     01650 01500                  
00005770029190001P16759067590000001330080010280000001010000000000000000                             2000000000000000000000000              000000000000                    0000000000000000000000000                    000000000000                                                                                                                                                                                                                                                                                                                                                                                                                                                                                        
00005780029190079DT67590675900000013300800102800000010180010224001193060900011406881030120230000002755006023000000000529434427082XXXXXX6987               2111111   NYV4 A7W583060598420662N840000000027550NQ8P00    01DNCBD8666317293            001669    VS84000000027550 NP1549977133133   2BB3D11F95TBB7391AB9705  000000000+                D CD 12109                     000000000  N000000000 498   0000000000000.00 0000000.00   0000000.00                             000000000000000                                                                                                                                                     01424 G000000027550 0000000000006.99     02500 01000                  
00005790029190001P16759067590000001330080010280000001010000000000000000                             2000000000000000000000000              000000000000                    0000000000000000000000000                    000000000000                                                                                                                                                                                                                                                                                                                                                                                                                                                                                        
00005800029190080DT67590675900000013300800102800000010680010274001193060900011406894030120230000001421206023000000000529434443597XXXXXX9579               0000000   NYV4 07T303060601822254N8400000000142125RW700    01CNCBD8666317293            918695    VD84000000014212 NP1549977133133   469856B643TFD3BA72D6763  000000000+                F DF 08168                     000000000  N000000000 369   0000000000000.00 0000000.00   0000000.00                             000000000000000                                                                                                                                                     01424  000000014212 0000000000000.00     00000 00000                  
00005810029190001P16759067590000001330080010280000001060000000000000000                             2000000000000000000000000              000000000000                    0000000000000000000000000                    000000000000                                                                                                                                                                                                                                                                                                                                                                                                                                                                                        
00005820029190081DT67590675900000013300800102800000010680010274001193060900011406902030120230000001132606023000000000529434431196XXXXXX3979               0000000   NYV4 07T463060616493047N840000000011326RWVQ00    01CNCBD8666317293            001372    VS84000000011326 NP1549977133133   DA85DBDF9ETD2D23B490079  000000000+                B CB 00245                     000000000  N000000000 166   0000000000000.00 0000000.00   0000000.00                             000000000000000                                                                                                                                                     01424  000000011326-0000000000001.99     01760 00000                  
