02666690572750002BH6759067590000000288180088880000090171125202232922000000000066244    0000090001050022Y8008886759C11282022                                                                                                                                                                                                                                                                                                                                                                                                                                                                                                                                                                                                 
02666700572750003DT67590675900000002881800888800000010180088824001192329900010500170112420220000000334932922000000000066244414718XXXXXX7977               2111111   NYV4 A7W582329044938179N840000000003349HZFZ00    01DNTENNESSEE TRADING POST   024928    VS84000000003349 NP1549976044904   1836                     000000000+                D CD 12109                     000000000  N000000000 498   0000000000000.00 0000000.00   0000000.00                             000000000000000                                                                                                                                                     01424 G000000003349 0000000000000.94     02500 01000                  
02666710572750001P16759067590000000288180088880000001010000000000000000                             2000000000000000000000000              000000000000                    0000000000000000000000000                    000000000000                                                                                                                                                                                                                                                                                                                                                                                                                                                                                        
02666720572750004DT67590675900000002881800888800000010180088824001192329900010500188112420220000000395132922000000000066244455225XXXXXX3944               2111111   NYV4 A7W462329055678728N840000000003951D5FJ00    01DNTENNESSEE TRADING POST   H97266    VD84000000003951 NP1549976044904   1837                     000000000+                F DF 10420                     000000000  Y000000000 338   0000000000000.00 0000000.00   0000000.00                             000000000000000                                                                                                                                                     01424 G000000003951 0000000000000.24     00050 02200                  
02666730572750001P16759067590000000288180088880000001010000000000000000                             2000000000000000000000000              000000000000                    0000000000000000000000000                    000000000000                                                                                                                                                                                                                                                                                                                                                                                                                                                                                        
02666740572750005DT67590675900000002881800888800000010180088824001192329900010500196112520220000000423632922000000000066244415976XXXXXX4040               2111111   NYV4 A7W382329384167983N84000000000423665XB00    01DNTENNESSEE TRADING POST   097595    VD84000000004236 NP1549976044904   1838                     000000000+                F DF 10420                     000000000  Y000000000 338   0000000000000.00 0000000.00   0000000.00                             000000000000000                                                                                                                                                     01424 G000000004236 0000000000000.24     00050 02200                  
02666750572750001P16759067590000000288180088880000001010000000000000000                             2000000000000000000000000              000000000000                    0000000000000000000000000                    000000000000                                                                                                                                                                                                                                                                                                                                                                                                                                                                                        
02666760572750006DT67590675900000002881800888800000010180088824001192329900010500204112520220000001176432922000000000066244404227XXXXXX3908               2111111   NYV4 A7W302329583726057N840000000011764GTNJ00    01DNTENNESSEE TRADING POST   363235    VD84000000011764 NP1549976044904   1839                     000000000+                F DF 00415                     000000000  N000000000       0000000000000.00 0000000.00   0000000.00                             000000000000000                                                                                                                                                     01424 G000000011764 0000000000002.09     01650 01500                  
02666770572750001P16759067590000000288180088880000001010000000000000000                             2000000000000000000000000              000000000000                    0000000000000000000000000                    000000000000                                                                                                                                                                                                                                                                                                                                                                                                                                                                                        
02666780572750007DT67590675900000002881800888800000010180088824001192329900010500212112520220000003222532922000000000066244448915XXXXXX3091               2111111   NYV4 A7W582329653586947N840000000032225RDD200    01DNTENNESSEE TRADING POST   025633    VS84000000032225 NP1549976044904   1840                     000000000+                D CD 12109                     000000000  N000000000 498   0000000000000.00 0000000.00   0000000.00                             000000000000000                                                                                                                                                     01424 G000000032225 0000000000008.16     02500 01000                  
02666790572750001P16759067590000000288180088880000001010000000000000000                             2000000000000000000000000              000000000000                    0000000000000000000000000                    000000000000                                                                                                                                                                                                                                                                                                                                                                                                                                                                                        
02666800572750008DT67590675900000002881800888800000010180088887287282329900010500221112520220000001071932922000000000066244552433XXXXXX8387       ME03KE06MS02      NY 4607AMPLAJR0DE1125  N840000000010719          81DNTENNESSEE TRADING POST   00244M    MC84000000010719 N  549976044904   1841                     000000000+600450S00130    MPL  00580                     000000000  N                0000000000000.00 0000000.00   0000000.00                             000000000000000                                                                                                                                                   U001424  000000000000 0000000000002.35     02100 01000                  
02666810585690002BH6759067590000000288180088880000090171127202233122000000000033872    0000090001060028N8008886759C11282022                                                                                                                                                                                                                                                                                                                                                                                                                                                                                                                                                                                                 
02666820585690003DT67590675900000002881800888800000010180088876509752331900010600230112520220000000535933122000000000033872601129XXXXXX2384   BA00                  NY 4 07N812284151249816N840000000005359    00    01DNTENNESSEE TRADING POST   02592R    DS84000000005359 N  549976044904070                         000000000+1015104910600   DCCDI11325202001  200524000000 000000000  0          460   0000000000000.00 0000000.00   0000000.00                             000000000000000                                                                                                                                                     01418  000000000000 0000000000001.19     02030 01000                  
02666830585690004DT67590675900000002881800888800000010180088824001192331900010600240112520220000000334833122000000000033872414720XXXXXX3134               2111111   NYV4 A7W302330102395446N840000000003348TWZB00    01DNTENNESSEE TRADING POST   01199C    VS84000000003348 NP1549976044904   1843                     000000000+                C CC 12108                     000000000  N000000000 496   0000000000000.00 0000000.00   0000000.00                             000000000000000                                                                                                                                                     01418 G000000003348 0000000000000.79     02050 01000                  
02666840585690001P16759067590000000288180088880000001010000000000000000                             2000000000000000000000000              000000000000                    0000000000000000000000000                    000000000000                                                                                                                                                                                                                                                                                                                                                                                                                                                                                        
02666850585690005DT67590675900000002881800888800000010180088887287282330900010600259112520220000001024833122000000000033872517895XXXXXX5415       ME03KE06MS02      NY 4607AMDJCEU0XR1125  N840000000010248          81DNTENNESSEE TRADING POST   203831    MD84000000010248 N  549976044904   1844                     000000000+600450S00130    MDJ  00401                     000000000  N                0000000000000.00 0000000.00   0000000.00                             000000000000000                                                                                                                                                   U001418  000000000000 0000000000001.84     01650 01500                  
02666860585690006DT67590675900000002881800888800000010180088824001192331900010600265112620220000000535933122000000000033872421043XXXXXX8238               2111111   NYV4 A7W462330470235817N8400000000053599P8W00    01DNTENNESSEE TRADING POST   293100    VD84000000005359 NP1549976044904   1845                     000000000+                F DF 00415                     000000000  N000000000       0000000000000.00 0000000.00   0000000.00                             000000000000000                                                                                                                                                     01418 G000000005359 0000000000001.03     01650 01500                  
02666870585690001P16759067590000000288180088880000001010000000000000000                             2000000000000000000000000              000000000000                    0000000000000000000000000                    000000000000                                                                                                                                                                                                                                                                                                                                                                                                                                                                                        
02666880585690007DT67590675900000002881800888800000010180088824001192331900010600273112620220000000588233122000000000033872422921XXXXXX1855               2111111   NYV4 A7W462330547891605N840000000005882XL2D00    01DNTENNESSEE TRADING POST   036790    VD84000000005882 NP1549976044904   1846                     000000000+                F DF 00415                     000000000  N000000000       0000000000000.00 0000000.00   0000000.00                             000000000000000                                                                                                                                                     01418 G000000005882 0000000000001.12     01650 01500                  
02666890585690001P16759067590000000288180088880000001010000000000000000                             2000000000000000000000000              000000000000                    0000000000000000000000000                    000000000000                                                                                                                                                                                                                                                                                                                                                                                                                                                                                        
02666900585690008DT67590675900000002881800888800000010180088887287282330900010600283112620220000000367633122000000000033872524300XXXXXX8004       ME03KE06MS02      NY 4607AMPLL13U531126  N840000000003676          81DNTENNESSEE TRADING POST   02655B    MC84000000003676 N  549976044904   1847                     000000000+600450S00130    MPL  00580                     000000000  N                0000000000000.00 0000000.00   0000000.00                             000000000000000                                                                                                                                                   U001418  000000000000 0000000000000.87     02100 01000                  
02666910601230002BH6759067590000000215480088880000090171127202233122000000000015750    0000090001478203N8008886759C11282022                                                                                                                                                                                                                                                                                                                                                                                                                                                                                                                                                                                                 
02666920601230003DT67590675900000002154800888800000010180088824001192331900014782036112720220000001575033122000000000015750485291XXXXXX2898               2111111   NYV4 A7W582331725142899N8400000000157507QJ600    01DNDRIP DROP DISTRO LLC     905686    VD84000000015750 NP1519971004114   INV-27443                000000000+                G DG 08705                     000000000  N000000000       0000000000000.00 0000000.00   0000000.00                             000000000000000                                                                                                                                                     01418 G000000015750 0000000000003.96     02450 01000                  
02666930601230001P16759067590000000215480088880000001010000000000000000    43784773729              2000000000000000000000000              000000000000                    0000000000000000000000000                    000000000000                                                                                                                                                                                                                                                                                                                                                                                                                                                                                        
02666940601230004BH6759067590000000288180088880000090171127202233122000000000014394    0000090001070030N8008886759C11282022                                                                                                                                                                                                                                                                                                                                                                                                                                                                                                                                                                                                 
02666950601230005DT67590675900000002881800888800000010180088824001192331900010700297112620220000001071833122000000000014394414720XXXXXX0971               2111111   NYV4 A7W462331185702553N840000000010718T2QJ00    01DNTENNESSEE TRADING POST   07926D    VS84000000010718 NP1549976044904   1848                     000000000+                D CD 12109                     000000000  N000000000 498   0000000000000.00 0000000.00   0000000.00                             000000000000000                                                                                                                                                     01418 G000000010718 0000000000002.78     02500 01000                  
02666960601230001P16759067590000000288180088880000001010000000000000000                             2000000000000000000000000              000000000000                    0000000000000000000000000                    000000000000                                                                                                                                                                                                                                                                                                                                                                                                                                                                                        
02666970601230006DT67590675900000002881800888800000010180088887287282331900010700306112720220000000367633122000000000014394524300XXXXXX8004       ME03KE06MS02      NY 4607AMPLGP7G4Y1127  N840000000003676          81DNTENNESSEE TRADING POST   02779B    MC84000000003676 N  549976044904   1849                     000000000+600450S00130    MPL  00580                     000000000  N                0000000000000.00 0000000.00   0000000.00                             000000000000000                                                                                                                                                   U001418  000000000000 0000000000000.87     02100 01000                  
