00005360627150002BH6759067590000000561180088880000090170327202308623000000000004490    0000090001332020Y8008886759C03282023                                                                                                                                                                                                                                                                                                                                                                                                                                                                                                                                                                                                 
00005370627150003DT67590675900000005611800888800000010180088824001193086900013320205032720230000000449008623000000000004490436618XXXXXX0268               2111111   NYV4 A7W303085844200714N840000000004490L7S300    01DNK DIVINE 503-689-7182    015110    VD84000000004490 NP1549971004114   44022385871              000000000+                F DF 10420                     000000000  Y000000000 338   0000000000000.00 0000000.00   0000000.00                             000000000000000                                                                                                                                                     01424 G000000004490 0000000000000.24     00050 02200                  
00005380627150001P16759067590000000561180088880000001010000000000000000                             2000000000000000000000000              000000000000                    0000000000000000000000000                    000000000000                                                                                                                                                                                                                                                                                                                                                                                                                                                                                        
00005390627150004BH6759067590000000288180088880000090170327202308623000000000003286    0000090001850164Y8008886759C03282023                                                                                                                                                                                                                                                                                                                                                                                                                                                                                                                                                                                                 
00005400627150005DT67590675900000002881800888800000010180088824001193086900018501643032720230000000328608623000000000003286473703XXXXXX8590               2111111   NYV4 A7W463086553451727N8400000000032869BJV00    01DNHAPPY HIPPIE             066724    VD84000000003286 NP1549976044904   1982                     000000000+                F DF 10420                     000000000  Y000000000 338   0000000000000.00 0000000.00   0000000.00                             000000000000000                                                                                                                                                     01424 G000000003286 0000000000000.24     00050 02200                  
00005410627150001P16759067590000000288180088880000001010000000000000000                             2000000000000000000000000              000000000000                    0000000000000000000000000                    000000000000                                                                                                                                                                                                                                                                                                                                                                                                                                                                                        
00005420627150006BH6759067590000001427480010280000090170327202308623000000000456798    0000090001403483Y8001026759C03282023                                                                                                                                                                                                                                                                                                                                                                                                                                                                                                                                                                                                 
00005430627150007DT67590675900000014274800102800000010180010224001193086900014030399032620230000000636408623000000000456798430604XXXXXX4148               2111111   NYV4 A7W583082366059695N8400000000063648D3900    01DNCBD8666317293            001942    VD84000000006364 NP1549977145232   4320A05793TB1D8AC16D996  000000000+                F DF 00415                     000000000  N000000000       0000000000000.00 0000000.00   0000000.00                             000000000000000                                                                                                                                                     01424 G000000006364 0000000000001.20     01650 01500                  
00005440627150001P16759067590000001427480010280000001010000000000000000                             2000000000000000000000000              000000000000                    0000000000000000000000000                    000000000000                                                                                                                                                                                                                                                                                                                                                                                                                                                                                        
00005450627150008DT67590675900000014274800102800000010180010224001193086900014030811032620230000001918308623000000000456798418702XXXXXX2579               2111111   NYV4 A7W463082780041640N840000000019183L26V00    01DNCBD8666317293            306009    VD84000000019183 NP1549977145232   07938FFBF9T77FC3D80CEA0  000000000+                F PF 08175                     000000000  N000000000       0000000000000.00 0000000.00   0000000.00                             000000000000000                                                                                                                                                     01424 G000000019183 0000000000003.56     01750 02000                  
00005460627150001P16759067590000001427480010280000001010000000000000000                             2000000000000000000000000              000000000000                    0000000000000000000000000                    000000000000                                                                                                                                                                                                                                                                                                                                                                                                                                                                                        
00005470627150009DT67590675900000014274800102800000010180010224001193086900014030985032620230000002106208623000000000456798448915XXXXXX9827               2111111   NYV4 A7W383082846050884N840000000021062W8PH00    01DNCBD8666317293            023085    VS84000000021062 NP1549977145232   A4C0264C22T2740D39DEA50  000000000+                C CC 12108                     000000000  N000000000 496   0000000000000.00 0000000.00   0000000.00                             000000000000000                                                                                                                                                     01424 G000000021062 0000000000004.42     02050 01000                  
00005480627150001P16759067590000001427480010280000001010000000000000000                             2000000000000000000000000              000000000000                    0000000000000000000000000                    000000000000                                                                                                                                                                                                                                                                                                                                                                                                                                                                                        
00005490627150010DT67590675900000014274800102800000010180010287287283086900014031018032620230000001499108623000000000456798555689XXXXXX4517       ME03KE06MS02      NY 4607AMPL267P300323  N840000000014991          81DNCBD8666317293            023326    MC84000000014991 N  549977145232   165C68E19CT201278C0BDD6  000000000+600450S00130    MPL  00013                     000000000  N                0000000000000.00 0000000.00   0000000.00                             000000000000000                                                                                                                                                   U001424  000000000000 0000000000003.02     01950 01000                  
00005500627150011DT67590675900000014274800102800000010180010287287283086900014031091032620230000002487008623000000000456798542539XXXXXX2796       ME03KE06MS02      NY 4607AMPLMDS39X0323  N840000000024870          81DNCBD8666317293            023447    MC84000000024870 N  549977145232   4CF1BDB78FT604EC849DE58  000000000+600450S00130    MPL  00013                     000000000  N                0000000000000.00 0000000.00   0000000.00                             000000000000000                                                                                                                                                   U001424  000000000000 0000000000004.95     01950 01000                  
00005510627150012DT67590675900000014274800102800000010180010224001193086900014033823032620230000001314308623000000000456798438857XXXXXX1697               2111111   NYV4 A7W583086005015590N8400000000131432VVH00    01DNCBD8666317293            04657D    VS84000000013143 NP1549977145232   8885C31885TDF09A1F301FF  000000000+                D CD 12109                     000000000  N000000000 498   0000000000000.00 0000000.00   0000000.00                             000000000000000                                                                                                                                                     01424 G000000013143 0000000000003.39     02500 01000                  
00005520627150001P16759067590000001427480010280000001010000000000000000                             2000000000000000000000000              000000000000                    0000000000000000000000000                    000000000000                                                                                                                                                                                                                                                                                                                                                                                                                                                                                        
00005530627150013DT67590675900000014274800102800000010180010224001193086900014033880032620230000002229908623000000000456798440066XXXXXX1761               2111111   NYV4 A7W463086030052874N8400000000222997TSR00    01DNCBD8666317293            04831D    VS84000000022299 NP1549977145232   19203C509DT92BD034834B8  000000000+                D CD 12109                     000000000  N000000000 498   0000000000000.00 0000000.00   0000000.00                             000000000000000                                                                                                                                                     01424 G000000022299 0000000000005.67     02500 01000                  
00005540627150001P16759067590000001427480010280000001010000000000000000                             2000000000000000000000000              000000000000                    0000000000000000000000000                    000000000000                                                                                                                                                                                                                                                                                                                                                                                                                                                                                        
00005550627150014DT67590675900000014274800102800000010180010224001193086900014033906032620230000002106208623000000000456798410039XXXXXX7563               2111111   NYV4 A7W583086043835039N840000000021062FWVS00    01DNCBD8666317293            69662D    VS84000000021062 NP1549977145232   7FE2330738TF0106BE93476  000000000+                D CD 12109                     000000000  N000000000 498   0000000000000.00 0000000.00   0000000.00                             000000000000000                                                                                                                                                     01424 G000000021062 0000000000005.37     02500 01000                  
00005560627150001P16759067590000001427480010280000001010000000000000000                             2000000000000000000000000              000000000000                    0000000000000000000000000                    000000000000                                                                                                                                                                                                                                                                                                                                                                                                                                                                                        
00005570627150015DT67590675900000014274800102800000010180010224001193086900014033930032620230000001987008623000000000456798414740XXXXXX7555               2111111   NYV4 A7W303086075719540N840000000019870BBCZ00    01DNCBD8666317293            08357C    VS84000000019870 NP1549977145232   76AB4171EDT0A910533ADFC  000000000+                C CC 12108                     000000000  N000000000 496   0000000000000.00 0000000.00   0000000.00                             000000000000000                                                                                                                                                     01424 G000000019870 0000000000004.17     02050 01000                  
00005580627150001P16759067590000001427480010280000001010000000000000000                             2000000000000000000000000              000000000000                    0000000000000000000000000                    000000000000                                                                                                                                                                                                                                                                                                                                                                                                                                                                                        
00005590627150016DT67590675900000014274800102800000010180010287287283086900014033949032620230000002080608623000000000456798514377XXXXXX1678       ME03KE06MS02      NY 4607AMDJFVAEOO0326  N840000000020806          81DNCBD8666317293            13RBCB    MD84000000020806 N  549977145232   1CB1EF217ET0C8A8404AFD0  000000000+600450S00130    MDJ  00401                     000000000  N                0000000000000.00 0000000.00   0000000.00                             000000000000000                                                                                                                                                   U001424  000000000000 0000000000003.58     01650 01500                  
00005600627150017DT67590675900000014274800102800000010180010224001193086900014033997032620230000002732008623000000000456798440066XXXXXX0025               2111111   NYV4 A7W383086138046803N8400000000273206DWB00    01DNCBD8666317293            03951A    VS84000000027320 NP1549977145232   741FEB08A7T206D9DE2165B  000000000+                A CA 12106                     000000000  N000000000 492   0000000000000.00 0000000.00   0000000.00                             000000000000000                                                                                                                                                     01424 G000000027320 0000000000005.26     01890 01000                  
00005610627150001P16759067590000001427480010280000001010000000000000000                             2000000000000000000000000              000000000000                    0000000000000000000000000                    000000000000                                                                                                                                                                                                                                                                                                                                                                                                                                                                                        
00005620627150018DT67590675900000014274800102800000010180010287287283086900014034053032720230000001569708623000000000456798512230XXXXXX4415       ME03KE06MS02      NY 4607AMWEPBPSQA0327  N840000000015697          81DNCBD8666317293            79564Z    MC84000000015697 N  549977145232   7B33B7936CT77EDDBDA9ABF  000000000+600450S00130    MWE  00737                     000000000  N                0000000000000.00 0000000.00   0000000.00                             000000000000000                                                                                                                                                   U001424  000000000000 0000000000004.18     02600 01000                  
00005630627150019DT67590675900000014274800102800000010680010287287283086900014034095032720230000002092308623000000000456798542539XXXXXX0145                         NY 4607AMPLBNSVFQ0327  N840000000020923          81CNCBD8666317293            027322    MC84000000020923 N  549977145232   D8F618CB80T2CAC9BA26778  000000000+600450S00130    MPL  00565                     000000000  N                0000000000000.00 0000000.00   0000000.00                             000000000000000                                                                                                                                                     01424  000000000000-0000000000003.66     01750 00000                  
00005640627150020DT67590675900000014274800102800000010680010287287283086900014034145032720230000000499908623000000000456798514377XXXXXX3108                         NY 4607AMDJNHYPWL0327  N840000000004999          81CNCBD8666317293            1U495V    MD84000000004999 N  549977145232   624696F6EET5DD79848043B  000000000+600450S00130    MDJ  00560                     000000000  N                0000000000000.00 0000000.00   0000000.00                             000000000000000                                                                                                                                                     01424  000000000000 0000000000000.00     00000 00000                  
00005650627150021DT67590675900000014274800102800000010680010274001193086900014034156032720230000000640808623000000000456798470103XXXXXX8816               0000000   NYV4 07T383086520134780N8400000000064082RLX00    01CNCBD8666317293            700653    VS84000000006408 NP1549977145232   CC01856D81TE69111A88CD6  000000000+                B CB 00245                     000000000  N000000000 166   0000000000000.00 0000000.00   0000000.00                             000000000000000                                                                                                                                                     01424  000000006408-0000000000001.13     01760 00000                  
00005660627150001P16759067590000001427480010280000001060000000000000000                             2000000000000000000000000              000000000000                    0000000000000000000000000                    000000000000                                                                                                                                                                                                                                                                                                                                                                                                                                                                                        
00005670627150022DT67590675900000014274800102800000010180010224001193086900014034177032720230000000855908623000000000456798433477XXXXXX7063               2111111   NYV4 A7W303086526141076N840000000008559KJJ200    01DNCBD8666317293            588589    VD84000000008559 NP1549977145232   11FBF54B58T5C4650A1ABDD  000000000+                F DF 10420                     000000000  Y000000000 338   0000000000000.00 0000000.00   0000000.00                             000000000000000                                                                                                                                                     01424 G000000008559 0000000000000.26     00050 02200                  
00005680627150001P16759067590000001427480010280000001010000000000000000                             2000000000000000000000000              000000000000                    0000000000000000000000000                    000000000000                                                                                                                                                                                                                                                                                                                                                                                                                                                                                        
00005690627150023DT67590675900000014274800102800000010680010274001193086900014034180032720230000000534908623000000000456798429819XXXXXX1282               0000000   NYV4 07T463086528232532N8400000000053497RJD00    01CNCBD8666317293            600517    VD84000000005349 NP1549977145232   28CF8DE68BT74390DD66443  000000000+                F DF 08168                     000000000  Y000000000 369   0000000000000.00 0000000.00   0000000.00                             000000000000000                                                                                                                                                     01424  000000005349 0000000000000.00     00000 00000                  
00005700627150001P16759067590000001427480010280000001060000000000000000                             2000000000000000000000000              000000000000                    0000000000000000000000000                    000000000000                                                                                                                                                                                                                                                                                                                                                                                                                                                                                        
00005710627150024DT67590675900000014274800102800000010180010224001193086900014034235032720230000002187708623000000000456798442868XXXXXX6171               2111111   NYV4 A7W583086563875019N840000000021877FD8L00    01DNCBD8666317293            027402    VS84000000021877 NP1549977145232   1D9A5E6425TC3A24E768299  000000000+                C CC 12108                     000000000  N000000000 496   0000000000000.00 0000000.00   0000000.00                             000000000000000                                                                                                                                                     01424 G000000021877 0000000000004.58     02050 01000                  
00005720627150001P16759067590000001427480010280000001010000000000000000                             2000000000000000000000000              000000000000                    0000000000000000000000000                    000000000000                                                                                                                                                                                                                                                                                                                                                                                                                                                                                        
00005730627150025DT67590675900000014274800102800000010680010274001193086900014034248032720230000002147008623000000000456798425907XXXXXX6843               0000000   NYV4 07T463086569686684N8400000000214706KKN00    01CNCBD8666317293            077091    VD84000000021470 NP1549977145232   B391214351T6ECB4AEB9A17  000000000+                G DG 08168                     000000000  Y000000000 369   0000000000000.00 0000000.00   0000000.00                             000000000000000                                                                                                                                                     01424  000000021470 0000000000000.00     00000 00000                  
00005740627150001P16759067590000001427480010280000001060000000000000000                             2000000000000000000000000              000000000000                    0000000000000000000000000                    000000000000                                                                                                                                                                                                                                                                                                                                                                                                                                                                                        
00005750627150026DT67590675900000014274800102800000010180010224001193086900014034250032720230000000642808623000000000456798412451XXXXXX1933               2111111   NYV4 A7W463086589005026N840000000006428VFJG00    01DNCBD8666317293            012112    VD84000000006428 NP1549977145232   8AF28398EATD41C317C9507  000000000+                F DF 10420                     000000000  Y000000000 338   0000000000000.00 0000000.00   0000000.00                             000000000000000                                                                                                                                                     01424 G000000006428 0000000000000.25     00050 02200                  
00005760627150001P16759067590000001427480010280000001010000000000000000                             2000000000000000000000000              000000000000                    0000000000000000000000000                    000000000000                                                                                                                                                                                                                                                                                                                                                                                                                                                                                        
00005770627150027DT67590675900000014274800102800000010180010287287283086900014034269032720230000000019908623000000000456798524897XXXXXX7989                         NY 4607AMCOH0NVM60327  N840000000000199          81DNCBD8666317293            3FALNP    MB84000000000199 NP1549977145232   43920B5EE0TFF0AD28E0563  000000000+600450S00130    MCO  00303                     000000000  N                0000000000000.00 0000000.00   0000000.00                             000000000000000                                                                                                                                                   U001424  000000000000 0000000000000.15     02700 01000                  
00005780627150001P1675906759000000142748001028000000101                                                          000000000000          8000            871584967                                                                                                                                                                                                                                                                                                                                                                                                                                                                                                                                                            
00005790627150028DT67590675900000014274800102800000010680010274001193086900014034271032720230000000296708623000000000456798414720XXXXXX8521               0000000   NYV4 07T303086589346841N840000000002967MWV500    01CNCBD8666317293            06436C    VS84000000002967 NP1549977145232   992CA52453T8C0B67E8C461  000000000+                C CC 00245                     000000000  N000000000 166   0000000000000.00 0000000.00   0000000.00                             000000000000000                                                                                                                                                     01424  000000002967-0000000000000.52     01760 00000                  
00005800627150001P16759067590000001427480010280000001060000000000000000                             2000000000000000000000000              000000000000                    0000000000000000000000000                    000000000000                                                                                                                                                                                                                                                                                                                                                                                                                                                                                        
00005810627150029DT67590675900000014274800102800000010180010224001193086900014034292032720230000000160008623000000000456798400898XXXXXX0239               2111111   NYV4 A7W463086592668206N840000000001600TX4800    01DNCBD8666317293            027823    VS84000000001600 NP1549977145232   945A2D26BETEAD992E90DFB  000000000+                B CB 12107                     000000000  N000000000 494   0000000000000.00 0000000.00   0000000.00                             000000000000000                                                                                                                                                     01424 G000000001600 0000000000000.43     02040 01000                  
00005820627150001P16759067590000001427480010280000001010000000000000000                             2000000000000000000000000              000000000000                    0000000000000000000000000                    000000000000                                                                                                                                                                                                                                                                                                                                                                                                                                                                                        
00005830627150030DT67590675900000014274800102800000010180010287287283086900014034335032720230000002642408623000000000456798517805XXXXXX8691       ME03KE06MS02      NY 4607AMPLVP48WL0327  N840000000026424          81DNCBD8666317293            00904B    MC84000000026424 N  549977145232   F9512BC8B7T71E14CE3B1C8  000000000+600450S00130    MPL  00580                     000000000  N                0000000000000.00 0000000.00   0000000.00                             000000000000000                                                                                                                                                   U001424  000000000000 0000000000005.65     02100 01000                  
00005840627150031DT67590675900000014274800102800000010680010274001193086900014034347032720230000001499108623000000000456798472221XXXXXX4461               0000000   NYV4 07T463086602529855N8400000000149915JFM00    01CNCBD8666317293            02372C    VS84000000014991 NP1549977145232   DC3BE0334FT9292D066786E  000000000+                C CC 00245                     000000000  N000000000 166   0000000000000.00 0000000.00   0000000.00                             000000000000000                                                                                                                                                     01424  000000014991-0000000000002.64     01760 00000                  
00005850627150001P16759067590000001427480010280000001060000000000000000                             2000000000000000000000000              000000000000                    0000000000000000000000000                    000000000000                                                                                                                                                                                                                                                                                                                                                                                                                                                                                        
00005860627150032DT67590675900000014274800102800000010180010287287283086900014034368032720230000002695308623000000000456798521333XXXXXX6272       ME03KE06MS02      NY 4607AMWEO8PRMX0327  N840000000026953          81DNCBD8666317293            02767P    MC84000000026953 N  549977145232   DD1B0D582ET2A2D81C396B2  000000000+600450S00130    MWE  00737                     000000000  N                0000000000000.00 0000000.00   0000000.00                             000000000000000                                                                                                                                                   U001424  000000000000 0000000000007.11     02600 01000                  
00005870627150033DT67590675900000014274800102800000010180010224001193086900014034375032720230000000019908623000000000456798428803XXXXXX8182               2111111   NYV4 A7W463086613879203N840000000000199BQGH00    01DNCBD8666317293            802747    VD84000000000199 NP1549977145232   33B403943ET4C65E2D008F8  000000000+                S PS 10179                     000000000  N000000000 364   0000000000000.00 0000000.00   0000000.00                             000000000000000                                                                                                                                                     01424 G000000000199 0000000000000.15     02650 01000                  
00005880627150001P16759067590000001427480010280000001010000000000000000                             2000000000000000000000000              000000000000                    0000000000000000000000000                    000000000000                                                                                                                                                                                                                                                                                                                                                                                                                                                                                        
00005890627150034DT67590675900000014274800102800000010180010224001193086900014034383032720230000002126108623000000000456798400344XXXXXX0716               2111111   NYV4 A7W583086615059079N840000000021261SG2Q00    01DNCBD8666317293            05183D    VS84000000021261 NP1549977145232   4A37FA4451TDBC3BB04F374  000000000+                D CD 12109                     000000000  N000000000 498   0000000000000.00 0000000.00   0000000.00                             000000000000000                                                                                                                                                     01424 G000000021261 0000000000005.42     02500 01000                  
00005900627150001P16759067590000001427480010280000001010000000000000000                             2000000000000000000000000              000000000000                    0000000000000000000000000                    000000000000                                                                                                                                                                                                                                                                                                                                                                                                                                                                                        
00005910627150035DT67590675900000014274800102800000010180010224001193086900014034391032720230000002401608623000000000456798410039XXXXXX8368               2111111   NYV4 A7W463086617541838N840000000024016RS8N00    01DNCBD8666317293            84270D    VS84000000024016 NP1549977145232   157AACAAB5T6B12C066ED21  000000000+                D CD 12109                     000000000  N000000000 498   0000000000000.00 0000000.00   0000000.00                             000000000000000                                                                                                                                                     01424 G000000024016 0000000000006.10     02500 01000                  
00005920627150001P16759067590000001427480010280000001010000000000000000                             2000000000000000000000000              000000000000                    0000000000000000000000000                    000000000000                                                                                                                                                                                                                                                                                                                                                                                                                                                                                        
00005930627150036DT67590675900000014274800102800000010180010287287283086900014034400032720230000000999808623000000000456798550114XXXXXX8874       ME03KE06MS02      NY 4607AMCSD6D3YR0327  N840000000009998          81DNCBD8666317293            027164    MC84000000009998 N  549977145232   B1FB1D1269TCF6FA8D340A9  000000000+600450S00130    MCS  00013                     000000000  N                0000000000000.00 0000000.00   0000000.00                             000000000000000                                                                                                                                                   U001424  000000000000 0000000000002.05     01950 01000                  
00005940627150037DT67590675900000014274800102800000010180010224001193086900014034425032720230000000019908623000000000456798428821XXXXXX5735               2111111   NYV4 A7W463086643991123N840000000000199V87S00    01DNCBD8666317293            444427    VB84000000000199 NP1549977145232   D10CEFD7DCTF3A9A41CF433  000000000+                S CS 00692                     000000000  N000000000 237   0000000000000.00 0000000.00   0000000.00                             000000000000000                                                                                                                                                     01424 G000000000199 0000000000000.15     02700 01000                  
00005950627150001P16759067590000001427480010280000001010000000000000000                             2000000000000000000000000              000000000000                    0000000000000000000000000                    000000000000                                                                                                                                                                                                                                                                                                                                                                                                                                                                                        
00005960627150038DT67590675900000014274800102800000010180010224001193086900014034433032720230000000019908623000000000456798428803XXXXXX1145               2111111   NYV4 A7W383086648817481N840000000000199B2LG00    01DNCBD8666317293            994441    VD84000000000199 NP1549977145232   346A66A6EBTC3CE11CCD049  000000000+                S PS 10179                     000000000  N000000000 364   0000000000000.00 0000000.00   0000000.00                             000000000000000                                                                                                                                                     01424 G000000000199 0000000000000.15     02650 01000                  
00005970627150001P16759067590000001427480010280000001010000000000000000                             2000000000000000000000000              000000000000                    0000000000000000000000000                    000000000000                                                                                                                                                                                                                                                                                                                                                                                                                                                                                        
00005980627150039DT67590675900000014274800102800000010180010224001193086900014034458032720230000001929508623000000000456798441839XXXXXX3448               2111111   NYV4 A7W383086656048047N840000000019295CWZ800    01DNCBD8666317293            405632    VS84000000019295 NP1549977145232   3FF0BF0F7FTD77745178348  000000000+                C CC 12108                     000000000  N000000000 496   0000000000000.00 0000000.00   0000000.00                             000000000000000                                                                                                                                                     01424 G000000019295 0000000000004.06     02050 01000                  
00005990627150001P16759067590000001427480010280000001010000000000000000                             2000000000000000000000000              000000000000                    0000000000000000000000000                    000000000000                                                                                                                                                                                                                                                                                                                                                                                                                                                                                        
00006000627150040DT67590675900000014274800102800000010680010287287283086900014034467032720230000000700408623000000000456798517279XXXXXX0637                         NY 4607AMDJE9JGYR0327  N840000000007004          81CNCBD8666317293            006128    MD84000000007004 N  549977145232   F81FDEB721TD2AB57B027A0  000000000+600450S00130    MDJ  00560                     000000000  N                0000000000000.00 0000000.00   0000000.00                             000000000000000                                                                                                                                                     01424  000000000000 0000000000000.00     00000 00000                  
00006010627150041DT67590675900000014274800102800000010180010224001193086900014034490032720230000002153408623000000000456798434257XXXXXX3526               2111111   NYV4 A7W463086672057230N840000000021534Q4XC00    01DNCBD8666317293            043009    VD84000000021534 NP1549977145232   E427B40EDFT90BB72CDB693  000000000+                F DF 10420                     000000000  Y000000000 338   0000000000000.00 0000000.00   0000000.00                             000000000000000                                                                                                                                                     01424 G000000021534 0000000000000.33     00050 02200                  
00006020627150001P16759067590000001427480010280000001010000000000000000                             2000000000000000000000000              000000000000                    0000000000000000000000000                    000000000000                                                                                                                                                                                                                                                                                                                                                                                                                                                                                        
00006030627150042DT67590675900000014274800102800000010180010287287283086900014034509032720230000002106208623000000000456798521333XXXXXX9854       ME03KE06MS02      NY 4607AMWEMX5LYR0327  N840000000021062          81DNCBD8666317293            02772Y    MC84000000021062 N  549977145232   2BFCA18A86T9B232ADD07B6  000000000+600450S00130    MWE  00642                     000000000  N                0000000000000.00 0000000.00   0000000.00                             000000000000000                                                                                                                                                   U001424  000000000000 0000000000004.73     02200 01000                  
00006040627150043DT67590675900000014274800102800000010180010287287283086900014034525032720230000000019908623000000000456798524897XXXXXX1496                         NY 4607AMCPT47OYR0327  N840000000000199          81DNCBD8666317293            36TUSF    MB84000000000199 NP1549977145232   173B942AF4TF3242C3D8BB8  000000000+600450S00130    MCP  00303                     000000000  N                0000000000000.00 0000000.00   0000000.00                             000000000000000                                                                                                                                                   U001424  000000000000 0000000000000.15     02700 01000                  
00006050627150001P1675906759000000142748001028000000101                                                          000000000000          8000            871584967                                                                                                                                                                                                                                                                                                                                                                                                                                                                                                                                                            
00006060627150044DT67590675900000014274800102800000010180010224001193086900014034557032720230000000019908623000000000456798428813XXXXXX7028               2111111   NYV4 A7W463086697282039N840000000000199ZXR400    01DNCBD8666317293            707882    VB84000000000199 NP1549977145232   498C853C09TC0130FE34C3D  000000000+                S CS 00692                     000000000  N000000000 237   0000000000000.00 0000000.00   0000000.00                             000000000000000                                                                                                                                                     01424 G000000000199 0000000000000.15     02700 01000                  
00006070627150001P16759067590000001427480010280000001010000000000000000                             2000000000000000000000000              000000000000                    0000000000000000000000000                    000000000000                                                                                                                                                                                                                                                                                                                                                                                                                                                                                        
00006080627150045DT67590675900000014274800102800000010180010224001193086900014034573032720230000001498908623000000000456798480435XXXXXX2743               2111111   NYV4 A7W303086708508176N840000000014989FBCQ00    01DNCBD8666317293            605033    VB84000000014989 NP1549977145232   6A1BCF550DTD9E71CBEAF8B  000000000+                S CS 00692                     000000000  N000000000 237   0000000000000.00 0000000.00   0000000.00                             000000000000000                                                                                                                                                     01424 G000000014989 0000000000004.15     02700 01000                  
00006090627150001P16759067590000001427480010280000001010000000000000000                             1000000000981000000000000              000000000000                    0000000000000000000000000                    000000000000                                                                                                                                                                                                                                                                                                                                                                                                                                                                                        
00006100627150046DT67590675900000014274800102800000010180010224001193086900014034581032720230000001987008623000000000456798483316XXXXXX4241               2111111   NYV4 A7W583086714061445N840000000019870P9PK00    01DNCBD8666317293            065015    VD84000000019870 NP1549977145232   451EC9FF47T10702B92963D  000000000+                F DF 10420                     000000000  Y000000000 338   0000000000000.00 0000000.00   0000000.00                             000000000000000                                                                                                                                                     01424 G000000019870 0000000000000.32     00050 02200                  
00006110627150001P16759067590000001427480010280000001010000000000000000                             2000000000000000000000000              000000000000                    0000000000000000000000000                    000000000000                                                                                                                                                                                                                                                                                                                                                                                                                                                                                        
00006120627150047DT67590675900000014274800102800000010180010287287283086900014034608032720230000002121108623000000000456798542418XXXXXX0350       ME03KE06MS02      NY 4607AMWEY01D4M0327  N840000000021211          81DNCBD8666317293            82756P    MC84000000021211 N  549977145232   872F9C21F5T6E0F6D0D7D28  000000000+600450S00130    MWE  00737                     000000000  N                0000000000000.00 0000000.00   0000000.00                             000000000000000                                                                                                                                                   U001424  000000000000 0000000000005.61     02600 01000                  
00006130627150048DT67590675900000014274800102800000010180010287287283086900014034632032720230000000019908623000000000456798524897XXXXXX5506                         NY 4607AMCPP7ECYR0327  N840000000000199          81DNCBD8666317293            CMFFGT    MB84000000000199 NP1549977145232   C0255C9B93TE8C574FB06F3  000000000+600450S00130    MCP  00303                     000000000  N                0000000000000.00 0000000.00   0000000.00                             000000000000000                                                                                                                                                   U001424  000000000000 0000000000000.15     02700 01000                  
00006140627150001P1675906759000000142748001028000000101                                                          000000000000          8000            871584967                                                                                                                                                                                                                                                                                                                                                                                                                                                                                                                                                            
00006150627150049DT67590675900000014274800102800000010180010224001193086900014034649032720230000000019908623000000000456798428813XXXXXX7868               2111111   NYV4 A7W583086762215206N8400000000001998GG500    01DNCBD8666317293            878870    VB84000000000199 NP1549977145232   CF38B17C29T7DDCD0BD21AD  000000000+                S CS 00692                     000000000  N000000000 237   0000000000000.00 0000000.00   0000000.00                             000000000000000                                                                                                                                                     01424 G000000000199 0000000000000.15     02700 01000                  
00006160627150001P16759067590000001427480010280000001010000000000000000                             2000000000000000000000000              000000000000                    0000000000000000000000000                    000000000000                                                                                                                                                                                                                                                                                                                                                                                                                                                                                        
00006170627150050DT67590675900000014274800102800000010180010224001193086900014034748032720230000000019908623000000000456798428803XXXXXX1623               2111111   NYV4 A7W383086799824762N840000000000199F9LC00    01DNCBD8666317293            578699    VD84000000000199 NP1549977145232   89B7CFD2B6T2B0893125670  000000000+                S PS 10179                     000000000  N000000000 364   0000000000000.00 0000000.00   0000000.00                             000000000000000                                                                                                                                                     01424 G000000000199 0000000000000.15     02650 01000                  
00006180627150001P16759067590000001427480010280000001010000000000000000                             2000000000000000000000000              000000000000                    0000000000000000000000000                    000000000000                                                                                                                                                                                                                                                                                                                                                                                                                                                                                        
00006190627150051DT67590675900000014274800102800000010180010287287283086900014034764032720230000000019908623000000000456798514376XXXXXX6978                         NY 4607AMPWSN9I1X0327  N840000000000199          81DNCBD8666317293            286423    MD84000000000199 NP1549977145232   0E3827A5C2T0E31188A9F9B  000000000+600450S00130    MPW  00062                     000000000  N                0000000000000.00 0000000.00   0000000.00                             000000000000000                                                                                                                                                   U001424  000000000000 0000000000000.15     02650 01000                  
00006200627150001P1675906759000000142748001028000000101                                                          000000000000          8000            871584967                                                                                                                                                                                                                                                                                                                                                                                                                                                                                                                                                            
00006210627150052DT67590675900000014274800102800000010180010224001193086900014034789032720230000002487008623000000000456798410039XXXXXX1553               2111111   NYV4 A7W383086820162835N8400000000248706X5L00    01DNCBD8666317293            17268D    VS84000000024870 NP1549977145232   ECDC69E640TDA0A4FC8059A  000000000+                D CD 12109                     000000000  N000000000 498   0000000000000.00 0000000.00   0000000.00                             000000000000000                                                                                                                                                     01424 G000000024870 0000000000006.32     02500 01000                  
00006220627150001P16759067590000001427480010280000001010000000000000000                             2000000000000000000000000              000000000000                    0000000000000000000000000                    000000000000                                                                                                                                                                                                                                                                                                                                                                                                                                                                                        
00006230627150053DT67590675900000014274800102800000010180010224001193086900014034797032720230000000019908623000000000456798408544XXXXXX0097               2111111   NYV4 A7W383086832838619N8400000000001997D4T00    01DNCBD8666317293            640150    VB84000000000199 NP1549977145232   DAD8551FA0T8238D17CC9BC  000000000+                K CK 00691                     000000000  N000000000 234   0000000000000.00 0000000.00   0000000.00                             000000000000000                                                                                                                                                     01424 G000000000199 0000000000000.15     02700 01000                  
00006240627150001P16759067590000001427480010280000001010000000000000000                             2000000000000000000000000              000000000000                    0000000000000000000000000                    000000000000                                                                                                                                                                                                                                                                                                                                                                                                                                                                                        
00006250627150054DT67590675900000014274800102800000010180010224001193086900014034813032720230000002190708623000000000456798498503XXXXXX5545               2111111   NYV4 A7W463086847224894N840000000021907TLD700    01DNCBD8666317293            078643    VD84000000021907 NP1549977145232   C937640B1CTFC6CEA3F5A7E  000000000+                F DF 00415                     000000000  N000000000       0000000000000.00 0000000.00   0000000.00                             000000000000000                                                                                                                                                     01424 G000000021907 0000000000003.76     01650 01500                  
00006260627150001P16759067590000001427480010280000001010000000000000000                             2000000000000000000000000              000000000000                    0000000000000000000000000                    000000000000                                                                                                                                                                                                                                                                                                                                                                                                                                                                                        
00006270627150055DT67590675900000014274800102800000010180010224001193086900014034839032720230000000019908623000000000456798412076XXXXXX9578               2111111   NYV4 A7W383086855049414N840000000000199MSHN00    01DNCBD8666317293            633700    VS84000000000199 NP1549977145232   452AFE13C0T55ECF7645312  000000000+                A CA 12106                     000000000  N000000000 492   0000000000000.00 0000000.00   0000000.00                             000000000000000                                                                                                                                                     01424 G000000000199 0000000000000.14     01890 01000                  
00006280627150001P16759067590000001427480010280000001010000000000000000                             2000000000000000000000000              000000000000                    0000000000000000000000000                    000000000000                                                                                                                                                                                                                                                                                                                                                                                                                                                                                        
00006290627150056BH6759067590000000570280088880000090170327202308623000000001625848    0000090001343318Y8008886759C03282023                                                                                                                                                                                                                                                                                                                                                                                                                                                                                                                                                                                                 
00006300627150057DT67590675900000005702800888800000010180088824001193086900013401799032720230000000589808623000000001625848440393XXXXXX5730               2111111   NYV4 A7W383086698247261N840000000005898MV5S00    01DNPSILOMART                996036    VD84000000005898 NP1549971004114   RRMFAJTU7B3KNJER5RBE     000000000+                F PF 08175                     000000000  N000000000       0000000000000.00 0000000.00   0000000.00                             000000000000000                                                                                                                                                     01424 G000000005898 0000000000001.23     01750 02000                  
00006310627150001P16759067590000000570280088880000001010000000000000000                             2000000000000000000000000              000000000000                    0000000000000000000000000                    000000000000                                                                                                                                                                                                                                                                                                                                                                                                                                                                                        
00006320627150058DT67590675900000005702800888800000010180088824001193086900013477609032720230000000599708623000000001625848451704XXXXXX8214               2111111   NYV4 A7W583086295350629N8400000000059976G7500    01DNPSILOMART                9EGJ3N    VD84000000005997 NP1549971004114   RUFXHYWUIIFUMKYHOBDU     000000000+                F DF 00415                     000000000  N000000000       0000000000000.00 0000000.00   0000000.00                             000000000000000                                                                                                                                                     01424 G000000005997 0000000000001.14     01650 01500                  
00006330627150001P16759067590000000570280088880000001010000000000000000                             2000000000000000000000000              000000000000                    0000000000000000000000000                    000000000000                                                                                                                                                                                                                                                                                                                                                                                                                                                                                        
00006340627150059DT67590675900000005702800888800000010180088887287283086900013484176032720230000000329908623000000001625848540393XXXXXX6497       ME03KE06MS02      NY 4607AMDSKVW0YY0327  N840000000003299          81DNPSILOMART                332652    MD84000000003299 N  549900000001   r8uGBZ5J0JvD78a9WmLE     000000000+600450S00140    MDS  00401                     000000000  N                0000000000000.00 0000000.00   0000000.00                             000000000000000                                                                                                                                                   U001424  000000000000 0000000000000.69     01650 01500                  
00006350627150060DT67590675900000005702800888800000010180088887287283086900013435707032720230000000663508623000000001625848533248XXXXXX0859       ME03KE06MS02      NY 4607AMPVVL7Z170327  N840000000006635          81DNPSILOMART                MWE8WD    MD84000000006635 N  549900000001   ry0r65HMJNs80wPw3kwi     000000000+600450S00140    MPV  09899                     000000000  N                0000000000000.00 0000000.00   0000000.00                             000000000000000                                                                                                                                                   U001424  000000000000 0000000000001.37     01760 02000                  
00006360627150061DT67590675900000005702800888800000010180088887287283086900013433363032720230000000511808623000000001625848545493XXXXXX3206       ME03KE06MS02      NY 4607AMDSWZ38NL0326  N840000000005118          81DNPSILOMART                069078    MD84000000005118 N  549900000001   rnhVnTaNnwfzXKuFIRnP     000000000+600450S00140    MDS  00401                     000000000  N                0000000000000.00 0000000.00   0000000.00                             000000000000000                                                                                                                                                   U001424  000000000000 0000000000000.99     01650 01500                  
00006370627150062DT67590675900000005702800888800000010180088887287283086900013438586032720230000000559708623000000001625848552433XXXXXX8428       ME03KE06MS02      NY 4607AMPLR5SFNL0326  N840000000005597          81DNPSILOMART                08300M    MC84000000005597 N  549900000001   rf5AYEINwX9n2Py04QOK     000000000+600450S00140    MPL  00580                     000000000  N                0000000000000.00 0000000.00   0000000.00                             000000000000000                                                                                                                                                   U001424  000000000000 0000000000001.28     02100 01000                  
00006380627150063DT67590675900000005702800888800000010180088887287283086900013455093032720230000000185008623000000001625848514377XXXXXX7297       ME03KE06MS02      NY 4607AMDJNRHDE30326  N840000000001850          81DNPSILOMART                1HACNN    MD84000000001850 N  549900000001   rV7zC3ll3aFzFxzDOUVN     000000000+600450S00140    MDJ  00401                     000000000  N                0000000000000.00 0000000.00   0000000.00                             000000000000000                                                                                                                                                   U001424  000000000000 0000000000000.46     01650 01500                  
00006390627150064DT67590675900000005702800888800000010180088824001193086900013480108032720230000000459808623000000001625848473702XXXXXX6480               2111111   NYV4 A7W583086639975124N840000000004598DRKJ00    01DNPSILOMART                003845    VD84000000004598 NP1549971004114   RGUD1PPRYA0HKRWVUER8     000000000+                F DF 10420                     000000000  Y000000000 338   0000000000000.00 0000000.00   0000000.00                             000000000000000                                                                                                                                                     01424 G000000004598 0000000000000.24     00050 02200                  
00006400627150001P16759067590000000570280088880000001010000000000000000                             2000000000000000000000000              000000000000                    0000000000000000000000000                    000000000000                                                                                                                                                                                                                                                                                                                                                                                                                                                                                        
00006410627150065DT67590675900000005702800888800000010180088876509753086900013442171032720230000001000008623000000001625848601100XXXXXX2200   BA00                  NY 4 07N873073347200860N840000000010000    00    01DNPSILOMART                02696R    DS84000000010000 N  549971004114010                         000000000+1015104910600   DCCDI01008333598  182520000000 000000000  0          120   0000000000000.00 0000000.00   0000000.00                             000000000000000                                                                                                                                                     01424  000000000000 0000000000002.13     02030 01000                  
00006420627150066DT67590675900000005702800888800000010180088887287283086900013450888032720230000000159908623000000001625848511566XXXXXX9267       ME03KE06MS02      NY 4607AMWEA5IPE40326  N840000000001599          81DNPSILOMART                060112    MC84000000001599 N  549900000001   rh05c088S1c8uZ7ZjHCf     000000000+600450S00140    MWE  00737                     000000000  N                0000000000000.00 0000000.00   0000000.00                             000000000000000                                                                                                                                                   U001424  000000000000 0000000000000.52     02600 01000                  
00006430627150067DT67590675900000005702800888800000010180088824001193086900013455886032720230000001199708623000000001625848473702XXXXXX7836               2111111   NYV4 A7W583086142518751N840000000011997C6RR00    01DNPSILOMART                027061    VD84000000011997 NP1549971004114   RFVXLKW2MFXPHY5QL42W     000000000+                F DF 10420                     000000000  Y000000000 338   0000000000000.00 0000000.00   0000000.00                             000000000000000                                                                                                                                                     01424 G000000011997 0000000000000.28     00050 02200                  
00006440627150001P16759067590000000570280088880000001010000000000000000                             2000000000000000000000000              000000000000                    0000000000000000000000000                    000000000000                                                                                                                                                                                                                                                                                                                                                                                                                                                                                        
00006450627150068DT67590675900000005702800888800000010180088824001193086900013469580032720230000000673708623000000001625848410881XXXXXX1856               2111111   NYV4 A7W383086246480606N84000000000673766WS00    01DNPSILOMART                878760    VD84000000006737 NP1549971004114   R28V57WZRGJYQK2ZRS4M     000000000+                F DF 00415                     000000000  N000000000       0000000000000.00 0000000.00   0000000.00                             000000000000000                                                                                                                                                     01424 G000000006737 0000000000001.26     01650 01500                  
00006460627150001P16759067590000000570280088880000001010000000000000000                             2000000000000000000000000              000000000000                    0000000000000000000000000                    000000000000                                                                                                                                                                                                                                                                                                                                                                                                                                                                                        
00006470627150069DT67590675900000005702800888800000010180088824001193086900013419007032720230000000589608623000000001625848423810XXXXXX4481               2111111   NYV4 A7W583086486069952N840000000005896NRN300    01DNPSILOMART                083006    VD84000000005896 NP1549971004114   R1DAXWMWJTSPM8TUQUJC     000000000+                F DF 00415                     000000000  N000000000       0000000000000.00 0000000.00   0000000.00                             000000000000000                                                                                                                                                     01424 G000000005896 0000000000001.12     01650 01500                  
00006480627150001P16759067590000000570280088880000001010000000000000000                             2000000000000000000000000              000000000000                    0000000000000000000000000                    000000000000                                                                                                                                                                                                                                                                                                                                                                                                                                                                                        
00006490627150070DT67590675900000005702800888800000010180088887287283086900013451837032720230000000559808623000000001625848514891XXXXXX7155       ME03KE06MS02      NY 4607AMWENFI1MX0327  N840000000005598          81DNPSILOMART                07640Z    MC84000000005598 N  549900000001   rBD7zCQsGQ2CGmLBuODm     000000000+600450S00140    MWE  00737                     000000000  N                0000000000000.00 0000000.00   0000000.00                             000000000000000                                                                                                                                                   U001424  000000000000 0000000000001.56     02600 01000                  
00006500627150071DT67590675900000005702800888800000010180088824001193086900013478011032720230000000679808623000000001625848476516XXXXXX7838               2111111   NYV4 A7W303086635858503N8400000000067985FHB00    01DNPSILOMART                585320    VD84000000006798 NP1549971004114   R9WRWDRQUECH5ZGO4EZV     000000000+                F DF 00415                     000000000  N000000000       0000000000000.00 0000000.00   0000000.00                             000000000000000                                                                                                                                                     01424 G000000006798 0000000000001.27     01650 01500                  
00006510627150001P16759067590000000570280088880000001010000000000000000                             2000000000000000000000000              000000000000                    0000000000000000000000000                    000000000000                                                                                                                                                                                                                                                                                                                                                                                                                                                                                        
00006520627150072DT67590675900000005702800888800000010180088824001193086900013487780032720230000089000008623000000001625848415417XXXXXX1693               2111111   NYV4 A7W463086660169468N840000000890000D4PR00    01DNPSILOMART                00516G    VB84000000890000 NP1549971004114   RMDBDQ1EECEE3D05GG3B     000000000+                G5CG511887                     000000000  N000000000 163   0000000000000.00 0000000.00   0000000.00                             000000000000000                                                                                                                                                     01424 G000000890000 0000000000267.10     03000 01000                  
00006530627150001P16759067590000000570280088880000001010000000000000000    64275817920              2000000000000000000000000              000000000000                    0000000000000000000000000                    000000000000                                                                                                                                                                                                                                                                                                                                                                                                                                                                                        
00006540627150073DT67590675900000005702800888800000010180088873011003086900013406182032720230000000599808623000000001625848372656XXXXX1004                          NY 4 07N007373919570063N840000000005998          01DNTRADE READY LLC          217294    AM84000000005998 Y  549971004114                            000000000+6004S0S00140 258     11261                     000000000                   0000000000000.00 0000000.00   0000000.00                             000000000000000 61248972086759675900000005702 TRADE READY LLC          4744 PARADISE RD         7023386941      89169     PSILOMART@GMAIL.COM                       01324  000000000000 0000000000001.06     01600 00000                  
00006550627150074DT67590675900000005702800888800000010180088824001193086900013420260032720230000004599508623000000001625848445101XXXXXX0563               2111111   NYV4 A7W303086746551327N8400000000459959K9K00    01DNPSILOMART                057776    VD84000000045995 NP1549971004114   REALIKDRKTLSE5E3P1TH     000000000+                F DF 10420                     000000000  Y000000000 338   0000000000000.00 0000000.00   0000000.00                             000000000000000                                                                                                                                                     01424 G000000045995 0000000000000.45     00050 02200                  
00006560627150001P16759067590000000570280088880000001010000000000000000                             2000000000000000000000000              000000000000                    0000000000000000000000000                    000000000000                                                                                                                                                                                                                                                                                                                                                                                                                                                                                        
00006570627150075DT67590675900000005702800888800000010180088824001193086900013431754032720230000000599808623000000001625848400022XXXXXX5428               2111111   NYV4 A7W583085861119209N840000000005998M9L800    01DNPSILOMART                317786    VD84000000005998 NP1549971004114   RIFX3QQ99YCBQBV7GQB4     000000000+                F DF 10420                     000000000  Y000000000 338   0000000000000.00 0000000.00   0000000.00                             000000000000000                                                                                                                                                     01424 G000000005998 0000000000000.25     00050 02200                  
00006580627150001P16759067590000000570280088880000001010000000000000000                             2000000000000000000000000              000000000000                    0000000000000000000000000                    000000000000                                                                                                                                                                                                                                                                                                                                                                                                                                                                                        
00006590627150076DT67590675900000005702800888800000010180088873011003086900013433715032720230000000379908623000000001625848371511XXXXX8004                          NY 4 07N007364760603061N840000000003799          01DNTRADE READY LLC          265787    AM84000000003799 Y  549971004114                            000000000+6004S0S00140 258     11261                     000000000                   0000000000000.00 0000000.00   0000000.00                             000000000000000 61248972086759675900000005702 TRADE READY LLC          4744 PARADISE RD         7023386941      89169     PSILOMART@GMAIL.COM                       01324  000000000000 0000000000000.71     01600 00000                  
00006600627150077DT67590675900000005702800888800000010180088824001193086900013441159032720230000000430008623000000001625848447305XXXXXX2851               2111111   NYV4 A7W583086044306217N840000000004300DDFS00    01DNPSILOMART                081350    VD84000000004300 NP1549971004114   RKGCM2PVCROUVYLG52N5     000000000+                F DF 00415                     000000000  N000000000       0000000000000.00 0000000.00   0000000.00                             000000000000000                                                                                                                                                     01424 G000000004300 0000000000000.86     01650 01500                  
00006610627150001P16759067590000000570280088880000001010000000000000000                             2000000000000000000000000              000000000000                    0000000000000000000000000                    000000000000                                                                                                                                                                                                                                                                                                                                                                                                                                                                                        
00006620627150078DT67590675900000005702800888800000010180088824001193086900013446125032720230000000600008623000000001625848440066XXXXXX2053               2111111   NYV4 A7W463086060372490N840000000006000FGTT00    01DNPSILOMART                03922A    VS84000000006000 NP1549971004114   R0OPICIRWV0SPPUTB71I     000000000+                A CA 12106                     000000000  N000000000 492   0000000000000.00 0000000.00   0000000.00                             000000000000000                                                                                                                                                     01424 G000000006000 0000000000001.23     01890 01000                  
00006630627150001P16759067590000000570280088880000001010000000000000000                             2000000000000000000000000              000000000000                    0000000000000000000000000                    000000000000                                                                                                                                                                                                                                                                                                                                                                                                                                                                                        
00006640627150079DT67590675900000005702800888800000010180088824001193086900013444476032720230000000239908623000000001625848414720XXXXXX8638               2111111   NYV4 A7W383086064472255N840000000002399WD3900    01DNPSILOMART                01837C    VS84000000002399 NP1549971004114   RRYDKS3JGME72BECS3C0     000000000+                C CC 12108                     000000000  N000000000 496   0000000000000.00 0000000.00   0000000.00                             000000000000000                                                                                                                                                     01424 G000000002399 0000000000000.59     02050 01000                  
00006650627150001P16759067590000000570280088880000001010000000000000000                             2000000000000000000000000              000000000000                    0000000000000000000000000                    000000000000                                                                                                                                                                                                                                                                                                                                                                                                                                                                                        
00006660627150080DT67590675900000005702800888800000010180088824001193086900013473202032720230000000279908623000000001625848414740XXXXXX8084               2111111   NYV4 A7W303086290204842N840000000002799HZ9800    01DNPSILOMART                00212D    VS84000000002799 NP1549971004114   R7RI6UOZZQCMD4ZBI9S9     000000000+                D CD 12109                     000000000  N000000000 498   0000000000000.00 0000000.00   0000000.00                             000000000000000                                                                                                                                                     01424 G000000002799 0000000000000.80     02500 01000                  
00006670627150001P16759067590000000570280088880000001010000000000000000                             2000000000000000000000000              000000000000                    0000000000000000000000000                    000000000000                                                                                                                                                                                                                                                                                                                                                                                                                                                                                        
00006680627150081DT67590675900000005702800888800000010180088824001193086900013419692032720230000000549908623000000001625848473703XXXXXX1905               2111111   NYV4 A7W463086489141187N8400000000054998DBQ00    01DNPSILOMART                087981    VD84000000005499 NP1549971004114   RXTCBJBCSOHPC4HEZEUA     000000000+                F DF 10420                     000000000  Y000000000 338   0000000000000.00 0000000.00   0000000.00                             000000000000000                                                                                                                                                     01424 G000000005499 0000000000000.25     00050 02200                  
00006690627150001P16759067590000000570280088880000001010000000000000000                             2000000000000000000000000              000000000000                    0000000000000000000000000                    000000000000                                                                                                                                                                                                                                                                                                                                                                                                                                                                                        
00006700627150082DT67590675900000005702800888800000010180088887287283086900013430708032720230000000799808623000000001625848542418XXXXXX1493       ME03KE06MS02      NY 4607AMWELJLCMX0327  N840000000007998          81DNPSILOMART                18497P    MC84000000007998 N  549900000001   rnefV8DKzECUG9aue0Vb     000000000+600450S00140    MWE  00737                     000000000  N                0000000000000.00 0000000.00   0000000.00                             000000000000000                                                                                                                                                   U001424  000000000000 0000000000002.18     02600 01000                  
00006710627150083DT67590675900000005702800888800000010180088873011003086900013461658032720230000004000008623000000001625848372728XXXXX2015                          NY 4 07N007370482941069N840000000040000          01DNTRADE READY LLC          259168    AM84000000040000 Y  549971004114                            000000000+6004S0S00140 258     11262                     000000000                   0000000000000.00 0000000.00   0000000.00                             000000000000000 61248972086759675900000005702 TRADE READY LLC          4744 PARADISE RD         7023386941      89169     PSILOMART@GMAIL.COM                       01324  000000000000 0000000000007.90     01950 00000                  
00006720627150084DT67590675900000005702800888800000010180088873011003086900013471673032720230000000280008623000000001625848379577XXXXX2004                          NY 4 07N007371180435065N840000000002800          01DNTRADE READY LLC          222689    AM84000000002800 Y  549971004114                            000000000+6004S0S00140 258     11261                     000000000                   0000000000000.00 0000000.00   0000000.00                             000000000000000 61248972086759675900000005702 TRADE READY LLC          4744 PARADISE RD         7023386941      89169     PSILOMART@GMAIL.COM                       01324  000000000000 0000000000000.55     01600 00000                  
00006730627150085DT67590675900000005702800888800000010180088887287283086900013471942032720230000000280008623000000001625848517546XXXXXX0972       ME03KE06MS02      NY 4607AMDJKE48YR0327  N840000000002800          81DNPSILOMART                027172    MD84000000002800 N  549900000001   rRgJShXHbme9eFkDLtBO     000000000+600450S00140    MDJ  10813                     000000000  1                0000000000000.00 0000000.00   0000000.00                             000000000000000                                                                                                                                                   U001424  000000000000 0000000000000.23     00050 02200                  
00006740627150086DT67590675900000005702800888800000010180088873011003086900013474800032720230000000779208623000000001625848376747XXXXX2100                          NY 4 07N006823044550076N840000000007792          01DNTRADE READY LLC          245599    AM84000000007792 Y  549971004114                            000000000+6004S0S00140 258     11262                     000000000                   0000000000000.00 0000000.00   0000000.00                             000000000000000 61248972086759675900000005702 TRADE READY LLC          4744 PARADISE RD         7023386941      89169     PSILOMART@GMAIL.COM                       01324  000000000000 0000000000001.62     01950 00000                  
00006750627150087DT67590675900000005702800888800000010180088824001193086900013485974032720230000044500008623000000001625848403623XXXXXX4856               2111111   NYV4 A7W463086656489630N840000000445000PZKF00    01DNPSILOMART                015129    VD84000000445000 NP1549971004114   RKQW9F1PE2JAH2A4Z5RS     000000000+                G DG 10352                     000000000  Y000000000 338   0000000000000.00 0000000.00   0000000.00                             000000000000000                                                                                                                                                     01424 G000000445000 0000000000002.45     00050 02200                  
00006760627150001P16759067590000000570280088880000001010000000000000000    64275804613              2000000000000000000000000              000000000000                    0000000000000000000000000                    000000000000                                                                                                                                                                                                                                                                                                                                                                                                                                                                                        
00006770627150088DT67590675900000005702800888800000010180088873011003086900013496639032720230000001250008623000000001625848379296XXXXX2006                          NY 4 07N006824715953078N840000000012500          01DNTRADE READY LLC          222581    AM84000000012500 Y  549971004114                            000000000+6004S0S00140 258     11262                     000000000                   0000000000000.00 0000000.00   0000000.00                             000000000000000 61248972086759675900000005702 TRADE READY LLC          4744 PARADISE RD         7023386941      89169     PSILOMART@GMAIL.COM                       01324  000000000000 0000000000002.54     01950 00000                  
