02222860444620002BH6759067590000000288180088880000090170119202301923000000000107054    0000090001230016N8008886759C01202023                                                                                                                                                                                                                                                                                                                                                                                                                                                                                                                                                                                                 
02222870444620003DT67590675900000002881800888800000010180088877287283019900012300012011920230000000439001923000000000107054550943XXXXXX6151       MS02WI09          NY 1 0 AMDJSCYIK40119  N840000000004390          05DNHAPPY HIPPIE             032843    MD84000000004390 N  549976487134                            000000000+M10101C5434C    MDJ  00402                     000000000  N                0000000000000.00 0000000.00   0000000.00                             000000000000000                                                                                                                                                   B101418  000000000000 0000000000000.61     01050 01500                  
02222880444620004DT67590675900000002881800888800000010180088877287283019900012300020011920230000000809601923000000000107054525363XXXXXX4979       MS02WI09          NY 1 0 AMWEZC8XK60119  N840000000008096          05DNHAPPY HIPPIE             42049Z    MC84000000008096 N  549976487134                            000000000+M10101C0034C    MWE  00743                     000000000  N                0000000000000.00 0000000.00   0000000.00                             000000000000000                                                                                                                                                   B101418  000000000000 0000000000001.90     02300 00400                  
02222890444620005DT67590675900000002881800888800000010180088824001193019900012300036011920230000000207201923000000000107054434769XXXXXX7926       VS11    0001111   NYV1 A E303019559499493N840000000002072WH5M00    05DNHAPPY HIPPIE             003210    VD84000000002072 N  549976487134                            000000000+                F DF 10433                     000000000  Y000000000 338   0000000000000.00 0000000.00   0000000.00                             000000000000000                                                                                                                                                     01418 A000000000000 0000000000000.23     00050 02200                  
02222900444620006DT67590675900000002881800888800000010180088877287283019900012300046011920230000001412201923000000000107054542432XXXXXX1738       MS02WI09          NY 2 0 AMDJBF9FK70119  N840000000014122          05DNHAPPY HIPPIE             070582    MD84000000014122 N  549976487134                            000000000+M10101C1334C    MDJ  10815                     000000000  1                0000000000000.00 0000000.00   0000000.00                             000000000000000                                                                                                                                                   B101418  000000000000 0000000000000.29     00050 02200                  
02222910444620007DT67590675900000002881800888800000010180088877287283019900012300053011920230000000548801923000000000107054551571XXXXXX4045       MS02WI09          NY 2 0 AMDJUO9LK40119  N840000000005488          05DNHAPPY HIPPIE             575709    MD84000000005488 N  549976487134                            000000000+M10101C1334C    MDJ  00402                     000000000  N                0000000000000.00 0000000.00   0000000.00                             000000000000000                                                                                                                                                   B101418  000000000000 0000000000000.73     01050 01500                  
02222920444620008DT67590675900000002881800888800000010180088824001193019900012300069011920230000000395001923000000000107054445101XXXXXX8489       VS11    0001111   NYV1 A E583019617637716N840000000003950Z6BG00    05DNHAPPY HIPPIE             661420    VD84000000003950 N  549976487134                            000000000+                F DF 10433                     000000000  Y000000000 338   0000000000000.00 0000000.00   0000000.00                             000000000000000                                                                                                                                                     01418 A000000000000 0000000000000.24     00050 02200                  
02222930444620009DT67590675900000002881800888800000010180088824001193019900012300077011920230000000790001923000000000107054480639XXXXXX7226       VS11    0001111   NYV1 A E383019629866196N840000000007900BBWB00    05DNHAPPY HIPPIE             562817    VD84000000007900 N  549976487134                            000000000+                F DF 00381                     000000000  N000000000       0000000000000.00 0000000.00   0000000.00                             000000000000000                                                                                                                                                     01418 A000000000000 0000000000000.78     00800 01500                  
02222940444620010DT67590675900000002881800888800000010180088824001193019900012300085011920230000000236701923000000000107054419090XXXXXX3521       VS11    0001111   NYV1 A E303019639370286N840000000002367S86Z00    05DNHAPPY HIPPIE             870634    VD84000000002367 N  549976487134                            000000000+                F DF 00381                     000000000  N000000000       0000000000000.00 0000000.00   0000000.00                             000000000000000                                                                                                                                                     01418 A000000000000 0000000000000.34     00800 01500                  
02222950444620011DT67590675900000002881800888800000010180088877287283019900012300095011920230000000492501923000000000107054549460XXXXXX6510       MS02WI09          NY 1 0 AMCWORFX0D0119  N840000000004925          05DNHAPPY HIPPIE             01915Z    MC84000000004925 N  549976487134                            000000000+M10101C5434C    MCW  00646                     000000000  N                0000000000000.00 0000000.00   0000000.00                             000000000000000                                                                                                                                                   B101418  000000000000 0000000000000.98     01900 00400                  
02222960444620012DT67590675900000002881800888800000010180088824001193019900012300101011920230000000325801923000000000107054400344XXXXXX1086       VS11    0001111   NYV1 A E463019685277492N840000000003258X5W400    05DNHAPPY HIPPIE             06240B    VS84000000003258 N  549976487134                            000000000+                B CB 12111                     000000000  N000000000 495   0000000000000.00 0000000.00   0000000.00                             000000000000000                                                                                                                                                     01418 A000000000000 0000000000000.64     01650 01000                  
02222970444620013DT67590675900000002881800888800000010180088824001193019900012300119011920230000002231101923000000000107054459954XXXXXX3488       VS11    0001111   NYV1 A E463019759570737N84000000002231122PC00    05DNHAPPY HIPPIE             H72938    VD84000000022311 N  549976487134                            000000000+                F DF 10433                     000000000  Y000000000 338   0000000000000.00 0000000.00   0000000.00                             000000000000000                                                                                                                                                     01418 A000000000000 0000000000000.33     00050 02200                  
02222980444620014DT67590675900000002881800888800000010180088824001193019900012300127011920230000000158001923000000000107054415978XXXXXX6979       VS11    0001111   NYV1 A E463019772369413N840000000001580FJGV00    05DNHAPPY HIPPIE             095131    VD84000000001580 N  549976487134                            000000000+                F DF 10433                     000000000  Y000000000 338   0000000000000.00 0000000.00   0000000.00                             000000000000000                                                                                                                                                     01418 A000000000000 0000000000000.23     00050 02200                  
02222990444620015DT67590675900000002881800888800000010180088824001193019900012300135011920230000000790101923000000000107054440393XXXXXX4940       VS11    0001111   NYV1 A E383019779735396N8400000000079014RBB00    05DNHAPPY HIPPIE             470826    VD84000000007901 N  549976487134                            000000000+                F PF 08170                     000000000  N000000000       0000000000000.00 0000000.00   0000000.00                             000000000000000                                                                                                                                                     01418 A000000000000 0000000000001.06     01150 01500                  
02223000444620016DT67590675900000002881800888800000010180088824001193019900012300143011920230000000438901923000000000107054464018XXXXXX3139       VS11    0001111   NYV1 A E303019782771680N84000000000438966VJ00    05DNHAPPY HIPPIE             03142D    VS84000000004389 N  549976487134                            000000000+                D CD 12113                     000000000  N000000000 499   0000000000000.00 0000000.00   0000000.00                             000000000000000                                                                                                                                                     01418 A000000000000 0000000000001.02     02100 01000                  
02223010444620017DT67590675900000002881800888800000010180088824001193019900012300150011920230000000887501923000000000107054498503XXXXXX4032       VS11    0001111   NYV1 A E583019801373105N840000000008875VVFT00    05DNHAPPY HIPPIE             015207    VD84000000008875 N  549976487134                            000000000+                F DF 00381                     000000000  N000000000       0000000000000.00 0000000.00   0000000.00                             000000000000000                                                                                                                                                     01418 A000000000000 0000000000000.86     00800 01500                  
02223020444620018DT67590675900000002881800888800000010180088824001193019900012300168011920230000000543001923000000000107054410889XXXXXX7021       VS11    0001111   NYV1 A E383019818895270N840000000005430ZWGT00    05DNHAPPY HIPPIE             563890    VS84000000005430 N  549976487134                            000000000+                B CB 12111                     000000000  N000000000 495   0000000000000.00 0000000.00   0000000.00                             000000000000000                                                                                                                                                     01418 A000000000000 0000000000001.00     01650 01000                  
02223030444620019BH6759067590000000215480088880000090170119202301923000000000083223    0000090001862594N8008886759C01202023                                                                                                                                                                                                                                                                                                                                                                                                                                                                                                                                                                                                 
02223040444620020DT67590675900000002154800888800000010180088824001193019900018651275011920230000006859801923000000000083223433993XXXXXX7007               2111111   NYV4 A7W463019734603868N840000000068598RLND00    01DNDRIP DROP DISTRO LLC     09634G    VB84000000068598 NP1519971004114   17281                    000000000+                G5CG511887                     000000000  N000000000 163   0000000000000.00 0000000.00   0000000.00                             000000000000000                                                                                                                                                     01418 G000000068598 0000000000020.68     03000 01000                  
02223050444620001P16759067590000000215480088880000001010000000000000000    43887086905              2000000000000000000000000              000000000000                    0000000000000000000000000                    000000000000                                                                                                                                                                                                                                                                                                                                                                                                                                                                                        
02223060444620021DT67590675900000002154800888800000010180088887287283019900018625940011920230000001462501923000000000083223512230XXXXXX5835       ME03KE06MS02      NY 4607AMWEFXR32Q0119  N840000000014625          81DNDRIP DROP DISTRO LLC     96205Z    MC84000000014625 N  519900000001   INV-000297               000000000+600450S00140    MWE  00737                     000000000  N                0000000000000.00 0000000.00   0000000.00                             000000000000000                                                                                                                                                   U001418  000000000000 0000000000003.90     02600 01000                  
02223070444620022BH6759067590000000288180088880000090170119202301923000000000052433    0000090001230012N8008886759C01202023                                                                                                                                                                                                                                                                                                                                                                                                                                                                                                                                                                                                 
02223080444620023DT67590675900000002881800888800000010180088824001193019900012300010011920230000000588201923000000000052433400022XXXXXX0750       VS11    0001111   NYV1 A E303019564795558N840000000005882NLR800    05DNHAPPY HIPPIE             727582    VD84000000005882 N  549976487158                            000000000+                F DF 10433                     000000000  Y000000000 338   0000000000000.00 0000000.00   0000000.00                             000000000000000                                                                                                                                                     01418 A000000000000 0000000000000.25     00050 02200                  
02223090444620024DT67590675900000002881800888800000010180088824001193019900012300028011920230000000395001923000000000052433419090XXXXXX3821       VS11    0001111   NYV1 A E383019587073819N8400000000039504KZN00    05DNHAPPY HIPPIE             867672    VD84000000003950 N  549976487158                            000000000+                F DF 00381                     000000000  N000000000       0000000000000.00 0000000.00   0000000.00                             000000000000000                                                                                                                                                     01418 A000000000000 0000000000000.47     00800 01500                  
02223100444620025DT67590675900000002881800888800000010180088877287283019900012300038011920230000000493801923000000000052433515676XXXXXX9094       ME03MS02WI09      NY 1 0 AMWEU05RK40119  N840000000004938          01DNHAPPY HIPPIE             09831Z    MC84000000004938 N  549976487158                            000000000+M1010115434C    MWE  00738                     000000000  N                0000000000000.00 0000000.00   0000000.00                             000000000000000                                                                                                                                                   E101418  000000000000 0000000000001.38     02600 01000                  
02223110444620026DT67590675900000002881800888800000010180088824001193019900012300044011920230000000395001923000000000052433415978XXXXXX3184       VS11    0001111   NYV1 A E583019626042880N840000000003950ZXF300    05DNHAPPY HIPPIE             057169    VD84000000003950 N  549976487158                            000000000+                F DF 10433                     000000000  Y000000000 338   0000000000000.00 0000000.00   0000000.00                             000000000000000                                                                                                                                                     01418 A000000000000 0000000000000.24     00050 02200                  
02223120444620027DT67590675900000002881800888800000010180088824001193019900012300051011920230000000197601923000000000052433445101XXXXXX1443       VS11    0001111   NYV1 A E383019658930856N840000000001976TGPQ00    05DNHAPPY HIPPIE             703384    VD84000000001976 N  549976487158                            000000000+                F DF 10433                     000000000  Y000000000 338   0000000000000.00 0000000.00   0000000.00                             000000000000000                                                                                                                                                     01418 A000000000000 0000000000000.23     00050 02200                  
02223130444620028DT67590675900000002881800888800000010180088877287283019900012300061011920230000000454301923000000000052433549460XXXXXX6510       MS02WI09          NY 1 0 AMCWOVBB0D0119  N840000000004543          05DNHAPPY HIPPIE             01900Z    MC84000000004543 N  549976487158                            000000000+M10101C5434C    MCW  00646                     000000000  N                0000000000000.00 0000000.00   0000000.00                             000000000000000                                                                                                                                                   B101418  000000000000 0000000000000.90     01900 00400                  
02223140444620029DT67590675900000002881800888800000010180088824001193019900012300077011920230000000142601923000000000052433415976XXXXXX0689       VK04VS111111111   NYV1 A E303019681041125N840000000001426MG5F00    05DNHAPPY HIPPIE             057850    VD84000000001426 N  549976487158                            000000000+                F DF 10439                     000000000  Y000000000 331   0000000000000.00 0000000.00   0000000.00                             000000000000000                                                                                                                                                     01418 F000000000000 0000000000000.23     00050 02200                  
02223150444620030DT67590675900000002881800888800000010180088824001193019900012300085011920230000000296001923000000000052433422921XXXXXX0663       VS11    0001111   NYV1 A E463019686360205N840000000002960GNVN00    05DNHAPPY HIPPIE             050637    VD84000000002960 N  549976487158                            000000000+                F DF 00381                     000000000  N000000000       0000000000000.00 0000000.00   0000000.00                             000000000000000                                                                                                                                                     01418 A000000000000 0000000000000.39     00800 01500                  
02223160444620031DT67590675900000002881800888800000010180088824001193019900012300093011920230000000790001923000000000052433414709XXXXXX3598       VS11    0001111   NYV1 A E463019691743822N8400000000079009R5700    05DNHAPPY HIPPIE             07637D    VS84000000007900 N  549976487158                            000000000+                D CD 12113                     000000000  N000000000 499   0000000000000.00 0000000.00   0000000.00                             000000000000000                                                                                                                                                     01418 A000000000000 0000000000001.76     02100 01000                  
02223170444620032DT67590675900000002881800888800000010180088824001193019900012300101011920230000001185001923000000000052433426684XXXXXX2069       VS11    0001111   NYV1 A E383019720462093N840000000011850FGRC00    05DNHAPPY HIPPIE             01390C    VS84000000011850 N  549976487158                            000000000+                C CC 12112                     000000000  N000000000 497   0000000000000.00 0000000.00   0000000.00                             000000000000000                                                                                                                                                     01418 A000000000000 0000000000002.06     01650 01000                  
02223180444620033DT67590675900000002881800888800000010180088877287283019900012300111011920230000000059001923000000000052433511953XXXXXX5324       MS02WI09          NY 1 0 AMDJUQXM2T0119  N840000000000590          05DNHAPPY HIPPIE             016364    MD84000000000590 N  549976487158                            000000000+M10101C5434C    MDJ  00505                     000000000  N                0000000000000.00 0000000.00   0000000.00                             000000000000000                                                                                                                                                   B101418  000000000000 0000000000000.13     01550 00400                  
02223190444620034DT67590675900000002881800888800000010180088824001193019900012300127011920230000000246801923000000000052433428191XXXXXX1338       VS11    0001111   NYV1 A E583019787364024N840000000002468W4V400    90DNHAPPY HIPPIE             161479    VD84000000002468 N  549976487158                            000000000+                F PF 08170                     000000000  N000000000       0000000000000.00 0000000.00   0000000.00                             000000000000000                                                                                                                                                     01418 A000000000000 0000000000000.43     01150 01500                  
