02455650698897855AD675906759000000151648008888000009071900011512440000001987003292023NYY08823ND6759800888033120232023088029964                                                                                                                                                                                                                                                                                                                                                                                                                                                                                                                                                                                              
02455660698897858AD675906759000000151648008888000009071900011822420000002487003292023NYY08823ND6759800888033120232023088030099                                                                                                                                                                                                                                                                                                                                                                                                                                                                                                                                                                                              
02455670698897861AD675906759000000151648008888000009071900012133300000001617003292023NYY08823ND6759800888033120232023088023088                                                                                                                                                                                                                                                                                                                                                                                                                                                                                                                                                                                              
02455680698897864AD675906759000000151648008888000009071900011407410000001987003292023NYY08823ND6759800888033120232023088023089                                                                                                                                                                                                                                                                                                                                                                                                                                                                                                                                                                                              
02455690698897867AD675906759000000151648008888000009071900012344040000001987003292023NYY08823ND6759800888033120232023088023090                                                                                                                                                                                                                                                                                                                                                                                                                                                                                                                                                                                              
02455700698897870AD675906759000000151648008888000009071900012459100000001987003292023NYY08823ND6759800888033120232023088023091                                                                                                                                                                                                                                                                                                                                                                                                                                                                                                                                                                                              
02455710698897873AD675906759000000133008001028000009071900012824090000001509403292023NYY08823ND6759800102033120232023088023092                                                                                                                                                                                                                                                                                                                                                                                                                                                                                                                                                                                              
02455720698897876AD675906759000000151648008888000009071900012130370000000654803292023NYY08823ND6759800888033120232023088023093                                                                                                                                                                                                                                                                                                                                                                                                                                                                                                                                                                                              
02455730698897879AD675906759000000151648008888000009071900012240480000000519003292023NYY08823ND6759800888033120232023088023094                                                                                                                                                                                                                                                                                                                                                                                                                                                                                                                                                                                              
02455740698897882AD675906759000000151648008888000009071900012240440000001987003292023NYY08823ND6759800888033120232023088023095                                                                                                                                                                                                                                                                                                                                                                                                                                                                                                                                                                                              
02455750698897885AD675906759000000151648008888000009071900012240460000000654803292023NYY08823ND6759800888033120232023088023096                                                                                                                                                                                                                                                                                                                                                                                                                                                                                                                                                                                              
02455760698897888AD675906759000000151648008888000009071900011924000000002487003292023NYY08823ND6759800888033120232023088023097                                                                                                                                                                                                                                                                                                                                                                                                                                                                                                                                                                                              
02455770698897891AD675906759000000198288001098000009071900010201470000001987003292023NYY08823ND6759800109033120232023088023098                                                                                                                                                                                                                                                                                                                                                                                                                                                                                                                                                                                              
02455780698897894AD675906759000000198288001098000009071900010205810000000654803292023NYY08823ND6759800109033120232023088023099                                                                                                                                                                                                                                                                                                                                                                                                                                                                                                                                                                                              
02455790698897897AD675906759000000198288001098000009071900010205800000002487003292023NYY08823ND6759800109033120232023088023100                                                                                                                                                                                                                                                                                                                                                                                                                                                                                                                                                                                              
02455800698897900AD675906759000000198288001098000009071900010205820000000519003292023NYY08823ND6759800109033120232023088023101                                                                                                                                                                                                                                                                                                                                                                                                                                                                                                                                                                                              
02455810698897903AD675906759000000151648008888000009071900011719540000001987003292023NYY08823ND6759800888033120232023088023102                                                                                                                                                                                                                                                                                                                                                                                                                                                                                                                                                                                              
02455820700413675BH6759067590000001982880010980000090170330202308923000000000056288    0000090001090970N8001096759D03312023                                                                                                                                                                                                                                                                                                                                                                                                                                                                                                                                                                                                 
02455830700413676DT67590675900000019828800109800000010680010974001193089900010909689032920230000002487008923000000000056288448915XXXXXX3197               0000000   YYV4 07T583088627404383N840000000024870Q8WK00    01CNKETOFUSION 8885968154    029760    VS84000000024870 NP1599977547467   E9D01B9D2DT24819F69636E  000000000+                C CC 00245                     000000000  N000000000 166   0000000000000.00 0000000.00   0000000.00                             000000000000000                                                                                                                                                     015WPE 000000024870-0000000000004.38     01760 00000                  
02455840700410001P16759067590000001982880010980000001060000000000000000                             2000000000000000000000000              000000000000                    0000000000000000000000000                    000000000000                                                                                                                                                                                                                                                                                                                                                                                                                                                                                        
02455850700413677DT67590675900000019828800109800000010680010974001193089900010909697032920230000002487008923000000000056288459954XXXXXX4361               0000000   YYV4 07T463088698093983N840000000024870TBCP00    01CNKETOFUSION 8885968154    H67268    VD84000000024870 NP1599977547467   52D944E7B2TD49F9D07449C  000000000+                F DF 08168                     000000000  Y000000000 369   0000000000000.00 0000000.00   0000000.00                             000000000000000                                                                                                                                                     015WPE 000000024870 0000000000000.00     00000 00000                  
02455860700410001P16759067590000001982880010980000001060000000000000000                             2000000000000000000000000              000000000000                    0000000000000000000000000                    000000000000                                                                                                                                                                                                                                                                                                                                                                                                                                                                                        
02455870700413678DT67590675900000019828800109800000010680010974001193089900010909705032920230000000654808923000000000056288459954XXXXXX4361               0000000   YYV4 07T303088698788867N840000000006548PLD900    01CNKETOFUSION 8885968154    H49055    VD84000000006548 NP1599977547467   52D944E7B2T7E5F3E741C2D  000000000+                F DF 08168                     000000000  Y000000000 369   0000000000000.00 0000000.00   0000000.00                             000000000000000                                                                                                                                                     015WPE 000000006548 0000000000000.00     00000 00000                  
02455880700410001P16759067590000001982880010980000001060000000000000000                             2000000000000000000000000              000000000000                    0000000000000000000000000                    000000000000                                                                                                                                                                                                                                                                                                                                                                                                                                                                                        
02455890701390002BH6759067590000000288180088880000090170330202308923000000000074062    0000090001820012N8008886759C03312023                                                                                                                                                                                                                                                                                                                                                                                                                                                                                                                                                                                                 
02455900701390003DT67590675900000002881800888800000010180088877287283089900018200013033020230000001316708923000000000074062530146XXXXXX7411       MS02WI09          NY 1 0 AMDJF2KX7B0330  N840000000013167          05DNHAPPY HIPPIE             000199    MD84000000013167 N  549976487134                            000000000+M10101C5434C    MDJ  00402                     000000000  N                0000000000000.00 0000000.00   0000000.00                             000000000000000                                                                                                                                                   B101418  000000000000 0000000000001.53     01050 01500                  
02455910701390004DT67590675900000002881800888800000010180088824001193089900018200029033020230000001646308923000000000074062480639XXXXXX6940       VS11    0001111   NYV1 A E383089551540912N8400000000164635FS500    05DNHAPPY HIPPIE             213090    VD84000000016463 N  549976487134                            000000000+                F DF 00381                     000000000  N000000000       0000000000000.00 0000000.00   0000000.00                             000000000000000                                                                                                                                                     01418 A000000000000 0000000000001.47     00800 01500                  
02455920701390005DT67590675900000002881800888800000010180088877287283089900018200039033020230000000325808923000000000074062511953XXXXXX0916       MS02WI09          NY 1 0 AMDJX4JMZE0330  N840000000003258          05DNHAPPY HIPPIE             099038    MD84000000003258 N  549976487134                            000000000+M10101C5434C    MDJ  00402                     000000000  N                0000000000000.00 0000000.00   0000000.00                             000000000000000                                                                                                                                                   B101418  000000000000 0000000000000.49     01050 01500                  
02455930701390006DT67590675900000002881800888800000010180088877287283089900018200047033020230000001075308923000000000074062544579XXXXXX5345       MS02WI09          NY 1 0 AMDJB3EO2Y0330  N840000000010753          05DNHAPPY HIPPIE             333894    MD84000000010753 N  549976487134                            000000000+M10101C5434C    MDJ  10815                     000000000  1                0000000000000.00 0000000.00   0000000.00                             000000000000000                                                                                                                                                   B101418  000000000000 0000000000000.27     00050 02200                  
02455940701390007DT67590675900000002881800888800000010180088877287283089900018200054033020230000000120608923000000000074062511959XXXXXX0750       MS02WI09          NY 1 0 AMDSJZQI3P0330  N840000000001206          05DNHAPPY HIPPIE             853905    MD84000000001206 N  549976487134                            000000000+M10101C5434C    MDS  00505                     000000000  N                0000000000000.00 0000000.00   0000000.00                             000000000000000                                                                                                                                                   B101418  000000000000 0000000000000.23     01550 00400                  
02455950701390008DT67590675900000002881800888800000010180088824001193089900018200060033020230000000296208923000000000074062422921XXXXXX1962       VS11    0001111   NYV1 A E303089636015261N840000000002962NJRC00    05DNHAPPY HIPPIE             049202    VD84000000002962 N  549976487134                            000000000+                F DF 00381                     000000000  N000000000       0000000000000.00 0000000.00   0000000.00                             000000000000000                                                                                                                                                     01418 A000000000000 0000000000000.39     00800 01500                  
02455960701390009DT67590675900000002881800888800000010180088877287283089900018200070033020230000000206308923000000000074062559758XXXXXX0622       MS02WI09          NY 2 0 AMPVBOS7460330  N840000000002063          05DNHAPPY HIPPIE             ATT369    MD84000000002063 N  549976487134                            000000000+M10101C1334C    MPV  11964                     000000000  N                0000000000000.00 0000000.00   0000000.00                             000000000000000                                                                                                                                                     01418  000000000000 0000000000000.39     01150 01500                  
02455970701390010DT67590675900000002881800888800000010180088824001193089900018200086033020230000000078908923000000000074062419090XXXXXX5071       VK04VS111111111   NYV1 A E383089703783788N8400000000007892FXJ00    05DNHAPPY HIPPIE             839106    VD84000000000789 N  549976487134                            000000000+                F DF 00451                     000000000  N000000000 214   0000000000000.00 0000000.00   0000000.00                             000000000000000                                                                                                                                                     01418 F000000000000 0000000000000.16     01550 00400                  
02455980701390011DT67590675900000002881800888800000010180088824001193089900018200094033020230000000395008923000000000074062422921XXXXXX7166       VS11    0001111   NYV1 A E383089711978477N840000000003950P44P00    05DNHAPPY HIPPIE             056798    VD84000000003950 N  549976487134                            000000000+                F DF 00381                     000000000  N000000000       0000000000000.00 0000000.00   0000000.00                             000000000000000                                                                                                                                                     01418 A000000000000 0000000000000.47     00800 01500                  
02455990701390012DT67590675900000002881800888800000010180088824001193089900018200102033020230000000246808923000000000074062419090XXXXXX4827       VS11    0001111   NYV1 A E303089733728430N840000000002468VCJC00    05DNHAPPY HIPPIE             840967    VD84000000002468 N  549976487134                            000000000+                F DF 00381                     000000000  N000000000       0000000000000.00 0000000.00   0000000.00                             000000000000000                                                                                                                                                     01418 A000000000000 0000000000000.35     00800 01500                  
02456000701390013DT67590675900000002881800888800000010180088824001193089900018200110033020230000000483808923000000000074062440393XXXXXX9486       VS11    0001111   NYV1 A E583089739334532N8400000000048385M2M00    05DNHAPPY HIPPIE             380243    VD84000000004838 N  549976487134                            000000000+                F PF 08170                     000000000  N000000000       0000000000000.00 0000000.00   0000000.00                             000000000000000                                                                                                                                                     01418 A000000000000 0000000000000.71     01150 01500                  
02456010701390014DT67590675900000002881800888800000010180088877287283089900018200120033020230000001214508923000000000074062542543XXXXXX7799       MS02WI09          NY 1 0 AMDHOA4XBO0330  N840000000012145          05DNHAPPY HIPPIE             046917    MD84000000012145 N  549976487134                            000000000+M10101C5434C    MDH  00402                     000000000  N                0000000000000.00 0000000.00   0000000.00                             000000000000000                                                                                                                                                   B101418  000000000000 0000000000001.43     01050 01500                  
02456020701390015BH6759067590000000215480088880000090170330202308923000000001463900    0000090001472576N8008886759C03312023                                                                                                                                                                                                                                                                                                                                                                                                                                                                                                                                                                                                 
02456030701390016DT67590675900000002154800888800000010180088887287283089900014765570033020230000011760008923000000001463900548009XXXXXX4985                         NY 4607AMDBEUTQ460330  N840000000117600          81DNDRIP DROP DISTRO LLC     272329    MD84000000117600 NP1519900000001   INV-001285               000000000+600450S00140    MDB  10786                     000000000  1                0000000000000.00 0000000.00   0000000.00                             000000000000000                                                                                                                                                   U001418  000000000000 0000000000000.81     00050 02200                  
02456040701390001P1675906759000000021548008888000000101                                                          000000000000          8000            471534935                                                                                                                                                                                                                                                                                                                                                                                                                                                                                                                                                            
02456050701390017DT67590675900000002154800888800000010180088824001193089900014732033033020230000011970008923000000001463900413574XXXXXX6893               2111111   NYV4 A7W383088813765766N840000000119700JCGT00    01DNDRIP DROP DISTRO LLC     153863    VD84000000119700 NP1519971004114   INV-001425               000000000+                G DG 10352                     000000000  Y000000000 338   0000000000000.00 0000000.00   0000000.00                             000000000000000                                                                                                                                                     01418 G000000119700 0000000000000.82     00050 02200                  
02456060701390001P16759067590000000215480088880000001010000000000000000    44028215505              2000000000000000000000000              000000000000                    0000000000000000000000000                    000000000000                                                                                                                                                                                                                                                                                                                                                                                                                                                                                        
02456070701390018DT67590675900000002154800888800000010180088887287283089900014739898033020230000009160008923000000001463900558212XXXXXX7962                         NY 4607AMDBJ5YL430330  N840000000091600          81DNDRIP DROP DISTRO LLC     025934    MD84000000091600 NP1519900000001   17627                    000000000+600450S00140    MDB  00062                     000000000  N                0000000000000.00 0000000.00   0000000.00                             000000000000000                                                                                                                                                   U001418  000000000000 0000000000024.37     02650 01000                  
02456080701390001P1675906759000000021548008888000000101                                                          000000000000          8000            471534935                                                                                                                                                                                                                                                                                                                                                                                                                                                                                                                                                            
02456090701390019DT67590675900000002154800888800000010180088824001193089900014725763033020230000113500008923000000001463900410040XXXXXX9740               2111111   NYV4 A7W303089626071233N840000001135000FBR800    01DNDRIP DROP DISTRO LLC     44192G    VB84000001135000 NP1519971004114   INV-001431               000000000+                G3CG308002                     000000000  N000000000 381   0000000000000.00 0000000.00   0000000.00                             000000000000000                                                                                                                                                     01418 G000001135000 0000000000317.90     02800 01000                  
02456100701390001P16759067590000000215480088880000001010000000000000000    44029624073              2000000000000000000000000              000000000000                    0000000000000000000000000                    000000000000                                                                                                                                                                                                                                                                                                                                                                                                                                                                                        
02456110701390020BH6759067590000000288180088880000090170330202308923000000000112732    0000090001840027N8008886759C03312023                                                                                                                                                                                                                                                                                                                                                                                                                                                                                                                                                                                                 
02456120701390021DT67590675900000002881800888800000010180088824001193089900018400017033020230000000438908923000000000112732445171XXXXXX7667       VS11    0001111   NYV1 A E303089507336582N840000000004389BHVF00    05DNHAPPY HIPPIE             661580    VD84000000004389 N  549976487158                            000000000+                F DF 00381                     000000000  N000000000       0000000000000.00 0000000.00   0000000.00                             000000000000000                                                                                                                                                     01418 A000000000000 0000000000000.50     00800 01500                  
02456130701390022DT67590675900000002881800888800000010180088877287283089900018400027033020230000000562808923000000000112732525363XXXXXX6413       MS02WI09          NY 1 0 AMWEHHFX6M0330  N840000000005628          05DNHAPPY HIPPIE             49430Z    MC84000000005628 N  549976487158                            000000000+M10101C0034C    MWE  00743                     000000000  N                0000000000000.00 0000000.00   0000000.00                             000000000000000                                                                                                                                                   B101418  000000000000 0000000000001.33     02300 00400                  
02456140701390023DT67590675900000002881800888800000010180088824001193089900018400033033020230000000237108923000000000112732422921XXXXXX6466       VS11    0001111   NYV1 A E383089522399699N840000000002371JKT200    07DNHAPPY HIPPIE             037840    VD84000000002371 N  549976487158                            000000000+                F DF 00381                     000000000  N000000000       0000000000000.00 0000000.00   0000000.00                             000000000000000                                                                                                                                                     01418 A000000000000 0000000000000.34     00800 01500                  
02456150701390024DT67590675900000002881800888800000010180088877287283089900018400043033020230000000414608923000000000112732517604XXXXXX6946       MS02WI09          NY 1 0 AMWEHZEL6M0330  N840000000004146          07DNHAPPY HIPPIE             78660W    MC84000000004146 N  549976487158                            000000000+M10101M0034C    MWE  00646                     000000000  N                0000000000000.00 0000000.00   0000000.00                             000000000000000                                                                                                                                                   A101418  000000000000 0000000000000.83     01900 00400                  
02456160701390025DT67590675900000002881800888800000010180088824001193089900018400058033020230000000548808923000000000112732400022XXXXXX0750       VS11    0001111   NYV1 A E583089529376239N840000000005488Q48800    07DNHAPPY HIPPIE             598994    VD84000000005488 N  549976487158                            000000000+                F DF 10433                     000000000  Y000000000 338   0000000000000.00 0000000.00   0000000.00                             000000000000000                                                                                                                                                     01418 A000000000000 0000000000000.25     00050 02200                  
02456170701390026DT67590675900000002881800888800000010180088824001193089900018400066033020230000000038308923000000000112732400022XXXXXX0750       VK04VS111111111   NYV1 A E383089529944478N84000000000038325MB00    07DNHAPPY HIPPIE             599626    VD84000000000383 N  549976487158                            000000000+                F DF 10439                     000000000  Y000000000 331   0000000000000.00 0000000.00   0000000.00                             000000000000000                                                                                                                                                     01418 F000000000000 0000000000000.22     00050 02200                  
02456180701390027DT67590675900000002881800888800000010180088824001193089900018400074033020230000000439008923000000000112732415978XXXXXX3184       VS11    0001111   NYV1 A E583089530514683N840000000004390LK8P00    07DNHAPPY HIPPIE             050094    VD84000000004390 N  549976487158                            000000000+                F DF 10433                     000000000  Y000000000 338   0000000000000.00 0000000.00   0000000.00                             000000000000000                                                                                                                                                     01418 A000000000000 0000000000000.24     00050 02200                  
02456190701390028DT67590675900000002881800888800000010180088824001193089900018400082033020230000000048308923000000000112732443264XXXXXX4906       VK04VS111111111   NYV1 A E463089566458493N8400000000004834S6D00    07DNHAPPY HIPPIE             025514    VD84000000000483 N  549976487158                            000000000+                F DF 10439                     000000000  Y000000000 331   0000000000000.00 0000000.00   0000000.00                             000000000000000                                                                                                                                                     01418 F000000000000 0000000000000.22     00050 02200                  
02456200701390029DT67590675900000002881800888800000010180088877287283089900018400092033020230000000099908923000000000112732518941XXXXXX4253       MS02WI09          NY 1 0 AMWEV95JZE0330  N840000000000999          07DNHAPPY HIPPIE             76142Z    MC84000000000999 N  549976487158                            000000000+M10101M0034C    MWE  00743                     000000000  N                0000000000000.00 0000000.00   0000000.00                             000000000000000                                                                                                                                                   B101418  000000000000 0000000000000.27     02300 00400                  
02456210701390030DT67590675900000002881800888800000010180088824001193089900018400108033020230000000395108923000000000112732498503XXXXXX9797       VS11    0001111   NYV1 A E463089619363017N840000000003951N6FX00    05DNHAPPY HIPPIE             010107    VD84000000003951 N  549976487158                            000000000+                F DF 00381                     000000000  N000000000       0000000000000.00 0000000.00   0000000.00                             000000000000000                                                                                                                                                     01418 A000000000000 0000000000000.47     00800 01500                  
02456220701390031DT67590675900000002881800888800000010180088824001193089900018400116033020230000000216108923000000000112732461608XXXXXX6824       VS11    0001111   NYV1 A E303089633931399N840000000002161TRHR00    07DNHAPPY HIPPIE             63402A    VS84000000002161 N  549976487158                            000000000+                A CA 12110                     000000000  N000000000 493   0000000000000.00 0000000.00   0000000.00                             000000000000000                                                                                                                                                     01418 A000000000000 0000000000000.43     01510 01000                  
02456230701390032DT67590675900000002881800888800000010180088877287283089900018400126033020230000001332008923000000000112732516249XXXXXX3181       MS02WI09          NY 1 0 AMDJ4ERE450330  N840000000013320          05DNHAPPY HIPPIE             126808    MD84000000013320 N  549976487158                            000000000+M10101C5434C    MDJ  00402                     000000000  N                0000000000000.00 0000000.00   0000000.00                             000000000000000                                                                                                                                                   B101418  000000000000 0000000000001.55     01050 01500                  
02456240701390033DT67590675900000002881800888800000010180088824001193089900018400132033020230000000444408923000000000112732414709XXXXXX8070       VS11    0001111   NYV1 A E463089641473492N840000000004444HR7B00    07DNHAPPY HIPPIE             07249D    VS84000000004444 N  549976487158                            000000000+                D CD 12113                     000000000  N000000000 499   0000000000000.00 0000000.00   0000000.00                             000000000000000                                                                                                                                                     01418 A000000000000 0000000000001.03     02100 01000                  
02456250701390034DT67590675900000002881800888800000010180088877287283089900018400142033020230000000671208923000000000112732514377XXXXXX9143       MS02WI09          NY 1 0 AMDJDMWO2Y0330  N840000000006712          07DNHAPPY HIPPIE             26PKE2    MD84000000006712 N  549976487158                            000000000+M10101M5434C    MDJ  00402                     000000000  N                0000000000000.00 0000000.00   0000000.00                             000000000000000                                                                                                                                                   B101418  000000000000 0000000000000.85     01050 01500                  
02456260701390035DT67590675900000002881800888800000010180088824001193089900018400157033020230000000790108923000000000112732404227XXXXXX2167       VS11    0001111   NYV1 A E583089689769509N840000000007901546L00    05DNHAPPY HIPPIE             960375    VD84000000007901 N  549976487158                            000000000+                F DF 00381                     000000000  N000000000       0000000000000.00 0000000.00   0000000.00                             000000000000000                                                                                                                                                     01418 A000000000000 0000000000000.78     00800 01500                  
02456270701390036DT67590675900000002881800888800000010180088824001193089900018400165033020230000000068608923000000000112732474473XXXXXX4886       VK04VS111111111   NYV1 A E383089690839223N8400000000006867LNW00    05DNHAPPY HIPPIE             161613    VD84000000000686 N  549976487158                            000000000+                F DF 10439                     000000000  Y000000000 331   0000000000000.00 0000000.00   0000000.00                             000000000000000                                                                                                                                                     01418 F000000000000 0000000000000.22     00050 02200                  
02456280701390037DT67590675900000002881800888800000010180088877287283089900018400175033020230000000197408923000000000112732542418XXXXXX5033       MS02WI09          NY 1 0 AMWEM5S33P0330  N840000000001974          05DNHAPPY HIPPIE             84293P    MC84000000001974 N  549976487158                            000000000+M10101C5434C    MWE  00743                     000000000  N                0000000000000.00 0000000.00   0000000.00                             000000000000000                                                                                                                                                   B101418  000000000000 0000000000000.49     02300 00400                  
02456290701390038DT67590675900000002881800888800000010180088824001193089900018400181033020230000000329308923000000000112732445100XXXXXX5955       VS11    0001111   NYV1 A E583089697018562N840000000003293Z5ZS00    05DNHAPPY HIPPIE             375761    VD84000000003293 N  549976487158                            000000000+                F DF 10433                     000000000  Y000000000 338   0000000000000.00 0000000.00   0000000.00                             000000000000000                                                                                                                                                     01418 A000000000000 0000000000000.24     00050 02200                  
02456300701390039DT67590675900000002881800888800000010180088824001193089900018400199033020230000000108308923000000000112732419090XXXXXX5071       VK04VS111111111   NYV1 A E303089701640385N840000000001083C24G00    05DNHAPPY HIPPIE             838973    VD84000000001083 N  549976487158                            000000000+                F DF 00451                     000000000  N000000000 214   0000000000000.00 0000000.00   0000000.00                             000000000000000                                                                                                                                                     01418 F000000000000 0000000000000.21     01550 00400                  
02456310701390040DT67590675900000002881800888800000010180088824001193089900018400207033020230000000384908923000000000112732419090XXXXXX1754       VS11    0001111   NYV1 A E303089704669947N840000000003849CJ8900    05DNHAPPY HIPPIE             839157    VD84000000003849 N  549976487158                            000000000+                F DF 00381                     000000000  N000000000       0000000000000.00 0000000.00   0000000.00                             000000000000000                                                                                                                                                     01418 A000000000000 0000000000000.46     00800 01500                  
02456320701390041DT67590675900000002881800888800000010180088824001193089900018400215033020230000000790008923000000000112732463405XXXXXX6925       VS11    0001111   NYV1 A E383089729014485N8400000000079002LDJ00    05DNHAPPY HIPPIE             015930    VD84000000007900 N  549976487158                            000000000+                F DF 10433                     000000000  Y000000000 338   0000000000000.00 0000000.00   0000000.00                             000000000000000                                                                                                                                                     01418 A000000000000 0000000000000.26     00050 02200                  
02456330701390042DT67590675900000002881800888800000010180088824001193089900018400223033020230000001173908923000000000112732473702XXXXXX3047       VS11    0001111   NYV1 A E383089733444329N840000000011739ZZNS00    05DNHAPPY HIPPIE             035931    VD84000000011739 N  549976487158                            000000000+                F DF 10433                     000000000  Y000000000 338   0000000000000.00 0000000.00   0000000.00                             000000000000000                                                                                                                                                     01418 A000000000000 0000000000000.28     00050 02200                  
02456340701390043DT67590675900000002881800888800000010180088824001193089900018400231033020230000000395008923000000000112732443264XXXXXX2061       VS11    0001111   NYV1 A E383089741322183N840000000003950TJLF00    07DNHAPPY HIPPIE             018399    VD84000000003950 N  549976487158                            000000000+                F DF 10433                     000000000  Y000000000 338   0000000000000.00 0000000.00   0000000.00                             000000000000000                                                                                                                                                     01418 A000000000000 0000000000000.24     00050 02200                  
02456350701390044DT67590675900000002881800888800000010180088824001193089900018400249033020230000000312708923000000000112732422921XXXXXX2938       VS11    0001111   NYV1 A E583089742726373N840000000003127DZR300    07DNHAPPY HIPPIE             059873    VD84000000003127 N  549976487158                            000000000+                F DF 00381                     000000000  N000000000       0000000000000.00 0000000.00   0000000.00                             000000000000000                                                                                                                                                     01418 A000000000000 0000000000000.40     00800 01500                  
02456360701390045DT67590675900000002881800888800000010180088824001193089900018400256033020230000000395008923000000000112732461046XXXXXX9809       VS11    0001111   NYV1 A E583089776467403N840000000003950XVBT00    07DNHAPPY HIPPIE             073417    VD84000000003950 N  549976487158                            000000000+                F DF 10433                     000000000  Y000000000 338   0000000000000.00 0000000.00   0000000.00                             000000000000000                                                                                                                                                     01418 A000000000000 0000000000000.24     00050 02200                  
02456370701390046DT67590675900000002881800888800000010180088824001193089900018400264033020230000000285208923000000000112732443264XXXXXX3780       VS11    0001111   NYV1 A E383089778742992N840000000002852NNPC00    07DNHAPPY HIPPIE             021730    VD84000000002852 N  549976487158                            000000000+                F DF 10433                     000000000  Y000000000 338   0000000000000.00 0000000.00   0000000.00                             000000000000000                                                                                                                                                     01418 A000000000000 0000000000000.23     00050 02200                  
02456380701390047DT67590675900000002881800888800000010180088877287283089900018400274033020230000000156308923000000000112732518941XXXXXX4253       MS02WI09          NY 1 0 AMWEVC2YBO0330  N840000000001563          07DNHAPPY HIPPIE             35540Z    MC84000000001563 N  549976487158                            000000000+M10101M0034C    MWE  00743                     000000000  N                0000000000000.00 0000000.00   0000000.00                             000000000000000                                                                                                                                                   B101418  000000000000 0000000000000.40     02300 00400                  
02456390701390048BH6759067590000000833480010180000090170330202308923000000000174959    0000090001150045N8001016759C03312023                                                                                                                                                                                                                                                                                                                                                                                                                                                                                                                                                                                                 
02456400701390049DT67590675900000008334800101800000010180010124001193089900011500011033020230000000320808923000000000174959473703XXXXXX2947       VS11    0001111   NYV1 A E303089507468034N840000000003208JLNZ00    05DNPLANET VAPOR INC #400    018605    VD84000000003208 N  599977384698                            000000000+                F DF 10433                     000000000  Y000000000 338   0000000000000.00 0000000.00   0000000.00                             000000000000000                                                                                                                                                     01418 A000000000000 0000000000000.24     00050 02200                  
02456410701390050DT67590675900000008334800101800000010180010124001193089900011500029033020230000000188708923000000000174959473703XXXXXX2947       VS11    0001111   NYV1 A E463089508157412N840000000001887SQ3P00    05DNPLANET VAPOR INC #400    020061    VD84000000001887 N  599977384698                            000000000+                F DF 10433                     000000000  Y000000000 338   0000000000000.00 0000000.00   0000000.00                             000000000000000                                                                                                                                                     01418 A000000000000 0000000000000.23     00050 02200                  
02456420701390051DT67590675900000008334800101800000010180010124001193089900011500037033020230000000534808923000000000174959430602XXXXXX8880       VS11    0001111   NYV1 A E303089510978634N840000000005348D32R00    05DNPLANET VAPOR INC #400    705679    VD84000000005348 N  599977384698                            000000000+                F DF 00381                     000000000  N000000000       0000000000000.00 0000000.00   0000000.00                             000000000000000                                                                                                                                                     01418 A000000000000 0000000000000.58     00800 01500                  
02456430701390052DT67590675900000008334800101800000010180010177287283089900011500047033020230000000695308923000000000174959523081XXXXXX3986       MS02WI09          NY 1 0 AMPLFJMP7B0330  N840000000006953          05DNPLANET VAPOR INC #400    08012Z    MC84000000006953 N  599977384698                            000000000+M10101C5434C    MPL  00015                     000000000  N                0000000000000.00 0000000.00   0000000.00                             000000000000000                                                                                                                                                   B101418  000000000000 0000000000001.25     01650 01000                  
02456440701390053DT67590675900000008334800101800000010180010124001193089900011500052033020230000000235308923000000000174959439882XXXXXX1623       VS11    0001111   NYV1 A E463089538548161N840000000002353M9QP00    05DNPLANET VAPOR INC #400    004458    VB84000000002353 N  599977384698                            000000000+                K CK 00694                    L000000000  N000000000 235   0000000000000.00 0000000.00   0000000.00                             000000000000000                                                                                                                                                     01418 A000000000000 0000000000000.69     02500 01000                  
02456450701390054DT67590675900000008334800101800000010180010177287283089900011500062033020230000000267408923000000000174959531257XXXXXX7786       MS02WI09          NY 1 0 AMDJVNMNZE0330  N840000000002674          05DNPLANET VAPOR INC #400    162238    MD84000000002674 N  599977384698                            000000000+M10101C5434C    MDJ  10815                     000000000  1                0000000000000.00 0000000.00   0000000.00                             000000000000000                                                                                                                                                   B101418  000000000000 0000000000000.23     00050 02200                  
02456460701390055DT67590675900000008334800101800000010180010177287283089900011500070033020230000000135308923000000000174959530388XXXXXX0995       MS02WI09          NY 1 0 AMDJL2ZEZE0330  N840000000001353          05DNPLANET VAPOR INC #400    313119    MD84000000001353 N  599977384698                            000000000+M10101C5434C    MDJ  00402                     000000000  N                0000000000000.00 0000000.00   0000000.00                             000000000000000                                                                                                                                                   B101418  000000000000 0000000000000.29     01050 01500                  
02456470701390056DT67590675900000008334800101800000010180010124001193089900011500086033020230000000605908923000000000174959421783XXXXXX5459       VS11    0001111   NYV1 A E383089566257233N840000000006059NDCS00    05DNPLANET VAPOR INC #400    089849    VS84000000006059 N  599977384698                            000000000+                A CA 12110                     000000000  N000000000 493   0000000000000.00 0000000.00   0000000.00                             000000000000000                                                                                                                                                     01418 A000000000000 0000000000001.01     01510 01000                  
02456480701390057DT67590675900000008334800101800000010180010177287283089900011500096033020230000000802308923000000000174959527519XXXXXX1614       MS02WI09          NY 1 0 AMDJL9NOZE0330  N840000000008023          05DNPLANET VAPOR INC #400    174297    MD84000000008023 N  599977384698                            000000000+M10101C5434C    MDJ  10815                     000000000  1                0000000000000.00 0000000.00   0000000.00                             000000000000000                                                                                                                                                   B101418  000000000000 0000000000000.26     00050 02200                  
02456490701390058DT67590675900000008334800101800000010180010124001193089900011500102033020230000000213908923000000000174959490624XXXXXX2771       VS11    0001111   NYV1 A E383089570958064N840000000002139DBTL00    07DNPLANET VAPOR INC #400    031646    VD84000000002139 N  599977384698                            000000000+                F DF 10433                     000000000  Y000000000 338   0000000000000.00 0000000.00   0000000.00                             000000000000000                                                                                                                                                     01418 A000000000000 0000000000000.23     00050 02200                  
02456500701390059DT67590675900000008334800101800000010180010124001193089900011500110033020230000000454508923000000000174959461675XXXXXX8006       VS11    0001111   NYV1 A E383089585844588N840000000004545HQMH00    05DNPLANET VAPOR INC #400    405190    VD84000000004545 N  599977384698                            000000000+                F DF 00381                     000000000  N000000000       0000000000000.00 0000000.00   0000000.00                             000000000000000                                                                                                                                                     01418 A000000000000 0000000000000.51     00800 01500                  
02456510701390060DT67590675900000008334800101800000010180010124001193089900011500128033020230000000213908923000000000174959461675XXXXXX0591       VS11    0001111   NYV1 A E463089588392260N8400000000021394MVX00    05DNPLANET VAPOR INC #400    408350    VD84000000002139 N  599977384698                            000000000+                F DF 00381                     000000000  N000000000       0000000000000.00 0000000.00   0000000.00                             000000000000000                                                                                                                                                     01418 A000000000000 0000000000000.32     00800 01500                  
02456520701390061DT67590675900000008334800101800000010180010176509753089900011500134033020230000000299408923000000000174959601101XXXXXX8093   BA50                  NY41 0 N753076477001869N840000000002994    00    05DNPLANET VAPOR INC #400    03063B    DZ84000000002994 N  599977384698050                         000000000+0000004910H00   DMCDI01012334844  122140000000 000000000  0          124   0000000000000.00 0000000.00   0000000.00                             000000000000000                                                                                                                                                     01418  000000000000 0000000000000.88     02450 01500                  
02456530701390062DT67590675900000008334800101800000010180010124001193089900011500144033020230000000406408923000000000174959443264XXXXXX3526       VS11    0001111   NYV1 A E463089592157725N840000000004064TSQ200    05DNPLANET VAPOR INC #400    017664    VD84000000004064 N  599977384698                            000000000+                F DF 10433                     000000000  Y000000000 338   0000000000000.00 0000000.00   0000000.00                             000000000000000                                                                                                                                                     01418 A000000000000 0000000000000.24     00050 02200                  
02456540701390063DT67590675900000008334800101800000010180010124001193089900011500151033020230000000263708923000000000174959465992XXXXXX1062       VS11    0001111   NYV1 A E583089602084766N84000000000263735DP00    07DNPLANET VAPOR INC #400    797429    VD84000000002637 N  599977384698                            000000000+                F DF 00381                     000000000  N000000000       0000000000000.00 0000000.00   0000000.00                             000000000000000                                                                                                                                                     01418 A000000000000 0000000000000.36     00800 01500                  
02456550701390064DT67590675900000008334800101800000010180010177287283089900011500161033020230000000106808923000000000174959545443XXXXXX4252       MS02WI09          NY 1 0 AMDJP5W46M0330  N840000000001068          80DNPLANET VAPOR INC #400    076509    MD84000000001068 N  599977384698                            000000000+M10101B5434C    MDJ  00402                     000000000  N                0000000000000.00 0000000.00   0000000.00                             000000000000000                                                                                                                                                   C101418  000000000000 0000000000000.26     01050 01500                  
02456560701390065DT67590675900000008334800101800000010180010124001193089900011500177033020230000000213908923000000000174959427199XXXXXX0364       VS11    0001111   NYV1 A E583089614451161N840000000002139G2XZ00    05DNPLANET VAPOR INC #400    845573    VD84000000002139 N  599977384698                            000000000+                F DF 00381                     000000000  N000000000       0000000000000.00 0000000.00   0000000.00                             000000000000000                                                                                                                                                     01418 A000000000000 0000000000000.32     00800 01500                  
02456570701390066DT67590675900000008334800101800000010180010124001193089900011500185033020230000000423508923000000000174959435640XXXXXX6892       VS11    0001111   NYV1 A E583089618312661N840000000004235W5MF00    05DNPLANET VAPOR INC #400    161403    VD84000000004235 N  599977384698                            000000000+                F DF 10433                     000000000  Y000000000 338   0000000000000.00 0000000.00   0000000.00                             000000000000000                                                                                                                                                     01418 A000000000000 0000000000000.24     00050 02200                  
02456580701390067DT67590675900000008334800101800000010180010177287283089900011500195033020230000000235308923000000000174959514377XXXXXX0126       MS02WI09          NY 1 0 AMDJ3ZDW450330  N840000000002353          05DNPLANET VAPOR INC #400    1A2MYP    MD84000000002353 N  599977384698                            000000000+M10101C5434C    MDJ  00402                     000000000  N                0000000000000.00 0000000.00   0000000.00                             000000000000000                                                                                                                                                   B101418  000000000000 0000000000000.40     01050 01500                  
02456590701390068DT67590675900000008334800101800000010180010124001193089900011500201033020230000000149608923000000000174959474474XXXXXX7371       VK04VS111111111   NYV1 A E383089674560306N840000000001496QTDN00    05DNPLANET VAPOR INC #400    184649    VD84000000001496 N  599977384698                            000000000+                F DF 10439                     000000000  Y000000000 331   0000000000000.00 0000000.00   0000000.00                             000000000000000                                                                                                                                                     01418 F000000000000 0000000000000.23     00050 02200                  
02456600701390069DT67590675900000008334800101800000010180010124001193089900011500219033020230000000641608923000000000174959406095XXXXXX2431       VS11    0001111   NYV1 A E303089692086029N8400000000064169K9J00    05DNPLANET VAPOR INC #400    09876D    VS84000000006416 N  599977384698                            000000000+                D CD 12113                     000000000  N000000000 499   0000000000000.00 0000000.00   0000000.00                             000000000000000                                                                                                                                                     01418 A000000000000 0000000000001.45     02100 01000                  
02456610701390070DT67590675900000008334800101800000010180010124001193089900011500227033020230000000320808923000000000174959445115XXXXXX2142       VS11    0001111   NYV1 A E583089693003223N8400000000032085MFH00    05DNPLANET VAPOR INC #400    372501    VD84000000003208 N  599977384698                            000000000+                F DF 10433                     000000000  Y000000000 338   0000000000000.00 0000000.00   0000000.00                             000000000000000                                                                                                                                                     01418 A000000000000 0000000000000.24     00050 02200                  
02456620701390071DT67590675900000008334800101800000010180010177287283089900011500237033020230000000267408923000000000174959520288XXXXXX7232       MS02WI09          NY 1 0 AMDJMGJH2Y0330  N840000000002674          05DNPLANET VAPOR INC #400    167654    MD84000000002674 N  599977384698                            000000000+M10101C5434C    MDJ  00402                     000000000  N                0000000000000.00 0000000.00   0000000.00                             000000000000000                                                                                                                                                   B101418  000000000000 0000000000000.43     01050 01500                  
02456630701390072DT67590675900000008334800101800000010180010124001193089900011500243033020230000000278108923000000000174959461675XXXXXX7352       VS11    0001111   NYV1 A E463089704530051N8400000000027812JH200    05DNPLANET VAPOR INC #400    536080    VD84000000002781 N  599977384698                            000000000+                F DF 00381                     000000000  N000000000       0000000000000.00 0000000.00   0000000.00                             000000000000000                                                                                                                                                     01418 A000000000000 0000000000000.37     00800 01500                  
02456640701390073DT67590675900000008334800101800000010180010124001193089900011500250033020230000000240608923000000000174959440393XXXXXX5232       VS11    0001111   NYV1 A E303089705531302N840000000002406BMZQ00    05DNPLANET VAPOR INC #400    514388    VD84000000002406 N  599977384698                            000000000+                F PF 08170                     000000000  N000000000       0000000000000.00 0000000.00   0000000.00                             000000000000000                                                                                                                                                     01418 A000000000000 0000000000000.43     01150 01500                  
02456650701390074DT67590675900000008334800101800000010180010177287283089900011500260033020230000000471508923000000000174959525363XXXXXX7460       MS02WI09          NY 1 0 AMWENZ553P0330  N840000000004715          05DNPLANET VAPOR INC #400    55117Z    MC84000000004715 N  599977384698                            000000000+M10101C0034C    MWE  00739                     000000000  N                0000000000000.00 0000000.00   0000000.00                             000000000000000                                                                                                                                                   B101418  000000000000 0000000000001.18     02300 01000                  
02456660701390075DT67590675900000008334800101800000010180010124001193089900011500276033020230000000267408923000000000174959400022XXXXXX4482       VS11    0001111   NYV1 A E583089719385421N840000000002674QL5L00    05DNPLANET VAPOR INC #400    860126    VD84000000002674 N  599977384698                            000000000+                F DF 10433                     000000000  Y000000000 338   0000000000000.00 0000000.00   0000000.00                             000000000000000                                                                                                                                                     01418 A000000000000 0000000000000.23     00050 02200                  
02456670701390076DT67590675900000008334800101800000010180010124001193089900011500284033020230000000213908923000000000174959473703XXXXXX8043       VS11    0001111   NYV1 A E463089729220454N840000000002139DZ3H00    05DNPLANET VAPOR INC #400    058457    VD84000000002139 N  599977384698                            000000000+                F DF 10433                     000000000  Y000000000 338   0000000000000.00 0000000.00   0000000.00                             000000000000000                                                                                                                                                     01418 A000000000000 0000000000000.23     00050 02200                  
02456680701390077DT67590675900000008334800101800000010180010124001193089900011500292033020230000001465508923000000000174959474474XXXXXX7055       VS11    0001111   NYV1 A E383089734481585N8400000000146555RF400    05DNPLANET VAPOR INC #400    182049    VD84000000014655 N  599977384698                            000000000+                F DF 10433                     000000000  Y000000000 338   0000000000000.00 0000000.00   0000000.00                             000000000000000                                                                                                                                                     01418 A000000000000 0000000000000.29     00050 02200                  
02456690701390078DT67590675900000008334800101800000010180010124001193089900011500300033020230000000374308923000000000174959433151XXXXXX2540       VS11    0001111   NYV1 A E303089737511126N840000000003743SM9T00    05DNPLANET VAPOR INC #400    019990    VD84000000003743 N  599977384698                            000000000+                F DF 00381                     000000000  N000000000       0000000000000.00 0000000.00   0000000.00                             000000000000000                                                                                                                                                     01418 A000000000000 0000000000000.45     00800 01500                  
02456700701390079DT67590675900000008334800101800000010180010124001193089900011500318033020230000000884108923000000000174959459954XXXXXX9308       VS11    0001111   NYV1 A E583089744684142N840000000008841GKFC00    05DNPLANET VAPOR INC #400    H63041    VD84000000008841 N  599977384698                            000000000+                F DF 10433                     000000000  Y000000000 338   0000000000000.00 0000000.00   0000000.00                             000000000000000                                                                                                                                                     01418 A000000000000 0000000000000.26     00050 02200                  
02456710701390080DT67590675900000008334800101800000010180010177287283089900011500328033020230000000470608923000000000174959520760XXXXXX3323       MS02WI09          NY 1 0 AMDJ9V3A450330  N840000000004706          05DNPLANET VAPOR INC #400    065940    MD84000000004706 N  599977384698                            000000000+M10101C5434C    MDJ  00402                     000000000  N                0000000000000.00 0000000.00   0000000.00                             000000000000000                                                                                                                                                   B101418  000000000000 0000000000000.64     01050 01500                  
02456720701390081DT67590675900000008334800101800000010180010124001193089900011500334033020230000000470408923000000000174959410492XXXXXX7673       VS11    0001111   NYV1 A E303089764367301N840000000004704HCZC00    07DNPLANET VAPOR INC #400    155802    VD84000000004704 N  599977384698                            000000000+                F DF 10433                     000000000  Y000000000 338   0000000000000.00 0000000.00   0000000.00                             000000000000000                                                                                                                                                     01418 A000000000000 0000000000000.24     00050 02200                  
02456730701390082DT67590675900000008334800101800000010180010124001193089900011500342033020230000000534908923000000000174959430602XXXXXX0614       VS11    0001111   NYV1 A E383089766631797N840000000005349MJW400    05DNPLANET VAPOR INC #400    788279    VD84000000005349 N  599977384698                            000000000+                F DF 00381                     000000000  N000000000       0000000000000.00 0000000.00   0000000.00                             000000000000000                                                                                                                                                     01418 A000000000000 0000000000000.58     00800 01500                  
02456740701390083DT67590675900000008334800101800000010180010124001193089900011500359033020230000000267408923000000000174959465345XXXXXX7492       VS11    0001111   NYV1 A E583089771891772N840000000002674FNCK00    05DNPLANET VAPOR INC #400    651193    VD84000000002674 N  599977384698                            000000000+                F DF 10433                     000000000  Y000000000 338   0000000000000.00 0000000.00   0000000.00                             000000000000000                                                                                                                                                     01418 A000000000000 0000000000000.23     00050 02200                  
02456750701390084DT67590675900000008334800101800000010180010177287283089900011500369033020230000000235308923000000000174959528149XXXXXX5822       MS02WI09          NY 1 0 AMDJU5AHBO0330  N840000000002353          05DNPLANET VAPOR INC #400    063659    MD84000000002353 N  599977384698                            000000000+M10101C5434C    MDJ  00402                     000000000  N                0000000000000.00 0000000.00   0000000.00                             000000000000000                                                                                                                                                   B101418  000000000000 0000000000000.40     01050 01500                  
02456760701390085DT67590675900000008334800101800000010180010124001193089900011500375033020230000000074808923000000000174959448261XXXXXX4941       VK04VS111111111   NYV1 A E463089789707385N840000000000748R42700    05DNPLANET VAPOR INC #400    669672    VD84000000000748 N  599977384698                            000000000+                F DF 10439                     000000000  Y000000000 331   0000000000000.00 0000000.00   0000000.00                             000000000000000                                                                                                                                                     01418 F000000000000 0000000000000.22     00050 02200                  
02456770701390086DT67590675900000008334800101800000010180010124001193089900011500383033020230000000648708923000000000174959473703XXXXXX6590       VS11    0001111   NYV1 A E463089791132174N840000000006487BXNL00    05DNPLANET VAPOR INC #400    060640    VD84000000006487 N  599977384698                            000000000+                F DF 10433                     000000000  Y000000000 338   0000000000000.00 0000000.00   0000000.00                             000000000000000                                                                                                                                                     01418 A000000000000 0000000000000.25     00050 02200                  
02456780701390087DT67590675900000008334800101800000010180010124001193089900011500391033020230000000267408923000000000174959461675XXXXXX6724       VS11    0001111   NYV1 A E463089795934306N840000000002674QSDJ00    05DNPLANET VAPOR INC #400    654640    VD84000000002674 N  599977384698                            000000000+                F DF 00381                     000000000  N000000000       0000000000000.00 0000000.00   0000000.00                             000000000000000                                                                                                                                                     01418 A000000000000 0000000000000.36     00800 01500                  
02456790701390088DT67590675900000008334800101800000010180010124001193089900011500409033020230000000588208923000000000174959473703XXXXXX6590       VS11    0001111   NYV1 A E303089797803081N840000000005882KZX200    05DNPLANET VAPOR INC #400    012335    VD84000000005882 N  599977384698                            000000000+                F DF 10433                     000000000  Y000000000 338   0000000000000.00 0000000.00   0000000.00                             000000000000000                                                                                                                                                     01418 A000000000000 0000000000000.25     00050 02200                  
02456800701390089DT67590675900000008334800101800000010180010124001193089900011500417033020230000000748808923000000000174959473703XXXXXX1705       VS11    0001111   NYV1 A E303089800849077N840000000007488R6G400    05DNPLANET VAPOR INC #400    088735    VD84000000007488 N  599977384698                            000000000+                F DF 10433                     000000000  Y000000000 338   0000000000000.00 0000000.00   0000000.00                             000000000000000                                                                                                                                                     01418 A000000000000 0000000000000.26     00050 02200                  
02456810701390090DT67590675900000008334800101800000010180010124001193089900011500425033020230000000462008923000000000174959446542XXXXXX8332       VS11    0001111   NYV1 A E383089831026094N840000000004620DG3500    05DNPLANET VAPOR INC #400    030310    VS84000000004620 N  599977384698                            000000000+                D CD 12113                     000000000  N000000000 499   0000000000000.00 0000000.00   0000000.00                             000000000000000                                                                                                                                                     01418 A000000000000 0000000000001.07     02100 01000                  
02456820701390091DT67590675900000008334800101800000010180010124001193089900011500433033020230000000267408923000000000174959440393XXXXXX8128       VS11    0001111   NYV1 A E383089835276096N840000000002674SHG800    05DNPLANET VAPOR INC #400    157294    VD84000000002674 N  599977384698                            000000000+                F PF 08170                     000000000  N000000000       0000000000000.00 0000000.00   0000000.00                             000000000000000                                                                                                                                                     01418 A000000000000 0000000000000.46     01150 01500                  
02456830701390092DT67590675900000008334800101800000010180010177287283089900011500443033020230000000213608923000000000174959520737XXXXXX8350                         NY 1 0 AMDBX9FJBO0330  N840000000002136          05DNPLANET VAPOR INC #400    MQ3NML    MD84000000002136 NP1599977384698                            000000000+M10101C5434C    MDB  00062                     000000000  N                0000000000000.00 0000000.00   0000000.00                             000000000000000                                                                                                                                                   B101418  000000000000 0000000000000.67     02650 01000                  
02456840701390001P1675906759000000083348001018000000101                                                          000000000000          1000            472803059                                                                                                                                                                                                                                                                                                                                                                                                                                                                                                                                                            
02456850701390093DT67590675900000008334800101800000010180010124001193089900011500458033020230000000054508923000000000174959458643XXXXXX1821       VK04VS111111111   NYV1 A E583089857714955N840000000000545W6R700    05DNPLANET VAPOR INC #400    H85536    VD84000000000545 N  599977384698                            000000000+                F DF 10439                     000000000  Y000000000 331   0000000000000.00 0000000.00   0000000.00                             000000000000000                                                                                                                                                     01418 F000000000000 0000000000000.22     00050 02200                  
02456860701390094BH6759067590000000589280010180000090170330202308923000000000010255    0000090001209932N8001016759C03312023                                                                                                                                                                                                                                                                                                                                                                                                                                                                                                                                                                                                 
02456870701390095DT67590675900000005892800101800000010180010187287283089900012099329033020230000001025508923000000000010255517805XXXXXX0746       ME03KE06MS02      NY 4607AMWE6SMF450330  N840000000010255          81DNPLANET VAPOR INC         09995P    MC84000000010255 N  599900000001   14630955                 000000000+600450S00140    MWE  00737                     000000000  N                0000000000000.00 0000000.00   0000000.00                             000000000000000                                                                                                                                                   U001418  000000000000 0000000000002.77     02600 01000                  
02456880701390096BH6759067590000000708880010180000090170330202308923000000000120211    0000090001150031N8001016759C03312023                                                                                                                                                                                                                                                                                                                                                                                                                                                                                                                                                                                                 
02456890701390097DT67590675900000007088800101800000010180010124001193089900011500011033020230000000087508923000000000120211400022XXXXXX6369       VK04VS111111111   NYV1 A E303089526646155N840000000000875QR9800    07DNPLANET VAPOR INC #200    497134    VD84000000000875 N  599977384620                            000000000+                F DF 10439                     000000000  Y000000000 331   0000000000000.00 0000000.00   0000000.00                             000000000000000                                                                                                                                                     01418 F000000000000 0000000000000.22     00050 02200                  
02456900701390098DT67590675900000007088800101800000010180010173011003089900011500025033020230000000777408923000000000120211379298XXXXX1000                          NY 1 0 N006876815312076N840000000007774          07DNPLANET VAPOR INC #200    836779    AM84000000007774 N  599977384620                            000000000+51010X55434C 258     11262                     000000000                   0000000000000.00 0000000.00   0000000.00                             000000000000000 61248972086759675900000007088 PLANET VAPOR INC #200    7457 PATTERSON RD STE 1098035462263      29209     KEVIN@MOOREDISTRO.COM                     01418  000000000000 0000000000001.62     01950 00000                  
02456910701390099DT67590675900000007088800101800000010180010124001193089900011500037033020230000000194308923000000000120211474474XXXXXX8992       VS11    0001111   NYV1 A E463089563373183N840000000001943656D00    07DNPLANET VAPOR INC #200    183986    VD84000000001943 N  599977384620                            000000000+                F DF 10433                     000000000  Y000000000 338   0000000000000.00 0000000.00   0000000.00                             000000000000000                                                                                                                                                     01418 A000000000000 0000000000000.23     00050 02200                  
02456920701390100DT67590675900000007088800101800000010180010124001193089900011500045033020230000000369108923000000000120211400022XXXXXX0285       VS11    0001111   NYV1 A E303089567079004N840000000003691LCWJ00    07DNPLANET VAPOR INC #200    719344    VD84000000003691 N  599977384620                            000000000+                F DF 10433                     000000000  Y000000000 338   0000000000000.00 0000000.00   0000000.00                             000000000000000                                                                                                                                                     01418 A000000000000 0000000000000.24     00050 02200                  
02456930701390101DT67590675900000007088800101800000010180010177287283089900011500054033020230000000151108923000000000120211531258XXXXXX3592       MS02WI09          NY 1 0 AMDJJ2AY6M0330  N840000000001511          07DNPLANET VAPOR INC #200    161814    MD84000000001511 N  599977384620                            000000000+M10101M0034C    MDJ  10815                     000000000  1                0000000000000.00 0000000.00   0000000.00                             000000000000000                                                                                                                                                   B101418  000000000000 0000000000000.23     00050 02200                  
02456940701390102DT67590675900000007088800101800000010180010124001193089900011500060033020230000000539908923000000000120211473703XXXXXX3727       VS11    0001111   NYV1 A E463089588474590N840000000005399GH3200    05DNPLANET VAPOR INC #200    033413    VD84000000005399 N  599977384620                            000000000+                F DF 10433                     000000000  Y000000000 338   0000000000000.00 0000000.00   0000000.00                             000000000000000                                                                                                                                                     01418 A000000000000 0000000000000.25     00050 02200                  
02456950701390103DT67590675900000007088800101800000010180010124001193089900011500078033020230000000237508923000000000120211430602XXXXXX5370       VS11    0001111   NYV1 A E463089591198507N840000000002375NHNL00    07DNPLANET VAPOR INC #200    729505    VD84000000002375 N  599977384620                            000000000+                F DF 00381                     000000000  N000000000       0000000000000.00 0000000.00   0000000.00                             000000000000000                                                                                                                                                     01418 A000000000000 0000000000000.34     00800 01500                  
02456960701390104DT67590675900000007088800101800000010180010124001193089900011500086033020230000000269908923000000000120211410894XXXXXX4967       VS11    0001111   NYV1 A E463089602880160N840000000002699WGLN00    07DNPLANET VAPOR INC #200    038030    VD84000000002699 N  599977384620                            000000000+                F DF 10433                     000000000  Y000000000 338   0000000000000.00 0000000.00   0000000.00                             000000000000000                                                                                                                                                     01418 A000000000000 0000000000000.23     00050 02200                  
02456970701390105DT67590675900000007088800101800000010180010124001193089900011500094033020230000000040508923000000000120211473703XXXXXX1699       VK04VS111111111   NYV1 A E583089624055795N840000000000405R6D900    05DNPLANET VAPOR INC #200    096036    VD84000000000405 N  599977384620                            000000000+                F DF 10439                     000000000  Y000000000 331   0000000000000.00 0000000.00   0000000.00                             000000000000000                                                                                                                                                     01418 F000000000000 0000000000000.22     00050 02200                  
02456980701390106DT67590675900000007088800101800000010180010173011003089900011500108033020230000000323808923000000000120211371322XXXXX1000                          NY 1 0 N007416678125064N840000000003238          05DNPLANET VAPOR INC #200    834388    AM84000000003238 N  599977384620                            000000000+51010155434C 258     11261                     000000000                   0000000000000.00 0000000.00   0000000.00                             000000000000000 61248972086759675900000007088 PLANET VAPOR INC #200    7457 PATTERSON RD STE 1098035462263      29209     KEVIN@MOOREDISTRO.COM                     01418  000000000000 0000000000000.62     01600 00000                  
02456990701390107DT67590675900000007088800101800000010180010124001193089900011500110033020230000000518208923000000000120211448232XXXXXX9005       VS11    0001111   NYV1 A E303089640641862N840000000005182DQND00    05DNPLANET VAPOR INC #200    034737    VD84000000005182 N  599977384620                            000000000+                F DF 00381                     000000000  N000000000       0000000000000.00 0000000.00   0000000.00                             000000000000000                                                                                                                                                     01418 A000000000000 0000000000000.56     00800 01500                  
02457000701390108DT67590675900000007088800101800000010180010124001193089900011500128033020230000000213708923000000000120211478200XXXXXX1846       VS11    0001111   NYV1 A E303089650578431N840000000002137W83Z00    07DNPLANET VAPOR INC #200    070414    VD84000000002137 N  599977384620                            000000000+                F DF 10433                     000000000  Y000000000 338   0000000000000.00 0000000.00   0000000.00                             000000000000000                                                                                                                                                     01418 A000000000000 0000000000000.23     00050 02200                  
02457010701390109DT67590675900000007088800101800000010180010124001193089900011500136033020230000000205108923000000000120211453506XXXXXX0990       VS11    0001111   NYV1 A E383089652941944N840000000002051HDX400    05DNPLANET VAPOR INC #200    H32938    VD84000000002051 N  599977384620                            000000000+                F DF 10433                     000000000  Y000000000 338   0000000000000.00 0000000.00   0000000.00                             000000000000000                                                                                                                                                     01418 A000000000000 0000000000000.23     00050 02200                  
02457020701390110DT67590675900000007088800101800000010180010124001193089900011500144033020230000000252608923000000000120211430602XXXXXX7768       VS11    0001111   NYV1 A E583089659215037N84000000000252644KB00    07DNPLANET VAPOR INC #200    751394    VD84000000002526 N  599977384620                            000000000+                F DF 00381                     000000000  N000000000       0000000000000.00 0000000.00   0000000.00                             000000000000000                                                                                                                                                     01418 A000000000000 0000000000000.35     00800 01500                  
02457030701390111DT67590675900000007088800101800000010180010124001193089900011500151033020230000000377808923000000000120211414740XXXXXX2121       VS11    0001111   NYV1 A E463089663623759N8400000000037786HH900    05DNPLANET VAPOR INC #200    08084D    VS84000000003778 N  599977384620                            000000000+                D CD 12113                     000000000  N000000000 499   0000000000000.00 0000000.00   0000000.00                             000000000000000                                                                                                                                                     01418 A000000000000 0000000000000.89     02100 01000                  
02457040701390112DT67590675900000007088800101800000010180010124001193089900011500169033020230000000151108923000000000120211416003XXXXXX3185       VS11    0001111   NYV1 A E303089674328341N840000000001511PRWZ00    05DNPLANET VAPOR INC #200    998707    VD84000000001511 N  599977384620                            000000000+                F DF 00381                     000000000  N000000000       0000000000000.00 0000000.00   0000000.00                             000000000000000                                                                                                                                                     01418 A000000000000 0000000000000.27     00800 01500                  
02457050701390113DT67590675900000007088800101800000010180010173011003089900011500173033020230000000641208923000000000120211374355XXXXX7294                          NY 1 0 N007417972621063N840000000006412          05DNPLANET VAPOR INC #200    791030    AM84000000006412 N  599977384620                            000000000+51010155434C 258     11261                     000000000                   0000000000000.00 0000000.00   0000000.00                             000000000000000 61248972086759675900000007088 PLANET VAPOR INC #200    7457 PATTERSON RD STE 1098035462263      29209     KEVIN@MOOREDISTRO.COM                     01418  000000000000 0000000000001.13     01600 00000                  
02457060701390114DT67590675900000007088800101800000010180010124001193089900011500185033020230000000118508923000000000120211411568XXXXXX6257       VK04VS111111111   NYV1 A E463089688425858N840000000001185LM6300    07DNPLANET VAPOR INC #200    326542    VD84000000001185 N  599977384620                            000000000+                F DF 00451                     000000000  N000000000 214   0000000000000.00 0000000.00   0000000.00                             000000000000000                                                                                                                                                     01418 F000000000000 0000000000000.22     01550 00400                  
