00006630611740002BH6759067590000000288180088880000090170126202302623000000000017558    0000090001480103Y8008886759C01272023                                                                                                                                                                                                                                                                                                                                                                                                                                                                                                                                                                                                 
00006640611740003DT67590675900000002881800888800000010180088824001193026900014801032012620230000001755802623000000000017558404227XXXXXX3908               2111111   NYV4 A7W463026431203242N840000000017558WKCQ00    01DNHAPPY HIPPIE             645926    VD84000000017558 NP1549976044904   1920                     000000000+                F DF 00415                     000000000  N000000000       0000000000000.00 0000000.00   0000000.00                             000000000000000                                                                                                                                                     01424 G000000017558 0000000000003.05     01650 01500                  
00006650611740001P16759067590000000288180088880000001010000000000000000                             2000000000000000000000000              000000000000                    0000000000000000000000000                    000000000000                                                                                                                                                                                                                                                                                                                                                                                                                                                                                        
