06987400047442261AD675906759000000198288001098000009077900012033040000001927006012023NYY15223YC6759800109060420232023130004995                                                                                                                                                                                                                                                                                                                                                                                                                                                                                                                                                                                              
06987410047442267AD675906759000000198288001098000009077900011512190000001987006012023NYY15223YC6759800109060420232023130005001                                                                                                                                                                                                                                                                                                                                                                                                                                                                                                                                                                                              
06987420047442273AD675906759000000268498001258000009077900010503850000001489206012023NYY15223YC6759800125060420232023143047202                                                                                                                                                                                                                                                                                                                                                                                                                                                                                                                                                                                              
06987430047442276AD675906759000000151648008888000009077900013447120000000654806012023NYY15223YC6759800888060420232023152024823                                                                                                                                                                                                                                                                                                                                                                                                                                                                                                                                                                                              
06987440047442279AD675906759000000151648008888000009077900013447140000000519006012023NYY15223YC6759800888060420232023152024824                                                                                                                                                                                                                                                                                                                                                                                                                                                                                                                                                                                              
06987450047442282AD675906759000000133008001028000009071900010402360000002661106012023NYY15223ND6759800102060420232023149021739                                                                                                                                                                                                                                                                                                                                                                                                                                                                                                                                                                                              
06987460047442285AD675906759000000176738001068000009071900014517610000002178906012023NYY15223ND6759800106060420232023152021982                                                                                                                                                                                                                                                                                                                                                                                                                                                                                                                                                                                              
06987470047442288AD675906759000000198288001098000009071900011511560000000519006012023NYY15223ND6759800109060420232023152021983                                                                                                                                                                                                                                                                                                                                                                                                                                                                                                                                                                                              
06987480047442291AD675906759000000198288001098000009071900011511470000001987006012023NYY15223ND6759800109060420232023152021984                                                                                                                                                                                                                                                                                                                                                                                                                                                                                                                                                                                              
06987490047442294AD675906759000000198288001098000009071900011511540000000654806012023NYY15223ND6759800109060420232023152021985                                                                                                                                                                                                                                                                                                                                                                                                                                                                                                                                                                                              
06987500047442297AD675906759000000151648008888000009071900014583030000000327406012023NYY15223ND6759800888060420232023152021986                                                                                                                                                                                                                                                                                                                                                                                                                                                                                                                                                                                              
06987510047442300AD675906759000000176738001068000009071900010300140000000435506012023NYY15223ND6759800106060420232023152021987                                                                                                                                                                                                                                                                                                                                                                                                                                                                                                                                                                                              
06987520047442303AD675906759000000142748001028000009071900018609640000001067306012023NYY15223ND6759800102060420232023152021988                                                                                                                                                                                                                                                                                                                                                                                                                                                                                                                                                                                              
06987530047442306AD675906759000000268498001258000009071900013915500000001977006012023NYY15223ND6759800125060420232023152021989                                                                                                                                                                                                                                                                                                                                                                                                                                                                                                                                                                                              
06987540047442309AD675906759000000198288001098000009077900011725360000000327406012023NYY15223YC6759800109060420232023152021990                                                                                                                                                                                                                                                                                                                                                                                                                                                                                                                                                                                              
06987550047442312AD675906759000000176738001068000009071900011908800000001306706012023NYY15223ND6759800106060420232023152021991                                                                                                                                                                                                                                                                                                                                                                                                                                                                                                                                                                                              
06987560047442315AD675906759000000176738001068000009071900014719420000001306706012023NYY15223ND6759800106060420232023152021992                                                                                                                                                                                                                                                                                                                                                                                                                                                                                                                                                                                              
06987570047442318AD675906759000000268498001258000009071900012870900000001280306012023NYY15223ND6759800125060420232023152021993                                                                                                                                                                                                                                                                                                                                                                                                                                                                                                                                                                                              
06987580047810973AD675906759000000151648008888000009071231500022790000001987006012023NYY15223ND6759800888060420232023150002279                                                                                                                                                                                                                                                                                                                                                                                                                                                                                                                                                                                              
06987590047810976AD675906759000000151648008888000009071231510042500000001499006012023NYY15223ND6759800888060420232023151004250                                                                                                                                                                                                                                                                                                                                                                                                                                                                                                                                                                                              
06987600047810979DT67590675900000013300800102800000010180010277287283153153000000097042220230000002116200000000000000127500524038XXXXXX7711       ME08KE08M101      YN   0 N               Y   000000000000            DNCBD8666317293 GOS                  MC84000000021162 N  5499                                    000000000+099999099001    MPL  00001                     000000000  N                0000000000000.00 0000000.00   0000000.00                             000000000000000                                                                                                                                                     012WPE 000000000000 0000000000006.77     03150 01000                  
06987610047810001G2675906759000000133008001028000000101MARIETTA                 GA             L                                                        NNNN              000000000000000000000000                        7                                                                                                                                                                                                                                                                                                                                                                                                                                                                                                 
06987620049238143BH6759067590000001982880010980000090170602202315323000000000053735    0000090001709960N8001096759D06042023070                                                                                                                                                                                                                                                                                                                                                                                                                                                                                                                                                                                              
06987630049238144DT67590675900000019828800109800000010680010987287283153900017099580060120230000001987015323000000000053735559591XXXXXX6345                         YY 4607AMCWPNRAXB0601  N840000000019870          81CNKETOFUSION 8885968154    056288    MC84000000019870 NDR599977547467   C522FBBAA3TDC58776F169B  000000000+600450S00130    MCW  00564                     000000000  N                0000000000000.00 0000000.00   0000000.00                             000000000000000                                                                                                                                                     015WPE 000000000000-0000000000003.48     01750 00000                  
06987640049238144DR675906759000000198288001098000000106C522FBBAA3TDC58776F169B  Y000000000000                                                                                                                                                                                                                                                                                                                                                                                                                                                                                                                                                                                                                               
06987650049230001G26759067590000001982880010980000001068885968154               UT           9 W               210                                      NNNN           210000000000000000000000000                        7                                          77547467                                                                                                                                                                                                                                                                                                                                                                                                                                               
06987660049238145DT67590675900000019828800109800000010680010987287283153900017099598060120230000002487015323000000000053735552486XXXXXX7909                         YY 4607AMWEEP18XC0601  N840000000024870          81CNKETOFUSION 8885968154    024527    MC84000000024870 NDR599977547467   57A703008BT609433AD146C  000000000+600450S00130    MWE  00564                     000000000  N                0000000000000.00 0000000.00   0000000.00                             000000000000000                                                                                                                                                     015WPE 000000000000-0000000000004.35     01750 00000                  
06987670049238145DR67590675900000019828800109800000010657A703008BT609433AD146C  Y000000000000                                                                                                                                                                                                                                                                                                                                                                                                                                                                                                                                                                                                                               
06987680049230001G26759067590000001982880010980000001068885968154               UT           9 E               210                                      NNNN           210000000000000000000000000                        7                                          77547467                                                                                                                                                                                                                                                                                                                                                                                                                                               
06987690049238146DT67590675900000019828800109800000010680010974001193153900017099600060120230000000899515323000000000053735414718XXXXXX4785               0000000   YYV4 07T583152794830967N840000000008995Q9M700    01CNKETOFUSION 8885968154    001263    VS84000000008995 NDR599977547467   06EF649C83T684BC24E4809  000000000+                D CD 00245                     000000000  N000000000 166   0000000000000.00 0000000.00   0000000.00                             000000000000000                                                                                                                                                     015WPE 000000008995-0000000000001.58     01760 00000                  
06987700049238146DR67590675900000019828800109800000010606EF649C83T684BC24E4809  U000000008995                 P1                                                                                                                                                                                                                                                                                                                                                                                                                                                                                                                                                                                                            
06987710049230001P16759067590000001982880010980000001060000000000000000                             2000000000000000000000000              000000000000                    0000000000000000000000000                    000000000000                                                                                                                                                                                                                                                                                                                                                                                                                                                                                        
06987720049230002G2675906759000000198288001098000000106888-5968154              UT           9 C                00                                      NNNN   Y                      000000000000                                                                   77547467                                                                                                                                                                                                                                                                                                                                                                                                                                               
06987730049238149BH6759067590000001767380010680000090170602202315323000000000022875    0000090001622148N8001066759D06042023062                                                                                                                                                                                                                                                                                                                                                                                                                                                                                                                                                                                              
06987740049238150DT67590675900000017673800106800000010680010687287283153900016221474060120230000001742615323000000000022875510942XXXXXX0279                         YY 4607AMDSLBHNLI0601  N840000000017426          81CNVGHEMP.COM833-246-5225   018204    MD84000000017426 NDR549977427364   7E2133B29ET50CF2EAEC113  000000000+600450S00130    MDS  00560                     000000000  N                0000000000000.00 0000000.00   0000000.00                             000000000000000                                                                                                                                                     015WPE 000000000000 0000000000000.00     00000 00000                  
06987750049238150DR6759067590000001767380010680000001067E2133B29ET50CF2EAEC113  U000000000000                                                                                                                                                                                                                                                                                                                                                                                                                                                                                                                                                                                                                               
06987760049230001G26759067590000001767380010680000001067203077930               CA           9 S               210                                      NNNN           210000000000000000000000000                        7                                          77427364                                                                                                                                                                                                                                                                                                                                                                                                                                               
06987770049238151DT67590675900000017673800106800000010680010687287283153900016221482060120230000000544915323000000000022875510942XXXXXX0279                         YY 4607AMDSLBK3LI0601  N840000000005449          81CNVGHEMP.COM833-246-5225   021235    MD84000000005449 NDR549977427364   7E2133B29ETEAC412B99BE3  000000000+600450S00130    MDS  00560                     000000000  N                0000000000000.00 0000000.00   0000000.00                             000000000000000                                                                                                                                                     015WPE 000000000000 0000000000000.00     00000 00000                  
06987780049238151DR6759067590000001767380010680000001067E2133B29ETEAC412B99BE3  U000000000000                                                                                                                                                                                                                                                                                                                                                                                                                                                                                                                                                                                                                               
06987790049230001G26759067590000001767380010680000001067203077930               CA           9 S               210                                      NNNN           210000000000000000000000000                        7                                          77427364                                                                                                                                                                                                                                                                                                                                                                                                                                               
06987800049238154BH6759067590000002325980011680000090170602202315323000000000030282    0000090001602281N8001166759D06042023060                                                                                                                                                                                                                                                                                                                                                                                                                                                                                                                                                                                              
06987810049238155DT67590675900000023259800116800000010680011687287283153900016022807060120230000000849315323000000000030282518941XXXXXX2304                         YY 4607AMWEK3T2WV0601  N840000000008493          81CNGFORCEHEMP844-258-9322   273809    MC84000000008493 NDR549977768166   D7E662DFE6T5D62FAB8CB03  000000000+600450S00130    MWE  00565                     000000000  N                0000000000000.00 0000000.00   0000000.00                             000000000000000                                                                                                                                                     015WPE 000000000000-0000000000001.49     01750 00000                  
06987820049238155DR675906759000000232598001168000000106D7E662DFE6T5D62FAB8CB03  U000000000000                                                                                                                                                                                                                                                                                                                                                                                                                                                                                                                                                                                                                               
06987830049230001G26759067590000002325980011680000001068442589322               CA           9 E               210                                      NNNN           210000000000000000000000000                        7                                          77768166                                                                                                                                                                                                                                                                                                                                                                                                                                               
06987840049238156DT67590675900000023259800116800000010680011687287283153900016022815060120230000002178915323000000000030282546316XXXXXX4170                         YY 4607AMPLDNE3X20601  N840000000021789          81CNGFORCEHEMP844-258-9322   001547    MC84000000021789 NDR549977768166   2BB7D40F6DT3A35CA408CD2  000000000+600450S00130    MPL  00565                     000000000  N                0000000000000.00 0000000.00   0000000.00                             000000000000000                                                                                                                                                     015WPE 000000000000-0000000000003.81     01750 00000                  
06987850049238156DR6759067590000002325980011680000001062BB7D40F6DT3A35CA408CD2  R000000000000                                                                                                                                                                                                                                                                                                                                                                                                                                                                                                                                                                                                                               
06987860049230001G26759067590000002325980011680000001068442589322               CA           9 L               210                                      NNNN           210000000000000000000000000                        7                                          77768166                                                                                                                                                                                                                                                                                                                                                                                                                                               
06987870049238159BH6759067590000001516480088880000090170602202315323000000000123524    0000090001957878N8008886759D06042023095                                                                                                                                                                                                                                                                                                                                                                                                                                                                                                                                                                                              
06987880049238160DT67590675900000015164800888800000010680088887287283153900019578714060120230000001987015323000000000123524515676XXXXXX9405                         YY 4607AMWEC9M8I60601  N840000000019870          81CNKETOFUSION833-923-3587   025455    MC84000000019870 NDR599977360677   07B201EBFBTF2CDD49D3427  000000000+600450S00130    MWE  00564                     000000000  N                0000000000000.00 0000000.00   0000000.00                             000000000000000                                                                                                                                                     015WPE 000000000000-0000000000003.48     01750 00000                  
06987890049238160DR67590675900000015164800888800000010607B201EBFBTF2CDD49D3427  Y000000000000                                                                                                                                                                                                                                                                                                                                                                                                                                                                                                                                                                                                                               
06987900049230001G26759067590000001516480088880000001068014041097               UT           9 E               210                                      NNNN           210000000000000000000000000                        7                                          77360677                                                                                                                                                                                                                                                                                                                                                                                                                                               
06987910049238161DT67590675900000015164800888800000010680088887287283153900019578805060120230000002487015323000000000123524526929XXXXXX3735                         YY94607N         0601  N840000000000000          81CNKETOFUSION833-923-3587             MD84000000024870 N  599977360677   4C79E77CAFTFF13EFD5C82D  000000000+600450S00130    MDJ  10828                     000000000  1                0000000000000.00 0000000.00   0000000.00                             000000000000000                                                                                                                                                     015WPE 000000000000 0000000000000.00     00000 00000                  
06987920049230001G26759067590000001516480088880000001068014041097               UT           9 J               210                                      NNNN           210000000000000000000000000                        7                                          77360677                                                                                                                                                                                                                                                                                                                                                                                                                                               
06987930049238162DT67590675900000015164800888800000010680088887287283153900019578730060120230000001987015323000000000123524524366XXXXXX7385                         YY 4607AMPLJHCZI60601  N840000000019870          81CNKETOFUSION833-923-3587   001873    MC84000000019870 NDR599977360677   01F221C087T022265DAA7CC  000000000+600450S00130    MPL  00564                     000000000  N                0000000000000.00 0000000.00   0000000.00                             000000000000000                                                                                                                                                     015WPE 000000000000-0000000000003.48     01750 00000                  
06987940049238162DR67590675900000015164800888800000010601F221C087T022265DAA7CC  R000000000000                                                                                                                                                                                                                                                                                                                                                                                                                                                                                                                                                                                                                               
06987950049230001G26759067590000001516480088880000001068014041097               UT           9 L               210                                      NNNN           210000000000000000000000000                        7                                          77360677                                                                                                                                                                                                                                                                                                                                                                                                                                               
06987960049238163DT67590675900000015164800888800000010680088887287283153900019578748060120230000000519015323000000000123524524366XXXXXX7385                         YY 4607AMPLJHGBI60601  N840000000005190          81CNKETOFUSION833-923-3587   001941    MC84000000005190 NDR599977360677   01F221C087T959CB9142DB6  000000000+600450S00130    MPL  00564                     000000000  N                0000000000000.00 0000000.00   0000000.00                             000000000000000                                                                                                                                                     015WPE 000000000000-0000000000000.91     01750 00000                  
06987970049238163DR67590675900000015164800888800000010601F221C087T959CB9142DB6  R000000000000                                                                                                                                                                                                                                                                                                                                                                                                                                                                                                                                                                                                                               
06987980049230001G26759067590000001516480088880000001068014041097               UT           9 L               210                                      NNNN           210000000000000000000000000                        7                                          77360677                                                                                                                                                                                                                                                                                                                                                                                                                                               
06987990049238164DT67590675900000015164800888800000010680088874001193153900019578759060120230000000621715323000000000123524410040XXXXXX5232               0000000   YYV4 07T583152645074472N8400000000062177PVK00    01CNKETOFUSION833-923-3587   64379G    VB84000000006217 NDR599977360677   E47682225FT6B1EB91E2D40  000000000+                G CG 00246                     000000000  N000000000 167   0000000000000.00 0000000.00   0000000.00                             000000000000000                                                                                                                                                     015WPE 000000006217-0000000000001.46     02350 00000                  
06988000049238164DR675906759000000151648008888000000106E47682225FT6B1EB91E2D40  U000000006217                 P1                                                                                                                                                                                                                                                                                                                                                                                                                                                                                                                                                                                                            
06988010049230001P16759067590000001516480088880000001060000000000000000                             2000000000000000000000000              000000000000                    0000000000000000000000000                    000000000000                                                                                                                                                                                                                                                                                                                                                                                                                                                                                        
06988020049230002G2675906759000000151648008888000000106801-4041097              UT           9 C                00                                      NNNN   Y                      000000000000                                                                   77360677                                                                                                                                                                                                                                                                                                                                                                                                                                               
06988030049238165DT67590675900000015164800888800000010680088887287283153900019578763060120230000001987015323000000000123524528072XXXXXX2889                         YY 4607AMCWLYF1WV0601  N840000000019870          81CNKETOFUSION833-923-3587   040486    MC84000000019870 NDR599977360677   B1F3DD722CTC98A6C8C0527  000000000+600450S00130    MCW  00564                     000000000  N                0000000000000.00 0000000.00   0000000.00                             000000000000000                                                                                                                                                     015WPE 000000000000-0000000000003.48     01750 00000                  
06988040049238165DR675906759000000151648008888000000106B1F3DD722CTC98A6C8C0527  Y000000000000                                                                                                                                                                                                                                                                                                                                                                                                                                                                                                                                                                                                                               
06988050049230001G26759067590000001516480088880000001068014041097               UT           9 W               210                                      NNNN           210000000000000000000000000                        7                                          77360677                                                                                                                                                                                                                                                                                                                                                                                                                                               
06988060049238166DT67590675900000015164800888800000010680088887287283153900019578771060120230000001987015323000000000123524552433XXXXXX0550                         YY 4607AMCWFYPOXC0601  N840000000019870          81CNKETOFUSION833-923-3587   081362    MC84000000019870 NDR599977360677   2EED03163FT96EB72D428E8  000000000+600450S00130    MCW  00564                     000000000  N                0000000000000.00 0000000.00   0000000.00                             000000000000000                                                                                                                                                     015WPE 000000000000-0000000000003.48     01750 00000                  
06988070049238166DR6759067590000001516480088880000001062EED03163FT96EB72D428E8  Y000000000000                                                                                                                                                                                                                                                                                                                                                                                                                                                                                                                                                                                                                               
06988080049230001G26759067590000001516480088880000001068014041097               UT           9 W               210                                      NNNN           210000000000000000000000000                        7                                          77360677                                                                                                                                                                                                                                                                                                                                                                                                                                               
06988090049238167DT67590675900000015164800888800000010680088887287283153900019578789060120230000000776715323000000000123524518941XXXXXX5571                         YY 4607AMWEHZCN6A0601  N840000000007767          81CNKETOFUSION833-923-3587   405647    MC84000000007767 NDR599977360677   601DC248DCT9DA46997A0ED  000000000+600450S00130    MWE  00564                     000000000  N                0000000000000.00 0000000.00   0000000.00                             000000000000000                                                                                                                                                     015WPE 000000000000-0000000000001.36     01750 00000                  
06988100049238167DR675906759000000151648008888000000106601DC248DCT9DA46997A0ED  U000000000000                                                                                                                                                                                                                                                                                                                                                                                                                                                                                                                                                                                                                               
06988110049230001G26759067590000001516480088880000001068014041097               UT           9 E               210                                      NNNN           210000000000000000000000000                        7                                          77360677                                                                                                                                                                                                                                                                                                                                                                                                                                               
06988120050010002BH6759067590000003284780013580000090170602202315323000000000023452    0000090001110004N8001356759C06042023011                                                                                                                                                                                                                                                                                                                                                                                                                                                                                                                                                                                              
06988130050010003DT67590675900000032847800135800000033080013576759003153900011100016060120230000000303015323000000000023452440393XXXXXX3141                         NY 2 0 N               N840000000003030      IL  05DNDAYDREAMS SMOKE WORLD LLC382980    DB84000000003030 N  599378480415                            000000000+                     09576                                N          346   0000000000000.00 0000000.00   0000000.00                             000000000000000                                                                                                                                                     01418  000000000000 0000000000000.50     01150 00000                  
06988140050010001G2675906759000000328478001358000000330MCALLEN                  TX           5 P                00                                      NNNN                          000000000000                                                                   78480415                                                                                                                                                                                                                                                                                                                                                                                                                                               
06988150050010004DT67590675900000032847800135800000033080013576759003153900011100024060120230000000321415323000000000023452440393XXXXXX7944                         NY 2 0 N               N840000000003214      IL  05DNDAYDREAMS SMOKE WORLD LLC905287    DB84000000003214 N  599378480415                            000000000+                     09576                                N          346   0000000000000.00 0000000.00   0000000.00                             000000000000000                                                                                                                                                     01418  000000000000 0000000000000.52     01150 00000                  
06988160050010001G2675906759000000328478001358000000330MCALLEN                  TX           5 P                00                                      NNNN                          000000000000                                                                   78480415                                                                                                                                                                                                                                                                                                                                                                                                                                               
06988170050010005DT67590675900000032847800135800000033080013576759003153900011100032060120230000000649415323000000000023452542543XXXXXX4737                         NY 2 0 N               N840000000006494      IL  05DNDAYDREAMS SMOKE WORLD LLC037113    DB84000000006494 N  599378480415                            000000000+                     09573                                N          121   0000000000000.00 0000000.00   0000000.00                             000000000000000                                                                                                                                                     01418  000000000000 0000000000000.67     00800 00000                  
06988180050010001G2675906759000000328478001358000000330MCALLEN                  TX           5                  00                                      NNNN                          000000000000                                                                   78480415                                                                                                                                                                                                                                                                                                                                                                                                                                               
06988190050010006DT67590675900000032847800135800000033080013576759003153900011100040060220230000001071415323000000000023452494340XXXXXX6076                         NY 2 0 N               N840000000010714      IL  90DNDAYDREAMS SMOKE WORLD LLC412505    DB84000000010714 N  599378480415                            000000000+                     09576                                N          346   0000000000000.00 0000000.00   0000000.00                             000000000000000                                                                                                                                                     01418  000000000000 0000000000001.38     01150 00000                  
06988200050010001G2675906759000000328478001358000000330MCALLEN                  TX           5 P                00                                      NNNN                          000000000000                                                                   78480415                                                                                                                                                                                                                                                                                                                                                                                                                                               
06988210050010007BH6759067590000003284780013580000090170602202315323000000000054076    0000090001110020N8001356759C06042023011                                                                                                                                                                                                                                                                                                                                                                                                                                                                                                                                                                                              
06988220050010008DT67590675900000032847800135800000010180013573011003153900011100041060120230000000227015323000000000054076379365XXXXX7758                          NY 1 0 N008091605175067N840000000002270          05DNDAYDREAMS SMOKE WORLD LLC514001    AM84000000002270 N  599378480426                            000000000+51010155434C 258     11261                     000000000                   0000000000000.00 0000000.00   0000000.00                             000000000000000 61248972086759675900000032847 DAYDREAMS SMOKE WORLD LLC900 N 10TH ST            9563387102      78501     DAYDREAMSSMOKEWORLD@GMAIL.COM             01418  000000000000 0000000000000.46     01600 00000                  
06988230050010001E167590675900000032847800135800000010100E0F8C80171 00000000000.004040404040404040404040404040404040404040404040404006010103A0A002000000000000000000404040404040404040404040404040  000108403D000000008000230601B28AD06C509E184A219D1E83404040400840A0000000250104020000000000000000022FC897425BED4630300000000000004040405E40404040 000000022.70 000000000.005E03000000000000000000    80                                                                                                                                                                                                                                                                                                                  
06988240050010002G2675906759000000328478001358000000101MCALLEN                  TX           5                  00                                      NNNN                          000000000000                                                                   78480426                                                                                                                                                                                                                                                                                                                                                                                                                                               
06988250050010009DT67590675900000032847800135800000010180013577287283153900011100088060120230000000378815323000000000054076527515XXXXXX4701       MS02WI09          NY 1 0 AMDJDQ8ZXC0601  N840000000003788          05DNDAYDREAMS SMOKE WORLD LLC150753    MD84000000003788 N  599378480426                            000000000+M10101C5434C    MDJ  10815                     000000000  1                0000000000000.00 0000000.00   0000000.00                             000000000000000                                                                                                                                                   B101418  000000000000 0000000000000.24     00050 02200                  
06988260050010001E167590675900000032847800135800000010100E0F8C80115 00000000000.00404040404040404040404040404040404040404040404040400114A00201220000000000000000000000FF00000000000000000000000000  000008401800800000800023060198AFD9B967C8CDB5ED9184B4404040400840A0000000041010000000000000000000246DA348F3C936E100100000000000004040401E40404040 000000037.88 000000000.001E03000000000000000000    80                                                                                                                                                                                                                                                                                                                  
06988270050010002G2675906759000000328478001358000000101MCALLEN                  TX           5 J                                                        NNNN              000000000000000000000000                        7                                          78480426                                                                                                                                                                                                                                                                                                                                                                                                                                               
06988280050010010DT67590675900000032847800135800000010180013577287283153900011100104060120230000000108115323000000000054076515676XXXXXX4941       MS02WI09          NY 1 0 AMWEUYS1XB0601  N840000000001081          05DNDAYDREAMS SMOKE WORLD LLC01388Z    MC84000000001081 N  599378480426                            000000000+M10101C5434C    MWE  00739                     000000000  N                0000000000000.00 0000000.00   0000000.00                             000000000000000                                                                                                                                                   B101418  000000000000 0000000000000.35     02300 01000                  
06988290050010001E167590675900000032847800135800000010100E0F8C801C1 00000000000.00404040404040404040404040404040404040404040404040400110A04001220000000000000000000000FF00000000000000000000000000  000108403900000000800023060175AE65F2990C2247DF8FE83A404040400840A0000000041010000000000000000000C4F73D5EA4F1202E00120000000000004040401E40404040 000000010.81 000000000.001E03000000000000000000    80                                                                                                                                                                                                                                                                                                                  
06988300050010002G2675906759000000328478001358000000101MCALLEN                  TX           5 E                                                        NNNN              000000000000000000000000                        7                                          78480426                                                                                                                                                                                                                                                                                                                                                                                                                                               
06988310050010011DT67590675900000032847800135800000010180013524001193153900011100128060120230000000038815323000000000054076486299XXXXXX2535       VK04VS111111111   NYV1 A E463152816967404N840000000000388JT9F00    07DNDAYDREAMS SMOKE WORLD LLC04084C    VS84000000000388 N  599378480426                            000000000+                C CC 12112                     000000000  N000000000 497   0000000000000.00 0000000.00   0000000.00                             000000000000000                                                                                                                                                     01418 F000000000000 0000000000000.16     01650 01000                  
06988320050010001E167590675900000032847800135800000010100404040004F 00000000000.00404040404040404040404040404040404040404040404040401F420132A00000000010030273000000004000000000000000000000000000  0000084000400000000000230601D171DF631F5CC369DD1E88DB404040400840A00000000310100000000000000000000D5F56A50086000000000000000000004040404040404040 000000003.88 000000000.004040400000000000000000    80                                                                                                                                                                                                                                                                                                                  
06988330050010002G2675906759000000328478001358000000101MCALLEN                  TX           5 C                00                                      NNNN00 N 00                   000000000000                                                                   78480426                                                                                                                                                                                                                                                                                                                                                                                                                                               
06988340050010012DT67590675900000032847800135800000010180013524001193153900011100193060120230000000357115323000000000054076465992XXXXXX1031       VS11    0001111   NYV1 A E463153168583422N840000000003571L75900    07DNDAYDREAMS SMOKE WORLD LLC384839    VD84000000003571 N  599378480426                            000000000+                F DF 00381                     000000000  N000000000       0000000000000.00 0000000.00   0000000.00                             000000000000000                                                                                                                                                     01418 A000000000000 0000000000000.44     00800 01500                  
06988350050010001E167590675900000032847800135800000010100404040000B 00000000000.00404040404040404040404040404040404040404040404040401F42FF32A00000000010030273000000004000000000000000000000000000  0000084000400000000000230602F9FF7D80951D643906CF6FBD404040400840A00000000310100000000000000000001D6339630086000000000000000000004040404040404040 000000035.71 000000000.004040400000000000000000    80                                                                                                                                                                                                                                                                                                                  
06988360050010002G2675906759000000328478001358000000101MCALLEN                  TX           5 D                00                                      NNNN00 N 00                   000000000000                                                                   78480426                                                                                                                                                                                                                                                                                                                                                                                                                                               
06988370050010013DT67590675900000032847800135800000033080013576759003153900011100016060120230000000074015323000000000054076467010XXXXXX1136                         NY 2 0 N               N840000000000740      IL  05DNDAYDREAMS SMOKE WORLD LLC682749    DB84000000000740 N  599378480426                            000000000+                     09580                                Y          342   0000000000000.00 0000000.00   0000000.00                             000000000000000                                                                                                                                                     01418  000000000000 0000000000000.22     00050 00000                  
06988380050010001G2675906759000000328478001358000000330MCALLEN                  TX           5 D                00                                      NNNN                          000000000000                                                                   78480426                                                                                                                                                                                                                                                                                                                                                                                                                                               
06988390050010014DT67590675900000032847800135800000033080013576759003153900011100024060120230000000216415323000000000054076527515XXXXXX0055                         NY42 0 N               N840000000002164      ME  05DNDAYDREAMS SMOKE WORLD LLC125475    DB84000000002164 N  599378480426                            000000000+                     09601                                1          MA1   0000000000000.00 0000000.00   0000000.00                             000000000000000                                                                                                                                                     01418  000000000000 0000000000000.23     00050 00000                  
06988400050010001G2675906759000000328478001358000000330MCALLEN                  TX           5 D                00                                      NNNN                          000000000000                                                                   78480426                                                                                                                                                                                                                                                                                                                                                                                                                                               
06988410050010015DT67590675900000032847800135800000033080013576759003153900011100032060120230000000378815323000000000054076530133XXXXXX3637                         NY42 0 N               N840000000003788      ME  90DNDAYDREAMS SMOKE WORLD LLC103769    DB84000000003788 N  599378480426                            000000000+                     09597                                N                0000000000000.00 0000000.00   0000000.00                             000000000000000                                                                                                                                                     01418  000000000000 0000000000000.49     00900 00000                  
06988420050010001G2675906759000000328478001358000000330MCALLEN                  TX           5 D                00                                      NNNN                          000000000000                                                                   78480426                                                                                                                                                                                                                                                                                                                                                                                                                                               
06988430050010016DT67590675900000032847800135800000033080013576759003153900011100057060120230000000097115323000000000054076434258XXXXXX9382                         NY 2 0 N               N840000000000971      IL  05DNDAYDREAMS SMOKE WORLD LLC030871    DB84000000000971 N  599378480426                            000000000+                     09580                                Y          342   0000000000000.00 0000000.00   0000000.00                             000000000000000                                                                                                                                                     01418  000000000000 0000000000000.22     00050 00000                  
06988440050010001G2675906759000000328478001358000000330MCALLEN                  TX           5 D                00                                      NNNN                          000000000000                                                                   78480426                                                                                                                                                                                                                                                                                                                                                                                                                                               
06988450050010017DT67590675900000032847800135800000033080013576759003153900011100065060120230000000615315323000000000054076455225XXXXXX0716                         NY 2 0 N               N840000000006153      IL  05DNDAYDREAMS SMOKE WORLD LLCH46205    DB84000000006153 N  599378480426                            000000000+                     09580                                Y          342   0000000000000.00 0000000.00   0000000.00                             000000000000000                                                                                                                                                     01418  000000000000 0000000000000.25     00050 00000                  
06988460050010001G2675906759000000328478001358000000330MCALLEN                  TX           5 D                00                                      NNNN                          000000000000                                                                   78480426                                                                                                                                                                                                                                                                                                                                                                                                                                               
06988470050010018DT67590675900000032847800135800000033080013576759003153900011100073060120230000000118915323000000000054076467010XXXXXX9026                         NY 2 0 N               N840000000001189      IL  05DNDAYDREAMS SMOKE WORLD LLC551272    DB84000000001189 N  599378480426                            000000000+                     09580                                Y          342   0000000000000.00 0000000.00   0000000.00                             000000000000000                                                                                                                                                     01418  000000000000 0000000000000.23     00050 00000                  
06988480050010001G2675906759000000328478001358000000330MCALLEN                  TX           5 D                00                                      NNNN                          000000000000                                                                   78480426                                                                                                                                                                                                                                                                                                                                                                                                                                               
06988490050010019DT67590675900000032847800135800000033080013576759003153900011100099060120230000000367715323000000000054076465081XXXXXX4719                         NY 2 0 N               N840000000003677      IL  07DNDAYDREAMS SMOKE WORLD LLC113492    DB84000000003677 N  599378480426                            000000000+                     09580                                Y          342   0000000000000.00 0000000.00   0000000.00                             000000000000000                                                                                                                                                     01418  000000000000 0000000000000.24     00050 00000                  
06988500050010001G2675906759000000328478001358000000330MCALLEN                  TX           5 D                00                                      NNNN                          000000000000                                                                   78480426                                                                                                                                                                                                                                                                                                                                                                                                                                               
06988510050010020DT67590675900000032847800135800000033080013576759003153900011100115060120230000000654815323000000000054076440393XXXXXX4274                         NY 2 0 N               N840000000006548      IL  05DNDAYDREAMS SMOKE WORLD LLC264322    DB84000000006548 N  599378480426                            000000000+                     09576                                N          346   0000000000000.00 0000000.00   0000000.00                             000000000000000                                                                                                                                                     01418  000000000000 0000000000000.90     01150 00000                  
06988520050010001G2675906759000000328478001358000000330MCALLEN                  TX           5 P                00                                      NNNN                          000000000000                                                                   78480426                                                                                                                                                                                                                                                                                                                                                                                                                                               
06988530050010021DT67590675900000032847800135800000033080013576759003153900011100131060120230000000373215323000000000054076417021XXXXXX1692                         NY 2 0 N               N840000000003732      IL  05DNDAYDREAMS SMOKE WORLD LLC081543    DB84000000003732 N  599378480426                            000000000+                     09595                                N          284   0000000000000.00 0000000.00   0000000.00                             000000000000000                                                                                                                                                     01418  000000000000 0000000000000.58     01150 00000                  
06988540050010001G2675906759000000328478001358000000330MCALLEN                  TX           5 P                00                                      NNNN                          000000000000                                                                   78480426                                                                                                                                                                                                                                                                                                                                                                                                                                               
06988550050010022DT67590675900000032847800135800000033080013576759003153900011100149060120230000000108015323000000000054076461046XXXXXX9638                         NY 2 0 N               N840000000001080      IL  05DNDAYDREAMS SMOKE WORLD LLC062421    DB84000000001080 N  599378480426                            000000000+                     09580                                Y          342   0000000000000.00 0000000.00   0000000.00                             000000000000000                                                                                                                                                     01418  000000000000 0000000000000.23     00050 00000                  
06988560050010001G2675906759000000328478001358000000330MCALLEN                  TX           5 D                00                                      NNNN                          000000000000                                                                   78480426                                                                                                                                                                                                                                                                                                                                                                                                                                               
06988570050010023DT67590675900000032847800135800000033080013576759003153900011100156060120230000000108115323000000000054076490637XXXXXX5113                         NY 2 0 N               N840000000001081      IL  07DNDAYDREAMS SMOKE WORLD LLC114456    DB84000000001081 N  599378480426                            000000000+                     09580                                Y          342   0000000000000.00 0000000.00   0000000.00                             000000000000000                                                                                                                                                     01418  000000000000 0000000000000.23     00050 00000                  
06988580050010001G2675906759000000328478001358000000330MCALLEN                  TX           5 D                00                                      NNNN                          000000000000                                                                   78480426                                                                                                                                                                                                                                                                                                                                                                                                                                               
06988590050010024DT67590675900000032847800135800000033080013576759003153900011100164060120230000000335115323000000000054076409637XXXXXX9809                         NY 2 0 N               N840000000003351      IL  07DNDAYDREAMS SMOKE WORLD LLC075021    DB84000000003351 N  599378480426                            000000000+                     09580                                Y          342   0000000000000.00 0000000.00   0000000.00                             000000000000000                                                                                                                                                     01418  000000000000 0000000000000.24     00050 00000                  
06988600050010001G2675906759000000328478001358000000330MCALLEN                  TX           5 D                00                                      NNNN                          000000000000                                                                   78480426                                                                                                                                                                                                                                                                                                                                                                                                                                               
06988610050010025DT67590675900000032847800135800000033080013576759003153900011100172060120230000000060415323000000000054076517279XXXXXX0683                         NY42 0 N               N840000000000604      ME  05DNDAYDREAMS SMOKE WORLD LLC272918    DB84000000000604 N  599378480426                            000000000+                     09597                                N                0000000000000.00 0000000.00   0000000.00                             000000000000000                                                                                                                                                     01418  000000000000 0000000000000.20     00900 00000                  
06988620050010001G2675906759000000328478001358000000330MCALLEN                  TX           5 D                00                                      NNNN                          000000000000                                                                   78480426                                                                                                                                                                                                                                                                                                                                                                                                                                               
06988630050010026DT67590675900000032847800135800000033080013576759003153900011100180060120230000000595315323000000000054076527515XXXXXX2168                         NY42 0 N               N840000000005953      ME  07DNDAYDREAMS SMOKE WORLD LLC130997    DB84000000005953 N  599378480426                            000000000+                     09601                                1          MA1   0000000000000.00 0000000.00   0000000.00                             000000000000000                                                                                                                                                     01418  000000000000 0000000000000.25     00050 00000                  
06988640050010001G2675906759000000328478001358000000330MCALLEN                  TX           5 D                00                                      NNNN                          000000000000                                                                   78480426                                                                                                                                                                                                                                                                                                                                                                                                                                               
06988650050010027DT67590675900000032847800135800000033080013576759003153900011100206060220230000000194715323000000000054076478357XXXXXX8574                         NY 2 0 N               N840000000001947      IL  07DNDAYDREAMS SMOKE WORLD LLC024330    DB84000000001947 N  599378480426                            000000000+                     09573                                N          121   0000000000000.00 0000000.00   0000000.00                             000000000000000                                                                                                                                                     01418  000000000000 0000000000000.31     00800 00000                  
06988660050010001G2675906759000000328478001358000000330MCALLEN                  TX           5 D                00                                      NNNN                          000000000000                                                                   78480426                                                                                                                                                                                                                                                                                                                                                                                                                                               
06988670050010028BH6759067590000003284780013580000090170602202315323000000000047250    0000090001160015N8001356759C06042023016                                                                                                                                                                                                                                                                                                                                                                                                                                                                                                                                                                                              
06988680050010029DT67590675900000032847800135800000010180013577287283153900011600012060120230000000595315323000000000047250527505XXXXXX3135       MS02WI09          NY 1 0 AMDJDZQCJH0601  N840000000005953          05DNDAYDREAMS SMOKE WORLD LLC702005    MD84000000005953 N  599378415303                            000000000+M10101C5434C    MDJ  10815                     000000000  1                0000000000000.00 0000000.00   0000000.00                             000000000000000                                                                                                                                                   B101418  000000000000 0000000000000.25     00050 02200                  
06988690050010001E167590675900000032847800135800000010100E0F8C8028F 00000000000.00404040404040404040404040404040404040404040404040400114A04003220000000000000000000000FF00000000000000000000000000  0000084039000000008000230601CA8F6C627B03F8BD3651AC23404040400840A00000000410100000000000000000001EA036D854163FD200120000000000004040401E40404040 000000059.53 000000000.001E03000000000000000000    80                                                                                                                                                                                                                                                                                                                  
06988700050010002G2675906759000000328478001358000000101MCALLEN                  TX           5 J                                                        NNNN              000000000000000000000000                        7                                          78415303                                                                                                                                                                                                                                                                                                                                                                                                                                               
06988710050010030DT67590675900000032847800135800000010180013524001193153900011600077060120230000000010715323000000000047250440393XXXXXX5099       VK04VS111111111   NYV1 A E583153048843139N840000000000107T5G700    07DNDAYDREAMS SMOKE WORLD LLC385487    VD84000000000107 N  599378415303                            000000000+                F PF 08165                     000000000  N000000000       0000000000000.00 0000000.00   0000000.00                             000000000000000                                                                                                                                                     01418 F000000000000 0000000000000.07     01600 00500                  
06988720050010001E1675906759000000328478001358000000101004040400024 00000000000.004040404040404040404040404040404040404040404040404006011203A00000000000000000000000404040404040404040404040404040  0000084020000000000000230601A5C45AD7BB99D1434562B311404040400840A0000000031010000000000000000000C5B26D526FDA01EF30300000000000004040404040404040 000000001.07 000000000.004040400000000000000000    80                                                                                                                                                                                                                                                                                                                  
06988730050010002G2675906759000000328478001358000000101MCALLEN                  TX           5 P                00                                      NNNN00 N 00                   000000000000                                                                   78415303                                                                                                                                                                                                                                                                                                                                                                                                                                               
06988740050010031DT67590675900000032847800135800000033080013576759003153900011600023060120230000000010715323000000000047250440393XXXXXX6008                         NY 2 0 N               N840000000000107      IL  07DNDAYDREAMS SMOKE WORLD LLC587024    DB84000000000107 N  599378415303                            000000000+                     09576                                N          346   0000000000000.00 0000000.00   0000000.00                             000000000000000                                                                                                                                                     01418  000000000000 0000000000000.16     01150 00000                  
06988750050010001G2675906759000000328478001358000000330MCALLEN                  TX           5 P                00                                      NNNN                          000000000000                                                                   78415303                                                                                                                                                                                                                                                                                                                                                                                                                                               
06988760050010032DT67590675900000032847800135800000033080013576759003153900011600031060120230000000865815323000000000047250454951XXXXXX2871                         NY 2 0 N               N840000000008658      IL  05DNDAYDREAMS SMOKE WORLD LLC358772    DB84000000008658 N  599378415303                            000000000+                     11030                                Y          604   0000000000000.00 0000000.00   0000000.00                             000000000000000                                                                                                                                                     01418  000000000000 0000000000000.26     00050 00000                  
06988770050010001G2675906759000000328478001358000000330MCALLEN                  TX           5 D                00                                      NNNN                          000000000000                                                                   78415303                                                                                                                                                                                                                                                                                                                                                                                                                                               
06988780050010033DT67590675900000032847800135800000033080013576759003153900011600049060120230000000422915323000000000047250527690XXXXXX2528                         NY42 0 N               N840000000004229      ME  05DNDAYDREAMS SMOKE WORLD LLC300883    DB84000000004229 N  599378415303                            000000000+                     09597                                N                0000000000000.00 0000000.00   0000000.00                             000000000000000                                                                                                                                                     01418  000000000000 0000000000000.53     00900 00000                  
06988790050010001G2675906759000000328478001358000000330MCALLEN                  TX           5                  00                                      NNNN                          000000000000                                                                   78415303                                                                                                                                                                                                                                                                                                                                                                                                                                               
06988800050010034DT67590675900000032847800135800000033080013576759003153900011600056060120230000000081415323000000000047250409637XXXXXX4252                         NY 2 0 N               N840000000000814      IL  07DNDAYDREAMS SMOKE WORLD LLC044219    DB84000000000814 N  599378415303                            000000000+                     09580                                Y          342   0000000000000.00 0000000.00   0000000.00                             000000000000000                                                                                                                                                     01418  000000000000 0000000000000.22     00050 00000                  
06988810050010001G2675906759000000328478001358000000330MCALLEN                  TX           5 D                00                                      NNNN                          000000000000                                                                   78415303                                                                                                                                                                                                                                                                                                                                                                                                                                               
