08023360353103988AD675906759000000142748001028000009071900015145730000001987006142023NYY16523ND6759800102061620232023157038700                                                                                                                                                                                                                                                                                                                                                                                                                                                                                                                                                                                              
08023370353103991AD675906759000000151648008888000009071900010280210000002255006142023NYY16523ND6759800888061620232023165019433                                                                                                                                                                                                                                                                                                                                                                                                                                                                                                                                                                                              
08023380353103994AD675906759000000133008001028000009071900011049160000001499106142023NYY16523ND6759800102061620232023165019434                                                                                                                                                                                                                                                                                                                                                                                                                                                                                                                                                                                              
08023390353103997AD675906759000000161968001028000009071900015124500000001200806142023NYY16523ND6759800102061620232023165019435                                                                                                                                                                                                                                                                                                                                                                                                                                                                                                                                                                                              
08023400353104000AD675906759000000268498001258000009071900011835200000002477006142023NYY16523ND6759800125061620232023165019436                                                                                                                                                                                                                                                                                                                                                                                                                                                                                                                                                                                              
08023410353104006AD675906759000000151648008888000009077900012235600000000198806142023NYY16523YC6759800888061620232023139005254                                                                                                                                                                                                                                                                                                                                                                                                                                                                                                                                                                                              
08023420353481670AD675906759000000198288001098000009071231630380750000001927006142023NYY16523ND6759800109061620232023163038075                                                                                                                                                                                                                                                                                                                                                                                                                                                                                                                                                                                              
08023430353481673AD675906759000000151648008888000009071231640571590000001987006142023NYY16523ND6759800888061620232023164057159                                                                                                                                                                                                                                                                                                                                                                                                                                                                                                                                                                                              
08023440353481676AD675906759000000268498001258000009077231650278060000002477006142023NYY16523YC6759800125061620232023165027806                                                                                                                                                                                                                                                                                                                                                                                                                                                                                                                                                                                              
08023450354997335BH6759067590000002872080012780000090170615202316623000000000000300    0000090001093816N8001276759D06162023009                                                                                                                                                                                                                                                                                                                                                                                                                                                                                                                                                                                              
08023460354997336DT67590675900000028720800127800000010180012773011003166900010991759061420230000099970016623000000000000300379796XXXXX1003                          YY 4 01N005261289805304N840000000999700          01DNLIFE SURGE LLC           146101    AM84000000999700 N  899971004114                            000000000+600320600140 258     11245                     000000000                   0000000000000.00 0000000.00   0000000.00                             000000000000000 61248972736759675900000028720                          1401 MANATEE AVE W STE 12                34205                                               015WPE 000000000000 0000000000235.03     02350 00000                  
08023470354990001G2675906759000000287208001278000000101BRADENTON                FL           9                  00                                      NNNN                          000000000000                                                                   71004114                                                                                                                                                                                                                                                                                                                                                                                                                                               
08023480354997337DT67590675900000028720800127800000010680012774001193166900010991444061420230000149970016623000000000000300463588XXXXXX7746               0000000   YYV4 01T463165580850806N84000000149970074LX00    01CNLIFFE SURGE LLC          961724    VD84000001499700 NDR899971004114   64426161935              000000000+                G DG 08168                     000000000  Y000000000 369   0000000000000.00 0000000.00   0000000.00                             000000000000000                                                                                                                                                     015WPE 000001499700 0000000000000.00     00000 00000                  
08023490354997337DR67590675900000028720800127800000010664426161935               000001499700                 P1                                                                                                                                                                                                                                                                                                                                                                                                                                                                                                                                                                                                            
08023500354990001P16759067590000002872080012780000001060000000000000000                             2000000000000000000000000              000000000000                    0000000000000000000000000                    000000000000                                                                                                                                                                                                                                                                                                                                                                                                                                                                                        
08023510354990002G2675906759000000287208001278000000106801-2056743              FL           9 D                00                                      NNNN   N                      000000000000                                                                   71004114                                                                                                                                                                                                                                                                                                                                                                                                                                               
08023520354997338DT67590675900000028720800127800000010180012724001193166900010905142061420230000025000016623000000000000300440066XXXXXX3186               1001111   YYV4 A1V303165753874025N840000000250000KVFR00    01DNLIFFE SURGE LLC          04123A    VS84000000250000 NDR899971004114   64426790763              000000000+                A CA 12380                     000000000  N000000000 625   0000000000000.00 0000000.00   0000000.00                             000000000000000                                                                                                                                                     015WPE7000000250000 0000000000041.35     01650 01000                  
08023530354997338DR67590675900000028720800127800000010164426790763              Y000000250000                 P1                                                                                                                                                                                                                                                                                                                                                                                                                                                                                                                                                                                                            
08023540354990001P16759067590000002872080012780000001010000000000000000                             2000000000000000000000000              000000000000                    0000000000000000000000000                    000000000000                                                                                                                                                                                                                                                                                                                                                                                                                                                                                        
08023550354990002G2675906759000000287208001278000000101801-2056743              FL           9 C                00                                      NNNN   Y                      000000000000                                                                   71004114                                                                                                                                                                                                                                                                                                                                                                                                                                               
08023560354997339DT67590675900000028720800127800000010180012724001193166900010938168061420230000024970016623000000000000300440066XXXXXX3186               1001111   YYV4 A1V583165757328529N840000000249700SBFG00    01DNLIFFE SURGE LLC          07847A    VS84000000249700 NDR899971004114   64426802589              000000000+                A CA 12380                     000000000  N000000000 625   0000000000000.00 0000000.00   0000000.00                             000000000000000                                                                                                                                                     015WPE7000000249700 0000000000041.30     01650 01000                  
08023570354997339DR67590675900000028720800127800000010164426802589              Y000000249700                 P1                                                                                                                                                                                                                                                                                                                                                                                                                                                                                                                                                                                                            
08023580354990001P16759067590000002872080012780000001010000000000000000                             2000000000000000000000000              000000000000                    0000000000000000000000000                    000000000000                                                                                                                                                                                                                                                                                                                                                                                                                                                                                        
08023590354990002G2675906759000000287208001278000000101801-2056743              FL           9 C                00                                      NNNN   Y                      000000000000                                                                   71004114                                                                                                                                                                                                                                                                                                                                                                                                                                               
08023600354997342BH6759067590000002325980011680000090170615202316623000000000032827    0000090001682319N8001166759D06162023068                                                                                                                                                                                                                                                                                                                                                                                                                                                                                                                                                                                              
08023610354997343DT67590675900000023259800116800000010680011674001193166900016823179061420230000001638916623000000000032827410039XXXXXX8505               0000000   YYV4 07T583165790414238N8400000000163892MW300    01CNGFORCEHEMP844-258-9322   34225C    VS84000000016389 NDR549977768166   1A042E4808T2A2A529B0B0E  000000000+                C CC 00245                     000000000  N000000000 166   0000000000000.00 0000000.00   0000000.00                             000000000000000                                                                                                                                                     015WPE 000000016389-0000000000002.88     01760 00000                  
08023620354997343DR6759067590000002325980011680000001061A042E4808T2A2A529B0B0E  U000000016389                 P1                                                                                                                                                                                                                                                                                                                                                                                                                                                                                                                                                                                                            
08023630354990001P16759067590000002325980011680000001060000000000000000                             2000000000000000000000000              000000000000                    0000000000000000000000000                    000000000000                                                                                                                                                                                                                                                                                                                                                                                                                                                                                        
08023640354990002G2675906759000000232598001168000000106844-2589322              CA           9 C                00                                      NNNN   Y                      000000000000                                                                   77768166                                                                                                                                                                                                                                                                                                                                                                                                                                               
08023650354997344DT67590675900000023259800116800000010680011674001193166900016823187061420230000001278916623000000000032827410039XXXXXX8505               0000000   YYV4 07T463165791001850N840000000012789WW5V00    01CNGFORCEHEMP844-258-9322   76050C    VS84000000012789 NDR549977768166   8ECF895AD2T8065E2265DAB  000000000+                C CC 00245                     000000000  N000000000 166   0000000000000.00 0000000.00   0000000.00                             000000000000000                                                                                                                                                     015WPE 000000012789-0000000000002.25     01760 00000                  
08023660354997344DR6759067590000002325980011680000001068ECF895AD2T8065E2265DAB  U000000012789                 P1                                                                                                                                                                                                                                                                                                                                                                                                                                                                                                                                                                                                            
08023670354990001P16759067590000002325980011680000001060000000000000000                             2000000000000000000000000              000000000000                    0000000000000000000000000                    000000000000                                                                                                                                                                                                                                                                                                                                                                                                                                                                                        
08023680354990002G2675906759000000232598001168000000106844-2589322              CA           9 C                00                                      NNNN   Y                      000000000000                                                                   77768166                                                                                                                                                                                                                                                                                                                                                                                                                                               
08023690354997345DT67590675900000023259800116800000010680011674001193166900016823195061420230000000364916623000000000032827410039XXXXXX8505               0000000   YYV4 07T583165791186319N840000000003649XB4J00    01CNGFORCEHEMP844-258-9322   88838C    VS84000000003649 NDR549977768166   8ECF895AD2TE17A079B92EC  000000000+                C CC 00245                     000000000  N000000000 166   0000000000000.00 0000000.00   0000000.00                             000000000000000                                                                                                                                                     015WPE 000000003649-0000000000000.64     01760 00000                  
08023700354997345DR6759067590000002325980011680000001068ECF895AD2TE17A079B92EC  U000000003649                 P1                                                                                                                                                                                                                                                                                                                                                                                                                                                                                                                                                                                                            
08023710354990001P16759067590000002325980011680000001060000000000000000                             2000000000000000000000000              000000000000                    0000000000000000000000000                    000000000000                                                                                                                                                                                                                                                                                                                                                                                                                                                                                        
08023720354990002G2675906759000000232598001168000000106844-2589322              CA           9 C                00                                      NNNN   Y                      000000000000                                                                   77768166                                                                                                                                                                                                                                                                                                                                                                                                                                               
08023730354997348BH6759067590000001767380010680000090170615202316623000000000009467    0000090001682176N8001066759D06162023068                                                                                                                                                                                                                                                                                                                                                                                                                                                                                                                                                                                              
08023740354997349DT67590675900000017673800106800000010680010674001193166900016821769061420230000000946716623000000000009467431196XXXXXX2403               0000000   YYV4 07T303165793441095N840000000009467L9WG00    01CNVGHEMP.COM833-246-5225   014246    VS84000000009467 NDR549977427364   A7BFD21C1BTA946A36D5630  000000000+                B CB 00245                     000000000  N000000000 166   0000000000000.00 0000000.00   0000000.00                             000000000000000                                                                                                                                                     015WPE 000000009467-0000000000001.67     01760 00000                  
08023750354997349DR675906759000000176738001068000000106A7BFD21C1BTA946A36D5630  U000000009467                 P1                                                                                                                                                                                                                                                                                                                                                                                                                                                                                                                                                                                                            
08023760354990001P16759067590000001767380010680000001060000000000000000                             2000000000000000000000000              000000000000                    0000000000000000000000000                    000000000000                                                                                                                                                                                                                                                                                                                                                                                                                                                                                        
08023770354990002G2675906759000000176738001068000000106720-3077930              CA           9 C                00                                      NNNN   Y                      000000000000                                                                   77427364                                                                                                                                                                                                                                                                                                                                                                                                                                               
08023780354997352BH6759067590000002684980012580000090170615202316623000000000047864    0000090001636448N8001256759D06162023063                                                                                                                                                                                                                                                                                                                                                                                                                                                                                                                                                                                              
08023790354997353DT67590675900000026849800125800000010180012524001193166900016357066061320230000002477016623000000000047864401543XXXXXX2422               2111111   YYV4 A7W383161472742840N840000000024770XVMT00    01DNCBD8885133385            459102    VD84000000024770 NDR599978220273   E8B1320420T455D7CC0EA63  000000000+                F DF 10420                     000000000  Y000000000 338   0000000000000.00 0000000.00   0000000.00                             000000000000000                                                                                                                                                     015WPEG000000024770 0000000000000.34     00050 02200                  
08023800354997353DR675906759000000268498001258000000101E8B1320420T455D7CC0EA63  Y000000024770                 P1                                                                                                                                                                                                                                                                                                                                                                                                                                                                                                                                                                                                            
08023810354990001P16759067590000002684980012580000001010000000000000000                             2000000000000000000000000              000000000000                    0000000000000000000000000                    000000000000                                                                                                                                                                                                                                                                                                                                                                                                                                                                                        
08023820354990002G2675906759000000268498001258000000101888-5133385              WY           9 D                00                                      NNNN   N                      000000000000                                                                   78220273                                                                                                                                                                                                                                                                                                                                                                                                                                               
08023830354997354DT67590675900000026849800125800000010180012524001193166900016357264061320230000001977016623000000000047864440066XXXXXX9312               2111111   YYV4 A7W583161544989477N840000000019770GRFG00    01DNCBD8885133385            08001D    VS84000000019770 NDR599978220273   612E198EF6T7C73EC9ED8BD  000000000+                D CD 12109                     000000000  N000000000 498   0000000000000.00 0000000.00   0000000.00                             000000000000000                                                                                                                                                     015WPEG000000019770 0000000000005.04     02500 01000                  
08023840354997354DR675906759000000268498001258000000101612E198EF6T7C73EC9ED8BD  Y000000019770                 P1                                                                                                                                                                                                                                                                                                                                                                                                                                                                                                                                                                                                            
08023850354990001P16759067590000002684980012580000001010000000000000000                             2000000000000000000000000              000000000000                    0000000000000000000000000                    000000000000                                                                                                                                                                                                                                                                                                                                                                                                                                                                                        
08023860354990002G2675906759000000268498001258000000101888-5133385              WY           9 C                00                                      NNNN   Y                      000000000000                                                                   78220273                                                                                                                                                                                                                                                                                                                                                                                                                                               
08023870354997355DT67590675900000026849800125800000010180012587287283166900016357273061320230000001977016623000000000047864531877XXXXXX8756       ME03KE06MS02      YY 4607AMDJY5XFMK0610  N840000000019770          81DNCBD8885133385            737789    MD84000000019770 NDR599978220273   9FA332268CTC0D0790B3C45  000000000+600450S00130    MDJ  00401                     000000000  N                0000000000000.00 0000000.00   0000000.00                             000000000000000                                                                                                                                                   U0015WPE 000000000000 0000000000003.41     01650 01500                  
08023880354997355DR6759067590000002684980012580000001019FA332268CTC0D0790B3C45  Z000000000000                                                                                                                                                                                                                                                                                                                                                                                                                                                                                                                                                                                                                               
08023890354990001G26759067590000002684980012580000001018885133385               WY           9 J               210                                      NNNN           210000000000000000000000000                        7                                          78220273                                                                                                                                                                                                                                                                                                                                                                                                                                               
08023900354997356DT67590675900000026849800125800000010180012587287283166900016357497061320230000001977016623000000000047864521333XXXXXX9337       ME03KE06MS02      YY 4607AMWELTVSMN0610  N840000000019770          81DNCBD8885133385            01031P    MC84000000019770 NDR599978220273   4DD2259BBET364A9B6064F2  000000000+600450S00130    MWE  00737                     000000000  N                0000000000000.00 0000000.00   0000000.00                             000000000000000                                                                                                                                                   U0015WPE 000000000000 0000000000005.24     02600 01000                  
08023910354997356DR6759067590000002684980012580000001014DD2259BBET364A9B6064F2  Y000000000000                                                                                                                                                                                                                                                                                                                                                                                                                                                                                                                                                                                                                               
08023920354990001G26759067590000002684980012580000001018885133385               WY           9 E               210                                      NNNN           210000000000000000000000000                        7                                          78220273                                                                                                                                                                                                                                                                                                                                                                                                                                               
08023930354997357DT67590675900000026849800125800000010180012524001193166900016357793061320230000001610116623000000000047864448233XXXXXX6346               2111111   YYV4 A7W463161652722644N840000000016101W24H00    01DNCBD8885133385            030752    VD84000000016101 NDR599978220273   F68BE571BBT695E20F264D7  000000000+                F DF 10420                     000000000  Y000000000 338   0000000000000.00 0000000.00   0000000.00                             000000000000000                                                                                                                                                     015WPEG000000016101 0000000000000.30     00050 02200                  
08023940354997357DR675906759000000268498001258000000101F68BE571BBT695E20F264D7  N000000016101                 P1                                                                                                                                                                                                                                                                                                                                                                                                                                                                                                                                                                                                            
08023950354990001P16759067590000002684980012580000001010000000000000000                             2000000000000000000000000              000000000000                    0000000000000000000000000                    000000000000                                                                                                                                                                                                                                                                                                                                                                                                                                                                                        
08023960354990002G2675906759000000268498001258000000101888-5133385              WY           9 D                00                                      NNNN   N                      000000000000                                                                   78220273                                                                                                                                                                                                                                                                                                                                                                                                                                               
08023970354997358DT67590675900000026849800125800000010180012524001193166900016358007061320230000002477016623000000000047864410039XXXXXX7973               2111111   YYV4 A7W583161688704512N8400000000247705BJK00    01DNCBD8885133385            70000C    VS84000000024770 NDR599978220273   57A1322506TEC63E179C9B2  000000000+                C CC 12108                     000000000  N000000000 496   0000000000000.00 0000000.00   0000000.00                             000000000000000                                                                                                                                                     015WPEG000000024770 0000000000005.18     02050 01000                  
08023980354997358DR67590675900000026849800125800000010157A1322506TEC63E179C9B2  Y000000024770                 P1                                                                                                                                                                                                                                                                                                                                                                                                                                                                                                                                                                                                            
08023990354990001P16759067590000002684980012580000001010000000000000000                             2000000000000000000000000              000000000000                    0000000000000000000000000                    000000000000                                                                                                                                                                                                                                                                                                                                                                                                                                                                                        
08024000354990002G2675906759000000268498001258000000101888-5133385              WY           9 C                00                                      NNNN   Y                      000000000000                                                                   78220273                                                                                                                                                                                                                                                                                                                                                                                                                                               
08024010354997359DT67590675900000026849800125800000010180012587287283166900016358131061320230000001480316623000000000047864523700XXXXXX1767       ME03KE06MS02      YY 4607AMDJCQCG9W0610  N840000000014803          81DNCBD8885133385            061010    MD84000000014803 NDR599978220273   E609935D85T233F7AB57209  000000000+600450S00130    MDJ  00401                     000000000  N                0000000000000.00 0000000.00   0000000.00                             000000000000000                                                                                                                                                   U0015WPE 000000000000 0000000000002.59     01650 01500                  
08024020354997359DR675906759000000268498001258000000101E609935D85T233F7AB57209  Y000000000000                                                                                                                                                                                                                                                                                                                                                                                                                                                                                                                                                                                                                               
08024030354990001G26759067590000002684980012580000001018885133385               WY           9 J               210                                      NNNN           210000000000000000000000000                        7                                          78220273                                                                                                                                                                                                                                                                                                                                                                                                                                               
08024040354997360DT67590675900000026849800125800000010180012587287283166900016358156061320230000001977016623000000000047864512106XXXXXX5661       ME03KE06MS02      YY 4607AMPLUQDO9V0610  N840000000019770          81DNCBD8885133385            01018B    MC84000000019770 NDR599978220273   E36D65958DTAC0E4ADEAEE2  000000000+600450S00130    MPL  00580                     000000000  N                0000000000000.00 0000000.00   0000000.00                             000000000000000                                                                                                                                                   U0015WPE 000000000000 0000000000004.25     02100 01000                  
08024050354997360DR675906759000000268498001258000000101E36D65958DTAC0E4ADEAEE2  Y000000000000                                                                                                                                                                                                                                                                                                                                                                                                                                                                                                                                                                                                                               
08024060354990001G26759067590000002684980012580000001018885133385               WY           9 L               210                                      NNNN           210000000000000000000000000                        7                                          78220273                                                                                                                                                                                                                                                                                                                                                                                                                                               
08024070354997361DT67590675900000026849800125800000010180012587287283166900016358313061320230000001977016623000000000047864553811XXXXXX6011       ME03KE06MS02      YY 4607AMDSAQK5A70610  N840000000019770          81DNCBD8885133385            352973    MD84000000019770 NDR599978220273   548E05594ET28350027742C  000000000+600450S00130    MDS  00401                     000000000  N                0000000000000.00 0000000.00   0000000.00                             000000000000000                                                                                                                                                   U0015WPE 000000000000 0000000000003.41     01650 01500                  
08024080354997361DR675906759000000268498001258000000101548E05594ET28350027742C  N000000000000                                                                                                                                                                                                                                                                                                                                                                                                                                                                                                                                                                                                                               
08024090354990001G26759067590000002684980012580000001018885133385               WY           9 S               210                                      NNNN           210000000000000000000000000                                                                   78220273                                                                                                                                                                                                                                                                                                                                                                                                                                               
08024100354997362DT67590675900000026849800125800000010180012587287283166900016358578061320230000001280316623000000000047864542418XXXXXX8781       ME03KE06MS02      YY 4607AMWEB8O8A70610  N840000000012803          81DNCBD8885133385            88688P    MC84000000012803 NDR599978220273   1360699361T47B2CC16938F  000000000+600450S00130    MWE  00737                     000000000  N                0000000000000.00 0000000.00   0000000.00                             000000000000000                                                                                                                                                   U0015WPE 000000000000 0000000000003.43     02600 01000                  
08024110354997362DR6759067590000002684980012580000001011360699361T47B2CC16938F  Y000000000000                                                                                                                                                                                                                                                                                                                                                                                                                                                                                                                                                                                                                               
08024120354990001G26759067590000002684980012580000001018885133385               WY           9 E               210                                      NNNN           210000000000000000000000000                        7                                          78220273                                                                                                                                                                                                                                                                                                                                                                                                                                               
08024130354997363DT67590675900000026849800125800000010180012524001193166900016358692061320230000001280316623000000000047864408881XXXXXX1424               2111111   YYV4 A7W583161833710522N840000000012803MBXV00    01DNCBD8885133385            335353    VD84000000012803 NDR599978220273   7509C0E2ECT1F8D922DDCC0  000000000+                F DF 00415                     000000000  N000000000       0000000000000.00 0000000.00   0000000.00                             000000000000000                                                                                                                                                     015WPEG000000012803 0000000000002.26     01650 01500                  
08024140354997363DR6759067590000002684980012580000001017509C0E2ECT1F8D922DDCC0  Y000000012803                 P1                                                                                                                                                                                                                                                                                                                                                                                                                                                                                                                                                                                                            
08024150354990001P16759067590000002684980012580000001010000000000000000                             2000000000000000000000000              000000000000                    0000000000000000000000000                    000000000000                                                                                                                                                                                                                                                                                                                                                                                                                                                                                        
08024160354990002G2675906759000000268498001258000000101888-5133385              WY           9 D                00                                      NNNN   N                      000000000000                                                                   78220273                                                                                                                                                                                                                                                                                                                                                                                                                                               
08024170354997364DT67590675900000026849800125800000010180012576509753166900016359060061320230000001977016623000000000047864601101XXXXXX8658   BA00                  YY 4 07N743139036707839N840000000019770    00    01DNCBD8885133385            01066P    DS84000000019770 NDR599978220273070                         000000000+1015104910600   DCPDI11327500868  210750000000 000000000  0          462   0000000000000.00 0000000.00   0000000.00                             000000000000000                                                                                                                                                     015WPE 000000000000 0000000000004.15     02050 01000                  
08024180354997364DR675906759000000268498001258000000101                         Y                                                                                                                                                                                                                                                                                                                                                                                                                                                                                                                                                                                                                                           
08024190354990001G2675906759000000268498001258000000101855-4401547              WY           9 P                00                                      NNNN                          000000000000                         00000650975601179750000543                78220273                                                                                                                                                                                                                                                                                                                                                                                                                                               
08024200354997365DT67590675900000026849800125800000010680012587287283166900016363974061420230000001977016623000000000047864542418XXXXXX4374                         YY 4607AMPL15UQGQ0614  N840000000019770          81CNCBD8885133385            439519    MC84000000019770 NDR599978220273   313476B1FFT0E6E206131C6  000000000+600450S00130    MPL  00564                     000000000  N                0000000000000.00 0000000.00   0000000.00                             000000000000000                                                                                                                                                     015WPE 000000000000-0000000000003.46     01750 00000                  
08024210354997365DR675906759000000268498001258000000106313476B1FFT0E6E206131C6  U000000000000                                                                                                                                                                                                                                                                                                                                                                                                                                                                                                                                                                                                                               
08024220354990001G26759067590000002684980012580000001068885133385               WY           9 L               210                                      NNNN           210000000000000000000000000                        7                                          78220273                                                                                                                                                                                                                                                                                                                                                                                                                                               
08024230354997366DT67590675900000026849800125800000010680012587287283166900016363982061420230000000979816623000000000047864542418XXXXXX4374                         YY 4607AMPL15UYGQ0614  N840000000009798          81CNCBD8885133385            441743    MC84000000009798 NDR599978220273   313476B1FFT7633DC12B579  000000000+600450S00130    MPL  00564                     000000000  N                0000000000000.00 0000000.00   0000000.00                             000000000000000                                                                                                                                                     015WPE 000000000000-0000000000001.71     01750 00000                  
08024240354997366DR675906759000000268498001258000000106313476B1FFT7633DC12B579  U000000000000                                                                                                                                                                                                                                                                                                                                                                                                                                                                                                                                                                                                                               
08024250354990001G26759067590000002684980012580000001068885133385               WY           9 L               210                                      NNNN           210000000000000000000000000                        7                                          78220273                                                                                                                                                                                                                                                                                                                                                                                                                                               
08024260354997367DT67590675900000026849800125800000010680012587287283166900016363990061420230000000619816623000000000047864542418XXXXXX4374                         YY 4607AMPL15VAGR0614  N840000000006198          81CNCBD8885133385            444940    MC84000000006198 NDR599978220273   313476B1FFTD2CB61E368F3  000000000+600450S00130    MPL  00564                     000000000  N                0000000000000.00 0000000.00   0000000.00                             000000000000000                                                                                                                                                     015WPE 000000000000-0000000000001.08     01750 00000                  
08024270354997367DR675906759000000268498001258000000106313476B1FFTD2CB61E368F3  U000000000000                                                                                                                                                                                                                                                                                                                                                                                                                                                                                                                                                                                                                               
08024280354990001G26759067590000002684980012580000001068885133385               WY           9 L               210                                      NNNN           210000000000000000000000000                        7                                          78220273                                                                                                                                                                                                                                                                                                                                                                                                                                               
08024290354997368DT67590675900000026849800125800000010680012587287283166900016364006061420230000000129516623000000000047864542418XXXXXX4374                         YY 4607AMPL15VMGR0614  N840000000001295          81CNCBD8885133385            447720    MC84000000001295 NDR599978220273   313476B1FFTFF18C399D858  000000000+600450S00130    MPL  00564                     000000000  N                0000000000000.00 0000000.00   0000000.00                             000000000000000                                                                                                                                                     015WPE 000000000000-0000000000000.23     01750 00000                  
08024300354997368DR675906759000000268498001258000000106313476B1FFTFF18C399D858  U000000000000                                                                                                                                                                                                                                                                                                                                                                                                                                                                                                                                                                                                                               
08024310354990001G26759067590000002684980012580000001068885133385               WY           9 L               210                                      NNNN           210000000000000000000000000                        7                                          78220273                                                                                                                                                                                                                                                                                                                                                                                                                                               
08024320354997369DT67590675900000026849800125800000010680012587287283166900016364014061420230000002078516623000000000047864526225XXXXXX3442                         YY 4607AMDSTSM06M0614  N840000000020785          81CNCBD8885133385            774727    MD84000000020785 NDR599978220273   387FE7649BT65A7B7C42EF7  000000000+600450S00130    MDS  10828                     000000000  1                0000000000000.00 0000000.00   0000000.00                             000000000000000                                                                                                                                                     015WPE 000000000000 0000000000000.00     00000 00000                  
08024330354997369DR675906759000000268498001258000000106387FE7649BT65A7B7C42EF7  N000000000000                                                                                                                                                                                                                                                                                                                                                                                                                                                                                                                                                                                                                               
08024340354990001G26759067590000002684980012580000001068885133385               WY           9 S               210                                      NNNN           210000000000000000000000000                        7                                          78220273                                                                                                                                                                                                                                                                                                                                                                                                                                               
08024350354997370DT67590675900000026849800125800000010680012574001193166900016364042061420230000000640216623000000000047864410039XXXXXX0134               0000000   YYV4 07T383165499085427N840000000006402XX2600    01CNCBD8885133385            31641D    VS84000000006402 NDR599978220273   68D03E6F44T27CA3CA0F2A8  000000000+                D CD 00245                     000000000  N000000000 166   0000000000000.00 0000000.00   0000000.00                             000000000000000                                                                                                                                                     015WPE 000000006402-0000000000001.13     01760 00000                  
08024360354997370DR67590675900000026849800125800000010668D03E6F44T27CA3CA0F2A8  U000000006402                 P1                                                                                                                                                                                                                                                                                                                                                                                                                                                                                                                                                                                                            
08024370354990001P16759067590000002684980012580000001060000000000000000                             2000000000000000000000000              000000000000                    0000000000000000000000000                    000000000000                                                                                                                                                                                                                                                                                                                                                                                                                                                                                        
08024380354990002G2675906759000000268498001258000000106888-5133385              WY           9 C                00                                      NNNN   Y                      000000000000                                                                   78220273                                                                                                                                                                                                                                                                                                                                                                                                                                               
08024390354997371DT67590675900000026849800125800000010680012587287283166900016364055061420230000000979816623000000000047864526225XXXXXX3442                         YY 4607AMDSL4UYZ60614  N840000000009798          81CNCBD8885133385            681663    MD84000000009798 NDR599978220273   387FE7649BT6857EC52B7F8  000000000+600450S00130    MDS  10828                     000000000  1                0000000000000.00 0000000.00   0000000.00                             000000000000000                                                                                                                                                     015WPE 000000000000 0000000000000.00     00000 00000                  
08024400354997371DR675906759000000268498001258000000106387FE7649BT6857EC52B7F8  N000000000000                                                                                                                                                                                                                                                                                                                                                                                                                                                                                                                                                                                                                               
08024410354990001G26759067590000002684980012580000001068885133385               WY           9 S               210                                      NNNN           210000000000000000000000000                        7                                          78220273                                                                                                                                                                                                                                                                                                                                                                                                                                               
08024420354997372DT67590675900000026849800125800000010680012587287283166900016364063061420230000000494216623000000000047864542418XXXXXX0682                         YY 4607AMPLR4V8Z60614  N840000000004942          81CNCBD8885133385            204302    MC84000000004942 NDR599978220273   1F4999E6FCTBD1A478173E5  000000000+600450S00130    MPL  00564                     000000000  N                0000000000000.00 0000000.00   0000000.00                             000000000000000                                                                                                                                                     015WPE 000000000000-0000000000000.86     01750 00000                  
08024430354997372DR6759067590000002684980012580000001061F4999E6FCTBD1A478173E5  U000000000000                                                                                                                                                                                                                                                                                                                                                                                                                                                                                                                                                                                                                               
08024440354990001G26759067590000002684980012580000001068885133385               WY           9 L               210                                      NNNN           210000000000000000000000000                        7                                          78220273                                                                                                                                                                                                                                                                                                                                                                                                                                               
08024450354997373DT67590675900000026849800125800000010680012574001193166900016364075061420230000001977016623000000000047864410039XXXXXX5520               0000000   YYV4 07T303165508259665N840000000019770J6HH00    01CNCBD8885133385            95265C    VS84000000019770 NDR599978220273   A78236B162T7D26F9A85F8B  000000000+                C CC 00245                     000000000  N000000000 166   0000000000000.00 0000000.00   0000000.00                             000000000000000                                                                                                                                                     015WPE 000000019770-0000000000003.48     01760 00000                  
08024460354997373DR675906759000000268498001258000000106A78236B162T7D26F9A85F8B  U000000019770                 P1                                                                                                                                                                                                                                                                                                                                                                                                                                                                                                                                                                                                            
08024470354990001P16759067590000002684980012580000001060000000000000000                             2000000000000000000000000              000000000000                    0000000000000000000000000                    000000000000                                                                                                                                                                                                                                                                                                                                                                                                                                                                                        
08024480354990002G2675906759000000268498001258000000106888-5133385              WY           9 C                00                                      NNNN   Y                      000000000000                                                                   78220273                                                                                                                                                                                                                                                                                                                                                                                                                                               
08024490354997374DT67590675900000026849800125800000010680012574001193166900016364083061420230000000979816623000000000047864410039XXXXXX5520               0000000   YYV4 07T383165508317590N8400000000097986V9C00    01CNCBD8885133385            01507C    VS84000000009798 NDR599978220273   A78236B162TD36403B0DBE8  000000000+                C CC 00245                     000000000  N000000000 166   0000000000000.00 0000000.00   0000000.00                             000000000000000                                                                                                                                                     015WPE 000000009798-0000000000001.72     01760 00000                  
08024500354997374DR675906759000000268498001258000000106A78236B162TD36403B0DBE8  U000000009798                 P1                                                                                                                                                                                                                                                                                                                                                                                                                                                                                                                                                                                                            
08024510354990001P16759067590000002684980012580000001060000000000000000                             2000000000000000000000000              000000000000                    0000000000000000000000000                    000000000000                                                                                                                                                                                                                                                                                                                                                                                                                                                                                        
08024520354990002G2675906759000000268498001258000000106888-5133385              WY           9 C                00                                      NNNN   Y                      000000000000                                                                   78220273                                                                                                                                                                                                                                                                                                                                                                                                                                               
08024530354997375DT67590675900000026849800125800000010680012587287283166900016364097061420230000001280316623000000000047864546638XXXXXX8887                         YY 4607AMWEL5BRZ60614  N840000000012803          81CNCBD8885133385            019239    MC84000000012803 NDR599978220273   DB5A704084TAFF5F084707C  000000000+600450S00130    MWE  00564                     000000000  N                0000000000000.00 0000000.00   0000000.00                             000000000000000                                                                                                                                                     015WPE 000000000000-0000000000002.24     01750 00000                  
08024540354997375DR675906759000000268498001258000000106DB5A704084TAFF5F084707C  Z000000000000                                                                                                                                                                                                                                                                                                                                                                                                                                                                                                                                                                                                                               
08024550354990001G26759067590000002684980012580000001068885133385               WY           9 E               210                                      NNNN           210000000000000000000000000                        7                                          78220273                                                                                                                                                                                                                                                                                                                                                                                                                                               
08024560354997376DT67590675900000026849800125800000010680012574001193166900016364125061420230000001480316623000000000047864414720XXXXXX8348               0000000   YYV4 07T583165517389463N8400000000148036X2K00    01CNCBD8885133385            06567A    VS84000000014803 NDR599978220273   2A1930FA4AT16FEF39357E3  000000000+                A CA 00245                     000000000  N000000000 166   0000000000000.00 0000000.00   0000000.00                             000000000000000                                                                                                                                                     015WPE 000000014803-0000000000002.61     01760 00000                  
08024570354997376DR6759067590000002684980012580000001062A1930FA4AT16FEF39357E3  Y000000014803                 P1                                                                                                                                                                                                                                                                                                                                                                                                                                                                                                                                                                                                            
08024580354990001P16759067590000002684980012580000001060000000000000000                             2000000000000000000000000              000000000000                    0000000000000000000000000                    000000000000                                                                                                                                                                                                                                                                                                                                                                                                                                                                                        
08024590354990002G2675906759000000268498001258000000106888-5133385              WY           9 C                00                                      NNNN   Y                      000000000000                                                                   78220273                                                                                                                                                                                                                                                                                                                                                                                                                                               
08024600354997377DT67590675900000026849800125800000010680012574001193166900016364232061420230000001116916623000000000047864441840XXXXXX4012               0000000   YYV4 07T463165582581814N840000000011169BF7C00    01CNCBD8885133385            302563    VS84000000011169 NDR599978220273   4425CCEB61T3F1BDA8A2528  000000000+                A CA 00245                     000000000  N000000000 166   0000000000000.00 0000000.00   0000000.00                             000000000000000                                                                                                                                                     015WPE 000000011169-0000000000001.97     01760 00000                  
08024610354997377DR6759067590000002684980012580000001064425CCEB61T3F1BDA8A2528  U000000011169                 P1                                                                                                                                                                                                                                                                                                                                                                                                                                                                                                                                                                                                            
08024620354990001P16759067590000002684980012580000001060000000000000000                             2000000000000000000000000              000000000000                    0000000000000000000000000                    000000000000                                                                                                                                                                                                                                                                                                                                                                                                                                                                                        
08024630354990002G2675906759000000268498001258000000106888-5133385              WY           9 C                00                                      NNNN   Y                      000000000000                                                                   78220273                                                                                                                                                                                                                                                                                                                                                                                                                                               
08024640354997378DT67590675900000026849800125800000010680012587287283166900016364527061420230000001489216623000000000047864553453XXXXXX9951                         YY94607N         0614  N840000000000000          81CNCBD8885133385                      MC84000000014892 N  599978220273   50F2FA983ET3A528C9EAC2C  000000000+600450S00130    MPL  00564                     000000000  N                0000000000000.00 0000000.00   0000000.00                             000000000000000                                                                                                                                                     015WPE 000000000000-0000000000002.61     01750 00000                  
08024650354990001G26759067590000002684980012580000001068885133385               WY           9 L               210                                      NNNN           210000000000000000000000000                        7                                          78220273                                                                                                                                                                                                                                                                                                                                                                                                                                               
08024660354997379DT67590675900000026849800125800000010680012587287283166900016364535061420230000000979816623000000000047864553453XXXXXX9951                         YY94607N         0614  N840000000000000          81CNCBD8885133385                      MC84000000009798 N  599978220273   50F2FA983ET7C49511707F1  000000000+600450S00130    MPL  00564                     000000000  N                0000000000000.00 0000000.00   0000000.00                             000000000000000                                                                                                                                                     015WPE 000000000000-0000000000001.71     01750 00000                  
08024670354990001G26759067590000002684980012580000001068885133385               WY           9 L               210                                      NNNN           210000000000000000000000000                        7                                          78220273                                                                                                                                                                                                                                                                                                                                                                                                                                               
08024680354997380DT67590675900000026849800125800000010680012587287283166900016364543061420230000000619816623000000000047864553453XXXXXX9951                         YY94607N         0614  N840000000000000          81CNCBD8885133385                      MC84000000006198 N  599978220273   50F2FA983ET3A7738566FC6  000000000+600450S00130    MPL  00564                     000000000  N                0000000000000.00 0000000.00   0000000.00                             000000000000000                                                                                                                                                     015WPE 000000000000-0000000000001.08     01750 00000                  
08024690354990001G26759067590000002684980012580000001068885133385               WY           9 L               210                                      NNNN           210000000000000000000000000                        7                                          78220273                                                                                                                                                                                                                                                                                                                                                                                                                                               
08024700354997381DT67590675900000026849800125800000010680012576509753166900016364300061420230000000988516623000000000047864601100XXXXXX8959   BA00                  YY 4 07N743142235694447N840000000009885    00    01CNCBD8885133385            01462R    DS84000000009885 NDR599978220273070                         000000000+1015104910600   DCCDI01022004488  135929200000 000000000  0          134   0000000000000.00 0000000.00   0000000.00                             000000000000000                                                                                                                                                     015WPE 000000000000-0000000000001.73     01750 00000                  
08024710354997381DR675906759000000268498001258000000106                         R                                                                                                                                                                                                                                                                                                                                                                                                                                                                                                                                                                                                                                           
08024720354990001G2675906759000000268498001258000000106855-4401547              WY           9 C                00                                      NNNN                          000000000000                         00000650975601179750000543                78220273                                                                                                                                                                                                                                                                                                                                                                                                                                               
08024730354997382DT67590675900000026849800125800000010680012576509753166900016364318061420230000000296616623000000000047864601100XXXXXX8959   BA00                  YY 4 07N753142240072792N840000000002966    00    01CNCBD8885133385            01440R    DS84000000002966 NDR599978220273070                         000000000+1015104910600   DCCDI01022830667  140647200000 000000000  0          134   0000000000000.00 0000000.00   0000000.00                             000000000000000                                                                                                                                                     015WPE 000000000000-0000000000000.52     01750 00000                  
08024740354997382DR675906759000000268498001258000000106                         R                                                                                                                                                                                                                                                                                                                                                                                                                                                                                                                                                                                                                                           
08024750354990001G2675906759000000268498001258000000106855-4401547              WY           9 C                00                                      NNNN                          000000000000                         00000650975601179750000543                78220273                                                                                                                                                                                                                                                                                                                                                                                                                                               
08024760354997383DT67590675900000026849800125800000010680012574001193166900016364323061420230000000988516623000000000047864441840XXXXXX3039               0000000   YYV4 07T463165724392154N84000000000988556HT00    01CNCBD8885133385            686076    VS84000000009885 NDR599978220273   C5D05A50EFT2C7AA9E6F11A  000000000+                C CC 00245                     000000000  N000000000 166   0000000000000.00 0000000.00   0000000.00                             000000000000000                                                                                                                                                     015WPE 000000009885-0000000000001.74     01760 00000                  
08024770354997383DR675906759000000268498001258000000106C5D05A50EFT2C7AA9E6F11A  U000000009885                 P1                                                                                                                                                                                                                                                                                                                                                                                                                                                                                                                                                                                                            
