01723260209400002BH6759067590000000288180088880000090170109202300923000000000067924    0000090001140015N8008886759C01102023                                                                                                                                                                                                                                                                                                                                                                                                                                                                                                                                                                                                 
01723270209400003DT67590675900000002881800888800000010180088824001193009900011400011010920230000000395000923000000000067924426684XXXXXX2069       VS11    0001111   NYV1 A E583009590128776N840000000003950WPMG00    05DNHAPPY HIPPIE             09984C    VS84000000003950 N  549976487134                            000000000+                C CC 12112                     000000000  N000000000 497   0000000000000.00 0000000.00   0000000.00                             000000000000000                                                                                                                                                     01418 A000000000000 0000000000000.75     01650 01000                  
01723280209400004DT67590675900000002881800888800000010180088824001193009900011400029010920230000000197400923000000000067924410889XXXXXX3088       VS11    0001111   NYV1 A E583009606883720N840000000001974KW5700    05DNHAPPY HIPPIE             542690    VS84000000001974 N  549976487134                            000000000+                B CB 12111                     000000000  N000000000 495   0000000000000.00 0000000.00   0000000.00                             000000000000000                                                                                                                                                     01418 A000000000000 0000000000000.43     01650 01000                  
01723290209400005DT67590675900000002881800888800000010180088824001193009900011400037010920230000000197400923000000000067924443264XXXXXX3780       VS11    0001111   NYV1 A E383009621443139N840000000001974FPMP00    05DNHAPPY HIPPIE             017418    VD84000000001974 N  549976487134                            000000000+                F DF 10433                     000000000  Y000000000 338   0000000000000.00 0000000.00   0000000.00                             000000000000000                                                                                                                                                     01418 A000000000000 0000000000000.23     00050 02200                  
01723300209400006DT67590675900000002881800888800000010180088824001193009900011400045010920230000000724100923000000000067924422496XXXXXX1712       VS11    0001111   NYV1 A E383009662630495N8400000000072415QFM00    05DNHAPPY HIPPIE             749422    VD84000000007241 N  549976487134                            000000000+                F DF 00381                     000000000  N000000000       0000000000000.00 0000000.00   0000000.00                             000000000000000                                                                                                                                                     01418 A000000000000 0000000000000.73     00800 01500                  
01723310209400007DT67590675900000002881800888800000010180088824001193009900011400052010920230000000158000923000000000067924422921XXXXXX6466       VS11    0001111   NYV1 A E463009672823352N8400000000015803SNR00    05DNHAPPY HIPPIE             049283    VD84000000001580 N  549976487134                            000000000+                F DF 00381                     000000000  N000000000       0000000000000.00 0000000.00   0000000.00                             000000000000000                                                                                                                                                     01418 A000000000000 0000000000000.28     00800 01500                  
01723320209400008DT67590675900000002881800888800000010180088824001193009900011400060010920230000001086300923000000000067924422921XXXXXX2163       VS11    0001111   NYV1 A E383009682399694N840000000010863S5P700    05DNHAPPY HIPPIE             050240    VD84000000010863 N  549976487134                            000000000+                F DF 00381                     000000000  N000000000       0000000000000.00 0000000.00   0000000.00                             000000000000000                                                                                                                                                     01418 A000000000000 0000000000001.02     00800 01500                  
01723330209400009DT67590675900000002881800888800000010180088824001193009900011400078010920230000000240800923000000000067924486895XXXXXX5713       VS11    0001111   NYV1 A E383009723496549N840000000002408RLFK00    05DNHAPPY HIPPIE             06500C    VS84000000002408 N  549976487134                            000000000+                C CC 12112                     000000000  N000000000 497   0000000000000.00 0000000.00   0000000.00                             000000000000000                                                                                                                                                     01418 A000000000000 0000000000000.50     01650 01000                  
01723340209400010DT67590675900000002881800888800000010180088877287283009900011400088010920230000000187600923000000000067924511953XXXXXX4085       MS02WI09          NY 1 0 AMDJMF02ZJ0109  N840000000001876          05DNHAPPY HIPPIE             075948    MD84000000001876 N  549976487134                            000000000+M10101C5434C    MDJ  00402                     000000000  N                0000000000000.00 0000000.00   0000000.00                             000000000000000                                                                                                                                                   B101418  000000000000 0000000000000.35     01050 01500                  
01723350209400011DT67590675900000002881800888800000010180088877287283009900011400096010920230000000690200923000000000067924521853XXXXXX4031       MS02WI09          NY 1 0 AMCWY1DGZI0109  N840000000006902          05DNHAPPY HIPPIE             00914T    MC84000000006902 N  549976487134                            000000000+M10101C5434C    MCW  02188                     000000000  N                0000000000000.00 0000000.00   0000000.00                             000000000000000                                                                                                                                                   B101418  000000000000 0000000000001.63     02300 00400                  
01723360209400012DT67590675900000002881800888800000010180088824001193009900011400102010920230000000039400923000000000067924422921XXXXXX1179       VK04VS111111111   NYV1 A E463009760692814N8400000000003949LTW00    05DNHAPPY HIPPIE             058071    VD84000000000394 N  549976487134                            000000000+                F DF 00451                     000000000  N000000000 214   0000000000000.00 0000000.00   0000000.00                             000000000000000                                                                                                                                                     01418 F000000000000 0000000000000.10     01550 00400                  
01723370209400013DT67590675900000002881800888800000010180088824001193009900011400110010920230000001540000923000000000067924427082XXXXXX9881       VS11    0001111   NYV1 A E303009766005128N840000000015400WKJ500    05DNHAPPY HIPPIE             009624    VS84000000015400 N  549976487134                            000000000+                D CD 12113                     000000000  N000000000 499   0000000000000.00 0000000.00   0000000.00                             000000000000000                                                                                                                                                     01418 A000000000000 0000000000003.33     02100 01000                  
01723380209400014DT67590675900000002881800888800000010180088824001193009900011400128010920230000000691200923000000000067924480639XXXXXX9303       VS11    0001111   NYV1 A E583009794137393N840000000006912JDZF00    05DNHAPPY HIPPIE             345653    VD84000000006912 N  549976487134                            000000000+                F DF 00381                     000000000  N000000000       0000000000000.00 0000000.00   0000000.00                             000000000000000                                                                                                                                                     01418 A000000000000 0000000000000.70     00800 01500                  
01723390209400015DT67590675900000002881800888800000010180088824001193009900011400136010920230000000296200923000000000067924422921XXXXXX2148       VS11    0001111   NYV1 A E303009807949705N840000000002962BDND00    05DNHAPPY HIPPIE             062795    VD84000000002962 N  549976487134                            000000000+                F DF 00381                     000000000  N000000000       0000000000000.00 0000000.00   0000000.00                             000000000000000                                                                                                                                                     01418 A000000000000 0000000000000.39     00800 01500                  
01723400209400016DT67590675900000002881800888800000010180088877287283009900011400146010920230000000230400923000000000067924511953XXXXXX5008       MS02WI09          NY 1 0 AMDJNQY6L20109  N840000000002304          05DNHAPPY HIPPIE             083808    MD84000000002304 N  549976487134                            000000000+M10101C5434C    MDJ  00402                     000000000  N                0000000000000.00 0000000.00   0000000.00                             000000000000000                                                                                                                                                   B101418  000000000000 0000000000000.39     01050 01500                  
01723410209400017DT67590675900000002881800888800000010180088824001193009900011400151010920230000000118400923000000000067924480639XXXXXX1059       VK04VS111111111   NYV1 A E463009818461207N840000000001184VLCT00    05DNHAPPY HIPPIE             346756    VD84000000001184 N  549976487134                            000000000+                F DF 00451                     000000000  N000000000 214   0000000000000.00 0000000.00   0000000.00                             000000000000000                                                                                                                                                     01418 F000000000000 0000000000000.22     01550 00400                  
01723420209400018BH6759067590000000288180088880000090170109202300923000000000043857    0000090001140009N8008886759C01102023                                                                                                                                                                                                                                                                                                                                                                                                                                                                                                                                                                                                 
01723430209400019DT67590675900000002881800888800000010180088824001193009900011400011010920230000000482900923000000000043857400898XXXXXX9444       VS11    0001111   NYV1 A E383009592282028N840000000004829Q98S00    05DNHAPPY HIPPIE             009395    VS84000000004829 N  549976487158                            000000000+                C CC 12112                     000000000  N000000000 497   0000000000000.00 0000000.00   0000000.00                             000000000000000                                                                                                                                                     01418 A000000000000 0000000000000.90     01650 01000                  
01723440209400020DT67590675900000002881800888800000010180088824001193009900011400029010920230000001646200923000000000043857415978XXXXXX9559       VS11    0001111   NYV1 A E463009659476903N840000000016462WSNS00    05DNHAPPY HIPPIE             002820    VD84000000016462 N  549976487158                            000000000+                F DF 10433                     000000000  Y000000000 338   0000000000000.00 0000000.00   0000000.00                             000000000000000                                                                                                                                                     01418 A000000000000 0000000000000.30     00050 02200                  
01723450209400021DT67590675900000002881800888800000010180088824001193009900011400037010920230000000065600923000000000043857419090XXXXXX3607       VK04VS111111111   NYV1 A E383009682575831N840000000000656TFB300    05DNHAPPY HIPPIE             610126    VD84000000000656 N  549976487158                            000000000+                F DF 00451                     000000000  N000000000 214   0000000000000.00 0000000.00   0000000.00                             000000000000000                                                                                                                                                     01418 F000000000000 0000000000000.14     01550 00400                  
01723460209400022DT67590675900000002881800888800000010180088824001193009900011400045010920230000000690000923000000000043857461608XXXXXX1580       VS11    0001111   NYV1 A E463009694707552N840000000006900NV9K00    05DNHAPPY HIPPIE             75053D    VS84000000006900 N  549976487158                            000000000+                D CD 12113                     000000000  N000000000 499   0000000000000.00 0000000.00   0000000.00                             000000000000000                                                                                                                                                     01418 A000000000000 0000000000001.55     02100 01000                  
01723470209400023DT67590675900000002881800888800000010180088824001193009900011400052010920230000000394900923000000000043857400898XXXXXX9444       VS11    0001111   NYV1 A E303009702487489N840000000003949RD6W00    05DNHAPPY HIPPIE             009913    VS84000000003949 N  549976487158                            000000000+                C CC 12112                     000000000  N000000000 497   0000000000000.00 0000000.00   0000000.00                             000000000000000                                                                                                                                                     01418 A000000000000 0000000000000.75     01650 01000                  
01723480209400024DT67590675900000002881800888800000010180088824001193009900011400060010920230000000316100923000000000043857415978XXXXXX3096       VS11    0001111   NYV1 A E303009708812378N8400000000031612MW500    05DNHAPPY HIPPIE             050351    VD84000000003161 N  549976487158                            000000000+                F DF 10433                     000000000  Y000000000 338   0000000000000.00 0000000.00   0000000.00                             000000000000000                                                                                                                                                     01418 A000000000000 0000000000000.24     00050 02200                  
01723490209400025DT67590675900000002881800888800000010180088824001193009900011400078010920230000000325800923000000000043857415976XXXXXX7965       VS11    0001111   NYV1 A E583009711419864N840000000003258TW2J00    05DNHAPPY HIPPIE             094915    VD84000000003258 N  549976487158                            000000000+                F DF 10433                     000000000  Y000000000 338   0000000000000.00 0000000.00   0000000.00                             000000000000000                                                                                                                                                     01418 A000000000000 0000000000000.24     00050 02200                  
01723500209400026DT67590675900000002881800888800000010180088824001193009900011400086010920230000000148100923000000000043857422921XXXXXX7005       VK04VS111111111   NYV1 A E463009755113712N840000000001481PXFT00    05DNHAPPY HIPPIE             057512    VD84000000001481 N  549976487158                            000000000+                F DF 00451                     000000000  N000000000 214   0000000000000.00 0000000.00   0000000.00                             000000000000000                                                                                                                                                     01418 F000000000000 0000000000000.27     01550 00400                  
01723510209400027DT67590675900000002881800888800000010180088824001193009900011400094010920230000000316100923000000000043857419090XXXXXX5725       VS11    0001111   NYV1 A E583009824468588N840000000003161DJ5W00    05DNHAPPY HIPPIE             617881    VD84000000003161 N  549976487158                            000000000+                F DF 00381                     000000000  N000000000       0000000000000.00 0000000.00   0000000.00                             000000000000000                                                                                                                                                     01418 A000000000000 0000000000000.40     00800 01500                  
01723520209400028BH6759067590000000215480088880000090170109202300923000000000341212    0000090001770084N8008886759C01102023                                                                                                                                                                                                                                                                                                                                                                                                                                                                                                                                                                                                 
01723530209400029DT67590675900000002154800888800000010180088824001193009900017788500010920230000007300000923000000000341212433993XXXXXX8577               2111111   NYV4 A7W303009626165772N840000000073000GFVH00    01DNDRIP DROP DISTRO LLC     05488G    VB84000000073000 NP1519971004114   INV-000154               000000000+                G5CG511887                     000000000  N000000000 163   0000000000000.00 0000000.00   0000000.00                             000000000000000                                                                                                                                                     01418 G000000073000 0000000000022.00     03000 01000                  
01723540209400001P16759067590000000215480088880000001010000000000000000    43867597049              2000000000000000000000000              000000000000                    0000000000000000000000000                    000000000000                                                                                                                                                                                                                                                                                                                                                                                                                                                                                        
01723550209400030DT67590675900000002154800888800000010180088824001193009900017783667010920230000021753600923000000000341212442742XXXXXX8167               2111111   NYV4 A7W463009612584151N840000000217536TLSL00    01DNDRIP DROP DISTRO LLC     080012    VD84000000217536 NP1519971004114   17223                    000000000+                G DG 10352                     000000000  Y000000000 338   0000000000000.00 0000000.00   0000000.00                             000000000000000                                                                                                                                                     01418 G000000217536 0000000000001.31     00050 02200                  
01723560209400001P16759067590000000215480088880000001010000000000000000    43867538414              2000000000000000000000000              000000000000                    0000000000000000000000000                    000000000000                                                                                                                                                                                                                                                                                                                                                                                                                                                                                        
01723570209400031DT67590675900000002154800888800000010180088824001193009900017700844010920230000005067600923000000000341212481588XXXXXX7710               2111111   NYV4 A7W583009646144446N840000000050676FJ4J00    01DNDRIP DROP DISTRO LLC     105065    VD84000000050676 NP1519971004114   17224                    000000000+                G DG 10352                     000000000  Y000000000 338   0000000000000.00 0000000.00   0000000.00                             000000000000000                                                                                                                                                     01418 G000000050676 0000000000000.47     00050 02200                  
01723580209400001P16759067590000000215480088880000001010000000000000000    43867679323              2000000000000000000000000              000000000000                    0000000000000000000000000                    000000000000                                                                                                                                                                                                                                                                                                                                                                                                                                                                                        
01723590209400032BH6759067590000000096880088880000090170109202300923000000000006000    0000090001195617N8008886759C01102023                                                                                                                                                                                                                                                                                                                                                                                                                                                                                                                                                                                                 
01723600209400033DT67590675900000000968800888800000010180088824001193009900011956178010920230000000600000923000000000006000474477XXXXXX0722               2111111   NYV4 A7W583009731225420N840000000006000MQ4X00    01DNHIGHER FLOUR LLC         101486    VD84000000006000 NP1546271004114   RRSLJTLBO9XKSDEW55PU     000000000+                F DF 10420                     000000000  Y000000000 338   0000000000000.00 0000000.00   0000000.00                             000000000000000                                                                                                                                                     01418 G000000006000 0000000000000.25     00050 02200                  
01723610209400001P16759067590000000096880088880000001010000000000000000                             2000000000000000000000000              000000000000                    0000000000000000000000000                    000000000000                                                                                                                                                                                                                                                                                                                                                                                                                                                                                        
