00003330636880002BH6759067590000000288180088880000090171228202236222000000000003999    0000090001320079Y8008886759C12292022                                                                                                                                                                                                                                                                                                                                                                                                                                                                                                                                                                                                 
00003340636880003DT67590675900000002881800888800000010180088824001192362900013200792122820220000000399936222000000000003999406042XXXXXX4097               2111111   NYV4 A7W582362781263479N840000000003999X56D00    01DNHAPPY HIPPIE             064216    VD84000000003999 NP1549976044904   1897                     000000000+                F DF 10420                     000000000  Y000000000 338   0000000000000.00 0000000.00   0000000.00                             000000000000000                                                                                                                                                     01424 G000000003999 0000000000000.24     00050 02200                  
00003350636880001P16759067590000000288180088880000001010000000000000000                             2000000000000000000000000              000000000000                    0000000000000000000000000                    000000000000                                                                                                                                                                                                                                                                                                                                                                                                                                                                                        
