02225130347590002BH6759067590000001165080088880000090170215202304623000000000031676    0000090001040008N8008886759C02162023                                                                                                                                                                                                                                                                                                                                                                                                                                                                                                                                                                                                 
02225140347590003DT67590675900000011650800888800000010180088824001193046900010400017021420230000000056604623000000000031676406068XXXXXX3286       VK04VS111111111   NYV1 A E303045716618881N840000000000566MHB900    07DNVPODS HOLDING INC        015414    VD84000000000566 N  599977032122                            000000000+                F DF 10439                     000000000  Y000000000 331   0000000000000.00 0000000.00   0000000.00                             000000000000000                                                                                                                                                     01418 F000000000000 0000000000000.22     00050 02200                  
02225150347590004DT67590675900000011650800888800000010180088824001193046900010400025021420230000000385804623000000000031676414720XXXXXX7763       VS11    0001111   NYV1 A E463045729710710N84000000000385832LK00    07DNVPODS HOLDING INC        08360D    VS84000000003858 N  599977032122                            000000000+                D CD 12113                     000000000  N000000000 499   0000000000000.00 0000000.00   0000000.00                             000000000000000                                                                                                                                                     01418 A000000000000 0000000000000.91     02100 01000                  
02225160347590005DT67590675900000011650800888800000010180088824001193046900010400033021420230000000261104623000000000031676411398XXXXXX7817       VS11    0001111   NYV1 A E383045773082183N840000000002611J6WS00    07DNVPODS HOLDING INC        00558D    VS84000000002611 N  599977032122                            000000000+                D CD 12113                     000000000  N000000000 499   0000000000000.00 0000000.00   0000000.00                             000000000000000                                                                                                                                                     01418 A000000000000 0000000000000.65     02100 01000                  
02225170347590006DT67590675900000011650800888800000010180088877287283046900010400043021420230000000454104623000000000031676523680XXXXXX1223       MS02WI09          NY 1 0 AMPGG3AB0S0214  N840000000004541          05DNVPODS HOLDING INC        151442    MD84000000004541 N  599977032122                            000000000+M10101C5434C    MPG  11964                     000000000  N                0000000000000.00 0000000.00   0000000.00                             000000000000000                                                                                                                                                   B101418  000000000000 0000000000000.67     01150 01500                  
02225180347590007DT67590675900000011650800888800000010180088873011003046900010400054021420230000000477304623000000000031676374645XXXXX1007                          NY 1 0 N007074211149065N840000000004773          07DNVPODS HOLDINGS INC       823228    AM84000000004773 N  599977032122                            000000000+51010X50034C 258     11261                     000000000                   0000000000000.00 0000000.00   0000000.00                             000000000000000 61248972086759675900000011650 VPODS HOLDINGS INC       2527 N LINCOLN AVE       7732092463      60614     SMOKEDREAMS2@ICLOUD.COM                   01418  000000000000 0000000000000.86     01600 00000                  
02225190347590008DT67590675900000011650800888800000010180088877287283046900010400068021420230000000624504623000000000031676522914XXXXXX3384       MS02WI09          NY 2 0 AMDJIG4R0S0214  N840000000006245          07DNVPODS HOLDING INC        080919    MD84000000006245 N  599977032122                            000000000+M10101M1334C    MDJ  10815                     000000000  1                0000000000000.00 0000000.00   0000000.00                             000000000000000                                                                                                                                                   B101418  000000000000 0000000000000.25     00050 02200                  
02225200347590009DT67590675900000011650800888800000010180088824001193046900010400074021420230000000283804623000000000031676412507XXXXXX0195       VS11    0001111   NYV1 A E383046122226933N840000000002838BWBP00    07DNVPODS HOLDING INC        362040    VD84000000002838 N  599977032122                            000000000+                F DF 00381                     000000000  N000000000       0000000000000.00 0000000.00   0000000.00                             000000000000000                                                                                                                                                     01418 A000000000000 0000000000000.38     00800 01500                  
02225210347590010DT67590675900000011650800888800000010180088824001193046900010400082021420230000000624404623000000000031676440066XXXXXX7193       VS11    0001111   NYV1 A E383046148271975N8400000000062449C5V00    05DNVPODS HOLDING INC        08288D    VS84000000006244 N  599977032122                            000000000+                D CD 12113                     000000000  N000000000 499   0000000000000.00 0000000.00   0000000.00                             000000000000000                                                                                                                                                     01418 A000000000000 0000000000001.41     02100 01000                  
02225220347590011BH6759067590000000215480088880000090170215202304623000000000479692    0000090001091099N8008886759C02162023                                                                                                                                                                                                                                                                                                                                                                                                                                                                                                                                                                                                 
02225230347590012DT67590675900000002154800888800000010180088887287283046900010959799021520230000014965004623000000000479692518941XXXXXX5089       ME03KE06MS02      NY 4607AMWEK0KUQI0215  N840000000149650          81DNDRIP DROP DISTRO LLC     69872Z    MC84000000149650 N  519900000001   INV-000632               000000000+600450S00140    MWE  00737                     000000000  N                0000000000000.00 0000000.00   0000000.00                             000000000000000                                                                                                                                                   U001418  000000000000 0000000000039.01     02600 01000                  
02225240347590013DT67590675900000002154800888800000010180088824001193046900010988482021520230000003560004623000000000479692486872XXXXXX0806               2111111   NYV4 A7W463045855824190N8400000000356007KTS00    01DNDRIP DROP DISTRO LLC     014205    VD84000000035600 NP1519971004114   INV-000728               000000000+                G DG 10352                     000000000  Y000000000 338   0000000000000.00 0000000.00   0000000.00                             000000000000000                                                                                                                                                     01418 G000000035600 0000000000000.40     00050 02200                  
02225250347590001P16759067590000000215480088880000001010000000000000000    43940843951              2000000000000000000000000              000000000000                    0000000000000000000000000                    000000000000                                                                                                                                                                                                                                                                                                                                                                                                                                                                                        
02225260347590014DT67590675900000002154800888800000010180088824001193046900010927928021520230000004326004623000000000479692444395XXXXXX6374               2111111   NYV4 A7W303046117754326N840000000043260P5V900    01DNDRIP DROP DISTRO LLC     01698G    VB84000000043260 NP1519971004114   17438                    000000000+                G5CG511887                     000000000  N000000000 163   0000000000000.00 0000000.00   0000000.00                             000000000000000                                                                                                                                                     01418 G000000043260 0000000000013.08     03000 01000                  
02225270347590001P16759067590000000215480088880000001010000000000000000    43941087369              2000000000000000000000000              000000000000                    0000000000000000000000000                    000000000000                                                                                                                                                                                                                                                                                                                                                                                                                                                                                        
02225280347590015DT67590675900000002154800888800000010180088824001193046900010908597021520230000003361504623000000000479692415417XXXXXX1617               2111111   NYV4 A7W303046684479301N8400000000336158C7L00    01DNDRIP DROP DISTRO LLC     01420G    VB84000000033615 NP1519971004114   INV-000745               000000000+                G5CG511887                     000000000  N000000000 163   0000000000000.00 0000000.00   0000000.00                             000000000000000                                                                                                                                                     01418 G000000033615 0000000000010.18     03000 01000                  
02225290347590001P16759067590000000215480088880000001010000000000000000    43942559327              2000000000000000000000000              000000000000                    0000000000000000000000000                    000000000000                                                                                                                                                                                                                                                                                                                                                                                                                                                                                        
02225300347590016DT67590675900000002154800888800000010180088824001193046900010910999021520230000021756704623000000000479692414720XXXXXX9104               2111111   NYV4 A7W383046684568362N840000000217567TC7Q00    01DNDRIP DROP DISTRO LLC     01705D    VS84000000217567 NP1519971004114   17439                    000000000+                D CD 12109                     000000000  N000000000 498   0000000000000.00 0000000.00   0000000.00                             000000000000000                                                                                                                                                     01418 G000000217567 0000000000054.49     02500 01000                  
02225310347590001P16759067590000000215480088880000001010000000000000000                             2000000000000000000000000              000000000000                    0000000000000000000000000                    000000000000                                                                                                                                                                                                                                                                                                                                                                                                                                                                                        
02225320347590017BH6759067590000000288180088880000090170215202304623000000000117346    0000090001460018N8008886759C02162023                                                                                                                                                                                                                                                                                                                                                                                                                                                                                                                                                                                                 
02225330347590018DT67590675900000002881800888800000010180088824001193046900014600018021520230000000499904623000000000117346407221XXXXXX4613               1001111   NYV1 A K463046558481954N840000000004999LJTM00    01DNHAPPY HIPPIE             015733    VS84000000004999 N  549976487158                            000000000+                D CD 12109                     000000000  N000000000 498   0000000000000.00 0000000.00   0000000.00                             000000000000000                                                                                                                                                     01418 E000000000000 0000000000001.35     02500 01000                  
02225340347590019DT67590675900000002881800888800000010180088824001193046900014600026021520230000000158004623000000000117346415978XXXXXX3096       VS11    0001111   NYV1 A E463046564854855N840000000001580HRVZ00    07DNHAPPY HIPPIE             012034    VD84000000001580 N  549976487158                            000000000+                F DF 10433                     000000000  Y000000000 338   0000000000000.00 0000000.00   0000000.00                             000000000000000                                                                                                                                                     01418 A000000000000 0000000000000.23     00050 02200                  
02225350347590020DT67590675900000002881800888800000010180088824001193046900014600034021520230000001399804623000000000117346473702XXXXXX5154       PS01    0000000   NYV1 J N383046567111995N8400000000139987LNN00    01DNHAPPY HIPPIE             060723    VD84000000013998 N  549976487158                            000000000+                F DF 10425                     000000000  Y000000010 338   0000000000000.00 0000000.00   0000000.00                             000000000000000                                                                                                                                                     01418  000000000000 0000000000000.29     00050 02200                  
02225360347590021DT67590675900000002881800888800000010180088824001193046900014600042021520230000000548504623000000000117346445101XXXXXX1002       VS11    0001111   NYV1 A E463046584166734N840000000005485FNTH00    05DNHAPPY HIPPIE             350120    VD84000000005485 N  549976487158                            000000000+                F DF 10433                     000000000  Y000000000 338   0000000000000.00 0000000.00   0000000.00                             000000000000000                                                                                                                                                     01418 A000000000000 0000000000000.25     00050 02200                  
02225370347590022DT67590675900000002881800888800000010180088824001193046900014600059021520230000000691304623000000000117346449507XXXXXX4441       VS11    0001111   NYV1 A E383046616795595N840000000006913ZGCG00    05DNHAPPY HIPPIE             020759    VD84000000006913 N  549976487158                            000000000+                F DF 00381                     000000000  N000000000       0000000000000.00 0000000.00   0000000.00                             000000000000000                                                                                                                                                     01418 A000000000000 0000000000000.70     00800 01500                  
02225380347590023DT67590675900000002881800888800000010180088873011003046900014600063021520230000000329304623000000000117346371307XXXXX1006                          NY 1 0 N007083075024066N840000000003293          05DNHAPPY HIPPIE             815266    AM84000000003293 N  549976487158                            000000000+51010155434C 258     11261                     000000000                   0000000000000.00 0000000.00   0000000.00                             000000000000000 61248972086759675900000002881 HAPPY HIPPIE             832 PARKWAY              8656540830      37862     HAPPYHIPPIE832@GMAIL.COM                  01418  000000000000 0000000000000.63     01600 00000                  
02225390347590024DT67590675900000002881800888800000010180088824001193046900014600075021520230000000158004623000000000117346419090XXXXXX4663       VS11    0001111   NYV1 A E383046630426347N840000000001580BHQT00    05DNHAPPY HIPPIE             602000    VD84000000001580 N  549976487158                            000000000+                F DF 00381                     000000000  N000000000       0000000000000.00 0000000.00   0000000.00                             000000000000000                                                                                                                                                     01418 A000000000000 0000000000000.28     00800 01500                  
02225400347590025DT67590675900000002881800888800000010180088824001193046900014600083021520230000000316104623000000000117346422921XXXXXX5630       VS11    0001111   NYV1 A E463046653636597N840000000003161B3J700    05DNHAPPY HIPPIE             047364    VD84000000003161 N  549976487158                            000000000+                F DF 00381                     000000000  N000000000       0000000000000.00 0000000.00   0000000.00                             000000000000000                                                                                                                                                     01418 A000000000000 0000000000000.40     00800 01500                  
02225410347590026DT67590675900000002881800888800000010180088824001193046900014600091021520230000000726204623000000000117346473703XXXXXX0043       VS11    0001111   NYV1 A E583046664722556N8400000000072625ZLT00    05DNHAPPY HIPPIE             057979    VD84000000007262 N  549976487158                            000000000+                F DF 10433                     000000000  Y000000000 338   0000000000000.00 0000000.00   0000000.00                             000000000000000                                                                                                                                                     01418 A000000000000 0000000000000.26     00050 02200                  
02225420347590027DT67590675900000002881800888800000010180088824001193046900014600109021520230000000316104623000000000117346422921XXXXXX5630       VS11    0001111   NYV1 A E583046675492214N840000000003161CNNK00    05DNHAPPY HIPPIE             049551    VD84000000003161 N  549976487158                            000000000+                F DF 00381                     000000000  N000000000       0000000000000.00 0000000.00   0000000.00                             000000000000000                                                                                                                                                     01418 A000000000000 0000000000000.40     00800 01500                  
02225430347590028DT67590675900000002881800888800000010180088824001193046900014600117021520230000000345604623000000000117346422919XXXXXX3582       VS11    0001111   NYV1 A E303046677298905N8400000000034567VWN00    05DNHAPPY HIPPIE             024849    VD84000000003456 N  549976487158                            000000000+                F DF 00381                     000000000  N000000000       0000000000000.00 0000000.00   0000000.00                             000000000000000                                                                                                                                                     01418 A000000000000 0000000000000.43     00800 01500                  
02225440347590029DT67590675900000002881800888800000010180088824001193046900014600125021520230000000592504623000000000117346419090XXXXXX6124       VS11    0001111   NYV1 A E463046677861661N840000000005925WL5700    05DNHAPPY HIPPIE             604585    VD84000000005925 N  549976487158                            000000000+                F DF 00381                     000000000  N000000000       0000000000000.00 0000000.00   0000000.00                             000000000000000                                                                                                                                                     01418 A000000000000 0000000000000.62     00800 01500                  
02225450347590030DT67590675900000002881800888800000010180088824001193046900014600133021520230000001646204623000000000117346480639XXXXXX7661       VS11    0001111   NYV1 A E303046689076464N840000000016462VSPL00    05DNHAPPY HIPPIE             188874    VD84000000016462 N  549976487158                            000000000+                F DF 00381                     000000000  N000000000       0000000000000.00 0000000.00   0000000.00                             000000000000000                                                                                                                                                     01418 A000000000000 0000000000001.47     00800 01500                  
02225460347590031DT67590675900000002881800888800000010180088824001193046900014600141021520230000000296204623000000000117346419090XXXXXX2597       VS11    0001111   NYV1 A E303046695634611N840000000002962DQD300    05DNHAPPY HIPPIE             605521    VD84000000002962 N  549976487158                            000000000+                F DF 00381                     000000000  N000000000       0000000000000.00 0000000.00   0000000.00                             000000000000000                                                                                                                                                     01418 A000000000000 0000000000000.39     00800 01500                  
02225470347590032DT67590675900000002881800888800000010180088824001193046900014600158021520230000002696104623000000000117346426684XXXXXX6627       VS11    0001111   NYV1 A E583046699034485N840000000026961C9K500    05DNHAPPY HIPPIE             05107A    VS84000000026961 N  549976487158                            000000000+                A CA 12110                     000000000  N000000000 493   0000000000000.00 0000000.00   0000000.00                             000000000000000                                                                                                                                                     01418 A000000000000 0000000000004.17     01510 01000                  
02225480347590033DT67590675900000002881800888800000010180088877287283046900014600168021520230000000493804623000000000117346515676XXXXXX9094       ME03MS02WI09      NY 1 0 AMWENAYJG40215  N840000000004938          01DNHAPPY HIPPIE             00583Z    MC84000000004938 N  549976487158                            000000000+M1010115434C    MWE  00738                     000000000  N                0000000000000.00 0000000.00   0000000.00                             000000000000000                                                                                                                                                   E101418  000000000000 0000000000001.38     02600 01000                  
02225490347590034DT67590675900000002881800888800000010180088824001193046900014600174021520230000000483904623000000000117346419090XXXXXX6367       VS11    0001111   NYV1 A E303046729675870N840000000004839PQJ600    05DNHAPPY HIPPIE             607244    VD84000000004839 N  549976487158                            000000000+                F DF 00381                     000000000  N000000000       0000000000000.00 0000000.00   0000000.00                             000000000000000                                                                                                                                                     01418 A000000000000 0000000000000.54     00800 01500                  
02225500347590035DT67590675900000002881800888800000010180088824001193046900014600182021520230000000037104623000000000117346498503XXXXXX0161       VK04VS111111111   NYV1 A E583046816939750N840000000000371QQBK00    05DNHAPPY HIPPIE             080408    VD84000000000371 N  549976487158                            000000000+                F DF 00451                     000000000  N000000000 214   0000000000000.00 0000000.00   0000000.00                             000000000000000                                                                                                                                                     01418 F000000000000 0000000000000.10     01550 00400                  
02225510347590036BH6759067590000000288180088880000090170215202304623000000000073133    0000090001450018N8008886759C02162023                                                                                                                                                                                                                                                                                                                                                                                                                                                                                                                                                                                                 
02225520347590037DT67590675900000002881800888800000010180088877287283046900014500012021520230000000236804623000000000073133510805XXXXXX2453       MS02WI09          NY 1 0 AMDJKVYVQI0215  N840000000002368          07DNHAPPY HIPPIE             001536    MD84000000002368 N  549976487134                            000000000+M10101M0034C    MDJ  10815                     000000000  1                0000000000000.00 0000000.00   0000000.00                             000000000000000                                                                                                                                                   B101418  000000000000 0000000000000.23     00050 02200                  
02225530347590038DT67590675900000002881800888800000010180088824001193046900014500028021520230000000690004623000000000073133474487XXXXXX1417       VS11    0001111   NYV1 A E383046597193117N8400000000069009JFM00    07DNHAPPY HIPPIE             113657    VD84000000006900 N  549976487134                            000000000+                F DF 10433                     000000000  Y000000000 338   0000000000000.00 0000000.00   0000000.00                             000000000000000                                                                                                                                                     01418 A000000000000 0000000000000.25     00050 02200                  
02225540347590039DT67590675900000002881800888800000010180088824001193046900014500036021520230000000438904623000000000073133406095XXXXXX8931       VS11    0001111   NYV1 A E583046602338792N840000000004389DQPQ00    05DNHAPPY HIPPIE             00606D    VS84000000004389 N  549976487134                            000000000+                D CD 12113                     000000000  N000000000 499   0000000000000.00 0000000.00   0000000.00                             000000000000000                                                                                                                                                     01418 A000000000000 0000000000001.02     02100 01000                  
02225550347590040DT67590675900000002881800888800000010180088824001193046900014500044021520230000000068604623000000000073133480639XXXXXX3236       VK04VS111111111   NYV1 A E583046623804674N840000000000686T82K00    05DNHAPPY HIPPIE             185631    VD84000000000686 N  549976487134                            000000000+                F DF 00451                     000000000  N000000000 214   0000000000000.00 0000000.00   0000000.00                             000000000000000                                                                                                                                                     01418 F000000000000 0000000000000.15     01550 00400                  
02225560347590041DT67590675900000002881800888800000010180088877287283046900014500053021520230000000276604623000000000073133511953XXXXXX9431       MS02WI09          NY 1 0 AMDJK0JND10215  N840000000002766          05DNHAPPY HIPPIE             001772    MD84000000002766 N  549976487134                            000000000+M10101C5434C    MDJ  00402                     000000000  N                0000000000000.00 0000000.00   0000000.00                             000000000000000                                                                                                                                                   B101418  000000000000 0000000000000.44     01050 01500                  
02225570347590042DT67590675900000002881800888800000010180088824001193046900014500069021520230000000276604623000000000073133443238XXXXXX7317       VS11    0001111   NYV1 A E463046659308742N840000000002766HD4W00    05DNHAPPY HIPPIE             031850    VD84000000002766 N  549976487134                            000000000+                F DF 00381                     000000000  N000000000       0000000000000.00 0000000.00   0000000.00                             000000000000000                                                                                                                                                     01418 A000000000000 0000000000000.37     00800 01500                  
02225580347590043DT67590675900000002881800888800000010180088824001193046900014500077021520230000000296204623000000000073133480639XXXXXX1158       VS11    0001111   NYV1 A E463046696543962N8400000000029628DFF00    05DNHAPPY HIPPIE             189197    VD84000000002962 N  549976487134                            000000000+                F DF 00381                     000000000  N000000000       0000000000000.00 0000000.00   0000000.00                             000000000000000                                                                                                                                                     01418 A000000000000 0000000000000.39     00800 01500                  
02225590347590044DT67590675900000002881800888800000010180088877287283046900014500087021520230000000548804623000000000073133542432XXXXXX6544       MS02WI09          NY 2 0 AMDJDQE4G40215  N840000000005488          05DNHAPPY HIPPIE             234384    MD84000000005488 N  549976487134                            000000000+M10101C1334C    MDJ  10815                     000000000  1                0000000000000.00 0000000.00   0000000.00                             000000000000000                                                                                                                                                   B101418  000000000000 0000000000000.25     00050 02200                  
02225600347590045DT67590675900000002881800888800000010180088824001193046900014500093021520230000000778004623000000000073133480639XXXXXX2921       VS11    0001111   NYV1 A E303046718279186N840000000007780BJ2400    05DNHAPPY HIPPIE             190134    VD84000000007780 N  549976487134                            000000000+                F DF 00381                     000000000  N000000000       0000000000000.00 0000000.00   0000000.00                             000000000000000                                                                                                                                                     01418 A000000000000 0000000000000.77     00800 01500                  
02225610347590046DT67590675900000002881800888800000010180088877287283046900014500103021520230000000192204623000000000073133518941XXXXXX4253       MS02WI09          NY 1 0 AMWEFVT3G40215  N840000000001922          05DNHAPPY HIPPIE             87230Z    MC84000000001922 N  549976487134                            000000000+M10101C5434C    MWE  00743                     000000000  N                0000000000000.00 0000000.00   0000000.00                             000000000000000                                                                                                                                                   B101418  000000000000 0000000000000.48     02300 00400                  
02225620347590047DT67590675900000002881800888800000010180088876509753046900014500117021520230000000395004623000000000073133601100XXXXXX9132   BA50                  NY41 0 N863039469959090N840000000003950    00    05DNHAPPY HIPPIE             01555R    DS84000000003950 N  549976487134050                         000000000+0000004910H00   DCCDI01000000185  142315000000 000000000  0          112   0000000000000.00 0000000.00   0000000.00                             000000000000000                                                                                                                                                     01418  000000000000 0000000000000.78     01720 01000                  
02225630347590048DT67590675900000002881800888800000010180088824001193046900014500127021520230000000492404623000000000073133443238XXXXXX6669       VS11    0001111   NYV1 A E583046788390060N840000000004924Z8WL00    05DNHAPPY HIPPIE             065359    VD84000000004924 N  549976487134                            000000000+                F DF 00381                     000000000  N000000000       0000000000000.00 0000000.00   0000000.00                             000000000000000                                                                                                                                                     01418 A000000000000 0000000000000.54     00800 01500                  
02225640347590049DT67590675900000002881800888800000010180088824001193046900014500135021520230000000568304623000000000073133415978XXXXXX3096       VS11    0001111   NYV1 A E383046801653026N840000000005683XWGN00    05DNHAPPY HIPPIE             069164    VD84000000005683 N  549976487134                            000000000+                F DF 10433                     000000000  Y000000000 338   0000000000000.00 0000000.00   0000000.00                             000000000000000                                                                                                                                                     01418 A000000000000 0000000000000.25     00050 02200                  
02225650347590050DT67590675900000002881800888800000010180088824001193046900014500143021520230000000197404623000000000073133480639XXXXXX0747       VS11    0001111   NYV1 A E463046802539380N8400000000019749QQR00    05DNHAPPY HIPPIE             194129    VD84000000001974 N  549976487134                            000000000+                F DF 00381                     000000000  N000000000       0000000000000.00 0000000.00   0000000.00                             000000000000000                                                                                                                                                     01418 A000000000000 0000000000000.31     00800 01500                  
02225660347590051DT67590675900000002881800888800000010180088824001193046900014500150021520230000000548804623000000000073133498503XXXXXX9797       VS11    0001111   NYV1 A E463046808182487N840000000005488V62Q00    05DNHAPPY HIPPIE             058751    VD84000000005488 N  549976487134                            000000000+                F DF 00381                     000000000  N000000000       0000000000000.00 0000000.00   0000000.00                             000000000000000                                                                                                                                                     01418 A000000000000 0000000000000.59     00800 01500                  
02225670347590052DT67590675900000002881800888800000010180088877287283046900014500160021520230000000790004623000000000073133511953XXXXXX9006       MS02WI09          NY 1 0 AMDJH3LAG40215  N840000000007900          05DNHAPPY HIPPIE             011515    MD84000000007900 N  549976487134                            000000000+M10101C5434C    MDJ  00402                     000000000  N                0000000000000.00 0000000.00   0000000.00                             000000000000000                                                                                                                                                   B101418  000000000000 0000000000000.98     01050 01500                  
02225680347590053DT67590675900000002881800888800000010180088824001193046900014500176021520230000000493804623000000000073133422921XXXXXX4649       VS11    0001111   NYV1 A E583046819555511N840000000004938J74N00    07DNHAPPY HIPPIE             063957    VD84000000004938 N  549976487134                            000000000+                F DF 00381                     000000000  N000000000       0000000000000.00 0000000.00   0000000.00                             000000000000000                                                                                                                                                     01418 A000000000000 0000000000000.55     00800 01500                  
02225690347590054DT67590675900000002881800888800000010180088824001193046900014500184021520230000000024904623000000000073133491523XXXXXX7823       VK04VS111111111   NYV1 A E383046821282288N8400000000002493J5C00    07DNHAPPY HIPPIE             008529    VD84000000000249 N  549976487134                            000000000+                F DF 10439                     000000000  Y000000000 331   0000000000000.00 0000000.00   0000000.00                             000000000000000                                                                                                                                                     01418 F000000000000 0000000000000.22     00050 02200                  
02225700347590055BH6759067590000000096880088880000090170215202304623000000000002140    0000090001425486N8008886759C02162023                                                                                                                                                                                                                                                                                                                                                                                                                                                                                                                                                                                                 
02225710347590056DT67590675900000000968800888800000010180088824001193046900014254865021520230000000214004623000000000002140414709XXXXXX5773               2111111   NYV4 A7W383046014568301N8400000000021402D5400    01DNHIGHER FLOUR LLC         02491I    VS84000000002140 NP1546271004114   RLS2RADLXUEIZBBHRQR3     000000000+                I CI 12109                     000000000  N000000000 498   0000000000000.00 0000000.00   0000000.00                             000000000000000                                                                                                                                                     01418 G000000002140 0000000000000.64     02500 01000                  
02225720347590001P16759067590000000096880088880000001010000000000000000                             2000000000000000000000000              000000000000                    0000000000000000000000000                    000000000000                                                                                                                                                                                                                                                                                                                                                                                                                                                                                        
02225730347590057BH6759067590000001107280088880000090170215202304623000000000036326    0000090001060008N8008886759C02162023                                                                                                                                                                                                                                                                                                                                                                                                                                                                                                                                                                                                 
02225740347590058DT67590675900000011072800888800000010180088824001193046900010600012021520230000000564604623000000000036326413233XXXXXX7094       VS11    0001111   NYV1 A E383046615089668N840000000005646MRRL00    07DNPLANET VAPOR #900        831046    VD84000000005646 N  599976923588                            000000000+                F DF 10433                     000000000  Y000000000 338   0000000000000.00 0000000.00   0000000.00                             000000000000000                                                                                                                                                     01418 A000000000000 0000000000000.25     00050 02200                  
02225750347590059DT67590675900000011072800888800000010180088824001193046900010600020021520230000000160404623000000000036326413233XXXXXX7094       VS11    0001111   NYV1 A E463046619242948N8400000000016047PKP00    07DNPLANET VAPOR #900        498199    VD84000000001604 N  599976923588                            000000000+                F DF 10433                     000000000  Y000000000 338   0000000000000.00 0000000.00   0000000.00                             000000000000000                                                                                                                                                     01418 A000000000000 0000000000000.23     00050 02200                  
02225760347590060DT67590675900000011072800888800000010180088824001193046900010600038021520230000000385004623000000000036326430602XXXXXX3067       VS11    0001111   NYV1 A E303046744237337N840000000003850DHQK00    07DNPLANET VAPOR #900        478406    VD84000000003850 N  599976923588                            000000000+                F DF 00381                     000000000  N000000000       0000000000000.00 0000000.00   0000000.00                             000000000000000                                                                                                                                                     01418 A000000000000 0000000000000.46     00800 01500                  
02225770347590061DT67590675900000011072800888800000010180088824001193046900010600046021520230000000106904623000000000036326490624XXXXXX7004       VK04VS111111111   NYV1 A E303046747849999N840000000001069MZH900    07DNPLANET VAPOR #900        013447    VD84000000001069 N  599976923588                            000000000+                F DF 10439                     000000000  Y000000000 331   0000000000000.00 0000000.00   0000000.00                             000000000000000                                                                                                                                                     01418 F000000000000 0000000000000.23     00050 02200                  
02225780347590062DT67590675900000011072800888800000010180088824001193046900010600053021520230000000760004623000000000036326430602XXXXXX0222       VS11    0001111   NYV1 A E383046788314760N840000000007600LHBH00    05DNPLANET VAPOR #900        490338    VD84000000007600 N  599976923588                            000000000+                F DF 00381                     000000000  N000000000       0000000000000.00 0000000.00   0000000.00                             000000000000000                                                                                                                                                     01418 A000000000000 0000000000000.76     00800 01500                  
02225790347590063DT67590675900000011072800888800000010180088824001193046900010600061021520230000000941204623000000000036326461675XXXXXX0446       VS11    0001111   NYV1 A E303046796752410N840000000009412LJM300    05DNPLANET VAPOR #900        281790    VD84000000009412 N  599976923588                            000000000+                F DF 00381                     000000000  N000000000       0000000000000.00 0000000.00   0000000.00                             000000000000000                                                                                                                                                     01418 A000000000000 0000000000000.90     00800 01500                  
02225800347590064DT67590675900000011072800888800000010180088877287283046900010600071021520230000000211804623000000000036326510805XXXXXX2968       MS02WI09          NY 1 0 AMDJY0FVG30215  N840000000002118          05DNPLANET VAPOR #900        062515    MD84000000002118 N  599976923588                            000000000+M10101C5434C    MDJ  10815                     000000000  1                0000000000000.00 0000000.00   0000000.00                             000000000000000                                                                                                                                                   B101418  000000000000 0000000000000.23     00050 02200                  
02225810347590065DT67590675900000011072800888800000010180088824001193046900010600087021520230000000502704623000000000036326423223XXXXXX3079       VS11    0001111   NYV1 A E583046825298061N840000000005027DHT400    05DNPLANET VAPOR #900        034650    VD84000000005027 N  599976923588                            000000000+                F DF 00381                     000000000  N000000000       0000000000000.00 0000000.00   0000000.00                             000000000000000                                                                                                                                                     01418 A000000000000 0000000000000.55     00800 01500                  
02225820347590066BH6759067590000001094280088880000090170215202304623000000000095292    0000090001070023N8008886759C02162023                                                                                                                                                                                                                                                                                                                                                                                                                                                                                                                                                                                                 
02225830347590067DT67590675900000010942800888800000010180088877287283046900010700012021520230000000620304623000000000095292536314XXXXXX8906       MS02WI09          NY 1 0 AMCWGTD1D10215  N840000000006203          05DNPLANET VAPOR #800        24511Z    MC84000000006203 N  599976923545                            000000000+M10101C5434C    MCW  00644                     000000000  N                0000000000000.00 0000000.00   0000000.00                             000000000000000                                                                                                                                                   B101418  000000000000 0000000000001.28     01900 01000                  
02225840347590068DT67590675900000010942800888800000010180088824001193046900010700028021520230000000267404623000000000095292474474XXXXXX4075       VS11    0001111   NYV1 A E583046585725042N840000000002674G8J500    07DNPLANET VAPOR #800        111967    VD84000000002674 N  599976923545                            000000000+                F DF 10433                     000000000  Y000000000 338   0000000000000.00 0000000.00   0000000.00                             000000000000000                                                                                                                                                     01418 A000000000000 0000000000000.23     00050 02200                  
02225850347590069DT67590675900000010942800888800000010180088824001193046900010700036021520230000000394604623000000000095292410039XXXXXX8060       VS11    0001111   NYV1 A E583046592525320N840000000003946H56L00    05DNPLANET VAPOR #800        36004C    VS84000000003946 N  599976923545                            000000000+                C CC 12112                     000000000  N000000000 497   0000000000000.00 0000000.00   0000000.00                             000000000000000                                                                                                                                                     01418 A000000000000 0000000000000.75     01650 01000                  
02225860347590070DT67590675900000010942800888800000010180088824001193046900010700044021520230000000887604623000000000095292427199XXXXXX4253       VS11    0001111   NYV1 A E583046604896331N840000000008876427800    05DNPLANET VAPOR #800        087994    VD84000000008876 N  599976923545                            000000000+                F DF 00381                     000000000  N000000000       0000000000000.00 0000000.00   0000000.00                             000000000000000                                                                                                                                                     01418 A000000000000 0000000000000.86     00800 01500                  
02225870347590071DT67590675900000010942800888800000010180088877287283046900010700053021520230000000577804623000000000095292514377XXXXXX5942       MS02WI09          NY 1 0 AMDJL2VBQI0215  N840000000005778          05DNPLANET VAPOR #800        1PEMRK    MD84000000005778 N  599976923545                            000000000+M10101C5434C    MDJ  00402                     000000000  N                0000000000000.00 0000000.00   0000000.00                             000000000000000                                                                                                                                                   B101418  000000000000 0000000000000.76     01050 01500                  
02225880347590072DT67590675900000010942800888800000010180088877287283046900010700061021520230000000235304623000000000095292552486XXXXXX3504       MS02WI09          NY 1 0 AMWEREDZD10215  N840000000002353          05DNPLANET VAPOR #800        05688Z    MC84000000002353 N  599976923545                            000000000+M10101C5434C    MWE  00739                     000000000  N                0000000000000.00 0000000.00   0000000.00                             000000000000000                                                                                                                                                   B101418  000000000000 0000000000000.64     02300 01000                  
02225890347590073DT67590675900000010942800888800000010180088824001193046900010700077021520230000000374404623000000000095292423223XXXXXX5625       VS11    0001111   NYV1 A E303046629730781N8400000000037445HHJ00    07DNPLANET VAPOR #800        001335    VD84000000003744 N  599976923545                            000000000+                F DF 00381                     000000000  N000000000       0000000000000.00 0000000.00   0000000.00                             000000000000000                                                                                                                                                     01418 A000000000000 0000000000000.45     00800 01500                  
02225900347590074DT67590675900000010942800888800000010180088824001193046900010700085021520230000000235304623000000000095292461675XXXXXX1123       VS11    0001111   NYV1 A E303046648685010N840000000002353XSBS00    05DNPLANET VAPOR #800        120110    VD84000000002353 N  599976923545                            000000000+                F DF 00381                     000000000  N000000000       0000000000000.00 0000000.00   0000000.00                             000000000000000                                                                                                                                                     01418 A000000000000 0000000000000.34     00800 01500                  
02225910347590075DT67590675900000010942800888800000010180088824001193046900010700093021520230000000213904623000000000095292400022XXXXXX8137       VS11    0001111   NYV1 A E583046690408854N840000000002139V45M00    05DNPLANET VAPOR #800        373422    VD84000000002139 N  599976923545                            000000000+                F DF 10433                     000000000  Y000000000 338   0000000000000.00 0000000.00   0000000.00                             000000000000000                                                                                                                                                     01418 A000000000000 0000000000000.23     00050 02200                  
02225920347590076DT67590675900000010942800888800000010180088824001193046900010700101021520230000000213904623000000000095292408138XXXXXX3577       VS11    0001111   NYV1 A E303046702607725N840000000002139CTRC00    07DNPLANET VAPOR #800        773737    VD84000000002139 N  599976923545                            000000000+                F PF 08170                     000000000  N000000000       0000000000000.00 0000000.00   0000000.00                             000000000000000                                                                                                                                                     01418 A000000000000 0000000000000.40     01150 01500                  
02225930347590077DT67590675900000010942800888800000010180088824001193046900010700119021520230000000827804623000000000095292466189XXXXXX2879       VS11    0001111   NYV1 A E583046721423461N84000000000827868QQ00    07DNPLANET VAPOR #800        053488    VD84000000008278 N  599976923545                            000000000+                F DF 10433                     000000000  Y000000000 338   0000000000000.00 0000000.00   0000000.00                             000000000000000                                                                                                                                                     01418 A000000000000 0000000000000.26     00050 02200                  
02225940347590078DT67590675900000010942800888800000010180088824001193046900010700127021520230000000154004623000000000095292465992XXXXXX6944       VS11    0001111   NYV1 A E583046729294349N8400000000015407WWQ00    07DNPLANET VAPOR #800        567181    VD84000000001540 N  599976923545                            000000000+                F DF 00381                     000000000  N000000000       0000000000000.00 0000000.00   0000000.00                             000000000000000                                                                                                                                                     01418 A000000000000 0000000000000.27     00800 01500                  
02225950347590079DT67590675900000010942800888800000010180088824001193046900010700135021520230000000541704623000000000095292438419XXXXXX9240       VS11    0001111   NYV1 A E583046744937297N840000000005417CNNP00    05DNPLANET VAPOR #800        054133    VD84000000005417 N  599976923545                            000000000+                F DF 00381                     000000000  N000000000       0000000000000.00 0000000.00   0000000.00                             000000000000000                                                                                                                                                     01418 A000000000000 0000000000000.58     00800 01500                  
02225960347590080DT67590675900000010942800888800000010180088824001193046900010700143021520230000000635304623000000000095292427178XXXXXX8678       VS11    0001111   NYV1 A E383046776095150N840000000006353HZVB00    07DNPLANET VAPOR #800        114085    VD84000000006353 N  599976923545                            000000000+                F DF 10433                     000000000  Y000000000 338   0000000000000.00 0000000.00   0000000.00                             000000000000000                                                                                                                                                     01418 A000000000000 0000000000000.25     00050 02200                  
02225970347590081DT67590675900000010942800888800000010180088824001193046900010700150021520230000000336504623000000000095292461675XXXXXX1003       VS11    0001111   NYV1 A E383046805265030N8400000000033659DRQ00    05DNPLANET VAPOR #800        292620    VD84000000003365 N  599976923545                            000000000+                F DF 00381                     000000000  N000000000       0000000000000.00 0000000.00   0000000.00                             000000000000000                                                                                                                                                     01418 A000000000000 0000000000000.42     00800 01500                  
02225980347590082DT67590675900000010942800888800000010180088873011003046900010700164021520230000000267404623000000000095292376793XXXXX1009                          NY 1 0 N007088934244060N840000000002674          05DNPLANET VAPOR INC #800    896212    AM84000000002674 N  599976923545                            000000000+51010155434C 258     11261                     000000000                   0000000000000.00 0000000.00   0000000.00                             000000000000000 61248972086759675900000010942 PLANET VAPOR INC #800    2247 SUNSET BLVD         8035462263      29169     KEVIN@MOOREDISTRO.COM                     01418  000000000000 0000000000000.53     01600 00000                  
02225990347590083DT67590675900000010942800888800000010180088824001193046900010700176021520230000000122904623000000000095292492125XXXXXX3119       VK04VS111111111   NYV1 A E303046845235806N84000000000122929M500    07DNPLANET VAPOR #800        005913    VD84000000001229 N  599976923545                            000000000+                F DF 00451                     000000000  N000000000 214   0000000000000.00 0000000.00   0000000.00                             000000000000000                                                                                                                                                     01418 F000000000000 0000000000000.23     01550 00400                  
02226000347590084DT67590675900000010942800888800000010180088877287283046900010700186021520230000000716504623000000000095292531258XXXXXX0103       MS02WI09          NY 1 0 AMDJAXWCG40215  N840000000007165          07DNPLANET VAPOR #800        114806    MD84000000007165 N  599976923545                            000000000+M10101M5434C    MDJ  10815                     000000000  1                0000000000000.00 0000000.00   0000000.00                             000000000000000                                                                                                                                                   B101418  000000000000 0000000000000.26     00050 02200                  
02226010347590085DT67590675900000010942800888800000010180088824001193046900010700192021520230000000106904623000000000095292409451XXXXXX0770       VK04VS111111111   NYV1 A E383047008086006N840000000001069G69600    07DNPLANET VAPOR #800        815131    VS84000000001069 N  599976923545                            000000000+                D CD 12113                     000000000  N000000000 499   0000000000000.00 0000000.00   0000000.00                             000000000000000                                                                                                                                                     01418 F000000000000 0000000000000.32     02100 01000                  
02226020347590086DT67590675900000010942800888800000010180088824001193046900010700200021520230000000321004623000000000095292491444XXXXXX3528       VS11    0001111   NYV1 A E583047012368606N840000000003210X4FF00    07DNPLANET VAPOR #800        122103    VD84000000003210 N  599976923545                            000000000+                F DF 10433                     000000000  Y000000000 338   0000000000000.00 0000000.00   0000000.00                             000000000000000                                                                                                                                                     01418 A000000000000 0000000000000.24     00050 02200                  
02226030347590087DT67590675900000010942800888800000010180088824001193046900010700218021520230000000449204623000000000095292433477XXXXXX4858       VS11    0001111   NYV1 A E463047013802222N8400000000044925VF800    05DNPLANET VAPOR #800        004016    VD84000000004492 N  599976923545                            000000000+                F DF 10433                     000000000  Y000000000 338   0000000000000.00 0000000.00   0000000.00                             000000000000000                                                                                                                                                     01418 A000000000000 0000000000000.24     00050 02200                  
02226040347590088DT67590675900000010942800888800000010180088877287283046900010700228021520230000000623104623000000000095292532152XXXXXX0098       MS02WI09          NY 1 0 AMDJBVTCT60215  N840000000006231          05DNPLANET VAPOR #800        513315    MD84000000006231 N  599976923545                            000000000+M10101C5434C    MDJ  00402                     000000000  N                0000000000000.00 0000000.00   0000000.00                             000000000000000                                                                                                                                                   B101418  000000000000 0000000000000.80     01050 01500                  
02226050347590089DT67590675900000010942800888800000010180088824001193046900010700234021520230000000406404623000000000095292440066XXXXXX4477       VS11    0001111   NYV1 A E383047032037232N840000000004064XBX300    05DNPLANET VAPOR #800        05043D    VS84000000004064 N  599976923545                            000000000+                D CD 12113                     000000000  N000000000 499   0000000000000.00 0000000.00   0000000.00                             000000000000000                                                                                                                                                     01418 A000000000000 0000000000000.95     02100 01000                  
02226060347590090BH6759067590000000766680088880000090170215202304623000000000077932    0000090001130021N8008886759C02162023                                                                                                                                                                                                                                                                                                                                                                                                                                                                                                                                                                                                 
02226070347590091DT67590675900000007666800888800000010180088877287283046900011300010021520230000000647904623000000000077932517805XXXXXX6471       MS02WI09          NY 1 0 AMPLYM2LQI0215  N840000000006479          05DNPLANET VAPOR #300        05299B    MC84000000006479 N  599976777836                            000000000+M10101C5434C    MPL  00353                     000000000  N                0000000000000.00 0000000.00   0000000.00                             000000000000000                                                                                                                                                   B101418  000000000000 0000000000001.27     01800 01000                  
02226080347590092DT67590675900000007666800888800000010180088824001193046900011300026021520230000000410204623000000000077932453506XXXXXX7925       VS11    0001111   NYV1 A E383046555818292N8400000000041023CN200    05DNPLANET VAPOR #300        H96792    VD84000000004102 N  599976777836                            000000000+                F DF 10433                     000000000  Y000000000 338   0000000000000.00 0000000.00   0000000.00                             000000000000000                                                                                                                                                     01418 A000000000000 0000000000000.24     00050 02200                  
02226090347590093DT67590675900000007666800888800000010180088824001193046900011300034021520230000000237504623000000000077932461675XXXXXX0917       VS11    0001111   NYV1 A E383046561485415N840000000002375D9DK00    05DNPLANET VAPOR #300        026860    VD84000000002375 N  599976777836                            000000000+                F DF 00381                     000000000  N000000000       0000000000000.00 0000000.00   0000000.00                             000000000000000                                                                                                                                                     01418 A000000000000 0000000000000.34     00800 01500                  
02226100347590094DT67590675900000007666800888800000010180088824001193046900011300042021520230000000339704623000000000077932461675XXXXXX1003       VS11    0001111   NYV1 A E583046580954226N8400000000033976P6P00    05DNPLANET VAPOR #300        044000    VD84000000003397 N  599976777836                            000000000+                F DF 00381                     000000000  N000000000       0000000000000.00 0000000.00   0000000.00                             000000000000000                                                                                                                                                     01418 A000000000000 0000000000000.42     00800 01500                  
02226110347590095DT67590675900000007666800888800000010180088824001193046900011300059021520230000000237504623000000000077932473703XXXXXX3278       VS11    0001111   NYV1 A E583046596626863N840000000002375LS8500    05DNPLANET VAPOR #300        098376    VD84000000002375 N  599976777836                            000000000+                F DF 10433                     000000000  Y000000000 338   0000000000000.00 0000000.00   0000000.00                             000000000000000                                                                                                                                                     01418 A000000000000 0000000000000.23     00050 02200                  
02226120347590096DT67590675900000007666800888800000010180088824001193046900011300067021520230000000237504623000000000077932476516XXXXXX4896       VS11    0001111   NYV1 A E303046627257830N8400000000023759XZK00    05DNPLANET VAPOR #300        976325    VD84000000002375 N  599976777836                            000000000+                F DF 00381                     000000000  N000000000       0000000000000.00 0000000.00   0000000.00                             000000000000000                                                                                                                                                     01418 A000000000000 0000000000000.34     00800 01500                  
02226130347590097DT67590675900000007666800888800000010180088824001193046900011300075021520230000000194304623000000000077932448774XXXXXX6626       VS11    0001111   NYV1 A E463046632170528N840000000001943LSH200    05DNPLANET VAPOR #300        013337    VD84000000001943 N  599976777836                            000000000+                F DF 10433                     000000000  Y000000000 338   0000000000000.00 0000000.00   0000000.00                             000000000000000                                                                                                                                                     01418 A000000000000 0000000000000.23     00050 02200                  
02226140347590098DT67590675900000007666800888800000010180088824001193046900011300083021520230000000388604623000000000077932438419XXXXXX3012       VS11    0001111   NYV1 A E463046662195107N84000000000388664LT00    05DNPLANET VAPOR #300        032339    VD84000000003886 N  599976777836                            000000000+                F DF 00381                     000000000  N000000000       0000000000000.00 0000000.00   0000000.00                             000000000000000                                                                                                                                                     01418 A000000000000 0000000000000.46     00800 01500                  
02226150347590099DT67590675900000007666800888800000010180088824001193046900011300091021520230000000172704623000000000077932474475XXXXXX5802       VS11    0001111   NYV1 A E463046672670765N840000000001727VVFV00    05DNPLANET VAPOR #300        104417    VD84000000001727 N  599976777836                            000000000+                F DF 10433                     000000000  Y000000000 338   0000000000000.00 0000000.00   0000000.00                             000000000000000                                                                                                                                                     01418 A000000000000 0000000000000.23     00050 02200                  
02226160347590100DT67590675900000007666800888800000010180088824001193046900011300109021520230000000719004623000000000077932473703XXXXXX6911       VS11    0001111   NYV1 A E303046711747755N840000000007190GQKD00    05DNPLANET VAPOR #300        094798    VD84000000007190 N  599976777836                            000000000+                F DF 10433                     000000000  Y000000000 338   0000000000000.00 0000000.00   0000000.00                             000000000000000                                                                                                                                                     01418 A000000000000 0000000000000.26     00050 02200                  
02226170347590101DT67590675900000007666800888800000010180088824001193046900011300117021520230000000323804623000000000077932473702XXXXXX4122       VS11    0001111   NYV1 A E303046717342017N840000000003238BTMD00    05DNPLANET VAPOR #300        070503    VD84000000003238 N  599976777836                            000000000+                F DF 10433                     000000000  Y000000000 338   0000000000000.00 0000000.00   0000000.00                             000000000000000                                                                                                                                                     01418 A000000000000 0000000000000.24     00050 02200                  
02226180347590102DT67590675900000007666800888800000010180088824001193046900011300125021520230000000215804623000000000077932423223XXXXXX2477       VS11    0001111   NYV1 A E303046720672986N8400000000021588VLW00    05DNPLANET VAPOR #300        072795    VD84000000002158 N  599976777836                            000000000+                F DF 00381                     000000000  N000000000       0000000000000.00 0000000.00   0000000.00                             000000000000000                                                                                                                                                     01418 A000000000000 0000000000000.32     00800 01500                  
02226190347590103DT67590675900000007666800888800000010180088824001193046900011300133021520230000000080904623000000000077932403446XXXXXX9455       VK04VS111111111   NYV1 A E583046729529225N840000000000809HNNG00    90DNPLANET VAPOR #300        630944    VD84000000000809 N  599976777836                            000000000+                F PF 08165                     000000000  N000000000       0000000000000.00 0000000.00   0000000.00                             000000000000000                                                                                                                                                     01418 F000000000000 0000000000000.18     01600 00500                  
02226200347590104DT67590675900000007666800888800000010180088824001193046900011300141021520230000001230304623000000000077932446542XXXXXX0841       VS11    0001111   NYV1 A E383046746439206N840000000012303ZK9R00    05DNPLANET VAPOR #300        015656    VS84000000012303 N  599976777836                            000000000+                D CD 12113                     000000000  N000000000 499   0000000000000.00 0000000.00   0000000.00                             000000000000000                                                                                                                                                     01418 A000000000000 0000000000002.68     02100 01000                  
02226210347590105DT67590675900000007666800888800000010180088824001193046900011300158021520230000000242904623000000000077932455225XXXXXX0411       VS11    0001111   NYV1 A E383046748085980N840000000002429VFTX00    05DNPLANET VAPOR #300        H47134    VD84000000002429 N  599976777836                            000000000+                F DF 10433                     000000000  Y000000000 338   0000000000000.00 0000000.00   0000000.00                             000000000000000                                                                                                                                                     01418 A000000000000 0000000000000.23     00050 02200                  
02226220347590106DT67590675900000007666800888800000010180088824001193046900011300166021520230000000242904623000000000077932400022XXXXXX5425       VS11    0001111   NYV1 A E463046758808695N840000000002429HSX400    05DNPLANET VAPOR #300        033896    VD84000000002429 N  599976777836                            000000000+                F DF 10433                     000000000  Y000000000 338   0000000000000.00 0000000.00   0000000.00                             000000000000000                                                                                                                                                     01418 A000000000000 0000000000000.23     00050 02200                  
02226230347590107DT67590675900000007666800888800000010180088824001193046900011300174021520230000000446804623000000000077932444607XXXXXX5338       VS11    0001111   NYV1 A E463046772190120N8400000000044686B9300    05DNPLANET VAPOR #300        AU4C61    VD84000000004468 N  599976777836                            000000000+                G PG 10178                     000000000  N000000000 363   0000000000000.00 0000000.00   0000000.00                             000000000000000                                                                                                                                                     01418 A000000000000 0000000000001.06     02150 01000                  
02226240347590108DT67590675900000007666800888800000010180088824001193046900011300182021520230000000194204623000000000077932431196XXXXXX7717       VS11    0001111   NYV1 A E383046799159164N840000000001942VZVN00    05DNPLANET VAPOR #300        015504    VS84000000001942 N  599976777836                            000000000+                A CA 12110                     000000000  N000000000 493   0000000000000.00 0000000.00   0000000.00                             000000000000000                                                                                                                                                     01418 A000000000000 0000000000000.39     01510 01000                  
02226250347590109DT67590675900000007666800888800000010180088877287283046900011300192021520230000000485804623000000000077932542418XXXXXX5782       MS02WI09          NY 1 0 AMPLYKZ2T50215  N840000000004858          05DNPLANET VAPOR #300        44724B    MC84000000004858 N  599976777836                            000000000+M10101C5434C    MPL  00353                     000000000  N                0000000000000.00 0000000.00   0000000.00                             000000000000000                                                                                                                                                   B101418  000000000000 0000000000000.97     01800 01000                  
02226260347590110DT67590675900000007666800888800000010180088824001193046900011300208021520230000000237504623000000000077932421783XXXXXX7328       VS11    0001111   NYV1 A E463046821043943N840000000002375JF8N00    05DNPLANET VAPOR #300        075736    VS84000000002375 N  599976777836                            000000000+                A CA 12110                     000000000  N000000000 493   0000000000000.00 0000000.00   0000000.00                             000000000000000                                                                                                                                                     01418 A000000000000 0000000000000.46     01510 01000                  
02226270347590111DT67590675900000007666800888800000010180088824001193046900011300216021520230000000507404623000000000077932440393XXXXXX4846       VS11    0001111   NYV1 A E303046856574172N840000000005074L5MV00    05DNPLANET VAPOR #300        977317    VD84000000005074 N  599976777836                            000000000+                F PF 08170                     000000000  N000000000       0000000000000.00 0000000.00   0000000.00                             000000000000000                                                                                                                                                     01418 A000000000000 0000000000000.73     01150 01500                  
02226280347590112BH6759067590000000909280088880000090170215202304623000000000202561    0000090001070054N8008886759C02162023                                                                                                                                                                                                                                                                                                                                                                                                                                                                                                                                                                                                 
02226290347590113DT67590675900000009092800888800000010180088824001193046900010700010021520230000000482804623000000000202561473703XXXXXX3526       VS11    0001111   NYV1 A E303046554591066N840000000004828W2WB00    07DNPLANET VAPOR #500        051094    VD84000000004828 N  599976781988                            000000000+                F DF 10433                     000000000  Y000000000 338   0000000000000.00 0000000.00   0000000.00                             000000000000000                                                                                                                                                     01418 A000000000000 0000000000000.24     00050 02200                  
02226300347590114DT67590675900000009092800888800000010180088824001193046900010700028021520230000000215904623000000000202561400022XXXXXX9316       VS11    0001111   NYV1 A E303046576642904N840000000002159XN9F00    07DNPLANET VAPOR #500        018482    VD84000000002159 N  599976781988                            000000000+                F DF 10433                     000000000  Y000000000 338   0000000000000.00 0000000.00   0000000.00                             000000000000000                                                                                                                                                     01418 A000000000000 0000000000000.23     00050 02200                  
02226310347590115DT67590675900000009092800888800000010180088824001193046900010700036021520230000000237504623000000000202561440066XXXXXX4501       VS11    0001111   NYV1 A E583046577780601N8400000000023757R9400    07DNPLANET VAPOR #500        05481D    VS84000000002375 N  599976781988                            000000000+                D CD 12113                     000000000  N000000000 499   0000000000000.00 0000000.00   0000000.00                             000000000000000                                                                                                                                                     01418 A000000000000 0000000000000.60     02100 01000                  
02226320347590116DT67590675900000009092800888800000010180088824001193046900010700044021520230000000215904623000000000202561434257XXXXXX4899       VS11    0001111   NYV1 A E303046580505972N840000000002159MSSF00    05DNPLANET VAPOR #500        039880    VD84000000002159 N  599976781988                            000000000+                F DF 10433                     000000000  Y000000000 338   0000000000000.00 0000000.00   0000000.00                             000000000000000                                                                                                                                                     01418 A000000000000 0000000000000.23     00050 02200                  
02226330347590117DT67590675900000009092800888800000010180088824001193046900010700051021520230000000180704623000000000202561473703XXXXXX5815       VS11    0001111   NYV1 A E463046584102184N840000000001807KKR600    07DNPLANET VAPOR #500        099236    VD84000000001807 N  599976781988                            000000000+                F DF 10433                     000000000  Y000000000 338   0000000000000.00 0000000.00   0000000.00                             000000000000000                                                                                                                                                     01418 A000000000000 0000000000000.23     00050 02200                  
02226340347590118DT67590675900000009092800888800000010180088824001193046900010700069021520230000000475004623000000000202561448261XXXXXX7069       VS11    0001111   NYV1 A E383046586133452N840000000004750LW3B00    07DNPLANET VAPOR #500        831045    VD84000000004750 N  599976781988                            000000000+                F DF 10433                     000000000  Y000000000 338   0000000000000.00 0000000.00   0000000.00                             000000000000000                                                                                                                                                     01418 A000000000000 0000000000000.24     00050 02200                  
02226350347590119DT67590675900000009092800888800000010180088824001193046900010700077021520230000000475004623000000000202561440393XXXXXX1999       VS11    0001111   NYV1 A E303046587856818N840000000004750HVLC00    05DNPLANET VAPOR #500        176525    VD84000000004750 N  599976781988                            000000000+                F PF 08170                     000000000  N000000000       0000000000000.00 0000000.00   0000000.00                             000000000000000                                                                                                                                                     01418 A000000000000 0000000000000.70     01150 01500                  
02226360347590120DT67590675900000009092800888800000010180088877287283046900010700087021520230000000161904623000000000202561514230XXXXXX7256       MS02WI09          NY 1 0 AMDJQKYTD10215  N840000000001619          05DNPLANET VAPOR #500        2D710C    MD84000000001619 N  599976781988                            000000000+M10101C5434C    MDJ  00402                     000000000  N                0000000000000.00 0000000.00   0000000.00                             000000000000000                                                                                                                                                   B101418  000000000000 0000000000000.32     01050 01500                  
02226370347590121DT67590675900000009092800888800000010180088824001193046900010700093021520230000000215904623000000000202561473703XXXXXX6333       VS11    0001111   NYV1 A E303046606619490N840000000002159SRDZ00    05DNPLANET VAPOR #500        049768    VD84000000002159 N  599976781988                            000000000+                F DF 10433                     000000000  Y000000000 338   0000000000000.00 0000000.00   0000000.00                             000000000000000                                                                                                                                                     01418 A000000000000 0000000000000.23     00050 02200                  
02226380347590122DT67590675900000009092800888800000010180088824001193046900010700101021520230000001479304623000000000202561448233XXXXXX7905       VS11    0001111   NYV1 A E303046630413784N840000000014793RDMB00    05DNPLANET VAPOR #500        013041    VD84000000014793 N  599976781988                            000000000+                F DF 10433                     000000000  Y000000000 338   0000000000000.00 0000000.00   0000000.00                             000000000000000                                                                                                                                                     01418 A000000000000 0000000000000.29     00050 02200                  
02226390347590123DT67590675900000009092800888800000010180088824001193046900010700119021520230000000763804623000000000202561459954XXXXXX7347       VS11    0001111   NYV1 A E303046632199299N8400000000076383L2400    05DNPLANET VAPOR #500        H21052    VD84000000007638 N  599976781988                            000000000+                F DF 10433                     000000000  Y000000000 338   0000000000000.00 0000000.00   0000000.00                             000000000000000                                                                                                                                                     01418 A000000000000 0000000000000.26     00050 02200                  
02226400347590124DT67590675900000009092800888800000010180088877287283046900010700129021520230000000237504623000000000202561531258XXXXXX3973       MS02WI09          NY 1 0 AMDJJ30ED10215  N840000000002375          07DNPLANET VAPOR #500        114805    MD84000000002375 N  599976781988                            000000000+M10101M0034C    MDJ  10815                     000000000  1                0000000000000.00 0000000.00   0000000.00                             000000000000000                                                                                                                                                   B101418  000000000000 0000000000000.23     00050 02200                  
02226410347590125DT67590675900000009092800888800000010180088877287283046900010700137021520230000000237504623000000000202561545443XXXXXX4252       MS02WI09          NY 1 0 AMDJKXG8G40215  N840000000002375          07DNPLANET VAPOR #500        092470    MD84000000002375 N  599976781988                            000000000+M10101M0034C    MDJ  00402                     000000000  N                0000000000000.00 0000000.00   0000000.00                             000000000000000                                                                                                                                                   B101418  000000000000 0000000000000.40     01050 01500                  
02226420347590126DT67590675900000009092800888800000010180088877287283046900010700145021520230000000561404623000000000202561545443XXXXXX4648       MS02WI09          NY 1 0 AMDJTSLPD10215  N840000000005614          05DNPLANET VAPOR #500        095630    MD84000000005614 N  599976781988                            000000000+M10101C5434C    MDJ  00402                     000000000  N                0000000000000.00 0000000.00   0000000.00                             000000000000000                                                                                                                                                   B101418  000000000000 0000000000000.74     01050 01500                  
02226430347590127DT67590675900000009092800888800000010180088824001193046900010700150021520230000000604504623000000000202561432825XXXXXX8226       VS11    0001111   NYV1 A E463046678924545N840000000006045D4SK00    05DNPLANET VAPOR #500        787780    VD84000000006045 N  599976781988                            000000000+                F DF 00381                     000000000  N000000000       0000000000000.00 0000000.00   0000000.00                             000000000000000                                                                                                                                                     01418 A000000000000 0000000000000.63     00800 01500                  
02226440347590128DT67590675900000009092800888800000010180088824001193046900010700168021520230000000340104623000000000202561410039XXXXXX7741       VS11    0001111   NYV1 A E463046686739456N840000000003401H9XH00    07DNPLANET VAPOR #500        70562D    VS84000000003401 N  599976781988                            000000000+                D CD 12113                     000000000  N000000000 499   0000000000000.00 0000000.00   0000000.00                             000000000000000                                                                                                                                                     01418 A000000000000 0000000000000.81     02100 01000                  
02226450347590129DT67590675900000009092800888800000010180088824001193046900010700176021520230000000213704623000000000202561448261XXXXXX9218       VS11    0001111   NYV1 A E463046687460528N840000000002137PBSC00    07DNPLANET VAPOR #500        831049    VD84000000002137 N  599976781988                            000000000+                F DF 10433                     000000000  Y000000000 338   0000000000000.00 0000000.00   0000000.00                             000000000000000                                                                                                                                                     01418 A000000000000 0000000000000.23     00050 02200                  
02226460347590130DT67590675900000009092800888800000010180088877287283046900010700186021520230000000534304623000000000202561517805XXXXXX3490       MS02WI09          NY 1 0 AMWER1Z6HI0215  N840000000005343          07DNPLANET VAPOR #500        09141P    MC84000000005343 N  599976781988                            000000000+M10101M5434C    MWE  00739                     000000000  N                0000000000000.00 0000000.00   0000000.00                             000000000000000                                                                                                                                                   B101418  000000000000 0000000000001.33     02300 01000                  
02226470347590131DT67590675900000009092800888800000010180088824001193046900010700192021520230000000097004623000000000202561466188XXXXXX6775       VK04VS111111111   NYV1 A E583046705765110N840000000000970JSDS00    07DNPLANET VAPOR #500        071280    VD84000000000970 N  599976781988                            000000000+                F DF 10439                     000000000  Y000000000 331   0000000000000.00 0000000.00   0000000.00                             000000000000000                                                                                                                                                     01418 F000000000000 0000000000000.22     00050 02200                  
02226480347590132DT67590675900000009092800888800000010180088824001193046900010700200021520230000000213704623000000000202561414776XXXXXX5262       VS11    0001111   NYV1 A E303046711861785N8400000000021372WC900    07DNPLANET VAPOR #500        315164    VS84000000002137 N  599976781988                            000000000+                D CD 12113                     000000000  N000000000 499   0000000000000.00 0000000.00   0000000.00                             000000000000000                                                                                                                                                     01418 A000000000000 0000000000000.55     02100 01000                  
02226490347590133DT67590675900000009092800888800000010180088876509753046900010700216021520230000000375004623000000000202561601100XXXXXX4369   BA05                  NY41 0 N813039413804675N840000000003750    00    07DNPLANET VAPOR #500        01599R    DS84000000003750 N  599976781988830                         000000000+0000004910H00   DCCDI01000334042  144940000000 000000000  0          112   0000000000000.00 0000000.00   0000000.00                             000000000000000                                                                                                                                                     01418  000000000000 0000000000000.75     01720 01000                  
02226500347590134DT67590675900000009092800888800000010180088824001193046900010700226021520230000000184604623000000000202561473703XXXXXX7661       VS11    0001111   NYV1 A E583046715269007N8400000000018468MKV00    07DNPLANET VAPOR #500        098772    VD84000000001846 N  599976781988                            000000000+                F DF 10433                     000000000  Y000000000 338   0000000000000.00 0000000.00   0000000.00                             000000000000000                                                                                                                                                     01418 A000000000000 0000000000000.23     00050 02200                  
02226510347590135DT67590675900000009092800888800000010180088824001193046900010700234021520230000000485904623000000000202561423223XXXXXX6629       VS11    0001111   NYV1 A E383046728040968N840000000004859632B00    05DNPLANET VAPOR #500        078378    VD84000000004859 N  599976781988                            000000000+                F DF 00381                     000000000  N000000000       0000000000000.00 0000000.00   0000000.00                             000000000000000                                                                                                                                                     01418 A000000000000 0000000000000.54     00800 01500                  
02226520347590136DT67590675900000009092800888800000010180088824001193046900010700242021520230000000252604623000000000202561473703XXXXXX1862       VS11    0001111   NYV1 A E463046729035070N840000000002526CQPF00    07DNPLANET VAPOR #500        049579    VD84000000002526 N  599976781988                            000000000+                F DF 10433                     000000000  Y000000000 338   0000000000000.00 0000000.00   0000000.00                             000000000000000                                                                                                                                                     01418 A000000000000 0000000000000.23     00050 02200                  
02226530347590137DT67590675900000009092800888800000010180088824001193046900010700259021520230000000237504623000000000202561451440XXXXXX9426       VS11    0001111   NYV1 A E303046742592477N8400000000023752QSC00    05DNPLANET VAPOR #500        123739    VD84000000002375 N  599976781988                            000000000+                F PF 08170                     000000000  N000000000       0000000000000.00 0000000.00   0000000.00                             000000000000000                                                                                                                                                     01418 A000000000000 0000000000000.42     01150 01500                  
02226540347590138DT67590675900000009092800888800000010180088824001193046900010700267021520230000000345404623000000000202561448261XXXXXX7030       VS11    0001111   NYV1 A E383046746809372N840000000003454588300    05DNPLANET VAPOR #500        500211    VD84000000003454 N  599976781988                            000000000+                F DF 10433                     000000000  Y000000000 338   0000000000000.00 0000000.00   0000000.00                             000000000000000                                                                                                                                                     01418 A000000000000 0000000000000.24     00050 02200                  
