01899490598460002BH6759067590000000017480000180000090171027202230022000000000005262    0000090001060004N8000016759C10282022                                                                                                                                                                                                                                                                                                                                                                                                                                                                                                                                                                                                 
01899500598460003DT67590675900000000174800001800000010180000177287282300900010600017102720220000000062330022000000000005262528072XXXXXX2744       MS02WI09          NY 1 0 AMCWOHVUSB1027  N840000000000623          05DNVERMONT STATE BANK       09518S    MC84000000000623 N  549975549271                            000000000+M10101C5434C    MCW  02188                     000000000  N                0000000000000.00 0000000.00   0000000.00                             000000000000000                                                                                                                                                   B101418  000000000000 0000000000000.18     02300 00400                  
01899510598460004DT67590675900000000174800001800000010180000177287282300900010600025102720220000000054730022000000000005262528072XXXXXX2744       ME03PT01MS02      NY 1 0 AMCWHIOL5H1027  N840000000000547          01DNVERMONT STATE BANK       02849S    MC84000000000547 N  549975549271                            000000000+M1010115414C    MCW  02183                     000000000  N                0000000000000.00 0000000.00   0000000.00                             000000000000000                                                                                                                                                   E101418  000000000000 0000000000000.24     02600 01000                  
01899520598460005DT67590675900000000174800001800000010180000173011002300900010600037102720220000000205130022000000000005262376742XXXXX1001                          NY 1 0 N006530087369062N840000000002051          01DNVERMONT STATE BANK       103922    AM84000000002051 N  549975549271                            000000000+51010165414C 258     11261                     000000000                   0000000000000.00 0000000.00   0000000.00                             000000000000000 61248972086759675900000000174                          106 N MAIN ST            3097842271      61484     (309)784-2271                             01418  000000000000 0000000000000.43     01600 00000                  
01899530598460006DT67590675900000000174800001800000010180000173011002300900010600045102720220000000204130022000000000005262373967XXXXX1009                          NY 1 0 N006001000159071N840000000002041          01DNVERMONT STATE BANK       142044    AM84000000002041 N  549975549271                            000000000+51010165414C 258     11261                     000000000                   0000000000000.00 0000000.00   0000000.00                             000000000000000 61248972086759675900000000174                          106 N MAIN ST            3097842271      61484     (309)784-2271                             01418  000000000000 0000000000000.43     01600 00000                  
01899540598460007BH6759067590000000017480000180000090171027202230022000000000000611    0000090001110003N8000016759C10282022                                                                                                                                                                                                                                                                                                                                                                                                                                                                                                                                                                                                 
01899550598460008DT67590675900000000174800001800000010180000124001192300900011100023102720220000000018730022000000000000611474489XXXXXX3159       VK04VS111111111   NYV1 A E582300804599927N840000000000187NS8600    05DNVERMONT STATE BANK       102004    VD84000000000187 N  549975549271                            000000000+                F DF 10439                     000000000  Y000000000 331   0000000000000.00 0000000.00   0000000.00                             000000000000000                                                                                                                                                     01418 F000000000000 0000000000000.22     00050 02200                  
01899560598460009DT67590675900000000174800001800000010180000176509752300900011100039102720220000000042430022000000000000611601100XXXXXX6003   BA50                  NY41 0 N802258998883211N840000000000424    00    05DNVERMONT STATE BANK       02718R    DS84000000000424 N  549975549271050                         000000000+0000004910H00   DCCDI11946003007  172448000000 000000000  0          821   0000000000000.00 0000000.00   0000000.00                             000000000000000                                                                                                                                                     01418  000000000000 0000000000000.08     01950 00000                  
