02367510211480002BH6759067590000000995180088880000090170209202304023000000000002160    0000090001010001N8008886759C02102023                                                                                                                                                                                                                                                                                                                                                                                                                                                                                                                                                                                                 
02367520211480003DT67590675900000009951800888800000010180088824001193040900010100019020920230000000216004023000000000002160415967XXXXXX4678       VS11    0001111   NYV1 A E463040546063405N840000000002160NR7N00    05DNPLANET VAPOR #500        907200    VD84000000002160 N  599976923295                            000000000+                F DF 00381                     000000000  N000000000       0000000000000.00 0000000.00   0000000.00                             000000000000000                                                                                                                                                     01418 A000000000000 0000000000000.32     00800 01500                  
02367530211480004BH6759067590000000288180088880000090170209202304023000000000103505    0000090001410019N8008886759C02102023                                                                                                                                                                                                                                                                                                                                                                                                                                                                                                                                                                                                 
02367540211480005DT67590675900000002881800888800000010180088824001193040900014100015020920230000001008304023000000000103505487917XXXXXX5992       VS11    0001111   NYV1 A E383040571482544N8400000000100838DX900    05DNHAPPY HIPPIE             199148    VD84000000010083 N  549976487158                            000000000+                F DF 00381                     000000000  N000000000       0000000000000.00 0000000.00   0000000.00                             000000000000000                                                                                                                                                     01418 A000000000000 0000000000000.96     00800 01500                  
02367550211480006DT67590675900000002881800888800000010180088824001193040900014100023020920230000000225804023000000000103505443238XXXXXX9381       VS11    0001111   NYV1 A E463040578320105N840000000002258CHGC00    05DNHAPPY HIPPIE             010352    VD84000000002258 N  549976487158                            000000000+                F DF 00381                     000000000  N000000000       0000000000000.00 0000000.00   0000000.00                             000000000000000                                                                                                                                                     01418 A000000000000 0000000000000.33     00800 01500                  
02367560211480007DT67590675900000002881800888800000010180088824001193040900014100031020920230000000227104023000000000103505422921XXXXXX0729       VS11    0001111   NYV1 A E383040596994685N840000000002271HGP200    05DNHAPPY HIPPIE             041701    VD84000000002271 N  549976487158                            000000000+                F DF 00381                     000000000  N000000000       0000000000000.00 0000000.00   0000000.00                             000000000000000                                                                                                                                                     01418 A000000000000 0000000000000.33     00800 01500                  
02367570211480008DT67590675900000002881800888800000010180088824001193040900014100049020920230000000296204023000000000103505437303XXXXXX1202       VS11    0001111   NYV1 A E583040642888111N840000000002962ZH4Z00    05DNHAPPY HIPPIE             553709    VD84000000002962 N  549976487158                            000000000+                F PF 08170                     000000000  N000000000       0000000000000.00 0000000.00   0000000.00                             000000000000000                                                                                                                                                     01418 A000000000000 0000000000000.49     01150 01500                  
02367580211480009DT67590675900000002881800888800000010180088824001193040900014100056020920230000000395004023000000000103505422921XXXXXX7676       VS11    0001111   NYV1 A E383040666350073N840000000003950P2B200    05DNHAPPY HIPPIE             048636    VD84000000003950 N  549976487158                            000000000+                F DF 00381                     000000000  N000000000       0000000000000.00 0000000.00   0000000.00                             000000000000000                                                                                                                                                     01418 A000000000000 0000000000000.47     00800 01500                  
02367590211480010DT67590675900000002881800888800000010180088824001193040900014100064020920230000000302904023000000000103505480639XXXXXX8441       VS11    0001111   NYV1 A E463040684882336N840000000003029M5B800    05DNHAPPY HIPPIE             047651    VD84000000003029 N  549976487158                            000000000+                F DF 00381                     000000000  N000000000       0000000000000.00 0000000.00   0000000.00                             000000000000000                                                                                                                                                     01418 A000000000000 0000000000000.39     00800 01500                  
02367600211480011DT67590675900000002881800888800000010180088824001193040900014100072020920230000000158004023000000000103505422921XXXXXX6466       VS11    0001111   NYV1 A E463040686342402N840000000001580C6DW00    05DNHAPPY HIPPIE             050635    VD84000000001580 N  549976487158                            000000000+                F DF 00381                     000000000  N000000000       0000000000000.00 0000000.00   0000000.00                             000000000000000                                                                                                                                                     01418 A000000000000 0000000000000.28     00800 01500                  
02367610211480012DT67590675900000002881800888800000010180088824001193040900014100080020920230000000424604023000000000103505419090XXXXXX2246       VS11    0001111   NYV1 A E303040706401160N8400000000042467DJL00    05DNHAPPY HIPPIE             441076    VD84000000004246 N  549976487158                            000000000+                F DF 00381                     000000000  N000000000       0000000000000.00 0000000.00   0000000.00                             000000000000000                                                                                                                                                     01418 A000000000000 0000000000000.49     00800 01500                  
02367620211480013DT67590675900000002881800888800000010180088824001193040900014100098020920230000000768304023000000000103505443238XXXXXX8270       VS11    0001111   NYV1 A E583040709836528N8400000000076838LR400    05DNHAPPY HIPPIE             044304    VD84000000007683 N  549976487158                            000000000+                F DF 00381                     000000000  N000000000       0000000000000.00 0000000.00   0000000.00                             000000000000000                                                                                                                                                     01418 A000000000000 0000000000000.76     00800 01500                  
02367630211480014DT67590675900000002881800888800000010180088824001193040900014100106020920230000002961804023000000000103505414778XXXXXX5044       VS11    0001111   NYV1 A E383040743660174N840000000029618JGCT00    05DNHAPPY HIPPIE             419093    VS84000000029618 N  549976487158                            000000000+                D CD 12113                     000000000  N000000000 499   0000000000000.00 0000000.00   0000000.00                             000000000000000                                                                                                                                                     01418 A000000000000 0000000000006.32     02100 01000                  
02367640211480015DT67590675900000002881800888800000010180088877287283040900014100116020920230000000318304023000000000103505552379XXXXXX6688       MS02WI09          NY 1 0 AMCWFQK3670209  N840000000003183          05DNHAPPY HIPPIE             24249Z    MC84000000003183 N  549976487158                            000000000+M10101C5434C    MCW  00646                     000000000  N                0000000000000.00 0000000.00   0000000.00                             000000000000000                                                                                                                                                   B101418  000000000000 0000000000000.64     01900 00400                  
02367650211480016DT67590675900000002881800888800000010180088877287283040900014100124020920230000000413404023000000000103505542418XXXXXX5033       MS02WI09          NY 1 0 AMWEVUID670209  N840000000004134          05DNHAPPY HIPPIE             62150P    MC84000000004134 N  549976487158                            000000000+M10101C5434C    MWE  00743                     000000000  N                0000000000000.00 0000000.00   0000000.00                             000000000000000                                                                                                                                                   B101418  000000000000 0000000000000.99     02300 00400                  
02367660211480017DT67590675900000002881800888800000010180088877287283040900014100132020920230000000394904023000000000103505511953XXXXXX3362       MS02WI09          NY 1 0 AMDJVWMJ670209  N840000000003949          05DNHAPPY HIPPIE             035679    MD84000000003949 N  549976487158                            000000000+M10101C5434C    MDJ  00402                     000000000  N                0000000000000.00 0000000.00   0000000.00                             000000000000000                                                                                                                                                   B101418  000000000000 0000000000000.56     01050 01500                  
02367670211480018DT67590675900000002881800888800000010180088824001193040900014100148020920230000000439004023000000000103505429413XXXXXX6264       VS11    0001111   NYV1 A E583040760284723N840000000004390MRF400    05DNHAPPY HIPPIE             764564    VD84000000004390 N  549976487158                            000000000+                F DF 00381                     000000000  N000000000       0000000000000.00 0000000.00   0000000.00                             000000000000000                                                                                                                                                     01418 A000000000000 0000000000000.50     00800 01500                  
02367680211480019DT67590675900000002881800888800000010180088824001193040900014100155020920230000000197404023000000000103505415978XXXXXX3576       VS11    0001111   NYV1 A E303040787533582N840000000001974SGW600    05DNHAPPY HIPPIE             076675    VD84000000001974 N  549976487158                            000000000+                F DF 10433                     000000000  Y000000000 338   0000000000000.00 0000000.00   0000000.00                             000000000000000                                                                                                                                                     01418 A000000000000 0000000000000.23     00050 02200                  
02367690211480020DT67590675900000002881800888800000010180088824001193040900014100163020920230000000887604023000000000103505421783XXXXXX3160       VS11    0001111   NYV1 A E303040800852771N840000000008876ZQPT00    05DNHAPPY HIPPIE             027966    VS84000000008876 N  549976487158                            000000000+                A CA 12110                     000000000  N000000000 493   0000000000000.00 0000000.00   0000000.00                             000000000000000                                                                                                                                                     01418 A000000000000 0000000000001.44     01510 01000                  
02367700211480021DT67590675900000002881800888800000010180088824001193040900014100171020920230000000592404023000000000103505435547XXXXXX4208       VS11    0001111   NYV1 A E463040821386116N8400000000059242WZX00    05DNHAPPY HIPPIE             027104    VD84000000005924 N  549976487158                            000000000+                F DF 10433                     000000000  Y000000000 338   0000000000000.00 0000000.00   0000000.00                             000000000000000                                                                                                                                                     01418 A000000000000 0000000000000.25     00050 02200                  
02367710211480022DT67590675900000002881800888800000010180088824001193040900014100189020920230000000142104023000000000103505491523XXXXXX7823       VK04VS111111111   NYV1 A E303040822754017N840000000001421T5R900    07DNHAPPY HIPPIE             029728    VD84000000001421 N  549976487158                            000000000+                F DF 10439                     000000000  Y000000000 331   0000000000000.00 0000000.00   0000000.00                             000000000000000                                                                                                                                                     01418 F000000000000 0000000000000.23     00050 02200                  
02367720211480023DT67590675900000002881800888800000010180088824001193040900014100197020920230000000197404023000000000103505443238XXXXXX0990       VS11    0001111   NYV1 A E463040824490567N8400000000019744MPH00    05DNHAPPY HIPPIE             075409    VD84000000001974 N  549976487158                            000000000+                F DF 00381                     000000000  N000000000       0000000000000.00 0000000.00   0000000.00                             000000000000000                                                                                                                                                     01418 A000000000000 0000000000000.31     00800 01500                  
02367730211480024BH6759067590000000288180088880000090170209202304023000000000064106    0000090001410018N8008886759C02102023                                                                                                                                                                                                                                                                                                                                                                                                                                                                                                                                                                                                 
02367740211480025DT67590675900000002881800888800000010180088877287283040900014100017020920230000000592504023000000000064106511137XXXXXX5255       MS02WI09          NY 1 0 AMHHUIPP4G0209  N840000000005925          90DNHAPPY HIPPIE             664035    MD84000000005925 N  549976487134                            000000000+M10101B5434C    MHH  11964                     000000000  N                0000000000000.00 0000000.00   0000000.00                             000000000000000                                                                                                                                                   C101418  000000000000 0000000000000.83     01150 01500                  
02367750211480026DT67590675900000002881800888800000010180088824001193040900014100023020920230000000355504023000000000064106415978XXXXXX6979       VS11    0001111   NYV1 A E383040557163002N840000000003555V28400    05DNHAPPY HIPPIE             010136    VD84000000003555 N  549976487134                            000000000+                F DF 10433                     000000000  Y000000000 338   0000000000000.00 0000000.00   0000000.00                             000000000000000                                                                                                                                                     01418 A000000000000 0000000000000.24     00050 02200                  
02367760211480027DT67590675900000002881800888800000010180088824001193040900014100031020920230000000197404023000000000064106419090XXXXXX3843       VS11    0001111   NYV1 A E583040566495445N840000000001974XQF600    05DNHAPPY HIPPIE             433020    VD84000000001974 N  549976487134                            000000000+                F DF 00381                     000000000  N000000000       0000000000000.00 0000000.00   0000000.00                             000000000000000                                                                                                                                                     01418 A000000000000 0000000000000.31     00800 01500                  
02367770211480028DT67590675900000002881800888800000010180088877287283040900014100041020920230000000024904023000000000064106518941XXXXXX4253                         NY 1 0 AMWESGZ04F0209  N840000000000249          05DNHAPPY HIPPIE             00326Z    MC84000000000249 N  549976487134                            000000000+M10101C5434C    MWE  12147                     000000000  N                0000000000000.00 0000000.00   0000000.00                             000000000000000                                                                                                                                                   B101418  000000000000 0000000000000.08     02300 00200                  
02367780211480029DT67590675900000002881800888800000010180088824001193040900014100056020920230000000325804023000000000064106479213XXXXXX8709       VS11    0001111   NYV1 A E383040621801073N840000000003258NKS800    05DNHAPPY HIPPIE             011620    VD84000000003258 N  549976487134                            000000000+                F DF 10433                     000000000  Y000000000 338   0000000000000.00 0000000.00   0000000.00                             000000000000000                                                                                                                                                     01418 A000000000000 0000000000000.24     00050 02200                  
02367790211480030DT67590675900000002881800888800000010180088824001193040900014100064020920230000000439004023000000000064106440393XXXXXX7743       VS11    0001111   NYV1 A E303040644394367N840000000004390P23R00    90DNHAPPY HIPPIE             977765    VD84000000004390 N  549976487134                            000000000+                F PF 08170                     000000000  N000000000       0000000000000.00 0000000.00   0000000.00                             000000000000000                                                                                                                                                     01418 A000000000000 0000000000000.65     01150 01500                  
02367800211480031DT67590675900000002881800888800000010180088824001193040900014100072020920230000000027304023000000000064106422921XXXXXX2868       VK04VS111111111   NYV1 A E303040657949812N84000000000027397XT00    05DNHAPPY HIPPIE             047796    VD84000000000273 N  549976487134                            000000000+                F DF 00451                     000000000  N000000000 214   0000000000000.00 0000000.00   0000000.00                             000000000000000                                                                                                                                                     01418 F000000000000 0000000000000.08     01550 00400                  
02367810211480032DT67590675900000002881800888800000010180088877287283040900014100082020920230000000127904023000000000064106511953XXXXXX5324       MS02WI09          NY 1 0 AMDJUPBN670209  N840000000001279          05DNHAPPY HIPPIE             086519    MD84000000001279 N  549976487134                            000000000+M10101C5434C    MDJ  00505                     000000000  N                0000000000000.00 0000000.00   0000000.00                             000000000000000                                                                                                                                                   B101418  000000000000 0000000000000.24     01550 00400                  
02367820211480033DT67590675900000002881800888800000010180088877287283040900014100090020920230000000691304023000000000064106511953XXXXXX5690       MS02WI09          NY 1 0 AMDJ882U200209  N840000000006913          05DNHAPPY HIPPIE             026081    MD84000000006913 N  549976487134                            000000000+M10101C5434C    MDJ  00402                     000000000  N                0000000000000.00 0000000.00   0000000.00                             000000000000000                                                                                                                                                   B101418  000000000000 0000000000000.88     01050 01500                  
02367830211480034DT67590675900000002881800888800000010180088824001193040900014100106020920230000000493804023000000000064106423223XXXXXX7930       VS11    0001111   NYV1 A E463040731951407N8400000000049383SFD00    05DNHAPPY HIPPIE             046560    VD84000000004938 N  549976487134                            000000000+                F DF 00381                     000000000  N000000000       0000000000000.00 0000000.00   0000000.00                             000000000000000                                                                                                                                                     01418 A000000000000 0000000000000.55     00800 01500                  
02367840211480035DT67590675900000002881800888800000010180088824001193040900014100114020920230000000236804023000000000064106443264XXXXXX6098       VS11    0001111   NYV1 A E383040734112148N8400000000023687LHS00    05DNHAPPY HIPPIE             009598    VD84000000002368 N  549976487134                            000000000+                F DF 10433                     000000000  Y000000000 338   0000000000000.00 0000000.00   0000000.00                             000000000000000                                                                                                                                                     01418 A000000000000 0000000000000.23     00050 02200                  
02367850211480036DT67590675900000002881800888800000010180088824001193040900014100122020920230000000553104023000000000064106422921XXXXXX5630       VS11    0001111   NYV1 A E583040736962593N840000000005531JDF800    05DNHAPPY HIPPIE             055698    VD84000000005531 N  549976487134                            000000000+                F DF 00381                     000000000  N000000000       0000000000000.00 0000000.00   0000000.00                             000000000000000                                                                                                                                                     01418 A000000000000 0000000000000.59     00800 01500                  
02367860211480037DT67590675900000002881800888800000010180088824001193040900014100130020920230000000419704023000000000064106419090XXXXXX9629       VS11    0001111   NYV1 A E383040739099694N840000000004197PNMH00    05DNHAPPY HIPPIE             442792    VD84000000004197 N  549976487134                            000000000+                F DF 00381                     000000000  N000000000       0000000000000.00 0000000.00   0000000.00                             000000000000000                                                                                                                                                     01418 A000000000000 0000000000000.49     00800 01500                  
02367870211480038DT67590675900000002881800888800000010180088877287283040900014100140020920230000000424504023000000000064106511953XXXXXX9825       MS02WI09          NY 1 0 AMDJFGLP670209  N840000000004245          05DNHAPPY HIPPIE             076774    MD84000000004245 N  549976487134                            000000000+M10101C5434C    MDJ  00402                     000000000  N                0000000000000.00 0000000.00   0000000.00                             000000000000000                                                                                                                                                   B101418  000000000000 0000000000000.60     01050 01500                  
02367880211480039DT67590675900000002881800888800000010180088824001193040900014100155020920230000000316104023000000000064106449507XXXXXX0245       VS11    0001111   NYV1 A E583040788290082N84000000000316155JG00    05DNHAPPY HIPPIE             065349    VD84000000003161 N  549976487134                            000000000+                F DF 00381                     000000000  N000000000       0000000000000.00 0000000.00   0000000.00                             000000000000000                                                                                                                                                     01418 A000000000000 0000000000000.40     00800 01500                  
02367890211480040DT67590675900000002881800888800000010180088824001193040900014100163020920230000000395004023000000000064106410894XXXXXX4308       VS11    0001111   NYV1 A E583040789454745N840000000003950Q65C00    05DNHAPPY HIPPIE             019515    VD84000000003950 N  549976487134                            000000000+                F DF 10433                     000000000  Y000000000 338   0000000000000.00 0000000.00   0000000.00                             000000000000000                                                                                                                                                     01418 A000000000000 0000000000000.24     00050 02200                  
02367900211480041DT67590675900000002881800888800000010180088824001193040900014100171020920230000000395004023000000000064106419090XXXXXX3972       VS11    0001111   NYV1 A E383040794609020N840000000003950JFX600    05DNHAPPY HIPPIE             446096    VD84000000003950 N  549976487134                            000000000+                F DF 00381                     000000000  N000000000       0000000000000.00 0000000.00   0000000.00                             000000000000000                                                                                                                                                     01418 A000000000000 0000000000000.47     00800 01500                  
02367910211480042DT67590675900000002881800888800000010180088824001193040900014100189020920230000000395004023000000000064106422921XXXXXX3715       VS11    0001111   NYV1 A E383040797347381N8400000000039504ZKL00    05DNHAPPY HIPPIE             061736    VD84000000003950 N  549976487134                            000000000+                F DF 00381                     000000000  N000000000       0000000000000.00 0000000.00   0000000.00                             000000000000000                                                                                                                                                     01418 A000000000000 0000000000000.47     00800 01500                  
02367920211480043BH6759067590000000215480088880000090170209202304023000000000453917    0000090001032900N8008886759C02102023                                                                                                                                                                                                                                                                                                                                                                                                                                                                                                                                                                                                 
02367930211480044DT67590675900000002154800888800000010180088873011003040900010343169020920230000006077004023000000000453917372729XXXXX2012                          NY 4 07N006429111829078N840000000060770          01DNDRIP DROP DISTRO LLC     223566    AM84000000060770 N  519971004114                            000000000+6004S0S00140 258     11244                     000000000                   0000000000000.00 0000000.00   0000000.00                             000000000000000 61248972736759675900000002154 DRIP DROP DISTRO LLC     1445 W COMMERCE AVE SUITE2087248209      83705     TROY@DRIPDROPDISTRO.COM                   01418  000000000000 0000000000011.65     01900 00000                  
02367940211480045DT67590675900000002154800888800000010180088824001193040900010331028020920230000003888004023000000000453917426930XXXXXX0531               2111111   NYV4 A7W583040733705806N84000000003888046ZC00    01DNDRIP DROP DISTRO LLC     07516G    VB84000000038880 NP1519971004114   INV-000603               000000000+                G5CG511887                     000000000  N000000000 163   0000000000000.00 0000000.00   0000000.00                             000000000000000                                                                                                                                                     01418 G000000038880 0000000000011.76     03000 01000                  
02367950211480001P16759067590000000215480088880000001010000000000000000    43931611891              2000000000000000000000000              000000000000                    0000000000000000000000000                    000000000000                                                                                                                                                                                                                                                                                                                                                                                                                                                                                        
02367960211480046DT67590675900000002154800888800000010180088887287283040900010300784020920230000015907304023000000000453917528211XXXXXX6115                         NY 4607AMABSZ7R200209  N840000000159073          81DNDRIP DROP DISTRO LLC     04015Q    MB84000000159073 NP1519900000001   INV-000588               000000000+600450S00140    MAB  11637                     000000000  N                0000000000000.00 0000000.00   0000000.00                             000000000000000                                                                                                                                                   U001418  000000000000 0000000000047.82     03000 01000                  
02367970211480001P1675906759000000021548008888000000101                                                          000000000000          8000            471534935                                                                                                                                                                                                                                                                                                                                                                                                                                                                                                                                                            
02367980211480047DT67590675900000002154800888800000010180088824001193040900010365075020920230000004860004023000000000453917434769XXXXXX5148               2111111   NYV4 A7W383040809812243N840000000048600JBK500    01DNDRIP DROP DISTRO LLC     012917    VD84000000048600 NP1519971004114   INV-000622               000000000+                F DF 10420                     000000000  Y000000000 338   0000000000000.00 0000000.00   0000000.00                             000000000000000                                                                                                                                                     01418 G000000048600 0000000000000.46     00050 02200                  
02367990211480001P16759067590000000215480088880000001010000000000000000                             2000000000000000000000000              000000000000                    0000000000000000000000000                    000000000000                                                                                                                                                                                                                                                                                                                                                                                                                                                                                        
02368000211480048DT67590675900000002154800888800000010180088887287283040900010329007020920230000014659404023000000000453917558958XXXXXX8647                         NY 4607AMABV0ZRSY0208  N840000000146594          81DNDRIP DROP DISTRO LLC     03649Q    MB84000000146594 NP1519900000001   INV-000584               000000000+600450S00140    MAB  11637                     000000000  N                0000000000000.00 0000000.00   0000000.00                             000000000000000                                                                                                                                                   U001418  000000000000 0000000000044.08     03000 01000                  
02368010211480001P1675906759000000021548008888000000101                                                          000000000000          8000            471534935                                                                                                                                                                                                                                                                                                                                                                                                                                                                                                                                                            
02368020211480049BH6759067590000001094280088880000090170209202304023000000000076767    0000090001010018N8008886759C02102023                                                                                                                                                                                                                                                                                                                                                                                                                                                                                                                                                                                                 
02368030211480050DT67590675900000010942800888800000010180088824001193040900010100019020920230000000299404023000000000076767434769XXXXXX1391       VS11    0001111   NYV1 A E303040558378996N840000000002994JHQC00    07DNPLANET VAPOR #800        073010    VD84000000002994 N  599976923545                            000000000+                F DF 10433                     000000000  Y000000000 338   0000000000000.00 0000000.00   0000000.00                             000000000000000                                                                                                                                                     01418 A000000000000 0000000000000.23     00050 02200                  
02368040211480051DT67590675900000010942800888800000010180088824001193040900010100027020920230000000434904023000000000076767429475XXXXXX7068       VS11    0001111   NYV1 A E463040579322335N840000000004349ZPLV00    07DNPLANET VAPOR #800        103094    VD84000000004349 N  599976923545                            000000000+                G DG 10351                     000000000  Y000000000 338   0000000000000.00 0000000.00   0000000.00                             000000000000000                                                                                                                                                     01418 A000000000000 0000000000000.24     00050 02200                  
02368050211480052DT67590675900000010942800888800000010180088824001193040900010100035020920230000000320804023000000000076767434256XXXXXX1268       VS11    0001111   NYV1 A E583040587197355N840000000003208C9S700    07DNPLANET VAPOR #800        060284    VD84000000003208 N  599976923545                            000000000+                F DF 10433                     000000000  Y000000000 338   0000000000000.00 0000000.00   0000000.00                             000000000000000                                                                                                                                                     01418 A000000000000 0000000000000.24     00050 02200                  
02368060211480053DT67590675900000010942800888800000010180088824001193040900010100043020920230000000541904023000000000076767434256XXXXXX1268       VS11    0001111   NYV1 A E303040587632906N8400000000054195ZBX00    07DNPLANET VAPOR #800        081193    VD84000000005419 N  599976923545                            000000000+                F DF 10433                     000000000  Y000000000 338   0000000000000.00 0000000.00   0000000.00                             000000000000000                                                                                                                                                     01418 A000000000000 0000000000000.25     00050 02200                  
02368070211480054DT67590675900000010942800888800000010180088824001193040900010100050020920230000001026704023000000000076767427199XXXXXX7651       VS11    0001111   NYV1 A E583040591681337N840000000010267DFJJ00    05DNPLANET VAPOR #800        588600    VD84000000010267 N  599976923545                            000000000+                F DF 00381                     000000000  N000000000       0000000000000.00 0000000.00   0000000.00                             000000000000000                                                                                                                                                     01418 A000000000000 0000000000000.97     00800 01500                  
02368080211480055DT67590675900000010942800888800000010180088824001193040900010100068020920230000000235304023000000000076767427199XXXXXX0668       VS11    0001111   NYV1 A E383040614646706N840000000002353DVBQ00    05DNPLANET VAPOR #800        591469    VD84000000002353 N  599976923545                            000000000+                F DF 00381                     000000000  N000000000       0000000000000.00 0000000.00   0000000.00                             000000000000000                                                                                                                                                     01418 A000000000000 0000000000000.34     00800 01500                  
02368090211480056DT67590675900000010942800888800000010180088824001193040900010100076020920230000000085504023000000000076767466189XXXXXX9811       VK04VS111111111   NYV1 A E303040658996753N840000000000855LXJP00    07DNPLANET VAPOR #800        010868    VD84000000000855 N  599976923545                            000000000+                F DF 10439                     000000000  Y000000000 331   0000000000000.00 0000000.00   0000000.00                             000000000000000                                                                                                                                                     01418 F000000000000 0000000000000.22     00050 02200                  
02368100211480057DT67590675900000010942800888800000010180088824001193040900010100084020920230000000327804023000000000076767461675XXXXXX1975       VS11    0001111   NYV1 A E303040661951523N840000000003278TVKH00    05DNPLANET VAPOR #800        806780    VD84000000003278 N  599976923545                            000000000+                F DF 00381                     000000000  N000000000       0000000000000.00 0000000.00   0000000.00                             000000000000000                                                                                                                                                     01418 A000000000000 0000000000000.41     00800 01500                  
02368110211480058DT67590675900000010942800888800000010180088824001193040900010100092020920230000000470604023000000000076767463405XXXXXX6939       VS11    0001111   NYV1 A E463040678422924N840000000004706XF4B00    07DNPLANET VAPOR #800        066034    VD84000000004706 N  599976923545                            000000000+                F DF 10433                     000000000  Y000000000 338   0000000000000.00 0000000.00   0000000.00                             000000000000000                                                                                                                                                     01418 A000000000000 0000000000000.24     00050 02200                  
02368120211480059DT67590675900000010942800888800000010180088824001193040900010100100020920230000000288804023000000000076767466189XXXXXX0413       VS11    0001111   NYV1 A E383040685144153N84000000000288847CD00    07DNPLANET VAPOR #800        082939    VD84000000002888 N  599976923545                            000000000+                F DF 10433                     000000000  Y000000000 338   0000000000000.00 0000000.00   0000000.00                             000000000000000                                                                                                                                                     01418 A000000000000 0000000000000.23     00050 02200                  
02368130211480060DT67590675900000010942800888800000010180088824001193040900010100118020920230000000827804023000000000076767432739XXXXXX3046       VS11    0001111   NYV1 A E303040708189908N8400000000082785M2Z00    07DNPLANET VAPOR #800        715539    VD84000000008278 N  599976923545                            000000000+                F DF 10433                     000000000  Y000000000 338   0000000000000.00 0000000.00   0000000.00                             000000000000000                                                                                                                                                     01418 A000000000000 0000000000000.26     00050 02200                  
02368140211480061DT67590675900000010942800888800000010180088877287283040900010100128020920230000000053504023000000000076767514377XXXXXX7410       MS02WI09          NY 1 0 AMDJWXFN200209  N840000000000535          05DNPLANET VAPOR #800        12A0WW    MD84000000000535 N  599976923545                            000000000+M10101C5434C    MDJ  00402                     000000000  N                0000000000000.00 0000000.00   0000000.00                             000000000000000                                                                                                                                                   B101418  000000000000 0000000000000.21     01050 01500                  
02368150211480062DT67590675900000010942800888800000010180088824001193040900010100134020920230000000423504023000000000076767474474XXXXXX1441       VS11    0001111   NYV1 A E583040778393333N840000000004235BHPW00    07DNPLANET VAPOR #800        103477    VD84000000004235 N  599976923545                            000000000+                F DF 10433                     000000000  Y000000000 338   0000000000000.00 0000000.00   0000000.00                             000000000000000                                                                                                                                                     01418 A000000000000 0000000000000.24     00050 02200                  
02368160211480063DT67590675900000010942800888800000010180088824001193040900010100142020920230000000442804023000000000076767400022XXXXXX3474       VS11    0001111   NYV1 A E303040790713226N840000000004428ZR7300    07DNPLANET VAPOR #800        889937    VD84000000004428 N  599976923545                            000000000+                F DF 10433                     000000000  Y000000000 338   0000000000000.00 0000000.00   0000000.00                             000000000000000                                                                                                                                                     01418 A000000000000 0000000000000.24     00050 02200                  
02368170211480064DT67590675900000010942800888800000010180088824001193040900010100159020920230000000534704023000000000076767453506XXXXXX4505       VS11    0001111   NYV1 A E303040803229780N840000000005347M6F400    07DNPLANET VAPOR #800        H67234    VD84000000005347 N  599976923545                            000000000+                F DF 10433                     000000000  Y000000000 338   0000000000000.00 0000000.00   0000000.00                             000000000000000                                                                                                                                                     01418 A000000000000 0000000000000.25     00050 02200                  
02368180211480065DT67590675900000010942800888800000010180088877287283040900010100169020920230000001030104023000000000076767546429XXXXXX8278       MS02WI09          NY 1 0 AMDJNBZQA80209  N840000000010301          05DNPLANET VAPOR #800        123321    MD84000000010301 N  599976923545                            000000000+M10101C5434C    MDJ  00402                     000000000  N                0000000000000.00 0000000.00   0000000.00                             000000000000000                                                                                                                                                   B101418  000000000000 0000000000001.23     01050 01500                  
02368190211480066DT67590675900000010942800888800000010180088877287283040900010100177020920230000000054504023000000000076767514377XXXXXX7410       MS02WI09          NY 1 0 AMDJNMCFA80209  N840000000000545          05DNPLANET VAPOR #800        13E69Z    MD84000000000545 N  599976923545                            000000000+M10101C5434C    MDJ  00402                     000000000  N                0000000000000.00 0000000.00   0000000.00                             000000000000000                                                                                                                                                   B101418  000000000000 0000000000000.21     01050 01500                  
02368200211480067DT67590675900000010942800888800000010180088877287283040900010100185020920230000000278104023000000000076767514230XXXXXX0174       MS02WI09          NY 1 0 AMDJOQDLNV0209  N840000000002781          07DNPLANET VAPOR #800        610874    MD84000000002781 N  599976923545                            000000000+M10101M0034C    MDJ  00402                     000000000  N                0000000000000.00 0000000.00   0000000.00                             000000000000000                                                                                                                                                   B101418  000000000000 0000000000000.44     01050 01500                  
02368210211480068BH6759067590000001107280088880000090170209202304023000000000023257    0000090001010008N8008886759C02102023                                                                                                                                                                                                                                                                                                                                                                                                                                                                                                                                                                                                 
02368220211480069DT67590675900000011072800888800000010180088824001193040900010100035020920230000000585504023000000000023257440393XXXXXX7124       VS11    0001111   NYV1 A E303040754737260N840000000005855N2ZQ00    07DNPLANET VAPOR #900        623812    VD84000000005855 N  599976923588                            000000000+                F PF 08170                     000000000  N000000000       0000000000000.00 0000000.00   0000000.00                             000000000000000                                                                                                                                                     01418 A000000000000 0000000000000.82     01150 01500                  
02368230211480070DT67590675900000011072800888800000010180088824001193040900010100043020920230000000770104023000000000023257440393XXXXXX7124       VS11    0001111   NYV1 A E383040762511853N840000000007701S9ZR00    07DNPLANET VAPOR #900        506764    VD84000000007701 N  599976923588                            000000000+                F PF 08170                     000000000  N000000000       0000000000000.00 0000000.00   0000000.00                             000000000000000                                                                                                                                                     01418 A000000000000 0000000000001.04     01150 01500                  
02368240211480071DT67590675900000011072800888800000010180088824001193040900010100050020920230000000470604023000000000023257473703XXXXXX9005       VS11    0001111   NYV1 A E383040835868582N840000000004706BD5Q00    07DNPLANET VAPOR #900        031863    VD84000000004706 N  599976923588                            000000000+                F DF 10433                     000000000  Y000000000 338   0000000000000.00 0000000.00   0000000.00                             000000000000000                                                                                                                                                     01418 A000000000000 0000000000000.24     00050 02200                  
02368250211480072DT67590675900000011072800888800000010180088824001193040900010100068020920230000000104104023000000000023257448968XXXXXX2066       VK04VS111111111   NYV1 A E383040838763793N8400000000010419NKF00    07DNPLANET VAPOR #900        549788    VD84000000001041 N  599976923588                            000000000+                F DF 00451                     000000000  N000000000 214   0000000000000.00 0000000.00   0000000.00                             000000000000000                                                                                                                                                     01418 F000000000000 0000000000000.20     01550 00400                  
02368260211480073DT67590675900000011072800888800000010180088824001193040900010100076020920230000000074504023000000000023257448968XXXXXX2066       VK04VS111111111   NYV1 A E383040845860122N840000000000745PCN200    07DNPLANET VAPOR #900        551715    VD84000000000745 N  599976923588                            000000000+                F DF 00451                     000000000  N000000000 214   0000000000000.00 0000000.00   0000000.00                             000000000000000                                                                                                                                                     01418 F000000000000 0000000000000.16     01550 00400                  
02368270211480074DT67590675900000011072800888800000010180088824001193040900010100084020920230000000320904023000000000023257433477XXXXXX9095       VS11    0001111   NYV1 A E303041002318980N840000000003209G3RW00    07DNPLANET VAPOR #900        063880    VD84000000003209 N  599976923588                            000000000+                F DF 10433                     000000000  Y000000000 338   0000000000000.00 0000000.00   0000000.00                             000000000000000                                                                                                                                                     01418 A000000000000 0000000000000.24     00050 02200                  
02368280211480075BH6759067590000001090080088880000090170209202304023000000000083440    0000090001010030N8008886759C02102023                                                                                                                                                                                                                                                                                                                                                                                                                                                                                                                                                                                                 
02368290211480076DT67590675900000010900800888800000010180088824001193040900010100019020920230000000507404023000000000083440434256XXXXXX7969       VS11    0001111   NYV1 A E463040558187008N8400000000050743Z3Z00    07DNPLANET VAPOR #700        074219    VD84000000005074 N  599976923375                            000000000+                F DF 10433                     000000000  Y000000000 338   0000000000000.00 0000000.00   0000000.00                             000000000000000                                                                                                                                                     01418 A000000000000 0000000000000.25     00050 02200                  
02368300211480077DT67590675900000010900800888800000010180088824001193040900010100027020920230000000323904023000000000083440433477XXXXXX9382       VS11    0001111   NYV1 A E303040572450833N840000000003239ZXNQ00    05DNPLANET VAPOR #700        571391    VD84000000003239 N  599976923375                            000000000+                F DF 10433                     000000000  Y000000000 338   0000000000000.00 0000000.00   0000000.00                             000000000000000                                                                                                                                                     01418 A000000000000 0000000000000.24     00050 02200                  
02368310211480078DT67590675900000010900800888800000010180088824001193040900010100035020920230000000137504023000000000083440402944XXXXXX2518       VK04VS111111111   NYV1 A E463040580964220N840000000001375GQC400    05DNPLANET VAPOR #700        000816    VD84000000001375 N  599976923375                            000000000+                F DF 10439                     000000000  Y000000000 331   0000000000000.00 0000000.00   0000000.00                             000000000000000                                                                                                                                                     01418 F000000000000 0000000000000.23     00050 02200                  
02368320211480079DT67590675900000010900800888800000010180088824001193040900010100043020920230000000213704023000000000083440423223XXXXXX2831               1001111   NYV1 A K303040582732891N840000000002137H7RQ00    01DNPLANET VAPOR #700        083985    VD84000000002137 N  599976923375                            000000000+                F DF 00412                     000000000  N000000000       0000000000000.00 0000000.00   0000000.00                             000000000000000                                                                                                                                                     01418 E000000000000 0000000000000.50     01650 01500                  
02368330211480080DT67590675900000010900800888800000010180088877287283040900010100052020920230000000356204023000000000083440542543XXXXXX7531       ME03MS02WI09      NY 1 0 AMDHRNIQ4F0209  N840000000003562          01DNPLANET VAPOR #700        043586    MD84000000003562 N  599976923375                            000000000+M1010115434C    MDH  00399                     000000000  N                0000000000000.00 0000000.00   0000000.00                             000000000000000                                                                                                                                                   E101418  000000000000 0000000000000.74     01650 01500                  
02368340211480081DT67590675900000010900800888800000010180088824001193040900010100068020920230000000224004023000000000083440438419XXXXXX6764       VS11    0001111   NYV1 A E383040618405433N84000000000224025PC00    05DNPLANET VAPOR #700        021040    VD84000000002240 N  599976923375                            000000000+                F DF 00381                     000000000  N000000000       0000000000000.00 0000000.00   0000000.00                             000000000000000                                                                                                                                                     01418 A000000000000 0000000000000.33     00800 01500                  
02368350211480082DT67590675900000010900800888800000010180088824001193040900010100076020920230000000174904023000000000083440410702XXXXXX0461       VS11    0001111   NYV1 A E303040622610500N840000000001749PFFH00    05DNPLANET VAPOR #700        115367    VD84000000001749 N  599976923375                            000000000+                F DF 00381                     000000000  N000000000       0000000000000.00 0000000.00   0000000.00                             000000000000000                                                                                                                                                     01418 A000000000000 0000000000000.29     00800 01500                  
02368360211480083DT67590675900000010900800888800000010180088824001193040900010100084020920230000000388604023000000000083440433477XXXXXX1393       VS11    0001111   NYV1 A E303040627059632N840000000003886PC3Z00    07DNPLANET VAPOR #700        658138    VD84000000003886 N  599976923375                            000000000+                F DF 10433                     000000000  Y000000000 338   0000000000000.00 0000000.00   0000000.00                             000000000000000                                                                                                                                                     01418 A000000000000 0000000000000.24     00050 02200                  
02368370211480084DT67590675900000010900800888800000010180088824001193040900010100092020920230000000284404023000000000083440440393XXXXXX3976       VS11    0001111   NYV1 A E303040653788853N840000000002844NLRZ00    07DNPLANET VAPOR #700        824212    VD84000000002844 N  599976923375                            000000000+                F PF 08170                     000000000  N000000000       0000000000000.00 0000000.00   0000000.00                             000000000000000                                                                                                                                                     01418 A000000000000 0000000000000.48     01150 01500                  
02368380211480085DT67590675900000010900800888800000010180088877287283040900010100102020920230000000151004023000000000083440531258XXXXXX8620       MS02WI09          NY 1 0 AMDJKN9T670209  N840000000001510          07DNPLANET VAPOR #700        101512    MD84000000001510 N  599976923375                            000000000+M10101M0034C    MDJ  10815                     000000000  1                0000000000000.00 0000000.00   0000000.00                             000000000000000                                                                                                                                                   B101418  000000000000 0000000000000.23     00050 02200                  
02368390211480086DT67590675900000010900800888800000010180088824001193040900010100118020920230000000427504023000000000083440491239XXXXXX8234       VS11    0001111   NYV1 A E303040666481006N8400000000042753PZ900    07DNPLANET VAPOR #700        725187    VD84000000004275 NP1599976923375                            000000000+                G DG 10351                     000000000  Y000000000 338   0000000000000.00 0000000.00   0000000.00                             000000000000000                                                                                                                                                     01418 A000000000000 0000000000000.24     00050 02200                  
02368400211480001P16759067590000001090080088880000001010000000000000000                             1000000000317000000000000              000000000000                    0000000000000000000000000                    000000000000                                                                                                                                                                                                                                                                                                                                                                                                                                                                                        
02368410211480087DT67590675900000010900800888800000010180088824001193040900010100126020920230000000213704023000000000083440487917XXXXXX7749       VS11    0001111   NYV1 A E383040683786254N840000000002137JH5K00    07DNPLANET VAPOR #700        040378    VD84000000002137 N  599976923375                            000000000+                F DF 00381                     000000000  N000000000       0000000000000.00 0000000.00   0000000.00                             000000000000000                                                                                                                                                     01418 A000000000000 0000000000000.32     00800 01500                  
02368420211480088DT67590675900000010900800888800000010180088824001193040900010100134020920230000000216004023000000000083440410702XXXXXX8024       VS11    0001111   NYV1 A E303040693095898N840000000002160X7DZ00    05DNPLANET VAPOR #700        137858    VD84000000002160 N  599976923375                            000000000+                F DF 00381                     000000000  N000000000       0000000000000.00 0000000.00   0000000.00                             000000000000000                                                                                                                                                     01418 A000000000000 0000000000000.32     00800 01500                  
02368430211480089DT67590675900000010900800888800000010180088824001193040900010100142020920230000000213704023000000000083440438419XXXXXX1511       VS11    0001111   NYV1 A E383040711799045N8400000000021377WT200    05DNPLANET VAPOR #700        044619    VD84000000002137 N  599976923375                            000000000+                F DF 00381                     000000000  N000000000       0000000000000.00 0000000.00   0000000.00                             000000000000000                                                                                                                                                     01418 A000000000000 0000000000000.32     00800 01500                  
02368440211480090DT67590675900000010900800888800000010180088824001193040900010100159020920230000000097104023000000000083440410702XXXXXX0337       VK04VS111111111   NYV1 A E583040760093470N840000000000971PTQ600    05DNPLANET VAPOR #700        150672    VD84000000000971 N  599976923375                            000000000+                F DF 00451                     000000000  N000000000 214   0000000000000.00 0000000.00   0000000.00                             000000000000000                                                                                                                                                     01418 F000000000000 0000000000000.19     01550 00400                  
02368450211480091DT67590675900000010900800888800000010180088877287283040900010100169020920230000000277904023000000000083440511905XXXXXX0479       MS02WI09          NY 1 0 AMPL3K6K200209  N840000000002779          05DNPLANET VAPOR #700        49411B    MC84000000002779 N  599976923375                            000000000+M10101C5434C    MPL  00353                     000000000  N                0000000000000.00 0000000.00   0000000.00                             000000000000000                                                                                                                                                   B101418  000000000000 0000000000000.60     01800 01000                  
02368460211480092DT67590675900000010900800888800000010180088877287283040900010100177020920230000000539904023000000000083440517805XXXXXX4274       MS02WI09          NY 1 0 AMPLPL45670209  N840000000005399          05DNPLANET VAPOR #700        08515B    MC84000000005399 N  599976923375                            000000000+M10101C5434C    MPL  00353                     000000000  N                0000000000000.00 0000000.00   0000000.00                             000000000000000                                                                                                                                                   B101418  000000000000 0000000000001.07     01800 01000                  
02368470211480093DT67590675900000010900800888800000010180088877287283040900010100185020920230000000291104023000000000083440531258XXXXXX2178       MS02WI09          NY 1 0 AMDJPNI5670209  N840000000002911          07DNPLANET VAPOR #700        102614    MD84000000002911 N  599976923375                            000000000+M10101M0034C    MDJ  10815                     000000000  1                0000000000000.00 0000000.00   0000000.00                             000000000000000                                                                                                                                                   B101418  000000000000 0000000000000.23     00050 02200                  
02368480211480094DT67590675900000010900800888800000010180088877287283040900010100193020920230000000213704023000000000083440531257XXXXXX5592       MS02WI09          NY 1 0 AMDJW39D670209  N840000000002137          07DNPLANET VAPOR #700        103592    MD84000000002137 N  599976923375                            000000000+M10101M0034C    MDJ  10815                     000000000  1                0000000000000.00 0000000.00   0000000.00                             000000000000000                                                                                                                                                   B101418  000000000000 0000000000000.23     00050 02200                  
02368490211480095DT67590675900000010900800888800000010180088877287283040900010100201020920230000000280704023000000000083440510805XXXXXX1383       MS02WI09          NY 1 0 AMDJQBFW670209  N840000000002807          07DNPLANET VAPOR #700        054736    MD84000000002807 N  599976923375                            000000000+M10101M0034C    MDJ  10815                     000000000  1                0000000000000.00 0000000.00   0000000.00                             000000000000000                                                                                                                                                   B101418  000000000000 0000000000000.23     00050 02200                  
02368500211480096DT67590675900000010900800888800000010180088877287283040900010100219020920230000000170704023000000000083440527368XXXXXX3976       MS02WI09          NY 1 0 AMPGQNAZ670209  N840000000001707          05DNPLANET VAPOR #700        159129    MD84000000001707 N  599976923375                            000000000+M10101C5434C    MPG  11964                     000000000  N                0000000000000.00 0000000.00   0000000.00                             000000000000000                                                                                                                                                   B101418  000000000000 0000000000000.35     01150 01500                  
02368510211480097DT67590675900000010900800888800000010180088877287283040900010100227020920230000000120804023000000000083440527368XXXXXX3976       MS02WI09          NY 1 0 AMPGXN8P670209  N840000000001208          05DNPLANET VAPOR #700        869597    MD84000000001208 N  599976923375                            000000000+M10101C5434C    MPG  11964                     000000000  N                0000000000000.00 0000000.00   0000000.00                             000000000000000                                                                                                                                                   B101418  000000000000 0000000000000.29     01150 01500                  
02368520211480098DT67590675900000010900800888800000010180088824001193040900010100233020920230000000329804023000000000083440491902XXXXXX4001       VS11    0001111   NYV1 A E583040815926481N840000000003298RNP800    07DNPLANET VAPOR #700        031123    VD84000000003298 N  599976923375                            000000000+                F DF 10433                     000000000  Y000000000 338   0000000000000.00 0000000.00   0000000.00                             000000000000000                                                                                                                                                     01418 A000000000000 0000000000000.24     00050 02200                  
02368530211480099DT67590675900000010900800888800000010180088877287283040900010100243020920230000000602304023000000000083440517805XXXXXX5235       MS02WI09          NY 1 0 AMPLMHHYNV0209  N840000000006023          07DNPLANET VAPOR #700        07334B    MC84000000006023 N  599976923375                            000000000+M10101M5434C    MPL  00353                     000000000  N                0000000000000.00 0000000.00   0000000.00                             000000000000000                                                                                                                                                   B101418  000000000000 0000000000001.18     01800 01000                  
02368540211480100DT67590675900000010900800888800000010180088824001193040900010100258020920230000000442604023000000000083440410702XXXXXX7044       VS11    0001111   NYV1 A E303040842445020N840000000004426S8WN00    05DNPLANET VAPOR #700        177302    VD84000000004426 N  599976923375                            000000000+                F DF 00381                     000000000  N000000000       0000000000000.00 0000000.00   0000000.00                             000000000000000                                                                                                                                                     01418 A000000000000 0000000000000.50     00800 01500                  
02368550211480101DT67590675900000010900800888800000010180088824001193040900010100266020920230000000252604023000000000083440473703XXXXXX9993       VS11    0001111   NYV1 A E583040846475080N840000000002526JHL600    07DNPLANET VAPOR #700        020833    VD84000000002526 N  599976923375                            000000000+                F DF 10433                     000000000  Y000000000 338   0000000000000.00 0000000.00   0000000.00                             000000000000000                                                                                                                                                     01418 A000000000000 0000000000000.23     00050 02200                  
02368560211480102DT67590675900000010900800888800000010180088824001193040900010100274020920230000000237504023000000000083440421783XXXXXX1992       VS11    0001111   NYV1 A E583040859543648N840000000002375LTJ200    05DNPLANET VAPOR #700        066292    VS84000000002375 N  599976923375                            000000000+                A CA 12110                     000000000  N000000000 493   0000000000000.00 0000000.00   0000000.00                             000000000000000                                                                                                                                                     01418 A000000000000 0000000000000.46     01510 01000                  
02368570211480103DT67590675900000010900800888800000010180088824001193040900010100282020920230000000093704023000000000083440430602XXXXXX1764       VK04VS111111111   NYV1 A E463041008554191N840000000000937Q73W00    07DNPLANET VAPOR #700        558567    VD84000000000937 N  599976923375                            000000000+                F DF 00451                     000000000  N000000000 214   0000000000000.00 0000000.00   0000000.00                             000000000000000                                                                                                                                                     01418 F000000000000 0000000000000.19     01550 00400                  
02368580211480104DT67590675900000010900800888800000010180088824001193040900010100290020920230000000259004023000000000083440466189XXXXXX1800       VS11    0001111   NYV1 A E383041013099435N840000000002590L7T200    07DNPLANET VAPOR #700        007983    VD84000000002590 N  599976923375                            000000000+                F DF 10433                     000000000  Y000000000 338   0000000000000.00 0000000.00   0000000.00                             000000000000000                                                                                                                                                     01418 A000000000000 0000000000000.23     00050 02200                  
02368590211480105DT67590675900000010900800888800000010180088824001193040900010100308020920230000000302104023000000000083440474488XXXXXX3017       VS11    0001111   NYV1 A E303041035498187N840000000003021HHGK00    07DNPLANET VAPOR #700        105797    VD84000000003021 N  599976923375                            000000000+                F DF 10433                     000000000  Y000000000 338   0000000000000.00 0000000.00   0000000.00                             000000000000000                                                                                                                                                     01418 A000000000000 0000000000000.24     00050 02200                  
02368600211480106BH6759067590000000708880088880000090170209202304023000000000120476    0000090001010036N8008886759C02102023                                                                                                                                                                                                                                                                                                                                                                                                                                                                                                                                                                                                 
02368610211480107DT67590675900000007088800888800000010180088824001193040900010100019020920230000000826004023000000000120476453506XXXXXX1795       VS11    0001111   NYV1 A E583040544004900N840000000008260K4S800    05DNPLANET VAPOR #200        H98963    VD84000000008260 N  599976770268                            000000000+                F DF 10433                     000000000  Y000000000 338   0000000000000.00 0000000.00   0000000.00                             000000000000000                                                                                                                                                     01418 A000000000000 0000000000000.26     00050 02200                  
02368620211480108DT67590675900000007088800888800000010180088824001193040900010100027020920230000000237504023000000000120476461675XXXXXX0441       VS11    0001111   NYV1 A E383040545303294N840000000002375N54J00    05DNPLANET VAPOR #200        683140    VD84000000002375 N  599976770268                            000000000+                F DF 00381                     000000000  N000000000       0000000000000.00 0000000.00   0000000.00                             000000000000000                                                                                                                                                     01418 A000000000000 0000000000000.34     00800 01500                  
02368630211480109DT67590675900000007088800888800000010180088824001193040900010100035020920230000000323804023000000000120476433477XXXXXX1280       VS11    0001111   NYV1 A E583040573591786N84000000000323895RZ00    05DNPLANET VAPOR #200        572864    VD84000000003238 N  599976770268                            000000000+                F DF 10433                     000000000  Y000000000 338   0000000000000.00 0000000.00   0000000.00                             000000000000000                                                                                                                                                     01418 A000000000000 0000000000000.24     00050 02200                  
02368640211480110DT67590675900000007088800888800000010180088824001193040900010100043020920230000000367004023000000000120476426684XXXXXX2054       VS11    0001111   NYV1 A E583040578653001N840000000003670XDHZ00    05DNPLANET VAPOR #200        02779C    VS84000000003670 N  599976770268                            000000000+                C CC 12112                     000000000  N000000000 497   0000000000000.00 0000000.00   0000000.00                             000000000000000                                                                                                                                                     01418 A000000000000 0000000000000.71     01650 01000                  
02368650211480111DT67590675900000007088800888800000010180088824001193040900010100050020920230000000377804023000000000120476461675XXXXXX4135       VS11    0001111   NYV1 A E463040598919161N840000000003778G4C600    05DNPLANET VAPOR #200        731260    VD84000000003778 N  599976770268                            000000000+                F DF 00381                     000000000  N000000000       0000000000000.00 0000000.00   0000000.00                             000000000000000                                                                                                                                                     01418 A000000000000 0000000000000.45     00800 01500                  
02368660211480112DT67590675900000007088800888800000010180088824001193040900010100068020920230000000323804023000000000120476473703XXXXXX5995       VS11    0001111   NYV1 A E463040618594324N840000000003238ZGX600    05DNPLANET VAPOR #200        069600    VD84000000003238 N  599976770268                            000000000+                F DF 10433                     000000000  Y000000000 338   0000000000000.00 0000000.00   0000000.00                             000000000000000                                                                                                                                                     01418 A000000000000 0000000000000.24     00050 02200                  
02368670211480113DT67590675900000007088800888800000010180088824001193040900010100076020920230000000029504023000000000120476473703XXXXXX5995       VK04VS111111111   NYV1 A E303040619674087N840000000000295RS6T00    05DNPLANET VAPOR #200        063062    VD84000000000295 N  599976770268                            000000000+                F DF 10439                     000000000  Y000000000 331   0000000000000.00 0000000.00   0000000.00                             000000000000000                                                                                                                                                     01418 F000000000000 0000000000000.22     00050 02200                  
02368680211480114DT67590675900000007088800888800000010180088824001193040900010100084020920230000000029504023000000000120476473703XXXXXX5995       VK04VS111111111   NYV1 A E583040621398982N840000000000295ZSBC00    05DNPLANET VAPOR #200        099344    VD84000000000295 N  599976770268                            000000000+                F DF 10439                     000000000  Y000000000 331   0000000000000.00 0000000.00   0000000.00                             000000000000000                                                                                                                                                     01418 F000000000000 0000000000000.22     00050 02200                  
02368690211480115DT67590675900000007088800888800000010180088824001193040900010100092020920230000000712504023000000000120476459954XXXXXX8352       VS11    0001111   NYV1 A E463040623792777N840000000007125NJH800    05DNPLANET VAPOR #200        H19139    VD84000000007125 N  599976770268                            000000000+                F DF 10433                     000000000  Y000000000 338   0000000000000.00 0000000.00   0000000.00                             000000000000000                                                                                                                                                     01418 A000000000000 0000000000000.26     00050 02200                  
02368700211480116DT67590675900000007088800888800000010180088824001193040900010100100020920230000000719004023000000000120476433477XXXXXX9944       VS11    0001111   NYV1 A E463040632171747N840000000007190L96J00    05DNPLANET VAPOR #200        667233    VD84000000007190 N  599976770268                            000000000+                F DF 10433                     000000000  Y000000000 338   0000000000000.00 0000000.00   0000000.00                             000000000000000                                                                                                                                                     01418 A000000000000 0000000000000.26     00050 02200                  
02368710211480117DT67590675900000007088800888800000010180088877287283040900010100110020920230000000075504023000000000120476510774XXXXXX6875       MS02WI09          NY 1 0 AMDSM3KV3X0209  N840000000000755          05DNPLANET VAPOR #200        014538    MD84000000000755 N  599976770268                            000000000+M10101C5434C    MDS  10815                     000000000  1                0000000000000.00 0000000.00   0000000.00                             000000000000000                                                                                                                                                   B101418  000000000000 0000000000000.22     00050 02200                  
02368720211480118DT67590675900000007088800888800000010180088877287283040900010100128020920230000000115904023000000000120476510774XXXXXX6875       MS02WI09          NY 1 0 AMDSR4C93X0209  N840000000001159          05DNPLANET VAPOR #200        014627    MD84000000001159 N  599976770268                            000000000+M10101C5434C    MDS  10815                     000000000  1                0000000000000.00 0000000.00   0000000.00                             000000000000000                                                                                                                                                   B101418  000000000000 0000000000000.23     00050 02200                  
02368730211480119DT67590675900000007088800888800000010180088824001193040900010100134020920230000000375004023000000000120476478200XXXXXX1846       VS11    0001111   NYV1 A E383040650847114N840000000003750F59S00    05DNPLANET VAPOR #200        040413    VD84000000003750 N  599976770268                            000000000+                F DF 10433                     000000000  Y000000000 338   0000000000000.00 0000000.00   0000000.00                             000000000000000                                                                                                                                                     01418 A000000000000 0000000000000.24     00050 02200                  
02368740211480120DT67590675900000007088800888800000010180088877287283040900010100144020920230000000474904023000000000120476517800XXXXXX1747       MS02WI09          NY 1 0 AMCSSJ0L670209  N840000000004749          05DNPLANET VAPOR #200        009884    MC84000000004749 N  599976770268                            000000000+M10101C5434C    MCS  00015                     000000000  N                0000000000000.00 0000000.00   0000000.00                             000000000000000                                                                                                                                                   B101418  000000000000 0000000000000.88     01650 01000                  
02368750211480121DT67590675900000007088800888800000010180088877287283040900010100151020920230000000475004023000000000120476557588XXXXXX0198       MS02WI09          NY 1 0 AMDJ6TZA200209  N840000000004750          05DNPLANET VAPOR #200        262678    MD84000000004750 N  599976770268                            000000000+M10101C5434C    MDJ  00402                     000000000  N                0000000000000.00 0000000.00   0000000.00                             000000000000000                                                                                                                                                   B101418  000000000000 0000000000000.65     01050 01500                  
02368760211480122DT67590675900000007088800888800000010180088877287283040900010100169020920230000000194304023000000000120476557588XXXXXX0198       MS02WI09          NY 1 0 AMDJCUA9670209  N840000000001943          05DNPLANET VAPOR #200        262726    MD84000000001943 N  599976770268                            000000000+M10101C5434C    MDJ  00402                     000000000  N                0000000000000.00 0000000.00   0000000.00                             000000000000000                                                                                                                                                   B101418  000000000000 0000000000000.35     01050 01500                  
02368770211480123DT67590675900000007088800888800000010180088824001193040900010100175020920230000000340104023000000000120476448233XXXXXX9979       VS11    0001111   NYV1 A E583040693052176N840000000003401VSX600    05DNPLANET VAPOR #200        031505    VD84000000003401 N  599976770268                            000000000+                F DF 10433                     000000000  Y000000000 338   0000000000000.00 0000000.00   0000000.00                             000000000000000                                                                                                                                                     01418 A000000000000 0000000000000.24     00050 02200                  
02368780211480124DT67590675900000007088800888800000010180088824001193040900010100183020920230000000213704023000000000120476459954XXXXXX7145       VS11    0001111   NYV1 A E303040725185839N840000000002137K3BJ00    05DNPLANET VAPOR #200        H43047    VD84000000002137 N  599976770268                            000000000+                F DF 10433                     000000000  Y000000000 338   0000000000000.00 0000000.00   0000000.00                             000000000000000                                                                                                                                                     01418 A000000000000 0000000000000.23     00050 02200                  
02368790211480125DT67590675900000007088800888800000010180088824001193040900010100191020920230000000271904023000000000120476400022XXXXXX8550       VS11    0001111   NYV1 A E463040727607912N840000000002719TD2900    05DNPLANET VAPOR #200        815099    VD84000000002719 N  599976770268                            000000000+                F DF 10433                     000000000  Y000000000 338   0000000000000.00 0000000.00   0000000.00                             000000000000000                                                                                                                                                     01418 A000000000000 0000000000000.23     00050 02200                  
02368800211480126DT67590675900000007088800888800000010180088824001193040900010100209020920230000000213704023000000000120476410881XXXXXX8092       VS11    0001111   NYV1 A E383040744496121N8400000000021376CNN00    05DNPLANET VAPOR #200        094348    VD84000000002137 N  599976770268                            000000000+                F DF 00381                     000000000  N000000000       0000000000000.00 0000000.00   0000000.00                             000000000000000                                                                                                                                                     01418 A000000000000 0000000000000.32     00800 01500                  
02368810211480127DT67590675900000007088800888800000010180088877287283040900010100219020920230000000388704023000000000120476531258XXXXXX6514       MS02WI09          NY 1 0 AMDJAJRO210209  N840000000003887          05DNPLANET VAPOR #200        100572    MD84000000003887 N  599976770268                            000000000+M10101C5434C    MDJ  10815                     000000000  1                0000000000000.00 0000000.00   0000000.00                             000000000000000                                                                                                                                                   B101418  000000000000 0000000000000.24     00050 02200                  
02368820211480128DT67590675900000007088800888800000010180088824001193040900010100225020920230000000113304023000000000120476435889XXXXXX3405       VK04VS111111111   NYV1 A E303040769753563N840000000001133GLFH00    05DNPLANET VAPOR #200        738875    VD84000000001133 N  599976770268                            000000000+                F PF 08165                     000000000  N000000000       0000000000000.00 0000000.00   0000000.00                             000000000000000                                                                                                                                                     01418 F000000000000 0000000000000.23     01600 00500                  
02368830211480129DT67590675900000007088800888800000010180088824001193040900010100233020920230000000213704023000000000120476400022XXXXXX0534       VS11    0001111   NYV1 A E383040775908094N840000000002137PS9Q00    05DNPLANET VAPOR #200        749480    VD84000000002137 N  599976770268                            000000000+                F DF 10433                     000000000  Y000000000 338   0000000000000.00 0000000.00   0000000.00                             000000000000000                                                                                                                                                     01418 A000000000000 0000000000000.23     00050 02200                  
02368840211480130DT67590675900000007088800888800000010180088824001193040900010100241020920230000000252604023000000000120476400022XXXXXX7132       VS11    0001111   NYV1 A E583040786846713N840000000002526PXN400    05DNPLANET VAPOR #200        408501    VD84000000002526 N  599976770268                            000000000+                F DF 10433                     000000000  Y000000000 338   0000000000000.00 0000000.00   0000000.00                             000000000000000                                                                                                                                                     01418 A000000000000 0000000000000.23     00050 02200                  
02368850211480131DT67590675900000007088800888800000010180088824001193040900010100258020920230000000318504023000000000120476410881XXXXXX0050       VS11    0001111   NYV1 A E383040791525755N8400000000031853JMS00    05DNPLANET VAPOR #200        223979    VD84000000003185 N  599976770268                            000000000+                F DF 00381                     000000000  N000000000       0000000000000.00 0000000.00   0000000.00                             000000000000000                                                                                                                                                     01418 A000000000000 0000000000000.40     00800 01500                  
02368860211480132DT67590675900000007088800888800000010180088824001193040900010100266020920230000000242904023000000000120476433477XXXXXX8488       VS11    0001111   NYV1 A E303040800657169N840000000002429DT6Z00    05DNPLANET VAPOR #200        040909    VD84000000002429 N  599976770268                            000000000+                F DF 10433                     000000000  Y000000000 338   0000000000000.00 0000000.00   0000000.00                             000000000000000                                                                                                                                                     01418 A000000000000 0000000000000.23     00050 02200                  
02368870211480133DT67590675900000007088800888800000010180088877287283040900010100276020920230000000505204023000000000120476553781XXXXXX7135       MS02WI09          NY 1 0 AMDSH3FD670209  N840000000005052          05DNPLANET VAPOR #200        544623    MD84000000005052 N  599976770268                            000000000+M10101C5434C    MDS  00402                     000000000  N                0000000000000.00 0000000.00   0000000.00                             000000000000000                                                                                                                                                   B101418  000000000000 0000000000000.68     01050 01500                  
02368880211480134DT67590675900000007088800888800000010180088824001193040900010100282020920230000000194304023000000000120476453506XXXXXX5029       VS11    0001111   NYV1 A E303040803523594N840000000001943282700    05DNPLANET VAPOR #200        H63912    VD84000000001943 N  599976770268                            000000000+                F DF 10433                     000000000  Y000000000 338   0000000000000.00 0000000.00   0000000.00                             000000000000000                                                                                                                                                     01418 A000000000000 0000000000000.23     00050 02200                  
02368890211480135DT67590675900000007088800888800000010180088824001193040900010100290020920230000000213704023000000000120476483312XXXXXX2184       VS11    0001111   NYV1 A E583040816806701N840000000002137CF2T00    05DNPLANET VAPOR #200        004117    VD84000000002137 N  599976770268                            000000000+                F DF 10433                     000000000  Y000000000 338   0000000000000.00 0000000.00   0000000.00                             000000000000000                                                                                                                                                     01418 A000000000000 0000000000000.23     00050 02200                  
02368900211480136DT67590675900000007088800888800000010180088824001193040900010100308020920230000000058204023000000000120476483312XXXXXX2184       VK04VS111111111   NYV1 A E303040821775804N840000000000582CZBG00    05DNPLANET VAPOR #200        074917    VD84000000000582 N  599976770268                            000000000+                F DF 10439                     000000000  Y000000000 331   0000000000000.00 0000000.00   0000000.00                             000000000000000                                                                                                                                                     01418 F000000000000 0000000000000.22     00050 02200                  
02368910211480137DT67590675900000007088800888800000010180088824001193040900010100316020920230000000701704023000000000120476474187XXXXXX4114       VS11    0001111   NYV1 A E303040859839883N84000000000701749S800    05DNPLANET VAPOR #200        085303    VD84000000007017 N  599976770268                            000000000+                F DF 00381                     000000000  N000000000       0000000000000.00 0000000.00   0000000.00                             000000000000000                                                                                                                                                     01418 A000000000000 0000000000000.71     00800 01500                  
02368920211480138DT67590675900000007088800888800000010180088824001193040900010100324020920230000000323904023000000000120476498503XXXXXX1661       VS11    0001111   NYV1 A E583041006590248N840000000003239JVQN00    05DNPLANET VAPOR #200        021427    VD84000000003239 N  599976770268                            000000000+                F DF 00381                     000000000  N000000000       0000000000000.00 0000000.00   0000000.00                             000000000000000                                                                                                                                                     01418 A000000000000 0000000000000.41     00800 01500                  
