06809030270114878AD675906759000000133008001028000009071900019726320000001987007112023NYY19223ND6759800102071320232023192027331                                                                                                                                                                                                                                                                                                                                                                                                                                                                                                                                                                                              
06809040270114881AD675906759000000133008001028000009071900014007130000002146007112023NYY19223ND6759800102071320232023192027332                                                                                                                                                                                                                                                                                                                                                                                                                                                                                                                                                                                              
06809050270114884AD675906759000000133008001028000009071900019837570000002487007112023NYY19223ND6759800102071320232023192027379                                                                                                                                                                                                                                                                                                                                                                                                                                                                                                                                                                                              
06809060270114887AD675906759000000198288001098000009071900011512240000002487007112023NYY19223ND6759800109071320232023192027380                                                                                                                                                                                                                                                                                                                                                                                                                                                                                                                                                                                              
06809070270114890AD675906759000000142748001028000009071900013680690000001987007112023NYY19223ND6759800102071320232023192027381                                                                                                                                                                                                                                                                                                                                                                                                                                                                                                                                                                                              
06809080270114893AD675906759000000142748001028000009071900013179860000002146007112023NYY19223ND6759800102071320232023192027382                                                                                                                                                                                                                                                                                                                                                                                                                                                                                                                                                                                              
06809090270461607AD675906759000000142748001028000009077231510223530000002111207112023NYY19223YC6759800102071320232023151022353                                                                                                                                                                                                                                                                                                                                                                                                                                                                                                                                                                                              
06809100272068393BH6759067590000002684980012580000090170712202319323000000000015448    0000090001908120N8001256759D07132023090                                                                                                                                                                                                                                                                                                                                                                                                                                                                                                                                                                                              
06809110272068394DT67590675900000026849800125800000010180012587287283193900019080812071020230000001977019323000000000015448517545XXXXXX2612       ME03KE06MS02      YY 4607AMDJIJINI80707  N840000000019770          81DNCBD8885133385            007236    MD84000000019770 NDR599978220273   98C1764D24T8AEF142FCD61  000000000+600450S00130    MDJ  10813                     000000000  1                0000000000000.00 0000000.00   0000000.00                             000000000000000                                                                                                                                                   U0015WPE 000000000000 0000000000000.32     00050 02200                  
06809120272068394DR67590675900000026849800125800000010198C1764D24T8AEF142FCD61  Y000000000000                                                                                                                                                                                                                                                                                                                                                                                                                                                                                                                                                                                                                               
06809130272060001G26759067590000002684980012580000001018885133385               WY           9 J               210                                      NNNN           210000000000000000000000000                        7                                          78220273                                                                                                                                                                                                                                                                                                                                                                                                                                               
06809140272068395DT67590675900000026849800125800000010180012587287283193900019080846071020230000001265819323000000000015448559591XXXXXX7289       ME03KE06PT01      YY 4607AMCWLACRI80707  N840000000012658          81DNCBD8885133385            02085S    MC84000000012658 NDR599978220273   713686D995T8230A02037A9  000000000+600450S00130    MCW  02182                     000000000  N                0000000000000.00 0000000.00   0000000.00                             000000000000000                                                                                                                                                   U0015WPE 000000000000 0000000000003.39     02600 01000                  
06809150272068395DR675906759000000268498001258000000101713686D995T8230A02037A9  Y000000000000                                                                                                                                                                                                                                                                                                                                                                                                                                                                                                                                                                                                                               
06809160272060001G26759067590000002684980012580000001018885133385               WY           9 W               210                                      NNNN           210000000000000000000000000                        7                                          78220273                                                                                                                                                                                                                                                                                                                                                                                                                                               
06809170272068396DT67590675900000026849800125800000010680012587287283193900019081158071120230000000354219323000000000015448521322XXXXXX7097                         YY 4607AMPL0IXM5H0711  N840000000003542          81CNCBD8885133385            832408    MC84000000003542 NDR599978220273   79D31698EETC19E18E21478  000000000+600450S00130    MPL  00564                     000000000  N                0000000000000.00 0000000.00   0000000.00                             000000000000000                                                                                                                                                     015WPE 000000000000-0000000000000.62     01750 00000                  
06809180272068396DR67590675900000026849800125800000010679D31698EETC19E18E21478  R000000000000                                                                                                                                                                                                                                                                                                                                                                                                                                                                                                                                                                                                                               
06809190272060001G26759067590000002684980012580000001068885133385               WY           9 L               210                                      NNNN           210000000000000000000000000                        7                                          78220273                                                                                                                                                                                                                                                                                                                                                                                                                                               
06809200272068397DT67590675900000026849800125800000010680012587287283193900019081166071120230000000619819323000000000015448521322XXXXXX7097                         YY 4607AMPL0M6L5I0711  N840000000006198          81CNCBD8885133385            966190    MC84000000006198 NDR599978220273   79D31698EETA76A6FABCD0B  000000000+600450S00130    MPL  00564                     000000000  N                0000000000000.00 0000000.00   0000000.00                             000000000000000                                                                                                                                                     015WPE 000000000000-0000000000001.08     01750 00000                  
06809210272068397DR67590675900000026849800125800000010679D31698EETA76A6FABCD0B  R000000000000                                                                                                                                                                                                                                                                                                                                                                                                                                                                                                                                                                                                                               
06809220272060001G26759067590000002684980012580000001068885133385               WY           9 L               210                                      NNNN           210000000000000000000000000                        7                                          78220273                                                                                                                                                                                                                                                                                                                                                                                                                                               
06809230272068398DT67590675900000026849800125800000010680012587287283193900019081174071120230000000149519323000000000015448521322XXXXXX7097                         YY 4607AMPL1ZF7GP0711  N840000000001495          81CNCBD8885133385            158053    MC84000000001495 NDR599978220273   79D31698EET46BE66F1DBD6  000000000+600450S00130    MPL  00564                     000000000  N                0000000000000.00 0000000.00   0000000.00                             000000000000000                                                                                                                                                     015WPE 000000000000-0000000000000.26     01750 00000                  
06809240272068398DR67590675900000026849800125800000010679D31698EET46BE66F1DBD6  R000000000000                                                                                                                                                                                                                                                                                                                                                                                                                                                                                                                                                                                                                               
06809250272060001G26759067590000002684980012580000001068885133385               WY           9 L               210                                      NNNN           210000000000000000000000000                        7                                          78220273                                                                                                                                                                                                                                                                                                                                                                                                                                               
06809260272068399DT67590675900000026849800125800000010680012587287283193900019081182071120230000001280319323000000000015448524366XXXXXX8446                         YY 4607AMPLAXY79O0711  N840000000012803          81CNCBD8885133385            011261    MC84000000012803 NDR599978220273   370AD9DC28TFA0CA11FA882  000000000+600450S00130    MPL  00564                     000000000  N                0000000000000.00 0000000.00   0000000.00                             000000000000000                                                                                                                                                     015WPE 000000000000-0000000000002.24     01750 00000                  
06809270272068399DR675906759000000268498001258000000106370AD9DC28TFA0CA11FA882  R000000000000                                                                                                                                                                                                                                                                                                                                                                                                                                                                                                                                                                                                                               
06809280272060001G26759067590000002684980012580000001068885133385               WY           9 L               210                                      NNNN           210000000000000000000000000                        7                                          78220273                                                                                                                                                                                                                                                                                                                                                                                                                                               
06809290272068400DT67590675900000026849800125800000010680012587287283193900019081190071120230000000894619323000000000015448546680XXXXXX9785                         YY 4607AMPLLFRWOW0711  N840000000008946          81CNCBD8885133385            011817    MC84000000008946 NDR599978220273   67D12838B3T382E4E711E48  000000000+600450S00130    MPL  00564                     000000000  N                0000000000000.00 0000000.00   0000000.00                             000000000000000                                                                                                                                                     015WPE 000000000000-0000000000001.57     01750 00000                  
06809300272068400DR67590675900000026849800125800000010667D12838B3T382E4E711E48  R000000000000                                                                                                                                                                                                                                                                                                                                                                                                                                                                                                                                                                                                                               
06809310272060001G26759067590000002684980012580000001068885133385               WY           9 L               210                                      NNNN           210000000000000000000000000                        7                                          78220273                                                                                                                                                                                                                                                                                                                                                                                                                                               
06809320272068401DT67590675900000026849800125800000010680012574001193193900019081202071120230000001489219323000000000015448410039XXXXXX1437               0000000   YYV4 07T583193014107797N840000000014892VDMP00    01CNCBD8885133385            59732C    VS84000000014892 NDR599978220273   59740A998CT9053A1CA40AA  000000000+                C CC 00245                     000000000  N000000000 166   0000000000000.00 0000000.00   0000000.00                             000000000000000                                                                                                                                                     015WPE 000000014892-0000000000002.62     01760 00000                  
06809330272068401DR67590675900000026849800125800000010659740A998CT9053A1CA40AA  U000000014892                 P1                                                                                                                                                                                                                                                                                                                                                                                                                                                                                                                                                                                                            
06809340272060001P16759067590000002684980012580000001060000000000000000                             2000000000000000000000000              000000000000                    0000000000000000000000000                    000000000000                                                                                                                                                                                                                                                                                                                                                                                                                                                                                        
06809350272060002G2675906759000000268498001258000000106888-5133385              WY           9 C                00                                      NNNN   Y                      000000000000                                                                   78220273                                                                                                                                                                                                                                                                                                                                                                                                                                               
06809360272640002BH6759067590000001956280010180000090170712202319323000000000159241    0000090001990052N8001016759C07132023099                                                                                                                                                                                                                                                                                                                                                                                                                                                                                                                                                                                              
06809370272640003DT67590675900000019562800101800000010180010124001193193900019900018070820230000000248319323000000000159241463405XXXXXX8443       PS02VK040111111   NYV1 J E583189509967474N840000000002483RRR400    07DNPLANET VAPOR #1100       052646    VD84000000002483 N  599977439645                            000000000+                F DF 10425                     000000000  Y000000010 338   0000000000000.00 0000000.00   0000000.00                             000000000000000                                                                                                                                                     01418 A000000000000 0000000000000.23     00050 02200                  
06809380272640001E167590675900000019562800101800000010100E068C8027E 00000000000.004040404040404040404040404040404040404040404040404006011203A00000000000000000000000404040404040404040404040404040  0000084000000000000000230708B68F365C0A02DF306399BB6B404040400840A0000000031010000000000000000000AC452BD07C38599330300000000000004040404040404040 000000024.83 000000000.004040400000000000000000    80                                                                                                                                                                                                                                                                                                                  
06809390272640002G2675906759000000195628001018000000101BLYTHEWOOD               SC           5 D                00                                      NNNN00 N 00                   000000000000                                                                   77439645                                                                                                                                                                                                                                                                                                                                                                                                                                               
06809400272640004DT67590675900000019562800101800000010180010124001193193900019900026070820230000000323819323000000000159241473703XXXXXX5738       PS02VK040111111   NYV1 J E303189546237536N840000000003238ZNMG00    07DNPLANET VAPOR #1100       081412    VD84000000003238 N  599977439645                            000000000+                F DF 10425                     000000000  Y000000010 338   0000000000000.00 0000000.00   0000000.00                             000000000000000                                                                                                                                                     01418 A000000000000 0000000000000.24     00050 02200                  
06809410272640001E167590675900000019562800101800000010100E068C80029 00000000000.004040404040404040404040404040404040404040404040404006061203A00000000000000000000000404040404040404040404040404040  00000840000000000000002307080335BADF8A232B61885353E4404040400840A000000003101000000000000000000090504040E0B090F020200000000000004040404040404040 000000032.38 000000000.004040400000000000000000    80                                                                                                                                                                                                                                                                                                                  
06809420272640002G2675906759000000195628001018000000101BLYTHEWOOD               SC           5 D                00                                      NNNN00 N 00                   000000000000                                                                   77439645                                                                                                                                                                                                                                                                                                                                                                                                                                               
06809430272640005DT67590675900000019562800101800000010180010177287283193900019900036070820230000000466319323000000000159241517805XXXXXX1452       ME01KE01M101      NY 1 0 AMPLX4U0QP0708  N840000000004663          05DNPLANET VAPOR #1100       05329B    MC84000000004663 N  599977439645                            000000000+M10101C5434C    MPL  00585                     000000000  N                0000000000000.00 0000000.00   0000000.00                             000000000000000                                                                                                                                                   B101418  000000000000 0000000000001.57     03150 01000                  
06809440272640001E167590675900000019562800101800000010100E0F8C800CC 00000000000.00404040404040404040404040404040404040404040404040400110A04001220000000000000000000000FF00000000000000000000000000  0001084039000000008000230708C4B1A948C79F7CD1B8C544AC404040400840A00000000410100000000000000000008E2F4A7E3890913100120000000000004040401E40404040 000000046.63 000000000.001E03000000000000000000    80                                                                                                                                                                                                                                                                                                                  
06809450272640002G2675906759000000195628001018000000101BLYTHEWOOD               SC           5 L                                                        NNNN              000000000000000000000000                        7                                          77439645                                                                                                                                                                                                                                                                                                                                                                                                                                               
06809460272640006DT67590675900000019562800101800000010180010124001193193900019900042070820230000000169919323000000000159241473703XXXXXX8584       PS02VK040111111   NYV1 J E583189574965953N8400000000016993MSJ00    07DNPLANET VAPOR #1100       080518    VD84000000001699 N  599977439645                            000000000+                F DF 10425                     000000000  Y000000010 338   0000000000000.00 0000000.00   0000000.00                             000000000000000                                                                                                                                                     01418 A000000000000 0000000000000.23     00050 02200                  
06809470272640001E167590675900000019562800101800000010100E068C801B5 00000000000.004040404040404040404040404040404040404040404040404006061203A00000000000000000000000404040404040404040404040404040  00000840000000000000002307083E82ADBC7B8220BA06D4B6DE404040400840A0000000031010000000000000000000507010C020F0E0B020200000000000004040404040404040 000000016.99 000000000.004040400000000000000000    80                                                                                                                                                                                                                                                                                                                  
06809480272640002G2675906759000000195628001018000000101BLYTHEWOOD               SC           5 D                00                                      NNNN00 N 00                   000000000000                                                                   77439645                                                                                                                                                                                                                                                                                                                                                                                                                                               
06809490272640007DT67590675900000019562800101800000010180010177287283193900019900051070820230000000323819323000000000159241545443XXXXXX7024       ME01KE01M101      NY 1 0 AMDJZWNVQP0708  N840000000003238          07DNPLANET VAPOR #1100       047237    MD84000000003238 N  599977439645                            000000000+M10101M0034C    MDJ  00397                     000000000  N                0000000000000.00 0000000.00   0000000.00                             000000000000000                                                                                                                                                   B101418  000000000000 0000000000000.87     01900 02500                  
06809500272640001E16759067590000001956280010180000001010000084801C8 00000000000.00404040404040404040404040404040404040404040404040400110A04001220000000000000000000000FF00000000000000000000000000  00000840198000000080012307083C04A74F8A9BAC40847D7D02404040400840A0000000041010000000000000000000404040404040404040404040404040404040401F40404040 000000032.38 000000000.001F03020000000000000000    80                                                                                                                                                                                                                                                                                                                  
06809510272640002G2675906759000000195628001018000000101BLYTHEWOOD               SC           5 J                                                        NNNN              000000000000000000000000       03               7                                          77439645                                                                                                                                                                                                                                                                                                                                                                                                                                               
06809520272640008DT67590675900000019562800101800000010180010124001193193900019900067070820230000000215919323000000000159241410702XXXXXX6549       PS02VK040111111   NYV1 J E583189591520063N840000000002159FNQJ00    05DNPLANET VAPOR #1100       121689    VD84000000002159 N  599977439645                            000000000+                F DF 00425                     000000000  N000000010       0000000000000.00 0000000.00   0000000.00                             000000000000000                                                                                                                                                     01418 A000000000000 0000000000000.58     01750 02000                  
06809530272640001E167590675900000019562800101800000010100E0F8C8011C 00000000000.004040404040404040404040404040404040404040404040404006010A03A00000000000000000000000404040404040404040404040404040  0000084018008080008000230708FA2783619B0F36B1D4A3CEC4404040400840A00000000310100000000000000000002EBE30BB42492B8630300000000000004040401E40404040 000000021.59 000000000.001E00000000000000000000    80                                                                                                                                                                                                                                                                                                                  
06809540272640002G2675906759000000195628001018000000101BLYTHEWOOD               SC           5 D                00                                      NNNN00 N 00                   000000000000                                                                   77439645                                                                                                                                                                                                                                                                                                                                                                                                                                               
06809550272640009DT67590675900000019562800101800000010180010177287283193900019900077070820230000000485819323000000000159241559898XXXXXX6084       ME01KE01M101      NY 1 0 AMDJBYUMBK0708  N840000000004858          07DNPLANET VAPOR #1100       121651    MD84000000004858 N  599977439645                            000000000+M10101M0034C    MDJ  10833                     000000000  1                0000000000000.00 0000000.00   0000000.00                             000000000000000                                                                                                                                                   A101418  000000000000 0000000000000.24     00050 02200                  
06809560272640001E1675906759000000195628001018000000101000008480009 00000000000.00404040404040404040404040404040404040404040404040400114A14003020000000000000000000000FF00000000000000000000000000  000008401B8000000080012307089DE1C28BA3A49801CDC310BE404040400840A0000000041010000000000000000000404040404040404040404040404040404040403F40404040 000000048.58 000000000.003F00020000000000000000    80                                                                                                                                                                                                                                                                                                                  
06809570272640002G2675906759000000195628001018000000101BLYTHEWOOD               SC           5 J                                                        NNNN              000000000000000000000000       03               C                                          77439645                                                                                                                                                                                                                                                                                                                                                                                                                                               
06809580272640010DT67590675900000019562800101800000010180010124001193193900019900083070820230000000075419323000000000159241481566XXXXXX1940       PS02VK040111111   NYV1 J E463189699831679N840000000000754GSLQ00    07DNPLANET VAPOR #1100       H43451    VD84000000000754 N  599977439645                            000000000+                F DF 10425                     000000000  Y000000010 338   0000000000000.00 0000000.00   0000000.00                             000000000000000                                                                                                                                                     01418 A000000000000 0000000000000.22     00050 02200                  
06809590272640001E167590675900000019562800101800000010100E068C80084 00000000000.00404040404040404040404040404040404040404040404040401F4AFF32A00000000010030273000000004000000000000000000000000000  0000084000400000000000230708761FA071BCB5F0426B5A2C7F404040400840A000000003101000000000000000000064C6BAAD4082FA2E30300000000000004040404040404040 000000007.54 000000000.004040400000000000000000    80                                                                                                                                                                                                                                                                                                                  
06809600272640002G2675906759000000195628001018000000101BLYTHEWOOD               SC           5 D                00                                      NNNN00 N 00                   000000000000                                                                   77439645                                                                                                                                                                                                                                                                                                                                                                                                                                               
06809610272640011DT67590675900000019562800101800000010180010124001193193900019900091070820230000000475019323000000000159241434236XXXXXX7714       PS02VK040111111   NYV1 J E383189731764652N84000000000475085R600    07DNPLANET VAPOR #1100       023887    VD84000000004750 N  599977439645                            000000000+                F DF 00425                     000000000  N000000010       0000000000000.00 0000000.00   0000000.00                             000000000000000                                                                                                                                                     01418 A000000000000 0000000000001.03     01750 02000                  
06809620272640001E167590675900000019562800101800000010100E068C80064 00000000000.00404040404040404040404040404040404040404040404040401F43FE51200000000000000000034532000000000000000000000000000000  0000084000400000000000230708F9B559847699FF326C5F0FB0404040400840A0000000031010000000000000000000404040404040404040404040404040404040404040404040 000000047.50 000000000.004040400000000000000000    80                                                                                                                                                                                                                                                                                                                  
06809630272640002G2675906759000000195628001018000000101BLYTHEWOOD               SC           5 D                00                                      NNNN00 N 00                   000000000000                                                                   77439645                                                                                                                                                                                                                                                                                                                                                                                                                                               
06809640272640012DT67590675900000019562800101800000010180010124001193193900019900109070820230000000248319323000000000159241442756XXXXXX7907       PS02VK040111111   NYV1 J E583189749274283N840000000002483MTF700    05DNPLANET VAPOR #1100       084816    VD84000000002483 N  599977439645                            000000000+                F DF 10425                     000000000  Y000000010 338   0000000000000.00 0000000.00   0000000.00                             000000000000000                                                                                                                                                     01418 A000000000000 0000000000000.23     00050 02200                  
06809650272640001E167590675900000019562800101800000010100E0F8C806AA 00000000000.004040404040404040404040404040404040404040404040404006011203A08000000000000000000000404040404040404040404040404040  000008401800808000800023070807EB1810A3F0CF372CC3C9BD404040400840A00000000310100000000000000000006020B0E00080000020200000000000004040401E40404040 000000024.83 000000000.001E00000000000000000000    80                                                                                                                                                                                                                                                                                                                  
06809660272640002G2675906759000000195628001018000000101BLYTHEWOOD               SC           5 D                00                                      NNNN00 N 00                   000000000000                                                                   77439645                                                                                                                                                                                                                                                                                                                                                                                                                                               
06809670272640013DT67590675900000019562800101800000010180010124001193193900019900117070820230000000269919323000000000159241412938XXXXXX9241       PS02VK040111111   NYV1 J E463189750903320N840000000002699W9PG00    05DNPLANET VAPOR #1100       055130    VD84000000002699 N  599977439645                            000000000+                F DF 00425                     000000000  N000000010       0000000000000.00 0000000.00   0000000.00                             000000000000000                                                                                                                                                     01418 A000000000000 0000000000000.67     01750 02000                  
06809680272640001E167590675900000019562800101800000010100E0F8C8005E 00000000000.004040404040404040404040404040404040404040404040404006011203A08000000000000000000000404040404040404040404040404040  0000084018008080008000230708A1B0DDA408A135F6115ADAF0404040400840A0000000031010000000000000000000404040404040404040404040404040404040401E40404040 000000026.99 000000000.001E00000000000000000000    80                                                                                                                                                                                                                                                                                                                  
06809690272640002G2675906759000000195628001018000000101BLYTHEWOOD               SC           5 D                00                                      NNNN00 N 00                   000000000000                                                                   77439645                                                                                                                                                                                                                                                                                                                                                                                                                                               
06809700272640014DT67590675900000019562800101800000010180010124001193193900019900125070820230000000475019323000000000159241474474XXXXXX0324       PS02VK040111111   NYV1 J E583189755328233N840000000004750P86700    05DNPLANET VAPOR #1100       145480    VD84000000004750 N  599977439645                            000000000+                F DF 10425                     000000000  Y000000010 338   0000000000000.00 0000000.00   0000000.00                             000000000000000                                                                                                                                                     01418 A000000000000 0000000000000.24     00050 02200                  
06809710272640001E167590675900000019562800101800000010100E0F8C800EF 00000000000.004040404040404040404040404040404040404040404040404006021203A08000000000000000000000404040404040404040404040404040  0000084018008080008000230708CAD3615971B76F986473292A404040400840A0000000031010000000000000000000003060100080000020200000000000004040401E40404040 000000047.50 000000000.001E00000000000000000000    80                                                                                                                                                                                                                                                                                                                  
06809720272640002G2675906759000000195628001018000000101BLYTHEWOOD               SC           5 D                00                                      NNNN00 N 00                   000000000000                                                                   77439645                                                                                                                                                                                                                                                                                                                                                                                                                                               
06809730272640015DT67590675900000019562800101800000010180010124001193193900019900133070820230000000065919323000000000159241423223XXXXXX6485       PS02VK040111111   NYV1 J E583189816953105N840000000000659P5GW00    05DNPLANET VAPOR #1100       051331    VD84000000000659 N  599977439645                            000000000+                F DF 00425                     000000000  N000000010       0000000000000.00 0000000.00   0000000.00                             000000000000000                                                                                                                                                     01418 A000000000000 0000000000000.32     01750 02000                  
06809740272640001E167590675900000019562800101800000010100E0F8C801ED 00000000000.004040404040404040404040404040404040404040404040404006011203A02000000000000000000000404040404040404040404040404040  0000084018008080008000230708E631D6FEE65802E3607503B8404040400840A000000003101000000000000000000008B3DEB30080000000000000000000004040401E40404040 000000006.59 000000000.001E00000000000000000000    80                                                                                                                                                                                                                                                                                                                  
06809750272640002G2675906759000000195628001018000000101BLYTHEWOOD               SC           5 D                00                                      NNNN00 N 00                   000000000000                                                                   77439645                                                                                                                                                                                                                                                                                                                                                                                                                                               
06809760272640016DT67590675900000019562800101800000010180010177287283193900019900143070820230000000465019323000000000159241531258XXXXXX8775       ME01KE01M101      NY 1 0 AMDJN4ZIIQ0708  N840000000004650          05DNPLANET VAPOR #1100       164140    MD84000000004650 N  599977439645                            000000000+M10101C5434C    MDJ  10833                     000000000  1                0000000000000.00 0000000.00   0000000.00                             000000000000000                                                                                                                                                   B101418  000000000000 0000000000000.24     00050 02200                  
06809770272640001E167590675900000019562800101800000010100E0F8C8038D 00000000000.00404040404040404040404040404040404040404040404040400114A00201A20000000000000000000000FF00000000000000000000000000  0000084018008000008000230708F07D73D86EF43B1D2B498281404040400840A00000000410100000000000000000003A0F44B32EE9DE5300100000000000004040401E40404040 000000046.50 000000000.001E03000000000000000000    80                                                                                                                                                                                                                                                                                                                  
06809780272640002G2675906759000000195628001018000000101BLYTHEWOOD               SC           5 J                                                        NNNN              000000000000000000000000                        7                                          77439645                                                                                                                                                                                                                                                                                                                                                                                                                                               
06809790272640017DT67590675900000019562800101800000010180010124001193193900019900158070920230000000237519323000000000159241438419XXXXXX7756       PS02VK040111111   NYV1 J E463190586510408N840000000002375ZFSQ00    05DNPLANET VAPOR #1100       021731    VD84000000002375 N  599977439645                            000000000+                F DF 00425                     000000000  N000000010       0000000000000.00 0000000.00   0000000.00                             000000000000000                                                                                                                                                     01418 A000000000000 0000000000000.62     01750 02000                  
06809800272640001E167590675900000019562800101800000010100E0F8C800A4 00000000000.004040404040404040404040404040404040404040404040404006011203A0A000000000000000000000404040404040404040404040404040  0001084018008080008000230709E8414CFF608CC7AD48585C47404040400840A0000000031010000000000000000000A7B98FAD0082000000000000000000004040401E40404040 000000023.75 000000000.001E00000000000000000000    80                                                                                                                                                                                                                                                                                                                  
06809810272640002G2675906759000000195628001018000000101BLYTHEWOOD               SC           5 D                00                                      NNNN00 N 00                   000000000000                                                                   77439645                                                                                                                                                                                                                                                                                                                                                                                                                                               
06809820272640018DT67590675900000019562800101800000010180010124001193193900019900166070920230000000547719323000000000159241430602XXXXXX3192       PS02VK040111111   NYV1 J E463190590890725N8400000000054774GB700    05DNPLANET VAPOR #1100       835177    VD84000000005477 N  599977439645                            000000000+                F DF 00425                     000000000  N000000010       0000000000000.00 0000000.00   0000000.00                             000000000000000                                                                                                                                                     01418 A000000000000 0000000000001.16     01750 02000                  
06809830272640001E167590675900000019562800101800000010100E0F8C80135 00000000000.004040404040404040404040404040404040404040404040404006011203A0A000000000000000000000404040404040404040404040404040  0000084018008080008000230709FE4444DC6DD957A42B0E315D404040400840A0000000031010000000000000000000CC4FC9110382000000000000000000004040401E40404040 000000054.77 000000000.001E00000000000000000000    80                                                                                                                                                                                                                                                                                                                  
06809840272640002G2675906759000000195628001018000000101BLYTHEWOOD               SC           5 D                00                                      NNNN00 N 00                   000000000000                                                                   77439645                                                                                                                                                                                                                                                                                                                                                                                                                                               
06809850272640019DT67590675900000019562800101800000010180010124001193193900019900174070920230000000280719323000000000159241461675XXXXXX7260       PS02VK040111111   NYV1 J E463190643747297N840000000002807KX2J00    05DNPLANET VAPOR #1100       777240    VD84000000002807 N  599977439645                            000000000+                F DF 00425                     000000000  N000000010       0000000000000.00 0000000.00   0000000.00                             000000000000000                                                                                                                                                     01418 A000000000000 0000000000000.69     01750 02000                  
06809860272640001E167590675900000019562800101800000010100E0F8C8015B 00000000000.004040404040404040404040404040404040404040404040404006011203A02000000000000000000000404040404040404040404040404040  0004084018008080008000230709B0BEDD65806B99AF14065BBE404040400840A00000000310100000000000000000005004128A0086000000000000000000004040401E40404040 000000028.07 000000000.001E00000000000000000000    80                                                                                                                                                                                                                                                                                                                  
06809870272640002G2675906759000000195628001018000000101BLYTHEWOOD               SC           5 D                00                                      NNNN00 N 00                   000000000000                                                                   77439645                                                                                                                                                                                                                                                                                                                                                                                                                                               
06809880272640020DT67590675900000019562800101800000010180010124001193193900019900182070920230000000593919323000000000159241461675XXXXXX7260       PS02VK040111111   NYV1 J E463190646999533N840000000005939NCGS00    05DNPLANET VAPOR #1100       780780    VD84000000005939 N  599977439645                            000000000+                F DF 00425                     000000000  N000000010       0000000000000.00 0000000.00   0000000.00                             000000000000000                                                                                                                                                     01418 A000000000000 0000000000001.24     01750 02000                  
06809890272640001E167590675900000019562800101800000010100E0F8C8015C 00000000000.004040404040404040404040404040404040404040404040404006011203A0A000000000000000000000404040404040404040404040404040  0004084018008080008000230709655A0B2BEAC8405B558FDF34404040400840A0000000031010000000000000000000BD89674B0086000000000000000000004040401E40404040 000000059.39 000000000.001E00000000000000000000    80                                                                                                                                                                                                                                                                                                                  
06809900272640002G2675906759000000195628001018000000101BLYTHEWOOD               SC           5 D                00                                      NNNN00 N 00                   000000000000                                                                   77439645                                                                                                                                                                                                                                                                                                                                                                                                                                               
06809910272640021DT67590675900000019562800101800000010180010124001193193900019900190070920230000000493919323000000000159241461675XXXXXX4035       PS02VK040111111   NYV1 J E583190728040589N84000000000493938TM00    05DNPLANET VAPOR #1100       859970    VD84000000004939 N  599977439645                            000000000+                F DF 00425                     000000000  N000000010       0000000000000.00 0000000.00   0000000.00                             000000000000000                                                                                                                                                     01418 A000000000000 0000000000001.06     01750 02000                  
06809920272640001E167590675900000019562800101800000010100E0F8C80314 00000000000.004040404040404040404040404040404040404040404040404006010A03A08000000000000000000000404040404040404040404040404040  000108401800808000800023070922630980B5C8613E4DC3E9C1404040400840A0000000031010000000000000000000F5CE6015F71B087530300000000000004040401E40404040 000000049.39 000000000.001E00000000000000000000    80                                                                                                                                                                                                                                                                                                                  
06809930272640002G2675906759000000195628001018000000101BLYTHEWOOD               SC           5 D                00                                      NNNN00 N 00                   000000000000                                                                   77439645                                                                                                                                                                                                                                                                                                                                                                                                                                               
06809940272640022DT67590675900000019562800101800000010180010124001193193900019900208070920230000000809719323000000000159241441839XXXXXX0028       PS02VK040111111   NYV1 0 N303190744049702N8400000000080977Q3C00    05DNPLANET VAPOR #1100       622013    VS84000000008097 N  599977439645                            000000000+                D CD 11868                     000000000  N000000010 105   0000000000000.00 0000000.00   0000000.00                             000000000000000                                                                                                                                                     01418  000000000000 0000000000002.65     03150 01000                  
06809950272640001E167590675900000019562800101800000010100E0F8C8022A 00000000000.004040404040404040404040404040404040404040404040404006011203A02000000000000000000000404040404040404040404040404040  000008401800808000800023070961FE85637473C89B99E72999404040400840A0000000031010000000000000000000B51F03C50080000000000000000000004040401E40404040 000000080.97 000000000.001E00000000000000000000    80                                                                                                                                                                                                                                                                                                                  
06809960272640002G2675906759000000195628001018000000101BLYTHEWOOD               SC           5 C                00                                      NNNN00 Y 00                   000000000000                                                                   77439645                                                                                                                                                                                                                                                                                                                                                                                                                                               
06809970272640023DT67590675900000019562800101800000010180010124001193193900019900216070920230000000252619323000000000159241410894XXXXXX1758       PS02VK040111111   NYV1 J E303190745487876N840000000002526ZT5X00    05DNPLANET VAPOR #1100       062167    VD84000000002526 N  599977439645                            000000000+                F DF 10425                     000000000  Y000000010 338   0000000000000.00 0000000.00   0000000.00                             000000000000000                                                                                                                                                     01418 A000000000000 0000000000000.23     00050 02200                  
06809980272640001E167590675900000019562800101800000010100E0F8C8023E 00000000000.004040404040404040404040404040404040404040404040404006011203A0A000000000000000000000404040404040404040404040404040  0000084018008080008000230709E8FDE3B472AAACC5AC57F1B6404040400840A0000000031010000000000000000000FD4CDB0420A2544A30300000000000004040401E40404040 000000025.26 000000000.001E00000000000000000000    80                                                                                                                                                                                                                                                                                                                  
06809990272640002G2675906759000000195628001018000000101BLYTHEWOOD               SC           5 D                00                                      NNNN00 N 00                   000000000000                                                                   77439645                                                                                                                                                                                                                                                                                                                                                                                                                                               
06810000272640024DT67590675900000019562800101800000010180010124001193193900019900224071020230000000176419323000000000159241410881XXXXXX3829       VS11    0001111   NYV1 A E463191565023669N840000000001764RF3600    07DNPLANET VAPOR #1100       050081    VD84000000001764 N  599977439645                            000000000+                F DF 00381                     000000000  N000000000       0000000000000.00 0000000.00   0000000.00                             000000000000000                                                                                                                                                     01418 A000000000000 0000000000000.29     00800 01500                  
06810010272640001E167590675900000019562800101800000010100E068C8007D 00000000000.004040404040404040404040404040404040404040404040404006011203A00000000000000000000000404040404040404040404040404040  0000084020000000000000230710C52B3FC95D72A10EA24DC4EB404040400840A0000000031010000000000000000000404040404040404040404040404040404040404040404040 000000017.64 000000000.004040400000000000000000    80                                                                                                                                                                                                                                                                                                                  
06810020272640002G2675906759000000195628001018000000101BLYTHEWOOD               SC           5 D                00                                      NNNN00 N 00                   000000000000                                                                   77439645                                                                                                                                                                                                                                                                                                                                                                                                                                               
06810030272640025DT67590675900000019562800101800000010180010124001193193900019900232071020230000000863819323000000000159241414720XXXXXX2351       VS11    0001111   NYV1 A E463191583573282N840000000008638SFRT00    07DNPLANET VAPOR #1100       07115D    VS84000000008638 N  599977439645                            000000000+                D CD 12113                     000000000  N000000000 499   0000000000000.00 0000000.00   0000000.00                             000000000000000                                                                                                                                                     01418 A000000000000 0000000000001.91     02100 01000                  
06810040272640001E167590675900000019562800101800000010100E068C80035 00000000000.004040404040404040404040404040404040404040404040404006021203A00000000000000000000000404040404040404040404040404040  000208402000000000000023071036C392BD4DBED2ABA182B87E404040400840A00000000310100000000000000000002C98C5F10082000000000000000000004040404040404040 000000086.38 000000000.004040400000000000000000    80                                                                                                                                                                                                                                                                                                                  
06810050272640002G2675906759000000195628001018000000101BLYTHEWOOD               SC           5 C                00                                      NNNN00 Y 00                   000000000000                                                                   77439645                                                                                                                                                                                                                                                                                                                                                                                                                                               
06810060272640026DT67590675900000019562800101800000010180010124001193193900019900240071020230000000323919323000000000159241448261XXXXXX7486       VS11    0001111   NYV1 A E583191657568683N840000000003239S7RR00    07DNPLANET VAPOR #1100       335244    VD84000000003239 N  599977439645                            000000000+                F DF 10433                     000000000  Y000000000 338   0000000000000.00 0000000.00   0000000.00                             000000000000000                                                                                                                                                     01418 A000000000000 0000000000000.24     00050 02200                  
06810070272640001E167590675900000019562800101800000010100E068C803A7 00000000000.004040404040404040404040404040404040404040404040404006011203A00000000000000000000000404040404040404040404040404040  00010840000000000000002307104B30FFD479F883256932D714404040400840A0000000031010000000000000000000F398E07E0382000000000000000000004040404040404040 000000032.39 000000000.004040400000000000000000    80                                                                                                                                                                                                                                                                                                                  
06810080272640002G2675906759000000195628001018000000101BLYTHEWOOD               SC           5 D                00                                      NNNN00 N 00                   000000000000                                                                   77439645                                                                                                                                                                                                                                                                                                                                                                                                                                               
06810090272640027DT67590675900000019562800101800000010180010124001193193900019900257071020230000000067119323000000000159241440393XXXXXX6517       VK04VS111111111   NYV1 A E383191686031758N840000000000671JJNR00    07DNPLANET VAPOR #1100       415492    VD84000000000671 N  599977439645                            000000000+                F PF 08165                     000000000  N000000000       0000000000000.00 0000000.00   0000000.00                             000000000000000                                                                                                                                                     01418 F000000000000 0000000000000.16     01600 00500                  
06810100272640001E167590675900000019562800101800000010100E068C80013 00000000000.004040404040404040404040404040404040404040404040404006011203A00000000000000000000000404040404040404040404040404040  0000084020000000000000230710CC5C253830B9599F41012A38404040400840A00000000310100000000000000000006F628D4BA3C1F0A630300000000000004040404040404040 000000006.71 000000000.004040400000000000000000    80                                                                                                                                                                                                                                                                                                                  
06810110272640002G2675906759000000195628001018000000101BLYTHEWOOD               SC           5 P                00                                      NNNN00 N 00                   000000000000                                                                   77439645                                                                                                                                                                                                                                                                                                                                                                                                                                               
06810120272640028DT67590675900000019562800101800000010180010177287283193900019900267071020230000000151819323000000000159241531258XXXXXX8775       MS02WI09          NY 1 0 AMDJK8P6XV0710  N840000000001518          07DNPLANET VAPOR #1100       132751    MD84000000001518 N  599977439645                            000000000+M10101M0034C    MDJ  10815                     000000000  1                0000000000000.00 0000000.00   0000000.00                             000000000000000                                                                                                                                                   B101418  000000000000 0000000000000.23     00050 02200                  
06810130272640001E167590675900000019562800101800000010100000848039A 00000000000.00404040404040404040404040404040404040404040404040400114A04301A20000000000000000000000FF00000000000000000000000000  000008401980000000800123071078C8EE97B17AFD86B0E042BE404040400840A0000000041010000000000000000000404040404040404040404040404040404040401F40404040 000000015.18 000000000.001F03020000000000000000    80                                                                                                                                                                                                                                                                                                                  
06810140272640002G2675906759000000195628001018000000101BLYTHEWOOD               SC           5 J                                                        NNNN              000000000000000000000000       03               7                                          77439645                                                                                                                                                                                                                                                                                                                                                                                                                                               
06810150272640029DT67590675900000019562800101800000010180010124001193193900019900273071020230000000215919323000000000159241442755XXXXXX0887       VS11    0001111   NYV1 A E463191793667519N840000000002159VG9200    07DNPLANET VAPOR #1100       060218    VD84000000002159 N  599977439645                            000000000+                F DF 10433                     000000000  Y000000000 338   0000000000000.00 0000000.00   0000000.00                             000000000000000                                                                                                                                                     01418 A000000000000 0000000000000.23     00050 02200                  
06810160272640001E167590675900000019562800101800000010100E068C803AD 00000000000.004040404040404040404040404040404040404040404040404006011203A00000000000000000000000404040404040404040404040404040  0000084000000000000000230710F8AA870AA107A0955DAD218C404040400840A0000000031010000000000000000000404040404040404040404040404040404040404040404040 000000021.59 000000000.004040400000000000000000    80                                                                                                                                                                                                                                                                                                                  
06810170272640002G2675906759000000195628001018000000101BLYTHEWOOD               SC           5 D                00                                      NNNN00 N 00                   000000000000                                                                   77439645                                                                                                                                                                                                                                                                                                                                                                                                                                               
06810180272640030DT67590675900000019562800101800000010180010124001193193900019900281071020230000000259319323000000000159241474474XXXXXX6274       VS11    0001111   NYV1 A E303191831590960N840000000002593MSQR00    07DNPLANET VAPOR #1100       120556    VD84000000002593 N  599977439645                            000000000+                F DF 10433                     000000000  Y000000000 338   0000000000000.00 0000000.00   0000000.00                             000000000000000                                                                                                                                                     01418 A000000000000 0000000000000.23     00050 02200                  
06810190272640001E167590675900000019562800101800000010100E068C8011C 00000000000.004040404040404040404040404040404040404040404040404006021203A00000000000000000000000404040404040404040404040404040  00000840200000000000002307104E0A8A84FFFEB0A3E7DAFDD5404040400840A0000000031010000000000000000000404040404040404040404040404040404040404040404040 000000025.93 000000000.004040400000000000000000    80                                                                                                                                                                                                                                                                                                                  
06810200272640002G2675906759000000195628001018000000101BLYTHEWOOD               SC           5 D                00                                      NNNN00 N 00                   000000000000                                                                   77439645                                                                                                                                                                                                                                                                                                                                                                                                                                               
06810210272640031DT67590675900000019562800101800000010180010124001193193900019900299071020230000000215919323000000000159241473703XXXXXX1191       VS11    0001111   NYV1 A E463191843362643N840000000002159QH2500    07DNPLANET VAPOR #1100       038816    VD84000000002159 N  599977439645                            000000000+                F DF 10433                     000000000  Y000000000 338   0000000000000.00 0000000.00   0000000.00                             000000000000000                                                                                                                                                     01418 A000000000000 0000000000000.23     00050 02200                  
06810220272640001E167590675900000019562800101800000010100E068C802EC 00000000000.004040404040404040404040404040404040404040404040404006061203A00000000000000000000000404040404040404040404040404040  000008400000000000000023071054EA3640543709DDA0E8F389404040400840A0000000031010000000000000000000503060D0808090B020200000000000004040404040404040 000000021.59 000000000.004040400000000000000000    80                                                                                                                                                                                                                                                                                                                  
06810230272640002G2675906759000000195628001018000000101BLYTHEWOOD               SC           5 D                00                                      NNNN00 N 00                   000000000000                                                                   77439645                                                                                                                                                                                                                                                                                                                                                                                                                                               
06810240272640032DT67590675900000019562800101800000010180010124001193193900019900307071020230000000334619323000000000159241414720XXXXXX1141       VS11    0001111   NYV1 A E303191850494700N8400000000033468WSW00    07DNPLANET VAPOR #1100       01886D    VS84000000003346 N  599977439645                            000000000+                D CD 12113                     000000000  N000000000 499   0000000000000.00 0000000.00   0000000.00                             000000000000000                                                                                                                                                     01418 A000000000000 0000000000000.80     02100 01000                  
06810250272640001E167590675900000019562800101800000010100E068C802C7 00000000000.004040404040404040404040404040404040404040404040404006021203A00000000000000000000000404040404040404040404040404040  000308402000000000000023071060151FDA1A4BC82104A91D85404040400840A0000000031010000000000000000000735432B30082000000000000000000004040404040404040 000000033.46 000000000.004040400000000000000000    80                                                                                                                                                                                                                                                                                                                  
06810260272640002G2675906759000000195628001018000000101BLYTHEWOOD               SC           5 C                00                                      NNNN00 Y 00                   000000000000                                                                   77439645                                                                                                                                                                                                                                                                                                                                                                                                                                               
06810270272640033DT67590675900000019562800101800000010180010124001193193900019900315071020230000000418219323000000000159241440066XXXXXX1606       VS11    0001111   NYV1 A E463191854379431N840000000004182PF6300    05DNPLANET VAPOR #1100       05668C    VS84000000004182 N  599977439645                            000000000+                C CC 12112                     000000000  N000000000 497   0000000000000.00 0000000.00   0000000.00                             000000000000000                                                                                                                                                     01418 A000000000000 0000000000000.79     01650 01000                  
06810280272640001E167590675900000019562800101800000010100E0F8C80043 00000000000.004040404040404040404040404040404040404040404040404006010A03A08000000000000000000000404040404040404040404040404040  000308401C008080008000230710CD2EC573839D12B000608028404040400840A0000000031010000000000000000000D6611BE673817AB230300000000000004040401E40404040 000000041.82 000000000.001E03000000000000000000    80                                                                                                                                                                                                                                                                                                                  
06810290272640002G2675906759000000195628001018000000101BLYTHEWOOD               SC           5 C                00                                      NNNN00 Y 00                   000000000000                                                                   77439645                                                                                                                                                                                                                                                                                                                                                                                                                                               
06810300272640034DT67590675900000019562800101800000010180010124001193193900019900323071020230000000054719323000000000159241465124XXXXXX8966       VK04VS111111111   NYV1 A E383191859825469N840000000000547KN2T00    07DNPLANET VAPOR #1100       059774    VD84000000000547 N  599977439645                            000000000+                F DF 10439                     000000000  Y000000000 331   0000000000000.00 0000000.00   0000000.00                             000000000000000                                                                                                                                                     01418 F000000000000 0000000000000.22     00050 02200                  
06810310272640001E167590675900000019562800101800000010100E068C800D0 00000000000.00404040404040404040404040404040404040404040404040401F4A0432A00000000010030273000000004000000000000000000000000000  000008400040000000000023071049C7ECC9A07BFD9B9899BC64404040400840A0000000031010000000000000000000F5DD426D1AF173B330300000000000004040404040404040 000000005.47 000000000.004040400000000000000000    80                                                                                                                                                                                                                                                                                                                  
06810320272640002G2675906759000000195628001018000000101BLYTHEWOOD               SC           5 D                00                                      NNNN00 N 00                   000000000000                                                                   77439645                                                                                                                                                                                                                                                                                                                                                                                                                                               
06810330272640035DT67590675900000019562800101800000010180010177287283193900019900333071020230000000058019323000000000159241514230XXXXXX0416       MS02WI09          NY 1 0 AMDJMUGPJT0710  N840000000000580          07DNPLANET VAPOR #1100       41E690    MD84000000000580 N  599977439645                            000000000+M10101M0034C    MDJ  00402                     000000000  N                0000000000000.00 0000000.00   0000000.00                             000000000000000                                                                                                                                                   B101418  000000000000 0000000000000.21     01050 01500                  
06810340272640001E167590675900000019562800101800000010100000848012F 00000000000.00404040404040404040404040404040404040404040404040400110A04001220000000000000000000000FF00000000000000000000000000  00010840198000000080012307104E6FCDBCE8A5097E67F830C7404040400840A0000000041010000000000000000000E530C11069F4624C00120000000000004040401F40404040 000000005.80 000000000.001F03020000000000000000    80                                                                                                                                                                                                                                                                                                                  
06810350272640002G2675906759000000195628001018000000101BLYTHEWOOD               SC           5 J                                                        NNNN              000000000000000000000000       03               7                                          77439645                                                                                                                                                                                                                                                                                                                                                                                                                                               
06810360272640036DT67590675900000019562800101800000010180010124001193193900019900349071120230000000237519323000000000159241440393XXXXXX5004       VS11    0001111   NYV1 A E463192501497268N840000000002375LNHD00    07DNPLANET VAPOR #1100       241991    VD84000000002375 N  599977439645                            000000000+                F PF 08170                     000000000  N000000000       0000000000000.00 0000000.00   0000000.00                             000000000000000                                                                                                                                                     01418 A000000000000 0000000000000.42     01150 01500                  
06810370272640001E167590675900000019562800101800000010100E068C8058D 00000000000.004040404040404040404040404040404040404040404040404006011203A00000000000000000000000404040404040404040404040404040  00000840200000000000002307111B22CF855A07EDC0E6868BAD404040400840A000000003101000000000000000000098CF187FEC568F2E30300000000000004040404040404040 000000023.75 000000000.004040400000000000000000    80                                                                                                                                                                                                                                                                                                                  
06810380272640002G2675906759000000195628001018000000101BLYTHEWOOD               SC           5 P                00                                      NNNN00 N 00                   000000000000                                                                   77439645                                                                                                                                                                                                                                                                                                                                                                                                                                               
06810390272640037DT67590675900000019562800101800000010180010124001193193900019900356071120230000000215919323000000000159241473702XXXXXX2912       VS11    0001111   NYV1 A E303192520800794N840000000002159MM3G00    05DNPLANET VAPOR #1100       032926    VD84000000002159 N  599977439645                            000000000+                F DF 10433                     000000000  Y000000000 338   0000000000000.00 0000000.00   0000000.00                             000000000000000                                                                                                                                                     01418 A000000000000 0000000000000.23     00050 02200                  
06810400272640001E167590675900000019562800101800000010100E0F8C805BE 00000000000.004040404040404040404040404040404040404040404040404006061203A0A000000000000000000000404040404040404040404040404040  00000840180080800080002307110E77FA168AE4E2B61806EAE9404040400840A000000003101000000000000000000000603090E000101020200000000000004040401E40404040 000000021.59 000000000.001E00000000000000000000    80                                                                                                                                                                                                                                                                                                                  
06810410272640002G2675906759000000195628001018000000101BLYTHEWOOD               SC           5 D                00                                      NNNN00 N 00                   000000000000                                                                   77439645                                                                                                                                                                                                                                                                                                                                                                                                                                               
06810420272640038DT67590675900000019562800101800000010180010124001193193900019900364071120230000000188919323000000000159241473703XXXXXX5048       VS11    0001111   NYV1 A E583192536226293N840000000001889TXBS00    05DNPLANET VAPOR #1100       077457    VD84000000001889 N  599977439645                            000000000+                F DF 10433                     000000000  Y000000000 338   0000000000000.00 0000000.00   0000000.00                             000000000000000                                                                                                                                                     01418 A000000000000 0000000000000.23     00050 02200                  
06810430272640001E167590675900000019562800101800000010100E0F8C800BC 00000000000.004040404040404040404040404040404040404040404040404006061203A0A000000000000000000000404040404040404040404040404040  0000084018008080008000230711285C7EFC499D4FEBA51D6770404040400840A0000000031010000000000000000000D0C07010F0A0F04020200000000000004040401E40404040 000000018.89 000000000.001E00000000000000000000    80                                                                                                                                                                                                                                                                                                                  
06810440272640002G2675906759000000195628001018000000101BLYTHEWOOD               SC           5 D                00                                      NNNN00 N 00                   000000000000                                                                   77439645                                                                                                                                                                                                                                                                                                                                                                                                                                               
