00003380300340002BH6759067590000000370780088880000090170213202304423000000000110334    0000090001310224Y8008886759C02142023                                                                                                                                                                                                                                                                                                                                                                                                                                                                                                                                                                                                 
00003390300340003DT67590675900000003707800888800000010180088824001193044900013102125021320230000001049904423000000000110334434257XXXXXX1402               2111111   NYV4 A7W463044243263934N840000000010499LTDX00    01DNMR HEMP FLOWER           034910    VD84000000010499 NP1549976053336   85655                    000000000+                F DF 10420                     000000000  Y000000000 338   0000000000000.00 0000000.00   0000000.00                             000000000000000                                                                                                                                                     01424 G000000010499 0000000000000.27     00050 02200                  
00003400300340001P16759067590000000370780088880000001010000000000000000                             2000000000000000000000000              000000000000                    0000000000000000000000000                    000000000000                                                                                                                                                                                                                                                                                                                                                                                                                                                                                        
00003410300340004DT67590675900000003707800888800000010180088824001193044900013102133021320230000001087504423000000000110334434257XXXXXX1672               2111111   NYV4 A7W303044587179314N840000000010875D9KG00    01DNMR HEMP FLOWER           040200    VD84000000010875 NP1549976053336   85691                    000000000+                F DF 10420                     000000000  Y000000000 338   0000000000000.00 0000000.00   0000000.00                             000000000000000                                                                                                                                                     01424 G000000010875 0000000000000.27     00050 02200                  
00003420300340001P16759067590000000370780088880000001010000000000000000                             2000000000000000000000000              000000000000                    0000000000000000000000000                    000000000000                                                                                                                                                                                                                                                                                                                                                                                                                                                                                        
00003430300340005DT67590675900000003707800888800000010180088824001193044900013102141021320230000001297404423000000000110334446542XXXXXX7995               2111111   NYV4 A7W303044594679875N84000000001297476GD00    01DNMR HEMP FLOWER           013996    VS84000000012974 NP1549976053336   85692                    000000000+                D CD 12109                     000000000  N000000000 498   0000000000000.00 0000000.00   0000000.00                             000000000000000                                                                                                                                                     01424 G000000012974 0000000000003.34     02500 01000                  
00003440300340001P16759067590000000370780088880000001010000000000000000                             2000000000000000000000000              000000000000                    0000000000000000000000000                    000000000000                                                                                                                                                                                                                                                                                                                                                                                                                                                                                        
00003450300340006DT67590675900000003707800888800000010180088824001193044900013102158021320230000001549904423000000000110334425131XXXXXX8220               2111111   NYV4 A7W383044641226450N8400000000154994W8T00    01DNMR HEMP FLOWER           013960    VD84000000015499 NP1549976053336   85702                    000000000+                F DF 10420                     000000000  Y000000000 338   0000000000000.00 0000000.00   0000000.00                             000000000000000                                                                                                                                                     01424 G000000015499 0000000000000.30     00050 02200                  
00003460300340001P16759067590000000370780088880000001010000000000000000                             2000000000000000000000000              000000000000                    0000000000000000000000000                    000000000000                                                                                                                                                                                                                                                                                                                                                                                                                                                                                        
00003470300340007DT67590675900000003707800888800000010180088824001193044900013102166021320230000001087504423000000000110334435544XXXXXX0193               2111111   NYV4 A7W383044674375527N840000000010875WFQG00    01DNMR HEMP FLOWER           111086    VD84000000010875 NP1549976053336   85716                    000000000+                F DF 10420                     000000000  Y000000000 338   0000000000000.00 0000000.00   0000000.00                             000000000000000                                                                                                                                                     01424 G000000010875 0000000000000.27     00050 02200                  
00003480300340001P16759067590000000370780088880000001010000000000000000                             2000000000000000000000000              000000000000                    0000000000000000000000000                    000000000000                                                                                                                                                                                                                                                                                                                                                                                                                                                                                        
00003490300340008DT67590675900000003707800888800000010180088824001193044900013102182021320230000001125004423000000000110334414740XXXXXX2445               2111111   NYV4 A7W463044678585579N840000000011250H54400    01DNMR HEMP FLOWER           01752D    VS84000000011250 NP1549976053336   85719                    000000000+                D CD 12109                     000000000  N000000000 498   0000000000000.00 0000000.00   0000000.00                             000000000000000                                                                                                                                                     01424 G000000011250 0000000000002.91     02500 01000                  
00003500300340001P16759067590000000370780088880000001010000000000000000                             2000000000000000000000000              000000000000                    0000000000000000000000000                    000000000000                                                                                                                                                                                                                                                                                                                                                                                                                                                                                        
00003510300340009DT67590675900000003707800888800000010180088824001193044900013102190021320230000000249804423000000000110334444796XXXXXX1169               2111111   NYV4 A7W463044747994268N840000000002498KCFK00    01DNMR HEMP FLOWER           013762    VS84000000002498 NP1549976053336   85737                    000000000+                A CA 12106                     000000000  N000000000 492   0000000000000.00 0000000.00   0000000.00                             000000000000000                                                                                                                                                     01424 G000000002498 0000000000000.57     01890 01000                  
00003520300340001P16759067590000000370780088880000001010000000000000000                             2000000000000000000000000              000000000000                    0000000000000000000000000                    000000000000                                                                                                                                                                                                                                                                                                                                                                                                                                                                                        
00003530300340010DT67590675900000003707800888800000010180088824001193044900013102208021320230000000387304423000000000110334431307XXXXXX3574               2111111   NYV4 A7W303044750231611N840000000003873DN7W00    01DNMR HEMP FLOWER           00643C    VS84000000003873 NP1549976053336   85738                    000000000+                C CC 12108                     000000000  N000000000 496   0000000000000.00 0000000.00   0000000.00                             000000000000000                                                                                                                                                     01424 G000000003873 0000000000000.89     02050 01000                  
00003540300340001P16759067590000000370780088880000001010000000000000000                             2000000000000000000000000              000000000000                    0000000000000000000000000                    000000000000                                                                                                                                                                                                                                                                                                                                                                                                                                                                                        
00003550300340011DT67590675900000003707800888800000010180088824001193044900013102216021320230000001531904423000000000110334427178XXXXXX7134               2111111   NYV4 A7W303044823511518N840000000015319QFJR00    01DNMR HEMP FLOWER           066090    VD84000000015319 NP1549976053336   85748                    000000000+                F DF 10420                     000000000  Y000000000 338   0000000000000.00 0000000.00   0000000.00                             000000000000000                                                                                                                                                     01424 G000000015319 0000000000000.30     00050 02200                  
00003560300340001P16759067590000000370780088880000001010000000000000000                             2000000000000000000000000              000000000000                    0000000000000000000000000                    000000000000                                                                                                                                                                                                                                                                                                                                                                                                                                                                                        
00003570300340012DT67590675900000003707800888800000010180088887287283044900013102225021320230000000450004423000000000110334518725XXXXXX8380       ME03KE06MS02      NY 4607AMWE2L8K950213  N840000000004500          81DNMR HEMP FLOWER           02159Z    MC84000000004500 N  549976053336   85750                    000000000+600450S00130    MWE  00737                     000000000  N                0000000000000.00 0000000.00   0000000.00                             000000000000000                                                                                                                                                   U001424  000000000000 0000000000001.27     02600 01000                  
00003580300340013DT67590675900000003707800888800000010180088824001193044900013102232021320230000000799904423000000000110334406095XXXXXX8983               2111111   NYV4 A7W303045018490775N840000000007999DTRT00    01DNMR HEMP FLOWER           01487C    VS84000000007999 NP1549976053336   85761                    000000000+                C CC 12108                     000000000  N000000000 496   0000000000000.00 0000000.00   0000000.00                             000000000000000                                                                                                                                                     01424 G000000007999 0000000000001.74     02050 01000                  
00003590300340001P16759067590000000370780088880000001010000000000000000                             2000000000000000000000000              000000000000                    0000000000000000000000000                    000000000000                                                                                                                                                                                                                                                                                                                                                                                                                                                                                        
00003600300340014DT67590675900000003707800888800000010180088887287283044900013102241021320230000000417304423000000000110334517805XXXXXX9694       ME03KE06MS02      NY 4607AMPL4HWQ950213  N840000000004173          81DNMR HEMP FLOWER           03659B    MC84000000004173 N  549976053336   85762                    000000000+600450S00130    MPL  00580                     000000000  N                0000000000000.00 0000000.00   0000000.00                             000000000000000                                                                                                                                                   U001424  000000000000 0000000000000.98     02100 01000                  
00003610300340015BH6759067590000001094280088880000090170213202304423000000000047858    0000090001050016Y8008886759C02142023                                                                                                                                                                                                                                                                                                                                                                                                                                                                                                                                                                                                 
00003620300340016DT67590675900000010942800888800000010180088824001193044900010500016021320230000000066504423000000000047858433477XXXXXX7365       VK04VS111111111   NYV1 A E303044617812513N8400000000006652GJD00    05DNPLANET VAPOR #800        002921    VD84000000000665 N  599976923545                            000000000+                F DF 10439                     000000000  Y000000000 331   0000000000000.00 0000000.00   0000000.00                             000000000000000                                                                                                                                                     01424 F000000000000 0000000000000.22     00050 02200                  
00003630300340017DT67590675900000010942800888800000010180088877287283044900010500026021320230000000255304423000000000047858515549XXXXXX6885       MS02WI09          NY 1 0 AMPVGVKA1Y0213  N840000000002553          05DNPLANET VAPOR #800        FX4T78    MD84000000002553 N  599976923545                            000000000+M10101C5434C    MPV  11964                     000000000  N                0000000000000.00 0000000.00   0000000.00                             000000000000000                                                                                                                                                   B101424  000000000000 0000000000000.44     01150 01500                  
00003640300340018DT67590675900000010942800888800000010180088877287283044900010500034021320230000001176904423000000000047858517805XXXXXX1461       MS02WI09          NY 1 0 AMPLHKND1Y0213  N840000000011769          05DNPLANET VAPOR #800        00563B    MC84000000011769 N  599976923545                            000000000+M10101C5434C    MPL  00353                     000000000  N                0000000000000.00 0000000.00   0000000.00                             000000000000000                                                                                                                                                   B101424  000000000000 0000000000002.22     01800 01000                  
00003650300340019DT67590675900000010942800888800000010180088877287283044900010500042021320230000000267504423000000000047858517805XXXXXX1461       MS02WI09          NY 1 0 AMPLOQRQ2C0213  N840000000002675          05DNPLANET VAPOR #800        08891B    MC84000000002675 N  599976923545                            000000000+M10101C5434C    MPL  00353                     000000000  N                0000000000000.00 0000000.00   0000000.00                             000000000000000                                                                                                                                                   B101424  000000000000 0000000000000.58     01800 01000                  
00003660300340020DT67590675900000010942800888800000010180088877287283044900010500059021320230000000278104423000000000047858531258XXXXXX7623       MS02WI09          NY 1 0 AMDJA19V2N0213  N840000000002781          05DNPLANET VAPOR #800        110610    MD84000000002781 N  599976923545                            000000000+M10101C5434C    MDJ  10815                     000000000  1                0000000000000.00 0000000.00   0000000.00                             000000000000000                                                                                                                                                   B101424  000000000000 0000000000000.23     00050 02200                  
00003670300340021DT67590675900000010942800888800000010180088824001193044900010500065021320230000000192504423000000000047858473703XXXXXX1745       VS11    0001111   NYV1 A E583044663033822N8400000000019256BG600    05DNPLANET VAPOR #800        009701    VD84000000001925 N  599976923545                            000000000+                F DF 10433                     000000000  Y000000000 338   0000000000000.00 0000000.00   0000000.00                             000000000000000                                                                                                                                                     01424 A000000000000 0000000000000.23     00050 02200                  
00003680300340022DT67590675900000010942800888800000010180088824001193044900010500073021320230000000192204423000000000047858400022XXXXXX9508       VS11    0001111   NYV1 A E303044672630943N840000000001922JL5Z00    05DNPLANET VAPOR #800        861423    VD84000000001922 N  599976923545                            000000000+                F DF 10433                     000000000  Y000000000 338   0000000000000.00 0000000.00   0000000.00                             000000000000000                                                                                                                                                     01424 A000000000000 0000000000000.23     00050 02200                  
00003690300340023DT67590675900000010942800888800000010180088824001193044900010500081021320230000000122904423000000000047858413037XXXXXX9937       VK04VS111111111   NYV1 A E583044674411572N8400000000012294MFH00    05DNPLANET VAPOR #800        011340    VD84000000001229 N  599976923545                            000000000+                F DF 10439                     000000000  Y000000000 331   0000000000000.00 0000000.00   0000000.00                             000000000000000                                                                                                                                                     01424 F000000000000 0000000000000.23     00050 02200                  
00003700300340024DT67590675900000010942800888800000010180088824001193044900010500099021320230000000351604423000000000047858434769XXXXXX1391       VS11    0001111   NYV1 A E583044712313658N840000000003516D86Q00    07DNPLANET VAPOR #800        014714    VD84000000003516 N  599976923545                            000000000+                F DF 10433                     000000000  Y000000000 338   0000000000000.00 0000000.00   0000000.00                             000000000000000                                                                                                                                                     01424 A000000000000 0000000000000.24     00050 02200                  
00003710300340025DT67590675900000010942800888800000010180088824001193044900010500107021320230000000235304423000000000047858430602XXXXXX0051       VS11    0001111   NYV1 A E383044723436676N840000000002353V7TM00    07DNPLANET VAPOR #800        156762    VD84000000002353 N  599976923545                            000000000+                F DF 00381                     000000000  N000000000       0000000000000.00 0000000.00   0000000.00                             000000000000000                                                                                                                                                     01424 A000000000000 0000000000000.34     00800 01500                  
00003720300340026DT67590675900000010942800888800000010180088876509753044900010500113021320230000000427804423000000000047858601100XXXXXX8038   BA05                  NY41 0 N813037716994657N840000000004278    00    07DNPLANET VAPOR #800        01386R    DS84000000004278 N  599976923545830                         000000000+0000004910H00   DCCDI01000333005  154139000000 000000000  0          112   0000000000000.00 0000000.00   0000000.00                             000000000000000                                                                                                                                                     01424  000000000000 0000000000000.84     01720 01000                  
00003730300340027DT67590675900000010942800888800000010180088824001193044900010500123021320230000000267404423000000000047858426684XXXXXX8063       VS11    0001111   NYV1 A E383044775204496N840000000002674ZKM900    07DNPLANET VAPOR #800        06020C    VS84000000002674 N  599976923545                            000000000+                C CC 12112                     000000000  N000000000 497   0000000000000.00 0000000.00   0000000.00                             000000000000000                                                                                                                                                     01424 A000000000000 0000000000000.54     01650 01000                  
00003740300340028DT67590675900000010942800888800000010180088824001193044900010500131021320230000000213904423000000000047858465110XXXXXX3296       VS11    0001111   NYV1 A E383044795392055N8400000000021396HKC00    07DNPLANET VAPOR #800        029841    VD84000000002139 N  599976923545                            000000000+                F DF 10433                     000000000  Y000000000 338   0000000000000.00 0000000.00   0000000.00                             000000000000000                                                                                                                                                     01424 A000000000000 0000000000000.23     00050 02200                  
00003750300340029DT67590675900000010942800888800000010180088824001193044900010500149021320230000000320804423000000000047858473703XXXXXX1142       VS11    0001111   NYV1 A E383044800756215N84000000000320836J300    07DNPLANET VAPOR #800        074835    VD84000000003208 N  599976923545                            000000000+                F DF 10433                     000000000  Y000000000 338   0000000000000.00 0000000.00   0000000.00                             000000000000000                                                                                                                                                     01424 A000000000000 0000000000000.24     00050 02200                  
00003760300340030DT67590675900000010942800888800000010180088824001193044900010500156021320230000000181804423000000000047858466188XXXXXX2777       VS11    0001111   NYV1 A E383044850064298N840000000001818HLSK00    07DNPLANET VAPOR #800        070055    VD84000000001818 N  599976923545                            000000000+                F DF 10433                     000000000  Y000000000 338   0000000000000.00 0000000.00   0000000.00                             000000000000000                                                                                                                                                     01424 A000000000000 0000000000000.23     00050 02200                  
00003770300340031DT67590675900000010942800888800000010180088824001193044900010500164021320230000000235304423000000000047858474474XXXXXX4400       VS11    0001111   NYV1 A E383045009919163N840000000002353FTHQ00    07DNPLANET VAPOR #800        111768    VD84000000002353 N  599976923545                            000000000+                F DF 10433                     000000000  Y000000000 338   0000000000000.00 0000000.00   0000000.00                             000000000000000                                                                                                                                                     01424 A000000000000 0000000000000.23     00050 02200                  
00003780300340032BH6759067590000001165080088880000090170213202304423000000000045558    0000090001020014Y8008886759C02142023                                                                                                                                                                                                                                                                                                                                                                                                                                                                                                                                                                                                 
00003790300340033DT67590675900000011650800888800000010180088876509753044900010200011021320230000000412004423000000000045558601100XXXXXX0849   BA05                  NY41 0 N813037809968156N840000000004120    00    07DNVPODS HOLDING INC        01391R    DS84000000004120 N  599977032122830                         000000000+0000004910H00   DCCDI01000166142  171636000000 000000000  0          112DB 0000000000001.20 0000000.00   0000000.00                             000000000000000                                                                                                                                                     01424  000000000000 0000000000000.81     01720 01000                  
00003800300340034DT67590675900000011650800888800000010180088824001193044900010200021021320230000000349904423000000000045558408138XXXXXX9540       VS11    0001111   NYV1 A E583044855290796N840000000003499Z7QK00    07DNVPODS HOLDING INC        112809    VD84000000003499 N  599977032122                            000000000+                F PF 08170                     000000000  N000000000       0000000000000.00 0000000.00   0000000.00                             000000000000000                                                                                                                                                     01424 A000000000000 0000000000000.55     01150 01500                  
00003810300340035DT67590675900000011650800888800000010180088824001193044900010200039021320230000000250004423000000000045558465992XXXXXX8461       VS11    0001111   NYV1 A E383044855770493N840000000002500RGGC00    07DNVPODS HOLDING INC        443095    VD84000000002500 N  599977032122                            000000000+                F DF 00381                     000000000  N000000000       0000000000000.00 0000000.00   0000000.00                             000000000000000                                                                                                                                                     01424 A000000000000 0000000000000.35     00800 01500                  
00003820300340036DT67590675900000011650800888800000010180088824001193044900010200047021320230000000055004423000000000045558408138XXXXXX9540       VK04VS111111111   NYV1 A E583044856286723N840000000000550BDBV00    07DNVPODS HOLDING INC        567712    VD84000000000550 N  599977032122                            000000000+                F PF 08165                     000000000  N000000000       0000000000000.00 0000000.00   0000000.00                             000000000000000                                                                                                                                                     01424 F000000000000 0000000000000.14     01600 00500                  
00003830300340037DT67590675900000011650800888800000010180088824001193044900010200054021320230000000250004423000000000045558465992XXXXXX5013       VS11    0001111   NYV1 A E383044858764776N840000000002500X66200    07DNVPODS HOLDING INC        456044    VD84000000002500 N  599977032122                            000000000+                F DF 00381                     000000000  N000000000       0000000000000.00 0000000.00   0000000.00                             000000000000000                                                                                                                                                     01424 A000000000000 0000000000000.35     00800 01500                  
00003840300340038DT67590675900000011650800888800000010180088824001193044900010200062021320230000000033004423000000000045558478200XXXXXX8955       VK04VS111111111   NYV1 A E463045018714753N840000000000330GSBQ00    07DNVPODS HOLDING INC        013119    VD84000000000330 N  599977032122                            000000000+                F DF 10439                     000000000  Y000000000 331   0000000000000.00 0000000.00   0000000.00                             000000000000000                                                                                                                                                     01424 F000000000000 0000000000000.22     00050 02200                  
00003850300340039DT67590675900000011650800888800000010180088824001193044900010200070021320230000000300004423000000000045558434236XXXXXX9826       VS11    0001111   NYV1 A E303045025835966N840000000003000MFFQ00    07DNVPODS HOLDING INC        062183    VD84000000003000 N  599977032122                            000000000+                F DF 00381                     000000000  N000000000       0000000000000.00 0000000.00   0000000.00                             000000000000000                                                                                                                                                     01424 A000000000000 0000000000000.39     00800 01500                  
00003860300340040DT67590675900000011650800888800000010180088824001193044900010200088021320230000000488104423000000000045558415573XXXXXX7507       VS11    0001111   NYV1 A E583045028650641N84000000000488125PW00    07DNVPODS HOLDING INC        02384C    VS84000000004881 N  599977032122                            000000000+                C CC 12112                     000000000  N000000000 497DB 0000000000001.42 0000000.00   0000000.00                             000000000000000                                                                                                                                                     01424 A000000000000 0000000000000.91     01650 01000                  
00003870300340041DT67590675900000011650800888800000010180088824001193044900010200096021320230000001361304423000000000045558434769XXXXXX3545       VS11    0001111   NYV1 A E383045085300698N840000000013613MHHJ00    05DNVPODS HOLDING INC        002221    VD84000000013613 N  599977032122                            000000000+                F DF 10433                     000000000  Y000000000 338   0000000000000.00 0000000.00   0000000.00                             000000000000000                                                                                                                                                     01424 A000000000000 0000000000000.29     00050 02200                  
00003880300340042DT67590675900000011650800888800000010180088824001193044900010200104021320230000000308904423000000000045558491712XXXXXX1435       VS11    0001111   NYV1 A E383045106420621N840000000003089JF6W00    07DNVPODS HOLDING INC        025721    VD84000000003089 N  599977032122                            000000000+                F DF 10433                     000000000  Y000000000 338   0000000000000.00 0000000.00   0000000.00                             000000000000000                                                                                                                                                     01424 A000000000000 0000000000000.24     00050 02200                  
00003890300340043DT67590675900000011650800888800000010180088824001193044900010200112021320230000000056504423000000000045558478200XXXXXX2818       VK04VS111111111   NYV1 A E383045111813557N840000000000565NHB400    05DNVPODS HOLDING INC        010622    VD84000000000565 N  599977032122                            000000000+                F DF 10439                     000000000  Y000000000 331   0000000000000.00 0000000.00   0000000.00                             000000000000000                                                                                                                                                     01424 F000000000000 0000000000000.22     00050 02200                  
00003900300340044DT67590675900000011650800888800000010180088873011003044900010200126021320230000000350704423000000000045558372241XXXXX1007                          NY 1 0 N007060646760063N840000000003507          07DNVPODS HOLDINGS INC       821287    AM84000000003507 Y  599977032122                            000000000+51010X50034C 258     11261                     000000000                   0000000000000.00 0000000.00   0000000.00                             000000000000000 61248972086759675900000011650 VPODS HOLDINGS INC       2527 N LINCOLN AVE       7732092463      60614     SMOKEDREAMS2@ICLOUD.COM                   01324  000000000000 0000000000000.66     01600 00000                  
00003910300340045DT67590675900000011650800888800000010180088824001193044900010200138021320230000000113404423000000000045558478200XXXXXX3615       VK04VS111111111   NYV1 A E463045121713267N840000000001134MPKB00    07DNVPODS HOLDING INC        012222    VD84000000001134 N  599977032122                            000000000+                F DF 10439                     000000000  Y000000000 331   0000000000000.00 0000000.00   0000000.00                             000000000000000                                                                                                                                                     01424 F000000000000 0000000000000.23     00050 02200                  
00003920300340046DT67590675900000011650800888800000010180088824001193044900010200146021320230000000227004423000000000045558412854XXXXXX3700       VS11    0001111   NYV1 A E303045130731735N84000000000227096RP00    07DNVPODS HOLDING INC        013753    VD84000000002270 N  599977032122                            000000000+                F DF 00381                     000000000  N000000000       0000000000000.00 0000000.00   0000000.00                             000000000000000                                                                                                                                                     01424 A000000000000 0000000000000.33     00800 01500                  
00003930300340047BH6759067590000000051380000180000090170213202304423000000000000213    0000090001590001Y8000016759C02142023                                                                                                                                                                                                                                                                                                                                                                                                                                                                                                                                                                                                 
00003940300340048DT67590675900000000513800001800000010180000124001193044900015900013021320230000000021304423000000000000213440066XXXXXX5953       VK04VS111111111   NYV1 A E583045151620231N840000000000213BZ7W00    07DNVERMONT STATE BANK2      00664A    VS84000000000213 N  549975705321                            000000000+                A CA 12053                     000000000  N000000000 450   0000000000000.00 0000000.00   0000000.00                             000000000000000                                                                                                                                                     01424 F000000000000 0000000000000.04     01900 00000                  
