02069650657290002BH6759067590000000288180088880000090171229202236322000000000086632    0000090001050016N8008886759C12302022                                                                                                                                                                                                                                                                                                                                                                                                                                                                                                                                                                                                 
02069660657290003DT67590675900000002881800888800000010180088877287282363900010500013122920220000000625536322000000000086632545958XXXXXX2731       MS02WI09          NY 2 0 AMDJLUPO2Q1229  N840000000006255          05DNHAPPY HIPPIE             004017    MD84000000006255 N  549976487134                            000000000+M10101C1334C    MDJ  10815                     000000000  1                0000000000000.00 0000000.00   0000000.00                             000000000000000                                                                                                                                                   B101418  000000000000 0000000000000.25     00050 02200                  
02069670657290004DT67590675900000002881800888800000010180088824001192363900010500029122920220000000362136322000000000086632410889XXXXXX2635       VS11    0001111   NYV1 A E302363633186956N840000000003621W59900    05DNHAPPY HIPPIE             545319    VS84000000003621 N  549976487134                            000000000+                B CB 12111                     000000000  N000000000 495   0000000000000.00 0000000.00   0000000.00                             000000000000000                                                                                                                                                     01418 A000000000000 0000000000000.70     01650 01000                  
02069680657290005DT67590675900000002881800888800000010180088824001192363900010500037122920220000000362136322000000000086632458643XXXXXX2081       VS11    0001111   NYV1 A E582363654341395N8400000000036212VFR00    05DNHAPPY HIPPIE             H24707    VD84000000003621 N  549976487134                            000000000+                F DF 10433                     000000000  Y000000000 338   0000000000000.00 0000000.00   0000000.00                             000000000000000                                                                                                                                                     01418 A000000000000 0000000000000.24     00050 02200                  
02069690657290006DT67590675900000002881800888800000010180088824001192363900010500045122920220000000790036322000000000086632431136XXXXXX2395       VS11    0001111   NYV1 A E302363678030036N8400000000079006N2R00    05DNHAPPY HIPPIE             029478    VS84000000007900 N  549976487134                            000000000+                C CC 12112                     000000000  N000000000 497   0000000000000.00 0000000.00   0000000.00                             000000000000000                                                                                                                                                     01418 A000000000000 0000000000001.40     01650 01000                  
02069700657290007DT67590675900000002881800888800000010180088824001192363900010500052122920220000000395036322000000000086632448261XXXXXX4516       VS11    0001111   NYV1 A E382363684398673N840000000003950NZHX00    05DNHAPPY HIPPIE             002014    VD84000000003950 N  549976487134                            000000000+                F DF 10433                     000000000  Y000000000 338   0000000000000.00 0000000.00   0000000.00                             000000000000000                                                                                                                                                     01418 A000000000000 0000000000000.24     00050 02200                  
02069710657290008DT67590675900000002881800888800000010180088824001192363900010500060122920220000000768036322000000000086632486796XXXXXX5694       VS11    0001111   NYV1 A E382363716223789N840000000007680KGTQ00    05DNHAPPY HIPPIE             025314    VD84000000007680 N  549976487134                            000000000+                F DF 10433                     000000000  Y000000000 338   0000000000000.00 0000000.00   0000000.00                             000000000000000                                                                                                                                                     01418 A000000000000 0000000000000.26     00050 02200                  
02069720657290009DT67590675900000002881800888800000010180088824001192363900010500078122920220000000351036322000000000086632473702XXXXXX5076       VS11    0001111   NYV1 A E302363728205839N8400000000035102X3P00    05DNHAPPY HIPPIE             014321    VD84000000003510 N  549976487134                            000000000+                F DF 10433                     000000000  Y000000000 338   0000000000000.00 0000000.00   0000000.00                             000000000000000                                                                                                                                                     01418 A000000000000 0000000000000.24     00050 02200                  
02069730657290010DT67590675900000002881800888800000010180088824001192363900010500086122920220000001295836322000000000086632480639XXXXXX9995       VS11    0001111   NYV1 A E582363739323372N840000000012958VDT200    05DNHAPPY HIPPIE             093393    VD84000000012958 N  549976487134                            000000000+                F DF 00381                     000000000  N000000000       0000000000000.00 0000000.00   0000000.00                             000000000000000                                                                                                                                                     01418 A000000000000 0000000000001.19     00800 01500                  
02069740657290011DT67590675900000002881800888800000010180088877287282363900010500096122920220000000493836322000000000086632517805XXXXXX7988       MS02WI09          NY 1 0 AMPLHXX89W1229  N840000000004938          05DNHAPPY HIPPIE             02101B    MC84000000004938 N  549976487134                            000000000+M10101C5434C    MPL  00364                     000000000  N                0000000000000.00 0000000.00   0000000.00                             000000000000000                                                                                                                                                   B101418  000000000000 0000000000000.93     01800 00400                  
02069750657290012DT67590675900000002881800888800000010180088877287282363900010500104122920220000000098736322000000000086632521870XXXXXX3423       MS02WI09          NY 1 0 AMDJCJW54K1229  N840000000000987          90DNHAPPY HIPPIE             001536    MD84000000000987 N  549976487134                            000000000+M10101B5434C    MDJ  00505                     000000000  N                0000000000000.00 0000000.00   0000000.00                             000000000000000                                                                                                                                                   C101418  000000000000 0000000000000.19     01550 00400                  
02069760657290013DT67590675900000002881800888800000010180088877287282363900010500112122920220000000829336322000000000086632515307XXXXXX5522       MS02WI09          NY 1 0 AMCWI2QP9W1229  N840000000008293          05DNHAPPY HIPPIE             02948Z    MC84000000008293 N  549976487134                            000000000+M10101C5434C    MCW  00646                     000000000  N                0000000000000.00 0000000.00   0000000.00                             000000000000000                                                                                                                                                   B101418  000000000000 0000000000001.62     01900 00400                  
02069770657290014DT67590675900000002881800888800000010180088824001192363900010500128122920220000000887436322000000000086632422921XXXXXX2148       VS11    0001111   NYV1 A E462363786258981N840000000008874623W00    05DNHAPPY HIPPIE             060627    VD84000000008874 N  549976487134                            000000000+                F DF 00381                     000000000  N000000000       0000000000000.00 0000000.00   0000000.00                             000000000000000                                                                                                                                                     01418 A000000000000 0000000000000.86     00800 01500                  
02069780657290015DT67590675900000002881800888800000010180088824001192363900010500136122920220000000142636322000000000086632415978XXXXXX9363       VK04VS111111111   NYV1 A E462363787968152N840000000001426N39200    05DNHAPPY HIPPIE             073617    VD84000000001426 N  549976487134                            000000000+                F DF 10439                     000000000  Y000000000 331   0000000000000.00 0000000.00   0000000.00                             000000000000000                                                                                                                                                     01418 F000000000000 0000000000000.23     00050 02200                  
02069790657290016DT67590675900000002881800888800000010180088824001192363900010500144122920220000000691336322000000000086632449507XXXXXX4441               1001111   NYV1 A K382363792321729N840000000006913KDK600    01DNHAPPY HIPPIE             070032    VD84000000006913 N  549976487134                            000000000+                F DF 00412                     000000000  N000000000       0000000000000.00 0000000.00   0000000.00                             000000000000000                                                                                                                                                     01418 E000000000000 0000000000001.29     01650 01500                  
02069800657290017DT67590675900000002881800888800000010180088824001192363900010500151122920220000000219436322000000000086632400022XXXXXX9175       VS11    0001111   NYV1 A E382363800530772N840000000002194TFPK00    05DNHAPPY HIPPIE             174730    VD84000000002194 N  549976487134                            000000000+                F DF 10433                     000000000  Y000000000 338   0000000000000.00 0000000.00   0000000.00                             000000000000000                                                                                                                                                     01418 A000000000000 0000000000000.23     00050 02200                  
02069810657290018DT67590675900000002881800888800000010180088824001192363900010500169122920220000000351236322000000000086632414720XXXXXX6658       VS11    0001111   NYV1 A E462363813993857N8400000000035125ZVQ00    05DNHAPPY HIPPIE             09197C    VS84000000003512 N  549976487134                            000000000+                C CC 12112                     000000000  N000000000 497   0000000000000.00 0000000.00   0000000.00                             000000000000000                                                                                                                                                     01418 A000000000000 0000000000000.68     01650 01000                  
02069820657290019BH6759067590000000215480088880000090171229202236322000000000067053    0000090001692363N8008886759C12302022                                                                                                                                                                                                                                                                                                                                                                                                                                                                                                                                                                                                 
02069830657290020DT67590675900000002154800888800000010180088824001192363900016923639122920220000006705336322000000000067053433993XXXXXX7424               2111111   NYV4 A7W582363202799979N840000000067053ZVQ500    01DNDRIP DROP DISTRO LLC     01352G    VB84000000067053 NP1519971004114   17175                    000000000+                G3CG308002                     000000000  N000000000 381   0000000000000.00 0000000.00   0000000.00                             000000000000000                                                                                                                                                     01418 G000000067053 0000000000018.87     02800 01000                  
02069840657290001P16759067590000000215480088880000001010000000000000000    43846093827              2000000000000000000000000              000000000000                    0000000000000000000000000                    000000000000                                                                                                                                                                                                                                                                                                                                                                                                                                                                                        
02069850657290021BH6759067590000000288180088880000090171229202236322000000000069534    0000090001050018N8008886759C12302022                                                                                                                                                                                                                                                                                                                                                                                                                                                                                                                                                                                                 
02069860657290022DT67590675900000002881800888800000010180088824001192363900010500011122920220000000691336322000000000069534429413XXXXXX6616       VS11    0001111   NYV1 A E582363549435241N840000000006913C2MK00    05DNHAPPY HIPPIE             005938    VD84000000006913 N  549976487158                            000000000+                F DF 00381                     000000000  N000000000       0000000000000.00 0000000.00   0000000.00                             000000000000000                                                                                                                                                     01418 A000000000000 0000000000000.70     00800 01500                  
02069870657290023DT67590675900000002881800888800000010180088824001192363900010500029122920220000000246836322000000000069534405206XXXXXX5360       VS11    0001111   NYV1 A E462363559708262N8400000000024682PZ900    05DNHAPPY HIPPIE             839925    VD84000000002468 N  549976487158                            000000000+                F PF 08170                     000000000  N000000000       0000000000000.00 0000000.00   0000000.00                             000000000000000                                                                                                                                                     01418 A000000000000 0000000000000.43     01150 01500                  
02069880657290024DT67590675900000002881800888800000010180088877287282363900010500039122920220000000075536322000000000069534514377XXXXXX7120       MS02WI09          NY 1 0 AMDJFJ6X1W1229  N840000000000755          05DNHAPPY HIPPIE             15M8SE    MD84000000000755 N  549976487158                            000000000+M10101C5434C    MDJ  00505                     000000000  N                0000000000000.00 0000000.00   0000000.00                             000000000000000                                                                                                                                                   B101418  000000000000 0000000000000.16     01550 00400                  
02069890657290025DT67590675900000002881800888800000010180088824001192363900010500045122920220000000592436322000000000069534481176XXXXXX0915       VS11    0001111   NYV1 A E382363631214672N840000000005924556K00    05DNHAPPY HIPPIE             060680    VS84000000005924 N  549976487158                            000000000+                B CB 12111                     000000000  N000000000 495   0000000000000.00 0000000.00   0000000.00                             000000000000000                                                                                                                                                     01418 A000000000000 0000000000001.08     01650 01000                  
02069900657290026DT67590675900000002881800888800000010180088824001192363900010500052122920220000000087636322000000000069534440393XXXXXX8253       VK04VS111111111   NYV1 A E582363682773242N840000000000876HV6500    05DNHAPPY HIPPIE             196579    VD84000000000876 N  549976487158                            000000000+                F PF 08165                     000000000  N000000000       0000000000000.00 0000000.00   0000000.00                             000000000000000                                                                                                                                                     01418 F000000000000 0000000000000.19     01600 00500                  
02069910657290027DT67590675900000002881800888800000010180088877287282363900010500062122920220000000592536322000000000069534552486XXXXXX5239       MS02WI09          NY 1 0 AMWEYK6Q4J1229  N840000000005925          05DNHAPPY HIPPIE             08704Z    MC84000000005925 N  549976487158                            000000000+M10101C5434C    MWE  00743                     000000000  N                0000000000000.00 0000000.00   0000000.00                             000000000000000                                                                                                                                                   B101418  000000000000 0000000000001.40     02300 00400                  
02069920657290028DT67590675900000002881800888800000010180088824001192363900010500078122920220000000453636322000000000069534419090XXXXXX1975       VS11    0001111   NYV1 A E302363703978899N840000000004536NGZ700    05DNHAPPY HIPPIE             314374    VD84000000004536 N  549976487158                            000000000+                F DF 00381                     000000000  N000000000       0000000000000.00 0000000.00   0000000.00                             000000000000000                                                                                                                                                     01418 A000000000000 0000000000000.51     00800 01500                  
02069930657290029DT67590675900000002881800888800000010180088824001192363900010500086122920220000000395036322000000000069534443238XXXXXX5449       VS11    0001111   NYV1 A E302363705723533N84000000000395042NV00    05DNHAPPY HIPPIE             043612    VD84000000003950 N  549976487158                            000000000+                F DF 00381                     000000000  N000000000       0000000000000.00 0000000.00   0000000.00                             000000000000000                                                                                                                                                     01418 A000000000000 0000000000000.47     00800 01500                  
02069940657290030DT67590675900000002881800888800000010180088824001192363900010500094122920220000000454336322000000000069534419090XXXXXX5672       VS11    0001111   NYV1 A E302363706987964N840000000004543M8RJ00    05DNHAPPY HIPPIE             314572    VD84000000004543 N  549976487158                            000000000+                F DF 00381                     000000000  N000000000       0000000000000.00 0000000.00   0000000.00                             000000000000000                                                                                                                                                     01418 A000000000000 0000000000000.51     00800 01500                  
02069950657290031DT67590675900000002881800888800000010180088824001192363900010500102122920220000000325836322000000000069534445100XXXXXX8998       VS11    0001111   NYV1 A E382363709178986N840000000003258KK2R00    05DNHAPPY HIPPIE             099913    VD84000000003258 N  549976487158                            000000000+                F DF 10433                     000000000  Y000000000 338   0000000000000.00 0000000.00   0000000.00                             000000000000000                                                                                                                                                     01418 A000000000000 0000000000000.24     00050 02200                  
02069960657290032DT67590675900000002881800888800000010180088824001192363900010500110122920220000000393836322000000000069534422921XXXXXX4649       VS11    0001111   NYV1 A E382363752936775N840000000003938SDFT00    05DNHAPPY HIPPIE             057294    VD84000000003938 N  549976487158                            000000000+                F DF 00381                     000000000  N000000000       0000000000000.00 0000000.00   0000000.00                             000000000000000                                                                                                                                                     01418 A000000000000 0000000000000.47     00800 01500                  
02069970657290033DT67590675900000002881800888800000010180088824001192363900010500128122920220000000148136322000000000069534480639XXXXXX6865       VK04VS111111111   NYV1 A E382363767782233N840000000001481S7N600    05DNHAPPY HIPPIE             094722    VD84000000001481 N  549976487158                            000000000+                F DF 00451                     000000000  N000000000 214   0000000000000.00 0000000.00   0000000.00                             000000000000000                                                                                                                                                     01418 F000000000000 0000000000000.27     01550 00400                  
02069980657290034DT67590675900000002881800888800000010180088824001192363900010500136122920220000000296236322000000000069534435547XXXXXX4208       VS11    0001111   NYV1 A E302363775077148N8400000000029625KD900    05DNHAPPY HIPPIE             158141    VD84000000002962 N  549976487158                            000000000+                F DF 10433                     000000000  Y000000000 338   0000000000000.00 0000000.00   0000000.00                             000000000000000                                                                                                                                                     01418 A000000000000 0000000000000.23     00050 02200                  
02069990657290035DT67590675900000002881800888800000010180088877287282363900010500146122920220000000285136322000000000069534517805XXXXXX1442       MS02WI09          NY 1 0 AMWEKD159W1229  N840000000002851          05DNHAPPY HIPPIE             01466P    MC84000000002851 N  549976487158                            000000000+M10101C5434C    MWE  00743                     000000000  N                0000000000000.00 0000000.00   0000000.00                             000000000000000                                                                                                                                                   B101418  000000000000 0000000000000.70     02300 00400                  
02070000657290036DT67590675900000002881800888800000010180088824001192363900010500151122920220000000296236322000000000069534415978XXXXXX0021       VS11    0001111   NYV1 A E582363807050466N8400000000029623F8T00    05DNHAPPY HIPPIE             002369    VD84000000002962 N  549976487158                            000000000+                F DF 10433                     000000000  Y000000000 338   0000000000000.00 0000000.00   0000000.00                             000000000000000                                                                                                                                                     01418 A000000000000 0000000000000.23     00050 02200                  
02070010657290037DT67590675900000002881800888800000010180088824001192363900010500169122920220000001095936322000000000069534422921XXXXXX9015       VS11    0001111   NYV1 A E462363810156705N840000000010959F95B00    05DNHAPPY HIPPIE             063016    VD84000000010959 N  549976487158                            000000000+                F DF 00381                     000000000  N000000000       0000000000000.00 0000000.00   0000000.00                             000000000000000                                                                                                                                                     01418 A000000000000 0000000000001.03     00800 01500                  
02070020657290038DT67590675900000002881800888800000010180088824001192363900010500177122920220000000424636322000000000069534491523XXXXXX7823       VS11    0001111   NYV1 A E382363811101315N840000000004246NCMN00    07DNHAPPY HIPPIE             007583    VD84000000004246 N  549976487158                            000000000+                F DF 10433                     000000000  Y000000000 338   0000000000000.00 0000000.00   0000000.00                             000000000000000                                                                                                                                                     01418 A000000000000 0000000000000.24     00050 02200                  
02070030657290039DT67590675900000002881800888800000010180088824001192363900010500185122920220000000098736322000000000069534448261XXXXXX2727       VK04VS111111111   NYV1 A E382363823585025N840000000000987Q8G200    05DNHAPPY HIPPIE             600041    VD84000000000987 N  549976487158                            000000000+                F DF 10439                     000000000  Y000000000 331   0000000000000.00 0000000.00   0000000.00                             000000000000000                                                                                                                                                     01418 F000000000000 0000000000000.22     00050 02200                  
02070040657290040BH6759067590000000096880088880000090171229202236322000000000005545    0000090001149226N8008886759C12302022                                                                                                                                                                                                                                                                                                                                                                                                                                                                                                                                                                                                 
02070050657290041DT67590675900000000968800888800000010180088824001192363900011492267122920220000000554536322000000000005545421783XXXXXX7168               2111111   NYV4 A7W302363140808195N840000000005545XDNM00    01DNHIGHER FLOUR LLC         043937    VS84000000005545 NP1546271004114   RGXOMRGUYAUQCZEALXZD     000000000+                A CA 12106                     000000000  N000000000 492   0000000000000.00 0000000.00   0000000.00                             000000000000000                                                                                                                                                     01418 G000000005545 0000000000001.15     01890 01000                  
02070060657290001P16759067590000000096880088880000001010000000000000000                             2000000000000000000000000              000000000000                    0000000000000000000000000                    000000000000                                                                                                                                                                                                                                                                                                                                                                                                                                                                                        
