01435670547720002BH6759067590000000017480000180000090171025202229822000000000002045    0000090001010005N8000016759C10262022                                                                                                                                                                                                                                                                                                                                                                                                                                                                                                                                                                                                 
01435680547720003DT67590675900000000174800001800000010180000176509752298900010100026102520220000000052029822000000000002045601100XXXXXX6003   BA50                  NY41 0 N742256944596924N840000000000520    00    05DNVERMONT STATE BANK       02551R    DS84000000000520 N  601275549271050                         000000000+0000004910H00   DCCDI01000402000  082059000000 000000000  0          112   0000000000000.00 0000000.00   0000000.00                             000000000000000                                                                                                                                                     01418  000000000000 0000000000000.19     01720 01000                  
01435690547720004DT67590675900000000174800001800000010180000124001192298900010100036102520220000000050429822000000000002045440066XXXXXX5953       VS11    0001111   NYV1 A E382298497746152N840000000000504CCVL00    05DNVERMONT STATE BANK       08196A    VS84000000000504 N  601275549271                            000000000+                A CA 12110                     000000000  N000000000 493   0000000000000.00 0000000.00   0000000.00                             000000000000000                                                                                                                                                     01418 A000000000000 0000000000000.18     01510 01000                  
01435700547720005DT67590675900000000174800001800000010180000124001192298900010100044102520220000000051029822000000000002045474489XXXXXX3159       VS11    0001111   NYV1 A E462298499381877N840000000000510VWWJ00    05DNVERMONT STATE BANK       105021    VD84000000000510 N  601275549271                            000000000+                F DF 10433                     000000000  Y000000000 338   0000000000000.00 0000000.00   0000000.00                             000000000000000                                                                                                                                                     01418 A000000000000 0000000000000.22     00050 02200                  
01435710547720006DT67590675900000000174800001800000010180000124001192298900010100051102520220000000051129822000000000002045474489XXXXXX3159               1001111   NYV1 A K462298500832809N840000000000511V68S00    01DNVERMONT STATE BANK       105041    VD84000000000511 N  601275549271                            000000000+                F DF 10436                     000000000  Y000000000 338   0000000000000.00 0000000.00   0000000.00                             000000000000000                                                                                                                                                     01418 E000000000000 0000000000000.22     00050 02200                  
