00010020167990002BH6759067590000001427480010280000090170607202315823000000000184930    0000090001124562Y8001026759C06082023112                                                                                                                                                                                                                                                                                                                                                                                                                                                                                                                                                                                              
00010030167990003DT67590675900000014274800102800000010180010287287283158900011240128060620230000002118615823000000000184930536217XXXXXX7474       ME03KE06MS02      NY 4607AMDSN8LSV90603  N840000000021186          81DNCBD8666317293            502463    MD84000000021186 NDR549977145232   F48CBB94D4T9C9FA2AA3D26  000000000+600450S00130    MDS  00401                     000000000  N                0000000000000.00 0000000.00   0000000.00                             000000000000000                                                                                                                                                   U001424  000000000000 0000000000003.65     01650 01500                  
00010040167990003DR675906759000000142748001028000000101F48CBB94D4T9C9FA2AA3D26  Y000000000000                                                                                                                                                                                                                                                                                                                                                                                                                                                                                                                                                                                                                               
00010050167990001G2675906759000000142748001028000000101866-6317293              GA           9 S               210                                      NNNN           210000000000000000000000000                                                                   77145232                                                                                                                                                                                                                                                                                                                                                                                                                                               
00010060167990004DT67590675900000014274800102800000010180010224001193158900011240150060620230000002106215823000000000184930473702XXXXXX7735               2111111   NYV4 A7W383154649502629N840000000021062NNXN00    01DNCBD8666317293            093693    VD84000000021062 NDR549977145232   211DA9D249T77EDD22DEAD5  000000000+                F DF 10420                     000000000  Y000000000 338   0000000000000.00 0000000.00   0000000.00                             000000000000000                                                                                                                                                     01424 G000000021062 0000000000000.33     00050 02200                  
00010070167990004DR675906759000000142748001028000000101211DA9D249T77EDD22DEAD5  Y000000021062                 P1                                                                                                                                                                                                                                                                                                                                                                                                                                                                                                                                                                                                            
00010080167990001P16759067590000001427480010280000001010000000000000000                             2000000000000000000000000              000000000000                    0000000000000000000000000                    000000000000                                                                                                                                                                                                                                                                                                                                                                                                                                                                                        
00010090167990002G2675906759000000142748001028000000101866-6317293              GA           9 D                00                                      NNNN   N                      000000000000                                                                   77145232                                                                                                                                                                                                                                                                                                                                                                                                                                               
00010100167990005DT67590675900000014274800102800000010180010287287283158900011240292060620230000002604215823000000000184930517805XXXXXX2274       ME03KE06MS02      NY 4607AMPLCA71DN0603  N840000000026042          81DNCBD8666317293            05489B    MC84000000026042 NDR549977145232   61EA3D7ECFTA40D8E9D0306  000000000+600450S00130    MPL  00580                     000000000  N                0000000000000.00 0000000.00   0000000.00                             000000000000000                                                                                                                                                   U001424  000000000000 0000000000005.57     02100 01000                  
00010110167990005DR67590675900000014274800102800000010161EA3D7ECFTA40D8E9D0306  Y000000000000                                                                                                                                                                                                                                                                                                                                                                                                                                                                                                                                                                                                                               
00010120167990001G2675906759000000142748001028000000101866-6317293              GA           9 L               210                                      NNNN           210000000000000000000000000                        7                                          77145232                                                                                                                                                                                                                                                                                                                                                                                                                                               
00010130167990006DT67590675900000014274800102800000010680010287287283158900011244070060620230000001987015823000000000184930557619XXXXXX7468                         NY 4607AMDJT59C1I0606  N840000000019870          81CNCBD8666317293            006613    MD84000000019870 NDR549977145232   41307A85D1TCD0C9E058395  000000000+600450S00130    MDJ  00560                     000000000  N                0000000000000.00 0000000.00   0000000.00                             000000000000000                                                                                                                                                     01424  000000000000 0000000000000.00     00000 00000                  
00010140167990006DR67590675900000014274800102800000010641307A85D1TCD0C9E058395  R000000000000                                                                                                                                                                                                                                                                                                                                                                                                                                                                                                                                                                                                                               
00010150167990001G2675906759000000142748001028000000106866-6317293              GA           9 J               210                                      NNNN           210000000000000000000000000                        7                                          77145232                                                                                                                                                                                                                                                                                                                                                                                                                                               
00010160167990007DT67590675900000014274800102800000010180010287287283158900011244153060620230000002487015823000000000184930558189XXXXXX7536                         NY 4607AMDBW5OD3H0606  N840000000024870          81DNCBD8666317293            596142    MD84000000024870 NDR549977145232   91D74B8A4ET0F200A1E1EA6  000000000+600450S00130    MDB  00062                     000000000  N                0000000000000.00 0000000.00   0000000.00                             000000000000000                                                                                                                                                   U001424  000000000000 0000000000006.69     02650 01000                  
00010170167990007DR67590675900000014274800102800000010191D74B8A4ET0F200A1E1EA6  Y000000000000                 P1                                                                                                                                                                                                                                                                                                                                                                                                                                                                                                                                                                                                            
00010180167990001P1675906759000000142748001028000000101                                                          000000000000          8000            871584967                                                                                                                                                                                                                                                                                                                                                                                                                                                                                                                                                            
00010190167990002G2675906759000000142748001028000000101866-6317293              GA           9 B               210                  871584967           YNNN           210000000000000000000000000                        7                                          77145232                                                                                                                                                                                                                                                                                                                                                                                                                                               
00010200167990008DT67590675900000014274800102800000010180010224001193158900011244228060620230000000019915823000000000184930404038XXXXXX9085               2111111   NYV4 A7W383158117043193N840000000000199T5L400    01DNCBD8666317293            DX99C8    VD84000000000199 NDR549977145232   A4206DAC2ET1D52DDF95E22  000000000+                S PS 10179                     000000000  N000000000 364   0000000000000.00 0000000.00   0000000.00                             000000000000000                                                                                                                                                     01424 G000000000199 0000000000000.15     02650 01000                  
00010210167990008DR675906759000000142748001028000000101A4206DAC2ET1D52DDF95E22  Y000000000199                 P1                                                                                                                                                                                                                                                                                                                                                                                                                                                                                                                                                                                                            
00010220167990001P16759067590000001427480010280000001010000000000000000                             2000000000000000000000000              000000000000                    0000000000000000000000000                    000000000000                                                                                                                                                                                                                                                                                                                                                                                                                                                                                        
00010230167990002G2675906759000000142748001028000000101866-6317293              GA           9 P                00                                      NNNN   N                      000000000000                                                                   77145232                                                                                                                                                                                                                                                                                                                                                                                                                                               
00010240167990009DT67590675900000014274800102800000010180010224001193158900011244277060720230000000160715823000000000184930402464XXXXXX2047               2111111   NYV4 A7W383158268012773N8400000000016078R5500    01DNCBD8666317293            667915    VD84000000001607 NDR549977145232   FD186B2FBBT3F09AC9C8572  000000000+                F DF 10420                     000000000  Y000000000 338   0000000000000.00 0000000.00   0000000.00                             000000000000000                                                                                                                                                     01424 G000000001607 0000000000000.23     00050 02200                  
00010250167990009DR675906759000000142748001028000000101FD186B2FBBT3F09AC9C8572  Y000000001607                 P1                                                                                                                                                                                                                                                                                                                                                                                                                                                                                                                                                                                                            
00010260167990001P16759067590000001427480010280000001010000000000000000                             2000000000000000000000000              000000000000                    0000000000000000000000000                    000000000000                                                                                                                                                                                                                                                                                                                                                                                                                                                                                        
00010270167990002G2675906759000000142748001028000000101866-6317293              GA           9 D                00                                      NNNN   N                      000000000000                                                                   77145232                                                                                                                                                                                                                                                                                                                                                                                                                                               
00010280167990010DT67590675900000014274800102800000010180010224001193158900011244285060720230000000164415823000000000184930458453XXXXXX1451               2111111   NYV4 A7W303158307454919N840000000001644HWX400    01DNCBD8666317293            033225    VD84000000001644 NDR549977145232   00D0CFA669TCEA972CFD185  000000000+                F DF 10420                     000000000  Y000000000 338   0000000000000.00 0000000.00   0000000.00                             000000000000000                                                                                                                                                     01424 G000000001644 0000000000000.23     00050 02200                  
00010290167990010DR67590675900000014274800102800000010100D0CFA669TCEA972CFD185  N000000001644                 P1                                                                                                                                                                                                                                                                                                                                                                                                                                                                                                                                                                                                            
00010300167990001P16759067590000001427480010280000001010000000000000000                             2000000000000000000000000              000000000000                    0000000000000000000000000                    000000000000                                                                                                                                                                                                                                                                                                                                                                                                                                                                                        
00010310167990002G2675906759000000142748001028000000101866-6317293              GA           9 D                00                                      NNNN   N                      000000000000                                                                   77145232                                                                                                                                                                                                                                                                                                                                                                                                                                               
00010320167990011DT67590675900000014274800102800000010180010287287283158900011244294060720230000000019915823000000000184930531993XXXXXX8300                         NY 4607AMCPIDAE2W0607  N840000000000199          81DNCBD8666317293            D5NRGZ    MB84000000000199 NDR549977145232   5392BAA8A2TB20BA35C6526  000000000+600450S00130    MCP  00303                     000000000  N                0000000000000.00 0000000.00   0000000.00                             000000000000000                                                                                                                                                   U001424  000000000000 0000000000000.15     02700 01000                  
00010330167990011DR6759067590000001427480010280000001015392BAA8A2TB20BA35C6526  Y000000000000                 P1                                                                                                                                                                                                                                                                                                                                                                                                                                                                                                                                                                                                            
00010340167990001P1675906759000000142748001028000000101                                                          000000000000          8000            871584967                                                                                                                                                                                                                                                                                                                                                                                                                                                                                                                                                            
00010350167990002G2675906759000000142748001028000000101866-6317293              GA           9 P               210                  871584967           YNNN           210000000000000000000000000                                                                   77145232                                                                                                                                                                                                                                                                                                                                                                                                                                               
00010360167990012DT67590675900000014274800102800000010180010287287283158900011244328060720230000000019915823000000000184930556150XXXXXX5431                         NY 4607AMCFIKKX2W0607  N840000000000199          81DNCBD8666317293            6QJCXJ    MB84000000000199 NDR549977145232   9FA2FF9FD8T04426F6B86D4  000000000+600450S00130    MCF  00060                     000000000  N                0000000000000.00 0000000.00   0000000.00                             000000000000000                                                                                                                                                     01424  000000000000 0000000000000.16     02950 01000                  
00010370167990012DR6759067590000001427480010280000001019FA2FF9FD8T04426F6B86D4  Y000000000000                 P1                                                                                                                                                                                                                                                                                                                                                                                                                                                                                                                                                                                                            
00010380167990001P1675906759000000142748001028000000101                                                          000000000000          8000            871584967                                                                                                                                                                                                                                                                                                                                                                                                                                                                                                                                                            
00010390167990002G2675906759000000142748001028000000101866-6317293              GA           9 F               210                  871584967           YNNN           210000000000000000000000000                                                                   77145232                                                                                                                                                                                                                                                                                                                                                                                                                                               
00010400167990013DT67590675900000014274800102800000010180010224001193158900011244343060720230000002618815823000000000184930444796XXXXXX4665               2111111   NYV4 A7W303158375047671N840000000026188HNCJ00    01DNCBD8666317293            007703    VS84000000026188 NDR549977145232   57917F5B9CT24AAFA293D1B  000000000+                A CA 12106                     000000000  N000000000 492   0000000000000.00 0000000.00   0000000.00                             000000000000000                                                                                                                                                     01424 G000000026188 0000000000005.05     01890 01000                  
00010410167990013DR67590675900000014274800102800000010157917F5B9CT24AAFA293D1B  Y000000026188                 P1                                                                                                                                                                                                                                                                                                                                                                                                                                                                                                                                                                                                            
00010420167990001P16759067590000001427480010280000001010000000000000000                             2000000000000000000000000              000000000000                    0000000000000000000000000                    000000000000                                                                                                                                                                                                                                                                                                                                                                                                                                                                                        
00010430167990002G2675906759000000142748001028000000101866-6317293              GA           9 C                00                                      NNNN   N                      000000000000                                                                   77145232                                                                                                                                                                                                                                                                                                                                                                                                                                               
00010440167990014DT67590675900000014274800102800000010180010287287283158900011244443060720230000000019915823000000000184930514376XXXXXX4986                         NY 4607AMPWJZCE2W0607  N840000000000199          81DNCBD8666317293            491863    MD84000000000199 NDR549977145232   EA1BC44DFBT34FB48D8F989  000000000+600450S00130    MPW  00062                     000000000  N                0000000000000.00 0000000.00   0000000.00                             000000000000000                                                                                                                                                   U001424  000000000000 0000000000000.15     02650 01000                  
00010450167990014DR675906759000000142748001028000000101EA1BC44DFBT34FB48D8F989  Y000000000000                 P1                                                                                                                                                                                                                                                                                                                                                                                                                                                                                                                                                                                                            
00010460167990001P1675906759000000142748001028000000101                                                          000000000000          8000            871584967                                                                                                                                                                                                                                                                                                                                                                                                                                                                                                                                                            
00010470167990002G2675906759000000142748001028000000101866-6317293              GA           9 W               210                  871584967           YNNN           210000000000000000000000000                                                                   77145232                                                                                                                                                                                                                                                                                                                                                                                                                                               
00010480167990015DT67590675900000014274800102800000010180010224001193158900011244657060720230000002618815823000000000184930441767XXXXXX9302               2111111   NYV4 A7W383158494210369N840000000026188XPF300    01DNCBD8666317293            502627    VD84000000026188 NDR549977145232   FCA033ADA0T80E7F3C8FCDE  000000000+                F DF 00415                     000000000  N000000000       0000000000000.00 0000000.00   0000000.00                             000000000000000                                                                                                                                                     01424 G000000026188 0000000000004.47     01650 01500                  
00010490167990015DR675906759000000142748001028000000101FCA033ADA0T80E7F3C8FCDE  Y000000026188                 P1                                                                                                                                                                                                                                                                                                                                                                                                                                                                                                                                                                                                            
00010500167990001P16759067590000001427480010280000001010000000000000000                             2000000000000000000000000              000000000000                    0000000000000000000000000                    000000000000                                                                                                                                                                                                                                                                                                                                                                                                                                                                                        
00010510167990002G2675906759000000142748001028000000101866-6317293              GA           9 D                00                                      NNNN   N                      000000000000                                                                   77145232                                                                                                                                                                                                                                                                                                                                                                                                                                               
00010520167990016DT67590675900000014274800102800000010180010224001193158900011244749060720230000000019915823000000000184930485997XXXXXX7181               2111111   NYV4 A7W303158546166382N84000000000019988RF00    01DNCBD8666317293            VX5O6W    VB84000000000199 NDR549977145232   8A5C3998CAT2CF315C92269  000000000+                S CS 00692                     000000000  N000000000 237   0000000000000.00 0000000.00   0000000.00                             000000000000000                                                                                                                                                     01424 G000000000199 0000000000000.15     02700 01000                  
00010530167990016DR6759067590000001427480010280000001018A5C3998CAT2CF315C92269  Y000000000199                 P1                                                                                                                                                                                                                                                                                                                                                                                                                                                                                                                                                                                                            
00010540167990001P16759067590000001427480010280000001010000000000000000                             2000000000000000000000000              000000000000                    0000000000000000000000000                    000000000000                                                                                                                                                                                                                                                                                                                                                                                                                                                                                        
00010550167990002G2675906759000000142748001028000000101866-6317293              GA           9 C                00                                      NNNN   N                      000000000000                                                                   77145232                                                                                                                                                                                                                                                                                                                                                                                                                                               
00010560167990017DT67590675900000014274800102800000010680010274001193158900011244918060720230000002661115823000000000184930413037XXXXXX1148               0000000   NYV4 07T383158606177838N8400000000266119FXP00    01CNCBD8666317293            031437    VD84000000026611 NDR549977145232   4F3B7CC125TBD2699A144BC  000000000+                F DF 08168                     000000000  Y000000000 369   0000000000000.00 0000000.00   0000000.00                             000000000000000                                                                                                                                                     01424  000000026611 0000000000000.00     00000 00000                  
00010570167990017DR6759067590000001427480010280000001064F3B7CC125TBD2699A144BC  Y000000026611                 P1                                                                                                                                                                                                                                                                                                                                                                                                                                                                                                                                                                                                            
00010580167990001P16759067590000001427480010280000001060000000000000000                             2000000000000000000000000              000000000000                    0000000000000000000000000                    000000000000                                                                                                                                                                                                                                                                                                                                                                                                                                                                                        
00010590167990002G2675906759000000142748001028000000106866-6317293              GA           9 D                00                                      NNNN   N                      000000000000                                                                   77145232                                                                                                                                                                                                                                                                                                                                                                                                                                               
00010600167990018DT67590675900000014274800102800000010180010287287283158900011244922060720230000002159915823000000000184930559430XXXXXX5495       ME03KE06MS02      NY 4607AMDJHWVODT0607  N840000000021599          81DNCBD8666317293            464026    MD84000000021599 NDR549977145232   409958FB64TA03BE999573C  000000000+600450S00130    MDJ  00401                     000000000  N                0000000000000.00 0000000.00   0000000.00                             000000000000000                                                                                                                                                   U001424  000000000000 0000000000003.71     01650 01500                  
00010610167990018DR675906759000000142748001028000000101409958FB64TA03BE999573C  Z000000000000                                                                                                                                                                                                                                                                                                                                                                                                                                                                                                                                                                                                                               
00010620167990001G2675906759000000142748001028000000101866-6317293              GA           9 J               210                                      NNNN           210000000000000000000000000                                                                   77145232                                                                                                                                                                                                                                                                                                                                                                                                                                               
00010630167990019DT67590675900000014274800102800000010180010287287283158900011245036060720230000001987015823000000000184930517805XXXXXX8522       ME03KE06MS02      NY 4607AMPLIL7KDT0607  N840000000019870          81DNCBD8666317293            05140B    MC84000000019870 NDR549977145232   EF27C53312TE27B0CC41FFD  000000000+600450S00130    MPL  00580                     000000000  N                0000000000000.00 0000000.00   0000000.00                             000000000000000                                                                                                                                                   U001424  000000000000 0000000000004.27     02100 01000                  
00010640167990019DR675906759000000142748001028000000101EF27C53312TE27B0CC41FFD  Y000000000000                                                                                                                                                                                                                                                                                                                                                                                                                                                                                                                                                                                                                               
00010650167990001G2675906759000000142748001028000000101866-6317293              GA           9 L               210                                      NNNN           210000000000000000000000000                        7                                          77145232                                                                                                                                                                                                                                                                                                                                                                                                                                               
00010660167990020DT67590675900000014274800102800000010180010224001193158900011245183060720230000000019915823000000000184930412076XXXXXX6589               2111111   NYV4 A7W583158639781092N8400000000001999NP800    01DNCBD8666317293            877145    VS84000000000199 NDR549977145232   8069153EE8T168F4EE194AC  000000000+                A CA 12106                     000000000  N000000000 492   0000000000000.00 0000000.00   0000000.00                             000000000000000                                                                                                                                                     01424 G000000000199 0000000000000.14     01890 01000                  
00010670167990020DR6759067590000001427480010280000001018069153EE8T168F4EE194AC  Y000000000199                 P1                                                                                                                                                                                                                                                                                                                                                                                                                                                                                                                                                                                                            
00010680167990001P16759067590000001427480010280000001010000000000000000                             2000000000000000000000000              000000000000                    0000000000000000000000000                    000000000000                                                                                                                                                                                                                                                                                                                                                                                                                                                                                        
00010690167990002G2675906759000000142748001028000000101866-6317293              GA           9 C                00                                      NNNN   N                      000000000000                                                                   77145232                                                                                                                                                                                                                                                                                                                                                                                                                                               
00010700167990021DT67590675900000014274800102800000010680010287287283158900011245333060720230000001053115823000000000184930552499XXXXXX1658                         NY 4607AMCW8DIK930607  N840000000010531          81CNCBD8666317293            007051    MC84000000010531 NDR549977145232   DE3C39E65CT90A43D1D2BF9  000000000+600450S00130    MCW  00565                     000000000  N                0000000000000.00 0000000.00   0000000.00                             000000000000000                                                                                                                                                     01424  000000000000-0000000000001.84     01750 00000                  
00010710167990021DR675906759000000142748001028000000106DE3C39E65CT90A43D1D2BF9  R000000000000                                                                                                                                                                                                                                                                                                                                                                                                                                                                                                                                                                                                                               
00010720167990001G2675906759000000142748001028000000106866-6317293              GA           9 W               210                                      NNNN           210000000000000000000000000                        7                                          77145232                                                                                                                                                                                                                                                                                                                                                                                                                                               
00010730167990022DT67590675900000014274800102800000010180010224001193158900011245456060720230000000019915823000000000184930451946XXXXXX2891               2111111   NYV4 A7W583158765781896N840000000000199VFF500    01DNCBD8666317293            DKS597    VS84000000000199 NDR549977145232   9155316F6CT6009A0EA97D6  000000000+                A CA 12106                     000000000  N000000000 492   0000000000000.00 0000000.00   0000000.00                             000000000000000                                                                                                                                                     01424 G000000000199 0000000000000.14     01890 01000                  
00010740167990022DR6759067590000001427480010280000001019155316F6CT6009A0EA97D6  Y000000000199                 P1                                                                                                                                                                                                                                                                                                                                                                                                                                                                                                                                                                                                            
00010750167990001P16759067590000001427480010280000001010000000000000000                             2000000000000000000000000              000000000000                    0000000000000000000000000                    000000000000                                                                                                                                                                                                                                                                                                                                                                                                                                                                                        
00010760167990002G2675906759000000142748001028000000101866-6317293              GA           9 C                00                                      NNNN   N                      000000000000                                                                   77145232                                                                                                                                                                                                                                                                                                                                                                                                                                               
00010770167990023DT67590675900000014274800102800000010180010224001193158900011245464060720230000000019915823000000000184930428821XXXXXX6479               2111111   NYV4 A7W383158767014489N84000000000019988FZ00    01DNCBD8666317293            227738    VB84000000000199 NDR549977145232   C1207EB45BT5D2163E997FF  000000000+                S CS 00692                     000000000  N000000000 237   0000000000000.00 0000000.00   0000000.00                             000000000000000                                                                                                                                                     01424 G000000000199 0000000000000.15     02700 01000                  
00010780167990023DR675906759000000142748001028000000101C1207EB45BT5D2163E997FF  Y000000000199                 P1                                                                                                                                                                                                                                                                                                                                                                                                                                                                                                                                                                                                            
00010790167990001P16759067590000001427480010280000001010000000000000000                             2000000000000000000000000              000000000000                    0000000000000000000000000                    000000000000                                                                                                                                                                                                                                                                                                                                                                                                                                                                                        
00010800167990002G2675906759000000142748001028000000101866-6317293              GA           9 C                00                                      NNNN   N                      000000000000                                                                   77145232                                                                                                                                                                                                                                                                                                                                                                                                                                               
00010810167990024DT67590675900000014274800102800000010180010224001193158900011245548060720230000002172715823000000000184930414709XXXXXX9338               2111111   NYV4 A7W383158797983708N8400000000217273JWN00    01DNCBD8666317293            08765D    VS84000000021727 NDR549977145232   4174B3E54CT6F800D041850  000000000+                D CD 12109                     000000000  N000000000 498   0000000000000.00 0000000.00   0000000.00                             000000000000000                                                                                                                                                     01424 G000000021727 0000000000005.53     02500 01000                  
00010820167990024DR6759067590000001427480010280000001014174B3E54CT6F800D041850  Y000000021727                 P1                                                                                                                                                                                                                                                                                                                                                                                                                                                                                                                                                                                                            
00010830167990001P16759067590000001427480010280000001010000000000000000                             2000000000000000000000000              000000000000                    0000000000000000000000000                    000000000000                                                                                                                                                                                                                                                                                                                                                                                                                                                                                        
00010840167990002G2675906759000000142748001028000000101866-6317293              GA           9 C                00                                      NNNN   Y                      000000000000                                                                   77145232                                                                                                                                                                                                                                                                                                                                                                                                                                               
00010850167990025DT67590675900000014274800102800000010180010224001193158900011245555060720230000000149515823000000000184930422967XXXXXX7051               2111111   NYV4 A7W583158799560604N840000000001495532H00    01DNCBD8666317293            468684    VD84000000001495 NDR549977145232   300CBEF2F5TC135F0EAE92A  000000000+                F PF 10453                     000000000  Y000000000 338   0000000000000.00 0000000.00   0000000.00                             000000000000000                                                                                                                                                     01424 G000000001495 0000000000000.23     00050 02200                  
00010860167990025DR675906759000000142748001028000000101300CBEF2F5TC135F0EAE92A  Y000000001495                 P1                                                                                                                                                                                                                                                                                                                                                                                                                                                                                                                                                                                                            
00010870167990001P16759067590000001427480010280000001010000000000000000                             2000000000000000000000000              000000000000                    0000000000000000000000000                    000000000000                                                                                                                                                                                                                                                                                                                                                                                                                                                                                        
00010880167990002G2675906759000000142748001028000000101866-6317293              GA           9 P                00                                      NNNN   N                      000000000000                                                                   77145232                                                                                                                                                                                                                                                                                                                                                                                                                                               
00010890167990026DT67590675900000014274800102800000010180010287287283158900011245572060720230000002667315823000000000184930517546XXXXXX4367       ME03KE06MS02      NY 4607AMDJXEQOF90607  N840000000026673          81DNCBD8666317293            007508    MD84000000026673 NDR549977145232   D7F3760769T72B2D657857A  000000000+600450S00130    MDJ  10813                     000000000  1                0000000000000.00 0000000.00   0000000.00                             000000000000000                                                                                                                                                   U001424  000000000000 0000000000000.35     00050 02200                  
00010900167990026DR675906759000000142748001028000000101D7F3760769T72B2D657857A  Z000000000000                                                                                                                                                                                                                                                                                                                                                                                                                                                                                                                                                                                                                               
00010910167990001G2675906759000000142748001028000000101866-6317293              GA           9 J               210                                      NNNN           210000000000000000000000000                        7                                          77145232                                                                                                                                                                                                                                                                                                                                                                                                                                               
00010920167990027DT67590675900000014274800102800000010180010224001193158900011245621060720230000000019915823000000000184930440872XXXXXX0646               2111111   NYV4 A7W583158826235991N840000000000199DPKZ00    01DNCBD8666317293            RO09EY    VB84000000000199 NDR549977145232   010B4D2B72TDE3A86975E9F  000000000+                K CK 00691                     000000000  N000000000 234   0000000000000.00 0000000.00   0000000.00                             000000000000000                                                                                                                                                     01424 G000000000199 0000000000000.15     02700 01000                  
00010930167990027DR675906759000000142748001028000000101010B4D2B72TDE3A86975E9F  Y000000000199                 P1                                                                                                                                                                                                                                                                                                                                                                                                                                                                                                                                                                                                            
00010940167990001P16759067590000001427480010280000001010000000000000000                             2000000000000000000000000              000000000000                    0000000000000000000000000                    000000000000                                                                                                                                                                                                                                                                                                                                                                                                                                                                                        
00010950167990002G2675906759000000142748001028000000101866-6317293              GA           9 C                00                                      NNNN   N                      000000000000                                                                   77145232                                                                                                                                                                                                                                                                                                                                                                                                                                               
00010960167990028BH6759067590000002092580011280000090170607202315823000000000024908    0000090001300082Y8001126759C06082023030                                                                                                                                                                                                                                                                                                                                                                                                                                                                                                                                                                                              
00010970167990029DT67590675900000020925800112800000010180011287287283158900013000819060720230000002112215823000000000024908527519XXXXXX6014       ME03KE06MS02      NY 4607AMDJCFMS400607  N840000000021122          81DNJ K DISTRIBUTION INC     100692    MD84000000021122 NDR549977712156   8418425569               000000000+600450S00130    MDJ  10813                     000000000  1                0000000000000.00 0000000.00   0000000.00                             000000000000000                                                                                                                                                   U001424  000000000000 0000000000000.33     00050 02200                  
00010980167990029DR6759067590000002092580011280000001018418425569               Z000000000000                                                                                                                                                                                                                                                                                                                                                                                                                                                                                                                                                                                                                               
00010990167990001G2675906759000000209258001128000000101860-8957639              CT           9 J               210                                      NNNN           210000000000000000000000000                        7                                          77712156                                                                                                                                                                                                                                                                                                                                                                                                                                               
00011000167990030DT67590675900000020925800112800000010180011224001193158900013000826060720230000000378615823000000000024908483316XXXXXX2933               2111111   NYV4 A7W583158731295089N840000000003786KZJD00    01DNJ K DISTRIBUTION INC     091816    VD84000000003786 NDR549977712156   8419373543               000000000+                F DF 10420                     000000000  Y000000000 338   0000000000000.00 0000000.00   0000000.00                             000000000000000                                                                                                                                                     01424 G000000003786 0000000000000.24     00050 02200                  
00011010167990030DR6759067590000002092580011280000001018419373543               Z000000003786                 P1                                                                                                                                                                                                                                                                                                                                                                                                                                                                                                                                                                                                            
00011020167990001P16759067590000002092580011280000001010000000000000000                             2000000000000000000000000              000000000000                    0000000000000000000000000                    000000000000                                                                                                                                                                                                                                                                                                                                                                                                                                                                                        
00011030167990002G2675906759000000209258001128000000101203-8159817              CT           9 D                00                                      NNNN   N                      000000000000                                                                   77712156                                                                                                                                                                                                                                                                                                                                                                                                                                               
00011040167990031BH6759067590000001330080010280000090170607202315823000000000174199    0000090001125744Y8001026759C06082023112                                                                                                                                                                                                                                                                                                                                                                                                                                                                                                                                                                                              
00011050167990032DT67590675900000013300800102800000010180010287287283158900011250226060620230000002667315823000000000174199534857XXXXXX2194                         NY 4607AMDBIE1MV90603  N840000000026673          81DNCBD8666317293            142507    MD84000000026673 NDR549977133133                            000000000+600450S00130    MDB  10788                     000000000  1                0000000000000.00 0000000.00   0000000.00                             000000000000000                                                                                                                                                   U001424  000000000000 0000000000000.35     00050 02200                  
00011060167990032DR675906759000000133008001028000000101                         Y000000000000                 P1                                                                                                                                                                                                                                                                                                                                                                                                                                                                                                                                                                                                            
00011070167990001P1675906759000000133008001028000000101                                                 000001803000000000000          8000   000000000871584967            000000000000                                                                                                                                                                                                                                                                                                                                                                                                                                                                                                                                    
00011080167990002G2675906759000000133008001028000000101866-6317293              GA           9 B               210                  871584967           YNNN           210000000000000000000000000                        7                                          77133133                                                                                                                                                                                                                                                                                                                                                                                                                                               
00011090167990033DT67590675900000013300800102800000010180010287287283158900011250234060620230000002126115823000000000174199511516XXXXXX4768       ME03KE06MS02      NY 4607AMPAN152WW0603  N840000000021261          81DNCBD8666317293            191234    MD84000000021261 NDR549977133133   37A99B85DCT427C950B48CA  000000000+600450S00130    MPA  09899                     000000000  N                0000000000000.00 0000000.00   0000000.00                             000000000000000                                                                                                                                                   U001424  000000000000 0000000000003.94     01760 02000                  
00011100167990033DR67590675900000013300800102800000010137A99B85DCT427C950B48CA  Y000000000000                                                                                                                                                                                                                                                                                                                                                                                                                                                                                                                                                                                                                               
00011110167990001G2675906759000000133008001028000000101866-6317293              GA           9 A               210                                      NNNN           210000000000000000000000000                                                                   77133133                                                                                                                                                                                                                                                                                                                                                                                                                                               
00011120167990034DT67590675900000013300800102800000010180010287287283158900011250564060620230000001987015823000000000174199530053XXXXXX5518       ME03KE06MS02      NY 4607AMPLPLR5EK0603  N840000000019870          81DNCBD8666317293            091506    MC84000000019870 NDR549977133133   596A17473CT8D2EEA3E9A1F  000000000+600450S00130    MPL  00013                     000000000  N                0000000000000.00 0000000.00   0000000.00                             000000000000000                                                                                                                                                   U001424  000000000000 0000000000003.97     01950 01000                  
00011130167990034DR675906759000000133008001028000000101596A17473CT8D2EEA3E9A1F  Y000000000000                                                                                                                                                                                                                                                                                                                                                                                                                                                                                                                                                                                                                               
00011140167990001G2675906759000000133008001028000000101866-6317293              GA           9 L               210                                      NNNN           210000000000000000000000000                                                                   77133133                                                                                                                                                                                                                                                                                                                                                                                                                                               
00011150167990035DT67590675900000013300800102800000010180010287287283158900011254988060620230000000019915823000000000174199524897XXXXXX1489                         NY 4607AMCPXK8FWO0606  N840000000000199          81DNCBD8666317293            MA86CS    MB84000000000199 NDR549977133133   55094BEB27T1F33AB238430  000000000+600450S00130    MCP  00303                     000000000  N                0000000000000.00 0000000.00   0000000.00                             000000000000000                                                                                                                                                   U001424  000000000000 0000000000000.15     02700 01000                  
00011160167990035DR67590675900000013300800102800000010155094BEB27T1F33AB238430  Y000000000000                 P1                                                                                                                                                                                                                                                                                                                                                                                                                                                                                                                                                                                                            
00011170167990001P1675906759000000133008001028000000101                                                          000000000000          8000            871584967                                                                                                                                                                                                                                                                                                                                                                                                                                                                                                                                                            
00011180167990002G2675906759000000133008001028000000101866-6317293              GA           9 P               210                  871584967           YNNN           210000000000000000000000000                                                                   77133133                                                                                                                                                                                                                                                                                                                                                                                                                                               
00011190167990036DT67590675900000013300800102800000010180010224001193158900011255208060620230000001499115823000000000174199477354XXXXXX9902               2111111   NYV4 A7W383158053126248N840000000014991SKQV00    01DNCBD8666317293            518045    VD84000000014991 NDR549977133133   46CAF20356T095A7B07C013  000000000+                F DF 00415                     000000000  N000000000       0000000000000.00 0000000.00   0000000.00                             000000000000000                                                                                                                                                     01424 G000000014991 0000000000002.62     01650 01500                  
00011200167990036DR67590675900000013300800102800000010146CAF20356T095A7B07C013  Y000000014991                 P1                                                                                                                                                                                                                                                                                                                                                                                                                                                                                                                                                                                                            
00011210167990001P16759067590000001330080010280000001010000000000000000                             2000000000000000000000000              000000000000                    0000000000000000000000000                    000000000000                                                                                                                                                                                                                                                                                                                                                                                                                                                                                        
00011220167990002G2675906759000000133008001028000000101866-6317293              GA           9 D                00                                      NNNN   N                      000000000000                                                                   77133133                                                                                                                                                                                                                                                                                                                                                                                                                                               
00011230167990037DT67590675900000013300800102800000010680010287287283158900011255217060620230000001099815823000000000174199542432XXXXXX2541                         NY 4607AMDJXA753H0606  N840000000010998          81CNCBD8666317293            775032    MD84000000010998 NDR549977133133   5F5CE00CD4T4E365EA70E6B  000000000+600450S00130    MDJ  10828                     000000000  1                0000000000000.00 0000000.00   0000000.00                             000000000000000                                                                                                                                                     01424  000000000000 0000000000000.00     00000 00000                  
00011240167990037DR6759067590000001330080010280000001065F5CE00CD4T4E365EA70E6B  Z000000000000                                                                                                                                                                                                                                                                                                                                                                                                                                                                                                                                                                                                                               
00011250167990001G2675906759000000133008001028000000106866-6317293              GA           9 J               210                                      NNNN           210000000000000000000000000                        7                                          77133133                                                                                                                                                                                                                                                                                                                                                                                                                                               
00011260167990038DT67590675900000013300800102800000010180010287287283158900011255233060620230000000149515823000000000174199524363XXXXXX7974       ME03KE06PT01      NY 4607AMCWQLE83H0606  N840000000001495          81DNCBD8666317293            00628T    MC84000000001495 NDR549977133133   D46ADAD7AFT72D4CFE64CBF  000000000+600450S00130    MCW  02182                     000000000  N                0000000000000.00 0000000.00   0000000.00                             000000000000000                                                                                                                                                   U001424  000000000000 0000000000000.49     02600 01000                  
00011270167990038DR675906759000000133008001028000000101D46ADAD7AFT72D4CFE64CBF  Y000000000000                                                                                                                                                                                                                                                                                                                                                                                                                                                                                                                                                                                                                               
00011280167990001G2675906759000000133008001028000000101866-6317293              GA           9 W               210                                      NNNN           210000000000000000000000000                        7                                          77133133                                                                                                                                                                                                                                                                                                                                                                                                                                               
00011290167990039DT67590675900000013300800102800000010180010224001193158900011255331060620230000001607815823000000000174199438506XXXXXX1787               2111111   NYV4 A7W383158081065361N840000000016078QPP600    01DNCBD8666317293            216417    VD84000000016078 NDR549977133133   1549CC306CT069B9ECBDDA1  000000000+                F DF 00415                     000000000  N000000000       0000000000000.00 0000000.00   0000000.00                             000000000000000                                                                                                                                                     01424 G000000016078 0000000000002.80     01650 01500                  
00011300167990039DR6759067590000001330080010280000001011549CC306CT069B9ECBDDA1  Y000000016078                 P1                                                                                                                                                                                                                                                                                                                                                                                                                                                                                                                                                                                                            
00011310167990001P16759067590000001330080010280000001010000000000000000                             2000000000000000000000000              000000000000                    0000000000000000000000000                    000000000000                                                                                                                                                                                                                                                                                                                                                                                                                                                                                        
00011320167990002G2675906759000000133008001028000000101866-6317293              GA           9 D                00                                      NNNN   N                      000000000000                                                                   77133133                                                                                                                                                                                                                                                                                                                                                                                                                                               
00011330167990040DT67590675900000013300800102800000010180010287287283158900011255399060620230000000019915823000000000174199514376XXXXXX0757                         NY 4607AMPWCH4TYV0606  N840000000000199          81DNCBD8666317293            824790    MD84000000000199 NDR549977133133   AA614BDE06TF22382B873A5  000000000+600450S00130    MPW  00062                     000000000  N                0000000000000.00 0000000.00   0000000.00                             000000000000000                                                                                                                                                   U001424  000000000000 0000000000000.15     02650 01000                  
00011340167990040DR675906759000000133008001028000000101AA614BDE06TF22382B873A5  Y000000000000                 P1                                                                                                                                                                                                                                                                                                                                                                                                                                                                                                                                                                                                            
00011350167990001P1675906759000000133008001028000000101                                                          000000000000          8000            871584967                                                                                                                                                                                                                                                                                                                                                                                                                                                                                                                                                            
00011360167990002G2675906759000000133008001028000000101866-6317293              GA           9 W               210                  871584967           YNNN           210000000000000000000000000                                                                   77133133                                                                                                                                                                                                                                                                                                                                                                                                                                               
00011370167990041DT67590675900000013300800102800000010180010224001193158900011255430060720230000000019915823000000000174199404038XXXXXX6467               2111111   NYV4 A7W583158221545558N840000000000199RQNN00    01DNCBD8666317293            HHKLSN    VD84000000000199 NDR549977133133   DC96854CA3TF7FA3A869443  000000000+                S PS 10179                     000000000  N000000000 364   0000000000000.00 0000000.00   0000000.00                             000000000000000                                                                                                                                                     01424 G000000000199 0000000000000.15     02650 01000                  
00011380167990041DR675906759000000133008001028000000101DC96854CA3TF7FA3A869443  Y000000000199                 P1                                                                                                                                                                                                                                                                                                                                                                                                                                                                                                                                                                                                            
00011390167990001P16759067590000001330080010280000001010000000000000000                             2000000000000000000000000              000000000000                    0000000000000000000000000                    000000000000                                                                                                                                                                                                                                                                                                                                                                                                                                                                                        
00011400167990002G2675906759000000133008001028000000101866-6317293              GA           9 P                00                                      NNNN   N                      000000000000                                                                   77133133                                                                                                                                                                                                                                                                                                                                                                                                                                               
00011410167990042DT67590675900000013300800102800000010180010224001193158900011255554060720230000002734515823000000000174199458453XXXXXX1451               2111111   NYV4 A7W463158306800112N84000000002734577CR00    01DNCBD8666317293            033120    VD84000000027345 NDR549977133133   00D0CFA669T3DF9C504ABE6  000000000+                F DF 10420                     000000000  Y000000000 338   0000000000000.00 0000000.00   0000000.00                             000000000000000                                                                                                                                                     01424 G000000027345 0000000000000.36     00050 02200                  
00011420167990042DR67590675900000013300800102800000010100D0CFA669T3DF9C504ABE6  N000000027345                 P1                                                                                                                                                                                                                                                                                                                                                                                                                                                                                                                                                                                                            
00011430167990001P16759067590000001330080010280000001010000000000000000                             2000000000000000000000000              000000000000                    0000000000000000000000000                    000000000000                                                                                                                                                                                                                                                                                                                                                                                                                                                                                        
