00003630201760002BH6759067590000001165080088880000090170508202312823000000000061587    0000090001870017N8008886759C05082023                                                                                                                                                                                                                                                                                                                                                                                                                                                                                                                                                                                                 
00003640201760003DT67590675900000011650800888800000010180088824001193128900018700013050620230000000084212823000000000061587483313XXXXXX6229       VK04VS111111111   NYV1 A E303127149717452N840000000000842GWTJ00    07DNVPODS HOLDING INC        010900    VD84000000000842 N  599977032122                            000000000+                F DF 10439                     000000000  Y000000000 331   0000000000000.00 0000000.00   0000000.00                             000000000000000                                                                                                                                                     01424 F000000000000 0000000000000.22     00050 02200                  
00003650201760004DT67590675900000011650800888800000010180088824001193128900018700021050720230000000146712823000000000061587438857XXXXXX3062       VK04VS111111111   NYV1 A E463127635184131N840000000001467BXQV00    07DNVPODS HOLDING INC        05152I    VS84000000001467 N  599977032122                            000000000+                I CI 12777                     000000000  N000000000 690   0000000000000.00 0000000.00   0000000.00                             000000000000000                                                                                                                                                     01424 F000000000000 0000000000000.41     02100 01000                  
00003660201760005DT67590675900000011650800888800000010180088824001193128900018700039050720230000000250012823000000000061587409758XXXXXX0918       VS11    0001111   NYV1 A E383127683095423N840000000002500HLMN00    90DNVPODS HOLDING INC        051986    VD84000000002500 N  599977032122                            000000000+                F PF 08170                     000000000  N000000000       0000000000000.00 0000000.00   0000000.00                             000000000000000                                                                                                                                                     01424 A000000000000 0000000000000.44     01150 01500                  
00003670201760006DT67590675900000011650800888800000010180088824001193128900018700047050720230000000500012823000000000061587408138XXXXXX6269       VS11    0001111   NYV1 A E303127685053140N840000000005000JKG800    07DNVPODS HOLDING INC        632203    VD84000000005000 N  599977032122                            000000000+                F PF 08170                     000000000  N000000000       0000000000000.00 0000000.00   0000000.00                             000000000000000                                                                                                                                                     01424 A000000000000 0000000000000.73     01150 01500                  
00003680201760007DT67590675900000011650800888800000010180088824001193128900018700054050720230000000917012823000000000061587434257XXXXXX4600       VS11    0001111   NYV1 A E383127705535882N840000000009170Q7HQ00    07DNVPODS HOLDING INC        062541    VD84000000009170 N  599977032122                            000000000+                F DF 10433                     000000000  Y000000000 338   0000000000000.00 0000000.00   0000000.00                             000000000000000                                                                                                                                                     01424 A000000000000 0000000000000.27     00050 02200                  
00003690201760008DT67590675900000011650800888800000010180088824001193128900018700062050720230000000617912823000000000061587412186XXXXXX7385       VS11    0001111   NYV1 A E383127706123875N840000000006179TX4J00    07DNVPODS HOLDING INC        09567D    VS84000000006179 N  599977032122                            000000000+                D CD 12113                     000000000  N000000000 499   0000000000000.00 0000000.00   0000000.00                             000000000000000                                                                                                                                                     01424 A000000000000 0000000000001.40     02100 01000                  
00003700201760009DT67590675900000011650800888800000010180088824001193128900018700070050720230000000249912823000000000061587491712XXXXXX1435       VS11    0001111   NYV1 A E383127707709034N840000000002499BFP500    07DNVPODS HOLDING INC        003915    VD84000000002499 N  599977032122                            000000000+                F DF 10433                     000000000  Y000000000 338   0000000000000.00 0000000.00   0000000.00                             000000000000000                                                                                                                                                     01424 A000000000000 0000000000000.23     00050 02200                  
00003710201760010DT67590675900000011650800888800000010180088824001193128900018700088050720230000000226412823000000000061587414720XXXXXX9378       VS11    0001111   NYV1 A E383127804557697N840000000002264BG8S00    07DNVPODS HOLDING INC        01676C    VS84000000002264 N  599977032122                            000000000+                C CC 12112                     000000000  N000000000 497   0000000000000.00 0000000.00   0000000.00                             000000000000000                                                                                                                                                     01424 A000000000000 0000000000000.47     01650 01000                  
00003720201760011DT67590675900000011650800888800000010180088824001193128900018700096050720230000000226412823000000000061587445256XXXXXX3066       VS11    0001111   NYV1 A E383127840040305N840000000002264CNT700    07DNVPODS HOLDING INC        486955    VD84000000002264 N  599977032122                            000000000+                F DF 00381                     000000000  N000000000       0000000000000.00 0000000.00   0000000.00                             000000000000000                                                                                                                                                     01424 A000000000000 0000000000000.33     00800 01500                  
00003730201760012DT67590675900000011650800888800000010180088824001193128900018700104050720230000000079212823000000000061587498503XXXXXX3723       VK04VS111111111   NYV1 A E583128019985306N840000000000792CZWB00    05DNVPODS HOLDING INC        046318    VD84000000000792 N  599977032122                            000000000+                F DF 00451                     000000000  N000000000 214   0000000000000.00 0000000.00   0000000.00                             000000000000000                                                                                                                                                     01424 F000000000000 0000000000000.16     01550 00400                  
00003740201760013DT67590675900000011650800888800000010180088876509753128900018700110050720230000000200012823000000000061587653949XXXXXX9980   BA80                  NY 1 0 N813109606108915N840000000002000    00    07DNVPODS HOLDING INC        00780R    DS84000000002000 N  599977032122830                         000000000+0000004910H00   DCCDI01000833212  193650000000 000000000  0          112   0000000000000.00 0000000.00   0000000.00                             000000000000000                                                                                                                                                     01424  000000000000 0000000000000.44     01720 01000                  
00003750201760014DT67590675900000011650800888800000010180088877287283128900018700122050720230000000619212823000000000061587514377XXXXXX4883       MS02WI09          NY 1 0 AMDJH158OQ0507  N840000000006192          07DNVPODS HOLDING INC        1EW2P4    MD84000000006192 N  599977032122                            000000000+M10101M5434C    MDJ  00402                     000000000  N                0000000000000.00 0000000.00   0000000.00                             000000000000000                                                                                                                                                   B101424  000000000000 0000000000000.80     01050 01500                  
00003760201760015DT67590675900000011650800888800000010180088877287283128900018700130050720230000001151512823000000000061587542418XXXXXX4471       MS02WI09          NY 1 0 AMWES216NR0507  N840000000011515          05DNVPODS HOLDING INC        52017P    MC84000000011515 N  599977032122                            000000000+M10101C5434C    MWE  00739                     000000000  N                0000000000000.00 0000000.00   0000000.00                             000000000000000                                                                                                                                                   B101424  000000000000 0000000000002.75     02300 01000                  
00003770201760016DT67590675900000011650800888800000010180088877287283128900018700148050720230000000285212823000000000061587542418XXXXXX4471       MS02WI09          NY 1 0 AMWEQ38YOQ0507  N840000000002852          07DNVPODS HOLDING INC        43103P    MC84000000002852 N  599977032122                            000000000+M10101M0034C    MWE  00739                     000000000  N                0000000000000.00 0000000.00   0000000.00                             000000000000000                                                                                                                                                   B101424  000000000000 0000000000000.76     02300 01000                  
00003780201760017DT67590675900000011650800888800000010180088824001193128900018700153050720230000000067612823000000000061587434257XXXXXX7054       VK04VS111111111   NYV1 A E583128054677457N840000000000676CNK900    05DNVPODS HOLDING INC        055456    VD84000000000676 N  599977032122                            000000000+                F DF 10439                     000000000  Y000000000 331   0000000000000.00 0000000.00   0000000.00                             000000000000000                                                                                                                                                     01424 F000000000000 0000000000000.22     00050 02200                  
00003790201760018DT67590675900000011650800888800000010180088824001193128900018700161050720230000000339612823000000000061587443057XXXXXX9983       VS11    0001111   NYV1 A E303128078315960N840000000003396LQGW00    05DNVPODS HOLDING INC        481520    VD84000000003396 N  599977032122                            000000000+                F DF 10433                     000000000  Y000000000 338   0000000000000.00 0000000.00   0000000.00                             000000000000000                                                                                                                                                     01424 A000000000000 0000000000000.24     00050 02200                  
00003800201760019DT67590675900000011650800888800000010180088824001193128900018700179050720230000000197912823000000000061587483313XXXXXX0533       VS11    0001111   NYV1 A E383128104265213N840000000001979J75H00    07DNVPODS HOLDING INC        065322    VD84000000001979 N  599977032122                            000000000+                F DF 10433                     000000000  Y000000000 338   0000000000000.00 0000000.00   0000000.00                             000000000000000                                                                                                                                                     01424 A000000000000 0000000000000.23     00050 02200                  
00003810201760020BH6759067590000001857280010580000090170508202312823000000000011486    0000090001610006N8001056759C05082023                                                                                                                                                                                                                                                                                                                                                                                                                                                                                                                                                                                                 
00003820201760021DT67590675900000018572800105800000010180010577287283128900016100036050720230000000427812823000000000011486523081XXXXXX3135       MS02WI09          NY 1 0 AMPLSXLA380507  N840000000004278          05DNGALLERY SMOKE SHOP LLC   07582Z    MC84000000004278 N  599977453598                            000000000+M10101C5434C    MPL  00015                     000000000  N                0000000000000.00 0000000.00   0000000.00                             000000000000000                                                                                                                                                   B101424  000000000000 0000000000000.81     01650 01000                  
00003830201760022DT67590675900000018572800105800000010180010573011003128900016100048050720230000000470612823000000000011486379777XXXXX1003                          NY 1 0 N007140996264070N840000000004706          05DNGALLERY SMOKE SHOP LLC   807303    AM84000000004706 N  599977453598                            000000000+51010155434C 258     11261                     000000000                   0000000000000.00 0000000.00   0000000.00                             000000000000000 61248972086759675900000018572 GALLERY SMOKE SHOP LLC   9107 PARK BLVD           7724522461      33775     INFO@GALLERYSMOKESHOP.COM                 01424  000000000000 0000000000000.85     01600 00000                  
00003840201760023DT67590675900000018572800105800000033080010576759003128900016100013050720230000000136412823000000000011486515354XXXXXX9956                         NY42 0 N               N840000000001364      ME  05DNGALLERY SMOKE SHOP LLC   016536    DB84000000001364 N  599977453598                            000000000+                     09597                                N                0000000000000.00 0000000.00   0000000.00                             000000000000000                                                                                                                                                     01424  000000000000 0000000000000.27     00900 00000                  
00003850201760024DT67590675900000018572800105800000033080010576759003128900016100021050720230000000034012823000000000011486443041XXXXXX7318                         NY 2 0 N               N840000000000340      IL  05DNGALLERY SMOKE SHOP LLC   870633    DB84000000000340 N  599977453598                            000000000+                     09580                                Y          342   0000000000000.00 0000000.00   0000000.00                             000000000000000                                                                                                                                                     01424  000000000000 0000000000000.22     00050 00000                  
00003860201760025DT67590675900000018572800105800000033080010576759003128900016100054050720230000000071812823000000000011486443041XXXXXX7318                         NY 2 0 N               N840000000000718      IL  05DNGALLERY SMOKE SHOP LLC   874701    DB84000000000718 N  599977453598                            000000000+                     09580                                Y          342   0000000000000.00 0000000.00   0000000.00                             000000000000000                                                                                                                                                     01424  000000000000 0000000000000.22     00050 00000                  
00003870201760026DT67590675900000018572800105800000033080010576759003128900016100062050720230000000008012823000000000011486443041XXXXXX7318                         NY 2 0 N               N840000000000080      IL  05DNGALLERY SMOKE SHOP LLC   910629    DB84000000000080 N  599977453598                            000000000+                     09580                                Y          342   0000000000000.00 0000000.00   0000000.00                             000000000000000                                                                                                                                                     01424  000000000000 0000000000000.22     00050 00000                  
00003880201760027BH6759067590000002604780012480000090170508202312823000000000085221    0000090001200017N8001246759C05082023                                                                                                                                                                                                                                                                                                                                                                                                                                                                                                                                                                                                 
00003890201760028DT67590675900000026047800124800000010180012424001193128900012000014050720230000000123312823000000000085221474473XXXXXX4394       VK04VS111111111   NYV1 A E303127576468473N84000000000123347XP00    05DNHPPYC                    100802    VD84000000001233 N  599978201978                            000000000+                F DF 10439                     000000000  Y000000000 331   0000000000000.00 0000000.00   0000000.00                             000000000000000                                                                                                                                                     01424 F000000000000 0000000000000.23     00050 02200                  
00003900201760029DT67590675900000026047800124800000010180012477287283128900012000024050720230000000375312823000000000085221512230XXXXXX6813       MS02WI09          NY 1 0 AMWEOHL73X0507  N840000000003753          05DNHPPYC                    91194W    MC84000000003753 N  599978201978                            000000000+M10101C0034C    MWE  00644                     000000000  N                0000000000000.00 0000000.00   0000000.00                             000000000000000                                                                                                                                                   B101424  000000000000 0000000000000.81     01900 01000                  
00003910201760030DT67590675900000026047800124800000010180012424001193128900012000030050720230000000865112823000000000085221443047XXXXXX0968       VS11    0001111   NYV1 A E303127582912232N840000000008651JXZ300    05DNHPPYC                    383590    VD84000000008651 N  599978201978                            000000000+                F DF 10433                     000000000  Y000000000 338   0000000000000.00 0000000.00   0000000.00                             000000000000000                                                                                                                                                     01424 A000000000000 0000000000000.26     00050 02200                  
00003920201760031DT67590675900000026047800124800000010180012424001193128900012000048050720230000000520712823000000000085221420590XXXXXX8554       VS11    0001111   NYV1 A E463127589105727N840000000005207MS9Q00    07DNHPPYC                    855248    VD84000000005207 N  599978201978                            000000000+                F DF 10433                     000000000  Y000000000 338   0000000000000.00 0000000.00   0000000.00                             000000000000000                                                                                                                                                     01424 A000000000000 0000000000000.25     00050 02200                  
00003930201760032DT67590675900000026047800124800000010180012424001193128900012000055050720230000000596012823000000000085221440066XXXXXX1420       VS11    0001111   NYV1 A E463127593569119N840000000005960RQFB00    05DNHPPYC                    06044D    VS84000000005960 N  599978201978                            000000000+                D CD 12113                     000000000  N000000000 499   0000000000000.00 0000000.00   0000000.00                             000000000000000                                                                                                                                                     01424 A000000000000 0000000000001.35     02100 01000                  
00003940201760033DT67590675900000026047800124800000010180012424001193128900012000063050720230000000064212823000000000085221442958XXXXXX5444       VK04VS111111111   NYV1 A E383127647841054N840000000000642Q3S500    05DNHPPYC                    856900    VD84000000000642 N  599978201978                            000000000+                F DF 00451                     000000000  N000000000 214   0000000000000.00 0000000.00   0000000.00                             000000000000000                                                                                                                                                     01424 F000000000000 0000000000000.14     01550 00400                  
00003950201760034DT67590675900000026047800124800000010180012424001193128900012000071050720230000000160812823000000000085221411398XXXXXX9853       VS11    0001111   NYV1 A E383127664315403N8400000000016086HKS00    07DNHPPYC                    07895D    VS84000000001608 N  599978201978                            000000000+                D CD 12113                     000000000  N000000000 499   0000000000000.00 0000000.00   0000000.00                             000000000000000                                                                                                                                                     01424 A000000000000 0000000000000.44     02100 01000                  
00003960201760035DT67590675900000026047800124800000010180012477287283128900012000081050720230000000643412823000000000085221531257XXXXXX6883       MS02WI09          NY 1 0 AMDJ4LO8380507  N840000000006434          07DNHPPYC                    171701    MD84000000006434 N  599978201978                            000000000+M10101M5434C    MDJ  10815                     000000000  1                0000000000000.00 0000000.00   0000000.00                             000000000000000                                                                                                                                                   B101424  000000000000 0000000000000.25     00050 02200                  
00003970201760036DT67590675900000026047800124800000010180012424001193128900012000097050720230000001447612823000000000085221440393XXXXXX6945       VS11    0001111   NYV1 A E463127743954556N840000000014476XNFG00    05DNHPPYC                    052017    VD84000000014476 N  599978201978                            000000000+                F PF 08170                     000000000  N000000000       0000000000000.00 0000000.00   0000000.00                             000000000000000                                                                                                                                                     01424 A000000000000 0000000000001.81     01150 01500                  
00003980201760037DT67590675900000026047800124800000010180012477287283128900012000107050720230000000096412823000000000085221555753XXXXXX4724       MS02WI09          NY 1 0 AMDHIMUDEX0507  N840000000000964          05DNHPPYC                    098620    MD84000000000964 N  599978201978                            000000000+M10101C5434C    MDH  00402                     000000000  N                0000000000000.00 0000000.00   0000000.00                             000000000000000                                                                                                                                                   B101424  000000000000 0000000000000.25     01050 01500                  
00003990201760038DT67590675900000026047800124800000010180012424001193128900012000113050720230000001393612823000000000085221466188XXXXXX4336       VS11    0001111   NYV1 A E303127821779295N840000000013936ZDBW00    05DNHPPYC                    071873    VD84000000013936 N  599978201978                            000000000+                F DF 10433                     000000000  Y000000000 338   0000000000000.00 0000000.00   0000000.00                             000000000000000                                                                                                                                                     01424 A000000000000 0000000000000.29     00050 02200                  
00004000201760039DT67590675900000026047800124800000010180012424001193128900012000121050720230000000782612823000000000085221443047XXXXXX4377       VS11    0001111   NYV1 A E303127823171241N840000000007826VWPM00    05DNHPPYC                    381805    VD84000000007826 N  599978201978                            000000000+                F DF 10433                     000000000  Y000000000 338   0000000000000.00 0000000.00   0000000.00                             000000000000000                                                                                                                                                     01424 A000000000000 0000000000000.26     00050 02200                  
00004010201760040DT67590675900000026047800124800000010180012477287283128900012000131050720230000000107212823000000000085221531257XXXXXX5566       MS02WI09          NY 1 0 AMDJO2RFEV0507  N840000000001072          05DNHPPYC                    180969    MD84000000001072 N  599978201978                            000000000+M10101C5434C    MDJ  10815                     000000000  1                0000000000000.00 0000000.00   0000000.00                             000000000000000                                                                                                                                                   B101424  000000000000 0000000000000.23     00050 02200                  
00004020201760041DT67590675900000026047800124800000010180012424001193128900012000147050720230000000123312823000000000085221474473XXXXXX4394       VK04VS111111111   NYV1 A E303127843309821N8400000000012336GBP00    05DNHPPYC                    132052    VD84000000001233 N  599978201978                            000000000+                F DF 10439                     000000000  Y000000000 331   0000000000000.00 0000000.00   0000000.00                             000000000000000                                                                                                                                                     01424 F000000000000 0000000000000.23     00050 02200                  
00004030201760042DT67590675900000026047800124800000010180012477287283128900012000156050720230000000901012823000000000085221515068XXXXXX3739       MS02WI09          NY 2 0 AMDJDWQCEX0507  N840000000009010          05DNHPPYC                    Z2EZ3D    MD84000000009010 N  599978201978                            000000000+M10101C1334C    MDJ  00402                     000000000  N                0000000000000.00 0000000.00   0000000.00                             000000000000000                                                                                                                                                     01424  000000000000 0000000000001.10     01050 01500                  
00004040201760043DT67590675900000026047800124800000010180012424001193128900012000162050720230000000257412823000000000085221441733XXXXXX2311       VS11    0001111   NYV1 A E383127859946651N8400000000025749R9H00    07DNHPPYC                    152036    VD84000000002574 N  599978201978                            000000000+                F DF 00381                     000000000  N000000000       0000000000000.00 0000000.00   0000000.00                             000000000000000                                                                                                                                                     01424 A000000000000 0000000000000.36     00800 01500                  
00004050201760044DT67590675900000026047800124800000010180012424001193128900012000170050720230000000064212823000000000085221473703XXXXXX9201       VK04VS111111111   NYV1 A E383128011125217N840000000000642QJ3200    05DNHPPYC                    067697    VD84000000000642 N  599978201978                            000000000+                F DF 10439                     000000000  Y000000000 331   0000000000000.00 0000000.00   0000000.00                             000000000000000                                                                                                                                                     01424 F000000000000 0000000000000.22     00050 02200                  
00004060201760045BH6759067590000002684980012580000090170508202312823000000001276262    0000090001173369N8001256759C05082023                                                                                                                                                                                                                                                                                                                                                                                                                                                                                                                                                                                                 
00004070201760046DT67590675900000026849800125800000010180012524001193128900011731536050720230000002245012823000000001276262440066XXXXXX1327               2111111   NYV4 A7W303127418471050N840000000022450CT8D00    01DNCBD8885133385            01417A    VS84000000022450 NP1599978220273   E362A7DE45T8EA54055E922  000000000+                A CA 12106                     000000000  N000000000 492   0000000000000.00 0000000.00   0000000.00                             000000000000000                                                                                                                                                     01424 G000000022450 0000000000004.34     01890 01000                  
00004080201760001P16759067590000002684980012580000001010000000000000000                             2000000000000000000000000              000000000000                    0000000000000000000000000                    000000000000                                                                                                                                                                                                                                                                                                                                                                                                                                                                                        
00004090201760047DT67590675900000026849800125800000010180012524001193128900011731635050720230000001660312823000000001276262415309XXXXXX8423               2111111   NYV4 A7W383127434816765N840000000016603VTKB00    01DNCBD8885133385            007080    VS84000000016603 NP1599978220273   66C1B62C12TD7A49543C322  000000000+                A CA 12106                     000000000  N000000000 492   0000000000000.00 0000000.00   0000000.00                             000000000000000                                                                                                                                                     01424 G000000016603 0000000000003.24     01890 01000                  
00004100201760001P16759067590000002684980012580000001010000000000000000                             2000000000000000000000000              000000000000                    0000000000000000000000000                    000000000000                                                                                                                                                                                                                                                                                                                                                                                                                                                                                        
00004110201760048DT67590675900000026849800125800000010180012524001193128900011731676050720230000001280312823000000001276262443044XXXXXX3522               2111111   NYV4 A7W463127444172765N840000000012803TCTH00    01DNCBD8885133385            713189    VD84000000012803 NP1599978220273   CEF6258974T8FD076E33A8A  000000000+                F DF 10420                     000000000  Y000000000 338   0000000000000.00 0000000.00   0000000.00                             000000000000000                                                                                                                                                     01424 G000000012803 0000000000000.28     00050 02200                  
00004120201760001P16759067590000002684980012580000001010000000000000000                             2000000000000000000000000              000000000000                    0000000000000000000000000                    000000000000                                                                                                                                                                                                                                                                                                                                                                                                                                                                                        
00004130201760049DT67590675900000026849800125800000010180012587287283128900011731693050720230000001977012823000000001276262524300XXXXXX5973       ME03KE06MS02      NY 4607AMPL7SP3380507  N840000000019770          81DNCBD8885133385            00719Z    MC84000000019770 N  599978220273   02586043F9TAD47F518704C  000000000+600450S00130    MPL  00013                     000000000  N                0000000000000.00 0000000.00   0000000.00                             000000000000000                                                                                                                                                   U001424  000000000000 0000000000003.96     01950 01000                  
00004140201760050DT67590675900000026849800125800000010180012524001193128900011731700050720230000002245012823000000001276262473702XXXXXX3920               2111111   NYV4 A7W383127450049373N8400000000224506Q3D00    01DNCBD8885133385            048384    VD84000000022450 NP1599978220273   9762B6ACE0T827E446A3EE5  000000000+                F DF 10420                     000000000  Y000000000 338   0000000000000.00 0000000.00   0000000.00                             000000000000000                                                                                                                                                     01424 G000000022450 0000000000000.33     00050 02200                  
00004150201760001P16759067590000002684980012580000001010000000000000000                             2000000000000000000000000              000000000000                    0000000000000000000000000                    000000000000                                                                                                                                                                                                                                                                                                                                                                                                                                                                                        
00004160201760051DT67590675900000026849800125800000010180012587287283128900011731719050720230000001280312823000000001276262514843XXXXXX9963       ME03KE06MS02      NY 4607AMDJJ1RU5H0507  N840000000012803          81DNCBD8885133385            073449    MD84000000012803 N  599978220273   BAD14AF7B0TDD0FBAD7C188  000000000+600450S00130    MDJ  00401                     000000000  N                0000000000000.00 0000000.00   0000000.00                             000000000000000                                                                                                                                                   U001424  000000000000 0000000000002.26     01650 01500                  
00004170201760052DT67590675900000026849800125800000010680012587287283128900011731735050720230000000640212823000000001276262514843XXXXXX9963                         NY 4607AMDJH31J1H0507  N840000000006402          81CNCBD8885133385            832214    MD84000000006402 N  599978220273   BAD14AF7B0TDD0FBAD7C188  000000000+600450S00130    MDJ  00560                     000000000  N                0000000000000.00 0000000.00   0000000.00                             000000000000000                                                                                                                                                     01424  000000000000 0000000000000.00     00000 00000                  
00004180201760053DT67590675900000026849800125800000010180012524001193128900011731742050720230000002245012823000000001276262426684XXXXXX0282               2111111   NYV4 A7W383127462039506N840000000022450WRWG00    01DNCBD8885133385            00117A    VS84000000022450 NP1599978220273   003186130ET0BF743ADCA03  000000000+                A CA 12106                     000000000  N000000000 492   0000000000000.00 0000000.00   0000000.00                             000000000000000                                                                                                                                                     01424 G000000022450 0000000000004.34     01890 01000                  
00004190201760001P16759067590000002684980012580000001010000000000000000                             2000000000000000000000000              000000000000                    0000000000000000000000000                    000000000000                                                                                                                                                                                                                                                                                                                                                                                                                                                                                        
00004200201760054DT67590675900000026849800125800000010180012524001193128900011731759050720230000001977012823000000001276262424002XXXXXX0720               2111111   NYV4 A7W583127462030579N840000000019770S5SD00    01DNCBD8885133385            063168    VD84000000019770 NP1599978220273   B6FC11E4FFT5FF13FB02AF8  000000000+                F PF 08175                     000000000  N000000000       0000000000000.00 0000000.00   0000000.00                             000000000000000                                                                                                                                                     01424 G000000019770 0000000000003.66     01750 02000                  
00004210201760001P16759067590000002684980012580000001010000000000000000                             2000000000000000000000000              000000000000                    0000000000000000000000000                    000000000000                                                                                                                                                                                                                                                                                                                                                                                                                                                                                        
00004220201760055DT67590675900000026849800125800000010180012524001193128900011731791050720230000001578512823000000001276262433993XXXXXX8554               2111111   NYV4 A7W463127476970627N8400000000157854LBB00    01DNCBD8885133385            08960G    VB84000000015785 NP1599978220273   42DB8812E7TC71D9A771759  000000000+                G CG 00690                     000000000  N000000000 231   0000000000000.00 0000000.00   0000000.00                             000000000000000                                                                                                                                                     01424 G000000015785 0000000000004.28     02650 01000                  
00004230201760001P16759067590000002684980012580000001010000000000000000                             2000000000000000000000000              000000000000                    0000000000000000000000000                    000000000000                                                                                                                                                                                                                                                                                                                                                                                                                                                                                        
00004240201760056DT67590675900000026849800125800000010180012524001193128900011731809050720230000000489912823000000001276262433993XXXXXX8554               2111111   NYV4 A7W583127477861276N840000000004899FVWG00    01DNCBD8885133385            05941G    VB84000000004899 NP1599978220273   42DB8812E7T1BF06FACA2D5  000000000+                G CG 00690                     000000000  N000000000 231   0000000000000.00 0000000.00   0000000.00                             000000000000000                                                                                                                                                     01424 G000000004899 0000000000001.40     02650 01000                  
00004250201760001P16759067590000002684980012580000001010000000000000000                             2000000000000000000000000              000000000000                    0000000000000000000000000                    000000000000                                                                                                                                                                                                                                                                                                                                                                                                                                                                                        
00004260201760057DT67590675900000026849800125800000010180012587287283128900011731818050720230000001977012823000000001276262517545XXXXXX2612       ME03KE06MS02      NY 4607AMDJMCKU3X0507  N840000000019770          81DNCBD8885133385            007854    MD84000000019770 N  599978220273   1A65A5444FTD0DE3385CE78  000000000+600450S00130    MDJ  10813                     000000000  1                0000000000000.00 0000000.00   0000000.00                             000000000000000                                                                                                                                                   U001424  000000000000 0000000000000.32     00050 02200                  
00004270201760058DT67590675900000026849800125800000010180012587287283128900011731834050720230000002245012823000000001276262542418XXXXXX5252       ME03KE06MS02      NY 4607AMWEW5KK380507  N840000000022450          81DNCBD8885133385            04537P    MC84000000022450 N  599978220273   11AE598D7ET760A36C2CA9B  000000000+600450S00130    MWE  00737                     000000000  N                0000000000000.00 0000000.00   0000000.00                             000000000000000                                                                                                                                                   U001424  000000000000 0000000000005.94     02600 01000                  
00004280201760059DT67590675900000026849800125800000010180012524001193128900011731874050720230000001280312823000000001276262440066XXXXXX3332               2111111   NYV4 A7W383127501048265N840000000012803N97Z00    01DNCBD8885133385            03512D    VS84000000012803 NP1599978220273   EFAEC5B5FETCFA284BFBB08  000000000+                D CD 12109                     000000000  N000000000 498   0000000000000.00 0000000.00   0000000.00                             000000000000000                                                                                                                                                     01424 G000000012803 0000000000003.30     02500 01000                  
00004290201760001P16759067590000002684980012580000001010000000000000000                             2000000000000000000000000              000000000000                    0000000000000000000000000                    000000000000                                                                                                                                                                                                                                                                                                                                                                                                                                                                                        
00004300201760060DT67590675900000026849800125800000010180012524001193128900011731882050720230000001977012823000000001276262410039XXXXXX1560               2111111   NYV4 A7W583127501601142N840000000019770PNGN00    01DNCBD8885133385            27689D    VS84000000019770 NP1599978220273   8249DF1585T2007716D0064  000000000+                D CD 12109                     000000000  N000000000 498   0000000000000.00 0000000.00   0000000.00                             000000000000000                                                                                                                                                     01424 G000000019770 0000000000005.04     02500 01000                  
00004310201760001P16759067590000002684980012580000001010000000000000000                             2000000000000000000000000              000000000000                    0000000000000000000000000                    000000000000                                                                                                                                                                                                                                                                                                                                                                                                                                                                                        
00004320201760061DT67590675900000026849800125800000010180012587287283128900011731917050720230000002477012823000000001276262557337XXXXXX9712       ME03KE06MS02      NY 4607AMPLFRKW3X0507  N840000000024770          81DNCBD8885133385            10124B    MC84000000024770 N  599978220273   7F7A911661T8399E151A6BE  000000000+600450S00130    MPL  00580                     000000000  N                0000000000000.00 0000000.00   0000000.00                             000000000000000                                                                                                                                                   U001424  000000000000 0000000000005.30     02100 01000                  
00004330201760062DT67590675900000026849800125800000010180012524001193128900011731932050720230000001480312823000000001276262441281XXXXXX0400               2111111   NYV4 A7W383127509103635N840000000014803NFP900    01DNCBD8885133385            789422    VD84000000014803 NP1599978220273   313D8F15B2T2E96A0C48834  000000000+                F DF 10420                     000000000  Y000000000 338   0000000000000.00 0000000.00   0000000.00                             000000000000000                                                                                                                                                     01424 G000000014803 0000000000000.29     00050 02200                  
00004340201760001P16759067590000002684980012580000001010000000000000000                             2000000000000000000000000              000000000000                    0000000000000000000000000                    000000000000                                                                                                                                                                                                                                                                                                                                                                                                                                                                                        
00004350201760063DT67590675900000026849800125800000010180012524001193128900011731957050720230000002477012823000000001276262410793XXXXXX1119               2111111   NYV4 A7W383127512337714N840000000024770ZW9M00    01DNCBD8885133385            907031    VS84000000024770 NP1599978220273   328F88CE67TFC106326EBEA  000000000+                C CC 12108                     000000000  N000000000 496   0000000000000.00 0000000.00   0000000.00                             000000000000000                                                                                                                                                     01424 G000000024770 0000000000005.18     02050 01000                  
00004360201760001P16759067590000002684980012580000001010000000000000000                             2000000000000000000000000              000000000000                    0000000000000000000000000                    000000000000                                                                                                                                                                                                                                                                                                                                                                                                                                                                                        
00004370201760064DT67590675900000026849800125800000010180012524001193128900011731965050720230000002245012823000000001276262409263XXXXXX4753               2111111   NYV4 A7W303127513063951N840000000022450XDK300    01DNCBD8885133385            007361    VS84000000022450 NP1599978220273   C916553AEDTF95E925EE719  000000000+                B CB 12107                     000000000  N000000000 494   0000000000000.00 0000000.00   0000000.00                             000000000000000                                                                                                                                                     01424 G000000022450 0000000000004.68     02040 01000                  
00004380201760001P16759067590000002684980012580000001010000000000000000                             2000000000000000000000000              000000000000                    0000000000000000000000000                    000000000000                                                                                                                                                                                                                                                                                                                                                                                                                                                                                        
00004390201760065DT67590675900000026849800125800000010180012524001193128900011731981050720230000001713612823000000001276262438857XXXXXX8022               2111111   NYV4 A7W303127526298090N840000000017136G9QM00    01DNCBD8885133385            01284C    VS84000000017136 NP1599978220273   0D39705D28TEC108A8D3740  000000000+                C CC 12108                     000000000  N000000000 496   0000000000000.00 0000000.00   0000000.00                             000000000000000                                                                                                                                                     01424 G000000017136 0000000000003.61     02050 01000                  
00004400201760001P16759067590000002684980012580000001010000000000000000                             2000000000000000000000000              000000000000                    0000000000000000000000000                    000000000000                                                                                                                                                                                                                                                                                                                                                                                                                                                                                        
00004410201760066DT67590675900000026849800125800000010180012524001193128900011731999050720230000001977012823000000001276262461604XXXXXX8422               2111111   NYV4 A7W583127528048662N840000000019770RBVL00    01DNCBD8885133385            007197    VS84000000019770 NP1599978220273   197CBABD21T8F3F04DDE749  000000000+                B CB 12107                     000000000  N000000000 494   0000000000000.00 0000000.00   0000000.00                             000000000000000                                                                                                                                                     01424 G000000019770 0000000000004.13     02040 01000                  
00004420201760001P16759067590000002684980012580000001010000000000000000                             2000000000000000000000000              000000000000                    0000000000000000000000000                    000000000000                                                                                                                                                                                                                                                                                                                                                                                                                                                                                        
00004430201760067DT67590675900000026849800125800000010180012524001193128900011732005050720230000001977012823000000001276262411776XXXXXX9491               2111111   NYV4 A7W303127531075630N840000000019770W23P00    01DNCBD8885133385            124657    VD84000000019770 NP1599978220273   C514DE610BT88FD96FE74CD  000000000+                F DF 10420                     000000000  Y000000000 338   0000000000000.00 0000000.00   0000000.00                             000000000000000                                                                                                                                                     01424 G000000019770 0000000000000.32     00050 02200                  
00004440201760001P16759067590000002684980012580000001010000000000000000                             2000000000000000000000000              000000000000                    0000000000000000000000000                    000000000000                                                                                                                                                                                                                                                                                                                                                                                                                                                                                        
00004450201760068DT67590675900000026849800125800000010180012524001193128900011732013050720230000002477012823000000001276262448848XXXXXX5795               2111111   NYV4 A7W303127533731269N8400000000247706WWD00    01DNCBD8885133385            04121G    VB84000000024770 NP1599978220273   DA731DE859T888B5F1B1D84  000000000+                G3CG308002                     000000000  N000000000 381   0000000000000.00 0000000.00   0000000.00                             000000000000000                                                                                                                                                     01424 G000000024770 0000000000007.04     02800 01000                  
00004460201760001P16759067590000002684980012580000001010000000000000000                             2000000000000000000000000              000000000000                    0000000000000000000000000                    000000000000                                                                                                                                                                                                                                                                                                                                                                                                                                                                                        
00004470201760069DT67590675900000026849800125800000010680012574001193128900011732083050720230000000640212823000000001276262440066XXXXXX3332               0000000   NYV4 07T583127541876090N840000000006402L63400    01CNCBD8885133385            03767D    VS84000000006402 NP1599978220273   EFAEC5B5FETCFA284BFBB08  000000000+                D CD 00245                     000000000  N000000000 166   0000000000000.00 0000000.00   0000000.00                             000000000000000                                                                                                                                                     01424  000000006402-0000000000001.13     01760 00000                  
00004480201760001P16759067590000002684980012580000001060000000000000000                             2000000000000000000000000              000000000000                    0000000000000000000000000                    000000000000                                                                                                                                                                                                                                                                                                                                                                                                                                                                                        
00004490201760070DT67590675900000026849800125800000010680012574001193128900011732117050720230000001122512823000000001276262410039XXXXXX1756               0000000   NYV4 07T463127547852745N840000000011225CKD300    01CNCBD8885133385            49972C    VS84000000011225 NP1599978220273   CEC7C564E4TF6CB80A20FFD  000000000+                C CC 00245                     000000000  N000000000 166   0000000000000.00 0000000.00   0000000.00                             000000000000000                                                                                                                                                     01424  000000011225-0000000000001.98     01760 00000                  
00004500201760001P16759067590000002684980012580000001060000000000000000                             2000000000000000000000000              000000000000                    0000000000000000000000000                    000000000000                                                                                                                                                                                                                                                                                                                                                                                                                                                                                        
00004510201760071DT67590675900000026849800125800000010680012574001193128900011732125050720230000000590412823000000001276262426684XXXXXX0878               0000000   NYV4 07T463127549757593N840000000005904XX9D00    01CNCBD8885133385            08476B    VS84000000005904 NP1599978220273   9529CAC0D6T7EF45EB5C23B  000000000+                B CB 00245                     000000000  N000000000 166   0000000000000.00 0000000.00   0000000.00                             000000000000000                                                                                                                                                     01424  000000005904-0000000000001.04     01760 00000                  
00004520201760001P16759067590000002684980012580000001060000000000000000                             2000000000000000000000000              000000000000                    0000000000000000000000000                    000000000000                                                                                                                                                                                                                                                                                                                                                                                                                                                                                        
00004530201760072DT67590675900000026849800125800000010680012574001193128900011732133050720230000000590412823000000001276262445102XXXXXX2982               0000000   NYV4 07T463127556659106N8400000000059046P9800    01CNCBD8885133385            007289    VD84000000005904 NP1599978220273   DA98B0A196T3A3CB1B0A15A  000000000+                F DF 08168                     000000000  Y000000000 369   0000000000000.00 0000000.00   0000000.00                             000000000000000                                                                                                                                                     01424  000000005904 0000000000000.00     00000 00000                  
00004540201760001P16759067590000002684980012580000001060000000000000000                             2000000000000000000000000              000000000000                    0000000000000000000000000                    000000000000                                                                                                                                                                                                                                                                                                                                                                                                                                                                                        
00004550201760073DT67590675900000026849800125800000010680012587287283128900011732147050720230000001122512823000000001276262542418XXXXXX5722                         NY 4607AMPLYNRQ380507  N840000000011225          81CNCBD8885133385            190144    MC84000000011225 N  599978220273   6C060BB6BCT02EEEEAEB241  000000000+600450S00130    MPL  00564                     000000000  N                0000000000000.00 0000000.00   0000000.00                             000000000000000                                                                                                                                                     01424  000000000000-0000000000001.96     01750 00000                  
00004560201760074DT67590675900000026849800125800000010180012524001193128900011732179050720230000001977012823000000001276262414740XXXXXX1677               2111111   NYV4 A7W303127567045293N84000000001977048ZS00    01DNCBD8885133385            05134D    VS84000000019770 NP1599978220273   E6A1421F5ETF9481263C806  000000000+                D CD 12109                     000000000  N000000000 498   0000000000000.00 0000000.00   0000000.00                             000000000000000                                                                                                                                                     01424 G000000019770 0000000000005.04     02500 01000                  
00004570201760001P16759067590000002684980012580000001010000000000000000                             2000000000000000000000000              000000000000                    0000000000000000000000000                    000000000000                                                                                                                                                                                                                                                                                                                                                                                                                                                                                        
00004580201760075DT67590675900000026849800125800000010180012524001193128900011732161050720230000001280312823000000001276262446542XXXXXX0154               2111111   NYV4 A7W463127567046498N840000000012803FQ6F00    01DNCBD8885133385            007217    VS84000000012803 NP1599978220273   BF1D35D449T951C3E409C24  000000000+                D CD 12109                     000000000  N000000000 498   0000000000000.00 0000000.00   0000000.00                             000000000000000                                                                                                                                                     01424 G000000012803 0000000000003.30     02500 01000                  
00004590201760001P16759067590000002684980012580000001010000000000000000                             2000000000000000000000000              000000000000                    0000000000000000000000000                    000000000000                                                                                                                                                                                                                                                                                                                                                                                                                                                                                        
00004600201760076DT67590675900000026849800125800000010180012524001193128900011732187050720230000001977012823000000001276262449025XXXXXX0621               2111111   NYV4 A7W463127567086245N840000000019770ZNR300    01DNCBD8885133385            211376    VD84000000019770 NP1599978220273   52C0E132E1TBF96E58B2BBE  000000000+                F DF 00415                     000000000  N000000000       0000000000000.00 0000000.00   0000000.00                             000000000000000                                                                                                                                                     01424 G000000019770 0000000000003.41     01650 01500                  
00004610201760001P16759067590000002684980012580000001010000000000000000                             2000000000000000000000000              000000000000                    0000000000000000000000000                    000000000000                                                                                                                                                                                                                                                                                                                                                                                                                                                                                        
00004620201760077DT67590675900000026849800125800000010180012587287283128900011732196050720230000001977012823000000001276262527845XXXXXX7795       ME03KE06MS02      NY 4607AMWEG7TJ3X0507  N840000000019770          81DNCBD8885133385            007897    MC84000000019770 N  599978220273   03B06596E6TD68777FD9728  000000000+600450S00130    MWE  00737                     000000000  N                0000000000000.00 0000000.00   0000000.00                             000000000000000                                                                                                                                                   U001424  000000000000 0000000000005.24     02600 01000                  
00004630201760078DT67590675900000026849800125800000010180012524001193128900011732229050720230000001280312823000000001276262414720XXXXXX5800               2111111   NYV4 A7W383127570240183N84000000001280387D300    01DNCBD8885133385            00744D    VS84000000012803 NP1599978220273   3EDDF94EBATAD32AC944C63  000000000+                D CD 12109                     000000000  N000000000 498   0000000000000.00 0000000.00   0000000.00                             000000000000000                                                                                                                                                     01424 G000000012803 0000000000003.30     02500 01000                  
00004640201760001P16759067590000002684980012580000001010000000000000000                             2000000000000000000000000              000000000000                    0000000000000000000000000                    000000000000                                                                                                                                                                                                                                                                                                                                                                                                                                                                                        
00004650201760079DT67590675900000026849800125800000010180012524001193128900011732237050720230000002477012823000000001276262401302XXXXXX4271               2111111   NYV4 A7W383127570492095N8400000000247708KPF00    01DNCBD8885133385            990329    VD84000000024770 NP1599978220273   7E64094CBAT290F827F5057  000000000+                F DF 00415                     000000000  N000000000       0000000000000.00 0000000.00   0000000.00                             000000000000000                                                                                                                                                     01424 G000000024770 0000000000004.24     01650 01500                  
00004660201760001P16759067590000002684980012580000001010000000000000000                             2000000000000000000000000              000000000000                    0000000000000000000000000                    000000000000                                                                                                                                                                                                                                                                                                                                                                                                                                                                                        
00004670201760080DT67590675900000026849800125800000010180012524001193128900011732245050720230000000619812823000000001276262414720XXXXXX5800               2111111   NYV4 A7W303127571074008N840000000006198N2VJ00    01DNCBD8885133385            04415D    VS84000000006198 NP1599978220273   3EDDF94EBATEE94FBB9B185  000000000+                D CD 12109                     000000000  N000000000 498   0000000000000.00 0000000.00   0000000.00                             000000000000000                                                                                                                                                     01424 G000000006198 0000000000001.65     02500 01000                  
00004680201760001P16759067590000002684980012580000001010000000000000000                             2000000000000000000000000              000000000000                    0000000000000000000000000                    000000000000                                                                                                                                                                                                                                                                                                                                                                                                                                                                                        
00004690201760081DT67590675900000026849800125800000010180012524001193128900011732260050720230000002477012823000000001276262414720XXXXXX9361               2111111   NYV4 A7W463127573030103N840000000024770WMRN00    01DNCBD8885133385            05119C    VS84000000024770 NP1599978220273   033072A075TA964C744C06D  000000000+                C CC 12108                     000000000  N000000000 496   0000000000000.00 0000000.00   0000000.00                             000000000000000                                                                                                                                                     01424 G000000024770 0000000000005.18     02050 01000                  
00004700201760001P16759067590000002684980012580000001010000000000000000                             2000000000000000000000000              000000000000                    0000000000000000000000000                    000000000000                                                                                                                                                                                                                                                                                                                                                                                                                                                                                        
00004710201760082DT67590675900000026849800125800000010180012524001193128900011732286050720230000001713612823000000001276262414720XXXXXX9174               2111111   NYV4 A7W303127579424766N840000000017136CNQD00    01DNCBD8885133385            06275D    VS84000000017136 NP1599978220273   5C25885E3BTAA663273285B  000000000+                D CD 12109                     000000000  N000000000 498   0000000000000.00 0000000.00   0000000.00                             000000000000000                                                                                                                                                     01424 G000000017136 0000000000004.38     02500 01000                  
00004720201760001P16759067590000002684980012580000001010000000000000000                             2000000000000000000000000              000000000000                    0000000000000000000000000                    000000000000                                                                                                                                                                                                                                                                                                                                                                                                                                                                                        
00004730201760083DT67590675900000026849800125800000010180012587287283128900011732295050720230000002477012823000000001276262521333XXXXXX6437       ME03KE06MS02      NY 4607AMWEYL443W0507  N840000000024770          81DNCBD8885133385            00761P    MC84000000024770 N  599978220273   2359F50DC5TEB140BCA7B79  000000000+600450S00130    MWE  00737                     000000000  N                0000000000000.00 0000000.00   0000000.00                             000000000000000                                                                                                                                                   U001424  000000000000 0000000000006.54     02600 01000                  
00004740201760084DT67590675900000026849800125800000010180012587287283128900011732303050720230000001977012823000000001276262525475XXXXXX5887       ME03KE06MS02      NY 4607AMWEOLI73X0507  N840000000019770          81DNCBD8885133385            68342Z    MC84000000019770 N  599978220273   37F476572ET2786566258A7  000000000+600450S00130    MWE  00737                     000000000  N                0000000000000.00 0000000.00   0000000.00                             000000000000000                                                                                                                                                   U001424  000000000000 0000000000005.24     02600 01000                  
00004750201760085DT67590675900000026849800125800000010180012587287283128900011732311050720230000000149512823000000001276262521333XXXXXX6437       ME03KE06MS02      NY 4607AMWEY9BW380507  N840000000001495          81DNCBD8885133385            00715P    MC84000000001495 N  599978220273   2359F50DC5T3B1C35DFDD42  000000000+600450S00130    MWE  00737                     000000000  N                0000000000000.00 0000000.00   0000000.00                             000000000000000                                                                                                                                                   U001424  000000000000 0000000000000.49     02600 01000                  
00004760201760086DT67590675900000026849800125800000010180012587287283128900011732329050720230000001789212823000000001276262526947XXXXXX7383       ME03KE06PT01      NY 4607AMCWZAHX380507  N840000000017892          81DNCBD8885133385            00435Z    MC84000000017892 N  599978220273   42F787E332TA0FBF7C2B4B4  000000000+600450S00130    MCW  00642                     000000000  N                0000000000000.00 0000000.00   0000000.00                             000000000000000                                                                                                                                                   U001424  000000000000 0000000000004.04     02200 01000                  
00004770201760087DT67590675900000026849800125800000010180012587287283128900011732337050720230000000979812823000000001276262526947XXXXXX7383       ME03KE06PT01      NY 4607AMCWOPWD3X0507  N840000000009798          81DNCBD8885133385            07776Z    MC84000000009798 N  599978220273   42F787E332TAD7C05F48FF6  000000000+600450S00130    MCW  00642                     000000000  N                0000000000000.00 0000000.00   0000000.00                             000000000000000                                                                                                                                                   U001424  000000000000 0000000000002.26     02200 01000                  
00004780201760088DT67590675900000026849800125800000010180012587287283128900011732345050720230000000619812823000000001276262526947XXXXXX7383       ME03KE06PT01      NY 4607AMCWYRSG3W0507  N840000000006198          81DNCBD8885133385            02273Z    MC84000000006198 N  599978220273   42F787E332T2A94DEC06364  000000000+600450S00130    MCW  00642                     000000000  N                0000000000000.00 0000000.00   0000000.00                             000000000000000                                                                                                                                                   U001424  000000000000 0000000000001.46     02200 01000                  
00004790201760089DT67590675900000026849800125800000010180012587287283128900011732352050720230000000129512823000000001276262526947XXXXXX7383       ME03KE06PT01      NY 4607AMCWODYD380507  N840000000001295          81DNCBD8885133385            05585Z    MC84000000001295 N  599978220273   42F787E332T042CE06306DF  000000000+600450S00130    MCW  00642                     000000000  N                0000000000000.00 0000000.00   0000000.00                             000000000000000                                                                                                                                                   U001424  000000000000 0000000000000.38     02200 01000                  
00004800201760090DT67590675900000026849800125800000010180012587287283128900011732360050720230000000149512823000000001276262526947XXXXXX7383       ME03KE06PT01      NY 4607AMCWHSGW3X0507  N840000000001495          81DNCBD8885133385            08763Z    MC84000000001495 N  599978220273   42F787E332T913C5E53ABEE  000000000+600450S00130    MCW  00642                     000000000  N                0000000000000.00 0000000.00   0000000.00                             000000000000000                                                                                                                                                   U001424  000000000000 0000000000000.43     02200 01000                  
00004810201760091DT67590675900000026849800125800000010680012574001193128900011732489050720230000001478412823000000001276262410039XXXXXX1203               0000000   NYV4 07T463127624895507N8400000000147842FRJ00    01CNCBD8885133385            43411D    VS84000000014784 NP1599978220273   A72B64F859T2E656E7CA076  000000000+                D CD 00245                     000000000  N000000000 166   0000000000000.00 0000000.00   0000000.00                             000000000000000                                                                                                                                                     01424  000000014784-0000000000002.60     01760 00000                  
00004820201760001P16759067590000002684980012580000001060000000000000000                             2000000000000000000000000              000000000000                    0000000000000000000000000                    000000000000                                                                                                                                                                                                                                                                                                                                                                                                                                                                                        
00004830201760092DT67590675900000026849800125800000010180012524001193128900011732500050720230000001489212823000000001276262414720XXXXXX3071               2111111   NYV4 A7W303127627388604N840000000014892SHM300    01DNCBD8885133385            06168D    VS84000000014892 NP1599978220273   7E5322F4E9T8A001A069C19  000000000+                D CD 12109                     000000000  N000000000 498   0000000000000.00 0000000.00   0000000.00                             000000000000000                                                                                                                                                     01424 G000000014892 0000000000003.82     02500 01000                  
00004840201760001P16759067590000002684980012580000001010000000000000000                             2000000000000000000000000              000000000000                    0000000000000000000000000                    000000000000                                                                                                                                                                                                                                                                                                                                                                                                                                                                                        
00004850201760093DT67590675900000026849800125800000010180012524001193128900011732518050720230000000149512823000000001276262414720XXXXXX3071               2111111   NYV4 A7W383127628087616N8400000000014955F2800    01DNCBD8885133385            09452D    VS84000000001495 NP1599978220273   7E5322F4E9T02F7260F1CB3  000000000+                D CD 12109                     000000000  N000000000 498   0000000000000.00 0000000.00   0000000.00                             000000000000000                                                                                                                                                     01424 G000000001495 0000000000000.47     02500 01000                  
00004860201760001P16759067590000002684980012580000001010000000000000000                             2000000000000000000000000              000000000000                    0000000000000000000000000                    000000000000                                                                                                                                                                                                                                                                                                                                                                                                                                                                                        
00004870201760094DT67590675900000026849800125800000010180012524001193128900011732526050720230000001480312823000000001276262434256XXXXXX0742               2111111   NYV4 A7W383127630048924N84000000001480398MT00    01DNCBD8885133385            060429    VD84000000014803 NP1599978220273   020D356917TAB4D917C6D8F  000000000+                F DF 10420                     000000000  Y000000000 338   0000000000000.00 0000000.00   0000000.00                             000000000000000                                                                                                                                                     01424 G000000014803 0000000000000.29     00050 02200                  
00004880201760001P16759067590000002684980012580000001010000000000000000                             2000000000000000000000000              000000000000                    0000000000000000000000000                    000000000000                                                                                                                                                                                                                                                                                                                                                                                                                                                                                        
00004890201760095DT67590675900000026849800125800000010180012587287283128900011732535050720230000002477012823000000001276262521876XXXXXX7521       ME03KE06MS02      NY 4607AMWEJGMP3X0507  N840000000024770          81DNCBD8885133385            56468Z    MC84000000024770 N  599978220273   A189C5D9C1T4409D5EB8D61  000000000+600450S00130    MWE  00737                     000000000  N                0000000000000.00 0000000.00   0000000.00                             000000000000000                                                                                                                                                   U001424  000000000000 0000000000006.54     02600 01000                  
00004900201760096DT67590675900000026849800125800000010180012587287283128900011732543050720230000000619812823000000001276262521876XXXXXX7521       ME03KE06MS02      NY 4607AMWEB0DC390507  N840000000006198          81DNCBD8885133385            37644Z    MC84000000006198 N  599978220273   A189C5D9C1TC777C9C96A2B  000000000+600450S00130    MWE  00737                     000000000  N                0000000000000.00 0000000.00   0000000.00                             000000000000000                                                                                                                                                   U001424  000000000000 0000000000001.71     02600 01000                  
00004910201760097DT67590675900000026849800125800000010180012524001193128900011732559050720230000001280312823000000001276262425407XXXXXX6441               2111111   NYV4 A7W383127631870642N840000000012803Q7WB00    01DNCBD8885133385            033308    VD84000000012803 NP1599978220273   AC9A999653T8296528582C6  000000000+                F DF 00415                     000000000  N000000000       0000000000000.00 0000000.00   0000000.00                             000000000000000                                                                                                                                                     01424 G000000012803 0000000000002.26     01650 01500                  
00004920201760001P16759067590000002684980012580000001010000000000000000                             2000000000000000000000000              000000000000                    0000000000000000000000000                    000000000000                                                                                                                                                                                                                                                                                                                                                                                                                                                                                        
00004930201760098DT67590675900000026849800125800000010180012524001193128900011732583050720230000001460312823000000001276262434258XXXXXX4797               2111111   NYV4 A7W303127636064078N840000000014603GMQM00    01DNCBD8885133385            050323    VD84000000014603 NP1599978220273   0524A9E2D0TC1FF72BAAD28  000000000+                F DF 10420                     000000000  Y000000000 338   0000000000000.00 0000000.00   0000000.00                             000000000000000                                                                                                                                                     01424 G000000014603 0000000000000.29     00050 02200                  
00004940201760001P16759067590000002684980012580000001010000000000000000                             2000000000000000000000000              000000000000                    0000000000000000000000000                    000000000000                                                                                                                                                                                                                                                                                                                                                                                                                                                                                        
00004950201760099DT67590675900000026849800125800000010180012524001193128900011732625050720230000002477012823000000001276262438854XXXXXX7149               2111111   NYV4 A7W583127645047165N840000000024770ZW2500    01DNCBD8885133385            05130C    VS84000000024770 NP1599978220273   F6C5907C67T410D1E1B8204  000000000+                C CC 12108                     000000000  N000000000 496   0000000000000.00 0000000.00   0000000.00                             000000000000000                                                                                                                                                     01424 G000000024770 0000000000005.18     02050 01000                  
00004960201760001P16759067590000002684980012580000001010000000000000000                             2000000000000000000000000              000000000000                    0000000000000000000000000                    000000000000                                                                                                                                                                                                                                                                                                                                                                                                                                                                                        
00004970201760100DT67590675900000026849800125800000010180012524001193128900011732641050720230000002745012823000000001276262481582XXXXXX8768               2111111   NYV4 A7W463127647390998N840000000027450MDPL00    01DNCBD8885133385            175488    VD84000000027450 NP1599978220273   233D580C27TD354674ED23F  000000000+                F DF 10420                     000000000  Y000000000 338   0000000000000.00 0000000.00   0000000.00                             000000000000000                                                                                                                                                     01424 G000000027450 0000000000000.36     00050 02200                  
00004980201760001P16759067590000002684980012580000001010000000000000000                             2000000000000000000000000              000000000000                    0000000000000000000000000                    000000000000                                                                                                                                                                                                                                                                                                                                                                                                                                                                                        
00004990201760101DT67590675900000026849800125800000010180012524001193128900011732658050720230000002245012823000000001276262487309XXXXXX8003               2111111   NYV4 A7W463127648076772N840000000022450G3CH00    01DNCBD8885133385            028260    VD84000000022450 NP1599978220273   C6D5BD36D3TFC778C7AC3D3  000000000+                F DF 10420                     000000000  Y000000000 338   0000000000000.00 0000000.00   0000000.00                             000000000000000                                                                                                                                                     01424 G000000022450 0000000000000.33     00050 02200                  
00005000201760001P16759067590000002684980012580000001010000000000000000                             2000000000000000000000000              000000000000                    0000000000000000000000000                    000000000000                                                                                                                                                                                                                                                                                                                                                                                                                                                                                        
00005010201760102DT67590675900000026849800125800000010180012524001193128900011732682050720230000002245012823000000001276262443040XXXXXX2596               2111111   NYV4 A7W583127650749103N840000000022450X9MX00    01DNCBD8885133385            464240    VD84000000022450 NP1599978220273   AD185C762BT46B1997C412C  000000000+                F DF 10420                     000000000  Y000000000 338   0000000000000.00 0000000.00   0000000.00                             000000000000000                                                                                                                                                     01424 G000000022450 0000000000000.33     00050 02200                  
00005020201760001P16759067590000002684980012580000001010000000000000000                             2000000000000000000000000              000000000000                    0000000000000000000000000                    000000000000                                                                                                                                                                                                                                                                                                                                                                                                                                                                                        
00005030201760103DT67590675900000026849800125800000010180012524001193128900011732708050720230000002245012823000000001276262441614XXXXXX1945               2111111   NYV4 A7W463127651072718N840000000022450SCND00    01DNCBD8885133385            167756    VD84000000022450 NP1599978220273   3079FBFD27TE4F2F7F3C968  000000000+                F DF 00415                     000000000  N000000000       0000000000000.00 0000000.00   0000000.00                             000000000000000                                                                                                                                                     01424 G000000022450 0000000000003.85     01650 01500                  
00005040201760001P16759067590000002684980012580000001010000000000000000                             2000000000000000000000000              000000000000                    0000000000000000000000000                    000000000000                                                                                                                                                                                                                                                                                                                                                                                                                                                                                        
