03189120074390002BH6759067590000000288180088880000090170203202303423000000000050060    0000090001360011N8008886759C02052023                                                                                                                                                                                                                                                                                                                                                                                                                                                                                                                                                                                                 
03189130074390003DT67590675900000002881800888800000010180088824001193034900013600013020320230000000325803423000000000050060443238XXXXXX9381       VS11    0001111   NYV1 A E303034600380925N840000000003258BT5D00    07DNHAPPY HIPPIE             014038    VD84000000003258 N  549976487134                            000000000+                F DF 00381                     000000000  N000000000       0000000000000.00 0000000.00   0000000.00                             000000000000000                                                                                                                                                     01418 A000000000000 0000000000000.41     00800 01500                  
03189140074390004DT67590675900000002881800888800000010180088877287283034900013600023020320230000000454303423000000000050060515597XXXXXX9017       MS02WI09          NY 1 0 AMWEA7C0GE0203  N840000000004543          05DNHAPPY HIPPIE             03453P    MC84000000004543 N  549976487134                            000000000+M10101C5434C    MWE  00743                     000000000  N                0000000000000.00 0000000.00   0000000.00                             000000000000000                                                                                                                                                   B101418  000000000000 0000000000001.08     02300 00400                  
03189150074390005DT67590675900000002881800888800000010180088824001193034900013600039020320230000000225803423000000000050060445102XXXXXX2769       VS11    0001111   NYV1 A E383034734270289N840000000002258NVQN00    05DNHAPPY HIPPIE             798169    VD84000000002258 N  549976487134                            000000000+                F DF 10433                     000000000  Y000000000 338   0000000000000.00 0000000.00   0000000.00                             000000000000000                                                                                                                                                     01418 A000000000000 0000000000000.23     00050 02200                  
03189160074390006DT67590675900000002881800888800000010180088824001193034900013600047020320230000000238003423000000000050060419090XXXXXX9815       VS11    0001111   NYV1 A E303034742239583N840000000002380M9SG00    05DNHAPPY HIPPIE             279619    VD84000000002380 N  549976487134                            000000000+                F DF 00381                     000000000  N000000000       0000000000000.00 0000000.00   0000000.00                             000000000000000                                                                                                                                                     01418 A000000000000 0000000000000.34     00800 01500                  
03189170074390007DT67590675900000002881800888800000010180088824001193034900013600054020320230000000568403423000000000050060462406XXXXXX7172       VS11    0001111   NYV1 A E583034756052621N840000000005684HC7300    05DNHAPPY HIPPIE             446086    VD84000000005684 N  549976487134                            000000000+                F DF 00381                     000000000  N000000000       0000000000000.00 0000000.00   0000000.00                             000000000000000                                                                                                                                                     01418 A000000000000 0000000000000.60     00800 01500                  
03189180074390008DT67590675900000002881800888800000010180088877287283034900013600064020320230000001159803423000000000050060511953XXXXXX4370       MS02WI09          NY 1 0 AMDJR7H4W90203  N840000000011598          05DNHAPPY HIPPIE             094603    MD84000000011598 N  549976487134                            000000000+M10101C5434C    MDJ  00402                     000000000  N                0000000000000.00 0000000.00   0000000.00                             000000000000000                                                                                                                                                   B101418  000000000000 0000000000001.37     01050 01500                  
03189190074390009DT67590675900000002881800888800000010180088824001193034900013600070020320230000000468903423000000000050060429136XXXXXX3697               1001111   NYV1 A K303034773700536N8400000000046899C4Z00    01DNHAPPY HIPPIE             162930    VD84000000004689 N  549976487134                            000000000+                F DF 00412                     000000000  N000000000       0000000000000.00 0000000.00   0000000.00                             000000000000000                                                                                                                                                     01418 E000000000000 0000000000000.92     01650 01500                  
03189200074390010DT67590675900000002881800888800000010180088824001193034900013600088020320230000000605803423000000000050060435722XXXXXX6388       VS11    0001111   NYV1 A E303034784464620N840000000006058PMNZ00    05DNHAPPY HIPPIE             054726    VD84000000006058 N  549976487134                            000000000+                F DF 00381                     000000000  N000000000       0000000000000.00 0000000.00   0000000.00                             000000000000000                                                                                                                                                     01418 A000000000000 0000000000000.63     00800 01500                  
03189210074390011DT67590675900000002881800888800000010180088824001193034900013600096020320230000000159503423000000000050060426957XXXXXX4840               1001111   NYV1 A K383034793376672N840000000001595DB9M00    01DNHAPPY HIPPIE             167152    VD84000000001595 N  549976487134                            000000000+                F DF 00412                     000000000  N000000000       0000000000000.00 0000000.00   0000000.00                             000000000000000                                                                                                                                                     01418 E000000000000 0000000000000.41     01650 01500                  
03189220074390012DT67590675900000002881800888800000010180088877287283034900013600106020320230000000393803423000000000050060511953XXXXXX5477       MS02WI09          NY 1 0 AMDJUTXVW90203  N840000000003938          05DNHAPPY HIPPIE             012333    MD84000000003938 N  549976487134                            000000000+M10101C5434C    MDJ  00402                     000000000  N                0000000000000.00 0000000.00   0000000.00                             000000000000000                                                                                                                                                   B101418  000000000000 0000000000000.56     01050 01500                  
03189230074390013DT67590675900000002881800888800000010180088824001193034900013600112020320230000000405903423000000000050060405960XXXXXX4105       VS11    0001111   NYV1 A E383034815558981N840000000004059M4CZ00    05DNHAPPY HIPPIE             534238    VD84000000004059 N  549976487134                            000000000+                F DF 00381                     000000000  N000000000       0000000000000.00 0000000.00   0000000.00                             000000000000000                                                                                                                                                     01418 A000000000000 0000000000000.47     00800 01500                  
03189240074390014BH6759067590000000288180088880000090170203202303423000000000170086    0000090001360033N8008886759C02052023                                                                                                                                                                                                                                                                                                                                                                                                                                                                                                                                                                                                 
03189250074390015DT67590675900000002881800888800000010180088824001193034900013600013020320230000000413403423000000000170086445101XXXXXX7687       VS11    0001111   NYV1 A E463034576222622N840000000004134DMS300    05DNHAPPY HIPPIE             615310    VD84000000004134 N  549976487158                            000000000+                F DF 10433                     000000000  Y000000000 338   0000000000000.00 0000000.00   0000000.00                             000000000000000                                                                                                                                                     01418 A000000000000 0000000000000.24     00050 02200                  
03189260074390016DT67590675900000002881800888800000010180088824001193034900013600021020320230000000296203423000000000170086419090XXXXXX5725       VS11    0001111   NYV1 A E463034580494333N840000000002962WCR800    05DNHAPPY HIPPIE             269229    VD84000000002962 N  549976487158                            000000000+                F DF 00381                     000000000  N000000000       0000000000000.00 0000000.00   0000000.00                             000000000000000                                                                                                                                                     01418 A000000000000 0000000000000.39     00800 01500                  
03189270074390017DT67590675900000002881800888800000010180088873011003034900013600035020320230000000325803423000000000170086378339XXXXX2003                          NY 1 0 N006890219658067N840000000003258          05DNHAPPY HIPPIE             893410    AM84000000003258 N  549976487158                            000000000+51010155434C 258     11261                     000000000                   0000000000000.00 0000000.00   0000000.00                             000000000000000 61248972086759675900000002881 HAPPY HIPPIE             832 PARKWAY              8656540830      37862     HAPPYHIPPIE832@GMAIL.COM                  01418  000000000000 0000000000000.62     01600 00000                  
03189280074390018DT67590675900000002881800888800000010180088877287283034900013600049020320230000000651703423000000000170086552486XXXXXX5239       MS02WI09          NY 1 0 AMWEH7FIT80203  N840000000006517          05DNHAPPY HIPPIE             00588Z    MC84000000006517 N  549976487158                            000000000+M10101C5434C    MWE  00743                     000000000  N                0000000000000.00 0000000.00   0000000.00                             000000000000000                                                                                                                                                   B101418  000000000000 0000000000001.54     02300 00400                  
03189290074390019DT67590675900000002881800888800000010180088824001193034900013600054020320230000000395003423000000000170086443264XXXXXX3780       VS11    0001111   NYV1 A E463034596998216N840000000003950JXD500    05DNHAPPY HIPPIE             031049    VD84000000003950 N  549976487158                            000000000+                F DF 10433                     000000000  Y000000000 338   0000000000000.00 0000000.00   0000000.00                             000000000000000                                                                                                                                                     01418 A000000000000 0000000000000.24     00050 02200                  
03189300074390020DT67590675900000002881800888800000010180088824001193034900013600062020320230000000158003423000000000170086422921XXXXXX1865       VS11    0001111   NYV1 A E383034607108042N8400000000015804G7N00    05DNHAPPY HIPPIE             042711    VD84000000001580 N  549976487158                            000000000+                F DF 00381                     000000000  N000000000       0000000000000.00 0000000.00   0000000.00                             000000000000000                                                                                                                                                     01418 A000000000000 0000000000000.28     00800 01500                  
03189310074390021DT67590675900000002881800888800000010180088824001193034900013600070020320230000000246803423000000000170086437303XXXXXX1202       VS11    0001111   NYV1 A E303034611560985N840000000002468H2TV00    05DNHAPPY HIPPIE             478335    VD84000000002468 N  549976487158                            000000000+                F PF 08170                     000000000  N000000000       0000000000000.00 0000000.00   0000000.00                             000000000000000                                                                                                                                                     01418 A000000000000 0000000000000.43     01150 01500                  
03189320074390022DT67590675900000002881800888800000010180088824001193034900013600088020320230000000464003423000000000170086410889XXXXXX1726       VS11    0001111   NYV1 A E383034620288165N840000000004640HTHJ00    05DNHAPPY HIPPIE             544029    VS84000000004640 N  549976487158                            000000000+                B CB 12111                     000000000  N000000000 495   0000000000000.00 0000000.00   0000000.00                             000000000000000                                                                                                                                                     01418 A000000000000 0000000000000.87     01650 01000                  
03189330074390023DT67590675900000002881800888800000010180088824001193034900013600096020320230000000819503423000000000170086419002XXXXXX1651       VS11    0001111   NYV1 A E303034628742892N8400000000081954LKB00    05DNHAPPY HIPPIE             023011    VD84000000008195 N  549976487158                            000000000+                F DF 10433                     000000000  Y000000000 338   0000000000000.00 0000000.00   0000000.00                             000000000000000                                                                                                                                                     01418 A000000000000 0000000000000.26     00050 02200                  
03189340074390024DT67590675900000002881800888800000010180088824001193034900013600104020320230000000237103423000000000170086419090XXXXXX1275       VS11    0001111   NYV1 A E303034631528803N840000000002371MVQL00    05DNHAPPY HIPPIE             272500    VD84000000002371 N  549976487158                            000000000+                F DF 00381                     000000000  N000000000       0000000000000.00 0000000.00   0000000.00                             000000000000000                                                                                                                                                     01418 A000000000000 0000000000000.34     00800 01500                  
03189350074390025DT67590675900000002881800888800000010180088824001193034900013600112020320230000000296203423000000000170086423223XXXXXX1655       VS11    0001111   NYV1 A E463034637353939N840000000002962935J00    05DNHAPPY HIPPIE             030313    VD84000000002962 N  549976487158                            000000000+                F DF 00381                     000000000  N000000000       0000000000000.00 0000000.00   0000000.00                             000000000000000                                                                                                                                                     01418 A000000000000 0000000000000.39     00800 01500                  
03189360074390026DT67590675900000002881800888800000010180088824001193034900013600120020320230000000158003423000000000170086422921XXXXXX6466       VS11    0001111   NYV1 A E463034640385851N840000000001580S2ZP00    05DNHAPPY HIPPIE             046039    VD84000000001580 N  549976487158                            000000000+                F DF 00381                     000000000  N000000000       0000000000000.00 0000000.00   0000000.00                             000000000000000                                                                                                                                                     01418 A000000000000 0000000000000.28     00800 01500                  
03189370074390027DT67590675900000002881800888800000010180088824001193034900013600138020320230000002095003423000000000170086434256XXXXXX6838       VS11    0001111   NYV1 A E383034650585248N8400000000209508PNX00    05DNHAPPY HIPPIE             021363    VD84000000020950 N  549976487158                            000000000+                F DF 10433                     000000000  Y000000000 338   0000000000000.00 0000000.00   0000000.00                             000000000000000                                                                                                                                                     01418 A000000000000 0000000000000.32     00050 02200                  
03189380074390028DT67590675900000002881800888800000010180088824001193034900013600146020320230000001431603423000000000170086422921XXXXXX5568       VS11    0001111   NYV1 A E303034672284710N840000000014316LZC400    05DNHAPPY HIPPIE             049230    VD84000000014316 N  549976487158                            000000000+                F DF 00381                     000000000  N000000000       0000000000000.00 0000000.00   0000000.00                             000000000000000                                                                                                                                                     01418 A000000000000 0000000000001.30     00800 01500                  
03189390074390029DT67590675900000002881800888800000010180088824001193034900013600153020320230000000204603423000000000170086443264XXXXXX1398       VS11    0001111   NYV1 A E303034675443799N840000000002046VSX800    05DNHAPPY HIPPIE             031936    VD84000000002046 N  549976487158                            000000000+                F DF 10433                     000000000  Y000000000 338   0000000000000.00 0000000.00   0000000.00                             000000000000000                                                                                                                                                     01418 A000000000000 0000000000000.23     00050 02200                  
03189400074390030DT67590675900000002881800888800000010180088824001193034900013600161020320230000000877503423000000000170086410064XXXXXX9611       VS11    0001111   NYV1 A E303034678302590N8400000000087754QWK00    05DNHAPPY HIPPIE             00910D    VS84000000008775 N  549976487158                            000000000+                D CD 12113                     000000000  N000000000 499   0000000000000.00 0000000.00   0000000.00                             000000000000000                                                                                                                                                     01418 A000000000000 0000000000001.94     02100 01000                  
03189410074390031DT67590675900000002881800888800000010180088877287283034900013600171020320230000000395003423000000000170086523914XXXXXX8023       MS02WI09          NY 1 0 AMCWI0D7JF0203  N840000000003950          05DNHAPPY HIPPIE             05391W    MC84000000003950 N  549976487158                            000000000+M10101C5434C    MCW  00364                     000000000  N                0000000000000.00 0000000.00   0000000.00                             000000000000000                                                                                                                                                   B101418  000000000000 0000000000000.75     01800 00400                  
03189420074390032DT67590675900000002881800888800000010180088824001193034900013600187020320230000000444403423000000000170086404227XXXXXX7619       VS11    0001111   NYV1 A E303034685140701N840000000004444HPGG00    05DNHAPPY HIPPIE             697062    VD84000000004444 N  549976487158                            000000000+                F DF 00381                     000000000  N000000000       0000000000000.00 0000000.00   0000000.00                             000000000000000                                                                                                                                                     01418 A000000000000 0000000000000.51     00800 01500                  
03189430074390033DT67590675900000002881800888800000010180088824001193034900013600195020320230000000097603423000000000170086421783XXXXXX4327       VK04VS111111111   NYV1 A E303034696047427N840000000000976L8Q500    05DNHAPPY HIPPIE             084553    VS84000000000976 N  549976487158                            000000000+                A CA 12053                     000000000  N000000000 450   0000000000000.00 0000000.00   0000000.00                             000000000000000                                                                                                                                                     01418 F000000000000 0000000000000.19     01900 00000                  
03189440074390034DT67590675900000002881800888800000010180088824001193034900013600203020320230000000987803423000000000170086435547XXXXXX9872       VS11    0001111   NYV1 A E383034696500341N840000000009878JHG900    05DNHAPPY HIPPIE             083032    VD84000000009878 N  549976487158                            000000000+                F DF 10433                     000000000  Y000000000 338   0000000000000.00 0000000.00   0000000.00                             000000000000000                                                                                                                                                     01418 A000000000000 0000000000000.27     00050 02200                  
03189450074390035DT67590675900000002881800888800000010180088824001193034900013600211020320230000000677903423000000000170086419090XXXXXX3405       VS11    0001111   NYV1 A E463034707215246N840000000006779WSHS00    05DNHAPPY HIPPIE             277394    VD84000000006779 N  549976487158                            000000000+                F DF 00381                     000000000  N000000000       0000000000000.00 0000000.00   0000000.00                             000000000000000                                                                                                                                                     01418 A000000000000 0000000000000.69     00800 01500                  
03189460074390036DT67590675900000002881800888800000010180088824001193034900013600229020320230000000888903423000000000170086422921XXXXXX8093       VS11    0001111   NYV1 A E463034716703822N840000000008889PRQS00    05DNHAPPY HIPPIE             053672    VD84000000008889 N  549976487158                            000000000+                F DF 00381                     000000000  N000000000       0000000000000.00 0000000.00   0000000.00                             000000000000000                                                                                                                                                     01418 A000000000000 0000000000000.86     00800 01500                  
03189470074390037DT67590675900000002881800888800000010180088824001193034900013600237020320230000001133003423000000000170086480639XXXXXX2511       VS11    0001111   NYV1 A E383034720145572N8400000000113308LLD00    05DNHAPPY HIPPIE             911369    VD84000000011330 N  549976487158                            000000000+                F DF 00381                     000000000  N000000000       0000000000000.00 0000000.00   0000000.00                             000000000000000                                                                                                                                                     01418 A000000000000 0000000000001.06     00800 01500                  
03189480074390038DT67590675900000002881800888800000010180088877287283034900013600247020320230000000027303423000000000170086542418XXXXXX8823                         NY 1 0 AMPLCKEWXA0203  N840000000000273          05DNHAPPY HIPPIE             40839B    MC84000000000273 N  549976487158                            000000000+M10101C5434C    MPL  12144                     000000000  N                0000000000000.00 0000000.00   0000000.00                             000000000000000                                                                                                                                                   B101418  000000000000 0000000000000.07     01800 00200                  
03189490074390039DT67590675900000002881800888800000010180088824001193034900013600252020320230000000438903423000000000170086459100XXXXXX3755       VS11    0001111   NYV1 A E583034762700241N84000000000438999HW00    05DNHAPPY HIPPIE             051110    VD84000000004389 N  549976487158                            000000000+                F DF 00381                     000000000  N000000000       0000000000000.00 0000000.00   0000000.00                             000000000000000                                                                                                                                                     01418 A000000000000 0000000000000.50     00800 01500                  
03189500074390040DT67590675900000002881800888800000010180088824001193034900013600260020320230000000225803423000000000170086480639XXXXXX7954       VS11    0001111   NYV1 A E303034763812419N840000000002258QWVZ00    05DNHAPPY HIPPIE             913803    VD84000000002258 N  549976487158                            000000000+                F DF 00381                     000000000  N000000000       0000000000000.00 0000000.00   0000000.00                             000000000000000                                                                                                                                                     01418 A000000000000 0000000000000.33     00800 01500                  
03189510074390041DT67590675900000002881800888800000010180088824001193034900013600278020320230000000622203423000000000170086415978XXXXXX1976       VS11    0001111   NYV1 A E303034770920334N8400000000062222KNX00    05DNHAPPY HIPPIE             088619    VD84000000006222 N  549976487158                            000000000+                F DF 10433                     000000000  Y000000000 338   0000000000000.00 0000000.00   0000000.00                             000000000000000                                                                                                                                                     01418 A000000000000 0000000000000.25     00050 02200                  
03189520074390042DT67590675900000002881800888800000010180088824001193034900013600286020320230000000548803423000000000170086445101XXXXXX0323       VS11    0001111   NYV1 A E383034793908348N8400000000054889F8N00    05DNHAPPY HIPPIE             860038    VD84000000005488 N  549976487158                            000000000+                F DF 10433                     000000000  Y000000000 338   0000000000000.00 0000000.00   0000000.00                             000000000000000                                                                                                                                                     01418 A000000000000 0000000000000.25     00050 02200                  
03189530074390043DT67590675900000002881800888800000010180088877287283034900013600296020320230000000536103423000000000170086525363XXXXXX4979       MS02WI09          NY 1 0 AMWEFL5UXA0203  N840000000005361          05DNHAPPY HIPPIE             96709Z    MC84000000005361 N  549976487158                            000000000+M10101C0034C    MWE  00743                     000000000  N                0000000000000.00 0000000.00   0000000.00                             000000000000000                                                                                                                                                   B101418  000000000000 0000000000001.27     02300 00400                  
03189540074390044DT67590675900000002881800888800000010180088877287283034900013600304020320230000000149803423000000000170086518941XXXXXX4253       MS02WI09          NY 1 0 AMWERF9AZV0203  N840000000001498          05DNHAPPY HIPPIE             97942Z    MC84000000001498 N  549976487158                            000000000+M10101C5434C    MWE  00743                     000000000  N                0000000000000.00 0000000.00   0000000.00                             000000000000000                                                                                                                                                   B101418  000000000000 0000000000000.38     02300 00400                  
03189550074390045DT67590675900000002881800888800000010180088824001193034900013600310020320230000000197403423000000000170086419090XXXXXX1567       VS11    0001111   NYV1 A E463034820140857N840000000001974C7QS00    05DNHAPPY HIPPIE             284682    VD84000000001974 N  549976487158                            000000000+                F DF 00381                     000000000  N000000000       0000000000000.00 0000000.00   0000000.00                             000000000000000                                                                                                                                                     01418 A000000000000 0000000000000.31     00800 01500                  
03189560074390046DT67590675900000002881800888800000010180088873011003034900013600324020320230000000439003423000000000170086372279XXXXX1001                          NY 1 0 N006339881775072N840000000004390          05DNHAPPY HIPPIE             881934    AM84000000004390 N  549976487158                            000000000+51010155434C 258     11261                     000000000                   0000000000000.00 0000000.00   0000000.00                             000000000000000 61248972086759675900000002881 HAPPY HIPPIE             832 PARKWAY              8656540830      37862     HAPPYHIPPIE832@GMAIL.COM                  01418  000000000000 0000000000000.80     01600 00000                  
03189570074390047DT67590675900000002881800888800000010180088877287283034900013600338020320230000000128303423000000000170086541433XXXXXX1959       MS02WI09          NY 1 0 AMPAZ1AGZV0203  N840000000001283          90DNHAPPY HIPPIE             065520    MD84000000001283 N  549976487158                            000000000+M10101B5434C    MPA  10831                     000000000  1                0000000000000.00 0000000.00   0000000.00                             000000000000000                                                                                                                                                   C101418  000000000000 0000000000000.23     00050 02200                  
03189580074390048BH6759067590000000215480088880000090170203202303423000000000080880    0000090001996557N8008886759C02052023                                                                                                                                                                                                                                                                                                                                                                                                                                                                                                                                                                                                 
03189590074390049DT67590675900000002154800888800000010180088824001193034900019980385020320230000004200003423000000000080880425907XXXXXX7030               2111111   NYV4 A7W303034745148285N8400000000420002PKJ00    01DNDRIP DROP DISTRO LLC     082528    VD84000000042000 NP1519971004114   INV-000518               000000000+                G DG 10352                     000000000  Y000000000 338   0000000000000.00 0000000.00   0000000.00                             000000000000000                                                                                                                                                     01418 G000000042000 0000000000000.43     00050 02200                  
03189600074390001P16759067590000000215480088880000001010000000000000000    43919946816              2000000000000000000000000              000000000000                    0000000000000000000000000                    000000000000                                                                                                                                                                                                                                                                                                                                                                                                                                                                                        
03189610074390050DT67590675900000002154800888800000010180088824001193034900019965576020320230000003888003423000000000080880426930XXXXXX0531               2111111   NYV4 A7W383034671475906N8400000000388808JD600    01DNDRIP DROP DISTRO LLC     07220G    VB84000000038880 NP1519971004114   INV-000503               000000000+                G5CG511887                     000000000  N000000000 163   0000000000000.00 0000000.00   0000000.00                             000000000000000                                                                                                                                                     01418 G000000038880 0000000000011.76     03000 01000                  
03189620074390001P16759067590000000215480088880000001010000000000000000    43919433549              2000000000000000000000000              000000000000                    0000000000000000000000000                    000000000000                                                                                                                                                                                                                                                                                                                                                                                                                                                                                        
03189630074390051BH6759067590000000561180088880000090170203202303423000000000006498    0000090001078845N8008886759C02052023                                                                                                                                                                                                                                                                                                                                                                                                                                                                                                                                                                                                 
03189640074390052DT67590675900000005611800888800000010180088824001193034900010788456020320230000000649803423000000000006498440066XXXXXX4316               2111111   NYV4 A7W463034820514083N8400000000064987PNW00    01DNK DIVINE 503-689-7182    06995C    VS84000000006498 NP1549971004114   5179                     000000000+                C CC 12108                     000000000  N000000000 496   0000000000000.00 0000000.00   0000000.00                             000000000000000                                                                                                                                                     01418 G000000006498 0000000000001.43     02050 01000                  
03189650074390001P16759067590000000561180088880000001010000000000000000                             2000000000000000000000000              000000000000                    0000000000000000000000000                    000000000000                                                                                                                                                                                                                                                                                                                                                                                                                                                                                        
