01665360260740002BH6759067590000000215480088880000090170111202301123000000001308040    0000090001790933N8008886759C01122023                                                                                                                                                                                                                                                                                                                                                                                                                                                                                                                                                                                                 
01665370260740003DT67590675900000002154800888800000010180088887287283011900017922627011120230000011588401123000000001308040542418XXXXXX9220       ME03KE06MS02      NY 4607AMWEG0IMOQ0111  N840000000115884          81DNDRIP DROP DISTRO LLC     31677P    MC84000000115884 N  519900000001   INV-000198               000000000+600450S00140    MWE  00737                     000000000  N                0000000000000.00 0000000.00   0000000.00                             000000000000000                                                                                                                                                   U001418  000000000000 0000000000030.23     02600 01000                  
01665380260740004DT67590675900000002154800888800000010180088873011003011900017951621011120230000063608501123000000001308040373273XXXXX4047                          NY 4 07N004262215887300N840000000636085          01DNDRIP DROP DISTRO LLC     129103    AM84000000636085 N  519971004114                            000000000+6004S0600140 258     11244                     000000000                   0000000000000.00 0000000.00   0000000.00                             000000000000000 61248972736759675900000002154 DRIP DROP DISTRO LLC     1445 W COMMERCE AVE SUITE2087248209      83705     TROY@DRIPDROPDISTRO.COM                   01418  000000000000 0000000000120.96     01900 00000                  
01665390260740005DT67590675900000002154800888800000010180088824001193011900017988122011120230000050457101123000000001308040433993XXXXXX5370               2111111   NYV4 A7W303011732843594N840000000504571W5XF00    01DNDRIP DROP DISTRO LLC     05659G    VB84000000504571 NP1519971004114   INV-000197               000000000+                G5CG511887                     000000000  N000000000 163   0000000000000.00 0000000.00   0000000.00                             000000000000000                                                                                                                                                     01418 G000000504571 0000000000151.47     03000 01000                  
01665400260740001P16759067590000000215480088880000001010000000000000000    43872230932              2000000000000000000000000              000000000000                    0000000000000000000000000                    000000000000                                                                                                                                                                                                                                                                                                                                                                                                                                                                                        
01665410260740006DT67590675900000002154800888800000010180088873011003011900017909330011120230000005150001123000000001308040372249XXXXX1001                          NY 4 07N004264297938308N840000000051500          01DNDRIP DROP DISTRO LLC     229960    AM84000000051500 N  519971004114                            000000000+6004S0S00140 258     11244                     000000000                   0000000000000.00 0000000.00   0000000.00                             000000000000000 61248972736759675900000002154 DRIP DROP DISTRO LLC     1445 W COMMERCE AVE SUITE2087248209      83705     TROY@DRIPDROPDISTRO.COM                   01418  000000000000 0000000000009.89     01900 00000                  
01665420260740007BH6759067590000000288180088880000090170111202301123000000000043445    0000090001160010N8008886759C01122023                                                                                                                                                                                                                                                                                                                                                                                                                                                                                                                                                                                                 
01665430260740008DT67590675900000002881800888800000010180088824001193011900011600012011120230000000395001123000000000043445422921XXXXXX3430       VS11    0001111   NYV1 A E463011619392513N8400000000039504FNT00    05DNHAPPY HIPPIE             043940    VD84000000003950 N  549976487134                            000000000+                F DF 00381                     000000000  N000000000       0000000000000.00 0000000.00   0000000.00                             000000000000000                                                                                                                                                     01418 A000000000000 0000000000000.47     00800 01500                  
01665440260740009DT67590675900000002881800888800000010180088877287283011900011600022011120230000000148101123000000000043445548974XXXXXX2406       MS02WI09          NY 1 0 AMPA72M8130111  N840000000001481          07DNHAPPY HIPPIE             031035    MD84000000001481 N  549976487134                            000000000+M10101M0034C    MPA  00505                     000000000  N                0000000000000.00 0000000.00   0000000.00                             000000000000000                                                                                                                                                   A101418  000000000000 0000000000000.27     01550 00400                  
01665450260740010DT67590675900000002881800888800000010180088824001193011900011600038011120230000000246801123000000000043445474487XXXXXX7148       VS11    0001111   NYV1 A E583011769230394N84000000000246836RF00    05DNHAPPY HIPPIE             102629    VD84000000002468 N  549976487134                            000000000+                F DF 10433                     000000000  Y000000000 338   0000000000000.00 0000000.00   0000000.00                             000000000000000                                                                                                                                                     01418 A000000000000 0000000000000.23     00050 02200                  
01665460260740011DT67590675900000002881800888800000010180088824001193011900011600046011120230000000246801123000000000043445419090XXXXXX5029       VS11    0001111   NYV1 A E303011770506898N840000000002468T9GQ00    05DNHAPPY HIPPIE             668304    VD84000000002468 N  549976487134                            000000000+                F DF 00381                     000000000  N000000000       0000000000000.00 0000000.00   0000000.00                             000000000000000                                                                                                                                                     01418 A000000000000 0000000000000.35     00800 01500                  
01665470260740012DT67590675900000002881800888800000010180088824001193011900011600053011120230000000448501123000000000043445415978XXXXXX9559       VS11    0001111   NYV1 A E383011772444579N840000000004485WXFS00    05DNHAPPY HIPPIE             034055    VD84000000004485 N  549976487134                            000000000+                F DF 10433                     000000000  Y000000000 338   0000000000000.00 0000000.00   0000000.00                             000000000000000                                                                                                                                                     01418 A000000000000 0000000000000.24     00050 02200                  
01665480260740013DT67590675900000002881800888800000010180088824001193011900011600061011120230000000690001123000000000043445473336XXXXXX5051       VS11    0001111   NYV1 A E463011784942720N840000000006900KMZL00    05DNHAPPY HIPPIE             044814    VD84000000006900 N  549976487134                            000000000+                F DF 00381                     000000000  N000000000       0000000000000.00 0000000.00   0000000.00                             000000000000000                                                                                                                                                     01418 A000000000000 0000000000000.70     00800 01500                  
01665490260740014DT67590675900000002881800888800000010180088877287283011900011600071011120230000000473901123000000000043445511953XXXXXX1396       MS02WI09          NY 1 0 AMDJISGDOQ0111  N840000000004739          05DNHAPPY HIPPIE             086744    MD84000000004739 N  549976487134                            000000000+M10101C5434C    MDJ  00402                     000000000  N                0000000000000.00 0000000.00   0000000.00                             000000000000000                                                                                                                                                   B101418  000000000000 0000000000000.65     01050 01500                  
01665500260740015DT67590675900000002881800888800000010180088877287283011900011600089011120230000001240001123000000000043445525363XXXXXX4979       MS02WI09          NY 1 0 AMWEB5PGOQ0111  N840000000012400          05DNHAPPY HIPPIE             11398Z    MC84000000012400 N  549976487134                            000000000+M10101C0034C    MWE  00743                     000000000  N                0000000000000.00 0000000.00   0000000.00                             000000000000000                                                                                                                                                   B101418  000000000000 0000000000002.89     02300 00400                  
01665510260740016DT67590675900000002881800888800000010180088824001193011900011600095011120230000000148101123000000000043445421783XXXXXX1459       VK04VS111111111   NYV1 A E303011821624487N8400000000014816T9B00    05DNHAPPY HIPPIE             066221    VS84000000001481 N  549976487134                            000000000+                A CA 12053                     000000000  N000000000 450   0000000000000.00 0000000.00   0000000.00                             000000000000000                                                                                                                                                     01418 F000000000000 0000000000000.28     01900 00000                  
01665520260740017DT67590675900000002881800888800000010180088877287283011900011600105011120230000000307301123000000000043445511953XXXXXX9431       MS02WI09          NY 1 0 AMDJQ8DPOQ0111  N840000000003073          05DNHAPPY HIPPIE             065754    MD84000000003073 N  549976487134                            000000000+M10101C5434C    MDJ  00402                     000000000  N                0000000000000.00 0000000.00   0000000.00                             000000000000000                                                                                                                                                   B101418  000000000000 0000000000000.47     01050 01500                  
01665530260740018BH6759067590000000288180088880000090170111202301123000000000126726    0000090001160026N8008886759C01122023                                                                                                                                                                                                                                                                                                                                                                                                                                                                                                                                                                                                 
01665540260740019DT67590675900000002881800888800000010180088877287283011900011600014011120230000000987801123000000000126726527368XXXXXX3493       ME03MS02WI09      NY 1 0 AMPG47ZX120111  N840000000009878          01DNHAPPY HIPPIE             307615    MD84000000009878 N  549976487158                            000000000+M1010115434C    MPG  09898                     000000000  N                0000000000000.00 0000000.00   0000000.00                             000000000000000                                                                                                                                                   E101418  000000000000 0000000000001.94     01760 02000                  
01665550260740020DT67590675900000002881800888800000010180088824001193011900011600020011120230000000472701123000000000126726443264XXXXXX1793       VS11    0001111   NYV1 A E583011549707543N840000000004727N93700    05DNHAPPY HIPPIE             028993    VD84000000004727 N  549976487158                            000000000+                F DF 10433                     000000000  Y000000000 338   0000000000000.00 0000000.00   0000000.00                             000000000000000                                                                                                                                                     01418 A000000000000 0000000000000.24     00050 02200                  
01665560260740021DT67590675900000002881800888800000010180088824001193011900011600038011120230000000167801123000000000126726443047XXXXXX8619       VS11    0001111   NYV1 A E383011565439031N84000000000167895ZC00    05DNHAPPY HIPPIE             142773    VD84000000001678 N  549976487158                            000000000+                F DF 10433                     000000000  Y000000000 338   0000000000000.00 0000000.00   0000000.00                             000000000000000                                                                                                                                                     01418 A000000000000 0000000000000.23     00050 02200                  
01665570260740022DT67590675900000002881800888800000010180088873011003011900011600042011120230000000236801123000000000126726371554XXXXX3006                          NY 1 0 N004260799034307N840000000002368          05DNHAPPY HIPPIE             820727    AM84000000002368 N  549976487158                            000000000+51010155434C 258     11261                     000000000                   0000000000000.00 0000000.00   0000000.00                             000000000000000 61248972086759675900000002881 HAPPY HIPPIE             832 PARKWAY              8656540830      37862     HAPPYHIPPIE832@GMAIL.COM                  01418  000000000000 0000000000000.48     01600 00000                  
01665580260740023DT67590675900000002881800888800000010180088877287283011900011600055011120230000000407501123000000000126726542432XXXXXX9219       MS02WI09          NY 2 0 AMDJ0YZI120111  N840000000004075          05DNHAPPY HIPPIE             872495    MD84000000004075 N  549976487158                            000000000+M10101C1334C    MDJ  10815                     000000000  1                0000000000000.00 0000000.00   0000000.00                             000000000000000                                                                                                                                                   B101418  000000000000 0000000000000.24     00050 02200                  
01665590260740024DT67590675900000002881800888800000010180088824001193011900011600061011120230000000395001123000000000126726419090XXXXXX3821       VS11    0001111   NYV1 A E583011588706312N840000000003950KGJV00    05DNHAPPY HIPPIE             658552    VD84000000003950 N  549976487158                            000000000+                F DF 00381                     000000000  N000000000       0000000000000.00 0000000.00   0000000.00                             000000000000000                                                                                                                                                     01418 A000000000000 0000000000000.47     00800 01500                  
01665600260740025DT67590675900000002881800888800000010180088877287283011900011600071011120230000000526701123000000000126726527483XXXXXX9905       MS02WI09          NY 1 0 AMDJ5HLX130111  N840000000005267          07DNHAPPY HIPPIE             E4829D    MD84000000005267 N  549976487158                            000000000+M10101M1134C    MDJ  00402                     000000000  N                0000000000000.00 0000000.00   0000000.00                             000000000000000                                                                                                                                                   A101418  000000000000 0000000000000.70     01050 01500                  
01665610260740026DT67590675900000002881800888800000010180088877287283011900011600089011120230000000395001123000000000126726524366XXXXXX9941       MS02WI09          NY 1 0 AMCW1O8J120111  N840000000003950          05DNHAPPY HIPPIE             01122T    MC84000000003950 N  549976487158                            000000000+M10101C5434C    MCW  02188                     000000000  N                0000000000000.00 0000000.00   0000000.00                             000000000000000                                                                                                                                                   B101418  000000000000 0000000000000.95     02300 00400                  
01665620260740027DT67590675900000002881800888800000010180088877287283011900011600097011120230000000131701123000000000126726527483XXXXXX9905       MS02WI09          NY 1 0 AMDJVOW6130111  N840000000001317          07DNHAPPY HIPPIE             C9DEC9    MD84000000001317 N  549976487158                            000000000+M10101M0034C    MDJ  00505                     000000000  N                0000000000000.00 0000000.00   0000000.00                             000000000000000                                                                                                                                                   A101418  000000000000 0000000000000.24     01550 00400                  
01665630260740028DT67590675900000002881800888800000010180088824001193011900011600103011120230000000811501123000000000126726486796XXXXXX1706       VS11    0001111   NYV1 A E463011600406508N840000000008115P4TF00    05DNHAPPY HIPPIE             004011    VD84000000008115 N  549976487158                            000000000+                F DF 10433                     000000000  Y000000000 338   0000000000000.00 0000000.00   0000000.00                             000000000000000                                                                                                                                                     01418 A000000000000 0000000000000.26     00050 02200                  
01665640260740029DT67590675900000002881800888800000010180088824001193011900011600111011120230000000533201123000000000126726483950XXXXXX4838       VS11    0001111   NYV1 A E583011601927764N840000000005332M9VK00    05DNHAPPY HIPPIE             09371D    VS84000000005332 N  549976487158                            000000000+                D CD 12113                     000000000  N000000000 499   0000000000000.00 0000000.00   0000000.00                             000000000000000                                                                                                                                                     01418 A000000000000 0000000000001.22     02100 01000                  
01665650260740030DT67590675900000002881800888800000010180088824001193011900011600129011120230000000295001123000000000126726415978XXXXXX3505       VS11    0001111   NYV1 A E583011612298251N840000000002950G9SS00    05DNHAPPY HIPPIE             060092    VD84000000002950 N  549976487158                            000000000+                F DF 10433                     000000000  Y000000000 338   0000000000000.00 0000000.00   0000000.00                             000000000000000                                                                                                                                                     01418 A000000000000 0000000000000.23     00050 02200                  
01665660260740031DT67590675900000002881800888800000010180088877287283011900011600139011120230000000158001123000000000126726511558XXXXXX0276       MS02WI09          NY 2 0 AMPV57PC130111  N840000000001580          05DNHAPPY HIPPIE             OBECAO    MD84000000001580 N  549976487158                            000000000+M10101C1334C    MPV  11964                     000000000  N                0000000000000.00 0000000.00   0000000.00                             000000000000000                                                                                                                                                     01418  000000000000 0000000000000.33     01150 01500                  
01665670260740032DT67590675900000002881800888800000010180088824001193011900011600145011120230000000039301123000000000126726480639XXXXXX0512       VK04VS111111111   NYV1 A E463011628249245N840000000000393TMQV00    05DNHAPPY HIPPIE             382697    VD84000000000393 N  549976487158                            000000000+                F DF 00451                     000000000  N000000000 214   0000000000000.00 0000000.00   0000000.00                             000000000000000                                                                                                                                                     01418 F000000000000 0000000000000.10     01550 00400                  
01665680260740033DT67590675900000002881800888800000010180088824001193011900011600152011120230000000460701123000000000126726442756XXXXXX9461       VS11    0001111   NYV1 A E303011631149812N840000000004607ZRNJ00    05DNHAPPY HIPPIE             053112    VD84000000004607 N  549976487158                            000000000+                F DF 10433                     000000000  Y000000000 338   0000000000000.00 0000000.00   0000000.00                             000000000000000                                                                                                                                                     01418 A000000000000 0000000000000.24     00050 02200                  
01665690260740034DT67590675900000002881800888800000010180088824001193011900011600160011120230000000888001123000000000126726419090XXXXXX6158       VS11    0001111   NYV1 A E463011647434281N8400000000088805QFJ00    05DNHAPPY HIPPIE             661749    VD84000000008880 N  549976487158                            000000000+                F DF 00381                     000000000  N000000000       0000000000000.00 0000000.00   0000000.00                             000000000000000                                                                                                                                                     01418 A000000000000 0000000000000.86     00800 01500                  
01665700260740035DT67590675900000002881800888800000010180088877287283011900011600170011120230000000395001123000000000126726542418XXXXXX5030       MS02WI09          NY 1 0 AMWEKSQI2N0111  N840000000003950          05DNHAPPY HIPPIE             46250P    MC84000000003950 N  549976487158                            000000000+M10101C5434C    MWE  00743                     000000000  N                0000000000000.00 0000000.00   0000000.00                             000000000000000                                                                                                                                                   B101418  000000000000 0000000000000.95     02300 00400                  
01665710260740036DT67590675900000002881800888800000010180088877287283011900011600188011120230000000493701123000000000126726517805XXXXXX1704       MS02WI09          NY 1 0 AMPLDP37OQ0111  N840000000004937          05DNHAPPY HIPPIE             05581B    MC84000000004937 N  549976487158                            000000000+M10101C5434C    MPL  00364                     000000000  N                0000000000000.00 0000000.00   0000000.00                             000000000000000                                                                                                                                                   B101418  000000000000 0000000000000.93     01800 00400                  
01665720260740037DT67590675900000002881800888800000010180088824001193011900011600194011120230000000493801123000000000126726415978XXXXXX1455       VS11    0001111   NYV1 A E383011670086424N8400000000049385BMQ00    05DNHAPPY HIPPIE             014626    VD84000000004938 N  549976487158                            000000000+                F DF 10433                     000000000  Y000000000 338   0000000000000.00 0000000.00   0000000.00                             000000000000000                                                                                                                                                     01418 A000000000000 0000000000000.24     00050 02200                  
01665730260740038DT67590675900000002881800888800000010180088824001193011900011600202011120230000000325601123000000000126726463405XXXXXX3282       VS11    0001111   NYV1 A E303011692843583N840000000003256LK7W00    05DNHAPPY HIPPIE             017495    VD84000000003256 N  549976487158                            000000000+                F DF 10433                     000000000  Y000000000 338   0000000000000.00 0000000.00   0000000.00                             000000000000000                                                                                                                                                     01418 A000000000000 0000000000000.24     00050 02200                  
01665740260740039DT67590675900000002881800888800000010180088877287283011900011600212011120230000000691301123000000000126726517805XXXXXX7988       MS02WI09          NY 1 0 AMPLX9HSOP0111  N840000000006913          05DNHAPPY HIPPIE             00403B    MC84000000006913 N  549976487158                            000000000+M10101C5434C    MPL  00364                     000000000  N                0000000000000.00 0000000.00   0000000.00                             000000000000000                                                                                                                                                   B101418  000000000000 0000000000001.28     01800 00400                  
01665750260740040DT67590675900000002881800888800000010180088824001193011900011600228011120230000000087601123000000000126726480639XXXXXX2034       VK04VS111111111   NYV1 A E463011724068649N840000000000876SF3C00    05DNHAPPY HIPPIE             387231    VD84000000000876 N  549976487158                            000000000+                F DF 00451                     000000000  N000000000 214   0000000000000.00 0000000.00   0000000.00                             000000000000000                                                                                                                                                     01418 F000000000000 0000000000000.18     01550 00400                  
01665760260740041DT67590675900000002881800888800000010180088824001193011900011600236011120230000000740601123000000000126726408039XXXXXX1487       VS11    0001111   NYV1 A E303011728159690N840000000007406PX8L00    07DNHAPPY HIPPIE             411131    VS84000000007406 N  549976487158                            000000000+                D CD 12113                     000000000  N000000000 499   0000000000000.00 0000000.00   0000000.00                             000000000000000                                                                                                                                                     01418 A000000000000 0000000000001.66     02100 01000                  
01665770260740042DT67590675900000002881800888800000010180088824001193011900011600244011120230000000246801123000000000126726419090XXXXXX6209       VS11    0001111   NYV1 A E583011730676786N840000000002468HKRZ00    05DNHAPPY HIPPIE             666093    VD84000000002468 N  549976487158                            000000000+                F DF 00381                     000000000  N000000000       0000000000000.00 0000000.00   0000000.00                             000000000000000                                                                                                                                                     01418 A000000000000 0000000000000.35     00800 01500                  
01665780260740043DT67590675900000002881800888800000010180088824001193011900011600251011120230000000316101123000000000126726415978XXXXXX3096       VS11    0001111   NYV1 A E303011748951741N8400000000031615R6H00    05DNHAPPY HIPPIE             035434    VD84000000003161 N  549976487158                            000000000+                F DF 10433                     000000000  Y000000000 338   0000000000000.00 0000000.00   0000000.00                             000000000000000                                                                                                                                                     01418 A000000000000 0000000000000.24     00050 02200                  
01665790260740044DT67590675900000002881800888800000010180088824001193011900011600269011120230000001975401123000000000126726480639XXXXXX6687       VS11    0001111   NYV1 A E383011756540984N840000000019754GCJC00    05DNHAPPY HIPPIE             388783    VD84000000019754 N  549976487158                            000000000+                F DF 00381                     000000000  N000000000       0000000000000.00 0000000.00   0000000.00                             000000000000000                                                                                                                                                     01418 A000000000000 0000000000001.73     00800 01500                  
