00004050291930002BH6759067590000000370780088880000090170112202301223000000000042513    0000090001150106Y8008886759C01132023                                                                                                                                                                                                                                                                                                                                                                                                                                                                                                                                                                                                 
00004060291930003DT67590675900000003707800888800000010180088824001193012900011500963011120230000000599801223000000000042513414718XXXXXX7002               2111111   NYV4 A7W583012139782111N840000000005998CRNM00    01DNMR HEMP FLOWER           011667    VS84000000005998 NP1549976053336   84097                    000000000+                D CD 12109                     000000000  N000000000 498   0000000000000.00 0000000.00   0000000.00                             000000000000000                                                                                                                                                     01424 G000000005998 0000000000001.60     02500 01000                  
00004070291930001P16759067590000000370780088880000001010000000000000000                             2000000000000000000000000              000000000000                    0000000000000000000000000                    000000000000                                                                                                                                                                                                                                                                                                                                                                                                                                                                                        
00004080291930004DT67590675900000003707800888800000010180088887287283012900011500980011120230000001000001223000000000042513518725XXXXXX8153       ME03KE06MS02      NY 4607AMWEGGX2C90111  N840000000010000          81DNMR HEMP FLOWER           05140Z    MC84000000010000 N  549976053336   84098                    000000000+600450S00130    MWE  00737                     000000000  N                0000000000000.00 0000000.00   0000000.00                             000000000000000                                                                                                                                                   U001424  000000000000 0000000000002.70     02600 01000                  
00004090291930005DT67590675900000003707800888800000010180088887287283012900011501038011220230000000349801223000000000042513515307XXXXXX9956       ME03KE06PT01      NY 4607AMCWFB4PZE0112  N840000000003498          81DNMR HEMP FLOWER           03585Z    MC84000000003498 N  549976053336   84114                    000000000+600450S00130    MCW  00642                     000000000  N                0000000000000.00 0000000.00   0000000.00                             000000000000000                                                                                                                                                   U001424  000000000000 0000000000000.87     02200 01000                  
00004100291930006DT67590675900000003707800888800000010180088876509753012900011501043011220230000000649801223000000000042513601101XXXXXX5251   BA00                  NY 4 07N863009854821399N840000000006498    00    01DNMR HEMP FLOWER           01209B    DZ84000000006498 N  549976053336070                         000000000+1015104910600   DMCDI01012403059  084442000000 000000000  0          124   0000000000000.00 0000000.00   0000000.00                             000000000000000                                                                                                                                                     01424  000000000000 0000000000001.74     02450 01500                  
00004110291930007DT67590675900000003707800888800000010680088887287283012900011501053011220230000000060001223000000000042513515307XXXXXX9956                         NY 4607AMCWW0SIZD0112  N840000000000600          81CNMR HEMP FLOWER           084397    MC84000000000600 N  549976053336   84114                    000000000+600450S00130    MCW  00565                     000000000  N                0000000000000.00 0000000.00   0000000.00                             000000000000000                                                                                                                                                     01424  000000000000-0000000000000.11     01750 00000                  
00004120291930008DT67590675900000003707800888800000010180088824001193012900011501060011220230000001711901223000000000042513460516XXXXXX3975               2111111   NYV4 A7W383012819657294N840000000017119TSW900    01DNMR HEMP FLOWER           64605B    VS84000000017119 NP1549976053336   84144                    000000000+                B CB 12107                     000000000  N000000000 494   0000000000000.00 0000000.00   0000000.00                             000000000000000                                                                                                                                                     01424 G000000017119 0000000000003.59     02040 01000                  
00004130291930001P16759067590000000370780088880000001010000000000000000                             2000000000000000000000000              000000000000                    0000000000000000000000000                    000000000000                                                                                                                                                                                                                                                                                                                                                                                                                                                                                        
00004140291930009BH6759067590000000288180088880000090170112202301223000000000020281    0000090001400089Y8008886759C01132023                                                                                                                                                                                                                                                                                                                                                                                                                                                                                                                                                                                                 
00004150291930010DT67590675900000002881800888800000010180088824001193012900014000888011120230000001699701223000000000020281414776XXXXXX3147               2111111   NYV4 A7W583012123346402N840000000016997NHB600    01DNHAPPY HIPPIE             121152    VS84000000016997 NP1549976044904   1905                     000000000+                D CD 12109                     000000000  N000000000 498   0000000000000.00 0000000.00   0000000.00                             000000000000000                                                                                                                                                     01424 G000000016997 0000000000004.35     02500 01000                  
00004160291930001P16759067590000000288180088880000001010000000000000000                             2000000000000000000000000              000000000000                    0000000000000000000000000                    000000000000                                                                                                                                                                                                                                                                                                                                                                                                                                                                                        
00004170291930011DT67590675900000002881800888800000010180088824001193012900014000896011220230000000328401223000000000020281435544XXXXXX3632               2111111   NYV4 A7W383012563177915N840000000003284TVWK00    01DNHAPPY HIPPIE             089133    VD84000000003284 NP1549976044904   1906                     000000000+                F DF 10420                     000000000  Y000000000 338   0000000000000.00 0000000.00   0000000.00                             000000000000000                                                                                                                                                     01424 G000000003284 0000000000000.24     00050 02200                  
00004180291930001P16759067590000000288180088880000001010000000000000000                             2000000000000000000000000              000000000000                    0000000000000000000000000                    000000000000                                                                                                                                                                                                                                                                                                                                                                                                                                                                                        
