00004830516430002BH6759067590000000288180088880000090170322202308123000000000011989    0000090001820161Y8008886759C03232023                                                                                                                                                                                                                                                                                                                                                                                                                                                                                                                                                                                                 
00004840516430003DT67590675900000002881800888800000010180088824001193081900018201611032220230000001198908123000000000011989412781XXXXXX0262               2111111   NYV4 A7W463081418815650N840000000011989929C00    01DNHAPPY HIPPIE             022953    VS84000000011989 NP1549976044904   1979                     000000000+                B CB 12107                     000000000  N000000000 494   0000000000000.00 0000000.00   0000000.00                             000000000000000                                                                                                                                                     01424 G000000011989 0000000000002.55     02040 01000                  
00004850516430001P16759067590000000288180088880000001010000000000000000                             2000000000000000000000000              000000000000                    0000000000000000000000000                    000000000000                                                                                                                                                                                                                                                                                                                                                                                                                                                                                        
00004860516430004BH6759067590000001516480088880000090170322202308123000000005350674    0000090001224318Y8008886759C03232023                                                                                                                                                                                                                                                                                                                                                                                                                                                                                                                                                                                                 
00004870516430005DT67590675900000015164800888800000010180088887287283081900012222416032120230000001194808123000000005350674515678XXXXXX9380       ME03KE06MS02      NY 4607AMWEKQGIBG0318  N840000000011948          81DNKETOFUSION833-923-3587   05146Z    MC84000000011948 N  599977360677   0CAB2BF4F9T2D5898043612  000000000+600450S00130    MWE  00737                     000000000  N                0000000000000.00 0000000.00   0000000.00                             000000000000000                                                                                                                                                   U001424  000000000000 0000000000003.21     02600 01000                  
00004880516430006DT67590675900000015164800888800000010180088824001193081900012234253032120230000002255008123000000005350674409451XXXXXX5935               2111111   NYV4 A7W303081002436046N8400000000225505PXS00    01DNKETOFUSION833-923-3587   911240    VS84000000022550 NP1599977360677   F185E9E055TE2AC211CEFF4  000000000+                D CD 12109                     000000000  N000000000 498   0000000000000.00 0000000.00   0000000.00                             000000000000000                                                                                                                                                     01424 G000000022550 0000000000005.74     02500 01000                  
00004890516430001P16759067590000001516480088880000001010000000000000000                             2000000000000000000000000              000000000000                    0000000000000000000000000                    000000000000                                                                                                                                                                                                                                                                                                                                                                                                                                                                                        
00004900516430007DT67590675900000015164800888800000010180088824001193081900012234261032120230000001799108123000000005350674414718XXXXXX6756               2111111   NYV4 A7W463081008074459N840000000017991MQPT00    01DNKETOFUSION833-923-3587   021555    VS84000000017991 NP1599977360677   5C8488194AT3076CD1632AC  000000000+                D CD 12109                     000000000  N000000000 498   0000000000000.00 0000000.00   0000000.00                             000000000000000                                                                                                                                                     01424 G000000017991 0000000000004.60     02500 01000                  
00004910516430001P16759067590000001516480088880000001010000000000000000                             2000000000000000000000000              000000000000                    0000000000000000000000000                    000000000000                                                                                                                                                                                                                                                                                                                                                                                                                                                                                        
00004920516430008DT67590675900000015164800888800000010180088887287283081900012234270032120230000001987008123000000005350674545800XXXXXX8222       ME03KE06MS02      NY 4607AMPLS2FBUS0321  N840000000019870          81DNKETOFUSION833-923-3587   02137B    MC84000000019870 N  599977360677   D789157182TA91440E645CC  000000000+600450S00130    MPL  00580                     000000000  N                0000000000000.00 0000000.00   0000000.00                             000000000000000                                                                                                                                                   U001424  000000000000 0000000000004.27     02100 01000                  
00004930516430009DT67590675900000015164800888800000010180088824001193081900012234287032120230000000654808123000000005350674414718XXXXXX6756               2111111   NYV4 A7W463081008703784N840000000006548RK6K00    01DNKETOFUSION833-923-3587   021792    VS84000000006548 NP1599977360677   5C8488194AT256F9E664462  000000000+                D CD 12109                     000000000  N000000000 498   0000000000000.00 0000000.00   0000000.00                             000000000000000                                                                                                                                                     01424 G000000006548 0000000000001.74     02500 01000                  
00004940516430001P16759067590000001516480088880000001010000000000000000                             2000000000000000000000000              000000000000                    0000000000000000000000000                    000000000000                                                                                                                                                                                                                                                                                                                                                                                                                                                                                        
00004950516430010DT67590675900000015164800888800000010180088824001193081900012234303032120230000001394808123000000005350674468426XXXXXX2057               2111111   NYV4 A7W383081008737511N8400000000139486FB900    01DNKETOFUSION833-923-3587   230860    VD84000000013948 NP1599977360677   AEC4D82B44TF065FD22EDAE  000000000+                F DF 00415                     000000000  N000000000       0000000000000.00 0000000.00   0000000.00                             000000000000000                                                                                                                                                     01424 G000000013948 0000000000002.45     01650 01500                  
00004960516430001P16759067590000001516480088880000001010000000000000000                             2000000000000000000000000              000000000000                    0000000000000000000000000                    000000000000                                                                                                                                                                                                                                                                                                                                                                                                                                                                                        
00004970516430011DT67590675900000015164800888800000010180088824001193081900012234311032120230000000519008123000000005350674414718XXXXXX6756               2111111   NYV4 A7W303081008857488N840000000005190TFBH00    01DNKETOFUSION833-923-3587   021190    VS84000000005190 NP1599977360677   5C8488194AT001994835C37  000000000+                D CD 12109                     000000000  N000000000 498   0000000000000.00 0000000.00   0000000.00                             000000000000000                                                                                                                                                     01424 G000000005190 0000000000001.40     02500 01000                  
00004980516430001P16759067590000001516480088880000001010000000000000000                             2000000000000000000000000              000000000000                    0000000000000000000000000                    000000000000                                                                                                                                                                                                                                                                                                                                                                                                                                                                                        
00004990516430012DT67590675900000015164800888800000010180088887287283081900012234346032120230000001987008123000000005350674546616XXXXXX6270       ME03KE06PT01      NY 4607AMCWN2UQTY0321  N840000000019870          81DNKETOFUSION833-923-3587   93852Z    MC84000000019870 N  599977360677   89376256F0T729CF2B640F3  000000000+600450S00130    MCW  00642                     000000000  N                0000000000000.00 0000000.00   0000000.00                             000000000000000                                                                                                                                                   U001424  000000000000 0000000000004.47     02200 01000                  
00005000516430013DT67590675900000015164800888800000010180088824001193081900012234352032120230000001987008123000000005350674413022XXXXXX5685               2111111   NYV4 A7W463081014064048N840000000019870JZNN00    01DNKETOFUSION833-923-3587   835387    VD84000000019870 NP1599977360677   1E62129F25TDF009C37CDEB  000000000+                F DF 00415                     000000000  N000000000       0000000000000.00 0000000.00   0000000.00                             000000000000000                                                                                                                                                     01424 G000000019870 0000000000003.43     01650 01500                  
00005010516430001P16759067590000001516480088880000001010000000000000000                             2000000000000000000000000              000000000000                    0000000000000000000000000                    000000000000                                                                                                                                                                                                                                                                                                                                                                                                                                                                                        
00005020516430014DT67590675900000015164800888800000010180088824001193081900012234360032120230000000654808123000000005350674413022XXXXXX5685               2111111   NYV4 A7W583081014242650N840000000006548ST9R00    01DNKETOFUSION833-923-3587   835545    VD84000000006548 NP1599977360677   1E62129F25T7A446E0FB770  000000000+                F DF 00415                     000000000  N000000000       0000000000000.00 0000000.00   0000000.00                             000000000000000                                                                                                                                                     01424 G000000006548 0000000000001.23     01650 01500                  
00005030516430001P16759067590000001516480088880000001010000000000000000                             2000000000000000000000000              000000000000                    0000000000000000000000000                    000000000000                                                                                                                                                                                                                                                                                                                                                                                                                                                                                        
00005040516430015DT67590675900000015164800888800000010180088887287283081900012234379032120230000001987008123000000005350674515593XXXXXX5166       ME03KE06MS02      NY 4607AMWEN7ESTY0321  N840000000019870          81DNKETOFUSION833-923-3587   09396P    MC84000000019870 N  599977360677   326EFD1A01TD4E15F30DC3B  000000000+600450S00130    MWE  00737                     000000000  N                0000000000000.00 0000000.00   0000000.00                             000000000000000                                                                                                                                                   U001424  000000000000 0000000000005.27     02600 01000                  
00005050516430016DT67590675900000015164800888800000010180088887287283081900012234395032120230000001987008123000000005350674552433XXXXXX3415       ME03KE06PT01      NY 4607AMCWNAGDJU0321  N840000000019870          81DNKETOFUSION833-923-3587   09725S    MC84000000019870 N  599977360677   83C0268902TCAF27B835568  000000000+600450S00130    MCW  02182                     000000000  N                0000000000000.00 0000000.00   0000000.00                             000000000000000                                                                                                                                                   U001424  000000000000 0000000000005.27     02600 01000                  
00005060516430017DT67590675900000015164800888800000010180088887287283081900012234403032120230000002487008123000000005350674521333XXXXXX6668       ME03KE06MS02      NY 4607AMWELII9TC0321  N840000000024870          81DNKETOFUSION833-923-3587   02192P    MC84000000024870 N  599977360677   A6E58D4699TEDA397C418F9  000000000+600450S00130    MWE  00737                     000000000  N                0000000000000.00 0000000.00   0000000.00                             000000000000000                                                                                                                                                   U001424  000000000000 0000000000006.57     02600 01000                  
00005070516430018DT67590675900000015164800888800000010180088824001193081900012234451032120230000000542808123000000005350674407943XXXXXX9347               2111111   NYV4 A7W303081019979614N8400000000054288XVQ00    01DNKETOFUSION833-923-3587   218653    VD84000000005428 NP1599977360677   65F1CA5475T7B38818781A7  000000000+                F PF 08175                     000000000  N000000000       0000000000000.00 0000000.00   0000000.00                             000000000000000                                                                                                                                                     01424 G000000005428 0000000000001.15     01750 02000                  
00005080516430001P16759067590000001516480088880000001010000000000000000                             2000000000000000000000000              000000000000                    0000000000000000000000000                    000000000000                                                                                                                                                                                                                                                                                                                                                                                                                                                                                        
00005090516430019DT67590675900000015164800888800000010180088887287283081900012234478032120230000002487008123000000005350674514399XXXXXX6955       ME03KE06MS02      NY 4607AMDJCQXVIJ0321  N840000000024870          81DNKETOFUSION833-923-3587   199836    MD84000000024870 N  599977360677   324FA3A415TFB6C7BBC8B19  000000000+600450S00130    MDJ  00401                     000000000  N                0000000000000.00 0000000.00   0000000.00                             000000000000000                                                                                                                                                   U001424  000000000000 0000000000004.25     01650 01500                  
00005100516430020DT67590675900000015164800888800000010180088824001193081900012234485032120230000001987008123000000005350674460223XXXXXX7418               2111111   NYV4 A7W463081022189367N840000000019870JVQB00    01DNKETOFUSION833-923-3587   739217    VD84000000019870 NP1599977360677   2A08EA2C28TFD1147486C66  000000000+                F DF 00415                     000000000  N000000000       0000000000000.00 0000000.00   0000000.00                             000000000000000                                                                                                                                                     01424 G000000019870 0000000000003.43     01650 01500                  
00005110516430001P16759067590000001516480088880000001010000000000000000                             2000000000000000000000000              000000000000                    0000000000000000000000000                    000000000000                                                                                                                                                                                                                                                                                                                                                                                                                                                                                        
00005120516430021DT67590675900000015164800888800000010180088824001193081900012234519032120230000000654808123000000005350674460223XXXXXX7418               2111111   NYV4 A7W303081023669787N84000000000654837SR00    01DNKETOFUSION833-923-3587   740059    VD84000000006548 NP1599977360677   2A08EA2C28T1E1C381E4CD5  000000000+                F DF 00415                     000000000  N000000000       0000000000000.00 0000000.00   0000000.00                             000000000000000                                                                                                                                                     01424 G000000006548 0000000000001.23     01650 01500                  
00005130516430001P16759067590000001516480088880000001010000000000000000                             2000000000000000000000000              000000000000                    0000000000000000000000000                    000000000000                                                                                                                                                                                                                                                                                                                                                                                                                                                                                        
00005140516430022DT67590675900000015164800888800000010180088887287283081900012234536032120230000001394808123000000005350674521333XXXXXX5683       ME03KE06MS02      NY 4607AMPLTHFNUS0321  N840000000013948          81DNKETOFUSION833-923-3587   02142B    MC84000000013948 N  599977360677   616EA252C7TEE725560FF11  000000000+600450S00130    MPL  00580                     000000000  N                0000000000000.00 0000000.00   0000000.00                             000000000000000                                                                                                                                                   U001424  000000000000 0000000000003.03     02100 01000                  
00005150516430023DT67590675900000015164800888800000010180088824001193081900012234543032120230000002487008123000000005350674410039XXXXXX1054               2111111   NYV4 A7W463081025808631N84000000002487079ML00    01DNKETOFUSION833-923-3587   25970D    VS84000000024870 NP1599977360677   1DBF731173T3F6C641FF7DC  000000000+                D CD 12109                     000000000  N000000000 498   0000000000000.00 0000000.00   0000000.00                             000000000000000                                                                                                                                                     01424 G000000024870 0000000000006.32     02500 01000                  
00005160516430001P16759067590000001516480088880000001010000000000000000                             2000000000000000000000000              000000000000                    0000000000000000000000000                    000000000000                                                                                                                                                                                                                                                                                                                                                                                                                                                                                        
00005170516430024DT67590675900000015164800888800000010180088824001193081900012234550032120230000001987008123000000005350674423568XXXXXX0351               2111111   NYV4 A7W463081025847492N840000000019870P9SL00    01DNKETOFUSION833-923-3587   074304    VD84000000019870 NP1599977360677   083C5BEF3CT48D57B8B3D92  000000000+                F DF 10420                     000000000  Y000000000 338   0000000000000.00 0000000.00   0000000.00                             000000000000000                                                                                                                                                     01424 G000000019870 0000000000000.32     00050 02200                  
00005180516430001P16759067590000001516480088880000001010000000000000000                             2000000000000000000000000              000000000000                    0000000000000000000000000                    000000000000                                                                                                                                                                                                                                                                                                                                                                                                                                                                                        
00005190516430025DT67590675900000015164800888800000010180088824001193081900012234568032120230000000519008123000000005350674460223XXXXXX7418               2111111   NYV4 A7W463081025976011N840000000005190TZHD00    01DNKETOFUSION833-923-3587   741351    VD84000000005190 NP1599977360677   2A08EA2C28T58EF7C712690  000000000+                F DF 00415                     000000000  N000000000       0000000000000.00 0000000.00   0000000.00                             000000000000000                                                                                                                                                     01424 G000000005190 0000000000001.01     01650 01500                  
00005200516430001P16759067590000001516480088880000001010000000000000000                             2000000000000000000000000              000000000000                    0000000000000000000000000                    000000000000                                                                                                                                                                                                                                                                                                                                                                                                                                                                                        
00005210516430026DT67590675900000015164800888800000010180088824001193081900012234576032120230000000654808123000000005350674423568XXXXXX0351               2111111   NYV4 A7W583081026050182N840000000006548J52700    01DNKETOFUSION833-923-3587   074325    VD84000000006548 NP1599977360677   083C5BEF3CT4D1731A37CB1  000000000+                F DF 10420                     000000000  Y000000000 338   0000000000000.00 0000000.00   0000000.00                             000000000000000                                                                                                                                                     01424 G000000006548 0000000000000.25     00050 02200                  
00005220516430001P16759067590000001516480088880000001010000000000000000                             2000000000000000000000000              000000000000                    0000000000000000000000000                    000000000000                                                                                                                                                                                                                                                                                                                                                                                                                                                                                        
00005230516430027DT67590675900000015164800888800000010180088824001193081900012234584032120230000000519008123000000005350674423568XXXXXX0351               2111111   NYV4 A7W463081026179913N8400000000051906S8300    01DNKETOFUSION833-923-3587   074337    VD84000000005190 NP1599977360677   083C5BEF3CTEE37F5103F7C  000000000+                F DF 10420                     000000000  Y000000000 338   0000000000000.00 0000000.00   0000000.00                             000000000000000                                                                                                                                                     01424 G000000005190 0000000000000.25     00050 02200                  
00005240516430001P16759067590000001516480088880000001010000000000000000                             2000000000000000000000000              000000000000                    0000000000000000000000000                    000000000000                                                                                                                                                                                                                                                                                                                                                                                                                                                                                        
00005250516430028DT67590675900000015164800888800000010180088824001193081900012234592032120230000000519008123000000005350674410039XXXXXX1054               2111111   NYV4 A7W303081026254433N840000000005190QV3400    01DNKETOFUSION833-923-3587   88826D    VS84000000005190 NP1599977360677   1DBF731173T658CE0960F16  000000000+                D CD 12109                     000000000  N000000000 498   0000000000000.00 0000000.00   0000000.00                             000000000000000                                                                                                                                                     01424 G000000005190 0000000000001.40     02500 01000                  
00005260516430001P16759067590000001516480088880000001010000000000000000                             2000000000000000000000000              000000000000                    0000000000000000000000000                    000000000000                                                                                                                                                                                                                                                                                                                                                                                                                                                                                        
00005270516430029DT67590675900000015164800888800000010180088824001193081900012234600032120230000000198808123000000005350674460223XXXXXX7418               2111111   NYV4 A7W303081026615624N840000000001988GG3D00    01DNKETOFUSION833-923-3587   741697    VD84000000001988 NP1599977360677   2A08EA2C28T72F045DC5A77  000000000+                F DF 00415                     000000000  N000000000       0000000000000.00 0000000.00   0000000.00                             000000000000000                                                                                                                                                     01424 G000000001988 0000000000000.48     01650 01500                  
00005280516430001P16759067590000001516480088880000001010000000000000000                             2000000000000000000000000              000000000000                    0000000000000000000000000                    000000000000                                                                                                                                                                                                                                                                                                                                                                                                                                                                                        
00005290516430030DT67590675900000015164800888800000010180088824001193081900012234642032120230000001394808123000000005350674426684XXXXXX7730               2111111   NYV4 A7W383081028013414N8400000000139484MN700    01DNKETOFUSION833-923-3587   09243C    VS84000000013948 NP1599977360677   E2A08B9E52T07EBBD9B52FF  000000000+                C CC 12108                     000000000  N000000000 496   0000000000000.00 0000000.00   0000000.00                             000000000000000                                                                                                                                                     01424 G000000013948 0000000000002.96     02050 01000                  
00005300516430001P16759067590000001516480088880000001010000000000000000                             2000000000000000000000000              000000000000                    0000000000000000000000000                    000000000000                                                                                                                                                                                                                                                                                                                                                                                                                                                                                        
00005310516430031DT67590675900000015164800888800000010180088824001193081900012234659032120230000001987008123000000005350674440066XXXXXX9684               2111111   NYV4 A7W463081028253439N840000000019870FTP600    01DNKETOFUSION833-923-3587   09702D    VS84000000019870 NP1599977360677   EF18B79875T2D94A79A8209  000000000+                D CD 12109                     000000000  N000000000 498   0000000000000.00 0000000.00   0000000.00                             000000000000000                                                                                                                                                     01424 G000000019870 0000000000005.07     02500 01000                  
00005320516430001P16759067590000001516480088880000001010000000000000000                             2000000000000000000000000              000000000000                    0000000000000000000000000                    000000000000                                                                                                                                                                                                                                                                                                                                                                                                                                                                                        
00005330516430032DT67590675900000015164800888800000010180088824001193081900012234667032120230000000654808123000000005350674426684XXXXXX7730               2111111   NYV4 A7W463081028305249N840000000006548DGQ800    01DNKETOFUSION833-923-3587   01329C    VS84000000006548 NP1599977360677   E2A08B9E52T83A88667C962  000000000+                C CC 12108                     000000000  N000000000 496   0000000000000.00 0000000.00   0000000.00                             000000000000000                                                                                                                                                     01424 G000000006548 0000000000001.44     02050 01000                  
00005340516430001P16759067590000001516480088880000001010000000000000000                             2000000000000000000000000              000000000000                    0000000000000000000000000                    000000000000                                                                                                                                                                                                                                                                                                                                                                                                                                                                                        
00005350516430033DT67590675900000015164800888800000010180088824001193081900012234675032120230000000519008123000000005350674426684XXXXXX7730               2111111   NYV4 A7W383081028524194N840000000005190NW9Q00    01DNKETOFUSION833-923-3587   01988C    VS84000000005190 NP1599977360677   E2A08B9E52T59B8BA379708  000000000+                C CC 12108                     000000000  N000000000 496   0000000000000.00 0000000.00   0000000.00                             000000000000000                                                                                                                                                     01424 G000000005190 0000000000001.16     02050 01000                  
00005360516430001P16759067590000001516480088880000001010000000000000000                             2000000000000000000000000              000000000000                    0000000000000000000000000                    000000000000                                                                                                                                                                                                                                                                                                                                                                                                                                                                                        
00005370516430034DT67590675900000015164800888800000010180088824001193081900012234691032120230000001499008123000000005350674414734XXXXXX7746               2111111   NYV4 A7W463081030295459N840000000014990NXH700    01DNKETOFUSION833-923-3587   04328C    VS84000000014990 NP1599977360677   6C449704F4TFD484CFE5C2A  000000000+                C CC 12108                     000000000  N000000000 496   0000000000000.00 0000000.00   0000000.00                             000000000000000                                                                                                                                                     01424 G000000014990 0000000000003.17     02050 01000                  
00005380516430001P16759067590000001516480088880000001010000000000000000                             2000000000000000000000000              000000000000                    0000000000000000000000000                    000000000000                                                                                                                                                                                                                                                                                                                                                                                                                                                                                        
00005390516430035DT67590675900000015164800888800000010180088824001193081900012234709032120230000001987008123000000005350674473315XXXXXX8123               2111111   NYV4 A7W303081030614685N840000000019870L4B800    01DNKETOFUSION833-923-3587   205102    VD84000000019870 NP1599977360677   FAF19DC66DT9308597866BD  000000000+                F DF 00415                     000000000  N000000000       0000000000000.00 0000000.00   0000000.00                             000000000000000                                                                                                                                                     01424 G000000019870 0000000000003.43     01650 01500                  
00005400516430001P16759067590000001516480088880000001010000000000000000                             2000000000000000000000000              000000000000                    0000000000000000000000000                    000000000000                                                                                                                                                                                                                                                                                                                                                                                                                                                                                        
00005410516430036DT67590675900000015164800888800000010180088824001193081900012234725032120230000001987008123000000005350674446552XXXXXX8896               2111111   NYV4 A7W383081031349479N84000000001987027N300    01DNKETOFUSION833-923-3587   631665    VD84000000019870 NP1599977360677   3FD5773747TCB8D0D04DB42  000000000+                F DF 00415                     000000000  N000000000       0000000000000.00 0000000.00   0000000.00                             000000000000000                                                                                                                                                     01424 G000000019870 0000000000003.43     01650 01500                  
00005420516430001P16759067590000001516480088880000001010000000000000000                             2000000000000000000000000              000000000000                    0000000000000000000000000                    000000000000                                                                                                                                                                                                                                                                                                                                                                                                                                                                                        
00005430516430037DT67590675900000015164800888800000010180088824001193081900012234733032120230000001799108123000000005350674427082XXXXXX8379               2111111   NYV4 A7W383081031901378N840000000017991TWJ300    01DNKETOFUSION833-923-3587   021018    VS84000000017991 NP1599977360677   C96D512C6AT92CB78407669  000000000+                D CD 12109                     000000000  N000000000 498   0000000000000.00 0000000.00   0000000.00                             000000000000000                                                                                                                                                     01424 G000000017991 0000000000004.60     02500 01000                  
00005440516430001P16759067590000001516480088880000001010000000000000000                             2000000000000000000000000              000000000000                    0000000000000000000000000                    000000000000                                                                                                                                                                                                                                                                                                                                                                                                                                                                                        
00005450516430038DT67590675900000015164800888800000010180088824001193081900012234741032120230000000654808123000000005350674427082XXXXXX8379               2111111   NYV4 A7W303081032338796N84000000000654855MS00    01DNKETOFUSION833-923-3587   021455    VS84000000006548 NP1599977360677   C96D512C6AT1EF95F73BB09  000000000+                D CD 12109                     000000000  N000000000 498   0000000000000.00 0000000.00   0000000.00                             000000000000000                                                                                                                                                     01424 G000000006548 0000000000001.74     02500 01000                  
00005460516430001P16759067590000001516480088880000001010000000000000000                             2000000000000000000000000              000000000000                    0000000000000000000000000                    000000000000                                                                                                                                                                                                                                                                                                                                                                                                                                                                                        
00005470516430039DT67590675900000015164800888800000010180088824001193081900012234766032120230000001987008123000000005350674414718XXXXXX1044               2111111   NYV4 A7W583081032758555N8400000000198705QML00    01DNKETOFUSION833-923-3587   021616    VS84000000019870 NP1599977360677   345D114807T42E234F102D4  000000000+                D CD 12109                     000000000  N000000000 498   0000000000000.00 0000000.00   0000000.00                             000000000000000                                                                                                                                                     01424 G000000019870 0000000000005.07     02500 01000                  
00005480516430001P16759067590000001516480088880000001010000000000000000                             2000000000000000000000000              000000000000                    0000000000000000000000000                    000000000000                                                                                                                                                                                                                                                                                                                                                                                                                                                                                        
00005490516430040DT67590675900000015164800888800000010180088824001193081900012234774032120230000000654808123000000005350674414718XXXXXX1044               2111111   NYV4 A7W583081032812554N8400000000065488ZCC00    01DNKETOFUSION833-923-3587   021240    VS84000000006548 NP1599977360677   345D114807TF62AC4D4CDF7  000000000+                D CD 12109                     000000000  N000000000 498   0000000000000.00 0000000.00   0000000.00                             000000000000000                                                                                                                                                     01424 G000000006548 0000000000001.74     02500 01000                  
00005500516430001P16759067590000001516480088880000001010000000000000000                             2000000000000000000000000              000000000000                    0000000000000000000000000                    000000000000                                                                                                                                                                                                                                                                                                                                                                                                                                                                                        
00005510516430041DT67590675900000015164800888800000010180088824001193081900012234790032120230000001987008123000000005350674438873XXXXXX3357               2111111   NYV4 A7W463081035169000N840000000019870KRX600    01DNKETOFUSION833-923-3587   003730    VS84000000019870 NP1599977360677   B795690E93T1823CA6708DA  000000000+                B CB 12107                     000000000  N000000000 494   0000000000000.00 0000000.00   0000000.00                             000000000000000                                                                                                                                                     01424 G000000019870 0000000000004.15     02040 01000                  
00005520516430001P16759067590000001516480088880000001010000000000000000                             2000000000000000000000000              000000000000                    0000000000000000000000000                    000000000000                                                                                                                                                                                                                                                                                                                                                                                                                                                                                        
00005530516430042DT67590675900000015164800888800000010180088824001193081900012234808032120230000000654808123000000005350674438873XXXXXX3357               2111111   NYV4 A7W463081035422232N840000000006548XKT400    01DNKETOFUSION833-923-3587   001650    VS84000000006548 NP1599977360677   B795690E93T1A70EDD4E029  000000000+                B CB 12107                     000000000  N000000000 494   0000000000000.00 0000000.00   0000000.00                             000000000000000                                                                                                                                                     01424 G000000006548 0000000000001.44     02040 01000                  
00005540516430001P16759067590000001516480088880000001010000000000000000                             2000000000000000000000000              000000000000                    0000000000000000000000000                    000000000000                                                                                                                                                                                                                                                                                                                                                                                                                                                                                        
00005550516430043DT67590675900000015164800888800000010180088824001193081900012234832032120230000001987008123000000005350674433097XXXXXX3448               2111111   NYV4 A7W583081037630544N840000000019870CTMF00    01DNKETOFUSION833-923-3587   207245    VD84000000019870 NP1599977360677   AD1DBBA27DTC2AFBB5A755E  000000000+                F DF 00415                     000000000  N000000000       0000000000000.00 0000000.00   0000000.00                             000000000000000                                                                                                                                                     01424 G000000019870 0000000000003.43     01650 01500                  
00005560516430001P16759067590000001516480088880000001010000000000000000                             2000000000000000000000000              000000000000                    0000000000000000000000000                    000000000000                                                                                                                                                                                                                                                                                                                                                                                                                                                                                        
00005570516430044DT67590675900000015164800888800000010180088887287283081900012234841032120230000001987008123000000005350674532211XXXXXX9676       ME03KE06MS02      NY 4607AMPLL7GYTC0321  N840000000019870          81DNKETOFUSION833-923-3587   021443    MC84000000019870 N  599977360677   9EE4E1FCC7T1D0E5ACBC663  000000000+600450S00130    MPL  00013                     000000000  N                0000000000000.00 0000000.00   0000000.00                             000000000000000                                                                                                                                                   U001424  000000000000 0000000000003.97     01950 01000                  
00005580516430045DT67590675900000015164800888800000010180088887287283081900012234866032120230000000654808123000000005350674532211XXXXXX9676       ME03KE06MS02      NY 4607AMPLNQYGJU0321  N840000000006548          81DNKETOFUSION833-923-3587   021266    MC84000000006548 N  599977360677   9EE4E1FCC7T7DB674B8C7F6  000000000+600450S00130    MPL  00013                     000000000  N                0000000000000.00 0000000.00   0000000.00                             000000000000000                                                                                                                                                   U001424  000000000000 0000000000001.38     01950 01000                  
00005590516430046DT67590675900000015164800888800000010180088887287283081900012234874032120230000000519008123000000005350674532211XXXXXX9676       ME03KE06MS02      NY 4607AMPLNQ4KJU0321  N840000000005190          81DNKETOFUSION833-923-3587   021292    MC84000000005190 N  599977360677   9EE4E1FCC7TF82BAEC868F3  000000000+600450S00130    MPL  00013                     000000000  N                0000000000000.00 0000000.00   0000000.00                             000000000000000                                                                                                                                                   U001424  000000000000 0000000000001.11     01950 01000                  
00005600516430047DT67590675900000015164800888800000010180088887287283081900012234890032120230000001499008123000000005350674551384XXXXXX5554       ME03KE06MS02      NY 4607AMDJKD4TVG0321  N840000000014990          81DNKETOFUSION833-923-3587   386970    MD84000000014990 N  599977360677   71998556AFTA44F41926329  000000000+600450S00130    MDJ  00401                     000000000  N                0000000000000.00 0000000.00   0000000.00                             000000000000000                                                                                                                                                   U001424  000000000000 0000000000002.62     01650 01500                  
00005610516430048DT67590675900000015164800888800000010180088887287283081900012234908032120230000001194808123000000005350674511690XXXXXX4905       ME03KE06MS02      NY 4607AMDJTSXDUS0321  N840000000011948          81DNKETOFUSION833-923-3587   032152    MD84000000011948 N  599977360677   89F3725F0CT021B034DED85  000000000+600450S00130    MDJ  00401                     000000000  N                0000000000000.00 0000000.00   0000000.00                             000000000000000                                                                                                                                                   U001424  000000000000 0000000000002.12     01650 01500                  
00005620516430049DT67590675900000015164800888800000010180088887287283081900012234916032120230000000542808123000000005350674557567XXXXXX3415       ME03KE06MS02      NY 4607AMDJOR5ETY0321  N840000000005428          81DNKETOFUSION833-923-3587   065428    MD84000000005428 N  599977360677   A38ACD39AFTDB8739CE93EF  000000000+600450S00130    MDJ  00401                     000000000  N                0000000000000.00 0000000.00   0000000.00                             000000000000000                                                                                                                                                   U001424  000000000000 0000000000001.05     01650 01500                  
00005630516430050DT67590675900000015164800888800000010180088887287283081900012234932032120230000002487008123000000005350674514278XXXXXX3343       ME03KE06MS02      NY 4607AMDJQCL0KN0321  N840000000024870          81DNKETOFUSION833-923-3587   011104    MD84000000024870 N  599977360677   D12D0C0F68T71F0BFA5214A  000000000+600450S00130    MDJ  00401                     000000000  N                0000000000000.00 0000000.00   0000000.00                             000000000000000                                                                                                                                                   U001424  000000000000 0000000000004.25     01650 01500                  
00005640516430051DT67590675900000015164800888800000010180088887287283081900012234940032120230000000654808123000000005350674514278XXXXXX3343       ME03KE06MS02      NY 4607AMDJOSODTY0321  N840000000006548          81DNKETOFUSION833-923-3587   011137    MD84000000006548 N  599977360677   D12D0C0F68T27DA437DD72C  000000000+600450S00130    MDJ  00401                     000000000  N                0000000000000.00 0000000.00   0000000.00                             000000000000000                                                                                                                                                   U001424  000000000000 0000000000001.23     01650 01500                  
00005650516430052DT67590675900000015164800888800000010180088887287283081900012234957032120230000000519008123000000005350674514278XXXXXX3343       ME03KE06MS02      NY 4607AMDJQER1KN0321  N840000000005190          81DNKETOFUSION833-923-3587   011416    MD84000000005190 N  599977360677   D12D0C0F68TE768C11131CB  000000000+600450S00130    MDJ  00401                     000000000  N                0000000000000.00 0000000.00   0000000.00                             000000000000000                                                                                                                                                   U001424  000000000000 0000000000001.01     01650 01500                  
00005660516430053DT67590675900000015164800888800000010680088887287283081900012234965032120230000000519008123000000005350674518941XXXXXX0077                         NY 4607AMWEKL3WVG0321  N840000000005190          81CNKETOFUSION833-923-3587   827264    MC84000000005190 N  599977360677   0BF43C456FT6F0A05A62FAB  000000000+600450S00130    MWE  00564                     000000000  N                0000000000000.00 0000000.00   0000000.00                             000000000000000                                                                                                                                                     01424  000000000000-0000000000000.91     01750 00000                  
00005670516430054DT67590675900000015164800888800000010180088887287283081900012234973032120230000001206608123000000005350674514759XXXXXX3158       ME03KE06MS02      NY 4607AMDJKL31VG0321  N840000000012066          81DNKETOFUSION833-923-3587   001818    MD84000000012066 N  599977360677   DB550C3812TBBF7C8DDD593  000000000+600450S00130    MDJ  10813                     000000000  1                0000000000000.00 0000000.00   0000000.00                             000000000000000                                                                                                                                                   U001424  000000000000 0000000000000.28     00050 02200                  
00005680516430055DT67590675900000015164800888800000010180088824001193081900012234980032120230000002487008123000000005350674426684XXXXXX9049               2111111   NYV4 A7W463081046991282N840000000024870QHSS00    01DNKETOFUSION833-923-3587   04599A    VS84000000024870 NP1599977360677   B73DB8D7DBT2997F3358545  000000000+                A CA 12106                     000000000  N000000000 492   0000000000000.00 0000000.00   0000000.00                             000000000000000                                                                                                                                                     01424 G000000024870 0000000000004.80     01890 01000                  
00005690516430001P16759067590000001516480088880000001010000000000000000                             2000000000000000000000000              000000000000                    0000000000000000000000000                    000000000000                                                                                                                                                                                                                                                                                                                                                                                                                                                                                        
00005700516430056DT67590675900000015164800888800000010180088887287283081900012234999032120230000000654808123000000005350674514759XXXXXX3158       ME03KE06MS02      NY 4607AMDJKL9NVG0321  N840000000006548          81DNKETOFUSION833-923-3587   001834    MD84000000006548 N  599977360677   DB550C3812TD700A42F8905  000000000+600450S00130    MDJ  10813                     000000000  1                0000000000000.00 0000000.00   0000000.00                             000000000000000                                                                                                                                                   U001424  000000000000 0000000000000.25     00050 02200                  
00005710516430057DT67590675900000015164800888800000010180088887287283081900012235004032120230000001987008123000000005350674546630XXXXXX4821       ME03KE06MS02      NY 4607AMWENXM4JU0321  N840000000019870          81DNKETOFUSION833-923-3587   00536P    MC84000000019870 N  599977360677   EB40DE748CT6502C8C2F7A3  000000000+600450S00130    MWE  00737                     000000000  N                0000000000000.00 0000000.00   0000000.00                             000000000000000                                                                                                                                                   U001424  000000000000 0000000000005.27     02600 01000                  
00005720516430058DT67590675900000015164800888800000010180088824001193081900012235011032120230000000654808123000000005350674426684XXXXXX9049               2111111   NYV4 A7W463081049345304N8400000000065483HT300    01DNKETOFUSION833-923-3587   06438A    VS84000000006548 NP1599977360677   B73DB8D7DBT5D3577258A54  000000000+                A CA 12106                     000000000  N000000000 492   0000000000000.00 0000000.00   0000000.00                             000000000000000                                                                                                                                                     01424 G000000006548 0000000000001.34     01890 01000                  
00005730516430001P16759067590000001516480088880000001010000000000000000                             2000000000000000000000000              000000000000                    0000000000000000000000000                    000000000000                                                                                                                                                                                                                                                                                                                                                                                                                                                                                        
00005740516430059DT67590675900000015164800888800000010180088824001193081900012235029032120230000000519008123000000005350674426684XXXXXX9049               2111111   NYV4 A7W463081050251734N840000000005190VGMV00    01DNKETOFUSION833-923-3587   00375A    VS84000000005190 NP1599977360677   B73DB8D7DBT17DC0566F9B0  000000000+                A CA 12106                     000000000  N000000000 492   0000000000000.00 0000000.00   0000000.00                             000000000000000                                                                                                                                                     01424 G000000005190 0000000000001.08     01890 01000                  
00005750516430001P16759067590000001516480088880000001010000000000000000                             2000000000000000000000000              000000000000                    0000000000000000000000000                    000000000000                                                                                                                                                                                                                                                                                                                                                                                                                                                                                        
00005760516430060DT67590675900000015164800888800000010180088824001193081900012235037032120230000000198808123000000005350674426684XXXXXX9049               2111111   NYV4 A7W583081050455028N840000000001988ZTFL00    01DNKETOFUSION833-923-3587   02155A    VS84000000001988 NP1599977360677   B73DB8D7DBT4F22F02CC4D4  000000000+                A CA 12106                     000000000  N000000000 492   0000000000000.00 0000000.00   0000000.00                             000000000000000                                                                                                                                                     01424 G000000001988 0000000000000.48     01890 01000                  
00005770516430001P16759067590000001516480088880000001010000000000000000                             2000000000000000000000000              000000000000                    0000000000000000000000000                    000000000000                                                                                                                                                                                                                                                                                                                                                                                                                                                                                        
00005780516430061DT67590675900000015164800888800000010180088887287283081900012235046032120230000001987008123000000005350674512107XXXXXX2008       ME03KE06PT01      NY 4607AMCWOXOGTY0321  N840000000019870          81DNKETOFUSION833-923-3587   02188P    MC84000000019870 N  599977360677   5E6204C7C3TE8DDBE70EB30  000000000+600450S00130    MCW  00642                     000000000  N                0000000000000.00 0000000.00   0000000.00                             000000000000000                                                                                                                                                   U001424  000000000000 0000000000004.47     02200 01000                  
00005790516430062DT67590675900000015164800888800000010180088887287283081900012235053032120230000000654808123000000005350674512107XXXXXX2008       ME03KE06PT01      NY 4607AMCWOXY0TY0321  N840000000006548          81DNKETOFUSION833-923-3587   02198P    MC84000000006548 N  599977360677   5E6204C7C3T404E019C8897  000000000+600450S00130    MCW  00642                     000000000  N                0000000000000.00 0000000.00   0000000.00                             000000000000000                                                                                                                                                   U001424  000000000000 0000000000001.54     02200 01000                  
00005800516430063DT67590675900000015164800888800000010180088887287283081900012235061032120230000000519008123000000005350674512107XXXXXX2008       ME03KE06PT01      NY 4607AMCWQLSCKN0321  N840000000005190          81DNKETOFUSION833-923-3587   02111P    MC84000000005190 N  599977360677   5E6204C7C3T50B92ECF859A  000000000+600450S00130    MCW  00642                     000000000  N                0000000000000.00 0000000.00   0000000.00                             000000000000000                                                                                                                                                   U001424  000000000000 0000000000001.24     02200 01000                  
00005810516430064DT67590675900000015164800888800000010180088887287283081900012235079032120230000001987008123000000005350674526102XXXXXX2246       ME03KE06PT01      NY 4607AMCWN23EJU0321  N840000000019870          81DNKETOFUSION833-923-3587   02182Z    MC84000000019870 N  599977360677   0C14BDC20ATED3607188B07  000000000+600450S00130    MCW  00642                     000000000  N                0000000000000.00 0000000.00   0000000.00                             000000000000000                                                                                                                                                   U001424  000000000000 0000000000004.47     02200 01000                  
00005820516430065DT67590675900000015164800888800000010180088887287283081900012235087032120230000000654808123000000005350674526102XXXXXX2246       ME03KE06PT01      NY 4607AMCWQRTOKN0321  N840000000006548          81DNKETOFUSION833-923-3587   02126Z    MC84000000006548 N  599977360677   0C14BDC20ATB1EF0EE0A639  000000000+600450S00130    MCW  00642                     000000000  N                0000000000000.00 0000000.00   0000000.00                             000000000000000                                                                                                                                                   U001424  000000000000 0000000000001.54     02200 01000                  
00005830516430066DT67590675900000015164800888800000010180088887287283081900012235095032120230000000519008123000000005350674526102XXXXXX2246       ME03KE06PT01      NY 4607AMCWN3CVJU0321  N840000000005190          81DNKETOFUSION833-923-3587   02113Z    MC84000000005190 N  599977360677   0C14BDC20AT97933D64EB7C  000000000+600450S00130    MCW  00642                     000000000  N                0000000000000.00 0000000.00   0000000.00                             000000000000000                                                                                                                                                   U001424  000000000000 0000000000001.24     02200 01000                  
00005840516430067DT67590675900000015164800888800000010180088824001193081900012235102032120230000001987008123000000005350674410039XXXXXX1922               2111111   NYV4 A7W463081057656344N840000000019870L6HX00    01DNKETOFUSION833-923-3587   88158D    VS84000000019870 NP1599977360677   7AB78CE980TE4FC4FF7F3FC  000000000+                D CD 12109                     000000000  N000000000 498   0000000000000.00 0000000.00   0000000.00                             000000000000000                                                                                                                                                     01424 G000000019870 0000000000005.07     02500 01000                  
00005850516430001P16759067590000001516480088880000001010000000000000000                             2000000000000000000000000              000000000000                    0000000000000000000000000                    000000000000                                                                                                                                                                                                                                                                                                                                                                                                                                                                                        
00005860516430068DT67590675900000015164800888800000010180088824001193081900012235110032120230000000654808123000000005350674410039XXXXXX1922               2111111   NYV4 A7W463081057832657N840000000006548FH2L00    01DNKETOFUSION833-923-3587   10093D    VS84000000006548 NP1599977360677   7AB78CE980TF5182C432985  000000000+                D CD 12109                     000000000  N000000000 498   0000000000000.00 0000000.00   0000000.00                             000000000000000                                                                                                                                                     01424 G000000006548 0000000000001.74     02500 01000                  
00005870516430001P16759067590000001516480088880000001010000000000000000                             2000000000000000000000000              000000000000                    0000000000000000000000000                    000000000000                                                                                                                                                                                                                                                                                                                                                                                                                                                                                        
00005880516430069DT67590675900000015164800888800000010180088824001193081900012235128032120230000000519008123000000005350674410039XXXXXX1922               2111111   NYV4 A7W463081057906296N8400000000051907LLL00    01DNKETOFUSION833-923-3587   18780D    VS84000000005190 NP1599977360677   7AB78CE980TC9AC217F51EE  000000000+                D CD 12109                     000000000  N000000000 498   0000000000000.00 0000000.00   0000000.00                             000000000000000                                                                                                                                                     01424 G000000005190 0000000000001.40     02500 01000                  
00005890516430001P16759067590000001516480088880000001010000000000000000                             2000000000000000000000000              000000000000                    0000000000000000000000000                    000000000000                                                                                                                                                                                                                                                                                                                                                                                                                                                                                        
00005900516430070DT67590675900000015164800888800000010180088887287283081900012235137032120230000001987008123000000005350674546325XXXXXX2517       ME03KE06MS02      NY 4607AMWEQT6XKN0321  N840000000019870          81DNKETOFUSION833-923-3587   05092P    MC84000000019870 N  599977360677   B1DCB2A77FT200C8BD2CC4E  000000000+600450S00130    MWE  00737                     000000000  N                0000000000000.00 0000000.00   0000000.00                             000000000000000                                                                                                                                                   U001424  000000000000 0000000000005.27     02600 01000                  
00005910516430071DT67590675900000015164800888800000010680088874001193081900012235149032120230000000654808123000000005350674470793XXXXXX0714               0000000   NYV4 07T583081059278204N8400000000065483XTG00    01CNKETOFUSION833-923-3587   021033    VS84000000006548 NP1599977360677   11B0026939TE36FD3803E22  000000000+                B CB 00245                     000000000  N000000000 166   0000000000000.00 0000000.00   0000000.00                             000000000000000                                                                                                                                                     01424  000000006548-0000000000001.15     01760 00000                  
00005920516430001P16759067590000001516480088880000001060000000000000000                             2000000000000000000000000              000000000000                    0000000000000000000000000                    000000000000                                                                                                                                                                                                                                                                                                                                                                                                                                                                                        
00005930516430072DT67590675900000015164800888800000010180088887287283081900012235152032120230000000654808123000000005350674546325XXXXXX2517       ME03KE06MS02      NY 4607AMWEO3FQTY0321  N840000000006548          81DNKETOFUSION833-923-3587   05728P    MC84000000006548 N  599977360677   B1DCB2A77FT6ECAC5B584B5  000000000+600450S00130    MWE  00737                     000000000  N                0000000000000.00 0000000.00   0000000.00                             000000000000000                                                                                                                                                   U001424  000000000000 0000000000001.80     02600 01000                  
00005940516430073DT67590675900000015164800888800000010180088887287283081900012235160032120230000000519008123000000005350674546325XXXXXX2517       ME03KE06MS02      NY 4607AMWEKY7LVG0321  N840000000005190          81DNKETOFUSION833-923-3587   07229P    MC84000000005190 N  599977360677   B1DCB2A77FTE8A8C9BC7DD1  000000000+600450S00130    MWE  00737                     000000000  N                0000000000000.00 0000000.00   0000000.00                             000000000000000                                                                                                                                                   U001424  000000000000 0000000000001.45     02600 01000                  
00005950516430074DT67590675900000015164800888800000010680088874001193081900012235172032120230000000676508123000000005350674470793XXXXXX0714               0000000   NYV4 07T383081059564348N840000000006765SD6900    01CNKETOFUSION833-923-3587   021906    VS84000000006765 NP1599977360677   11B0026939T02E5A66CBD48  000000000+                B CB 00245                     000000000  N000000000 166   0000000000000.00 0000000.00   0000000.00                             000000000000000                                                                                                                                                     01424  000000006765-0000000000001.19     01760 00000                  
00005960516430001P16759067590000001516480088880000001060000000000000000                             2000000000000000000000000              000000000000                    0000000000000000000000000                    000000000000                                                                                                                                                                                                                                                                                                                                                                                                                                                                                        
00005970516430075DT67590675900000015164800888800000010180088824001193081900012235185032120230000001194808123000000005350674400344XXXXXX7377               2111111   NYV4 A7W383081061328591N8400000000119487SCP00    01DNKETOFUSION833-923-3587   06378C    VS84000000011948 NP1599977360677   A69FD95C39TB832C7E0A9E4  000000000+                C CC 12108                     000000000  N000000000 496   0000000000000.00 0000000.00   0000000.00                             000000000000000                                                                                                                                                     01424 G000000011948 0000000000002.55     02050 01000                  
00005980516430001P16759067590000001516480088880000001010000000000000000                             2000000000000000000000000              000000000000                    0000000000000000000000000                    000000000000                                                                                                                                                                                                                                                                                                                                                                                                                                                                                        
00005990516430076DT67590675900000015164800888800000010180088887287283081900012235194032120230000001987008123000000005350674537959XXXXXX0248       ME03KE06MS02      NY 4607AMPLLXRMKN0321  N840000000019870          81DNKETOFUSION833-923-3587   640216    MC84000000019870 N  599977360677   19AAC6294DTE6FEE0845824  000000000+600450S00130    MPL  00013                     000000000  N                0000000000000.00 0000000.00   0000000.00                             000000000000000                                                                                                                                                   U001424  000000000000 0000000000003.97     01950 01000                  
00006000516430077DT67590675900000015164800888800000010180088824001193081900012235219032120230000001194808123000000005350674447305XXXXXX3055               2111111   NYV4 A7W583081065639323N840000000011948GNJJ00    01DNKETOFUSION833-923-3587   084923    VD84000000011948 NP1599977360677   2C4BDDCB98T36956D4EE158  000000000+                F DF 00415                     000000000  N000000000       0000000000000.00 0000000.00   0000000.00                             000000000000000                                                                                                                                                     01424 G000000011948 0000000000002.12     01650 01500                  
00006010516430001P16759067590000001516480088880000001010000000000000000                             2000000000000000000000000              000000000000                    0000000000000000000000000                    000000000000                                                                                                                                                                                                                                                                                                                                                                                                                                                                                        
00006020516430078DT67590675900000015164800888800000010180088824001193081900012235227032120230000002487008123000000005350674494001XXXXXX7253               2111111   NYV4 A7W583081065642457N840000000024870S8DG00    01DNKETOFUSION833-923-3587   595230    VD84000000024870 NP1599977360677   25AB5D4387T6903867E9434  000000000+                F DF 00415                     000000000  N000000000       0000000000000.00 0000000.00   0000000.00                             000000000000000                                                                                                                                                     01424 G000000024870 0000000000004.25     01650 01500                  
00006030516430001P16759067590000001516480088880000001010000000000000000                             2000000000000000000000000              000000000000                    0000000000000000000000000                    000000000000                                                                                                                                                                                                                                                                                                                                                                                                                                                                                        
00006040516430079DT67590675900000015164800888800000010180088824001193081900012235235032120230000000654808123000000005350674447305XXXXXX3055               2111111   NYV4 A7W463081065806202N8400000000065488TPK00    01DNKETOFUSION833-923-3587   084940    VD84000000006548 NP1599977360677   2C4BDDCB98T9E415573A02D  000000000+                F DF 00415                     000000000  N000000000       0000000000000.00 0000000.00   0000000.00                             000000000000000                                                                                                                                                     01424 G000000006548 0000000000001.23     01650 01500                  
00006050516430001P16759067590000001516480088880000001010000000000000000                             2000000000000000000000000              000000000000                    0000000000000000000000000                    000000000000                                                                                                                                                                                                                                                                                                                                                                                                                                                                                        
00006060516430080DT67590675900000015164800888800000010180088887287283081900012235244032120230000002487008123000000005350674518941XXXXXX7660       ME03KE06MS02      NY 4607AMWEL047KN0321  N840000000024870          81DNKETOFUSION833-923-3587   06652Z    MC84000000024870 N  599977360677   CB04183509T4EFE47AE16EB  000000000+600450S00130    MWE  00737                     000000000  N                0000000000000.00 0000000.00   0000000.00                             000000000000000                                                                                                                                                   U001424  000000000000 0000000000006.57     02600 01000                  
00006070516430081DT67590675900000015164800888800000010180088824001193081900012235250032120230000000519008123000000005350674447305XXXXXX3055               2111111   NYV4 A7W303081065979588N8400000000051906D4B00    01DNKETOFUSION833-923-3587   084957    VD84000000005190 NP1599977360677   2C4BDDCB98T336DB1C0A979  000000000+                F DF 00415                     000000000  N000000000       0000000000000.00 0000000.00   0000000.00                             000000000000000                                                                                                                                                     01424 G000000005190 0000000000001.01     01650 01500                  
00006080516430001P16759067590000001516480088880000001010000000000000000                             2000000000000000000000000              000000000000                    0000000000000000000000000                    000000000000                                                                                                                                                                                                                                                                                                                                                                                                                                                                                        
00006090516430082DT67590675900000015164800888800000010180088887287283081900012235277032120230000000654808123000000005350674518941XXXXXX7660       ME03KE06MS02      NY 4607AMWEL1R7KN0321  N840000000006548          81DNKETOFUSION833-923-3587   53300Z    MC84000000006548 N  599977360677   CB04183509TEA8B550CCC8A  000000000+600450S00130    MWE  00737                     000000000  N                0000000000000.00 0000000.00   0000000.00                             000000000000000                                                                                                                                                   U001424  000000000000 0000000000001.80     02600 01000                  
00006100516430083DT67590675900000015164800888800000010180088887287283081900012235293032120230000001394808123000000005350674531260XXXXXX3653       ME03KE06MS02      NY 4607AMDJOCYCJU0321  N840000000013948          81DNKETOFUSION833-923-3587   100420    MD84000000013948 N  599977360677   F4F31AF245T6BA60A885DD9  000000000+600450S00130    MDJ  10813                     000000000  1                0000000000000.00 0000000.00   0000000.00                             000000000000000                                                                                                                                                   U001424  000000000000 0000000000000.29     00050 02200                  
00006110516430084DT67590675900000015164800888800000010180088887287283081900012235301032120230000000654808123000000005350674531260XXXXXX3653       ME03KE06MS02      NY 4607AMDJLCOHVG0321  N840000000006548          81DNKETOFUSION833-923-3587   120322    MD84000000006548 N  599977360677   F4F31AF245TAB64B201CADC  000000000+600450S00130    MDJ  10813                     000000000  1                0000000000000.00 0000000.00   0000000.00                             000000000000000                                                                                                                                                   U001424  000000000000 0000000000000.25     00050 02200                  
00006120516430085DT67590675900000015164800888800000010180088824001193081900012235326032120230000001987008123000000005350674440215XXXXXX0164               2111111   NYV4 A7W463081073869094N840000000019870KTKD00    01DNKETOFUSION833-923-3587   996710    VD84000000019870 NP1599977360677   6A3C039E26TF678BC132148  000000000+                F DF 00415                     000000000  N000000000       0000000000000.00 0000000.00   0000000.00                             000000000000000                                                                                                                                                     01424 G000000019870 0000000000003.43     01650 01500                  
00006130516430001P16759067590000001516480088880000001010000000000000000                             2000000000000000000000000              000000000000                    0000000000000000000000000                    000000000000                                                                                                                                                                                                                                                                                                                                                                                                                                                                                        
00006140516430086DT67590675900000015164800888800000010180088887287283081900012235335032120230000002487008123000000005350674515676XXXXXX6016       ME03KE06MS02      NY 4607AMWELE63VG0321  N840000000024870          81DNKETOFUSION833-923-3587   01697Z    MC84000000024870 N  599977360677   0BBE94ED4ATCC7A58156C69  000000000+600450S00130    MWE  00737                     000000000  N                0000000000000.00 0000000.00   0000000.00                             000000000000000                                                                                                                                                   U001424  000000000000 0000000000006.57     02600 01000                  
00006150516430087DT67590675900000015164800888800000010180088824001193081900012235342032120230000002487008123000000005350674400022XXXXXX7386               2111111   NYV4 A7W303081076663868N84000000002487025KF00    01DNKETOFUSION833-923-3587   352849    VD84000000024870 NP1599977360677   E5F4A1509CT21D24F18CA77  000000000+                F DF 10420                     000000000  Y000000000 338   0000000000000.00 0000000.00   0000000.00                             000000000000000                                                                                                                                                     01424 G000000024870 0000000000000.34     00050 02200                  
00006160516430001P16759067590000001516480088880000001010000000000000000                             2000000000000000000000000              000000000000                    0000000000000000000000000                    000000000000                                                                                                                                                                                                                                                                                                                                                                                                                                                                                        
00006170516430088DT67590675900000015164800888800000010180088824001193081900012235359032120230000000654808123000000005350674410039XXXXXX3876               2111111   NYV4 A7W583081077071114N840000000006548B2ZC00    01DNKETOFUSION833-923-3587   34638D    VS84000000006548 NP1599977360677   FD420ED9C6T37E4B2B6346A  000000000+                D CD 12109                     000000000  N000000000 498   0000000000000.00 0000000.00   0000000.00                             000000000000000                                                                                                                                                     01424 G000000006548 0000000000001.74     02500 01000                  
00006180516430001P16759067590000001516480088880000001010000000000000000                             2000000000000000000000000              000000000000                    0000000000000000000000000                    000000000000                                                                                                                                                                                                                                                                                                                                                                                                                                                                                        
00006190516430089DT67590675900000015164800888800000010180088824001193081900012235375032120230000000519008123000000005350674410039XXXXXX3876               2111111   NYV4 A7W583081077328711N8400000000051905JZ500    01DNKETOFUSION833-923-3587   61020D    VS84000000005190 NP1599977360677   FD420ED9C6TD52A41CB5547  000000000+                D CD 12109                     000000000  N000000000 498   0000000000000.00 0000000.00   0000000.00                             000000000000000                                                                                                                                                     01424 G000000005190 0000000000001.40     02500 01000                  
00006200516430001P16759067590000001516480088880000001010000000000000000                             2000000000000000000000000              000000000000                    0000000000000000000000000                    000000000000                                                                                                                                                                                                                                                                                                                                                                                                                                                                                        
00006210516430090DT67590675900000015164800888800000010180088887287283081900012235384032120230000001987008123000000005350674515676XXXXXX4817       ME03KE06MS02      NY 4607AMWERB2HKN0321  N840000000019870          81DNKETOFUSION833-923-3587   00822Z    MC84000000019870 N  599977360677   0BF2FE8F1ATDA6DE49B42C3  000000000+600450S00130    MWE  00737                     000000000  N                0000000000000.00 0000000.00   0000000.00                             000000000000000                                                                                                                                                   U001424  000000000000 0000000000005.27     02600 01000                  
00006220516430091DT67590675900000015164800888800000010180088824001193081900012235391032120230000002487008123000000005350674414709XXXXXX8167               2111111   NYV4 A7W583081079170022N8400000000248705WVK00    01DNKETOFUSION833-923-3587   04737C    VS84000000024870 NP1599977360677   433F90C6FDT73C58E13A293  000000000+                C CC 12108                     000000000  N000000000 496   0000000000000.00 0000000.00   0000000.00                             000000000000000                                                                                                                                                     01424 G000000024870 0000000000005.20     02050 01000                  
00006230516430001P16759067590000001516480088880000001010000000000000000                             2000000000000000000000000              000000000000                    0000000000000000000000000                    000000000000                                                                                                                                                                                                                                                                                                                                                                                                                                                                                        
00006240516430092DT67590675900000015164800888800000010180088824001193081900012235409032120230000000654808123000000005350674414709XXXXXX8167               2111111   NYV4 A7W583081080150502N840000000006548DP4N00    01DNKETOFUSION833-923-3587   00059C    VS84000000006548 NP1599977360677   433F90C6FDTEA01822AA38B  000000000+                C CC 12108                     000000000  N000000000 496   0000000000000.00 0000000.00   0000000.00                             000000000000000                                                                                                                                                     01424 G000000006548 0000000000001.44     02050 01000                  
