00003990266110002BH675906759000000028818008888000009017011120230112300000000000749701970000090001390087N8008886759D01122023                                                                                                                                                                                                                                                                                                                                                                                                                                                                                                                                                                                                 
00004000266110003DT67590675900000002881800888800000010680088874001193011900013900878011120230000000749701123000000000007497463034XXXXXX7407               0000000   NNV4 07T303011620674213N840000000007497GXLG00    01CNHAPPY HIPPIE             0116060197VS84000000007497 NP1549976044904   1876                     000000000+                C CC 00000                     000000000  N000000000 166   0000000000000.00 0000000.00   0000000.00             000000000007497C000000000000000                                                                                                                                                     01424  000000007497 0000000000000.00     00000 00000                  
00004010266110001P16759067590000000288180088880000001060000000000000000                             2000000000000000000000000              000000000000                    0000000000000000000000000                    000000000000                                                                                                                                                                                                                                                                                                                                                                                                                                                                                        
00004020266110004BH6759067590000000370780088880000090170111202301123000000000072970    0000090001140095Y8008886759C01122023                                                                                                                                                                                                                                                                                                                                                                                                                                                                                                                                                                                                 
00004030266110005DT67590675900000003707800888800000010180088887287283011900011400885011120230000000899901123000000000072970511827XXXXXX6664       ME03KE06MS02      NY 4607AMDJ16EXGQ0111  N840000000008999          81DNMR HEMP FLOWER           813162    MD84000000008999 N  549976053336   84045                    000000000+600450S00130    MDJ  00401                     000000000  N                0000000000000.00 0000000.00   0000000.00                             000000000000000                                                                                                                                                   U001424  000000000000 0000000000001.63     01650 01500                  
00004040266110006DT67590675900000003707800888800000010180088824001193011900011400892011120230000000135001123000000000072970481582XXXXXX7305               2111111   NYV4 A7W383011511578537N84000000000135083V800    01DNMR HEMP FLOWER           101626    VD84000000001350 NP1549976053336   84050                    000000000+                F DF 10420                     000000000  Y000000000 338   0000000000000.00 0000000.00   0000000.00                             000000000000000                                                                                                                                                     01424 G000000001350 0000000000000.23     00050 02200                  
00004050266110001P16759067590000000370780088880000001010000000000000000                             2000000000000000000000000              000000000000                    0000000000000000000000000                    000000000000                                                                                                                                                                                                                                                                                                                                                                                                                                                                                        
00004060266110007DT67590675900000003707800888800000010180088887287283011900011400901011120230000000800001123000000000072970531258XXXXXX9636       ME03KE06MS02      NY 4607AMDJ4N9D120111  N840000000008000          81DNMR HEMP FLOWER           104418    MD84000000008000 N  549976053336   84052                    000000000+600450S00130    MDJ  10813                     000000000  1                0000000000000.00 0000000.00   0000000.00                             000000000000000                                                                                                                                                   U001424  000000000000 0000000000000.26     00050 02200                  
00004070266110008DT67590675900000003707800888800000010180088887287283011900011400919011120230000000602401123000000000072970558158XXXXXX1904                         NY 4607AMDBKZQI2N0111  N840000000006024          81DNMR HEMP FLOWER           2QTPBV    MD84000000006024 NP1549976053336   84065                    000000000+600450S00130    MDB  00062                     000000000  N                0000000000000.00 0000000.00   0000000.00                             000000000000000                                                                                                                                                   U001424  000000000000 0000000000001.70     02650 01000                  
00004080266110001P1675906759000000037078008888000000101                                                          000000000000          1000            833952842                                                                                                                                                                                                                                                                                                                                                                                                                                                                                                                                                            
00004090266110009DT67590675900000003707800888800000010180088824001193011900011400926011120230000002450001123000000000072970406095XXXXXX6832               2111111   NYV4 A7W303011708420215N84000000002450046TN00    01DNMR HEMP FLOWER           01294D    VS84000000024500 NP1549976053336   84071                    000000000+                D CD 12109                     000000000  N000000000 498   0000000000000.00 0000000.00   0000000.00                             000000000000000                                                                                                                                                     01424 G000000024500 0000000000006.23     02500 01000                  
00004100266110001P16759067590000000370780088880000001010000000000000000                             2000000000000000000000000              000000000000                    0000000000000000000000000                    000000000000                                                                                                                                                                                                                                                                                                                                                                                                                                                                                        
00004110266110010DT67590675900000003707800888800000010180088824001193011900011400934011120230000001479901123000000000072970426684XXXXXX1203               2111111   NYV4 A7W583011772992523N840000000014799LRRT00    01DNMR HEMP FLOWER           04589A    VS84000000014799 NP1549976053336   84077                    000000000+                A CA 12106                     000000000  N000000000 492   0000000000000.00 0000000.00   0000000.00                             000000000000000                                                                                                                                                     01424 G000000014799 0000000000002.90     01890 01000                  
00004120266110001P16759067590000000370780088880000001010000000000000000                             2000000000000000000000000              000000000000                    0000000000000000000000000                    000000000000                                                                                                                                                                                                                                                                                                                                                                                                                                                                                        
00004130266110011DT67590675900000003707800888800000010180088887287283011900011400950011120230000000929801123000000000072970539126XXXXXX2400       ME03KE06MS02      NY 4607AMDSZ4SNOL0111  N840000000009298          81DNMR HEMP FLOWER           293702    MD84000000009298 N  549976053336   84080                    000000000+600450S00130    MDS  00401                     000000000  N                0000000000000.00 0000000.00   0000000.00                             000000000000000                                                                                                                                                   U001424  000000000000 0000000000001.68     01650 01500                  
