09378350331370002BH6759067590000001619680010280000090170714202319523000000000032806    0000090001956872Y8001026759C07172023095                                                                                                                                                                                                                                                                                                                                                                                                                                                                                                                                                                                              
09378360331370003DT67590675900000016196800102800000010180010287287283195900019568442071320230000002136019523000000000032806518725XXXXXX4882       ME03KE06MS02      NY 4607AMWE11EYGP0710  N840000000021360          81DNGREEN OTTER LLC          01982Z    MC84000000021360 NDR549977424386   81C9A17FF0TCB939348E053  000000000+600450S00130    MWE  00737                     000000000  N                0000000000000.00 0000000.00   0000000.00                             000000000000000                                                                                                                                                   U001424  000000000000 0000000000005.65     02600 01000                  
09378370331370003DR67590675900000016196800102800000010181C9A17FF0TCB939348E053  Y000000000000                                                                                                                                                                                                                                                                                                                                                                                                                                                                                                                                                                                                                               
09378380331370001G2675906759000000161968001028000000101866-6317293              GA           9 E               210                                      NNNN           210000000000000000000000000                        7                                          77424386                                                                                                                                                                                                                                                                                                                                                                                                                                               
09378390331370004DT67590675900000016196800102800000010180010224001193195900019568482071320230000002636219523000000000032806443044XXXXXX0315               2111111   NYV4 A7W583191256814438N840000000026362GS7500    01DNGREEN OTTER LLC          778469    VD84000000026362 NDR549977424386   D57BDEEFA8TDC57E057AFB2  000000000+                F DF 10420                     000000000  Y000000000 338   0000000000000.00 0000000.00   0000000.00                             000000000000000                                                                                                                                                     01424 G000000026362 0000000000000.35     00050 02200                  
09378400331370004DR675906759000000161968001028000000101D57BDEEFA8TDC57E057AFB2  Y000000026362                 P1                                                                                                                                                                                                                                                                                                                                                                                                                                                                                                                                                                                                            
09378410331370001P16759067590000001619680010280000001010000000000000000                             2000000000000000000000000              000000000000                    0000000000000000000000000                    000000000000                                                                                                                                                                                                                                                                                                                                                                                                                                                                                        
09378420331370002G2675906759000000161968001028000000101866-6317293              GA           9 D                00                                      NNNN   N                      000000000000                                                                   77424386                                                                                                                                                                                                                                                                                                                                                                                                                                               
09378430331370005DT67590675900000016196800102800000010180010224001193195900019568508071320230000002126119523000000000032806441416XXXXXX7299               2111111   NYV4 A7W463191327053895N840000000021261LC2K00    01DNGREEN OTTER LLC          050505    VD84000000021261 NDR549977424386   36339E7CE3T50CC7168387D  000000000+                F DF 00415                     000000000  N000000000       0000000000000.00 0000000.00   0000000.00                             000000000000000                                                                                                                                                     01424 G000000021261 0000000000003.66     01650 01500                  
09378440331370005DR67590675900000016196800102800000010136339E7CE3T50CC7168387D  Y000000021261                 P1                                                                                                                                                                                                                                                                                                                                                                                                                                                                                                                                                                                                            
09378450331370001P16759067590000001619680010280000001010000000000000000                             2000000000000000000000000              000000000000                    0000000000000000000000000                    000000000000                                                                                                                                                                                                                                                                                                                                                                                                                                                                                        
09378460331370002G2675906759000000161968001028000000101866-6317293              GA           9 D                00                                      NNNN   N                      000000000000                                                                   77424386                                                                                                                                                                                                                                                                                                                                                                                                                                               
09378470331370006DT67590675900000016196800102800000010680010287287283195900019568715071420230000001499119523000000000032806517805XXXXXX6219                         NY 4607AMPLK6GEXI0714  N840000000014991          81CNGREEN OTTER LLC          007616    MC84000000014991 NDR549977424386   95A4F5E1EBT16C961F26303  000000000+600450S00130    MPL  00565                     000000000  N                0000000000000.00 0000000.00   0000000.00                             000000000000000                                                                                                                                                     01424  000000000000-0000000000002.62     01750 00000                  
09378480331370006DR67590675900000016196800102800000010695A4F5E1EBT16C961F26303  Z000000000000                                                                                                                                                                                                                                                                                                                                                                                                                                                                                                                                                                                                                               
09378490331370001G2675906759000000161968001028000000106866-6317293              GA           9 L               210                                      NNNN           210000000000000000000000000                        7                                          77424386                                                                                                                                                                                                                                                                                                                                                                                                                                               
09378500331370007DT67590675900000016196800102800000010680010274001193195900019568727071420230000002118619523000000000032806424631XXXXXX1114               0000000   NYV4 07T303195691012440N840000000021186GXS300    01CNGREEN OTTER LLC          04256G    VB84000000021186 NDR549977424386   AFF39D446ET20EE48091F6B  000000000+                G3CG300246                     000000000  N000000000 167   0000000000000.00 0000000.00   0000000.00                             000000000000000                                                                                                                                                     01424  000000021186-0000000000004.98     02350 00000                  
09378510331370007DR675906759000000161968001028000000106AFF39D446ET20EE48091F6B  Z000000021186                 P1                                                                                                                                                                                                                                                                                                                                                                                                                                                                                                                                                                                                            
09378520331370001P16759067590000001619680010280000001060000000000000000                             2000000000000000000000000              000000000000                    0000000000000000000000000                    000000000000                                                                                                                                                                                                                                                                                                                                                                                                                                                                                        
09378530331370002G2675906759000000161968001028000000106866-6317293              GA           9 C                00                                      NNNN   Y                      000000000000                                                                   77424386                                                                                                                                                                                                                                                                                                                                                                                                                                               
09378540331370008BH6759067590000004225980015280000090170714202319523000000000017997    0000090001030007Y8001526759C07172023003                                                                                                                                                                                                                                                                                                                                                                                                                                                                                                                                                                                              
09378550331370009DT67590675900000042259800152800000010180015276509753195900010300073071320230000001799719523000000000017997601101XXXXXX5849   BA00                  NY 4 07N863167480258151N840000000017997    00    01DNKKIND LLC                01350B    DZ84000000017997 NDR549978706676070                         000000000+1015104910600   DMCDI01012498470  191345000000 000000000  0          124   0000000000000.00 0000000.00   0000000.00                             000000000000000                                                                                                                                                     01424  000000000000 0000000000004.56     02450 01500                  
09378560331370009DR675906759000000422598001528000000101                         Y                                                                                                                                                                                                                                                                                                                                                                                                                                                                                                                                                                                                                                           
09378570331370001G2675906759000000422598001528000000101562-2133497              CA           0 C                00                                      NNNN                          000000000000                         00000650975601179750000857                78706676                                                                                                                                                                                                                                                                                                                                                                                                                                               
09378580331370010BH675906759000000133008001028000009017071420231952300000000003486101970000090001491186N8001026759D07172023149                                                                                                                                                                                                                                                                                                                                                                                                                                                                                                                                                                                              
09378590331370011DT67590675900000013300800102800000010180010224001193195900014911562071320230000002146019523000000000034861443044XXXXXX0706               2111111   NNV4 A7W383191256636895N840000000021460JXC400    01DNCBD8666317293            5152850197VD84000000021460 NDR549977133133   C2486E8851T961F9EEF8034  000000000+                F DF 00000                     000000000  Y000000000 338   0000000000000.00 0000000.00   0000000.00             000000000021460D000000000000000                                                                                                                                                     01424 G000000021460 0000000000000.00     00000 00000                  
09378600331370011DR675906759000000133008001028000000101C2486E8851T961F9EEF8034  Y000000021460                 P1                                                                                                                                                                                                                                                                                                                                                                                                                                                                                                                                                                                                            
09378610331370001P16759067590000001330080010280000001010000000000000000                             2000000000000000000000000              000000000000                    0000000000000000000000000                    000000000000                                                                                                                                                                                                                                                                                                                                                                                                                                                                                        
09378620331370002G2675906759000000133008001028000000101866-6317293              GA           9 D                00                                      NNNN   N                      000000000000                                                                   77133133                                                                                                                                                                                                                                                                                                                                                                                                                                               
09378630331370012DT67590675900000013300800102800000010680010287287283195900014911886071420230000001499119523000000000034861545510XXXXXX9211                         NN94607N         0714  N840000000000000          81CNCBD8666317293                  0197MD84000000014991 N  549977133133   974898FDFFTCBC422C97498  000000000+600450S00130    MDS  00000                     000000000  1                0000000000000.00 0000000.00   0000000.00             000000000014991C000000000000000                                                                                                                                                     01424  000000000000 0000000000000.00     00000 00000                  
09378640331370001G2675906759000000133008001028000000106866-6317293              GA           9 S               210                                      NNNN           210000000000000000000000000                                                                   77133133                                                                                                                                                                                                                                                                                                                                                                                                                                               
09378650331370013DT67590675900000013300800102800000010680010287287283195900014911852071420230000002146019523000000000034861517805XXXXXX9712                         NN 4607AMPLJC1TMD0714  N840000000021460          81CNCBD8666317293            0414770197MC84000000021460 NDR549977133133   89086FA232T498FC98E51AA  000000000+600450S00130    MPL  00000                     000000000  N                0000000000000.00 0000000.00   0000000.00             000000000021460C000000000000000                                                                                                                                                     01424  000000000000 0000000000000.00     00000 00000                  
09378660331370013DR67590675900000013300800102800000010689086FA232T498FC98E51AA  Y000000000000                                                                                                                                                                                                                                                                                                                                                                                                                                                                                                                                                                                                                               
09378670331370001G2675906759000000133008001028000000106866-6317293              GA           9 L               210                                      NNNN           210000000000000000000000000                        7                                          77133133                                                                                                                                                                                                                                                                                                                                                                                                                                               
09378680331370014DT67590675900000013300800102800000010680010287287283195900014911860071420230000001987019523000000000034861517805XXXXXX6142                         NN 4607AMPLPXX9ME0714  N840000000019870          81CNCBD8666317293            0148430197MC84000000019870 NDR549977133133   6FDA93012DT31D3355FD9FD  000000000+600450S00130    MPL  00000                     000000000  N                0000000000000.00 0000000.00   0000000.00             000000000019870C000000000000000                                                                                                                                                     01424  000000000000 0000000000000.00     00000 00000                  
09378690331370014DR6759067590000001330080010280000001066FDA93012DT31D3355FD9FD  Y000000000000                                                                                                                                                                                                                                                                                                                                                                                                                                                                                                                                                                                                                               
09378700331370001G2675906759000000133008001028000000106866-6317293              GA           9 L               210                                      NNNN           210000000000000000000000000                        7                                          77133133                                                                                                                                                                                                                                                                                                                                                                                                                                               
09378710331370015BH6759067590000001427480010280000090170714202319523000000000075305    0000090001499796Y8001026759C07172023149                                                                                                                                                                                                                                                                                                                                                                                                                                                                                                                                                                                              
09378720331370016DT67590675900000014274800102800000010180010287287283195900014997869071320230000001799119523000000000075305533080XXXXXX1305       ME03KE06MS02      NY 4607AMDJ0RVE5H0710  N840000000017991          81DNCBD8666317293            572397    MD84000000017991 NDR549977145232   D6D4DA6C01T9A53B2A20B6A  000000000+600450S00130    MDJ  00401                     000000000  N                0000000000000.00 0000000.00   0000000.00                             000000000000000                                                                                                                                                   U001424  000000000000 0000000000003.12     01650 01500                  
09378730331370016DR675906759000000142748001028000000101D6D4DA6C01T9A53B2A20B6A  Z000000000000                                                                                                                                                                                                                                                                                                                                                                                                                                                                                                                                                                                                                               
09378740331370001G2675906759000000142748001028000000101866-6317293              GA           9 J               210                                      NNNN           210000000000000000000000000                                                                   77145232                                                                                                                                                                                                                                                                                                                                                                                                                                               
09378750331370017DT67590675900000014274800102800000010180010287287283195900014997919071320230000001499119523000000000075305542539XXXXXX9513       ME03KE06MS02      NY 4607AMPLRUTLS40710  N840000000014991          81DNCBD8666317293            010027    MC84000000014991 NDR549977145232   E86A5C0190T2ACD474F29CD  000000000+600450S00130    MPL  00013                     000000000  N                0000000000000.00 0000000.00   0000000.00                             000000000000000                                                                                                                                                   U001424  000000000000 0000000000003.02     01950 01000                  
09378760331370017DR675906759000000142748001028000000101E86A5C0190T2ACD474F29CD  Y000000000000                                                                                                                                                                                                                                                                                                                                                                                                                                                                                                                                                                                                                               
09378770331370001G2675906759000000142748001028000000101866-6317293              GA           9 L               210                                      NNNN           210000000000000000000000000                        7                                          77145232                                                                                                                                                                                                                                                                                                                                                                                                                                               
09378780331370018DT67590675900000014274800102800000010180010224001193195900014997926071320230000002126119523000000000075305491239XXXXXX9010               2111111   NYV4 A7W583191330052162N840000000021261JF5T00    01DNCBD8666317293            415006    VD84000000021261 NDR549977145232   652EFA8A22T6C0E5CBB1E88  000000000+                G DG 10352                     000000000  Y000000000 338   0000000000000.00 0000000.00   0000000.00                             000000000000000                                                                                                                                                     01424 G000000021261 0000000000000.33     00050 02200                  
09378790331370018DR675906759000000142748001028000000101652EFA8A22T6C0E5CBB1E88  Y000000021261                 P1                                                                                                                                                                                                                                                                                                                                                                                                                                                                                                                                                                                                            
09378800331370001P16759067590000001427480010280000001010000000000000000                             1000000001391000000000000              000000000000                    0000000000000000000000000                    000000000000                                                                                                                                                                                                                                                                                                                                                                                                                                                                                        
09378810331370002G2675906759000000142748001028000000101866-6317293              GA           9 D                00                                      NNNN   N                      000000000000                                                                   77145232                                                                                                                                                                                                                                                                                                                                                                                                                                               
09378820331370019DT67590675900000014274800102800000010180010287287283195900014997968071320230000002106219523000000000075305518747XXXXXX8817       ME03KE06MS02      NY 4607AMPLTLY5S40710  N840000000021062          81DNCBD8666317293            84505B    MC84000000021062 NDR549977145232   2EA507E8A2TF1575D0564EE  000000000+600450S00130    MPL  00580                     000000000  N                0000000000000.00 0000000.00   0000000.00                             000000000000000                                                                                                                                                   U001424  000000000000 0000000000004.52     02100 01000                  
09378830331370019DR6759067590000001427480010280000001012EA507E8A2TF1575D0564EE  Y000000000000                                                                                                                                                                                                                                                                                                                                                                                                                                                                                                                                                                                                                               
09378840331370001G2675906759000000142748001028000000101866-6317293              GA           9 L               210                                      NNNN           210000000000000000000000000                        7                                          77145232                                                                                                                                                                                                                                                                                                                                                                                                                                               
09378850331370020BH6759067590000000288180088880000090170714202319523000000000013753    0000090001620324Y8008886759C07172023162                                                                                                                                                                                                                                                                                                                                                                                                                                                                                                                                                                                              
09378860331370021DT67590675900000002881800888800000010180088824001193195900016203232071420230000000469719523000000000013753419002XXXXXX4595               2111111   NYV4 A7W303195684171243N8400000000046979SV500    01DNHAPPY HIPPIE             007057    VD84000000004697 NDR549976044904   2143                     000000000+                F DF 10420                     000000000  Y000000000 338   0000000000000.00 0000000.00   0000000.00                             000000000000000                                                                                                                                                     01424 G000000004697 0000000000000.24     00050 02200                  
09378870331370021DR6759067590000000288180088880000001012143                     Y000000004697                 P1                                                                                                                                                                                                                                                                                                                                                                                                                                                                                                                                                                                                            
09378880331370001P16759067590000000288180088880000001010000000000000000                             2000000000000000000000000              000000000000                    0000000000000000000000000                    000000000000                                                                                                                                                                                                                                                                                                                                                                                                                                                                                        
09378890331370002G2675906759000000028818008888000000101865-3663142              TN           9 D                00                                      NNNN   N                      000000000000                                                                   76044904                                                                                                                                                                                                                                                                                                                                                                                                                                               
09378900331370022DT67590675900000002881800888800000010180088824001193195900016203240071420230000000905619523000000000013753409758XXXXXX7845               2111111   NYV4 A7W583195846893866N840000000009056P2KQ00    01DNHAPPY HIPPIE             619056    VD84000000009056 NDR549976044904   2144                     000000000+                F PF 08175                     000000000  N000000000       0000000000000.00 0000000.00   0000000.00                             000000000000000                                                                                                                                                     01424 G000000009056 0000000000001.78     01750 02000                  
09378910331370022DR6759067590000000288180088880000001012144                     U000000009056                 P1                                                                                                                                                                                                                                                                                                                                                                                                                                                                                                                                                                                                            
09378920331370001P16759067590000000288180088880000001010000000000000000                             2000000000000000000000000              000000000000                    0000000000000000000000000                    000000000000                                                                                                                                                                                                                                                                                                                                                                                                                                                                                        
09378930331370002G2675906759000000028818008888000000101865-3663142              TN           9 P                00                                      NNNN   N                      000000000000                                                                   76044904                                                                                                                                                                                                                                                                                                                                                                                                                                               
09378940331370023BH6759067590000001516480088880000090170714202319523000000000055835    0000090001379102Y8008886759C07172023137                                                                                                                                                                                                                                                                                                                                                                                                                                                                                                                                                                                              
09378950331370024DT67590675900000015164800888800000010180088824001193195900013790603071320230000001987019523000000000055835400022XXXXXX1572               2111111   NYV4 A7W583191204064612N84000000001987024CF00    01DNKETOFUSION833-923-3587   044552    VD84000000019870 NDR599977360677   55EAFF1AFBT1D3DA053DD18  000000000+                F DF 10420                     000000000  Y000000000 338   0000000000000.00 0000000.00   0000000.00                             000000000000000                                                                                                                                                     01424 G000000019870 0000000000000.32     00050 02200                  
09378960331370024DR67590675900000015164800888800000010155EAFF1AFBT1D3DA053DD18  Y000000019870                 P1                                                                                                                                                                                                                                                                                                                                                                                                                                                                                                                                                                                                            
09378970331370001P16759067590000001516480088880000001010000000000000000                             2000000000000000000000000              000000000000                    0000000000000000000000000                    000000000000                                                                                                                                                                                                                                                                                                                                                                                                                                                                                        
09378980331370002G2675906759000000151648008888000000101801-4041097              UT           9 D                00                                      NNNN   N                      000000000000                                                                   77360677                                                                                                                                                                                                                                                                                                                                                                                                                                               
09378990331370025DT67590675900000015164800888800000010180088824001193195900013790645071320230000001194819523000000000055835423817XXXXXX7891               2111111   NYV4 A7W383191398127911N840000000011948HM6400    01DNKETOFUSION833-923-3587   070332    VD84000000011948 NDR599977360677   335A6DAD9CT3EF2589BAF36  000000000+                F DF 00415                     000000000  N000000000       0000000000000.00 0000000.00   0000000.00                             000000000000000                                                                                                                                                     01424 G000000011948 0000000000002.12     01650 01500                  
09379000331370025DR675906759000000151648008888000000101335A6DAD9CT3EF2589BAF36  Y000000011948                 P1                                                                                                                                                                                                                                                                                                                                                                                                                                                                                                                                                                                                            
09379010331370001P16759067590000001516480088880000001010000000000000000                             2000000000000000000000000              000000000000                    0000000000000000000000000                    000000000000                                                                                                                                                                                                                                                                                                                                                                                                                                                                                        
09379020331370002G2675906759000000151648008888000000101801-4041097              UT           9 D                00                                      NNNN   N                      000000000000                                                                   77360677                                                                                                                                                                                                                                                                                                                                                                                                                                               
09379030331370026DT67590675900000015164800888800000010180088824001193195900013790652071320230000001799119523000000000055835474478XXXXXX8518               2111111   NYV4 A7W583191398140986N8400000000179912XWW00    01DNKETOFUSION833-923-3587   160739    VD84000000017991 NDR599977360677   02ABE225D0T2EE3844345F7  000000000+                F DF 10420                     000000000  Y000000000 338   0000000000000.00 0000000.00   0000000.00                             000000000000000                                                                                                                                                     01424 G000000017991 0000000000000.31     00050 02200                  
09379040331370026DR67590675900000015164800888800000010102ABE225D0T2EE3844345F7  Y000000017991                 P1                                                                                                                                                                                                                                                                                                                                                                                                                                                                                                                                                                                                            
09379050331370001P16759067590000001516480088880000001010000000000000000                             2000000000000000000000000              000000000000                    0000000000000000000000000                    000000000000                                                                                                                                                                                                                                                                                                                                                                                                                                                                                        
09379060331370002G2675906759000000151648008888000000101801-4041097              UT           9 D                00                                      NNNN   N                      000000000000                                                                   77360677                                                                                                                                                                                                                                                                                                                                                                                                                                               
09379070331370027DT67590675900000015164800888800000010180088887287283195900013790661071320230000001194819523000000000055835536062XXXXXX4288       ME03KE06MS02      NY 4607AMDJIN90DS0710  N840000000011948          81DNKETOFUSION833-923-3587   919294    MD84000000011948 NDR599977360677   0C0B666FE0TDE7D17800F6D  000000000+600450S00130    MDJ  10813                     000000000  1                0000000000000.00 0000000.00   0000000.00                             000000000000000                                                                                                                                                   U001424  000000000000 0000000000000.28     00050 02200                  
09379080331370027DR6759067590000001516480088880000001010C0B666FE0TDE7D17800F6D  Y000000000000                                                                                                                                                                                                                                                                                                                                                                                                                                                                                                                                                                                                                               
09379090331370001G2675906759000000151648008888000000101833-9233587              UT           9 J               210                                      NNNN           210000000000000000000000000                        7                                          77360677                                                                                                                                                                                                                                                                                                                                                                                                                                               
09379100331370028DT67590675900000015164800888800000010180088824001193195900013790801071320230000001394819523000000000055835455408XXXXXX8187               2111111   NYV4 A7W583191721779476N840000000013948CCJV00    01DNKETOFUSION833-923-3587   160042    VD84000000013948 NDR599977360677   6DAEC7F111TF85C9316BC9B  000000000+                F DF 00415                     000000000  N000000000       0000000000000.00 0000000.00   0000000.00                             000000000000000                                                                                                                                                     01424 G000000013948 0000000000002.45     01650 01500                  
09379110331370028DR6759067590000001516480088880000001016DAEC7F111TF85C9316BC9B  Y000000013948                 P1                                                                                                                                                                                                                                                                                                                                                                                                                                                                                                                                                                                                            
09379120331370001P16759067590000001516480088880000001010000000000000000                             2000000000000000000000000              000000000000                    0000000000000000000000000                    000000000000                                                                                                                                                                                                                                                                                                                                                                                                                                                                                        
09379130331370002G2675906759000000151648008888000000101801-4041097              UT           9 D                00                                      NNNN   N                      000000000000                                                                   77360677                                                                                                                                                                                                                                                                                                                                                                                                                                               
09379140331370029DT67590675900000015164800888800000010680088887287283195900013791024071420230000001987019523000000000055835525475XXXXXX2749                         NY 4607AMWEL83PXK0714  N840000000019870          81CNKETOFUSION833-923-3587   518507    MC84000000019870 NDR599977360677   766136F079TB1C7D196C94C  000000000+600450S00130    MWE  00564                     000000000  N                0000000000000.00 0000000.00   0000000.00                             000000000000000                                                                                                                                                     01424  000000000000-0000000000003.48     01750 00000                  
09379150331370029DR675906759000000151648008888000000106766136F079TB1C7D196C94C  U000000000000                                                                                                                                                                                                                                                                                                                                                                                                                                                                                                                                                                                                                               
09379160331370001G2675906759000000151648008888000000106833-9233587              UT           9 E               210                                      NNNN           210000000000000000000000000                        7                                          77360677                                                                                                                                                                                                                                                                                                                                                                                                                                               
09379170331370030BH675906759000000198288001098000009017071420231952300000000004474001970000090001070805N8001096759D07172023107                                                                                                                                                                                                                                                                                                                                                                                                                                                                                                                                                                                              
09379180331370031DT67590675900000019828800109800000010680010987287283195900010708047071420230000001987019523000000000044740555426XXXXXX6394                         NN 4607AMPGDBYMXK0714  N840000000019870          81CNKETOFUSION 8885968154    0906260197MD84000000019870 NDR599977547467   70CE8495BDT0265582BC792  000000000+600450S00130    MPG  00000                     000000000  N                0000000000000.00 0000000.00   0000000.00             000000000019870C000000000000000                                                                                                                                                     01424  000000000000 0000000000000.00     00000 00000                  
09379190331370031DR67590675900000019828800109800000010670CE8495BDT0265582BC792  N000000000000                                                                                                                                                                                                                                                                                                                                                                                                                                                                                                                                                                                                                               
09379200331370001G2675906759000000198288001098000000106888-5968154              UT           9 G               210                                      NNNN           210000000000000000000000000                                                                   77547467                                                                                                                                                                                                                                                                                                                                                                                                                                               
09379210331370032DT67590675900000019828800109800000010680010987287283195900010708054071420230000002487019523000000000044740511786XXXXXX8554                         NN 4607AMCSMDENXK0714  N840000000024870          81CNKETOFUSION 8885968154    0439020197MC84000000024870 NDR599977547467   BBDE5AA9E9T0565B3A4319D  000000000+600450S00130    MCS  00000                     000000000  N                0000000000000.00 0000000.00   0000000.00             000000000024870C000000000000000                                                                                                                                                     01424  000000000000 0000000000000.00     00000 00000                  
09379220331370032DR675906759000000198288001098000000106BBDE5AA9E9T0565B3A4319D  N000000000000                                                                                                                                                                                                                                                                                                                                                                                                                                                                                                                                                                                                                               
09379230331370001G2675906759000000198288001098000000106888-5968154              UT           9 S               210                                      NNNN           210000000000000000000000000                        7                                          77547467                                                                                                                                                                                                                                                                                                                                                                                                                                               
09379240331370033BH6759067590000001857280010580000090170714202319523000000000052250    0000090001270012Y8001056759C07172023127                                                                                                                                                                                                                                                                                                                                                                                                                                                                                                                                                                                              
09379250331370034DT67590675900000018572800105800000010180010524001193195900012700058071420230000000405419523000000000052250454791XXXXXX4187       VS11    0001111   NYV1 A E583195722346567N8400000000040546H6N00    07DNGALLERY SMOKE SHOP LLC   00634G    VB84000000004054 N  599977453598                            000000000+                G3CG308003                     000000000  N000000000 382   0000000000000.00 0000000.00   0000000.00                             000000000000000                                                                                                                                                     01424 A000000000000 0000000000000.93     02050 01000                  
09379260331370001E1675906759000000185728001058000000101004040400016 00000000000.00404040404040404040404040404040404040404040404040401F420131A00000000010030273000000004000000000000000000000000000  00000840006000000000002307143AC5997D5FA84243A960398C404040400840A000000003101000000000000000000059BD0C9D0086000000000000000000004040404040404040 000000040.54 000000000.004040400000000000000000    80                                                                                                                                                                                                                                                                                                                  
09379270331370002G2675906759000000185728001058000000101SEMINOLE                 FL           5 C                00                                      NNNN00 N 00                   000000000000                                                                   77453598                                                                                                                                                                                                                                                                                                                                                                                                                                               
09379280331370035DT67590675900000018572800105800000010180010524001193195900012700066071420230000000589619523000000000052250454791XXXXXX4187       VS11    0001111   NYV1 A E463195725622099N840000000005896S27G00    07DNGALLERY SMOKE SHOP LLC   07670G    VB84000000005896 N  599977453598                            000000000+                G3CG308003                     000000000  N000000000 382   0000000000000.00 0000000.00   0000000.00                             000000000000000                                                                                                                                                     01424 A000000000000 0000000000001.31     02050 01000                  
09379290331370001E1675906759000000185728001058000000101004040400017 00000000000.00404040404040404040404040404040404040404040404040401F420131A00000000010030273000000004000000000000000000000000000  000008400060000000000023071425EAA0A0A8890EBEFA82DF17404040400840A00000000310100000000000000000009DCDB3010086000000000000000000004040404040404040 000000058.96 000000000.004040400000000000000000    80                                                                                                                                                                                                                                                                                                                  
09379300331370002G2675906759000000185728001058000000101SEMINOLE                 FL           5 C                00                                      NNNN00 N 00                   000000000000                                                                   77453598                                                                                                                                                                                                                                                                                                                                                                                                                                               
09379310331370036DT67590675900000018572800105800000010180010577287283195900012700084071420230000000500519523000000000052250522355XXXXXX4097       MS02WI09          NY 1 0 AMWELTJTMD0714  N840000000005005          07DNGALLERY SMOKE SHOP LLC   56693Z    MC84000000005005 N  599977453598                            000000000+M10101M1134C    MWE  00739                     000000000  N                0000000000000.00 0000000.00   0000000.00                             000000000000000                                                                                                                                                   A101424  000000000000 0000000000001.25     02300 01000                  
09379320331370001E167590675900000018572800105800000010100E060C801CA 00000000000.00404040404040404040404040404040404040404040404040400114A14003020000000000000000000000FF00000000000000000000000000  000008401B8000000080012307147BF859B23CD6DDA6994D8D34404040400840A0000000041010000000000000000000404040404040404040404040404040404040400140404040 000000050.05 000000000.000100020000000000000000    80                                                                                                                                                                                                                                                                                                                  
09379330331370002G2675906759000000185728001058000000101SEMINOLE                 FL           5 E                                                        NNNN              000000000000000000000000       21               C                                          77453598                                                                                                                                                                                                                                                                                                                                                                                                                                               
09379340331370037DT67590675900000018572800105800000010180010524001193195900012700116071420230000000529619523000000000052250421783XXXXXX5993       VS11    0001111   NYV1 A E583195833453509N840000000005296BRL500    05DNGALLERY SMOKE SHOP LLC   084580    VS84000000005296 N  599977453598                            000000000+                A CA 12110                     000000000  N000000000 493   0000000000000.00 0000000.00   0000000.00                             000000000000000                                                                                                                                                     01424 A000000000000 0000000000000.90     01510 01000                  
09379350331370001E167590675900000018572800105800000010100E0F8C800AB 00000000000.004040404040404040404040404040404040404040404040404006011203A0A000000000000000000000404040404040404040404040404040  0000084018008000008000230714ABBDB28CF36D8C4F6DBAC892404040400840A0000000031010000000000000000000D8912EF10080000000000000000000004040405E40404040 000000052.96 000000000.005E00000000000000000000    80                                                                                                                                                                                                                                                                                                                  
09379360331370002G2675906759000000185728001058000000101SEMINOLE                 FL           5 C                00                                      NNNN00 N 00                   000000000000                                                                   77453598                                                                                                                                                                                                                                                                                                                                                                                                                                               
09379370331370038DT67590675900000018572800105800000010180010576509753195900012700130071420230000000796219523000000000052250653949XXXXXX1064   BA80                  NY 1 0 N813168366793170N840000000007962    00    07DNGALLERY SMOKE SHOP LLC   01453R    DS84000000007962 N  599977453598830                         000000000+0000004910H00   DCCDI01000667237  205119000000 000000000  0          112   0000000000000.00 0000000.00   0000000.00                             000000000000000                                                                                                                                                     01424  000000000000 0000000000001.47     01720 01000                  
09379380331370001E167590675900000018572800105800000010100E068C80059 00000000000.004040404040404040404040404040404040404040404040404001152092C0000000B800000000000000404040404040404040404040404040  0001084018008000008000230714FE1CE28D06EE30E57A285F46404040400840A0000001523010010000000100000000404040404040404040404040404040404040401F40404040 000000079.62 000000000.001F00020000000000000000    80                                                                                                                                                                                                                                                                                                                  
09379390331370002G2675906759000000185728001058000000101SEMINOLE                 FL           5 C                00                                      NNNN                          000000000000                         00000650975601179750000360                77453598                                                                                                                                                                                                                                                                                                                                                                                                                                               
09379400331370039DT67590675900000018572800105800000033080010576759003195900012700012071420230000000244719523000000000052250441707XXXXXX3114                         NY 2 0 N               N840000000002447      IL  07DNGALLERY SMOKE SHOP LLC   454707    DB84000000002447 N  599977453598                            000000000+                     09576                                N          346   0000000000000.00 0000000.00   0000000.00                             000000000000000                                                                                                                                                     01424  000000000000 0000000000000.43     01150 00000                  
09379410331370001G2675906759000000185728001058000000330SEMINOLE                 FL           5 P                00                                      NNNN                          000000000000                                                                   77453598                                                                                                                                                                                                                                                                                                                                                                                                                                               
09379420331370040DT67590675900000018572800105800000033080010576759003195900012700020071420230000000575519523000000000052250473702XXXXXX0569                         NY 2 0 N               N840000000005755      IL  05DNGALLERY SMOKE SHOP LLC   028587    DB84000000005755 N  599977453598                            000000000+                     09580                                Y          342   0000000000000.00 0000000.00   0000000.00                             000000000000000                                                                                                                                                     01424  000000000000 0000000000000.25     00050 00000                  
09379430331370001G2675906759000000185728001058000000330SEMINOLE                 FL           5 D                00                                      NNNN                          000000000000                                                                   77453598                                                                                                                                                                                                                                                                                                                                                                                                                                               
09379440331370041DT67590675900000018572800105800000033080010576759003195900012700038071420230000000157319523000000000052250474476XXXXXX2246                         NY 2 0 N               N840000000001573      IL  05DNGALLERY SMOKE SHOP LLC   150572    DB84000000001573 N  599977453598                            000000000+                     09580                                Y          342   0000000000000.00 0000000.00   0000000.00                             000000000000000                                                                                                                                                     01424  000000000000 0000000000000.23     00050 00000                  
09379450331370001G2675906759000000185728001058000000330SEMINOLE                 FL           5 D                00                                      NNNN                          000000000000                                                                   77453598                                                                                                                                                                                                                                                                                                                                                                                                                                               
09379460331370042DT67590675900000018572800105800000033080010576759003195900012700046071420230000000442719523000000000052250442755XXXXXX0449                         NY 2 0 N               N840000000004427      IL  05DNGALLERY SMOKE SHOP LLC   050814    DB84000000004427 N  599977453598                            000000000+                     09580                                Y          342   0000000000000.00 0000000.00   0000000.00                             000000000000000                                                                                                                                                     01424  000000000000 0000000000000.24     00050 00000                  
09379470331370001G2675906759000000185728001058000000330SEMINOLE                 FL           5 D                00                                      NNNN                          000000000000                                                                   77453598                                                                                                                                                                                                                                                                                                                                                                                                                                               
09379480331370043DT67590675900000018572800105800000033080010576759003195900012700079071420230000000093719523000000000052250539107XXXXXX1192                         NY41 0 N               N840000000000937      ME  07DNGALLERY SMOKE SHOP LLC   113744    DB84000000000937 N  599977453598                            000000000+                     09601                                1          MA1   0000000000000.00 0000000.00   0000000.00                             000000000000000                                                                                                                                                     01424  000000000000 0000000000000.22     00050 00000                  
09379490331370001G2675906759000000185728001058000000330SEMINOLE                 FL           5 D                00                                      NNNN                          000000000000                                                                   77453598                                                                                                                                                                                                                                                                                                                                                                                                                                               
09379500331370044DT67590675900000018572800105800000033080010576759003195900012700095071420230000000240619523000000000052250440393XXXXXX1541                         NY 2 0 N               N840000000002406      IL  05DNGALLERY SMOKE SHOP LLC   532155    DB84000000002406 N  599977453598                            000000000+                     09576                                N          346   0000000000000.00 0000000.00   0000000.00                             000000000000000                                                                                                                                                     01424  000000000000 0000000000000.43     01150 00000                  
09379510331370001G2675906759000000185728001058000000330SEMINOLE                 FL           5 P                00                                      NNNN                          000000000000                                                                   77453598                                                                                                                                                                                                                                                                                                                                                                                                                                               
09379520331370045DT67590675900000018572800105800000033080010576759003195900012700103071420230000000529619523000000000052250443040XXXXXX2435                         NY 2 0 N               N840000000005296      IL  05DNGALLERY SMOKE SHOP LLC   418614    DB84000000005296 N  599977453598                            000000000+                     09580                                Y          342   0000000000000.00 0000000.00   0000000.00                             000000000000000                                                                                                                                                     01424  000000000000 0000000000000.25     00050 00000                  
09379530331370001G2675906759000000185728001058000000330SEMINOLE                 FL           5 D                00                                      NNNN                          000000000000                                                                   77453598                                                                                                                                                                                                                                                                                                                                                                                                                                               
09379540331370046DT67590675900000018572800105800000033080010576759003195900012700129071420230000000119619523000000000052250408138XXXXXX0376                         NY 2 0 N               N840000000001196      IL  07DNGALLERY SMOKE SHOP LLC   177796    DB84000000001196 N  599977453598                            000000000+                     09576                                N          346   0000000000000.00 0000000.00   0000000.00                             000000000000000                                                                                                                                                     01424  000000000000 0000000000000.29     01150 00000                  
09379550331370001G2675906759000000185728001058000000330SEMINOLE                 FL           5 P                00                                      NNNN                          000000000000                                                                   77453598                                                                                                                                                                                                                                                                                                                                                                                                                                               
09379560331370047BH6759067590000003377980013880000090170714202319523000000000004888    0000090001260004Y8001386759C07172023026                                                                                                                                                                                                                                                                                                                                                                                                                                                                                                                                                                                              
09379570331370048DT67590675900000033779800138800000010180013824001193195900012600019071420230000000037119523000000000004888448233XXXXXX1021       VK04VS111111111   NYV1 A E303195681218900N840000000000371J4WZ00    07DNSLOW PUFFS LLC           035521    VD84000000000371 N  599378415682                            000000000+                F DF 10439                     000000000  Y000000000 331   0000000000000.00 0000000.00   0000000.00                             000000000000000                                                                                                                                                     01424 F000000000000 0000000000000.22     00050 02200                  
09379580331370001E167590675900000033779800138800000010100E068C8013A 00000000000.004040404040404040404040404040404040404040404040404006011203A00000000000000000000000404040404040404040404040404040  00000840200000000000002307145B62FE4477526080F756AFBB404040400840A0000000031010000000000000000000404040404040404040404040404040404040404040404040 000000003.71 000000000.004040400000000000000000    80                                                                                                                                                                                                                                                                                                                  
09379590331370002G2675906759000000337798001388000000101HAMDEN                   CT           5 D                00                                      NNNN00 N 00                   000000000000                                                                   78415682                                                                                                                                                                                                                                                                                                                                                                                                                                               
09379600331370049DT67590675900000033779800138800000010180013824001193195900012600027071420230000000127519523000000000004888420767XXXXXX9318       VK04VS111111111   NYV1 A E583195724395312N840000000001275RLFZ00    07DNSLOW PUFFS LLC           090716    VD84000000001275 N  599378415682                            000000000+                F DF 10439                     000000000  Y000000000 331   0000000000000.00 0000000.00   0000000.00                             000000000000000                                                                                                                                                     01424 F000000000000 0000000000000.23     00050 02200                  
09379610331370001E167590675900000033779800138800000010100E068C8008B 00000000000.004040404040404040404040404040404040404040404040404006011203A00000000000000000000000404040404040404040404040404040  000008400000000000000023071405725F1BB1768A99E41D82D6404040400840A0000000031010000000000000000000404040404040404040404040404040404040404040404040 000000012.75 000000000.004040400000000000000000    80                                                                                                                                                                                                                                                                                                                  
09379620331370002G2675906759000000337798001388000000101HAMDEN                   CT           5 D                00                                      NNNN00 N 00                   000000000000                                                                   78415682                                                                                                                                                                                                                                                                                                                                                                                                                                               
09379630331370050DT67590675900000033779800138800000010180013824001193195900012600035071420230000000265819523000000000004888473702XXXXXX7484       VS11    0001111   NYV1 A E583196011425265N840000000002658PDTT00    05DNSLOW PUFFS LLC           026548    VD84000000002658 N  599378415682                            000000000+                F DF 10433                     000000000  Y000000000 338   0000000000000.00 0000000.00   0000000.00                             000000000000000                                                                                                                                                     01424 A000000000000 0000000000000.23     00050 02200                  
09379640331370001E167590675900000033779800138800000010100E0F8C80A57 00000000000.004040404040404040404040404040404040404040404040404006061203A0A000000000000000000000404040404040404040404040404040  00000840180080800080002307146F9E5F9B9DC58DD1320D0D0B404040400840A000000003101000000000000000000000F0E00060D0C0C020200000000000004040401E40404040 000000026.58 000000000.001E00000000000000000000    80                                                                                                                                                                                                                                                                                                                  
09379650331370002G2675906759000000337798001388000000101HAMDEN                   CT           5 D                00                                      NNNN00 N 00                   000000000000                                                                   78415682                                                                                                                                                                                                                                                                                                                                                                                                                                               
09379660331370051DT67590675900000033779800138800000010180013824001193195900012600043071420230000000058419523000000000004888411776XXXXXX8959       VK04VS111111111   NYV1 A E583196063903236N8400000000005847MWC00    07DNSLOW PUFFS LLC           184369    VD84000000000584 N  599378415682                            000000000+                F DF 10439                     000000000  Y000000000 331   0000000000000.00 0000000.00   0000000.00                             000000000000000                                                                                                                                                     01424 F000000000000 0000000000000.22     00050 02200                  
09379670331370001E167590675900000033779800138800000010100E068C80271 00000000000.004040404040404040404040404040404040404040404040404006021203A00000000000000000000000404040404040404040404040404040  0000084020000000000000230714E4C66EA539048BC2FF14AEF0404040400840A0000000031010000000000000000000404040404040404040404040404040404040404040404040 000000005.84 000000000.004040400000000000000000    80                                                                                                                                                                                                                                                                                                                  
09379680331370002G2675906759000000337798001388000000101HAMDEN                   CT           5 D                00                                      NNNN00 N 00                   000000000000                                                                   78415682                                                                                                                                                                                                                                                                                                                                                                                                                                               
09379690331370052BH6759067590000003433080014180000090170714202319523000000000151059    0000090001120045Y8001416759C07172023012                                                                                                                                                                                                                                                                                                                                                                                                                                                                                                                                                                                              
09379700331370053DT67590675900000034330800141800000010180014124001193195900011200019071420230000000081919523000000000151059473703XXXXXX7829       VK04VS111111111   NYV1 A E383195538136827N840000000000819B7XK00    07DNJBLISS LLC               058239    VD84000000000819 N  599978512540                            000000000+                F DF 10439                     000000000  Y000000000 331   0000000000000.00 0000000.00   0000000.00                             000000000000000                                                                                                                                                     01424 F000000000000 0000000000000.22     00050 02200                  
09379710331370001E167590675900000034330800141800000010100E068C80294 00000000000.004040404040404040404040404040404040404040404040404006061203A00000000000000000000000404040404040404040404040404040  0000084000000000000000230714C11CFF6B15D1CC8A17E61290404040400840A00000000310100000000000000000009090B090A020C03020200000000000004040404040404040 000000008.19 000000000.004040400000000000000000    80                                                                                                                                                                                                                                                                                                                  
09379720331370002G2675906759000000343308001418000000101GREENWOOD                SC           5 D                00                                      NNNN00 N 00                   000000000000                                                                   78512540                                                                                                                                                                                                                                                                                                                                                                                                                                               
09379730331370054DT67590675900000034330800141800000010180014124001193195900011200027071420230000000160419523000000000151059450772XXXXXX0284       VS11    0001111   NYV1 A E383195548709751N8400000000016043PDR00    07DNJBLISS LLC               333344    VD84000000001604 N  599978512540                            000000000+                F DF 00381                     000000000  N000000000       0000000000000.00 0000000.00   0000000.00                             000000000000000                                                                                                                                                     01424 A000000000000 0000000000000.28     00800 01500                  
09379740331370001E167590675900000034330800141800000010100E068C80027 00000000000.00404040404040404040404040404040404040404040404040401F42FF32A00000000010030273000000004000000000000000000000000000  0000084000600000000000230714C68889B403DFC0EB3B5E91B5404040400840A00000000310100000000000000000009D3EEBFE0086000000000000000000004040404040404040 000000016.04 000000000.004040400000000000000000    80                                                                                                                                                                                                                                                                                                                  
09379750331370002G2675906759000000343308001418000000101GREENWOOD                SC           5 D                00                                      NNNN00 N 00                   000000000000                                                                   78512540                                                                                                                                                                                                                                                                                                                                                                                                                                               
09379760331370055DT67590675900000034330800141800000010180014124001193195900011200035071420230000000203219523000000000151059448261XXXXXX1009       VS11    0001111   NYV1 A E463195549378646N8400000000020329G7900    05DNJBLISS LLC               335376    VD84000000002032 N  599978512540                            000000000+                F DF 10433                     000000000  Y000000000 338   0000000000000.00 0000000.00   0000000.00                             000000000000000                                                                                                                                                     01424 A000000000000 0000000000000.23     00050 02200                  
