00003240214420002BH6759067590000000370780088880000090170109202300923000000000049148    0000090001120080Y8008886759C01102023                                                                                                                                                                                                                                                                                                                                                                                                                                                                                                                                                                                                 
00003250214420003DT67590675900000003707800888800000010180088824001193009900011200775010920230000000600000923000000000049148443044XXXXXX1630               2111111   NYV4 A7W383009361105776N840000000006000SMJ400    01DNMR HEMP FLOWER           341405    VD84000000006000 NP1549976053336   83965                    000000000+                F DF 10420                     000000000  Y000000000 338   0000000000000.00 0000000.00   0000000.00                             000000000000000                                                                                                                                                     01424 G000000006000 0000000000000.25     00050 02200                  
00003260214420001P16759067590000000370780088880000001010000000000000000                             2000000000000000000000000              000000000000                    0000000000000000000000000                    000000000000                                                                                                                                                                                                                                                                                                                                                                                                                                                                                        
00003270214420004DT67590675900000003707800888800000010180088887287283009900011200784010920230000002465000923000000000049148529149XXXXXX9487       ME03KE06MS02      NY 4607AMWESYZBJW0109  N840000000024650          81DNMR HEMP FLOWER           03569P    MC84000000024650 N  549976053336   83973                    000000000+600450S00130    MWE  00737                     000000000  N                0000000000000.00 0000000.00   0000000.00                             000000000000000                                                                                                                                                   U001424  000000000000 0000000000006.51     02600 01000                  
00003280214420005DT67590675900000003707800888800000010180088824001193009900011200791010920230000000799900923000000000049148480990XXXXXX4645               2111111   NYV4 A7W583009737667994N8400000000079995H5X00    01DNMR HEMP FLOWER           098742    VD84000000007999 NP1549976053336   83987                    000000000+                F DF 10420                     000000000  Y000000000 338   0000000000000.00 0000000.00   0000000.00                             000000000000000                                                                                                                                                     01424 G000000007999 0000000000000.26     00050 02200                  
00003290214420001P16759067590000000370780088880000001010000000000000000                             2000000000000000000000000              000000000000                    0000000000000000000000000                    000000000000                                                                                                                                                                                                                                                                                                                                                                                                                                                                                        
00003300214420006DT67590675900000003707800888800000010180088824001193009900011200809010920230000001049900923000000000049148411774XXXXXX0274               2111111   NYV4 A7W383009751553675N840000000010499F66G00    01DNMR HEMP FLOWER           105424    VD84000000010499 NP1549976053336   83988                    000000000+                F DF 10420                     000000000  Y000000000 338   0000000000000.00 0000000.00   0000000.00                             000000000000000                                                                                                                                                     01424 G000000010499 0000000000000.27     00050 02200                  
00003310214420001P16759067590000000370780088880000001010000000000000000                             2000000000000000000000000              000000000000                    0000000000000000000000000                    000000000000                                                                                                                                                                                                                                                                                                                                                                                                                                                                                        
