01524280293390002BH6759067590000000215480088880000090171213202234722000000000263925    0000090001595260N8008886759C12142022                                                                                                                                                                                                                                                                                                                                                                                                                                                                                                                                                                                                 
01524290293390003DT67590675900000002154800888800000010180088824001192347900015988360121320220000013775034722000000000263925472775XXXXXX4999               2111111   NYV4 A7W382347799491208N840000000137750LPWN00    01DNDRIP DROP DISTRO LLC     000007    VD84000000137750 NP1519971004114   INV-27832                000000000+                G DG 08705                     000000000  N000000000       0000000000000.00 0000000.00   0000000.00                             000000000000000                                                                                                                                                     01418 G000000137750 0000000000033.85     02450 01000                  
01524300293390001P16759067590000000215480088880000001010000000000000000    43818824548              2000000000000000000000000              000000000000                    0000000000000000000000000                    000000000000                                                                                                                                                                                                                                                                                                                                                                                                                                                                                        
01524310293390004DT67590675900000002154800888800000010180088887287282347900015952607121320220000012617534722000000000263925534875XXXXXX6300                         NY 4607AMDBJ744YP1213  N840000000126175          81DNDRIP DROP DISTRO LLC     101066    MD84000000126175 NP1519900000001   17096                    000000000+600450S00140    MDB  10786                     000000000  1                0000000000000.00 0000000.00   0000000.00                             000000000000000                                                                                                                                                   U001418  000000000000 0000000000000.85     00050 02200                  
01524320293390001P1675906759000000021548008888000000101                                                          000000000000          8000            471534935                                                                                                                                                                                                                                                                                                                                                                                                                                                                                                                                                            
