00003070114690002BH6759067590000001165080088880000090170306202306523000000000065081    0000090001230015N8008886759C03062023                                                                                                                                                                                                                                                                                                                                                                                                                                                                                                                                                                                                 
00003080114690003DT67590675900000011650800888800000010180088877287283065900012300015030520230000000068006523000000000065081535392XXXXXX5498       MS02WI09          NY 1 0 AMDJTMI5HK0305  N840000000000680          07DNVPODS HOLDING INC        520597    MD84000000000680 N  599977032122                            000000000+M10101M0034C    MDJ  10815                     000000000  1                0000000000000.00 0000000.00   0000000.00                             000000000000000                                                                                                                                                   A101424  000000000000 0000000000000.22     00050 02200                  
00003090114690004DT67590675900000011650800888800000010180088824001193065900012300021030520230000000283806523000000000065081483316XXXXXX1863       VS11    0001111   NYV1 A E463064684118588N840000000002838VT4D00    05DNVPODS HOLDING INC        010014    VD84000000002838 N  599977032122                            000000000+                F DF 10433                     000000000  Y000000000 338   0000000000000.00 0000000.00   0000000.00                             000000000000000                                                                                                                                                     01424 A000000000000 0000000000000.23     00050 02200                  
00003100114690005DT67590675900000011650800888800000010180088824001193065900012300039030520230000000681106523000000000065081414720XXXXXX5005       VS11    0001111   NYV1 A E383064692242946N840000000006811PCNV00    05DNVPODS HOLDING INC        00347D    VS84000000006811 N  599977032122                            000000000+                D CD 12113                     000000000  N000000000 499   0000000000000.00 0000000.00   0000000.00                             000000000000000                                                                                                                                                     01424 A000000000000 0000000000001.53     02100 01000                  
00003110114690006DT67590675900000011650800888800000010180088824001193065900012300047030520230000000284206523000000000065081419002XXXXXX5021       VS11    0001111   NYV1 A E383064725646451N840000000002842TPDJ00    07DNVPODS HOLDING INC        026881    VD84000000002842 N  599977032122                            000000000+                F DF 10433                     000000000  Y000000000 338   0000000000000.00 0000000.00   0000000.00                             000000000000000                                                                                                                                                     01424 A000000000000 0000000000000.23     00050 02200                  
00003120114690007DT67590675900000011650800888800000010180088824001193065900012300054030520230000000249706523000000000065081483312XXXXXX6998       VS11    0001111   NYV1 A E463064751159734N840000000002497J73200    07DNVPODS HOLDING INC        055115    VD84000000002497 N  599977032122                            000000000+                F DF 10433                     000000000  Y000000000 338   0000000000000.00 0000000.00   0000000.00                             000000000000000                                                                                                                                                     01424 A000000000000 0000000000000.23     00050 02200                  
00003130114690008DT67590675900000011650800888800000010180088824001193065900012300062030520230000001959206523000000000065081423223XXXXXX9330       VS11    0001111   NYV1 A E383064766671013N8400000000195924X6T00    05DNVPODS HOLDING INC        050317    VD84000000019592 N  599977032122                            000000000+                F DF 00381                     000000000  N000000000       0000000000000.00 0000000.00   0000000.00                             000000000000000                                                                                                                                                     01424 A000000000000 0000000000001.72     00800 01500                  
00003140114690009DT67590675900000011650800888800000010180088824001193065900012300070030520230000000204206523000000000065081443044XXXXXX4101       VS11    0001111   NYV1 A E463064793264898N840000000002042P8LC00    07DNVPODS HOLDING INC        433543    VD84000000002042 N  599977032122                            000000000+                F DF 10433                     000000000  Y000000000 338   0000000000000.00 0000000.00   0000000.00                             000000000000000                                                                                                                                                     01424 A000000000000 0000000000000.23     00050 02200                  
00003150114690010DT67590675900000011650800888800000010180088824001193065900012300088030520230000000317906523000000000065081414720XXXXXX1276       VS11    0001111   NYV1 A E303065028309579N8400000000031798KR300    07DNVPODS HOLDING INC        01303C    VS84000000003179 N  599977032122                            000000000+                C CC 12112                     000000000  N000000000 497   0000000000000.00 0000000.00   0000000.00                             000000000000000                                                                                                                                                     01424 A000000000000 0000000000000.62     01650 01000                  
00003160114690011DT67590675900000011650800888800000010180088824001193065900012300096030520230000000385906523000000000065081491712XXXXXX1435       VS11    0001111   NYV1 A E383065059370926N840000000003859SCB300    07DNVPODS HOLDING INC        073820    VD84000000003859 N  599977032122                            000000000+                F DF 10433                     000000000  Y000000000 338   0000000000000.00 0000000.00   0000000.00                             000000000000000                                                                                                                                                     01424 A000000000000 0000000000000.24     00050 02200                  
00003170114690012DT67590675900000011650800888800000010180088824001193065900012300104030520230000000100006523000000000065081465992XXXXXX9780       VK04VS111111111   NYV1 A E463065063729697N8400000000010008GCD00    07DNVPODS HOLDING INC        195730    VD84000000001000 N  599977032122                            000000000+                F DF 00451                     000000000  N000000000 214   0000000000000.00 0000000.00   0000000.00                             000000000000000                                                                                                                                                     01424 F000000000000 0000000000000.20     01550 00400                  
00003180114690013DT67590675900000011650800888800000010180088824001193065900012300112030520230000000157506523000000000065081434236XXXXXX9826       VS11    0001111   NYV1 A E463065063867313N8400000000015757V8T00    07DNVPODS HOLDING INC        096320    VD84000000001575 N  599977032122                            000000000+                F DF 00381                     000000000  N000000000       0000000000000.00 0000000.00   0000000.00                             000000000000000                                                                                                                                                     01424 A000000000000 0000000000000.28     00800 01500                  
00003190114690014DT67590675900000011650800888800000010180088824001193065900012300120030520230000000624406523000000000065081407204XXXXXX1249       VS11    0001111   NYV1 A E463065076553100N840000000006244BP4C00    05DNVPODS HOLDING INC        073542    VD84000000006244 N  599977032122                            000000000+                F DF 00381                     000000000  N000000000       0000000000000.00 0000000.00   0000000.00                             000000000000000                                                                                                                                                     01424 A000000000000 0000000000000.65     00800 01500                  
00003200114690015DT67590675900000011650800888800000010180088824001193065900012300138030520230000000283806523000000000065081407204XXXXXX0793       VS11    0001111   NYV1 A E303065077030480N840000000002838BV5C00    05DNVPODS HOLDING INC        082355    VD84000000002838 N  599977032122                            000000000+                F DF 00381                     000000000  N000000000       0000000000000.00 0000000.00   0000000.00                             000000000000000                                                                                                                                                     01424 A000000000000 0000000000000.38     00800 01500                  
00003210114690016DT67590675900000011650800888800000010180088824001193065900012300146030520230000000283906523000000000065081465098XXXXXX8973       VS11    0001111   NYV1 A E583065111101592N840000000002839PK9W00    07DNVPODS HOLDING INC        086289    VD84000000002839 N  599977032122                            000000000+                F DF 10433                     000000000  Y000000000 338   0000000000000.00 0000000.00   0000000.00                             000000000000000                                                                                                                                                     01424 A000000000000 0000000000000.23     00050 02200                  
00003220114690017DT67590675900000011650800888800000010180088877287283065900012300155030520230000000624506523000000000065081527482XXXXXX5219       MS02WI09          NY 1 0 AMDJBOUZ2V0305  N840000000006245          07DNVPODS HOLDING INC        005009    MD84000000006245 N  599977032122                            000000000+M10101M1134C    MDJ  10815                     000000000  1                0000000000000.00 0000000.00   0000000.00                             000000000000000                                                                                                                                                   A101424  000000000000 0000000000000.25     00050 02200                  
