00165410572180002BH6759067590000005226680016880000090171226202336023000000000001139    0000090001130002N8001686759C12262023013                                                                                                                                                                                                                                                                                                                                                                                                                                                                                                                                                                                              
00165420572180003DT67590675900000052266800168800000010180016877287283360900011300018122420230000000049836023000000000001139531260XXXXXX3348       MS02WI09          NY 1 0 AMDJX986AG1224  N840000000000498          05DNSANIYAH ENTERPRISES LLC  120339    MD84000000000498 N  599975076893                            000000000+M10101C5434C    MDJ  10815                     000000000  1                0000000000000.00 0000000.00   0000000.00                             000000000000000                                                                                                                                                   B101424  000000000000 0000000000000.22     00050 02200                  
00165430572180001E167590675900000052266800168800000010100E0F8C800A6 00000000000.00404040404040404040404040404040404040404040404040400414A00201A20000000000000000000000FF00000000000000000000000000  000008401800800000800023122457D551A3CA7AA8F1EC3E010E404040400840A0000000041010000000000000000000EBD5CF059D6736F500100000000000004040401E40404040 000000004.98 000000000.001E03000000000000000000    80                                                                                                                                                                                                                                                                                                                  
00165440572180002G2675906759000000522668001688000000101PORT SAINT LU            FL           5 J                                                        NNNN              000000000000000000000000                        7                                          75076893                                                                                                                                                                                                                                                                                                                                                                                                                                               
00165450572180004DT67590675900000052266800168800000010180016824001193360900011300024122420230000000064136023000000000001139440393XXXXXX9980       VK04VS111111111   NYV1 A E303358657353776N840000000000641Q4FG00    05DNSANIYAH ENTERPRISES LLC  492131    VD84000000000641 N  599975076893                            000000000+                F PF 08165                     000000000  N000000000       0000000000000.00 0000000.00   0000000.00                             000000000000000                                                                                                                                                     01424 F000000000000 0000000000000.15     01600 00500                  
00165460572180001E167590675900000052266800168800000010100E0F8C8000A 00000000000.004040404040404040404040404040404040404040404040404006011203A08000000000000000000000404040404040404040404040404040  00000840180080800080002312243023CFE86394E1318B6E8C44404040400840A00000000310100000000000000000001E52E450A62104B530300000000000004040401E40404040 000000006.41 000000000.001E00000000000000000000    80                                                                                                                                                                                                                                                                                                                  
00165470572180002G2675906759000000522668001688000000101PORT SAINT LU            FL           5 P                00                                      NNNN00 N 00                   000000000000                                                                   75076893                                                                                                                                                                                                                                                                                                                                                                                                                                               
00165480572180005BH6759067590000003284780013580000090171226202336023000000000035519    0000090001170007N8001356759C12262023217                                                                                                                                                                                                                                                                                                                                                                                                                                                                                                                                                                                              
00165490572180006DT67590675900000032847800135800000010180013524001193360900011700017122420230000000021536023000000000035519421783XXXXXX9843       VK04VS111111111   NYV1 A E383358623864935N840000000000215K3F900    05DNDAYDREAMS SMOKE WORLD LLC003327    VS84000000000215 N  599378480415                            000000000+                C CC 12112                     000000000  N000000000 497   0000000000000.00 0000000.00   0000000.00                             000000000000000                                                                                                                                                     01424 F000000000000 0000000000000.14     01650 01000                  
00165500572180001E167590675900000032847800135800000010100E0F8C8009C 00000000000.004040404040404040404040404040404040404040404040404006011203A0A000000000000000000000404040404040404040404040404040  0000084018008000008000231224972AEAB991E570009559172C404040400840A00000000310100000000000000000009FB5C3C00080000000000000000000004040405E40404040 000000002.15 000000000.005E00000000000000000000    80                                                                                                                                                                                                                                                                                                                  
00165510572180002G2675906759000000328478001358000000101MCALLEN                  TX           5 C                00                                      NNNN00 N 00                   000000000000                                                                   78480415                                                                                                                                                                                                                                                                                                                                                                                                                                               
00165520572180007DT67590675900000032847800135800000010180013577287283360900011700050122420230000001331336023000000000035519517805XXXXXX2892       MS02WI09          NY 1 0 AMWEBAWPAH1224  N840000000013313          05DNDAYDREAMS SMOKE WORLD LLC00452P    MC84000000013313 N  599378480415                            000000000+M10101C5434C    MWE  00739                     000000000  N                0000000000000.00 0000000.00   0000000.00                             000000000000000                                                                                                                                                   B101424  000000000000 0000000000003.16     02300 01000                  
00165530572180001E167590675900000032847800135800000010100E0F8C8008B 00000000000.00404040404040404040404040404040404040404040404040400110A04001220000000000000000000000FF00000000000000000000000000  00010840390000000080002312243C8D548F57F040F96337A03E404040400840A000000004101000000000000000000045FDD3F97E9EEDBB00120000000000004040401E40404040 000000133.13 000000000.001E03000000000000000000    80                                                                                                                                                                                                                                                                                                                  
00165540572180002G2675906759000000328478001358000000101MCALLEN                  TX           5 E                                                        NNNN              000000000000000000000000                        7                                          78480415                                                                                                                                                                                                                                                                                                                                                                                                                                               
00165550572180008DT67590675900000032847800135800000010180013524001193360900011700066122420230000000443536023000000000035519423223XXXXXX7473       VS11    0001111   NYV1 A E303358770184990N840000000004435GHF500    05DNDAYDREAMS SMOKE WORLD LLC078069    VD84000000004435 N  599378480415                            000000000+                F DF 00381                     000000000  N000000000       0000000000000.00 0000000.00   0000000.00                             000000000000000                                                                                                                                                     01424 A000000000000 0000000000000.50     00800 01500                  
00165560572180001E167590675900000032847800135800000010100E0F8C8009F 00000000000.004040404040404040404040404040404040404040404040404006011203A08000000000000000000000404040404040404040404040404040  0000084018008000008000231224181BDB7FB2C18A003DCACC01404040400840A0000000031010000000000000000000403A1C670080000000000000000000004040405E40404040 000000044.35 000000000.005E00000000000000000000    80                                                                                                                                                                                                                                                                                                                  
00165570572180002G2675906759000000328478001358000000101MCALLEN                  TX           5 D                00                                      NNNN00 N 00                   000000000000                                                                   78480415                                                                                                                                                                                                                                                                                                                                                                                                                                               
00165580572180009DT67590675900000032847800135800000033080013576759003360900011700020122420230000000410736023000000000035519422968XXXXXX1389                         NY 2 0 N               N840000000004107      IL  05DNDAYDREAMS SMOKE WORLD LLCB24407    DB84000000004107 N  599378480415                            000000000+                     09584                                Y          273   0000000000000.00 0000000.00   0000000.00                             000000000000000                                                                                                                                                     01424  000000000000 0000000000000.24     00050 00000                  
00165590572180001G2675906759000000328478001358000000330MCALLEN                  TX           5 D                00                                      NNNN                          000000000000                                                                   78480415                                                                                                                                                                                                                                                                                                                                                                                                                                               
00165600572180010DT67590675900000032847800135800000033080013576759003360900011700038122420230000000297436023000000000035519434769XXXXXX8664                         NY 2 0 N               N840000000002974      IL  05DNDAYDREAMS SMOKE WORLD LLC033314    DB84000000002974 N  599378480415                            000000000+                     09580                                Y          342   0000000000000.00 0000000.00   0000000.00                             000000000000000                                                                                                                                                     01424  000000000000 0000000000000.23     00050 00000                  
00165610572180001G2675906759000000328478001358000000330MCALLEN                  TX           5 D                00                                      NNNN                          000000000000                                                                   78480415                                                                                                                                                                                                                                                                                                                                                                                                                                               
00165620572180011DT67590675900000032847800135800000033080013576759003360900011700046122420230000000497736023000000000035519467010XXXXXX9096                         NY 2 0 N               N840000000004977      IL  05DNDAYDREAMS SMOKE WORLD LLC749530    DB84000000004977 N  599378480415                            000000000+                     09580                                Y          342   0000000000000.00 0000000.00   0000000.00                             000000000000000                                                                                                                                                     01424  000000000000 0000000000000.24     00050 00000                  
00165630572180001G2675906759000000328478001358000000330MCALLEN                  TX           5 D                00                                      NNNN                          000000000000                                                                   78480415                                                                                                                                                                                                                                                                                                                                                                                                                                               
00165640572180012DT67590675900000032847800135800000033080013576759003360900011700079122420230000000549836023000000000035519400022XXXXXX8155                         NY 2 0 N               N840000000005498      IL  07DNDAYDREAMS SMOKE WORLD LLC339578    DB84000000005498 N  599378480415                            000000000+                     09580                                Y          342   0000000000000.00 0000000.00   0000000.00                             000000000000000                                                                                                                                                     01424  000000000000 0000000000000.25     00050 00000                  
00165650572180001G2675906759000000328478001358000000330MCALLEN                  TX           5 D                00                                      NNNN                          000000000000                                                                   78480415                                                                                                                                                                                                                                                                                                                                                                                                                                               
00165660572180013BH6759067590000003284780013580000090171226202336023000000000037210    0000090001890010N8001356759C12262023189                                                                                                                                                                                                                                                                                                                                                                                                                                                                                                                                                                                              
00165670572180014DT67590675900000032847800135800000010180013577287283360900018900026122420230000000035636023000000000037210534774XXXXXX1037                         NY 1 0 AMDBU5Q8S51224  N840000000000356          05DNDAYDREAMS SMOKE WORLD LLC481238    MD84000000000356 NP1599378639007                            000000000+M10101C5434C    MDB  00062                     000000000  N                0000000000000.00 0000000.00   0000000.00                             000000000000000                                                                                                                                                   B101424  000000000000 0000000000000.19     02650 01000                  
00165680572180001P1675906759000000328478001358000000101                                                          000000000000          8000            207694663                                                                                                                                                                                                                                                                                                                                                                                                                                                                                                                                                            
00165690572180002E167590675900000032847800135800000010100E0F8C801F1 00000000000.00404040404040404040404040404040404040404040404040400114A04001220000000000000000000000FF00000000000000000000000000  000008403900000000800023122462B69E6967FCF0A806E769C1404040400840A0000000041010000000000000000000C2717F1C62881BAC00120000000000004040401E40404040 000000003.56 000000000.001E03000000000000000000    80                                                                                                                                                                                                                                                                                                                  
00165700572180003G2675906759000000328478001358000000101MCALLEN                  TX           5 B                                    207694663           YNNN              000000000000000000000000                        7                                          78639007                                                                                                                                                                                                                                                                                                                                                                                                                                               
00165710572180015DT67590675900000032847800135800000010180013524001193360900018900057122420230000000859436023000000000037210400022XXXXXX9205       VS11    0001111   NYV1 A E463358839547967N8400000000085944RNB00    05DNDAYDREAMS SMOKE WORLD LLC656871    VD84000000008594 N  599378639007                            000000000+                F DF 10433                     000000000  Y000000000 338   0000000000000.00 0000000.00   0000000.00                             000000000000000                                                                                                                                                     01424 A000000000000 0000000000000.26     00050 02200                  
00165720572180001E167590675900000032847800135800000010100E0F8C80262 00000000000.004040404040404040404040404040404040404040404040404006021203A0A000000000000000000000404040404040404040404040404040  0000084018008000008000231224A68E3E846F6B2FA131E9CC45404040400840A0000000031010000000000000000000404040404040404040404040404040404040405E40404040 000000085.94 000000000.005E00000000000000000000    80                                                                                                                                                                                                                                                                                                                  
00165730572180002G2675906759000000328478001358000000101MCALLEN                  TX           5 D                00                                      NNNN00 N 00                   000000000000                                                                   78639007                                                                                                                                                                                                                                                                                                                                                                                                                                               
00165740572180016DT67590675900000032847800135800000010180013524001193360900018900081122420230000000535736023000000000037210414720XXXXXX8237       VS11    0001111   NYV1 A E303359070673068N840000000005357DN3R00    05DNDAYDREAMS SMOKE WORLD LLC02414I    VS84000000005357 N  599378639007                            000000000+                I CI 12777                     000000000  N000000000 690   0000000000000.00 0000000.00   0000000.00                             000000000000000                                                                                                                                                     01424 A000000000000 0000000000001.33     02300 01000                  
00165750572180001E167590675900000032847800135800000010100E0F8C80050 00000000000.004040404040404040404040404040404040404040404040404006021203A02002000000000000000000404040404040404040404040404040  0002084038000000008000231224CE273A98173FF2F31D576510404040400840A000000003101000000000000000000099005FC40082000000000000000000004040405E40404040 000000053.57 000000000.005E00000000000000000000    80                                                                                                                                                                                                                                                                                                                  
00165760572180002G2675906759000000328478001358000000101MCALLEN                  TX           5 C                00                                      NNNN00QY 00                   000000000000                                                                   78639007                                                                                                                                                                                                                                                                                                                                                                                                                                               
00165770572180017DT67590675900000032847800135800000033080013576759003360900018900011122420230000000768336023000000000037210525691XXXXXX7887                         NY42 0 N               N840000000007683      ME  05DNDAYDREAMS SMOKE WORLD LLC012479    DB84000000007683 N  599378639007                            000000000+                     09597                                N                0000000000000.00 0000000.00   0000000.00                             000000000000000                                                                                                                                                     01424  000000000000 0000000000000.84     00900 00000                  
00165780572180001G2675906759000000328478001358000000330MCALLEN                  TX           5 D                00                                      NNNN                          000000000000                                                                   78639007                                                                                                                                                                                                                                                                                                                                                                                                                                               
00165790572180018DT67590675900000032847800135800000033080013576759003360900018900037122420230000000021436023000000000037210443045XXXXXX6030                         NY 2 0 N               N840000000000214      IL  05DNDAYDREAMS SMOKE WORLD LLC993981    DB84000000000214 N  599378639007                            000000000+                     09580                                Y          342   0000000000000.00 0000000.00   0000000.00                             000000000000000                                                                                                                                                     01424  000000000000 0000000000000.22     00050 00000                  
00165800572180001G2675906759000000328478001358000000330MCALLEN                  TX           5 D                00                                      NNNN                          000000000000                                                                   78639007                                                                                                                                                                                                                                                                                                                                                                                                                                               
00165810572180019DT67590675900000032847800135800000033080013576759003360900018900045122420230000000432936023000000000037210423259XXXXXX7736                         NY 2 0 N               N840000000004329      IL  05DNDAYDREAMS SMOKE WORLD LLC147704    DB84000000004329 N  599378639007                            000000000+                     09586                                N          275   0000000000000.00 0000000.00   0000000.00                             000000000000000                                                                                                                                                     01424  000000000000 0000000000000.84     01700 00000                  
00165820572180001G2675906759000000328478001358000000330MCALLEN                  TX           5 D                00                                      NNNN                          000000000000                                                                   78639007                                                                                                                                                                                                                                                                                                                                                                                                                                               
00165830572180020DT67590675900000032847800135800000033080013576759003360900018900060122420230000000411236023000000000037210442756XXXXXX5412                         NY 2 0 N               N840000000004112      IL  05DNDAYDREAMS SMOKE WORLD LLC012819    DB84000000004112 N  599378639007                            000000000+                     09580                                Y          342   0000000000000.00 0000000.00   0000000.00                             000000000000000                                                                                                                                                     01424  000000000000 0000000000000.24     00050 00000                  
00165840572180001G2675906759000000328478001358000000330MCALLEN                  TX           5 D                00                                      NNNN                          000000000000                                                                   78639007                                                                                                                                                                                                                                                                                                                                                                                                                                               
00165850572180021DT67590675900000032847800135800000033080013576759003360900018900078122420230000000411136023000000000037210467010XXXXXX9591                         NY 2 0 N               N840000000004111      IL  07DNDAYDREAMS SMOKE WORLD LLC677096    DB84000000004111 N  599378639007                            000000000+                     09580                                Y          342   0000000000000.00 0000000.00   0000000.00                             000000000000000                                                                                                                                                     01424  000000000000 0000000000000.24     00050 00000                  
00165860572180001G2675906759000000328478001358000000330MCALLEN                  TX           5 D                00                                      NNNN                          000000000000                                                                   78639007                                                                                                                                                                                                                                                                                                                                                                                                                                               
00165870572180022DT67590675900000032847800135800000033080013576759003360900018900094122420230000000202236023000000000037210414446XXXXXX0184                         NY 2 0 N               N840000000002022      IL  05DNDAYDREAMS SMOKE WORLD LLC156072    DB84000000002022 N  599378639007                            000000000+                     09590                                N          279   0000000000000.00 0000000.00   0000000.00                             000000000000000                                                                                                                                                     01424  000000000000 0000000000000.31     00800 00000                  
00165880572180001G2675906759000000328478001358000000330MCALLEN                  TX           5 D                00                                      NNNN                          000000000000                                                                   78639007                                                                                                                                                                                                                                                                                                                                                                                                                                               
00165890572180023DT67590675900000032847800135800000033080013576759003360900018900102122420230000000043236023000000000037210403163XXXXXX2127                         NY 2 0 N               N840000000000432      IL  05DNDAYDREAMS SMOKE WORLD LLC925471    DB84000000000432 N  599378639007                            000000000+                     09576                                N          346   0000000000000.00 0000000.00   0000000.00                             000000000000000                                                                                                                                                     01424  000000000000 0000000000000.20     01150 00000                  
00165900572180001G2675906759000000328478001358000000330MCALLEN                  TX           5 P                00                                      NNNN                          000000000000                                                                   78639007                                                                                                                                                                                                                                                                                                                                                                                                                                               
00165910572180024BH6759067590000004589880015880000090171226202336023000000000165267    0000090001140031N8001586759C12262023014                                                                                                                                                                                                                                                                                                                                                                                                                                                                                                                                                                                              
00165920572180025DT67590675900000045898800158800000010180015824001193360900011400014122420230000001225636023000000000165267429136XXXXXX3697       VS11    0001111   NYV1 A E303358579163332N84000000001225692LT00    05DNASHEVILLE DISPENSARY     110516    VD84000000012256 N  599978779761                            000000000+                F DF 00381                     000000000  N000000000       0000000000000.00 0000000.00   0000000.00                             000000000000000                                                                                                                                                     01424 A000000000000 0000000000001.13     00800 01500                  
00165930572180001E167590675900000045898800158800000010100E0F8C800B3 00000000000.004040404040404040404040404040404040404040404040404006011203A08000000000000000000000404040404040404040404040404040  00010840180080800080002312240184525647B5F255F0455744404040400840A0000000031010000000000000000000E73F1ADA0382000000000000000000004040401E40404040 000000122.56 000000000.001E00000000000000000000    80                                                                                                                                                                                                                                                                                                                  
00165940572180002G2675906759000000458988001588000000101CHATTANOOGA              TN           5 D                00                                      NNNN00 N 00                   000000000000                                                                   78779761                                                                                                                                                                                                                                                                                                                                                                                                                                               
00165950572180026DT67590675900000045898800158800000010180015824001193360900011400022122420230000000954336023000000000165267445102XXXXXX7087       VS11    0001111   NYV1 A E303358593935853N840000000009543J4ZD00    05DNASHEVILLE DISPENSARY     142560    VD84000000009543 N  599978779761                            000000000+                F DF 10433                     000000000  Y000000000 338   0000000000000.00 0000000.00   0000000.00                             000000000000000                                                                                                                                                     01424 A000000000000 0000000000000.27     00050 02200                  
00165960572180001E167590675900000045898800158800000010100E0F8C80557 00000000000.004040404040404040404040404040404040404040404040404006010A03A08000000000000000000000404040404040404040404040404040  0001084018008080008000231224F52B5418282B09D0CFAEC3C9404040400840A0000000031010000000000000000000E7F080FD89D94C0530300000000000004040401E40404040 000000095.43 000000000.001E00000000000000000000    80                                                                                                                                                                                                                                                                                                                  
00165970572180002G2675906759000000458988001588000000101CHATTANOOGA              TN           5 D                00                                      NNNN00 N 00                   000000000000                                                                   78779761                                                                                                                                                                                                                                                                                                                                                                                                                                               
00165980572180027DT67590675900000045898800158800000010180015824001193360900011400030122420230000000265136023000000000165267414720XXXXXX9310       VS11    0001111   NYV1 A E303358616036299N840000000002651GQ4K00    05DNASHEVILLE DISPENSARY     09321C    VS84000000002651 N  599978779761                            000000000+                C CC 12112                     000000000  N000000000 497   0000000000000.00 0000000.00   0000000.00                             000000000000000                                                                                                                                                     01424 A000000000000 0000000000000.54     01650 01000                  
00165990572180001E167590675900000045898800158800000010100E0F8C8007D 00000000000.004040404040404040404040404040404040404040404040404006021203A02002000000000000000000404040404040404040404040404040  000108403800008000800023122476A7BA0635936677428E6A30404040400840A0000000031010000000000000000000B29F3F2B0082000000000000000000004040401E40404040 000000026.51 000000000.001E00000000000000000000    80                                                                                                                                                                                                                                                                                                                  
00166000572180002G2675906759000000458988001588000000101CHATTANOOGA              TN           5 C                00                                      NNNN00 Y 00                   000000000000                                                                   78779761                                                                                                                                                                                                                                                                                                                                                                                                                                               
00166010572180028DT67590675900000045898800158800000010180015824001193360900011400048122420230000000170636023000000000165267440393XXXXXX1862       VS11    0001111   NYV1 A E383358618461529N840000000001706X7KT00    07DNASHEVILLE DISPENSARY     299629    VD84000000001706 N  599978779761                            000000000+                F PF 08170                     000000000  N000000000       0000000000000.00 0000000.00   0000000.00                             000000000000000                                                                                                                                                     01424 A000000000000 0000000000000.35     01150 01500                  
00166020572180001E167590675900000045898800158800000010100E068C800B4 00000000000.004040404040404040404040404040404040404040404040404006011203A00000000000000000000000404040404040404040404040404040  00000840200000000000002312249F54BD4FBD95C4F3082A4394404040400840A0000000031010000000000000000000ADD0176B2A2F7F9430300000000000004040404040404040 000000017.06 000000000.004040400000000000000000    80                                                                                                                                                                                                                                                                                                                  
00166030572180002G2675906759000000458988001588000000101CHATTANOOGA              TN           5 P                00                                      NNNN00 N 00                   000000000000                                                                   78779761                                                                                                                                                                                                                                                                                                                                                                                                                                               
00166040572180029DT67590675900000045898800158800000010180015824001193360900011400055122420230000000265136023000000000165267435546XXXXXX0235       VS11    0001111   NYV1 A E383358657224256N8400000000026517ZGS00    05DNASHEVILLE DISPENSARY     076093    VD84000000002651 N  599978779761                            000000000+                F DF 10433                     000000000  Y000000000 338   0000000000000.00 0000000.00   0000000.00                             000000000000000                                                                                                                                                     01424 A000000000000 0000000000000.23     00050 02200                  
00166050572180001E167590675900000045898800158800000010100E0F8C8004E 00000000000.004040404040404040404040404040404040404040404040404006011203A08000000000000000000000404040404040404040404040404040  00010840180080800080002312242325FF95D9049AC651AA7330404040400840A00000000310100000000000000000002C7D30510082000000000000000000004040401E40404040 000000026.51 000000000.001E00000000000000000000    80                                                                                                                                                                                                                                                                                                                  
00166060572180002G2675906759000000458988001588000000101CHATTANOOGA              TN           5 D                00                                      NNNN00 N 00                   000000000000                                                                   78779761                                                                                                                                                                                                                                                                                                                                                                                                                                               
00166070572180030DT67590675900000045898800158800000010180015824001193360900011400063122420230000000292236023000000000165267440393XXXXXX2582       VS11    0001111   NYV1 A E463358671718879N840000000002922W3W300    05DNASHEVILLE DISPENSARY     943665    VD84000000002922 N  599978779761                            000000000+                F PF 08170                     000000000  N000000000       0000000000000.00 0000000.00   0000000.00                             000000000000000                                                                                                                                                     01424 A000000000000 0000000000000.49     01150 01500                  
00166080572180001E167590675900000045898800158800000010100E0F8C8000B 00000000000.004040404040404040404040404040404040404040404040404006011203A08000000000000000000000404040404040404040404040404040  0000084018008080008000231224EFB79D61EA4FD2776845E22F404040400840A00000000310100000000000000000008DA64D3488728BD830300000000000004040401E40404040 000000029.22 000000000.001E00000000000000000000    80                                                                                                                                                                                                                                                                                                                  
00166090572180002G2675906759000000458988001588000000101CHATTANOOGA              TN           5 P                00                                      NNNN00 N 00                   000000000000                                                                   78779761                                                                                                                                                                                                                                                                                                                                                                                                                                               
00166100572180031DT67590675900000045898800158800000010180015877287283360900011400073122420230000000265136023000000000165267542418XXXXXX4562       MS02WI09          NY 1 0 AMWENZLAS61224  N840000000002651          05DNASHEVILLE DISPENSARY     90526P    MC84000000002651 N  599978779761                            000000000+M10101C5434C    MWE  00739                     000000000  N                0000000000000.00 0000000.00   0000000.00                             000000000000000                                                                                                                                                   B101424  000000000000 0000000000000.71     02300 01000                  
00166110572180001E167590675900000045898800158800000010100E0F8C80002 00000000000.00404040404040404040404040404040404040404040404040400110A04001220000000000000000000000FF00000000000000000000000000  000208403900000000800023122436B25918370C556FC25E0B9B404040400840A0000000041010000000000000000000E9B2D48AAD7EF17300120000000000004040401E40404040 000000026.51 000000000.001E03000000000000000000    80                                                                                                                                                                                                                                                                                                                  
00166120572180002G2675906759000000458988001588000000101CHATTANOOGA              TN           5 E                                                        NNNN              000000000000000000000000                        7                                          78779761                                                                                                                                                                                                                                                                                                                                                                                                                                               
00166130572180032DT67590675900000045898800158800000010180015824001193360900011400089122420230000000576336023000000000165267429136XXXXXX3919       VS11    0001111   NYV1 A E303358674247257N8400000000057637BRB00    05DNASHEVILLE DISPENSARY     134344    VD84000000005763 N  599978779761                            000000000+                F DF 00381                     000000000  N000000000       0000000000000.00 0000000.00   0000000.00                             000000000000000                                                                                                                                                     01424 A000000000000 0000000000000.61     00800 01500                  
00166140572180001E167590675900000045898800158800000010100E0F8C807F5 00000000000.004040404040404040404040404040404040404040404040404006011203A0A000000000000000000000404040404040404040404040404040  00000840180080800080002312242255223FB380D83CBF918B80404040400840A0000000031010000000000000000000606E61BF0382000000000000000000004040401E40404040 000000057.63 000000000.001E00000000000000000000    80                                                                                                                                                                                                                                                                                                                  
00166150572180002G2675906759000000458988001588000000101CHATTANOOGA              TN           5 D                00                                      NNNN00 N 00                   000000000000                                                                   78779761                                                                                                                                                                                                                                                                                                                                                                                                                                               
00166160572180033DT67590675900000045898800158800000010180015824001193360900011400097122420230000001959336023000000000165267454373XXXXXX6061       VS11    0001111   NYV1 A E463358682540929N840000000019593HSDJ00    05DNASHEVILLE DISPENSARY     445731    VD84000000019593 N  599978779761                            000000000+                F DF 00381                     000000000  N000000000       0000000000000.00 0000000.00   0000000.00                             000000000000000                                                                                                                                                     01424 A000000000000 0000000000001.72     00800 01500                  
00166170572180001E167590675900000045898800158800000010100E0F8C800A8 00000000000.004040404040404040404040404040404040404040404040404006011203A0A000000000000000000000404040404040404040404040404040  00000840180080800080002312249A401C7C210A4ED285DBF3CA404040400840A0000000031010000000000000000000404040404040404040404040404040404040401E40404040 000000195.93 000000000.001E00000000000000000000    80                                                                                                                                                                                                                                                                                                                  
00166180572180002G2675906759000000458988001588000000101CHATTANOOGA              TN           5 D                00                                      NNNN00 N 00                   000000000000                                                                   78779761                                                                                                                                                                                                                                                                                                                                                                                                                                               
00166190572180034DT67590675900000045898800158800000010180015824001193360900011400105122420230000001816436023000000000165267424631XXXXXX7579       VS11    0001111   NYV1 A E583358684042387N8400000000181647TND00    05DNASHEVILLE DISPENSARY     00144G    VB84000000018164 N  599978779761                            000000000+                G1CG108011                     000000000  N000000000 391   0000000000000.00 0000000.00   0000000.00                             000000000000000                                                                                                                                                     01424 A000000000000 0000000000003.91     02100 01000                  
00166200572180001E167590675900000045898800158800000010100E0F8C80297 00000000000.004040404040404040404040404040404040404040404040404006021203A02002000000000000000000404040404040404040404040404040  00010840380000800080002312242290A61B9CA5BEF9CFAD8A49404040400840A0000000031010000000000000000000E4A57BA80082000000000000000000004040401E40404040 000000181.64 000000000.001E00000000000000000000    80                                                                                                                                                                                                                                                                                                                  
00166210572180002G2675906759000000458988001588000000101CHATTANOOGA              TN           5 C                00                                      NNNN00 Y 00                   000000000000                                                                   78779761                                                                                                                                                                                                                                                                                                                                                                                                                                               
00166220572180035DT67590675900000045898800158800000010180015824001193360900011400113122420230000000155636023000000000165267423223XXXXXX9135       VS11    0001111   NYV1 A E303358694974183N840000000001556HK9Z00    05DNASHEVILLE DISPENSARY     059666    VD84000000001556 N  599978779761                            000000000+                F DF 00381                     000000000  N000000000       0000000000000.00 0000000.00   0000000.00                             000000000000000                                                                                                                                                     01424 A000000000000 0000000000000.27     00800 01500                  
00166230572180001E167590675900000045898800158800000010100E0F8C803B4 00000000000.004040404040404040404040404040404040404040404040404006011203A0A000000000000000000000404040404040404040404040404040  0000084018008080008000231224CFFA233F2C90AFCE4E7EAAA4404040400840A00000000310100000000000000000009D4F33FF0080000000000000000000004040401E40404040 000000015.56 000000000.001E00000000000000000000    80                                                                                                                                                                                                                                                                                                                  
00166240572180002G2675906759000000458988001588000000101CHATTANOOGA              TN           5 D                00                                      NNNN00 N 00                   000000000000                                                                   78779761                                                                                                                                                                                                                                                                                                                                                                                                                                               
00166250572180036DT67590675900000045898800158800000010180015824001193360900011400121122420230000000432236023000000000165267435546XXXXXX6196       VS11    0001111   NYV1 A E303358696910551N840000000004322C2QB00    07DNASHEVILLE DISPENSARY     139089    VD84000000004322 N  599978779761                            000000000+                F DF 10433                     000000000  Y000000000 338   0000000000000.00 0000000.00   0000000.00                             000000000000000                                                                                                                                                     01424 A000000000000 0000000000000.24     00050 02200                  
00166260572180001E167590675900000045898800158800000010100E068C80004 00000000000.004040404040404040404040404040404040404040404040404006011203A00000000000000000000000404040404040404040404040404040  00010840000000000000002312246479F2173521AB718D80D2EC404040400840A000000003101000000000000000000029AECA3C0082000000000000000000004040404040404040 000000043.22 000000000.004040400000000000000000    80                                                                                                                                                                                                                                                                                                                  
00166270572180002G2675906759000000458988001588000000101CHATTANOOGA              TN           5 D                00                                      NNNN00 N 00                   000000000000                                                                   78779761                                                                                                                                                                                                                                                                                                                                                                                                                                               
00166280572180037DT67590675900000045898800158800000010180015824001193360900011400139122420230000000377836023000000000165267414720XXXXXX4576       VS11    0001111   NYV1 A E383358704397690N840000000003778DS5R00    05DNASHEVILLE DISPENSARY     00774I    VS84000000003778 N  599978779761                            000000000+                I CI 12777                     000000000  N000000000 690   0000000000000.00 0000000.00   0000000.00                             000000000000000                                                                                                                                                     01424 A000000000000 0000000000000.97     02300 01000                  
00166290572180001E167590675900000045898800158800000010100E0F8C80071 00000000000.004040404040404040404040404040404040404040404040404006021203A0A002000000000000000000404040404040404040404040404040  00010840380000800080002312247E0C6E4C32AFB2BB1B239D2C404040400840A0000000031010000000000000000000AA8095740082000000000000000000004040401E40404040 000000037.78 000000000.001E00000000000000000000    80                                                                                                                                                                                                                                                                                                                  
00166300572180002G2675906759000000458988001588000000101CHATTANOOGA              TN           5 C                00                                      NNNN00QY 00                   000000000000                                                                   78779761                                                                                                                                                                                                                                                                                                                                                                                                                                               
00166310572180038DT67590675900000045898800158800000010180015824001193360900011400147122420230000000172936023000000000165267414720XXXXXX9621       VS11    0001111   NYV1 A E303358705962808N840000000001729LFRF00    05DNASHEVILLE DISPENSARY     09102I    VS84000000001729 N  599978779761                            000000000+                I CI 12777                     000000000  N000000000 690   0000000000000.00 0000000.00   0000000.00                             000000000000000                                                                                                                                                     01424 A000000000000 0000000000000.50     02300 01000                  
00166320572180001E167590675900000045898800158800000010100E0F8C8046B 00000000000.004040404040404040404040404040404040404040404040404006021203A0A002000000000000000000404040404040404040404040404040  000108403800008000800023122477EE19EED08ED00E0BE6B022404040400840A000000003101000000000000000000090828B620082000000000000000000004040401E40404040 000000017.29 000000000.001E00000000000000000000    80                                                                                                                                                                                                                                                                                                                  
00166330572180002G2675906759000000458988001588000000101CHATTANOOGA              TN           5 C                00                                      NNNN00QY 00                   000000000000                                                                   78779761                                                                                                                                                                                                                                                                                                                                                                                                                                               
00166340572180039DT67590675900000045898800158800000010180015873011003360900011400150122420230000000643936023000000000165267372276XXXXX1009                          NY 1 0 N010334010432061N840000000006439          05DNASHEVILLE DISPENSARY     826204    AM84000000006439 N  599978779761                            000000000+51010155434C 258     11261                     000000000                   0000000000000.00 0000000.00   0000000.00                             000000000000000 61248972086759675900000045898 ASHEVILLE DISPENSARY     202 MANUFACTURERS RD     8285056547      37405     CAROLINABESTDISTRIBUTION@GMAIL.COM        01424  000000000000 0000000000001.13     01600 00000                  
00166350572180001E167590675900000045898800158800000010100E0F8C800EA 00000000000.004040404040404040404040404040404040404040404040404006560103A0A002000000000000000000404040404040404040404040404040  000008403C000000008000231224B1C55BF511D65BC56441658E404040400840A00000002501080100000000000000007E192365DE21961E30300000000000004040401E40404040 000000064.39 000000000.001E03000000000000000000    80                                                                                                                                                                                                                                                                                                                  
00166360572180002G2675906759000000458988001588000000101CHATTANOOGA              TN           5                  00                                      NNNN                          000000000000                                                                   78779761                                                                                                                                                                                                                                                                                                                                                                                                                                               
00166370572180040DT67590675900000045898800158800000010180015877287283360900011400164122420230000000824836023000000000165267552393XXXXXX9354       MS02WI09          NY 1 0 AMCWSUSJAH1224  N840000000008248          05DNASHEVILLE DISPENSARY     08208Z    MC84000000008248 N  599978779761                            000000000+M10101C5434C    MCW  00644                     000000000  N                0000000000000.00 0000000.00   0000000.00                             000000000000000                                                                                                                                                   B101424  000000000000 0000000000001.67     01900 01000                  
00166380572180001E167590675900000045898800158800000010100E0F8C80095 00000000000.00404040404040404040404040404040404040404040404040401310A04003220000000000000000000000FF00000000000000000000000000  000108403900000000800023122432763E5E7CA694AECB8A005F404040400840A00000000410100000000000000000008D23C625DE6D351000120000000000004040401E40404040 000000082.48 000000000.001E03000000000000000000    80                                                                                                                                                                                                                                                                                                                  
00166390572180002G2675906759000000458988001588000000101CHATTANOOGA              TN           5 W                                                        NNNN              000000000000000000000000                        7                                          78779761                                                                                                                                                                                                                                                                                                                                                                                                                                               
00166400572180041DT67590675900000045898800158800000010180015824001193360900011400170122420230000000384336023000000000165267445100XXXXXX9794       VS11    0001111   NYV1 A E583358733376768N840000000003843M6KG00    05DNASHEVILLE DISPENSARY     242072    VD84000000003843 N  599978779761                            000000000+                F DF 10433                     000000000  Y000000000 338   0000000000000.00 0000000.00   0000000.00                             000000000000000                                                                                                                                                     01424 A000000000000 0000000000000.24     00050 02200                  
00166410572180001E167590675900000045898800158800000010100E0F8C805B2 00000000000.004040404040404040404040404040404040404040404040404006010A03A0A000000000000000000000404040404040404040404040404040  00020840180080800080002312244C4F6C8871482C1F8EE63D3D404040400840A00000000310100000000000000000002E6E2AD1A0C30A2C30300000000000004040401E40404040 000000038.43 000000000.001E00000000000000000000    80                                                                                                                                                                                                                                                                                                                  
00166420572180002G2675906759000000458988001588000000101CHATTANOOGA              TN           5 D                00                                      NNNN00 N 00                   000000000000                                                                   78779761                                                                                                                                                                                                                                                                                                                                                                                                                                               
00166430572180042DT67590675900000045898800158800000010180015824001193360900011400188122420230000001078836023000000000165267400022XXXXXX0205       VS11    0001111   NYV1 A E303358735677561N840000000010788654300    05DNASHEVILLE DISPENSARY     664863    VD84000000010788 N  599978779761                            000000000+                F DF 10433                     000000000  Y000000000 338   0000000000000.00 0000000.00   0000000.00                             000000000000000                                                                                                                                                     01424 A000000000000 0000000000000.27     00050 02200                  
00166440572180001E167590675900000045898800158800000010100E0F8C80957 00000000000.004040404040404040404040404040404040404040404040404006021203A0A000000000000000000000404040404040404040404040404040  000008401800808000800023122432BCAE3EC3E403EFB0B26C55404040400840A0000000031010000000000000000000404040404040404040404040404040404040401E40404040 000000107.88 000000000.001E00000000000000000000    80                                                                                                                                                                                                                                                                                                                  
00166450572180002G2675906759000000458988001588000000101CHATTANOOGA              TN           5 D                00                                      NNNN00 N 00                   000000000000                                                                   78779761                                                                                                                                                                                                                                                                                                                                                                                                                                               
00166460572180043DT67590675900000045898800158800000010180015824001193360900011400196122420230000000691536023000000000165267407221XXXXXX1530       VS11    0001111   NYV1 A E583358739681166N840000000006915W6LN00    05DNASHEVILLE DISPENSARY     024249    VS84000000006915 N  599978779761                            000000000+                D CD 12113                     000000000  N000000000 499   0000000000000.00 0000000.00   0000000.00                             000000000000000                                                                                                                                                     01424 A000000000000 0000000000001.55     02100 01000                  
00166470572180001E167590675900000045898800158800000010100E0F8C801D3 00000000000.004040404040404040404040404040404040404040404040404006011203A0A000000000000000000000404040404040404040404040404040  00010840180080800080002312244CE3E0FB709C3528500A7F52404040400840A0000000031010000000000000000000AA904B470082000000000000000000004040401E40404040 000000069.15 000000000.001E00000000000000000000    80                                                                                                                                                                                                                                                                                                                  
00166480572180002G2675906759000000458988001588000000101CHATTANOOGA              TN           5 C                00                                      NNNN00 Y 00                   000000000000                                                                   78779761                                                                                                                                                                                                                                                                                                                                                                                                                                               
00166490572180044DT67590675900000045898800158800000010180015824001193360900011400204122420230000000564736023000000000165267417046XXXXXX5045       VS11    0001111   NYV1 A E463358744813572N8400000000056476Z4P00    90DNASHEVILLE DISPENSARY     496170    VD84000000005647 N  599978779761                            000000000+                F PF 08170                     000000000  N000000000       0000000000000.00 0000000.00   0000000.00                             000000000000000                                                                                                                                                     01424 A000000000000 0000000000000.80     01150 01500                  
00166500572180001G2675906759000000458988001588000000101CHATTANOOGA              TN           5 P                00                                      NNNN00 N 00                   000000000000                                                                   78779761                                                                                                                                                                                                                                                                                                                                                                                                                                               
00166510572180045DT67590675900000045898800158800000010180015824001193360900011400212122420230000000448136023000000000165267415978XXXXXX7326       VS11    0001111   NYV1 A E383358754792486N840000000004481PW7B00    07DNASHEVILLE DISPENSARY     001909    VD84000000004481 N  599978779761                            000000000+                F DF 10433                     000000000  Y000000000 338   0000000000000.00 0000000.00   0000000.00                             000000000000000                                                                                                                                                     01424 A000000000000 0000000000000.24     00050 02200                  
00166520572180001E167590675900000045898800158800000010100E068C80690 00000000000.004040404040404040404040404040404040404040404040404006011203A00000000000000000000000404040404040404040404040404040  0000084000000000000000231224B13C2345D6A7797EC103A46A404040400840A0000000031010000000000000000000D77CB8D64CBBB4CC30300000000000004040404040404040 000000044.81 000000000.004040400000000000000000    80                                                                                                                                                                                                                                                                                                                  
00166530572180002G2675906759000000458988001588000000101CHATTANOOGA              TN           5 D                00                                      NNNN00 N 00                   000000000000                                                                   78779761                                                                                                                                                                                                                                                                                                                                                                                                                                               
00166540572180046DT67590675900000045898800158800000010180015877287283360900011400222122420230000000028736023000000000165267551254XXXXXX0077       MS02WI09          NY 1 0 AMDSTJR8AH1224  N840000000000287          05DNASHEVILLE DISPENSARY     002260    MD84000000000287 N  599978779761                            000000000+M10101C5434C    MDS  00402                     000000000  N                0000000000000.00 0000000.00   0000000.00                             000000000000000                                                                                                                                                   B101424  000000000000 0000000000000.18     01050 01500                  
00166550572180001E167590675900000045898800158800000010100E0F8C8005F 00000000000.00404040404040404040404040404040404040404040404040400110A00001220000000000000000000000FF00000000000000000000000000  0000084018008000008000231224B74805BF2A7C772463729E5C404040400840A0000000041010000000000000000000BE2E824BFD60473B03120000000000004040401E40404040 000000002.87 000000000.001E03000000000000000000    80                                                                                                                                                                                                                                                                                                                  
00166560572180002G2675906759000000458988001588000000101CHATTANOOGA              TN           5 S                                                        NNNN              000000000000000000000000                                                                   78779761                                                                                                                                                                                                                                                                                                                                                                                                                                               
00166570572180047DT67590675900000045898800158800000010180015824001193360900011400238122420230000000242436023000000000165267414720XXXXXX6254       VS11    0001111   NYV1 A E583358759887848N840000000002424RPNF00    05DNASHEVILLE DISPENSARY     08846D    VS84000000002424 N  599978779761                            000000000+                D CD 12113                     000000000  N000000000 499   0000000000000.00 0000000.00   0000000.00                             000000000000000                                                                                                                                                     01424 A000000000000 0000000000000.61     02100 01000                  
00166580572180001E167590675900000045898800158800000010100E0F8C80836 00000000000.004040404040404040404040404040404040404040404040404006021203A0A002000000000000000000404040404040404040404040404040  00010840380000800080002312249F9780F35F67292A132445D8404040400840A0000000031010000000000000000000BF474BE10082000000000000000000004040401E40404040 000000024.24 000000000.001E00000000000000000000    80                                                                                                                                                                                                                                                                                                                  
00166590572180002G2675906759000000458988001588000000101CHATTANOOGA              TN           5 C                00                                      NNNN00 Y 00                   000000000000                                                                   78779761                                                                                                                                                                                                                                                                                                                                                                                                                                               
00166600572180048DT67590675900000045898800158800000010180015877287283360900011400248122420230000000616336023000000000165267531259XXXXXX6889       MS02WI09          NY 1 0 AMDJQ68YS61224  N840000000006163          07DNASHEVILLE DISPENSARY     103217    MD84000000006163 N  599978779761                            000000000+M10101M5434C    MDJ  10815                     000000000  1                0000000000000.00 0000000.00   0000000.00                             000000000000000                                                                                                                                                   B101424  000000000000 0000000000000.25     00050 02200                  
00166610572180001E1675906759000000458988001588000000101000060C801EF 00000000000.00404040404040404040404040404040404040404040404040400414A04301A20000000000000000000000FF00000000000000000000000000  0000084019800000008001231224E5E0A89DF953042F229578D9404040400840A0000000041010000000000000000000404040404040404040404040404040404040401E40404040 000000061.63 000000000.001E03000000000000000000    80                                                                                                                                                                                                                                                                                                                  
00166620572180002G2675906759000000458988001588000000101CHATTANOOGA              TN           5 J                                                        NNNN              000000000000000000000000       03               7                                          78779761                                                                                                                                                                                                                                                                                                                                                                                                                                               
00166630572180049DT67590675900000045898800158800000010180015824001193360900011400253122420230000000616336023000000000165267415978XXXXXX7819       VS11    0001111   NYV1 A E383358800553050N840000000006163N4J400    07DNASHEVILLE DISPENSARY     048153    VD84000000006163 N  599978779761                            000000000+                F DF 10433                     000000000  Y000000000 338   0000000000000.00 0000000.00   0000000.00                             000000000000000                                                                                                                                                     01424 A000000000000 0000000000000.25     00050 02200                  
00166640572180001E167590675900000045898800158800000010100E068C802FE 00000000000.004040404040404040404040404040404040404040404040404006011203A00000000000000000000000404040404040404040404040404040  0000084000000000000000231224FD32081AACC3D05236746B1E404040400840A000000003101000000000000000000014958FCEDD606B3A30300000000000004040404040404040 000000061.63 000000000.004040400000000000000000    80                                                                                                                                                                                                                                                                                                                  
00166650572180002G2675906759000000458988001588000000101CHATTANOOGA              TN           5 D                00                                      NNNN00 N 00                   000000000000                                                                   78779761                                                                                                                                                                                                                                                                                                                                                                                                                                               
00166660572180050DT67590675900000045898800158800000010180015824001193360900011400261122420230000000662736023000000000165267431136XXXXXX9640       VS11    0001111   NYV1 A E383358814093558N840000000006627CCTZ00    05DNASHEVILLE DISPENSARY     024204    VS84000000006627 N  599978779761                            000000000+                C CC 12112                     000000000  N000000000 497   0000000000000.00 0000000.00   0000000.00                             000000000000000                                                                                                                                                     01424 A000000000000 0000000000001.19     01650 01000                  
00166670572180001E167590675900000045898800158800000010100E0F8C801A9 00000000000.004040404040404040404040404040404040404040404040404006011203A0A000000000000000000000404040404040404040404040404040  00020840180080800080002312247D9D58094B5B857BC94D9A05404040400840A0000000031010000000000000000000798D9D610082000000000000000000004040401E40404040 000000066.27 000000000.001E00000000000000000000    80                                                                                                                                                                                                                                                                                                                  
00166680572180002G2675906759000000458988001588000000101CHATTANOOGA              TN           5 C                00                                      NNNN00 N 00                   000000000000                                                                   78779761                                                                                                                                                                                                                                                                                                                                                                                                                                               
00166690572180051DT67590675900000045898800158800000010180015824001193360900011400279122420230000000227536023000000000165267403784XXXXXX6265       VS11    0001111   NYV1 A E583358841079183N840000000002275QL7N00    05DNASHEVILLE DISPENSARY     714212    VS84000000002275 N  599978779761                            000000000+                D CD 12113                     000000000  N000000000 499   0000000000000.00 0000000.00   0000000.00                             000000000000000                                                                                                                                                     01424 A000000000000 0000000000000.58     02100 01000                  
00166700572180001E167590675900000045898800158800000010100E0F8C80176 00000000000.004040404040404040404040404040404040404040404040404006011203A0A000000000000000000000404040404040404040404040404040  0001084018008080008000231224348C9FF70379E597C1E6C190404040400840A00000000310100000000000000000009E70E8EE29FDC79830300000000000004040401E40404040 000000022.75 000000000.001E00000000000000000000    80                                                                                                                                                                                                                                                                                                                  
00166710572180002G2675906759000000458988001588000000101CHATTANOOGA              TN           5 C                00                                      NNNN00 Y 00                   000000000000                                                                   78779761                                                                                                                                                                                                                                                                                                                                                                                                                                               
00166720572180052DT67590675900000045898800158800000010180015877287283360900011400289122420230000000138336023000000000165267515491XXXXXX9156       MS02WI09          NY 1 0 AMWEFX52G41224  N840000000001383          07DNASHEVILLE DISPENSARY     04335Z    MC84000000001383 N  599978779761                            000000000+M10101M0034C    MWE  00739                     000000000  N                0000000000000.00 0000000.00   0000000.00                             000000000000000                                                                                                                                                   A101424  000000000000 0000000000000.42     02300 01000                  
00166730572180001E167590675900000045898800158800000010100000848002A 00000000000.00404040404040404040404040404040404040404040404040400114A14003020000000000000000000000FF00000000000000000000000000  000008401B8000000080012312242C3F0996A3461304531D26EC404040400840A0000000041010000000000000000000404040404040404040404040404040404040403F40404040 000000013.83 000000000.003F00020000000000000000    80                                                                                                                                                                                                                                                                                                                  
00166740572180002G2675906759000000458988001588000000101CHATTANOOGA              TN           5 E                                                        NNNN              000000000000000000000000       03               C                                          78779761                                                                                                                                                                                                                                                                                                                                                                                                                                               
00166750572180053DT67590675900000045898800158800000010180015877287283360900011400297122420230000000028736023000000000165267551254XXXXXX0077       MS02WI09          NY 1 0 AMDSMOW5G41224  N840000000000287          05DNASHEVILLE DISPENSARY     667343    MD84000000000287 N  599978779761                            000000000+M10101C5434C    MDS  00402                     000000000  N                0000000000000.00 0000000.00   0000000.00                             000000000000000                                                                                                                                                   B101424  000000000000 0000000000000.18     01050 01500                  
00166760572180001E167590675900000045898800158800000010100E0F8C80060 00000000000.00404040404040404040404040404040404040404040404040400110A00001220000000000000000000000FF00000000000000000000000000  00000840180080000080002312248069AFED67124ADD4520D686404040400840A00000000410100000000000000000000D705D4C6472D0D903120000000000004040401E40404040 000000002.87 000000000.001E03000000000000000000    80                                                                                                                                                                                                                                                                                                                  
00166770572180002G2675906759000000458988001588000000101CHATTANOOGA              TN           5 S                                                        NNNN              000000000000000000000000                                                                   78779761                                                                                                                                                                                                                                                                                                                                                                                                                                               
00166780572180054DT67590675900000045898800158800000010180015873011003360900011400309122420230000000265136023000000000165267370382XXXXX1305                          NY 1 0 N010337467473066N840000000002651          07DNASHEVILLE DISPENSARY     861443    AM84000000002651 N  599978779761                            000000000+51010X50034C 258     11261                     000000000                   0000000000000.00 0000000.00   0000000.00                             000000000000000 61248972086759675900000045898 ASHEVILLE DISPENSARY     202 MANUFACTURERS RD     8285056547      37405     CAROLINABESTDISTRIBUTION@GMAIL.COM        01424  000000000000 0000000000000.52     01600 00000                  
00166790572180001E167590675900000045898800158800000010100E0E8C800D4 00000000000.004040404040404040404040404040404040404040404040404006020103A20102000000000000000000404040404040404040404040404040  0000084019C00000008000231224EB62A6F3685547A02BC288A9404040400840A000000025010901000000000000000097F21F908143091930300000000000004040401F40404040 000000026.51 000000000.001F00020000000000000000    80                                                                                                                                                                                                                                                                                                                  
00166800572180002G2675906759000000458988001588000000101CHATTANOOGA              TN           5                  00                                      NNNN                          000000000000                                                                   78779761                                                                                                                                                                                                                                                                                                                                                                                                                                               
00166810572180055DT67590675900000045898800158800000010180015824001193360900011400311122420230000000136136023000000000165267440393XXXXXX6091       VK04VS111111111   NYV1 A E463359063471050N840000000001361289H00    05DNASHEVILLE DISPENSARY     274125    VD84000000001361 N  599978779761                            000000000+                F PF 08165                     000000000  N000000000       0000000000000.00 0000000.00   0000000.00                             000000000000000                                                                                                                                                     01424 F000000000000 0000000000000.27     01600 00500                  
00166820572180001E167590675900000045898800158800000010100E0F8C8014F 00000000000.004040404040404040404040404040404040404040404040404006011203A0A000000000000000000000404040404040404040404040404040  00000840180080800080002312242196FFF382CAC81DB919488F404040400840A0000000031010000000000000000000CC0D04B2D37ECD4630300000000000004040401E40404040 000000013.61 000000000.001E00000000000000000000    80                                                                                                                                                                                                                                                                                                                  
