02418610209930002BH6759067590000000096880088880000090171209202234322000000000000568    0000090001030001N8008886759C12112022                                                                                                                                                                                                                                                                                                                                                                                                                                                                                                                                                                                                 
02418620209930003DT67590675900000000968800888800000010180088877287282343900010300013120920220000000056834322000000000000568521333XXXXXX4224       MS02WI09          NY 1 0 AMWEKDYFKR1209  N840000000000568          05DNHIGHER FLOUR LLC         00963P    MC84000000000568 N  546276006905                            000000000+M10101C5434C    MWE  00739                     000000000  N                0000000000000.00 0000000.00   0000000.00                             000000000000000                                                                                                                                                   B101418  000000000000 0000000000000.23     02300 01000                  
02418630209930004BH6759067590000000096880088880000090171209202234322000000000011101    0000090001056447N8008886759C12112022                                                                                                                                                                                                                                                                                                                                                                                                                                                                                                                                                                                                 
02418640209930005DT67590675900000000968800888800000010180088824001192343900010575331120920220000000645134322000000000011101430652XXXXXX5259               2111111   NYV4 A7W462343826971004N840000000006451CRJV00    01DNHIGHER FLOUR LLC         075817    VD84000000006451 NP1546271004114   RAZA0ZLVZXT8VZRMTVY4     000000000+                F DF 00415                     000000000  N000000000       0000000000000.00 0000000.00   0000000.00                             000000000000000                                                                                                                                                     01418 G000000006451 0000000000001.21     01650 01500                  
02418650209930001P16759067590000000096880088880000001010000000000000000                             2000000000000000000000000              000000000000                    0000000000000000000000000                    000000000000                                                                                                                                                                                                                                                                                                                                                                                                                                                                                        
02418660209930006DT67590675900000000968800888800000010180088824001192343900010564475120920220000000465034322000000000011101411810XXXXXX9028               2111111   NYV4 A7W582343626116273N840000000004988W52H00    01DNHIGHER FLOUR LLC         449331    VD84000000004650 NP1546271004114   RHQ5SAJTLWTY5M7E9SSR     000000000+                F PF 08175                     000000000  N000000000       0000000000000.00 0000000.00   0000000.00                             000000000000000                                                                                                                                                     01418 G000000004650 0000000000001.01     01750 02000                  
02418670209930001P16759067590000000096880088880000001010000000000000000                             2000000000000000000000000              000000000000                    0000000000000000000000000                    000000000000                                                                                                                                                                                                                                                                                                                                                                                                                                                                                        
