03433290558090002BH6759067590000001165080088880000090170224202305523000000000047008    0000090001130015N8008886759C02262023                                                                                                                                                                                                                                                                                                                                                                                                                                                                                                                                                                                                 
03433300558090003DT67590675900000011650800888800000010180088873011003055900011300012022320230000000408605523000000000047008374645XXXXX1007                          NY 1 0 N006636750824075N840000000004086          07DNVPODS HOLDINGS INC       885573    AM84000000004086 N  599977032122                            000000000+51010X50034C 258     11261                     000000000                   0000000000000.00 0000000.00   0000000.00                             000000000000000 61248972086759675900000011650 VPODS HOLDINGS INC       2527 N LINCOLN AVE       7732092463      60614     SMOKEDREAMS2@ICLOUD.COM                   01418  000000000000 0000000000000.75     01600 00000                  
03433310558090004DT67590675900000011650800888800000010180088824001193055900011300024022320230000000216305523000000000047008465992XXXXXX9780       VS11    0001111   NYV1 A E583054658745409N840000000002163D9S300    07DNVPODS HOLDING INC        406129    VD84000000002163 N  599977032122                            000000000+                F DF 00381                     000000000  N000000000       0000000000000.00 0000000.00   0000000.00                             000000000000000                                                                                                                                                     01418 A000000000000 0000000000000.32     00800 01500                  
03433320558090005DT67590675900000011650800888800000010180088877287283055900011300034022320230000000567705523000000000047008517604XXXXXX4656       MS02WI09          NY 1 0 AMWEFTX1OR0223  N840000000005677          07DNVPODS HOLDING INC        21883Z    MC84000000005677 N  599977032122                            000000000+M10101M1134C    MWE  00739                     000000000  N                0000000000000.00 0000000.00   0000000.00                             000000000000000                                                                                                                                                   A101418  000000000000 0000000000001.41     02300 01000                  
03433330558090006DT67590675900000011650800888800000010180088824001193055900011300040022320230000000411905523000000000047008406032XXXXXX5055       VS11    0001111   NYV1 A E463054735141776N840000000004119K8ZK00    07DNVPODS HOLDING INC        042515    VD84000000004119 N  599977032122                            000000000+                F DF 10433                     000000000  Y000000000 338   0000000000000.00 0000000.00   0000000.00                             000000000000000                                                                                                                                                     01418 A000000000000 0000000000000.24     00050 02200                  
03433340558090007DT67590675900000011650800888800000010180088824001193055900011300057022320230000000227005523000000000047008483313XXXXXX2613       VS11    0001111   NYV1 A E383054736820635N840000000002270W7SZ00    07DNVPODS HOLDING INC        032815    VD84000000002270 N  599977032122                            000000000+                F DF 10433                     000000000  Y000000000 338   0000000000000.00 0000000.00   0000000.00                             000000000000000                                                                                                                                                     01418 A000000000000 0000000000000.23     00050 02200                  
03433350558090008DT67590675900000011650800888800000010180088824001193055900011300065022320230000000306505523000000000047008414720XXXXXX9764       VS11    0001111   NYV1 A E463054742564142N840000000003065DKN300    07DNVPODS HOLDING INC        02091C    VS84000000003065 N  599977032122                            000000000+                C CC 12112                     000000000  N000000000 497   0000000000000.00 0000000.00   0000000.00                             000000000000000                                                                                                                                                     01418 A000000000000 0000000000000.61     01650 01000                  
03433360558090009DT67590675900000011650800888800000010180088824001193055900011300073022320230000000283805523000000000047008407123XXXXXX2301       VS11    0001111   NYV1 A E463054774088597N840000000002838JV2G00    07DNVPODS HOLDING INC        00266B    VS84000000002838 N  599977032122                            000000000+                B CB 12111                     000000000  N000000000 495   0000000000000.00 0000000.00   0000000.00                             000000000000000                                                                                                                                                     01418 A000000000000 0000000000000.57     01650 01000                  
03433370558090010DT67590675900000011650800888800000010180088876509753055900011300089022320230000000176205523000000000047008601100XXXXXX0298   BA50                  NY41 0 N753046410399990N840000000001762    00    05DNVPODS HOLDING INC        02392R    DS84000000001762 N  599977032122050                         000000000+0000004910H00   DCCDI01000167112  161039000000 000000000  0          112   0000000000000.00 0000000.00   0000000.00                             000000000000000                                                                                                                                                     01418  000000000000 0000000000000.40     01720 01000                  
03433380558090011DT67590675900000011650800888800000010180088824001193055900011300099022320230000000340505523000000000047008426684XXXXXX8694       VS11    0001111   NYV1 A E583054858964761N840000000003405FZ6Z00    07DNVPODS HOLDING INC        04097D    VS84000000003405 N  599977032122                            000000000+                D CD 12113                     000000000  N000000000 499   0000000000000.00 0000000.00   0000000.00                             000000000000000                                                                                                                                                     01418 A000000000000 0000000000000.82     02100 01000                  
03433390558090012DT67590675900000011650800888800000010180088877287283055900011300109022320230000000029005523000000000047008515026XXXXXX3801       MS02WI09          NY 1 0 AMDSP2LMEQ0223  N840000000000290          05DNVPODS HOLDING INC        833150    MD84000000000290 N  599977032122                            000000000+M10101C5434C    MDS  00402                     000000000  N                0000000000000.00 0000000.00   0000000.00                             000000000000000                                                                                                                                                   B101418  000000000000 0000000000000.18     01050 01500                  
03433400558090013DT67590675900000011650800888800000010180088877287283055900011300117022320230000000227005523000000000047008526924XXXXXX4382       MS02WI09          NY 1 0 AMDJWJE2QU0223  N840000000002270          05DNVPODS HOLDING INC        105571    MD84000000002270 N  599977032122                            000000000+M10101C5434C    MDJ  00402                     000000000  N                0000000000000.00 0000000.00   0000000.00                             000000000000000                                                                                                                                                   B101418  000000000000 0000000000000.39     01050 01500                  
03433410558090014DT67590675900000011650800888800000010180088824001193055900011300123022320230000000170305523000000000047008411398XXXXXX1771       VS11    0001111   NYV1 A E383055021429895N840000000001703B2DD00    07DNVPODS HOLDING INC        09153B    VS84000000001703 N  599977032122                            000000000+                B CB 12111                     000000000  N000000000 495   0000000000000.00 0000000.00   0000000.00                             000000000000000                                                                                                                                                     01418 A000000000000 0000000000000.38     01650 01000                  
03433420558090015DT67590675900000011650800888800000010180088824001193055900011300131022320230000000257505523000000000047008482915XXXXXX8273       VS11    0001111   NYV1 A E383055046837312N840000000002575PPLJ00    07DNVPODS HOLDING INC        031820    VD84000000002575 N  599977032122                            000000000+                F DF 10433                     000000000  Y000000000 338   0000000000000.00 0000000.00   0000000.00                             000000000000000                                                                                                                                                     01418 A000000000000 0000000000000.23     00050 02200                  
03433430558090016DT67590675900000011650800888800000010180088824001193055900011300149022320230000000283805523000000000047008438857XXXXXX5595       VS11    0001111   NYV1 A E463055052208749N840000000002838NBB700    07DNVPODS HOLDING INC        01033D    VS84000000002838 N  599977032122                            000000000+                D CD 12113                     000000000  N000000000 499   0000000000000.00 0000000.00   0000000.00                             000000000000000                                                                                                                                                     01418 A000000000000 0000000000000.70     02100 01000                  
03433440558090017DT67590675900000011650800888800000010180088824001193055900011300156022320230000000794705523000000000047008491712XXXXXX1435       VS11    0001111   NYV1 A E303055104519065N8400000000079476ZWM00    07DNVPODS HOLDING INC        015421    VD84000000007947 N  599977032122                            000000000+                F DF 10433                     000000000  Y000000000 338   0000000000000.00 0000000.00   0000000.00                             000000000000000                                                                                                                                                     01418 A000000000000 0000000000000.26     00050 02200                  
03433450558090018BH6759067590000000288180088880000090170224202305523000000000082075    0000090001540018N8008886759C02262023                                                                                                                                                                                                                                                                                                                                                                                                                                                                                                                                                                                                 
03433460558090019DT67590675900000002881800888800000010180088824001193055900015400010022420230000000376405523000000000082075480639XXXXXX6147       VS11    0001111   NYV1 A E303055552037310N840000000003764R4BV00    05DNHAPPY HIPPIE             394025    VD84000000003764 N  549976487158                            000000000+                F DF 00381                     000000000  N000000000       0000000000000.00 0000000.00   0000000.00                             000000000000000                                                                                                                                                     01418 A000000000000 0000000000000.45     00800 01500                  
03433470558090020DT67590675900000002881800888800000010180088877287283055900015400020022420230000000433305523000000000082075511953XXXXXX9825       MS02WI09          NY 1 0 AMDJIWT1ZS0224  N840000000004333          05DNHAPPY HIPPIE             078300    MD84000000004333 N  549976487158                            000000000+M10101C5434C    MDJ  00402                     000000000  N                0000000000000.00 0000000.00   0000000.00                             000000000000000                                                                                                                                                   B101418  000000000000 0000000000000.60     01050 01500                  
03433480558090021DT67590675900000002881800888800000010180088824001193055900015400036022420230000000878905523000000000082075480639XXXXXX0039       VS11    0001111   NYV1 A E303055602850119N840000000008789BJJW00    05DNHAPPY HIPPIE             396669    VD84000000008789 N  549976487158                            000000000+                F DF 00381                     000000000  N000000000       0000000000000.00 0000000.00   0000000.00                             000000000000000                                                                                                                                                     01418 A000000000000 0000000000000.85     00800 01500                  
03433490558090022DT67590675900000002881800888800000010180088824001193055900015400044022420230000000296205523000000000082075423223XXXXXX1655       VS11    0001111   NYV1 A E303055633227320N840000000002962GTS600    05DNHAPPY HIPPIE             095501    VD84000000002962 N  549976487158                            000000000+                F DF 00381                     000000000  N000000000       0000000000000.00 0000000.00   0000000.00                             000000000000000                                                                                                                                                     01418 A000000000000 0000000000000.39     00800 01500                  
03433500558090023DT67590675900000002881800888800000010180088824001193055900015400051022420230000000395005523000000000082075443238XXXXXX1211       VS11    0001111   NYV1 A E303055635774974N840000000003950D4B300    05DNHAPPY HIPPIE             023937    VD84000000003950 N  549976487158                            000000000+                F DF 00381                     000000000  N000000000       0000000000000.00 0000000.00   0000000.00                             000000000000000                                                                                                                                                     01418 A000000000000 0000000000000.47     00800 01500                  
03433510558090024DT67590675900000002881800888800000010180088824001193055900015400069022420230000000230105523000000000082075466189XXXXXX7178       VS11    0001111   NYV1 A E583055639065640N840000000002301LJDB00    05DNHAPPY HIPPIE             045576    VD84000000002301 N  549976487158                            000000000+                F DF 10433                     000000000  Y000000000 338   0000000000000.00 0000000.00   0000000.00                             000000000000000                                                                                                                                                     01418 A000000000000 0000000000000.23     00050 02200                  
03433520558090025DT67590675900000002881800888800000010180088824001193055900015400077022420230000000384005523000000000082075466189XXXXXX7178       VS11    0001111   NYV1 A E303055640372008N8400000000038409R9500    05DNHAPPY HIPPIE             052442    VD84000000003840 N  549976487158                            000000000+                F DF 10433                     000000000  Y000000000 338   0000000000000.00 0000000.00   0000000.00                             000000000000000                                                                                                                                                     01418 A000000000000 0000000000000.24     00050 02200                  
03433530558090026DT67590675900000002881800888800000010180088824001193055900015400085022420230000001646205523000000000082075445101XXXXXX3960       PS01    0000000   NYV1 J N303055646521818N840000000016462FQDR00    01DNHAPPY HIPPIE             754968    VD84000000016462 N  549976487158                            000000000+                F DF 10425                     000000000  Y000000010 338   0000000000000.00 0000000.00   0000000.00                             000000000000000                                                                                                                                                     01418  000000000000 0000000000000.30     00050 02200                  
03433540558090027DT67590675900000002881800888800000010180088877287283055900015400095022420230000000125005523000000000082075511953XXXXXX0600       MS02WI09          NY 1 0 AMDJQWCE7J0224  N840000000001250          07DNHAPPY HIPPIE             062739    MD84000000001250 N  549976487158                            000000000+M10101M0034C    MDJ  00505                     000000000  N                0000000000000.00 0000000.00   0000000.00                             000000000000000                                                                                                                                                   B101418  000000000000 0000000000000.23     01550 00400                  
03433550558090028DT67590675900000002881800888800000010180088824001193055900015400101022420230000000362105523000000000082075438857XXXXXX0132       VS11    0001111   NYV1 A E463055708870833N8400000000036214B6D00    05DNHAPPY HIPPIE             03815D    VS84000000003621 N  549976487158                            000000000+                D CD 12113                     000000000  N000000000 499   0000000000000.00 0000000.00   0000000.00                             000000000000000                                                                                                                                                     01418 A000000000000 0000000000000.86     02100 01000                  
03433560558090029DT67590675900000002881800888800000010180088824001193055900015400119022420230000000325805523000000000082075443238XXXXXX9381       VS11    0001111   NYV1 A E303055711928894N84000000000325889LJ00    05DNHAPPY HIPPIE             044632    VD84000000003258 N  549976487158                            000000000+                F DF 00381                     000000000  N000000000       0000000000000.00 0000000.00   0000000.00                             000000000000000                                                                                                                                                     01418 A000000000000 0000000000000.41     00800 01500                  
03433570558090030DT67590675900000002881800888800000010180088824001193055900015400127022420230000000345605523000000000082075480639XXXXXX6856       VS11    0001111   NYV1 A E583055769813002N840000000003456DTSW00    05DNHAPPY HIPPIE             406079    VD84000000003456 N  549976487158                            000000000+                F DF 00381                     000000000  N000000000       0000000000000.00 0000000.00   0000000.00                             000000000000000                                                                                                                                                     01418 A000000000000 0000000000000.43     00800 01500                  
03433580558090031DT67590675900000002881800888800000010180088824001193055900015400135022420230000000225105523000000000082075445102XXXXXX6966       VS11    0001111   NYV1 A E583055774730855N840000000002251CVX400    05DNHAPPY HIPPIE             924510    VD84000000002251 N  549976487158                            000000000+                F DF 10433                     000000000  Y000000000 338   0000000000000.00 0000000.00   0000000.00                             000000000000000                                                                                                                                                     01418 A000000000000 0000000000000.23     00050 02200                  
03433590558090032DT67590675900000002881800888800000010180088824001193055900015400143022420230000000274305523000000000082075419162XXXXXX8794       VS11    0001111   NYV1 A E383055779274740N840000000002743HPX400    05DNHAPPY HIPPIE             063729    VD84000000002743 N  549976487158                            000000000+                F DF 00381                     000000000  N000000000       0000000000000.00 0000000.00   0000000.00                             000000000000000                                                                                                                                                     01418 A000000000000 0000000000000.37     00800 01500                  
03433600558090033DT67590675900000002881800888800000010180088877287283055900015400152022420230000000324605523000000000082075542432XXXXXX1738       MS02WI09          NY 2 0 AMDJI3CU5W0224  N840000000003246          05DNHAPPY HIPPIE             466217    MD84000000003246 N  549976487158                            000000000+M10101C1334C    MDJ  10815                     000000000  1                0000000000000.00 0000000.00   0000000.00                             000000000000000                                                                                                                                                   B101418  000000000000 0000000000000.24     00050 02200                  
03433610558090034DT67590675900000002881800888800000010180088824001193055900015400168022420230000000627105523000000000082075413037XXXXXX4265       VS11    0001111   NYV1 A E583055815079009N840000000006271RCCH00    05DNHAPPY HIPPIE             045413    VD84000000006271 N  549976487158                            000000000+                F DF 10433                     000000000  Y000000000 338   0000000000000.00 0000000.00   0000000.00                             000000000000000                                                                                                                                                     01418 A000000000000 0000000000000.25     00050 02200                  
03433620558090035DT67590675900000002881800888800000010180088824001193055900015400176022420230000000237105523000000000082075419090XXXXXX8251       VS11    0001111   NYV1 A E463055815972875N840000000002371SDP600    05DNHAPPY HIPPIE             869469    VD84000000002371 N  549976487158                            000000000+                F DF 00381                     000000000  N000000000       0000000000000.00 0000000.00   0000000.00                             000000000000000                                                                                                                                                     01418 A000000000000 0000000000000.34     00800 01500                  
03433630558090036DT67590675900000002881800888800000010180088877287283055900015400186022420230000000720705523000000000082075558341XXXXXX7565       MS02WI09          NY 1 0 AMDJN8DM530224  N840000000007207          05DNHAPPY HIPPIE             067437    MD84000000007207 N  549976487158                            000000000+M10101C5434C    MDJ  00402                     000000000  N                0000000000000.00 0000000.00   0000000.00                             000000000000000                                                                                                                                                   B101418  000000000000 0000000000000.91     01050 01500                  
03433640558090037BH6759067590000000215480088880000090170224202305523000000004199011    0000090001179990N8008886759C02262023                                                                                                                                                                                                                                                                                                                                                                                                                                                                                                                                                                                                 
03433650558090038DT67590675900000002154800888800000010180088873011003055900011764498022420230000003800005523000000004199011372725XXXXX5007                          NY 4 07N004422011054303N840000000038000          01DNDRIP DROP DISTRO LLC     215159    AM84000000038000 N  519971004114                            000000000+6004S0S00140 258     11243                     000000000                   0000000000000.00 0000000.00   0000000.00                             000000000000000 61248972736759675900000002154 DRIP DROP DISTRO LLC     1445 W COMMERCE AVE SUITE2087248209      83705     TROY@DRIPDROPDISTRO.COM                   01418  000000000000 0000000000006.37     01650 00000                  
03433660558090039DT67590675900000002154800888800000010180088873011003055900011762732022420230000003800005523000000004199011372725XXXXX5007                          NY 4 07N007217031162061N840000000038000          01DNDRIP DROP DISTRO LLC     286353    AM84000000038000 N  519971004114                            000000000+6004S0S00140 258     11243                     000000000                   0000000000000.00 0000000.00   0000000.00                             000000000000000 61248972736759675900000002154 DRIP DROP DISTRO LLC     1445 W COMMERCE AVE SUITE2087248209      83705     TROY@DRIPDROPDISTRO.COM                   01418  000000000000 0000000000006.37     01650 00000                  
03433670558090040DT67590675900000002154800888800000010180088873011003055900011742924022420230000012545405523000000004199011379804XXXXX5005                          NY 4 07N007215503821065N840000000125454          01DNDRIP DROP DISTRO LLC     148853    AM84000000125454 N  519971004114                            000000000+6004S0600140 258     11244                     000000000                   0000000000000.00 0000000.00   0000000.00                             000000000000000 61248972736759675900000002154 DRIP DROP DISTRO LLC     1445 W COMMERCE AVE SUITE2087248209      83705     TROY@DRIPDROPDISTRO.COM                   01418  000000000000 0000000000023.94     01900 00000                  
03433680558090041DT67590675900000002154800888800000010180088873011003055900011764134022420230000003800005523000000004199011372725XXXXX5007                          NY 4 07N007217104955060N840000000038000          01DNDRIP DROP DISTRO LLC     231783    AM84000000038000 N  519971004114                            000000000+6004S0S00140 258     11243                     000000000                   0000000000000.00 0000000.00   0000000.00                             000000000000000 61248972736759675900000002154 DRIP DROP DISTRO LLC     1445 W COMMERCE AVE SUITE2087248209      83705     TROY@DRIPDROPDISTRO.COM                   01418  000000000000 0000000000006.37     01650 00000                  
03433690558090042DT67590675900000002154800888800000010180088824001193055900011795330022420230000016732405523000000004199011411402XXXXXX9292               2111111   NYV4 A7W463055066594639N8400000001673247GJV00    01DNDRIP DROP DISTRO LLC     735090    VD84000000167324 NP1519971004114   17467                    000000000+                G DG 08705                     000000000  N000000000       0000000000000.00 0000000.00   0000000.00                             000000000000000                                                                                                                                                     01418 G000000167324 0000000000041.09     02450 01000                  
03433700558090001P16759067590000000215480088880000001010000000000000000    43958892578              2000000000000000000000000              000000000000                    0000000000000000000000000                    000000000000                                                                                                                                                                                                                                                                                                                                                                                                                                                                                        
03433710558090043DT67590675900000002154800888800000010180088824001193055900011777452022420230000295481305523000000004199011415417XXXXXX7695       PS01EF100000000   NYV4 07N383055011382660N8400000029548137NQ600    01DNDRIP DROP DISTRO LLC     05774G    VB84000002954813 NP1519971004114   INV-000883               000000000+                G5CG511885                     000000000  N000000010 148   0000000000000.00 0000000.00   0000000.00                             000000000000000                                                                                                                                                     01418  000000000000 0000000000930.97     03150 02000                  
03433720558090001P16759067590000000215480088880000001010000000000000000    43958770414              2000000000000000000000000              000000000000                    0000000000000000000000000                    000000000000                                                                                                                                                                                                                                                                                                                                                                                                                                                                                        
03433730558090044DT67590675900000002154800888800000010180088873011003055900011763078022420230000003800005523000000004199011372725XXXXX5007                          NY 4 07N007217068181067N840000000038000          01DNDRIP DROP DISTRO LLC     263040    AM84000000038000 N  519971004114                            000000000+6004S0S00140 258     11243                     000000000                   0000000000000.00 0000000.00   0000000.00                             000000000000000 61248972736759675900000002154 DRIP DROP DISTRO LLC     1445 W COMMERCE AVE SUITE2087248209      83705     TROY@DRIPDROPDISTRO.COM                   01418  000000000000 0000000000006.37     01650 00000                  
03433740558090045DT67590675900000002154800888800000010180088873011003055900011792572022420230000007350005523000000004199011372725XXXXX5007                          NY 4 07N007217131555065N840000000073500          01DNDRIP DROP DISTRO LLC     215245    AM84000000073500 N  519971004114                            000000000+6004S0S00140 258     11244                     000000000                   0000000000000.00 0000000.00   0000000.00                             000000000000000 61248972736759675900000002154 DRIP DROP DISTRO LLC     1445 W COMMERCE AVE SUITE2087248209      83705     TROY@DRIPDROPDISTRO.COM                   01418  000000000000 0000000000014.07     01900 00000                  
03433750558090046DT67590675900000002154800888800000010180088873011003055900011790675022420230000007350005523000000004199011372725XXXXX5007                          NY 4 07N007217154419066N840000000073500          01DNDRIP DROP DISTRO LLC     233593    AM84000000073500 N  519971004114                            000000000+6004S0S00140 258     11244                     000000000                   0000000000000.00 0000000.00   0000000.00                             000000000000000 61248972736759675900000002154 DRIP DROP DISTRO LLC     1445 W COMMERCE AVE SUITE2087248209      83705     TROY@DRIPDROPDISTRO.COM                   01418  000000000000 0000000000014.07     01900 00000                  
03433760558090047DT67590675900000002154800888800000010180088887287283055900011788096022420230000043200005523000000004199011558958XXXXXX9932                         NY 4607AMABI5UY7K0224  N840000000432000          81DNDRIP DROP DISTRO LLC     02358Q    MB84000000432000 NP1519900000001   INV-000927               000000000+600450S00140    MAB  11637                     000000000  N                0000000000000.00 0000000.00   0000000.00                             000000000000000                                                                                                                                                   U001418  000000000000 0000000000129.70     03000 01000                  
03433770558090001P1675906759000000021548008888000000101                                                          000000000000          8000            471534935                                                                                                                                                                                                                                                                                                                                                                                                                                                                                                                                                            
03433780558090048DT67590675900000002154800888800000010180088824001193055900011799902022420230000022042005523000000004199011415417XXXXXX5770               2111111   NYV4 A7W463055757418990N840000000220420T8TR00    01DNDRIP DROP DISTRO LLC     06666G    VB84000000220420 NP1519971004114   17472                    000000000+                G5CG511887                     000000000  N000000000 163   0000000000000.00 0000000.00   0000000.00                             000000000000000                                                                                                                                                     01418 G000000220420 0000000000066.23     03000 01000                  
03433790558090001P16759067590000000215480088880000001010000000000000000    43960445178              2000000000000000000000000              000000000000                    0000000000000000000000000                    000000000000                                                                                                                                                                                                                                                                                                                                                                                                                                                                                        
03433800558090049BH6759067590000000288180088880000090170224202305523000000000126087    0000090001530024N8008886759C02262023                                                                                                                                                                                                                                                                                                                                                                                                                                                                                                                                                                                                 
03433810558090050DT67590675900000002881800888800000010180088877287283055900015300014022420230000000591305523000000000126087511953XXXXXX5690       MS02WI09          NY 1 0 AMDJX4PFZP0224  N840000000005913          05DNHAPPY HIPPIE             071425    MD84000000005913 N  549976487134                            000000000+M10101C5434C    MDJ  00402                     000000000  N                0000000000000.00 0000000.00   0000000.00                             000000000000000                                                                                                                                                   B101418  000000000000 0000000000000.77     01050 01500                  
03433820558090051DT67590675900000002881800888800000010180088824001193055900015300020022420230000000641805523000000000126087480639XXXXXX1921       VS11    0001111   NYV1 A E463055596309503N840000000006418VVXJ00    05DNHAPPY HIPPIE             396317    VD84000000006418 N  549976487134                            000000000+                F DF 00381                     000000000  N000000000       0000000000000.00 0000000.00   0000000.00                             000000000000000                                                                                                                                                     01418 A000000000000 0000000000000.66     00800 01500                  
03433830558090052DT67590675900000002881800888800000010180088877287283055900015300030022420230000001210705523000000000126087555426XXXXXX7471       MS02WI09          NY 1 0 AMPGIRM5M90224  N840000000012107          90DNHAPPY HIPPIE             004235    MD84000000012107 N  549976487134                            000000000+M10101B5434C    MPG  11964                     000000000  N                0000000000000.00 0000000.00   0000000.00                             000000000000000                                                                                                                                                   C101418  000000000000 0000000000001.54     01150 01500                  
03433840558090053DT67590675900000002881800888800000010180088824001193055900015300046022420230000000444405523000000000126087422921XXXXXX9132       VS11    0001111   NYV1 A E463055603278542N8400000000044446VBB00    05DNHAPPY HIPPIE             042328    VD84000000004444 N  549976487134                            000000000+                F DF 00381                     000000000  N000000000       0000000000000.00 0000000.00   0000000.00                             000000000000000                                                                                                                                                     01418 A000000000000 0000000000000.51     00800 01500                  
03433850558090054DT67590675900000002881800888800000010180088877287283055900015300055022420230000001480205523000000000126087552433XXXXXX4176       MS02WI09          NY 1 0 AMPLDMGDM90224  N840000000014802          05DNHAPPY HIPPIE             03114M    MC84000000014802 N  549976487134                            000000000+M10101C5434C    MPL  00364                     000000000  N                0000000000000.00 0000000.00   0000000.00                             000000000000000                                                                                                                                                   B101418  000000000000 0000000000002.70     01800 00400                  
03433860558090055DT67590675900000002881800888800000010180088824001193055900015300061022420230000000680105523000000000126087466189XXXXXX9824       VS11    0001111   NYV1 A E383055638430341N8400000000068018WGF00    05DNHAPPY HIPPIE             081078    VD84000000006801 N  549976487134                            000000000+                F DF 10433                     000000000  Y000000000 338   0000000000000.00 0000000.00   0000000.00                             000000000000000                                                                                                                                                     01418 A000000000000 0000000000000.25     00050 02200                  
03433870558090056DT67590675900000002881800888800000010180088824001193055900015300079022420230000000790105523000000000126087442793XXXXXX1535       VS11    0001111   NYV1 A E303055640728021N840000000007901RJD400    05DNHAPPY HIPPIE             021237    VD84000000007901 N  549976487134                            000000000+                F DF 10433                     000000000  Y000000000 338   0000000000000.00 0000000.00   0000000.00                             000000000000000                                                                                                                                                     01418 A000000000000 0000000000000.26     00050 02200                  
03433880558090057DT67590675900000002881800888800000010180088824001193055900015300087022420230000000325805523000000000126087498503XXXXXX8170       VS11    0001111   NYV1 A E583055643634098N840000000003258WGGQ00    05DNHAPPY HIPPIE             079406    VD84000000003258 N  549976487134                            000000000+                F DF 00381                     000000000  N000000000       0000000000000.00 0000000.00   0000000.00                             000000000000000                                                                                                                                                     01418 A000000000000 0000000000000.41     00800 01500                  
03433890558090058DT67590675900000002881800888800000010180088824001193055900015300095022420230000000394905523000000000126087419090XXXXXX6750       VS11    0001111   NYV1 A E303055650076400N840000000003949VLZC00    05DNHAPPY HIPPIE             858872    VD84000000003949 N  549976487134                            000000000+                F DF 00381                     000000000  N000000000       0000000000000.00 0000000.00   0000000.00                             000000000000000                                                                                                                                                     01418 A000000000000 0000000000000.47     00800 01500                  
03433900558090059DT67590675900000002881800888800000010180088824001193055900015300103022420230000000438905523000000000126087453506XXXXXX5872       VS11    0001111   NYV1 A E383055683123382N840000000004389DCNC00    05DNHAPPY HIPPIE             H30290    VD84000000004389 N  549976487134                            000000000+                F DF 10433                     000000000  Y000000000 338   0000000000000.00 0000000.00   0000000.00                             000000000000000                                                                                                                                                     01418 A000000000000 0000000000000.24     00050 02200                  
03433910558090060DT67590675900000002881800888800000010180088824001193055900015300111022420230000000998405523000000000126087453506XXXXXX5872       VS11    0001111   NYV1 A E303055687742558N8400000000099844MRK00    05DNHAPPY HIPPIE             H40667    VD84000000009984 N  549976487134                            000000000+                F DF 10433                     000000000  Y000000000 338   0000000000000.00 0000000.00   0000000.00                             000000000000000                                                                                                                                                     01418 A000000000000 0000000000000.27     00050 02200                  
03433920558090061DT67590675900000002881800888800000010180088824001193055900015300129022420230000000395005523000000000126087480639XXXXXX5244       VS11    0001111   NYV1 A E463055692678266N840000000003950BMTD00    05DNHAPPY HIPPIE             401966    VD84000000003950 N  549976487134                            000000000+                F DF 00381                     000000000  N000000000       0000000000000.00 0000000.00   0000000.00                             000000000000000                                                                                                                                                     01418 A000000000000 0000000000000.47     00800 01500                  
03433930558090062DT67590675900000002881800888800000010180088824001193055900015300137022420230000000395005523000000000126087419090XXXXXX5354       VS11    0001111   NYV1 A E463055694410093N840000000003950QF5Q00    05DNHAPPY HIPPIE             861779    VD84000000003950 N  549976487134                            000000000+                F DF 00381                     000000000  N000000000       0000000000000.00 0000000.00   0000000.00                             000000000000000                                                                                                                                                     01418 A000000000000 0000000000000.47     00800 01500                  
03433940558090063DT67590675900000002881800888800000010180088876509753055900015300143022420230000000395005523000000000126087601100XXXXXX4729   BA50                  NY41 0 N863047172441868N840000000003950    00    05DNHAPPY HIPPIE             02463R    DS84000000003950 N  549976487134050                         000000000+0000004910H00   DCCDI01000001137  122043000000 000000000  0          112   0000000000000.00 0000000.00   0000000.00                             000000000000000                                                                                                                                                     01418  000000000000 0000000000000.78     01720 01000                  
03433950558090064DT67590675900000002881800888800000010180088824001193055900015300152022420230000000345405523000000000126087415978XXXXXX3096       VS11    0001111   NYV1 A E463055698840984N840000000003454K7RB00    05DNHAPPY HIPPIE             094152    VD84000000003454 N  549976487134                            000000000+                F DF 10433                     000000000  Y000000000 338   0000000000000.00 0000000.00   0000000.00                             000000000000000                                                                                                                                                     01418 A000000000000 0000000000000.24     00050 02200                  
03433960558090065DT67590675900000002881800888800000010180088877287283055900015300162022420230000000174705523000000000126087518941XXXXXX4253       MS02WI09          NY 1 0 AMWEOHUF5W0224  N840000000001747          05DNHAPPY HIPPIE             66299Z    MC84000000001747 N  549976487134                            000000000+M10101C5434C    MWE  00743                     000000000  N                0000000000000.00 0000000.00   0000000.00                             000000000000000                                                                                                                                                   B101418  000000000000 0000000000000.44     02300 00400                  
03433970558090066DT67590675900000002881800888800000010180088824001193055900015300178022420230000000138005523000000000126087441776XXXXXX0175       VK04VS111111111   NYV1 A E383055737731168N840000000001380BZ2400    07DNHAPPY HIPPIE             864479    VD84000000001380 N  549976487134                            000000000+                F DF 00451                     000000000  N000000000 214   0000000000000.00 0000000.00   0000000.00                             000000000000000                                                                                                                                                     01418 F000000000000 0000000000000.25     01550 00400                  
03433980558090067DT67590675900000002881800888800000010180088824001193055900015300186022420230000000197405523000000000126087440393XXXXXX0167       VS11    0001111   NYV1 A E463055744858078N840000000001974LBNZ00    05DNHAPPY HIPPIE             342049    VD84000000001974 N  549976487134                            000000000+                F PF 08170                     000000000  N000000000       0000000000000.00 0000000.00   0000000.00                             000000000000000                                                                                                                                                     01418 A000000000000 0000000000000.38     01150 01500                  
03433990558090068DT67590675900000002881800888800000010180088824001193055900015300194022420230000000125805523000000000126087483312XXXXXX8730       VK04VS111111111   NYV1 A E303055759091003N840000000001258J3TC00    05DNHAPPY HIPPIE             090516    VD84000000001258 N  549976487134                            000000000+                F DF 10439                     000000000  Y000000000 331   0000000000000.00 0000000.00   0000000.00                             000000000000000                                                                                                                                                     01418 F000000000000 0000000000000.23     00050 02200                  
03434000558090069DT67590675900000002881800888800000010180088877287283055900015300204022420230000000316105523000000000126087511953XXXXXX9431       MS02WI09          NY 1 0 AMDJNTXK7K0224  N840000000003161          05DNHAPPY HIPPIE             007099    MD84000000003161 N  549976487134                            000000000+M10101C5434C    MDJ  00402                     000000000  N                0000000000000.00 0000000.00   0000000.00                             000000000000000                                                                                                                                                   B101418  000000000000 0000000000000.48     01050 01500                  
03434010558090070DT67590675900000002881800888800000010180088824001193055900015300210022420230000000231505523000000000126087422921XXXXXX8866       VS11    0001111   NYV1 A E303055774081973N8400000000023154MB300    05DNHAPPY HIPPIE             059409    VD84000000002315 N  549976487134                            000000000+                F DF 00381                     000000000  N000000000       0000000000000.00 0000000.00   0000000.00                             000000000000000                                                                                                                                                     01418 A000000000000 0000000000000.34     00800 01500                  
03434020558090071DT67590675900000002881800888800000010180088876509753055900015300226022420230000001382605523000000000126087601101XXXXXX0496   BA50                  NY41 0 N873047276798254N840000000013826    00    05DNHAPPY HIPPIE             02482P    DS84000000013826 N  549976487134050                         000000000+0000004910H00   DCPDI01118667152  151439000000 000000000  0          146   0000000000000.00 0000000.00   0000000.00                             000000000000000                                                                                                                                                     01418  000000000000 0000000000002.51     01740 01000                  
03434030558090072DT67590675900000002881800888800000010180088824001193055900015300236022420230000000296205523000000000126087443264XXXXXX0015       VS11    0001111   NYV1 A E463055809678013N840000000002962R3QZ00    05DNHAPPY HIPPIE             003528    VD84000000002962 N  549976487134                            000000000+                F DF 10433                     000000000  Y000000000 338   0000000000000.00 0000000.00   0000000.00                             000000000000000                                                                                                                                                     01418 A000000000000 0000000000000.23     00050 02200                  
03434040558090073DT67590675900000002881800888800000010180088824001193055900015300244022420230000000219405523000000000126087410801XXXXXX6042       VS11    0001111   NYV1 A E583055823523764N840000000002194Q9FV00    05DNHAPPY HIPPIE             075232    VD84000000002194 N  549976487134                            000000000+                F DF 00381                     000000000  N000000000       0000000000000.00 0000000.00   0000000.00                             000000000000000                                                                                                                                                     01418 A000000000000 0000000000000.33     00800 01500                  
03434050558090074BH6759067590000000561180088880000090170224202305523000000000015999    0000090001182437N8008886759C02262023                                                                                                                                                                                                                                                                                                                                                                                                                                                                                                                                                                                                 
03434060558090075DT67590675900000005611800888800000010180088824001193055900011824379022420230000001599905523000000000015999460675XXXXXX8357               2111111   NYV4 A7W303055600032157N840000000015999J4N200    01DNK DIVINE 503-689-7182    441300    VD84000000015999 NP1549971004114   5244                     000000000+                G DG 08705                     000000000  N000000000       0000000000000.00 0000000.00   0000000.00                             000000000000000                                                                                                                                                     01418 G000000015999 0000000000004.02     02450 01000                  
03434070558090001P16759067590000000561180088880000001010000000000000000    64220875614              2000000000000000000000000              000000000000                    0000000000000000000000000                    000000000000                                                                                                                                                                                                                                                                                                                                                                                                                                                                                        
03434080558090076BH6759067590000000096880088880000090170224202305523000000000006870    0000090001476637N8008886759C02262023                                                                                                                                                                                                                                                                                                                                                                                                                                                                                                                                                                                                 
03434090558090077DT67590675900000000968800888800000010180088887287283055900014766370022420230000000687005523000000000006870531260XXXXXX4405       ME03KE06MS02      NY 4607AMDJH2ODEQ0223  N840000000006870          81DNHIGHER FLOUR LLC         113631    MD84000000006870 N  546200000001   rNRDsPvofXxKPRr7FaHR     000000000+600450S00140    MDJ  10813                     000000000  1                0000000000000.00 0000000.00   0000000.00                             000000000000000                                                                                                                                                   U001418  000000000000 0000000000000.25     00050 02200                  
03434100558090078BH6759067590000000995180010180000090170224202305523000000000041723    0000090001160010N8001016759C02262023                                                                                                                                                                                                                                                                                                                                                                                                                                                                                                                                                                                                 
03434110558090079DT67590675900000009951800101800000010180010177287283055900011600011022420230000000410205523000000000041723510805XXXXXX5228       MS02WI09          NY 1 0 AMDJKO8YZS0224  N840000000004102          05DNPLANET VAPOR #500        011424    MD84000000004102 N  599976923295                            000000000+M10101C5434C    MDJ  10815                     000000000  1                0000000000000.00 0000000.00   0000000.00                             000000000000000                                                                                                                                                   B101418  000000000000 0000000000000.24     00050 02200                  
03434120558090080DT67590675900000009951800101800000010180010177287283055900011600029022420230000000237505523000000000041723510805XXXXXX5228       MS02WI09          NY 1 0 AMDJKQW8ZS0224  N840000000002375          05DNPLANET VAPOR #500        011548    MD84000000002375 N  599976923295                            000000000+M10101C5434C    MDJ  10815                     000000000  1                0000000000000.00 0000000.00   0000000.00                             000000000000000                                                                                                                                                   B101418  000000000000 0000000000000.23     00050 02200                  
03434130558090081DT67590675900000009951800101800000010180010124001193055900011600035022420230000000906805523000000000041723434769XXXXXX9289       VS11    0001111   NYV1 A E383055666767768N84000000000906826XG00    05DNPLANET VAPOR #500        073113    VD84000000009068 N  599976923295                            000000000+                F DF 10433                     000000000  Y000000000 338   0000000000000.00 0000000.00   0000000.00                             000000000000000                                                                                                                                                     01418 A000000000000 0000000000000.27     00050 02200                  
03434140558090082DT67590675900000009951800101800000010180010124001193055900011600043022420230000000766505523000000000041723449370XXXXXX2057       VS11    0001111   NYV1 A E383055706143875N840000000007665L3PL00    05DNPLANET VAPOR #500        077590    VD84000000007665 N  599976923295                            000000000+                F DF 00381                     000000000  N000000000       0000000000000.00 0000000.00   0000000.00                             000000000000000                                                                                                                                                     01418 A000000000000 0000000000000.76     00800 01500                  
03434150558090083DT67590675900000009951800101800000010180010124001193055900011600050022420230000000242905523000000000041723440393XXXXXX4340       VS11    0001111   NYV1 A E303055812439480N84000000000242932VM00    05DNPLANET VAPOR #500        459566    VD84000000002429 N  599976923295                            000000000+                F PF 08170                     000000000  N000000000       0000000000000.00 0000000.00   0000000.00                             000000000000000                                                                                                                                                     01418 A000000000000 0000000000000.43     01150 01500                  
03434160558090084DT67590675900000009951800101800000010180010124001193055900011600068022420230000000161905523000000000041723473703XXXXXX1894       VS11    0001111   NYV1 A E583055821032577N8400000000016196DGZ00    05DNPLANET VAPOR #500        088658    VD84000000001619 N  599976923295                            000000000+                F DF 10433                     000000000  Y000000000 338   0000000000000.00 0000000.00   0000000.00                             000000000000000                                                                                                                                                     01418 A000000000000 0000000000000.23     00050 02200                  
03434170558090085DT67590675900000009951800101800000010180010124001193055900011600076022420230000000183505523000000000041723473703XXXXXX1894       VS11    0001111   NYV1 A E583055822236705N840000000001835WLGK00    05DNPLANET VAPOR #500        067417    VD84000000001835 N  599976923295                            000000000+                F DF 10433                     000000000  Y000000000 338   0000000000000.00 0000000.00   0000000.00                             000000000000000                                                                                                                                                     01418 A000000000000 0000000000000.23     00050 02200                  
03434180558090086DT67590675900000009951800101800000010180010124001193055900011600084022420230000000269905523000000000041723448261XXXXXX1372       VS11    0001111   NYV1 A E583055831900169N840000000002699DRZG00    05DNPLANET VAPOR #500        666180    VD84000000002699 N  599976923295                            000000000+                F DF 10433                     000000000  Y000000000 338   0000000000000.00 0000000.00   0000000.00                             000000000000000                                                                                                                                                     01418 A000000000000 0000000000000.23     00050 02200                  
03434190558090087DT67590675900000009951800101800000010180010124001193055900011600092022420230000000453305523000000000041723473703XXXXXX9591       VS11    0001111   NYV1 A E463055853593792N840000000004533VR4C00    05DNPLANET VAPOR #500        024495    VD84000000004533 N  599976923295                            000000000+                F DF 10433                     000000000  Y000000000 338   0000000000000.00 0000000.00   0000000.00                             000000000000000                                                                                                                                                     01418 A000000000000 0000000000000.24     00050 02200                  
03434200558090088DT67590675900000009951800101800000010180010124001193055900011600100022420230000000539805523000000000041723462192XXXXXX7557       VS11    0001111   NYV1 A E303056035209806N840000000005398W9JG00    05DNPLANET VAPOR #500        024684    VS84000000005398 N  599976923295                            000000000+                A CA 12110                     000000000  N000000000 493   0000000000000.00 0000000.00   0000000.00                             000000000000000                                                                                                                                                     01418 A000000000000 0000000000000.92     01510 01000                  
03434210558090089BH6759067590000001094280010180000090170224202305523000000000078764    0000090001160016N8001016759C02262023                                                                                                                                                                                                                                                                                                                                                                                                                                                                                                                                                                                                 
03434220558090090DT67590675900000010942800101800000010180010124001193055900011600019022420230000000224505523000000000078764440066XXXXXX5263       VS11    0001111   NYV1 A E383055544136000N840000000002245CJRJ00    07DNPLANET VAPOR #800        03716D    VS84000000002245 N  599976923545                            000000000+                D CD 12113                     000000000  N000000000 499   0000000000000.00 0000000.00   0000000.00                             000000000000000                                                                                                                                                     01418 A000000000000 0000000000000.57     02100 01000                  
03434230558090091DT67590675900000010942800101800000010180010124001193055900011600027022420230000000320805523000000000078764430602XXXXXX8189       VS11    0001111   NYV1 A E383055560507346N840000000003208HQZR00    07DNPLANET VAPOR #800        927892    VD84000000003208 N  599976923545                            000000000+                F DF 00381                     000000000  N000000000       0000000000000.00 0000000.00   0000000.00                             000000000000000                                                                                                                                                     01418 A000000000000 0000000000000.41     00800 01500                  
03434240558090092DT67590675900000010942800101800000010180010177287283055900011600037022420230000000320805523000000000078764531258XXXXXX6467       MS02WI09          NY 1 0 AMDJH5M8ZS0224  N840000000003208          07DNPLANET VAPOR #800        113781    MD84000000003208 N  599976923545                            000000000+M10101M0034C    MDJ  10815                     000000000  1                0000000000000.00 0000000.00   0000000.00                             000000000000000                                                                                                                                                   B101418  000000000000 0000000000000.24     00050 02200                  
03434250558090093DT67590675900000010942800101800000010180010124001193055900011600043022420230000001069905523000000000078764473703XXXXXX5648       VS11    0001111   NYV1 A E583055570119405N8400000000106997XQW00    05DNPLANET VAPOR #800        061266    VD84000000010699 N  599976923545                            000000000+                F DF 10433                     000000000  Y000000000 338   0000000000000.00 0000000.00   0000000.00                             000000000000000                                                                                                                                                     01418 A000000000000 0000000000000.27     00050 02200                  
03434260558090094DT67590675900000010942800101800000010180010177287283055900011600052022420230000000323505523000000000078764546429XXXXXX8278       MS02WI09          NY 1 0 AMDJYN9EZP0224  N840000000003235          05DNPLANET VAPOR #800        390577    MD84000000003235 N  599976923545                            000000000+M10101C5434C    MDJ  00402                     000000000  N                0000000000000.00 0000000.00   0000000.00                             000000000000000                                                                                                                                                   B101418  000000000000 0000000000000.49     01050 01500                  
03434270558090095DT67590675900000010942800101800000010180010124001193055900011600068022420230000000561405523000000000078764474474XXXXXX4075       VS11    0001111   NYV1 A E463055606458294N840000000005614438B00    07DNPLANET VAPOR #800        115402    VD84000000005614 N  599976923545                            000000000+                F DF 10433                     000000000  Y000000000 338   0000000000000.00 0000000.00   0000000.00                             000000000000000                                                                                                                                                     01418 A000000000000 0000000000000.25     00050 02200                  
03434280558090096DT67590675900000010942800101800000010180010177287283055900011600078022420230000000427805523000000000078764557261XXXXXX6778                         NY 1 0 AMDBJ6DWZS0224  N840000000004278          05DNPLANET VAPOR #800        038638    MD84000000004278 NP1599976923545                            000000000+M10101C5434C    MDB  00062                     000000000  N                0000000000000.00 0000000.00   0000000.00                             000000000000000                                                                                                                                                   B101418  000000000000 0000000000001.23     02650 01000                  
03434290558090001P1675906759000000109428001018000000101                                                          000000000000          1000            472803059                                                                                                                                                                                                                                                                                                                                                                                                                                                                                                                                                            
03434300558090097DT67590675900000010942800101800000010180010124001193055900011600084022420230000000074805523000000000078764440393XXXXXX6581       VK04VS111111111   NYV1 A E383055699857145N840000000000748V4TC00    07DNPLANET VAPOR #800        608588    VD84000000000748 N  599976923545                            000000000+                F PF 08165                     000000000  N000000000       0000000000000.00 0000000.00   0000000.00                             000000000000000                                                                                                                                                     01418 F000000000000 0000000000000.17     01600 00500                  
03434310558090098DT67590675900000010942800101800000010180010124001193055900011600092022420230000000577705523000000000078764400022XXXXXX9374       VS11    0001111   NYV1 A E303055716870710N840000000005777CGCP00    07DNPLANET VAPOR #800        858366    VD84000000005777 N  599976923545                            000000000+                F DF 10433                     000000000  Y000000000 338   0000000000000.00 0000000.00   0000000.00                             000000000000000                                                                                                                                                     01418 A000000000000 0000000000000.25     00050 02200                  
03434320558090099DT67590675900000010942800101800000010180010173011003055900011600106022420230000000529505523000000000078764377772XXXXX8012                          NY 1 0 N007228081095069N840000000005295          90DNPLANET VAPOR INC #800    728980    AM84000000005295 N  599976923545                            000000000+51010125434C 258RP   11273                     000000000                   0000000000000.00 0000000.00   0000000.00                             000000000000000 61248972086759675900000010942 PLANET VAPOR INC #800    2247 SUNSET BLVD         8035462263      29169     KEVIN@MOOREDISTRO.COM                     01418  000000000000 0000000000000.81     01350 00000                  
03434330558090100DT67590675900000010942800101800000010180010124001193055900011600118022420230000000269205523000000000078764465638XXXXXX7919       VS11    0001111   NYV1 A E463055771897710N8400000000026922WKJ00    05DNPLANET VAPOR #800        321820    VS84000000002692 N  599976923545                            000000000+                B CB 12111                     000000000  N000000000 495   0000000000000.00 0000000.00   0000000.00                             000000000000000                                                                                                                                                     01418 A000000000000 0000000000000.54     01650 01000                  
03434340558090101DT67590675900000010942800101800000010180010124001193055900011600126022420230000000245805523000000000078764448261XXXXXX2259       VS11    0001111   NYV1 A E303055803384047N8400000000024587P3300    07DNPLANET VAPOR #800        667153    VD84000000002458 N  599976923545                            000000000+                F DF 10433                     000000000  Y000000000 338   0000000000000.00 0000000.00   0000000.00                             000000000000000                                                                                                                                                     01418 A000000000000 0000000000000.23     00050 02200                  
03434350558090102DT67590675900000010942800101800000010180010124001193055900011600134022420230000000235305523000000000078764438419XXXXXX4101       VS11    0001111   NYV1 A E583055824926166N8400000000023533PBV00    05DNPLANET VAPOR #800        075452    VD84000000002353 N  599976923545                            000000000+                F DF 00381                     000000000  N000000000       0000000000000.00 0000000.00   0000000.00                             000000000000000                                                                                                                                                     01418 A000000000000 0000000000000.34     00800 01500                  
03434360558090103DT67590675900000010942800101800000010180010124001193055900011600142022420230000000427905523000000000078764461675XXXXXX4196       VS11    0001111   NYV1 A E383055829530041N840000000004279TK2300    05DNPLANET VAPOR #800        401770    VD84000000004279 N  599976923545                            000000000+                F DF 00381                     000000000  N000000000       0000000000000.00 0000000.00   0000000.00                             000000000000000                                                                                                                                                     01418 A000000000000 0000000000000.49     00800 01500                  
03434370558090104DT67590675900000010942800101800000010180010124001193055900011600159022420230000001732705523000000000078764423223XXXXXX8722       VS11    0001111   NYV1 A E383055838925144N840000000017327DX8G00    05DNPLANET VAPOR #800        006544    VD84000000017327 N  599976923545                            000000000+                F DF 00381                     000000000  N000000000       0000000000000.00 0000000.00   0000000.00                             000000000000000                                                                                                                                                     01418 A000000000000 0000000000001.54     00800 01500                  
03434380558090105DT67590675900000010942800101800000010180010124001193055900011600167022420230000000534805523000000000078764455225XXXXXX1179       VS11    0001111   NYV1 A E463056004923855N840000000005348HH5J00    05DNPLANET VAPOR #800        H86221    VD84000000005348 N  599976923545                            000000000+                F DF 10433                     000000000  Y000000000 338   0000000000000.00 0000000.00   0000000.00                             000000000000000                                                                                                                                                     01418 A000000000000 0000000000000.25     00050 02200                  
03434390558090106BH6759067590000000708880010180000090170224202305523000000000122036    0000090001160031N8001016759C02262023                                                                                                                                                                                                                                                                                                                                                                                                                                                                                                                                                                                                 
03434400558090107DT67590675900000007088800101800000010180010177287283055900011600011022420230000000237505523000000000122036533248XXXXXX4697       MS02WI09          NY 1 0 AMPVW8TLZP0224  N840000000002375          05DNPLANET VAPOR #200        K1RSB7    MD84000000002375 N  599976770268                            000000000+M10101C5434C    MPV  11964                     000000000  N                0000000000000.00 0000000.00   0000000.00                             000000000000000                                                                                                                                                   B101418  000000000000 0000000000000.42     01150 01500                  
03434410558090108DT67590675900000007088800101800000010180010124001193055900011600027022420230000000582805523000000000122036400022XXXXXX6263       VS11    0001111   NYV1 A E463055547148989N840000000005828T74500    07DNPLANET VAPOR #200        549581    VD84000000005828 N  599976770268                            000000000+                F DF 10433                     000000000  Y000000000 338   0000000000000.00 0000000.00   0000000.00                             000000000000000                                                                                                                                                     01418 A000000000000 0000000000000.25     00050 02200                  
03434420558090109DT67590675900000007088800101800000010180010124001193055900011600035022420230000000215905523000000000122036430602XXXXXX7935       VS11    0001111   NYV1 A E463055551073662N8400000000021598K2Z00    05DNPLANET VAPOR #200        925918    VD84000000002159 N  599976770268                            000000000+                F DF 00381                     000000000  N000000000       0000000000000.00 0000000.00   0000000.00                             000000000000000                                                                                                                                                     01418 A000000000000 0000000000000.32     00800 01500                  
03434430558090110DT67590675900000007088800101800000010180010124001193055900011600043022420230000000194305523000000000122036466189XXXXXX2253       VS11    0001111   NYV1 A E383055565550651N840000000001943DL4H00    05DNPLANET VAPOR #200        024912    VD84000000001943 N  599976770268                            000000000+                F DF 10433                     000000000  Y000000000 338   0000000000000.00 0000000.00   0000000.00                             000000000000000                                                                                                                                                     01418 A000000000000 0000000000000.23     00050 02200                  
03434440558090111DT67590675900000007088800101800000010180010177287283055900011600052022420230000000280705523000000000122036510805XXXXXX4033       MS02WI09          NY 1 0 AMDJHHQAM90224  N840000000002807          05DNPLANET VAPOR #200        095330    MD84000000002807 N  599976770268                            000000000+M10101C5434C    MDJ  10815                     000000000  1                0000000000000.00 0000000.00   0000000.00                             000000000000000                                                                                                                                                   B101418  000000000000 0000000000000.23     00050 02200                  
03434450558090112DT67590675900000007088800101800000010180010124001193055900011600068022420230000000377805523000000000122036414718XXXXXX9542       VS11    0001111   NYV1 A E463055585799590N8400000000037784X6V00    05DNPLANET VAPOR #200        024181    VS84000000003778 N  599976770268                            000000000+                D CD 12113                     000000000  N000000000 499   0000000000000.00 0000000.00   0000000.00                             000000000000000                                                                                                                                                     01418 A000000000000 0000000000000.89     02100 01000                  
03434460558090113DT67590675900000007088800101800000010180010124001193055900011600076022420230000000237505523000000000122036435544XXXXXX5268       VS11    0001111   NYV1 A E303055589641720N8400000000023758LNV00    05DNPLANET VAPOR #200        124091    VD84000000002375 N  599976770268                            000000000+                F DF 10433                     000000000  Y000000000 338   0000000000000.00 0000000.00   0000000.00                             000000000000000                                                                                                                                                     01418 A000000000000 0000000000000.23     00050 02200                  
03434470558090114DT67590675900000007088800101800000010180010124001193055900011600084022420230000000161905523000000000122036414740XXXXXX2121       VS11    0001111   NYV1 A E583055610928283N84000000000161943X300    05DNPLANET VAPOR #200        04381D    VS84000000001619 N  599976770268                            000000000+                D CD 12113                     000000000  N000000000 499   0000000000000.00 0000000.00   0000000.00                             000000000000000                                                                                                                                                     01418 A000000000000 0000000000000.44     02100 01000                  
03434480558090115DT67590675900000007088800101800000010180010124001193055900011600092022420230000000698805523000000000122036425307XXXXXX6935       VS11    0001111   NYV1 A E463055629403314N840000000006988Z4KR00    90DNPLANET VAPOR #200        003971    VD84000000006988 N  599976770268                            000000000+                F PF 08170                     000000000  N000000000       0000000000000.00 0000000.00   0000000.00                             000000000000000                                                                                                                                                     01418 A000000000000 0000000000000.95     01150 01500                  
03434490558090116DT67590675900000007088800101800000010180010124001193055900011600100022420230000000269905523000000000122036440393XXXXXX2269       VS11    0001111   NYV1 A E383055647247878N840000000002699ZLC400    05DNPLANET VAPOR #200        513100    VD84000000002699 N  599976770268                            000000000+                F PF 08170                     000000000  N000000000       0000000000000.00 0000000.00   0000000.00                             000000000000000                                                                                                                                                     01418 A000000000000 0000000000000.46     01150 01500                  
03434500558090117DT67590675900000007088800101800000010180010177287283055900011600110022420230000000453405523000000000122036527517XXXXXX3461       MS02WI09          NY 1 0 AMDJKVOB5W0224  N840000000004534          05DNPLANET VAPOR #200        112709    MD84000000004534 N  599976770268                            000000000+M10101C5434C    MDJ  10815                     000000000  1                0000000000000.00 0000000.00   0000000.00                             000000000000000                                                                                                                                                   B101418  000000000000 0000000000000.24     00050 02200                  
03434510558090118DT67590675900000007088800101800000010180010124001193055900011600126022420230000000269905523000000000122036465078XXXXXX0554       VS11    0001111   NYV1 A E583055662637821N840000000002699XSSR00    07DNPLANET VAPOR #200        112744    VD84000000002699 N  599976770268                            000000000+                F DF 10433                     000000000  Y000000000 338   0000000000000.00 0000000.00   0000000.00                             000000000000000                                                                                                                                                     01418 A000000000000 0000000000000.23     00050 02200                  
03434520558090119DT67590675900000007088800101800000010180010124001193055900011600134022420230000000641205523000000000122036459954XXXXXX8352       VS11    0001111   NYV1 A E583055678205745N8400000000064126KMZ00    05DNPLANET VAPOR #200        H31507    VD84000000006412 N  599976770268                            000000000+                F DF 10433                     000000000  Y000000000 338   0000000000000.00 0000000.00   0000000.00                             000000000000000                                                                                                                                                     01418 A000000000000 0000000000000.25     00050 02200                  
03434530558090120DT67590675900000007088800101800000010180010124001193055900011600142022420230000000369105523000000000122036474474XXXXXX7677       VS11    0001111   NYV1 A E463055688294936N8400000000036913BDK00    05DNPLANET VAPOR #200        110777    VD84000000003691 N  599976770268                            000000000+                F DF 10433                     000000000  Y000000000 338   0000000000000.00 0000000.00   0000000.00                             000000000000000                                                                                                                                                     01418 A000000000000 0000000000000.24     00050 02200                  
03434540558090121DT67590675900000007088800101800000010180010124001193055900011600159022420230000000291405523000000000122036413037XXXXXX4720       VS11    0001111   NYV1 A E383055698165792N840000000002914CN3N00    05DNPLANET VAPOR #200        005681    VD84000000002914 N  599976770268                            000000000+                F DF 10433                     000000000  Y000000000 338   0000000000000.00 0000000.00   0000000.00                             000000000000000                                                                                                                                                     01418 A000000000000 0000000000000.23     00050 02200                  
03434550558090122DT67590675900000007088800101800000010180010124001193055900011600167022420230000000213705523000000000122036400022XXXXXX4687       VS11    0001111   NYV1 A E463055726753356N840000000002137N6FL00    05DNPLANET VAPOR #200        736754    VD84000000002137 N  599976770268                            000000000+                F DF 10433                     000000000  Y000000000 338   0000000000000.00 0000000.00   0000000.00                             000000000000000                                                                                                                                                     01418 A000000000000 0000000000000.23     00050 02200                  
03434560558090123DT67590675900000007088800101800000010180010124001193055900011600175022420230000000326405523000000000122036474478XXXXXX8792       VS11    0001111   NYV1 A E583055749465832N8400000000032647RGK00    05DNPLANET VAPOR #200        114698    VD84000000003264 N  599976770268                            000000000+                F DF 10433                     000000000  Y000000000 338   0000000000000.00 0000000.00   0000000.00                             000000000000000                                                                                                                                                     01418 A000000000000 0000000000000.24     00050 02200                  
03434570558090124DT67590675900000007088800101800000010180010124001193055900011600183022420230000000242905523000000000122036423223XXXXXX1945       VS11    0001111   NYV1 A E303055754400352N8400000000024292HKP00    05DNPLANET VAPOR #200        072721    VD84000000002429 N  599976770268                            000000000+                F DF 00381                     000000000  N000000000       0000000000000.00 0000000.00   0000000.00                             000000000000000                                                                                                                                                     01418 A000000000000 0000000000000.34     00800 01500                  
03434580558090125DT67590675900000007088800101800000010180010124001193055900011600191022420230000000979805523000000000122036473703XXXXXX8008       VS11    0001111   NYV1 A E383055768299614N840000000009798CT6W00    05DNPLANET VAPOR #200        003761    VD84000000009798 N  599976770268                            000000000+                F DF 10433                     000000000  Y000000000 338   0000000000000.00 0000000.00   0000000.00                             000000000000000                                                                                                                                                     01418 A000000000000 0000000000000.27     00050 02200                  
03434590558090126DT67590675900000007088800101800000010180010177287283055900011600201022420230000000126305523000000000122036536062XXXXXX1758       MS02WI09          NY 1 0 AMDJWR0N7K0224  N840000000001263          05DNPLANET VAPOR #200        519614    MD84000000001263 N  599976770268                            000000000+M10101C5434C    MDJ  10815                     000000000  1                0000000000000.00 0000000.00   0000000.00                             000000000000000                                                                                                                                                   B101418  000000000000 0000000000000.23     00050 02200                  
03434600558090127DT67590675900000007088800101800000010180010124001193055900011600217022420230000000237505523000000000122036432825XXXXXX2239       VS11    0001111   NYV1 A E583055795913409N840000000002375W9QS00    05DNPLANET VAPOR #200        294740    VD84000000002375 N  599976770268                            000000000+                F DF 00381                     000000000  N000000000       0000000000000.00 0000000.00   0000000.00                             000000000000000                                                                                                                                                     01418 A000000000000 0000000000000.34     00800 01500                  
03434610558090128DT67590675900000007088800101800000010180010124001193055900011600225022420230000000593905523000000000122036427199XXXXXX0117       VS11    0001111   NYV1 A E463055806466613N840000000005939PD2L00    05DNPLANET VAPOR #200        901405    VD84000000005939 N  599976770268                            000000000+                F DF 00381                     000000000  N000000000       0000000000000.00 0000000.00   0000000.00                             000000000000000                                                                                                                                                     01418 A000000000000 0000000000000.63     00800 01500                  
03434620558090129DT67590675900000007088800101800000010180010124001193055900011600233022420230000000237505523000000000122036423223XXXXXX2084       VS11    0001111   NYV1 A E303055807912623N840000000002375J7QP00    05DNPLANET VAPOR #200        026142    VD84000000002375 N  599976770268                            000000000+                F DF 00381                     000000000  N000000000       0000000000000.00 0000000.00   0000000.00                             000000000000000                                                                                                                                                     01418 A000000000000 0000000000000.34     00800 01500                  
03434630558090130DT67590675900000007088800101800000010180010124001193055900011600241022420230000000377805523000000000122036466189XXXXXX2442       VS11    0001111   NYV1 A E583055836120358N840000000003778M8WN00    05DNPLANET VAPOR #200        084947    VD84000000003778 N  599976770268                            000000000+                F DF 10433                     000000000  Y000000000 338   0000000000000.00 0000000.00   0000000.00                             000000000000000                                                                                                                                                     01418 A000000000000 0000000000000.24     00050 02200                  
03434640558090131DT67590675900000007088800101800000010180010173011003055900011600254022420230000000375005523000000000122036371278XXXXX1025                          NY 1 0 N007230541146060N840000000003750          05DNPLANET VAPOR INC #200    849405    AM84000000003750 N  599976770268                            000000000+51010155434C 258     11261                     000000000                   0000000000000.00 0000000.00   0000000.00                             000000000000000 61248972086759675900000007088 PLANET VAPOR INC #200    7457 PATTERSON RD STE 1098035462263      29209     KEVIN@MOOREDISTRO.COM                     01418  000000000000 0000000000000.70     01600 00000                  
03434650558090132DT67590675900000007088800101800000010180010124001193055900011600266022420230000000213705523000000000122036400022XXXXXX2607       VS11    0001111   NYV1 A E383055843445403N840000000002137Q6SF00    05DNPLANET VAPOR #200        844917    VD84000000002137 N  599976770268                            000000000+                F DF 10433                     000000000  Y000000000 338   0000000000000.00 0000000.00   0000000.00                             000000000000000                                                                                                                                                     01418 A000000000000 0000000000000.23     00050 02200                  
03434660558090133DT67590675900000007088800101800000010180010124001193055900011600274022420230000000615305523000000000122036442644XXXXXX6767       VS11    0001111   NYV1 A E583055856369844N840000000006153R8R800    05DNPLANET VAPOR #200        024783    VS84000000006153 N  599976770268                            000000000+                A CA 12110                     000000000  N000000000 493   0000000000000.00 0000000.00   0000000.00                             000000000000000                                                                                                                                                     01418 A000000000000 0000000000001.03     01510 01000                  
03434670558090134DT67590675900000007088800101800000010180010124001193055900011600282022420230000000553705523000000000122036400022XXXXXX0816       VS11    0001111   NYV1 A E583055857465992N840000000005537333R00    05DNPLANET VAPOR #200        752072    VD84000000005537 N  599976770268                            000000000+                F DF 10433                     000000000  Y000000000 338   0000000000000.00 0000000.00   0000000.00                             000000000000000                                                                                                                                                     01418 A000000000000 0000000000000.25     00050 02200                  
03434680558090135DT67590675900000007088800101800000010180010177287283055900011600292022420230000000913205523000000000122036531258XXXXXX6506       MS02WI09          NY 1 0 AMDJQMBB530224  N840000000009132          05DNPLANET VAPOR #200        110648    MD84000000009132 N  599976770268                            000000000+M10101C5434C    MDJ  10815                     000000000  1                0000000000000.00 0000000.00   0000000.00                             000000000000000                                                                                                                                                   B101418  000000000000 0000000000000.27     00050 02200                  
03434690558090136DT67590675900000007088800101800000010180010124001193055900011600308022420230000000518205523000000000122036430602XXXXXX6027       VS11    0001111   NYV1 A E383056015494491N840000000005182RX9Z00    05DNPLANET VAPOR #200        031282    VD84000000005182 N  599976770268                            000000000+                F DF 00381                     000000000  N000000000       0000000000000.00 0000000.00   0000000.00                             000000000000000                                                                                                                                                     01418 A000000000000 0000000000000.56     00800 01500                  
03434700558090137DT67590675900000007088800101800000010180010124001193055900011600316022420230000000396605523000000000122036407535XXXXXX4287       VS11    0001111   NYV1 A E583056020734634N840000000003966PSM400    90DNPLANET VAPOR #200        662795    VD84000000003966 N  599976770268                            000000000+                F PF 08170                     000000000  N000000000       0000000000000.00 0000000.00   0000000.00                             000000000000000                                                                                                                                                     01418 A000000000000 0000000000000.61     01150 01500                  
