00004910542740002BH6759067590000000288180088880000090170323202308223000000000007298    0000090001830162Y8008886759C03242023                                                                                                                                                                                                                                                                                                                                                                                                                                                                                                                                                                                                 
00004920542740003DT67590675900000002881800888800000010180088824001193082900018301626032320230000000729808223000000000007298448261XXXXXX2015               2111111   NYV4 A7W383082692141701N840000000007298QXPW00    01DNHAPPY HIPPIE             500169    VD84000000007298 NP1549976044904   1980                     000000000+                F DF 10420                     000000000  Y000000000 338   0000000000000.00 0000000.00   0000000.00                             000000000000000                                                                                                                                                     01424 G000000007298 0000000000000.26     00050 02200                  
00004930542740001P16759067590000000288180088880000001010000000000000000                             2000000000000000000000000              000000000000                    0000000000000000000000000                    000000000000                                                                                                                                                                                                                                                                                                                                                                                                                                                                                        
00004940542740004BH6759067590000001330080010280000090170323202308223000000000438606    0000090001363649Y8001026759C03242023                                                                                                                                                                                                                                                                                                                                                                                                                                                                                                                                                                                                 
00004950542740005DT67590675900000013300800102800000010180010224001193082900013633239032220230000000642408223000000000438606444796XXXXXX9947               2111111   NYV4 A7W583078507042630N8400000000064247DRS00    01DNCBD8666317293            019307    VS84000000006424 NP1549977133133   9C6971FF70T9AB5C21FCFE8  000000000+                A CA 12106                     000000000  N000000000 492   0000000000000.00 0000000.00   0000000.00                             000000000000000                                                                                                                                                     01424 G000000006424 0000000000001.31     01890 01000                  
00004960542740001P16759067590000001330080010280000001010000000000000000                             2000000000000000000000000              000000000000                    0000000000000000000000000                    000000000000                                                                                                                                                                                                                                                                                                                                                                                                                                                                                        
00004970542740006DT67590675900000013300800102800000010180010287287283082900013633321032220230000002487008223000000000438606546325XXXXXX9939       ME03KE06MS02      NY 4607AMWEQQI7A90319  N840000000024870          81DNCBD8666317293            05157P    MC84000000024870 N  549977133133   A9FE92D657T8A41E1758E65  000000000+600450S00130    MWE  00737                     000000000  N                0000000000000.00 0000000.00   0000000.00                             000000000000000                                                                                                                                                   U001424  000000000000 0000000000006.57     02600 01000                  
00004980542740007DT67590675900000013300800102800000010180010224001193082900013633379032220230000000742408223000000000438606409311XXXXXX6726               2111111   NYV4 A7W303079114056103N8400000000074242JT900    01DNCBD8666317293            026867    VD84000000007424 NP1549977133133   5D815A5DC3TF7C55E971221  000000000+                F DF 10420                     000000000  Y000000000 338   0000000000000.00 0000000.00   0000000.00                             000000000000000                                                                                                                                                     01424 G000000007424 0000000000000.26     00050 02200                  
00004990542740001P16759067590000001330080010280000001010000000000000000                             2000000000000000000000000              000000000000                    0000000000000000000000000                    000000000000                                                                                                                                                                                                                                                                                                                                                                                                                                                                                        
00005000542740008DT67590675900000013300800102800000010180010287287283082900013635284032320230000000140608223000000000438606533248XXXXXX0606       ME03KE06MS02      NY 4607AMPVGEIHXU0323  N840000000001406          81DNCBD8666317293            MNLQ8U    MD84000000001406 N  549977133133   AC0075F7EET7D7CF1999800  000000000+600450S00130    MPV  09899                     000000000  N                0000000000000.00 0000000.00   0000000.00                             000000000000000                                                                                                                                                   U001424  000000000000 0000000000000.45     01760 02000                  
00005010542740009DT67590675900000013300800102800000010680010274001193082900013635296032320230000002121108223000000000438606404657XXXXXX1594               0000000   NYV4 07T463082523278864N840000000021211D9G600    01CNCBD8666317293            023073    VS84000000021211 NP1549977133133   3F0F54C524T3BE0FAEDB952  000000000+                A CA 00245                     000000000  N000000000 166   0000000000000.00 0000000.00   0000000.00                             000000000000000                                                                                                                                                     01424  000000021211-0000000000003.73     01760 00000                  
00005020542740001P16759067590000001330080010280000001060000000000000000                             2000000000000000000000000              000000000000                    0000000000000000000000000                    000000000000                                                                                                                                                                                                                                                                                                                                                                                                                                                                                        
00005030542740010DT67590675900000013300800102800000010180010224001193082900013635325032320230000000811208223000000000438606404657XXXXXX7906               2111111   NYV4 A7W383082592987528N840000000008112478P00    01DNCBD8666317293            023415    VS84000000008112 NP1549977133133   8771BE9B84TD52A97A108FB  000000000+                A CA 12106                     000000000  N000000000 492   0000000000000.00 0000000.00   0000000.00                             000000000000000                                                                                                                                                     01424 G000000008112 0000000000001.63     01890 01000                  
00005040542740001P16759067590000001330080010280000001010000000000000000                             2000000000000000000000000              000000000000                    0000000000000000000000000                    000000000000                                                                                                                                                                                                                                                                                                                                                                                                                                                                                        
00005050542740011DT67590675900000013300800102800000010180010287287283082900013635342032320230000000019908223000000000438606515177XXXXXX0740                         NY 4607AMPLESQDXU0323  N840000000000199          81DNCBD8666317293            141349    MC84000000000199 N  549977133133   88800CC727TFADB83C7D177  000000000+600450S00130    MPL  12148                     000000000  N                0000000000000.00 0000000.00   0000000.00                             000000000000000                                                                                                                                                   U001424  000000000000 0000000000000.06     01950 00200                  
00005060542740012DT67590675900000013300800102800000010180010224001193082900013635358032320230000000019908223000000000438606412076XXXXXX6256               2111111   NYV4 A7W463082601333432N840000000000199SBBC00    01DNCBD8666317293            673928    VS84000000000199 NP1549977133133   04D0279F9FTE8DB1F1ECAC8  000000000+                A CA 12106                     000000000  N000000000 492   0000000000000.00 0000000.00   0000000.00                             000000000000000                                                                                                                                                     01424 G000000000199 0000000000000.14     01890 01000                  
00005070542740001P16759067590000001330080010280000001010000000000000000                             2000000000000000000000000              000000000000                    0000000000000000000000000                    000000000000                                                                                                                                                                                                                                                                                                                                                                                                                                                                                        
00005080542740013DT67590675900000013300800102800000010180010224001193082900013635374032320230000000019908223000000000438606428803XXXXXX5806               2111111   NYV4 A7W583082616230189N8400000000001996C3P00    01DNCBD8666317293            422091    VD84000000000199 NP1549977133133   390445E933T3609B38A63D6  000000000+                S PS 10179                     000000000  N000000000 364   0000000000000.00 0000000.00   0000000.00                             000000000000000                                                                                                                                                     01424 G000000000199 0000000000000.15     02650 01000                  
00005090542740001P16759067590000001330080010280000001010000000000000000                             2000000000000000000000000              000000000000                    0000000000000000000000000                    000000000000                                                                                                                                                                                                                                                                                                                                                                                                                                                                                        
00005100542740014DT67590675900000013300800102800000010180010287287283082900013635383032320230000000019908223000000000438606531993XXXXXX9217                         NY 4607AMCPP7GT6E0323  N840000000000199          81DNCBD8666317293            1UK5O3    MB84000000000199 NP1549977133133   1DE24E2FD0T8C64C476CC05  000000000+600450S00130    MCP  00303                     000000000  N                0000000000000.00 0000000.00   0000000.00                             000000000000000                                                                                                                                                   U001424  000000000000 0000000000000.15     02700 01000                  
00005110542740001P1675906759000000133008001028000000101                                                          000000000000          8000            871584967                                                                                                                                                                                                                                                                                                                                                                                                                                                                                                                                                            
00005120542740015DT67590675900000013300800102800000010180010287287283082900013635417032320230000000019908223000000000438606514376XXXXXX6962                         NY 4607AMPWA69DZ20323  N840000000000199          81DNCBD8666317293            643541    MD84000000000199 NP1549977133133   61F442018FT48774090BACD  000000000+600450S00130    MPW  00062                     000000000  N                0000000000000.00 0000000.00   0000000.00                             000000000000000                                                                                                                                                   U001424  000000000000 0000000000000.15     02650 01000                  
00005130542740001P1675906759000000133008001028000000101                                                          000000000000          8000            871584967                                                                                                                                                                                                                                                                                                                                                                                                                                                                                                                                                            
00005140542740016DT67590675900000013300800102800000010180010224001193082900013635424032320230000000019908223000000000438606485932XXXXXX9266               2111111   NYV4 A7W303082634881486N840000000000199X7L600    01DNCBD8666317293            266665    VB84000000000199 NP1549977133133   19C617D86ATB92266114765  000000000+                S CS 00692                     000000000  N000000000 237   0000000000000.00 0000000.00   0000000.00                             000000000000000                                                                                                                                                     01424 G000000000199 0000000000000.15     02700 01000                  
00005150542740001P16759067590000001330080010280000001010000000000000000                             2000000000000000000000000              000000000000                    0000000000000000000000000                    000000000000                                                                                                                                                                                                                                                                                                                                                                                                                                                                                        
00005160542740017DT67590675900000013300800102800000010180010287287283082900013635433032320230000000805508223000000000438606542418XXXXXX4395       ME03KE06MS02      NY 4607AMWEXWJLZS0323  N840000000008055          81DNCBD8666317293            80860P    MC84000000008055 N  549977133133   295A4B4661TE4D98B25534F  000000000+600450S00130    MWE  00737                     000000000  N                0000000000000.00 0000000.00   0000000.00                             000000000000000                                                                                                                                                   U001424  000000000000 0000000000002.19     02600 01000                  
00005170542740018DT67590675900000013300800102800000010180010224001193082900013635440032320230000002146008223000000000438606400022XXXXXX3734               2111111   NYV4 A7W463082656509897N840000000021460B5XS00    01DNCBD8666317293            744384    VD84000000021460 NP1549977133133   7CD091B8A8T7288B6D36826  000000000+                F DF 10420                     000000000  Y000000000 338   0000000000000.00 0000000.00   0000000.00                             000000000000000                                                                                                                                                     01424 G000000021460 0000000000000.33     00050 02200                  
00005180542740001P16759067590000001330080010280000001010000000000000000                             2000000000000000000000000              000000000000                    0000000000000000000000000                    000000000000                                                                                                                                                                                                                                                                                                                                                                                                                                                                                        
00005190542740019DT67590675900000013300800102800000010180010287287283082900013635482032320230000000019908223000000000438606515177XXXXXX5163                         NY 4607AMPLGFAJZT0323  N840000000000199          81DNCBD8666317293            318977    MC84000000000199 N  549977133133   1EC0A06971T368333230FCB  000000000+600450S00130    MPL  12148                     000000000  N                0000000000000.00 0000000.00   0000000.00                             000000000000000                                                                                                                                                   U001424  000000000000 0000000000000.06     01950 00200                  
00005200542740020DT67590675900000013300800102800000010180010224001193082900013635499032320230000000019908223000000000438606408544XXXXXX0605               2111111   NYV4 A7W303082687054759N8400000000001995SWF00    01DNCBD8666317293            356407    VB84000000000199 NP1549977133133   09A2D12301T53E88895C138  000000000+                K CK 00691                     000000000  N000000000 234   0000000000000.00 0000000.00   0000000.00                             000000000000000                                                                                                                                                     01424 G000000000199 0000000000000.15     02700 01000                  
00005210542740001P16759067590000001330080010280000001010000000000000000                             2000000000000000000000000              000000000000                    0000000000000000000000000                    000000000000                                                                                                                                                                                                                                                                                                                                                                                                                                                                                        
00005220542740021DT67590675900000013300800102800000010180010224001193082900013635507032320230000000019908223000000000438606489683XXXXXX7566               2111111   NYV4 A7W583082690729817N84000000000019956G300    01DNCBD8666317293            P7AJTM    VD84000000000199 NP1549977133133   FD8590203FTBF2464C03483  000000000+                S PS 10179                     000000000  N000000000 364   0000000000000.00 0000000.00   0000000.00                             000000000000000                                                                                                                                                     01424 G000000000199 0000000000000.15     02650 01000                  
00005230542740001P16759067590000001330080010280000001010000000000000000                             2000000000000000000000000              000000000000                    0000000000000000000000000                    000000000000                                                                                                                                                                                                                                                                                                                                                                                                                                                                                        
00005240542740022DT67590675900000013300800102800000010180010224001193082900013635515032320230000000019908223000000000438606408544XXXXXX1046               2111111   NYV4 A7W463082694847517N840000000000199D9HJ00    01DNCBD8666317293            488461    VB84000000000199 NP1549977133133   D3CBB9DABET9FF41CE2E7DD  000000000+                K CK 00691                     000000000  N000000000 234   0000000000000.00 0000000.00   0000000.00                             000000000000000                                                                                                                                                     01424 G000000000199 0000000000000.15     02700 01000                  
00005250542740001P16759067590000001330080010280000001010000000000000000                             2000000000000000000000000              000000000000                    0000000000000000000000000                    000000000000                                                                                                                                                                                                                                                                                                                                                                                                                                                                                        
00005260542740023DT67590675900000013300800102800000010180010224001193082900013635523032320230000000019908223000000000438606412076XXXXXX9761               2111111   NYV4 A7W383082699721300N840000000000199MQXS00    01DNCBD8666317293            658912    VS84000000000199 NP1549977133133   DA46D3EB4ET5AA13B70C85D  000000000+                A CA 12106                     000000000  N000000000 492   0000000000000.00 0000000.00   0000000.00                             000000000000000                                                                                                                                                     01424 G000000000199 0000000000000.14     01890 01000                  
00005270542740001P16759067590000001330080010280000001010000000000000000                             2000000000000000000000000              000000000000                    0000000000000000000000000                    000000000000                                                                                                                                                                                                                                                                                                                                                                                                                                                                                        
00005280542740024DT67590675900000013300800102800000010180010287287283082900013635532032320230000001655608223000000000438606542418XXXXXX8479       ME03KE06MS02      NY 4607AMWEVI246L0323  N840000000016556          81DNCBD8666317293            00085P    MC84000000016556 N  549977133133   5FF692220BT085D6C98EE74  000000000+600450S00130    MWE  00737                     000000000  N                0000000000000.00 0000000.00   0000000.00                             000000000000000                                                                                                                                                   U001424  000000000000 0000000000004.40     02600 01000                  
00005290542740025DT67590675900000013300800102800000010180010224001193082900013635549032320230000000019908223000000000438606428821XXXXXX6137               2111111   NYV4 A7W383082706897650N840000000000199TVLR00    01DNCBD8666317293            291436    VB84000000000199 NP1549977133133   BD21006D45T90CC8D097CB7  000000000+                S CS 00692                     000000000  N000000000 237   0000000000000.00 0000000.00   0000000.00                             000000000000000                                                                                                                                                     01424 G000000000199 0000000000000.15     02700 01000                  
00005300542740001P16759067590000001330080010280000001010000000000000000                             2000000000000000000000000              000000000000                    0000000000000000000000000                    000000000000                                                                                                                                                                                                                                                                                                                                                                                                                                                                                        
00005310542740026DT67590675900000013300800102800000010180010287287283082900013635557032320230000000759808223000000000438606517546XXXXXX2476       ME03KE06MS02      NY 4607AMDJEQ4RZ20323  N840000000007598          81DNCBD8666317293            023688    MD84000000007598 N  549977133133   5048072EB3T9D32C0F4DB7B  000000000+600450S00130    MDJ  10813                     000000000  1                0000000000000.00 0000000.00   0000000.00                             000000000000000                                                                                                                                                   U001424  000000000000 0000000000000.26     00050 02200                  
00005320542740027DT67590675900000013300800102800000010180010224001193082900013635572032320230000002106208223000000000438606413171XXXXXX9439               2111111   NYV4 A7W583082711176562N8400000000210628N7K00    01DNCBD8666317293            999130    VD84000000021062 NP1549977133133   BA43B49683TF28DFCA3D31B  000000000+                F DF 00415                     000000000  N000000000       0000000000000.00 0000000.00   0000000.00                             000000000000000                                                                                                                                                     01424 G000000021062 0000000000003.63     01650 01500                  
00005330542740001P16759067590000001330080010280000001010000000000000000                             2000000000000000000000000              000000000000                    0000000000000000000000000                    000000000000                                                                                                                                                                                                                                                                                                                                                                                                                                                                                        
00005340542740028DT67590675900000013300800102800000010180010224001193082900013635580032320230000001284908223000000000438606489142XXXXXX4717               2111111   NYV4 A7W463082720161661N840000000012849R89Z00    01DNCBD8666317293            126324    VD84000000012849 NP1549977133133   BFD796728BT8A69BA900E63  000000000+                F DF 10420                     000000000  Y000000000 338   0000000000000.00 0000000.00   0000000.00                             000000000000000                                                                                                                                                     01424 G000000012849 0000000000000.28     00050 02200                  
00005350542740001P16759067590000001330080010280000001010000000000000000                             2000000000000000000000000              000000000000                    0000000000000000000000000                    000000000000                                                                                                                                                                                                                                                                                                                                                                                                                                                                                        
00005360542740029DT67590675900000013300800102800000010180010224001193082900013635598032320230000000019908223000000000438606408544XXXXXX4863               2111111   NYV4 A7W303082720630970N840000000000199FLP200    01DNCBD8666317293            657296    VB84000000000199 NP1549977133133   95124DFBC5TD20C9D684E00  000000000+                K CK 00691                     000000000  N000000000 234   0000000000000.00 0000000.00   0000000.00                             000000000000000                                                                                                                                                     01424 G000000000199 0000000000000.15     02700 01000                  
00005370542740001P16759067590000001330080010280000001010000000000000000                             2000000000000000000000000              000000000000                    0000000000000000000000000                    000000000000                                                                                                                                                                                                                                                                                                                                                                                                                                                                                        
00005380542740030DT67590675900000013300800102800000010180010224001193082900013635606032320230000000019908223000000000438606412076XXXXXX8324               2111111   NYV4 A7W303082723659621N840000000000199SV8T00    01DNCBD8666317293            555686    VS84000000000199 NP1549977133133   8AC32C36B2T2A240D99D79A  000000000+                A CA 12106                     000000000  N000000000 492   0000000000000.00 0000000.00   0000000.00                             000000000000000                                                                                                                                                     01424 G000000000199 0000000000000.14     01890 01000                  
00005390542740001P16759067590000001330080010280000001010000000000000000                             2000000000000000000000000              000000000000                    0000000000000000000000000                    000000000000                                                                                                                                                                                                                                                                                                                                                                                                                                                                                        
00005400542740031DT67590675900000013300800102800000010680010274001193082900013635619032320230000000625008223000000000438606489142XXXXXX4717               0000000   NYV4 07T463082724207443N84000000000625092GC00    01CNCBD8666317293            023260    VD84000000006250 NP1549977133133   BFD796728BT8A69BA900E63  000000000+                F DF 08168                     000000000  Y000000000 369   0000000000000.00 0000000.00   0000000.00                             000000000000000                                                                                                                                                     01424  000000006250 0000000000000.00     00000 00000                  
00005410542740001P16759067590000001330080010280000001060000000000000000                             2000000000000000000000000              000000000000                    0000000000000000000000000                    000000000000                                                                                                                                                                                                                                                                                                                                                                                                                                                                                        
00005420542740032DT67590675900000013300800102800000010180010224001193082900013635622032320230000002106208223000000000438606448241XXXXXX0884               2111111   NYV4 A7W463082727333809N840000000021062TLKR00    01DNCBD8666317293            000312    VD84000000021062 NP1549977133133   8A2D4D254BT590DF93B1747  000000000+                F DF 00415                     000000000  N000000000       0000000000000.00 0000000.00   0000000.00                             000000000000000                                                                                                                                                     01424 G000000021062 0000000000003.63     01650 01500                  
00005430542740001P16759067590000001330080010280000001010000000000000000                             2000000000000000000000000              000000000000                    0000000000000000000000000                    000000000000                                                                                                                                                                                                                                                                                                                                                                                                                                                                                        
00005440542740033DT67590675900000013300800102800000010180010287287283082900013635631032320230000002997408223000000000438606515676XXXXXX3803       ME03KE06MS02      NY 4607AMWEFQLCZ20323  N840000000029974          81DNCBD8666317293            00160Z    MC84000000029974 N  549977133133   E9AEFBBECFTB43AD989E6D5  000000000+600450S00130    MWE  00737                     000000000  N                0000000000000.00 0000000.00   0000000.00                             000000000000000                                                                                                                                                   U001424  000000000000 0000000000007.89     02600 01000                  
00005450542740034DT67590675900000013300800102800000010180010287287283082900013635706032320230000000019908223000000000438606553370XXXXXX3199                         NY 4607AMCFV18F6E0323  N840000000000199          81DNCBD8666317293            FUYEJN    MB84000000000199 NP1549977133133   5C68702140TDAA7984CBD1F  000000000+600450S00130    MCF  00060                     000000000  N                0000000000000.00 0000000.00   0000000.00                             000000000000000                                                                                                                                                   U001424  000000000000 0000000000000.16     02950 01000                  
00005460542740001P1675906759000000133008001028000000101                                                          000000000000          8000            871584967                                                                                                                                                                                                                                                                                                                                                                                                                                                                                                                                                            
00005470542740035DT67590675900000013300800102800000010180010224001193082900013635754032320230000002710808223000000000438606434256XXXXXX5764               2111111   NYV4 A7W583082752543345N840000000027108JBXV00    01DNCBD8666317293            056178    VD84000000027108 NP1549977133133   5C696B5B98T1C139D87B8BF  000000000+                F DF 10420                     000000000  Y000000000 338   0000000000000.00 0000000.00   0000000.00                             000000000000000                                                                                                                                                     01424 G000000027108 0000000000000.36     00050 02200                  
00005480542740001P16759067590000001330080010280000001010000000000000000                             2000000000000000000000000              000000000000                    0000000000000000000000000                    000000000000                                                                                                                                                                                                                                                                                                                                                                                                                                                                                        
00005490542740036DT67590675900000013300800102800000010180010224001193082900013635762032320230000002755008223000000000438606473703XXXXXX7156               2111111   NYV4 A7W303082753044297N840000000027550CFH500    01DNCBD8666317293            081931    VD84000000027550 NP1549977133133   EECD2C8F1BT4B5F1FE63F7A  000000000+                F DF 10420                     000000000  Y000000000 338   0000000000000.00 0000000.00   0000000.00                             000000000000000                                                                                                                                                     01424 G000000027550 0000000000000.36     00050 02200                  
00005500542740001P16759067590000001330080010280000001010000000000000000                             2000000000000000000000000              000000000000                    0000000000000000000000000                    000000000000                                                                                                                                                                                                                                                                                                                                                                                                                                                                                        
00005510542740037DT67590675900000013300800102800000010180010224001193082900013635770032320230000002636208223000000000438606468712XXXXXX0639               2111111   NYV4 A7W583082753057927N840000000026362DZFH00    01DNCBD8666317293            650535    VS84000000026362 NP1549977133133   13E004A3A3T9388D0762956  000000000+                B CB 12107                     000000000  N000000000 494   0000000000000.00 0000000.00   0000000.00                             000000000000000                                                                                                                                                     01424 G000000026362 0000000000005.48     02040 01000                  
00005520542740001P16759067590000001330080010280000001010000000000000000                             2000000000000000000000000              000000000000                    0000000000000000000000000                    000000000000                                                                                                                                                                                                                                                                                                                                                                                                                                                                                        
00005530542740038DT67590675900000013300800102800000010180010224001193082900013635796032320230000000544908223000000000438606434256XXXXXX5764               2111111   NYV4 A7W383082754426327N840000000005449FLMD00    01DNCBD8666317293            096322    VD84000000005449 NP1549977133133   5C696B5B98T020566A4B4A2  000000000+                F DF 10420                     000000000  Y000000000 338   0000000000000.00 0000000.00   0000000.00                             000000000000000                                                                                                                                                     01424 G000000005449 0000000000000.25     00050 02200                  
00005540542740001P16759067590000001330080010280000001010000000000000000                             2000000000000000000000000              000000000000                    0000000000000000000000000                    000000000000                                                                                                                                                                                                                                                                                                                                                                                                                                                                                        
00005550542740039DT67590675900000013300800102800000010180010287287283082900013635839032320230000000019908223000000000438606556150XXXXXX9322                         NY 4607AMCFXI5M300323  N840000000000199          81DNCBD8666317293            3UM884    MB84000000000199 NP1549977133133   9E5F20F12CTAE70B40F09E9  000000000+600450S00130    MCF  00060                     000000000  N                0000000000000.00 0000000.00   0000000.00                             000000000000000                                                                                                                                                     01424  000000000000 0000000000000.16     02950 01000                  
00005560542740001P1675906759000000133008001028000000101                                                          000000000000          8000            871584967                                                                                                                                                                                                                                                                                                                                                                                                                                                                                                                                                            
00005570542740040DT67590675900000013300800102800000010180010224001193082900013635846032320230000000019908223000000000438606428813XXXXXX2989               2111111   NYV4 A7W383082759691765N840000000000199KLF300    01DNCBD8666317293            098577    VB84000000000199 NP1549977133133   CD22E034FAT0724742B576F  000000000+                S CS 00692                     000000000  N000000000 237   0000000000000.00 0000000.00   0000000.00                             000000000000000                                                                                                                                                     01424 G000000000199 0000000000000.15     02700 01000                  
00005580542740001P16759067590000001330080010280000001010000000000000000                             2000000000000000000000000              000000000000                    0000000000000000000000000                    000000000000                                                                                                                                                                                                                                                                                                                                                                                                                                                                                        
00005590542740041DT67590675900000013300800102800000010180010287287283082900013635854032320230000002487008223000000000438606542418XXXXXX5878       ME03KE06PT01      NY 4607AMCWXMAG300323  N840000000024870          81DNCBD8666317293            29065P    MC84000000024870 N  549977133133   A527C639C3T4C9E718A51C6  000000000+600450S00130    MCW  00642                     000000000  N                0000000000000.00 0000000.00   0000000.00                             000000000000000                                                                                                                                                   U001424  000000000000 0000000000005.57     02200 01000                  
00005600542740042DT67590675900000013300800102800000010180010287287283082900013635862032320230000000129508223000000000438606542418XXXXXX5878       ME03KE06PT01      NY 4607AMCWANE64Y0323  N840000000001295          81DNCBD8666317293            20694P    MC84000000001295 N  549977133133   A527C639C3T05A89F3F96E5  000000000+600450S00130    MCW  00642                     000000000  N                0000000000000.00 0000000.00   0000000.00                             000000000000000                                                                                                                                                   U001424  000000000000 0000000000000.38     02200 01000                  
00005610542740043DT67590675900000013300800102800000010180010287287283082900013635870032320230000000149508223000000000438606542418XXXXXX5878       ME03KE06PT01      NY 4607AMCWQN6R300323  N840000000001495          81DNCBD8666317293            36735P    MC84000000001495 N  549977133133   A527C639C3T430D3F97F9DF  000000000+600450S00130    MCW  00642                     000000000  N                0000000000000.00 0000000.00   0000000.00                             000000000000000                                                                                                                                                   U001424  000000000000 0000000000000.43     02200 01000                  
00005620542740044DT67590675900000013300800102800000010180010287287283082900013635904032320230000000019908223000000000438606553370XXXXXX4418                         NY 4607AMCFG1KLZ20323  N840000000000199          81DNCBD8666317293            E8DTO2    MB84000000000199 NP1549977133133   CBC75E4007TA2FE53195ABF  000000000+600450S00130    MCF  00060                     000000000  N                0000000000000.00 0000000.00   0000000.00                             000000000000000                                                                                                                                                   U001424  000000000000 0000000000000.16     02950 01000                  
00005630542740001P1675906759000000133008001028000000101                                                          000000000000          8000            871584967                                                                                                                                                                                                                                                                                                                                                                                                                                                                                                                                                            
00005640542740045DT67590675900000013300800102800000010180010224001193082900013635911032320230000002412908223000000000438606481588XXXXXX1070               2111111   NYV4 A7W463082762265430N840000000024129MRXM00    01DNCBD8666317293            121204    VD84000000024129 NP1549977133133   1973280646T37DCC79D720B  000000000+                G DG 10352                     000000000  Y000000000 338   0000000000000.00 0000000.00   0000000.00                             000000000000000                                                                                                                                                     01424 G000000024129 0000000000000.34     00050 02200                  
00005650542740001P16759067590000001330080010280000001010000000000000000                             1000000001579000000000000              000000000000                    0000000000000000000000000                    000000000000                                                                                                                                                                                                                                                                                                                                                                                                                                                                                        
00005660542740046DT67590675900000013300800102800000010680010274001193082900013635924032320230000001976308223000000000438606468712XXXXXX0639               0000000   NYV4 07T463082763073058N840000000019763L5CS00    01CNCBD8666317293            614715    VS84000000019763 NP1549977133133   13E004A3A3T9388D0762956  000000000+                B CB 00245                     000000000  N000000000 166   0000000000000.00 0000000.00   0000000.00                             000000000000000                                                                                                                                                     01424  000000019763-0000000000003.48     01760 00000                  
00005670542740001P16759067590000001330080010280000001060000000000000000                             2000000000000000000000000              000000000000                    0000000000000000000000000                    000000000000                                                                                                                                                                                                                                                                                                                                                                                                                                                                                        
00005680542740047DT67590675900000013300800102800000010180010224001193082900013635952032320230000000711508223000000000438606474488XXXXXX3887               2111111   NYV4 A7W303082766222920N8400000000071154X3J00    01DNCBD8666317293            131179    VD84000000007115 NP1549977133133   26617A3FE2T3DFD00813956  000000000+                F DF 10420                     000000000  Y000000000 338   0000000000000.00 0000000.00   0000000.00                             000000000000000                                                                                                                                                     01424 G000000007115 0000000000000.26     00050 02200                  
00005690542740001P16759067590000001330080010280000001010000000000000000                             2000000000000000000000000              000000000000                    0000000000000000000000000                    000000000000                                                                                                                                                                                                                                                                                                                                                                                                                                                                                        
00005700542740048DT67590675900000013300800102800000010180010224001193082900013635960032320230000000019908223000000000438606412076XXXXXX1946               2111111   NYV4 A7W303082769932829N8400000000001998HJB00    01DNCBD8666317293            438655    VS84000000000199 NP1549977133133   3EC64ED61ET1F7AC6A3623F  000000000+                A CA 12106                     000000000  N000000000 492   0000000000000.00 0000000.00   0000000.00                             000000000000000                                                                                                                                                     01424 G000000000199 0000000000000.14     01890 01000                  
00005710542740001P16759067590000001330080010280000001010000000000000000                             2000000000000000000000000              000000000000                    0000000000000000000000000                    000000000000                                                                                                                                                                                                                                                                                                                                                                                                                                                                                        
00005720542740049DT67590675900000013300800102800000010180010224001193082900013635978032320230000000019908223000000000438606441112XXXXXX0122               2111111   NYV4 A7W303082771067619N840000000000199BXWX00    01DNCBD8666317293            T0NX5A    VD84000000000199 NP1549977133133   143F110AC6TB2FC2CA546D2  000000000+                S PS 10179                     000000000  N000000000 364   0000000000000.00 0000000.00   0000000.00                             000000000000000                                                                                                                                                     01424 G000000000199 0000000000000.15     02650 01000                  
00005730542740001P16759067590000001330080010280000001010000000000000000                             2000000000000000000000000              000000000000                    0000000000000000000000000                    000000000000                                                                                                                                                                                                                                                                                                                                                                                                                                                                                        
00005740542740050DT67590675900000013300800102800000010180010287287283082900013635995032320230000000536108223000000000438606536775XXXXXX8481       ME03KE06MS02      NY 4607AMDJRFUJ300323  N840000000005361          81DNCBD8666317293            163738    MD84000000005361 N  549977133133   D265FBD109T633CB1C450F5  000000000+600450S00130    MDJ  00401                     000000000  N                0000000000000.00 0000000.00   0000000.00                             000000000000000                                                                                                                                                   U001424  000000000000 0000000000001.03     01650 01500                  
00005750542740051DT67590675900000013300800102800000010180010287287283082900013636001032320230000000160308223000000000438606536775XXXXXX8481       ME03KE06MS02      NY 4607AMDJYF4E300323  N840000000001603          81DNCBD8666317293            163829    MD84000000001603 N  549977133133   D265FBD109T06F0A1E6690F  000000000+600450S00130    MDJ  00401                     000000000  N                0000000000000.00 0000000.00   0000000.00                             000000000000000                                                                                                                                                   U001424  000000000000 0000000000000.41     01650 01500                  
00005760542740052DT67590675900000013300800102800000010180010224001193082900013636034032320230000002681008223000000000438606414720XXXXXX0074               2111111   NYV4 A7W383082782398858N840000000026810LS4600    01DNCBD8666317293            00798C    VS84000000026810 NP1549977133133   84252E5C23TC1C75ADF386A  000000000+                C CC 12108                     000000000  N000000000 496   0000000000000.00 0000000.00   0000000.00                             000000000000000                                                                                                                                                     01424 G000000026810 0000000000005.60     02050 01000                  
00005770542740001P16759067590000001330080010280000001010000000000000000                             2000000000000000000000000              000000000000                    0000000000000000000000000                    000000000000                                                                                                                                                                                                                                                                                                                                                                                                                                                                                        
00005780542740053DT67590675900000013300800102800000010180010224001193082900013636042032320230000000019908223000000000438606433451XXXXXX5210               2111111   NYV4 A7W383082784839138N840000000000199JMM600    01DNCBD8666317293            K1RPCS    VD84000000000199 NP1549977133133   D1CC191482T3B87DCF62F97  000000000+                S PS 10179                     000000000  N000000000 364   0000000000000.00 0000000.00   0000000.00                             000000000000000                                                                                                                                                     01424 G000000000199 0000000000000.15     02650 01000                  
00005790542740001P16759067590000001330080010280000001010000000000000000                             2000000000000000000000000              000000000000                    0000000000000000000000000                    000000000000                                                                                                                                                                                                                                                                                                                                                                                                                                                                                        
00005800542740054DT67590675900000013300800102800000010180010287287283082900013636050032320230000000019908223000000000438606515177XXXXXX3466                         NY 4607AMPLU00I5O0323  N840000000000199          81DNCBD8666317293            692936    MC84000000000199 N  549977133133   EF3846ABB4TA9CD7D9512C4  000000000+600450S00130    MPL  12148                     000000000  N                0000000000000.00 0000000.00   0000000.00                             000000000000000                                                                                                                                                   U001424  000000000000 0000000000000.06     01950 00200                  
00005810542740055DT67590675900000013300800102800000010180010224001193082900013636067032320230000000019908223000000000438606408544XXXXXX6748               2111111   NYV4 A7W303082786705755N8400000000001997BSJ00    01DNCBD8666317293            282238    VB84000000000199 NP1549977133133   39717C8BFDTAEB6ED54D73E  000000000+                K CK 00691                     000000000  N000000000 234   0000000000000.00 0000000.00   0000000.00                             000000000000000                                                                                                                                                     01424 G000000000199 0000000000000.15     02700 01000                  
00005820542740001P16759067590000001330080010280000001010000000000000000                             2000000000000000000000000              000000000000                    0000000000000000000000000                    000000000000                                                                                                                                                                                                                                                                                                                                                                                                                                                                                        
00005830542740056DT67590675900000013300800102800000010180010224001193082900013636075032320230000000019908223000000000438606433451XXXXXX5380               2111111   NYV4 A7W383082791445397N840000000000199Z5XB00    01DNCBD8666317293            LU6LN5    VD84000000000199 NP1549977133133   A24AB25794T23383B2E23B7  000000000+                S PS 10179                     000000000  N000000000 364   0000000000000.00 0000000.00   0000000.00                             000000000000000                                                                                                                                                     01424 G000000000199 0000000000000.15     02650 01000                  
00005840542740001P16759067590000001330080010280000001010000000000000000                             2000000000000000000000000              000000000000                    0000000000000000000000000                    000000000000                                                                                                                                                                                                                                                                                                                                                                                                                                                                                        
00005850542740057DT67590675900000013300800102800000010180010224001193082900013636109032320230000000019908223000000000438606485932XXXXXX9675               2111111   NYV4 A7W583082795047406N840000000000199CTLQ00    01DNCBD8666317293            890585    VB84000000000199 NP1549977133133   BA3C81CC49T7078B85588D3  000000000+                S CS 00692                     000000000  N000000000 237   0000000000000.00 0000000.00   0000000.00                             000000000000000                                                                                                                                                     01424 G000000000199 0000000000000.15     02700 01000                  
00005860542740001P16759067590000001330080010280000001010000000000000000                             2000000000000000000000000              000000000000                    0000000000000000000000000                    000000000000                                                                                                                                                                                                                                                                                                                                                                                                                                                                                        
00005870542740058DT67590675900000013300800102800000010180010224001193082900013636125032320230000000019908223000000000438606428813XXXXXX6802               2111111   NYV4 A7W383082796249714N840000000000199HV5L00    01DNCBD8666317293            435680    VB84000000000199 NP1549977133133   7F8382BDC2T8720C69B640F  000000000+                S CS 00692                     000000000  N000000000 237   0000000000000.00 0000000.00   0000000.00                             000000000000000                                                                                                                                                     01424 G000000000199 0000000000000.15     02700 01000                  
00005880542740001P16759067590000001330080010280000001010000000000000000                             2000000000000000000000000              000000000000                    0000000000000000000000000                    000000000000                                                                                                                                                                                                                                                                                                                                                                                                                                                                                        
00005890542740059DT67590675900000013300800102800000010180010224001193082900013636133032320230000000019908223000000000438606440393XXXXXX3493               2111111   NYV4 A7W383082796848308N840000000000199BVFV00    01DNCBD8666317293            780307    VD84000000000199 NP1549977133133   9F096905EATA8A9E6B8B7AB  000000000+                F PF 08175                     000000000  N000000000       0000000000000.00 0000000.00   0000000.00                             000000000000000                                                                                                                                                     01424 G000000000199 0000000000000.23     01750 02000                  
00005900542740001P16759067590000001330080010280000001010000000000000000                             2000000000000000000000000              000000000000                    0000000000000000000000000                    000000000000                                                                                                                                                                                                                                                                                                                                                                                                                                                                                        
00005910542740060DT67590675900000013300800102800000010180010224001193082900013636158032320230000001916008223000000000438606440393XXXXXX9035               2111111   NYV4 A7W463082800010952N840000000019160CGK800    01DNCBD8666317293            576136    VD84000000019160 NP1549977133133   1F8CD88229TDD8617965359  000000000+                F PF 08175                     000000000  N000000000       0000000000000.00 0000000.00   0000000.00                             000000000000000                                                                                                                                                     01424 G000000019160 0000000000003.55     01750 02000                  
00005920542740001P16759067590000001330080010280000001010000000000000000                             2000000000000000000000000              000000000000                    0000000000000000000000000                    000000000000                                                                                                                                                                                                                                                                                                                                                                                                                                                                                        
00005930542740061DT67590675900000013300800102800000010180010287287283082900013636175032320230000000019908223000000000438606514376XXXXXX5371                         NY 4607AMPWL5P9330323  N840000000000199          81DNCBD8666317293            882756    MD84000000000199 NP1549977133133   360733FDFCTA472DC00E377  000000000+600450S00130    MPW  00062                     000000000  N                0000000000000.00 0000000.00   0000000.00                             000000000000000                                                                                                                                                   U001424  000000000000 0000000000000.15     02650 01000                  
00005940542740001P1675906759000000133008001028000000101                                                          000000000000          8000            871584967                                                                                                                                                                                                                                                                                                                                                                                                                                                                                                                                                            
00005950542740062DT67590675900000013300800102800000010180010224001193082900013636208032320230000002700908223000000000438606475055XXXXXX6681               2111111   NYV4 A7W303082813045620N840000000027009HCTQ00    01DNCBD8666317293            053518    VD84000000027009 NP1549977133133   3F4F10560CT9D5E4AA77B55  000000000+                F DF 10420                     000000000  Y000000000 338   0000000000000.00 0000000.00   0000000.00                             000000000000000                                                                                                                                                     01424 G000000027009 0000000000000.36     00050 02200                  
00005960542740001P16759067590000001330080010280000001010000000000000000                             2000000000000000000000000              000000000000                    0000000000000000000000000                    000000000000                                                                                                                                                                                                                                                                                                                                                                                                                                                                                        
00005970542740063DT67590675900000013300800102800000010180010224001193082900013636224032320230000000019908223000000000438606485932XXXXXX7319               2111111   NYV4 A7W463082815458494N84000000000019972X600    01DNCBD8666317293            176162    VB84000000000199 NP1549977133133   188B8E22E7T799BBE1D9FD4  000000000+                S CS 00692                     000000000  N000000000 237   0000000000000.00 0000000.00   0000000.00                             000000000000000                                                                                                                                                     01424 G000000000199 0000000000000.15     02700 01000                  
00005980542740001P16759067590000001330080010280000001010000000000000000                             2000000000000000000000000              000000000000                    0000000000000000000000000                    000000000000                                                                                                                                                                                                                                                                                                                                                                                                                                                                                        
00005990542740064DT67590675900000013300800102800000010180010224001193082900013636240032320230000000019908223000000000438606428821XXXXXX2040               2111111   NYV4 A7W463082819036492N840000000000199PM9T00    01DNCBD8666317293            242409    VB84000000000199 NP1549977133133   CAD762AE5DT452010284BCB  000000000+                S CS 00692                     000000000  N000000000 237   0000000000000.00 0000000.00   0000000.00                             000000000000000                                                                                                                                                     01424 G000000000199 0000000000000.15     02700 01000                  
00006000542740001P16759067590000001330080010280000001010000000000000000                             2000000000000000000000000              000000000000                    0000000000000000000000000                    000000000000                                                                                                                                                                                                                                                                                                                                                                                                                                                                                        
00006010542740065DT67590675900000013300800102800000010180010224001193082900013636265032320230000000701908223000000000438606414721XXXXXX1564               2111111   NYV4 A7W463082819077086N84000000000701929K300    01DNCBD8666317293            023232    VS84000000007019 NP1549977133133   821C8D04C7TA07119B412F9  000000000+                D CD 12109                     000000000  N000000000 498   0000000000000.00 0000000.00   0000000.00                             000000000000000                                                                                                                                                     01424 G000000007019 0000000000001.85     02500 01000                  
00006020542740001P16759067590000001330080010280000001010000000000000000                             2000000000000000000000000              000000000000                    0000000000000000000000000                    000000000000                                                                                                                                                                                                                                                                                                                                                                                                                                                                                        
00006030542740066DT67590675900000013300800102800000010180010224001193082900013636273032320230000000019908223000000000438606428821XXXXXX4460               2111111   NYV4 A7W463082822046310N840000000000199MCSC00    01DNCBD8666317293            557060    VB84000000000199 NP1549977133133   0330C7741DT0A0E4644E788  000000000+                S CS 00692                     000000000  N000000000 237   0000000000000.00 0000000.00   0000000.00                             000000000000000                                                                                                                                                     01424 G000000000199 0000000000000.15     02700 01000                  
00006040542740001P16759067590000001330080010280000001010000000000000000                             2000000000000000000000000              000000000000                    0000000000000000000000000                    000000000000                                                                                                                                                                                                                                                                                                                                                                                                                                                                                        
00006050542740067DT67590675900000013300800102800000010180010287287283082900013636282032320230000000019908223000000000438606553370XXXXXX6714                         NY 4607AMCFTB0S300323  N840000000000199          81DNCBD8666317293            AXH823    MB84000000000199 NP1549977133133   8EE1EC6A0FT96D2475B3B75  000000000+600450S00130    MCF  00060                     000000000  N                0000000000000.00 0000000.00   0000000.00                             000000000000000                                                                                                                                                   U001424  000000000000 0000000000000.16     02950 01000                  
00006060542740001P1675906759000000133008001028000000101                                                          000000000000          8000            871584967                                                                                                                                                                                                                                                                                                                                                                                                                                                                                                                                                            
00006070542740068DT67590675900000013300800102800000010180010224001193082900013636323032320230000000019908223000000000438606440393XXXXXX1675               2111111   NYV4 A7W303082827498736N8400000000001994W3400    01DNCBD8666317293            060100    VD84000000000199 NP1549977133133   083A4B68D3T37E58E2508C2  000000000+                F PF 08175                     000000000  N000000000       0000000000000.00 0000000.00   0000000.00                             000000000000000                                                                                                                                                     01424 G000000000199 0000000000000.23     01750 02000                  
00006080542740001P16759067590000001330080010280000001010000000000000000                             2000000000000000000000000              000000000000                    0000000000000000000000000                    000000000000                                                                                                                                                                                                                                                                                                                                                                                                                                                                                        
00006090542740069DT67590675900000013300800102800000010180010287287283082900013636357032320230000000019908223000000000438606524897XXXXXX0528                         NY 4607AMCPW07A5O0323  N840000000000199          81DNCBD8666317293            W83O8Q    MB84000000000199 NP1549977133133   370592FAE4TB321D55F96A9  000000000+600450S00130    MCP  00303                     000000000  N                0000000000000.00 0000000.00   0000000.00                             000000000000000                                                                                                                                                   U001424  000000000000 0000000000000.15     02700 01000                  
00006100542740001P1675906759000000133008001028000000101                                                          000000000000          8000            871584967                                                                                                                                                                                                                                                                                                                                                                                                                                                                                                                                                            
00006110542740070DT67590675900000013300800102800000010180010287287283082900013636399032320230000001987008223000000000438606515676XXXXXX0035       ME03KE06MS02      NY 4607AMWEDYIV4Y0323  N840000000019870          81DNCBD8666317293            05158Z    MC84000000019870 N  549977133133   B923F551A7TE3DBE4764D77  000000000+600450S00130    MWE  00737                     000000000  N                0000000000000.00 0000000.00   0000000.00                             000000000000000                                                                                                                                                   U001424  000000000000 0000000000005.27     02600 01000                  
00006120542740071DT67590675900000013300800102800000010180010287287283082900013636415032320230000000019908223000000000438606514376XXXXXX4855                         NY 4607AMPWDYJ74Y0323  N840000000000199          81DNCBD8666317293            516135    MD84000000000199 NP1549977133133   47B047ED87T34B0DFB11A7D  000000000+600450S00130    MPW  00062                     000000000  N                0000000000000.00 0000000.00   0000000.00                             000000000000000                                                                                                                                                   U001424  000000000000 0000000000000.15     02650 01000                  
00006130542740001P1675906759000000133008001028000000101                                                          000000000000          8000            871584967                                                                                                                                                                                                                                                                                                                                                                                                                                                                                                                                                            
00006140542740072DT67590675900000013300800102800000010180010224001193082900013636422032320230000001499108223000000000438606404388XXXXXX1166               2111111   NYV4 A7W383082840586820N840000000014991ZRXN00    01DNCBD8666317293            712259    VD84000000014991 NP1549977133133   03D96D2009TC6A8F9E67D83  000000000+                F DF 00415                     000000000  N000000000       0000000000000.00 0000000.00   0000000.00                             000000000000000                                                                                                                                                     01424 G000000014991 0000000000002.62     01650 01500                  
00006150542740001P16759067590000001330080010280000001010000000000000000                             2000000000000000000000000              000000000000                    0000000000000000000000000                    000000000000                                                                                                                                                                                                                                                                                                                                                                                                                                                                                        
00006160542740073DT67590675900000013300800102800000010180010287287283082900013636449032320230000000019908223000000000438606519075XXXXXX6055                         NY 4607AMCPECGL4Y0323  N840000000000199          81DNCBD8666317293            E2XRYA    MB84000000000199 NP1549977133133   8B401C5AFCT459B0E6E4D2B  000000000+600450S00130    MCP  00303                     000000000  N                0000000000000.00 0000000.00   0000000.00                             000000000000000                                                                                                                                                     01424  000000000000 0000000000000.15     02700 01000                  
00006170542740001P1675906759000000133008001028000000101                                                          000000000000          8000            871584967                                                                                                                                                                                                                                                                                                                                                                                                                                                                                                                                                            
00006180542740074DT67590675900000013300800102800000010180010287287283082900013636464032320230000001799108223000000000438606515676XXXXXX9076       ME03KE06MS02      NY 4607AMWE1J2K300323  N840000000017991          81DNCBD8666317293            00145Z    MC84000000017991 N  549977133133   3B1FFDE426T36633E0E51AF  000000000+600450S00130    MWE  00737                     000000000  N                0000000000000.00 0000000.00   0000000.00                             000000000000000                                                                                                                                                   U001424  000000000000 0000000000004.78     02600 01000                  
00006190542740075DT67590675900000013300800102800000010180010224001193082900013636489032320230000000019908223000000000438606412076XXXXXX3499               2111111   NYV4 A7W303082861642471N840000000000199WC6600    01DNCBD8666317293            009865    VS84000000000199 NP1549977133133   497DEB1E81T58C12DE56FF9  000000000+                A CA 12106                     000000000  N000000000 492   0000000000000.00 0000000.00   0000000.00                             000000000000000                                                                                                                                                     01424 G000000000199 0000000000000.14     01890 01000                  
00006200542740001P16759067590000001330080010280000001010000000000000000                             2000000000000000000000000              000000000000                    0000000000000000000000000                    000000000000                                                                                                                                                                                                                                                                                                                                                                                                                                                                                        
00006210542740076DT67590675900000013300800102800000010180010224001193082900013636497032320230000000642808223000000000438606448233XXXXXX7469               2111111   NYV4 A7W583082862492089N840000000006428DKGD00    01DNCBD8666317293            085730    VD84000000006428 NP1549977133133   6670CC2A37TD21703C135BF  000000000+                F DF 10420                     000000000  Y000000000 338   0000000000000.00 0000000.00   0000000.00                             000000000000000                                                                                                                                                     01424 G000000006428 0000000000000.25     00050 02200                  
00006220542740001P16759067590000001330080010280000001010000000000000000                             2000000000000000000000000              000000000000                    0000000000000000000000000                    000000000000                                                                                                                                                                                                                                                                                                                                                                                                                                                                                        
00006230542740077BH6759067590000001516480088880000090170323202308223000000003909368    0000090001235326Y8008886759C03242023                                                                                                                                                                                                                                                                                                                                                                                                                                                                                                                                                                                                 
00006240542740078DT67590675900000015164800888800000010180088887287283082900012324385032220230000002487008223000000003909368547415XXXXXX9396                         NY 4607AMEBIMNU7J0319  N840000000024870          81DNKETOFUSION833-923-3587   07241G    MB84000000024870 NP1599977360677   9099AE4D5BTC6AD29A85E20  000000000+600450S00130    MEB  10988                     000000000  N                0000000000000.00 0000000.00   0000000.00                             000000000000000                                                                                                                                                   U001424  000000000000 0000000000007.19     02850 01000                  
00006250542740001P1675906759000000151648008888000000101                                                          000000000000          8000            884295529                                                                                                                                                                                                                                                                                                                                                                                                                                                                                                                                                            
00006260542740079DT67590675900000015164800888800000010180088887287283082900012325150032220230000002487008223000000003909368524038XXXXXX3749       ME03KE06PT01      NY 4607AMCW1I4U760319  N840000000024870          81DNKETOFUSION833-923-3587   05184T    MC84000000024870 N  599977360677   95A2F815CAT2F829C0E6EAA  000000000+600450S00130    MCW  02182                     000000000  N                0000000000000.00 0000000.00   0000000.00                             000000000000000                                                                                                                                                   U001424  000000000000 0000000000006.57     02600 01000                  
00006270542740080DT67590675900000015164800888800000010180088824001193082900012325381032220230000001291608223000000003909368485671XXXXXX0067               2111111   NYV4 A7W463078840046576N840000000012916943J00    01DNKETOFUSION833-923-3587   00464B    VS84000000012916 NP1599977360677   51464209AET632C96006234  000000000+                B CB 12107                     000000000  N000000000 494   0000000000000.00 0000000.00   0000000.00                             000000000000000                                                                                                                                                     01424 G000000012916 0000000000002.73     02040 01000                  
00006280542740001P16759067590000001516480088880000001010000000000000000                             2000000000000000000000000              000000000000                    0000000000000000000000000                    000000000000                                                                                                                                                                                                                                                                                                                                                                                                                                                                                        
00006290542740081DT67590675900000015164800888800000010180088824001193082900012325407032220230000001799108223000000003909368414720XXXXXX2661               2111111   NYV4 A7W583078846048964N840000000017991Q82W00    01DNKETOFUSION833-923-3587   00152D    VS84000000017991 NP1599977360677   C3C44B21D8TD7E64BF5C87C  000000000+                D CD 12109                     000000000  N000000000 498   0000000000000.00 0000000.00   0000000.00                             000000000000000                                                                                                                                                     01424 G000000017991 0000000000004.60     02500 01000                  
00006300542740001P16759067590000001516480088880000001010000000000000000                             2000000000000000000000000              000000000000                    0000000000000000000000000                    000000000000                                                                                                                                                                                                                                                                                                                                                                                                                                                                                        
00006310542740082DT67590675900000015164800888800000010180088887287283082900012343203032220230000001987008223000000003909368542418XXXXXX7797       ME03KE06MS02      NY 4607AMPLSNMIED0322  N840000000019870          81DNKETOFUSION833-923-3587   04642B    MC84000000019870 N  599977360677   C0D4CE64C3T7E91A6342223  000000000+600450S00130    MPL  00580                     000000000  N                0000000000000.00 0000000.00   0000000.00                             000000000000000                                                                                                                                                   U001424  000000000000 0000000000004.27     02100 01000                  
00006320542740083DT67590675900000015164800888800000010180088887287283082900012343211032220230000001987008223000000003909368542432XXXXXX3315       ME03KE06MS02      NY 4607AMDJMNJCO40322  N840000000019870          81DNKETOFUSION833-923-3587   517090    MD84000000019870 N  599977360677   CFD9A0FC3CT1B717B2C2D3A  000000000+600450S00130    MDJ  10813                     000000000  1                0000000000000.00 0000000.00   0000000.00                             000000000000000                                                                                                                                                   U001424  000000000000 0000000000000.32     00050 02200                  
