09236870379454475AD675906759000000268498001258000009077900012041290000001480306152023NYY16623YC6759800125061820232023157046433                                                                                                                                                                                                                                                                                                                                                                                                                                                                                                                                                                                              
09236880379454478AD675906759000000151648008888000009071900011715410000001799106152023NYY16623ND6759800888061820232023166022819                                                                                                                                                                                                                                                                                                                                                                                                                                                                                                                                                                                              
09236890379454481AD675906759000000198288001098000009077900011725350000001642706152023NYY16623YC6759800109061820232023166022823                                                                                                                                                                                                                                                                                                                                                                                                                                                                                                                                                                                              
09236900379454484AD675906759000000151648008888000009077900014164040000001616606152023NYY16623YC6759800888061820232023166022824                                                                                                                                                                                                                                                                                                                                                                                                                                                                                                                                                                                              
09236910379454487AD675906759000000268498001258000009071900014240090000002245006152023NYY16623ND6759800125061820232023166022820                                                                                                                                                                                                                                                                                                                                                                                                                                                                                                                                                                                              
09236920379454490AD675906759000000198288001098000009077900013584460000001194806152023NYY16623YC6759800109061820232023166022825                                                                                                                                                                                                                                                                                                                                                                                                                                                                                                                                                                                              
09236930379454493AD675906759000000133008001028000009071900011459620000002487006152023NYY16623ND6759800102061820232023166022821                                                                                                                                                                                                                                                                                                                                                                                                                                                                                                                                                                                              
09236940379454496AD675906759000000161968001028000009071900015527620000001607806152023NYY16623ND6759800102061820232023166022822                                                                                                                                                                                                                                                                                                                                                                                                                                                                                                                                                                                              
09236950379454499AD675906759000000151648008888000009077900017169230000001194806152023NYY16623YC6759800888061820232023166022827                                                                                                                                                                                                                                                                                                                                                                                                                                                                                                                                                                                              
09236960379454502AD675906759000000232598001168000009071900012912970000002178906152023NYY16623ND6759800116061820232023166022826                                                                                                                                                                                                                                                                                                                                                                                                                                                                                                                                                                                              
09236970379841454AD675906759000000151648008888000009077231660270170000001578506152023NYY16623YC6759800888061820232023166027017                                                                                                                                                                                                                                                                                                                                                                                                                                                                                                                                                                                              
09236980381186720BH6759067590000002325980011680000090170616202316723000000000021789    0000090001692322N8001166759D06182023069                                                                                                                                                                                                                                                                                                                                                                                                                                                                                                                                                                                              
09236990381186721DT67590675900000023259800116800000010680011687287283167900016923222061520230000002178916723000000000021789527267XXXXXX8533                         YY94607N         0615  N840000000000000          81CNGFORCEHEMP844-258-9322             MD84000000021789 N  549977768166   70DF7B1D5CTE42B866357E0  000000000+600450S00130    MDJ  00560                     000000000  N                0000000000000.00 0000000.00   0000000.00                             000000000000000                                                                                                                                                     015WPE 000000000000 0000000000000.00     00000 00000                  
09237000381180001G26759067590000002325980011680000001068442589322               CA           9 J               210                                      NNNN           210000000000000000000000000                                                                   77768166                                                                                                                                                                                                                                                                                                                                                                                                                                               
09237010381186724BH6759067590000003201180013680000090170616202316723000000000504000    0000090001298395N8001366759C06182023000                                                                                                                                                                                                                                                                                                                                                                                                                                                                                                                                                                                              
09237020381186725DT67590675900000032011800136800000010180013687287283167900012983956061520230000050400016723000000000504000558958XXXXXX4708                         YY 4607AMABL14LVW0615  N840000000504000          81DNCHOICE BOTANICALS INC    08123Q    MB84000000504000 NP1549900000001   2604                     000000000+600450S00140    MAB  11637                     000000000  N                0000000000000.00 0000000.00   0000000.00                             000000000000000                                                                                                                                                   U0015WPE 000000000000 0000000000151.30     03000 01000                  
09237030381180001P1675906759000000320118001368000000101                                                          000000000000          8000            471128992                                                                                                                                                                                                                                                                                                                                                                                                                                                                                                                                                            
09237040381180002G26759067590000003201180013680000001018884377779               TX           9 B               210                  471128992           YNNN           210000000000000000000000000                                                                   00000001                                                                                                                                                                                                                                                                                                                                                                                                                                               
09237050382030002BH6759067590000003284780013580000090170616202316723000000000010279    0000090001250003N8001356759C06182023025                                                                                                                                                                                                                                                                                                                                                                                                                                                                                                                                                                                              
09237060382030003DT67590675900000032847800135800000033080013576759003167900012500010061520230000000162216723000000000010279527515XXXXXX4286                         NY42 0 N               N840000000001622      ME  05DNDAYDREAMS SMOKE WORLD LLC151063    DB84000000001622 N  599378480415                            000000000+                     09601                                1          MA1   0000000000000.00 0000000.00   0000000.00                             000000000000000                                                                                                                                                     01418  000000000000 0000000000000.23     00050 00000                  
09237070382030001G2675906759000000328478001358000000330MCALLEN                  TX           5 D                00                                      NNNN                          000000000000                                                                   78480415                                                                                                                                                                                                                                                                                                                                                                                                                                               
09237080382030004DT67590675900000032847800135800000033080013576759003167900012500028061520230000000238016723000000000010279482915XXXXXX4342                         NY 2 0 N               N840000000002380      IL  07DNDAYDREAMS SMOKE WORLD LLC036766    DB84000000002380 N  599378480415                            000000000+                     09580                                Y          342   0000000000000.00 0000000.00   0000000.00                             000000000000000                                                                                                                                                     01418  000000000000 0000000000000.23     00050 00000                  
09237090382030001G2675906759000000328478001358000000330MCALLEN                  TX           5 D                00                                      NNNN                          000000000000                                                                   78480415                                                                                                                                                                                                                                                                                                                                                                                                                                               
09237100382030005DT67590675900000032847800135800000033080013576759003167900012500036061520230000000627716723000000000010279456367XXXXXX3744                         NY 2 0 N               N840000000006277      IL  07DNDAYDREAMS SMOKE WORLD LLCH19375    DB84000000006277 N  599378480415                            000000000+                     09580                                Y          342   0000000000000.00 0000000.00   0000000.00                             000000000000000                                                                                                                                                     01418  000000000000 0000000000000.25     00050 00000                  
09237110382030001G2675906759000000328478001358000000330MCALLEN                  TX           5 D                00                                      NNNN                          000000000000                                                                   78480415                                                                                                                                                                                                                                                                                                                                                                                                                                               
09237120382030006BH6759067590000003284780013580000090170616202316723000000000099036    0000090001250031N8001356759C06182023025                                                                                                                                                                                                                                                                                                                                                                                                                                                                                                                                                                                              
09237130382030007DT67590675900000032847800135800000010180013524001193167900012500049061520230000000054016723000000000099036415231XXXXXX7194       VK04    1111111   NYV1 B E463166689573116N840000000000540V98Z00    05DNDAYDREAMS SMOKE WORLD LLC682458    VD84000000000540FN  599378480426                            000000000+                F DF 00022                     000000000  N000000000       0000000000000.00 0000000.0000 0000000.05D                            000000000000000                                                                                                                                                     01418 F000000000000 0000000000000.06     01100 00000                  
09237140382030001E167590675900000032847800135800000010100E0F8C80110 00000000000.004040404040404040404040404040404040404040404040404006010A03A4A010000000000000000000404040404040404040404040404040  000108401C0080800080002306155A728A28A32175B261F61F3E404040400840A00000000320100000000000000000002B486799694DF8FF30300000000000004040400140404040 000000005.40 000000000.000103020000000000000000    80                                                                                                                                                                                                                                                                                                                  
09237150382030002G2675906759000000328478001358000000101MCALLEN                  TX           5 D                00                                      NNNN00 N 00                   000000000000                                                                   78480426                                                                                                                                                                                                                                                                                                                                                                                                                                               
09237160382030008DT67590675900000032847800135800000010180013524001193167900012500064061520230000000270516723000000000099036465992XXXXXX8144       VS11    0001111   NYV1 A E463166720878727N840000000002705VDHX00    07DNDAYDREAMS SMOKE WORLD LLC670508    VD84000000002705 N  599378480426                            000000000+                F DF 00381                     000000000  N000000000       0000000000000.00 0000000.00   0000000.00                             000000000000000                                                                                                                                                     01418 A000000000000 0000000000000.37     00800 01500                  
09237170382030001E167590675900000032847800135800000010100404040000A 00000000000.00404040404040404040404040404040404040404040404040401F42FF60A00000000010030273000000004000000000000000000000000000  00000840004000000000002306157FF314AB0B6E2B9DC762615D404040400840A00000000310100000000000000000001F157EEE0086000000000000000000004040404040404040 000000027.05 000000000.004040400000000000000000    80                                                                                                                                                                                                                                                                                                                  
09237180382030002G2675906759000000328478001358000000101MCALLEN                  TX           5 D                00                                      NNNN00 N 00                   000000000000                                                                   78480426                                                                                                                                                                                                                                                                                                                                                                                                                                               
09237190382030009DT67590675900000032847800135800000010180013524001193167900012500072061520230000000606016723000000000099036465992XXXXXX8144       VS11    0001111   NYV1 A E383166763279198N840000000006060FLSB00    07DNDAYDREAMS SMOKE WORLD LLC179281    VD84000000006060 N  599378480426                            000000000+                F DF 00381                     000000000  N000000000       0000000000000.00 0000000.00   0000000.00                             000000000000000                                                                                                                                                     01418 A000000000000 0000000000000.63     00800 01500                  
09237200382030001E167590675900000032847800135800000010100404040000B 00000000000.00404040404040404040404040404040404040404040404040401F42FF32A00000000010030273000000004000000000000000000000000000  000008400040000000000023061563CC1A124ED6247AE0D32A34404040400840A00000000310100000000000000000009D1034FB0086000000000000000000004040404040404040 000000060.60 000000000.004040400000000000000000    80                                                                                                                                                                                                                                                                                                                  
09237210382030002G2675906759000000328478001358000000101MCALLEN                  TX           5 D                00                                      NNNN00 N 00                   000000000000                                                                   78480426                                                                                                                                                                                                                                                                                                                                                                                                                                               
09237220382030010DT67590675900000032847800135800000010180013524001193167900012500130061520230000000392816723000000000099036444796XXXXXX7558       VS11    0001111   NYV1 A E303167001538394N840000000003928H4RG00    05DNDAYDREAMS SMOKE WORLD LLC015527    VS84000000003928 N  599378480426                            000000000+                A CA 12110                     000000000  N000000000 493   0000000000000.00 0000000.00   0000000.00                             000000000000000                                                                                                                                                     01418 A000000000000 0000000000000.69     01510 01000                  
09237230382030001E167590675900000032847800135800000010100E0F8C8002B 00000000000.004040404040404040404040404040404040404040404040404006011203A02000000000000000000000404040404040404040404040404040  000108401800800000800023061517BDE47FAD4C81C8C8DA0476404040400840A0000000031010000000000000000000258CF3AA0082000000000000000000004040405E40404040 000000039.28 000000000.005E00000000000000000000    80                                                                                                                                                                                                                                                                                                                  
09237240382030002G2675906759000000328478001358000000101MCALLEN                  TX           5 C                00                                      NNNN00 N 00                   000000000000                                                                   78480426                                                                                                                                                                                                                                                                                                                                                                                                                                               
09237250382030011DT67590675900000032847800135800000010180013524001193167900012500171061520230000000238016723000000000099036414446XXXXXX5895       VS11    0001111   NYV1 A E583167083169339N84000000000238035ZZ00    05DNDAYDREAMS SMOKE WORLD LLC703357    VD84000000002380 N  599378480426                            000000000+                F DF 00381                     000000000  N000000000       0000000000000.00 0000000.00   0000000.00                             000000000000000                                                                                                                                                     01418 A000000000000 0000000000000.34     00800 01500                  
09237260382030001E167590675900000032847800135800000010100E0F8C80327 00000000000.004040404040404040404040404040404040404040404040404006011203A08000000000000000000000404040404040404040404040404040  00000840180080000080002306157C7BC0976BA785AF209FCD16404040400840A00000000310100000000000000000000DE4F9F20080000000000000000000004040405E40404040 000000023.80 000000000.005E00000000000000000000    80                                                                                                                                                                                                                                                                                                                  
09237270382030002G2675906759000000328478001358000000101MCALLEN                  TX           5 D                00                                      NNNN00 N 00                   000000000000                                                                   78480426                                                                                                                                                                                                                                                                                                                                                                                                                                               
09237280382030012DT67590675900000032847800135800000010180013573011003167900012500250061520230000000404516723000000000099036371576XXXXX1022                          NY 1 0 N005290565723303N840000000004045          05DNDAYDREAMS SMOKE WORLD LLC801644    AM84000000004045 N  599378480426                            000000000+51010155434C 258     11261                     000000000                   0000000000000.00 0000000.00   0000000.00                             000000000000000 61248972086759675900000032847 DAYDREAMS SMOKE WORLD LLC900 N 10TH ST            9563387102      78501     DAYDREAMSSMOKEWORLD@GMAIL.COM             01418  000000000000 0000000000000.75     01600 00000                  
09237290382030001E167590675900000032847800135800000010100E0F8C8017D 00000000000.0040404040404040404040404040404040404040404040404040065A0103A0A006000000000000000000404040404040404040404040404040  000008403C000000008000230616B466690B186B97F0D1E28888404040400840A00000002501080100000000000000006AFE7796B64F2CE530300000000000004040405E40404040 000000040.45 000000000.005E03000000000000000000    80                                                                                                                                                                                                                                                                                                                  
09237300382030002G2675906759000000328478001358000000101MCALLEN                  TX           5                  00                                      NNNN                          000000000000                                                                   78480426                                                                                                                                                                                                                                                                                                                                                                                                                                               
09237310382030013DT67590675900000032847800135800000010180013577287283167900012500306061620230000000297516723000000000099036517805XXXXXX6178       MS02WI09          NY 1 0 AMPL0Y4U5J0616  N840000000002975          07DNDAYDREAMS SMOKE WORLD LLC00764B    MC84000000002975 N  599378480426                            000000000+M10101M0034C    MPL  00353                     000000000  N                0000000000000.00 0000000.00   0000000.00                             000000000000000                                                                                                                                                   B101418  000000000000 0000000000000.64     01800 01000                  
09237320382030001E167590675900000032847800135800000010100E008C80066 00000000000.00404040404040404040404040404040404040404040404040400110A04001220000000000000000000000FF00000000000000000000000000  0001084019800000008001230616D3FB397F106256540386D3C2404040400840A0000000041010000000000000000000404040404040404040404040404040404040401F40404040 000000029.75 000000000.001F03020000000000000000    80                                                                                                                                                                                                                                                                                                                  
09237330382030002G2675906759000000328478001358000000101MCALLEN                  TX           5 L                                                        NNNN              000000000000000000000000       00               7                                          78480426                                                                                                                                                                                                                                                                                                                                                                                                                                               
09237340382030014DT67590675900000032847800135800000033080013576759003167900012500010061520230000000432916723000000000099036423223XXXXXX8484                         NY 2 0 N               N840000000004329      IL  05DNDAYDREAMS SMOKE WORLD LLC029303    DB84000000004329 N  599378480426                            000000000+                     09573                                N          121   0000000000000.00 0000000.00   0000000.00                             000000000000000                                                                                                                                                     01418  000000000000 0000000000000.50     00800 00000                  
09237350382030001G2675906759000000328478001358000000330MCALLEN                  TX           5 D                00                                      NNNN                          000000000000                                                                   78480426                                                                                                                                                                                                                                                                                                                                                                                                                                               
09237360382030015DT67590675900000032847800135800000033080013576759003167900012500028061520230000000198916723000000000099036443045XXXXXX0511                         NY 2 0 N               N840000000001989      IL  05DNDAYDREAMS SMOKE WORLD LLC315217    DB84000000001989 N  599378480426                            000000000+                     09580                                Y          342   0000000000000.00 0000000.00   0000000.00                             000000000000000                                                                                                                                                     01418  000000000000 0000000000000.23     00050 00000                  
09237370382030001G2675906759000000328478001358000000330MCALLEN                  TX           5 D                00                                      NNNN                          000000000000                                                                   78480426                                                                                                                                                                                                                                                                                                                                                                                                                                               
09237380382030016DT67590675900000032847800135800000033080013576759003167900012500036061520230000000432916723000000000099036517279XXXXXX0652                         NY42 0 N               N840000000004329      ME  05DNDAYDREAMS SMOKE WORLD LLC117300    DB84000000004329 N  599378480426                            000000000+                     09597                                N                0000000000000.00 0000000.00   0000000.00                             000000000000000                                                                                                                                                     01418  000000000000 0000000000000.54     00900 00000                  
09237390382030001G2675906759000000328478001358000000330MCALLEN                  TX           5 D                00                                      NNNN                          000000000000                                                                   78480426                                                                                                                                                                                                                                                                                                                                                                                                                                               
09237400382030017DT67590675900000032847800135800000033080013576759003167900012500051061520230000000357016723000000000099036440393XXXXXX8348                         NY 2 0 N               N840000000003570      IL  07DNDAYDREAMS SMOKE WORLD LLC668892    DB84000000003570 N  599378480426                            000000000+                     09576                                N          346   0000000000000.00 0000000.00   0000000.00                             000000000000000                                                                                                                                                     01418  000000000000 0000000000000.56     01150 00000                  
09237410382030001G2675906759000000328478001358000000330MCALLEN                  TX           5 P                00                                      NNNN                          000000000000                                                                   78480426                                                                                                                                                                                                                                                                                                                                                                                                                                               
09237420382030018DT67590675900000032847800135800000033080013576759003167900012500085061520230000000064416723000000000099036529099XXXXXX3641                         NY42 0 N               N840000000000644      ME  05DNDAYDREAMS SMOKE WORLD LLC042601    DB84000000000644 N  599378480426                            000000000+                     09601                                1          MA1   0000000000000.00 0000000.00   0000000.00                             000000000000000                                                                                                                                                     01418  000000000000 0000000000000.22     00050 00000                  
09237430382030001G2675906759000000328478001358000000330MCALLEN                  TX           5                  00                                      NNNN                          000000000000                                                                   78480426                                                                                                                                                                                                                                                                                                                                                                                                                                               
09237440382030019DT67590675900000032847800135800000033080013576759003167900012500093061520230000000012816723000000000099036451727XXXXXX5145                         NY 2 0 N               N840000000000128      IL  07DNDAYDREAMS SMOKE WORLD LLC130710    DB84000000000128 N  599378480426                            000000000+                     09580                                Y          342   0000000000000.00 0000000.00   0000000.00                             000000000000000                                                                                                                                                     01418  000000000000 0000000000000.22     00050 00000                  
09237450382030001G2675906759000000328478001358000000330MCALLEN                  TX           5 D                00                                      NNNN                          000000000000                                                                   78480426                                                                                                                                                                                                                                                                                                                                                                                                                                               
09237460382030020DT67590675900000032847800135800000033080013576759003167900012500101061520230000000108116723000000000099036414446XXXXXX1907                         NY 2 0 N               N840000000001081      IL  05DNDAYDREAMS SMOKE WORLD LLC692617    DB84000000001081 N  599378480426                            000000000+                     09590                                N          279   0000000000000.00 0000000.00   0000000.00                             000000000000000                                                                                                                                                     01418  000000000000 0000000000000.24     00800 00000                  
09237470382030001G2675906759000000328478001358000000330MCALLEN                  TX           5 D                00                                      NNNN                          000000000000                                                                   78480426                                                                                                                                                                                                                                                                                                                                                                                                                                               
09237480382030021DT67590675900000032847800135800000033080013576759003167900012500119061520230000000119016723000000000099036467010XXXXXX2947                         NY 2 0 N               N840000000001190      IL  05DNDAYDREAMS SMOKE WORLD LLC248187    DB84000000001190 N  599378480426                            000000000+                     09580                                Y          342   0000000000000.00 0000000.00   0000000.00                             000000000000000                                                                                                                                                     01418  000000000000 0000000000000.23     00050 00000                  
09237490382030001G2675906759000000328478001358000000330MCALLEN                  TX           5 D                00                                      NNNN                          000000000000                                                                   78480426                                                                                                                                                                                                                                                                                                                                                                                                                                               
09237500382030022DT67590675900000032847800135800000033080013576759003167900012500127061520230000000373216723000000000099036434769XXXXXX9915                         NY 2 0 N               N840000000003732      IL  05DNDAYDREAMS SMOKE WORLD LLC065919    DB84000000003732 N  599378480426                            000000000+                     09580                                Y          342   0000000000000.00 0000000.00   0000000.00                             000000000000000                                                                                                                                                     01418  000000000000 0000000000000.24     00050 00000                  
09237510382030001G2675906759000000328478001358000000330MCALLEN                  TX           5 D                00                                      NNNN                          000000000000                                                                   78480426                                                                                                                                                                                                                                                                                                                                                                                                                                               
09237520382030023DT67590675900000032847800135800000033080013576759003167900012500143061520230000000064716723000000000099036408138XXXXXX3372                         NY 2 0 N               N840000000000647      IL  07DNDAYDREAMS SMOKE WORLD LLC282521    DB84000000000647 N  599378480426                            000000000+                     09576                                N          346   0000000000000.00 0000000.00   0000000.00                             000000000000000                                                                                                                                                     01418  000000000000 0000000000000.22     01150 00000                  
09237530382030001G2675906759000000328478001358000000330MCALLEN                  TX           5 P                00                                      NNNN                          000000000000                                                                   78480426                                                                                                                                                                                                                                                                                                                                                                                                                                               
09237540382030024DT67590675900000032847800135800000033080013576759003167900012500150061520230000000270516723000000000099036434258XXXXXX0309                         NY 2 0 N               N840000000002705      IL  07DNDAYDREAMS SMOKE WORLD LLC079452    DB84000000002705 N  599378480426                            000000000+                     09580                                Y          342   0000000000000.00 0000000.00   0000000.00                             000000000000000                                                                                                                                                     01418  000000000000 0000000000000.23     00050 00000                  
09237550382030001G2675906759000000328478001358000000330MCALLEN                  TX           5 D                00                                      NNNN                          000000000000                                                                   78480426                                                                                                                                                                                                                                                                                                                                                                                                                                               
09237560382030025DT67590675900000032847800135800000033080013576759003167900012500168061520230000001082416723000000000099036467010XXXXXX1779                         NY 2 0 N               N840000000010824      IL  05DNDAYDREAMS SMOKE WORLD LLC605589    DB84000000010824 N  599378480426                            000000000+                     09580                                Y          342   0000000000000.00 0000000.00   0000000.00                             000000000000000                                                                                                                                                     01418  000000000000 0000000000000.27     00050 00000                  
09237570382030001G2675906759000000328478001358000000330MCALLEN                  TX           5 D                00                                      NNNN                          000000000000                                                                   78480426                                                                                                                                                                                                                                                                                                                                                                                                                                               
09237580382030026DT67590675900000032847800135800000033080013576759003167900012500184061520230000000086516723000000000099036517279XXXXXX2660                         NY42 0 N               N840000000000865      ME  05DNDAYDREAMS SMOKE WORLD LLC987895    DB84000000000865 N  599378480426                            000000000+                     09597                                N                0000000000000.00 0000000.00   0000000.00                             000000000000000                                                                                                                                                     01418  000000000000 0000000000000.23     00900 00000                  
09237590382030001G2675906759000000328478001358000000330MCALLEN                  TX           5 D                00                                      NNNN                          000000000000                                                                   78480426                                                                                                                                                                                                                                                                                                                                                                                                                                               
09237600382030027DT67590675900000032847800135800000033080013576759003167900012500192061520230000000202116723000000000099036408138XXXXXX4310                         NY 2 0 N               N840000000002021      IL  07DNDAYDREAMS SMOKE WORLD LLC656890    DB84000000002021 N  599378480426                            000000000+                     09576                                N          346   0000000000000.00 0000000.00   0000000.00                             000000000000000                                                                                                                                                     01418  000000000000 0000000000000.38     01150 00000                  
09237610382030001G2675906759000000328478001358000000330MCALLEN                  TX           5 P                00                                      NNNN                          000000000000                                                                   78480426                                                                                                                                                                                                                                                                                                                                                                                                                                               
09237620382030028DT67590675900000032847800135800000033080013576759003167900012500200061520230000000941616723000000000099036434257XXXXXX3220                         NY 2 0 N               N840000000009416      IL  05DNDAYDREAMS SMOKE WORLD LLC088472    DB84000000009416 N  599378480426                            000000000+                     09580                                Y          342   0000000000000.00 0000000.00   0000000.00                             000000000000000                                                                                                                                                     01418  000000000000 0000000000000.27     00050 00000                  
09237630382030001G2675906759000000328478001358000000330MCALLEN                  TX           5 D                00                                      NNNN                          000000000000                                                                   78480426                                                                                                                                                                                                                                                                                                                                                                                                                                               
09237640382030029DT67590675900000032847800135800000033080013576759003167900012500218061520230000000411116723000000000099036440393XXXXXX0438                         NY 2 0 N               N840000000004111      IL  05DNDAYDREAMS SMOKE WORLD LLC820052    DB84000000004111 N  599378480426                            000000000+                     09576                                N          346   0000000000000.00 0000000.00   0000000.00                             000000000000000                                                                                                                                                     01418  000000000000 0000000000000.62     01150 00000                  
09237650382030001G2675906759000000328478001358000000330MCALLEN                  TX           5 P                00                                      NNNN                          000000000000                                                                   78480426                                                                                                                                                                                                                                                                                                                                                                                                                                               
09237660382030030DT67590675900000032847800135800000033080013576759003167900012500226061520230000000844116723000000000099036408138XXXXXX9856                         NY 2 0 N               N840000000008441      IL  07DNDAYDREAMS SMOKE WORLD LLC973181    DB84000000008441 N  599378480426                            000000000+                     09576                                N          346   0000000000000.00 0000000.00   0000000.00                             000000000000000                                                                                                                                                     01418  000000000000 0000000000001.12     01150 00000                  
09237670382030001G2675906759000000328478001358000000330MCALLEN                  TX           5 P                00                                      NNNN                          000000000000                                                                   78480426                                                                                                                                                                                                                                                                                                                                                                                                                                               
09237680382030031DT67590675900000032847800135800000033080013576759003167900012500234061520230000000053916723000000000099036408138XXXXXX9856                         NY 2 0 N               N840000000000539      IL  07DNDAYDREAMS SMOKE WORLD LLC441475    DB84000000000539 N  599378480426                            000000000+                     09576                                N          346   0000000000000.00 0000000.00   0000000.00                             000000000000000                                                                                                                                                     01418  000000000000 0000000000000.21     01150 00000                  
09237690382030001G2675906759000000328478001358000000330MCALLEN                  TX           5 P                00                                      NNNN                          000000000000                                                                   78480426                                                                                                                                                                                                                                                                                                                                                                                                                                               
09237700382030032DT67590675900000032847800135800000033080013576759003167900012500242061520230000000053616723000000000099036408138XXXXXX9856                         NY 2 0 N               N840000000000536      IL  07DNDAYDREAMS SMOKE WORLD LLC807084    DB84000000000536 N  599378480426                            000000000+                     09576                                N          346   0000000000000.00 0000000.00   0000000.00                             000000000000000                                                                                                                                                     01418  000000000000 0000000000000.21     01150 00000                  
09237710382030001G2675906759000000328478001358000000330MCALLEN                  TX           5 P                00                                      NNNN                          000000000000                                                                   78480426                                                                                                                                                                                                                                                                                                                                                                                                                                               
09237720382030033DT67590675900000032847800135800000033080013576759003167900012500267061620230000000176016723000000000099036434258XXXXXX6268                         NY 2 0 N               N840000000001760      IL  05DNDAYDREAMS SMOKE WORLD LLC007668    DB84000000001760 N  599378480426                            000000000+                     09580                                Y          342   0000000000000.00 0000000.00   0000000.00                             000000000000000                                                                                                                                                     01418  000000000000 0000000000000.23     00050 00000                  
09237730382030001G2675906759000000328478001358000000330MCALLEN                  TX           5 D                00                                      NNNN                          000000000000                                                                   78480426                                                                                                                                                                                                                                                                                                                                                                                                                                               
09237740382030034DT67590675900000032847800135800000033080013576759003167900012500275061620230000000063916723000000000099036417021XXXXXX1759                         NY 2 0 N               N840000000000639      IL  05DNDAYDREAMS SMOKE WORLD LLC840104    DB84000000000639 N  599378480426                            000000000+                     09595                                N          284   0000000000000.00 0000000.00   0000000.00                             000000000000000                                                                                                                                                     01418  000000000000 0000000000000.22     01150 00000                  
09237750382030001G2675906759000000328478001358000000330MCALLEN                  TX           5 P                00                                      NNNN                          000000000000                                                                   78480426                                                                                                                                                                                                                                                                                                                                                                                                                                               
09237760382030035DT67590675900000032847800135800000033080013576759003167900012500283061620230000000757616723000000000099036434257XXXXXX3220                         NY 2 0 N               N840000000007576      IL  05DNDAYDREAMS SMOKE WORLD LLC080860    DB84000000007576 N  599378480426                            000000000+                     09580                                Y          342   0000000000000.00 0000000.00   0000000.00                             000000000000000                                                                                                                                                     01418  000000000000 0000000000000.26     00050 00000                  
09237770382030001G2675906759000000328478001358000000330MCALLEN                  TX           5 D                00                                      NNNN                          000000000000                                                                   78480426                                                                                                                                                                                                                                                                                                                                                                                                                                               
09237780382030036DT67590675900000032847800135800000033080013576759003167900012500291061620230000000378616723000000000099036441707XXXXXX8850                         NY 2 0 N               N840000000003786      IL  07DNDAYDREAMS SMOKE WORLD LLC347840    DB84000000003786 N  599378480426                            000000000+                     09576                                N          346   0000000000000.00 0000000.00   0000000.00                             000000000000000                                                                                                                                                     01418  000000000000 0000000000000.59     01150 00000                  
09237790382030001G2675906759000000328478001358000000330MCALLEN                  TX           5 P                00                                      NNNN                          000000000000                                                                   78480426                                                                                                                                                                                                                                                                                                                                                                                                                                               
09237800382030037DT67590675900000032847800135800000033080013576759003167900012500317061620230000000154516723000000000099036440393XXXXXX4290                         NY 2 0 N               N840000000001545      IL  05DNDAYDREAMS SMOKE WORLD LLC130938    DB84000000001545 N  599378480426                            000000000+                     09576                                N          346   0000000000000.00 0000000.00   0000000.00                             000000000000000                                                                                                                                                     01418  000000000000 0000000000000.33     01150 00000                  
09237810382030001G2675906759000000328478001358000000330MCALLEN                  TX           5 P                00                                      NNNN                          000000000000                                                                   78480426                                                                                                                                                                                                                                                                                                                                                                                                                                               
09237820382030038BH6759067590000003284780013580000090170616202316723000000000052263    0000090001300018N8001356759C06182023030                                                                                                                                                                                                                                                                                                                                                                                                                                                                                                                                                                                              
09237830382030039DT67590675900000032847800135800000010180013577287283167900013000025061520230000000162316723000000000052263512230XXXXXX0449       MS02WI09          NY 1 0 AMWECPIBGN0615  N840000000001623          05DNDAYDREAMS SMOKE WORLD LLC36804Z    MC84000000001623 N  599378415303                            000000000+M10101C0034C    MWE  00739                     000000000  N                0000000000000.00 0000000.00   0000000.00                             000000000000000                                                                                                                                                   B101418  000000000000 0000000000000.47     02300 01000                  
09237840382030001E167590675900000032847800135800000010100E0F8C800E5 00000000000.00404040404040404040404040404040404040404040404040400110A00001220800000000000000000000FF00000000000000000000000000  00010840180080000080002306150AD5F8D725F2FAD97FD59278404040400840A0000000041010000000000000000000A43FC9F7FB242AEB00140000000000004040401F40404040 000000016.23 000000000.001F03020000000000000000    80                                                                                                                                                                                                                                                                                                                  
09237850382030002G2675906759000000328478001358000000101MCALLEN                  TX           5 E                                                        NNNN              000000000000000000000000                                                                   78415303                                                                                                                                                                                                                                                                                                                                                                                                                                               
09237860382030040DT67590675900000032847800135800000010180013524001193167900013000122061520230000000054116723000000000052263458594XXXXXX4013       VK04    1111111   NYV2 B E303167074302428N8400000000005419RBJ00    05DNDAYDREAMS SMOKE WORLD LLC492735    VD84000000000541FN  599378415303                            000000000+                F DF 00022                     000000000  N000000000       0000000000000.00 0000000.0000 0000000.05D                            000000000000000                                                                                                                                                     01418 F000000000000 0000000000000.06     01100 00000                  
09237870382030001E167590675900000032847800135800000010100E0F8C8002F 00000000000.004040404040404040404040404040404040404040404040404006011203A0A002000000000000000000404040404040404040404040404040  0000084038000080048000230615B402A89D45FDBB85D0A3DA65404040400840A00000000310100000000000000000000C5B423B0084000000000000000000004040404240404040 000000005.41 000000000.004203000000000000000000    80                                                                                                                                                                                                                                                                                                                  
09237880382030002G2675906759000000328478001358000000101MCALLEN                  TX           5 D                00                                      NNNN00 N 00                   000000000000                                                                   78415303                                                                                                                                                                                                                                                                                                                                                                                                                                               
09237890382030041DT67590675900000032847800135800000010180013577287283167900013000140061520230000000432916723000000000052263517805XXXXXX8897       MS02WI09          NY 1 0 AMWEH7762B0615  N840000000004329          05DNDAYDREAMS SMOKE WORLD LLC04284P    MC84000000004329 N  599378415303                            000000000+M10101C5434C    MWE  00739                     000000000  N                0000000000000.00 0000000.00   0000000.00                             000000000000000                                                                                                                                                   B101418  000000000000 0000000000001.10     02300 01000                  
09237900382030001E167590675900000032847800135800000010100E0F8C80009 00000000000.00404040404040404040404040404040404040404040404040400110A04001220000000000000000000000FF00000000000000000000000000  0002084039000000008000230615B272C2C46631DF1A27773820404040400840A0000000041010000000000000000000BDE2461985204C6C00120000000000004040401E40404040 000000043.29 000000000.001E03000000000000000000    80                                                                                                                                                                                                                                                                                                                  
09237910382030002G2675906759000000328478001358000000101MCALLEN                  TX           5 E                                                        NNNN              000000000000000000000000                        7                                          78415303                                                                                                                                                                                                                                                                                                                                                                                                                                               
09237920382030042DT67590675900000032847800135800000010180013524001193167900013000155061520230000000270516723000000000052263481436XXXXXX4695       VS11    0001111   NYV1 A E383167096681237N840000000002705PD7V00    07DNDAYDREAMS SMOKE WORLD LLC084122    VD84000000002705 N  599378415303                            000000000+                F DF 10433                     000000000  Y000000000 338   0000000000000.00 0000000.00   0000000.00                             000000000000000                                                                                                                                                     01418 A000000000000 0000000000000.23     00050 02200                  
09237930382030001E167590675900000032847800135800000010100404040002B 00000000000.00404040404040404040404040404040404040404040404040401F4A0132A00000000010030273000000004000000000000000000000000000  00000840004000000000002306159459DB2FCFA821C9311EC998404040400840A0000000031010000000000000000000DC1AD1F495F8373F30300000000000004040404040404040 000000027.05 000000000.004040400000000000000000    80                                                                                                                                                                                                                                                                                                                  
09237940382030002G2675906759000000328478001358000000101MCALLEN                  TX           5 D                00                                      NNNN00 N 00                   000000000000                                                                   78415303                                                                                                                                                                                                                                                                                                                                                                                                                                               
09237950382030043DT67590675900000032847800135800000010180013524001193167900013000163061520230000000233616723000000000052263478357XXXXXX2101       VS11    0001111   NYV1 A E303167137321413N840000000002336PVNM00    07DNDAYDREAMS SMOKE WORLD LLC068182    VS84000000002336 N  599378415303                            000000000+                A CA 12110                     000000000  N000000000 493   0000000000000.00 0000000.00   0000000.00                             000000000000000                                                                                                                                                     01418 A000000000000 0000000000000.45     01510 01000                  
09237960382030001E1675906759000000328478001358000000101004040400019 00000000000.00404040404040404040404040404040404040404040404040401F42FF32A00000000010030273000000004000000000000000000000000000  00000840004000000000002306152EB81D5C8B5D0FEEE6B0B45E404040400840A00000000310100000000000000000004C08C5100086000000000000000000004040404040404040 000000023.36 000000000.004040400000000000000000    80                                                                                                                                                                                                                                                                                                                  
09237970382030002G2675906759000000328478001358000000101MCALLEN                  TX           5 C                00                                      NNNN00 N 00                   000000000000                                                                   78415303                                                                                                                                                                                                                                                                                                                                                                                                                                               
09237980382030044DT67590675900000032847800135800000010180013524001193167900013000197061620230000000541016723000000000052263486876XXXXXX3463       VS11    0001111   NYV1 A E303167207981003N840000000005410Q87900    07DNDAYDREAMS SMOKE WORLD LLC084601    VD84000000005410 N  599378415303                            000000000+                F DF 10433                     000000000  Y000000000 338   0000000000000.00 0000000.00   0000000.00                             000000000000000                                                                                                                                                     01418 A000000000000 0000000000000.25     00050 02200                  
09237990382030001E167590675900000032847800135800000010100404040002E 00000000000.00404040404040404040404040404040404040404040404040401F4A0132A00000000010030273000000004000000000000000000000000000  00000840004000000000002306162F7756D71673D944505F21D4404040400840A0000000031010000000000000000000EB71E7DD947BEBD130300000000000004040404040404040 000000054.10 000000000.004040400000000000000000    80                                                                                                                                                                                                                                                                                                                  
09238000382030002G2675906759000000328478001358000000101MCALLEN                  TX           5 D                00                                      NNNN00 N 00                   000000000000                                                                   78415303                                                                                                                                                                                                                                                                                                                                                                                                                                               
09238010382030045DT67590675900000032847800135800000010180013524001193167900013000205061620230000000059116723000000000052263414446XXXXXX9562       VK04VS111111111   NYV1 A E303167258109821N840000000000591R93Q00    05DNDAYDREAMS SMOKE WORLD LLC709836    VD84000000000591 N  599378415303                            000000000+                F DF 00451                     000000000  N000000000 214   0000000000000.00 0000000.00   0000000.00                             000000000000000                                                                                                                                                     01418 F000000000000 0000000000000.13     01550 00400                  
09238020382030001E167590675900000032847800135800000010100E0F8C8026D 00000000000.004040404040404040404040404040404040404040404040404006011203A08000000000000000000000404040404040404040404040404040  0000084018008000008000230616806B5EDEE9E4E1E6D57D7E5C404040400840A00000000310100000000000000000003D8F57690080000000000000000000004040405E40404040 000000005.91 000000000.005E00000000000000000000    80                                                                                                                                                                                                                                                                                                                  
09238030382030002G2675906759000000328478001358000000101MCALLEN                  TX           5 D                00                                      NNNN00 N 00                   000000000000                                                                   78415303                                                                                                                                                                                                                                                                                                                                                                                                                                               
09238040382030046DT67590675900000032847800135800000010180013577287283167900013000215061620230000000053616723000000000052263555753XXXXXX4258       MS02WI09          NY 1 0 AMDH07NQ5I0616  N840000000000536          05DNDAYDREAMS SMOKE WORLD LLC087612    MD84000000000536 N  599378415303                            000000000+M10101C5434C    MDH  00402                     000000000  N                0000000000000.00 0000000.00   0000000.00                             000000000000000                                                                                                                                                   B101418  000000000000 0000000000000.21     01050 01500                  
09238050382030001E167590675900000032847800135800000010100E0F8C80049 00000000000.00404040404040404040404040404040404040404040404040400110A04001220000000000000000000000FF00000000000000000000000000  00000840390000000080002306160325286EE325BCA4D08FE41A404040400840A00000000410100000000000000000005D7C15D622991C1C00120000000000004040401E40404040 000000005.36 000000000.001E03000000000000000000    80                                                                                                                                                                                                                                                                                                                  
09238060382030002G2675906759000000328478001358000000101MCALLEN                  TX           5 H                                                        NNNN              000000000000000000000000                        7                                          78415303                                                                                                                                                                                                                                                                                                                                                                                                                                               
09238070382030047DT67590675900000032847800135800000033080013576759003167900013000010061520230000000334616723000000000052263517279XXXXXX7103                         NY42 0 N               N840000000003346      ME  05DNDAYDREAMS SMOKE WORLD LLC962004    DB84000000003346 N  599378415303                            000000000+                     09597                                N                0000000000000.00 0000000.00   0000000.00                             000000000000000                                                                                                                                                     01418  000000000000 0000000000000.45     00900 00000                  
09238080382030001G2675906759000000328478001358000000330MCALLEN                  TX           5 D                00                                      NNNN                          000000000000                                                                   78415303                                                                                                                                                                                                                                                                                                                                                                                                                                               
09238090382030048DT67590675900000032847800135800000033080013576759003167900013000036061520230000000108016723000000000052263440393XXXXXX3019                         NY 2 0 N               N840000000001080      IL  07DNDAYDREAMS SMOKE WORLD LLC863287    DB84000000001080 N  599378415303                            000000000+                     09576                                N          346   0000000000000.00 0000000.00   0000000.00                             000000000000000                                                                                                                                                     01418  000000000000 0000000000000.27     01150 00000                  
09238100382030001G2675906759000000328478001358000000330MCALLEN                  TX           5 P                00                                      NNNN                          000000000000                                                                   78415303                                                                                                                                                                                                                                                                                                                                                                                                                                               
09238110382030049DT67590675900000032847800135800000033080013576759003167900013000044061520230000000735916723000000000052263400022XXXXXX6176                         NY 2 0 N               N840000000007359      IL  07DNDAYDREAMS SMOKE WORLD LLC307567    DB84000000007359 N  599378415303                            000000000+                     09580                                Y          342   0000000000000.00 0000000.00   0000000.00                             000000000000000                                                                                                                                                     01418  000000000000 0000000000000.26     00050 00000                  
09238120382030001G2675906759000000328478001358000000330MCALLEN                  TX           5 D                00                                      NNNN                          000000000000                                                                   78415303                                                                                                                                                                                                                                                                                                                                                                                                                                               
09238130382030050DT67590675900000032847800135800000033080013576759003167900013000051061520230000000052816723000000000052263408138XXXXXX8143                         NY 2 0 N               N840000000000528      IL  07DNDAYDREAMS SMOKE WORLD LLC532976    DB84000000000528 N  599378415303                            000000000+                     09576                                N          346   0000000000000.00 0000000.00   0000000.00                             000000000000000                                                                                                                                                     01418  000000000000 0000000000000.21     01150 00000                  
09238140382030001G2675906759000000328478001358000000330MCALLEN                  TX           5 P                00                                      NNNN                          000000000000                                                                   78415303                                                                                                                                                                                                                                                                                                                                                                                                                                               
09238150382030051DT67590675900000032847800135800000033080013576759003167900013000069061520230000000064816723000000000052263408138XXXXXX0187                         NY 2 0 N               N840000000000648      IL  07DNDAYDREAMS SMOKE WORLD LLC476590    DB84000000000648 N  599378415303                            000000000+                     09576                                N          346   0000000000000.00 0000000.00   0000000.00                             000000000000000                                                                                                                                                     01418  000000000000 0000000000000.22     01150 00000                  
09238160382030001G2675906759000000328478001358000000330MCALLEN                  TX           5 P                00                                      NNNN                          000000000000                                                                   78415303                                                                                                                                                                                                                                                                                                                                                                                                                                               
09238170382030052DT67590675900000032847800135800000033080013576759003167900013000077061520230000000013516723000000000052263461046XXXXXX1437                         NY 2 0 N               N840000000000135      IL  07DNDAYDREAMS SMOKE WORLD LLC092015    DB84000000000135 N  599378415303                            000000000+                     09580                                Y          342   0000000000000.00 0000000.00   0000000.00                             000000000000000                                                                                                                                                     01418  000000000000 0000000000000.22     00050 00000                  
09238180382030001G2675906759000000328478001358000000330MCALLEN                  TX           5 D                00                                      NNNN                          000000000000                                                                   78415303                                                                                                                                                                                                                                                                                                                                                                                                                                               
09238190382030053DT67590675900000032847800135800000033080013576759003167900013000085061520230000001277116723000000000052263474472XXXXXX5833                         NY 2 0 N               N840000000012771      IL  05DNDAYDREAMS SMOKE WORLD LLC143554    DB84000000012771 N  599378415303                            000000000+                     09580                                Y          342   0000000000000.00 0000000.00   0000000.00                             000000000000000                                                                                                                                                     01418  000000000000 0000000000000.28     00050 00000                  
09238200382030001G2675906759000000328478001358000000330MCALLEN                  TX           5 D                00                                      NNNN                          000000000000                                                                   78415303                                                                                                                                                                                                                                                                                                                                                                                                                                               
09238210382030054DT67590675900000032847800135800000033080013576759003167900013000093061520230000000216416723000000000052263474472XXXXXX9239                         NY 2 0 N               N840000000002164      IL  07DNDAYDREAMS SMOKE WORLD LLC144505    DB84000000002164 N  599378415303                            000000000+                     09580                                Y          342   0000000000000.00 0000000.00   0000000.00                             000000000000000                                                                                                                                                     01418  000000000000 0000000000000.23     00050 00000                  
09238220382030001G2675906759000000328478001358000000330MCALLEN                  TX           5 D                00                                      NNNN                          000000000000                                                                   78415303                                                                                                                                                                                                                                                                                                                                                                                                                                               
09238230382030055DT67590675900000032847800135800000033080013576759003167900013000101061520230000000097216723000000000052263461046XXXXXX7148                         NY 2 0 N               N840000000000972      IL  07DNDAYDREAMS SMOKE WORLD LLC013821    DB84000000000972 N  599378415303                            000000000+                     09580                                Y          342   0000000000000.00 0000000.00   0000000.00                             000000000000000                                                                                                                                                     01418  000000000000 0000000000000.22     00050 00000                  
09238240382030001G2675906759000000328478001358000000330MCALLEN                  TX           5 D                00                                      NNNN                          000000000000                                                                   78415303                                                                                                                                                                                                                                                                                                                                                                                                                                               
09238250382030056DT67590675900000032847800135800000033080013576759003167900013000119061520230000000108116723000000000052263422968XXXXXX7118                         NY 2 0 N               N840000000001081      IL  05DNDAYDREAMS SMOKE WORLD LLCB05482    DB84000000001081 N  599378415303                            000000000+                     09584                                Y          273   0000000000000.00 0000000.00   0000000.00                             000000000000000                                                                                                                                                     01418  000000000000 0000000000000.23     00050 00000                  
09238260382030001G2675906759000000328478001358000000330MCALLEN                  TX           5 D                00                                      NNNN                          000000000000                                                                   78415303                                                                                                                                                                                                                                                                                                                                                                                                                                               
09238270382030057DT67590675900000032847800135800000033080013576759003167900013000135061520230000000324616723000000000052263474472XXXXXX6858                         NY 2 0 N               N840000000003246      IL  07DNDAYDREAMS SMOKE WORLD LLC141578    DB84000000003246 N  599378415303                            000000000+                     09580                                Y          342   0000000000000.00 0000000.00   0000000.00                             000000000000000                                                                                                                                                     01418  000000000000 0000000000000.24     00050 00000                  
09238280382030001G2675906759000000328478001358000000330MCALLEN                  TX           5 D                00                                      NNNN                          000000000000                                                                   78415303                                                                                                                                                                                                                                                                                                                                                                                                                                               
