03057640682180002BH6759067590000000288180088880000090171230202236422000000000101904    0000090001060026N8008886759C01022023                                                                                                                                                                                                                                                                                                                                                                                                                                                                                                                                                                                                 
03057650682180003DT67590675900000002881800888800000010180088877287282364900010600010123020220000000331336422000000000101904511953XXXXXX5830       MS02WI09          NY 1 0 AMDJQT1YHW1230  N840000000003313          05DNHAPPY HIPPIE             063857    MD84000000003313 N  549976487134                            000000000+M10101C5434C    MDJ  00402                     000000000  N                0000000000000.00 0000000.00   0000000.00                             000000000000000                                                                                                                                                   B101418  000000000000 0000000000000.50     01050 01500                  
03057660682180004DT67590675900000002881800888800000010180088824001192364900010600026123020220000000483636422000000000101904440393XXXXXX3907       VS11    0001111   NYV1 A E302364613593377N840000000004836VQTZ00    05DNHAPPY HIPPIE             367316    VD84000000004836 N  549976487134                            000000000+                F PF 08170                     000000000  N000000000       0000000000000.00 0000000.00   0000000.00                             000000000000000                                                                                                                                                     01418 A000000000000 0000000000000.71     01150 01500                  
03057670682180005DT67590675900000002881800888800000010180088824001192364900010600034123020220000000098636422000000000101904440066XXXXXX0716       VK04VS111111111   NYV1 A E382364623189892N84000000000098643DR00    05DNHAPPY HIPPIE             04893D    VS84000000000986 N  549976487134                            000000000+                D CD 12057                     000000000  N000000000 452   0000000000000.00 0000000.00   0000000.00                             000000000000000                                                                                                                                                     01418 F000000000000 0000000000000.22     02200 00000                  
03057680682180006DT67590675900000002881800888800000010180088824001192364900010600042123020220000000558536422000000000101904445100XXXXXX5955       VS11    0001111   NYV1 A E582364624709646N840000000005585DLHZ00    05DNHAPPY HIPPIE             429112    VD84000000005585 N  549976487134                            000000000+                F DF 10433                     000000000  Y000000000 338   0000000000000.00 0000000.00   0000000.00                             000000000000000                                                                                                                                                     01418 A000000000000 0000000000000.25     00050 02200                  
03057690682180007DT67590675900000002881800888800000010180088824001192364900010600059123020220000000877836422000000000101904445101XXXXXX5306       VS11    0001111   NYV1 A E582364636439718N84000000000877847WB00    05DNHAPPY HIPPIE             442441    VD84000000008778 N  549976487134                            000000000+                F DF 10433                     000000000  Y000000000 338   0000000000000.00 0000000.00   0000000.00                             000000000000000                                                                                                                                                     01418 A000000000000 0000000000000.26     00050 02200                  
03057700682180008DT67590675900000002881800888800000010180088824001192364900010600067123020220000000691336422000000000101904480639XXXXXX9981       VS11    0001111   NYV1 A E302364640293875N840000000006913XKZR00    05DNHAPPY HIPPIE             113323    VD84000000006913 N  549976487134                            000000000+                F DF 00381                     000000000  N000000000       0000000000000.00 0000000.00   0000000.00                             000000000000000                                                                                                                                                     01418 A000000000000 0000000000000.70     00800 01500                  
03057710682180009DT67590675900000002881800888800000010180088824001192364900010600075123020220000000344436422000000000101904480639XXXXXX3608       VS11    0001111   NYV1 A E302364665834044N84000000000344425RF00    05DNHAPPY HIPPIE             114845    VD84000000003444 N  549976487134                            000000000+                F DF 00381                     000000000  N000000000       0000000000000.00 0000000.00   0000000.00                             000000000000000                                                                                                                                                     01418 A000000000000 0000000000000.43     00800 01500                  
03057720682180010DT67590675900000002881800888800000010180088877287282364900010600085123020220000000216136422000000000101904511953XXXXXX7870       MS02WI09          NY 1 0 AMDJJCFNKW1230  N840000000002161          05DNHAPPY HIPPIE             013174    MD84000000002161 N  549976487134                            000000000+M10101C5434C    MDJ  00402                     000000000  N                0000000000000.00 0000000.00   0000000.00                             000000000000000                                                                                                                                                   B101418  000000000000 0000000000000.38     01050 01500                  
03057730682180011DT67590675900000002881800888800000010180088877287282364900010600093123020220000000088836422000000000101904511953XXXXXX7870       MS02WI09          NY 1 0 AMDJE5HKLA1230  N840000000000888          05DNHAPPY HIPPIE             027845    MD84000000000888 N  549976487134                            000000000+M10101C5434C    MDJ  00505                     000000000  N                0000000000000.00 0000000.00   0000000.00                             000000000000000                                                                                                                                                   B101418  000000000000 0000000000000.18     01550 00400                  
03057740682180012DT67590675900000002881800888800000010180088877287282364900010600101123020220000000274336422000000000101904514616XXXXXX2933       MS02WI09          NY 1 0 AMDJHJFLZA1230  N840000000002743          05DNHAPPY HIPPIE             07732A    MD84000000002743 N  549976487134                            000000000+M10101C5434C    MDJ  00402                     000000000  N                0000000000000.00 0000000.00   0000000.00                             000000000000000                                                                                                                                                   B101418  000000000000 0000000000000.44     01050 01500                  
03057750682180013DT67590675900000002881800888800000010180088824001192364900010600117123020220000000548836422000000000101904480639XXXXXX7661       VS11    0001111   NYV1 A E302364680542479N840000000005488BWZH00    05DNHAPPY HIPPIE             115671    VD84000000005488 N  549976487134                            000000000+                F DF 00381                     000000000  N000000000       0000000000000.00 0000000.00   0000000.00                             000000000000000                                                                                                                                                     01418 A000000000000 0000000000000.59     00800 01500                  
03057760682180014DT67590675900000002881800888800000010180088876509752364900010600123123020220000000513336422000000000101904601100XXXXXX7296   BA50                  NY41 0 N862314135819657N840000000005133    00    05DNHAPPY HIPPIE             03060R    DS84000000005133 N  549976487134050                         000000000+0000004910H00   DCCDI01000001011  115941000000 000000000  0          112   0000000000000.00 0000000.00   0000000.00                             000000000000000                                                                                                                                                     01418  000000000000 0000000000000.98     01720 01000                  
03057770682180015DT67590675900000002881800888800000010180088824001192364900010600133123020220000000246736422000000000101904414709XXXXXX9037       VS11    0001111   NYV1 A E302364684595769N840000000002467BMH600    05DNHAPPY HIPPIE             01798C    VS84000000002467 N  549976487134                            000000000+                C CC 12112                     000000000  N000000000 497   0000000000000.00 0000000.00   0000000.00                             000000000000000                                                                                                                                                     01418 A000000000000 0000000000000.51     01650 01000                  
03057780682180016DT67590675900000002881800888800000010180088876509752364900010600149123020220000000422236422000000000101904601100XXXXXX0124   BA50                  NY41 0 N742314139544261N840000000004222    00    05DNHAPPY HIPPIE             03034R    DS84000000004222 N  549976487134050                         000000000+0000004910H00   DCCDI01000402024  120554000000 000000000  0          112   0000000000000.00 0000000.00   0000000.00                             000000000000000                                                                                                                                                     01418  000000000000 0000000000000.83     01720 01000                  
03057790682180017DT67590675900000002881800888800000010180088877287282364900010600150123020220000000078936422000000000101904555426XXXXXX8948       MS02WI09          NY 1 0 AMPGH0FOZN1230  N840000000000789          90DNHAPPY HIPPIE             030707    MD84000000000789 N  549976487134                            000000000+M10101B5434C    MPG  00505                     000000000  N                0000000000000.00 0000000.00   0000000.00                             000000000000000                                                                                                                                                   C101418  000000000000 0000000000000.16     01550 00400                  
03057800682180018DT67590675900000002881800888800000010180088824001192364900010600166123020220000000651736422000000000101904419090XXXXXX6772       VS11    0001111   NYV1 A E582364689004379N840000000006517TJHJ00    05DNHAPPY HIPPIE             343480    VD84000000006517 N  549976487134                            000000000+                F DF 00381                     000000000  N000000000       0000000000000.00 0000000.00   0000000.00                             000000000000000                                                                                                                                                     01418 A000000000000 0000000000000.67     00800 01500                  
03057810682180019DT67590675900000002881800888800000010180088824001192364900010600174123020220000000274336422000000000101904433252XXXXXX2048       VS11    0001111   NYV1 A E302364718835670N840000000002743MC3G00    05DNHAPPY HIPPIE             135803    VD84000000002743 N  549976487134                            000000000+                F DF 00381                     000000000  N000000000       0000000000000.00 0000000.00   0000000.00                             000000000000000                                                                                                                                                     01418 A000000000000 0000000000000.37     00800 01500                  
03057820682180020DT67590675900000002881800888800000010180088824001192364900010600182123020220000000219436422000000000101904414720XXXXXX1153       VS11    0001111   NYV1 A E582364721275799N840000000002194MGH800    05DNHAPPY HIPPIE             06215C    VS84000000002194 N  549976487134                            000000000+                C CC 12112                     000000000  N000000000 497   0000000000000.00 0000000.00   0000000.00                             000000000000000                                                                                                                                                     01418 A000000000000 0000000000000.46     01650 01000                  
03057830682180021DT67590675900000002881800888800000010180088877287282364900010600192123020220000000276436422000000000101904514377XXXXXX4028       MS02WI09          NY 1 0 AMDJL99RKW1230  N840000000002764          05DNHAPPY HIPPIE             106K5S    MD84000000002764 N  549976487134                            000000000+M10101C5434C    MDJ  00402                     000000000  N                0000000000000.00 0000000.00   0000000.00                             000000000000000                                                                                                                                                   B101418  000000000000 0000000000000.44     01050 01500                  
03057840682180022DT67590675900000002881800888800000010180088824001192364900010600208123020220000000325836422000000000101904443238XXXXXX9381       VS11    0001111   NYV1 A E582364725346867N840000000003258XCXS00    05DNHAPPY HIPPIE             050854    VD84000000003258 N  549976487134                            000000000+                F DF 00381                     000000000  N000000000       0000000000000.00 0000000.00   0000000.00                             000000000000000                                                                                                                                                     01418 A000000000000 0000000000000.41     00800 01500                  
03057850682180023DT67590675900000002881800888800000010180088824001192364900010600216123020220000000296236422000000000101904435546XXXXXX9607       VS11    0001111   NYV1 A E382364729477496N840000000002962K87R00    05DNHAPPY HIPPIE             046124    VD84000000002962 N  549976487134                            000000000+                F DF 10433                     000000000  Y000000000 338   0000000000000.00 0000000.00   0000000.00                             000000000000000                                                                                                                                                     01418 A000000000000 0000000000000.23     00050 02200                  
03057860682180024DT67590675900000002881800888800000010180088877287282364900010600226123020220000000438936422000000000101904542418XXXXXX9915       MS02WI09          NY 1 0 AMWEKY8LZN1230  N840000000004389          05DNHAPPY HIPPIE             98034P    MC84000000004389 N  549976487134                            000000000+M10101C5434C    MWE  00743                     000000000  N                0000000000000.00 0000000.00   0000000.00                             000000000000000                                                                                                                                                   B101418  000000000000 0000000000001.05     02300 00400                  
03057870682180025DT67590675900000002881800888800000010180088824001192364900010600232123020220000000777936422000000000101904415978XXXXXX5180       VS11    0001111   NYV1 A E302364743147233N840000000007779M95N00    05DNHAPPY HIPPIE             011336    VD84000000007779 N  549976487134                            000000000+                F DF 10433                     000000000  Y000000000 338   0000000000000.00 0000000.00   0000000.00                             000000000000000                                                                                                                                                     01418 A000000000000 0000000000000.26     00050 02200                  
03057880682180026DT67590675900000002881800888800000010180088824001192364900010600240123020220000000572736422000000000101904443264XXXXXX1793       VS11    0001111   NYV1 A E302364749854876N8400000000057273Q4H00    05DNHAPPY HIPPIE             024997    VD84000000005727 N  549976487134                            000000000+                F DF 10433                     000000000  Y000000000 338   0000000000000.00 0000000.00   0000000.00                             000000000000000                                                                                                                                                     01418 A000000000000 0000000000000.25     00050 02200                  
03057890682180027DT67590675900000002881800888800000010180088824001192364900010600257123020220000000158036422000000000101904422921XXXXXX6466       VS11    0001111   NYV1 A E302364751674598N840000000001580TDMD00    05DNHAPPY HIPPIE             057168    VD84000000001580 N  549976487134                            000000000+                F DF 00381                     000000000  N000000000       0000000000000.00 0000000.00   0000000.00                             000000000000000                                                                                                                                                     01418 A000000000000 0000000000000.28     00800 01500                  
03057900682180028DT67590675900000002881800888800000010180088877287282364900010600267123020220000000424536422000000000101904511953XXXXXX9825       MS02WI09          NY 1 0 AMDJNFJYZA1230  N840000000004245          05DNHAPPY HIPPIE             059309    MD84000000004245 N  549976487134                            000000000+M10101C5434C    MDJ  00402                     000000000  N                0000000000000.00 0000000.00   0000000.00                             000000000000000                                                                                                                                                   B101418  000000000000 0000000000000.60     01050 01500                  
03057910682180029BH6759067590000000288180088880000090171230202236422000000000080497    0000090001060016N8008886759C01022023                                                                                                                                                                                                                                                                                                                                                                                                                                                                                                                                                                                                 
03057920682180030DT67590675900000002881800888800000010180088824001192364900010600018123020220000000690036422000000000080497474487XXXXXX1417       VS11    0001111   NYV1 A E462364542064871N84000000000690022JP00    05DNHAPPY HIPPIE             100335    VD84000000006900 N  549976487158                            000000000+                F DF 10433                     000000000  Y000000000 338   0000000000000.00 0000000.00   0000000.00                             000000000000000                                                                                                                                                     01418 A000000000000 0000000000000.25     00050 02200                  
03057930682180031DT67590675900000002881800888800000010180088877287282364900010600028123020220000000887536422000000000080497511953XXXXXX5690       MS02WI09          NY 1 0 AMDJOKEJHW1230  N840000000008875          05DNHAPPY HIPPIE             075712    MD84000000008875 N  549976487158                            000000000+M10101C5434C    MDJ  00402                     000000000  N                0000000000000.00 0000000.00   0000000.00                             000000000000000                                                                                                                                                   B101418  000000000000 0000000000001.08     01050 01500                  
03057940682180032DT67590675900000002881800888800000010180088877287282364900010600036123020220000000266436422000000000080497532480XXXXXX4299       MS02WI09          NY 2 0 AMDSHXFTVY1230  N840000000002664          05DNHAPPY HIPPIE             403011    MD84000000002664 N  549976487158                            000000000+M10101C1334C    MDS  00402                     000000000  N                0000000000000.00 0000000.00   0000000.00                             000000000000000                                                                                                                                                     01418  000000000000 0000000000000.43     01050 01500                  
03057950682180033DT67590675900000002881800888800000010180088824001192364900010600042123020220000000130036422000000000080497484224XXXXXX3372               1001111   NYV1 A K382364568920979N8400000000013002SFF00    01DNHAPPY HIPPIE             655332    VD84000000001300 N  549976487158                            000000000+                F PF 08171                     000000000  N000000000       0000000000000.00 0000000.00   0000000.00                             000000000000000                                                                                                                                                     01418 E000000000000 0000000000000.43     01750 02000                  
03057960682180034DT67590675900000002881800888800000010180088877287282364900010600051123020220000000423036422000000000080497542418XXXXXX5033       MS02WI09          NY 1 0 AMWEGQEMHP1230  N840000000004230          05DNHAPPY HIPPIE             68018P    MC84000000004230 N  549976487158                            000000000+M10101C5434C    MWE  00743                     000000000  N                0000000000000.00 0000000.00   0000000.00                             000000000000000                                                                                                                                                   B101418  000000000000 0000000000001.01     02300 00400                  
03057970682180035DT67590675900000002881800888800000010180088824001192364900010600067123020220000000790136422000000000080497404227XXXXXX9278       VS11    0001111   NYV1 A E462364579692721N840000000007901DZNN00    05DNHAPPY HIPPIE             516742    VD84000000007901 N  549976487158                            000000000+                F DF 00381                     000000000  N000000000       0000000000000.00 0000000.00   0000000.00                             000000000000000                                                                                                                                                     01418 A000000000000 0000000000000.78     00800 01500                  
03057980682180036DT67590675900000002881800888800000010180088824001192364900010600075123020220000000438936422000000000080497435546XXXXXX0251       VS11    0001111   NYV1 A E302364580886743N8400000000043898MBM00    05DNHAPPY HIPPIE             139055    VD84000000004389 N  549976487158                            000000000+                F DF 10433                     000000000  Y000000000 338   0000000000000.00 0000000.00   0000000.00                             000000000000000                                                                                                                                                     01418 A000000000000 0000000000000.24     00050 02200                  
03057990682180037DT67590675900000002881800888800000010180088824001192364900010600083123020220000000444436422000000000080497445102XXXXXX3101       VS11    0001111   NYV1 A E302364662119330N840000000004444RCLJ00    05DNHAPPY HIPPIE             473383    VD84000000004444 N  549976487158                            000000000+                F DF 10433                     000000000  Y000000000 338   0000000000000.00 0000000.00   0000000.00                             000000000000000                                                                                                                                                     01418 A000000000000 0000000000000.24     00050 02200                  
03058000682180038DT67590675900000002881800888800000010180088824001192364900010600091123020220000000362136422000000000080497415976XXXXXX7965       VS11    0001111   NYV1 A E462364698420929N840000000003621H2QQ00    07DNHAPPY HIPPIE             025622    VD84000000003621 N  549976487158                            000000000+                F DF 10433                     000000000  Y000000000 338   0000000000000.00 0000000.00   0000000.00                             000000000000000                                                                                                                                                     01418 A000000000000 0000000000000.24     00050 02200                  
03058010682180039DT67590675900000002881800888800000010180088877287282364900010600101123020220000000978836422000000000080497516175XXXXXX1733       MS02WI09          NY 1 0 AMPAK8JYKW1230  N840000000009788          90DNHAPPY HIPPIE             768345    MD84000000009788 N  549976487158                            000000000+M10101B5434C    MPA  11964                     000000000  N                0000000000000.00 0000000.00   0000000.00                             000000000000000                                                                                                                                                   C101418  000000000000 0000000000001.28     01150 01500                  
03058020682180040DT67590675900000002881800888800000010180088824001192364900010600117123020220000000404436422000000000080497422921XXXXXX7198       VS11    0001111   NYV1 A E382364725103070N840000000004044SWQ300    05DNHAPPY HIPPIE             054511    VD84000000004044 N  549976487158                            000000000+                F DF 00381                     000000000  N000000000       0000000000000.00 0000000.00   0000000.00                             000000000000000                                                                                                                                                     01418 A000000000000 0000000000000.47     00800 01500                  
03058030682180041DT67590675900000002881800888800000010180088824001192364900010600125123020220000000622136422000000000080497486796XXXXXX4748       VS11    0001111   NYV1 A E462364771036121N8400000000062212H6S00    05DNHAPPY HIPPIE             032516    VD84000000006221 N  549976487158                            000000000+                F DF 10433                     000000000  Y000000000 338   0000000000000.00 0000000.00   0000000.00                             000000000000000                                                                                                                                                     01418 A000000000000 0000000000000.25     00050 02200                  
03058040682180042DT67590675900000002881800888800000010180088824001192364900010600133123020220000000395036422000000000080497419090XXXXXX9446       VS11    0001111   NYV1 A E582364781244158N840000000003950XK4H00    05DNHAPPY HIPPIE             348838    VD84000000003950 N  549976487158                            000000000+                F DF 00381                     000000000  N000000000       0000000000000.00 0000000.00   0000000.00                             000000000000000                                                                                                                                                     01418 A000000000000 0000000000000.47     00800 01500                  
03058050682180043DT67590675900000002881800888800000010180088824001192364900010600141123020220000000493836422000000000080497480639XXXXXX5329       VS11    0001111   NYV1 A E382364785587694N8400000000049384W5700    05DNHAPPY HIPPIE             121575    VD84000000004938 N  549976487158                            000000000+                F DF 00381                     000000000  N000000000       0000000000000.00 0000000.00   0000000.00                             000000000000000                                                                                                                                                     01418 A000000000000 0000000000000.55     00800 01500                  
03058060682180044DT67590675900000002881800888800000010180088824001192364900010600158123020220000000130936422000000000080497491523XXXXXX7823       VK04VS111111111   NYV1 A E382364789603395N840000000001309NNSX00    07DNHAPPY HIPPIE             012169    VD84000000001309 N  549976487158                            000000000+                F DF 10439                     000000000  Y000000000 331   0000000000000.00 0000000.00   0000000.00                             000000000000000                                                                                                                                                     01418 F000000000000 0000000000000.23     00050 02200                  
03058070682180045DT67590675900000002881800888800000010180088877287282364900010600168123020220000000592336422000000000080497523568XXXXXX2459       MS02WI09          NY 1 0 AMDJU3CYLX1230  N840000000005923          05DNHAPPY HIPPIE             317392    MD84000000005923 N  549976487158                            000000000+M10101C5434C    MDJ  00402                     000000000  N                0000000000000.00 0000000.00   0000000.00                             000000000000000                                                                                                                                                   B101418  000000000000 0000000000000.77     01050 01500                  
03058080682180046BH6759067590000000215480088880000090171230202236422000000000022248    0000090001703950N8008886759C01022023                                                                                                                                                                                                                                                                                                                                                                                                                                                                                                                                                                                                 
03058090682180047DT67590675900000002154800888800000010180088887287282364900017039500123020220000002224836422000000000022248517545XXXXXX1106       ME03KE06MS02      NY 4607AMDJR6LNOY1229  N840000000022248          81DNDRIP DROP DISTRO LLC     029614    MD84000000022248 N  519900000001   17182                    000000000+600450S00140    MDJ  10813                     000000000  1                0000000000000.00 0000000.00   0000000.00                             000000000000000                                                                                                                                                   U001418  000000000000 0000000000000.33     00050 02200                  
03058100682180048BH6759067590000000096880088880000090171230202236422000000000032948    0000090001154810N8008886759C01022023                                                                                                                                                                                                                                                                                                                                                                                                                                                                                                                                                                                                 
03058110682180049DT67590675900000000968800888800000010180088824001192364900011562357123020220000000963036422000000000032948426207XXXXXX3334               2111111   NYV4 A7W382364532420099N8400000000096305LNC00    01DNHIGHER FLOUR LLC         94723F    VD84000000009630 NP1546271004114   RFGVX3YUQSB2I76JDE3N     000000000+                F DF 00415                     000000000  N000000000       0000000000000.00 0000000.00   0000000.00                             000000000000000                                                                                                                                                     01418 G000000009630 0000000000001.74     01650 01500                  
03058120682180001P16759067590000000096880088880000001010000000000000000                             2000000000000000000000000              000000000000                    0000000000000000000000000                    000000000000                                                                                                                                                                                                                                                                                                                                                                                                                                                                                        
03058130682180050DT67590675900000000968800888800000010180088824001192364900011563421123020220000001213536422000000000032948435142XXXXXX4679               2111111   NYV4 A7W382364536206892N8400000000121358HDL00    01DNHIGHER FLOUR LLC         013533    VD84000000012135 NP1546271004114   RQZQCVSLAILFXFGEQ40M     000000000+                F DF 10420                     000000000  Y000000000 338   0000000000000.00 0000000.00   0000000.00                             000000000000000                                                                                                                                                     01418 G000000012135 0000000000000.28     00050 02200                  
03058140682180001P16759067590000000096880088880000001010000000000000000                             2000000000000000000000000              000000000000                    0000000000000000000000000                    000000000000                                                                                                                                                                                                                                                                                                                                                                                                                                                                                        
03058150682180051DT67590675900000000968800888800000010180088824001192364900011548109123020220000001118336422000000000032948414740XXXXXX6893               2111111   NYV4 A7W382364489393576N840000000011183WGHP00    01DNHIGHER FLOUR LLC         06191D    VS84000000011183 NP1546271004114   RNRAAYGFC3HPCTK7KLMX     000000000+                D CD 12109                     000000000  N000000000 498   0000000000000.00 0000000.00   0000000.00                             000000000000000                                                                                                                                                     01418 G000000011183 0000000000002.90     02500 01000                  
03058160682180001P16759067590000000096880088880000001010000000000000000                             2000000000000000000000000              000000000000                    0000000000000000000000000                    000000000000                                                                                                                                                                                                                                                                                                                                                                                                                                                                                        
