09551690156278250AD675906759000000176738001068000009071900017521990000002178907062023NYY18723ND6759800106070920232023187017209                                                                                                                                                                                                                                                                                                                                                                                                                                                                                                                                                                                              
09551700156278253AD675906759000000198288001098000009071900013469280000000327407062023NYY18723ND6759800109070920232023187017210                                                                                                                                                                                                                                                                                                                                                                                                                                                                                                                                                                                              
09551710156278256AD675906759000000268498001258000009071900014245610000000600007062023NYY18723ND6759800125070920232023187017211                                                                                                                                                                                                                                                                                                                                                                                                                                                                                                                                                                                              
09551720156278259AD675906759000000142748001028000009071900010941140000002944507062023NYY18723ND6759800102070920232023187017212                                                                                                                                                                                                                                                                                                                                                                                                                                                                                                                                                                                              
09551730156278280AD675906759000000142748001028000009071900010335200000000697407062023NYY18723ND6759800102070920232023187019904                                                                                                                                                                                                                                                                                                                                                                                                                                                                                                                                                                                              
09551740156278283AD675906759000000142748001028000009071900010335190000001089807062023NYY18723ND6759800102070920232023187019905                                                                                                                                                                                                                                                                                                                                                                                                                                                                                                                                                                                              
09551750156278286AD675906759000000142748001028000009071900010335180000002458007062023NYY18723ND6759800102070920232023187019906                                                                                                                                                                                                                                                                                                                                                                                                                                                                                                                                                                                              
09551760156278292AD675906759000000151648008888000009077900014164270000001499007062023NYY18723YC6759800888070920232023160024950                                                                                                                                                                                                                                                                                                                                                                                                                                                                                                                                                                                              
09551770157919201BH6759067590000002684980012580000090170707202318823000000000000915    0000090001858073N8001256759D07092023085                                                                                                                                                                                                                                                                                                                                                                                                                                                                                                                                                                                              
09551780157919202DT67590675900000026849800125800000010180012524001193188900018580164070520230000001977018823000000000000915465902XXXXXX1023               2111111   YYV4 07W463183544540613N840000000019770NC3200    01DNCBD8885133385            061734    VD84000000019770FNDR599978220273   1199EE02A0TFFE58CE2C625  000000000+                F DF 00012                     000000000  N000000000       0000000000000.00 0000000.0000 0000001.98D                            000000000000000                                                                                                                                                     015WPEG000000019770 0000000000003.16     01600 00000                  
09551790157919202DR6759067590000002684980012580000001011199EE02A0TFFE58CE2C625  N000000019770                 P1                                                                                                                                                                                                                                                                                                                                                                                                                                                                                                                                                                                                            
09551800157910001P16759067590000002684980012580000001010000000000000000                             2000000000000000000000000              000000000000                    0000000000000000000000000                    000000000000                                                                                                                                                                                                                                                                                                                                                                                                                                                                                        
09551810157910002G2675906759000000268498001258000000101888-5133385              WY           9 D                00                                      NNNN   N                      000000000000                                                                   78220273                                                                                                                                                                                                                                                                                                                                                                                                                                               
09551820157919203DT67590675900000026849800125800000010680012587287283188900018580702070620230000001080018823000000000000915524366XXXXXX8446                         YY 4607AMPLUEHW9L0706  N840000000010800          81CNCBD8885133385            006389    MC84000000010800 NDR599978220273   10D9965680T68269A13802F  000000000+600450S00130    MPL  00564                     000000000  N                0000000000000.00 0000000.00   0000000.00                             000000000000000                                                                                                                                                     015WPE 000000000000-0000000000001.89     01750 00000                  
09551830157919203DR67590675900000026849800125800000010610D9965680T68269A13802F  R000000000000                                                                                                                                                                                                                                                                                                                                                                                                                                                                                                                                                                                                                               
09551840157910001G26759067590000002684980012580000001068885133385               WY           9 L               210                                      NNNN           210000000000000000000000000                        7                                          78220273                                                                                                                                                                                                                                                                                                                                                                                                                                               
09551850157919204DT67590675900000026849800125800000010680012574001193188900018580730070620230000000988518823000000000000915426684XXXXXX0408               0000000   YYV4 07T303187705058560N8400000000098854HMP00    01CNCBD8885133385            05169A    VS84000000009885 NDR599978220273   0CA630F68CT495B6BEB9D11  000000000+                A CA 00245                     000000000  N000000000 166   0000000000000.00 0000000.00   0000000.00                             000000000000000                                                                                                                                                     015WPE 000000009885-0000000000001.74     01760 00000                  
09551860157919204DR6759067590000002684980012580000001060CA630F68CT495B6BEB9D11  Y000000009885                 P1                                                                                                                                                                                                                                                                                                                                                                                                                                                                                                                                                                                                            
09551870157910001P16759067590000002684980012580000001060000000000000000                             2000000000000000000000000              000000000000                    0000000000000000000000000                    000000000000                                                                                                                                                                                                                                                                                                                                                                                                                                                                                        
09551880157910002G2675906759000000268498001258000000106888-5133385              WY           9 C                00                                      NNNN   Y                      000000000000                                                                   78220273                                                                                                                                                                                                                                                                                                                                                                                                                                               
09551890158630002BH6759067590000003284780013580000090170707202318823000000000035506    0000090001180017N8001356759C07092023018                                                                                                                                                                                                                                                                                                                                                                                                                                                                                                                                                                                              
09551900158630003DT67590675900000032847800135800000010180013524001193188900011800122070620230000000086518823000000000035506421783XXXXXX7996       VK04VS111111111   NYV1 A E583188031759651N840000000000865W6H200    05DNDAYDREAMS SMOKE WORLD LLC094482    VS84000000000865 N  599378639041                            000000000+                A CA 12110                     000000000  N000000000 493   0000000000000.00 0000000.00   0000000.00                             000000000000000                                                                                                                                                     01418 F000000000000 0000000000000.23     01510 01000                  
09551910158630001E167590675900000032847800135800000010100E0F8C801ED 00000000000.004040404040404040404040404040404040404040404040404006011203A0A000000000000000000000404040404040404040404040404040  0000084018008000008000230706DB8BB5A53B160581604452D7404040400840A00000000310100000000000000000001A3A85B60080000000000000000000004040405E40404040 000000008.65 000000000.005E00000000000000000000    80                                                                                                                                                                                                                                                                                                                  
09551920158630002G2675906759000000328478001358000000101MCALLEN                  TX           5 C                00                                      NNNN00 N 00                   000000000000                                                                   78639041                                                                                                                                                                                                                                                                                                                                                                                                                                               
09551930158630004DT67590675900000032847800135800000010180013577287283188900011800157070620230000000097218823000000000035506517805XXXXXX7613       MS02WI09          NY 1 0 AMWEADSVVK0706  N840000000000972          07DNDAYDREAMS SMOKE WORLD LLC09160P    MC84000000000972 N  599378639041                            000000000+M10101M0034C    MWE  00739                     000000000  N                0000000000000.00 0000000.00   0000000.00                             000000000000000                                                                                                                                                   B101418  000000000000 0000000000000.32     02300 01000                  
09551940158630001E167590675900000032847800135800000010100E008C8002F 00000000000.00404040404040404040404040404040404040404040404040400110A04001220000000000000000000000FF00000000000000000000000000  0002084019800000008001230706A237512BFA641E2405919648404040400840A0000000041010000000000000000000404040404040404040404040404040404040401F40404040 000000009.72 000000000.001F03020000000000000000    80                                                                                                                                                                                                                                                                                                                  
09551950158630002G2675906759000000328478001358000000101MCALLEN                  TX           5 E                                                        NNNN              000000000000000000000000       00               7                                          78639041                                                                                                                                                                                                                                                                                                                                                                                                                                               
09551960158630005DT67590675900000032847800135800000033080013576759003188900011800010070620230000000205618823000000000035506473702XXXXXX9098                         NY 2 0 N               N840000000002056      IL  05DNDAYDREAMS SMOKE WORLD LLC071726    DB84000000002056 N  599378639041                            000000000+                     09580                                Y          342   0000000000000.00 0000000.00   0000000.00                             000000000000000                                                                                                                                                     01418  000000000000 0000000000000.23     00050 00000                  
09551970158630001G2675906759000000328478001358000000330MCALLEN                  TX           5 D                00                                      NNNN                          000000000000                                                                   78639041                                                                                                                                                                                                                                                                                                                                                                                                                                               
09551980158630006DT67590675900000032847800135800000033080013576759003188900011800028070620230000000227118823000000000035506434258XXXXXX1249                         NY 2 0 N               N840000000002271      IL  05DNDAYDREAMS SMOKE WORLD LLC074575    DB84000000002271 N  599378639041                            000000000+                     09580                                Y          342   0000000000000.00 0000000.00   0000000.00                             000000000000000                                                                                                                                                     01418  000000000000 0000000000000.23     00050 00000                  
09551990158630001G2675906759000000328478001358000000330MCALLEN                  TX           5 D                00                                      NNNN                          000000000000                                                                   78639041                                                                                                                                                                                                                                                                                                                                                                                                                                               
09552000158630007DT67590675900000032847800135800000033080013576759003188900011800036070620230000000142418823000000000035506467010XXXXXX7256                         NY 2 0 N               N840000000001424      IL  05DNDAYDREAMS SMOKE WORLD LLC275850    DB84000000001424 N  599378639041                            000000000+                     09580                                Y          342   0000000000000.00 0000000.00   0000000.00                             000000000000000                                                                                                                                                     01418  000000000000 0000000000000.23     00050 00000                  
09552010158630001G2675906759000000328478001358000000330MCALLEN                  TX           5 D                00                                      NNNN                          000000000000                                                                   78639041                                                                                                                                                                                                                                                                                                                                                                                                                                               
09552020158630008DT67590675900000032847800135800000033080013576759003188900011800044070620230000000108118823000000000035506440393XXXXXX1895                         NY 2 0 N               N840000000001081      IL  05DNDAYDREAMS SMOKE WORLD LLC514141    DB84000000001081 N  599378639041                            000000000+                     09576                                N          346   0000000000000.00 0000000.00   0000000.00                             000000000000000                                                                                                                                                     01418  000000000000 0000000000000.27     01150 00000                  
09552030158630001G2675906759000000328478001358000000330MCALLEN                  TX           5 P                00                                      NNNN                          000000000000                                                                   78639041                                                                                                                                                                                                                                                                                                                                                                                                                                               
09552040158630009DT67590675900000032847800135800000033080013576759003188900011800051070620230000000541118823000000000035506478662XXXXXX9443                         NY 2 0 N               N840000000005411      IL  05DNDAYDREAMS SMOKE WORLD LLC969034    DB84000000005411 N  599378639041                            000000000+                     09590                                N          279   0000000000000.00 0000000.00   0000000.00                             000000000000000                                                                                                                                                     01418  000000000000 0000000000000.58     00800 00000                  
09552050158630001G2675906759000000328478001358000000330MCALLEN                  TX           5 D                00                                      NNNN                          000000000000                                                                   78639041                                                                                                                                                                                                                                                                                                                                                                                                                                               
09552060158630010DT67590675900000032847800135800000033080013576759003188900011800069070620230000000108118823000000000035506440393XXXXXX0988                         NY 2 0 N               N840000000001081      IL  05DNDAYDREAMS SMOKE WORLD LLC098700    DB84000000001081 N  599378639041                            000000000+                     09576                                N          346   0000000000000.00 0000000.00   0000000.00                             000000000000000                                                                                                                                                     01418  000000000000 0000000000000.27     01150 00000                  
09552070158630001G2675906759000000328478001358000000330MCALLEN                  TX           5 P                00                                      NNNN                          000000000000                                                                   78639041                                                                                                                                                                                                                                                                                                                                                                                                                                               
09552080158630011DT67590675900000032847800135800000033080013576759003188900011800077070620230000000086518823000000000035506440393XXXXXX5331                         NY 2 0 N               N840000000000865      IL  05DNDAYDREAMS SMOKE WORLD LLC394218    DB84000000000865 N  599378639041                            000000000+                     09576                                N          346   0000000000000.00 0000000.00   0000000.00                             000000000000000                                                                                                                                                     01418  000000000000 0000000000000.25     01150 00000                  
09552090158630001G2675906759000000328478001358000000330MCALLEN                  TX           5 P                00                                      NNNN                          000000000000                                                                   78639041                                                                                                                                                                                                                                                                                                                                                                                                                                               
09552100158630012DT67590675900000032847800135800000033080013576759003188900011800085070620230000000108118823000000000035506414446XXXXXX3296                         NY 2 0 N               N840000000001081      IL  05DNDAYDREAMS SMOKE WORLD LLC932529    DB84000000001081 N  599378639041                            000000000+                     09590                                N          279   0000000000000.00 0000000.00   0000000.00                             000000000000000                                                                                                                                                     01418  000000000000 0000000000000.24     00800 00000                  
09552110158630001G2675906759000000328478001358000000330MCALLEN                  TX           5 D                00                                      NNNN                          000000000000                                                                   78639041                                                                                                                                                                                                                                                                                                                                                                                                                                               
09552120158630013DT67590675900000032847800135800000033080013576759003188900011800093070620230000000476118823000000000035506442756XXXXXX2293                         NY 2 0 N               N840000000004761      IL  05DNDAYDREAMS SMOKE WORLD LLC011119    DB84000000004761 N  599378639041                            000000000+                     09580                                Y          342   0000000000000.00 0000000.00   0000000.00                             000000000000000                                                                                                                                                     01418  000000000000 0000000000000.24     00050 00000                  
09552130158630001G2675906759000000328478001358000000330MCALLEN                  TX           5 D                00                                      NNNN                          000000000000                                                                   78639041                                                                                                                                                                                                                                                                                                                                                                                                                                               
09552140158630014DT67590675900000032847800135800000033080013576759003188900011800101070620230000000270518823000000000035506440393XXXXXX3818                         NY 2 0 N               N840000000002705      IL  05DNDAYDREAMS SMOKE WORLD LLC829903    DB84000000002705 N  599378639041                            000000000+                     09576                                N          346   0000000000000.00 0000000.00   0000000.00                             000000000000000                                                                                                                                                     01418  000000000000 0000000000000.46     01150 00000                  
09552150158630001G2675906759000000328478001358000000330MCALLEN                  TX           5 P                00                                      NNNN                          000000000000                                                                   78639041                                                                                                                                                                                                                                                                                                                                                                                                                                               
09552160158630015DT67590675900000032847800135800000033080013576759003188900011800119070620230000000009918823000000000035506440393XXXXXX8241                         NY 2 0 N               N840000000000099      IL  05DNDAYDREAMS SMOKE WORLD LLC039408    DB84000000000099 N  599378639041                            000000000+                     09576                                N          346   0000000000000.00 0000000.00   0000000.00                             000000000000000                                                                                                                                                     01418  000000000000 0000000000000.16     01150 00000                  
09552170158630001G2675906759000000328478001358000000330MCALLEN                  TX           5 P                00                                      NNNN                          000000000000                                                                   78639041                                                                                                                                                                                                                                                                                                                                                                                                                                               
09552180158630016DT67590675900000032847800135800000033080013576759003188900011800135070620230000000324618823000000000035506434769XXXXXX7926                         NY 2 0 N               N840000000003246      IL  05DNDAYDREAMS SMOKE WORLD LLC083622    DB84000000003246 N  599378639041                            000000000+                     09580                                Y          342   0000000000000.00 0000000.00   0000000.00                             000000000000000                                                                                                                                                     01418  000000000000 0000000000000.24     00050 00000                  
09552190158630001G2675906759000000328478001358000000330MCALLEN                  TX           5 D                00                                      NNNN                          000000000000                                                                   78639041                                                                                                                                                                                                                                                                                                                                                                                                                                               
09552200158630017DT67590675900000032847800135800000033080013576759003188900011800143070620230000000367718823000000000035506493800XXXXXX5276                         NY 2 0 N               N840000000003677      IL  07DNDAYDREAMS SMOKE WORLD LLC075422    DB84000000003677 N  599378639041                            000000000+                     09580                                Y          342   0000000000000.00 0000000.00   0000000.00                             000000000000000                                                                                                                                                     01418  000000000000 0000000000000.24     00050 00000                  
09552210158630001G2675906759000000328478001358000000330MCALLEN                  TX           5 D                00                                      NNNN                          000000000000                                                                   78639041                                                                                                                                                                                                                                                                                                                                                                                                                                               
09552220158630018DT67590675900000032847800135800000033080013576759003188900011800168070620230000000142418823000000000035506440393XXXXXX6035                         NY 2 0 N               N840000000001424      IL  05DNDAYDREAMS SMOKE WORLD LLC126285    DB84000000001424 N  599378639041                            000000000+                     09576                                N          346   0000000000000.00 0000000.00   0000000.00                             000000000000000                                                                                                                                                     01418  000000000000 0000000000000.31     01150 00000                  
09552230158630001G2675906759000000328478001358000000330MCALLEN                  TX           5 P                00                                      NNNN                          000000000000                                                                   78639041                                                                                                                                                                                                                                                                                                                                                                                                                                               
09552240158630019DT67590675900000032847800135800000033080013576759003188900011800176070620230000000248718823000000000035506517279XXXXXX8569                         NY42 0 N               N840000000002487      ME  05DNDAYDREAMS SMOKE WORLD LLC633149    DB84000000002487 N  599378639041                            000000000+                     09597                                N                0000000000000.00 0000000.00   0000000.00                             000000000000000                                                                                                                                                     01418  000000000000 0000000000000.37     00900 00000                  
09552250158630001G2675906759000000328478001358000000330MCALLEN                  TX           5 D                00                                      NNNN                          000000000000                                                                   78639041                                                                                                                                                                                                                                                                                                                                                                                                                                               
09552260158630020BH6759067590000003284780013580000090170707202318823000000000015766    0000090001460010N8001356759C07092023046                                                                                                                                                                                                                                                                                                                                                                                                                                                                                                                                                                                              
09552270158630021DT67590675900000032847800135800000033080013576759003188900014600011070620230000000108118823000000000015766559915XXXXXX5393                         NY41 0 N               N840000000001081      ME  07DNDAYDREAMS SMOKE WORLD LLC134126    DB84000000001081 N  599378480415                            000000000+                     09601                                1          MA1   0000000000000.00 0000000.00   0000000.00                             000000000000000                                                                                                                                                     01418  000000000000 0000000000000.23     00050 00000                  
09552280158630001G2675906759000000328478001358000000330MCALLEN                  TX           5 D                00                                      NNNN                          000000000000                                                                   78480415                                                                                                                                                                                                                                                                                                                                                                                                                                               
09552290158630022DT67590675900000032847800135800000033080013576759003188900014600029070620230000000024418823000000000015766542543XXXXXX2448                         NY 2 0 N               N840000000000244      IL  05DNDAYDREAMS SMOKE WORLD LLC036095    DB84000000000244 N  599378480415                            000000000+                     09573                                N          121   0000000000000.00 0000000.00   0000000.00                             000000000000000                                                                                                                                                     01418  000000000000 0000000000000.17     00800 00000                  
09552300158630001G2675906759000000328478001358000000330MCALLEN                  TX           5                  00                                      NNNN                          000000000000                                                                   78480415                                                                                                                                                                                                                                                                                                                                                                                                                                               
09552310158630023DT67590675900000032847800135800000033080013576759003188900014600037070620230000000378818823000000000015766444487XXXXXX2944                         NY 2 0 N               N840000000003788      IL  05DNDAYDREAMS SMOKE WORLD LLC750776    DB84000000003788 N  599378480415                            000000000+                     09590                                N          279   0000000000000.00 0000000.00   0000000.00                             000000000000000                                                                                                                                                     01418  000000000000 0000000000000.45     00800 00000                  
09552320158630001G2675906759000000328478001358000000330MCALLEN                  TX           5 D                00                                      NNNN                          000000000000                                                                   78480415                                                                                                                                                                                                                                                                                                                                                                                                                                               
09552330158630024DT67590675900000032847800135800000033080013576759003188900014600045070620230000000008618823000000000015766440393XXXXXX8134                         NY 2 0 N               N840000000000086      IL  05DNDAYDREAMS SMOKE WORLD LLC679288    DB84000000000086 N  599378480415                            000000000+                     09576                                N          346   0000000000000.00 0000000.00   0000000.00                             000000000000000                                                                                                                                                     01418  000000000000 0000000000000.16     01150 00000                  
09552340158630001G2675906759000000328478001358000000330MCALLEN                  TX           5 P                00                                      NNNN                          000000000000                                                                   78480415                                                                                                                                                                                                                                                                                                                                                                                                                                               
09552350158630025DT67590675900000032847800135800000033080013576759003188900014600052070620230000000243518823000000000015766467010XXXXXX5987                         NY 2 0 N               N840000000002435      IL  07DNDAYDREAMS SMOKE WORLD LLC042819    DB84000000002435 N  599378480415                            000000000+                     09580                                Y          342   0000000000000.00 0000000.00   0000000.00                             000000000000000                                                                                                                                                     01418  000000000000 0000000000000.23     00050 00000                  
09552360158630001G2675906759000000328478001358000000330MCALLEN                  TX           5 D                00                                      NNNN                          000000000000                                                                   78480415                                                                                                                                                                                                                                                                                                                                                                                                                                               
09552370158630026DT67590675900000032847800135800000033080013576759003188900014600060070620230000000270518823000000000015766461046XXXXXX9461                         NY 2 0 N               N840000000002705      IL  05DNDAYDREAMS SMOKE WORLD LLC091022    DB84000000002705 N  599378480415                            000000000+                     09580                                Y          342   0000000000000.00 0000000.00   0000000.00                             000000000000000                                                                                                                                                     01418  000000000000 0000000000000.23     00050 00000                  
09552380158630001G2675906759000000328478001358000000330MCALLEN                  TX           5 D                00                                      NNNN                          000000000000                                                                   78480415                                                                                                                                                                                                                                                                                                                                                                                                                                               
09552390158630027DT67590675900000032847800135800000033080013576759003188900014600078070620230000000054018823000000000015766440393XXXXXX1192                         NY 2 0 N               N840000000000540      IL  05DNDAYDREAMS SMOKE WORLD LLC895547    DB84000000000540 N  599378480415                            000000000+                     09576                                N          346   0000000000000.00 0000000.00   0000000.00                             000000000000000                                                                                                                                                     01418  000000000000 0000000000000.21     01150 00000                  
09552400158630001G2675906759000000328478001358000000330MCALLEN                  TX           5 P                00                                      NNNN                          000000000000                                                                   78480415                                                                                                                                                                                                                                                                                                                                                                                                                                               
09552410158630028DT67590675900000032847800135800000033080013576759003188900014600086070620230000000086518823000000000015766474472XXXXXX1106                         NY 2 0 N               N840000000000865      IL  07DNDAYDREAMS SMOKE WORLD LLC133302    DB84000000000865 N  599378480415                            000000000+                     09580                                Y          342   0000000000000.00 0000000.00   0000000.00                             000000000000000                                                                                                                                                     01418  000000000000 0000000000000.22     00050 00000                  
09552420158630001G2675906759000000328478001358000000330MCALLEN                  TX           5 D                00                                      NNNN                          000000000000                                                                   78480415                                                                                                                                                                                                                                                                                                                                                                                                                                               
09552430158630029DT67590675900000032847800135800000033080013576759003188900014600094070620230000000294218823000000000015766434258XXXXXX7036                         NY 2 0 N               N840000000002942      IL  05DNDAYDREAMS SMOKE WORLD LLC041776    DB84000000002942 N  599378480415                            000000000+                     09580                                Y          342   0000000000000.00 0000000.00   0000000.00                             000000000000000                                                                                                                                                     01418  000000000000 0000000000000.23     00050 00000                  
09552440158630001G2675906759000000328478001358000000330MCALLEN                  TX           5 D                00                                      NNNN                          000000000000                                                                   78480415                                                                                                                                                                                                                                                                                                                                                                                                                                               
09552450158630030DT67590675900000032847800135800000033080013576759003188900014600102070720230000000108018823000000000015766467010XXXXXX1025                         NY 2 0 N               N840000000001080      IL  05DNDAYDREAMS SMOKE WORLD LLC524846    DB84000000001080 N  599378480415                            000000000+                     09580                                Y          342   0000000000000.00 0000000.00   0000000.00                             000000000000000                                                                                                                                                     01418  000000000000 0000000000000.23     00050 00000                  
09552460158630001G2675906759000000328478001358000000330MCALLEN                  TX           5 D                00                                      NNNN                          000000000000                                                                   78480415                                                                                                                                                                                                                                                                                                                                                                                                                                               
09552470158630031BH6759067590000003284780013580000090170707202318823000000000043240    0000090001180014N8001356759C07092023018                                                                                                                                                                                                                                                                                                                                                                                                                                                                                                                                                                                              
09552480158630032DT67590675900000032847800135800000010180013524001193188900011800015070620230000000476118823000000000043240434258XXXXXX1312       VS11    0001111   NYV1 A E303187563887230N8400000000047614NKN00    05DNDAYDREAMS SMOKE WORLD LLC027886    VD84000000004761 N  599378639007                            000000000+                F DF 10433                     000000000  Y000000000 338   0000000000000.00 0000000.00   0000000.00                             000000000000000                                                                                                                                                     01418 A000000000000 0000000000000.24     00050 02200                  
09552490158630001E167590675900000032847800135800000010100E0F8C80100 00000000000.004040404040404040404040404040404040404040404040404006061203A0A000000000000000000000404040404040404040404040404040  00000840180080000080002307062536CF8E21ADAEE821E481D2404040400840A000000003101000000000000000000010F0C0705060804020200000000000004040405E40404040 000000047.61 000000000.005E00000000000000000000    80                                                                                                                                                                                                                                                                                                                  
09552500158630002G2675906759000000328478001358000000101MCALLEN                  TX           5 D                00                                      NNNN00 N 00                   000000000000                                                                   78639007                                                                                                                                                                                                                                                                                                                                                                                                                                               
09552510158630033DT67590675900000032847800135800000010180013524001193188900011800080070620230000000010718823000000000043240467010XXXXXX7412       VK04VS111111111   NYV1 A E463188051948454N840000000000107FCZD00    05DNDAYDREAMS SMOKE WORLD LLC569024    VD84000000000107 N  599378639007                            000000000+                F DF 10439                     000000000  Y000000000 331   0000000000000.00 0000000.00   0000000.00                             000000000000000                                                                                                                                                     01418 F000000000000 0000000000000.22     00050 02200                  
09552520158630001E167590675900000032847800135800000010100E0F8C80126 00000000000.004040404040404040404040404040404040404040404040404006011203A00000000000000000000000404040404040404040404040404040  000008401800800000800023070659EDD3E5D8ABB94F20418776404040400840A0000000031010000000000000000000F50B0858ED9E543630300000000000004040405E40404040 000000001.07 000000000.005E00000000000000000000    80                                                                                                                                                                                                                                                                                                                  
09552530158630002G2675906759000000328478001358000000101MCALLEN                  TX           5 D                00                                      NNNN00 N 00                   000000000000                                                                   78639007                                                                                                                                                                                                                                                                                                                                                                                                                                               
09552540158630034DT67590675900000032847800135800000010180013524001193188900011800098070620230000000118918823000000000043240414740XXXXXX6588       VK04VS111111111   NYV1 A E303188058360751N8400000000011893HVT00    05DNDAYDREAMS SMOKE WORLD LLC01495D    VS84000000001189 N  599378639007                            000000000+                D CD 12113                     000000000  N000000000 499   0000000000000.00 0000000.00   0000000.00                             000000000000000                                                                                                                                                     01418 F000000000000 0000000000000.35     02100 01000                  
09552550158630001E167590675900000032847800135800000010100E0F8C807B3 00000000000.004040404040404040404040404040404040404040404040404006021203A0A006000000000000000000404040404040404040404040404040  000108403800000000800023070686979572DE372F8A5BEAA9B5404040400840A000000003101000000000000000000080A467DE0082000000000000000000004040405E40404040 000000011.89 000000000.005E00000000000000000000    80                                                                                                                                                                                                                                                                                                                  
09552560158630002G2675906759000000328478001358000000101MCALLEN                  TX           5 C                00                                      NNNN00 Y 00                   000000000000                                                                   78639007                                                                                                                                                                                                                                                                                                                                                                                                                                               
09552570158630035DT67590675900000032847800135800000010180013524001193188900011800122070620230000000043018823000000000043240408138XXXXXX9421       VK04VS111111111   NYV1 A E383188133139011N840000000000430NDVV00    07DNDAYDREAMS SMOKE WORLD LLC608935    VD84000000000430 N  599378639007                            000000000+                F PF 08165                     000000000  N000000000       0000000000000.00 0000000.00   0000000.00                             000000000000000                                                                                                                                                     01418 F000000000000 0000000000000.12     01600 00500                  
09552580158630001E167590675900000032847800135800000010100404040003A 00000000000.00404040404040404040404040404040404040404040404040401F42FF32A00000000010030273000000004000000000000000000000000000  00000840006000000000002307066290B521A4D8B0D92128C06B404040400840A00000000310100000000000000000007430F3CE0086000000000000000000004040404040404040 000000004.30 000000000.004040400000000000000000    80                                                                                                                                                                                                                                                                                                                  
09552590158630002G2675906759000000328478001358000000101MCALLEN                  TX           5 P                00                                      NNNN00 N 00                   000000000000                                                                   78639007                                                                                                                                                                                                                                                                                                                                                                                                                                               
09552600158630036DT67590675900000032847800135800000010180013524001193188900011800130070620230000000357018823000000000043240441707XXXXXX8603       VS11    0001111   NYV1 A E303188144972380N8400000000035707RBV00    07DNDAYDREAMS SMOKE WORLD LLC100465    VD84000000003570 N  599378639007                            000000000+                F PF 08170                     000000000  N000000000       0000000000000.00 0000000.00   0000000.00                             000000000000000                                                                                                                                                     01418 A000000000000 0000000000000.56     01150 01500                  
09552610158630001E1675906759000000328478001358000000101004040400028 00000000000.00404040404040404040404040404040404040404040404040401F42FF32A00000000010030273000000004000000000000000000000000000  0000084000600000000000230707E6BDE036442DE29946FAE056404040400840A0000000031010000000000000000000521D4CE50086000000000000000000004040404040404040 000000035.70 000000000.004040400000000000000000    80                                                                                                                                                                                                                                                                                                                  
09552620158630002G2675906759000000328478001358000000101MCALLEN                  TX           5 P                00                                      NNNN00 N 00                   000000000000                                                                   78639007                                                                                                                                                                                                                                                                                                                                                                                                                                               
09552630158630037DT67590675900000032847800135800000010180013577287283188900011800157070720230000000091918823000000000043240520416XXXXXX6297                         NY 1 0 AMDS1KODGR0707  N840000000000919          05DNDAYDREAMS SMOKE WORLD LLC082243    MD84000000000919FN  599378639007                            000000000+M10101C1134C    MDS  12229                     0000000061 N                0000000000000.00 0000000.00   0000000.00                             000000000000000                                                                                                                                                     01418  000000000000 0000000000000.10     01100 00000                  
09552640158630001E167590675900000032847800135800000010100E0F8C8000D 00000000000.00404040404040404040404040404040404040404040404040400310A74005040000000000000000000000FF00000000000000000000000000  0001084039000000008000230707FCFCE445B6C012F82DAB0815404040400840A00000000410100000000000000000001BB81C01E19AAD7100100000000000004040404440404040 000000009.19 000000000.004403020000000000000000    80                                                                                                                                                                                                                                                                                                                  
09552650158630002G2675906759000000328478001358000000101MCALLEN                  TX           5 S                                                        NNNN              000000000000000000000000                                                                   78639007                                                                                                                                                                                                                                                                                                                                                                                                                                               
09552660158630038DT67590675900000032847800135800000033080013576759003188900011800028070620230000000714218823000000000043240467001XXXXXX9012                         NY 2 0 N               N840000000007142      IL  05DNDAYDREAMS SMOKE WORLD LLC621996    DB84000000007142 N  599378639007                            000000000+                     09580                                Y          342   0000000000000.00 0000000.00   0000000.00                             000000000000000                                                                                                                                                     01418  000000000000 0000000000000.26     00050 00000                  
09552670158630001G2675906759000000328478001358000000330MCALLEN                  TX           5 D                00                                      NNNN                          000000000000                                                                   78639007                                                                                                                                                                                                                                                                                                                                                                                                                                               
09552680158630039DT67590675900000032847800135800000033080013576759003188900011800036070620230000000108118823000000000043240434258XXXXXX1981                         NY 2 0 N               N840000000001081      IL  05DNDAYDREAMS SMOKE WORLD LLC034807    DB84000000001081 N  599378639007                            000000000+                     09580                                Y          342   0000000000000.00 0000000.00   0000000.00                             000000000000000                                                                                                                                                     01418  000000000000 0000000000000.23     00050 00000                  
09552690158630001G2675906759000000328478001358000000330MCALLEN                  TX           5 D                00                                      NNNN                          000000000000                                                                   78639007                                                                                                                                                                                                                                                                                                                                                                                                                                               
09552700158630040DT67590675900000032847800135800000033080013576759003188900011800044070620230000000302918823000000000043240442756XXXXXX7614                         NY 2 0 N               N840000000003029      IL  05DNDAYDREAMS SMOKE WORLD LLC095914    DB84000000003029 N  599378639007                            000000000+                     09580                                Y          342   0000000000000.00 0000000.00   0000000.00                             000000000000000                                                                                                                                                     01418  000000000000 0000000000000.24     00050 00000                  
09552710158630001G2675906759000000328478001358000000330MCALLEN                  TX           5 D                00                                      NNNN                          000000000000                                                                   78639007                                                                                                                                                                                                                                                                                                                                                                                                                                               
09552720158630041DT67590675900000032847800135800000033080013576759003188900011800051070620230000000183918823000000000043240440393XXXXXX4223                         NY 2 0 N               N840000000001839      IL  05DNDAYDREAMS SMOKE WORLD LLC995361    DB84000000001839 N  599378639007                            000000000+                     09576                                N          346   0000000000000.00 0000000.00   0000000.00                             000000000000000                                                                                                                                                     01418  000000000000 0000000000000.36     01150 00000                  
09552730158630001G2675906759000000328478001358000000330MCALLEN                  TX           5 P                00                                      NNNN                          000000000000                                                                   78639007                                                                                                                                                                                                                                                                                                                                                                                                                                               
09552740158630042DT67590675900000032847800135800000033080013576759003188900011800069070620230000000099418823000000000043240511033XXXXXX8040                         NY42 0 N               N840000000000994      ME  05DNDAYDREAMS SMOKE WORLD LLC741434    DB84000000000994 N  599378639007                            000000000+                     09597                                N                0000000000000.00 0000000.00   0000000.00                             000000000000000                                                                                                                                                     01418  000000000000 0000000000000.24     00900 00000                  
09552750158630001G2675906759000000328478001358000000330MCALLEN                  TX           5 D                00                                      NNNN                          000000000000                                                                   78639007                                                                                                                                                                                                                                                                                                                                                                                                                                               
09552760158630043DT67590675900000032847800135800000033080013576759003188900011800077070620230000000270518823000000000043240467010XXXXXX1545                         NY 2 0 N               N840000000002705      IL  07DNDAYDREAMS SMOKE WORLD LLC571041    DB84000000002705 N  599378639007                            000000000+                     09580                                Y          342   0000000000000.00 0000000.00   0000000.00                             000000000000000                                                                                                                                                     01418  000000000000 0000000000000.23     00050 00000                  
09552770158630001G2675906759000000328478001358000000330MCALLEN                  TX           5 D                00                                      NNNN                          000000000000                                                                   78639007                                                                                                                                                                                                                                                                                                                                                                                                                                               
09552780158630044DT67590675900000032847800135800000033080013576759003188900011800101070620230000000974018823000000000043240517279XXXXXX3065                         NY42 0 N               N840000000009740      ME  05DNDAYDREAMS SMOKE WORLD LLC056176    DB84000000009740 N  599378639007                            000000000+                     09597                                N                0000000000000.00 0000000.00   0000000.00                             000000000000000                                                                                                                                                     01418  000000000000 0000000000001.03     00900 00000                  
09552790158630001G2675906759000000328478001358000000330MCALLEN                  TX           5 D                00                                      NNNN                          000000000000                                                                   78639007                                                                                                                                                                                                                                                                                                                                                                                                                                               
09552800158630045DT67590675900000032847800135800000033080013576759003188900011800119070620230000000541018823000000000043240443045XXXXXX5731                         NY 2 0 N               N840000000005410      IL  05DNDAYDREAMS SMOKE WORLD LLC296727    DB84000000005410 N  599378639007                            000000000+                     09580                                Y          342   0000000000000.00 0000000.00   0000000.00                             000000000000000                                                                                                                                                     01418  000000000000 0000000000000.25     00050 00000                  
09552810158630001G2675906759000000328478001358000000330MCALLEN                  TX           5 D                00                                      NNNN                          000000000000                                                                   78639007                                                                                                                                                                                                                                                                                                                                                                                                                                               
09552820158630046DT67590675900000032847800135800000033080013576759003188900011800143070720230000000032418823000000000043240423223XXXXXX9168                         NY 2 0 N               N840000000000324      IL  05DNDAYDREAMS SMOKE WORLD LLC027754    DB84000000000324 N  599378639007                            000000000+                     09573                                N          121   0000000000000.00 0000000.00   0000000.00                             000000000000000                                                                                                                                                     01418  000000000000 0000000000000.18     00800 00000                  
09552830158630001G2675906759000000328478001358000000330MCALLEN                  TX           5 D                00                                      NNNN                          000000000000                                                                   78639007                                                                                                                                                                                                                                                                                                                                                                                                                                               
09552840158630047BH6759067590000000288180088880000090170707202318823000000000063009    0000090001560011N8008886759C07092023156                                                                                                                                                                                                                                                                                                                                                                                                                                                                                                                                                                                              
09552850158630048DT67590675900000002881800888800000010180088877287283188900015600017070720230000001975318823000000000063009511953XXXXXX5690       MS02WI09          NY 1 0 AMDJKND3XF0707  N840000000019753          05DNHAPPY HIPPIE             013204    MD84000000019753 N  549976487134                            000000000+M10101C5434C    MDJ  00402                     000000000  N                0000000000000.00 0000000.00   0000000.00                             000000000000000                                                                                                                                                   B101418  000000000000 0000000000002.22     01050 01500                  
09552860158630001E167590675900000002881800888800000010100E0F8C800D1 00000000000.00404040404040404040404040404040404040404040404040400110A04001220000000000000000000000FF00000000000000000000000000  0001084039000000008000230707333637A045F440E005E29CC2404040400840A0000000041010000000000000000000639F019C893BB5EE031A0000000000004040401E40404040 000000197.53 000000000.001E03000000000000000000    80                                                                                                                                                                                                                                                                                                                  
09552870158630002G2675906759000000028818008888000000101SEVIERVILLE              TN           5 J                                                        NNNN              000000000000000000000000                        7                                          76487134                                                                                                                                                                                                                                                                                                                                                                                                                                               
09552880158630049DT67590675900000002881800888800000010180088824001193188900015600023070720230000000578818823000000000063009426690XXXXXX7518       VS11    0001111   NYV1 A E463188547560218N8400000000057884BNH00    05DNHAPPY HIPPIE             07088D    VS84000000005788 N  549976487134                            000000000+                D CD 12113                     000000000  N000000000 499   0000000000000.00 0000000.00   0000000.00                             000000000000000                                                                                                                                                     01418 A000000000000 0000000000001.32     02100 01000                  
09552890158630001E167590675900000002881800888800000010100E0F8C80839 00000000000.004040404040404040404040404040404040404040404040404006021203A02002000000000000000000404040404040404040404040404040  000208403800008000800023070785743BBF76F01E74BEE09C84404040400840A0000000031010000000000000000000578646DD0082000000000000000000004040401E40404040 000000057.88 000000000.001E00000000000000000000    80                                                                                                                                                                                                                                                                                                                  
09552900158630002G2675906759000000028818008888000000101SEVIERVILLE              TN           5 C                00                                      NNNN00 Y 00                   000000000000                                                                   76487134                                                                                                                                                                                                                                                                                                                                                                                                                                               
09552910158630050DT67590675900000002881800888800000010180088824001193188900015600031070720230000001271618823000000000063009440066XXXXXX9338       VS11    0001111   NYV1 A E583188551721063N840000000012716BNV800    05DNHAPPY HIPPIE             00906D    VS84000000012716 N  549976487134                            000000000+                D CD 12113                     000000000  N000000000 499   0000000000000.00 0000000.00   0000000.00                             000000000000000                                                                                                                                                     01418 A000000000000 0000000000002.77     02100 01000                  
09552920158630001E167590675900000002881800888800000010100E0F8C80089 00000000000.004040404040404040404040404040404040404040404040404006011203A02000000000000000000000404040404040404040404040404040  00020840180080800080002307079E3C3274AB89DF8C80BF1B8F404040400840A0000000031010000000000000000000560D62170082000000000000000000004040401E40404040 000000127.16 000000000.001E03000000000000000000    80                                                                                                                                                                                                                                                                                                                  
09552930158630002G2675906759000000028818008888000000101SEVIERVILLE              TN           5 C                00                                      NNNN00 Y 00                   000000000000                                                                   76487134                                                                                                                                                                                                                                                                                                                                                                                                                                               
09552940158630051DT67590675900000002881800888800000010180088824001193188900015600049070720230000000112418823000000000063009443264XXXXXX4743       VK04VS111111111   NYV1 A E303188557577475N840000000001124H98400    05DNHAPPY HIPPIE             015816    VD84000000001124 N  549976487134                            000000000+                F DF 10439                     000000000  Y000000000 331   0000000000000.00 0000000.00   0000000.00                             000000000000000                                                                                                                                                     01418 F000000000000 0000000000000.23     00050 02200                  
09552950158630001E167590675900000002881800888800000010100E0F8C800C8 00000000000.004040404040404040404040404040404040404040404040404006011203A08000000000000000000000404040404040404040404040404040  0000084018008080008000230707E525E075ADDCF78F094ADE73404040400840A00000000310100000000000000000002DDD01580080000000000000000000004040401E40404040 000000011.24 000000000.001E00000000000000000000    80                                                                                                                                                                                                                                                                                                                  
09552960158630002G2675906759000000028818008888000000101SEVIERVILLE              TN           5 D                00                                      NNNN00 N 00                   000000000000                                                                   76487134                                                                                                                                                                                                                                                                                                                                                                                                                                               
09552970158630052DT67590675900000002881800888800000010180088824001193188900015600056070720230000000788818823000000000063009430633XXXXXX2816       VS11    0001111   NYV1 A E383188563435724N840000000007888WHMQ00    05DNHAPPY HIPPIE             007991    VS84000000007888 N  549976487134                            000000000+                A CA 12110                     000000000  N000000000 493   0000000000000.00 0000000.00   0000000.00                             000000000000000                                                                                                                                                     01418 A000000000000 0000000000001.29     01510 01000                  
09552980158630001E167590675900000002881800888800000010100E0F8C803AE 00000000000.004040404040404040404040404040404040404040404040404006011203A02000000000000000000000404040404040404040404040404040  0001084018008080008000230707CE04F6B31F2CE76FCA7D9D13404040400840A000000003101000000000000000000087DE2FC90082000000000000000000004040401E40404040 000000078.88 000000000.001E00000000000000000000    80                                                                                                                                                                                                                                                                                                                  
09552990158630002G2675906759000000028818008888000000101SEVIERVILLE              TN           5 C                00                                      NNNN00 N 00                   000000000000                                                                   76487134                                                                                                                                                                                                                                                                                                                                                                                                                                               
09553000158630053DT67590675900000002881800888800000010180088877287283188900015600066070720230000000098618823000000000063009511953XXXXXX4424       MS02WI09          NY 1 0 AMDJOMWXXB0707  N840000000000986          05DNHAPPY HIPPIE             072669    MD84000000000986 N  549976487134                            000000000+M10101C5434C    MDJ  00505                     000000000  N                0000000000000.00 0000000.00   0000000.00                             000000000000000                                                                                                                                                   B101418  000000000000 0000000000000.19     01550 00400                  
09553010158630001E167590675900000002881800888800000010100E0F8C80096 00000000000.00404040404040404040404040404040404040404040404040400110A04001220000000000000000000000FF00000000000000000000000000  00000840390000000080002307078CBDA50D8B84649CE7234EAA404040400840A0000000041010000000000000000000EF3FC9B12CEF543C031A0000000000004040401E40404040 000000009.86 000000000.001E03000000000000000000    80                                                                                                                                                                                                                                                                                                                  
09553020158630002G2675906759000000028818008888000000101SEVIERVILLE              TN           5 J                                                        NNNN              000000000000000000000000                        7                                          76487134                                                                                                                                                                                                                                                                                                                                                                                                                                               
09553030158630054DT67590675900000002881800888800000010180088824001193188900015600072070720230000000416618823000000000063009400022XXXXXX4617       VS11    0001111   NYV1 A E303188575532346N840000000004166NZ2L00    05DNHAPPY HIPPIE             580221    VD84000000004166 N  549976487134                            000000000+                F DF 10433                     000000000  Y000000000 338   0000000000000.00 0000000.00   0000000.00                             000000000000000                                                                                                                                                     01418 A000000000000 0000000000000.24     00050 02200                  
09553040158630001E167590675900000002881800888800000010100E0F8C80070 00000000000.004040404040404040404040404040404040404040404040404006021203A02000000000000000000000404040404040404040404040404040  00000840180080800080002307078F43A600A075ECDBAB412049404040400840A0000000031010000000000000000000404040404040404040404040404040404040401E40404040 000000041.66 000000000.001E00000000000000000000    80                                                                                                                                                                                                                                                                                                                  
09553050158630002G2675906759000000028818008888000000101SEVIERVILLE              TN           5 D                00                                      NNNN00 N 00                   000000000000                                                                   76487134                                                                                                                                                                                                                                                                                                                                                                                                                                               
09553060158630055DT67590675900000002881800888800000010180088824001193188900015600080070720230000000148118823000000000063009445115XXXXXX7228       VK04VS111111111   NYV1 A E383188580787174N840000000001481ZFD200    05DNHAPPY HIPPIE             423316    VD84000000001481 N  549976487134                            000000000+                F DF 10439                     000000000  Y000000000 331   0000000000000.00 0000000.00   0000000.00                             000000000000000                                                                                                                                                     01418 F000000000000 0000000000000.23     00050 02200                  
09553070158630001E167590675900000002881800888800000010100E0F8C80389 00000000000.004040404040404040404040404040404040404040404040404006011203A08000000000000000000000404040404040404040404040404040  00010840180080800080002307070CF696DF53BDAFF03E1D915A404040400840A0000000031010000000000000000000B8912B0F0082000000000000000000004040401E40404040 000000014.81 000000000.001E00000000000000000000    80                                                                                                                                                                                                                                                                                                                  
09553080158630002G2675906759000000028818008888000000101SEVIERVILLE              TN           5 D                00                                      NNNN00 N 00                   000000000000                                                                   76487134                                                                                                                                                                                                                                                                                                                                                                                                                                               
09553090158630056DT67590675900000002881800888800000010180088824001193188900015600098070720230000000148118823000000000063009440393XXXXXX0112       VK04VS111111111   NYV1 A E463188640657447N840000000001481TFRQ00    07DNHAPPY HIPPIE             384176    VD84000000001481 N  549976487134                            000000000+                F PF 08165                     000000000  N000000000       0000000000000.00 0000000.00   0000000.00                             000000000000000                                                                                                                                                     01418 F000000000000 0000000000000.29     01600 00500                  
09553100158630001E167590675900000002881800888800000010100E068C8004F 00000000000.004040404040404040404040404040404040404040404040404006011203A00000000000000000000000404040404040404040404040404040  0000084020000000000000230707BEBE3EEF6DE2C60CA6C2F3BD404040400840A00000000310100000000000000000007E6BD19D7047C7EB30300000000000004040404040404040 000000014.81 000000000.004040400000000000000000    80                                                                                                                                                                                                                                                                                                                  
