02780060371260002BH6759067590000000288180088880000090171216202235022000000000000500    0000090001010001N8008886759C12182022                                                                                                                                                                                                                                                                                                                                                                                                                                                                                                                                                                                                 
02780070371260003DT67590675900000002881800888800000033080088876759002350900010100010121620220000000050035022000000000000500558158XXXXXX7298                         NY42 0 N               N840000000000500      ME  05DNHAPPY HIPPIE             2Q5XGR    DB84000000000500 N  549976487134                            000000000+                     09599                                N                0000000000000.00 0000000.00   0000000.00                             000000000000000                                                                                                                                                     01418  000000000000 0000000000000.21     00750 00000                  
02780080371260004BH675906759000000028818008888000009017121620223502200000000000050001680000090001010001N8008886759C12182022                                                                                                                                                                                                                                                                                                                                                                                                                                                                                                                                                                                                 
02780090371260005DT67590675900000002881800888800000033080088876759002350900010100010121620220000000050035022000000000000500558158XXXXXX7298                         NN42 0 N               N840000000000500      ME  05DNHAPPY HIPPIE             2OXFAF0168DB84000000000500 N  549976487158                            000000000+                     09599                                N                0000000000000.00 0000000.00   0000000.00             000000000000500D000000000000000                                                                                                                                                     01418  000000000000 0000000000000.21     00750 00000                  
