02225520456926933AD675906759000000133008001028000009077900012016620000002121103192023NYY07823YC6759800102032120232023076028407                                                                                                                                                                                                                                                                                                                                                                                                                                                                                                                                                                                              
02225530456926936AD675906759000000133008001028000009071900012626630000002106203192023NYY07823ND6759800102032120232023076019271                                                                                                                                                                                                                                                                                                                                                                                                                                                                                                                                                                                              
02225540456926939AD675906759000000151648008888000009071900011104090000001987003192023NYY07823ND6759800888032120232023076019272                                                                                                                                                                                                                                                                                                                                                                                                                                                                                                                                                                                              
02225550456926942AD675906759000000151648008888000009071900011104100000000654803192023NYY07823ND6759800888032120232023076019273                                                                                                                                                                                                                                                                                                                                                                                                                                                                                                                                                                                              
02225560456926945AD675906759000000133008001028000009071900011812990000002487003192023NYY07823ND6759800102032120232023076019274                                                                                                                                                                                                                                                                                                                                                                                                                                                                                                                                                                                              
02225570456926948AD675906759000000142748001028000009071900012115640000000149503192023NYY07823ND6759800102032120232023076019275                                                                                                                                                                                                                                                                                                                                                                                                                                                                                                                                                                                              
02225580456926951AD675906759000000133008001028000009071900012118390000000129503192023NYY07823ND6759800102032120232023076019276                                                                                                                                                                                                                                                                                                                                                                                                                                                                                                                                                                                              
02225590456926954AD675906759000000142748001028000009071900012622360000002451203192023NYY07823ND6759800102032120232023076019277                                                                                                                                                                                                                                                                                                                                                                                                                                                                                                                                                                                              
02225600456926957AD675906759000000142748001028000009071900012519840000001460303192023NYY07823ND6759800102032120232023076019278                                                                                                                                                                                                                                                                                                                                                                                                                                                                                                                                                                                              
02225610459340002BH6759067590000000288180088880000090170320202307923000000000132893    0000090001750032N8008886759C03212023                                                                                                                                                                                                                                                                                                                                                                                                                                                                                                                                                                                                 
02225620459340003DT67590675900000002881800888800000010180088824001193079900017500017032020230000000158007923000000000132893481852XXXXXX3515       VS11    0001111   NYV1 A E463079506608384N8400000000015804XK500    07DNHAPPY HIPPIE             070420    VD84000000001580 N  549976487158                            000000000+                F PF 08170                     000000000  N000000000       0000000000000.00 0000000.00   0000000.00                             000000000000000                                                                                                                                                     01418 A000000000000 0000000000000.33     01150 01500                  
02225630459340004DT67590675900000002881800888800000010180088824001193079900017500025032020230000000987807923000000000132893419090XXXXXX6158       VS11    0001111   NYV1 A E463079549599636N840000000009878XXB900    05DNHAPPY HIPPIE             548841    VD84000000009878 N  549976487158                            000000000+                F DF 00381                     000000000  N000000000       0000000000000.00 0000000.00   0000000.00                             000000000000000                                                                                                                                                     01418 A000000000000 0000000000000.94     00800 01500                  
02225640459340005DT67590675900000002881800888800000010180088877287283079900017500035032020230000001675807923000000000132893542418XXXXXX9587       MS02WI09          NY 1 0 AMPLF4J8R20320  N840000000016758          05DNHAPPY HIPPIE             94094B    MC84000000016758 N  549976487158                            000000000+M10101C5434C    MPL  00364                     000000000  N                0000000000000.00 0000000.00   0000000.00                             000000000000000                                                                                                                                                   B101418  000000000000 0000000000003.06     01800 00400                  
02225650459340006DT67590675900000002881800888800000010180088824001193079900017500041032020230000000493807923000000000132893440393XXXXXX1710       VS11    0001111   NYV1 A E383079556658212N840000000004938K9TJ00    07DNHAPPY HIPPIE             522898    VD84000000004938 N  549976487158                            000000000+                F PF 08170                     000000000  N000000000       0000000000000.00 0000000.00   0000000.00                             000000000000000                                                                                                                                                     01418 A000000000000 0000000000000.72     01150 01500                  
02225660459340007DT67590675900000002881800888800000010180088824001193079900017500058032020230000000548807923000000000132893413022XXXXXX5316       VS11    0001111   NYV1 A E583079574739579N840000000005488856M00    07DNHAPPY HIPPIE             808435    VD84000000005488 N  549976487158                            000000000+                F DF 00381                     000000000  N000000000       0000000000000.00 0000000.00   0000000.00                             000000000000000                                                                                                                                                     01418 A000000000000 0000000000000.59     00800 01500                  
02225670459340008DT67590675900000002881800888800000010180088824001193079900017500066032020230000000316107923000000000132893400022XXXXXX0750       VS11    0001111   NYV1 A E303079582776840N840000000003161XJ5200    07DNHAPPY HIPPIE             406158    VD84000000003161 N  549976487158                            000000000+                F DF 10433                     000000000  Y000000000 338   0000000000000.00 0000000.00   0000000.00                             000000000000000                                                                                                                                                     01418 A000000000000 0000000000000.24     00050 02200                  
02225680459340009DT67590675900000002881800888800000010180088824001193079900017500074032020230000001349707923000000000132893440066XXXXXX9005       VS11    0001111   NYV1 A E383079584706128N840000000013497L6D500    05DNHAPPY HIPPIE             00058D    VS84000000013497 N  549976487158                            000000000+                D CD 12113                     000000000  N000000000 499   0000000000000.00 0000000.00   0000000.00                             000000000000000                                                                                                                                                     01418 A000000000000 0000000000002.93     02100 01000                  
02225690459340010DT67590675900000002881800888800000010180088824001193079900017500082032020230000000148107923000000000132893419090XXXXXX1589       VK04VS111111111   NYV1 A E303079590341910N840000000001481XHCF00    05DNHAPPY HIPPIE             551113    VD84000000001481 N  549976487158                            000000000+                F DF 00451                     000000000  N000000000 214   0000000000000.00 0000000.00   0000000.00                             000000000000000                                                                                                                                                     01418 F000000000000 0000000000000.27     01550 00400                  
02225700459340011DT67590675900000002881800888800000010180088824001193079900017500090032020230000000407107923000000000132893410889XXXXXX3088       VS11    0001111   NYV1 A E303079598163753N840000000004071TWMC00    07DNHAPPY HIPPIE             545417    VS84000000004071 N  549976487158                            000000000+                B CB 12111                     000000000  N000000000 495   0000000000000.00 0000000.00   0000000.00                             000000000000000                                                                                                                                                     01418 A000000000000 0000000000000.77     01650 01000                  
02225710459340012DT67590675900000002881800888800000010180088824001193079900017500108032020230000000048307923000000000132893422921XXXXXX6466       VK04VS111111111   NYV1 A E583079601553695N840000000000483H8F700    07DNHAPPY HIPPIE             045756    VD84000000000483 N  549976487158                            000000000+                F DF 00451                     000000000  N000000000 214   0000000000000.00 0000000.00   0000000.00                             000000000000000                                                                                                                                                     01418 F000000000000 0000000000000.11     01550 00400                  
02225720459340013DT67590675900000002881800888800000010180088877287283079900017500118032020230000000987607923000000000132893517805XXXXXX0214       MS02WI09          NY 1 0 AMCWI7ZFR20320  N840000000009876          07DNHAPPY HIPPIE             06467P    MC84000000009876 N  549976487158                            000000000+M10101M5434C    MCW  00646                     000000000  N                0000000000000.00 0000000.00   0000000.00                             000000000000000                                                                                                                                                   B101418  000000000000 0000000000001.92     01900 00400                  
02225730459340014DT67590675900000002881800888800000010180088877287283079900017500126032020230000000444107923000000000132893552433XXXXXX2850       MS02WI09          NY 1 0 AMPLP149R10320  N840000000004441          07DNHAPPY HIPPIE             05945M    MC84000000004441 N  549976487158                            000000000+M10101M0034C    MPL  00364                     000000000  N                0000000000000.00 0000000.00   0000000.00                             000000000000000                                                                                                                                                   B101418  000000000000 0000000000000.84     01800 00400                  
02225740459340015DT67590675900000002881800888800000010180088824001193079900017500132032020230000000147907923000000000132893415978XXXXXX9683       VK04VS111111111   NYV1 A E303079631484329N840000000001479CG2400    05DNHAPPY HIPPIE             033434    VD84000000001479 N  549976487158                            000000000+                F DF 10439                     000000000  Y000000000 331   0000000000000.00 0000000.00   0000000.00                             000000000000000                                                                                                                                                     01418 F000000000000 0000000000000.23     00050 02200                  
02225750459340016DT67590675900000002881800888800000010180088824001193079900017500140032020230000000216607923000000000132893445101XXXXXX7687       VS11    0001111   NYV1 A E463079632498451N840000000002166JGDH00    05DNHAPPY HIPPIE             696170    VD84000000002166 N  549976487158                            000000000+                F DF 10433                     000000000  Y000000000 338   0000000000000.00 0000000.00   0000000.00                             000000000000000                                                                                                                                                     01418 A000000000000 0000000000000.23     00050 02200                  
02225760459340017DT67590675900000002881800888800000010180088824001193079900017500157032020230000000395007923000000000132893443238XXXXXX1211       VS11    0001111   NYV1 A E463079637453074N84000000000395032DV00    07DNHAPPY HIPPIE             034225    VD84000000003950 N  549976487158                            000000000+                F DF 00381                     000000000  N000000000       0000000000000.00 0000000.00   0000000.00                             000000000000000                                                                                                                                                     01418 A000000000000 0000000000000.47     00800 01500                  
02225770459340018DT67590675900000002881800888800000010180088824001193079900017500165032020230000000021807923000000000132893435546XXXXXX3123       VK04VS111111111   NYV1 A E383079672091271N8400000000002188SPR00    05DNHAPPY HIPPIE             077106    VD84000000000218 N  549976487158                            000000000+                F DF 10439                     000000000  Y000000000 331   0000000000000.00 0000000.00   0000000.00                             000000000000000                                                                                                                                                     01418 F000000000000 0000000000000.22     00050 02200                  
02225780459340019DT67590675900000002881800888800000010180088824001193079900017500173032020230000000098707923000000000132893422921XXXXXX5877       VK04VS111111111   NYV1 A E583079672968850N840000000000987C9K700    07DNHAPPY HIPPIE             052897    VD84000000000987 N  549976487158                            000000000+                F DF 00451                     000000000  N000000000 214   0000000000000.00 0000000.00   0000000.00                             000000000000000                                                                                                                                                     01418 F000000000000 0000000000000.19     01550 00400                  
02225790459340020DT67590675900000002881800888800000010180088824001193079900017500181032020230000000365207923000000000132893443264XXXXXX6098       VS11    0001111   NYV1 A E463079679837202N840000000003652HRVF00    07DNHAPPY HIPPIE             001661    VD84000000003652 N  549976487158                            000000000+                F DF 10433                     000000000  Y000000000 338   0000000000000.00 0000000.00   0000000.00                             000000000000000                                                                                                                                                     01418 A000000000000 0000000000000.24     00050 02200                  
02225800459340021DT67590675900000002881800888800000010180088824001193079900017500199032020230000000329107923000000000132893404227XXXXXX3237       VS11    0001111   NYV1 A E303079684921876N8400000000032913VT200    05DNHAPPY HIPPIE             921356    VD84000000003291 N  549976487158                            000000000+                F DF 00381                     000000000  N000000000       0000000000000.00 0000000.00   0000000.00                             000000000000000                                                                                                                                                     01418 A000000000000 0000000000000.41     00800 01500                  
02225810459340022DT67590675900000002881800888800000010180088824001193079900017500207032020230000000263407923000000000132893460246XXXXXX3725       VS11    0001111   NYV1 A E383079695284564N8400000000026342BCH00    05DNHAPPY HIPPIE             917936    VD84000000002634 N  549976487158                            000000000+                F DF 10433                     000000000  Y000000000 338   0000000000000.00 0000000.00   0000000.00                             000000000000000                                                                                                                                                     01418 A000000000000 0000000000000.23     00050 02200                  
02225820459340023DT67590675900000002881800888800000010180088824001193079900017500215032020230000000087807923000000000132893460246XXXXXX3725       VK04VS111111111   NYV1 A E463079696465603N840000000000878J7D400    05DNHAPPY HIPPIE             918230    VD84000000000878 N  549976487158                            000000000+                F DF 10439                     000000000  Y000000000 331   0000000000000.00 0000000.00   0000000.00                             000000000000000                                                                                                                                                     01418 F000000000000 0000000000000.22     00050 02200                  
02225830459340024DT67590675900000002881800888800000010180088824001193079900017500223032020230000000526807923000000000132893423223XXXXXX5993       VS11    0001111   NYV1 A E303079697556733N840000000005268ZZXN00    05DNHAPPY HIPPIE             099309    VD84000000005268 N  549976487158                            000000000+                F DF 00381                     000000000  N000000000       0000000000000.00 0000000.00   0000000.00                             000000000000000                                                                                                                                                     01418 A000000000000 0000000000000.57     00800 01500                  
02225840459340025DT67590675900000002881800888800000010180088824001193079900017500231032020230000000087807923000000000132893440393XXXXXX1517       VK04VS111111111   NYV1 A E303079698026527N840000000000878Z48600    07DNHAPPY HIPPIE             461205    VD84000000000878 N  549976487158                            000000000+                F PF 08165                     000000000  N000000000       0000000000000.00 0000000.00   0000000.00                             000000000000000                                                                                                                                                     01418 F000000000000 0000000000000.19     01600 00500                  
02225850459340026DT67590675900000002881800888800000010180088824001193079900017500249032020230000000239007923000000000132893425142XXXXXX1418       VS11    0001111   NYV1 A E303079698797222N8400000000023905LQN00    05DNHAPPY HIPPIE             042034    VD84000000002390 N  549976487158                            000000000+                F DF 00381                     000000000  N000000000       0000000000000.00 0000000.00   0000000.00                             000000000000000                                                                                                                                                     01418 A000000000000 0000000000000.34     00800 01500                  
02225860459340027DT67590675900000002881800888800000010180088824001193079900017500256032020230000000137207923000000000132893414740XXXXXX9821       VK04VS111111111   NYV1 A E303079708893469N840000000001372RTWC00    07DNHAPPY HIPPIE             03889D    VS84000000001372 N  549976487158                            000000000+                D CD 12057                     000000000  N000000000 452   0000000000000.00 0000000.00   0000000.00                             000000000000000                                                                                                                                                     01418 F000000000000 0000000000000.30     02200 00000                  
02225870459340028DT67590675900000002881800888800000010180088824001193079900017500264032020230000000406607923000000000132893415978XXXXXX4597       VS11    0001111   NYV1 A E303079713057073N84000000000406625M500    07DNHAPPY HIPPIE             049424    VD84000000004066 N  549976487158                            000000000+                F DF 10433                     000000000  Y000000000 338   0000000000000.00 0000000.00   0000000.00                             000000000000000                                                                                                                                                     01418 A000000000000 0000000000000.24     00050 02200                  
02225880459340029DT67590675900000002881800888800000010180088824001193079900017500272032020230000000439007923000000000132893415978XXXXXX3096       VS11    0001111   NYV1 A E463079717259397N840000000004390824L00    07DNHAPPY HIPPIE             071825    VD84000000004390 N  549976487158                            000000000+                F DF 10433                     000000000  Y000000000 338   0000000000000.00 0000000.00   0000000.00                             000000000000000                                                                                                                                                     01418 A000000000000 0000000000000.24     00050 02200                  
02225890459340030DT67590675900000002881800888800000010180088824001193079900017500280032020230000000878007923000000000132893445101XXXXXX0323       VS11    0001111   NYV1 A E583079725054217N840000000008780JGJL00    05DNHAPPY HIPPIE             772024    VD84000000008780 N  549976487158                            000000000+                F DF 10433                     000000000  Y000000000 338   0000000000000.00 0000000.00   0000000.00                             000000000000000                                                                                                                                                     01418 A000000000000 0000000000000.26     00050 02200                  
02225900459340031DT67590675900000002881800888800000010180088824001193079900017500298032020230000000246807923000000000132893443238XXXXXX0070       VS11    0001111   NYV1 A E463079730282553N8400000000024685X4Z00    07DNHAPPY HIPPIE             061709    VD84000000002468 N  549976487158                            000000000+                F DF 00381                     000000000  N000000000       0000000000000.00 0000000.00   0000000.00                             000000000000000                                                                                                                                                     01418 A000000000000 0000000000000.35     00800 01500                  
02225910459340032DT67590675900000002881800888800000010180088824001193079900017500306032020230000000157607923000000000132893443238XXXXXX0990       VS11    0001111   NYV1 A E463079741534418N8400000000015764SRD00    07DNHAPPY HIPPIE             063553    VD84000000001576 N  549976487158                            000000000+                F DF 00381                     000000000  N000000000       0000000000000.00 0000000.00   0000000.00                             000000000000000                                                                                                                                                     01418 A000000000000 0000000000000.28     00800 01500                  
02225920459340033DT67590675900000002881800888800000010180088824001193079900017500314032020230000000463707923000000000132893415978XXXXXX0021       VS11    0001111   NYV1 A E303079778105959N840000000004637VM5900    07DNHAPPY HIPPIE             023724    VD84000000004637 N  549976487158                            000000000+                F DF 10433                     000000000  Y000000000 338   0000000000000.00 0000000.00   0000000.00                             000000000000000                                                                                                                                                     01418 A000000000000 0000000000000.24     00050 02200                  
02225930459340034DT67590675900000002881800888800000010180088877287283079900017500324032020230000000216107923000000000132893542539XXXXXX4153       MS02WI09          NY 1 0 AMPLEH1V0L0320  N840000000002161          07DNHAPPY HIPPIE             020772    MC84000000002161 N  549976487158                            000000000+M10101M0034C    MPL  00043                     000000000  N                0000000000000.00 0000000.00   0000000.00                             000000000000000                                                                                                                                                   B101418  000000000000 0000000000000.40     01650 00400                  
02225940459340035BH6759067590000000215480088880000090170320202307923000000000246947    0000090001381395N8008886759C03212023                                                                                                                                                                                                                                                                                                                                                                                                                                                                                                                                                                                                 
02225950459340036DT67590675900000002154800888800000010180088824001193079900013816953032020230000020280007923000000000246947431231XXXXXX5019               2111111   NYV4 A7W463079741171667N840000000202800N6H200    01DNDRIP DROP DISTRO LLC     073516    VD84000000202800 NP1519971004114   INV-000834               000000000+                G DG 10352                     000000000  Y000000000 338   0000000000000.00 0000000.00   0000000.00                             000000000000000                                                                                                                                                     01418 G000000202800 0000000000001.23     00050 02200                  
02225960459340001P16759067590000000215480088880000001010000000000000000    44010814836              2000000000000000000000000              000000000000                    0000000000000000000000000                    000000000000                                                                                                                                                                                                                                                                                                                                                                                                                                                                                        
02225970459340037DT67590675900000002154800888800000010180088887287283079900013809256032020230000001622207923000000000246947511221XXXXXX2131       ME03KE06MS02      NY 4607AMDJTH8WMB0320  N840000000016222          81DNDRIP DROP DISTRO LLC     151752    MD84000000016222 N  519900000001   INV-001231               000000000+600450S00140    MDJ  00401                     000000000  N                0000000000000.00 0000000.00   0000000.00                             000000000000000                                                                                                                                                   U001418  000000000000 0000000000002.83     01650 01500                  
02225980459340038DT67590675900000002154800888800000010180088876509753079900013868754032020230000000990007923000000000246947601100XXXXXX4436   BA00                  NY 4 07N753067727947630N840000000009900    00    01DNDRIP DROP DISTRO LLC     02008R    DS84000000009900 N  519971004114010                         000000000+1015104910600   DCCDI01008334055  061954000000 000000000  0          120   0000000000000.00 0000000.00   0000000.00                             000000000000000                                                                                                                                                     01418  000000000000 0000000000002.11     02030 01000                  
02225990459340039DT67590675900000002154800888800000010180088887287283079900013813951032020230000001802507923000000000246947511221XXXXXX4451       ME03KE06MS02      NY 4607AMDJNR6AL90320  N840000000018025          81DNDRIP DROP DISTRO LLC     151545    MD84000000018025 N  519900000001   INV-001230               000000000+600450S00140    MDJ  00401                     000000000  N                0000000000000.00 0000000.00   0000000.00                             000000000000000                                                                                                                                                   U001418  000000000000 0000000000003.12     01650 01500                  
02226000459340040BH6759067590000000288180088880000090170320202307923000000000083230    0000090001730014N8008886759C03212023                                                                                                                                                                                                                                                                                                                                                                                                                                                                                                                                                                                                 
02226010459340041DT67590675900000002881800888800000010180088824001193079900017300012032020230000000438907923000000000083230422921XXXXXX3299       VS11    0001111   NYV1 A E463079540096419N84000000000438936JH00    05DNHAPPY HIPPIE             039610    VD84000000004389 N  549976487134                            000000000+                F DF 00381                     000000000  N000000000       0000000000000.00 0000000.00   0000000.00                             000000000000000                                                                                                                                                     01418 A000000000000 0000000000000.50     00800 01500                  
02226020459340042DT67590675900000002881800888800000010180088824001193079900017300020032020230000000395107923000000000083230413037XXXXXX4265       VS11    0001111   NYV1 A E583079548161713N840000000003951KZRJ00    05DNHAPPY HIPPIE             075559    VD84000000003951 N  549976487134                            000000000+                F DF 10433                     000000000  Y000000000 338   0000000000000.00 0000000.00   0000000.00                             000000000000000                                                                                                                                                     01418 A000000000000 0000000000000.24     00050 02200                  
02226030459340043DT67590675900000002881800888800000010180088824001193079900017300038032020230000000395007923000000000083230443264XXXXXX3780       VS11    0001111   NYV1 A E383079598682047N840000000003950KSRM00    05DNHAPPY HIPPIE             024803    VD84000000003950 N  549976487134                            000000000+                F DF 10433                     000000000  Y000000000 338   0000000000000.00 0000000.00   0000000.00                             000000000000000                                                                                                                                                     01418 A000000000000 0000000000000.24     00050 02200                  
02226040459340044DT67590675900000002881800888800000010180088824001193079900017300046032020230000001322507923000000000083230440393XXXXXX4823       VS11    0001111   NYV1 A E463079634609754N840000000013225QK7500    05DNHAPPY HIPPIE             518161    VD84000000013225 N  549976487134                            000000000+                F PF 08170                     000000000  N000000000       0000000000000.00 0000000.00   0000000.00                             000000000000000                                                                                                                                                     01418 A000000000000 0000000000001.67     01150 01500                  
02226050459340045DT67590675900000002881800888800000010180088824001193079900017300053032020230000001994707923000000000083230426684XXXXXX6627       VS11    0001111   NYV1 A E303079661868765N8400000000199474XD600    05DNHAPPY HIPPIE             09206A    VS84000000019947 N  549976487134                            000000000+                A CA 12110                     000000000  N000000000 493   0000000000000.00 0000000.00   0000000.00                             000000000000000                                                                                                                                                     01418 A000000000000 0000000000003.11     01510 01000                  
02226060459340046DT67590675900000002881800888800000010180088873011003079900017300067032020230000000325807923000000000083230379844XXXXX2005                          NY 1 0 N006702931630078N840000000003258          05DNHAPPY HIPPIE             804316    AM84000000003258 N  549976487134                            000000000+51010155434C 258     11261                     000000000                   0000000000000.00 0000000.00   0000000.00                             000000000000000 61248972086759675900000002881 HAPPY HIPPIE             832 PARKWAY              8656540830      37862     HAPPYHIPPIE832@GMAIL.COM                  01418  000000000000 0000000000000.62     01600 00000                  
02226070459340047DT67590675900000002881800888800000010180088824001193079900017300079032020230000000175607923000000000083230423223XXXXXX1683       VS11    0001111   NYV1 A E583079694134931N840000000001756TBZ200    05DNHAPPY HIPPIE             099342    VD84000000001756 N  549976487134                            000000000+                F DF 00381                     000000000  N000000000       0000000000000.00 0000000.00   0000000.00                             000000000000000                                                                                                                                                     01418 A000000000000 0000000000000.29     00800 01500                  
02226080459340048DT67590675900000002881800888800000010180088824001193079900017300087032020230000000680207923000000000083230473336XXXXXX5051       VS11    0001111   NYV1 A E583079721178328N84000000000680293RC00    05DNHAPPY HIPPIE             040157    VD84000000006802 N  549976487134                            000000000+                F DF 00381                     000000000  N000000000       0000000000000.00 0000000.00   0000000.00                             000000000000000                                                                                                                                                     01418 A000000000000 0000000000000.69     00800 01500                  
02226090459340049DT67590675900000002881800888800000010180088877287283079900017300097032020230000000274307923000000000083230546197XXXXXX8456       MS02WI09          NY 1 0 AMDJST3WXK0320  N840000000002743          05DNHAPPY HIPPIE             161723    MD84000000002743 N  549976487134                            000000000+M10101C5434C    MDJ  00402                     000000000  N                0000000000000.00 0000000.00   0000000.00                             000000000000000                                                                                                                                                   B101418  000000000000 0000000000000.44     01050 01500                  
02226100459340050DT67590675900000002881800888800000010180088877287283079900017300105032020230000000395007923000000000083230517805XXXXXX9817       MS02WI09          NY 1 0 AMPLTQ1OMB0320  N840000000003950          07DNHAPPY HIPPIE             02189B    MC84000000003950 N  549976487134                            000000000+M10101M0034C    MPL  00364                     000000000  N                0000000000000.00 0000000.00   0000000.00                             000000000000000                                                                                                                                                   B101418  000000000000 0000000000000.75     01800 00400                  
02226110459340051DT67590675900000002881800888800000010180088824001193079900017300111032020230000000790007923000000000083230445101XXXXXX8489       VS11    0001111   NYV1 A E383079739192315N840000000007900CX9R00    05DNHAPPY HIPPIE             783192    VD84000000007900 N  549976487134                            000000000+                F DF 10433                     000000000  Y000000000 338   0000000000000.00 0000000.00   0000000.00                             000000000000000                                                                                                                                                     01418 A000000000000 0000000000000.26     00050 02200                  
02226120459340052DT67590675900000002881800888800000010180088824001193079900017300129032020230000000069107923000000000083230440393XXXXXX3132       VK04VS111111111   NYV1 A E583079774887825N840000000000691DK3B00    05DNHAPPY HIPPIE             242728    VD84000000000691 N  549976487134                            000000000+                F PF 08165                     000000000  N000000000       0000000000000.00 0000000.00   0000000.00                             000000000000000                                                                                                                                                     01418 F000000000000 0000000000000.16     01600 00500                  
02226130459340053DT67590675900000002881800888800000010180088877287283079900017300139032020230000000987807923000000000083230517805XXXXXX7723       MS02WI09          NY 1 0 AMWEMW4WZS0320  N840000000009878          05DNHAPPY HIPPIE             05588P    MC84000000009878 N  549976487134                            000000000+M10101C5434C    MWE  00743                     000000000  N                0000000000000.00 0000000.00   0000000.00                             000000000000000                                                                                                                                                   B101418  000000000000 0000000000002.31     02300 00400                  
02226140459340054DT67590675900000002881800888800000010180088824001193079900017300145032020230000000079007923000000000083230419090XXXXXX8251       VK04VS111111111   NYV1 A E583079794565598N840000000000790XFDQ00    05DNHAPPY HIPPIE             562267    VD84000000000790 N  549976487134                            000000000+                F DF 00451                     000000000  N000000000 214   0000000000000.00 0000000.00   0000000.00                             000000000000000                                                                                                                                                     01418 F000000000000 0000000000000.16     01550 00400                  
02226150459340055BH6759067590000000766680010180000090170320202307923000000000107266    0000090001030024N8001016759C03212023                                                                                                                                                                                                                                                                                                                                                                                                                                                                                                                                                                                                 
02226160459340056DT67590675900000007666800101800000010180010177287283079900010300011032020230000000971807923000000000107266517805XXXXXX2582       MS02WI09          NY 1 0 AMPLMCELVC0320  N840000000009718          05DNPLANET VAPOR INC #300    09273B    MC84000000009718 N  599977384654                            000000000+M10101C5434C    MPL  00353                     000000000  N                0000000000000.00 0000000.00   0000000.00                             000000000000000                                                                                                                                                   B101418  000000000000 0000000000001.85     01800 01000                  
02226170459340057DT67590675900000007666800101800000010180010177287283079900010300029032020230000000871507923000000000107266529099XXXXXX2666       MS02WI09          NY 1 0 AMDJLT89R10320  N840000000008715          05DNPLANET VAPOR INC #300    462331    MD84000000008715 N  599977384654                            000000000+M10101C5434C    MDJ  10815                     000000000  1                0000000000000.00 0000000.00   0000000.00                             000000000000000                                                                                                                                                   B101418  000000000000 0000000000000.26     00050 02200                  
02226180459340058DT67590675900000007666800101800000010180010124001193079900010300035032020230000000194207923000000000107266458643XXXXXX9413       VS11    0001111   NYV1 A E463079559032800N840000000001942N9ZW00    07DNPLANET VAPOR INC #300    H05141    VD84000000001942 N  599977384654                            000000000+                F DF 10433                     000000000  Y000000000 338   0000000000000.00 0000000.00   0000000.00                             000000000000000                                                                                                                                                     01418 A000000000000 0000000000000.23     00050 02200                  
02226190459340059DT67590675900000007666800101800000010180010124001193079900010300043032020230000000323807923000000000107266431243XXXXXX0542       VS11    0001111   NYV1 A E583079612489736N840000000003238DXSZ00    07DNPLANET VAPOR INC #300    020579    VS84000000003238 N  599977384654                            000000000+                A CA 12110                     000000000  N000000000 493   0000000000000.00 0000000.00   0000000.00                             000000000000000                                                                                                                                                     01418 A000000000000 0000000000000.59     01510 01000                  
02226200459340060DT67590675900000007666800101800000010180010124001193079900010300050032020230000000461407923000000000107266426939XXXXXX1896       VS11    0001111   NYV1 A E303079653930922N840000000004614S4CT00    05DNPLANET VAPOR INC #300    020328    VS84000000004614 N  599977384654                            000000000+                C CC 12112                     000000000  N000000000 497   0000000000000.00 0000000.00   0000000.00                             000000000000000                                                                                                                                                     01418 A000000000000 0000000000000.86     01650 01000                  
02226210459340061DT67590675900000007666800101800000010180010124001193079900010300068032020230000000980907923000000000107266473703XXXXXX4281       VS11    0001111   NYV1 A E463079656792053N840000000009809W7HT00    07DNPLANET VAPOR INC #300    058773    VD84000000009809 N  599977384654                            000000000+                F DF 10433                     000000000  Y000000000 338   0000000000000.00 0000000.00   0000000.00                             000000000000000                                                                                                                                                     01418 A000000000000 0000000000000.27     00050 02200                  
02226220459340062DT67590675900000007666800101800000010180010124001193079900010300076032020230000000366307923000000000107266448261XXXXXX6300       VS11    0001111   NYV1 A E383079658601679N8400000000036637H8P00    05DNPLANET VAPOR INC #300    167993    VD84000000003663 N  599977384654                            000000000+                F DF 10433                     000000000  Y000000000 338   0000000000000.00 0000000.00   0000000.00                             000000000000000                                                                                                                                                     01418 A000000000000 0000000000000.24     00050 02200                  
02226230459340063DT67590675900000007666800101800000010180010177287283079900010300086032020230000000058207923000000000107266541051XXXXXX9000       MS02WI09          NY 1 0 AMCGLAFDR20320  N840000000000582          05DNPLANET VAPOR INC #300    020096    MC84000000000582 N  599977384654                            000000000+M10101C5434C    MCG  00015                     000000000  N                0000000000000.00 0000000.00   0000000.00                             000000000000000                                                                                                                                                   B101418  000000000000 0000000000000.20     01650 01000                  
02226240459340064DT67590675900000007666800101800000010180010124001193079900010300092032020230000000213707923000000000107266473702XXXXXX9333       VS11    0001111   NYV1 A E463079712489353N840000000002137VDJ900    05DNPLANET VAPOR INC #300    083764    VD84000000002137 N  599977384654                            000000000+                F DF 10433                     000000000  Y000000000 338   0000000000000.00 0000000.00   0000000.00                             000000000000000                                                                                                                                                     01418 A000000000000 0000000000000.23     00050 02200                  
02226250459340065DT67590675900000007666800101800000010180010124001193079900010300100032020230000000932607923000000000107266466189XXXXXX5223       VS11    0001111   NYV1 A E463079720660936N84000000000932678XF00    05DNPLANET VAPOR INC #300    038850    VD84000000009326 N  599977384654                            000000000+                F DF 10433                     000000000  Y000000000 338   0000000000000.00 0000000.00   0000000.00                             000000000000000                                                                                                                                                     01418 A000000000000 0000000000000.27     00050 02200                  
02226260459340066DT67590675900000007666800101800000010180010177287283079900010300110032020230000000323807923000000000107266528149XXXXXX5822       MS02WI09          NY 1 0 AMDJOE8EL90320  N840000000003238          05DNPLANET VAPOR INC #300    060027    MD84000000003238 N  599977384654                            000000000+M10101C5434C    MDJ  00402                     000000000  N                0000000000000.00 0000000.00   0000000.00                             000000000000000                                                                                                                                                   B101418  000000000000 0000000000000.49     01050 01500                  
02226270459340067DT67590675900000007666800101800000010180010176509753079900010300124032020230000000237507923000000000107266601100XXXXXX6656   BA05                  NY41 0 N873067997433756N840000000002375    00    07DNPLANET VAPOR INC #300    02096R    DS84000000002375 N  599977384654830                         000000000+0000004910H00   DCCDI01000169987  164903000000 000000000  0          112   0000000000000.00 0000000.00   0000000.00                             000000000000000                                                                                                                                                     01418  000000000000 0000000000000.51     01720 01000                  
02226280459340068DT67590675900000007666800101800000010180010124001193079900010300134032020230000000458907923000000000107266466188XXXXXX6015       VS11    0001111   NYV1 A E463079753809607N840000000004589KZDZ00    05DNPLANET VAPOR INC #300    037489    VD84000000004589 N  599977384654                            000000000+                F DF 10433                     000000000  Y000000000 338   0000000000000.00 0000000.00   0000000.00                             000000000000000                                                                                                                                                     01418 A000000000000 0000000000000.24     00050 02200                  
02226290459340069DT67590675900000007666800101800000010180010124001193079900010300142032020230000000682807923000000000107266448261XXXXXX3006       VS11    0001111   NYV1 A E463079757092489N840000000006828LWC500    05DNPLANET VAPOR INC #300    168074    VD84000000006828 N  599977384654                            000000000+                F DF 10433                     000000000  Y000000000 338   0000000000000.00 0000000.00   0000000.00                             000000000000000                                                                                                                                                     01418 A000000000000 0000000000000.25     00050 02200                  
02226300459340070DT67590675900000007666800101800000010180010177287283079900010300151032020230000000215907923000000000107266545443XXXXXX7336       MS02WI09          NY 1 0 AMDJT8EHXK0320  N840000000002159          05DNPLANET VAPOR INC #300    070642    MD84000000002159 N  599977384654                            000000000+M10101C5434C    MDJ  00402                     000000000  N                0000000000000.00 0000000.00   0000000.00                             000000000000000                                                                                                                                                   B101418  000000000000 0000000000000.38     01050 01500                  
02226310459340071DT67590675900000007666800101800000010180010124001193079900010300167032020230000000151107923000000000107266498503XXXXXX1208       VS11    0001111   NYV1 A E303079766418222N8400000000015118G4X00    05DNPLANET VAPOR INC #300    040540    VD84000000001511 N  599977384654                            000000000+                F DF 00381                     000000000  N000000000       0000000000000.00 0000000.00   0000000.00                             000000000000000                                                                                                                                                     01418 A000000000000 0000000000000.27     00800 01500                  
02226320459340072DT67590675900000007666800101800000010180010177287283079900010300177032020230000000998607923000000000107266542418XXXXXX5103       MS02WI09          NY 1 0 AMWEDRJ1ZS0320  N840000000009986          07DNPLANET VAPOR INC #300    51155P    MC84000000009986 N  599977384654                            000000000+M10101M5434C    MWE  00739                     000000000  N                0000000000000.00 0000000.00   0000000.00                             000000000000000                                                                                                                                                   B101418  000000000000 0000000000002.40     02300 01000                  
02226330459340073DT67590675900000007666800101800000010180010124001193079900010300183032020230000000291407923000000000107266436172XXXXXX1633       VS11    0001111   NYV1 A E383079793691800N840000000002914SWCJ00    05DNPLANET VAPOR INC #300    070249    VD84000000002914 N  599977384654                            000000000+                F DF 00381                     000000000  N000000000       0000000000000.00 0000000.00   0000000.00                             000000000000000                                                                                                                                                     01418 A000000000000 0000000000000.38     00800 01500                  
02226340459340074DT67590675900000007666800101800000010180010124001193079900010300191032020230000000242807923000000000107266415977XXXXXX4588       VS11    0001111   NYV1 A E383079814515029N840000000002428NMNF00    05DNPLANET VAPOR INC #300    042034    VD84000000002428 N  599977384654                            000000000+                F DF 10433                     000000000  Y000000000 338   0000000000000.00 0000000.00   0000000.00                             000000000000000                                                                                                                                                     01418 A000000000000 0000000000000.23     00050 02200                  
02226350459340075DT67590675900000007666800101800000010180010124001193079900010300209032020230000000496607923000000000107266474523XXXXXX1247       VS11    0001111   NYV1 A E383079820576542N840000000004966CT7P00    07DNPLANET VAPOR INC #300    740563    VD84000000004966 N  599977384654                            000000000+                F PF 08170                     000000000  N000000000       0000000000000.00 0000000.00   0000000.00                             000000000000000                                                                                                                                                     01418 A000000000000 0000000000000.72     01150 01500                  
02226360459340076DT67590675900000007666800101800000010180010124001193079900010300217032020230000000461307923000000000107266461675XXXXXX3919       VS11    0001111   NYV1 A E303079822841815N840000000004613RW4J00    05DNPLANET VAPOR INC #300    212360    VD84000000004613 N  599977384654                            000000000+                F DF 00381                     000000000  N000000000       0000000000000.00 0000000.00   0000000.00                             000000000000000                                                                                                                                                     01418 A000000000000 0000000000000.52     00800 01500                  
02226370459340077DT67590675900000007666800101800000010180010124001193079900010300225032020230000000323807923000000000107266438419XXXXXX3166       VS11    0001111   NYV1 A E583079831876066N8400000000032383Q3900    05DNPLANET VAPOR INC #300    090627    VD84000000003238 N  599977384654                            000000000+                F DF 00381                     000000000  N000000000       0000000000000.00 0000000.00   0000000.00                             000000000000000                                                                                                                                                     01418 A000000000000 0000000000000.41     00800 01500                  
02226380459340078DT67590675900000007666800101800000010180010177287283079900010300235032020230000000137507923000000000107266535561XXXXXX3091                         NY 1 0 AMDHGLLF0L0320  N840000000001375          07DNPLANET VAPOR INC #300    367130    MD84000000001375FN  599977384654                            000000000+M10101M0034C    MDH  12231                     0000000081 N                0000000000000.00 0000000.00   0000000.00                             000000000000000                                                                                                                                                     01418  000000000000 0000000000000.27     01980 00000                  
02226390459340079DT67590675900000007666800101800000010180010124001193079900010300241032020230000000330207923000000000107266499159XXXXXX6629       VS11    0001111   NYV1 A E463079859903539N840000000003302SK6X00    05DNPLANET VAPOR INC #300    020834    VS84000000003302 N  599977384654                            000000000+                B CB 12111                     000000000  N000000000 495   0000000000000.00 0000000.00   0000000.00                             000000000000000                                                                                                                                                     01418 A000000000000 0000000000000.64     01650 01000                  
02226400459340080BH6759067590000000708880010180000090170320202307923000000000094728    0000090001050030N8001016759C03212023                                                                                                                                                                                                                                                                                                                                                                                                                                                                                                                                                                                                 
02226410459340081DT67590675900000007088800101800000010180010124001193079900010500014032020230000000561507923000000000094728458643XXXXXX4571       VS11    0001111   NYV1 A E383079542129555N8400000000056157LHZ00    05DNPLANET VAPOR INC #200    H06025    VD84000000005615 N  599977384620                            000000000+                F DF 10433                     000000000  Y000000000 338   0000000000000.00 0000000.00   0000000.00                             000000000000000                                                                                                                                                     01418 A000000000000 0000000000000.25     00050 02200                  
02226420459340082DT67590675900000007088800101800000010180010124001193079900010500022032020230000000323807923000000000094728430602XXXXXX7632       VS11    0001111   NYV1 A E583079549999821N840000000003238KX2500    05DNPLANET VAPOR INC #200    098059    VD84000000003238 N  599977384620                            000000000+                F DF 00381                     000000000  N000000000       0000000000000.00 0000000.00   0000000.00                             000000000000000                                                                                                                                                     01418 A000000000000 0000000000000.41     00800 01500                  
02226430459340083DT67590675900000007088800101800000010180010177287283079900010500032032020230000000280707923000000000094728531258XXXXXX5686       MS02WI09          NY 1 0 AMDJMZYSR10320  N840000000002807          05DNPLANET VAPOR INC #200    103306    MD84000000002807 N  599977384620                            000000000+M10101C5434C    MDJ  10815                     000000000  1                0000000000000.00 0000000.00   0000000.00                             000000000000000                                                                                                                                                   B101418  000000000000 0000000000000.23     00050 02200                  
02226440459340084DT67590675900000007088800101800000010180010124001193079900010500048032020230000000269907923000000000094728473702XXXXXX4666       VS11    0001111   NYV1 A E463079559086889N840000000002699GQML00    05DNPLANET VAPOR INC #200    046275    VD84000000002699 N  599977384620                            000000000+                F DF 10433                     000000000  Y000000000 338   0000000000000.00 0000000.00   0000000.00                             000000000000000                                                                                                                                                     01418 A000000000000 0000000000000.23     00050 02200                  
02226450459340085DT67590675900000007088800101800000010180010124001193079900010500055032020230000000237507923000000000094728400022XXXXXX9059       VS11    0001111   NYV1 A E303079564674168N840000000002375MP2300    05DNPLANET VAPOR INC #200    713876    VD84000000002375 N  599977384620                            000000000+                F DF 10433                     000000000  Y000000000 338   0000000000000.00 0000000.00   0000000.00                             000000000000000                                                                                                                                                     01418 A000000000000 0000000000000.23     00050 02200                  
02226460459340086DT67590675900000007088800101800000010180010124001193079900010500063032020230000000237507923000000000094728473703XXXXXX4640       VS11    0001111   NYV1 A E383079565813406N8400000000023753GVJ00    05DNPLANET VAPOR INC #200    024536    VD84000000002375 N  599977384620                            000000000+                F DF 10433                     000000000  Y000000000 338   0000000000000.00 0000000.00   0000000.00                             000000000000000                                                                                                                                                     01418 A000000000000 0000000000000.23     00050 02200                  
02226470459340087DT67590675900000007088800101800000010180010124001193079900010500071032020230000000431807923000000000094728427199XXXXXX6296       VS11    0001111   NYV1 A E383079566938953N840000000004318G8KG00    05DNPLANET VAPOR INC #200    989663    VD84000000004318 N  599977384620                            000000000+                F DF 00381                     000000000  N000000000       0000000000000.00 0000000.00   0000000.00                             000000000000000                                                                                                                                                     01418 A000000000000 0000000000000.50     00800 01500                  
02226480459340088DT67590675900000007088800101800000010180010176509753079900010500087032020230000000270107923000000000094728601100XXXXXX8771   BA50                  NY41 0 N803067816153943N840000000002701    00    05DNPLANET VAPOR INC #200    02037R    DS84000000002701 N  599977384620050                         000000000+0000004910H00   DCCDI01000499157  114655000000 000000000  0          112   0000000000000.00 0000000.00   0000000.00                             000000000000000                                                                                                                                                     01418  000000000000 0000000000000.56     01720 01000                  
02226490459340089DT67590675900000007088800101800000010180010124001193079900010500097032020230000000269907923000000000094728461675XXXXXX8837       VS11    0001111   NYV1 A E383079576644819N840000000002699VPBX00    05DNPLANET VAPOR INC #200    940620    VD84000000002699 N  599977384620                            000000000+                F DF 00381                     000000000  N000000000       0000000000000.00 0000000.00   0000000.00                             000000000000000                                                                                                                                                     01418 A000000000000 0000000000000.37     00800 01500                  
02226500459340090DT67590675900000007088800101800000010180010173011003079900010500101032020230000000137507923000000000094728379298XXXXX1000                          NY 1 0 N006700261553076N840000000001375          05DNPLANET VAPOR INC #200    802952    AM84000000001375 N  599977384620                            000000000+51010155434C 258     11261                     000000000                   0000000000000.00 0000000.00   0000000.00                             000000000000000 61248972086759675900000007088 PLANET VAPOR INC #200    7457 PATTERSON RD STE 1098035462263      29209     KEVIN@MOOREDISTRO.COM                     01418  000000000000 0000000000000.32     01600 00000                  
02226510459340091DT67590675900000007088800101800000010180010124001193079900010500113032020230000000280707923000000000094728400022XXXXXX6681       VS11    0001111   NYV1 A E463079582821739N8400000000028078QFC00    05DNPLANET VAPOR INC #200    733364    VD84000000002807 N  599977384620                            000000000+                F DF 10433                     000000000  Y000000000 338   0000000000000.00 0000000.00   0000000.00                             000000000000000                                                                                                                                                     01418 A000000000000 0000000000000.23     00050 02200                  
02226520459340092DT67590675900000007088800101800000010180010124001193079900010500121032020230000001295707923000000000094728473703XXXXXX8008       VS11    0001111   NYV1 A E583079584416052N840000000012957PHB200    05DNPLANET VAPOR INC #200    043769    VD84000000012957 N  599977384620                            000000000+                F DF 10433                     000000000  Y000000000 338   0000000000000.00 0000000.00   0000000.00                             000000000000000                                                                                                                                                     01418 A000000000000 0000000000000.28     00050 02200                  
02226530459340093DT67590675900000007088800101800000010180010124001193079900010500139032020230000000213707923000000000094728453506XXXXXX8547       VS11    0001111   NYV1 A E303079586138198N840000000002137TQFL00    05DNPLANET VAPOR INC #200    H13853    VD84000000002137 N  599977384620                            000000000+                F DF 10433                     000000000  Y000000000 338   0000000000000.00 0000000.00   0000000.00                             000000000000000                                                                                                                                                     01418 A000000000000 0000000000000.23     00050 02200                  
02226540459340094DT67590675900000007088800101800000010180010124001193079900010500147032020230000000461407923000000000094728459954XXXXXX6726       VS11    0001111   NYV1 A E383079596879401N8400000000046148G4X00    05DNPLANET VAPOR INC #200    H18148    VD84000000004614 N  599977384620                            000000000+                F DF 10433                     000000000  Y000000000 338   0000000000000.00 0000000.00   0000000.00                             000000000000000                                                                                                                                                     01418 A000000000000 0000000000000.24     00050 02200                  
02226550459340095DT67590675900000007088800101800000010180010124001193079900010500154032020230000000075507923000000000094728430602XXXXXX1235       VK04VS111111111   NYV1 A E583079610947017N840000000000755CWKG00    05DNPLANET VAPOR INC #200    112263    VD84000000000755 N  599977384620                            000000000+                F DF 00451                     000000000  N000000000 214   0000000000000.00 0000000.00   0000000.00                             000000000000000                                                                                                                                                     01418 F000000000000 0000000000000.16     01550 00400                  
02226560459340096DT67590675900000007088800101800000010180010124001193079900010500162032020230000000377907923000000000094728440393XXXXXX4311       VS11    0001111   NYV1 A E303079616390262N840000000003779FPWT00    05DNPLANET VAPOR INC #200    263241    VD84000000003779 N  599977384620                            000000000+                F PF 08170                     000000000  N000000000       0000000000000.00 0000000.00   0000000.00                             000000000000000                                                                                                                                                     01418 A000000000000 0000000000000.58     01150 01500                  
02226570459340097DT67590675900000007088800101800000010180010124001193079900010500170032020230000000151107923000000000094728433477XXXXXX1351       VS11    0001111   NYV1 A E583079618048700N840000000001511TZXR00    05DNPLANET VAPOR INC #200    773402    VD84000000001511 N  599977384620                            000000000+                F DF 10433                     000000000  Y000000000 338   0000000000000.00 0000000.00   0000000.00                             000000000000000                                                                                                                                                     01418 A000000000000 0000000000000.23     00050 02200                  
02226580459340098DT67590675900000007088800101800000010180010124001193079900010500188032020230000000215907923000000000094728499159XXXXXX0014       VS11    0001111   NYV1 A E383079632697929N840000000002159H2RR00    05DNPLANET VAPOR INC #200    020532    VS84000000002159 N  599977384620                            000000000+                B CB 12111                     000000000  N000000000 495   0000000000000.00 0000000.00   0000000.00                             000000000000000                                                                                                                                                     01418 A000000000000 0000000000000.46     01650 01000                  
02226590459340099DT67590675900000007088800101800000010180010124001193079900010500196032020230000000216007923000000000094728473703XXXXXX2615       VS11    0001111   NYV1 A E583079643061186N8400000000021607JVM00    05DNPLANET VAPOR INC #200    060162    VD84000000002160 N  599977384620                            000000000+                F DF 10433                     000000000  Y000000000 338   0000000000000.00 0000000.00   0000000.00                             000000000000000                                                                                                                                                     01418 A000000000000 0000000000000.23     00050 02200                  
02226600459340100DT67590675900000007088800101800000010180010124001193079900010500204032020230000000323807923000000000094728473703XXXXXX2615       VS11    0001111   NYV1 A E463079647306287N840000000003238HK5H00    05DNPLANET VAPOR INC #200    025225    VD84000000003238 N  599977384620                            000000000+                F DF 10433                     000000000  Y000000000 338   0000000000000.00 0000000.00   0000000.00                             000000000000000                                                                                                                                                     01418 A000000000000 0000000000000.24     00050 02200                  
02226610459340101DT67590675900000007088800101800000010180010124001193079900010500212032020230000000323807923000000000094728473703XXXXXX2766       VS11    0001111   NYV1 A E383079695900721N840000000003238N2ZK00    05DNPLANET VAPOR INC #200    095922    VD84000000003238 N  599977384620                            000000000+                F DF 10433                     000000000  Y000000000 338   0000000000000.00 0000000.00   0000000.00                             000000000000000                                                                                                                                                     01418 A000000000000 0000000000000.24     00050 02200                  
02226620459340102DT67590675900000007088800101800000010180010176509753079900010500228032020230000000431807923000000000094728601100XXXXXX2838   BA50                  NY41 0 N873067975080803N840000000004318    00    05DNPLANET VAPOR INC #200    02081R    DS84000000004318 N  599977384620050                         000000000+0000004910H00   DCCDI01000831089  161148000000 000000000  0          112   0000000000000.00 0000000.00   0000000.00                             000000000000000                                                                                                                                                     01418  000000000000 0000000000000.84     01720 01000                  
02226630459340103DT67590675900000007088800101800000010180010124001193079900010500238032020230000000105207923000000000094728448233XXXXXX1679       VK04VS111111111   NYV1 A E303079733037812N840000000001052QT6900    05DNPLANET VAPOR INC #200    052143    VD84000000001052 N  599977384620                            000000000+                F DF 10439                     000000000  Y000000000 331   0000000000000.00 0000000.00   0000000.00                             000000000000000                                                                                                                                                     01418 F000000000000 0000000000000.23     00050 02200                  
02226640459340104DT67590675900000007088800101800000010180010124001193079900010500246032020230000000237507923000000000094728440393XXXXXX5436       VS11    0001111   NYV1 A E383079737895047N840000000002375BZXB00    05DNPLANET VAPOR INC #200    447593    VD84000000002375 N  599977384620                            000000000+                F PF 08170                     000000000  N000000000       0000000000000.00 0000000.00   0000000.00                             000000000000000                                                                                                                                                     01418 A000000000000 0000000000000.42     01150 01500                  
02226650459340105DT67590675900000007088800101800000010180010124001193079900010500253032020230000000475007923000000000094728466189XXXXXX2005       VS11    0001111   NYV1 A E303079746549956N840000000004750PWJK00    05DNPLANET VAPOR INC #200    016339    VD84000000004750 N  599977384620                            000000000+                F DF 10433                     000000000  Y000000000 338   0000000000000.00 0000000.00   0000000.00                             000000000000000                                                                                                                                                     01418 A000000000000 0000000000000.24     00050 02200                  
02226660459340106DT67590675900000007088800101800000010180010124001193079900010500261032020230000000323807923000000000094728440393XXXXXX2822       VS11    0001111   NYV1 A E383079771165247N8400000000032385L8T00    05DNPLANET VAPOR INC #200    863965    VD84000000003238 N  599977384620                            000000000+                F PF 08170                     000000000  N000000000       0000000000000.00 0000000.00   0000000.00                             000000000000000                                                                                                                                                     01418 A000000000000 0000000000000.52     01150 01500                  
02226670459340107DT67590675900000007088800101800000010180010124001193079900010500279032020230000000237507923000000000094728459954XXXXXX9600       VS11    0001111   NYV1 A E303079796227188N8400000000023752T9D00    05DNPLANET VAPOR INC #200    H73163    VD84000000002375 N  599977384620                            000000000+                F DF 10433                     000000000  Y000000000 338   0000000000000.00 0000000.00   0000000.00                             000000000000000                                                                                                                                                     01418 A000000000000 0000000000000.23     00050 02200                  
02226680459340108DT67590675900000007088800101800000010180010177287283079900010500289032020230000000215907923000000000094728514230XXXXXX4480       MS02WI09          NY 1 0 AMDJE64T0L0320  N840000000002159          05DNPLANET VAPOR INC #200    A2974A    MD84000000002159 N  599977384620                            000000000+M10101C5434C    MDJ  00402                     000000000  N                0000000000000.00 0000000.00   0000000.00                             000000000000000                                                                                                                                                   B101418  000000000000 0000000000000.38     01050 01500                  
02226690459340109DT67590675900000007088800101800000010180010124001193079900010500295032020230000000209707923000000000094728425300XXXXXX8081       VS11    0001111   NYV1 A E303080010909393N840000000002097RTG500    90DNPLANET VAPOR INC #200    000035    VD84000000002097 N  599977384620                            000000000+                F PF 08170                     000000000  N000000000       0000000000000.00 0000000.00   0000000.00                             000000000000000                                                                                                                                                     01418 A000000000000 0000000000000.39     01150 01500                  
02226700459340110DT67590675900000007088800101800000010180010124001193079900010500303032020230000000280707923000000000094728441707XXXXXX2323       VS11    0001111   NYV1 A E303080012252823N84000000000280734ZN00    07DNPLANET VAPOR INC #200    548441    VD84000000002807 N  599977384620                            000000000+                F PF 08170                     000000000  N000000000       0000000000000.00 0000000.00   0000000.00                             000000000000000                                                                                                                                                     01418 A000000000000 0000000000000.47     01150 01500                  
02226710459340111BH6759067590000000995180010180000090170320202307923000000000028904    0000090001040007N8001016759C03212023                                                                                                                                                                                                                                                                                                                                                                                                                                                                                                                                                                                                 
02226720459340112DT67590675900000009951800101800000010180010124001193079900010400017032020230000000215907923000000000028904449370XXXXXX6724       VS11    0001111   NYV1 A E463079592784313N840000000002159VD7900    05DNPLANET VAPOR INC #600    053103    VD84000000002159 N  599977384956                            000000000+                F DF 00381                     000000000  N000000000       0000000000000.00 0000000.00   0000000.00                             000000000000000                                                                                                                                                     01418 A000000000000 0000000000000.32     00800 01500                  
02226730459340113DT67590675900000009951800101800000010180010124001193079900010400025032020230000000680207923000000000028904449370XXXXXX2387       VS11    0001111   NYV1 A E383079626541477N840000000006802W6J400    05DNPLANET VAPOR INC #600    055915    VD84000000006802 N  599977384956                            000000000+                F DF 00381                     000000000  N000000000       0000000000000.00 0000000.00   0000000.00                             000000000000000                                                                                                                                                     01418 A000000000000 0000000000000.69     00800 01500                  
02226740459340114DT67590675900000009951800101800000010180010124001193079900010400033032020230000000485707923000000000028904463405XXXXXX5678       VS11    0001111   NYV1 A E383079681919761N84000000000485736X500    05DNPLANET VAPOR INC #600    007231    VD84000000004857 N  599977384956                            000000000+                F DF 10433                     000000000  Y000000000 338   0000000000000.00 0000000.00   0000000.00                             000000000000000                                                                                                                                                     01418 A000000000000 0000000000000.24     00050 02200                  
02226750459340115DT67590675900000009951800101800000010180010124001193079900010400041032020230000000280707923000000000028904448261XXXXXX5223       VS11    0001111   NYV1 A E383079709452203N840000000002807KPX800    05DNPLANET VAPOR INC #600    831085    VD84000000002807 N  599977384956                            000000000+                F DF 10433                     000000000  Y000000000 338   0000000000000.00 0000000.00   0000000.00                             000000000000000                                                                                                                                                     01418 A000000000000 0000000000000.23     00050 02200                  
02226760459340116DT67590675900000009951800101800000010180010124001193079900010400058032020230000000194307923000000000028904478357XXXXXX9493       VS11    0001111   NYV1 A E583079728096529N8400000000019432ZXL00    07DNPLANET VAPOR INC #600    093079    VS84000000001943 N  599977384956                            000000000+                A CA 12110                     000000000  N000000000 493   0000000000000.00 0000000.00   0000000.00                             000000000000000                                                                                                                                                     01418 A000000000000 0000000000000.39     01510 01000                  
02226770459340117DT67590675900000009951800101800000010180010177287283079900010400068032020230000000461507923000000000028904517862XXXXXX5290       MS02WI09          NY 1 0 AMDJUQ2FXK0320  N840000000004615          05DNPLANET VAPOR INC #600    036453    MD84000000004615 N  599977384956                            000000000+M10101C5434C    MDJ  10715                     000000000  B                0000000000000.00 0000000.00   0000000.00                             000000000000000                                                                                                                                                   B101418  000000000000 0000000000000.23     00050 02100                  
02226780459340118DT67590675900000009951800101800000010180010124001193079900010400074032020230000000572107923000000000028904473703XXXXXX1697       VS11    0001111   NYV1 A E583079856804733N840000000005721NFCR00    05DNPLANET VAPOR INC #600    020721    VD84000000005721 N  599977384956                            000000000+                F DF 10433                     000000000  Y000000000 338   0000000000000.00 0000000.00   0000000.00                             000000000000000                                                                                                                                                     01418 A000000000000 0000000000000.25     00050 02200                  
02226790459340119BH6759067590000000561180088880000090170320202307923000000000004189    0000090001298900N8008886759C03212023                                                                                                                                                                                                                                                                                                                                                                                                                                                                                                                                                                                                 
02226800459340120DT67590675900000005611800888800000010180088887287283079900012989000032020230000000418907923000000000004189548042XXXXXX1668       ME03KE06MS02      NY 4607AMCCQFCMPC0320  N840000000004189          81DNK DIVINE 503-689-7182    05793B    MC84000000004189 N  549900000001   5309                     000000000+600450S00140    MCC  00580                     000000000  N                0000000000000.00 0000000.00   0000000.00                             000000000000000                                                                                                                                                   U001418  000000000000 0000000000000.98     02100 01000                  
02226810459340121BH6759067590000000909280010180000090170320202307923000000000159940    0000090001050043N8001016759C03212023                                                                                                                                                                                                                                                                                                                                                                                                                                                                                                                                                                                                 
02226820459340122DT67590675900000009092800101800000010180010124001193079900010500014032020230000000563207923000000000159940465638XXXXXX7919       VS11    0001111   NYV1 A E463079509479074N840000000005632MQL300    05DNPLANET VAPOR INC #500    879780    VS84000000005632 N  599977384801                            000000000+                B CB 12111                     000000000  N000000000 495   0000000000000.00 0000000.00   0000000.00                             000000000000000                                                                                                                                                     01418 A000000000000 0000000000001.03     01650 01000                  
02226830459340123DT67590675900000009092800101800000010180010124001193079900010500022032020230000000269907923000000000159940433477XXXXXX7465       VS11    0001111   NYV1 A E383079517756346N840000000002699Z6NW00    07DNPLANET VAPOR INC #500    618980    VD84000000002699 N  599977384801                            000000000+                F DF 10433                     000000000  Y000000000 338   0000000000000.00 0000000.00   0000000.00                             000000000000000                                                                                                                                                     01418 A000000000000 0000000000000.23     00050 02200                  
02226840459340124DT67590675900000009092800101800000010180010124001193079900010500030032020230000000323807923000000000159940438419XXXXXX0259       VS11    0001111   NYV1 A E463079528915434N840000000003238FXFX00    05DNPLANET VAPOR INC #500    004132    VD84000000003238 N  599977384801                            000000000+                F DF 00381                     000000000  N000000000       0000000000000.00 0000000.00   0000000.00                             000000000000000                                                                                                                                                     01418 A000000000000 0000000000000.41     00800 01500                  
02226850459340125DT67590675900000009092800101800000010180010124001193079900010500048032020230000000475007923000000000159940448261XXXXXX7069       VS11    0001111   NYV1 A E303079549693775N840000000004750GDS800    07DNPLANET VAPOR INC #500    501150    VD84000000004750 N  599977384801                            000000000+                F DF 10433                     000000000  Y000000000 338   0000000000000.00 0000000.00   0000000.00                             000000000000000                                                                                                                                                     01418 A000000000000 0000000000000.24     00050 02200                  
02226860459340126DT67590675900000009092800101800000010180010177287283079900010500057032020230000000188907923000000000159940539277XXXXXX3958       MS02WI09          NY 1 0 AMWEMZZGJZ0320  N840000000001889          07DNPLANET VAPOR INC #500    03357Z    MC84000000001889 N  599977384801                            000000000+M10101M0034C    MWE  00739                     000000000  N                0000000000000.00 0000000.00   0000000.00                             000000000000000                                                                                                                                                   B101418  000000000000 0000000000000.53     02300 01000                  
02226870459340127DT67590675900000009092800101800000010180010177287283079900010500065032020230000002089307923000000000159940539277XXXXXX3958       MS02WI09          NY 1 0 AMWEM13BJZ0320  N840000000020893          05DNPLANET VAPOR INC #500    09630Z    MC84000000020893 N  599977384801                            000000000+M10101C5434C    MWE  00739                     000000000  N                0000000000000.00 0000000.00   0000000.00                             000000000000000                                                                                                                                                   B101418  000000000000 0000000000004.91     02300 01000                  
02226880459340128DT67590675900000009092800101800000010180010124001193079900010500071032020230000000277907923000000000159940478373XXXXXX5339       VS11    0001111   NYV1 A E383079556273413N840000000002779D6M700    05DNPLANET VAPOR INC #500    002707    VD84000000002779 N  599977384801                            000000000+                F DF 10433                     000000000  Y000000000 338   0000000000000.00 0000000.00   0000000.00                             000000000000000                                                                                                                                                     01418 A000000000000 0000000000000.23     00050 02200                  
02226890459340129DT67590675900000009092800101800000010180010124001193079900010500089032020230000000427507923000000000159940456367XXXXXX0032       VS11    0001111   NYV1 A E463079557602965N840000000004275V64H00    05DNPLANET VAPOR INC #500    H07254    VD84000000004275 N  599977384801                            000000000+                F DF 10433                     000000000  Y000000000 338   0000000000000.00 0000000.00   0000000.00                             000000000000000                                                                                                                                                     01418 A000000000000 0000000000000.24     00050 02200                  
02226900459340130DT67590675900000009092800101800000010180010124001193079900010500097032020230000000237507923000000000159940473703XXXXXX8735       VS11    0001111   NYV1 A E383079568216657N840000000002375S63700    05DNPLANET VAPOR INC #500    062311    VD84000000002375 N  599977384801                            000000000+                F DF 10433                     000000000  Y000000000 338   0000000000000.00 0000000.00   0000000.00                             000000000000000                                                                                                                                                     01418 A000000000000 0000000000000.23     00050 02200                  
02226910459340131DT67590675900000009092800101800000010180010177287283079900010500107032020230000000377907923000000000159940531258XXXXXX8775       MS02WI09          NY 1 0 AMDJNP8GJZ0320  N840000000003779          07DNPLANET VAPOR INC #500    105605    MD84000000003779 N  599977384801                            000000000+M10101M0034C    MDJ  10815                     000000000  1                0000000000000.00 0000000.00   0000000.00                             000000000000000                                                                                                                                                   B101418  000000000000 0000000000000.24     00050 02200                  
02226920459340132DT67590675900000009092800101800000010180010124001193079900010500113032020230000000485707923000000000159940400022XXXXXX1383       VS11    0001111   NYV1 A E463079591338786N840000000004857GVK500    07DNPLANET VAPOR INC #500    525107    VD84000000004857 N  599977384801                            000000000+                F DF 10433                     000000000  Y000000000 338   0000000000000.00 0000000.00   0000000.00                             000000000000000                                                                                                                                                     01418 A000000000000 0000000000000.24     00050 02200                  
02226930459340133DT67590675900000009092800101800000010180010177287283079900010500123032020230000000798907923000000000159940542418XXXXXX6457       MS02WI09          NY 1 0 AMCWO0JEJZ0320  N840000000007989          05DNPLANET VAPOR INC #500    00618T    MC84000000007989 N  599977384801                            000000000+M10101C5434C    MCW  02184                     000000000  N                0000000000000.00 0000000.00   0000000.00                             000000000000000                                                                                                                                                   B101418  000000000000 0000000000001.94     02300 01000                  
