01595560649910002BH6759067590000000096880088880000090171129202233322000000000000500    0000090001010001N8008886759C11302022                                                                                                                                                                                                                                                                                                                                                                                                                                                                                                                                                                                                 
01595570649910003DT67590675900000000968800888800000010180088877287282333900010100019112920220000000050033322000000000000500558158XXXXXX7298                         NY 1 0 AMDBHCIHTO1129  N840000000000500          05DNHIGHER FLOUR LLC         2ODEUR    MD84000000000500 NP1546276194488                            000000000+M10101C5434C    MDB  00062                     000000000  N                0000000000000.00 0000000.00   0000000.00                             000000000000000                                                                                                                                                   B101418  000000000000 0000000000000.23     02650 01000                  
01595580649910001P1675906759000000009688008888000000101                                                          000000000000          8000            863838817                                                                                                                                                                                                                                                                                                                                                                                                                                                                                                                                                            
01595590649910004BH6759067590000000215480088880000090171129202233322000000000342000    0000090001494303N8008886759C11302022                                                                                                                                                                                                                                                                                                                                                                                                                                                                                                                                                                                                 
01595600649910005DT67590675900000002154800888800000010180088873011002333900014943038112920220000034200033322000000000342000372718XXXXX2138                          NY 4 07N003550638362302N840000000342000          01DNDRIP DROP DISTRO LLC     267115    AM84000000342000 N  519971004114                            000000000+6004S0S00140 258     11244                     000000000                   0000000000000.00 0000000.00   0000000.00                             000000000000000 61248972736759675900000002154 DRIP DROP DISTRO LLC     1445 W COMMERCE AVE SUITE2087248209      83705     TROY@DRIPDROPDISTRO.COM                   01418  000000000000 0000000000065.08     01900 00000                  
01595610649910006BH6759067590000000096880088880000090171129202233322000000000007200    0000090001026783N8008886759C11302022                                                                                                                                                                                                                                                                                                                                                                                                                                                                                                                                                                                                 
01595620649910007DT67590675900000000968800888800000010180088824001192333900010267832112920220000000720033322000000000007200400022XXXXXX1696               2111111   NYV4 A7W302333021437090N840000000007200R8WQ00    01DNHIGHER FLOUR LLC         649500    VD84000000007200 NP1546271004114   RTBXYT4YDRCOJHA8539L     000000000+                F DF 10420                     000000000  Y000000000 338   0000000000000.00 0000000.00   0000000.00                             000000000000000                                                                                                                                                     01418 G000000007200 0000000000000.26     00050 02200                  
01595630649910001P16759067590000000096880088880000001010000000000000000                             2000000000000000000000000              000000000000                    0000000000000000000000000                    000000000000                                                                                                                                                                                                                                                                                                                                                                                                                                                                                        
