07531790186913419AD675906759000000151648008888000009077900014995520000001989606072023NYY15823YC6759800888060920232023143004966                                                                                                                                                                                                                                                                                                                                                                                                                                                                                                                                                                                              
07531800186913422AD675906759000000268498001258000009071900010812460000001122506072023NYY15823ND6759800125060920232023150034400                                                                                                                                                                                                                                                                                                                                                                                                                                                                                                                                                                                              
07531810186913425AD675906759000000268498001258000009071900013919870000001977006072023NYY15823ND6759800125060920232023158022192                                                                                                                                                                                                                                                                                                                                                                                                                                                                                                                                                                                              
07531820186913428AD675906759000000268498001258000009071900014138390000000680406072023NYY15823ND6759800125060920232023158022193                                                                                                                                                                                                                                                                                                                                                                                                                                                                                                                                                                                              
07531830186913431AD675906759000000198288001098000009077900013259690000001987006072023NYY15823YC6759800109060920232023158022196                                                                                                                                                                                                                                                                                                                                                                                                                                                                                                                                                                                              
07531840186913434AD675906759000000268498001258000009077900013915500000001977006072023NYY15823YC6759800125060920232023158022197                                                                                                                                                                                                                                                                                                                                                                                                                                                                                                                                                                                              
07531850186913437AD675906759000000268498001258000009071900012984840000001977006072023NYY15823ND6759800125060920232023158022194                                                                                                                                                                                                                                                                                                                                                                                                                                                                                                                                                                                              
07531860186913440AD675906759000000151648008888000009071900015954500000002487006072023NYY15823ND6759800888060920232023158022195                                                                                                                                                                                                                                                                                                                                                                                                                                                                                                                                                                                              
07531870186913443AD675906759000000151648008888000009071900014164270000001499006072023NYY15823ND6759800888060920232023158022198                                                                                                                                                                                                                                                                                                                                                                                                                                                                                                                                                                                              
07531880186913446AD675906759000000268498001258000009071900012877430000001977006072023NYY15823ND6759800125060920232023158022199                                                                                                                                                                                                                                                                                                                                                                                                                                                                                                                                                                                              
07531890186913449AD675906759000000268498001258000009071900012763830000002245006072023NYY15823ND6759800125060920232023158022200                                                                                                                                                                                                                                                                                                                                                                                                                                                                                                                                                                                              
07531900188666056BH6759067590000002325980011680000090170608202315923000000000021789    0000090001662296N8001166759D06092023066                                                                                                                                                                                                                                                                                                                                                                                                                                                                                                                                                                                              
07531910188666057DT67590675900000023259800116800000010680011674001193159900016622968060620230000002178915923000000000021789476585XXXXXX2865               0000000   YYV4 07T463158105078310N840000000021789C5Q900    01CNGFORCEHEMP844-258-9322   107780    VD84000000021789 NDR549977768166   D17C05A2DDTF76D69C3EDE1  000000000+                F DF 08168                     000000000  N000000000 369   0000000000000.00 0000000.00   0000000.00                             000000000000000                                                                                                                                                     015WPE 000000021789 0000000000000.00     00000 00000                  
07531920188666057DR675906759000000232598001168000000106D17C05A2DDTF76D69C3EDE1  Y000000021789                 P1                                                                                                                                                                                                                                                                                                                                                                                                                                                                                                                                                                                                            
07531930188660001P16759067590000002325980011680000001060000000000000000                             2000000000000000000000000              000000000000                    0000000000000000000000000                    000000000000                                                                                                                                                                                                                                                                                                                                                                                                                                                                                        
07531940188660002G2675906759000000232598001168000000106844-2589322              CA           9 D                00                                      NNNN   N                      000000000000                                                                   77768166                                                                                                                                                                                                                                                                                                                                                                                                                                               
07531950188666060BH6759067590000001767380010680000090170608202315923000000000013067    0000090001662167N8001066759D06092023066                                                                                                                                                                                                                                                                                                                                                                                                                                                                                                                                                                                              
07531960188666061DT67590675900000017673800106800000010680010674001193159900016621671060620230000001306715923000000000013067408039XXXXXX1669               0000000   YYV4 07T303158104604768N8400000000130679QXH00    01CNVGHEMP.COM833-246-5225   126045    VS84000000013067 NDR549977427364   1937D3199CT9E5F006DB8EB  000000000+                C CC 00245                     000000000  N000000000 166   0000000000000.00 0000000.00   0000000.00                             000000000000000                                                                                                                                                     015WPE 000000013067-0000000000002.30     01760 00000                  
07531970188666061DR6759067590000001767380010680000001061937D3199CT9E5F006DB8EB  Y000000013067                 P1                                                                                                                                                                                                                                                                                                                                                                                                                                                                                                                                                                                                            
07531980188660001P16759067590000001767380010680000001060000000000000000                             2000000000000000000000000              000000000000                    0000000000000000000000000                    000000000000                                                                                                                                                                                                                                                                                                                                                                                                                                                                                        
07531990188660002G2675906759000000176738001068000000106720-3077930              CA           9 C                00                                      NNNN   Y                      000000000000                                                                   77427364                                                                                                                                                                                                                                                                                                                                                                                                                                               
07532000188666064BH6759067590000002684980012580000090170608202315923000000000256272    0000090001565513N8001256759D06092023056                                                                                                                                                                                                                                                                                                                                                                                                                                                                                                                                                                                              
07532010188666065DT67590675900000026849800125800000010180012524001193159900015652987060620230000001789215923000000000256272474476XXXXXX4650               2111111   YYV4 A7W303154472583127N8400000000178924L9Z00    01DNCBD8885133385            110576    VD84000000017892 NDR599978220273   4C2DAF5BFBT66FAF5AFD336  000000000+                F DF 10420                     000000000  Y000000000 338   0000000000000.00 0000000.00   0000000.00                             000000000000000                                                                                                                                                     015WPEG000000017892 0000000000000.31     00050 02200                  
07532020188666065DR6759067590000002684980012580000001014C2DAF5BFBT66FAF5AFD336  Y000000017892                 P1                                                                                                                                                                                                                                                                                                                                                                                                                                                                                                                                                                                                            
07532030188660001P16759067590000002684980012580000001010000000000000000                             2000000000000000000000000              000000000000                    0000000000000000000000000                    000000000000                                                                                                                                                                                                                                                                                                                                                                                                                                                                                        
07532040188660002G2675906759000000268498001258000000101888-5133385              WY           9 D                00                                      NNNN   N                      000000000000                                                                   78220273                                                                                                                                                                                                                                                                                                                                                                                                                                               
07532050188666066DT67590675900000026849800125800000010180012587287283159900015653150060620230000001280315923000000000256272533248XXXXXX6905       ME03KE06MS02      YY 4607AMPVQREMDM0603  N840000000012803          81DNCBD8885133385            E09T5X    MD84000000012803 NDR599978220273   EBD1397962T4BC5F53FD7A8  000000000+600450S00130    MPV  09899                     000000000  N                0000000000000.00 0000000.00   0000000.00                             000000000000000                                                                                                                                                   U0015WPE 000000000000 0000000000002.45     01760 02000                  
07532060188666066DR675906759000000268498001258000000101EBD1397962T4BC5F53FD7A8  Y000000000000                                                                                                                                                                                                                                                                                                                                                                                                                                                                                                                                                                                                                               
07532070188660001G26759067590000002684980012580000001018885133385               WY           9 V               210                                      NNNN           210000000000000000000000000                                                                   78220273                                                                                                                                                                                                                                                                                                                                                                                                                                               
07532080188666067DT67590675900000026849800125800000010180012524001193159900015653175060620230000001977015923000000000256272443045XXXXXX5084               2111111   YYV4 A7W383155040784399N8400000000197705S6200    01DNCBD8885133385            597299    VD84000000019770 NDR599978220273   147DF6FF2CT64BEB532FA02  000000000+                F DF 10420                     000000000  Y000000000 338   0000000000000.00 0000000.00   0000000.00                             000000000000000                                                                                                                                                     015WPEG000000019770 0000000000000.32     00050 02200                  
07532090188666067DR675906759000000268498001258000000101147DF6FF2CT64BEB532FA02  Y000000019770                 P1                                                                                                                                                                                                                                                                                                                                                                                                                                                                                                                                                                                                            
07532100188660001P16759067590000002684980012580000001010000000000000000                             2000000000000000000000000              000000000000                    0000000000000000000000000                    000000000000                                                                                                                                                                                                                                                                                                                                                                                                                                                                                        
07532110188660002G2675906759000000268498001258000000101888-5133385              WY           9 D                00                                      NNNN   N                      000000000000                                                                   78220273                                                                                                                                                                                                                                                                                                                                                                                                                                               
07532120188666068DT67590675900000026849800125800000010180012587287283159900015653184060620230000001977015923000000000256272552433XXXXXX0455       ME03KE06PT01      YY 4607AMCWUYFKDM0603  N840000000019770          81DNCBD8885133385            03468Z    MC84000000019770 NDR599978220273   FFB02A110BT0A4C6698C2F6  000000000+600450S00130    MCW  00642                     000000000  N                0000000000000.00 0000000.00   0000000.00                             000000000000000                                                                                                                                                   U0015WPE 000000000000 0000000000004.45     02200 01000                  
07532130188666068DR675906759000000268498001258000000101FFB02A110BT0A4C6698C2F6  Y000000000000                                                                                                                                                                                                                                                                                                                                                                                                                                                                                                                                                                                                                               
07532140188660001G26759067590000002684980012580000001018885133385               WY           9 W               210                                      NNNN           210000000000000000000000000                        7                                          78220273                                                                                                                                                                                                                                                                                                                                                                                                                                               
07532150188666069DT67590675900000026849800125800000010680012574001193159900015654558060720230000001414715923000000000256272431196XXXXXX0458               0000000   YYV4 07T463158444113706N840000000014147HGC700    01CNCBD8885133385            007029    VS84000000014147 NDR599978220273   DC7DDCD365T9C32336B3021  000000000+                B CB 00245                     000000000  N000000000 166   0000000000000.00 0000000.00   0000000.00                             000000000000000                                                                                                                                                     015WPE 000000014147-0000000000002.49     01760 00000                  
07532160188666069DR675906759000000268498001258000000106DC7DDCD365T9C32336B3021  U000000014147                 P1                                                                                                                                                                                                                                                                                                                                                                                                                                                                                                                                                                                                            
07532170188660001P16759067590000002684980012580000001060000000000000000                             2000000000000000000000000              000000000000                    0000000000000000000000000                    000000000000                                                                                                                                                                                                                                                                                                                                                                                                                                                                                        
07532180188660002G2675906759000000268498001258000000106888-5133385              WY           9 C                00                                      NNNN   Y                      000000000000                                                                   78220273                                                                                                                                                                                                                                                                                                                                                                                                                                               
07532190188666070DT67590675900000026849800125800000010680012574001193159900015654566060720230000000129515923000000000256272431196XXXXXX0458               0000000   YYV4 07T463158444249793N840000000001295ZMG200    01CNCBD8885133385            007244    VS84000000001295 NDR599978220273   DC7DDCD365T618206A35480  000000000+                B CB 00245                     000000000  N000000000 166   0000000000000.00 0000000.00   0000000.00                             000000000000000                                                                                                                                                     015WPE 000000001295-0000000000000.23     01760 00000                  
07532200188666070DR675906759000000268498001258000000106DC7DDCD365T618206A35480  U000000001295                 P1                                                                                                                                                                                                                                                                                                                                                                                                                                                                                                                                                                                                            
07532210188660001P16759067590000002684980012580000001060000000000000000                             2000000000000000000000000              000000000000                    0000000000000000000000000                    000000000000                                                                                                                                                                                                                                                                                                                                                                                                                                                                                        
07532220188660002G2675906759000000268498001258000000106888-5133385              WY           9 C                00                                      NNNN   Y                      000000000000                                                                   78220273                                                                                                                                                                                                                                                                                                                                                                                                                                               
07532230188666071DT67590675900000026849800125800000010680012574001193159900015654574060720230000000149515923000000000256272431196XXXXXX0458               0000000   YYV4 07T583158444352847N840000000001495CH5500    01CNCBD8885133385            007979    VS84000000001495 NDR599978220273   DC7DDCD365T73425BE7A224  000000000+                B CB 00245                     000000000  N000000000 166   0000000000000.00 0000000.00   0000000.00                             000000000000000                                                                                                                                                     015WPE 000000001495-0000000000000.26     01760 00000                  
07532240188666071DR675906759000000268498001258000000106DC7DDCD365T73425BE7A224  U000000001495                 P1                                                                                                                                                                                                                                                                                                                                                                                                                                                                                                                                                                                                            
07532250188660001P16759067590000002684980012580000001060000000000000000                             2000000000000000000000000              000000000000                    0000000000000000000000000                    000000000000                                                                                                                                                                                                                                                                                                                                                                                                                                                                                        
07532260188660002G2675906759000000268498001258000000106888-5133385              WY           9 C                00                                      NNNN   Y                      000000000000                                                                   78220273                                                                                                                                                                                                                                                                                                                                                                                                                                               
07532270188666072DT67590675900000026849800125800000010680012587287283159900015654588060720230000001977015923000000000256272546680XXXXXX1189                         YY 4607AMPLDE22360607  N840000000019770          81CNCBD8885133385            007129    MC84000000019770 NDR599978220273   AAC1FEC097TBF7D40663771  000000000+600450S00130    MPL  00564                     000000000  N                0000000000000.00 0000000.00   0000000.00                             000000000000000                                                                                                                                                     015WPE 000000000000-0000000000003.46     01750 00000                  
07532280188666072DR675906759000000268498001258000000106AAC1FEC097TBF7D40663771  R000000000000                                                                                                                                                                                                                                                                                                                                                                                                                                                                                                                                                                                                                               
07532290188660001G26759067590000002684980012580000001068885133385               WY           9 L               210                                      NNNN           210000000000000000000000000                        7                                          78220273                                                                                                                                                                                                                                                                                                                                                                                                                                               
07532300188666073DT67590675900000026849800125800000010680012587287283159900015654596060720230000000979815923000000000256272546680XXXXXX1189                         YY 4607AMPLJ6C02W0607  N840000000009798          81CNCBD8885133385            007018    MC84000000009798 NDR599978220273   AAC1FEC097T9ECA3DE753B5  000000000+600450S00130    MPL  00564                     000000000  N                0000000000000.00 0000000.00   0000000.00                             000000000000000                                                                                                                                                     015WPE 000000000000-0000000000001.71     01750 00000                  
07532310188666073DR675906759000000268498001258000000106AAC1FEC097T9ECA3DE753B5  R000000000000                                                                                                                                                                                                                                                                                                                                                                                                                                                                                                                                                                                                                               
07532320188660001G26759067590000002684980012580000001068885133385               WY           9 L               210                                      NNNN           210000000000000000000000000                        7                                          78220273                                                                                                                                                                                                                                                                                                                                                                                                                                               
07532330188666074DT67590675900000026849800125800000010680012587287283159900015654604060720230000000619815923000000000256272546680XXXXXX1189                         YY 4607AMPLZFA9350607  N840000000006198          81CNCBD8885133385            007413    MC84000000006198 NDR599978220273   AAC1FEC097TA733F2FC66DE  000000000+600450S00130    MPL  00564                     000000000  N                0000000000000.00 0000000.00   0000000.00                             000000000000000                                                                                                                                                     015WPE 000000000000-0000000000001.08     01750 00000                  
07532340188666074DR675906759000000268498001258000000106AAC1FEC097TA733F2FC66DE  R000000000000                                                                                                                                                                                                                                                                                                                                                                                                                                                                                                                                                                                                                               
07532350188660001G26759067590000002684980012580000001068885133385               WY           9 L               210                                      NNNN           210000000000000000000000000                        7                                          78220273                                                                                                                                                                                                                                                                                                                                                                                                                                               
07532360188666075DT67590675900000026849800125800000010680012587287283159900015655189060720230000001977015923000000000256272559767XXXXXX1342                         YY94607N         0607  N840000000000000          81CNCBD8885133385                      MD84000000019770 N  599978220273   0A8F22E7C0TFE49E1DDFAE6  000000000+600450S00130    MDJ  00560                     000000000  N                0000000000000.00 0000000.00   0000000.00                             000000000000000                                                                                                                                                     015WPE 000000000000 0000000000000.00     00000 00000                  
07532370188660001G26759067590000002684980012580000001068885133385               WY           9 J               210                                      NNNN           210000000000000000000000000                                                                   78220273                                                                                                                                                                                                                                                                                                                                                                                                                                               
07532380188666076DT67590675900000026849800125800000010680012587287283159900015655197060720230000000979815923000000000256272559767XXXXXX1342                         YY94607N         0607  N840000000000000          81CNCBD8885133385                      MD84000000009798 N  599978220273   0A8F22E7C0T244DE022FB0B  000000000+600450S00130    MDJ  00560                     000000000  N                0000000000000.00 0000000.00   0000000.00                             000000000000000                                                                                                                                                     015WPE 000000000000 0000000000000.00     00000 00000                  
07532390188660001G26759067590000002684980012580000001068885133385               WY           9 J               210                                      NNNN           210000000000000000000000000                                                                   78220273                                                                                                                                                                                                                                                                                                                                                                                                                                               
07532400188666077DT67590675900000026849800125800000010680012587287283159900015654646060720230000000204115923000000000256272514341XXXXXX9852                         YY 4607AMDSZ7O4350607  N840000000002041          81CNCBD8885133385            018672    MD84000000002041 NDR599978220273   84345B1686T205C88EA24D7  000000000+600450S00130    MDS  00560                     000000000  N                0000000000000.00 0000000.00   0000000.00                             000000000000000                                                                                                                                                     015WPE 000000000000 0000000000000.00     00000 00000                  
07532410188666077DR67590675900000026849800125800000010684345B1686T205C88EA24D7  U000000000000                                                                                                                                                                                                                                                                                                                                                                                                                                                                                                                                                                                                                               
07532420188660001G26759067590000002684980012580000001068885133385               WY           9 S               210                                      NNNN           210000000000000000000000000                                                                   78220273                                                                                                                                                                                                                                                                                                                                                                                                                                               
07532430188666078DT67590675900000026849800125800000010680012587287283159900015654653060720230000000979815923000000000256272514341XXXXXX9852                         YY 4607AMDSAW2J400607  N840000000009798          81CNCBD8885133385            025502    MD84000000009798 NDR599978220273   84345B1686T95CF77F19BF2  000000000+600450S00130    MDS  00560                     000000000  N                0000000000000.00 0000000.00   0000000.00                             000000000000000                                                                                                                                                     015WPE 000000000000 0000000000000.00     00000 00000                  
07532440188666078DR67590675900000026849800125800000010684345B1686T95CF77F19BF2  U000000000000                                                                                                                                                                                                                                                                                                                                                                                                                                                                                                                                                                                                                               
07532450188660001G26759067590000002684980012580000001068885133385               WY           9 S               210                                      NNNN           210000000000000000000000000                                                                   78220273                                                                                                                                                                                                                                                                                                                                                                                                                                               
07532460188666079DT67590675900000026849800125800000010680012587287283159900015654661060720230000000309915923000000000256272514341XXXXXX9852                         YY 4607AMDSZ712350607  N840000000003099          81CNCBD8885133385            015157    MD84000000003099 NDR599978220273   84345B1686T3FB8D2871842  000000000+600450S00130    MDS  00560                     000000000  N                0000000000000.00 0000000.00   0000000.00                             000000000000000                                                                                                                                                     015WPE 000000000000 0000000000000.00     00000 00000                  
07532470188666079DR67590675900000026849800125800000010684345B1686T3FB8D2871842  U000000000000                                                                                                                                                                                                                                                                                                                                                                                                                                                                                                                                                                                                                               
07532480188660001G26759067590000002684980012580000001068885133385               WY           9 S               210                                      NNNN           210000000000000000000000000                                                                   78220273                                                                                                                                                                                                                                                                                                                                                                                                                                               
07532490188666080DT67590675900000026849800125800000010680012587287283159900015654679060720230000000129515923000000000256272514341XXXXXX9852                         YY 4607AMDS6779350607  N840000000001295          81CNCBD8885133385            002723    MD84000000001295 NDR599978220273   84345B1686T18E1730AE501  000000000+600450S00130    MDS  00560                     000000000  N                0000000000000.00 0000000.00   0000000.00                             000000000000000                                                                                                                                                     015WPE 000000000000 0000000000000.00     00000 00000                  
07532500188666080DR67590675900000026849800125800000010684345B1686T18E1730AE501  U000000000000                                                                                                                                                                                                                                                                                                                                                                                                                                                                                                                                                                                                                               
07532510188660001G26759067590000002684980012580000001068885133385               WY           9 S               210                                      NNNN           210000000000000000000000000                                                                   78220273                                                                                                                                                                                                                                                                                                                                                                                                                                               
07532520188666081DT67590675900000026849800125800000010680012587287283159900015654687060720230000000149515923000000000256272514341XXXXXX9852                         YY 4607AMDSD8JR360607  N840000000001495          81CNCBD8885133385            028720    MD84000000001495 NDR599978220273   84345B1686T9BAD46FC5D90  000000000+600450S00130    MDS  00560                     000000000  N                0000000000000.00 0000000.00   0000000.00                             000000000000000                                                                                                                                                     015WPE 000000000000 0000000000000.00     00000 00000                  
07532530188666081DR67590675900000026849800125800000010684345B1686T9BAD46FC5D90  U000000000000                                                                                                                                                                                                                                                                                                                                                                                                                                                                                                                                                                                                                               
07532540188660001G26759067590000002684980012580000001068885133385               WY           9 S               210                                      NNNN           210000000000000000000000000                                                                   78220273                                                                                                                                                                                                                                                                                                                                                                                                                                               
07532550188666082DT67590675900000026849800125800000010180012524001193159900015654751060720230000002245015923000000000256272467010XXXXXX3262               2111111   YYV4 A7W303158534047574N840000000022450QC2M00    01DNCBD8885133385            633637    VD84000000022450 NDR599978220273   4765C2BF7ATC1EDCEA45105  000000000+                F DF 10420                     000000000  Y000000000 338   0000000000000.00 0000000.00   0000000.00                             000000000000000                                                                                                                                                     015WPEG000000022450 0000000000000.33     00050 02200                  
07532560188666082DR6759067590000002684980012580000001014765C2BF7ATC1EDCEA45105  Y000000022450                 P1                                                                                                                                                                                                                                                                                                                                                                                                                                                                                                                                                                                                            
07532570188660001P16759067590000002684980012580000001010000000000000000                             2000000000000000000000000              000000000000                    0000000000000000000000000                    000000000000                                                                                                                                                                                                                                                                                                                                                                                                                                                                                        
07532580188660002G2675906759000000268498001258000000101888-5133385              WY           9 D                00                                      NNNN   N                      000000000000                                                                   78220273                                                                                                                                                                                                                                                                                                                                                                                                                                               
07532590188666083DT67590675900000026849800125800000010680012574001193159900015654764060720230000001977015923000000000256272414720XXXXXX5597               0000000   YYV4 07T463158539118081N840000000019770L4Z900    01CNCBD8885133385            04932C    VS84000000019770 NDR599978220273   25BDC2D3EET30CC69D6CAD0  000000000+                C CC 00245                     000000000  N000000000 166   0000000000000.00 0000000.00   0000000.00                             000000000000000                                                                                                                                                     015WPE 000000019770-0000000000003.48     01760 00000                  
07532600188666083DR67590675900000026849800125800000010625BDC2D3EET30CC69D6CAD0  Y000000019770                 P1                                                                                                                                                                                                                                                                                                                                                                                                                                                                                                                                                                                                            
07532610188660001P16759067590000002684980012580000001060000000000000000                             2000000000000000000000000              000000000000                    0000000000000000000000000                    000000000000                                                                                                                                                                                                                                                                                                                                                                                                                                                                                        
07532620188660002G2675906759000000268498001258000000106888-5133385              WY           9 C                00                                      NNNN   Y                      000000000000                                                                   78220273                                                                                                                                                                                                                                                                                                                                                                                                                                               
07532630188666084DT67590675900000026849800125800000010680012574001193159900015654822060720230000000372315923000000000256272410039XXXXXX6404               0000000   YYV4 07T383158562958256N840000000003723B6PH00    01CNCBD8885133385            16105C    VS84000000003723 NDR599978220273   63AC99E10BT110F8AD82B60  000000000+                C CC 00245                     000000000  N000000000 166   0000000000000.00 0000000.00   0000000.00                             000000000000000                                                                                                                                                     015WPE 000000003723-0000000000000.66     01760 00000                  
07532640188666084DR67590675900000026849800125800000010663AC99E10BT110F8AD82B60  U000000003723                 P1                                                                                                                                                                                                                                                                                                                                                                                                                                                                                                                                                                                                            
07532650188660001P16759067590000002684980012580000001060000000000000000                             2000000000000000000000000              000000000000                    0000000000000000000000000                    000000000000                                                                                                                                                                                                                                                                                                                                                                                                                                                                                        
07532660188660002G2675906759000000268498001258000000106888-5133385              WY           9 C                00                                      NNNN   Y                      000000000000                                                                   78220273                                                                                                                                                                                                                                                                                                                                                                                                                                               
07532670188666085DT67590675900000026849800125800000010680012574001193159900015654855060720230000001977015923000000000256272410039XXXXXX5596               0000000   YYV4 07T383158587358483N840000000019770PQVD00    01CNCBD8885133385            44217D    VS84000000019770 NDR599978220273   3A003082B2T0C51CD7C0E11  000000000+                D CD 00245                     000000000  N000000000 166   0000000000000.00 0000000.00   0000000.00                             000000000000000                                                                                                                                                     015WPE 000000019770-0000000000003.48     01760 00000                  
07532680188666085DR6759067590000002684980012580000001063A003082B2T0C51CD7C0E11  U000000019770                 P1                                                                                                                                                                                                                                                                                                                                                                                                                                                                                                                                                                                                            
07532690188660001P16759067590000002684980012580000001060000000000000000                             2000000000000000000000000              000000000000                    0000000000000000000000000                    000000000000                                                                                                                                                                                                                                                                                                                                                                                                                                                                                        
07532700188660002G2675906759000000268498001258000000106888-5133385              WY           9 C                00                                      NNNN   Y                      000000000000                                                                   78220273                                                                                                                                                                                                                                                                                                                                                                                                                                               
07532710188666086DT67590675900000026849800125800000010680012587287283159900015654869060720230000000597415923000000000256272514750XXXXXX3043                         YY 4607AMDJBQDY900607  N840000000005974          81CNCBD8885133385            007516    MD84000000005974 NDR599978220273   23D3BFC4AATD7CA64DDB9D8  000000000+600450S00130    MDJ  10828                     000000000  1                0000000000000.00 0000000.00   0000000.00                             000000000000000                                                                                                                                                     015WPE 000000000000 0000000000000.00     00000 00000                  
07532720188666086DR67590675900000026849800125800000010623D3BFC4AATD7CA64DDB9D8  R000000000000                                                                                                                                                                                                                                                                                                                                                                                                                                                                                                                                                                                                                               
07532730188660001G26759067590000002684980012580000001068885133385               WY           9 J               210                                      NNNN           210000000000000000000000000                        7                                          78220273                                                                                                                                                                                                                                                                                                                                                                                                                                               
07532740188666087DT67590675900000026849800125800000010680012574001193159900015655209060720230000000988515923000000000256272422783XXXXXX8661               0000000   YY94 07N000000000000000N   000000000000          01CNCBD8885133385                      VD84000000009885 N  599978220273                            000000000+                F DF 08168                     000000000  N000000000 369   0000000000000.00 0000000.00   0000000.00                             000000000000000                                                                                                                                                     015WPE 000000000000 0000000000000.00     00000 00000                  
07532750188660001G2675906759000000268498001258000000106855-4401547              WY           9 D                00                                      NNNN00 N 00                   000000000000                                                                   78220273                                                                                                                                                                                                                                                                                                                                                                                                                                               
07532760188666088DT67590675900000026849800125800000010680012587287283159900015654919060720230000002245015923000000000256272552312XXXXXX1802                         YY 4607AMCWJLS0DT0607  N840000000022450          81CNCBD8885133385            007760    MC84000000022450 NDR599978220273   FB8B8AB171TC061765E547D  000000000+600450S00130    MCW  00564                     000000000  N                0000000000000.00 0000000.00   0000000.00                             000000000000000                                                                                                                                                     015WPE 000000000000-0000000000003.93     01750 00000                  
07532770188666088DR675906759000000268498001258000000106FB8B8AB171TC061765E547D  R000000000000                                                                                                                                                                                                                                                                                                                                                                                                                                                                                                                                                                                                                               
07532780188660001G26759067590000002684980012580000001068885133385               WY           9 W               210                                      NNNN           210000000000000000000000000                        7                                          78220273                                                                                                                                                                                                                                                                                                                                                                                                                                               
07532790188666089DT67590675900000026849800125800000010680012587287283159900015654927060720230000000979815923000000000256272552312XXXXXX1802                         YY 4607AMCWEIXB940607  N840000000009798          81CNCBD8885133385            007596    MC84000000009798 NDR599978220273   FB8B8AB171T4788FC2F60D5  000000000+600450S00130    MCW  00564                     000000000  N                0000000000000.00 0000000.00   0000000.00                             000000000000000                                                                                                                                                     015WPE 000000000000-0000000000001.71     01750 00000                  
07532800188666089DR675906759000000268498001258000000106FB8B8AB171T4788FC2F60D5  R000000000000                                                                                                                                                                                                                                                                                                                                                                                                                                                                                                                                                                                                                               
07532810188660001G26759067590000002684980012580000001068885133385               WY           9 W               210                                      NNNN           210000000000000000000000000                        7                                          78220273                                                                                                                                                                                                                                                                                                                                                                                                                                               
07532820188666090DT67590675900000026849800125800000010680012587287283159900015654935060720230000000619815923000000000256272552312XXXXXX1802                         YY 4607AMCWDL7X900607  N840000000006198          81CNCBD8885133385            007015    MC84000000006198 NDR599978220273   FB8B8AB171T1DF76029D920  000000000+600450S00130    MCW  00564                     000000000  N                0000000000000.00 0000000.00   0000000.00                             000000000000000                                                                                                                                                     015WPE 000000000000-0000000000001.08     01750 00000                  
07532830188666090DR675906759000000268498001258000000106FB8B8AB171T1DF76029D920  R000000000000                                                                                                                                                                                                                                                                                                                                                                                                                                                                                                                                                                                                                               
07532840188660001G26759067590000002684980012580000001068885133385               WY           9 W               210                                      NNNN           210000000000000000000000000                        7                                          78220273                                                                                                                                                                                                                                                                                                                                                                                                                                               
07532850188666091DT67590675900000026849800125800000010680012574001193159900015654947060720230000001482815923000000000256272459100XXXXXX9589               0000000   YYV4 07T583158652174830N8400000000148288FFD00    01CNCBD8885133385            030657    VD84000000014828 NDR599978220273   72AC716ECET053FDDFE151B  000000000+                F DF 08168                     000000000  N000000000 369   0000000000000.00 0000000.00   0000000.00                             000000000000000                                                                                                                                                     015WPE 000000014828 0000000000000.00     00000 00000                  
07532860188666091DR67590675900000026849800125800000010672AC716ECET053FDDFE151B  Y000000014828                 P1                                                                                                                                                                                                                                                                                                                                                                                                                                                                                                                                                                                                            
07532870188660001P16759067590000002684980012580000001060000000000000000                             2000000000000000000000000              000000000000                    0000000000000000000000000                    000000000000                                                                                                                                                                                                                                                                                                                                                                                                                                                                                        
07532880188660002G2675906759000000268498001258000000106888-5133385              WY           9 D                00                                      NNNN   N                      000000000000                                                                   78220273                                                                                                                                                                                                                                                                                                                                                                                                                                               
07532890188666092DT67590675900000026849800125800000010680012587287283159900015654992060720230000001977015923000000000256272510587XXXXXX6648                         YY 4607AMDSEG3D900607  N840000000019770          81CNCBD8885133385            032155    MD84000000019770 NDR599978220273   F19EF0D3A8T4EA91CE8C431  000000000+600450S00130    MDS  00560                     000000000  N                0000000000000.00 0000000.00   0000000.00                             000000000000000                                                                                                                                                     015WPE 000000000000 0000000000000.00     00000 00000                  
07532900188666092DR675906759000000268498001258000000106F19EF0D3A8T4EA91CE8C431  Y000000000000                                                                                                                                                                                                                                                                                                                                                                                                                                                                                                                                                                                                                               
07532910188660001G26759067590000002684980012580000001068885133385               WY           9 S               210                                      NNNN           210000000000000000000000000                        7                                          78220273                                                                                                                                                                                                                                                                                                                                                                                                                                               
07532920188666093DT67590675900000026849800125800000010680012574001193159900015655001060720230000000620715923000000000256272441839XXXXXX1327               0000000   YYV4 07T463158677234407N840000000006207VZSM00    01CNCBD8885133385            493141    VS84000000006207 NDR599978220273   A573C5C21DT03DD81598914  000000000+                B CB 00245                     000000000  N000000000 166   0000000000000.00 0000000.00   0000000.00                             000000000000000                                                                                                                                                     015WPE 000000006207-0000000000001.09     01760 00000                  
07532930188666093DR675906759000000268498001258000000106A573C5C21DT03DD81598914  U000000006207                 P1                                                                                                                                                                                                                                                                                                                                                                                                                                                                                                                                                                                                            
07532940188660001P16759067590000002684980012580000001060000000000000000                             2000000000000000000000000              000000000000                    0000000000000000000000000                    000000000000                                                                                                                                                                                                                                                                                                                                                                                                                                                                                        
07532950188660002G2675906759000000268498001258000000106888-5133385              WY           9 C                00                                      NNNN   Y                      000000000000                                                                   78220273                                                                                                                                                                                                                                                                                                                                                                                                                                               
07532960188666094DT67590675900000026849800125800000010680012587287283159900015655015060720230000001977015923000000000256272519452XXXXXX3264                         YY 4607AMCWLK8IDT0607  N840000000019770          81CNCBD8885133385            051309    MC84000000019770 NDR599978220273   55DC23937CT772A64783B7B  000000000+600450S00130    MCW  00564                     000000000  N                0000000000000.00 0000000.00   0000000.00                             000000000000000                                                                                                                                                     015WPE 000000000000-0000000000003.46     01750 00000                  
07532970188666094DR67590675900000026849800125800000010655DC23937CT772A64783B7B  Y000000000000                                                                                                                                                                                                                                                                                                                                                                                                                                                                                                                                                                                                                               
07532980188660001G26759067590000002684980012580000001068885133385               WY           9 W               210                                      NNNN           210000000000000000000000000                        7                                          78220273                                                                                                                                                                                                                                                                                                                                                                                                                                               
07532990188666095DT67590675900000026849800125800000010680012574001193159900015655043060720230000000867015923000000000256272451336XXXXXX3192               0000000   YYV4 07T303158705905087N840000000008670F3Z700    01CNCBD8885133385            08904D    VS84000000008670 NDR599978220273   7E8E3A5420TAD1608939AA8  000000000+                D CD 00245                     000000000  N000000000 166   0000000000000.00 0000000.00   0000000.00                             000000000000000                                                                                                                                                     015WPE 000000008670-0000000000001.53     01760 00000                  
07533000188666095DR6759067590000002684980012580000001067E8E3A5420TAD1608939AA8  N000000008670                 P1                                                                                                                                                                                                                                                                                                                                                                                                                                                                                                                                                                                                            
07533010188660001P16759067590000002684980012580000001060000000000000000                             2000000000000000000000000              000000000000                    0000000000000000000000000                    000000000000                                                                                                                                                                                                                                                                                                                                                                                                                                                                                        
07533020188660002G2675906759000000268498001258000000106888-5133385              WY           9 C                00                                      NNNN   Y                      000000000000                                                                   78220273                                                                                                                                                                                                                                                                                                                                                                                                                                               
07533030188666096DT67590675900000026849800125800000010680012574001193159900015655076060720230000001482815923000000000256272414734XXXXXX5056               0000000   YYV4 07T303158727810988N840000000014828QHPB00    01CNCBD8885133385            03486D    VS84000000014828 NDR599978220273   15D861BCDET2753BA059821  000000000+                D CD 00245                     000000000  N000000000 166   0000000000000.00 0000000.00   0000000.00                             000000000000000                                                                                                                                                     015WPE 000000014828-0000000000002.61     01760 00000                  
07533040188666096DR67590675900000026849800125800000010615D861BCDET2753BA059821  Z000000014828                 P1                                                                                                                                                                                                                                                                                                                                                                                                                                                                                                                                                                                                            
07533050188660001P16759067590000002684980012580000001060000000000000000                             2000000000000000000000000              000000000000                    0000000000000000000000000                    000000000000                                                                                                                                                                                                                                                                                                                                                                                                                                                                                        
07533060188660002G2675906759000000268498001258000000106888-5133385              WY           9 C                00                                      NNNN   Y                      000000000000                                                                   78220273                                                                                                                                                                                                                                                                                                                                                                                                                                               
07533070188666097DT67590675900000026849800125800000010680012587287283159900015655213060720230000001692015923000000000256272523803XXXXXX4949                         YY94607N         0607  N840000000000000          81CNCBD8885133385                      MD84000000016920 N  599978220273   DEF1DE40ABTF15845A4EEB2  000000000+600450S00130    MDJ  00560                     000000000  N                0000000000000.00 0000000.00   0000000.00                             000000000000000                                                                                                                                                     015WPE 000000000000 0000000000000.00     00000 00000                  
07533080188660001G26759067590000002684980012580000001068885133385               WY           9 J               210                                      NNNN           210000000000000000000000000                        7                                          78220273                                                                                                                                                                                                                                                                                                                                                                                                                                               
07533090188666098DT67590675900000026849800125800000010680012576509753159900015655103060720230000001459215923000000000256272601100XXXXXX0852   BA00                  YY 4 07N873136283791001N840000000014592    00    01CNCBD8885133385            00777R    DS84000000014592 NDR599978220273070                         000000000+1015104910600   DCCDI01022168091  163939200000 000000000  0          134   0000000000000.00 0000000.00   0000000.00                             000000000000000                                                                                                                                                     015WPE 000000000000-0000000000002.55     01750 00000                  
07533100188666098DR675906759000000268498001258000000106                         R                                                                                                                                                                                                                                                                                                                                                                                                                                                                                                                                                                                                                                           
07533110188660001G2675906759000000268498001258000000106855-4401547              WY           9 C                00                                      NNNN                          000000000000                         00000650975601179750000543                78220273                                                                                                                                                                                                                                                                                                                                                                                                                                               
07533120188666099DT67590675900000026849800125800000010680012587287283159900015655114060720230000001603515923000000000256272552486XXXXXX7883                         YY 4607AMWEUKMIF40607  N840000000016035          81CNCBD8885133385            044377    MC84000000016035 NDR599978220273   EE0F727EF6T4654EF498763  000000000+600450S00130    MWE  00564                     000000000  N                0000000000000.00 0000000.00   0000000.00                             000000000000000                                                                                                                                                     015WPE 000000000000-0000000000002.81     01750 00000                  
07533130188666099DR675906759000000268498001258000000106EE0F727EF6T4654EF498763  Z000000000000                                                                                                                                                                                                                                                                                                                                                                                                                                                                                                                                                                                                                               
07533140188660001G26759067590000002684980012580000001068885133385               WY           9 E               210                                      NNNN           210000000000000000000000000                        7                                          78220273                                                                                                                                                                                                                                                                                                                                                                                                                                               
07533150188666100DT67590675900000026849800125800000010680012587287283159900015655130060720230000001977015923000000000256272559591XXXXXX9774                         YY 4607AMCWKQS8O10607  N840000000019770          81CNCBD8885133385            005784    MC84000000019770 NDR599978220273   AC8A2AAC1ATA6312BBF1025  000000000+600450S00130    MCW  00564                     000000000  N                0000000000000.00 0000000.00   0000000.00                             000000000000000                                                                                                                                                     015WPE 000000000000-0000000000003.46     01750 00000                  
07533160188666100DR675906759000000268498001258000000106AC8A2AAC1ATA6312BBF1025  Y000000000000                                                                                                                                                                                                                                                                                                                                                                                                                                                                                                                                                                                                                               
07533170188660001G26759067590000002684980012580000001068885133385               WY           9 W               210                                      NNNN           210000000000000000000000000                        7                                          78220273                                                                                                                                                                                                                                                                                                                                                                                                                                               
07533180189440002BH6759067590000000288180088880000090170608202315923000000000015769    0000090001310005N8008886759C06092023031                                                                                                                                                                                                                                                                                                                                                                                                                                                                                                                                                                                              
07533190189440003DT67590675900000002881800888800000010180088877287283159900013100015060820230000000395015923000000000015769514377XXXXXX2987       MS02WI09          NY 1 0 AMDJG7J4KH0608  N840000000003950          07DNHAPPY HIPPIE             1AG12R    MD84000000003950 N  549976487169                            000000000+M10101M0034C    MDJ  00402                     000000000  N                0000000000000.00 0000000.00   0000000.00                             000000000000000                                                                                                                                                   B101418  000000000000 0000000000000.56     01050 01500                  
07533200189440001E1675906759000000028818008888000000101000008480006 00000000000.00404040404040404040404040404040404040404040404040400110A04001220000000000000000000000FF00000000000000000000000000  00010840198000000080012306081397635AB1CB7C0FF9C9E6A9404040400840A0000000041010000000000000000000404040404040404040404040404040404040401F40404040 000000039.50 000000000.001F03020000000000000000    80                                                                                                                                                                                                                                                                                                                  
