00013290442120002BH6759067590000003469480014280000090170619202317023000000000060449    0000090001040009Y8001426759C06202023004                                                                                                                                                                                                                                                                                                                                                                                                                                                                                                                                                                                              
00013300442120003DT67590675900000034694800142800000010680014287287283170900010400081061920230000000100017023000000000060449512230XXXXXX2143                         NY 4607AMWETO9VLN0619  N840000000001000          81CNHORIZON WHOLESALE LLC    183756    MC84000000001000 N  549978512084   8455311248               000000000+600450S00130    MWE  00565                     000000000  N                0000000000000.00 0000000.00   0000000.00                             000000000000000                                                                                                                                                     01424  000000000000-0000000000000.18     01750 00000                  
00013310442120001G2675906759000000346948001428000000106801-5186233              UT           9 E               210                                      NNNN           210000000000000000000000000                                                                   78512084                                                                                                                                                                                                                                                                                                                                                                                                                                               
00013320442120004DT67590675900000034694800142800000010180014287287283170900010400099061920230000006144917023000000000060449516086XXXXXX4012                         NY 4607AMCBI6B51S0619  N840000000061449          81DNHORIZON WHOLESALE LLC    69977Z    MB84000000061449 NDR549978512084   8455687601               000000000+600450S00130    MCB  11033                     000000000  N                0000000000000.00 0000000.00   0000000.00                             000000000000000                                                                                                                                                   U001424  000000000000 0000000000016.38     02650 01000                  
00013330442120004DR6759067590000003469480014280000001018455687601               Y000000000000                 P1                                                                                                                                                                                                                                                                                                                                                                                                                                                                                                                                                                                                            
00013340442120001P1675906759000000346948001428000000101                                                          000000000000          8000            461803169                                                                                                                                                                                                                                                                                                                                                                                                                                                                                                                                                            
00013350442120002G2675906759000000346948001428000000101801-5186233              UT           9 B               210                  461803169           YNNN           210000000000000000000000000                        7                                          78512084                                                                                                                                                                                                                                                                                                                                                                                                                                               
00013360442120005BH675906759000000300808001328000009017061920231702300000000000268401970000090001060153N8001326759D06202023006                                                                                                                                                                                                                                                                                                                                                                                                                                                                                                                                                                                              
00013370442120006DT67590675900000030080800132800000010680013287287283170900010601530061920230000000268417023000000000002684517805XXXXXX5501                         NN 4607AMPLKWAE6B0619  N840000000002684          81CNCBD18882414921           0155840197MC84000000002684 NDR549978391202   04FC4CBA66T607CDE11B5A5  000000000+600450S00130    MPL  00000                     000000000  N                0000000000000.00 0000000.00   0000000.00             000000000002684C000000000000000                                                                                                                                                     01424  000000000000 0000000000000.00     00000 00000                  
00013380442120006DR67590675900000030080800132800000010604FC4CBA66T607CDE11B5A5  Y000000000000                                                                                                                                                                                                                                                                                                                                                                                                                                                                                                                                                                                                                               
00013390442120001G2675906759000000300808001328000000106188-82414921             CA           9 L               210                                      NNNN           210000000000000000000000000                        7                                          78391202                                                                                                                                                                                                                                                                                                                                                                                                                                               
00013400442120007BH6759067590000002684980012580000090170619202317023000000000046348    0000090001686856Y8001256759C06202023068                                                                                                                                                                                                                                                                                                                                                                                                                                                                                                                                                                                              
00013410442120008DT67590675900000026849800125800000010180012587287283170900016864702061820230000001285117023000000000046348514616XXXXXX7265       ME03KE06MS02      NY 4607AMDJX0G4VL0615  N840000000012851          81DNCBD8885133385            3E41B6    MD84000000012851 NDR599978220273   F1F9B18047TAED54BB97DB2  000000000+600450S00130    MDJ  00401                     000000000  N                0000000000000.00 0000000.00   0000000.00                             000000000000000                                                                                                                                                   U001424  000000000000 0000000000002.27     01650 01500                  
00013420442120008DR675906759000000268498001258000000101F1F9B18047TAED54BB97DB2  Y000000000000                                                                                                                                                                                                                                                                                                                                                                                                                                                                                                                                                                                                                               
00013430442120001G2675906759000000268498001258000000101855-4401547              WY           9 J               210                                      NNNN           210000000000000000000000000                        7                                          78220273                                                                                                                                                                                                                                                                                                                                                                                                                                               
00013440442120009DT67590675900000026849800125800000010180012524001193170900016864727061820230000001280317023000000000046348473702XXXXXX5564               2111111   NYV4 A7W583166617572342N840000000012803BXJJ00    01DNCBD8885133385            020009    VD84000000012803 NDR599978220273   42DE3BC304TF20170885B74  000000000+                F DF 10420                     000000000  Y000000000 338   0000000000000.00 0000000.00   0000000.00                             000000000000000                                                                                                                                                     01424 G000000012803 0000000000000.28     00050 02200                  
00013450442120009DR67590675900000026849800125800000010142DE3BC304TF20170885B74  Y000000012803                 P1                                                                                                                                                                                                                                                                                                                                                                                                                                                                                                                                                                                                            
00013460442120001P16759067590000002684980012580000001010000000000000000                             2000000000000000000000000              000000000000                    0000000000000000000000000                    000000000000                                                                                                                                                                                                                                                                                                                                                                                                                                                                                        
00013470442120002G2675906759000000268498001258000000101888-5133385              WY           9 D                00                                      NNNN   N                      000000000000                                                                   78220273                                                                                                                                                                                                                                                                                                                                                                                                                                               
00013480442120010DT67590675900000026849800125800000010180012524001193170900016864743061820230000001977017023000000000046348429435XXXXXX2659               2111111   NYV4 A7W303166652862519N840000000019770MGRD00    01DNCBD8885133385            015403    VS84000000019770 NDR599978220273   9279B1B656TD33471C880D5  000000000+                D CD 12109                     000000000  N000000000 498   0000000000000.00 0000000.00   0000000.00                             000000000000000                                                                                                                                                     01424 G000000019770 0000000000005.04     02500 01000                  
00013490442120010DR6759067590000002684980012580000001019279B1B656TD33471C880D5  Y000000019770                 P1                                                                                                                                                                                                                                                                                                                                                                                                                                                                                                                                                                                                            
00013500442120001P16759067590000002684980012580000001010000000000000000                             2000000000000000000000000              000000000000                    0000000000000000000000000                    000000000000                                                                                                                                                                                                                                                                                                                                                                                                                                                                                        
00013510442120002G2675906759000000268498001258000000101888-5133385              WY           9 C                00                                      NNNN   Y                      000000000000                                                                   78220273                                                                                                                                                                                                                                                                                                                                                                                                                                               
00013520442120011DT67590675900000026849800125800000010180012576509753170900016864964061920230000001977017023000000000046348601101XXXXXX8766   BA00                  NY 4 07N873143752559924N840000000019770    00    01DNCBD8885133385            01697P    DS84000000019770 NDR599978220273070                         000000000+1015104910600   DCPDI11327834863  080735000000 000000000  0          462   0000000000000.00 0000000.00   0000000.00                             000000000000000                                                                                                                                                     01424  000000000000 0000000000004.15     02050 01000                  
00013530442120011DR675906759000000268498001258000000101                         Y                                                                                                                                                                                                                                                                                                                                                                                                                                                                                                                                                                                                                                           
00013540442120001G2675906759000000268498001258000000101855-4401547              WY           9 P                00                                      NNNN                          000000000000                         00000650975601179750000543                78220273                                                                                                                                                                                                                                                                                                                                                                                                                                               
00013550442120012DT67590675900000026849800125800000010180012587287283170900016864975061920230000001977017023000000000046348511006XXXXXX7796       ME03KE06MS02      NY 4607AMDJO77I4U0616  N840000000019770          81DNCBD8885133385            436173    MD84000000019770 NDR599978220273   B597A9A5DATA5C2BD5B5566  000000000+600450S00130    MDJ  00401                     000000000  N                0000000000000.00 0000000.00   0000000.00                             000000000000000                                                                                                                                                   U001424  000000000000 0000000000003.41     01650 01500                  
00013560442120012DR675906759000000268498001258000000101B597A9A5DATA5C2BD5B5566  Y000000000000                                                                                                                                                                                                                                                                                                                                                                                                                                                                                                                                                                                                                               
00013570442120001G2675906759000000268498001258000000101855-4401547              WY           9 J               210                                      NNNN           210000000000000000000000000                        7                                          78220273                                                                                                                                                                                                                                                                                                                                                                                                                                               
00013580442120013DT67590675900000026849800125800000010180012587287283170900016865147061920230000001977017023000000000046348517479XXXXXX5739       ME03KE06PT01      NY 4607AMCWU33V110616  N840000000019770          81DNCBD8885133385            01601P    MC84000000019770 NDR599978220273   4D418A8A33T860E5DA95601  000000000+600450S00130    MCW  00642                     000000000  N                0000000000000.00 0000000.00   0000000.00                             000000000000000                                                                                                                                                   U001424  000000000000 0000000000004.45     02200 01000                  
00013590442120013DR6759067590000002684980012580000001014D418A8A33T860E5DA95601  Y000000000000                                                                                                                                                                                                                                                                                                                                                                                                                                                                                                                                                                                                                               
00013600442120001G2675906759000000268498001258000000101855-4401547              WY           9 W               210                                      NNNN           210000000000000000000000000                        7                                          78220273                                                                                                                                                                                                                                                                                                                                                                                                                                               
00013610442120014DT67590675900000026849800125800000010180012587287283170900016865253061920230000001977017023000000000046348545313XXXXXX4263       ME03KE06MS02      NY 4607AMDJFTXGDK0616  N840000000019770          81DNCBD8885133385            011186    MD84000000019770 NDR599978220273   DA7A872C82T4F6A25DB2392  000000000+600450S00130    MDJ  00401                     000000000  N                0000000000000.00 0000000.00   0000000.00                             000000000000000                                                                                                                                                   U001424  000000000000 0000000000003.41     01650 01500                  
00013620442120014DR675906759000000268498001258000000101DA7A872C82T4F6A25DB2392  Y000000000000                                                                                                                                                                                                                                                                                                                                                                                                                                                                                                                                                                                                                               
00013630442120001G2675906759000000268498001258000000101855-4401547              WY           9 J               210                                      NNNN           210000000000000000000000000                                                                   78220273                                                                                                                                                                                                                                                                                                                                                                                                                                               
00013640442120015DT67590675900000026849800125800000010680012587287283170900016868216061920230000001489217023000000000046348542418XXXXXX2702                         NY 4607AMPLWB28LN0619  N840000000014892          81CNCBD8885133385            069296    MC84000000014892 NDR599978220273   41F5C96A0ETC2FBF7DDFE61  000000000+600450S00130    MPL  00564                     000000000  N                0000000000000.00 0000000.00   0000000.00                             000000000000000                                                                                                                                                     01424  000000000000-0000000000002.61     01750 00000                  
00013650442120015DR67590675900000026849800125800000010641F5C96A0ETC2FBF7DDFE61  U000000000000                                                                                                                                                                                                                                                                                                                                                                                                                                                                                                                                                                                                                               
00013660442120001G2675906759000000268498001258000000106855-4401547              WY           9 L               210                                      NNNN           210000000000000000000000000                        7                                          78220273                                                                                                                                                                                                                                                                                                                                                                                                                                               
00013670442120016DT67590675900000026849800125800000010680012587287283170900016868232061920230000001977017023000000000046348521333XXXXXX9904                         NY 4607AMPLBOVXWT0619  N840000000019770          81CNCBD8885133385            019826    MC84000000019770 NDR599978220273   F191E63164T2E616130549D  000000000+600450S00130    MPL  00564                     000000000  N                0000000000000.00 0000000.00   0000000.00                             000000000000000                                                                                                                                                     01424  000000000000-0000000000003.46     01750 00000                  
00013680442120016DR675906759000000268498001258000000106F191E63164T2E616130549D  R000000000000                                                                                                                                                                                                                                                                                                                                                                                                                                                                                                                                                                                                                               
00013690442120001G2675906759000000268498001258000000106855-4401547              WY           9 L               210                                      NNNN           210000000000000000000000000                        7                                          78220273                                                                                                                                                                                                                                                                                                                                                                                                                                               
00013700442120017DT67590675900000026849800125800000010680012587287283170900016868299061920230000000692017023000000000046348546700XXXXXX0835                         NY 4607AMPLV6LHLQ0619  N840000000006920          81CNCBD8885133385            095670    MC84000000006920 NDR599978220273   F3A8BD66B2T9695293F0ED4  000000000+600450S00130    MPL  00564                     000000000  N                0000000000000.00 0000000.00   0000000.00                             000000000000000                                                                                                                                                     01424  000000000000-0000000000001.21     01750 00000                  
00013710442120017DR675906759000000268498001258000000106F3A8BD66B2T9695293F0ED4  Z000000000000                                                                                                                                                                                                                                                                                                                                                                                                                                                                                                                                                                                                                               
00013720442120001G2675906759000000268498001258000000106855-4401547              WY           9 L               210                                      NNNN           210000000000000000000000000                        7                                          78220273                                                                                                                                                                                                                                                                                                                                                                                                                                               
00013730442120018DT67590675900000026849800125800000010680012574001193170900016868400061920230000001680417023000000000046348427082XXXXXX4280               0000000   NYV4 07T583170539839468N8400000000168046G7M00    01CNCBD8885133385            019249    VS84000000016804 NDR599978220273   9EF6753169TCDBBA3158D15  000000000+                C CC 00245                     000000000  N000000000 166   0000000000000.00 0000000.00   0000000.00                             000000000000000                                                                                                                                                     01424  000000016804-0000000000002.96     01760 00000                  
00013740442120018DR6759067590000002684980012580000001069EF6753169TCDBBA3158D15  U000000016804                 P1                                                                                                                                                                                                                                                                                                                                                                                                                                                                                                                                                                                                            
00013750442120001P16759067590000002684980012580000001060000000000000000                             2000000000000000000000000              000000000000                    0000000000000000000000000                    000000000000                                                                                                                                                                                                                                                                                                                                                                                                                                                                                        
00013760442120002G2675906759000000268498001258000000106888-5133385              WY           9 C                00                                      NNNN   Y                      000000000000                                                                   78220273                                                                                                                                                                                                                                                                                                                                                                                                                                               
00013770442120019DT67590675900000026849800125800000010680012574001193170900016868566061920230000001977017023000000000046348414741XXXXXX3503               0000000   NYV4 07T383170607021664N840000000019770JBCW00    01CNCBD8885133385            019412    VS84000000019770 NDR599978220273   7AF5CB139FT388056440F41  000000000+                C CC 00245                     000000000  N000000000 166   0000000000000.00 0000000.00   0000000.00                             000000000000000                                                                                                                                                     01424  000000019770-0000000000003.48     01760 00000                  
00013780442120019DR6759067590000002684980012580000001067AF5CB139FT388056440F41  U000000019770                 P1                                                                                                                                                                                                                                                                                                                                                                                                                                                                                                                                                                                                            
00013790442120001P16759067590000002684980012580000001060000000000000000                             2000000000000000000000000              000000000000                    0000000000000000000000000                    000000000000                                                                                                                                                                                                                                                                                                                                                                                                                                                                                        
00013800442120002G2675906759000000268498001258000000106888-5133385              WY           9 C                00                                      NNNN   Y                      000000000000                                                                   78220273                                                                                                                                                                                                                                                                                                                                                                                                                                               
00013810442120020BH6759067590000001857280010580000090170619202317023000000000014189    0000090001020004Y8001056759C06202023102                                                                                                                                                                                                                                                                                                                                                                                                                                                                                                                                                                                              
00013820442120021DT67590675900000018572800105800000010180010524001193170900010200019061920230000000481317023000000000014189435546XXXXXX8430       VS11    0001111   NYV1 A E303170769653486N8400000000048136Z7W00    05DNGALLERY SMOKE SHOP LLC   127098    VD84000000004813 N  599977453598                            000000000+                F DF 10433                     000000000  Y000000000 338   0000000000000.00 0000000.00   0000000.00                             000000000000000                                                                                                                                                     01424 A000000000000 0000000000000.24     00050 02200                  
00013830442120001E167590675900000018572800105800000010100E0F8C80033 00000000000.004040404040404040404040404040404040404040404040404006011203A00000000000000000000000404040404040404040404040404040  00010840180080000080002306193BD4FB06EF00974FEB7D856E404040400840A0000000031010000000000000000000D5AC2E970082000000000000000000004040405E40404040 000000048.13 000000000.005E00000000000000000000    80                                                                                                                                                                                                                                                                                                                  
00013840442120002G2675906759000000185728001058000000101SEMINOLE                 FL           5 D                00                                      NNNN00 N 00                   000000000000                                                                   77453598                                                                                                                                                                                                                                                                                                                                                                                                                                               
00013850442120022DT67590675900000018572800105800000010180010524001193170900010200050061920230000000571317023000000000014189417903XXXXXX7937       VS11    0001111   NYV1 A E463170835385491N840000000005713879H00    05DNGALLERY SMOKE SHOP LLC   819121    VS84000000005713 N  599977453598                            000000000+                D CD 12113                     000000000  N000000000 499   0000000000000.00 0000000.00   0000000.00                             000000000000000                                                                                                                                                     01424 A000000000000 0000000000001.30     02100 01000                  
00013860442120001E167590675900000018572800105800000010100E0F8C80079 00000000000.004040404040404040404040404040404040404040404040404006011203A0A000000000000000000000404040404040404040404040404040  0001084018008000008000230619FE7843BBC4C93CCDA5F0C23B404040400840A0000000031010000000000000000000F385BDDC9DDFE8A930300000000000004040405E40404040 000000057.13 000000000.005E00000000000000000000    80                                                                                                                                                                                                                                                                                                                  
00013870442120002G2675906759000000185728001058000000101SEMINOLE                 FL           5 C                00                                      NNNN00 Y 00                   000000000000                                                                   77453598                                                                                                                                                                                                                                                                                                                                                                                                                                               
00013880442120023DT67590675900000018572800105800000033080010576759003170900010200022061920230000000134817023000000000014189440393XXXXXX4186                         NY 2 0 N               N840000000001348      IL  05DNGALLERY SMOKE SHOP LLC   258873    DB84000000001348 N  599977453598                            000000000+                     09576                                N          346   0000000000000.00 0000000.00   0000000.00                             000000000000000                                                                                                                                                     01424  000000000000 0000000000000.31     01150 00000                  
00013890442120001G2675906759000000185728001058000000330SEMINOLE                 FL           5 P                00                                      NNNN                          000000000000                                                                   77453598                                                                                                                                                                                                                                                                                                                                                                                                                                               
00013900442120024DT67590675900000018572800105800000033080010576759003170900010200030061920230000000049717023000000000014189531260XXXXXX2996                         NY42 0 N               N840000000000497      ME  05DNGALLERY SMOKE SHOP LLC   193294    DB84000000000497 N  599977453598                            000000000+                     09601                                1          MA1   0000000000000.00 0000000.00   0000000.00                             000000000000000                                                                                                                                                     01424  000000000000 0000000000000.22     00050 00000                  
00013910442120001G2675906759000000185728001058000000330SEMINOLE                 FL           5 D                00                                      NNNN                          000000000000                                                                   77453598                                                                                                                                                                                                                                                                                                                                                                                                                                               
00013920442120025DT67590675900000018572800105800000033080010576759003170900010200048061920230000000181817023000000000014189531260XXXXXX7901                         NY42 0 N               N840000000001818      ME  05DNGALLERY SMOKE SHOP LLC   132834    DB84000000001818 N  599977453598                            000000000+                     09601                                1          MA1   0000000000000.00 0000000.00   0000000.00                             000000000000000                                                                                                                                                     01424  000000000000 0000000000000.23     00050 00000                  
00013930442120001G2675906759000000185728001058000000330SEMINOLE                 FL           5 D                00                                      NNNN                          000000000000                                                                   77453598                                                                                                                                                                                                                                                                                                                                                                                                                                               
00013940442120026BH6759067590000002430780012180000090170619202317023000000000003713    0000090001060001Y8001216759C06202023006                                                                                                                                                                                                                                                                                                                                                                                                                                                                                                                                                                                              
00013950442120027DT67590675900000024307800121800000010180012124001193170900010600010061920230000000371317023000000000003713430637XXXXXX2453       VS11    0001111   NYV1 A E463170606542574N8400000000037134DT200    05DNTHE APOTHECARY LLC       938245    VD84000000003713 N  549978198652                            000000000+                F DF 00381                     000000000  N000000000       0000000000000.00 0000000.00   0000000.00                             000000000000000                                                                                                                                                     01424 A000000000000 0000000000000.45     00800 01500                  
00013960442120001E167590675900000024307800121800000010100E0F8C801B8 00000000000.004040404040404040404040404040404040404040404040404006011203A0A000000000000000000000404040404040404040404040404040  00000840180080800080002306199BB7CDBFC57A41E9D745157E404040400840A000000003101000000000000000000065BF79D20382000000000000000000004040401E40404040 000000037.13 000000000.001E00000000000000000000    80                                                                                                                                                                                                                                                                                                                  
00013970442120002G2675906759000000243078001218000000101SWANSEA                  MA           5 D                00                                      NNNN00 N 00                   000000000000                                                                   78198652                                                                                                                                                                                                                                                                                                                                                                                                                                               
00013980442120028BH6759067590000002962980013180000090170619202317023000000000125418    0000090001280016Y8001316759C06202023028                                                                                                                                                                                                                                                                                                                                                                                                                                                                                                                                                                                              
00013990442120029DT67590675900000029629800131800000010180013124001193170900012800014061820230000000963017023000000000125418459954XXXXXX8760       VS11    0001111   NYV1 A E303169612726180N840000000009630LSGT00    05DNPAK VENTURES             H29809    VD84000000009630 N  599978419189                            000000000+                F DF 10433                     000000000  Y000000000 338   0000000000000.00 0000000.00   0000000.00                             000000000000000                                                                                                                                                     01424 A000000000000 0000000000000.27     00050 02200                  
00014000442120001E167590675900000029629800131800000010100E0F8C803EA 00000000000.004040404040404040404040404040404040404040404040404006010A03A0A812000000000000000000404040404040404040404040404040  000008403D000080008000230618DA697BCE96EDEFAC9FB2C2EE404040400840A0000000031010000000000000000000CEAF3FB0AA60C00230300000000000004040401E40404040 000000096.30 000000000.001E03000000000000000000    80                                                                                                                                                                                                                                                                                                                  
00014010442120002G2675906759000000296298001318000000101MILTON                   FL           5 D                00                                      NNNN00 N 00                   000000000000                                                                   78419189                                                                                                                                                                                                                                                                                                                                                                                                                                               
00014020442120030DT67590675900000029629800131800000010180013124001193170900012800022061820230000000350017023000000000125418440393XXXXXX7309       VS11    0001111   NYV1 A E463169624084549N840000000003500H8NR00    05DNPAK VENTURES             843963    VD84000000003500 N  599978419189                            000000000+                F PF 08170                     000000000  N000000000       0000000000000.00 0000000.00   0000000.00                             000000000000000                                                                                                                                                     01424 A000000000000 0000000000000.55     01150 01500                  
00014030442120001E167590675900000029629800131800000010100E0F8C800AF 00000000000.004040404040404040404040404040404040404040404040404006011203A0A000000000000000000000404040404040404040404040404040  000008401800808000800023061870EC6FF006EF9D610EAAAF8F404040400840A000000003101000000000000000000047C902A284FC381330300000000000004040401E40404040 000000035.00 000000000.001E00000000000000000000    80                                                                                                                                                                                                                                                                                                                  
00014040442120002G2675906759000000296298001318000000101MILTON                   FL           5 P                00                                      NNNN00 N 00                   000000000000                                                                   78419189                                                                                                                                                                                                                                                                                                                                                                                                                                               
00014050442120031DT67590675900000029629800131800000010180013124001193170900012800030061820230000001177017023000000000125418473702XXXXXX2681       VS11    0001111   NYV1 A E463169636611961N840000000011770XVN400    05DNPAK VENTURES             072183    VD84000000011770 N  599978419189                            000000000+                F DF 10433                     000000000  Y000000000 338   0000000000000.00 0000000.00   0000000.00                             000000000000000                                                                                                                                                     01424 A000000000000 0000000000000.28     00050 02200                  
00014060442120001E167590675900000029629800131800000010100E0F8C801DC 00000000000.004040404040404040404040404040404040404040404040404006061203A0A000000000000000000000404040404040404040404040404040  00000840180080800080002306181104373D0A67EADAD5EBDF48404040400840A00000000310100000000000000000006070E010D04030B020200000000000004040401E40404040 000000117.70 000000000.001E00000000000000000000    80                                                                                                                                                                                                                                                                                                                  
00014070442120002G2675906759000000296298001318000000101MILTON                   FL           5 D                00                                      NNNN00 N 00                   000000000000                                                                   78419189                                                                                                                                                                                                                                                                                                                                                                                                                                               
00014080442120032DT67590675900000029629800131800000010180013177287283170900012800040061820230000000100017023000000000125418551056XXXXXX3249       MS02WI09          NY 1 0 AMDJMM4YCG0618  N840000000001000          05DNPAK VENTURES             033524    MD84000000001000 N  599978419189                            000000000+M10101C5434C    MDJ  00402                     000000000  N                0000000000000.00 0000000.00   0000000.00                             000000000000000                                                                                                                                                   B101424  000000000000 0000000000000.26     01050 01500                  
00014090442120001E167590675900000029629800131800000010100E0F8C805D6 00000000000.00404040404040404040404040404040404040404040404040400110A00001220000000000000000000000FF00000000000000000000000000  00000840180080000080002306182706F29D34AFD323B7A41E13404040400840A0000000041010000000000000000000F889CC945923EBD700120000000000004040401E40404040 000000010.00 000000000.001E03000000000000000000    80                                                                                                                                                                                                                                                                                                                  
00014100442120002G2675906759000000296298001318000000101MILTON                   FL           5 J                                                        NNNN              000000000000000000000000                        7                                          78419189                                                                                                                                                                                                                                                                                                                                                                                                                                               
00014110442120033DT67590675900000029629800131800000010180013124001193170900012800055061820230000000963017023000000000125418406095XXXXXX7328       VS11    0001111   NYV1 A E463169695834566N840000000009630H9X300    05DNPAK VENTURES             08310D    VS84000000009630 N  599978419189                            000000000+                D CD 12113                     000000000  N000000000 499   0000000000000.00 0000000.00   0000000.00                             000000000000000                                                                                                                                                     01424 A000000000000 0000000000002.12     02100 01000                  
00014120442120001E167590675900000029629800131800000010100E0F8C8005E 00000000000.004040404040404040404040404040404040404040404040404006011203A00018000000000000000000404040404040404040404040404040  0001084018008080008000230618D46F2EFEDECEC32E57DD54D2404040400840A000000003101000000000000000000079123C6D0082000000000000000000004040401E40404040 000000096.30 000000000.001E00000000000000000000    80                                                                                                                                                                                                                                                                                                                  
00014130442120002G2675906759000000296298001318000000101MILTON                   FL           5 C                00                                      NNNN00 Y 00                   000000000000                                                                   78419189                                                                                                                                                                                                                                                                                                                                                                                                                                               
00014140442120034DT67590675900000029629800131800000010180013176509753170900012800061061820230000000600017023000000000125418601100XXXXXX6207   BA50                  NY41 0 N753145710325750N840000000006000    00    05DNPAK VENTURES             01898R    DS84000000006000 N  599978419189050                         000000000+0000004910H00   DCCDI01000334072  153032000000 000000000  0          112   0000000000000.00 0000000.00   0000000.00                             000000000000000                                                                                                                                                     01424  000000000000 0000000000001.13     01720 01000                  
00014150442120001E167590675900000029629800131800000010100E0F8C8010C 00000000000.00404040404040404040404040404040404040404040404040400105A0800F8000000000000000000000404040404040404040404040404040  00010840780000000080002306184F3287B2728F6E5CAE8AF580404040400840A0000001523010000000000000000000010A95B338E7D34D00320000000000004040401E40404040 000000060.00 000000000.001E03000000000000000000    80                                                                                                                                                                                                                                                                                                                  
00014160442120002G2675906759000000296298001318000000101MILTON                   FL           5 C                00                                      NNNN                          000000000000                         00000650975601179750000600                78419189                                                                                                                                                                                                                                                                                                                                                                                                                                               
00014170442120035DT67590675900000029629800131800000010180013124001193170900012800071061820230000000535017023000000000125418406095XXXXXX1660       VS11    0001111   NYV1 A E463169704642354N8400000000053506XHG00    05DNPAK VENTURES             02736D    VS84000000005350 N  599978419189                            000000000+                D CD 12113                     000000000  N000000000 499   0000000000000.00 0000000.00   0000000.00                             000000000000000                                                                                                                                                     01424 A000000000000 0000000000001.22     02100 01000                  
00014180442120001E167590675900000029629800131800000010100E0F8C8016A 00000000000.004040404040404040404040404040404040404040404040404006011203A08018000000000000000000404040404040404040404040404040  00050840180080800080002306188800C7CFC4D45A2ECC4725AD404040400840A0000000031010000000000000000000B03721D00082000000000000000000004040401E40404040 000000053.50 000000000.001E00000000000000000000    80                                                                                                                                                                                                                                                                                                                  
00014190442120002G2675906759000000296298001318000000101MILTON                   FL           5 C                00                                      NNNN00 Y 00                   000000000000                                                                   78419189                                                                                                                                                                                                                                                                                                                                                                                                                                               
00014200442120036DT67590675900000029629800131800000010180013124001193170900012800089061820230000001284017023000000000125418400022XXXXXX8137       VS11    0001111   NYV1 A E303169707738967N840000000012840ZJFK00    05DNPAK VENTURES             468856    VD84000000012840 N  599978419189                            000000000+                F DF 10433                     000000000  Y000000000 338   0000000000000.00 0000000.00   0000000.00                             000000000000000                                                                                                                                                     01424 A000000000000 0000000000000.28     00050 02200                  
00014210442120001E167590675900000029629800131800000010100E0F8C800F6 00000000000.004040404040404040404040404040404040404040404040404006021203A0A000000000000000000000404040404040404040404040404040  00000840180080800080002306180CC2E9D1EAC85DC6ED320816404040400840A0000000031010000000000000000000404040404040404040404040404040404040401E40404040 000000128.40 000000000.001E00000000000000000000    80                                                                                                                                                                                                                                                                                                                  
00014220442120002G2675906759000000296298001318000000101MILTON                   FL           5 D                00                                      NNNN00 N 00                   000000000000                                                                   78419189                                                                                                                                                                                                                                                                                                                                                                                                                                               
00014230442120037DT67590675900000029629800131800000010180013124001193170900012800097061820230000000749017023000000000125418498503XXXXXX0323       VS11    0001111   NYV1 A E583169772008931N840000000007490PRF300    05DNPAK VENTURES             008122    VD84000000007490 N  599978419189                            000000000+                F DF 00381                     000000000  N000000000       0000000000000.00 0000000.00   0000000.00                             000000000000000                                                                                                                                                     01424 A000000000000 0000000000000.75     00800 01500                  
00014240442120001E167590675900000029629800131800000010100E0F8C80221 00000000000.004040404040404040404040404040404040404040404040404006010A03A0A000000000000000000000404040404040404040404040404040  0000084018008080008000230618179A9BB73CCB6DC2B1CF614F404040400840A0000000031010000000000000000000CB944CD2D71EC99730300000000000004040401E40404040 000000074.90 000000000.001E00000000000000000000    80                                                                                                                                                                                                                                                                                                                  
00014250442120002G2675906759000000296298001318000000101MILTON                   FL           5 D                00                                      NNNN00 N 00                   000000000000                                                                   78419189                                                                                                                                                                                                                                                                                                                                                                                                                                               
00014260442120038DT67590675900000029629800131800000010180013177287283170900012800107061920230000000577817023000000000125418514968XXXXXX5858       MS02WI09          NY 1 0 AMDJIIZS6B0619  N840000000005778          05DNPAK VENTURES             582373    MD84000000005778 N  599978419189                            000000000+M10101C5434C    MDJ  00402                     000000000  N                0000000000000.00 0000000.00   0000000.00                             000000000000000                                                                                                                                                   B101424  000000000000 0000000000000.76     01050 01500                  
00014270442120001E167590675900000029629800131800000010100E0F8C80043 00000000000.00404040404040404040404040404040404040404040404040400110A04001220000000000000000000000FF00000000000000000000000000  0000084039000000008000230619ABF496ADF2836FEA2C310299404040400840A0000000041010000000000000000000C48F93CFB79999BA031A0000000000004040401E40404040 000000057.78 000000000.001E03000000000000000000    80                                                                                                                                                                                                                                                                                                                  
00014280442120002G2675906759000000296298001318000000101MILTON                   FL           5 J                                                        NNNN              000000000000000000000000                        7                                          78419189                                                                                                                                                                                                                                                                                                                                                                                                                                               
00014290442120039DT67590675900000029629800131800000010180013173011003170900012800119061920230000001070017023000000000125418372271XXXXX1001                          NY 1 0 N005327031034327N840000000010700          05DNPAK VENTURES             808659    AM84000000010700 Y  599978419189                            000000000+51010155434C 258     11262                     000000000                   0000000000000.00 0000000.00   0000000.00                             000000000000000 61248972086759675900000029629 PAK VENTURES             4430 US 90 UNIT H        8502810009      32571     DELTALIFEPENSACOLA@GMAIL.COM              01324  000000000000 0000000000002.19     01950 00000                  
00014300442120001E167590675900000029629800131800000010100E0F8C801BB 00000000000.004040404040404040404040404040404040404040404040404006570103A0A006000000000000000000404040404040404040404040404040  000008403C000000008000230619C79737DA0FE2FE7D7E9A2432404040400840A00000002501080100000000000000009AF2E4FBA728D35130300000000000004040401E40404040 000000107.00 000000000.001E03000000000000000000    80                                                                                                                                                                                                                                                                                                                  
00014310442120002G2675906759000000296298001318000000101MILTON                   FL           5                  00                                      NNNN                          000000000000                                                                   78419189                                                                                                                                                                                                                                                                                                                                                                                                                                               
00014320442120040DT67590675900000029629800131800000010180013124001193170900012800121061920230000000428017023000000000125418465345XXXXXX6951       VS11    0001111   NYV1 A E303170674549096N840000000004280FB9S00    05DNPAK VENTURES             318611    VD84000000004280 N  599978419189                            000000000+                F DF 10433                     000000000  Y000000000 338   0000000000000.00 0000000.00   0000000.00                             000000000000000                                                                                                                                                     01424 A000000000000 0000000000000.24     00050 02200                  
00014330442120001E167590675900000029629800131800000010100E0F8C80115 00000000000.004040404040404040404040404040404040404040404040404006011203A0A000000000000000000000404040404040404040404040404040  00000840180080800080002306198F0806CC2252715DD6D4567E404040400840A0000000031010000000000000000000404040404040404040404040404040404040401E40404040 000000042.80 000000000.001E00000000000000000000    80                                                                                                                                                                                                                                                                                                                  
00014340442120002G2675906759000000296298001318000000101MILTON                   FL           5 D                00                                      NNNN00 N 00                   000000000000                                                                   78419189                                                                                                                                                                                                                                                                                                                                                                                                                                               
00014350442120041DT67590675900000029629800131800000010180013177287283170900012800131061920230000001284017023000000000125418542418XXXXXX1530       MS02WI09          NY 1 0 AMPLS2ZH1S0619  N840000000012840          05DNPAK VENTURES             85919B    MC84000000012840 N  599978419189                            000000000+M10101C5434C    MPL  00353                     000000000  N                0000000000000.00 0000000.00   0000000.00                             000000000000000                                                                                                                                                   B101424  000000000000 0000000000002.41     01800 01000                  
00014360442120001E167590675900000029629800131800000010100E0F8C80043 00000000000.00404040404040404040404040404040404040404040404040400110A04001220000000000000000000000FF00000000000000000000000000  0001084039000000008000230619085F9633AD3348BFB68408AC404040400840A0000000041010000000000000000000CCEAAF047C6B04A300120000000000004040401E40404040 000000128.40 000000000.001E03000000000000000000    80                                                                                                                                                                                                                                                                                                                  
00014370442120002G2675906759000000296298001318000000101MILTON                   FL           5 L                                                        NNNN              000000000000000000000000                        7                                          78419189                                                                                                                                                                                                                                                                                                                                                                                                                                               
00014380442120042DT67590675900000029629800131800000010180013124001193170900012800147061920230000001070017023000000000125418435545XXXXXX4525       VS11    0001111   NYV1 A E383170720523861N8400000000107004ZSZ00    05DNPAK VENTURES             092072    VD84000000010700 N  599978419189                            000000000+                F DF 10433                     000000000  Y000000000 338   0000000000000.00 0000000.00   0000000.00                             000000000000000                                                                                                                                                     01424 A000000000000 0000000000000.27     00050 02200                  
00014390442120001E167590675900000029629800131800000010100E0F8C80030 00000000000.004040404040404040404040404040404040404040404040404006011203A00000000000000000000000404040404040404040404040404040  0001084018008080008000230619A788F83054C8C4A056046AD7404040400840A0000000031010000000000000000000D2D60CB60082000000000000000000004040401E40404040 000000107.00 000000000.001E00000000000000000000    80                                                                                                                                                                                                                                                                                                                  
00014400442120002G2675906759000000296298001318000000101MILTON                   FL           5 D                00                                      NNNN00 N 00                   000000000000                                                                   78419189                                                                                                                                                                                                                                                                                                                                                                                                                                               
00014410442120043DT67590675900000029629800131800000010180013124001193170900012800154061920230000000856017023000000000125418400022XXXXXX4275       VS11    0001111   NYV1 A E303170744861054N840000000008560NZ2B00    05DNPAK VENTURES             670822    VD84000000008560 N  599978419189                            000000000+                F DF 10433                     000000000  Y000000000 338   0000000000000.00 0000000.00   0000000.00                             000000000000000                                                                                                                                                     01424 A000000000000 0000000000000.26     00050 02200                  
00014420442120001E167590675900000029629800131800000010100E0F8C801A0 00000000000.004040404040404040404040404040404040404040404040404006021203A02000000000000000000000404040404040404040404040404040  0000084018008080008000230619CF95D960EC4C77495E94A333404040400840A0000000031010000000000000000000404040404040404040404040404040404040401E40404040 000000085.60 000000000.001E00000000000000000000    80                                                                                                                                                                                                                                                                                                                  
00014430442120002G2675906759000000296298001318000000101MILTON                   FL           5 D                00                                      NNNN00 N 00                   000000000000                                                                   78419189                                                                                                                                                                                                                                                                                                                                                                                                                                               
00014440442120044DT67590675900000029629800131800000010180013124001193170900012800162061920230000000535017023000000000125418423223XXXXXX1437       VS11    0001111   NYV1 A E463170770592811N8400000000053504QPM00    05DNPAK VENTURES             094430    VD84000000005350 N  599978419189                            000000000+                F DF 00381                     000000000  N000000000       0000000000000.00 0000000.00   0000000.00                             000000000000000                                                                                                                                                     01424 A000000000000 0000000000000.58     00800 01500                  
00014450442120001E167590675900000029629800131800000010100E0F8C80446 00000000000.004040404040404040404040404040404040404040404040404006011203A0A000000000000000000000404040404040404040404040404040  0000084018008080008000230619A9E223E03222D33B31536628404040400840A00000000310100000000000000000000BFD847C0080000000000000000000004040401E40404040 000000053.50 000000000.001E00000000000000000000    80                                                                                                                                                                                                                                                                                                                  
00014460442120002G2675906759000000296298001318000000101MILTON                   FL           5 D                00                                      NNNN00 N 00                   000000000000                                                                   78419189                                                                                                                                                                                                                                                                                                                                                                                                                                               
00014470442120045BH6759067590000001165080088880000090170619202317023000000000047544    0000090001310019Y8008886759C06202023131                                                                                                                                                                                                                                                                                                                                                                                                                                                                                                                                                                                              
00014480442120046DT67590675900000011650800888800000010180088877287283170900013100010061920230000000283017023000000000047544522914XXXXXX9388       MS02WI09          NY 1 0 AMDJUTZXLN0619  N840000000002830          05DNVPODS HOLDING INC        010122    MD84000000002830 N  599977032122                            000000000+M10101C5434C    MDJ  10815                     000000000  1                0000000000000.00 0000000.00   0000000.00                             000000000000000                                                                                                                                                   B101424  000000000000 0000000000000.23     00050 02200                  
00014490442120001E167590675900000011650800888800000010100E0F8C80142 00000000000.00404040404040404040404040404040404040404040404040400110A00001220000000000000000000000FF00000000000000000000000000  000008401800800000800023061915C161811803E4162A854406404040400840A000000004101000000000000000000012BDB44E777B17A9031A0000000000004040401E40404040 000000028.30 000000000.001E03000000000000000000    80                                                                                                                                                                                                                                                                                                                  
00014500442120002G2675906759000000116508008888000000101CHICAGO                  IL           5 J                                                        NNNN              000000000000000000000000                        7                                          77032122                                                                                                                                                                                                                                                                                                                                                                                                                                               
00014510442120047DT67590675900000011650800888800000010180088824001193170900013100026061920230000000226417023000000000047544409745XXXXXX4699       VS11    0001111   NYV1 A E303170597745298N840000000002264TD9V00    07DNVPODS HOLDING INC        043612    VD84000000002264 N  599977032122                            000000000+                F DF 10433                     000000000  Y000000000 338   0000000000000.00 0000000.00   0000000.00                             000000000000000                                                                                                                                                     01424 A000000000000 0000000000000.23     00050 02200                  
00014520442120001E167590675900000011650800888800000010100E068C80116 00000000000.00404040404040404040404040404040404040404040404040401F4A0132A00000000010030273000000004000000000000000000000000000  00000840004000000000002306193BE6C9737F9D67E3DE484649404040400840A0000000031010000000000000000000675D397554EA80E130300000000000004040404040404040 000000022.64 000000000.004040400000000000000000    80                                                                                                                                                                                                                                                                                                                  
00014530442120002G2675906759000000116508008888000000101CHICAGO                  IL           5 D                00                                      NNNN00 N 00                   000000000000                                                                   77032122                                                                                                                                                                                                                                                                                                                                                                                                                                               
00014540442120048DT67590675900000011650800888800000010180088824001193170900013100034061920230000000181117023000000000047544426684XXXXXX9593       VS11    0001111   NYV1 A E383170614238789N8400000000018116CMD00    07DNVPODS HOLDING INC        00301D    VS84000000001811 N  599977032122                            000000000+                D CD 12113                     000000000  N000000000 499   0000000000000.00 0000000.00   0000000.00                             000000000000000                                                                                                                                                     01424 A000000000000 0000000000000.48     02100 01000                  
00014550442120001E167590675900000011650800888800000010100E068C800FC 00000000000.004040404040404040404040404040404040404040404040404006021203A00000000000000000000000404040404040404040404040404040  0001084020000000000000230619909699793C9D0FA754318D81404040400840A000000003101000000000000000000034F5DE420082000000000000000000004040404040404040 000000018.11 000000000.004040400000000000000000    80                                                                                                                                                                                                                                                                                                                  
00014560442120002G2675906759000000116508008888000000101CHICAGO                  IL           5 C                00                                      NNNN00 Y 00                   000000000000                                                                   77032122                                                                                                                                                                                                                                                                                                                                                                                                                                               
00014570442120049DT67590675900000011650800888800000010180088824001193170900013100042061920230000000357717023000000000047544478200XXXXXX9885       VS11    0001111   NYV1 A E583170654898729N840000000003577NXHG00    07DNVPODS HOLDING INC        091114    VD84000000003577 N  599977032122                            000000000+                F DF 10433                     000000000  Y000000000 338   0000000000000.00 0000000.00   0000000.00                             000000000000000                                                                                                                                                     01424 A000000000000 0000000000000.24     00050 02200                  
00014580442120001E167590675900000011650800888800000010100E068C805EF 00000000000.004040404040404040404040404040404040404040404040404006011203A00000000000000000000000404040404040404040404040404040  00000840000000000000002306190100000030F42DBABBE055A6404040400840A0000000031010000000000000000000404040404040404040404040404040404040404040404040 000000035.77 000000000.004040400000000000000000    80                                                                                                                                                                                                                                                                                                                  
00014590442120002G2675906759000000116508008888000000101CHICAGO                  IL           5 D                00                                      NNNN00 N 00                   000000000000                                                                   77032122                                                                                                                                                                                                                                                                                                                                                                                                                                               
00014600442120050DT67590675900000011650800888800000010180088824001193170900013100059061920230000000305717023000000000047544412186XXXXXX0880       VS11    0001111   NYV1 A E583170667174668N840000000003057MPJP00    07DNVPODS HOLDING INC        04731D    VS84000000003057 N  599977032122                            000000000+                D CD 12113                     000000000  N000000000 499   0000000000000.00 0000000.00   0000000.00                             000000000000000                                                                                                                                                     01424 A000000000000 0000000000000.74     02100 01000                  
00014610442120001E167590675900000011650800888800000010100E068C800C3 00000000000.00404040404040404040404040404040404040404040404040401F420132A00000000010030273000000004000000000000000000000000000  00000840006000000000002306199B5BB10E33B9CA924C2EEBE9404040400840A0000000031010000000000000000000777186DE0086000000000000000000004040404040404040 000000030.57 000000000.004040400000000000000000    80                                                                                                                                                                                                                                                                                                                  
00014620442120002G2675906759000000116508008888000000101CHICAGO                  IL           5 C                00                                      NNNN00 N 00                   000000000000                                                                   77032122                                                                                                                                                                                                                                                                                                                                                                                                                                               
00014630442120051DT67590675900000011650800888800000010180088824001193170900013100067061920230000001000017023000000000047544478200XXXXXX4194       VS11    0001111   NYV1 A E583170742615006N840000000010000Q56L00    05DNVPODS HOLDING INC        023716    VD84000000010000 N  599977032122                            000000000+                F DF 10433                     000000000  Y000000000 338   0000000000000.00 0000000.00   0000000.00                             000000000000000                                                                                                                                                     01424 A000000000000 0000000000000.27     00050 02200                  
00014640442120001E167590675900000011650800888800000010100E0F8C801EF 00000000000.004040404040404040404040404040404040404040404040404006011203A00000000000000000000000404040404040404040404040404040  0000084018008080008000230619E8E9B5350A6985206B8E1965404040400840A0000000031010000000000000000000907030700080000020200000000000004040401E40404040 000000100.00 000000000.001E00000000000000000000    80                                                                                                                                                                                                                                                                                                                  
00014650442120002G2675906759000000116508008888000000101CHICAGO                  IL           5 D                00                                      NNNN00 N 00                   000000000000                                                                   77032122                                                                                                                                                                                                                                                                                                                                                                                                                                               
00014660442120052DT67590675900000011650800888800000010180088877287283170900013100077061920230000000079217023000000000047544527520XXXXXX8308       MS02WI09          NY 1 0 AMDJOSQE2P0619  N840000000000792          07DNVPODS HOLDING INC        113602    MD84000000000792 N  599977032122                            000000000+M10101M0034C    MDJ  10815                     000000000  1                0000000000000.00 0000000.00   0000000.00                             000000000000000                                                                                                                                                   B101424  000000000000 0000000000000.22     00050 02200                  
00014670442120001E16759067590000001165080088880000001010000084800E2 00000000000.00404040404040404040404040404040404040404040404040400414A04301A20000000000000000000000FF00000000000000000000000000  0000084019800000008001230619ACEC10C4465E92AB1D7809E3404040400840A0000000041010000000000000000000404040404040404040404040404040404040401F40404040 000000007.92 000000000.001F03020000000000000000    80                                                                                                                                                                                                                                                                                                                  
00014680442120002G2675906759000000116508008888000000101CHICAGO                  IL           5 J                                                        NNNN              000000000000000000000000       03               7                                          77032122                                                                                                                                                                                                                                                                                                                                                                                                                                               
00014690442120053DT67590675900000011650800888800000010180088824001193170900013100083061920230000000226417023000000000047544465265XXXXXX5715               0001111   NYV1 B E383170804898044N840000000002264G3SH00    07DNVPODS HOLDING INC        838940    VD84000000002264FN  599977032122                            000000000+                F DF 00022                     000000000  N000000000       0000000000000.00 0000000.0000 0000000.23D                            000000000000000                                                                                                                                                     01424 A000000000000 0000000000000.25     01100 00000                  
00014700442120001E167590675900000011650800888800000010100E068C804E6 00000000000.00404040404040404040404040404040404040404040404040401F42FF31A00000000010030273000000004000000000000000000000000000  0000084000400000000000230619472237E30EE8D30C5926051B404040400840A00000000310100000000000000000009F339DD40086000000000000000000004040404040404040 000000022.64 000000000.004040400000000000000000    80                                                                                                                                                                                                                                                                                                                  
