01625300158320002BH6759067590000000215480088880000090171207202234122000000000168085    0000090001565720N8008886759C12082022                                                                                                                                                                                                                                                                                                                                                                                                                                                                                                                                                                                                 
01625310158320003DT67590675900000002154800888800000010180088887287282341900015624392120720220000002205034122000000000168085514377XXXXXX0945       ME03KE06MS02      NY 4607AMDJUGFFEA1207  N840000000022050          81DNDRIP DROP DISTRO LLC     1ZW9DN    MD84000000022050 N  519900000001   INV-27732                000000000+600450S00140    MDJ  00401                     000000000  N                0000000000000.00 0000000.00   0000000.00                             000000000000000                                                                                                                                                   U001418  000000000000 0000000000003.79     01650 01500                  
01625320158320004DT67590675900000002154800888800000010180088824001192341900015667754120720220000001250034122000000000168085424631XXXXXX5071               2111111   NYV4 A7W582340848526318N840000000012500MPR300    01DNDRIP DROP DISTRO LLC     02385G    VB84000000012500 NP1519971004114   INV-27703                000000000+                G3CG308002                     000000000  N000000000 381   0000000000000.00 0000000.00   0000000.00                             000000000000000                                                                                                                                                     01418 G000000012500 0000000000003.60     02800 01000                  
01625330158320001P16759067590000000215480088880000001010000000000000000    43806274874              2000000000000000000000000              000000000000                    0000000000000000000000000                    000000000000                                                                                                                                                                                                                                                                                                                                                                                                                                                                                        
01625340158320005DT67590675900000002154800888800000010180088887287282341900015647104120720220000003780034122000000000168085518941XXXXXX5089       ME03KE06MS02      NY 4607AMWEEUCID61207  N840000000037800          81DNDRIP DROP DISTRO LLC     18845Z    MC84000000037800 N  519900000001   INV-27734                000000000+600450S00140    MWE  00737                     000000000  N                0000000000000.00 0000000.00   0000000.00                             000000000000000                                                                                                                                                   U001418  000000000000 0000000000009.93     02600 01000                  
01625350158320006DT67590675900000002154800888800000010180088824001192341900015613238120720220000001325034122000000000168085438854XXXXXX3531               2111111   NYV4 A7W382341675226202N8400000000132505MZM00    01DNDRIP DROP DISTRO LLC     05683D    VS84000000013250 NP1519971004114   INV-27661                000000000+                D CD 12109                     000000000  N000000000 498   0000000000000.00 0000000.00   0000000.00                             000000000000000                                                                                                                                                     01418 G000000013250 0000000000003.41     02500 01000                  
01625360158320001P16759067590000000215480088880000001010000000000000000                             2000000000000000000000000              000000000000                    0000000000000000000000000                    000000000000                                                                                                                                                                                                                                                                                                                                                                                                                                                                                        
01625370158320007DT67590675900000002154800888800000010180088824001192341900015657201120720220000008248534122000000000168085403491XXXXXX1643               2111111   NYV4 A7W462341763401079N840000000082485QKB800    01DNDRIP DROP DISTRO LLC     104532    VD84000000082485 NP1519971004114   INV-27733                000000000+                G DG 10352                     000000000  Y000000000 338   0000000000000.00 0000000.00   0000000.00                             000000000000000                                                                                                                                                     01418 G000000082485 0000000000000.63     00050 02200                  
01625380158320001P16759067590000000215480088880000001010000000000000000    43807831633              2000000000000000000000000              000000000000                    0000000000000000000000000                    000000000000                                                                                                                                                                                                                                                                                                                                                                                                                                                                                        
