00005760557450002BH6759067590000000370780088880000090170522202314223000000000081759    0000090001160910Y8008886759C05232023                                                                                                                                                                                                                                                                                                                                                                                                                                                                                                                                                                                                 
00005770557450003DT67590675900000003707800888800000010180088824001193142900011609023052120230000000199814223000000000081759445208XXXXXX3953               2111111   NYV4 A7W583142004836506N8400000000019982FFT00    01DNMR HEMP FLOWER           155996    VD84000000001998 NP1549976053336   89944                    000000000+                F DF 00415                     000000000  N000000000       0000000000000.00 0000000.00   0000000.00                             000000000000000                                                                                                                                                     01424 G000000001998 0000000000000.48     01650 01500                  
00005780557450001P16759067590000000370780088880000001010000000000000000                             2000000000000000000000000              000000000000                    0000000000000000000000000                    000000000000                                                                                                                                                                                                                                                                                                                                                                                                                                                                                        
00005790557450004DT67590675900000003707800888800000010180088887287283142900011609032052220230000000524114223000000000081759552433XXXXXX3338       ME03KE06PT01      NY 4607AMCWJQV5SS0522  N840000000005241          81DNMR HEMP FLOWER           08443S    MC84000000005241 N  549976053336   89951                    000000000+600450S00130    MCW  02182                     000000000  N                0000000000000.00 0000000.00   0000000.00                             000000000000000                                                                                                                                                   U001424  000000000000 0000000000001.46     02600 01000                  
00005800557450005DT67590675900000003707800888800000010180088824001193142900011609049052220230000000644814223000000000081759448233XXXXXX3977               2111111   NYV4 A7W463142366799134N84000000000644899CL00    01DNMR HEMP FLOWER           051120    VD84000000006448 NP1549976053336   89952                    000000000+                F DF 10420                     000000000  Y000000000 338   0000000000000.00 0000000.00   0000000.00                             000000000000000                                                                                                                                                     01424 G000000006448 0000000000000.25     00050 02200                  
00005810557450001P16759067590000000370780088880000001010000000000000000                             2000000000000000000000000              000000000000                    0000000000000000000000000                    000000000000                                                                                                                                                                                                                                                                                                                                                                                                                                                                                        
00005820557450006DT67590675900000003707800888800000010180088887287283142900011609057052220230000000539914223000000000081759529099XXXXXX5819       ME03KE06MS02      NY 4607AMDJWQ78LK0522  N840000000005399          81DNMR HEMP FLOWER           073691    MD84000000005399 N  549976053336   89954                    000000000+600450S00130    MDJ  10813                     000000000  1                0000000000000.00 0000000.00   0000000.00                             000000000000000                                                                                                                                                   U001424  000000000000 0000000000000.25     00050 02200                  
00005830557450007DT67590675900000003707800888800000010180088824001193142900011609064052220230000001397514223000000000081759435545XXXXXX0266               2111111   NYV4 A7W383142443965484N840000000013975CP3W00    01DNMR HEMP FLOWER           073061    VD84000000013975 NP1549976053336   89955                    000000000+                F DF 10420                     000000000  Y000000000 338   0000000000000.00 0000000.00   0000000.00                             000000000000000                                                                                                                                                     01424 G000000013975 0000000000000.29     00050 02200                  
00005840557450001P16759067590000000370780088880000001010000000000000000                             2000000000000000000000000              000000000000                    0000000000000000000000000                    000000000000                                                                                                                                                                                                                                                                                                                                                                                                                                                                                        
00005850557450008DT67590675900000003707800888800000010180088824001193142900011609072052220230000000649914223000000000081759463404XXXXXX4073               2111111   NYV4 A7W383142711430645N840000000006499TWVS00    01DNMR HEMP FLOWER           022876    VS84000000006499 NP1549976053336   89965                    000000000+                C CC 12108                     000000000  N000000000 496   0000000000000.00 0000000.00   0000000.00                             000000000000000                                                                                                                                                     01424 G000000006499 0000000000001.43     02050 01000                  
00005860557450001P16759067590000000370780088880000001010000000000000000                             2000000000000000000000000              000000000000                    0000000000000000000000000                    000000000000                                                                                                                                                                                                                                                                                                                                                                                                                                                                                        
00005870557450009DT67590675900000003707800888800000010180088887287283142900011609081052220230000001920014223000000000081759546325XXXXXX1037       ME03KE06MS02      NY 4607AMWEAPO3ZB0522  N840000000019200          81DNMR HEMP FLOWER           01690P    MC84000000019200 N  549976053336   89966                    000000000+600450S00130    MWE  00737                     000000000  N                0000000000000.00 0000000.00   0000000.00                             000000000000000                                                                                                                                                   U001424  000000000000 0000000000005.09     02600 01000                  
00005880557450010DT67590675900000003707800888800000010180088887287283142900011609099052220230000001000014223000000000081759517070XXXXXX5943       ME03KE06MS02      NY 4607AMDJTGHIB20522  N840000000010000          81DNMR HEMP FLOWER           044419    MD84000000010000 N  549976053336   89967                    000000000+600450S00130    MDJ  00401                     000000000  N                0000000000000.00 0000000.00   0000000.00                             000000000000000                                                                                                                                                   U001424  000000000000 0000000000001.80     01650 01500                  
00005890557450011DT67590675900000003707800888800000010180088824001193142900011609106052220230000001299914223000000000081759466188XXXXXX4098               2111111   NYV4 A7W463142816897973N840000000012999ZNFB00    01DNMR HEMP FLOWER           043579    VD84000000012999 NP1549976053336   89968                    000000000+                F DF 10420                     000000000  Y000000000 338   0000000000000.00 0000000.00   0000000.00                             000000000000000                                                                                                                                                     01424 G000000012999 0000000000000.28     00050 02200                  
00005900557450001P16759067590000000370780088880000001010000000000000000                             2000000000000000000000000              000000000000                    0000000000000000000000000                    000000000000                                                                                                                                                                                                                                                                                                                                                                                                                                                                                        
00005910557450012BH6759067590000001516480088880000090170522202314223000000000362158    0000090001867825Y8008886759C05232023                                                                                                                                                                                                                                                                                                                                                                                                                                                                                                                                                                                                 
00005920557450013DT67590675900000015164800888800000010180088824001193142900018676116052120230000002487014223000000000362158410039XXXXXX5774               2111111   NYV4 A7W463138159061351N8400000000248706P9L00    01DNKETOFUSION833-923-3587   75574D    VS84000000024870 NP1599977360677   AFF3D8B1D4TD0B91DDC8118  000000000+                D CD 12109                     000000000  N000000000 498   0000000000000.00 0000000.00   0000000.00                             000000000000000                                                                                                                                                     01424 G000000024870 0000000000006.32     02500 01000                  
00005930557450001P16759067590000001516480088880000001010000000000000000                             2000000000000000000000000              000000000000                    0000000000000000000000000                    000000000000                                                                                                                                                                                                                                                                                                                                                                                                                                                                                        
00005940557450014DT67590675900000015164800888800000010180088887287283142900018676125052120230000001987014223000000000362158510750XXXXXX3895       ME03KE06MS02      NY 4607AMDSD432Z30517  N840000000019870          81DNKETOFUSION833-923-3587   660505    MD84000000019870 N  599977360677   BAC1E272C1TDD88B6926A27  000000000+600450S00130    MDS  00401                     000000000  N                0000000000000.00 0000000.00   0000000.00                             000000000000000                                                                                                                                                   U001424  000000000000 0000000000003.43     01650 01500                  
00005950557450015DT67590675900000015164800888800000010180088824001193142900018676132052120230000002487014223000000000362158426938XXXXXX4508               2111111   NYV4 A7W383138182035391N840000000024870JS7700    01DNKETOFUSION833-923-3587   018719    VS84000000024870 NP1599977360677   BF1ED8FD35T711916CB229D  000000000+                B CB 12107                     000000000  N000000000 494   0000000000000.00 0000000.00   0000000.00                             000000000000000                                                                                                                                                     01424 G000000024870 0000000000005.17     02040 01000                  
00005960557450001P16759067590000001516480088880000001010000000000000000                             2000000000000000000000000              000000000000                    0000000000000000000000000                    000000000000                                                                                                                                                                                                                                                                                                                                                                                                                                                                                        
00005970557450016DT67590675900000015164800888800000010180088887287283142900018676158052120230000002487014223000000000362158542539XXXXXX4148       ME03KE06MS02      NY 4607AMPLV5QCBO0518  N840000000024870          81DNKETOFUSION833-923-3587   018967    MC84000000024870 N  599977360677   A272E8C118TF68740CCCD2F  000000000+600450S00130    MPL  00013                     000000000  N                0000000000000.00 0000000.00   0000000.00                             000000000000000                                                                                                                                                   U001424  000000000000 0000000000004.95     01950 01000                  
00005980557450017DT67590675900000015164800888800000010180088824001193142900018676181052120230000001394814223000000000362158415342XXXXXX5876               2111111   NYV4 A7W583138402053545N840000000013948MJDD00    01DNKETOFUSION833-923-3587   041005    VD84000000013948 NP1599977360677   8AD73435FFT2118E48A80A3  000000000+                F DF 00415                     000000000  N000000000       0000000000000.00 0000000.00   0000000.00                             000000000000000                                                                                                                                                     01424 G000000013948 0000000000002.45     01650 01500                  
00005990557450001P16759067590000001516480088880000001010000000000000000                             2000000000000000000000000              000000000000                    0000000000000000000000000                    000000000000                                                                                                                                                                                                                                                                                                                                                                                                                                                                                        
00006000557450018DT67590675900000015164800888800000010180088887287283142900018676190052120230000000993514223000000000362158549806XXXXXX1053       ME03KE06MS02      NY 4607AMPLL9CV790518  N840000000009935          81DNKETOFUSION833-923-3587   018748    MC84000000009935 N  599977360677   45BA8C26DDT7871EBCD32C4  000000000+600450S00130    MPL  00013                     000000000  N                0000000000000.00 0000000.00   0000000.00                             000000000000000                                                                                                                                                   U001424  000000000000 0000000000002.04     01950 01000                  
00006010557450019DT67590675900000015164800888800000010180088824001193142900018676215052120230000001194814223000000000362158473702XXXXXX3060               2111111   NYV4 A7W383138408074214N840000000011948GTHP00    01DNKETOFUSION833-923-3587   089583    VD84000000011948 NP1599977360677   C3E33A1C50TCD685D9D7BA2  000000000+                F DF 10420                     000000000  Y000000000 338   0000000000000.00 0000000.00   0000000.00                             000000000000000                                                                                                                                                     01424 G000000011948 0000000000000.28     00050 02200                  
00006020557450001P16759067590000001516480088880000001010000000000000000                             2000000000000000000000000              000000000000                    0000000000000000000000000                    000000000000                                                                                                                                                                                                                                                                                                                                                                                                                                                                                        
00006030557450020DT67590675900000015164800888800000010180088824001193142900018676223052120230000001194814223000000000362158489224XXXXXX3460               2111111   NYV4 A7W463138411088544N840000000011948FFMX00    01DNKETOFUSION833-923-3587   665613    VD84000000011948 NP1599977360677   334A7FF118TC717A5408C16  000000000+                F DF 00415                     000000000  N000000000       0000000000000.00 0000000.00   0000000.00                             000000000000000                                                                                                                                                     01424 G000000011948 0000000000002.12     01650 01500                  
00006040557450001P16759067590000001516480088880000001010000000000000000                             2000000000000000000000000              000000000000                    0000000000000000000000000                    000000000000                                                                                                                                                                                                                                                                                                                                                                                                                                                                                        
00006050557450021DT67590675900000015164800888800000010180088824001193142900018676272052120230000002487014223000000000362158425836XXXXXX5432               2111111   NYV4 A7W583138472505892N840000000024870SVV400    01DNKETOFUSION833-923-3587   027104    VD84000000024870 NP1599977360677   8FE80A2060T2102A20AA403  000000000+                F DF 10420                     000000000  Y000000000 338   0000000000000.00 0000000.00   0000000.00                             000000000000000                                                                                                                                                     01424 G000000024870 0000000000000.34     00050 02200                  
00006060557450001P16759067590000001516480088880000001010000000000000000                             2000000000000000000000000              000000000000                    0000000000000000000000000                    000000000000                                                                                                                                                                                                                                                                                                                                                                                                                                                                                        
00006070557450022DT67590675900000015164800888800000010180088824001193142900018676306052120230000002487014223000000000362158443063XXXXXX0855               2111111   NYV4 A7W463138505185795N840000000024870H4NP00    01DNKETOFUSION833-923-3587   887913    VD84000000024870 NP1599977360677   2F18B4DCD9T3F9062B992FE  000000000+                F DF 10420                     000000000  Y000000000 338   0000000000000.00 0000000.00   0000000.00                             000000000000000                                                                                                                                                     01424 G000000024870 0000000000000.34     00050 02200                  
00006080557450001P16759067590000001516480088880000001010000000000000000                             2000000000000000000000000              000000000000                    0000000000000000000000000                    000000000000                                                                                                                                                                                                                                                                                                                                                                                                                                                                                        
00006090557450023DT67590675900000015164800888800000010180088887287283142900018676315052120230000001194814223000000000362158551849XXXXXX5401       ME03KE06MS02      NY 4607AMDJLQSEN20518  N840000000011948          81DNKETOFUSION833-923-3587   092011    MD84000000011948 N  599977360677   536D6C6FEFTCC4552F7F131  000000000+600450S00130    MDJ  00401                     000000000  N                0000000000000.00 0000000.00   0000000.00                             000000000000000                                                                                                                                                   U001424  000000000000 0000000000002.12     01650 01500                  
00006100557450024DT67590675900000015164800888800000010180088887287283142900018676331052120230000001987014223000000000362158532569XXXXXX0792       ME03KE06MS02      NY 4607AMDJYM6PE10518  N840000000019870          81DNKETOFUSION833-923-3587   528000    MD84000000019870 N  599977360677   AF9CDCCAB8T6959BE98E445  000000000+600450S00130    MDJ  10813                     000000000  1                0000000000000.00 0000000.00   0000000.00                             000000000000000                                                                                                                                                   U001424  000000000000 0000000000000.32     00050 02200                  
00006110557450025DT67590675900000015164800888800000010180088824001193142900018676348052120230000001987014223000000000362158479199XXXXXX7478               2111111   NYV4 A7W383138546068913N8400000000198709V4L00    01DNKETOFUSION833-923-3587   244501    VD84000000019870 NP1599977360677   9C0145F92FTD57CD8FC6544  000000000+                F DF 00415                     000000000  N000000000       0000000000000.00 0000000.00   0000000.00                             000000000000000                                                                                                                                                     01424 G000000019870 0000000000003.43     01650 01500                  
00006120557450001P16759067590000001516480088880000001010000000000000000                             2000000000000000000000000              000000000000                    0000000000000000000000000                    000000000000                                                                                                                                                                                                                                                                                                                                                                                                                                                                                        
00006130557450026DT67590675900000015164800888800000010180088887287283142900018676364052120230000001499014223000000000362158526218XXXXXX1903       ME03KE06MS02      NY 4607AMDSNTQYN20518  N840000000014990          81DNKETOFUSION833-923-3587   63596Z    MD84000000014990 N  599977360677   FDA37BBF70TEACBFA8B7FC7  000000000+600450S00130    MDS  10813                     000000000  1                0000000000000.00 0000000.00   0000000.00                             000000000000000                                                                                                                                                   U001424  000000000000 0000000000000.29     00050 02200                  
00006140557450027DT67590675900000015164800888800000010180088824001193142900018676421052120230000001987014223000000000362158414720XXXXXX4642               2111111   NYV4 A7W383138633112637N840000000019870S26N00    01DNKETOFUSION833-923-3587   05352D    VS84000000019870 NP1599977360677   FB0D7841DDTEC188B166F5A  000000000+                D CD 12109                     000000000  N000000000 498   0000000000000.00 0000000.00   0000000.00                             000000000000000                                                                                                                                                     01424 G000000019870 0000000000005.07     02500 01000                  
00006150557450001P16759067590000001516480088880000001010000000000000000                             2000000000000000000000000              000000000000                    0000000000000000000000000                    000000000000                                                                                                                                                                                                                                                                                                                                                                                                                                                                                        
00006160557450028DT67590675900000015164800888800000010180088824001193142900018676454052120230000001987014223000000000362158443238XXXXXX1711               2111111   NYV4 A7W303138666060896N84000000001987059GV00    01DNKETOFUSION833-923-3587   043007    VD84000000019870 NP1599977360677   2BDB802004TFB57202F3B24  000000000+                F DF 00415                     000000000  N000000000       0000000000000.00 0000000.00   0000000.00                             000000000000000                                                                                                                                                     01424 G000000019870 0000000000003.43     01650 01500                  
00006170557450001P16759067590000001516480088880000001010000000000000000                             2000000000000000000000000              000000000000                    0000000000000000000000000                    000000000000                                                                                                                                                                                                                                                                                                                                                                                                                                                                                        
00006180557450029DT67590675900000015164800888800000010180088887287283142900018676489052120230000001987014223000000000362158551167XXXXXX5027       ME03KE06MS02      NY 4607AMDJVLC2I90518  N840000000019870          81DNKETOFUSION833-923-3587   286120    MD84000000019870 N  599977360677   C79FC567DDT1C4709454EE9  000000000+600450S00130    MDJ  00401                     000000000  N                0000000000000.00 0000000.00   0000000.00                             000000000000000                                                                                                                                                   U001424  000000000000 0000000000003.43     01650 01500                  
00006190557450030DT67590675900000015164800888800000010180088887287283142900018676562052120230000001987014223000000000362158517546XXXXXX9219       ME03KE06MS02      NY 4607AMDJE87QST0518  N840000000019870          81DNKETOFUSION833-923-3587   018879    MD84000000019870 N  599977360677   08532976D8T4C9D5BEBEBD3  000000000+600450S00130    MDJ  10813                     000000000  1                0000000000000.00 0000000.00   0000000.00                             000000000000000                                                                                                                                                   U001424  000000000000 0000000000000.32     00050 02200                  
00006200557450031DT67590675900000015164800888800000010180088824001193142900018676603052120230000002487014223000000000362158434256XXXXXX1973               2111111   NYV4 A7W583139081161437N840000000024870M2JP00    01DNKETOFUSION833-923-3587   024984    VD84000000024870 NP1599977360677   3D041E04EFT996A50157FB9  000000000+                F DF 10420                     000000000  Y000000000 338   0000000000000.00 0000000.00   0000000.00                             000000000000000                                                                                                                                                     01424 G000000024870 0000000000000.34     00050 02200                  
00006210557450001P16759067590000001516480088880000001010000000000000000                             2000000000000000000000000              000000000000                    0000000000000000000000000                    000000000000                                                                                                                                                                                                                                                                                                                                                                                                                                                                                        
00006220557450032DT67590675900000015164800888800000010180088887287283142900018676620052120230000002487014223000000000362158523694XXXXXX3152       ME03KE06MS02      NY 4607AMDJW4HVLL0518  N840000000024870          81DNKETOFUSION833-923-3587   307000    MD84000000024870 N  599977360677   E7AB7F9537TDB18869D2E33  000000000+600450S00130    MDJ  00401                     000000000  N                0000000000000.00 0000000.00   0000000.00                             000000000000000                                                                                                                                                   U001424  000000000000 0000000000004.25     01650 01500                  
00006230557450033DT67590675900000015164800888800000010180088824001193142900018676637052120230000001987014223000000000362158464906XXXXXX4678               2111111   NYV4 A7W303139096116755N840000000019870DLDQ00    01DNKETOFUSION833-923-3587   018221    VS84000000019870 NP1599977360677   09002BCC6DTA687A4F90330  000000000+                A CA 12106                     000000000  N000000000 492   0000000000000.00 0000000.00   0000000.00                             000000000000000                                                                                                                                                     01424 G000000019870 0000000000003.86     01890 01000                  
00006240557450001P16759067590000001516480088880000001010000000000000000                             2000000000000000000000000              000000000000                    0000000000000000000000000                    000000000000                                                                                                                                                                                                                                                                                                                                                                                                                                                                                        
00006250557450034DT67590675900000015164800888800000010180088887287283142900018676679052120230000001987014223000000000362158514891XXXXXX0124       ME03KE06MS02      NY 4607AMWEMZ1HM30518  N840000000019870          81DNKETOFUSION833-923-3587   01594Z    MC84000000019870 N  599977360677   3D0062C6CCTF15416DEF03E  000000000+600450S00130    MWE  00737                     000000000  N                0000000000000.00 0000000.00   0000000.00                             000000000000000                                                                                                                                                   U001424  000000000000 0000000000005.27     02600 01000                  
00006260557450035DT67590675900000015164800888800000010680088874001193142900018678174052220230000001987014223000000000362158442117XXXXXX8002               0000000   NYV4 07T303142616818570N840000000019870XZQF00    01CNKETOFUSION833-923-3587   012025    VD84000000019870 NP1599977360677   47A62336FCT81F1AB56DB95  000000000+                F DF 08168                     000000000  N000000000 369   0000000000000.00 0000000.00   0000000.00                             000000000000000                                                                                                                                                     01424  000000019870 0000000000000.00     00000 00000                  
00006270557450001P16759067590000001516480088880000001060000000000000000                             2000000000000000000000000              000000000000                    0000000000000000000000000                    000000000000                                                                                                                                                                                                                                                                                                                                                                                                                                                                                        
00006280557450036DT67590675900000015164800888800000010680088874001193142900018678182052220230000000327414223000000000362158442117XXXXXX8002               0000000   NYV4 07T463142616847699N840000000003274TS6900    01CNKETOFUSION833-923-3587   015734    VD84000000003274 NP1599977360677   47A62336FCT6FBB2CDBFF3B  000000000+                F DF 08168                     000000000  N000000000 369   0000000000000.00 0000000.00   0000000.00                             000000000000000                                                                                                                                                     01424  000000003274 0000000000000.00     00000 00000                  
00006290557450001P16759067590000001516480088880000001060000000000000000                             2000000000000000000000000              000000000000                    0000000000000000000000000                    000000000000                                                                                                                                                                                                                                                                                                                                                                                                                                                                                        
00006300557450037DT67590675900000015164800888800000010680088874001193142900018678190052220230000000259514223000000000362158442117XXXXXX8002               0000000   NYV4 07T583142616868412N8400000000025958G5600    01CNKETOFUSION833-923-3587   005814    VD84000000002595 NP1599977360677   47A62336FCT43412C4A5661  000000000+                F DF 08168                     000000000  N000000000 369   0000000000000.00 0000000.00   0000000.00                             000000000000000                                                                                                                                                     01424  000000002595 0000000000000.00     00000 00000                  
00006310557450001P16759067590000001516480088880000001060000000000000000                             2000000000000000000000000              000000000000                    0000000000000000000000000                    000000000000                                                                                                                                                                                                                                                                                                                                                                                                                                                                                        
00006320557450038DT67590675900000015164800888800000010680088887287283142900018678246052220230000001987014223000000000362158556053XXXXXX9887                         NY 4607AMCBLQOZZD0522  N840000000019870          81CNKETOFUSION833-923-3587   022447    MB84000000019870 NP1599977360677   14BFC84304T047AB19E0149  000000000+600450S00130    MCB  00568                     000000000  N                0000000000000.00 0000000.00   0000000.00                             000000000000000                                                                                                                                                     01424  000000000000-0000000000004.39     02210 00000                  
00006330557450001P1675906759000000151648008888000000106                                                          000000000000          8000            884295529                                                                                                                                                                                                                                                                                                                                                                                                                                                                                                                                                            
00006340557450039DT67590675900000015164800888800000010680088874001193142900018678257052220230000001987014223000000000362158438857XXXXXX9080               0000000   NYV4 07T383142727842719N840000000019870BT8Z00    01CNKETOFUSION833-923-3587   09150D    VS84000000019870 NP1599977360677   9B342AF71ET3B1976CF38E6  000000000+                D CD 00245                     000000000  N000000000 166   0000000000000.00 0000000.00   0000000.00                             000000000000000                                                                                                                                                     01424  000000019870-0000000000003.50     01760 00000                  
00006350557450001P16759067590000001516480088880000001060000000000000000                             2000000000000000000000000              000000000000                    0000000000000000000000000                    000000000000                                                                                                                                                                                                                                                                                                                                                                                                                                                                                        
00006360557450040BH675906759000000239118001208000009017052220231422300000000002544801970000090001210400N8001206759D05232023                                                                                                                                                                                                                                                                                                                                                                                                                                                                                                                                                                                                 
00006370557450041DT67590675900000023911800120800000010680012087287283142900012103993052220230000001999914223000000000025448514259XXXXXX0208                         NN 4607AMDSIIMQ420522  N840000000019999          81CN8442835587VITASUREMEDICAL0075070197MD84000000019999 N  599977875615   02D37BAD7FTCA90D023E409  000000000+600450S00130    MDS  00000                     000000000  N                0000000000000.00 0000000.00   0000000.00             000000000019999C000000000000000                                                                                                                                                     01424  000000000000 0000000000000.00     00000 00000                  
00006380557450042DT67590675900000023911800120800000010680012087287283142900012104009052220230000000544914223000000000025448514259XXXXXX0208                         NN 4607AMDSPIOCZD0522  N840000000005449          81CN8442835587VITASUREMEDICAL0081590197MD84000000005449 N  599977875615   02D37BAD7FTA8C3DDFEDF43  000000000+600450S00130    MDS  00000                     000000000  N                0000000000000.00 0000000.00   0000000.00             000000000005449C000000000000000                                                                                                                                                     01424  000000000000 0000000000000.00     00000 00000                  
00006390557450043BH6759067590000001619680010280000090170522202314223000000000203017    0000090001421666Y8001026759C05232023                                                                                                                                                                                                                                                                                                                                                                                                                                                                                                                                                                                                 
00006400557450044DT67590675900000016196800102800000010180010276509753142900014213573052120230000001499114223000000000203017601149XXXXXX5342   BA00                  NY 4 07N753118480484075N840000000014991    00    01DNGREEN OTTER LLC          01855P    DS84000000014991 N  549977424386070                         000000000+1015104910600   DCPDI11327664630  020728000000 000000000  0          462   0000000000000.00 0000000.00   0000000.00                             000000000000000                                                                                                                                                     01424  000000000000 0000000000003.17     02050 01000                  
00006410557450045DT67590675900000016196800102800000010180010287287283142900014214236052120230000000600414223000000000203017548042XXXXXX4369       ME03KE06MS02      NY 4607AMCCR50HSS0518  N840000000006004          81DNGREEN OTTER LLC          05514B    MC84000000006004 N  549977424386   771A8930FETD43A5B5716DD  000000000+600450S00130    MCC  00580                     000000000  N                0000000000000.00 0000000.00   0000000.00                             000000000000000                                                                                                                                                   U001424  000000000000 0000000000001.36     02100 01000                  
00006420557450046DT67590675900000016196800102800000010180010224001193142900014215638052120230000001499114223000000000203017447437XXXXXX7719               2111111   NYV4 A7W463142020830034N840000000014991XJZ900    01DNGREEN OTTER LLC          246785    VD84000000014991 NP1549977424386   54765BBD50TEF23F78CB361  000000000+                F DF 10420                     000000000  Y000000000 338   0000000000000.00 0000000.00   0000000.00                             000000000000000                                                                                                                                                     01424 G000000014991 0000000000000.29     00050 02200                  
00006430557450001P16759067590000001619680010280000001010000000000000000                             2000000000000000000000000              000000000000                    0000000000000000000000000                    000000000000                                                                                                                                                                                                                                                                                                                                                                                                                                                                                        
00006440557450047DT67590675900000016196800102800000010180010287287283142900014215738052120230000001987014223000000000203017546702XXXXXX3253       ME03KE06MS02      NY 4607AMPLLVARKQ0521  N840000000019870          81DNGREEN OTTER LLC          09161B    MC84000000019870 N  549977424386   76785C414DT3B32252E877D  000000000+600450S00130    MPL  00580                     000000000  N                0000000000000.00 0000000.00   0000000.00                             000000000000000                                                                                                                                                   U001424  000000000000 0000000000004.27     02100 01000                  
00006450557450048DT67590675900000016196800102800000010180010224001193142900014215760052120230000001278914223000000000203017400344XXXXXX1355               2111111   NYV4 A7W463142087048404N840000000012789K9SQ00    01DNGREEN OTTER LLC          05145D    VS84000000012789 NP1549977424386   38AF7178B2T12822CEE7DA2  000000000+                D CD 12109                     000000000  N000000000 498   0000000000000.00 0000000.00   0000000.00                             000000000000000                                                                                                                                                     01424 G000000012789 0000000000003.30     02500 01000                  
00006460557450001P16759067590000001619680010280000001010000000000000000                             2000000000000000000000000              000000000000                    0000000000000000000000000                    000000000000                                                                                                                                                                                                                                                                                                                                                                                                                                                                                        
00006470557450049DT67590675900000016196800102800000010180010224001193142900014215778052120230000002126114223000000000203017434769XXXXXX3639               2111111   NYV4 A7W583142087043795N8400000000212619RQJ00    01DNGREEN OTTER LLC          042522    VD84000000021261 NP1549977424386   7D886D417ET831D9DE075EF  000000000+                F DF 10420                     000000000  Y000000000 338   0000000000000.00 0000000.00   0000000.00                             000000000000000                                                                                                                                                     01424 G000000021261 0000000000000.33     00050 02200                  
00006480557450001P16759067590000001619680010280000001010000000000000000                             2000000000000000000000000              000000000000                    0000000000000000000000000                    000000000000                                                                                                                                                                                                                                                                                                                                                                                                                                                                                        
00006490557450050DT67590675900000016196800102800000010180010224001193142900014216222052220230000002118614223000000000203017411774XXXXXX3612               2111111   NYV4 A7W303142435050099N840000000021186KMGP00    01DNGREEN OTTER LLC          110259    VD84000000021186 NP1549977424386   0A10F5DCB0T393AF2C88302  000000000+                F DF 10420                     000000000  Y000000000 338   0000000000000.00 0000000.00   0000000.00                             000000000000000                                                                                                                                                     01424 G000000021186 0000000000000.33     00050 02200                  
00006500557450001P16759067590000001619680010280000001010000000000000000                             2000000000000000000000000              000000000000                    0000000000000000000000000                    000000000000                                                                                                                                                                                                                                                                                                                                                                                                                                                                                        
00006510557450051DT67590675900000016196800102800000010180010224001193142900014216263052220230000002106214223000000000203017426938XXXXXX7827               2111111   NYV4 A7W383142459106669N840000000021062W4WW00    01DNGREEN OTTER LLC          022870    VS84000000021062 NP1549977424386   A77BCAAD03T7C4E7AB8DD29  000000000+                B CB 12107                     000000000  N000000000 494   0000000000000.00 0000000.00   0000000.00                             000000000000000                                                                                                                                                     01424 G000000021062 0000000000004.40     02040 01000                  
00006520557450001P16759067590000001619680010280000001010000000000000000                             2000000000000000000000000              000000000000                    0000000000000000000000000                    000000000000                                                                                                                                                                                                                                                                                                                                                                                                                                                                                        
00006530557450052DT67590675900000016196800102800000010680010287287283142900014216306052220230000001753014223000000000203017510930XXXXXX4924                         NY 4607AMDJHCRTVH0522  N840000000017530          81CNGREEN OTTER LLC          221256    MD84000000017530 N  549977424386   94FF84A512T60457C3BF638  000000000+600450S00130    MDJ  00560                     000000000  N                0000000000000.00 0000000.00   0000000.00                             000000000000000                                                                                                                                                     01424  000000000000 0000000000000.00     00000 00000                  
00006540557450053DT67590675900000016196800102800000010680010274001193142900014216326052220230000001463014223000000000203017443264XXXXXX7444               0000000   NYV4 07T303142478496015N84000000001463072DC00    01CNGREEN OTTER LLC          028948    VD84000000014630 NP1549977424386   062C94FC78TEEE27B5D1F55  000000000+                F DF 08168                     000000000  Y000000000 369   0000000000000.00 0000000.00   0000000.00                             000000000000000                                                                                                                                                     01424  000000014630 0000000000000.00     00000 00000                  
00006550557450001P16759067590000001619680010280000001060000000000000000                             2000000000000000000000000              000000000000                    0000000000000000000000000                    000000000000                                                                                                                                                                                                                                                                                                                                                                                                                                                                                        
00006560557450054DT67590675900000016196800102800000010680010287287283142900014216389052220230000001493414223000000000203017527515XXXXXX4368                         NY 4607AMDJQTOH3K0522  N840000000014934          81CNGREEN OTTER LLC          708249    MD84000000014934 N  549977424386   636FED9238T51A1C5BC11E0  000000000+600450S00130    MDJ  10828                     000000000  1                0000000000000.00 0000000.00   0000000.00                             000000000000000                                                                                                                                                     01424  000000000000 0000000000000.00     00000 00000                  
00006570557450055DT67590675900000016196800102800000010680010287287283142900014216405052220230000000999814223000000000203017557567XXXXXX8637                         NY 4607AMDJQ4Y97K0522  N840000000009998          81CNGREEN OTTER LLC          930050    MD84000000009998 N  549977424386   B683CF224CT8554EEDC3C3E  000000000+600450S00130    MDJ  00560                     000000000  N                0000000000000.00 0000000.00   0000000.00                             000000000000000                                                                                                                                                     01424  000000000000 0000000000000.00     00000 00000                  
00006580557450056DT67590675900000016196800102800000010180010224001193142900014216412052220230000000149514223000000000203017423907XXXXXX2251               2111111   NYV4 A7W383142558556979N840000000001495JHNS00    01DNGREEN OTTER LLC          272620    VD84000000001495 NP1549977424386   F0992DB162T3B376824063D  000000000+                F DF 10420                     000000000  Y000000000 338   0000000000000.00 0000000.00   0000000.00                             000000000000000                                                                                                                                                     01424 G000000001495 0000000000000.23     00050 02200                  
00006590557450001P16759067590000001619680010280000001010000000000000000                             2000000000000000000000000              000000000000                    0000000000000000000000000                    000000000000                                                                                                                                                                                                                                                                                                                                                                                                                                                                                        
00006600557450057DT67590675900000016196800102800000010180010224001193142900014216420052220230000004000414223000000000203017427082XXXXXX6972               2111111   NYV4 A7W583142566787150N840000000040004DCCX00    01DNGREEN OTTER LLC          022167    VS84000000040004 NP1549977424386   1DE66B8E7FTD00327FDBB05  000000000+                A CA 12106                     000000000  N000000000 492   0000000000000.00 0000000.00   0000000.00                             000000000000000                                                                                                                                                     01424 G000000040004 0000000000007.66     01890 01000                  
00006610557450001P16759067590000001619680010280000001010000000000000000                             2000000000000000000000000              000000000000                    0000000000000000000000000                    000000000000                                                                                                                                                                                                                                                                                                                                                                                                                                                                                        
00006620557450058DT67590675900000016196800102800000010180010224001193142900014216446052220230000000499914223000000000203017442742XXXXXX5890               2111111   NYV4 A7W383142647223056N840000000004999638L00    01DNGREEN OTTER LLC          035813    VD84000000004999 NP1549977424386   FAF5668EF7T9D682094A78C  000000000+                G DG 10352                     000000000  Y000000000 338   0000000000000.00 0000000.00   0000000.00                             000000000000000                                                                                                                                                     01424 G000000004999 0000000000000.24     00050 02200                  
00006630557450001P16759067590000001619680010280000001010000000000000000                             2000000000000000000000000              000000000000                    0000000000000000000000000                    000000000000                                                                                                                                                                                                                                                                                                                                                                                                                                                                                        
00006640557450059DT67590675900000016196800102800000010180010224001193142900014216453052220230000002401614223000000000203017463592XXXXXX8736               2111111   NYV4 A7W303142683358357N8400000000240164MLZ00    01DNGREEN OTTER LLC          113076    VD84000000024016 NP1549977424386   F74F0846E0T386770B3D6FB  000000000+                G DG 10352                     000000000  Y000000000 338   0000000000000.00 0000000.00   0000000.00                             000000000000000                                                                                                                                                     01424 G000000024016 0000000000000.34     00050 02200                  
00006650557450001P16759067590000001619680010280000001010000000000000000                             1000000001466000000000000              000000000000                    0000000000000000000000000                    000000000000                                                                                                                                                                                                                                                                                                                                                                                                                                                                                        
00006660557450060DT67590675900000016196800102800000010680010274001193142900014216466052220230000001801714223000000000203017463592XXXXXX8736               0000000   NYV4 07T583142689543561N840000000018017DZSW00    01CNGREEN OTTER LLC          022422    VD84000000018017 NP1549977424386   F74F0846E0T386770B3D6FB  000000000+                G DG 08168                     000000000  Y000000000 369   0000000000000.00 0000000.00   0000000.00                             000000000000000                                                                                                                                                     01424  000000018017 0000000000000.00     00000 00000                  
00006670557450001P16759067590000001619680010280000001060000000000000000                             2000000000000000000000000              000000000000                    0000000000000000000000000                    000000000000                                                                                                                                                                                                                                                                                                                                                                                                                                                                                        
00006680557450061DT67590675900000016196800102800000010180010224001193142900014216487052220230000002146014223000000000203017431231XXXXXX4319               2111111   NYV4 A7W303142740278244N840000000021460KK2300    01DNGREEN OTTER LLC          073316    VD84000000021460 NP1549977424386   B9C1802FE3T905A106194D1  000000000+                G DG 10352                     000000000  Y000000000 338   0000000000000.00 0000000.00   0000000.00                             000000000000000                                                                                                                                                     01424 G000000021460 0000000000000.33     00050 02200                  
00006690557450001P16759067590000001619680010280000001010000000000000000                             1000000001590000000000000              000000000000                    0000000000000000000000000                    000000000000                                                                                                                                                                                                                                                                                                                                                                                                                                                                                        
00006700557450062DT67590675900000016196800102800000010180010224001193142900014216503052220230000002487014223000000000203017414720XXXXXX8281               2111111   NYV4 A7W463142762655348N840000000024870WN6D00    01DNGREEN OTTER LLC          03162C    VS84000000024870 NP1549977424386   C47E0E2263TCD52E7C5CFD0  000000000+                C CC 12108                     000000000  N000000000 496   0000000000000.00 0000000.00   0000000.00                             000000000000000                                                                                                                                                     01424 G000000024870 0000000000005.20     02050 01000                  
00006710557450001P16759067590000001619680010280000001010000000000000000                             2000000000000000000000000              000000000000                    0000000000000000000000000                    000000000000                                                                                                                                                                                                                                                                                                                                                                                                                                                                                        
00006720557450063DT67590675900000016196800102800000010180010224001193142900014216651052220230000002412914223000000000203017432739XXXXXX4463               2111111   NYV4 A7W303142844677949N8400000000241299KX700    01DNGREEN OTTER LLC          784964    VD84000000024129 NP1549977424386   6157F97A2DT3B0A7EBA8466  000000000+                F DF 10420                     000000000  Y000000000 338   0000000000000.00 0000000.00   0000000.00                             000000000000000                                                                                                                                                     01424 G000000024129 0000000000000.34     00050 02200                  
00006730557450001P16759067590000001619680010280000001010000000000000000                             2000000000000000000000000              000000000000                    0000000000000000000000000                    000000000000                                                                                                                                                                                                                                                                                                                                                                                                                                                                                        
00006740557450064DT67590675900000016196800102800000010180010224001193142900014216669052220230000000499914223000000000203017453506XXXXXX8931               2111111   NYV4 A7W303142850480175N840000000004999NVG200    01DNGREEN OTTER LLC          H88788    VD84000000004999 NP1549977424386   CA1A11D0E0T1AD4062523CA  000000000+                F DF 10420                     000000000  Y000000000 338   0000000000000.00 0000000.00   0000000.00                             000000000000000                                                                                                                                                     01424 G000000004999 0000000000000.24     00050 02200                  
00006750557450001P16759067590000001619680010280000001010000000000000000                             2000000000000000000000000              000000000000                    0000000000000000000000000                    000000000000                                                                                                                                                                                                                                                                                                                                                                                                                                                                                        
00006760557450065BH6759067590000001330080010280000090170522202314223000000000497801    0000090001963359Y8001026759C05232023                                                                                                                                                                                                                                                                                                                                                                                                                                                                                                                                                                                                 
00006770557450066DT67590675900000013300800102800000010180010287287283142900019624058052120230000001284914223000000000497801515948XXXXXX6023                         NY 4607AMDSSI8V790518  N840000000012849          81DNCBD8666317293            040308    MD84000000012849FN  549977133133   3DE9B04303T03AFFAF44763  000000000+600450S00130    MDS  12226                     0000000771 N                0000000000000.00 0000000.00   0000000.00                             000000000000000                                                                                                                                                     01424  000000000000 0000000000002.06     01600 00000                  
00006780557450067DT67590675900000013300800102800000010180010287287283142900019624082052120230000002487014223000000000497801523827XXXXXX4844       ME03KE06MS02      NY 4607AMDJVJY3BO0518  N840000000024870          81DNCBD8666317293            000834    MD84000000024870 N  549977133133   468880DF1ETA62135533342  000000000+600450S00130    MDJ  00401                     000000000  N                0000000000000.00 0000000.00   0000000.00                             000000000000000                                                                                                                                                   U001424  000000000000 0000000000004.25     01650 01500                  
00006790557450068DT67590675900000013300800102800000010180010287287283142900019624108052120230000002636214223000000000497801511713XXXXXX4685                         NY 4607AMDBLMIC790518  N840000000026362          81DNCBD8666317293            351553    MD84000000026362 NP1549977133133                            000000000+600450S00130    MDB  00063                     000000000  N                0000000000000.00 0000000.00   0000000.00                             000000000000000                                                                                                                                                   U001424  000000000000 0000000000005.50     02050 01000                  
00006800557450001P1675906759000000133008001028000000101                                                 000001492000000000000          8000   000000000871584967            000000000000                                                                                                                                                                                                                                                                                                                                                                                                                                                                                                                                    
00006810557450069DT67590675900000013300800102800000010180010287287283142900019624124052120230000001272814223000000000497801517800XXXXXX5161       ME03KE06MS02      NY 4607AMCSJMR0BO0518  N840000000012728          81DNCBD8666317293            018224    MC84000000012728 N  549977133133   AB06509D3DT12FDCD091A87  000000000+600450S00130    MCS  00013                     000000000  N                0000000000000.00 0000000.00   0000000.00                             000000000000000                                                                                                                                                   U001424  000000000000 0000000000002.58     01950 01000                  
00006820557450070DT67590675900000013300800102800000010180010287287283142900019624348052120230000001526214223000000000497801518941XXXXXX3971       ME03KE06MS02      NY 4607AMWEH8V1I30518  N840000000015262          81DNCBD8666317293            33816Z    MC84000000015262 N  549977133133   81AB92CC8ET27018C5430CA  000000000+600450S00130    MWE  00737                     000000000  N                0000000000000.00 0000000.00   0000000.00                             000000000000000                                                                                                                                                   U001424  000000000000 0000000000004.07     02600 01000                  
00006830557450071DT67590675900000013300800102800000010180010224001193142900019624586052120230000001987014223000000000497801409422XXXXXX9775               2111111   NYV4 A7W463138759055743N8400000000198706X3800    01DNCBD8666317293            975836    VS84000000019870 NP1549977133133   C9B42E6580T29DBED1A557E  000000000+                A CA 12106                     000000000  N000000000 492   0000000000000.00 0000000.00   0000000.00                             000000000000000                                                                                                                                                     01424 G000000019870 0000000000003.86     01890 01000                  
00006840557450001P16759067590000001330080010280000001010000000000000000                             2000000000000000000000000              000000000000                    0000000000000000000000000                    000000000000                                                                                                                                                                                                                                                                                                                                                                                                                                                                                        
00006850557450072DT67590675900000013300800102800000010180010224001193142900019624636052120230000002131114223000000000497801408039XXXXXX5597               2111111   NYV4 A7W463138774048423N840000000021311JLJV00    01DNCBD8666317293            618103    VS84000000021311 NP1549977133133   A38FC4C2EET31E0785D1DA1  000000000+                C CC 12108                     000000000  N000000000 496   0000000000000.00 0000000.00   0000000.00                             000000000000000                                                                                                                                                     01424 G000000021311 0000000000004.47     02050 01000                  
00006860557450001P16759067590000001330080010280000001010000000000000000                             2000000000000000000000000              000000000000                    0000000000000000000000000                    000000000000                                                                                                                                                                                                                                                                                                                                                                                                                                                                                        
00006870557450073DT67590675900000013300800102800000010180010287287283142900019624645052120230000002661114223000000000497801521333XXXXXX4692       ME03KE06MS02      NY 4607AMWECA7OST0518  N840000000026611          81DNCBD8666317293            01863P    MC84000000026611 N  549977133133   2718BF6A51T52FAE339642B  000000000+600450S00130    MWE  00737                     000000000  N                0000000000000.00 0000000.00   0000000.00                             000000000000000                                                                                                                                                   U001424  000000000000 0000000000007.02     02600 01000                  
00006880557450074DT67590675900000013300800102800000010180010224001193142900019624685052120230000001611914223000000000497801434257XXXXXX3849               2111111   NYV4 A7W463138786179400N840000000016119V7TC00    01DNCBD8666317293            033926    VD84000000016119 NP1549977133133   5D42768B3BT0513C5F3A854  000000000+                F DF 10420                     000000000  Y000000000 338   0000000000000.00 0000000.00   0000000.00                             000000000000000                                                                                                                                                     01424 G000000016119 0000000000000.30     00050 02200                  
00006890557450001P16759067590000001330080010280000001010000000000000000                             2000000000000000000000000              000000000000                    0000000000000000000000000                    000000000000                                                                                                                                                                                                                                                                                                                                                                                                                                                                                        
00006900557450075DT67590675900000013300800102800000010180010224001193142900019624735052120230000002106214223000000000497801413171XXXXXX9439               2111111   NYV4 A7W463138816177505N840000000021062ZV2C00    01DNCBD8666317293            330979    VD84000000021062 NP1549977133133   87083BD766TF81A1F8B4405  000000000+                F DF 00415                     000000000  N000000000       0000000000000.00 0000000.00   0000000.00                             000000000000000                                                                                                                                                     01424 G000000021062 0000000000003.63     01650 01500                  
00006910557450001P16759067590000001330080010280000001010000000000000000                             2000000000000000000000000              000000000000                    0000000000000000000000000                    000000000000                                                                                                                                                                                                                                                                                                                                                                                                                                                                                        
00006920557450076DT67590675900000013300800102800000010180010287287283142900019624827052120230000001987014223000000000497801552318XXXXXX0580       ME03KE06MS02      NY 4607AMWEIC2FSS0518  N840000000019870          81DNCBD8666317293            38067Z    MC84000000019870 N  549977133133   100BE1F17DT03406365F70C  000000000+600450S00130    MWE  00737                     000000000  N                0000000000000.00 0000000.00   0000000.00                             000000000000000                                                                                                                                                   U001424  000000000000 0000000000005.27     02600 01000                  
00006930557450077DT67590675900000013300800102800000010180010224001193142900019625005052120230000001799114223000000000497801461100XXXXXX0954               2111111   NYV4 A7W383139021057471N840000000017991CGC800    01DNCBD8666317293            342751    VD84000000017991 NP1549977133133   86A19410A8T8A7E3946D8D5  000000000+                F DF 10420                     000000000  Y000000000 338   0000000000000.00 0000000.00   0000000.00                             000000000000000                                                                                                                                                     01424 G000000017991 0000000000000.31     00050 02200                  
00006940557450001P16759067590000001330080010280000001010000000000000000                             2000000000000000000000000              000000000000                    0000000000000000000000000                    000000000000                                                                                                                                                                                                                                                                                                                                                                                                                                                                                        
00006950557450078DT67590675900000013300800102800000010180010224001193142900019625047052120230000001499114223000000000497801493075XXXXXX7531               2111111   NYV4 A7W303139024056653N8400000000149915NZT00    01DNCBD8666317293            193943    VD84000000014991 NP1549977133133   56D64C8334TA666D84618DC  000000000+                F DF 00415                     000000000  N000000000       0000000000000.00 0000000.00   0000000.00                             000000000000000                                                                                                                                                     01424 G000000014991 0000000000002.62     01650 01500                  
00006960557450001P16759067590000001330080010280000001010000000000000000                             2000000000000000000000000              000000000000                    0000000000000000000000000                    000000000000                                                                                                                                                                                                                                                                                                                                                                                                                                                                                        
00006970557450079DT67590675900000013300800102800000010180010224001193142900019625393052120230000001987014223000000000497801464018XXXXXX5344               2111111   NYV4 A7W463139117115015N840000000019870FVVL00    01DNCBD8666317293            05334D    VS84000000019870 NP1549977133133   F5BB7A5B12T74C247D44263  000000000+                D CD 12109                     000000000  N000000000 498   0000000000000.00 0000000.00   0000000.00                             000000000000000                                                                                                                                                     01424 G000000019870 0000000000005.07     02500 01000                  
00006980557450001P16759067590000001330080010280000001010000000000000000                             2000000000000000000000000              000000000000                    0000000000000000000000000                    000000000000                                                                                                                                                                                                                                                                                                                                                                                                                                                                                        
00006990557450080DT67590675900000013300800102800000010180010224001193142900019631409052120230000002126114223000000000497801448233XXXXXX4684               2111111   NYV4 A7W463142047363128N84000000002126157C900    01DNCBD8666317293            001856    VD84000000021261 NP1549977133133   D3267FB9F2TE0105605E285  000000000+                F DF 10420                     000000000  Y000000000 338   0000000000000.00 0000000.00   0000000.00                             000000000000000                                                                                                                                                     01424 G000000021261 0000000000000.33     00050 02200                  
00007000557450001P16759067590000001330080010280000001010000000000000000                             2000000000000000000000000              000000000000                    0000000000000000000000000                    000000000000                                                                                                                                                                                                                                                                                                                                                                                                                                                                                        
00007010557450081DT67590675900000013300800102800000010180010224001193142900019631508052120230000001499114223000000000497801440393XXXXXX2541               2111111   NYV4 A7W463142090736289N840000000014991FHFK00    01DNCBD8666317293            811886    VD84000000014991 NP1549977133133   1EE419E957TEA9FE70FE425  000000000+                F PF 08175                     000000000  N000000000       0000000000000.00 0000000.00   0000000.00                             000000000000000                                                                                                                                                     01424 G000000014991 0000000000002.82     01750 02000                  
00007020557450001P16759067590000001330080010280000001010000000000000000                             2000000000000000000000000              000000000000                    0000000000000000000000000                    000000000000                                                                                                                                                                                                                                                                                                                                                                                                                                                                                        
00007030557450082DT67590675900000013300800102800000010180010224001193142900019631995052220230000000137314223000000000497801426938XXXXXX7827               2111111   NYV4 A7W583142460140387N84000000000137369C900    01DNCBD8666317293            022008    VS84000000001373 NP1549977133133   A77BCAAD03T024525622343  000000000+                B CB 12107                     000000000  N000000000 494   0000000000000.00 0000000.00   0000000.00                             000000000000000                                                                                                                                                     01424 G000000001373 0000000000000.38     02040 01000                  
00007040557450001P16759067590000001330080010280000001010000000000000000                             2000000000000000000000000              000000000000                    0000000000000000000000000                    000000000000                                                                                                                                                                                                                                                                                                                                                                                                                                                                                        
00007050557450083DT67590675900000013300800102800000010180010287287283142900019632150052220230000002255014223000000000497801517805XXXXXX5055       ME03KE06MS02      NY 4607AMWEO6P57K0522  N840000000022550          81DNCBD8666317293            09910P    MC84000000022550 N  549977133133   A5C3716482T7D49469DED5A  000000000+600450S00130    MWE  00737                     000000000  N                0000000000000.00 0000000.00   0000000.00                             000000000000000                                                                                                                                                   U001424  000000000000 0000000000005.96     02600 01000                  
00007060557450084DT67590675900000013300800102800000010680010287287283142900019632200052220230000000149514223000000000497801521997XXXXXX9392                         NY 4607AMDJPKLH7K0522  N840000000001495          81CNCBD8666317293            457688    MD84000000001495 N  549977133133   F493585C73T7F2B2644CDB5  000000000+600450S00130    MDJ  00560                     000000000  N                0000000000000.00 0000000.00   0000000.00                             000000000000000                                                                                                                                                     01424  000000000000 0000000000000.00     00000 00000                  
00007070557450085DT67590675900000013300800102800000010680010274001193142900019632246052220230000000993514223000000000497801486796XXXXXX2041               0000000   NYV4 07T303142519679151N840000000009935TDH685    01CNCBD8666317293            060216    VD84000000009935 NP1549977133133   890F3633F5T14072EB0228B  000000000+                F DF 08168                     000000000  Y000000000 369   0000000000000.00 0000000.00   0000000.00                             000000000000000                                                                                                                                                     01424  000000009935 0000000000000.00     00000 00000                  
00007080557450001P16759067590000001330080010280000001060000000000000000                             2000000000000000000000000              000000000000                    0000000000000000000000000                    000000000000                                                                                                                                                                                                                                                                                                                                                                                                                                                                                        
00007090557450086DT67590675900000013300800102800000010680010287287283142900019632333052220230000000129514223000000000497801557567XXXXXX8637                         NY 4607AMDJU26N8B0522  N840000000001295          81CNCBD8666317293            930091    MD84000000001295 N  549977133133   B683CF224CTE9ED7A1042BF  000000000+600450S00130    MDJ  00560                     000000000  N                0000000000000.00 0000000.00   0000000.00                             000000000000000                                                                                                                                                     01424  000000000000 0000000000000.00     00000 00000                  
00007100557450087DT67590675900000013300800102800000010180010287287283142900019632473052220230000002121114223000000000497801531257XXXXXX2358       ME03KE06MS02      NY 4607AMDJR7TN3K0522  N840000000021211          81DNCBD8666317293            100791    MD84000000021211 N  549977133133   8BD1E63ABBT6D097C2C9A19  000000000+600450S00130    MDJ  10813                     000000000  1                0000000000000.00 0000000.00   0000000.00                             000000000000000                                                                                                                                                   U001424  000000000000 0000000000000.33     00050 02200                  
00007110557450088DT67590675900000013300800102800000010680010274001193142900019632501052220230000002157914223000000000497801474488XXXXXX7256               0000000   NYV4 07T463142585634204N8400000000215797M5300    01CNCBD8666317293            090902    VD84000000021579 NP1549977133133   E0A4503559TBB66E60D5362  000000000+                F DF 08168                     000000000  Y000000000 369   0000000000000.00 0000000.00   0000000.00                             000000000000000                                                                                                                                                     01424  000000021579 0000000000000.00     00000 00000                  
00007120557450001P16759067590000001330080010280000001060000000000000000                             2000000000000000000000000              000000000000                    0000000000000000000000000                    000000000000                                                                                                                                                                                                                                                                                                                                                                                                                                                                                        
00007130557450089DT67590675900000013300800102800000010680010287287283142900019632655052220230000001987014223000000000497801515676XXXXXX7457                         NY 4607AMWEICTV420522  N840000000019870          81CNCBD8666317293            055176    MC84000000019870 N  549977133133   F551F1FC3ATF49D2F6A4D19  000000000+600450S00130    MWE  00565                     000000000  N                0000000000000.00 0000000.00   0000000.00                             000000000000000                                                                                                                                                     01424  000000000000-0000000000003.48     01750 00000                  
00007140557450090DT67590675900000013300800102800000010180010224001193142900019632753052220230000002395914223000000000497801410039XXXXXX0821               2111111   NYV4 A7W463142650462233N8400000000239595HD200    01DNCBD8666317293            12482D    VS84000000023959 NP1549977133133   F335B769FETFDF6A42D540B  000000000+                D CD 12109                     000000000  N000000000 498   0000000000000.00 0000000.00   0000000.00                             000000000000000                                                                                                                                                     01424 G000000023959 0000000000006.09     02500 01000                  
00007150557450001P16759067590000001330080010280000001010000000000000000                             2000000000000000000000000              000000000000                    0000000000000000000000000                    000000000000                                                                                                                                                                                                                                                                                                                                                                                                                                                                                        
00007160557450091DT67590675900000013300800102800000010680010287287283142900019632861052220230000000800014223000000000497801553744XXXXXX5188                         NY 4607AMDJWL84ZA0522  N840000000008000          81CNCBD8666317293            022637    MD84000000008000 N  549977133133   342A9AF52FT433C0F8326D0  000000000+600450S00130    MDJ  00560                     000000000  N                0000000000000.00 0000000.00   0000000.00                             000000000000000                                                                                                                                                     01424  000000000000 0000000000000.00     00000 00000                  
00007170557450092DT67590675900000013300800102800000010180010287287283142900019632903052220230000000639814223000000000497801546213XXXXXX1811       ME03KE06MS02      NY 4607AMDJXAE9ZA0522  N840000000006398          81DNCBD8666317293            642993    MD84000000006398 N  549977133133   F6E0371C75T22C36AFACFD6  000000000+600450S00130    MDJ  10813                     000000000  1                0000000000000.00 0000000.00   0000000.00                             000000000000000                                                                                                                                                   U001424  000000000000 0000000000000.25     00050 02200                  
