00002710325010002BH6759067590000000288180088880000090171214202234822000000000004389    0000090001210058Y8008886759C12152022                                                                                                                                                                                                                                                                                                                                                                                                                                                                                                                                                                                                 
00002720325010003DT67590675900000002881800888800000010180088873011002348900012100584121320220000000438934822000000000004389379818XXXXX1005                          NY 4 07N003585593580324N840000000004389          01DNHAPPY HIPPIE             184747    AM84000000004389 Y  549976044904                            000000000+6004S0000130 258     11261                     000000000                   0000000000000.00 0000000.00   0000000.00                             000000000000000 61248972086759675900000002881 HAPPY HIPPIE             832 PARKWAY              8656540830      37862     HAPPYHIPPIE832@GMAIL.COM                  01324  000000000000 0000000000000.80     01600 00000                  
00002730325010004BH6759067590000000370780088880000090171214202234822000000000067029    0000090001030014Y8008886759C12152022                                                                                                                                                                                                                                                                                                                                                                                                                                                                                                                                                                                                 
00002740325010005DT67590675900000003707800888800000010180088887287282348900010300066121320220000001137434822000000000067029525437XXXXXX4043       ME03KE06PT01      NY 4607AMCWQRROPD1213  N840000000011374          81DNMR HEMP FLOWER           02311P    MC84000000011374 N  549976053336   83032                    000000000+600450S00130    MCW  00642                     000000000  N                0000000000000.00 0000000.00   0000000.00                             000000000000000                                                                                                                                                   U001424  000000000000 0000000000002.60     02200 01000                  
00002750325010006DT67590675900000003707800888800000010180088824001192348900010300081121320220000001428334822000000000067029483950XXXXXX5091               2111111   NYV4 A7W382348105205542N840000000014283B2RV00    01DNMR HEMP FLOWER           05620C    VS84000000014283 NP1549976053336   83034                    000000000+                C CC 12108                     000000000  N000000000 496   0000000000000.00 0000000.00   0000000.00                             000000000000000                                                                                                                                                     01424 G000000014283 0000000000003.03     02050 01000                  
00002760325010001P16759067590000000370780088880000001010000000000000000                             2000000000000000000000000              000000000000                    0000000000000000000000000                    000000000000                                                                                                                                                                                                                                                                                                                                                                                                                                                                                        
00002770325010007DT67590675900000003707800888800000010180088887287282348900010300090121420220000000640934822000000000067029517805XXXXXX1209       ME03KE06MS02      NY 4607AMPLBO58HC1214  N840000000006409          81DNMR HEMP FLOWER           00311B    MC84000000006409 N  549976053336   83044                    000000000+600450S00130    MPL  00580                     000000000  N                0000000000000.00 0000000.00   0000000.00                             000000000000000                                                                                                                                                   U001424  000000000000 0000000000001.45     02100 01000                  
00002780325010008DT67590675900000003707800888800000010180088824001192348900010300107121420220000001200034822000000000067029438857XXXXXX5664               2111111   NYV4 A7W462348517657802N840000000012000KLX300    01DNMR HEMP FLOWER           07379D    VS84000000012000 NP1549976053336   83045                    000000000+                D CD 12109                     000000000  N000000000 498   0000000000000.00 0000000.00   0000000.00                             000000000000000                                                                                                                                                     01424 G000000012000 0000000000003.10     02500 01000                  
00002790325010001P16759067590000000370780088880000001010000000000000000                             2000000000000000000000000              000000000000                    0000000000000000000000000                    000000000000                                                                                                                                                                                                                                                                                                                                                                                                                                                                                        
00002800325010009DT67590675900000003707800888800000010180088824001192348900010300115121420220000000599934822000000000067029443040XXXXXX6256               2111111   NYV4 A7W302348646681397N840000000005999LCQD00    01DNMR HEMP FLOWER           314754    VD84000000005999 NP1549976053336   83057                    000000000+                F DF 10420                     000000000  Y000000000 338   0000000000000.00 0000000.00   0000000.00                             000000000000000                                                                                                                                                     01424 G000000005999 0000000000000.25     00050 02200                  
00002810325010001P16759067590000000370780088880000001010000000000000000                             2000000000000000000000000              000000000000                    0000000000000000000000000                    000000000000                                                                                                                                                                                                                                                                                                                                                                                                                                                                                        
00002820325010010DT67590675900000003707800888800000010180088824001192348900010300123121420220000000304834822000000000067029412134XXXXXX6608               2111111   NYV4 A7W382348658817048N8400000000030484FVM00    01DNMR HEMP FLOWER           549610    VS84000000003048 NP1549976053336   83059                    000000000+                A CA 12106                     000000000  N000000000 492   0000000000000.00 0000000.00   0000000.00                             000000000000000                                                                                                                                                     01424 G000000003048 0000000000000.68     01890 01000                  
00002830325010001P16759067590000000370780088880000001010000000000000000                             2000000000000000000000000              000000000000                    0000000000000000000000000                    000000000000                                                                                                                                                                                                                                                                                                                                                                                                                                                                                        
00002840325010011DT67590675900000003707800888800000010180088887287282348900010300132121420220000000691934822000000000067029552433XXXXXX6264       ME03KE06MS02      NY 4607AMPLETCZJ71214  N840000000006919          81DNMR HEMP FLOWER           05313M    MC84000000006919 N  549976053336   83068                    000000000+600450S00130    MPL  00580                     000000000  N                0000000000000.00 0000000.00   0000000.00                             000000000000000                                                                                                                                                   U001424  000000000000 0000000000001.55     02100 01000                  
00002850325010012DT67590675900000003707800888800000010180088824001192348900010300149121420220000000699734822000000000067029434769XXXXXX2373               2111111   NYV4 A7W382348826271438N8400000000069977J5R00    01DNMR HEMP FLOWER           085717    VD84000000006997 NP1549976053336   83069                    000000000+                F DF 10420                     000000000  Y000000000 338   0000000000000.00 0000000.00   0000000.00                             000000000000000                                                                                                                                                     01424 G000000006997 0000000000000.25     00050 02200                  
00002860325010001P16759067590000000370780088880000001010000000000000000                             2000000000000000000000000              000000000000                    0000000000000000000000000                    000000000000                                                                                                                                                                                                                                                                                                                                                                                                                                                                                        
