00002950611660002BH6759067590000000288180088880000090171227202236122000000000011506    0000090001310078Y8008886759C12282022                                                                                                                                                                                                                                                                                                                                                                                                                                                                                                                                                                                                 
00002960611660003DT67590675900000002881800888800000010180088824001192361900013100779122720220000000987636122000000000011506415978XXXXXX1143               2111111   NYV4 A7W462361752311325N840000000009876JGSX00    01DNHAPPY HIPPIE             019202    VD84000000009876 NP1549976044904   1895                     000000000+                F DF 10420                     000000000  Y000000000 338   0000000000000.00 0000000.00   0000000.00                             000000000000000                                                                                                                                                     01424 G000000009876 0000000000000.27     00050 02200                  
00002970611660001P16759067590000000288180088880000001010000000000000000                             2000000000000000000000000              000000000000                    0000000000000000000000000                    000000000000                                                                                                                                                                                                                                                                                                                                                                                                                                                                                        
00002980611660004DT67590675900000002881800888800000010180088887287282361900013100788122720220000000163036122000000000011506515931XXXXXX5520       ME03KE06MS02      NY 4607AMDSL7GNXD1227  N840000000001630          81DNHAPPY HIPPIE             034356    MD84000000001630 N  549976044904   1896                     000000000+600450S00130    MDS  00401                     000000000  N                0000000000000.00 0000000.00   0000000.00                             000000000000000                                                                                                                                                   U001424  000000000000 0000000000000.42     01650 01500                  
