00004940279410002BH6759067590000000370780088880000090170510202313023000000000204520    0000090001040771Y8008886759C05112023                                                                                                                                                                                                                                                                                                                                                                                                                                                                                                                                                                                                 
00004950279410003DT67590675900000003707800888800000010180088824001193130900010407548050920230000000499713023000000000204520414720XXXXXX8523               2111111   NYV4 A7W463130009474348N840000000004997DGZ600    01DNMR HEMP FLOWER           06423D    VS84000000004997 NP1549976053336   89489                    000000000+                D CD 12109                     000000000  N000000000 498   0000000000000.00 0000000.00   0000000.00                             000000000000000                                                                                                                                                     01424 G000000004997 0000000000001.35     02500 01000                  
00004960279410001P16759067590000000370780088880000001010000000000000000                             2000000000000000000000000              000000000000                    0000000000000000000000000                    000000000000                                                                                                                                                                                                                                                                                                                                                                                                                                                                                        
00004970279410004DT67590675900000003707800888800000010180088824001193130900010407555050920230000001530013023000000000204520444796XXXXXX6305               2111111   NYV4 A7W463130113436342N840000000015300XSB800    01DNMR HEMP FLOWER           009727    VS84000000015300 NP1549976053336   89498                    000000000+                A CA 12106                     000000000  N000000000 492   0000000000000.00 0000000.00   0000000.00                             000000000000000                                                                                                                                                     01424 G000000015300 0000000000002.99     01890 01000                  
00004980279410001P16759067590000000370780088880000001010000000000000000                             2000000000000000000000000              000000000000                    0000000000000000000000000                    000000000000                                                                                                                                                                                                                                                                                                                                                                                                                                                                                        
00004990279410005DT67590675900000003707800888800000010180088824001193130900010407563050920230000001299813023000000000204520428208XXXXXX3104               2111111   NYV4 A7W303130113595150N8400000000129982PP200    01DNMR HEMP FLOWER           000923    VD84000000012998 NP1549976053336   89499                    000000000+                F DF 10420                     000000000  Y000000000 338   0000000000000.00 0000000.00   0000000.00                             000000000000000                                                                                                                                                     01424 G000000012998 0000000000000.28     00050 02200                  
00005000279410001P16759067590000000370780088880000001010000000000000000                             2000000000000000000000000              000000000000                    0000000000000000000000000                    000000000000                                                                                                                                                                                                                                                                                                                                                                                                                                                                                        
00005010279410006DT67590675900000003707800888800000010180088824001193130900010407571051020230000000650913023000000000204520448233XXXXXX2106               2111111   NYV4 A7W463130410585663N840000000006509QTDC00    01DNMR HEMP FLOWER           062418    VD84000000006509 NP1549976053336   89500                    000000000+                F DF 10420                     000000000  Y000000000 338   0000000000000.00 0000000.00   0000000.00                             000000000000000                                                                                                                                                     01424 G000000006509 0000000000000.25     00050 02200                  
00005020279410001P16759067590000000370780088880000001010000000000000000                             2000000000000000000000000              000000000000                    0000000000000000000000000                    000000000000                                                                                                                                                                                                                                                                                                                                                                                                                                                                                        
00005030279410007DT67590675900000003707800888800000010180088887287283130900010407580051020230000000139813023000000000204520510805XXXXXX1980       ME03KE06MS02      NY 4607AMDJ10P6270510  N840000000001398          81DNMR HEMP FLOWER           071808    MD84000000001398 N  549976053336   89502                    000000000+600450S00130    MDJ  10813                     000000000  1                0000000000000.00 0000000.00   0000000.00                             000000000000000                                                                                                                                                   U001424  000000000000 0000000000000.23     00050 02200                  
00005040279410008DT67590675900000003707800888800000010180088824001193130900010407597051020230000001799813023000000000204520473702XXXXXX2216               2111111   NYV4 A7W383130526910188N84000000001799852W900    01DNMR HEMP FLOWER           013605    VD84000000017998 NP1549976053336   89511                    000000000+                F DF 10420                     000000000  Y000000000 338   0000000000000.00 0000000.00   0000000.00                             000000000000000                                                                                                                                                     01424 G000000017998 0000000000000.31     00050 02200                  
00005050279410001P16759067590000000370780088880000001010000000000000000                             2000000000000000000000000              000000000000                    0000000000000000000000000                    000000000000                                                                                                                                                                                                                                                                                                                                                                                                                                                                                        
00005060279410009DT67590675900000003707800888800000010180088824001193130900010407605051020230000000949813023000000000204520473703XXXXXX6039               2111111   NYV4 A7W583130542984860N840000000009498W8GB00    01DNMR HEMP FLOWER           097818    VD84000000009498 NP1549976053336   89514                    000000000+                F DF 10420                     000000000  Y000000000 338   0000000000000.00 0000000.00   0000000.00                             000000000000000                                                                                                                                                     01424 G000000009498 0000000000000.27     00050 02200                  
00005070279410001P16759067590000000370780088880000001010000000000000000                             2000000000000000000000000              000000000000                    0000000000000000000000000                    000000000000                                                                                                                                                                                                                                                                                                                                                                                                                                                                                        
00005080279410010DT67590675900000003707800888800000010180088887287283130900010407614051020230000000415213023000000000204520531260XXXXXX3000       ME03KE06MS02      NY 4607AMDJVHD52P0510  N840000000004152          81DNMR HEMP FLOWER           113621    MD84000000004152 N  549976053336   89515                    000000000+600450S00130    MDJ  10813                     000000000  1                0000000000000.00 0000000.00   0000000.00                             000000000000000                                                                                                                                                   U001424  000000000000 0000000000000.24     00050 02200                  
00005090279410011DT67590675900000003707800888800000010180088824001193130900010407621051020230000000413513023000000000204520490097XXXXXX1730               2111111   NYV4 A7W383130603108974N8400000000041358H4300    01DNMR HEMP FLOWER           024510    VD84000000004135 NP1549976053336   89523                    000000000+                F DF 00415                     000000000  N000000000       0000000000000.00 0000000.00   0000000.00                             000000000000000                                                                                                                                                     01424 G000000004135 0000000000000.83     01650 01500                  
00005100279410001P16759067590000000370780088880000001010000000000000000                             2000000000000000000000000              000000000000                    0000000000000000000000000                    000000000000                                                                                                                                                                                                                                                                                                                                                                                                                                                                                        
00005110279410012DT67590675900000003707800888800000010180088887287283130900010407630051020230000000349913023000000000204520529062XXXXXX6629       ME03KE06MS02      NY 4607AMPGFYBX280510  N840000000003499          81DNMR HEMP FLOWER           000034    MD84000000003499 N  549976053336   89524                    000000000+600450S00130    MPG  09899                     000000000  N                0000000000000.00 0000000.00   0000000.00                             000000000000000                                                                                                                                                   U001424  000000000000 0000000000000.82     01760 02000                  
00005120279410013DT67590675900000003707800888800000010180088876509753130900010407645051020230000001699913023000000000204520601101XXXXXX0621   BA00                  NY 4 07N873111971060384N840000000016999    00    01DNMR HEMP FLOWER           01077B    DZ84000000016999 N  549976053336070                         000000000+1015104910600   DMCDI01012664132  131826000000 000000000  0          124   0000000000000.00 0000000.00   0000000.00                             000000000000000                                                                                                                                                     01424  000000000000 0000000000004.31     02450 01500                  
00005130279410014DT67590675900000003707800888800000010180088824001193130900010407654051020230000000679813023000000000204520417903XXXXXX2276               2111111   NYV4 A7W303130712294712N8400000000067985BBH00    01DNMR HEMP FLOWER           410174    VS84000000006798 NP1549976053336   89526                    000000000+                D CD 12109                     000000000  N000000000 498   0000000000000.00 0000000.00   0000000.00                             000000000000000                                                                                                                                                     01424 G000000006798 0000000000001.80     02500 01000                  
00005140279410001P16759067590000000370780088880000001010000000000000000                             2000000000000000000000000              000000000000                    0000000000000000000000000                    000000000000                                                                                                                                                                                                                                                                                                                                                                                                                                                                                        
00005150279410015DT67590675900000003707800888800000010180088887287283130900010407663051020230000001599913023000000000204520510805XXXXXX8095       ME03KE06MS02      NY 4607AMDJARSQ660510  N840000000015999          81DNMR HEMP FLOWER           045317    MD84000000015999 N  549976053336   89527                    000000000+600450S00130    MDJ  10813                     000000000  1                0000000000000.00 0000000.00   0000000.00                             000000000000000                                                                                                                                                   U001424  000000000000 0000000000000.30     00050 02200                  
00005160279410016DT67590675900000003707800888800000010180088824001193130900010407670051020230000001900013023000000000204520432739XXXXXX6815               2111111   NYV4 A7W383130816471629N840000000019000LZ6800    01DNMR HEMP FLOWER           265569    VD84000000019000 NP1549976053336   89535                    000000000+                F DF 10420                     000000000  Y000000000 338   0000000000000.00 0000000.00   0000000.00                             000000000000000                                                                                                                                                     01424 G000000019000 0000000000000.32     00050 02200                  
00005170279410001P16759067590000000370780088880000001010000000000000000                             2000000000000000000000000              000000000000                    0000000000000000000000000                    000000000000                                                                                                                                                                                                                                                                                                                                                                                                                                                                                        
00005180279410017DT67590675900000003707800888800000010180088824001193130900010407688051020230000004599413023000000000204520426684XXXXXX2351               2111111   NYV4 A7W303130816857200N8400000000459946ZGX00    01DNMR HEMP FLOWER           03778B    VS84000000045994 NP1549976053336   89536                    000000000+                B CB 12107                     000000000  N000000000 494   0000000000000.00 0000000.00   0000000.00                             000000000000000                                                                                                                                                     01424 G000000045994 0000000000009.48     02040 01000                  
00005190279410001P16759067590000000370780088880000001010000000000000000                             2000000000000000000000000              000000000000                    0000000000000000000000000                    000000000000                                                                                                                                                                                                                                                                                                                                                                                                                                                                                        
00005200279410018DT67590675900000003707800888800000010180088824001193130900010407696051020230000000179813023000000000204520434258XXXXXX5889               2111111   NYV4 A7W303130821268465N840000000001798WD4P00    01DNMR HEMP FLOWER           064586    VD84000000001798 NP1549976053336   89537                    000000000+                F DF 10420                     000000000  Y000000000 338   0000000000000.00 0000000.00   0000000.00                             000000000000000                                                                                                                                                     01424 G000000001798 0000000000000.23     00050 02200                  
00005210279410001P16759067590000000370780088880000001010000000000000000                             2000000000000000000000000              000000000000                    0000000000000000000000000                    000000000000                                                                                                                                                                                                                                                                                                                                                                                                                                                                                        
00005220279410019DT67590675900000003707800888800000010180088824001193130900010407704051020230000000999913023000000000204520466189XXXXXX4978               2111111   NYV4 A7W463130825757923N840000000009999SLL300    01DNMR HEMP FLOWER           030157    VD84000000009999 NP1549976053336   89538                    000000000+                F DF 10420                     000000000  Y000000000 338   0000000000000.00 0000000.00   0000000.00                             000000000000000                                                                                                                                                     01424 G000000009999 0000000000000.27     00050 02200                  
00005230279410001P16759067590000000370780088880000001010000000000000000                             2000000000000000000000000              000000000000                    0000000000000000000000000                    000000000000                                                                                                                                                                                                                                                                                                                                                                                                                                                                                        
00005240279410020DT67590675900000003707800888800000010180088887287283130900010407713051020230000000744913023000000000204520533248XXXXXX0845       ME03KE06MS02      NY 4607AMPVSOB2GC0510  N840000000007449          81DNMR HEMP FLOWER           BFJONB    MD84000000007449 N  549976053336   89539                    000000000+600450S00130    MPV  09899                     000000000  N                0000000000000.00 0000000.00   0000000.00                             000000000000000                                                                                                                                                   U001424  000000000000 0000000000001.51     01760 02000                  
00005250279410021BH6759067590000001767380010680000090170510202313023000000000006089    0000090001441720Y8001066759C05112023                                                                                                                                                                                                                                                                                                                                                                                                                                                                                                                                                                                                 
00005260279410022DT67590675900000017673800106800000010680010674001193130900014417183051020230000001570013023000000000006089448849XXXXXX0378               0000000   NYV4 07T303130514314281N840000000015700V7V800    01CNVGHEMP.COM833-246-5225   091711    VD84000000015700 NP1549977427364   2E8603A0A3T5D36516C3AA6  000000000+                F DF 08168                     000000000  N000000000 369   0000000000000.00 0000000.00   0000000.00                             000000000000000                                                                                                                                                     01424  000000015700 0000000000000.00     00000 00000                  
00005270279410001P16759067590000001767380010680000001060000000000000000                             2000000000000000000000000              000000000000                    0000000000000000000000000                    000000000000                                                                                                                                                                                                                                                                                                                                                                                                                                                                                        
00005280279410023DT67590675900000017673800106800000010180010624001193130900014417204051020230000002178913023000000000006089402467XXXXXX1281               2111111   NYV4 A7W463130580780261N84000000002178928LC00    01DNVGHEMP.COM833-246-5225   016177    VD84000000021789 NP1549977427364   3CBE6F6D7CT94372638A0D6  000000000+                G DG 08705                     000000000  N000000000       0000000000000.00 0000000.00   0000000.00                             000000000000000                                                                                                                                                     01424 G000000021789 0000000000005.44     02450 01000                  
00005290279410001P16759067590000001767380010680000001010000000000000000                             1000000001799000000000000              000000000000                    0000000000000000000000000                    000000000000                                                                                                                                                                                                                                                                                                                                                                                                                                                                                        
00005300279410024BH675906759000000232598001168000009017051020231302300000000001482001970000090001391756N8001166759D05112023                                                                                                                                                                                                                                                                                                                                                                                                                                                                                                                                                                                                 
00005310279410025DT67590675900000023259800116800000010180011624001193130900013917287050920230000000696913023000000000014820426444XXXXXX0390               2111111   NNV4 A7W383130004414002N840000000006969V2S600    01DNGFORCEHEMP844-258-9322   1907210197VD84000000006969 NP1549977768166   FE251BDA8CTD5ECB1424D63  000000000+                F DF 00000                     000000000  N000000000       0000000000000.00 0000000.00   0000000.00             000000000006969D000000000000000                                                                                                                                                     01424 G000000006969 0000000000000.00     00000 00000                  
00005320279410001P16759067590000002325980011680000001010000000000000000                             2000000000000000000000000              000000000000                    0000000000000000000000000                    000000000000                                                                                                                                                                                                                                                                                                                                                                                                                                                                                        
00005330279410026DT67590675900000023259800116800000010180011624001193130900013917329051020230000002178913023000000000014820438864XXXXXX4537               2111111   NNV4 A7W583130184551050N840000000021789D82V00    01DNGFORCEHEMP844-258-9322   02080C0197VS84000000021789 NP1549977768166   38B9B3D8ABTF541A33D1ECD  000000000+                C CC 00000                     000000000  N000000000 496   0000000000000.00 0000000.00   0000000.00             000000000021789D000000000000000                                                                                                                                                     01424 G000000021789 0000000000000.00     00000 00000                  
00005340279410001P16759067590000002325980011680000001010000000000000000                             2000000000000000000000000              000000000000                    0000000000000000000000000                    000000000000                                                                                                                                                                                                                                                                                                                                                                                                                                                                                        
00005350279410027DT67590675900000023259800116800000010680011687287283130900013917478051020230000002178913023000000000014820527854XXXXXX9538                         NN 4607AMWEX74GDH0510  N840000000021789          81CNGFORCEHEMP844-258-9322   3101050197MC84000000021789 N  549977768166   7035E1F300T951CBC77CB93  000000000+600450S00130    MWE  00000                     000000000  N                0000000000000.00 0000000.00   0000000.00             000000000021789C000000000000000                                                                                                                                                     01424  000000000000 0000000000000.00     00000 00000                  
00005360279410028DT67590675900000023259800116800000010680011674001193130900013917563051020230000002178913023000000000014820446542XXXXXX5458               0000000   NNV4 07T463130777542617N840000000021789MZCR00    01CNGFORCEHEMP844-258-9322   0106680197VS84000000021789 NP1549977768166   5CF01BD3E1T0D5D2BFD35AF  000000000+                A CA 00000                     000000000  N000000000 166   0000000000000.00 0000000.00   0000000.00             000000000021789C000000000000000                                                                                                                                                     01424  000000021789 0000000000000.00     00000 00000                  
00005370279410001P16759067590000002325980011680000001060000000000000000                             2000000000000000000000000              000000000000                    0000000000000000000000000                    000000000000                                                                                                                                                                                                                                                                                                                                                                                                                                                                                        
00005380279410029BH675906759000000239118001208000009017051020231302300000000000600001970000090001130349N8001206759D05112023                                                                                                                                                                                                                                                                                                                                                                                                                                                                                                                                                                                                 
00005390279410030DT67590675900000023911800120800000010680012087287283130900011303499051020230000000600013023000000000006000545510XXXXXX1534                         NN 4607AMDSKKD5660510  N840000000006000          81CN8442835587VITASUREMEDICAL0743150197MD84000000006000 N  599977875615   AE49399A1BT4DCFDDA7263D  000000000+600450S00130    MDS  00000                     000000000  1                0000000000000.00 0000000.00   0000000.00             000000000006000C000000000000000                                                                                                                                                     01424  000000000000 0000000000000.00     00000 00000                  
00005400279410031BH6759067590000001427480010280000090170510202313023000000000433212    0000090001840754Y8001026759C05112023                                                                                                                                                                                                                                                                                                                                                                                                                                                                                                                                                                                                 
00005410279410032DT67590675900000014274800102800000010180010224001193130900018403218050920230000001987013023000000000433212444796XXXXXX6772               2111111   NYV4 A7W303126594058857N8400000000198703N7R00    01DNCBD8666317293            006020    VS84000000019870 NP1549977145232   674BE185BFT82226EFA18E5  000000000+                A CA 12106                     000000000  N000000000 492   0000000000000.00 0000000.00   0000000.00                             000000000000000                                                                                                                                                     01424 G000000019870 0000000000003.86     01890 01000                  
00005420279410001P16759067590000001427480010280000001010000000000000000                             2000000000000000000000000              000000000000                    0000000000000000000000000                    000000000000                                                                                                                                                                                                                                                                                                                                                                                                                                                                                        
00005430279410033DT67590675900000014274800102800000010180010287287283130900018403292050920230000002636213023000000000433212512106XXXXXX4889       ME03KE06MS02      NY 4607AMPLALDRFX0506  N840000000026362          81DNCBD8666317293            00675B    MC84000000026362 N  549977145232   85A41E1F4ET863DB560C7EB  000000000+600450S00130    MPL  00580                     000000000  N                0000000000000.00 0000000.00   0000000.00                             000000000000000                                                                                                                                                   U001424  000000000000 0000000000005.64     02100 01000                  
00005440279410034DT67590675900000014274800102800000010180010287287283130900018403342050920230000002636213023000000000433212518941XXXXXX8735       ME03KE06MS02      NY 4607AMWERPAP740506  N840000000026362          81DNCBD8666317293            61543Z    MC84000000026362 N  549977145232   6548A1D6E7TCE681CB0D8EA  000000000+600450S00130    MWE  00737                     000000000  N                0000000000000.00 0000000.00   0000000.00                             000000000000000                                                                                                                                                   U001424  000000000000 0000000000006.95     02600 01000                  
00005450279410035DT67590675900000014274800102800000010180010224001193130900018403507050920230000000600413023000000000433212434256XXXXXX3763               2111111   NYV4 A7W583126819054480N8400000000060042NZJ00    01DNCBD8666317293            017102    VD84000000006004 NP1549977145232   8E1F73A61BT1EF3F6A8A62C  000000000+                F DF 10420                     000000000  Y000000000 338   0000000000000.00 0000000.00   0000000.00                             000000000000000                                                                                                                                                     01424 G000000006004 0000000000000.25     00050 02200                  
00005460279410001P16759067590000001427480010280000001010000000000000000                             2000000000000000000000000              000000000000                    0000000000000000000000000                    000000000000                                                                                                                                                                                                                                                                                                                                                                                                                                                                                        
00005470279410036DT67590675900000014274800102800000010180010224001193130900018403606050920230000002128613023000000000433212461394XXXXXX6115               2111111   NYV4 A7W583127001454808N84000000002128685BQ00    01DNCBD8666317293            090225    VS84000000021286 NP1549977145232   6B6DD950F1T13CDC8EC2630  000000000+                B CB 12107                     000000000  N000000000 494   0000000000000.00 0000000.00   0000000.00                             000000000000000                                                                                                                                                     01424 G000000021286 0000000000004.44     02040 01000                  
00005480279410001P16759067590000001427480010280000001010000000000000000                             2000000000000000000000000              000000000000                    0000000000000000000000000                    000000000000                                                                                                                                                                                                                                                                                                                                                                                                                                                                                        
00005490279410037DT67590675900000014274800102800000010180010224001193130900018403689050920230000002661113023000000000433212471777XXXXXX1252               2111111   NYV4 A7W303127073373084N8400000000266115R4V00    01DNCBD8666317293            025962    VD84000000026611 NP1549977145232   0CDF93D332T7743ECC00D55  000000000+                G DG 08705                     000000000  N000000000       0000000000000.00 0000000.00   0000000.00                             000000000000000                                                                                                                                                     01424 G000000026611 0000000000006.62     02450 01000                  
00005500279410001P16759067590000001427480010280000001010000000000000000                             1000000001741000000000000              000000000000                    0000000000000000000000000                    000000000000                                                                                                                                                                                                                                                                                                                                                                                                                                                                                        
00005510279410038DT67590675900000014274800102800000010180010287287283130900018403714050920230000000700413023000000000433212526947XXXXXX2019       ME03KE06PT01      NY 4607AMCWD58FMB0506  N840000000007004          81DNCBD8666317293            05169Z    MC84000000007004 N  549977145232   6705BFD714TA83A0BD072CB  000000000+600450S00130    MCW  00642                     000000000  N                0000000000000.00 0000000.00   0000000.00                             000000000000000                                                                                                                                                   U001424  000000000000 0000000000001.64     02200 01000                  
00005520279410039DT67590675900000014274800102800000010180010287287283130900018406733050920230000002106213023000000000433212517546XXXXXX2687       ME03KE06MS02      NY 4607AMDJE7VML40509  N840000000021062          81DNCBD8666317293            009108    MD84000000021062 N  549977145232   503D10E511T7A29A8A0A047  000000000+600450S00130    MDJ  10813                     000000000  1                0000000000000.00 0000000.00   0000000.00                             000000000000000                                                                                                                                                   U001424  000000000000 0000000000000.33     00050 02200                  
00005530279410040DT67590675900000014274800102800000010180010224001193130900018406773050920230000001200813023000000000433212448233XXXXXX2058               2111111   NYV4 A7W463130078041441N84000000001200883LK00    01DNCBD8666317293            011004    VD84000000012008 NP1549977145232   7EC5F13023T299891150410  000000000+                F DF 10420                     000000000  Y000000000 338   0000000000000.00 0000000.00   0000000.00                             000000000000000                                                                                                                                                     01424 G000000012008 0000000000000.28     00050 02200                  
00005540279410001P16759067590000001427480010280000001010000000000000000                             2000000000000000000000000              000000000000                    0000000000000000000000000                    000000000000                                                                                                                                                                                                                                                                                                                                                                                                                                                                                        
00005550279410041DT67590675900000014274800102800000010180010287287283130900018406832050920230000002023513023000000000433212555803XXXXXX3166       ME03KE06MS02      NY 4607AMPLFRS0L40509  N840000000020235          81DNCBD8666317293            009398    MC84000000020235 N  549977145232   A0EB50ECC9TDC23C337D8F6  000000000+600450S00130    MPL  00013                     000000000  N                0000000000000.00 0000000.00   0000000.00                             000000000000000                                                                                                                                                   U001424  000000000000 0000000000004.05     01950 01000                  
00005560279410042DT67590675900000014274800102800000010180010224001193130900018406872050920230000001604013023000000000433212440066XXXXXX1065               2111111   NYV4 A7W463130108044780N840000000016040JNCW00    01DNCBD8666317293            05582D    VS84000000016040 NP1549977145232   2F1DE30226T0203C1E1E090  000000000+                D CD 12109                     000000000  N000000000 498   0000000000000.00 0000000.00   0000000.00                             000000000000000                                                                                                                                                     01424 G000000016040 0000000000004.11     02500 01000                  
00005570279410001P16759067590000001427480010280000001010000000000000000                             2000000000000000000000000              000000000000                    0000000000000000000000000                    000000000000                                                                                                                                                                                                                                                                                                                                                                                                                                                                                        
00005580279410043DT67590675900000014274800102800000010180010224001193130900018406930050920230000002111213023000000000433212411770XXXXXX3528               2111111   NYV4 A7W383130129246674N8400000000211123M5300    01DNCBD8666317293            113152    VD84000000021112 NP1549977145232   D3F629182BT6335A86FC256  000000000+                F DF 10420                     000000000  Y000000000 338   0000000000000.00 0000000.00   0000000.00                             000000000000000                                                                                                                                                     01424 G000000021112 0000000000000.33     00050 02200                  
00005590279410001P16759067590000001427480010280000001010000000000000000                             2000000000000000000000000              000000000000                    0000000000000000000000000                    000000000000                                                                                                                                                                                                                                                                                                                                                                                                                                                                                        
00005600279410044DT67590675900000014274800102800000010180010224001193130900018406948050920230000002755013023000000000433212441105XXXXXX5715               2111111   NYV4 A7W463130144049607N840000000027550PP9W00    01DNCBD8666317293            040000    VD84000000027550 NP1549977145232   2E47237DC5TF9ED67C95798  000000000+                F DF 10420                     000000000  Y000000000 338   0000000000000.00 0000000.00   0000000.00                             000000000000000                                                                                                                                                     01424 G000000027550 0000000000000.36     00050 02200                  
00005610279410001P16759067590000001427480010280000001010000000000000000                             2000000000000000000000000              000000000000                    0000000000000000000000000                    000000000000                                                                                                                                                                                                                                                                                                                                                                                                                                                                                        
00005620279410045DT67590675900000014274800102800000010180010287287283130900018407004051020230000001066013023000000000433212533248XXXXXX8531       ME03KE06MS02      NY 4607AMPVLWZQXA0510  N840000000010660          81DNCBD8666317293            BCUBVP    MD84000000010660 N  549977145232   08964BA1E1TCA8DF25F7ED7  000000000+600450S00130    MPV  09899                     000000000  N                0000000000000.00 0000000.00   0000000.00                             000000000000000                                                                                                                                                   U001424  000000000000 0000000000002.08     01760 02000                  
00005630279410046DT67590675900000014274800102800000010180010287287283130900018407103051020230000002255013023000000000433212528281XXXXXX4349       ME03KE06MS02      NY 4607AMCSEZ7P280510  N840000000022550          81DNCBD8666317293            00331B    MC84000000022550 N  549977145232   03203F6556T3307345172B0  000000000+600450S00130    MCS  00580                     000000000  N                0000000000000.00 0000000.00   0000000.00                             000000000000000                                                                                                                                                   U001424  000000000000 0000000000004.84     02100 01000                  
00005640279410047DT67590675900000014274800102800000010680010287287283130900018407749051020230000002092313023000000000433212510805XXXXXX3563                         NY94607N         0510  N840000000000000          81CNCBD8666317293                      MD84000000020923 N  549977145232   3BF5905858T781BDFDE3947  000000000+600450S00130    MDJ  10828                     000000000  1                0000000000000.00 0000000.00   0000000.00                             000000000000000                                                                                                                                                     01424  000000000000 0000000000000.00     00000 00000                  
00005650279410048DT67590675900000014274800102800000010680010287287283130900018407129051020230000001595113023000000000433212528281XXXXXX4349                         NY 4607AMCS68AI270510  N840000000015951          81CNCBD8666317293            027833    MC84000000015951 N  549977145232   03203F6556T3307345172B0  000000000+600450S00130    MCS  00565                     000000000  N                0000000000000.00 0000000.00   0000000.00                             000000000000000                                                                                                                                                     01424  000000000000-0000000000002.79     01750 00000                  
00005660279410049DT67590675900000014274800102800000010680010274001193130900018407131051020230000002487013023000000000433212425907XXXXXX7104               0000000   NYV4 07T303130599572788N840000000024870ZSGX00    01CNCBD8666317293            039900    VD84000000024870 NP1549977145232   BA576474EDT8288917B7CFD  000000000+                G DG 08168                     000000000  Y000000000 369   0000000000000.00 0000000.00   0000000.00                             000000000000000                                                                                                                                                     01424  000000024870 0000000000000.00     00000 00000                  
00005670279410001P16759067590000001427480010280000001060000000000000000                             2000000000000000000000000              000000000000                    0000000000000000000000000                    000000000000                                                                                                                                                                                                                                                                                                                                                                                                                                                                                        
00005680279410050DT67590675900000014274800102800000010180010224001193130900018407144051020230000001987013023000000000433212406041XXXXXX2169               2111111   NYV4 A7W463130603050250N8400000000198707W5400    01DNCBD8666317293            05166D    VS84000000019870 NP1549977145232   76CFA14C35TDBED5AC5F116  000000000+                D CD 12109                     000000000  N000000000 498   0000000000000.00 0000000.00   0000000.00                             000000000000000                                                                                                                                                     01424 G000000019870 0000000000005.07     02500 01000                  
00005690279410001P16759067590000001427480010280000001010000000000000000                             2000000000000000000000000              000000000000                    0000000000000000000000000                    000000000000                                                                                                                                                                                                                                                                                                                                                                                                                                                                                        
00005700279410051DT67590675900000014274800102800000010180010287287283130900018407186051020230000001580813023000000000433212517279XXXXXX7068       ME03KE06MS02      NY 4607AMDJZK049U0510  N840000000015808          81DNCBD8666317293            040502    MD84000000015808 N  549977145232   AA8B000389T0751DCAB84F0  000000000+600450S00130    MDJ  00401                     000000000  N                0000000000000.00 0000000.00   0000000.00                             000000000000000                                                                                                                                                   U001424  000000000000 0000000000002.76     01650 01500                  
00005710279410052DT67590675900000014274800102800000010180010287287283130900018407210051020230000001987013023000000000433212530705XXXXXX7779       ME03KE06PT01      NY 4607AMCWF7JZ660510  N840000000019870          81DNCBD8666317293            31017Z    MC84000000019870 N  549977145232   F00313E444TA020CFC75DDC  000000000+600450S00130    MCW  00642                     000000000  N                0000000000000.00 0000000.00   0000000.00                             000000000000000                                                                                                                                                   U001424  000000000000 0000000000004.47     02200 01000                  
00005720279410053DT67590675900000014274800102800000010180010224001193130900018407243051020230000000999813023000000000433212470793XXXXXX7996               2111111   NYV4 A7W463130666621078N84000000000999847DS00    01DNCBD8666317293            010585    VS84000000009998 NP1549977145232   18AAAA49B3T86644F2A44DF  000000000+                B CB 12107                     000000000  N000000000 494   0000000000000.00 0000000.00   0000000.00                             000000000000000                                                                                                                                                     01424 G000000009998 0000000000002.14     02040 01000                  
00005730279410001P16759067590000001427480010280000001010000000000000000                             2000000000000000000000000              000000000000                    0000000000000000000000000                    000000000000                                                                                                                                                                                                                                                                                                                                                                                                                                                                                        
00005740279410054DT67590675900000014274800102800000010180010287287283130900018407277051020230000001595513023000000000433212528071XXXXXX5094       ME03KE06MS02      NY 4607AMCSIGTPDI0510  N840000000015955          81DNCBD8666317293            01906B    MC84000000015955 N  549977145232   A68FB0E987T798D1725C2E2  000000000+600450S00130    MCS  00580                     000000000  N                0000000000000.00 0000000.00   0000000.00                             000000000000000                                                                                                                                                   U001424  000000000000 0000000000003.45     02100 01000                  
00005750279410055DT67590675900000014274800102800000010180010287287283130900018407293051020230000001498913023000000000433212542418XXXXXX9872       ME03KE06MS02      NY 4607AMPLYP99DH0510  N840000000014989          81DNCBD8666317293            39021B    MC84000000014989 N  549977145232   52E44317DFTE78B57FDD136  000000000+600450S00130    MPL  00580                     000000000  N                0000000000000.00 0000000.00   0000000.00                             000000000000000                                                                                                                                                   U001424  000000000000 0000000000003.25     02100 01000                  
00005760279410056DT67590675900000014274800102800000010180010287287283130900018407335051020230000002161913023000000000433212542418XXXXXX2952       ME03KE06MS02      NY 4607AMPLPXOI660510  N840000000021619          81DNCBD8666317293            13779B    MC84000000021619 N  549977145232   B63CED63DAT9F70F527521B  000000000+600450S00130    MPL  00580                     000000000  N                0000000000000.00 0000000.00   0000000.00                             000000000000000                                                                                                                                                   U001424  000000000000 0000000000004.64     02100 01000                  
00005770279410057DT67590675900000014274800102800000010180010287287283130900018407376051020230000002136013023000000000433212515252XXXXXX3207       ME03KE06MS02      NY 4607AMDJIDUL660510  N840000000021360          81DNCBD8666317293            589480    MD84000000021360 N  549977145232   41A71764D5T3B958970FEA7  000000000+600450S00130    MDJ  00401                     000000000  N                0000000000000.00 0000000.00   0000000.00                             000000000000000                                                                                                                                                   U001424  000000000000 0000000000003.67     01650 01500                  
00005780279410058DT67590675900000014274800102800000010180010287287283130900018407459051020230000001200813023000000000433212511361XXXXXX5707       ME03KE06MS02      NY 4607AMPGAMQMDI0510  N840000000012008          81DNCBD8666317293            001284    MD84000000012008 N  549977145232   A246FDBC28T1C9224184B21  000000000+600450S00130    MPG  09899                     000000000  N                0000000000000.00 0000000.00   0000000.00                             000000000000000                                                                                                                                                   U001424  000000000000 0000000000002.31     01760 02000                  
00005790279410059DT67590675900000014274800102800000010180010287287283130900018407467051020230000001987013023000000000433212552486XXXXXX2608       ME03KE06MS02      NY 4607AMWERH2P660510  N840000000019870          81DNCBD8666317293            00134Z    MC84000000019870 N  549977145232   57CA83C4FDTDE78CB617EFC  000000000+600450S00130    MWE  00737                     000000000  N                0000000000000.00 0000000.00   0000000.00                             000000000000000                                                                                                                                                   U001424  000000000000 0000000000005.27     02600 01000                  
00005800279410060DT67590675900000014274800102800000010180010224001193130900018407474051020230000002255013023000000000433212426684XXXXXX5378               2111111   NYV4 A7W463130738041004N840000000022550BLBT00    01DNCBD8666317293            00142A    VS84000000022550 NP1549977145232   264BF32904T7C0EB682EDD7  000000000+                A CA 12106                     000000000  N000000000 492   0000000000000.00 0000000.00   0000000.00                             000000000000000                                                                                                                                                     01424 G000000022550 0000000000004.36     01890 01000                  
00005810279410001P16759067590000001427480010280000001010000000000000000                             2000000000000000000000000              000000000000                    0000000000000000000000000                    000000000000                                                                                                                                                                                                                                                                                                                                                                                                                                                                                        
00005820279410061DT67590675900000014274800102800000010180010287287283130900018407491051020230000000149513023000000000433212533248XXXXXX0394       ME03KE06MS02      NY 4607AMPVCFQ5660510  N840000000001495          81DNCBD8666317293            BF45XG    MD84000000001495 N  549977145232   E07806D439TB8C4E34BF039  000000000+600450S00130    MPV  09899                     000000000  N                0000000000000.00 0000000.00   0000000.00                             000000000000000                                                                                                                                                   U001424  000000000000 0000000000000.46     01760 02000                  
00005830279410062DT67590675900000014274800102800000010180010287287283130900018407541051020230000001484813023000000000433212521333XXXXXX2879       ME03KE06MS02      NY 4607AMWECRQA660510  N840000000014848          81DNCBD8666317293            01080P    MC84000000014848 N  549977145232   47A3BD929CT22BE9B434714  000000000+600450S00130    MWE  00737                     000000000  N                0000000000000.00 0000000.00   0000000.00                             000000000000000                                                                                                                                                   U001424  000000000000 0000000000003.96     02600 01000                  
00005840279410063BH6759067590000002092580011280000090170510202313023000000000115100    0000090001140032Y8001126759C05112023                                                                                                                                                                                                                                                                                                                                                                                                                                                                                                                                                                                                 
00005850279410064DT67590675900000020925800112800000010180011224001193130900011400302051020230000006450013023000000000115100480213XXXXXX8665               2111111   NYV4 A7W383130763540538N840000000064500R88900    01DNJ K DISTRIBUTION INC     070333    VB84000000064500 NP1549977712156   MICHAELHURFF             000000000+                G CG 00690                     000000000  N000000000 231   0000000000000.00 0000000.00   0000000.00                             000000000000000                                                                                                                                                     01424 G000000064500 0000000000017.19     02650 01000                  
00005860279410001P16759067590000002092580011280000001010000000000000000    INV001996                2000000000000000000000000              000000000000                    0000000000000000000000000                    000000000000                                                                                                                                                                                                                                                                                                                                                                                                                                                                                        
00005870279410065DT67590675900000020925800112800000010180011273011003130900011400316051020230000003170013023000000000115100372719XXXXX1005                          NY 4 07N005116554269307N840000000031700          01DNJ K DISTRIBUTION INC     247954    AM84000000031700 YP1549977712156   INV001936                000000000+6004S0S00130 258     11262                     000000000                   0000000000000.00 0000000.00   0000000.00                             000000000000000 61248972086759675900000020925 J K DISTRIBUTION INC     391 MAIN ST              8608957639      06492     ADMIN@GOODDISTRO.COM                      01324  000000000000 0000000000006.28     01950 00000                  
00005880279410001P1675906759000000209258001128000000101                    INV001936                             00000000000008043     1000   000000000850871923            000000000000                                                                                                      D                                                                                                                                                                                                                                                                                                                                                                                                                             
00005890279410002P2675906759000000209258001128000000101                                                                                              00000                   000000000                                                                                                                                                                                                                                                                                                                                                                                                                                                                                                                                      
00005900279410066DT67590675900000020925800112800000010180011273011003130900011400324051020230000001890013023000000000115100372719XXXXX1005                          NY 4 07N005116604734300N840000000018900          01DNJ K DISTRIBUTION INC     260144    AM84000000018900 YP1549977712156   INV001960                000000000+6004S0S00130 258     11262                     000000000                   0000000000000.00 0000000.00   0000000.00                             000000000000000 61248972086759675900000020925 J K DISTRIBUTION INC     391 MAIN ST              8608957639      06492     ADMIN@GOODDISTRO.COM                      01324  000000000000 0000000000003.79     01950 00000                  
00005910279410001P1675906759000000209258001128000000101                    INV001960                             00000000000008043     1000   000000000850871923            000000000000                                                                                                      D                                                                                                                                                                                                                                                                                                                                                                                                                             
00005920279410002P2675906759000000209258001128000000101                                                                                              00000                   000000000                                                                                                                                                                                                                                                                                                                                                                                                                                                                                                                                      
00005930279410067BH6759067590000000288180088880000090170510202313023000000000011507    0000090001160228Y8008886759C05112023                                                                                                                                                                                                                                                                                                                                                                                                                                                                                                                                                                                                 
00005940279410068DT67590675900000002881800888800000010180088824001193130900011602287051020230000001150713023000000000011507440393XXXXXX7825               2111111   NYV4 A7W383130846965645N840000000011507MN8R00    01DNHAPPY HIPPIE             695383    VD84000000011507 NP1549976044904   2043                     000000000+                F PF 08175                     000000000  N000000000       0000000000000.00 0000000.00   0000000.00                             000000000000000                                                                                                                                                     01424 G000000011507 0000000000002.21     01750 02000                  
00005950279410001P16759067590000000288180088880000001010000000000000000                             2000000000000000000000000              000000000000                    0000000000000000000000000                    000000000000                                                                                                                                                                                                                                                                                                                                                                                                                                                                                        
00005960279410069BH6759067590000001516480088880000090170510202313023000000000159716    0000090001747204Y8008886759C05112023                                                                                                                                                                                                                                                                                                                                                                                                                                                                                                                                                                                                 
00005970279410070DT67590675900000015164800888800000010180088824001193130900017468014050920230000002487013023000000000159716440066XXXXXX6070               2111111   NYV4 A7W463126402240096N840000000024870WKV300    01DNKETOFUSION833-923-3587   05694C    VS84000000024870 NP1599977360677   967FD3A130TF7246A080362  000000000+                C CC 12108                     000000000  N000000000 496   0000000000000.00 0000000.00   0000000.00                             000000000000000                                                                                                                                                     01424 G000000024870 0000000000005.20     02050 01000                  
00005980279410001P16759067590000001516480088880000001010000000000000000                             2000000000000000000000000              000000000000                    0000000000000000000000000                    000000000000                                                                                                                                                                                                                                                                                                                                                                                                                                                                                        
00005990279410071DT67590675900000015164800888800000010180088824001193130900017468055050920230000002487013023000000000159716403766XXXXXX6636               2111111   NYV4 A7W463126492060593N8400000000248704CV700    01DNKETOFUSION833-923-3587   806004    VS84000000024870 NP1599977360677   7B806AECE0T58CA882570C2  000000000+                A CA 12106                     000000000  N000000000 492   0000000000000.00 0000000.00   0000000.00                             000000000000000                                                                                                                                                     01424 G000000024870 0000000000004.80     01890 01000                  
00006000279410001P16759067590000001516480088880000001010000000000000000                             2000000000000000000000000              000000000000                    0000000000000000000000000                    000000000000                                                                                                                                                                                                                                                                                                                                                                                                                                                                                        
00006010279410072DT67590675900000015164800888800000010180088887287283130900017468106050920230000001987013023000000000159716536817XXXXXX0323       ME03KE06PT01      NY 4607AMCWW1T1FW0506  N840000000019870          81DNKETOFUSION833-923-3587   00696P    MC84000000019870 N  599977360677   8C2155D7A4T47095006984E  000000000+600450S00130    MCW  00642                     000000000  N                0000000000000.00 0000000.00   0000000.00                             000000000000000                                                                                                                                                   U001424  000000000000 0000000000004.47     02200 01000                  
00006020279410073DT67590675900000015164800888800000010180088887287283130900017468114050920230000001987013023000000000159716552433XXXXXX8171       ME03KE06PT01      NY 4607AMCW5U10730506  N840000000019870          81DNKETOFUSION833-923-3587   02077S    MC84000000019870 N  599977360677   AB9ED277E6TCB0BB4C49F52  000000000+600450S00130    MCW  02182                     000000000  N                0000000000000.00 0000000.00   0000000.00                             000000000000000                                                                                                                                                   U001424  000000000000 0000000000005.27     02600 01000                  
00006030279410074DT67590675900000015164800888800000010180088824001193130900017468154050920230000001394813023000000000159716464363XXXXXX0813               2111111   NYV4 A7W303126606079291N8400000000139487QK700    01DNKETOFUSION833-923-3587   123013    VD84000000013948 NP1599977360677   B7E426B0F7T17E590207376  000000000+                F DF 00415                     000000000  N000000000       0000000000000.00 0000000.00   0000000.00                             000000000000000                                                                                                                                                     01424 G000000013948 0000000000002.45     01650 01500                  
00006040279410001P16759067590000001516480088880000001010000000000000000                             2000000000000000000000000              000000000000                    0000000000000000000000000                    000000000000                                                                                                                                                                                                                                                                                                                                                                                                                                                                                        
00006050279410075DT67590675900000015164800888800000010180088887287283130900017468171050920230000002487013023000000000159716514616XXXXXX9329       ME03KE06MS02      NY 4607AMDJEHEVN20506  N840000000024870          81DNKETOFUSION833-923-3587   6A23C3    MD84000000024870 N  599977360677   0D2E7D30E2TA250431701DA  000000000+600450S00130    MDJ  00401                     000000000  N                0000000000000.00 0000000.00   0000000.00                             000000000000000                                                                                                                                                   U001424  000000000000 0000000000004.25     01650 01500                  
00006060279410076DT67590675900000015164800888800000010180088887287283130900017468247050920230000002487013023000000000159716515676XXXXXX3893       ME03KE06MS02      NY 4607AMWEZYKG730506  N840000000024870          81DNKETOFUSION833-923-3587   00192Z    MC84000000024870 N  599977360677   24D65B3701T7A2DB3721C2A  000000000+600450S00130    MWE  00737                     000000000  N                0000000000000.00 0000000.00   0000000.00                             000000000000000                                                                                                                                                   U001424  000000000000 0000000000006.57     02600 01000                  
00006070279410077DT67590675900000015164800888800000010180088887287283130900017468254050920230000001394813023000000000159716511014XXXXXX2895       ME03KE06MS02      NY 4607AMDSZ252730506  N840000000013948          81DNKETOFUSION833-923-3587   056106    MD84000000013948 N  599977360677   8DAC13FDBFTDCEDC6E6237B  000000000+600450S00130    MDS  00401                     000000000  N                0000000000000.00 0000000.00   0000000.00                             000000000000000                                                                                                                                                   U001424  000000000000 0000000000002.45     01650 01500                  
00006080279410078DT67590675900000015164800888800000010180088887287283130900017468320050920230000001194813023000000000159716515942XXXXXX2939       ME03KE06MS02      NY 4607AMPLU793SF0506  N840000000011948          81DNKETOFUSION833-923-3587   006552    MC84000000011948 N  599977360677   C180209E44TEFD408A47906  000000000+600450S00130    MPL  00013                     000000000  N                0000000000000.00 0000000.00   0000000.00                             000000000000000                                                                                                                                                   U001424  000000000000 0000000000002.43     01950 01000                  
00006090279410079DT67590675900000015164800888800000010180088824001193130900017468352050920230000001987013023000000000159716464772XXXXXX8198               2111111   NYV4 A7W463126816051235N8400000000198704BRD00    01DNKETOFUSION833-923-3587   832195    VD84000000019870 NP1599977360677   5F515BD5D6T54B3BD9957A1  000000000+                F DF 00415                     000000000  N000000000       0000000000000.00 0000000.00   0000000.00                             000000000000000                                                                                                                                                     01424 G000000019870 0000000000003.43     01650 01500                  
00006100279410001P16759067590000001516480088880000001010000000000000000                             2000000000000000000000000              000000000000                    0000000000000000000000000                    000000000000                                                                                                                                                                                                                                                                                                                                                                                                                                                                                        
00006110279410080DT67590675900000015164800888800000010180088824001193130900017468667050920230000002487013023000000000159716409595XXXXXX3393               2111111   NYV4 A7W583127060106617N840000000024870DZ6C00    01DNKETOFUSION833-923-3587   572527    VS84000000024870 NP1599977360677   A70E25520BT6087433FDCF5  000000000+                D CD 12109                     000000000  N000000000 498   0000000000000.00 0000000.00   0000000.00                             000000000000000                                                                                                                                                     01424 G000000024870 0000000000006.32     02500 01000                  
00006120279410001P16759067590000001516480088880000001010000000000000000                             2000000000000000000000000              000000000000                    0000000000000000000000000                    000000000000                                                                                                                                                                                                                                                                                                                                                                                                                                                                                        
00006130279410081DT67590675900000015164800888800000010180088824001193130900017468717050920230000001394813023000000000159716414720XXXXXX1376               2111111   NYV4 A7W583127090079381N84000000001394827VJ00    01DNKETOFUSION833-923-3587   00214D    VS84000000013948 NP1599977360677   EE8CA2A6A7T2EC0C6860E40  000000000+                D CD 12109                     000000000  N000000000 498   0000000000000.00 0000000.00   0000000.00                             000000000000000                                                                                                                                                     01424 G000000013948 0000000000003.59     02500 01000                  
00006140279410001P16759067590000001516480088880000001010000000000000000                             2000000000000000000000000              000000000000                    0000000000000000000000000                    000000000000                                                                                                                                                                                                                                                                                                                                                                                                                                                                                        
00006150279410082DT67590675900000015164800888800000010180088887287283130900017468775050920230000002487013023000000000159716540385XXXXXX4232       ME03KE06MS02      NY 4607AMDSBURDV10506  N840000000024870          81DNKETOFUSION833-923-3587   58375Z    MD84000000024870 N  599977360677   D8979EA8DCT3F1ADC649E62  000000000+600450S00130    MDS  10813                     000000000  1                0000000000000.00 0000000.00   0000000.00                             000000000000000                                                                                                                                                   U001424  000000000000 0000000000000.34     00050 02200                  
00006160279410083DT67590675900000015164800888800000010680088887287283130900017471449050920230000001194813023000000000159716546325XXXXXX1077                         NY 4607AMCWWSJXTS0509  N840000000011948          81CNKETOFUSION833-923-3587   038076    MC84000000011948 N  599977360677   AC03B20D39T73D051050ACB  000000000+600450S00130    MCW  00564                     000000000  N                0000000000000.00 0000000.00   0000000.00                             000000000000000                                                                                                                                                     01424  000000000000-0000000000002.09     01750 00000                  
00006170279410084DT67590675900000015164800888800000010680088874001193130900017471732051020230000001194813023000000000159716443047XXXXXX5394               0000000   NYV4 07T303130500969925N840000000011948B8DH00    01CNKETOFUSION833-923-3587   010561    VD84000000011948 NP1599977360677   79F2410964T8BE3F5DE13FD  000000000+                F DF 08168                     000000000  Y000000000 369   0000000000000.00 0000000.00   0000000.00                             000000000000000                                                                                                                                                     01424  000000011948 0000000000000.00     00000 00000                  
00006180279410001P16759067590000001516480088880000001060000000000000000                             2000000000000000000000000              000000000000                    0000000000000000000000000                    000000000000                                                                                                                                                                                                                                                                                                                                                                                                                                                                                        
00006190279410085DT67590675900000015164800888800000010680088887287283130900017471779051020230000001390913023000000000159716515307XXXXXX1174                         NY 4607AMCWUG4A2P0510  N840000000013909          81CNKETOFUSION833-923-3587   001399    MC84000000013909 N  599977360677   5E12426828T6209B7370B3C  000000000+600450S00130    MCW  00564                     000000000  N                0000000000000.00 0000000.00   0000000.00                             000000000000000                                                                                                                                                     01424  000000000000-0000000000002.43     01750 00000                  
00006200279410086DT67590675900000015164800888800000010680088874001193130900017471823051020230000001243513023000000000159716412022XXXXXX6347               0000000   NYV4 07T583130603193669N840000000012435HDPB00    01CNKETOFUSION833-923-3587   834171    VD84000000012435 NP1599977360677   D8457D463FT39CA3EAC4D9E  000000000+                F DF 08168                     000000000  N000000000 369   0000000000000.00 0000000.00   0000000.00                             000000000000000                                                                                                                                                     01424  000000012435 0000000000000.00     00000 00000                  
00006210279410001P16759067590000001516480088880000001060000000000000000                             2000000000000000000000000              000000000000                    0000000000000000000000000                    000000000000                                                                                                                                                                                                                                                                                                                                                                                                                                                                                        
00006220279410087DT67590675900000015164800888800000010680088874001193130900017471872051020230000001536913023000000000159716483316XXXXXX0477               0000000   NYV4 07T583130636952008N840000000015369L4J285    01CNKETOFUSION833-923-3587   018888    VD84000000015369 NP1599977360677   7B0AE9DD82T2C72849F829A  000000000+                F DF 08168                     000000000  Y000000000 369   0000000000000.00 0000000.00   0000000.00                             000000000000000                                                                                                                                                     01424  000000015369 0000000000000.00     00000 00000                  
00006230279410001P16759067590000001516480088880000001060000000000000000                             2000000000000000000000000              000000000000                    0000000000000000000000000                    000000000000                                                                                                                                                                                                                                                                                                                                                                                                                                                                                        
00006240279410088DT67590675900000015164800888800000010680088887287283130900017471910051020230000001243513023000000000159716541413XXXXXX7389                         NY 4607AMCWO77I660510  N840000000012435          81CNKETOFUSION833-923-3587   056175    MC84000000012435 N  599977360677   D2D396B9E2TF060A4810720  000000000+600450S00130    MCW  00564                     000000000  N                0000000000000.00 0000000.00   0000000.00                             000000000000000                                                                                                                                                     01424  000000000000-0000000000002.18     01750 00000                  
00006250279410089DT67590675900000015164800888800000010680088874001193130900017471963051020230000001987013023000000000159716403766XXXXXX6242               0000000   NYV4 07T463130726096236N840000000019870W5BB00    01CNKETOFUSION833-923-3587   510101    VS84000000019870 NP1599977360677   FAF948BE0CT32E4B812D172  000000000+                A CA 00245                     000000000  N000000000 166   0000000000000.00 0000000.00   0000000.00                             000000000000000                                                                                                                                                     01424  000000019870-0000000000003.50     01760 00000                  
00006260279410001P16759067590000001516480088880000001060000000000000000                             2000000000000000000000000              000000000000                    0000000000000000000000000                    000000000000                                                                                                                                                                                                                                                                                                                                                                                                                                                                                        
00006270279410090DT67590675900000015164800888800000010680088887287283130900017472041051020230000000499213023000000000159716537802XXXXXX9912                         NY 4607AMWETCS8GC0510  N840000000004992          81CNKETOFUSION833-923-3587   061947    MC84000000004992 N  599977360677   C1F4A5FBA5TB5AC59BDE312  000000000+600450S00130    MWE  00564                     000000000  N                0000000000000.00 0000000.00   0000000.00                             000000000000000                                                                                                                                                     01424  000000000000-0000000000000.87     01750 00000                  
00006280279410091BH6759067590000001982880010980000090170510202313023000000000153598    0000090001509602Y8001096759C05112023                                                                                                                                                                                                                                                                                                                                                                                                                                                                                                                                                                                                 
00006290279410092DT67590675900000019828800109800000010180010987287283130900015093708050920230000001799113023000000000153598521333XXXXXX0547       ME03KE06MS02      NY 4607AMWEFJO4410505  N840000000017991          81DNKETOFUSION 8885968154    00593P    MC84000000017991 N  599977547467   00CC2EBA21T0A2BBAE08D5E  000000000+600450S00130    MWE  00737                     000000000  N                0000000000000.00 0000000.00   0000000.00                             000000000000000                                                                                                                                                   U001424  000000000000 0000000000004.78     02600 01000                  
00006300279410093DT67590675900000019828800109800000010180010987287283130900015093724050920230000002487013023000000000153598518941XXXXXX8445       ME03KE06MS02      NY 4607AMWEJKT20Q0506  N840000000024870          81DNKETOFUSION 8885968154    13813Z    MC84000000024870 N  599977547467   22EB0581B8T9E3177150DBB  000000000+600450S00130    MWE  00737                     000000000  N                0000000000000.00 0000000.00   0000000.00                             000000000000000                                                                                                                                                   U001424  000000000000 0000000000006.57     02600 01000                  
00006310279410094DT67590675900000019828800109800000010180010924001193130900015093749050920230000002487013023000000000153598473702XXXXXX7774               2111111   NYV4 A7W583126397592666N8400000000248705ZXH00    01DNKETOFUSION 8885968154    006949    VD84000000024870 NP1599977547467   6429C3CA68T1E4F6EA8E022  000000000+                F DF 10420                     000000000  Y000000000 338   0000000000000.00 0000000.00   0000000.00                             000000000000000                                                                                                                                                     01424 G000000024870 0000000000000.34     00050 02200                  
00006320279410001P16759067590000001982880010980000001010000000000000000                             2000000000000000000000000              000000000000                    0000000000000000000000000                    000000000000                                                                                                                                                                                                                                                                                                                                                                                                                                                                                        
00006330279410095DT67590675900000019828800109800000010180010987287283130900015093765050920230000001194813023000000000153598544400XXXXXX4641       ME03KE06MS02      NY 4607AMPLOJE1730506  N840000000011948          81DNKETOFUSION 8885968154    05290Z    MC84000000011948 N  599977547467   4F3537248BT3BE8250E6C66  000000000+600450S00130    MPL  00013                     000000000  N                0000000000000.00 0000000.00   0000000.00                             000000000000000                                                                                                                                                   U001424  000000000000 0000000000002.43     01950 01000                  
00006340279410096DT67590675900000019828800109800000010180010987287283130900015093773050920230000002487013023000000000153598524408XXXXXX2986       ME03KE06MS02      NY 4607AMDJVW9F0T0506  N840000000024870          81DNKETOFUSION 8885968154    657720    MD84000000024870 N  599977547467   F30E968DAET1C95DCCE8681  000000000+600450S00130    MDJ  00401                     000000000  N                0000000000000.00 0000000.00   0000000.00                             000000000000000                                                                                                                                                   U001424  000000000000 0000000000004.25     01650 01500                  
00006350279410097DT67590675900000019828800109800000010180010924001193130900015093814050920230000001987013023000000000153598435125XXXXXX7436               2111111   NYV4 A7W583126513076347N840000000019870K6N900    01DNKETOFUSION 8885968154    648187    VD84000000019870 NP1599977547467   BBC8619B1DT852E64B4A520  000000000+                F DF 00415                     000000000  N000000000       0000000000000.00 0000000.00   0000000.00                             000000000000000                                                                                                                                                     01424 G000000019870 0000000000003.43     01650 01500                  
