01735830096972304AD675906759000000028818008888000009077900010500220000001071901032023NYY00323YC6759800888010520232022347000366                                                                                                                                                                                                                                                                                                                                                                                                                                                                                                                                                                                              
01735840099320002BH6759067590000000288180088880000090170104202300423000000000037271    0000090001100010N8008886759C01052023                                                                                                                                                                                                                                                                                                                                                                                                                                                                                                                                                                                                 
01735850099320003DT67590675900000002881800888800000010180088824001193004900011000014010420230000000325800423000000000037271435547XXXXXX0353       VS11    0001111   NYV1 A E383004575752526N840000000003258TSW600    05DNHAPPY HIPPIE             081091    VD84000000003258 N  549976487134                            000000000+                F DF 10433                     000000000  Y000000000 338   0000000000000.00 0000000.00   0000000.00                             000000000000000                                                                                                                                                     01418 A000000000000 0000000000000.24     00050 02200                  
01735860099320004DT67590675900000002881800888800000010180088824001193004900011000022010420230000000548800423000000000037271435547XXXXXX9872       VS11    0001111   NYV1 A E583004599821734N840000000005488WX3200    05DNHAPPY HIPPIE             122066    VD84000000005488 N  549976487134                            000000000+                F DF 10433                     000000000  Y000000000 338   0000000000000.00 0000000.00   0000000.00                             000000000000000                                                                                                                                                     01418 A000000000000 0000000000000.25     00050 02200                  
01735870099320005DT67590675900000002881800888800000010180088824001193004900011000030010420230000000325800423000000000037271459954XXXXXX5604       VS11    0001111   NYV1 A E383004614151389N840000000003258BWJQ00    05DNHAPPY HIPPIE             H13658    VD84000000003258 N  549976487134                            000000000+                F DF 10433                     000000000  Y000000000 338   0000000000000.00 0000000.00   0000000.00                             000000000000000                                                                                                                                                     01418 A000000000000 0000000000000.24     00050 02200                  
01735880099320006DT67590675900000002881800888800000010180088824001193004900011000048010420230000000158000423000000000037271421783XXXXXX4327       VS11    0001111   NYV1 A E463004635599197N8400000000015804MPF00    05DNHAPPY HIPPIE             040024    VS84000000001580 N  549976487134                            000000000+                A CA 12110                     000000000  N000000000 493   0000000000000.00 0000000.00   0000000.00                             000000000000000                                                                                                                                                     01418 A000000000000 0000000000000.34     01510 01000                  
01735890099320007DT67590675900000002881800888800000010180088877287283004900011000057010420230000000493800423000000000037271511953XXXXXX5477       MS02WI09          NY 1 0 AMDJWADTBZ0104  N840000000004938          05DNHAPPY HIPPIE             059824    MD84000000004938 N  549976487134                            000000000+M10101C5434C    MDJ  00402                     000000000  N                0000000000000.00 0000000.00   0000000.00                             000000000000000                                                                                                                                                   B101418  000000000000 0000000000000.67     01050 01500                  
01735900099320008DT67590675900000002881800888800000010180088873011003004900011000069010420230000000592500423000000000037271379768XXXXX1005                          NY 1 0 N004156393730300N840000000005925          05DNHAPPY HIPPIE             838972    AM84000000005925 N  549976487134                            000000000+51010155434C 258     11261                     000000000                   0000000000000.00 0000000.00   0000000.00                             000000000000000 61248972086759675900000002881 HAPPY HIPPIE             832 PARKWAY              8656540830      37862     HAPPYHIPPIE832@GMAIL.COM                  01418  000000000000 0000000000001.05     01600 00000                  
01735910099320009DT67590675900000002881800888800000010180088824001193004900011000071010420230000000110500423000000000037271498503XXXXXX1552       VK04VS111111111   NYV1 A E463004730555555N840000000001105Z45400    05DNHAPPY HIPPIE             034469    VD84000000001105 N  549976487134                            000000000+                F DF 00451                     000000000  N000000000 214   0000000000000.00 0000000.00   0000000.00                             000000000000000                                                                                                                                                     01418 F000000000000 0000000000000.21     01550 00400                  
01735920099320010DT67590675900000002881800888800000010180088873011003004900011000085010420230000000448800423000000000037271375150XXXXX0410                          NY 1 0 N004157880122308N840000000004488          90DNHAPPY HIPPIE             947767    AM84000000004488 N  549976487134                            000000000+51010125434C 258RP   11273                     000000000                   0000000000000.00 0000000.00   0000000.00                             000000000000000 61248972086759675900000002881 HAPPY HIPPIE             832 PARKWAY              8656540830      37862     HAPPYHIPPIE832@GMAIL.COM                  01418  000000000000 0000000000000.71     01350 00000                  
01735930099320011DT67590675900000002881800888800000010180088824001193004900011000097010420230000000393800423000000000037271449507XXXXXX6597       VS11    0001111   NYV1 A E463004802267778N840000000003938T92B00    05DNHAPPY HIPPIE             071706    VD84000000003938 N  549976487134                            000000000+                F DF 00381                     000000000  N000000000       0000000000000.00 0000000.00   0000000.00                             000000000000000                                                                                                                                                     01418 A000000000000 0000000000000.47     00800 01500                  
01735940099320012DT67590675900000002881800888800000010180088824001193004900011000105010420230000000329300423000000000037271423223XXXXXX5969       VS11    0001111   NYV1 A E583004813668968N8400000000032938PBN00    05DNHAPPY HIPPIE             001655    VD84000000003293 N  549976487134                            000000000+                F DF 00381                     000000000  N000000000       0000000000000.00 0000000.00   0000000.00                             000000000000000                                                                                                                                                     01418 A000000000000 0000000000000.41     00800 01500                  
01735950099320013BH6759067590000000288180088880000090170104202300423000000000091854    0000090001100014N8008886759C01052023                                                                                                                                                                                                                                                                                                                                                                                                                                                                                                                                                                                                 
01735960099320014DT67590675900000002881800888800000010180088824001193004900011000014010420230000000551700423000000000091854422921XXXXXX4145       VS11    0001111   NYV1 A E303004542011279N840000000005517SNXK00    05DNHAPPY HIPPIE             036203    VD84000000005517 N  549976487158                            000000000+                F DF 00381                     000000000  N000000000       0000000000000.00 0000000.00   0000000.00                             000000000000000                                                                                                                                                     01418 A000000000000 0000000000000.59     00800 01500                  
01735970099320015DT67590675900000002881800888800000010180088824001193004900011000022010420230000001490200423000000000091854406032XXXXXX5726       VS11    0001111   NYV1 A E583004542892910N840000000014902ZVGF00    05DNHAPPY HIPPIE             090410    VD84000000014902 N  549976487158                            000000000+                F DF 10433                     000000000  Y000000000 338   0000000000000.00 0000000.00   0000000.00                             000000000000000                                                                                                                                                     01418 A000000000000 0000000000000.29     00050 02200                  
01735980099320016DT67590675900000002881800888800000010180088824001193004900011000030010420230000000493800423000000000091854443238XXXXXX3858       VS11    0001111   NYV1 A E303004572683924N840000000004938JV2T00    05DNHAPPY HIPPIE             005428    VD84000000004938 N  549976487158                            000000000+                F DF 00381                     000000000  N000000000       0000000000000.00 0000000.00   0000000.00                             000000000000000                                                                                                                                                     01418 A000000000000 0000000000000.55     00800 01500                  
01735990099320017DT67590675900000002881800888800000010180088824001193004900011000048010420230000001273800423000000000091854480639XXXXXX1913       VS11    0001111   NYV1 A E463004582243640N840000000012738MDHQ00    05DNHAPPY HIPPIE             220680    VD84000000012738 N  549976487158                            000000000+                F DF 00381                     000000000  N000000000       0000000000000.00 0000000.00   0000000.00                             000000000000000                                                                                                                                                     01418 A000000000000 0000000000001.17     00800 01500                  
01736000099320018DT67590675900000002881800888800000010180088824001193004900011000055010420230000000316100423000000000091854415978XXXXXX3184       VS11    0001111   NYV1 A E303004635374980N84000000000316145WT00    05DNHAPPY HIPPIE             056341    VD84000000003161 N  549976487158                            000000000+                F DF 10433                     000000000  Y000000000 338   0000000000000.00 0000000.00   0000000.00                             000000000000000                                                                                                                                                     01418 A000000000000 0000000000000.24     00050 02200                  
01736010099320019DT67590675900000002881800888800000010180088824001193004900011000063010420230000000562800423000000000091854435545XXXXXX9025       VS11    0001111   NYV1 A E583004698241162N8400000000056288HTT00    05DNHAPPY HIPPIE             073098    VD84000000005628 N  549976487158                            000000000+                F DF 10433                     000000000  Y000000000 338   0000000000000.00 0000000.00   0000000.00                             000000000000000                                                                                                                                                     01418 A000000000000 0000000000000.25     00050 02200                  
01736020099320020DT67590675900000002881800888800000010180088824001193004900011000071010420230000000345500423000000000091854449507XXXXXX6757       VS11    0001111   NYV1 A E463004699606806N840000000003455KPH300    05DNHAPPY HIPPIE             042600    VD84000000003455 N  549976487158                            000000000+                F DF 00381                     000000000  N000000000       0000000000000.00 0000000.00   0000000.00                             000000000000000                                                                                                                                                     01418 A000000000000 0000000000000.43     00800 01500                  
01736030099320021DT67590675900000002881800888800000010180088824001193004900011000089010420230000000691300423000000000091854473916XXXXXX6307       VS11    0001111   NYV1 A E383004736674857N8400000000069135TTD00    05DNHAPPY HIPPIE             052747    VD84000000006913 N  549976487158                            000000000+                G DG 08704                     000000000  N000000000       0000000000000.00 0000000.00   0000000.00                             000000000000000                                                                                                                                                     01418 A000000000000 0000000000001.28     01700 01000                  
01736040099320022DT67590675900000002881800888800000010180088824001193004900011000097010420230000000274300423000000000091854406032XXXXXX9760       VS11    0001111   NYV1 A E303004754386262N8400000000027432XRS00    05DNHAPPY HIPPIE             085715    VD84000000002743 N  549976487158                            000000000+                F DF 10433                     000000000  Y000000000 338   0000000000000.00 0000000.00   0000000.00                             000000000000000                                                                                                                                                     01418 A000000000000 0000000000000.23     00050 02200                  
01736050099320023DT67590675900000002881800888800000010180088824001193004900011000105010420230000001381400423000000000091854463405XXXXXX7864       VS11    0001111   NYV1 A E383004757274098N840000000013814PTMZ00    05DNHAPPY HIPPIE             060897    VD84000000013814 N  549976487158                            000000000+                F DF 10433                     000000000  Y000000000 338   0000000000000.00 0000000.00   0000000.00                             000000000000000                                                                                                                                                     01418 A000000000000 0000000000000.29     00050 02200                  
01736060099320024DT67590675900000002881800888800000010180088824001193004900011000113010420230000000137100423000000000091854415978XXXXXX3096       VK04VS111111111   NYV1 A E463004781843688N840000000001371J34P00    05DNHAPPY HIPPIE             002404    VD84000000001371 N  549976487158                            000000000+                F DF 10439                     000000000  Y000000000 331   0000000000000.00 0000000.00   0000000.00                             000000000000000                                                                                                                                                     01418 F000000000000 0000000000000.23     00050 02200                  
01736070099320025DT67590675900000002881800888800000010180088824001193004900011000121010420230000000493800423000000000091854473703XXXXXX1411       VS11    0001111   NYV1 A E463004791441145N8400000000049383PSH00    05DNHAPPY HIPPIE             091154    VD84000000004938 N  549976487158                            000000000+                F DF 10433                     000000000  Y000000000 338   0000000000000.00 0000000.00   0000000.00                             000000000000000                                                                                                                                                     01418 A000000000000 0000000000000.24     00050 02200                  
01736080099320026DT67590675900000002881800888800000010180088877287283004900011000131010420230000000175600423000000000091854542432XXXXXX9219       MS02WI09          NY 2 0 AMDJYDOHP80104  N840000000001756          05DNHAPPY HIPPIE             404619    MD84000000001756 N  549976487158                            000000000+M10101C1334C    MDJ  10815                     000000000  1                0000000000000.00 0000000.00   0000000.00                             000000000000000                                                                                                                                                   B101418  000000000000 0000000000000.23     00050 02200                  
01736090099320027DT67590675900000002881800888800000010180088824001193004900011000147010420230000000998000423000000000091854449507XXXXXX3418       VS11    0001111   NYV1 A E463004802077657N840000000009980JHRB00    05DNHAPPY HIPPIE             071647    VD84000000009980 N  549976487158                            000000000+                F DF 00381                     000000000  N000000000       0000000000000.00 0000000.00   0000000.00                             000000000000000                                                                                                                                                     01418 A000000000000 0000000000000.95     00800 01500                  
01736100099320028BH6759067590000000215480088880000090170104202300423000000000632643    0000090001732647N8008886759C01052023                                                                                                                                                                                                                                                                                                                                                                                                                                                                                                                                                                                                 
01736110099320029DT67590675900000002154800888800000010180088824001193004900017388801010420230000005795000423000000000632643431231XXXXXX3435               2111111   NYV4 A7W583004776636346N840000000057950TZXF00    01DNDRIP DROP DISTRO LLC     033416    VD84000000057950 NP1519971004114   INV-000085               000000000+                G DG 10352                     000000000  Y000000000 338   0000000000000.00 0000000.00   0000000.00                             000000000000000                                                                                                                                                     01418 G000000057950 0000000000000.51     00050 02200                  
01736120099320001P16759067590000000215480088880000001010000000000000000    43859550108              2000000000000000000000000              000000000000                    0000000000000000000000000                    000000000000                                                                                                                                                                                                                                                                                                                                                                                                                                                                                        
01736130099320030DT67590675900000002154800888800000010180088873011003004900017334884010420230000052000000423000000000632643372728XXXXX1075                          NY 4 07N004154579304305N840000000520000          01DNDRIP DROP DISTRO LLC     221364    AM84000000520000 N  519971004114                            000000000+6004S0S00140 258     11244                     000000000                   0000000000000.00 0000000.00   0000000.00                             000000000000000 61248972736759675900000002154 DRIP DROP DISTRO LLC     1445 W COMMERCE AVE SUITE2087248209      83705     TROY@DRIPDROPDISTRO.COM                   01418  000000000000 0000000000098.90     01900 00000                  
01736140099320031DT67590675900000002154800888800000010180088887287283004900017326471010420230000005469300423000000000632643547415XXXXXX0741                         NY 4607AMEBLHFN350104  N840000000054693          81DNDRIP DROP DISTRO LLC     08992Q    MB84000000054693 NP1519900000001   17206                    000000000+600450S00140    MEB  11637                     000000000  N                0000000000000.00 0000000.00   0000000.00                             000000000000000                                                                                                                                                   U001418  000000000000 0000000000016.51     03000 01000                  
01736150099320001P1675906759000000021548008888000000101                                                          000000000000          8000            471534935                                                                                                                                                                                                                                                                                                                                                                                                                                                                                                                                                            
01736160099320032BH6759067590000000096880088880000090170104202300423000000000004173    0000090001171015N8008886759C01052023                                                                                                                                                                                                                                                                                                                                                                                                                                                                                                                                                                                                 
01736170099320033DT67590675900000000968800888800000010180088824001193004900011710158010420230000000417300423000000000004173470318XXXXXX1145               2111111   NYV4 A7W583004459715283N840000000004173WHRQ00    01DNHIGHER FLOUR LLC         004409    VS84000000004173 NP1546271004114   REVDVTXDFSZV7XKKKWQD     000000000+                B CB 12107                     000000000  N000000000 494   0000000000000.00 0000000.00   0000000.00                             000000000000000                                                                                                                                                     01418 G000000004173 0000000000000.95     02040 01000                  
01736180099320001P16759067590000000096880088880000001010000000000000000                             2000000000000000000000000              000000000000                    0000000000000000000000000                    000000000000                                                                                                                                                                                                                                                                                                                                                                                                                                                                                        
