00004880585310002BH6759067590000000288180088880000090170125202302523000000000058850    0000090001470102Y8008886759C01262023                                                                                                                                                                                                                                                                                                                                                                                                                                                                                                                                                                                                 
00004890585310003DT67590675900000002881800888800000010180088824001193025900014700995012520230000001119102523000000000058850414740XXXXXX4389               2111111   NYV4 A7W303025464781562N840000000011191GD2Z00    01DNHAPPY HIPPIE             03153D    VS84000000011191 NP1549976044904   1916                     000000000+                D CD 12109                     000000000  N000000000 498   0000000000000.00 0000000.00   0000000.00                             000000000000000                                                                                                                                                     01424 G000000011191 0000000000002.90     02500 01000                  
00004900585310001P16759067590000000288180088880000001010000000000000000                             2000000000000000000000000              000000000000                    0000000000000000000000000                    000000000000                                                                                                                                                                                                                                                                                                                                                                                                                                                                                        
00004910585310004DT67590675900000002881800888800000010180088887287283025900014701002012520230000001199802523000000000058850517862XXXXXX6067       ME03KE06MS02      NY 4607AMDJG7GC8X0125  N840000000011998          81DNHAPPY HIPPIE             089667    MD84000000011998 N  549976044904   1917                     000000000+600450S00130    MDJ  10713                     000000000  B                0000000000000.00 0000000.00   0000000.00                             000000000000000                                                                                                                                                   U001424  000000000000 0000000000000.27     00050 02100                  
00004920585310005DT67590675900000002881800888800000010180088887287283025900014701010012520230000003204002523000000000058850542418XXXXXX8823       ME03KE06MS02      NY 4607AMPLEC9BMH0125  N840000000032040          81DNHAPPY HIPPIE             26257B    MC84000000032040 N  549976044904   1918                     000000000+600450S00130    MPL  00580                     000000000  N                0000000000000.00 0000000.00   0000000.00                             000000000000000                                                                                                                                                   U001424  000000000000 0000000000006.83     02100 01000                  
00004930585310006DT67590675900000002881800888800000010180088824001193025900014701027012520230000000362102523000000000058850473702XXXXXX3012               2111111   NYV4 A7W383025817888709N840000000003621VMV400    01DNHAPPY HIPPIE             098500    VD84000000003621 NP1549976044904   1919                     000000000+                F DF 10420                     000000000  Y000000000 338   0000000000000.00 0000000.00   0000000.00                             000000000000000                                                                                                                                                     01424 G000000003621 0000000000000.24     00050 02200                  
00004940585310001P16759067590000000288180088880000001010000000000000000                             2000000000000000000000000              000000000000                    0000000000000000000000000                    000000000000                                                                                                                                                                                                                                                                                                                                                                                                                                                                                        
00004950585310007BH6759067590000000215480088880000090170125202302523000000000000013    0000090001020002Y8008886759C01262023                                                                                                                                                                                                                                                                                                                                                                                                                                                                                                                                                                                                 
00004960585310008DT67590675900000002154800888800000010180088824001193025900010200016012520230000000000102523000000000000013498865XXXXXX7239       VK04VS111111111   NYV1 A E463025803527271N8400000000000012S2500    05DNDRIP DROP DISTRO LLC     892164    VB84000000000001 N  519976225826                            000000000+                G4CG411354                     000000000  N000000000 378   0000000000000.00 0000000.00   0000000.00                             000000000000000                                                                                                                                                     01424 F000000000000 0000000000000.10     02200 01000                  
00004970585310009DT67590675900000002154800888800000010180088824001193025900010200024012520230000000001202523000000000000013498865XXXXXX7239       VK04VS111111111   NYV1 A E303025805285539N840000000000012VJFQ00    05DNDRIP DROP DISTRO LLC     656996    VB84000000000012 N  519976225826                            000000000+                G4CG411354                     000000000  N000000000 378   0000000000000.00 0000000.00   0000000.00                             000000000000000                                                                                                                                                     01424 F000000000000 0000000000000.10     02200 01000                  
