03230270080850002BH6759067590000001427480010280000090170303202306223000000000741212    0000090001161031Y8001026759C03062023                                                                                                                                                                                                                                                                                                                                                                                                                                                                                                                                                                                                 
03230280080850003DT67590675900000014274800102800000010180010287287283062900011607164030220230000000648306223000000000741212511271XXXXXX0387       ME03KE06MS02      NY 4607AMDJX7TYDQ0227  N840000000006483          81DNCBD8666317293            060358    MD84000000006483 N  549977145232   2501A77BDFT1D8484CC0C7F  000000000+600450S00130    MDJ  10813                     000000000  1                0000000000000.00 0000000.00   0000000.00                             000000000000000                                                                                                                                                   U001424  000000000000 0000000000000.25     00050 02200                  
03230290080850004DT67590675900000014274800102800000010180010224001193062900011607247030220230000000600406223000000000741212429400XXXXXX1360               2111111   NYV4 A7W583059105047840N840000000006004S3MK00    01DNCBD8666317293            552040    VD84000000006004 NP1549977145232   98DE56CAF0TB7753372C0AF  000000000+                F DF 00415                     000000000  N000000000       0000000000000.00 0000000.00   0000000.00                             000000000000000                                                                                                                                                     01424 G000000006004 0000000000001.14     01650 01500                  
03230300080850001P16759067590000001427480010280000001010000000000000000                             2000000000000000000000000              000000000000                    0000000000000000000000000                    000000000000                                                                                                                                                                                                                                                                                                                                                                                                                                                                                        
03230310080850005DT67590675900000014274800102800000010180010287287283062900011609061030220230000002487006223000000000741212511563XXXXXX4869       ME03KE06MS02      NY 4607AMPVP9YVT80302  N840000000024870          81DNCBD8666317293            ANSCIS    MD84000000024870 N  549977145232   2944FFFE75TB8DEAAFD3474  000000000+600450S00130    MPV  09899                     000000000  N                0000000000000.00 0000000.00   0000000.00                             000000000000000                                                                                                                                                   U001424  000000000000 0000000000004.58     01760 02000                  
03230320080850006DT67590675900000014274800102800000010180010287287283062900011609095030220230000001987006223000000000741212540653XXXXXX6027       ME03KE06MS02      NY 4607AMDJB6SIUD0302  N840000000019870          81DNCBD8666317293            092129    MD84000000019870 N  549977145232   4BEBCE12C7TB3C49FB45230  000000000+600450S00130    MDJ  10713                     000000000  B                0000000000000.00 0000000.00   0000000.00                             000000000000000                                                                                                                                                   U001424  000000000000 0000000000000.31     00050 02100                  
03230330080850007DT67590675900000014274800102800000010180010287287283062900011609103030220230000000499906223000000000741212540324XXXXXX4116       ME03KE06MS02      NY 4607AMDJKE24T80302  N840000000004999          81DNCBD8666317293            200631    MD84000000004999 N  549977145232   EA5BAACDAATBBC30034B958  000000000+600450S00130    MDJ  10813                     000000000  1                0000000000000.00 0000000.00   0000000.00                             000000000000000                                                                                                                                                   U001424  000000000000 0000000000000.24     00050 02200                  
03230340080850008DT67590675900000014274800102800000010180010287287283062900011609137030220230000000319906223000000000741212540324XXXXXX4116       ME03KE06MS02      NY 4607AMDJJ0OYUD0302  N840000000003199          81DNCBD8666317293            200713    MD84000000003199 N  549977145232   EA5BAACDAATB38987389C17  000000000+600450S00130    MDJ  10813                     000000000  1                0000000000000.00 0000000.00   0000000.00                             000000000000000                                                                                                                                                   U001424  000000000000 0000000000000.24     00050 02200                  
03230350080850009DT67590675900000014274800102800000010180010224001193062900011609151030220230000002126106223000000000741212410039XXXXXX3922               2111111   NYV4 A7W303062082055625N840000000021261V54P00    01DNCBD8666317293            50806C    VS84000000021261 NP1549977145232   6E4B4ED929TA4882E11C151  000000000+                C CC 12108                     000000000  N000000000 496   0000000000000.00 0000000.00   0000000.00                             000000000000000                                                                                                                                                     01424 G000000021261 0000000000004.46     02050 01000                  
03230360080850001P16759067590000001427480010280000001010000000000000000                             2000000000000000000000000              000000000000                    0000000000000000000000000                    000000000000                                                                                                                                                                                                                                                                                                                                                                                                                                                                                        
03230370080850010DT67590675900000014274800102800000010180010224001193062900011609169030220230000001987006223000000000741212427082XXXXXX6342               2111111   NYV4 A7W463062124915745N840000000019870W4GW00    01DNCBD8666317293            002241    VS84000000019870 NP1549977145232   0D97FE0CC5TC6A201814E39  000000000+                B CB 12107                     000000000  N000000000 494   0000000000000.00 0000000.00   0000000.00                             000000000000000                                                                                                                                                     01424 G000000019870 0000000000004.15     02040 01000                  
03230380080850001P16759067590000001427480010280000001010000000000000000                             2000000000000000000000000              000000000000                    0000000000000000000000000                    000000000000                                                                                                                                                                                                                                                                                                                                                                                                                                                                                        
03230390080850011DT67590675900000014274800102800000010180010224001193062900011609300030320230000000808906223000000000741212427082XXXXXX2687               2111111   NYV4 A7W303062261505213N840000000008089TZWB00    01DNCBD8666317293            003809    VS84000000008089 NP1549977145232   309550B24DT2314505E5896  000000000+                C CC 12108                     000000000  N000000000 496   0000000000000.00 0000000.00   0000000.00                             000000000000000                                                                                                                                                     01424 G000000008089 0000000000001.76     02050 01000                  
03230400080850001P16759067590000001427480010280000001010000000000000000                             2000000000000000000000000              000000000000                    0000000000000000000000000                    000000000000                                                                                                                                                                                                                                                                                                                                                                                                                                                                                        
03230410080850012DT67590675900000014274800102800000010180010224001193062900011609318030320230000000160006223000000000741212427082XXXXXX2687               2111111   NYV4 A7W303062262334312N8400000000016005LWQ00    01DNCBD8666317293            003677    VS84000000001600 NP1549977145232   309550B24DTCAAD85AAD337  000000000+                C CC 12108                     000000000  N000000000 496   0000000000000.00 0000000.00   0000000.00                             000000000000000                                                                                                                                                     01424 G000000001600 0000000000000.43     02050 01000                  
03230420080850001P16759067590000001427480010280000001010000000000000000                             2000000000000000000000000              000000000000                    0000000000000000000000000                    000000000000                                                                                                                                                                                                                                                                                                                                                                                                                                                                                        
03230430080850013DT67590675900000014274800102800000010180010287287283062900011609327030320230000000499906223000000000741212514230XXXXXX8073       ME03KE06MS02      NY 4607AMDJ1TXSGQ0303  N840000000004999          81DNCBD8666317293            A8647C    MD84000000004999 N  549977145232   3A48C22242TFC9D45F8AC71  000000000+600450S00130    MDJ  00401                     000000000  N                0000000000000.00 0000000.00   0000000.00                             000000000000000                                                                                                                                                   U001424  000000000000 0000000000000.97     01650 01500                  
03230440080850014DT67590675900000014274800102800000010180010224001193062900011609342030320230000002651806223000000000741212411079XXXXXX9458               2111111   NYV4 A7W303062281876788N84000000002651849VM00    01DNCBD8666317293            049277    VD84000000026518 NP1549977145232   6C439DA137TFC8B8491719E  000000000+                F DF 10420                     000000000  Y000000000 338   0000000000000.00 0000000.00   0000000.00                             000000000000000                                                                                                                                                     01424 G000000026518 0000000000000.35     00050 02200                  
03230450080850001P16759067590000001427480010280000001010000000000000000                             2000000000000000000000000              000000000000                    0000000000000000000000000                    000000000000                                                                                                                                                                                                                                                                                                                                                                                                                                                                                        
03230460080850015DT67590675900000014274800102800000010180010224001193062900011609367030320230000000499906223000000000741212471529XXXXXX5964               2111111   NYV4 A7W383062481433729N840000000004999QHGH00    01DNCBD8666317293            014730    VB84000000004999 NP1549977145232   FC1B619080TEDD5C9FBF653  000000000+                S CS 00692                    L000000000  N000000000 237   0000000000000.00 0000000.00   0000000.00                             000000000000000                                                                                                                                                     01424 G000000004999 0000000000001.45     02700 01000                  
03230470080850001P16759067590000001427480010280000001010000000000000000                             2000000000000000000000000              000000000000                    0000000000000000000000000                    000000000000                                                                                                                                                                                                                                                                                                                                                                                                                                                                                        
03230480080850016DT67590675900000014274800102800000010180010224001193062900011609375030320230000000319906223000000000741212471529XXXXXX5964               2111111   NYV4 A7W303062481546615N840000000003199727X00    01DNCBD8666317293            023288    VB84000000003199 NP1549977145232   FC1B619080T8EE60F0C5BD2  000000000+                S CS 00692                    L000000000  N000000000 237   0000000000000.00 0000000.00   0000000.00                             000000000000000                                                                                                                                                     01424 G000000003199 0000000000000.96     02700 01000                  
03230490080850001P16759067590000001427480010280000001010000000000000000                             2000000000000000000000000              000000000000                    0000000000000000000000000                    000000000000                                                                                                                                                                                                                                                                                                                                                                                                                                                                                        
03230500080850017DT67590675900000014274800102800000010180010224001193062900011609383030320230000000129506223000000000741212471529XXXXXX5964               2111111   NYV4 A7W383062481706772N840000000001295J49R00    01DNCBD8666317293            030722    VB84000000001295 NP1549977145232   FC1B619080TC63BB3FD05A6  000000000+                S CS 00692                    L000000000  N000000000 237   0000000000000.00 0000000.00   0000000.00                             000000000000000                                                                                                                                                     01424 G000000001295 0000000000000.45     02700 01000                  
03230510080850001P16759067590000001427480010280000001010000000000000000                             2000000000000000000000000              000000000000                    0000000000000000000000000                    000000000000                                                                                                                                                                                                                                                                                                                                                                                                                                                                                        
03230520080850018DT67590675900000014274800102800000010180010287287283062900011609426030320230000002080606223000000000741212515334XXXXXX7679       ME03KE06MS02      NY 4607AMDJQLRR420303  N840000000020806          81DNCBD8666317293            036711    MD84000000020806 N  549977145232   C6E3E5C2B0TB90E88CA2A94  000000000+600450S00130    MDJ  10813                     000000000  1                0000000000000.00 0000000.00   0000000.00                             000000000000000                                                                                                                                                   U001424  000000000000 0000000000000.32     00050 02200                  
03230530080850019DT67590675900000014274800102800000010680010274001193062900011609438030320230000001987006223000000000741212427082XXXXXX6342               0000000   NYV4 07T583062508871261N840000000019870559700    01CNCBD8666317293            003777    VS84000000019870 NP1549977145232   0D97FE0CC5TC6A201814E39  000000000+                B CB 00245                     000000000  N000000000 166   0000000000000.00 0000000.00   0000000.00                             000000000000000                                                                                                                                                     01424  000000019870-0000000000003.50     01760 00000                  
03230540080850001P16759067590000001427480010280000001060000000000000000                             2000000000000000000000000              000000000000                    0000000000000000000000000                    000000000000                                                                                                                                                                                                                                                                                                                                                                                                                                                                                        
03230550080850020DT67590675900000014274800102800000010180010224001193062900011609516030320230000001987006223000000000741212484228XXXXXX0556               2111111   NYV4 A7W383062515047317N840000000019870RBQC00    01DNCBD8666317293            526010    VD84000000019870 NP1549977145232   D1B999541DTEAB633C67DE1  000000000+                G DG 08705                     000000000  N000000000       0000000000000.00 0000000.00   0000000.00                             000000000000000                                                                                                                                                     01424 G000000019870 0000000000004.97     02450 01000                  
03230560080850001P16759067590000001427480010280000001010000000000000000                             2000000000000000000000000              000000000000                    0000000000000000000000000                    000000000000                                                                                                                                                                                                                                                                                                                                                                                                                                                                                        
03230570080850021DT67590675900000014274800102800000010180010224001193062900011609532030320230000002686006223000000000741212473703XXXXXX6823               2111111   NYV4 A7W383062540366241N840000000026860R43500    01DNCBD8666317293            040514    VD84000000026860 NP1549977145232   FDA8064611T937AC0BC90CE  000000000+                F DF 10420                     000000000  Y000000000 338   0000000000000.00 0000000.00   0000000.00                             000000000000000                                                                                                                                                     01424 G000000026860 0000000000000.35     00050 02200                  
03230580080850001P16759067590000001427480010280000001010000000000000000                             2000000000000000000000000              000000000000                    0000000000000000000000000                    000000000000                                                                                                                                                                                                                                                                                                                                                                                                                                                                                        
03230590080850022DT67590675900000014274800102800000010180010287287283062900011609558030320230000002487006223000000000741212515657XXXXXX0132       ME03KE06MS02      NY 4607AMDJSS4V420303  N840000000024870          81DNCBD8666317293            101557    MD84000000024870 N  549977145232   137E00FC97TD6947F60DAB6  000000000+600450S00130    MDJ  10813                     000000000  1                0000000000000.00 0000000.00   0000000.00                             000000000000000                                                                                                                                                   U001424  000000000000 0000000000000.34     00050 02200                  
03230600080850023DT67590675900000014274800102800000010180010224001193062900011609631030320230000001987006223000000000741212449627XXXXXX3522               2111111   NYV4 A7W383062610241298N840000000019870KV7K00    01DNCBD8666317293            115704    VD84000000019870 NP1549977145232   9AE8B646ADTB235AE6EB35F  000000000+                F DF 00415                     000000000  N000000000       0000000000000.00 0000000.00   0000000.00                             000000000000000                                                                                                                                                     01424 G000000019870 0000000000003.43     01650 01500                  
03230610080850001P16759067590000001427480010280000001010000000000000000                             2000000000000000000000000              000000000000                    0000000000000000000000000                    000000000000                                                                                                                                                                                                                                                                                                                                                                                                                                                                                        
03230620080850024DT67590675900000014274800102800000010180010287287283062900011609681030320230000002106206223000000000741212542432XXXXXX1262       ME03KE06MS02      NY 4607AMDJKRVEN10303  N840000000021062          81DNCBD8666317293            519523    MD84000000021062 N  549977145232   3850778B60T9C044CD21369  000000000+600450S00130    MDJ  10813                     000000000  1                0000000000000.00 0000000.00   0000000.00                             000000000000000                                                                                                                                                   U001424  000000000000 0000000000000.33     00050 02200                  
03230630080850025DT67590675900000014274800102800000010180010224001193062900011609748030320230000001987006223000000000741212431449XXXXXX1528               2111111   NYV4 A7W383062666513327N840000000019870VXPF00    01DNCBD8666317293            408275    VD84000000019870 NP1549977145232   E853B99999TE51E4031140A  000000000+                F DF 00415                     000000000  N000000000       0000000000000.00 0000000.00   0000000.00                             000000000000000                                                                                                                                                     01424 G000000019870 0000000000003.43     01650 01500                  
03230640080850001P16759067590000001427480010280000001010000000000000000                             2000000000000000000000000              000000000000                    0000000000000000000000000                    000000000000                                                                                                                                                                                                                                                                                                                                                                                                                                                                                        
03230650080850026DT67590675900000014274800102800000010180010287287283062900011609756030320230000001987006223000000000741212521333XXXXXX0303       ME03KE06MS02      NY 4607AMWECRLUN10303  N840000000019870          81DNCBD8666317293            00384Y    MC84000000019870 N  549977145232   AAC4AFF588T72803081802E  000000000+600450S00130    MWE  00642                     000000000  N                0000000000000.00 0000000.00   0000000.00                             000000000000000                                                                                                                                                   U001424  000000000000 0000000000004.47     02200 01000                  
03230660080850027DT67590675900000014274800102800000010180010224001193062900011609789030320230000002487006223000000000741212446542XXXXXX4308               2111111   NYV4 A7W463062683329348N840000000024870WDDL00    01DNCBD8666317293            003402    VS84000000024870 NP1549977145232   9F73A0ABC6T941EB325D0F4  000000000+                D CD 12109                     000000000  N000000000 498   0000000000000.00 0000000.00   0000000.00                             000000000000000                                                                                                                                                     01424 G000000024870 0000000000006.32     02500 01000                  
03230670080850001P16759067590000001427480010280000001010000000000000000                             2000000000000000000000000              000000000000                    0000000000000000000000000                    000000000000                                                                                                                                                                                                                                                                                                                                                                                                                                                                                        
03230680080850028DT67590675900000014274800102800000010180010224001193062900011609797030320230000002255006223000000000741212438857XXXXXX5391               2111111   NYV4 A7W463062691763019N840000000022550TNMP00    01DNCBD8666317293            07689I    VS84000000022550 NP1549977145232   93FC63C9B9T71670810EC5F  000000000+                I CI 12109                     000000000  N000000000 498   0000000000000.00 0000000.00   0000000.00                             000000000000000                                                                                                                                                     01424 G000000022550 0000000000005.74     02500 01000                  
03230690080850001P16759067590000001427480010280000001010000000000000000                             2000000000000000000000000              000000000000                    0000000000000000000000000                    000000000000                                                                                                                                                                                                                                                                                                                                                                                                                                                                                        
03230700080850029DT67590675900000014274800102800000010680010274001193062900011609818030320230000001493806223000000000741212473703XXXXXX6823               0000000   NYV4 07T383062697445238N840000000014938JPSN00    01CNCBD8666317293            027373    VD84000000014938 NP1549977145232   FDA8064611T937AC0BC90CE  000000000+                F DF 08168                     000000000  Y000000000 369   0000000000000.00 0000000.00   0000000.00                             000000000000000                                                                                                                                                     01424  000000014938 0000000000000.00     00000 00000                  
03230710080850001P16759067590000001427480010280000001060000000000000000                             2000000000000000000000000              000000000000                    0000000000000000000000000                    000000000000                                                                                                                                                                                                                                                                                                                                                                                                                                                                                        
03230720080850030DT67590675900000014274800102800000010180010287287283062900011609830030320230000001311006223000000000741212546382XXXXXX1523       ME03KE06MS02      NY 4607AMDJAL9AN30303  N840000000013110          81DNCBD8666317293            469860    MD84000000013110 N  549977145232   B4390FBA9DTE00E33A0602C  000000000+600450S00130    MDJ  00401                     000000000  N                0000000000000.00 0000000.00   0000000.00                             000000000000000                                                                                                                                                   U001424  000000000000 0000000000002.31     01650 01500                  
03230730080850031DT67590675900000014274800102800000010180010287287283062900011609855030320230000001573506223000000000741212541065XXXXXX5911       ME03KE06PT01      NY 4607AMCWE11KN10303  N840000000015735          81DNCBD8666317293            18165P    MC84000000015735 N  549977145232   5E8ECF58C6T5B677323A819  000000000+600450S00130    MCW  00642                     000000000  N                0000000000000.00 0000000.00   0000000.00                             000000000000000                                                                                                                                                   U001424  000000000000 0000000000003.56     02200 01000                  
03230740080850032DT67590675900000014274800102800000010180010224001193062900011609862030320230000001558406223000000000741212473702XXXXXX5219               2111111   NYV4 A7W463062711580929N840000000015584MFRF00    01DNCBD8666317293            088888    VD84000000015584 NP1549977145232   0AADDFBCF0T7FE55F635955  000000000+                F DF 10420                     000000000  Y000000000 338   0000000000000.00 0000000.00   0000000.00                             000000000000000                                                                                                                                                     01424 G000000015584 0000000000000.30     00050 02200                  
03230750080850001P16759067590000001427480010280000001010000000000000000                             2000000000000000000000000              000000000000                    0000000000000000000000000                    000000000000                                                                                                                                                                                                                                                                                                                                                                                                                                                                                        
03230760080850033DT67590675900000014274800102800000010180010224001193062900011609870030320230000000319906223000000000741212410039XXXXXX9892               2111111   NYV4 A7W463062713043916N8400000000031997NPV00    01DNCBD8666317293            64741C    VS84000000003199 NP1549977145232   3593509CE0TE58C604A011C  000000000+                C CC 12108                     000000000  N000000000 496   0000000000000.00 0000000.00   0000000.00                             000000000000000                                                                                                                                                     01424 G000000003199 0000000000000.76     02050 01000                  
03230770080850001P16759067590000001427480010280000001010000000000000000                             2000000000000000000000000              000000000000                    0000000000000000000000000                    000000000000                                                                                                                                                                                                                                                                                                                                                                                                                                                                                        
03230780080850034DT67590675900000014274800102800000010180010224001193062900011609904030320230000000129506223000000000741212410039XXXXXX9892               2111111   NYV4 A7W583062713625606N840000000001295HHHM00    01DNCBD8666317293            84017C    VS84000000001295 NP1549977145232   3593509CE0T3E09F99618DB  000000000+                C CC 12108                     000000000  N000000000 496   0000000000000.00 0000000.00   0000000.00                             000000000000000                                                                                                                                                     01424 G000000001295 0000000000000.37     02050 01000                  
03230790080850001P16759067590000001427480010280000001010000000000000000                             2000000000000000000000000              000000000000                    0000000000000000000000000                    000000000000                                                                                                                                                                                                                                                                                                                                                                                                                                                                                        
03230800080850035DT67590675900000014274800102800000010180010224001193062900011609912030320230000000149506223000000000741212410039XXXXXX9892               2111111   NYV4 A7W303062713939858N8400000000014959QFW00    01DNCBD8666317293            49570C    VS84000000001495 NP1549977145232   3593509CE0T4520FEC9E0EC  000000000+                C CC 12108                     000000000  N000000000 496   0000000000000.00 0000000.00   0000000.00                             000000000000000                                                                                                                                                     01424 G000000001495 0000000000000.41     02050 01000                  
03230810080850001P16759067590000001427480010280000001010000000000000000                             2000000000000000000000000              000000000000                    0000000000000000000000000                    000000000000                                                                                                                                                                                                                                                                                                                                                                                                                                                                                        
03230820080850036DT67590675900000014274800102800000010180010287287283062900011609947030320230000002487006223000000000741212546213XXXXXX3063       ME03KE06MS02      NY 4607AMDJCI1KDZ0303  N840000000024870          81DNCBD8666317293            488119    MD84000000024870 N  549977145232   399597B0C7TF224D6355574  000000000+600450S00130    MDJ  10813                     000000000  1                0000000000000.00 0000000.00   0000000.00                             000000000000000                                                                                                                                                   U001424  000000000000 0000000000000.34     00050 02200                  
03230830080850037DT67590675900000014274800102800000010180010287287283062900011609970030320230000002118606223000000000741212524366XXXXXX6113       ME03KE06MS02      NY 4607AMPLQFEPCX0303  N840000000021186          81DNCBD8666317293            00341B    MC84000000021186 N  549977145232   2B6D0BD29DTFD122DCF9F20  000000000+600450S00130    MPL  00580                     000000000  N                0000000000000.00 0000000.00   0000000.00                             000000000000000                                                                                                                                                   U001424  000000000000 0000000000004.55     02100 01000                  
03230840080850038DT67590675900000014274800102800000010180010224001193062900011609987030320230000001907006223000000000741212438854XXXXXX8852               2111111   NYV4 A7W303062722128802N840000000019070LXNV00    01DNCBD8666317293            09986D    VS84000000019070 NP1549977145232   B72F88672BT9E2320A27204  000000000+                D CD 12109                     000000000  N000000000 498   0000000000000.00 0000000.00   0000000.00                             000000000000000                                                                                                                                                     01424 G000000019070 0000000000004.87     02500 01000                  
03230850080850001P16759067590000001427480010280000001010000000000000000                             2000000000000000000000000              000000000000                    0000000000000000000000000                    000000000000                                                                                                                                                                                                                                                                                                                                                                                                                                                                                        
03230860080850039DT67590675900000014274800102800000010680010287287283062900011609996030320230000001059306223000000000741212524366XXXXXX6113                         NY 4607AMPLRKO1N20303  N840000000010593          81CNCBD8666317293            003999    MC84000000010593 N  549977145232   2B6D0BD29DTFD122DCF9F20  000000000+600450S00130    MPL  00565                     000000000  N                0000000000000.00 0000000.00   0000000.00                             000000000000000                                                                                                                                                     01424  000000000000-0000000000001.85     01750 00000                  
03230870080850040DT67590675900000014274800102800000010180010287287283062900011610002030320230000001987006223000000000741212520943XXXXXX8578       ME03KE06MS02      NY 4607AMPLFRKEN10303  N840000000019870          81DNCBD8666317293            02381B    MC84000000019870 N  549977145232   20D503E660T91092C312596  000000000+600450S00130    MPL  00580                     000000000  N                0000000000000.00 0000000.00   0000000.00                             000000000000000                                                                                                                                                   U001424  000000000000 0000000000004.27     02100 01000                  
03230880080850041DT67590675900000014274800102800000010180010224001193062900011610027030320230000000149506223000000000741212438857XXXXXX3879               2111111   NYV4 A7W383062738262688N8400000000014959JHN00    01DNCBD8666317293            00798C    VS84000000001495 NP1549977145232   24E0693BEDTA72364A60BC0  000000000+                C CC 12108                     000000000  N000000000 496   0000000000000.00 0000000.00   0000000.00                             000000000000000                                                                                                                                                     01424 G000000001495 0000000000000.41     02050 01000                  
03230890080850001P16759067590000001427480010280000001010000000000000000                             2000000000000000000000000              000000000000                    0000000000000000000000000                    000000000000                                                                                                                                                                                                                                                                                                                                                                                                                                                                                        
03230900080850042DT67590675900000014274800102800000010180010287287283062900011610044030320230000002487006223000000000741212521870XXXXXX2141       ME03KE06MS02      NY 4607AMDJGSWPN10303  N840000000024870          81DNCBD8666317293            000365    MD84000000024870 N  549977145232   EDAD14D83FTF8D4FD35B6B0  000000000+600450S00130    MDJ  00401                     000000000  N                0000000000000.00 0000000.00   0000000.00                             000000000000000                                                                                                                                                   U001424  000000000000 0000000000004.25     01650 01500                  
03230910080850043DT67590675900000014274800102800000010180010224001193062900011610050030320230000001440306223000000000741212483316XXXXXX3178               2111111   NYV4 A7W383062752587807N840000000014403C8F900    01DNCBD8666317293            085415    VD84000000014403 NP1549977145232   B3E1B419CDT9FD06D1E6C40  000000000+                F DF 10420                     000000000  Y000000000 338   0000000000000.00 0000000.00   0000000.00                             000000000000000                                                                                                                                                     01424 G000000014403 0000000000000.29     00050 02200                  
03230920080850001P16759067590000001427480010280000001010000000000000000                             2000000000000000000000000              000000000000                    0000000000000000000000000                    000000000000                                                                                                                                                                                                                                                                                                                                                                                                                                                                                        
03230930080850044DT67590675900000014274800102800000010180010287287283062900011610085030320230000002920306223000000000741212542418XXXXXX8119       ME03KE06MS02      NY 4607AMPLTM4PN20303  N840000000029203          81DNCBD8666317293            24669B    MC84000000029203 N  549977145232   EAB263CC9CT3E889D6DB6AB  000000000+600450S00130    MPL  00580                     000000000  N                0000000000000.00 0000000.00   0000000.00                             000000000000000                                                                                                                                                   U001424  000000000000 0000000000006.23     02100 01000                  
03230940080850045DT67590675900000014274800102800000010180010224001193062900011610092030320230000000149506223000000000741212481582XXXXXX6036               2111111   NYV4 A7W383062766733011N840000000001495DMDK00    01DNCBD8666317293            131079    VD84000000001495 NP1549977145232   B7DE72EDEET9596F0BD39AF  000000000+                F DF 10420                     000000000  Y000000000 338   0000000000000.00 0000000.00   0000000.00                             000000000000000                                                                                                                                                     01424 G000000001495 0000000000000.23     00050 02200                  
03230950080850001P16759067590000001427480010280000001010000000000000000                             2000000000000000000000000              000000000000                    0000000000000000000000000                    000000000000                                                                                                                                                                                                                                                                                                                                                                                                                                                                                        
03230960080850046DT67590675900000014274800102800000010180010287287283062900011610101030320230000000129506223000000000741212521333XXXXXX4643       ME03KE06MS02      NY 4607AMWEE72IDZ0303  N840000000001295          81DNCBD8666317293            00399Y    MC84000000001295 N  549977145232   3141CC746AT3CCF73910403  000000000+600450S00130    MWE  00642                     000000000  N                0000000000000.00 0000000.00   0000000.00                             000000000000000                                                                                                                                                   U001424  000000000000 0000000000000.38     02200 01000                  
03230970080850047DT67590675900000014274800102800000010680010287287283062900011610119030320230000000933306223000000000741212542418XXXXXX8119                         NY 4607AMPLTYT2N20303  N840000000009333          81CNCBD8666317293            345562    MC84000000009333 N  549977145232   EAB263CC9CT3E889D6DB6AB  000000000+600450S00130    MPL  00565                     000000000  N                0000000000000.00 0000000.00   0000000.00                             000000000000000                                                                                                                                                     01424  000000000000-0000000000001.63     01750 00000                  
03230980080850048DT67590675900000014274800102800000010180010287287283062900011610127030320230000001987006223000000000741212524008XXXXXX9174       ME03KE06MS02      NY 4607AMPLSBIYN10303  N840000000019870          81DNCBD8666317293            00380B    MC84000000019870 N  549977145232   DBA7530DFBT118850128F08  000000000+600450S00130    MPL  00580                     000000000  N                0000000000000.00 0000000.00   0000000.00                             000000000000000                                                                                                                                                   U001424  000000000000 0000000000004.27     02100 01000                  
03230990080850049DT67590675900000014274800102800000010180010224001193062900011610142030320230000002934106223000000000741212410040XXXXXX1254       EF10    2111111   NYV4 A7W383062789840382N840000000029341T97X00    01DNCBD8666317293            35702G    VB84000000029341 NP1549977145232   5D5347FBD0T5443F1819443  000000000+                G CG 00476                     000000000  N000000000 170   0000000000000.00 0000000.00   0000000.00                             000000000000000                                                                                                                                                     01424 G000000029341 0000000000005.67     01900 01000                  
03231000080850001P16759067590000001427480010280000001010000000000000000                             1000000001791000000000000              000000000000                    0000000000000000000000000                    000000000000                                                                                                                                                                                                                                                                                                                                                                                                                                                                                        
03231010080850050DT67590675900000014274800102800000010180010224001193062900011610175030320230000002487006223000000000741212435545XXXXXX8039               2111111   NYV4 A7W583062812258897N8400000000248704J7G00    01DNCBD8666317293            109089    VD84000000024870 NP1549977145232   11634BCD1DTCAEB1810C761  000000000+                F DF 10420                     000000000  Y000000000 338   0000000000000.00 0000000.00   0000000.00                             000000000000000                                                                                                                                                     01424 G000000024870 0000000000000.34     00050 02200                  
03231020080850001P16759067590000001427480010280000001010000000000000000                             2000000000000000000000000              000000000000                    0000000000000000000000000                    000000000000                                                                                                                                                                                                                                                                                                                                                                                                                                                                                        
03231030080850051DT67590675900000014274800102800000010180010287287283062900011610184030320230000001987006223000000000741212520583XXXXXX2140       ME03KE06MS02      NY 4607AMDSDXTYFK0303  N840000000019870          81DNCBD8666317293            327616    MD84000000019870 N  549977145232   E24977AF3CTEE8CF236DF66  000000000+600450S00130    MDS  00401                     000000000  N                0000000000000.00 0000000.00   0000000.00                             000000000000000                                                                                                                                                   U001424  000000000000 0000000000003.43     01650 01500                  
03231040080850052DT67590675900000014274800102800000010180010287287283062900011610192030320230000001344406223000000000741212515354XXXXXX2694       ME03KE06MS02      NY 4607AMDJIO4XDZ0303  N840000000013444          81DNCBD8666317293            247190    MD84000000013444 N  549977145232   ECF0BB20EET627F565DD0B1  000000000+600450S00130    MDJ  00401                     000000000  N                0000000000000.00 0000000.00   0000000.00                             000000000000000                                                                                                                                                   U001424  000000000000 0000000000002.37     01650 01500                  
03231050080850053DT67590675900000014274800102800000010180010287287283062900011610200030320230000000222506223000000000741212515354XXXXXX2694       ME03KE06MS02      NY 4607AMDJIQOXDZ0303  N840000000002225          81DNCBD8666317293            248600    MD84000000002225 N  549977145232   ECF0BB20EETA60F1895B140  000000000+600450S00130    MDJ  00401                     000000000  N                0000000000000.00 0000000.00   0000000.00                             000000000000000                                                                                                                                                   U001424  000000000000 0000000000000.52     01650 01500                  
03231060080850054DT67590675900000014274800102800000010180010224001193062900011610217030320230000002126106223000000000741212440066XXXXXX9581               2111111   NYV4 A7W583062839768769N8400000000212614SJZ00    01DNCBD8666317293            09081C    VS84000000021261 NP1549977145232   05B37D003CT8ACED21D1761  000000000+                C CC 12108                     000000000  N000000000 496   0000000000000.00 0000000.00   0000000.00                             000000000000000                                                                                                                                                     01424 G000000021261 0000000000004.46     02050 01000                  
03231070080850001P16759067590000001427480010280000001010000000000000000                             2000000000000000000000000              000000000000                    0000000000000000000000000                    000000000000                                                                                                                                                                                                                                                                                                                                                                                                                                                                                        
03231080080850055DT67590675900000014274800102800000010180010224001193062900011610225030320230000000499906223000000000741212414720XXXXXX3618               2111111   NYV4 A7W583062848032238N840000000004999KWF600    01DNCBD8666317293            09697C    VS84000000004999 NP1549977145232   4A7003785CT965F0AEEEAAB  000000000+                C CC 12108                     000000000  N000000000 496   0000000000000.00 0000000.00   0000000.00                             000000000000000                                                                                                                                                     01424 G000000004999 0000000000001.12     02050 01000                  
03231090080850001P16759067590000001427480010280000001010000000000000000                             2000000000000000000000000              000000000000                    0000000000000000000000000                    000000000000                                                                                                                                                                                                                                                                                                                                                                                                                                                                                        
03231100080850056DT67590675900000014274800102800000010180010287287283062900011610234030320230000002092306223000000000741212542539XXXXXX0145       ME03KE06MS02      NY 4607AMPLXI6PFK0303  N840000000020923          81DNCBD8666317293            003898    MC84000000020923 N  549977145232   D8F618CB80T2CAC9BA26778  000000000+600450S00130    MPL  00013                     000000000  N                0000000000000.00 0000000.00   0000000.00                             000000000000000                                                                                                                                                   U001424  000000000000 0000000000004.18     01950 01000                  
03231110080850057DT67590675900000014274800102800000010180010224001193062900011610241030320230000000541806223000000000741212475824XXXXXX6168               2111111   NYV4 A7W583062854879316N840000000005418RH3F00    01DNCBD8666317293            003502    VD84000000005418 NP1549977145232   E8CE019AFAT5037761E46F8  000000000+                F DF 10420                     000000000  Y000000000 338   0000000000000.00 0000000.00   0000000.00                             000000000000000                                                                                                                                                     01424 G000000005418 0000000000000.25     00050 02200                  
03231120080850001P16759067590000001427480010280000001010000000000000000                             2000000000000000000000000              000000000000                    0000000000000000000000000                    000000000000                                                                                                                                                                                                                                                                                                                                                                                                                                                                                        
03231130080850058DT67590675900000014274800102800000010180010287287283062900011610259030320230000002106206223000000000741212542179XXXXXX3257       ME03KE06MS02      NY 4607AMDJXV17FK0303  N840000000021062          81DNCBD8666317293            222427    MD84000000021062 N  549977145232   AE71B0802CT1A99635AB384  000000000+600450S00130    MDJ  10813                     000000000  1                0000000000000.00 0000000.00   0000000.00                             000000000000000                                                                                                                                                   U001424  000000000000 0000000000000.33     00050 02200                  
03231140080850059DT67590675900000014274800102800000010180010287287283062900011610317030320230000002673506223000000000741212518941XXXXXX0494       ME03KE06MS02      NY 4607AMWEUQELFN0303  N840000000026735          81DNCBD8666317293            98959Z    MC84000000026735 N  549977145232   C705B284C1TDE0E75611B9D  000000000+600450S00130    MWE  00737                     000000000  N                0000000000000.00 0000000.00   0000000.00                             000000000000000                                                                                                                                                   U001424  000000000000 0000000000007.05     02600 01000                  
03231150080850060BH6759067590000000370780088880000090170303202306223000000000054508    0000090001490342Y8008886759C03062023                                                                                                                                                                                                                                                                                                                                                                                                                                                                                                                                                                                                 
03231160080850061DT67590675900000003707800888800000010180088824001193062900014903353030220230000001200006223000000000054508411079XXXXXX4657               2111111   NYV4 A7W303062199493028N8400000000120007VKK00    01DNMR HEMP FLOWER           069688    VD84000000012000 NP1549976053336   86633                    000000000+                F DF 10420                     000000000  Y000000000 338   0000000000000.00 0000000.00   0000000.00                             000000000000000                                                                                                                                                     01424 G000000012000 0000000000000.28     00050 02200                  
03231170080850001P16759067590000000370780088880000001010000000000000000                             2000000000000000000000000              000000000000                    0000000000000000000000000                    000000000000                                                                                                                                                                                                                                                                                                                                                                                                                                                                                        
03231180080850062DT67590675900000003707800888800000010180088824001193062900014903361030320230000000499806223000000000054508415978XXXXXX4072               2111111   NYV4 A7W383062577587945N8400000000049984CTF00    01DNMR HEMP FLOWER           033859    VD84000000004998 NP1549976053336   86645                    000000000+                F DF 10420                     000000000  Y000000000 338   0000000000000.00 0000000.00   0000000.00                             000000000000000                                                                                                                                                     01424 G000000004998 0000000000000.24     00050 02200                  
03231190080850001P16759067590000000370780088880000001010000000000000000                             2000000000000000000000000              000000000000                    0000000000000000000000000                    000000000000                                                                                                                                                                                                                                                                                                                                                                                                                                                                                        
03231200080850063DT67590675900000003707800888800000010180088887287283062900014903370030320230000001009906223000000000054508515307XXXXXX1544       ME03KE06PT01      NY 4607AMCWADA2N10303  N840000000010099          81DNMR HEMP FLOWER           04308Z    MC84000000010099 N  549976053336   86654                    000000000+600450S00130    MCW  00642                     000000000  N                0000000000000.00 0000000.00   0000000.00                             000000000000000                                                                                                                                                   U001424  000000000000 0000000000002.32     02200 01000                  
03231210080850064DT67590675900000003707800888800000010180088887287283062900014903388030320230000001659906223000000000054508559758XXXXXX6546       ME03KE06MS02      NY 4607AMPVA49PN30303  N840000000016599          81DNMR HEMP FLOWER           KLAG1F    MD84000000016599 N  549976053336   86663                    000000000+600450S00130    MPV  09899                     000000000  N                0000000000000.00 0000000.00   0000000.00                             000000000000000                                                                                                                                                   U001424  000000000000 0000000000003.12     01760 02000                  
03231220080850065DT67590675900000003707800888800000010180088824001193062900014903429030320230000001081206223000000000054508400022XXXXXX2571               2111111   NYV4 A7W463062811118530N8400000000108128KCM00    01DNMR HEMP FLOWER           585590    VD84000000010812 NP1549976053336   86675                    000000000+                F DF 10420                     000000000  Y000000000 338   0000000000000.00 0000000.00   0000000.00                             000000000000000                                                                                                                                                     01424 G000000010812 0000000000000.27     00050 02200                  
03231230080850001P16759067590000000370780088880000001010000000000000000                             2000000000000000000000000              000000000000                    0000000000000000000000000                    000000000000                                                                                                                                                                                                                                                                                                                                                                                                                                                                                        
03231240080850066BH6759067590000001330080010280000090170303202306223000000000692280    0000090001161083Y8001026759C03062023                                                                                                                                                                                                                                                                                                                                                                                                                                                                                                                                                                                                 
03231250080850067DT67590675900000013300800102800000010180010287287283062900011605283030220230000000636406223000000000692280531202XXXXXX9733       ME03KE06MS02      NY 4607AMDJO8HIDN0227  N840000000006364          81DNCBD8666317293            546591    MD84000000006364 N  549977133133   EB3E893C27TCCBE9D7A09CB  000000000+600450S00130    MDJ  00401                     000000000  N                0000000000000.00 0000000.00   0000000.00                             000000000000000                                                                                                                                                   U001424  000000000000 0000000000001.20     01650 01500                  
03231260080850068DT67590675900000013300800102800000010180010224001193062900011605290030220230000002695306223000000000692280444083XXXXXX3402               2111111   NYV4 A7W383059063053014N840000000026953H99300    01DNCBD8666317293            409368    VD84000000026953 NP1549977133133   6ECE6F26CBT5D8F3A358A74  000000000+                F PF 08175                     000000000  N000000000       0000000000000.00 0000000.00   0000000.00                             000000000000000                                                                                                                                                     01424 G000000026953 0000000000004.92     01750 02000                  
03231270080850001P16759067590000001330080010280000001010000000000000000                             2000000000000000000000000              000000000000                    0000000000000000000000000                    000000000000                                                                                                                                                                                                                                                                                                                                                                                                                                                                                        
03231280080850069DT67590675900000013300800102800000010180010287287283062900011608477030220230000000019906223000000000692280556371XXXXXX7369                         NY 4607AMCFBQ9GUD0302  N840000000000199          81DNCBD8666317293            W9RD2W    MB84000000000199 NP1549977133133   D4DD14FE8ATBBD293A10326  000000000+600450S00130    MCF  00060                     000000000  N                0000000000000.00 0000000.00   0000000.00                             000000000000000                                                                                                                                                   U001424  000000000000 0000000000000.16     02950 01000                  
03231290080850001P1675906759000000133008001028000000101                                                          000000000000          8000            871584967                                                                                                                                                                                                                                                                                                                                                                                                                                                                                                                                                            
03231300080850070DT67590675900000013300800102800000010180010287287283062900011608485030220230000000499906223000000000692280511563XXXXXX4869       ME03KE06MS02      NY 4607AMPVQ0Q4I80302  N840000000004999          81DNCBD8666317293            ROUHXO    MD84000000004999 N  549977133133   2944FFFE75T6A0C3D1C6794  000000000+600450S00130    MPV  09899                     000000000  N                0000000000000.00 0000000.00   0000000.00                             000000000000000                                                                                                                                                   U001424  000000000000 0000000000001.08     01760 02000                  
03231310080850071DT67590675900000013300800102800000010180010287287283062900011608493030220230000000319906223000000000692280511563XXXXXX4869       ME03KE06MS02      NY 4607AMPVIYAXUD0302  N840000000003199          81DNCBD8666317293            TIFD74    MD84000000003199 N  549977133133   2944FFFE75T198357127B94  000000000+600450S00130    MPV  09899                     000000000  N                0000000000000.00 0000000.00   0000000.00                             000000000000000                                                                                                                                                   U001424  000000000000 0000000000000.76     01760 02000                  
03231320080850072DT67590675900000013300800102800000010180010287287283062900011608501030220230000000129506223000000000692280511563XXXXXX4869       ME03KE06MS02      NY 4607AMPVQ09YI80302  N840000000001295          81DNCBD8666317293            CESYXM    MD84000000001295 N  549977133133   2944FFFE75TA896B100E107  000000000+600450S00130    MPV  09899                     000000000  N                0000000000000.00 0000000.00   0000000.00                             000000000000000                                                                                                                                                   U001424  000000000000 0000000000000.43     01760 02000                  
03231330080850073DT67590675900000013300800102800000010180010287287283062900011608519030220230000000019906223000000000692280559666XXXXXX0405                         NY 4607AMPLBYZIUD0302  N840000000000199          81DNCBD8666317293            53UPO0    MC84000000000199 N  549977133133   65AB805754T5E97E2D8054E  000000000+600450S00130    MPL  12148                     000000000  N                0000000000000.00 0000000.00   0000000.00                             000000000000000                                                                                                                                                     01424  000000000000 0000000000000.06     01950 00200                  
03231340080850074DT67590675900000013300800102800000010180010287287283062900011608527030220230000002487006223000000000692280540653XXXXXX6027       ME03KE06MS02      NY 4607AMDJB0IWUD0302  N840000000024870          81DNCBD8666317293            091305    MD84000000024870 N  549977133133   39F7F7B535T20F131B59F4C  000000000+600450S00130    MDJ  10713                     000000000  B                0000000000000.00 0000000.00   0000000.00                             000000000000000                                                                                                                                                   U001424  000000000000 0000000000000.33     00050 02100                  
03231350080850075DT67590675900000013300800102800000010180010224001193062900011608534030220230000000019906223000000000692280485932XXXXXX4511               2111111   NYV4 A7W303062048047257N840000000000199ZQBP00    01DNCBD8666317293            591866    VB84000000000199 NP1549977133133   C129E6EA1CT76FA6C0D54FE  000000000+                S CS 00692                     000000000  N000000000 237   0000000000000.00 0000000.00   0000000.00                             000000000000000                                                                                                                                                     01424 G000000000199 0000000000000.15     02700 01000                  
03231360080850001P16759067590000001330080010280000001010000000000000000                             2000000000000000000000000              000000000000                    0000000000000000000000000                    000000000000                                                                                                                                                                                                                                                                                                                                                                                                                                                                                        
03231370080850076DT67590675900000013300800102800000010180010224001193062900011608542030220230000000019906223000000000692280428803XXXXXX2391               2111111   NYV4 A7W463062049278143N840000000000199MXZ500    01DNCBD8666317293            845003    VD84000000000199 NP1549977133133   A6C57D21ABT28F8FE0C3505  000000000+                S PS 10179                     000000000  N000000000 364   0000000000000.00 0000000.00   0000000.00                             000000000000000                                                                                                                                                     01424 G000000000199 0000000000000.15     02650 01000                  
03231380080850001P16759067590000001330080010280000001010000000000000000                             2000000000000000000000000              000000000000                    0000000000000000000000000                    000000000000                                                                                                                                                                                                                                                                                                                                                                                                                                                                                        
03231390080850077DT67590675900000013300800102800000010180010287287283062900011608550030220230000000019906223000000000692280514376XXXXXX5722                         NY 4607AMPWQKJKT80302  N840000000000199          81DNCBD8666317293            128914    MD84000000000199 NP1549977133133   DA74E4A78ATE69126921D9B  000000000+600450S00130    MPW  00062                     000000000  N                0000000000000.00 0000000.00   0000000.00                             000000000000000                                                                                                                                                   U001424  000000000000 0000000000000.15     02650 01000                  
03231400080850001P1675906759000000133008001028000000101                                                          000000000000          8000            871584967                                                                                                                                                                                                                                                                                                                                                                                                                                                                                                                                                            
03231410080850078DT67590675900000013300800102800000010180010287287283062900011608568030220230000000019906223000000000692280559666XXXXXX3105                         NY 4607AMPLRBCEI80302  N840000000000199          81DNCBD8666317293            BLTTW3    MC84000000000199 N  549977133133   EB4D19FD49T5714E0F16C22  000000000+600450S00130    MPL  12148                     000000000  N                0000000000000.00 0000000.00   0000000.00                             000000000000000                                                                                                                                                     01424  000000000000 0000000000000.06     01950 00200                  
03231420080850079DT67590675900000013300800102800000010180010224001193062900011608575030220230000000019906223000000000692280412076XXXXXX7542               2111111   NYV4 A7W383062051077679N84000000000019976WG00    01DNCBD8666317293            563023    VS84000000000199 NP1549977133133   49B3B3AD43TADE708B1B1E0  000000000+                A CA 12106                     000000000  N000000000 492   0000000000000.00 0000000.00   0000000.00                             000000000000000                                                                                                                                                     01424 G000000000199 0000000000000.14     01890 01000                  
03231430080850001P16759067590000001330080010280000001010000000000000000                             2000000000000000000000000              000000000000                    0000000000000000000000000                    000000000000                                                                                                                                                                                                                                                                                                                                                                                                                                                                                        
03231440080850080DT67590675900000013300800102800000010180010224001193062900011608583030220230000000019906223000000000692280428813XXXXXX2317               2111111   NYV4 A7W583062056443168N840000000000199P5LB00    01DNCBD8666317293            527802    VB84000000000199 NP1549977133133   9C3CE0A205T84607565086D  000000000+                S CS 00692                     000000000  N000000000 237   0000000000000.00 0000000.00   0000000.00                             000000000000000                                                                                                                                                     01424 G000000000199 0000000000000.15     02700 01000                  
03231450080850001P16759067590000001330080010280000001010000000000000000                             2000000000000000000000000              000000000000                    0000000000000000000000000                    000000000000                                                                                                                                                                                                                                                                                                                                                                                                                                                                                        
03231460080850081DT67590675900000013300800102800000010180010224001193062900011608591030220230000000019906223000000000692280412076XXXXXX0240               2111111   NYV4 A7W383062057717992N840000000000199XDZ900    01DNCBD8666317293            032567    VS84000000000199 NP1549977133133   230B345880T77E7332BDD79  000000000+                A CA 12106                     000000000  N000000000 492   0000000000000.00 0000000.00   0000000.00                             000000000000000                                                                                                                                                     01424 G000000000199 0000000000000.14     01890 01000                  
03231470080850001P16759067590000001330080010280000001010000000000000000                             2000000000000000000000000              000000000000                    0000000000000000000000000                    000000000000                                                                                                                                                                                                                                                                                                                                                                                                                                                                                        
03231480080850082DT67590675900000013300800102800000010180010287287283062900011608600030220230000000019906223000000000692280519075XXXXXX2376                         NY 4607AMCPJKYBUD0302  N840000000000199          81DNCBD8666317293            J24F6L    MB84000000000199 NP1549977133133   BCBF43ED2DT856E593D5A74  000000000+600450S00130    MCP  00303                     000000000  N                0000000000000.00 0000000.00   0000000.00                             000000000000000                                                                                                                                                     01424  000000000000 0000000000000.15     02700 01000                  
03231490080850001P1675906759000000133008001028000000101                                                          000000000000          8000            871584967                                                                                                                                                                                                                                                                                                                                                                                                                                                                                                                                                            
03231500080850083DT67590675900000013300800102800000010180010224001193062900011608617030220230000000019906223000000000692280428803XXXXXX1609               2111111   NYV4 A7W583062063644357N8400000000001997ZFB00    01DNCBD8666317293            567141    VD84000000000199 NP1549977133133   692EE5C117T48B01F635B7C  000000000+                S PS 10179                     000000000  N000000000 364   0000000000000.00 0000000.00   0000000.00                             000000000000000                                                                                                                                                     01424 G000000000199 0000000000000.15     02650 01000                  
03231510080850001P16759067590000001330080010280000001010000000000000000                             2000000000000000000000000              000000000000                    0000000000000000000000000                    000000000000                                                                                                                                                                                                                                                                                                                                                                                                                                                                                        
03231520080850084DT67590675900000013300800102800000010180010287287283062900011608626030220230000000019906223000000000692280519075XXXXXX4028                         NY 4607AMCPJ2DJT80302  N840000000000199          81DNCBD8666317293            550TJO    MB84000000000199 NP1549977133133   F911279930T8B568C79EC06  000000000+600450S00130    MCP  00303                     000000000  N                0000000000000.00 0000000.00   0000000.00                             000000000000000                                                                                                                                                     01424  000000000000 0000000000000.15     02700 01000                  
03231530080850001P1675906759000000133008001028000000101                                                          000000000000          8000            871584967                                                                                                                                                                                                                                                                                                                                                                                                                                                                                                                                                            
03231540080850085DT67590675900000013300800102800000010180010224001193062900011608633030220230000000019906223000000000692280440393XXXXXX0701               2111111   NYV4 A7W583062064842736N840000000000199SV2900    01DNCBD8666317293            963163    VD84000000000199 NP1549977133133   1E3496324AT0907C961D796  000000000+                F PF 08175                     000000000  N000000000       0000000000000.00 0000000.00   0000000.00                             000000000000000                                                                                                                                                     01424 G000000000199 0000000000000.23     01750 02000                  
03231550080850001P16759067590000001330080010280000001010000000000000000                             2000000000000000000000000              000000000000                    0000000000000000000000000                    000000000000                                                                                                                                                                                                                                                                                                                                                                                                                                                                                        
03231560080850086DT67590675900000013300800102800000010180010287287283062900011608642030220230000000019906223000000000692280534786XXXXXX2741                         NY 4607AMCOJ41NT80302  N840000000000199          81DNCBD8666317293            VTQD6U    MB84000000000199 NP1549977133133   D1CCFB5657T705A6DF9E570  000000000+600450S00130    MCO  00303                     000000000  N                0000000000000.00 0000000.00   0000000.00                             000000000000000                                                                                                                                                   U001424  000000000000 0000000000000.15     02700 01000                  
03231570080850001P1675906759000000133008001028000000101                                                          000000000000          8000            871584967                                                                                                                                                                                                                                                                                                                                                                                                                                                                                                                                                            
03231580080850087DT67590675900000013300800102800000010180010224001193062900011608658030220230000000019906223000000000692280485932XXXXXX6013               2111111   NYV4 A7W463062067305857N8400000000001999LNN00    01DNCBD8666317293            460420    VB84000000000199 NP1549977133133   6059CCD513T5F32936B9CA9  000000000+                S CS 00692                     000000000  N000000000 237   0000000000000.00 0000000.00   0000000.00                             000000000000000                                                                                                                                                     01424 G000000000199 0000000000000.15     02700 01000                  
03231590080850001P16759067590000001330080010280000001010000000000000000                             2000000000000000000000000              000000000000                    0000000000000000000000000                    000000000000                                                                                                                                                                                                                                                                                                                                                                                                                                                                                        
03231600080850088DT67590675900000013300800102800000010180010287287283062900011608667030220230000000019906223000000000692280515177XXXXXX5653                         NY 4607AMPLCVH8UD0302  N840000000000199          81DNCBD8666317293            145763    MC84000000000199 N  549977133133   3EAA113FC4T6A10044F4251  000000000+600450S00130    MPL  12148                     000000000  N                0000000000000.00 0000000.00   0000000.00                             000000000000000                                                                                                                                                   U001424  000000000000 0000000000000.06     01950 00200                  
03231610080850089DT67590675900000013300800102800000010180010224001193062900011608674030220230000000019906223000000000692280428813XXXXXX3745               2111111   NYV4 A7W463062071489360N8400000000001995C4H00    01DNCBD8666317293            961180    VB84000000000199 NP1549977133133   E7CF742C74T9B01036E7BA9  000000000+                S CS 00692                     000000000  N000000000 237   0000000000000.00 0000000.00   0000000.00                             000000000000000                                                                                                                                                     01424 G000000000199 0000000000000.15     02700 01000                  
03231620080850001P16759067590000001330080010280000001010000000000000000                             2000000000000000000000000              000000000000                    0000000000000000000000000                    000000000000                                                                                                                                                                                                                                                                                                                                                                                                                                                                                        
03231630080850090DT67590675900000013300800102800000010180010287287283062900011608683030220230000000019906223000000000692280556150XXXXXX0558                         NY 4607AMCFQ96JT80302  N840000000000199          81DNCBD8666317293            2HZ0BZ    MB84000000000199 NP1549977133133   D6909DFF64TC8BE30865833  000000000+600450S00130    MCF  00060                     000000000  N                0000000000000.00 0000000.00   0000000.00                             000000000000000                                                                                                                                                     01424  000000000000 0000000000000.16     02950 01000                  
03231640080850001P1675906759000000133008001028000000101                                                          000000000000          8000            871584967                                                                                                                                                                                                                                                                                                                                                                                                                                                                                                                                                            
03231650080850091DT67590675900000013300800102800000010180010224001193062900011608708030220230000000019906223000000000692280441112XXXXXX0885               2111111   NYV4 A7W463062073919732N840000000000199HSZQ00    01DNCBD8666317293            2GD4V2    VD84000000000199 NP1549977133133   BABAB4B9E1TA314D7D13136  000000000+                S PS 10179                     000000000  N000000000 364   0000000000000.00 0000000.00   0000000.00                             000000000000000                                                                                                                                                     01424 G000000000199 0000000000000.15     02650 01000                  
03231660080850001P16759067590000001330080010280000001010000000000000000                             2000000000000000000000000              000000000000                    0000000000000000000000000                    000000000000                                                                                                                                                                                                                                                                                                                                                                                                                                                                                        
03231670080850092DT67590675900000013300800102800000010180010224001193062900011608716030220230000000019906223000000000692280412076XXXXXX9391               2111111   NYV4 A7W463062074446382N8400000000001996BN400    01DNCBD8666317293            285859    VS84000000000199 NP1549977133133   137289A86FTC2C1A2FB9E48  000000000+                A CA 12106                     000000000  N000000000 492   0000000000000.00 0000000.00   0000000.00                             000000000000000                                                                                                                                                     01424 G000000000199 0000000000000.14     01890 01000                  
03231680080850001P16759067590000001330080010280000001010000000000000000                             2000000000000000000000000              000000000000                    0000000000000000000000000                    000000000000                                                                                                                                                                                                                                                                                                                                                                                                                                                                                        
