02327880048950002BH6759067590000000288180088880000090170202202303323000000000048012    0000090001350012N8008886759C02032023                                                                                                                                                                                                                                                                                                                                                                                                                                                                                                                                                                                                 
02327890048950003DT67590675900000002881800888800000010180088824001193033900013500016020220230000000375103323000000000048012419090XXXXXX4109       VS11    0001111   NYV1 A E583033561585328N840000000003751KB2W00    05DNHAPPY HIPPIE             237046    VD84000000003751 N  549976487134                            000000000+                F DF 00381                     000000000  N000000000       0000000000000.00 0000000.00   0000000.00                             000000000000000                                                                                                                                                     01418 A000000000000 0000000000000.45     00800 01500                  
02327900048950004DT67590675900000002881800888800000010180088824001193033900013500024020220230000000295003323000000000048012415978XXXXXX6979       VS11    0001111   NYV1 A E303033564568096N840000000002950L8XN00    05DNHAPPY HIPPIE             069717    VD84000000002950 N  549976487134                            000000000+                F DF 10433                     000000000  Y000000000 338   0000000000000.00 0000000.00   0000000.00                             000000000000000                                                                                                                                                     01418 A000000000000 0000000000000.23     00050 02200                  
02327910048950005DT67590675900000002881800888800000010180088824001193033900013500032020220230000000888803323000000000048012419090XXXXXX0433       VS11    0001111   NYV1 A E383033600364723N840000000008888GCVR00    05DNHAPPY HIPPIE             239063    VD84000000008888 N  549976487134                            000000000+                F DF 00381                     000000000  N000000000       0000000000000.00 0000000.00   0000000.00                             000000000000000                                                                                                                                                     01418 A000000000000 0000000000000.86     00800 01500                  
02327920048950006DT67590675900000002881800888800000010180088877287283033900013500042020220230000000355503323000000000048012514616XXXXXX1988       MS02WI09          NY 1 0 AMDJDB4HYW0202  N840000000003555          05DNHAPPY HIPPIE             99159F    MD84000000003555 N  549976487134                            000000000+M10101C5434C    MDJ  00402                     000000000  N                0000000000000.00 0000000.00   0000000.00                             000000000000000                                                                                                                                                   B101418  000000000000 0000000000000.52     01050 01500                  
02327930048950007DT67590675900000002881800888800000010180088824001193033900013500057020220230000001480003323000000000048012414709XXXXXX7367       VS11    0001111   NYV1 A E303033634526449N840000000014800NBCP00    05DNHAPPY HIPPIE             01992D    VS84000000014800 N  549976487134                            000000000+                D CD 12113                     000000000  N000000000 499   0000000000000.00 0000000.00   0000000.00                             000000000000000                                                                                                                                                     01418 A000000000000 0000000000003.21     02100 01000                  
02327940048950008DT67590675900000002881800888800000010180088824001193033900013500065020220230000000296103323000000000048012427088XXXXXX5824       VS11    0001111   NYV1 A E463033649442446N840000000002961X9HK00    05DNHAPPY HIPPIE             030222    VD84000000002961 N  549976487134                            000000000+                F DF 10433                     000000000  Y000000000 338   0000000000000.00 0000000.00   0000000.00                             000000000000000                                                                                                                                                     01418 A000000000000 0000000000000.23     00050 02200                  
02327950048950009DT67590675900000002881800888800000010180088824001193033900013500073020220230000000032803323000000000048012480639XXXXXX5281       VK04VS111111111   NYV1 A E583033661985734N840000000000328GL7C00    05DNHAPPY HIPPIE             882080    VD84000000000328 N  549976487134                            000000000+                F DF 00451                     000000000  N000000000 214   0000000000000.00 0000000.00   0000000.00                             000000000000000                                                                                                                                                     01418 F000000000000 0000000000000.09     01550 00400                  
02327960048950010DT67590675900000002881800888800000010180088824001193033900013500081020220230000000246803323000000000048012422921XXXXXX7005       VS11    0001111   NYV1 A E583033665696401N840000000002468JXSS00    05DNHAPPY HIPPIE             048570    VD84000000002468 N  549976487134                            000000000+                F DF 00381                     000000000  N000000000       0000000000000.00 0000000.00   0000000.00                             000000000000000                                                                                                                                                     01418 A000000000000 0000000000000.35     00800 01500                  
02327970048950011DT67590675900000002881800888800000010180088824001193033900013500099020220230000000296203323000000000048012498503XXXXXX6779       VS11    0001111   NYV1 A E383033680422220N840000000002962MTBX00    05DNHAPPY HIPPIE             032862    VD84000000002962 N  549976487134                            000000000+                F DF 00381                     000000000  N000000000       0000000000000.00 0000000.00   0000000.00                             000000000000000                                                                                                                                                     01418 A000000000000 0000000000000.39     00800 01500                  
02327980048950012DT67590675900000002881800888800000010180088824001193033900013500107020220230000000079003323000000000048012421783XXXXXX4327       VK04VS111111111   NYV1 A E583033697754935N8400000000007908NMZ00    05DNHAPPY HIPPIE             061479    VS84000000000790 N  549976487134                            000000000+                A CA 12053                     000000000  N000000000 450   0000000000000.00 0000000.00   0000000.00                             000000000000000                                                                                                                                                     01418 F000000000000 0000000000000.15     01900 00000                  
02327990048950013DT67590675900000002881800888800000010180088824001193033900013500115020220230000000130103323000000000048012441776XXXXXX7549       VK04VS111111111   NYV1 A E303033803299806N840000000001301KWP600    07DNHAPPY HIPPIE             251450    VD84000000001301 N  549976487134                            000000000+                F DF 00451                     000000000  N000000000 214   0000000000000.00 0000000.00   0000000.00                             000000000000000                                                                                                                                                     01418 F000000000000 0000000000000.24     01550 00400                  
02328000048950014DT67590675900000002881800888800000010180088876509753033900013500121020220230000000325803323000000000048012601100XXXXXX4701   BA50                  NY41 0 N743028274587795N840000000003258    00    05DNHAPPY HIPPIE             00266R    DS84000000003258 N  549976487134050                         000000000+0000004910H00   DCCDI01000001007  152418000000 000000000  0          112   0000000000000.00 0000000.00   0000000.00                             000000000000000                                                                                                                                                     01418  000000000000 0000000000000.66     01720 01000                  
02328010048950015BH6759067590000000288180088880000090170202202303323000000000116001    0000090001350024N8008886759C02032023                                                                                                                                                                                                                                                                                                                                                                                                                                                                                                                                                                                                 
02328020048950016DT67590675900000002881800888800000010180088824001193033900013500016020220230000000348803323000000000116001419090XXXXXX0011       VS11    0001111   NYV1 A E583033542061920N8400000000034887XWT00    05DNHAPPY HIPPIE             236046    VD84000000003488 N  549976487158                            000000000+                F DF 00381                     000000000  N000000000       0000000000000.00 0000000.00   0000000.00                             000000000000000                                                                                                                                                     01418 A000000000000 0000000000000.43     00800 01500                  
02328030048950017DT67590675900000002881800888800000010180088824001193033900013500024020220230000000856503323000000000116001419090XXXXXX3017       VS11    0001111   NYV1 A E583033544112992N84000000000856555P400    05DNHAPPY HIPPIE             236155    VD84000000008565 N  549976487158                            000000000+                F DF 00381                     000000000  N000000000       0000000000000.00 0000000.00   0000000.00                             000000000000000                                                                                                                                                     01418 A000000000000 0000000000000.84     00800 01500                  
02328040048950018DT67590675900000002881800888800000010180088877287283033900013500034020220230000001185003323000000000116001510805XXXXXX7683       MS02WI09          NY 2 0 AMDJA573YW0202  N840000000011850          05DNHAPPY HIPPIE             091636    MD84000000011850 N  549976487158                            000000000+M10101C1334C    MDJ  10815                     000000000  1                0000000000000.00 0000000.00   0000000.00                             000000000000000                                                                                                                                                   B101418  000000000000 0000000000000.28     00050 02200                  
02328050048950019DT67590675900000002881800888800000010180088877287283033900013500042020220230000000537203323000000000116001510805XXXXXX5485       MS02WI09          NY 2 0 AMDJNWWVYV0202  N840000000005372          05DNHAPPY HIPPIE             095339    MD84000000005372 N  549976487158                            000000000+M10101C1334C    MDJ  10815                     000000000  1                0000000000000.00 0000000.00   0000000.00                             000000000000000                                                                                                                                                   B101418  000000000000 0000000000000.25     00050 02200                  
02328060048950020DT67590675900000002881800888800000010180088877287283033900013500059020220230000000607803323000000000116001533248XXXXXX4906       MS02WI09          NY 2 0 AMPVUZDYYV0202  N840000000006078          05DNHAPPY HIPPIE             HZEBP5    MD84000000006078 N  549976487158                            000000000+M10101C1334C    MPV  11964                     000000000  N                0000000000000.00 0000000.00   0000000.00                             000000000000000                                                                                                                                                     01418  000000000000 0000000000000.85     01150 01500                  
02328070048950021DT67590675900000002881800888800000010180088824001193033900013500065020220230000000878003323000000000116001480639XXXXXX8686       VS11    0001111   NYV1 A E303033582713928N840000000008780BDGM00    05DNHAPPY HIPPIE             878193    VD84000000008780 N  549976487158                            000000000+                F DF 00381                     000000000  N000000000       0000000000000.00 0000000.00   0000000.00                             000000000000000                                                                                                                                                     01418 A000000000000 0000000000000.85     00800 01500                  
02328080048950022DT67590675900000002881800888800000010180088824001193033900013500073020220230000000246803323000000000116001487917XXXXXX3512       VS11    0001111   NYV1 A E303033590891720N840000000002468T4VG00    05DNHAPPY HIPPIE             971090    VD84000000002468 N  549976487158                            000000000+                F DF 00381                     000000000  N000000000       0000000000000.00 0000000.00   0000000.00                             000000000000000                                                                                                                                                     01418 A000000000000 0000000000000.35     00800 01500                  
02328090048950023DT67590675900000002881800888800000010180088877287283033900013500083020220230000000592503323000000000116001530706XXXXXX8493       MS02WI09          NY 2 0 AMPAF73DY60202  N840000000005925          05DNHAPPY HIPPIE             406178    MD84000000005925 N  549976487158                            000000000+M10101C1334C    MPA  11964                     000000000  N                0000000000000.00 0000000.00   0000000.00                             000000000000000                                                                                                                                                     01418  000000000000 0000000000000.83     01150 01500                  
02328100048950024DT67590675900000002881800888800000010180088824001193033900013500099020220230000000548503323000000000116001415978XXXXXX9354       VS11    0001111   NYV1 A E583033636829830N8400000000054858LZX00    05DNHAPPY HIPPIE             013178    VD84000000005485 N  549976487158                            000000000+                F DF 10433                     000000000  Y000000000 338   0000000000000.00 0000000.00   0000000.00                             000000000000000                                                                                                                                                     01418 A000000000000 0000000000000.25     00050 02200                  
02328110048950025DT67590675900000002881800888800000010180088876509753033900013500105020220230000000069003323000000000116001601100XXXXXX9010   BA50                  NY41 0 N803028110796240N840000000000690    00    05DNHAPPY HIPPIE             00205R    DS84000000000690 N  549976487158050                         000000000+0000004910H00   DCCDI00996500013  105119000000 000000000  0          108   0000000000000.00 0000000.00   0000000.00                             000000000000000                                                                                                                                                     01418  000000000000 0000000000000.13     01950 00000                  
02328120048950026DT67590675900000002881800888800000010180088877287283033900013500117020220230000000276603323000000000116001511953XXXXXX9431       MS02WI09          NY 1 0 AMDJSZ3H3Y0202  N840000000002766          05DNHAPPY HIPPIE             089662    MD84000000002766 N  549976487158                            000000000+M10101C5434C    MDJ  00402                     000000000  N                0000000000000.00 0000000.00   0000000.00                             000000000000000                                                                                                                                                   B101418  000000000000 0000000000000.44     01050 01500                  
02328130048950027DT67590675900000002881800888800000010180088824001193033900013500123020220230000000696803323000000000116001400022XXXXXX0750       VS11    0001111   NYV1 A E383033677648437N840000000006968SK3C00    05DNHAPPY HIPPIE             423273    VD84000000006968 N  549976487158                            000000000+                F DF 10433                     000000000  Y000000000 338   0000000000000.00 0000000.00   0000000.00                             000000000000000                                                                                                                                                     01418 A000000000000 0000000000000.25     00050 02200                  
02328140048950028DT67590675900000002881800888800000010180088824001193033900013500131020220230000000266603323000000000116001480639XXXXXX2209       VS11    0001111   NYV1 A E303033678624230N840000000002666CRD200    05DNHAPPY HIPPIE             882834    VD84000000002666 N  549976487158                            000000000+                F DF 00381                     000000000  N000000000       0000000000000.00 0000000.00   0000000.00                             000000000000000                                                                                                                                                     01418 A000000000000 0000000000000.36     00800 01500                  
02328150048950029DT67590675900000002881800888800000010180088824001193033900013500149020220230000000622103323000000000116001443238XXXXXX5656       VS11    0001111   NYV1 A E303033680712820N840000000006221XW2G00    05DNHAPPY HIPPIE             035431    VD84000000006221 N  549976487158                            000000000+                F DF 00381                     000000000  N000000000       0000000000000.00 0000000.00   0000000.00                             000000000000000                                                                                                                                                     01418 A000000000000 0000000000000.65     00800 01500                  
02328160048950030DT67590675900000002881800888800000010180088824001193033900013500156020220230000000395003323000000000116001459954XXXXXX4624       VS11    0001111   NYV1 A E383033709312650N8400000000039503LRW00    05DNHAPPY HIPPIE             H38238    VD84000000003950 N  549976487158                            000000000+                F DF 10433                     000000000  Y000000000 338   0000000000000.00 0000000.00   0000000.00                             000000000000000                                                                                                                                                     01418 A000000000000 0000000000000.24     00050 02200                  
02328170048950031DT67590675900000002881800888800000010180088824001193033900013500164020220230000000658403323000000000116001427088XXXXXX0448       VS11    0001111   NYV1 A E383033713950535N840000000006584ZZVH00    05DNHAPPY HIPPIE             044954    VD84000000006584 N  549976487158                            000000000+                F DF 10433                     000000000  Y000000000 338   0000000000000.00 0000000.00   0000000.00                             000000000000000                                                                                                                                                     01418 A000000000000 0000000000000.25     00050 02200                  
02328180048950032DT67590675900000002881800888800000010180088824001193033900013500172020220230000000107303323000000000116001423223XXXXXX7930       VK04VS111111111   NYV1 A E463033714998745N840000000001073SG6G00    05DNHAPPY HIPPIE             055220    VD84000000001073 N  549976487158                            000000000+                F DF 00451                     000000000  N000000000 214   0000000000000.00 0000000.00   0000000.00                             000000000000000                                                                                                                                                     01418 F000000000000 0000000000000.21     01550 00400                  
02328190048950033DT67590675900000002881800888800000010180088877287283033900013500182020220230000000987603323000000000116001521853XXXXXX7027       MS02WI09          NY 1 0 AMCWGJ4C2H0202  N840000000009876          05DNHAPPY HIPPIE             00293T    MC84000000009876 N  549976487158                            000000000+M10101C5434C    MCW  02188                     000000000  N                0000000000000.00 0000000.00   0000000.00                             000000000000000                                                                                                                                                   B101418  000000000000 0000000000002.31     02300 00400                  
02328200048950034DT67590675900000002881800888800000010180088824001193033900013500198020220230000000158003323000000000116001422921XXXXXX6793       VS11    0001111   NYV1 A E463033741460489N840000000001580VR3J00    05DNHAPPY HIPPIE             056147    VD84000000001580 N  549976487158                            000000000+                F DF 00381                     000000000  N000000000       0000000000000.00 0000000.00   0000000.00                             000000000000000                                                                                                                                                     01418 A000000000000 0000000000000.28     00800 01500                  
02328210048950035DT67590675900000002881800888800000010180088877287283033900013500208020220230000000150803323000000000116001515676XXXXXX8054       MS02WI09          NY 1 0 AMWEWDIM3Y0202  N840000000001508          05DNHAPPY HIPPIE             01734Z    MC84000000001508 N  549976487158                            000000000+M10101C5434C    MWE  00743                     000000000  N                0000000000000.00 0000000.00   0000000.00                             000000000000000                                                                                                                                                   B101418  000000000000 0000000000000.39     02300 00400                  
02328220048950036DT67590675900000002881800888800000010180088877287283033900013500216020220230000000296203323000000000116001525363XXXXXX3963       MS02WI09          NY 1 0 AMWEHZ7Q2H0202  N840000000002962          05DNHAPPY HIPPIE             28858Z    MC84000000002962 N  549976487158                            000000000+M10101C0034C    MWE  00743                     000000000  N                0000000000000.00 0000000.00   0000000.00                             000000000000000                                                                                                                                                   B101418  000000000000 0000000000000.72     02300 00400                  
02328230048950037DT67590675900000002881800888800000010180088824001193033900013500222020220230000000197603323000000000116001419090XXXXXX8251       VS11    0001111   NYV1 A E303033781565619N8400000000019763SSC00    05DNHAPPY HIPPIE             250030    VD84000000001976 N  549976487158                            000000000+                F DF 00381                     000000000  N000000000       0000000000000.00 0000000.00   0000000.00                             000000000000000                                                                                                                                                     01418 A000000000000 0000000000000.31     00800 01500                  
02328240048950038DT67590675900000002881800888800000010180088824001193033900013500230020220230000000325703323000000000116001422921XXXXXX2148       VS11    0001111   NYV1 A E463033797414379N840000000003257N48T00    05DNHAPPY HIPPIE             061743    VD84000000003257 N  549976487158                            000000000+                F DF 00381                     000000000  N000000000       0000000000000.00 0000000.00   0000000.00                             000000000000000                                                                                                                                                     01418 A000000000000 0000000000000.41     00800 01500                  
02328250048950039DT67590675900000002881800888800000010180088824001193033900013500248020220230000000591303323000000000116001480639XXXXXX9303       VS11    0001111   NYV1 A E383033812365944N840000000005913HMGM00    05DNHAPPY HIPPIE             889173    VD84000000005913 N  549976487158                            000000000+                F DF 00381                     000000000  N000000000       0000000000000.00 0000000.00   0000000.00                             000000000000000                                                                                                                                                     01418 A000000000000 0000000000000.62     00800 01500                  
02328260048950040BH6759067590000000215480088880000090170202202303323000000000187256    0000090001982299N8008886759C02032023                                                                                                                                                                                                                                                                                                                                                                                                                                                                                                                                                                                                 
02328270048950041DT67590675900000002154800888800000010180088824001193033900019806904020220230000004730003323000000000187256413575XXXXXX5133       PS01EF100000000   NYV4 07N383033638904461N840000000047300VPZQ00    01DNDRIP DROP DISTRO LLC     104141    VD84000000047300 NP1519971004114   INV-28013                000000000+                G DG 10354                     000000000  Y000000010 338   0000000000000.00 0000000.00   0000000.00                             000000000000000                                                                                                                                                     01418  000000000000 0000000000000.46     00050 02200                  
02328280048950001P16759067590000000215480088880000001010000000000000000    43915250118              2000000000000000000000000              000000000000                    0000000000000000000000000                    000000000000                                                                                                                                                                                                                                                                                                                                                                                                                                                                                        
02328290048950042DT67590675900000002154800888800000010180088887287283033900019803829020220230000012690603323000000000187256551110XXXXXX3026       ME03KE06MS02      NY 4607AMDJELJ6YW0202  N840000000126906          81DNDRIP DROP DISTRO LLC     426592    MD84000000126906 N  519900000001   17395                    000000000+600450S00140    MDJ  00401                     000000000  N                0000000000000.00 0000000.00   0000000.00                             000000000000000                                                                                                                                                   U001418  000000000000 0000000000021.09     01650 01500                  
02328300048950043DT67590675900000002154800888800000010180088824001193033900019822992020220230000001305003323000000000187256474165XXXXXX1864               2111111   NYV4 A7W303033791951893N840000000013050NGPF00    01DNDRIP DROP DISTRO LLC     039079    VD84000000013050 NP1519971004114   INV-000505               000000000+                G DG 10352                     000000000  Y000000000 338   0000000000000.00 0000000.00   0000000.00                             000000000000000                                                                                                                                                     01418 G000000013050 0000000000000.29     00050 02200                  
02328310048950001P16759067590000000215480088880000001010000000000000000    43915965474              2000000000000000000000000              000000000000                    0000000000000000000000000                    000000000000                                                                                                                                                                                                                                                                                                                                                                                                                                                                                        
02328320048950044BH6759067590000000096880088880000090170202202303323000000000011183    0000090001351990N8008886759C02032023                                                                                                                                                                                                                                                                                                                                                                                                                                                                                                                                                                                                 
02328330048950045DT67590675900000000968800888800000010180088824001193033900013519909020220230000001118303323000000000011183414740XXXXXX4707               2111111   NYV4 A7W303033041590198N840000000011183KF9L00    01DNHIGHER FLOUR LLC         07579A    VS84000000011183 NP1546271004114   RX6IYV0A099VOUU4HBFE     000000000+                A CA 12106                     000000000  N000000000 492   0000000000000.00 0000000.00   0000000.00                             000000000000000                                                                                                                                                     01418 G000000011183 0000000000002.21     01890 01000                  
02328340048950001P16759067590000000096880088880000001010000000000000000                             2000000000000000000000000              000000000000                    0000000000000000000000000                    000000000000                                                                                                                                                                                                                                                                                                                                                                                                                                                                                        
02328350048950046BH6759067590000000589280088880000090170202202303323000000000002598    0000090001010172N8008886759C02032023                                                                                                                                                                                                                                                                                                                                                                                                                                                                                                                                                                                                 
02328360048950047DT67590675900000005892800888800000010180088873011003033900010101723020220230000000259803323000000000002598376742XXXXX1001                          NY 4 07N006876240025061N840000000002598          01DNPLANET VAPOR INC         208955    AM84000000002598 N  599971004114                            000000000+6004S0S00140 258     11261                     000000000                   0000000000000.00 0000000.00   0000000.00                             000000000000000 61248972086759675900000005892 PLANET VAPOR INC         1328 OLD DAIRY DR        8035462263      29201     KEVIN@MOOREDISTRO.COM                     01418  000000000000 0000000000000.52     01600 00000                  
