00003970053850002BH6759067590000000288180088880000090170202202303323000000000023997    0000090001510108Y8008886759C02032023                                                                                                                                                                                                                                                                                                                                                                                                                                                                                                                                                                                                 
00003980053850003DT67590675900000002881800888800000010180088824001193033900015101086020220230000002399703323000000000023997431503XXXXXX7871               2111111   NYV4 A7W303033861202418N8400000000239977X7H00    01DNHAPPY HIPPIE             05626C    VS84000000023997 NP1549976044904   1925                     000000000+                C CC 12108                     000000000  N000000000 496   0000000000000.00 0000000.00   0000000.00                             000000000000000                                                                                                                                                     01424 G000000023997 0000000000005.02     02050 01000                  
00003990053850001P16759067590000000288180088880000001010000000000000000                             2000000000000000000000000              000000000000                    0000000000000000000000000                    000000000000                                                                                                                                                                                                                                                                                                                                                                                                                                                                                        
00004000053850004BH6759067590000000051380000180000090170202202303323000000000000202    0000090001500001Y8000016759C02032023                                                                                                                                                                                                                                                                                                                                                                                                                                                                                                                                                                                                 
00004010053850005DT67590675900000000513800001800000010180000124001193033900015000015020220230000000020203323000000000000202474489XXXXXX3159       VK04VS111111111   NYV1 A E303033719195059N840000000000202L57400    05DNVERMONT STATE BANK2      105180    VD84000000000202 N  549975705321                            000000000+                F DF 10439                     000000000  Y000000000 331   0000000000000.00 0000000.00   0000000.00                             000000000000000                                                                                                                                                     01424 F000000000000 0000000000000.22     00050 02200                  
