00002210478470002BH6759067590000000288180088880000090171121202232522000000000001111    0000090001010001Y8008886759C11222022                                                                                                                                                                                                                                                                                                                                                                                                                                                                                                                                                                                                 
00002220478470003DT67590675900000002881800888800000010180088873011002325900010100021112120220000000016432522000000000001111372726XXXXX6007                          NY 4 07N003410842641308N840000000000164          01DNHAPPY HIPPIE             167993    AM84000000000164 Y  549976044904                            000000000+6004S0000130 258     11261                     000000000                   0000000000000.00 0000000.00   0000000.00                             000000000000000 61248972086759675900000002881 HAPPY HIPPIE             832 PARKWAY              8656540830      37862     HAPPYHIPPIE832@GMAIL.COM                  01324  000000000000 0000000000000.13     01600 00000                  
00002230478470004DT67590675900000002881800888800000010680088873011002325900010100047112120220000000016432522000000000001111372726XXXXX6007                          NY94 07N000000000000000N840000000000000          01CNHAPPY HIPPIE                       AM84000000000164 Y  549976044904                            000000000+6004S0000130 258     11314                     000000000                   0000000000000.00 0000000.00   0000000.00                             000000000000000 61248972086759675900000002881 HAPPY HIPPIE             832 PARKWAY              8656540830      37862     HAPPYHIPPIE832@GMAIL.COM                  01324  000000000000 0000000000000.00     00000 00000                  
00002240478470005DT67590675900000002881800888800000010180088873011002325900010100013112120220000000111132522000000000001111373967XXXXX1009                          NY 4 07N003210244303329N840000000001111          01DNHAPPY HIPPIE             215646    AM84000000001111 Y  549976044904                            000000000+6004S0S00130 258     11261                     000000000                   0000000000000.00 0000000.00   0000000.00                             000000000000000 61248972086759675900000002881 HAPPY HIPPIE             832 PARKWAY              8656540830      37862     HAPPYHIPPIE832@GMAIL.COM                  01324  000000000000 0000000000000.28     01600 00000                  
