07029810628254146AD675906759000000198288001098000009077900011621840000000259505242023NYY14423YC6759800109052620232023116004838                                                                                                                                                                                                                                                                                                                                                                                                                                                                                                                                                                                              
07029820628254152AD675906759000000198288001098000009077900011621850000000198805242023NYY14423YC6759800109052620232023116004845                                                                                                                                                                                                                                                                                                                                                                                                                                                                                                                                                                                              
07029830628254158AD675906759000000151648008888000009077900010901920000001578505242023NYY14423YC6759800888052620232023116004851                                                                                                                                                                                                                                                                                                                                                                                                                                                                                                                                                                                              
07029840628254164AD675906759000000198288001098000009077900011827980000000198805242023NYY14423YC6759800109052620232023116004853                                                                                                                                                                                                                                                                                                                                                                                                                                                                                                                                                                                              
07029850628254170AD675906759000000198288001098000009077900011827970000001987005242023NYY14423YC6759800109052620232023116004856                                                                                                                                                                                                                                                                                                                                                                                                                                                                                                                                                                                              
07029860628254176AD675906759000000151648008888000009077900013098950000001987005242023NYY14423YC6759800888052620232023116004862                                                                                                                                                                                                                                                                                                                                                                                                                                                                                                                                                                                              
07029870628254182AD675906759000000198288001098000009077900012445710000002255005242023NYY14423YC6759800109052620232023130005051                                                                                                                                                                                                                                                                                                                                                                                                                                                                                                                                                                                              
07029880628254185AD675906759000000142748001028000009071900019320170000002106205242023NYY14423ND6759800102052620232023144025770                                                                                                                                                                                                                                                                                                                                                                                                                                                                                                                                                                                              
07029890628254188AD675906759000000268498001258000009071900012986100000001577005242023NYY14423ND6759800125052620232023144020390                                                                                                                                                                                                                                                                                                                                                                                                                                                                                                                                                                                              
07029900628254191AD675906759000000151648008888000009071900013446030000001987005242023NYY14423ND6759800888052620232023144020391                                                                                                                                                                                                                                                                                                                                                                                                                                                                                                                                                                                              
07029910628254194AD675906759000000268498001258000009071900012761430000001977005242023NYY14423ND6759800125052620232023144020392                                                                                                                                                                                                                                                                                                                                                                                                                                                                                                                                                                                              
07029920628254197AD675906759000000176738001068000009071900010904170000002178905242023NYY14423ND6759800106052620232023144020393                                                                                                                                                                                                                                                                                                                                                                                                                                                                                                                                                                                              
07029930628254200AD675906759000000268498001258000009071900012879150000001977005242023NYY14423ND6759800125052620232023144020394                                                                                                                                                                                                                                                                                                                                                                                                                                                                                                                                                                                              
07029940628254203AD675906759000000268498001258000009071900012879160000000979805242023NYY14423ND6759800125052620232023144020395                                                                                                                                                                                                                                                                                                                                                                                                                                                                                                                                                                                              
07029950628254206AD675906759000000198288001098000009077900011932330000000327405242023NYY14423YC6759800109052620232023144020421                                                                                                                                                                                                                                                                                                                                                                                                                                                                                                                                                                                              
07029960628254209AD675906759000000198288001098000009077900011932300000001987005242023NYY14423YC6759800109052620232023144020422                                                                                                                                                                                                                                                                                                                                                                                                                                                                                                                                                                                              
07029970628254212AD675906759000000268498001258000009071900012657370000002245005242023NYY14423ND6759800125052620232023144020396                                                                                                                                                                                                                                                                                                                                                                                                                                                                                                                                                                                              
07029980628254215AD675906759000000268498001258000009071900012039940000002245005242023NYY14423ND6759800125052620232023144020420                                                                                                                                                                                                                                                                                                                                                                                                                                                                                                                                                                                              
07029990628254218AD675906759000000198288001098000009077900012033370000001987005242023NYY14423YC6759800109052620232023144020426                                                                                                                                                                                                                                                                                                                                                                                                                                                                                                                                                                                              
07030000628631195AD675906759000000151648008888000009071231220030020000000519005242023NYY14423ND6759800888052620232023122003002                                                                                                                                                                                                                                                                                                                                                                                                                                                                                                                                                                                              
07030010628631198AD675906759000000151648008888000009071231220030030000001194805242023NYY14423ND6759800888052620232023122003003                                                                                                                                                                                                                                                                                                                                                                                                                                                                                                                                                                                              
07030020628631201AD675906759000000151648008888000009071231220030770000001987005242023NYY14423ND6759800888052620232023122003077                                                                                                                                                                                                                                                                                                                                                                                                                                                                                                                                                                                              
07030030628631204AD675906759000000151648008888000009071231230022740000002255005242023NYY14423ND6759800888052620232023123002274                                                                                                                                                                                                                                                                                                                                                                                                                                                                                                                                                                                              
07030040628631207AD675906759000000151648008888000009071231230022750000000519005242023NYY14423ND6759800888052620232023123002275                                                                                                                                                                                                                                                                                                                                                                                                                                                                                                                                                                                              
07030050628631210AD675906759000000151648008888000009071231430495730000001987005242023NYY14423ND6759800888052620232023143049573                                                                                                                                                                                                                                                                                                                                                                                                                                                                                                                                                                                              
07030060630940002BH6759067590000000288180088880000090170525202314523000000000048912    0000090001230013N8008886759C05262023123                                                                                                                                                                                                                                                                                                                                                                                                                                                                                                                                                                                              
07030070630940003DT67590675900000002881800888800000010180088877287283145900012300019052520230000000011814523000000000048912517805XXXXXX6100                         NY 1 0 AMPLFZWBJN0525  N840000000000118          05DNHAPPY HIPPIE             01480B    MC84000000000118 N  549976487134                            000000000+M10101C5434C    MPL  12144                     000000000  N                0000000000000.00 0000000.00   0000000.00                             000000000000000                                                                                                                                                   B101418  000000000000 0000000000000.04     01800 00200                  
07030080630940001E167590675900000002881800888800000010100E0F8C80117 00000000000.00404040404040404040404040404040404040404040404040400110A04001220000000000000000000000FF00000000000000000000000000  00030840390000000080002305253B396C24F56D1435752583E8404040400840A00000000410100000000000000000002CC599B0D262878300120000000000004040401E40404040 000000001.18 000000000.001E03000000000000000000    80                                                                                                                                                                                                                                                                                                                  
07030090630940002G2675906759000000028818008888000000101SEVIERVILLE              TN           5 L                                                        NNNN              000000000000000000000000                        7                                          76487134                                                                                                                                                                                                                                                                                                                                                                                                                                               
07030100630940004DT67590675900000002881800888800000010180088824001193145900012300025052520230000000274314523000000000048912422921XXXXXX5133       VS11    0001111   NYV1 A E303145518098706N840000000002743C6TR00    05DNHAPPY HIPPIE             037410    VD84000000002743 N  549976487134                            000000000+                F DF 00381                     000000000  N000000000       0000000000000.00 0000000.00   0000000.00                             000000000000000                                                                                                                                                     01418 A000000000000 0000000000000.37     00800 01500                  
07030110630940001E167590675900000002881800888800000010100E0F8C80085 00000000000.004040404040404040404040404040404040404040404040404006011203A08000000000000000000000404040404040404040404040404040  000008401800808000800023052587DFA78B8404E05B194CD70B404040400840A0000000031010000000000000000000DC9938730382000000000000000000004040401E40404040 000000027.43 000000000.001E00000000000000000000    80                                                                                                                                                                                                                                                                                                                  
07030120630940002G2675906759000000028818008888000000101SEVIERVILLE              TN           5 D                00                                      NNNN00 N 00                   000000000000                                                                   76487134                                                                                                                                                                                                                                                                                                                                                                                                                                               
07030130630940005DT67590675900000002881800888800000010180088824001193145900012300033052520230000000547514523000000000048912415978XXXXXX3184       VS11    0001111   NYV1 A E303145521643752N840000000005475S47C00    05DNHAPPY HIPPIE             024573    VD84000000005475 N  549976487134                            000000000+                F DF 10433                     000000000  Y000000000 338   0000000000000.00 0000000.00   0000000.00                             000000000000000                                                                                                                                                     01418 A000000000000 0000000000000.25     00050 02200                  
07030140630940001E167590675900000002881800888800000010100E0F8C80160 00000000000.004040404040404040404040404040404040404040404040404006011203A0A000000000000000000000404040404040404040404040404040  00000840180080800080002305251D0429F246EAA7F0625C6D4E404040400840A000000003101000000000000000000028A19266589E0D3F30300000000000004040401E40404040 000000054.75 000000000.001E00000000000000000000    80                                                                                                                                                                                                                                                                                                                  
07030150630940002G2675906759000000028818008888000000101SEVIERVILLE              TN           5 D                00                                      NNNN00 N 00                   000000000000                                                                   76487134                                                                                                                                                                                                                                                                                                                                                                                                                                               
07030160630940006DT67590675900000002881800888800000010180088824001193145900012300041052520230000000395014523000000000048912415978XXXXXX6755       VS11    0001111   NYV1 A E383145522365748N840000000003950RB4X00    05DNHAPPY HIPPIE             047624    VD84000000003950 N  549976487134                            000000000+                F DF 10433                     000000000  Y000000000 338   0000000000000.00 0000000.00   0000000.00                             000000000000000                                                                                                                                                     01418 A000000000000 0000000000000.24     00050 02200                  
07030170630940001E167590675900000002881800888800000010100E0F8C801D1 00000000000.004040404040404040404040404040404040404040404040404006011203A0A000000000000000000000404040404040404040404040404040  0000084018008080008000230525DCA5E24C13B2C6777F6833E1404040400840A000000003101000000000000000000091DD9694ECA2EF8030300000000000004040401E40404040 000000039.50 000000000.001E00000000000000000000    80                                                                                                                                                                                                                                                                                                                  
07030180630940002G2675906759000000028818008888000000101SEVIERVILLE              TN           5 D                00                                      NNNN00 N 00                   000000000000                                                                   76487134                                                                                                                                                                                                                                                                                                                                                                                                                                               
07030190630940007DT67590675900000002881800888800000010180088824001193145900012300058052520230000000128314523000000000048912443238XXXXXX2229       VK04VS111111111   NYV1 A E383145534075395N8400000000012832NCV00    05DNHAPPY HIPPIE             005007    VD84000000001283 N  549976487134                            000000000+                F DF 00451                     000000000  N000000000 214   0000000000000.00 0000000.00   0000000.00                             000000000000000                                                                                                                                                     01418 F000000000000 0000000000000.24     01550 00400                  
07030200630940001E167590675900000002881800888800000010100E0F8C803E9 00000000000.004040404040404040404040404040404040404040404040404006011203A00000000000000000000000404040404040404040404040404040  0000084018008080008000230525E266D3CBD2B9660329152550404040400840A0000000031010000000000000000000404040404040404040404040404040404040401E40404040 000000012.83 000000000.001E00000000000000000000    80                                                                                                                                                                                                                                                                                                                  
07030210630940002G2675906759000000028818008888000000101SEVIERVILLE              TN           5 D                00                                      NNNN00 N 00                   000000000000                                                                   76487134                                                                                                                                                                                                                                                                                                                                                                                                                                               
07030220630940008DT67590675900000002881800888800000010180088877287283145900012300068052520230000000493714523000000000048912542418XXXXXX8849       MS02WI09          NY 1 0 AMPLRWKJKW0525  N840000000004937          05DNHAPPY HIPPIE             59180B    MC84000000004937 N  549976487134                            000000000+M10101C5434C    MPL  00364                     000000000  N                0000000000000.00 0000000.00   0000000.00                             000000000000000                                                                                                                                                   B101418  000000000000 0000000000000.93     01800 00400                  
07030230630940001E167590675900000002881800888800000010100E0F8C802E2 00000000000.00404040404040404040404040404040404040404040404040400110A04001220000000000000000000000FF00000000000000000000000000  0002084039000000008000230525B40374429E61347AC336F637404040400840A000000004101000000000000000000087C511848013F4B400120000000000004040401E40404040 000000049.37 000000000.001E03000000000000000000    80                                                                                                                                                                                                                                                                                                                  
07030240630940002G2675906759000000028818008888000000101SEVIERVILLE              TN           5 L                                                        NNNN              000000000000000000000000                        7                                          76487134                                                                                                                                                                                                                                                                                                                                                                                                                                               
07030250630940009DT67590675900000002881800888800000010180088824001193145900012300074052520230000000296314523000000000048912454796XXXXXX1405       VS11    0001111   NYV1 A E583145541949311N840000000002963G32P00    07DNHAPPY HIPPIE             847418    VD84000000002963 N  549976487134                            000000000+                F DF 00381                     000000000  N000000000       0000000000000.00 0000000.00   0000000.00                             000000000000000                                                                                                                                                     01418 A000000000000 0000000000000.39     00800 01500                  
07030260630940001E167590675900000002881800888800000010100E068C80005 00000000000.00404040404040404040404040404040404040404040404040401F43FE51200000000000000000033402000000000000000000000000000000  00000840004000000000002305254C6043659D233678ECF6FFCF404040400840A0000000031010000000000000000000404040404040404040404040404040404040404040404040 000000029.63 000000000.004040400000000000000000    80                                                                                                                                                                                                                                                                                                                  
07030270630940002G2675906759000000028818008888000000101SEVIERVILLE              TN           5 D                00                                      NNNN00 N 00                   000000000000                                                                   76487134                                                                                                                                                                                                                                                                                                                                                                                                                                               
07030280630940010DT67590675900000002881800888800000010180088824001193145900012300082052520230000000850014523000000000048912413900XXXXXX4802       VS11    0001111   NYV1 A E383145560284188N840000000008500FTCK00    05DNHAPPY HIPPIE             602779    VD84000000008500 N  549976487134                            000000000+                F DF 00381                     000000000  N000000000       0000000000000.00 0000000.00   0000000.00                             000000000000000                                                                                                                                                     01418 A000000000000 0000000000000.83     00800 01500                  
07030290630940001E167590675900000002881800888800000010100E0F8C800A6 00000000000.004040404040404040404040404040404040404040404040404006011203A0A000000000000000000000404040404040404040404040404040  0000084018008080008000230525805FC1F9976897A318AE0613404040400840A0000000031010000000000000000000404040404040404040404040404040404040401E40404040 000000085.00 000000000.001E00000000000000000000    80                                                                                                                                                                                                                                                                                                                  
07030300630940002G2675906759000000028818008888000000101SEVIERVILLE              TN           5 D                00                                      NNNN00 N 00                   000000000000                                                                   76487134                                                                                                                                                                                                                                                                                                                                                                                                                                               
07030310630940011DT67590675900000002881800888800000010180088877287283145900012300092052520230000000027114523000000000048912515676XXXXXX2713                         NY 1 0 AMWEHKHAJN0525  N840000000000271          05DNHAPPY HIPPIE             03102Z    MC84000000000271 N  549976487134                            000000000+M10101C5434C    MWE  12147                     000000000  N                0000000000000.00 0000000.00   0000000.00                             000000000000000                                                                                                                                                   B101418  000000000000 0000000000000.08     02300 00200                  
07030320630940001E167590675900000002881800888800000010100E0F8C8000E 00000000000.00404040404040404040404040404040404040404040404040400110A04001220000000000000000000000FF00000000000000000000000000  0001084039000000008000230525E14522B9BE600799939981CD404040400840A00000000410100000000000000000006205605D09D2B6B000120000000000004040401E40404040 000000002.71 000000000.001E03000000000000000000    80                                                                                                                                                                                                                                                                                                                  
07030330630940002G2675906759000000028818008888000000101SEVIERVILLE              TN           5 E                                                        NNNN              000000000000000000000000                        7                                          76487134                                                                                                                                                                                                                                                                                                                                                                                                                                               
07030340630940012DT67590675900000002881800888800000010180088824001193145900012300108052520230000000660714523000000000048912480639XXXXXX0039       VS11    0001111   NYV1 A E303145603384049N840000000006607DSMX00    05DNHAPPY HIPPIE             588158    VD84000000006607 N  549976487134                            000000000+                F DF 00381                     000000000  N000000000       0000000000000.00 0000000.00   0000000.00                             000000000000000                                                                                                                                                     01418 A000000000000 0000000000000.68     00800 01500                  
07030350630940001E167590675900000002881800888800000010100E0F8C8009E 00000000000.004040404040404040404040404040404040404040404040404006011203A0A000000000000000000000404040404040404040404040404040  0000084018008080008000230525F633F415799FB420FEDB7962404040400840A000000003101000000000000000000028CBBC5C0080000000000000000000004040401E40404040 000000066.07 000000000.001E00000000000000000000    80                                                                                                                                                                                                                                                                                                                  
07030360630940002G2675906759000000028818008888000000101SEVIERVILLE              TN           5 D                00                                      NNNN00 N 00                   000000000000                                                                   76487134                                                                                                                                                                                                                                                                                                                                                                                                                                               
07030370630940013DT67590675900000002881800888800000010180088824001193145900012300116052520230000000558514523000000000048912445101XXXXXX0323       VS11    0001111   NYV1 A E463145650662236N84000000000558523LF00    05DNHAPPY HIPPIE             757894    VD84000000005585 N  549976487134                            000000000+                F DF 10433                     000000000  Y000000000 338   0000000000000.00 0000000.00   0000000.00                             000000000000000                                                                                                                                                     01418 A000000000000 0000000000000.25     00050 02200                  
07030380630940001E167590675900000002881800888800000010100E0F8C80532 00000000000.004040404040404040404040404040404040404040404040404006011203A08000000000000000000000404040404040404040404040404040  000108401800808000800023052520FF84F3CB339470FA6877E9404040400840A00000000310100000000000000000004796A99D0082000000000000000000004040401E40404040 000000055.85 000000000.001E00000000000000000000    80                                                                                                                                                                                                                                                                                                                  
07030390630940002G2675906759000000028818008888000000101SEVIERVILLE              TN           5 D                00                                      NNNN00 N 00                   000000000000                                                                   76487134                                                                                                                                                                                                                                                                                                                                                                                                                                               
07030400630940014DT67590675900000002881800888800000010180088824001193145900012300124052520230000000486414523000000000048912422921XXXXXX7531       VS11    0001111   NYV1 A E583145657448346N840000000004864Z6Q400    05DNHAPPY HIPPIE             051345    VD84000000004864 N  549976487134                            000000000+                F DF 00381                     000000000  N000000000       0000000000000.00 0000000.00   0000000.00                             000000000000000                                                                                                                                                     01418 A000000000000 0000000000000.54     00800 01500                  
07030410630940001E167590675900000002881800888800000010100E0F8C8015B 00000000000.004040404040404040404040404040404040404040404040404006011203A08000000000000000000000404040404040404040404040404040  00000840180080800080002305251A7A58B4D26793F0FAA598D2404040400840A000000003101000000000000000000083D7CDB80382000000000000000000004040401E40404040 000000048.64 000000000.001E00000000000000000000    80                                                                                                                                                                                                                                                                                                                  
07030420630940002G2675906759000000028818008888000000101SEVIERVILLE              TN           5 D                00                                      NNNN00 N 00                   000000000000                                                                   76487134                                                                                                                                                                                                                                                                                                                                                                                                                                               
07030430630940015DT67590675900000002881800888800000010180088877287283145900012300134052520230000000161614523000000000048912534348XXXXXX8260       MS02WI09          NY 1 0 AMPLQXA3U90525  N840000000001616          90DNHAPPY HIPPIE             025117    MC84000000001616 N  549976487134                            000000000+M10101B5434C    MPL  00043                     000000000  N                0000000000000.00 0000000.00   0000000.00                             000000000000000                                                                                                                                                   C101418  000000000000 0000000000000.31     01650 00400                  
07030440630940001G2675906759000000028818008888000000101SEVIERVILLE              TN           5 L                                                        NNNN              000000000000000000000000                        7                                          76487134                                                                                                                                                                                                                                                                                                                                                                                                                                               
07030450630940016BH6759067590000000215480088880000090170525202314523000000001187200    0000090001936478N8008886759C05262023793                                                                                                                                                                                                                                                                                                                                                                                                                                                                                                                                                                                              
07030460630940017DT67590675900000002154800888800000010180088824001193145900019372845052520230000000720014523000000001187200481588XXXXXX4759               2111111   NYV4 A7W303145788033030N840000000007200P5NB00    01DNDRIP DROP DISTRO LLC     145034    VD84000000007200 NDR519971004114   17845                    000000000+                G DG 10352                     000000000  Y000000000 338   0000000000000.00 0000000.00   0000000.00                             000000000000000                                                                                                                                                     01418 G000000007200 0000000000000.26     00050 02200                  
07030470630940017DR67590675900000002154800888800000010117845                    Y000000007200                 P1                                                                                                                                                                                                                                                                                                                                                                                                                                                                                                                                                                                                            
07030480630940001P16759067590000000215480088880000001010000000000000000    44123577314              2000000000000000000000000              000000000000                    0000000000000000000000000                    000000000000                                                                                                                                                                                                                                                                                                                                                                                                                                                                                        
07030490630940002G2675906759000000021548008888000000101800-9833326              ID           9 D                00                                      NNNN   N                      000000000000                                                                   71004114                                                                                                                                                                                                                                                                                                                                                                                                                                               
07030500630940018DT67590675900000002154800888800000010180088824001193145900019357499052520230000120250014523000000001187200438854XXXXXX4637               2111111   NYV4 A7W583145488873017N840000001202500GWBM00    01DNDRIP DROP DISTRO LLC     03419D    VS84000001202500 NDR519971004114   INV-002321               000000000+                D CD 12109                     000000000  N000000000 498   0000000000000.00 0000000.00   0000000.00                             000000000000000                                                                                                                                                     01418 G000001202500 0000000000300.73     02500 01000                  
07030510630940018DR675906759000000021548008888000000101INV-002321               Y000001202500                 P1                                                                                                                                                                                                                                                                                                                                                                                                                                                                                                                                                                                                            
07030520630940001P16759067590000000215480088880000001010000000000000000                             2000000000000000000000000              000000000000                    0000000000000000000000000                    000000000000                                                                                                                                                                                                                                                                                                                                                                                                                                                                                        
07030530630940002G2675906759000000021548008888000000101800-9833326              ID           9 C                00                                      NNNN   Y                      000000000000                                                                   71004114                                                                                                                                                                                                                                                                                                                                                                                                                                               
07030540630940019DT67590675900000002154800888800000010680088873011003145900019364780052520230000002250014523000000001187200372725XXXXX2006                          NY 4 07N007969210602065N840000000022500          01CNDRIP DROP DISTRO LLC     109418    AM84000000022500 N  519971004114                            000000000+6004S0600140 258     11314                     000000000                   0000000000000.00 0000000.00   0000000.00                             000000000000000 61248972736759675900000002154 DRIP DROP DISTRO LLC     1445 W COMMERCE AVE SUITE2087248209      83705     TROY@DRIPDROPDISTRO.COM                   01418  000000000000 0000000000000.00     00000 00000                  
07030550630940001G2675906759000000021548008888000000106BOISE                    ID           9                  00                                      NNNN                          000000000000                                                                   71004114                                                                                                                                                                                                                                                                                                                                                                                                                                               
07030560630940020BH6759067590000000288180088880000090170525202314523000000000070033    0000090001190012N8008886759C05262023019                                                                                                                                                                                                                                                                                                                                                                                                                                                                                                                                                                                              
07030570630940021DT67590675900000002881800888800000010180088824001193145900011900015052520230000000325814523000000000070033443264XXXXXX1793       VS11    0001111   NYV1 A E303145515198509N840000000003258XD5800    07DNHAPPY HIPPIE             007476    VD84000000003258 N  549976487169                            000000000+                F DF 10433                     000000000  Y000000000 338   0000000000000.00 0000000.00   0000000.00                             000000000000000                                                                                                                                                     01418 A000000000000 0000000000000.24     00050 02200                  
07030580630940001E167590675900000002881800888800000010100E068C801C9 00000000000.004040404040404040404040404040404040404040404040404006011203A00000000000000000000000404040404040404040404040404040  0000084020000000000000230525526CC78D9EA08A3ECE4AAFBF404040400840A0000000031010000000000000000000404040404040404040404040404040404040404040404040 000000032.58 000000000.004040400000000000000000    80                                                                                                                                                                                                                                                                                                                  
07030590630940002G2675906759000000028818008888000000101SEVIERVILLE              TN           5 D                00                                      NNNN00 N 00                   000000000000                                                                   76487169                                                                                                                                                                                                                                                                                                                                                                                                                                               
07030600630940022DT67590675900000002881800888800000010180088824001193145900011900023052520230000000148114523000000000070033443238XXXXXX2229       VK04VS111111111   NYV1 A E303145528201894N8400000000014815HNT00    07DNHAPPY HIPPIE             004021    VD84000000001481 N  549976487169                            000000000+                F DF 00451                     000000000  N000000000 214   0000000000000.00 0000000.00   0000000.00                             000000000000000                                                                                                                                                     01418 F000000000000 0000000000000.27     01550 00400                  
07030610630940001E167590675900000002881800888800000010100E068C803E8 00000000000.004040404040404040404040404040404040404040404040404006011203A00000000000000000000000404040404040404040404040404040  00000840200000000000002305259F15CC69E7D85CA3587A5488404040400840A0000000031010000000000000000000404040404040404040404040404040404040404040404040 000000014.81 000000000.004040400000000000000000    80                                                                                                                                                                                                                                                                                                                  
07030620630940002G2675906759000000028818008888000000101SEVIERVILLE              TN           5 D                00                                      NNNN00 N 00                   000000000000                                                                   76487169                                                                                                                                                                                                                                                                                                                                                                                                                                               
07030630630940023DT67590675900000002881800888800000010180088824001193145900011900031052520230000000448814523000000000070033419090XXXXXX0535       VS11    0001111   NYV1 A E383145662406244N840000000004488LXQJ00    05DNHAPPY HIPPIE             452043    VD84000000004488 N  549976487169                            000000000+                F DF 00381                     000000000  N000000000       0000000000000.00 0000000.00   0000000.00                             000000000000000                                                                                                                                                     01418 A000000000000 0000000000000.51     00800 01500                  
07030640630940001E167590675900000002881800888800000010100E0F8C8020F 00000000000.004040404040404040404040404040404040404040404040404006010A03A02000000000000000000000404040404040404040404040404040  0001084018008080008000230525D72C0DDBDD650E5412E904E8404040400840A0000000031010000000000000000000582D0396B2F9D08E30300000000000004040401E40404040 000000044.88 000000000.001E00000000000000000000    80                                                                                                                                                                                                                                                                                                                  
07030650630940002G2675906759000000028818008888000000101SEVIERVILLE              TN           5 D                00                                      NNNN00 N 00                   000000000000                                                                   76487169                                                                                                                                                                                                                                                                                                                                                                                                                                               
07030660630940024DT67590675900000002881800888800000010180088824001193145900011900049052520230000000092814523000000000070033438857XXXXXX0652       VK04VS111111111   NYV1 A E463145680837314N840000000000928Z9K500    07DNHAPPY HIPPIE             03300D    VS84000000000928 N  549976487169                            000000000+                D CD 12057                     000000000  N000000000 452   0000000000000.00 0000000.00   0000000.00                             000000000000000                                                                                                                                                     01418 F000000000000 0000000000000.20     02200 00000                  
07030670630940001E167590675900000002881800888800000010100E068C8000D 00000000000.004040404040404040404040404040404040404040404040404006021203A00000000000000000000000404040404040404040404040404040  0001084020000000000000230525D3819B3A2D2AC97962D3AB7A404040400840A00000000310100000000000000000005F1573E70082000000000000000000004040404040404040 000000009.28 000000000.004040400000000000000000    80                                                                                                                                                                                                                                                                                                                  
07030680630940002G2675906759000000028818008888000000101SEVIERVILLE              TN           5 C                00                                      NNNN00 Y 00                   000000000000                                                                   76487169                                                                                                                                                                                                                                                                                                                                                                                                                                               
07030690630940025DT67590675900000002881800888800000010180088824001193145900011900056052520230000000515814523000000000070033498503XXXXXX5788       VS11    0001111   NYV1 A E303145725358262N840000000005158492L00    07DNHAPPY HIPPIE             098087    VD84000000005158 N  549976487169                            000000000+                F DF 00381                     000000000  N000000000       0000000000000.00 0000000.00   0000000.00                             000000000000000                                                                                                                                                     01418 A000000000000 0000000000000.56     00800 01500                  
07030700630940001E167590675900000002881800888800000010100E068C80011 00000000000.004040404040404040404040404040404040404040404040404006011203A00000000000000000000000404040404040404040404040404040  0000084020000000000000230525F87D5D3E70BB1CA5447EE88E404040400840A00000000310100000000000000000008ED6BD1F0080000000000000000000004040404040404040 000000051.58 000000000.004040400000000000000000    80                                                                                                                                                                                                                                                                                                                  
07030710630940002G2675906759000000028818008888000000101SEVIERVILLE              TN           5 D                00                                      NNNN00 N 00                   000000000000                                                                   76487169                                                                                                                                                                                                                                                                                                                                                                                                                                               
07030720630940026DT67590675900000002881800888800000010180088824001193145900011900064052520230000002366814523000000000070033451440XXXXXX1209       VS11    0001111   NYV1 A E303145734495657N8400000000236687D7300    05DNHAPPY HIPPIE             132409    VD84000000023668 N  549976487169                            000000000+                F PF 08170                     000000000  N000000000       0000000000000.00 0000000.00   0000000.00                             000000000000000                                                                                                                                                     01418 A000000000000 0000000000002.87     01150 01500                  
07030730630940001E167590675900000002881800888800000010100E0F8C80012 00000000000.004040404040404040404040404040404040404040404040404006011203A08000000000000000000000404040404040404040404040404040  000008401800808000800023052550C2C28B749FD444008E70F2404040400840A0000000031010000000000000000000404040404040404040404040404040404040401E40404040 000000236.68 000000000.001E00000000000000000000    80                                                                                                                                                                                                                                                                                                                  
07030740630940002G2675906759000000028818008888000000101SEVIERVILLE              TN           5 P                00                                      NNNN00 N 00                   000000000000                                                                   76487169                                                                                                                                                                                                                                                                                                                                                                                                                                               
07030750630940027DT67590675900000002881800888800000010180088824001193145900011900072052520230000000834014523000000000070033404227XXXXXX3237       VS11    0001111   NYV1 A E383145737497051N840000000008340ZNX200    05DNHAPPY HIPPIE             260481    VD84000000008340 N  549976487169                            000000000+                F DF 00381                     000000000  N000000000       0000000000000.00 0000000.00   0000000.00                             000000000000000                                                                                                                                                     01418 A000000000000 0000000000000.82     00800 01500                  
07030760630940001E167590675900000002881800888800000010100E0F8C801A1 00000000000.004040404040404040404040404040404040404040404040404006011203A0A000000000000000000000404040404040404040404040404040  0000084018008080008000230525BDD1718AAF0D28591209FD6C404040400840A000000003101000000000000000000075BBD0010382000000000000000000004040401E40404040 000000083.40 000000000.001E00000000000000000000    80                                                                                                                                                                                                                                                                                                                  
07030770630940002G2675906759000000028818008888000000101SEVIERVILLE              TN           5 D                00                                      NNNN00 N 00                   000000000000                                                                   76487169                                                                                                                                                                                                                                                                                                                                                                                                                                               
07030780630940028DT67590675900000002881800888800000010180088824001193145900011900080052520230000000164614523000000000070033443264XXXXXX1332       VS11    0001111   NYV1 A E583145740419848N840000000001646G86Z00    07DNHAPPY HIPPIE             019023    VD84000000001646 N  549976487169                            000000000+                F DF 10433                     000000000  Y000000000 338   0000000000000.00 0000000.00   0000000.00                             000000000000000                                                                                                                                                     01418 A000000000000 0000000000000.23     00050 02200                  
07030790630940001E167590675900000002881800888800000010100E068C80001 00000000000.004040404040404040404040404040404040404040404040404006011203A00000000000000000000000404040404040404040404040404040  0000084020000000000000230525FF7C8358961DD826122D82BC404040400840A0000000031010000000000000000000404040404040404040404040404040404040404040404040 000000016.46 000000000.004040400000000000000000    80                                                                                                                                                                                                                                                                                                                  
07030800630940002G2675906759000000028818008888000000101SEVIERVILLE              TN           5 D                00                                      NNNN00 N 00                   000000000000                                                                   76487169                                                                                                                                                                                                                                                                                                                                                                                                                                               
07030810630940029DT67590675900000002881800888800000010180088824001193145900011900098052520230000000548614523000000000070033449980XXXXXX7504       VS11    0001111   NYV1 A E463145754402922N840000000005486TFWS00    07DNHAPPY HIPPIE             560817    VD84000000005486 N  549976487169                            000000000+                F DF 00381                     000000000  N000000000       0000000000000.00 0000000.00   0000000.00                             000000000000000                                                                                                                                                     01418 A000000000000 0000000000000.59     00800 01500                  
07030820630940001E167590675900000002881800888800000010100E068C80010 00000000000.00404040404040404040404040404040404040404040404040401F4AFF31A00000000010030273000000004000000000000000000000000000  00000840004000000000002305254CE7A32B287D4A41BB6ECDC4404040400840A00000000310100000000000000000008B99BB81E28969B230300000000000004040404040404040 000000054.86 000000000.004040400000000000000000    80                                                                                                                                                                                                                                                                                                                  
07030830630940002G2675906759000000028818008888000000101SEVIERVILLE              TN           5 D                00                                      NNNN00 N 00                   000000000000                                                                   76487169                                                                                                                                                                                                                                                                                                                                                                                                                                               
07030840630940030DT67590675900000002881800888800000010180088824001193145900011900106052520230000000181014523000000000070033422921XXXXXX1582       VS11    0001111   NYV1 A E383145762565882N8400000000018106HLV00    07DNHAPPY HIPPIE             061857    VD84000000001810 N  549976487169                            000000000+                F DF 00381                     000000000  N000000000       0000000000000.00 0000000.00   0000000.00                             000000000000000                                                                                                                                                     01418 A000000000000 0000000000000.29     00800 01500                  
07030850630940001E167590675900000002881800888800000010100E068C802E5 00000000000.004040404040404040404040404040404040404040404040404006011203A00000000000000000000000404040404040404040404040404040  0000084020000000000000230525745A06145718C589C2520CE0404040400840A0000000031010000000000000000000DB7AA09F0382000000000000000000004040404040404040 000000018.10 000000000.004040400000000000000000    80                                                                                                                                                                                                                                                                                                                  
07030860630940002G2675906759000000028818008888000000101SEVIERVILLE              TN           5 D                00                                      NNNN00 N 00                   000000000000                                                                   76487169                                                                                                                                                                                                                                                                                                                                                                                                                                               
07030870630940031DT67590675900000002881800888800000010180088824001193145900011900114052520230000000685814523000000000070033473703XXXXXX7753       VS11    0001111   NYV1 A E463145768414096N84000000000685832VV00    07DNHAPPY HIPPIE             020608    VD84000000006858 N  549976487169                            000000000+                F DF 10433                     000000000  Y000000000 338   0000000000000.00 0000000.00   0000000.00                             000000000000000                                                                                                                                                     01418 A000000000000 0000000000000.25     00050 02200                  
07030880630940001E167590675900000002881800888800000010100E068C80068 00000000000.004040404040404040404040404040404040404040404040404006061203A00000000000000000000000404040404040404040404040404040  000008400000000000000023052596D1692A5AE3342F086DC615404040400840A0000000031010000000000000000000F0F0C040E0E060B020200000000000004040404040404040 000000068.58 000000000.004040400000000000000000    80                                                                                                                                                                                                                                                                                                                  
07030890630940002G2675906759000000028818008888000000101SEVIERVILLE              TN           5 D                00                                      NNNN00 N 00                   000000000000                                                                   76487169                                                                                                                                                                                                                                                                                                                                                                                                                                               
07030900630940032DT67590675900000002881800888800000010180088824001193145900011900122052520230000000691214523000000000070033422921XXXXXX3430       VS11    0001111   NYV1 A E463145792716781N840000000006912WTPL00    07DNHAPPY HIPPIE             064872    VD84000000006912 N  549976487169                            000000000+                F DF 00381                     000000000  N000000000       0000000000000.00 0000000.00   0000000.00                             000000000000000                                                                                                                                                     01418 A000000000000 0000000000000.70     00800 01500                  
07030910630940001E167590675900000002881800888800000010100E068C800D1 00000000000.004040404040404040404040404040404040404040404040404006011203A00000000000000000000000404040404040404040404040404040  00000840000000000000002305256453995E66BE5C227AEDE4F4404040400840A00000000310100000000000000000003FE711750382000000000000000000004040404040404040 000000069.12 000000000.004040400000000000000000    80                                                                                                                                                                                                                                                                                                                  
07030920630940002G2675906759000000028818008888000000101SEVIERVILLE              TN           5 D                00                                      NNNN00 N 00                   000000000000                                                                   76487169                                                                                                                                                                                                                                                                                                                                                                                                                                               
07030930630940033BH6759067590000000288180088880000090170525202314523000000000064160    0000090001300011N8008886759C05262023130                                                                                                                                                                                                                                                                                                                                                                                                                                                                                                                                                                                              
07030940630940034DT67590675900000002881800888800000010180088824001193145900013000012052520230000000374814523000000000064160492497XXXXXX4193       VS11    0001111   NYV1 A E303145584489625N840000000003748V45S00    07DNHAPPY HIPPIE             21408C    VS84000000003748 N  549976487158                            000000000+                C CC 12112                     000000000  N000000000 497   0000000000000.00 0000000.00   0000000.00                             000000000000000                                                                                                                                                     01418 A000000000000 0000000000000.72     01650 01000                  
07030950630940001E167590675900000002881800888800000010100E068C8000E 00000000000.004040404040404040404040404040404040404040404040404006011203A00000000000000000000000404040404040404040404040404040  00000840200000000000002305250FAAEDF4DDEE7D31A476841E404040400840A0000000031010000000000000000000404040404040404040404040404040404040404040404040 000000037.48 000000000.004040400000000000000000    80                                                                                                                                                                                                                                                                                                                  
07030960630940002G2675906759000000028818008888000000101SEVIERVILLE              TN           5 C                00                                      NNNN00 Y 00                   000000000000                                                                   76487158                                                                                                                                                                                                                                                                                                                                                                                                                                               
07030970630940035DT67590675900000002881800888800000010180088877287283145900013000022052520230000000543014523000000000064160511953XXXXXX5008       MS02WI09          NY 1 0 AMDJZEWRU50525  N840000000005430          07DNHAPPY HIPPIE             002804    MD84000000005430 N  549976487158                            000000000+M10101M5434C    MDJ  00402                     000000000  N                0000000000000.00 0000000.00   0000000.00                             000000000000000                                                                                                                                                   B101418  000000000000 0000000000000.72     01050 01500                  
07030980630940001E1675906759000000028818008888000000101000060C80605 00000000000.00404040404040404040404040404040404040404040404040400110A04001220000000000000000000000FF00000000000000000000000000  00000840198000000080012305250E592A6D8E3962B504EF16DD404040400840A0000000041010000000000000000000404040404040404040404040404040404040401E40404040 000000054.30 000000000.001E03000000000000000000    80                                                                                                                                                                                                                                                                                                                  
07030990630940002G2675906759000000028818008888000000101SEVIERVILLE              TN           5 J                                                        NNNN              000000000000000000000000       03               7                                          76487158                                                                                                                                                                                                                                                                                                                                                                                                                                               
07031000630940036DT67590675900000002881800888800000010180088824001193145900013000038052520230000000614514523000000000064160432867XXXXXX5348       VS11    0001111   NYV1 A E303145687679118N840000000006145XX6M00    05DNHAPPY HIPPIE             140608    VD84000000006145 N  549976487158                            000000000+                F DF 00381                     000000000  N000000000       0000000000000.00 0000000.00   0000000.00                             000000000000000                                                                                                                                                     01418 A000000000000 0000000000000.64     00800 01500                  
07031010630940001E167590675900000002881800888800000010100E0F8C801C4 00000000000.004040404040404040404040404040404040404040404040404006011203A02000000000000000000000404040404040404040404040404040  00010840180080800080002305253C01CCD50A16DBD93C41FA30404040400840A00000000310100000000000000000005BA82A500082000000000000000000004040401E40404040 000000061.45 000000000.001E00000000000000000000    80                                                                                                                                                                                                                                                                                                                  
07031020630940002G2675906759000000028818008888000000101SEVIERVILLE              TN           5 D                00                                      NNNN00 N 00                   000000000000                                                                   76487158                                                                                                                                                                                                                                                                                                                                                                                                                                               
07031030630940037DT67590675900000002881800888800000010180088824001193145900013000046052520230000000888914523000000000064160480639XXXXXX4414       VS11    0001111   NYV1 A E303145736384033N840000000008889CSQ400    05DNHAPPY HIPPIE             594775    VD84000000008889 N  549976487158                            000000000+                F DF 00381                     000000000  N000000000       0000000000000.00 0000000.00   0000000.00                             000000000000000                                                                                                                                                     01418 A000000000000 0000000000000.86     00800 01500                  
07031040630940001E167590675900000002881800888800000010100E0F8C8004B 00000000000.004040404040404040404040404040404040404040404040404006011203A02000000000000000000000404040404040404040404040404040  0000084018008080008000230525C1AC73BD31016B8D3CE61082404040400840A00000000310100000000000000000008ED1E8850080000000000000000000004040401E40404040 000000088.89 000000000.001E00000000000000000000    80                                                                                                                                                                                                                                                                                                                  
07031050630940002G2675906759000000028818008888000000101SEVIERVILLE              TN           5 D                00                                      NNNN00 N 00                   000000000000                                                                   76487158                                                                                                                                                                                                                                                                                                                                                                                                                                               
07031060630940038DT67590675900000002881800888800000010180088877287283145900013000055052520230000000493814523000000000064160511953XXXXXX7187       MS02WI09          NY 1 0 AMDJCZILU60525  N840000000004938          05DNHAPPY HIPPIE             034237    MD84000000004938 N  549976487158                            000000000+M10101C5434C    MDJ  00402                     000000000  N                0000000000000.00 0000000.00   0000000.00                             000000000000000                                                                                                                                                   B101418  000000000000 0000000000000.67     01050 01500                  
07031070630940001E167590675900000002881800888800000010100E0F8C80117 00000000000.00404040404040404040404040404040404040404040404040400110A04001220000000000000000000000FF00000000000000000000000000  000108403900000000800023052576092756F0CBB201A94EA027404040400840A000000004101000000000000000000074B8A09CEB6A2697031A0000000000004040401E40404040 000000049.38 000000000.001E03000000000000000000    80                                                                                                                                                                                                                                                                                                                  
07031080630940002G2675906759000000028818008888000000101SEVIERVILLE              TN           5 J                                                        NNNN              000000000000000000000000                        7                                          76487158                                                                                                                                                                                                                                                                                                                                                                                                                                               
07031090630940039DT67590675900000002881800888800000010180088824001193145900013000061052520230000000394914523000000000064160404227XXXXXX3237       VS11    0001111   NYV1 A E383145740611493N8400000000039494ZRZ00    05DNHAPPY HIPPIE             245089    VD84000000003949 N  549976487158                            000000000+                F DF 00381                     000000000  N000000000       0000000000000.00 0000000.00   0000000.00                             000000000000000                                                                                                                                                     01418 A000000000000 0000000000000.47     00800 01500                  
07031100630940001E167590675900000002881800888800000010100E0F8C801A2 00000000000.004040404040404040404040404040404040404040404040404006011203A0A000000000000000000000404040404040404040404040404040  00000840180080800080002305254812209E69BC546F9A5AC24F404040400840A00000000310100000000000000000004AF6ED810382000000000000000000004040401E40404040 000000039.49 000000000.001E00000000000000000000    80                                                                                                                                                                                                                                                                                                                  
07031110630940002G2675906759000000028818008888000000101SEVIERVILLE              TN           5 D                00                                      NNNN00 N 00                   000000000000                                                                   76487158                                                                                                                                                                                                                                                                                                                                                                                                                                               
07031120630940040DT67590675900000002881800888800000010180088824001193145900013000079052520230000000212314523000000000064160461046XXXXXX1504       VS11    0001111   NYV1 A E383145742087573N840000000002123KTQ900    07DNHAPPY HIPPIE             093616    VD84000000002123 N  549976487158                            000000000+                F DF 10433                     000000000  Y000000000 338   0000000000000.00 0000000.00   0000000.00                             000000000000000                                                                                                                                                     01418 A000000000000 0000000000000.23     00050 02200                  
07031130630940001E167590675900000002881800888800000010100E068C8030F 00000000000.004040404040404040404040404040404040404040404040404006011203A00000000000000000000000404040404040404040404040404040  0000084000000000000000230525316B6F3097446AA33599A48C404040400840A0000000031010000000000000000000404040404040404040404040404040404040404040404040 000000021.23 000000000.004040400000000000000000    80                                                                                                                                                                                                                                                                                                                  
07031140630940002G2675906759000000028818008888000000101SEVIERVILLE              TN           5 D                00                                      NNNN00 N 00                   000000000000                                                                   76487158                                                                                                                                                                                                                                                                                                                                                                                                                                               
07031150630940041DT67590675900000002881800888800000010180088877287283145900013000089052520230000002091314523000000000064160527854XXXXXX5924       MS02WI09          NY 1 0 AMWEVIKAU90525  N840000000020913          05DNHAPPY HIPPIE             51525Z    MC84000000020913 N  549976487158                            000000000+M10101C5434C    MWE  00743                     000000000  N                0000000000000.00 0000000.00   0000000.00                             000000000000000                                                                                                                                                   B101418  000000000000 0000000000004.85     02300 00400                  
07031160630940001E167590675900000002881800888800000010100E0F8C801A1 00000000000.00404040404040404040404040404040404040404040404040400110A04001220000000000000000000000FF00000000000000000000000000  00010840390000000080002305253FF82D456E0E07708720ACA3404040400840A0000000041010000000000000000000F24464F44919001C00120000000000004040401E40404040 000000209.13 000000000.001E03000000000000000000    80                                                                                                                                                                                                                                                                                                                  
07031170630940002G2675906759000000028818008888000000101SEVIERVILLE              TN           5 E                                                        NNNN              000000000000000000000000                        7                                          76487158                                                                                                                                                                                                                                                                                                                                                                                                                                               
07031180630940042DT67590675900000002881800888800000010180088824001193145900013000095052520230000000256314523000000000064160491523XXXXXX7823       VS11    0001111   NYV1 A E583145786603396N8400000000025639VSL00    07DNHAPPY HIPPIE             023258    VD84000000002563 N  549976487158                            000000000+                F DF 10433                     000000000  Y000000000 338   0000000000000.00 0000000.00   0000000.00                             000000000000000                                                                                                                                                     01418 A000000000000 0000000000000.23     00050 02200                  
07031190630940001E167590675900000002881800888800000010100E068C801AD 00000000000.00404040404040404040404040404040404040404040404040401F4A0A32A00000000010030273000000004000000000000000000000000000  0000084000400000000000230525C2FB10C19D3E63BC693C7A51404040400840A0000000031010000000000000000000F28BC47DB8CE9B1A30300000000000004040404040404040 000000025.63 000000000.004040400000000000000000    80                                                                                                                                                                                                                                                                                                                  
07031200630940002G2675906759000000028818008888000000101SEVIERVILLE              TN           5 D                00                                      NNNN00 N 00                   000000000000                                                                   76487158                                                                                                                                                                                                                                                                                                                                                                                                                                               
07031210630940043DT67590675900000002881800888800000010180088824001193145900013000103052520230000000151214523000000000064160485628XXXXXX6673       VS11    0001111   NYV1 A E463145787199448N8400000000015126QFP00    07DNHAPPY HIPPIE             615215    VS84000000001512 N  549976487158                            000000000+                A CA 12110                     000000000  N000000000 493   0000000000000.00 0000000.00   0000000.00                             000000000000000                                                                                                                                                     01418 A000000000000 0000000000000.33     01510 01000                  
07031220630940001E167590675900000002881800888800000010100E068C8000F 00000000000.00404040404040404040404040404040404040404040404040401F420A32A00000000010030273000000004000000000000000000000000000  0000084000600000000000230525490C2DECA4ADC3B45281E9FC404040400840A00000000310100000000000000000004C48298D0086000000000000000000004040404040404040 000000015.12 000000000.004040400000000000000000    80                                                                                                                                                                                                                                                                                                                  
