00004330002360002BH6759067590000000288180088880000090171230202236422000000000020498    0000090001330080Y8008886759C01022023                                                                                                                                                                                                                                                                                                                                                                                                                                                                                                                                                                                                 
00004340002360003DT67590675900000002881800888800000010180088824001192364900013300806123020220000002049836422000000000020498401154XXXXXX8981               2111111   NYV4 A7W302364459755730N8400000000204985K5W00    01DNHAPPY HIPPIE             003010    VD84000000020498 NP1549976044904   1898                     000000000+                F DF 10420                     000000000  Y000000000 338   0000000000000.00 0000000.00   0000000.00                             000000000000000                                                                                                                                                     01424 G000000020498 0000000000000.32     00050 02200                  
00004350002360001P16759067590000000288180088880000001010000000000000000                             2000000000000000000000000              000000000000                    0000000000000000000000000                    000000000000                                                                                                                                                                                                                                                                                                                                                                                                                                                                                        
00004360015460002BH6759067590000000096880088880000090170102202300223000000000011235    0000090001160593N8008886759C01022023                                                                                                                                                                                                                                                                                                                                                                                                                                                                                                                                                                                                 
00004370015460003DT67590675900000000968800888800000010180088887287282365900011605933123120220000001123500223000000000011235525363XXXXXX7484       ME03KE06MS02      NY 4607AMWEHIOQ1B1230  N840000000011235          81DNHIGHER FLOUR LLC         77606Z    MC84000000011235 N  546200000001   rOLliRAeq2JbQd7JIt0Q     000000000+600450S00140    MWE  00737                     000000000  N                0000000000000.00 0000000.00   0000000.00                             000000000000000                                                                                                                                                   U001418  000000000000 0000000000003.02     02600 01000                  
00004380031030002BH6759067590000000288180088880000090170102202300223000000000111137    0000090001070015N8008886759C01022023                                                                                                                                                                                                                                                                                                                                                                                                                                                                                                                                                                                                 
00004390031030003DT67590675900000002881800888800000010180088824001193002900010700012010120230000001292300223000000000111137443264XXXXXX6212       VS11    0001111   NYV1 A E583001548330367N840000000012923K5J600    05DNHAPPY HIPPIE             018556    VD84000000012923 N  549976487134                            000000000+                F DF 10433                     000000000  Y000000000 338   0000000000000.00 0000000.00   0000000.00                             000000000000000                                                                                                                                                     01418 A000000000000 0000000000000.28     00050 02200                  
00004400031030004DT67590675900000002881800888800000010180088824001193002900010700020010120230000000592500223000000000111137463405XXXXXX7019       VS11    0001111   NYV1 A E463001558765840N840000000005925PL9500    05DNHAPPY HIPPIE             088750    VD84000000005925 N  549976487134                            000000000+                F DF 10433                     000000000  Y000000000 338   0000000000000.00 0000000.00   0000000.00                             000000000000000                                                                                                                                                     01418 A000000000000 0000000000000.25     00050 02200                  
00004410031030005DT67590675900000002881800888800000010180088877287283002900010700030010120230000001096300223000000000111137514377XXXXXX8206       MS02WI09          NY 1 0 AMDJK256ND0101  N840000000010963          05DNHAPPY HIPPIE             12H2HL    MD84000000010963 N  549976487134                            000000000+M10101C5434C    MDJ  00402                     000000000  N                0000000000000.00 0000000.00   0000000.00                             000000000000000                                                                                                                                                   B101418  000000000000 0000000000001.30     01050 01500                  
00004420031030006DT67590675900000002881800888800000010180088824001193002900010700046010120230000000788900223000000000111137415978XXXXXX7833       VS11    0001111   NYV1 A E383001566386051N840000000007889WRZJ00    05DNHAPPY HIPPIE             063670    VD84000000007889 N  549976487134                            000000000+                F DF 10433                     000000000  Y000000000 338   0000000000000.00 0000000.00   0000000.00                             000000000000000                                                                                                                                                     01418 A000000000000 0000000000000.26     00050 02200                  
00004430031030007DT67590675900000002881800888800000010180088824001193002900010700053010120230000000304700223000000000111137403446XXXXXX0760       VS11    0001111   NYV1 A E583001571620076N840000000003047CMCH00    90DNHAPPY HIPPIE             661030    VD84000000003047 N  549976487134                            000000000+                F PF 08170                     000000000  N000000000       0000000000000.00 0000000.00   0000000.00                             000000000000000                                                                                                                                                     01418 A000000000000 0000000000000.50     01150 01500                  
00004440031030008DT67590675900000002881800888800000010180088824001193002900010700061010120230000001797200223000000000111137419090XXXXXX0995       VS11    0001111   NYV1 A E303001642183737N8400000000179727VZM00    05DNHAPPY HIPPIE             393494    VD84000000017972 N  549976487134                            000000000+                F DF 00381                     000000000  N000000000       0000000000000.00 0000000.00   0000000.00                             000000000000000                                                                                                                                                     01418 A000000000000 0000000000001.59     00800 01500                  
00004450031030009DT67590675900000002881800888800000010180088824001193002900010700079010120230000000887600223000000000111137498503XXXXXX4032       VS11    0001111   NYV1 A E463001656036252N840000000008876SZJC00    05DNHAPPY HIPPIE             052562    VD84000000008876 N  549976487134                            000000000+                F DF 00381                     000000000  N000000000       0000000000000.00 0000000.00   0000000.00                             000000000000000                                                                                                                                                     01418 A000000000000 0000000000000.86     00800 01500                  
00004460031030010DT67590675900000002881800888800000010180088824001193002900010700087010120230000000393800223000000000111137498503XXXXXX4032       VS11    0001111   NYV1 A E383001657166201N840000000003938F8SL00    05DNHAPPY HIPPIE             078898    VD84000000003938 N  549976487134                            000000000+                F DF 00381                     000000000  N000000000       0000000000000.00 0000000.00   0000000.00                             000000000000000                                                                                                                                                     01418 A000000000000 0000000000000.47     00800 01500                  
00004470031030011DT67590675900000002881800888800000010180088824001193002900010700095010120230000000691300223000000000111137449507XXXXXX6597       VS11    0001111   NYV1 A E303001687426224N840000000006913B67500    05DNHAPPY HIPPIE             040542    VD84000000006913 N  549976487134                            000000000+                F DF 00381                     000000000  N000000000       0000000000000.00 0000000.00   0000000.00                             000000000000000                                                                                                                                                     01418 A000000000000 0000000000000.70     00800 01500                  
00004480031030012DT67590675900000002881800888800000010180088876509753002900010700101010120230000000219500223000000000111137601195XXXXXX4375   BA50                  NY41 0 N803000509335209N840000000002195    00    05DNHAPPY HIPPIE             484437    DD84000000002195 N  549976487134050                         000000000+0000004910H00   DCDDI01001002021  120853000000 000000000  0          113   0000000000000.00 0000000.00   0000000.00                             000000000000000                                                                                                                                                     01418  000000000000 0000000000000.40     01100 01600                  
00004490031030013DT67590675900000002881800888800000010180088824001193002900010700111010120230000000723600223000000000111137443264XXXXXX5230       VS11    0001111   NYV1 A E463001709405732N84000000000723627RT00    05DNHAPPY HIPPIE             021747    VD84000000007236 N  549976487134                            000000000+                F DF 10433                     000000000  Y000000000 338   0000000000000.00 0000000.00   0000000.00                             000000000000000                                                                                                                                                     01418 A000000000000 0000000000000.26     00050 02200                  
00004500031030014DT67590675900000002881800888800000010180088824001193002900010700129010120230000000395000223000000000111137422921XXXXXX5428       VS11    0001111   NYV1 A E583001711691882N840000000003950RNLX00    05DNHAPPY HIPPIE             053170    VD84000000003950 N  549976487134                            000000000+                F DF 00381                     000000000  N000000000       0000000000000.00 0000000.00   0000000.00                             000000000000000                                                                                                                                                     01418 A000000000000 0000000000000.47     00800 01500                  
00004510031030015DT67590675900000002881800888800000010180088824001193002900010700137010120230000001066400223000000000111137422921XXXXXX3070       VS11    0001111   NYV1 A E463001716148945N840000000010664LFNC00    05DNHAPPY HIPPIE             053615    VD84000000010664 N  549976487134                            000000000+                F DF 00381                     000000000  N000000000       0000000000000.00 0000000.00   0000000.00                             000000000000000                                                                                                                                                     01418 A000000000000 0000000000001.00     00800 01500                  
00004520031030016DT67590675900000002881800888800000010180088877287283002900010700147010120230000000315800223000000000111137528072XXXXXX6972       MS02WI09          NY 1 0 AMCWSV9S260101  N840000000003158          05DNHAPPY HIPPIE             06889Z    MC84000000003158 N  549976487134                            000000000+M10101C5434C    MCW  00646                     000000000  N                0000000000000.00 0000000.00   0000000.00                             000000000000000                                                                                                                                                   B101418  000000000000 0000000000000.64     01900 00400                  
00004530031030017DT67590675900000002881800888800000010180088877287283002900010700154010120230000000548800223000000000111137511953XXXXXX0941       MS02WI09          NY 1 0 AMDJR2V4NE0101  N840000000005488          05DNHAPPY HIPPIE             095435    MD84000000005488 N  549976487134                            000000000+M10101C5434C    MDJ  00402                     000000000  N                0000000000000.00 0000000.00   0000000.00                             000000000000000                                                                                                                                                   B101418  000000000000 0000000000000.73     01050 01500                  
00004540031030018BH6759067590000000288180088880000090170102202300223000000000078430    0000090001070017N8008886759C01022023                                                                                                                                                                                                                                                                                                                                                                                                                                                                                                                                                                                                 
00004550031030019DT67590675900000002881800888800000010180088824001193002900010700012010120230000000987600223000000000078430480639XXXXXX3658       VS11    0001111   NYV1 A E463001548767621N840000000009876QPJG00    05DNHAPPY HIPPIE             155616    VD84000000009876 N  549976487158                            000000000+                F DF 00381                     000000000  N000000000       0000000000000.00 0000000.00   0000000.00                             000000000000000                                                                                                                                                     01418 A000000000000 0000000000000.94     00800 01500                  
00004560031030020DT67590675900000002881800888800000010180088824001193002900010700020010120230000000845000223000000000078430451440XXXXXX1209       VS11    0001111   NYV1 A E303001551512818N840000000008450SH3800    05DNHAPPY HIPPIE             071912    VD84000000008450 N  549976487158                            000000000+                F PF 08170                     000000000  N000000000       0000000000000.00 0000000.00   0000000.00                             000000000000000                                                                                                                                                     01418 A000000000000 0000000000001.12     01150 01500                  
00004570031030021DT67590675900000002881800888800000010180088824001193002900010700038010120230000000548800223000000000078430415978XXXXXX9559               1001111   NYV1 A K383001571874029N840000000005488BB3400    01DNHAPPY HIPPIE             080889    VD84000000005488 N  549976487158                            000000000+                F DF 10436                     000000000  Y000000000 338   0000000000000.00 0000000.00   0000000.00                             000000000000000                                                                                                                                                     01418 E000000000000 0000000000000.25     00050 02200                  
00004580031030022DT67590675900000002881800888800000010180088877287283002900010700048010120230000000395000223000000000078430527854XXXXXX0119       MS02WI09          NY 1 0 AMWE9T3E250101  N840000000003950          05DNHAPPY HIPPIE             90104W    MC84000000003950 N  549976487158                            000000000+M10101C5434C    MWE  00646                     000000000  N                0000000000000.00 0000000.00   0000000.00                             000000000000000                                                                                                                                                   B101418  000000000000 0000000000000.79     01900 00400                  
00004590031030023DT67590675900000002881800888800000010180088877287283002900010700055010120230000000316100223000000000078430517805XXXXXX8293       MS02WI09          NY 1 0 AMPLYCU4ND0101  N840000000003161          05DNHAPPY HIPPIE             02119B    MC84000000003161 N  549976487158                            000000000+M10101C5434C    MPL  00364                     000000000  N                0000000000000.00 0000000.00   0000000.00                             000000000000000                                                                                                                                                   B101418  000000000000 0000000000000.61     01800 00400                  
00004600031030024DT67590675900000002881800888800000010180088824001193002900010700061010120230000000088800223000000000078430449507XXXXXX0245       VK04VS111111111   NYV1 A E463001581162887N840000000000888XGG900    05DNHAPPY HIPPIE             010836    VD84000000000888 N  549976487158                            000000000+                F DF 00451                     000000000  N000000000 214   0000000000000.00 0000000.00   0000000.00                             000000000000000                                                                                                                                                     01418 F000000000000 0000000000000.18     01550 00400                  
00004610031030025DT67590675900000002881800888800000010180088824001193002900010700079010120230000000158000223000000000078430498503XXXXXX9797       VS11    0001111   NYV1 A E583001595414671N84000000000158074NS00    05DNHAPPY HIPPIE             061355    VD84000000001580 N  549976487158                            000000000+                F DF 00381                     000000000  N000000000       0000000000000.00 0000000.00   0000000.00                             000000000000000                                                                                                                                                     01418 A000000000000 0000000000000.28     00800 01500                  
00004620031030026DT67590675900000002881800888800000010180088824001193002900010700087010120230000000131500223000000000078430422921XXXXXX6626       VK04VS111111111   NYV1 A E463001608520695N840000000001315R9BX00    05DNHAPPY HIPPIE             042853    VD84000000001315 N  549976487158                            000000000+                F DF 00451                     000000000  N000000000 214   0000000000000.00 0000000.00   0000000.00                             000000000000000                                                                                                                                                     01418 F000000000000 0000000000000.24     01550 00400                  
00004630031030027DT67590675900000002881800888800000010180088824001193002900010700095010120230000000395000223000000000078430419090XXXXXX3821       VS11    0001111   NYV1 A E383001616019951N8400000000039506X3900    05DNHAPPY HIPPIE             392355    VD84000000003950 N  549976487158                            000000000+                F DF 00381                     000000000  N000000000       0000000000000.00 0000000.00   0000000.00                             000000000000000                                                                                                                                                     01418 A000000000000 0000000000000.47     00800 01500                  
00004640031030028DT67590675900000002881800888800000010180088824001193002900010700103010120230000000158000223000000000078430419090XXXXXX0765       VS11    0001111   NYV1 A E583001646560674N8400000000015807MZL00    05DNHAPPY HIPPIE             393659    VD84000000001580 N  549976487158                            000000000+                F DF 00381                     000000000  N000000000       0000000000000.00 0000000.00   0000000.00                             000000000000000                                                                                                                                                     01418 A000000000000 0000000000000.28     00800 01500                  
00004650031030029DT67590675900000002881800888800000010180088824001193002900010700111010120230000001115500223000000000078430432881XXXXXX6324       VS11    0001111   NYV1 A E583001674195287N840000000011155T9D700    05DNHAPPY HIPPIE             034339    VD84000000011155 N  549976487158                            000000000+                F DF 00381                     000000000  N000000000       0000000000000.00 0000000.00   0000000.00                             000000000000000                                                                                                                                                     01418 A000000000000 0000000000001.04     00800 01500                  
00004660031030030DT67590675900000002881800888800000010180088824001193002900010700129010120230000000246800223000000000078430441776XXXXXX7549       VS11    0001111   NYV1 A E383001725545069N8400000000024683CT300    07DNHAPPY HIPPIE             397266    VD84000000002468 N  549976487158                            000000000+                F DF 00381                     000000000  N000000000       0000000000000.00 0000000.00   0000000.00                             000000000000000                                                                                                                                                     01418 A000000000000 0000000000000.35     00800 01500                  
00004670031030031DT67590675900000002881800888800000010180088824001193002900010700137010120230000000429000223000000000078430419090XXXXXX3689       VS11    0001111   NYV1 A E463001726342915N840000000004290Q7XJ00    05DNHAPPY HIPPIE             397303    VD84000000004290 N  549976487158                            000000000+                F DF 00381                     000000000  N000000000       0000000000000.00 0000000.00   0000000.00                             000000000000000                                                                                                                                                     01418 A000000000000 0000000000000.49     00800 01500                  
00004680031030032DT67590675900000002881800888800000010180088877287283002900010700147010120230000000464100223000000000078430511563XXXXXX0653       MS02WI09          NY 2 0 AMPVP09JNE0101  N840000000004641          05DNHAPPY HIPPIE             JEACGM    MD84000000004641 N  549976487158                            000000000+M10101C1334C    MPV  11964                     000000000  N                0000000000000.00 0000000.00   0000000.00                             000000000000000                                                                                                                                                     01418  000000000000 0000000000000.68     01150 01500                  
00004690031030033DT67590675900000002881800888800000010180088824001193002900010700152010120230000000344400223000000000078430473703XXXXXX0043       VS11    0001111   NYV1 A E303001767629278N840000000003444L2VK00    05DNHAPPY HIPPIE             044255    VD84000000003444 N  549976487158                            000000000+                F DF 10433                     000000000  Y000000000 338   0000000000000.00 0000000.00   0000000.00                             000000000000000                                                                                                                                                     01418 A000000000000 0000000000000.24     00050 02200                  
00004700031030034DT67590675900000002881800888800000010180088824001193002900010700160010120230000001000000223000000000078430426684XXXXXX5920               1001111   NYV1 A K463001783765373N840000000010000QBRF00    01DNHAPPY HIPPIE             08508B    VS84000000010000 N  549976487158                            000000000+                B CB 12107                     000000000  N000000000 494   0000000000000.00 0000000.00   0000000.00                             000000000000000                                                                                                                                                     01418 E000000000000 0000000000002.14     02040 01000                  
00004710031030035DT67590675900000002881800888800000010180088824001193002900010700178010120230000000219400223000000000078430446893XXXXXX7983       VS11    0001111   NYV1 A E463001795664370N840000000002194QLCT00    05DNHAPPY HIPPIE             427361    VD84000000002194 N  549976487158                            000000000+                F DF 00381                     000000000  N000000000       0000000000000.00 0000000.00   0000000.00                             000000000000000                                                                                                                                                     01418 A000000000000 0000000000000.33     00800 01500                  
00004720034950002BH6759067590000000288180088880000090170102202300223000000000004599    0000090001340081N8008886759C01022023                                                                                                                                                                                                                                                                                                                                                                                                                                                                                                                                                                                                 
00004730034950003DT67590675900000002881800888800000010180088887287283002900013400819010120230000000459900223000000000004599552486XXXXXX4943       ME03KE06MS02      NY 4607AMWERTVZND0101  N840000000004599          81DNHAPPY HIPPIE             04585Z    MC84000000004599 N  549976044904   1899                     000000000+600450S00130    MWE  00737                     000000000  N                0000000000000.00 0000000.00   0000000.00                             000000000000000                                                                                                                                                   U001424  000000000000 0000000000001.30     02600 01000                  
