05466620077604246AD675906759000000198288001098000009077900012136820000001987007032023NYY18423YC6759800109070520232023166005163                                                                                                                                                                                                                                                                                                                                                                                                                                                                                                                                                                                              
05466630077604252AD675906759000000198288001098000009077900015797770000001987007032023NYY18423YC6759800109070520232023166005199                                                                                                                                                                                                                                                                                                                                                                                                                                                                                                                                                                                              
05466640077604255AD675906759000000142748001028000009071900012519600000001987007032023NYY18423ND6759800102070520232023181022039                                                                                                                                                                                                                                                                                                                                                                                                                                                                                                                                                                                              
05466650077604258AD675906759000000133008001028000009071900011051850000001987007032023NYY18423ND6759800102070520232023184026895                                                                                                                                                                                                                                                                                                                                                                                                                                                                                                                                                                                              
05466660077604261AD675906759000000133008001028000009071900012681150000002106207032023NYY18423ND6759800102070520232023184026896                                                                                                                                                                                                                                                                                                                                                                                                                                                                                                                                                                                              
05466670077604264AD675906759000000133008001028000009071900010745290000002146007032023NYY18423ND6759800102070520232023184026897                                                                                                                                                                                                                                                                                                                                                                                                                                                                                                                                                                                              
05466680077604267AD675906759000000133008001028000009071900016482750000002146007032023NYY18423ND6759800102070520232023184026898                                                                                                                                                                                                                                                                                                                                                                                                                                                                                                                                                                                              
05466690077604270AD675906759000000161968001028000009071900017851810000002146007032023NYY18423ND6759800102070520232023184026899                                                                                                                                                                                                                                                                                                                                                                                                                                                                                                                                                                                              
05466700077604273AD675906759000000133008001028000009071900012782650000002106207032023NYY18423ND6759800102070520232023184026900                                                                                                                                                                                                                                                                                                                                                                                                                                                                                                                                                                                              
05466710077604276AD675906759000000300808001328000009071900010100370000002477007032023NYY18423ND6759800132070520232023184026901                                                                                                                                                                                                                                                                                                                                                                                                                                                                                                                                                                                              
05466720077604279AD675906759000000268498001258000009077900013001630000001977007032023NYY18423YC6759800125070520232023184026906                                                                                                                                                                                                                                                                                                                                                                                                                                                                                                                                                                                              
05466730077604282AD675906759000000268498001258000009077900013001680000000619807032023NYY18423YC6759800125070520232023184026907                                                                                                                                                                                                                                                                                                                                                                                                                                                                                                                                                                                              
05466740077604285AD675906759000000268498001258000009077900013001670000000979807032023NYY18423YC6759800125070520232023184026908                                                                                                                                                                                                                                                                                                                                                                                                                                                                                                                                                                                              
05466750077604288AD675906759000000176738001068000009071900010200070000001306707032023NYY18423ND6759800106070520232023184026903                                                                                                                                                                                                                                                                                                                                                                                                                                                                                                                                                                                              
05466760077604291AD675906759000000176738001068000009071900013112120000001306707032023NYY18423ND6759800106070520232023184026904                                                                                                                                                                                                                                                                                                                                                                                                                                                                                                                                                                                              
05466770077604294AD675906759000000176738001068000009071900015821240000001306707032023NYY18423ND6759800106070520232023184026905                                                                                                                                                                                                                                                                                                                                                                                                                                                                                                                                                                                              
05466780079240002BH6759067590000003433080014180000090170704202318523000000000000100    0000090001010001N8001416759C07052023001                                                                                                                                                                                                                                                                                                                                                                                                                                                                                                                                                                                              
05466790079240003DT67590675900000034330800141800000010180014124001193185900010100014060620230000000010018523000000000000100411870XXXXXX1463       PS02VK040111111   NYV1 0 N463157618058617N8400000000001007RW600    07DNJBLISS LLC               006639    VS84000000000100 N  599978512540                            000000000+                D CD 11868                     000000000  N000000010 105   0000000000000.00 0000000.00   0000000.00                             000000000000000                                                                                                                                                     01418  000000000000 0000000000000.13     03150 01000                  
05466800079240001E167590675900000034330800141800000010100E068C80090 00000000000.004040404040404040404040404040404040404040404040404006011203A00000000000000000000000404040404040404040404040404040  0002084000000000000000230606179CC8BE3B3DED8782CD6812404040400840A0000000031010000000000000000000404040404040404040404040404040404040404040404040 000000001.00 000000000.004040400000000000000000    80                                                                                                                                                                                                                                                                                                                  
05466810079240002G2675906759000000343308001418000000101GREENWOOD                SC           5 C                00                                      NNNN00 Y 00                   000000000000                                                                   78512540                                                                                                                                                                                                                                                                                                                                                                                                                                               
05466820079240004BH6759067590000003433080014180000090170704202318523000000000000100    0000090001010001N8001416759C07052023001                                                                                                                                                                                                                                                                                                                                                                                                                                                                                                                                                                                              
05466830079240005DT67590675900000034330800141800000010180014124001193185900010100014060620230000000010018523000000000000100473703XXXXXX6685       PS02VK040111111   NYV1 0 E383157620895720N840000000000100TNTM00    05DNJBLISS LLC               031328    VD84000000000100 N  599978503056                            000000000+                F DF 10440                     000000000  Y000000010 338   0000000000000.00 0000000.00   0000000.00                             000000000000000                                                                                                                                                     01418 A000000000000 0000000000000.22     00050 02200                  
05466840079240001E167590675900000034330800141800000010100E0F8C803D4 00000000000.004040404040404040404040404040404040404040404040404006061203A0A000000000000000000000404040404040404040404040404040  0000084018008080008000230606BE7AD180031936B35A5E850C404040400840A000000003101000000000000000000090902020B05040C020200000000000004040401E40404040 000000001.00 000000000.001E00000000000000000000    80                                                                                                                                                                                                                                                                                                                  
05466850079240002G2675906759000000343308001418000000101GREENWOOD                SC           5 D                00                                      NNNN00 N 00                   000000000000                                                                   78503056                                                                                                                                                                                                                                                                                                                                                                                                                                               
05466860079240006BH6759067590000000288180088880000090170704202318523000000000014614    0000090001530005N8008886759C07052023153                                                                                                                                                                                                                                                                                                                                                                                                                                                                                                                                                                                              
05466870079240007DT67590675900000002881800888800000010180088877287283185900015300017070420230000000386018523000000000014614546162XXXXXX0187       MS02WI09          NY 1 0 AMDJQ49G7V0704  N840000000003860          05DNHAPPY HIPPIE             801672    MD84000000003860 N  549976487134                            000000000+M10101C5434C    MDJ  00402                     000000000  N                0000000000000.00 0000000.00   0000000.00                             000000000000000                                                                                                                                                   B101418  000000000000 0000000000000.56     01050 01500                  
05466880079240001E167590675900000002881800888800000010100E0F8C800C1 00000000000.00404040404040404040404040404040404040404040404040400110A00001220000000000000000000000FF00000000000000000000000000  00000840180080000080002307045F9C051155899A39E224A341404040400840A0000000041010000000000000000000D2ED4D95B5E8CCFE03120000000000004040401E40404040 000000038.60 000000000.001E03000000000000000000    80                                                                                                                                                                                                                                                                                                                  
05466890079240002G2675906759000000028818008888000000101SEVIERVILLE              TN           5 J                                                        NNNN              000000000000000000000000                                                                   76487134                                                                                                                                                                                                                                                                                                                                                                                                                                               
05466900079240008DT67590675900000002881800888800000010180088824001193185900015300023070420230000000368118523000000000014614440066XXXXXX6809       VS11    0001111   NYV1 A E303185637991070N840000000003681ZKC400    05DNHAPPY HIPPIE             03876A    VS84000000003681 N  549976487134                            000000000+                A CA 12110                     000000000  N000000000 493   0000000000000.00 0000000.00   0000000.00                             000000000000000                                                                                                                                                     01418 A000000000000 0000000000000.66     01510 01000                  
05466910079240001E167590675900000002881800888800000010100E0F8C80071 00000000000.004040404040404040404040404040404040404040404040404006010A03A08000000000000000000000404040404040404040404040404040  000108401C008080008000230704C397B7B1B3A819F94D5F997D404040400840A000000003101000000000000000000047DB95C4724A4B3330300000000000004040401E40404040 000000036.81 000000000.001E03000000000000000000    80                                                                                                                                                                                                                                                                                                                  
05466920079240002G2675906759000000028818008888000000101SEVIERVILLE              TN           5 C                00                                      NNNN00 Y 00                   000000000000                                                                   76487134                                                                                                                                                                                                                                                                                                                                                                                                                                               
05466930079240009DT67590675900000002881800888800000010180088873011003185900015300037070420230000000120618523000000000014614371306XXXXX1006                          NY 1 0 N005549762838325N840000000001206          07DNHAPPY HIPPIE             829205    AM84000000001206 N  549976487134                            000000000+51010X50034C 258     11261                     000000000                   0000000000000.00 0000000.00   0000000.00                             000000000000000 61248972086759675900000002881 HAPPY HIPPIE             832 PARKWAY              8656540830      37862     HAPPYHIPPIE832@GMAIL.COM                  01418  000000000000 0000000000000.29     01600 00000                  
05466940079240001E167590675900000002881800888800000010100E0E8C80087 00000000000.004040404040404040404040404040404040404040404040404006490103A00002000000000000000000404040404040404040404040404040  000008401D8000000080002307041DD7F7B3B2D7D2D7FDA0D4BB404040400840A0000000250108010000000000000000B335FFEECBC4AB4A30300000000000004040401F40404040 000000012.06 000000000.001F02020000000000000000    80                                                                                                                                                                                                                                                                                                                  
05466950079240002G2675906759000000028818008888000000101SEVIERVILLE              TN           5                  00                                      NNNN                          000000000000                                                                   76487134                                                                                                                                                                                                                                                                                                                                                                                                                                               
05466960079240010DT67590675900000002881800888800000010180088824001193185900015300049070420230000000274318523000000000014614433477XXXXXX9326       VS11    0001111   NYV1 A E583185702489023N840000000002743772600    07DNHAPPY HIPPIE             782589    VD84000000002743 N  549976487134                            000000000+                F DF 10433                     000000000  Y000000000 338   0000000000000.00 0000000.00   0000000.00                             000000000000000                                                                                                                                                     01418 A000000000000 0000000000000.23     00050 02200                  
05466970079240001E167590675900000002881800888800000010100E068C80109 00000000000.004040404040404040404040404040404040404040404040404006011203A00000000000000000000000404040404040404040404040404040  00030840000000000000002307046A7B95C461FCB9CD12D47EB1404040400840A0000000031010000000000000000000404040404040404040404040404040404040404040404040 000000027.43 000000000.004040400000000000000000    80                                                                                                                                                                                                                                                                                                                  
05466980079240002G2675906759000000028818008888000000101SEVIERVILLE              TN           5 D                00                                      NNNN00 N 00                   000000000000                                                                   76487134                                                                                                                                                                                                                                                                                                                                                                                                                                               
05466990079240011DT67590675900000002881800888800000010180088824001193185900015300056070420230000000312418523000000000014614414709XXXXXX7367       VS11    0001111   NYV1 A E583185707640933N840000000003124472H00    07DNHAPPY HIPPIE             07747D    VS84000000003124 N  549976487134                            000000000+                D CD 12113                     000000000  N000000000 499   0000000000000.00 0000000.00   0000000.00                             000000000000000                                                                                                                                                     01418 A000000000000 0000000000000.76     02100 01000                  
05467000079240001E167590675900000002881800888800000010100E068C800D9 00000000000.004040404040404040404040404040404040404040404040404006011203A00000000000000000000000404040404040404040404040404040  00020840200000000000002307046079D7CC58A416C0D17A9118404040400840A0000000031010000000000000000000404040404040404040404040404040404040404040404040 000000031.24 000000000.004040400000000000000000    80                                                                                                                                                                                                                                                                                                                  
05467010079240002G2675906759000000028818008888000000101SEVIERVILLE              TN           5 C                00                                      NNNN00 Y 00                   000000000000                                                                   76487134                                                                                                                                                                                                                                                                                                                                                                                                                                               
05467020079240012BH6759067590000002962980013180000090170704202318523000000000020865    0000090001430005N8001316759C07052023043                                                                                                                                                                                                                                                                                                                                                                                                                                                                                                                                                                                              
05467030079240013DT67590675900000029629800131800000010180013177287283185900014300018070420230000000749018523000000000020865512107XXXXXX3417       MS02WI09          NY 1 0 AMCWBIM27W0704  N840000000007490          05DNPAK VENTURES             00419P    MC84000000007490 N  599978419189                            000000000+M10101C5434C    MCW  00644                     000000000  N                0000000000000.00 0000000.00   0000000.00                             000000000000000                                                                                                                                                   B101418  000000000000 0000000000001.52     01900 01000                  
05467040079240001E167590675900000029629800131800000010100E0F8C80027 00000000000.00404040404040404040404040404040404040404040404040400110A04001220000000000000000000000FF00000000000000000000000000  000108403900000000800023070446B585DBF42268A583B226C3404040400840A0000000041010000000000000000000E8CF92641A45F00E00120000000000004040401E40404040 000000074.90 000000000.001E03000000000000000000    80                                                                                                                                                                                                                                                                                                                  
05467050079240002G2675906759000000296298001318000000101MILTON                   FL           5 W                                                        NNNN              000000000000000000000000                        7                                          78419189                                                                                                                                                                                                                                                                                                                                                                                                                                               
05467060079240014DT67590675900000029629800131800000010180013124001193185900014300024070420230000000107018523000000000020865473702XXXXXX8941       VK04VS111111111   NYV1 A E583185621063854N8400000000010708DM200    05DNPAK VENTURES             095789    VD84000000001070 N  599978419189                            000000000+                F DF 10439                     000000000  Y000000000 331   0000000000000.00 0000000.00   0000000.00                             000000000000000                                                                                                                                                     01418 F000000000000 0000000000000.23     00050 02200                  
05467070079240001E167590675900000029629800131800000010100E0F8C80424 00000000000.004040404040404040404040404040404040404040404040404006061203A0A000000000000000000000404040404040404040404040404040  00000840180080800080002307044BEEF8269FFD1EE6A363B800404040400840A000000003101000000000000000000050A030508050C0A020200000000000004040401E40404040 000000010.70 000000000.001E00000000000000000000    80                                                                                                                                                                                                                                                                                                                  
05467080079240002G2675906759000000296298001318000000101MILTON                   FL           5 D                00                                      NNNN00 N 00                   000000000000                                                                   78419189                                                                                                                                                                                                                                                                                                                                                                                                                                               
05467090079240015DT67590675900000029629800131800000010180013124001193185900014300032070420230000000428018523000000000020865440066XXXXXX7714       VS11    0001111   NYV1 A E463185622622997N840000000004280BNNM00    05DNPAK VENTURES             01054D    VS84000000004280 N  599978419189                            000000000+                D CD 12113                     000000000  N000000000 499   0000000000000.00 0000000.00   0000000.00                             000000000000000                                                                                                                                                     01418 A000000000000 0000000000001.00     02100 01000                  
05467100079240001E167590675900000029629800131800000010100E0F8C8000A 00000000000.004040404040404040404040404040404040404040404040404006011203A0A000000000000000000000404040404040404040404040404040  0001084018008080008000230704B9BA9755949F36B78E869C12404040400840A0000000031010000000000000000000CF6ACD960082000000000000000000004040401E40404040 000000042.80 000000000.001E03000000000000000000    80                                                                                                                                                                                                                                                                                                                  
05467110079240002G2675906759000000296298001318000000101MILTON                   FL           5 C                00                                      NNNN00 Y 00                   000000000000                                                                   78419189                                                                                                                                                                                                                                                                                                                                                                                                                                               
05467120079240016DT67590675900000029629800131800000010180013177287283185900014300042070420230000000535018523000000000020865531260XXXXXX3199       MS02WI09          NY 1 0 AMDJSJHK7V0704  N840000000005350          07DNPAK VENTURES             102027    MD84000000005350 N  599978419189                            000000000+M10101M5434C    MDJ  10815                     000000000  1                0000000000000.00 0000000.00   0000000.00                             000000000000000                                                                                                                                                   B101418  000000000000 0000000000000.25     00050 02200                  
05467130079240001E1675906759000000296298001318000000101000060C80164 00000000000.00404040404040404040404040404040404040404040404040400414A04301A20000000000000000000000FF00000000000000000000000000  00000840198000000080012307042968BFC7692E11342ACB8168404040400840A0000000041010000000000000000000404040404040404040404040404040404040401E40404040 000000053.50 000000000.001E03000000000000000000    80                                                                                                                                                                                                                                                                                                                  
05467140079240002G2675906759000000296298001318000000101MILTON                   FL           5 J                                                        NNNN              000000000000000000000000       03               7                                          78419189                                                                                                                                                                                                                                                                                                                                                                                                                                               
05467150079240017DT67590675900000029629800131800000010180013124001193185900014300057070420230000000267518523000000000020865443264XXXXXX4205       VS11    0001111   NYV1 A E383185692894951N840000000002675G32V00    05DNPAK VENTURES             031453    VD84000000002675 N  599978419189                            000000000+                F DF 10433                     000000000  Y000000000 338   0000000000000.00 0000000.00   0000000.00                             000000000000000                                                                                                                                                     01418 A000000000000 0000000000000.23     00050 02200                  
05467160079240001E167590675900000029629800131800000010100E0F8C800CD 00000000000.004040404040404040404040404040404040404040404040404006011203A00000000000000000000000404040404040404040404040404040  0000084018008080008000230704D6B41C626466F55475722571404040400840A00000000310100000000000000000001DD1CD420080000000000000000000004040401E40404040 000000026.75 000000000.001E00000000000000000000    80                                                                                                                                                                                                                                                                                                                  
05467170079240002G2675906759000000296298001318000000101MILTON                   FL           5 D                00                                      NNNN00 N 00                   000000000000                                                                   78419189                                                                                                                                                                                                                                                                                                                                                                                                                                               
05467180079240018BH6759067590000000288180088880000090170704202318523000000000035781    0000090001640011N8008886759C07052023164                                                                                                                                                                                                                                                                                                                                                                                                                                                                                                                                                                                              
05467190079240019DT67590675900000002881800888800000010180088877287283185900016400014070420230000000120618523000000000035781543144XXXXXX2096       MS02WI09          NY 2 0 AMDJT1SO6L0704  N840000000001206          05DNHAPPY HIPPIE             316998    MD84000000001206 N  549976487158                            000000000+M10101C1334C    MDJ  00505                     000000000  N                0000000000000.00 0000000.00   0000000.00                             000000000000000                                                                                                                                                   B101418  000000000000 0000000000000.23     01550 00400                  
05467200079240001E167590675900000002881800888800000010100E0F8C8066E 00000000000.00404040404040404040404040404040404040404040404040400114A00001220000000000000000000000FF00000000000000000000000000  0000084018008000048000230704CBA8FDE7D5078AFF58986B0F404040400840A00000000410100000000000000000002079E0C2BBB03A86031A0000000000004040400240404040 000000012.06 000000000.000203000000000000000000    80                                                                                                                                                                                                                                                                                                                  
05467210079240002G2675906759000000028818008888000000101SEVIERVILLE              TN           5 J                                                        NNNN              000000000000000000000000                        7                                          76487158                                                                                                                                                                                                                                                                                                                                                                                                                                               
05467220079240020DT67590675900000002881800888800000010180088877287283185900016400022070420230000000043818523000000000035781544579XXXXXX5626       MS02WI09          NY 1 0 AMDJWTPW8V0704  N840000000000438          05DNHAPPY HIPPIE             169426    MD84000000000438 N  549976487158                            000000000+M10101C5434C    MDJ  10831                     000000000  1                0000000000000.00 0000000.00   0000000.00                             000000000000000                                                                                                                                                   B101418  000000000000 0000000000000.22     00050 02200                  
05467230079240001E167590675900000002881800888800000010100E0F8C80238 00000000000.00404040404040404040404040404040404040404040404040400110A00001220000000000000000000000FF00000000000000000000000000  0000084018008000008000230704337D98799FC20815FEDF8C8C404040400840A0000000041010000000000000000000D291C6DB758B693603120000000000004040401E40404040 000000004.38 000000000.001E03000000000000000000    80                                                                                                                                                                                                                                                                                                                  
05467240079240002G2675906759000000028818008888000000101SEVIERVILLE              TN           5 J                                                        NNNN              000000000000000000000000                        7                                          76487158                                                                                                                                                                                                                                                                                                                                                                                                                                               
05467250079240021DT67590675900000002881800888800000010180088877287283185900016400030070420230000000120518523000000000035781517805XXXXXX1564       MS02WI09          NY 1 0 AMPLALUR7W0704  N840000000001205          05DNHAPPY HIPPIE             07701B    MC84000000001205 N  549976487158                            000000000+M10101C5434C    MPL  00364                     000000000  N                0000000000000.00 0000000.00   0000000.00                             000000000000000                                                                                                                                                   B101418  000000000000 0000000000000.26     01800 00400                  
05467260079240001E167590675900000002881800888800000010100E0F8C80025 00000000000.00404040404040404040404040404040404040404040404040400110A04001220000000000000000000000FF00000000000000000000000000  00010840390000000080002307044394FBEE5CF6CBFDDADB35DA404040400840A000000004101000000000000000000057D69D78FE17244400120000000000004040401E40404040 000000012.05 000000000.001E03000000000000000000    80                                                                                                                                                                                                                                                                                                                  
05467270079240002G2675906759000000028818008888000000101SEVIERVILLE              TN           5 L                                                        NNNN              000000000000000000000000                        7                                          76487158                                                                                                                                                                                                                                                                                                                                                                                                                                               
05467280079240022DT67590675900000002881800888800000010180088824001193185900016400046070420230000000350718523000000000035781410839XXXXXX0767       VS11    0001111   NYV1 A E463185642081282N8400000000035075KWW00    05DNHAPPY HIPPIE             501003    VD84000000003507 N  549976487158                            000000000+                F DF 00381                     000000000  N000000000       0000000000000.00 0000000.00   0000000.00                             000000000000000                                                                                                                                                     01418 A000000000000 0000000000000.43     00800 01500                  
05467290079240001E167590675900000002881800888800000010100E0F8C80080 00000000000.004040404040404040404040404040404040404040404040404006010A03A08000000000000000000000404040404040404040404040404040  000008401800808000800023070443F972016B7A020202F33CAF404040400840A0000000031010000000000000000000DB76D3C863F0E6C230300000000000004040401E40404040 000000035.07 000000000.001E00000000000000000000    80                                                                                                                                                                                                                                                                                                                  
05467300079240002G2675906759000000028818008888000000101SEVIERVILLE              TN           5 D                00                                      NNNN00 N 00                   000000000000                                                                   76487158                                                                                                                                                                                                                                                                                                                                                                                                                                               
05467310079240023DT67590675900000002881800888800000010180088824001193185900016400053070420230000000043818523000000000035781440393XXXXXX5823       VK04VS111111111   NYV1 A E383185671618262N840000000000438B35700    07DNHAPPY HIPPIE             234537    VD84000000000438 N  549976487158                            000000000+                F PF 08165                     000000000  N000000000       0000000000000.00 0000000.00   0000000.00                             000000000000000                                                                                                                                                     01418 F000000000000 0000000000000.12     01600 00500                  
05467320079240001E167590675900000002881800888800000010100E068C80155 00000000000.004040404040404040404040404040404040404040404040404006011203A00000000000000000000000404040404040404040404040404040  0000084020000000000000230704DCE265035249D6DD33DECF0A404040400840A00000000310100000000000000000004EE59382424ACFB930300000000000004040404040404040 000000004.38 000000000.004040400000000000000000    80                                                                                                                                                                                                                                                                                                                  
05467330079240002G2675906759000000028818008888000000101SEVIERVILLE              TN           5 P                00                                      NNNN00 N 00                   000000000000                                                                   76487158                                                                                                                                                                                                                                                                                                                                                                                                                                               
05467340079240024DT67590675900000002881800888800000010180088824001193185900016400061070420230000000463018523000000000035781466188XXXXXX0534               1001111   NYV1 A K463185703351727N840000000004630SBS800    01DNHAPPY HIPPIE             009224    VD84000000004630 NDR549976487158                            000000000+                F DF 10436                     000000000  Y000000000 338   0000000000000.00 0000000.00   0000000.00                             000000000000000                                                                                                                                                     01418 E000000000000 0000000000000.24     00050 02200                  
05467350079240024DR675906759000000028818008888000000101                         Z000000000000                                                                                                                                                                                                                                                                                                                                                                                                                                                                                                                                                                                                                               
05467360079240001G2675906759000000028818008888000000101865-3663142              TN           5 D                00                                      NNNN   N                      000000000000                                                                   76487158                                                                                                                                                                                                                                                                                                                                                                                                                                               
05467370079240025DT67590675900000002881800888800000010180088877287283185900016400071070420230000000567618523000000000035781512876XXXXXX1532       MS02WI09          NY 2 0 AMDJYSYWCW0704  N840000000005676          05DNHAPPY HIPPIE             981144    MD84000000005676 N  549976487158                            000000000+M10101C1334C    MDJ  10815                     000000000  1                0000000000000.00 0000000.00   0000000.00                             000000000000000                                                                                                                                                     01418  000000000000 0000000000000.25     00050 02200                  
05467380079240001E167590675900000002881800888800000010100E0F8C80198 00000000000.00404040404040404040404040404040404040404040404040400110A00001220000000000000000000000FF00000000000000000000000000  000008401800800004800023070412C03B9B01EE702D799B1B17404040400840A0000000041010000000000000000000C82F3EDFE1B1A23F03120000000000004040400240404040 000000056.76 000000000.000203000000000000000000    80                                                                                                                                                                                                                                                                                                                  
05467390079240002G2675906759000000028818008888000000101SEVIERVILLE              TN           5 J                                                        NNNN              000000000000000000000000                        7                                          76487158                                                                                                                                                                                                                                                                                                                                                                                                                                               
05467400079240026DT67590675900000002881800888800000010180088824001193185900016400087070420230000000607518523000000000035781419090XXXXXX5616       VS11    0001111   NYV1 A E303185768888750N840000000006075GJDL00    05DNHAPPY HIPPIE             600167    VD84000000006075 N  549976487158                            000000000+                F DF 00381                     000000000  N000000000       0000000000000.00 0000000.00   0000000.00                             000000000000000                                                                                                                                                     01418 A000000000000 0000000000000.64     00800 01500                  
05467410079240001E167590675900000002881800888800000010100E0F8C80046 00000000000.004040404040404040404040404040404040404040404040404006011203A02000000000000000000000404040404040404040404040404040  00010840180080800080002307040555DBEBF0889D8800BA8816404040400840A0000000031010000000000000000000C5EED8C30080000000000000000000004040401E40404040 000000060.75 000000000.001E00000000000000000000    80                                                                                                                                                                                                                                                                                                                  
05467420079240002G2675906759000000028818008888000000101SEVIERVILLE              TN           5 D                00                                      NNNN00 N 00                   000000000000                                                                   76487158                                                                                                                                                                                                                                                                                                                                                                                                                                               
05467430079240027DT67590675900000002881800888800000010180088877287283185900016400097070420230000000427818523000000000035781554884XXXXXX6145       MS02WI09          NY 2 0 AMDJSGAZCW0704  N840000000004278          05DNHAPPY HIPPIE             830209    MD84000000004278 N  549976487158                            000000000+M10101C1334C    MDJ  00402                     000000000  N                0000000000000.00 0000000.00   0000000.00                             000000000000000                                                                                                                                                     01418  000000000000 0000000000000.60     01050 01500                  
05467440079240001E167590675900000002881800888800000010100E0F8C8007B 00000000000.00404040404040404040404040404040404040404040404040400110A00001220000000000000000000000FF00000000000000000000000000  00000840180080000480002307043479D2033F3AA81818E1BDFC404040400840A0000000041010000000000000000000CEA0F3322BE5044303120000000000004040400240404040 000000042.78 000000000.000203000000000000000000    80                                                                                                                                                                                                                                                                                                                  
05467450079240002G2675906759000000028818008888000000101SEVIERVILLE              TN           5 J                                                        NNNN              000000000000000000000000                        7                                          76487158                                                                                                                                                                                                                                                                                                                                                                                                                                               
05467460079240028DT67590675900000002881800888800000010180088877287283185900016400105070420230000000470818523000000000035781517805XXXXXX9551       MS02WI09          NY 1 0 AMPLX8WBCZ0704  N840000000004708          07DNHAPPY HIPPIE             07322B    MC84000000004708 N  549976487158                            000000000+M10101M0034C    MPL  00364                     000000000  N                0000000000000.00 0000000.00   0000000.00                             000000000000000                                                                                                                                                   B101418  000000000000 0000000000000.89     01800 00400                  
05467470079240001E1675906759000000028818008888000000101000008480002 00000000000.00404040404040404040404040404040404040404040404040400110A04001220800000000000000000000FF00000000000000000000000000  00010840198000000080012307044E5276920DCB12B8A42A4638404040400840A0000000041010000000000000000000404040404040404040404040404040404040401F40404040 000000047.08 000000000.001F03020000000000000000    80                                                                                                                                                                                                                                                                                                                  
05467480079240002G2675906759000000028818008888000000101SEVIERVILLE              TN           5 L                                                        NNNN              000000000000000000000000       03               7                                          76487158                                                                                                                                                                                                                                                                                                                                                                                                                                               
05467490079240029DT67590675900000002881800888800000010180088824001193185900016400111070420230000000362018523000000000035781442346XXXXXX4233       VS11    0001111   NYV1 A E463185802517092N840000000003620Q2KF00    05DNHAPPY HIPPIE             677980    VD84000000003620 N  549976487158                            000000000+                F DF 00381                     000000000  N000000000       0000000000000.00 0000000.00   0000000.00                             000000000000000                                                                                                                                                     01418 A000000000000 0000000000000.44     00800 01500                  
05467500079240001E167590675900000002881800888800000010100E0F8C8018A 00000000000.004040404040404040404040404040404040404040404040404006011203A0A000000000000000000000404040404040404040404040404040  0001084018008080008000230704C385520E4E945CE4FB4222EB404040400840A0000000031010000000000000000000B1CAC5740082000000000000000000004040401E40404040 000000036.20 000000000.001E00000000000000000000    80                                                                                                                                                                                                                                                                                                                  
05467510079240002G2675906759000000028818008888000000101SEVIERVILLE              TN           5 D                00                                      NNNN00 N 00                   000000000000                                                                   76487158                                                                                                                                                                                                                                                                                                                                                                                                                                               
05467520079240030BH6759067590000000288180088880000090170704202318523000000000208213    0000090001530041N8008886759C07052023053                                                                                                                                                                                                                                                                                                                                                                                                                                                                                                                                                                                              
05467530079240031DT67590675900000002881800888800000010180088824001193185900015300015070420230000000307118523000000000208213441946XXXXXX9204       VS11    0001111   NYV1 A E463185523242058N8400000000030715BS900    05DNHAPPY HIPPIE             832142    VD84000000003071 N  549976487169                            000000000+                F DF 00381                     000000000  N000000000       0000000000000.00 0000000.00   0000000.00                             000000000000000                                                                                                                                                     01418 A000000000000 0000000000000.40     00800 01500                  
05467540079240001E167590675900000002881800888800000010100E0F8C800A2 00000000000.004040404040404040404040404040404040404040404040404006011203A0A000000000000000000000404040404040404040404040404040  0000084018008080008000230704271DBAF169C8850F7FE21056404040400840A00000000310100000000000000000007F2542A00382000000000000000000004040401E40404040 000000030.71 000000000.001E00000000000000000000    80                                                                                                                                                                                                                                                                                                                  
05467550079240002G2675906759000000028818008888000000101SEVIERVILLE              TN           5 D                00                                      NNNN00 N 00                   000000000000                                                                   76487169                                                                                                                                                                                                                                                                                                                                                                                                                                               
05467560079240032DT67590675900000002881800888800000010180088824001193185900015300023070420230000001184618523000000000208213419090XXXXXX7537       VS11    0001111   NYV1 A E463185529624478N840000000011846WD5700    05DNHAPPY HIPPIE             589486    VD84000000011846 N  549976487169                            000000000+                F DF 00381                     000000000  N000000000       0000000000000.00 0000000.00   0000000.00                             000000000000000                                                                                                                                                     01418 A000000000000 0000000000001.10     00800 01500                  
05467570079240001E167590675900000002881800888800000010100E0F8C802C2 00000000000.004040404040404040404040404040404040404040404040404006010A03A0A000000000000000000000404040404040404040404040404040  0001084018008080008000230704FE29C09E805FE65D6CBFE561404040400840A0000000031010000000000000000000A61460662F8A06BA30300000000000004040401E40404040 000000118.46 000000000.001E00000000000000000000    80                                                                                                                                                                                                                                                                                                                  
05467580079240002G2675906759000000028818008888000000101SEVIERVILLE              TN           5 D                00                                      NNNN00 N 00                   000000000000                                                                   76487169                                                                                                                                                                                                                                                                                                                                                                                                                                               
05467590079240033DT67590675900000002881800888800000010180088824001193185900015300031070420230000000300018523000000000208213422921XXXXXX5630       VS11    0001111   NYV1 A E463185536275667N8400000000030007LXM00    05DNHAPPY HIPPIE             039228    VD84000000003000 N  549976487169                            000000000+                F DF 00381                     000000000  N000000000       0000000000000.00 0000000.00   0000000.00                             000000000000000                                                                                                                                                     01418 A000000000000 0000000000000.39     00800 01500                  
05467600079240001E167590675900000002881800888800000010100E0F8C80186 00000000000.004040404040404040404040404040404040404040404040404006011203A08000000000000000000000404040404040404040404040404040  00000840180080800080002307048C26A4B200F90B7FC98B0944404040400840A0000000031010000000000000000000C8E8BB210382000000000000000000004040401E40404040 000000030.00 000000000.001E00000000000000000000    80                                                                                                                                                                                                                                                                                                                  
05467610079240002G2675906759000000028818008888000000101SEVIERVILLE              TN           5 D                00                                      NNNN00 N 00                   000000000000                                                                   76487169                                                                                                                                                                                                                                                                                                                                                                                                                                               
05467620079240034DT67590675900000002881800888800000010180088824001193185900015300049070420230000000150018523000000000208213413037XXXXXX4265       VK04VS111111111   NYV1 A E463185539003936N8400000000015008D6L00    05DNHAPPY HIPPIE             040892    VD84000000001500 N  549976487169                            000000000+                F DF 10439                     000000000  Y000000000 331   0000000000000.00 0000000.00   0000000.00                             000000000000000                                                                                                                                                     01418 F000000000000 0000000000000.23     00050 02200                  
05467630079240001E167590675900000002881800888800000010100E0F8C8008F 00000000000.004040404040404040404040404040404040404040404040404006011203A02000000000000000000000404040404040404040404040404040  000008401800808000800023070499BB53C2B9B34C0B010B74C4404040400840A0000000031010000000000000000000952182CF17F4D4A730300000000000004040401E40404040 000000015.00 000000000.001E00000000000000000000    80                                                                                                                                                                                                                                                                                                                  
05467640079240002G2675906759000000028818008888000000101SEVIERVILLE              TN           5 D                00                                      NNNN00 N 00                   000000000000                                                                   76487169                                                                                                                                                                                                                                                                                                                                                                                                                                               
05467650079240035DT67590675900000002881800888800000010180088824001193185900015300056070420230000000902618523000000000208213438854XXXXXX7266       VS11    0001111   NYV1 A E463185540394431N840000000009026F97W00    07DNHAPPY HIPPIE             01175I    VS84000000009026 N  549976487169                            000000000+                I CI 12777                     000000000  N000000000 690   0000000000000.00 0000000.00   0000000.00                             000000000000000                                                                                                                                                     01418 A000000000000 0000000000002.00     02100 01000                  
05467660079240001E167590675900000002881800888800000010100E068C8007B 00000000000.004040404040404040404040404040404040404040404040404006021203A00000000000000000000000404040404040404040404040404040  0001084020000000000000230704E6438403B1C7268728ABE6C7404040400840A00000000310100000000000000000005596E87D0082000000000000000000004040404040404040 000000090.26 000000000.004040400000000000000000    80                                                                                                                                                                                                                                                                                                                  
05467670079240002G2675906759000000028818008888000000101SEVIERVILLE              TN           5 C                00                                      NNNN00QY 00                   000000000000                                                                   76487169                                                                                                                                                                                                                                                                                                                                                                                                                                               
05467680079240036DT67590675900000002881800888800000010180088873011003185900015300060070420230000000381918523000000000208213379586XXXXX4002                          NY 1 0 N005611448444306N840000000003819          07DNHAPPY HIPPIE             836172    AM84000000003819 N  549976487169                            000000000+51010X50034C 258     11261                     000000000                   0000000000000.00 0000000.00   0000000.00                             000000000000000 61248972086759675900000002881 HAPPY HIPPIE             832 PARKWAY              8656540830      37862     HAPPYHIPPIE832@GMAIL.COM                  01418  000000000000 0000000000000.71     01600 00000                  
05467690079240001E167590675900000002881800888800000010100E0E8C8004D 00000000000.004040404040404040404040404040404040404040404040404006460103A00006000000000000000000404040404040404040404040404040  000008401D80000000800023070493F2EBC74034AB4C37323138404040400840A000000025010801000000000000000069CE8E7DC665B2DC30300000000000004040401F40404040 000000038.19 000000000.001F02020000000000000000    80                                                                                                                                                                                                                                                                                                                  
05467700079240002G2675906759000000028818008888000000101SEVIERVILLE              TN           5                  00                                      NNNN                          000000000000                                                                   76487169                                                                                                                                                                                                                                                                                                                                                                                                                                               
05467710079240037DT67590675900000002881800888800000010180088824001193185900015300072070420230000002239718523000000000208213443238XXXXXX3683       VS11    0001111   NYV1 A E303185550314663N840000000022397FVWC00    05DNHAPPY HIPPIE             011711    VD84000000022397 N  549976487169                            000000000+                F DF 00381                     000000000  N000000000       0000000000000.00 0000000.00   0000000.00                             000000000000000                                                                                                                                                     01418 A000000000000 0000000000001.94     00800 01500                  
05467720079240001E167590675900000002881800888800000010100E0F8C80087 00000000000.004040404040404040404040404040404040404040404040404006011203A02000000000000000000000404040404040404040404040404040  00000840180080800080002307044137217CA1754CDFB456F19B404040400840A0000000031010000000000000000000404040404040404040404040404040404040401E40404040 000000223.97 000000000.001E00000000000000000000    80                                                                                                                                                                                                                                                                                                                  
05467730079240002G2675906759000000028818008888000000101SEVIERVILLE              TN           5 D                00                                      NNNN00 N 00                   000000000000                                                                   76487169                                                                                                                                                                                                                                                                                                                                                                                                                                               
05467740079240038DT67590675900000002881800888800000010180088824001193185900015300080070420230000000252318523000000000208213490070XXXXXX1638       VS11    0001111   NYV1 A E303185551431256N840000000002523HNQX00    05DNHAPPY HIPPIE             031911    VD84000000002523 N  549976487169                            000000000+                F DF 10433                     000000000  Y000000000 338   0000000000000.00 0000000.00   0000000.00                             000000000000000                                                                                                                                                     01418 A000000000000 0000000000000.23     00050 02200                  
05467750079240001E167590675900000002881800888800000010100E0F8C803AD 00000000000.004040404040404040404040404040404040404040404040404006011203A00000000000000000000000404040404040404040404040404040  00000840180080800080002307041DAA042E0B2394382B238786404040400840A0000000031010000000000000000000709040000080000020200000000000004040401E40404040 000000025.23 000000000.001E00000000000000000000    80                                                                                                                                                                                                                                                                                                                  
05467760079240002G2675906759000000028818008888000000101SEVIERVILLE              TN           5 D                00                                      NNNN00 N 00                   000000000000                                                                   76487169                                                                                                                                                                                                                                                                                                                                                                                                                                               
05467770079240039DT67590675900000002881800888800000010180088824001193185900015300098070420230000000135318523000000000208213435546XXXXXX4132       VK04VS111111111   NYV1 A E463185552901324N840000000001353DQN200    05DNHAPPY HIPPIE             079146    VD84000000001353 N  549976487169                            000000000+                F DF 10439                     000000000  Y000000000 331   0000000000000.00 0000000.00   0000000.00                             000000000000000                                                                                                                                                     01418 F000000000000 0000000000000.23     00050 02200                  
05467780079240001E167590675900000002881800888800000010100E0F8C80082 00000000000.004040404040404040404040404040404040404040404040404006011203A08000000000000000000000404040404040404040404040404040  000108401800808000800023070472442349D7682A8E67EE2710404040400840A000000003101000000000000000000019D323C50082000000000000000000004040401E40404040 000000013.53 000000000.001E00000000000000000000    80                                                                                                                                                                                                                                                                                                                  
05467790079240002G2675906759000000028818008888000000101SEVIERVILLE              TN           5 D                00                                      NNNN00 N 00                   000000000000                                                                   76487169                                                                                                                                                                                                                                                                                                                                                                                                                                               
05467800079240040DT67590675900000002881800888800000010180088824001193185900015300106070420230000000325818523000000000208213443264XXXXXX1106       VS11    0001111   NYV1 A E583185555731222N840000000003258B4MG00    05DNHAPPY HIPPIE             028710    VD84000000003258 N  549976487169                            000000000+                F DF 10433                     000000000  Y000000000 338   0000000000000.00 0000000.00   0000000.00                             000000000000000                                                                                                                                                     01418 A000000000000 0000000000000.24     00050 02200                  
05467810079240001E167590675900000002881800888800000010100E0F8C80063 00000000000.004040404040404040404040404040404040404040404040404006011203A08000000000000000000000404040404040404040404040404040  0000084018008080008000230704AD9C438513662C83D3D12132404040400840A000000003101000000000000000000064493EFB0080000000000000000000004040401E40404040 000000032.58 000000000.001E00000000000000000000    80                                                                                                                                                                                                                                                                                                                  
05467820079240002G2675906759000000028818008888000000101SEVIERVILLE              TN           5 D                00                                      NNNN00 N 00                   000000000000                                                                   76487169                                                                                                                                                                                                                                                                                                                                                                                                                                               
05467830079240041DT67590675900000002881800888800000010180088877287283185900015300116070420230000000670018523000000000208213539785XXXXXX0503       MS02WI09          NY 2 0 AMDJWVH48V0704  N840000000006700          05DNHAPPY HIPPIE             169427    MD84000000006700 N  549976487169                            000000000+M10101C1334C    MDJ  00402                     000000000  N                0000000000000.00 0000000.00   0000000.00                             000000000000000                                                                                                                                                     01418  000000000000 0000000000000.85     01050 01500                  
05467840079240001E167590675900000002881800888800000010100E0F8C8009F 00000000000.00404040404040404040404040404040404040404040404040400110A00001220000000000000000000000FF00000000000000000000000000  0001084018008000048000230704E2E17F1201A8B6565D4493C2404040400840A00000000410100000000000000000006CEEFCAFAF072E3703120000000000004040400240404040 000000067.00 000000000.000203000000000000000000    80                                                                                                                                                                                                                                                                                                                  
05467850079240002G2675906759000000028818008888000000101SEVIERVILLE              TN           5 J                                                        NNNN              000000000000000000000000                                                                   76487169                                                                                                                                                                                                                                                                                                                                                                                                                                               
05467860079240042DT67590675900000002881800888800000010180088877287283185900015300124070420230000000910418523000000000208213542418XXXXXX1278       MS02WI09          NY 1 0 AMWEPWGT7V0704  N840000000009104          07DNHAPPY HIPPIE             66270P    MC84000000009104 N  549976487169                            000000000+M10101M5434C    MWE  00743                     000000000  N                0000000000000.00 0000000.00   0000000.00                             000000000000000                                                                                                                                                   B101418  000000000000 0000000000002.13     02300 00400                  
05467870079240001E1675906759000000028818008888000000101000060C8011C 00000000000.00404040404040404040404040404040404040404040404040400110A04001222000000000000000327100FF00000000000000000000000000  0002084019800000008001230704303D0195655E62A0BD2B62CD404040400840A00000000410100000000000000000006CE7724BCB872ABF00120000000000004040401E40404040 000000091.04 000000000.001E03000000000000000000    80                                                                                                                                                                                                                                                                                                                  
05467880079240002G2675906759000000028818008888000000101SEVIERVILLE              TN           5 E                                                        NNNN              000000000000000000000000       03               7                                          76487169                                                                                                                                                                                                                                                                                                                                                                                                                                               
05467890079240043DT67590675900000002881800888800000010180088824001193185900015300130070420230000000059018523000000000208213480639XXXXXX1311       VK04VS111111111   NYV1 A E303185608425854N8400000000005905VLJ00    05DNHAPPY HIPPIE             563854    VD84000000000590 N  549976487169                            000000000+                F DF 00451                     000000000  N000000000 214   0000000000000.00 0000000.00   0000000.00                             000000000000000                                                                                                                                                     01418 F000000000000 0000000000000.13     01550 00400                  
05467900079240001E167590675900000002881800888800000010100E0F8C8034D 00000000000.004040404040404040404040404040404040404040404040404006011203A0A000000000000000000000404040404040404040404040404040  0000084018008080008000230704172E2B04073B15EA1D99BC18404040400840A0000000031010000000000000000000B200E9B40080000000000000000000004040401E40404040 000000005.90 000000000.001E00000000000000000000    80                                                                                                                                                                                                                                                                                                                  
05467910079240002G2675906759000000028818008888000000101SEVIERVILLE              TN           5 D                00                                      NNNN00 N 00                   000000000000                                                                   76487169                                                                                                                                                                                                                                                                                                                                                                                                                                               
05467920079240044DT67590675900000002881800888800000010180088824001193185900015300148070420230000000668918523000000000208213414709XXXXXX4824       VS11    0001111   NYV1 A E463185613907460N840000000006689TB6M00    05DNHAPPY HIPPIE             09333D    VS84000000006689 N  549976487169                            000000000+                D CD 12113                     000000000  N000000000 499   0000000000000.00 0000000.00   0000000.00                             000000000000000                                                                                                                                                     01418 A000000000000 0000000000001.50     02100 01000                  
05467930079240001E167590675900000002881800888800000010100E0F8C80001 00000000000.004040404040404040404040404040404040404040404040404006011203A03002000000000000000000404040404040404040404040404040  00010840380000800080002307045B14D2DA83D035CF75F48ACC404040400840A000000003101000000000000000000078332AFA0082000000000000000000004040401E40404040 000000066.89 000000000.001E00000000000000000000    80                                                                                                                                                                                                                                                                                                                  
05467940079240002G2675906759000000028818008888000000101SEVIERVILLE              TN           5 C                00                                      NNNN00 Y 00                   000000000000                                                                   76487169                                                                                                                                                                                                                                                                                                                                                                                                                                               
05467950079240045DT67590675900000002881800888800000010180088824001193185900015300155070420230000000462918523000000000208213469598XXXXXX5775       VS11    0001111   NYV1 A E583185618240786N840000000004629V67600    05DNHAPPY HIPPIE             087887    VD84000000004629 N  549976487169                            000000000+                F DF 00381                     000000000  N000000000       0000000000000.00 0000000.00   0000000.00                             000000000000000                                                                                                                                                     01418 A000000000000 0000000000000.52     00800 01500                  
05467960079240001E167590675900000002881800888800000010100E0F8C8020D 00000000000.004040404040404040404040404040404040404040404040404006011203A0A000000000000000000000404040404040404040404040404040  0000084018008080008000230704D6ED43DA276FD9D3792B754A404040400840A0000000031010000000000000000000255236863F83538800800000000000004040401E40404040 000000046.29 000000000.001E00000000000000000000    80                                                                                                                                                                                                                                                                                                                  
05467970079240002G2675906759000000028818008888000000101SEVIERVILLE              TN           5 D                00                                      NNNN00 N 00                   000000000000                                                                   76487169                                                                                                                                                                                                                                                                                                                                                                                                                                               
05467980079240046DT67590675900000002881800888800000010180088824001193185900015300163070420230000000987518523000000000208213443238XXXXXX1229       VS11    0001111   NYV1 A E383185619206124N840000000009875P2J900    07DNHAPPY HIPPIE             031200    VD84000000009875 N  549976487169                            000000000+                F DF 00381                     000000000  N000000000       0000000000000.00 0000000.00   0000000.00                             000000000000000                                                                                                                                                     01418 A000000000000 0000000000000.94     00800 01500                  
05467990079240001E167590675900000002881800888800000010100E068C800DF 00000000000.004040404040404040404040404040404040404040404040404006011203A00000000000000000000000404040404040404040404040404040  0000084000000000000000230704A1D838393725B3DC925CB9A6404040400840A0000000031010000000000000000000404040404040404040404040404040404040404040404040 000000098.75 000000000.004040400000000000000000    80                                                                                                                                                                                                                                                                                                                  
05468000079240002G2675906759000000028818008888000000101SEVIERVILLE              TN           5 D                00                                      NNNN00 N 00                   000000000000                                                                   76487169                                                                                                                                                                                                                                                                                                                                                                                                                                               
05468010079240047DT67590675900000002881800888800000010180088824001193185900015300171070420230000000624918523000000000208213480639XXXXXX4200       VS11    0001111   NYV1 A E383185628849868N840000000006249KPHQ00    05DNHAPPY HIPPIE             564684    VD84000000006249 N  549976487169                            000000000+                F DF 00381                     000000000  N000000000       0000000000000.00 0000000.00   0000000.00                             000000000000000                                                                                                                                                     01418 A000000000000 0000000000000.65     00800 01500                  
05468020079240001E167590675900000002881800888800000010100E0F8C800B7 00000000000.004040404040404040404040404040404040404040404040404006011203A02000000000000000000000404040404040404040404040404040  0000084018008080008000230704F8F110EF696D3130D6CFE5D8404040400840A00000000310100000000000000000001DF656BA0080000000000000000000004040401E40404040 000000062.49 000000000.001E00000000000000000000    80                                                                                                                                                                                                                                                                                                                  
05468030079240002G2675906759000000028818008888000000101SEVIERVILLE              TN           5 D                00                                      NNNN00 N 00                   000000000000                                                                   76487169                                                                                                                                                                                                                                                                                                                                                                                                                                               
