02407640023080002BH6759067590000000288180088880000090170201202303223000000000138207    0000090001340031N8008886759C02022023                                                                                                                                                                                                                                                                                                                                                                                                                                                                                                                                                                                                 
02407650023080003DT67590675900000002881800888800000010180088824001193032900013400010020120230000000668303223000000000138207443238XXXXXX8270       VS11    0001111   NYV1 A E463032559950819N840000000006683Q48Z00    05DNHAPPY HIPPIE             003315    VD84000000006683 N  549976487158                            000000000+                F DF 00381                     000000000  N000000000       0000000000000.00 0000000.00   0000000.00                             000000000000000                                                                                                                                                     01418 A000000000000 0000000000000.68     00800 01500                  
02407660023080004DT67590675900000002881800888800000010180088824001193032900013400028020120230000000387203223000000000138207422921XXXXXX6878       VS11    0001111   NYV1 A E463032563077041N840000000003872WWZS00    05DNHAPPY HIPPIE             038309    VD84000000003872 N  549976487158                            000000000+                F DF 00381                     000000000  N000000000       0000000000000.00 0000000.00   0000000.00                             000000000000000                                                                                                                                                     01418 A000000000000 0000000000000.46     00800 01500                  
02407670023080005DT67590675900000002881800888800000010180088824001193032900013400036020120230000000316103223000000000138207415978XXXXXX3184       VS11    0001111   NYV1 A E383032567797329N840000000003161Q6KZ00    05DNHAPPY HIPPIE             079464    VD84000000003161 N  549976487158                            000000000+                F DF 10433                     000000000  Y000000000 338   0000000000000.00 0000000.00   0000000.00                             000000000000000                                                                                                                                                     01418 A000000000000 0000000000000.24     00050 02200                  
02407680023080006DT67590675900000002881800888800000010180088824001193032900013400044020120230000000069103223000000000138207443264XXXXXX0719       VK04VS111111111   NYV1 A E303032582798620N8400000000006916RSN00    05DNHAPPY HIPPIE             021379    VD84000000000691 N  549976487158                            000000000+                F DF 10439                     000000000  Y000000000 331   0000000000000.00 0000000.00   0000000.00                             000000000000000                                                                                                                                                     01418 F000000000000 0000000000000.22     00050 02200                  
02407690023080007DT67590675900000002881800888800000010180088877287283032900013400053020120230000000395003223000000000138207533248XXXXXX9471       MS02WI09          NY 2 0 AMPVOXNL7O0201  N840000000003950          05DNHAPPY HIPPIE             HSB6GU    MD84000000003950 N  549976487158                            000000000+M10101C1334C    MPV  11964                     000000000  N                0000000000000.00 0000000.00   0000000.00                             000000000000000                                                                                                                                                     01418  000000000000 0000000000000.60     01150 01500                  
02407700023080008DT67590675900000002881800888800000010180088824001193032900013400069020120230000000790103223000000000138207440066XXXXXX3921       VS11    0001111   NYV1 A E463032602077951N840000000007901XWKB00    05DNHAPPY HIPPIE             00928D    VS84000000007901 N  549976487158                            000000000+                D CD 12113                     000000000  N000000000 499   0000000000000.00 0000000.00   0000000.00                             000000000000000                                                                                                                                                     01418 A000000000000 0000000000001.76     02100 01000                  
02407710023080009DT67590675900000002881800888800000010180088824001193032900013400077020120230000000175903223000000000138207410489XXXXXX2244       VS11    0001111   NYV1 A E303032603620760N840000000001759J2M300    05DNHAPPY HIPPIE             031532    VD84000000001759 N  549976487158                            000000000+                F PF 08170                     000000000  N000000000       0000000000000.00 0000000.00   0000000.00                             000000000000000                                                                                                                                                     01418 A000000000000 0000000000000.35     01150 01500                  
02407720023080010DT67590675900000002881800888800000010180088824001193032900013400085020120230000000158003223000000000138207422921XXXXXX6466       VS11    0001111   NYV1 A E463032615486502N840000000001580TS9X00    05DNHAPPY HIPPIE             043549    VD84000000001580 N  549976487158                            000000000+                F DF 00381                     000000000  N000000000       0000000000000.00 0000000.00   0000000.00                             000000000000000                                                                                                                                                     01418 A000000000000 0000000000000.28     00800 01500                  
02407730023080011DT67590675900000002881800888800000010180088877287283032900013400095020120230000000344403223000000000138207555426XXXXXX9982       MS02WI09          NY 1 0 AMPGJNBY3I0201  N840000000003444          90DNHAPPY HIPPIE             013940    MD84000000003444 N  549976487158                            000000000+M10101B5434C    MPG  11964                     000000000  N                0000000000000.00 0000000.00   0000000.00                             000000000000000                                                                                                                                                   C101418  000000000000 0000000000000.55     01150 01500                  
02407740023080012DT67590675900000002881800888800000010180088877287283032900013400103020120230000000987603223000000000138207517805XXXXXX0214       MS02WI09          NY 1 0 AMCWA9VS5W0201  N840000000009876          05DNHAPPY HIPPIE             08378P    MC84000000009876 N  549976487158                            000000000+M10101C5434C    MCW  00646                     000000000  N                0000000000000.00 0000000.00   0000000.00                             000000000000000                                                                                                                                                   B101418  000000000000 0000000000001.92     01900 00400                  
02407750023080013DT67590675900000002881800888800000010180088824001193032900013400119020120230000000266603223000000000138207480639XXXXXX6469       VS11    0001111   NYV1 A E463032705191631N8400000000026668BVL00    05DNHAPPY HIPPIE             860407    VD84000000002666 N  549976487158                            000000000+                F DF 00381                     000000000  N000000000       0000000000000.00 0000000.00   0000000.00                             000000000000000                                                                                                                                                     01418 A000000000000 0000000000000.36     00800 01500                  
02407760023080014DT67590675900000002881800888800000010180088824001193032900013400127020120230000000078803223000000000138207423223XXXXXX7972       VK04VS111111111   NYV1 A E303032707309432N8400000000007887LKZ00    05DNHAPPY HIPPIE             043103    VD84000000000788 N  549976487158                            000000000+                F DF 00451                     000000000  N000000000 214   0000000000000.00 0000000.00   0000000.00                             000000000000000                                                                                                                                                     01418 F000000000000 0000000000000.16     01550 00400                  
02407770023080015DT67590675900000002881800888800000010180088824001193032900013400135020120230000000329303223000000000138207473702XXXXXX1827       VS11    0001111   NYV1 A E463032709616350N840000000003293NMF300    05DNHAPPY HIPPIE             077885    VD84000000003293 N  549976487158                            000000000+                F DF 10433                     000000000  Y000000000 338   0000000000000.00 0000000.00   0000000.00                             000000000000000                                                                                                                                                     01418 A000000000000 0000000000000.24     00050 02200                  
02407780023080016DT67590675900000002881800888800000010180088824001193032900013400143020120230000000175403223000000000138207480639XXXXXX6446       VS11    0001111   NYV1 A E383032712396518N840000000001754FPGZ00    05DNHAPPY HIPPIE             860767    VD84000000001754 N  549976487158                            000000000+                F DF 00381                     000000000  N000000000       0000000000000.00 0000000.00   0000000.00                             000000000000000                                                                                                                                                     01418 A000000000000 0000000000000.29     00800 01500                  
02407790023080017DT67590675900000002881800888800000010180088824001193032900013400150020120230000000345303223000000000138207419090XXXXXX0577       VS11    0001111   NYV1 A E463032717270326N840000000003453NR3W00    05DNHAPPY HIPPIE             216721    VD84000000003453 N  549976487158                            000000000+                F DF 00381                     000000000  N000000000       0000000000000.00 0000000.00   0000000.00                             000000000000000                                                                                                                                                     01418 A000000000000 0000000000000.43     00800 01500                  
02407800023080018DT67590675900000002881800888800000010180088824001193032900013400168020120230000000513303223000000000138207422921XXXXXX9643       VS11    0001111   NYV1 A E303032728024572N840000000005133VKPD00    05DNHAPPY HIPPIE             054803    VD84000000005133 N  549976487158                            000000000+                F DF 00381                     000000000  N000000000       0000000000000.00 0000000.00   0000000.00                             000000000000000                                                                                                                                                     01418 A000000000000 0000000000000.56     00800 01500                  
02407810023080019DT67590675900000002881800888800000010180088824001193032900013400176020120230000000523303223000000000138207443238XXXXXX0990       VS11    0001111   NYV1 A E303032735340941N840000000005233NQ7J00    05DNHAPPY HIPPIE             052534    VD84000000005233 N  549976487158                            000000000+                F DF 00381                     000000000  N000000000       0000000000000.00 0000000.00   0000000.00                             000000000000000                                                                                                                                                     01418 A000000000000 0000000000000.57     00800 01500                  
02407820023080020DT67590675900000002881800888800000010180088824001193032900013400184020120230000000296203223000000000138207480639XXXXXX1158       VS11    0001111   NYV1 A E583032742729021N840000000002962X9MC00    05DNHAPPY HIPPIE             862225    VD84000000002962 N  549976487158                            000000000+                F DF 00381                     000000000  N000000000       0000000000000.00 0000000.00   0000000.00                             000000000000000                                                                                                                                                     01418 A000000000000 0000000000000.39     00800 01500                  
02407830023080021DT67590675900000002881800888800000010180088824001193032900013400192020120230000000029503223000000000138207440393XXXXXX2843       VK04VS111111111   NYV1 A E583032751502150N84000000000029573R600    05DNHAPPY HIPPIE             860368    VD84000000000295 N  549976487158                            000000000+                F PF 08165                     000000000  N000000000       0000000000000.00 0000000.00   0000000.00                             000000000000000                                                                                                                                                     01418 F000000000000 0000000000000.10     01600 00500                  
02407840023080022DT67590675900000002881800888800000010180088824001193032900013400200020120230000000690003223000000000138207421783XXXXXX6001       VS11    0001111   NYV1 A E303032756669330N840000000006900S3QL00    05DNHAPPY HIPPIE             038759    VS84000000006900 N  549976487158                            000000000+                A CA 12110                     000000000  N000000000 493   0000000000000.00 0000000.00   0000000.00                             000000000000000                                                                                                                                                     01418 A000000000000 0000000000001.14     01510 01000                  
02407850023080023DT67590675900000002881800888800000010180088824001193032900013400218020120230000000690003223000000000138207410801XXXXXX0995       VS11    0001111   NYV1 A E463032759906278N840000000006900W28R00    05DNHAPPY HIPPIE             060630    VD84000000006900 N  549976487158                            000000000+                F DF 00381                     000000000  N000000000       0000000000000.00 0000000.00   0000000.00                             000000000000000                                                                                                                                                     01418 A000000000000 0000000000000.70     00800 01500                  
02407860023080024DT67590675900000002881800888800000010180088824001193032900013400226020120230000000877803223000000000138207414740XXXXXX9825       VS11    0001111   NYV1 A E583032762430579N8400000000087787B3R00    05DNHAPPY HIPPIE             01311D    VS84000000008778 N  549976487158                            000000000+                D CD 12113                     000000000  N000000000 499   0000000000000.00 0000000.00   0000000.00                             000000000000000                                                                                                                                                     01418 A000000000000 0000000000001.94     02100 01000                  
02407870023080025DT67590675900000002881800888800000010180088824001193032900013400234020120230000000142103223000000000138207491523XXXXXX8164       VK04VS111111111   NYV1 A E463032768648447N8400000000014215NCF00    07DNHAPPY HIPPIE             001914    VD84000000001421 N  549976487158                            000000000+                F DF 10439                     000000000  Y000000000 331   0000000000000.00 0000000.00   0000000.00                             000000000000000                                                                                                                                                     01418 F000000000000 0000000000000.23     00050 02200                  
02407880023080026DT67590675900000002881800888800000010180088824001193032900013400242020120230000001056803223000000000138207422921XXXXXX7498       VS11    0001111   NYV1 A E463032780519927N8400000000105688HX700    05DNHAPPY HIPPIE             060052    VD84000000010568 N  549976487158                            000000000+                F DF 00381                     000000000  N000000000       0000000000000.00 0000000.00   0000000.00                             000000000000000                                                                                                                                                     01418 A000000000000 0000000000001.00     00800 01500                  
02407890023080027DT67590675900000002881800888800000010180088824001193032900013400259020120230000000691303223000000000138207449507XXXXXX6597       VS11    0001111   NYV1 A E463032789429620N840000000006913L5S600    05DNHAPPY HIPPIE             065542    VD84000000006913 N  549976487158                            000000000+                F DF 00381                     000000000  N000000000       0000000000000.00 0000000.00   0000000.00                             000000000000000                                                                                                                                                     01418 A000000000000 0000000000000.70     00800 01500                  
02407900023080028DT67590675900000002881800888800000010180088824001193032900013400267020120230000000437803223000000000138207415978XXXXXX7585       VS11    0001111   NYV1 A E303032793681972N840000000004378V3S800    05DNHAPPY HIPPIE             092766    VD84000000004378 N  549976487158                            000000000+                F DF 10433                     000000000  Y000000000 338   0000000000000.00 0000000.00   0000000.00                             000000000000000                                                                                                                                                     01418 A000000000000 0000000000000.24     00050 02200                  
02407910023080029DT67590675900000002881800888800000010180088824001193032900013400275020120230000000325803223000000000138207410889XXXXXX9158       VS11    0001111   NYV1 A E463032799035870N8400000000032586P9M00    05DNHAPPY HIPPIE             561904    VS84000000003258 N  549976487158                            000000000+                B CB 12111                     000000000  N000000000 495   0000000000000.00 0000000.00   0000000.00                             000000000000000                                                                                                                                                     01418 A000000000000 0000000000000.64     01650 01000                  
02407920023080030DT67590675900000002881800888800000010180088824001193032900013400283020120230000000548803223000000000138207422921XXXXXX1431       VS11    0001111   NYV1 A E303032804278140N8400000000054888RR900    05DNHAPPY HIPPIE             062428    VD84000000005488 N  549976487158                            000000000+                F DF 00381                     000000000  N000000000       0000000000000.00 0000000.00   0000000.00                             000000000000000                                                                                                                                                     01418 A000000000000 0000000000000.59     00800 01500                  
02407930023080031DT67590675900000002881800888800000010180088824001193032900013400291020120230000000493803223000000000138207422921XXXXXX6692       VS11    0001111   NYV1 A E383032806226475N840000000004938DMTF00    05DNHAPPY HIPPIE             062623    VD84000000004938 N  549976487158                            000000000+                F DF 00381                     000000000  N000000000       0000000000000.00 0000000.00   0000000.00                             000000000000000                                                                                                                                                     01418 A000000000000 0000000000000.55     00800 01500                  
02407940023080032DT67590675900000002881800888800000010180088824001193032900013400309020120230000000691303223000000000138207480639XXXXXX2719       VS11    0001111   NYV1 A E303032815112511N840000000006913X7GX00    05DNHAPPY HIPPIE             865903    VD84000000006913 N  549976487158                            000000000+                F DF 00381                     000000000  N000000000       0000000000000.00 0000000.00   0000000.00                             000000000000000                                                                                                                                                     01418 A000000000000 0000000000000.70     00800 01500                  
02407950023080033DT67590675900000002881800888800000010180088824001193032900013400317020120230000000325803223000000000138207413331XXXXXX8414       VS11    0001111   NYV1 A E463032817258838N8400000000032588JZJ00    05DNHAPPY HIPPIE             699900    VD84000000003258 N  549976487158                            000000000+                F DF 00381                     000000000  N000000000       0000000000000.00 0000000.00   0000000.00                             000000000000000                                                                                                                                                     01418 A000000000000 0000000000000.41     00800 01500                  
02407960023080034BH6759067590000000215480088880000090170201202303223000000000375394    0000090001972003N8008886759C02022023                                                                                                                                                                                                                                                                                                                                                                                                                                                                                                                                                                                                 
02407970023080035DT67590675900000002154800888800000010180088873011003032900019724229020120230000009218503223000000000375394372265XXXXX7089                          NY 4 07N006857671948062N840000000092185          01DNDRIP DROP DISTRO LLC     235388    AM84000000092185 N  519971004114                            000000000+6004S0S00140 258     11244                     000000000                   0000000000000.00 0000000.00   0000000.00                             000000000000000 61248972736759675900000002154 DRIP DROP DISTRO LLC     1445 W COMMERCE AVE SUITE2087248209      83705     TROY@DRIPDROPDISTRO.COM                   01418  000000000000 0000000000017.62     01900 00000                  
02407980023080036DT67590675900000002154800888800000010180088824001193032900019741540020120230000003496803223000000000375394416805XXXXXX3927               2111111   NYV4 A7W583032792156375N8400000000349689XSX00    01DNDRIP DROP DISTRO LLC     106507    VD84000000034968 NP1519971004114   INV-000476               000000000+                G DG 08705                     000000000  N000000000       0000000000000.00 0000000.00   0000000.00                             000000000000000                                                                                                                                                     01418 G000000034968 0000000000008.67     02450 01000                  
02407990023080001P16759067590000000215480088880000001010000000000000000    43912918906              2000000000000000000000000              000000000000                    0000000000000000000000000                    000000000000                                                                                                                                                                                                                                                                                                                                                                                                                                                                                        
02408000023080037DT67590675900000002154800888800000010180088824001193032900019788475020120230000004264203223000000000375394433993XXXXXX7424               2111111   NYV4 A7W583032041947531N840000000042642K7T400    01DNDRIP DROP DISTRO LLC     09171G    VB84000000042642 NP1519971004114   17388                    000000000+                G3CG308002                     000000000  N000000000 381   0000000000000.00 0000000.00   0000000.00                             000000000000000                                                                                                                                                     01418 G000000042642 0000000000012.04     02800 01000                  
02408010023080001P16759067590000000215480088880000001010000000000000000    43908810277              2000000000000000000000000              000000000000                    0000000000000000000000000                    000000000000                                                                                                                                                                                                                                                                                                                                                                                                                                                                                        
02408020023080038DT67590675900000002154800888800000010180088887287283032900019718614020120230000007860003223000000000375394542418XXXXXX9220       ME03KE06MS02      NY 4607AMWEYDSD5V0201  N840000000078600          81DNDRIP DROP DISTRO LLC     31361P    MC84000000078600 N  519900000001   INV-000462               000000000+600450S00140    MWE  00737                     000000000  N                0000000000000.00 0000000.00   0000000.00                             000000000000000                                                                                                                                                   U001418  000000000000 0000000000020.54     02600 01000                  
02408030023080039DT67590675900000002154800888800000010180088873011003032900019781575020120230000010382403223000000000375394376748XXXXX1005                          NY 4 07N006859973589065N840000000103824          01DNDRIP DROP DISTRO LLC     283190    AM84000000103824 N  519971004114                            000000000+6004S0S00140 258     11244                     000000000                   0000000000000.00 0000000.00   0000000.00                             000000000000000 61248972736759675900000002154 DRIP DROP DISTRO LLC     1445 W COMMERCE AVE SUITE2087248209      83705     TROY@DRIPDROPDISTRO.COM                   01418  000000000000 0000000000019.83     01900 00000                  
02408040023080040DT67590675900000002154800888800000010180088887287283032900019720032020120230000002317503223000000000375394547415XXXXXX7571                         NY 4607AMEBAEPPOZ0201  N840000000023175          81DNDRIP DROP DISTRO LLC     03054Q    MB84000000023175 NP1519900000001   17393                    000000000+600450S00140    MEB  11637                     000000000  N                0000000000000.00 0000000.00   0000000.00                             000000000000000                                                                                                                                                   U001418  000000000000 0000000000007.05     03000 01000                  
02408050023080001P1675906759000000021548008888000000101                                                          000000000000          8000            471534935                                                                                                                                                                                                                                                                                                                                                                                                                                                                                                                                                            
02408060023080041BH6759067590000000288180088880000090170201202303223000000000048074    0000090001340011N8008886759C02022023                                                                                                                                                                                                                                                                                                                                                                                                                                                                                                                                                                                                 
02408070023080042DT67590675900000002881800888800000010180088824001193032900013400010020120230000000395003223000000000048074473336XXXXXX5051       VS11    0001111   NYV1 A E303032544941335N840000000003950RL8K00    05DNHAPPY HIPPIE             080814    VD84000000003950 N  549976487134                            000000000+                F DF 00381                     000000000  N000000000       0000000000000.00 0000000.00   0000000.00                             000000000000000                                                                                                                                                     01418 A000000000000 0000000000000.47     00800 01500                  
02408080023080043DT67590675900000002881800888800000010180088824001193032900013400028020120230000000296203223000000000048074412081XXXXXX3683       VS11    0001111   NYV1 A E383032548112310N840000000002962SR9200    05DNHAPPY HIPPIE             499002    VD84000000002962 N  549976487134                            000000000+                F DF 00381                     000000000  N000000000       0000000000000.00 0000000.00   0000000.00                             000000000000000                                                                                                                                                     01418 A000000000000 0000000000000.39     00800 01500                  
02408090023080044DT67590675900000002881800888800000010180088824001193032900013400036020120230000000395003223000000000048074419090XXXXXX8451       VS11    0001111   NYV1 A E583032566940378N8400000000039502K4W00    05DNHAPPY HIPPIE             208172    VD84000000003950 N  549976487134                            000000000+                F DF 00381                     000000000  N000000000       0000000000000.00 0000000.00   0000000.00                             000000000000000                                                                                                                                                     01418 A000000000000 0000000000000.47     00800 01500                  
02408100023080045DT67590675900000002881800888800000010180088877287283032900013400046020120230000000125003223000000000048074511953XXXXXX0600       MS02WI09          NY 1 0 AMDJTA404I0201  N840000000001250          07DNHAPPY HIPPIE             027925    MD84000000001250 N  549976487134                            000000000+M10101M0034C    MDJ  00505                     000000000  N                0000000000000.00 0000000.00   0000000.00                             000000000000000                                                                                                                                                   B101418  000000000000 0000000000000.23     01550 00400                  
02408110023080046DT67590675900000002881800888800000010180088824001193032900013400051020120230000000235703223000000000048074419090XXXXXX6750       VS11    0001111   NYV1 A E383032571788172N8400000000023578RCB00    05DNHAPPY HIPPIE             208409    VD84000000002357 N  549976487134                            000000000+                F DF 00381                     000000000  N000000000       0000000000000.00 0000000.00   0000000.00                             000000000000000                                                                                                                                                     01418 A000000000000 0000000000000.34     00800 01500                  
02408120023080047DT67590675900000002881800888800000010180088824001193032900013400069020120230000000755603223000000000048074459954XXXXXX5604       VS11    0001111   NYV1 A E583032574619123N8400000000075568T4V00    05DNHAPPY HIPPIE             H03363    VD84000000007556 N  549976487134                            000000000+                F DF 10433                     000000000  Y000000000 338   0000000000000.00 0000000.00   0000000.00                             000000000000000                                                                                                                                                     01418 A000000000000 0000000000000.26     00050 02200                  
02408130023080048DT67590675900000002881800888800000010180088877287283032900013400079020120230000000572703223000000000048074552486XXXXXX7821       MS02WI09          NY 1 0 AMWEOY9U7O0201  N840000000005727          05DNHAPPY HIPPIE             09271Z    MC84000000005727 N  549976487134                            000000000+M10101C5434C    MWE  00743                     000000000  N                0000000000000.00 0000000.00   0000000.00                             000000000000000                                                                                                                                                   B101418  000000000000 0000000000001.36     02300 00400                  
02408140023080049DT67590675900000002881800888800000010180088877287283032900013400087020120230000000040603223000000000048074518941XXXXXX4253                         NY 1 0 AMWEJZJA5V0201  N840000000000406          07DNHAPPY HIPPIE             69295Z    MC84000000000406 N  549976487134                            000000000+M10101M0034C    MWE  12147                     000000000  N                0000000000000.00 0000000.00   0000000.00                             000000000000000                                                                                                                                                   B101418  000000000000 0000000000000.11     02300 00200                  
02408150023080050DT67590675900000002881800888800000010180088877287283032900013400095020120230000001580103223000000000048074552486XXXXXX3000       MS02WI09          NY 1 0 AMWECQWC5W0201  N840000000015801          05DNHAPPY HIPPIE             02037Z    MC84000000015801 N  549976487134                            000000000+M10101C5434C    MWE  00743                     000000000  N                0000000000000.00 0000000.00   0000000.00                             000000000000000                                                                                                                                                   B101418  000000000000 0000000000003.67     02300 00400                  
02408160023080051DT67590675900000002881800888800000010180088824001193032900013400101020120230000000016503223000000000048074480639XXXXXX3046       VK04VS111111111   NYV1 A E383032698044917N840000000000165L4XZ00    05DNHAPPY HIPPIE             860090    VD84000000000165 N  549976487134                            000000000+                F DF 00451                     000000000  N000000000 214   0000000000000.00 0000000.00   0000000.00                             000000000000000                                                                                                                                                     01418 F000000000000 0000000000000.07     01550 00400                  
02408170023080052DT67590675900000002881800888800000010180088824001193032900013400119020120230000000395003223000000000048074419090XXXXXX3771       VS11    0001111   NYV1 A E583032767469907N840000000003950CRH900    05DNHAPPY HIPPIE             219540    VD84000000003950 N  549976487134                            000000000+                F DF 00381                     000000000  N000000000       0000000000000.00 0000000.00   0000000.00                             000000000000000                                                                                                                                                     01418 A000000000000 0000000000000.47     00800 01500                  
02408180023080053BH6759067590000000096880088880000090170201202303223000000000006099    0000090001347152N8008886759C02022023                                                                                                                                                                                                                                                                                                                                                                                                                                                                                                                                                                                                 
02408190023080054DT67590675900000000968800888800000010180088824001193032900013471524020120230000000609903223000000000006099427088XXXXXX2264               2111111   NYV4 A7W463032771611654N840000000006099P5S500    01DNHIGHER FLOUR LLC         062600    VD84000000006099 NP1546271004114   RYHIY46O81UL5SK4WZLZ     000000000+                F DF 10420                     000000000  Y000000000 338   0000000000000.00 0000000.00   0000000.00                             000000000000000                                                                                                                                                     01418 G000000006099 0000000000000.25     00050 02200                  
02408200023080001P16759067590000000096880088880000001010000000000000000                             2000000000000000000000000              000000000000                    0000000000000000000000000                    000000000000                                                                                                                                                                                                                                                                                                                                                                                                                                                                                        
