08891850164060002BH6759067590000000288180088880000090170707202318823000000000019421    0000090001570313Y8008886759C07102023157                                                                                                                                                                                                                                                                                                                                                                                                                                                                                                                                                                                              
08891860164060003DT67590675900000002881800888800000010180088887287283188900015703109070620230000001097318823000000000019421542418XXXXXX1139       ME03KE06MS02      NY 4607AMPLP3HTTY0706  N840000000010973          81DNHAPPY HIPPIE             53313B    MC84000000010973 NDR549976044904   2128                     000000000+600450S00130    MPL  00580                     000000000  N                0000000000000.00 0000000.00   0000000.00                             000000000000000                                                                                                                                                   U001424  000000000000 0000000000002.40     02100 01000                  
08891870164060003DR6759067590000000288180088880000001012128                     Y000000000000                                                                                                                                                                                                                                                                                                                                                                                                                                                                                                                                                                                                                               
08891880164060001G2675906759000000028818008888000000101865-3663142              TN           9 L               210                                      NNNN           210000000000000000000000000                        7                                          76044904                                                                                                                                                                                                                                                                                                                                                                                                                                               
08891890164060004DT67590675900000002881800888800000010180088824001193188900015703116070720230000000497718823000000000019421434257XXXXXX3468               2111111   NYV4 A7W383188690010070N840000000004977W96600    01DNHAPPY HIPPIE             076342    VD84000000004977 NDR549976044904   2129                     000000000+                F DF 10420                     000000000  Y000000000 338   0000000000000.00 0000000.00   0000000.00                             000000000000000                                                                                                                                                     01424 G000000004977 0000000000000.24     00050 02200                  
08891900164060004DR6759067590000000288180088880000001012129                     Y000000004977                 P1                                                                                                                                                                                                                                                                                                                                                                                                                                                                                                                                                                                                            
08891910164060001P16759067590000000288180088880000001010000000000000000                             2000000000000000000000000              000000000000                    0000000000000000000000000                    000000000000                                                                                                                                                                                                                                                                                                                                                                                                                                                                                        
08891920164060002G2675906759000000028818008888000000101865-3663142              TN           9 D                00                                      NNNN   N                      000000000000                                                                   76044904                                                                                                                                                                                                                                                                                                                                                                                                                                               
08891930164060005DT67590675900000002881800888800000010180088887287283188900015703125070720230000000198518823000000000019421544544XXXXXX7290       ME03KE06MS02      NY 4607AMPMW7B06S0707  N840000000001985          81DNHAPPY HIPPIE             007667    MD84000000001985 NDR549976044904   2130                     000000000+600450S00130    MPM  09899                     000000000  N                0000000000000.00 0000000.00   0000000.00                             000000000000000                                                                                                                                                   U001424  000000000000 0000000000000.55     01760 02000                  
08891940164060005DR6759067590000000288180088880000001012130                     Z000000000000                                                                                                                                                                                                                                                                                                                                                                                                                                                                                                                                                                                                                               
08891950164060001G2675906759000000028818008888000000101865-3663142              TN           9 M               210                                      NNNN           210000000000000000000000000                                                                   76044904                                                                                                                                                                                                                                                                                                                                                                                                                                               
08891960164060006DT67590675900000002881800888800000010180088887287283188900015703133070720230000000148618823000000000019421544544XXXXXX7290       ME03KE06MS02      NY 4607AMPM1PHJ940707  N840000000001486          81DNHAPPY HIPPIE             007143    MD84000000001486 NDR549976044904   2132                     000000000+600450S00130    MPM  09899                     000000000  N                0000000000000.00 0000000.00   0000000.00                             000000000000000                                                                                                                                                   U001424  000000000000 0000000000000.46     01760 02000                  
08891970164060006DR6759067590000000288180088880000001012132                     Z000000000000                                                                                                                                                                                                                                                                                                                                                                                                                                                                                                                                                                                                                               
08891980164060001G2675906759000000028818008888000000101865-3663142              TN           9 M               210                                      NNNN           210000000000000000000000000                                                                   76044904                                                                                                                                                                                                                                                                                                                                                                                                                                               
08891990164060007BH6759067590000001330080010280000090170707202318823000000000274437    0000090001420936Y8001026759C07102023142                                                                                                                                                                                                                                                                                                                                                                                                                                                                                                                                                                                              
08892000164060008DT67590675900000013300800102800000010180010224001193188900014204207070620230000002092318823000000000274437429488XXXXXX3789               2111111   NYV4 A7W463184256387028N8400000000209232ZSW00    01DNCBD8666317293            006365    VD84000000020923 NDR549977133133   8E939E0A15TD95242009A85  000000000+                F DF 00415                     000000000  N000000000       0000000000000.00 0000000.00   0000000.00                             000000000000000                                                                                                                                                     01424 G000000020923 0000000000003.60     01650 01500                  
08892010164060008DR6759067590000001330080010280000001018E939E0A15TD95242009A85  Y000000020923                 P1                                                                                                                                                                                                                                                                                                                                                                                                                                                                                                                                                                                                            
08892020164060001P16759067590000001330080010280000001010000000000000000                             2000000000000000000000000              000000000000                    0000000000000000000000000                    000000000000                                                                                                                                                                                                                                                                                                                                                                                                                                                                                        
08892030164060002G2675906759000000133008001028000000101866-6317293              GA           9 D                00                                      NNNN   N                      000000000000                                                                   77133133                                                                                                                                                                                                                                                                                                                                                                                                                                               
08892040164060009DT67590675900000013300800102800000010180010224001193188900014204280070620230000002126118823000000000274437424668XXXXXX8964               2111111   NYV4 A7W463184326245855N840000000021261KRN200    01DNCBD8666317293            003305    VS84000000021261 NDR549977133133   A87F13DD61T8156A3490453  000000000+                A CA 12106                     000000000  N000000000 492   0000000000000.00 0000000.00   0000000.00                             000000000000000                                                                                                                                                     01424 G000000021261 0000000000004.12     01890 01000                  
08892050164060009DR675906759000000133008001028000000101A87F13DD61T8156A3490453  Y000000021261                 P1                                                                                                                                                                                                                                                                                                                                                                                                                                                                                                                                                                                                            
08892060164060001P16759067590000001330080010280000001010000000000000000                             2000000000000000000000000              000000000000                    0000000000000000000000000                    000000000000                                                                                                                                                                                                                                                                                                                                                                                                                                                                                        
08892070164060002G2675906759000000133008001028000000101866-6317293              GA           9 C                00                                      NNNN   N                      000000000000                                                                   77133133                                                                                                                                                                                                                                                                                                                                                                                                                                               
08892080164060010DT67590675900000013300800102800000010180010224001193188900014204520070620230000000700418823000000000274437414720XXXXXX9792               2111111   NYV4 A7W463184555164183N840000000007004G4RR00    01DNCBD8666317293            05490D    VS84000000007004 NDR549977133133   CAF56F00A7T48C2C51ADE32  000000000+                D CD 12109                     000000000  N000000000 498   0000000000000.00 0000000.00   0000000.00                             000000000000000                                                                                                                                                     01424 G000000007004 0000000000001.85     02500 01000                  
08892090164060010DR675906759000000133008001028000000101CAF56F00A7T48C2C51ADE32  N000000007004                 P1                                                                                                                                                                                                                                                                                                                                                                                                                                                                                                                                                                                                            
08892100164060001P16759067590000001330080010280000001010000000000000000                             2000000000000000000000000              000000000000                    0000000000000000000000000                    000000000000                                                                                                                                                                                                                                                                                                                                                                                                                                                                                        
08892110164060002G2675906759000000133008001028000000101866-6317293              GA           9 C                00                                      NNNN   Y                      000000000000                                                                   77133133                                                                                                                                                                                                                                                                                                                                                                                                                                               
08892120164060011DT67590675900000013300800102800000010180010287287283188900014205049070620230000000600418823000000000274437527690XXXXXX3656       ME03KE06MS02      NY 4607AMDJL8A4JL0703  N840000000006004          81DNCBD8666317293            007503    MD84000000006004 NDR549977133133   AF589A42D2TD1ECE4CE6BD7  000000000+600450S00130    MDJ  00401                     000000000  N                0000000000000.00 0000000.00   0000000.00                             000000000000000                                                                                                                                                   U001424  000000000000 0000000000001.14     01650 01500                  
08892130164060011DR675906759000000133008001028000000101AF589A42D2TD1ECE4CE6BD7  Y000000000000                                                                                                                                                                                                                                                                                                                                                                                                                                                                                                                                                                                                                               
08892140164060001G2675906759000000133008001028000000101866-6317293              GA           9 J               210                                      NNNN           210000000000000000000000000                                                                   77133133                                                                                                                                                                                                                                                                                                                                                                                                                                               
08892150164060012DT67590675900000013300800102800000010180010287287283188900014205189070620230000002136018823000000000274437531257XXXXXX5496       ME03KE06MS02      NY 4607AMDJGYGNW90703  N840000000021360          81DNCBD8666317293            110152    MD84000000021360 NDR549977133133   EA05988B41TA836875DE35F  000000000+600450S00130    MDJ  10813                     000000000  1                0000000000000.00 0000000.00   0000000.00                             000000000000000                                                                                                                                                   U001424  000000000000 0000000000000.33     00050 02200                  
08892160164060012DR675906759000000133008001028000000101EA05988B41TA836875DE35F  Y000000000000                                                                                                                                                                                                                                                                                                                                                                                                                                                                                                                                                                                                                               
08892170164060001G2675906759000000133008001028000000101866-6317293              GA           9 J               210                                      NNNN           210000000000000000000000000                        7                                          77133133                                                                                                                                                                                                                                                                                                                                                                                                                                               
08892180164060013DT67590675900000013300800102800000010180010287287283188900014205601070620230000002133518823000000000274437535824XXXXXX1764       ME03KE06MS02      NY 4607AMPLGNC8L60703  N840000000021335          81DNCBD8666317293            90534B    MC84000000021335 NDR549977133133   4D2E198B08T19F59A3C96F7  000000000+600450S00130    MPL  00580                     000000000  N                0000000000000.00 0000000.00   0000000.00                             000000000000000                                                                                                                                                   U001424  000000000000 0000000000004.58     02100 01000                  
08892190164060013DR6759067590000001330080010280000001014D2E198B08T19F59A3C96F7  Y000000000000                                                                                                                                                                                                                                                                                                                                                                                                                                                                                                                                                                                                                               
08892200164060001G2675906759000000133008001028000000101866-6317293              GA           9 L               210                                      NNNN           210000000000000000000000000                        7                                          77133133                                                                                                                                                                                                                                                                                                                                                                                                                                               
08892210164060014DT67590675900000013300800102800000010180010224001193188900014208935070620230000000542818823000000000274437427082XXXXXX0901               2111111   NYV4 A7W303188048906763N840000000005428VRRR00    01DNCBD8666317293            006333    VS84000000005428 NDR549977133133   5576719B26T9656B3D2CABB  000000000+                B CB 12107                     000000000  N000000000 494   0000000000000.00 0000000.00   0000000.00                             000000000000000                                                                                                                                                     01424 G000000005428 0000000000001.21     02040 01000                  
08892220164060014DR6759067590000001330080010280000001015576719B26T9656B3D2CABB  Y000000005428                 P1                                                                                                                                                                                                                                                                                                                                                                                                                                                                                                                                                                                                            
08892230164060001P16759067590000001330080010280000001010000000000000000                             2000000000000000000000000              000000000000                    0000000000000000000000000                    000000000000                                                                                                                                                                                                                                                                                                                                                                                                                                                                                        
08892240164060002G2675906759000000133008001028000000101866-6317293              GA           9 C                00                                      NNNN   Y                      000000000000                                                                   77133133                                                                                                                                                                                                                                                                                                                                                                                                                                               
08892250164060015DT67590675900000013300800102800000010180010224001193188900014208976070720230000001200818823000000000274437426684XXXXXX8775               2111111   NYV4 A7W383188228049153N840000000012008JN3800    01DNCBD8666317293            00144A    VS84000000012008 NDR549977133133   A20455B8B6TB6E90BD9740B  000000000+                A CA 12106                     000000000  N000000000 492   0000000000000.00 0000000.00   0000000.00                             000000000000000                                                                                                                                                     01424 G000000012008 0000000000002.37     01890 01000                  
08892260164060015DR675906759000000133008001028000000101A20455B8B6TB6E90BD9740B  Y000000012008                 P1                                                                                                                                                                                                                                                                                                                                                                                                                                                                                                                                                                                                            
08892270164060001P16759067590000001330080010280000001010000000000000000                             2000000000000000000000000              000000000000                    0000000000000000000000000                    000000000000                                                                                                                                                                                                                                                                                                                                                                                                                                                                                        
08892280164060002G2675906759000000133008001028000000101866-6317293              GA           9 C                00                                      NNNN   Y                      000000000000                                                                   77133133                                                                                                                                                                                                                                                                                                                                                                                                                                               
08892290164060016DT67590675900000013300800102800000010180010287287283188900014208985070720230000001533218823000000000274437514230XXXXXX3027       ME03KE06MS02      NY 4607AMDJ0X0J5I0707  N840000000015332          81DNCBD8666317293            015724    MD84000000015332 NDR549977133133   F29D43C652T77DC079EB37C  000000000+600450S00130    MDJ  00401                     000000000  N                0000000000000.00 0000000.00   0000000.00                             000000000000000                                                                                                                                                   U001424  000000000000 0000000000002.68     01650 01500                  
08892300164060016DR675906759000000133008001028000000101F29D43C652T77DC079EB37C  Y000000000000                                                                                                                                                                                                                                                                                                                                                                                                                                                                                                                                                                                                                               
08892310164060001G2675906759000000133008001028000000101866-6317293              GA           9 J               210                                      NNNN           210000000000000000000000000                        7                                          77133133                                                                                                                                                                                                                                                                                                                                                                                                                                               
08892320164060017DT67590675900000013300800102800000010680010287287283188900014209058070720230000000469818823000000000274437515599XXXXXX4772                         NY 4607AMPLIFOQXF0707  N840000000004698          81CNCBD8666317293            041722    MC84000000004698 NDR549977133133   137C49CB99TD01A9F885F8B  000000000+600450S00130    MPL  00565                     000000000  N                0000000000000.00 0000000.00   0000000.00                             000000000000000                                                                                                                                                     01424  000000000000-0000000000000.82     01750 00000                  
08892330164060017DR675906759000000133008001028000000106137C49CB99TD01A9F885F8B  Y000000000000                                                                                                                                                                                                                                                                                                                                                                                                                                                                                                                                                                                                                               
08892340164060001G2675906759000000133008001028000000106866-6317293              GA           9 L               210                                      NNNN           210000000000000000000000000                        7                                          77133133                                                                                                                                                                                                                                                                                                                                                                                                                                               
08892350164060018DT67590675900000013300800102800000010680010287287283188900014209066070720230000001987018823000000000274437515288XXXXXX8293                         NY 4607AMDSVZL7XB0707  N840000000019870          81CNCBD8666317293            007963    MD84000000019870 NDR549977133133   0FCABC56A9T0475F8CAE2D3  000000000+600450S00130    MDS  00560                     000000000  N                0000000000000.00 0000000.00   0000000.00                             000000000000000                                                                                                                                                     01424  000000000000 0000000000000.00     00000 00000                  
08892360164060018DR6759067590000001330080010280000001060FCABC56A9T0475F8CAE2D3  R000000000000                                                                                                                                                                                                                                                                                                                                                                                                                                                                                                                                                                                                                               
08892370164060001G2675906759000000133008001028000000106866-6317293              GA           9 S               210                                      NNNN           210000000000000000000000000                                                                   77133133                                                                                                                                                                                                                                                                                                                                                                                                                                               
08892380164060019DT67590675900000013300800102800000010180010287287283188900014209116070720230000001400818823000000000274437553811XXXXXX5074       ME03KE06MS02      NY 4607AMDSY9LTXB0707  N840000000014008          81DNCBD8666317293            165730    MD84000000014008 NDR549977133133   8466C319C8T94121EA4A614  000000000+600450S00130    MDS  00401                     000000000  N                0000000000000.00 0000000.00   0000000.00                             000000000000000                                                                                                                                                   U001424  000000000000 0000000000002.46     01650 01500                  
08892390164060019DR6759067590000001330080010280000001018466C319C8T94121EA4A614  N000000000000                                                                                                                                                                                                                                                                                                                                                                                                                                                                                                                                                                                                                               
08892400164060001G2675906759000000133008001028000000101866-6317293              GA           9 S               210                                      NNNN           210000000000000000000000000                                                                   77133133                                                                                                                                                                                                                                                                                                                                                                                                                                               
08892410164060020DT67590675900000013300800102800000010180010224001193188900014209149070720230000002153418823000000000274437425421XXXXXX9802               2111111   NYV4 A7W303188597045143N840000000021534X26700    01DNCBD8666317293            032559    VD84000000021534 NDR549977133133   B4CDB59827TAAD0CF8AD491  000000000+                F DF 00415                     000000000  N000000000       0000000000000.00 0000000.00   0000000.00                             000000000000000                                                                                                                                                     01424 G000000021534 0000000000003.70     01650 01500                  
08892420164060020DR675906759000000133008001028000000101B4CDB59827TAAD0CF8AD491  Y000000021534                 P1                                                                                                                                                                                                                                                                                                                                                                                                                                                                                                                                                                                                            
08892430164060001P16759067590000001330080010280000001010000000000000000                             2000000000000000000000000              000000000000                    0000000000000000000000000                    000000000000                                                                                                                                                                                                                                                                                                                                                                                                                                                                                        
08892440164060002G2675906759000000133008001028000000101866-6317293              GA           9 D                00                                      NNNN   N                      000000000000                                                                   77133133                                                                                                                                                                                                                                                                                                                                                                                                                                               
08892450164060021DT67590675900000013300800102800000010180010224001193188900014209156070720230000002123618823000000000274437423910XXXXXX8644               2111111   NYV4 A7W383188597066975N8400000000212364P2800    01DNCBD8666317293            602243    VD84000000021236 NDR549977133133   195567C44DT2971D7BF89E4  000000000+                F DF 10420                     000000000  Y000000000 338   0000000000000.00 0000000.00   0000000.00                             000000000000000                                                                                                                                                     01424 G000000021236 0000000000000.33     00050 02200                  
08892460164060021DR675906759000000133008001028000000101195567C44DT2971D7BF89E4  Y000000021236                 P1                                                                                                                                                                                                                                                                                                                                                                                                                                                                                                                                                                                                            
08892470164060001P16759067590000001330080010280000001010000000000000000                             2000000000000000000000000              000000000000                    0000000000000000000000000                    000000000000                                                                                                                                                                                                                                                                                                                                                                                                                                                                                        
08892480164060002G2675906759000000133008001028000000101866-6317293              GA           9 D                00                                      NNNN   N                      000000000000                                                                   77133133                                                                                                                                                                                                                                                                                                                                                                                                                                               
08892490164060022DT67590675900000013300800102800000010180010224001193188900014209198070720230000002180718823000000000274437445100XXXXXX2915               2111111   NYV4 A7W383188645227816N840000000021807CVMT00    01DNCBD8666317293            500530    VD84000000021807 NDR549977133133   E0B74C10D0T5932B7EDB8EE  000000000+                F DF 10420                     000000000  Y000000000 338   0000000000000.00 0000000.00   0000000.00                             000000000000000                                                                                                                                                     01424 G000000021807 0000000000000.33     00050 02200                  
08892500164060022DR675906759000000133008001028000000101E0B74C10D0T5932B7EDB8EE  Y000000021807                 P1                                                                                                                                                                                                                                                                                                                                                                                                                                                                                                                                                                                                            
08892510164060001P16759067590000001330080010280000001010000000000000000                             2000000000000000000000000              000000000000                    0000000000000000000000000                    000000000000                                                                                                                                                                                                                                                                                                                                                                                                                                                                                        
08892520164060002G2675906759000000133008001028000000101866-6317293              GA           9 D                00                                      NNNN   N                      000000000000                                                                   77133133                                                                                                                                                                                                                                                                                                                                                                                                                                               
08892530164060023DT67590675900000013300800102800000010180010287287283188900014209264070720230000001987018823000000000274437526947XXXXXX8747       ME03KE06PT01      NY 4607AMCWGJ2C1I0707  N840000000019870          81DNCBD8666317293            03865Z    MC84000000019870 NDR549977133133   8BD59FA05ETACB069B005ED  000000000+600450S00130    MCW  00642                     000000000  N                0000000000000.00 0000000.00   0000000.00                             000000000000000                                                                                                                                                   U001424  000000000000 0000000000004.47     02200 01000                  
08892540164060023DR6759067590000001330080010280000001018BD59FA05ETACB069B005ED  Y000000000000                                                                                                                                                                                                                                                                                                                                                                                                                                                                                                                                                                                                                               
08892550164060001G2675906759000000133008001028000000101866-6317293              GA           9 W               210                                      NNNN           210000000000000000000000000                        7                                          77133133                                                                                                                                                                                                                                                                                                                                                                                                                                               
08892560164060024DT67590675900000013300800102800000010180010224001193188900014209271070720230000002153918823000000000274437414709XXXXXX6148               2111111   NYV4 A7W383188711042386N840000000021539NQMN00    01DNCBD8666317293            05164D    VS84000000021539 NDR549977133133   F12E07C62DT3875E1F9E68D  000000000+                D CD 12109                     000000000  N000000000 498   0000000000000.00 0000000.00   0000000.00                             000000000000000                                                                                                                                                     01424 G000000021539 0000000000005.48     02500 01000                  
08892570164060024DR675906759000000133008001028000000101F12E07C62DT3875E1F9E68D  Y000000021539                 P1                                                                                                                                                                                                                                                                                                                                                                                                                                                                                                                                                                                                            
08892580164060001P16759067590000001330080010280000001010000000000000000                             2000000000000000000000000              000000000000                    0000000000000000000000000                    000000000000                                                                                                                                                                                                                                                                                                                                                                                                                                                                                        
08892590164060002G2675906759000000133008001028000000101866-6317293              GA           9 C                00                                      NNNN   Y                      000000000000                                                                   77133133                                                                                                                                                                                                                                                                                                                                                                                                                                               
08892600164060025DT67590675900000013300800102800000010180010224001193188900014209305070720230000002487018823000000000274437427082XXXXXX6133               2111111   NYV4 A7W463188732049341N8400000000248703V4900    01DNCBD8666317293            007147    VS84000000024870 NDR549977133133   904BA1B505T30E6FC4B382D  000000000+                C CC 12108                     000000000  N000000000 496   0000000000000.00 0000000.00   0000000.00                             000000000000000                                                                                                                                                     01424 G000000024870 0000000000005.20     02050 01000                  
08892610164060025DR675906759000000133008001028000000101904BA1B505T30E6FC4B382D  Y000000024870                 P1                                                                                                                                                                                                                                                                                                                                                                                                                                                                                                                                                                                                            
08892620164060001P16759067590000001330080010280000001010000000000000000                             2000000000000000000000000              000000000000                    0000000000000000000000000                    000000000000                                                                                                                                                                                                                                                                                                                                                                                                                                                                                        
08892630164060002G2675906759000000133008001028000000101866-6317293              GA           9 C                00                                      NNNN   Y                      000000000000                                                                   77133133                                                                                                                                                                                                                                                                                                                                                                                                                                               
08892640164060026DT67590675900000013300800102800000010180010287287283188900014209355070720230000002126118823000000000274437542432XXXXXX8978       ME03KE06MS02      NY 4607AMDJZNQO8H0707  N840000000021261          81DNCBD8666317293            434223    MD84000000021261 NDR549977133133   9971BD8781T03FB2F92CD41  000000000+600450S00130    MDJ  10813                     000000000  1                0000000000000.00 0000000.00   0000000.00                             000000000000000                                                                                                                                                   U001424  000000000000 0000000000000.33     00050 02200                  
08892650164060026DR6759067590000001330080010280000001019971BD8781T03FB2F92CD41  Z000000000000                                                                                                                                                                                                                                                                                                                                                                                                                                                                                                                                                                                                                               
08892660164060001G2675906759000000133008001028000000101866-6317293              GA           9 J               210                                      NNNN           210000000000000000000000000                        7                                          77133133                                                                                                                                                                                                                                                                                                                                                                                                                                               
08892670164060027DT67590675900000013300800102800000010180010287287283188900014209363070720230000000222518823000000000274437542432XXXXXX8978       ME03KE06MS02      NY 4607AMDJLXVR2B0707  N840000000002225          81DNCBD8666317293            432428    MD84000000002225 NDR549977133133   9971BD8781TCB165A4B81C7  000000000+600450S00130    MDJ  10813                     000000000  1                0000000000000.00 0000000.00   0000000.00                             000000000000000                                                                                                                                                   U001424  000000000000 0000000000000.23     00050 02200                  
08892680164060027DR6759067590000001330080010280000001019971BD8781TCB165A4B81C7  Z000000000000                                                                                                                                                                                                                                                                                                                                                                                                                                                                                                                                                                                                                               
08892690164060001G2675906759000000133008001028000000101866-6317293              GA           9 J               210                                      NNNN           210000000000000000000000000                        7                                          77133133                                                                                                                                                                                                                                                                                                                                                                                                                                               
08892700164060028BH675906759000000198288001098000009017070720231882300000000004750001970000090001020785N8001096759D07102023102                                                                                                                                                                                                                                                                                                                                                                                                                                                                                                                                                                                              
08892710164060029DT67590675900000019828800109800000010680010974001193188900010207837070720230000001394818823000000000047500458643XXXXXX5234               0000000   NNV4 07T383188520483477N84000000001394872J800    01CNKETOFUSION 8885968154    H067390197VD84000000013948 NDR599977547467   3F3B849447T243AACF1576D  000000000+                F DF 00000                     000000000  Y000000000 369   0000000000000.00 0000000.00   0000000.00             000000000013948C000000000000000                                                                                                                                                     01424  000000013948 0000000000000.00     00000 00000                  
08892720164060029DR6759067590000001982880010980000001063F3B849447T243AACF1576D  U000000013948                 P1                                                                                                                                                                                                                                                                                                                                                                                                                                                                                                                                                                                                            
08892730164060001P16759067590000001982880010980000001060000000000000000                             2000000000000000000000000              000000000000                    0000000000000000000000000                    000000000000                                                                                                                                                                                                                                                                                                                                                                                                                                                                                        
08892740164060002G2675906759000000198288001098000000106888-5968154              UT           9 D                00                                      NNNN   N                      000000000000                                                                   77547467                                                                                                                                                                                                                                                                                                                                                                                                                                               
08892750164060030DT67590675900000019828800109800000010680010987287283188900010207841070720230000002487018823000000000047500528432XXXXXX6841                         NN 4607AMPLRAEP5Z0707  N840000000024870          81CNKETOFUSION 8885968154    0071480197MC84000000024870 NDR599977547467   37F494F0AAT98199FDF4A26  000000000+600450S00130    MPL  00000                     000000000  N                0000000000000.00 0000000.00   0000000.00             000000000024870C000000000000000                                                                                                                                                     01424  000000000000 0000000000000.00     00000 00000                  
08892760164060030DR67590675900000019828800109800000010637F494F0AAT98199FDF4A26  R000000000000                                                                                                                                                                                                                                                                                                                                                                                                                                                                                                                                                                                                                               
08892770164060001G2675906759000000198288001098000000106888-5968154              UT           9 L               210                                      NNNN           210000000000000000000000000                        7                                          77547467                                                                                                                                                                                                                                                                                                                                                                                                                                               
08892780164060031DT67590675900000019828800109800000010680010976509753188900010207855070720230000000868218823000000000047500601149XXXXXX8518   BA00                  NN 4 07N873162162166032N840000000008682    00    01CNKETOFUSION 8885968154    00704P0197DS84000000008682 NDR599977547467070                         000000000+1015104910600   DCPDI00000666105  153016200000 000000000  0          156   0000000000000.00 0000000.00   0000000.00             000000000008682C000000000000000                                                                                                                                                     01424  000000000000 0000000000000.00     00000 00000                  
08892790164060031DR675906759000000198288001098000000106                         R                                                                                                                                                                                                                                                                                                                                                                                                                                                                                                                                                                                                                                           
08892800164060001G2675906759000000198288001098000000106888-5968154              UT           9 P                00                                      NNNN                          000000000000                         00000650975601179750000394                77547467                                                                                                                                                                                                                                                                                                                                                                                                                                               
08892810164060032BH6759067590000000370780088880000090170707202318823000000000038499    0000090001321205Y8008886759C07102023132                                                                                                                                                                                                                                                                                                                                                                                                                                                                                                                                                                                              
08892820164060033DT67590675900000003707800888800000010180088824001193188900013212037070720230000002249918823000000000038499483312XXXXXX9907               2111111   NYV4 A7W583188196592079N8400000000224993X6800    01DNMR HEMP FLOWER           092701    VD84000000022499 NDR549976053336   91880                    000000000+                F DF 10420                     000000000  Y000000000 338   0000000000000.00 0000000.00   0000000.00                             000000000000000                                                                                                                                                     01424 G000000022499 0000000000000.33     00050 02200                  
08892830164060033DR67590675900000003707800888800000010191880                    Y000000022499                 P1                                                                                                                                                                                                                                                                                                                                                                                                                                                                                                                                                                                                            
08892840164060001P16759067590000000370780088880000001010000000000000000                             2000000000000000000000000              000000000000                    0000000000000000000000000                    000000000000                                                                                                                                                                                                                                                                                                                                                                                                                                                                                        
08892850164060002G2675906759000000037078008888000000101833-3877579              FL           9 D                00                                      NNNN   N                      000000000000                                                                   76053336                                                                                                                                                                                                                                                                                                                                                                                                                                               
08892860164060034DT67590675900000003707800888800000010180088887287283188900013212053070720230000001600018823000000000038499517805XXXXXX5344       ME03KE06MS02      NY 4607AMPLHVFFXF0707  N840000000016000          81DNMR HEMP FLOWER           05684B    MC84000000016000 NDR549976053336   91883                    000000000+600450S00130    MPL  00580                     000000000  N                0000000000000.00 0000000.00   0000000.00                             000000000000000                                                                                                                                                   U001424  000000000000 0000000000003.46     02100 01000                  
08892870164060034DR67590675900000003707800888800000010191883                    Y000000000000                                                                                                                                                                                                                                                                                                                                                                                                                                                                                                                                                                                                                               
08892880164060001G2675906759000000037078008888000000101833-3877579              FL           9 L               210                                      NNNN           210000000000000000000000000                        7                                          76053336                                                                                                                                                                                                                                                                                                                                                                                                                                               
08892890164060035BH6759067590000001427480010280000090170707202318823000000000356151    0000090001429604Y8001026759C07102023142                                                                                                                                                                                                                                                                                                                                                                                                                                                                                                                                                                                              
08892900164060036DT67590675900000014274800102800000010180010224001193188900014291089070620230000002111218823000000000356151442788XXXXXX7496               2111111   NYV4 A7W463184256684490N8400000000211123LJS00    01DNCBD8666317293            244068    VD84000000021112 NDR549977145232   E1B5C603DDT26FED0D8FC70  000000000+                F DF 10420                     000000000  Y000000000 338   0000000000000.00 0000000.00   0000000.00                             000000000000000                                                                                                                                                     01424 G000000021112 0000000000000.33     00050 02200                  
08892910164060036DR675906759000000142748001028000000101E1B5C603DDT26FED0D8FC70  Y000000021112                 P1                                                                                                                                                                                                                                                                                                                                                                                                                                                                                                                                                                                                            
08892920164060001P16759067590000001427480010280000001010000000000000000                             2000000000000000000000000              000000000000                    0000000000000000000000000                    000000000000                                                                                                                                                                                                                                                                                                                                                                                                                                                                                        
08892930164060002G2675906759000000142748001028000000101866-6317293              GA           9 D                00                                      NNNN   N                      000000000000                                                                   77145232                                                                                                                                                                                                                                                                                                                                                                                                                                               
08892940164060037DT67590675900000014274800102800000010180010287287283188900014291148070620230000001987018823000000000356151533248XXXXXX1021       ME03KE06MS02      NY 4607AMPVRPSJEV0703  N840000000019870          81DNCBD8666317293            HOKD8C    MD84000000019870 NDR549977145232   0B68FE9853TA1C4A93E9AC6  000000000+600450S00130    MPV  09899                     000000000  N                0000000000000.00 0000000.00   0000000.00                             000000000000000                                                                                                                                                   U001424  000000000000 0000000000003.70     01760 02000                  
08892950164060037DR6759067590000001427480010280000001010B68FE9853TA1C4A93E9AC6  Y000000000000                                                                                                                                                                                                                                                                                                                                                                                                                                                                                                                                                                                                                               
08892960164060001G2675906759000000142748001028000000101866-6317293              GA           9 V               210                                      NNNN           210000000000000000000000000                                                                   77145232                                                                                                                                                                                                                                                                                                                                                                                                                                               
08892970164060038DT67590675900000014274800102800000010180010287287283188900014291171070620230000001499118823000000000356151514377XXXXXX2596       ME03KE06MS02      NY 4607AMDJSQNHEV0703  N840000000014991          81DNCBD8666317293            1BUMMU    MD84000000014991 NDR549977145232   1D07B7B8CET79EF006EC5A1  000000000+600450S00130    MDJ  00401                     000000000  N                0000000000000.00 0000000.00   0000000.00                             000000000000000                                                                                                                                                   U001424  000000000000 0000000000002.62     01650 01500                  
08892980164060038DR6759067590000001427480010280000001011D07B7B8CET79EF006EC5A1  A000000000000                                                                                                                                                                                                                                                                                                                                                                                                                                                                                                                                                                                                                               
08892990164060001G2675906759000000142748001028000000101866-6317293              GA           9 J               210                                      NNNN           210000000000000000000000000                        7                                          77145232                                                                                                                                                                                                                                                                                                                                                                                                                                               
08893000164060039DT67590675900000014274800102800000010180010224001193188900014291188070620230000001987018823000000000356151400022XXXXXX9275               2111111   NYV4 A7W463184438059949N840000000019870MJS500    01DNCBD8666317293            624244    VD84000000019870 NDR549977145232   7A4599C495TD8B2B989E230  000000000+                F DF 10420                     000000000  Y000000000 338   0000000000000.00 0000000.00   0000000.00                             000000000000000                                                                                                                                                     01424 G000000019870 0000000000000.32     00050 02200                  
08893010164060039DR6759067590000001427480010280000001017A4599C495TD8B2B989E230  Y000000019870                 P1                                                                                                                                                                                                                                                                                                                                                                                                                                                                                                                                                                                                            
08893020164060001P16759067590000001427480010280000001010000000000000000                             2000000000000000000000000              000000000000                    0000000000000000000000000                    000000000000                                                                                                                                                                                                                                                                                                                                                                                                                                                                                        
08893030164060002G2675906759000000142748001028000000101866-6317293              GA           9 D                00                                      NNNN   N                      000000000000                                                                   77145232                                                                                                                                                                                                                                                                                                                                                                                                                                               
08893040164060040DT67590675900000014274800102800000010180010224001193188900014291279070620230000002136018823000000000356151401973XXXXXX1874               2111111   NYV4 A7W303184525115962N840000000021360K75T00    01DNCBD8666317293            227721    VD84000000021360 NDR549977145232   13F876B989T07B568F14EA8  000000000+                F PF 08175                     000000000  N000000000       0000000000000.00 0000000.00   0000000.00                             000000000000000                                                                                                                                                     01424 G000000021360 0000000000003.94     01750 02000                  
08893050164060040DR67590675900000014274800102800000010113F876B989T07B568F14EA8  N000000021360                 P1                                                                                                                                                                                                                                                                                                                                                                                                                                                                                                                                                                                                            
08893060164060001P16759067590000001427480010280000001010000000000000000                             2000000000000000000000000              000000000000                    0000000000000000000000000                    000000000000                                                                                                                                                                                                                                                                                                                                                                                                                                                                                        
08893070164060002G2675906759000000142748001028000000101866-6317293              GA           9 P                00                                      NNNN   N                      000000000000                                                                   77145232                                                                                                                                                                                                                                                                                                                                                                                                                                               
08893080164060041DT67590675900000014274800102800000010180010273011003188900014291770070620230000001596518823000000000356151379801XXXXX4000                          NY 4 07N005602156896308N840000000015965          01DNCBD8666317293            268602    AM84000000015965 Y  549977145232                            000000000+6004S0S00130 258     11262                     000000000                   0000000000000.00 0000000.00   0000000.00                             000000000000000 61248972086759675900000014274 CBD8666317293            2993 SANDY PLAINS RD STE 6787614584      30066     EMORRIS@GREENOTTERCBD.COM                 01324  000000000000 0000000000003.21     01950 00000                  
08893090164060001G2675906759000000142748001028000000101MARIETTA                 GA           9                  00                                      NNNN                          000000000000                                                                   77145232                                                                                                                                                                                                                                                                                                                                                                                                                                               
08893100164060042DT67590675900000014274800102800000010180010224001193188900014292194070620230000002126118823000000000356151400899XXXXXX6877               2111111   NYV4 A7W383185009058733N840000000021261LG2600    01DNCBD8666317293            003144    VS84000000021261 NDR549977145232   8335B22A60TF23676D25E07  000000000+                C CC 12108                     000000000  N000000000 496   0000000000000.00 0000000.00   0000000.00                             000000000000000                                                                                                                                                     01424 G000000021261 0000000000004.46     02050 01000                  
08893110164060042DR6759067590000001427480010280000001018335B22A60TF23676D25E07  Y000000021261                 P1                                                                                                                                                                                                                                                                                                                                                                                                                                                                                                                                                                                                            
08893120164060001P16759067590000001427480010280000001010000000000000000                             2000000000000000000000000              000000000000                    0000000000000000000000000                    000000000000                                                                                                                                                                                                                                                                                                                                                                                                                                                                                        
08893130164060002G2675906759000000142748001028000000101866-6317293              GA           9 C                00                                      NNNN   Y                      000000000000                                                                   77145232                                                                                                                                                                                                                                                                                                                                                                                                                                               
08893140164060043DT67590675900000014274800102800000010180010287287283188900014292203070620230000000648418823000000000356151510807XXXXXX3073       ME03KE06MS02      NY 4607AMDSEVTVL60703  N840000000006484          81DNCBD8666317293            309453    MD84000000006484 NDR549977145232   8463B1E7B1T3352BAC2C2D9  000000000+600450S00130    MDS  00401                     000000000  N                0000000000000.00 0000000.00   0000000.00                             000000000000000                                                                                                                                                   U001424  000000000000 0000000000001.22     01650 01500                  
08893150164060043DR6759067590000001427480010280000001018463B1E7B1T3352BAC2C2D9  Y000000000000                                                                                                                                                                                                                                                                                                                                                                                                                                                                                                                                                                                                                               
08893160164060001G2675906759000000142748001028000000101866-6317293              GA           9 S               210                                      NNNN           210000000000000000000000000                                                                   77145232                                                                                                                                                                                                                                                                                                                                                                                                                                               
08893170164060044DT67590675900000014274800102800000010180010273011003188900014292232070620230000001200818823000000000356151371531XXXXX6003                          NY 4 07N005607897838303N840000000012008          01DNCBD8666317293            225275    AM84000000012008 Y  549977145232                            000000000+6004S0S00130 258     11262                     000000000                   0000000000000.00 0000000.00   0000000.00                             000000000000000 61248972086759675900000014274 CBD8666317293            2993 SANDY PLAINS RD STE 6787614584      30066     EMORRIS@GREENOTTERCBD.COM                 01324  000000000000 0000000000002.44     01950 00000                  
08893180164060001G2675906759000000142748001028000000101MARIETTA                 GA           9                  00                                      NNNN                          000000000000                                                                   77145232                                                                                                                                                                                                                                                                                                                                                                                                                                               
08893190164060045DT67590675900000014274800102800000010180010287287283188900014292310070620230000001987018823000000000356151530654XXXXXX3798                         NY 4607AMDBKF8JMF0703  N840000000019870          81DNCBD8666317293            796045    MD84000000019870 NDR549977145232   B0E475CB9FTA489CDF60082  000000000+600450S00130    MDB  10786                     000000000  1                0000000000000.00 0000000.00   0000000.00                             000000000000000                                                                                                                                                   U001424  000000000000 0000000000000.32     00050 02200                  
08893200164060045DR675906759000000142748001028000000101B0E475CB9FTA489CDF60082  N000000000000                 P1                                                                                                                                                                                                                                                                                                                                                                                                                                                                                                                                                                                                            
08893210164060001P1675906759000000142748001028000000101                                                          000000000000          8000            871584967                                                                                                                                                                                                                                                                                                                                                                                                                                                                                                                                                            
08893220164060002G2675906759000000142748001028000000101866-6317293              GA           9 B               210                  871584967           YNNN           210000000000000000000000000                        7                                          77145232                                                                                                                                                                                                                                                                                                                                                                                                                                               
08893230164060046DT67590675900000014274800102800000010180010224001193188900014295429070720230000002121118823000000000356151486796XXXXXX5332               2111111   NYV4 A7W303188549041848N840000000021211KQND00    01DNCBD8666317293            051511    VD84000000021211 NDR549977145232   94BD2B95D9T1B2E39092CC3  000000000+                F DF 10420                     000000000  Y000000000 338   0000000000000.00 0000000.00   0000000.00                             000000000000000                                                                                                                                                     01424 G000000021211 0000000000000.33     00050 02200                  
08893240164060046DR67590675900000014274800102800000010194BD2B95D9T1B2E39092CC3  Z000000021211                 P1                                                                                                                                                                                                                                                                                                                                                                                                                                                                                                                                                                                                            
08893250164060001P16759067590000001427480010280000001010000000000000000                             2000000000000000000000000              000000000000                    0000000000000000000000000                    000000000000                                                                                                                                                                                                                                                                                                                                                                                                                                                                                        
08893260164060002G2675906759000000142748001028000000101866-6317293              GA           9 D                00                                      NNNN   N                      000000000000                                                                   77145232                                                                                                                                                                                                                                                                                                                                                                                                                                               
