00015630361050002BH675906759000000232598001168000009017061520231662300000000002178901970000090001692322N8001166759D06162023069                                                                                                                                                                                                                                                                                                                                                                                                                                                                                                                                                                                              
00015640361050003DT67590675900000023259800116800000010680011687287283166900016923223061520230000002178916623000000000021789527267XXXXXX8533                         NN94607N         0615  N840000000000000          81CNGFORCEHEMP844-258-9322         0197MD84000000021789 N  549977768166   70DF7B1D5CTE42B866357E0  000000000+600450S00130    MDJ  00000                     000000000  N                0000000000000.00 0000000.00   0000000.00             000000000021789C000000000000000                                                                                                                                                     01424  000000000000 0000000000000.00     00000 00000                  
00015650361050001G2675906759000000232598001168000000106844-2589322              CA           9 J               210                                      NNNN           210000000000000000000000000                                                                   77768166                                                                                                                                                                                                                                                                                                                                                                                                                                               
00015660361050004BH6759067590000002092580011280000090170615202316623000000000201000    0000090001360093Y8001126759C06162023036                                                                                                                                                                                                                                                                                                                                                                                                                                                                                                                                                                                              
00015670361050005DT67590675900000020925800112800000010180011224001193166900013600914061520230000003600016623000000000201000425828XXXXXX1493               2111111   NYV4 A7W303166495078892N840000000036000XHWZ00    01DNJ K DISTRIBUTION INC     028045    VD84000000036000 NDR549977712156   MICHAELHURFF             000000000+                F DF 10420                     000000000  Y000000000 338   0000000000000.00 0000000.00   0000000.00                             000000000000000                                                                                                                                                     01424 G000000036000 0000000000000.40     00050 02200                  
00015680361050005DR675906759000000209258001128000000101MICHAELHURFF             Z000000036000                 P1                                                                                                                                                                                                                                                                                                                                                                                                                                                                                                                                                                                                            
00015690361050001P16759067590000002092580011280000001010000000000000000                             2000000000000000000000000              000000000000                    0000000000000000000000000                    000000000000                                                                                                                                                                                                                                                                                                                                                                                                                                                                                        
00015700361050002G2675906759000000209258001128000000101203-8159817              CT           9 D                00                                      NNNN   N                      000000000000                                                                   77712156                                                                                                                                                                                                                                                                                                                                                                                                                                               
00015710361050006DT67590675900000020925800112800000010180011273011003166900013600928061520230000016000016623000000000201000376741XXXXX1009                          NY 4 07N005276299963307N840000000160000          01DNJ K DISTRIBUTION INC     258920    AM84000000160000 YP1549977712156   INV002112                000000000+6004S0S00130 258     11263                     000000000                   0000000000000.00 0000000.00   0000000.00                             000000000000000 61248972086759675900000020925 J K DISTRIBUTION INC     391 MAIN ST              8608957639      06492     ADMIN@GOODDISTRO.COM                      01324  000000000000 0000000000038.50     02400 00000                  
00015720361050001P1675906759000000209258001128000000101                    INV002112                             00000000000006492     1000   000000000850871923            000000000000                                                                                                      D                                                                                                                                                                                                                                                                                                                                                                                                                             
00015730361050002P2675906759000000209258001128000000101                                                                                              00000                   000000000                                                                                                                                                                                                                                                                                                                                                                                                                                                                                                                                      
00015740361050003G2675906759000000209258001128000000101WALLINGFORD              CT           9                  00                  850871923           YNNN                          000000000000                                                                   77712156                                                                                                                                                                                                                                                                                                                                                                                                                                               
00015750361050007DT67590675900000020925800112800000010180011273011003166900013600936061520230000000500016623000000000201000376741XXXXX1009                          NY 4 07N005276627307300N840000000005000          01DNJ K DISTRIBUTION INC     243814    AM84000000005000 YP1549977712156   INV002113                000000000+6004S0S00130 258     11261                     000000000                   0000000000000.00 0000000.00   0000000.00                             000000000000000 61248972086759675900000020925 J K DISTRIBUTION INC     391 MAIN ST              8608957639      06492     ADMIN@GOODDISTRO.COM                      01324  000000000000 0000000000000.90     01600 00000                  
00015760361050001P1675906759000000209258001128000000101                    INV002113                             00000000000002554     1000   000000000850871923            000000000000                                                                                                      D                                                                                                                                                                                                                                                                                                                                                                                                                             
00015770361050002P2675906759000000209258001128000000101                                                                                              00000                   000000000                                                                                                                                                                                                                                                                                                                                                                                                                                                                                                                                      
00015780361050003G2675906759000000209258001128000000101WALLINGFORD              CT           9                  00                  850871923           YNNN                          000000000000                                                                   77712156                                                                                                                                                                                                                                                                                                                                                                                                                                               
00015790361050008BH6759067590000000288180088880000090170615202316623000000000003748    0000090001400275Y8008886759C06162023140                                                                                                                                                                                                                                                                                                                                                                                                                                                                                                                                                                                              
00015800361050009DT67590675900000002881800888800000010180088824001193166900014002755061520230000000374816623000000000003748442505XXXXXX7723               2111111   NYV4 A7W583166826006022N840000000003748V2QR00    01DNHAPPY HIPPIE             09232B    VS84000000003748 NDR549976044904   2093                     000000000+                B CB 12107                     000000000  N000000000 494   0000000000000.00 0000000.00   0000000.00                             000000000000000                                                                                                                                                     01424 G000000003748 0000000000000.86     02040 01000                  
00015810361050009DR6759067590000000288180088880000001012093                     Y000000003748                 P1                                                                                                                                                                                                                                                                                                                                                                                                                                                                                                                                                                                                            
00015820361050001P16759067590000000288180088880000001010000000000000000                             2000000000000000000000000              000000000000                    0000000000000000000000000                    000000000000                                                                                                                                                                                                                                                                                                                                                                                                                                                                                        
00015830361050002G2675906759000000028818008888000000101865-3663142              TN           9 C                00                                      NNNN   Y                      000000000000                                                                   76044904                                                                                                                                                                                                                                                                                                                                                                                                                                               
00015840361050010BH6759067590000001330080010280000090170615202316623000000000716534    0000090001207301Y8001026759C06162023120                                                                                                                                                                                                                                                                                                                                                                                                                                                                                                                                                                                              
00015850361050011DT67590675900000013300800102800000010180010287287283166900012064840061420230000000751216623000000000716534514887XXXXXX2103       ME03KE06MS02      NY 4607AMPLCX8NPC0611  N840000000007512          81DNCBD8666317293            01401Z    MC84000000007512 NDR549977133133   4C99FEC4A4TD3C6ED87A0AE  000000000+600450S00130    MPL  00013                     000000000  N                0000000000000.00 0000000.00   0000000.00                             000000000000000                                                                                                                                                   U001424  000000000000 0000000000001.56     01950 01000                  
00015860361050011DR6759067590000001330080010280000001014C99FEC4A4TD3C6ED87A0AE  Y000000000000                                                                                                                                                                                                                                                                                                                                                                                                                                                                                                                                                                                                                               
00015870361050001G2675906759000000133008001028000000101866-6317293              GA           9 L               210                                      NNNN           210000000000000000000000000                        7                                          77133133                                                                                                                                                                                                                                                                                                                                                                                                                                               
00015880361050012DT67590675900000013300800102800000010180010224001193166900012064898061420230000001987016623000000000716534476190XXXXXX1670               2111111   NYV4 A7W463162438057636N84000000001987088BL00    01DNCBD8666317293            276534    VD84000000019870 NDR549977133133   51B740896CTE2B93A246AF1  000000000+                F DF 00415                     000000000  N000000000       0000000000000.00 0000000.00   0000000.00                             000000000000000                                                                                                                                                     01424 G000000019870 0000000000003.43     01650 01500                  
00015890361050012DR67590675900000013300800102800000010151B740896CTE2B93A246AF1  Y000000019870                 P1                                                                                                                                                                                                                                                                                                                                                                                                                                                                                                                                                                                                            
00015900361050001P16759067590000001330080010280000001010000000000000000                             2000000000000000000000000              000000000000                    0000000000000000000000000                    000000000000                                                                                                                                                                                                                                                                                                                                                                                                                                                                                        
00015910361050002G2675906759000000133008001028000000101866-6317293              GA           9 D                00                                      NNNN   N                      000000000000                                                                   77133133                                                                                                                                                                                                                                                                                                                                                                                                                                               
00015920361050013DT67590675900000013300800102800000010180010224001193166900012065390061420230000001987016623000000000716534444796XXXXXX5571               2111111   NYV4 A7W303162591086442N840000000019870ZQHN00    01DNCBD8666317293            011619    VS84000000019870 NDR549977133133   C7F190A05AT7C413328E2D2  000000000+                A CA 12106                     000000000  N000000000 492   0000000000000.00 0000000.00   0000000.00                             000000000000000                                                                                                                                                     01424 G000000019870 0000000000003.86     01890 01000                  
00015930361050013DR675906759000000133008001028000000101C7F190A05AT7C413328E2D2  Y000000019870                 P1                                                                                                                                                                                                                                                                                                                                                                                                                                                                                                                                                                                                            
00015940361050001P16759067590000001330080010280000001010000000000000000                             2000000000000000000000000              000000000000                    0000000000000000000000000                    000000000000                                                                                                                                                                                                                                                                                                                                                                                                                                                                                        
00015950361050002G2675906759000000133008001028000000101866-6317293              GA           9 C                00                                      NNNN   N                      000000000000                                                                   77133133                                                                                                                                                                                                                                                                                                                                                                                                                                               
00015960361050014DT67590675900000013300800102800000010180010224001193166900012065424061420230000001987016623000000000716534474467XXXXXX4229               2111111   NYV4 A7W303162603056724N840000000019870R4HV00    01DNCBD8666317293            120656    VD84000000019870 NDR549977133133   807DA40EF9T0341E6AF60D7  000000000+                F DF 00415                     000000000  N000000000       0000000000000.00 0000000.00   0000000.00                             000000000000000                                                                                                                                                     01424 G000000019870 0000000000003.43     01650 01500                  
00015970361050014DR675906759000000133008001028000000101807DA40EF9T0341E6AF60D7  A000000019870                 P1                                                                                                                                                                                                                                                                                                                                                                                                                                                                                                                                                                                                            
00015980361050001P16759067590000001330080010280000001010000000000000000                             2000000000000000000000000              000000000000                    0000000000000000000000000                    000000000000                                                                                                                                                                                                                                                                                                                                                                                                                                                                                        
00015990361050002G2675906759000000133008001028000000101866-6317293              GA           9 D                00                                      NNNN   N                      000000000000                                                                   77133133                                                                                                                                                                                                                                                                                                                                                                                                                                               
00016000361050015DT67590675900000013300800102800000010180010224001193166900012066281061420230000001929516623000000000716534476929XXXXXX7256               2111111   NYV4 A7W583162846097528N840000000019295D8BD00    01DNCBD8666317293            056856    VD84000000019295 NDR549977133133   5260C505F2T9061F45D073E  000000000+                F DF 00415                     000000000  N000000000       0000000000000.00 0000000.00   0000000.00                             000000000000000                                                                                                                                                     01424 G000000019295 0000000000003.33     01650 01500                  
00016010361050015DR6759067590000001330080010280000001015260C505F2T9061F45D073E  Y000000019295                 P1                                                                                                                                                                                                                                                                                                                                                                                                                                                                                                                                                                                                            
00016020361050001P16759067590000001330080010280000001010000000000000000                             2000000000000000000000000              000000000000                    0000000000000000000000000                    000000000000                                                                                                                                                                                                                                                                                                                                                                                                                                                                                        
00016030361050002G2675906759000000133008001028000000101866-6317293              GA           9 D                00                                      NNNN   N                      000000000000                                                                   77133133                                                                                                                                                                                                                                                                                                                                                                                                                                               
00016040361050016DT67590675900000013300800102800000010180010287287283166900012066449061420230000002708316623000000000716534514377XXXXXX0003       ME03KE06MS02      NY 4607AMDJTUCMVH0611  N840000000027083          81DNCBD8666317293            2OPBSP    MD84000000027083 NDR549977133133   FB530C969FTE1399AE163DA  000000000+600450S00130    MDJ  00401                     000000000  N                0000000000000.00 0000000.00   0000000.00                             000000000000000                                                                                                                                                   U001424  000000000000 0000000000004.62     01650 01500                  
00016050361050016DR675906759000000133008001028000000101FB530C969FTE1399AE163DA  Y000000000000                                                                                                                                                                                                                                                                                                                                                                                                                                                                                                                                                                                                                               
00016060361050001G2675906759000000133008001028000000101866-6317293              GA           9 J               210                                      NNNN           210000000000000000000000000                        7                                          77133133                                                                                                                                                                                                                                                                                                                                                                                                                                               
00016070361050017DT67590675900000013300800102800000010180010224001193166900012066463061420230000001589016623000000000716534439348XXXXXX2906               2111111   NYV4 A7W303163109469536N8400000000158903FFM00    01DNCBD8666317293            747621    VD84000000015890 NDR549977133133   8E511C22B3TB2641520328E  000000000+                F DF 00415                     000000000  N000000000       0000000000000.00 0000000.00   0000000.00                             000000000000000                                                                                                                                                     01424 G000000015890 0000000000002.77     01650 01500                  
00016080361050017DR6759067590000001330080010280000001018E511C22B3TB2641520328E  Y000000015890                 P1                                                                                                                                                                                                                                                                                                                                                                                                                                                                                                                                                                                                            
00016090361050001P16759067590000001330080010280000001010000000000000000                             2000000000000000000000000              000000000000                    0000000000000000000000000                    000000000000                                                                                                                                                                                                                                                                                                                                                                                                                                                                                        
00016100361050002G2675906759000000133008001028000000101866-6317293              GA           9 D                00                                      NNNN   N                      000000000000                                                                   77133133                                                                                                                                                                                                                                                                                                                                                                                                                                               
00016110361050018DT67590675900000013300800102800000010180010224001193166900012070846061420230000001987016623000000000716534446539XXXXXX1787               2111111   NYV4 A7W463166025310174N840000000019870SP4G00    01DNCBD8666317293            014915    VS84000000019870 NDR549977133133   EA5D586E83TC215B6F62547  000000000+                A CA 12106                     000000000  N000000000 492   0000000000000.00 0000000.00   0000000.00                             000000000000000                                                                                                                                                     01424 G000000019870 0000000000003.86     01890 01000                  
00016120361050018DR675906759000000133008001028000000101EA5D586E83TC215B6F62547  Z000000019870                 P1                                                                                                                                                                                                                                                                                                                                                                                                                                                                                                                                                                                                            
00016130361050001P16759067590000001330080010280000001010000000000000000                             2000000000000000000000000              000000000000                    0000000000000000000000000                    000000000000                                                                                                                                                                                                                                                                                                                                                                                                                                                                                        
00016140361050002G2675906759000000133008001028000000101866-6317293              GA           9 C                00                                      NNNN   Y                      000000000000                                                                   77133133                                                                                                                                                                                                                                                                                                                                                                                                                                               
00016150361050019DT67590675900000013300800102800000010180010287287283166900012070854061420230000002135516623000000000716534527522XXXXXX9701       ME03KE06MS02      NY 4607AMDJB7A9C80614  N840000000021355          81DNCBD8666317293            175201    MD84000000021355 NDR549977133133   9C2A947F0BTA70CD9593BB1  000000000+600450S00130    MDJ  10813                     000000000  1                0000000000000.00 0000000.00   0000000.00                             000000000000000                                                                                                                                                   U001424  000000000000 0000000000000.33     00050 02200                  
00016160361050019DR6759067590000001330080010280000001019C2A947F0BTA70CD9593BB1  N000000000000                                                                                                                                                                                                                                                                                                                                                                                                                                                                                                                                                                                                                               
00016170361050001G2675906759000000133008001028000000101866-6317293              GA           9 J               210                                      NNNN           210000000000000000000000000                        7                                          77133133                                                                                                                                                                                                                                                                                                                                                                                                                                               
00016180361050020DT67590675900000013300800102800000010180010287287283166900012070953061420230000002103216623000000000716534523815XXXXXX9413       ME03KE06MS02      NY 4607AMDSKLCXC80614  N840000000021032          81DNCBD8666317293            500093    MD84000000021032 NDR549977133133   E8B9E44FCFT20F91C20C54F  000000000+600450S00130    MDS  00401                     000000000  N                0000000000000.00 0000000.00   0000000.00                             000000000000000                                                                                                                                                   U001424  000000000000 0000000000003.62     01650 01500                  
00016190361050020DR675906759000000133008001028000000101E8B9E44FCFT20F91C20C54F  Y000000000000                                                                                                                                                                                                                                                                                                                                                                                                                                                                                                                                                                                                                               
00016200361050001G2675906759000000133008001028000000101866-6317293              GA           9 S               210                                      NNNN           210000000000000000000000000                                                                   77133133                                                                                                                                                                                                                                                                                                                                                                                                                                               
00016210361050021DT67590675900000013300800102800000010180010224001193166900012070960061420230000000019916623000000000716534428813XXXXXX2733               2111111   NYV4 A7W383166113490872N840000000000199HHSZ00    01DNCBD8666317293            711335    VB84000000000199 NDR549977133133   6EA2D01D30TCFB4DE205798  000000000+                S CS 00692                     000000000  N000000000 237   0000000000000.00 0000000.00   0000000.00                             000000000000000                                                                                                                                                     01424 G000000000199 0000000000000.15     02700 01000                  
00016220361050021DR6759067590000001330080010280000001016EA2D01D30TCFB4DE205798  Y000000000199                 P1                                                                                                                                                                                                                                                                                                                                                                                                                                                                                                                                                                                                            
00016230361050001P16759067590000001330080010280000001010000000000000000                             2000000000000000000000000              000000000000                    0000000000000000000000000                    000000000000                                                                                                                                                                                                                                                                                                                                                                                                                                                                                        
00016240361050002G2675906759000000133008001028000000101866-6317293              GA           9 C                00                                      NNNN   N                      000000000000                                                                   77133133                                                                                                                                                                                                                                                                                                                                                                                                                                               
00016250361050022DT67590675900000013300800102800000010180010224001193166900012070994061420230000000019916623000000000716534483317XXXXXX2856               2111111   NYV4 A7W303166123727014N8400000000001992VCT00    01DNCBD8666317293            8OYX16    VD84000000000199 NDR549977133133   DFBC945E4FT11523446FDE1  000000000+                S PS 10179                     000000000  N000000000 364   0000000000000.00 0000000.00   0000000.00                             000000000000000                                                                                                                                                     01424 G000000000199 0000000000000.15     02650 01000                  
00016260361050022DR675906759000000133008001028000000101DFBC945E4FT11523446FDE1  Y000000000199                 P1                                                                                                                                                                                                                                                                                                                                                                                                                                                                                                                                                                                                            
00016270361050001P16759067590000001330080010280000001010000000000000000                             2000000000000000000000000              000000000000                    0000000000000000000000000                    000000000000                                                                                                                                                                                                                                                                                                                                                                                                                                                                                        
00016280361050002G2675906759000000133008001028000000101866-6317293              GA           9 P                00                                      NNNN   N                      000000000000                                                                   77133133                                                                                                                                                                                                                                                                                                                                                                                                                                               
00016290361050023DT67590675900000013300800102800000010180010224001193166900012071000061420230000000019916623000000000716534428813XXXXXX3496               2111111   NYV4 A7W583166168708135N840000000000199L23300    01DNCBD8666317293            560357    VB84000000000199 NDR549977133133   A196DAB970TFDCE95ADB474  000000000+                S CS 00692                     000000000  N000000000 237   0000000000000.00 0000000.00   0000000.00                             000000000000000                                                                                                                                                     01424 G000000000199 0000000000000.15     02700 01000                  
00016300361050023DR675906759000000133008001028000000101A196DAB970TFDCE95ADB474  Y000000000199                 P1                                                                                                                                                                                                                                                                                                                                                                                                                                                                                                                                                                                                            
00016310361050001P16759067590000001330080010280000001010000000000000000                             2000000000000000000000000              000000000000                    0000000000000000000000000                    000000000000                                                                                                                                                                                                                                                                                                                                                                                                                                                                                        
00016320361050002G2675906759000000133008001028000000101866-6317293              GA           9 C                00                                      NNNN   N                      000000000000                                                                   77133133                                                                                                                                                                                                                                                                                                                                                                                                                                               
00016330361050024DT67590675900000013300800102800000010180010224001193166900012071018061420230000000019916623000000000716534489607XXXXXX1081               2111111   NYV4 A7W383166169279224N840000000000199CMSD00    01DNCBD8666317293            SXUL8G    VD84000000000199 NDR549977133133   2DB91A65BBTFE1AA4448D63  000000000+                S PS 10179                     000000000  N000000000 364   0000000000000.00 0000000.00   0000000.00                             000000000000000                                                                                                                                                     01424 G000000000199 0000000000000.15     02650 01000                  
00016340361050024DR6759067590000001330080010280000001012DB91A65BBTFE1AA4448D63  Y000000000199                 P1                                                                                                                                                                                                                                                                                                                                                                                                                                                                                                                                                                                                            
00016350361050001P16759067590000001330080010280000001010000000000000000                             2000000000000000000000000              000000000000                    0000000000000000000000000                    000000000000                                                                                                                                                                                                                                                                                                                                                                                                                                                                                        
00016360361050002G2675906759000000133008001028000000101866-6317293              GA           9 P                00                                      NNNN   N                      000000000000                                                                   77133133                                                                                                                                                                                                                                                                                                                                                                                                                                               
00016370361050025DT67590675900000013300800102800000010180010287287283166900012071100061520230000002126116623000000000716534512107XXXXXX6636       ME03KE06MS02      NY 4607AMCC18PFGR0615  N840000000021261          81DNCBD8666317293            01591B    MC84000000021261 NDR549977133133   6E9F9DF9E4T79AF51AD56CF  000000000+600450S00130    MCC  00580                     000000000  N                0000000000000.00 0000000.00   0000000.00                             000000000000000                                                                                                                                                   U001424  000000000000 0000000000004.56     02100 01000                  
00016380361050025DR6759067590000001330080010280000001016E9F9DF9E4T79AF51AD56CF  Y000000000000                                                                                                                                                                                                                                                                                                                                                                                                                                                                                                                                                                                                                               
00016390361050001G2675906759000000133008001028000000101866-6317293              GA           9 C               210                                      NNNN           210000000000000000000000000                        7                                          77133133                                                                                                                                                                                                                                                                                                                                                                                                                                               
00016400361050026DT67590675900000013300800102800000010180010224001193166900012071133061520230000000019916623000000000716534451946XXXXXX3411               2111111   NYV4 A7W383166324711689N840000000000199K4S900    01DNCBD8666317293            OKYQXR    VS84000000000199 NDR549977133133   2ABAFF903ET2C86C4247DA8  000000000+                A CA 12106                     000000000  N000000000 492   0000000000000.00 0000000.00   0000000.00                             000000000000000                                                                                                                                                     01424 G000000000199 0000000000000.14     01890 01000                  
00016410361050026DR6759067590000001330080010280000001012ABAFF903ET2C86C4247DA8  Y000000000199                 P1                                                                                                                                                                                                                                                                                                                                                                                                                                                                                                                                                                                                            
00016420361050001P16759067590000001330080010280000001010000000000000000                             2000000000000000000000000              000000000000                    0000000000000000000000000                    000000000000                                                                                                                                                                                                                                                                                                                                                                                                                                                                                        
00016430361050002G2675906759000000133008001028000000101866-6317293              GA           9 C                00                                      NNNN   N                      000000000000                                                                   77133133                                                                                                                                                                                                                                                                                                                                                                                                                                               
00016440361050027DT67590675900000013300800102800000010180010224001193166900012071174061520230000002126116623000000000716534474476XXXXXX6168               2111111   NYV4 A7W303166382144380N8400000000212615NGX00    01DNCBD8666317293            113060    VD84000000021261 NDR549977133133   4E3954BD0DT97E8FB79AF55  000000000+                F DF 10420                     000000000  Y000000000 338   0000000000000.00 0000000.00   0000000.00                             000000000000000                                                                                                                                                     01424 G000000021261 0000000000000.33     00050 02200                  
00016450361050027DR6759067590000001330080010280000001014E3954BD0DT97E8FB79AF55  Y000000021261                 P1                                                                                                                                                                                                                                                                                                                                                                                                                                                                                                                                                                                                            
00016460361050001P16759067590000001330080010280000001010000000000000000                             2000000000000000000000000              000000000000                    0000000000000000000000000                    000000000000                                                                                                                                                                                                                                                                                                                                                                                                                                                                                        
00016470361050002G2675906759000000133008001028000000101866-6317293              GA           9 D                00                                      NNNN   N                      000000000000                                                                   77133133                                                                                                                                                                                                                                                                                                                                                                                                                                               
00016480361050028DT67590675900000013300800102800000010180010224001193166900012071208061520230000000019916623000000000716534451946XXXXXX6722               2111111   NYV4 A7W583166435031819N8400000000001998QD700    01DNCBD8666317293            PC8VEO    VS84000000000199 NDR549977133133   7BF29C66E6T8C7EF6E803E2  000000000+                A CA 12106                     000000000  N000000000 492   0000000000000.00 0000000.00   0000000.00                             000000000000000                                                                                                                                                     01424 G000000000199 0000000000000.14     01890 01000                  
00016490361050028DR6759067590000001330080010280000001017BF29C66E6T8C7EF6E803E2  Y000000000199                 P1                                                                                                                                                                                                                                                                                                                                                                                                                                                                                                                                                                                                            
00016500361050001P16759067590000001330080010280000001010000000000000000                             2000000000000000000000000              000000000000                    0000000000000000000000000                    000000000000                                                                                                                                                                                                                                                                                                                                                                                                                                                                                        
00016510361050002G2675906759000000133008001028000000101866-6317293              GA           9 C                00                                      NNNN   N                      000000000000                                                                   77133133                                                                                                                                                                                                                                                                                                                                                                                                                                               
00016520361050029DT67590675900000013300800102800000010180010224001193166900012071224061520230000002106216623000000000716534425418XXXXXX2583               2111111   NYV4 A7W383166442441265N840000000021062QRTS00    01DNCBD8666317293            01745C    VS84000000021062 NDR549977133133   292483F012T4D15F7BFD397  000000000+                C CC 12108                     000000000  N000000000 496   0000000000000.00 0000000.00   0000000.00                             000000000000000                                                                                                                                                     01424 G000000021062 0000000000004.42     02050 01000                  
00016530361050029DR675906759000000133008001028000000101292483F012T4D15F7BFD397  Y000000021062                 P1                                                                                                                                                                                                                                                                                                                                                                                                                                                                                                                                                                                                            
00016540361050001P16759067590000001330080010280000001010000000000000000                             2000000000000000000000000              000000000000                    0000000000000000000000000                    000000000000                                                                                                                                                                                                                                                                                                                                                                                                                                                                                        
00016550361050002G2675906759000000133008001028000000101866-6317293              GA           9 C                00                                      NNNN   Y                      000000000000                                                                   77133133                                                                                                                                                                                                                                                                                                                                                                                                                                               
00016560361050030DT67590675900000013300800102800000010680010287287283166900012071233061520230000000586216623000000000716534551070XXXXXX4671                         NY 4607AMDSPP3SGM0615  N840000000005862          81CNCBD8666317293            733837    MD84000000005862 NDR549977133133   47A68FBB6FT07E25D8BF96B  000000000+600450S00130    MDS  10828                     000000000  1                0000000000000.00 0000000.00   0000000.00                             000000000000000                                                                                                                                                     01424  000000000000 0000000000000.00     00000 00000                  
00016570361050030DR67590675900000013300800102800000010647A68FBB6FT07E25D8BF96B  Y000000000000                                                                                                                                                                                                                                                                                                                                                                                                                                                                                                                                                                                                                               
00016580361050001G2675906759000000133008001028000000106866-6317293              GA           9 S               210                                      NNNN           210000000000000000000000000                        7                                          77133133                                                                                                                                                                                                                                                                                                                                                                                                                                               
00016590361050031DT67590675900000013300800102800000010680010287287283166900012071308061520230000002126116623000000000716534521876XXXXXX9102                         NY 4607AMWEZYD6GM0615  N840000000021261          81CNCBD8666317293            531841    MC84000000021261 NDR549977133133   A83A771BA0T0C2C1CDE659D  000000000+600450S00130    MWE  00565                     000000000  N                0000000000000.00 0000000.00   0000000.00                             000000000000000                                                                                                                                                     01424  000000000000-0000000000003.72     01750 00000                  
00016600361050031DR675906759000000133008001028000000106A83A771BA0T0C2C1CDE659D  U000000000000                                                                                                                                                                                                                                                                                                                                                                                                                                                                                                                                                                                                                               
00016610361050001G2675906759000000133008001028000000106866-6317293              GA           9 E               210                                      NNNN           210000000000000000000000000                        7                                          77133133                                                                                                                                                                                                                                                                                                                                                                                                                                               
00016620361050032DT67590675900000013300800102800000010180010287287283166900012071373061520230000002106216623000000000716534542418XXXXXX9863       ME03KE06MS02      NY 4607AMPLK4XTRF0615  N840000000021062          81DNCBD8666317293            51284B    MC84000000021062 NDR549977133133   DCA1204267T2D577E95FD7F  000000000+600450S00130    MPL  00580                     000000000  N                0000000000000.00 0000000.00   0000000.00                             000000000000000                                                                                                                                                   U001424  000000000000 0000000000004.52     02100 01000                  
00016630361050032DR675906759000000133008001028000000101DCA1204267T2D577E95FD7F  Z000000000000                                                                                                                                                                                                                                                                                                                                                                                                                                                                                                                                                                                                                               
00016640361050001G2675906759000000133008001028000000101866-6317293              GA           9 L               210                                      NNNN           210000000000000000000000000                        7                                          77133133                                                                                                                                                                                                                                                                                                                                                                                                                                               
00016650361050033DT67590675900000013300800102800000010180010224001193166900012071406061520230000002126116623000000000716534449435XXXXXX2639               2111111   NYV4 A7W303166525044372N840000000021261P7QV00    01DNCBD8666317293            557650    VD84000000021261 NDR549977133133   041C07983ATBB915C1D47FB  000000000+                F DF 00415                     000000000  N000000000       0000000000000.00 0000000.00   0000000.00                             000000000000000                                                                                                                                                     01424 G000000021261 0000000000003.66     01650 01500                  
00016660361050033DR675906759000000133008001028000000101041C07983ATBB915C1D47FB  N000000021261                 P1                                                                                                                                                                                                                                                                                                                                                                                                                                                                                                                                                                                                            
00016670361050001P16759067590000001330080010280000001010000000000000000                             2000000000000000000000000              000000000000                    0000000000000000000000000                    000000000000                                                                                                                                                                                                                                                                                                                                                                                                                                                                                        
00016680361050002G2675906759000000133008001028000000101866-6317293              GA           9 D                00                                      NNNN   N                      000000000000                                                                   77133133                                                                                                                                                                                                                                                                                                                                                                                                                                               
00016690361050034DT67590675900000013300800102800000010180010224001193166900012071430061520230000000706116623000000000716534409758XXXXXX5295               2111111   NYV4 A7W463166529183295N840000000007061954W00    01DNCBD8666317293            761326    VD84000000007061 NDR549977133133   BC439C0D75TB236341420E5  000000000+                F PF 08175                     000000000  N000000000       0000000000000.00 0000000.00   0000000.00                             000000000000000                                                                                                                                                     01424 G000000007061 0000000000001.44     01750 02000                  
00016700361050034DR675906759000000133008001028000000101BC439C0D75TB236341420E5  U000000007061                 P1                                                                                                                                                                                                                                                                                                                                                                                                                                                                                                                                                                                                            
00016710361050001P16759067590000001330080010280000001010000000000000000                             2000000000000000000000000              000000000000                    0000000000000000000000000                    000000000000                                                                                                                                                                                                                                                                                                                                                                                                                                                                                        
00016720361050002G2675906759000000133008001028000000101866-6317293              GA           9 P                00                                      NNNN   N                      000000000000                                                                   77133133                                                                                                                                                                                                                                                                                                                                                                                                                                               
00016730361050035DT67590675900000013300800102800000010180010287287283166900012071456061520230000000158516623000000000716534534860XXXXXX0497                         NY 4607AMDBTYH7RF0615  N840000000001585          81DNCBD8666317293            165318    MD84000000001585 NDR549977133133                            000000000+600450S00130    MDB  10788                     000000000  1                0000000000000.00 0000000.00   0000000.00                             000000000000000                                                                                                                                                   U001424  000000000000 0000000000000.23     00050 02200                  
00016740361050035DR675906759000000133008001028000000101                         Y000000000000                 P1                                                                                                                                                                                                                                                                                                                                                                                                                                                                                                                                                                                                            
00016750361050001P1675906759000000133008001028000000101                                                 000000090000000000000          8000   000000000871584967            000000000000                                                                                                                                                                                                                                                                                                                                                                                                                                                                                                                                    
00016760361050002G2675906759000000133008001028000000101866-6317293              GA           9 B               210                  871584967           YNNN           210000000000000000000000000                        7                                          77133133                                                                                                                                                                                                                                                                                                                                                                                                                                               
00016770361050036DT67590675900000013300800102800000010180010287287283166900012071498061520230000001381616623000000000716534533248XXXXXX7995       ME03KE06MS02      NY 4607AMPVT9LTRF0615  N840000000013816          81DNCBD8666317293            FHD0N1    MD84000000013816 NDR549977133133   63D340DA18T568A28043E72  000000000+600450S00130    MPV  09899                     000000000  N                0000000000000.00 0000000.00   0000000.00                             000000000000000                                                                                                                                                   U001424  000000000000 0000000000002.63     01760 02000                  
00016780361050036DR67590675900000013300800102800000010163D340DA18T568A28043E72  Y000000000000                                                                                                                                                                                                                                                                                                                                                                                                                                                                                                                                                                                                                               
00016790361050001G2675906759000000133008001028000000101866-6317293              GA           9 V               210                                      NNNN           210000000000000000000000000                                                                   77133133                                                                                                                                                                                                                                                                                                                                                                                                                                               
00016800361050037DT67590675900000013300800102800000010180010287287283166900012071506061520230000000019916623000000000716534559292XXXXXX9233                         NY 4607AMCOUCQIRF0615  N840000000000199          81DNCBD8666317293            3TC6S0    MB84000000000199 NDR549977133133   75E35A4588TA9943EBABAA6  000000000+600450S00130    MCO  00303                     000000000  N                0000000000000.00 0000000.00   0000000.00                             000000000000000                                                                                                                                                     01424  000000000000 0000000000000.15     02700 01000                  
00016810361050037DR67590675900000013300800102800000010175E35A4588TA9943EBABAA6  Y000000000000                 P1                                                                                                                                                                                                                                                                                                                                                                                                                                                                                                                                                                                                            
00016820361050001P1675906759000000133008001028000000101                                                          000000000000          8000            871584967                                                                                                                                                                                                                                                                                                                                                                                                                                                                                                                                                            
00016830361050002G2675906759000000133008001028000000101866-6317293              GA           9 O               210                  871584967           YNNN           210000000000000000000000000                                                                   77133133                                                                                                                                                                                                                                                                                                                                                                                                                                               
00016840361050038DT67590675900000013300800102800000010180010287287283166900012071514061520230000002126116623000000000716534533248XXXXXX1836       ME03KE06MS02      NY 4607AMPVSRH9GM0615  N840000000021261          81DNCBD8666317293            FHDEEZ    MD84000000021261 NDR549977133133   9CBAFA9596T89FC11197720  000000000+600450S00130    MPV  09899                     000000000  N                0000000000000.00 0000000.00   0000000.00                             000000000000000                                                                                                                                                   U001424  000000000000 0000000000003.94     01760 02000                  
00016850361050038DR6759067590000001330080010280000001019CBAFA9596T89FC11197720  Z000000000000                                                                                                                                                                                                                                                                                                                                                                                                                                                                                                                                                                                                                               
00016860361050001G2675906759000000133008001028000000101866-6317293              GA           9 V               210                                      NNNN           210000000000000000000000000                                                                   77133133                                                                                                                                                                                                                                                                                                                                                                                                                                               
00016870361050039DT67590675900000013300800102800000010180010287287283166900012071548061520230000002116216623000000000716534510805XXXXXX7100       ME03KE06MS02      NY 4607AMDJU3BFRF0615  N840000000021162          81DNCBD8666317293            003506    MD84000000021162 NDR549977133133   0A08ACD3E9TA7C3F16E7202  000000000+600450S00130    MDJ  10813                     000000000  1                0000000000000.00 0000000.00   0000000.00                             000000000000000                                                                                                                                                   U001424  000000000000 0000000000000.33     00050 02200                  
00016880361050039DR6759067590000001330080010280000001010A08ACD3E9TA7C3F16E7202  Y000000000000                                                                                                                                                                                                                                                                                                                                                                                                                                                                                                                                                                                                                               
00016890361050001G2675906759000000133008001028000000101866-6317293              GA           9 J               210                                      NNNN           210000000000000000000000000                        7                                          77133133                                                                                                                                                                                                                                                                                                                                                                                                                                               
00016900361050040DT67590675900000013300800102800000010680010287287283166900012071555061520230000001058116623000000000716534510805XXXXXX7100                         NY 4607AMDJS3MMGM0615  N840000000010581          81CNCBD8666317293            003811    MD84000000010581 NDR549977133133   0A08ACD3E9TA7C3F16E7202  000000000+600450S00130    MDJ  10828                     000000000  1                0000000000000.00 0000000.00   0000000.00                             000000000000000                                                                                                                                                     01424  000000000000 0000000000000.00     00000 00000                  
00016910361050040DR6759067590000001330080010280000001060A08ACD3E9TA7C3F16E7202  Y000000000000                                                                                                                                                                                                                                                                                                                                                                                                                                                                                                                                                                                                                               
00016920361050001G2675906759000000133008001028000000106866-6317293              GA           9 J               210                                      NNNN           210000000000000000000000000                        7                                          77133133                                                                                                                                                                                                                                                                                                                                                                                                                                               
00016930361050041DT67590675900000013300800102800000010180010287287283166900012071571061520230000001799116623000000000716534528215XXXXXX7564       ME03KE06MS02      NY 4607AMDJCIVFGT0615  N840000000017991          81DNCBD8666317293            995275    MD84000000017991 NDR549977133133   75FA07EF87TC673A4BFD310  000000000+600450S00130    MDJ  00401                     000000000  N                0000000000000.00 0000000.00   0000000.00                             000000000000000                                                                                                                                                   U001424  000000000000 0000000000003.12     01650 01500                  
00016940361050041DR67590675900000013300800102800000010175FA07EF87TC673A4BFD310  Y000000000000                                                                                                                                                                                                                                                                                                                                                                                                                                                                                                                                                                                                                               
00016950361050001G2675906759000000133008001028000000101866-6317293              GA           9 J               210                                      NNNN           210000000000000000000000000                                                                   77133133                                                                                                                                                                                                                                                                                                                                                                                                                                               
00016960361050042DT67590675900000013300800102800000010180010224001193166900012071703061520230000001499116623000000000716534414734XXXXXX5117               2111111   NYV4 A7W463166599229812N8400000000149916X9900    01DNCBD8666317293            05057C    VS84000000014991 NDR549977133133   8C8E5C375CTB65921BC5A4E  000000000+                C CC 12108                     000000000  N000000000 496   0000000000000.00 0000000.00   0000000.00                             000000000000000                                                                                                                                                     01424 G000000014991 0000000000003.17     02050 01000                  
00016970361050042DR6759067590000001330080010280000001018C8E5C375CTB65921BC5A4E  Y000000014991                 P1                                                                                                                                                                                                                                                                                                                                                                                                                                                                                                                                                                                                            
00016980361050001P16759067590000001330080010280000001010000000000000000                             2000000000000000000000000              000000000000                    0000000000000000000000000                    000000000000                                                                                                                                                                                                                                                                                                                                                                                                                                                                                        
00016990361050002G2675906759000000133008001028000000101866-6317293              GA           9 C                00                                      NNNN   Y                      000000000000                                                                   77133133                                                                                                                                                                                                                                                                                                                                                                                                                                               
00017000361050043DT67590675900000013300800102800000010180010287287283166900012071753061520230000002121116623000000000716534549460XXXXXX7271       ME03KE06MS02      NY 4607AMWEJOX5K80615  N840000000021211          81DNCBD8666317293            01518P    MC84000000021211 NDR549977133133   72B0F03C52TEE1C1D268819  000000000+600450S00130    MWE  00737                     000000000  N                0000000000000.00 0000000.00   0000000.00                             000000000000000                                                                                                                                                   U001424  000000000000 0000000000005.61     02600 01000                  
00017010361050043DR67590675900000013300800102800000010172B0F03C52TEE1C1D268819  Y000000000000                                                                                                                                                                                                                                                                                                                                                                                                                                                                                                                                                                                                                               
00017020361050001G2675906759000000133008001028000000101866-6317293              GA           9 E               210                                      NNNN           210000000000000000000000000                        7                                          77133133                                                                                                                                                                                                                                                                                                                                                                                                                                               
00017030361050044DT67590675900000013300800102800000010180010224001193166900012071760061520230000001987016623000000000716534400022XXXXXX3474               2111111   NYV4 A7W303166612035377N840000000019870CBBQ00    01DNCBD8666317293            509467    VD84000000019870 NDR549977133133   783916C41DT5CBCDB50A9AE  000000000+                F DF 10420                     000000000  Y000000000 338   0000000000000.00 0000000.00   0000000.00                             000000000000000                                                                                                                                                     01424 G000000019870 0000000000000.32     00050 02200                  
00017040361050044DR675906759000000133008001028000000101783916C41DT5CBCDB50A9AE  Y000000019870                 P1                                                                                                                                                                                                                                                                                                                                                                                                                                                                                                                                                                                                            
