00013130141660002BH6759067590000001619680010280000090170606202315723000000000227506    0000090001573019Y8001026759C06072023057                                                                                                                                                                                                                                                                                                                                                                                                                                                                                                                                                                                              
00013140141660003DT67590675900000016196800102800000010180010224001193157900015726916060520230000000600415723000000000227506436618XXXXXX9085               2111111   NYV4 A7W303153639054198N84000000000600465QG00    01DNGREEN OTTER LLC          006766    VD84000000006004 NDR549977424386   27BFA3CEF3TBE17B81132AB  000000000+                F DF 10420                     000000000  Y000000000 338   0000000000000.00 0000000.00   0000000.00                             000000000000000                                                                                                                                                     01424 G000000006004 0000000000000.25     00050 02200                  
00013150141660003DR67590675900000016196800102800000010127BFA3CEF3TBE17B81132AB  U000000006004                 P1                                                                                                                                                                                                                                                                                                                                                                                                                                                                                                                                                                                                            
00013160141660001P16759067590000001619680010280000001010000000000000000                             2000000000000000000000000              000000000000                    0000000000000000000000000                    000000000000                                                                                                                                                                                                                                                                                                                                                                                                                                                                                        
00013170141660002G2675906759000000161968001028000000101866-6317293              GA           9 D                00                                      NNNN   N                      000000000000                                                                   77424386                                                                                                                                                                                                                                                                                                                                                                                                                                               
00013180141660004DT67590675900000016196800102800000010180010287287283157900015727147060520230000001987015723000000000227506518941XXXXXX2937       ME03KE06MS02      NY 4607AMWEA83SHV0602  N840000000019870          81DNGREEN OTTER LLC          95510Z    MC84000000019870 NDR549977424386   5EA33C2E1CT3D6BF03788EE  000000000+600450S00130    MWE  00737                     000000000  N                0000000000000.00 0000000.00   0000000.00                             000000000000000                                                                                                                                                   U001424  000000000000 0000000000005.27     02600 01000                  
00013190141660004DR6759067590000001619680010280000001015EA33C2E1CT3D6BF03788EE  Y000000000000                                                                                                                                                                                                                                                                                                                                                                                                                                                                                                                                                                                                                               
00013200141660001G2675906759000000161968001028000000101866-6317293              GA           9 E               210                                      NNNN           210000000000000000000000000                        7                                          77424386                                                                                                                                                                                                                                                                                                                                                                                                                                               
00013210141660005DT67590675900000016196800102800000010180010287287283157900015727303060520230000002729515723000000000227506544579XXXXXX6282       ME03KE06MS02      NY 4607AMDJTKLCH90602  N840000000027295          81DNGREEN OTTER LLC          830190    MD84000000027295 NDR549977424386   E8E33CC6C1T0892ED98F70D  000000000+600450S00130    MDJ  10813                     000000000  1                0000000000000.00 0000000.00   0000000.00                             000000000000000                                                                                                                                                   U001424  000000000000 0000000000000.36     00050 02200                  
00013220141660005DR675906759000000161968001028000000101E8E33CC6C1T0892ED98F70D  Y000000000000                                                                                                                                                                                                                                                                                                                                                                                                                                                                                                                                                                                                                               
00013230141660001G2675906759000000161968001028000000101866-6317293              GA           9 J               210                                      NNNN           210000000000000000000000000                        7                                          77424386                                                                                                                                                                                                                                                                                                                                                                                                                                               
00013240141660006DT67590675900000016196800102800000010180010224001193157900015727310060520230000001200815723000000000227506436618XXXXXX9019               2111111   NYV4 A7W583153822638535N840000000012008KM3F00    01DNGREEN OTTER LLC          011037    VD84000000012008 NDR549977424386   2141FFBB84TA6419979154D  000000000+                F DF 10420                     000000000  Y000000000 338   0000000000000.00 0000000.00   0000000.00                             000000000000000                                                                                                                                                     01424 G000000012008 0000000000000.28     00050 02200                  
00013250141660006DR6759067590000001619680010280000001012141FFBB84TA6419979154D  Y000000012008                 P1                                                                                                                                                                                                                                                                                                                                                                                                                                                                                                                                                                                                            
00013260141660001P16759067590000001619680010280000001010000000000000000                             2000000000000000000000000              000000000000                    0000000000000000000000000                    000000000000                                                                                                                                                                                                                                                                                                                                                                                                                                                                                        
00013270141660002G2675906759000000161968001028000000101866-6317293              GA           9 D                00                                      NNNN   N                      000000000000                                                                   77424386                                                                                                                                                                                                                                                                                                                                                                                                                                               
00013280141660007DT67590675900000016196800102800000010180010287287283157900015727410060520230000001925015723000000000227506542418XXXXXX0314       ME03KE06MS02      NY 4607AMWERRK2SP0602  N840000000019250          81DNGREEN OTTER LLC          06682P    MC84000000019250 NDR549977424386   B81F256902TF98850B91B68  000000000+600450S00130    MWE  00737                     000000000  N                0000000000000.00 0000000.00   0000000.00                             000000000000000                                                                                                                                                   U001424  000000000000 0000000000005.11     02600 01000                  
00013290141660007DR675906759000000161968001028000000101B81F256902TF98850B91B68  Y000000000000                                                                                                                                                                                                                                                                                                                                                                                                                                                                                                                                                                                                                               
00013300141660001G2675906759000000161968001028000000101866-6317293              GA           9 E               210                                      NNNN           210000000000000000000000000                        7                                          77424386                                                                                                                                                                                                                                                                                                                                                                                                                                               
00013310141660008DT67590675900000016196800102800000010180010287287283157900015729333060520230000000158515723000000000227506542418XXXXXX5814       ME03KE06PT01      NY 4607AMCWQJEVNF0605  N840000000001585          81DNGREEN OTTER LLC          63494P    MC84000000001585 NDR549977424386   6179E4D11DT3C1C9DADC027  000000000+600450S00130    MCW  00642                     000000000  N                0000000000000.00 0000000.00   0000000.00                             000000000000000                                                                                                                                                   U001424  000000000000 0000000000000.45     02200 01000                  
00013320141660008DR6759067590000001619680010280000001016179E4D11DT3C1C9DADC027  Y000000000000                                                                                                                                                                                                                                                                                                                                                                                                                                                                                                                                                                                                                               
00013330141660001G2675906759000000161968001028000000101866-6317293              GA           9 W               210                                      NNNN           210000000000000000000000000                        7                                          77424386                                                                                                                                                                                                                                                                                                                                                                                                                                               
00013340141660009DT67590675900000016196800102800000010180010287287283157900015729341060520230000001952015723000000000227506520691XXXXXX5564       ME03KE06MS02      NY 4607AMDJJKIBNF0605  N840000000019520          81DNGREEN OTTER LLC          965398    MD84000000019520 NDR549977424386   B5F6FD839FTD8B79DB85E00  000000000+600450S00130    MDJ  00401                     000000000  N                0000000000000.00 0000000.00   0000000.00                             000000000000000                                                                                                                                                   U001424  000000000000 0000000000003.37     01650 01500                  
00013350141660009DR675906759000000161968001028000000101B5F6FD839FTD8B79DB85E00  Y000000000000                                                                                                                                                                                                                                                                                                                                                                                                                                                                                                                                                                                                                               
00013360141660001G2675906759000000161968001028000000101866-6317293              GA           9 J               210                                      NNNN           210000000000000000000000000                                                                   77424386                                                                                                                                                                                                                                                                                                                                                                                                                                               
00013370141660010DT67590675900000016196800102800000010180010224001193157900015729399060520230000002487015723000000000227506405037XXXXXX7621               2111111   NYV4 A7W303157082192441N840000000024870QTJ900    01DNGREEN OTTER LLC          09797C    VS84000000024870 NDR549977424386   98476FFF63TE5B7B6B62507  000000000+                C CC 12108                     000000000  N000000000 496   0000000000000.00 0000000.00   0000000.00                             000000000000000                                                                                                                                                     01424 G000000024870 0000000000005.20     02050 01000                  
00013380141660010DR67590675900000016196800102800000010198476FFF63TE5B7B6B62507  Y000000024870                 P1                                                                                                                                                                                                                                                                                                                                                                                                                                                                                                                                                                                                            
00013390141660001P16759067590000001619680010280000001010000000000000000                             2000000000000000000000000              000000000000                    0000000000000000000000000                    000000000000                                                                                                                                                                                                                                                                                                                                                                                                                                                                                        
00013400141660002G2675906759000000161968001028000000101866-6317293              GA           9 C                00                                      NNNN   Y                      000000000000                                                                   77424386                                                                                                                                                                                                                                                                                                                                                                                                                                               
00013410141660011DT67590675900000016196800102800000010180010287287283157900015729432060620230000001059815723000000000227506533248XXXXXX1264       ME03KE06MS02      NY 4607AMPV0GNJ5H0606  N840000000010598          81DNGREEN OTTER LLC          EE0UU5    MD84000000010598 NDR549977424386   D11F34DBC7T0D76D7C94AFE  000000000+600450S00130    MPV  09899                     000000000  N                0000000000000.00 0000000.00   0000000.00                             000000000000000                                                                                                                                                   U001424  000000000000 0000000000002.07     01760 02000                  
00013420141660011DR675906759000000161968001028000000101D11F34DBC7T0D76D7C94AFE  Z000000000000                                                                                                                                                                                                                                                                                                                                                                                                                                                                                                                                                                                                                               
00013430141660001G2675906759000000161968001028000000101866-6317293              GA           9 V               210                                      NNNN           210000000000000000000000000                                                                   77424386                                                                                                                                                                                                                                                                                                                                                                                                                                               
00013440141660012DT67590675900000016196800102800000010680010287287283157900015729499060620230000002412915723000000000227506527519XXXXXX7558                         NY 4607AMDJTHR9HU0606  N840000000024129          81CNGREEN OTTER LLC          255453    MD84000000024129 NDR549977424386   152273A861TB70C87E85682  000000000+600450S00130    MDJ  10828                     000000000  1                0000000000000.00 0000000.00   0000000.00                             000000000000000                                                                                                                                                     01424  000000000000 0000000000000.00     00000 00000                  
00013450141660012DR675906759000000161968001028000000106152273A861TB70C87E85682  Y000000000000                                                                                                                                                                                                                                                                                                                                                                                                                                                                                                                                                                                                                               
00013460141660001G2675906759000000161968001028000000106866-6317293              GA           9 J               210                                      NNNN           210000000000000000000000000                        7                                          77424386                                                                                                                                                                                                                                                                                                                                                                                                                                               
00013470141660013DT67590675900000016196800102800000010680010274001193157900015729535060620230000000777615723000000000227506447923XXXXXX4565               0000000   NYV4 07T383157533333731N840000000007776R8RV00    01CNGREEN OTTER LLC          005921    VD84000000007776 NDR549977424386   FDC451778DT37E00901BD73  000000000+                F DF 08168                     000000000  N000000000 369   0000000000000.00 0000000.00   0000000.00                             000000000000000                                                                                                                                                     01424  000000007776 0000000000000.00     00000 00000                  
00013480141660013DR675906759000000161968001028000000106FDC451778DT37E00901BD73  U000000007776                 P1                                                                                                                                                                                                                                                                                                                                                                                                                                                                                                                                                                                                            
00013490141660001P16759067590000001619680010280000001060000000000000000                             2000000000000000000000000              000000000000                    0000000000000000000000000                    000000000000                                                                                                                                                                                                                                                                                                                                                                                                                                                                                        
00013500141660002G2675906759000000161968001028000000106866-6317293              GA           9 D                00                                      NNNN   N                      000000000000                                                                   77424386                                                                                                                                                                                                                                                                                                                                                                                                                                               
00013510141660014DT67590675900000016196800102800000010180010224001193157900015729688060620230000002143515723000000000227506434257XXXXXX9793               2111111   NYV4 A7W303157549043858N840000000021435KMJL00    01DNGREEN OTTER LLC          087389    VD84000000021435 NDR549977424386   D90BAC3D15T14C683287CB1  000000000+                F DF 10420                     000000000  Y000000000 338   0000000000000.00 0000000.00   0000000.00                             000000000000000                                                                                                                                                     01424 G000000021435 0000000000000.33     00050 02200                  
00013520141660014DR675906759000000161968001028000000101D90BAC3D15T14C683287CB1  Y000000021435                 P1                                                                                                                                                                                                                                                                                                                                                                                                                                                                                                                                                                                                            
00013530141660001P16759067590000001619680010280000001010000000000000000                             2000000000000000000000000              000000000000                    0000000000000000000000000                    000000000000                                                                                                                                                                                                                                                                                                                                                                                                                                                                                        
00013540141660002G2675906759000000161968001028000000101866-6317293              GA           9 D                00                                      NNNN   N                      000000000000                                                                   77424386                                                                                                                                                                                                                                                                                                                                                                                                                                               
00013550141660015DT67590675900000016196800102800000010680010274001193157900015729691060620230000001515415723000000000227506431503XXXXXX6230               0000000   NYV4 07T463157581373251N840000000015154QDHK00    01CNGREEN OTTER LLC          05734A    VS84000000015154 NDR549977424386   5DBFFEF317T141570A28826  000000000+                A CA 00245                     000000000  N000000000 166   0000000000000.00 0000000.00   0000000.00                             000000000000000                                                                                                                                                     01424  000000015154-0000000000002.67     01760 00000                  
00013560141660015DR6759067590000001619680010280000001065DBFFEF317T141570A28826  Y000000015154                 P1                                                                                                                                                                                                                                                                                                                                                                                                                                                                                                                                                                                                            
00013570141660001P16759067590000001619680010280000001060000000000000000                             2000000000000000000000000              000000000000                    0000000000000000000000000                    000000000000                                                                                                                                                                                                                                                                                                                                                                                                                                                                                        
00013580141660002G2675906759000000161968001028000000106866-6317293              GA           9 C                00                                      NNNN   Y                      000000000000                                                                   77424386                                                                                                                                                                                                                                                                                                                                                                                                                                               
00013590141660016DT67590675900000016196800102800000010180010287287283157900015729721060620230000001528315723000000000227506521991XXXXXX3245       ME03KE06MS02      NY 4607AMDJH5TQUU0606  N840000000015283          81DNGREEN OTTER LLC          335018    MD84000000015283 NDR549977424386   C9EE61A5BCT705952E2BAB2  000000000+600450S00130    MDJ  10813                     000000000  1                0000000000000.00 0000000.00   0000000.00                             000000000000000                                                                                                                                                   U001424  000000000000 0000000000000.30     00050 02200                  
00013600141660016DR675906759000000161968001028000000101C9EE61A5BCT705952E2BAB2  Y000000000000                                                                                                                                                                                                                                                                                                                                                                                                                                                                                                                                                                                                                               
00013610141660001G2675906759000000161968001028000000101866-6317293              GA           9 J               210                                      NNNN           210000000000000000000000000                        7                                          77424386                                                                                                                                                                                                                                                                                                                                                                                                                                               
00013620141660017DT67590675900000016196800102800000010180010287287283157900015729754060620230000002121115723000000000227506517546XXXXXX8823       ME03KE06MS02      NY 4607AMDJJJ9HUU0606  N840000000021211          81DNGREEN OTTER LLC          006886    MD84000000021211 NDR549977424386   0B353CDFE9T69B43C4D0665  000000000+600450S00130    MDJ  10813                     000000000  1                0000000000000.00 0000000.00   0000000.00                             000000000000000                                                                                                                                                   U001424  000000000000 0000000000000.33     00050 02200                  
00013630141660017DR6759067590000001619680010280000001010B353CDFE9T69B43C4D0665  Y000000000000                                                                                                                                                                                                                                                                                                                                                                                                                                                                                                                                                                                                                               
00013640141660001G2675906759000000161968001028000000101866-6317293              GA           9 J               210                                      NNNN           210000000000000000000000000                        7                                          77424386                                                                                                                                                                                                                                                                                                                                                                                                                                               
00013650141660018DT67590675900000016196800102800000010180010224001193157900015729761060620230000000542815723000000000227506426684XXXXXX7609               2111111   NYV4 A7W583157642812720N8400000000054285TWV00    01DNGREEN OTTER LLC          03662C    VS84000000005428 NDR549977424386   0FC602865FTF2974C151DA0  000000000+                C CC 12108                     000000000  N000000000 496   0000000000000.00 0000000.00   0000000.00                             000000000000000                                                                                                                                                     01424 G000000005428 0000000000001.21     02050 01000                  
00013660141660018DR6759067590000001619680010280000001010FC602865FTF2974C151DA0  Y000000005428                 P1                                                                                                                                                                                                                                                                                                                                                                                                                                                                                                                                                                                                            
00013670141660001P16759067590000001619680010280000001010000000000000000                             2000000000000000000000000              000000000000                    0000000000000000000000000                    000000000000                                                                                                                                                                                                                                                                                                                                                                                                                                                                                        
00013680141660002G2675906759000000161968001028000000101866-6317293              GA           9 C                00                                      NNNN   Y                      000000000000                                                                   77424386                                                                                                                                                                                                                                                                                                                                                                                                                                               
00013690141660019DT67590675900000016196800102800000010180010224001193157900015729787060620230000001604015723000000000227506474165XXXXXX5026               2111111   NYV4 A7W583157653610730N840000000016040F84N00    01DNGREEN OTTER LLC          021967    VD84000000016040 NDR549977424386   2C26626A5AT9A1C83BFA546  000000000+                G DG 10352                     000000000  Y000000000 338   0000000000000.00 0000000.00   0000000.00                             000000000000000                                                                                                                                                     01424 G000000016040 0000000000000.30     00050 02200                  
00013700141660019DR6759067590000001619680010280000001012C26626A5AT9A1C83BFA546  Y000000016040                 P1                                                                                                                                                                                                                                                                                                                                                                                                                                                                                                                                                                                                            
00013710141660001P16759067590000001619680010280000001010000000000000000                             1000000001049000000000000              000000000000                    0000000000000000000000000                    000000000000                                                                                                                                                                                                                                                                                                                                                                                                                                                                                        
00013720141660002G2675906759000000161968001028000000101866-6317293              GA           9 D                00                                      NNNN   N                      000000000000                                                                   77424386                                                                                                                                                                                                                                                                                                                                                                                                                                               
00013730141660020DT67590675900000016196800102800000010180010224001193157900015729811060620230000001611515723000000000227506427088XXXXXX6263               2111111   NYV4 A7W463157681967388N8400000000161152DBG00    01DNGREEN OTTER LLC          045629    VD84000000016115 NDR549977424386   C8757F2C86T93469F51CAE7  000000000+                F DF 10420                     000000000  Y000000000 338   0000000000000.00 0000000.00   0000000.00                             000000000000000                                                                                                                                                     01424 G000000016115 0000000000000.30     00050 02200                  
00013740141660020DR675906759000000161968001028000000101C8757F2C86T93469F51CAE7  Z000000016115                 P1                                                                                                                                                                                                                                                                                                                                                                                                                                                                                                                                                                                                            
00013750141660001P16759067590000001619680010280000001010000000000000000                             2000000000000000000000000              000000000000                    0000000000000000000000000                    000000000000                                                                                                                                                                                                                                                                                                                                                                                                                                                                                        
00013760141660002G2675906759000000161968001028000000101866-6317293              GA           9 D                00                                      NNNN   N                      000000000000                                                                   77424386                                                                                                                                                                                                                                                                                                                                                                                                                                               
00013770141660021DT67590675900000016196800102800000010180010287287283157900015729952060620230000001400815723000000000227506510758XXXXXX3095       ME03KE06PT01      NY 4607AMCWE5Z9VC0606  N840000000014008          81DNGREEN OTTER LLC          77134Z    MC84000000014008 NDR549977424386   444F22A99DTA97EDB11D027  000000000+600450S00130    MCW  00642                     000000000  N                0000000000000.00 0000000.00   0000000.00                             000000000000000                                                                                                                                                   U001424  000000000000 0000000000003.18     02200 01000                  
00013780141660021DR675906759000000161968001028000000101444F22A99DTA97EDB11D027  Y000000000000                                                                                                                                                                                                                                                                                                                                                                                                                                                                                                                                                                                                                               
00013790141660001G2675906759000000161968001028000000101866-6317293              GA           9 W               210                                      NNNN           210000000000000000000000000                        7                                          77424386                                                                                                                                                                                                                                                                                                                                                                                                                                               
00013800141660022DT67590675900000016196800102800000010180010287287283157900015730091060620230000002255015723000000000227506511786XXXXXX2775       ME03KE06MS02      NY 4607AMCSELNS3H0606  N840000000022550          81DNGREEN OTTER LLC          03459B    MC84000000022550 NDR549977424386   A23FF1B0D9T922A8A78E8AD  000000000+600450S00130    MCS  00580                     000000000  N                0000000000000.00 0000000.00   0000000.00                             000000000000000                                                                                                                                                   U001424  000000000000 0000000000004.84     02100 01000                  
00013810141660022DR675906759000000161968001028000000101A23FF1B0D9T922A8A78E8AD  Y000000000000                                                                                                                                                                                                                                                                                                                                                                                                                                                                                                                                                                                                                               
00013820141660001G2675906759000000161968001028000000101866-6317293              GA           9 S               210                                      NNNN           210000000000000000000000000                        7                                          77424386                                                                                                                                                                                                                                                                                                                                                                                                                                               
00013830141660023DT67590675900000016196800102800000010180010224001193157900015730199060620230000000149515723000000000227506483316XXXXXX5153               2111111   NYV4 A7W463157859662019N840000000001495FKWM00    01DNGREEN OTTER LLC          065219    VD84000000001495 NDR549977424386   1B695979BFT07BB640D046C  000000000+                F DF 10420                     000000000  Y000000000 338   0000000000000.00 0000000.00   0000000.00                             000000000000000                                                                                                                                                     01424 G000000001495 0000000000000.23     00050 02200                  
00013840141660023DR6759067590000001619680010280000001011B695979BFT07BB640D046C  Y000000001495                 P1                                                                                                                                                                                                                                                                                                                                                                                                                                                                                                                                                                                                            
00013850141660001P16759067590000001619680010280000001010000000000000000                             2000000000000000000000000              000000000000                    0000000000000000000000000                    000000000000                                                                                                                                                                                                                                                                                                                                                                                                                                                                                        
00013860141660002G2675906759000000161968001028000000101866-6317293              GA           9 D                00                                      NNNN   N                      000000000000                                                                   77424386                                                                                                                                                                                                                                                                                                                                                                                                                                               
00013870141660024BH6759067590000001427480010280000090170606202315723000000000502005    0000090001114398Y8001026759C06072023111                                                                                                                                                                                                                                                                                                                                                                                                                                                                                                                                                                                              
00013880141660025DT67590675900000014274800102800000010180010287287283157900011139339060520230000002636215723000000000502005531462XXXXXX0870       ME03KE06MS02      NY 4607AMPAIYCWC00602  N840000000026362          81DNCBD8666317293            152708    MD84000000026362 NDR549977145232   F5107872E0TE263FBE025DF  000000000+600450S00130    MPA  09899                     000000000  N                0000000000000.00 0000000.00   0000000.00                             000000000000000                                                                                                                                                   U001424  000000000000 0000000000004.84     01760 02000                  
00013890141660025DR675906759000000142748001028000000101F5107872E0TE263FBE025DF  Y000000000000                                                                                                                                                                                                                                                                                                                                                                                                                                                                                                                                                                                                                               
00013900141660001G2675906759000000142748001028000000101866-6317293              GA           9 A               210                                      NNNN           210000000000000000000000000                                                                   77145232                                                                                                                                                                                                                                                                                                                                                                                                                                               
00013910141660026DT67590675900000014274800102800000010180010224001193157900011139346060520230000002126115723000000000502005491239XXXXXX9010               2111111   NYV4 A7W463153327130154N8400000000212616BCF00    01DNCBD8666317293            559504    VD84000000021261 NDR549977145232   4864ED930BT5EE508C5FF5F  000000000+                G DG 10352                     000000000  Y000000000 338   0000000000000.00 0000000.00   0000000.00                             000000000000000                                                                                                                                                     01424 G000000021261 0000000000000.33     00050 02200                  
00013920141660026DR6759067590000001427480010280000001014864ED930BT5EE508C5FF5F  Y000000021261                 P1                                                                                                                                                                                                                                                                                                                                                                                                                                                                                                                                                                                                            
00013930141660001P16759067590000001427480010280000001010000000000000000                             1000000001391000000000000              000000000000                    0000000000000000000000000                    000000000000                                                                                                                                                                                                                                                                                                                                                                                                                                                                                        
00013940141660002G2675906759000000142748001028000000101866-6317293              GA           9 D                00                                      NNNN   N                      000000000000                                                                   77145232                                                                                                                                                                                                                                                                                                                                                                                                                                               
00013950141660027DT67590675900000014274800102800000010180010224001193157900011139452060520230000002121115723000000000502005404657XXXXXX2025               2111111   NYV4 A7W303153669058957N840000000021211RW2200    01DNCBD8666317293            002223    VS84000000021211 NDR549977145232   A708C85E88T37275C7F8320  000000000+                A CA 12106                     000000000  N000000000 492   0000000000000.00 0000000.00   0000000.00                             000000000000000                                                                                                                                                     01424 G000000021211 0000000000004.11     01890 01000                  
00013960141660027DR675906759000000142748001028000000101A708C85E88T37275C7F8320  Y000000021211                 P1                                                                                                                                                                                                                                                                                                                                                                                                                                                                                                                                                                                                            
00013970141660001P16759067590000001427480010280000001010000000000000000                             2000000000000000000000000              000000000000                    0000000000000000000000000                    000000000000                                                                                                                                                                                                                                                                                                                                                                                                                                                                                        
00013980141660002G2675906759000000142748001028000000101866-6317293              GA           9 C                00                                      NNNN   N                      000000000000                                                                   77145232                                                                                                                                                                                                                                                                                                                                                                                                                                               
00013990141660028DT67590675900000014274800102800000010180010224001193157900011139510060520230000001200815723000000000502005413037XXXXXX1167               2111111   NYV4 A7W383153699053029N840000000012008WDFH00    01DNCBD8666317293            069646    VD84000000012008 NDR549977145232   A79163E3D4TDD0002D2C8B4  000000000+                F DF 10420                     000000000  Y000000000 338   0000000000000.00 0000000.00   0000000.00                             000000000000000                                                                                                                                                     01424 G000000012008 0000000000000.28     00050 02200                  
00014000141660028DR675906759000000142748001028000000101A79163E3D4TDD0002D2C8B4  Y000000012008                 P1                                                                                                                                                                                                                                                                                                                                                                                                                                                                                                                                                                                                            
00014010141660001P16759067590000001427480010280000001010000000000000000                             2000000000000000000000000              000000000000                    0000000000000000000000000                    000000000000                                                                                                                                                                                                                                                                                                                                                                                                                                                                                        
00014020141660002G2675906759000000142748001028000000101866-6317293              GA           9 D                00                                      NNNN   N                      000000000000                                                                   77145232                                                                                                                                                                                                                                                                                                                                                                                                                                               
00014030141660029DT67590675900000014274800102800000010180010224001193157900011139551060520230000002131115723000000000502005432739XXXXXX0469               2111111   NYV4 A7W583153750056487N840000000021311VT3300    01DNCBD8666317293            086962    VD84000000021311 NDR549977145232   C6A3C156D5TCBC713F1C2AF  000000000+                F DF 10420                     000000000  Y000000000 338   0000000000000.00 0000000.00   0000000.00                             000000000000000                                                                                                                                                     01424 G000000021311 0000000000000.33     00050 02200                  
00014040141660029DR675906759000000142748001028000000101C6A3C156D5TCBC713F1C2AF  Y000000021311                 P1                                                                                                                                                                                                                                                                                                                                                                                                                                                                                                                                                                                                            
00014050141660001P16759067590000001427480010280000001010000000000000000                             2000000000000000000000000              000000000000                    0000000000000000000000000                    000000000000                                                                                                                                                                                                                                                                                                                                                                                                                                                                                        
00014060141660002G2675906759000000142748001028000000101866-6317293              GA           9 D                00                                      NNNN   N                      000000000000                                                                   77145232                                                                                                                                                                                                                                                                                                                                                                                                                                               
00014070141660030DT67590675900000014274800102800000010180010287287283157900011139644060520230000002146015723000000000502005542418XXXXXX9323       ME03KE06MS02      NY 4607AMPLDBL2SP0602  N840000000021460          81DNCBD8666317293            90028B    MC84000000021460 NDR549977145232   201CE5D59ATDE5B22EF1F63  000000000+600450S00130    MPL  00580                     000000000  N                0000000000000.00 0000000.00   0000000.00                             000000000000000                                                                                                                                                   U001424  000000000000 0000000000004.61     02100 01000                  
00014080141660030DR675906759000000142748001028000000101201CE5D59ATDE5B22EF1F63  Y000000000000                                                                                                                                                                                                                                                                                                                                                                                                                                                                                                                                                                                                                               
00014090141660001G2675906759000000142748001028000000101866-6317293              GA           9 L               210                                      NNNN           210000000000000000000000000                        7                                          77145232                                                                                                                                                                                                                                                                                                                                                                                                                                               
00014100141660031DT67590675900000014274800102800000010180010287287283157900011139792060520230000001592815723000000000502005521853XXXXXX4982       ME03KE06PT01      NY 4607AMCWX88GS30602  N840000000015928          81DNCBD8666317293            00295T    MC84000000015928 NDR549977145232   613818F619T731D2B153ACF  000000000+600450S00130    MCW  02182                     000000000  N                0000000000000.00 0000000.00   0000000.00                             000000000000000                                                                                                                                                   U001424  000000000000 0000000000004.24     02600 01000                  
00014110141660031DR675906759000000142748001028000000101613818F619T731D2B153ACF  Z000000000000                                                                                                                                                                                                                                                                                                                                                                                                                                                                                                                                                                                                                               
00014120141660001G2675906759000000142748001028000000101866-6317293              GA           9 W               210                                      NNNN           210000000000000000000000000                        7                                          77145232                                                                                                                                                                                                                                                                                                                                                                                                                                               
00014130141660032DT67590675900000014274800102800000010180010224001193157900011139866060520230000002667315723000000000502005417903XXXXXX2641               2111111   NYV4 A7W303154024058923N840000000026673Z5NV00    01DNCBD8666317293            912004    VS84000000026673 NDR549977145232   9A1020C367TB58247C24B1A  000000000+                D CD 12109                     000000000  N000000000 498   0000000000000.00 0000000.00   0000000.00                             000000000000000                                                                                                                                                     01424 G000000026673 0000000000006.77     02500 01000                  
00014140141660032DR6759067590000001427480010280000001019A1020C367TB58247C24B1A  Y000000026673                 P1                                                                                                                                                                                                                                                                                                                                                                                                                                                                                                                                                                                                            
00014150141660001P16759067590000001427480010280000001010000000000000000                             2000000000000000000000000              000000000000                    0000000000000000000000000                    000000000000                                                                                                                                                                                                                                                                                                                                                                                                                                                                                        
00014160141660002G2675906759000000142748001028000000101866-6317293              GA           9 C                00                                      NNNN   Y                      000000000000                                                                   77145232                                                                                                                                                                                                                                                                                                                                                                                                                                               
00014170141660033DT67590675900000014274800102800000010180010287287283157900011139875060520230000001956115723000000000502005527521XXXXXX1018       ME03KE06MS02      NY 4607AMDJIYL9SP0602  N840000000019561          81DNCBD8666317293            170324    MD84000000019561 NDR549977145232   F3CE1EC0EDTE8116FA28A7B  000000000+600450S00130    MDJ  10813                     000000000  1                0000000000000.00 0000000.00   0000000.00                             000000000000000                                                                                                                                                   U001424  000000000000 0000000000000.32     00050 02200                  
00014180141660033DR675906759000000142748001028000000101F3CE1EC0EDTE8116FA28A7B  Y000000000000                                                                                                                                                                                                                                                                                                                                                                                                                                                                                                                                                                                                                               
00014190141660001G2675906759000000142748001028000000101866-6317293              GA           9 J               210                                      NNNN           210000000000000000000000000                        7                                          77145232                                                                                                                                                                                                                                                                                                                                                                                                                                               
00014200141660034DT67590675900000014274800102800000010180010287287283157900011139941060520230000001987015723000000000502005510624XXXXXX5200       ME03KE06MS02      NY 4607AMWEJ5CGS40602  N840000000019870          81DNCBD8666317293            02200Z    MC84000000019870 NDR549977145232   A9200F1C22TA350849BD9B1  000000000+600450S00130    MWE  00737                     000000000  N                0000000000000.00 0000000.00   0000000.00                             000000000000000                                                                                                                                                   U001424  000000000000 0000000000005.27     02600 01000                  
00014210141660034DR675906759000000142748001028000000101A9200F1C22TA350849BD9B1  Y000000000000                                                                                                                                                                                                                                                                                                                                                                                                                                                                                                                                                                                                                               
00014220141660001G2675906759000000142748001028000000101866-6317293              GA           9 E               210                                      NNNN           210000000000000000000000000                        7                                          77145232                                                                                                                                                                                                                                                                                                                                                                                                                                               
00014230141660035DT67590675900000014274800102800000010180010224001193157900011139957060520230000001200815723000000000502005414709XXXXXX4092               2111111   NYV4 A7W463154096059625N840000000012008MBQR00    01DNCBD8666317293            00158C    VS84000000012008 NDR549977145232   94640C2AA6T5FE0E79CC561  000000000+                C CC 12108                     000000000  N000000000 496   0000000000000.00 0000000.00   0000000.00                             000000000000000                                                                                                                                                     01424 G000000012008 0000000000002.56     02050 01000                  
00014240141660035DR67590675900000014274800102800000010194640C2AA6T5FE0E79CC561  Y000000012008                 P1                                                                                                                                                                                                                                                                                                                                                                                                                                                                                                                                                                                                            
00014250141660001P16759067590000001427480010280000001010000000000000000                             2000000000000000000000000              000000000000                    0000000000000000000000000                    000000000000                                                                                                                                                                                                                                                                                                                                                                                                                                                                                        
00014260141660002G2675906759000000142748001028000000101866-6317293              GA           9 C                00                                      NNNN   Y                      000000000000                                                                   77145232                                                                                                                                                                                                                                                                                                                                                                                                                                               
00014270141660036DT67590675900000014274800102800000010180010287287283157900011139974060520230000002157915723000000000502005547829XXXXXX3203       ME03KE06MS02      NY 4607AMDJL03ES40602  N840000000021579          81DNCBD8666317293            713456    MD84000000021579 NDR549977145232   775E66F353T7BAE3880045B  000000000+600450S00130    MDJ  00401                     000000000  N                0000000000000.00 0000000.00   0000000.00                             000000000000000                                                                                                                                                   U001424  000000000000 0000000000003.71     01650 01500                  
00014280141660036DR675906759000000142748001028000000101775E66F353T7BAE3880045B  Y000000000000                                                                                                                                                                                                                                                                                                                                                                                                                                                                                                                                                                                                                               
00014290141660001G2675906759000000142748001028000000101866-6317293              GA           9 J               210                                      NNNN           210000000000000000000000000                        7                                          77145232                                                                                                                                                                                                                                                                                                                                                                                                                                               
00014300141660037DT67590675900000014274800102800000010180010224001193157900011142357060520230000002126115723000000000502005463405XXXXXX1841               2111111   NYV4 A7W383157033048914N84000000002126175XP00    01DNCBD8666317293            009889    VD84000000021261 NDR549977145232   4506663B0AT2ACE569FBBCE  000000000+                F DF 10420                     000000000  Y000000000 338   0000000000000.00 0000000.00   0000000.00                             000000000000000                                                                                                                                                     01424 G000000021261 0000000000000.33     00050 02200                  
00014310141660037DR6759067590000001427480010280000001014506663B0AT2ACE569FBBCE  Y000000021261                 P1                                                                                                                                                                                                                                                                                                                                                                                                                                                                                                                                                                                                            
00014320141660001P16759067590000001427480010280000001010000000000000000                             2000000000000000000000000              000000000000                    0000000000000000000000000                    000000000000                                                                                                                                                                                                                                                                                                                                                                                                                                                                                        
00014330141660002G2675906759000000142748001028000000101866-6317293              GA           9 D                00                                      NNNN   N                      000000000000                                                                   77145232                                                                                                                                                                                                                                                                                                                                                                                                                                               
00014340141660038DT67590675900000014274800102800000010180010287287283157900011142416060520230000001987015723000000000502005512106XXXXXX5045       ME03KE06MS02      NY 4607AMPLRGUYNF0605  N840000000019870          81DNCBD8666317293            00578B    MC84000000019870 NDR549977145232   92786B4064T716B97B59C45  000000000+600450S00130    MPL  00580                     000000000  N                0000000000000.00 0000000.00   0000000.00                             000000000000000                                                                                                                                                   U001424  000000000000 0000000000004.27     02100 01000                  
00014350141660038DR67590675900000014274800102800000010192786B4064T716B97B59C45  Y000000000000                                                                                                                                                                                                                                                                                                                                                                                                                                                                                                                                                                                                                               
00014360141660001G2675906759000000142748001028000000101866-6317293              GA           9 L               210                                      NNNN           210000000000000000000000000                        7                                          77145232                                                                                                                                                                                                                                                                                                                                                                                                                                               
00014370141660039DT67590675900000014274800102800000010180010224001193157900011142480060620230000001652815723000000000502005483313XXXXXX3297               2111111   NYV4 A7W383157303041059N840000000016528TVD600    01DNCBD8666317293            042504    VD84000000016528 NDR549977145232   F22A20EF35TA36FE324FEAB  000000000+                F DF 10420                     000000000  Y000000000 338   0000000000000.00 0000000.00   0000000.00                             000000000000000                                                                                                                                                     01424 G000000016528 0000000000000.30     00050 02200                  
00014380141660039DR675906759000000142748001028000000101F22A20EF35TA36FE324FEAB  Y000000016528                 P1                                                                                                                                                                                                                                                                                                                                                                                                                                                                                                                                                                                                            
00014390141660001P16759067590000001427480010280000001010000000000000000                             2000000000000000000000000              000000000000                    0000000000000000000000000                    000000000000                                                                                                                                                                                                                                                                                                                                                                                                                                                                                        
00014400141660002G2675906759000000142748001028000000101866-6317293              GA           9 D                00                                      NNNN   N                      000000000000                                                                   77145232                                                                                                                                                                                                                                                                                                                                                                                                                                               
00014410141660040DT67590675900000014274800102800000010180010287287283157900011142523060620230000001987015723000000000502005546316XXXXXX3471       ME03KE06MS02      NY 4607AMPLIUH7QZ0606  N840000000019870          81DNCBD8666317293            006216    MC84000000019870 NDR549977145232   1D71FFA3C4T6D12397A1991  000000000+600450S00130    MPL  00013                     000000000  N                0000000000000.00 0000000.00   0000000.00                             000000000000000                                                                                                                                                   U001424  000000000000 0000000000003.97     01950 01000                  
00014420141660040DR6759067590000001427480010280000001011D71FFA3C4T6D12397A1991  Y000000000000                                                                                                                                                                                                                                                                                                                                                                                                                                                                                                                                                                                                                               
00014430141660001G2675906759000000142748001028000000101866-6317293              GA           9 L               210                                      NNNN           210000000000000000000000000                        7                                          77145232                                                                                                                                                                                                                                                                                                                                                                                                                                               
00014440141660041DT67590675900000014274800102800000010180010287287283157900011143166060620230000002136015723000000000502005542432XXXXXX1913       ME03KE06MS02      NY 4607AMDJM949QZ0606  N840000000021360          81DNCBD8666317293            217117    MD84000000021360 NDR549977145232   2209694FD1TA1881DFE548A  000000000+600450S00130    MDJ  10813                     000000000  1                0000000000000.00 0000000.00   0000000.00                             000000000000000                                                                                                                                                   U001424  000000000000 0000000000000.33     00050 02200                  
00014450141660041DR6759067590000001427480010280000001012209694FD1TA1881DFE548A  Y000000000000                                                                                                                                                                                                                                                                                                                                                                                                                                                                                                                                                                                                                               
00014460141660001G2675906759000000142748001028000000101866-6317293              GA           9 J               210                                      NNNN           210000000000000000000000000                        7                                          77145232                                                                                                                                                                                                                                                                                                                                                                                                                                               
00014470141660042DT67590675900000014274800102800000010180010287287283157900011143208060620230000001499115723000000000502005517805XXXXXX9642       ME03KE06MS02      NY 4607AMPLIP7BLJ0606  N840000000014991          81DNCBD8666317293            00150B    MC84000000014991 NDR549977145232   7BBED2A612T41DE2EDD3793  000000000+600450S00130    MPL  00580                     000000000  N                0000000000000.00 0000000.00   0000000.00                             000000000000000                                                                                                                                                   U001424  000000000000 0000000000003.25     02100 01000                  
00014480141660042DR6759067590000001427480010280000001017BBED2A612T41DE2EDD3793  Y000000000000                                                                                                                                                                                                                                                                                                                                                                                                                                                                                                                                                                                                                               
00014490141660001G2675906759000000142748001028000000101866-6317293              GA           9 L               210                                      NNNN           210000000000000000000000000                        7                                          77145232                                                                                                                                                                                                                                                                                                                                                                                                                                               
00014500141660043DT67590675900000014274800102800000010180010287287283157900011143257060620230000000019915723000000000502005553437XXXXXX3941                         NY 4607AMBSC244LJ0606  N840000000000199          81DNCBD8666317293            9ZGTAH    MB84000000000199 NDR549977145232   4E0FA36116TF5B5BA1E5702  000000000+600450S00130    MBS  00303                     000000000  N                0000000000000.00 0000000.00   0000000.00                             000000000000000                                                                                                                                                   U001424  000000000000 0000000000000.15     02700 01000                  
00014510141660043DR6759067590000001427480010280000001014E0FA36116TF5B5BA1E5702  Y000000000000                 P1                                                                                                                                                                                                                                                                                                                                                                                                                                                                                                                                                                                                            
00014520141660001P1675906759000000142748001028000000101                                                          000000000000          8000            871584967                                                                                                                                                                                                                                                                                                                                                                                                                                                                                                                                                            
00014530141660002G2675906759000000142748001028000000101866-6317293              GA           9 S               210                  871584967           YNNN           210000000000000000000000000                                                                   77145232                                                                                                                                                                                                                                                                                                                                                                                                                                               
00014540141660044DT67590675900000014274800102800000010180010287287283157900011143273060620230000000141315723000000000502005521991XXXXXX3245       ME03KE06MS02      NY 4607AMDJC7V0LJ0606  N840000000001413          81DNCBD8666317293            166012    MD84000000001413 NDR549977145232   C9EE61A5BCTE54F45743F9D  000000000+600450S00130    MDJ  10813                     000000000  1                0000000000000.00 0000000.00   0000000.00                             000000000000000                                                                                                                                                   U001424  000000000000 0000000000000.23     00050 02200                  
