01586340392260002BH6759067590000000288180088880000090170117202301723000000000078280    0000090001210014N8008886759C01182023                                                                                                                                                                                                                                                                                                                                                                                                                                                                                                                                                                                                 
01586350392260003DT67590675900000002881800888800000010180088824001193017900012100016011720230000000395001723000000000078280419090XXXXXX3821       VS11    0001111   NYV1 A E583017569783203N8400000000039502ZXP00    05DNHAPPY HIPPIE             813470    VD84000000003950 N  549976487158                            000000000+                F DF 00381                     000000000  N000000000       0000000000000.00 0000000.00   0000000.00                             000000000000000                                                                                                                                                     01418 A000000000000 0000000000000.47     00800 01500                  
01586360392260004DT67590675900000002881800888800000010180088824001193017900012100024011720230000000325801723000000000078280419090XXXXXX6286       VS11    0001111   NYV1 A E583017576300383N840000000003258TWT200    05DNHAPPY HIPPIE             813683    VD84000000003258 N  549976487158                            000000000+                F DF 00381                     000000000  N000000000       0000000000000.00 0000000.00   0000000.00                             000000000000000                                                                                                                                                     01418 A000000000000 0000000000000.41     00800 01500                  
01586370392260005DT67590675900000002881800888800000010180088824001193017900012100032011720230000000196201723000000000078280438854XXXXXX2638       VS11    0001111   NYV1 A E303017577508178N840000000001962X92T00    05DNHAPPY HIPPIE             06911D    VS84000000001962 N  549976487158                            000000000+                D CD 12113                     000000000  N000000000 499   0000000000000.00 0000000.00   0000000.00                             000000000000000                                                                                                                                                     01418 A000000000000 0000000000000.51     02100 01000                  
01586380392260006DT67590675900000002881800888800000010180088824001193017900012100040011720230000000808201723000000000078280419090XXXXXX0995       VS11    0001111   NYV1 A E463017592558920N840000000008082VGBQ00    05DNHAPPY HIPPIE             814441    VD84000000008082 N  549976487158                            000000000+                F DF 00381                     000000000  N000000000       0000000000000.00 0000000.00   0000000.00                             000000000000000                                                                                                                                                     01418 A000000000000 0000000000000.80     00800 01500                  
01586390392260007DT67590675900000002881800888800000010180088824001193017900012100057011720230000001686401723000000000078280439707XXXXXX3810       VS11    0001111   NYV1 A E303017624980074N8400000000168646J9500    05DNHAPPY HIPPIE             04144C    VS84000000016864 N  549976487158                            000000000+                C CC 12112                     000000000  N000000000 497   0000000000000.00 0000000.00   0000000.00                             000000000000000                                                                                                                                                     01418 A000000000000 0000000000002.88     01650 01000                  
01586400392260008DT67590675900000002881800888800000010180088824001193017900012100065011720230000000393801723000000000078280415978XXXXXX1455       VS11    0001111   NYV1 A E303017630373056N840000000003938BJTZ00    05DNHAPPY HIPPIE             082917    VD84000000003938 N  549976487158                            000000000+                F DF 10433                     000000000  Y000000000 338   0000000000000.00 0000000.00   0000000.00                             000000000000000                                                                                                                                                     01418 A000000000000 0000000000000.24     00050 02200                  
01586410392260009DT67590675900000002881800888800000010180088877287283017900012100075011720230000000134601723000000000078280518941XXXXXX4253       MS02WI09          NY 1 0 AMWEEEORTF0117  N840000000001346          05DNHAPPY HIPPIE             98453Z    MC84000000001346 N  549976487158                            000000000+M10101C5434C    MWE  00743                     000000000  N                0000000000000.00 0000000.00   0000000.00                             000000000000000                                                                                                                                                   B101418  000000000000 0000000000000.35     02300 00400                  
01586420392260010DT67590675900000002881800888800000010180088824001193017900012100081011720230000000987801723000000000078280480639XXXXXX1059       VS11    0001111   NYV1 A E383017696907788N840000000009878VBRT00    05DNHAPPY HIPPIE             520264    VD84000000009878 N  549976487158                            000000000+                F DF 00381                     000000000  N000000000       0000000000000.00 0000000.00   0000000.00                             000000000000000                                                                                                                                                     01418 A000000000000 0000000000000.94     00800 01500                  
01586430392260011DT67590675900000002881800888800000010180088824001193017900012100099011720230000000395001723000000000078280443041XXXXXX9753       VS11    0001111   NYV1 A E583017702474531N840000000003950896M00    05DNHAPPY HIPPIE             800108    VD84000000003950 N  549976487158                            000000000+                F DF 10433                     000000000  Y000000000 338   0000000000000.00 0000000.00   0000000.00                             000000000000000                                                                                                                                                     01418 A000000000000 0000000000000.24     00050 02200                  
01586440392260012DT67590675900000002881800888800000010180088824001193017900012100107011720230000000651701723000000000078280414718XXXXXX2290       VS11    0001111   NYV1 A E583017706032841N8400000000065178QTS00    05DNHAPPY HIPPIE             017518    VS84000000006517 N  549976487158                            000000000+                D CD 12113                     000000000  N000000000 499   0000000000000.00 0000000.00   0000000.00                             000000000000000                                                                                                                                                     01418 A000000000000 0000000000001.47     02100 01000                  
01586450392260013DT67590675900000002881800888800000010180088877287283017900012100117011720230000000548801723000000000078280546645XXXXXX8554       MS02WI09          NY 1 0 AMPLHV5BTF0117  N840000000005488          05DNHAPPY HIPPIE             017494    MC84000000005488 N  549976487158                            000000000+M10101C5434C    MPL  00043                     000000000  N                0000000000000.00 0000000.00   0000000.00                             000000000000000                                                                                                                                                   B101418  000000000000 0000000000000.95     01650 00400                  
01586460392260014DT67590675900000002881800888800000010180088877287283017900012100125011720230000000276601723000000000078280511953XXXXXX9431       MS02WI09          NY 1 0 AMDJB7D9TF0117  N840000000002766          05DNHAPPY HIPPIE             076295    MD84000000002766 N  549976487158                            000000000+M10101C5434C    MDJ  00402                     000000000  N                0000000000000.00 0000000.00   0000000.00                             000000000000000                                                                                                                                                   B101418  000000000000 0000000000000.44     01050 01500                  
01586470392260015DT67590675900000002881800888800000010180088877287283017900012100133011720230000000720801723000000000078280511953XXXXXX9006       MS02WI09          NY 1 0 AMDJRBK7VL0117  N840000000007208          05DNHAPPY HIPPIE             093328    MD84000000007208 N  549976487158                            000000000+M10101C5434C    MDJ  00402                     000000000  N                0000000000000.00 0000000.00   0000000.00                             000000000000000                                                                                                                                                   B101418  000000000000 0000000000000.91     01050 01500                  
01586480392260016DT67590675900000002881800888800000010180088824001193017900012100149011720230000000307301723000000000078280419090XXXXXX1275       VS11    0001111   NYV1 A E303017827246782N840000000003073TCXW00    05DNHAPPY HIPPIE             826451    VD84000000003073 N  549976487158                            000000000+                F DF 00381                     000000000  N000000000       0000000000000.00 0000000.00   0000000.00                             000000000000000                                                                                                                                                     01418 A000000000000 0000000000000.40     00800 01500                  
01586490392260017BH6759067590000000215480088880000090170117202301723000000001060780    0000090001842192N8008886759C01182023                                                                                                                                                                                                                                                                                                                                                                                                                                                                                                                                                                                                 
01586500392260018DT67590675900000002154800888800000010180088873011003017900018421925011720230000106078001723000000001060780371558XXXXX9005                          NY 4 07N004356991450307N840000001060780          01DNDRIP DROP DISTRO LLC     121237    AM84000001060780 N  519971004114                            000000000+6004S0600140 258     11245                     000000000                   0000000000000.00 0000000.00   0000000.00                             000000000000000 61248972736759675900000002154 DRIP DROP DISTRO LLC     1445 W COMMERCE AVE SUITE2087248209      83705     TROY@DRIPDROPDISTRO.COM                   01418  000000000000 0000000000249.38     02350 00000                  
01586510392260019BH6759067590000000288180088880000090170117202301723000000000100453    0000090001210021N8008886759C01182023                                                                                                                                                                                                                                                                                                                                                                                                                                                                                                                                                                                                 
01586520392260020DT67590675900000002881800888800000010180088824001193017900012100016011720230000000469101723000000000100453440393XXXXXX4171       VS11    0001111   NYV1 A E303017543559508N840000000004691DG4N00    05DNHAPPY HIPPIE             806175    VD84000000004691 N  549976487134                            000000000+                F PF 08170                     000000000  N000000000       0000000000000.00 0000000.00   0000000.00                             000000000000000                                                                                                                                                     01418 A000000000000 0000000000000.69     01150 01500                  
01586530392260021DT67590675900000002881800888800000010180088824001193017900012100024011720230000000255501723000000000100453443238XXXXXX8399       VS11    0001111   NYV1 A E383017553031893N840000000002555HTPV00    05DNHAPPY HIPPIE             002144    VD84000000002555 N  549976487134                            000000000+                F DF 00381                     000000000  N000000000       0000000000000.00 0000000.00   0000000.00                             000000000000000                                                                                                                                                     01418 A000000000000 0000000000000.35     00800 01500                  
01586540392260022DT67590675900000002881800888800000010180088824001193017900012100032011720230000000148101723000000000100453419090XXXXXX0755       VK04VS111111111   NYV1 A E463017576828678N840000000001481LM6L00    05DNHAPPY HIPPIE             813699    VD84000000001481 N  549976487134                            000000000+                F DF 00451                     000000000  N000000000 214   0000000000000.00 0000000.00   0000000.00                             000000000000000                                                                                                                                                     01418 F000000000000 0000000000000.27     01550 00400                  
01586550392260023DT67590675900000002881800888800000010180088824001193017900012100040011720230000000439001723000000000100453430633XXXXXX2816       VS11    0001111   NYV1 A E463017591255110N840000000004390VRBV00    05DNHAPPY HIPPIE             017265    VS84000000004390 N  549976487134                            000000000+                A CA 12110                     000000000  N000000000 493   0000000000000.00 0000000.00   0000000.00                             000000000000000                                                                                                                                                     01418 A000000000000 0000000000000.76     01510 01000                  
01586560392260024DT67590675900000002881800888800000010180088824001193017900012100057011720230000001096301723000000000100453404227XXXXXX3574       VS11    0001111   NYV1 A E583017626381985N840000000010963KVBM00    05DNHAPPY HIPPIE             615673    VD84000000010963 N  549976487134                            000000000+                F DF 00381                     000000000  N000000000       0000000000000.00 0000000.00   0000000.00                             000000000000000                                                                                                                                                     01418 A000000000000 0000000000001.03     00800 01500                  
01586570392260025DT67590675900000002881800888800000010180088824001193017900012100065011720230000000071301723000000000100453449507XXXXXX6718       VK04VS111111111   NYV1 A E303017634712345N840000000000713GMXX00    05DNHAPPY HIPPIE             023751    VD84000000000713 N  549976487134                            000000000+                F DF 00451                     000000000  N000000000 214   0000000000000.00 0000000.00   0000000.00                             000000000000000                                                                                                                                                     01418 F000000000000 0000000000000.15     01550 00400                  
01586580392260026DT67590675900000002881800888800000010180088824001193017900012100073011720230000000887801723000000000100453419090XXXXXX3405       VS11    0001111   NYV1 A E463017649195622N840000000008878JN2C00    05DNHAPPY HIPPIE             817375    VD84000000008878 N  549976487134                            000000000+                F DF 00381                     000000000  N000000000       0000000000000.00 0000000.00   0000000.00                             000000000000000                                                                                                                                                     01418 A000000000000 0000000000000.86     00800 01500                  
01586590392260027DT67590675900000002881800888800000010180088824001193017900012100081011720230000000296201723000000000100453480639XXXXXX1976       VS11    0001111   NYV1 A E383017689807878N840000000002962824M00    05DNHAPPY HIPPIE             519960    VD84000000002962 N  549976487134                            000000000+                F DF 00381                     000000000  N000000000       0000000000000.00 0000000.00   0000000.00                             000000000000000                                                                                                                                                     01418 A000000000000 0000000000000.39     00800 01500                  
01586600392260028DT67590675900000002881800888800000010180088824001193017900012100099011720230000000384001723000000000100453435544XXXXXX3143       VS11    0001111   NYV1 A E303017710014821N8400000000038402NJT00    05DNHAPPY HIPPIE             094096    VD84000000003840 N  549976487134                            000000000+                F DF 10433                     000000000  Y000000000 338   0000000000000.00 0000000.00   0000000.00                             000000000000000                                                                                                                                                     01418 A000000000000 0000000000000.24     00050 02200                  
01586610392260029DT67590675900000002881800888800000010180088824001193017900012100107011720230000001184701723000000000100453443238XXXXXX4706       VS11    0001111   NYV1 A E463017714235464N840000000011847FQVD00    05DNHAPPY HIPPIE             045023    VD84000000011847 N  549976487134                            000000000+                F DF 00381                     000000000  N000000000       0000000000000.00 0000000.00   0000000.00                             000000000000000                                                                                                                                                     01418 A000000000000 0000000000001.10     00800 01500                  
01586620392260030DT67590675900000002881800888800000010180088824001193017900012100115011720230000000187601723000000000100453443238XXXXXX4257       VS11    0001111   NYV1 A E303017716192850N840000000001876PZMV00    05DNHAPPY HIPPIE             045339    VD84000000001876 N  549976487134                            000000000+                F DF 00381                     000000000  N000000000       0000000000000.00 0000000.00   0000000.00                             000000000000000                                                                                                                                                     01418 A000000000000 0000000000000.30     00800 01500                  
01586630392260031DT67590675900000002881800888800000010180088824001193017900012100123011720230000000316101723000000000100453415978XXXXXX3096       VS11    0001111   NYV1 A E303017718034850N840000000003161W2R600    05DNHAPPY HIPPIE             039332    VD84000000003161 N  549976487134                            000000000+                F DF 10433                     000000000  Y000000000 338   0000000000000.00 0000000.00   0000000.00                             000000000000000                                                                                                                                                     01418 A000000000000 0000000000000.24     00050 02200                  
01586640392260032DT67590675900000002881800888800000010680088874001193017900012100136011720230000000039501723000000000100453443238XXXXXX4257               0000000   NYV1 0 T583017722183460N840000000000395XTK300    05CNHAPPY HIPPIE             050338    VD84000000000395 N  549976487134                            000000000+                F DF 08168                     000000000  N000000000 369   0000000000000.00 0000000.00   0000000.00                             000000000000000                                                                                                                                                     01418  000000000000 0000000000000.00     00000 00000                  
01586650392260033DT67590675900000002881800888800000010180088824001193017900012100149011720230000000385001723000000000100453426684XXXXXX2395       VS11    0001111   NYV1 A E463017732871024N840000000003850PNB400    05DNHAPPY HIPPIE             03841D    VS84000000003850 N  549976487134                            000000000+                D CD 12113                     000000000  N000000000 499   0000000000000.00 0000000.00   0000000.00                             000000000000000                                                                                                                                                     01418 A000000000000 0000000000000.91     02100 01000                  
01586660392260034DT67590675900000002881800888800000010180088824001193017900012100156011720230000000296201723000000000100453440393XXXXXX2127       VS11    0001111   NYV1 A E303017750712856N840000000002962BRR800    05DNHAPPY HIPPIE             592441    VD84000000002962 N  549976487134                            000000000+                F PF 08170                     000000000  N000000000       0000000000000.00 0000000.00   0000000.00                             000000000000000                                                                                                                                                     01418 A000000000000 0000000000000.49     01150 01500                  
01586670392260035DT67590675900000002881800888800000010180088824001193017900012100164011720230000000592401723000000000100453443238XXXXXX6669       VS11    0001111   NYV1 A E303017753256091N84000000000592469MV00    05DNHAPPY HIPPIE             055525    VD84000000005924 N  549976487134                            000000000+                F DF 00381                     000000000  N000000000       0000000000000.00 0000000.00   0000000.00                             000000000000000                                                                                                                                                     01418 A000000000000 0000000000000.62     00800 01500                  
01586680392260036DT67590675900000002881800888800000010180088824001193017900012100172011720230000000551701723000000000100453415978XXXXXX5624       VS11    0001111   NYV1 A E383017768774245N8400000000055173W5P00    05DNHAPPY HIPPIE             063053    VD84000000005517 N  549976487134                            000000000+                F DF 10433                     000000000  Y000000000 338   0000000000000.00 0000000.00   0000000.00                             000000000000000                                                                                                                                                     01418 A000000000000 0000000000000.25     00050 02200                  
01586690392260037DT67590675900000002881800888800000010180088877287283017900012100182011720230000000362101723000000000100453536013XXXXXX3166       MS02WI09          NY 1 0 AMDJBG30F20117  N840000000003621          07DNHAPPY HIPPIE             007083    MD84000000003621 N  549976487134                            000000000+M10101M0034C    MDJ  00402                     000000000  N                0000000000000.00 0000000.00   0000000.00                             000000000000000                                                                                                                                                   B101418  000000000000 0000000000000.53     01050 01500                  
01586700392260038DT67590675900000002881800888800000010180088824001193017900012100198011720230000000032801723000000000100453419090XXXXXX9027       VK04VS111111111   NYV1 A E463017782440235N840000000000328M5QW00    05DNHAPPY HIPPIE             824100    VD84000000000328 N  549976487134                            000000000+                F DF 00451                     000000000  N000000000 214   0000000000000.00 0000000.00   0000000.00                             000000000000000                                                                                                                                                     01418 F000000000000 0000000000000.09     01550 00400                  
01586710392260039DT67590675900000002881800888800000010180088877287283017900012100208011720230000000690001723000000000100453515676XXXXXX9224       MS02WI09          NY 1 0 AMWECIVDTF0117  N840000000006900          05DNHAPPY HIPPIE             02105Z    MC84000000006900 N  549976487134                            000000000+M10101C5434C    MWE  00743                     000000000  N                0000000000000.00 0000000.00   0000000.00                             000000000000000                                                                                                                                                   B101418  000000000000 0000000000001.63     02300 00400                  
01586720392260040DT67590675900000002881800888800000010180088877287283017900012100216011720230000001438901723000000000100453514377XXXXXX6660       MS02WI09          NY 1 0 AMDJBGVXTV0117  N840000000014389          05DNHAPPY HIPPIE             20FQKE    MD84000000014389 N  549976487134                            000000000+M10101C5434C    MDJ  00402                     000000000  N                0000000000000.00 0000000.00   0000000.00                             000000000000000                                                                                                                                                   B101418  000000000000 0000000000001.66     01050 01500                  
01586730392260041BH6759067590000000096880088880000090170117202301723000000000018788    0000090001220551N8008886759C01182023                                                                                                                                                                                                                                                                                                                                                                                                                                                                                                                                                                                                 
01586740392260042DT67590675900000000968800888800000010180088887287283017900012265620011720230000001257901723000000000018788512230XXXXXX9973       ME03KE06MS02      NY 4607AMWEQFEVL80116  N840000000012579          81DNHIGHER FLOUR LLC         23376Z    MC84000000012579 N  546200000001   rbu6vNEWQ9P1FtWGk1iy     000000000+600450S00140    MWE  00737                     000000000  N                0000000000000.00 0000000.00   0000000.00                             000000000000000                                                                                                                                                   U001418  000000000000 0000000000003.37     02600 01000                  
01586750392260043DT67590675900000000968800888800000010180088824001193017900012205518011720230000000620901723000000000018788427088XXXXXX5625               2111111   NYV4 A7W383017736296611N8400000000062095XBG00    01DNHIGHER FLOUR LLC         052708    VD84000000006209 NP1546271004114   RUFTQ4C6UWJ46RDPN1IQ     000000000+                F DF 10420                     000000000  Y000000000 338   0000000000000.00 0000000.00   0000000.00                             000000000000000                                                                                                                                                     01418 G000000006209 0000000000000.25     00050 02200                  
01586760392260001P16759067590000000096880088880000001010000000000000000                             2000000000000000000000000              000000000000                    0000000000000000000000000                    000000000000                                                                                                                                                                                                                                                                                                                                                                                                                                                                                        
