06691480601135952AD675906759000000268498001258000009071900012144930000000988506252023NYY17623ND6759800125062720232023171046087                                                                                                                                                                                                                                                                                                                                                                                                                                                                                                                                                                                              
06691490601135955AD675906759000000142748001028000009071900012267480000002255006252023NYY17623ND6759800102062720232023174020869                                                                                                                                                                                                                                                                                                                                                                                                                                                                                                                                                                                              
06691500601135958AD675906759000000232598001168000009071900011408650000002178906252023NYY17623ND6759800116062720232023174020871                                                                                                                                                                                                                                                                                                                                                                                                                                                                                                                                                                                              
06691510601471623AD675906759000000151648008888000009071231510044570000000519006232023NYY17423ND6759800888062720232023151004457                                                                                                                                                                                                                                                                                                                                                                                                                                                                                                                                                                                              
06691520601471626AD675906759000000151648008888000009071231510044580000000654806232023NYY17423ND6759800888062720232023151004458                                                                                                                                                                                                                                                                                                                                                                                                                                                                                                                                                                                              
06691530601471629AD675906759000000151648008888000009071231510044620000001194806232023NYY17423ND6759800888062720232023151004462                                                                                                                                                                                                                                                                                                                                                                                                                                                                                                                                                                                              
06691540601471632AD675906759000000198288001098000009071231520025210000001616506232023NYY17423ND6759800109062720232023152002521                                                                                                                                                                                                                                                                                                                                                                                                                                                                                                                                                                                              
06691550601471635AD675906759000000151648008888000009071231720044510000000654806242023NYY17523ND6759800888062720232023172004451                                                                                                                                                                                                                                                                                                                                                                                                                                                                                                                                                                                              
06691560601471638AD675906759000000151648008888000009071231720044520000000519006242023NYY17523ND6759800888062720232023172004452                                                                                                                                                                                                                                                                                                                                                                                                                                                                                                                                                                                              
06691570603061016BH6759067590000001516480088880000090170626202317723000000000021286    0000090001168788N8008886759D06272023116                                                                                                                                                                                                                                                                                                                                                                                                                                                                                                                                                                                              
06691580603061017DT67590675900000015164800888800000010180088887287283177900011684900062220230000001987017723000000000021286517805XXXXXX8634       ME01KE01PT01      YY 4607AMCWP1PXIH0618  N840000000019870          81DNKETOFUSION833-923-3587   05186P    MC84000000019870 NDR599977360677   92663A0F80T9564CCD22C90  000000000+600450S00130    MCW  00641                     000000000  N                0000000000000.00 0000000.00   0000000.00                             000000000000000                                                                                                                                                   U0015WPE 000000000000 0000000000006.36     03150 01000                  
06691590603061017DR67590675900000015164800888800000010192663A0F80T9564CCD22C90  Z000000000000                                                                                                                                                                                                                                                                                                                                                                                                                                                                                                                                                                                                                               
06691600603060001G26759067590000001516480088880000001018014041097               UT           9 W               210                                      NNNN           210000000000000000000000000                        7                                          77360677                                                                                                                                                                                                                                                                                                                                                                                                                                               
06691610603061018DT67590675900000015164800888800000010180088887287283177900011685071062220230000002487017723000000000021286544372XXXXXX2876       ME01KE01M101      YY 4607AMDSMH7C220619  N840000000024870          81DNKETOFUSION833-923-3587   907531    MD84000000024870 NDR599977360677   3D567992F4T2551B5E9EF10  000000000+600450S00130    MDS  00397                     000000000  N                0000000000000.00 0000000.00   0000000.00                             000000000000000                                                                                                                                                   U0015WPE 000000000000 0000000000004.98     01900 02500                  
06691620603061018DR6759067590000001516480088880000001013D567992F4T2551B5E9EF10  Y000000000000                                                                                                                                                                                                                                                                                                                                                                                                                                                                                                                                                                                                                               
06691630603060001G26759067590000001516480088880000001018014041097               UT           9 S               210                                      NNNN           210000000000000000000000000                                                                   77360677                                                                                                                                                                                                                                                                                                                                                                                                                                               
06691640603061019DT67590675900000015164800888800000010680088887287283177900011687911062320230000000198817723000000000021286526219XXXXXX0522                         YY94607N         0623  N840000000000000          81CNKETOFUSION833-923-3587             MD84000000001988 N  599977360677   6420B26A56TD4E338776BED  000000000+600450S00130    MDS  10828                     000000000  1                0000000000000.00 0000000.00   0000000.00                             000000000000000                                                                                                                                                     015WPE 000000000000 0000000000000.00     00000 00000                  
06691650603060001G26759067590000001516480088880000001068014041097               UT           9 S               210                                      NNNN           210000000000000000000000000                        7                                          77360677                                                                                                                                                                                                                                                                                                                                                                                                                                               
06691660603061020DT67590675900000015164800888800000010680088887287283177900011687812062320230000002487017723000000000021286552486XXXXXX8009                         YY 4607AMWETRDPY90623  N840000000024870          81CNKETOFUSION833-923-3587   048498    MC84000000024870 NDR599977360677   89E5F7E62ET5A0C2BED928A  000000000+600450S00130    MWE  00564                     000000000  N                0000000000000.00 0000000.00   0000000.00                             000000000000000                                                                                                                                                     015WPE 000000000000-0000000000004.35     01750 00000                  
06691670603061020DR67590675900000015164800888800000010689E5F7E62ET5A0C2BED928A  N000000000000                                                                                                                                                                                                                                                                                                                                                                                                                                                                                                                                                                                                                               
06691680603060001G26759067590000001516480088880000001068014041097               UT           9 E               210                                      NNNN           210000000000000000000000000                        7                                          77360677                                                                                                                                                                                                                                                                                                                                                                                                                                               
06691690603061021DT67590675900000015164800888800000010680088887287283177900011687846062320230000002487017723000000000021286521333XXXXXX4202                         YY 4607AMPLTR2MY90623  N840000000024870          81CNKETOFUSION833-923-3587   023429    MC84000000024870 NDR599977360677   E4C995C775T73A389245109  000000000+600450S00130    MPL  00564                     000000000  N                0000000000000.00 0000000.00   0000000.00                             000000000000000                                                                                                                                                     015WPE 000000000000-0000000000004.35     01750 00000                  
06691700603061021DR675906759000000151648008888000000106E4C995C775T73A389245109  R000000000000                                                                                                                                                                                                                                                                                                                                                                                                                                                                                                                                                                                                                               
06691710603060001G26759067590000001516480088880000001068014041097               UT           9 L               210                                      NNNN           210000000000000000000000000                        7                                          77360677                                                                                                                                                                                                                                                                                                                                                                                                                                               
06691720603061022DT67590675900000015164800888800000010680088887287283177900011687929062320230000000654817723000000000021286541071XXXXXX1039                         YY94607N         0623  N840000000000000          81CNKETOFUSION833-923-3587             MC84000000006548 N  599977360677   86C9D22D00TDF6B0A67088A  000000000+600450S00130    MCW  00564                     000000000  N                0000000000000.00 0000000.00   0000000.00                             000000000000000                                                                                                                                                     015WPE 000000000000-0000000000001.15     01750 00000                  
06691730603060001G26759067590000001516480088880000001068014041097               UT           9 W               210                                      NNNN           210000000000000000000000000                        7                                          77360677                                                                                                                                                                                                                                                                                                                                                                                                                                               
06691740603061023DT67590675900000015164800888800000010680088887287283177900011687887062320230000000775017723000000000021286546616XXXXXX3841                         YY 4607AMCWJJX4490623  N840000000007750          81CNKETOFUSION833-923-3587   618984    MC84000000007750 NDR599977360677   67BC342128T45F0E73EE57F  000000000+600450S00130    MCW  00564                     000000000  N                0000000000000.00 0000000.00   0000000.00                             000000000000000                                                                                                                                                     015WPE 000000000000-0000000000001.36     01750 00000                  
06691750603061023DR67590675900000015164800888800000010667BC342128T45F0E73EE57F  U000000000000                                                                                                                                                                                                                                                                                                                                                                                                                                                                                                                                                                                                                               
06691760603060001G26759067590000001516480088880000001068014041097               UT           9 W               210                                      NNNN           210000000000000000000000000                        7                                          77360677                                                                                                                                                                                                                                                                                                                                                                                                                                               
06691770603061026BH6759067590000002325980011680000090170626202317723000000000016389    0000090001742335N8001166759D06272023074                                                                                                                                                                                                                                                                                                                                                                                                                                                                                                                                                                                              
06691780603061027DT67590675900000023259800116800000010680011674001193177900017423356062220230000001638917723000000000016389440393XXXXXX9791               0000000   YY94 07N000000000000000N   000000000000          01CNGFORCEHEMP844-258-9322             VD84000000016389 N  549977768166                            000000000+                F PF 08168                     000000000  N000000000 369   0000000000000.00 0000000.00   0000000.00                             000000000000000                                                                                                                                                     015WPE 000000000000 0000000000000.00     00000 00000                  
06691790603060001G2675906759000000232598001168000000106844-2589322              CA           9 P                00                                      NNNN00 N 00                   000000000000                                                                   77768166                                                                                                                                                                                                                                                                                                                                                                                                                                               
06691800603061030BH6759067590000001516480088880000090170626202317723000000000104851    0000090001178807N8008886759D06272023117                                                                                                                                                                                                                                                                                                                                                                                                                                                                                                                                                                                              
06691810603061031DT67590675900000015164800888800000010180088824001193177900011785128062320230000001987017723000000000104851426938XXXXXX7203               2111111   YYV4 A7W583171423057588N840000000019870WX9D00    01DNKETOFUSION833-923-3587   020434    VS84000000019870 NDR599977360677   3FBEF352F5TC11AD02B0F37  000000000+                B CB 12107                     000000000  N000000000 494   0000000000000.00 0000000.00   0000000.00                             000000000000000                                                                                                                                                     015WPEG000000019870 0000000000004.15     02040 01000                  
06691820603061031DR6759067590000001516480088880000001013FBEF352F5TC11AD02B0F37  Y000000019870                 P1                                                                                                                                                                                                                                                                                                                                                                                                                                                                                                                                                                                                            
06691830603060001P16759067590000001516480088880000001010000000000000000                             2000000000000000000000000              000000000000                    0000000000000000000000000                    000000000000                                                                                                                                                                                                                                                                                                                                                                                                                                                                                        
06691840603060002G2675906759000000151648008888000000101801-4041097              UT           9 C                00                                      NNNN   Y                      000000000000                                                                   77360677                                                                                                                                                                                                                                                                                                                                                                                                                                               
06691850603061032DT67590675900000015164800888800000010680088874001193177900011787897062320230000000496717723000000000104851402464XXXXXX8750               0000000   YYV4 07T303175010597685N840000000004967NSXT00    01CNKETOFUSION833-923-3587   014176    VD84000000004967 NDR599977360677   4B63BC9641TC53600E7FCA3  000000000+                F DF 08168                     000000000  Y000000000 369   0000000000000.00 0000000.00   0000000.00                             000000000000000                                                                                                                                                     015WPE 000000004967 0000000000000.00     00000 00000                  
06691860603061032DR6759067590000001516480088880000001064B63BC9641TC53600E7FCA3  U000000004967                 P1                                                                                                                                                                                                                                                                                                                                                                                                                                                                                                                                                                                                            
06691870603060001P16759067590000001516480088880000001060000000000000000                             2000000000000000000000000              000000000000                    0000000000000000000000000                    000000000000                                                                                                                                                                                                                                                                                                                                                                                                                                                                                        
06691880603060002G2675906759000000151648008888000000106801-4041097              UT           9 D                00                                      NNNN   N                      000000000000                                                                   77360677                                                                                                                                                                                                                                                                                                                                                                                                                                               
06691890603061033DT67590675900000015164800888800000010680088874001193177900011787954062420230000000519017723000000000104851433477XXXXXX2778               0000000   YYV4 07T463175504358813N840000000005190P75900    01CNKETOFUSION833-923-3587   024259    VD84000000005190 NDR599977360677   D50186E244T57D5E0F2E632  000000000+                F DF 08168                     000000000  Y000000000 369   0000000000000.00 0000000.00   0000000.00                             000000000000000                                                                                                                                                     015WPE 000000005190 0000000000000.00     00000 00000                  
06691900603061033DR675906759000000151648008888000000106D50186E244T57D5E0F2E632  U000000005190                 P1                                                                                                                                                                                                                                                                                                                                                                                                                                                                                                                                                                                                            
06691910603060001P16759067590000001516480088880000001060000000000000000                             2000000000000000000000000              000000000000                    0000000000000000000000000                    000000000000                                                                                                                                                                                                                                                                                                                                                                                                                                                                                        
06691920603060002G2675906759000000151648008888000000106801-4041097              UT           9 D                00                                      NNNN   N                      000000000000                                                                   77360677                                                                                                                                                                                                                                                                                                                                                                                                                                               
06691930603061034DT67590675900000015164800888800000010680088874001193177900011787962062420230000000654817723000000000104851433477XXXXXX2778               0000000   YYV4 07T383175504864982N8400000000065486T7G00    01CNKETOFUSION833-923-3587   024168    VD84000000006548 NDR599977360677   D50186E244T5419C1A31296  000000000+                F DF 08168                     000000000  Y000000000 369   0000000000000.00 0000000.00   0000000.00                             000000000000000                                                                                                                                                     015WPE 000000006548 0000000000000.00     00000 00000                  
06691940603061034DR675906759000000151648008888000000106D50186E244T5419C1A31296  U000000006548                 P1                                                                                                                                                                                                                                                                                                                                                                                                                                                                                                                                                                                                            
06691950603060001P16759067590000001516480088880000001060000000000000000                             2000000000000000000000000              000000000000                    0000000000000000000000000                    000000000000                                                                                                                                                                                                                                                                                                                                                                                                                                                                                        
06691960603060002G2675906759000000151648008888000000106801-4041097              UT           9 D                00                                      NNNN   N                      000000000000                                                                   77360677                                                                                                                                                                                                                                                                                                                                                                                                                                               
06691970603061035DT67590675900000015164800888800000010680088887287283177900011787976062420230000002487017723000000000104851518941XXXXXX7633                         YY 4607AMWETBMZRI0624  N840000000024870          81CNKETOFUSION833-923-3587   175553    MC84000000024870 NDR599977360677   A08A2C7D7FTE5E89BD58159  000000000+600450S00130    MWE  00564                     000000000  N                0000000000000.00 0000000.00   0000000.00                             000000000000000                                                                                                                                                     015WPE 000000000000-0000000000004.35     01750 00000                  
06691980603061035DR675906759000000151648008888000000106A08A2C7D7FTE5E89BD58159  U000000000000                                                                                                                                                                                                                                                                                                                                                                                                                                                                                                                                                                                                                               
06691990603060001G26759067590000001516480088880000001068014041097               UT           9 E               210                                      NNNN           210000000000000000000000000                        7                                          77360677                                                                                                                                                                                                                                                                                                                                                                                                                                               
06692000603061036DT67590675900000015164800888800000010680088887287283177900011787984062420230000000198817723000000000104851521853XXXXXX0207                         YY 4607AMPLQ8H7RJ0624  N840000000001988          81CNKETOFUSION833-923-3587   024207    MC84000000001988 NDR599977360677   AC5555CB14T97C444CF1795  000000000+600450S00130    MPL  00564                     000000000  N                0000000000000.00 0000000.00   0000000.00                             000000000000000                                                                                                                                                     015WPE 000000000000-0000000000000.35     01750 00000                  
06692010603061036DR675906759000000151648008888000000106AC5555CB14T97C444CF1795  R000000000000                                                                                                                                                                                                                                                                                                                                                                                                                                                                                                                                                                                                                               
06692020603060001G26759067590000001516480088880000001068014041097               UT           9 L               210                                      NNNN           210000000000000000000000000                        7                                          77360677                                                                                                                                                                                                                                                                                                                                                                                                                                               
06692030603061037DT67590675900000015164800888800000010680088887287283177900011787992062420230000000654817723000000000104851521853XXXXXX0207                         YY 4607AMPLC8Z0RK0624  N840000000006548          81CNKETOFUSION833-923-3587   024603    MC84000000006548 NDR599977360677   AC5555CB14TFCA0314807E9  000000000+600450S00130    MPL  00564                     000000000  N                0000000000000.00 0000000.00   0000000.00                             000000000000000                                                                                                                                                     015WPE 000000000000-0000000000001.15     01750 00000                  
06692040603061037DR675906759000000151648008888000000106AC5555CB14TFCA0314807E9  R000000000000                                                                                                                                                                                                                                                                                                                                                                                                                                                                                                                                                                                                                               
06692050603060001G26759067590000001516480088880000001068014041097               UT           9 L               210                                      NNNN           210000000000000000000000000                        7                                          77360677                                                                                                                                                                                                                                                                                                                                                                                                                                               
06692060603061038DT67590675900000015164800888800000010680088887287283177900011788008062420230000002487017723000000000104851521853XXXXXX8915                         YY 4607AMPLVHN3RH0624  N840000000024870          81CNKETOFUSION833-923-3587   024564    MC84000000024870 NDR599977360677   575751CDA6T21F806D3AB28  000000000+600450S00130    MPL  00564                     000000000  N                0000000000000.00 0000000.00   0000000.00                             000000000000000                                                                                                                                                     015WPE 000000000000-0000000000004.35     01750 00000                  
06692070603061038DR675906759000000151648008888000000106575751CDA6T21F806D3AB28  R000000000000                                                                                                                                                                                                                                                                                                                                                                                                                                                                                                                                                                                                                               
06692080603060001G26759067590000001516480088880000001068014041097               UT           9 L               210                                      NNNN           210000000000000000000000000                        7                                          77360677                                                                                                                                                                                                                                                                                                                                                                                                                                               
06692090603061039DT67590675900000015164800888800000010680088887287283177900011788065062420230000002487017723000000000104851529918XXXXXX6644                         YY94607N         0624  N840000000000000          81CNKETOFUSION833-923-3587             MC84000000024870FN  599977360677   B407C5BCC2T045F7DF68C17  000000000+600450S00130    MWE  12242                     000000000  N                0000000000000.00 0000000.00   0000000.00                             000000000000000                                                                                                                                                     015WPE 000000000000-0000000000002.49     01000 00000                  
06692100603060001G26759067590000001516480088880000001068014041097               UT           9 E               210                                      NNNN           210000000000000000000000000                        7                                          77360677                                                                                                                                                                                                                                                                                                                                                                                                                                               
06692110603061040DT67590675900000015164800888800000010680088887287283177900011788073062420230000002487017723000000000104851526227XXXXXX7999                         YY94607N         0624  N840000000000000          81CNKETOFUSION833-923-3587             MD84000000024870 N  599977360677   FBDE43AA09T787FC742E4F9  000000000+600450S00130    MDS  10828                     000000000  1                0000000000000.00 0000000.00   0000000.00                             000000000000000                                                                                                                                                     015WPE 000000000000 0000000000000.00     00000 00000                  
06692120603060001G26759067590000001516480088880000001068014041097               UT           9 S               210                                      NNNN           210000000000000000000000000                        7                                          77360677                                                                                                                                                                                                                                                                                                                                                                                                                                               
06692130603061043BH6759067590000002325980011680000090170626202317723000000000021789    0000090001752346N8001166759D06272023075                                                                                                                                                                                                                                                                                                                                                                                                                                                                                                                                                                                              
06692140603061044DT67590675900000023259800116800000010680011687287283177900017523466062420230000002178917723000000000021789510681XXXXXX6970                         YY94607N         0624  N840000000000000          81CNGFORCEHEMP844-258-9322             MD84000000021789 N  549977768166   41560E5DB4T83E150C70E7D  000000000+600450S00130    MDS  00560                     000000000  N                0000000000000.00 0000000.00   0000000.00                             000000000000000                                                                                                                                                     015WPE 000000000000 0000000000000.00     00000 00000                  
06692150603060001G26759067590000002325980011680000001068442589322               CA           9 S               210                                      NNNN           210000000000000000000000000                                                                   77768166                                                                                                                                                                                                                                                                                                                                                                                                                                               
06692160603680002BH6759067590000000288180088880000090170626202317723000000000123165    0000090001490018N8008886759C06272023149                                                                                                                                                                                                                                                                                                                                                                                                                                                                                                                                                                                              
06692170603680003DT67590675900000002881800888800000010180088824001193177900014900013062620230000000362217723000000000123165415977XXXXXX3498       VS11    0001111   NYV1 A E583177505855063N840000000003622568J00    05DNHAPPY HIPPIE             037475    VD84000000003622 N  549976487134                            000000000+                F DF 10433                     000000000  Y000000000 338   0000000000000.00 0000000.00   0000000.00                             000000000000000                                                                                                                                                     01418 A000000000000 0000000000000.24     00050 02200                  
06692180603680001E167590675900000002881800888800000010100E0F8C800DD 00000000000.004040404040404040404040404040404040404040404040404006011203A08000000000000000000000404040404040404040404040404040  00000840180080800080002306268B5DA2C360615170174D2949404040400840A0000000031010000000000000000000F1D1522E1012793530300000000000004040401E40404040 000000036.22 000000000.001E00000000000000000000    80                                                                                                                                                                                                                                                                                                                  
06692190603680002G2675906759000000028818008888000000101SEVIERVILLE              TN           5 D                00                                      NNNN00 N 00                   000000000000                                                                   76487134                                                                                                                                                                                                                                                                                                                                                                                                                                               
06692200603680004DT67590675900000002881800888800000010180088824001193177900014900021062620230000000018517723000000000123165451440XXXXXX1209       VK04VS111111111   NYV1 A E383177517396498N84000000000018593LC00    05DNHAPPY HIPPIE             072219    VD84000000000185 N  549976487134                            000000000+                F PF 08165                     000000000  N000000000       0000000000000.00 0000000.00   0000000.00                             000000000000000                                                                                                                                                     01418 F000000000000 0000000000000.08     01600 00500                  
06692210603680001E167590675900000002881800888800000010100E0F8C80016 00000000000.004040404040404040404040404040404040404040404040404006011203A08000000000000000000000404040404040404040404040404040  0000084018008080008000230626965D3C7F5C68ED28969079F5404040400840A0000000031010000000000000000000404040404040404040404040404040404040401E40404040 000000001.85 000000000.001E00000000000000000000    80                                                                                                                                                                                                                                                                                                                  
06692220603680002G2675906759000000028818008888000000101SEVIERVILLE              TN           5 P                00                                      NNNN00 N 00                   000000000000                                                                   76487134                                                                                                                                                                                                                                                                                                                                                                                                                                               
06692230603680005DT67590675900000002881800888800000010180088876509753177900014900037062620230000001546117723000000000123165601100XXXXXX2315   BA50                  NY41 0 N813152443655051N840000000015461    00    05DNHAPPY HIPPIE             02679R    DS84000000015461 N  549976487134050                         000000000+0000004910H00   DCCDI01000833581  073245000000 000000000  0          112   0000000000000.00 0000000.00   0000000.00                             000000000000000                                                                                                                                                     01418  000000000000 0000000000002.76     01720 01000                  
06692240603680001E167590675900000002881800888800000010100E0F8C80034 00000000000.00404040404040404040404040404040404040404040404040400105A0800F8000000000000000000000404040404040404040404040404040  00020840780000000080002306265958D0C2D5592EA913F4C9F4404040400840A0000001523010000000000000000000970E9A659EE1865000320000000000004040401E40404040 000000154.61 000000000.001E03000000000000000000    80                                                                                                                                                                                                                                                                                                                  
06692250603680002G2675906759000000028818008888000000101SEVIERVILLE              TN           5 C                00                                      NNNN                          000000000000                         00000650975601179750000063                76487134                                                                                                                                                                                                                                                                                                                                                                                                                                               
06692260603680006DT67590675900000002881800888800000010180088824001193177900014900047062620230000000393817723000000000123165419090XXXXXX6989       VS11    0001111   NYV1 A E303177531782240N8400000000039389LQ900    05DNHAPPY HIPPIE             353232    VD84000000003938 N  549976487134                            000000000+                F DF 00381                     000000000  N000000000       0000000000000.00 0000000.00   0000000.00                             000000000000000                                                                                                                                                     01418 A000000000000 0000000000000.47     00800 01500                  
06692270603680001E167590675900000002881800888800000010100E0F8C8005E 00000000000.004040404040404040404040404040404040404040404040404006011203A0A000000000000000000000404040404040404040404040404040  00010840180080800080002306262338A28735F2EAEDF92AC100404040400840A000000003101000000000000000000081B132730080000000000000000000004040401E40404040 000000039.38 000000000.001E00000000000000000000    80                                                                                                                                                                                                                                                                                                                  
06692280603680002G2675906759000000028818008888000000101SEVIERVILLE              TN           5 D                00                                      NNNN00 N 00                   000000000000                                                                   76487134                                                                                                                                                                                                                                                                                                                                                                                                                                               
06692290603680007DT67590675900000002881800888800000010180088824001193177900014900054062620230000000801017723000000000123165414709XXXXXX7367       VS11    0001111   NYV1 A E383177539050181N840000000008010BK2G00    07DNHAPPY HIPPIE             04788D    VS84000000008010 N  549976487134                            000000000+                D CD 12113                     000000000  N000000000 499   0000000000000.00 0000000.00   0000000.00                             000000000000000                                                                                                                                                     01418 A000000000000 0000000000001.78     02100 01000                  
06692300603680001E167590675900000002881800888800000010100E068C800CE 00000000000.004040404040404040404040404040404040404040404040404006011203A00000000000000000000000404040404040404040404040404040  0002084020000000000000230626DD3329E8E6934AC288D318C4404040400840A0000000031010000000000000000000404040404040404040404040404040404040404040404040 000000080.10 000000000.004040400000000000000000    80                                                                                                                                                                                                                                                                                                                  
06692310603680002G2675906759000000028818008888000000101SEVIERVILLE              TN           5 C                00                                      NNNN00 Y 00                   000000000000                                                                   76487134                                                                                                                                                                                                                                                                                                                                                                                                                                               
06692320603680008DT67590675900000002881800888800000010180088824001193177900014900062062620230000000917917723000000000123165445101XXXXXX6620               1001111   NYV1 A K383177588752477N8400000000091793HK700    01DNHAPPY HIPPIE             080952    VD84000000009179 NDR549976487134                            000000000+                F DF 10436                     000000000  Y000000000 338   0000000000000.00 0000000.00   0000000.00                             000000000000000                                                                                                                                                     01418 E000000000000 0000000000000.27     00050 02200                  
06692330603680008DR675906759000000028818008888000000101                         Z000000000000                                                                                                                                                                                                                                                                                                                                                                                                                                                                                                                                                                                                                               
06692340603680001G2675906759000000028818008888000000101865-3663142              TN           5 D                00                                      NNNN   N                      000000000000                                                                   76487134                                                                                                                                                                                                                                                                                                                                                                                                                                               
06692350603680009DT67590675900000002881800888800000010180088824001193177900014900070062620230000001107317723000000000123165419090XXXXXX1006       VS11    0001111   NYV1 A E463177608044215N840000000011073HNQG00    05DNHAPPY HIPPIE             357270    VD84000000011073 N  549976487134                            000000000+                F DF 00381                     000000000  N000000000       0000000000000.00 0000000.00   0000000.00                             000000000000000                                                                                                                                                     01418 A000000000000 0000000000001.04     00800 01500                  
06692360603680001E167590675900000002881800888800000010100E0F8C80045 00000000000.004040404040404040404040404040404040404040404040404006011203A0A000000000000000000000404040404040404040404040404040  0001084018008080008000230626D3541FDF5D6F2083327CEC21404040400840A00000000310100000000000000000000C4BBE2F0080000000000000000000004040401E40404040 000000110.73 000000000.001E00000000000000000000    80                                                                                                                                                                                                                                                                                                                  
06692370603680002G2675906759000000028818008888000000101SEVIERVILLE              TN           5 D                00                                      NNNN00 N 00                   000000000000                                                                   76487134                                                                                                                                                                                                                                                                                                                                                                                                                                               
06692380603680010DT67590675900000002881800888800000010180088824001193177900014900088062620230000000237117723000000000123165419090XXXXXX4778       VS11    0001111   NYV1 A E463177614728176N84000000000237142TX00    05DNHAPPY HIPPIE             357659    VD84000000002371 N  549976487134                            000000000+                F DF 00381                     000000000  N000000000       0000000000000.00 0000000.00   0000000.00                             000000000000000                                                                                                                                                     01418 A000000000000 0000000000000.34     00800 01500                  
06692390603680001E167590675900000002881800888800000010100E0F8C80003 00000000000.004040404040404040404040404040404040404040404040404006011203A0B000000000000000000000404040404040404040404040404040  00010840180080800080002306262A784117426D1B21F68A6E3A404040400840A00000000310100000000000000000003D77BB640080000000000000000000004040401E40404040 000000023.71 000000000.001E00000000000000000000    80                                                                                                                                                                                                                                                                                                                  
06692400603680002G2675906759000000028818008888000000101SEVIERVILLE              TN           5 D                00                                      NNNN00 N 00                   000000000000                                                                   76487134                                                                                                                                                                                                                                                                                                                                                                                                                                               
06692410603680011DT67590675900000002881800888800000010180088824001193177900014900096062620230000000943617723000000000123165448825XXXXXX5577       VS11    0001111   NYV1 A E383177621308155N840000000009436JQCB00    05DNHAPPY HIPPIE             047731    VD84000000009436 N  549976487134                            000000000+                F DF 00381                     000000000  N000000000       0000000000000.00 0000000.00   0000000.00                             000000000000000                                                                                                                                                     01418 A000000000000 0000000000000.90     00800 01500                  
06692420603680001E167590675900000002881800888800000010100E0F8C8012B 00000000000.004040404040404040404040404040404040404040404040404006011203A0A000000000000000000000404040404040404040404040404040  0000084018008080008000230626DD4D028F89320202A2856430404040400840A0000000031010000000000000000000404040404040404040404040404040404040401E40404040 000000094.36 000000000.001E00000000000000000000    80                                                                                                                                                                                                                                                                                                                  
06692430603680002G2675906759000000028818008888000000101SEVIERVILLE              TN           5 D                00                                      NNNN00 N 00                   000000000000                                                                   76487134                                                                                                                                                                                                                                                                                                                                                                                                                                               
06692440603680012DT67590675900000002881800888800000010180088877287283177900014900106062620230000000246917723000000000123165520602XXXXXX1352       MS02WI09          NY 1 0 AMWEO6X6XQ0626  N840000000002469          07DNHAPPY HIPPIE             21364Z    MC84000000002469 N  549976487134                            000000000+M10101M0034C    MWE  00743                     000000000  N                0000000000000.00 0000000.00   0000000.00                             000000000000000                                                                                                                                                   B101418  000000000000 0000000000000.61     02300 00400                  
06692450603680001E1675906759000000028818008888000000101000008480006 00000000000.00404040404040404040404040404040404040404040404040400210A04001220000000000000000000000FF00000000000000000000000000  0001084019800000008001230626693784BCED4473D7BCE117F4404040400840A0000000041010000000000000000000404040404040404040404040404040404040401F40404040 000000024.69 000000000.001F03020000000000000000    80                                                                                                                                                                                                                                                                                                                  
06692460603680002G2675906759000000028818008888000000101SEVIERVILLE              TN           5 E                                                        NNNN              000000000000000000000000       03               7                                          76487134                                                                                                                                                                                                                                                                                                                                                                                                                                               
06692470603680013DT67590675900000002881800888800000010180088824001193177900014900112062620230000000197417723000000000123165422921XXXXXX2443       VS11    0001111   NYV1 A E583177633171954N840000000001974H5Q600    07DNHAPPY HIPPIE             048918    VD84000000001974 N  549976487134                            000000000+                F DF 00381                     000000000  N000000000       0000000000000.00 0000000.00   0000000.00                             000000000000000                                                                                                                                                     01418 A000000000000 0000000000000.31     00800 01500                  
06692480603680001E167590675900000002881800888800000010100E068C80459 00000000000.004040404040404040404040404040404040404040404040404006011203A00000000000000000000000404040404040404040404040404040  00000840000000000000002306268EE4A72CA8402685061A0694404040400840A00000000310100000000000000000000DD89AD30382000000000000000000004040404040404040 000000019.74 000000000.004040400000000000000000    80                                                                                                                                                                                                                                                                                                                  
06692490603680002G2675906759000000028818008888000000101SEVIERVILLE              TN           5 D                00                                      NNNN00 N 00                   000000000000                                                                   76487134                                                                                                                                                                                                                                                                                                                                                                                                                                               
06692500603680014DT67590675900000002881800888800000010180088877287283177900014900122062620230000000619817723000000000123165549099XXXXXX9996       ME03MS02WI09      NY 1 0 AMPLPKMUXQ0626  N840000000006198          01DNHAPPY HIPPIE             06179B    MC84000000006198 N  549976487134                            000000000+M1010115434C    MPL  00581                     000000000  N                0000000000000.00 0000000.00   0000000.00                             000000000000000                                                                                                                                                   E101418  000000000000 0000000000001.40     02100 01000                  
06692510603680001G2675906759000000028818008888000000101SEVIERVILLE              TN           5 L                                                        NNNN              000000000000000000000000                                                                   76487134                                                                                                                                                                                                                                                                                                                                                                                                                                               
06692520603680015DT67590675900000002881800888800000010180088824001193177900014900138062620230000000404417723000000000123165423223XXXXXX7930       VS11    0001111   NYV1 A E463177677803290N840000000004044D5TD00    07DNHAPPY HIPPIE             046403    VD84000000004044 N  549976487134                            000000000+                F DF 00381                     000000000  N000000000       0000000000000.00 0000000.00   0000000.00                             000000000000000                                                                                                                                                     01418 A000000000000 0000000000000.47     00800 01500                  
06692530603680001E167590675900000002881800888800000010100E068C80006 00000000000.004040404040404040404040404040404040404040404040404006011203A00000000000000000000000404040404040404040404040404040  000008402000000000000023062698608CF8352C4E21825C33D8404040400840A000000003101000000000000000000090796F290080000000000000000000004040404040404040 000000040.44 000000000.004040400000000000000000    80                                                                                                                                                                                                                                                                                                                  
06692540603680002G2675906759000000028818008888000000101SEVIERVILLE              TN           5 D                00                                      NNNN00 N 00                   000000000000                                                                   76487134                                                                                                                                                                                                                                                                                                                                                                                                                                               
06692550603680016DT67590675900000002881800888800000010180088824001193177900014900146062620230000001250917723000000000123165415975XXXXXX3647       VS11    0001111   NYV1 A E383177728873070N840000000012509V68N00    05DNHAPPY HIPPIE             055552    VD84000000012509 N  549976487134                            000000000+                F DF 10433                     000000000  Y000000000 338   0000000000000.00 0000000.00   0000000.00                             000000000000000                                                                                                                                                     01418 A000000000000 0000000000000.28     00050 02200                  
06692560603680001E167590675900000002881800888800000010100E0F8C8013F 00000000000.004040404040404040404040404040404040404040404040404006010A03A0A000000000000000000000404040404040404040404040404040  000008401800808000800023062629082EA02C5EC7A4C98909AF404040400840A0000000031010000000000000000000BA6C6BAE3CE8F89730300000000000004040401E40404040 000000125.09 000000000.001E00000000000000000000    80                                                                                                                                                                                                                                                                                                                  
06692570603680002G2675906759000000028818008888000000101SEVIERVILLE              TN           5 D                00                                      NNNN00 N 00                   000000000000                                                                   76487134                                                                                                                                                                                                                                                                                                                                                                                                                                               
06692580603680017DT67590675900000002881800888800000010180088824001193177900014900153062620230000000296317723000000000123165443238XXXXXX0990       VS11    0001111   NYV1 A E583177738146269N840000000002963KWQM00    07DNHAPPY HIPPIE             063015    VD84000000002963 N  549976487134                            000000000+                F DF 00381                     000000000  N000000000       0000000000000.00 0000000.00   0000000.00                             000000000000000                                                                                                                                                     01418 A000000000000 0000000000000.39     00800 01500                  
06692590603680001E167590675900000002881800888800000010100E068C801EC 00000000000.004040404040404040404040404040404040404040404040404006011203A00000000000000000000000404040404040404040404040404040  00000840000000000000002306267A8F59EAA08E05C6B90A2693404040400840A0000000031010000000000000000000404040404040404040404040404040404040404040404040 000000029.63 000000000.004040400000000000000000    80                                                                                                                                                                                                                                                                                                                  
06692600603680002G2675906759000000028818008888000000101SEVIERVILLE              TN           5 D                00                                      NNNN00 N 00                   000000000000                                                                   76487134                                                                                                                                                                                                                                                                                                                                                                                                                                               
06692610603680018DT67590675900000002881800888800000010180088877287283177900014900163062620230000000987617723000000000123165527833XXXXXX1403       MS02WI09          NY 1 0 AMDJZZ9NLN0626  N840000000009876          07DNHAPPY HIPPIE             159055    MD84000000009876 N  549976487134                            000000000+M10101M5434C    MDJ  00402                     000000000  N                0000000000000.00 0000000.00   0000000.00                             000000000000000                                                                                                                                                   B101418  000000000000 0000000000001.19     01050 01500                  
06692620603680001E1675906759000000028818008888000000101000060C801DA 00000000000.00404040404040404040404040404040404040404040404040400110A04001220000000000000000000000FF00000000000000000000000000  00010840198000000080012306264DAFC662C2B6DF3DD95C25CC404040400840A0000000041010000000000000000000FBA2AF38D595B7D100120000000000004040401E40404040 000000098.76 000000000.001E03000000000000000000    80                                                                                                                                                                                                                                                                                                                  
06692630603680002G2675906759000000028818008888000000101SEVIERVILLE              TN           5 J                                                        NNNN              000000000000000000000000       03               7                                          76487134                                                                                                                                                                                                                                                                                                                                                                                                                                               
06692640603680019DT67590675900000002881800888800000010180088824001193177900014900179062620230000000208317723000000000123165425131XXXXXX1975       VS11    0001111   NYV1 A E383177744820370N840000000002083FKL400    07DNHAPPY HIPPIE             026041    VD84000000002083 N  549976487134                            000000000+                F DF 10433                     000000000  Y000000000 338   0000000000000.00 0000000.00   0000000.00                             000000000000000                                                                                                                                                     01418 A000000000000 0000000000000.23     00050 02200                  
06692650603680001E167590675900000002881800888800000010100E068C80206 00000000000.004040404040404040404040404040404040404040404040404006011203A00000000000000000000000404040404040404040404040404040  00010840000000000000002306265E3868958A4DCACC82DA4597404040400840A0000000031010000000000000000000404040404040404040404040404040404040404040404040 000000020.83 000000000.004040400000000000000000    80                                                                                                                                                                                                                                                                                                                  
06692660603680002G2675906759000000028818008888000000101SEVIERVILLE              TN           5 D                00                                      NNNN00 N 00                   000000000000                                                                   76487134                                                                                                                                                                                                                                                                                                                                                                                                                                               
06692670603680020DT67590675900000002881800888800000010180088877287283177900014900189062620230000001777417723000000000123165528072XXXXXX5032       MS02WI09          NY 1 0 AMCWZBAXXP0626  N840000000017774          05DNHAPPY HIPPIE             07691Z    MC84000000017774 N  549976487134                            000000000+M10101C5434C    MCW  00646                     000000000  N                0000000000000.00 0000000.00   0000000.00                             000000000000000                                                                                                                                                   B101418  000000000000 0000000000003.42     01900 00400                  
06692680603680001E167590675900000002881800888800000010100E0F8C8003F 00000000000.00404040404040404040404040404040404040404040404040400110A00001220000000000000000000000FF00000000000000000000000000  0002084018008000008000230626B19631B3039D134DCE26E13C404040400840A00000000410100000000000000000001CC0E60014C99CAD00120000000000004040401E40404040 000000177.74 000000000.001E03000000000000000000    80                                                                                                                                                                                                                                                                                                                  
06692690603680002G2675906759000000028818008888000000101SEVIERVILLE              TN           5 W                                                        NNNN              000000000000000000000000                        7                                          76487134                                                                                                                                                                                                                                                                                                                                                                                                                                               
06692700603680021BH6759067590000000288180088880000090170626202317723000000000051171    0000090001570015N8008886759C06272023157                                                                                                                                                                                                                                                                                                                                                                                                                                                                                                                                                                                              
06692710603680022DT67590675900000002881800888800000010180088877287283177900015700018062620230000000118617723000000000051171514377XXXXXX7120       MS02WI09          NY 1 0 AMDJPSKAHG0626  N840000000001186          07DNHAPPY HIPPIE             1980CV    MD84000000001186 N  549976487158                            000000000+M10101M0034C    MDJ  00505                     000000000  N                0000000000000.00 0000000.00   0000000.00                             000000000000000                                                                                                                                                   B101418  000000000000 0000000000000.22     01550 00400                  
06692720603680001E1675906759000000028818008888000000101000008480101 00000000000.00404040404040404040404040404040404040404040404040400110A04001220000000000000000000000FF00000000000000000000000000  0001084019800000008001230626C4C909B15734763864335948404040400840A0000000041010000000000000000000404040404040404040404040404040404040401F40404040 000000011.86 000000000.001F03020000000000000000    80                                                                                                                                                                                                                                                                                                                  
06692730603680002G2675906759000000028818008888000000101SEVIERVILLE              TN           5 J                                                        NNNN              000000000000000000000000       03               7                                          76487158                                                                                                                                                                                                                                                                                                                                                                                                                                               
06692740603680023DT67590675900000002881800888800000010180088877287283177900015700026062620230000000339817723000000000051171544579XXXXXX5687       MS02WI09          NY 1 0 AMDJQTNES90626  N840000000003398          07DNHAPPY HIPPIE             002484    MD84000000003398 N  549976487158                            000000000+M10101M0034C    MDJ  10815                     000000000  1                0000000000000.00 0000000.00   0000000.00                             000000000000000                                                                                                                                                   B101418  000000000000 0000000000000.24     00050 02200                  
06692750603680001E1675906759000000028818008888000000101000008480264 00000000000.00404040404040404040404040404040404040404040404040400110A04001220000000000000000000000FF00000000000000000000000000  0000084019800000008001230626B776C57DC0F3AD9FCA582731404040400840A0000000041010000000000000000000E099EC1781FD909C03120000000000004040401F40404040 000000033.98 000000000.001F03020000000000000000    80                                                                                                                                                                                                                                                                                                                  
06692760603680002G2675906759000000028818008888000000101SEVIERVILLE              TN           5 J                                                        NNNN              000000000000000000000000       03               7                                          76487158                                                                                                                                                                                                                                                                                                                                                                                                                                               
06692770603680024DT67590675900000002881800888800000010180088877287283177900015700034062620230000000175417723000000000051171544579XXXXXX2279       MS02WI09          NY 1 0 AMDJPT83HG0626  N840000000001754          07DNHAPPY HIPPIE             334527    MD84000000001754 N  549976487158                            000000000+M10101M0034C    MDJ  10815                     000000000  1                0000000000000.00 0000000.00   0000000.00                             000000000000000                                                                                                                                                   B101418  000000000000 0000000000000.23     00050 02200                  
06692780603680001E1675906759000000028818008888000000101000008480213 00000000000.00404040404040404040404040404040404040404040404040400110A04001220000000000000000000000FF00000000000000000000000000  00000840198000000080012306260EDE1D92DDDE70027321EEF7404040400840A0000000041010000000000000000000E2DED04F03C4E66D03120000000000004040401F40404040 000000017.54 000000000.001F03020000000000000000    80                                                                                                                                                                                                                                                                                                                  
06692790603680002G2675906759000000028818008888000000101SEVIERVILLE              TN           5 J                                                        NNNN              000000000000000000000000       03               7                                          76487158                                                                                                                                                                                                                                                                                                                                                                                                                                               
06692800603680025DT67590675900000002881800888800000010180088824001193177900015700040062620230000000926517723000000000051171419090XXXXXX6216       VS11    0001111   NYV1 A E583177591536930N840000000009265WTBH00    05DNHAPPY HIPPIE             356317    VD84000000009265 N  549976487158                            000000000+                F DF 00381                     000000000  N000000000       0000000000000.00 0000000.00   0000000.00                             000000000000000                                                                                                                                                     01418 A000000000000 0000000000000.89     00800 01500                  
06692810603680001E167590675900000002881800888800000010100E0F8C8008D 00000000000.004040404040404040404040404040404040404040404040404006011203A0A000000000000000000000404040404040404040404040404040  0001084018008080008000230626C933D10CC736F8980B74E0BF404040400840A00000000310100000000000000000002E496C340080000000000000000000004040401E40404040 000000092.65 000000000.001E00000000000000000000    80                                                                                                                                                                                                                                                                                                                  
06692820603680002G2675906759000000028818008888000000101SEVIERVILLE              TN           5 D                00                                      NNNN00 N 00                   000000000000                                                                   76487158                                                                                                                                                                                                                                                                                                                                                                                                                                               
06692830603680026DT67590675900000002881800888800000010180088824001193177900015700057062620230000000187617723000000000051171443238XXXXXX0152       VS11    0001111   NYV1 A E583177610664011N840000000001876X5R500    07DNHAPPY HIPPIE             025747    VD84000000001876 N  549976487158                            000000000+                F DF 00381                     000000000  N000000000       0000000000000.00 0000000.00   0000000.00                             000000000000000                                                                                                                                                     01418 A000000000000 0000000000000.30     00800 01500                  
06692840603680001E167590675900000002881800888800000010100E068C801DC 00000000000.004040404040404040404040404040404040404040404040404006011203A00000000000000000000000404040404040404040404040404040  0000084020000000000000230626888E1D9C47544F80A4C56613404040400840A0000000031010000000000000000000404040404040404040404040404040404040404040404040 000000018.76 000000000.004040400000000000000000    80                                                                                                                                                                                                                                                                                                                  
06692850603680002G2675906759000000028818008888000000101SEVIERVILLE              TN           5 D                00                                      NNNN00 N 00                   000000000000                                                                   76487158                                                                                                                                                                                                                                                                                                                                                                                                                                               
06692860603680027DT67590675900000002881800888800000010180088824001193177900015700065062620230000000877917723000000000051171415417XXXXXX8959       VS11    0001111   NYV1 A E583177671585971N840000000008779M27C00    05DNHAPPY HIPPIE             07579G    VB84000000008779 N  549976487158                            000000000+                G CG 00693                     000000000  N000000000 232   0000000000000.00 0000000.00   0000000.00                             000000000000000                                                                                                                                                     01418 A000000000000 0000000000001.77     01900 01000                  
06692870603680001E167590675900000002881800888800000010100E0F8C8000B 00000000000.004040404040404040404040404040404040404040404040404006011203A0A006000000000000000000404040404040404040404040404040  00020840380000800080002306266D5E0A17F88F5D6997150707404040400840A0000000031010000000000000000000D2095A0C0082000000000000000000004040401E40404040 000000087.79 000000000.001E00000000000000000000    80                                                                                                                                                                                                                                                                                                                  
06692880603680002G2675906759000000028818008888000000101SEVIERVILLE              TN           5 C                00                                      NNNN00 Y 00                   000000000000                                                                   76487158                                                                                                                                                                                                                                                                                                                                                                                                                                               
06692890603680028DT67590675900000002881800888800000010180088824001193177900015700073062620230000000227817723000000000051171435547XXXXXX0415       VS11    0001111   NYV1 A E463177692577580N840000000002278DP8F00    07DNHAPPY HIPPIE             137092    VD84000000002278 N  549976487158                            000000000+                F DF 10433                     000000000  Y000000000 338   0000000000000.00 0000000.00   0000000.00                             000000000000000                                                                                                                                                     01418 A000000000000 0000000000000.23     00050 02200                  
