00004840224870002BH6759067590000002325980011680000090170410202310023000000000101323    0000090001090776Y8001166759C04112023                                                                                                                                                                                                                                                                                                                                                                                                                                                                                                                                                                                                 
00004850224870003DT67590675900000023259800116800000010180011624001193100900010907592040920230000002178910023000000000101323426444XXXXXX0390               2111111   NYV4 A7W383100004243645N840000000021789J27200    01DNGFORCEHEMP844-258-9322   190704    VD84000000021789 NP1549977768166   19B91E1A8CT0CAB00F3F376  000000000+                F DF 00415                     000000000  N000000000       0000000000000.00 0000000.00   0000000.00                             000000000000000                                                                                                                                                     01424 G000000021789 0000000000003.75     01650 01500                  
00004860224870001P16759067590000002325980011680000001010000000000000000                             2000000000000000000000000              000000000000                    0000000000000000000000000                    000000000000                                                                                                                                                                                                                                                                                                                                                                                                                                                                                        
00004870224870004DT67590675900000023259800116800000010680011674001193100900010907621040920230000002396910023000000000101323440066XXXXXX5267               0000000   NYV4 07T463100036116941N840000000023969KZKC00    01CNGFORCEHEMP844-258-9322   07066D    VS84000000023969 NP1549977768166   C1DFCA1A36T31AA50BB8279  000000000+                D CD 00245                     000000000  N000000000 166   0000000000000.00 0000000.00   0000000.00                             000000000000000                                                                                                                                                     01424  000000023969-0000000000004.22     01760 00000                  
00004880224870001P16759067590000002325980011680000001060000000000000000                             2000000000000000000000000              000000000000                    0000000000000000000000000                    000000000000                                                                                                                                                                                                                                                                                                                                                                                                                                                                                        
00004890224870005DT67590675900000023259800116800000010180011624001193100900010907691041020230000002178910023000000000101323473651XXXXXX4432               2111111   NYV4 A7W583100594459596N840000000021789DJ3S00    01DNGFORCEHEMP844-258-9322   005610    VS84000000021789 NP1549977768166   208D5CBC28TD2F1BD809133  000000000+                B CB 12107                     000000000  N000000000 494   0000000000000.00 0000000.00   0000000.00                             000000000000000                                                                                                                                                     01424 G000000021789 0000000000004.54     02040 01000                  
00004900224870001P16759067590000002325980011680000001010000000000000000                             2000000000000000000000000              000000000000                    0000000000000000000000000                    000000000000                                                                                                                                                                                                                                                                                                                                                                                                                                                                                        
00004910224870006DT67590675900000023259800116800000010180011624001193100900010907709041020230000000544910023000000000101323473651XXXXXX4432               2111111   NYV4 A7W463100594675891N840000000005449QNFZ00    01DNGFORCEHEMP844-258-9322   005649    VS84000000005449 NP1549977768166   208D5CBC28T4F3A02255B0B  000000000+                B CB 12107                     000000000  N000000000 494   0000000000000.00 0000000.00   0000000.00                             000000000000000                                                                                                                                                     01424 G000000005449 0000000000001.21     02040 01000                  
00004920224870001P16759067590000002325980011680000001010000000000000000                             2000000000000000000000000              000000000000                    0000000000000000000000000                    000000000000                                                                                                                                                                                                                                                                                                                                                                                                                                                                                        
00004930224870007DT67590675900000023259800116800000010180011687287283100900010907718041020230000002178910023000000000101323545958XXXXXX7719       ME03KE06MS02      NY 4607AMDJF2U7FX0410  N840000000021789          81DNGFORCEHEMP844-258-9322   021816    MD84000000021789 N  549977768166   053C92F3AET799361B63E58  000000000+600450S00130    MDJ  10813                     000000000  1                0000000000000.00 0000000.00   0000000.00                             000000000000000                                                                                                                                                   U001424  000000000000 0000000000000.33     00050 02200                  
00004940224870008DT67590675900000023259800116800000010180011687287283100900010907726041020230000000544910023000000000101323545958XXXXXX7719       ME03KE06MS02      NY 4607AMDJO2LBNQ0410  N840000000005449          81DNGFORCEHEMP844-258-9322   021833    MD84000000005449 N  549977768166   053C92F3AETD0B96C0C98D1  000000000+600450S00130    MDJ  10813                     000000000  1                0000000000000.00 0000000.00   0000000.00                             000000000000000                                                                                                                                                   U001424  000000000000 0000000000000.25     00050 02200                  
00004950224870009DT67590675900000023259800116800000010180011624001193100900010907733041020230000002178910023000000000101323445256XXXXXX4549               2111111   NYV4 A7W383100649474385N840000000021789FVRP00    01DNGFORCEHEMP844-258-9322   368668    VD84000000021789 NP1549977768166   18C2D8596ET1517FB61F6C4  000000000+                F DF 00415                     000000000  N000000000       0000000000000.00 0000000.00   0000000.00                             000000000000000                                                                                                                                                     01424 G000000021789 0000000000003.75     01650 01500                  
00004960224870001P16759067590000002325980011680000001010000000000000000                             2000000000000000000000000              000000000000                    0000000000000000000000000                    000000000000                                                                                                                                                                                                                                                                                                                                                                                                                                                                                        
00004970224870010DT67590675900000023259800116800000010180011624001193100900010907741041020230000000544910023000000000101323445256XXXXXX4549               2111111   NYV4 A7W303100650185166N8400000000054493GJL00    01DNGFORCEHEMP844-258-9322   369127    VD84000000005449 NP1549977768166   18C2D8596ETE44781F70C1D  000000000+                F DF 00415                     000000000  N000000000       0000000000000.00 0000000.00   0000000.00                             000000000000000                                                                                                                                                     01424 G000000005449 0000000000001.05     01650 01500                  
00004980224870001P16759067590000002325980011680000001010000000000000000                             2000000000000000000000000              000000000000                    0000000000000000000000000                    000000000000                                                                                                                                                                                                                                                                                                                                                                                                                                                                                        
00004990224870011DT67590675900000023259800116800000010180011687287283100900010907767041020230000002178910023000000000101323546316XXXXXX4329       ME03KE06MS02      NY 4607AMPLTFOKF20410  N840000000021789          81DNGFORCEHEMP844-258-9322   010014    MC84000000021789 N  549977768166   EF29D201A1TB75B2902878A  000000000+600450S00130    MPL  00013                     000000000  N                0000000000000.00 0000000.00   0000000.00                             000000000000000                                                                                                                                                   U001424  000000000000 0000000000004.35     01950 01000                  
00005000224870012BH6759067590000002391180012080000090170410202310023000000000254492    0000090001020038Y8001206759C04112023                                                                                                                                                                                                                                                                                                                                                                                                                                                                                                                                                                                                 
00005010224870013DT67590675900000023911800120800000010180012087287283100900010200064041020230000001307910023000000000254492545510XXXXXX1534       ME03KE06MS02      NY 4607AMDSFJBTFX0410  N840000000013079          81DNVITA FUEL LLC            083348    MD84000000013079 N  599977875615   AE49399A1BT4DCFDDA7263D  000000000+600450S00130    MDS  10813                     000000000  1                0000000000000.00 0000000.00   0000000.00                             000000000000000                                                                                                                                                   U001424  000000000000 0000000000000.29     00050 02200                  
00005020224870014DT67590675900000023911800120800000010180012024001193100900010200097041020230000000544710023000000000254492425416XXXXXX3286               2111111   NYV4 A7W383100622231448N840000000005447DNGC00    01DNVITA FUEL LLC            205801    VD84000000005447 NP1599977875615   0A16BE443BTECE840A43F5F  000000000+                F DF 00415                     000000000  N000000000       0000000000000.00 0000000.00   0000000.00                             000000000000000                                                                                                                                                     01424 G000000005447 0000000000001.05     01650 01500                  
00005030224870001P16759067590000002391180012080000001010000000000000000                             2000000000000000000000000              000000000000                    0000000000000000000000000                    000000000000                                                                                                                                                                                                                                                                                                                                                                                                                                                                                        
00005040224870015DT67590675900000023911800120800000010180012024001193100900010200105041020230000000435910023000000000254492425416XXXXXX3286               2111111   NYV4 A7W463100623167353N84000000000435976R200    01DNVITA FUEL LLC            205934    VD84000000004359 NP1599977875615   0A16BE443BT8629E0EB140B  000000000+                F DF 00415                     000000000  N000000000       0000000000000.00 0000000.00   0000000.00                             000000000000000                                                                                                                                                     01424 G000000004359 0000000000000.87     01650 01500                  
00005050224870001P16759067590000002391180012080000001010000000000000000                             2000000000000000000000000              000000000000                    0000000000000000000000000                    000000000000                                                                                                                                                                                                                                                                                                                                                                                                                                                                                        
00005060224870016DT67590675900000023911800120800000010180012024001193100900010200113041020230000000163410023000000000254492425416XXXXXX3286               2111111   NYV4 A7W383100623918673N840000000001634KR5L00    01DNVITA FUEL LLC            206037    VD84000000001634 NP1599977875615   0A16BE443BT1E8FAF808EFD  000000000+                F DF 00415                     000000000  N000000000       0000000000000.00 0000000.00   0000000.00                             000000000000000                                                                                                                                                     01424 G000000001634 0000000000000.42     01650 01500                  
00005070224870001P16759067590000002391180012080000001010000000000000000                             2000000000000000000000000              000000000000                    0000000000000000000000000                    000000000000                                                                                                                                                                                                                                                                                                                                                                                                                                                                                        
00005080224870017DT67590675900000023911800120800000010180012087287283100900010200130041020230000001307910023000000000254492546616XXXXXX6154       ME03KE06MS02      NY 4607AMWEGGP8FX0410  N840000000013079          81DNVITA FUEL LLC            27169P    MC84000000013079 N  599977875615   BC378CF435T99630B9B2A77  000000000+600450S00130    MWE  00737                     000000000  N                0000000000000.00 0000000.00   0000000.00                             000000000000000                                                                                                                                                   U001424  000000000000 0000000000003.50     02600 01000                  
00005090224870018DT67590675900000023911800120800000010180012087287283100900010200155041020230000002179910023000000000254492517805XXXXXX4620       ME03KE06MS02      NY 4607AMPLYG4BF20410  N840000000021799          81DNVITA FUEL LLC            08666B    MC84000000021799 N  599977875615   42FCD4C233T87B42335D932  000000000+600450S00130    MPL  00580                     000000000  N                0000000000000.00 0000000.00   0000000.00                             000000000000000                                                                                                                                                   U001424  000000000000 0000000000004.68     02100 01000                  
00005100224870019DT67590675900000023911800120800000010180012087287283100900010200163041020230000000544910023000000000254492517805XXXXXX4620       ME03KE06MS02      NY 4607AMPLQHV8F20410  N840000000005449          81DNVITA FUEL LLC            00988B    MC84000000005449 N  599977875615   42FCD4C233TC5007E7FD35C  000000000+600450S00130    MPL  00580                     000000000  N                0000000000000.00 0000000.00   0000000.00                             000000000000000                                                                                                                                                   U001424  000000000000 0000000000001.24     02100 01000                  
00005110224870020DT67590675900000023911800120800000010180012024001193100900010200170041020230000002179910023000000000254492427082XXXXXX0181               2111111   NYV4 A7W383100644519913N84000000002179993K200    01DNVITA FUEL LLC            010413    VS84000000021799 NP1599977875615   5E6D74961BTDA05E58990AA  000000000+                A CA 12106                     000000000  N000000000 492   0000000000000.00 0000000.00   0000000.00                             000000000000000                                                                                                                                                     01424 G000000021799 0000000000004.22     01890 01000                  
00005120224870001P16759067590000002391180012080000001010000000000000000                             2000000000000000000000000              000000000000                    0000000000000000000000000                    000000000000                                                                                                                                                                                                                                                                                                                                                                                                                                                                                        
00005130224870021DT67590675900000023911800120800000010180012024001193100900010200188041020230000000544910023000000000254492427082XXXXXX0181               2111111   NYV4 A7W463100644691832N8400000000054499QFS00    01DNVITA FUEL LLC            010504    VS84000000005449 NP1599977875615   5E6D74961BTDD7AE5F00EE1  000000000+                A CA 12106                     000000000  N000000000 492   0000000000000.00 0000000.00   0000000.00                             000000000000000                                                                                                                                                     01424 G000000005449 0000000000001.13     01890 01000                  
00005140224870001P16759067590000002391180012080000001010000000000000000                             2000000000000000000000000              000000000000                    0000000000000000000000000                    000000000000                                                                                                                                                                                                                                                                                                                                                                                                                                                                                        
00005150224870022DT67590675900000023911800120800000010180012024001193100900010200204041020230000001307910023000000000254492467068XXXXXX3541               2111111   NYV4 A7W583100655689303N840000000013079NBP300    01DNVITA FUEL LLC            827535    VD84000000013079 NP1599977875615   B2898C74C5T6EA674DF99D8  000000000+                F DF 00415                     000000000  N000000000       0000000000000.00 0000000.00   0000000.00                             000000000000000                                                                                                                                                     01424 G000000013079 0000000000002.31     01650 01500                  
00005160224870001P16759067590000002391180012080000001010000000000000000                             2000000000000000000000000              000000000000                    0000000000000000000000000                    000000000000                                                                                                                                                                                                                                                                                                                                                                                                                                                                                        
00005170224870023DT67590675900000023911800120800000010180012024001193100900010200212041020230000000544910023000000000254492467068XXXXXX3541               2111111   NYV4 A7W463100656081931N840000000005449F3DF00    01DNVITA FUEL LLC            827586    VD84000000005449 NP1599977875615   B2898C74C5TD9CD1AB740FF  000000000+                F DF 00415                     000000000  N000000000       0000000000000.00 0000000.00   0000000.00                             000000000000000                                                                                                                                                     01424 G000000005449 0000000000001.05     01650 01500                  
00005180224870001P16759067590000002391180012080000001010000000000000000                             2000000000000000000000000              000000000000                    0000000000000000000000000                    000000000000                                                                                                                                                                                                                                                                                                                                                                                                                                                                                        
00005190224870024DT67590675900000023911800120800000010180012024001193100900010200220041020230000002179910023000000000254492434256XXXXXX3050               2111111   NYV4 A7W583100664384520N840000000021799XTCL00    01DNVITA FUEL LLC            078875    VD84000000021799 NP1599977875615   A8BA298595TDFFC60B4B173  000000000+                F DF 10420                     000000000  Y000000000 338   0000000000000.00 0000000.00   0000000.00                             000000000000000                                                                                                                                                     01424 G000000021799 0000000000000.33     00050 02200                  
00005200224870001P16759067590000002391180012080000001010000000000000000                             2000000000000000000000000              000000000000                    0000000000000000000000000                    000000000000                                                                                                                                                                                                                                                                                                                                                                                                                                                                                        
00005210224870025DT67590675900000023911800120800000010180012024001193100900010200238041020230000000544910023000000000254492434256XXXXXX3050               2111111   NYV4 A7W463100664688341N840000000005449CF9L00    01DNVITA FUEL LLC            053366    VD84000000005449 NP1599977875615   A8BA298595T0D0DE50E2E26  000000000+                F DF 10420                     000000000  Y000000000 338   0000000000000.00 0000000.00   0000000.00                             000000000000000                                                                                                                                                     01424 G000000005449 0000000000000.25     00050 02200                  
00005220224870001P16759067590000002391180012080000001010000000000000000                             2000000000000000000000000              000000000000                    0000000000000000000000000                    000000000000                                                                                                                                                                                                                                                                                                                                                                                                                                                                                        
00005230224870026DT67590675900000023911800120800000010180012087287283100900010200254041020230000001743910023000000000254492549113XXXXXX3846       ME03KE06MS02      NY 4607AMCCPDG2FX0410  N840000000017439          81DNVITA FUEL LLC            96639B    MC84000000017439 N  599977875615   80F3124983TDADF8036EA42  000000000+600450S00130    MCC  00580                     000000000  N                0000000000000.00 0000000.00   0000000.00                             000000000000000                                                                                                                                                   U001424  000000000000 0000000000003.76     02100 01000                  
00005240224870027DT67590675900000023911800120800000010180012024001193100900010200261041020230000001743910023000000000254492421156XXXXXX1405               2111111   NYV4 A7W463100683078166N840000000017439FRRR00    01DNVITA FUEL LLC            04835A    VS84000000017439 NP1599977875615   F4C1722C32T250905BECCE3  000000000+                A CA 12106                     000000000  N000000000 492   0000000000000.00 0000000.00   0000000.00                             000000000000000                                                                                                                                                     01424 G000000017439 0000000000003.40     01890 01000                  
00005250224870001P16759067590000002391180012080000001010000000000000000                             2000000000000000000000000              000000000000                    0000000000000000000000000                    000000000000                                                                                                                                                                                                                                                                                                                                                                                                                                                                                        
00005260224870028DT67590675900000023911800120800000010180012087287283100900010200288041020230000002179910023000000000254492524300XXXXXX0540       ME03KE06MS02      NY 4607AMPLRUVHNQ0410  N840000000021799          81DNVITA FUEL LLC            01027Z    MC84000000021799 N  599977875615   D79E49F03ETE084B02B5E6D  000000000+600450S00130    MPL  00013                     000000000  N                0000000000000.00 0000000.00   0000000.00                             000000000000000                                                                                                                                                   U001424  000000000000 0000000000004.35     01950 01000                  
00005270224870029DT67590675900000023911800120800000010180012087287283100900010200296041020230000000544910023000000000254492524300XXXXXX0540       ME03KE06MS02      NY 4607AMPLPVNJFX0410  N840000000005449          81DNVITA FUEL LLC            01000Z    MC84000000005449 N  599977875615   D79E49F03ETF0C8621A3DE0  000000000+600450S00130    MPL  00013                     000000000  N                0000000000000.00 0000000.00   0000000.00                             000000000000000                                                                                                                                                   U001424  000000000000 0000000000001.16     01950 01000                  
00005280224870030DT67590675900000023911800120800000010180012024001193100900010200345041020230000002179910023000000000254492449465XXXXXX8210               2111111   NYV4 A7W303100702389549N840000000021799GD7C00    01DNVITA FUEL LLC            509024    VD84000000021799 NP1599977875615   C392A17D55TFC588B9470E3  000000000+                F DF 10420                     000000000  Y000000000 338   0000000000000.00 0000000.00   0000000.00                             000000000000000                                                                                                                                                     01424 G000000021799 0000000000000.33     00050 02200                  
00005290224870001P16759067590000002391180012080000001010000000000000000                             2000000000000000000000000              000000000000                    0000000000000000000000000                    000000000000                                                                                                                                                                                                                                                                                                                                                                                                                                                                                        
00005300224870031DT67590675900000023911800120800000010180012024001193100900010200352041020230000000544910023000000000254492449465XXXXXX8210               2111111   NYV4 A7W303100703288018N8400000000054495V5X00    01DNVITA FUEL LLC            706696    VD84000000005449 NP1599977875615   C392A17D55TB374D9081EAA  000000000+                F DF 10420                     000000000  Y000000000 338   0000000000000.00 0000000.00   0000000.00                             000000000000000                                                                                                                                                     01424 G000000005449 0000000000000.25     00050 02200                  
00005310224870001P16759067590000002391180012080000001010000000000000000                             2000000000000000000000000              000000000000                    0000000000000000000000000                    000000000000                                                                                                                                                                                                                                                                                                                                                                                                                                                                                        
00005320224870032DT67590675900000023911800120800000010180012087287283100900010200379041020230000002179910023000000000254492517805XXXXXX3274       ME03KE06MS02      NY 4607AMPLDUY9NY0410  N840000000021799          81DNVITA FUEL LLC            09028B    MC84000000021799 N  599977875615   7F9CE91750TFA5B48307CF6  000000000+600450S00130    MPL  00580                     000000000  N                0000000000000.00 0000000.00   0000000.00                             000000000000000                                                                                                                                                   U001424  000000000000 0000000000004.68     02100 01000                  
00005330224870033DT67590675900000023911800120800000010180012087287283100900010200387041020230000000544910023000000000254492517805XXXXXX3274       ME03KE06MS02      NY 4607AMPLBUVDF30410  N840000000005449          81DNVITA FUEL LLC            09523B    MC84000000005449 N  599977875615   7F9CE91750T4BAE5C77037F  000000000+600450S00130    MPL  00580                     000000000  N                0000000000000.00 0000000.00   0000000.00                             000000000000000                                                                                                                                                   U001424  000000000000 0000000000001.24     02100 01000                  
00005340224870034BH6759067590000001516480088880000090170410202310023000000002275491    0000090001426961Y8008886759C04112023                                                                                                                                                                                                                                                                                                                                                                                                                                                                                                                                                                                                 
00005350224870035DT67590675900000015164800888800000010180088824001193100900014257820040920230000001394810023000000002275491441840XXXXXX6923               2111111   NYV4 A7W583096762052354N840000000013948V9QT00    01DNKETOFUSION833-923-3587   385174    VS84000000013948 NP1599977360677   224E810736T0CAFE9FE7CE5  000000000+                C CC 12108                     000000000  N000000000 496   0000000000000.00 0000000.00   0000000.00                             000000000000000                                                                                                                                                     01424 G000000013948 0000000000002.96     02050 01000                  
00005360224870001P16759067590000001516480088880000001010000000000000000                             2000000000000000000000000              000000000000                    0000000000000000000000000                    000000000000                                                                                                                                                                                                                                                                                                                                                                                                                                                                                        
00005370224870036DT67590675900000015164800888800000010180088824001193100900014264701040920230000001987010023000000002275491426248XXXXXX8443               2111111   NYV4 A7W463100000663669N8400000000198709QZ400    01DNKETOFUSION833-923-3587   009404    VS84000000019870 NP1599977360677   94CF604D21T2CA6CD615CBF  000000000+                C CC 12108                     000000000  N000000000 496   0000000000000.00 0000000.00   0000000.00                             000000000000000                                                                                                                                                     01424 G000000019870 0000000000004.17     02050 01000                  
00005380224870001P16759067590000001516480088880000001010000000000000000                             2000000000000000000000000              000000000000                    0000000000000000000000000                    000000000000                                                                                                                                                                                                                                                                                                                                                                                                                                                                                        
00005390224870037DT67590675900000015164800888800000010180088824001193100900014264719040920230000000259510023000000002275491426248XXXXXX8443               2111111   NYV4 A7W583100000869295N840000000002595B2FC00    01DNKETOFUSION833-923-3587   009666    VS84000000002595 NP1599977360677   94CF604D21T275C7DDABEE6  000000000+                C CC 12108                     000000000  N000000000 496   0000000000000.00 0000000.00   0000000.00                             000000000000000                                                                                                                                                     01424 G000000002595 0000000000000.63     02050 01000                  
00005400224870001P16759067590000001516480088880000001010000000000000000                             2000000000000000000000000              000000000000                    0000000000000000000000000                    000000000000                                                                                                                                                                                                                                                                                                                                                                                                                                                                                        
00005410224870038DT67590675900000015164800888800000010180088887287283100900014264736040920230000001987010023000000002275491512107XXXXXX4679       ME03KE06PT01      NY 4607AMCWT9JQVA0409  N840000000019870          81DNKETOFUSION833-923-3587   00989P    MC84000000019870 N  599977360677   89A9D0C8B0TDE6BF751FC7B  000000000+600450S00130    MCW  00642                     000000000  N                0000000000000.00 0000000.00   0000000.00                             000000000000000                                                                                                                                                   U001424  000000000000 0000000000004.47     02200 01000                  
00005420224870039DT67590675900000015164800888800000010180088824001193100900014264743040920230000001194810023000000002275491426690XXXXXX8757               2111111   NYV4 A7W303100007833512N840000000011948DRRD00    01DNKETOFUSION833-923-3587   09102C    VS84000000011948 NP1599977360677   198E926627T0CD46B0280C5  000000000+                C CC 12108                     000000000  N000000000 496   0000000000000.00 0000000.00   0000000.00                             000000000000000                                                                                                                                                     01424 G000000011948 0000000000002.55     02050 01000                  
00005430224870001P16759067590000001516480088880000001010000000000000000                             2000000000000000000000000              000000000000                    0000000000000000000000000                    000000000000                                                                                                                                                                                                                                                                                                                                                                                                                                                                                        
00005440224870040DT67590675900000015164800888800000010180088824001193100900014264750040920230000001987010023000000002275491483316XXXXXX8010               2111111   NYV4 A7W583100009041951N840000000019870RHNQ00    01DNKETOFUSION833-923-3587   041520    VD84000000019870 NP1599977360677   9841F7D012TCAAB38CEB4D7  000000000+                F DF 10420                     000000000  Y000000000 338   0000000000000.00 0000000.00   0000000.00                             000000000000000                                                                                                                                                     01424 G000000019870 0000000000000.32     00050 02200                  
00005450224870001P16759067590000001516480088880000001010000000000000000                             2000000000000000000000000              000000000000                    0000000000000000000000000                    000000000000                                                                                                                                                                                                                                                                                                                                                                                                                                                                                        
00005460224870041DT67590675900000015164800888800000010180088887287283100900014264777040920230000000327410023000000002275491521853XXXXXX0956       ME03KE06PT01      NY 4607AMCWKRKX1H0409  N840000000003274          81DNKETOFUSION833-923-3587   00984T    MC84000000003274 N  599977360677   5B23CBE094T7638F3F57B61  000000000+600450S00130    MCW  02182                     000000000  N                0000000000000.00 0000000.00   0000000.00                             000000000000000                                                                                                                                                   U001424  000000000000 0000000000000.95     02600 01000                  
00005470224870042DT67590675900000015164800888800000010180088824001193100900014264792040920230000001799110023000000002275491474478XXXXXX8518               2111111   NYV4 A7W583100013671000N8400000000179916M9300    01DNKETOFUSION833-923-3587   132329    VD84000000017991 NP1599977360677   7F446ED7DFT502EA76FAD01  000000000+                F DF 10420                     000000000  Y000000000 338   0000000000000.00 0000000.00   0000000.00                             000000000000000                                                                                                                                                     01424 G000000017991 0000000000000.31     00050 02200                  
00005480224870001P16759067590000001516480088880000001010000000000000000                             2000000000000000000000000              000000000000                    0000000000000000000000000                    000000000000                                                                                                                                                                                                                                                                                                                                                                                                                                                                                        
00005490224870043DT67590675900000015164800888800000010180088824001193100900014264800040920230000000327410023000000002275491474478XXXXXX8518               2111111   NYV4 A7W463100013903758N8400000000032743PZB00    01DNKETOFUSION833-923-3587   152730    VD84000000003274 NP1599977360677   7F446ED7DFT17683ABB1551  000000000+                F DF 10420                     000000000  Y000000000 338   0000000000000.00 0000000.00   0000000.00                             000000000000000                                                                                                                                                     01424 G000000003274 0000000000000.24     00050 02200                  
00005500224870001P16759067590000001516480088880000001010000000000000000                             2000000000000000000000000              000000000000                    0000000000000000000000000                    000000000000                                                                                                                                                                                                                                                                                                                                                                                                                                                                                        
00005510224870044DT67590675900000015164800888800000010180088824001193100900014264818040920230000000259510023000000002275491474478XXXXXX8518               2111111   NYV4 A7W383100014144413N840000000002595CP2V00    01DNKETOFUSION833-923-3587   192333    VD84000000002595 NP1599977360677   7F446ED7DFTB3F776651068  000000000+                F DF 10420                     000000000  Y000000000 338   0000000000000.00 0000000.00   0000000.00                             000000000000000                                                                                                                                                     01424 G000000002595 0000000000000.23     00050 02200                  
00005520224870001P16759067590000001516480088880000001010000000000000000                             2000000000000000000000000              000000000000                    0000000000000000000000000                    000000000000                                                                                                                                                                                                                                                                                                                                                                                                                                                                                        
00005530224870045DT67590675900000015164800888800000010680088887287283100900014264827040920230000000993510023000000002275491552492XXXXXX6665                         NY 4607AMDHCG1I1K0409  N840000000009935          81CNKETOFUSION833-923-3587   009373    MD84000000009935 N  599977360677   D10309CD3FTE5C3B500FDC8  000000000+600450S00130    MDH  10828                     000000000  1                0000000000000.00 0000000.00   0000000.00                             000000000000000                                                                                                                                                     01424  000000000000 0000000000000.00     00000 00000                  
00005540224870046DT67590675900000015164800888800000010180088887287283100900014264835040920230000000327410023000000002275491535674XXXXXX5467                         NY 4607AMDHUHIXVA0409  N840000000003274          81DNKETOFUSION833-923-3587   DL514R    MD84000000003274FN  599977360677   E4569233C4TB4AF680D2D65  000000000+600450S00130    MDH  12228                     0000000201 N                0000000000000.00 0000000.00   0000000.00                             000000000000000                                                                                                                                                     01424  000000000000 0000000000000.65     01980 00000                  
00005550224870047DT67590675900000015164800888800000010180088887287283100900014264843040920230000000259510023000000002275491535674XXXXXX5467                         NY 4607AMDHPXDX1H0409  N840000000002595          81DNKETOFUSION833-923-3587   RX217R    MD84000000002595FN  599977360677   E4569233C4TD0338E043030  000000000+600450S00130    MDH  12228                     0000000161 N                0000000000000.00 0000000.00   0000000.00                             000000000000000                                                                                                                                                     01424  000000000000 0000000000000.51     01980 00000                  
00005560224870048DT67590675900000015164800888800000010180088824001193100900014264875040920230000001987010023000000002275491443041XXXXXX6749               2111111   NYV4 A7W303100020423666N8400000000198705ZSH00    01DNKETOFUSION833-923-3587   809280    VD84000000019870 NP1599977360677   DC41A6268ETE540982BE1EB  000000000+                F DF 10420                     000000000  Y000000000 338   0000000000000.00 0000000.00   0000000.00                             000000000000000                                                                                                                                                     01424 G000000019870 0000000000000.32     00050 02200                  
00005570224870001P16759067590000001516480088880000001010000000000000000                             2000000000000000000000000              000000000000                    0000000000000000000000000                    000000000000                                                                                                                                                                                                                                                                                                                                                                                                                                                                                        
00005580224870049DT67590675900000015164800888800000010180088887287283100900014264918040920230000001194810023000000002275491521991XXXXXX5901       ME03KE06MS02      NY 4607AMDJVMWIPI0409  N840000000011948          81DNKETOFUSION833-923-3587   665426    MD84000000011948 N  599977360677   A0AA2ED599T991DCFE8202C  000000000+600450S00130    MDJ  10813                     000000000  1                0000000000000.00 0000000.00   0000000.00                             000000000000000                                                                                                                                                   U001424  000000000000 0000000000000.28     00050 02200                  
00005590224870050DT67590675900000015164800888800000010180088887287283100900014264926040920230000001987010023000000002275491512106XXXXXX0465       ME03KE06MS02      NY 4607AMPLCOUQ1K0409  N840000000019870          81DNKETOFUSION833-923-3587   00985B    MC84000000019870 N  599977360677   69FC8B3F81TE97AA4D2F02C  000000000+600450S00130    MPL  00580                     000000000  N                0000000000000.00 0000000.00   0000000.00                             000000000000000                                                                                                                                                   U001424  000000000000 0000000000004.27     02100 01000                  
00005600224870051DT67590675900000015164800888800000010180088824001193100900014264933040920230000002255010023000000002275491414740XXXXXX9268               2111111   NYV4 A7W463100037050095N840000000022550PH3C00    01DNKETOFUSION833-923-3587   04378D    VS84000000022550 NP1599977360677   A88C481832T7A0E2A1BB397  000000000+                D CD 12109                     000000000  N000000000 498   0000000000000.00 0000000.00   0000000.00                             000000000000000                                                                                                                                                     01424 G000000022550 0000000000005.74     02500 01000                  
00005610224870001P16759067590000001516480088880000001010000000000000000                             2000000000000000000000000              000000000000                    0000000000000000000000000                    000000000000                                                                                                                                                                                                                                                                                                                                                                                                                                                                                        
00005620224870052DT67590675900000015164800888800000010180088824001193100900014264941040920230000002255010023000000002275491414720XXXXXX0687               2111111   NYV4 A7W383100039041806N840000000022550KQJG00    01DNKETOFUSION833-923-3587   05136D    VS84000000022550 NP1599977360677   56DCA6999ATF481369827F2  000000000+                D CD 12109                     000000000  N000000000 498   0000000000000.00 0000000.00   0000000.00                             000000000000000                                                                                                                                                     01424 G000000022550 0000000000005.74     02500 01000                  
00005630224870001P16759067590000001516480088880000001010000000000000000                             2000000000000000000000000              000000000000                    0000000000000000000000000                    000000000000                                                                                                                                                                                                                                                                                                                                                                                                                                                                                        
00005640224870053DT67590675900000015164800888800000010180088824001193100900014264966040920230000001578510023000000002275491414720XXXXXX0207               2111111   NYV4 A7W303100046630964N840000000015785WB3300    01DNKETOFUSION833-923-3587   02294I    VS84000000015785 NP1599977360677   EB32A6527DT08E610425ABF  000000000+                I CI 12109                     000000000  N000000000 498   0000000000000.00 0000000.00   0000000.00                             000000000000000                                                                                                                                                     01424 G000000015785 0000000000004.05     02500 01000                  
00005650224870001P16759067590000001516480088880000001010000000000000000                             2000000000000000000000000              000000000000                    0000000000000000000000000                    000000000000                                                                                                                                                                                                                                                                                                                                                                                                                                                                                        
00005660224870054DT67590675900000015164800888800000010180088824001193100900014264974040920230000000519010023000000002275491414720XXXXXX0207               2111111   NYV4 A7W383100046912465N8400000000051905JS900    01DNKETOFUSION833-923-3587   04353I    VS84000000005190 NP1599977360677   EB32A6527DTBCA656BF936B  000000000+                I CI 12109                     000000000  N000000000 498   0000000000000.00 0000000.00   0000000.00                             000000000000000                                                                                                                                                     01424 G000000005190 0000000000001.40     02500 01000                  
00005670224870001P16759067590000001516480088880000001010000000000000000                             2000000000000000000000000              000000000000                    0000000000000000000000000                    000000000000                                                                                                                                                                                                                                                                                                                                                                                                                                                                                        
00005680224870055DT67590675900000015164800888800000010180088824001193100900014264990040920230000002755010023000000002275491414740XXXXXX9707               2111111   NYV4 A7W583100057630331N840000000027550XV7T00    01DNKETOFUSION833-923-3587   08117D    VS84000000027550 NP1599977360677   687736B42BT6C664356146E  000000000+                D CD 12109                     000000000  N000000000 498   0000000000000.00 0000000.00   0000000.00                             000000000000000                                                                                                                                                     01424 G000000027550 0000000000006.99     02500 01000                  
00005690224870001P16759067590000001516480088880000001010000000000000000                             2000000000000000000000000              000000000000                    0000000000000000000000000                    000000000000                                                                                                                                                                                                                                                                                                                                                                                                                                                                                        
00005700224870056DT67590675900000015164800888800000010180088887287283100900014265006040920230000001499010023000000002275491514750XXXXXX2921       ME03KE06MS02      NY 4607AMDJBA8U5B0409  N840000000014990          81DNKETOFUSION833-923-3587   791922    MD84000000014990 N  599977360677   F9EBF2E3E6TDE951CA64676  000000000+600450S00130    MDJ  10813                     000000000  1                0000000000000.00 0000000.00   0000000.00                             000000000000000                                                                                                                                                   U001424  000000000000 0000000000000.29     00050 02200                  
00005710224870057DT67590675900000015164800888800000010180088824001193100900014265013040920230000001194810023000000002275491478923XXXXXX4865               2111111   NYV4 A7W383100067938101N840000000011948Z56P00    01DNKETOFUSION833-923-3587   085314    VD84000000011948 NP1599977360677   EF4B174818T3CA5BD2D097C  000000000+                F DF 00415                     000000000  N000000000       0000000000000.00 0000000.00   0000000.00                             000000000000000                                                                                                                                                     01424 G000000011948 0000000000002.12     01650 01500                  
00005720224870001P16759067590000001516480088880000001010000000000000000                             2000000000000000000000000              000000000000                    0000000000000000000000000                    000000000000                                                                                                                                                                                                                                                                                                                                                                                                                                                                                        
00005730224870058DT67590675900000015164800888800000010180088887287283100900014265022040920230000002487010023000000002275491552433XXXXXX6029       ME03KE06PT01      NY 4607AMCWAG69WK0409  N840000000024870          81DNKETOFUSION833-923-3587   03242S    MC84000000024870 N  599977360677   4A063F8EC8T20EDA010FAB7  000000000+600450S00130    MCW  02182                     000000000  N                0000000000000.00 0000000.00   0000000.00                             000000000000000                                                                                                                                                   U001424  000000000000 0000000000006.57     02600 01000                  
00005740224870059DT67590675900000015164800888800000010180088824001193100900014265039040920230000000198810023000000002275491446542XXXXXX2382               2111111   NYV4 A7W383100076971985N840000000001988K79W00    01DNKETOFUSION833-923-3587   009413    VS84000000001988 NP1599977360677   AD72844F75T030A4736D263  000000000+                D CD 12109                     000000000  N000000000 498   0000000000000.00 0000000.00   0000000.00                             000000000000000                                                                                                                                                     01424 G000000001988 0000000000000.60     02500 01000                  
00005750224870001P16759067590000001516480088880000001010000000000000000                             2000000000000000000000000              000000000000                    0000000000000000000000000                    000000000000                                                                                                                                                                                                                                                                                                                                                                                                                                                                                        
00005760224870060DT67590675900000015164800888800000010180088824001193100900014265070040920230000001987010023000000002275491410039XXXXXX4692               2111111   NYV4 A7W583100086967777N840000000019870F4CD00    01DNKETOFUSION833-923-3587   95694D    VS84000000019870 NP1599977360677   4697C505F0T84D12091BA14  000000000+                D CD 12109                     000000000  N000000000 498   0000000000000.00 0000000.00   0000000.00                             000000000000000                                                                                                                                                     01424 G000000019870 0000000000005.07     02500 01000                  
00005770224870001P16759067590000001516480088880000001010000000000000000                             2000000000000000000000000              000000000000                    0000000000000000000000000                    000000000000                                                                                                                                                                                                                                                                                                                                                                                                                                                                                        
00005780224870061DT67590675900000015164800888800000010180088887287283100900014265089040920230000001394810023000000002275491542418XXXXXX1263       ME03KE06MS02      NY 4607AMWEL6UM1H0409  N840000000013948          81DNKETOFUSION833-923-3587   61783P    MC84000000013948 N  599977360677   EDD14E8AC7T1BE6CA73E650  000000000+600450S00130    MWE  00737                     000000000  N                0000000000000.00 0000000.00   0000000.00                             000000000000000                                                                                                                                                   U001424  000000000000 0000000000003.73     02600 01000                  
00005790224870062DT67590675900000015164800888800000010180088824001193100900014265112040920230000001987010023000000002275491414734XXXXXX4843               2111111   NYV4 A7W303100099738682N8400000000198703QGV00    01DNKETOFUSION833-923-3587   03483D    VS84000000019870 NP1599977360677   B6EC520A37T138266FFAB88  000000000+                D CD 12109                     000000000  N000000000 498   0000000000000.00 0000000.00   0000000.00                             000000000000000                                                                                                                                                     01424 G000000019870 0000000000005.07     02500 01000                  
00005800224870001P16759067590000001516480088880000001010000000000000000                             2000000000000000000000000              000000000000                    0000000000000000000000000                    000000000000                                                                                                                                                                                                                                                                                                                                                                                                                                                                                        
00005810224870063DT67590675900000015164800888800000010180088887287283100900014265121040920230000000327410023000000002275491542418XXXXXX7709       ME03KE06MS02      NY 4607AMWEWW9WPI0409  N840000000003274          81DNKETOFUSION833-923-3587   29723P    MC84000000003274 N  599977360677   A30F617DD6TAC46D13354E9  000000000+600450S00130    MWE  00737                     000000000  N                0000000000000.00 0000000.00   0000000.00                             000000000000000                                                                                                                                                   U001424  000000000000 0000000000000.95     02600 01000                  
00005820224870064DT67590675900000015164800888800000010180088824001193100900014265153040920230000001987010023000000002275491410039XXXXXX1568               2111111   NYV4 A7W383100116598502N840000000019870LBHP00    01DNKETOFUSION833-923-3587   60538C    VS84000000019870 NP1599977360677   5E85731A2CTB4118F5B0A46  000000000+                C CC 12108                     000000000  N000000000 496   0000000000000.00 0000000.00   0000000.00                             000000000000000                                                                                                                                                     01424 G000000019870 0000000000004.17     02050 01000                  
00005830224870001P16759067590000001516480088880000001010000000000000000                             2000000000000000000000000              000000000000                    0000000000000000000000000                    000000000000                                                                                                                                                                                                                                                                                                                                                                                                                                                                                        
00005840224870065DT67590675900000015164800888800000010180088824001193100900014265161040920230000001394810023000000002275491421783XXXXXX2167               2111111   NYV4 A7W303100117042739N8400000000139485V7200    01DNKETOFUSION833-923-3587   006119    VS84000000013948 NP1599977360677   F2ACA134DDT2B440771BCF0  000000000+                A CA 12106                     000000000  N000000000 492   0000000000000.00 0000000.00   0000000.00                             000000000000000                                                                                                                                                     01424 G000000013948 0000000000002.74     01890 01000                  
00005850224870001P16759067590000001516480088880000001010000000000000000                             2000000000000000000000000              000000000000                    0000000000000000000000000                    000000000000                                                                                                                                                                                                                                                                                                                                                                                                                                                                                        
00005860224870066DT67590675900000015164800888800000010180088824001193100900014265211040920230000001194810023000000002275491427082XXXXXX9998               2111111   NYV4 A7W463100119607123N840000000011948CRTB00    01DNKETOFUSION833-923-3587   009303    VS84000000011948 NP1599977360677   22EC0843B8T9447CE193176  000000000+                A CA 12106                     000000000  N000000000 492   0000000000000.00 0000000.00   0000000.00                             000000000000000                                                                                                                                                     01424 G000000011948 0000000000002.36     01890 01000                  
00005870224870001P16759067590000001516480088880000001010000000000000000                             2000000000000000000000000              000000000000                    0000000000000000000000000                    000000000000                                                                                                                                                                                                                                                                                                                                                                                                                                                                                        
00005880224870067DT67590675900000015164800888800000010180088887287283100900014265220040920230000000198810023000000002275491519955XXXXXX1877       ME03KE06MS02      NY 4607AMWEW1WUPI0409  N840000000001988          81DNKETOFUSION833-923-3587   00592Z    MC84000000001988 N  599977360677   6BE6811989T7E21C27CDC53  000000000+600450S00130    MWE  00737                     000000000  N                0000000000000.00 0000000.00   0000000.00                             000000000000000                                                                                                                                                   U001424  000000000000 0000000000000.62     02600 01000                  
00005890224870068DT67590675900000015164800888800000010180088887287283100900014265253040920230000002487010023000000002275491552433XXXXXX1888       ME03KE06MS02      NY 4607AMPLW43JPI0409  N840000000024870          81DNKETOFUSION833-923-3587   01332M    MC84000000024870 N  599977360677   5C8BEE75B4TCDDFC2E5AC4C  000000000+600450S00130    MPL  00580                     000000000  N                0000000000000.00 0000000.00   0000000.00                             000000000000000                                                                                                                                                   U001424  000000000000 0000000000005.32     02100 01000                  
00005900224870069DT67590675900000015164800888800000010180088887287283100900014265279040920230000002487010023000000002275491512230XXXXXX8567       ME03KE06MS02      NY 4607AMWEA5GJWK0409  N840000000024870          81DNKETOFUSION833-923-3587   46862Z    MC84000000024870 N  599977360677   BF47BD45E6T19DD84D7327B  000000000+600450S00130    MWE  00737                     000000000  N                0000000000000.00 0000000.00   0000000.00                             000000000000000                                                                                                                                                   U001424  000000000000 0000000000006.57     02600 01000                  
00005910224870070DT67590675900000015164800888800000010180088824001193100900014265286040920230000001394810023000000002275491483316XXXXXX2110               2111111   NYV4 A7W383100144058807N840000000013948PJKR00    01DNKETOFUSION833-923-3587   050000    VD84000000013948 NP1599977360677   3AFCC712A3TBAED4447700C  000000000+                F DF 10420                     000000000  Y000000000 338   0000000000000.00 0000000.00   0000000.00                             000000000000000                                                                                                                                                     01424 G000000013948 0000000000000.29     00050 02200                  
00005920224870001P16759067590000001516480088880000001010000000000000000                             2000000000000000000000000              000000000000                    0000000000000000000000000                    000000000000                                                                                                                                                                                                                                                                                                                                                                                                                                                                                        
00005930224870071DT67590675900000015164800888800000010180088824001193100900014265336040920230000001194810023000000002275491479126XXXXXX6390               2111111   NYV4 A7W303100174005051N840000000011948BF4800    01DNKETOFUSION833-923-3587   117272    VD84000000011948 NP1599977360677   BC0AF7F523TB194F009FC12  000000000+                F DF 00415                     000000000  N000000000       0000000000000.00 0000000.00   0000000.00                             000000000000000                                                                                                                                                     01424 G000000011948 0000000000002.12     01650 01500                  
00005940224870001P16759067590000001516480088880000001010000000000000000                             2000000000000000000000000              000000000000                    0000000000000000000000000                    000000000000                                                                                                                                                                                                                                                                                                                                                                                                                                                                                        
00005950224870072DT67590675900000015164800888800000010180088824001193100900014265435041020230000001194810023000000002275491406255XXXXXX4802               2111111   NYV4 A7W383100222923658N8400000000119485SK600    01DNKETOFUSION833-923-3587   017508    VD84000000011948 NP1599977360677   C1A7941D61T2124E498EA51  000000000+                F DF 00415                     000000000  N000000000       0000000000000.00 0000000.00   0000000.00                             000000000000000                                                                                                                                                     01424 G000000011948 0000000000002.12     01650 01500                  
00005960224870001P16759067590000001516480088880000001010000000000000000                             2000000000000000000000000              000000000000                    0000000000000000000000000                    000000000000                                                                                                                                                                                                                                                                                                                                                                                                                                                                                        
00005970224870073DT67590675900000015164800888800000010180088824001193100900014265443041020230000000198810023000000002275491406255XXXXXX4802               2111111   NYV4 A7W583100223987492N8400000000019886Z4L00    01DNKETOFUSION833-923-3587   017840    VD84000000001988 NP1599977360677   C1A7941D61T53AD46EFE610  000000000+                F DF 00415                     000000000  N000000000       0000000000000.00 0000000.00   0000000.00                             000000000000000                                                                                                                                                     01424 G000000001988 0000000000000.48     01650 01500                  
00005980224870001P16759067590000001516480088880000001010000000000000000                             2000000000000000000000000              000000000000                    0000000000000000000000000                    000000000000                                                                                                                                                                                                                                                                                                                                                                                                                                                                                        
00005990224870074DT67590675900000015164800888800000010180088824001193100900014265476041020230000001987010023000000002275491414734XXXXXX2213               2111111   NYV4 A7W463100257337360N840000000019870CVRD00    01DNKETOFUSION833-923-3587   06838D    VS84000000019870 NP1599977360677   2B8D657A53T3D8FA12D584E  000000000+                D CD 12109                     000000000  N000000000 498   0000000000000.00 0000000.00   0000000.00                             000000000000000                                                                                                                                                     01424 G000000019870 0000000000005.07     02500 01000                  
00006000224870001P16759067590000001516480088880000001010000000000000000                             2000000000000000000000000              000000000000                    0000000000000000000000000                    000000000000                                                                                                                                                                                                                                                                                                                                                                                                                                                                                        
00006010224870075DT67590675900000015164800888800000010180088824001193100900014265484041020230000000327410023000000002275491414734XXXXXX2213               2111111   NYV4 A7W463100257593421N840000000003274PL7800    01DNKETOFUSION833-923-3587   01595D    VS84000000003274 NP1599977360677   2B8D657A53T53B0B15A2D8C  000000000+                D CD 12109                     000000000  N000000000 498   0000000000000.00 0000000.00   0000000.00                             000000000000000                                                                                                                                                     01424 G000000003274 0000000000000.92     02500 01000                  
00006020224870001P16759067590000001516480088880000001010000000000000000                             2000000000000000000000000              000000000000                    0000000000000000000000000                    000000000000                                                                                                                                                                                                                                                                                                                                                                                                                                                                                        
00006030224870076DT67590675900000015164800888800000010180088824001193100900014265492041020230000000259510023000000002275491414734XXXXXX2213               2111111   NYV4 A7W463100257815413N840000000002595Z2P800    01DNKETOFUSION833-923-3587   09514D    VS84000000002595 NP1599977360677   2B8D657A53TEDCDF307BD39  000000000+                D CD 12109                     000000000  N000000000 498   0000000000000.00 0000000.00   0000000.00                             000000000000000                                                                                                                                                     01424 G000000002595 0000000000000.75     02500 01000                  
00006040224870001P16759067590000001516480088880000001010000000000000000                             2000000000000000000000000              000000000000                    0000000000000000000000000                    000000000000                                                                                                                                                                                                                                                                                                                                                                                                                                                                                        
00006050224870077DT67590675900000015164800888800000010180088887287283100900014265550041020230000001499110023000000002275491552841XXXXXX8817                         NY 4607AMCOUGWGW40410  N840000000014991          81DNKETOFUSION833-923-3587   016585    MB84000000014991 NP1599977360677   0CBA74B874TDC74A1D93157  000000000+600450S00130    MCO  00303                     000000000  N                0000000000000.00 0000000.00   0000000.00                             000000000000000                                                                                                                                                   U001424  000000000000 0000000000004.15     02700 01000                  
00006060224870001P1675906759000000151648008888000000101                                                          000000000000          8000            884295529                                                                                                                                                                                                                                                                                                                                                                                                                                                                                                                                                            
00006070224870078DT67590675900000015164800888800000010180088824001193100900014265567041020230000001394810023000000002275491438854XXXXXX5028               2111111   NYV4 A7W303100333040186N840000000013948D98B00    01DNKETOFUSION833-923-3587   05146C    VS84000000013948 NP1599977360677   E3B97005C5TF0EE1978700E  000000000+                C CC 12108                     000000000  N000000000 496   0000000000000.00 0000000.00   0000000.00                             000000000000000                                                                                                                                                     01424 G000000013948 0000000000002.96     02050 01000                  
00006080224870001P16759067590000001516480088880000001010000000000000000                             2000000000000000000000000              000000000000                    0000000000000000000000000                    000000000000                                                                                                                                                                                                                                                                                                                                                                                                                                                                                        
00006090224870079DT67590675900000015164800888800000010180088887287283100900014265576041020230000000198810023000000002275491524369XXXXXX6529       ME03KE06MS02      NY 4607AMDJKT6PW50410  N840000000001988          81DNKETOFUSION833-923-3587   043553    MD84000000001988 N  599977360677   72BD136804TFCEAF2313C81  000000000+600450S00130    MDJ  00401                     000000000  N                0000000000000.00 0000000.00   0000000.00                             000000000000000                                                                                                                                                   U001424  000000000000 0000000000000.48     01650 01500                  
00006100224870080DT67590675900000015164800888800000010180088887287283100900014265618041020230000002255010023000000002275491542784XXXXXX4447       ME03KE06MS02      NY 4607AMCSK5MTW50410  N840000000022550          81DNKETOFUSION833-923-3587   010727    MC84000000022550 N  599977360677   9C8A7AFC81T8AD9B61C7A16  000000000+600450S00130    MCS  00013                     000000000  N                0000000000000.00 0000000.00   0000000.00                             000000000000000                                                                                                                                                   U001424  000000000000 0000000000004.50     01950 01000                  
00006110224870081DT67590675900000015164800888800000010180088887287283100900014265659041020230000001987010023000000002275491551677XXXXXX8328       ME03KE06MS02      NY 4607AMDSK874W50410  N840000000019870          81DNKETOFUSION833-923-3587   004215    MD84000000019870 N  599977360677   907B95D06FTB79DE18A1C21  000000000+600450S00130    MDS  00401                     000000000  N                0000000000000.00 0000000.00   0000000.00                             000000000000000                                                                                                                                                   U001424  000000000000 0000000000003.43     01650 01500                  
00006120224870082DT67590675900000015164800888800000010180088824001193100900014265674041020230000001987010023000000002275491442790XXXXXX1688               2111111   NYV4 A7W583100390048467N840000000019870R7VV00    01DNKETOFUSION833-923-3587   667582    VD84000000019870 NP1599977360677   D2A74BC665T414242E751AF  000000000+                F DF 10420                     000000000  Y000000000 338   0000000000000.00 0000000.00   0000000.00                             000000000000000                                                                                                                                                     01424 G000000019870 0000000000000.32     00050 02200                  
00006130224870001P16759067590000001516480088880000001010000000000000000                             2000000000000000000000000              000000000000                    0000000000000000000000000                    000000000000                                                                                                                                                                                                                                                                                                                                                                                                                                                                                        
00006140224870083DT67590675900000015164800888800000010180088824001193100900014265732041020230000001987010023000000002275491412451XXXXXX4655               2111111   NYV4 A7W463100399046074N840000000019870RBGS00    01DNKETOFUSION833-923-3587   040507    VD84000000019870 NP1599977360677   A573C3423BT8FE12E580A08  000000000+                F DF 10420                     000000000  Y000000000 338   0000000000000.00 0000000.00   0000000.00                             000000000000000                                                                                                                                                     01424 G000000019870 0000000000000.32     00050 02200                  
00006150224870001P16759067590000001516480088880000001010000000000000000                             2000000000000000000000000              000000000000                    0000000000000000000000000                    000000000000                                                                                                                                                                                                                                                                                                                                                                                                                                                                                        
00006160224870084DT67590675900000015164800888800000010180088887287283100900014265766041020230000002487010023000000002275491546197XXXXXX7904       ME03KE06MS02      NY 4607AMDJU8XTW40410  N840000000024870          81DNKETOFUSION833-923-3587   071232    MD84000000024870 N  599977360677   0106763093T765419B47396  000000000+600450S00130    MDJ  00401                     000000000  N                0000000000000.00 0000000.00   0000000.00                             000000000000000                                                                                                                                                   U001424  000000000000 0000000000004.25     01650 01500                  
00006170224870085DT67590675900000015164800888800000010680088874001193100900014265778041020230000000993510023000000002275491410039XXXXXX7951               0000000   NYV4 07T303100405199939N840000000009935LN6400    01CNKETOFUSION833-923-3587   28210D    VS84000000009935 NP1599977360677   69941BD3FETB41A94231195  000000000+                D CD 00245                     000000000  N000000000 166   0000000000000.00 0000000.00   0000000.00                             000000000000000                                                                                                                                                     01424  000000009935-0000000000001.75     01760 00000                  
00006180224870001P16759067590000001516480088880000001060000000000000000                             2000000000000000000000000              000000000000                    0000000000000000000000000                    000000000000                                                                                                                                                                                                                                                                                                                                                                                                                                                                                        
00006190224870086DT67590675900000015164800888800000010680088874001193100900014265794041020230000001987010023000000002275491410039XXXXXX2213               0000000   NYV4 07T463100405772650N840000000019870MXDF00    01CNKETOFUSION833-923-3587   52882D    VS84000000019870 NP1599977360677   B9068E3245TBC11ED6565E1  000000000+                D CD 00245                     000000000  N000000000 166   0000000000000.00 0000000.00   0000000.00                             000000000000000                                                                                                                                                     01424  000000019870-0000000000003.50     01760 00000                  
00006200224870001P16759067590000001516480088880000001060000000000000000                             2000000000000000000000000              000000000000                    0000000000000000000000000                    000000000000                                                                                                                                                                                                                                                                                                                                                                                                                                                                                        
00006210224870087DT67590675900000015164800888800000010680088874001193100900014265802041020230000000519010023000000002275491410039XXXXXX2213               0000000   NYV4 07T583100405902035N840000000005190G83X00    01CNKETOFUSION833-923-3587   59109D    VS84000000005190 NP1599977360677   B9068E3245T65B447165B98  000000000+                D CD 00245                     000000000  N000000000 166   0000000000000.00 0000000.00   0000000.00                             000000000000000                                                                                                                                                     01424  000000005190-0000000000000.91     01760 00000                  
00006220224870001P16759067590000001516480088880000001060000000000000000                             2000000000000000000000000              000000000000                    0000000000000000000000000                    000000000000                                                                                                                                                                                                                                                                                                                                                                                                                                                                                        
00006230224870088DT67590675900000015164800888800000010180088887287283100900014265816041020230000002487010023000000002275491521853XXXXXX4234       ME03KE06PT01      NY 4607AMCWRAID6E0410  N840000000024870          81DNKETOFUSION833-923-3587   01004T    MC84000000024870 N  599977360677   67CF6E6479TFA899FACED85  000000000+600450S00130    MCW  02182                     000000000  N                0000000000000.00 0000000.00   0000000.00                             000000000000000                                                                                                                                                   U001424  000000000000 0000000000006.57     02600 01000                  
00006240224870089DT67590675900000015164800888800000010680088874001193100900014265828041020230000000654810023000000002275491410039XXXXXX2213               0000000   NYV4 07T463100407272805N840000000006548NSCX00    01CNKETOFUSION833-923-3587   09900D    VS84000000006548 NP1599977360677   B9068E3245T41630FCDE7BC  000000000+                D CD 00245                     000000000  N000000000 166   0000000000000.00 0000000.00   0000000.00                             000000000000000                                                                                                                                                     01424  000000006548-0000000000001.15     01760 00000                  
00006250224870001P16759067590000001516480088880000001060000000000000000                             2000000000000000000000000              000000000000                    0000000000000000000000000                    000000000000                                                                                                                                                                                                                                                                                                                                                                                                                                                                                        
