09109260664130002BH6759067590000004566680015680000090170728202320923000000000007578    0000090001050001Y8001566759C07312023005                                                                                                                                                                                                                                                                                                                                                                                                                                                                                                                                                                                              
09109270664130003DT67590675900000045666800156800000010180015624001193209900010500017072820230000000757820923000000000007578434257XXXXXX4158       VS11    0001111   NYV1 A E383209794779728N840000000007578WKKR00    07DNTHE DOSE LLC             021745    VD84000000007578 N  599978722488                            000000000+                F DF 10433                     000000000  Y000000000 338   0000000000000.00 0000000.00   0000000.00                             000000000000000                                                                                                                                                     01424 A000000000000 0000000000000.26     00050 02200                  
09109280664130001E16759067590000004566680015680000001010040404000FF 00000000000.004040404040404040404040404040404040404040404040404006061203A00000000000000000000000404040404040404040404040404040  000008400000000000000023072877C7BFBAA2E809FB18835F95404040400840A000000003101000000000000000000080D0A0A0002090B020200000000000004040404040404040 000000075.78 000000000.004040400000000000000000    80                                                                                                                                                                                                                                                                                                                  
09109290664130002G2675906759000000456668001568000000101LAS VEGAS                NV           5 D                00                                      NNNN00 N 00                   000000000000                                                                   78722488                                                                                                                                                                                                                                                                                                                                                                                                                                               
09109300664130004BH6759067590000004749880016180000090170728202320923000000000002585    0000090001040009Y8001616759C07312023004                                                                                                                                                                                                                                                                                                                                                                                                                                                                                                                                                                                              
09109310664130005DT67590675900000047498800161800000010180016124001193209900010400093072820230000000258520923000000000002585423223XXXXXX1732               2111111   NYV4 A7W303209814175918N8400000000025856W5X00    01DNKUSHIEBITES8773144242    015513    VD84000000002585 NDR599978777627   10244                    000000000+                F DF 00415                     000000000  N000000000       0000000000000.00 0000000.00   0000000.00                             000000000000000                                                                                                                                                     01424 G000000002585 0000000000000.58     01650 01500                  
09109320664130005DR67590675900000047498800161800000010110244                    Y000000002585                 P1                                                                                                                                                                                                                                                                                                                                                                                                                                                                                                                                                                                                            
09109330664130001P16759067590000004749880016180000001010000000000000000                             2000000000000000000000000              000000000000                    0000000000000000000000000                    000000000000                                                                                                                                                                                                                                                                                                                                                                                                                                                                                        
09109340664130002G2675906759000000474988001618000000101877-3144242              FL           9 D                00                                      NNNN   N                      000000000000                                                                   78777627                                                                                                                                                                                                                                                                                                                                                                                                                                               
09109350664130006BH675906759000000151648008888000009017072820232092300000000002078501970000090001469122N8008886759D07312023146                                                                                                                                                                                                                                                                                                                                                                                                                                                                                                                                                                                              
09109360664130007DT67590675900000015164800888800000010680088887287283209900014691227072820230000002078520923000000000020785524300XXXXXX9037                         NN 4607AMPLBCY0A20728  N840000000020785          81CNKETOFUSION833-923-3587   0289150197MC84000000020785 NDR599977360677   973635A559T7B1F03F1FE00  000000000+600450S00130    MPL  00000                     000000000  N                0000000000000.00 0000000.00   0000000.00             000000000020785C000000000000000                                                                                                                                                     01424  000000000000 0000000000000.00     00000 00000                  
09109370664130007DR675906759000000151648008888000000106973635A559T7B1F03F1FE00  R000000000000                                                                                                                                                                                                                                                                                                                                                                                                                                                                                                                                                                                                                               
09109380664130001G2675906759000000151648008888000000106833-9233587              UT           9 L               210                                      NNNN           210000000000000000000000000                        7                                          77360677                                                                                                                                                                                                                                                                                                                                                                                                                                               
09109390664130008BH6759067590000000288180088880000090170728202320923000000000025177    0000090001720359Y8008886759C07312023172                                                                                                                                                                                                                                                                                                                                                                                                                                                                                                                                                                                              
09109400664130009DT67590675900000002881800888800000010180088824001193209900017203557072720230000000729820923000000000025177428787XXXXXX6729               2111111   NYV4 A7W383209082999314N840000000007298WVVX00    01DNHAPPY HIPPIE             006509    VS84000000007298 NDR549976044904   2177                     000000000+                B CB 12107                     000000000  N000000000 494   0000000000000.00 0000000.00   0000000.00                             000000000000000                                                                                                                                                     01424 G000000007298 0000000000001.59     02040 01000                  
09109410664130009DR6759067590000000288180088880000001012177                     Y000000007298                 P1                                                                                                                                                                                                                                                                                                                                                                                                                                                                                                                                                                                                            
09109420664130001P16759067590000000288180088880000001010000000000000000                             2000000000000000000000000              000000000000                    0000000000000000000000000                    000000000000                                                                                                                                                                                                                                                                                                                                                                                                                                                                                        
09109430664130002G2675906759000000028818008888000000101865-3663142              TN           9 C                00                                      NNNN   N                      000000000000                                                                   76044904                                                                                                                                                                                                                                                                                                                                                                                                                                               
09109440664130010DT67590675900000002881800888800000010180088824001193209900017203573072820230000000460020923000000000025177443044XXXXXX4861               2111111   NYV4 A7W463209383765445N840000000004600TZGX00    01DNHAPPY HIPPIE             204974    VD84000000004600 NDR549976044904   2179                     000000000+                F DF 10420                     000000000  Y000000000 338   0000000000000.00 0000000.00   0000000.00                             000000000000000                                                                                                                                                     01424 G000000004600 0000000000000.24     00050 02200                  
09109450664130010DR6759067590000000288180088880000001012179                     Y000000004600                 P1                                                                                                                                                                                                                                                                                                                                                                                                                                                                                                                                                                                                            
09109460664130001P16759067590000000288180088880000001010000000000000000                             2000000000000000000000000              000000000000                    0000000000000000000000000                    000000000000                                                                                                                                                                                                                                                                                                                                                                                                                                                                                        
09109470664130002G2675906759000000028818008888000000101865-3663142              TN           9 D                00                                      NNNN   N                      000000000000                                                                   76044904                                                                                                                                                                                                                                                                                                                                                                                                                                               
09109480664130011DT67590675900000002881800888800000010180088824001193209900017203581072820230000000728020923000000000025177415976XXXXXX4040               2111111   NYV4 A7W583209628442403N840000000007280HBZS00    01DNHAPPY HIPPIE             007944    VD84000000007280 NDR549976044904   2180                     000000000+                F DF 10420                     000000000  Y000000000 338   0000000000000.00 0000000.00   0000000.00                             000000000000000                                                                                                                                                     01424 G000000007280 0000000000000.26     00050 02200                  
09109490664130011DR6759067590000000288180088880000001012180                     Y000000007280                 P1                                                                                                                                                                                                                                                                                                                                                                                                                                                                                                                                                                                                            
09109500664130001P16759067590000000288180088880000001010000000000000000                             2000000000000000000000000              000000000000                    0000000000000000000000000                    000000000000                                                                                                                                                                                                                                                                                                                                                                                                                                                                                        
09109510664130002G2675906759000000028818008888000000101865-3663142              TN           9 D                00                                      NNNN   N                      000000000000                                                                   76044904                                                                                                                                                                                                                                                                                                                                                                                                                                               
09109520664130012DT67590675900000002881800888800000010180088824001193209900017203599072820230000000599920923000000000025177434769XXXXXX5668               2111111   NYV4 A7W383209840773148N8400000000059993CW500    01DNHAPPY HIPPIE             082119    VD84000000005999 NDR549976044904   2181                     000000000+                F DF 10420                     000000000  Y000000000 338   0000000000000.00 0000000.00   0000000.00                             000000000000000                                                                                                                                                     01424 G000000005999 0000000000000.25     00050 02200                  
09109530664130012DR6759067590000000288180088880000001012181                     Y000000005999                 P1                                                                                                                                                                                                                                                                                                                                                                                                                                                                                                                                                                                                            
09109540664130001P16759067590000000288180088880000001010000000000000000                             2000000000000000000000000              000000000000                    0000000000000000000000000                    000000000000                                                                                                                                                                                                                                                                                                                                                                                                                                                                                        
09109550664130002G2675906759000000028818008888000000101865-3663142              TN           9 D                00                                      NNNN   N                      000000000000                                                                   76044904                                                                                                                                                                                                                                                                                                                                                                                                                                               
09109560664130013BH675906759000000198288001098000009017072820232092300000000001692801970000090001140817N8001096759D07312023114                                                                                                                                                                                                                                                                                                                                                                                                                                                                                                                                                                                              
09109570664130014DT67590675900000019828800109800000010680010987287283209900011408153072820230000000654820923000000000016928546680XXXXXX7706                         NN 4607AMPLA0HVT70728  N840000000006548          81CNKETOFUSION 8885968154    0283550197MC84000000006548 NDR599977547467   A4984D66E7T7F8F76A3670F  000000000+600450S00130    MPL  00000                     000000000  N                0000000000000.00 0000000.00   0000000.00             000000000006548C000000000000000                                                                                                                                                     01424  000000000000 0000000000000.00     00000 00000                  
09109580664130014DR675906759000000198288001098000000106A4984D66E7T7F8F76A3670F  R000000000000                                                                                                                                                                                                                                                                                                                                                                                                                                                                                                                                                                                                                               
09109590664130001G2675906759000000198288001098000000106888-5968154              UT           9 L               210                                      NNNN           210000000000000000000000000                        7                                          77547467                                                                                                                                                                                                                                                                                                                                                                                                                                               
09109600664130015DT67590675900000019828800109800000010680010987287283209900011408161072820230000000519020923000000000016928546680XXXXXX7706                         NN 4607AMPLKOJ4A20728  N840000000005190          81CNKETOFUSION 8885968154    0288350197MC84000000005190 NDR599977547467   A4984D66E7T4E58634964A4  000000000+600450S00130    MPL  00000                     000000000  N                0000000000000.00 0000000.00   0000000.00             000000000005190C000000000000000                                                                                                                                                     01424  000000000000 0000000000000.00     00000 00000                  
09109610664130015DR675906759000000198288001098000000106A4984D66E7T4E58634964A4  R000000000000                                                                                                                                                                                                                                                                                                                                                                                                                                                                                                                                                                                                                               
09109620664130001G2675906759000000198288001098000000106888-5968154              UT           9 L               210                                      NNNN           210000000000000000000000000                        7                                          77547467                                                                                                                                                                                                                                                                                                                                                                                                                                               
09109630664130016DT67590675900000019828800109800000010680010987287283209900011408179072820230000000519020923000000000016928524300XXXXXX9037                         NN 4607AMPLFD17A30728  N840000000005190          81CNKETOFUSION 8885968154    0285780197MC84000000005190 NDR599977547467   973635A559T643AFBDB2907  000000000+600450S00130    MPL  00000                     000000000  N                0000000000000.00 0000000.00   0000000.00             000000000005190C000000000000000                                                                                                                                                     01424  000000000000 0000000000000.00     00000 00000                  
09109640664130016DR675906759000000198288001098000000106973635A559T643AFBDB2907  R000000000000                                                                                                                                                                                                                                                                                                                                                                                                                                                                                                                                                                                                                               
09109650664130001G2675906759000000198288001098000000106888-5968154              UT           9 L               210                                      NNNN           210000000000000000000000000                        7                                          77547467                                                                                                                                                                                                                                                                                                                                                                                                                                               
09109660664130017BH6759067590000002092580011280000090170728202320923000000000001500    0000090001620135Y8001126759C07312023062                                                                                                                                                                                                                                                                                                                                                                                                                                                                                                                                                                                              
09109670664130018DT67590675900000020925800112800000010180011224001193209900016201354072820230000000150020923000000000001500411773XXXXXX2977               2111111   NYV4 A7W583209668671558N840000000001500D7JM00    01DNJ K DISTRIBUTION INC     143845    VD84000000001500 NDR549977712156   8572870770               000000000+                F DF 10420                     000000000  Y000000000 338   0000000000000.00 0000000.00   0000000.00                             000000000000000                                                                                                                                                     01424 G000000001500 0000000000000.23     00050 02200                  
09109680664130018DR6759067590000002092580011280000001018572870770               Z000000001500                 P1                                                                                                                                                                                                                                                                                                                                                                                                                                                                                                                                                                                                            
09109690664130001P16759067590000002092580011280000001010000000000000000                             2000000000000000000000000              000000000000                    0000000000000000000000000                    000000000000                                                                                                                                                                                                                                                                                                                                                                                                                                                                                        
09109700664130002G2675906759000000209258001128000000101203-8159817              CT           9 D                00                                      NNNN   N                      000000000000                                                                   77712156                                                                                                                                                                                                                                                                                                                                                                                                                                               
09109710664130019BH6759067590000004162480014980000090170728202320923000000000031848    0000090001020001Y8001496759C07312023002                                                                                                                                                                                                                                                                                                                                                                                                                                                                                                                                                                                              
09109720664130020DT67590675900000041624800149800000010180014924001193209900010200022072820230000000525020923000000000031848415977XXXXXX9388       VS11    0001111   NYV1 A E583209681151542N840000000005250WTLG00    05DNBLACK BROWN & GREEN LLC  062894    VD84000000005250 N  549978706094                            000000000+                F DF 10433                     000000000  Y000000000 338   0000000000000.00 0000000.00   0000000.00                             000000000000000                                                                                                                                                     01424 A000000000000 0000000000000.25     00050 02200                  
09109730664130001E167590675900000041624800149800000010100E0F8C8023A 00000000000.004040404040404040404040404040404040404040404040404006011203A00000000000000000000000404040404040404040404040404040  0000084018008080008000230728D0B2EE2ABB19AF685DF3C88E404040400840A0000000031010000000000000000000CD89EB76943B0ADD30300000000000004040401E40404040 000000052.50 000000000.001E00000000000000000000    80                                                                                                                                                                                                                                                                                                                  
09109740664130002G2675906759000000416248001498000000101ATLANTA                  GA           5 D                00                                      NNNN00 N 00                   000000000000                                                                   78706094                                                                                                                                                                                                                                                                                                                                                                                                                                               
09109750664130021DT67590675900000041624800149800000010180014924001193209900010200030072820230000000019920923000000000031848442732XXXXXX0957       VK04VS111111111   NYV1 A E583210009745712N840000000000199XDV200    05DNBLACK BROWN & GREEN LLC  041620    VD84000000000199 N  549978706094                            000000000+                G DG 10351                     000000000  Y000000000 338   0000000000000.00 0000000.00   0000000.00                             000000000000000                                                                                                                                                     01424 F000000000000 0000000000000.22     00050 02200                  
09109760664130001E167590675900000041624800149800000010100E0F8C8002E 00000000000.004040404040404040404040404040404040404040404040404006011203A08000000000000000000000404040404040404040404040404040  00000840180080800080002307280AD906B7F36EBCF096812C5D404040400840A0000000031010000000000000000000A0B0E0200080000020200000000000004040401E40404040 000000001.99 000000000.001E00000000000000000000    80                                                                                                                                                                                                                                                                                                                  
09109770664130002G2675906759000000416248001498000000101ATLANTA                  GA           5 D                00                                      NNNN00 N 00                   000000000000                                                                   78706094                                                                                                                                                                                                                                                                                                                                                                                                                                               
09109780664130022DT67590675900000041624800149800000010180014924001193209900010200048072820230000000640020923000000000031848400022XXXXXX2689       VS11    0001111   NYV1 A E583210067819122N840000000006400D5RC00    05DNBLACK BROWN & GREEN LLC  132307    VD84000000006400 N  549978706094                            000000000+                F DF 10433                     000000000  Y000000000 338   0000000000000.00 0000000.00   0000000.00                             000000000000000                                                                                                                                                     01424 A000000000000 0000000000000.25     00050 02200                  
09109790664130001E167590675900000041624800149800000010100E0F8C80205 00000000000.004040404040404040404040404040404040404040404040404006021203A0A000000000000000000000404040404040404040404040404040  0000084018008080008000230728881AB7C70A313AF34515245D404040400840A0000000031010000000000000000000404040404040404040404040404040404040401E40404040 000000064.00 000000000.001E00000000000000000000    80                                                                                                                                                                                                                                                                                                                  
09109800664130002G2675906759000000416248001498000000101ATLANTA                  GA           5 D                00                                      NNNN00 N 00                   000000000000                                                                   78706094                                                                                                                                                                                                                                                                                                                                                                                                                                               
09109810664130023DT67590675900000041624800149800000010180014924001193209900010200055072820230000000430020923000000000031848473702XXXXXX0990       VS11    0001111   NYV1 A E463210073632610N840000000004300QCQB00    05DNBLACK BROWN & GREEN LLC  075614    VD84000000004300 N  549978706094                            000000000+                F DF 10433                     000000000  Y000000000 338   0000000000000.00 0000000.00   0000000.00                             000000000000000                                                                                                                                                     01424 A000000000000 0000000000000.24     00050 02200                  
09109820664130001E167590675900000041624800149800000010100E0F8C8009E 00000000000.004040404040404040404040404040404040404040404040404006061203A02000000000000000000000404040404040404040404040404040  0000084018008080008000230728370D45E4907F544DD860D3B7404040400840A000000003101000000000000000000010A07020B0F0E0E020200000000000004040401E40404040 000000043.00 000000000.001E00000000000000000000    80                                                                                                                                                                                                                                                                                                                  
09109830664130002G2675906759000000416248001498000000101ATLANTA                  GA           5 D                00                                      NNNN00 N 00                   000000000000                                                                   78706094                                                                                                                                                                                                                                                                                                                                                                                                                                               
09109840664130024DT67590675900000041624800149800000010180014924001193209900010200063072820230000001280020923000000000031848413171XXXXXX3383       VS11    0001111   NYV1 A E583210074075281N840000000012800LJ6N00    05DNBLACK BROWN & GREEN LLC  217484    VD84000000012800 N  549978706094                            000000000+                F DF 00381                     000000000  N000000000       0000000000000.00 0000000.00   0000000.00                             000000000000000                                                                                                                                                     01424 A000000000000 0000000000001.17     00800 01500                  
09109850664130001E167590675900000041624800149800000010100E0F8C8009E 00000000000.004040404040404040404040404040404040404040404040404006011203A0A000000000000000000000404040404040404040404040404040  00000840180080800080002307289B67245AFE551841A74B9956404040400840A0000000031010000000000000000000EEE1B9690382000000000000000000004040401E40404040 000000128.00 000000000.001E00000000000000000000    80                                                                                                                                                                                                                                                                                                                  
09109860664130002G2675906759000000416248001498000000101ATLANTA                  GA           5 D                00                                      NNNN00 N 00                   000000000000                                                                   78706094                                                                                                                                                                                                                                                                                                                                                                                                                                               
09109870664130025DT67590675900000041624800149800000010180014924001193209900010200071072820230000000270020923000000000031848474475XXXXXX8682       VS11    0001111   NYV1 A E463210083382008N840000000002700RFJR00    05DNBLACK BROWN & GREEN LLC  151087    VD84000000002700 N  549978706094                            000000000+                F DF 10433                     000000000  Y000000000 338   0000000000000.00 0000000.00   0000000.00                             000000000000000                                                                                                                                                     01424 A000000000000 0000000000000.23     00050 02200                  
09109880664130001E167590675900000041624800149800000010100E0F8C80197 00000000000.004040404040404040404040404040404040404040404040404006021203A08000000000000000000000404040404040404040404040404040  00000840180080800080002307281DBB7E65951150D141751D6D404040400840A0000000031010000000000000000000C070D0E00080000020200000000000004040401E40404040 000000027.00 000000000.001E00000000000000000000    80                                                                                                                                                                                                                                                                                                                  
09109890664130002G2675906759000000416248001498000000101ATLANTA                  GA           5 D                00                                      NNNN00 N 00                   000000000000                                                                   78706094                                                                                                                                                                                                                                                                                                                                                                                                                                               
09109900664130026DT67590675900000041624800149800000033080014976759003209900010200019072820230000000019920923000000000031848442732XXXXXX0957                         NY 2 0 N               N840000000000199      IL  05DNBLACK BROWN & GREEN LLC  022014    DB84000000000199 N  549978706094                            000000000+                     09580                                Y          342   0000000000000.00 0000000.00   0000000.00                             000000000000000                                                                                                                                                     01424  000000000000 0000000000000.22     00050 00000                  
09109910664130001G2675906759000000416248001498000000330ATLANTA                  GA           5 D                00                                      NNNN                          000000000000                                                                   78706094                                                                                                                                                                                                                                                                                                                                                                                                                                               
09109920664130027BH6759067590000002604780012480000090170728202320923000000000249134    0000090001610055Y8001246759C07312023061                                                                                                                                                                                                                                                                                                                                                                                                                                                                                                                                                                                              
09109930664130028DT67590675900000026047800124800000010180012477287283209900016100012072820230000000482520923000000000249134511786XXXXXX9907       MS02WI09          NY 1 0 AMCSI67LA70728  N840000000004825          05DNHPPYC                    04589B    MC84000000004825 N  599978202445                            000000000+M10101C5434C    MCS  00353                     000000000  N                0000000000000.00 0000000.00   0000000.00                             000000000000000                                                                                                                                                   B101424  000000000000 0000000000000.97     01800 01000                  
09109940664130001E167590675900000026047800124800000010100E0F8C80016 00000000000.00404040404040404040404040404040404040404040404040400910A04101220000000000000000000000FF00000000000000000000000000  0001084039000000008000230728F997DA76CC4DD934F19122BE404040400840A0000000041010000000000000000000458CFC73F2D6AF9900120000000000004040401E40404040 000000048.25 000000000.001E03000000000000000000    80                                                                                                                                                                                                                                                                                                                  
09109950664130002G2675906759000000260478001248000000101CHARLOTTE                NC           5 S                                                        NNNN              000000000000000000000000                        7                                          78202445                                                                                                                                                                                                                                                                                                                                                                                                                                               
09109960664130029DT67590675900000026047800124800000010180012477287283209900016100020072820230000000214420923000000000249134514377XXXXXX4885       MS02WI09          NY 1 0 AMDJJ5DNA70728  N840000000002144          05DNHPPYC                    1ZC9CM    MD84000000002144 N  599978202445                            000000000+M10101C5434C    MDJ  00402                     000000000  N                0000000000000.00 0000000.00   0000000.00                             000000000000000                                                                                                                                                   B101424  000000000000 0000000000000.38     01050 01500                  
09109970664130001E167590675900000026047800124800000010100E0F8C8001A 00000000000.00404040404040404040404040404040404040404040404040400110A04001220000000000000000000000FF00000000000000000000000000  00020840390000000080002307289D062EB53CBCAEF91EC96A3D404040400840A00000000410100000000000000000006F9557F07B145C2300100000000000004040401E40404040 000000021.44 000000000.001E03000000000000000000    80                                                                                                                                                                                                                                                                                                                  
09109980664130002G2675906759000000260478001248000000101CHARLOTTE                NC           5 J                                                        NNNN              000000000000000000000000                        7                                          78202445                                                                                                                                                                                                                                                                                                                                                                                                                                               
09109990664130030DT67590675900000026047800124800000010180012477287283209900016100038072820230000000107120923000000000249134515676XXXXXX7751       MS02WI09          NY 1 0 AMWETMLQT60728  N840000000001071          05DNHPPYC                    04395Z    MC84000000001071 N  599978202445                            000000000+M10101C5434C    MWE  00739                     000000000  N                0000000000000.00 0000000.00   0000000.00                             000000000000000                                                                                                                                                   B101424  000000000000 0000000000000.35     02300 01000                  
09110000664130001E167590675900000026047800124800000010100E0F8C801BA 00000000000.00404040404040404040404040404040404040404040404040400110A04001220000000000000000000000FF00000000000000000000000000  00010840390000000080002307281065157AC556BD29DAA5B5A8404040400840A0000000041010000000000000000000AD5A519A8D3FA22100120000000000004040401E40404040 000000010.71 000000000.001E03000000000000000000    80                                                                                                                                                                                                                                                                                                                  
09110010664130002G2675906759000000260478001248000000101CHARLOTTE                NC           5 E                                                        NNNN              000000000000000000000000                        7                                          78202445                                                                                                                                                                                                                                                                                                                                                                                                                                               
09110020664130031DT67590675900000026047800124800000010180012424001193209900016100044072820230000000911520923000000000249134440066XXXXXX1458       VS11    0001111   NYV1 A E583209588631027N8400000000091156WBP00    05DNHPPYC                    09324D    VS84000000009115 N  599978202445                            000000000+                D CD 12113                     000000000  N000000000 499   0000000000000.00 0000000.00   0000000.00                             000000000000000                                                                                                                                                     01424 A000000000000 0000000000002.01     02100 01000                  
09110030664130001E167590675900000026047800124800000010100E0F8C800BF 00000000000.004040404040404040404040404040404040404040404040404006011203A0A000000000000000000000404040404040404040404040404040  0003084018008080008000230728F7FBACC97117FBC959F75F9D404040400840A00000000310100000000000000000007C62BD750082000000000000000000004040401E40404040 000000091.15 000000000.001E03000000000000000000    80                                                                                                                                                                                                                                                                                                                  
09110040664130002G2675906759000000260478001248000000101CHARLOTTE                NC           5 C                00                                      NNNN00 Y 00                   000000000000                                                                   78202445                                                                                                                                                                                                                                                                                                                                                                                                                                               
09110050664130032DT67590675900000026047800124800000010180012424001193209900016100051072820230000000482520923000000000249134414720XXXXXX0952       VS11    0001111   NYV1 A E583209591183297N840000000004825BR2400    05DNHPPYC                    05547I    VS84000000004825 N  599978202445                            000000000+                I CI 12777                     000000000  N000000000 690   0000000000000.00 0000000.00   0000000.00                             000000000000000                                                                                                                                                     01424 A000000000000 0000000000001.11     02100 01000                  
09110060664130001E167590675900000026047800124800000010100E0F8C802C4 00000000000.004040404040404040404040404040404040404040404040404006021203A0A002000000000000000000404040404040404040404040404040  00010840380000800080002307283C0699E43DFE00E38AF466B1404040400840A0000000031010000000000000000000A4EBD4B30082000000000000000000004040401E40404040 000000048.25 000000000.001E00000000000000000000    80                                                                                                                                                                                                                                                                                                                  
09110070664130002G2675906759000000260478001248000000101CHARLOTTE                NC           5 C                00                                      NNNN00QY 00                   000000000000                                                                   78202445                                                                                                                                                                                                                                                                                                                                                                                                                                               
09110080664130033DT67590675900000026047800124800000010180012424001193209900016100069072820230000000158920923000000000249134430594XXXXXX7938       VS11    0001111   NYV1 A E383209611715832N840000000001589ZJFX00    05DNHPPYC                    145799    VD84000000001589 N  599978202445                            000000000+                F DF 10433                     000000000  Y000000000 338   0000000000000.00 0000000.00   0000000.00                             000000000000000                                                                                                                                                     01424 A000000000000 0000000000000.23     00050 02200                  
09110090664130001E167590675900000026047800124800000010100E0F8C80366 00000000000.004040404040404040404040404040404040404040404040404006021203A08000000000000000000000404040404040404040404040404040  00000840180080800080002307287F0752AE61CEDC8C2A3C3031404040400840A0000000031010000000000000000000803010C00080000020200000000000004040401E40404040 000000015.89 000000000.001E00000000000000000000    80                                                                                                                                                                                                                                                                                                                  
09110100664130002G2675906759000000260478001248000000101CHARLOTTE                NC           5 D                00                                      NNNN00 N 00                   000000000000                                                                   78202445                                                                                                                                                                                                                                                                                                                                                                                                                                               
09110110664130034DT67590675900000026047800124800000010180012476509753209900016100075072820230000001124820923000000000249134601100XXXXXX1977   BA50                  NY41 0 N873180183895741N840000000011248    00    05DNHPPYC                    02844R    DS84000000011248 N  599978202445050                         000000000+0000004910H00   DCCDI01000333465  130629000000 000000000  0          112   0000000000000.00 0000000.00   0000000.00                             000000000000000                                                                                                                                                     01424  000000000000 0000000000002.03     01720 01000                  
09110120664130001E167590675900000026047800124800000010100E0F8C80086 00000000000.00404040404040404040404040404040404040404040404040400105A0800F8000000000000000000000404040404040404040404040404040  000608407800000000800023072830838F159D9D432A18078377404040400840A0000001523010000000000000000000D985F9A4A03556B100320000000000004040401E40404040 000000112.48 000000000.001E03000000000000000000    80                                                                                                                                                                                                                                                                                                                  
09110130664130002G2675906759000000260478001248000000101CHARLOTTE                NC           5 C                00                                      NNNN                          000000000000                         00000650975601179750000535                78202445                                                                                                                                                                                                                                                                                                                                                                                                                                               
09110140664130035DT67590675900000026047800124800000010180012477287283209900016100087072820230000000353720923000000000249134529099XXXXXX2897       MS02WI09          NY 2 0 AMDJZYPYY40728  N840000000003537          05DNHPPYC                    032477    MD84000000003537 N  599978202445                            000000000+M10101C1334C    MDJ  10815                     000000000  1                0000000000000.00 0000000.00   0000000.00                             000000000000000                                                                                                                                                   B101424  000000000000 0000000000000.24     00050 02200                  
09110150664130001E167590675900000026047800124800000010100E0F8C8011F 00000000000.00404040404040404040404040404040404040404040404040400110A00001220000000000000000000000FF00000000000000000000000000  0000084018008000048000230728948866F2B4013BB904803287404040400840A0000000041010000000000000000000F4C05A3BF56D1CB100120000000000004040400240404040 000000035.37 000000000.000203000000000000000000    80                                                                                                                                                                                                                                                                                                                  
09110160664130002G2675906759000000260478001248000000101CHARLOTTE                NC           5 J                                                        NNNN              000000000000000000000000                        7                                          78202445                                                                                                                                                                                                                                                                                                                                                                                                                                               
09110170664130036DT67590675900000026047800124800000010180012476509753209900016100091072820230000000509320923000000000249134601100XXXXXX1482   BA50                  NY41 0 N873180202432929N840000000005093    00    05DNHPPYC                    02882R    DS84000000005093 N  599978202445050                         000000000+0000004910H00   DCCDI01000168094  133723000000 000000000  0          112   0000000000000.00 0000000.00   0000000.00                             000000000000000                                                                                                                                                     01424  000000000000 0000000000000.98     01720 01000                  
09110180664130001E167590675900000026047800124800000010100E0F8C80074 00000000000.00404040404040404040404040404040404040404040404040400105A080038000000000000000000000404040404040404040404040404040  0005084078000000008000230728BEF9418A0CAD3BD590FDCA2E404040400840A0000001523010000000000000000000F1BBCDBB5F4619EA00320000000000004040401E40404040 000000050.93 000000000.001E03000000000000000000    80                                                                                                                                                                                                                                                                                                                  
09110190664130002G2675906759000000260478001248000000101CHARLOTTE                NC           5 C                00                                      NNNN                          000000000000                         00000650975601179750000535                78202445                                                                                                                                                                                                                                                                                                                                                                                                                                               
09110200664130037DT67590675900000026047800124800000010180012424001193209900016100101072820230000000268020923000000000249134414720XXXXXX9023       VS11    0001111   NYV1 A E383209654504394N840000000002680G9PN00    05DNHPPYC                    01522D    VS84000000002680 N  599978202445                            000000000+                D CD 12113                     000000000  N000000000 499   0000000000000.00 0000000.00   0000000.00                             000000000000000                                                                                                                                                     01424 A000000000000 0000000000000.66     02100 01000                  
09110210664130001E167590675900000026047800124800000010100E0F8C800D8 00000000000.004040404040404040404040404040404040404040404040404006021203A02002000000000000000000404040404040404040404040404040  0001084038000080008000230728D359576F7866FD4320735461404040400840A0000000031010000000000000000000B6ADAC120082000000000000000000004040401E40404040 000000026.80 000000000.001E00000000000000000000    80                                                                                                                                                                                                                                                                                                                  
09110220664130002G2675906759000000260478001248000000101CHARLOTTE                NC           5 C                00                                      NNNN00 Y 00                   000000000000                                                                   78202445                                                                                                                                                                                                                                                                                                                                                                                                                                               
09110230664130038DT67590675900000026047800124800000010180012424001193209900016100119072820230000000124120923000000000249134432739XXXXXX1110       VK04VS111111111   NYV1 A E383209672246150N840000000001241G5W600    05DNHPPYC                    113426    VD84000000001241 N  599978202445                            000000000+                F DF 10439                     000000000  Y000000000 331   0000000000000.00 0000000.00   0000000.00                             000000000000000                                                                                                                                                     01424 F000000000000 0000000000000.23     00050 02200                  
09110240664130001E167590675900000026047800124800000010100E0F8C8009D 00000000000.004040404040404040404040404040404040404040404040404006011203A0A000000000000000000000404040404040404040404040404040  0000084018008080008000230728C4D685245E41134B2526869F404040400840A00000000310100000000000000000004DB710559A2AE1B830300000000000004040401E40404040 000000012.41 000000000.001E00000000000000000000    80                                                                                                                                                                                                                                                                                                                  
09110250664130002G2675906759000000260478001248000000101CHARLOTTE                NC           5 D                00                                      NNNN00 N 00                   000000000000                                                                   78202445                                                                                                                                                                                                                                                                                                                                                                                                                                               
09110260664130039DT67590675900000026047800124800000010180012424001193209900016100127072820230000000596020923000000000249134411398XXXXXX9910       VS11    0001111   NYV1 A E463209678513783N840000000005960GXF900    07DNHPPYC                    04241B    VS84000000005960 N  599978202445                            000000000+                B CB 12111                     000000000  N000000000 495   0000000000000.00 0000000.00   0000000.00                             000000000000000                                                                                                                                                     01424 A000000000000 0000000000001.08     01650 01000                  
09110270664130001E167590675900000026047800124800000010100E068C800CB 00000000000.00404040404040404040404040404040404040404040404040401F420132A00000000010030273000000004000000000000000000000000000  0000084000600000000000230728BE8AA1AB823CBB6857858610404040400840A0000000031010000000000000000000526649350086000000000000000000004040404040404040 000000059.60 000000000.004040400000000000000000    80                                                                                                                                                                                                                                                                                                                  
09110280664130002G2675906759000000260478001248000000101CHARLOTTE                NC           5 C                00                                      NNNN00 N 00                   000000000000                                                                   78202445                                                                                                                                                                                                                                                                                                                                                                                                                                               
09110290664130040DT67590675900000026047800124800000010180012424001193209900016100135072820230000000664620923000000000249134432623XXXXXX9845       VS11    0001111   NYV1 A E583209683555367N840000000006646K8DT00    05DNHPPYC                    333471    VD84000000006646 N  599978202445                            000000000+                F DF 00381                     000000000  N000000000       0000000000000.00 0000000.00   0000000.00                             000000000000000                                                                                                                                                     01424 A000000000000 0000000000000.68     00800 01500                  
09110300664130001E167590675900000026047800124800000010100E0F8C80136 00000000000.004040404040404040404040404040404040404040404040404006011203A00000000000000000000000404040404040404040404040404040  0000084018008080008000230728C352EF919869099D822F6249404040400840A0000000031010000000000000000000E43A4D060382000000000000000000004040401E40404040 000000066.46 000000000.001E00000000000000000000    80                                                                                                                                                                                                                                                                                                                  
09110310664130002G2675906759000000260478001248000000101CHARLOTTE                NC           5 D                00                                      NNNN00 N 00                   000000000000                                                                   78202445                                                                                                                                                                                                                                                                                                                                                                                                                                               
09110320664130041DT67590675900000026047800124800000010180012424001193209900016100143072820230000000429020923000000000249134430602XXXXXX2901       VS11    0001111   NYV1 A E303209684092705N8400000000042904V6L00    05DNHPPYC                    015977    VD84000000004290 N  599978202445                            000000000+                F DF 00381                     000000000  N000000000       0000000000000.00 0000000.00   0000000.00                             000000000000000                                                                                                                                                     01424 A000000000000 0000000000000.49     00800 01500                  
09110330664130001E167590675900000026047800124800000010100E0F8C8024A 00000000000.004040404040404040404040404040404040404040404040404006011203A08000000000000000000000404040404040404040404040404040  0000084018008080008000230728B35B74854D6BAE6052B1B138404040400840A00000000310100000000000000000006DB9FC0C0382000000000000000000004040401E40404040 000000042.90 000000000.001E00000000000000000000    80                                                                                                                                                                                                                                                                                                                  
09110340664130002G2675906759000000260478001248000000101CHARLOTTE                NC           5 D                00                                      NNNN00 N 00                   000000000000                                                                   78202445                                                                                                                                                                                                                                                                                                                                                                                                                                               
09110350664130042DT67590675900000026047800124800000010180012424001193209900016100150072820230000000898120923000000000249134432739XXXXXX4443       VS11    0001111   NYV1 A E583209691071296N840000000008981SKSJ00    05DNHPPYC                    238084    VD84000000008981 N  599978202445                            000000000+                F DF 10433                     000000000  Y000000000 338   0000000000000.00 0000000.00   0000000.00                             000000000000000                                                                                                                                                     01424 A000000000000 0000000000000.26     00050 02200                  
09110360664130001E167590675900000026047800124800000010100E0F8C8002A 00000000000.004040404040404040404040404040404040404040404040404006011203A0A000000000000000000000404040404040404040404040404040  0000084018008080008000230728AB14CA90E9A65AAA78F3952E404040400840A000000003101000000000000000000071462832915CD4CD30300000000000004040401E40404040 000000089.81 000000000.001E00000000000000000000    80                                                                                                                                                                                                                                                                                                                  
09110370664130002G2675906759000000260478001248000000101CHARLOTTE                NC           5 D                00                                      NNNN00 N 00                   000000000000                                                                   78202445                                                                                                                                                                                                                                                                                                                                                                                                                                               
09110380664130043DT67590675900000026047800124800000010180012477287283209900016100160072820230000000643520923000000000249134531257XXXXXX8683       MS02WI09          NY 1 0 AMDJGL1MF20728  N840000000006435          07DNHPPYC                    132938    MD84000000006435 N  599978202445                            000000000+M10101M5434C    MDJ  10815                     000000000  1                0000000000000.00 0000000.00   0000000.00                             000000000000000                                                                                                                                                   B101424  000000000000 0000000000000.25     00050 02200                  
09110390664130001E1675906759000000260478001248000000101000060C80031 00000000000.00404040404040404040404040404040404040404040404040400414A04301A20000000000000000000000FF00000000000000000000000000  0000084019800000008001230728C2A3E3C768858A28C51EF035404040400840A0000000041010000000000000000000404040404040404040404040404040404040401E40404040 000000064.35 000000000.001E03000000000000000000    80                                                                                                                                                                                                                                                                                                                  
09110400664130002G2675906759000000260478001248000000101CHARLOTTE                NC           5 J                                                        NNNN              000000000000000000000000       03               7                                          78202445                                                                                                                                                                                                                                                                                                                                                                                                                                               
09110410664130044DT67590675900000026047800124800000010180012424001193209900016100176072820230000000214520923000000000249134486924XXXXXX4358       VS11    0001111   NYV1 A E583209705769124N840000000002145V7SD00    07DNHPPYC                    058430    VD84000000002145 N  599978202445                            000000000+                F DF 10433                     000000000  Y000000000 338   0000000000000.00 0000000.00   0000000.00                             000000000000000                                                                                                                                                     01424 A000000000000 0000000000000.23     00050 02200                  
09110420664130001E167590675900000026047800124800000010100E068C8026F 00000000000.00404040404040404040404040404040404040404040404040401F430551A00000000000000000035009000000000000000000000000000000  0000084000400000000000230728516A1BA356FC59361ACF6732404040400840A0000000031010000000000000000000404040404040404040404040404040404040404040404040 000000021.45 000000000.004040400000000000000000    80                                                                                                                                                                                                                                                                                                                  
09110430664130002G2675906759000000260478001248000000101CHARLOTTE                NC           5 D                00                                      NNNN00 N 00                   000000000000                                                                   78202445                                                                                                                                                                                                                                                                                                                                                                                                                                               
09110440664130045DT67590675900000026047800124800000010180012424001193209900016100184072820230000000214520923000000000249134433477XXXXXX8213       VS11    0001111   NYV1 A E383209709074077N840000000002145LM9R00    07DNHPPYC                    532423    VD84000000002145 N  599978202445                            000000000+                F DF 10433                     000000000  Y000000000 338   0000000000000.00 0000000.00   0000000.00                             000000000000000                                                                                                                                                     01424 A000000000000 0000000000000.23     00050 02200                  
09110450664130001E167590675900000026047800124800000010100E068C801E8 00000000000.004040404040404040404040404040404040404040404040404006011203A00000000000000000000000404040404040404040404040404040  00010840000000000000002307280C3205B7B0F065790C9484D3404040400840A0000000031010000000000000000000404040404040404040404040404040404040404040404040 000000021.45 000000000.004040400000000000000000    80                                                                                                                                                                                                                                                                                                                  
09110460664130002G2675906759000000260478001248000000101CHARLOTTE                NC           5 D                00                                      NNNN00 N 00                   000000000000                                                                   78202445                                                                                                                                                                                                                                                                                                                                                                                                                                               
09110470664130046DT67590675900000026047800124800000010180012424001193209900016100192072820230000000268020923000000000249134486701XXXXXX2058               1001111   NYV1 A K383209718499771N840000000002680X5MQ00    01DNHPPYC                    885269    VD84000000002680 NDR599978202445                            000000000+                F PF 08171                     000000000  N000000000       0000000000000.00 0000000.00   0000000.00                             000000000000000                                                                                                                                                     01424 E000000000000 0000000000000.67     01750 02000                  
09110480664130046DR675906759000000260478001248000000101                         Z000000000000                                                                                                                                                                                                                                                                                                                                                                                                                                                                                                                                                                                                                               
09110490664130001G2675906759000000260478001248000000101980-2368861              NC           5 P                00                                      NNNN   N                      000000000000                                                                   78202445                                                                                                                                                                                                                                                                                                                                                                                                                                               
09110500664130047DT67590675900000026047800124800000010180012424001193209900016100200072820230000000482320923000000000249134441707XXXXXX6754       VS11    0001111   NYV1 A E383209720395486N840000000004823DLPQ00    07DNHPPYC                    906921    VD84000000004823 N  599978202445                            000000000+                F PF 08170                     000000000  N000000000       0000000000000.00 0000000.00   0000000.00                             000000000000000                                                                                                                                                     01424 A000000000000 0000000000000.70     01150 01500                  
09110510664130001E167590675900000026047800124800000010100E068C80001 00000000000.00404040404040404040404040404040404040404040404040401F42FF32A00000000010030273000000004000000000000000000000000000  00000840006000000000002307282CBB0D60471507656C27BA53404040400840A000000003101000000000000000000011B13ADD0086000000000000000000004040404040404040 000000048.23 000000000.004040400000000000000000    80                                                                                                                                                                                                                                                                                                                  
09110520664130002G2675906759000000260478001248000000101CHARLOTTE                NC           5 P                00                                      NNNN00 N 00                   000000000000                                                                   78202445                                                                                                                                                                                                                                                                                                                                                                                                                                               
09110530664130048DT67590675900000026047800124800000010180012424001193209900016100218072820230000000713220923000000000249134432739XXXXXX8845       VS11    0001111   NYV1 A E463209723819299N840000000007132ZRBK00    07DNHPPYC                    457475    VD84000000007132 N  599978202445                            000000000+                F DF 10433                     000000000  Y000000000 338   0000000000000.00 0000000.00   0000000.00                             000000000000000                                                                                                                                                     01424 A000000000000 0000000000000.26     00050 02200                  
09110540664130001E167590675900000026047800124800000010100E068C80474 00000000000.004040404040404040404040404040404040404040404040404006011103A00000000000000000000000404040404040404040404040404040  00000840000000000000002307282CE91A07F78A528542D1BAFA404040400840A0000000031010000000000000000000E357E3DFE63E781430300000000000004040404040404040 000000071.32 000000000.004040400000000000000000    80                                                                                                                                                                                                                                                                                                                  
09110550664130002G2675906759000000260478001248000000101CHARLOTTE                NC           5 D                00                                      NNNN00 N 00                   000000000000                                                                   78202445                                                                                                                                                                                                                                                                                                                                                                                                                                               
09110560664130049DT67590675900000026047800124800000010180012424001193209900016100226072820230000001158120923000000000249134474473XXXXXX4394       VS11    0001111   NYV1 A E303209726576508N8400000000115819H3V00    05DNHPPYC                    101905    VD84000000011581 N  599978202445                            000000000+                F DF 10433                     000000000  Y000000000 338   0000000000000.00 0000000.00   0000000.00                             000000000000000                                                                                                                                                     01424 A000000000000 0000000000000.28     00050 02200                  
09110570664130001E167590675900000026047800124800000010100E0F8C801D0 00000000000.004040404040404040404040404040404040404040404040404006011203A08000000000000000000000404040404040404040404040404040  0000084018008080008000230728F380BD7B7F187B72E95F4A4C404040400840A0000000031010000000000000000000F0C030200080000020200000000000004040401E40404040 000000115.81 000000000.001E00000000000000000000    80                                                                                                                                                                                                                                                                                                                  
09110580664130002G2675906759000000260478001248000000101CHARLOTTE                NC           5 D                00                                      NNNN00 N 00                   000000000000                                                                   78202445                                                                                                                                                                                                                                                                                                                                                                                                                                               
09110590664130050DT67590675900000026047800124800000010180012424001193209900016100234072820230000000250020923000000000249134465992XXXXXX5123       VS11    0001111   NYV1 A E303209734358440N840000000002500TS8700    07DNHPPYC                    567440    VD84000000002500 N  599978202445                            000000000+                F DF 00381                     000000000  N000000000       0000000000000.00 0000000.00   0000000.00                             000000000000000                                                                                                                                                     01424 A000000000000 0000000000000.35     00800 01500                  
09110600664130001E167590675900000026047800124800000010100E068C80006 00000000000.00404040404040404040404040404040404040404040404040401F42FF32A00000000010030273000000004000000000000000000000000000  0000084000400000000000230728CE0A445FC0AC394F9FA42794404040400840A000000003101000000000000000000063518A420086000000000000000000004040404040404040 000000025.00 000000000.004040400000000000000000    80                                                                                                                                                                                                                                                                                                                  
09110610664130002G2675906759000000260478001248000000101CHARLOTTE                NC           5 D                00                                      NNNN00 N 00                   000000000000                                                                   78202445                                                                                                                                                                                                                                                                                                                                                                                                                                               
09110620664130051DT67590675900000026047800124800000010180012424001193209900016100242072820230000001528220923000000000249134402282XXXXXX4456       VS11    0001111   NYV1 A E583209736987238N84000000001528246HH00    05DNHPPYC                    062818    VD84000000015282 N  599978202445                            000000000+                F DF 00381                     000000000  N000000000       0000000000000.00 0000000.00   0000000.00                             000000000000000                                                                                                                                                     01424 A000000000000 0000000000001.37     00800 01500                  
09110630664130001E167590675900000026047800124800000010100E0F8C8002B 00000000000.004040404040404040404040404040404040404040404040404006011203A0A000000000000000000000404040404040404040404040404040  0001084018008080008000230728B62DF84593C8EB0104B4F3EE404040400840A0000000031010000000000000000000417986450082000000000000000000004040401E40404040 000000152.82 000000000.001E00000000000000000000    80                                                                                                                                                                                                                                                                                                                  
09110640664130002G2675906759000000260478001248000000101CHARLOTTE                NC           5 D                00                                      NNNN00 N 00                   000000000000                                                                   78202445                                                                                                                                                                                                                                                                                                                                                                                                                                               
09110650664130052DT67590675900000026047800124800000010180012424001193209900016100259072820230000000321820923000000000249134432739XXXXXX2799       VS11    0001111   NYV1 A E463209746108604N840000000003218LSF600    05DNHPPYC                    608351    VD84000000003218 N  599978202445                            000000000+                F DF 10433                     000000000  Y000000000 338   0000000000000.00 0000000.00   0000000.00                             000000000000000                                                                                                                                                     01424 A000000000000 0000000000000.24     00050 02200                  
09110660664130001E167590675900000026047800124800000010100E0F8C8001B 00000000000.004040404040404040404040404040404040404040404040404006011203A02000000000000000000000404040404040404040404040404040  0000084018008080008000230728F26C27EC609B6295EB32FE46404040400840A0000000031010000000000000000000A9CFA758303949F530300000000000004040401E40404040 000000032.18 000000000.001E00000000000000000000    80                                                                                                                                                                                                                                                                                                                  
09110670664130002G2675906759000000260478001248000000101CHARLOTTE                NC           5 D                00                                      NNNN00 N 00                   000000000000                                                                   78202445                                                                                                                                                                                                                                                                                                                                                                                                                                               
