02466530627830002BH6759067590000000051380000180000090171028202230122000000000001223    0000090001010002Y8000016759C10312022                                                                                                                                                                                                                                                                                                                                                                                                                                                                                                                                                                                                 
02466540627830003DT67590675900000000513800001800000010180000124001192301900010100015102820220000000021130122000000000001223410039XXXXXX6426       VK04VS111111111   NYV1 A E462302101373177N840000000000211L3PT00    05DNVERMONT STATE BANK2      77065D    VS84000000000211 N  549975705321                            000000000+                D CD 12057                     000000000  N000000000 452DB 0000000000000.08 0000000.00   0000000.00                             000000000000000                                                                                                                                                     01424 F000000000000 0000000000000.05     02200 00000                  
02466550627830004DT67590675900000000513800001800000010180000176509752301900010100039102820220000000023230122000000000001223601100XXXXXX6003   BA50                  NY41 0 N752260025169287N840000000000232    00    05DNVERMONT STATE BANK2      02826R    DS84000000000232 N  549975705321050                         000000000+0000004910H00   DCCDI11946601005  225516000000 000000000  0          821DB 0000000000000.09 0000000.00   0000000.00                             000000000000000                                                                                                                                                     01424  000000000000 0000000000000.05     01950 00000                  
02466560627830005DT67590675900000000513800001800000010180000177287282301900010100041102820220000000022530122000000000001223516573XXXXXX0451       MS02WI09          NY 2 0 AMDJJE2ESL1028  N840000000000225          05DNVERMONT STATE BANK2      225818    MD84000000000225 N  549975705321                            000000000+M10101C1334C    MDJ  00505                     000000000  N                0000000000000.00 0000000.00   0000000.00                             000000000000000                                                                                                                                                     01424  000000000000 0000000000000.07     01550 00400                  
02466570627830006DT67590675900000000513800001800000033080000176759002301900010100028102820220000000055530122000000000001223516573XXXXXX0451                         NY42 0 N               N840000000000555      ME  05DNVERMONT STATE BANK2      862250    DB84000000000555 N  549975705321                            000000000+                     09599                                N                0000000000000.00 0000000.00   0000000.00                             000000000000000                                                                                                                                                     01424  000000000000 0000000000000.21     00750 00000                  
02466580656760002BH6759067590000000017480000180000090171030202230322000000000000125    0000090001040002N8000016759C10312022                                                                                                                                                                                                                                                                                                                                                                                                                                                                                                                                                                                                 
02466590656760003DT67590675900000000174800001800000010180000187287282303900010400026102920220000000012530322000000000000125558158XXXXXX7298                         NY 4607AMDBXW59UA1029  N840000000000125          81DNVERMONT STATE BANK       2IACCQ    MD84000000000125 NP1549975551542   7742988961               000000000+600450S00130    MDB  00062                     000000000  N                0000000000000.00 0000000.00   0000000.00                             000000000000000                                                                                                                                                   U001418  000000000000 0000000000000.13     02650 01000                  
02466600656760001P1675906759000000001748000018000000101                                                          000000000000          1000            390335740                                                                                                                                                                                                                                                                                                                                                                                                                                                                                                                                                            
02466610656760004BH6759067590000000017480000180000090171030202230322000000000001677    0000090001120003N8000016759C10312022                                                                                                                                                                                                                                                                                                                                                                                                                                                                                                                                                                                                 
02466620656760005DT67590675900000000174800001800000010180000124001192303900011200010103020220000000058230322000000000001677440066XXXXXX5953       PS01    0000000   NYV1 0 N382303708641619N840000000000582B25V00    01DNVERMONT STATE BANK       08112A    VS84000000000582 N  549975549271                            000000000+                A CA 11868                     000000000  N000000010 105   0000000000000.00 0000000.00   0000000.00                             000000000000000                                                                                                                                                     01418  000000000000 0000000000000.28     03150 01000                  
02466630656760006DT67590675900000000174800001800000010180000177287282303900011200020103020220000000052830322000000000001677558158XXXXXX5954                         NY 1 0 AMDBU1T4V31030  N840000000000528          01DNVERMONT STATE BANK       2YJPVH    MD84000000000528 NP1549975549271                            000000000+M1010115414C    MDB  00063                     000000000  N                0000000000000.00 0000000.00   0000000.00                             000000000000000                                                                                                                                                   E101418  000000000000 0000000000000.21     02050 01000                  
02466640656760001P1675906759000000001748000018000000101                                                 000000000000000000000          1000   000000000390335740            000000000000                                                                                                                                                                                                                                                                                                                                                                                                                                                                                                                                    
02466650656760007DT67590675900000000174800001800000010180000176509752303900011200034103020220000000056730322000000000001677601129XXXXXX4766   BA00                  NY 1 0 N752261500536029N840000000000567    00    01DNVERMONT STATE BANK       03064R    DS84000000000567 N  549975549271010                         000000000+0000004910H00   DCCDI01010202005  145413000000 000000000  0          122   0000000000000.00 0000000.00   0000000.00                             000000000000000                                                                                                                                                     01418  000000000000 0000000000000.22     02030 01000                  
