03441890331450002BH6759067590000002092580011280000090170414202310423000000000160293    0000090001080011Y8001126759C04172023                                                                                                                                                                                                                                                                                                                                                                                                                                                                                                                                                                                                 
03441900331450003DT67590675900000020925800112800000010180011224001193104900010800108041420230000000489310423000000000160293435536XXXXXX2318               2111111   NYV4 A7W583104647153988N840000000004893FGHW00    01DNJ K DISTRIBUTION INC     140159    VD84000000004893 NP1549977712156   8249534151               000000000+                G DG 10352                     000000000  Y000000000 338   0000000000000.00 0000000.00   0000000.00                             000000000000000                                                                                                                                                     01424 G000000004893 0000000000000.24     00050 02200                  
03441910331450001P16759067590000002092580011280000001010000000000000000                             2000000000000000000000000              000000000000                    0000000000000000000000000                    000000000000                                                                                                                                                                                                                                                                                                                                                                                                                                                                                        
03441920331450004DT67590675900000020925800112800000010180011224001193104900010800116041420230000015540010423000000000160293435546XXXXXX8491               2111111   NYV4 A7W383104782898699N840000000155400PPM700    01DNJ K DISTRIBUTION INC     058112    VD84000000155400 NP1549977712156   8250266905               000000000+                F DF 10420                     000000000  Y000000000 338   0000000000000.00 0000000.00   0000000.00                             000000000000000                                                                                                                                                     01424 G000000155400 0000000000001.00     00050 02200                  
03441930331450001P16759067590000002092580011280000001010000000000000000                             2000000000000000000000000              000000000000                    0000000000000000000000000                    000000000000                                                                                                                                                                                                                                                                                                                                                                                                                                                                                        
03441940331450005BH6759067590000002338280011780000090170414202310423000000000000500    0000090001010002Y8001176759C04172023                                                                                                                                                                                                                                                                                                                                                                                                                                                                                                                                                                                                 
03441950331450006DT67590675900000023382800117800000010180011787287283104900010100021041420230000000050010423000000000000500512230XXXXXX2143                         NY 4607AMWEJIAE5Y0414  N840000000000500          81DNKDISP                    71684Z    MC84000000000500 N  549977811439   8249023299               000000000+600450S00130    MWE  12152                     000000000  N                0000000000000.00 0000000.00   0000000.00                             000000000000000                                                                                                                                                   U001424  000000000000 0000000000000.15     02600 00200                  
03441960331450007BH6759067590000001427480010280000090170414202310423000000000418932    0000090001586204Y8001026759C04172023                                                                                                                                                                                                                                                                                                                                                                                                                                                                                                                                                                                                 
03441970331450008DT67590675900000014274800102800000010180010224001193104900015851577041320230000000700410423000000000418932404768XXXXXX2412               2111111   NYV4 A7W303100325480451N840000000007004BPQX00    01DNCBD8666317293            622897    VS84000000007004 NP1549977145232   D3D613A8CDTA88B304B62C1  000000000+                B CB 12107                     000000000  N000000000 494   0000000000000.00 0000000.00   0000000.00                             000000000000000                                                                                                                                                     01424 G000000007004 0000000000001.53     02040 01000                  
03441980331450001P16759067590000001427480010280000001010000000000000000                             2000000000000000000000000              000000000000                    0000000000000000000000000                    000000000000                                                                                                                                                                                                                                                                                                                                                                                                                                                                                        
03441990331450009DT67590675900000014274800102800000010180010224001193104900015851585041320230000000643910423000000000418932486796XXXXXX7416               2111111   NYV4 A7W583100325497705N8400000000064396XT300    01DNCBD8666317293            090205    VD84000000006439 NP1549977145232   C0B02D682FT805226746828  000000000+                F DF 10420                     000000000  Y000000000 338   0000000000000.00 0000000.00   0000000.00                             000000000000000                                                                                                                                                     01424 G000000006439 0000000000000.25     00050 02200                  
03442000331450001P16759067590000001427480010280000001010000000000000000                             2000000000000000000000000              000000000000                    0000000000000000000000000                    000000000000                                                                                                                                                                                                                                                                                                                                                                                                                                                                                        
03442010331450010DT67590675900000014274800102800000010180010224001193104900015852302041320230000002116210423000000000418932410039XXXXXX8295               2111111   NYV4 A7W303100558099837N840000000021162NGJ200    01DNCBD8666317293            97162D    VS84000000021162 NP1549977145232   5C3F4241DBTF1321AFE843C  000000000+                D CD 12109                     000000000  N000000000 498   0000000000000.00 0000000.00   0000000.00                             000000000000000                                                                                                                                                     01424 G000000021162 0000000000005.39     02500 01000                  
03442020331450001P16759067590000001427480010280000001010000000000000000                             2000000000000000000000000              000000000000                    0000000000000000000000000                    000000000000                                                                                                                                                                                                                                                                                                                                                                                                                                                                                        
03442030331450011DT67590675900000014274800102800000010180010287287283104900015852311041320230000002080610423000000000418932515334XXXXXX7679       ME03KE06MS02      NY 4607AMDJMPTFDQ0410  N840000000020806          81DNCBD8666317293            051366    MD84000000020806 N  549977145232   0DBC4CCC3ETB3386F45CE32  000000000+600450S00130    MDJ  10813                     000000000  1                0000000000000.00 0000000.00   0000000.00                             000000000000000                                                                                                                                                   U001424  000000000000 0000000000000.32     00050 02200                  
03442040331450012DT67590675900000014274800102800000010180010287287283104900015853210041320230000002106210423000000000418932542432XXXXXX1262       ME03KE06MS02      NY 4607AMDJTEM3NQ0410  N840000000021062          81DNCBD8666317293            493600    MD84000000021062 N  549977145232   4A68A004A5T503D69B63AF6  000000000+600450S00130    MDJ  10813                     000000000  1                0000000000000.00 0000000.00   0000000.00                             000000000000000                                                                                                                                                   U001424  000000000000 0000000000000.33     00050 02200                  
03442050331450013DT67590675900000014274800102800000010180010276509753104900015853464041320230000002141010423000000000418932601100XXXXXX5389   BA00                  NY 4 07N813086145045841N840000000021410    00    01DNCBD8666317293            01092R    DS84000000021410 N  549977145232070                         000000000+1015104910600   DCCDI11325833009  155504000000 000000000  0          460   0000000000000.00 0000000.00   0000000.00                             000000000000000                                                                                                                                                     01424  000000000000 0000000000004.45     02030 01000                  
03442060331450014DT67590675900000014274800102800000010180010276509753104900015853506041320230000001987010423000000000418932601101XXXXXX7594   BA00                  NY 4 07N873086163049391N840000000019870    00    01DNCBD8666317293            01038B    DZ84000000019870 N  549977145232070                         000000000+1015104910600   DMCDI01012833013  162504000000 000000000  0          124   0000000000000.00 0000000.00   0000000.00                             000000000000000                                                                                                                                                     01424  000000000000 0000000000005.02     02450 01500                  
03442070331450015DT67590675900000014274800102800000010180010287287283104900015853913041320230000001987010423000000000418932520583XXXXXX2140       ME03KE06MS02      NY 4607AMDSVS4RII0410  N840000000019870          81DNCBD8666317293            127842    MD84000000019870 N  549977145232   D07E6B5B3FT05E4223668F4  000000000+600450S00130    MDS  00401                     000000000  N                0000000000000.00 0000000.00   0000000.00                             000000000000000                                                                                                                                                   U001424  000000000000 0000000000003.43     01650 01500                  
03442080331450016DT67590675900000014274800102800000010180010276509753104900015854017041320230000000756410423000000000418932601100XXXXXX8322   BA00                  NY 4 07N803086310059964N840000000007564    00    01DNCBD8666317293            01071R    DS84000000007564 N  549977145232070                         000000000+1015104910600   DCCDI11325498687  203005000000 000000000  0          460   0000000000000.00 0000000.00   0000000.00                             000000000000000                                                                                                                                                     01424  000000000000 0000000000001.64     02030 01000                  
03442090331450017DT67590675900000014274800102800000010180010224001193104900015854233041320230000002651810423000000000418932448233XXXXXX2655               2111111   NYV4 A7W303101111041788N84000000002651865K200    01DNCBD8666317293            020505    VD84000000026518 NP1549977145232   1E6AD849FET5B01B89FC7FE  000000000+                F DF 10420                     000000000  Y000000000 338   0000000000000.00 0000000.00   0000000.00                             000000000000000                                                                                                                                                     01424 G000000026518 0000000000000.35     00050 02200                  
03442100331450001P16759067590000001427480010280000001010000000000000000                             2000000000000000000000000              000000000000                    0000000000000000000000000                    000000000000                                                                                                                                                                                                                                                                                                                                                                                                                                                                                        
03442110331450018DT67590675900000014274800102800000010180010224001193104900015860396041320230000001495410423000000000418932426684XXXXXX7799               2111111   NYV4 A7W583104029655853N84000000001495435TG00    01DNCBD8666317293            07755C    VS84000000014954 NP1549977145232   C43282AC57T94FD055B8CC6  000000000+                C CC 12108                     000000000  N000000000 496   0000000000000.00 0000000.00   0000000.00                             000000000000000                                                                                                                                                     01424 G000000014954 0000000000003.17     02050 01000                  
03442120331450001P16759067590000001427480010280000001010000000000000000                             2000000000000000000000000              000000000000                    0000000000000000000000000                    000000000000                                                                                                                                                                                                                                                                                                                                                                                                                                                                                        
03442130331450019DT67590675900000014274800102800000010180010224001193104900015860404041320230000001067310423000000000418932426684XXXXXX7799               2111111   NYV4 A7W583104029945413N840000000010673DJG900    01DNCBD8666317293            08629C    VS84000000010673 NP1549977145232   C43282AC57TC9579410960C  000000000+                C CC 12108                     000000000  N000000000 496   0000000000000.00 0000000.00   0000000.00                             000000000000000                                                                                                                                                     01424 G000000010673 0000000000002.29     02050 01000                  
03442140331450001P16759067590000001427480010280000001010000000000000000                             2000000000000000000000000              000000000000                    0000000000000000000000000                    000000000000                                                                                                                                                                                                                                                                                                                                                                                                                                                                                        
03442150331450020DT67590675900000014274800102800000010180010224001193104900015860446041320230000001380810423000000000418932441103XXXXXX8237               2111111   NYV4 A7W463104045044625N840000000013808MBXB00    01DNCBD8666317293            041521    VD84000000013808 NP1549977145232   A20E833CCBTF02AADA82906  000000000+                F DF 10420                     000000000  Y000000000 338   0000000000000.00 0000000.00   0000000.00                             000000000000000                                                                                                                                                     01424 G000000013808 0000000000000.29     00050 02200                  
03442160331450001P16759067590000001427480010280000001010000000000000000                             2000000000000000000000000              000000000000                    0000000000000000000000000                    000000000000                                                                                                                                                                                                                                                                                                                                                                                                                                                                                        
03442170331450021DT67590675900000014274800102800000010180010287287283104900015860462041320230000000149510423000000000418932517800XXXXXX4977       ME03KE06MS02      NY 4607AMCSK2YMLJ0413  N840000000001495          81DNCBD8666317293            013022    MC84000000001495 N  549977145232   E6FC7209CBTFCC05F423A75  000000000+600450S00130    MCS  00013                     000000000  N                0000000000000.00 0000000.00   0000000.00                             000000000000000                                                                                                                                                   U001424  000000000000 0000000000000.39     01950 01000                  
03442180331450022DT67590675900000014274800102800000010180010287287283104900015860520041320230000001499110423000000000418932542179XXXXXX6158       ME03KE06MS02      NY 4607AMDJUIHOLK0413  N840000000014991          81DNCBD8666317293            140634    MD84000000014991 N  549977145232   66526B1DA2T6F1BF7BE4D92  000000000+600450S00130    MDJ  10813                     000000000  1                0000000000000.00 0000000.00   0000000.00                             000000000000000                                                                                                                                                   U001424  000000000000 0000000000000.29     00050 02200                  
03442190331450023DT67590675900000014274800102800000010180010287287283104900015860744041420230000001280410423000000000418932517805XXXXXX1681       ME03KE06MS02      NY 4607AMPL0CP35I0414  N840000000012804          81DNCBD8666317293            00171B    MC84000000012804 N  549977145232   5B73991807T23FA30C8DB47  000000000+600450S00130    MPL  00580                     000000000  N                0000000000000.00 0000000.00   0000000.00                             000000000000000                                                                                                                                                   U001424  000000000000 0000000000002.79     02100 01000                  
03442200331450024DT67590675900000014274800102800000010180010224001193104900015860776041420230000001987010423000000000418932434256XXXXXX2239               2111111   NYV4 A7W463104204044308N840000000019870LDRL00    01DNCBD8666317293            049445    VD84000000019870 NP1549977145232   DC21249F38T1572E77B626C  000000000+                F DF 10420                     000000000  Y000000000 338   0000000000000.00 0000000.00   0000000.00                             000000000000000                                                                                                                                                     01424 G000000019870 0000000000000.32     00050 02200                  
03442210331450001P16759067590000001427480010280000001010000000000000000                             2000000000000000000000000              000000000000                    0000000000000000000000000                    000000000000                                                                                                                                                                                                                                                                                                                                                                                                                                                                                        
03442220331450025DT67590675900000014274800102800000010180010287287283104900015860918041420230000002174810423000000000418932514759XXXXXX2501       ME03KE06MS02      NY 4607AMDJNPN8WS0414  N840000000021748          81DNCBD8666317293            040621    MD84000000021748 N  549977145232   A1ACD61B82T2F5075F00C93  000000000+600450S00130    MDJ  10813                     000000000  1                0000000000000.00 0000000.00   0000000.00                             000000000000000                                                                                                                                                   U001424  000000000000 0000000000000.33     00050 02200                  
03442230331450026DT67590675900000014274800102800000010680010274001193104900015861001041420230000002106210423000000000418932476970XXXXXX5450               0000000   NYV4 07T383104470370672N840000000021062KL6S00    01CNCBD8666317293            001037    VD84000000021062 NP1549977145232   9D7F6EA62ET26A631DC2CD8  000000000+                F PF 08168                     000000000  N000000000 369   0000000000000.00 0000000.00   0000000.00                             000000000000000                                                                                                                                                     01424  000000021062 0000000000000.00     00000 00000                  
03442240331450001P16759067590000001427480010280000001060000000000000000                             2000000000000000000000000              000000000000                    0000000000000000000000000                    000000000000                                                                                                                                                                                                                                                                                                                                                                                                                                                                                        
03442250331450027DT67590675900000014274800102800000010680010287287283104900015861049041420230000001987010423000000000418932542403XXXXXX4355                         NY 4607AMPLVGP6CI0414  N840000000019870          81CNCBD8666317293            014241    MC84000000019870 N  549977145232   64607086EBT07D422C092CA  000000000+600450S00130    MPL  00565                     000000000  N                0000000000000.00 0000000.00   0000000.00                             000000000000000                                                                                                                                                     01424  000000000000-0000000000003.48     01750 00000                  
03442260331450028DT67590675900000014274800102800000010180010224001193104900015861055041420230000002661110423000000000418932406032XXXXXX4674               2111111   NYV4 A7W463104507793025N840000000026611LJFM00    01DNCBD8666317293            090610    VD84000000026611 NP1549977145232   D1E19F121ET378BC5EEA2E0  000000000+                F DF 10420                     000000000  Y000000000 338   0000000000000.00 0000000.00   0000000.00                             000000000000000                                                                                                                                                     01424 G000000026611 0000000000000.35     00050 02200                  
03442270331450001P16759067590000001427480010280000001010000000000000000                             2000000000000000000000000              000000000000                    0000000000000000000000000                    000000000000                                                                                                                                                                                                                                                                                                                                                                                                                                                                                        
03442280331450029DT67590675900000014274800102800000010680010274001193104900015861076041420230000001499110423000000000418932403766XXXXXX1226               0000000   NYV4 07T303104528343977N840000000014991TX7K00    01CNCBD8666317293            904104    VS84000000014991 NP1549977145232   D13E9ED88ETE4E1632FE088  000000000+                A CA 00245                     000000000  N000000000 166   0000000000000.00 0000000.00   0000000.00                             000000000000000                                                                                                                                                     01424  000000014991-0000000000002.64     01760 00000                  
03442290331450001P16759067590000001427480010280000001060000000000000000                             2000000000000000000000000              000000000000                    0000000000000000000000000                    000000000000                                                                                                                                                                                                                                                                                                                                                                                                                                                                                        
03442300331450030DT67590675900000014274800102800000010180010224001193104900015861113041420230000002106210423000000000418932401105XXXXXX1704               2111111   NYV4 A7W463104558377834N840000000021062GTX500    01DNCBD8666317293            014721    VD84000000021062 NP1549977145232   CE42A2FE77T9244BFB5C2F1  000000000+                F DF 10420                     000000000  Y000000000 338   0000000000000.00 0000000.00   0000000.00                             000000000000000                                                                                                                                                     01424 G000000021062 0000000000000.33     00050 02200                  
03442310331450001P16759067590000001427480010280000001010000000000000000                             2000000000000000000000000              000000000000                    0000000000000000000000000                    000000000000                                                                                                                                                                                                                                                                                                                                                                                                                                                                                        
03442320331450031DT67590675900000014274800102800000010680010276509753104900015861145041420230000001844110423000000000418932601100XXXXXX2207   BA00                  NY 4 07N753089420917448N840000000018441    00    01CNCBD8666317293            01411R    DS84000000018441 N  549977145232070                         000000000+1015104910600   DCCDI01022665009  105451200000 000000000  0          134   0000000000000.00 0000000.00   0000000.00                             000000000000000                                                                                                                                                     01424  000000000000-0000000000003.23     01750 00000                  
03442330331450032DT67590675900000014274800102800000010180010224001193104900015861162041420230000001987010423000000000418932410793XXXXXX6732               2111111   NYV4 A7W463104574617168N840000000019870DNQP00    01DNCBD8666317293            014175    VS84000000019870 NP1549977145232   1B7E36388FTEF2C0C5485DE  000000000+                B CB 12107                     000000000  N000000000 494   0000000000000.00 0000000.00   0000000.00                             000000000000000                                                                                                                                                     01424 G000000019870 0000000000004.15     02040 01000                  
03442340331450001P16759067590000001427480010280000001010000000000000000                             2000000000000000000000000              000000000000                    0000000000000000000000000                    000000000000                                                                                                                                                                                                                                                                                                                                                                                                                                                                                        
03442350331450033DT67590675900000014274800102800000010180010287287283104900015861254041420230000001499110423000000000418932530264XXXXXX5674       ME03KE06MS02      NY 4607AMDJIF7QNG0414  N840000000014991          81DNCBD8666317293            665177    MD84000000014991 N  549977145232   01CFFAA60FT73D9B4A44AB3  000000000+600450S00130    MDJ  00401                     000000000  N                0000000000000.00 0000000.00   0000000.00                             000000000000000                                                                                                                                                   U001424  000000000000 0000000000002.62     01650 01500                  
03442360331450034DT67590675900000014274800102800000010180010287287283104900015861296041420230000001987010423000000000418932511563XXXXXX3820       ME03KE06MS02      NY 4607AMPVT3EFNG0414  N840000000019870          81DNCBD8666317293            SFM17E    MD84000000019870 N  549977145232   52A4072378TFF5CE1609FF8  000000000+600450S00130    MPV  09899                     000000000  N                0000000000000.00 0000000.00   0000000.00                             000000000000000                                                                                                                                                   U001424  000000000000 0000000000003.70     01760 02000                  
03442370331450035DT67590675900000014274800102800000010180010287287283104900015861312041420230000000999810423000000000418932533248XXXXXX8036       ME03KE06MS02      NY 4607AMPVR55P940414  N840000000009998          81DNCBD8666317293            P0LMRT    MD84000000009998 N  549977145232   63DBBA3E42TC1DC8267E7D4  000000000+600450S00130    MPV  09899                     000000000  N                0000000000000.00 0000000.00   0000000.00                             000000000000000                                                                                                                                                   U001424  000000000000 0000000000001.96     01760 02000                  
03442380331450036DT67590675900000014274800102800000010680010274001193104900015861381041420230000002698410423000000000418932410039XXXXXX8386               0000000   NYV4 07T583104696130641N840000000026984RGVV00    01CNCBD8666317293            16912A    VS84000000026984 NP1549977145232   820DC1210FT790B7D6FBDA0  000000000+                A CA 00245                     000000000  N000000000 166   0000000000000.00 0000000.00   0000000.00                             000000000000000                                                                                                                                                     01424  000000026984-0000000000004.75     01760 00000                  
03442390331450001P16759067590000001427480010280000001060000000000000000                             2000000000000000000000000              000000000000                    0000000000000000000000000                    000000000000                                                                                                                                                                                                                                                                                                                                                                                                                                                                                        
03442400331450037DT67590675900000014274800102800000010180010224001193104900015861410041420230000000659910423000000000418932434256XXXXXX5425               2111111   NYV4 A7W303104701869782N8400000000065994DHM00    01DNCBD8666317293            092913    VD84000000006599 NP1549977145232   55FDEA55CETF48996F14600  000000000+                F DF 10420                     000000000  Y000000000 338   0000000000000.00 0000000.00   0000000.00                             000000000000000                                                                                                                                                     01424 G000000006599 0000000000000.25     00050 02200                  
03442410331450001P16759067590000001427480010280000001010000000000000000                             2000000000000000000000000              000000000000                    0000000000000000000000000                    000000000000                                                                                                                                                                                                                                                                                                                                                                                                                                                                                        
03442420331450038DT67590675900000014274800102800000010180010224001193104900015861436041420230000001484810423000000000418932444796XXXXXX1277               2111111   NYV4 A7W583104706467776N840000000014848XWCZ00    01DNCBD8666317293            014613    VS84000000014848 NP1549977145232   B0C1300436T08B8A3397724  000000000+                A CA 12106                     000000000  N000000000 492   0000000000000.00 0000000.00   0000000.00                             000000000000000                                                                                                                                                     01424 G000000014848 0000000000002.91     01890 01000                  
03442430331450001P16759067590000001427480010280000001010000000000000000                             2000000000000000000000000              000000000000                    0000000000000000000000000                    000000000000                                                                                                                                                                                                                                                                                                                                                                                                                                                                                        
03442440331450039DT67590675900000014274800102800000010680010287287283104900015862344041420230000002487010423000000000418932546213XXXXXX3063                         NY94607N         0414  N840000000000000          81CNCBD8666317293                      MD84000000024870 N  549977145232   399597B0C7TF224D6355574  000000000+600450S00130    MDJ  10828                     000000000  1                0000000000000.00 0000000.00   0000000.00                             000000000000000                                                                                                                                                     01424  000000000000 0000000000000.00     00000 00000                  
03442450331450040DT67590675900000014274800102800000010180010224001193104900015861469041420230000002023510423000000000418932461046XXXXXX3208               2111111   NYV4 A7W303104712358121N8400000000202356TCV00    01DNCBD8666317293            054715    VD84000000020235 NP1549977145232   54E037A8D0T09E367F0DC26  000000000+                F DF 10420                     000000000  Y000000000 338   0000000000000.00 0000000.00   0000000.00                             000000000000000                                                                                                                                                     01424 G000000020235 0000000000000.32     00050 02200                  
03442460331450001P16759067590000001427480010280000001010000000000000000                             2000000000000000000000000              000000000000                    0000000000000000000000000                    000000000000                                                                                                                                                                                                                                                                                                                                                                                                                                                                                        
03442470331450041DT67590675900000014274800102800000010180010287287283104900015861569041420230000001380810423000000000418932538051XXXXXX6381       ME03KE06MS02      NY 4607AMDJVQSY940414  N840000000013808          81DNCBD8666317293            253915    MD84000000013808 N  549977145232   1555869D4ET2982BF8EF035  000000000+600450S00130    MDJ  00401                     000000000  N                0000000000000.00 0000000.00   0000000.00                             000000000000000                                                                                                                                                   U001424  000000000000 0000000000002.43     01650 01500                  
03442480331450042DT67590675900000014274800102800000010680010287287283104900015861619041420230000001987010423000000000418932548031XXXXXX9127                         NY 4607AMCGG7XCNH0414  N840000000019870          81CNCBD8666317293            014631    MC84000000019870 N  549977145232   EC1C32C50ATF9E2BDA404FE  000000000+600450S00130    MCG  00565                     000000000  N                0000000000000.00 0000000.00   0000000.00                             000000000000000                                                                                                                                                     01424  000000000000-0000000000003.48     01750 00000                  
03442490331450043DT67590675900000014274800102800000010180010287287283104900015861650041420230000001286710423000000000418932527505XXXXXX3037       ME03KE06MS02      NY 4607AMDJGCNPFF0414  N840000000012867          81DNCBD8666317293            046883    MD84000000012867 N  549977145232   182E3211ACT7783B84B0D09  000000000+600450S00130    MDJ  10813                     000000000  1                0000000000000.00 0000000.00   0000000.00                             000000000000000                                                                                                                                                   U001424  000000000000 0000000000000.28     00050 02200                  
03442500331450044DT67590675900000014274800102800000010180010224001193104900015861691041420230000002255010423000000000418932464906XXXXXX9626               2111111   NYV4 A7W383104753922393N840000000022550XMTH00    01DNCBD8666317293            014380    VS84000000022550 NP1549977145232   D385651405T1227EA7E02F5  000000000+                A CA 12106                     000000000  N000000000 492   0000000000000.00 0000000.00   0000000.00                             000000000000000                                                                                                                                                     01424 G000000022550 0000000000004.36     01890 01000                  
03442510331450001P16759067590000001427480010280000001010000000000000000                             2000000000000000000000000              000000000000                    0000000000000000000000000                    000000000000                                                                                                                                                                                                                                                                                                                                                                                                                                                                                        
03442520331450045DT67590675900000014274800102800000010680010287287283104900015861718041420230000001987010423000000000418932521333XXXXXX7865                         NY 4607AMPLHVPFNH0414  N840000000019870          81CNCBD8666317293            014183    MC84000000019870 N  549977145232   4E9EC7BF56T208C294F7C62  000000000+600450S00130    MPL  00565                     000000000  N                0000000000000.00 0000000.00   0000000.00                             000000000000000                                                                                                                                                     01424  000000000000-0000000000003.48     01750 00000                  
03442530331450046DT67590675900000014274800102800000010180010287287283104900015861767041420230000001484410423000000000418932521131XXXXXX9478       ME03KE06MS02      NY 4607AMWEZX9WNG0414  N840000000014844          81DNCBD8666317293            09568Z    MC84000000014844 N  549977145232   2F4E09CF4ETDDC28B209AD8  000000000+600450S00130    MWE  00737                     000000000  N                0000000000000.00 0000000.00   0000000.00                             000000000000000                                                                                                                                                   U001424  000000000000 0000000000003.96     02600 01000                  
03442540331450047DT67590675900000014274800102800000010180010287287283104900015861775041420230000000499910423000000000418932532211XXXXXX4991       ME03KE06MS02      NY 4607AMPLQ9CCNG0414  N840000000004999          81DNCBD8666317293            014906    MC84000000004999 N  549977145232   1B70F2050CT09145237045F  000000000+600450S00130    MPL  00013                     000000000  N                0000000000000.00 0000000.00   0000000.00                             000000000000000                                                                                                                                                   U001424  000000000000 0000000000001.07     01950 01000                  
03442550331450048DT67590675900000014274800102800000010180010224001193104900015861832041420230000001515410423000000000418932453732XXXXXX5487               2111111   NYV4 A7W383104809385433N8400000000151544SJX00    01DNCBD8666317293            172858    VD84000000015154 NP1549977145232   64BDD4EFCFT726DC996F248  000000000+                F DF 00415                     000000000  N000000000       0000000000000.00 0000000.00   0000000.00                             000000000000000                                                                                                                                                     01424 G000000015154 0000000000002.65     01650 01500                  
03442560331450001P16759067590000001427480010280000001010000000000000000                             2000000000000000000000000              000000000000                    0000000000000000000000000                    000000000000                                                                                                                                                                                                                                                                                                                                                                                                                                                                                        
03442570331450049DT67590675900000014274800102800000010180010287287283104900015861916041420230000002725810423000000000418932521991XXXXXX2092       ME03KE06MS02      NY 4607AMDJI2WMH90414  N840000000027258          81DNCBD8666317293            002055    MD84000000027258 N  549977145232   57C8173AAET618B9AC74712  000000000+600450S00130    MDJ  10813                     000000000  1                0000000000000.00 0000000.00   0000000.00                             000000000000000                                                                                                                                                   U001424  000000000000 0000000000000.36     00050 02200                  
03442580331450050DT67590675900000014274800102800000010180010224001193104900015861972041420230000000160010423000000000418932491239XXXXXX6930               2111111   NYV4 A7W303104848582924N840000000001600FQML00    01DNCBD8666317293            820314    VD84000000001600 NP1549977145232   C9D14DB604T7E7ED37FE3FD  000000000+                G DG 10352                     000000000  Y000000000 338   0000000000000.00 0000000.00   0000000.00                             000000000000000                                                                                                                                                     01424 G000000001600 0000000000000.23     00050 02200                  
03442590331450001P16759067590000001427480010280000001010000000000000000                             1000000000105000000000000              000000000000                    0000000000000000000000000                    000000000000                                                                                                                                                                                                                                                                                                                                                                                                                                                                                        
03442600331450051DT67590675900000014274800102800000010180010224001193104900015861998041420230000001580810423000000000418932483316XXXXXX3032               2111111   NYV4 A7W303104851451568N840000000015808G37V00    01DNCBD8666317293            063919    VD84000000015808 NP1549977145232   592776436FTFD0DBC8ED497  000000000+                F DF 10420                     000000000  Y000000000 338   0000000000000.00 0000000.00   0000000.00                             000000000000000                                                                                                                                                     01424 G000000015808 0000000000000.30     00050 02200                  
03442610331450001P16759067590000001427480010280000001010000000000000000                             2000000000000000000000000              000000000000                    0000000000000000000000000                    000000000000                                                                                                                                                                                                                                                                                                                                                                                                                                                                                        
03442620331450052DT67590675900000014274800102800000010180010224001193104900015862046041420230000001987010423000000000418932473702XXXXXX2176               2111111   NYV4 A7W463104857730590N840000000019870QP8600    01DNCBD8666317293            065439    VD84000000019870 NP1549977145232   CE8645C05ET225EB3219047  000000000+                F DF 10420                     000000000  Y000000000 338   0000000000000.00 0000000.00   0000000.00                             000000000000000                                                                                                                                                     01424 G000000019870 0000000000000.32     00050 02200                  
03442630331450001P16759067590000001427480010280000001010000000000000000                             2000000000000000000000000              000000000000                    0000000000000000000000000                    000000000000                                                                                                                                                                                                                                                                                                                                                                                                                                                                                        
03442640331450053BH6759067590000001516480088880000090170414202310423000000000979292    0000090001468750Y8008886759C04172023                                                                                                                                                                                                                                                                                                                                                                                                                                                                                                                                                                                                 
03442650331450054DT67590675900000015164800888800000010180088824001193104900014666984041320230000000993510423000000000979292448915XXXXXX3864               2111111   NYV4 A7W463100580431011N840000000009935R7CZ00    01DNKETOFUSION833-923-3587   010230    VS84000000009935 NP1599977360677   E6EA8815D6T3A82982A7BD7  000000000+                C CC 12108                     000000000  N000000000 496   0000000000000.00 0000000.00   0000000.00                             000000000000000                                                                                                                                                     01424 G000000009935 0000000000002.14     02050 01000                  
03442660331450001P16759067590000001516480088880000001010000000000000000                             2000000000000000000000000              000000000000                    0000000000000000000000000                    000000000000                                                                                                                                                                                                                                                                                                                                                                                                                                                                                        
03442670331450055DT67590675900000015164800888800000010180088887287283104900014668189041320230000001987010423000000000979292554462XXXXXX8210       ME03KE06MS02      NY 4607AMCSCUBONY0410  N840000000019870          81DNKETOFUSION833-923-3587   05182B    MC84000000019870 N  599977360677   A6759FD41ET4CC54801BFFE  000000000+600450S00130    MCS  00580                     000000000  N                0000000000000.00 0000000.00   0000000.00                             000000000000000                                                                                                                                                   U001424  000000000000 0000000000004.27     02100 01000                  
03442680331450056DT67590675900000015164800888800000010180088824001193104900014668568041320230000002487010423000000000979292403784XXXXXX3613               2111111   NYV4 A7W583100732069543N840000000024870LVTD00    01DNKETOFUSION833-923-3587   510102    VS84000000024870 NP1599977360677   3432156F50T3F22B4E69352  000000000+                A CA 12106                     000000000  N000000000 492   0000000000000.00 0000000.00   0000000.00                             000000000000000                                                                                                                                                     01424 G000000024870 0000000000004.80     01890 01000                  
03442690331450001P16759067590000001516480088880000001010000000000000000                             2000000000000000000000000              000000000000                    0000000000000000000000000                    000000000000                                                                                                                                                                                                                                                                                                                                                                                                                                                                                        
03442700331450057DT67590675900000015164800888800000010180088824001193104900014669087041320230000002487010423000000000979292414720XXXXXX0352               2111111   NYV4 A7W463100783062109N840000000024870XG2C00    01DNKETOFUSION833-923-3587   05208D    VS84000000024870 NP1599977360677   95C50C56FAT67D979B03930  000000000+                D CD 12109                     000000000  N000000000 498   0000000000000.00 0000000.00   0000000.00                             000000000000000                                                                                                                                                     01424 G000000024870 0000000000006.32     02500 01000                  
03442710331450001P16759067590000001516480088880000001010000000000000000                             2000000000000000000000000              000000000000                    0000000000000000000000000                    000000000000                                                                                                                                                                                                                                                                                                                                                                                                                                                                                        
03442720331450058DT67590675900000015164800888800000010180088876509753104900014669598041320230000002487010423000000000979292601100XXXXXX4990   BA00                  NY 4 07N873086247082526N840000000024870    00    01DNKETOFUSION833-923-3587   01023R    DS84000000024870 N  599977360677070                         000000000+1015104910600   DCCDI11325334080  184508000000 000000000  0          460   0000000000000.00 0000000.00   0000000.00                             000000000000000                                                                                                                                                     01424  000000000000 0000000000005.15     02030 01000                  
03442730331450059DT67590675900000015164800888800000010180088887287283104900014670284041320230000001987010423000000000979292524366XXXXXX3493       ME03KE06MS02      NY 4607AMPLHV7RH60410  N840000000019870          81DNKETOFUSION833-923-3587   01064B    MC84000000019870 N  599977360677   24CECB08DAT44422514AED4  000000000+600450S00130    MPL  00580                     000000000  N                0000000000000.00 0000000.00   0000000.00                             000000000000000                                                                                                                                                   U001424  000000000000 0000000000004.27     02100 01000                  
03442740331450060DT67590675900000015164800888800000010680088887287283104900014683220041320230000000516510423000000000979292551267XXXXXX3888                         NY 4607AMDSSHVDLK0413  N840000000005165          81CNKETOFUSION833-923-3587   333586    MD84000000005165 N  599977360677   26EB7D441CTEC552B183EFF  000000000+600450S00130    MDS  00560                     000000000  N                0000000000000.00 0000000.00   0000000.00                             000000000000000                                                                                                                                                     01424  000000000000 0000000000000.00     00000 00000                  
03442750331450061DT67590675900000015164800888800000010180088887287283104900014683279041320230000001987010423000000000979292542418XXXXXX6543       ME03KE06MS02      NY 4607AMPLHMAVTV0413  N840000000019870          81DNKETOFUSION833-923-3587   12765B    MC84000000019870 N  599977360677   D157D2AA8AT4EC2DF1B0D30  000000000+600450S00130    MPL  00580                     000000000  N                0000000000000.00 0000000.00   0000000.00                             000000000000000                                                                                                                                                   U001424  000000000000 0000000000004.27     02100 01000                  
03442760331450062DT67590675900000015164800888800000010180088887287283104900014683287041320230000000259510423000000000979292542418XXXXXX6543       ME03KE06MS02      NY 4607AMPLHMS7TV0413  N840000000002595          81DNKETOFUSION833-923-3587   49405B    MC84000000002595 N  599977360677   D157D2AA8AT419E41D29298  000000000+600450S00130    MPL  00580                     000000000  N                0000000000000.00 0000000.00   0000000.00                             000000000000000                                                                                                                                                   U001424  000000000000 0000000000000.64     02100 01000                  
03442770331450063DT67590675900000015164800888800000010180088887287283104900014683329041320230000000327410423000000000979292514135XXXXXX9701       ME03KE06MS02      NY 4607AMDJHUOHTV0413  N840000000003274          81DNKETOFUSION833-923-3587   148203    MD84000000003274 N  599977360677   CBE08F97FATE99E3D87B1C5  000000000+600450S00130    MDJ  00401                     000000000  N                0000000000000.00 0000000.00   0000000.00                             000000000000000                                                                                                                                                   U001424  000000000000 0000000000000.69     01650 01500                  
03442780331450064DT67590675900000015164800888800000010180088887287283104900014683337041320230000000259510423000000000979292514135XXXXXX9701       ME03KE06MS02      NY 4607AMDJTPTCLK0413  N840000000002595          81DNKETOFUSION833-923-3587   148213    MD84000000002595 N  599977360677   CBE08F97FAT477FC9FC34D7  000000000+600450S00130    MDJ  00401                     000000000  N                0000000000000.00 0000000.00   0000000.00                             000000000000000                                                                                                                                                   U001424  000000000000 0000000000000.58     01650 01500                  
03442790331450065DT67590675900000015164800888800000010180088887287283104900014683345041320230000000198810423000000000979292514135XXXXXX9701       ME03KE06MS02      NY 4607AMDJJSC0MS0413  N840000000001988          81DNKETOFUSION833-923-3587   148310    MD84000000001988 N  599977360677   CBE08F97FAT4364F6239BCA  000000000+600450S00130    MDJ  00401                     000000000  N                0000000000000.00 0000000.00   0000000.00                             000000000000000                                                                                                                                                   U001424  000000000000 0000000000000.48     01650 01500                  
03442800331450066DT67590675900000015164800888800000010180088887287283104900014683352041320230000001394810423000000000979292546325XXXXXX3306       ME03KE06MS02      NY 4607AMWEZ0LXLI0413  N840000000013948          81DNKETOFUSION833-923-3587   05494P    MC84000000013948 N  599977360677   1DCF410636T23B1231F9F94  000000000+600450S00130    MWE  00737                     000000000  N                0000000000000.00 0000000.00   0000000.00                             000000000000000                                                                                                                                                   U001424  000000000000 0000000000003.73     02600 01000                  
03442810331450067DT67590675900000015164800888800000010180088824001193104900014683377041320230000001987010423000000000979292477349XXXXXX9033               2111111   NYV4 A7W303104056624751N840000000019870FSQ600    01DNKETOFUSION833-923-3587   162086    VD84000000019870 NP1599977360677   E29E8E8F90TB1635F4F13A5  000000000+                F DF 00415                     000000000  N000000000       0000000000000.00 0000000.00   0000000.00                             000000000000000                                                                                                                                                     01424 G000000019870 0000000000003.43     01650 01500                  
03442820331450001P16759067590000001516480088880000001010000000000000000                             2000000000000000000000000              000000000000                    0000000000000000000000000                    000000000000                                                                                                                                                                                                                                                                                                                                                                                                                                                                                        
03442830331450068DT67590675900000015164800888800000010180088824001193104900014683385041320230000000327410423000000000979292477349XXXXXX9033               2111111   NYV4 A7W583104057211989N840000000003274X4KX00    01DNKETOFUSION833-923-3587   162207    VD84000000003274 NP1599977360677   E29E8E8F90TC1203DD6A06F  000000000+                F DF 00415                     000000000  N000000000       0000000000000.00 0000000.00   0000000.00                             000000000000000                                                                                                                                                     01424 G000000003274 0000000000000.69     01650 01500                  
03442840331450001P16759067590000001516480088880000001010000000000000000                             2000000000000000000000000              000000000000                    0000000000000000000000000                    000000000000                                                                                                                                                                                                                                                                                                                                                                                                                                                                                        
03442850331450069DT67590675900000015164800888800000010180088824001193104900014683393041320230000000259510423000000000979292441894XXXXXX2219               2111111   NYV4 A7W383104058703897N8400000000025954P7G00    01DNKETOFUSION833-923-3587   282595    VS84000000002595 NP1599977360677   F6419AFB0DTE5D85E939656  000000000+                C CC 12108                     000000000  N000000000 496   0000000000000.00 0000000.00   0000000.00                             000000000000000                                                                                                                                                     01424 G000000002595 0000000000000.63     02050 01000                  
03442860331450001P16759067590000001516480088880000001010000000000000000                             2000000000000000000000000              000000000000                    0000000000000000000000000                    000000000000                                                                                                                                                                                                                                                                                                                                                                                                                                                                                        
03442870331450070DT67590675900000015164800888800000010180088824001193104900014683435041320230000001987010423000000000979292432672XXXXXX0088               2111111   NYV4 A7W383104069047804N840000000019870P27Q00    01DNKETOFUSION833-923-3587   015504    VD84000000019870 NP1599977360677   9B848DC8EAT082A457C3BBB  000000000+                F DF 00415                     000000000  N000000000       0000000000000.00 0000000.00   0000000.00                             000000000000000                                                                                                                                                     01424 G000000019870 0000000000003.43     01650 01500                  
03442880331450001P16759067590000001516480088880000001010000000000000000                             2000000000000000000000000              000000000000                    0000000000000000000000000                    000000000000                                                                                                                                                                                                                                                                                                                                                                                                                                                                                        
03442890331450071DT67590675900000015164800888800000010180088824001193104900014683476041320230000000642810423000000000979292430615XXXXXX1413               2111111   NYV4 A7W303104079898502N840000000006428P3G300    01DNKETOFUSION833-923-3587   218060    VD84000000006428 NP1599977360677   71A0BB584AT51DD2572E4E8  000000000+                F DF 00415                     000000000  N000000000       0000000000000.00 0000000.00   0000000.00                             000000000000000                                                                                                                                                     01424 G000000006428 0000000000001.21     01650 01500                  
03442900331450001P16759067590000001516480088880000001010000000000000000                             2000000000000000000000000              000000000000                    0000000000000000000000000                    000000000000                                                                                                                                                                                                                                                                                                                                                                                                                                                                                        
03442910331450072DT67590675900000015164800888800000010180088887287283104900014683493041320230000001194810423000000000979292512230XXXXXX1362       ME03KE06MS02      NY 4607AMWENPWULK0413  N840000000011948          81DNKETOFUSION833-923-3587   10616Z    MC84000000011948 N  599977360677   3B1EFEEE4BT50F10C37914B  000000000+600450S00130    MWE  00737                     000000000  N                0000000000000.00 0000000.00   0000000.00                             000000000000000                                                                                                                                                   U001424  000000000000 0000000000003.21     02600 01000                  
03442920331450073DT67590675900000015164800888800000010680088874001193104900014683505041320230000000327410423000000000979292431715XXXXXX4057               0000000   NYV4 07T303104083417977N840000000003274W6FG00    01CNKETOFUSION833-923-3587   632841    VD84000000003274 NP1599977360677   A80D91B9E1T94CD69EB0D47  000000000+                F DF 08168                     000000000  N000000000 369   0000000000000.00 0000000.00   0000000.00                             000000000000000                                                                                                                                                     01424  000000003274 0000000000000.00     00000 00000                  
03442930331450001P16759067590000001516480088880000001060000000000000000                             2000000000000000000000000              000000000000                    0000000000000000000000000                    000000000000                                                                                                                                                                                                                                                                                                                                                                                                                                                                                        
03442940331450074DT67590675900000015164800888800000010680088874001193104900014683513041320230000000259510423000000000979292431715XXXXXX4057               0000000   NYV4 07T303104083504749N840000000002595JXWP00    01CNKETOFUSION833-923-3587   632847    VD84000000002595 NP1599977360677   A80D91B9E1T9AC2071409BC  000000000+                F DF 08168                     000000000  N000000000 369   0000000000000.00 0000000.00   0000000.00                             000000000000000                                                                                                                                                     01424  000000002595 0000000000000.00     00000 00000                  
03442950331450001P16759067590000001516480088880000001060000000000000000                             2000000000000000000000000              000000000000                    0000000000000000000000000                    000000000000                                                                                                                                                                                                                                                                                                                                                                                                                                                                                        
03442960331450075DT67590675900000015164800888800000010180088824001193104900014683526041320230000001987010423000000000979292414720XXXXXX7369               2111111   NYV4 A7W583104087042968N840000000019870VNF500    01DNKETOFUSION833-923-3587   05133C    VS84000000019870 NP1599977360677   0F68014F5CT1B1D87307164  000000000+                C CC 12108                     000000000  N000000000 496   0000000000000.00 0000000.00   0000000.00                             000000000000000                                                                                                                                                     01424 G000000019870 0000000000004.17     02050 01000                  
03442970331450001P16759067590000001516480088880000001010000000000000000                             2000000000000000000000000              000000000000                    0000000000000000000000000                    000000000000                                                                                                                                                                                                                                                                                                                                                                                                                                                                                        
03442980331450076DT67590675900000015164800888800000010180088824001193104900014683534041320230000002755010423000000000979292429804XXXXXX4964               2111111   NYV4 A7W463104087195199N840000000027550LX2J00    01DNKETOFUSION833-923-3587   05602D    VS84000000027550 NP1599977360677   AA6792EEC3T4161D91E18A0  000000000+                D CD 12109                     000000000  N000000000 498   0000000000000.00 0000000.00   0000000.00                             000000000000000                                                                                                                                                     01424 G000000027550 0000000000006.99     02500 01000                  
03442990331450001P16759067590000001516480088880000001010000000000000000                             2000000000000000000000000              000000000000                    0000000000000000000000000                    000000000000                                                                                                                                                                                                                                                                                                                                                                                                                                                                                        
03443000331450077DT67590675900000015164800888800000010180088824001193104900014683591041320230000001194810423000000000979292489224XXXXXX3460               2111111   NYV4 A7W463104125513200N840000000011948NSS300    01DNKETOFUSION833-923-3587   333318    VD84000000011948 NP1599977360677   4CBA36D8C4T806B647EAB65  000000000+                F DF 00415                     000000000  N000000000       0000000000000.00 0000000.00   0000000.00                             000000000000000                                                                                                                                                     01424 G000000011948 0000000000002.12     01650 01500                  
03443010331450001P16759067590000001516480088880000001010000000000000000                             2000000000000000000000000              000000000000                    0000000000000000000000000                    000000000000                                                                                                                                                                                                                                                                                                                                                                                                                                                                                        
03443020331450078DT67590675900000015164800888800000010180088887287283104900014683618041320230000000327410423000000000979292534372XXXXXX4474                         NY 4607AMDBTFANVG0413  N840000000003274          81DNKETOFUSION833-923-3587   935701    MD84000000003274 NP1599977360677   D74F2D3C41TE309A8AB68E6  000000000+600450S00130    MDB  00062                     000000000  N                0000000000000.00 0000000.00   0000000.00                             000000000000000                                                                                                                                                   U001424  000000000000 0000000000000.97     02650 01000                  
03443030331450001P1675906759000000151648008888000000101                                                          000000000000          8000            884295529                                                                                                                                                                                                                                                                                                                                                                                                                                                                                                                                                            
03443040331450079DT67590675900000015164800888800000010180088887287283104900014683626041320230000000259510423000000000979292534372XXXXXX4474                         NY 4607AMDBTFCLVG0413  N840000000002595          81DNKETOFUSION833-923-3587   935702    MD84000000002595 NP1599977360677   D74F2D3C41TA030FFC0D34F  000000000+600450S00130    MDB  00062                     000000000  N                0000000000000.00 0000000.00   0000000.00                             000000000000000                                                                                                                                                   U001424  000000000000 0000000000000.79     02650 01000                  
03443050331450001P1675906759000000151648008888000000101                                                          000000000000          8000            884295529                                                                                                                                                                                                                                                                                                                                                                                                                                                                                                                                                            
03443060331450080DT67590675900000015164800888800000010180088824001193104900014683633041320230000002487010423000000000979292415490XXXXXX1382               2111111   NYV4 A7W383104138040236N840000000024870WPFL00    01DNKETOFUSION833-923-3587   090044    VD84000000024870 NP1599977360677   E812E017FDTFC25D6E3AE9F  000000000+                F DF 00415                     000000000  N000000000       0000000000000.00 0000000.00   0000000.00                             000000000000000                                                                                                                                                     01424 G000000024870 0000000000004.25     01650 01500                  
03443070331450001P16759067590000001516480088880000001010000000000000000                             2000000000000000000000000              000000000000                    0000000000000000000000000                    000000000000                                                                                                                                                                                                                                                                                                                                                                                                                                                                                        
03443080331450081DT67590675900000015164800888800000010180088887287283104900014683642041320230000000327410423000000000979292518941XXXXXX8010       ME03KE06MS02      NY 4607AMWETKN0VG0413  N840000000003274          81DNKETOFUSION833-923-3587   36404Z    MC84000000003274 N  599977360677   FADE397D59T47B41A2A0D39  000000000+600450S00130    MWE  00737                     000000000  N                0000000000000.00 0000000.00   0000000.00                             000000000000000                                                                                                                                                   U001424  000000000000 0000000000000.95     02600 01000                  
03443090331450082DT67590675900000015164800888800000010180088824001193104900014683658041320230000000327410423000000000979292415490XXXXXX1382               2111111   NYV4 A7W583104138808271N840000000003274RKZ200    01DNKETOFUSION833-923-3587   090185    VD84000000003274 NP1599977360677   E812E017FDTFE2DBAEB7CB1  000000000+                F DF 00415                     000000000  N000000000       0000000000000.00 0000000.00   0000000.00                             000000000000000                                                                                                                                                     01424 G000000003274 0000000000000.69     01650 01500                  
03443100331450001P16759067590000001516480088880000001010000000000000000                             2000000000000000000000000              000000000000                    0000000000000000000000000                    000000000000                                                                                                                                                                                                                                                                                                                                                                                                                                                                                        
03443110331450083DT67590675900000015164800888800000010180088824001193104900014683666041320230000000259510423000000000979292415490XXXXXX1382               2111111   NYV4 A7W583104139157599N840000000002595JG5200    01DNKETOFUSION833-923-3587   090247    VD84000000002595 NP1599977360677   E812E017FDT5E1AF3AD1B32  000000000+                F DF 00415                     000000000  N000000000       0000000000000.00 0000000.00   0000000.00                             000000000000000                                                                                                                                                     01424 G000000002595 0000000000000.58     01650 01500                  
03443120331450001P16759067590000001516480088880000001010000000000000000                             2000000000000000000000000              000000000000                    0000000000000000000000000                    000000000000                                                                                                                                                                                                                                                                                                                                                                                                                                                                                        
03443130331450084DT67590675900000015164800888800000010180088824001193104900014683674041320230000001499110423000000000979292438864XXXXXX6869               2111111   NYV4 A7W463104144041633N840000000014991S5G800    01DNKETOFUSION833-923-3587   00153C    VS84000000014991 NP1599977360677   8891338B95TE2D6C26187D3  000000000+                C CC 12108                     000000000  N000000000 496   0000000000000.00 0000000.00   0000000.00                             000000000000000                                                                                                                                                     01424 G000000014991 0000000000003.17     02050 01000                  
03443140331450001P16759067590000001516480088880000001010000000000000000                             2000000000000000000000000              000000000000                    0000000000000000000000000                    000000000000                                                                                                                                                                                                                                                                                                                                                                                                                                                                                        
03443150331450085DT67590675900000015164800888800000010180088824001193104900014683682041320230000002487010423000000000979292455225XXXXXX5745               2111111   NYV4 A7W583104150138507N8400000000248703NDV00    01DNKETOFUSION833-923-3587   H55946    VD84000000024870 NP1599977360677   77E4E1D398T4BDFAF8DBB53  000000000+                F DF 10420                     000000000  Y000000000 338   0000000000000.00 0000000.00   0000000.00                             000000000000000                                                                                                                                                     01424 G000000024870 0000000000000.34     00050 02200                  
03443160331450001P16759067590000001516480088880000001010000000000000000                             2000000000000000000000000              000000000000                    0000000000000000000000000                    000000000000                                                                                                                                                                                                                                                                                                                                                                                                                                                                                        
03443170331450086DT67590675900000015164800888800000010180088824001193104900014683740041320230000001499010423000000000979292440906XXXXXX4344               2111111   NYV4 A7W383104171024661N840000000014990V4SF00    01DNKETOFUSION833-923-3587   747099    VD84000000014990 NP1599977360677   33E7F3BC0AT609EC00E9012  000000000+                F DF 00415                     000000000  N000000000       0000000000000.00 0000000.00   0000000.00                             000000000000000                                                                                                                                                     01424 G000000014990 0000000000002.62     01650 01500                  
03443180331450001P16759067590000001516480088880000001010000000000000000                             2000000000000000000000000              000000000000                    0000000000000000000000000                    000000000000                                                                                                                                                                                                                                                                                                                                                                                                                                                                                        
03443190331450087DT67590675900000015164800888800000010180088824001193104900014683781041320230000001499010423000000000979292434258XXXXXX7793               2111111   NYV4 A7W583104175470445N840000000014990FFHG00    01DNKETOFUSION833-923-3587   056367    VD84000000014990 NP1599977360677   DF8C995C5BTC5523B7EF400  000000000+                F DF 10420                     000000000  Y000000000 338   0000000000000.00 0000000.00   0000000.00                             000000000000000                                                                                                                                                     01424 G000000014990 0000000000000.29     00050 02200                  
03443200331450001P16759067590000001516480088880000001010000000000000000                             2000000000000000000000000              000000000000                    0000000000000000000000000                    000000000000                                                                                                                                                                                                                                                                                                                                                                                                                                                                                        
03443210331450088DT67590675900000015164800888800000010180088824001193104900014683831041420230000001987010423000000000979292442743XXXXXX9975               2111111   NYV4 A7W303104192809934N840000000019870BP6R00    01DNKETOFUSION833-923-3587   011306    VD84000000019870 NP1599977360677   0EF1955983T45D2066E6767  000000000+                F PF 08175                     000000000  N000000000       0000000000000.00 0000000.00   0000000.00                             000000000000000                                                                                                                                                     01424 G000000019870 0000000000003.68     01750 02000                  
03443220331450001P16759067590000001516480088880000001010000000000000000                             2000000000000000000000000              000000000000                    0000000000000000000000000                    000000000000                                                                                                                                                                                                                                                                                                                                                                                                                                                                                        
03443230331450089DT67590675900000015164800888800000010180088887287283104900014683840041420230000000327410423000000000979292551560XXXXXX3869       ME03KE06MS02      NY 4607AMDS0VBK5H0414  N840000000003274          81DNKETOFUSION833-923-3587   710578    MD84000000003274 N  599977360677   F7A63E6759T772AE5FE8097  000000000+600450S00130    MDS  00401                     000000000  N                0000000000000.00 0000000.00   0000000.00                             000000000000000                                                                                                                                                   U001424  000000000000 0000000000000.69     01650 01500                  
03443240331450090DT67590675900000015164800888800000010180088824001193104900014683898041420230000001499010423000000000979292434256XXXXXX1592               2111111   NYV4 A7W583104272533480N8400000000149908LXM00    01DNKETOFUSION833-923-3587   097954    VD84000000014990 NP1599977360677   9D4252C243T1875311828B4  000000000+                F DF 10420                     000000000  Y000000000 338   0000000000000.00 0000000.00   0000000.00                             000000000000000                                                                                                                                                     01424 G000000014990 0000000000000.29     00050 02200                  
03443250331450001P16759067590000001516480088880000001010000000000000000                             2000000000000000000000000              000000000000                    0000000000000000000000000                    000000000000                                                                                                                                                                                                                                                                                                                                                                                                                                                                                        
03443260331450091DT67590675900000015164800888800000010180088824001193104900014683906041420230000001987010423000000000979292443047XXXXXX9904               2111111   NYV4 A7W583104345555859N840000000019870529Z00    01DNKETOFUSION833-923-3587   830767    VD84000000019870 NP1599977360677   6FCEB6C6F8T8267E3F07AD4  000000000+                F DF 10420                     000000000  Y000000000 338   0000000000000.00 0000000.00   0000000.00                             000000000000000                                                                                                                                                     01424 G000000019870 0000000000000.32     00050 02200                  
03443270331450001P16759067590000001516480088880000001010000000000000000                             2000000000000000000000000              000000000000                    0000000000000000000000000                    000000000000                                                                                                                                                                                                                                                                                                                                                                                                                                                                                        
03443280331450092DT67590675900000015164800888800000010180088887287283104900014683931041420230000001987010423000000000979292542432XXXXXX4273       ME03KE06MS02      NY 4607AMDJC6JI2L0414  N840000000019870          81DNKETOFUSION833-923-3587   881152    MD84000000019870 N  599977360677   4D9E78DBE8T6D928F1A38E5  000000000+600450S00130    MDJ  10813                     000000000  1                0000000000000.00 0000000.00   0000000.00                             000000000000000                                                                                                                                                   U001424  000000000000 0000000000000.32     00050 02200                  
03443290331450093DT67590675900000015164800888800000010180088887287283104900014683949041420230000000327410423000000000979292542432XXXXXX4273       ME03KE06MS02      NY 4607AMDJB0QWYD0414  N840000000003274          81DNKETOFUSION833-923-3587   879729    MD84000000003274 N  599977360677   4D9E78DBE8TF7099D9DC268  000000000+600450S00130    MDJ  10813                     000000000  1                0000000000000.00 0000000.00   0000000.00                             000000000000000                                                                                                                                                   U001424  000000000000 0000000000000.24     00050 02200                  
03443300331450094DT67590675900000015164800888800000010180088887287283104900014683956041420230000000259510423000000000979292542432XXXXXX4273       ME03KE06MS02      NY 4607AMDJO0SIWS0414  N840000000002595          81DNKETOFUSION833-923-3587   879846    MD84000000002595 N  599977360677   4D9E78DBE8T3C5D7EFA39C4  000000000+600450S00130    MDJ  10813                     000000000  1                0000000000000.00 0000000.00   0000000.00                             000000000000000                                                                                                                                                   U001424  000000000000 0000000000000.23     00050 02200                  
