02628920639107409AD675906759000000133008001028000009071900010301060000002661102272023NYY05823ND6759800102030120232023058025263                                                                                                                                                                                                                                                                                                                                                                                                                                                                                                                                                                                              
02628930639107412AD675906759000000133008001028000009071900010500050000000700402272023NYY05823ND6759800102030120232023058025264                                                                                                                                                                                                                                                                                                                                                                                                                                                                                                                                                                                              
02628940639107415AD675906759000000133008001028000009071900010402250000001741102272023NYY05823ND6759800102030120232023058025265                                                                                                                                                                                                                                                                                                                                                                                                                                                                                                                                                                                              
02628950641450002BH6759067590000000288180088880000090170228202305923000000000114044    0000090001570020N8008886759C03012023                                                                                                                                                                                                                                                                                                                                                                                                                                                                                                                                                                                                 
02628960641450003DT67590675900000002881800888800000010180088824001193059900015700019022820230000002100505923000000000114044415978XXXXXX3217       VS11    0001111   NYV1 A E383059566769712N840000000021005P5DK00    05DNHAPPY HIPPIE             027981    VD84000000021005 N  549976487158                            000000000+                F DF 10433                     000000000  Y000000000 338   0000000000000.00 0000000.00   0000000.00                             000000000000000                                                                                                                                                     01418 A000000000000 0000000000000.33     00050 02200                  
02628970641450004DT67590675900000002881800888800000010180088877287283059900015700029022820230000001875405923000000000114044511953XXXXXX4096       MS02WI09          NY 1 0 AMDJQE07LZ0228  N840000000018754          05DNHAPPY HIPPIE             042168    MD84000000018754 N  549976487158                            000000000+M10101C5434C    MDJ  00402                     000000000  N                0000000000000.00 0000000.00   0000000.00                             000000000000000                                                                                                                                                   B101418  000000000000 0000000000002.12     01050 01500                  
02628980641450005DT67590675900000002881800888800000010180088824001193059900015700035022820230000000167805923000000000114044442793XXXXXX0095       VS11    0001111   NYV1 A E303059610943666N840000000001678HX5G00    05DNHAPPY HIPPIE             329828    VD84000000001678 N  549976487158                            000000000+                F DF 10433                     000000000  Y000000000 338   0000000000000.00 0000000.00   0000000.00                             000000000000000                                                                                                                                                     01418 A000000000000 0000000000000.23     00050 02200                  
02628990641450006DT67590675900000002881800888800000010180088824001193059900015700043022820230000000137205923000000000114044419090XXXXXX1409       VK04VS111111111   NYV1 A E303059617433527N840000000001372WWLL00    05DNHAPPY HIPPIE             969617    VD84000000001372 N  549976487158                            000000000+                F DF 00451                     000000000  N000000000 214   0000000000000.00 0000000.00   0000000.00                             000000000000000                                                                                                                                                     01418 F000000000000 0000000000000.25     01550 00400                  
02629000641450007DT67590675900000002881800888800000010180088824001193059900015700050022820230000000627805923000000000114044498503XXXXXX0161       VS11    0001111   NYV1 A E383059633506892N84000000000627832WV00    05DNHAPPY HIPPIE             088735    VD84000000006278 N  549976487158                            000000000+                F DF 00381                     000000000  N000000000       0000000000000.00 0000000.00   0000000.00                             000000000000000                                                                                                                                                     01418 A000000000000 0000000000000.65     00800 01500                  
02629010641450008DT67590675900000002881800888800000010180088824001193059900015700068022820230000000612205923000000000114044445101XXXXXX0566       VS11    0001111   NYV1 A E583059651115114N840000000006122K6VV00    05DNHAPPY HIPPIE             745353    VD84000000006122 N  549976487158                            000000000+                F DF 10433                     000000000  Y000000000 338   0000000000000.00 0000000.00   0000000.00                             000000000000000                                                                                                                                                     01418 A000000000000 0000000000000.25     00050 02200                  
02629020641450009DT67590675900000002881800888800000010180088873011003059900015700072022820230000000249905923000000000114044379301XXXXX1000                          NY 1 0 N004208512358321N840000000002499          01DNHAPPY HIPPIE             182186    AM84000000002499 N  549976487158                            000000000+51010165434C 258     11261                     000000000                   0000000000000.00 0000000.00   0000000.00                             000000000000000 61248972086759675900000002881 HAPPY HIPPIE             832 PARKWAY              8656540830      37862     HAPPYHIPPIE832@GMAIL.COM                  01418  000000000000 0000000000000.50     01600 00000                  
02629030641450010DT67590675900000002881800888800000010180088824001193059900015700084022820230000000537705923000000000114044473703XXXXXX1599       VS11    0001111   NYV1 A E303059708560415N8400000000053778WWS00    05DNHAPPY HIPPIE             001894    VD84000000005377 N  549976487158                            000000000+                F DF 10433                     000000000  Y000000000 338   0000000000000.00 0000000.00   0000000.00                             000000000000000                                                                                                                                                     01418 A000000000000 0000000000000.25     00050 02200                  
02629040641450011DT67590675900000002881800888800000010180088824001193059900015700092022820230000000548805923000000000114044480639XXXXXX1059       VS11    0001111   NYV1 A E583059720464882N8400000000054886L9300    05DNHAPPY HIPPIE             498481    VD84000000005488 N  549976487158                            000000000+                F DF 00381                     000000000  N000000000       0000000000000.00 0000000.00   0000000.00                             000000000000000                                                                                                                                                     01418 A000000000000 0000000000000.59     00800 01500                  
02629050641450012DT67590675900000002881800888800000010180088824001193059900015700100022820230000000219505923000000000114044445102XXXXXX4146       VS11    0001111   NYV1 A E383059722193561N840000000002195BBKW00    05DNHAPPY HIPPIE             818611    VD84000000002195 N  549976487158                            000000000+                F DF 10433                     000000000  Y000000000 338   0000000000000.00 0000000.00   0000000.00                             000000000000000                                                                                                                                                     01418 A000000000000 0000000000000.23     00050 02200                  
02629060641450013DT67590675900000002881800888800000010180088877287283059900015700110022820230000000399905923000000000114044514313XXXXXX2282       ME03MS02WI09      NY 1 0 AMDJRO2Q8D0228  N840000000003999          01DNHAPPY HIPPIE             209857    MD84000000003999 N  549976487158                            000000000+M1010115434C    MDJ  00399                     000000000  N                0000000000000.00 0000000.00   0000000.00                             000000000000000                                                                                                                                                   E101418  000000000000 0000000000000.81     01650 01500                  
02629070641450014DT67590675900000002881800888800000010180088824001193059900015700126022820230000000342305923000000000114044440393XXXXXX7934       VS11    0001111   NYV1 A E303059726707729N840000000003423436300    05DNHAPPY HIPPIE             075828    VD84000000003423 N  549976487158                            000000000+                F PF 08170                     000000000  N000000000       0000000000000.00 0000000.00   0000000.00                             000000000000000                                                                                                                                                     01418 A000000000000 0000000000000.54     01150 01500                  
02629080641450015DT67590675900000002881800888800000010180088877287283059900015700136022820230000000448805923000000000114044527520XXXXXX0811       MS02WI09          NY 1 0 AMDJNQ0J1N0228  N840000000004488          05DNHAPPY HIPPIE             124205    MD84000000004488 N  549976487158                            000000000+M10101C5434C    MDJ  10815                     000000000  1                0000000000000.00 0000000.00   0000000.00                             000000000000000                                                                                                                                                   B101418  000000000000 0000000000000.24     00050 02200                  
02629090641450016DT67590675900000002881800888800000010180088824001193059900015700142022820230000000068605923000000000114044440393XXXXXX8888       VK04VS111111111   NYV1 A E583059758520992N840000000000686ZCKX00    05DNHAPPY HIPPIE             767562    VD84000000000686 N  549976487158                            000000000+                F PF 08165                     000000000  N000000000       0000000000000.00 0000000.00   0000000.00                             000000000000000                                                                                                                                                     01418 F000000000000 0000000000000.16     01600 00500                  
02629100641450017DT67590675900000002881800888800000010180088824001193059900015700159022820230000000237105923000000000114044419090XXXXXX6367       VS11    0001111   NYV1 A E383059770560487N840000000002371HX2700    05DNHAPPY HIPPIE             979105    VD84000000002371 N  549976487158                            000000000+                F DF 00381                     000000000  N000000000       0000000000000.00 0000000.00   0000000.00                             000000000000000                                                                                                                                                     01418 A000000000000 0000000000000.34     00800 01500                  
02629110641450018DT67590675900000002881800888800000010180088824001193059900015700167022820230000001300405923000000000114044443238XXXXXX4897       VS11    0001111   NYV1 A E583059779639217N840000000013004P6FT00    05DNHAPPY HIPPIE             063924    VD84000000013004 N  549976487158                            000000000+                F DF 00381                     000000000  N000000000       0000000000000.00 0000000.00   0000000.00                             000000000000000                                                                                                                                                     01418 A000000000000 0000000000001.19     00800 01500                  
02629120641450019DT67590675900000002881800888800000010180088824001193059900015700175022820230000000612105923000000000114044401840XXXXXX7032       VS11    0001111   NYV1 A E383059785804770N8400000000061214LCB00    90DNHAPPY HIPPIE             007649    VD84000000006121 N  549976487158                            000000000+                F DF 00381                     000000000  N000000000       0000000000000.00 0000000.00   0000000.00                             000000000000000                                                                                                                                                     01418 A000000000000 0000000000000.64     00800 01500                  
02629130641450020DT67590675900000002881800888800000010180088877287283059900015700185022820230000000316105923000000000114044511953XXXXXX9431       MS02WI09          NY 1 0 AMDJVRMK8D0228  N840000000003161          05DNHAPPY HIPPIE             038854    MD84000000003161 N  549976487158                            000000000+M10101C5434C    MDJ  00402                     000000000  N                0000000000000.00 0000000.00   0000000.00                             000000000000000                                                                                                                                                   B101418  000000000000 0000000000000.48     01050 01500                  
02629140641450021DT67590675900000002881800888800000010180088824001193059900015700191022820230000000355505923000000000114044410889XXXXXX1726       VS11    0001111   NYV1 A E463059813513839N840000000003555TG6B00    05DNHAPPY HIPPIE             563352    VS84000000003555 N  549976487158                            000000000+                B CB 12111                     000000000  N000000000 495   0000000000000.00 0000000.00   0000000.00                             000000000000000                                                                                                                                                     01418 A000000000000 0000000000000.69     01650 01000                  
02629150641450022DT67590675900000002881800888800000010180088824001193059900015700209022820230000000246805923000000000114044445101XXXXXX0964       VS11    0001111   NYV1 A E463059821961560N840000000002468FNDM00    05DNHAPPY HIPPIE             009957    VD84000000002468 N  549976487158                            000000000+                F DF 10433                     000000000  Y000000000 338   0000000000000.00 0000000.00   0000000.00                             000000000000000                                                                                                                                                     01418 A000000000000 0000000000000.23     00050 02200                  
02629160641450023BH6759067590000000288180088880000090170228202305923000000000071954    0000090001560014N8008886759C03012023                                                                                                                                                                                                                                                                                                                                                                                                                                                                                                                                                                                                 
02629170641450024DT67590675900000002881800888800000010180088824001193059900015600011022820230000000355505923000000000071954419090XXXXXX0474       VS11    0001111   NYV1 A E303059595198154N840000000003555H8D300    05DNHAPPY HIPPIE             968143    VD84000000003555 N  549976487134                            000000000+                F DF 00381                     000000000  N000000000       0000000000000.00 0000000.00   0000000.00                             000000000000000                                                                                                                                                     01418 A000000000000 0000000000000.43     00800 01500                  
02629180641450025DT67590675900000002881800888800000010180088824001193059900015600029022820230000000158005923000000000071954480639XXXXXX4015       VS11    0001111   NYV1 A E383059732562406N840000000001580HKSW00    05DNHAPPY HIPPIE             499082    VD84000000001580 N  549976487134                            000000000+                F DF 00381                     000000000  N000000000       0000000000000.00 0000000.00   0000000.00                             000000000000000                                                                                                                                                     01418 A000000000000 0000000000000.28     00800 01500                  
02629190641450026DT67590675900000002881800888800000010180088824001193059900015600037022820230000000887505923000000000071954415978XXXXXX1911       VS11    0001111   NYV1 A E383059741085074N840000000008875M7SV00    05DNHAPPY HIPPIE             007778    VD84000000008875 N  549976487134                            000000000+                F DF 10433                     000000000  Y000000000 338   0000000000000.00 0000000.00   0000000.00                             000000000000000                                                                                                                                                     01418 A000000000000 0000000000000.26     00050 02200                  
02629200641450027DT67590675900000002881800888800000010180088824001193059900015600045022820230000001639305923000000000071954459954XXXXXX5604       VS11    0001111   NYV1 A E303059752889101N840000000016393HJ2200    05DNHAPPY HIPPIE             H61906    VD84000000016393 N  549976487134                            000000000+                F DF 10433                     000000000  Y000000000 338   0000000000000.00 0000000.00   0000000.00                             000000000000000                                                                                                                                                     01418 A000000000000 0000000000000.30     00050 02200                  
02629210641450028DT67590675900000002881800888800000010180088877287283059900015600054022820230000000691305923000000000071954511953XXXXXX6375       MS02WI09          NY 1 0 AMDJQARK5E0228  N840000000006913          05DNHAPPY HIPPIE             020852    MD84000000006913 N  549976487134                            000000000+M10101C5434C    MDJ  00402                     000000000  N                0000000000000.00 0000000.00   0000000.00                             000000000000000                                                                                                                                                   B101418  000000000000 0000000000000.88     01050 01500                  
02629220641450029DT67590675900000002881800888800000010180088824001193059900015600060022820230000000567305923000000000071954440393XXXXXX8697       VS11    0001111   NYV1 A E583059760174476N840000000005673Z56300    05DNHAPPY HIPPIE             089422    VD84000000005673 N  549976487134                            000000000+                F PF 08170                     000000000  N000000000       0000000000000.00 0000000.00   0000000.00                             000000000000000                                                                                                                                                     01418 A000000000000 0000000000000.80     01150 01500                  
02629230641450030DT67590675900000002881800888800000010180088824001193059900015600078022820230000000246805923000000000071954419090XXXXXX6367       VS11    0001111   NYV1 A E583059772337048N840000000002468ZWXQ00    05DNHAPPY HIPPIE             979228    VD84000000002468 N  549976487134                            000000000+                F DF 00381                     000000000  N000000000       0000000000000.00 0000000.00   0000000.00                             000000000000000                                                                                                                                                     01418 A000000000000 0000000000000.35     00800 01500                  
02629240641450031DT67590675900000002881800888800000010180088824001193059900015600086022820230000000592505923000000000071954403623XXXXXX6999       VS11    0001111   NYV1 A E583059785772307N840000000005925GR6F00    05DNHAPPY HIPPIE             044227    VD84000000005925 N  549976487134                            000000000+                G DG 10351                     000000000  Y000000000 338   0000000000000.00 0000000.00   0000000.00                             000000000000000                                                                                                                                                     01418 A000000000000 0000000000000.25     00050 02200                  
02629250641450032DT67590675900000002881800888800000010180088824001193059900015600094022820230000000256705923000000000071954443238XXXXXX2013       VS11    0001111   NYV1 A E463059796277278N840000000002567B3PH00    05DNHAPPY HIPPIE             070707    VD84000000002567 N  549976487134                            000000000+                F DF 00381                     000000000  N000000000       0000000000000.00 0000000.00   0000000.00                             000000000000000                                                                                                                                                     01418 A000000000000 0000000000000.36     00800 01500                  
02629260641450033DT67590675900000002881800888800000010180088824001193059900015600102022820230000000316105923000000000071954498503XXXXXX9797       VS11    0001111   NYV1 A E383059797870384N840000000003161WLMW00    05DNHAPPY HIPPIE             070773    VD84000000003161 N  549976487134                            000000000+                F DF 00381                     000000000  N000000000       0000000000000.00 0000000.00   0000000.00                             000000000000000                                                                                                                                                     01418 A000000000000 0000000000000.40     00800 01500                  
02629270641450034DT67590675900000002881800888800000010180088824001193059900015600110022820230000000274305923000000000071954443238XXXXXX8708       VS11    0001111   NYV1 A E383059805925017N840000000002743ZKM800    05DNHAPPY HIPPIE             072313    VD84000000002743 N  549976487134                            000000000+                F DF 00381                     000000000  N000000000       0000000000000.00 0000000.00   0000000.00                             000000000000000                                                                                                                                                     01418 A000000000000 0000000000000.37     00800 01500                  
02629280641450035DT67590675900000002881800888800000010180088824001193059900015600128022820230000000578305923000000000071954480639XXXXXX6147       VS11    0001111   NYV1 A E583059807833371N840000000005783M9CS00    05DNHAPPY HIPPIE             502961    VD84000000005783 N  549976487134                            000000000+                F DF 00381                     000000000  N000000000       0000000000000.00 0000000.00   0000000.00                             000000000000000                                                                                                                                                     01418 A000000000000 0000000000000.61     00800 01500                  
02629290641450036DT67590675900000002881800888800000010180088824001193059900015600136022820230000000413305923000000000071954440393XXXXXX9486       VS11    0001111   NYV1 A E583059819394865N840000000004133R35T00    05DNHAPPY HIPPIE             055931    VD84000000004133 N  549976487134                            000000000+                F PF 08170                     000000000  N000000000       0000000000000.00 0000000.00   0000000.00                             000000000000000                                                                                                                                                     01418 A000000000000 0000000000000.63     01150 01500                  
02629300641450037DT67590675900000002881800888800000010180088877287283059900015600146022820230000000218505923000000000071954518941XXXXXX4253       MS02WI09          NY 1 0 AMWEGADQ8E0228  N840000000002185          05DNHAPPY HIPPIE             22556Z    MC84000000002185 N  549976487134                            000000000+M10101C5434C    MWE  00743                     000000000  N                0000000000000.00 0000000.00   0000000.00                             000000000000000                                                                                                                                                   B101418  000000000000 0000000000000.54     02300 00400                  
02629310641450038BH6759067590000000215480088880000090170228202305923000000001004707    0000090001205559N8008886759C03012023                                                                                                                                                                                                                                                                                                                                                                                                                                                                                                                                                                                                 
02629320641450039DT67590675900000002154800888800000010180088824001193059900012010032022820230000003190005923000000001004707480213XXXXXX7422               2111111   NYV4 A7W583059008284267N840000000031900RR8M00    01DNDRIP DROP DISTRO LLC     004790    VB84000000031900 NP1519971004114   INV-000952               000000000+                G1CG108010                     000000000  N000000000 390   0000000000000.00 0000000.00   0000000.00                             000000000000000                                                                                                                                                     01418 G000000031900 0000000000009.19     02850 01000                  
02629330641450001P16759067590000000215480088880000001010000000000000000    43965524438              2000000000000000000000000              000000000000                    0000000000000000000000000                    000000000000                                                                                                                                                                                                                                                                                                                                                                                                                                                                                        
02629340641450040DT67590675900000002154800888800000010180088824001193059900012051176022820230000022500005923000000001004707479851XXXXXX9756               2111111   NYV4 A7W583059649249091N840000000225000HKGN00    01DNDRIP DROP DISTRO LLC     218220    VB84000000225000 NP1519971004114   INV-000857               000000000+                G CG 00690                     000000000  N000000000 231   0000000000000.00 0000000.00   0000000.00                             000000000000000                                                                                                                                                     01418 G000000225000 0000000000059.73     02650 01000                  
02629350641450001P16759067590000000215480088880000001010000000000000000    43967228681              2000000000000000000000000              000000000000                    0000000000000000000000000                    000000000000                                                                                                                                                                                                                                                                                                                                                                                                                                                                                        
02629360641450041DT67590675900000002154800888800000010180088887287283059900012028233022820230000014200005923000000001004707530534XXXXXX8033                         NY 4607AMDBOSXGW60228  N840000000142000          81DNDRIP DROP DISTRO LLC     666255    MD84000000142000 NP1519900000001   INV-000861               000000000+600450S00140    MDB  00062                     000000000  N                0000000000000.00 0000000.00   0000000.00                             000000000000000                                                                                                                                                   U001418  000000000000 0000000000037.73     02650 01000                  
02629370641450001P1675906759000000021548008888000000101                                                          000000000000          8000            471534935                                                                                                                                                                                                                                                                                                                                                                                                                                                                                                                                                            
02629380641450042DT67590675900000002154800888800000010180088873011003059900012068911022820230000013152005923000000001004707372883XXXXX2000                          NY 4 07N004469480229304N840000000131520          01DNDRIP DROP DISTRO LLC     288672    AM84000000131520 N  519971004114                            000000000+6004S0S00140 258     11244                     000000000                   0000000000000.00 0000000.00   0000000.00                             000000000000000 61248972736759675900000002154 DRIP DROP DISTRO LLC     1445 W COMMERCE AVE SUITE2087248209      83705     TROY@DRIPDROPDISTRO.COM                   01418  000000000000 0000000000025.09     01900 00000                  
02629390641450043DT67590675900000002154800888800000010180088873011003059900012076401022820230000037088005923000000001004707376742XXXXX5028                          NY 4 07N004464719485306N840000000370880          01DNDRIP DROP DISTRO LLC     299476    AM84000000370880 N  519971004114                            000000000+6004S0S00140 258     11244                     000000000                   0000000000000.00 0000000.00   0000000.00                             000000000000000 61248972736759675900000002154 DRIP DROP DISTRO LLC     1445 W COMMERCE AVE SUITE2087248209      83705     TROY@DRIPDROPDISTRO.COM                   01418  000000000000 0000000000070.57     01900 00000                  
02629400641450044DT67590675900000002154800888800000010180088824001193059900012085083022820230000002564705923000000001004707433993XXXXXX0400               2111111   NYV4 A7W303059533039884N840000000025647V4BQ00    01DNDRIP DROP DISTRO LLC     00826G    VB84000000025647 NP1519971004114   17485                    000000000+                G5CG511887                     000000000  N000000000 163   0000000000000.00 0000000.00   0000000.00                             000000000000000                                                                                                                                                     01418 G000000025647 0000000000007.79     03000 01000                  
02629410641450001P16759067590000000215480088880000001010000000000000000    43966703084              2000000000000000000000000              000000000000                    0000000000000000000000000                    000000000000                                                                                                                                                                                                                                                                                                                                                                                                                                                                                        
02629420641450045DT67590675900000002154800888800000010180088824001193059900012055599022820230000007776005923000000001004707481582XXXXXX3654               2111111   NYV4 A7W303059656307410N840000000077760SMTC00    01DNDRIP DROP DISTRO LLC     121533    VD84000000077760 NP1519971004114   INV-000892               000000000+                F DF 10420                     000000000  Y000000000 338   0000000000000.00 0000000.00   0000000.00                             000000000000000                                                                                                                                                     01418 G000000077760 0000000000000.61     00050 02200                  
02629430641450001P16759067590000000215480088880000001010000000000000000                             2000000000000000000000000              000000000000                    0000000000000000000000000                    000000000000                                                                                                                                                                                                                                                                                                                                                                                                                                                                                        
02629440641450046BH6759067590000000659380010180000090170228202305923000000000116599    0000090001200028N8001016759C03012023                                                                                                                                                                                                                                                                                                                                                                                                                                                                                                                                                                                                 
02629450641450047DT67590675900000006593800101800000010180010124001193059900012000017022820230000000734105923000000000116599473703XXXXXX9232       VS11    0001111   NYV1 A E303059540533583N840000000007341XFGL00    05DNPLANET VAPOR #100        080135    VD84000000007341 N  599976768560                            000000000+                F DF 10433                     000000000  Y000000000 338   0000000000000.00 0000000.00   0000000.00                             000000000000000                                                                                                                                                     01418 A000000000000 0000000000000.26     00050 02200                  
02629460641450048DT67590675900000006593800101800000010180010124001193059900012000025022820230000000323805923000000000116599400022XXXXXX6276       VS11    0001111   NYV1 A E383059545915531N840000000003238GKHT00    05DNPLANET VAPOR #100        491699    VD84000000003238 N  599976768560                            000000000+                F DF 10433                     000000000  Y000000000 338   0000000000000.00 0000000.00   0000000.00                             000000000000000                                                                                                                                                     01418 A000000000000 0000000000000.24     00050 02200                  
02629470641450049DT67590675900000006593800101800000010180010177287283059900012000035022820230000000237505923000000000116599531257XXXXXX3065       MS02WI09          NY 1 0 AMDJBF84W60228  N840000000002375          05DNPLANET VAPOR #100        121243    MD84000000002375 N  599976768560                            000000000+M10101C5434C    MDJ  10815                     000000000  1                0000000000000.00 0000000.00   0000000.00                             000000000000000                                                                                                                                                   B101418  000000000000 0000000000000.23     00050 02200                  
02629480641450050DT67590675900000006593800101800000010180010124001193059900012000041022820230000000323805923000000000116599410039XXXXXX3040       VS11    0001111   NYV1 A E383059561933510N8400000000032382DBV00    05DNPLANET VAPOR #100        83111D    VS84000000003238 N  599976768560                            000000000+                D CD 12113                     000000000  N000000000 499   0000000000000.00 0000000.00   0000000.00                             000000000000000                                                                                                                                                     01418 A000000000000 0000000000000.78     02100 01000                  
02629490641450051DT67590675900000006593800101800000010180010173011003059900012000054022820230000000172505923000000000116599371571XXXXX4007                          NY 1 0 N004204866629326N840000000001725          05DNPLANET VAPOR INC #100    819877    AM84000000001725 N  599976768560                            000000000+51010155434C 258     11261                     000000000                   0000000000000.00 0000000.00   0000000.00                             000000000000000 61248972086759675900000006593 PLANET VAPOR INC #100    9300 TOP NOTCH RD STE 1  8035462263      29223     KEVIN@MOOREDISTRO.COM                     01418  000000000000 0000000000000.38     01600 00000                  
02629500641450052DT67590675900000006593800101800000010180010124001193059900012000066022820230000000256205923000000000116599433477XXXXXX7662       VS11    0001111   NYV1 A E583059599239710N840000000002562SVXB00    05DNPLANET VAPOR #100        345637    VD84000000002562 N  599976768560                            000000000+                F DF 10433                     000000000  Y000000000 338   0000000000000.00 0000000.00   0000000.00                             000000000000000                                                                                                                                                     01418 A000000000000 0000000000000.23     00050 02200                  
02629510641450053DT67590675900000006593800101800000010180010124001193059900012000074022820230000000518205923000000000116599400022XXXXXX9284       VS11    0001111   NYV1 A E583059615953497N8400000000051826JJ500    05DNPLANET VAPOR #100        753868    VD84000000005182 N  599976768560                            000000000+                F DF 10433                     000000000  Y000000000 338   0000000000000.00 0000000.00   0000000.00                             000000000000000                                                                                                                                                     01418 A000000000000 0000000000000.25     00050 02200                  
02629520641450054DT67590675900000006593800101800000010180010124001193059900012000082022820230000000280705923000000000116599474474XXXXXX4705       VS11    0001111   NYV1 A E463059622566358N840000000002807DR8L00    05DNPLANET VAPOR #100        121273    VD84000000002807 N  599976768560                            000000000+                F DF 10433                     000000000  Y000000000 338   0000000000000.00 0000000.00   0000000.00                             000000000000000                                                                                                                                                     01418 A000000000000 0000000000000.23     00050 02200                  
02629530641450055DT67590675900000006593800101800000010180010177287283059900012000092022820230000000863705923000000000116599514230XXXXXX4258       MS02WI09          NY 1 0 AMDJGXNCMO0228  N840000000008637          05DNPLANET VAPOR #100        BC5321    MD84000000008637 N  599976768560                            000000000+M10101C5434C    MDJ  00402                     000000000  N                0000000000000.00 0000000.00   0000000.00                             000000000000000                                                                                                                                                   B101418  000000000000 0000000000001.06     01050 01500                  
02629540641450056DT67590675900000006593800101800000010180010177287283059900012000100022820230000000105105923000000000116599514230XXXXXX4258       MS02WI09          NY 1 0 AMDJG0DMMO0228  N840000000001051          05DNPLANET VAPOR #100        396E76    MD84000000001051 N  599976768560                            000000000+M10101C5434C    MDJ  00402                     000000000  N                0000000000000.00 0000000.00   0000000.00                             000000000000000                                                                                                                                                   B101418  000000000000 0000000000000.26     01050 01500                  
02629550641450057DT67590675900000006593800101800000010180010124001193059900012000116022820230000000323805923000000000116599474474XXXXXX2353       VS11    0001111   NYV1 A E303059639153574N840000000003238RG6700    05DNPLANET VAPOR #100        124255    VD84000000003238 N  599976768560                            000000000+                F DF 10433                     000000000  Y000000000 338   0000000000000.00 0000000.00   0000000.00                             000000000000000                                                                                                                                                     01418 A000000000000 0000000000000.24     00050 02200                  
02629560641450058DT67590675900000006593800101800000010180010124001193059900012000124022820230000001241605923000000000116599400022XXXXXX8834       VS11    0001111   NYV1 A E383059655737022N840000000012416P5TS00    05DNPLANET VAPOR #100        390673    VD84000000012416 N  599976768560                            000000000+                F DF 10433                     000000000  Y000000000 338   0000000000000.00 0000000.00   0000000.00                             000000000000000                                                                                                                                                     01418 A000000000000 0000000000000.28     00050 02200                  
02629570641450059DT67590675900000006593800101800000010180010124001193059900012000132022820230000000323805923000000000116599473703XXXXXX7716       VS11    0001111   NYV1 A E383059660571535N840000000003238L28600    05DNPLANET VAPOR #100        008971    VD84000000003238 N  599976768560                            000000000+                F DF 10433                     000000000  Y000000000 338   0000000000000.00 0000000.00   0000000.00                             000000000000000                                                                                                                                                     01418 A000000000000 0000000000000.24     00050 02200                  
02629580641450060DT67590675900000006593800101800000010180010124001193059900012000140022820230000000053905923000000000116599443264XXXXXX4140       VK04VS111111111   NYV1 A E463059672161045N84000000000053967V300    05DNPLANET VAPOR #100        011692    VD84000000000539 N  599976768560                            000000000+                F DF 10439                     000000000  Y000000000 331   0000000000000.00 0000000.00   0000000.00                             000000000000000                                                                                                                                                     01418 F000000000000 0000000000000.22     00050 02200                  
02629590641450061DT67590675900000006593800101800000010180010124001193059900012000157022820230000000194305923000000000116599440393XXXXXX3055       VS11    0001111   NYV1 A E583059677758037N840000000001943HFMG00    05DNPLANET VAPOR #100        719021    VD84000000001943 N  599976768560                            000000000+                F PF 08170                     000000000  N000000000       0000000000000.00 0000000.00   0000000.00                             000000000000000                                                                                                                                                     01418 A000000000000 0000000000000.37     01150 01500                  
02629600641450062DT67590675900000006593800101800000010180010176509753059900012000163022820230000000323905923000000000116599601100XXXXXX7860   BA50                  NY41 0 N753050617833469N840000000003239    00    05DNPLANET VAPOR #100        02800R    DS84000000003239 N  599976768560050                         000000000+0000004910H00   DCCDI01000332248  140303000000 000000000  0          112   0000000000000.00 0000000.00   0000000.00                             000000000000000                                                                                                                                                     01418  000000000000 0000000000000.66     01720 01000                  
02629610641450063DT67590675900000006593800101800000010180010124001193059900012000173022820230000000874405923000000000116599438419XXXXXX6772       VS11    0001111   NYV1 A E463059693280111N84000000000874467GP00    05DNPLANET VAPOR #100        041528    VD84000000008744 N  599976768560                            000000000+                F DF 00381                     000000000  N000000000       0000000000000.00 0000000.00   0000000.00                             000000000000000                                                                                                                                                     01418 A000000000000 0000000000000.85     00800 01500                  
02629620641450064DT67590675900000006593800101800000010180010177287283059900012000183022820230000000053905923000000000116599515676XXXXXX3651       MS02WI09          NY 1 0 AMWELSS21N0228  N840000000000539          05DNPLANET VAPOR #100        01342Z    MC84000000000539 N  599976768560                            000000000+M10101C5434C    MWE  00739                     000000000  N                0000000000000.00 0000000.00   0000000.00                             000000000000000                                                                                                                                                   B101418  000000000000 0000000000000.22     02300 01000                  
02629630641450065DT67590675900000006593800101800000010180010124001193059900012000199022820230000000323805923000000000116599453506XXXXXX6786       VS11    0001111   NYV1 A E383059707195816N8400000000032389T5R00    05DNPLANET VAPOR #100        H37146    VD84000000003238 N  599976768560                            000000000+                F DF 10433                     000000000  Y000000000 338   0000000000000.00 0000000.00   0000000.00                             000000000000000                                                                                                                                                     01418 A000000000000 0000000000000.24     00050 02200                  
02629640641450066DT67590675900000006593800101800000010180010124001193059900012000207022820230000000427505923000000000116599410702XXXXXX7221       VS11    0001111   NYV1 A E463059751015825N8400000000042754KXM00    05DNPLANET VAPOR #100        147384    VD84000000004275 N  599976768560                            000000000+                F DF 00381                     000000000  N000000000       0000000000000.00 0000000.00   0000000.00                             000000000000000                                                                                                                                                     01418 A000000000000 0000000000000.49     00800 01500                  
02629650641450067DT67590675900000006593800101800000010180010124001193059900012000215022820230000000388605923000000000116599407535XXXXXX3096       VS11    0001111   NYV1 A E303059769190302N840000000003886BR7W00    90DNPLANET VAPOR #100        906336    VD84000000003886 N  599976768560                            000000000+                F PF 08170                     000000000  N000000000       0000000000000.00 0000000.00   0000000.00                             000000000000000                                                                                                                                                     01418 A000000000000 0000000000000.60     01150 01500                  
02629660641450068DT67590675900000006593800101800000010180010177287283059900012000225022820230000000410205923000000000116599518155XXXXXX6467       MS02WI09          NY 1 0 AMDSUNNS8D0228  N840000000004102          05DNPLANET VAPOR #100        127790    MD84000000004102 N  599976768560                            000000000+M10101C5434C    MDS  00402                     000000000  N                0000000000000.00 0000000.00   0000000.00                             000000000000000                                                                                                                                                   B101418  000000000000 0000000000000.58     01050 01500                  
02629670641450069DT67590675900000006593800101800000010180010177287283059900012000233022820230000000418205923000000000116599514230XXXXXX9310       MS02WI09          NY 1 0 AMDJTTOQ3X0228  N840000000004182          05DNPLANET VAPOR #100        CF19CE    MD84000000004182 N  599976768560                            000000000+M10101C5434C    MDJ  00402                     000000000  N                0000000000000.00 0000000.00   0000000.00                             000000000000000                                                                                                                                                   B101418  000000000000 0000000000000.59     01050 01500                  
02629680641450070DT67590675900000006593800101800000010180010124001193059900012000249022820230000000723305923000000000116599410702XXXXXX9531       VS11    0001111   NYV1 A E303059819456220N840000000007233C9BK00    05DNPLANET VAPOR #100        173315    VD84000000007233 N  599976768560                            000000000+                F DF 00381                     000000000  N000000000       0000000000000.00 0000000.00   0000000.00                             000000000000000                                                                                                                                                     01418 A000000000000 0000000000000.73     00800 01500                  
02629690641450071DT67590675900000006593800101800000010180010124001193059900012000256022820230000000115905923000000000116599400022XXXXXX0876       VK04VS111111111   NYV1 A E303059854379347N840000000001159GZP800    05DNPLANET VAPOR #100        704249    VD84000000001159 N  599976768560                            000000000+                F DF 10439                     000000000  Y000000000 331   0000000000000.00 0000000.00   0000000.00                             000000000000000                                                                                                                                                     01418 F000000000000 0000000000000.23     00050 02200                  
02629700641450072DT67590675900000006593800101800000010180010124001193059900012000264022820230000000670205923000000000116599466189XXXXXX9138       VS11    0001111   NYV1 A E383059860293311N8400000000067026HQ800    05DNPLANET VAPOR #100        084220    VD84000000006702 N  599976768560                            000000000+                F DF 10433                     000000000  Y000000000 338   0000000000000.00 0000000.00   0000000.00                             000000000000000                                                                                                                                                     01418 A000000000000 0000000000000.25     00050 02200                  
02629710641450073DT67590675900000006593800101800000010180010124001193059900012000272022820230000000734105923000000000116599414740XXXXXX4452       VS11    0001111   NYV1 A E383060014310542N840000000007341Z8HR00    05DNPLANET VAPOR #100        00558D    VS84000000007341 N  599976768560                            000000000+                D CD 12113                     000000000  N000000000 499   0000000000000.00 0000000.00   0000000.00                             000000000000000                                                                                                                                                     01418 A000000000000 0000000000001.64     02100 01000                  
02629720641450074DT67590675900000006593800101800000010180010124001193059900012000280022820230000000242905923000000000116599473703XXXXXX8430       VS11    0001111   NYV1 A E463060030184209N840000000002429LWLH00    05DNPLANET VAPOR #100        050039    VD84000000002429 N  599976768560                            000000000+                F DF 10433                     000000000  Y000000000 338   0000000000000.00 0000000.00   0000000.00                             000000000000000                                                                                                                                                     01418 A000000000000 0000000000000.23     00050 02200                  
02629730641450075BH6759067590000000561180088880000090170228202305923000000000005589    0000090001218165N8008886759C03012023                                                                                                                                                                                                                                                                                                                                                                                                                                                                                                                                                                                                 
02629740641450076DT67590675900000005611800888800000010180088887287283059900012181651022820230000000558905923000000000005589555671XXXXXX5431                         NY 4607AMABIK41PB0227  N840000000005589          81DNK DIVINE 503-689-7182    998023    MB84000000005589 NP1549900000001   5262                     000000000+600450S00140    MAB  10988                     000000000  N                0000000000000.00 0000000.00   0000000.00                             000000000000000                                                                                                                                                   U001418  000000000000 0000000000001.69     02850 01000                  
02629750641450001P1675906759000000056118008888000000101                                                          000000000000          8000            473581519                                                                                                                                                                                                                                                                                                                                                                                                                                                                                                                                                            
02629760641450077BH6759067590000000708880010180000090170228202305923000000000085031    0000090001200026N8001016759C03012023                                                                                                                                                                                                                                                                                                                                                                                                                                                                                                                                                                                                 
02629770641450078DT67590675900000007088800101800000010180010124001193059900012000017022820230000001409105923000000000085031430602XXXXXX0154       VS11    0001111   NYV1 A E303059576124142N840000000014091S3V400    05DNPLANET VAPOR #200        587542    VD84000000014091 N  599976770268                            000000000+                F DF 00381                     000000000  N000000000       0000000000000.00 0000000.00   0000000.00                             000000000000000                                                                                                                                                     01418 A000000000000 0000000000001.28     00800 01500                  
02629780641450079DT67590675900000007088800101800000010180010124001193059900012000025022820230000000328205923000000000085031461675XXXXXX2284       VS11    0001111   NYV1 A E463059579744075N840000000003282NCMZ00    05DNPLANET VAPOR #200        338580    VD84000000003282 N  599976770268                            000000000+                F DF 00381                     000000000  N000000000       0000000000000.00 0000000.00   0000000.00                             000000000000000                                                                                                                                                     01418 A000000000000 0000000000000.41     00800 01500                  
02629790641450080DT67590675900000007088800101800000010180010177287283059900012000035022820230000000399405923000000000085031531258XXXXXX9312       MS02WI09          NY 1 0 AMDJXZ34X30228  N840000000003994          07DNPLANET VAPOR #200        121240    MD84000000003994 N  599976770268                            000000000+M10101M0034C    MDJ  10815                     000000000  1                0000000000000.00 0000000.00   0000000.00                             000000000000000                                                                                                                                                   B101418  000000000000 0000000000000.24     00050 02200                  
02629800641450081DT67590675900000007088800101800000010180010124001193059900012000041022820230000000242905923000000000085031479285XXXXXX2080       VS11    0001111   NYV1 A E463059589516848N8400000000024298WBK00    05DNPLANET VAPOR #200        173956    VD84000000002429 N  599976770268                            000000000+                F DF 00381                     000000000  N000000000       0000000000000.00 0000000.00   0000000.00                             000000000000000                                                                                                                                                     01418 A000000000000 0000000000000.34     00800 01500                  
02629810641450082DT67590675900000007088800101800000010180010124001193059900012000058022820230000000091405923000000000085031430602XXXXXX1235       VK04VS111111111   NYV1 A E303059607755730N84000000000091464QW00    05DNPLANET VAPOR #200        600055    VD84000000000914 N  599976770268                            000000000+                F DF 00451                     000000000  N000000000 214   0000000000000.00 0000000.00   0000000.00                             000000000000000                                                                                                                                                     01418 F000000000000 0000000000000.18     01550 00400                  
02629820641450083DT67590675900000007088800101800000010180010124001193059900012000066022820230000000237505923000000000085031458643XXXXXX6925       VS11    0001111   NYV1 A E383059608988802N840000000002375W36C00    90DNPLANET VAPOR #200        H07910    VD84000000002375 N  599976770268                            000000000+                F DF 10433                     000000000  Y000000000 338   0000000000000.00 0000000.00   0000000.00                             000000000000000                                                                                                                                                     01418 A000000000000 0000000000000.23     00050 02200                  
02629830641450084DT67590675900000007088800101800000010180010173011003059900012000070022820230000000323805923000000000085031372246XXXXX1004                          NY 1 0 N004467562382306N840000000003238          07DNPLANET VAPOR INC #200    822240    AM84000000003238 N  599976770268                            000000000+51010X50034C 258     11261                     000000000                   0000000000000.00 0000000.00   0000000.00                             000000000000000 61248972086759675900000007088 PLANET VAPOR INC #200    7457 PATTERSON RD STE 1098035462263      29209     KEVIN@MOOREDISTRO.COM                     01418  000000000000 0000000000000.62     01600 00000                  
02629840641450085DT67590675900000007088800101800000010180010177287283059900012000084022820230000000427505923000000000085031514377XXXXXX8211       MS02WI09          NY 1 0 AMDJTAYSLZ0228  N840000000004275          07DNPLANET VAPOR #200        1T9ANY    MD84000000004275 N  599976770268                            000000000+M10101M0034C    MDJ  00402                     000000000  N                0000000000000.00 0000000.00   0000000.00                             000000000000000                                                                                                                                                   B101418  000000000000 0000000000000.60     01050 01500                  
02629850641450086DT67590675900000007088800101800000010180010124001193059900012000090022820230000000205005923000000000085031433477XXXXXX7433       VS11    0001111   NYV1 A E383059659532915N8400000000020506J5K00    05DNPLANET VAPOR #200        458930    VD84000000002050 N  599976770268                            000000000+                F DF 10433                     000000000  Y000000000 338   0000000000000.00 0000000.00   0000000.00                             000000000000000                                                                                                                                                     01418 A000000000000 0000000000000.23     00050 02200                  
02629860641450087DT67590675900000007088800101800000010180010124001193059900012000108022820230000000064705923000000000085031444796XXXXXX7094       VK04VS111111111   NYV1 A E383059694249780N8400000000006477QRH00    07DNPLANET VAPOR #200        028732    VS84000000000647 N  599976770268                            000000000+                A CA 12110                     000000000  N000000000 493   0000000000000.00 0000000.00   0000000.00                             000000000000000                                                                                                                                                     01418 F000000000000 0000000000000.20     01510 01000                  
02629870641450088DT67590675900000007088800101800000010180010124001193059900012000116022820230000000172705923000000000085031444607XXXXXX6057       VS11    0001111   NYV1 A E303059763594937N840000000001727N64V00    05DNPLANET VAPOR #200        J6YNSR    VD84000000001727 N  599976770268                            000000000+                G PG 10178                     000000000  N000000000 363   0000000000000.00 0000000.00   0000000.00                             000000000000000                                                                                                                                                     01418 A000000000000 0000000000000.47     02150 01000                  
02629880641450089DT67590675900000007088800101800000010180010173011003059900012000120022820230000000237505923000000000085031372758XXXXX1008                          NY 1 0 N004211591764328N840000000002375          07DNPLANET VAPOR INC #200    807563    AM84000000002375 N  599976770268                            000000000+51010X50034C 258     11261                     000000000                   0000000000000.00 0000000.00   0000000.00                             000000000000000 61248972086759675900000007088 PLANET VAPOR INC #200    7457 PATTERSON RD STE 1098035462263      29209     KEVIN@MOOREDISTRO.COM                     01418  000000000000 0000000000000.48     01600 00000                  
02629890641450090DT67590675900000007088800101800000010180010124001193059900012000132022820230000000252605923000000000085031429400XXXXXX9360       VS11    0001111   NYV1 A E583059784969936N840000000002526MQ8200    07DNPLANET VAPOR #200        918720    VD84000000002526 N  599976770268                            000000000+                F DF 00381                     000000000  N000000000       0000000000000.00 0000000.00   0000000.00                             000000000000000                                                                                                                                                     01418 A000000000000 0000000000000.35     00800 01500                  
02629900641450091DT67590675900000007088800101800000010180010124001193059900012000140022820230000000223805923000000000085031421783XXXXXX3588       VS11    0001111   NYV1 A E463059791372837N84000000000223867K700    07DNPLANET VAPOR #200        006093    VS84000000002238 N  599976770268                            000000000+                A CA 12110                     000000000  N000000000 493   0000000000000.00 0000000.00   0000000.00                             000000000000000                                                                                                                                                     01418 A000000000000 0000000000000.44     01510 01000                  
02629910641450092DT67590675900000007088800101800000010180010173011003059900012000153022820230000000194305923000000000085031373968XXXXX1007                          NY 1 0 N004473709308303N840000000001943          07DNPLANET VAPOR INC #200    846064    AM84000000001943 N  599976770268                            000000000+51010X50034C 258     11261                     000000000                   0000000000000.00 0000000.00   0000000.00                             000000000000000 61248972086759675900000007088 PLANET VAPOR INC #200    7457 PATTERSON RD STE 1098035462263      29209     KEVIN@MOOREDISTRO.COM                     01418  000000000000 0000000000000.41     01600 00000                  
02629920641450093DT67590675900000007088800101800000010180010124001193059900012000165022820230000000841105923000000000085031429977XXXXXX2951       VS11    0001111   NYV1 A E303059834544422N840000000008411DKT300    07DNPLANET VAPOR #200        169232    VD84000000008411 N  599976770268                            000000000+                G DG 10351                     000000000  Y000000000 338   0000000000000.00 0000000.00   0000000.00                             000000000000000                                                                                                                                                     01418 A000000000000 0000000000000.26     00050 02200                  
02629930641450094DT67590675900000007088800101800000010180010124001193059900012000173022820230000000345205923000000000085031423223XXXXXX1513       VS11    0001111   NYV1 A E583059839546043N8400000000034526BHS00    05DNPLANET VAPOR #200        039038    VD84000000003452 N  599976770268                            000000000+                F DF 00381                     000000000  N000000000       0000000000000.00 0000000.00   0000000.00                             000000000000000                                                                                                                                                     01418 A000000000000 0000000000000.43     00800 01500                  
02629940641450095DT67590675900000007088800101800000010180010124001193059900012000181022820230000000248305923000000000085031490624XXXXXX1838       VS11    0001111   NYV1 A E303059855236118N84000000000248364C700    07DNPLANET VAPOR #200        018516    VD84000000002483 N  599976770268                            000000000+                F DF 10433                     000000000  Y000000000 338   0000000000000.00 0000000.00   0000000.00                             000000000000000                                                                                                                                                     01418 A000000000000 0000000000000.23     00050 02200                  
02629950641450096DT67590675900000007088800101800000010180010124001193059900012000199022820230000000407405923000000000085031459954XXXXXX8352       VS11    0001111   NYV1 A E383059860443962N840000000004074XSQK00    05DNPLANET VAPOR #200        H79553    VD84000000004074 N  599976770268                            000000000+                F DF 10433                     000000000  Y000000000 338   0000000000000.00 0000000.00   0000000.00                             000000000000000                                                                                                                                                     01418 A000000000000 0000000000000.24     00050 02200                  
02629960641450097DT67590675900000007088800101800000010180010124001193059900012000207022820230000000410205923000000000085031461675XXXXXX4258       VS11    0001111   NYV1 A E303060004219219N840000000004102HR4Z00    05DNPLANET VAPOR #200        698720    VD84000000004102 N  599976770268                            000000000+                F DF 00381                     000000000  N000000000       0000000000000.00 0000000.00   0000000.00                             000000000000000                                                                                                                                                     01418 A000000000000 0000000000000.48     00800 01500                  
02629970641450098DT67590675900000007088800101800000010180010124001193059900012000215022820230000000237505923000000000085031400022XXXXXX4974       VS11    0001111   NYV1 A E463060004790449N8400000000023757ZRW00    07DNPLANET VAPOR #200        428949    VD84000000002375 N  599976770268                            000000000+                F DF 10433                     000000000  Y000000000 338   0000000000000.00 0000000.00   0000000.00                             000000000000000                                                                                                                                                     01418 A000000000000 0000000000000.23     00050 02200                  
02629980641450099DT67590675900000007088800101800000010180010124001193059900012000223022820230000000242905923000000000085031400022XXXXXX0534       VS11    0001111   NYV1 A E303060006453886N840000000002429SNBN00    07DNPLANET VAPOR #200        054341    VD84000000002429 N  599976770268                            000000000+                F DF 10433                     000000000  Y000000000 338   0000000000000.00 0000000.00   0000000.00                             000000000000000                                                                                                                                                     01418 A000000000000 0000000000000.23     00050 02200                  
02629990641450100DT67590675900000007088800101800000010180010177287283059900012000233022820230000000024905923000000000085031531258XXXXXX1921       MS02WI09          NY 1 0 AMDJWVWH340228  N840000000000249          07DNPLANET VAPOR #200        121177    MD84000000000249 N  599976770268                            000000000+M10101M0034C    MDJ  10815                     000000000  1                0000000000000.00 0000000.00   0000000.00                             000000000000000                                                                                                                                                   B101418  000000000000 0000000000000.22     00050 02200                  
02630000641450101DT67590675900000007088800101800000010180010124001193059900012000249022820230000000177005923000000000085031440066XXXXXX7452       VS11    0001111   NYV1 A E463060011103193N8400000000017705SM400    07DNPLANET VAPOR #200        02719B    VS84000000001770 N  599976770268                            000000000+                B CB 12111                     000000000  N000000000 495   0000000000000.00 0000000.00   0000000.00                             000000000000000                                                                                                                                                     01418 A000000000000 0000000000000.39     01650 01000                  
02630010641450102DT67590675900000007088800101800000010180010124001193059900012000256022820230000000269905923000000000085031430602XXXXXX2021       VS11    0001111   NYV1 A E383060030786521N8400000000026993GFT00    07DNPLANET VAPOR #200        704405    VD84000000002699 N  599976770268                            000000000+                F DF 00381                     000000000  N000000000       0000000000000.00 0000000.00   0000000.00                             000000000000000                                                                                                                                                     01418 A000000000000 0000000000000.37     00800 01500                  
02630020641450103DT67590675900000007088800101800000010180010124001193059900012000264022820230000000488305923000000000085031430602XXXXXX2021       VS11    0001111   NYV1 A E583060031939593N840000000004883FFNK00    07DNPLANET VAPOR #200        704666    VD84000000004883 N  599976770268                            000000000+                F DF 00381                     000000000  N000000000       0000000000000.00 0000000.00   0000000.00                             000000000000000                                                                                                                                                     01418 A000000000000 0000000000000.54     00800 01500                  
02630030641450104BH6759067590000000995180010180000090170228202305923000000000020996    0000090001200006N8001016759C03012023                                                                                                                                                                                                                                                                                                                                                                                                                                                                                                                                                                                                 
02630040641450105DT67590675900000009951800101800000010180010124001193059900012000017022820230000000269905923000000000020996415967XXXXXX4137       VS11    0001111   NYV1 A E383059584797616N840000000002699SKF700    05DNPLANET VAPOR #500        275061    VD84000000002699 N  599976923295                            000000000+                F DF 00381                     000000000  N000000000       0000000000000.00 0000000.00   0000000.00                             000000000000000                                                                                                                                                     01418 A000000000000 0000000000000.37     00800 01500                  
02630050641450106DT67590675900000009951800101800000010180010124001193059900012000025022820230000000107905923000000000020996440393XXXXXX9229       VK04VS111111111   NYV1 A E303059680217402N8400000000010794VLL00    05DNPLANET VAPOR #500        151774    VD84000000001079 N  599976923295                            000000000+                F PF 08165                     000000000  N000000000       0000000000000.00 0000000.00   0000000.00                             000000000000000                                                                                                                                                     01418 F000000000000 0000000000000.22     01600 00500                  
02630060641450107DT67590675900000009951800101800000010180010124001193059900012000033022820230000000534305923000000000020996415967XXXXXX7108       VS11    0001111   NYV1 A E383059772042806N840000000005343CZSQ00    05DNPLANET VAPOR #500        283063    VD84000000005343 N  599976923295                            000000000+                F DF 00381                     000000000  N000000000       0000000000000.00 0000000.00   0000000.00                             000000000000000                                                                                                                                                     01418 A000000000000 0000000000000.58     00800 01500                  
02630070641450108DT67590675900000009951800101800000010180010124001193059900012000041022820230000000269905923000000000020996415967XXXXXX7108       VS11    0001111   NYV1 A E383059772741791N840000000002699BH7F00    05DNPLANET VAPOR #500        283094    VD84000000002699 N  599976923295                            000000000+                F DF 00381                     000000000  N000000000       0000000000000.00 0000000.00   0000000.00                             000000000000000                                                                                                                                                     01418 A000000000000 0000000000000.37     00800 01500                  
02630080641450109DT67590675900000009951800101800000010180010177287283059900012000050022820230000000539705923000000000020996517862XXXXXX5671       MS02WI09          NY 1 0 AMDJUXMC8D0228  N840000000005397          05DNPLANET VAPOR #500        029838    MD84000000005397 N  599976923295                            000000000+M10101C5434C    MDJ  10715                     000000000  B                0000000000000.00 0000000.00   0000000.00                             000000000000000                                                                                                                                                   B101418  000000000000 0000000000000.24     00050 02100                  
02630090641450110DT67590675900000009951800101800000010180010177287283059900012000068022820230000000377905923000000000020996542418XXXXXX7831       MS02WI09          NY 1 0 AMWEPDEH340228  N840000000003779          07DNPLANET VAPOR #500        96411P    MC84000000003779 N  599976923295                            000000000+M10101M0034C    MWE  00739                     000000000  N                0000000000000.00 0000000.00   0000000.00                             000000000000000                                                                                                                                                   B101418  000000000000 0000000000000.97     02300 01000                  
02630100641450111BH6759067590000001107280010180000090170228202305923000000000025459    0000090001220004N8001016759C03012023                                                                                                                                                                                                                                                                                                                                                                                                                                                                                                                                                                                                 
02630110641450112DT67590675900000011072800101800000010180010124001193059900012200013022820230000001455005923000000000025459474474XXXXXX8026       VS11    0001111   NYV1 A E303059635571386N840000000014550Z3FM00    05DNPLANET VAPOR #900        123198    VD84000000014550 N  599976923588                            000000000+                F DF 10433                     000000000  Y000000000 338   0000000000000.00 0000000.00   0000000.00                             000000000000000                                                                                                                                                     01418 A000000000000 0000000000000.29     00050 02200                  
02630120641450113DT67590675900000011072800101800000010180010124001193059900012200021022820230000000470705923000000000025459461675XXXXXX0446       VS11    0001111   NYV1 A E463059737552491N840000000004707NHQP00    05DNPLANET VAPOR #900        527350    VD84000000004707 N  599976923588                            000000000+                F DF 00381                     000000000  N000000000       0000000000000.00 0000000.00   0000000.00                             000000000000000                                                                                                                                                     01418 A000000000000 0000000000000.53     00800 01500                  
02630130641450114DT67590675900000011072800101800000010180010124001193059900012200039022820230000000213905923000000000025459430602XXXXXX8438       VS11    0001111   NYV1 A E383059747471975N840000000002139VFM600    07DNPLANET VAPOR #900        649313    VD84000000002139 N  599976923588                            000000000+                F DF 00381                     000000000  N000000000       0000000000000.00 0000000.00   0000000.00                             000000000000000                                                                                                                                                     01418 A000000000000 0000000000000.32     00800 01500                  
02630140641450115DT67590675900000011072800101800000010180010124001193059900012200047022820230000000406305923000000000025459433477XXXXXX6928       VS11    0001111   NYV1 A E583059850752583N8400000000040634P4G00    07DNPLANET VAPOR #900        784735    VD84000000004063 N  599976923588                            000000000+                F DF 10433                     000000000  Y000000000 338   0000000000000.00 0000000.00   0000000.00                             000000000000000                                                                                                                                                     01418 A000000000000 0000000000000.24     00050 02200                  
02630150641450116BH6759067590000000766680010180000090170228202305923000000000114305    0000090001240025N8001016759C03012023                                                                                                                                                                                                                                                                                                                                                                                                                                                                                                                                                                                                 
02630160641450117DT67590675900000007666800101800000010180010124001193059900012400019022820230000000809705923000000000114305433477XXXXXX4039       VS11    0001111   NYV1 A E583059569501340N840000000008097FXK800    05DNPLANET VAPOR #300        296693    VD84000000008097 N  599976777836                            000000000+                F DF 10433                     000000000  Y000000000 338   0000000000000.00 0000000.00   0000000.00                             000000000000000                                                                                                                                                     01418 A000000000000 0000000000000.26     00050 02200                  
02630170641450118DT67590675900000007666800101800000010180010124001193059900012400027022820230000000205105923000000000114305473703XXXXXX5577       VS11    0001111   NYV1 A E583059607904910N840000000002051DCW200    05DNPLANET VAPOR #300        007042    VD84000000002051 N  599976777836                            000000000+                F DF 10433                     000000000  Y000000000 338   0000000000000.00 0000000.00   0000000.00                             000000000000000                                                                                                                                                     01418 A000000000000 0000000000000.23     00050 02200                  
02630180641450119DT67590675900000007666800101800000010180010124001193059900012400035022820230000000280705923000000000114305448261XXXXXX7370       VS11    0001111   NYV1 A E383059608903531N840000000002807NDFD00    05DNPLANET VAPOR #300        834212    VD84000000002807 N  599976777836                            000000000+                F DF 10433                     000000000  Y000000000 338   0000000000000.00 0000000.00   0000000.00                             000000000000000                                                                                                                                                     01418 A000000000000 0000000000000.23     00050 02200                  
02630190641450120DT67590675900000007666800101800000010180010177287283059900012400045022820230000000237505923000000000114305510805XXXXXX0518       MS02WI09          NY 1 0 AMDJLHJ75E0228  N840000000002375          07DNPLANET VAPOR #300        015234    MD84000000002375 N  599976777836                            000000000+M10101M0034C    MDJ  10815                     000000000  1                0000000000000.00 0000000.00   0000000.00                             000000000000000                                                                                                                                                   B101418  000000000000 0000000000000.23     00050 02200                  
02630200641450121DT67590675900000007666800101800000010180010124001193059900012400050022820230000000323805923000000000114305461675XXXXXX7640       VS11    0001111   NYV1 A E303059648005549N8400000000032388VGN00    05DNPLANET VAPOR #300        423770    VD84000000003238 N  599976777836                            000000000+                F DF 00381                     000000000  N000000000       0000000000000.00 0000000.00   0000000.00                             000000000000000                                                                                                                                                     01418 A000000000000 0000000000000.41     00800 01500                  
02630210641450122DT67590675900000007666800101800000010180010124001193059900012400068022820230000000280705923000000000114305445203XXXXXX0897       VS11    0001111   NYV1 A E303059655558073N840000000002807B5TR00    05DNPLANET VAPOR #300        279553    VD84000000002807 N  599976777836                            000000000+                F DF 00381                     000000000  N000000000       0000000000000.00 0000000.00   0000000.00                             000000000000000                                                                                                                                                     01418 A000000000000 0000000000000.37     00800 01500                  
02630220641450123DT67590675900000007666800101800000010180010124001193059900012400076022820230000000561205923000000000114305473702XXXXXX0454       VS11    0001111   NYV1 A E583059709159755N840000000005612R6ST00    05DNPLANET VAPOR #300        024376    VD84000000005612 N  599976777836                            000000000+                F DF 10433                     000000000  Y000000000 338   0000000000000.00 0000000.00   0000000.00                             000000000000000                                                                                                                                                     01418 A000000000000 0000000000000.25     00050 02200                  
02630230641450124DT67590675900000007666800101800000010180010124001193059900012400084022820230000000739405923000000000114305440393XXXXXX5709       VS11    0001111   NYV1 A E583059729619736N840000000007394NJW600    07DNPLANET VAPOR #300        778333    VD84000000007394 N  599976777836                            000000000+                F PF 08170                     000000000  N000000000       0000000000000.00 0000000.00   0000000.00                             000000000000000                                                                                                                                                     01418 A000000000000 0000000000001.00     01150 01500                  
02630240641450125DT67590675900000007666800101800000010180010124001193059900012400092022820230000000213705923000000000114305438419XXXXXX9982       VS11    0001111   NYV1 A E303059731762234N840000000002137VBRN00    07DNPLANET VAPOR #300        051936    VD84000000002137 N  599976777836                            000000000+                F DF 00381                     000000000  N000000000       0000000000000.00 0000000.00   0000000.00                             000000000000000                                                                                                                                                     01418 A000000000000 0000000000000.32     00800 01500                  
02630250641450126DT67590675900000007666800101800000010180010124001193059900012400100022820230000000151005923000000000114305430602XXXXXX4890       VS11    0001111   NYV1 A E583059737505560N840000000001510L4L600    07DNPLANET VAPOR #300        645902    VD84000000001510 N  599976777836                            000000000+                F DF 00381                     000000000  N000000000       0000000000000.00 0000000.00   0000000.00                             000000000000000                                                                                                                                                     01418 A000000000000 0000000000000.27     00800 01500                  
02630260641450127DT67590675900000007666800101800000010180010124001193059900012400118022820230000000402905923000000000114305430602XXXXXX4890       VS11    0001111   NYV1 A E303059738626578N840000000004029BK7K00    07DNPLANET VAPOR #300        646344    VD84000000004029 N  599976777836                            000000000+                F DF 00381                     000000000  N000000000       0000000000000.00 0000000.00   0000000.00                             000000000000000                                                                                                                                                     01418 A000000000000 0000000000000.47     00800 01500                  
02630270641450128DT67590675900000007666800101800000010180010124001193059900012400126022820230000000252605923000000000114305430602XXXXXX8840       VS11    0001111   NYV1 A E463059754362848N8400000000025263LD400    07DNPLANET VAPOR #300        651830    VD84000000002526 N  599976777836                            000000000+                F DF 00381                     000000000  N000000000       0000000000000.00 0000000.00   0000000.00                             000000000000000                                                                                                                                                     01418 A000000000000 0000000000000.35     00800 01500                  
02630280641450129DT67590675900000007666800101800000010180010124001193059900012400134022820230000000269905923000000000114305414740XXXXXX8581       VS11    0001111   NYV1 A E463059755782169N840000000002699TJ7700    07DNPLANET VAPOR #300        08165D    VS84000000002699 N  599976777836                            000000000+                D CD 12113                     000000000  N000000000 499   0000000000000.00 0000000.00   0000000.00                             000000000000000                                                                                                                                                     01418 A000000000000 0000000000000.67     02100 01000                  
02630290641450130DT67590675900000007666800101800000010180010177287283059900012400144022820230000000213705923000000000114305510805XXXXXX1964       MS02WI09          NY 1 0 AMDJR9K80Y0228  N840000000002137          05DNPLANET VAPOR #300        050124    MD84000000002137 N  599976777836                            000000000+M10101C5434C    MDJ  10815                     000000000  1                0000000000000.00 0000000.00   0000000.00                             000000000000000                                                                                                                                                   B101418  000000000000 0000000000000.23     00050 02200                  
02630300641450131DT67590675900000007666800101800000010180010177287283059900012400151022820230000000561305923000000000114305531258XXXXXX2165       MS02WI09          NY 1 0 AMDJOZHS1N0228  N840000000005613          07DNPLANET VAPOR #300        123506    MD84000000005613 N  599976777836                            000000000+M10101M5434C    MDJ  10815                     000000000  1                0000000000000.00 0000000.00   0000000.00                             000000000000000                                                                                                                                                   B101418  000000000000 0000000000000.25     00050 02200                  
02630310641450132DT67590675900000007666800101800000010180010177287283059900012400169022820230000000993305923000000000114305531258XXXXXX4442       MS02WI09          NY 1 0 AMDJO2TG1N0228  N840000000009933          05DNPLANET VAPOR #300        123044    MD84000000009933 N  599976777836                            000000000+M10101C5434C    MDJ  10815                     000000000  1                0000000000000.00 0000000.00   0000000.00                             000000000000000                                                                                                                                                   B101418  000000000000 0000000000000.27     00050 02200                  
02630320641450133DT67590675900000007666800101800000010180010124001193059900012400175022820230000000215905923000000000114305448261XXXXXX7305       VS11    0001111   NYV1 A E463059780776429N840000000002159JGDJ00    05DNPLANET VAPOR #300        004205    VD84000000002159 N  599976777836                            000000000+                F DF 10433                     000000000  Y000000000 338   0000000000000.00 0000000.00   0000000.00                             000000000000000                                                                                                                                                     01418 A000000000000 0000000000000.23     00050 02200                  
02630330641450134DT67590675900000007666800101800000010180010124001193059900012400183022820230000000485805923000000000114305427199XXXXXX5008       VS11    0001111   NYV1 A E463059786875383N84000000000485869LN00    05DNPLANET VAPOR #300        240364    VD84000000004858 N  599976777836                            000000000+                F DF 00381                     000000000  N000000000       0000000000000.00 0000000.00   0000000.00                             000000000000000                                                                                                                                                     01418 A000000000000 0000000000000.54     00800 01500                  
