03838990562810002BH6759067590000000370780088880000090170224202305523000000000092753    0000090001420294Y8008886759C02272023                                                                                                                                                                                                                                                                                                                                                                                                                                                                                                                                                                                                 
03839000562810003DT67590675900000003707800888800000010180088824001193055900014202888022320230000001450005523000000000092753414776XXXXXX0203               2111111   NYV4 A7W303055186122986N84000000001450069JB00    01DNMR HEMP FLOWER           323201    VS84000000014500 NP1549976053336   86312                    000000000+                D CD 12109                     000000000  N000000000 498   0000000000000.00 0000000.00   0000000.00                             000000000000000                                                                                                                                                     01424 G000000014500 0000000000003.73     02500 01000                  
03839010562810001P16759067590000000370780088880000001010000000000000000                             2000000000000000000000000              000000000000                    0000000000000000000000000                    000000000000                                                                                                                                                                                                                                                                                                                                                                                                                                                                                        
03839020562810004DT67590675900000003707800888800000010180088824001193055900014202896022420230000000253905523000000000092753443045XXXXXX7598               2111111   NYV4 A7W383055235218421N840000000002539VBQG00    01DNMR HEMP FLOWER           629309    VD84000000002539 NP1549976053336   86313                    000000000+                F DF 10420                     000000000  Y000000000 338   0000000000000.00 0000000.00   0000000.00                             000000000000000                                                                                                                                                     01424 G000000002539 0000000000000.23     00050 02200                  
03839030562810001P16759067590000000370780088880000001010000000000000000                             2000000000000000000000000              000000000000                    0000000000000000000000000                    000000000000                                                                                                                                                                                                                                                                                                                                                                                                                                                                                        
03839040562810005DT67590675900000003707800888800000010180088887287283055900014202905022420230000002299905523000000000092753515678XXXXXX7226       ME03KE06MS02      NY 4607AMWE1PV6GQ0224  N840000000022999          81DNMR HEMP FLOWER           09483Z    MC84000000022999 N  549976053336   86314                    000000000+600450S00130    MWE  00737                     000000000  N                0000000000000.00 0000000.00   0000000.00                             000000000000000                                                                                                                                                   U001424  000000000000 0000000000006.08     02600 01000                  
03839050562810006DT67590675900000003707800888800000010180088824001193055900014202912022420230000001409605523000000000092753404985XXXXXX1783               2111111   NYV4 A7W583055576746378N8400000000140962W8H00    01DNMR HEMP FLOWER           CA2A79    VD84000000014096 NP1549976053336   86331                    000000000+                F DF 00415                     000000000  N000000000       0000000000000.00 0000000.00   0000000.00                             000000000000000                                                                                                                                                     01424 G000000014096 0000000000002.48     01650 01500                  
03839060562810001P16759067590000000370780088880000001010000000000000000                             2000000000000000000000000              000000000000                    0000000000000000000000000                    000000000000                                                                                                                                                                                                                                                                                                                                                                                                                                                                                        
03839070562810007DT67590675900000003707800888800000010180088887287283055900014202921022420230000000644805523000000000092753529099XXXXXX1842       ME03KE06MS02      NY 4607AMDJLCV8ZQ0224  N840000000006448          81DNMR HEMP FLOWER           119562    MD84000000006448 N  549976053336   86335                    000000000+600450S00130    MDJ  10813                     000000000  1                0000000000000.00 0000000.00   0000000.00                             000000000000000                                                                                                                                                   U001424  000000000000 0000000000000.25     00050 02200                  
03839080562810008DT67590675900000003707800888800000010180088824001193055900014202938022420230000000567305523000000000092753421156XXXXXX7067               2111111   NYV4 A7W303055649443680N840000000005673ZW7V00    01DNMR HEMP FLOWER           06736C    VS84000000005673 NP1549976053336   86346                    000000000+                C CC 12108                     000000000  N000000000 496   0000000000000.00 0000000.00   0000000.00                             000000000000000                                                                                                                                                     01424 G000000005673 0000000000001.26     02050 01000                  
03839090562810001P16759067590000000370780088880000001010000000000000000                             2000000000000000000000000              000000000000                    0000000000000000000000000                    000000000000                                                                                                                                                                                                                                                                                                                                                                                                                                                                                        
03839100562810009DT67590675900000003707800888800000010180088887287283055900014202947022420230000002649805523000000000092753542689XXXXXX9339       ME03KE06MS02      NY 4607AMPLIS5I7L0224  N840000000026498          81DNMR HEMP FLOWER           024943    MC84000000026498 N  549976053336   86361                    000000000+600450S00130    MPL  00013                     000000000  N                0000000000000.00 0000000.00   0000000.00                             000000000000000                                                                                                                                                   U001424  000000000000 0000000000005.27     01950 01000                  
03839110562810010BH6759067590000001330080010280000090170224202305523000000000247066    0000090001090485Y8001026759C02272023                                                                                                                                                                                                                                                                                                                                                                                                                                                                                                                                                                                                 
03839120562810011DT67590675900000013300800102800000010180010287287283055900010903019022320230000000700405523000000000247066517546XXXXXX2701       ME03KE06MS02      NY 4607AMDJ0QR45H0220  N840000000007004          81DNCBD8666317293            020778    MD84000000007004 N  549977133133   D0F25D12EDT8AB90FA0BB76  000000000+600450S00130    MDJ  10813                     000000000  1                0000000000000.00 0000000.00   0000000.00                             000000000000000                                                                                                                                                   U001424  000000000000 0000000000000.26     00050 02200                  
03839130562810012DT67590675900000013300800102800000010180010276509753055900010903529022320230000002146005523000000000247066601197XXXXXX6019   BA00                  NY 4 07N873043597887978N840000000021460    00    01DNCBD8666317293            166055    DD84000000021460 N  549977133133070                         000000000+1015104910600   DCDDI11326166055  100308000000 000000000  0          461   0000000000000.00 0000000.00   0000000.00                             000000000000000                                                                                                                                                     01424  000000000000 0000000000003.96     01750 02000                  
03839140562810013DT67590675900000013300800102800000010180010276509753055900010903552022320230000000742405523000000000247066601101XXXXXX5862   BA00                  NY 4 07N873043597908157N840000000007424    00    01DNCBD8666317293            02065B    DZ84000000007424 N  549977133133070                         000000000+1015104910600   DMCDI01012834057  100310000000 000000000  0          124   0000000000000.00 0000000.00   0000000.00                             000000000000000                                                                                                                                                     01424  000000000000 0000000000001.97     02450 01500                  
03839150562810014DT67590675900000013300800102800000010180010276509753055900010903560022320230000002118605523000000000247066601101XXXXXX3594   BA00                  NY 4 07N873043598028949N840000000021186    00    01DNCBD8666317293            02044R    DS84000000021186 N  549977133133070                         000000000+1015104910600   DCCDI11325332067  100322000000 000000000  0          460   0000000000000.00 0000000.00   0000000.00                             000000000000000                                                                                                                                                     01424  000000000000 0000000000004.40     02030 01000                  
03839160562810015DT67590675900000013300800102800000010180010276509753055900010903578022320230000002672905523000000000247066601100XXXXXX0679   BA00                  NY 4 07N753043598118559N840000000026729    00    01DNCBD8666317293            02048R    DS84000000026729 N  549977133133070                         000000000+1015104910600   DCCDI11325668059  100331000000 000000000  0          460   0000000000000.00 0000000.00   0000000.00                             000000000000000                                                                                                                                                     01424  000000000000 0000000000005.53     02030 01000                  
03839170562810016DT67590675900000013300800102800000010180010276509753055900010903677022320230000002131105523000000000247066601100XXXXXX4934   BA00                  NY 4 07N753043629059306N840000000021311    00    01DNCBD8666317293            02087R    DS84000000021311 N  549977133133070                         000000000+1015104910600   DCCDI11325166058  105505000000 000000000  0          460   0000000000000.00 0000000.00   0000000.00                             000000000000000                                                                                                                                                     01424  000000000000 0000000000004.43     02030 01000                  
03839180562810017DT67590675900000013300800102800000010180010287287283055900010904637022320230000001535705523000000000247066537993XXXXXX2826       ME03KE06MS02      NY 4607AMPLTQB8EN0223  N840000000015357          81DNCBD8666317293            02322Z    MC84000000015357 N  549977133133   26E30E5D7AT4C637073B8B6  000000000+600450S00130    MPL  00013                     000000000  N                0000000000000.00 0000000.00   0000000.00                             000000000000000                                                                                                                                                   U001424  000000000000 0000000000003.09     01950 01000                  
03839190562810018DT67590675900000013300800102800000010180010224001193055900010904644022420230000002661105523000000000247066426684XXXXXX6992               2111111   NYV4 A7W303055321723098N840000000026611ZLBM00    01DNCBD8666317293            08371B    VS84000000026611 NP1549977133133   F31CE073ACT974A9F1CAC78  000000000+                B CB 12107                     000000000  N000000000 494   0000000000000.00 0000000.00   0000000.00                             000000000000000                                                                                                                                                     01424 G000000026611 0000000000005.53     02040 01000                  
03839200562810001P16759067590000001330080010280000001010000000000000000                             2000000000000000000000000              000000000000                    0000000000000000000000000                    000000000000                                                                                                                                                                                                                                                                                                                                                                                                                                                                                        
03839210562810019DT67590675900000013300800102800000010180010287287283055900010904652022420230000000160005523000000000247066523081XXXXXX9334       ME03KE06MS02      NY 4607AMPLBTJEZQ0224  N840000000001600          81DNCBD8666317293            03276Z    MC84000000001600 N  549977133133   6B1F2D1E95T3A1C4F096C64  000000000+600450S00130    MPL  00013                     000000000  N                0000000000000.00 0000000.00   0000000.00                             000000000000000                                                                                                                                                   U001424  000000000000 0000000000000.41     01950 01000                  
03839220562810020DT67590675900000013300800102800000010180010224001193055900010904677022420230000000695905523000000000247066473703XXXXXX0058               2111111   NYV4 A7W463055509742691N8400000000069599MHN00    01DNCBD8666317293            051891    VD84000000006959 NP1549977133133   513A66A75CTCB54009FD01B  000000000+                F DF 10420                     000000000  Y000000000 338   0000000000000.00 0000000.00   0000000.00                             000000000000000                                                                                                                                                     01424 G000000006959 0000000000000.25     00050 02200                  
03839230562810001P16759067590000001330080010280000001010000000000000000                             2000000000000000000000000              000000000000                    0000000000000000000000000                    000000000000                                                                                                                                                                                                                                                                                                                                                                                                                                                                                        
03839240562810021DT67590675900000013300800102800000010180010224001193055900010904719022420230000002106205523000000000247066414720XXXXXX7752               2111111   NYV4 A7W303055562805974N840000000021062BWVB00    01DNCBD8666317293            04022C    VS84000000021062 NP1549977133133   1C5FDBED82T2C19299C43A9  000000000+                C CC 12108                     000000000  N000000000 496   0000000000000.00 0000000.00   0000000.00                             000000000000000                                                                                                                                                     01424 G000000021062 0000000000004.42     02050 01000                  
03839250562810001P16759067590000001330080010280000001010000000000000000                             2000000000000000000000000              000000000000                    0000000000000000000000000                    000000000000                                                                                                                                                                                                                                                                                                                                                                                                                                                                                        
03839260562810022DT67590675900000013300800102800000010680010274001193055900010904722022420230000000749505523000000000247066444796XXXXXX1263               0000000   NYV4 07T583055628581416N840000000007495Z9JF00    01CNCBD8666317293            024476    VS84000000007495 NP1549977133133   07A08AAB02TA7D0429CA6BC  000000000+                A CA 00245                     000000000  N000000000 166   0000000000000.00 0000000.00   0000000.00                             000000000000000                                                                                                                                                     01424  000000007495-0000000000001.32     01760 00000                  
03839270562810001P16759067590000001330080010280000001060000000000000000                             2000000000000000000000000              000000000000                    0000000000000000000000000                    000000000000                                                                                                                                                                                                                                                                                                                                                                                                                                                                                        
03839280562810023DT67590675900000013300800102800000010180010287287283055900010904736022420230000001499105523000000000247066542539XXXXXX5760       ME03KE06MS02      NY 4607AMPLHVFE7K0224  N840000000014991          81DNCBD8666317293            024925    MC84000000014991 N  549977133133   ED8C7CE7EBT625C3A76FBD0  000000000+600450S00130    MPL  00013                     000000000  N                0000000000000.00 0000000.00   0000000.00                             000000000000000                                                                                                                                                   U001424  000000000000 0000000000003.02     01950 01000                  
03839290562810024DT67590675900000013300800102800000010680010287287283055900010904744022420230000000499905523000000000247066549806XXXXXX3933                         NY 4607AMPLR0YM7J0224  N840000000004999          81CNCBD8666317293            024236    MC84000000004999 N  549977133133   64CC1A69B7TB436EDBEC8E6  000000000+600450S00130    MPL  00565                     000000000  N                0000000000000.00 0000000.00   0000000.00                             000000000000000                                                                                                                                                     01424  000000000000-0000000000000.87     01750 00000                  
03839300562810025DT67590675900000013300800102800000010180010224001193055900010904776022420230000000710205523000000000247066414709XXXXXX0066               2111111   NYV4 A7W303055700214379N840000000007102NJ7F00    01DNCBD8666317293            01043C    VS84000000007102 NP1549977133133   72037D5DE9T0A58A9110288  000000000+                C CC 12108                     000000000  N000000000 496   0000000000000.00 0000000.00   0000000.00                             000000000000000                                                                                                                                                     01424 G000000007102 0000000000001.56     02050 01000                  
03839310562810001P16759067590000001330080010280000001010000000000000000                             2000000000000000000000000              000000000000                    0000000000000000000000000                    000000000000                                                                                                                                                                                                                                                                                                                                                                                                                                                                                        
03839320562810026DT67590675900000013300800102800000010180010224001193055900010904784022420230000000799305523000000000247066433793XXXXXX8366               2111111   NYV4 A7W303055701617049N840000000007993L2JX00    01DNCBD8666317293            024229    VS84000000007993 NP1549977133133   BF46129945TC234BC7A26F5  000000000+                A CA 12106                     000000000  N000000000 492   0000000000000.00 0000000.00   0000000.00                             000000000000000                                                                                                                                                     01424 G000000007993 0000000000001.61     01890 01000                  
03839330562810001P16759067590000001330080010280000001010000000000000000                             2000000000000000000000000              000000000000                    0000000000000000000000000                    000000000000                                                                                                                                                                                                                                                                                                                                                                                                                                                                                        
03839340562810027DT67590675900000013300800102800000010180010224001193055900010904826022420230000001000005523000000000247066414720XXXXXX8876               2111111   NYV4 A7W583055716541904N840000000010000PNJQ00    01DNCBD8666317293            02434C    VS84000000010000 NP1549977133133   0A54247546T17B9643999C4  000000000+                C CC 12108                     000000000  N000000000 496   0000000000000.00 0000000.00   0000000.00                             000000000000000                                                                                                                                                     01424 G000000010000 0000000000002.15     02050 01000                  
03839350562810001P16759067590000001330080010280000001010000000000000000                             2000000000000000000000000              000000000000                    0000000000000000000000000                    000000000000                                                                                                                                                                                                                                                                                                                                                                                                                                                                                        
03839360562810028DT67590675900000013300800102800000010180010224001193055900010904834022420230000000699505523000000000247066444796XXXXXX0811               2111111   NYV4 A7W383055726169131N840000000006995QLMX00    01DNCBD8666317293            024017    VS84000000006995 NP1549977133133   3AB2611DB5T12FEB1585855  000000000+                A CA 12106                     000000000  N000000000 492   0000000000000.00 0000000.00   0000000.00                             000000000000000                                                                                                                                                     01424 G000000006995 0000000000001.42     01890 01000                  
03839370562810001P16759067590000001330080010280000001010000000000000000                             2000000000000000000000000              000000000000                    0000000000000000000000000                    000000000000                                                                                                                                                                                                                                                                                                                                                                                                                                                                                        
03839380562810029DT67590675900000013300800102800000010180010224001193055900010904842022420230000002078505523000000000247066414740XXXXXX3630               2111111   NYV4 A7W583055734366210N840000000020785ZQNX00    01DNCBD8666317293            00688D    VS84000000020785 NP1549977133133   9DB0B3F3B5T25E377712CF4  000000000+                D CD 12109                     000000000  N000000000 498   0000000000000.00 0000000.00   0000000.00                             000000000000000                                                                                                                                                     01424 G000000020785 0000000000005.30     02500 01000                  
03839390562810001P16759067590000001330080010280000001010000000000000000                             2000000000000000000000000              000000000000                    0000000000000000000000000                    000000000000                                                                                                                                                                                                                                                                                                                                                                                                                                                                                        
03839400562810030DT67590675900000013300800102800000010180010276509753055900010904857022420230000001499105523000000000247066601100XXXXXX5446   BA00                  NY 4 07N803047257380132N840000000014991    00    01DNCBD8666317293            02453R    DS84000000014991 N  549977133133070                         000000000+1015104910600   DCCDI11325502186  154218000000 000000000  0          460   0000000000000.00 0000000.00   0000000.00                             000000000000000                                                                                                                                                     01424  000000000000 0000000000003.14     02030 01000                  
03839410562810031BH6759067590000001427480010280000090170224202305523000000000140159    0000090001090616Y8001026759C02272023                                                                                                                                                                                                                                                                                                                                                                                                                                                                                                                                                                                                 
03839420562810032DT67590675900000014274800102800000010180010287287283055900010902953022320230000000600405523000000000140159542418XXXXXX2740       ME03KE06PT01      NY 4607AMCW1US7GR0220  N840000000006004          81DNCBD8666317293            90123P    MC84000000006004 N  549977145232   58C7752744T70535B6C6F6E  000000000+600450S00130    MCW  00642                     000000000  N                0000000000000.00 0000000.00   0000000.00                             000000000000000                                                                                                                                                   U001424  000000000000 0000000000001.42     02200 01000                  
03839430562810033DT67590675900000014274800102800000010180010224001193055900010903646022320230000000742405523000000000140159414397XXXXXX2569               2111111   NYV4 A7W583051575905444N840000000007424L4ZL00    01DNCBD8666317293            366008    VD84000000007424 NP1549977145232   3941190B91TDF58FCC8FC54  000000000+                F PF 08175                     000000000  N000000000       0000000000000.00 0000000.00   0000000.00                             000000000000000                                                                                                                                                     01424 G000000007424 0000000000001.50     01750 02000                  
03839440562810001P16759067590000001427480010280000001010000000000000000                             2000000000000000000000000              000000000000                    0000000000000000000000000                    000000000000                                                                                                                                                                                                                                                                                                                                                                                                                                                                                        
03839450562810034DT67590675900000014274800102800000010180010287287283055900010904199022320230000001799105523000000000140159526219XXXXXX9813       ME03KE06MS02      NY 4607AMDSPS4X8P0220  N840000000017991          81DNCBD8666317293            48090Z    MD84000000017991 N  549977145232   006276B6F5T5EDCD35193C8  000000000+600450S00130    MDS  10813                     000000000  1                0000000000000.00 0000000.00   0000000.00                             000000000000000                                                                                                                                                   U001424  000000000000 0000000000000.31     00050 02200                  
03839460562810035DT67590675900000014274800102800000010180010287287283055900010905972022320230000001933605523000000000140159511271XXXXXX8222       ME03KE06MS02      NY 4607AMDJTZH2EN0223  N840000000019336          81DNCBD8666317293            035661    MD84000000019336 N  549977145232   4F64B5D679T1ADB65AD39D5  000000000+600450S00130    MDJ  10813                     000000000  1                0000000000000.00 0000000.00   0000000.00                             000000000000000                                                                                                                                                   U001424  000000000000 0000000000000.32     00050 02200                  
03839470562810036DT67590675900000014274800102800000010180010224001193055900010905989022420230000002487005523000000000140159409592XXXXXX4430               2111111   NYV4 A7W383055243430527N840000000024870SGG900    01DNCBD8666317293            034543    VS84000000024870 NP1549977145232   763C0DA7FDT71C02954D499  000000000+                A CA 12106                     000000000  N000000000 492   0000000000000.00 0000000.00   0000000.00                             000000000000000                                                                                                                                                     01424 G000000024870 0000000000004.80     01890 01000                  
03839480562810001P16759067590000001427480010280000001010000000000000000                             2000000000000000000000000              000000000000                    0000000000000000000000000                    000000000000                                                                                                                                                                                                                                                                                                                                                                                                                                                                                        
03839490562810037DT67590675900000014274800102800000010180010287287283055900010905998022420230000000149505523000000000140159517800XXXXXX1794       ME03KE06MS02      NY 4607AMCSRY74GF0224  N840000000001495          81DNCBD8666317293            024569    MC84000000001495 N  549977145232   2C5D9B1FEATCEAE01B07CF7  000000000+600450S00130    MCS  00013                     000000000  N                0000000000000.00 0000000.00   0000000.00                             000000000000000                                                                                                                                                   U001424  000000000000 0000000000000.39     01950 01000                  
03839500562810038DT67590675900000014274800102800000010180010287287283055900010906004022420230000000138605523000000000140159523081XXXXXX9334       ME03KE06MS02      NY 4607AMPLVUDPZP0224  N840000000001386          81DNCBD8666317293            01561Z    MC84000000001386 N  549977145232   6B1F2D1E95T69B6EAC6AB30  000000000+600450S00130    MPL  00013                     000000000  N                0000000000000.00 0000000.00   0000000.00                             000000000000000                                                                                                                                                   U001424  000000000000 0000000000000.37     01950 01000                  
03839510562810039DT67590675900000014274800102800000010180010287287283055900010906012022420230000002487005523000000000140159518941XXXXXX8449       ME03KE06MS02      NY 4607AMWEFY6AZS0224  N840000000024870          81DNCBD8666317293            51684Z    MC84000000024870 N  549977145232   1CC4A77D3FTED01BE0B9F5C  000000000+600450S00130    MWE  00737                     000000000  N                0000000000000.00 0000000.00   0000000.00                             000000000000000                                                                                                                                                   U001424  000000000000 0000000000006.57     02600 01000                  
03839520562810040DT67590675900000014274800102800000010680010287287283055900010906020022420230000002118605523000000000140159537993XXXXXX2826                         NY 4607AMPLWLM9ZP0224  N840000000021186          81CNCBD8666317293            024365    MC84000000021186 N  549977145232   EC6BCD9F57T3DBB27480A57  000000000+600450S00130    MPL  00565                     000000000  N                0000000000000.00 0000000.00   0000000.00                             000000000000000                                                                                                                                                     01424  000000000000-0000000000003.71     01750 00000                  
03839530562810041DT67590675900000014274800102800000010180010287287283055900010906038022420230000000499905523000000000140159536284XXXXXX7075       ME03KE06PT01      NY 4607AMCWGP1RM90224  N840000000004999          81DNCBD8666317293            69516Z    MC84000000004999 N  549977145232   4FADEA3157T7BD6286DCF4B  000000000+600450S00130    MCW  00642                     000000000  N                0000000000000.00 0000000.00   0000000.00                             000000000000000                                                                                                                                                   U001424  000000000000 0000000000001.20     02200 01000                  
03839540562810042DT67590675900000014274800102800000010680010287287283055900010906046022420230000000499905523000000000140159536284XXXXXX7075                         NY 4607AMCWXTT5ZP0224  N840000000004999          81CNCBD8666317293            633639    MC84000000004999 N  549977145232   4FADEA3157T7BD6286DCF4B  000000000+600450S00130    MCW  00565                     000000000  N                0000000000000.00 0000000.00   0000000.00                             000000000000000                                                                                                                                                     01424  000000000000-0000000000000.87     01750 00000                  
03839550562810043DT67590675900000014274800102800000010180010287287283055900010906061022420230000000137305523000000000140159528217XXXXXX0333       ME03KE06MS02      NY 4607AMDJA919ZQ0224  N840000000001373          81DNCBD8666317293            640520    MD84000000001373 N  549977145232   EB674D4EB6T3DAC41900536  000000000+600450S00130    MDJ  00401                     000000000  N                0000000000000.00 0000000.00   0000000.00                             000000000000000                                                                                                                                                   U001424  000000000000 0000000000000.38     01650 01500                  
03839560562810044DT67590675900000014274800102800000010180010287287283055900010906079022420230000000158505523000000000140159528217XXXXXX0333       ME03KE06MS02      NY 4607AMDJM89EZQ0224  N840000000001585          81DNCBD8666317293            640695    MD84000000001585 N  549977145232   EB674D4EB6T796CF1A32637  000000000+600450S00130    MDJ  00401                     000000000  N                0000000000000.00 0000000.00   0000000.00                             000000000000000                                                                                                                                                   U001424  000000000000 0000000000000.41     01650 01500                  
03839570562810045DT67590675900000014274800102800000010180010224001193055900010906128022420230000001592805523000000000140159440066XXXXXX6926               2111111   NYV4 A7W383055650136169N840000000015928BTFK00    01DNCBD8666317293            04032D    VS84000000015928 NP1549977145232   1885D3B326TBDDC85256665  000000000+                D CD 12109                     000000000  N000000000 498   0000000000000.00 0000000.00   0000000.00                             000000000000000                                                                                                                                                     01424 G000000015928 0000000000004.08     02500 01000                  
03839580562810001P16759067590000001427480010280000001010000000000000000                             2000000000000000000000000              000000000000                    0000000000000000000000000                    000000000000                                                                                                                                                                                                                                                                                                                                                                                                                                                                                        
03839590562810046DT67590675900000014274800102800000010180010224001193055900010906144022420230000002106205523000000000140159480641XXXXXX0975               2111111   NYV4 A7W583055656923722N840000000021062TKZB00    01DNCBD8666317293            031453    VD84000000021062 NP1549977145232   59A9E0EA90TDE55A6923923  000000000+                F DF 00415                     000000000  N000000000       0000000000000.00 0000000.00   0000000.00                             000000000000000                                                                                                                                                     01424 G000000021062 0000000000003.63     01650 01500                  
03839600562810001P16759067590000001427480010280000001010000000000000000                             2000000000000000000000000              000000000000                    0000000000000000000000000                    000000000000                                                                                                                                                                                                                                                                                                                                                                                                                                                                                        
03839610562810047DT67590675900000014274800102800000010180010224001193055900010906151022420230000002443905523000000000140159470523XXXXXX8158               2111111   NYV4 A7W303055678491839N840000000024439KTFT00    01DNCBD8666317293            005049    VD84000000024439 NP1549977145232   7DA91139CET1EBA9ECD8C7E  000000000+                F DF 00415                     000000000  N000000000       0000000000000.00 0000000.00   0000000.00                             000000000000000                                                                                                                                                     01424 G000000024439 0000000000004.18     01650 01500                  
03839620562810001P16759067590000001427480010280000001010000000000000000                             2000000000000000000000000              000000000000                    0000000000000000000000000                    000000000000                                                                                                                                                                                                                                                                                                                                                                                                                                                                                        
03839630562810048DT67590675900000014274800102800000010680010274001193055900010906164022420230000000641805523000000000140159440066XXXXXX7890               0000000   NYV4 07T303055726214177N840000000006418FXTX00    01CNCBD8666317293            01147D    VS84000000006418 NP1549977145232   6805069151T98DC533FC296  000000000+                D CD 00245                     000000000  N000000000 166   0000000000000.00 0000000.00   0000000.00                             000000000000000                                                                                                                                                     01424  000000006418-0000000000001.13     01760 00000                  
03839640562810001P16759067590000001427480010280000001060000000000000000                             2000000000000000000000000              000000000000                    0000000000000000000000000                    000000000000                                                                                                                                                                                                                                                                                                                                                                                                                                                                                        
03839650576400002BH6759067590000001165080088880000090170226202305723000000000065406    0000090001140020N8008886759C02272023                                                                                                                                                                                                                                                                                                                                                                                                                                                                                                                                                                                                 
03839660576400003DT67590675900000011650800888800000010180088824001193057900011400012022420230000000340505723000000000065406414740XXXXXX1316       VS11    0001111   NYV1 A E583055620296535N840000000003405G8X500    07DNVPODS HOLDING INC        00489D    VS84000000003405 N  599977032122                            000000000+                D CD 12113                     000000000  N000000000 499   0000000000000.00 0000000.00   0000000.00                             000000000000000                                                                                                                                                     01418 A000000000000 0000000000000.82     02100 01000                  
03839670576400004DT67590675900000011650800888800000010180088824001193057900011400020022420230000000283805723000000000065406478200XXXXXX7979       VS11    0001111   NYV1 A E583055635345163N840000000002838TCV400    05DNVPODS HOLDING INC        043812    VD84000000002838 N  599977032122                            000000000+                F DF 10433                     000000000  Y000000000 338   0000000000000.00 0000000.00   0000000.00                             000000000000000                                                                                                                                                     01418 A000000000000 0000000000000.23     00050 02200                  
03839680576400005DT67590675900000011650800888800000010180088824001193057900011400038022420230000000257505723000000000065406434236XXXXXX9826       VS11    0001111   NYV1 A E383055692825405N8400000000025757DQQ00    07DNVPODS HOLDING INC        044631    VD84000000002575 N  599977032122                            000000000+                F DF 00381                     000000000  N000000000       0000000000000.00 0000000.00   0000000.00                             000000000000000                                                                                                                                                     01418 A000000000000 0000000000000.36     00800 01500                  
03839690576400006DT67590675900000011650800888800000010180088877287283056900011400049022420230000000340405723000000000065406559619XXXXXX3057       MS02WI09          NY 1 0 AMDJNBIM5W0224  N840000000003404          07DNVPODS HOLDING INC        113556    MD84000000003404 N  599977032122                            000000000+M10101M0034C    MDJ  10815                     000000000  1                0000000000000.00 0000000.00   0000000.00                             000000000000000                                                                                                                                                   A101418  000000000000 0000000000000.24     00050 02200                  
03839700576400007DT67590675900000011650800888800000010180088877287283056900011400056022420230000000283805723000000000065406536062XXXXXX8477       MS02WI09          NY 1 0 AMDJQBZS5W0224  N840000000002838          07DNVPODS HOLDING INC        043270    MD84000000002838 N  599977032122                            000000000+M10101M0034C    MDJ  10815                     000000000  1                0000000000000.00 0000000.00   0000000.00                             000000000000000                                                                                                                                                   B101418  000000000000 0000000000000.23     00050 02200                  
03839710576400008DT67590675900000011650800888800000010180088877287283056900011400064022420230000000616005723000000000065406542432XXXXXX4408       MS02WI09          NY 1 0 AMDJHQJR5W0224  N840000000006160          07DNVPODS HOLDING INC        416070    MD84000000006160 N  599977032122                            000000000+M10101M5434C    MDJ  10815                     000000000  1                0000000000000.00 0000000.00   0000000.00                             000000000000000                                                                                                                                                   B101418  000000000000 0000000000000.25     00050 02200                  
03839720576400009DT67590675900000011650800888800000010180088824001193057900011400079022420230000000340505723000000000065406473395XXXXXX2474       VS11    0001111   NYV1 A E583056006242812N840000000003405JS9H00    05DNVPODS HOLDING INC        217224    VD84000000003405 N  599977032122                            000000000+                F DF 00381                     000000000  N000000000       0000000000000.00 0000000.00   0000000.00                             000000000000000                                                                                                                                                     01418 A000000000000 0000000000000.42     00800 01500                  
03839730576400010DT67590675900000011650800888800000010180088824001193057900011400087022420230000000340505723000000000065406414720XXXXXX9895       VS11    0001111   NYV1 A E463056013825217N840000000003405Q86T00    07DNVPODS HOLDING INC        09068C    VS84000000003405 N  599977032122                            000000000+                C CC 12112                     000000000  N000000000 497   0000000000000.00 0000000.00   0000000.00                             000000000000000                                                                                                                                                     01418 A000000000000 0000000000000.66     01650 01000                  
03839740576400011DT67590675900000011650800888800000010180088877287283056900011400098022420230000000340505723000000000065406517805XXXXXX3760       MS02WI09          NY 1 0 AMWEQ7ZE530224  N840000000003405          07DNVPODS HOLDING INC        09705P    MC84000000003405 N  599977032122                            000000000+M10101M0034C    MWE  00739                     000000000  N                0000000000000.00 0000000.00   0000000.00                             000000000000000                                                                                                                                                   B101418  000000000000 0000000000000.88     02300 01000                  
03839750576400012DT67590675900000011650800888800000010180088824001193057900011400103022420230000000227005723000000000065406414720XXXXXX9302       VS11    0001111   NYV1 A E383056023765317N8400000000022705G6C00    05DNVPODS HOLDING INC        08111D    VS84000000002270 N  599977032122                            000000000+                D CD 12113                     000000000  N000000000 499   0000000000000.00 0000000.00   0000000.00                             000000000000000                                                                                                                                                     01418 A000000000000 0000000000000.58     02100 01000                  
03839760576400013DT67590675900000011650800888800000010180088824001193057900011400111022420230000000340505723000000000065406438857XXXXXX6363       VS11    0001111   NYV1 A E303056038439207N840000000003405FVDK00    07DNVPODS HOLDING INC        02118D    VS84000000003405 N  599977032122                            000000000+                D CD 12113                     000000000  N000000000 499   0000000000000.00 0000000.00   0000000.00                             000000000000000                                                                                                                                                     01418 A000000000000 0000000000000.82     02100 01000                  
03839770576400014DT67590675900000011650800888800000010180088877287283056900011400122022420230000000567505723000000000065406517805XXXXXX0553       MS02WI09          NY 1 0 AMWES5MB530224  N840000000005675          07DNVPODS HOLDING INC        08350P    MC84000000005675 N  599977032122                            000000000+M10101M5434C    MWE  00739                     000000000  N                0000000000000.00 0000000.00   0000000.00                             000000000000000                                                                                                                                                   B101418  000000000000 0000000000001.41     02300 01000                  
03839780576400015DT67590675900000011650800888800000010180088824001193057900011400137022420230000000257405723000000000065406414720XXXXXX1276       VS11    0001111   NYV1 A E383056060422703N840000000002574M5QB00    07DNVPODS HOLDING INC        01272C    VS84000000002574 N  599977032122                            000000000+                C CC 12112                     000000000  N000000000 497   0000000000000.00 0000000.00   0000000.00                             000000000000000                                                                                                                                                     01418 A000000000000 0000000000000.52     01650 01000                  
03839790576400016DT67590675900000011650800888800000010180088877287283056900011400148022420230000000034005723000000000065406534970XXXXXX9049       MS02WI09          NY 1 0 AMDJMG2T770224  N840000000000340          07DNVPODS HOLDING INC        002447    MD84000000000340 N  599977032122                            000000000+M10101M0034C    MDJ  10815                     000000000  1                0000000000000.00 0000000.00   0000000.00                             000000000000000                                                                                                                                                   A101418  000000000000 0000000000000.22     00050 02200                  
03839800576400017DT67590675900000011650800888800000010180088824001193057900011400152022420230000000200005723000000000065406419002XXXXXX5021       VS11    0001111   NYV1 A E463056095334398N8400000000020004SHH00    07DNVPODS HOLDING INC        006748    VD84000000002000 N  599977032122                            000000000+                F DF 10433                     000000000  Y000000000 338   0000000000000.00 0000000.00   0000000.00                             000000000000000                                                                                                                                                     01418 A000000000000 0000000000000.23     00050 02200                  
03839810576400018DT67590675900000011650800888800000010180088824001193057900011400160022420230000000227005723000000000065406474481XXXXXX9614       VS11    0001111   NYV1 A E383056116436917N84000000000227088X700    07DNVPODS HOLDING INC        111942    VD84000000002270 N  599977032122                            000000000+                F DF 10433                     000000000  Y000000000 338   0000000000000.00 0000000.00   0000000.00                             000000000000000                                                                                                                                                     01418 A000000000000 0000000000000.23     00050 02200                  
03839820576400019DT67590675900000011650800888800000010180088824001193057900011400178022420230000000340505723000000000065406438857XXXXXX8147       VS11    0001111   NYV1 A E383056151719875N84000000000340552ZW00    05DNVPODS HOLDING INC        07559D    VS84000000003405 N  599977032122                            000000000+                D CD 12113                     000000000  N000000000 499   0000000000000.00 0000000.00   0000000.00                             000000000000000                                                                                                                                                     01418 A000000000000 0000000000000.82     02100 01000                  
03839830576400020DT67590675900000011650800888800000010180088824001193057900011400186022420230000000351805723000000000065406419002XXXXXX8821       VS11    0001111   NYV1 A E583056178537273N840000000003518TCHL00    05DNVPODS HOLDING INC        025306    VD84000000003518 N  599977032122                            000000000+                F DF 10433                     000000000  Y000000000 338   0000000000000.00 0000000.00   0000000.00                             000000000000000                                                                                                                                                     01418 A000000000000 0000000000000.24     00050 02200                  
03839840576400021DT67590675900000011650800888800000010180088824001193057900011400194022420230000000624405723000000000065406427082XXXXXX8570       VS11    0001111   NYV1 A E303056190085812N8400000000062449Q6300    07DNVPODS HOLDING INC        024950    VS84000000006244 N  599977032122                            000000000+                D CD 12113                     000000000  N000000000 499   0000000000000.00 0000000.00   0000000.00                             000000000000000                                                                                                                                                     01418 A000000000000 0000000000001.41     02100 01000                  
03839850576400022DT67590675900000011650800888800000010180088824001193057900011400202022420230000000227005723000000000065406461017XXXXXX0944       VS11    0001111   NYV1 A E463056211580014N840000000002270GK5900    07DNVPODS HOLDING INC        981870    VD84000000002270 N  599977032122                            000000000+                F DF 10433                     000000000  Y000000000 338   0000000000000.00 0000000.00   0000000.00                             000000000000000                                                                                                                                                     01418 A000000000000 0000000000000.23     00050 02200                  
03839860576400023BH6759067590000000570280088880000090170226202305723000000000754989    0000090001014513N8008886759C02272023                                                                                                                                                                                                                                                                                                                                                                                                                                                                                                                                                                                                 
03839870576400024DT67590675900000005702800888800000010180088824001193057900010129521022520230000001199605723000000000754989483312XXXXXX9879               2111111   NYV4 A7W583056272512722N840000000011996NJPH00    01DNPSILOMART                023402    VD84000000011996 NP1549971004114   RLTAK1IGVLV1QEZ2NXO7     000000000+                F DF 10420                     000000000  Y000000000 338   0000000000000.00 0000000.00   0000000.00                             000000000000000                                                                                                                                                     01418 G000000011996 0000000000000.28     00050 02200                  
03839880576400001P16759067590000000570280088880000001010000000000000000                             2000000000000000000000000              000000000000                    0000000000000000000000000                    000000000000                                                                                                                                                                                                                                                                                                                                                                                                                                                                                        
03839890576400025DT67590675900000005702800888800000010180088824001193057900010195670022520230000000279905723000000000754989477349XXXXXX9812               2111111   NYV4 A7W463056474582280N840000000002799NTNG00    01DNPSILOMART                758221    VD84000000002799 NP1549971004114   R7JTCPY1JZBT3XHRXRRF     000000000+                F DF 00415                     000000000  N000000000       0000000000000.00 0000000.00   0000000.00                             000000000000000                                                                                                                                                     01418 G000000002799 0000000000000.61     01650 01500                  
03839900576400001P16759067590000000570280088880000001010000000000000000                             2000000000000000000000000              000000000000                    0000000000000000000000000                    000000000000                                                                                                                                                                                                                                                                                                                                                                                                                                                                                        
03839910576400026DT67590675900000005702800888800000010180088887287283056900010101027022520230000000599805723000000000754989542418XXXXXX9825       ME03KE06MS02      NY 4607AMPLA086JB0225  N840000000005998          81DNPSILOMART                29935B    MC84000000005998 N  549900000001   rxINQgCRdaRJEVZcOF3Z     000000000+600450S00140    MPL  00580                     000000000  N                0000000000000.00 0000000.00   0000000.00                             000000000000000                                                                                                                                                   U001418  000000000000 0000000000001.36     02100 01000                  
03839920576400027DT67590675900000005702800888800000010180088824001193057900010180151022520230000000339805723000000000754989443628XXXXXX9029               2111111   NYV4 A7W303056812041782N840000000003398CX5J00    01DNPSILOMART                063324    VD84000000003398 NP1549971004114   RBDE3RJ2FRRINLCVSHJ0     000000000+                F DF 10420                     000000000  Y000000000 338   0000000000000.00 0000000.00   0000000.00                             000000000000000                                                                                                                                                     01418 G000000003398 0000000000000.24     00050 02200                  
03839930576400001P16759067590000000570280088880000001010000000000000000                             2000000000000000000000000              000000000000                    0000000000000000000000000                    000000000000                                                                                                                                                                                                                                                                                                                                                                                                                                                                                        
03839940576400028DT67590675900000005702800888800000010180088887287283056900010153176022520230000000663705723000000000754989525363XXXXXX7599       ME03KE06MS02      NY 4607AMWELAUPBT0224  N840000000006637          81DNPSILOMART                87755Z    MC84000000006637 N  549900000001   rcavBg2YrQV8BhNRc5fV     000000000+600450S00140    MWE  00737                     000000000  N                0000000000000.00 0000000.00   0000000.00                             000000000000000                                                                                                                                                   U001418  000000000000 0000000000001.83     02600 01000                  
03839950576400029DT67590675900000005702800888800000010180088824001193057900010168834022520230000000399905723000000000754989434256XXXXXX3427               2111111   NYV4 A7W463056210722206N840000000003999Q2TP00    01DNPSILOMART                002875    VD84000000003999 NP1549971004114   RQZT7CQWYC2RYHNAL6FF     000000000+                F DF 10420                     000000000  Y000000000 338   0000000000000.00 0000000.00   0000000.00                             000000000000000                                                                                                                                                     01418 G000000003999 0000000000000.24     00050 02200                  
03839960576400001P16759067590000000570280088880000001010000000000000000                             2000000000000000000000000              000000000000                    0000000000000000000000000                    000000000000                                                                                                                                                                                                                                                                                                                                                                                                                                                                                        
03839970576400030DT67590675900000005702800888800000010180088824001193057900010127244022520230000000519605723000000000754989498503XXXXXX9265               2111111   NYV4 A7W303056218928789N8400000000051967N2T00    01DNPSILOMART                086600    VD84000000005196 NP1549971004114   RQVFTKUNXGVF0HYW6AXJ     000000000+                F DF 00415                     000000000  N000000000       0000000000000.00 0000000.00   0000000.00                             000000000000000                                                                                                                                                     01418 G000000005196 0000000000001.01     01650 01500                  
03839980576400001P16759067590000000570280088880000001010000000000000000                             2000000000000000000000000              000000000000                    0000000000000000000000000                    000000000000                                                                                                                                                                                                                                                                                                                                                                                                                                                                                        
03839990576400031DT67590675900000005702800888800000010180088824001193057900010176480022520230000000380005723000000000754989414718XXXXXX4989               2111111   NYV4 A7W303056574458812N840000000003800748200    01DNPSILOMART                025248    VS84000000003800 NP1549971004114   RVZFYPE0Q39KVOMAFM70     000000000+                D CD 12109                     000000000  N000000000 498   0000000000000.00 0000000.00   0000000.00                             000000000000000                                                                                                                                                     01418 G000000003800 0000000000001.05     02500 01000                  
03840000576400001P16759067590000000570280088880000001010000000000000000                             2000000000000000000000000              000000000000                    0000000000000000000000000                    000000000000                                                                                                                                                                                                                                                                                                                                                                                                                                                                                        
03840010576400032DT67590675900000005702800888800000010180088824001193057900010154701022520230000000480005723000000000754989442788XXXXXX8670               2111111   NYV4 A7W383056696999157N840000000004800PS3Q00    01DNPSILOMART                734057    VD84000000004800 NP1549971004114   RBGSIEMBX8IPSZ7VZAO9     000000000+                F DF 10420                     000000000  Y000000000 338   0000000000000.00 0000000.00   0000000.00                             000000000000000                                                                                                                                                     01418 G000000004800 0000000000000.24     00050 02200                  
03840020576400001P16759067590000000570280088880000001010000000000000000                             2000000000000000000000000              000000000000                    0000000000000000000000000                    000000000000                                                                                                                                                                                                                                                                                                                                                                                                                                                                                        
03840030576400033DT67590675900000005702800888800000010180088824001193057900010159494022520230000000639805723000000000754989432739XXXXXX2487               2111111   NYV4 A7W463056724999208N840000000006398V8CB00    01DNPSILOMART                009061    VD84000000006398 NP1549971004114   R2JICYWHPZ7JY1QUQP0H     000000000+                F DF 10420                     000000000  Y000000000 338   0000000000000.00 0000000.00   0000000.00                             000000000000000                                                                                                                                                     01418 G000000006398 0000000000000.25     00050 02200                  
03840040576400001P16759067590000000570280088880000001010000000000000000                             2000000000000000000000000              000000000000                    0000000000000000000000000                    000000000000                                                                                                                                                                                                                                                                                                                                                                                                                                                                                        
03840050576400034DT67590675900000005702800888800000010180088824001193057900010141088022520230000000209905723000000000754989414720XXXXXX7119               2111111   NYV4 A7W303056049503106N840000000002099SJ5T00    01DNPSILOMART                06904D    VS84000000002099 NP1549971004114   RZXFOZROXJBIG1JLGJQZ     000000000+                D CD 12109                     000000000  N000000000 498   0000000000000.00 0000000.00   0000000.00                             000000000000000                                                                                                                                                     01418 G000000002099 0000000000000.62     02500 01000                  
03840060576400001P16759067590000000570280088880000001010000000000000000                             2000000000000000000000000              000000000000                    0000000000000000000000000                    000000000000                                                                                                                                                                                                                                                                                                                                                                                                                                                                                        
03840070576400035DT67590675900000005702800888800000010180088824001193057900010103641022520230000002029805723000000000754989443045XXXXXX4233               2111111   NYV4 A7W463056096229895N840000000020298H25Z00    01DNPSILOMART                401489    VD84000000020298 NP1549971004114   RDUVLPDVPKINNSMXINHT     000000000+                F DF 10420                     000000000  Y000000000 338   0000000000000.00 0000000.00   0000000.00                             000000000000000                                                                                                                                                     01418 G000000020298 0000000000000.32     00050 02200                  
03840080576400001P16759067590000000570280088880000001010000000000000000                             2000000000000000000000000              000000000000                    0000000000000000000000000                    000000000000                                                                                                                                                                                                                                                                                                                                                                                                                                                                                        
03840090576400036DT67590675900000005702800888800000010180088824001193057900010159767022520230000000829805723000000000754989414094XXXXXX0509               2111111   NYV4 A7W383056162314802N840000000008298FDTW00    01DNPSILOMART                593907    VD84000000008298 NP1549971004114   RYIXCFAQPQTVKG8AHK5J     000000000+                F DF 00415                     000000000  N000000000       0000000000000.00 0000000.00   0000000.00                             000000000000000                                                                                                                                                     01418 G000000008298 0000000000001.52     01650 01500                  
03840100576400001P16759067590000000570280088880000001010000000000000000                             2000000000000000000000000              000000000000                    0000000000000000000000000                    000000000000                                                                                                                                                                                                                                                                                                                                                                                                                                                                                        
03840110576400037DT67590675900000005702800888800000010180088824001193057900010126121022520230000000329905723000000000754989400022XXXXXX7416               2111111   NYV4 A7W383056243997084N8400000000032994LZD00    01DNPSILOMART                899819    VD84000000003299 NP1549971004114   RENXQ4JDEWCRHAOSHDLI     000000000+                F DF 10420                     000000000  Y000000000 338   0000000000000.00 0000000.00   0000000.00                             000000000000000                                                                                                                                                     01418 G000000003299 0000000000000.24     00050 02200                  
03840120576400001P16759067590000000570280088880000001010000000000000000                             2000000000000000000000000              000000000000                    0000000000000000000000000                    000000000000                                                                                                                                                                                                                                                                                                                                                                                                                                                                                        
03840130576400038DT67590675900000005702800888800000010180088887287283056900010176862022520230000000183905723000000000754989514377XXXXXX3205       ME03KE06MS02      NY 4607AMDJ13ASGR0225  N840000000001839          81DNPSILOMART                20JLA6    MD84000000001839 N  549900000001   rb6ljUf781iW8g4Gbe1W     000000000+600450S00140    MDJ  00401                     000000000  N                0000000000000.00 0000000.00   0000000.00                             000000000000000                                                                                                                                                   U001418  000000000000 0000000000000.45     01650 01500                  
03840140576400039DT67590675900000005702800888800000010180088824001193057900010178718022520230000000180005723000000000754989440393XXXXXX6119               2111111   NYV4 A7W583056305511806N840000000001800XRZV00    01DNPSILOMART                833345    VD84000000001800 NP1549971004114   RM52PDSTFJWRBX4PMVY9     000000000+                F PF 08175                     000000000  N000000000       0000000000000.00 0000000.00   0000000.00                             000000000000000                                                                                                                                                     01418 G000000001800 0000000000000.52     01750 02000                  
03840150576400001P16759067590000000570280088880000001010000000000000000                             2000000000000000000000000              000000000000                    0000000000000000000000000                    000000000000                                                                                                                                                                                                                                                                                                                                                                                                                                                                                        
03840160576400040DT67590675900000005702800888800000010180088824001193057900010198740022520230000000263905723000000000754989433177XXXXXX1207               2111111   NYV4 A7W583056480771059N840000000002639S3NS00    01DNPSILOMART                026478    VD84000000002639 NP1549971004114   RPWVIGQXYDWS4EQH7S0P     000000000+                F DF 00415                     000000000  N000000000       0000000000000.00 0000000.00   0000000.00                             000000000000000                                                                                                                                                     01418 G000000002639 0000000000000.59     01650 01500                  
03840170576400001P16759067590000000570280088880000001010000000000000000                             2000000000000000000000000              000000000000                    0000000000000000000000000                    000000000000                                                                                                                                                                                                                                                                                                                                                                                                                                                                                        
03840180576400041DT67590675900000005702800888800000010180088824001193057900010199078022520230000000719705723000000000754989403623XXXXXX8275               2111111   NYV4 A7W383056496529226N840000000007197NQ5Q00    01DNPSILOMART                016700    VD84000000007197 NP1549971004114   RELSDZNHPPPOX0PMEIMU     000000000+                G DG 10352                     000000000  Y000000000 338   0000000000000.00 0000000.00   0000000.00                             000000000000000                                                                                                                                                     01418 G000000007197 0000000000000.26     00050 02200                  
03840190576400001P16759067590000000570280088880000001010000000000000000    64222262443              2000000000000000000000000              000000000000                    0000000000000000000000000                    000000000000                                                                                                                                                                                                                                                                                                                                                                                                                                                                                        
03840200576400042DT67590675900000005702800888800000010180088824001193057900010160286022520230000000329905723000000000754989448900XXXXXX1158               2111111   NYV4 A7W583056737958053N8400000000032993S2500    01DNPSILOMART                025644    VS84000000003299 NP1549971004114   R3IYDUMXW758WQY3LBCD     000000000+                A CA 12106                     000000000  N000000000 492   0000000000000.00 0000000.00   0000000.00                             000000000000000                                                                                                                                                     01418 G000000003299 0000000000000.72     01890 01000                  
03840210576400001P16759067590000000570280088880000001010000000000000000                             2000000000000000000000000              000000000000                    0000000000000000000000000                    000000000000                                                                                                                                                                                                                                                                                                                                                                                                                                                                                        
03840220576400043DT67590675900000005702800888800000010180088824001193057900010121387022520230000001099805723000000000754989425589XXXXXX0242               2111111   NYV4 A7W383056754628166N840000000010998DMGD00    01DNPSILOMART                025577    VS84000000010998 NP1549971004114   RMRCSZL7MH1MPEBGX7QO     000000000+                B CB 12107                     000000000  N000000000 494   0000000000000.00 0000000.00   0000000.00                             000000000000000                                                                                                                                                     01418 G000000010998 0000000000002.34     02040 01000                  
03840230576400001P16759067590000000570280088880000001010000000000000000                             2000000000000000000000000              000000000000                    0000000000000000000000000                    000000000000                                                                                                                                                                                                                                                                                                                                                                                                                                                                                        
03840240576400044DT67590675900000005702800888800000010180088887287283056900010122635022520230000032874005723000000000754989534874XXXXXX1483                         NY 4607AMDBDDZNMR0225  N840000000328740          81DNPSILOMART                112404    MD84000000328740 NP1549900000001   rSECWhXom1hk5P8AJVGQ     000000000+600450S00140    MDB  10786                     000000000  1                0000000000000.00 0000000.00   0000000.00                             000000000000000                                                                                                                                                   U001418  000000000000 0000000000001.86     00050 02200                  
03840250576400001P1675906759000000057028008888000000101                                                          000000000000          8000            881060599                                                                                                                                                                                                                                                                                                                                                                                                                                                                                                                                                            
03840260576400045DT67590675900000005702800888800000010180088873011003057900010177419022520230000000399605723000000000754989379278XXXXX4009                          NY 4 07N006671435333077N840000000003996          01DNTRADE READY LLC          286518    AM84000000003996 N  549971004114                            000000000+6004S0S00140 258     11261                     000000000                   0000000000000.00 0000000.00   0000000.00                             000000000000000 61248972086759675900000005702 TRADE READY LLC          4744 PARADISE RD         7023386941      89169     PSILOMART@GMAIL.COM                       01418  000000000000 0000000000000.74     01600 00000                  
03840270576400046DT67590675900000005702800888800000010180088887287283056900010185574022520230000000183905723000000000754989536817XXXXXX9576       ME03KE06MS02      NY 4607AMPLDP20Y30225  N840000000001839          81DNPSILOMART                00552B    MC84000000001839 N  549900000001   rxk18Y9ZvY1uzk1Uu6jL     000000000+600450S00140    MPL  00580                     000000000  N                0000000000000.00 0000000.00   0000000.00                             000000000000000                                                                                                                                                   U001418  000000000000 0000000000000.49     02100 01000                  
03840280576400047DT67590675900000005702800888800000010180088824001193057900010141708022520230000004959105723000000000754989442790XXXXXX3174               2111111   NYV4 A7W303056060563521N840000000049591367X00    01DNPSILOMART                109262    VD84000000049591 NP1549971004114   RWCWSULAD6NVKIQW9DMV     000000000+                F DF 10420                     000000000  Y000000000 338   0000000000000.00 0000000.00   0000000.00                             000000000000000                                                                                                                                                     01418 G000000049591 0000000000000.47     00050 02200                  
03840290576400001P16759067590000000570280088880000001010000000000000000                             2000000000000000000000000              000000000000                    0000000000000000000000000                    000000000000                                                                                                                                                                                                                                                                                                                                                                                                                                                                                        
03840300576400048DT67590675900000005702800888800000010180088887287283056900010148556022520230000000799805723000000000754989536219XXXXXX8125       ME03KE06MS02      NY 4607AMDJ2GUY530224  N840000000007998          81DNPSILOMART                40032Z    MD84000000007998 N  549900000001   rhWUpM3vuwevnLhLV7Tm     000000000+600450S00140    MDJ  10813                     000000000  1                0000000000000.00 0000000.00   0000000.00                             000000000000000                                                                                                                                                   U001418  000000000000 0000000000000.26     00050 02200                  
03840310576400049DT67590675900000005702800888800000010180088873011003057900010124106022520230000021050005723000000000754989376757XXXXX9003                          NY 4 07N007234810215069N840000000210500          01DNTRADE READY LLC          186817    AM84000000210500 N  549971004114                            000000000+6004S0600140 258     11263                     000000000                   0000000000000.00 0000000.00   0000000.00                             000000000000000 61248972086759675900000005702 TRADE READY LLC          4744 PARADISE RD         7023386941      89169     PSILOMART@GMAIL.COM                       01418  000000000000 0000000000050.62     02400 00000                  
03840320576400050DT67590675900000005702800888800000010180088824001193057900010189533022520230000000319805723000000000754989443292XXXXXX1863               2111111   NYV4 A7W463056376881399N840000000003198P73D00    01DNPSILOMART                867290    VD84000000003198 NP1549971004114   REB9KR6EKBO4S36Z6W7P     000000000+                F DF 00415                     000000000  N000000000       0000000000000.00 0000000.00   0000000.00                             000000000000000                                                                                                                                                     01418 G000000003198 0000000000000.68     01650 01500                  
03840330576400001P16759067590000000570280088880000001010000000000000000                             2000000000000000000000000              000000000000                    0000000000000000000000000                    000000000000                                                                                                                                                                                                                                                                                                                                                                                                                                                                                        
03840340576400051DT67590675900000005702800888800000010180088824001193057900010115058022520230000000399805723000000000754989414720XXXXXX0268               2111111   NYV4 A7W383056553477947N840000000003998FGWT00    01DNPSILOMART                06841I    VS84000000003998 NP1549971004114   RVNIXZACVVUZNLPDDVO1     000000000+                I CI 12109                     000000000  N000000000 498   0000000000000.00 0000000.00   0000000.00                             000000000000000                                                                                                                                                     01418 G000000003998 0000000000001.10     02500 01000                  
03840350576400001P16759067590000000570280088880000001010000000000000000                             2000000000000000000000000              000000000000                    0000000000000000000000000                    000000000000                                                                                                                                                                                                                                                                                                                                                                                                                                                                                        
03840360576400052DT67590675900000005702800888800000010180088824001193057900010184302022520230000000929705723000000000754989423568XXXXXX2697               2111111   NYV4 A7W463056622292720N840000000009297M3VN00    01DNPSILOMART                091710    VD84000000009297 NP1549971004114   RBMTJPHZ7KR49TAFEFMJ     000000000+                F DF 10420                     000000000  Y000000000 338   0000000000000.00 0000000.00   0000000.00                             000000000000000                                                                                                                                                     01418 G000000009297 0000000000000.27     00050 02200                  
03840370576400001P16759067590000000570280088880000001010000000000000000                             2000000000000000000000000              000000000000                    0000000000000000000000000                    000000000000                                                                                                                                                                                                                                                                                                                                                                                                                                                                                        
03840380576400053DT67590675900000005702800888800000010180088824001193057900010152226022520230000000679805723000000000754989440066XXXXXX0068               2111111   NYV4 A7W383056694842602N8400000000067986LXT00    01DNPSILOMART                08548D    VS84000000006798 NP1549971004114   RP9BWHJBXL7X5DYDK1WM     000000000+                D CD 12109                     000000000  N000000000 498   0000000000000.00 0000000.00   0000000.00                             000000000000000                                                                                                                                                     01418 G000000006798 0000000000001.80     02500 01000                  
03840390576400001P16759067590000000570280088880000001010000000000000000                             2000000000000000000000000              000000000000                    0000000000000000000000000                    000000000000                                                                                                                                                                                                                                                                                                                                                                                                                                                                                        
03840400576400054DT67590675900000005702800888800000010180088824001193057900010126238022520230000000479905723000000000754989409311XXXXXX6926               2111111   NYV4 A7W583056770080271N84000000000479948SB00    01DNPSILOMART                086775    VD84000000004799 NP1549971004114   R7AHXBKTHKMQ2WAFYIQS     000000000+                F DF 10420                     000000000  Y000000000 338   0000000000000.00 0000000.00   0000000.00                             000000000000000                                                                                                                                                     01418 G000000004799 0000000000000.24     00050 02200                  
