00004670115130002BH6759067590000000570280088880000090170405202309523000000000055900    0000090001459145Y8008886759C04062023                                                                                                                                                                                                                                                                                                                                                                                                                                                                                                                                                                                                 
00004680115130003DT67590675900000005702800888800000010180088887287283095900014591457040520230000005590009523000000000055900528072XXXXXX2036       ME06KE06PT01      NY 4 01AMCWGDU3TF0405  N840000000055900          01DNPSILOMART                05937S    MC84000000055900 N  549900000001   c24856514756667.2        000000000+600320100140    MCW  02182                     000000000  N                0000000000000.00 0000000.00   0000000.00                             000000000000000                                                                                                                                                   U001424  000000000000 0000000000014.63     02600 01000                  
00004690115130004BH6759067590000000561180088880000090170405202309523000000000005988    0000090001383960Y8008886759C04062023                                                                                                                                                                                                                                                                                                                                                                                                                                                                                                                                                                                                 
00004700115130005DT67590675900000005611800888800000010180088824001193095900013839609040520230000000598809523000000000005988407624XXXXXX4925               2111111   NYV4 A7W583095229484289N840000000005988LZN700    01DNK DIVINE 503-689-7182    702039    VD84000000005988 NP1549971004114   5345                     000000000+                F DF 00415                     000000000  N000000000       0000000000000.00 0000000.00   0000000.00                             000000000000000                                                                                                                                                     01424 G000000005988 0000000000001.14     01650 01500                  
00004710115130001P16759067590000000561180088880000001010000000000000000                             2000000000000000000000000              000000000000                    0000000000000000000000000                    000000000000                                                                                                                                                                                                                                                                                                                                                                                                                                                                                        
00004720115130006BH6759067590000001516480088880000090170405202309523000000000912530    0000090001375702Y8008886759C04062023                                                                                                                                                                                                                                                                                                                                                                                                                                                                                                                                                                                                 
00004730115130007DT67590675900000015164800888800000010180088887287283095900013742051040420230000001194809523000000000912530545568XXXXXX7937       ME03KE06MS02      NY 4607AMDSMUP5QG0401  N840000000011948          81DNKETOFUSION833-923-3587   145504    MD84000000011948 N  599977360677   2B9BA6AB7BT4B4B5CB74C49  000000000+600450S00130    MDS  00401                     000000000  N                0000000000000.00 0000000.00   0000000.00                             000000000000000                                                                                                                                                   U001424  000000000000 0000000000002.12     01650 01500                  
00004740115130008DT67590675900000015164800888800000010180088824001193095900013743835040420230000001616609523000000000912530414518XXXXXX0410               2111111   NYV4 A7W383092040382773N840000000016166B33M00    01DNKETOFUSION833-923-3587   976167    VD84000000016166 NP1599977360677   FF02F4D834TA66BF7C21740  000000000+                F DF 00415                     000000000  N000000000       0000000000000.00 0000000.00   0000000.00                             000000000000000                                                                                                                                                     01424 G000000016166 0000000000002.82     01650 01500                  
00004750115130001P16759067590000001516480088880000001010000000000000000                             2000000000000000000000000              000000000000                    0000000000000000000000000                    000000000000                                                                                                                                                                                                                                                                                                                                                                                                                                                                                        
00004760115130009DT67590675900000015164800888800000010180088824001193095900013743843040420230000001194809523000000000912530473702XXXXXX7201               2111111   NYV4 A7W583092040418458N840000000011948KS6Q00    01DNKETOFUSION833-923-3587   071499    VD84000000011948 NP1599977360677   582D4D8748T6EC1978CBF5F  000000000+                F DF 10420                     000000000  Y000000000 338   0000000000000.00 0000000.00   0000000.00                             000000000000000                                                                                                                                                     01424 G000000011948 0000000000000.28     00050 02200                  
00004770115130001P16759067590000001516480088880000001010000000000000000                             2000000000000000000000000              000000000000                    0000000000000000000000000                    000000000000                                                                                                                                                                                                                                                                                                                                                                                                                                                                                        
00004780115130010DT67590675900000015164800888800000010180088887287283095900013753827040420230000000029909523000000000912530553370XXXXXX1834                         NY 4607AMCFBYH6200404  N840000000000299          81DNKETOFUSION833-923-3587   APXGAS    MB84000000000299 NP1599977360677   135252C5F2T71C37361C3A5  000000000+600450S00130    MCF  00303                     000000000  N                0000000000000.00 0000000.00   0000000.00                             000000000000000                                                                                                                                                   U001424  000000000000 0000000000000.18     02700 01000                  
00004790115130001P1675906759000000151648008888000000101                                                          000000000000          8000            884295529                                                                                                                                                                                                                                                                                                                                                                                                                                                                                                                                                            
00004800115130011DT67590675900000015164800888800000010180088824001193095900013753842040420230000000542809523000000000912530430602XXXXXX0852               2111111   NYV4 A7W303095007188552N840000000005428SPCC00    01DNKETOFUSION833-923-3587   722894    VD84000000005428 NP1599977360677   004934BBBAT2BD9A0E6BA09  000000000+                F DF 00415                     000000000  N000000000       0000000000000.00 0000000.00   0000000.00                             000000000000000                                                                                                                                                     01424 G000000005428 0000000000001.05     01650 01500                  
00004810115130001P16759067590000001516480088880000001010000000000000000                             2000000000000000000000000              000000000000                    0000000000000000000000000                    000000000000                                                                                                                                                                                                                                                                                                                                                                                                                                                                                        
00004820115130012DT67590675900000015164800888800000010180088824001193095900013753859040420230000000654809523000000000912530430602XXXXXX0852               2111111   NYV4 A7W383095007330808N840000000006548GJKS00    01DNKETOFUSION833-923-3587   722942    VD84000000006548 NP1599977360677   004934BBBATF6741538862F  000000000+                F DF 00415                     000000000  N000000000       0000000000000.00 0000000.00   0000000.00                             000000000000000                                                                                                                                                     01424 G000000006548 0000000000001.23     01650 01500                  
00004830115130001P16759067590000001516480088880000001010000000000000000                             2000000000000000000000000              000000000000                    0000000000000000000000000                    000000000000                                                                                                                                                                                                                                                                                                                                                                                                                                                                                        
00004840115130013DT67590675900000015164800888800000010180088824001193095900013753867040420230000000519009523000000000912530430602XXXXXX0852               2111111   NYV4 A7W463095007549883N8400000000051905VCJ00    01DNKETOFUSION833-923-3587   722974    VD84000000005190 NP1599977360677   004934BBBAT7F389219C557  000000000+                F DF 00415                     000000000  N000000000       0000000000000.00 0000000.00   0000000.00                             000000000000000                                                                                                                                                     01424 G000000005190 0000000000001.01     01650 01500                  
00004850115130001P16759067590000001516480088880000001010000000000000000                             2000000000000000000000000              000000000000                    0000000000000000000000000                    000000000000                                                                                                                                                                                                                                                                                                                                                                                                                                                                                        
00004860115130014DT67590675900000015164800888800000010180088824001193095900013753875040420230000001394809523000000000912530414720XXXXXX1376               2111111   NYV4 A7W583095007634050N840000000013948Z8V400    01DNKETOFUSION833-923-3587   07311D    VS84000000013948 NP1599977360677   1AFC1933ABT91CDBE48F2A1  000000000+                D CD 12109                     000000000  N000000000 498   0000000000000.00 0000000.00   0000000.00                             000000000000000                                                                                                                                                     01424 G000000013948 0000000000003.59     02500 01000                  
00004870115130001P16759067590000001516480088880000001010000000000000000                             2000000000000000000000000              000000000000                    0000000000000000000000000                    000000000000                                                                                                                                                                                                                                                                                                                                                                                                                                                                                        
00004880115130015DT67590675900000015164800888800000010180088824001193095900013753883040420230000000519009523000000000912530414720XXXXXX1376               2111111   NYV4 A7W583095008117584N840000000005190G2Q500    01DNKETOFUSION833-923-3587   09944D    VS84000000005190 NP1599977360677   1AFC1933ABT2AA774DA2D3D  000000000+                D CD 12109                     000000000  N000000000 498   0000000000000.00 0000000.00   0000000.00                             000000000000000                                                                                                                                                     01424 G000000005190 0000000000001.40     02500 01000                  
00004890115130001P16759067590000001516480088880000001010000000000000000                             2000000000000000000000000              000000000000                    0000000000000000000000000                    000000000000                                                                                                                                                                                                                                                                                                                                                                                                                                                                                        
00004900115130016DT67590675900000015164800888800000010180088887287283095900013753918040420230000001987009523000000000912530544047XXXXXX0641       ME03KE06MS02      NY 4607AMDJQA04200404  N840000000019870          81DNKETOFUSION833-923-3587   715314    MD84000000019870 N  599977360677   0322700186T63007E88F0BD  000000000+600450S00130    MDJ  00401                     000000000  N                0000000000000.00 0000000.00   0000000.00                             000000000000000                                                                                                                                                   U001424  000000000000 0000000000003.43     01650 01500                  
00004910115130017DT67590675900000015164800888800000010180088887287283095900013753926040420230000000654809523000000000912530544047XXXXXX0641       ME03KE06MS02      NY 4607AMDJJBFW200404  N840000000006548          81DNKETOFUSION833-923-3587   715322    MD84000000006548 N  599977360677   0322700186T6EE54F5F7C42  000000000+600450S00130    MDJ  00401                     000000000  N                0000000000000.00 0000000.00   0000000.00                             000000000000000                                                                                                                                                   U001424  000000000000 0000000000001.23     01650 01500                  
00004920115130018DT67590675900000015164800888800000010180088887287283095900013753934040420230000000519009523000000000912530544047XXXXXX0641       ME03KE06MS02      NY 4607AMDJDJ6R1Q0404  N840000000005190          81DNKETOFUSION833-923-3587   715324    MD84000000005190 N  599977360677   0322700186T2DE919AD4EF3  000000000+600450S00130    MDJ  00401                     000000000  N                0000000000000.00 0000000.00   0000000.00                             000000000000000                                                                                                                                                   U001424  000000000000 0000000000001.01     01650 01500                  
00004930115130019DT67590675900000015164800888800000010180088824001193095900013753941040420230000000642809523000000000912530414709XXXXXX0829               2111111   NYV4 A7W463095016933229N840000000006428R2CD00    01DNKETOFUSION833-923-3587   04416D    VS84000000006428 NP1599977360677   0489600E6CT4C8E08BDE543  000000000+                D CD 12109                     000000000  N000000000 498   0000000000000.00 0000000.00   0000000.00                             000000000000000                                                                                                                                                     01424 G000000006428 0000000000001.71     02500 01000                  
00004940115130001P16759067590000001516480088880000001010000000000000000                             2000000000000000000000000              000000000000                    0000000000000000000000000                    000000000000                                                                                                                                                                                                                                                                                                                                                                                                                                                                                        
00004950115130020DT67590675900000015164800888800000010180088824001193095900013753974040420230000001194809523000000000912530431503XXXXXX3865               2111111   NYV4 A7W303095018331607N8400000000119488ZJS00    01DNKETOFUSION833-923-3587   01003A    VS84000000011948 NP1599977360677   CC8A94D7D5T320571B1FD6D  000000000+                A CA 12106                     000000000  N000000000 492   0000000000000.00 0000000.00   0000000.00                             000000000000000                                                                                                                                                     01424 G000000011948 0000000000002.36     01890 01000                  
00004960115130001P16759067590000001516480088880000001010000000000000000                             2000000000000000000000000              000000000000                    0000000000000000000000000                    000000000000                                                                                                                                                                                                                                                                                                                                                                                                                                                                                        
00004970115130021DT67590675900000015164800888800000010180088887287283095900013753991040420230000001987009523000000000912530546325XXXXXX9358       ME03KE06MS02      NY 4607AMWEDWNA1Q0404  N840000000019870          81DNKETOFUSION833-923-3587   05143P    MC84000000019870 N  599977360677   42B6F438EBT609B5F3352BE  000000000+600450S00130    MWE  00737                     000000000  N                0000000000000.00 0000000.00   0000000.00                             000000000000000                                                                                                                                                   U001424  000000000000 0000000000005.27     02600 01000                  
00004980115130022DT67590675900000015164800888800000010180088887287283095900013754007040420230000000654809523000000000912530555426XXXXXX0891       ME03KE06MS02      NY 4607AMPG5X9D510404  N840000000006548          81DNKETOFUSION833-923-3587   094608    MD84000000006548 N  599977360677   19C0779C78TBF7B14D0B108  000000000+600450S00130    MPG  09899                     000000000  N                0000000000000.00 0000000.00   0000000.00                             000000000000000                                                                                                                                                   U001424  000000000000 0000000000001.35     01760 02000                  
00004990115130023DT67590675900000015164800888800000010180088824001193095900013754014040420230000002487009523000000000912530410039XXXXXX5183               2111111   NYV4 A7W463095028880713N840000000024870C3PQ00    01DNKETOFUSION833-923-3587   71364D    VS84000000024870 NP1599977360677   DCA14B957DTE1161BD26DDA  000000000+                D CD 12109                     000000000  N000000000 498   0000000000000.00 0000000.00   0000000.00                             000000000000000                                                                                                                                                     01424 G000000024870 0000000000006.32     02500 01000                  
00005000115130001P16759067590000001516480088880000001010000000000000000                             2000000000000000000000000              000000000000                    0000000000000000000000000                    000000000000                                                                                                                                                                                                                                                                                                                                                                                                                                                                                        
00005010115130024DT67590675900000015164800888800000010180088824001193095900013754022040420230000000654809523000000000912530410039XXXXXX5183               2111111   NYV4 A7W583095029080245N840000000006548R46L00    01DNKETOFUSION833-923-3587   78078D    VS84000000006548 NP1599977360677   DCA14B957DT757932E77FE7  000000000+                D CD 12109                     000000000  N000000000 498   0000000000000.00 0000000.00   0000000.00                             000000000000000                                                                                                                                                     01424 G000000006548 0000000000001.74     02500 01000                  
00005020115130001P16759067590000001516480088880000001010000000000000000                             2000000000000000000000000              000000000000                    0000000000000000000000000                    000000000000                                                                                                                                                                                                                                                                                                                                                                                                                                                                                        
00005030115130025DT67590675900000015164800888800000010180088824001193095900013754030040420230000000519009523000000000912530410039XXXXXX5183               2111111   NYV4 A7W583095029260643N8400000000051906PJH00    01DNKETOFUSION833-923-3587   85111D    VS84000000005190 NP1599977360677   DCA14B957DT92938CA3BD9F  000000000+                D CD 12109                     000000000  N000000000 498   0000000000000.00 0000000.00   0000000.00                             000000000000000                                                                                                                                                     01424 G000000005190 0000000000001.40     02500 01000                  
00005040115130001P16759067590000001516480088880000001010000000000000000                             2000000000000000000000000              000000000000                    0000000000000000000000000                    000000000000                                                                                                                                                                                                                                                                                                                                                                                                                                                                                        
00005050115130026DT67590675900000015164800888800000010680088874001193095900013754043040420230000001987009523000000000912530448915XXXXXX4984               0000000   NYV4 07T303095032115097N840000000019870G2GV00    01CNKETOFUSION833-923-3587   004429    VS84000000019870 NP1599977360677   DD59747A01T20AE4F1C090D  000000000+                D CD 00245                     000000000  N000000000 166   0000000000000.00 0000000.00   0000000.00                             000000000000000                                                                                                                                                     01424  000000019870-0000000000003.50     01760 00000                  
00005060115130001P16759067590000001516480088880000001060000000000000000                             2000000000000000000000000              000000000000                    0000000000000000000000000                    000000000000                                                                                                                                                                                                                                                                                                                                                                                                                                                                                        
00005070115130027DT67590675900000015164800888800000010180088824001193095900013754055040420230000000029909523000000000912530440393XXXXXX9632               2111111   NYV4 A7W303095038439282N840000000000299WX5P00    01DNKETOFUSION833-923-3587   267278    VD84000000000299 NP1599977360677   1202106B02T98CD85B14A53  000000000+                F PF 08175                     000000000  N000000000       0000000000000.00 0000000.00   0000000.00                             000000000000000                                                                                                                                                     01424 G000000000299 0000000000000.25     01750 02000                  
00005080115130001P16759067590000001516480088880000001010000000000000000                             2000000000000000000000000              000000000000                    0000000000000000000000000                    000000000000                                                                                                                                                                                                                                                                                                                                                                                                                                                                                        
00005090115130028DT67590675900000015164800888800000010180088824001193095900013754089040420230000000029909523000000000912530428821XXXXXX4528               2111111   NYV4 A7W583095042676131N84000000000029946SQ00    01DNKETOFUSION833-923-3587   455908    VB84000000000299 NP1599977360677   D0D2F2F9C0T3756D5117235  000000000+                S CS 00692                     000000000  N000000000 237   0000000000000.00 0000000.00   0000000.00                             000000000000000                                                                                                                                                     01424 G000000000299 0000000000000.18     02700 01000                  
00005100115130001P16759067590000001516480088880000001010000000000000000                             2000000000000000000000000              000000000000                    0000000000000000000000000                    000000000000                                                                                                                                                                                                                                                                                                                                                                                                                                                                                        
00005110115130029DT67590675900000015164800888800000010180088887287283095900013754098040420230000001987009523000000000912530521131XXXXXX3061       ME03KE06MS02      NY 4607AMWEC215200404  N840000000019870          81DNKETOFUSION833-923-3587   09097Z    MC84000000019870 N  599977360677   9B5DB5267DT8FE22D91DD87  000000000+600450S00130    MWE  00737                     000000000  N                0000000000000.00 0000000.00   0000000.00                             000000000000000                                                                                                                                                   U001424  000000000000 0000000000005.27     02600 01000                  
00005120115130030DT67590675900000015164800888800000010180088824001193095900013754105040420230000000029909523000000000912530408544XXXXXX8724               2111111   NYV4 A7W463095044473590N840000000000299Z83D00    01DNKETOFUSION833-923-3587   640482    VB84000000000299 NP1599977360677   B8B6FAB6B9TE94404480C41  000000000+                K CK 00691                     000000000  N000000000 234   0000000000000.00 0000000.00   0000000.00                             000000000000000                                                                                                                                                     01424 G000000000299 0000000000000.18     02700 01000                  
00005130115130001P16759067590000001516480088880000001010000000000000000                             2000000000000000000000000              000000000000                    0000000000000000000000000                    000000000000                                                                                                                                                                                                                                                                                                                                                                                                                                                                                        
00005140115130031DT67590675900000015164800888800000010180088824001193095900013754113040420230000000029909523000000000912530485932XXXXXX9525               2111111   NYV4 A7W303095048059733N840000000000299JRNR00    01DNKETOFUSION833-923-3587   502671    VB84000000000299 NP1599977360677   B5BD7DCDBBTAD9477C5636E  000000000+                S CS 00692                     000000000  N000000000 237   0000000000000.00 0000000.00   0000000.00                             000000000000000                                                                                                                                                     01424 G000000000299 0000000000000.18     02700 01000                  
00005150115130001P16759067590000001516480088880000001010000000000000000                             2000000000000000000000000              000000000000                    0000000000000000000000000                    000000000000                                                                                                                                                                                                                                                                                                                                                                                                                                                                                        
00005160115130032DT67590675900000015164800888800000010180088824001193095900013754121040420230000001987009523000000000912530431406XXXXXX1407               2111111   NYV4 A7W383095055716266N84000000001987049T200    01DNKETOFUSION833-923-3587   003251    VD84000000019870 NP1599977360677   2EC409E881T00B043E25996  000000000+                F DF 10420                     000000000  Y000000000 338   0000000000000.00 0000000.00   0000000.00                             000000000000000                                                                                                                                                     01424 G000000019870 0000000000000.32     00050 02200                  
00005170115130001P16759067590000001516480088880000001010000000000000000                             2000000000000000000000000              000000000000                    0000000000000000000000000                    000000000000                                                                                                                                                                                                                                                                                                                                                                                                                                                                                        
00005180115130033DT67590675900000015164800888800000010180088824001193095900013754162040420230000001194809523000000000912530481582XXXXXX1311               2111111   NYV4 A7W303095066079080N840000000011948DL8200    01DNKETOFUSION833-923-3587   145706    VD84000000011948 NP1599977360677   B203143256T79030F3D9066  000000000+                F DF 10420                     000000000  Y000000000 338   0000000000000.00 0000000.00   0000000.00                             000000000000000                                                                                                                                                     01424 G000000011948 0000000000000.28     00050 02200                  
00005190115130001P16759067590000001516480088880000001010000000000000000                             2000000000000000000000000              000000000000                    0000000000000000000000000                    000000000000                                                                                                                                                                                                                                                                                                                                                                                                                                                                                        
00005200115130034DT67590675900000015164800888800000010180088824001193095900013754170040420230000001394809523000000000912530434257XXXXXX2896               2111111   NYV4 A7W583095066702422N840000000013948MGG600    01DNKETOFUSION833-923-3587   078759    VD84000000013948 NP1599977360677   31B1C668E7T9DF6DDEAF747  000000000+                F DF 10420                     000000000  Y000000000 338   0000000000000.00 0000000.00   0000000.00                             000000000000000                                                                                                                                                     01424 G000000013948 0000000000000.29     00050 02200                  
00005210115130001P16759067590000001516480088880000001010000000000000000                             2000000000000000000000000              000000000000                    0000000000000000000000000                    000000000000                                                                                                                                                                                                                                                                                                                                                                                                                                                                                        
00005220115130035DT67590675900000015164800888800000010180088824001193095900013754188040420230000000654809523000000000912530434257XXXXXX2896               2111111   NYV4 A7W383095066821566N840000000006548FB6M00    01DNKETOFUSION833-923-3587   080698    VD84000000006548 NP1599977360677   31B1C668E7T45A224D55F92  000000000+                F DF 10420                     000000000  Y000000000 338   0000000000000.00 0000000.00   0000000.00                             000000000000000                                                                                                                                                     01424 G000000006548 0000000000000.25     00050 02200                  
00005230115130001P16759067590000001516480088880000001010000000000000000                             2000000000000000000000000              000000000000                    0000000000000000000000000                    000000000000                                                                                                                                                                                                                                                                                                                                                                                                                                                                                        
00005240115130036DT67590675900000015164800888800000010180088824001193095900013754196040420230000000519009523000000000912530434257XXXXXX2896               2111111   NYV4 A7W463095067083412N840000000005190937300    01DNKETOFUSION833-923-3587   099562    VD84000000005190 NP1599977360677   31B1C668E7T6DD2AF770B1C  000000000+                F DF 10420                     000000000  Y000000000 338   0000000000000.00 0000000.00   0000000.00                             000000000000000                                                                                                                                                     01424 G000000005190 0000000000000.25     00050 02200                  
00005250115130001P16759067590000001516480088880000001010000000000000000                             2000000000000000000000000              000000000000                    0000000000000000000000000                    000000000000                                                                                                                                                                                                                                                                                                                                                                                                                                                                                        
00005260115130037DT67590675900000015164800888800000010180088824001193095900013754204040420230000000029909523000000000912530412076XXXXXX9968               2111111   NYV4 A7W583095067252814N840000000000299VCH400    01DNKETOFUSION833-923-3587   493841    VS84000000000299 NP1599977360677   EBD99779A0T54CE9E140CAC  000000000+                A CA 12106                     000000000  N000000000 492   0000000000000.00 0000000.00   0000000.00                             000000000000000                                                                                                                                                     01424 G000000000299 0000000000000.16     01890 01000                  
00005270115130001P16759067590000001516480088880000001010000000000000000                             2000000000000000000000000              000000000000                    0000000000000000000000000                    000000000000                                                                                                                                                                                                                                                                                                                                                                                                                                                                                        
00005280115130038DT67590675900000015164800888800000010180088887287283095900013754213040420230000001987009523000000000912530521849XXXXXX1984       ME03KE06PT01      NY 4607AMCWRM1R200404  N840000000019870          81DNKETOFUSION833-923-3587   65190Z    MC84000000019870 N  599977360677   78EBF18D4ET89BFEC986FB4  000000000+600450S00130    MCW  00642                     000000000  N                0000000000000.00 0000000.00   0000000.00                             000000000000000                                                                                                                                                   U001424  000000000000 0000000000004.47     02200 01000                  
00005290115130039DT67590675900000015164800888800000010180088887287283095900013754247040420230000000029909523000000000912530553231XXXXXX0032                         NY 4607AMCFDTL6200404  N840000000000299          81DNKETOFUSION833-923-3587   LRZJ4B    MB84000000000299 NP1599977360677   C1A4484C8DT62D590478797  000000000+600450S00130    MCF  00303                     000000000  N                0000000000000.00 0000000.00   0000000.00                             000000000000000                                                                                                                                                   U001424  000000000000 0000000000000.18     02700 01000                  
00005300115130001P1675906759000000151648008888000000101                                                          000000000000          8000            884295529                                                                                                                                                                                                                                                                                                                                                                                                                                                                                                                                                            
00005310115130040DT67590675900000015164800888800000010180088824001193095900013754295040420230000000029909523000000000912530489683XXXXXX0233               2111111   NYV4 A7W583095085242897N840000000000299Q3FP00    01DNKETOFUSION833-923-3587   33XNDS    VD84000000000299 NP1599977360677   46DD838252TC6CC23295412  000000000+                S PS 10179                     000000000  N000000000 364   0000000000000.00 0000000.00   0000000.00                             000000000000000                                                                                                                                                     01424 G000000000299 0000000000000.18     02650 01000                  
00005320115130001P16759067590000001516480088880000001010000000000000000                             2000000000000000000000000              000000000000                    0000000000000000000000000                    000000000000                                                                                                                                                                                                                                                                                                                                                                                                                                                                                        
00005330115130041DT67590675900000015164800888800000010180088887287283095900013754304040420230000000029909523000000000912530556371XXXXXX7665                         NY 4607AMCFFGQ81Q0404  N840000000000299          81DNKETOFUSION833-923-3587   7A1NN9    MB84000000000299 NP1599977360677   6AD79FC709T4DC730F91BF0  000000000+600450S00130    MCF  00303                     000000000  N                0000000000000.00 0000000.00   0000000.00                             000000000000000                                                                                                                                                   U001424  000000000000 0000000000000.18     02700 01000                  
00005340115130001P1675906759000000151648008888000000101                                                          000000000000          8000            884295529                                                                                                                                                                                                                                                                                                                                                                                                                                                                                                                                                            
00005350115130042DT67590675900000015164800888800000010180088824001193095900013754311040420230000000029909523000000000912530412076XXXXXX8662               2111111   NYV4 A7W463095085913932N8400000000002998MT500    01DNKETOFUSION833-923-3587   947442    VS84000000000299 NP1599977360677   1448B2AA8BTE413FEC355C3  000000000+                A CA 12106                     000000000  N000000000 492   0000000000000.00 0000000.00   0000000.00                             000000000000000                                                                                                                                                     01424 G000000000299 0000000000000.16     01890 01000                  
00005360115130001P16759067590000001516480088880000001010000000000000000                             2000000000000000000000000              000000000000                    0000000000000000000000000                    000000000000                                                                                                                                                                                                                                                                                                                                                                                                                                                                                        
00005370115130043DT67590675900000015164800888800000010680088874001193095900013757053040420230000000676509523000000000912530477778XXXXXX7615               0000000   NY94 07N000000000000000N   000000000000          01CNKETOFUSION833-923-3587             VD84000000006765 N  599977360677                            000000000+                F DF 08168                     000000000  N000000000 369   0000000000000.00 0000000.00   0000000.00                             000000000000000                                                                                                                                                     01424  000000000000 0000000000000.00     00000 00000                  
00005380115130044DT67590675900000015164800888800000010180088824001193095900013754345040420230000000029909523000000000912530428803XXXXXX2045               2111111   NYV4 A7W583095089486975N840000000000299RLPG00    01DNKETOFUSION833-923-3587   373511    VD84000000000299 NP1599977360677   1A01DD45BFT8559B3BB164B  000000000+                S PS 10179                     000000000  N000000000 364   0000000000000.00 0000000.00   0000000.00                             000000000000000                                                                                                                                                     01424 G000000000299 0000000000000.18     02650 01000                  
00005390115130001P16759067590000001516480088880000001010000000000000000                             2000000000000000000000000              000000000000                    0000000000000000000000000                    000000000000                                                                                                                                                                                                                                                                                                                                                                                                                                                                                        
00005400115130045DT67590675900000015164800888800000010180088887287283095900013754353040420230000001394809523000000000912530518941XXXXXX1037       ME03KE06MS02      NY 4607AMWED1VL200404  N840000000013948          81DNKETOFUSION833-923-3587   57690Z    MC84000000013948 N  599977360677   5F089412E3TF320B0502E43  000000000+600450S00130    MWE  00737                     000000000  N                0000000000000.00 0000000.00   0000000.00                             000000000000000                                                                                                                                                   U001424  000000000000 0000000000003.73     02600 01000                  
00005410115130046DT67590675900000015164800888800000010180088887287283095900013754361040420230000000519009523000000000912530518941XXXXXX1037       ME03KE06MS02      NY 4607AMWE7LN2510404  N840000000005190          81DNKETOFUSION833-923-3587   81917Z    MC84000000005190 N  599977360677   5F089412E3T4ED0542B34AA  000000000+600450S00130    MWE  00737                     000000000  N                0000000000000.00 0000000.00   0000000.00                             000000000000000                                                                                                                                                   U001424  000000000000 0000000000001.45     02600 01000                  
00005420115130047DT67590675900000015164800888800000010180088824001193095900013754378040420230000002487009523000000000912530420767XXXXXX8115               2111111   NYV4 A7W583095093046693N840000000024870WPJ800    01DNKETOFUSION833-923-3587   043522    VD84000000024870 NP1599977360677   5EFB91D4F5T003F232A8772  000000000+                F DF 10420                     000000000  Y000000000 338   0000000000000.00 0000000.00   0000000.00                             000000000000000                                                                                                                                                     01424 G000000024870 0000000000000.34     00050 02200                  
00005430115130001P16759067590000001516480088880000001010000000000000000                             2000000000000000000000000              000000000000                    0000000000000000000000000                    000000000000                                                                                                                                                                                                                                                                                                                                                                                                                                                                                        
00005440115130048DT67590675900000015164800888800000010180088887287283095900013754395040420230000000029909523000000000912530512507XXXXXX8414                         NY 4607AMCP8MBH420404  N840000000000299          81DNKETOFUSION833-923-3587   477503    MB84000000000299 NP1599977360677   8D5201B9C1T75530CC7786B  000000000+600450S00130    MCP  00303                     000000000  N                0000000000000.00 0000000.00   0000000.00                             000000000000000                                                                                                                                                   U001424  000000000000 0000000000000.18     02700 01000                  
00005450115130001P1675906759000000151648008888000000101                                                          000000000000          8000            884295529                                                                                                                                                                                                                                                                                                                                                                                                                                                                                                                                                            
00005460115130049DT67590675900000015164800888800000010180088824001193095900013754402040420230000001394809523000000000912530426684XXXXXX3400               2111111   NYV4 A7W583095096046094N840000000013948MK7400    01DNKETOFUSION833-923-3587   00148D    VS84000000013948 NP1599977360677   1DAD82CF6FT421B3ADCE978  000000000+                D CD 12109                     000000000  N000000000 498   0000000000000.00 0000000.00   0000000.00                             000000000000000                                                                                                                                                     01424 G000000013948 0000000000003.59     02500 01000                  
00005470115130001P16759067590000001516480088880000001010000000000000000                             2000000000000000000000000              000000000000                    0000000000000000000000000                    000000000000                                                                                                                                                                                                                                                                                                                                                                                                                                                                                        
00005480115130050DT67590675900000015164800888800000010180088824001193095900013754428040420230000001206609523000000000912530403766XXXXXX8543               2111111   NYV4 A7W463095101435812N840000000012066CMNF00    01DNKETOFUSION833-923-3587   124094    VS84000000012066 NP1599977360677   C8F3B4A945T3D52AD141AC2  000000000+                A CA 12106                     000000000  N000000000 492   0000000000000.00 0000000.00   0000000.00                             000000000000000                                                                                                                                                     01424 G000000012066 0000000000002.38     01890 01000                  
00005490115130001P16759067590000001516480088880000001010000000000000000                             2000000000000000000000000              000000000000                    0000000000000000000000000                    000000000000                                                                                                                                                                                                                                                                                                                                                                                                                                                                                        
00005500115130051DT67590675900000015164800888800000010180088824001193095900013754436040420230000000654809523000000000912530403766XXXXXX8543               2111111   NYV4 A7W583095101545158N840000000006548T74V00    01DNKETOFUSION833-923-3587   124094    VS84000000006548 NP1599977360677   C8F3B4A945T7F3F3277AAEF  000000000+                A CA 12106                     000000000  N000000000 492   0000000000000.00 0000000.00   0000000.00                             000000000000000                                                                                                                                                     01424 G000000006548 0000000000001.34     01890 01000                  
00005510115130001P16759067590000001516480088880000001010000000000000000                             2000000000000000000000000              000000000000                    0000000000000000000000000                    000000000000                                                                                                                                                                                                                                                                                                                                                                                                                                                                                        
00005520115130052DT67590675900000015164800888800000010180088824001193095900013754444040420230000000519009523000000000912530403766XXXXXX8543               2111111   NYV4 A7W383095101612098N8400000000051905N2300    01DNKETOFUSION833-923-3587   124094    VS84000000005190 NP1599977360677   C8F3B4A945T17A05C8B95BB  000000000+                A CA 12106                     000000000  N000000000 492   0000000000000.00 0000000.00   0000000.00                             000000000000000                                                                                                                                                     01424 G000000005190 0000000000001.08     01890 01000                  
00005530115130001P16759067590000001516480088880000001010000000000000000                             2000000000000000000000000              000000000000                    0000000000000000000000000                    000000000000                                                                                                                                                                                                                                                                                                                                                                                                                                                                                        
00005540115130053DT67590675900000015164800888800000010180088824001193095900013754451040420230000000029909523000000000912530489683XXXXXX0846               2111111   NYV4 A7W383095102043402N840000000000299FJ4700    01DNKETOFUSION833-923-3587   YXUMY0    VD84000000000299 NP1599977360677   21D0A9197ET1C40A922B19C  000000000+                S PS 10179                     000000000  N000000000 364   0000000000000.00 0000000.00   0000000.00                             000000000000000                                                                                                                                                     01424 G000000000299 0000000000000.18     02650 01000                  
00005550115130001P16759067590000001516480088880000001010000000000000000                             2000000000000000000000000              000000000000                    0000000000000000000000000                    000000000000                                                                                                                                                                                                                                                                                                                                                                                                                                                                                        
00005560115130054DT67590675900000015164800888800000010180088887287283095900013754460040420230000002487009523000000000912530552433XXXXXX5237       ME03KE06PT01      NY 4607AMCWK8XD200404  N840000000024870          81DNKETOFUSION833-923-3587   01324Z    MC84000000024870 N  599977360677   A639A88613T3E7DB12AFB6E  000000000+600450S00130    MCW  00642                     000000000  N                0000000000000.00 0000000.00   0000000.00                             000000000000000                                                                                                                                                   U001424  000000000000 0000000000005.57     02200 01000                  
00005570115130055DT67590675900000015164800888800000010180088887287283095900013754528040420230000001987009523000000000912530510805XXXXXX6115       ME03KE06MS02      NY 4607AMDJF3IR1Q0404  N840000000019870          81DNKETOFUSION833-923-3587   022539    MD84000000019870 N  599977360677   9382982798T61008FABEC9D  000000000+600450S00130    MDJ  10813                     000000000  1                0000000000000.00 0000000.00   0000000.00                             000000000000000                                                                                                                                                   U001424  000000000000 0000000000000.32     00050 02200                  
00005580115130056DT67590675900000015164800888800000010180088824001193095900013754535040420230000001394809523000000000912530427082XXXXXX4740               2111111   NYV4 A7W383095123725216N840000000013948G6DJ00    01DNKETOFUSION833-923-3587   004733    VS84000000013948 NP1599977360677   8CF44C0A28TE173FF4B7F64  000000000+                D CD 12109                     000000000  N000000000 498   0000000000000.00 0000000.00   0000000.00                             000000000000000                                                                                                                                                     01424 G000000013948 0000000000003.59     02500 01000                  
00005590115130001P16759067590000001516480088880000001010000000000000000                             2000000000000000000000000              000000000000                    0000000000000000000000000                    000000000000                                                                                                                                                                                                                                                                                                                                                                                                                                                                                        
00005600115130057DT67590675900000015164800888800000010180088824001193095900013754543040420230000000519009523000000000912530418539XXXXXX8933               2111111   NYV4 A7W383095129518985N840000000005190RT5F00    01DNKETOFUSION833-923-3587   023552    VD84000000005190 NP1599977360677   4D506BA2CCTD9B1997294CC  000000000+                F DF 00415                     000000000  N000000000       0000000000000.00 0000000.00   0000000.00                             000000000000000                                                                                                                                                     01424 G000000005190 0000000000001.01     01650 01500                  
00005610115130001P16759067590000001516480088880000001010000000000000000                             2000000000000000000000000              000000000000                    0000000000000000000000000                    000000000000                                                                                                                                                                                                                                                                                                                                                                                                                                                                                        
00005620115130058DT67590675900000015164800888800000010180088887287283095900013754551040420230000002255009523000000000912530521730XXXXXX4182       ME03KE06MS02      NY 4607AMDJF6TQ1Q0404  N840000000022550          81DNKETOFUSION833-923-3587   023558    MD84000000022550 N  599977360677   234AA273A8T98375B5543FA  000000000+600450S00130    MDJ  10813                     000000000  1                0000000000000.00 0000000.00   0000000.00                             000000000000000                                                                                                                                                   U001424  000000000000 0000000000000.33     00050 02200                  
00005630115130059DT67590675900000015164800888800000010180088887287283095900013754635040420230000000029909523000000000912530524897XXXXXX5424                         NY 4607AMCP8R2G510404  N840000000000299          81DNKETOFUSION833-923-3587   FJGAJL    MB84000000000299 NP1599977360677   A985F7D772TC5892B72A06E  000000000+600450S00130    MCP  00303                     000000000  N                0000000000000.00 0000000.00   0000000.00                             000000000000000                                                                                                                                                   U001424  000000000000 0000000000000.18     02700 01000                  
00005640115130001P1675906759000000151648008888000000101                                                          000000000000          8000            884295529                                                                                                                                                                                                                                                                                                                                                                                                                                                                                                                                                            
00005650115130060DT67590675900000015164800888800000010180088887287283095900013754684040420230000000029909523000000000912530553370XXXXXX1477                         NY 4607AMCF91OV420404  N840000000000299          81DNKETOFUSION833-923-3587   NSN2J6    MB84000000000299 NP1599977360677   18D4A3EF84TA26B969F8DD2  000000000+600450S00130    MCF  00303                     000000000  N                0000000000000.00 0000000.00   0000000.00                             000000000000000                                                                                                                                                   U001424  000000000000 0000000000000.18     02700 01000                  
00005660115130001P1675906759000000151648008888000000101                                                          000000000000          8000            884295529                                                                                                                                                                                                                                                                                                                                                                                                                                                                                                                                                            
00005670115130061DT67590675900000015164800888800000010180088824001193095900013754691040420230000000029909523000000000912530428821XXXXXX9314               2111111   NYV4 A7W583095170433125N840000000000299HFZ600    01DNKETOFUSION833-923-3587   459066    VB84000000000299 NP1599977360677   923AD88B69T8B1D265EF3D6  000000000+                S CS 00692                     000000000  N000000000 237   0000000000000.00 0000000.00   0000000.00                             000000000000000                                                                                                                                                     01424 G000000000299 0000000000000.18     02700 01000                  
00005680115130001P16759067590000001516480088880000001010000000000000000                             2000000000000000000000000              000000000000                    0000000000000000000000000                    000000000000                                                                                                                                                                                                                                                                                                                                                                                                                                                                                        
00005690115130062DT67590675900000015164800888800000010180088824001193095900013754717040420230000001499009523000000000912530410039XXXXXX3010               2111111   NYV4 A7W463095176280330N840000000014990N9LK00    01DNKETOFUSION833-923-3587   57173D    VS84000000014990 NP1599977360677   21FFF87260TC757F98A3624  000000000+                D CD 12109                     000000000  N000000000 498   0000000000000.00 0000000.00   0000000.00                             000000000000000                                                                                                                                                     01424 G000000014990 0000000000003.85     02500 01000                  
00005700115130001P16759067590000001516480088880000001010000000000000000                             2000000000000000000000000              000000000000                    0000000000000000000000000                    000000000000                                                                                                                                                                                                                                                                                                                                                                                                                                                                                        
00005710115130063DT67590675900000015164800888800000010180088824001193095900013754725040420230000000654809523000000000912530410039XXXXXX3010               2111111   NYV4 A7W583095176601902N840000000006548XHXK00    01DNKETOFUSION833-923-3587   70420D    VS84000000006548 NP1599977360677   21FFF87260TA6AFAE52FBA8  000000000+                D CD 12109                     000000000  N000000000 498   0000000000000.00 0000000.00   0000000.00                             000000000000000                                                                                                                                                     01424 G000000006548 0000000000001.74     02500 01000                  
00005720115130001P16759067590000001516480088880000001010000000000000000                             2000000000000000000000000              000000000000                    0000000000000000000000000                    000000000000                                                                                                                                                                                                                                                                                                                                                                                                                                                                                        
00005730115130064DT67590675900000015164800888800000010180088824001193095900013754758040520230000000029909523000000000912530441112XXXXXX5539               2111111   NYV4 A7W463095186034439N840000000000299BTHW00    01DNKETOFUSION833-923-3587   SY8D06    VD84000000000299 NP1599977360677   B52A4F7F0BTE99B91B0F00A  000000000+                S PS 10179                     000000000  N000000000 364   0000000000000.00 0000000.00   0000000.00                             000000000000000                                                                                                                                                     01424 G000000000299 0000000000000.18     02650 01000                  
00005740115130001P16759067590000001516480088880000001010000000000000000                             2000000000000000000000000              000000000000                    0000000000000000000000000                    000000000000                                                                                                                                                                                                                                                                                                                                                                                                                                                                                        
00005750115130065DT67590675900000015164800888800000010180088824001193095900013754808040520230000002487009523000000000912530423223XXXXXX5400               2111111   NYV4 A7W303095198044609N840000000024870Z35L00    01DNKETOFUSION833-923-3587   091107    VD84000000024870 NP1599977360677   914EBAC5EET7C2D3A60DD1E  000000000+                F DF 00415                     000000000  N000000000       0000000000000.00 0000000.00   0000000.00                             000000000000000                                                                                                                                                     01424 G000000024870 0000000000004.25     01650 01500                  
00005760115130001P16759067590000001516480088880000001010000000000000000                             2000000000000000000000000              000000000000                    0000000000000000000000000                    000000000000                                                                                                                                                                                                                                                                                                                                                                                                                                                                                        
00005770115130066DT67590675900000015164800888800000010180088876509753095900013754814040520230000000654809523000000000912530601100XXXXXX0303   BA00                  NY 4 07N743081271364154N840000000006548    00    01DNKETOFUSION833-923-3587   00586R    DS84000000006548 N  599977360677070                         000000000+1015104910600   DCCDI11325500204  003216000000 000000000  0          460   0000000000000.00 0000000.00   0000000.00                             000000000000000                                                                                                                                                     01424  000000000000 0000000000001.43     02030 01000                  
00005780115130067DT67590675900000015164800888800000010180088887287283095900013754841040520230000001394809523000000000912530515735XXXXXX0533       ME03KE06PT01      NY 4607AMCW1PUTGP0405  N840000000013948          81DNKETOFUSION833-923-3587   72333Z    MC84000000013948 N  599977360677   D4574E8D71T876F7888539B  000000000+600450S00130    MCW  00642                     000000000  N                0000000000000.00 0000000.00   0000000.00                             000000000000000                                                                                                                                                   U001424  000000000000 0000000000003.17     02200 01000                  
00005790115130068DT67590675900000015164800888800000010180088824001193095900013754857040520230000000029909523000000000912530412076XXXXXX9762               2111111   NYV4 A7W583095202854279N840000000000299FF2400    01DNKETOFUSION833-923-3587   717817    VS84000000000299 NP1599977360677   A047AC7E57TD07723D8F579  000000000+                A CA 12106                     000000000  N000000000 492   0000000000000.00 0000000.00   0000000.00                             000000000000000                                                                                                                                                     01424 G000000000299 0000000000000.16     01890 01000                  
00005800115130001P16759067590000001516480088880000001010000000000000000                             2000000000000000000000000              000000000000                    0000000000000000000000000                    000000000000                                                                                                                                                                                                                                                                                                                                                                                                                                                                                        
00005810115130069DT67590675900000015164800888800000010180088887287283095900013754866040520230000000654809523000000000912530515735XXXXXX0533       ME03KE06PT01      NY 4607AMCW1QGXGR0405  N840000000006548          81DNKETOFUSION833-923-3587   95366Z    MC84000000006548 N  599977360677   D4574E8D71T4CD5F8DB6506  000000000+600450S00130    MCW  00642                     000000000  N                0000000000000.00 0000000.00   0000000.00                             000000000000000                                                                                                                                                   U001424  000000000000 0000000000001.54     02200 01000                  
00005820115130070DT67590675900000015164800888800000010180088876509753095900013754871040520230000000519009523000000000912530601100XXXXXX0303   BA00                  NY 4 07N753081277328425N840000000005190    00    01DNKETOFUSION833-923-3587   00505R    DS84000000005190 N  599977360677070                         000000000+1015104910600   DCCDI11325830432  004212000000 000000000  0          460   0000000000000.00 0000000.00   0000000.00                             000000000000000                                                                                                                                                     01424  000000000000 0000000000001.15     02030 01000                  
00005830115130071DT67590675900000015164800888800000010180088887287283095900013754882040520230000000198809523000000000912530515735XXXXXX0533       ME03KE06PT01      NY 4607AMCW07E65H0405  N840000000001988          81DNKETOFUSION833-923-3587   84201Z    MC84000000001988 N  599977360677   D4574E8D71TBCE7D1F31428  000000000+600450S00130    MCW  00642                     000000000  N                0000000000000.00 0000000.00   0000000.00                             000000000000000                                                                                                                                                   U001424  000000000000 0000000000000.54     02200 01000                  
00005840115130072DT67590675900000015164800888800000010180088887287283095900013754957040520230000001799109523000000000912530515334XXXXXX1641       ME03KE06MS02      NY 4607AMDJ0EOA5J0405  N840000000017991          81DNKETOFUSION833-923-3587   034361    MD84000000017991 N  599977360677   B574D4C6D9T680C3F754FA2  000000000+600450S00130    MDJ  10813                     000000000  1                0000000000000.00 0000000.00   0000000.00                             000000000000000                                                                                                                                                   U001424  000000000000 0000000000000.31     00050 02200                  
00005850115130073DT67590675900000015164800888800000010180088887287283095900013754965040520230000000654809523000000000912530515334XXXXXX1641       ME03KE06MS02      NY 4607AMDJ0E1U5I0405  N840000000006548          81DNKETOFUSION833-923-3587   043298    MD84000000006548 N  599977360677   B574D4C6D9TFA46A28641E0  000000000+600450S00130    MDJ  10813                     000000000  1                0000000000000.00 0000000.00   0000000.00                             000000000000000                                                                                                                                                   U001424  000000000000 0000000000000.25     00050 02200                  
00005860115130074DT67590675900000015164800888800000010180088887287283095900013754973040520230000000519009523000000000912530515334XXXXXX1641       ME03KE06MS02      NY 4607AMDJ1Z4MGR0405  N840000000005190          81DNKETOFUSION833-923-3587   046322    MD84000000005190 N  599977360677   B574D4C6D9TCD8FC7BC0620  000000000+600450S00130    MDJ  10813                     000000000  1                0000000000000.00 0000000.00   0000000.00                             000000000000000                                                                                                                                                   U001424  000000000000 0000000000000.25     00050 02200                  
00005870115130075DT67590675900000015164800888800000010180088824001193095900013755045040520230000002487009523000000000912530409758XXXXXX5379               2111111   NYV4 A7W303095243626643N8400000000248707QJ600    01DNKETOFUSION833-923-3587   205064    VD84000000024870 NP1599977360677   29853B0C18TEFB3C1B0E0FD  000000000+                F PF 08175                     000000000  N000000000       0000000000000.00 0000000.00   0000000.00                             000000000000000                                                                                                                                                     01424 G000000024870 0000000000004.55     01750 02000                  
00005880115130001P16759067590000001516480088880000001010000000000000000                             2000000000000000000000000              000000000000                    0000000000000000000000000                    000000000000                                                                                                                                                                                                                                                                                                                                                                                                                                                                                        
00005890115130076DT67590675900000015164800888800000010180088824001193095900013755052040520230000000542809523000000000912530443198XXXXXX1818               2111111   NYV4 A7W383095275491523N84000000000542892T400    01DNKETOFUSION833-923-3587   168125    VD84000000005428 NP1599977360677   DBF86D8F3DTE2AF76B7D683  000000000+                F DF 00415                     000000000  N000000000       0000000000000.00 0000000.00   0000000.00                             000000000000000                                                                                                                                                     01424 G000000005428 0000000000001.05     01650 01500                  
00005900115130001P16759067590000001516480088880000001010000000000000000                             2000000000000000000000000              000000000000                    0000000000000000000000000                    000000000000                                                                                                                                                                                                                                                                                                                                                                                                                                                                                        
00005910115130077DT67590675900000015164800888800000010180088887287283095900013755061040520230000000029909523000000000912530524897XXXXXX1582                         NY 4607AMCO0ODF5H0405  N840000000000299          81DNKETOFUSION833-923-3587   QXW1L2    MB84000000000299 NP1599977360677   0BDBD4F9B2TB596AD89C203  000000000+600450S00130    MCO  00303                     000000000  N                0000000000000.00 0000000.00   0000000.00                             000000000000000                                                                                                                                                   U001424  000000000000 0000000000000.18     02700 01000                  
00005920115130001P1675906759000000151648008888000000101                                                          000000000000          8000            884295529                                                                                                                                                                                                                                                                                                                                                                                                                                                                                                                                                            
00005930115130078DT67590675900000015164800888800000010180088824001193095900013755078040520230000000029909523000000000912530428813XXXXXX2374               2111111   NYV4 A7W463095286880979N840000000000299DZNL00    01DNKETOFUSION833-923-3587   037401    VB84000000000299 NP1599977360677   E38319C3B9T957A989F29C6  000000000+                S CS 00692                     000000000  N000000000 237   0000000000000.00 0000000.00   0000000.00                             000000000000000                                                                                                                                                     01424 G000000000299 0000000000000.18     02700 01000                  
00005940115130001P16759067590000001516480088880000001010000000000000000                             2000000000000000000000000              000000000000                    0000000000000000000000000                    000000000000                                                                                                                                                                                                                                                                                                                                                                                                                                                                                        
00005950115130079DT67590675900000015164800888800000010180088824001193095900013755110040520230000000029909523000000000912530489683XXXXXX5128               2111111   NYV4 A7W303095306650164N840000000000299CP7M00    01DNKETOFUSION833-923-3587   2GSPKW    VD84000000000299 NP1599977360677   D09788BBC5T46ED66598344  000000000+                S PS 10179                     000000000  N000000000 364   0000000000000.00 0000000.00   0000000.00                             000000000000000                                                                                                                                                     01424 G000000000299 0000000000000.18     02650 01000                  
00005960115130001P16759067590000001516480088880000001010000000000000000                             2000000000000000000000000              000000000000                    0000000000000000000000000                    000000000000                                                                                                                                                                                                                                                                                                                                                                                                                                                                                        
00005970115130080DT67590675900000015164800888800000010180088887287283095900013755145040520230000002487009523000000000912530515597XXXXXX5154       ME03KE06MS02      NY 4607AMWE02I35I0405  N840000000024870          81DNKETOFUSION833-923-3587   00152P    MC84000000024870 N  599977360677   B29FDC153DT69D40857058E  000000000+600450S00130    MWE  00737                     000000000  N                0000000000000.00 0000000.00   0000000.00                             000000000000000                                                                                                                                                   U001424  000000000000 0000000000006.57     02600 01000                  
00005980115130081DT67590675900000015164800888800000010180088824001193095900013755185040520230000000029909523000000000912530440393XXXXXX0451               2111111   NYV4 A7W463095347541358N8400000000002994BXP00    01DNKETOFUSION833-923-3587   015442    VD84000000000299 NP1599977360677   7B8B349E7AT2678883307AF  000000000+                F PF 08175                     000000000  N000000000       0000000000000.00 0000000.00   0000000.00                             000000000000000                                                                                                                                                     01424 G000000000299 0000000000000.25     01750 02000                  
00005990115130001P16759067590000001516480088880000001010000000000000000                             2000000000000000000000000              000000000000                    0000000000000000000000000                    000000000000                                                                                                                                                                                                                                                                                                                                                                                                                                                                                        
00006000115130082DT67590675900000015164800888800000010180088824001193095900013755201040520230000001194809523000000000912530448233XXXXXX7969               2111111   NYV4 A7W303095362894079N840000000011948V4CJ00    01DNKETOFUSION833-923-3587   050449    VD84000000011948 NP1599977360677   9768C812DDTB6530043A173  000000000+                F DF 10420                     000000000  Y000000000 338   0000000000000.00 0000000.00   0000000.00                             000000000000000                                                                                                                                                     01424 G000000011948 0000000000000.28     00050 02200                  
00006010115130001P16759067590000001516480088880000001010000000000000000                             2000000000000000000000000              000000000000                    0000000000000000000000000                    000000000000                                                                                                                                                                                                                                                                                                                                                                                                                                                                                        
00006020115130083DT67590675900000015164800888800000010180088824001193095900013755219040520230000001987009523000000000912530447305XXXXXX4230               2111111   NYV4 A7W303095363752142N840000000019870FH6G00    01DNKETOFUSION833-923-3587   030616    VD84000000019870 NP1599977360677   CF85513153TFEB813FADFB1  000000000+                F DF 00415                     000000000  N000000000       0000000000000.00 0000000.00   0000000.00                             000000000000000                                                                                                                                                     01424 G000000019870 0000000000003.43     01650 01500                  
00006030115130001P16759067590000001516480088880000001010000000000000000                             2000000000000000000000000              000000000000                    0000000000000000000000000                    000000000000                                                                                                                                                                                                                                                                                                                                                                                                                                                                                        
00006040115130084DT67590675900000015164800888800000010180088887287283095900013755236040520230000000029909523000000000912530553437XXXXXX6690                         NY 4607AMBSLKV45W0405  N840000000000299          81DNKETOFUSION833-923-3587   KC3COX    MB84000000000299 NP1599977360677   E6E7BAFE49TF1C88EF6121E  000000000+600450S00130    MBS  00303                     000000000  N                0000000000000.00 0000000.00   0000000.00                             000000000000000                                                                                                                                                   U001424  000000000000 0000000000000.18     02700 01000                  
00006050115130001P1675906759000000151648008888000000101                                                          000000000000          8000            884295529                                                                                                                                                                                                                                                                                                                                                                                                                                                                                                                                                            
00006060115130085DT67590675900000015164800888800000010180088887287283095900013755244040520230000001499009523000000000912530525363XXXXXX8027       ME03KE06MS02      NY 4607AMWEWKD7CQ0405  N840000000014990          81DNKETOFUSION833-923-3587   61451Z    MC84000000014990 N  599977360677   30FED6C354T72A63E2A38AB  000000000+600450S00130    MWE  00737                     000000000  N                0000000000000.00 0000000.00   0000000.00                             000000000000000                                                                                                                                                   U001424  000000000000 0000000000004.00     02600 01000                  
00006070115130086DT67590675900000015164800888800000010180088887287283095900013755251040520230000000654809523000000000912530525363XXXXXX8027       ME03KE06MS02      NY 4607AMWE0KFD750405  N840000000006548          81DNKETOFUSION833-923-3587   50662Z    MC84000000006548 N  599977360677   30FED6C354T80DD77283335  000000000+600450S00130    MWE  00737                     000000000  N                0000000000000.00 0000000.00   0000000.00                             000000000000000                                                                                                                                                   U001424  000000000000 0000000000001.80     02600 01000                  
00006080115130087DT67590675900000015164800888800000010180088887287283095900013755277040520230000000029909523000000000912530553370XXXXXX2045                         NY 4607AMCFVN7C7O0405  N840000000000299          81DNKETOFUSION833-923-3587   AZSMHR    MB84000000000299 NP1599977360677   E821C76C79TF2051808FF58  000000000+600450S00130    MCF  00303                     000000000  N                0000000000000.00 0000000.00   0000000.00                             000000000000000                                                                                                                                                   U001424  000000000000 0000000000000.18     02700 01000                  
