00014810062730002BH6759067590000001767380010680000090170703202318423000000000000300    0000090001772202Y8001066759C07042023077                                                                                                                                                                                                                                                                                                                                                                                                                                                                                                                                                                                              
00014820062730003DT67590675900000017673800106800000010180010624001193184900017722027070320230000000030018423000000000000300438857XXXXXX9746               2111111   NYV4 A7W383184599869355N840000000000300V5M800    01DNVGHEMP.COM833-246-5225   08409I    VS84000000000300 NDR549977427364   2AC89B30AET0A1F4DBF59B7  000000000+                I CI 12778                     000000000  N000000000 689   0000000000000.00 0000000.00   0000000.00                             000000000000000                                                                                                                                                     01424 G000000000300 0000000000000.18     02500 01000                  
00014830062730003DR6759067590000001767380010680000001012AC89B30AET0A1F4DBF59B7  Y000000000300                 P1                                                                                                                                                                                                                                                                                                                                                                                                                                                                                                                                                                                                            
00014840062730001P16759067590000001767380010680000001010000000000000000                             2000000000000000000000000              000000000000                    0000000000000000000000000                    000000000000                                                                                                                                                                                                                                                                                                                                                                                                                                                                                        
00014850062730002G2675906759000000176738001068000000101720-3077930              CA           9 C                00                                      NNNN  QY                      000000000000                                                                   77427364                                                                                                                                                                                                                                                                                                                                                                                                                                               
00014860062730004BH6759067590000001330080010280000090170703202318423000000000567968    0000090001380547Y8001026759C07042023138                                                                                                                                                                                                                                                                                                                                                                                                                                                                                                                                                                                              
00014870062730005DT67590675900000013300800102800000010180010287287283184900013894284070220230000001987018423000000000567968527515XXXXXX5020       ME03KE06MS02      NY 4607AMDJ0TXY5J0629  N840000000019870          81DNCBD8666317293            110373    MD84000000019870 NDR549977133133   5E66C682F7T461321C6D063  000000000+600450S00130    MDJ  10813                     000000000  1                0000000000000.00 0000000.00   0000000.00                             000000000000000                                                                                                                                                   U001424  000000000000 0000000000000.32     00050 02200                  
00014880062730005DR6759067590000001330080010280000001015E66C682F7T461321C6D063  Y000000000000                                                                                                                                                                                                                                                                                                                                                                                                                                                                                                                                                                                                                               
00014890062730001G2675906759000000133008001028000000101866-6317293              GA           9 J               210                                      NNNN           210000000000000000000000000                        7                                          77133133                                                                                                                                                                                                                                                                                                                                                                                                                                               
00014900062730006DT67590675900000013300800102800000010180010276509753184900013894315070220230000000642418423000000000567968601101XXXXXX8778   BA00                  NY 4 07N753154839265579N840000000006424    00    01DNCBD8666317293            02930R    DS84000000006424 NDR549977133133070                         000000000+1015104910600   DCCDI11325168104  040526000000 000000000  0          460   0000000000000.00 0000000.00   0000000.00                             000000000000000                                                                                                                                                     01424  000000000000 0000000000001.40     02030 01000                  
00014910062730006DR675906759000000133008001028000000101                         Y                                                                                                                                                                                                                                                                                                                                                                                                                                                                                                                                                                                                                                           
00014920062730001G2675906759000000133008001028000000101866-6317293              GA           9 C                00                                      NNNN                          000000000000                         00000650975601179750000261                77133133                                                                                                                                                                                                                                                                                                                                                                                                                                               
00014930062730007DT67590675900000013300800102800000010180010224001193184900013894416070220230000001987018423000000000567968408188XXXXXX6803               2111111   NYV4 A7W583180361960799N8400000000198704W6500    01DNCBD8666317293            050316    VD84000000019870 NDR549977133133   6D4A0019E1T7D81F2981343  000000000+                F DF 10420                     000000000  Y000000000 338   0000000000000.00 0000000.00   0000000.00                             000000000000000                                                                                                                                                     01424 G000000019870 0000000000000.32     00050 02200                  
00014940062730007DR6759067590000001330080010280000001016D4A0019E1T7D81F2981343  Y000000019870                 P1                                                                                                                                                                                                                                                                                                                                                                                                                                                                                                                                                                                                            
00014950062730001P16759067590000001330080010280000001010000000000000000                             2000000000000000000000000              000000000000                    0000000000000000000000000                    000000000000                                                                                                                                                                                                                                                                                                                                                                                                                                                                                        
00014960062730002G2675906759000000133008001028000000101866-6317293              GA           9 D                00                                      NNNN   N                      000000000000                                                                   77133133                                                                                                                                                                                                                                                                                                                                                                                                                                               
00014970062730008DT67590675900000013300800102800000010180010224001193184900013894689070220230000000600418423000000000567968440393XXXXXX5585               2111111   NYV4 A7W463180480064924N840000000006004R7JL00    01DNCBD8666317293            204243    VD84000000006004 NDR549977133133   8B034CA4A4TE99DF7DFDBDB  000000000+                F PF 08175                     000000000  N000000000       0000000000000.00 0000000.00   0000000.00                             000000000000000                                                                                                                                                     01424 G000000006004 0000000000001.25     01750 02000                  
00014980062730008DR6759067590000001330080010280000001018B034CA4A4TE99DF7DFDBDB  Y000000006004                 P1                                                                                                                                                                                                                                                                                                                                                                                                                                                                                                                                                                                                            
00014990062730001P16759067590000001330080010280000001010000000000000000                             2000000000000000000000000              000000000000                    0000000000000000000000000                    000000000000                                                                                                                                                                                                                                                                                                                                                                                                                                                                                        
00015000062730002G2675906759000000133008001028000000101866-6317293              GA           9 P                00                                      NNNN   N                      000000000000                                                                   77133133                                                                                                                                                                                                                                                                                                                                                                                                                                               
00015010062730009DT67590675900000013300800102800000010180010287287283184900013895000070220230000002487018423000000000567968510277XXXXXX9873       ME03KE06MS02      NY 4607AMDJQII8630629  N840000000024870          81DNCBD8666317293            H26400    MD84000000024870 NDR549977133133   B25DE15784T7BC705E8EB0E  000000000+600450S00130    MDJ  10813                     000000000  1                0000000000000.00 0000000.00   0000000.00                             000000000000000                                                                                                                                                   U001424  000000000000 0000000000000.34     00050 02200                  
00015020062730009DR675906759000000133008001028000000101B25DE15784T7BC705E8EB0E  Y000000000000                                                                                                                                                                                                                                                                                                                                                                                                                                                                                                                                                                                                                               
00015030062730001G2675906759000000133008001028000000101866-6317293              GA           9 J               210                                      NNNN           210000000000000000000000000                        7                                          77133133                                                                                                                                                                                                                                                                                                                                                                                                                                               
00015040062730010DT67590675900000013300800102800000010180010224001193184900013895249070220230000000643918423000000000567968486796XXXXXX7416               2111111   NYV4 A7W383180579103311N840000000006439ZZT700    01DNCBD8666317293            000512    VD84000000006439 NDR549977133133   BA49CAC325T3F2E686CEC97  000000000+                F DF 10420                     000000000  Y000000000 338   0000000000000.00 0000000.00   0000000.00                             000000000000000                                                                                                                                                     01424 G000000006439 0000000000000.25     00050 02200                  
00015050062730010DR675906759000000133008001028000000101BA49CAC325T3F2E686CEC97  Y000000006439                 P1                                                                                                                                                                                                                                                                                                                                                                                                                                                                                                                                                                                                            
00015060062730001P16759067590000001330080010280000001010000000000000000                             2000000000000000000000000              000000000000                    0000000000000000000000000                    000000000000                                                                                                                                                                                                                                                                                                                                                                                                                                                                                        
00015070062730002G2675906759000000133008001028000000101866-6317293              GA           9 D                00                                      NNNN   N                      000000000000                                                                   77133133                                                                                                                                                                                                                                                                                                                                                                                                                                               
00015080062730011DT67590675900000013300800102800000010180010224001193184900013895488070220230000001589018423000000000567968473702XXXXXX4100               2111111   NYV4 A7W303180671060643N840000000015890QX6N00    01DNCBD8666317293            006358    VD84000000015890 NDR549977133133   D2B41BDAEFT217541180773  000000000+                F DF 10420                     000000000  Y000000000 338   0000000000000.00 0000000.00   0000000.00                             000000000000000                                                                                                                                                     01424 G000000015890 0000000000000.30     00050 02200                  
00015090062730011DR675906759000000133008001028000000101D2B41BDAEFT217541180773  Y000000015890                 P1                                                                                                                                                                                                                                                                                                                                                                                                                                                                                                                                                                                                            
00015100062730001P16759067590000001330080010280000001010000000000000000                             2000000000000000000000000              000000000000                    0000000000000000000000000                    000000000000                                                                                                                                                                                                                                                                                                                                                                                                                                                                                        
00015110062730002G2675906759000000133008001028000000101866-6317293              GA           9 D                00                                      NNNN   N                      000000000000                                                                   77133133                                                                                                                                                                                                                                                                                                                                                                                                                                               
00015120062730012DT67590675900000013300800102800000010180010287287283184900013895612070220230000001987018423000000000567968517546XXXXXX7494       ME03KE06MS02      NY 4607AMDJHZRZQC0629  N840000000019870          81DNCBD8666317293            029946    MD84000000019870 NDR549977133133   67FDB4E1BAT090BAA95D138  000000000+600450S00130    MDJ  10813                     000000000  1                0000000000000.00 0000000.00   0000000.00                             000000000000000                                                                                                                                                   U001424  000000000000 0000000000000.32     00050 02200                  
00015130062730012DR67590675900000013300800102800000010167FDB4E1BAT090BAA95D138  Z000000000000                                                                                                                                                                                                                                                                                                                                                                                                                                                                                                                                                                                                                               
00015140062730001G2675906759000000133008001028000000101866-6317293              GA           9 J               210                                      NNNN           210000000000000000000000000                        7                                          77133133                                                                                                                                                                                                                                                                                                                                                                                                                                               
00015150062730013DT67590675900000013300800102800000010180010287287283184900013895638070220230000001987018423000000000567968542418XXXXXX6528       ME03KE06MS02      NY 4607AMPLQ9B5QC0629  N840000000019870          81DNCBD8666317293            75577B    MC84000000019870 NDR549977133133   0711D39EB8T0FE779583A64  000000000+600450S00130    MPL  00580                     000000000  N                0000000000000.00 0000000.00   0000000.00                             000000000000000                                                                                                                                                   U001424  000000000000 0000000000004.27     02100 01000                  
00015160062730013DR6759067590000001330080010280000001010711D39EB8T0FE779583A64  Y000000000000                                                                                                                                                                                                                                                                                                                                                                                                                                                                                                                                                                                                                               
00015170062730001G2675906759000000133008001028000000101866-6317293              GA           9 L               210                                      NNNN           210000000000000000000000000                        7                                          77133133                                                                                                                                                                                                                                                                                                                                                                                                                                               
00015180062730014DT67590675900000013300800102800000010180010224001193184900013895710070220230000000628718423000000000567968414580XXXXXX6072               2111111   NYV4 A7W383180723053270N840000000006287VM4M00    01DNCBD8666317293            752688    VD84000000006287 NDR549977133133   729AB70DE9T3384D0A9404A  000000000+                F DF 10420                     000000000  Y000000000 338   0000000000000.00 0000000.00   0000000.00                             000000000000000                                                                                                                                                     01424 G000000006287 0000000000000.25     00050 02200                  
00015190062730014DR675906759000000133008001028000000101729AB70DE9T3384D0A9404A  Z000000006287                 P1                                                                                                                                                                                                                                                                                                                                                                                                                                                                                                                                                                                                            
00015200062730001P16759067590000001330080010280000001010000000000000000                             2000000000000000000000000              000000000000                    0000000000000000000000000                    000000000000                                                                                                                                                                                                                                                                                                                                                                                                                                                                                        
00015210062730002G2675906759000000133008001028000000101866-6317293              GA           9 D                00                                      NNNN   N                      000000000000                                                                   77133133                                                                                                                                                                                                                                                                                                                                                                                                                                               
00015220062730015DT67590675900000013300800102800000010180010224001193184900013895967070220230000002487018423000000000567968424156XXXXXX1733               2111111   NYV4 A7W583180762049424N840000000024870CZFZ00    01DNCBD8666317293            161004    VD84000000024870 NDR549977133133   8AA538AF3ATCDA48164FEB6  000000000+                F DF 00415                     000000000  N000000000       0000000000000.00 0000000.00   0000000.00                             000000000000000                                                                                                                                                     01424 G000000024870 0000000000004.25     01650 01500                  
00015230062730015DR6759067590000001330080010280000001018AA538AF3ATCDA48164FEB6  Y000000024870                 P1                                                                                                                                                                                                                                                                                                                                                                                                                                                                                                                                                                                                            
00015240062730001P16759067590000001330080010280000001010000000000000000                             2000000000000000000000000              000000000000                    0000000000000000000000000                    000000000000                                                                                                                                                                                                                                                                                                                                                                                                                                                                                        
00015250062730002G2675906759000000133008001028000000101866-6317293              GA           9 D                00                                      NNNN   N                      000000000000                                                                   77133133                                                                                                                                                                                                                                                                                                                                                                                                                                               
00015260062730016DT67590675900000013300800102800000010180010287287283184900013896628070220230000000747718423000000000567968548042XXXXXX1372       ME03KE06MS02      NY 4607AMCCQ7K8GE0629  N840000000007477          81DNCBD8666317293            05731B    MC84000000007477 NDR549977133133   8F06B583A0TC434E1D6A1AC  000000000+600450S00130    MCC  00580                     000000000  N                0000000000000.00 0000000.00   0000000.00                             000000000000000                                                                                                                                                   U001424  000000000000 0000000000001.67     02100 01000                  
00015270062730016DR6759067590000001330080010280000001018F06B583A0TC434E1D6A1AC  Y000000000000                                                                                                                                                                                                                                                                                                                                                                                                                                                                                                                                                                                                                               
00015280062730001G2675906759000000133008001028000000101866-6317293              GA           9 C               210                                      NNNN           210000000000000000000000000                        7                                          77133133                                                                                                                                                                                                                                                                                                                                                                                                                                               
00015290062730017DT67590675900000013300800102800000010180010224001193184900013896700070220230000002723318423000000000567968410039XXXXXX5298               2111111   NYV4 A7W463181001857765N840000000027233JRTP00    01DNCBD8666317293            65802C    VS84000000027233 NDR549977133133   C3431B61F5TC99D2EFB268D  000000000+                C CC 12108                     000000000  N000000000 496   0000000000000.00 0000000.00   0000000.00                             000000000000000                                                                                                                                                     01424 G000000027233 0000000000005.68     02050 01000                  
00015300062730017DR675906759000000133008001028000000101C3431B61F5TC99D2EFB268D  Y000000027233                 P1                                                                                                                                                                                                                                                                                                                                                                                                                                                                                                                                                                                                            
00015310062730001P16759067590000001330080010280000001010000000000000000                             2000000000000000000000000              000000000000                    0000000000000000000000000                    000000000000                                                                                                                                                                                                                                                                                                                                                                                                                                                                                        
00015320062730002G2675906759000000133008001028000000101866-6317293              GA           9 C                00                                      NNNN   Y                      000000000000                                                                   77133133                                                                                                                                                                                                                                                                                                                                                                                                                                               
00015330062730018DT67590675900000013300800102800000010180010224001193184900013896742070220230000002648718423000000000567968466186XXXXXX9863               2111111   NYV4 A7W383181012060039N84000000002648787T900    01DNCBD8666317293            092006    VD84000000026487 NDR549977133133   3290AF37F1TEA6B2390B0E5  000000000+                F DF 10420                     000000000  Y000000000 338   0000000000000.00 0000000.00   0000000.00                             000000000000000                                                                                                                                                     01424 G000000026487 0000000000000.35     00050 02200                  
00015340062730018DR6759067590000001330080010280000001013290AF37F1TEA6B2390B0E5  Y000000026487                 P1                                                                                                                                                                                                                                                                                                                                                                                                                                                                                                                                                                                                            
00015350062730001P16759067590000001330080010280000001010000000000000000                             2000000000000000000000000              000000000000                    0000000000000000000000000                    000000000000                                                                                                                                                                                                                                                                                                                                                                                                                                                                                        
00015360062730002G2675906759000000133008001028000000101866-6317293              GA           9 D                00                                      NNNN   N                      000000000000                                                                   77133133                                                                                                                                                                                                                                                                                                                                                                                                                                               
00015370062730019DT67590675900000013300800102800000010180010224001193184900013803730070220230000001723518423000000000567968425907XXXXXX0985               2111111   NYV4 A7W463184015266677N840000000017235LSXX00    01DNCBD8666317293            081984    VD84000000017235 NDR549977133133   7BD15CB860T0A357AF4FEFE  000000000+                G DG 10352                     000000000  Y000000000 338   0000000000000.00 0000000.00   0000000.00                             000000000000000                                                                                                                                                     01424 G000000017235 0000000000000.31     00050 02200                  
00015380062730019DR6759067590000001330080010280000001017BD15CB860T0A357AF4FEFE  Y000000017235                 P1                                                                                                                                                                                                                                                                                                                                                                                                                                                                                                                                                                                                            
00015390062730001P16759067590000001330080010280000001010000000000000000                             2000000000000000000000000              000000000000                    0000000000000000000000000                    000000000000                                                                                                                                                                                                                                                                                                                                                                                                                                                                                        
00015400062730002G2675906759000000133008001028000000101866-6317293              GA           9 D                00                                      NNNN   N                      000000000000                                                                   77133133                                                                                                                                                                                                                                                                                                                                                                                                                                               
00015410062730020DT67590675900000013300800102800000010180010287287283184900013803764070220230000002126118423000000000567968552433XXXXXX2174       ME03KE06MS02      NY 4607AMPLELJ9B10702  N840000000021261          81DNCBD8666317293            09133M    MC84000000021261 NDR549977133133   80B1164AD6TD9D45792534D  000000000+600450S00130    MPL  00580                     000000000  N                0000000000000.00 0000000.00   0000000.00                             000000000000000                                                                                                                                                   U001424  000000000000 0000000000004.56     02100 01000                  
00015420062730020DR67590675900000013300800102800000010180B1164AD6TD9D45792534D  Y000000000000                                                                                                                                                                                                                                                                                                                                                                                                                                                                                                                                                                                                                               
00015430062730001G2675906759000000133008001028000000101866-6317293              GA           9 L               210                                      NNNN           210000000000000000000000000                        7                                          77133133                                                                                                                                                                                                                                                                                                                                                                                                                                               
00015440062730021DT67590675900000013300800102800000010180010224001193184900013803813070220230000001987018423000000000567968415490XXXXXX1137               2111111   NYV4 A7W303184030046173N840000000019870G75F00    01DNCBD8666317293            006107    VD84000000019870 NDR549977133133   58225C6673T63234FDE651E  000000000+                F DF 00415                     000000000  N000000000       0000000000000.00 0000000.00   0000000.00                             000000000000000                                                                                                                                                     01424 G000000019870 0000000000003.43     01650 01500                  
00015450062730021DR67590675900000013300800102800000010158225C6673T63234FDE651E  Y000000019870                 P1                                                                                                                                                                                                                                                                                                                                                                                                                                                                                                                                                                                                            
00015460062730001P16759067590000001330080010280000001010000000000000000                             2000000000000000000000000              000000000000                    0000000000000000000000000                    000000000000                                                                                                                                                                                                                                                                                                                                                                                                                                                                                        
00015470062730002G2675906759000000133008001028000000101866-6317293              GA           9 D                00                                      NNNN   N                      000000000000                                                                   77133133                                                                                                                                                                                                                                                                                                                                                                                                                                               
00015480062730022DT67590675900000013300800102800000010180010224001193184900013803870070220230000000499918423000000000567968409451XXXXXX7347               2111111   NYV4 A7W303184038090934N840000000004999XVCQ00    01DNCBD8666317293            022030    VS84000000004999 NDR549977133133   C20B969168TD05D3D590F5F  000000000+                D CD 12109                     000000000  N000000000 498   0000000000000.00 0000000.00   0000000.00                             000000000000000                                                                                                                                                     01424 G000000004999 0000000000001.35     02500 01000                  
00015490062730022DR675906759000000133008001028000000101C20B969168TD05D3D590F5F  Y000000004999                 P1                                                                                                                                                                                                                                                                                                                                                                                                                                                                                                                                                                                                            
00015500062730001P16759067590000001330080010280000001010000000000000000                             2000000000000000000000000              000000000000                    0000000000000000000000000                    000000000000                                                                                                                                                                                                                                                                                                                                                                                                                                                                                        
00015510062730002G2675906759000000133008001028000000101866-6317293              GA           9 C                00                                      NNNN   Y                      000000000000                                                                   77133133                                                                                                                                                                                                                                                                                                                                                                                                                                               
00015520062730023DT67590675900000013300800102800000010180010224001193184900013803896070220230000000129518423000000000567968409451XXXXXX7347               2111111   NYV4 A7W383184039459219N840000000001295JNVT00    01DNCBD8666317293            022050    VS84000000001295 NDR549977133133   C20B969168TB2D87096175B  000000000+                D CD 12109                     000000000  N000000000 498   0000000000000.00 0000000.00   0000000.00                             000000000000000                                                                                                                                                     01424 G000000001295 0000000000000.42     02500 01000                  
00015530062730023DR675906759000000133008001028000000101C20B969168TB2D87096175B  Y000000001295                 P1                                                                                                                                                                                                                                                                                                                                                                                                                                                                                                                                                                                                            
00015540062730001P16759067590000001330080010280000001010000000000000000                             2000000000000000000000000              000000000000                    0000000000000000000000000                    000000000000                                                                                                                                                                                                                                                                                                                                                                                                                                                                                        
00015550062730002G2675906759000000133008001028000000101866-6317293              GA           9 C                00                                      NNNN   Y                      000000000000                                                                   77133133                                                                                                                                                                                                                                                                                                                                                                                                                                               
00015560062730024DT67590675900000013300800102800000010180010287287283184900013803996070220230000001499118423000000000567968545510XXXXXX9211       ME03KE06MS02      NY 4607AMDSLQ03B10702  N840000000014991          81DNCBD8666317293            030818    MD84000000014991 NDR549977133133   974898FDFFTCBC422C97498  000000000+600450S00130    MDS  10813                     000000000  1                0000000000000.00 0000000.00   0000000.00                             000000000000000                                                                                                                                                   U001424  000000000000 0000000000000.29     00050 02200                  
00015570062730024DR675906759000000133008001028000000101974898FDFFTCBC422C97498  N000000000000                                                                                                                                                                                                                                                                                                                                                                                                                                                                                                                                                                                                                               
00015580062730001G2675906759000000133008001028000000101866-6317293              GA           9 S               210                                      NNNN           210000000000000000000000000                                                                   77133133                                                                                                                                                                                                                                                                                                                                                                                                                                               
00015590062730025DT67590675900000013300800102800000010180010224001193184900013804027070220230000002723318423000000000567968476186XXXXXX4083               2111111   NYV4 A7W303184072043767N840000000027233PRPN00    01DNCBD8666317293            832511    VD84000000027233 NDR549977133133   6ADD7B95F9TF98680EAB67A  000000000+                F DF 00415                     000000000  N000000000       0000000000000.00 0000000.00   0000000.00                             000000000000000                                                                                                                                                     01424 G000000027233 0000000000004.64     01650 01500                  
00015600062730025DR6759067590000001330080010280000001016ADD7B95F9TF98680EAB67A  Y000000027233                 P1                                                                                                                                                                                                                                                                                                                                                                                                                                                                                                                                                                                                            
00015610062730001P16759067590000001330080010280000001010000000000000000                             2000000000000000000000000              000000000000                    0000000000000000000000000                    000000000000                                                                                                                                                                                                                                                                                                                                                                                                                                                                                        
00015620062730002G2675906759000000133008001028000000101866-6317293              GA           9 D                00                                      NNNN   N                      000000000000                                                                   77133133                                                                                                                                                                                                                                                                                                                                                                                                                                               
00015630062730026DT67590675900000013300800102800000010180010224001193184900013804050070220230000001278918423000000000567968435983XXXXXX5231               2111111   NYV4 A7W383184078041391N840000000012789S4TN00    01DNCBD8666317293            122001    VS84000000012789 NDR549977133133   41DEC0967CTB7E7E4A49BBC  000000000+                B CB 12107                     000000000  N000000000 494   0000000000000.00 0000000.00   0000000.00                             000000000000000                                                                                                                                                     01424 G000000012789 0000000000002.71     02040 01000                  
00015640062730026DR67590675900000013300800102800000010141DEC0967CTB7E7E4A49BBC  Y000000012789                 P1                                                                                                                                                                                                                                                                                                                                                                                                                                                                                                                                                                                                            
00015650062730001P16759067590000001330080010280000001010000000000000000                             2000000000000000000000000              000000000000                    0000000000000000000000000                    000000000000                                                                                                                                                                                                                                                                                                                                                                                                                                                                                        
00015660062730002G2675906759000000133008001028000000101866-6317293              GA           9 C                00                                      NNNN   Y                      000000000000                                                                   77133133                                                                                                                                                                                                                                                                                                                                                                                                                                               
00015670062730027DT67590675900000013300800102800000010180010224001193184900013804134070220230000002390318423000000000567968480641XXXXXX2927               2111111   NYV4 A7W383184102049750N840000000023903FPQC00    01DNCBD8666317293            025004    VD84000000023903 NDR549977133133   EBC49BE507T2828F5D57BD7  000000000+                F DF 00415                     000000000  N000000000       0000000000000.00 0000000.00   0000000.00                             000000000000000                                                                                                                                                     01424 G000000023903 0000000000004.09     01650 01500                  
00015680062730027DR675906759000000133008001028000000101EBC49BE507T2828F5D57BD7  Y000000023903                 P1                                                                                                                                                                                                                                                                                                                                                                                                                                                                                                                                                                                                            
00015690062730001P16759067590000001330080010280000001010000000000000000                             2000000000000000000000000              000000000000                    0000000000000000000000000                    000000000000                                                                                                                                                                                                                                                                                                                                                                                                                                                                                        
00015700062730002G2675906759000000133008001028000000101866-6317293              GA           9 D                00                                      NNNN   N                      000000000000                                                                   77133133                                                                                                                                                                                                                                                                                                                                                                                                                                               
00015710062730028DT67590675900000013300800102800000010180010287287283184900013804366070320230000002126118423000000000567968542432XXXXXX0239       ME03KE06MS02      NY 4607AMDJTQ71EV0703  N840000000021261          81DNCBD8666317293            116637    MD84000000021261 NDR549977133133   DEF8B7071ET28ED04BC4D05  000000000+600450S00130    MDJ  10813                     000000000  1                0000000000000.00 0000000.00   0000000.00                             000000000000000                                                                                                                                                   U001424  000000000000 0000000000000.33     00050 02200                  
00015720062730028DR675906759000000133008001028000000101DEF8B7071ET28ED04BC4D05  Y000000000000                                                                                                                                                                                                                                                                                                                                                                                                                                                                                                                                                                                                                               
00015730062730001G2675906759000000133008001028000000101866-6317293              GA           9 J               210                                      NNNN           210000000000000000000000000                        7                                          77133133                                                                                                                                                                                                                                                                                                                                                                                                                                               
00015740062730029DT67590675900000013300800102800000010180010224001193184900013804472070320230000002153418423000000000567968434257XXXXXX6144               2111111   NYV4 A7W463184539014967N8400000000215344FB600    01DNCBD8666317293            031890    VD84000000021534 NDR549977133133   A863ED14E0T4E21D4A7466D  000000000+                F DF 10420                     000000000  Y000000000 338   0000000000000.00 0000000.00   0000000.00                             000000000000000                                                                                                                                                     01424 G000000021534 0000000000000.33     00050 02200                  
00015750062730029DR675906759000000133008001028000000101A863ED14E0T4E21D4A7466D  Y000000021534                 P1                                                                                                                                                                                                                                                                                                                                                                                                                                                                                                                                                                                                            
00015760062730001P16759067590000001330080010280000001010000000000000000                             2000000000000000000000000              000000000000                    0000000000000000000000000                    000000000000                                                                                                                                                                                                                                                                                                                                                                                                                                                                                        
00015770062730002G2675906759000000133008001028000000101866-6317293              GA           9 D                00                                      NNNN   N                      000000000000                                                                   77133133                                                                                                                                                                                                                                                                                                                                                                                                                                               
00015780062730030DT67590675900000013300800102800000010680010274001193184900013804485070320230000001403918423000000000567968434257XXXXXX6144               0000000   NYV4 07T383184548350501N840000000014039QZRM00    01CNCBD8666317293            026348    VD84000000014039 NDR549977133133   A863ED14E0T4E21D4A7466D  000000000+                F DF 08168                     000000000  Y000000000 369   0000000000000.00 0000000.00   0000000.00                             000000000000000                                                                                                                                                     01424  000000014039 0000000000000.00     00000 00000                  
00015790062730030DR675906759000000133008001028000000106A863ED14E0T4E21D4A7466D  Y000000014039                 P1                                                                                                                                                                                                                                                                                                                                                                                                                                                                                                                                                                                                            
00015800062730001P16759067590000001330080010280000001060000000000000000                             2000000000000000000000000              000000000000                    0000000000000000000000000                    000000000000                                                                                                                                                                                                                                                                                                                                                                                                                                                                                        
00015810062730002G2675906759000000133008001028000000106866-6317293              GA           9 D                00                                      NNNN   N                      000000000000                                                                   77133133                                                                                                                                                                                                                                                                                                                                                                                                                                               
00015820062730031DT67590675900000013300800102800000010680010274001193184900013804543070320230000001361618423000000000567968476186XXXXXX4083               0000000   NYV4 07T583184595340426N8400000000136163QVG00    01CNCBD8666317293            844244    VD84000000013616 NDR549977133133   6ADD7B95F9TF98680EAB67A  000000000+                F DF 08168                     000000000  N000000000 369   0000000000000.00 0000000.00   0000000.00                             000000000000000                                                                                                                                                     01424  000000013616 0000000000000.00     00000 00000                  
00015830062730031DR6759067590000001330080010280000001066ADD7B95F9TF98680EAB67A  Y000000013616                 P1                                                                                                                                                                                                                                                                                                                                                                                                                                                                                                                                                                                                            
00015840062730001P16759067590000001330080010280000001060000000000000000                             2000000000000000000000000              000000000000                    0000000000000000000000000                    000000000000                                                                                                                                                                                                                                                                                                                                                                                                                                                                                        
00015850062730002G2675906759000000133008001028000000106866-6317293              GA           9 D                00                                      NNNN   N                      000000000000                                                                   77133133                                                                                                                                                                                                                                                                                                                                                                                                                                               
00015860062730032DT67590675900000013300800102800000010180010224001193184900013804563070320230000000588518423000000000567968403995XXXXXX9525               2111111   NYV4 A7W463184613989853N840000000005885JWDX00    01DNCBD8666317293            000022    VD84000000005885 NDR549977133133   059DCE4B7ET400FBCAF474D  000000000+                F PF 08175                     000000000  N000000000       0000000000000.00 0000000.00   0000000.00                             000000000000000                                                                                                                                                     01424 G000000005885 0000000000001.23     01750 02000                  
00015870062730032DR675906759000000133008001028000000101059DCE4B7ET400FBCAF474D  Y000000005885                 P1                                                                                                                                                                                                                                                                                                                                                                                                                                                                                                                                                                                                            
00015880062730001P16759067590000001330080010280000001010000000000000000                             2000000000000000000000000              000000000000                    0000000000000000000000000                    000000000000                                                                                                                                                                                                                                                                                                                                                                                                                                                                                        
00015890062730002G2675906759000000133008001028000000101866-6317293              GA           9 P                00                                      NNNN   N                      000000000000                                                                   77133133                                                                                                                                                                                                                                                                                                                                                                                                                                               
00015900062730033DT67590675900000013300800102800000010680010287287283184900013804598070320230000001987018423000000000567968521333XXXXXX8252                         NY 4607AMPLG7GASR0703  N840000000019870          81CNCBD8666317293            003730    MC84000000019870 NDR549977133133   52A4DC859FTE39BBC69BB2A  000000000+600450S00130    MPL  00565                     000000000  N                0000000000000.00 0000000.00   0000000.00                             000000000000000                                                                                                                                                     01424  000000000000-0000000000003.48     01750 00000                  
00015910062730033DR67590675900000013300800102800000010652A4DC859FTE39BBC69BB2A  R000000000000                                                                                                                                                                                                                                                                                                                                                                                                                                                                                                                                                                                                                               
00015920062730001G2675906759000000133008001028000000106866-6317293              GA           9 L               210                                      NNNN           210000000000000000000000000                        7                                          77133133                                                                                                                                                                                                                                                                                                                                                                                                                                               
00015930062730034DT67590675900000013300800102800000010180010224001193184900013804605070320230000001628018423000000000567968418587XXXXXX2724               2111111   NYV4 A7W463184618036167N8400000000162806GW600    01DNCBD8666317293            00096C    VS84000000016280 NDR549977133133   CD004DF4C9T8A419B9C66E0  000000000+                C CC 12108                     000000000  N000000000 496   0000000000000.00 0000000.00   0000000.00                             000000000000000                                                                                                                                                     01424 G000000016280 0000000000003.44     02050 01000                  
00015940062730034DR675906759000000133008001028000000101CD004DF4C9T8A419B9C66E0  Y000000016280                 P1                                                                                                                                                                                                                                                                                                                                                                                                                                                                                                                                                                                                            
00015950062730001P16759067590000001330080010280000001010000000000000000                             2000000000000000000000000              000000000000                    0000000000000000000000000                    000000000000                                                                                                                                                                                                                                                                                                                                                                                                                                                                                        
00015960062730002G2675906759000000133008001028000000101866-6317293              GA           9 C                00                                      NNNN   Y                      000000000000                                                                   77133133                                                                                                                                                                                                                                                                                                                                                                                                                                               
00015970062730035DT67590675900000013300800102800000010180010224001193184900013804712070320230000001604018423000000000567968400344XXXXXX3093               2111111   NYV4 A7W583184648922750N840000000016040DXPL00    01DNCBD8666317293            03988C    VS84000000016040 NDR549977133133   F61091B1EDT5C4A84586F20  000000000+                C CC 12108                     000000000  N000000000 496   0000000000000.00 0000000.00   0000000.00                             000000000000000                                                                                                                                                     01424 G000000016040 0000000000003.39     02050 01000                  
00015980062730035DR675906759000000133008001028000000101F61091B1EDT5C4A84586F20  Y000000016040                 P1                                                                                                                                                                                                                                                                                                                                                                                                                                                                                                                                                                                                            
00015990062730001P16759067590000001330080010280000001010000000000000000                             2000000000000000000000000              000000000000                    0000000000000000000000000                    000000000000                                                                                                                                                                                                                                                                                                                                                                                                                                                                                        
00016000062730002G2675906759000000133008001028000000101866-6317293              GA           9 C                00                                      NNNN   Y                      000000000000                                                                   77133133                                                                                                                                                                                                                                                                                                                                                                                                                                               
00016010062730036DT67590675900000013300800102800000010180010287287283184900013804739070320230000000542818423000000000567968542432XXXXXX6188       ME03KE06MS02      NY 4607AMDJAYDOW90703  N840000000005428          81DNCBD8666317293            421385    MD84000000005428 NDR549977133133   97482CE892T4339B56D1C58  000000000+600450S00130    MDJ  10813                     000000000  1                0000000000000.00 0000000.00   0000000.00                             000000000000000                                                                                                                                                   U001424  000000000000 0000000000000.25     00050 02200                  
00016020062730036DR67590675900000013300800102800000010197482CE892T4339B56D1C58  Y000000000000                                                                                                                                                                                                                                                                                                                                                                                                                                                                                                                                                                                                                               
00016030062730001G2675906759000000133008001028000000101866-6317293              GA           9 J               210                                      NNNN           210000000000000000000000000                        7                                          77133133                                                                                                                                                                                                                                                                                                                                                                                                                                               
00016040062730037DT67590675900000013300800102800000010180010287287283184900013804770070320230000001611518423000000000567968511308XXXXXX6391       ME03KE06MS02      NY 4607AMDJBHO1W90703  N840000000016115          81DNCBD8666317293            033005    MD84000000016115 NDR549977133133   4E9BE60881TC54DEBD80842  000000000+600450S00130    MDJ  10813                     000000000  1                0000000000000.00 0000000.00   0000000.00                             000000000000000                                                                                                                                                   U001424  000000000000 0000000000000.30     00050 02200                  
00016050062730037DR6759067590000001330080010280000001014E9BE60881TC54DEBD80842  Y000000000000                                                                                                                                                                                                                                                                                                                                                                                                                                                                                                                                                                                                                               
00016060062730001G2675906759000000133008001028000000101866-6317293              GA           9 J               210                                      NNNN           210000000000000000000000000                                                                   77133133                                                                                                                                                                                                                                                                                                                                                                                                                                               
00016070062730038DT67590675900000013300800102800000010180010224001193184900013804936070320230000000529918423000000000567968410039XXXXXX5498               2111111   NYV4 A7W303184696051963N840000000005299BXXD00    01DNCBD8666317293            42698D    VS84000000005299 NDR549977133133   E4D869E743T889550B91F79  000000000+                D CD 12109                     000000000  N000000000 498   0000000000000.00 0000000.00   0000000.00                             000000000000000                                                                                                                                                     01424 G000000005299 0000000000001.42     02500 01000                  
00016080062730038DR675906759000000133008001028000000101E4D869E743T889550B91F79  Y000000005299                 P1                                                                                                                                                                                                                                                                                                                                                                                                                                                                                                                                                                                                            
00016090062730001P16759067590000001330080010280000001010000000000000000                             2000000000000000000000000              000000000000                    0000000000000000000000000                    000000000000                                                                                                                                                                                                                                                                                                                                                                                                                                                                                        
00016100062730002G2675906759000000133008001028000000101866-6317293              GA           9 C                00                                      NNNN   Y                      000000000000                                                                   77133133                                                                                                                                                                                                                                                                                                                                                                                                                                               
00016110062730039DT67590675900000013300800102800000010180010287287283184900013804952070320230000001275918423000000000567968524537XXXXXX0707       ME03KE06MS02      NY 4607AMDJDKV5W90703  N840000000012759          81DNCBD8666317293            142703    MD84000000012759 NDR549977133133   4AB2BE1B49TDA0E99E4A352  000000000+600450S00130    MDJ  00401                     000000000  N                0000000000000.00 0000000.00   0000000.00                             000000000000000                                                                                                                                                   U001424  000000000000 0000000000002.26     01650 01500                  
00016120062730039DR6759067590000001330080010280000001014AB2BE1B49TDA0E99E4A352  Y000000000000                                                                                                                                                                                                                                                                                                                                                                                                                                                                                                                                                                                                                               
00016130062730001G2675906759000000133008001028000000101866-6317293              GA           9 J               210                                      NNNN           210000000000000000000000000                                                                   77133133                                                                                                                                                                                                                                                                                                                                                                                                                                               
00016140062730040DT67590675900000013300800102800000010180010287287283184900013804986070320230000000642818423000000000567968552869XXXXXX2466                         NY 4607AMABLYH3JL0703  N840000000006428          81DNCBD8666317293            04606Q    MB84000000006428 NDR549977133133   91D23153A6TDC9D63D23306  000000000+600450S00130    MAB  11637                     000000000  N                0000000000000.00 0000000.00   0000000.00                             000000000000000                                                                                                                                                   U001424  000000000000 0000000000002.03     03000 01000                  
00016150062730040DR67590675900000013300800102800000010191D23153A6TDC9D63D23306  Y000000000000                 P1                                                                                                                                                                                                                                                                                                                                                                                                                                                                                                                                                                                                            
00016160062730001P1675906759000000133008001028000000101                                                          000000000000          8000            871584967                                                                                                                                                                                                                                                                                                                                                                                                                                                                                                                                                            
00016170062730002G2675906759000000133008001028000000101866-6317293              GA           9 B               210                  871584967           YNNN           210000000000000000000000000                        7                                          77133133                                                                                                                                                                                                                                                                                                                                                                                                                                               
00016180062730041DT67590675900000013300800102800000010180010224001193184900013805057070320230000002175818423000000000567968486875XXXXXX1667               2111111   NYV4 A7W303184715654290N840000000021758J3KT00    01DNCBD8666317293            149184    VD84000000021758 NDR549977133133   D176F53B10TBBB9DFA58689  000000000+                F DF 00415                     000000000  N000000000       0000000000000.00 0000000.00   0000000.00                             000000000000000                                                                                                                                                     01424 G000000021758 0000000000003.74     01650 01500                  
00016190062730041DR675906759000000133008001028000000101D176F53B10TBBB9DFA58689  Y000000021758                 P1                                                                                                                                                                                                                                                                                                                                                                                                                                                                                                                                                                                                            
00016200062730001P16759067590000001330080010280000001010000000000000000                             2000000000000000000000000              000000000000                    0000000000000000000000000                    000000000000                                                                                                                                                                                                                                                                                                                                                                                                                                                                                        
00016210062730002G2675906759000000133008001028000000101866-6317293              GA           9 D                00                                      NNNN   N                      000000000000                                                                   77133133                                                                                                                                                                                                                                                                                                                                                                                                                                               
00016220062730042DT67590675900000013300800102800000010180010224001193184900013805107070320230000000499918423000000000567968414512XXXXXX8808               2111111   NYV4 A7W463184739308679N840000000004999R67M00    01DNCBD8666317293            003329    VS84000000004999 NDR549977133133   C08624A092T70105C6D5540  000000000+                D CD 12109                     000000000  N000000000 498   0000000000000.00 0000000.00   0000000.00                             000000000000000                                                                                                                                                     01424 G000000004999 0000000000001.35     02500 01000                  
