00643790185050002BH6759067590000000215480088880000090170208202303923000000006058858    0000090001026265N8008886759C02092023                                                                                                                                                                                                                                                                                                                                                                                                                                                                                                                                                                                                 
00643800185050003DT67590675900000002154800888800000010180088876509753039900010240220020820230000002884003923000000006058858601101XXXXXX1463   BA00                  NY 4 07N803032732808075N840000000028840    00    01DNDRIP DROP DISTRO LLC     00720B    DZ84000000028840 N  519971004114010                         000000000+1015104910600   DMCDI01012500031  181440000000 000000000  0          124   0000000000000.00 0000000.00   0000000.00                             000000000000000                                                                                                                                                     01418  000000000000 0000000000007.22     02450 01500                  
00643810185050004DT67590675900000002154800888800000010180088887287283039900010255528020820230000004078803923000000006058858547415XXXXXX7571                         NY 4607AMEBZN5WXT0207  N840000000040788          81DNDRIP DROP DISTRO LLC     01008Q    MB84000000040788 NP1519900000001   17416                    000000000+600450S00140    MEB  11637                     000000000  N                0000000000000.00 0000000.00   0000000.00                             000000000000000                                                                                                                                                   U001418  000000000000 0000000000012.34     03000 01000                  
00643820185050001P1675906759000000021548008888000000101                                                          000000000000          8000            471534935                                                                                                                                                                                                                                                                                                                                                                                                                                                                                                                                                            
00643830185050005DT67590675900000002154800888800000010180088824001193039900010262655020820230000598923003923000000006058858415417XXXXXX7051               2111111   NYV4 A7W463039758351094N8400000059892309JFX00    01DNDRIP DROP DISTRO LLC     00658G    VB84000005989230 NP1519971004114   INV-000574               000000000+                G5CG511887                     000000000  N000000000 163   0000000000000.00 0000000.00   0000000.00                             000000000000000                                                                                                                                                     01418 G000005989230 0000000001796.87     03000 01000                  
00643840185050001P16759067590000000215480088880000001010000000000000000    43929743990              2000000000000000000000000              000000000000                    0000000000000000000000000                    000000000000                                                                                                                                                                                                                                                                                                                                                                                                                                                                                        
00643850185050006BH6759067590000000288180088880000090170208202303923000000000078953    0000090001400017N8008886759C02092023                                                                                                                                                                                                                                                                                                                                                                                                                                                                                                                                                                                                 
00643860185050007DT67590675900000002881800888800000010180088824001193039900014000010020820230000001490203923000000000078953406032XXXXXX5726       VS11    0001111   NYV1 A E583039542009920N8400000000149025MKN00    05DNHAPPY HIPPIE             000310    VD84000000014902 N  549976487134                            000000000+                F DF 10433                     000000000  Y000000000 338   0000000000000.00 0000000.00   0000000.00                             000000000000000                                                                                                                                                     01418 A000000000000 0000000000000.29     00050 02200                  
00643870185050008DT67590675900000002881800888800000010180088824001193039900014000028020820230000001282603923000000000078953480639XXXXXX5051       VS11    0001111   NYV1 A E583039548537474N840000000012826NKLG00    05DNHAPPY HIPPIE             017849    VD84000000012826 N  549976487134                            000000000+                F DF 00381                     000000000  N000000000       0000000000000.00 0000000.00   0000000.00                             000000000000000                                                                                                                                                     01418 A000000000000 0000000000001.18     00800 01500                  
00643880185050009DT67590675900000002881800888800000010180088877287283039900014000038020820230000000551703923000000000078953542418XXXXXX5961       MS02WI09          NY 1 0 AMWEBV0HA90208  N840000000005517          05DNHAPPY HIPPIE             21370P    MC84000000005517 N  549976487134                            000000000+M10101C5434C    MWE  00743                     000000000  N                0000000000000.00 0000000.00   0000000.00                             000000000000000                                                                                                                                                   B101418  000000000000 0000000000001.31     02300 00400                  
00643890185050010DT67590675900000002881800888800000010180088877287283039900014000046020820230000000024903923000000000078953511953XXXXXX0600       MS02WI09          NY 1 0 AMDJGZ3L7Z0208  N840000000000249          07DNHAPPY HIPPIE             033457    MD84000000000249 N  549976487134                            000000000+M10101M0034C    MDJ  00505                     000000000  N                0000000000000.00 0000000.00   0000000.00                             000000000000000                                                                                                                                                   B101418  000000000000 0000000000000.08     01550 00400                  
00643900185050011DT67590675900000002881800888800000010180088824001193039900014000051020820230000000153703923000000000078953422921XXXXXX2042       VS11    0001111   NYV1 A E463039568520893N840000000001537H24Q00    05DNHAPPY HIPPIE             038853    VD84000000001537 N  549976487134                            000000000+                F DF 00381                     000000000  N000000000       0000000000000.00 0000000.00   0000000.00                             000000000000000                                                                                                                                                     01418 A000000000000 0000000000000.27     00800 01500                  
00643910185050012DT67590675900000002881800888800000010180088873011003039900014000065020820230000000592503923000000000078953372324XXXXX2002                          NY 1 0 N008884848184676N840000000005925          07DNHAPPY HIPPIE             892212    AM84000000005925 N  549976487134                            000000000+51010X55434C 258     11261                     000000000                   0000000000000.00 0000000.00   0000000.00                             000000000000000 61248972086759675900000002881 HAPPY HIPPIE             832 PARKWAY              8656540830      37862     HAPPYHIPPIE832@GMAIL.COM                  01418  000000000000 0000000000001.05     01600 00000                  
00643920185050013DT67590675900000002881800888800000010180088877287283039900014000079020820230000000175203923000000000078953517805XXXXXX3734       MS02WI09          NY 1 0 AMPLDMPTOC0208  N840000000001752          07DNHAPPY HIPPIE             08367B    MC84000000001752 N  549976487134                            000000000+M10101M0034C    MPL  00364                     000000000  N                0000000000000.00 0000000.00   0000000.00                             000000000000000                                                                                                                                                   B101418  000000000000 0000000000000.36     01800 00400                  
00643930185050014DT67590675900000002881800888800000010180088824001193039900014000085020820230000000395103923000000000078953480639XXXXXX0039       VS11    0001111   NYV1 A E383039613847019N840000000003951BKZQ00    05DNHAPPY HIPPIE             020527    VD84000000003951 N  549976487134                            000000000+                F DF 00381                     000000000  N000000000       0000000000000.00 0000000.00   0000000.00                             000000000000000                                                                                                                                                     01418 A000000000000 0000000000000.47     00800 01500                  
00643940185050015DT67590675900000002881800888800000010180088824001193039900014000093020820230000000591203923000000000078953473336XXXXXX5051       VS11    0001111   NYV1 A E463039626131255N840000000005912VJ4M00    05DNHAPPY HIPPIE             002333    VD84000000005912 N  549976487134                            000000000+                F DF 00381                     000000000  N000000000       0000000000000.00 0000000.00   0000000.00                             000000000000000                                                                                                                                                     01418 A000000000000 0000000000000.62     00800 01500                  
00643950185050016DT67590675900000002881800888800000010180088824001193039900014000101020820230000000158003923000000000078953415978XXXXXX6755       VS11    0001111   NYV1 A E303039647475026N840000000001580HVWD00    07DNHAPPY HIPPIE             099502    VD84000000001580 N  549976487134                            000000000+                F DF 10433                     000000000  Y000000000 338   0000000000000.00 0000000.00   0000000.00                             000000000000000                                                                                                                                                     01418 A000000000000 0000000000000.23     00050 02200                  
00643960185050017DT67590675900000002881800888800000010180088824001193039900014000119020820230000000256703923000000000078953445101XXXXXX0323       VS11    0001111   NYV1 A E463039676861626N840000000002567JX2800    05DNHAPPY HIPPIE             113364    VD84000000002567 N  549976487134                            000000000+                F DF 10433                     000000000  Y000000000 338   0000000000000.00 0000000.00   0000000.00                             000000000000000                                                                                                                                                     01418 A000000000000 0000000000000.23     00050 02200                  
00643970185050018DT67590675900000002881800888800000010180088877287283039900014000129020820230000000339003923000000000078953539277XXXXXX2706       MS02WI09          NY 1 0 AMWES2BDQW0208  N840000000003390          05DNHAPPY HIPPIE             05496Z    MC84000000003390 N  549976487134                            000000000+M10101C5434C    MWE  00743                     000000000  N                0000000000000.00 0000000.00   0000000.00                             000000000000000                                                                                                                                                   B101418  000000000000 0000000000000.82     02300 00400                  
00643980185050019DT67590675900000002881800888800000010180088824001193039900014000135020820230000000690003923000000000078953474487XXXXXX1417       VS11    0001111   NYV1 A E383039725020193N840000000006900R2RJ00    07DNHAPPY HIPPIE             100385    VD84000000006900 N  549976487134                            000000000+                F DF 10433                     000000000  Y000000000 338   0000000000000.00 0000000.00   0000000.00                             000000000000000                                                                                                                                                     01418 A000000000000 0000000000000.25     00050 02200                  
00643990185050020DT67590675900000002881800888800000010180088877287283039900014000145020820230000000395003923000000000078953514616XXXXXX1988       MS02WI09          NY 1 0 AMDJO6MPDR0208  N840000000003950          05DNHAPPY HIPPIE             B8A9C1    MD84000000003950 N  549976487134                            000000000+M10101C5434C    MDJ  00402                     000000000  N                0000000000000.00 0000000.00   0000000.00                             000000000000000                                                                                                                                                   B101418  000000000000 0000000000000.56     01050 01500                  
00644000185050021DT67590675900000002881800888800000010180088824001193039900014000150020820230000000266403923000000000078953419090XXXXXX9657       VS11    0001111   NYV1 A E463039761424462N840000000002664G8KC00    05DNHAPPY HIPPIE             415225    VD84000000002664 N  549976487134                            000000000+                F DF 00381                     000000000  N000000000       0000000000000.00 0000000.00   0000000.00                             000000000000000                                                                                                                                                     01418 A000000000000 0000000000000.36     00800 01500                  
00644010185050022DT67590675900000002881800888800000010180088824001193039900014000168020820230000000207303923000000000078953449507XXXXXX1292       VS11    0001111   NYV1 A E583039764333315N8400000000020732VRC00    05DNHAPPY HIPPIE             061354    VD84000000002073 N  549976487134                            000000000+                F DF 00381                     000000000  N000000000       0000000000000.00 0000000.00   0000000.00                             000000000000000                                                                                                                                                     01418 A000000000000 0000000000000.32     00800 01500                  
00644020185050023DT67590675900000002881800888800000010180088824001193039900014000176020820230000000325803923000000000078953449507XXXXXX6105       VS11    0001111   NYV1 A E463039782333949N840000000003258XNMB00    05DNHAPPY HIPPIE             064352    VD84000000003258 N  549976487134                            000000000+                F DF 00381                     000000000  N000000000       0000000000000.00 0000000.00   0000000.00                             000000000000000                                                                                                                                                     01418 A000000000000 0000000000000.41     00800 01500                  
00644030185050024BH6759067590000000288180088880000090170208202303923000000000073182    0000090001400016N8008886759C02092023                                                                                                                                                                                                                                                                                                                                                                                                                                                                                                                                                                                                 
00644040185050025DT67590675900000002881800888800000010180088877287283039900014000012020820230000000167803923000000000073182521333XXXXXX0233       MS02WI09          NY 1 0 AMCWLDHTA90208  N840000000001678          05DNHAPPY HIPPIE             00807P    MC84000000001678 N  549976487158                            000000000+M10101C5434C    MCW  00646                     000000000  N                0000000000000.00 0000000.00   0000000.00                             000000000000000                                                                                                                                                   B101418  000000000000 0000000000000.36     01900 00400                  
00644050185050026DT67590675900000002881800888800000010180088824001193039900014000028020820230000000395003923000000000073182445101XXXXXX6048       VS11    0001111   NYV1 A E383039620853633N840000000003950989300    05DNHAPPY HIPPIE             057271    VD84000000003950 N  549976487158                            000000000+                F DF 10433                     000000000  Y000000000 338   0000000000000.00 0000000.00   0000000.00                             000000000000000                                                                                                                                                     01418 A000000000000 0000000000000.24     00050 02200                  
00644060185050027DT67590675900000002881800888800000010180088824001193039900014000036020820230000000790003923000000000073182415978XXXXXX0794       VS11    0001111   NYV1 A E583039626331095N840000000007900B8CB00    05DNHAPPY HIPPIE             082509    VD84000000007900 N  549976487158                            000000000+                F DF 10433                     000000000  Y000000000 338   0000000000000.00 0000000.00   0000000.00                             000000000000000                                                                                                                                                     01418 A000000000000 0000000000000.26     00050 02200                  
00644070185050028DT67590675900000002881800888800000010180088824001193039900014000044020820230000000316103923000000000073182422921XXXXXX5630       VS11    0001111   NYV1 A E463039635525226N840000000003161SM8N00    05DNHAPPY HIPPIE             045553    VD84000000003161 N  549976487158                            000000000+                F DF 00381                     000000000  N000000000       0000000000000.00 0000000.00   0000000.00                             000000000000000                                                                                                                                                     01418 A000000000000 0000000000000.40     00800 01500                  
00644080185050029DT67590675900000002881800888800000010180088824001193039900014000051020820230000000527103923000000000073182419090XXXXXX3689       VS11    0001111   NYV1 A E383039636535586N840000000005271CPDL00    05DNHAPPY HIPPIE             408370    VD84000000005271 N  549976487158                            000000000+                F DF 00381                     000000000  N000000000       0000000000000.00 0000000.00   0000000.00                             000000000000000                                                                                                                                                     01418 A000000000000 0000000000000.57     00800 01500                  
00644090185050030DT67590675900000002881800888800000010180088824001193039900014000069020820230000000651703923000000000073182434292XXXXXX6609       VS11    0001111   NYV1 A E303039640826383N840000000006517NTF300    05DNHAPPY HIPPIE             03688D    VS84000000006517 N  549976487158                            000000000+                D CD 12113                     000000000  N000000000 499   0000000000000.00 0000000.00   0000000.00                             000000000000000                                                                                                                                                     01418 A000000000000 0000000000001.47     02100 01000                  
00644100185050031DT67590675900000002881800888800000010180088877287283039900014000079020820230000000108503923000000000073182549170XXXXXX2507       MS02WI09          NY 1 0 AMDJZDMXDR0208  N840000000001085          05DNHAPPY HIPPIE             100420    MD84000000001085 N  549976487158                            000000000+M10101C5434C    MDJ  10831                     000000000  1                0000000000000.00 0000000.00   0000000.00                             000000000000000                                                                                                                                                   B101418  000000000000 0000000000000.23     00050 02200                  
00644110185050032DT67590675900000002881800888800000010180088824001193039900014000085020820230000000316103923000000000073182415978XXXXXX9559       VS11    0001111   NYV1 A E583039654172352N840000000003161L34300    05DNHAPPY HIPPIE             057288    VD84000000003161 N  549976487158                            000000000+                F DF 10433                     000000000  Y000000000 338   0000000000000.00 0000000.00   0000000.00                             000000000000000                                                                                                                                                     01418 A000000000000 0000000000000.24     00050 02200                  
00644120185050033DT67590675900000002881800888800000010180088824001193039900014000093020820230000000444103923000000000073182449507XXXXXX2935       VS11    0001111   NYV1 A E583039659124103N840000000004441ZHPN00    05DNHAPPY HIPPIE             031832    VD84000000004441 N  549976487158                            000000000+                F DF 00381                     000000000  N000000000       0000000000000.00 0000000.00   0000000.00                             000000000000000                                                                                                                                                     01418 A000000000000 0000000000000.51     00800 01500                  
00644130185050034DT67590675900000002881800888800000010180088824001193039900014000101020820230000000325803923000000000073182404227XXXXXX1232       VS11    0001111   NYV1 A E303039693928013N840000000003258W7DC00    05DNHAPPY HIPPIE             706968    VD84000000003258 N  549976487158                            000000000+                F DF 00381                     000000000  N000000000       0000000000000.00 0000000.00   0000000.00                             000000000000000                                                                                                                                                     01418 A000000000000 0000000000000.41     00800 01500                  
00644140185050035DT67590675900000002881800888800000010180088824001193039900014000119020820230000001086303923000000000073182473916XXXXXX6307       VS11    0001111   NYV1 A E303039696717390N840000000010863Q9LT00    05DNHAPPY HIPPIE             042111    VD84000000010863 N  549976487158                            000000000+                G DG 08704                     000000000  N000000000       0000000000000.00 0000000.00   0000000.00                             000000000000000                                                                                                                                                     01418 A000000000000 0000000000001.95     01700 01000                  
00644150185050036DT67590675900000002881800888800000010180088824001193039900014000127020820230000000591303923000000000073182449507XXXXXX6597       VS11    0001111   NYV1 A E383039700854090N840000000005913B2B400    05DNHAPPY HIPPIE             042805    VD84000000005913 N  549976487158                            000000000+                F DF 00381                     000000000  N000000000       0000000000000.00 0000000.00   0000000.00                             000000000000000                                                                                                                                                     01418 A000000000000 0000000000000.62     00800 01500                  
00644160185050037DT67590675900000002881800888800000010180088824001193039900014000135020820230000000295003923000000000073182443264XXXXXX3780       VS11    0001111   NYV1 A E303039702125326N8400000000029504T4J00    05DNHAPPY HIPPIE             020049    VD84000000002950 N  549976487158                            000000000+                F DF 10433                     000000000  Y000000000 338   0000000000000.00 0000000.00   0000000.00                             000000000000000                                                                                                                                                     01418 A000000000000 0000000000000.23     00050 02200                  
00644170185050038DT67590675900000002881800888800000010180088824001193039900014000143020820230000000296203923000000000073182498503XXXXXX6779       VS11    0001111   NYV1 A E463039711203854N840000000002962ZCQ900    05DNHAPPY HIPPIE             070787    VD84000000002962 N  549976487158                            000000000+                F DF 00381                     000000000  N000000000       0000000000000.00 0000000.00   0000000.00                             000000000000000                                                                                                                                                     01418 A000000000000 0000000000000.39     00800 01500                  
00644180185050039DT67590675900000002881800888800000010180088824001193039900014000150020820230000000493803923000000000073182422921XXXXXX6692       VS11    0001111   NYV1 A E303039759763319N840000000004938J86700    05DNHAPPY HIPPIE             057977    VD84000000004938 N  549976487158                            000000000+                F DF 00381                     000000000  N000000000       0000000000000.00 0000000.00   0000000.00                             000000000000000                                                                                                                                                     01418 A000000000000 0000000000000.55     00800 01500                  
00644190185050040DT67590675900000002881800888800000010180088824001193039900014000168020820230000000513403923000000000073182419090XXXXXX8251       VS11    0001111   NYV1 A E303039770962648N840000000005134TRLV00    05DNHAPPY HIPPIE             415810    VD84000000005134 N  549976487158                            000000000+                F DF 00381                     000000000  N000000000       0000000000000.00 0000000.00   0000000.00                             000000000000000                                                                                                                                                     01418 A000000000000 0000000000000.56     00800 01500                  
00644200185050041BH6759067590000000589280088880000090170208202303923000000000019150    0000090001034759N8008886759C02092023                                                                                                                                                                                                                                                                                                                                                                                                                                                                                                                                                                                                 
00644210185050042DT67590675900000005892800888800000010180088824001193039900010305413020820230000001049703923000000000019150429413XXXXXX4792               2111111   NYV4 A7W303039290619407N840000000010497RTTG00    01DNPLANET VAPOR INC         064589    VD84000000010497 NP1599971004114   14272584                 000000000+                F DF 00415                     000000000  N000000000       0000000000000.00 0000000.00   0000000.00                             000000000000000                                                                                                                                                     01418 G000000010497 0000000000001.88     01650 01500                  
00644220185050001P16759067590000000589280088880000001010000000000000000                             2000000000000000000000000              000000000000                    0000000000000000000000000                    000000000000                                                                                                                                                                                                                                                                                                                                                                                                                                                                                        
00644230185050043DT67590675900000005892800888800000010680088874001193039900010300013020820230000000334603923000000000019150430602XXXXXX0938               0000000   NY94 07N000000000000000N   000000000000          01CNPLANET VAPOR INC                   VD84000000003346 N  599971004114                            000000000+                F DF 08168                     000000000  N000000000 369   0000000000000.00 0000000.00   0000000.00                             000000000000000                                                                                                                                                     01418  000000000000 0000000000000.00     00000 00000                  
00644240185050044DT67590675900000005892800888800000010180088824001193039900010347597020820230000001199903923000000000019150443040XXXXXX2139               2111111   NYV4 A7W463039796285713N840000000011999V74R00    01DNPLANET VAPOR INC         853571    VD84000000011999 NP1599971004114   14276523                 000000000+                F DF 10420                     000000000  Y000000000 338   0000000000000.00 0000000.00   0000000.00                             000000000000000                                                                                                                                                     01418 G000000011999 0000000000000.28     00050 02200                  
00644250185050001P16759067590000000589280088880000001010000000000000000                             2000000000000000000000000              000000000000                    0000000000000000000000000                    000000000000                                                                                                                                                                                                                                                                                                                                                                                                                                                                                        
00644260185050045BH6759067590000000766680088880000090170208202303923000000000070161    0000090001030016N8008886759C02092023                                                                                                                                                                                                                                                                                                                                                                                                                                                                                                                                                                                                 
00644270185050046DT67590675900000007666800888800000010180088877287283039900010300010020820230000000550503923000000000070161531258XXXXXX4752       MS02WI09          NY 1 0 AMDJDGHPOB0208  N840000000005505          05DNPLANET VAPOR #300        100342    MD84000000005505 N  599976777836                            000000000+M10101C5434C    MDJ  10815                     000000000  1                0000000000000.00 0000000.00   0000000.00                             000000000000000                                                                                                                                                   B101418  000000000000 0000000000000.25     00050 02200                  
00644280185050047DT67590675900000007666800888800000010180088824001193039900010300026020820230000000404803923000000000070161473703XXXXXX6566       VS11    0001111   NYV1 A E383039585507828N840000000004048332Z00    05DNPLANET VAPOR #300        092372    VD84000000004048 N  599976777836                            000000000+                F DF 10433                     000000000  Y000000000 338   0000000000000.00 0000000.00   0000000.00                             000000000000000                                                                                                                                                     01418 A000000000000 0000000000000.24     00050 02200                  
00644290185050048DT67590675900000007666800888800000010180088824001193039900010300034020820230000000237503923000000000070161473703XXXXXX3278       VS11    0001111   NYV1 A E583039593140914N840000000002375JW6X00    05DNPLANET VAPOR #300        010627    VD84000000002375 N  599976777836                            000000000+                F DF 10433                     000000000  Y000000000 338   0000000000000.00 0000000.00   0000000.00                             000000000000000                                                                                                                                                     01418 A000000000000 0000000000000.23     00050 02200                  
00644300185050049DT67590675900000007666800888800000010180088824001193039900010300042020820230000000205103923000000000070161461675XXXXXX2709       VS11    0001111   NYV1 A E383039598448030N840000000002051S5X400    05DNPLANET VAPOR #300        202890    VD84000000002051 N  599976777836                            000000000+                F DF 00381                     000000000  N000000000       0000000000000.00 0000000.00   0000000.00                             000000000000000                                                                                                                                                     01418 A000000000000 0000000000000.31     00800 01500                  
00644310185050050DT67590675900000007666800888800000010180088824001193039900010300059020820230000000269903923000000000070161446542XXXXXX1966       VS11    0001111   NYV1 A E383039613429325N840000000002699QMPV00    05DNPLANET VAPOR #300        008418    VS84000000002699 N  599976777836                            000000000+                B CB 12111                     000000000  N000000000 495   0000000000000.00 0000000.00   0000000.00                             000000000000000                                                                                                                                                     01418 A000000000000 0000000000000.55     01650 01000                  
00644320185050051DT67590675900000007666800888800000010180088824001193039900010300067020820230000000162003923000000000070161446542XXXXXX1966       VS11    0001111   NYV1 A E463039635471163N8400000000016203T9Q00    05DNPLANET VAPOR #300        008641    VS84000000001620 N  599976777836                            000000000+                B CB 12111                     000000000  N000000000 495   0000000000000.00 0000000.00   0000000.00                             000000000000000                                                                                                                                                     01418 A000000000000 0000000000000.37     01650 01000                  
00644330185050052DT67590675900000007666800888800000010180088824001193039900010300075020820230000000237503923000000000070161406095XXXXXX7825       VS11    0001111   NYV1 A E303039665778818N84000000000237569TK00    05DNPLANET VAPOR #300        08124C    VS84000000002375 N  599976777836                            000000000+                C CC 12112                     000000000  N000000000 497   0000000000000.00 0000000.00   0000000.00                             000000000000000                                                                                                                                                     01418 A000000000000 0000000000000.49     01650 01000                  
00644340185050053DT67590675900000007666800888800000010180088824001193039900010300083020820230000000799003923000000000070161492124XXXXXX6122       VS11    0001111   NYV1 A E583039667605442N840000000007990XV8T00    07DNPLANET VAPOR #300        021766    VD84000000007990 N  599976777836                            000000000+                F DF 10433                     000000000  Y000000000 338   0000000000000.00 0000000.00   0000000.00                             000000000000000                                                                                                                                                     01418 A000000000000 0000000000000.26     00050 02200                  
00644350185050054DT67590675900000007666800888800000010180088824001193039900010300091020820230000000650903923000000000070161442644XXXXXX9149       VS11    0001111   NYV1 A E463039683887195N840000000006509WSN200    07DNPLANET VAPOR #300        008286    VS84000000006509 N  599976777836                            000000000+                A CA 12110                     000000000  N000000000 493   0000000000000.00 0000000.00   0000000.00                             000000000000000                                                                                                                                                     01418 A000000000000 0000000000001.08     01510 01000                  
00644360185050055DT67590675900000007666800888800000010180088824001193039900010300109020820230000000420803923000000000070161473703XXXXXX2000       VS11    0001111   NYV1 A E463039697622212N840000000004208FFJC00    07DNPLANET VAPOR #300        020660    VD84000000004208 N  599976777836                            000000000+                F DF 10433                     000000000  Y000000000 338   0000000000000.00 0000000.00   0000000.00                             000000000000000                                                                                                                                                     01418 A000000000000 0000000000000.24     00050 02200                  
00644370185050056DT67590675900000007666800888800000010180088824001193039900010300117020820230000000583103923000000000070161498503XXXXXX2959       VS11    0001111   NYV1 A E383039711422005N8400000000058312VZ800    05DNPLANET VAPOR #300        001297    VD84000000005831 N  599976777836                            000000000+                F DF 00381                     000000000  N000000000       0000000000000.00 0000000.00   0000000.00                             000000000000000                                                                                                                                                     01418 A000000000000 0000000000000.62     00800 01500                  
00644380185050057DT67590675900000007666800888800000010180088824001193039900010300125020820230000000961903923000000000070161473703XXXXXX4281       VS11    0001111   NYV1 A E303039722559380N840000000009619MBDG00    05DNPLANET VAPOR #300        081660    VD84000000009619 N  599976777836                            000000000+                F DF 10433                     000000000  Y000000000 338   0000000000000.00 0000000.00   0000000.00                             000000000000000                                                                                                                                                     01418 A000000000000 0000000000000.27     00050 02200                  
00644390185050058DT67590675900000007666800888800000010180088824001193039900010300133020820230000000539903923000000000070161458643XXXXXX3825       VS11    0001111   NYV1 A E463039812798081N840000000005399PZSM00    05DNPLANET VAPOR #300        H68913    VD84000000005399 N  599976777836                            000000000+                F DF 10433                     000000000  Y000000000 338   0000000000000.00 0000000.00   0000000.00                             000000000000000                                                                                                                                                     01418 A000000000000 0000000000000.25     00050 02200                  
00644400185050059DT67590675900000007666800888800000010180088824001193039900010300141020820230000000647903923000000000070161473703XXXXXX7995       VS11    0001111   NYV1 A E463039815925107N840000000006479JP6K00    07DNPLANET VAPOR #300        072296    VD84000000006479 N  599976777836                            000000000+                F DF 10433                     000000000  Y000000000 338   0000000000000.00 0000000.00   0000000.00                             000000000000000                                                                                                                                                     01418 A000000000000 0000000000000.25     00050 02200                  
00644410185050060DT67590675900000007666800888800000010180088824001193039900010300158020820230000000053903923000000000070161461675XXXXXX4308       VK04VS111111111   NYV1 A E303039817980516N840000000000539RPFC00    05DNPLANET VAPOR #300        442110    VD84000000000539 N  599976777836                            000000000+                F DF 00451                     000000000  N000000000 214   0000000000000.00 0000000.00   0000000.00                             000000000000000                                                                                                                                                     01418 F000000000000 0000000000000.12     01550 00400                  
00644420185050061DT67590675900000007666800888800000010180088824001193039900010300166020820230000000291403923000000000070161498503XXXXXX5050       VS11    0001111   NYV1 A E383040036533207N8400000000029147V5900    05DNPLANET VAPOR #300        009669    VD84000000002914 N  599976777836                            000000000+                F DF 00381                     000000000  N000000000       0000000000000.00 0000000.00   0000000.00                             000000000000000                                                                                                                                                     01418 A000000000000 0000000000000.38     00800 01500                  
