07703390463425107AD675906759000000133008001028000009071900014103410000000652007192023NYY20023ND6759800102072120232023200021411                                                                                                                                                                                                                                                                                                                                                                                                                                                                                                                                                                                              
07703400465268211BH6759067590000001427480010280000090170720202320123000000000003199    0000090001529828N8001026759D07212023152                                                                                                                                                                                                                                                                                                                                                                                                                                                                                                                                                                                              
07703410465268212DT67590675900000014274800102800000010680010287287283201900015298285071920230000000319920123000000000003199552276XXXXXX2910                         YY 4607AMCWVTCWCR0719  N840000000003199          81CNCBD8666317293            377570    MC84000000003199 NDR549977145232   CF64996E74T412F19F87C77  000000000+600450S00130    MCW  00565                     000000000  N                0000000000000.00 0000000.00   0000000.00                             000000000000000                                                                                                                                                     015WPE 000000000000-0000000000000.56     01750 00000                  
07703420465268212DR675906759000000142748001028000000106CF64996E74T412F19F87C77  R000000000000                                                                                                                                                                                                                                                                                                                                                                                                                                                                                                                                                                                                                               
07703430465260001G26759067590000001427480010280000001068666317293               GA           9 W               210                                      NNNN           210000000000000000000000000                        7                                          77145232                                                                                                                                                                                                                                                                                                                                                                                                                                               
07703440465268215BH6759067590000001330080010280000090170720202320123000000000004999    0000090001521195N8001026759D07212023152                                                                                                                                                                                                                                                                                                                                                                                                                                                                                                                                                                                              
07703450465268216DT67590675900000013300800102800000010680010287287283201900015211957071920230000000499920123000000000004999552276XXXXXX2910                         YY 4607AMCWITW8TP0719  N840000000004999          81CNCBD8666317293            108948    MC84000000004999 NDR549977133133   CF64996E74T5416ACEA0AC8  000000000+600450S00130    MCW  00565                     000000000  N                0000000000000.00 0000000.00   0000000.00                             000000000000000                                                                                                                                                     015WPE 000000000000-0000000000000.87     01750 00000                  
07703460465268216DR675906759000000133008001028000000106CF64996E74T5416ACEA0AC8  R000000000000                                                                                                                                                                                                                                                                                                                                                                                                                                                                                                                                                                                                                               
07703470465260001G26759067590000001330080010280000001068666317293               GA           9 W               210                                      NNNN           210000000000000000000000000                        7                                          77133133                                                                                                                                                                                                                                                                                                                                                                                                                                               
07703480465268219BH6759067590000001982880010980000090170720202320123000000000001988    0000090001100810N8001096759D07212023110                                                                                                                                                                                                                                                                                                                                                                                                                                                                                                                                                                                              
07703490465268220DT67590675900000019828800109800000010680010976509753201900011008107071920230000000198820123000000000001988601100XXXXXX7287   BA00                  YY 4 07N813172544228060N840000000001988    00    01CNKETOFUSION 8885968154    01974R    DS84000000001988 NDR599977547467070                         000000000+1015104910600   DCCDI01022833152  155342200000 000000000  0          134   0000000000000.00 0000000.00   0000000.00                             000000000000000                                                                                                                                                     015WPE 000000000000-0000000000000.35     01750 00000                  
07703500465268220DR675906759000000198288001098000000106                         R                                                                                                                                                                                                                                                                                                                                                                                                                                                                                                                                                                                                                                           
07703510465260001G2675906759000000198288001098000000106888-5968154              UT           0 C                00                                      NNNN                          000000000000                         00000650975601179750000394                77547467                                                                                                                                                                                                                                                                                                                                                                                                                                               
07703520465268223BH6759067590000002684980012580000090170720202320123000000000013840    0000090001968151N8001256759D07212023096                                                                                                                                                                                                                                                                                                                                                                                                                                                                                                                                                                                              
07703530465268224DT67590675900000026849800125800000010680012574001193201900019681506071920230000000692020123000000000013840414720XXXXXX5004               0000000   YYV4 07T303200595749563N840000000006920VBDM00    01CNCBD8885133385            07640D    VS84000000006920 NDR599978220273   2BFDDDFE7CTF841D0565797  000000000+                D CD 00245                     000000000  N000000000 166   0000000000000.00 0000000.00   0000000.00                             000000000000000                                                                                                                                                     015WPE 000000006920-0000000000001.22     01760 00000                  
07703540465268224DR6759067590000002684980012580000001062BFDDDFE7CTF841D0565797  Y000000006920                 P1                                                                                                                                                                                                                                                                                                                                                                                                                                                                                                                                                                                                            
07703550465260001P16759067590000002684980012580000001060000000000000000                             2000000000000000000000000              000000000000                    0000000000000000000000000                    000000000000                                                                                                                                                                                                                                                                                                                                                                                                                                                                                        
07703560465260002G2675906759000000268498001258000000106888-5133385              WY           9 C                00                                      NNNN   Y                      000000000000                                                                   78220273                                                                                                                                                                                                                                                                                                                                                                                                                                               
07703570465268225DT67590675900000026849800125800000010680012576509753201900019681517071920230000000692020123000000000013840601100XXXXXX4070   BA00                  YY 4 07N873172512632822N840000000006920    00    01CNCBD8885133385            01986R    DS84000000006920 NDR599978220273070                         000000000+1015104910600   DCCDI01022333160  150103200000 000000000  0          134   0000000000000.00 0000000.00   0000000.00                             000000000000000                                                                                                                                                     015WPE 000000000000-0000000000001.21     01750 00000                  
07703580465268225DR675906759000000268498001258000000106                         R                                                                                                                                                                                                                                                                                                                                                                                                                                                                                                                                                                                                                                           
07703590465260001G2675906759000000268498001258000000106855-4401547              WY           9 C                00                                      NNNN                          000000000000                         00000650975601179750000543                78220273                                                                                                                                                                                                                                                                                                                                                                                                                                               
07703600466030002BH6759067590000002148580111380000090170720202320123000000000310000    0000090001055653N8011136759C07212023005                                                                                                                                                                                                                                                                                                                                                                                                                                                                                                                                                                                              
07703610466030003DT67590675900000021485801113800000010180111324001193201900010538155072020230000025000020123000000000310000410063XXXXXX2825               2111111   NYV4 A7W463200572721882N840000000250000XKG600    01DNFED CONTRACTING CTR INC  06466G    VB84000000250000 NDR739271004114   3380                     000000000+                G5CG511887                     000000000  N000000000 163   0000000000000.00 0000000.00   0000000.00                             000000000000000                                                                                                                                                     01418 G000000250000 0000000000075.10     03000 01000                  
07703620466030003DR6759067590000002148580111380000001013380                     Y000000250000                 P1                                                                                                                                                                                                                                                                                                                                                                                                                                                                                                                                                                                                            
07703630466030001P16759067590000002148580111380000001010000000000000000    64491751153              2000000000000000000000000              000000000000                    0000000000000000000000000                    000000000000                                                                                                                                                                                                                                                                                                                                                                                                                                                                                        
07703640466030002G2675906759000000214858011138000000101855-7005143              FL           9 C                00                                      NNNN   Y                      000000000000                                                                   71004114                                                                                                                                                                                                                                                                                                                                                                                                                                               
07703650466030004DT67590675900000021485801113800000010180111324001193201900010556538072020230000006000020123000000000310000433993XXXXXX3166               2111111   NYV4 A7W583200735834517N840000000060000Q98V00    01DNFED CONTRACTING CTR INC  06547G    VB84000000060000 NDR739271004114   3382                     000000000+                G4CG411355                     000000000  N000000000 377   0000000000000.00 0000000.00   0000000.00                             000000000000000                                                                                                                                                     01418 G000000060000 0000000000017.80     02950 01000                  
07703660466030004DR6759067590000002148580111380000001013382                     Z000000060000                 P1                                                                                                                                                                                                                                                                                                                                                                                                                                                                                                                                                                                                            
07703670466030001P16759067590000002148580111380000001010000000000000000    64492350899              2000000000000000000000000              000000000000                    0000000000000000000000000                    000000000000                                                                                                                                                                                                                                                                                                                                                                                                                                                                                        
07703680466030002G2675906759000000214858011138000000101855-7005143              FL           9 C                00                                      NNNN   Y                      000000000000                                                                   71004114                                                                                                                                                                                                                                                                                                                                                                                                                                               
07703690466030005BH6759067590000000288180088880000090170720202320123000000000093382    0000090001670017N8008886759C07212023067                                                                                                                                                                                                                                                                                                                                                                                                                                                                                                                                                                                              
07703700466030006DT67590675900000002881800888800000010180088824001193201900016700015072020230000000212520123000000000093382440393XXXXXX5310       VS11    0001111   NYV1 A E463201511120252N840000000002125QFFQ00    07DNHAPPY HIPPIE             420468    VD84000000002125 N  549976487169                            000000000+                F PF 08170                     000000000  N000000000       0000000000000.00 0000000.00   0000000.00                             000000000000000                                                                                                                                                     01418 A000000000000 0000000000000.39     01150 01500                  
07703710466030001E167590675900000002881800888800000010100E068C801CC 00000000000.004040404040404040404040404040404040404040404040404006011203A00000000000000000000000404040404040404040404040404040  0000084020000000000000230720644868B108219AD7B77938B0404040400840A0000000031010000000000000000000A6E1FA81271C560D30300000000000004040404040404040 000000021.25 000000000.004040400000000000000000    80                                                                                                                                                                                                                                                                                                                  
07703720466030002G2675906759000000028818008888000000101SEVIERVILLE              TN           5 P                00                                      NNNN00 N 00                   000000000000                                                                   76487169                                                                                                                                                                                                                                                                                                                                                                                                                                               
07703730466030007DT67590675900000002881800888800000010180088877287283201900016700025072020230000000790020123000000000093382559309XXXXXX9849       MS02WI09          NY 1 0 AMCWGYDIMP0720  N840000000007900          05DNHAPPY HIPPIE             05457Z    MC84000000007900 N  549976487169                            000000000+M10101C5434C    MCW  00646                     000000000  N                0000000000000.00 0000000.00   0000000.00                             000000000000000                                                                                                                                                   B101418  000000000000 0000000000001.54     01900 00400                  
07703740466030001E167590675900000002881800888800000010100E0F8C800BB 00000000000.00404040404040404040404040404040404040404040404040400110A04003220000000000000000000000FF00000000000000000000000000  0002084039000000008000230720385E189C817C8B13B657A939404040400840A000000004101000000000000000000027D6B34AD5D95DEB00120000000000004040401E40404040 000000079.00 000000000.001E03000000000000000000    80                                                                                                                                                                                                                                                                                                                  
07703750466030002G2675906759000000028818008888000000101SEVIERVILLE              TN           5 W                                                        NNNN              000000000000000000000000                        7                                          76487169                                                                                                                                                                                                                                                                                                                                                                                                                                               
07703760466030008DT67590675900000002881800888800000010180088877287283201900016700033072020230000000295020123000000000093382559309XXXXXX9849       MS02WI09          NY 1 0 AMCWSCLI9Y0720  N840000000002950          05DNHAPPY HIPPIE             08732Z    MC84000000002950 N  549976487169                            000000000+M10101C5434C    MCW  00646                     000000000  N                0000000000000.00 0000000.00   0000000.00                             000000000000000                                                                                                                                                   B101418  000000000000 0000000000000.60     01900 00400                  
07703770466030001E167590675900000002881800888800000010100E0F8C800BC 00000000000.00404040404040404040404040404040404040404040404040400110A04003220000000000000000000000FF00000000000000000000000000  00020840390000000080002307201A135A8868F7E733BE9E47AB404040400840A0000000041010000000000000000000B0E484243DA4AAD200120000000000004040401E40404040 000000029.50 000000000.001E03000000000000000000    80                                                                                                                                                                                                                                                                                                                  
07703780466030002G2675906759000000028818008888000000101SEVIERVILLE              TN           5 W                                                        NNNN              000000000000000000000000                        7                                          76487169                                                                                                                                                                                                                                                                                                                                                                                                                                               
07703790466030009DT67590675900000002881800888800000010180088824001193201900016700049072020230000000083120123000000000093382440393XXXXXX9718       VK04VS111111111   NYV1 A E463201515601334N8400000000008315XZP00    05DNHAPPY HIPPIE             269005    VD84000000000831 N  549976487169                            000000000+                F PF 08165                     000000000  N000000000       0000000000000.00 0000000.00   0000000.00                             000000000000000                                                                                                                                                     01418 F000000000000 0000000000000.18     01600 00500                  
07703800466030001E167590675900000002881800888800000010100E0F8C80060 00000000000.004040404040404040404040404040404040404040404040404006011203A08000000000000000000000404040404040404040404040404040  0000084018008080008000230720C0D601725CC319A85F7720A9404040400840A00000000310100000000000000000003D145CC0F59DE16230300000000000004040401E40404040 000000008.31 000000000.001E00000000000000000000    80                                                                                                                                                                                                                                                                                                                  
07703810466030002G2675906759000000028818008888000000101SEVIERVILLE              TN           5 P                00                                      NNNN00 N 00                   000000000000                                                                   76487169                                                                                                                                                                                                                                                                                                                                                                                                                                               
07703820466030010DT67590675900000002881800888800000010180088824001193201900016700056072020230000000559420123000000000093382400022XXXXXX0750       VS11    0001111   NYV1 A E383201528402108N8400000000055947FHR00    05DNHAPPY HIPPIE             857053    VD84000000005594 N  549976487169                            000000000+                F DF 10433                     000000000  Y000000000 338   0000000000000.00 0000000.00   0000000.00                             000000000000000                                                                                                                                                     01418 A000000000000 0000000000000.25     00050 02200                  
07703830466030001E167590675900000002881800888800000010100E0F8C80230 00000000000.004040404040404040404040404040404040404040404040404006021203A0A000000000000000000000404040404040404040404040404040  00000840180080800080002307203E4FEFF04A0451D95EF468C0404040400840A0000000031010000000000000000000404040404040404040404040404040404040401E40404040 000000055.94 000000000.001E00000000000000000000    80                                                                                                                                                                                                                                                                                                                  
07703840466030002G2675906759000000028818008888000000101SEVIERVILLE              TN           5 D                00                                      NNNN00 N 00                   000000000000                                                                   76487169                                                                                                                                                                                                                                                                                                                                                                                                                                               
07703850466030011DT67590675900000002881800888800000010180088877287283201900016700066072020230000000415120123000000000093382514616XXXXXX4662       MS02WI09          NY 1 0 AMDJB20JPU0720  N840000000004151          05DNHAPPY HIPPIE             1ED27A    MD84000000004151 N  549976487169                            000000000+M10101C5434C    MDJ  00402                     000000000  N                0000000000000.00 0000000.00   0000000.00                             000000000000000                                                                                                                                                   B101418  000000000000 0000000000000.59     01050 01500                  
07703860466030001E167590675900000002881800888800000010100E0F8C807DF 00000000000.00404040404040404040404040404040404040404040404040400110A04001220000000000000000000000FF00000000000000000000000000  0001084039000000008000230720E63D46592ACA4DBCE404493A404040400840A0000000041010000000000000000000BA23A95E5350F80800120000000000004040401E40404040 000000041.51 000000000.001E03000000000000000000    80                                                                                                                                                                                                                                                                                                                  
07703870466030002G2675906759000000028818008888000000101SEVIERVILLE              TN           5 J                                                        NNNN              000000000000000000000000                        7                                          76487169                                                                                                                                                                                                                                                                                                                                                                                                                                               
07703880466030012DT67590675900000002881800888800000010180088824001193201900016700072072020230000000153420123000000000093382472776XXXXXX8224       VS11    0001111   NYV1 A E583201636009484N8400000000015344S9L00    90DNHAPPY HIPPIE             022995    VD84000000001534 N  549976487169                            000000000+                F PF 08170                     000000000  N000000000       0000000000000.00 0000000.00   0000000.00                             000000000000000                                                                                                                                                     01418 A000000000000 0000000000000.33     01150 01500                  
07703890466030001G2675906759000000028818008888000000101SEVIERVILLE              TN           5 P                00                                      NNNN00 N 00                   000000000000                                                                   76487169                                                                                                                                                                                                                                                                                                                                                                                                                                               
07703900466030013DT67590675900000002881800888800000010180088824001193201900016700080072020230000000524820123000000000093382423223XXXXXX2326       VS11    0001111   NYV1 A E463201637223339N840000000005248HRVD00    05DNHAPPY HIPPIE             042791    VD84000000005248 N  549976487169                            000000000+                F DF 00381                     000000000  N000000000       0000000000000.00 0000000.00   0000000.00                             000000000000000                                                                                                                                                     01418 A000000000000 0000000000000.57     00800 01500                  
07703910466030001E167590675900000002881800888800000010100E0F8C80206 00000000000.004040404040404040404040404040404040404040404040404006011203A02000000000000000000000404040404040404040404040404040  0000084018008080008000230720BE449E97B67B723D589D9AA6404040400840A0000000031010000000000000000000736EFDBE0080000000000000000000004040401E40404040 000000052.48 000000000.001E00000000000000000000    80                                                                                                                                                                                                                                                                                                                  
07703920466030002G2675906759000000028818008888000000101SEVIERVILLE              TN           5 D                00                                      NNNN00 N 00                   000000000000                                                                   76487169                                                                                                                                                                                                                                                                                                                                                                                                                                               
07703930466030014DT67590675900000002881800888800000010180088824001193201900016700098072020230000000312420123000000000093382446053XXXXXX9776       VS11    0001111   NYV1 A E583201666942546N84000000000312484PT00    05DNHAPPY HIPPIE             533887    VD84000000003124 N  549976487169                            000000000+                F PF 08170                     000000000  N000000000       0000000000000.00 0000000.00   0000000.00                             000000000000000                                                                                                                                                     01418 A000000000000 0000000000000.51     01150 01500                  
07703940466030001E167590675900000002881800888800000010100E0F8C800D3 00000000000.004040404040404040404040404040404040404040404040404006010A03A00000000000000000000000404040404040404040404040404040  0000084018008080008000230720933E36D4BBA57BD0BFB0F84F404040400840A00000000310100000000000000000007AD34D8B0EFCC30330300000000000004040401E40404040 000000031.24 000000000.001E00000000000000000000    80                                                                                                                                                                                                                                                                                                                  
07703950466030002G2675906759000000028818008888000000101SEVIERVILLE              TN           5 P                00                                      NNNN00 N 00                   000000000000                                                                   76487169                                                                                                                                                                                                                                                                                                                                                                                                                                               
07703960466030015DT67590675900000002881800888800000010180088877287283201900016700108072020230000000312420123000000000093382510840XXXXXX8371       MS02WI09          NY 1 0 AMDSX0NFP20720  N840000000003124          90DNHAPPY HIPPIE             034521    MD84000000003124 N  549976487169                            000000000+M10101B5434C    MDS  10815                     000000000  1                0000000000000.00 0000000.00   0000000.00                             000000000000000                                                                                                                                                   C101418  000000000000 0000000000000.24     00050 02200                  
07703970466030001G2675906759000000028818008888000000101SEVIERVILLE              TN           5 S                                                        NNNN              000000000000000000000000                                                                   76487169                                                                                                                                                                                                                                                                                                                                                                                                                                               
07703980466030016DT67590675900000002881800888800000010180088824001193201900016700114072020230000000837420123000000000093382445101XXXXXX5186       VS11    0001111   NYV1 A E383201684512921N840000000008374V88Q00    05DNHAPPY HIPPIE             772513    VD84000000008374 N  549976487169                            000000000+                F DF 10433                     000000000  Y000000000 338   0000000000000.00 0000000.00   0000000.00                             000000000000000                                                                                                                                                     01418 A000000000000 0000000000000.26     00050 02200                  
07703990466030001E167590675900000002881800888800000010100E0F8C800B2 00000000000.004040404040404040404040404040404040404040404040404006011203A00000000000000000000000404040404040404040404040404040  0001084018008080008000230720C653C8A230E3D4CDC6FE0120404040400840A000000003101000000000000000000013F55AF00082000000000000000000004040401E40404040 000000083.74 000000000.001E00000000000000000000    80                                                                                                                                                                                                                                                                                                                  
07704000466030002G2675906759000000028818008888000000101SEVIERVILLE              TN           5 D                00                                      NNNN00 N 00                   000000000000                                                                   76487169                                                                                                                                                                                                                                                                                                                                                                                                                                               
07704010466030017DT67590675900000002881800888800000010180088877287283201900016700124072020230000000454120123000000000093382511953XXXXXX8148       MS02WI09          NY 1 0 AMDJYN8MP20720  N840000000004541          05DNHAPPY HIPPIE             034767    MD84000000004541 N  549976487169                            000000000+M10101C5434C    MDJ  00402                     000000000  N                0000000000000.00 0000000.00   0000000.00                             000000000000000                                                                                                                                                   B101418  000000000000 0000000000000.63     01050 01500                  
07704020466030001E167590675900000002881800888800000010100E0F8C800BF 00000000000.00404040404040404040404040404040404040404040404040400110A04001220000000000000000000000FF00000000000000000000000000  000008403900000000800023072072D6FE85BCA47185412A32A9404040400840A00000000410100000000000000000009C71A17445827BC0031A0000000000004040401E40404040 000000045.41 000000000.001E03000000000000000000    80                                                                                                                                                                                                                                                                                                                  
07704030466030002G2675906759000000028818008888000000101SEVIERVILLE              TN           5 J                                                        NNNN              000000000000000000000000                        7                                          76487169                                                                                                                                                                                                                                                                                                                                                                                                                                               
07704040466030018DT67590675900000002881800888800000010180088824001193201900016700130072020230000000925820123000000000093382426684XXXXXX0085       VS11    0001111   NYV1 A E383201702246602N8400000000092588Q5800    07DNHAPPY HIPPIE             00745D    VS84000000009258 N  549976487169                            000000000+                D CD 12113                     000000000  N000000000 499   0000000000000.00 0000000.00   0000000.00                             000000000000000                                                                                                                                                     01418 A000000000000 0000000000002.04     02100 01000                  
07704050466030001E167590675900000002881800888800000010100E068C80053 00000000000.004040404040404040404040404040404040404040404040404006021203A00000000000000000000000404040404040404040404040404040  0001084020000000000000230720184D0854CCBF7610BFD9D14D404040400840A000000003101000000000000000000059C13E440082000000000000000000004040404040404040 000000092.58 000000000.004040400000000000000000    80                                                                                                                                                                                                                                                                                                                  
07704060466030002G2675906759000000028818008888000000101SEVIERVILLE              TN           5 C                00                                      NNNN00 Y 00                   000000000000                                                                   76487169                                                                                                                                                                                                                                                                                                                                                                                                                                               
07704070466030019DT67590675900000002881800888800000010180088824001193201900016700148072020230000000694420123000000000093382449507XXXXXX0245       VS11    0001111   NYV1 A E303201766416553N840000000006944NQ9C00    07DNHAPPY HIPPIE             071721    VD84000000006944 N  549976487169                            000000000+                F DF 00381                     000000000  N000000000       0000000000000.00 0000000.00   0000000.00                             000000000000000                                                                                                                                                     01418 A000000000000 0000000000000.71     00800 01500                  
07704080466030001E167590675900000002881800888800000010100E068C80182 00000000000.004040404040404040404040404040404040404040404040404006011203A00000000000000000000000404040404040404040404040404040  0000084020000000000000230720A63539803ED447047A9E8C12404040400840A0000000031010000000000000000000404040404040404040404040404040404040404040404040 000000069.44 000000000.004040400000000000000000    80                                                                                                                                                                                                                                                                                                                  
07704090466030002G2675906759000000028818008888000000101SEVIERVILLE              TN           5 D                00                                      NNNN00 N 00                   000000000000                                                                   76487169                                                                                                                                                                                                                                                                                                                                                                                                                                               
07704100466030020DT67590675900000002881800888800000010180088824001193201900016700155072020230000000343720123000000000093382445101XXXXXX1261       VS11    0001111   NYV1 A E583201770043712N8400000000034378PBT00    05DNHAPPY HIPPIE             842568    VD84000000003437 N  549976487169                            000000000+                F DF 10433                     000000000  Y000000000 338   0000000000000.00 0000000.00   0000000.00                             000000000000000                                                                                                                                                     01418 A000000000000 0000000000000.24     00050 02200                  
07704110466030001E167590675900000002881800888800000010100E0F8C801C8 00000000000.004040404040404040404040404040404040404040404040404006010A03A08000000000000000000000404040404040404040404040404040  000108401800808000800023072094258EF9A9643B50A99469FB404040400840A000000003101000000000000000000071ED8E659E03172E30300000000000004040401E40404040 000000034.37 000000000.001E00000000000000000000    80                                                                                                                                                                                                                                                                                                                  
07704120466030002G2675906759000000028818008888000000101SEVIERVILLE              TN           5 D                00                                      NNNN00 N 00                   000000000000                                                                   76487169                                                                                                                                                                                                                                                                                                                                                                                                                                               
07704130466030021DT67590675900000002881800888800000010180088877287283201900016700165072020230000002079820123000000000093382517805XXXXXX7988       MS02WI09          NY 1 0 AMPLJM02AB0720  N840000000020798          05DNHAPPY HIPPIE             06282B    MC84000000020798 N  549976487169                            000000000+M10101C5434C    MPL  00364                     000000000  N                0000000000000.00 0000000.00   0000000.00                             000000000000000                                                                                                                                                   B101418  000000000000 0000000000003.78     01800 00400                  
07704140466030001E167590675900000002881800888800000010100E0F8C8045F 00000000000.00404040404040404040404040404040404040404040404040400110A04001220000000000000000000000FF00000000000000000000000000  00010840390000000080002307202B51B41A903CADF978F4F3F2404040400840A0000000041010000000000000000000077E578D7A6E714200120000000000004040401E40404040 000000207.98 000000000.001E03000000000000000000    80                                                                                                                                                                                                                                                                                                                  
07704150466030002G2675906759000000028818008888000000101SEVIERVILLE              TN           5 L                                                        NNNN              000000000000000000000000                        7                                          76487169                                                                                                                                                                                                                                                                                                                                                                                                                                               
07704160466030022DT67590675900000002881800888800000010180088877287283201900016700173072020230000000344920123000000000093382528217XXXXXX8385       MS02WI09          NY 1 0 AMDJMMWZP30720  N840000000003449          07DNHAPPY HIPPIE             678706    MD84000000003449 N  549976487169                            000000000+M10101M0034C    MDJ  00402                     000000000  N                0000000000000.00 0000000.00   0000000.00                             000000000000000                                                                                                                                                   B101418  000000000000 0000000000000.51     01050 01500                  
07704170466030001E167590675900000002881800888800000010100000848000E 00000000000.00404040404040404040404040404040404040404040404040400110A04001220000000000000000000000FF00000000000000000000000000  00000840198000000080012307205085DA38D902DC222010D05E404040400840A0000000041010000000000000000000404040404040404040404040404040404040401F40404040 000000034.49 000000000.001F03020000000000000000    80                                                                                                                                                                                                                                                                                                                  
07704180466030002G2675906759000000028818008888000000101SEVIERVILLE              TN           5 J                                                        NNNN              000000000000000000000000       03               7                                          76487169                                                                                                                                                                                                                                                                                                                                                                                                                                               
07704190466030023BH6759067590000000288180088880000090170720202320123000000000058362    0000090001780014N8008886759C07212023178                                                                                                                                                                                                                                                                                                                                                                                                                                                                                                                                                                                              
07704200466030024DT67590675900000002881800888800000010180088824001193201900017800012072020230000000504620123000000000058362438482XXXXXX5414       VS11    0001111   NYV1 A E583201555276531N840000000005046W35700    07DNHAPPY HIPPIE             833172    VD84000000005046 N  549976487158                            000000000+                F DF 00381                     000000000  N000000000       0000000000000.00 0000000.00   0000000.00                             000000000000000                                                                                                                                                     01418 A000000000000 0000000000000.55     00800 01500                  
07704210466030001E167590675900000002881800888800000010100E068C800E8 00000000000.004040404040404040404040404040404040404040404040404006011203A00000000000000000000000404040404040404040404040404040  0000084020000000000000230720C3B4FE96223DA20ABB7E0CFF404040400840A000000003101000000000000000000088C38C300382000000000000000000004040404040404040 000000050.46 000000000.004040400000000000000000    80                                                                                                                                                                                                                                                                                                                  
07704220466030002G2675906759000000028818008888000000101SEVIERVILLE              TN           5 D                00                                      NNNN00 N 00                   000000000000                                                                   76487158                                                                                                                                                                                                                                                                                                                                                                                                                                               
07704230466030025DT67590675900000002881800888800000010180088824001193201900017800020072020230000000087620123000000000058362445101XXXXXX5945       VK04VS111111111   NYV1 A E463201563879931N840000000000876FRC200    05DNHAPPY HIPPIE             651956    VD84000000000876 N  549976487158                            000000000+                F DF 10439                     000000000  Y000000000 331   0000000000000.00 0000000.00   0000000.00                             000000000000000                                                                                                                                                     01418 F000000000000 0000000000000.22     00050 02200                  
07704240466030001E167590675900000002881800888800000010100E0F8C80513 00000000000.004040404040404040404040404040404040404040404040404006010A03A08000000000000000000000404040404040404040404040404040  00010840180080800080002307206E21EDCBD877F3C3FFBC0082404040400840A0000000031010000000000000000000D5FDFD84BD963C4530300000000000004040401E40404040 000000008.76 000000000.001E00000000000000000000    80                                                                                                                                                                                                                                                                                                                  
07704250466030002G2675906759000000028818008888000000101SEVIERVILLE              TN           5 D                00                                      NNNN00 N 00                   000000000000                                                                   76487158                                                                                                                                                                                                                                                                                                                                                                                                                                               
07704260466030026DT67590675900000002881800888800000010180088824001193201900017800038072020230000001437020123000000000058362443041XXXXXX9931       VS11    0001111   NYV1 A E303201567749472N8400000000143709H9400    05DNHAPPY HIPPIE             306443    VD84000000014370 N  549976487158                            000000000+                F DF 10433                     000000000  Y000000000 338   0000000000000.00 0000000.00   0000000.00                             000000000000000                                                                                                                                                     01418 A000000000000 0000000000000.29     00050 02200                  
07704270466030001E167590675900000002881800888800000010100E0F8C800B3 00000000000.004040404040404040404040404040404040404040404040404006011203A00000000000000000000000404040404040404040404040404040  00010840180080800080002307203850521B1CF37646FAE4CCB7404040400840A000000003101000000000000000000077EAEA040082000000000000000000004040401E40404040 000000143.70 000000000.001E00000000000000000000    80                                                                                                                                                                                                                                                                                                                  
07704280466030002G2675906759000000028818008888000000101SEVIERVILLE              TN           5 D                00                                      NNNN00 N 00                   000000000000                                                                   76487158                                                                                                                                                                                                                                                                                                                                                                                                                                               
07704290466030027DT67590675900000002881800888800000010180088824001193201900017800046072020230000000079320123000000000058362427061XXXXXX5958       VK04VS111111111   NYV1 A E463201584511746N840000000000793FZ7T00    05DNHAPPY HIPPIE             664132    VD84000000000793 N  549976487158                            000000000+                F DF 00451                     000000000  N000000000 214   0000000000000.00 0000000.00   0000000.00                             000000000000000                                                                                                                                                     01418 F000000000000 0000000000000.16     01550 00400                  
07704300466030001E167590675900000002881800888800000010100E0F8C800D0 00000000000.004040404040404040404040404040404040404040404040404006011203A02000000000000000000000404040404040404040404040404040  00000840180080800080002307200CF5C733A79FBDF35A4B1510404040400840A00000000310100000000000000000004E8115910382000000000000000000004040401E40404040 000000007.93 000000000.001E00000000000000000000    80                                                                                                                                                                                                                                                                                                                  
07704310466030002G2675906759000000028818008888000000101SEVIERVILLE              TN           5 D                00                                      NNNN00 N 00                   000000000000                                                                   76487158                                                                                                                                                                                                                                                                                                                                                                                                                                               
07704320466030028DT67590675900000002881800888800000010180088824001193201900017800053072020230000000295920123000000000058362435544XXXXXX6450       VS11    0001111   NYV1 A E303201591091124N8400000000029598B8P00    07DNHAPPY HIPPIE             119120    VD84000000002959 N  549976487158                            000000000+                F DF 10433                     000000000  Y000000000 338   0000000000000.00 0000000.00   0000000.00                             000000000000000                                                                                                                                                     01418 A000000000000 0000000000000.23     00050 02200                  
07704330466030001E167590675900000002881800888800000010100E068C80135 00000000000.004040404040404040404040404040404040404040404040404006011203A00000000000000000000000404040404040404040404040404040  00010840000000000000002307205C4D612D3394FBC99E2BF160404040400840A000000003101000000000000000000077352E090082000000000000000000004040404040404040 000000029.59 000000000.004040400000000000000000    80                                                                                                                                                                                                                                                                                                                  
07704340466030002G2675906759000000028818008888000000101SEVIERVILLE              TN           5 D                00                                      NNNN00 N 00                   000000000000                                                                   76487158                                                                                                                                                                                                                                                                                                                                                                                                                                               
07704350466030029DT67590675900000002881800888800000010180088877287283201900017800063072020230000000068520123000000000058362516423XXXXXX2871       MS02WI09          NY 1 0 AMDSE03SP30720  N840000000000685          05DNHAPPY HIPPIE             023956    MD84000000000685 N  549976487158                            000000000+M10101C5434C    MDS  10831                     000000000  1                0000000000000.00 0000000.00   0000000.00                             000000000000000                                                                                                                                                   B101418  000000000000 0000000000000.22     00050 02200                  
07704360466030001E167590675900000002881800888800000010100E0F8C80020 00000000000.00404040404040404040404040404040404040404040404040400110A00001220000000000000000000000FF00000000000000000000000000  000008401800800000800023072092BDEF696E9F0AB90DEF371D404040400840A0000000041010000000000000000000231D58BD040FAC3C031A0000000000004040401E40404040 000000006.85 000000000.001E03000000000000000000    80                                                                                                                                                                                                                                                                                                                  
07704370466030002G2675906759000000028818008888000000101SEVIERVILLE              TN           5 S                                                        NNNN              000000000000000000000000                                                                   76487158                                                                                                                                                                                                                                                                                                                                                                                                                                               
07704380466030030DT67590675900000002881800888800000010180088824001193201900017800079072020230000001009820123000000000058362427153XXXXXX6659       VS11    0001111   NYV1 A E583201637792137N840000000010098VGP200    05DNHAPPY HIPPIE             669145    VD84000000010098 N  549976487158                            000000000+                F DF 00381                     000000000  N000000000       0000000000000.00 0000000.00   0000000.00                             000000000000000                                                                                                                                                     01418 A000000000000 0000000000000.96     00800 01500                  
07704390466030001E167590675900000002881800888800000010100E0F8C801B8 00000000000.004040404040404040404040404040404040404040404040404006011203A0A000000000000000000000404040404040404040404040404040  0000084018008080008000230720750E299FC3280327EAE9DEAF404040400840A00000000310100000000000000000002BA749A40382000000000000000000004040401E40404040 000000100.98 000000000.001E00000000000000000000    80                                                                                                                                                                                                                                                                                                                  
07704400466030002G2675906759000000028818008888000000101SEVIERVILLE              TN           5 D                00                                      NNNN00 N 00                   000000000000                                                                   76487158                                                                                                                                                                                                                                                                                                                                                                                                                                               
07704410466030031DT67590675900000002881800888800000010180088877287283201900017800089072020230000000789920123000000000058362528710XXXXXX8140       MS02WI09          NY 1 0 AMDJJXJX040720  N840000000007899          05DNHAPPY HIPPIE             532109    MD84000000007899 N  549976487158                            000000000+M10101C5434C    MDJ  10815                     000000000  1                0000000000000.00 0000000.00   0000000.00                             000000000000000                                                                                                                                                   B101418  000000000000 0000000000000.26     00050 02200                  
07704420466030001E167590675900000002881800888800000010100E0F8C802ED 00000000000.00404040404040404040404040404040404040404040404040400110A00003220000000000000000000000FF00000000000000000000000000  000108401800800000800023072094391E0996174D6C15126013404040400840A0000000041010000000000000000000E16582D096C6BF1D00120000000000004040401E40404040 000000078.99 000000000.001E03000000000000000000    80                                                                                                                                                                                                                                                                                                                  
07704430466030002G2675906759000000028818008888000000101SEVIERVILLE              TN           5 J                                                        NNNN              000000000000000000000000                        7                                          76487158                                                                                                                                                                                                                                                                                                                                                                                                                                               
07704440466030032DT67590675900000002881800888800000010180088877287283201900017800097072020230000000668920123000000000058362528710XXXXXX9728       MS02WI09          NY 1 0 AMDJF2JGP30720  N840000000006689          07DNHAPPY HIPPIE             532689    MD84000000006689 N  549976487158                            000000000+M10101M5434C    MDJ  10815                     000000000  1                0000000000000.00 0000000.00   0000000.00                             000000000000000                                                                                                                                                   B101418  000000000000 0000000000000.25     00050 02200                  
07704450466030001E1675906759000000028818008888000000101000060C80083 00000000000.00404040404040404040404040404040404040404040404040400110A04001220000000000000000000000FF00000000000000000000000000  00000840198000000080012307201940F3DB326161D07E9B4601404040400840A0000000041010000000000000000000404040404040404040404040404040404040401E40404040 000000066.89 000000000.001E03000000000000000000    80                                                                                                                                                                                                                                                                                                                  
07704460466030002G2675906759000000028818008888000000101SEVIERVILLE              TN           5 J                                                        NNNN              000000000000000000000000       03               7                                          76487158                                                                                                                                                                                                                                                                                                                                                                                                                                               
07704470466030033DT67590675900000002881800888800000010180088824001193201900017800103072020230000000197120123000000000058362464018XXXXXX4009       VS11    0001111   NYV1 A E583201745911140N840000000001971SDJX00    07DNHAPPY HIPPIE             09358D    VS84000000001971 N  549976487158                            000000000+                D CD 12113                     000000000  N000000000 499   0000000000000.00 0000000.00   0000000.00                             000000000000000                                                                                                                                                     01418 A000000000000 0000000000000.51     02100 01000                  
07704480466030001E167590675900000002881800888800000010100E068C8001A 00000000000.004040404040404040404040404040404040404040404040404006021203A00000000000000000000000404040404040404040404040404040  000408402000000000000023072008EF3F0DF6ECEF288F0D3373404040400840A0000000031010000000000000000000B9AADD190082000000000000000000004040404040404040 000000019.71 000000000.004040400000000000000000    80                                                                                                                                                                                                                                                                                                                  
07704490466030002G2675906759000000028818008888000000101SEVIERVILLE              TN           5 C                00                                      NNNN00 Y 00                   000000000000                                                                   76487158                                                                                                                                                                                                                                                                                                                                                                                                                                               
07704500466030034DT67590675900000002881800888800000010180088824001193201900017800111072020230000000276620123000000000058362415746XXXXXX9094       VS11    0001111   NYV1 A E583201749284637N840000000002766VV4D00    05DNHAPPY HIPPIE             051240    VD84000000002766 N  549976487158                            000000000+                F DF 00381                     000000000  N000000000       0000000000000.00 0000000.00   0000000.00                             000000000000000                                                                                                                                                     01418 A000000000000 0000000000000.37     00800 01500                  
07704510466030001E167590675900000002881800888800000010100E0F8C80086 00000000000.004040404040404040404040404040404040404040404040404006011203A02000000000000000000000404040404040404040404040404040  000408401800808000800023072053861BBED48936F4AF74B4CD404040400840A0000000031010000000000000000000498E490F0082000000000000000000004040401E40404040 000000027.66 000000000.001E00000000000000000000    80                                                                                                                                                                                                                                                                                                                  
07704520466030002G2675906759000000028818008888000000101SEVIERVILLE              TN           5 D                00                                      NNNN00 N 00                   000000000000                                                                   76487158                                                                                                                                                                                                                                                                                                                                                                                                                                               
07704530466030035DT67590675900000002881800888800000010180088824001193201900017800129072020230000000213420123000000000058362432739XXXXXX6562       VS11    0001111   NYV1 A E463201778919828N8400000000021342KPG00    07DNHAPPY HIPPIE             860951    VD84000000002134 N  549976487158                            000000000+                F DF 10433                     000000000  Y000000000 338   0000000000000.00 0000000.00   0000000.00                             000000000000000                                                                                                                                                     01418 A000000000000 0000000000000.23     00050 02200                  
07704540466030001E167590675900000002881800888800000010100E068C8010C 00000000000.004040404040404040404040404040404040404040404040404006011203A00000000000000000000000404040404040404040404040404040  00000840000000000000002307205712D889CAAD7038544D38D4404040400840A00000000310100000000000000000002CB6D0C147AE4E6B30300000000000004040404040404040 000000021.34 000000000.004040400000000000000000    80                                                                                                                                                                                                                                                                                                                  
07704550466030002G2675906759000000028818008888000000101SEVIERVILLE              TN           5 D                00                                      NNNN00 N 00                   000000000000                                                                   76487158                                                                                                                                                                                                                                                                                                                                                                                                                                               
07704560466030036DT67590675900000002881800888800000010180088824001193201900017800137072020230000000174820123000000000058362432739XXXXXX1493       VS11    0001111   NYV1 A E383201779757332N8400000000017482Z9G00    07DNHAPPY HIPPIE             866468    VD84000000001748 N  549976487158                            000000000+                F DF 10433                     000000000  Y000000000 338   0000000000000.00 0000000.00   0000000.00                             000000000000000                                                                                                                                                     01418 A000000000000 0000000000000.23     00050 02200                  
07704570466030001E167590675900000002881800888800000010100E068C8030B 00000000000.004040404040404040404040404040404040404040404040404006011203A00000000000000000000000404040404040404040404040404040  0000084000000000000000230720293457163D8441B2335C8458404040400840A0000000031010000000000000000000D41481E5F925C63A30300000000000004040404040404040 000000017.48 000000000.004040400000000000000000    80                                                                                                                                                                                                                                                                                                                  
07704580466030002G2675906759000000028818008888000000101SEVIERVILLE              TN           5 D                00                                      NNNN00 N 00                   000000000000                                                                   76487158                                                                                                                                                                                                                                                                                                                                                                                                                                               
07704590466030037DT67590675900000002881800888800000010180088824001193201900017800145072020230000000032820123000000000058362414709XXXXXX6681       VK04VS111111111   NYV1 A E303201795026151N840000000000328VSDK00    05DNHAPPY HIPPIE             05083D    VS84000000000328 N  549976487158                            000000000+                D CD 12057                     000000000  N000000000 452   0000000000000.00 0000000.00   0000000.00                             000000000000000                                                                                                                                                     01418 F000000000000 0000000000000.07     02200 00000                  
07704600466030001E167590675900000002881800888800000010100E0F8C80017 00000000000.004040404040404040404040404040404040404040404040404006011203A0A002000000000000000000404040404040404040404040404040  00030840380000800080002307209F28254AD09322DA2D312FCF404040400840A0000000031010000000000000000000E050BF830082000000000000000000004040401E40404040 000000003.28 000000000.001E00000000000000000000    80                                                                                                                                                                                                                                                                                                                  
07704610466030002G2675906759000000028818008888000000101SEVIERVILLE              TN           5 C                00                                      NNNN00 Y 00                   000000000000                                                                   76487158                                                                                                                                                                                                                                                                                                                                                                                                                                               
07704620466030038BH6759067590000000288180088880000090170720202320123000000000173350    0000090001660026N8008886759C07212023166                                                                                                                                                                                                                                                                                                                                                                                                                                                                                                                                                                                              
07704630466030039DT67590675900000002881800888800000010180088824001193201900016600017072020230000000312420123000000000173350440393XXXXXX9718       VS11    0001111   NYV1 A E583201509003108N840000000003124DWCM00    05DNHAPPY HIPPIE             017989    VD84000000003124 N  549976487134                            000000000+                F PF 08170                     000000000  N000000000       0000000000000.00 0000000.00   0000000.00                             000000000000000                                                                                                                                                     01418 A000000000000 0000000000000.51     01150 01500                  
07704640466030001E167590675900000002881800888800000010100E0F8C8005F 00000000000.004040404040404040404040404040404040404040404040404006011203A08000000000000000000000404040404040404040404040404040  0000084018008080008000230720EB73367CD52018C03F298135404040400840A0000000031010000000000000000000D0B8228A8F65362230300000000000004040401E40404040 000000031.24 000000000.001E00000000000000000000    80                                                                                                                                                                                                                                                                                                                  
07704650466030002G2675906759000000028818008888000000101SEVIERVILLE              TN           5 P                00                                      NNNN00 N 00                   000000000000                                                                   76487134                                                                                                                                                                                                                                                                                                                                                                                                                                               
07704660466030040DT67590675900000002881800888800000010180088824001193201900016600025072020230000001597520123000000000173350419090XXXXXX0953       VS11    0001111   NYV1 A E463201511515535N840000000015975XQ4800    05DNHAPPY HIPPIE             044477    VD84000000015975 N  549976487134                            000000000+                F DF 00381                     000000000  N000000000       0000000000000.00 0000000.00   0000000.00                             000000000000000                                                                                                                                                     01418 A000000000000 0000000000001.43     00800 01500                  
07704670466030001E167590675900000002881800888800000010100E0F8C80013 00000000000.004040404040404040404040404040404040404040404040404006011203A0A000000000000000000000404040404040404040404040404040  000108401800808000800023072038158838BBF62ECB8AA61ABD404040400840A0000000031010000000000000000000A5A3A8D00082000000000000000000004040401E40404040 000000159.75 000000000.001E00000000000000000000    80                                                                                                                                                                                                                                                                                                                  
07704680466030002G2675906759000000028818008888000000101SEVIERVILLE              TN           5 D                00                                      NNNN00 N 00                   000000000000                                                                   76487134                                                                                                                                                                                                                                                                                                                                                                                                                                               
07704690466030041DT67590675900000002881800888800000010180088824001193201900016600033072020230000000312520123000000000173350443264XXXXXX4906       VS11    0001111   NYV1 A E583201540196148N840000000003125DVRG00    05DNHAPPY HIPPIE             031640    VD84000000003125 N  549976487134                            000000000+                F DF 10433                     000000000  Y000000000 338   0000000000000.00 0000000.00   0000000.00                             000000000000000                                                                                                                                                     01418 A000000000000 0000000000000.24     00050 02200                  
07704700466030001E167590675900000002881800888800000010100E0F8C80229 00000000000.004040404040404040404040404040404040404040404040404006011203A08000000000000000000000404040404040404040404040404040  0000084018008080008000230720ABCE10A2EC02C86278B74DE0404040400840A00000000310100000000000000000001D5D6BA00080000000000000000000004040401E40404040 000000031.25 000000000.001E00000000000000000000    80                                                                                                                                                                                                                                                                                                                  
07704710466030002G2675906759000000028818008888000000101SEVIERVILLE              TN           5 D                00                                      NNNN00 N 00                   000000000000                                                                   76487134                                                                                                                                                                                                                                                                                                                                                                                                                                               
07704720466030042DT67590675900000002881800888800000010180088824001193201900016600041072020230000000103920123000000000173350460738XXXXXX2561       VK04VS111111111   NYV1 A E303201541778559N8400000000010395XSN00    07DNHAPPY HIPPIE             007939    VD84000000001039 N  549976487134                            000000000+                F DF 00451                     000000000  N000000000 214   0000000000000.00 0000000.00   0000000.00                             000000000000000                                                                                                                                                     01418 F000000000000 0000000000000.20     01550 00400                  
07704730466030001E167590675900000002881800888800000010100E068C8010E 00000000000.00404040404040404040404040404040404040404040404040401F42FF32A00000000010030273000000004000000000000000000000000000  00000840006000000000002307203972D4A50D5775A44D5CD0C6404040400840A0000000031010000000000000000000B28457590086000000000000000000004040404040404040 000000010.39 000000000.004040400000000000000000    80                                                                                                                                                                                                                                                                                                                  
07704740466030002G2675906759000000028818008888000000101SEVIERVILLE              TN           5 D                00                                      NNNN00 N 00                   000000000000                                                                   76487134                                                                                                                                                                                                                                                                                                                                                                                                                                               
07704750466030043DT67590675900000002881800888800000010180088824001193201900016600058072020230000000493820123000000000173350415978XXXXXX8693       VS11    0001111   NYV1 A E383201546519456N840000000004938XZ6N00    05DNHAPPY HIPPIE             078675    VD84000000004938 N  549976487134                            000000000+                F DF 10433                     000000000  Y000000000 338   0000000000000.00 0000000.00   0000000.00                             000000000000000                                                                                                                                                     01418 A000000000000 0000000000000.24     00050 02200                  
07704760466030001E167590675900000002881800888800000010100E0F8C801B9 00000000000.004040404040404040404040404040404040404040404040404006011203A0A000000000000000000000404040404040404040404040404040  000008401800808000800023072061A6C4633F290DB57392FAF3404040400840A0000000031010000000000000000000A5CED906122B965D30300000000000004040401E40404040 000000049.38 000000000.001E00000000000000000000    80                                                                                                                                                                                                                                                                                                                  
07704770466030002G2675906759000000028818008888000000101SEVIERVILLE              TN           5 D                00                                      NNNN00 N 00                   000000000000                                                                   76487134                                                                                                                                                                                                                                                                                                                                                                                                                                               
07704780466030044DT67590675900000002881800888800000010180088824001193201900016600066072020230000001303520123000000000173350403784XXXXXX4700       VS11    0001111   NYV1 A E383201566132437N8400000000130353WGL00    05DNHAPPY HIPPIE             010234    VS84000000013035 N  549976487134                            000000000+                C CC 12112                     000000000  N000000000 497   0000000000000.00 0000000.00   0000000.00                             000000000000000                                                                                                                                                     01418 A000000000000 0000000000002.25     01650 01000                  
07704790466030001E167590675900000002881800888800000010100E0F8C8000C 00000000000.004040404040404040404040404040404040404040404040404006011203A0A000000000000000000000404040404040404040404040404040  0001084018008080008000230720E14BAB4C1987C6C486419965404040400840A00000000310100000000000000000007613A8081632F4B730300000000000004040401E40404040 000000130.35 000000000.001E00000000000000000000    80                                                                                                                                                                                                                                                                                                                  
07704800466030002G2675906759000000028818008888000000101SEVIERVILLE              TN           5 C                00                                      NNNN00 Y 00                   000000000000                                                                   76487134                                                                                                                                                                                                                                                                                                                                                                                                                                               
