03635590398371694AD675906759000000142748001028000009071900010504690000002424103162023NYY07523ND6759800102031920232023075016469                                                                                                                                                                                                                                                                                                                                                                                                                                                                                                                                                                                              
03635600398371697AD675906759000000151648008888000009071900010902220000000519003162023NYY07523ND6759800888031920232023075016470                                                                                                                                                                                                                                                                                                                                                                                                                                                                                                                                                                                              
03635610398371700AD675906759000000151648008888000009071900010902200000000542803162023NYY07523ND6759800888031920232023075016471                                                                                                                                                                                                                                                                                                                                                                                                                                                                                                                                                                                              
03635620398371703AD675906759000000151648008888000009071900010902210000000654803162023NYY07523ND6759800888031920232023075016472                                                                                                                                                                                                                                                                                                                                                                                                                                                                                                                                                                                              
03635630398371706AD675906759000000142748001028000009071900012217440000002261203162023NYY07523ND6759800102031920232023075016473                                                                                                                                                                                                                                                                                                                                                                                                                                                                                                                                                                                              
03635640400890002BH6759067590000000708880010180000090170317202307623000000000000001    0000090001010001N8001016759C03192023                                                                                                                                                                                                                                                                                                                                                                                                                                                                                                                                                                                                 
03635650400890003DT67590675900000007088800101800000010180010177287283076900010100018031720230000000000107623000000000000001514377XXXXXX7410       MS02WI09          NY 1 0 AMDJG4AKQV0317  N840000000000001          05DNPLANET VAPOR INC #200    1O4Z1G    MD84000000000001 N  599977384620                            000000000+M10101C5434C    MDJ  00402                     000000000  N                0000000000000.00 0000000.00   0000000.00                             000000000000000                                                                                                                                                   B101418  000000000000 0000000000000.15     01050 01500                  
03635660400890004BH6759067590000000288180088880000090170317202307623000000000071850    0000090001710013N8008886759C03192023                                                                                                                                                                                                                                                                                                                                                                                                                                                                                                                                                                                                 
03635670400890005DT67590675900000002881800888800000010180088824001193076900017100019031720230000000658507623000000000071850445100XXXXXX5955       VS11    0001111   NYV1 A E463076534372195N840000000006585C4V200    05DNHAPPY HIPPIE             190337    VD84000000006585 N  549976487134                            000000000+                F DF 10433                     000000000  Y000000000 338   0000000000000.00 0000000.00   0000000.00                             000000000000000                                                                                                                                                     01418 A000000000000 0000000000000.25     00050 02200                  
03635680400890006DT67590675900000002881800888800000010180088877287283076900017100029031720230000000592407623000000000071850511953XXXXXX9825       MS02WI09          NY 1 0 AMDJII16QV0317  N840000000005924          05DNHAPPY HIPPIE             063882    MD84000000005924 N  549976487134                            000000000+M10101C5434C    MDJ  00402                     000000000  N                0000000000000.00 0000000.00   0000000.00                             000000000000000                                                                                                                                                   B101418  000000000000 0000000000000.77     01050 01500                  
03635690400890007DT67590675900000002881800888800000010180088824001193076900017100035031720230000000296207623000000000071850445101XXXXXX9988       VS11    0001111   NYV1 A E383076547939419N840000000002962VQDX00    05DNHAPPY HIPPIE             202023    VD84000000002962 N  549976487134                            000000000+                F DF 10433                     000000000  Y000000000 338   0000000000000.00 0000000.00   0000000.00                             000000000000000                                                                                                                                                     01418 A000000000000 0000000000000.23     00050 02200                  
03635700400890008DT67590675900000002881800888800000010180088824001193076900017100043031720230000000438907623000000000071850429240XXXXXX4397       VS11    0001111   NYV1 A E383076551485673N840000000004389KKW800    05DNHAPPY HIPPIE             036023    VD84000000004389 N  549976487134                            000000000+                G DG 08704                     000000000  N000000000       0000000000000.00 0000000.00   0000000.00                             000000000000000                                                                                                                                                     01418 A000000000000 0000000000000.85     01700 01000                  
03635710400890009DT67590675900000002881800888800000010180088824001193076900017100050031720230000000504707623000000000071850431196XXXXXX2495       VS11    0001111   NYV1 A E383076558168937N8400000000050474MKC00    05DNHAPPY HIPPIE             017729    VS84000000005047 N  549976487134                            000000000+                B CB 12111                     000000000  N000000000 495   0000000000000.00 0000000.00   0000000.00                             000000000000000                                                                                                                                                     01418 A000000000000 0000000000000.93     01650 01000                  
03635720400890010DT67590675900000002881800888800000010180088824001193076900017100068031720230000000789907623000000000071850426752XXXXXX5275       VS11    0001111   NYV1 A E463076575700999N840000000007899DH8200    90DNHAPPY HIPPIE             540558    VD84000000007899 N  549976487134                            000000000+                F PF 08170                     000000000  N000000000       0000000000000.00 0000000.00   0000000.00                             000000000000000                                                                                                                                                     01418 A000000000000 0000000000001.06     01150 01500                  
03635730400890011DT67590675900000002881800888800000010180088824001193076900017100076031720230000000296207623000000000071850415978XXXXXX3505       VS11    0001111   NYV1 A E383076604808792N840000000002962LQNW00    05DNHAPPY HIPPIE             041870    VD84000000002962 N  549976487134                            000000000+                F DF 10433                     000000000  Y000000000 338   0000000000000.00 0000000.00   0000000.00                             000000000000000                                                                                                                                                     01418 A000000000000 0000000000000.23     00050 02200                  
03635740400890012DT67590675900000002881800888800000010180088824001193076900017100084031720230000000790107623000000000071850404227XXXXXX9278       VS11    0001111   NYV1 A E463076623560738N840000000007901M4N700    05DNHAPPY HIPPIE             906184    VD84000000007901 N  549976487134                            000000000+                F DF 00381                     000000000  N000000000       0000000000000.00 0000000.00   0000000.00                             000000000000000                                                                                                                                                     01418 A000000000000 0000000000000.78     00800 01500                  
03635750400890013DT67590675900000002881800888800000010180088824001193076900017100092031720230000000439007623000000000071850443264XXXXXX8753       VS11    0001111   NYV1 A E383076635135347N840000000004390LK5Q00    05DNHAPPY HIPPIE             018071    VD84000000004390 N  549976487134                            000000000+                F DF 10433                     000000000  Y000000000 338   0000000000000.00 0000000.00   0000000.00                             000000000000000                                                                                                                                                     01418 A000000000000 0000000000000.24     00050 02200                  
03635760400890014DT67590675900000002881800888800000010180088824001193076900017100100031720230000000355607623000000000071850480639XXXXXX6310       VS11    0001111   NYV1 A E583076656068749N840000000003556ND2G00    05DNHAPPY HIPPIE             912380    VD84000000003556 N  549976487134                            000000000+                F DF 00381                     000000000  N000000000       0000000000000.00 0000000.00   0000000.00                             000000000000000                                                                                                                                                     01418 A000000000000 0000000000000.43     00800 01500                  
03635770400890015DT67590675900000002881800888800000010180088877287283076900017100110031720230000000344407623000000000071850511953XXXXXX3911       MS02WI09          NY 1 0 AMDJXFI1TW0317  N840000000003444          05DNHAPPY HIPPIE             071392    MD84000000003444 N  549976487134                            000000000+M10101C5434C    MDJ  00402                     000000000  N                0000000000000.00 0000000.00   0000000.00                             000000000000000                                                                                                                                                   B101418  000000000000 0000000000000.51     01050 01500                  
03635780400890016DT67590675900000002881800888800000010180088876509753076900017100124031720230000001349807623000000000071850601100XXXXXX3266   BA50                  NY41 0 N873065360249088N840000000013498    00    05DNHAPPY HIPPIE             01750R    DS84000000013498 N  549976487134050                         000000000+0000004910H00   DCCDI01000666943  123343000000 000000000  0          112   0000000000000.00 0000000.00   0000000.00                             000000000000000                                                                                                                                                     01418  000000000000 0000000000002.42     01720 01000                  
03635790400890017DT67590675900000002881800888800000010180088824001193076900017100134031720230000000329307623000000000071850480639XXXXXX0747       VS11    0001111   NYV1 A E303076768152199N8400000000032933G6Z00    05DNHAPPY HIPPIE             918246    VD84000000003293 N  549976487134                            000000000+                F DF 00381                     000000000  N000000000       0000000000000.00 0000000.00   0000000.00                             000000000000000                                                                                                                                                     01418 A000000000000 0000000000000.41     00800 01500                  
03635800400890018BH6759067590000000288180088880000090170317202307623000000000180929    0000090001730031N8008886759C03192023                                                                                                                                                                                                                                                                                                                                                                                                                                                                                                                                                                                                 
03635810400890019DT67590675900000002881800888800000010180088877287283076900017300017031720230000000081207623000000000180929511953XXXXXX0600       MS02WI09          NY 1 0 AMDJXIJKFR0317  N840000000000812          07DNHAPPY HIPPIE             030583    MD84000000000812 N  549976487158                            000000000+M10101M0034C    MDJ  00505                     000000000  N                0000000000000.00 0000000.00   0000000.00                             000000000000000                                                                                                                                                   B101418  000000000000 0000000000000.17     01550 00400                  
03635820400890020DT67590675900000002881800888800000010180088876509753076900017300021031720230000000106207623000000000180929653949XXXXXX8371   BA80                  NY41 0 N753065175327297N840000000001062    00    07DNHAPPY HIPPIE             01713R    DS84000000001062 N  549976487158830                         000000000+0000004910H00   DCCDI00996834880  072532000000 000000000  0          108   0000000000000.00 0000000.00   0000000.00                             000000000000000                                                                                                                                                     01418  000000000000 0000000000000.21     01950 00000                  
03635830400890021DT67590675900000002881800888800000010180088824001193076900017300031031720230000000691307623000000000180929419090XXXXXX6124       VS11    0001111   NYV1 A E383076519876255N840000000006913PQWR00    05DNHAPPY HIPPIE             465341    VD84000000006913 N  549976487158                            000000000+                F DF 00381                     000000000  N000000000       0000000000000.00 0000000.00   0000000.00                             000000000000000                                                                                                                                                     01418 A000000000000 0000000000000.70     00800 01500                  
03635840400890022DT67590675900000002881800888800000010180088873011003076900017300045031720230000000719707623000000000180929372278XXXXX1005                          NY 1 0 N004757143298306N840000000007197          05DNHAPPY HIPPIE             862127    AM84000000007197 N  549976487158                            000000000+51010155434C 258     11261                     000000000                   0000000000000.00 0000000.00   0000000.00                             000000000000000 61248972086759675900000002881 HAPPY HIPPIE             832 PARKWAY              8656540830      37862     HAPPYHIPPIE832@GMAIL.COM                  01418  000000000000 0000000000001.25     01600 00000                  
03635850400890023DT67590675900000002881800888800000010180088824001193076900017300056031720230000000325707623000000000180929419090XXXXXX8102       VS11    0001111   NYV1 A E463076547283764N840000000003257ZH2800    05DNHAPPY HIPPIE             466858    VD84000000003257 N  549976487158                            000000000+                F DF 00381                     000000000  N000000000       0000000000000.00 0000000.00   0000000.00                             000000000000000                                                                                                                                                     01418 A000000000000 0000000000000.41     00800 01500                  
03635860400890024DT67590675900000002881800888800000010180088824001193076900017300064031720230000000548607623000000000180929426684XXXXXX4244       VS11    0001111   NYV1 A E463076556610034N840000000005486HH8G00    07DNHAPPY HIPPIE             02263B    VS84000000005486 N  549976487158                            000000000+                B CB 12111                     000000000  N000000000 495   0000000000000.00 0000000.00   0000000.00                             000000000000000                                                                                                                                                     01418 A000000000000 0000000000001.01     01650 01000                  
03635870400890025DT67590675900000002881800888800000010180088824001193076900017300072031720230000000632107623000000000180929419090XXXXXX5725       VS11    0001111   NYV1 A E583076565569932N840000000006321H5D600    05DNHAPPY HIPPIE             467880    VD84000000006321 N  549976487158                            000000000+                F DF 00381                     000000000  N000000000       0000000000000.00 0000000.00   0000000.00                             000000000000000                                                                                                                                                     01418 A000000000000 0000000000000.66     00800 01500                  
03635880400890026DT67590675900000002881800888800000010180088824001193076900017300080031720230000000655007623000000000180929415978XXXXXX6979       VS11    0001111   NYV1 A E583076569826761N8400000000065506R8S00    07DNHAPPY HIPPIE             041531    VD84000000006550 N  549976487158                            000000000+                F DF 10433                     000000000  Y000000000 338   0000000000000.00 0000000.00   0000000.00                             000000000000000                                                                                                                                                     01418 A000000000000 0000000000000.25     00050 02200                  
03635890400890027DT67590675900000002881800888800000010180088824001193076900017300098031720230000000658507623000000000180929443238XXXXXX1385       VS11    0001111   NYV1 A E383076573116190N840000000006585RTL400    07DNHAPPY HIPPIE             015511    VD84000000006585 N  549976487158                            000000000+                F DF 00381                     000000000  N000000000       0000000000000.00 0000000.00   0000000.00                             000000000000000                                                                                                                                                     01418 A000000000000 0000000000000.68     00800 01500                  
03635900400890028DT67590675900000002881800888800000010180088824001193076900017300106031720230000000329307623000000000180929443238XXXXXX6040       VS11    0001111   NYV1 A E583076575312241N840000000003293ZRMJ00    07DNHAPPY HIPPIE             015851    VD84000000003293 N  549976487158                            000000000+                F DF 00381                     000000000  N000000000       0000000000000.00 0000000.00   0000000.00                             000000000000000                                                                                                                                                     01418 A000000000000 0000000000000.41     00800 01500                  
03635910400890029DT67590675900000002881800888800000010180088824001193076900017300114031720230000000394907623000000000180929409758XXXXXX1058       VS11    0001111   NYV1 A E463076594178933N8400000000039493RZV00    90DNHAPPY HIPPIE             081269    VD84000000003949 N  549976487158                            000000000+                F PF 08170                     000000000  N000000000       0000000000000.00 0000000.00   0000000.00                             000000000000000                                                                                                                                                     01418 A000000000000 0000000000000.60     01150 01500                  
03635920400890030DT67590675900000002881800888800000010180088877287283076900017300124031720230000000713307623000000000180929510805XXXXXX9155       MS02WI09          NY 2 0 AMDJFTRFF20317  N840000000007133          07DNHAPPY HIPPIE             013512    MD84000000007133 N  549976487158                            000000000+M10101M1334C    MDJ  10815                     000000000  1                0000000000000.00 0000000.00   0000000.00                             000000000000000                                                                                                                                                   B101418  000000000000 0000000000000.26     00050 02200                  
03635930400890031DT67590675900000002881800888800000010180088824001193076900017300130031720230000000316107623000000000180929415978XXXXXX9354       VS11    0001111   NYV1 A E463076598981541N840000000003161SQ9G00    07DNHAPPY HIPPIE             016584    VD84000000003161 N  549976487158                            000000000+                F DF 10433                     000000000  Y000000000 338   0000000000000.00 0000000.00   0000000.00                             000000000000000                                                                                                                                                     01418 A000000000000 0000000000000.24     00050 02200                  
03635940400890032DT67590675900000002881800888800000010180088824001193076900017300148031720230000000158007623000000000180929415978XXXXXX3096       VS11    0001111   NYV1 A E303076625017141N840000000001580KP3R00    05DNHAPPY HIPPIE             062562    VD84000000001580 N  549976487158                            000000000+                F DF 10433                     000000000  Y000000000 338   0000000000000.00 0000000.00   0000000.00                             000000000000000                                                                                                                                                     01418 A000000000000 0000000000000.23     00050 02200                  
03635950400890033DT67590675900000002881800888800000010180088824001193076900017300155031720230000000395007623000000000180929442724XXXXXX4416       VS11    0001111   NYV1 A E583076631154345N84000000000395057HH00    07DNHAPPY HIPPIE             199386    VD84000000003950 N  549976487158                            000000000+                F DF 00381                     000000000  N000000000       0000000000000.00 0000000.00   0000000.00                             000000000000000                                                                                                                                                     01418 A000000000000 0000000000000.47     00800 01500                  
03635960400890034DT67590675900000002881800888800000010180088824001193076900017300163031720230000000296207623000000000180929419090XXXXXX6750       VS11    0001111   NYV1 A E583076636122685N840000000002962676R00    05DNHAPPY HIPPIE             472381    VD84000000002962 N  549976487158                            000000000+                F DF 00381                     000000000  N000000000       0000000000000.00 0000000.00   0000000.00                             000000000000000                                                                                                                                                     01418 A000000000000 0000000000000.39     00800 01500                  
03635970400890035DT67590675900000002881800888800000010180088824001193076900017300171031720230000000167807623000000000180929445101XXXXXX2841               1001111   NYV1 A K583076671424939N840000000001678HTJG00    01DNHAPPY HIPPIE             341717    VD84000000001678 N  549976487158                            000000000+                F DF 10436                     000000000  Y000000000 338   0000000000000.00 0000000.00   0000000.00                             000000000000000                                                                                                                                                     01418 E000000000000 0000000000000.23     00050 02200                  
03635980400890036DT67590675900000002881800888800000010180088824001193076900017300189031720230000000910407623000000000180929402464XXXXXX6631       VS11    0001111   NYV1 A E583076678429637N840000000009104KM8Q00    05DNHAPPY HIPPIE             001882    VD84000000009104 N  549976487158                            000000000+                F DF 10433                     000000000  Y000000000 338   0000000000000.00 0000000.00   0000000.00                             000000000000000                                                                                                                                                     01418 A000000000000 0000000000000.27     00050 02200                  
03635990400890037DT67590675900000002881800888800000010180088824001193076900017300197031720230000001312407623000000000180929419090XXXXXX7560       VS11    0001111   NYV1 A E463076680635300N840000000013124D2CG00    05DNHAPPY HIPPIE             475243    VD84000000013124 N  549976487158                            000000000+                F DF 00381                     000000000  N000000000       0000000000000.00 0000000.00   0000000.00                             000000000000000                                                                                                                                                     01418 A000000000000 0000000000001.20     00800 01500                  
03636000400890038DT67590675900000002881800888800000010180088824001193076900017300205031720230000000078807623000000000180929480639XXXXXX5703       VK04VS111111111   NYV1 A E583076692266296N840000000000788JP2V00    05DNHAPPY HIPPIE             914371    VD84000000000788 N  549976487158                            000000000+                F DF 00451                     000000000  N000000000 214   0000000000000.00 0000000.00   0000000.00                             000000000000000                                                                                                                                                     01418 F000000000000 0000000000000.16     01550 00400                  
03636010400890039DT67590675900000002881800888800000010180088824001193076900017300213031720230000000237107623000000000180929434256XXXXXX4878       VS11    0001111   NYV1 A E463076707910818N8400000000023719QS800    05DNHAPPY HIPPIE             047666    VD84000000002371 N  549976487158                            000000000+                F DF 10433                     000000000  Y000000000 338   0000000000000.00 0000000.00   0000000.00                             000000000000000                                                                                                                                                     01418 A000000000000 0000000000000.23     00050 02200                  
03636020400890040DT67590675900000002881800888800000010180088824001193076900017300221031720230000001233407623000000000180929422921XXXXXX2826       VS11    0001111   NYV1 A E303076710669402N840000000012334W5PV00    05DNHAPPY HIPPIE             056668    VD84000000012334 N  549976487158                            000000000+                F DF 00381                     000000000  N000000000       0000000000000.00 0000000.00   0000000.00                             000000000000000                                                                                                                                                     01418 A000000000000 0000000000001.14     00800 01500                  
03636030400890041DT67590675900000002881800888800000010180088824001193076900017300239031720230000000395007623000000000180929410039XXXXXX8930       VS11    0001111   NYV1 A E583076718978686N840000000003950S7TM00    07DNHAPPY HIPPIE             63777C    VS84000000003950 N  549976487158                            000000000+                C CC 12112                     000000000  N000000000 497   0000000000000.00 0000000.00   0000000.00                             000000000000000                                                                                                                                                     01418 A000000000000 0000000000000.75     01650 01000                  
03636040400890042DT67590675900000002881800888800000010180088877287283076900017300249031720230000000395007623000000000180929511953XXXXXX3165       MS02WI09          NY 1 0 AMDJEC7GT50317  N840000000003950          05DNHAPPY HIPPIE             079706    MD84000000003950 N  549976487158                            000000000+M10101C5434C    MDJ  00402                     000000000  N                0000000000000.00 0000000.00   0000000.00                             000000000000000                                                                                                                                                   B101418  000000000000 0000000000000.56     01050 01500                  
03636050400890043DT67590675900000002881800888800000010180088877287283076900017300256031720230000000325807623000000000180929530706XXXXXX8493       MS02WI09          NY 2 0 AMPAE279T50317  N840000000003258          05DNHAPPY HIPPIE             912290    MD84000000003258 N  549976487158                            000000000+M10101C1334C    MPA  11964                     000000000  N                0000000000000.00 0000000.00   0000000.00                             000000000000000                                                                                                                                                     01418  000000000000 0000000000000.52     01150 01500                  
03636060400890044DT67590675900000002881800888800000010180088824001193076900017300262031720230000000079007623000000000180929422921XXXXXX6466       VK04VS111111111   NYV1 A E303076736473239N8400000000007905ZLH00    07DNHAPPY HIPPIE             059248    VD84000000000790 N  549976487158                            000000000+                F DF 00451                     000000000  N000000000 214   0000000000000.00 0000000.00   0000000.00                             000000000000000                                                                                                                                                     01418 F000000000000 0000000000000.16     01550 00400                  
03636070400890045DT67590675900000002881800888800000010180088824001193076900017300270031720230000000790007623000000000180929419090XXXXXX9446       VS11    0001111   NYV1 A E583076738833846N840000000007900L32R00    05DNHAPPY HIPPIE             478813    VD84000000007900 N  549976487158                            000000000+                F DF 00381                     000000000  N000000000       0000000000000.00 0000000.00   0000000.00                             000000000000000                                                                                                                                                     01418 A000000000000 0000000000000.78     00800 01500                  
03636080400890046DT67590675900000002881800888800000010180088877287283076900017300280031720230000000395107623000000000180929511953XXXXXX9431       MS02WI09          NY 1 0 AMDJEEG8IT0317  N840000000003951          05DNHAPPY HIPPIE             090914    MD84000000003951 N  549976487158                            000000000+M10101C5434C    MDJ  00402                     000000000  N                0000000000000.00 0000000.00   0000000.00                             000000000000000                                                                                                                                                   B101418  000000000000 0000000000000.56     01050 01500                  
03636090400890047DT67590675900000002881800888800000010180088824001193076900017300296031720230000001975407623000000000180929421783XXXXXX3237       VS11    0001111   NYV1 A E463076744614448N8400000000197547QSS00    90DNHAPPY HIPPIE             024123    VS84000000019754 N  549976487158                            000000000+                A CA 12110                     000000000  N000000000 493   0000000000000.00 0000000.00   0000000.00                             000000000000000                                                                                                                                                     01418 A000000000000 0000000000003.08     01510 01000                  
03636100400890048DT67590675900000002881800888800000010180088824001193076900017300304031720230000000439007623000000000180929422921XXXXXX2053       VS11    0001111   NYV1 A E583076778150653N840000000004390PDTC00    05DNHAPPY HIPPIE             063417    VD84000000004390 N  549976487158                            000000000+                F DF 00381                     000000000  N000000000       0000000000000.00 0000000.00   0000000.00                             000000000000000                                                                                                                                                     01418 A000000000000 0000000000000.50     00800 01500                  
03636110400890049DT67590675900000002881800888800000010180088824001193076900017300312031720230000002337607623000000000180929410889XXXXXX3300       VS11    0001111   NYV1 A E463076779885060N840000000023376DFP700    05DNHAPPY HIPPIE             563589    VS84000000023376 N  549976487158                            000000000+                B CB 12111                     000000000  N000000000 495   0000000000000.00 0000000.00   0000000.00                             000000000000000                                                                                                                                                     01418 A000000000000 0000000000003.96     01650 01000                  
03636120400890050BH6759067590000000215480088880000090170317202307623000000000724890    0000090001356954N8008886759C03192023                                                                                                                                                                                                                                                                                                                                                                                                                                                                                                                                                                                                 
03636130400890051DT67590675900000002154800888800000010180088824001193076900013570553031720230000015305007623000000000724890440066XXXXXX9837               2111111   NYV4 A7W383076721306185N840000000153050ZRWH00    01DNDRIP DROP DISTRO LLC     04235D    VS84000000153050 NP1519971004114   INV-001214               000000000+                D CD 12109                     000000000  N000000000 498   0000000000000.00 0000000.00   0000000.00                             000000000000000                                                                                                                                                     01418 G000000153050 0000000000038.36     02500 01000                  
03636140400890001P16759067590000000215480088880000001010000000000000000                             2000000000000000000000000              000000000000                    0000000000000000000000000                    000000000000                                                                                                                                                                                                                                                                                                                                                                                                                                                                                        
03636150400890052DT67590675900000002154800888800000010180088824001193076900013530821031720230000007641007623000000000724890464018XXXXXX9401               2111111   NYV4 A7W463076635348047N840000000076410QGJZ00    01DNDRIP DROP DISTRO LLC     05633D    VS84000000076410 NP1519971004114   INV-001208               000000000+                D CD 12109                     000000000  N000000000 498   0000000000000.00 0000000.00   0000000.00                             000000000000000                                                                                                                                                     01418 G000000076410 0000000000019.20     02500 01000                  
03636160400890001P16759067590000000215480088880000001010000000000000000                             2000000000000000000000000              000000000000                    0000000000000000000000000                    000000000000                                                                                                                                                                                                                                                                                                                                                                                                                                                                                        
03636170400890053DT67590675900000002154800888800000010180088873011003076900013569544031720230000049543007623000000000724890372725XXXXX2006                          NY 4 07N004762664636306N840000000495430          01DNDRIP DROP DISTRO LLC     201652    AM84000000495430 N  519971004114                            000000000+6004S0S00140 258     11244                     000000000                   0000000000000.00 0000000.00   0000000.00                             000000000000000 61248972736759675900000002154 DRIP DROP DISTRO LLC     1445 W COMMERCE AVE SUITE2087248209      83705     TROY@DRIPDROPDISTRO.COM                   01418  000000000000 0000000000094.23     01900 00000                  
03636180400890054BH6759067590000001857280010580000090170317202307623000000000000138    0000090001080001N8001056759C03192023                                                                                                                                                                                                                                                                                                                                                                                                                                                                                                                                                                                                 
03636190400890055DT67590675900000018572800105800000010180010524001193076900010800011031720230000000013807623000000000000138458643XXXXXX1046       VK04VS111111111   NYV1 A E303076854614590N840000000000138NJXJ00    05DNGALLERY SMOKE SHOP LLC   H84620    VD84000000000138 N  599977453598                            000000000+                F DF 10439                     000000000  Y000000000 331   0000000000000.00 0000000.00   0000000.00                             000000000000000                                                                                                                                                     01418 F000000000000 0000000000000.22     00050 02200                  
03636200400890056BH6759067590000001857280010580000090170317202307623000000000019924    0000090001070005N8001056759C03192023                                                                                                                                                                                                                                                                                                                                                                                                                                                                                                                                                                                                 
03636210400890057DT67590675900000018572800105800000010180010524001193076900010700021031720230000000538507623000000000019924414720XXXXXX2207       VS11    0001111   NYV1 A E583076588730212N840000000005385F7KW00    07DNGALLERY SMOKE SHOP LLC   03422D    VS84000000005385 N  599977453598                            000000000+                D CD 12113                     000000000  N000000000 499   0000000000000.00 0000000.00   0000000.00                             000000000000000                                                                                                                                                     01418 A000000000000 0000000000001.23     02100 01000                  
03636220400890058DT67590675900000018572800105800000010180010524001193076900010700047031720230000000213907623000000000019924446540XXXXXX5941       VS11    0001111   NYV1 A E303076771474301N840000000002139VZQG00    07DNGALLERY SMOKE SHOP LLC   017555    VS84000000002139 N  599977453598                            000000000+                D CD 12113                     000000000  N000000000 499   0000000000000.00 0000000.00   0000000.00                             000000000000000                                                                                                                                                     01418 A000000000000 0000000000000.55     02100 01000                  
03636230400890059DT67590675900000018572800105800000010180010524001193076900010700062031720230000000187507623000000000019924430455XXXXXX9818       VS11    0001111   NYV1 A E383076803046140N8400000000018757M8X00    07DNGALLERY SMOKE SHOP LLC   04747C    VS84000000001875 N  599977453598                            000000000+                C CC 12112                     000000000  N000000000 497   0000000000000.00 0000000.00   0000000.00                             000000000000000                                                                                                                                                     01418 A000000000000 0000000000000.41     01650 01000                  
03636240400890060DT67590675900000018572800105800000010180010524001193076900010700070031720230000000006007623000000000019924458643XXXXXX1046       VK04VS111111111   NYV1 A E383076809329173N840000000000060PVSJ00    05DNGALLERY SMOKE SHOP LLC   H72974    VD84000000000060 N  599977453598                            000000000+                F DF 10439                     000000000  Y000000000 331   0000000000000.00 0000000.00   0000000.00                             000000000000000                                                                                                                                                     01418 F000000000000 0000000000000.22     00050 02200                  
03636250400890061DT67590675900000018572800105800000010180010524001193076900010700088031720230000000561607623000000000019924430455XXXXXX9818       VS11    0001111   NYV1 A E463076811797427N840000000005616TXNC00    07DNGALLERY SMOKE SHOP LLC   07791C    VS84000000005616 N  599977453598                            000000000+                C CC 12112                     000000000  N000000000 497   0000000000000.00 0000000.00   0000000.00                             000000000000000                                                                                                                                                     01418 A000000000000 0000000000001.03     01650 01000                  
03636260400890062DT67590675900000018572800105800000010180010524001193076900010700096031720230000000015907623000000000019924458643XXXXXX1046       VK04VS111111111   NYV1 A E303076820491834N840000000000159JCRQ00    05DNGALLERY SMOKE SHOP LLC   H74950    VD84000000000159 N  599977453598                            000000000+                F DF 10439                     000000000  Y000000000 331   0000000000000.00 0000000.00   0000000.00                             000000000000000                                                                                                                                                     01418 F000000000000 0000000000000.22     00050 02200                  
03636270400890063DT67590675900000018572800105800000033080010576759003076900010700018031720230000000064007623000000000019924483312XXXXXX5395                         NY 2 0 N               N840000000000640      IL  05DNGALLERY SMOKE SHOP LLC   090012    DB84000000000640 N  599977453598                            000000000+                     09580                                Y          342   0000000000000.00 0000000.00   0000000.00                             000000000000000                                                                                                                                                     01418  000000000000 0000000000000.22     00050 00000                  
03636280400890064DT67590675900000018572800105800000033080010576759003076900010700034031720230000000148307623000000000019924458643XXXXXX1046                         NY 2 0 N               N840000000001483      IL  05DNGALLERY SMOKE SHOP LLC   H36058    DB84000000001483 N  599977453598                            000000000+                     09580                                Y          342   0000000000000.00 0000000.00   0000000.00                             000000000000000                                                                                                                                                     01418  000000000000 0000000000000.23     00050 00000                  
03636290400890065DT67590675900000018572800105800000033080010576759003076900010700059031720230000000256707623000000000019924443041XXXXXX7318                         NY 2 0 N               N840000000002567      IL  05DNGALLERY SMOKE SHOP LLC   293794    DB84000000002567 N  599977453598                            000000000+                     09580                                Y          342   0000000000000.00 0000000.00   0000000.00                             000000000000000                                                                                                                                                     01418  000000000000 0000000000000.23     00050 00000                  
03636300400890066BH6759067590000000708880010180000090170317202307623000000000145510    0000090001020045N8001016759C03192023                                                                                                                                                                                                                                                                                                                                                                                                                                                                                                                                                                                                 
03636310400890067DT67590675900000007088800101800000010180010124001193076900010200014031720230000000410207623000000000145510400022XXXXXX0285       VS11    0001111   NYV1 A E303076545555452N840000000004102C8ZF00    07DNPLANET VAPOR INC #200    030110    VD84000000004102 N  599977384620                            000000000+                F DF 10433                     000000000  Y000000000 338   0000000000000.00 0000000.00   0000000.00                             000000000000000                                                                                                                                                     01418 A000000000000 0000000000000.24     00050 02200                  
03636320400890068DT67590675900000007088800101800000010180010124001193076900010200022031720230000000338107623000000000145510498503XXXXXX8810       VS11    0001111   NYV1 A E303076549173447N840000000003381N4T600    05DNPLANET VAPOR INC #200    044396    VD84000000003381 N  599977384620                            000000000+                F DF 00381                     000000000  N000000000       0000000000000.00 0000000.00   0000000.00                             000000000000000                                                                                                                                                     01418 A000000000000 0000000000000.42     00800 01500                  
03636330400890069DT67590675900000007088800101800000010180010124001193076900010200030031720230000000215907623000000000145510448261XXXXXX8003       VS11    0001111   NYV1 A E463076552789096N840000000002159H48L00    07DNPLANET VAPOR INC #200    169857    VD84000000002159 N  599977384620                            000000000+                F DF 10433                     000000000  Y000000000 338   0000000000000.00 0000000.00   0000000.00                             000000000000000                                                                                                                                                     01418 A000000000000 0000000000000.23     00050 02200                  
03636340400890070DT67590675900000007088800101800000010180010124001193076900010200048031720230000000237507623000000000145510473703XXXXXX6377       VS11    0001111   NYV1 A E463076566921828N840000000002375R48V00    07DNPLANET VAPOR INC #200    059869    VD84000000002375 N  599977384620                            000000000+                F DF 10433                     000000000  Y000000000 338   0000000000000.00 0000000.00   0000000.00                             000000000000000                                                                                                                                                     01418 A000000000000 0000000000000.23     00050 02200                  
03636350400890071DT67590675900000007088800101800000010180010124001193076900010200055031720230000000518207623000000000145510400022XXXXXX7059       VS11    0001111   NYV1 A E303076577650362N840000000005182CZQW00    07DNPLANET VAPOR INC #200    407875    VD84000000005182 N  599977384620                            000000000+                F DF 10433                     000000000  Y000000000 338   0000000000000.00 0000000.00   0000000.00                             000000000000000                                                                                                                                                     01418 A000000000000 0000000000000.25     00050 02200                  
03636360400890072DT67590675900000007088800101800000010180010124001193076900010200063031720230000000323807623000000000145510427199XXXXXX5073       VS11    0001111   NYV1 A E463076578707356N840000000003238473R00    05DNPLANET VAPOR INC #200    727656    VD84000000003238 N  599977384620                            000000000+                F DF 00381                     000000000  N000000000       0000000000000.00 0000000.00   0000000.00                             000000000000000                                                                                                                                                     01418 A000000000000 0000000000000.41     00800 01500                  
03636370400890073DT67590675900000007088800101800000010180010124001193076900010200071031720230000000475007623000000000145510421783XXXXXX5423       VS11    0001111   NYV1 A E583076580793460N840000000004750R2X900    07DNPLANET VAPOR INC #200    053130    VS84000000004750 N  599977384620                            000000000+                A CA 12110                     000000000  N000000000 493   0000000000000.00 0000000.00   0000000.00                             000000000000000                                                                                                                                                     01418 A000000000000 0000000000000.82     01510 01000                  
03636380400890074DT67590675900000007088800101800000010180010124001193076900010200089031720230000000242907623000000000145510406095XXXXXX8916       VS11    0001111   NYV1 A E583076586592723N840000000002429VC5700    07DNPLANET VAPOR INC #200    02182B    VS84000000002429 N  599977384620                            000000000+                B CB 12111                     000000000  N000000000 495   0000000000000.00 0000000.00   0000000.00                             000000000000000                                                                                                                                                     01418 A000000000000 0000000000000.50     01650 01000                  
03636390400890075DT67590675900000007088800101800000010180010124001193076900010200097031720230000000269907623000000000145510498503XXXXXX1089       VS11    0001111   NYV1 A E583076586946636N84000000000269995H300    05DNPLANET VAPOR INC #200    013260    VD84000000002699 N  599977384620                            000000000+                F DF 00381                     000000000  N000000000       0000000000000.00 0000000.00   0000000.00                             000000000000000                                                                                                                                                     01418 A000000000000 0000000000000.37     00800 01500                  
03636400400890076DT67590675900000007088800101800000010180010124001193076900010200105031720230000000237507623000000000145510438419XXXXXX7869       VS11    0001111   NYV1 A E583076589453497N840000000002375LZVK00    07DNPLANET VAPOR INC #200    022225    VD84000000002375 N  599977384620                            000000000+                F DF 00381                     000000000  N000000000       0000000000000.00 0000000.00   0000000.00                             000000000000000                                                                                                                                                     01418 A000000000000 0000000000000.34     00800 01500                  
03636410400890077DT67590675900000007088800101800000010180010124001193076900010200113031720230000000323807623000000000145510456367XXXXXX9660       VS11    0001111   NYV1 A E303076606126518N840000000003238GCB600    05DNPLANET VAPOR INC #200    H18315    VD84000000003238 N  599977384620                            000000000+                F DF 10433                     000000000  Y000000000 338   0000000000000.00 0000000.00   0000000.00                             000000000000000                                                                                                                                                     01418 A000000000000 0000000000000.24     00050 02200                  
03636420400890078DT67590675900000007088800101800000010180010124001193076900010200121031720230000000748207623000000000145510456367XXXXXX9660       VS11    0001111   NYV1 A E303076606702691N8400000000074828PL800    05DNPLANET VAPOR INC #200    H22657    VD84000000007482 N  599977384620                            000000000+                F DF 10433                     000000000  Y000000000 338   0000000000000.00 0000000.00   0000000.00                             000000000000000                                                                                                                                                     01418 A000000000000 0000000000000.26     00050 02200                  
03636430400890079DT67590675900000007088800101800000010180010124001193076900010200139031720230000000323807623000000000145510473703XXXXXX3137       VS11    0001111   NYV1 A E583076608589532N840000000003238G25W00    07DNPLANET VAPOR INC #200    080400    VD84000000003238 N  599977384620                            000000000+                F DF 10433                     000000000  Y000000000 338   0000000000000.00 0000000.00   0000000.00                             000000000000000                                                                                                                                                     01418 A000000000000 0000000000000.24     00050 02200                  
03636440400890080DT67590675900000007088800101800000010180010124001193076900010200147031720230000000252607623000000000145510400022XXXXXX9878       VS11    0001111   NYV1 A E463076622172916N840000000002526G9HZ00    07DNPLANET VAPOR INC #200    528128    VD84000000002526 N  599977384620                            000000000+                F DF 10433                     000000000  Y000000000 338   0000000000000.00 0000000.00   0000000.00                             000000000000000                                                                                                                                                     01418 A000000000000 0000000000000.23     00050 02200                  
03636450400890081DT67590675900000007088800101800000010180010124001193076900010200154031720230000000475007623000000000145510440393XXXXXX4589       VS11    0001111   NYV1 A E303076625510308N84000000000475045ZH00    07DNPLANET VAPOR INC #200    849370    VD84000000004750 N  599977384620                            000000000+                F PF 08170                     000000000  N000000000       0000000000000.00 0000000.00   0000000.00                             000000000000000                                                                                                                                                     01418 A000000000000 0000000000000.70     01150 01500                  
03636460400890082DT67590675900000007088800101800000010180010124001193076900010200162031720230000001479307623000000000145510453506XXXXXX8175       VS11    0001111   NYV1 A E463076634057901N840000000014793Z68X00    05DNPLANET VAPOR INC #200    H38515    VD84000000014793 N  599977384620                            000000000+                F DF 10433                     000000000  Y000000000 338   0000000000000.00 0000000.00   0000000.00                             000000000000000                                                                                                                                                     01418 A000000000000 0000000000000.29     00050 02200                  
03636470400890083DT67590675900000007088800101800000010180010173011003076900010200176031720230000000237507623000000000145510371699XXXXX1007                          NY 1 0 N004760379200301N840000000002375          07DNPLANET VAPOR INC #200    886512    AM84000000002375 N  599977384620                            000000000+51010X50034C 258     11261                     000000000                   0000000000000.00 0000000.00   0000000.00                             000000000000000 61248972086759675900000007088 PLANET VAPOR INC #200    7457 PATTERSON RD STE 1098035462263      29209     KEVIN@MOOREDISTRO.COM                     01418  000000000000 0000000000000.48     01600 00000                  
03636480400890084DT67590675900000007088800101800000010180010124001193076900010200188031720230000000388707623000000000145510444796XXXXXX5426       VS11    0001111   NYV1 A E303076647933992N840000000003887WH4S00    07DNPLANET VAPOR INC #200    017020    VS84000000003887 N  599977384620                            000000000+                A CA 12110                     000000000  N000000000 493   0000000000000.00 0000000.00   0000000.00                             000000000000000                                                                                                                                                     01418 A000000000000 0000000000000.69     01510 01000                  
03636490400890085DT67590675900000007088800101800000010180010124001193076900010200196031720230000000133407623000000000145510441707XXXXXX1455       VK04VS111111111   NYV1 A E463076662484969N8400000000013347X9C00    07DNPLANET VAPOR INC #200    931740    VD84000000001334 N  599977384620                            000000000+                F PF 08165                     000000000  N000000000       0000000000000.00 0000000.00   0000000.00                             000000000000000                                                                                                                                                     01418 F000000000000 0000000000000.26     01600 00500                  
03636500400890086DT67590675900000007088800101800000010180010173011003076900010200200031720230000000388607623000000000145510372654XXXXX1007                          NY 1 0 N006683904076079N840000000003886          05DNPLANET VAPOR INC #200    853979    AM84000000003886 N  599977384620                            000000000+51010155434C 258     11261                     000000000                   0000000000000.00 0000000.00   0000000.00                             000000000000000 61248972086759675900000007088 PLANET VAPOR INC #200    7457 PATTERSON RD STE 1098035462263      29209     KEVIN@MOOREDISTRO.COM                     01418  000000000000 0000000000000.72     01600 00000                  
03636510400890087DT67590675900000007088800101800000010180010124001193076900010200212031720230000000804207623000000000145510400022XXXXXX0450       VS11    0001111   NYV1 A E303076682625840N840000000008042MNDF00    07DNPLANET VAPOR INC #200    610018    VD84000000008042 N  599977384620                            000000000+                F DF 10433                     000000000  Y000000000 338   0000000000000.00 0000000.00   0000000.00                             000000000000000                                                                                                                                                     01418 A000000000000 0000000000000.26     00050 02200                  
03636520400890088DT67590675900000007088800101800000010180010124001193076900010200220031720230000000213707623000000000145510466189XXXXXX7987       VS11    0001111   NYV1 A E583076694219084N840000000002137HH9Z00    07DNPLANET VAPOR INC #200    001343    VD84000000002137 N  599977384620                            000000000+                F DF 10433                     000000000  Y000000000 338   0000000000000.00 0000000.00   0000000.00                             000000000000000                                                                                                                                                     01418 A000000000000 0000000000000.23     00050 02200                  
03636530400890089DT67590675900000007088800101800000010180010124001193076900010200238031720230000000269907623000000000145510466189XXXXXX7987       VS11    0001111   NYV1 A E463076697192522N840000000002699DFHR00    07DNPLANET VAPOR INC #200    064063    VD84000000002699 N  599977384620                            000000000+                F DF 10433                     000000000  Y000000000 338   0000000000000.00 0000000.00   0000000.00                             000000000000000                                                                                                                                                     01418 A000000000000 0000000000000.23     00050 02200                  
03636540400890090DT67590675900000007088800101800000010180010177287283076900010200248031720230000000269907623000000000145510514377XXXXXX7410       MS02WI09          NY 1 0 AMDJS6OTIS0317  N840000000002699          05DNPLANET VAPOR INC #200    1C9KVD    MD84000000002699 N  599977384620                            000000000+M10101C5434C    MDJ  00402                     000000000  N                0000000000000.00 0000000.00   0000000.00                             000000000000000                                                                                                                                                   B101418  000000000000 0000000000000.43     01050 01500                  
03636550400890091DT67590675900000007088800101800000010180010124001193076900010200253031720230000000129407623000000000145510473703XXXXXX9496       VK04VS111111111   NYV1 A E383076708136603N840000000001294SD4K00    07DNPLANET VAPOR INC #200    062381    VD84000000001294 N  599977384620                            000000000+                F DF 10439                     000000000  Y000000000 331   0000000000000.00 0000000.00   0000000.00                             000000000000000                                                                                                                                                     01418 F000000000000 0000000000000.23     00050 02200                  
03636560400890092DT67590675900000007088800101800000010180010124001193076900010200261031720230000000218707623000000000145510440393XXXXXX4870       VS11    0001111   NYV1 A E463076726438751N840000000002187ZGDP00    07DNPLANET VAPOR INC #200    852666    VD84000000002187 N  599977384620                            000000000+                F PF 08170                     000000000  N000000000       0000000000000.00 0000000.00   0000000.00                             000000000000000                                                                                                                                                     01418 A000000000000 0000000000000.40     01150 01500                  
03636570400890093DT67590675900000007088800101800000010180010124001193076900010200279031720230000000485707623000000000145510427199XXXXXX3355       VS11    0001111   NYV1 A E383076728600139N840000000004857M28Z00    05DNPLANET VAPOR INC #200    752731    VD84000000004857 N  599977384620                            000000000+                F DF 00381                     000000000  N000000000       0000000000000.00 0000000.00   0000000.00                             000000000000000                                                                                                                                                     01418 A000000000000 0000000000000.54     00800 01500                  
03636580400890094DT67590675900000007088800101800000010180010124001193076900010200287031720230000000184607623000000000145510400022XXXXXX7507       VS11    0001111   NYV1 A E583076731246676N840000000001846NF3G00    07DNPLANET VAPOR INC #200    376473    VD84000000001846 N  599977384620                            000000000+                F DF 10433                     000000000  Y000000000 338   0000000000000.00 0000000.00   0000000.00                             000000000000000                                                                                                                                                     01418 A000000000000 0000000000000.23     00050 02200                  
03636590400890095DT67590675900000007088800101800000010180010124001193076900010200295031720230000000242907623000000000145510400022XXXXXX0534       VS11    0001111   NYV1 A E583076742928592N8400000000024294JJH00    07DNPLANET VAPOR INC #200    512156    VD84000000002429 N  599977384620                            000000000+                F DF 10433                     000000000  Y000000000 338   0000000000000.00 0000000.00   0000000.00                             000000000000000                                                                                                                                                     01418 A000000000000 0000000000000.23     00050 02200                  
03636600400890096DT67590675900000007088800101800000010180010124001193076900010200303031720230000000410007623000000000145510440393XXXXXX4012       VS11    0001111   NYV1 A E383076755026537N840000000004100FPJS00    07DNPLANET VAPOR INC #200    635960    VD84000000004100 N  599977384620                            000000000+                F PF 08170                     000000000  N000000000       0000000000000.00 0000000.00   0000000.00                             000000000000000                                                                                                                                                     01418 A000000000000 0000000000000.62     01150 01500                  
03636610400890097DT67590675900000007088800101800000010180010177287283076900010200313031720230000000377907623000000000145510531258XXXXXX1341       MS02WI09          NY 1 0 AMDJD3ZAK00317  N840000000003779          07DNPLANET VAPOR INC #200    191163    MD84000000003779 N  599977384620                            000000000+M10101M0034C    MDJ  10815                     000000000  1                0000000000000.00 0000000.00   0000000.00                             000000000000000                                                                                                                                                   B101418  000000000000 0000000000000.24     00050 02200                  
03636620400890098DT67590675900000007088800101800000010180010124001193076900010200329031720230000000269907623000000000145510400022XXXXXX0806       VS11    0001111   NYV1 A E303076766487055N840000000002699HLGM00    07DNPLANET VAPOR INC #200    063736    VD84000000002699 N  599977384620                            000000000+                F DF 10433                     000000000  Y000000000 338   0000000000000.00 0000000.00   0000000.00                             000000000000000                                                                                                                                                     01418 A000000000000 0000000000000.23     00050 02200                  
03636630400890099DT67590675900000007088800101800000010180010124001193076900010200337031720230000000053907623000000000145510440393XXXXXX0888       VK04VS111111111   NYV1 A E583076772893119N840000000000539C83P00    07DNPLANET VAPOR INC #200    779661    VD84000000000539 N  599977384620                            000000000+                F PF 08165                     000000000  N000000000       0000000000000.00 0000000.00   0000000.00                             000000000000000                                                                                                                                                     01418 F000000000000 0000000000000.14     01600 00500                  
03636640400890100DT67590675900000007088800101800000010180010173011003076900010200341031720230000000213707623000000000145510379828XXXXX3001                          NY 1 0 N004764526385304N840000000002137          07DNPLANET VAPOR INC #200    815545    AM84000000002137 N  599977384620                            000000000+51010X50034C 258     11261                     000000000                   0000000000000.00 0000000.00   0000000.00                             000000000000000 61248972086759675900000007088 PLANET VAPOR INC #200    7457 PATTERSON RD STE 1098035462263      29209     KEVIN@MOOREDISTRO.COM                     01418  000000000000 0000000000000.44     01600 00000                  
03636650400890101DT67590675900000007088800101800000010180010124001193076900010200352031720230000000356207623000000000145510473703XXXXXX4288       VS11    0001111   NYV1 A E583076781602832N840000000003562XGSW00    05DNPLANET VAPOR INC #200    058036    VD84000000003562 N  599977384620                            000000000+                F DF 10433                     000000000  Y000000000 338   0000000000000.00 0000000.00   0000000.00                             000000000000000                                                                                                                                                     01418 A000000000000 0000000000000.24     00050 02200                  
03636660400890102DT67590675900000007088800101800000010180010124001193076900010200360031720230000000323807623000000000145510421783XXXXXX3588       VS11    0001111   NYV1 A E463076783246034N840000000003238CBNV00    07DNPLANET VAPOR INC #200    034246    VS84000000003238 N  599977384620                            000000000+                A CA 12110                     000000000  N000000000 493   0000000000000.00 0000000.00   0000000.00                             000000000000000                                                                                                                                                     01418 A000000000000 0000000000000.59     01510 01000                  
03636670400890103DT67590675900000007088800101800000010180010124001193076900010200378031720230000000135907623000000000145510461675XXXXXX4956       VK04VS111111111   NYV1 A E303076785556334N840000000001359BH6X00    05DNPLANET VAPOR INC #200    520990    VD84000000001359 N  599977384620                            000000000+                F DF 00451                     000000000  N000000000 214   0000000000000.00 0000000.00   0000000.00                             000000000000000                                                                                                                                                     01418 F000000000000 0000000000000.25     01550 00400                  
03636680400890104DT67590675900000007088800101800000010180010124001193076900010200386031720230000000431807623000000000145510498503XXXXXX5126       VS11    0001111   NYV1 A E303076792626584N840000000004318RKWR00    05DNPLANET VAPOR INC #200    058108    VD84000000004318 N  599977384620                            000000000+                F DF 00381                     000000000  N000000000       0000000000000.00 0000000.00   0000000.00                             000000000000000                                                                                                                                                     01418 A000000000000 0000000000000.50     00800 01500                  
03636690400890105DT67590675900000007088800101800000010180010124001193076900010200394031720230000000077807623000000000145510430602XXXXXX2059       VK04VS111111111   NYV1 A E383076798593376N840000000000778LS7P00    07DNPLANET VAPOR INC #200    673620    VD84000000000778 N  599977384620                            000000000+                F DF 00451                     000000000  N000000000 214   0000000000000.00 0000000.00   0000000.00                             000000000000000                                                                                                                                                     01418 F000000000000 0000000000000.16     01550 00400                  
03636700400890106DT67590675900000007088800101800000010180010124001193076900010200402031720230000000254007623000000000145510440393XXXXXX7127       VS11    0001111   NYV1 A E303076808554457N840000000002540KS7R00    07DNPLANET VAPOR INC #200    771959    VD84000000002540 N  599977384620                            000000000+                F PF 08170                     000000000  N000000000       0000000000000.00 0000000.00   0000000.00                             000000000000000                                                                                                                                                     01418 A000000000000 0000000000000.44     01150 01500                  
03636710400890107DT67590675900000007088800101800000010180010124001193076900010200410031720230000000055007623000000000145510466189XXXXXX9683       VK04VS111111111   NYV1 A E303076810799455N840000000000550XCCX00    07DNPLANET VAPOR INC #200    068779    VD84000000000550 N  599977384620                            000000000+                F DF 10439                     000000000  Y000000000 331   0000000000000.00 0000000.00   0000000.00                             000000000000000                                                                                                                                                     01418 F000000000000 0000000000000.22     00050 02200                  
03636720400890108DT67590675900000007088800101800000010180010124001193076900010200428031720230000000242907623000000000145510423223XXXXXX7076       VS11    0001111   NYV1 A E383076817622812N840000000002429XFBW00    05DNPLANET VAPOR INC #200    047136    VD84000000002429 N  599977384620                            000000000+                F DF 00381                     000000000  N000000000       0000000000000.00 0000000.00   0000000.00                             000000000000000                                                                                                                                                     01418 A000000000000 0000000000000.34     00800 01500                  
03636730400890109DT67590675900000007088800101800000010180010124001193076900010200436031720230000000194307623000000000145510478200XXXXXX1846       VS11    0001111   NYV1 A E303076822547525N840000000001943ZCP900    07DNPLANET VAPOR INC #200    045018    VD84000000001943 N  599977384620                            000000000+                F DF 10433                     000000000  Y000000000 338   0000000000000.00 0000000.00   0000000.00                             000000000000000                                                                                                                                                     01418 A000000000000 0000000000000.23     00050 02200                  
03636740400890110DT67590675900000007088800101800000010180010124001193076900010200444031720230000000077507623000000000145510400022XXXXXX7652       VK04VS111111111   NYV1 A E583076851182218N8400000000007752R8800    07DNPLANET VAPOR INC #200    129280    VD84000000000775 N  599977384620                            000000000+                F DF 10439                     000000000  Y000000000 331   0000000000000.00 0000000.00   0000000.00                             000000000000000                                                                                                                                                     01418 F000000000000 0000000000000.22     00050 02200                  
03636750400890111DT67590675900000007088800101800000010180010124001193076900010200451031720230000000237507623000000000145510448233XXXXXX7704       VS11    0001111   NYV1 A E383076855176747N840000000002375K7M600    05DNPLANET VAPOR INC #200    084517    VD84000000002375 N  599977384620                            000000000+                F DF 10433                     000000000  Y000000000 338   0000000000000.00 0000000.00   0000000.00                             000000000000000                                                                                                                                                     01418 A000000000000 0000000000000.23     00050 02200                  
03636760400890112BH6759067590000000766680010180000090170317202307623000000000104840    0000090001410026N8001016759C03192023                                                                                                                                                                                                                                                                                                                                                                                                                                                                                                                                                                                                 
03636770400890113DT67590675900000007666800101800000010180010124001193076900014100012031720230000000554407623000000000104840400022XXXXXX8972       VS11    0001111   NYV1 A E583076519075562N8400000000055447N2800    07DNPLANET VAPOR #300        585976    VD84000000005544 N  599976777836                            000000000+                F DF 10433                     000000000  Y000000000 338   0000000000000.00 0000000.00   0000000.00                             000000000000000                                                                                                                                                     01418 A000000000000 0000000000000.25     00050 02200                  
03636780400890114DT67590675900000007666800101800000010180010124001193076900014100020031720230000000541807623000000000104840466189XXXXXX4356       VS11    0001111   NYV1 A E303076540057201N8400000000054184M6H00    07DNPLANET VAPOR #300        040636    VD84000000005418 N  599976777836                            000000000+                F DF 10433                     000000000  Y000000000 338   0000000000000.00 0000000.00   0000000.00                             000000000000000                                                                                                                                                     01418 A000000000000 0000000000000.25     00050 02200                  
03636790400890115DT67590675900000007666800101800000010180010124001193076900014100038031720230000000721907623000000000104840430602XXXXXX0267       VS11    0001111   NYV1 A E383076547756047N840000000007219N4CZ00    07DNPLANET VAPOR #300        588580    VD84000000007219 NP1599976777836                            000000000+                F DF 00381                     000000000  N000000000       0000000000000.00 0000000.00   0000000.00                             000000000000000                                                                                                                                                     01418 A000000000000 0000000000000.73     00800 01500                  
03636800400890001P16759067590000000766680010180000001010000000000000000                             1000000000472000000000000              000000000000                    0000000000000000000000000                    000000000000                                                                                                                                                                                                                                                                                                                                                                                                                                                                                        
03636810400890116DT67590675900000007666800101800000010180010124001193076900014100046031720230000000180707623000000000104840433477XXXXXX1369       VS11    0001111   NYV1 A E463076579479844N8400000000018072RV400    05DNPLANET VAPOR #300        166055    VD84000000001807 N  599976777836                            000000000+                F DF 10433                     000000000  Y000000000 338   0000000000000.00 0000000.00   0000000.00                             000000000000000                                                                                                                                                     01418 A000000000000 0000000000000.23     00050 02200                  
03636820400890117DT67590675900000007666800101800000010180010177287283076900014100055031720230000000237507623000000000104840510805XXXXXX0518       MS02WI09          NY 1 0 AMDJO4OZF00317  N840000000002375          07DNPLANET VAPOR #300        011156    MD84000000002375 N  599976777836                            000000000+M10101M0034C    MDJ  10815                     000000000  1                0000000000000.00 0000000.00   0000000.00                             000000000000000                                                                                                                                                   B101418  000000000000 0000000000000.23     00050 02200                  
03636830400890118DT67590675900000007666800101800000010180010176509753076900014100069031720230000000237507623000000000104840601100XXXXXX6446   BA50                  NY41 0 N873065242174482N840000000002375    00    05DNPLANET VAPOR #300        01707R    DS84000000002375 N  599976777836050                         000000000+0000004910H00   DCCDI01000668884  121657000000 000000000  0          112   0000000000000.00 0000000.00   0000000.00                             000000000000000                                                                                                                                                     01418  000000000000 0000000000000.51     01720 01000                  
03636840400890119DT67590675900000007666800101800000010180010124001193076900014100079031720230000000388607623000000000104840453506XXXXXX3577       VS11    0001111   NYV1 A E583076589243733N8400000000038864PL700    07DNPLANET VAPOR #300        H16152    VD84000000003886 N  599976777836                            000000000+                F DF 10433                     000000000  Y000000000 338   0000000000000.00 0000000.00   0000000.00                             000000000000000                                                                                                                                                     01418 A000000000000 0000000000000.24     00050 02200                  
03636850400890120DT67590675900000007666800101800000010180010177287283076900014100089031720230000000377907623000000000104840534942XXXXXX0329       MS02WI09          NY 1 0 AMDJA8EKFS0317  N840000000003779          07DNPLANET VAPOR #300        278610    MD84000000003779 NP1599976777836                            000000000+M10101M0034C    MDJ  00402                     000000000  N                0000000000000.00 0000000.00   0000000.00                             000000000000000                                                                                                                                                   A101418  000000000000 0000000000000.55     01050 01500                  
03636860400890001P1675906759000000076668001018000000101                                                 000000280000000000000          1000   000000000472803059            000000000000                                                                                                                                                                                                                                                                                                                                                                                                                                                                                                                                    
03636870400890121DT67590675900000007666800101800000010180010124001193076900014100095031720230000000194307623000000000104840448233XXXXXX7405       VS11    0001111   NYV1 A E383076600779764N840000000001943P69D00    05DNPLANET VAPOR #300        014117    VD84000000001943 N  599976777836                            000000000+                F DF 10433                     000000000  Y000000000 338   0000000000000.00 0000000.00   0000000.00                             000000000000000                                                                                                                                                     01418 A000000000000 0000000000000.23     00050 02200                  
03636880400890122DT67590675900000007666800101800000010180010124001193076900014100103031720230000000410207623000000000104840414334XXXXXX1198       VS11    0001111   NYV1 A E303076611806609N840000000004102QC6700    05DNPLANET VAPOR #300        892175    VS84000000004102 N  599976777836                            000000000+                B CB 12111                     000000000  N000000000 495   0000000000000.00 0000000.00   0000000.00                             000000000000000                                                                                                                                                     01418 A000000000000 0000000000000.78     01650 01000                  
03636890400890123DT67590675900000007666800101800000010180010124001193076900014100111031720230000001187907623000000000104840473703XXXXXX3720       VS11    0001111   NYV1 A E303076639805785N840000000011879WTTH00    05DNPLANET VAPOR #300        011800    VD84000000011879 N  599976777836                            000000000+                F DF 10433                     000000000  Y000000000 338   0000000000000.00 0000000.00   0000000.00                             000000000000000                                                                                                                                                     01418 A000000000000 0000000000000.28     00050 02200                  
03636900400890124DT67590675900000007666800101800000010180010176509753076900014100127031720230000001079607623000000000104840601100XXXXXX5342   BA50                  NY41 0 N813065299277385N840000000010796    00    05DNPLANET VAPOR #300        01706R    DS84000000010796 N  599976777836050                         000000000+0000004910H00   DCCDI01000169865  135207000000 000000000  0          112   0000000000000.00 0000000.00   0000000.00                             000000000000000                                                                                                                                                     01418  000000000000 0000000000001.96     01720 01000                  
03636910400890125DT67590675900000007666800101800000010180010177287283076900014100139031720230000000215907623000000000104840532293XXXXXX8959                         NY 1 0 AMDBYJDDTX0317  N840000000002159          05DNPLANET VAPOR #300        069733    MD84000000002159 NP1599976777836                            000000000+M10101C5434C    MDB  00062                     000000000  N                0000000000000.00 0000000.00   0000000.00                             000000000000000                                                                                                                                                   B101418  000000000000 0000000000000.67     02650 01000                  
03636920400890001P1675906759000000076668001018000000101                                                          000000000000          1000            472803059                                                                                                                                                                                                                                                                                                                                                                                                                                                                                                                                                            
03636930400890126DT67590675900000007666800101800000010180010177287283076900014100147031720230000000194307623000000000104840514759XXXXXX5846       MS02WI09          NY 1 0 AMDJQMLJIS0317  N840000000001943          05DNPLANET VAPOR #300        030939    MD84000000001943 N  599976777836                            000000000+M10101C5434C    MDJ  10815                     000000000  1                0000000000000.00 0000000.00   0000000.00                             000000000000000                                                                                                                                                   B101418  000000000000 0000000000000.23     00050 02200                  
03636940400890127DT67590675900000007666800101800000010180010124001193076900014100152031720230000000271707623000000000104840465638XXXXXX7919       VS11    0001111   NYV1 A E463076663334001N840000000002717JCKZ00    05DNPLANET VAPOR #300        352380    VS84000000002717 N  599976777836                            000000000+                B CB 12111                     000000000  N000000000 495   0000000000000.00 0000000.00   0000000.00                             000000000000000                                                                                                                                                     01418 A000000000000 0000000000000.55     01650 01000                  
03636950400890128DT67590675900000007666800101800000010180010124001193076900014100160031720230000000237507623000000000104840474474XXXXXX3900       VS11    0001111   NYV1 A E383076664153177N840000000002375L9T700    07DNPLANET VAPOR #300        192262    VD84000000002375 N  599976777836                            000000000+                F DF 10433                     000000000  Y000000000 338   0000000000000.00 0000000.00   0000000.00                             000000000000000                                                                                                                                                     01418 A000000000000 0000000000000.23     00050 02200                  
03636960400890129DT67590675900000007666800101800000010180010124001193076900014100178031720230000000280707623000000000104840461675XXXXXX4285       VS11    0001111   NYV1 A E583076691052943N8400000000028077DS700    05DNPLANET VAPOR #300        389370    VD84000000002807 N  599976777836                            000000000+                F DF 00381                     000000000  N000000000       0000000000000.00 0000000.00   0000000.00                             000000000000000                                                                                                                                                     01418 A000000000000 0000000000000.37     00800 01500                  
03636970400890130DT67590675900000007666800101800000010180010124001193076900014100186031720230000000431807623000000000104840424631XXXXXX3969       VS11    0001111   NYV1 A E383076711419739N840000000004318S8VM00    07DNPLANET VAPOR #300        06257G    VB84000000004318 N  599976777836                            000000000+                G4CG411354                     000000000  N000000000 378   0000000000000.00 0000000.00   0000000.00                             000000000000000                                                                                                                                                     01418 A000000000000 0000000000001.05     02200 01000                  
03636980400890131DT67590675900000007666800101800000010180010124001193076900014100194031720230000000323807623000000000104840440066XXXXXX8973       VS11    0001111   NYV1 A E383076714901280N840000000003238GH9D00    07DNPLANET VAPOR #300        04259C    VS84000000003238 N  599976777836                            000000000+                C CC 12112                     000000000  N000000000 497   0000000000000.00 0000000.00   0000000.00                             000000000000000                                                                                                                                                     01418 A000000000000 0000000000000.63     01650 01000                  
03636990400890132DT67590675900000007666800101800000010180010124001193076900014100202031720230000000431907623000000000104840440066XXXXXX8973       VS11    0001111   NYV1 A E383076718237953N840000000004319QMNK00    07DNPLANET VAPOR #300        06666C    VS84000000004319 N  599976777836                            000000000+                C CC 12112                     000000000  N000000000 497   0000000000000.00 0000000.00   0000000.00                             000000000000000                                                                                                                                                     01418 A000000000000 0000000000000.81     01650 01000                  
03637000400890133DT67590675900000007666800101800000010180010124001193076900014100210031720230000000280707623000000000104840474474XXXXXX0369       VS11    0001111   NYV1 A E303076751577776N840000000002807LVNS00    07DNPLANET VAPOR #300        105620    VD84000000002807 N  599976777836                            000000000+                F DF 10433                     000000000  Y000000000 338   0000000000000.00 0000000.00   0000000.00                             000000000000000                                                                                                                                                     01418 A000000000000 0000000000000.23     00050 02200                  
