00015010494630002BH675906759000000232598001168000009017062120231722300000000002178901970000090001722331N8001166759D06222023072                                                                                                                                                                                                                                                                                                                                                                                                                                                                                                                                                                                              
00015020494630003DT67590675900000023259800116800000010680011687287283172900017223310062120230000002178917223000000000021789551683XXXXXX4174                         NN94607N         0621  N840000000000000          81CNGFORCEHEMP844-258-9322         0197MD84000000021789 N  549977768166   D29AFCBD9CTC3004EF1DBDD  000000000+600450S00130    MDS  00000                     000000000  N                0000000000000.00 0000000.00   0000000.00             000000000021789C000000000000000                                                                                                                                                     01424  000000000000 0000000000000.00     00000 00000                  
00015030494630001G2675906759000000232598001168000000106844-2589322              CA           9 S               210                                      NNNN           210000000000000000000000000                        7                                          77768166                                                                                                                                                                                                                                                                                                                                                                                                                                               
00015040494630004BH6759067590000001619680010280000090170621202317223000000000342983    0000090001724928Y8001026759C06222023072                                                                                                                                                                                                                                                                                                                                                                                                                                                                                                                                                                                              
00015050494630005DT67590675900000016196800102800000010180010224001193172900017244299062020230000002111217223000000000342983479213XXXXXX8619               2111111   NYV4 A7W303168326209139N840000000021112ZV7700    01DNGREEN OTTER LLC          040340    VD84000000021112 NDR549977424386   12F9B1DC8AT059311E1434F  000000000+                F DF 10420                     000000000  Y000000000 338   0000000000000.00 0000000.00   0000000.00                             000000000000000                                                                                                                                                     01424 G000000021112 0000000000000.33     00050 02200                  
00015060494630005DR67590675900000016196800102800000010112F9B1DC8AT059311E1434F  Y000000021112                 P1                                                                                                                                                                                                                                                                                                                                                                                                                                                                                                                                                                                                            
00015070494630001P16759067590000001619680010280000001010000000000000000                             2000000000000000000000000              000000000000                    0000000000000000000000000                    000000000000                                                                                                                                                                                                                                                                                                                                                                                                                                                                                        
00015080494630002G2675906759000000161968001028000000101866-6317293              GA           9 D                00                                      NNNN   N                      000000000000                                                                   77424386                                                                                                                                                                                                                                                                                                                                                                                                                                               
00015090494630006DT67590675900000016196800102800000010180010287287283172900017245297062020230000001400817223000000000342983528618XXXXXX3580       ME03KE06MS02      NY 4607AMDSJTBZ4U0617  N840000000014008          81DNGREEN OTTER LLC          523450    MD84000000014008 NDR549977424386   425C8D8061TECB9BAD3EEB9  000000000+600450S00130    MDS  00401                     000000000  N                0000000000000.00 0000000.00   0000000.00                             000000000000000                                                                                                                                                   U001424  000000000000 0000000000002.46     01650 01500                  
00015100494630006DR675906759000000161968001028000000101425C8D8061TECB9BAD3EEB9  Y000000000000                                                                                                                                                                                                                                                                                                                                                                                                                                                                                                                                                                                                                               
00015110494630001G2675906759000000161968001028000000101866-6317293              GA           9 S               210                                      NNNN           210000000000000000000000000                                                                   77424386                                                                                                                                                                                                                                                                                                                                                                                                                                               
00015120494630007DT67590675900000016196800102800000010180010224001193172900017245387062020230000002636217223000000000342983419032XXXXXX3296               2111111   NYV4 A7W463169054055086N8400000000263623KV700    01DNGREEN OTTER LLC          003005    VD84000000026362 NDR549977424386   C5262B6361T8B259B15CAA1  000000000+                F DF 10420                     000000000  Y000000000 338   0000000000000.00 0000000.00   0000000.00                             000000000000000                                                                                                                                                     01424 G000000026362 0000000000000.35     00050 02200                  
00015130494630007DR675906759000000161968001028000000101C5262B6361T8B259B15CAA1  N000000026362                 P1                                                                                                                                                                                                                                                                                                                                                                                                                                                                                                                                                                                                            
00015140494630001P16759067590000001619680010280000001010000000000000000                             2000000000000000000000000              000000000000                    0000000000000000000000000                    000000000000                                                                                                                                                                                                                                                                                                                                                                                                                                                                                        
00015150494630002G2675906759000000161968001028000000101866-6317293              GA           9 D                00                                      NNNN   N                      000000000000                                                                   77424386                                                                                                                                                                                                                                                                                                                                                                                                                                               
00015160494630008DT67590675900000016196800102800000010180010287287283172900017245446062020230000000730017223000000000342983551729XXXXXX6058       ME03KE06MS02      NY 4607AMDSTVJCAB0617  N840000000007300          81DNGREEN OTTER LLC          289320    MD84000000007300 NDR549977424386   5FF0093BCDTA5E90FFCF1C2  000000000+600450S00130    MDS  00401                     000000000  N                0000000000000.00 0000000.00   0000000.00                             000000000000000                                                                                                                                                   U001424  000000000000 0000000000001.35     01650 01500                  
00015170494630008DR6759067590000001619680010280000001015FF0093BCDTA5E90FFCF1C2  X000000000000                                                                                                                                                                                                                                                                                                                                                                                                                                                                                                                                                                                                                               
00015180494630001G2675906759000000161968001028000000101866-6317293              GA           9 S               210                                      NNNN           210000000000000000000000000                        7                                          77424386                                                                                                                                                                                                                                                                                                                                                                                                                                               
00015190494630009DT67590675900000016196800102800000010180010287287283172900017245479062020230000001400817223000000000342983517805XXXXXX5771       ME03KE06MS02      NY 4607AMWET2J1AB0617  N840000000014008          81DNGREEN OTTER LLC          05769P    MC84000000014008 NDR549977424386   588193B21BT57AD74B58EC6  000000000+600450S00130    MWE  00737                     000000000  N                0000000000000.00 0000000.00   0000000.00                             000000000000000                                                                                                                                                   U001424  000000000000 0000000000003.74     02600 01000                  
00015200494630009DR675906759000000161968001028000000101588193B21BT57AD74B58EC6  Z000000000000                                                                                                                                                                                                                                                                                                                                                                                                                                                                                                                                                                                                                               
00015210494630001G2675906759000000161968001028000000101866-6317293              GA           9 E               210                                      NNNN           210000000000000000000000000                        7                                          77424386                                                                                                                                                                                                                                                                                                                                                                                                                                               
00015220494630010DT67590675900000016196800102800000010180010224001193172900017248365062020230000002390317223000000000342983480213XXXXXX7277       EF10    2111111   NYV4 A7W463172041711942N840000000023903RMN900    01DNGREEN OTTER LLC          079464    VB84000000023903 NDR549977424386   0D7277A780TE41B987231FA  000000000+                G5CG511889                     000000000  N000000000 161   0000000000000.00 0000000.00   0000000.00                             000000000000000                                                                                                                                                     01424 G000000023903 0000000000005.48     02250 01000                  
00015230494630010DR6759067590000001619680010280000001010D7277A780TE41B987231FA  A000000023903                 P1                                                                                                                                                                                                                                                                                                                                                                                                                                                                                                                                                                                                            
00015240494630001P16759067590000001619680010280000001010000000000000000                             1000000001353000000000000              000000000000                    0000000000000000000000000                    000000000000                                                                                                                                                                                                                                                                                                                                                                                                                                                                                        
00015250494630002G2675906759000000161968001028000000101866-6317293              GA           9 C                00                                      NNNN   Y                      000000000000                                                                   77424386                                                                                                                                                                                                                                                                                                                                                                                                                                               
00015260494630011DT67590675900000016196800102800000010680010274001193172900017248410062120230000002741917223000000000342983438857XXXXXX0626               0000000   NYV4 07T463172456111743N8400000000274195HFB00    01CNGREEN OTTER LLC          00349A    VS84000000027419 NDR549977424386   D5E7752270TF379F34C3425  000000000+                A CA 00245                     000000000  N000000000 166   0000000000000.00 0000000.00   0000000.00                             000000000000000                                                                                                                                                     01424  000000027419-0000000000004.83     01760 00000                  
00015270494630011DR675906759000000161968001028000000106D5E7752270TF379F34C3425  Y000000027419                 P1                                                                                                                                                                                                                                                                                                                                                                                                                                                                                                                                                                                                            
00015280494630001P16759067590000001619680010280000001060000000000000000                             2000000000000000000000000              000000000000                    0000000000000000000000000                    000000000000                                                                                                                                                                                                                                                                                                                                                                                                                                                                                        
00015290494630002G2675906759000000161968001028000000106866-6317293              GA           9 C                00                                      NNNN   Y                      000000000000                                                                   77424386                                                                                                                                                                                                                                                                                                                                                                                                                                               
00015300494630012DT67590675900000016196800102800000010680010287287283172900017248424062120230000002160417223000000000342983527524XXXXXX6987                         NY 4607AMDJMTNGXU0621  N840000000021604          81CNGREEN OTTER LLC          222243    MD84000000021604 NDR549977424386   F61D609107T979730F6548A  000000000+600450S00130    MDJ  10828                     000000000  1                0000000000000.00 0000000.00   0000000.00                             000000000000000                                                                                                                                                     01424  000000000000 0000000000000.00     00000 00000                  
00015310494630012DR675906759000000161968001028000000106F61D609107T979730F6548A  Y000000000000                                                                                                                                                                                                                                                                                                                                                                                                                                                                                                                                                                                                                               
00015320494630001G2675906759000000161968001028000000106866-6317293              GA           9 J               210                                      NNNN           210000000000000000000000000                        7                                          77424386                                                                                                                                                                                                                                                                                                                                                                                                                                               
00015330494630013DT67590675900000016196800102800000010680010287287283172900017248432062120230000001619017223000000000342983512107XXXXXX2174                         NY 4607AMCCXDENXL0621  N840000000016190          81CNGREEN OTTER LLC          021121    MC84000000016190 NDR549977424386   8BABFAB99CT745599BA5612  000000000+600450S00130    MCC  00565                     000000000  N                0000000000000.00 0000000.00   0000000.00                             000000000000000                                                                                                                                                     01424  000000000000-0000000000002.83     01750 00000                  
00015340494630013DR6759067590000001619680010280000001068BABFAB99CT745599BA5612  R000000000000                                                                                                                                                                                                                                                                                                                                                                                                                                                                                                                                                                                                                               
00015350494630001G2675906759000000161968001028000000106866-6317293              GA           9 C               210                                      NNNN           210000000000000000000000000                        7                                          77424386                                                                                                                                                                                                                                                                                                                                                                                                                                               
00015360494630014DT67590675900000016196800102800000010180010287287283172900017248457062120230000000699517223000000000342983514887XXXXXX6278       ME03KE06PT01      NY 4607AMCWY1HXXM0621  N840000000006995          81DNGREEN OTTER LLC          00084P    MC84000000006995 NDR549977424386   B828FD2ACCT2A2B08DEA521  000000000+600450S00130    MCW  00642                     000000000  N                0000000000000.00 0000000.00   0000000.00                             000000000000000                                                                                                                                                   U001424  000000000000 0000000000001.64     02200 01000                  
00015370494630014DR675906759000000161968001028000000101B828FD2ACCT2A2B08DEA521  Y000000000000                                                                                                                                                                                                                                                                                                                                                                                                                                                                                                                                                                                                                               
00015380494630001G2675906759000000161968001028000000101866-6317293              GA           9 W               210                                      NNNN           210000000000000000000000000                        7                                          77424386                                                                                                                                                                                                                                                                                                                                                                                                                                               
00015390494630015DT67590675900000016196800102800000010180010287287283172900017248465062120230000001987017223000000000342983545983XXXXXX4787       ME03KE06MS02      NY 4607AMDSU8TXXU0621  N840000000019870          81DNGREEN OTTER LLC          698557    MD84000000019870 NDR549977424386   1608C55752T51864E8EA8DA  000000000+600450S00130    MDS  00401                     000000000  N                0000000000000.00 0000000.00   0000000.00                             000000000000000                                                                                                                                                   U001424  000000000000 0000000000003.43     01650 01500                  
00015400494630015DR6759067590000001619680010280000001011608C55752T51864E8EA8DA  Z000000000000                                                                                                                                                                                                                                                                                                                                                                                                                                                                                                                                                                                                                               
00015410494630001G2675906759000000161968001028000000101866-6317293              GA           9 S               210                                      NNNN           210000000000000000000000000                                                                   77424386                                                                                                                                                                                                                                                                                                                                                                                                                                               
00015420494630016DT67590675900000016196800102800000010180010287287283172900017248481062120230000000539917223000000000342983521333XXXXXX5189       ME03KE06MS02      NY 4607AMWEADI8XN0621  N840000000005399          81DNGREEN OTTER LLC          02145Y    MC84000000005399 NDR549977424386   AC062DAC40T6F33A2E77C01  000000000+600450S00130    MWE  00642                     000000000  N                0000000000000.00 0000000.00   0000000.00                             000000000000000                                                                                                                                                   U001424  000000000000 0000000000001.29     02200 01000                  
00015430494630016DR675906759000000161968001028000000101AC062DAC40T6F33A2E77C01  Z000000000000                                                                                                                                                                                                                                                                                                                                                                                                                                                                                                                                                                                                                               
00015440494630001G2675906759000000161968001028000000101866-6317293              GA           9 E               210                                      NNNN           210000000000000000000000000                        7                                          77424386                                                                                                                                                                                                                                                                                                                                                                                                                                               
00015450494630017DT67590675900000016196800102800000010180010224001193172900017248571062120230000001257417223000000000342983409255XXXXXX3421               2111111   NYV4 A7W383172604309685N840000000012574R7ZN00    01DNGREEN OTTER LLC          064710    VD84000000012574 NDR549977424386   E81CE36E31T4FA7CBD1FA7D  000000000+                F DF 00415                     000000000  N000000000       0000000000000.00 0000000.00   0000000.00                             000000000000000                                                                                                                                                     01424 G000000012574 0000000000002.22     01650 01500                  
00015460494630017DR675906759000000161968001028000000101E81CE36E31T4FA7CBD1FA7D  Y000000012574                 P1                                                                                                                                                                                                                                                                                                                                                                                                                                                                                                                                                                                                            
00015470494630001P16759067590000001619680010280000001010000000000000000                             2000000000000000000000000              000000000000                    0000000000000000000000000                    000000000000                                                                                                                                                                                                                                                                                                                                                                                                                                                                                        
00015480494630002G2675906759000000161968001028000000101866-6317293              GA           9 D                00                                      NNNN   N                      000000000000                                                                   77424386                                                                                                                                                                                                                                                                                                                                                                                                                                               
00015490494630018DT67590675900000016196800102800000010180010224001193172900017248589062120230000000639817223000000000342983434258XXXXXX1620               2111111   NYV4 A7W463172608193577N840000000006398GZSC00    01DNGREEN OTTER LLC          006151    VD84000000006398 NDR549977424386   1442C35CF4T5B01621214BD  000000000+                F DF 10420                     000000000  Y000000000 338   0000000000000.00 0000000.00   0000000.00                             000000000000000                                                                                                                                                     01424 G000000006398 0000000000000.25     00050 02200                  
00015500494630018DR6759067590000001619680010280000001011442C35CF4T5B01621214BD  Y000000006398                 P1                                                                                                                                                                                                                                                                                                                                                                                                                                                                                                                                                                                                            
00015510494630001P16759067590000001619680010280000001010000000000000000                             2000000000000000000000000              000000000000                    0000000000000000000000000                    000000000000                                                                                                                                                                                                                                                                                                                                                                                                                                                                                        
00015520494630002G2675906759000000161968001028000000101866-6317293              GA           9 D                00                                      NNNN   N                      000000000000                                                                   77424386                                                                                                                                                                                                                                                                                                                                                                                                                                               
00015530494630019DT67590675900000016196800102800000010180010224001193172900017248605062120230000001400817223000000000342983441368XXXXXX0333               2111111   NYV4 A7W383172613814728N840000000014008M8X300    01DNGREEN OTTER LLC          129174    VD84000000014008 NDR549977424386   37EB7075D0T41B060184E13  000000000+                G DG 08705                     000000000  N000000000       0000000000000.00 0000000.00   0000000.00                             000000000000000                                                                                                                                                     01424 G000000014008 0000000000003.53     02450 01000                  
00015540494630019DR67590675900000016196800102800000010137EB7075D0T41B060184E13  Y000000014008                 P1                                                                                                                                                                                                                                                                                                                                                                                                                                                                                                                                                                                                            
00015550494630001P16759067590000001619680010280000001010000000000000000                             2000000000000000000000000              000000000000                    0000000000000000000000000                    000000000000                                                                                                                                                                                                                                                                                                                                                                                                                                                                                        
00015560494630002G2675906759000000161968001028000000101866-6317293              GA           9 D                00                                      NNNN   N                      000000000000                                                                   77424386                                                                                                                                                                                                                                                                                                                                                                                                                                               
00015570494630020DT67590675900000016196800102800000010180010287287283172900017248622062120230000001506617223000000000342983521673XXXXXX8802       ME03KE06MS02      NY 4607AMPFTN959A0621  N840000000015066          81DNGREEN OTTER LLC          292604    MD84000000015066 NDR549977424386   948895CD1CT4FC8F0FE293B  000000000+600450S00130    MPF  09899                     000000000  N                0000000000000.00 0000000.00   0000000.00                             000000000000000                                                                                                                                                   U001424  000000000000 0000000000002.85     01760 02000                  
00015580494630020DR675906759000000161968001028000000101948895CD1CT4FC8F0FE293B  X000000000000                                                                                                                                                                                                                                                                                                                                                                                                                                                                                                                                                                                                                               
00015590494630001G2675906759000000161968001028000000101866-6317293              GA           9 F               210                                      NNNN           210000000000000000000000000                                                                   77424386                                                                                                                                                                                                                                                                                                                                                                                                                                               
00015600494630021DT67590675900000016196800102800000010180010287287283172900017248671062120230000000160017223000000000342983533248XXXXXX1433       ME03KE06MS02      NY 4607AMPVCJAHXM0621  N840000000001600          81DNGREEN OTTER LLC          G0LNX7    MD84000000001600 NDR549977424386   C25EF8A27CT07E9F643BE0F  000000000+600450S00130    MPV  09899                     000000000  N                0000000000000.00 0000000.00   0000000.00                             000000000000000                                                                                                                                                   U001424  000000000000 0000000000000.48     01760 02000                  
00015610494630021DR675906759000000161968001028000000101C25EF8A27CT07E9F643BE0F  Y000000000000                                                                                                                                                                                                                                                                                                                                                                                                                                                                                                                                                                                                                               
00015620494630001G2675906759000000161968001028000000101866-6317293              GA           9 V               210                                      NNNN           210000000000000000000000000                                                                   77424386                                                                                                                                                                                                                                                                                                                                                                                                                                               
00015630494630022DT67590675900000016196800102800000010180010224001193172900017248761062120230000001987017223000000000342983432739XXXXXX9818               2111111   NYV4 A7W303172639665326N840000000019870MKWT00    01DNGREEN OTTER LLC          843955    VD84000000019870 NDR549977424386   8B990DF6B8T475AD14A29D8  000000000+                F DF 10420                     000000000  Y000000000 338   0000000000000.00 0000000.00   0000000.00                             000000000000000                                                                                                                                                     01424 G000000019870 0000000000000.32     00050 02200                  
00015640494630022DR6759067590000001619680010280000001018B990DF6B8T475AD14A29D8  A000000019870                 P1                                                                                                                                                                                                                                                                                                                                                                                                                                                                                                                                                                                                            
00015650494630001P16759067590000001619680010280000001010000000000000000                             2000000000000000000000000              000000000000                    0000000000000000000000000                    000000000000                                                                                                                                                                                                                                                                                                                                                                                                                                                                                        
00015660494630002G2675906759000000161968001028000000101866-6317293              GA           9 D                00                                      NNNN   N                      000000000000                                                                   77424386                                                                                                                                                                                                                                                                                                                                                                                                                                               
00015670494630023DT67590675900000016196800102800000010180010224001193172900017248787062120230000002159917223000000000342983414734XXXXXX0724               2111111   NYV4 A7W583172654046238N840000000021599L5TM00    01DNGREEN OTTER LLC          04234D    VS84000000021599 NDR549977424386   94F9419C95T3C0567A985CC  000000000+                D CD 12109                     000000000  N000000000 498   0000000000000.00 0000000.00   0000000.00                             000000000000000                                                                                                                                                     01424 G000000021599 0000000000005.50     02500 01000                  
00015680494630023DR67590675900000016196800102800000010194F9419C95T3C0567A985CC  Y000000021599                 P1                                                                                                                                                                                                                                                                                                                                                                                                                                                                                                                                                                                                            
00015690494630001P16759067590000001619680010280000001010000000000000000                             2000000000000000000000000              000000000000                    0000000000000000000000000                    000000000000                                                                                                                                                                                                                                                                                                                                                                                                                                                                                        
00015700494630002G2675906759000000161968001028000000101866-6317293              GA           9 C                00                                      NNNN   Y                      000000000000                                                                   77424386                                                                                                                                                                                                                                                                                                                                                                                                                                               
00015710494630024DT67590675900000016196800102800000010180010287287283172900017248820062120230000001311917223000000000342983517805XXXXXX4361       ME03KE06MS02      NY 4607AMPLS7JA000621  N840000000013119          81DNGREEN OTTER LLC          06450B    MC84000000013119 NDR549977424386   B3593E543ETCF45AB897603  000000000+600450S00130    MPL  00580                     000000000  N                0000000000000.00 0000000.00   0000000.00                             000000000000000                                                                                                                                                   U001424  000000000000 0000000000002.85     02100 01000                  
00015720494630024DR675906759000000161968001028000000101B3593E543ETCF45AB897603  X000000000000                                                                                                                                                                                                                                                                                                                                                                                                                                                                                                                                                                                                                               
00015730494630001G2675906759000000161968001028000000101866-6317293              GA           9 L               210                                      NNNN           210000000000000000000000000                        7                                          77424386                                                                                                                                                                                                                                                                                                                                                                                                                                               
00015740494630025DT67590675900000016196800102800000010180010224001193172900017248837062120230000000158517223000000000342983406095XXXXXX0897               2111111   NYV4 A7W383172682793548N840000000001585QSJ900    01DNGREEN OTTER LLC          02776C    VS84000000001585 NDR549977424386   0CFB2A2FFFTBEB9F4FBA14D  000000000+                C CC 12108                     000000000  N000000000 496   0000000000000.00 0000000.00   0000000.00                             000000000000000                                                                                                                                                     01424 G000000001585 0000000000000.42     02050 01000                  
00015750494630025DR6759067590000001619680010280000001010CFB2A2FFFTBEB9F4FBA14D  Y000000001585                 P1                                                                                                                                                                                                                                                                                                                                                                                                                                                                                                                                                                                                            
00015760494630001P16759067590000001619680010280000001010000000000000000                             2000000000000000000000000              000000000000                    0000000000000000000000000                    000000000000                                                                                                                                                                                                                                                                                                                                                                                                                                                                                        
00015770494630002G2675906759000000161968001028000000101866-6317293              GA           9 C                00                                      NNNN   Y                      000000000000                                                                   77424386                                                                                                                                                                                                                                                                                                                                                                                                                                               
00015780494630026DT67590675900000016196800102800000010180010287287283172900017248846062120230000002636217223000000000342983546633XXXXXX5285       ME03KE06PT01      NY 4607AMCWN4LE050621  N840000000026362          81DNGREEN OTTER LLC          06683S    MC84000000026362 NDR549977424386   27D8155D9CT149E8D9F732F  000000000+600450S00130    MCW  02182                     000000000  N                0000000000000.00 0000000.00   0000000.00                             000000000000000                                                                                                                                                   U001424  000000000000 0000000000006.95     02600 01000                  
00015790494630026DR67590675900000016196800102800000010127D8155D9CT149E8D9F732F  Y000000000000                                                                                                                                                                                                                                                                                                                                                                                                                                                                                                                                                                                                                               
00015800494630001G2675906759000000161968001028000000101866-6317293              GA           9 W               210                                      NNNN           210000000000000000000000000                        7                                          77424386                                                                                                                                                                                                                                                                                                                                                                                                                                               
00015810494630027DT67590675900000016196800102800000010180010224001193172900017248936062120230000001987017223000000000342983456331XXXXXX9394               2111111   NYV4 A7W583172707684214N840000000019870PQBW00    01DNGREEN OTTER LLC          083915    VD84000000019870 NDR549977424386   C8D8C52DAFT48BEBE315076  000000000+                G DG 10352                     000000000  Y000000000 338   0000000000000.00 0000000.00   0000000.00                             000000000000000                                                                                                                                                     01424 G000000019870 0000000000000.32     00050 02200                  
00015820494630027DR675906759000000161968001028000000101C8D8C52DAFT48BEBE315076  Y000000019870                 P1                                                                                                                                                                                                                                                                                                                                                                                                                                                                                                                                                                                                            
00015830494630001P16759067590000001619680010280000001010000000000000000                             2000000000000000000000000              000000000000                    0000000000000000000000000                    000000000000                                                                                                                                                                                                                                                                                                                                                                                                                                                                                        
00015840494630002G2675906759000000161968001028000000101866-6317293              GA           9 D                00                                      NNNN   N                      000000000000                                                                   77424386                                                                                                                                                                                                                                                                                                                                                                                                                                               
00015850494630028DT67590675900000016196800102800000010680010274001193172900017248949062120230000000500017223000000000342983456331XXXXXX9394               0000000   NYV4 07T303172711675201N840000000005000N29D85    01CNGREEN OTTER LLC          034876    VD84000000005000 NDR549977424386   C8D8C52DAFT48BEBE315076  000000000+                G DG 08168                     000000000  Y000000000 369   0000000000000.00 0000000.00   0000000.00                             000000000000000                                                                                                                                                     01424  000000005000 0000000000000.00     00000 00000                  
00015860494630028DR675906759000000161968001028000000106C8D8C52DAFT48BEBE315076  R000000005000                 P1                                                                                                                                                                                                                                                                                                                                                                                                                                                                                                                                                                                                            
00015870494630001P16759067590000001619680010280000001060000000000000000                             2000000000000000000000000              000000000000                    0000000000000000000000000                    000000000000                                                                                                                                                                                                                                                                                                                                                                                                                                                                                        
00015880494630002G2675906759000000161968001028000000106866-6317293              GA           9 D                00                                      NNNN   N                      000000000000                                                                   77424386                                                                                                                                                                                                                                                                                                                                                                                                                                               
00015890494630029DT67590675900000016196800102800000010180010287287283172900017249042062120230000001502417223000000000342983515676XXXXXX0740       ME03KE06MS02      NY 4607AMWEO0D94P0621  N840000000015024          81DNGREEN OTTER LLC          09766Z    MC84000000015024 NDR549977424386   4EE3E7507ET9218C6974F6B  000000000+600450S00130    MWE  00737                     000000000  N                0000000000000.00 0000000.00   0000000.00                             000000000000000                                                                                                                                                   U001424  000000000000 0000000000004.01     02600 01000                  
00015900494630029DR6759067590000001619680010280000001014EE3E7507ET9218C6974F6B  Y000000000000                                                                                                                                                                                                                                                                                                                                                                                                                                                                                                                                                                                                                               
00015910494630001G2675906759000000161968001028000000101866-6317293              GA           9 E               210                                      NNNN           210000000000000000000000000                        7                                          77424386                                                                                                                                                                                                                                                                                                                                                                                                                                               
00015920494630030DT67590675900000016196800102800000010180010224001193172900017249058062120230000002123117223000000000342983426628XXXXXX8199               2111111   NYV4 A7W303172736532192N840000000021231K29T00    01DNGREEN OTTER LLC          059847    VD84000000021231 NDR549977424386   ECC7B9B450TED1E8B7A9ACC  000000000+                F DF 10420                     000000000  Y000000000 338   0000000000000.00 0000000.00   0000000.00                             000000000000000                                                                                                                                                     01424 G000000021231 0000000000000.33     00050 02200                  
00015930494630030DR675906759000000161968001028000000101ECC7B9B450TED1E8B7A9ACC  Y000000021231                 P1                                                                                                                                                                                                                                                                                                                                                                                                                                                                                                                                                                                                            
00015940494630001P16759067590000001619680010280000001010000000000000000                             2000000000000000000000000              000000000000                    0000000000000000000000000                    000000000000                                                                                                                                                                                                                                                                                                                                                                                                                                                                                        
00015950494630002G2675906759000000161968001028000000101866-6317293              GA           9 D                00                                      NNNN   N                      000000000000                                                                   77424386                                                                                                                                                                                                                                                                                                                                                                                                                                               
00015960494630031DT67590675900000016196800102800000010180010287287283172900017249117062120230000001619017223000000000342983514377XXXXXX5337       ME03KE06MS02      NY 4607AMDJRVSC050621  N840000000016190          81DNGREEN OTTER LLC          2DJYUT    MD84000000016190 NDR549977424386   9F9687FED8T3ABF08115FE0  000000000+600450S00130    MDJ  00401                     000000000  N                0000000000000.00 0000000.00   0000000.00                             000000000000000                                                                                                                                                   U001424  000000000000 0000000000002.82     01650 01500                  
00015970494630031DR6759067590000001619680010280000001019F9687FED8T3ABF08115FE0  Y000000000000                                                                                                                                                                                                                                                                                                                                                                                                                                                                                                                                                                                                                               
00015980494630001G2675906759000000161968001028000000101866-6317293              GA           9 J               210                                      NNNN           210000000000000000000000000                        7                                          77424386                                                                                                                                                                                                                                                                                                                                                                                                                                               
00015990494630032DT67590675900000016196800102800000010180010287287283172900017249158062120230000001987017223000000000342983558158XXXXXX6294                         NY 4607AMDBPPLL510621  N840000000019870          81DNGREEN OTTER LLC          2YZUMT    MD84000000019870 NDR549977424386   D7756D0229TD9BA01E3DD28  000000000+600450S00130    MDB  00062                     000000000  N                0000000000000.00 0000000.00   0000000.00                             000000000000000                                                                                                                                                   U001424  000000000000 0000000000005.37     02650 01000                  
00016000494630032DR675906759000000161968001028000000101D7756D0229TD9BA01E3DD28  Y000000000000                 P1                                                                                                                                                                                                                                                                                                                                                                                                                                                                                                                                                                                                            
00016010494630001P1675906759000000161968001028000000101                                                          000000000000          8000            871584967                                                                                                                                                                                                                                                                                                                                                                                                                                                                                                                                                            
00016020494630002G2675906759000000161968001028000000101866-6317293              GA           9 B               210                  871584967           YNNN           210000000000000000000000000                        7                                          77424386                                                                                                                                                                                                                                                                                                                                                                                                                                               
00016030494630033DT67590675900000016196800102800000010180010287287283172900017249208062120230000001200817223000000000342983512107XXXXXX7902       ME03KE06PT01      NY 4607AMCWJPX1510621  N840000000012008          81DNGREEN OTTER LLC          02113P    MC84000000012008 NDR549977424386   F05F2A4436T9027FDD7E49A  000000000+600450S00130    MCW  00642                     000000000  N                0000000000000.00 0000000.00   0000000.00                             000000000000000                                                                                                                                                   U001424  000000000000 0000000000002.74     02200 01000                  
00016040494630033DR675906759000000161968001028000000101F05F2A4436T9027FDD7E49A  Y000000000000                                                                                                                                                                                                                                                                                                                                                                                                                                                                                                                                                                                                                               
00016050494630001G2675906759000000161968001028000000101866-6317293              GA           9 W               210                                      NNNN           210000000000000000000000000                        7                                          77424386                                                                                                                                                                                                                                                                                                                                                                                                                                               
00016060494630034DT67590675900000016196800102800000010180010224001193172900017249231062120230000001097317223000000000342983461100XXXXXX9584               2111111   NYV4 A7W303172836359893N840000000010973293Z00    01DNGREEN OTTER LLC          366328    VD84000000010973 NDR549977424386   1B17788A82T7B819E442349  000000000+                F DF 10420                     000000000  Y000000000 338   0000000000000.00 0000000.00   0000000.00                             000000000000000                                                                                                                                                     01424 G000000010973 0000000000000.27     00050 02200                  
00016070494630034DR6759067590000001619680010280000001011B17788A82T7B819E442349  Y000000010973                 P1                                                                                                                                                                                                                                                                                                                                                                                                                                                                                                                                                                                                            
00016080494630001P16759067590000001619680010280000001010000000000000000                             2000000000000000000000000              000000000000                    0000000000000000000000000                    000000000000                                                                                                                                                                                                                                                                                                                                                                                                                                                                                        
00016090494630002G2675906759000000161968001028000000101866-6317293              GA           9 D                00                                      NNNN   N                      000000000000                                                                   77424386                                                                                                                                                                                                                                                                                                                                                                                                                                               
00016100494630035DT67590675900000016196800102800000010180010224001193172900017249249062120230000000702217223000000000342983461100XXXXXX9584               2111111   NYV4 A7W463172836564464N840000000007022W9C800    01DNGREEN OTTER LLC          366478    VD84000000007022 NDR549977424386   1B17788A82TBE8B4BB851B2  000000000+                F DF 10420                     000000000  Y000000000 338   0000000000000.00 0000000.00   0000000.00                             000000000000000                                                                                                                                                     01424 G000000007022 0000000000000.26     00050 02200                  
00016110494630035DR6759067590000001619680010280000001011B17788A82TBE8B4BB851B2  Y000000007022                 P1                                                                                                                                                                                                                                                                                                                                                                                                                                                                                                                                                                                                            
00016120494630001P16759067590000001619680010280000001010000000000000000                             2000000000000000000000000              000000000000                    0000000000000000000000000                    000000000000                                                                                                                                                                                                                                                                                                                                                                                                                                                                                        
00016130494630002G2675906759000000161968001028000000101866-6317293              GA           9 D                00                                      NNNN   N                      000000000000                                                                   77424386                                                                                                                                                                                                                                                                                                                                                                                                                                               
00016140494630036DT67590675900000016196800102800000010180010287287283172900017249281062120230000001987017223000000000342983510735XXXXXX3040       ME03KE06MS02      NY 4607AMDSBY5U670621  N840000000019870          81DNGREEN OTTER LLC          835642    MD84000000019870 NDR549977424386   C784D8BAE8T66F4076B6C49  000000000+600450S00130    MDS  00401                     000000000  N                0000000000000.00 0000000.00   0000000.00                             000000000000000                                                                                                                                                   U001424  000000000000 0000000000003.43     01650 01500                  
00016150494630036DR675906759000000161968001028000000101C784D8BAE8T66F4076B6C49  Y000000000000                                                                                                                                                                                                                                                                                                                                                                                                                                                                                                                                                                                                                               
00016160494630001G2675906759000000161968001028000000101866-6317293              GA           9 S               210                                      NNNN           210000000000000000000000000                                                                   77424386                                                                                                                                                                                                                                                                                                                                                                                                                                               
00016170494630037BH6759067590000002092580011280000090170621202317223000000000003001    0000090001410099Y8001126759C06222023041                                                                                                                                                                                                                                                                                                                                                                                                                                                                                                                                                                                              
00016180494630038DT67590675900000020925800112800000010180011287287283172900014100990062120230000000300117223000000000003001517805XXXXXX9840       ME03KE06MS02      NY 4607AMPLYRBRXM0621  N840000000003001          81DNJ K DISTRIBUTION INC     03211B    MC84000000003001 NDR549977712156   8461228970               000000000+600450S00130    MPL  00580                     000000000  N                0000000000000.00 0000000.00   0000000.00                             000000000000000                                                                                                                                                   U001424  000000000000 0000000000000.73     02100 01000                  
00016190494630038DR6759067590000002092580011280000001018461228970               Z000000000000                                                                                                                                                                                                                                                                                                                                                                                                                                                                                                                                                                                                                               
00016200494630001G2675906759000000209258001128000000101860-8957639              CT           9 L               210                                      NNNN           210000000000000000000000000                        7                                          77712156                                                                                                                                                                                                                                                                                                                                                                                                                                               
00016210494630039BH6759067590000001982880010980000090170621202317223000000000265056    0000090001870470Y8001096759C06222023087                                                                                                                                                                                                                                                                                                                                                                                                                                                                                                                                                                                              
00016220494630040DT67590675900000019828800109800000010180010924001193172900018703418062020230000002487017223000000000265056436618XXXXXX6252               2111111   NYV4 A7W303168417061054N840000000024870HWL200    01DNKETOFUSION 8885968154    030651    VD84000000024870 NDR599977547467   D17962F8C3TD5ABFB9415D2  000000000+                F DF 10420                     000000000  Y000000000 338   0000000000000.00 0000000.00   0000000.00                             000000000000000                                                                                                                                                     01424 G000000024870 0000000000000.34     00050 02200                  
00016230494630040DR675906759000000198288001098000000101D17962F8C3TD5ABFB9415D2  Y000000024870                 P1                                                                                                                                                                                                                                                                                                                                                                                                                                                                                                                                                                                                            
00016240494630001P16759067590000001982880010980000001010000000000000000                             2000000000000000000000000              000000000000                    0000000000000000000000000                    000000000000                                                                                                                                                                                                                                                                                                                                                                                                                                                                                        
00016250494630002G2675906759000000198288001098000000101888-5968154              UT           9 D                00                                      NNNN   N                      000000000000                                                                   77547467                                                                                                                                                                                                                                                                                                                                                                                                                                               
00016260494630041DT67590675900000019828800109800000010180010987287283172900018703450062020230000001394817223000000000265056515223XXXXXX2754       ME03KE06MS02      NY 4607AMDJGCKU9H0617  N840000000013948          81DNKETOFUSION 8885968154    023708    MD84000000013948 NDR599977547467   8DA302AC2ATD94CD72FC726  000000000+600450S00130    MDJ  00401                     000000000  N                0000000000000.00 0000000.00   0000000.00                             000000000000000                                                                                                                                                   U001424  000000000000 0000000000002.45     01650 01500                  
00016270494630041DR6759067590000001982880010980000001018DA302AC2ATD94CD72FC726  Y000000000000                                                                                                                                                                                                                                                                                                                                                                                                                                                                                                                                                                                                                               
00016280494630001G2675906759000000198288001098000000101888-5968154              UT           9 J               210                                      NNNN           210000000000000000000000000                                                                   77547467                                                                                                                                                                                                                                                                                                                                                                                                                                               
00016290494630042DT67590675900000019828800109800000010180010976509753172900018704216062120230000001987017223000000000265056601129XXXXXX2782   BA00                  NY 4 07N873148022451281N840000000019870    00    01DNKETOFUSION 8885968154    02179R    DS84000000019870 NDR599977547467070                         000000000+1015104910600   DCCDI11325170185  064405000000 000000000  0          460   0000000000000.00 0000000.00   0000000.00                             000000000000000                                                                                                                                                     01424  000000000000 0000000000004.13     02030 01000                  
00016300494630042DR675906759000000198288001098000000101                         Y                                                                                                                                                                                                                                                                                                                                                                                                                                                                                                                                                                                                                                           
00016310494630001G2675906759000000198288001098000000101888-5968154              UT           9 C                00                                      NNNN                          000000000000                         00000650975601179750000394                77547467                                                                                                                                                                                                                                                                                                                                                                                                                                               
00016320494630043DT67590675900000019828800109800000010180010987287283172900018704227062120230000000198817223000000000265056519068XXXXXX9264                         NY 4607AMDBN6PDXM0621  N840000000001988          81DNKETOFUSION 8885968154    194840    MD84000000001988 NDR599977547467   983C1FCA90T99F11E45B224  000000000+600450S00130    MDB  00062                     000000000  N                0000000000000.00 0000000.00   0000000.00                             000000000000000                                                                                                                                                   U001424  000000000000 0000000000000.63     02650 01000                  
00016330494630043DR675906759000000198288001098000000101983C1FCA90T99F11E45B224  Y000000000000                 P1                                                                                                                                                                                                                                                                                                                                                                                                                                                                                                                                                                                                            
00016340494630001P1675906759000000198288001098000000101                                                          000000000000          8000            884295529                                                                                                                                                                                                                                                                                                                                                                                                                                                                                                                                                            
00016350494630002G2675906759000000198288001098000000101888-5968154              UT           9 B               210                  884295529           YNNN           210000000000000000000000000                        7                                          77547467                                                                                                                                                                                                                                                                                                                                                                                                                                               
00016360494630044DT67590675900000019828800109800000010180010987287283172900018704235062120230000000327417223000000000265056519068XXXXXX9264                         NY 4607AMDBV64GXM0621  N840000000003274          81DNKETOFUSION 8885968154    043978    MD84000000003274 NDR599977547467   983C1FCA90TC79FF198CA67  000000000+600450S00130    MDB  00062                     000000000  N                0000000000000.00 0000000.00   0000000.00                             000000000000000                                                                                                                                                   U001424  000000000000 0000000000000.97     02650 01000                  
00016370494630044DR675906759000000198288001098000000101983C1FCA90TC79FF198CA67  Y000000000000                 P1                                                                                                                                                                                                                                                                                                                                                                                                                                                                                                                                                                                                            
00016380494630001P1675906759000000198288001098000000101                                                          000000000000          8000            884295529                                                                                                                                                                                                                                                                                                                                                                                                                                                                                                                                                            
00016390494630002G2675906759000000198288001098000000101888-5968154              UT           9 B               210                  884295529           YNNN           210000000000000000000000000                        7                                          77547467                                                                                                                                                                                                                                                                                                                                                                                                                                               
00016400494630045DT67590675900000019828800109800000010180010987287283172900018704243062120230000000198817223000000000265056515384XXXXXX7202                         NY 4607AMDBL1TRXU0621  N840000000001988          81DNKETOFUSION 8885968154    590822    MD84000000001988 NDR599977547467   75CB275D7ET58A4EF9863D7  000000000+600450S00130    MDB  00062                     000000000  N                0000000000000.00 0000000.00   0000000.00                             000000000000000                                                                                                                                                   U001424  000000000000 0000000000000.63     02650 01000                  
00016410494630045DR67590675900000019828800109800000010175CB275D7ET58A4EF9863D7  N000000000000                 P1                                                                                                                                                                                                                                                                                                                                                                                                                                                                                                                                                                                                            
00016420494630001P1675906759000000198288001098000000101                                                          000000000000          8000            884295529                                                                                                                                                                                                                                                                                                                                                                                                                                                                                                                                                            
