00005030610360002BH675906759000000232598001168000009017042620231162300000000002451501970000090001251166N8001166759D04272023                                                                                                                                                                                                                                                                                                                                                                                                                                                                                                                                                                                                 
00005040610360003DT67590675900000023259800116800000010680011687287283116900012511379042620230000001089511623000000000024515524008XXXXXX8889                         NN 4607AMPLDLN9350426  N840000000010895          81CNGFORCEHEMP844-258-9322   0263270197MC84000000010895 N  549977768166   0C2FFD59F1T565755276977  000000000+600450S00130    MPL  00000                     000000000  N                0000000000000.00 0000000.00   0000000.00             000000000010895C000000000000000                                                                                                                                                     01424  000000000000 0000000000000.00     00000 00000                  
00005050610360004DT67590675900000023259800116800000010680011687287283116900012511486042620230000001770411623000000000024515519292XXXXXX2188                         NN 4607AMDJDZUD5X0426  N840000000017704          81CNGFORCEHEMP844-258-9322   0261850197MD84000000017704 N  549977768166   27C275204CTBEBB03852FE8  000000000+600450S00130    MDJ  00000                     000000000  N                0000000000000.00 0000000.00   0000000.00             000000000017704C000000000000000                                                                                                                                                     01424  000000000000 0000000000000.00     00000 00000                  
00005060610360005DT67590675900000023259800116800000010180011687287283116900012511635042620230000002178911623000000000024515550114XXXXXX4363       ME03KE06MS02      NN 4607AMCSLTZUBU0426  N840000000021789          81DNGFORCEHEMP844-258-9322   0268650197MC84000000021789 N  549977768166   4EDE62B876T7381C6FFA22D  000000000+600450S00130    MCS  00000                     000000000  N                0000000000000.00 0000000.00   0000000.00             000000000021789D000000000000000                                                                                                                                                   U001424  000000000000 0000000000000.00     00000 00000                  
00005070610360006DT67590675900000023259800116800000010680011674001193116900012511662042620230000001770511623000000000024515409970XXXXXX9333               0000000   NNV4 07T383116805324572N840000000017705J48N00    01CNGFORCEHEMP844-258-9322   06366D0197VS84000000017705 NP1549977768166   4B99FBC9E0TE49B96F1155D  000000000+                D CD 00000                     000000000  N000000000 166   0000000000000.00 0000000.00   0000000.00             000000000017705C000000000000000                                                                                                                                                     01424  000000017705 0000000000000.00     00000 00000                  
00005080610360001P16759067590000002325980011680000001060000000000000000                             2000000000000000000000000              000000000000                    0000000000000000000000000                    000000000000                                                                                                                                                                                                                                                                                                                                                                                                                                                                                        
00005090610360007BH6759067590000000288180088880000090170426202311623000000000005359    0000090001050203Y8008886759C04272023                                                                                                                                                                                                                                                                                                                                                                                                                                                                                                                                                                                                 
00005100610360008DT67590675900000002881800888800000010180088876509753116900010502039042620230000000535911623000000000005359601129XXXXXX2384   BA00                  NY 4 07N743100049317342N840000000005359    00    01DNHAPPY HIPPIE             02676R    DS84000000005359 N  549976044904070                         000000000+1015104910600   DCCDI11325002154  180851000000 000000000  0          460   0000000000000.00 0000000.00   0000000.00                             000000000000000                                                                                                                                                     01424  000000000000 0000000000001.19     02030 01000                  
00005110610360009BH6759067590000001427480010280000090170426202311623000000000253611    0000090001708993Y8001026759C04272023                                                                                                                                                                                                                                                                                                                                                                                                                                                                                                                                                                                                 
00005120610360010DT67590675900000014274800102800000010180010287287283116900017078523042520230000002487011623000000000253611537993XXXXXX3896       ME03KE06MS02      NY 4607AMPLAUAPU00422  N840000000024870          81DNCBD8666317293            02200Z    MC84000000024870 N  549977145232   04919F31CDT3EB4A63D68FD  000000000+600450S00130    MPL  00013                     000000000  N                0000000000000.00 0000000.00   0000000.00                             000000000000000                                                                                                                                                   U001424  000000000000 0000000000004.95     01950 01000                  
00005130610360011DT67590675900000014274800102800000010180010287287283116900017078622042520230000002163311623000000000253611523057XXXXXX0827       ME03KE06MS02      NY 4607AMDJL3TN1E0422  N840000000021633          81DNCBD8666317293            421678    MD84000000021633 N  549977145232   15E8834291T1232A8F13988  000000000+600450S00130    MDJ  00401                     000000000  N                0000000000000.00 0000000.00   0000000.00                             000000000000000                                                                                                                                                   U001424  000000000000 0000000000003.72     01650 01500                  
00005140610360012DT67590675900000014274800102800000010180010287287283116900017078630042520230000000745911623000000000253611559591XXXXXX7486       ME03KE06MS02      NY 4607AMWERGVRVD0422  N840000000007459          81DNCBD8666317293            00286P    MC84000000007459 N  549977145232   36B4DF60C7TC2AED6BF8AA9  000000000+600450S00130    MWE  00737                     000000000  N                0000000000000.00 0000000.00   0000000.00                             000000000000000                                                                                                                                                   U001424  000000000000 0000000000002.04     02600 01000                  
00005150610360013DT67590675900000014274800102800000010180010224001193116900017079090042520230000001799111623000000000253611441839XXXXXX6774               2111111   NYV4 A7W463112624057373N8400000000179915CBZ00    01DNCBD8666317293            219567    VS84000000017991 NP1549977145232   7CC52BEEC4T1E4EAEB8B976  000000000+                C CC 12108                     000000000  N000000000 496   0000000000000.00 0000000.00   0000000.00                             000000000000000                                                                                                                                                     01424 G000000017991 0000000000003.79     02050 01000                  
00005160610360001P16759067590000001427480010280000001010000000000000000                             2000000000000000000000000              000000000000                    0000000000000000000000000                    000000000000                                                                                                                                                                                                                                                                                                                                                                                                                                                                                        
00005170610360014DT67590675900000014274800102800000010180010287287283116900017079539042520230000002146011623000000000253611517805XXXXXX6307       ME03KE06MS02      NY 4607AMPL5JAB920422  N840000000021460          81DNCBD8666317293            05256B    MC84000000021460 N  549977145232   66F0297FC8T75B91C560FFC  000000000+600450S00130    MPL  00580                     000000000  N                0000000000000.00 0000000.00   0000000.00                             000000000000000                                                                                                                                                   U001424  000000000000 0000000000004.61     02100 01000                  
00005180610360015DT67590675900000014274800102800000010180010287287283116900017079604042520230000002150911623000000000253611521333XXXXXX4196       ME03KE06MS02      NY 4607AMWELMHU910422  N840000000021509          81DNCBD8666317293            02234P    MC84000000021509 N  549977145232   081B0E9CB2TEAD762E19B54  000000000+600450S00130    MWE  00737                     000000000  N                0000000000000.00 0000000.00   0000000.00                             000000000000000                                                                                                                                                   U001424  000000000000 0000000000005.69     02600 01000                  
00005190610360016DT67590675900000014274800102800000010180010287287283116900017079794042520230000000636411623000000000253611546199XXXXXX4847       ME03KE06MS02      NY 4607AMDS700Q920422  N840000000006364          81DNCBD8666317293            828466    MD84000000006364 N  549977145232   CFF497C518TF6AB554A9A02  000000000+600450S00130    MDS  00401                     000000000  N                0000000000000.00 0000000.00   0000000.00                             000000000000000                                                                                                                                                   U001424  000000000000 0000000000001.20     01650 01500                  
00005200610360017DT67590675900000014274800102800000010180010287287283116900017080107042520230000000600411623000000000253611521876XXXXXX7449       ME03KE06MS02      NY 4607AMWEH73JFG0422  N840000000006004          81DNCBD8666317293            56602Z    MC84000000006004 N  549977145232   26D26BB3D6T463B271913E8  000000000+600450S00130    MWE  00737                     000000000  N                0000000000000.00 0000000.00   0000000.00                             000000000000000                                                                                                                                                   U001424  000000000000 0000000000001.66     02600 01000                  
00005210610360018DT67590675900000014274800102800000010680010274001193116900017086983042520230000001503711623000000000253611400022XXXXXX5662               0000000   NYV4 07T383116002319148N8400000000150376B3300    01CNCBD8666317293            492862    VD84000000015037 NP1549977145232   FF4A5E966ET8E6F1CE02C7D  000000000+                F DF 08168                     000000000  Y000000000 369   0000000000000.00 0000000.00   0000000.00                             000000000000000                                                                                                                                                     01424  000000015037 0000000000000.00     00000 00000                  
00005220610360001P16759067590000001427480010280000001060000000000000000                             2000000000000000000000000              000000000000                    0000000000000000000000000                    000000000000                                                                                                                                                                                                                                                                                                                                                                                                                                                                                        
00005230610360019DT67590675900000014274800102800000010180010224001193116900017086996042520230000000019911623000000000253611412076XXXXXX6107               2111111   NYV4 A7W383116007831611N840000000000199RBCQ00    01DNCBD8666317293            171349    VS84000000000199 NP1549977145232   3928326F6CT4AF61A365279  000000000+                A CA 12106                     000000000  N000000000 492   0000000000000.00 0000000.00   0000000.00                             000000000000000                                                                                                                                                     01424 G000000000199 0000000000000.14     01890 01000                  
00005240610360001P16759067590000001427480010280000001010000000000000000                             2000000000000000000000000              000000000000                    0000000000000000000000000                    000000000000                                                                                                                                                                                                                                                                                                                                                                                                                                                                                        
00005250610360020DT67590675900000014274800102800000010180010224001193116900017087002042520230000000019911623000000000253611408544XXXXXX6204               2111111   NYV4 A7W303116012044765N840000000000199NQLX00    01DNCBD8666317293            661273    VB84000000000199 NP1549977145232   650A704CF9T630A067A6D1F  000000000+                K CK 00691                     000000000  N000000000 234   0000000000000.00 0000000.00   0000000.00                             000000000000000                                                                                                                                                     01424 G000000000199 0000000000000.15     02700 01000                  
00005260610360001P16759067590000001427480010280000001010000000000000000                             2000000000000000000000000              000000000000                    0000000000000000000000000                    000000000000                                                                                                                                                                                                                                                                                                                                                                                                                                                                                        
00005270610360021DT67590675900000014274800102800000010180010287287283116900017087037042520230000000019911623000000000253611556150XXXXXX2107                         NY 4607AMCFAVCFI00425  N840000000000199          81DNCBD8666317293            NOQCS0    MB84000000000199 NP1549977145232   CCBF11B508T915E2443387E  000000000+600450S00130    MCF  00060                     000000000  N                0000000000000.00 0000000.00   0000000.00                             000000000000000                                                                                                                                                     01424  000000000000 0000000000000.16     02950 01000                  
00005280610360001P1675906759000000142748001028000000101                                                          000000000000          8000            871584967                                                                                                                                                                                                                                                                                                                                                                                                                                                                                                                                                            
00005290610360022DT67590675900000014274800102800000010180010224001193116900017087051042520230000000019911623000000000253611489683XXXXXX8264               2111111   NYV4 A7W583116022831840N840000000000199CK8T00    01DNCBD8666317293            2KYATX    VD84000000000199 NP1549977145232   AFD893088AT3CA01871304D  000000000+                S PS 10179                     000000000  N000000000 364   0000000000000.00 0000000.00   0000000.00                             000000000000000                                                                                                                                                     01424 G000000000199 0000000000000.15     02650 01000                  
00005300610360001P16759067590000001427480010280000001010000000000000000                             2000000000000000000000000              000000000000                    0000000000000000000000000                    000000000000                                                                                                                                                                                                                                                                                                                                                                                                                                                                                        
00005310610360023DT67590675900000014274800102800000010180010224001193116900017087077042520230000000019911623000000000253611428803XXXXXX4249               2111111   NYV4 A7W383116029463021N840000000000199JT6200    01DNCBD8666317293            052691    VD84000000000199 NP1549977145232   238F0B1C20T4B4F4740DE48  000000000+                S PS 10179                     000000000  N000000000 364   0000000000000.00 0000000.00   0000000.00                             000000000000000                                                                                                                                                     01424 G000000000199 0000000000000.15     02650 01000                  
00005320610360001P16759067590000001427480010280000001010000000000000000                             2000000000000000000000000              000000000000                    0000000000000000000000000                    000000000000                                                                                                                                                                                                                                                                                                                                                                                                                                                                                        
00005330610360024DT67590675900000014274800102800000010180010224001193116900017087093042520230000000019911623000000000253611408544XXXXXX5872               2111111   NYV4 A7W463116034332973N840000000000199RWCX00    01DNCBD8666317293            417379    VB84000000000199 NP1549977145232   0D6FB1EDDET91E69A47018F  000000000+                K CK 00691                     000000000  N000000000 234   0000000000000.00 0000000.00   0000000.00                             000000000000000                                                                                                                                                     01424 G000000000199 0000000000000.15     02700 01000                  
00005340610360001P16759067590000001427480010280000001010000000000000000                             2000000000000000000000000              000000000000                    0000000000000000000000000                    000000000000                                                                                                                                                                                                                                                                                                                                                                                                                                                                                        
00005350610360025DT67590675900000014274800102800000010180010287287283116900017087110042520230000000019911623000000000253611524897XXXXXX9929                         NY 4607AMCPBAKZI00425  N840000000000199          81DNCBD8666317293            NRGA69    MB84000000000199 NP1549977145232   9D9D342D46T020B5865615B  000000000+600450S00130    MCP  00303                     000000000  N                0000000000000.00 0000000.00   0000000.00                             000000000000000                                                                                                                                                   U001424  000000000000 0000000000000.15     02700 01000                  
00005360610360001P1675906759000000142748001028000000101                                                          000000000000          8000            871584967                                                                                                                                                                                                                                                                                                                                                                                                                                                                                                                                                            
00005370610360026DT67590675900000014274800102800000010180010287287283116900017087136042520230000000019911623000000000253611556150XXXXXX5956                         NY 4607AMCFRRCTQO0425  N840000000000199          81DNCBD8666317293            OBEZK5    MB84000000000199 NP1549977145232   5EEDC5ADCET850666895FDF  000000000+600450S00130    MCF  00060                     000000000  N                0000000000000.00 0000000.00   0000000.00                             000000000000000                                                                                                                                                     01424  000000000000 0000000000000.16     02950 01000                  
00005380610360001P1675906759000000142748001028000000101                                                          000000000000          8000            871584967                                                                                                                                                                                                                                                                                                                                                                                                                                                                                                                                                            
00005390610360027DT67590675900000014274800102800000010180010224001193116900017087150042520230000001987011623000000000253611449465XXXXXX3713               2111111   NYV4 A7W303116042045628N840000000019870MQ3300    01DNCBD8666317293            746925    VD84000000019870 NP1549977145232   53045C0F20T1010EBE20941  000000000+                F DF 10420                     000000000  Y000000000 338   0000000000000.00 0000000.00   0000000.00                             000000000000000                                                                                                                                                     01424 G000000019870 0000000000000.32     00050 02200                  
00005400610360001P16759067590000001427480010280000001010000000000000000                             2000000000000000000000000              000000000000                    0000000000000000000000000                    000000000000                                                                                                                                                                                                                                                                                                                                                                                                                                                                                        
00005410610360028DT67590675900000014274800102800000010180010224001193116900017087192042520230000000019911623000000000253611428803XXXXXX7448               2111111   NYV4 A7W583116043267267N840000000000199T7HL00    01DNCBD8666317293            579018    VD84000000000199 NP1549977145232   B2F3C7DCDETC1B38849C13F  000000000+                S PS 10179                     000000000  N000000000 364   0000000000000.00 0000000.00   0000000.00                             000000000000000                                                                                                                                                     01424 G000000000199 0000000000000.15     02650 01000                  
00005420610360001P16759067590000001427480010280000001010000000000000000                             2000000000000000000000000              000000000000                    0000000000000000000000000                    000000000000                                                                                                                                                                                                                                                                                                                                                                                                                                                                                        
00005430610360029DT67590675900000014274800102800000010180010224001193116900017087325042520230000002143511623000000000253611434257XXXXXX9895               2111111   NYV4 A7W463116063046997N840000000021435T2KX00    01DNCBD8666317293            056302    VD84000000021435 NP1549977145232   8941AC116FTEB4C0259E64F  000000000+                F DF 10420                     000000000  Y000000000 338   0000000000000.00 0000000.00   0000000.00                             000000000000000                                                                                                                                                     01424 G000000021435 0000000000000.33     00050 02200                  
00005440610360001P16759067590000001427480010280000001010000000000000000                             2000000000000000000000000              000000000000                    0000000000000000000000000                    000000000000                                                                                                                                                                                                                                                                                                                                                                                                                                                                                        
00005450610360030DT67590675900000014274800102800000010680010274001193116900017087353042520230000002667311623000000000253611443045XXXXXX2844               0000000   NYV4 07T583116072292252N8400000000266737F3G00    01CNCBD8666317293            025270    VD84000000026673 NP1549977145232   936B0EA6E0T64030DA0E96D  000000000+                F DF 08168                     000000000  Y000000000 369   0000000000000.00 0000000.00   0000000.00                             000000000000000                                                                                                                                                     01424  000000026673 0000000000000.00     00000 00000                  
00005460610360001P16759067590000001427480010280000001060000000000000000                             2000000000000000000000000              000000000000                    0000000000000000000000000                    000000000000                                                                                                                                                                                                                                                                                                                                                                                                                                                                                        
00005470610360031DT67590675900000014274800102800000010180010287287283116900017087375042520230000002126111623000000000253611517805XXXXXX1123       ME03KE06MS02      NY 4607AMWEHN7NQP0425  N840000000021261          81DNCBD8666317293            05171P    MC84000000021261 N  549977145232   37AA65360FT6822D0FF4301  000000000+600450S00130    MWE  00737                     000000000  N                0000000000000.00 0000000.00   0000000.00                             000000000000000                                                                                                                                                   U001424  000000000000 0000000000005.63     02600 01000                  
00005480610360032DT67590675900000014274800102800000010180010287287283116900017087417042520230000000019911623000000000253611534786XXXXXX4350                         NY 4607AMCOSUVCQO0425  N840000000000199          81DNCBD8666317293            TG88ND    MB84000000000199 NP1549977145232   0A11DE1332T406DAA089F46  000000000+600450S00130    MCO  00303                     000000000  N                0000000000000.00 0000000.00   0000000.00                             000000000000000                                                                                                                                                   U001424  000000000000 0000000000000.15     02700 01000                  
00005490610360001P1675906759000000142748001028000000101                                                          000000000000          8000            871584967                                                                                                                                                                                                                                                                                                                                                                                                                                                                                                                                                            
00005500610360033DT67590675900000014274800102800000010180010287287283116900017087433042520230000000019911623000000000253611531993XXXXXX0070                         NY 4607AMCPWGWRIZ0425  N840000000000199          81DNCBD8666317293            D1GDEL    MB84000000000199 NP1549977145232   67526E6E17TBD1BF10AF468  000000000+600450S00130    MCP  00303                     000000000  N                0000000000000.00 0000000.00   0000000.00                             000000000000000                                                                                                                                                   U001424  000000000000 0000000000000.15     02700 01000                  
00005510610360001P1675906759000000142748001028000000101                                                          000000000000          8000            871584967                                                                                                                                                                                                                                                                                                                                                                                                                                                                                                                                                            
00005520610360034DT67590675900000014274800102800000010180010224001193116900017087515042520230000001400811623000000000253611461046XXXXXX6940               2111111   NYV4 A7W383116097364320N8400000000140087TVL00    01DNCBD8666317293            064222    VD84000000014008 NP1549977145232   12F018DBF6T44FDAF19943E  000000000+                F DF 10420                     000000000  Y000000000 338   0000000000000.00 0000000.00   0000000.00                             000000000000000                                                                                                                                                     01424 G000000014008 0000000000000.29     00050 02200                  
00005530610360001P16759067590000001427480010280000001010000000000000000                             2000000000000000000000000              000000000000                    0000000000000000000000000                    000000000000                                                                                                                                                                                                                                                                                                                                                                                                                                                                                        
00005540610360035DT67590675900000014274800102800000010180010224001193116900017087523042520230000000160011623000000000253611441416XXXXXX7299               2111111   NYV4 A7W383116099001486N840000000001600LSBL00    01DNCBD8666317293            024500    VD84000000001600 NP1549977145232   738834D279T7DE4528BDC37  000000000+                F DF 00415                     000000000  N000000000       0000000000000.00 0000000.00   0000000.00                             000000000000000                                                                                                                                                     01424 G000000001600 0000000000000.41     01650 01500                  
00005550610360001P16759067590000001427480010280000001010000000000000000                             2000000000000000000000000              000000000000                    0000000000000000000000000                    000000000000                                                                                                                                                                                                                                                                                                                                                                                                                                                                                        
00005560610360036DT67590675900000014274800102800000010180010224001193116900017087564042520230000001987011623000000000253611440393XXXXXX8621               2111111   NYV4 A7W383116117045724N840000000019870Z3B900    01DNCBD8666317293            905142    VD84000000019870 NP1549977145232   3526C864E5T29CB71874439  000000000+                F PF 08175                     000000000  N000000000       0000000000000.00 0000000.00   0000000.00                             000000000000000                                                                                                                                                     01424 G000000019870 0000000000003.68     01750 02000                  
00005570610360001P16759067590000001427480010280000001010000000000000000                             2000000000000000000000000              000000000000                    0000000000000000000000000                    000000000000                                                                                                                                                                                                                                                                                                                                                                                                                                                                                        
00005580610360037DT67590675900000014274800102800000010180010224001193116900017087598042520230000001499111623000000000253611412033XXXXXX9115               2111111   NYV4 A7W583116118282652N840000000014991RTSZ00    01DNCBD8666317293            021709    VD84000000014991 NP1549977145232   D7B9B786EDT1DBDCF8A9581  000000000+                F DF 00415                     000000000  N000000000       0000000000000.00 0000000.00   0000000.00                             000000000000000                                                                                                                                                     01424 G000000014991 0000000000002.62     01650 01500                  
00005590610360001P16759067590000001427480010280000001010000000000000000                             2000000000000000000000000              000000000000                    0000000000000000000000000                    000000000000                                                                                                                                                                                                                                                                                                                                                                                                                                                                                        
00005600610360038DT67590675900000014274800102800000010180010224001193116900017087655042520230000001499111623000000000253611481588XXXXXX5909               2111111   NYV4 A7W383116134799197N8400000000149912V6R00    01DNCBD8666317293            104542    VD84000000014991 NP1549977145232   313746C325T0D3F6CBD82CD  000000000+                G DG 10352                     000000000  Y000000000 338   0000000000000.00 0000000.00   0000000.00                             000000000000000                                                                                                                                                     01424 G000000014991 0000000000000.29     00050 02200                  
00005610610360001P16759067590000001427480010280000001010000000000000000                             2000000000000000000000000              000000000000                    0000000000000000000000000                    000000000000                                                                                                                                                                                                                                                                                                                                                                                                                                                                                        
00005620610360039DT67590675900000014274800102800000010180010224001193116900017087671042520230000000019911623000000000253611489683XXXXXX6616               2111111   NYV4 A7W383116144706970N840000000000199ZVPZ00    01DNCBD8666317293            LU49QK    VD84000000000199 NP1549977145232   3507949CC1TFA6060C86166  000000000+                S PS 10179                     000000000  N000000000 364   0000000000000.00 0000000.00   0000000.00                             000000000000000                                                                                                                                                     01424 G000000000199 0000000000000.15     02650 01000                  
00005630610360001P16759067590000001427480010280000001010000000000000000                             2000000000000000000000000              000000000000                    0000000000000000000000000                    000000000000                                                                                                                                                                                                                                                                                                                                                                                                                                                                                        
00005640610360040DT67590675900000014274800102800000010180010224001193116900017087705042620230000000019911623000000000253611408544XXXXXX9485               2111111   NYV4 A7W463116186630926N840000000000199CWWZ00    01DNCBD8666317293            482617    VB84000000000199 NP1549977145232   281F7216F3TE0D0920033E9  000000000+                K CK 00691                     000000000  N000000000 234   0000000000000.00 0000000.00   0000000.00                             000000000000000                                                                                                                                                     01424 G000000000199 0000000000000.15     02700 01000                  
00005650610360001P16759067590000001427480010280000001010000000000000000                             2000000000000000000000000              000000000000                    0000000000000000000000000                    000000000000                                                                                                                                                                                                                                                                                                                                                                                                                                                                                        
00005660610360041DT67590675900000014274800102800000010180010224001193116900017087713042620230000000019911623000000000253611404038XXXXXX6744               2111111   NYV4 A7W303116188436567N8400000000001993BMG00    01DNCBD8666317293            SD3HSM    VD84000000000199 NP1549977145232   102A6AA5B3T1CB52E6E32D2  000000000+                S PS 10179                     000000000  N000000000 364   0000000000000.00 0000000.00   0000000.00                             000000000000000                                                                                                                                                     01424 G000000000199 0000000000000.15     02650 01000                  
00005670610360001P16759067590000001427480010280000001010000000000000000                             2000000000000000000000000              000000000000                    0000000000000000000000000                    000000000000                                                                                                                                                                                                                                                                                                                                                                                                                                                                                        
00005680610360042DT67590675900000014274800102800000010180010224001193116900017087747042620230000000019911623000000000253611489683XXXXXX4833               2111111   NYV4 A7W463116216640646N840000000000199ZDXB00    01DNCBD8666317293            HCRZEM    VD84000000000199 NP1549977145232   26254CD24ETEC49339C576F  000000000+                S PS 10179                     000000000  N000000000 364   0000000000000.00 0000000.00   0000000.00                             000000000000000                                                                                                                                                     01424 G000000000199 0000000000000.15     02650 01000                  
00005690610360001P16759067590000001427480010280000001010000000000000000                             2000000000000000000000000              000000000000                    0000000000000000000000000                    000000000000                                                                                                                                                                                                                                                                                                                                                                                                                                                                                        
00005700610360043DT67590675900000014274800102800000010180010224001193116900017087770042620230000000019911623000000000253611428813XXXXXX9877               2111111   NYV4 A7W383116229841843N840000000000199GP2600    01DNCBD8666317293            622420    VB84000000000199 NP1549977145232   A2B463C4C6TD092113EE19E  000000000+                S CS 00692                     000000000  N000000000 237   0000000000000.00 0000000.00   0000000.00                             000000000000000                                                                                                                                                     01424 G000000000199 0000000000000.15     02700 01000                  
00005710610360001P16759067590000001427480010280000001010000000000000000                             2000000000000000000000000              000000000000                    0000000000000000000000000                    000000000000                                                                                                                                                                                                                                                                                                                                                                                                                                                                                        
00005720610360044DT67590675900000014274800102800000010180010287287283116900017087789042620230000000019911623000000000253611519075XXXXXX7748                         NY 4607AMCP1QVTGP0426  N840000000000199          81DNCBD8666317293            NVUQ41    MB84000000000199 NP1549977145232   A0A4D24990TC8200FE156E9  000000000+600450S00130    MCP  00303                     000000000  N                0000000000000.00 0000000.00   0000000.00                             000000000000000                                                                                                                                                     01424  000000000000 0000000000000.15     02700 01000                  
00005730610360001P1675906759000000142748001028000000101                                                          000000000000          8000            871584967                                                                                                                                                                                                                                                                                                                                                                                                                                                                                                                                                            
00005740610360045DT67590675900000014274800102800000010180010224001193116900017087804042620230000000019911623000000000253611412076XXXXXX2581               2111111   NYV4 A7W583116261039700N840000000000199DBK500    01DNCBD8666317293            743401    VS84000000000199 NP1549977145232   9D07BCCA3DT32BC6F26A76B  000000000+                A CA 12106                     000000000  N000000000 492   0000000000000.00 0000000.00   0000000.00                             000000000000000                                                                                                                                                     01424 G000000000199 0000000000000.14     01890 01000                  
00005750610360001P16759067590000001427480010280000001010000000000000000                             2000000000000000000000000              000000000000                    0000000000000000000000000                    000000000000                                                                                                                                                                                                                                                                                                                                                                                                                                                                                        
00005760610360046DT67590675900000014274800102800000010180010224001193116900017087812042620230000000019911623000000000253611485932XXXXXX3545               2111111   NYV4 A7W583116302443866N840000000000199K25S00    01DNCBD8666317293            440172    VB84000000000199 NP1549977145232   FD188D21E9T69F27D6743A6  000000000+                S CS 00692                     000000000  N000000000 237   0000000000000.00 0000000.00   0000000.00                             000000000000000                                                                                                                                                     01424 G000000000199 0000000000000.15     02700 01000                  
00005770610360001P16759067590000001427480010280000001010000000000000000                             2000000000000000000000000              000000000000                    0000000000000000000000000                    000000000000                                                                                                                                                                                                                                                                                                                                                                                                                                                                                        
00005780610360047DT67590675900000014274800102800000010180010224001193116900017087820042620230000000019911623000000000253611412076XXXXXX0127               2111111   NYV4 A7W383116313236756N8400000000001999GCM00    01DNCBD8666317293            425013    VS84000000000199 NP1549977145232   54AE7DF8A2T0E77A911B26C  000000000+                A CA 12106                     000000000  N000000000 492   0000000000000.00 0000000.00   0000000.00                             000000000000000                                                                                                                                                     01424 G000000000199 0000000000000.14     01890 01000                  
00005790610360001P16759067590000001427480010280000001010000000000000000                             2000000000000000000000000              000000000000                    0000000000000000000000000                    000000000000                                                                                                                                                                                                                                                                                                                                                                                                                                                                                        
00005800610360048DT67590675900000014274800102800000010180010224001193116900017087838042620230000000019911623000000000253611428821XXXXXX6985               2111111   NYV4 A7W463116321047992N840000000000199CFQH00    01DNCBD8666317293            173962    VB84000000000199 NP1549977145232   C41BD83E20TBE95AAFECEA8  000000000+                S CS 00692                     000000000  N000000000 237   0000000000000.00 0000000.00   0000000.00                             000000000000000                                                                                                                                                     01424 G000000000199 0000000000000.15     02700 01000                  
00005810610360001P16759067590000001427480010280000001010000000000000000                             2000000000000000000000000              000000000000                    0000000000000000000000000                    000000000000                                                                                                                                                                                                                                                                                                                                                                                                                                                                                        
00005820610360049DT67590675900000014274800102800000010180010224001193116900017087846042620230000000019911623000000000253611428813XXXXXX0590               2111111   NYV4 A7W383116324648451N840000000000199GF3Q00    01DNCBD8666317293            822426    VB84000000000199 NP1549977145232   25964CED2ET8F3C9C2D11CD  000000000+                S CS 00692                     000000000  N000000000 237   0000000000000.00 0000000.00   0000000.00                             000000000000000                                                                                                                                                     01424 G000000000199 0000000000000.15     02700 01000                  
00005830610360001P16759067590000001427480010280000001010000000000000000                             2000000000000000000000000              000000000000                    0000000000000000000000000                    000000000000                                                                                                                                                                                                                                                                                                                                                                                                                                                                                        
00005840610360050DT67590675900000014274800102800000010180010224001193116900017087903042620230000000019911623000000000253611485932XXXXXX2373               2111111   NYV4 A7W463116336056332N840000000000199ZRPF00    01DNCBD8666317293            072020    VB84000000000199 NP1549977145232   F03FBE0DE3T99A83ED7C657  000000000+                S CS 00692                     000000000  N000000000 237   0000000000000.00 0000000.00   0000000.00                             000000000000000                                                                                                                                                     01424 G000000000199 0000000000000.15     02700 01000                  
00005850610360001P16759067590000001427480010280000001010000000000000000                             2000000000000000000000000              000000000000                    0000000000000000000000000                    000000000000                                                                                                                                                                                                                                                                                                                                                                                                                                                                                        
00005860610360051DT67590675900000014274800102800000010180010224001193116900017087911042620230000000019911623000000000253611428813XXXXXX2319               2111111   NYV4 A7W583116336649057N840000000000199J2X200    01DNCBD8666317293            147370    VB84000000000199 NP1549977145232   0E476DCB7BTA30CF408CF9C  000000000+                S CS 00692                     000000000  N000000000 237   0000000000000.00 0000000.00   0000000.00                             000000000000000                                                                                                                                                     01424 G000000000199 0000000000000.15     02700 01000                  
00005870610360001P16759067590000001427480010280000001010000000000000000                             2000000000000000000000000              000000000000                    0000000000000000000000000                    000000000000                                                                                                                                                                                                                                                                                                                                                                                                                                                                                        
00005880610360052DT67590675900000014274800102800000010180010224001193116900017087929042620230000000019911623000000000253611440393XXXXXX2091               2111111   NYV4 A7W463116341442308N8400000000001996ZBZ00    01DNCBD8666317293            129307    VD84000000000199 NP1549977145232   8B252E2079TAF6DC5AD639B  000000000+                F PF 08175                     000000000  N000000000       0000000000000.00 0000000.00   0000000.00                             000000000000000                                                                                                                                                     01424 G000000000199 0000000000000.23     01750 02000                  
00005890610360001P16759067590000001427480010280000001010000000000000000                             2000000000000000000000000              000000000000                    0000000000000000000000000                    000000000000                                                                                                                                                                                                                                                                                                                                                                                                                                                                                        
00005900610360053DT67590675900000014274800102800000010180010224001193116900017087986042620230000000019911623000000000253611412076XXXXXX0042               2111111   NYV4 A7W383116359445284N840000000000199M9MB00    01DNCBD8666317293            883644    VS84000000000199 NP1549977145232   8CA6E72A8CT75FD10F94FD5  000000000+                A CA 12106                     000000000  N000000000 492   0000000000000.00 0000000.00   0000000.00                             000000000000000                                                                                                                                                     01424 G000000000199 0000000000000.14     01890 01000                  
00005910610360001P16759067590000001427480010280000001010000000000000000                             2000000000000000000000000              000000000000                    0000000000000000000000000                    000000000000                                                                                                                                                                                                                                                                                                                                                                                                                                                                                        
00005920610360054DT67590675900000014274800102800000010180010224001193116900017087994042620230000000019911623000000000253611412076XXXXXX9567               2111111   NYV4 A7W463116388917443N8400000000001996P9T00    01DNCBD8666317293            411010    VS84000000000199 NP1549977145232   89476718E3TCEC3BEBC32D2  000000000+                A CA 12106                     000000000  N000000000 492   0000000000000.00 0000000.00   0000000.00                             000000000000000                                                                                                                                                     01424 G000000000199 0000000000000.14     01890 01000                  
00005930610360001P16759067590000001427480010280000001010000000000000000                             2000000000000000000000000              000000000000                    0000000000000000000000000                    000000000000                                                                                                                                                                                                                                                                                                                                                                                                                                                                                        
00005940610360055DT67590675900000014274800102800000010180010287287283116900017088001042620230000000019911623000000000253611556371XXXXXX1863                         NY 4607AMCFXDY5VJ0426  N840000000000199          81DNCBD8666317293            HAFDU4    MB84000000000199 NP1549977145232   78EBC27497TFA5C20695FA0  000000000+600450S00130    MCF  00060                     000000000  N                0000000000000.00 0000000.00   0000000.00                             000000000000000                                                                                                                                                   U001424  000000000000 0000000000000.16     02950 01000                  
00005950610360001P1675906759000000142748001028000000101                                                          000000000000          8000            871584967                                                                                                                                                                                                                                                                                                                                                                                                                                                                                                                                                            
00005960610360056DT67590675900000014274800102800000010180010224001193116900017088018042620230000000019911623000000000253611404038XXXXXX3167               2111111   NYV4 A7W303116439830151N840000000000199RKTM00    01DNCBD8666317293            ND148D    VD84000000000199 NP1549977145232   6D795EE1B0T53AB8B590839  000000000+                S PS 10179                     000000000  N000000000 364   0000000000000.00 0000000.00   0000000.00                             000000000000000                                                                                                                                                     01424 G000000000199 0000000000000.15     02650 01000                  
00005970610360001P16759067590000001427480010280000001010000000000000000                             2000000000000000000000000              000000000000                    0000000000000000000000000                    000000000000                                                                                                                                                                                                                                                                                                                                                                                                                                                                                        
00005980610360057DT67590675900000014274800102800000010180010287287283116900017088027042620230000000019911623000000000253611559666XXXXXX7072                         NY 4607AMPLITCEKY0426  N840000000000199          81DNCBD8666317293            6H4LJ6    MC84000000000199 N  549977145232   ADAD55EA16T5F7947CC47EE  000000000+600450S00130    MPL  12148                     000000000  N                0000000000000.00 0000000.00   0000000.00                             000000000000000                                                                                                                                                     01424  000000000000 0000000000000.06     01950 00200                  
00005990610360058DT67590675900000014274800102800000010680010274001193116900017088054042620230000000499711623000000000253611412033XXXXXX9115               0000000   NYV4 07T303116471508299N840000000004997VKF500    01CNCBD8666317293            080551    VD84000000004997 NP1549977145232   D7B9B786EDT1DBDCF8A9581  000000000+                F DF 08168                     000000000  N000000000 369   0000000000000.00 0000000.00   0000000.00                             000000000000000                                                                                                                                                     01424  000000004997 0000000000000.00     00000 00000                  
00006000610360001P16759067590000001427480010280000001060000000000000000                             2000000000000000000000000              000000000000                    0000000000000000000000000                    000000000000                                                                                                                                                                                                                                                                                                                                                                                                                                                                                        
00006010610360059DT67590675900000014274800102800000010180010224001193116900017088067042620230000000019911623000000000253611408544XXXXXX8104               2111111   NYV4 A7W583116478242906N8400000000001993KFW00    01DNCBD8666317293            269896    VB84000000000199 NP1549977145232   F0EB5A7A84TFC3EE8A1BEF3  000000000+                K CK 00691                     000000000  N000000000 234   0000000000000.00 0000000.00   0000000.00                             000000000000000                                                                                                                                                     01424 G000000000199 0000000000000.15     02700 01000                  
00006020610360001P16759067590000001427480010280000001010000000000000000                             2000000000000000000000000              000000000000                    0000000000000000000000000                    000000000000                                                                                                                                                                                                                                                                                                                                                                                                                                                                                        
00006030610360060DT67590675900000014274800102800000010180010224001193116900017088125042620230000002255011623000000000253611424631XXXXXX7654               2111111   NYV4 A7W583116483059310N840000000022550FWPP00    01DNCBD8666317293            05160G    VB84000000022550 NP1549977145232   2B7176AEA4T7E44E7E21B81  000000000+                G3CG308002                     000000000  N000000000 381   0000000000000.00 0000000.00   0000000.00                             000000000000000                                                                                                                                                     01424 G000000022550 0000000000006.41     02800 01000                  
00006040610360001P16759067590000001427480010280000001010000000000000000                             2000000000000000000000000              000000000000                    0000000000000000000000000                    000000000000                                                                                                                                                                                                                                                                                                                                                                                                                                                                                        
00006050610360061DT67590675900000014274800102800000010180010224001193116900017088133042620230000002111211623000000000253611480213XXXXXX0514       EF10    2111111   NYV4 A7W383116483112918N8400000000211122F4G00    01DNCBD8666317293            053584    VB84000000021112 NP1549977145232   4DA4A64066TA99C6FDF5257  000000000+                G1CG108009                     000000000  N000000000 388   0000000000000.00 0000000.00   0000000.00                             000000000000000                                                                                                                                                     01424 G000000021112 0000000000004.53     02100 01000                  
00006060610360001P16759067590000001427480010280000001010000000000000000                             1000000001242000000000000              000000000000                    0000000000000000000000000                    000000000000                                                                                                                                                                                                                                                                                                                                                                                                                                                                                        
00006070610360062DT67590675900000014274800102800000010180010224001193116900017088141042620230000000019911623000000000253611412076XXXXXX8618               2111111   NYV4 A7W303116483677935N840000000000199W7QX00    01DNCBD8666317293            656556    VS84000000000199 NP1549977145232   6EFCFF18D3TED8AB7F6D891  000000000+                A CA 12106                     000000000  N000000000 492   0000000000000.00 0000000.00   0000000.00                             000000000000000                                                                                                                                                     01424 G000000000199 0000000000000.14     01890 01000                  
00006080610360001P16759067590000001427480010280000001010000000000000000                             2000000000000000000000000              000000000000                    0000000000000000000000000                    000000000000                                                                                                                                                                                                                                                                                                                                                                                                                                                                                        
00006090610360063DT67590675900000014274800102800000010180010287287283116900017088183042620230000000534911623000000000253611521307XXXXXX8642       ME03KE06MS02      NY 4607AMWEC3M9350426  N840000000005349          81DNCBD8666317293            01735Z    MC84000000005349 N  549977145232   BA0DCBB59AT2B111302FF5D  000000000+600450S00130    MWE  00737                     000000000  N                0000000000000.00 0000000.00   0000000.00                             000000000000000                                                                                                                                                   U001424  000000000000 0000000000001.49     02600 01000                  
00006100610360064DT67590675900000014274800102800000010180010287287283116900017088191042620230000000342311623000000000253611521307XXXXXX8642       ME03KE06MS02      NY 4607AMWEG310Z00426  N840000000003423          81DNCBD8666317293            03956Z    MC84000000003423 N  549977145232   BA0DCBB59AT7CF32AD45CDC  000000000+600450S00130    MWE  00737                     000000000  N                0000000000000.00 0000000.00   0000000.00                             000000000000000                                                                                                                                                   U001424  000000000000 0000000000000.99     02600 01000                  
00006110610360065DT67590675900000014274800102800000010180010224001193116900017088208042620230000000019911623000000000253611485932XXXXXX1087               2111111   NYV4 A7W383116505316926N840000000000199CS5K00    01DNCBD8666317293            724097    VB84000000000199 NP1549977145232   1EA0F68A74TE8DB0602830B  000000000+                S CS 00692                     000000000  N000000000 237   0000000000000.00 0000000.00   0000000.00                             000000000000000                                                                                                                                                     01424 G000000000199 0000000000000.15     02700 01000                  
00006120610360001P16759067590000001427480010280000001010000000000000000                             2000000000000000000000000              000000000000                    0000000000000000000000000                    000000000000                                                                                                                                                                                                                                                                                                                                                                                                                                                                                        
00006130610360066DT67590675900000014274800102800000010180010287287283116900017088217042620230000000019911623000000000253611559666XXXXXX6005                         NY 4607AMPLG44GZ00426  N840000000000199          81DNCBD8666317293            D3WSJH    MC84000000000199 N  549977145232   C604823DE7T70307F8FFADA  000000000+600450S00130    MPL  12148                     000000000  N                0000000000000.00 0000000.00   0000000.00                             000000000000000                                                                                                                                                     01424  000000000000 0000000000000.06     01950 00200                  
00006140610360067DT67590675900000014274800102800000010680010287287283116900017088233042620230000000534911623000000000253611521307XXXXXX8642                         NY 4607AMWEDD3U350426  N840000000005349          81CNCBD8666317293            015966    MC84000000005349 N  549977145232   BA0DCBB59AT2B111302FF5D  000000000+600450S00130    MWE  00565                     000000000  N                0000000000000.00 0000000.00   0000000.00                             000000000000000                                                                                                                                                     01424  000000000000-0000000000000.94     01750 00000                  
00006150610360068DT67590675900000014274800102800000010680010287287283116900017088241042620230000000342311623000000000253611521307XXXXXX8642                         NY 4607AMWECEA2Z00426  N840000000003423          81CNCBD8666317293            019491    MC84000000003423 N  549977145232   BA0DCBB59AT7CF32AD45CDC  000000000+600450S00130    MWE  00565                     000000000  N                0000000000000.00 0000000.00   0000000.00                             000000000000000                                                                                                                                                     01424  000000000000-0000000000000.60     01750 00000                  
00006160610360069DT67590675900000014274800102800000010180010224001193116900017088257042620230000000019911623000000000253611489683XXXXXX8234               2111111   NYV4 A7W303116515456650N840000000000199MDPJ00    01DNCBD8666317293            EJYPDG    VD84000000000199 NP1549977145232   6603D2649FTCA81FE8711D8  000000000+                S PS 10179                     000000000  N000000000 364   0000000000000.00 0000000.00   0000000.00                             000000000000000                                                                                                                                                     01424 G000000000199 0000000000000.15     02650 01000                  
00006170610360001P16759067590000001427480010280000001010000000000000000                             2000000000000000000000000              000000000000                    0000000000000000000000000                    000000000000                                                                                                                                                                                                                                                                                                                                                                                                                                                                                        
00006180610360070DT67590675900000014274800102800000010180010224001193116900017088273042620230000001484811623000000000253611414709XXXXXX9357               2111111   NYV4 A7W463116529026997N8400000000148485HQ600    01DNCBD8666317293            04276D    VS84000000014848 NP1549977145232   A8B218D779T2AC84792A472  000000000+                D CD 12109                     000000000  N000000000 498   0000000000000.00 0000000.00   0000000.00                             000000000000000                                                                                                                                                     01424 G000000014848 0000000000003.81     02500 01000                  
00006190610360001P16759067590000001427480010280000001010000000000000000                             2000000000000000000000000              000000000000                    0000000000000000000000000                    000000000000                                                                                                                                                                                                                                                                                                                                                                                                                                                                                        
00006200610360071DT67590675900000014274800102800000010180010287287283116900017088282042620230000000019911623000000000253611559666XXXXXX9748                         NY 4607AMPLYNAM340426  N840000000000199          81DNCBD8666317293            V3ZE9Q    MC84000000000199 N  549977145232   924A41E0A3T5AEB7CB8C869  000000000+600450S00130    MPL  12148                     000000000  N                0000000000000.00 0000000.00   0000000.00                             000000000000000                                                                                                                                                     01424  000000000000 0000000000000.06     01950 00200                  
00006210610360072DT67590675900000014274800102800000010180010224001193116900017088299042620230000000019911623000000000253611408544XXXXXX0192               2111111   NYV4 A7W463116551442202N840000000000199PVRF00    01DNCBD8666317293            397216    VB84000000000199 NP1549977145232   1C8937A8B3T9E25394E61AE  000000000+                K CK 00691                     000000000  N000000000 234   0000000000000.00 0000000.00   0000000.00                             000000000000000                                                                                                                                                     01424 G000000000199 0000000000000.15     02700 01000                  
00006220610360001P16759067590000001427480010280000001010000000000000000                             2000000000000000000000000              000000000000                    0000000000000000000000000                    000000000000                                                                                                                                                                                                                                                                                                                                                                                                                                                                                        
00006230610360073DT67590675900000014274800102800000010680010274001193116900017088310042620230000001206411623000000000253611440393XXXXXX9510               0000000   NYV4 07T303116562764929N840000000012064TLR400    01CNCBD8666317293            181482    VD84000000012064 NP1549977145232   E99AAF8724T8E29F3310EB4  000000000+                F PF 08168                     000000000  N000000000 369   0000000000000.00 0000000.00   0000000.00                             000000000000000                                                                                                                                                     01424  000000012064 0000000000000.00     00000 00000                  
00006240610360001P16759067590000001427480010280000001060000000000000000                             2000000000000000000000000              000000000000                    0000000000000000000000000                    000000000000                                                                                                                                                                                                                                                                                                                                                                                                                                                                                        
00006250610360074DT67590675900000014274800102800000010180010287287283116900017088340042620230000000019911623000000000253611556150XXXXXX6689                         NY 4607AMCFJ6LOZ00426  N840000000000199          81DNCBD8666317293            KK3AKB    MB84000000000199 NP1549977145232   86EEF8FB4AT83F28ACD168B  000000000+600450S00130    MCF  00060                     000000000  N                0000000000000.00 0000000.00   0000000.00                             000000000000000                                                                                                                                                     01424  000000000000 0000000000000.16     02950 01000                  
00006260610360001P1675906759000000142748001028000000101                                                          000000000000          8000            871584967                                                                                                                                                                                                                                                                                                                                                                                                                                                                                                                                                            
00006270610360075DT67590675900000014274800102800000010180010287287283116900017088365042620230000000019911623000000000253611524897XXXXXX1629                         NY 4607AMCO6VPL340426  N840000000000199          81DNCBD8666317293            CK8A4R    MB84000000000199 NP1549977145232   4CC903BB6DT3349AA67301F  000000000+600450S00130    MCO  00303                     000000000  N                0000000000000.00 0000000.00   0000000.00                             000000000000000                                                                                                                                                   U001424  000000000000 0000000000000.15     02700 01000                  
00006280610360001P1675906759000000142748001028000000101                                                          000000000000          8000            871584967                                                                                                                                                                                                                                                                                                                                                                                                                                                                                                                                                            
00006290610360076DT67590675900000014274800102800000010180010224001193116900017088380042620230000000019911623000000000253611412076XXXXXX6663               2111111   NYV4 A7W583116617461747N840000000000199V32T00    01DNCBD8666317293            202943    VS84000000000199 NP1549977145232   729FA24977T9CF3FBF911E5  000000000+                A CA 12106                     000000000  N000000000 492   0000000000000.00 0000000.00   0000000.00                             000000000000000                                                                                                                                                     01424 G000000000199 0000000000000.14     01890 01000                  
00006300610360001P16759067590000001427480010280000001010000000000000000                             2000000000000000000000000              000000000000                    0000000000000000000000000                    000000000000                                                                                                                                                                                                                                                                                                                                                                                                                                                                                        
00006310610360077DT67590675900000014274800102800000010180010224001193116900017088398042620230000000019911623000000000253611428813XXXXXX3550               2111111   NYV4 A7W583116618030942N840000000000199CF4700    01DNCBD8666317293            326268    VB84000000000199 NP1549977145232   49988C8784T2E08B63D9B7D  000000000+                S CS 00692                     000000000  N000000000 237   0000000000000.00 0000000.00   0000000.00                             000000000000000                                                                                                                                                     01424 G000000000199 0000000000000.15     02700 01000                  
00006320610360001P16759067590000001427480010280000001010000000000000000                             2000000000000000000000000              000000000000                    0000000000000000000000000                    000000000000                                                                                                                                                                                                                                                                                                                                                                                                                                                                                        
00006330610360078DT67590675900000014274800102800000010180010224001193116900017088406042620230000000019911623000000000253611404038XXXXXX3778               2111111   NYV4 A7W583116621045193N840000000000199DBT900    01DNCBD8666317293            5CMFHC    VD84000000000199 NP1549977145232   8E55DA83EDT685DB2FF17D3  000000000+                S PS 10179                     000000000  N000000000 364   0000000000000.00 0000000.00   0000000.00                             000000000000000                                                                                                                                                     01424 G000000000199 0000000000000.15     02650 01000                  
00006340610360001P16759067590000001427480010280000001010000000000000000                             2000000000000000000000000              000000000000                    0000000000000000000000000                    000000000000                                                                                                                                                                                                                                                                                                                                                                                                                                                                                        
00006350610360079DT67590675900000014274800102800000010180010287287283116900017088415042620230000000019911623000000000253611524897XXXXXX1321                         NY 4607AMCOFHN3BS0426  N840000000000199          81DNCBD8666317293            BNTZP5    MB84000000000199 NP1549977145232   DF80E198FDT36EAFE5AA887  000000000+600450S00130    MCO  00303                     000000000  N                0000000000000.00 0000000.00   0000000.00                             000000000000000                                                                                                                                                   U001424  000000000000 0000000000000.15     02700 01000                  
00006360610360001P1675906759000000142748001028000000101                                                          000000000000          8000            871584967                                                                                                                                                                                                                                                                                                                                                                                                                                                                                                                                                            
00006370610360080DT67590675900000014274800102800000010180010224001193116900017088430042620230000000138611623000000000253611443047XXXXXX1138               2111111   NYV4 A7W383116651802520N840000000001386T98Q00    01DNCBD8666317293            336710    VD84000000001386 NP1549977145232   DAF327C720T8ED6FBFEF90E  000000000+                F DF 10420                     000000000  Y000000000 338   0000000000000.00 0000000.00   0000000.00                             000000000000000                                                                                                                                                     01424 G000000001386 0000000000000.23     00050 02200                  
00006380610360001P16759067590000001427480010280000001010000000000000000                             2000000000000000000000000              000000000000                    0000000000000000000000000                    000000000000                                                                                                                                                                                                                                                                                                                                                                                                                                                                                        
00006390610360081DT67590675900000014274800102800000010180010287287283116900017088480042620230000000019911623000000000253611524897XXXXXX1812                         NY 4607AMCPH878BU0426  N840000000000199          81DNCBD8666317293            UL1RMV    MB84000000000199 NP1549977145232   38C3C8571ETD70C1F9DA332  000000000+600450S00130    MCP  00303                     000000000  N                0000000000000.00 0000000.00   0000000.00                             000000000000000                                                                                                                                                   U001424  000000000000 0000000000000.15     02700 01000                  
00006400610360001P1675906759000000142748001028000000101                                                          000000000000          8000            871584967                                                                                                                                                                                                                                                                                                                                                                                                                                                                                                                                                            
00006410610360082DT67590675900000014274800102800000010180010287287283116900017088506042620230000000019911623000000000253611553231XXXXXX3925                         NY 4607AMCFBQDK5W0426  N840000000000199          81DNCBD8666317293            QXFYW1    MB84000000000199 NP1549977145232   8B58A4C2DBT9DECBCFA4A39  000000000+600450S00130    MCF  00060                     000000000  N                0000000000000.00 0000000.00   0000000.00                             000000000000000                                                                                                                                                   U001424  000000000000 0000000000000.16     02950 01000                  
00006420610360001P1675906759000000142748001028000000101                                                          000000000000          8000            871584967                                                                                                                                                                                                                                                                                                                                                                                                                                                                                                                                                            
00006430610360083DT67590675900000014274800102800000010680010287287283116900017088522042620230000002160911623000000000253611517546XXXXXX2635                         NY 4607AMDJHYCPBS0426  N840000000021609          81CNCBD8666317293            026373    MD84000000021609 N  549977145232   218AE23F38TD58732AD567D  000000000+600450S00130    MDJ  10828                     000000000  1                0000000000000.00 0000000.00   0000000.00                             000000000000000                                                                                                                                                     01424  000000000000 0000000000000.00     00000 00000                  
00006440610360084DT67590675900000014274800102800000010680010274001193116900017088567042620230000000536411623000000000253611440393XXXXXX5120               0000000   NYV4 07T383116695373895N840000000005364ZP8700    01CNCBD8666317293            464722    VD84000000005364 NP1549977145232   F9F575679ET837C586AF2C5  000000000+                F PF 08168                     000000000  N000000000 369   0000000000000.00 0000000.00   0000000.00                             000000000000000                                                                                                                                                     01424  000000005364 0000000000000.00     00000 00000                  
