00004760055330002BH6759067590000001427480010280000090170302202306123000000000420471    0000090001150905Y8001026759C03032023                                                                                                                                                                                                                                                                                                                                                                                                                                                                                                                                                                                                 
00004770055330003DT67590675900000014274800102800000010180010287287283061900011506284030120230000000700406123000000000420471540997XXXXXX3803       ME03KE06MS02      NY 4607AMDJ17X2GQ0226  N840000000007004          81DNCBD8666317293            023581    MD84000000007004 N  549977145232   0B6F703989T9FE264695D12  000000000+600450S00130    MDJ  10813                     000000000  1                0000000000000.00 0000000.00   0000000.00                             000000000000000                                                                                                                                                   U001424  000000000000 0000000000000.26     00050 02200                  
00004780055330004DT67590675900000014274800102800000010180010224001193061900011508388030120230000000659906123000000000420471481583XXXXXX1824               2111111   NYV4 A7W303061036402627N840000000006599WW2G00    01DNCBD8666317293            120609    VD84000000006599 NP1549977145232   1CA5AB4D24T9DE06497FCEA  000000000+                F DF 10420                     000000000  Y000000000 338   0000000000000.00 0000000.00   0000000.00                             000000000000000                                                                                                                                                     01424 G000000006599 0000000000000.25     00050 02200                  
00004790055330001P16759067590000001427480010280000001010000000000000000                             2000000000000000000000000              000000000000                    0000000000000000000000000                    000000000000                                                                                                                                                                                                                                                                                                                                                                                                                                                                                        
00004800055330005DT67590675900000014274800102800000010180010224001193061900011508396030120230000002487006123000000000420471442793XXXXXX7394               2111111   NYV4 A7W583061038301094N840000000024870MZ5H00    01DNCBD8666317293            469310    VD84000000024870 NP1549977145232   5C8B44B1ABT65DCBBEDC159  000000000+                F DF 10420                     000000000  Y000000000 338   0000000000000.00 0000000.00   0000000.00                             000000000000000                                                                                                                                                     01424 G000000024870 0000000000000.34     00050 02200                  
00004810055330001P16759067590000001427480010280000001010000000000000000                             2000000000000000000000000              000000000000                    0000000000000000000000000                    000000000000                                                                                                                                                                                                                                                                                                                                                                                                                                                                                        
00004820055330006DT67590675900000014274800102800000010180010287287283061900011508454030120230000000160706123000000000420471521730XXXXXX7523       ME03KE06MS02      NY 4607AMDJN9R1W50301  N840000000001607          81DNCBD8666317293            010402    MD84000000001607 N  549977145232   1EBA6A4E33T88127328D01F  000000000+600450S00130    MDJ  10813                     000000000  1                0000000000000.00 0000000.00   0000000.00                             000000000000000                                                                                                                                                   U001424  000000000000 0000000000000.23     00050 02200                  
00004830055330007DT67590675900000014274800102800000010180010287287283061900011508470030120230000002636206123000000000420471524364XXXXXX6289       ME03KE06MS02      NY 4607AMPLRVQOZ00301  N840000000026362          81DNCBD8666317293            00117Z    MC84000000026362 N  549977145232   29CF052374T434430B5F3FB  000000000+600450S00130    MPL  00013                     000000000  N                0000000000000.00 0000000.00   0000000.00                             000000000000000                                                                                                                                                   U001424  000000000000 0000000000005.24     01950 01000                  
00004840055330008DT67590675900000014274800102800000010180010287287283061900011508488030120230000001907006123000000000420471542418XXXXXX1727       ME03KE06MS02      NY 4607AMWEK9JCZ00301  N840000000019070          81DNCBD8666317293            41372P    MC84000000019070 N  549977145232   10A4E36634T0CDCBF746336  000000000+600450S00130    MWE  00737                     000000000  N                0000000000000.00 0000000.00   0000000.00                             000000000000000                                                                                                                                                   U001424  000000000000 0000000000005.06     02600 01000                  
00004850055330009DT67590675900000014274800102800000010180010287287283061900011508504030120230000002654906123000000000420471550939XXXXXX6628       ME03KE06MS02      NY 4607AMDSCEA0Z60301  N840000000026549          81DNCBD8666317293            298272    MD84000000026549 N  549977145232   FB1E137F32T3A573D4ED37E  000000000+600450S00130    MDS  00401                     000000000  N                0000000000000.00 0000000.00   0000000.00                             000000000000000                                                                                                                                                   U001424  000000000000 0000000000004.53     01650 01500                  
00004860055330010DT67590675900000014274800102800000010180010224001193061900011508511030120230000002207606123000000000420471486108XXXXXX4792               2111111   NYV4 A7W303061215950017N840000000022076PWGM00    01DNCBD8666317293            503276    VD84000000022076 NP1549977145232   5D655F2433T13DBF73CC3CB  000000000+                F DF 00415                     000000000  N000000000       0000000000000.00 0000000.00   0000000.00                             000000000000000                                                                                                                                                     01424 G000000022076 0000000000003.79     01650 01500                  
00004870055330001P16759067590000001427480010280000001010000000000000000                             2000000000000000000000000              000000000000                    0000000000000000000000000                    000000000000                                                                                                                                                                                                                                                                                                                                                                                                                                                                                        
00004880055330011DT67590675900000014274800102800000010180010287287283061900011508520030220230000001499106123000000000420471527505XXXXXX2311       ME03KE06MS02      NY 4607AMDJ0LRN5I0302  N840000000014991          81DNCBD8666317293            924984    MD84000000014991 N  549977145232   3272B8081FTF4AC5392709A  000000000+600450S00130    MDJ  10813                     000000000  1                0000000000000.00 0000000.00   0000000.00                             000000000000000                                                                                                                                                   U001424  000000000000 0000000000000.29     00050 02200                  
00004890055330012DT67590675900000014274800102800000010180010287287283061900011508595030220230000002642406123000000000420471533248XXXXXX0690       ME03KE06MS02      NY 4607AMPVCGID7G0302  N840000000026424          81DNCBD8666317293            KMQEOC    MD84000000026424 N  549977145232   D113FE7562T3D5C858B9224  000000000+600450S00130    MPV  09899                     000000000  N                0000000000000.00 0000000.00   0000000.00                             000000000000000                                                                                                                                                   U001424  000000000000 0000000000004.85     01760 02000                  
00004900055330013DT67590675900000014274800102800000010180010224001193061900011508602030220230000001987006123000000000420471434258XXXXXX0372               2111111   NYV4 A7W463061474217275N8400000000198704PPN00    01DNCBD8666317293            076919    VD84000000019870 NP1549977145232   FE5B8FF9B4T68EBC1B42048  000000000+                F DF 10420                     000000000  Y000000000 338   0000000000000.00 0000000.00   0000000.00                             000000000000000                                                                                                                                                     01424 G000000019870 0000000000000.32     00050 02200                  
00004910055330001P16759067590000001427480010280000001010000000000000000                             2000000000000000000000000              000000000000                    0000000000000000000000000                    000000000000                                                                                                                                                                                                                                                                                                                                                                                                                                                                                        
00004920055330014DT67590675900000014274800102800000010180010224001193061900011508644030220230000002647006123000000000420471414512XXXXXX8063               2111111   NYV4 A7W583061511306404N840000000026470GZMC00    01DNCBD8666317293            002425    VS84000000026470 NP1549977145232   DE8311DBBAT219CB6DDF117  000000000+                D CD 12109                     000000000  N000000000 498   0000000000000.00 0000000.00   0000000.00                             000000000000000                                                                                                                                                     01424 G000000026470 0000000000006.72     02500 01000                  
00004930055330001P16759067590000001427480010280000001010000000000000000                             2000000000000000000000000              000000000000                    0000000000000000000000000                    000000000000                                                                                                                                                                                                                                                                                                                                                                                                                                                                                        
00004940055330015DT67590675900000014274800102800000010180010224001193061900011508685030220230000001987006123000000000420471414720XXXXXX6310               2111111   NYV4 A7W583061515678240N8400000000198703BNV00    01DNCBD8666317293            07832C    VS84000000019870 NP1549977145232   7278099ECBTF735E2265928  000000000+                C CC 12108                     000000000  N000000000 496   0000000000000.00 0000000.00   0000000.00                             000000000000000                                                                                                                                                     01424 G000000019870 0000000000004.17     02050 01000                  
00004950055330001P16759067590000001427480010280000001010000000000000000                             2000000000000000000000000              000000000000                    0000000000000000000000000                    000000000000                                                                                                                                                                                                                                                                                                                                                                                                                                                                                        
00004960055330016DT67590675900000014274800102800000010180010224001193061900011508719030220230000002458006123000000000420471420231XXXXXX0697               2111111   NYV4 A7W303061517335175N840000000024580325R00    01DNCBD8666317293            802022    VS84000000024580 NP1549977145232   2BF7D36DEFT32AE85C5E2B6  000000000+                C CC 12108                     000000000  N000000000 496   0000000000000.00 0000000.00   0000000.00                             000000000000000                                                                                                                                                     01424 G000000024580 0000000000005.14     02050 01000                  
00004970055330001P16759067590000001427480010280000001010000000000000000                             2000000000000000000000000              000000000000                    0000000000000000000000000                    000000000000                                                                                                                                                                                                                                                                                                                                                                                                                                                                                        
00004980055330017DT67590675900000014274800102800000010180010224001193061900011508743030220230000000759906123000000000420471410039XXXXXX3062               2111111   NYV4 A7W303061531033248N840000000007599RPQ900    01DNCBD8666317293            57221C    VS84000000007599 NP1549977145232   0A10026F28T434E25092AC0  000000000+                C CC 12108                     000000000  N000000000 496   0000000000000.00 0000000.00   0000000.00                             000000000000000                                                                                                                                                     01424 G000000007599 0000000000001.66     02050 01000                  
00004990055330001P16759067590000001427480010280000001010000000000000000                             2000000000000000000000000              000000000000                    0000000000000000000000000                    000000000000                                                                                                                                                                                                                                                                                                                                                                                                                                                                                        
00005000055330018DT67590675900000014274800102800000010180010224001193061900011508750030220230000000149506123000000000420471410039XXXXXX3062               2111111   NYV4 A7W463061531759675N8400000000014956JW600    01DNCBD8666317293            10667C    VS84000000001495 NP1549977145232   0A10026F28T0D538C72F01A  000000000+                C CC 12108                     000000000  N000000000 496   0000000000000.00 0000000.00   0000000.00                             000000000000000                                                                                                                                                     01424 G000000001495 0000000000000.41     02050 01000                  
00005010055330001P16759067590000001427480010280000001010000000000000000                             2000000000000000000000000              000000000000                    0000000000000000000000000                    000000000000                                                                                                                                                                                                                                                                                                                                                                                                                                                                                        
00005020055330019DT67590675900000014274800102800000010680010287287283061900011508769030220230000000149506123000000000420471527690XXXXXX5443                         NY 4607AMDJS2BWPG0302  N840000000001495          81CNCBD8666317293            002731    MD84000000001495 N  549977145232   3DFEB0E294TAD86EA436563  000000000+600450S00130    MDJ  00560                     000000000  N                0000000000000.00 0000000.00   0000000.00                             000000000000000                                                                                                                                                     01424  000000000000 0000000000000.00     00000 00000                  
00005030055330020DT67590675900000014274800102800000010180010287287283061900011508777030220230000000542806123000000000420471545918XXXXXX8441       ME03KE06MS02      NY 4607AMDSKD5VPF0302  N840000000005428          81DNCBD8666317293            995856    MD84000000005428 N  549977145232   E5AF7564FBTAC4C6E0494A7  000000000+600450S00130    MDS  00401                     000000000  N                0000000000000.00 0000000.00   0000000.00                             000000000000000                                                                                                                                                   U001424  000000000000 0000000000001.05     01650 01500                  
00005040055330021DT67590675900000014274800102800000010680010274001193061900011508847030220230000002126106123000000000420471426684XXXXXX7326               0000000   NYV4 07T383061657861080N840000000021261MF9G00    01CNCBD8666317293            08794C    VS84000000021261 NP1549977145232   DAF3E28FF7T7D6645503554  000000000+                C CC 00245                     000000000  N000000000 166   0000000000000.00 0000000.00   0000000.00                             000000000000000                                                                                                                                                     01424  000000021261-0000000000003.74     01760 00000                  
00005050055330001P16759067590000001427480010280000001060000000000000000                             2000000000000000000000000              000000000000                    0000000000000000000000000                    000000000000                                                                                                                                                                                                                                                                                                                                                                                                                                                                                        
00005060055330022DT67590675900000014274800102800000010180010224001193061900011508867030220230000001499106123000000000420471438482XXXXXX2081               2111111   NYV4 A7W463061669843468N840000000014991RBQ500    01DNCBD8666317293            833313    VD84000000014991 NP1549977145232   562BE74E5ATC670B4594793  000000000+                F DF 00415                     000000000  N000000000       0000000000000.00 0000000.00   0000000.00                             000000000000000                                                                                                                                                     01424 G000000014991 0000000000002.62     01650 01500                  
00005070055330001P16759067590000001427480010280000001010000000000000000                             2000000000000000000000000              000000000000                    0000000000000000000000000                    000000000000                                                                                                                                                                                                                                                                                                                                                                                                                                                                                        
00005080055330023DT67590675900000014274800102800000010180010287287283061900011508892030220230000001826906123000000000420471514616XXXXXX6497       ME03KE06MS02      NY 4607AMDJVFATGX0302  N840000000018269          81DNCBD8666317293            D5A935    MD84000000018269 N  549977145232   007AB78911TD1C921622F6B  000000000+600450S00130    MDJ  00401                     000000000  N                0000000000000.00 0000000.00   0000000.00                             000000000000000                                                                                                                                                   U001424  000000000000 0000000000003.16     01650 01500                  
00005090055330024DT67590675900000014274800102800000010180010287287283061900011508918030220230000002487006123000000000420471557729XXXXXX4393                         NY 4607AMABQQT3GY0302  N840000000024870          81DNCBD8666317293            40206E    MB84000000024870 NP1549977145232   46216DFE95T7BCD71A44321  000000000+600450S00130    MAB  02663                     000000000  N                0000000000000.00 0000000.00   0000000.00                             000000000000000                                                                                                                                                   U001424  000000000000 0000000000007.06     02800 01000                  
00005100055330001P1675906759000000142748001028000000101                                                          000000000000          8000            871584967                                                                                                                                                                                                                                                                                                                                                                                                                                                                                                                                                            
00005110055330025DT67590675900000014274800102800000010180010287287283061900011508967030220230000002487006123000000000420471552433XXXXXX7389       ME03KE06PT01      NY 4607AMCWVIWXSE0302  N840000000024870          81DNCBD8666317293            04252S    MC84000000024870 N  549977145232   ADC68EA22DT56A4F51D2834  000000000+600450S00130    MCW  02182                     000000000  N                0000000000000.00 0000000.00   0000000.00                             000000000000000                                                                                                                                                   U001424  000000000000 0000000000006.57     02600 01000                  
00005120055330026DT67590675900000014274800102800000010180010224001193061900011508982030220230000001200806123000000000420471442756XXXXXX8185               2111111   NYV4 A7W463061806599733N840000000012008KP6Z00    01DNCBD8666317293            092417    VD84000000012008 NP1549977145232   AE9D84EDCCT94023B0F61AF  000000000+                F DF 10420                     000000000  Y000000000 338   0000000000000.00 0000000.00   0000000.00                             000000000000000                                                                                                                                                     01424 G000000012008 0000000000000.28     00050 02200                  
00005130055330001P16759067590000001427480010280000001010000000000000000                             2000000000000000000000000              000000000000                    0000000000000000000000000                    000000000000                                                                                                                                                                                                                                                                                                                                                                                                                                                                                        
00005140055330027DT67590675900000014274800102800000010180010287287283061900011508991030220230000002147906123000000000420471518941XXXXXX5381       ME03KE06MS02      NY 4607AMWEZU1TGX0302  N840000000021479          81DNCBD8666317293            08012Z    MC84000000021479 N  549977145232   F4C041E3EFT1F3C3D478E51  000000000+600450S00130    MWE  00737                     000000000  N                0000000000000.00 0000000.00   0000000.00                             000000000000000                                                                                                                                                   U001424  000000000000 0000000000005.68     02600 01000                  
00005150055330028DT67590675900000014274800102800000010180010224001193061900011509022030220230000000659906123000000000420471442218XXXXXX1602               2111111   NYV4 A7W583061826280437N840000000006599QPFS00    01DNCBD8666317293            501390    VD84000000006599 NP1549977145232   1ED29AF4E5T0D5DDD9BCF30  000000000+                F DF 00415                     000000000  N000000000       0000000000000.00 0000000.00   0000000.00                             000000000000000                                                                                                                                                     01424 G000000006599 0000000000001.24     01650 01500                  
00005160055330001P16759067590000001427480010280000001010000000000000000                             2000000000000000000000000              000000000000                    0000000000000000000000000                    000000000000                                                                                                                                                                                                                                                                                                                                                                                                                                                                                        
00005170055330029DT67590675900000014274800102800000010180010224001193061900011509048030220230000002428606123000000000420471426752XXXXXX9452               2111111   NYV4 A7W383061846765771N840000000024286D8TT00    01DNCBD8666317293            552573    VD84000000024286 NP1549977145232   972CA483A4T1311D5740E39  000000000+                F PF 08175                     000000000  N000000000       0000000000000.00 0000000.00   0000000.00                             000000000000000                                                                                                                                                     01424 G000000024286 0000000000004.45     01750 02000                  
00005180055330001P16759067590000001427480010280000001010000000000000000                             2000000000000000000000000              000000000000                    0000000000000000000000000                    000000000000                                                                                                                                                                                                                                                                                                                                                                                                                                                                                        
00005190055330030DT67590675900000014274800102800000010180010224001193061900011509055030220230000001499106123000000000420471443045XXXXXX6185               2111111   NYV4 A7W463061857984446N840000000014991T2ZJ00    01DNCBD8666317293            739929    VD84000000014991 NP1549977145232   FE20E0ADBAT17178D685455  000000000+                F DF 10420                     000000000  Y000000000 338   0000000000000.00 0000000.00   0000000.00                             000000000000000                                                                                                                                                     01424 G000000014991 0000000000000.29     00050 02200                  
00005200055330001P16759067590000001427480010280000001010000000000000000                             2000000000000000000000000              000000000000                    0000000000000000000000000                    000000000000                                                                                                                                                                                                                                                                                                                                                                                                                                                                                        
00005210055330031BH6759067590000000370780088880000090170302202306123000000000088991    0000090001480333Y8008886759C03032023                                                                                                                                                                                                                                                                                                                                                                                                                                                                                                                                                                                                 
00005220055330032DT67590675900000003707800888800000010180088824001193061900014803281030120230000001384506123000000000088991460819XXXXXX8383               2111111   NYV4 A7W383061062409219N840000000013845L56700    01DNMR HEMP FLOWER           640060    VS84000000013845 NP1549976053336   86587                    000000000+                B CB 12107                     000000000  N000000000 494   0000000000000.00 0000000.00   0000000.00                             000000000000000                                                                                                                                                     01424 G000000013845 0000000000002.92     02040 01000                  
00005230055330001P16759067590000000370780088880000001010000000000000000                             2000000000000000000000000              000000000000                    0000000000000000000000000                    000000000000                                                                                                                                                                                                                                                                                                                                                                                                                                                                                        
00005240055330033DT67590675900000003707800888800000010180088824001193061900014803299030120230000001800006123000000000088991414740XXXXXX6811               2111111   NYV4 A7W303061075879770N840000000018000JV8L00    01DNMR HEMP FLOWER           08840D    VS84000000018000 NP1549976053336   86588                    000000000+                D CD 12109                     000000000  N000000000 498   0000000000000.00 0000000.00   0000000.00                             000000000000000                                                                                                                                                     01424 G000000018000 0000000000004.60     02500 01000                  
00005250055330001P16759067590000000370780088880000001010000000000000000                             2000000000000000000000000              000000000000                    0000000000000000000000000                    000000000000                                                                                                                                                                                                                                                                                                                                                                                                                                                                                        
00005260055330034DT67590675900000003707800888800000010180088824001193061900014803307030220230000001024906123000000000088991480694XXXXXX6356               2111111   NYV4 A7W583061474378602N840000000010249BPPC00    01DNMR HEMP FLOWER           071037    VD84000000010249 NP1549976053336   86605                    000000000+                F DF 00415                     000000000  N000000000       0000000000000.00 0000000.00   0000000.00                             000000000000000                                                                                                                                                     01424 G000000010249 0000000000001.84     01650 01500                  
00005270055330001P16759067590000000370780088880000001010000000000000000                             2000000000000000000000000              000000000000                    0000000000000000000000000                    000000000000                                                                                                                                                                                                                                                                                                                                                                                                                                                                                        
00005280055330035DT67590675900000003707800888800000010180088824001193061900014803315030220230000003299906123000000000088991484722XXXXXX8648               2111111   NYV4 A7W383061560417999N840000000032999S6SG00    01DNMR HEMP FLOWER           002420    VS84000000032999 NP1549976053336   86613                    000000000+                C CC 12108                     000000000  N000000000 496   0000000000000.00 0000000.00   0000000.00                             000000000000000                                                                                                                                                     01424 G000000032999 0000000000006.86     02050 01000                  
00005290055330001P16759067590000000370780088880000001010000000000000000                             2000000000000000000000000              000000000000                    0000000000000000000000000                    000000000000                                                                                                                                                                                                                                                                                                                                                                                                                                                                                        
00005300055330036DT67590675900000003707800888800000010180088887287283061900014803324030220230000001124906123000000000088991546616XXXXXX5509       ME03KE06PT01      NY 4607AMCWVURIPG0302  N840000000011249          81DNMR HEMP FLOWER           60049S    MC84000000011249 N  549976053336   86615                    000000000+600450S00130    MCW  02182                     000000000  N                0000000000000.00 0000000.00   0000000.00                             000000000000000                                                                                                                                                   U001424  000000000000 0000000000003.02     02600 01000                  
00005310055330037DT67590675900000003707800888800000010180088887287283061900014803332030220230000000264906123000000000088991519269XXXXXX6797                         NY 4607AMCSXJQCGX0302  N840000000002649          81DNMR HEMP FLOWER           00911Z    MC84000000002649FN  549976053336   86624                    000000000+600450S00130    MCS  12226                     0000000161 N                0000000000000.00 0000000.00   0000000.00                             000000000000000                                                                                                                                                     01424  000000000000 0000000000000.42     01600 00000                  
00005320055330038BH6759067590000001516480088880000090170302202306123000000000181782    0000090001020038Y8008886759C03032023                                                                                                                                                                                                                                                                                                                                                                                                                                                                                                                                                                                                 
00005330055330039DT67590675900000015164800888800000010180088824001193061900010200110030120230000002487006123000000000181782414518XXXXXX0410               2111111   NYV4 A7W463061061063132N840000000024870XCZW00    01DNKETOFUSION477.COM        019378    VD84000000024870 NP1599977360677   CFEE55B36AT3FF598B11D81  000000000+                F DF 00415                     000000000  N000000000       0000000000000.00 0000000.00   0000000.00                             000000000000000                                                                                                                                                     01424 G000000024870 0000000000004.25     01650 01500                  
00005340055330001P16759067590000001516480088880000001010000000000000000                             2000000000000000000000000              000000000000                    0000000000000000000000000                    000000000000                                                                                                                                                                                                                                                                                                                                                                                                                                                                                        
00005350055330040DT67590675900000015164800888800000010180088824001193061900010200227030120230000001194806123000000000181782473702XXXXXX7201               2111111   NYV4 A7W383061062005216N8400000000119486XT800    01DNKETOFUSION477.COM        015947    VD84000000011948 NP1599977360677   A705C2B213TA1700C647129  000000000+                F DF 10420                     000000000  Y000000000 338   0000000000000.00 0000000.00   0000000.00                             000000000000000                                                                                                                                                     01424 G000000011948 0000000000000.28     00050 02200                  
00005360055330001P16759067590000001516480088880000001010000000000000000                             2000000000000000000000000              000000000000                    0000000000000000000000000                    000000000000                                                                                                                                                                                                                                                                                                                                                                                                                                                                                        
00005370055330041DT67590675900000015164800888800000010180088824001193061900010200243030220230000001987006123000000000181782483316XXXXXX6422               2111111   NYV4 A7W463061578949999N840000000019870T6MH00    01DNKETOFUSION477.COM        040411    VD84000000019870 NP1599977360677   031ACB092BTF756EFFC7EA9  000000000+                F DF 10420                     000000000  Y000000000 338   0000000000000.00 0000000.00   0000000.00                             000000000000000                                                                                                                                                     01424 G000000019870 0000000000000.32     00050 02200                  
00005380055330001P16759067590000001516480088880000001010000000000000000                             2000000000000000000000000              000000000000                    0000000000000000000000000                    000000000000                                                                                                                                                                                                                                                                                                                                                                                                                                                                                        
00005390055330042DT67590675900000015164800888800000010180088824001193061900010200276030220230000001987006123000000000181782420767XXXXXX8603               2111111   NYV4 A7W463061717206215N84000000001987077RZ00    01DNKETOFUSION477.COM        005514    VD84000000019870 NP1599977360677   06D25915D5T6E6FED563896  000000000+                F DF 10420                     000000000  Y000000000 338   0000000000000.00 0000000.00   0000000.00                             000000000000000                                                                                                                                                     01424 G000000019870 0000000000000.32     00050 02200                  
00005400055330001P16759067590000001516480088880000001010000000000000000                             2000000000000000000000000              000000000000                    0000000000000000000000000                    000000000000                                                                                                                                                                                                                                                                                                                                                                                                                                                                                        
00005410055330043DT67590675900000015164800888800000010180088824001193061900010200284030220230000001987006123000000000181782414720XXXXXX6245               2111111   NYV4 A7W583061766782375N840000000019870M9LN00    01DNKETOFUSION477.COM        02758C    VS84000000019870 NP1599977360677   DB147BA41BT1161EECD2C91  000000000+                C CC 12108                     000000000  N000000000 496   0000000000000.00 0000000.00   0000000.00                             000000000000000                                                                                                                                                     01424 G000000019870 0000000000004.17     02050 01000                  
00005420055330001P16759067590000001516480088880000001010000000000000000                             2000000000000000000000000              000000000000                    0000000000000000000000000                    000000000000                                                                                                                                                                                                                                                                                                                                                                                                                                                                                        
00005430055330044DT67590675900000015164800888800000010180088824001193061900010200300030220230000001987006123000000000181782417903XXXXXX0809               2111111   NYV4 A7W303061830982679N840000000019870HG3M00    01DNKETOFUSION477.COM        712040    VS84000000019870 NP1599977360677   B3F15D91A9TC00E05E6BB3D  000000000+                D CD 12109                     000000000  N000000000 498   0000000000000.00 0000000.00   0000000.00                             000000000000000                                                                                                                                                     01424 G000000019870 0000000000005.07     02500 01000                  
00005440055330001P16759067590000001516480088880000001010000000000000000                             2000000000000000000000000              000000000000                    0000000000000000000000000                    000000000000                                                                                                                                                                                                                                                                                                                                                                                                                                                                                        
00005450055330045DT67590675900000015164800888800000010180088824001193061900010200318030220230000000654806123000000000181782417903XXXXXX0809               2111111   NYV4 A7W583061831276190N8400000000065485PK400    01DNKETOFUSION477.COM        712050    VS84000000006548 NP1599977360677   B3F15D91A9TDE75E0595315  000000000+                D CD 12109                     000000000  N000000000 498   0000000000000.00 0000000.00   0000000.00                             000000000000000                                                                                                                                                     01424 G000000006548 0000000000001.74     02500 01000                  
00005460055330001P16759067590000001516480088880000001010000000000000000                             2000000000000000000000000              000000000000                    0000000000000000000000000                    000000000000                                                                                                                                                                                                                                                                                                                                                                                                                                                                                        
00005470055330046DT67590675900000015164800888800000010180088824001193061900010200326030220230000000519006123000000000181782417903XXXXXX0809               2111111   NYV4 A7W463061831387339N840000000005190TSJK00    01DNKETOFUSION477.COM        712050    VS84000000005190 NP1599977360677   B3F15D91A9T924C9266598D  000000000+                D CD 12109                     000000000  N000000000 498   0000000000000.00 0000000.00   0000000.00                             000000000000000                                                                                                                                                     01424 G000000005190 0000000000001.40     02500 01000                  
00005480055330001P16759067590000001516480088880000001010000000000000000                             2000000000000000000000000              000000000000                    0000000000000000000000000                    000000000000                                                                                                                                                                                                                                                                                                                                                                                                                                                                                        
00005490055330047DT67590675900000015164800888800000010180088887287283061900010200343030220230000002487006123000000000181782533248XXXXXX0689       ME03KE06MS02      NY 4607AMPVHFD1I80302  N840000000024870          81DNKETOFUSION477.COM        KPZ229    MD84000000024870 N  599977360677   1B3DA8F4C7T297D75E7332C  000000000+600450S00130    MPV  09899                     000000000  N                0000000000000.00 0000000.00   0000000.00                             000000000000000                                                                                                                                                   U001424  000000000000 0000000000004.58     01760 02000                  
00005500055330048DT67590675900000015164800888800000010180088887287283061900010200350030220230000000654806123000000000181782533248XXXXXX0689       ME03KE06MS02      NY 4607AMPVNFIVT80302  N840000000006548          81DNKETOFUSION477.COM        KPXUSA    MD84000000006548 N  599977360677   1B3DA8F4C7T35E88A77AFFA  000000000+600450S00130    MPV  09899                     000000000  N                0000000000000.00 0000000.00   0000000.00                             000000000000000                                                                                                                                                   U001424  000000000000 0000000000001.35     01760 02000                  
00005510055330049DT67590675900000015164800888800000010180088887287283061900010200368030220230000000519006123000000000181782533248XXXXXX0689       ME03KE06MS02      NY 4607AMPVF9D3UD0302  N840000000005190          81DNKETOFUSION477.COM        KPZ2RX    MD84000000005190 N  599977360677   1B3DA8F4C7T9CEBC2CC0594  000000000+600450S00130    MPV  09899                     000000000  N                0000000000000.00 0000000.00   0000000.00                             000000000000000                                                                                                                                                   U001424  000000000000 0000000000001.11     01760 02000                  
00005520055330050DT67590675900000015164800888800000010180088824001193061900010200375030220230000001194806123000000000181782407624XXXXXX1953               2111111   NYV4 A7W303061842332701N840000000011948M36Z00    01DNKETOFUSION477.COM        176696    VD84000000011948 NP1599977360677   BF688BE1F1T941ACB76974F  000000000+                F DF 00415                     000000000  N000000000       0000000000000.00 0000000.00   0000000.00                             000000000000000                                                                                                                                                     01424 G000000011948 0000000000002.12     01650 01500                  
00005530055330001P16759067590000001516480088880000001010000000000000000                             2000000000000000000000000              000000000000                    0000000000000000000000000                    000000000000                                                                                                                                                                                                                                                                                                                                                                                                                                                                                        
00005540055330051DT67590675900000015164800888800000010180088887287283061900010200384030220230000000519006123000000000181782511786XXXXXX9506       ME03KE06MS02      NY 4607AMCSNVQRT80302  N840000000005190          81DNKETOFUSION477.COM        05093B    MC84000000005190 N  599977360677   6A44BEB78FT5D794AD159F0  000000000+600450S00130    MCS  00580                     000000000  N                0000000000000.00 0000000.00   0000000.00                             000000000000000                                                                                                                                                   U001424  000000000000 0000000000001.19     02100 01000                  
00005550055330052BH6759067590000000288180088880000090170302202306123000000000022603    0000090001670140Y8008886759C03032023                                                                                                                                                                                                                                                                                                                                                                                                                                                                                                                                                                                                 
00005560055330053DT67590675900000002881800888800000010180088887287283061900016701401030220230000002260306123000000000022603542418XXXXXX8823       ME03KE06MS02      NY 4607AMPLSWUXSF0302  N840000000022603          81DNHAPPY HIPPIE             11245B    MC84000000022603 N  549976044904   1959                     000000000+600450S00130    MPL  00580                     000000000  N                0000000000000.00 0000000.00   0000000.00                             000000000000000                                                                                                                                                   U001424  000000000000 0000000000004.85     02100 01000                  
00005570055330054BH6759067590000001330080010280000090170302202306123000000000373298    0000090001150844Y8001026759C03032023                                                                                                                                                                                                                                                                                                                                                                                                                                                                                                                                                                                                 
00005580055330055DT67590675900000013300800102800000010180010224001193061900011507562030220230000000659906123000000000373298442868XXXXXX6053               2111111   NYV4 A7W303061533437519N84000000000659949T900    01DNCBD8666317293            002825    VS84000000006599 NP1549977133133   9FC792ADE7T2F5D70221730  000000000+                A CA 12106                     000000000  N000000000 492   0000000000000.00 0000000.00   0000000.00                             000000000000000                                                                                                                                                     01424 G000000006599 0000000000001.35     01890 01000                  
00005590055330001P16759067590000001330080010280000001010000000000000000                             2000000000000000000000000              000000000000                    0000000000000000000000000                    000000000000                                                                                                                                                                                                                                                                                                                                                                                                                                                                                        
00005600055330056DT67590675900000013300800102800000010180010224001193061900011507570030220230000002487006123000000000373298403766XXXXXX0036               2111111   NYV4 A7W303061536085105N840000000024870XMF300    01DNCBD8666317293            802035    VS84000000024870 NP1549977133133   0EC5147DE6TDCB7062362BD  000000000+                C CC 12108                     000000000  N000000000 496   0000000000000.00 0000000.00   0000000.00                             000000000000000                                                                                                                                                     01424 G000000024870 0000000000005.20     02050 01000                  
00005610055330001P16759067590000001330080010280000001010000000000000000                             2000000000000000000000000              000000000000                    0000000000000000000000000                    000000000000                                                                                                                                                                                                                                                                                                                                                                                                                                                                                        
00005620055330057DT67590675900000013300800102800000010180010224001193061900011507679030220230000001272806123000000000373298498503XXXXXX2087               2111111   NYV4 A7W303061564798699N840000000012728KJHL00    01DNCBD8666317293            066215    VD84000000012728 NP1549977133133   031937FFB8T69149DB6C1D0  000000000+                F DF 00415                     000000000  N000000000       0000000000000.00 0000000.00   0000000.00                             000000000000000                                                                                                                                                     01424 G000000012728 0000000000002.25     01650 01500                  
00005630055330001P16759067590000001330080010280000001010000000000000000                             2000000000000000000000000              000000000000                    0000000000000000000000000                    000000000000                                                                                                                                                                                                                                                                                                                                                                                                                                                                                        
00005640055330058DT67590675900000013300800102800000010180010224001193061900011507703030220230000001499106123000000000373298446542XXXXXX5161               2111111   NYV4 A7W383061572582056N840000000014991SZNQ00    01DNCBD8666317293            002453    VS84000000014991 NP1549977133133   50C77A6502T4D170D14BFD5  000000000+                D CD 12109                     000000000  N000000000 498   0000000000000.00 0000000.00   0000000.00                             000000000000000                                                                                                                                                     01424 G000000014991 0000000000003.85     02500 01000                  
00005650055330001P16759067590000001330080010280000001010000000000000000                             2000000000000000000000000              000000000000                    0000000000000000000000000                    000000000000                                                                                                                                                                                                                                                                                                                                                                                                                                                                                        
00005660055330059DT67590675900000013300800102800000010180010224001193061900011507737030220230000000759906123000000000373298447098XXXXXX8345               2111111   NYV4 A7W303061575630446N8400000000075992PT500    01DNCBD8666317293            095923    VD84000000007599 NP1549977133133   05BF0C2FC5T2B28442AF406  000000000+                F DF 00415                     000000000  N000000000       0000000000000.00 0000000.00   0000000.00                             000000000000000                                                                                                                                                     01424 G000000007599 0000000000001.40     01650 01500                  
00005670055330001P16759067590000001330080010280000001010000000000000000                             2000000000000000000000000              000000000000                    0000000000000000000000000                    000000000000                                                                                                                                                                                                                                                                                                                                                                                                                                                                                        
00005680055330060DT67590675900000013300800102800000010180010224001193061900011507745030220230000000149506123000000000373298447098XXXXXX8345               2111111   NYV4 A7W583061576296392N840000000001495TMR600    01DNCBD8666317293            000029    VD84000000001495 NP1549977133133   05BF0C2FC5T8389E6DC9BBE  000000000+                F DF 00415                     000000000  N000000000       0000000000000.00 0000000.00   0000000.00                             000000000000000                                                                                                                                                     01424 G000000001495 0000000000000.40     01650 01500                  
00005690055330001P16759067590000001330080010280000001010000000000000000                             2000000000000000000000000              000000000000                    0000000000000000000000000                    000000000000                                                                                                                                                                                                                                                                                                                                                                                                                                                                                        
00005700055330061DT67590675900000013300800102800000010180010287287283061900011507753030220230000001611506123000000000373298542418XXXXXX6829       ME03KE06MS02      NY 4607AMPLU916D30302  N840000000016115          81DNCBD8666317293            25020B    MC84000000016115 N  549977133133   43FABB1B82T38B9EA1F219E  000000000+600450S00130    MPL  00580                     000000000  N                0000000000000.00 0000000.00   0000000.00                             000000000000000                                                                                                                                                   U001424  000000000000 0000000000003.48     02100 01000                  
00005710055330062DT67590675900000013300800102800000010180010287287283061900011507761030220230000000160706123000000000373298542418XXXXXX6829       ME03KE06MS02      NY 4607AMPLJ9B6PF0302  N840000000001607          81DNCBD8666317293            81801B    MC84000000001607 N  549977133133   43FABB1B82T82431B37BAD6  000000000+600450S00130    MPL  00580                     000000000  N                0000000000000.00 0000000.00   0000000.00                             000000000000000                                                                                                                                                   U001424  000000000000 0000000000000.44     02100 01000                  
00005720055330063DT67590675900000013300800102800000010680010287287283061900011507779030220230000001376206123000000000373298514474XXXXXX1457                         NY 4607AMCWEAT5PF0302  N840000000013762          81CNCBD8666317293            050542    MC84000000013762 N  549977133133   A43CE49950T9509D63C0FF0  000000000+600450S00130    MCW  00565                     000000000  N                0000000000000.00 0000000.00   0000000.00                             000000000000000                                                                                                                                                     01424  000000000000-0000000000002.41     01750 00000                  
00005730055330064DT67590675900000013300800102800000010180010224001193061900011507794030220230000001943006123000000000373298473702XXXXXX4025               2111111   NYV4 A7W303061587018507N840000000019430GLV300    01DNCBD8666317293            009311    VD84000000019430 NP1549977133133   CF2E2DE63FT428FE5B3D33A  000000000+                F DF 10420                     000000000  Y000000000 338   0000000000000.00 0000000.00   0000000.00                             000000000000000                                                                                                                                                     01424 G000000019430 0000000000000.32     00050 02200                  
00005740055330001P16759067590000001330080010280000001010000000000000000                             2000000000000000000000000              000000000000                    0000000000000000000000000                    000000000000                                                                                                                                                                                                                                                                                                                                                                                                                                                                                        
00005750055330065DT67590675900000013300800102800000010180010224001193061900011507810030220230000000659906123000000000373298440393XXXXXX3455               2111111   NYV4 A7W583061595734330N840000000006599ZP2B00    01DNCBD8666317293            577928    VD84000000006599 NP1549977133133   C38F880504T8D495E3F2FD6  000000000+                F PF 08175                     000000000  N000000000       0000000000000.00 0000000.00   0000000.00                             000000000000000                                                                                                                                                     01424 G000000006599 0000000000001.35     01750 02000                  
00005760055330001P16759067590000001330080010280000001010000000000000000                             2000000000000000000000000              000000000000                    0000000000000000000000000                    000000000000                                                                                                                                                                                                                                                                                                                                                                                                                                                                                        
00005770055330066DT67590675900000013300800102800000010180010287287283061900011507829030220230000000820706123000000000373298517805XXXXXX0863       ME03KE06MS02      NY 4607AMPLO1CZPG0302  N840000000008207          81DNCBD8666317293            02623B    MC84000000008207 N  549977133133   D69A9456D7T3137C47F696C  000000000+600450S00130    MPL  00580                     000000000  N                0000000000000.00 0000000.00   0000000.00                             000000000000000                                                                                                                                                   U001424  000000000000 0000000000001.82     02100 01000                  
00005780055330067DT67590675900000013300800102800000010180010287287283061900011507860030220230000002195606123000000000373298522922XXXXXX6382       ME03KE06MS02      NY 4607AMDJWB1TD30302  N840000000021956          81DNCBD8666317293            004613    MD84000000021956 N  549977133133   AE46C7AA12TB0819F439C22  000000000+600450S00130    MDJ  10813                     000000000  1                0000000000000.00 0000000.00   0000000.00                             000000000000000                                                                                                                                                   U001424  000000000000 0000000000000.33     00050 02200                  
00005790055330068DT67590675900000013300800102800000010180010224001193061900011507877030220230000002131106123000000000373298419310XXXXXX0022       EF10    2111111   NYV4 A7W583061612470526N840000000021311NLVH00    01DNCBD8666317293            01429G    VB84000000021311 NP1549977133133   547FD252C9T488586DA2F1C  000000000+                G CG 00476                     000000000  N000000000 170   0000000000000.00 0000000.00   0000000.00                             000000000000000                                                                                                                                                     01424 G000000021311 0000000000004.15     01900 01000                  
00005800055330001P16759067590000001330080010280000001010000000000000000                             1000000001441000000000000              000000000000                    0000000000000000000000000                    000000000000                                                                                                                                                                                                                                                                                                                                                                                                                                                                                        
00005810055330069DT67590675900000013300800102800000010180010224001193061900011507893030220230000002131106123000000000373298432739XXXXXX4241               2111111   NYV4 A7W583061619568623N840000000021311QCP800    01DNCBD8666317293            443733    VD84000000021311 NP1549977133133   7DB1F2A425T83220E53B002  000000000+                F DF 10420                     000000000  Y000000000 338   0000000000000.00 0000000.00   0000000.00                             000000000000000                                                                                                                                                     01424 G000000021311 0000000000000.33     00050 02200                  
00005820055330001P16759067590000001330080010280000001010000000000000000                             2000000000000000000000000              000000000000                    0000000000000000000000000                    000000000000                                                                                                                                                                                                                                                                                                                                                                                                                                                                                        
00005830055330070DT67590675900000013300800102800000010680010274001193061900011507906030220230000001065506123000000000373298432739XXXXXX4241               0000000   NYV4 07T383061623594304N840000000010655T8V200    01CNCBD8666317293            472788    VD84000000010655 NP1549977133133   7DB1F2A425T83220E53B002  000000000+                F DF 08168                     000000000  Y000000000 369   0000000000000.00 0000000.00   0000000.00                             000000000000000                                                                                                                                                     01424  000000010655 0000000000000.00     00000 00000                  
00005840055330001P16759067590000001330080010280000001060000000000000000                             2000000000000000000000000              000000000000                    0000000000000000000000000                    000000000000                                                                                                                                                                                                                                                                                                                                                                                                                                                                                        
00005850055330071DT67590675900000013300800102800000010180010224001193061900011507943030220230000002673506123000000000373298448915XXXXXX3872               2111111   NYV4 A7W383061645566940N840000000026735J6N600    01DNCBD8666317293            002272    VS84000000026735 NP1549977133133   C533D87C13TAE831090DD10  000000000+                C CC 12108                     000000000  N000000000 496   0000000000000.00 0000000.00   0000000.00                             000000000000000                                                                                                                                                     01424 G000000026735 0000000000005.58     02050 01000                  
00005860055330001P16759067590000001330080010280000001010000000000000000                             2000000000000000000000000              000000000000                    0000000000000000000000000                    000000000000                                                                                                                                                                                                                                                                                                                                                                                                                                                                                        
00005870055330072DT67590675900000013300800102800000010180010224001193061900011507984030220230000002920306123000000000373298442835XXXXXX8603               2111111   NYV4 A7W463061678660529N840000000029203V4CZ00    01DNCBD8666317293            035106    VS84000000029203 NP1549977133133   32D239F850T3EE03D8A133E  000000000+                B CB 12107                     000000000  N000000000 494   0000000000000.00 0000000.00   0000000.00                             000000000000000                                                                                                                                                     01424 G000000029203 0000000000006.06     02040 01000                  
00005880055330001P16759067590000001330080010280000001010000000000000000                             2000000000000000000000000              000000000000                    0000000000000000000000000                    000000000000                                                                                                                                                                                                                                                                                                                                                                                                                                                                                        
00005890055330073DT67590675900000013300800102800000010180010224001193061900011508032030220230000000659906123000000000373298444796XXXXXX1969               2111111   NYV4 A7W383061722666146N840000000006599FH2L00    01DNCBD8666317293            002654    VS84000000006599 NP1549977133133   B33F656F84T38D58D4C20B0  000000000+                A CA 12106                     000000000  N000000000 492   0000000000000.00 0000000.00   0000000.00                             000000000000000                                                                                                                                                     01424 G000000006599 0000000000001.35     01890 01000                  
00005900055330001P16759067590000001330080010280000001010000000000000000                             2000000000000000000000000              000000000000                    0000000000000000000000000                    000000000000                                                                                                                                                                                                                                                                                                                                                                                                                                                                                        
00005910055330074DT67590675900000013300800102800000010180010224001193061900011508065030220230000001987006123000000000373298404016XXXXXX4017               2111111   NYV4 A7W303061735416836N8400000000198706X7G00    01DNCBD8666317293            348164    VD84000000019870 NP1549977133133   C9406177D0T4D1479C7C81D  000000000+                F DF 00415                     000000000  N000000000       0000000000000.00 0000000.00   0000000.00                             000000000000000                                                                                                                                                     01424 G000000019870 0000000000003.43     01650 01500                  
00005920055330001P16759067590000001330080010280000001010000000000000000                             2000000000000000000000000              000000000000                    0000000000000000000000000                    000000000000                                                                                                                                                                                                                                                                                                                                                                                                                                                                                        
00005930055330075DT67590675900000013300800102800000010180010224001193061900011508081030220230000000803706123000000000373298403766XXXXXX1468               2111111   NYV4 A7W463061738308507N840000000008037ZQ8L00    01DNCBD8666317293            412003    VS84000000008037 NP1549977133133   CF62021CF1T4F00B21E3EFC  000000000+                A CA 12106                     000000000  N000000000 492   0000000000000.00 0000000.00   0000000.00                             000000000000000                                                                                                                                                     01424 G000000008037 0000000000001.62     01890 01000                  
00005940055330001P16759067590000001330080010280000001010000000000000000                             2000000000000000000000000              000000000000                    0000000000000000000000000                    000000000000                                                                                                                                                                                                                                                                                                                                                                                                                                                                                        
00005950055330076DT67590675900000013300800102800000010180010224001193061900011508099030220230000002487006123000000000373298402676XXXXXX8571               2111111   NYV4 A7W463061771233417N840000000024870M4L300    01DNCBD8666317293            160582    VD84000000024870 NP1549977133133   2DFFEBE927T90706509A31D  000000000+                F DF 00415                     000000000  N000000000       0000000000000.00 0000000.00   0000000.00                             000000000000000                                                                                                                                                     01424 G000000024870 0000000000004.25     01650 01500                  
00005960055330001P16759067590000001330080010280000001010000000000000000                             2000000000000000000000000              000000000000                    0000000000000000000000000                    000000000000                                                                                                                                                                                                                                                                                                                                                                                                                                                                                        
00005970055330077DT67590675900000013300800102800000010180010287287283061900011508108030220230000000129506123000000000373298552433XXXXXX7389       ME03KE06PT01      NY 4607AMCWTLMCGY0302  N840000000001295          81DNCBD8666317293            04840S    MC84000000001295 N  549977133133   ADC68EA22DT0E160F112BF0  000000000+600450S00130    MCW  02182                     000000000  N                0000000000000.00 0000000.00   0000000.00                             000000000000000                                                                                                                                                   U001424  000000000000 0000000000000.44     02600 01000                  
00005980055330078DT67590675900000013300800102800000010180010287287283061900011508116030220230000000149506123000000000373298552433XXXXXX7389       ME03KE06PT01      NY 4607AMCWOJXKGX0302  N840000000001495          81DNCBD8666317293            00382S    MC84000000001495 N  549977133133   ADC68EA22DT6447F62B9320  000000000+600450S00130    MCW  02182                     000000000  N                0000000000000.00 0000000.00   0000000.00                             000000000000000                                                                                                                                                   U001424  000000000000 0000000000000.49     02600 01000                  
00005990055330079DT67590675900000013300800102800000010180010224001193061900011508149030220230000002160906123000000000373298444796XXXXXX3458               2111111   NYV4 A7W463061791700191N840000000021609LB2H00    01DNCBD8666317293            002126    VS84000000021609 NP1549977133133   8881B0C72FT722D43160166  000000000+                A CA 12106                     000000000  N000000000 492   0000000000000.00 0000000.00   0000000.00                             000000000000000                                                                                                                                                     01424 G000000021609 0000000000004.18     01890 01000                  
00006000055330001P16759067590000001330080010280000001010000000000000000                             2000000000000000000000000              000000000000                    0000000000000000000000000                    000000000000                                                                                                                                                                                                                                                                                                                                                                                                                                                                                        
00006010055330080DT67590675900000013300800102800000010180010224001193061900011508164030220230000001987006123000000000373298416844XXXXXX9877               2111111   NYV4 A7W303061811288741N8400000000198708QDJ00    01DNCBD8666317293            817983    VD84000000019870 NP1549977133133   FC304E01F8T0389536B598D  000000000+                F DF 00415                     000000000  N000000000       0000000000000.00 0000000.00   0000000.00                             000000000000000                                                                                                                                                     01424 G000000019870 0000000000003.43     01650 01500                  
00006020055330001P16759067590000001330080010280000001010000000000000000                             2000000000000000000000000              000000000000                    0000000000000000000000000                    000000000000                                                                                                                                                                                                                                                                                                                                                                                                                                                                                        
00006030055330081DT67590675900000013300800102800000010180010224001193061900011508180030220230000000019906123000000000373298428821XXXXXX7653               2111111   NYV4 A7W583061844258131N8400000000001993SDF00    01DNCBD8666317293            468502    VB84000000000199 NP1549977133133   9BF994A06AT9302B3F1183B  000000000+                S CS 00692                     000000000  N000000000 237   0000000000000.00 0000000.00   0000000.00                             000000000000000                                                                                                                                                     01424 G000000000199 0000000000000.15     02700 01000                  
00006040055330001P16759067590000001330080010280000001010000000000000000                             2000000000000000000000000              000000000000                    0000000000000000000000000                    000000000000                                                                                                                                                                                                                                                                                                                                                                                                                                                                                        
00006050055330082DT67590675900000013300800102800000010180010224001193061900011508198030220230000001837706123000000000373298473702XXXXXX3638               2111111   NYV4 A7W383061844434559N840000000018377QGVJ00    01DNCBD8666317293            051517    VD84000000018377 NP1549977133133   C9B63D35C5TD3FA862E09A3  000000000+                F DF 10420                     000000000  Y000000000 338   0000000000000.00 0000000.00   0000000.00                             000000000000000                                                                                                                                                     01424 G000000018377 0000000000000.31     00050 02200                  
00006060055330001P16759067590000001330080010280000001010000000000000000                             2000000000000000000000000              000000000000                    0000000000000000000000000                    000000000000                                                                                                                                                                                                                                                                                                                                                                                                                                                                                        
00006070055330083DT67590675900000013300800102800000010180010224001193061900011508206030220230000000019906123000000000373298485932XXXXXX1388               2111111   NYV4 A7W583061846090138N840000000000199DWPK00    01DNCBD8666317293            925897    VB84000000000199 NP1549977133133   779A5C11E3T816F9351F8B4  000000000+                S CS 00692                     000000000  N000000000 237   0000000000000.00 0000000.00   0000000.00                             000000000000000                                                                                                                                                     01424 G000000000199 0000000000000.15     02700 01000                  
00006080055330001P16759067590000001330080010280000001010000000000000000                             2000000000000000000000000              000000000000                    0000000000000000000000000                    000000000000                                                                                                                                                                                                                                                                                                                                                                                                                                                                                        
00006090055330084DT67590675900000013300800102800000010180010224001193061900011508222030220230000000161006123000000000373298426752XXXXXX9452               2111111   NYV4 A7W383061847631732N840000000001610499B00    01DNCBD8666317293            553688    VD84000000001610 NP1549977133133   972CA483A4T88C75B55DB6D  000000000+                F PF 08175                     000000000  N000000000       0000000000000.00 0000000.00   0000000.00                             000000000000000                                                                                                                                                     01424 G000000001610 0000000000000.48     01750 02000                  
00006100055330001P16759067590000001330080010280000001010000000000000000                             2000000000000000000000000              000000000000                    0000000000000000000000000                    000000000000                                                                                                                                                                                                                                                                                                                                                                                                                                                                                        
00006110055330085DT67590675900000013300800102800000010180010224001193061900011508230030220230000000019906123000000000373298433451XXXXXX4660               2111111   NYV4 A7W583061849714746N840000000000199XWK400    01DNCBD8666317293            Q5MZSE    VD84000000000199 NP1549977133133   B477F4A968T896A4C2236D4  000000000+                S PS 10179                     000000000  N000000000 364   0000000000000.00 0000000.00   0000000.00                             000000000000000                                                                                                                                                     01424 G000000000199 0000000000000.15     02650 01000                  
00006120055330001P16759067590000001330080010280000001010000000000000000                             2000000000000000000000000              000000000000                    0000000000000000000000000                    000000000000                                                                                                                                                                                                                                                                                                                                                                                                                                                                                        
00006130055330086DT67590675900000013300800102800000010180010224001193061900011508248030220230000002708306123000000000373298436618XXXXXX3459               2111111   NYV4 A7W583061850218379N840000000027083WCFW00    01DNCBD8666317293            014949    VD84000000027083 NP1549977133133   8EFC9865AET3E59D4763E5F  000000000+                F DF 10420                     000000000  Y000000000 338   0000000000000.00 0000000.00   0000000.00                             000000000000000                                                                                                                                                     01424 G000000027083 0000000000000.36     00050 02200                  
00006140055330001P16759067590000001330080010280000001010000000000000000                             2000000000000000000000000              000000000000                    0000000000000000000000000                    000000000000                                                                                                                                                                                                                                                                                                                                                                                                                                                                                        
00006150055330087DT67590675900000013300800102800000010180010224001193061900011508255030220230000000226406123000000000373298436618XXXXXX3459               2111111   NYV4 A7W583061851238512N840000000002264DQNW00    01DNCBD8666317293            000227    VD84000000002264 NP1549977133133   8EFC9865AET09FA72C65353  000000000+                F DF 10420                     000000000  Y000000000 338   0000000000000.00 0000000.00   0000000.00                             000000000000000                                                                                                                                                     01424 G000000002264 0000000000000.23     00050 02200                  
00006160055330001P16759067590000001330080010280000001010000000000000000                             2000000000000000000000000              000000000000                    0000000000000000000000000                    000000000000                                                                                                                                                                                                                                                                                                                                                                                                                                                                                        
00006170055330088DT67590675900000013300800102800000010180010287287283061900011508264030220230000000019906123000000000373298559666XXXXXX6783                         NY 4607AMPLGRZIUD0302  N840000000000199          81DNCBD8666317293            Q8OUMR    MC84000000000199 N  549977133133   BE756BD51ET59276C87919F  000000000+600450S00130    MPL  12148                     000000000  N                0000000000000.00 0000000.00   0000000.00                             000000000000000                                                                                                                                                     01424  000000000000 0000000000000.06     01950 00200                  
