03256730405780002BH6759067590000001330080010280000090170317202307623000000000313373    0000090001303231Y8001026759C03202023                                                                                                                                                                                                                                                                                                                                                                                                                                                                                                                                                                                                 
03256740405780003DT67590675900000013300800102800000010180010276509753076900013026737031620230000002661107623000000000313373601101XXXXXX0754   BA00                  NY 4 07N753061818045103N840000000026611    00    01DNCBD8666317293            01367P    DS84000000026611 N  549977133133070                         000000000+1015104910600   DCPDI11327167689  121004000000 000000000  0          462   0000000000000.00 0000000.00   0000000.00                             000000000000000                                                                                                                                                     01424  000000000000 0000000000005.56     02050 01000                  
03256750405780004DT67590675900000013300800102800000010180010224001193076900013027158031620230000000742407623000000000313373443040XXXXXX4937               2111111   NYV4 A7W583072792951148N8400000000074246FWZ00    01DNCBD8666317293            804038    VD84000000007424 NP1549977133133   C233E7E5D6T42F5CCD1798F  000000000+                F DF 10420                     000000000  Y000000000 338   0000000000000.00 0000000.00   0000000.00                             000000000000000                                                                                                                                                     01424 G000000007424 0000000000000.26     00050 02200                  
03256760405780001P16759067590000001330080010280000001010000000000000000                             2000000000000000000000000              000000000000                    0000000000000000000000000                    000000000000                                                                                                                                                                                                                                                                                                                                                                                                                                                                                        
03256770405780005DT67590675900000013300800102800000010180010287287283076900013027423031620230000001650507623000000000313373528749XXXXXX9658       ME03KE06MS02      NY 4607AMDJE9PNW60313  N840000000016505          81DNCBD8666317293            843468    MD84000000016505 N  549977133133   BAEE2D3E12T635A8A5DFA92  000000000+600450S00130    MDJ  10813                     000000000  1                0000000000000.00 0000000.00   0000000.00                             000000000000000                                                                                                                                                   U001424  000000000000 0000000000000.30     00050 02200                  
03256780405780006DT67590675900000013300800102800000010180010224001193076900013027430031620230000000632207623000000000313373448775XXXXXX9057               2111111   NYV4 A7W583073037099394N840000000006322GSTQ00    01DNCBD8666317293            000150    VD84000000006322 NP1549977133133   465EF7D832T7C983B524E39  000000000+                F DF 10420                     000000000  Y000000000 338   0000000000000.00 0000000.00   0000000.00                             000000000000000                                                                                                                                                     01424 G000000006322 0000000000000.25     00050 02200                  
03256790405780001P16759067590000001330080010280000001010000000000000000                             2000000000000000000000000              000000000000                    0000000000000000000000000                    000000000000                                                                                                                                                                                                                                                                                                                                                                                                                                                                                        
03256800405780007DT67590675900000013300800102800000010180010224001193076900013027448031620230000002626307623000000000313373402347XXXXXX5522               2111111   NYV4 A7W583073037100549N840000000026263WJG300    01DNCBD8666317293            090150    VD84000000026263 NP1549977133133   95CB47C310TAB68FEB22AD6  000000000+                F DF 10420                     000000000  Y000000000 338   0000000000000.00 0000000.00   0000000.00                             000000000000000                                                                                                                                                     01424 G000000026263 0000000000000.35     00050 02200                  
03256810405780001P16759067590000001330080010280000001010000000000000000                             2000000000000000000000000              000000000000                    0000000000000000000000000                    000000000000                                                                                                                                                                                                                                                                                                                                                                                                                                                                                        
03256820405780008DT67590675900000013300800102800000010180010287287283076900013031458031620230000000710007623000000000313373513503XXXXXX6386       ME03KE06MS02      NY 4607AMDJN2IS4N0316  N840000000007100          81DNCBD8666317293            500985    MD84000000007100 N  549977133133   ABDD7D19BFT2E6699314467  000000000+600450S00130    MDJ  00401                     000000000  N                0000000000000.00 0000000.00   0000000.00                             000000000000000                                                                                                                                                   U001424  000000000000 0000000000001.32     01650 01500                  
03256830405780009DT67590675900000013300800102800000010180010224001193076900013031499031620230000001650507623000000000313373449253XXXXXX2320               2111111   NYV4 A7W583076091789266N840000000016505K8ZM00    01DNCBD8666317293            389572    VD84000000016505 NP1549977133133   171E2D29BFT2484228D794D  000000000+                F DF 00415                     000000000  N000000000       0000000000000.00 0000000.00   0000000.00                             000000000000000                                                                                                                                                     01424 G000000016505 0000000000002.87     01650 01500                  
03256840405780001P16759067590000001330080010280000001010000000000000000                             2000000000000000000000000              000000000000                    0000000000000000000000000                    000000000000                                                                                                                                                                                                                                                                                                                                                                                                                                                                                        
03256850405780010DT67590675900000013300800102800000010180010287287283076900013031532031720230000001987007623000000000313373546645XXXXXX6613       ME03KE06MS02      NY 4607AMPLHS778N0317  N840000000019870          81DNCBD8666317293            017879    MC84000000019870 N  549977133133   8359AD3E84T9332EE8544A5  000000000+600450S00130    MPL  00013                     000000000  N                0000000000000.00 0000000.00   0000000.00                             000000000000000                                                                                                                                                   U001424  000000000000 0000000000003.97     01950 01000                  
03256860405780011DT67590675900000013300800102800000010180010224001193076900013031549031720230000000499907623000000000313373405496XXXXXX2435               2111111   NYV4 A7W463076404989651N840000000004999NCBP00    01DNCBD8666317293            061458    VD84000000004999 NP1549977133133   7274A06366T86584E2E2A68  000000000+                F DF 00415                     000000000  N000000000       0000000000000.00 0000000.00   0000000.00                             000000000000000                                                                                                                                                     01424 G000000004999 0000000000000.97     01650 01500                  
03256870405780001P16759067590000001330080010280000001010000000000000000                             2000000000000000000000000              000000000000                    0000000000000000000000000                    000000000000                                                                                                                                                                                                                                                                                                                                                                                                                                                                                        
03256880405780012DT67590675900000013300800102800000010180010224001193076900013031556031720230000000149507623000000000313373405496XXXXXX2435               2111111   NYV4 A7W383076405832844N840000000001495FG3700    01DNCBD8666317293            061623    VD84000000001495 NP1549977133133   7274A06366T19365A7AC9A8  000000000+                F DF 00415                     000000000  N000000000       0000000000000.00 0000000.00   0000000.00                             000000000000000                                                                                                                                                     01424 G000000001495 0000000000000.40     01650 01500                  
03256890405780001P16759067590000001330080010280000001010000000000000000                             2000000000000000000000000              000000000000                    0000000000000000000000000                    000000000000                                                                                                                                                                                                                                                                                                                                                                                                                                                                                        
03256900405780013DT67590675900000013300800102800000010180010287287283076900013031565031720230000000815007623000000000313373517546XXXXXX9671       ME03KE06MS02      NY 4607AMDJGJDKQV0317  N840000000008150          81DNCBD8666317293            017013    MD84000000008150 N  549977133133   31821F2966T50FCC1EAFF05  000000000+600450S00130    MDJ  10813                     000000000  1                0000000000000.00 0000000.00   0000000.00                             000000000000000                                                                                                                                                   U001424  000000000000 0000000000000.26     00050 02200                  
03256910405780014DT67590675900000013300800102800000010680010274001193076900013031619031720230000002136007623000000000313373410040XXXXXX5656               0000000   NYV4 07T583076495499630N8400000000213606BQP00    01CNCBD8666317293            40247G    VB84000000021360 NP1549977133133   D8E5DA5D1CT2B0FF81483F4  000000000+                G1CG100246                     000000000  N000000000 167   0000000000000.00 0000000.00   0000000.00                             000000000000000                                                                                                                                                     01424  000000021360-0000000000005.02     02350 00000                  
03256920405780001P16759067590000001330080010280000001060000000000000000                             2000000000000000000000000              000000000000                    0000000000000000000000000                    000000000000                                                                                                                                                                                                                                                                                                                                                                                                                                                                                        
03256930405780015DT67590675900000013300800102800000010180010287287283076900013031656031720230000001743507623000000000313373515676XXXXXX2402       ME03KE06MS02      NY 4607AMWEOHWSQV0317  N840000000017435          81DNCBD8666317293            04609Z    MC84000000017435 N  549977133133   77468F6C71TE5C9480BA463  000000000+600450S00130    MWE  00737                     000000000  N                0000000000000.00 0000000.00   0000000.00                             000000000000000                                                                                                                                                   U001424  000000000000 0000000000004.63     02600 01000                  
03256940405780016DT67590675900000013300800102800000010180010273011003076900013031669031720230000000542807623000000000313373379803XXXXX3003                          NY 4 07N004477403702323N840000000005428          01DNCBD8666317293            269895    AM84000000005428 Y  549977133133                            000000000+6004S0S00130 258     11261                     000000000                   0000000000000.00 0000000.00   0000000.00                             000000000000000 61248972086759675900000013300 CBD8666317293            2993 SANDY PLAINS RD STE 6787614584      30066     EMORRIS@GREENOTTERCBD.COM                 01324  000000000000 0000000000000.97     01600 00000                  
03256950405780017DT67590675900000013300800102800000010180010224001193076900013031671031720230000001989807623000000000313373414734XXXXXX7000               2111111   NYV4 A7W383076528734946N840000000019898L6MD00    01DNCBD8666317293            03217D    VS84000000019898 NP1549977133133   48D56869B2TA352708E8871  000000000+                D CD 12109                     000000000  N000000000 498   0000000000000.00 0000000.00   0000000.00                             000000000000000                                                                                                                                                     01424 G000000019898 0000000000005.07     02500 01000                  
03256960405780001P16759067590000001330080010280000001010000000000000000                             2000000000000000000000000              000000000000                    0000000000000000000000000                    000000000000                                                                                                                                                                                                                                                                                                                                                                                                                                                                                        
03256970405780018DT67590675900000013300800102800000010180010224001193076900013031689031720230000002636207623000000000313373473703XXXXXX2785               2111111   NYV4 A7W583076531042888N840000000026362L2DX00    01DNCBD8666317293            078013    VD84000000026362 NP1549977133133   BC70FB78BCT30C474DB2BF7  000000000+                F DF 10420                     000000000  Y000000000 338   0000000000000.00 0000000.00   0000000.00                             000000000000000                                                                                                                                                     01424 G000000026362 0000000000000.35     00050 02200                  
03256980405780001P16759067590000001330080010280000001010000000000000000                             2000000000000000000000000              000000000000                    0000000000000000000000000                    000000000000                                                                                                                                                                                                                                                                                                                                                                                                                                                                                        
03256990405780019DT67590675900000013300800102800000010180010273011003076900013031693031720230000003140007623000000000313373371741XXXXX3002                          NY 4 07N004477572105324N840000000031400          01DNCBD8666317293            260456    AM84000000031400 Y  549977133133                            000000000+6004S0S00130 258     11262                     000000000                   0000000000000.00 0000000.00   0000000.00                             000000000000000 61248972086759675900000013300 CBD8666317293            2993 SANDY PLAINS RD STE 6787614584      30066     EMORRIS@GREENOTTERCBD.COM                 01324  000000000000 0000000000006.22     01950 00000                  
03257000405780020DT67590675900000013300800102800000010680010274001193076900013031700031720230000001325907623000000000313373448233XXXXXX1631               0000000   NYV4 07T463076541924416N8400000000132599PP300    01CNCBD8666317293            000312    VD84000000013259 NP1549977133133   5F25BBED1FTC273CB18C24E  000000000+                F DF 08168                     000000000  Y000000000 369   0000000000000.00 0000000.00   0000000.00                             000000000000000                                                                                                                                                     01424  000000013259 0000000000000.00     00000 00000                  
03257010405780001P16759067590000001330080010280000001060000000000000000                             2000000000000000000000000              000000000000                    0000000000000000000000000                    000000000000                                                                                                                                                                                                                                                                                                                                                                                                                                                                                        
03257020405780021DT67590675900000013300800102800000010680010274001193076900013031718031720230000001318107623000000000313373473703XXXXXX2785               0000000   NYV4 07T463076551259538N840000000013181WZT700    01CNCBD8666317293            060633    VD84000000013181 NP1549977133133   BC70FB78BCT30C474DB2BF7  000000000+                F DF 08168                     000000000  Y000000000 369   0000000000000.00 0000000.00   0000000.00                             000000000000000                                                                                                                                                     01424  000000013181 0000000000000.00     00000 00000                  
03257030405780001P16759067590000001330080010280000001060000000000000000                             2000000000000000000000000              000000000000                    0000000000000000000000000                    000000000000                                                                                                                                                                                                                                                                                                                                                                                                                                                                                        
03257040405780022DT67590675900000013300800102800000010180010224001193076900013031721031720230000000149507623000000000313373410039XXXXXX5858               2111111   NYV4 A7W303076611324180N840000000001495SPX500    01DNCBD8666317293            80762C    VS84000000001495 NP1549977133133   28EE4CC960T6983C2CC23E6  000000000+                C CC 12108                     000000000  N000000000 496   0000000000000.00 0000000.00   0000000.00                             000000000000000                                                                                                                                                     01424 G000000001495 0000000000000.41     02050 01000                  
03257050405780001P16759067590000001330080010280000001010000000000000000                             2000000000000000000000000              000000000000                    0000000000000000000000000                    000000000000                                                                                                                                                                                                                                                                                                                                                                                                                                                                                        
03257060405780023DT67590675900000013300800102800000010180010287287283076900013031748031720230000000706107623000000000313373542432XXXXXX4333       ME03KE06MS02      NY 4607AMDJXVIHIS0317  N840000000007061          81DNCBD8666317293            976719    MD84000000007061 N  549977133133   C2CDBF1C46T0C1BF194CB38  000000000+600450S00130    MDJ  10813                     000000000  1                0000000000000.00 0000000.00   0000000.00                             000000000000000                                                                                                                                                   U001424  000000000000 0000000000000.26     00050 02200                  
03257070405780024DT67590675900000013300800102800000010180010224001193076900013031762031720230000000712707623000000000313373451440XXXXXX3093               2111111   NYV4 A7W463076625298711N840000000007127CQZ200    01DNCBD8666317293            102209    VD84000000007127 NP1549977133133   368C3F8308T49F3C3904455  000000000+                F PF 08175                     000000000  N000000000       0000000000000.00 0000000.00   0000000.00                             000000000000000                                                                                                                                                     01424 G000000007127 0000000000001.45     01750 02000                  
03257080405780001P16759067590000001330080010280000001010000000000000000                             2000000000000000000000000              000000000000                    0000000000000000000000000                    000000000000                                                                                                                                                                                                                                                                                                                                                                                                                                                                                        
03257090405780025DT67590675900000013300800102800000010180010224001193076900013031770031720230000001400807623000000000313373479213XXXXXX2250               2111111   NYV4 A7W383076635011777N840000000014008C8SJ00    01DNCBD8666317293            023822    VD84000000014008 NP1549977133133   5C2B51B6C5TC65AD5827B50  000000000+                F DF 10420                     000000000  Y000000000 338   0000000000000.00 0000000.00   0000000.00                             000000000000000                                                                                                                                                     01424 G000000014008 0000000000000.29     00050 02200                  
03257100405780001P16759067590000001330080010280000001010000000000000000                             2000000000000000000000000              000000000000                    0000000000000000000000000                    000000000000                                                                                                                                                                                                                                                                                                                                                                                                                                                                                        
03257110405780026DT67590675900000013300800102800000010180010287287283076900013031821031720230000001742507623000000000313373524363XXXXXX4075       ME03KE06PT01      NY 4607AMCWA123TY0317  N840000000017425          81DNCBD8666317293            01727P    MC84000000017425 N  549977133133   8CAAA0205AT7AE2351D248B  000000000+600450S00130    MCW  00642                     000000000  N                0000000000000.00 0000000.00   0000000.00                             000000000000000                                                                                                                                                   U001424  000000000000 0000000000003.93     02200 01000                  
03257120405780027DT67590675900000013300800102800000010180010287287283076900013031839031720230000000659907623000000000313373552486XXXXXX1041       ME03KE06MS02      NY 4607AMWETQ10TX0317  N840000000006599          81DNCBD8666317293            06785Z    MC84000000006599 N  549977133133   27EDCE9C36T25F0E22E308E  000000000+600450S00130    MWE  00737                     000000000  N                0000000000000.00 0000000.00   0000000.00                             000000000000000                                                                                                                                                   U001424  000000000000 0000000000001.82     02600 01000                  
03257130405780028DT67590675900000013300800102800000010180010224001193076900013032075031720230000001987007623000000000313373464018XXXXXX7405               2111111   NYV4 A7W383076729531901N840000000019870D8MM00    01DNCBD8666317293            06619C    VS84000000019870 NP1549977133133   131EEE697FT3F88C00828CC  000000000+                C CC 12108                     000000000  N000000000 496   0000000000000.00 0000000.00   0000000.00                             000000000000000                                                                                                                                                     01424 G000000019870 0000000000004.17     02050 01000                  
03257140405780001P16759067590000001330080010280000001010000000000000000                             2000000000000000000000000              000000000000                    0000000000000000000000000                    000000000000                                                                                                                                                                                                                                                                                                                                                                                                                                                                                        
03257150405780029DT67590675900000013300800102800000010180010224001193076900013032216031720230000001604007623000000000313373483312XXXXXX5223               2111111   NYV4 A7W303076739845056N840000000016040DHHP00    01DNCBD8666317293            043316    VD84000000016040 NP1549977133133   8123340263T39D12D1351C1  000000000+                F DF 10420                     000000000  Y000000000 338   0000000000000.00 0000000.00   0000000.00                             000000000000000                                                                                                                                                     01424 G000000016040 0000000000000.30     00050 02200                  
03257160405780001P16759067590000001330080010280000001010000000000000000                             2000000000000000000000000              000000000000                    0000000000000000000000000                    000000000000                                                                                                                                                                                                                                                                                                                                                                                                                                                                                        
03257170405780030DT67590675900000013300800102800000010180010287287283076900013032241031720230000000158507623000000000313373542418XXXXXX5284       ME03KE06MS02      NY 4607AMPLEOMHLC0317  N840000000001585          81DNCBD8666317293            87089B    MC84000000001585 N  549977133133   CC9F6F53F3T4058B1BFDCC8  000000000+600450S00130    MPL  00580                     000000000  N                0000000000000.00 0000000.00   0000000.00                             000000000000000                                                                                                                                                   U001424  000000000000 0000000000000.43     02100 01000                  
03257180405780031DT67590675900000013300800102800000010180010224001193076900013032307031720230000002661107623000000000313373410836XXXXXX1391               2111111   NYV4 A7W383076818562065N8400000000266115LZH00    01DNCBD8666317293            805575    VD84000000026611 NP1549977133133   3966528553T42CF726A2CF9  000000000+                F DF 10420                     000000000  Y000000000 338   0000000000000.00 0000000.00   0000000.00                             000000000000000                                                                                                                                                     01424 G000000026611 0000000000000.35     00050 02200                  
03257190405780001P16759067590000001330080010280000001010000000000000000                             2000000000000000000000000              000000000000                    0000000000000000000000000                    000000000000                                                                                                                                                                                                                                                                                                                                                                                                                                                                                        
03257200405780032DT67590675900000013300800102800000010180010287287283076900013032316031720230000000158507623000000000313373517546XXXXXX4393       ME03KE06MS02      NY 4607AMDJH33PWE0317  N840000000001585          81DNCBD8666317293            017438    MD84000000001585 N  549977133133   57565EEE89T31B84E617685  000000000+600450S00130    MDJ  10813                     000000000  1                0000000000000.00 0000000.00   0000000.00                             000000000000000                                                                                                                                                   U001424  000000000000 0000000000000.23     00050 02200                  
03257210405780033BH6759067590000000370780088880000090170317202307623000000000094935    0000090001630432Y8008886759C03202023                                                                                                                                                                                                                                                                                                                                                                                                                                                                                                                                                                                                 
03257220405780034DT67590675900000003707800888800000010180088824001193076900016304208031620230000000214907623000000000094935455225XXXXXX9967               2111111   NYV4 A7W583076052844876N840000000002149BQ5X00    01DNMR HEMP FLOWER           H05025    VD84000000002149 NP1549976053336   87283                    000000000+                F DF 10420                     000000000  Y000000000 338   0000000000000.00 0000000.00   0000000.00                             000000000000000                                                                                                                                                     01424 G000000002149 0000000000000.23     00050 02200                  
03257230405780001P16759067590000000370780088880000001010000000000000000                             2000000000000000000000000              000000000000                    0000000000000000000000000                    000000000000                                                                                                                                                                                                                                                                                                                                                                                                                                                                                        
03257240405780035DT67590675900000003707800888800000010180088887287283076900016304217031620230000001849907623000000000094935527854XXXXXX2389       ME03KE06MS02      NY 4607AMWEPSQ74N0316  N840000000018499          81DNMR HEMP FLOWER           02616Z    MC84000000018499 N  549976053336   87284                    000000000+600450S00130    MWE  00737                     000000000  N                0000000000000.00 0000000.00   0000000.00                             000000000000000                                                                                                                                                   U001424  000000000000 0000000000004.91     02600 01000                  
03257250405780036DT67590675900000003707800888800000010180088824001193076900016304224031720230000001399907623000000000094935415977XXXXXX7086               2111111   NYV4 A7W383076295082530N8400000000139992XX800    01DNMR HEMP FLOWER           039945    VD84000000013999 NP1549976053336   87294                    000000000+                F DF 10420                     000000000  Y000000000 338   0000000000000.00 0000000.00   0000000.00                             000000000000000                                                                                                                                                     01424 G000000013999 0000000000000.29     00050 02200                  
03257260405780001P16759067590000000370780088880000001010000000000000000                             2000000000000000000000000              000000000000                    0000000000000000000000000                    000000000000                                                                                                                                                                                                                                                                                                                                                                                                                                                                                        
03257270405780037DT67590675900000003707800888800000010180088824001193076900016304232031720230000000224907623000000000094935434258XXXXXX1108               2111111   NYV4 A7W583076519612961N8400000000022497P5J00    01DNMR HEMP FLOWER           023730    VD84000000002249 NP1549976053336   87306                    000000000+                F DF 10420                     000000000  Y000000000 338   0000000000000.00 0000000.00   0000000.00                             000000000000000                                                                                                                                                     01424 G000000002249 0000000000000.23     00050 02200                  
03257280405780001P16759067590000000370780088880000001010000000000000000                             2000000000000000000000000              000000000000                    0000000000000000000000000                    000000000000                                                                                                                                                                                                                                                                                                                                                                                                                                                                                        
03257290405780038DT67590675900000003707800888800000010180088824001193076900016304265031720230000000249907623000000000094935435545XXXXXX7571               2111111   NYV4 A7W463076520838202N840000000002499FP5M00    01DNMR HEMP FLOWER           051069    VD84000000002499 NP1549976053336   87307                    000000000+                F DF 10420                     000000000  Y000000000 338   0000000000000.00 0000000.00   0000000.00                             000000000000000                                                                                                                                                     01424 G000000002499 0000000000000.23     00050 02200                  
03257300405780001P16759067590000000370780088880000001010000000000000000                             2000000000000000000000000              000000000000                    0000000000000000000000000                    000000000000                                                                                                                                                                                                                                                                                                                                                                                                                                                                                        
03257310405780039DT67590675900000003707800888800000010180088824001193076900016304273031720230000001050007623000000000094935442756XXXXXX2092               2111111   NYV4 A7W383076546819691N8400000000105002PBK00    01DNMR HEMP FLOWER           011111    VD84000000010500 NP1549976053336   87319                    000000000+                F DF 10420                     000000000  Y000000000 338   0000000000000.00 0000000.00   0000000.00                             000000000000000                                                                                                                                                     01424 G000000010500 0000000000000.27     00050 02200                  
03257320405780001P16759067590000000370780088880000001010000000000000000                             2000000000000000000000000              000000000000                    0000000000000000000000000                    000000000000                                                                                                                                                                                                                                                                                                                                                                                                                                                                                        
03257330405780040DT67590675900000003707800888800000010180088824001193076900016304281031720230000001564707623000000000094935400022XXXXXX0989               2111111   NYV4 A7W463076603449751N840000000015647F9N600    01DNMR HEMP FLOWER           599712    VD84000000015647 NP1549976053336   87331                    000000000+                F DF 10420                     000000000  Y000000000 338   0000000000000.00 0000000.00   0000000.00                             000000000000000                                                                                                                                                     01424 G000000015647 0000000000000.30     00050 02200                  
03257340405780001P16759067590000000370780088880000001010000000000000000                             2000000000000000000000000              000000000000                    0000000000000000000000000                    000000000000                                                                                                                                                                                                                                                                                                                                                                                                                                                                                        
03257350405780041DT67590675900000003707800888800000010180088824001193076900016304299031720230000000749907623000000000094935461675XXXXXX4205               2111111   NYV4 A7W303076694374572N8400000000074999SRC00    01DNMR HEMP FLOWER           394110    VD84000000007499 NP1549976053336   87341                    000000000+                F DF 00415                     000000000  N000000000       0000000000000.00 0000000.00   0000000.00                             000000000000000                                                                                                                                                     01424 G000000007499 0000000000001.39     01650 01500                  
03257360405780001P16759067590000000370780088880000001010000000000000000                             2000000000000000000000000              000000000000                    0000000000000000000000000                    000000000000                                                                                                                                                                                                                                                                                                                                                                                                                                                                                        
03257370405780042DT67590675900000003707800888800000010180088887287283076900016304308031720230000000589807623000000000094935527515XXXXXX4947       ME03KE06MS02      NY 4607AMDJTACSTX0317  N840000000005898          81DNMR HEMP FLOWER           101571    MD84000000005898 N  549976053336   87342                    000000000+600450S00130    MDJ  10813                     000000000  1                0000000000000.00 0000000.00   0000000.00                             000000000000000                                                                                                                                                   U001424  000000000000 0000000000000.25     00050 02200                  
03257380405780043DT67590675900000003707800888800000010180088887287283076900016304316031720230000000849707623000000000094935544544XXXXXX7284       ME03KE06MS02      NY 4607AMPMWFK7WE0317  N840000000008497          81DNMR HEMP FLOWER           017358    MD84000000008497 N  549976053336   87352                    000000000+600450S00130    MPM  09899                     000000000  N                0000000000000.00 0000000.00   0000000.00                             000000000000000                                                                                                                                                   U001424  000000000000 0000000000001.70     01760 02000                  
03257390405780044DT67590675900000003707800888800000010180088824001193076900016304323031720230000000749907623000000000094935414720XXXXXX4992               2111111   NYV4 A7W303076809571997N8400000000074993RJZ00    01DNMR HEMP FLOWER           07526C    VS84000000007499 NP1549976053336   87353                    000000000+                C CC 12108                     000000000  N000000000 496   0000000000000.00 0000000.00   0000000.00                             000000000000000                                                                                                                                                     01424 G000000007499 0000000000001.64     02050 01000                  
03257400405780001P16759067590000000370780088880000001010000000000000000                             2000000000000000000000000              000000000000                    0000000000000000000000000                    000000000000                                                                                                                                                                                                                                                                                                                                                                                                                                                                                        
03257410405780045BH6759067590000001516480088880000090170317202307623000000002388293    0000090001171972Y8008886759C03202023                                                                                                                                                                                                                                                                                                                                                                                                                                                                                                                                                                                                 
03257420405780046DT67590675900000015164800888800000010180088824001193076900011715382031620230000001987007623000000002388293426690XXXXXX9286               2111111   NYV4 A7W583076000723770N840000000019870L63P00    01DNKETOFUSION833-923-3587   03384B    VS84000000019870 NP1599977360677   4FD020F5EDT5C4E991DBF83  000000000+                B CB 12107                     000000000  N000000000 494   0000000000000.00 0000000.00   0000000.00                             000000000000000                                                                                                                                                     01424 G000000019870 0000000000004.15     02040 01000                  
03257430405780001P16759067590000001516480088880000001010000000000000000                             2000000000000000000000000              000000000000                    0000000000000000000000000                    000000000000                                                                                                                                                                                                                                                                                                                                                                                                                                                                                        
03257440405780047DT67590675900000015164800888800000010180088824001193076900011715390031620230000000654807623000000002388293426690XXXXXX9286               2111111   NYV4 A7W383076000947167N840000000006548JLCH00    01DNKETOFUSION833-923-3587   04034B    VS84000000006548 NP1599977360677   4FD020F5EDTE798E11F8B8E  000000000+                B CB 12107                     000000000  N000000000 494   0000000000000.00 0000000.00   0000000.00                             000000000000000                                                                                                                                                     01424 G000000006548 0000000000001.44     02040 01000                  
03257450405780001P16759067590000001516480088880000001010000000000000000                             2000000000000000000000000              000000000000                    0000000000000000000000000                    000000000000                                                                                                                                                                                                                                                                                                                                                                                                                                                                                        
03257460405780048DT67590675900000015164800888800000010180088824001193076900011715408031620230000000519007623000000002388293426690XXXXXX9286               2111111   NYV4 A7W463076001179185N840000000005190SL6200    01DNKETOFUSION833-923-3587   04721B    VS84000000005190 NP1599977360677   4FD020F5EDTFF4A5F69B5D2  000000000+                B CB 12107                     000000000  N000000000 494   0000000000000.00 0000000.00   0000000.00                             000000000000000                                                                                                                                                     01424 G000000005190 0000000000001.16     02040 01000                  
03257470405780001P16759067590000001516480088880000001010000000000000000                             2000000000000000000000000              000000000000                    0000000000000000000000000                    000000000000                                                                                                                                                                                                                                                                                                                                                                                                                                                                                        
03257480405780049DT67590675900000015164800888800000010180088824001193076900011715416031620230000001799107623000000002388293410280XXXXXX0327               2111111   NYV4 A7W303076001378934N840000000017991LD9400    01DNKETOFUSION833-923-3587   016633    VS84000000017991 NP1599977360677   E7B9BDDDB9TAEBE47BA7E5B  000000000+                B CB 12107                     000000000  N000000000 494   0000000000000.00 0000000.00   0000000.00                             000000000000000                                                                                                                                                     01424 G000000017991 0000000000003.77     02040 01000                  
03257490405780001P16759067590000001516480088880000001010000000000000000                             2000000000000000000000000              000000000000                    0000000000000000000000000                    000000000000                                                                                                                                                                                                                                                                                                                                                                                                                                                                                        
03257500405780050DT67590675900000015164800888800000010180088824001193076900011715424031620230000000654807623000000002388293410280XXXXXX0327               2111111   NYV4 A7W303076001677137N840000000006548N5DN00    01DNKETOFUSION833-923-3587   016202    VS84000000006548 NP1599977360677   E7B9BDDDB9TFC0E991610A3  000000000+                B CB 12107                     000000000  N000000000 494   0000000000000.00 0000000.00   0000000.00                             000000000000000                                                                                                                                                     01424 G000000006548 0000000000001.44     02040 01000                  
03257510405780001P16759067590000001516480088880000001010000000000000000                             2000000000000000000000000              000000000000                    0000000000000000000000000                    000000000000                                                                                                                                                                                                                                                                                                                                                                                                                                                                                        
03257520405780051DT67590675900000015164800888800000010180088824001193076900011715432031620230000000519007623000000002388293410280XXXXXX0327               2111111   NYV4 A7W303076001964610N840000000005190CSKG00    01DNKETOFUSION833-923-3587   016935    VS84000000005190 NP1599977360677   E7B9BDDDB9T608C3E6F749F  000000000+                B CB 12107                     000000000  N000000000 494   0000000000000.00 0000000.00   0000000.00                             000000000000000                                                                                                                                                     01424 G000000005190 0000000000001.16     02040 01000                  
03257530405780001P16759067590000001516480088880000001010000000000000000                             2000000000000000000000000              000000000000                    0000000000000000000000000                    000000000000                                                                                                                                                                                                                                                                                                                                                                                                                                                                                        
03257540405780052DT67590675900000015164800888800000010180088824001193076900011715440031620230000001987007623000000002388293410039XXXXXX7991               2111111   NYV4 A7W303076007293566N840000000019870TQCH00    01DNKETOFUSION833-923-3587   08753D    VS84000000019870 NP1599977360677   AD50BEB70DT3AA5379FF724  000000000+                D CD 12109                     000000000  N000000000 498   0000000000000.00 0000000.00   0000000.00                             000000000000000                                                                                                                                                     01424 G000000019870 0000000000005.07     02500 01000                  
03257550405780001P16759067590000001516480088880000001010000000000000000                             2000000000000000000000000              000000000000                    0000000000000000000000000                    000000000000                                                                                                                                                                                                                                                                                                                                                                                                                                                                                        
03257560405780053DT67590675900000015164800888800000010180088824001193076900011715457031620230000000654807623000000002388293410039XXXXXX7991               2111111   NYV4 A7W583076007506968N840000000006548BFF500    01DNKETOFUSION833-923-3587   42905D    VS84000000006548 NP1599977360677   AD50BEB70DT17A8CCE22791  000000000+                D CD 12109                     000000000  N000000000 498   0000000000000.00 0000000.00   0000000.00                             000000000000000                                                                                                                                                     01424 G000000006548 0000000000001.74     02500 01000                  
03257570405780001P16759067590000001516480088880000001010000000000000000                             2000000000000000000000000              000000000000                    0000000000000000000000000                    000000000000                                                                                                                                                                                                                                                                                                                                                                                                                                                                                        
03257580405780054DT67590675900000015164800888800000010180088824001193076900011715481031620230000000542807623000000002388293443040XXXXXX8732               2111111   NYV4 A7W463076008859135N840000000005428ZF6M00    01DNKETOFUSION833-923-3587   441265    VD84000000005428 NP1599977360677   47C369A83DT7E2ADA710FBD  000000000+                F DF 10420                     000000000  Y000000000 338   0000000000000.00 0000000.00   0000000.00                             000000000000000                                                                                                                                                     01424 G000000005428 0000000000000.25     00050 02200                  
03257590405780001P16759067590000001516480088880000001010000000000000000                             2000000000000000000000000              000000000000                    0000000000000000000000000                    000000000000                                                                                                                                                                                                                                                                                                                                                                                                                                                                                        
03257600405780055DT67590675900000015164800888800000010180088824001193076900011715499031620230000000654807623000000002388293443040XXXXXX8732               2111111   NYV4 A7W583076008967292N840000000006548WLTX00    01DNKETOFUSION833-923-3587   193598    VD84000000006548 NP1599977360677   47C369A83DT466B272B49E7  000000000+                F DF 10420                     000000000  Y000000000 338   0000000000000.00 0000000.00   0000000.00                             000000000000000                                                                                                                                                     01424 G000000006548 0000000000000.25     00050 02200                  
03257610405780001P16759067590000001516480088880000001010000000000000000                             2000000000000000000000000              000000000000                    0000000000000000000000000                    000000000000                                                                                                                                                                                                                                                                                                                                                                                                                                                                                        
03257620405780056DT67590675900000015164800888800000010180088824001193076900011715507031620230000000519007623000000002388293443040XXXXXX8732               2111111   NYV4 A7W383076009121871N8400000000051907CWW00    01DNKETOFUSION833-923-3587   461400    VD84000000005190 NP1599977360677   47C369A83DT27A4C69B9E5A  000000000+                F DF 10420                     000000000  Y000000000 338   0000000000000.00 0000000.00   0000000.00                             000000000000000                                                                                                                                                     01424 G000000005190 0000000000000.25     00050 02200                  
03257630405780001P16759067590000001516480088880000001010000000000000000                             2000000000000000000000000              000000000000                    0000000000000000000000000                    000000000000                                                                                                                                                                                                                                                                                                                                                                                                                                                                                        
03257640405780057DT67590675900000015164800888800000010180088824001193076900011715515031620230000002487007623000000002388293473703XXXXXX0236               2111111   NYV4 A7W383076012071924N840000000024870S9FH00    01DNKETOFUSION833-923-3587   040431    VD84000000024870 NP1599977360677   BD1562CA0ATF3081D33BD94  000000000+                F DF 10420                     000000000  Y000000000 338   0000000000000.00 0000000.00   0000000.00                             000000000000000                                                                                                                                                     01424 G000000024870 0000000000000.34     00050 02200                  
03257650405780001P16759067590000001516480088880000001010000000000000000                             2000000000000000000000000              000000000000                    0000000000000000000000000                    000000000000                                                                                                                                                                                                                                                                                                                                                                                                                                                                                        
03257660405780058DT67590675900000015164800888800000010180088824001193076900011715523031620230000000654807623000000002388293473703XXXXXX0236               2111111   NYV4 A7W463076012441810N8400000000065482JTC00    01DNKETOFUSION833-923-3587   054704    VD84000000006548 NP1599977360677   BD1562CA0ATDBE3CB784C22  000000000+                F DF 10420                     000000000  Y000000000 338   0000000000000.00 0000000.00   0000000.00                             000000000000000                                                                                                                                                     01424 G000000006548 0000000000000.25     00050 02200                  
03257670405780001P16759067590000001516480088880000001010000000000000000                             2000000000000000000000000              000000000000                    0000000000000000000000000                    000000000000                                                                                                                                                                                                                                                                                                                                                                                                                                                                                        
03257680405780059DT67590675900000015164800888800000010180088824001193076900011715531031620230000000519007623000000002388293473703XXXXXX0236               2111111   NYV4 A7W583076012556797N840000000005190CH4600    01DNKETOFUSION833-923-3587   026462    VD84000000005190 NP1599977360677   BD1562CA0AT00DAF0F1F30E  000000000+                F DF 10420                     000000000  Y000000000 338   0000000000000.00 0000000.00   0000000.00                             000000000000000                                                                                                                                                     01424 G000000005190 0000000000000.25     00050 02200                  
03257690405780001P16759067590000001516480088880000001010000000000000000                             2000000000000000000000000              000000000000                    0000000000000000000000000                    000000000000                                                                                                                                                                                                                                                                                                                                                                                                                                                                                        
03257700405780060DT67590675900000015164800888800000010180088824001193076900011715549031620230000001987007623000000002388293410836XXXXXX2508               2111111   NYV4 A7W383076015978339N840000000019870LWJC00    01DNKETOFUSION833-923-3587   752921    VD84000000019870 NP1599977360677   47666F4FCBT3491491EB311  000000000+                F DF 10420                     000000000  Y000000000 338   0000000000000.00 0000000.00   0000000.00                             000000000000000                                                                                                                                                     01424 G000000019870 0000000000000.32     00050 02200                  
03257710405780001P16759067590000001516480088880000001010000000000000000                             2000000000000000000000000              000000000000                    0000000000000000000000000                    000000000000                                                                                                                                                                                                                                                                                                                                                                                                                                                                                        
03257720405780061DT67590675900000015164800888800000010680088874001193076900011715551031620230000000077907623000000002388293473703XXXXXX0236               0000000   NYV4 07T463076016622281N8400000000007792W5W00    01CNKETOFUSION833-923-3587   043442    VD84000000000779 NP1599977360677   BD1562CA0AT00DAF0F1F30E  000000000+                F DF 08168                     000000000  Y000000000 369   0000000000000.00 0000000.00   0000000.00                             000000000000000                                                                                                                                                     01424  000000000779 0000000000000.00     00000 00000                  
03257730405780001P16759067590000001516480088880000001060000000000000000                             2000000000000000000000000              000000000000                    0000000000000000000000000                    000000000000                                                                                                                                                                                                                                                                                                                                                                                                                                                                                        
03257740405780062DT67590675900000015164800888800000010680088874001193076900011715569031620230000000098207623000000002388293473703XXXXXX0236               0000000   NYV4 07T303076016843584N8400000000009825S8300    01CNKETOFUSION833-923-3587   093834    VD84000000000982 NP1599977360677   BD1562CA0ATDBE3CB784C22  000000000+                F DF 08168                     000000000  Y000000000 369   0000000000000.00 0000000.00   0000000.00                             000000000000000                                                                                                                                                     01424  000000000982 0000000000000.00     00000 00000                  
03257750405780001P16759067590000001516480088880000001060000000000000000                             2000000000000000000000000              000000000000                    0000000000000000000000000                    000000000000                                                                                                                                                                                                                                                                                                                                                                                                                                                                                        
03257760405780063DT67590675900000015164800888800000010180088824001193076900011715572031620230000000198807623000000002388293410836XXXXXX2508               2111111   NYV4 A7W463076017413585N840000000001988WJ3K00    01DNKETOFUSION833-923-3587   408963    VD84000000001988 NP1599977360677   47666F4FCBTEC43ECBD05D9  000000000+                F DF 10420                     000000000  Y000000000 338   0000000000000.00 0000000.00   0000000.00                             000000000000000                                                                                                                                                     01424 G000000001988 0000000000000.23     00050 02200                  
03257770405780001P16759067590000001516480088880000001010000000000000000                             2000000000000000000000000              000000000000                    0000000000000000000000000                    000000000000                                                                                                                                                                                                                                                                                                                                                                                                                                                                                        
03257780405780064DT67590675900000015164800888800000010180088824001193076900011715580031620230000001987007623000000002388293480636XXXXXX3236               2111111   NYV4 A7W303076018636332N8400000000198703NXX00    01DNKETOFUSION833-923-3587   824412    VD84000000019870 NP1599977360677   E97720550FT21C009B88EEE  000000000+                F DF 00415                     000000000  N000000000       0000000000000.00 0000000.00   0000000.00                             000000000000000                                                                                                                                                     01424 G000000019870 0000000000003.43     01650 01500                  
03257790405780001P16759067590000001516480088880000001010000000000000000                             2000000000000000000000000              000000000000                    0000000000000000000000000                    000000000000                                                                                                                                                                                                                                                                                                                                                                                                                                                                                        
03257800405780065DT67590675900000015164800888800000010180088824001193076900011715606031620230000000519007623000000002388293480636XXXXXX3236               2111111   NYV4 A7W303076019074366N8400000000051908BNR00    01DNKETOFUSION833-923-3587   824584    VD84000000005190 NP1599977360677   E97720550FT524864D5190D  000000000+                F DF 00415                     000000000  N000000000       0000000000000.00 0000000.00   0000000.00                             000000000000000                                                                                                                                                     01424 G000000005190 0000000000001.01     01650 01500                  
03257810405780001P16759067590000001516480088880000001010000000000000000                             2000000000000000000000000              000000000000                    0000000000000000000000000                    000000000000                                                                                                                                                                                                                                                                                                                                                                                                                                                                                        
03257820405780066DT67590675900000015164800888800000010180088824001193076900011715648031620230000001499007623000000002388293400344XXXXXX5370               2111111   NYV4 A7W383076023878734N84000000001499075XJ00    01DNKETOFUSION833-923-3587   08440B    VS84000000014990 NP1599977360677   73B2D8AADFTE1DF926522BA  000000000+                B CB 12107                     000000000  N000000000 494   0000000000000.00 0000000.00   0000000.00                             000000000000000                                                                                                                                                     01424 G000000014990 0000000000003.16     02040 01000                  
03257830405780001P16759067590000001516480088880000001010000000000000000                             2000000000000000000000000              000000000000                    0000000000000000000000000                    000000000000                                                                                                                                                                                                                                                                                                                                                                                                                                                                                        
03257840405780067DT67590675900000015164800888800000010180088824001193076900011715655031620230000000519007623000000002388293400344XXXXXX5370               2111111   NYV4 A7W583076024215039N840000000005190RWRL00    01DNKETOFUSION833-923-3587   00646B    VS84000000005190 NP1599977360677   73B2D8AADFT51577E676C47  000000000+                B CB 12107                     000000000  N000000000 494   0000000000000.00 0000000.00   0000000.00                             000000000000000                                                                                                                                                     01424 G000000005190 0000000000001.16     02040 01000                  
03257850405780001P16759067590000001516480088880000001010000000000000000                             2000000000000000000000000              000000000000                    0000000000000000000000000                    000000000000                                                                                                                                                                                                                                                                                                                                                                                                                                                                                        
03257860405780068DT67590675900000015164800888800000010180088824001193076900011715663031620230000002487007623000000002388293460275XXXXXX7085               2111111   NYV4 A7W303076026027464N840000000024870J7MT00    01DNKETOFUSION833-923-3587   016184    VS84000000024870 NP1599977360677   DD89714A4DT01D6B7CEFB4A  000000000+                C CC 12108                     000000000  N000000000 496   0000000000000.00 0000000.00   0000000.00                             000000000000000                                                                                                                                                     01424 G000000024870 0000000000005.20     02050 01000                  
03257870405780001P16759067590000001516480088880000001010000000000000000                             2000000000000000000000000              000000000000                    0000000000000000000000000                    000000000000                                                                                                                                                                                                                                                                                                                                                                                                                                                                                        
03257880405780069DT67590675900000015164800888800000010180088824001193076900011715671031620230000000519007623000000002388293460275XXXXXX7085               2111111   NYV4 A7W463076026679513N840000000005190H4X700    01DNKETOFUSION833-923-3587   016819    VS84000000005190 NP1599977360677   DD89714A4DTEBB7CBFDE785  000000000+                C CC 12108                     000000000  N000000000 496   0000000000000.00 0000000.00   0000000.00                             000000000000000                                                                                                                                                     01424 G000000005190 0000000000001.16     02050 01000                  
03257890405780001P16759067590000001516480088880000001010000000000000000                             2000000000000000000000000              000000000000                    0000000000000000000000000                    000000000000                                                                                                                                                                                                                                                                                                                                                                                                                                                                                        
03257900405780070DT67590675900000015164800888800000010180088824001193076900011715689031620230000001499007623000000002388293443047XXXXXX6787               2111111   NYV4 A7W463076029070370N8400000000149902KNH00    01DNKETOFUSION833-923-3587   422947    VD84000000014990 NP1599977360677   F04989E135T25FB66F32081  000000000+                F DF 10420                     000000000  Y000000000 338   0000000000000.00 0000000.00   0000000.00                             000000000000000                                                                                                                                                     01424 G000000014990 0000000000000.29     00050 02200                  
03257910405780001P16759067590000001516480088880000001010000000000000000                             2000000000000000000000000              000000000000                    0000000000000000000000000                    000000000000                                                                                                                                                                                                                                                                                                                                                                                                                                                                                        
03257920405780071DT67590675900000015164800888800000010180088824001193076900011715697031620230000000654807623000000002388293443047XXXXXX6787               2111111   NYV4 A7W583076029235188N840000000006548JSQG00    01DNKETOFUSION833-923-3587   596715    VD84000000006548 NP1599977360677   F04989E135T26346A218794  000000000+                F DF 10420                     000000000  Y000000000 338   0000000000000.00 0000000.00   0000000.00                             000000000000000                                                                                                                                                     01424 G000000006548 0000000000000.25     00050 02200                  
03257930405780001P16759067590000001516480088880000001010000000000000000                             2000000000000000000000000              000000000000                    0000000000000000000000000                    000000000000                                                                                                                                                                                                                                                                                                                                                                                                                                                                                        
03257940405780072DT67590675900000015164800888800000010180088887287283076900011715748031620230000001987007623000000002388293536904XXXXXX3421       ME03KE06MS02      NY 4607AMDSUTU34N0316  N840000000019870          81DNKETOFUSION833-923-3587   095531    MD84000000019870 N  599977360677   8EC4012068T8EF6B90D6FBE  000000000+600450S00130    MDS  00401                     000000000  N                0000000000000.00 0000000.00   0000000.00                             000000000000000                                                                                                                                                   U001424  000000000000 0000000000003.43     01650 01500                  
03257950405780073DT67590675900000015164800888800000010680088874001193076900011715775031620230000000524707623000000002388293443047XXXXXX6787               0000000   NYV4 07T463076033615900N840000000005247354900    01CNKETOFUSION833-923-3587   016852    VD84000000005247 NP1599977360677   F04989E135T25FB66F32081  000000000+                F DF 08168                     000000000  Y000000000 369   0000000000000.00 0000000.00   0000000.00                             000000000000000                                                                                                                                                     01424  000000005247 0000000000000.00     00000 00000                  
03257960405780001P16759067590000001516480088880000001060000000000000000                             2000000000000000000000000              000000000000                    0000000000000000000000000                    000000000000                                                                                                                                                                                                                                                                                                                                                                                                                                                                                        
03257970405780074DT67590675900000015164800888800000010680088874001193076900011715791031620230000000654807623000000002388293443047XXXXXX6787               0000000   NYV4 07T583076033825506N840000000006548DR6Z00    01CNKETOFUSION833-923-3587   016783    VD84000000006548 NP1599977360677   F04989E135T26346A218794  000000000+                F DF 08168                     000000000  Y000000000 369   0000000000000.00 0000000.00   0000000.00                             000000000000000                                                                                                                                                     01424  000000006548 0000000000000.00     00000 00000                  
03257980405780001P16759067590000001516480088880000001060000000000000000                             2000000000000000000000000              000000000000                    0000000000000000000000000                    000000000000                                                                                                                                                                                                                                                                                                                                                                                                                                                                                        
03257990405780075DT67590675900000015164800888800000010180088824001193076900011715812031620230000001987007623000000002388293440066XXXXXX6385               2111111   NYV4 A7W463076034899971N8400000000198709MQ400    01DNKETOFUSION833-923-3587   00680D    VS84000000019870 NP1599977360677   871E46432ETA57A1BE42AC1  000000000+                D CD 12109                     000000000  N000000000 498   0000000000000.00 0000000.00   0000000.00                             000000000000000                                                                                                                                                     01424 G000000019870 0000000000005.07     02500 01000                  
03258000405780001P16759067590000001516480088880000001010000000000000000                             2000000000000000000000000              000000000000                    0000000000000000000000000                    000000000000                                                                                                                                                                                                                                                                                                                                                                                                                                                                                        
03258010405780076DT67590675900000015164800888800000010180088824001193076900011715820031620230000000654807623000000002388293440066XXXXXX6385               2111111   NYV4 A7W463076035455375N840000000006548V4TL00    01DNKETOFUSION833-923-3587   08261D    VS84000000006548 NP1599977360677   871E46432ET2A009AAC1DFA  000000000+                D CD 12109                     000000000  N000000000 498   0000000000000.00 0000000.00   0000000.00                             000000000000000                                                                                                                                                     01424 G000000006548 0000000000001.74     02500 01000                  
03258020405780001P16759067590000001516480088880000001010000000000000000                             2000000000000000000000000              000000000000                    0000000000000000000000000                    000000000000                                                                                                                                                                                                                                                                                                                                                                                                                                                                                        
03258030405780077DT67590675900000015164800888800000010180088824001193076900011715853031620230000002487007623000000002388293416047XXXXXX1537               2111111   NYV4 A7W583076041539659N840000000024870KZK500    01DNKETOFUSION833-923-3587   366536    VD84000000024870 NP1599977360677   A08F1F263AT102000CC8D7E  000000000+                F DF 00415                     000000000  N000000000       0000000000000.00 0000000.00   0000000.00                             000000000000000                                                                                                                                                     01424 G000000024870 0000000000004.25     01650 01500                  
03258040405780001P16759067590000001516480088880000001010000000000000000                             2000000000000000000000000              000000000000                    0000000000000000000000000                    000000000000                                                                                                                                                                                                                                                                                                                                                                                                                                                                                        
03258050405780078DT67590675900000015164800888800000010180088824001193076900011715861031620230000000654807623000000002388293416047XXXXXX1537               2111111   NYV4 A7W383076041944083N840000000006548HQ3V00    01DNKETOFUSION833-923-3587   366591    VD84000000006548 NP1599977360677   A08F1F263AT2BC94F229F60  000000000+                F DF 00415                     000000000  N000000000       0000000000000.00 0000000.00   0000000.00                             000000000000000                                                                                                                                                     01424 G000000006548 0000000000001.23     01650 01500                  
03258060405780001P16759067590000001516480088880000001010000000000000000                             2000000000000000000000000              000000000000                    0000000000000000000000000                    000000000000                                                                                                                                                                                                                                                                                                                                                                                                                                                                                        
03258070405780079DT67590675900000015164800888800000010180088824001193076900011715887031620230000001987007623000000002388293414740XXXXXX3738               2111111   NYV4 A7W383076052165413N840000000019870ZH9B00    01DNKETOFUSION833-923-3587   09690D    VS84000000019870 NP1599977360677   4ADB3C0175T4743949FD13D  000000000+                D CD 12109                     000000000  N000000000 498   0000000000000.00 0000000.00   0000000.00                             000000000000000                                                                                                                                                     01424 G000000019870 0000000000005.07     02500 01000                  
03258080405780001P16759067590000001516480088880000001010000000000000000                             2000000000000000000000000              000000000000                    0000000000000000000000000                    000000000000                                                                                                                                                                                                                                                                                                                                                                                                                                                                                        
03258090405780080DT67590675900000015164800888800000010180088824001193076900011715895031620230000000654807623000000002388293414740XXXXXX3738               2111111   NYV4 A7W383076052558365N840000000006548PDNK00    01DNKETOFUSION833-923-3587   02060D    VS84000000006548 NP1599977360677   4ADB3C0175T12B02F60DA08  000000000+                D CD 12109                     000000000  N000000000 498   0000000000000.00 0000000.00   0000000.00                             000000000000000                                                                                                                                                     01424 G000000006548 0000000000001.74     02500 01000                  
03258100405780001P16759067590000001516480088880000001010000000000000000                             2000000000000000000000000              000000000000                    0000000000000000000000000                    000000000000                                                                                                                                                                                                                                                                                                                                                                                                                                                                                        
03258110405780081DT67590675900000015164800888800000010180088824001193076900011715903031620230000000519007623000000002388293414740XXXXXX3738               2111111   NYV4 A7W303076052672341N840000000005190X64400    01DNKETOFUSION833-923-3587   02444D    VS84000000005190 NP1599977360677   4ADB3C0175T24467092EB35  000000000+                D CD 12109                     000000000  N000000000 498   0000000000000.00 0000000.00   0000000.00                             000000000000000                                                                                                                                                     01424 G000000005190 0000000000001.40     02500 01000                  
03258120405780001P16759067590000001516480088880000001010000000000000000                             2000000000000000000000000              000000000000                    0000000000000000000000000                    000000000000                                                                                                                                                                                                                                                                                                                                                                                                                                                                                        
03258130405780082DT67590675900000015164800888800000010180088824001193076900011715911031620230000001987007623000000002388293471876XXXXXX1195               2111111   NYV4 A7W583076053592620N840000000019870B9WV00    01DNKETOFUSION833-923-3587   012919    VD84000000019870 NP1599977360677   ED03D7430ETE05C26D1F121  000000000+                F DF 00415                     000000000  N000000000       0000000000000.00 0000000.00   0000000.00                             000000000000000                                                                                                                                                     01424 G000000019870 0000000000003.43     01650 01500                  
03258140405780001P16759067590000001516480088880000001010000000000000000                             2000000000000000000000000              000000000000                    0000000000000000000000000                    000000000000                                                                                                                                                                                                                                                                                                                                                                                                                                                                                        
