02752890053933923AD675906759000000198288001098000009077900010202820000001987004302023NYY12023YC6759800109050220232023097005984                                                                                                                                                                                                                                                                                                                                                                                                                                                                                                                                                                                              
02752900053933929AD675906759000000151648008888000009077900012130370000000654804302023NYY12023YC6759800888050220232023093033997                                                                                                                                                                                                                                                                                                                                                                                                                                                                                                                                                                                              
02752910053933935AD675906759000000090928001018000009077900011200210000000427504302023NYY12023YC6759800101050220232023108007881                                                                                                                                                                                                                                                                                                                                                                                                                                                                                                                                                                                              
02752920053933941AD675906759000000151648008888000009077900012772830000001187204302023NYY12023YC6759800888050220232023109005220                                                                                                                                                                                                                                                                                                                                                                                                                                                                                                                                                                                              
02752930053933944AD675906759000000151648008888000009077900013958450000001987004302023NYY12023YC6759800888050220232023118027611                                                                                                                                                                                                                                                                                                                                                                                                                                                                                                                                                                                              
02752940053933950AD675906759000000198288001098000009071900012240620000001291504302023NYY12023ND6759800109050220232023118022935                                                                                                                                                                                                                                                                                                                                                                                                                                                                                                                                                                                              
02752950053933953AD675906759000000198288001098000009071900011513950000000654804302023NYY12023ND6759800109050220232023118022936                                                                                                                                                                                                                                                                                                                                                                                                                                                                                                                                                                                              
02752960053933956AD675906759000000198288001098000009071900011513970000000519004302023NYY12023ND6759800109050220232023118022937                                                                                                                                                                                                                                                                                                                                                                                                                                                                                                                                                                                              
02752970053933959AD675906759000000198288001098000009071900011513930000001987004302023NYY12023ND6759800109050220232023118022938                                                                                                                                                                                                                                                                                                                                                                                                                                                                                                                                                                                              
02752980053933962AD675906759000000232598001168000009071900011107920000002178904302023NYY12023ND6759800116050220232023118022939                                                                                                                                                                                                                                                                                                                                                                                                                                                                                                                                                                                              
02752990053933965AD675906759000000142748001028000009071900016575620000002197604302023NYY12023ND6759800102050220232023118022940                                                                                                                                                                                                                                                                                                                                                                                                                                                                                                                                                                                              
02753000053933968AD675906759000000151648008888000009071900013097760000001987004302023NYY12023ND6759800888050220232023118022941                                                                                                                                                                                                                                                                                                                                                                                                                                                                                                                                                                                              
02753010053933971AD675906759000000142748001028000009071900016066000000002443904302023NYY12023ND6759800102050220232023118022942                                                                                                                                                                                                                                                                                                                                                                                                                                                                                                                                                                                              
02753020053933974AD675906759000000198288001098000009071900012648020000000327404302023NYY12023ND6759800109050220232023118022943                                                                                                                                                                                                                                                                                                                                                                                                                                                                                                                                                                                              
02753030053933977AD675906759000000268498001258000009071900010503670000000777004302023NYY12023ND6759800125050220232023118022944                                                                                                                                                                                                                                                                                                                                                                                                                                                                                                                                                                                              
02753040053933980AD675906759000000070888001018000009071900011800040000000906704302023NYY12023ND6759800101050220232023118022946                                                                                                                                                                                                                                                                                                                                                                                                                                                                                                                                                                                              
02753050053933983AD675906759000000198288001098000009071900012241390000000259504302023NYY12023ND6759800109050220232023118022947                                                                                                                                                                                                                                                                                                                                                                                                                                                                                                                                                                                              
02753060056350002BH6759067590000000659380010180000090170501202312123000000000044986    0000090001010009N8001016759C05022023                                                                                                                                                                                                                                                                                                                                                                                                                                                                                                                                                                                                 
02753070056350003DT67590675900000006593800101800000010180010177287283121900010100013042920230000000242912123000000000044986514377XXXXXX1011       ME03MS02WI09      NY 1 0 AMDJH01L840429  N840000000002429          01DNPLANET VAPOR INC #100    2IQDGO    MD84000000002429 N  599977525832                            000000000+M1010115434C    MDJ  00399                     000000000  N                0000000000000.00 0000000.00   0000000.00                             000000000000000                                                                                                                                                   E101418  000000000000 0000000000000.55     01650 01500                  
02753080056350004DT67590675900000006593800101800000010180010124001193121900010100029042920230000000777412123000000000044986438419XXXXXX1612       VS11    0001111   NYV1 A E303119581249456N840000000007774KHX300    07DNPLANET VAPOR INC #100    020844    VD84000000007774 N  599977525832                            000000000+                F DF 00381                     000000000  N000000000       0000000000000.00 0000000.00   0000000.00                             000000000000000                                                                                                                                                     01418 A000000000000 0000000000000.77     00800 01500                  
02753090056350005DT67590675900000006593800101800000010180010124001193121900010100037042920230000000485812123000000000044986438419XXXXXX5397       VS11    0001111   NYV1 A E463119641329312N840000000004858KS4P00    07DNPLANET VAPOR INC #100    034852    VD84000000004858 N  599977525832                            000000000+                F DF 00381                     000000000  N000000000       0000000000000.00 0000000.00   0000000.00                             000000000000000                                                                                                                                                     01418 A000000000000 0000000000000.54     00800 01500                  
02753100056350006DT67590675900000006593800101800000010180010124001193121900010100045042920230000000242912123000000000044986422912XXXXXX3772       VS11    0001111   NYV1 A E583119641876494N840000000002429RX9D00    05DNPLANET VAPOR INC #100    667303    VD84000000002429 N  599977525832                            000000000+                F DF 00381                     000000000  N000000000       0000000000000.00 0000000.00   0000000.00                             000000000000000                                                                                                                                                     01418 A000000000000 0000000000000.34     00800 01500                  
02753110056350007DT67590675900000006593800101800000010180010124001193121900010100052042920230000000242912123000000000044986448261XXXXXX6712       VS11    0001111   NYV1 A E463119691617507N8400000000024299LBN00    07DNPLANET VAPOR INC #100    167353    VD84000000002429 N  599977525832                            000000000+                F DF 10433                     000000000  Y000000000 338   0000000000000.00 0000000.00   0000000.00                             000000000000000                                                                                                                                                     01418 A000000000000 0000000000000.23     00050 02200                  
02753120056350008DT67590675900000006593800101800000010180010124001193121900010100060042920230000000291512123000000000044986463405XXXXXX4103       VS11    0001111   NYV1 A E583119692452250N8400000000029153HTL00    07DNPLANET VAPOR INC #100    071613    VD84000000002915 N  599977525832                            000000000+                F DF 10433                     000000000  Y000000000 338   0000000000000.00 0000000.00   0000000.00                             000000000000000                                                                                                                                                     01418 A000000000000 0000000000000.23     00050 02200                  
02753130056350009DT67590675900000006593800101800000010180010173011003121900010100074042920230000000874512123000000000044986379136XXXXX4003                          NY 1 0 N004921276529305N840000000008745          07DNPLANET VAPOR INC #100    823743    AM84000000008745 N  599977525832                            000000000+51010X55434C 258     11262                     000000000                   0000000000000.00 0000000.00   0000000.00                             000000000000000 61248972086759675900000006593 PLANET VAPOR INC #100    9300 TOP NOTCH RD STE 1  8035462263      29223     KEVIN@MOOREDISTRO.COM                     01418  000000000000 0000000000001.81     01950 00000                  
02753140056350010DT67590675900000006593800101800000010180010124001193121900010100086042920230000000271912123000000000044986461675XXXXXX6217       VS11    0001111   NYV1 A E463119784513236N840000000002719MTR900    05DNPLANET VAPOR INC #100    148280    VD84000000002719 N  599977525832                            000000000+                F DF 00381                     000000000  N000000000       0000000000000.00 0000000.00   0000000.00                             000000000000000                                                                                                                                                     01418 A000000000000 0000000000000.37     00800 01500                  
02753150056350011DT67590675900000006593800101800000010180010124001193121900010100094042920230000001068812123000000000044986458643XXXXXX2525       VS11    0001111   NYV1 A E303119787647775N840000000010688GQ4N00    05DNPLANET VAPOR INC #100    H75991    VD84000000010688 N  599977525832                            000000000+                F DF 10433                     000000000  Y000000000 338   0000000000000.00 0000000.00   0000000.00                             000000000000000                                                                                                                                                     01418 A000000000000 0000000000000.27     00050 02200                  
02753160056350012BH6759067590000000288180088880000090170501202312123000000000174862    0000090001030030N8008886759C05022023                                                                                                                                                                                                                                                                                                                                                                                                                                                                                                                                                                                                 
02753170056350013DT67590675900000002881800888800000010180088824001193121900010300017050120230000001017312123000000000174862410889XXXXXX3088       VS11    0001111   NYV1 A E463121513029546N8400000000101734R4T00    05DNHAPPY HIPPIE             536903    VS84000000010173 N  549976487134                            000000000+                B CB 12111                     000000000  N000000000 495   0000000000000.00 0000000.00   0000000.00                             000000000000000                                                                                                                                                     01418 A000000000000 0000000000001.78     01650 01000                  
02753180056350014DT67590675900000002881800888800000010180088824001193121900010300025050120230000000548612123000000000174862441281XXXXXX9309       VS11    0001111   NYV1 A E303121514262230N84000000000548637HZ00    07DNHAPPY HIPPIE             375340    VD84000000005486 N  549976487134                            000000000+                F DF 10433                     000000000  Y000000000 338   0000000000000.00 0000000.00   0000000.00                             000000000000000                                                                                                                                                     01418 A000000000000 0000000000000.25     00050 02200                  
02753190056350015DT67590675900000002881800888800000010180088877287283121900010300035050120230000002781012123000000000174862516693XXXXXX0242       MS02WI09          NY 1 0 AMDSPOX6SX0501  N840000000027810          05DNHAPPY HIPPIE             623673    MD84000000027810 N  549976487134                            000000000+M10101C5434C    MDS  00402                     000000000  N                0000000000000.00 0000000.00   0000000.00                             000000000000000                                                                                                                                                   B101418  000000000000 0000000000003.07     01050 01500                  
02753200056350016DT67590675900000002881800888800000010180088824001193121900010300041050120230000000562812123000000000174862415978XXXXXX2603       VS11    0001111   NYV1 A E383121557871939N840000000005628QGHZ00    05DNHAPPY HIPPIE             081416    VD84000000005628 N  549976487134                            000000000+                F DF 10433                     000000000  Y000000000 338   0000000000000.00 0000000.00   0000000.00                             000000000000000                                                                                                                                                     01418 A000000000000 0000000000000.25     00050 02200                  
02753210056350017DT67590675900000002881800888800000010180088824001193121900010300058050120230000000177812123000000000174862415978XXXXXX6979       VS11    0001111   NYV1 A E583121571271932N840000000001778WBXJ00    07DNHAPPY HIPPIE             050547    VD84000000001778 N  549976487134                            000000000+                F DF 10433                     000000000  Y000000000 338   0000000000000.00 0000000.00   0000000.00                             000000000000000                                                                                                                                                     01418 A000000000000 0000000000000.23     00050 02200                  
02753220056350018DT67590675900000002881800888800000010180088877287283121900010300068050120230000000880012123000000000174862546633XXXXXX1395       MS02WI09          NY 1 0 AMCWR2WKSX0501  N840000000008800          05DNHAPPY HIPPIE             01159Z    MC84000000008800 N  549976487134                            000000000+M10101C5434C    MCW  00646                     000000000  N                0000000000000.00 0000000.00   0000000.00                             000000000000000                                                                                                                                                   B101418  000000000000 0000000000001.71     01900 00400                  
02753230056350019DT67590675900000002881800888800000010180088877287283121900010300076050120230000000276512123000000000174862517805XXXXXX2490       MS02WI09          NY 1 0 AMCWEG3ISY0501  N840000000002765          05DNHAPPY HIPPIE             04451P    MC84000000002765 N  549976487134                            000000000+M10101C5434C    MCW  00646                     000000000  N                0000000000000.00 0000000.00   0000000.00                             000000000000000                                                                                                                                                   B101418  000000000000 0000000000000.57     01900 00400                  
02753240056350020DT67590675900000002881800888800000010180088824001193121900010300082050120230000001026612123000000000174862414740XXXXXX3535       VS11    0001111   NYV1 A E463121605615190N840000000010266LWPH00    05DNHAPPY HIPPIE             07651D    VS84000000010266 N  549976487134                            000000000+                D CD 12113                     000000000  N000000000 499   0000000000000.00 0000000.00   0000000.00                             000000000000000                                                                                                                                                     01418 A000000000000 0000000000002.26     02100 01000                  
02753250056350021DT67590675900000002881800888800000010180088824001193121900010300090050120230000000404712123000000000174862414740XXXXXX3535       VS11    0001111   NYV1 A E463121607865053N8400000000040475S7Q00    05DNHAPPY HIPPIE             09192D    VS84000000004047 N  549976487134                            000000000+                D CD 12113                     000000000  N000000000 499   0000000000000.00 0000000.00   0000000.00                             000000000000000                                                                                                                                                     01418 A000000000000 0000000000000.95     02100 01000                  
02753260056350022DT67590675900000002881800888800000010180088824001193121900010300108050120230000001392612123000000000174862419090XXXXXX9589       VS11    0001111   NYV1 A E583121621216828N840000000013926F6LK00    05DNHAPPY HIPPIE             755103    VD84000000013926 N  549976487134                            000000000+                F DF 00381                     000000000  N000000000       0000000000000.00 0000000.00   0000000.00                             000000000000000                                                                                                                                                     01418 A000000000000 0000000000001.26     00800 01500                  
02753270056350023DT67590675900000002881800888800000010180088824001193121900010300116050120230000000790112123000000000174862469049XXXXXX1852       VS11    0001111   NYV1 A E583121621525899N840000000007901LPR400    07DNHAPPY HIPPIE             048368    VD84000000007901 N  549976487134                            000000000+                F DF 10433                     000000000  Y000000000 338   0000000000000.00 0000000.00   0000000.00                             000000000000000                                                                                                                                                     01418 A000000000000 0000000000000.26     00050 02200                  
02753280056350024DT67590675900000002881800888800000010180088824001193121900010300124050120230000000177812123000000000174862400022XXXXXX9671       VS11    0001111   NYV1 A E463121622930595N840000000001778KMQZ00    05DNHAPPY HIPPIE             414172    VD84000000001778 N  549976487134                            000000000+                F DF 10433                     000000000  Y000000000 338   0000000000000.00 0000000.00   0000000.00                             000000000000000                                                                                                                                                     01418 A000000000000 0000000000000.23     00050 02200                  
02753290056350025DT67590675900000002881800888800000010180088824001193121900010300132050120230000000345612123000000000174862400022XXXXXX9671       VS11    0001111   NYV1 A E303121624111114N840000000003456NMBF00    07DNHAPPY HIPPIE             415771    VD84000000003456 N  549976487134                            000000000+                F DF 10433                     000000000  Y000000000 338   0000000000000.00 0000000.00   0000000.00                             000000000000000                                                                                                                                                     01418 A000000000000 0000000000000.24     00050 02200                  
02753300056350026DT67590675900000002881800888800000010180088824001193121900010300140050120230000001301212123000000000174862463405XXXXXX7149       VS11    0001111   NYV1 A E583121632300625N840000000013012SN2400    05DNHAPPY HIPPIE             068166    VD84000000013012 N  549976487134                            000000000+                F DF 10433                     000000000  Y000000000 338   0000000000000.00 0000000.00   0000000.00                             000000000000000                                                                                                                                                     01418 A000000000000 0000000000000.29     00050 02200                  
02753310056350027DT67590675900000002881800888800000010180088824001193121900010300157050120230000000395012123000000000174862405310XXXXXX7840       VS11    0001111   NYV1 A E583121651321630N84000000000395026P500    07DNHAPPY HIPPIE             001122    VS84000000003950 N  549976487134                            000000000+                A CA 12110                     000000000  N000000000 493   0000000000000.00 0000000.00   0000000.00                             000000000000000                                                                                                                                                     01418 A000000000000 0000000000000.70     01510 01000                  
02753320056350028DT67590675900000002881800888800000010180088824001193121900010300165050120230000000393812123000000000174862435546XXXXXX8931       VS11    0001111   NYV1 A E463121658962730N840000000003938N4F700    05DNHAPPY HIPPIE             094083    VD84000000003938 N  549976487134                            000000000+                F DF 10433                     000000000  Y000000000 338   0000000000000.00 0000000.00   0000000.00                             000000000000000                                                                                                                                                     01418 A000000000000 0000000000000.24     00050 02200                  
02753330056350029DT67590675900000002881800888800000010180088824001193121900010300173050120230000000295012123000000000174862415978XXXXXX3860       VS11    0001111   NYV1 A E583121667171568N840000000002950RH7X00    07DNHAPPY HIPPIE             038387    VD84000000002950 N  549976487134                            000000000+                F DF 10433                     000000000  Y000000000 338   0000000000000.00 0000000.00   0000000.00                             000000000000000                                                                                                                                                     01418 A000000000000 0000000000000.23     00050 02200                  
02753340056350030DT67590675900000002881800888800000010180088877287283121900010300183050120230000000079012123000000000174862511953XXXXXX8024       MS02WI09          NY 1 0 AMDJUSQM8F0501  N840000000000790          05DNHAPPY HIPPIE             018242    MD84000000000790 N  549976487134                            000000000+M10101C5434C    MDJ  00505                     000000000  N                0000000000000.00 0000000.00   0000000.00                             000000000000000                                                                                                                                                   B101418  000000000000 0000000000000.16     01550 00400                  
02753350056350031DT67590675900000002881800888800000010180088877287283121900010300191050120230000000548812123000000000174862511953XXXXXX9431       MS02WI09          NY 1 0 AMDJHNY96I0501  N840000000005488          05DNHAPPY HIPPIE             025182    MD84000000005488 N  549976487134                            000000000+M10101C5434C    MDJ  00402                     000000000  N                0000000000000.00 0000000.00   0000000.00                             000000000000000                                                                                                                                                   B101418  000000000000 0000000000000.73     01050 01500                  
02753360056350032DT67590675900000002881800888800000010180088824001193121900010300207050120230000000158012123000000000174862498503XXXXXX0161       VS11    0001111   NYV1 A E583121722487967N840000000001580MLTP00    05DNHAPPY HIPPIE             006981    VD84000000001580 N  549976487134                            000000000+                F DF 00381                     000000000  N000000000       0000000000000.00 0000000.00   0000000.00                             000000000000000                                                                                                                                                     01418 A000000000000 0000000000000.28     00800 01500                  
02753370056350033DT67590675900000002881800888800000010180088824001193121900010300215050120230000000548812123000000000174862419090XXXXXX2900       VS11    0001111   NYV1 A E463121725184500N8400000000054889STS00    05DNHAPPY HIPPIE             761115    VD84000000005488 N  549976487134                            000000000+                F DF 00381                     000000000  N000000000       0000000000000.00 0000000.00   0000000.00                             000000000000000                                                                                                                                                     01418 A000000000000 0000000000000.59     00800 01500                  
02753380056350034DT67590675900000002881800888800000010180088824001193121900010300223050120230000000799912123000000000174862476516XXXXXX2879               1001111   NYV1 A K383121742847908N8400000000079997J7K00    01DNHAPPY HIPPIE             214901    VD84000000007999 N  549976487134                            000000000+                F DF 00412                     000000000  N000000000       0000000000000.00 0000000.00   0000000.00                             000000000000000                                                                                                                                                     01418 E000000000000 0000000000001.47     01650 01500                  
02753390056350035DT67590675900000002881800888800000010180088824001193121900010300231050120230000000592512123000000000174862474487XXXXXX1417       VS11    0001111   NYV1 A E303121757988612N840000000005925C56V00    05DNHAPPY HIPPIE             140735    VD84000000005925 N  549976487134                            000000000+                F DF 10433                     000000000  Y000000000 338   0000000000000.00 0000000.00   0000000.00                             000000000000000                                                                                                                                                     01418 A000000000000 0000000000000.25     00050 02200                  
02753400056350036DT67590675900000002881800888800000010180088824001193121900010300249050120230000000276612123000000000174862421783XXXXXX6944       VS11    0001111   NYV1 A E383121771417028N840000000002766ZDWJ00    05DNHAPPY HIPPIE             083076    VS84000000002766 N  549976487134                            000000000+                A CA 12110                     000000000  N000000000 493   0000000000000.00 0000000.00   0000000.00                             000000000000000                                                                                                                                                     01418 A000000000000 0000000000000.52     01510 01000                  
02753410056350037DT67590675900000002881800888800000010180088824001193121900010300256050120230000000452912123000000000174862441776XXXXXX7549       VS11    0001111   NYV1 A E463121772299590N840000000004529LRTG00    07DNHAPPY HIPPIE             763924    VD84000000004529 N  549976487134                            000000000+                F DF 00381                     000000000  N000000000       0000000000000.00 0000000.00   0000000.00                             000000000000000                                                                                                                                                     01418 A000000000000 0000000000000.51     00800 01500                  
02753420056350038DT67590675900000002881800888800000010180088824001193121900010300264050120230000000197212123000000000174862404227XXXXXX1553       VS11    0001111   NYV1 A E583121773026302N840000000001972VSGP00    07DNHAPPY HIPPIE             136952    VD84000000001972 N  549976487134                            000000000+                F DF 00381                     000000000  N000000000       0000000000000.00 0000000.00   0000000.00                             000000000000000                                                                                                                                                     01418 A000000000000 0000000000000.31     00800 01500                  
02753430056350039DT67590675900000002881800888800000010180088877287283121900010300274050120230000000434212123000000000174862517805XXXXXX2233       MS02WI09          NY 1 0 AMPLJ3OTXV0501  N840000000004342          07DNHAPPY HIPPIE             08535B    MC84000000004342 N  549976487134                            000000000+M10101M0034C    MPL  00364                     000000000  N                0000000000000.00 0000000.00   0000000.00                             000000000000000                                                                                                                                                   B101418  000000000000 0000000000000.82     01800 00400                  
02753440056350040DT67590675900000002881800888800000010180088824001193121900010300280050120230000000197612123000000000174862422921XXXXXX4190       VS11    0001111   NYV1 A E583121778409739N840000000001976XWJK00    07DNHAPPY HIPPIE             063441    VD84000000001976 N  549976487134                            000000000+                F DF 00381                     000000000  N000000000       0000000000000.00 0000000.00   0000000.00                             000000000000000                                                                                                                                                     01418 A000000000000 0000000000000.31     00800 01500                  
02753450056350041DT67590675900000002881800888800000010180088824001193121900010300298050120230000000325812123000000000174862485671XXXXXX2230       VS11    0001111   NYV1 A E463121781937343N840000000003258F7DR00    07DNHAPPY HIPPIE             31382A    VS84000000003258 N  549976487134                            000000000+                A CA 12110                     000000000  N000000000 493   0000000000000.00 0000000.00   0000000.00                             000000000000000                                                                                                                                                     01418 A000000000000 0000000000000.59     01510 01000                  
02753460056350042DT67590675900000002881800888800000010180088824001193121900010300306050120230000000108512123000000000174862422921XXXXXX1701       VK04VS111111111   NYV1 A E383121783372080N840000000001085WMWF00    05DNHAPPY HIPPIE             063938    VD84000000001085 N  549976487134                            000000000+                F DF 00451                     000000000  N000000000 214   0000000000000.00 0000000.00   0000000.00                             000000000000000                                                                                                                                                     01418 F000000000000 0000000000000.21     01550 00400                  
02753470056350043BH6759067590000000215480088880000090170501202312123000000000123600    0000090001727836N8008886759C05022023                                                                                                                                                                                                                                                                                                                                                                                                                                                                                                                                                                                                 
02753480056350044DT67590675900000002154800888800000010180088887287283121900017205145050120230000008910012123000000000123600558962XXXXXX7952                         NY 4607AMWBYURJLY0501  N840000000089100          81DNDRIP DROP DISTRO LLC     03536Q    MB84000000089100 NP1519900000001   17758                    000000000+600450S00140    MWB  11637                     000000000  N                0000000000000.00 0000000.00   0000000.00                             000000000000000                                                                                                                                                   U001418  000000000000 0000000000026.83     03000 01000                  
02753490056350001P1675906759000000021548008888000000101                                                          000000000000          8000            471534935                                                                                                                                                                                                                                                                                                                                                                                                                                                                                                                                                            
02753500056350045DT67590675900000002154800888800000010180088887287283121900017278365050120230000003450012123000000000123600547415XXXXXX7571                         NY 4607AMEBMDGYSY0501  N840000000034500          81DNDRIP DROP DISTRO LLC     06003Q    MB84000000034500 NP1519900000001   17757                    000000000+600450S00140    MEB  11637                     000000000  N                0000000000000.00 0000000.00   0000000.00                             000000000000000                                                                                                                                                   U001418  000000000000 0000000000010.45     03000 01000                  
02753510056350001P1675906759000000021548008888000000101                                                          000000000000          8000            471534935                                                                                                                                                                                                                                                                                                                                                                                                                                                                                                                                                            
02753520056350046BH6759067590000000833480010180000090170501202312123000000000222206    0000090001470050N8001016759C05022023                                                                                                                                                                                                                                                                                                                                                                                                                                                                                                                                                                                                 
02753530056350047DT67590675900000008334800101800000010180010177287283121900014700016050120230000001334412123000000000222206531258XXXXXX3454       MS02WI09          NY 1 0 AMDJL7ETSY0501  N840000000013344          05DNPLANET VAPOR INC #400    145511    MD84000000013344 N  599977384698                            000000000+M10101C5434C    MDJ  10815                     000000000  1                0000000000000.00 0000000.00   0000000.00                             000000000000000                                                                                                                                                   B101418  000000000000 0000000000000.29     00050 02200                  
02753540056350048DT67590675900000008334800101800000010180010177287283121900014700024050120230000000192512123000000000222206518941XXXXXX5925       MS02WI09          NY 1 0 AMWEQE68SX0501  N840000000001925          05DNPLANET VAPOR INC #400    30855Z    MC84000000001925 N  599977384698                            000000000+M10101C5434C    MWE  00739                     000000000  N                0000000000000.00 0000000.00   0000000.00                             000000000000000                                                                                                                                                   B101418  000000000000 0000000000000.54     02300 01000                  
02753550056350049DT67590675900000008334800101800000010180010124001193121900014700030050120230000000481412123000000000222206435545XXXXXX1297       VS11    0001111   NYV1 A E583121545134068N840000000004814PBH500    05DNPLANET VAPOR INC #400    076135    VD84000000004814 N  599977384698                            000000000+                F DF 10433                     000000000  Y000000000 338   0000000000000.00 0000000.00   0000000.00                             000000000000000                                                                                                                                                     01418 A000000000000 0000000000000.24     00050 02200                  
02753560056350050DT67590675900000008334800101800000010180010124001193121900014700048050120230000000135312123000000000222206430602XXXXXX9992       VK04VS111111111   NYV1 A E583121546031790N840000000001353NZ5400    05DNPLANET VAPOR INC #400    235321    VD84000000001353 N  599977384698                            000000000+                F DF 00451                     000000000  N000000000 214   0000000000000.00 0000000.00   0000000.00                             000000000000000                                                                                                                                                     01418 F000000000000 0000000000000.25     01550 00400                  
02753570056350051DT67590675900000008334800101800000010180010124001193121900014700055050120230000000320812123000000000222206461675XXXXXX3373       VS11    0001111   NYV1 A E303121547046200N8400000000032087H2M00    05DNPLANET VAPOR INC #400    974230    VD84000000003208 N  599977384698                            000000000+                F DF 00381                     000000000  N000000000       0000000000000.00 0000000.00   0000000.00                             000000000000000                                                                                                                                                     01418 A000000000000 0000000000000.41     00800 01500                  
02753580056350052DT67590675900000008334800101800000010180010177287283121900014700065050120230000000534712123000000000222206515676XXXXXX1272       MS02WI09          NY 1 0 AMWENSSFSY0501  N840000000005347          05DNPLANET VAPOR INC #400    08147Z    MC84000000005347 N  599977384698                            000000000+M10101C5434C    MWE  00739                     000000000  N                0000000000000.00 0000000.00   0000000.00                             000000000000000                                                                                                                                                   B101418  000000000000 0000000000001.33     02300 01000                  
02753590056350053DT67590675900000008334800101800000010180010124001193121900014700071050120230000000320812123000000000222206461675XXXXXX5261       VS11    0001111   NYV1 A E463121570804989N840000000003208SP4200    05DNPLANET VAPOR INC #400    000890    VD84000000003208 N  599977384698                            000000000+                F DF 00381                     000000000  N000000000       0000000000000.00 0000000.00   0000000.00                             000000000000000                                                                                                                                                     01418 A000000000000 0000000000000.41     00800 01500                  
02753600056350054DT67590675900000008334800101800000010180010177287283121900014700081050120230000000472812123000000000222206515676XXXXXX8588       MS02WI09          NY 1 0 AMWEYGKWLY0501  N840000000004728          05DNPLANET VAPOR INC #400    03331Z    MC84000000004728 N  599977384698                            000000000+M10101C5434C    MWE  00739                     000000000  N                0000000000000.00 0000000.00   0000000.00                             000000000000000                                                                                                                                                   B101418  000000000000 0000000000001.19     02300 01000                  
02753610056350055DT67590675900000008334800101800000010180010124001193121900014700097050120230000000160412123000000000222206414740XXXXXX9412       VS11    0001111   NYV1 A E463121573787555N840000000001604TMNH00    05DNPLANET VAPOR INC #400    08557D    VS84000000001604 N  599977384698                            000000000+                D CD 12113                     000000000  N000000000 499   0000000000000.00 0000000.00   0000000.00                             000000000000000                                                                                                                                                     01418 A000000000000 0000000000000.44     02100 01000                  
02753620056350056DT67590675900000008334800101800000010180010124001193121900014700105050120230000000235312123000000000222206461675XXXXXX2054       VS11    0001111   NYV1 A E583121579600945N840000000002353L4W600    05DNPLANET VAPOR INC #400    012270    VD84000000002353 N  599977384698                            000000000+                F DF 00381                     000000000  N000000000       0000000000000.00 0000000.00   0000000.00                             000000000000000                                                                                                                                                     01418 A000000000000 0000000000000.34     00800 01500                  
02753630056350057DT67590675900000008334800101800000010180010124001193121900014700113050120230000000556312123000000000222206403766XXXXXX3908       VS11    0001111   NYV1 A E463121583381179N840000000005563J95Z00    05DNPLANET VAPOR INC #400    111021    VS84000000005563 N  599977384698                            000000000+                A CA 12110                     000000000  N000000000 493   0000000000000.00 0000000.00   0000000.00                             000000000000000                                                                                                                                                     01418 A000000000000 0000000000000.94     01510 01000                  
02753640056350058DT67590675900000008334800101800000010180010124001193121900014700121050120230000000267412123000000000222206466189XXXXXX0248       VS11    0001111   NYV1 A E383121601275338N840000000002674G83N00    05DNPLANET VAPOR INC #400    027379    VD84000000002674 N  599977384698                            000000000+                F DF 10433                     000000000  Y000000000 338   0000000000000.00 0000000.00   0000000.00                             000000000000000                                                                                                                                                     01418 A000000000000 0000000000000.23     00050 02200                  
02753650056350059DT67590675900000008334800101800000010180010177287283121900014700131050120230000000235312123000000000222206528149XXXXXX8309       MS02WI09          NY 1 0 AMDJDA1Q6I0501  N840000000002353          05DNPLANET VAPOR INC #400    047290    MD84000000002353 N  599977384698                            000000000+M10101C5434C    MDJ  00402                     000000000  N                0000000000000.00 0000000.00   0000000.00                             000000000000000                                                                                                                                                   B101418  000000000000 0000000000000.40     01050 01500                  
02753660056350060DT67590675900000008334800101800000010180010124001193121900014700147050120230000000406412123000000000222206414718XXXXXX8180       VS11    0001111   NYV1 A E463121622397968N840000000004064SGFZ00    07DNPLANET VAPOR INC #400    001561    VS84000000004064 N  599977384698                            000000000+                D CD 12113                     000000000  N000000000 499   0000000000000.00 0000000.00   0000000.00                             000000000000000                                                                                                                                                     01418 A000000000000 0000000000000.95     02100 01000                  
02753670056350061DT67590675900000008334800101800000010180010124001193121900014700154050120230000000856512123000000000222206461675XXXXXX6826       VS11    0001111   NYV1 A E303121623710749N8400000000085657VK300    05DNPLANET VAPOR INC #400    073530    VD84000000008565 N  599977384698                            000000000+                F DF 00381                     000000000  N000000000       0000000000000.00 0000000.00   0000000.00                             000000000000000                                                                                                                                                     01418 A000000000000 0000000000000.84     00800 01500                  
02753680056350062DT67590675900000008334800101800000010180010124001193121900014700162050120230000000442812123000000000222206406095XXXXXX9396       VS11    0001111   NYV1 A E583121654207002N840000000004428XQXS00    05DNPLANET VAPOR INC #400    00619C    VS84000000004428 N  599977384698                            000000000+                C CC 12112                     000000000  N000000000 497   0000000000000.00 0000000.00   0000000.00                             000000000000000                                                                                                                                                     01418 A000000000000 0000000000000.83     01650 01000                  
02753690056350063DT67590675900000008334800101800000010180010124001193121900014700170050120230000000173212123000000000222206411568XXXXXX8757       VS11    0001111   NYV1 A E383121659670210N840000000001732KPN600    07DNPLANET VAPOR INC #400    760925    VD84000000001732 N  599977384698                            000000000+                F DF 00381                     000000000  N000000000       0000000000000.00 0000000.00   0000000.00                             000000000000000                                                                                                                                                     01418 A000000000000 0000000000000.29     00800 01500                  
02753700056350064DT67590675900000008334800101800000010180010124001193121900014700188050120230000000497212123000000000222206474475XXXXXX7498       VS11    0001111   NYV1 A E303121669722127N840000000004972W5X200    05DNPLANET VAPOR INC #400    153469    VD84000000004972 N  599977384698                            000000000+                F DF 10433                     000000000  Y000000000 338   0000000000000.00 0000000.00   0000000.00                             000000000000000                                                                                                                                                     01418 A000000000000 0000000000000.24     00050 02200                  
02753710056350065DT67590675900000008334800101800000010180010177287283121900014700198050120230000000556112123000000000222206532293XXXXXX4384                         NY 2 0 AMDBFEOGXV0501  N840000000005561          05DNPLANET VAPOR INC #400    078168    MD84000000005561 NP1599977384698                            000000000+M10101C1334C    MDB  00062                     000000000  N                0000000000000.00 0000000.00   0000000.00                             000000000000000                                                                                                                                                     01418  000000000000 0000000000001.57     02650 01000                  
02753720056350001P1675906759000000083348001018000000101                                                          000000000000          1000            472803059                                                                                                                                                                                                                                                                                                                                                                                                                                                                                                                                                            
02753730056350066DT67590675900000008334800101800000010180010124001193121900014700204050120230000000534812123000000000222206430602XXXXXX3886       VS11    0001111   NYV1 A E303121683759597N840000000005348C2F400    05DNPLANET VAPOR INC #400    272609    VD84000000005348 N  599977384698                            000000000+                F DF 00381                     000000000  N000000000       0000000000000.00 0000000.00   0000000.00                             000000000000000                                                                                                                                                     01418 A000000000000 0000000000000.58     00800 01500                  
02753740056350067DT67590675900000008334800101800000010180010124001193121900014700212050120230000000445712123000000000222206448261XXXXXX9650       VS11    0001111   NYV1 A E463121684651127N840000000004457B3SW00    07DNPLANET VAPOR INC #400    335716    VD84000000004457 N  599977384698                            000000000+                F DF 10433                     000000000  Y000000000 338   0000000000000.00 0000000.00   0000000.00                             000000000000000                                                                                                                                                     01418 A000000000000 0000000000000.24     00050 02200                  
02753750056350068DT67590675900000008334800101800000010180010177287283121900014700222050120230000000962712123000000000222206531258XXXXXX4948       MS02WI09          NY 1 0 AMDJFRMQXV0501  N840000000009627          05DNPLANET VAPOR INC #400    180237    MD84000000009627 N  599977384698                            000000000+M10101C5434C    MDJ  10815                     000000000  1                0000000000000.00 0000000.00   0000000.00                             000000000000000                                                                                                                                                   B101418  000000000000 0000000000000.27     00050 02200                  
02753760056350069DT67590675900000008334800101800000010180010124001193121900014700238050120230000001069812123000000000222206474473XXXXXX7246       VS11    0001111   NYV1 A E383121691615187N8400000000106987NJ500    05DNPLANET VAPOR INC #400    151521    VD84000000010698 N  599977384698                            000000000+                F DF 10433                     000000000  Y000000000 338   0000000000000.00 0000000.00   0000000.00                             000000000000000                                                                                                                                                     01418 A000000000000 0000000000000.27     00050 02200                  
02753770056350070DT67590675900000008334800101800000010180010124001193121900014700246050120230000000211812123000000000222206434256XXXXXX1866       VS11    0001111   NYV1 A E583121695465197N840000000002118G7ZH00    07DNPLANET VAPOR INC #400    034279    VD84000000002118 N  599977384698                            000000000+                F DF 10433                     000000000  Y000000000 338   0000000000000.00 0000000.00   0000000.00                             000000000000000                                                                                                                                                     01418 A000000000000 0000000000000.23     00050 02200                  
02753780056350071DT67590675900000008334800101800000010180010177287283121900014700255050120230000000428212123000000000222206552433XXXXXX5273       MS02WI09          NY 1 0 AMPLGP2WXV0501  N840000000004282          05DNPLANET VAPOR INC #400    05792M    MC84000000004282 N  599977384698                            000000000+M10101C5434C    MPL  00353                     000000000  N                0000000000000.00 0000000.00   0000000.00                             000000000000000                                                                                                                                                   B101418  000000000000 0000000000000.87     01800 01000                  
02753790056350072DT67590675900000008334800101800000010180010177287283121900014700263050120230000000384912123000000000222206552433XXXXXX5273       MS02WI09          NY 1 0 AMPLHNHM6I0501  N840000000003849          05DNPLANET VAPOR INC #400    08619M    MC84000000003849 N  599977384698                            000000000+M10101C5434C    MPL  00353                     000000000  N                0000000000000.00 0000000.00   0000000.00                             000000000000000                                                                                                                                                   B101418  000000000000 0000000000000.79     01800 01000                  
02753800056350073DT67590675900000008334800101800000010180010124001193121900014700279050120230000000722012123000000000222206461675XXXXXX5480       VS11    0001111   NYV1 A E383121716784086N840000000007220DP8C00    05DNPLANET VAPOR INC #400    180710    VD84000000007220 N  599977384698                            000000000+                F DF 00381                     000000000  N000000000       0000000000000.00 0000000.00   0000000.00                             000000000000000                                                                                                                                                     01418 A000000000000 0000000000000.73     00800 01500                  
02753810056350074DT67590675900000008334800101800000010180010124001193121900014700287050120230000001290612123000000000222206406632XXXXXX6139       VS11    0001111   NYV1 A E383121724188254N840000000012906J3RF00    05DNPLANET VAPOR INC #400    060658    VD84000000012906 N  599977384698                            000000000+                F DF 00381                     000000000  N000000000       0000000000000.00 0000000.00   0000000.00                             000000000000000                                                                                                                                                     01418 A000000000000 0000000000001.18     00800 01500                  
02753820056350075DT67590675900000008334800101800000010180010124001193121900014700295050120230000000449212123000000000222206461675XXXXXX0246       VS11    0001111   NYV1 A E583121725872794N8400000000044926ZTM00    05DNPLANET VAPOR INC #400    191660    VD84000000004492 N  599977384698                            000000000+                F DF 00381                     000000000  N000000000       0000000000000.00 0000000.00   0000000.00                             000000000000000                                                                                                                                                     01418 A000000000000 0000000000000.51     00800 01500                  
02753830056350076DT67590675900000008334800101800000010180010124001193121900014700303050120230000000427812123000000000222206448261XXXXXX7929       VS11    0001111   NYV1 A E583121730460720N840000000004278DFFX00    05DNPLANET VAPOR INC #400    168448    VD84000000004278 N  599977384698                            000000000+                F DF 10433                     000000000  Y000000000 338   0000000000000.00 0000000.00   0000000.00                             000000000000000                                                                                                                                                     01418 A000000000000 0000000000000.24     00050 02200                  
02753840056350077DT67590675900000008334800101800000010180010124001193121900014700311050120230000000481212123000000000222206438419XXXXXX5100       VS11    0001111   NYV1 A E463121734456454N840000000004812TBDV00    05DNPLANET VAPOR INC #400    062406    VD84000000004812 N  599977384698                            000000000+                F DF 00381                     000000000  N000000000       0000000000000.00 0000000.00   0000000.00                             000000000000000                                                                                                                                                     01418 A000000000000 0000000000000.53     00800 01500                  
02753850056350078DT67590675900000008334800101800000010180010124001193121900014700329050120230000000182912123000000000222206440393XXXXXX7249       VS11    0001111   NYV1 A E583121735055164N840000000001829N5GJ00    05DNPLANET VAPOR INC #400    992618    VD84000000001829 N  599977384698                            000000000+                F PF 08170                     000000000  N000000000       0000000000000.00 0000000.00   0000000.00                             000000000000000                                                                                                                                                     01418 A000000000000 0000000000000.36     01150 01500                  
02753860056350079DT67590675900000008334800101800000010180010124001193121900014700337050120230000000267412123000000000222206474474XXXXXX7140       VS11    0001111   NYV1 A E463121739437354N840000000002674RLJ300    05DNPLANET VAPOR INC #400    183821    VD84000000002674 N  599977384698                            000000000+                F DF 10433                     000000000  Y000000000 338   0000000000000.00 0000000.00   0000000.00                             000000000000000                                                                                                                                                     01418 A000000000000 0000000000000.23     00050 02200                  
02753870056350080DT67590675900000008334800101800000010180010124001193121900014700345050120230000000135312123000000000222206466189XXXXXX0169       VK04VS111111111   NYV1 A E463121742230360N8400000000013539F3500    07DNPLANET VAPOR INC #400    009569    VD84000000001353 N  599977384698                            000000000+                F DF 10439                     000000000  Y000000000 331   0000000000000.00 0000000.00   0000000.00                             000000000000000                                                                                                                                                     01418 F000000000000 0000000000000.23     00050 02200                  
02753880056350081DT67590675900000008334800101800000010180010177287283121900014700354050120230000000200012123000000000222206528149XXXXXX4119       MS02WI09          NY 1 0 AMDJFXQR6J0501  N840000000002000          05DNPLANET VAPOR INC #400    061154    MD84000000002000 N  599977384698                            000000000+M10101C5434C    MDJ  00402                     000000000  N                0000000000000.00 0000000.00   0000000.00                             000000000000000                                                                                                                                                   B101418  000000000000 0000000000000.36     01050 01500                  
02753890056350082DT67590675900000008334800101800000010180010124001193121900014700360050120230000000213912123000000000222206461675XXXXXX8478       VS11    0001111   NYV1 A E583121756585249N840000000002139X79200    05DNPLANET VAPOR INC #400    224580    VD84000000002139 N  599977384698                            000000000+                F DF 00381                     000000000  N000000000       0000000000000.00 0000000.00   0000000.00                             000000000000000                                                                                                                                                     01418 A000000000000 0000000000000.32     00800 01500                  
02753900056350083DT67590675900000008334800101800000010180010124001193121900014700378050120230000000534812123000000000222206433477XXXXXX2785       VS11    0001111   NYV1 A E583121765961563N840000000005348LCQC00    90DNPLANET VAPOR INC #400    442440    VD84000000005348 N  599977384698                            000000000+                F DF 10433                     000000000  Y000000000 338   0000000000000.00 0000000.00   0000000.00                             000000000000000                                                                                                                                                     01418 A000000000000 0000000000000.25     00050 02200                  
02753910056350084DT67590675900000008334800101800000010180010124001193121900014700386050120230000000755812123000000000222206420767XXXXXX1484       VS11    0001111   NYV1 A E303121768728529N840000000007558V75Z00    05DNPLANET VAPOR INC #400    022117    VD84000000007558 N  599977384698                            000000000+                F DF 10433                     000000000  Y000000000 338   0000000000000.00 0000000.00   0000000.00                             000000000000000                                                                                                                                                     01418 A000000000000 0000000000000.26     00050 02200                  
02753920056350085DT67590675900000008334800101800000010180010177287283121900014700396050120230000000267412123000000000222206531258XXXXXX4478       MS02WI09          NY 1 0 AMDJKKM46I0501  N840000000002674          05DNPLANET VAPOR INC #400    142536    MD84000000002674 N  599977384698                            000000000+M10101C5434C    MDJ  10815                     000000000  1                0000000000000.00 0000000.00   0000000.00                             000000000000000                                                                                                                                                   B101418  000000000000 0000000000000.23     00050 02200                  
02753930056350086DT67590675900000008334800101800000010180010124001193121900014700402050120230000000406312123000000000222206406049XXXXXX3258       VS11    0001111   NYV1 A E303121770768674N84000000000406348SV00    05DNPLANET VAPOR INC #400    062436    VD84000000004063 N  599977384698                            000000000+                F DF 10433                     000000000  Y000000000 338   0000000000000.00 0000000.00   0000000.00                             000000000000000                                                                                                                                                     01418 A000000000000 0000000000000.24     00050 02200                  
02753940056350087DT67590675900000008334800101800000010180010124001193121900014700410050120230000000320812123000000000222206448233XXXXXX6589       VS11    0001111   NYV1 A E303121774330854N840000000003208VT8400    05DNPLANET VAPOR INC #400    063034    VD84000000003208 N  599977384698                            000000000+                F DF 10433                     000000000  Y000000000 338   0000000000000.00 0000000.00   0000000.00                             000000000000000                                                                                                                                                     01418 A000000000000 0000000000000.24     00050 02200                  
02753950056350088DT67590675900000008334800101800000010180010177287283121900014700420050120230000000235312123000000000222206531258XXXXXX6881       MS02WI09          NY 1 0 AMDJV9SC6I0501  N840000000002353          05DNPLANET VAPOR INC #400    144586    MD84000000002353 N  599977384698                            000000000+M10101C5434C    MDJ  10815                     000000000  1                0000000000000.00 0000000.00   0000000.00                             000000000000000                                                                                                                                                   B101418  000000000000 0000000000000.23     00050 02200                  
02753960056350089DT67590675900000008334800101800000010180010177287283121900014700438050120230000000235312123000000000222206531258XXXXXX6177       MS02WI09          NY 1 0 AMDJS2FBXU0501  N840000000002353          05DNPLANET VAPOR INC #400    180419    MD84000000002353 N  599977384698                            000000000+M10101C5434C    MDJ  10815                     000000000  1                0000000000000.00 0000000.00   0000000.00                             000000000000000                                                                                                                                                   B101418  000000000000 0000000000000.23     00050 02200                  
02753970056350090DT67590675900000008334800101800000010180010124001193121900014700444050120230000000588312123000000000222206448261XXXXXX9199       VS11    0001111   NYV1 A E463121812366512N840000000005883L3MW00    05DNPLANET VAPOR INC #400    832900    VD84000000005883 N  599977384698                            000000000+                F DF 10433                     000000000  Y000000000 338   0000000000000.00 0000000.00   0000000.00                             000000000000000                                                                                                                                                     01418 A000000000000 0000000000000.25     00050 02200                  
02753980056350091DT67590675900000008334800101800000010180010124001193121900014700451050120230000000235312123000000000222206473703XXXXXX7382       VS11    0001111   NYV1 A E583121813537698N840000000002353HGGD00    05DNPLANET VAPOR INC #400    014501    VD84000000002353 N  599977384698                            000000000+                F DF 10433                     000000000  Y000000000 338   0000000000000.00 0000000.00   0000000.00                             000000000000000                                                                                                                                                     01418 A000000000000 0000000000000.23     00050 02200                  
02753990056350092DT67590675900000008334800101800000010180010124001193121900014700469050120230000000235312123000000000222206438419XXXXXX1518       VS11    0001111   NYV1 A E583121814181406N84000000000235372SQ00    05DNPLANET VAPOR INC #400    083658    VD84000000002353 N  599977384698                            000000000+                F DF 00381                     000000000  N000000000       0000000000000.00 0000000.00   0000000.00                             000000000000000                                                                                                                                                     01418 A000000000000 0000000000000.34     00800 01500                  
02754000056350093DT67590675900000008334800101800000010180010124001193121900014700477050120230000000641612123000000000222206430602XXXXXX2868       VS11    0001111   NYV1 A E463121832133243N840000000006416G5Z600    05DNPLANET VAPOR INC #400    312228    VD84000000006416 N  599977384698                            000000000+                F DF 00381                     000000000  N000000000       0000000000000.00 0000000.00   0000000.00                             000000000000000                                                                                                                                                     01418 A000000000000 0000000000000.66     00800 01500                  
02754010056350094DT67590675900000008334800101800000010180010124001193121900014700485050120230000000438512123000000000222206413037XXXXXX8963       VS11    0001111   NYV1 A E303121834306086N840000000004385KHF600    05DNPLANET VAPOR INC #400    005261    VD84000000004385 N  599977384698                            000000000+                F DF 10433                     000000000  Y000000000 338   0000000000000.00 0000000.00   0000000.00                             000000000000000                                                                                                                                                     01418 A000000000000 0000000000000.24     00050 02200                  
02754020056350095DT67590675900000008334800101800000010180010177287283121900014700495050120230000000203212123000000000222206514377XXXXXX1438       MS02WI09          NY 1 0 AMDJJNYY6J0501  N840000000002032          05DNPLANET VAPOR INC #400    12C1OI    MD84000000002032 N  599977384698                            000000000+M10101C5434C    MDJ  00402                     000000000  N                0000000000000.00 0000000.00   0000000.00                             000000000000000                                                                                                                                                   B101418  000000000000 0000000000000.36     01050 01500                  
02754030056350096DT67590675900000008334800101800000010180010124001193121900014700501050120230000000534912123000000000222206411770XXXXXX6521       VS11    0001111   NYV1 A E463121852367028N840000000005349S4NR00    05DNPLANET VAPOR INC #400    144601    VD84000000005349 N  599977384698                            000000000+                F DF 10433                     000000000  Y000000000 338   0000000000000.00 0000000.00   0000000.00                             000000000000000                                                                                                                                                     01418 A000000000000 0000000000000.25     00050 02200                  
02754040056350097BH6759067590000000659380010180000090170501202312123000000000115568    0000090001450030N8001016759C05022023                                                                                                                                                                                                                                                                                                                                                                                                                                                                                                                                                                                                 
02754050056350098DT67590675900000006593800101800000010180010124001193121900014500018050120230000000277912123000000000115568427082XXXXXX2015       VS11    0001111   NYV1 A E303121555497778N840000000002779PTMJ00    05DNPLANET VAPOR INC #100    001790    VS84000000002779 N  599977384444                            000000000+                D CD 12113                     000000000  N000000000 499   0000000000000.00 0000000.00   0000000.00                             000000000000000                                                                                                                                                     01418 A000000000000 0000000000000.68     02100 01000                  
02754060056350099DT67590675900000006593800101800000010180010124001193121900014500026050120230000000269912123000000000115568440393XXXXXX2973       VS11    0001111   NYV1 A E383121572178451N840000000002699FN5P00    05DNPLANET VAPOR INC #100    864637    VD84000000002699 N  599977384444                            000000000+                F PF 08170                     000000000  N000000000       0000000000000.00 0000000.00   0000000.00                             000000000000000                                                                                                                                                     01418 A000000000000 0000000000000.46     01150 01500                  
02754070056350100DT67590675900000006593800101800000010180010124001193121900014500034050120230000000431812123000000000115568449210XXXXXX6243       VS11    0001111   NYV1 A E463121573554055N840000000004318W66C00    05DNPLANET VAPOR INC #100    075555    VD84000000004318 N  599977384444                            000000000+                F DF 10433                     000000000  Y000000000 338   0000000000000.00 0000000.00   0000000.00                             000000000000000                                                                                                                                                     01418 A000000000000 0000000000000.24     00050 02200                  
02754080056350101DT67590675900000006593800101800000010180010124001193121900014500042050120230000000806812123000000000115568433477XXXXXX1063       VS11    0001111   NYV1 A E583121579876742N840000000008068FQG800    05DNPLANET VAPOR INC #100    108954    VD84000000008068 N  599977384444                            000000000+                F DF 10433                     000000000  Y000000000 338   0000000000000.00 0000000.00   0000000.00                             000000000000000                                                                                                                                                     01418 A000000000000 0000000000000.26     00050 02200                  
02754090056350102DT67590675900000006593800101800000010180010124001193121900014500059050120230000000215912123000000000115568440393XXXXXX1848       VS11    0001111   NYV1 A E583121580871103N840000000002159DJ9P00    05DNPLANET VAPOR INC #100    421026    VD84000000002159 N  599977384444                            000000000+                F PF 08170                     000000000  N000000000       0000000000000.00 0000000.00   0000000.00                             000000000000000                                                                                                                                                     01418 A000000000000 0000000000000.40     01150 01500                  
02754100056350103DT67590675900000006593800101800000010180010124001193121900014500067050120230000000323812123000000000115568499944XXXXXX2749       VS11    0001111   NYV1 A E583121603841814N840000000003238BHJ300    05DNPLANET VAPOR INC #100    024624    VS84000000003238 N  599977384444                            000000000+                B CB 12111                     000000000  N000000000 495   0000000000000.00 0000000.00   0000000.00                             000000000000000                                                                                                                                                     01418 A000000000000 0000000000000.63     01650 01000                  
02754110056350104DT67590675900000006593800101800000010180010124001193121900014500075050120230000000728712123000000000115568458643XXXXXX5430       VS11    0001111   NYV1 A E383121607734863N840000000007287R6CL00    05DNPLANET VAPOR INC #100    H22599    VD84000000007287 N  599977384444                            000000000+                F DF 10433                     000000000  Y000000000 338   0000000000000.00 0000000.00   0000000.00                             000000000000000                                                                                                                                                     01418 A000000000000 0000000000000.26     00050 02200                  
02754120056350105DT67590675900000006593800101800000010180010124001193121900014500083050120230000000561312123000000000115568458643XXXXXX4882       VS11    0001111   NYV1 A E463121616566842N840000000005613BDF800    05DNPLANET VAPOR INC #100    H26422    VD84000000005613 N  599977384444                            000000000+                F DF 10433                     000000000  Y000000000 338   0000000000000.00 0000000.00   0000000.00                             000000000000000                                                                                                                                                     01418 A000000000000 0000000000000.25     00050 02200                  
02754130056350106DT67590675900000006593800101800000010180010124001193121900014500091050120230000000248312123000000000115568400022XXXXXX5121       VS11    0001111   NYV1 A E303121621300925N8400000000024832K7P00    05DNPLANET VAPOR INC #100    128986    VD84000000002483 N  599977384444                            000000000+                F DF 10433                     000000000  Y000000000 338   0000000000000.00 0000000.00   0000000.00                             000000000000000                                                                                                                                                     01418 A000000000000 0000000000000.23     00050 02200                  
02754140056350107DT67590675900000006593800101800000010180010177287283121900014500101050120230000000237512123000000000115568518941XXXXXX3550       MS02WI09          NY 1 0 AMWEOKRS6I0501  N840000000002375          05DNPLANET VAPOR INC #100    29624Z    MC84000000002375 N  599977384444                            000000000+M10101C5434C    MWE  00739                     000000000  N                0000000000000.00 0000000.00   0000000.00                             000000000000000                                                                                                                                                   B101418  000000000000 0000000000000.65     02300 01000                  
02754150056350108DT67590675900000006593800101800000010180010124001193121900014500117050120230000000431812123000000000115568400022XXXXXX6165       VS11    0001111   NYV1 A E463121653335136N8400000000043182BJF00    05DNPLANET VAPOR INC #100    746945    VD84000000004318 N  599977384444                            000000000+                F DF 10433                     000000000  Y000000000 338   0000000000000.00 0000000.00   0000000.00                             000000000000000                                                                                                                                                     01418 A000000000000 0000000000000.24     00050 02200                  
02754160056350109DT67590675900000006593800101800000010180010177287283121900014500127050120230000000340112123000000000115568510805XXXXXX1762       MS02WI09          NY 1 0 AMDJMOIZXU0501  N840000000003401          05DNPLANET VAPOR INC #100    032717    MD84000000003401 N  599977384444                            000000000+M10101C5434C    MDJ  10815                     000000000  1                0000000000000.00 0000000.00   0000000.00                             000000000000000                                                                                                                                                   B101418  000000000000 0000000000000.24     00050 02200                  
02754170056350110DT67590675900000006593800101800000010180010124001193121900014500133050120230000000051312123000000000115568427178XXXXXX0636       VK04VS111111111   NYV1 A E463121665628115N8400000000005135QV800    05DNPLANET VAPOR INC #100    071092    VD84000000000513 N  599977384444                            000000000+                F DF 10439                     000000000  Y000000000 331   0000000000000.00 0000000.00   0000000.00                             000000000000000                                                                                                                                                     01418 F000000000000 0000000000000.22     00050 02200                  
02754180056350111DT67590675900000006593800101800000010180010177287283121900014500143050120230000000213712123000000000115568531257XXXXXX6299       MS02WI09          NY 1 0 AMDJE8K3XV0501  N840000000002137          05DNPLANET VAPOR INC #100    184463    MD84000000002137 N  599977384444                            000000000+M10101C5434C    MDJ  10815                     000000000  1                0000000000000.00 0000000.00   0000000.00                             000000000000000                                                                                                                                                   B101418  000000000000 0000000000000.23     00050 02200                  
02754190056350112DT67590675900000006593800101800000010180010124001193121900014500158050120230000000709712123000000000115568430602XXXXXX4245       VS11    0001111   NYV1 A E383121681862140N840000000007097F4P900    05DNPLANET VAPOR INC #100    272193    VD84000000007097 N  599977384444                            000000000+                F DF 00381                     000000000  N000000000       0000000000000.00 0000000.00   0000000.00                             000000000000000                                                                                                                                                     01418 A000000000000 0000000000000.72     00800 01500                  
02754200056350113DT67590675900000006593800101800000010180010177287283121900014500168050120230000000353412123000000000115568514230XXXXXX4480       MS02WI09          NY 1 0 AMDJWSYN8F0501  N840000000003534          05DNPLANET VAPOR INC #100    1E4702    MD84000000003534 N  599977384444                            000000000+M10101C5434C    MDJ  00402                     000000000  N                0000000000000.00 0000000.00   0000000.00                             000000000000000                                                                                                                                                   B101418  000000000000 0000000000000.52     01050 01500                  
02754210056350114DT67590675900000006593800101800000010180010124001193121900014500174050120230000000621612123000000000115568433477XXXXXX4438       VS11    0001111   NYV1 A E463121727290080N840000000006216TSMG00    05DNPLANET VAPOR INC #100    374071    VD84000000006216 N  599977384444                            000000000+                F DF 10433                     000000000  Y000000000 338   0000000000000.00 0000000.00   0000000.00                             000000000000000                                                                                                                                                     01418 A000000000000 0000000000000.25     00050 02200                  
02754220056350115DT67590675900000006593800101800000010180010124001193121900014500182050120230000000388612123000000000115568458643XXXXXX0824       VS11    0001111   NYV1 A E303121745652915N840000000003886PH4N00    05DNPLANET VAPOR INC #100    H58194    VD84000000003886 N  599977384444                            000000000+                F DF 10433                     000000000  Y000000000 338   0000000000000.00 0000000.00   0000000.00                             000000000000000                                                                                                                                                     01418 A000000000000 0000000000000.24     00050 02200                  
02754230056350116DT67590675900000006593800101800000010180010177287283121900014500192050120230000000553812123000000000115568518155XXXXXX5584       MS02WI09          NY 1 0 AMDSUPDL6I0501  N840000000005538          05DNPLANET VAPOR INC #100    228609    MD84000000005538 N  599977384444                            000000000+M10101C5434C    MDS  00402                     000000000  N                0000000000000.00 0000000.00   0000000.00                             000000000000000                                                                                                                                                   B101418  000000000000 0000000000000.73     01050 01500                  
02754240056350117DT67590675900000006593800101800000010180010124001193121900014500208050120230000000345212123000000000115568406095XXXXXX4378       VS11    0001111   NYV1 A E583121763915223N840000000003452C5S900    05DNPLANET VAPOR INC #100    09354D    VS84000000003452 N  599977384444                            000000000+                D CD 12113                     000000000  N000000000 499   0000000000000.00 0000000.00   0000000.00                             000000000000000                                                                                                                                                     01418 A000000000000 0000000000000.82     02100 01000                  
02754250056350118DT67590675900000006593800101800000010180010124001193121900014500216050120230000000323812123000000000115568461675XXXXXX4955       VS11    0001111   NYV1 A E303121765032176N840000000003238CMG700    05DNPLANET VAPOR INC #100    235580    VD84000000003238 N  599977384444                            000000000+                F DF 00381                     000000000  N000000000       0000000000000.00 0000000.00   0000000.00                             000000000000000                                                                                                                                                     01418 A000000000000 0000000000000.41     00800 01500                  
02754260056350119DT67590675900000006593800101800000010180010124001193121900014500224050120230000000561412123000000000115568400022XXXXXX7773       VS11    0001111   NYV1 A E583121782639537N840000000005614QV7800    05DNPLANET VAPOR INC #100    142171    VD84000000005614 N  599977384444                            000000000+                F DF 10433                     000000000  Y000000000 338   0000000000000.00 0000000.00   0000000.00                             000000000000000                                                                                                                                                     01418 A000000000000 0000000000000.25     00050 02200                  
02754270056350120DT67590675900000006593800101800000010180010124001193121900014500232050120230000000359412123000000000115568400022XXXXXX2807       VS11    0001111   NYV1 A E303121783613962N840000000003594G8L600    05DNPLANET VAPOR INC #100    723313    VD84000000003594 N  599977384444                            000000000+                F DF 10433                     000000000  Y000000000 338   0000000000000.00 0000000.00   0000000.00                             000000000000000                                                                                                                                                     01418 A000000000000 0000000000000.24     00050 02200                  
02754280056350121DT67590675900000006593800101800000010180010124001193121900014500240050120230000000329312123000000000115568402575XXXXXX7921       VS11    0001111   NYV1 A E383121785888552N8400000000032932WQ400    07DNPLANET VAPOR INC #100    084587    VS84000000003293 N  599977384444                            000000000+                A CA 12110                     000000000  N000000000 493   0000000000000.00 0000000.00   0000000.00                             000000000000000                                                                                                                                                     01418 A000000000000 0000000000000.60     01510 01000                  
02754290056350122DT67590675900000006593800101800000010180010124001193121900014500257050120230000000431812123000000000115568465998XXXXXX4141       VS11    0001111   NYV1 A E583121786534747N840000000004318QW9600    07DNPLANET VAPOR INC #100    001058    VS84000000004318 N  599977384444                            000000000+                B CB 12111                     000000000  N000000000 495   0000000000000.00 0000000.00   0000000.00                             000000000000000                                                                                                                                                     01418 A000000000000 0000000000000.81     01650 01000                  
02754300056350123DT67590675900000006593800101800000010180010124001193121900014500265050120230000000171512123000000000115568430602XXXXXX3695       VS11    0001111   NYV1 A E463121792548825N8400000000017154PC500    05DNPLANET VAPOR INC #100    302881    VD84000000001715 N  599977384444                            000000000+                F DF 00381                     000000000  N000000000       0000000000000.00 0000000.00   0000000.00                             000000000000000                                                                                                                                                     01418 A000000000000 0000000000000.29     00800 01500                  
