01736750631940002BH6759067590000000288180088880000090171228202236222000000000127893    0000090001040023N8008886759C12292022                                                                                                                                                                                                                                                                                                                                                                                                                                                                                                                                                                                                 
01736760631940003DT67590675900000002881800888800000010180088824001192362900010400015122820220000001239536222000000000127893419090XXXXXX3405       VS11    0001111   NYV1 A E302362558477370N840000000012395FLW400    05DNHAPPY HIPPIE             278677    VD84000000012395 N  549976487158                            000000000+                F DF 00381                     000000000  N000000000       0000000000000.00 0000000.00   0000000.00                             000000000000000                                                                                                                                                     01418 A000000000000 0000000000001.14     00800 01500                  
01736770631940004DT67590675900000002881800888800000010180088824001192362900010400023122820220000000468936222000000000127893429136XXXXXX3697       PS01    0000000   NYV1 J N382362563784578N8400000000046898CMQ00    01DNHAPPY HIPPIE             103938    VD84000000004689 N  549976487158                            000000000+                F DF 00425                     000000000  N000000010       0000000000000.00 0000000.00   0000000.00                             000000000000000                                                                                                                                                     01418  000000000000 0000000000001.02     01750 02000                  
01736780631940005DT67590675900000002881800888800000010180088824001192362900010400031122820220000000296236222000000000127893480639XXXXXX9856       VS11    0001111   NYV1 A E382362570412543N8400000000029628BPG00    05DNHAPPY HIPPIE             062709    VD84000000002962 N  549976487158                            000000000+                F DF 00381                     000000000  N000000000       0000000000000.00 0000000.00   0000000.00                             000000000000000                                                                                                                                                     01418 A000000000000 0000000000000.39     00800 01500                  
01736790631940006DT67590675900000002881800888800000010180088824001192362900010400049122820220000000768336222000000000127893443238XXXXXX8270       VS11    0001111   NYV1 A E462362595136055N840000000007683TP2200    05DNHAPPY HIPPIE             013153    VD84000000007683 N  549976487158                            000000000+                F DF 00381                     000000000  N000000000       0000000000000.00 0000000.00   0000000.00                             000000000000000                                                                                                                                                     01418 A000000000000 0000000000000.76     00800 01500                  
01736800631940007DT67590675900000002881800888800000010180088824001192362900010400056122820220000000799936222000000000127893476516XXXXXX2723               1001111   NYV1 A K582362612872380N840000000007999C2TW00    01DNHAPPY HIPPIE             183486    VD84000000007999 N  549976487158                            000000000+                F DF 00412                     000000000  N000000000       0000000000000.00 0000000.00   0000000.00                             000000000000000                                                                                                                                                     01418 E000000000000 0000000000001.47     01650 01500                  
01736810631940008DT67590675900000002881800888800000010180088824001192362900010400064122820220000000197436222000000000127893415978XXXXXX6979       VS11    0001111   NYV1 A E462362637214466N840000000001974SP6M00    05DNHAPPY HIPPIE             083901    VD84000000001974 N  549976487158                            000000000+                F DF 10433                     000000000  Y000000000 338   0000000000000.00 0000000.00   0000000.00                             000000000000000                                                                                                                                                     01418 A000000000000 0000000000000.23     00050 02200                  
01736820631940009DT67590675900000002881800888800000010180088824001192362900010400072122820220000000226936222000000000127893440393XXXXXX2455       VS11    0001111   NYV1 A E462362655351207N840000000002269HT7800    05DNHAPPY HIPPIE             376999    VD84000000002269 N  549976487158                            000000000+                F PF 08170                     000000000  N000000000       0000000000000.00 0000000.00   0000000.00                             000000000000000                                                                                                                                                     01418 A000000000000 0000000000000.41     01150 01500                  
01736830631940010DT67590675900000002881800888800000010180088873011002362900010400086122820220000000548636222000000000127893379790XXXXX1006                          NY 1 0 N004046579326306N840000000005486          05DNHAPPY HIPPIE             851910    AM84000000005486 N  549976487158                            000000000+51010155434C 258     11261                     000000000                   0000000000000.00 0000000.00   0000000.00                             000000000000000 61248972086759675900000002881 HAPPY HIPPIE             832 PARKWAY              8656540830      37862     HAPPYHIPPIE832@GMAIL.COM                  01418  000000000000 0000000000000.98     01600 00000                  
01736840631940011DT67590675900000002881800888800000010180088877287282362900010400090122820220000000395036222000000000127893541777XXXXXX6509       MS02WI09          NY 1 0 AMDJHS5GQU1228  N840000000003950          07DNHAPPY HIPPIE             034469    MD84000000003950 N  549976487158                            000000000+M10101M0034C    MDJ  00402                     000000000  N                0000000000000.00 0000000.00   0000000.00                             000000000000000                                                                                                                                                   A101418  000000000000 0000000000000.56     01050 01500                  
01736850631940012DT67590675900000002881800888800000010180088824001192362900010400106122820220000000542936222000000000127893410801XXXXXX7388       VS11    0001111   NYV1 A E582362708788287N8400000000054299RZF00    05DNHAPPY HIPPIE             044118    VD84000000005429 N  549976487158                            000000000+                F DF 00381                     000000000  N000000000       0000000000000.00 0000000.00   0000000.00                             000000000000000                                                                                                                                                     01418 A000000000000 0000000000000.58     00800 01500                  
01736860631940013DT67590675900000002881800888800000010180088877287282362900010400116122820220000000602736222000000000127893551273XXXXXX9296       MS02WI09          NY 1 0 AMDJP19UBG1228  N840000000006027          05DNHAPPY HIPPIE             322708    MD84000000006027 N  549976487158                            000000000+M10101C5434C    MDJ  00402                     000000000  N                0000000000000.00 0000000.00   0000000.00                             000000000000000                                                                                                                                                   B101418  000000000000 0000000000000.78     01050 01500                  
01736870631940014DT67590675900000002881800888800000010180088877287282362900010400124122820220000000591336222000000000127893511558XXXXXX9134       MS02WI09          NY 2 0 AMPVIIYBQU1228  N840000000005913          05DNHAPPY HIPPIE             KPS7UO    MD84000000005913 N  549976487158                            000000000+M10101C1334C    MPV  11964                     000000000  N                0000000000000.00 0000000.00   0000000.00                             000000000000000                                                                                                                                                     01418  000000000000 0000000000000.83     01150 01500                  
01736880631940015DT67590675900000002881800888800000010180088824001192362900010400130122820220000000296236222000000000127893498503XXXXXX6779       VS11    0001111   NYV1 A E462362721354884N840000000002962RR4Q00    05DNHAPPY HIPPIE             055151    VD84000000002962 N  549976487158                            000000000+                F DF 00381                     000000000  N000000000       0000000000000.00 0000000.00   0000000.00                             000000000000000                                                                                                                                                     01418 A000000000000 0000000000000.39     00800 01500                  
01736890631940016DT67590675900000002881800888800000010180088824001192362900010400148122820220000000362136222000000000127893416056XXXXXX5711       VS11    0001111   NYV1 A E302362738082488N840000000003621PH8K00    05DNHAPPY HIPPIE             028008    VS84000000003621 N  549976487158                            000000000+                C CC 12112                     000000000  N000000000 497   0000000000000.00 0000000.00   0000000.00                             000000000000000                                                                                                                                                     01418 A000000000000 0000000000000.70     01650 01000                  
01736900631940017DT67590675900000002881800888800000010180088877287282362900010400157122820220000000219436222000000000127893559758XXXXXX7988       MS02WI09          NY 2 0 AMPVQ718BG1228  N840000000002194          05DNHAPPY HIPPIE             KQ22F2    MD84000000002194 N  549976487158                            000000000+M10101C1334C    MPV  11964                     000000000  N                0000000000000.00 0000000.00   0000000.00                             000000000000000                                                                                                                                                     01418  000000000000 0000000000000.40     01150 01500                  
01736910631940018DT67590675900000002881800888800000010180088824001192362900010400163122820220000000246836222000000000127893419090XXXXXX5728       VS11    0001111   NYV1 A E302362749930393N840000000002468883V00    05DNHAPPY HIPPIE             288805    VD84000000002468 N  549976487158                            000000000+                F DF 00381                     000000000  N000000000       0000000000000.00 0000000.00   0000000.00                             000000000000000                                                                                                                                                     01418 A000000000000 0000000000000.35     00800 01500                  
01736920631940019DT67590675900000002881800888800000010180088824001192362900010400171122820220000000483936222000000000127893435547XXXXXX9872       VS11    0001111   NYV1 A E462362769406158N84000000000483993Q700    05DNHAPPY HIPPIE             116110    VD84000000004839 N  549976487158                            000000000+                F DF 10433                     000000000  Y000000000 338   0000000000000.00 0000000.00   0000000.00                             000000000000000                                                                                                                                                     01418 A000000000000 0000000000000.24     00050 02200                  
01736930631940020DT67590675900000002881800888800000010180088824001192362900010400189122820220000001853236222000000000127893414398XXXXXX4362       VS11    0001111   NYV1 A E382362773975324N840000000018532X8Q400    90DNHAPPY HIPPIE             664157    VD84000000018532 N  549976487158                            000000000+                F DF 00381                     000000000  N000000000       0000000000000.00 0000000.00   0000000.00                             000000000000000                                                                                                                                                     01418 A000000000000 0000000000001.63     00800 01500                  
01736940631940021DT67590675900000002881800888800000010180088824001192362900010400197122820220000000361836222000000000127893480354XXXXXX9086       VS11    0001111   NYV1 A E302362788982120N840000000003618PDTC00    05DNHAPPY HIPPIE             155458    VD84000000003618 N  549976487158                            000000000+                F DF 00381                     000000000  N000000000       0000000000000.00 0000000.00   0000000.00                             000000000000000                                                                                                                                                     01418 A000000000000 0000000000000.44     00800 01500                  
01736950631940022DT67590675900000002881800888800000010180088824001192362900010400205122820220000000148836222000000000127893480639XXXXXX1059       VK04VS111111111   NYV1 A E302362799644014N840000000001488XKRM00    05DNHAPPY HIPPIE             073798    VD84000000001488 N  549976487158                            000000000+                F DF 00451                     000000000  N000000000 214   0000000000000.00 0000000.00   0000000.00                             000000000000000                                                                                                                                                     01418 F000000000000 0000000000000.27     01550 00400                  
01736960631940023DT67590675900000002881800888800000010180088824001192362900010400213122820220000000169236222000000000127893491523XXXXXX7823       VS11    0001111   NYV1 A E382362801607909N840000000001692WFHB00    07DNHAPPY HIPPIE             028323    VD84000000001692 N  549976487158                            000000000+                F DF 10433                     000000000  Y000000000 338   0000000000000.00 0000000.00   0000000.00                             000000000000000                                                                                                                                                     01418 A000000000000 0000000000000.23     00050 02200                  
01736970631940024DT67590675900000002881800888800000010180088824001192362900010400221122820220000001766936222000000000127893440393XXXXXX1349       VS11    0001111   NYV1 A E382362823388104N840000000017669JB8300    05DNHAPPY HIPPIE             267942    VD84000000017669 N  549976487158                            000000000+                F PF 08170                     000000000  N000000000       0000000000000.00 0000000.00   0000000.00                             000000000000000                                                                                                                                                     01418 A000000000000 0000000000002.18     01150 01500                  
01736980631940025DT67590675900000002881800888800000010180088877287282362900010400231122820220000000203436222000000000127893514377XXXXXX7120       MS02WI09          NY 1 0 AMDJNGVQQU1228  N840000000002034          07DNHAPPY HIPPIE             188E2G    MD84000000002034 N  549976487158                            000000000+M10101M0034C    MDJ  00402                     000000000  N                0000000000000.00 0000000.00   0000000.00                             000000000000000                                                                                                                                                   B101418  000000000000 0000000000000.36     01050 01500                  
01736990631940026BH6759067590000000215480088880000090171228202236222000000000321978    0000090001684522N8008886759C12292022                                                                                                                                                                                                                                                                                                                                                                                                                                                                                                                                                                                                 
01737000631940027DT67590675900000002154800888800000010180088887287282362900016862870122820220000012916236222000000000321978547415XXXXXX8783                         NY 4607AMEBSO8NQG1228  N840000000129162          81DNDRIP DROP DISTRO LLC     09841Q    MB84000000129162 NP1519900000001   17174                    000000000+600450S00140    MEB  11637                     000000000  N                0000000000000.00 0000000.00   0000000.00                             000000000000000                                                                                                                                                   U001418  000000000000 0000000000038.85     03000 01000                  
01737010631940001P1675906759000000021548008888000000101                                                          000000000000          8000            471534935                                                                                                                                                                                                                                                                                                                                                                                                                                                                                                                                                            
01737020631940028DT67590675900000002154800888800000010180088824001192362900016830678122820220000002595636222000000000321978433993XXXXXX2445               2111111   NYV4 A7W302362713109565N840000000025956D6Q900    01DNDRIP DROP DISTRO LLC     03193G    VB84000000025956 NP1519971004114   17173                    000000000+                G5CG511887                     000000000  N000000000 163   0000000000000.00 0000000.00   0000000.00                             000000000000000                                                                                                                                                     01418 G000000025956 0000000000007.89     03000 01000                  
01737030631940001P16759067590000000215480088880000001010000000000000000    43845272167              2000000000000000000000000              000000000000                    0000000000000000000000000                    000000000000                                                                                                                                                                                                                                                                                                                                                                                                                                                                                        
01737040631940029DT67590675900000002154800888800000010180088873011002362900016845227122820220000016686036222000000000321978372718XXXXX1049                          NY 4 07N003809303590328N840000000166860          01DNDRIP DROP DISTRO LLC     262372    AM84000000166860 N  519971004114                            000000000+6004S0S00140 258     11244                     000000000                   0000000000000.00 0000000.00   0000000.00                             000000000000000 61248972736759675900000002154 DRIP DROP DISTRO LLC     1445 W COMMERCE AVE SUITE2087248209      83705     TROY@DRIPDROPDISTRO.COM                   01418  000000000000 0000000000031.80     01900 00000                  
01737050631940030BH6759067590000000288180088880000090171228202236222000000000098335    0000090001040025N8008886759C12292022                                                                                                                                                                                                                                                                                                                                                                                                                                                                                                                                                                                                 
01737060631940031DT67590675900000002881800888800000010180088824001192362900010400015122820220000000790036222000000000098335411770XXXXXX9776       VS11    0001111   NYV1 A E462362547605504N840000000007900B7B500    05DNHAPPY HIPPIE             101325    VD84000000007900 N  549976487134                            000000000+                F DF 10433                     000000000  Y000000000 338   0000000000000.00 0000000.00   0000000.00                             000000000000000                                                                                                                                                     01418 A000000000000 0000000000000.26     00050 02200                  
01737070631940032DT67590675900000002881800888800000010180088876509752362900010400021122820220000000175436222000000000098335601101XXXXXX2446   BA50                  NY41 0 N862312277178279N840000000001754    00    05DNHAPPY HIPPIE             02892R    DS84000000001754 N  549976487134050                         000000000+0000004910H00   DCCDI01000402011  082156000000 000000000  0          112   0000000000000.00 0000000.00   0000000.00                             000000000000000                                                                                                                                                     01418  000000000000 0000000000000.40     01720 01000                  
01737080631940033DT67590675900000002881800888800000010180088824001192362900010400031122820220000000439036222000000000098335422921XXXXXX2053       VS11    0001111   NYV1 A E462362595428491N8400000000043906ZXQ00    05DNHAPPY HIPPIE             041544    VD84000000004390 N  549976487134                            000000000+                F DF 00381                     000000000  N000000000       0000000000000.00 0000000.00   0000000.00                             000000000000000                                                                                                                                                     01418 A000000000000 0000000000000.50     00800 01500                  
01737090631940034DT67590675900000002881800888800000010180088877287282362900010400041122820220000000198736222000000000098335518941XXXXXX4253       MS02WI09          NY 1 0 AMWEQ6Y4NV1228  N840000000001987          05DNHAPPY HIPPIE             76502Z    MC84000000001987 N  549976487134                            000000000+M10101C5434C    MWE  00743                     000000000  N                0000000000000.00 0000000.00   0000000.00                             000000000000000                                                                                                                                                   B101418  000000000000 0000000000000.50     02300 00400                  
01737100631940035DT67590675900000002881800888800000010180088824001192362900010400056122820220000000355536222000000000098335414709XXXXXX3598       VS11    0001111   NYV1 A E382362609977262N8400000000035559SLS00    05DNHAPPY HIPPIE             09131D    VS84000000003555 N  549976487134                            000000000+                D CD 12113                     000000000  N000000000 499   0000000000000.00 0000000.00   0000000.00                             000000000000000                                                                                                                                                     01418 A000000000000 0000000000000.85     02100 01000                  
01737110631940036DT67590675900000002881800888800000010180088824001192362900010400064122820220000000049336222000000000098335422921XXXXXX9495       VK04VS111111111   NYV1 A E582362615077371N8400000000004936QKM00    05DNHAPPY HIPPIE             043508    VD84000000000493 N  549976487134                            000000000+                F DF 00451                     000000000  N000000000 214   0000000000000.00 0000000.00   0000000.00                             000000000000000                                                                                                                                                     01418 F000000000000 0000000000000.12     01550 00400                  
01737120631940037DT67590675900000002881800888800000010180088824001192362900010400072122820220000000246736222000000000098335443238XXXXXX4052       VS11    0001111   NYV1 A E302362625282878N840000000002467L3RS00    05DNHAPPY HIPPIE             022209    VD84000000002467 N  549976487134                            000000000+                F DF 00381                     000000000  N000000000       0000000000000.00 0000000.00   0000000.00                             000000000000000                                                                                                                                                     01418 A000000000000 0000000000000.35     00800 01500                  
01737130631940038DT67590675900000002881800888800000010180088824001192362900010400080122820220000000598036222000000000098335445102XXXXXX4062       VS11    0001111   NYV1 A E462362627166584N840000000005980RGFH00    05DNHAPPY HIPPIE             452703    VD84000000005980 N  549976487134                            000000000+                F DF 10433                     000000000  Y000000000 338   0000000000000.00 0000000.00   0000000.00                             000000000000000                                                                                                                                                     01418 A000000000000 0000000000000.25     00050 02200                  
01737140631940039DT67590675900000002881800888800000010180088873011002362900010400094122820220000000164536222000000000098335379790XXXXX1006                          NY 1 0 N004046102986303N840000000001645          05DNHAPPY HIPPIE             897237    AM84000000001645 N  549976487134                            000000000+51010155434C 258     11261                     000000000                   0000000000000.00 0000000.00   0000000.00                             000000000000000 61248972086759675900000002881 HAPPY HIPPIE             832 PARKWAY              8656540830      37862     HAPPYHIPPIE832@GMAIL.COM                  01418  000000000000 0000000000000.36     01600 00000                  
01737150631940040DT67590675900000002881800888800000010180088873011002362900010400102122820220000000087536222000000000098335379790XXXXX1006                          NY 1 0 N004046204608300N840000000000875          05DNHAPPY HIPPIE             895332    AM84000000000875 N  549976487134                            000000000+51010155434C 258     11261                     000000000                   0000000000000.00 0000000.00   0000000.00                             000000000000000 61248972086759675900000002881 HAPPY HIPPIE             832 PARKWAY              8656540830      37862     HAPPYHIPPIE832@GMAIL.COM                  01418  000000000000 0000000000000.24     01600 00000                  
01737160631940041DT67590675900000002881800888800000010180088877287282362900010400116122820220000000070936222000000000098335544579XXXXXX1881       MS02WI09          NY 1 0 AMDJGNAVQU1228  N840000000000709          05DNHAPPY HIPPIE             001005    MD84000000000709 N  549976487134                            000000000+M10101C5434C    MDJ  10831                     000000000  1                0000000000000.00 0000000.00   0000000.00                             000000000000000                                                                                                                                                   B101418  000000000000 0000000000000.22     00050 02200                  
01737170631940042DT67590675900000002881800888800000010180088824001192362900010400122122820220000001096336222000000000098335435546XXXXXX0621       VS11    0001111   NYV1 A E582362683981193N840000000010963V3XZ00    05DNHAPPY HIPPIE             070053    VD84000000010963 N  549976487134                            000000000+                F DF 10433                     000000000  Y000000000 338   0000000000000.00 0000000.00   0000000.00                             000000000000000                                                                                                                                                     01418 A000000000000 0000000000000.27     00050 02200                  
01737180631940043DT67590675900000002881800888800000010180088824001192362900010400130122820220000000523436222000000000098335419090XXXXXX2641       VS11    0001111   NYV1 A E302362697850527N840000000005234LWQ900    05DNHAPPY HIPPIE             285891    VD84000000005234 N  549976487134                            000000000+                F DF 00381                     000000000  N000000000       0000000000000.00 0000000.00   0000000.00                             000000000000000                                                                                                                                                     01418 A000000000000 0000000000000.57     00800 01500                  
01737190631940044DT67590675900000002881800888800000010180088824001192362900010400148122820220000000355436222000000000098335419090XXXXXX2641       VS11    0001111   NYV1 A E382362699019921N840000000003554MJ9D00    05DNHAPPY HIPPIE             285960    VD84000000003554 N  549976487134                            000000000+                F DF 00381                     000000000  N000000000       0000000000000.00 0000000.00   0000000.00                             000000000000000                                                                                                                                                     01418 A000000000000 0000000000000.43     00800 01500                  
01737200631940045DT67590675900000002881800888800000010180088824001192362900010400155122820220000000632136222000000000098335415978XXXXXX6755       VS11    0001111   NYV1 A E382362701563083N84000000000632159VJ00    05DNHAPPY HIPPIE             036666    VD84000000006321 N  549976487134                            000000000+                F DF 10433                     000000000  Y000000000 338   0000000000000.00 0000000.00   0000000.00                             000000000000000                                                                                                                                                     01418 A000000000000 0000000000000.25     00050 02200                  
01737210631940046DT67590675900000002881800888800000010180088824001192362900010400163122820220000000296236222000000000098335423223XXXXXX6673       VS11    0001111   NYV1 A E582362746177126N8400000000029629JF400    05DNHAPPY HIPPIE             094773    VD84000000002962 N  549976487134                            000000000+                F DF 00381                     000000000  N000000000       0000000000000.00 0000000.00   0000000.00                             000000000000000                                                                                                                                                     01418 A000000000000 0000000000000.39     00800 01500                  
01737220631940047DT67590675900000002881800888800000010180088877287282362900010400173122820220000000325836222000000000098335517805XXXXXX8458       MS02WI09          NY 1 0 AMPLQQU2QG1228  N840000000003258          05DNHAPPY HIPPIE             00378B    MC84000000003258 N  549976487134                            000000000+M10101C5434C    MPL  00364                     000000000  N                0000000000000.00 0000000.00   0000000.00                             000000000000000                                                                                                                                                   B101418  000000000000 0000000000000.63     01800 00400                  
01737230631940048DT67590675900000002881800888800000010180088824001192362900010400189122820220000000658136222000000000098335414740XXXXXX1272       VS11    0001111   NYV1 A E582362760785950N840000000006581DL6800    05DNHAPPY HIPPIE             02773D    VS84000000006581 N  549976487134                            000000000+                D CD 12113                     000000000  N000000000 499   0000000000000.00 0000000.00   0000000.00                             000000000000000                                                                                                                                                     01418 A000000000000 0000000000001.48     02100 01000                  
01737240631940049DT67590675900000002881800888800000010180088824001192362900010400197122820220000000641836222000000000098335415978XXXXXX3281       VS11    0001111   NYV1 A E302362762362564N840000000006418SJ9H00    05DNHAPPY HIPPIE             075816    VD84000000006418 N  549976487134                            000000000+                F DF 10433                     000000000  Y000000000 338   0000000000000.00 0000000.00   0000000.00                             000000000000000                                                                                                                                                     01418 A000000000000 0000000000000.25     00050 02200                  
01737250631940050DT67590675900000002881800888800000010180088824001192362900010400205122820220000000296236222000000000098335414398XXXXXX6665       VS11    0001111   NYV1 A E382362763733993N840000000002962V9HQ00    90DNHAPPY HIPPIE             140624    VD84000000002962 N  549976487134                            000000000+                F DF 00381                     000000000  N000000000       0000000000000.00 0000000.00   0000000.00                             000000000000000                                                                                                                                                     01418 A000000000000 0000000000000.39     00800 01500                  
01737260631940051DT67590675900000002881800888800000010180088824001192362900010400213122820220000000572136222000000000098335422921XXXXXX0315       VS11    0001111   NYV1 A E582362768132717N840000000005721NJ2T00    05DNHAPPY HIPPIE             058814    VD84000000005721 N  549976487134                            000000000+                F DF 00381                     000000000  N000000000       0000000000000.00 0000000.00   0000000.00                             000000000000000                                                                                                                                                     01418 A000000000000 0000000000000.61     00800 01500                  
01737270631940052DT67590675900000002881800888800000010180088824001192362900010400221122820220000000274336222000000000098335422921XXXXXX0315       VS11    0001111   NYV1 A E302362769317739N840000000002743D93V00    05DNHAPPY HIPPIE             058933    VD84000000002743 N  549976487134                            000000000+                F DF 00381                     000000000  N000000000       0000000000000.00 0000000.00   0000000.00                             000000000000000                                                                                                                                                     01418 A000000000000 0000000000000.37     00800 01500                  
01737280631940053DT67590675900000002881800888800000010180088824001192362900010400239122820220000000225836222000000000098335419090XXXXXX6286       VS11    0001111   NYV1 A E462362784511837N840000000002258KZVK00    05DNHAPPY HIPPIE             290703    VD84000000002258 N  549976487134                            000000000+                F DF 00381                     000000000  N000000000       0000000000000.00 0000000.00   0000000.00                             000000000000000                                                                                                                                                     01418 A000000000000 0000000000000.33     00800 01500                  
01737290631940054DT67590675900000002881800888800000010180088877287282362900010400249122820220000000395136222000000000098335511953XXXXXX5008       MS02WI09          NY 1 0 AMDJMDVGBG1228  N840000000003951          05DNHAPPY HIPPIE             040734    MD84000000003951 N  549976487134                            000000000+M10101C5434C    MDJ  00402                     000000000  N                0000000000000.00 0000000.00   0000000.00                             000000000000000                                                                                                                                                   B101418  000000000000 0000000000000.56     01050 01500                  
01737300631940055DT67590675900000002881800888800000010180088824001192362900010400254122820220000000365436222000000000098335484224XXXXXX3372               1001111   NYV1 A K382362797928300N84000000000365469ZB00    01DNHAPPY HIPPIE             629760    VD84000000003654 N  549976487134                            000000000+                F PF 08171                     000000000  N000000000       0000000000000.00 0000000.00   0000000.00                             000000000000000                                                                                                                                                     01418 E000000000000 0000000000000.84     01750 02000                  
01737310631940056BH6759067590000000096880088880000090171228202236222000000000007500    0000090001133782N8008886759C12292022                                                                                                                                                                                                                                                                                                                                                                                                                                                                                                                                                                                                 
01737320631940057DT67590675900000000968800888800000010180088824001192362900011337828122820220000000750036222000000000007500414720XXXXXX7283               2111111   NYV4 A7W582362516225057N840000000007500K2WV00    01DNHIGHER FLOUR LLC         00673I    VS84000000007500 NP1546271004114   RROD6WXUWA2VDANOCFH2     000000000+                I CI 12109                     000000000  N000000000 498   0000000000000.00 0000000.00   0000000.00                             000000000000000                                                                                                                                                     01418 G000000007500 0000000000001.98     02500 01000                  
01737330631940001P16759067590000000096880088880000001010000000000000000                             2000000000000000000000000              000000000000                    0000000000000000000000000                    000000000000                                                                                                                                                                                                                                                                                                                                                                                                                                                                                        
