00003770301700002BH6759067590000001516480088880000090170313202307223000000000081482    0000090001130631Y8008886759C03142023                                                                                                                                                                                                                                                                                                                                                                                                                                                                                                                                                                                                 
00003780301700003DT67590675900000015164800888800000010180088824001193072900011306202031220230000001699007223000000000081482426638XXXXXX1635               2111111   NYV4 A7W303072161292119N8400000000169909ZWB00    01DNKETOFUSION833-923-3587   012901    VS84000000016990 NP1599977360677   6905B977E5T8BB9573117A4  000000000+                C CC 12108                     000000000  N000000000 496   0000000000000.00 0000000.00   0000000.00                             000000000000000                                                                                                                                                     01424 G000000016990 0000000000003.58     02050 01000                  
00003790301700001P16759067590000001516480088880000001010000000000000000                             2000000000000000000000000              000000000000                    0000000000000000000000000                    000000000000                                                                                                                                                                                                                                                                                                                                                                                                                                                                                        
00003800301700004DT67590675900000015164800888800000010680088874001193072900011306223031320230000000654807223000000000081482432739XXXXXX3577               0000000   NYV4 07T463072567152679N840000000006548LCKX00    01CNKETOFUSION833-923-3587   683474    VD84000000006548 NP1599977360677   E9960B04D6TDDA762782CC3  000000000+                F DF 08168                     000000000  Y000000000 369   0000000000000.00 0000000.00   0000000.00                             000000000000000                                                                                                                                                     01424  000000006548 0000000000000.00     00000 00000                  
00003810301700001P16759067590000001516480088880000001060000000000000000                             2000000000000000000000000              000000000000                    0000000000000000000000000                    000000000000                                                                                                                                                                                                                                                                                                                                                                                                                                                                                        
00003820301700005DT67590675900000015164800888800000010680088874001193072900011306231031320230000000519007223000000000081482432739XXXXXX3577               0000000   NYV4 07T463072567248247N840000000005190924500    01CNKETOFUSION833-923-3587   683961    VD84000000005190 NP1599977360677   E9960B04D6TE8BFBCC15273  000000000+                F DF 08168                     000000000  Y000000000 369   0000000000000.00 0000000.00   0000000.00                             000000000000000                                                                                                                                                     01424  000000005190 0000000000000.00     00000 00000                  
00003830301700001P16759067590000001516480088880000001060000000000000000                             2000000000000000000000000              000000000000                    0000000000000000000000000                    000000000000                                                                                                                                                                                                                                                                                                                                                                                                                                                                                        
00003840301700006DT67590675900000015164800888800000010180088824001193072900011306244031320230000001194807223000000000081482474488XXXXXX9512               2111111   NYV4 A7W303072607823872N840000000011948M5MC00    01DNKETOFUSION833-923-3587   165737    VD84000000011948 NP1599977360677   1CB070904ATBF1B7DB2B650  000000000+                F DF 10420                     000000000  Y000000000 338   0000000000000.00 0000000.00   0000000.00                             000000000000000                                                                                                                                                     01424 G000000011948 0000000000000.28     00050 02200                  
00003850301700001P16759067590000001516480088880000001010000000000000000                             2000000000000000000000000              000000000000                    0000000000000000000000000                    000000000000                                                                                                                                                                                                                                                                                                                                                                                                                                                                                        
00003860301700007DT67590675900000015164800888800000010180088824001193072900011306251031320230000002487007223000000000081482426690XXXXXX6835               2111111   NYV4 A7W583072790233100N8400000000248703HQQ00    01DNKETOFUSION833-923-3587   01106D    VS84000000024870 NP1599977360677   356CA907D1TFAAAFB090E43  000000000+                D CD 12109                     000000000  N000000000 498   0000000000000.00 0000000.00   0000000.00                             000000000000000                                                                                                                                                     01424 G000000024870 0000000000006.32     02500 01000                  
00003870301700001P16759067590000001516480088880000001010000000000000000                             2000000000000000000000000              000000000000                    0000000000000000000000000                    000000000000                                                                                                                                                                                                                                                                                                                                                                                                                                                                                        
00003880301700008DT67590675900000015164800888800000010180088824001193072900011306269031320230000000654807223000000000081482426690XXXXXX6835               2111111   NYV4 A7W583072790695135N840000000006548T2PW00    01DNKETOFUSION833-923-3587   02494D    VS84000000006548 NP1599977360677   356CA907D1T8FA6ADB959D6  000000000+                D CD 12109                     000000000  N000000000 498   0000000000000.00 0000000.00   0000000.00                             000000000000000                                                                                                                                                     01424 G000000006548 0000000000001.74     02500 01000                  
00003890301700001P16759067590000001516480088880000001010000000000000000                             2000000000000000000000000              000000000000                    0000000000000000000000000                    000000000000                                                                                                                                                                                                                                                                                                                                                                                                                                                                                        
00003900301700009DT67590675900000015164800888800000010180088824001193072900011306277031320230000000519007223000000000081482426690XXXXXX6835               2111111   NYV4 A7W463072790847275N840000000005190HPF200    01DNKETOFUSION833-923-3587   04141D    VS84000000005190 NP1599977360677   356CA907D1T5518B261BD3C  000000000+                D CD 12109                     000000000  N000000000 498   0000000000000.00 0000000.00   0000000.00                             000000000000000                                                                                                                                                     01424 G000000005190 0000000000001.40     02500 01000                  
00003910301700001P16759067590000001516480088880000001010000000000000000                             2000000000000000000000000              000000000000                    0000000000000000000000000                    000000000000                                                                                                                                                                                                                                                                                                                                                                                                                                                                                        
00003920301700010DT67590675900000015164800888800000010180088824001193072900011306285031320230000000198807223000000000081482426690XXXXXX6835               2111111   NYV4 A7W463072791117870N840000000001988TQB600    01DNKETOFUSION833-923-3587   04945D    VS84000000001988 NP1599977360677   356CA907D1T485E988F0022  000000000+                D CD 12109                     000000000  N000000000 498   0000000000000.00 0000000.00   0000000.00                             000000000000000                                                                                                                                                     01424 G000000001988 0000000000000.60     02500 01000                  
00003930301700001P16759067590000001516480088880000001010000000000000000                             2000000000000000000000000              000000000000                    0000000000000000000000000                    000000000000                                                                                                                                                                                                                                                                                                                                                                                                                                                                                        
00003940301700011DT67590675900000015164800888800000010180088887287283072900011306294031320230000001394807223000000000081482515942XXXXXX2912       ME03KE06MS02      NY 4607AMPLQU7ZW50313  N840000000013948          81DNKETOFUSION833-923-3587   013040    MC84000000013948 N  599977360677   DFA42FE305T5F92A26CE668  000000000+600450S00130    MPL  00013                     000000000  N                0000000000000.00 0000000.00   0000000.00                             000000000000000                                                                                                                                                   U001424  000000000000 0000000000002.82     01950 01000                  
00003950301700012DT67590675900000015164800888800000010180088887287283072900011306302031320230000000654807223000000000081482515942XXXXXX2912       ME03KE06MS02      NY 4607AMPLQVT1W50313  N840000000006548          81DNKETOFUSION833-923-3587   013711    MC84000000006548 N  599977360677   DFA42FE305T1D2EA3D6EF6B  000000000+600450S00130    MPL  00013                     000000000  N                0000000000000.00 0000000.00   0000000.00                             000000000000000                                                                                                                                                   U001424  000000000000 0000000000001.38     01950 01000                  
00003960301700013DT67590675900000015164800888800000010180088887287283072900011306310031320230000000519007223000000000081482515942XXXXXX2912       ME03KE06MS02      NY 4607AMPLEZO0L70313  N840000000005190          81DNKETOFUSION833-923-3587   013092    MC84000000005190 N  599977360677   DFA42FE305T450E48F2AFE3  000000000+600450S00130    MPL  00013                     000000000  N                0000000000000.00 0000000.00   0000000.00                             000000000000000                                                                                                                                                   U001424  000000000000 0000000000001.11     01950 01000                  
00003970301700014BH6759067590000000288180088880000090170313202307223000000000022593    0000090001760154Y8008886759C03142023                                                                                                                                                                                                                                                                                                                                                                                                                                                                                                                                                                                                 
00003980301700015DT67590675900000002881800888800000010180088824001193072900017601523031220230000000218507223000000000022593468829XXXXXX7245               2111111   NYV4 A7W583072158149399N840000000002185437Q00    01DNHAPPY HIPPIE             012937    VD84000000002185 NP1549976044904   1969                     000000000+                F DF 10420                     000000000  Y000000000 338   0000000000000.00 0000000.00   0000000.00                             000000000000000                                                                                                                                                     01424 G000000002185 0000000000000.23     00050 02200                  
00003990301700001P16759067590000000288180088880000001010000000000000000                             2000000000000000000000000              000000000000                    0000000000000000000000000                    000000000000                                                                                                                                                                                                                                                                                                                                                                                                                                                                                        
00004000301700016DT67590675900000002881800888800000010180088824001193072900017601531031320230000000768107223000000000022593480639XXXXXX9102               2111111   NYV4 A7W303072556999422N840000000007681HBV700    01DNHAPPY HIPPIE             810225    VD84000000007681 NP1549976044904   1970                     000000000+                F DF 00415                     000000000  N000000000       0000000000000.00 0000000.00   0000000.00                             000000000000000                                                                                                                                                     01424 G000000007681 0000000000001.42     01650 01500                  
00004010301700001P16759067590000000288180088880000001010000000000000000                             2000000000000000000000000              000000000000                    0000000000000000000000000                    000000000000                                                                                                                                                                                                                                                                                                                                                                                                                                                                                        
00004020301700017DT67590675900000002881800888800000010180088887287283072900017601540031320230000001272707223000000000022593523222XXXXXX8684       ME03KE06MS02      NY 4607AMPLC6IIJ30313  N840000000012727          81DNHAPPY HIPPIE             04556B    MC84000000012727 N  549976044904   1971                     000000000+600450S00130    MPL  00580                     000000000  N                0000000000000.00 0000000.00   0000000.00                             000000000000000                                                                                                                                                   U001424  000000000000 0000000000002.77     02100 01000                  
00004030301700018BH6759067590000000370780088880000090170313202307223000000000013094    0000090001590396Y8008886759C03142023                                                                                                                                                                                                                                                                                                                                                                                                                                                                                                                                                                                                 
00004040301700019DT67590675900000003707800888800000010180088824001193072900015903954031320230000000729907223000000000013094440066XXXXXX3472               2111111   NYV4 A7W303072548218642N840000000007299N6NS00    01DNMR HEMP FLOWER           06845C    VS84000000007299 NP1549976053336   87069                    000000000+                C CC 12108                     000000000  N000000000 496   0000000000000.00 0000000.00   0000000.00                             000000000000000                                                                                                                                                     01424 G000000007299 0000000000001.60     02050 01000                  
00004050301700001P16759067590000000370780088880000001010000000000000000                             2000000000000000000000000              000000000000                    0000000000000000000000000                    000000000000                                                                                                                                                                                                                                                                                                                                                                                                                                                                                        
00004060301700020DT67590675900000003707800888800000010180088824001193072900015903962031320230000000579507223000000000013094466187XXXXXX3259               2111111   NYV4 A7W463072678451897N840000000005795QSWC00    01DNMR HEMP FLOWER           929924    VD84000000005795 NP1549976053336   87086                    000000000+                F DF 00415                     000000000  N000000000       0000000000000.00 0000000.00   0000000.00                             000000000000000                                                                                                                                                     01424 G000000005795 0000000000001.11     01650 01500                  
00004070301700001P16759067590000000370780088880000001010000000000000000                             2000000000000000000000000              000000000000                    0000000000000000000000000                    000000000000                                                                                                                                                                                                                                                                                                                                                                                                                                                                                        
00004080301700021BH6759067590000001427480010280000090170313202307223000000000596000    0000090001262237Y8001026759C03142023                                                                                                                                                                                                                                                                                                                                                                                                                                                                                                                                                                                                 
00004090301700022DT67590675900000014274800102800000010180010224001193072900012616450031220230000000700407223000000000596000483316XXXXXX7439               2111111   NYV4 A7W583068365593637N84000000000700469HB00    01DNCBD8666317293            090905    VD84000000007004 NP1549977145232   FBB1FFF129T720865539E4B  000000000+                F DF 10420                     000000000  Y000000000 338   0000000000000.00 0000000.00   0000000.00                             000000000000000                                                                                                                                                     01424 G000000007004 0000000000000.26     00050 02200                  
00004100301700001P16759067590000001427480010280000001010000000000000000                             2000000000000000000000000              000000000000                    0000000000000000000000000                    000000000000                                                                                                                                                                                                                                                                                                                                                                                                                                                                                        
00004110301700023DT67590675900000014274800102800000010180010224001193072900012616815031220230000001987007223000000000596000419485XXXXXX5743               2111111   NYV4 A7W383068642046864N840000000019870MWFZ00    01DNCBD8666317293            025003    VD84000000019870 NP1549977145232   6FF602827ET7DE536C3D3A2  000000000+                F DF 00415                     000000000  N000000000       0000000000000.00 0000000.00   0000000.00                             000000000000000                                                                                                                                                     01424 G000000019870 0000000000003.43     01650 01500                  
00004120301700001P16759067590000001427480010280000001010000000000000000                             2000000000000000000000000              000000000000                    0000000000000000000000000                    000000000000                                                                                                                                                                                                                                                                                                                                                                                                                                                                                        
00004130301700024DT67590675900000014274800102800000010180010224001193072900012617292031220230000001499107223000000000596000481906XXXXXX6505               2111111   NYV4 A7W463068804051920N840000000014991WBSR00    01DNCBD8666317293            009039    VB84000000014991 NP1549977145232   3ABA39D614TB35F50D8E93A  000000000+                G3CG308002                     000000000  N000000000 381   0000000000000.00 0000000.00   0000000.00                             000000000000000                                                                                                                                                     01424 G000000014991 0000000000004.30     02800 01000                  
00004140301700001P16759067590000001427480010280000001010000000000000000                             2000000000000000000000000              000000000000                    0000000000000000000000000                    000000000000                                                                                                                                                                                                                                                                                                                                                                                                                                                                                        
00004150301700025DT67590675900000014274800102800000010180010224001193072900012617433031220230000002126107223000000000596000482099XXXXXX7422               2111111   NYV4 A7W303068858050818N840000000021261TDPD00    01DNCBD8666317293            009242    VS84000000021261 NP1549977145232   286ECA7189TD891A32612ED  000000000+                A CA 12106                     000000000  N000000000 492   0000000000000.00 0000000.00   0000000.00                             000000000000000                                                                                                                                                     01424 G000000021261 0000000000004.12     01890 01000                  
00004160301700001P16759067590000001427480010280000001010000000000000000                             2000000000000000000000000              000000000000                    0000000000000000000000000                    000000000000                                                                                                                                                                                                                                                                                                                                                                                                                                                                                        
00004170301700026DT67590675900000014274800102800000010180010287287283072900012617459031220230000001499107223000000000596000547487XXXXXX9700                         NY 4607AMEBRDEL0C0309  N840000000014991          81DNCBD8666317293            02453E    MB84000000014991 NP1549977145232   E40388E6FCT867EBF4028F0  000000000+600450S00130    MEB  02663                     000000000  N                0000000000000.00 0000000.00   0000000.00                             000000000000000                                                                                                                                                   U001424  000000000000 0000000000004.30     02800 01000                  
00004180301700001P1675906759000000142748001028000000101                                                          000000000000          8000            871584967                                                                                                                                                                                                                                                                                                                                                                                                                                                                                                                                                            
00004190301700027DT67590675900000014274800102800000010180010224001193072900012621021031220230000002116207223000000000596000443279XXXXXX1817               2111111   NYV4 A7W303072015184021N840000000021162GB6K00    01DNCBD8666317293            002518    VD84000000021162 NP1549977145232   5F16439287T8E5DEA5253FD  000000000+                F DF 00415                     000000000  N000000000       0000000000000.00 0000000.00   0000000.00                             000000000000000                                                                                                                                                     01424 G000000021162 0000000000003.64     01650 01500                  
00004200301700001P16759067590000001427480010280000001010000000000000000                             2000000000000000000000000              000000000000                    0000000000000000000000000                    000000000000                                                                                                                                                                                                                                                                                                                                                                                                                                                                                        
00004210301700028DT67590675900000014274800102800000010180010287287283072900012621048031220230000002412907223000000000596000531260XXXXXX2102       ME03KE06MS02      NY 4607AMDJZ7D9480312  N840000000024129          81DNCBD8666317293            184304    MD84000000024129 N  549977145232   FE2A183777TBC25B784551B  000000000+600450S00130    MDJ  10813                     000000000  1                0000000000000.00 0000000.00   0000000.00                             000000000000000                                                                                                                                                   U001424  000000000000 0000000000000.34     00050 02200                  
00004220301700029DT67590675900000014274800102800000010180010287287283072900012621097031220230000002255007223000000000596000546533XXXXXX6368       ME03KE06MS02      NY 4607AMDJX5MY170312  N840000000022550          81DNCBD8666317293            010905    MD84000000022550 N  549977145232   9CE56A94D1T29C2CB44E3C7  000000000+600450S00130    MDJ  10813                     000000000  1                0000000000000.00 0000000.00   0000000.00                             000000000000000                                                                                                                                                   U001424  000000000000 0000000000000.33     00050 02200                  
00004230301700030DT67590675900000014274800102800000010180010287287283072900012621139031220230000002661107223000000000596000542418XXXXXX5663       ME03KE06MS02      NY 4607AMPLGXFO490312  N840000000026611          81DNCBD8666317293            17074B    MC84000000026611 N  549977145232   69BA3D36A7T158816A0BF4F  000000000+600450S00130    MPL  00580                     000000000  N                0000000000000.00 0000000.00   0000000.00                             000000000000000                                                                                                                                                   U001424  000000000000 0000000000005.69     02100 01000                  
00004240301700031DT67590675900000014274800102800000010180010287287283072900012621154031220230000001799107223000000000596000546208XXXXXX3284       ME03KE06MS02      NY 4607AMDJ9DTQ710312  N840000000017991          81DNCBD8666317293            166740    MD84000000017991 N  549977145232   C1AFC26429TC1CA29976590  000000000+600450S00130    MDJ  00401                     000000000  N                0000000000000.00 0000000.00   0000000.00                             000000000000000                                                                                                                                                   U001424  000000000000 0000000000003.12     01650 01500                  
00004250301700032DT67590675900000014274800102800000010180010224001193072900012621161031320230000000161507223000000000596000444796XXXXXX6198               2111111   NYV4 A7W583072201198096N840000000001615DJ5P00    01DNCBD8666317293            013035    VS84000000001615 NP1549977145232   F7FEE0857ET982A3C322BA4  000000000+                A CA 12106                     000000000  N000000000 492   0000000000000.00 0000000.00   0000000.00                             000000000000000                                                                                                                                                     01424 G000000001615 0000000000000.41     01890 01000                  
00004260301700001P16759067590000001427480010280000001010000000000000000                             2000000000000000000000000              000000000000                    0000000000000000000000000                    000000000000                                                                                                                                                                                                                                                                                                                                                                                                                                                                                        
00004270301700033DT67590675900000014274800102800000010180010224001193072900012621229031320230000002106207223000000000596000440393XXXXXX2059               2111111   NYV4 A7W583072346093970N840000000021062BQL800    01DNCBD8666317293            687858    VD84000000021062 NP1549977145232   299208C30DTCEF9B008D3CD  000000000+                F PF 08175                     000000000  N000000000       0000000000000.00 0000000.00   0000000.00                             000000000000000                                                                                                                                                     01424 G000000021062 0000000000003.89     01750 02000                  
00004280301700001P16759067590000001427480010280000001010000000000000000                             2000000000000000000000000              000000000000                    0000000000000000000000000                    000000000000                                                                                                                                                                                                                                                                                                                                                                                                                                                                                        
00004290301700034DT67590675900000014274800102800000010180010224001193072900012621237031320230000000533607223000000000596000473703XXXXXX2926               2111111   NYV4 A7W303072445839537N840000000005336K2ML00    01DNCBD8666317293            082106    VD84000000005336 NP1549977145232   BCF6CE3A5ET5AECA3AD160C  000000000+                F DF 10420                     000000000  Y000000000 338   0000000000000.00 0000000.00   0000000.00                             000000000000000                                                                                                                                                     01424 G000000005336 0000000000000.25     00050 02200                  
00004300301700001P16759067590000001427480010280000001010000000000000000                             2000000000000000000000000              000000000000                    0000000000000000000000000                    000000000000                                                                                                                                                                                                                                                                                                                                                                                                                                                                                        
00004310301700035DT67590675900000014274800102800000010180010224001193072900012621302031320230000002106207223000000000596000420767XXXXXX4726               2111111   NYV4 A7W583072468846617N8400000000210628GR700    01DNCBD8666317293            040109    VD84000000021062 NP1549977145232   F7F5EDE921T70861E6E46C6  000000000+                F DF 10420                     000000000  Y000000000 338   0000000000000.00 0000000.00   0000000.00                             000000000000000                                                                                                                                                     01424 G000000021062 0000000000000.33     00050 02200                  
00004320301700001P16759067590000001427480010280000001010000000000000000                             2000000000000000000000000              000000000000                    0000000000000000000000000                    000000000000                                                                                                                                                                                                                                                                                                                                                                                                                                                                                        
00004330301700036DT67590675900000014274800102800000010180010224001193072900012621344031320230000002180707223000000000596000407732XXXXXX6964               2111111   NYV4 A7W583072477528870N840000000021807B3GP00    01DNCBD8666317293            013304    VD84000000021807 NP1549977145232   9E3BFC6904TE1A71B5092C1  000000000+                F PF 08175                     000000000  N000000000       0000000000000.00 0000000.00   0000000.00                             000000000000000                                                                                                                                                     01424 G000000021807 0000000000004.02     01750 02000                  
00004340301700001P16759067590000001427480010280000001010000000000000000                             2000000000000000000000000              000000000000                    0000000000000000000000000                    000000000000                                                                                                                                                                                                                                                                                                                                                                                                                                                                                        
00004350301700037DT67590675900000014274800102800000010180010287287283072900012621352031320230000001987007223000000000596000537811XXXXXX3427       ME03KE06MS02      NY 4607AMWENFTES90313  N840000000019870          81DNCBD8666317293            02578Z    MC84000000019870 N  549977145232   D9445920ADT60527D3D32DB  000000000+600450S00130    MWE  00737                     000000000  N                0000000000000.00 0000000.00   0000000.00                             000000000000000                                                                                                                                                   U001424  000000000000 0000000000005.27     02600 01000                  
00004360301700038DT67590675900000014274800102800000010180010287287283072900012621394031320230000001987007223000000000596000517805XXXXXX1373       ME03KE06MS02      NY 4607AMPLS3L0AU0313  N840000000019870          81DNCBD8666317293            07006B    MC84000000019870 N  549977145232   B9181DAF6BT21B09B7DB976  000000000+600450S00130    MPL  00580                     000000000  N                0000000000000.00 0000000.00   0000000.00                             000000000000000                                                                                                                                                   U001424  000000000000 0000000000004.27     02100 01000                  
00004370301700039DT67590675900000014274800102800000010680010274001193072900012621406031320230000000533607223000000000596000473703XXXXXX2926               0000000   NYV4 07T383072493335330N840000000005336Q75500    01CNCBD8666317293            062585    VD84000000005336 NP1549977145232   BCF6CE3A5ET5AECA3AD160C  000000000+                F DF 08168                     000000000  Y000000000 369   0000000000000.00 0000000.00   0000000.00                             000000000000000                                                                                                                                                     01424  000000005336 0000000000000.00     00000 00000                  
00004380301700001P16759067590000001427480010280000001060000000000000000                             2000000000000000000000000              000000000000                    0000000000000000000000000                    000000000000                                                                                                                                                                                                                                                                                                                                                                                                                                                                                        
00004390301700040DT67590675900000014274800102800000010680010287287283072900012621410031320230000000955707223000000000596000537811XXXXXX5790                         NY 4607AMWEQI0PTH0313  N840000000009557          81CNCBD8666317293            085832    MC84000000009557 N  549977145232   16E8CB308BT5FFA80335260  000000000+600450S00130    MWE  00565                     000000000  N                0000000000000.00 0000000.00   0000000.00                             000000000000000                                                                                                                                                     01424  000000000000-0000000000001.67     01750 00000                  
00004400301700041DT67590675900000014274800102800000010680010274001193072900012621422031320230000001446307223000000000596000440393XXXXXX2059               0000000   NYV4 07T303072511788130N840000000014463V45700    01CNCBD8666317293            974376    VD84000000014463 NP1549977145232   299208C30DTCEF9B008D3CD  000000000+                F PF 08168                     000000000  N000000000 369   0000000000000.00 0000000.00   0000000.00                             000000000000000                                                                                                                                                     01424  000000014463 0000000000000.00     00000 00000                  
00004410301700001P16759067590000001427480010280000001060000000000000000                             2000000000000000000000000              000000000000                    0000000000000000000000000                    000000000000                                                                                                                                                                                                                                                                                                                                                                                                                                                                                        
00004420301700042DT67590675900000014274800102800000010180010224001193072900012621435031320230000002165807223000000000596000404657XXXXXX2065               2111111   NYV4 A7W583072512569052N8400000000216588PGD00    01DNCBD8666317293            013519    VS84000000021658 NP1549977145232   70CCD0C138T54E18875B43F  000000000+                A CA 12106                     000000000  N000000000 492   0000000000000.00 0000000.00   0000000.00                             000000000000000                                                                                                                                                     01424 G000000021658 0000000000004.19     01890 01000                  
00004430301700001P16759067590000001427480010280000001010000000000000000                             2000000000000000000000000              000000000000                    0000000000000000000000000                    000000000000                                                                                                                                                                                                                                                                                                                                                                                                                                                                                        
00004440301700043DT67590675900000014274800102800000010680010274001193072900012621448031320230000001346307223000000000596000420767XXXXXX4726               0000000   NYV4 07T383072530368648N840000000013463QP9985    01CNCBD8666317293            010969    VD84000000013463 NP1549977145232   F7F5EDE921T70861E6E46C6  000000000+                F DF 08168                     000000000  Y000000000 369   0000000000000.00 0000000.00   0000000.00                             000000000000000                                                                                                                                                     01424  000000013463 0000000000000.00     00000 00000                  
00004450301700001P16759067590000001427480010280000001060000000000000000                             2000000000000000000000000              000000000000                    0000000000000000000000000                    000000000000                                                                                                                                                                                                                                                                                                                                                                                                                                                                                        
00004460301700044DT67590675900000014274800102800000010180010224001193072900012621450031320230000001987007223000000000596000483316XXXXXX9188               2111111   NYV4 A7W583072536371851N840000000019870HPQN00    01DNCBD8666317293            085310    VD84000000019870 NP1549977145232   6B37A854DDT136B5E33AD14  000000000+                F DF 10420                     000000000  Y000000000 338   0000000000000.00 0000000.00   0000000.00                             000000000000000                                                                                                                                                     01424 G000000019870 0000000000000.32     00050 02200                  
00004470301700001P16759067590000001427480010280000001010000000000000000                             2000000000000000000000000              000000000000                    0000000000000000000000000                    000000000000                                                                                                                                                                                                                                                                                                                                                                                                                                                                                        
00004480301700045DT67590675900000014274800102800000010180010224001193072900012621484031320230000001645307223000000000596000410039XXXXXX4624               2111111   NYV4 A7W463072556969763N840000000016453GF3W00    01DNCBD8666317293            42640D    VS84000000016453 NP1549977145232   2EF3854584T301D43FCB21C  000000000+                D CD 12109                     000000000  N000000000 498   0000000000000.00 0000000.00   0000000.00                             000000000000000                                                                                                                                                     01424 G000000016453 0000000000004.21     02500 01000                  
00004490301700001P16759067590000001427480010280000001010000000000000000                             2000000000000000000000000              000000000000                    0000000000000000000000000                    000000000000                                                                                                                                                                                                                                                                                                                                                                                                                                                                                        
00004500301700046DT67590675900000014274800102800000010180010224001193072900012621492031320230000002735707223000000000596000426684XXXXXX1425               2111111   NYV4 A7W383072560720068N840000000027357TNDX00    01DNCBD8666317293            02985B    VS84000000027357 NP1549977145232   6A433948D8T5C251DEDD4B6  000000000+                B CB 12107                     000000000  N000000000 494   0000000000000.00 0000000.00   0000000.00                             000000000000000                                                                                                                                                     01424 G000000027357 0000000000005.68     02040 01000                  
00004510301700001P16759067590000001427480010280000001010000000000000000                             2000000000000000000000000              000000000000                    0000000000000000000000000                    000000000000                                                                                                                                                                                                                                                                                                                                                                                                                                                                                        
00004520301700047DT67590675900000014274800102800000010680010274001193072900012621505031320230000001333607223000000000596000475824XXXXXX1574               0000000   NYV4 07T303072561155298N8400000000133369TZC00    01CNCBD8666317293            013016    VD84000000013336 NP1549977145232   811CB230BFT95EE9023499A  000000000+                F DF 08168                     000000000  Y000000000 369   0000000000000.00 0000000.00   0000000.00                             000000000000000                                                                                                                                                     01424  000000013336 0000000000000.00     00000 00000                  
00004530301700001P16759067590000001427480010280000001060000000000000000                             2000000000000000000000000              000000000000                    0000000000000000000000000                    000000000000                                                                                                                                                                                                                                                                                                                                                                                                                                                                                        
00004540301700048DT67590675900000014274800102800000010680010274001193072900012621547031320230000000938907223000000000596000481583XXXXXX5635               0000000   NYV4 07T383072567364859N840000000009389DDG385    01CNCBD8666317293            069033    VD84000000009389 NP1549977145232   2738C19EFFTDA70C45E898C  000000000+                F DF 08168                     000000000  Y000000000 369   0000000000000.00 0000000.00   0000000.00                             000000000000000                                                                                                                                                     01424  000000009389 0000000000000.00     00000 00000                  
00004550301700001P16759067590000001427480010280000001060000000000000000                             2000000000000000000000000              000000000000                    0000000000000000000000000                    000000000000                                                                                                                                                                                                                                                                                                                                                                                                                                                                                        
00004560301700049DT67590675900000014274800102800000010180010224001193072900012621567031320230000001512907223000000000596000430682XXXXXX5264               2111111   NYV4 A7W383072568897453N840000000015129NHVM00    01DNCBD8666317293            114809    VD84000000015129 NP1549977145232   1F1C83C72ATEDF189CCBE6F  000000000+                F DF 00415                     000000000  N000000000       0000000000000.00 0000000.00   0000000.00                             000000000000000                                                                                                                                                     01424 G000000015129 0000000000002.65     01650 01500                  
00004570301700001P16759067590000001427480010280000001010000000000000000                             2000000000000000000000000              000000000000                    0000000000000000000000000                    000000000000                                                                                                                                                                                                                                                                                                                                                                                                                                                                                        
00004580301700050DT67590675900000014274800102800000010180010287287283072900012621584031320230000000344707223000000000596000540324XXXXXX7447       ME03KE06MS02      NY 4607AMDJAIKRQF0313  N840000000003447          81DNCBD8666317293            104942    MD84000000003447 N  549977145232   222620354CTDE2685E547A5  000000000+600450S00130    MDJ  10813                     000000000  1                0000000000000.00 0000000.00   0000000.00                             000000000000000                                                                                                                                                   U001424  000000000000 0000000000000.24     00050 02200                  
00004590301700051DT67590675900000014274800102800000010680010287287283072900012621592031320230000000993507223000000000596000551007XXXXXX2514                         NY 4607AMDJAJAWQF0313  N840000000009935          81CNCBD8666317293            718153    MD84000000009935 N  549977145232   1CC8911E1AT29F401B65581  000000000+600450S00130    MDJ  10828                     000000000  1                0000000000000.00 0000000.00   0000000.00                             000000000000000                                                                                                                                                     01424  000000000000 0000000000000.00     00000 00000                  
00004600301700052DT67590675900000014274800102800000010180010287287283072900012621642031320230000001987007223000000000596000534859XXXXXX4355                         NY 4607AMDBI8J1TI0313  N840000000019870          81DNCBD8666317293            161770    MD84000000019870 NP1549977145232   F9C3919489T009E05F871A8  000000000+600450S00130    MDB  10786                     000000000  1                0000000000000.00 0000000.00   0000000.00                             000000000000000                                                                                                                                                   U001424  000000000000 0000000000000.32     00050 02200                  
00004610301700001P1675906759000000142748001028000000101                                                          000000000000          8000            871584967                                                                                                                                                                                                                                                                                                                                                                                                                                                                                                                                                            
00004620301700053DT67590675900000014274800102800000010680010287287283072900012621659031320230000000500007223000000000596000534859XXXXXX4355                         NY 4607AMDBQ2CVS90313  N840000000005000          81CNCBD8666317293            927645    MD84000000005000 NP1549977145232   F9C3919489T009E05F871A8  000000000+600450S00130    MDB  10798                     000000000  1                0000000000000.00 0000000.00   0000000.00                             000000000000000                                                                                                                                                     01424  000000000000 0000000000000.00     00000 00000                  
00004630301700001P1675906759000000142748001028000000106                                                          000000000000          8000            871584967                                                                                                                                                                                                                                                                                                                                                                                                                                                                                                                                                            
00004640301700054DT67590675900000014274800102800000010180010224001193072900012621666031320230000002638707223000000000596000448195XXXXXX1926               2111111   NYV4 A7W383072598732344N840000000026387WRDR00    01DNCBD8666317293            172583    VS84000000026387 NP1549977145232   AC50D7601BT31F7B307A05E  000000000+                A CA 12106                     000000000  N000000000 492   0000000000000.00 0000000.00   0000000.00                             000000000000000                                                                                                                                                     01424 G000000026387 0000000000005.09     01890 01000                  
00004650301700001P16759067590000001427480010280000001010000000000000000                             2000000000000000000000000              000000000000                    0000000000000000000000000                    000000000000                                                                                                                                                                                                                                                                                                                                                                                                                                                                                        
00004660301700055DT67590675900000014274800102800000010180010224001193072900012621674031320230000000129507223000000000596000434258XXXXXX1587               2111111   NYV4 A7W583072601240548N840000000001295JKP200    01DNCBD8666317293            075292    VD84000000001295 NP1549977145232   9374CDDCF1T5CF9C96C57B0  000000000+                F DF 10420                     000000000  Y000000000 338   0000000000000.00 0000000.00   0000000.00                             000000000000000                                                                                                                                                     01424 G000000001295 0000000000000.23     00050 02200                  
00004670301700001P16759067590000001427480010280000001010000000000000000                             2000000000000000000000000              000000000000                    0000000000000000000000000                    000000000000                                                                                                                                                                                                                                                                                                                                                                                                                                                                                        
00004680301700056DT67590675900000014274800102800000010180010287287283072900012621683031320230000002146007223000000000596000517805XXXXXX6307       ME03KE06MS02      NY 4607AMPLBKZ7H00313  N840000000021460          81DNCBD8666317293            06448B    MC84000000021460 N  549977145232   EB3C7A6B1DT2D11F6B9B5D5  000000000+600450S00130    MPL  00580                     000000000  N                0000000000000.00 0000000.00   0000000.00                             000000000000000                                                                                                                                                   U001424  000000000000 0000000000004.61     02100 01000                  
00004690301700057DT67590675900000014274800102800000010180010224001193072900012621690031320230000000149507223000000000596000434258XXXXXX1587               2111111   NYV4 A7W583072601347646N840000000001495L4SR00    01DNCBD8666317293            098992    VD84000000001495 NP1549977145232   9374CDDCF1T3FE4659109E8  000000000+                F DF 10420                     000000000  Y000000000 338   0000000000000.00 0000000.00   0000000.00                             000000000000000                                                                                                                                                     01424 G000000001495 0000000000000.23     00050 02200                  
00004700301700001P16759067590000001427480010280000001010000000000000000                             2000000000000000000000000              000000000000                    0000000000000000000000000                    000000000000                                                                                                                                                                                                                                                                                                                                                                                                                                                                                        
00004710301700058DT67590675900000014274800102800000010680010274001193072900012621703031320230000001075907223000000000596000434256XXXXXX3354               0000000   NYV4 07T383072601749545N840000000010759QVFB00    01CNCBD8666317293            019523    VD84000000010759 NP1549977145232   17F8359DDAT6816CBA2C458  000000000+                F DF 08168                     000000000  Y000000000 369   0000000000000.00 0000000.00   0000000.00                             000000000000000                                                                                                                                                     01424  000000010759 0000000000000.00     00000 00000                  
00004720301700001P16759067590000001427480010280000001060000000000000000                             2000000000000000000000000              000000000000                    0000000000000000000000000                    000000000000                                                                                                                                                                                                                                                                                                                                                                                                                                                                                        
00004730301700059DT67590675900000014274800102800000010180010287287283072900012621725031320230000000659907223000000000596000542418XXXXXX4260       ME03KE06MS02      NY 4607AMWEB024QF0313  N840000000006599          81DNCBD8666317293            09648P    MC84000000006599 N  549977145232   FE8732AA4CT1955671D54BA  000000000+600450S00130    MWE  00737                     000000000  N                0000000000000.00 0000000.00   0000000.00                             000000000000000                                                                                                                                                   U001424  000000000000 0000000000001.82     02600 01000                  
00004740301700060DT67590675900000014274800102800000010180010224001193072900012621732031320230000002126107223000000000596000410039XXXXXX9912               2111111   NYV4 A7W303072605913090N840000000021261SGB400    01DNCBD8666317293            65904D    VS84000000021261 NP1549977145232   A79DCD8C8CT3CFAAD223062  000000000+                D CD 12109                     000000000  N000000000 498   0000000000000.00 0000000.00   0000000.00                             000000000000000                                                                                                                                                     01424 G000000021261 0000000000005.42     02500 01000                  
00004750301700001P16759067590000001427480010280000001010000000000000000                             2000000000000000000000000              000000000000                    0000000000000000000000000                    000000000000                                                                                                                                                                                                                                                                                                                                                                                                                                                                                        
00004760301700061DT67590675900000014274800102800000010180010224001193072900012621765031320230000001616007223000000000596000426690XXXXXX7221               2111111   NYV4 A7W583072620399398N840000000016160HJ2T00    01DNCBD8666317293            00789C    VS84000000016160 NP1549977145232   1BB0F45093T43CB1B4A5DA4  000000000+                C CC 12108                     000000000  N000000000 496   0000000000000.00 0000000.00   0000000.00                             000000000000000                                                                                                                                                     01424 G000000016160 0000000000003.41     02050 01000                  
00004770301700001P16759067590000001427480010280000001010000000000000000                             2000000000000000000000000              000000000000                    0000000000000000000000000                    000000000000                                                                                                                                                                                                                                                                                                                                                                                                                                                                                        
00004780301700062DT67590675900000014274800102800000010680010274001193072900012621778031320230000002126107223000000000596000400022XXXXXX7097               0000000   NYV4 07T583072621800876N8400000000212617B5G00    01CNCBD8666317293            401689    VD84000000021261 NP1549977145232   92DE1F297CT11C3A42FFC00  000000000+                F DF 08168                     000000000  Y000000000 369   0000000000000.00 0000000.00   0000000.00                             000000000000000                                                                                                                                                     01424  000000021261 0000000000000.00     00000 00000                  
00004790301700001P16759067590000001427480010280000001060000000000000000                             2000000000000000000000000              000000000000                    0000000000000000000000000                    000000000000                                                                                                                                                                                                                                                                                                                                                                                                                                                                                        
00004800301700063DT67590675900000014274800102800000010180010287287283072900012621782031320230000001499107223000000000596000546325XXXXXX8712       ME03KE06MS02      NY 4607AMWETE5DVJ0313  N840000000014991          81DNCBD8666317293            05118P    MC84000000014991 N  549977145232   A5335F1689T109353C96E95  000000000+600450S00130    MWE  00737                     000000000  N                0000000000000.00 0000000.00   0000000.00                             000000000000000                                                                                                                                                   U001424  000000000000 0000000000004.00     02600 01000                  
00004810301700064DT67590675900000014274800102800000010180010224001193072900012621823031320230000002487007223000000000596000483950XXXXXX9155               2111111   NYV4 A7W583072654728550N8400000000248705QWR00    01DNCBD8666317293            03394B    VS84000000024870 NP1549977145232   D9F936590CT3D77319E503B  000000000+                B CB 12107                     000000000  N000000000 494   0000000000000.00 0000000.00   0000000.00                             000000000000000                                                                                                                                                     01424 G000000024870 0000000000005.17     02040 01000                  
00004820301700001P16759067590000001427480010280000001010000000000000000                             2000000000000000000000000              000000000000                    0000000000000000000000000                    000000000000                                                                                                                                                                                                                                                                                                                                                                                                                                                                                        
00004830301700065DT67590675900000014274800102800000010680010274001193072900012621836031320230000001799107223000000000596000481583XXXXXX7634               0000000   NYV4 07T383072661968101N840000000017991Z7JH85    01CNCBD8666317293            014445    VD84000000017991 NP1549977145232   88CF2EE97DT86274AF54B20  000000000+                F DF 08168                     000000000  Y000000000 369   0000000000000.00 0000000.00   0000000.00                             000000000000000                                                                                                                                                     01424  000000017991 0000000000000.00     00000 00000                  
00004840301700001P16759067590000001427480010280000001060000000000000000                             2000000000000000000000000              000000000000                    0000000000000000000000000                    000000000000                                                                                                                                                                                                                                                                                                                                                                                                                                                                                        
00004850301700066DT67590675900000014274800102800000010180010287287283072900012621873031320230000001987007223000000000596000521997XXXXXX4368       ME03KE06MS02      NY 4607AMDJL3PLJ70313  N840000000019870          81DNCBD8666317293            067502    MD84000000019870 N  549977145232   D7A084B1DDT0CA3925B42A1  000000000+600450S00130    MDJ  00401                     000000000  N                0000000000000.00 0000000.00   0000000.00                             000000000000000                                                                                                                                                   U001424  000000000000 0000000000003.43     01650 01500                  
00004860301700067DT67590675900000014274800102800000010180010287287283072900012621899031320230000000129507223000000000596000521997XXXXXX4368       ME03KE06MS02      NY 4607AMDJB9W5J00313  N840000000001295          81DNCBD8666317293            064831    MD84000000001295 N  549977145232   D7A084B1DDTCE689AC79948  000000000+600450S00130    MDJ  00401                     000000000  N                0000000000000.00 0000000.00   0000000.00                             000000000000000                                                                                                                                                   U001424  000000000000 0000000000000.36     01650 01500                  
00004870301700068DT67590675900000014274800102800000010180010287287283072900012621907031320230000000149507223000000000596000521997XXXXXX4368       ME03KE06MS02      NY 4607AMDJE7UMQF0313  N840000000001495          81DNCBD8666317293            071052    MD84000000001495 N  549977145232   D7A084B1DDT69AE98B48EA7  000000000+600450S00130    MDJ  00401                     000000000  N                0000000000000.00 0000000.00   0000000.00                             000000000000000                                                                                                                                                   U001424  000000000000 0000000000000.40     01650 01500                  
00004880301700069DT67590675900000014274800102800000010180010224001193072900012621914031320230000000342307223000000000596000432739XXXXXX7893               2111111   NYV4 A7W303072680389978N84000000000342328SB00    01DNCBD8666317293            260653    VD84000000003423 NP1549977145232   3C14C57FA5TF3D728AA845C  000000000+                F DF 10420                     000000000  Y000000000 338   0000000000000.00 0000000.00   0000000.00                             000000000000000                                                                                                                                                     01424 G000000003423 0000000000000.24     00050 02200                  
00004890301700001P16759067590000001427480010280000001010000000000000000                             2000000000000000000000000              000000000000                    0000000000000000000000000                    000000000000                                                                                                                                                                                                                                                                                                                                                                                                                                                                                        
00004900301700070DT67590675900000014274800102800000010180010224001193072900012621922031320230000000702807223000000000596000434769XXXXXX9044               2111111   NYV4 A7W303072685132617N840000000007028NGSN00    01DNCBD8666317293            030115    VD84000000007028 NP1549977145232   994D8AD62DT8CAFC1032E8F  000000000+                F DF 10420                     000000000  Y000000000 338   0000000000000.00 0000000.00   0000000.00                             000000000000000                                                                                                                                                     01424 G000000007028 0000000000000.26     00050 02200                  
00004910301700001P16759067590000001427480010280000001010000000000000000                             2000000000000000000000000              000000000000                    0000000000000000000000000                    000000000000                                                                                                                                                                                                                                                                                                                                                                                                                                                                                        
00004920301700071DT67590675900000014274800102800000010680010274001193072900012621950031320230000002126107223000000000596000440066XXXXXX9581               0000000   NYV4 07T303072690281591N840000000021261DJKT00    01CNCBD8666317293            04845C    VS84000000021261 NP1549977145232   05B37D003CT8ACED21D1761  000000000+                C CC 00245                     000000000  N000000000 166   0000000000000.00 0000000.00   0000000.00                             000000000000000                                                                                                                                                     01424  000000021261-0000000000003.74     01760 00000                  
00004930301700001P16759067590000001427480010280000001060000000000000000                             2000000000000000000000000              000000000000                    0000000000000000000000000                    000000000000                                                                                                                                                                                                                                                                                                                                                                                                                                                                                        
00004940301700072DT67590675900000014274800102800000010180010287287283072900012621972031320230000002487007223000000000596000521333XXXXXX7865       ME03KE06MS02      NY 4607AMWECW8BJ00313  N840000000024870          81DNCBD8666317293            01343P    MC84000000024870 N  549977145232   4E9EC7BF56T208C294F7C62  000000000+600450S00130    MWE  00737                     000000000  N                0000000000000.00 0000000.00   0000000.00                             000000000000000                                                                                                                                                   U001424  000000000000 0000000000006.57     02600 01000                  
00004950301700073DT67590675900000014274800102800000010180010224001193072900012621997031320230000001987007223000000000596000426684XXXXXX4029               2111111   NYV4 A7W303072696976913N840000000019870BP8Z00    01DNCBD8666317293            04125B    VS84000000019870 NP1549977145232   423BBDFDCCTFBB7F9BF64E1  000000000+                B CB 12107                     000000000  N000000000 494   0000000000000.00 0000000.00   0000000.00                             000000000000000                                                                                                                                                     01424 G000000019870 0000000000004.15     02040 01000                  
00004960301700001P16759067590000001427480010280000001010000000000000000                             2000000000000000000000000              000000000000                    0000000000000000000000000                    000000000000                                                                                                                                                                                                                                                                                                                                                                                                                                                                                        
00004970301700074DT67590675900000014274800102800000010180010224001193072900012622003031320230000000160707223000000000596000442742XXXXXX9306               2111111   NYV4 A7W383072701971262N8400000000016072JPL00    01DNCBD8666317293            072915    VD84000000001607 NP1549977145232   7AA224488DTFB2D47D55922  000000000+                G DG 10352                     000000000  Y000000000 338   0000000000000.00 0000000.00   0000000.00                             000000000000000                                                                                                                                                     01424 G000000001607 0000000000000.23     00050 02200                  
00004980301700001P16759067590000001427480010280000001010000000000000000                             1000000000112000000000000              000000000000                    0000000000000000000000000                    000000000000                                                                                                                                                                                                                                                                                                                                                                                                                                                                                        
00004990301700075DT67590675900000014274800102800000010680010274001193072900012622016031320230000002106207223000000000596000443041XXXXXX0344               0000000   NYV4 07T583072713096504N8400000000210626Q2500    01CNCBD8666317293            013147    VD84000000021062 NP1549977145232   12785DC4D5T68589A979861  000000000+                F DF 08168                     000000000  Y000000000 369   0000000000000.00 0000000.00   0000000.00                             000000000000000                                                                                                                                                     01424  000000021062 0000000000000.00     00000 00000                  
00005000301700001P16759067590000001427480010280000001060000000000000000                             2000000000000000000000000              000000000000                    0000000000000000000000000                    000000000000                                                                                                                                                                                                                                                                                                                                                                                                                                                                                        
00005010301700076DT67590675900000014274800102800000010680010287287283072900012622061031320230000000500007223000000000596000521333XXXXXX7865                         NY 4607AMPLL3Z9K70313  N840000000005000          81CNCBD8666317293            013250    MC84000000005000 N  549977145232   4E9EC7BF56T208C294F7C62  000000000+600450S00130    MPL  00565                     000000000  N                0000000000000.00 0000000.00   0000000.00                             000000000000000                                                                                                                                                     01424  000000000000-0000000000000.88     01750 00000                  
00005020301700077DT67590675900000014274800102800000010680010274001193072900012622073031320230000000137307223000000000596000440066XXXXXX7769               0000000   NYV4 07T463072726136768N840000000001373G2RR00    01CNCBD8666317293            07077D    VS84000000001373 NP1549977145232   1DA4E75E72T0DBCE8142F05  000000000+                D CD 00245                     000000000  N000000000 166   0000000000000.00 0000000.00   0000000.00                             000000000000000                                                                                                                                                     01424  000000001373-0000000000000.24     01760 00000                  
00005030301700001P16759067590000001427480010280000001060000000000000000                             2000000000000000000000000              000000000000                    0000000000000000000000000                    000000000000                                                                                                                                                                                                                                                                                                                                                                                                                                                                                        
00005040301700078DT67590675900000014274800102800000010180010224001193072900012622086031320230000002136007223000000000596000401154XXXXXX2521               2111111   NYV4 A7W463072727793273N840000000021360LFJH00    01DNCBD8666317293            030690    VD84000000021360 NP1549977145232   AA1A1A9A73T29B0EEA25B49  000000000+                F DF 10420                     000000000  Y000000000 338   0000000000000.00 0000000.00   0000000.00                             000000000000000                                                                                                                                                     01424 G000000021360 0000000000000.33     00050 02200                  
00005050301700001P16759067590000001427480010280000001010000000000000000                             2000000000000000000000000              000000000000                    0000000000000000000000000                    000000000000                                                                                                                                                                                                                                                                                                                                                                                                                                                                                        
00005060301700079DT67590675900000014274800102800000010180010224001193072900012622177031320230000001987007223000000000596000413022XXXXXX0933               2111111   NYV4 A7W583072749540587N8400000000198704ZG600    01DNCBD8666317293            868420    VD84000000019870 NP1549977145232   A061CF3DCBTE8717F15B56D  000000000+                F DF 00415                     000000000  N000000000       0000000000000.00 0000000.00   0000000.00                             000000000000000                                                                                                                                                     01424 G000000019870 0000000000003.43     01650 01500                  
00005070301700001P16759067590000001427480010280000001010000000000000000                             2000000000000000000000000              000000000000                    0000000000000000000000000                    000000000000                                                                                                                                                                                                                                                                                                                                                                                                                                                                                        
00005080301700080DT67590675900000014274800102800000010180010224001193072900012622185031320230000000339107223000000000596000431503XXXXXX4476               2111111   NYV4 A7W463072752336573N840000000003391J5VC00    01DNCBD8666317293            00600A    VS84000000003391 NP1549977145232   AF11FC773ATD05ECC409407  000000000+                A CA 12106                     000000000  N000000000 492   0000000000000.00 0000000.00   0000000.00                             000000000000000                                                                                                                                                     01424 G000000003391 0000000000000.74     01890 01000                  
00005090301700001P16759067590000001427480010280000001010000000000000000                             2000000000000000000000000              000000000000                    0000000000000000000000000                    000000000000                                                                                                                                                                                                                                                                                                                                                                                                                                                                                        
00005100301700081DT67590675900000014274800102800000010180010224001193072900012622219031320230000002487007223000000000596000438117XXXXXX5026               2111111   NYV4 A7W303072754250869N8400000000248705WWD00    01DNCBD8666317293            045705    VD84000000024870 NP1549977145232   E3F43CACDCT1D7649D9BC51  000000000+                F DF 00415                     000000000  N000000000       0000000000000.00 0000000.00   0000000.00                             000000000000000                                                                                                                                                     01424 G000000024870 0000000000004.25     01650 01500                  
00005110301700001P16759067590000001427480010280000001010000000000000000                             2000000000000000000000000              000000000000                    0000000000000000000000000                    000000000000                                                                                                                                                                                                                                                                                                                                                                                                                                                                                        
00005120301700082DT67590675900000014274800102800000010680010287287283072900012622228031320230000001723507223000000000596000517805XXXXXX3552                         NY 4607AMPLACTFW60313  N840000000017235          81CNCBD8666317293            003559    MC84000000017235 N  549977145232   714B99D8EBTCD347608E977  000000000+600450S00130    MPL  00565                     000000000  N                0000000000000.00 0000000.00   0000000.00                             000000000000000                                                                                                                                                     01424  000000000000-0000000000003.02     01750 00000                  
00005130301700083DT67590675900000014274800102800000010180010287287283072900012622244031320230000000642807223000000000596000523914XXXXXX6892       ME03KE06PT01      NY 4607AMCWN1U0K70313  N840000000006428          81DNCBD8666317293            08778W    MC84000000006428 N  549977145232   FCB341B252TEB6B14547F68  000000000+600450S00130    MCW  00580                     000000000  N                0000000000000.00 0000000.00   0000000.00                             000000000000000                                                                                                                                                   U001424  000000000000 0000000000001.45     02100 01000                  
00005140301700084DT67590675900000014274800102800000010180010224001193072900012622250031320230000001987007223000000000596000474440XXXXXX2860               2111111   NYV4 A7W583072773582668N840000000019870R87Z00    01DNCBD8666317293            021455    VD84000000019870 NP1549977145232   D57DA9271CT382B4DB6C8A0  000000000+                F DF 00415                     000000000  N000000000       0000000000000.00 0000000.00   0000000.00                             000000000000000                                                                                                                                                     01424 G000000019870 0000000000003.43     01650 01500                  
00005150301700001P16759067590000001427480010280000001010000000000000000                             2000000000000000000000000              000000000000                    0000000000000000000000000                    000000000000                                                                                                                                                                                                                                                                                                                                                                                                                                                                                        
00005160301700085DT67590675900000014274800102800000010180010224001193072900012622268031320230000002487007223000000000596000445256XXXXXX0086               2111111   NYV4 A7W383072777029571N840000000024870XW5G00    01DNCBD8666317293            755329    VD84000000024870 NP1549977145232   B2BB075A1CTA91BBFEC9A3C  000000000+                F DF 00415                     000000000  N000000000       0000000000000.00 0000000.00   0000000.00                             000000000000000                                                                                                                                                     01424 G000000024870 0000000000004.25     01650 01500                  
00005170301700001P16759067590000001427480010280000001010000000000000000                             2000000000000000000000000              000000000000                    0000000000000000000000000                    000000000000                                                                                                                                                                                                                                                                                                                                                                                                                                                                                        
00005180301700086DT67590675900000014274800102800000010180010287287283072900012622277031320230000000537407223000000000596000531260XXXXXX6304       ME03KE06MS02      NY 4607AMDJTJF9XG0313  N840000000005374          81DNCBD8666317293            174228    MD84000000005374 N  549977145232   D40E7F0A8FTF60843228BE8  000000000+600450S00130    MDJ  10813                     000000000  1                0000000000000.00 0000000.00   0000000.00                             000000000000000                                                                                                                                                   U001424  000000000000 0000000000000.25     00050 02200                  
