01707870234990002BH6759067590000000288180088880000090170110202301023000000000187949    0000090001150032N8008886759C01112023                                                                                                                                                                                                                                                                                                                                                                                                                                                                                                                                                                                                 
01707880234990003DT67590675900000002881800888800000010180088824001193010900011500015011020230000000246801023000000000187949487917XXXXXX3512       VS11    0001111   NYV1 A E463010586515649N840000000002468C6M200    05DNHAPPY HIPPIE             450651    VD84000000002468 N  549976487158                            000000000+                F DF 00381                     000000000  N000000000       0000000000000.00 0000000.00   0000000.00                             000000000000000                                                                                                                                                     01418 A000000000000 0000000000000.35     00800 01500                  
01707890234990004DT67590675900000002881800888800000010180088824001193010900011500023011020230000001599801023000000000187949414776XXXXXX0931       PS01    0000000   NYV1 0 N583010589427338N840000000015998QKDW00    01DNHAPPY HIPPIE             010122    VS84000000015998 N  549976487158                            000000000+                D CD 11868                     000000000  N000000010 105   0000000000000.00 0000000.00   0000000.00                             000000000000000                                                                                                                                                     01418  000000000000 0000000000005.14     03150 01000                  
01707900234990005DT67590675900000002881800888800000010180088877287283010900011500033011020230000000727601023000000000187949511975XXXXXX4657                         NY 1 0 AMDBPJOIA50110  N840000000007276          05DNHAPPY HIPPIE             011124    MD84000000007276 NP1549976487158                            000000000+M10101C5434C    MDB  00062                     000000000  N                0000000000000.00 0000000.00   0000000.00                             000000000000000                                                                                                                                                   B101418  000000000000 0000000000002.03     02650 01000                  
01707910234990001P1675906759000000028818008888000000101                                                          000000000000          3000            814767769                                                                                                                                                                                                                                                                                                                                                                                                                                                                                                                                                            
01707920234990006DT67590675900000002881800888800000010180088877287283010900011500041011020230000000237101023000000000187949542432XXXXXX6544       MS02WI09          NY 1 0 AMDJA6CRRG0110  N840000000002371          05DNHAPPY HIPPIE             052796    MD84000000002371 N  549976487158                            000000000+M10101C5434C    MDJ  10815                     000000000  1                0000000000000.00 0000000.00   0000000.00                             000000000000000                                                                                                                                                   B101418  000000000000 0000000000000.23     00050 02200                  
01707930234990007DT67590675900000002881800888800000010180088824001193010900011500056011020230000000691301023000000000187949405206XXXXXX5360       VS11    0001111   NYV1 A E463010613121028N84000000000691358W700    05DNHAPPY HIPPIE             699539    VD84000000006913 N  549976487158                            000000000+                F PF 08170                     000000000  N000000000       0000000000000.00 0000000.00   0000000.00                             000000000000000                                                                                                                                                     01418 A000000000000 0000000000000.94     01150 01500                  
01707940234990008DT67590675900000002881800888800000010180088877287283010900011500066011020230000000329101023000000000187949546386XXXXXX6815       ME03MS02WI09      NY 1 0 AMDJQUBZA50110  N840000000003291          01DNHAPPY HIPPIE             022200    MD84000000003291 N  549976487158                            000000000+M1010115434C    MDJ  00399                     000000000  N                0000000000000.00 0000000.00   0000000.00                             000000000000000                                                                                                                                                   E101418  000000000000 0000000000000.69     01650 01500                  
01707950234990009DT67590675900000002881800888800000010180088873011003010900011500078011020230000000325801023000000000187949378339XXXXX2003                          NY 1 0 N004246622185309N840000000003258          05DNHAPPY HIPPIE             817747    AM84000000003258 N  549976487158                            000000000+51010155434C 258     11261                     000000000                   0000000000000.00 0000000.00   0000000.00                             000000000000000 61248972086759675900000002881 HAPPY HIPPIE             832 PARKWAY              8656540830      37862     HAPPYHIPPIE832@GMAIL.COM                  01418  000000000000 0000000000000.62     01600 00000                  
01707960234990010DT67590675900000002881800888800000010180088824001193010900011500080011020230000000439001023000000000187949422921XXXXXX2053       VS11    0001111   NYV1 A E383010637279621N840000000004390K47W00    05DNHAPPY HIPPIE             045729    VD84000000004390 N  549976487158                            000000000+                F DF 00381                     000000000  N000000000       0000000000000.00 0000000.00   0000000.00                             000000000000000                                                                                                                                                     01418 A000000000000 0000000000000.50     00800 01500                  
01707970234990011DT67590675900000002881800888800000010180088824001193010900011500098011020230000000691301023000000000187949449507XXXXXX6597       VS11    0001111   NYV1 A E463010652807647N840000000006913XFWR00    05DNHAPPY HIPPIE             030800    VD84000000006913 N  549976487158                            000000000+                F DF 00381                     000000000  N000000000       0000000000000.00 0000000.00   0000000.00                             000000000000000                                                                                                                                                     01418 A000000000000 0000000000000.70     00800 01500                  
01707980234990012DT67590675900000002881800888800000010180088877287283010900011500108011020230000001292601023000000000187949511953XXXXXX5690       MS02WI09          NY 1 0 AMDJXTAFGM0110  N840000000012926          05DNHAPPY HIPPIE             051257    MD84000000012926 N  549976487158                            000000000+M10101C5434C    MDJ  00402                     000000000  N                0000000000000.00 0000000.00   0000000.00                             000000000000000                                                                                                                                                   B101418  000000000000 0000000000001.51     01050 01500                  
01707990234990013DT67590675900000002881800888800000010180088877287283010900011500116011020230000000054901023000000000187949510805XXXXXX6141       MS02WI09          NY 2 0 AMDJWYNQGR0110  N840000000000549          05DNHAPPY HIPPIE             024051    MD84000000000549 N  549976487158                            000000000+M10101C1334C    MDJ  10831                     000000000  1                0000000000000.00 0000000.00   0000000.00                             000000000000000                                                                                                                                                   B101418  000000000000 0000000000000.22     00050 02200                  
01708000234990014DT67590675900000002881800888800000010180088824001193010900011500122011020230000000339001023000000000187949404227XXXXXX3237       VS11    0001111   NYV1 A E303010685667489N840000000003390Z4CR00    05DNHAPPY HIPPIE             569472    VD84000000003390 N  549976487158                            000000000+                F DF 00381                     000000000  N000000000       0000000000000.00 0000000.00   0000000.00                             000000000000000                                                                                                                                                     01418 A000000000000 0000000000000.42     00800 01500                  
01708010234990015DT67590675900000002881800888800000010180088824001193010900011500130011020230000000316101023000000000187949415978XXXXXX3096       VS11    0001111   NYV1 A E383010693872388N84000000000316157C500    05DNHAPPY HIPPIE             078656    VD84000000003161 N  549976487158                            000000000+                F DF 10433                     000000000  Y000000000 338   0000000000000.00 0000000.00   0000000.00                             000000000000000                                                                                                                                                     01418 A000000000000 0000000000000.24     00050 02200                  
01708020234990016DT67590675900000002881800888800000010180088877287283010900011500140011020230000000276401023000000000187949511953XXXXXX3837       MS02WI09          NY 1 0 AMDJZWAAGM0110  N840000000002764          05DNHAPPY HIPPIE             098218    MD84000000002764 N  549976487158                            000000000+M10101C5434C    MDJ  00402                     000000000  N                0000000000000.00 0000000.00   0000000.00                             000000000000000                                                                                                                                                   B101418  000000000000 0000000000000.44     01050 01500                  
01708030234990017DT67590675900000002881800888800000010180088824001193010900011500155011020230000000635701023000000000187949474665XXXXXX4138       VS11    0001111   NYV1 A E303010708516192N840000000006357S94500    05DNHAPPY HIPPIE             127875    VD84000000006357 N  549976487158                            000000000+                F DF 10433                     000000000  Y000000000 338   0000000000000.00 0000000.00   0000000.00                             000000000000000                                                                                                                                                     01418 A000000000000 0000000000000.25     00050 02200                  
01708040234990018DT67590675900000002881800888800000010180088824001193010900011500163011020230000000676301023000000000187949419090XXXXXX7555       VS11    0001111   NYV1 A E303010711844823N840000000006763LMW600    05DNHAPPY HIPPIE             638472    VD84000000006763 N  549976487158                            000000000+                F DF 00381                     000000000  N000000000       0000000000000.00 0000000.00   0000000.00                             000000000000000                                                                                                                                                     01418 A000000000000 0000000000000.69     00800 01500                  
01708050234990019DT67590675900000002881800888800000010180088824001193010900011500171011020230000000395001023000000000187949480639XXXXXX9607       VS11    0001111   NYV1 A E463010713881611N840000000003950Z9X700    05DNHAPPY HIPPIE             364166    VD84000000003950 N  549976487158                            000000000+                F DF 00381                     000000000  N000000000       0000000000000.00 0000000.00   0000000.00                             000000000000000                                                                                                                                                     01418 A000000000000 0000000000000.47     00800 01500                  
01708060234990020DT67590675900000002881800888800000010180088824001193010900011500189011020230000000493801023000000000187949480639XXXXXX9607       VS11    0001111   NYV1 A E383010715426594N8400000000049389TJS00    05DNHAPPY HIPPIE             364237    VD84000000004938 N  549976487158                            000000000+                F DF 00381                     000000000  N000000000       0000000000000.00 0000000.00   0000000.00                             000000000000000                                                                                                                                                     01418 A000000000000 0000000000000.55     00800 01500                  
01708070234990021DT67590675900000002881800888800000010180088877287283010900011500199011020230000000395001023000000000187949533248XXXXXX3108       MS02WI09          NY 2 0 AMPVQU2BTZ0110  N840000000003950          05DNHAPPY HIPPIE             GANWDJ    MD84000000003950 N  549976487158                            000000000+M10101C1334C    MPV  11964                     000000000  N                0000000000000.00 0000000.00   0000000.00                             000000000000000                                                                                                                                                     01418  000000000000 0000000000000.60     01150 01500                  
01708080234990022DT67590675900000002881800888800000010180088824001193010900011500205011020230000000394901023000000000187949445101XXXXXX1002       VS11    0001111   NYV1 A E383010731252242N840000000003949HQMF00    05DNHAPPY HIPPIE             603834    VD84000000003949 N  549976487158                            000000000+                F DF 10433                     000000000  Y000000000 338   0000000000000.00 0000000.00   0000000.00                             000000000000000                                                                                                                                                     01418 A000000000000 0000000000000.24     00050 02200                  
01708090234990023DT67590675900000002881800888800000010180088824001193010900011500213011020230000000691301023000000000187949443041XXXXXX1765       VS11    0001111   NYV1 A E463010732753614N840000000006913Z43500    05DNHAPPY HIPPIE             194758    VD84000000006913 N  549976487158                            000000000+                F DF 10433                     000000000  Y000000000 338   0000000000000.00 0000000.00   0000000.00                             000000000000000                                                                                                                                                     01418 A000000000000 0000000000000.25     00050 02200                  
01708100234990024DT67590675900000002881800888800000010180088824001193010900011500221011020230000000395001023000000000187949420231XXXXXX9926       VS11    0001111   NYV1 A E463010734015890N840000000003950DQZD00    05DNHAPPY HIPPIE             410132    VS84000000003950 N  549976487158                            000000000+                D CD 12113                     000000000  N000000000 499   0000000000000.00 0000000.00   0000000.00                             000000000000000                                                                                                                                                     01418 A000000000000 0000000000000.93     02100 01000                  
01708110234990025DT67590675900000002881800888800000010180088824001193010900011500239011020230000001086301023000000000187949480639XXXXXX5051       VS11    0001111   NYV1 A E303010737136996N840000000010863HXWD00    05DNHAPPY HIPPIE             365199    VD84000000010863 N  549976487158                            000000000+                F DF 00381                     000000000  N000000000       0000000000000.00 0000000.00   0000000.00                             000000000000000                                                                                                                                                     01418 A000000000000 0000000000001.02     00800 01500                  
01708120234990026DT67590675900000002881800888800000010180088824001193010900011500247011020230000000987501023000000000187949414398XXXXXX4037       VS11    0001111   NYV1 A E303010753706260N8400000000098758ZHC00    05DNHAPPY HIPPIE             748491    VD84000000009875 N  549976487158                            000000000+                F DF 00381                     000000000  N000000000       0000000000000.00 0000000.00   0000000.00                             000000000000000                                                                                                                                                     01418 A000000000000 0000000000000.94     00800 01500                  
01708130234990027DT67590675900000002881800888800000010180088824001193010900011500254011020230000001404401023000000000187949419090XXXXXX2434       VS11    0001111   NYV1 A E463010762955311N840000000014044H8X700    05DNHAPPY HIPPIE             641151    VD84000000014044 N  549976487158                            000000000+                F DF 00381                     000000000  N000000000       0000000000000.00 0000000.00   0000000.00                             000000000000000                                                                                                                                                     01418 A000000000000 0000000000001.27     00800 01500                  
01708140234990028DT67590675900000002881800888800000010180088824001193010900011500262011020230000001342001023000000000187949410801XXXXXX6907       VS11    0001111   NYV1 A E463010774758674N840000000013420Q44400    05DNHAPPY HIPPIE             063115    VD84000000013420 N  549976487158                            000000000+                F DF 00381                     000000000  N000000000       0000000000000.00 0000000.00   0000000.00                             000000000000000                                                                                                                                                     01418 A000000000000 0000000000001.22     00800 01500                  
01708150234990029DT67590675900000002881800888800000010180088877287283010900011500272011020230000000276601023000000000187949511953XXXXXX9431       MS02WI09          NY 1 0 AMDJA86LGS0110  N840000000002766          05DNHAPPY HIPPIE             060405    MD84000000002766 N  549976487158                            000000000+M10101C5434C    MDJ  00402                     000000000  N                0000000000000.00 0000000.00   0000000.00                             000000000000000                                                                                                                                                   B101418  000000000000 0000000000000.44     01050 01500                  
01708160234990030DT67590675900000002881800888800000010180088877287283010900011500280011020230000000395001023000000000187949511953XXXXXX9006       MS02WI09          NY 1 0 AMDJTLW1UH0110  N840000000003950          05DNHAPPY HIPPIE             005538    MD84000000003950 N  549976487158                            000000000+M10101C5434C    MDJ  00402                     000000000  N                0000000000000.00 0000000.00   0000000.00                             000000000000000                                                                                                                                                   B101418  000000000000 0000000000000.56     01050 01500                  
01708170234990031DT67590675900000002881800888800000010180088824001193010900011500296011020230000000562701023000000000187949422921XXXXXX3861       VS11    0001111   NYV1 A E583010799066532N840000000005627SP9L00    05DNHAPPY HIPPIE             061907    VD84000000005627 N  549976487158                            000000000+                F DF 00381                     000000000  N000000000       0000000000000.00 0000000.00   0000000.00                             000000000000000                                                                                                                                                     01418 A000000000000 0000000000000.60     00800 01500                  
01708180234990032DT67590675900000002881800888800000010180088877287283010900011500306011020230000000375801023000000000187949552433XXXXXX1841       MS02WI09          NY 1 0 AMPLIDHUIL0110  N840000000003758          05DNHAPPY HIPPIE             08594M    MC84000000003758 N  549976487158                            000000000+M10101C5434C    MPL  00364                     000000000  N                0000000000000.00 0000000.00   0000000.00                             000000000000000                                                                                                                                                   B101418  000000000000 0000000000000.72     01800 00400                  
01708190234990033DT67590675900000002881800888800000010180088877287283010900011500314011020230000000325801023000000000187949511953XXXXXX9825       MS02WI09          NY 1 0 AMDJCYOIGS0110  N840000000003258          05DNHAPPY HIPPIE             092099    MD84000000003258 N  549976487158                            000000000+M10101C5434C    MDJ  00402                     000000000  N                0000000000000.00 0000000.00   0000000.00                             000000000000000                                                                                                                                                   B101418  000000000000 0000000000000.49     01050 01500                  
01708200234990034DT67590675900000002881800888800000010180088824001193010900011500320011020230000000395001023000000000187949434769XXXXXX6440       VS11    0001111   NYV1 A E463010826901237N840000000003950N6PC00    05DNHAPPY HIPPIE             005817    VD84000000003950 N  549976487158                            000000000+                F DF 10433                     000000000  Y000000000 338   0000000000000.00 0000000.00   0000000.00                             000000000000000                                                                                                                                                     01418 A000000000000 0000000000000.24     00050 02200                  
01708210234990035BH6759067590000000215480088880000090170110202301023000000001797343    0000090001784600N8008886759C01112023                                                                                                                                                                                                                                                                                                                                                                                                                                                                                                                                                                                                 
01708220234990036DT67590675900000002154800888800000010180088824001193010900017849812011020230000003888001023000000001797343426930XXXXXX0531               2111111   NYV4 A7W583010530810882N840000000038880KZ8700    01DNDRIP DROP DISTRO LLC     03259G    VB84000000038880 NP1519971004114   INV-000029               000000000+                G5CG511887                     000000000  N000000000 163   0000000000000.00 0000000.00   0000000.00                             000000000000000                                                                                                                                                     01418 G000000038880 0000000000011.76     03000 01000                  
01708230234990001P16759067590000000215480088880000001010000000000000000    43869289656              2000000000000000000000000              000000000000                    0000000000000000000000000                    000000000000                                                                                                                                                                                                                                                                                                                                                                                                                                                                                        
01708240234990037DT67590675900000002154800888800000010180088824001193010900017862773011020230000005562001023000000001797343433993XXXXXX7007               2111111   NYV4 A7W303010774354936N840000000055620DCCR00    01DNDRIP DROP DISTRO LLC     07477G    VB84000000055620 NP1519971004114   INV-000184               000000000+                G5CG511887                     000000000  N000000000 163   0000000000000.00 0000000.00   0000000.00                             000000000000000                                                                                                                                                     01418 G000000055620 0000000000016.79     03000 01000                  
01708250234990001P16759067590000000215480088880000001010000000000000000    43870243054              2000000000000000000000000              000000000000                    0000000000000000000000000                    000000000000                                                                                                                                                                                                                                                                                                                                                                                                                                                                                        
01708260234990038DT67590675900000002154800888800000010180088824001193010900017834442011020230000005562001023000000001797343433993XXXXXX7007               2111111   NYV4 A7W463010710450888N840000000055620CNVH00    01DNDRIP DROP DISTRO LLC     04567G    VB84000000055620 NP1519971004114   17229                    000000000+                G5CG511887                     000000000  N000000000 163   0000000000000.00 0000000.00   0000000.00                             000000000000000                                                                                                                                                     01418 G000000055620 0000000000016.79     03000 01000                  
01708270234990001P16759067590000000215480088880000001010000000000000000    43869995688              2000000000000000000000000              000000000000                    0000000000000000000000000                    000000000000                                                                                                                                                                                                                                                                                                                                                                                                                                                                                        
01708280234990039DT67590675900000002154800888800000010180088887287283010900017836349011020230000002842801023000000001797343547415XXXXXX1420                         NY 4607AMEBAEYWGN0110  N840000000028428          81DNDRIP DROP DISTRO LLC     07230J    MB84000000028428 NP1519900000001   17230                    000000000+600450S00140    MEB  10991                     000000000  N                0000000000000.00 0000000.00   0000000.00                             000000000000000                                                                                                                                                   U001418  000000000000 0000000000008.49     02950 01000                  
01708290234990001P1675906759000000021548008888000000101                                                          000000000000          8000            471534935                                                                                                                                                                                                                                                                                                                                                                                                                                                                                                                                                            
01708300234990040DT67590675900000002154800888800000010180088873011003010900017875482011020230000160000001023000000001797343372727XXXXX1011                          NY 4 07N004006789036327N840000001600000          01DNDRIP DROP DISTRO LLC     247255    AM84000001600000 N  519971004114                            000000000+6004S0S00140 258     11245                     000000000                   0000000000000.00 0000000.00   0000000.00                             000000000000000 61248972736759675900000002154 DRIP DROP DISTRO LLC     1445 W COMMERCE AVE SUITE2087248209      83705     TROY@DRIPDROPDISTRO.COM                   01418  000000000000 0000000000376.10     02350 00000                  
01708310234990041DT67590675900000002154800888800000010180088824001193010900017846008011020230000001879501023000000001797343436618XXXXXX5107       PS01    0000000   NYV4 J7N383010736349087N840000000018795QKSG00    01DNDRIP DROP DISTRO LLC     020560    VD84000000018795 N  519971004114                            000000000+                F DF 10425                     000000000  Y000000010 338   0000000000000.00 0000000.00   0000000.00                             000000000000000                                                                                                                                                     01418  000000000000 0000000000000.31     00050 02200                  
01708320234990042BH6759067590000000288180088880000090170110202301023000000000027679    0000090001150006N8008886759C01112023                                                                                                                                                                                                                                                                                                                                                                                                                                                                                                                                                                                                 
01708330234990043DT67590675900000002881800888800000010180088824001193010900011500015011020230000000256601023000000000027679422921XXXXXX9132       VS11    0001111   NYV1 A E463010572050030N840000000002566WKHT00    05DNHAPPY HIPPIE             039207    VD84000000002566 N  549976487134                            000000000+                F DF 00381                     000000000  N000000000       0000000000000.00 0000000.00   0000000.00                             000000000000000                                                                                                                                                     01418 A000000000000 0000000000000.36     00800 01500                  
01708340234990044DT67590675900000002881800888800000010180088824001193010900011500023011020230000000778901023000000000027679419090XXXXXX4467       VS11    0001111   NYV1 A E303010575485839N840000000007789LSZV00    05DNHAPPY HIPPIE             631132    VD84000000007789 N  549976487134                            000000000+                F DF 00381                     000000000  N000000000       0000000000000.00 0000000.00   0000000.00                             000000000000000                                                                                                                                                     01418 A000000000000 0000000000000.77     00800 01500                  
01708350234990045DT67590675900000002881800888800000010180088824001193010900011500031011020230000000158001023000000000027679419090XXXXXX0765       VS11    0001111   NYV1 A E463010769079024N8400000000015808XK900    05DNHAPPY HIPPIE             641492    VD84000000001580 N  549976487134                            000000000+                F DF 00381                     000000000  N000000000       0000000000000.00 0000000.00   0000000.00                             000000000000000                                                                                                                                                     01418 A000000000000 0000000000000.28     00800 01500                  
01708360234990046DT67590675900000002881800888800000010180088877287283010900011500041011020230000000957801023000000000027679511953XXXXXX2221       MS02WI09          NY 1 0 AMDJAZJHGS0110  N840000000009578          05DNHAPPY HIPPIE             026794    MD84000000009578 N  549976487134                            000000000+M10101C5434C    MDJ  00402                     000000000  N                0000000000000.00 0000000.00   0000000.00                             000000000000000                                                                                                                                                   B101418  000000000000 0000000000001.16     01050 01500                  
01708370234990047DT67590675900000002881800888800000010180088824001193010900011500056011020230000000448801023000000000027679447913XXXXXX5282       VS11    0001111   NYV1 A E383010802571800N8400000000044884Z7C00    90DNHAPPY HIPPIE             003262    VD84000000004488 N  549976487134                            000000000+                F PF 08170                     000000000  N000000000       0000000000000.00 0000000.00   0000000.00                             000000000000000                                                                                                                                                     01418 A000000000000 0000000000000.67     01150 01500                  
01708380234990048DT67590675900000002881800888800000010180088824001193010900011500064011020230000000167801023000000000027679498503XXXXXX1169       VS11    0001111   NYV1 A E463010816115539N840000000001678RJDH00    05DNHAPPY HIPPIE             084165    VD84000000001678 N  549976487134                            000000000+                F DF 00381                     000000000  N000000000       0000000000000.00 0000000.00   0000000.00                             000000000000000                                                                                                                                                     01418 A000000000000 0000000000000.28     00800 01500                  
