00002480629610002BH6759067590000000288180088880000090171128202233222000000000053127    0000090001080037Y8008886759C11292022                                                                                                                                                                                                                                                                                                                                                                                                                                                                                                                                                                                                 
00002490629610003DT67590675900000002881800888800000010180088887287282332900010800311112820220000001071733222000000000053127552736XXXXXX7837       ME03KE06MS02      NY 4607AMPLJO7YWB1128  N840000000010717          81DNTENNESSEE TRADING POST   05521B    MC84000000010717 N  549976044904   1850                     000000000+600450S00130    MPL  00580                     000000000  N                0000000000000.00 0000000.00   0000000.00                             000000000000000                                                                                                                                                   U001424  000000000000 0000000000002.35     02100 01000                  
00002500629610004DT67590675900000002881800888800000010180088887287282332900010800329112820220000000923333222000000000053127537993XXXXXX2557       ME03KE06MS02      NY 4607AMPLMISXWB1128  N840000000009233          81DNTENNESSEE TRADING POST   02802B    MC84000000009233 N  549976044904   1851                     000000000+600450S00130    MPL  00580                     000000000  N                0000000000000.00 0000000.00   0000000.00                             000000000000000                                                                                                                                                   U001424  000000000000 0000000000002.04     02100 01000                  
00002510629610005DT67590675900000002881800888800000010180088824001192332900010800336112820220000000294033222000000000053127445102XXXXXX5460               2111111   NYV4 A7W382332717265065N840000000002940NPB400    01DNTENNESSEE TRADING POST   798833    VD84000000002940 NP1549976044904   1852                     000000000+                F DF 10420                     000000000  Y000000000 338   0000000000000.00 0000000.00   0000000.00                             000000000000000                                                                                                                                                     01424 G000000002940 0000000000000.23     00050 02200                  
00002520629610001P16759067590000000288180088880000001010000000000000000                             2000000000000000000000000              000000000000                    0000000000000000000000000                    000000000000                                                                                                                                                                                                                                                                                                                                                                                                                                                                                        
00002530629610006DT67590675900000002881800888800000010180088824001192332900010800344112820220000000535933222000000000053127401154XXXXXX1203               2111111   NYV4 A7W582332724655121N840000000005359XBXJ00    01DNTENNESSEE TRADING POST   002003    VD84000000005359 NP1549976044904   1853                     000000000+                F DF 10420                     000000000  Y000000000 338   0000000000000.00 0000000.00   0000000.00                             000000000000000                                                                                                                                                     01424 G000000005359 0000000000000.25     00050 02200                  
00002540629610001P16759067590000000288180088880000001010000000000000000                             2000000000000000000000000              000000000000                    0000000000000000000000000                    000000000000                                                                                                                                                                                                                                                                                                                                                                                                                                                                                        
00002550629610007DT67590675900000002881800888800000010180088824001192332900010800351112820220000001592033222000000000053127414740XXXXXX4389               2111111   NYV4 A7W302332739057089N840000000015920NL4900    01DNTENNESSEE TRADING POST   04366D    VS84000000015920 NP1549976044904   1854                     000000000+                D CD 12109                     000000000  N000000000 498   0000000000000.00 0000000.00   0000000.00                             000000000000000                                                                                                                                                     01424 G000000015920 0000000000004.08     02500 01000                  
00002560629610001P16759067590000000288180088880000001010000000000000000                             2000000000000000000000000              000000000000                    0000000000000000000000000                    000000000000                                                                                                                                                                                                                                                                                                                                                                                                                                                                                        
00002570629610008DT67590675900000002881800888800000010180088824001192332900010800369112820220000000359933222000000000053127427178XXXXXX8540               2111111   NYV4 A7W462332766591819N840000000003599V57G00    01DNTENNESSEE TRADING POST   077087    VD84000000003599 NP1549976044904   1855                     000000000+                F DF 10420                     000000000  Y000000000 338   0000000000000.00 0000000.00   0000000.00                             000000000000000                                                                                                                                                     01424 G000000003599 0000000000000.24     00050 02200                  
00002580629610001P16759067590000000288180088880000001010000000000000000                             2000000000000000000000000              000000000000                    0000000000000000000000000                    000000000000                                                                                                                                                                                                                                                                                                                                                                                                                                                                                        
00002590629610009DT67590675900000002881800888800000010180088824001192332900010800377112820220000000535933222000000000053127410040XXXXXX3022               2111111   NYV4 A7W462332774400447N840000000005359Z4H500    01DNTENNESSEE TRADING POST   41628G    VB84000000005359 NP1549976044904   1856                     000000000+                G1CG108010                     000000000  N000000000 390   0000000000000.00 0000000.00   0000000.00                             000000000000000                                                                                                                                                     01424 G000000005359 0000000000001.63     02850 01000                  
00002600629610001P16759067590000000288180088880000001010000000000000000                             2000000000000000000000000              000000000000                    0000000000000000000000000                    000000000000                                                                                                                                                                                                                                                                                                                                                                                                                                                                                        
00002610629610010BH6759067590000000370780088880000090171128202233222000000000001299    0000090001010001Y8008886759C11292022                                                                                                                                                                                                                                                                                                                                                                                                                                                                                                                                                                                                 
00002620629610011DT67590675900000003707800888800000010180088824001192332900010100018112820220000000129933222000000000001299464873XXXXXX4161       PS01EF100000000   NYV4 07N302332629810646N840000000001299XXLL00    01DNMR HEMP FLOWER           102095    VD84000000001299 N  549976053336                            000000000+                G DG 10354                     000000000  Y000000010 338   0000000000000.00 0000000.00   0000000.00                             000000000000000                                                                                                                                                     01424  000000000000 0000000000000.23     00050 02200                  
