00016870250550002BH6759067590000001330080010280000090170711202319223000000000065763    0000090001461176Y8001026759C07122023146                                                                                                                                                                                                                                                                                                                                                                                                                                                                                                                                                                                              
00016880250550003DT67590675900000013300800102800000010180010224001193192900014609003071020230000002131119223000000000065763413944XXXXXX1020               2111111   NYV4 A7W303188327099908N8400000000213119HLG00    01DNCBD8666317293            191961    VD84000000021311 NDR549977133133   02D81ECD6FTE01DCB861F62  000000000+                F DF 00415                     000000000  N000000000       0000000000000.00 0000000.00   0000000.00                             000000000000000                                                                                                                                                     01424 G000000021311 0000000000003.67     01650 01500                  
00016890250550003DR67590675900000013300800102800000010102D81ECD6FTE01DCB861F62  Y000000021311                 P1                                                                                                                                                                                                                                                                                                                                                                                                                                                                                                                                                                                                            
00016900250550001P16759067590000001330080010280000001010000000000000000                             2000000000000000000000000              000000000000                    0000000000000000000000000                    000000000000                                                                                                                                                                                                                                                                                                                                                                                                                                                                                        
00016910250550002G2675906759000000133008001028000000101866-6317293              GA           9 D                00                                      NNNN   N                      000000000000                                                                   77133133                                                                                                                                                                                                                                                                                                                                                                                                                                               
00016920250550004DT67590675900000013300800102800000010180010276509753192900014609019071020230000001499119223000000000065763601100XXXXXX6274   BA00                  NY 4 07N753161757051437N840000000014991    00    01DNCBD8666317293            00778R    DS84000000014991 NDR549977133133070                         000000000+1015104910600   DCCDI11325333075  041505000000 000000000  0          460   0000000000000.00 0000000.00   0000000.00                             000000000000000                                                                                                                                                     01424  000000000000 0000000000003.14     02030 01000                  
00016930250550004DR675906759000000133008001028000000101                         Y                                                                                                                                                                                                                                                                                                                                                                                                                                                                                                                                                                                                                                           
00016940250550001G2675906759000000133008001028000000101866-6317293              GA           9 C                00                                      NNNN                          000000000000                         00000650975601179750000261                77133133                                                                                                                                                                                                                                                                                                                                                                                                                                               
00016950250550005DT67590675900000013300800102800000010180010287287283192900014609293071020230000002106219223000000000065763550883XXXXXX1508       ME03KE06MS02      NY 4607AMDSS7F52B0707  N840000000021062          81DNCBD8666317293            492770    MD84000000021062 NDR549977133133   E39776C45CT0A8830B27348  000000000+600450S00130    MDS  00401                     000000000  N                0000000000000.00 0000000.00   0000000.00                             000000000000000                                                                                                                                                   U001424  000000000000 0000000000003.63     01650 01500                  
00016960250550005DR675906759000000133008001028000000101E39776C45CT0A8830B27348  Y000000000000                                                                                                                                                                                                                                                                                                                                                                                                                                                                                                                                                                                                                               
00016970250550001G2675906759000000133008001028000000101866-6317293              GA           9 S               210                                      NNNN           210000000000000000000000000                        7                                          77133133                                                                                                                                                                                                                                                                                                                                                                                                                                               
00016980250550006DT67590675900000013300800102800000010180010287287283192900014609327071020230000001987019223000000000065763514582XXXXXX0404       ME03KE06MS02      NY 4607AMDJI4X41I0707  N840000000019870          81DNCBD8666317293            378263    MD84000000019870 NDR549977133133   8A61A3FDF0TF0138E5066C1  000000000+600450S00130    MDJ  00401                     000000000  N                0000000000000.00 0000000.00   0000000.00                             000000000000000                                                                                                                                                   U001424  000000000000 0000000000003.43     01650 01500                  
00016990250550006DR6759067590000001330080010280000001018A61A3FDF0TF0138E5066C1  Y000000000000                                                                                                                                                                                                                                                                                                                                                                                                                                                                                                                                                                                                                               
00017000250550001G2675906759000000133008001028000000101866-6317293              GA           9 J               210                                      NNNN           210000000000000000000000000                                                                   77133133                                                                                                                                                                                                                                                                                                                                                                                                                                               
00017010250550007DT67590675900000013300800102800000010180010224001193192900014609425071020230000002693419223000000000065763414720XXXXXX2748               2111111   NYV4 A7W463188852043576N840000000026934Z8XX00    01DNCBD8666317293            00134D    VS84000000026934 NDR549977133133   CD8D4DF566T43BD14D11260  000000000+                D CD 12109                     000000000  N000000000 498   0000000000000.00 0000000.00   0000000.00                             000000000000000                                                                                                                                                     01424 G000000026934 0000000000006.83     02500 01000                  
00017020250550007DR675906759000000133008001028000000101CD8D4DF566T43BD14D11260  Y000000026934                 P1                                                                                                                                                                                                                                                                                                                                                                                                                                                                                                                                                                                                            
00017030250550001P16759067590000001330080010280000001010000000000000000                             2000000000000000000000000              000000000000                    0000000000000000000000000                    000000000000                                                                                                                                                                                                                                                                                                                                                                                                                                                                                        
00017040250550002G2675906759000000133008001028000000101866-6317293              GA           9 C                00                                      NNNN   Y                      000000000000                                                                   77133133                                                                                                                                                                                                                                                                                                                                                                                                                                               
00017050250550008DT67590675900000013300800102800000010680010274001193192900014611723071120230000002126119223000000000065763474475XXXXXX4939               0000000   NYV4 07T583192180189009N840000000021261B5R200    01CNCBD8666317293            780572    VD84000000021261 NDR549977133133   617C3998F8T870BE2198573  000000000+                F DF 08168                     000000000  Y000000000 369   0000000000000.00 0000000.00   0000000.00                             000000000000000                                                                                                                                                     01424  000000021261 0000000000000.00     00000 00000                  
00017060250550008DR675906759000000133008001028000000106617C3998F8T870BE2198573  U000000021261                 P1                                                                                                                                                                                                                                                                                                                                                                                                                                                                                                                                                                                                            
00017070250550001P16759067590000001330080010280000001060000000000000000                             2000000000000000000000000              000000000000                    0000000000000000000000000                    000000000000                                                                                                                                                                                                                                                                                                                                                                                                                                                                                        
00017080250550002G2675906759000000133008001028000000106866-6317293              GA           9 D                00                                      NNNN   N                      000000000000                                                                   77133133                                                                                                                                                                                                                                                                                                                                                                                                                                               
00017090250550009DT67590675900000013300800102800000010680010274001193192900014611731071120230000000993519223000000000065763414734XXXXXX5125               0000000   NYV4 07T383192593605571N840000000009935872R00    01CNCBD8666317293            02223D    VS84000000009935 NDR549977133133   CC6132C8A3TAF27126AB388  000000000+                D CD 00245                     000000000  N000000000 166   0000000000000.00 0000000.00   0000000.00                             000000000000000                                                                                                                                                     01424  000000009935-0000000000001.75     01760 00000                  
00017100250550009DR675906759000000133008001028000000106CC6132C8A3TAF27126AB388  Y000000009935                 P1                                                                                                                                                                                                                                                                                                                                                                                                                                                                                                                                                                                                            
00017110250550001P16759067590000001330080010280000001060000000000000000                             2000000000000000000000000              000000000000                    0000000000000000000000000                    000000000000                                                                                                                                                                                                                                                                                                                                                                                                                                                                                        
00017120250550002G2675906759000000133008001028000000106866-6317293              GA           9 C                00                                      NNNN   Y                      000000000000                                                                   77133133                                                                                                                                                                                                                                                                                                                                                                                                                                               
00017130250550010DT67590675900000013300800102800000010680010287287283192900014611760071120230000000720919223000000000065763533362XXXXXX0862                         NY 4607AMDJE26AP30711  N840000000007209          81CNCBD8666317293            011249    MD84000000007209 NDR549977133133   9EBF9D6592T11B57C0C086E  000000000+600450S00130    MDJ  00560                     000000000  N                0000000000000.00 0000000.00   0000000.00                             000000000000000                                                                                                                                                     01424  000000000000 0000000000000.00     00000 00000                  
00017140250550010DR6759067590000001330080010280000001069EBF9D6592T11B57C0C086E  R000000000000                                                                                                                                                                                                                                                                                                                                                                                                                                                                                                                                                                                                                               
00017150250550001G2675906759000000133008001028000000106866-6317293              GA           9 J               210                                      NNNN           210000000000000000000000000                        7                                          77133133                                                                                                                                                                                                                                                                                                                                                                                                                                               
00017160250550011BH6759067590000001516480088880000090170711202319223000000000011948    0000090001349023Y8008886759C07122023134                                                                                                                                                                                                                                                                                                                                                                                                                                                                                                                                                                                              
00017170250550012DT67590675900000015164800888800000010180088824001193192900013490231071020230000001194819223000000000011948440066XXXXXX4365               2111111   NYV4 A7W583188807055378N8400000000119483TBX00    01DNKETOFUSION833-923-3587   09195D    VS84000000011948 NDR599977360677   B429A79CF8T583C9A10745F  000000000+                D CD 12109                     000000000  N000000000 498   0000000000000.00 0000000.00   0000000.00                             000000000000000                                                                                                                                                     01424 G000000011948 0000000000003.09     02500 01000                  
00017180250550012DR675906759000000151648008888000000101B429A79CF8T583C9A10745F  Y000000011948                 P1                                                                                                                                                                                                                                                                                                                                                                                                                                                                                                                                                                                                            
00017190250550001P16759067590000001516480088880000001010000000000000000                             2000000000000000000000000              000000000000                    0000000000000000000000000                    000000000000                                                                                                                                                                                                                                                                                                                                                                                                                                                                                        
00017200250550002G2675906759000000151648008888000000101801-4041097              UT           9 C                00                                      NNNN   Y                      000000000000                                                                   77360677                                                                                                                                                                                                                                                                                                                                                                                                                                               
00017210250550013BH6759067590000001619680010280000090170711202319223000000000084689    0000090001926860Y8001026759C07122023092                                                                                                                                                                                                                                                                                                                                                                                                                                                                                                                                                                                              
00017220250550014DT67590675900000016196800102800000010180010287287283192900019266123071020230000001987019223000000000084689549412XXXXXX9713       ME03KE06MS02      NY 4607AMCSISH2JF0707  N840000000019870          81DNGREEN OTTER LLC          634968    MC84000000019870 NDR549977424386   6B72C9257FTBCCA2E2A73BA  000000000+600450S00130    MCS  00013                     000000000  N                0000000000000.00 0000000.00   0000000.00                             000000000000000                                                                                                                                                   U001424  000000000000 0000000000003.97     01950 01000                  
00017230250550014DR6759067590000001619680010280000001016B72C9257FTBCCA2E2A73BA  N000000000000                                                                                                                                                                                                                                                                                                                                                                                                                                                                                                                                                                                                                               
00017240250550001G2675906759000000161968001028000000101866-6317293              GA           9 S               210                                      NNNN           210000000000000000000000000                                                                   77424386                                                                                                                                                                                                                                                                                                                                                                                                                                               
00017250250550015DT67590675900000016196800102800000010180010287287283192900019266131071020230000001307719223000000000084689527519XXXXXX0147       ME03KE06MS02      NY 4607AMDJHY7LXB0707  N840000000013077          81DNGREEN OTTER LLC          111004    MD84000000013077 NDR549977424386   BD486FED20T4B4884659C9E  000000000+600450S00130    MDJ  10813                     000000000  1                0000000000000.00 0000000.00   0000000.00                             000000000000000                                                                                                                                                   U001424  000000000000 0000000000000.29     00050 02200                  
00017260250550015DR675906759000000161968001028000000101BD486FED20T4B4884659C9E  Y000000000000                                                                                                                                                                                                                                                                                                                                                                                                                                                                                                                                                                                                                               
00017270250550001G2675906759000000161968001028000000101866-6317293              GA           9 J               210                                      NNNN           210000000000000000000000000                        7                                          77424386                                                                                                                                                                                                                                                                                                                                                                                                                                               
00017280250550016DT67590675900000016196800102800000010180010287287283192900019266149071020230000001499119223000000000084689548030XXXXXX3181       ME03KE06PT01      NY 4607AMCWTIXUXB0707  N840000000014991          81DNGREEN OTTER LLC          00723P    MC84000000014991 NDR549977424386   86AFD47AC5TC1BAD5732060  000000000+600450S00130    MCW  00642                     000000000  N                0000000000000.00 0000000.00   0000000.00                             000000000000000                                                                                                                                                   U001424  000000000000 0000000000003.40     02200 01000                  
00017290250550016DR67590675900000016196800102800000010186AFD47AC5TC1BAD5732060  Y000000000000                                                                                                                                                                                                                                                                                                                                                                                                                                                                                                                                                                                                                               
00017300250550001G2675906759000000161968001028000000101866-6317293              GA           9 W               210                                      NNNN           210000000000000000000000000                        7                                          77424386                                                                                                                                                                                                                                                                                                                                                                                                                                               
00017310250550017DT67590675900000016196800102800000010180010287287283192900019266271071020230000001589019223000000000084689515325XXXXXX3587       ME03KE06MS02      NY 4607AMDJSBYF5Z0707  N840000000015890          81DNGREEN OTTER LLC          565805    MD84000000015890 NDR549977424386   B4021B4CD3T57AF05058A24  000000000+600450S00130    MDJ  00401                     000000000  N                0000000000000.00 0000000.00   0000000.00                             000000000000000                                                                                                                                                   U001424  000000000000 0000000000002.77     01650 01500                  
00017320250550017DR675906759000000161968001028000000101B4021B4CD3T57AF05058A24  Y000000000000                                                                                                                                                                                                                                                                                                                                                                                                                                                                                                                                                                                                                               
00017330250550001G2675906759000000161968001028000000101866-6317293              GA           9 J               210                                      NNNN           210000000000000000000000000                                                                   77424386                                                                                                                                                                                                                                                                                                                                                                                                                                               
00017340250550018DT67590675900000016196800102800000010180010287287283192900019266370071020230000002667319223000000000084689534857XXXXXX6233                         NY 4607AMDBRINZ940707  N840000000026673          81DNGREEN OTTER LLC          131756    MD84000000026673 NDR549977424386                            000000000+600450S00130    MDB  10788                     000000000  1                0000000000000.00 0000000.00   0000000.00                             000000000000000                                                                                                                                                   U001424  000000000000 0000000000000.35     00050 02200                  
00017350250550018DR675906759000000161968001028000000101                         Y000000000000                 P1                                                                                                                                                                                                                                                                                                                                                                                                                                                                                                                                                                                                            
00017360250550001P1675906759000000161968001028000000101                                                 000001803000000000000          8000   000000000871584967            000000000000                                                                                                                                                                                                                                                                                                                                                                                                                                                                                                                                    
00017370250550002G2675906759000000161968001028000000101866-6317293              GA           9 B               210                  871584967           YNNN           210000000000000000000000000                        7                                          77424386                                                                                                                                                                                                                                                                                                                                                                                                                                               
00017380250550019DT67590675900000016196800102800000010180010287287283192900019266388071020230000002106219223000000000084689511208XXXXXX2947       ME03KE06MS02      NY 4607AMDJR0FM940707  N840000000021062          81DNGREEN OTTER LLC          385587    MD84000000021062 NDR549977424386   C829A5639BT74612ACC42F0  000000000+600450S00130    MDJ  00401                     000000000  N                0000000000000.00 0000000.00   0000000.00                             000000000000000                                                                                                                                                   U001424  000000000000 0000000000003.63     01650 01500                  
00017390250550019DR675906759000000161968001028000000101C829A5639BT74612ACC42F0  Y000000000000                                                                                                                                                                                                                                                                                                                                                                                                                                                                                                                                                                                                                               
00017400250550001G2675906759000000161968001028000000101866-6317293              GA           9 J               210                                      NNNN           210000000000000000000000000                        7                                          77424386                                                                                                                                                                                                                                                                                                                                                                                                                                               
00017410250550020DT67590675900000016196800102800000010180010224001193192900019266445071020230000001987019223000000000084689485157XXXXXX8906               2111111   NYV4 A7W383189006056608N840000000019870KH2D00    01DNGREEN OTTER LLC          004691    VS84000000019870 NDR549977424386   4502C86AC8T9DCDFAEF66AF  000000000+                A CA 12106                     000000000  N000000000 492   0000000000000.00 0000000.00   0000000.00                             000000000000000                                                                                                                                                     01424 G000000019870 0000000000003.86     01890 01000                  
00017420250550020DR6759067590000001619680010280000001014502C86AC8T9DCDFAEF66AF  N000000019870                 P1                                                                                                                                                                                                                                                                                                                                                                                                                                                                                                                                                                                                            
00017430250550001P16759067590000001619680010280000001010000000000000000                             2000000000000000000000000              000000000000                    0000000000000000000000000                    000000000000                                                                                                                                                                                                                                                                                                                                                                                                                                                                                        
00017440250550002G2675906759000000161968001028000000101866-6317293              GA           9 C                00                                      NNNN   N                      000000000000                                                                   77424386                                                                                                                                                                                                                                                                                                                                                                                                                                               
00017450250550021DT67590675900000016196800102800000010180010287287283192900019266453071020230000001493619223000000000084689512992XXXXXX2316       ME03KE06MS02      NY 4607AMDJVNV5940707  N840000000014936          81DNGREEN OTTER LLC          307677    MD84000000014936 NDR549977424386   98240F4F01TED3BD2992035  000000000+600450S00130    MDJ  10813                     000000000  1                0000000000000.00 0000000.00   0000000.00                             000000000000000                                                                                                                                                   U001424  000000000000 0000000000000.29     00050 02200                  
00017460250550021DR67590675900000016196800102800000010198240F4F01TED3BD2992035  Y000000000000                                                                                                                                                                                                                                                                                                                                                                                                                                                                                                                                                                                                                               
00017470250550001G2675906759000000161968001028000000101866-6317293              GA           9 J               210                                      NNNN           210000000000000000000000000                        7                                          77424386                                                                                                                                                                                                                                                                                                                                                                                                                                               
00017480250550022DT67590675900000016196800102800000010180010224001193192900019266528071020230000001200819223000000000084689436618XXXXXX9019               2111111   NYV4 A7W583189048058323N8400000000120087RZD00    01DNGREEN OTTER LLC          000448    VD84000000012008 NDR549977424386   B53541B846T86699B616121  000000000+                F DF 10420                     000000000  Y000000000 338   0000000000000.00 0000000.00   0000000.00                             000000000000000                                                                                                                                                     01424 G000000012008 0000000000000.28     00050 02200                  
00017490250550022DR675906759000000161968001028000000101B53541B846T86699B616121  Y000000012008                 P1                                                                                                                                                                                                                                                                                                                                                                                                                                                                                                                                                                                                            
00017500250550001P16759067590000001619680010280000001010000000000000000                             2000000000000000000000000              000000000000                    0000000000000000000000000                    000000000000                                                                                                                                                                                                                                                                                                                                                                                                                                                                                        
00017510250550002G2675906759000000161968001028000000101866-6317293              GA           9 D                00                                      NNNN   N                      000000000000                                                                   77424386                                                                                                                                                                                                                                                                                                                                                                                                                                               
00017520250550023DT67590675900000016196800102800000010180010224001193192900019266593071020230000001311319223000000000084689444796XXXXXX7661               2111111   NYV4 A7W463189120045398N84000000001311382TL00    01DNGREEN OTTER LLC          007175    VS84000000013113 NDR549977424386   9794413BB1TADCF370401D4  000000000+                A CA 12106                     000000000  N000000000 492   0000000000000.00 0000000.00   0000000.00                             000000000000000                                                                                                                                                     01424 G000000013113 0000000000002.58     01890 01000                  
00017530250550023DR6759067590000001619680010280000001019794413BB1TADCF370401D4  Y000000013113                 P1                                                                                                                                                                                                                                                                                                                                                                                                                                                                                                                                                                                                            
00017540250550001P16759067590000001619680010280000001010000000000000000                             2000000000000000000000000              000000000000                    0000000000000000000000000                    000000000000                                                                                                                                                                                                                                                                                                                                                                                                                                                                                        
00017550250550002G2675906759000000161968001028000000101866-6317293              GA           9 C                00                                      NNNN   N                      000000000000                                                                   77424386                                                                                                                                                                                                                                                                                                                                                                                                                                               
00017560250550024DT67590675900000016196800102800000010180010287287283192900019268558071120230000001506619223000000000084689521131XXXXXX6929       ME03KE06MS02      NY 4607AMWESBK87X0711  N840000000015066          81DNGREEN OTTER LLC          02738Z    MC84000000015066 NDR549977424386   9448514C59TBD853C8D3E0A  000000000+600450S00130    MWE  00737                     000000000  N                0000000000000.00 0000000.00   0000000.00                             000000000000000                                                                                                                                                   U001424  000000000000 0000000000004.02     02600 01000                  
00017570250550024DR6759067590000001619680010280000001019448514C59TBD853C8D3E0A  Y000000000000                                                                                                                                                                                                                                                                                                                                                                                                                                                                                                                                                                                                                               
00017580250550001G2675906759000000161968001028000000101866-6317293              GA           9 E               210                                      NNNN           210000000000000000000000000                        7                                          77424386                                                                                                                                                                                                                                                                                                                                                                                                                                               
00017590250550025DT67590675900000016196800102800000010680010287287283192900019268566071120230000002704619223000000000084689546234XXXXXX0057                         NY 4607AMDSB2Y69O0711  N840000000027046          81CNGREEN OTTER LLC          011244    MD84000000027046 NDR549977424386   38F6B167F6TBE78128AC8E3  000000000+600450S00130    MDS  00560                     000000000  N                0000000000000.00 0000000.00   0000000.00                             000000000000000                                                                                                                                                     01424  000000000000 0000000000000.00     00000 00000                  
00017600250550025DR67590675900000016196800102800000010638F6B167F6TBE78128AC8E3  R000000000000                                                                                                                                                                                                                                                                                                                                                                                                                                                                                                                                                                                                                               
00017610250550001G2675906759000000161968001028000000106866-6317293              GA           9 S               210                                      NNNN           210000000000000000000000000                        7                                          77424386                                                                                                                                                                                                                                                                                                                                                                                                                                               
00017620250550026DT67590675900000016196800102800000010680010287287283192900019268574071120230000002395419223000000000084689521870XXXXXX0865                         NY 4607AMDJA5YW0L0711  N840000000023954          81CNGREEN OTTER LLC          000114    MD84000000023954 NDR549977424386   E1E874B400T88754A2EDC2C  000000000+600450S00130    MDJ  00560                     000000000  N                0000000000000.00 0000000.00   0000000.00                             000000000000000                                                                                                                                                     01424  000000000000 0000000000000.00     00000 00000                  
00017630250550026DR675906759000000161968001028000000106E1E874B400T88754A2EDC2C  Y000000000000                                                                                                                                                                                                                                                                                                                                                                                                                                                                                                                                                                                                                               
00017640250550001G2675906759000000161968001028000000106866-6317293              GA           9 J               210                                      NNNN           210000000000000000000000000                                                                   77424386                                                                                                                                                                                                                                                                                                                                                                                                                                               
00017650250550027DT67590675900000016196800102800000010680010274001193192900019268586071120230000002106219223000000000084689400022XXXXXX2288               0000000   NYV4 07T463192654820353N840000000021062H7MZ00    01CNGREEN OTTER LLC          427599    VD84000000021062 NDR549977424386   5E0F7C4AEBT85B517176C97  000000000+                F DF 08168                     000000000  Y000000000 369   0000000000000.00 0000000.00   0000000.00                             000000000000000                                                                                                                                                     01424  000000021062 0000000000000.00     00000 00000                  
00017660250550027DR6759067590000001619680010280000001065E0F7C4AEBT85B517176C97  N000000021062                 P1                                                                                                                                                                                                                                                                                                                                                                                                                                                                                                                                                                                                            
00017670250550001P16759067590000001619680010280000001060000000000000000                             2000000000000000000000000              000000000000                    0000000000000000000000000                    000000000000                                                                                                                                                                                                                                                                                                                                                                                                                                                                                        
00017680250550002G2675906759000000161968001028000000106866-6317293              GA           9 D                00                                      NNNN   N                      000000000000                                                                   77424386                                                                                                                                                                                                                                                                                                                                                                                                                                               
00017690250550028DT67590675900000016196800102800000010680010287287283192900019268590071120230000001987019223000000000084689540324XXXXXX8419                         NY 4607AMDJMVX7160711  N840000000019870          81CNGREEN OTTER LLC          011195    MD84000000019870 NDR549977424386   D86EF116D8T6F79D822B88D  000000000+600450S00130    MDJ  10828                     000000000  1                0000000000000.00 0000000.00   0000000.00                             000000000000000                                                                                                                                                     01424  000000000000 0000000000000.00     00000 00000                  
00017700250550028DR675906759000000161968001028000000106D86EF116D8T6F79D822B88D  R000000000000                                                                                                                                                                                                                                                                                                                                                                                                                                                                                                                                                                                                                               
00017710250550001G2675906759000000161968001028000000106866-6317293              GA           9 J               210                                      NNNN           210000000000000000000000000                        7                                          77424386                                                                                                                                                                                                                                                                                                                                                                                                                                               
00017720250550029DT67590675900000016196800102800000010680010274001193192900019268602071120230000000993519223000000000084689481582XXXXXX7526               0000000   NYV4 07T583192706480143N840000000009935XJJB00    01CNGREEN OTTER LLC          162843    VD84000000009935 NDR549977424386   B2B5C1B6CCT6DBE16C0412F  000000000+                F DF 08168                     000000000  Y000000000 369   0000000000000.00 0000000.00   0000000.00                             000000000000000                                                                                                                                                     01424  000000009935 0000000000000.00     00000 00000                  
00017730250550029DR675906759000000161968001028000000106B2B5C1B6CCT6DBE16C0412F  U000000009935                 P1                                                                                                                                                                                                                                                                                                                                                                                                                                                                                                                                                                                                            
00017740250550001P16759067590000001619680010280000001060000000000000000                             2000000000000000000000000              000000000000                    0000000000000000000000000                    000000000000                                                                                                                                                                                                                                                                                                                                                                                                                                                                                        
00017750250550002G2675906759000000161968001028000000106866-6317293              GA           9 D                00                                      NNNN   N                      000000000000                                                                   77424386                                                                                                                                                                                                                                                                                                                                                                                                                                               
00017760250550030BH6759067590000000288180088880000090170711202319223000000000014724    0000090001610322Y8008886759C07122023161                                                                                                                                                                                                                                                                                                                                                                                                                                                                                                                                                                                              
00017770250550031DT67590675900000002881800888800000010180088887287283192900016103196071120230000000685619223000000000014724521844XXXXXX9918       ME03KE06MS02      NY 4607AMDJPG5M160711  N840000000006856          81DNHAPPY HIPPIE             960733    MD84000000006856 NDR549976044904   2139                     000000000+600450S00130    MDJ  00401                     000000000  N                0000000000000.00 0000000.00   0000000.00                             000000000000000                                                                                                                                                     01424  000000000000 0000000000001.28     01650 01500                  
00017780250550031DR6759067590000000288180088880000001012139                     Y000000000000                                                                                                                                                                                                                                                                                                                                                                                                                                                                                                                                                                                                                               
00017790250550001G2675906759000000028818008888000000101865-3663142              TN           9 J               210                                      NNNN           210000000000000000000000000                        7                                          76044904                                                                                                                                                                                                                                                                                                                                                                                                                                               
00017800250550032DT67590675900000002881800888800000010180088887287283192900016103204071120230000000338219223000000000014724544544XXXXXX7290       ME03KE06MS02      NY 4607AMPMTC85160711  N840000000003382          81DNHAPPY HIPPIE             011908    MD84000000003382 NDR549976044904   2140                     000000000+600450S00130    MPM  09899                     000000000  N                0000000000000.00 0000000.00   0000000.00                             000000000000000                                                                                                                                                   U001424  000000000000 0000000000000.80     01760 02000                  
00017810250550032DR6759067590000000288180088880000001012140                     Z000000000000                                                                                                                                                                                                                                                                                                                                                                                                                                                                                                                                                                                                                               
00017820250550001G2675906759000000028818008888000000101865-3663142              TN           9 M               210                                      NNNN           210000000000000000000000000                                                                   76044904                                                                                                                                                                                                                                                                                                                                                                                                                                               
00017830250550033DT67590675900000002881800888800000010180088824001193192900016103229071120230000000448619223000000000014724459954XXXXXX0121               2111111   NYV4 A7W303192703188965N840000000004486SG2P00    01DNHAPPY HIPPIE             H47697    VD84000000004486 NDR549976044904   2142                     000000000+                F DF 10420                     000000000  Y000000000 338   0000000000000.00 0000000.00   0000000.00                             000000000000000                                                                                                                                                     01424 G000000004486 0000000000000.24     00050 02200                  
00017840250550033DR6759067590000000288180088880000001012142                     Y000000004486                 P1                                                                                                                                                                                                                                                                                                                                                                                                                                                                                                                                                                                                            
00017850250550001P16759067590000000288180088880000001010000000000000000                             2000000000000000000000000              000000000000                    0000000000000000000000000                    000000000000                                                                                                                                                                                                                                                                                                                                                                                                                                                                                        
00017860250550002G2675906759000000028818008888000000101865-3663142              TN           9 D                00                                      NNNN   N                      000000000000                                                                   76044904                                                                                                                                                                                                                                                                                                                                                                                                                                               
00017870250550034BH6759067590000000370780088880000090170711202319223000000000062681    0000090001361230Y8008886759C07122023136                                                                                                                                                                                                                                                                                                                                                                                                                                                                                                                                                                                              
00017880250550035DT67590675900000003707800888800000010180088824001193192900013612214071020230000001700019223000000000062681414740XXXXXX5614               2111111   NYV4 A7W303192062486619N840000000017000Q4CF00    01DNMR HEMP FLOWER           02264D    VS84000000017000 NDR549976053336   91956                    000000000+                D CD 12109                     000000000  N000000000 498   0000000000000.00 0000000.00   0000000.00                             000000000000000                                                                                                                                                     01424 G000000017000 0000000000004.35     02500 01000                  
00017890250550035DR67590675900000003707800888800000010191956                    Y000000017000                 P1                                                                                                                                                                                                                                                                                                                                                                                                                                                                                                                                                                                                            
00017900250550001P16759067590000000370780088880000001010000000000000000                             2000000000000000000000000              000000000000                    0000000000000000000000000                    000000000000                                                                                                                                                                                                                                                                                                                                                                                                                                                                                        
00017910250550002G2675906759000000037078008888000000101833-3877579              FL           9 C                00                                      NNNN   Y                      000000000000                                                                   76053336                                                                                                                                                                                                                                                                                                                                                                                                                                               
00017920250550036DT67590675900000003707800888800000010180088824001193192900013612222071120230000000179819223000000000062681403623XXXXXX6031               2111111   NYV4 A7W463192514303362N840000000001798PDND00    01DNMR HEMP FLOWER           076895    VD84000000001798 NDR549976053336   91961                    000000000+                G DG 10352                     000000000  Y000000000 338   0000000000000.00 0000000.00   0000000.00                             000000000000000                                                                                                                                                     01424 G000000001798 0000000000000.23     00050 02200                  
00017930250550036DR67590675900000003707800888800000010191961                    Y000000001798                 P1                                                                                                                                                                                                                                                                                                                                                                                                                                                                                                                                                                                                            
00017940250550001P16759067590000000370780088880000001010000000000000000                             2000000000000000000000000              000000000000                    0000000000000000000000000                    000000000000                                                                                                                                                                                                                                                                                                                                                                                                                                                                                        
00017950250550002G2675906759000000037078008888000000101833-3877579              FL           9 D                00                                      NNNN   N                      000000000000                                                                   76053336                                                                                                                                                                                                                                                                                                                                                                                                                                               
00017960250550037DT67590675900000003707800888800000010180088887287283192900013612231071120230000000454819223000000000062681545750XXXXXX9155       ME03KE06MS02      NY 4607AMDSF8DP9O0711  N840000000004548          81DNMR HEMP FLOWER           337232    MD84000000004548 NDR549976053336   838                      000000000+600450S00130    MDS  00401                     000000000  N                0000000000000.00 0000000.00   0000000.00                             000000000000000                                                                                                                                                   U001424  000000000000 0000000000000.90     01650 01500                  
00017970250550037DR675906759000000037078008888000000101838                      Z000000000000                                                                                                                                                                                                                                                                                                                                                                                                                                                                                                                                                                                                                               
00017980250550001G2675906759000000037078008888000000101833-3877579              FL           9 S               210                                      NNNN           210000000000000000000000000                        7                                          76053336                                                                                                                                                                                                                                                                                                                                                                                                                                               
00017990250550038DT67590675900000003707800888800000010180088824001193192900013612248071120230000000109919223000000000062681441852XXXXXX4950               2111111   NYV4 A7W303192524165988N840000000001099XN7700    01DNMR HEMP FLOWER           011999    VS84000000001099 NDR549976053336   91962                    000000000+                A CA 12106                     000000000  N000000000 492   0000000000000.00 0000000.00   0000000.00                             000000000000000                                                                                                                                                     01424 G000000001099 0000000000000.31     01890 01000                  
00018000250550038DR67590675900000003707800888800000010191962                    Y000000001099                 P1                                                                                                                                                                                                                                                                                                                                                                                                                                                                                                                                                                                                            
00018010250550001P16759067590000000370780088880000001010000000000000000                             2000000000000000000000000              000000000000                    0000000000000000000000000                    000000000000                                                                                                                                                                                                                                                                                                                                                                                                                                                                                        
00018020250550002G2675906759000000037078008888000000101833-3877579              FL           9 C                00                                      NNNN   N                      000000000000                                                                   76053336                                                                                                                                                                                                                                                                                                                                                                                                                                               
00018030250550039DT67590675900000003707800888800000010180088824001193192900013612255071120230000001029919223000000000062681468405XXXXXX0285               2111111   NYV4 A7W583192527808326N8400000000102995DTT00    01DNMR HEMP FLOWER           08234B    VS84000000010299 NDR549976053336   91963                    000000000+                B CB 12107                     000000000  N000000000 494   0000000000000.00 0000000.00   0000000.00                             000000000000000                                                                                                                                                     01424 G000000010299 0000000000002.20     02040 01000                  
00018040250550039DR67590675900000003707800888800000010191963                    Y000000010299                 P1                                                                                                                                                                                                                                                                                                                                                                                                                                                                                                                                                                                                            
00018050250550001P16759067590000000370780088880000001010000000000000000                             2000000000000000000000000              000000000000                    0000000000000000000000000                    000000000000                                                                                                                                                                                                                                                                                                                                                                                                                                                                                        
00018060250550002G2675906759000000037078008888000000101833-3877579              FL           9 C                00                                      NNNN   Y                      000000000000                                                                   76053336                                                                                                                                                                                                                                                                                                                                                                                                                                               
00018070250550040DT67590675900000003707800888800000010180088824001193192900013612263071120230000000293919223000000000062681410039XXXXXX8260               2111111   NYV4 A7W303192647411494N840000000002939PWFG00    01DNMR HEMP FLOWER           68320D    VS84000000002939 NDR549976053336   839                      000000000+                D CD 12109                     000000000  N000000000 498   0000000000000.00 0000000.00   0000000.00                             000000000000000                                                                                                                                                     01424 G000000002939 0000000000000.83     02500 01000                  
00018080250550040DR675906759000000037078008888000000101839                      Y000000002939                 P1                                                                                                                                                                                                                                                                                                                                                                                                                                                                                                                                                                                                            
00018090250550001P16759067590000000370780088880000001010000000000000000                             2000000000000000000000000              000000000000                    0000000000000000000000000                    000000000000                                                                                                                                                                                                                                                                                                                                                                                                                                                                                        
00018100250550002G2675906759000000037078008888000000101833-3877579              FL           9 C                00                                      NNNN   Y                      000000000000                                                                   76053336                                                                                                                                                                                                                                                                                                                                                                                                                                               
00018110250550041DT67590675900000003707800888800000010180088824001193192900013612289071120230000001200019223000000000062681414718XXXXXX0599               2111111   NYV4 A7W303192809841592N840000000012000CVQB00    01DNMR HEMP FLOWER           011664    VS84000000012000 NDR549976053336   91973                    000000000+                A CA 12106                     000000000  N000000000 492   0000000000000.00 0000000.00   0000000.00                             000000000000000                                                                                                                                                     01424 G000000012000 0000000000002.37     01890 01000                  
00018120250550041DR67590675900000003707800888800000010191973                    Y000000012000                 P1                                                                                                                                                                                                                                                                                                                                                                                                                                                                                                                                                                                                            
00018130250550001P16759067590000000370780088880000001010000000000000000                             2000000000000000000000000              000000000000                    0000000000000000000000000                    000000000000                                                                                                                                                                                                                                                                                                                                                                                                                                                                                        
00018140250550002G2675906759000000037078008888000000101833-3877579              FL           9 C                00                                      NNNN   Y                      000000000000                                                                   76053336                                                                                                                                                                                                                                                                                                                                                                                                                                               
00018150250550042DT67590675900000003707800888800000010180088887287283192900013612306071120230000001299819223000000000062681529107XXXXXX8967       ME03KE06PT01      NY 4607AMCWHC4UCJ0711  N840000000012998          81DNMR HEMP FLOWER           04490P    MC84000000012998 NDR549976053336   91974                    000000000+600450S00130    MCW  00642                     000000000  N                0000000000000.00 0000000.00   0000000.00                             000000000000000                                                                                                                                                   U001424  000000000000 0000000000002.96     02200 01000                  
00018160250550042DR67590675900000003707800888800000010191974                    Y000000000000                                                                                                                                                                                                                                                                                                                                                                                                                                                                                                                                                                                                                               
00018170250550001G2675906759000000037078008888000000101833-3877579              FL           9 W               210                                      NNNN           210000000000000000000000000                        7                                          76053336                                                                                                                                                                                                                                                                                                                                                                                                                                               
00018180250550043BH6759067590000001427480010280000090170711202319223000000000050893    0000090001469810Y8001026759C07122023146                                                                                                                                                                                                                                                                                                                                                                                                                                                                                                                                                                                              
00018190250550044DT67590675900000014274800102800000010180010224001193192900014695267071020230000002141019223000000000050893402347XXXXXX0252               2111111   NYV4 A7W303188348057092N840000000021410LKMM00    01DNCBD8666317293            034006    VD84000000021410 NDR549977145232   129FF2A405TA18B362D3620  000000000+                F DF 10420                     000000000  Y000000000 338   0000000000000.00 0000000.00   0000000.00                             000000000000000                                                                                                                                                     01424 G000000021410 0000000000000.33     00050 02200                  
00018200250550044DR675906759000000142748001028000000101129FF2A405TA18B362D3620  Y000000021410                 P1                                                                                                                                                                                                                                                                                                                                                                                                                                                                                                                                                                                                            
00018210250550001P16759067590000001427480010280000001010000000000000000                             2000000000000000000000000              000000000000                    0000000000000000000000000                    000000000000                                                                                                                                                                                                                                                                                                                                                                                                                                                                                        
00018220250550002G2675906759000000142748001028000000101866-6317293              GA           9 D                00                                      NNNN   N                      000000000000                                                                   77145232                                                                                                                                                                                                                                                                                                                                                                                                                                               
00018230250550045DT67590675900000014274800102800000010180010224001193192900014695911071020230000001925019223000000000050893418940XXXXXX4450               2111111   NYV4 A7W583188750041153N840000000019250NHRJ00    01DNCBD8666317293            VSAO62    VS84000000019250 NDR549977145232   142B93DD37TF0678DC095BF  000000000+                B CB 12107                     000000000  N000000000 494   0000000000000.00 0000000.00   0000000.00                             000000000000000                                                                                                                                                     01424 G000000019250 0000000000004.03     02040 01000                  
00018240250550045DR675906759000000142748001028000000101142B93DD37TF0678DC095BF  Z000000019250                 P1                                                                                                                                                                                                                                                                                                                                                                                                                                                                                                                                                                                                            
00018250250550001P16759067590000001427480010280000001010000000000000000                             2000000000000000000000000              000000000000                    0000000000000000000000000                    000000000000                                                                                                                                                                                                                                                                                                                                                                                                                                                                                        
00018260250550002G2675906759000000142748001028000000101866-6317293              GA           9 C                00                                      NNNN   N                      000000000000                                                                   77145232                                                                                                                                                                                                                                                                                                                                                                                                                                               
00018270250550046DT67590675900000014274800102800000010180010273011003192900014695982071020230000001400819223000000000050893371556XXXXX4007                          NY 4 07N005663001231307N840000000014008          01DNCBD8666317293            220643    AM84000000014008 Y  549977145232                            000000000+6004S0S00130 258     11262                     000000000                   0000000000000.00 0000000.00   0000000.00                             000000000000000 61248972086759675900000014274 CBD8666317293            2993 SANDY PLAINS RD STE 6787614584      30066     EMORRIS@GREENOTTERCBD.COM                 01324  000000000000 0000000000002.83     01950 00000                  
00018280250550001G2675906759000000142748001028000000101MARIETTA                 GA           9                  00                                      NNNN                          000000000000                                                                   77145232                                                                                                                                                                                                                                                                                                                                                                                                                                               
