03291440167280002BH6759067590000000288180088880000090170505202312523000000000020726    0000090001120221Y8008886759C05082023                                                                                                                                                                                                                                                                                                                                                                                                                                                                                                                                                                                                 
03291450167280003DT67590675900000002881800888800000010180088824001193125900011202192050420230000000548612523000000000020726415978XXXXXX5430               2111111   NYV4 A7W303125058223191N840000000005486LQWT00    01DNHAPPY HIPPIE             047596    VD84000000005486 NP1549976044904   2034                     000000000+                F DF 10420                     000000000  Y000000000 338   0000000000000.00 0000000.00   0000000.00                             000000000000000                                                                                                                                                     01424 G000000005486 0000000000000.25     00050 02200                  
03291460167280001P16759067590000000288180088880000001010000000000000000                             2000000000000000000000000              000000000000                    0000000000000000000000000                    000000000000                                                                                                                                                                                                                                                                                                                                                                                                                                                                                        
03291470167280004DT67590675900000002881800888800000010180088824001193125900011202200050520230000000724112523000000000020726419090XXXXXX5887               2111111   NYV4 A7W303125272269920N84000000000724175QG00    01DNHAPPY HIPPIE             865499    VD84000000007241 NP1549976044904   2035                     000000000+                F DF 00415                     000000000  N000000000       0000000000000.00 0000000.00   0000000.00                             000000000000000                                                                                                                                                     01424 G000000007241 0000000000001.34     01650 01500                  
03291480167280001P16759067590000000288180088880000001010000000000000000                             2000000000000000000000000              000000000000                    0000000000000000000000000                    000000000000                                                                                                                                                                                                                                                                                                                                                                                                                                                                                        
03291490167280005DT67590675900000002881800888800000010180088824001193125900011202218050520230000000799912523000000000020726461675XXXXXX1666               2111111   NYV4 A7W383125857726106N8400000000079998DC900    01DNHAPPY HIPPIE             763140    VD84000000007999 NP1549976044904   2036                     000000000+                F DF 00415                     000000000  N000000000       0000000000000.00 0000000.00   0000000.00                             000000000000000                                                                                                                                                     01424 G000000007999 0000000000001.47     01650 01500                  
03291500167280001P16759067590000000288180088880000001010000000000000000                             2000000000000000000000000              000000000000                    0000000000000000000000000                    000000000000                                                                                                                                                                                                                                                                                                                                                                                                                                                                                        
03291510167280006BH6759067590000001767380010680000090170505202312523000000000119843    0000090001391589Y8001066759C05082023                                                                                                                                                                                                                                                                                                                                                                                                                                                                                                                                                                                                 
03291520167280007DT67590675900000017673800106800000010180010687287283125900013915511050520230000002178912523000000000119843542539XXXXXX7359       ME03KE06MS02      NY 4607AMPLEHJPP40505  N840000000021789          81DNVGHEMP.COM833-246-5225   005178    MC84000000021789 N  549977427364   386E34CE58T2B3109AA08E0  000000000+600450S00130    MPL  00013                     000000000  N                0000000000000.00 0000000.00   0000000.00                             000000000000000                                                                                                                                                   U001424  000000000000 0000000000004.35     01950 01000                  
03291530167280008DT67590675900000017673800106800000010180010687287283125900013915529050520230000000544912523000000000119843542539XXXXXX7359       ME03KE06MS02      NY 4607AMPLINN0EF0505  N840000000005449          81DNVGHEMP.COM833-246-5225   005225    MC84000000005449 N  549977427364   386E34CE58TF8B7AFDF2C19  000000000+600450S00130    MPL  00013                     000000000  N                0000000000000.00 0000000.00   0000000.00                             000000000000000                                                                                                                                                   U001424  000000000000 0000000000001.16     01950 01000                  
03291540167280009DT67590675900000017673800106800000010180010687287283125900013915537050520230000002178912523000000000119843517546XXXXXX0007       ME03KE06MS02      NY 4607AMDJCZG5D50505  N840000000021789          81DNVGHEMP.COM833-246-5225   005272    MD84000000021789 N  549977427364   F86622B7C7TD8CBCD7269F6  000000000+600450S00130    MDJ  10813                     000000000  1                0000000000000.00 0000000.00   0000000.00                             000000000000000                                                                                                                                                   U001424  000000000000 0000000000000.33     00050 02200                  
03291550167280010DT67590675900000017673800106800000010180010624001193125900013915577050520230000002178912523000000000119843414778XXXXXX0687               2111111   NYV4 A7W303125414153923N840000000021789X9X600    01DNVGHEMP.COM833-246-5225   605003    VS84000000021789 NP1549977427364   7F796486E9T54B4EA1114E7  000000000+                C CC 12108                     000000000  N000000000 496   0000000000000.00 0000000.00   0000000.00                             000000000000000                                                                                                                                                     01424 G000000021789 0000000000004.57     02050 01000                  
03291560167280001P16759067590000001767380010680000001010000000000000000                             2000000000000000000000000              000000000000                    0000000000000000000000000                    000000000000                                                                                                                                                                                                                                                                                                                                                                                                                                                                                        
03291570167280011DT67590675900000017673800106800000010180010624001193125900013915585050520230000000544912523000000000119843414778XXXXXX0687               2111111   NYV4 A7W383125414494932N840000000005449M36Z00    01DNVGHEMP.COM833-246-5225   605003    VS84000000005449 NP1549977427364   7F796486E9T908F6B3E4AFD  000000000+                C CC 12108                     000000000  N000000000 496   0000000000000.00 0000000.00   0000000.00                             000000000000000                                                                                                                                                     01424 G000000005449 0000000000001.22     02050 01000                  
03291580167280001P16759067590000001767380010680000001010000000000000000                             2000000000000000000000000              000000000000                    0000000000000000000000000                    000000000000                                                                                                                                                                                                                                                                                                                                                                                                                                                                                        
03291590167280012DT67590675900000017673800106800000010180010687287283125900013915636050520230000002178912523000000000119843559460XXXXXX8069       ME03KE06MS02      NY 4607AMDJAJE1RW0505  N840000000021789          81DNVGHEMP.COM833-246-5225   462509    MD84000000021789 N  549977427364   EB5B4A3F4ATC9840A3497C5  000000000+600450S00130    MDJ  10813                     000000000  1                0000000000000.00 0000000.00   0000000.00                             000000000000000                                                                                                                                                   U001424  000000000000 0000000000000.33     00050 02200                  
03291600167280013DT67590675900000017673800106800000010180010624001193125900013915890050520230000002178912523000000000119843431307XXXXXX8954               2111111   NYV4 A7W463125760890078N8400000000217896HNS00    01DNVGHEMP.COM833-246-5225   07187D    VS84000000021789 NP1549977427364   D2A860ECE0TEA96E15B74A5  000000000+                D CD 12109                     000000000  N000000000 498   0000000000000.00 0000000.00   0000000.00                             000000000000000                                                                                                                                                     01424 G000000021789 0000000000005.55     02500 01000                  
03291610167280001P16759067590000001767380010680000001010000000000000000                             2000000000000000000000000              000000000000                    0000000000000000000000000                    000000000000                                                                                                                                                                                                                                                                                                                                                                                                                                                                                        
03291620167280014BH6759067590000001516480088880000090170505202312523000000000463461    0000090001696779Y8008886759C05082023                                                                                                                                                                                                                                                                                                                                                                                                                                                                                                                                                                                                 
03291630167280015DT67590675900000015164800888800000010180088824001193125900016962048050420230000002487012523000000000463461412174XXXXXX3172               2111111   NYV4 A7W583121162069836N840000000024870MKTX00    01DNKETOFUSION833-923-3587   00195D    VS84000000024870 NP1599977360677   C2A55A4210T78E6A42C3264  000000000+                D CD 12109                     000000000  N000000000 498   0000000000000.00 0000000.00   0000000.00                             000000000000000                                                                                                                                                     01424 G000000024870 0000000000006.32     02500 01000                  
03291640167280001P16759067590000001516480088880000001010000000000000000                             2000000000000000000000000              000000000000                    0000000000000000000000000                    000000000000                                                                                                                                                                                                                                                                                                                                                                                                                                                                                        
03291650167280016DT67590675900000015164800888800000010180088887287283125900016962056050420230000002487012523000000000463461520738XXXXXX5612       ME03KE06MS02      NY 4607AMPLYG0NE30430  N840000000024870          81DNKETOFUSION833-923-3587   030567    MC84000000024870 N  599977360677   88B93D66D7TC929564E73D6  000000000+600450S00130    MPL  00013                     000000000  N                0000000000000.00 0000000.00   0000000.00                             000000000000000                                                                                                                                                   U001424  000000000000 0000000000004.95     01950 01000                  
03291660167280017DT67590675900000015164800888800000010180088887287283125900016962064050420230000001394812523000000000463461546616XXXXXX2587       ME03KE06PT01      NY 4607AMCWFG7PNN0430  N840000000013948          81DNKETOFUSION833-923-3587   73030Z    MC84000000013948 N  599977360677   9FFFF72050T79B6DE9531A2  000000000+600450S00130    MCW  00642                     000000000  N                0000000000000.00 0000000.00   0000000.00                             000000000000000                                                                                                                                                   U001424  000000000000 0000000000003.17     02200 01000                  
03291670167280018DT67590675900000015164800888800000010180088887287283125900016962106050420230000002487012523000000000463461524366XXXXXX3302       ME03KE06PT01      NY 4607AMCWHR4BSY0501  N840000000024870          81DNKETOFUSION833-923-3587   00189P    MC84000000024870 N  599977360677   AC6BE6B18ET2835A18FB484  000000000+600450S00130    MCW  00642                     000000000  N                0000000000000.00 0000000.00   0000000.00                             000000000000000                                                                                                                                                   U001424  000000000000 0000000000005.57     02200 01000                  
03291680167280019DT67590675900000015164800888800000010180088824001193125900016962170050420230000001987012523000000000463461410039XXXXXX7970               2111111   NYV4 A7W583121402097950N840000000019870VLCL00    01DNKETOFUSION833-923-3587   11459D    VS84000000019870 NP1599977360677   B75BC3AB74T9D1222D6FD6A  000000000+                D CD 12109                     000000000  N000000000 498   0000000000000.00 0000000.00   0000000.00                             000000000000000                                                                                                                                                     01424 G000000019870 0000000000005.07     02500 01000                  
03291690167280001P16759067590000001516480088880000001010000000000000000                             2000000000000000000000000              000000000000                    0000000000000000000000000                    000000000000                                                                                                                                                                                                                                                                                                                                                                                                                                                                                        
03291700167280020DT67590675900000015164800888800000010180088824001193125900016962212050420230000001799112523000000000463461414734XXXXXX1957               2111111   NYV4 A7W583121405210738N8400000000179913XTS00    01DNKETOFUSION833-923-3587   09950D    VS84000000017991 NP1599977360677   B06FA67540T7998DB872507  000000000+                D CD 12109                     000000000  N000000000 498   0000000000000.00 0000000.00   0000000.00                             000000000000000                                                                                                                                                     01424 G000000017991 0000000000004.60     02500 01000                  
03291710167280001P16759067590000001516480088880000001010000000000000000                             2000000000000000000000000              000000000000                    0000000000000000000000000                    000000000000                                                                                                                                                                                                                                                                                                                                                                                                                                                                                        
03291720167280021DT67590675900000015164800888800000010180088824001193125900016962220050420230000002487012523000000000463461475818XXXXXX2786               2111111   NYV4 A7W583121408138409N840000000024870SSL500    01DNKETOFUSION833-923-3587   000408    VD84000000024870 NP1599977360677   F7CF0B0623TCE0265EDAFDB  000000000+                F DF 00415                     000000000  N000000000       0000000000000.00 0000000.00   0000000.00                             000000000000000                                                                                                                                                     01424 G000000024870 0000000000004.25     01650 01500                  
03291730167280001P16759067590000001516480088880000001010000000000000000                             2000000000000000000000000              000000000000                    0000000000000000000000000                    000000000000                                                                                                                                                                                                                                                                                                                                                                                                                                                                                        
03291740167280022DT67590675900000015164800888800000010180088824001193125900016962261050420230000002487012523000000000463461479213XXXXXX3925               2111111   NYV4 A7W463121426062316N840000000024870LWF300    01DNKETOFUSION833-923-3587   065006    VD84000000024870 NP1599977360677   BE4F805E89T16512428D652  000000000+                F DF 10420                     000000000  Y000000000 338   0000000000000.00 0000000.00   0000000.00                             000000000000000                                                                                                                                                     01424 G000000024870 0000000000000.34     00050 02200                  
03291750167280001P16759067590000001516480088880000001010000000000000000                             2000000000000000000000000              000000000000                    0000000000000000000000000                    000000000000                                                                                                                                                                                                                                                                                                                                                                                                                                                                                        
03291760167280023DT67590675900000015164800888800000010180088824001193125900016962295050420230000001394812523000000000463461411776XXXXXX4019               2111111   NYV4 A7W463121426137519N840000000013948BMF400    01DNKETOFUSION833-923-3587   185002    VD84000000013948 NP1599977360677   2160DABDA0TDC9BB977F42F  000000000+                F DF 10420                     000000000  Y000000000 338   0000000000000.00 0000000.00   0000000.00                             000000000000000                                                                                                                                                     01424 G000000013948 0000000000000.29     00050 02200                  
03291770167280001P16759067590000001516480088880000001010000000000000000                             2000000000000000000000000              000000000000                    0000000000000000000000000                    000000000000                                                                                                                                                                                                                                                                                                                                                                                                                                                                                        
03291780167280024DT67590675900000015164800888800000010180088887287283125900016962353050420230000001987012523000000000463461552448XXXXXX7633       ME03KE06MS02      NY 4607AMWEFVMQLY0501  N840000000019870          81DNKETOFUSION833-923-3587   00146P    MC84000000019870 N  599977360677   1C5E446FF0T76E7CABA0D2A  000000000+600450S00130    MWE  00737                     000000000  N                0000000000000.00 0000000.00   0000000.00                             000000000000000                                                                                                                                                   U001424  000000000000 0000000000005.27     02600 01000                  
03291790167280025DT67590675900000015164800888800000010180088876509753125900016962384050420230000002487012523000000000463461601101XXXXXX8589   BA00                  NY 4 07N873104008371039N840000000024870    00    01DNKETOFUSION833-923-3587   00190B    DZ84000000024870 N  599977360677070                         000000000+1015104910600   DMCDI01012831806  080717000000 000000000  0          124   0000000000000.00 0000000.00   0000000.00                             000000000000000                                                                                                                                                     01424  000000000000 0000000000006.24     02450 01500                  
03291800167280026DT67590675900000015164800888800000010180088887287283125900016962403050420230000001394812523000000000463461517479XXXXXX4848       ME03KE06MS02      NY 4607AMPLUNQQLY0501  N840000000013948          81DNKETOFUSION833-923-3587   00142B    MC84000000013948 N  599977360677   B096370D40T05925D0F5AA9  000000000+600450S00130    MPL  00580                     000000000  N                0000000000000.00 0000000.00   0000000.00                             000000000000000                                                                                                                                                   U001424  000000000000 0000000000003.03     02100 01000                  
03291810167280027DT67590675900000015164800888800000010180088887287283125900016962676050420230000001987012523000000000463461515676XXXXXX5758       ME03KE06MS02      NY 4607AMWEIA11TS0501  N840000000019870          81DNKETOFUSION833-923-3587   05283Z    MC84000000019870 N  599977360677   A3DA1DFE9DT618792E08FB9  000000000+600450S00130    MWE  00737                     000000000  N                0000000000000.00 0000000.00   0000000.00                             000000000000000                                                                                                                                                   U001424  000000000000 0000000000005.27     02600 01000                  
03291820167280028DT67590675900000015164800888800000010180088824001193125900016962709050420230000001394812523000000000463461448915XXXXXX0175               2111111   NYV4 A7W303121543061413N8400000000139489W3H00    01DNKETOFUSION833-923-3587   001907    VS84000000013948 NP1599977360677   0F2458AC25TFCABF1798E72  000000000+                D CD 12109                     000000000  N000000000 498   0000000000000.00 0000000.00   0000000.00                             000000000000000                                                                                                                                                     01424 G000000013948 0000000000003.59     02500 01000                  
03291830167280001P16759067590000001516480088880000001010000000000000000                             2000000000000000000000000              000000000000                    0000000000000000000000000                    000000000000                                                                                                                                                                                                                                                                                                                                                                                                                                                                                        
03291840167280029DT67590675900000015164800888800000010180088876509753125900016962723050420230000001987012523000000000463461601149XXXXXX3527   BA00                  NY 4 07N753104080403913N840000000019870    00    01DNKETOFUSION833-923-3587   00126P    DS84000000019870 N  599977360677070                         000000000+1015104910600   DCPDI11327831818  100720000000 000000000  0          462   0000000000000.00 0000000.00   0000000.00                             000000000000000                                                                                                                                                     01424  000000000000 0000000000004.17     02050 01000                  
03291850167280030DT67590675900000015164800888800000010180088824001193125900016962832050420230000001394812523000000000463461440066XXXXXX3293               2111111   NYV4 A7W583121564072296N8400000000139486JZG00    01DNKETOFUSION833-923-3587   08613C    VS84000000013948 NP1599977360677   B66B0F68C3T2DCB7A6E08BE  000000000+                C CC 12108                     000000000  N000000000 496   0000000000000.00 0000000.00   0000000.00                             000000000000000                                                                                                                                                     01424 G000000013948 0000000000002.96     02050 01000                  
03291860167280001P16759067590000001516480088880000001010000000000000000                             2000000000000000000000000              000000000000                    0000000000000000000000000                    000000000000                                                                                                                                                                                                                                                                                                                                                                                                                                                                                        
03291870167280031DT67590675900000015164800888800000010180088887287283125900016962841050420230000001987012523000000000463461546638XXXXXX3397       ME03KE06MS02      NY 4607AMWEK0INLY0501  N840000000019870          81DNKETOFUSION833-923-3587   00238Z    MC84000000019870 N  599977360677   DC1FEA351DTC5FF421AB9F1  000000000+600450S00130    MWE  00737                     000000000  N                0000000000000.00 0000000.00   0000000.00                             000000000000000                                                                                                                                                   U001424  000000000000 0000000000005.27     02600 01000                  
03291880167280032DT67590675900000015164800888800000010180088824001193125900016962873050420230000001987012523000000000463461443044XXXXXX6315               2111111   NYV4 A7W463121577422618N840000000019870W4NS00    01DNKETOFUSION833-923-3587   722025    VD84000000019870 NP1599977360677   06D464DD3FTBB750B79E724  000000000+                F DF 10420                     000000000  Y000000000 338   0000000000000.00 0000000.00   0000000.00                             000000000000000                                                                                                                                                     01424 G000000019870 0000000000000.32     00050 02200                  
03291890167280001P16759067590000001516480088880000001010000000000000000                             2000000000000000000000000              000000000000                    0000000000000000000000000                    000000000000                                                                                                                                                                                                                                                                                                                                                                                                                                                                                        
03291900167280033DT67590675900000015164800888800000010180088824001193125900016962907050420230000002487012523000000000463461414734XXXXXX2227               2111111   NYV4 A7W583121581059047N840000000024870VJRZ00    01DNKETOFUSION833-923-3587   07038D    VS84000000024870 NP1599977360677   25B76F4BAATBAAF717015BC  000000000+                D CD 12109                     000000000  N000000000 498   0000000000000.00 0000000.00   0000000.00                             000000000000000                                                                                                                                                     01424 G000000024870 0000000000006.32     02500 01000                  
03291910167280001P16759067590000001516480088880000001010000000000000000                             2000000000000000000000000              000000000000                    0000000000000000000000000                    000000000000                                                                                                                                                                                                                                                                                                                                                                                                                                                                                        
03291920167280034DT67590675900000015164800888800000010180088887287283125900016962965050420230000001987012523000000000463461517545XXXXXX4335       ME03KE06MS02      NY 4607AMDJL9G1TS0501  N840000000019870          81DNKETOFUSION833-923-3587   001446    MD84000000019870 N  599977360677   CAFAC2AAE5TF88605FA4AE5  000000000+600450S00130    MDJ  10813                     000000000  1                0000000000000.00 0000000.00   0000000.00                             000000000000000                                                                                                                                                   U001424  000000000000 0000000000000.32     00050 02200                  
03291930167280035DT67590675900000015164800888800000010180088824001193125900016963004050420230000001499012523000000000463461414709XXXXXX5719               2111111   NYV4 A7W383121609105373N840000000014990R7RZ00    01DNKETOFUSION833-923-3587   05332D    VS84000000014990 NP1599977360677   60ED301455T13482CED671B  000000000+                D CD 12109                     000000000  N000000000 498   0000000000000.00 0000000.00   0000000.00                             000000000000000                                                                                                                                                     01424 G000000014990 0000000000003.85     02500 01000                  
03291940167280001P16759067590000001516480088880000001010000000000000000                             2000000000000000000000000              000000000000                    0000000000000000000000000                    000000000000                                                                                                                                                                                                                                                                                                                                                                                                                                                                                        
03291950167280036DT67590675900000015164800888800000010180088887287283125900016963062050420230000002487012523000000000463461552301XXXXXX0036       ME03KE06MS02      NY 4607AMWEODCF6I0501  N840000000024870          81DNKETOFUSION833-923-3587   00390Z    MC84000000024870 N  599977360677   7EFB438E0CT343CC85589E0  000000000+600450S00130    MWE  00737                     000000000  N                0000000000000.00 0000000.00   0000000.00                             000000000000000                                                                                                                                                   U001424  000000000000 0000000000006.57     02600 01000                  
03291960167280037DT67590675900000015164800888800000010180088887287283125900016963070050420230000001987012523000000000463461536817XXXXXX2084       ME03KE06PT01      NY 4607AMCWDDFZ6I0501  N840000000019870          81DNKETOFUSION833-923-3587   00175P    MC84000000019870 N  599977360677   A273138474TBEA2A7447668  000000000+600450S00130    MCW  00642                     000000000  N                0000000000000.00 0000000.00   0000000.00                             000000000000000                                                                                                                                                   U001424  000000000000 0000000000004.47     02200 01000                  
03291970167280038DT67590675900000015164800888800000010180088887287283125900016963120050420230000001987012523000000000463461521333XXXXXX3953       ME03KE06MS02      NY 4607AMPLB9ZWLZ0501  N840000000019870          81DNKETOFUSION833-923-3587   00124Z    MC84000000019870 N  599977360677   ADC54A8FF6TAA9E9DCE1996  000000000+600450S00130    MPL  00013                     000000000  N                0000000000000.00 0000000.00   0000000.00                             000000000000000                                                                                                                                                   U001424  000000000000 0000000000003.97     01950 01000                  
03291980167280039DT67590675900000015164800888800000010180088824001193125900016963152050420230000001799112523000000000463461440066XXXXXX8265               2111111   NYV4 A7W383121642140549N840000000017991KKF500    01DNKETOFUSION833-923-3587   06713C    VS84000000017991 NP1599977360677   8973CB3496T2AC32CCBD028  000000000+                C CC 12108                     000000000  N000000000 496   0000000000000.00 0000000.00   0000000.00                             000000000000000                                                                                                                                                     01424 G000000017991 0000000000003.79     02050 01000                  
03291990167280001P16759067590000001516480088880000001010000000000000000                             2000000000000000000000000              000000000000                    0000000000000000000000000                    000000000000                                                                                                                                                                                                                                                                                                                                                                                                                                                                                        
03292000167280040DT67590675900000015164800888800000010180088887287283125900016963187050420230000001394812523000000000463461542432XXXXXX0778       ME03KE06MS02      NY 4607AMDJEZLP6I0501  N840000000013948          81DNKETOFUSION833-923-3587   454403    MD84000000013948 N  599977360677   CFE6AABA77T42174E970E13  000000000+600450S00130    MDJ  10813                     000000000  1                0000000000000.00 0000000.00   0000000.00                             000000000000000                                                                                                                                                   U001424  000000000000 0000000000000.29     00050 02200                  
03292010167280041DT67590675900000015164800888800000010180088887287283125900016963195050420230000002487012523000000000463461521333XXXXXX3745       ME03KE06MS02      NY 4607AMWEP2OV6I0501  N840000000024870          81DNKETOFUSION833-923-3587   00184P    MC84000000024870 N  599977360677   3AD20D2386T157A91EF9A88  000000000+600450S00130    MWE  00737                     000000000  N                0000000000000.00 0000000.00   0000000.00                             000000000000000                                                                                                                                                   U001424  000000000000 0000000000006.57     02600 01000                  
03292020167280042DT67590675900000015164800888800000010180088824001193125900016963202050420230000002487012523000000000463461412125XXXXXX8832               2111111   NYV4 A7W463121652406981N840000000024870P5HM00    01DNKETOFUSION833-923-3587   003545    VS84000000024870 NP1599977360677   DF225FE82FT2F728A7F2DB6  000000000+                A CA 12106                     000000000  N000000000 492   0000000000000.00 0000000.00   0000000.00                             000000000000000                                                                                                                                                     01424 G000000024870 0000000000004.80     01890 01000                  
03292030167280001P16759067590000001516480088880000001010000000000000000                             2000000000000000000000000              000000000000                    0000000000000000000000000                    000000000000                                                                                                                                                                                                                                                                                                                                                                                                                                                                                        
03292040167280043DT67590675900000015164800888800000010180088824001193125900016963210050420230000001987012523000000000463461434256XXXXXX6424               2111111   NYV4 A7W383121652431497N8400000000198708KMB00    01DNKETOFUSION833-923-3587   014714    VD84000000019870 NP1599977360677   57AA68D232T2850FAF79AA7  000000000+                F DF 10420                     000000000  Y000000000 338   0000000000000.00 0000000.00   0000000.00                             000000000000000                                                                                                                                                     01424 G000000019870 0000000000000.32     00050 02200                  
03292050167280001P16759067590000001516480088880000001010000000000000000                             2000000000000000000000000              000000000000                    0000000000000000000000000                    000000000000                                                                                                                                                                                                                                                                                                                                                                                                                                                                                        
03292060167280044DT67590675900000015164800888800000010180088824001193125900016963244050420230000002487012523000000000463461455494XXXXXX4534               2111111   NYV4 A7W463121663084233N840000000024870TF2T00    01DNKETOFUSION833-923-3587   322514    VD84000000024870 NP1599977360677   2F0B90CE5ET617B8319C36F  000000000+                F DF 10420                     000000000  Y000000000 338   0000000000000.00 0000000.00   0000000.00                             000000000000000                                                                                                                                                     01424 G000000024870 0000000000000.34     00050 02200                  
03292070167280001P16759067590000001516480088880000001010000000000000000                             2000000000000000000000000              000000000000                    0000000000000000000000000                    000000000000                                                                                                                                                                                                                                                                                                                                                                                                                                                                                        
03292080167280045DT67590675900000015164800888800000010180088824001193125900016963251050420230000001987012523000000000463461454951XXXXXX3310               2111111   NYV4 07W303121669066022N840000000019870P93T00    01DNKETOFUSION833-923-3587   283255    VD84000000019870FNP1599977360677   F140939F1ETF393DB4E98DC  000000000+                F DF 10574                     000000000  Y000000000 603   0000000000000.00 0000000.0000 0000001.99D                            000000000000000                                                                                                                                                     01424 G000000019870 0000000000000.32     00050 02200                  
03292090167280001P16759067590000001516480088880000001010000000000000000                             2000000000000000000000000              000000000000                    0000000000000000000000000                    000000000000                                                                                                                                                                                                                                                                                                                                                                                                                                                                                        
03292100167280046DT67590675900000015164800888800000010180088887287283125900016963310050420230000002487012523000000000463461517952XXXXXX6909       ME03KE06MS02      NY 4607AMPLG8QM6I0501  N840000000024870          81DNKETOFUSION833-923-3587   00218B    MC84000000024870 N  599977360677   4EB52CDD50T26B5F549A1AA  000000000+600450S00130    MPL  00580                     000000000  N                0000000000000.00 0000000.00   0000000.00                             000000000000000                                                                                                                                                   U001424  000000000000 0000000000005.32     02100 01000                  
03292110167280047DT67590675900000015164800888800000010180088887287283125900016963369050420230000001987012523000000000463461514616XXXXXX4194       ME03KE06MS02      NY 4607AMDJPPPHXU0501  N840000000019870          81DNKETOFUSION833-923-3587   243941    MD84000000019870 N  599977360677   58AFAF95A5TE3D22547F90E  000000000+600450S00130    MDJ  00401                     000000000  N                0000000000000.00 0000000.00   0000000.00                             000000000000000                                                                                                                                                   U001424  000000000000 0000000000003.43     01650 01500                  
03292120167280048DT67590675900000015164800888800000010180088824001193125900016963384050420230000001987012523000000000463461460203XXXXXX5489               2111111   NYV4 A7W303121724404701N840000000019870625S00    01DNKETOFUSION833-923-3587   030721    VD84000000019870 NP1599977360677   B975CBCA83T2FAFCB4B8593  000000000+                F DF 00415                     000000000  N000000000       0000000000000.00 0000000.00   0000000.00                             000000000000000                                                                                                                                                     01424 G000000019870 0000000000003.43     01650 01500                  
03292130167280001P16759067590000001516480088880000001010000000000000000                             2000000000000000000000000              000000000000                    0000000000000000000000000                    000000000000                                                                                                                                                                                                                                                                                                                                                                                                                                                                                        
03292140167280049DT67590675900000015164800888800000010180088887287283125900016963419050420230000001987012523000000000463461552393XXXXXX6698       ME03KE06PT01      NY 4607AMCWH8ZMXV0501  N840000000019870          81DNKETOFUSION833-923-3587   05214Z    MC84000000019870 N  599977360677   52C1A38515T677DDA8D433A  000000000+600450S00130    MCW  00642                     000000000  N                0000000000000.00 0000000.00   0000000.00                             000000000000000                                                                                                                                                   U001424  000000000000 0000000000004.47     02200 01000                  
03292150167280050DT67590675900000015164800888800000010180088887287283125900016963625050420230000001987012523000000000463461533248XXXXXX3190       ME03KE06MS02      NY 4607AMPVM8QPXV0501  N840000000019870          81DNKETOFUSION833-923-3587   QGWKHG    MD84000000019870 N  599977360677   A4C1C77FFATB5B91D341F44  000000000+600450S00130    MPV  09899                     000000000  N                0000000000000.00 0000000.00   0000000.00                             000000000000000                                                                                                                                                   U001424  000000000000 0000000000003.70     01760 02000                  
03292160167280051DT67590675900000015164800888800000010180088824001193125900016963772050420230000001987012523000000000463461440263XXXXXX3200               2111111   NYV4 A7W383122045063156N840000000019870LLHF00    01DNKETOFUSION833-923-3587   001735    VS84000000019870 NP1599977360677   4F3FFA554ET799337CA6613  000000000+                D CD 12109                     000000000  N000000000 498   0000000000000.00 0000000.00   0000000.00                             000000000000000                                                                                                                                                     01424 G000000019870 0000000000005.07     02500 01000                  
03292170167280001P16759067590000001516480088880000001010000000000000000                             2000000000000000000000000              000000000000                    0000000000000000000000000                    000000000000                                                                                                                                                                                                                                                                                                                                                                                                                                                                                        
03292180167280052DT67590675900000015164800888800000010180088887287283125900016963781050420230000001987012523000000000463461538843XXXXXX4650       ME03KE06MS02      NY 4607AMDJZSLAZW0501  N840000000019870          81DNKETOFUSION833-923-3587   324686    MD84000000019870 N  599977360677   2209F44DAAT0EBE7DD53BA7  000000000+600450S00130    MDJ  00401                     000000000  N                0000000000000.00 0000000.00   0000000.00                             000000000000000                                                                                                                                                   U001424  000000000000 0000000000003.43     01650 01500                  
03292190167280053DT67590675900000015164800888800000010180088824001193125900016963822050420230000002487012523000000000463461425416XXXXXX2420               2111111   NYV4 A7W303122076625820N840000000024870VKRC00    01DNKETOFUSION833-923-3587   444394    VD84000000024870 NP1599977360677   91934E17CETDAF66EF153A1  000000000+                F DF 00415                     000000000  N000000000       0000000000000.00 0000000.00   0000000.00                             000000000000000                                                                                                                                                     01424 G000000024870 0000000000004.25     01650 01500                  
03292200167280001P16759067590000001516480088880000001010000000000000000                             2000000000000000000000000              000000000000                    0000000000000000000000000                    000000000000                                                                                                                                                                                                                                                                                                                                                                                                                                                                                        
03292210167280054DT67590675900000015164800888800000010180088887287283125900016963849050420230000001394812523000000000463461548030XXXXXX5032       ME03KE06PT01      NY 4607AMCWUFZSZW0501  N840000000013948          81DNKETOFUSION833-923-3587   00103P    MC84000000013948 N  599977360677   CBABE51E75T37ED4974D3DC  000000000+600450S00130    MCW  00642                     000000000  N                0000000000000.00 0000000.00   0000000.00                             000000000000000                                                                                                                                                   U001424  000000000000 0000000000003.17     02200 01000                  
03292220167280055DT67590675900000015164800888800000010680088887287283125900016967014050420230000002755012523000000000463461552475XXXXXX9760                         NY 4607AMPLXBBF5R0504  N840000000027550          81CNKETOFUSION833-923-3587   091726    MC84000000027550 N  599977360677   9697DF70F1TC3E3EBD0E572  000000000+600450S00130    MPL  00564                     000000000  N                0000000000000.00 0000000.00   0000000.00                             000000000000000                                                                                                                                                     01424  000000000000-0000000000004.82     01750 00000                  
03292230167280056DT67590675900000015164800888800000010680088887287283125900016967022050420230000000597412523000000000463461542539XXXXXX3588                         NY 4607AMPLXWY45R0504  N840000000005974          81CNKETOFUSION833-923-3587   004563    MC84000000005974 N  599977360677   36746AE7A1T5B9B788AA9DC  000000000+600450S00130    MPL  00564                     000000000  N                0000000000000.00 0000000.00   0000000.00                             000000000000000                                                                                                                                                     01424  000000000000-0000000000001.05     01750 00000                  
03292240167280057DT67590675900000015164800888800000010680088874001193125900016967299050520230000001987012523000000000463461414720XXXXXX1155               0000000   NYV4 07T303125474960642N840000000019870SVTX00    01CNKETOFUSION833-923-3587   04108D    VS84000000019870 NP1599977360677   B1483D45DBTDE7D467B15C0  000000000+                D CD 00245                     000000000  N000000000 166   0000000000000.00 0000000.00   0000000.00                             000000000000000                                                                                                                                                     01424  000000019870-0000000000003.50     01760 00000                  
03292250167280001P16759067590000001516480088880000001060000000000000000                             2000000000000000000000000              000000000000                    0000000000000000000000000                    000000000000                                                                                                                                                                                                                                                                                                                                                                                                                                                                                        
03292260167280058DT67590675900000015164800888800000010680088887287283125900016967386050520230000001499012523000000000463461546638XXXXXX8072                         NY 4607AMWECCPERW0505  N840000000014990          81CNKETOFUSION833-923-3587   091831    MC84000000014990 N  599977360677   8F38F5199ATC9FB69B60B8A  000000000+600450S00130    MWE  00564                     000000000  N                0000000000000.00 0000000.00   0000000.00                             000000000000000                                                                                                                                                     01424  000000000000-0000000000002.62     01750 00000                  
03292270167280059DT67590675900000015164800888800000010680088887287283125900016967394050520230000001018612523000000000463461546638XXXXXX8072                         NY 4607AMWEX3NBP30505  N840000000010186          81CNKETOFUSION833-923-3587   073683    MC84000000010186 N  599977360677   76EFBC6C2FT12D74053CD27  000000000+600450S00130    MWE  00564                     000000000  N                0000000000000.00 0000000.00   0000000.00                             000000000000000                                                                                                                                                     01424  000000000000-0000000000001.78     01750 00000                  
03292280167280060DT67590675900000015164800888800000010680088874001193125900016967406050520230000001451712523000000000463461427082XXXXXX3471               0000000   NYV4 07T583125527459946N8400000000145176RF900    01CNKETOFUSION833-923-3587   005283    VS84000000014517 NP1599977360677   EF35D255F0T7DA4A23BE63C  000000000+                D CD 00245                     000000000  N000000000 166   0000000000000.00 0000000.00   0000000.00                             000000000000000                                                                                                                                                     01424  000000014517-0000000000002.55     01760 00000                  
03292290167280001P16759067590000001516480088880000001060000000000000000                             2000000000000000000000000              000000000000                    0000000000000000000000000                    000000000000                                                                                                                                                                                                                                                                                                                                                                                                                                                                                        
03292300167280061DT67590675900000015164800888800000010680088874001193125900016967414050520230000001987012523000000000463461434769XXXXXX6089               0000000   NYV4 07T583125543010355N840000000019870TXTX85    01CNKETOFUSION833-923-3587   053767    VD84000000019870 NP1599977360677   F921D7CFAET36E69AF9F9AF  000000000+                F DF 08168                     000000000  Y000000000 369   0000000000000.00 0000000.00   0000000.00                             000000000000000                                                                                                                                                     01424  000000019870 0000000000000.00     00000 00000                  
03292310167280001P16759067590000001516480088880000001060000000000000000                             2000000000000000000000000              000000000000                    0000000000000000000000000                    000000000000                                                                                                                                                                                                                                                                                                                                                                                                                                                                                        
03292320167280062DT67590675900000015164800888800000010680088887287283125900016967436050520230000002487012523000000000463461546616XXXXXX9122                         NY 4607AMCWLLPNRW0505  N840000000024870          81CNKETOFUSION833-923-3587   723505    MC84000000024870 N  599977360677   ACDE0307ADT9D25355B4BC7  000000000+600450S00130    MCW  00564                     000000000  N                0000000000000.00 0000000.00   0000000.00                             000000000000000                                                                                                                                                     01424  000000000000-0000000000004.35     01750 00000                  
03292330167280063DT67590675900000015164800888800000010680088874001193125900016967471050520230000000524612523000000000463461410039XXXXXX1974               0000000   NYV4 07T303125557065332N8400000000052469V3T00    01CNKETOFUSION833-923-3587   71562C    VS84000000005246 NP1599977360677   4EEE5BBCC9T128F5BF28B54  000000000+                C CC 00245                     000000000  N000000000 166   0000000000000.00 0000000.00   0000000.00                             000000000000000                                                                                                                                                     01424  000000005246-0000000000000.92     01760 00000                  
03292340167280001P16759067590000001516480088880000001060000000000000000                             2000000000000000000000000              000000000000                    0000000000000000000000000                    000000000000                                                                                                                                                                                                                                                                                                                                                                                                                                                                                        
03292350167280064DT67590675900000015164800888800000010680088874001193125900016967489050520230000000524612523000000000463461410039XXXXXX1974               0000000   NYV4 07T463125557762782N840000000005246N97S00    01CNKETOFUSION833-923-3587   28121C    VS84000000005246 NP1599977360677   06C2842A7CT01F1254C9AEE  000000000+                C CC 00245                     000000000  N000000000 166   0000000000000.00 0000000.00   0000000.00                             000000000000000                                                                                                                                                     01424  000000005246-0000000000000.92     01760 00000                  
03292360167280001P16759067590000001516480088880000001060000000000000000                             2000000000000000000000000              000000000000                    0000000000000000000000000                    000000000000                                                                                                                                                                                                                                                                                                                                                                                                                                                                                        
03292370167280065DT67590675900000015164800888800000010680088874001193125900016967505050520230000002487012523000000000463461453506XXXXXX3567               0000000   NYV4 07T463125561568760N8400000000248705NRC00    01CNKETOFUSION833-923-3587   H28481    VD84000000024870 NP1599977360677   42D0E45D75T37C66427D63C  000000000+                F DF 08168                     000000000  Y000000000 369   0000000000000.00 0000000.00   0000000.00                             000000000000000                                                                                                                                                     01424  000000024870 0000000000000.00     00000 00000                  
03292380167280001P16759067590000001516480088880000001060000000000000000                             2000000000000000000000000              000000000000                    0000000000000000000000000                    000000000000                                                                                                                                                                                                                                                                                                                                                                                                                                                                                        
03292390167280066DT67590675900000015164800888800000010680088874001193125900016967547050520230000002487012523000000000463461463130XXXXXX5072               0000000   NYV4 07T383125586816254N840000000024870CD6D00    01CNKETOFUSION833-923-3587   181645    VD84000000024870 NP1599977360677   898B35A33FT2F49D1B25165  000000000+                F DF 08168                     000000000  N000000000 369   0000000000000.00 0000000.00   0000000.00                             000000000000000                                                                                                                                                     01424  000000024870 0000000000000.00     00000 00000                  
03292400167280001P16759067590000001516480088880000001060000000000000000                             2000000000000000000000000              000000000000                    0000000000000000000000000                    000000000000                                                                                                                                                                                                                                                                                                                                                                                                                                                                                        
03292410167280067DT67590675900000015164800888800000010680088874001193125900016967554050520230000002487012523000000000463461463130XXXXXX5072               0000000   NYV4 07T383125586948983N840000000024870BPL700    01CNKETOFUSION833-923-3587   194679    VD84000000024870 NP1599977360677   1DA2C89504T51FB8533FF6E  000000000+                F DF 08168                     000000000  N000000000 369   0000000000000.00 0000000.00   0000000.00                             000000000000000                                                                                                                                                     01424  000000024870 0000000000000.00     00000 00000                  
03292420167280001P16759067590000001516480088880000001060000000000000000                             2000000000000000000000000              000000000000                    0000000000000000000000000                    000000000000                                                                                                                                                                                                                                                                                                                                                                                                                                                                                        
03292430167280068DT67590675900000015164800888800000010680088887287283125900016967568050520230000000993512523000000000463461542432XXXXXX1172                         NY 4607AMDJRT51P30505  N840000000009935          81CNKETOFUSION833-923-3587   355355    MD84000000009935 N  599977360677   2E89A1417AT2FF657D37C7F  000000000+600450S00130    MDJ  10828                     000000000  1                0000000000000.00 0000000.00   0000000.00                             000000000000000                                                                                                                                                     01424  000000000000 0000000000000.00     00000 00000                  
03292440167280069DT67590675900000015164800888800000010680088887287283125900016967584050520230000000496712523000000000463461552448XXXXXX7633                         NY 4607AMCWCR8UP40505  N840000000004967          81CNKETOFUSION833-923-3587   005914    MC84000000004967 N  599977360677   1C5E446FF0T76E7CABA0D2A  000000000+600450S00130    MCW  00564                     000000000  N                0000000000000.00 0000000.00   0000000.00                             000000000000000                                                                                                                                                     01424  000000000000-0000000000000.87     01750 00000                  
03292450167280070DT67590675900000015164800888800000010680088874001193125900016967604050520230000002487012523000000000463461406032XXXXXX9088               0000000   NYV4 07T383125642918715N840000000024870JLHR85    01CNKETOFUSION833-923-3587   045212    VD84000000024870 NP1599977360677   F8543A3783TAE4C07BB37D3  000000000+                F DF 08168                     000000000  Y000000000 369   0000000000000.00 0000000.00   0000000.00                             000000000000000                                                                                                                                                     01424  000000024870 0000000000000.00     00000 00000                  
03292460167280001P16759067590000001516480088880000001060000000000000000                             2000000000000000000000000              000000000000                    0000000000000000000000000                    000000000000                                                                                                                                                                                                                                                                                                                                                                                                                                                                                        
03292470167280071DT67590675900000015164800888800000010680088874001193125900016967612050520230000002487012523000000000463461406032XXXXXX9088               0000000   NYV4 07T383125643582299N840000000024870D99L85    01CNKETOFUSION833-923-3587   035294    VD84000000024870 NP1599977360677   4E67623326T3D88E09F1B65  000000000+                F DF 08168                     000000000  Y000000000 369   0000000000000.00 0000000.00   0000000.00                             000000000000000                                                                                                                                                     01424  000000024870 0000000000000.00     00000 00000                  
03292480167280001P16759067590000001516480088880000001060000000000000000                             2000000000000000000000000              000000000000                    0000000000000000000000000                    000000000000                                                                                                                                                                                                                                                                                                                                                                                                                                                                                        
03292490167280072DT67590675900000015164800888800000010680088876509753125900016967631050520230000000198812523000000000463461601100XXXXXX1253   BA00                  NY 4 07N803107648671163N840000000001988    00    01CNKETOFUSION833-923-3587   00585R    DS84000000001988 N  599977360677070                         000000000+1015104910600   DCCDI01022499793  131427200000 000000000  0          134   0000000000000.00 0000000.00   0000000.00                             000000000000000                                                                                                                                                     01424  000000000000-0000000000000.35     01750 00000                  
03292500167280073DT67590675900000015164800888800000010680088874001193125900016967737050520230000001987012523000000000463461403784XXXXXX2006               0000000   NYV4 07T383125717536574N84000000001987098JQ00    01CNKETOFUSION833-923-3587   415055    VS84000000019870 NP1599977360677   986C643174T4BC37464895F  000000000+                D CD 00245                     000000000  N000000000 166   0000000000000.00 0000000.00   0000000.00                             000000000000000                                                                                                                                                     01424  000000019870-0000000000003.50     01760 00000                  
03292510167280001P16759067590000001516480088880000001060000000000000000                             2000000000000000000000000              000000000000                    0000000000000000000000000                    000000000000                                                                                                                                                                                                                                                                                                                                                                                                                                                                                        
03292520167280074DT67590675900000015164800888800000010680088887287283125900016967741050520230000002487012523000000000463461517805XXXXXX0116                         NY 4607AMPLVBAL0K0505  N840000000024870          81CNKETOFUSION833-923-3587   048162    MC84000000024870 N  599977360677   51B9C8F6D4T9E3ACFF3273D  000000000+600450S00130    MPL  00564                     000000000  N                0000000000000.00 0000000.00   0000000.00                             000000000000000                                                                                                                                                     01424  000000000000-0000000000004.35     01750 00000                  
03292530167280075DT67590675900000015164800888800000010680088887287283125900016967790050520230000001194812523000000000463461542418XXXXXX8039                         NY 4607AMPLLUED8E0505  N840000000011948          81CNKETOFUSION833-923-3587   114593    MC84000000011948 N  599977360677   ED1CF0B4C7T6FC1620084C4  000000000+600450S00130    MPL  00564                     000000000  N                0000000000000.00 0000000.00   0000000.00                             000000000000000                                                                                                                                                     01424  000000000000-0000000000002.09     01750 00000                  
03292540167280076BH6759067590000001427480010280000090170505202312523000000000406984    0000090001790292Y8001026759C05082023                                                                                                                                                                                                                                                                                                                                                                                                                                                                                                                                                                                                 
03292550167280077DT67590675900000014274800102800000010180010287287283125900017997358050420230000001799112523000000000406984533080XXXXXX1305       ME03KE06MS02      NY 4607AMDJMJLGOR0501  N840000000017991          81DNCBD8666317293            022850    MD84000000017991 N  549977145232   A2436D34B8TAF7A734E8DD5  000000000+600450S00130    MDJ  00401                     000000000  N                0000000000000.00 0000000.00   0000000.00                             000000000000000                                                                                                                                                   U001424  000000000000 0000000000003.12     01650 01500                  
03292560167280078DT67590675900000014274800102800000010180010224001193125900017997373050420230000002126112523000000000406984400344XXXXXX0716               2111111   NYV4 A7W583121256523895N840000000021261255800    01DNCBD8666317293            01981D    VS84000000021261 NP1549977145232   2B941335D0TB4ACE299F806  000000000+                D CD 12109                     000000000  N000000000 498   0000000000000.00 0000000.00   0000000.00                             000000000000000                                                                                                                                                     01424 G000000021261 0000000000005.42     02500 01000                  
03292570167280001P16759067590000001427480010280000001010000000000000000                             2000000000000000000000000              000000000000                    0000000000000000000000000                    000000000000                                                                                                                                                                                                                                                                                                                                                                                                                                                                                        
03292580167280079DT67590675900000014274800102800000010180010224001193125900017997423050420230000002106212523000000000406984410039XXXXXX7563               2111111   NYV4 A7W383121327104084N840000000021062WZDC00    01DNCBD8666317293            31044C    VS84000000021062 NP1549977145232   753A5140DAT415DFD519B8A  000000000+                C CC 12108                     000000000  N000000000 496   0000000000000.00 0000000.00   0000000.00                             000000000000000                                                                                                                                                     01424 G000000021062 0000000000004.42     02050 01000                  
03292590167280001P16759067590000001427480010280000001010000000000000000                             2000000000000000000000000              000000000000                    0000000000000000000000000                    000000000000                                                                                                                                                                                                                                                                                                                                                                                                                                                                                        
03292600167280080DT67590675900000014274800102800000010180010287287283125900017997457050420230000001116312523000000000406984549170XXXXXX1979       ME03KE06MS02      NY 4607AMDJVKYYLY0501  N840000000011163          81DNCBD8666317293            152203    MD84000000011163 N  549977145232   CFDEFA97CDT9AFC271BA74E  000000000+600450S00130    MDJ  10813                     000000000  1                0000000000000.00 0000000.00   0000000.00                             000000000000000                                                                                                                                                   U001424  000000000000 0000000000000.28     00050 02200                  
03292610167280081DT67590675900000014274800102800000010180010224001193125900017998025050420230000002187712523000000000406984442868XXXXXX6171               2111111   NYV4 A7W383121705059489N8400000000218772MGH00    01DNCBD8666317293            001864    VS84000000021877 NP1549977145232   FC95AE121BTA04E8968BCEF  000000000+                C CC 12108                     000000000  N000000000 496   0000000000000.00 0000000.00   0000000.00                             000000000000000                                                                                                                                                     01424 G000000021877 0000000000004.58     02050 01000                  
03292620167280001P16759067590000001427480010280000001010000000000000000                             2000000000000000000000000              000000000000                    0000000000000000000000000                    000000000000                                                                                                                                                                                                                                                                                                                                                                                                                                                                                        
03292630167280082DT67590675900000014274800102800000010180010273011003125900017998047050420230000002126112523000000000406984372820XXXXX3003                          NY 4 07N004956673081302N840000000021261          01DNCBD8666317293            256903    AM84000000021261 Y  549977145232                            000000000+6004S0S00130 258     11262                     000000000                   0000000000000.00 0000000.00   0000000.00                             000000000000000 61248972086759675900000014274 CBD8666317293            2993 SANDY PLAINS RD STE 6787614584      30066     EMORRIS@GREENOTTERCBD.COM                 01324  000000000000 0000000000004.25     01950 00000                  
03292640167280083DT67590675900000014274800102800000010180010287287283125900017998083050420230000000749412523000000000406984531260XXXXXX5942       ME03KE06MS02      NY 4607AMDJE0QC6J0501  N840000000007494          81DNCBD8666317293            142457    MD84000000007494 N  549977145232   DFC6C6D695TEB6F2768F6EA  000000000+600450S00130    MDJ  10813                     000000000  1                0000000000000.00 0000000.00   0000000.00                             000000000000000                                                                                                                                                   U001424  000000000000 0000000000000.26     00050 02200                  
03292650167280084DT67590675900000014274800102800000010180010287287283125900017998125050420230000002636212523000000000406984521131XXXXXX7779       ME03KE06MS02      NY 4607AMWEGHSC6J0501  N840000000026362          81DNCBD8666317293            00196Z    MC84000000026362 N  549977145232   9072302BE9T91F65FCA5C42  000000000+600450S00130    MWE  00737                     000000000  N                0000000000000.00 0000000.00   0000000.00                             000000000000000                                                                                                                                                   U001424  000000000000 0000000000006.95     02600 01000                  
03292660167280085DT67590675900000014274800102800000010180010287287283125900017998133050420230000002121112523000000000406984542418XXXXXX0350       ME03KE06MS02      NY 4607AMWEGHSM6J0501  N840000000021211          81DNCBD8666317293            01164P    MC84000000021211 N  549977145232   1B3D8C2124T848CC25D7A07  000000000+600450S00130    MWE  00737                     000000000  N                0000000000000.00 0000000.00   0000000.00                             000000000000000                                                                                                                                                   U001424  000000000000 0000000000005.61     02600 01000                  
03292670167280086DT67590675900000014274800102800000010180010287287283125900017998232050420230000002126112523000000000406984524300XXXXXX6460       ME03KE06MS02      NY 4607AMPLT8EAXU0501  N840000000021261          81DNCBD8666317293            00106B    MC84000000021261 N  549977145232   7E7A3B1085T657CB62D5A86  000000000+600450S00130    MPL  00580                     000000000  N                0000000000000.00 0000000.00   0000000.00                             000000000000000                                                                                                                                                   U001424  000000000000 0000000000004.56     02100 01000                  
03292680167280087DT67590675900000014274800102800000010180010287287283125900017998240050420230000001987012523000000000406984526929XXXXXX1586       ME03KE06MS02      NY 4607AMDJMV7H6I0501  N840000000019870          81DNCBD8666317293            465625    MD84000000019870 N  549977145232   50E4C8F222TF9CDACCBA30F  000000000+600450S00130    MDJ  10813                     000000000  1                0000000000000.00 0000000.00   0000000.00                             000000000000000                                                                                                                                                   U001424  000000000000 0000000000000.32     00050 02200                  
03292690167280088DT67590675900000014274800102800000010180010224001193125900017998264050420230000002106212523000000000406984401195XXXXXX5062               2111111   NYV4 A7W583121837138436N8400000000210629GQP00    01DNCBD8666317293            301460    VD84000000021062 NP1549977145232   7665D2CE3ET6EBA98301412  000000000+                F DF 00415                     000000000  N000000000       0000000000000.00 0000000.00   0000000.00                             000000000000000                                                                                                                                                     01424 G000000021062 0000000000003.63     01650 01500                  
03292700167280001P16759067590000001427480010280000001010000000000000000                             2000000000000000000000000              000000000000                    0000000000000000000000000                    000000000000                                                                                                                                                                                                                                                                                                                                                                                                                                                                                        
03292710167280089DT67590675900000014274800102800000010180010224001193125900017998355050420230000001518112523000000000406984451440XXXXXX0004               2111111   NYV4 A7W303122037387895N840000000015181JGMJ00    01DNCBD8666317293            180218    VD84000000015181 NP1549977145232   47A3A28AB1T467E2692F07A  000000000+                F PF 08175                     000000000  N000000000       0000000000000.00 0000000.00   0000000.00                             000000000000000                                                                                                                                                     01424 G000000015181 0000000000002.86     01750 02000                  
03292720167280001P16759067590000001427480010280000001010000000000000000                             2000000000000000000000000              000000000000                    0000000000000000000000000                    000000000000                                                                                                                                                                                                                                                                                                                                                                                                                                                                                        
03292730167280090DT67590675900000014274800102800000010180010287287283125900017998372050420230000001987012523000000000406984511217XXXXXX5136       ME03KE06MS02      NY 4607AMDJFM35ZX0501  N840000000019870          81DNCBD8666317293            003396    MD84000000019870 N  549977145232   9F1993A82FT1B1200C65526  000000000+600450S00130    MDJ  00401                     000000000  N                0000000000000.00 0000000.00   0000000.00                             000000000000000                                                                                                                                                   U001424  000000000000 0000000000003.43     01650 01500                  
03292740167280091DT67590675900000014274800102800000010180010224001193125900017998405050420230000001324512523000000000406984410039XXXXXX4773               2111111   NYV4 A7W463122060074458N840000000013245JKL400    01DNCBD8666317293            64979D    VS84000000013245 NP1549977145232   B8D2971E5ATDB27EF655139  000000000+                D CD 12109                     000000000  N000000000 498   0000000000000.00 0000000.00   0000000.00                             000000000000000                                                                                                                                                     01424 G000000013245 0000000000003.41     02500 01000                  
03292750167280001P16759067590000001427480010280000001010000000000000000                             2000000000000000000000000              000000000000                    0000000000000000000000000                    000000000000                                                                                                                                                                                                                                                                                                                                                                                                                                                                                        
03292760167280092DT67590675900000014274800102800000010180010224001193125900017998421050420230000000600412523000000000406984403766XXXXXX2504               2111111   NYV4 A7W303122099056019N840000000006004PCN400    01DNCBD8666317293            121054    VS84000000006004 NP1549977145232   7915AC704AT2E4F1E293498  000000000+                C CC 12108                     000000000  N000000000 496   0000000000000.00 0000000.00   0000000.00                             000000000000000                                                                                                                                                     01424 G000000006004 0000000000001.33     02050 01000                  
03292770167280001P16759067590000001427480010280000001010000000000000000                             2000000000000000000000000              000000000000                    0000000000000000000000000                    000000000000                                                                                                                                                                                                                                                                                                                                                                                                                                                                                        
03292780167280093DT67590675900000014274800102800000010180010287287283125900017998430050420230000002487012523000000000406984527515XXXXXX5035       ME03KE06MS02      NY 4607AMDJYC7VXU0501  N840000000024870          81DNCBD8666317293            184652    MD84000000024870 N  549977145232   C4220010D1T423DE767ABE6  000000000+600450S00130    MDJ  10813                     000000000  1                0000000000000.00 0000000.00   0000000.00                             000000000000000                                                                                                                                                   U001424  000000000000 0000000000000.34     00050 02200                  
03292790167280094DT67590675900000014274800102800000010180010287287283125900017901772050420230000000149512523000000000406984546616XXXXXX7854       ME03KE06MS02      NY 4607AMWENK8R5S0504  N840000000001495          81DNCBD8666317293            77981P    MC84000000001495 N  549977145232   41CABDCA7CTCE46D1BBBE3C  000000000+600450S00130    MWE  00737                     000000000  N                0000000000000.00 0000000.00   0000000.00                             000000000000000                                                                                                                                                   U001424  000000000000 0000000000000.49     02600 01000                  
03292800167280095DT67590675900000014274800102800000010180010287287283125900017901913050420230000002106212523000000000406984514759XXXXXX0009       ME03KE06MS02      NY 4607AMDJDE73DS0504  N840000000021062          81DNCBD8666317293            023856    MD84000000021062 N  549977145232   FC8E3507E9TC56A8A9BD0DE  000000000+600450S00130    MDJ  10813                     000000000  1                0000000000000.00 0000000.00   0000000.00                             000000000000000                                                                                                                                                   U001424  000000000000 0000000000000.33     00050 02200                  
03292810167280096DT67590675900000014274800102800000010180010224001193125900017901938050420230000002255012523000000000406984440393XXXXXX0378               2111111   NYV4 A7W583125135048026N840000000022550JJ2400    01DNCBD8666317293            921432    VD84000000022550 NP1549977145232   C81798F2D0TA45DE4CC962A  000000000+                F PF 08175                     000000000  N000000000       0000000000000.00 0000000.00   0000000.00                             000000000000000                                                                                                                                                     01424 G000000022550 0000000000004.15     01750 02000                  
03292820167280001P16759067590000001427480010280000001010000000000000000                             2000000000000000000000000              000000000000                    0000000000000000000000000                    000000000000                                                                                                                                                                                                                                                                                                                                                                                                                                                                                        
03292830167280097DT67590675900000014274800102800000010680010287287283125900017902994050420230000000639812523000000000406984534900XXXXXX1807                         NY94607N         0505  N840000000000000          81CNCBD8666317293                      MD84000000006398 N  549977145232   25033B640DT91FAC54A82C6  000000000+600450S00130    MDJ  00560                     000000000  N                0000000000000.00 0000000.00   0000000.00                             000000000000000                                                                                                                                                     01424  000000000000 0000000000000.00     00000 00000                  
03292840167280098DT67590675900000014274800102800000010680010287287283125900017901954050420230000002111212523000000000406984524366XXXXXX9301                         NY 4607AMPLGVTDDS0504  N840000000021112          81CNCBD8666317293            004728    MC84000000021112 N  549977145232   839154598DT0EC46102FB06  000000000+600450S00130    MPL  00565                     000000000  N                0000000000000.00 0000000.00   0000000.00                             000000000000000                                                                                                                                                     01424  000000000000-0000000000003.69     01750 00000                  
03292850167280099DT67590675900000014274800102800000010180010224001193125900017902027050520230000001987012523000000000406984423957XXXXXX8786               2111111   NYV4 A7W383125274328498N840000000019870ZPTJ00    01DNCBD8666317293            023712    VD84000000019870 NP1549977145232   A1013673BET530E73B1E428  000000000+                F DF 00415                     000000000  N000000000       0000000000000.00 0000000.00   0000000.00                             000000000000000                                                                                                                                                     01424 G000000019870 0000000000003.43     01650 01500                  
