01900450689800002BH6759067590000000215480088880000090170130202303023000000000051984    0000090001958280N8008886759C01312023                                                                                                                                                                                                                                                                                                                                                                                                                                                                                                                                                                                                 
01900460689800003DT67590675900000002154800888800000010180088887287283030900019513645013020230000002575003023000000000051984551110XXXXXX1194       ME03KE06MS02      NY 4607AMDJCA2BX20130  N840000000025750          81DNDRIP DROP DISTRO LLC     419516    MD84000000025750 N  519900000001   17376                    000000000+600450S00140    MDJ  00401                     000000000  N                0000000000000.00 0000000.00   0000000.00                             000000000000000                                                                                                                                                   U001418  000000000000 0000000000004.40     01650 01500                  
01900470689800004DT67590675900000002154800888800000010180088824001193030900019582805013020230000002623403023000000000051984424631XXXXXX5829               2111111   NYV4 A7W463030598215663N840000000026234VH4M00    01DNDRIP DROP DISTRO LLC     01057G    VB84000000026234 NP1519971004114   17374                    000000000+                G CG 00690                     000000000  N000000000 231   0000000000000.00 0000000.00   0000000.00                             000000000000000                                                                                                                                                     01418 G000000026234 0000000000007.05     02650 01000                  
01900480689800001P16759067590000000215480088880000001010000000000000000    43905478050              2000000000000000000000000              000000000000                    0000000000000000000000000                    000000000000                                                                                                                                                                                                                                                                                                                                                                                                                                                                                        
01900490689800005BH6759067590000000288180088880000090170130202303023000000000082544    0000090001320020N8008886759C01312023                                                                                                                                                                                                                                                                                                                                                                                                                                                                                                                                                                                                 
01900500689800006DT67590675900000002881800888800000010180088877287283030900013200018013020230000001292603023000000000082544511953XXXXXX5690       MS02WI09          NY 1 0 AMDJG07QV00130  N840000000012926          05DNHAPPY HIPPIE             070075    MD84000000012926 N  549976487158                            000000000+M10101C5434C    MDJ  00402                     000000000  N                0000000000000.00 0000000.00   0000000.00                             000000000000000                                                                                                                                                   B101418  000000000000 0000000000001.51     01050 01500                  
01900510689800007DT67590675900000002881800888800000010180088824001193030900013200024013020230000000439003023000000000082544419090XXXXXX9222       VS11    0001111   NYV1 A E463030557937438N840000000004390RTS200    05DNHAPPY HIPPIE             154480    VD84000000004390 N  549976487158                            000000000+                F DF 00381                     000000000  N000000000       0000000000000.00 0000000.00   0000000.00                             000000000000000                                                                                                                                                     01418 A000000000000 0000000000000.50     00800 01500                  
01900520689800008DT67590675900000002881800888800000010180088824001193030900013200032013020230000000572703023000000000082544443238XXXXXX1229       VS11    0001111   NYV1 A E303030604264475N840000000005727L64T00    05DNHAPPY HIPPIE             014706    VD84000000005727 N  549976487158                            000000000+                F DF 00381                     000000000  N000000000       0000000000000.00 0000000.00   0000000.00                             000000000000000                                                                                                                                                     01418 A000000000000 0000000000000.61     00800 01500                  
01900530689800009DT67590675900000002881800888800000010180088877287283030900013200042013020230000000790103023000000000082544511953XXXXXX9256       MS02WI09          NY 1 0 AMDJVNRQVZ0130  N840000000007901          07DNHAPPY HIPPIE             026262    MD84000000007901 N  549976487158                            000000000+M10101M5434C    MDJ  00402                     000000000  N                0000000000000.00 0000000.00   0000000.00                             000000000000000                                                                                                                                                   B101418  000000000000 0000000000000.98     01050 01500                  
01900540689800010DT67590675900000002881800888800000010180088824001193030900013200057013020230000000295003023000000000082544420231XXXXXX9926       VS11    0001111   NYV1 A E583030685780051N840000000002950MB9900    05DNHAPPY HIPPIE             310320    VS84000000002950 N  549976487158                            000000000+                D CD 12113                     000000000  N000000000 499   0000000000000.00 0000000.00   0000000.00                             000000000000000                                                                                                                                                     01418 A000000000000 0000000000000.72     02100 01000                  
01900550689800011DT67590675900000002881800888800000010180088877287283030900013200067013020230000000125003023000000000082544517148XXXXXX2701       MS02WI09          NY 1 0 AMWEUXJMJ40130  N840000000001250          05DNHAPPY HIPPIE             00242Z    MC84000000001250 N  549976487158                            000000000+M10101C5434C    MWE  00743                     000000000  N                0000000000000.00 0000000.00   0000000.00                             000000000000000                                                                                                                                                   B101418  000000000000 0000000000000.33     02300 00400                  
01900560689800012DT67590675900000002881800888800000010180088824001193030900013200073013020230000000246803023000000000082544435545XXXXXX9025       VS11    0001111   NYV1 A E303030708326575N840000000002468JVCB00    05DNHAPPY HIPPIE             083139    VD84000000002468 N  549976487158                            000000000+                F DF 10433                     000000000  Y000000000 338   0000000000000.00 0000000.00   0000000.00                             000000000000000                                                                                                                                                     01418 A000000000000 0000000000000.23     00050 02200                  
01900570689800013DT67590675900000002881800888800000010180088876509753030900013200089013020230000000351003023000000000082544601100XXXXXX9475   BA50                  NY41 0 N813025587886183N840000000003510    00    05DNHAPPY HIPPIE             03022R    DS84000000003510 N  549976487158050                         000000000+0000004910H00   DCCDI01000203068  124628000000 000000000  0          112   0000000000000.00 0000000.00   0000000.00                             000000000000000                                                                                                                                                     01418  000000000000 0000000000000.70     01720 01000                  
01900580689800014DT67590675900000002881800888800000010180088876509753030900013200097013020230000000252403023000000000082544601100XXXXXX9475   BA50                  NY41 0 N873025588753382N840000000002524    00    05DNHAPPY HIPPIE             03008R    DS84000000002524 N  549976487158050                         000000000+0000004910H00   DCCDI01000600058  124755000000 000000000  0          112   0000000000000.00 0000000.00   0000000.00                             000000000000000                                                                                                                                                     01418  000000000000 0000000000000.53     01720 01000                  
01900590689800015DT67590675900000002881800888800000010180088824001193030900013200107013020230000000493803023000000000082544480639XXXXXX1725       VS11    0001111   NYV1 A E383030714038380N840000000004938DJTK00    05DNHAPPY HIPPIE             814907    VD84000000004938 N  549976487158                            000000000+                F DF 00381                     000000000  N000000000       0000000000000.00 0000000.00   0000000.00                             000000000000000                                                                                                                                                     01418 A000000000000 0000000000000.55     00800 01500                  
01900600689800016DT67590675900000002881800888800000010180088824001193030900013200115013020230000000237103023000000000082544422921XXXXXX3240       VS11    0001111   NYV1 A E463030715727871N840000000002371VZDJ00    05DNHAPPY HIPPIE             053574    VD84000000002371 N  549976487158                            000000000+                F DF 00381                     000000000  N000000000       0000000000000.00 0000000.00   0000000.00                             000000000000000                                                                                                                                                     01418 A000000000000 0000000000000.34     00800 01500                  
01900610689800017DT67590675900000002881800888800000010180088876509753030900013200121013020230000000274203023000000000082544601100XXXXXX9475   BA50                  NY41 0 N803025592699538N840000000002742    00    05DNHAPPY HIPPIE             03011R    DS84000000002742 N  549976487158050                         000000000+0000004910H00   DCCDI01000402138  125429000000 000000000  0          112   0000000000000.00 0000000.00   0000000.00                             000000000000000                                                                                                                                                     01418  000000000000 0000000000000.57     01720 01000                  
01900620689800018DT67590675900000002881800888800000010180088876509753030900013200139013020230000000219403023000000000082544601100XXXXXX9475   BA50                  NY41 0 N753025600509461N840000000002194    00    05DNHAPPY HIPPIE             03026R    DS84000000002194 N  549976487158050                         000000000+0000004910H00   DCCDI01000600060  130730000000 000000000  0          112   0000000000000.00 0000000.00   0000000.00                             000000000000000                                                                                                                                                     01418  000000000000 0000000000000.48     01720 01000                  
01900630689800019DT67590675900000002881800888800000010180088824001193030900013200149013020230000000246803023000000000082544474487XXXXXX7148       VS11    0001111   NYV1 A E383030736904628N840000000002468PB9300    05DNHAPPY HIPPIE             112085    VD84000000002468 N  549976487158                            000000000+                F DF 10433                     000000000  Y000000000 338   0000000000000.00 0000000.00   0000000.00                             000000000000000                                                                                                                                                     01418 A000000000000 0000000000000.23     00050 02200                  
01900640689800020DT67590675900000002881800888800000010180088824001193030900013200156013020230000000493803023000000000082544440393XXXXXX1710       VS11    0001111   NYV1 A E303030742206087N8400000000049384V3600    05DNHAPPY HIPPIE             975852    VD84000000004938 N  549976487158                            000000000+                F PF 08170                     000000000  N000000000       0000000000000.00 0000000.00   0000000.00                             000000000000000                                                                                                                                                     01418 A000000000000 0000000000000.72     01150 01500                  
01900650689800021DT67590675900000002881800888800000010180088824001193030900013200164013020230000000274303023000000000082544435536XXXXXX1379       VS11    0001111   NYV1 A E583030747553713N840000000002743XJ2X00    05DNHAPPY HIPPIE             013054    VD84000000002743 N  549976487158                            000000000+                G DG 10351                     000000000  Y000000000 338   0000000000000.00 0000000.00   0000000.00                             000000000000000                                                                                                                                                     01418 A000000000000 0000000000000.23     00050 02200                  
01900660689800022DT67590675900000002881800888800000010180088824001193030900013200172013020230000000157603023000000000082544480639XXXXXX7410       VS11    0001111   NYV1 A E463030777699519N840000000001576V93600    05DNHAPPY HIPPIE             817719    VD84000000001576 N  549976487158                            000000000+                F DF 00381                     000000000  N000000000       0000000000000.00 0000000.00   0000000.00                             000000000000000                                                                                                                                                     01418 A000000000000 0000000000000.28     00800 01500                  
01900670689800023DT67590675900000002881800888800000010180088824001193030900013200180013020230000000554703023000000000082544491523XXXXXX7823       VS11    0001111   NYV1 A E463030809338355N8400000000055473KZ900    07DNHAPPY HIPPIE             002738    VD84000000005547 N  549976487158                            000000000+                F DF 10433                     000000000  Y000000000 338   0000000000000.00 0000000.00   0000000.00                             000000000000000                                                                                                                                                     01418 A000000000000 0000000000000.25     00050 02200                  
01900680689800024DT67590675900000002881800888800000010180088824001193030900013200198013020230000000246803023000000000082544440393XXXXXX8447       VS11    0001111   NYV1 A E303030813918511N840000000002468FWSQ00    07DNHAPPY HIPPIE             122680    VD84000000002468 N  549976487158                            000000000+                F PF 08170                     000000000  N000000000       0000000000000.00 0000000.00   0000000.00                             000000000000000                                                                                                                                                     01418 A000000000000 0000000000000.43     01150 01500                  
01900690689800025DT67590675900000002881800888800000010180088824001193030900013200206013020230000000691303023000000000082544414720XXXXXX7758               1001111   NYV1 A K463030816751152N840000000006913RM2B00    01DNHAPPY HIPPIE             03483D    VS84000000006913 N  549976487158                            000000000+                D CD 12109                     000000000  N000000000 498   0000000000000.00 0000000.00   0000000.00                             000000000000000                                                                                                                                                     01418 E000000000000 0000000000001.83     02500 01000                  
01900700689800026BH6759067590000000288180088880000090170130202303023000000000069131    0000090001320020N8008886759C01312023                                                                                                                                                                                                                                                                                                                                                                                                                                                                                                                                                                                                 
01900710689800027DT67590675900000002881800888800000010180088824001193030900013200016013020230000000316103023000000000069131419090XXXXXX5725       VS11    0001111   NYV1 A E463030578383085N8400000000031614F8G00    05DNHAPPY HIPPIE             155287    VD84000000003161 N  549976487134                            000000000+                F DF 00381                     000000000  N000000000       0000000000000.00 0000000.00   0000000.00                             000000000000000                                                                                                                                                     01418 A000000000000 0000000000000.40     00800 01500                  
01900720689800028DT67590675900000002881800888800000010180088877287283030900013200026013020230000000148103023000000000069131548974XXXXXX2406       MS02WI09          NY 1 0 AMPATGZZVZ0130  N840000000001481          07DNHAPPY HIPPIE             019405    MD84000000001481 N  549976487134                            000000000+M10101M0034C    MPA  00505                     000000000  N                0000000000000.00 0000000.00   0000000.00                             000000000000000                                                                                                                                                   A101418  000000000000 0000000000000.27     01550 00400                  
01900730689800029DT67590675900000002881800888800000010180088824001193030900013200032013020230000000651703023000000000069131419090XXXXXX9633       VS11    0001111   NYV1 A E463030592013175N840000000006517447X00    05DNHAPPY HIPPIE             155964    VD84000000006517 N  549976487134                            000000000+                F DF 00381                     000000000  N000000000       0000000000000.00 0000000.00   0000000.00                             000000000000000                                                                                                                                                     01418 A000000000000 0000000000000.67     00800 01500                  
01900740689800030DT67590675900000002881800888800000010180088824001193030900013200040013020230000000395003023000000000069131419090XXXXXX3821       VS11    0001111   NYV1 A E583030594462114N840000000003950GLTR00    05DNHAPPY HIPPIE             156088    VD84000000003950 N  549976487134                            000000000+                F DF 00381                     000000000  N000000000       0000000000000.00 0000000.00   0000000.00                             000000000000000                                                                                                                                                     01418 A000000000000 0000000000000.47     00800 01500                  
01900750689800031DT67590675900000002881800888800000010180088824001193030900013200057013020230000000286303023000000000069131414740XXXXXX7450       VS11    0001111   NYV1 A E303030603554035N840000000002863GVS300    07DNHAPPY HIPPIE             06667D    VS84000000002863 N  549976487134                            000000000+                D CD 12113                     000000000  N000000000 499   0000000000000.00 0000000.00   0000000.00                             000000000000000                                                                                                                                                     01418 A000000000000 0000000000000.70     02100 01000                  
01900760689800032DT67590675900000002881800888800000010180088824001193030900013200065013020230000000548803023000000000069131422921XXXXXX1431       VS11    0001111   NYV1 A E583030610518878N840000000005488MJBL00    07DNHAPPY HIPPIE             043052    VD84000000005488 N  549976487134                            000000000+                F DF 00381                     000000000  N000000000       0000000000000.00 0000000.00   0000000.00                             000000000000000                                                                                                                                                     01418 A000000000000 0000000000000.59     00800 01500                  
01900770689800033DT67590675900000002881800888800000010180088824001193030900013200073013020230000000454303023000000000069131419090XXXXXX5672       VS11    0001111   NYV1 A E383030625433217N840000000004543Q9F700    05DNHAPPY HIPPIE             157740    VD84000000004543 N  549976487134                            000000000+                F DF 00381                     000000000  N000000000       0000000000000.00 0000000.00   0000000.00                             000000000000000                                                                                                                                                     01418 A000000000000 0000000000000.51     00800 01500                  
01900780689800034DT67590675900000002881800888800000010180088876509753030900013200089013020230000000137103023000000000069131601101XXXXXX0847   BA50                  NY41 0 N803025528757860N840000000001371    00    05DNHAPPY HIPPIE             03036R    DS84000000001371 N  549976487134050                         000000000+0000004910H00   DCCDI00996002102  110755000000 000000000  0          108   0000000000000.00 0000000.00   0000000.00                             000000000000000                                                                                                                                                     01418  000000000000 0000000000000.27     01950 00000                  
01900790689800035DT67590675900000002881800888800000010180088824001193030900013200099013020230000000947003023000000000069131404227XXXXXX3237       VS11    0001111   NYV1 A E303030657077932N840000000009470WK3R00    05DNHAPPY HIPPIE             666440    VD84000000009470 N  549976487134                            000000000+                F DF 00381                     000000000  N000000000       0000000000000.00 0000000.00   0000000.00                             000000000000000                                                                                                                                                     01418 A000000000000 0000000000000.91     00800 01500                  
01900800689800036DT67590675900000002881800888800000010180088877287283030900013200109013020230000000090003023000000000069131552393XXXXXX1286       MS02WI09          NY 1 0 AMCWAGU0J50130  N840000000000900          05DNHAPPY HIPPIE             03010Z    MC84000000000900 N  549976487134                            000000000+M10101C5434C    MCW  00646                     000000000  N                0000000000000.00 0000000.00   0000000.00                             000000000000000                                                                                                                                                   B101418  000000000000 0000000000000.21     01900 00400                  
01900810689800037DT67590675900000002881800888800000010180088824001193030900013200115013020230000000076703023000000000069131435983XXXXXX2751       VK04VS111111111   NYV1 A E383030717196036N840000000000767WCXQ00    07DNHAPPY HIPPIE             310355    VS84000000000767 N  549976487134                            000000000+                C CC 12055                     000000000  N000000000 451   0000000000000.00 0000000.00   0000000.00                             000000000000000                                                                                                                                                     01418 F000000000000 0000000000000.17     02200 00000                  
01900820689800038DT67590675900000002881800888800000010180088824001193030900013200123013020230000000651703023000000000069131415976XXXXXX7965       VS11    0001111   NYV1 A E583030769182195N840000000006517L2JH00    07DNHAPPY HIPPIE             093166    VD84000000006517 N  549976487134                            000000000+                F DF 10433                     000000000  Y000000000 338   0000000000000.00 0000000.00   0000000.00                             000000000000000                                                                                                                                                     01418 A000000000000 0000000000000.25     00050 02200                  
01900830689800039DT67590675900000002881800888800000010180088824001193030900013200131013020230000000068603023000000000069131498503XXXXXX6417       VK04VS111111111   NYV1 A E383030780342534N8400000000006866PJC00    05DNHAPPY HIPPIE             000597    VD84000000000686 N  549976487134                            000000000+                F DF 00451                     000000000  N000000000 214   0000000000000.00 0000000.00   0000000.00                             000000000000000                                                                                                                                                     01418 F000000000000 0000000000000.15     01550 00400                  
01900840689800040DT67590675900000002881800888800000010180088824001193030900013200149013020230000000395003023000000000069131443264XXXXXX3780       VS11    0001111   NYV1 A E383030781243219N840000000003950KZ8F00    07DNHAPPY HIPPIE             000357    VD84000000003950 N  549976487134                            000000000+                F DF 10433                     000000000  Y000000000 338   0000000000000.00 0000000.00   0000000.00                             000000000000000                                                                                                                                                     01418 A000000000000 0000000000000.24     00050 02200                  
01900850689800041DT67590675900000002881800888800000010180088824001193030900013200156013020230000000302803023000000000069131435547XXXXXX9872       VS11    0001111   NYV1 A E583030784872765N840000000003028RSLV00    07DNHAPPY HIPPIE             070062    VD84000000003028 N  549976487134                            000000000+                F DF 10433                     000000000  Y000000000 338   0000000000000.00 0000000.00   0000000.00                             000000000000000                                                                                                                                                     01418 A000000000000 0000000000000.24     00050 02200                  
01900860689800042DT67590675900000002881800888800000010180088824001193030900013200164013020230000000325803023000000000069131480639XXXXXX6834       VS11    0001111   NYV1 A E303030785552816N840000000003258J8ZW00    05DNHAPPY HIPPIE             818140    VD84000000003258 N  549976487134                            000000000+                F DF 00381                     000000000  N000000000       0000000000000.00 0000000.00   0000000.00                             000000000000000                                                                                                                                                     01418 A000000000000 0000000000000.41     00800 01500                  
01900870689800043DT67590675900000002881800888800000010180088877287283030900013200174013020230000000478803023000000000069131511953XXXXXX7855       MS02WI09          NY 1 0 AMDJFKR7J50130  N840000000004788          07DNHAPPY HIPPIE             067355    MD84000000004788 N  549976487134                            000000000+M10101M0034C    MDJ  00402                     000000000  N                0000000000000.00 0000000.00   0000000.00                             000000000000000                                                                                                                                                   B101418  000000000000 0000000000000.65     01050 01500                  
01900880689800044DT67590675900000002881800888800000010180088824001193030900013200180013020230000000196203023000000000069131445102XXXXXX2101       VS11    0001111   NYV1 A E463030795694113N840000000001962MBQP00    05DNHAPPY HIPPIE             015232    VD84000000001962 N  549976487134                            000000000+                F DF 10433                     000000000  Y000000000 338   0000000000000.00 0000000.00   0000000.00                             000000000000000                                                                                                                                                     01418 A000000000000 0000000000000.23     00050 02200                  
01900890689800045DT67590675900000002881800888800000010180088824001193030900013200198013020230000000087603023000000000069131474474XXXXXX3826       VK04VS111111111   NYV1 A E463030820579076N840000000000876L3HX00    07DNHAPPY HIPPIE             114370    VD84000000000876 N  549976487134                            000000000+                F DF 10439                     000000000  Y000000000 331   0000000000000.00 0000000.00   0000000.00                             000000000000000                                                                                                                                                     01418 F000000000000 0000000000000.22     00050 02200                  
01900900689800046DT67590675900000002881800888800000010180088824001193030900013200206013020230000000355503023000000000069131480639XXXXXX2860       VS11    0001111   NYV1 A E303030825265140N840000000003555BKM300    05DNHAPPY HIPPIE             819962    VD84000000003555 N  549976487134                            000000000+                F DF 00381                     000000000  N000000000       0000000000000.00 0000000.00   0000000.00                             000000000000000                                                                                                                                                     01418 A000000000000 0000000000000.43     00800 01500                  
01900910689800047BH6759067590000000096880088880000090170130202303023000000000006451    0000090001327439N8008886759C01312023                                                                                                                                                                                                                                                                                                                                                                                                                                                                                                                                                                                                 
01900920689800048DT67590675900000000968800888800000010180088824001193030900013274391013020230000000645103023000000000006451473702XXXXXX4981               2111111   NYV4 A7W463030600305813N840000000006451D7D300    01DNHIGHER FLOUR LLC         030754    VD84000000006451 NP1546271004114   RDKFUYAFGPM43ZSYPAIM     000000000+                F DF 10420                     000000000  Y000000000 338   0000000000000.00 0000000.00   0000000.00                             000000000000000                                                                                                                                                     01418 G000000006451 0000000000000.25     00050 02200                  
01900930689800001P16759067590000000096880088880000001010000000000000000                             2000000000000000000000000              000000000000                    0000000000000000000000000                    000000000000                                                                                                                                                                                                                                                                                                                                                                                                                                                                                        
