00013660584340002BH6759067590000002092580011280000090170725202320623000000000047387    0000090001590131Y8001126759C07262023059                                                                                                                                                                                                                                                                                                                                                                                                                                                                                                                                                                                              
00013670584340003DT67590675900000020925800112800000010180011224001193206900015901312072520230000004738720623000000000047387425828XXXXXX1493               2111111   NYV4 A7W303206574761397N840000000047387SWH300    01DNJ K DISTRIBUTION INC     073113    VD84000000047387 NDR549977712156   8561844177               000000000+                F DF 10420                     000000000  Y000000000 338   0000000000000.00 0000000.00   0000000.00                             000000000000000                                                                                                                                                     01424 G000000047387 0000000000000.46     00050 02200                  
00013680584340003DR6759067590000002092580011280000001018561844177               Z000000047387                 P1                                                                                                                                                                                                                                                                                                                                                                                                                                                                                                                                                                                                            
00013690584340001P16759067590000002092580011280000001010000000000000000                             2000000000000000000000000              000000000000                    0000000000000000000000000                    000000000000                                                                                                                                                                                                                                                                                                                                                                                                                                                                                        
00013700584340002G2675906759000000209258001128000000101203-8159817              CT           9 D                00                                      NNNN   N                      000000000000                                                                   77712156                                                                                                                                                                                                                                                                                                                                                                                                                                               
00013710584340004BH675906759000000151648008888000009017072520232062300000000003681801970000090001459121N8008886759D07262023145                                                                                                                                                                                                                                                                                                                                                                                                                                                                                                                                                                                              
00013720584340005DT67590675900000015164800888800000010680088887287283206900014591206072520230000002487020623000000000036818524366XXXXXX3302                         NN 4607AMPLYDSOHX0725  N840000000024870          81CNKETOFUSION833-923-3587   0255770197MC84000000024870 NDR599977360677   AC6BE6B18ET2835A18FB484  000000000+600450S00130    MPL  00000                     000000000  N                0000000000000.00 0000000.00   0000000.00             000000000024870C000000000000000                                                                                                                                                     01424  000000000000 0000000000000.00     00000 00000                  
00013730584340005DR675906759000000151648008888000000106AC6BE6B18ET2835A18FB484  R000000000000                                                                                                                                                                                                                                                                                                                                                                                                                                                                                                                                                                                                                               
00013740584340001G2675906759000000151648008888000000106833-9233587              UT           9 L               210                                      NNNN           210000000000000000000000000                        7                                          77360677                                                                                                                                                                                                                                                                                                                                                                                                                                               
00013750584340006DT67590675900000015164800888800000010680088887287283206900014591214072520230000001194820623000000000036818536062XXXXXX4288                         NN 4607AMDJRTO3HX0725  N840000000011948          81CNKETOFUSION833-923-3587   B957800197MD84000000011948 NDR599977360677   0C0B666FE0TDE7D17800F6D  000000000+600450S00130    MDJ  00000                     000000000  1                0000000000000.00 0000000.00   0000000.00             000000000011948C000000000000000                                                                                                                                                     01424  000000000000 0000000000000.00     00000 00000                  
00013760584340006DR6759067590000001516480088880000001060C0B666FE0TDE7D17800F6D  U000000000000                                                                                                                                                                                                                                                                                                                                                                                                                                                                                                                                                                                                                               
00013770584340001G2675906759000000151648008888000000106833-9233587              UT           9 J               210                                      NNNN           210000000000000000000000000                        7                                          77360677                                                                                                                                                                                                                                                                                                                                                                                                                                               
00013780584340007BH6759067590000004650880015980000090170725202320623000000000228438    0000090001020050Y8001596759C07262023002                                                                                                                                                                                                                                                                                                                                                                                                                                                                                                                                                                                              
00013790584340008DT67590675900000046508800159800000010180015973011003206900010200252072420230000002687520623000000000228438376761XXXXX5003                          NY 4 07N008512244498065N840000000026875          01DNMELKEE LOCAL VENTURING LL246149    AM84000000026875 YP1596978766724   NMI6560430               000000000+6004S0S00130 258     11266                     000000000                   0000000000000.00 0000000.00   0000000.00                             000000000000000 61248972656759675900000046508 MELKEE LOCAL VENTURING LL1150 N LOOP 1604 W ST 1087262083508      78248     INFO@KETOSQUIRREL.COM                     01324  000000000000 0000000000005.48     02000 00000                  
00013800584340001P1675906759000000465088001598000000101                    NMI6560430                            00000000000075071     8000   000000000923481034            000000000000                                                                                                      D                                                                                                                                                                                                                                                                                                                                                                                                                             
00013810584340002P2675906759000000465088001598000000101                                                                                              00000                   000000000                                                                                                                                                                                                                                                                                                                                                                                                                                                                                                                                      
00013820584340003G2675906759000000465088001598000000101SAN ANTONIO              TX           9                  00                  923481034           YNNN                          000000000000                                                                   78766724                                                                                                                                                                                                                                                                                                                                                                                                                                               
00013830584340009DT67590675900000046508800159800000010180015924001193206900010200298072420230000002150020623000000000228438410039XXXXXX0520               2111111   NYV4 A7W383206138787299N840000000021500VMMK00    01DNMELKEE LOCAL VENTURING - 30903D    VS84000000021500 NDR596978766724   NMI6560660               000000000+                D CD 12383                     000000000  N000000000 628   0000000000000.00 0000000.00   0000000.00                             000000000000000                                                                                                                                                     01424 G000000021500 0000000000005.26     02400 01000                  
00013840584340009DR675906759000000465088001598000000101NMI6560660               Y000000021500                 P1                                                                                                                                                                                                                                                                                                                                                                                                                                                                                                                                                                                                            
00013850584340001P16759067590000004650880015980000001010000000000000000                             2000000000000000000000000              000000000000                    0000000000000000000000000                    000000000000                                                                                                                                                                                                                                                                                                                                                                                                                                                                                        
00013860584340002G2675906759000000465088001598000000101800-2028993              TX           9 C                00                                      NNNN   Y                      000000000000                                                                   78766724                                                                                                                                                                                                                                                                                                                                                                                                                                               
00013870584340010DT67590675900000046508800159800000010180015987287283206900010200307072420230000000537520623000000000228438510805XXXXXX5212       ME07KE06MS02      NY 4607AMDJTRZYFU0724  N840000000005375          81DNMELKEE LOCAL VENTURING - 030844    MD84000000005375 NDR596978766724   NMI6560709               000000000+600450S00130    MDJ  10813                     000000000  1                0000000000000.00 0000000.00   0000000.00                             000000000000000                                                                                                                                                   U001424  000000000000 0000000000000.25     00050 02200                  
00013880584340010DR675906759000000465088001598000000101NMI6560709               Y000000000000                                                                                                                                                                                                                                                                                                                                                                                                                                                                                                                                                                                                                               
00013890584340001G2675906759000000465088001598000000101726-2083508              TX           9 J               210                                      NNNN           210000000000000000000000000                        7                                          78766724                                                                                                                                                                                                                                                                                                                                                                                                                                               
00013900584340011DT67590675900000046508800159800000010180015924001193206900010200314072420230000002257520623000000000228438443041XXXXXX9617               2111111   NYV4 A7W303206152784456N840000000022575XJ6J00    01DNMELKEE LOCAL VENTURING - 342275    VD84000000022575 NDR596978766724   NMI6560725               000000000+                F DF 10420                     000000000  Y000000000 338   0000000000000.00 0000000.00   0000000.00                             000000000000000                                                                                                                                                     01424 G000000022575 0000000000000.33     00050 02200                  
00013910584340011DR675906759000000465088001598000000101NMI6560725               Y000000022575                 P1                                                                                                                                                                                                                                                                                                                                                                                                                                                                                                                                                                                                            
00013920584340001P16759067590000004650880015980000001010000000000000000                             2000000000000000000000000              000000000000                    0000000000000000000000000                    000000000000                                                                                                                                                                                                                                                                                                                                                                                                                                                                                        
00013930584340002G2675906759000000465088001598000000101800-2028993              TX           9 D                00                                      NNNN   N                      000000000000                                                                   78766724                                                                                                                                                                                                                                                                                                                                                                                                                                               
00013940584340012DT67590675900000046508800159800000010180015924001193206900010200330072420230000001075020623000000000228438471927XXXXXX1612               2111111   NYV4 A7W303206176670318N840000000010750XXJ800    01DNMELKEE LOCAL VENTURING - 324245    VS84000000010750 NDR596978766724   NMI6560817               000000000+                B CB 12381                     000000000  N000000000 626   0000000000000.00 0000000.00   0000000.00                             000000000000000                                                                                                                                                     01424 G000000010750 0000000000002.04     01800 01000                  
00013950584340012DR675906759000000465088001598000000101NMI6560817               Y000000010750                 P1                                                                                                                                                                                                                                                                                                                                                                                                                                                                                                                                                                                                            
00013960584340001P16759067590000004650880015980000001010000000000000000                             2000000000000000000000000              000000000000                    0000000000000000000000000                    000000000000                                                                                                                                                                                                                                                                                                                                                                                                                                                                                        
00013970584340002G2675906759000000465088001598000000101800-2028993              TX           9 C                00                                      NNNN   Y                      000000000000                                                                   78766724                                                                                                                                                                                                                                                                                                                                                                                                                                               
00013980584340013DT67590675900000046508800159800000010180015924001193206900010200363072520230000001075020623000000000228438473702XXXXXX4532               2111111   NYV4 A7W463206208474094N840000000010750JMMW00    01DNMELKEE LOCAL VENTURING - 000880    VD84000000010750 NDR596978766724   NMI6560960               000000000+                F DF 10420                     000000000  Y000000000 338   0000000000000.00 0000000.00   0000000.00                             000000000000000                                                                                                                                                     01424 G000000010750 0000000000000.27     00050 02200                  
00013990584340013DR675906759000000465088001598000000101NMI6560960               Y000000010750                 P1                                                                                                                                                                                                                                                                                                                                                                                                                                                                                                                                                                                                            
00014000584340001P16759067590000004650880015980000001010000000000000000                             2000000000000000000000000              000000000000                    0000000000000000000000000                    000000000000                                                                                                                                                                                                                                                                                                                                                                                                                                                                                        
00014010584340002G2675906759000000465088001598000000101800-2028993              TX           9 D                00                                      NNNN   N                      000000000000                                                                   78766724                                                                                                                                                                                                                                                                                                                                                                                                                                               
00014020584340014DT67590675900000046508800159800000010180015924001193206900010200397072520230000001182520623000000000228438461046XXXXXX0060               2111111   NYV4 A7W583206372012855N8400000000118258MFQ00    01DNMELKEE LOCAL VENTURING - 012006    VD84000000011825 NDR596978766724   NMI6561760               000000000+                F DF 10420                     000000000  Y000000000 338   0000000000000.00 0000000.00   0000000.00                             000000000000000                                                                                                                                                     01424 G000000011825 0000000000000.28     00050 02200                  
00014030584340014DR675906759000000465088001598000000101NMI6561760               Y000000011825                 P1                                                                                                                                                                                                                                                                                                                                                                                                                                                                                                                                                                                                            
00014040584340001P16759067590000004650880015980000001010000000000000000                             2000000000000000000000000              000000000000                    0000000000000000000000000                    000000000000                                                                                                                                                                                                                                                                                                                                                                                                                                                                                        
00014050584340002G2675906759000000465088001598000000101800-2028993              TX           9 D                00                                      NNNN   N                      000000000000                                                                   78766724                                                                                                                                                                                                                                                                                                                                                                                                                                               
00014060584340015DT67590675900000046508800159800000010180015924001193206900010200413072520230000000806320623000000000228438461046XXXXXX7422               2111111   NYV4 A7W303206418459926N840000000008063FZNR00    01DNMELKEE LOCAL VENTURING - 053707    VD84000000008063 NDR596978766724   NMI6562042               000000000+                F DF 10420                     000000000  Y000000000 338   0000000000000.00 0000000.00   0000000.00                             000000000000000                                                                                                                                                     01424 G000000008063 0000000000000.26     00050 02200                  
00014070584340015DR675906759000000465088001598000000101NMI6562042               Y000000008063                 P1                                                                                                                                                                                                                                                                                                                                                                                                                                                                                                                                                                                                            
00014080584340001P16759067590000004650880015980000001010000000000000000                             2000000000000000000000000              000000000000                    0000000000000000000000000                    000000000000                                                                                                                                                                                                                                                                                                                                                                                                                                                                                        
00014090584340002G2675906759000000465088001598000000101800-2028993              TX           9 D                00                                      NNNN   N                      000000000000                                                                   78766724                                                                                                                                                                                                                                                                                                                                                                                                                                               
00014100584340016DT67590675900000046508800159800000010180015924001193206900010200421072520230000001075020623000000000228438435546XXXXXX9971               2111111   NYV4 A7W583206421848007N840000000010750DRWN00    01DNMELKEE LOCAL VENTURING - 044044    VD84000000010750 NDR596978766724   NMI6562067               000000000+                F DF 10420                     000000000  Y000000000 338   0000000000000.00 0000000.00   0000000.00                             000000000000000                                                                                                                                                     01424 G000000010750 0000000000000.27     00050 02200                  
00014110584340016DR675906759000000465088001598000000101NMI6562067               Y000000010750                 P1                                                                                                                                                                                                                                                                                                                                                                                                                                                                                                                                                                                                            
00014120584340001P16759067590000004650880015980000001010000000000000000                             2000000000000000000000000              000000000000                    0000000000000000000000000                    000000000000                                                                                                                                                                                                                                                                                                                                                                                                                                                                                        
00014130584340002G2675906759000000465088001598000000101800-2028993              TX           9 D                00                                      NNNN   N                      000000000000                                                                   78766724                                                                                                                                                                                                                                                                                                                                                                                                                                               
00014140584340017DT67590675900000046508800159800000010180015987287283206900010200448072520230000001075020623000000000228438510805XXXXXX5212       ME07KE06MS02      NY 4607AMDJK2VGH20725  N840000000010750          81DNMELKEE LOCAL VENTURING - 071134    MD84000000010750 NDR596978766724   NMI6562188               000000000+600450S00130    MDJ  10813                     000000000  1                0000000000000.00 0000000.00   0000000.00                             000000000000000                                                                                                                                                   U001424  000000000000 0000000000000.27     00050 02200                  
00014150584340017DR675906759000000465088001598000000101NMI6562188               Y000000000000                                                                                                                                                                                                                                                                                                                                                                                                                                                                                                                                                                                                                               
00014160584340001G2675906759000000465088001598000000101726-2083508              TX           9 J               210                                      NNNN           210000000000000000000000000                        7                                          78766724                                                                                                                                                                                                                                                                                                                                                                                                                                               
00014170584340018DT67590675900000046508800159800000010180015987287283206900010200471072520230000004622520623000000000228438546616XXXXXX2888       ME07KE06MS02      NY 4607AMWEFJ3VHY0725  N840000000046225          81DNMELKEE LOCAL VENTURING - 44545P    MC84000000046225 NDR596978766724   NMI6562474               000000000+600450S00130    MWE  00737                     000000000  N                0000000000000.00 0000000.00   0000000.00                             000000000000000                                                                                                                                                   U001424  000000000000 0000000000012.12     02600 01000                  
00014180584340018DR675906759000000465088001598000000101NMI6562474               Y000000000000                                                                                                                                                                                                                                                                                                                                                                                                                                                                                                                                                                                                                               
00014190584340001G2675906759000000465088001598000000101726-2083508              TX           9 E               210                                      NNNN           210000000000000000000000000                        7                                          78766724                                                                                                                                                                                                                                                                                                                                                                                                                                               
00014200584340019DT67590675900000046508800159800000010180015924001193206900010200488072520230000001075020623000000000228438403784XXXXXX2318               2111111   NYV4 A7W463206516542409N840000000010750QQB600    01DNMELKEE LOCAL VENTURING - 905202    VS84000000010750 NDR596978766724   NMI6562698               000000000+                A CA 12380                     000000000  N000000000 625   0000000000000.00 0000000.00   0000000.00                             000000000000000                                                                                                                                                     01424 G000000010750 0000000000001.87     01650 01000                  
00014210584340019DR675906759000000465088001598000000101NMI6562698               Y000000010750                 P1                                                                                                                                                                                                                                                                                                                                                                                                                                                                                                                                                                                                            
00014220584340001P16759067590000004650880015980000001010000000000000000                             2000000000000000000000000              000000000000                    0000000000000000000000000                    000000000000                                                                                                                                                                                                                                                                                                                                                                                                                                                                                        
00014230584340002G2675906759000000465088001598000000101800-2028993              TX           9 C                00                                      NNNN   Y                      000000000000                                                                   78766724                                                                                                                                                                                                                                                                                                                                                                                                                                               
00014240584340020DT67590675900000046508800159800000010180015987287283206900010200505072520230000003225020623000000000228438512230XXXXXX9032       ME07KE06MS02      NY 4607AMWEK1Q70P0725  N840000000032250          81DNMELKEE LOCAL VENTURING - 18320Z    MC84000000032250 NDR596978766724   NMI6562757               000000000+600450S00130    MWE  00737                     000000000  N                0000000000000.00 0000000.00   0000000.00                             000000000000000                                                                                                                                                   U001424  000000000000 0000000000008.49     02600 01000                  
00014250584340020DR675906759000000465088001598000000101NMI6562757               Y000000000000                                                                                                                                                                                                                                                                                                                                                                                                                                                                                                                                                                                                                               
00014260584340001G2675906759000000465088001598000000101726-2083508              TX           9 E               210                                      NNNN           210000000000000000000000000                                                                   78766724                                                                                                                                                                                                                                                                                                                                                                                                                                               
00014270584340021BH6759067590000004749880016180000090170725202320623000000000013230    0000090001010002Y8001616759C07262023001                                                                                                                                                                                                                                                                                                                                                                                                                                                                                                                                                                                              
00014280584340022DT67590675900000047498800161800000010180016124001193206900010100019072520230000000184520623000000000013230414718XXXXXX1863               2111111   NYV4 A7W583206711163858N84000000000184597X300    01DNKUSHIEBITES8773144242    025169    VS84000000001845 NDR599978777627   10238                    000000000+                D CD 12109                     000000000  N000000000 498   0000000000000.00 0000000.00   0000000.00                             000000000000000                                                                                                                                                     01424 G000000001845 0000000000000.56     02500 01000                  
00014290584340022DR67590675900000047498800161800000010110238                    Y000000001845                 P1                                                                                                                                                                                                                                                                                                                                                                                                                                                                                                                                                                                                            
00014300584340001P16759067590000004749880016180000001010000000000000000                             2000000000000000000000000              000000000000                    0000000000000000000000000                    000000000000                                                                                                                                                                                                                                                                                                                                                                                                                                                                                        
00014310584340002G2675906759000000474988001618000000101877-3144242              FL           9 C                00                                      NNNN   Y                      000000000000                                                                   78777627                                                                                                                                                                                                                                                                                                                                                                                                                                               
00014320584340023DT67590675900000047498800161800000010180016173011003206900010100023072520230000001138520623000000000013230372534XXXXX1010                          NY 4 07N008531427425067N840000000011385          01DNCHEAPER THAN A SHRINK LLC200683    AM84000000011385 Y  599978777627                            000000000+6004S0S00130 258     11262                     000000000                   0000000000000.00 0000000.00   0000000.00                             000000000000000 61248972086759675900000047498 CHEAPER THAN A SHRINK LLC11767 S DIXIE HWY 374    8773144242      33156     INFO@KUSHIEBITES.COM                      01324  000000000000 0000000000002.32     01950 00000                  
00014330584340001G2675906759000000474988001618000000101MIAMI                    FL           9                  00                                      NNNN                          000000000000                                                                   78777627                                                                                                                                                                                                                                                                                                                                                                                                                                               
00014340584340024BH6759067590000004615180015980000090170725202320623000000000120918    0000090001010015Y8001596759C07262023001                                                                                                                                                                                                                                                                                                                                                                                                                                                                                                                                                                                              
00014350584340025DT67590675900000046151800159800000010180015973011003206900010100015072420230000002502920623000000000120918372299XXXXX1004                          NY 4 07N008512730576069N840000000025029          01DNMELKEE LOCAL VENTURING LL280392    AM84000000025029 YP1596978764370   NMI6560565               000000000+6004S0S00130 258     11266                     000000000                   0000000000000.00 0000000.00   0000000.00                             000000000000000 61248972656759675900000046151 MELKEE LOCAL VENTURING LL1150 N LOOP 1604 W ST 1087262083508      78248     MELKEELOCALVENTURINGLLC@OUTLOOK.COM       01324  000000000000 0000000000005.11     02000 00000                  
00014360584340001P1675906759000000461518001598000000101                    NMI6560565                            00000000000090028     8000   000000000923481034            000000000000                                                                                                      D                                                                                                                                                                                                                                                                                                                                                                                                                             
00014370584340002P2675906759000000461518001598000000101                                                                                              00000                   000000000                                                                                                                                                                                                                                                                                                                                                                                                                                                                                                                                      
00014380584340003G2675906759000000461518001598000000101SAN ANTONIO              TX           9                  00                  923481034           YNNN                          000000000000                                                                   78764370                                                                                                                                                                                                                                                                                                                                                                                                                                               
00014390584340026DT67590675900000046151800159800000010180015924001193206900010100084072520230000001008620623000000000120918474475XXXXXX8196               2111111   NYV4 A7W463206422266949N840000000010086WPGJ00    01DNMELKEE LOCAL VENTURING - 134633    VD84000000010086 NDR596978764370   NMI6562073               000000000+                F DF 10420                     000000000  Y000000000 338   0000000000000.00 0000000.00   0000000.00                             000000000000000                                                                                                                                                     01424 G000000010086 0000000000000.27     00050 02200                  
00014400584340026DR675906759000000461518001598000000101NMI6562073               Y000000010086                 P1                                                                                                                                                                                                                                                                                                                                                                                                                                                                                                                                                                                                            
00014410584340001P16759067590000004615180015980000001010000000000000000                             2000000000000000000000000              000000000000                    0000000000000000000000000                    000000000000                                                                                                                                                                                                                                                                                                                                                                                                                                                                                        
00014420584340002G2675906759000000461518001598000000101800-2028993              TX           9 D                00                                      NNNN   N                      000000000000                                                                   78764370                                                                                                                                                                                                                                                                                                                                                                                                                                               
00014430584340027DT67590675900000046151800159800000010180015987287283206900010100093072520230000001128820623000000000120918511317XXXXXX6089       ME07KE06MS02      NY 4607AMPGK26L0P0725  N840000000011288          81DNMELKEE LOCAL VENTURING - 000512    MD84000000011288 NDR596978764370   NMI6562767               000000000+600450S00130    MPG  09899                     000000000  N                0000000000000.00 0000000.00   0000000.00                             000000000000000                                                                                                                                                   U001424  000000000000 0000000000002.19     01760 02000                  
00014440584340027DR675906759000000461518001598000000101NMI6562767               Y000000000000                                                                                                                                                                                                                                                                                                                                                                                                                                                                                                                                                                                                                               
00014450584340001G2675906759000000461518001598000000101726-2083508              TX           9 G               210                                      NNNN           210000000000000000000000000                                                                   78764370                                                                                                                                                                                                                                                                                                                                                                                                                                               
00014460584340028DT67590675900000046151800159800000010180015924001193206900010100100072520230000001001520623000000000120918443047XXXXXX3377               2111111   NYV4 A7W303206695879737N840000000010015KJJ500    01DNMELKEE LOCAL VENTURING - 538616    VD84000000010015 NDR596978764370   NMI6564067               000000000+                F DF 10420                     000000000  Y000000000 338   0000000000000.00 0000000.00   0000000.00                             000000000000000                                                                                                                                                     01424 G000000010015 0000000000000.27     00050 02200                  
00014470584340028DR675906759000000461518001598000000101NMI6564067               Y000000010015                 P1                                                                                                                                                                                                                                                                                                                                                                                                                                                                                                                                                                                                            
00014480584340001P16759067590000004615180015980000001010000000000000000                             2000000000000000000000000              000000000000                    0000000000000000000000000                    000000000000                                                                                                                                                                                                                                                                                                                                                                                                                                                                                        
00014490584340002G2675906759000000461518001598000000101800-2028993              TX           9 D                00                                      NNNN   N                      000000000000                                                                   78764370                                                                                                                                                                                                                                                                                                                                                                                                                                               
00014500584340029DT67590675900000046151800159800000010180015924001193206900010100142072520230000001075020623000000000120918400022XXXXXX1785               2111111   NYV4 A7W583206839439467N8400000000107506VPQ00    01DNMELKEE LOCAL VENTURING - 566451    VD84000000010750 NDR596978764370   NMI6565195               000000000+                F DF 10420                     000000000  Y000000000 338   0000000000000.00 0000000.00   0000000.00                             000000000000000                                                                                                                                                     01424 G000000010750 0000000000000.27     00050 02200                  
00014510584340029DR675906759000000461518001598000000101NMI6565195               Y000000010750                 P1                                                                                                                                                                                                                                                                                                                                                                                                                                                                                                                                                                                                            
00014520584340001P16759067590000004615180015980000001010000000000000000                             2000000000000000000000000              000000000000                    0000000000000000000000000                    000000000000                                                                                                                                                                                                                                                                                                                                                                                                                                                                                        
00014530584340002G2675906759000000461518001598000000101800-2028993              TX           9 D                00                                      NNNN   N                      000000000000                                                                   78764370                                                                                                                                                                                                                                                                                                                                                                                                                                               
00014540584340030DT67590675900000046151800159800000010180015924001193206900010100159072520230000005375020623000000000120918440066XXXXXX2085               2111111   NYV4 A7W583206862814422N84000000005375086L800    01DNMELKEE LOCAL VENTURING - 08746D    VS84000000053750 NDR596978764370   NMI6565326               000000000+                D CD 12383                     000000000  N000000000 628   0000000000000.00 0000000.00   0000000.00                             000000000000000                                                                                                                                                     01424 G000000053750 0000000000013.00     02400 01000                  
00014550584340030DR675906759000000461518001598000000101NMI6565326               Y000000053750                 P1                                                                                                                                                                                                                                                                                                                                                                                                                                                                                                                                                                                                            
00014560584340001P16759067590000004615180015980000001010000000000000000                             2000000000000000000000000              000000000000                    0000000000000000000000000                    000000000000                                                                                                                                                                                                                                                                                                                                                                                                                                                                                        
00014570584340002G2675906759000000461518001598000000101800-2028993              TX           9 C                00                                      NNNN   Y                      000000000000                                                                   78764370                                                                                                                                                                                                                                                                                                                                                                                                                                               
00014580584340031BH675906759000000198288001098000009017072520232062300000000002487001970000090001120813N8001096759D07262023112                                                                                                                                                                                                                                                                                                                                                                                                                                                                                                                                                                                              
00014590584340032DT67590675900000019828800109800000010680010987287283206900011208135072520230000002487020623000000000024870535041XXXXXX3310                         NN 4607AMDJJSJ00P0725  N840000000024870          81CNKETOFUSION 8885968154    0250950197MD84000000024870 NDR599977547467   D70C3B7B3ETD83547940A27  000000000+600450S00130    MDJ  00000                     000000000  N                0000000000000.00 0000000.00   0000000.00             000000000024870C000000000000000                                                                                                                                                     01424  000000000000 0000000000000.00     00000 00000                  
00014600584340032DR675906759000000198288001098000000106D70C3B7B3ETD83547940A27  R000000000000                                                                                                                                                                                                                                                                                                                                                                                                                                                                                                                                                                                                                               
00014610584340001G2675906759000000198288001098000000106888-5968154              UT           9 J               210                                      NNNN           210000000000000000000000000                                                                   77547467                                                                                                                                                                                                                                                                                                                                                                                                                                               
00014620584340033BH6759067590000002962980013180000090170725202320623000000000035310    0000090001640006Y8001316759C07262023064                                                                                                                                                                                                                                                                                                                                                                                                                                                                                                                                                                                              
00014630584340034DT67590675900000029629800131800000010180013124001193206900016400017072520230000000749020623000000000035310400022XXXXXX4675       VS11    0001111   NYV1 A E383206622886253N840000000007490LCMS00    05DNPAK VENTURES             477592    VD84000000007490 N  599978419189                            000000000+                F DF 10433                     000000000  Y000000000 338   0000000000000.00 0000000.00   0000000.00                             000000000000000                                                                                                                                                     01424 A000000000000 0000000000000.26     00050 02200                  
00014640584340001E167590675900000029629800131800000010100E0F8C80011 00000000000.004040404040404040404040404040404040404040404040404006021203A0A000000000000000000000404040404040404040404040404040  0000084018008080008000230725F33B8FCCF36D3FB5F41C8018404040400840A0000000031010000000000000000000404040404040404040404040404040404040401E40404040 000000074.90 000000000.001E00000000000000000000    80                                                                                                                                                                                                                                                                                                                  
00014650584340002G2675906759000000296298001318000000101MILTON                   FL           5 D                00                                      NNNN00 N 00                   000000000000                                                                   78419189                                                                                                                                                                                                                                                                                                                                                                                                                                               
00014660584340035DT67590675900000029629800131800000010180013124001193206900016400025072520230000001177020623000000000035310415977XXXXXX3376       VS11    0001111   NYV1 A E303206640686150N8400000000117708S8600    05DNPAK VENTURES             044114    VD84000000011770 N  599978419189                            000000000+                F DF 10433                     000000000  Y000000000 338   0000000000000.00 0000000.00   0000000.00                             000000000000000                                                                                                                                                     01424 A000000000000 0000000000000.28     00050 02200                  
00014670584340001E167590675900000029629800131800000010100E0F8C8016F 00000000000.004040404040404040404040404040404040404040404040404006011203A00000000000000000000000404040404040404040404040404040  00000840180080800080002307251238D5A4CABF3B7E4F6907AA404040400840A00000000310100000000000000000006AD93262032DA57530300000000000004040401E40404040 000000117.70 000000000.001E00000000000000000000    80                                                                                                                                                                                                                                                                                                                  
00014680584340002G2675906759000000296298001318000000101MILTON                   FL           5 D                00                                      NNNN00 N 00                   000000000000                                                                   78419189                                                                                                                                                                                                                                                                                                                                                                                                                                               
00014690584340036DT67590675900000029629800131800000010180013177287283206900016400035072520230000000321020623000000000035310511308XXXXXX3937       MS02WI09          NY 1 0 AMDJJGSO2I0725  N840000000003210          05DNPAK VENTURES             062405    MD84000000003210 N  599978419189                            000000000+M10101C5434C    MDJ  10815                     000000000  1                0000000000000.00 0000000.00   0000000.00                             000000000000000                                                                                                                                                   B101424  000000000000 0000000000000.24     00050 02200                  
00014700584340001E167590675900000029629800131800000010100E0F8C80352 00000000000.00404040404040404040404040404040404040404040404040400110A00001220000000000000000000000FF00000000000000000000000000  0000084018008000088000230725B48BEA141B669202BCA1EC9B404040400840A0000000041010000000000000000000C8771A49A6C7D739031A0000000000004040401E40404040 000000032.10 000000000.001E03000000000000000000    80                                                                                                                                                                                                                                                                                                                  
00014710584340002G2675906759000000296298001318000000101MILTON                   FL           5 J                                                        NNNN              000000000000000000000000                                                                   78419189                                                                                                                                                                                                                                                                                                                                                                                                                                               
00014720584340037DT67590675900000029629800131800000010180013124001193206900016400041072520230000000321020623000000000035310435544XXXXXX2027       VS11    0001111   NYV1 A E383206774995266N84000000000321054WJ00    05DNPAK VENTURES             129164    VD84000000003210 N  599978419189                            000000000+                F DF 10433                     000000000  Y000000000 338   0000000000000.00 0000000.00   0000000.00                             000000000000000                                                                                                                                                     01424 A000000000000 0000000000000.24     00050 02200                  
00014730584340001E167590675900000029629800131800000010100E0F8C8002D 00000000000.004040404040404040404040404040404040404040404040404006011203A08000000000000000000000404040404040404040404040404040  0001084018008080008000230725F73C4E9E0C4C187D0C859957404040400840A00000000310100000000000000000004CD4DDDF0082000000000000000000004040401E40404040 000000032.10 000000000.001E00000000000000000000    80                                                                                                                                                                                                                                                                                                                  
00014740584340002G2675906759000000296298001318000000101MILTON                   FL           5 D                00                                      NNNN00 N 00                   000000000000                                                                   78419189                                                                                                                                                                                                                                                                                                                                                                                                                                               
00014750584340038DT67590675900000029629800131800000010180013124001193206900016400058072520230000000428020623000000000035310483332XXXXXX5263       VS11    0001111   NYV1 A E383206820245527N840000000004280SVMX00    05DNPAK VENTURES             174704    VD84000000004280 N  599978419189                            000000000+                F DF 00381                     000000000  N000000000       0000000000000.00 0000000.00   0000000.00                             000000000000000                                                                                                                                                     01424 A000000000000 0000000000000.49     00800 01500                  
00014760584340001E167590675900000029629800131800000010100E0F8C800B2 00000000000.004040404040404040404040404040404040404040404040404006011203A08000000000000000000000404040404040404040404040404040  000008401800808000800023072505062DF25A52F0F031E2CD60404040400840A0000000031010000000000000000000DD9FA3760382000000000000000000004040401E40404040 000000042.80 000000000.001E00000000000000000000    80                                                                                                                                                                                                                                                                                                                  
00014770584340002G2675906759000000296298001318000000101MILTON                   FL           5 D                00                                      NNNN00 N 00                   000000000000                                                                   78419189                                                                                                                                                                                                                                                                                                                                                                                                                                               
00014780584340039DT67590675900000029629800131800000010180013124001193206900016400066072520230000000535020623000000000035310415977XXXXXX5716       VS11    0001111   NYV1 A E463206830275301N840000000005350288300    05DNPAK VENTURES             044813    VD84000000005350 N  599978419189                            000000000+                F DF 10433                     000000000  Y000000000 338   0000000000000.00 0000000.00   0000000.00                             000000000000000                                                                                                                                                     01424 A000000000000 0000000000000.25     00050 02200                  
00014790584340001E167590675900000029629800131800000010100E0F8C8006E 00000000000.004040404040404040404040404040404040404040404040404006011203A08000000000000000000000404040404040404040404040404040  00000840180080800080002307254F0B9F21427787C9E6E7DABF404040400840A00000000310100000000000000000005B771A82D28C4EA930300000000000004040401E40404040 000000053.50 000000000.001E00000000000000000000    80                                                                                                                                                                                                                                                                                                                  
00014800584340002G2675906759000000296298001318000000101MILTON                   FL           5 D                00                                      NNNN00 N 00                   000000000000                                                                   78419189                                                                                                                                                                                                                                                                                                                                                                                                                                               
00014810584340040BH6759067590000003433080014180000090170725202320623000000000122331    0000090001230040Y8001416759C07262023023                                                                                                                                                                                                                                                                                                                                                                                                                                                                                                                                                                                              
00014820584340041DT67590675900000034330800141800000010180014124001193206900012300013072520230000000213920623000000000122331484608XXXXXX9272       VS11    0001111   NYV1 A E463206546307395N84000000000213943R900    05DNJBLISS LLC               307395    VD84000000002139 N  599978512540                            000000000+                F DF 00381                     000000000  N000000000       0000000000000.00 0000000.00   0000000.00                             000000000000000                                                                                                                                                     01424 A000000000000 0000000000000.32     00800 01500                  
00014830584340001E167590675900000034330800141800000010100E0F8C80015 00000000000.004040404040404040404040404040404040404040404040404006011203A02000000000000000000000404040404040404040404040404040  0000084018008080008000230725B028C0167F8A6A040C428D28404040400840A0000000031010000000000000000000E05F3F0B0382000000000000000000004040401E40404040 000000021.39 000000000.001E00000000000000000000    80                                                                                                                                                                                                                                                                                                                  
00014840584340002G2675906759000000343308001418000000101GREENWOOD                SC           5 D                00                                      NNNN00 N 00                   000000000000                                                                   78512540                                                                                                                                                                                                                                                                                                                                                                                                                                               
00014850584340042DT67590675900000034330800141800000010180014124001193206900012300021072520230000000203220623000000000122331449594XXXXXX6308       VS11    0001111   NYV1 A E463206554516995N840000000002032VKRN00    05DNJBLISS LLC               002291    VD84000000002032 N  599978512540                            000000000+                F DF 00381                     000000000  N000000000       0000000000000.00 0000000.00   0000000.00                             000000000000000                                                                                                                                                     01424 A000000000000 0000000000000.31     00800 01500                  
00014860584340001E167590675900000034330800141800000010100E0F8C804CC 00000000000.004040404040404040404040404040404040404040404040404006011203A02000000000000000000000404040404040404040404040404040  0000084018008080008000230725F6F7ACB36DEE7A6A70F010B2404040400840A0000000031010000000000000000000E583012F0382000000000000000000004040401E40404040 000000020.32 000000000.001E00000000000000000000    80                                                                                                                                                                                                                                                                                                                  
00014870584340002G2675906759000000343308001418000000101GREENWOOD                SC           5 D                00                                      NNNN00 N 00                   000000000000                                                                   78512540                                                                                                                                                                                                                                                                                                                                                                                                                                               
00014880584340043DT67590675900000034330800141800000010180014124001193206900012300039072520230000000149620623000000000122331473703XXXXXX4185       VK04VS111111111   NYV1 A E583206559950376N840000000001496899K00    05DNJBLISS LLC               079053    VD84000000001496 N  599978512540                            000000000+                F DF 10439                     000000000  Y000000000 331   0000000000000.00 0000000.00   0000000.00                             000000000000000                                                                                                                                                     01424 F000000000000 0000000000000.23     00050 02200                  
00014890584340001E167590675900000034330800141800000010100E0F8C80088 00000000000.004040404040404040404040404040404040404040404040404006061203A0A000000000000000000000404040404040404040404040404040  000008401800808000800023072515F27FCFF68CD5DC840F415A404040400840A0000000031010000000000000000000C0905010B0D050B020200000000000004040401E40404040 000000014.96 000000000.001E00000000000000000000    80                                                                                                                                                                                                                                                                                                                  
00014900584340002G2675906759000000343308001418000000101GREENWOOD                SC           5 D                00                                      NNNN00 N 00                   000000000000                                                                   78512540                                                                                                                                                                                                                                                                                                                                                                                                                                               
00014910584340044DT67590675900000034330800141800000010180014124001193206900012300047072520230000000427820623000000000122331473703XXXXXX5404       VS11    0001111   NYV1 A E583206561344010N840000000004278KKKG00    07DNJBLISS LLC               047988    VD84000000004278 N  599978512540                            000000000+                F DF 10433                     000000000  Y000000000 338   0000000000000.00 0000000.00   0000000.00                             000000000000000                                                                                                                                                     01424 A000000000000 0000000000000.24     00050 02200                  
00014920584340001E167590675900000034330800141800000010100E068C801C1 00000000000.004040404040404040404040404040404040404040404040404006061203A00000000000000000000000404040404040404040404040404040  000008400000000000000023072511E3A98582AFDB52CD68A8FA404040400840A0000000031010000000000000000000D0B080E0C000F04020200000000000004040404040404040 000000042.78 000000000.004040400000000000000000    80                                                                                                                                                                                                                                                                                                                  
00014930584340002G2675906759000000343308001418000000101GREENWOOD                SC           5 D                00                                      NNNN00 N 00                   000000000000                                                                   78512540                                                                                                                                                                                                                                                                                                                                                                                                                                               
00014940584340045DT67590675900000034330800141800000010180014124001193206900012300054072520230000000128320623000000000122331440393XXXXXX3801       VK04VS111111111   NYV1 A E383206568233675N840000000001283V54900    07DNJBLISS LLC               381737    VD84000000001283 N  599978512540                            000000000+                F PF 08165                     000000000  N000000000       0000000000000.00 0000000.00   0000000.00                             000000000000000                                                                                                                                                     01424 F000000000000 0000000000000.26     01600 00500                  
00014950584340001E167590675900000034330800141800000010100E068C800A3 00000000000.004040404040404040404040404040404040404040404040404006011203A00000000000000000000000404040404040404040404040404040  00000840200000000000002307253E64B13349CB2CF3970DE6AC404040400840A00000000310100000000000000000003FF556848421087C30300000000000004040404040404040 000000012.83 000000000.004040400000000000000000    80                                                                                                                                                                                                                                                                                                                  
00014960584340002G2675906759000000343308001418000000101GREENWOOD                SC           5 P                00                                      NNNN00 N 00                   000000000000                                                                   78512540                                                                                                                                                                                                                                                                                                                                                                                                                                               
00014970584340046DT67590675900000034330800141800000010180014177287283206900012300064072520230000000406420623000000000122331514230XXXXXX1014       MS02WI09          NY 1 0 AMDJM03Z0P0725  N840000000004064          05DNJBLISS LLC               B7AE3F    MD84000000004064 N  599978512540                            000000000+M10101C5434C    MDJ  00402                     000000000  N                0000000000000.00 0000000.00   0000000.00                             000000000000000                                                                                                                                                   B101424  000000000000 0000000000000.58     01050 01500                  
00014980584340001E167590675900000034330800141800000010100E0F8C8005A 00000000000.00404040404040404040404040404040404040404040404040400110A04001220000000000000000000000FF00000000000000000000000000  00010840390000000080002307253E6464E9AFB40D4493B74CC3404040400840A0000000041010000000000000000000EFDEED18BDFA161300120000000000004040401E40404040 000000040.64 000000000.001E03000000000000000000    80                                                                                                                                                                                                                                                                                                                  
00014990584340002G2675906759000000343308001418000000101GREENWOOD                SC           5 J                                                        NNNN              000000000000000000000000                        7                                          78512540                                                                                                                                                                                                                                                                                                                                                                                                                                               
00015000584340047DT67590675900000034330800141800000010180014124001193206900012300070072520230000000053420623000000000122331448261XXXXXX5100       VK04VS111111111   NYV1 A E463206585979419N840000000000534RRQT00    07DNJBLISS LLC               669294    VD84000000000534 N  599978512540                            000000000+                F DF 10439                     000000000  Y000000000 331   0000000000000.00 0000000.00   0000000.00                             000000000000000                                                                                                                                                     01424 F000000000000 0000000000000.22     00050 02200                  
00015010584340001E167590675900000034330800141800000010100E068C80301 00000000000.004040404040404040404040404040404040404040404040404006011203A00000000000000000000000404040404040404040404040404040  000008402000000000000023072513B3505D42CF58E50D7ED4A0404040400840A00000000310100000000000000000004DB9079E0382000000000000000000004040404040404040 000000005.34 000000000.004040400000000000000000    80                                                                                                                                                                                                                                                                                                                  
00015020584340002G2675906759000000343308001418000000101GREENWOOD                SC           5 D                00                                      NNNN00 N 00                   000000000000                                                                   78512540                                                                                                                                                                                                                                                                                                                                                                                                                                               
00015030584340048DT67590675900000034330800141800000010180014124001193206900012300088072520230000000994620623000000000122331433477XXXXXX3762       VS11    0001111   NYV1 A E383206594469280N840000000009946C42600    05DNJBLISS LLC               638159    VD84000000009946 N  599978512540                            000000000+                F DF 10433                     000000000  Y000000000 338   0000000000000.00 0000000.00   0000000.00                             000000000000000                                                                                                                                                     01424 A000000000000 0000000000000.27     00050 02200                  
00015040584340001E167590675900000034330800141800000010100E0F8C8007F 00000000000.004040404040404040404040404040404040404040404040404006011203A0A000000000000000000000404040404040404040404040404040  0001084018008080008000230725558CA9DD38F13CF74617536C404040400840A0000000031010000000000000000000A116C03F0082000000000000000000004040401E40404040 000000099.46 000000000.001E00000000000000000000    80                                                                                                                                                                                                                                                                                                                  
00015050584340002G2675906759000000343308001418000000101GREENWOOD                SC           5 D                00                                      NNNN00 N 00                   000000000000                                                                   78512540                                                                                                                                                                                                                                                                                                                                                                                                                                               
00015060584340049DT67590675900000034330800141800000010180014177287283206900012300098072520230000000182920623000000000122331546316XXXXXX1843       MS02WI09          NY 1 0 AMPLPMKUH20725  N840000000001829          05DNJBLISS LLC               025327    MC84000000001829 N  599978512540                            000000000+M10101C5434C    MPL  00015                     000000000  N                0000000000000.00 0000000.00   0000000.00                             000000000000000                                                                                                                                                   B101424  000000000000 0000000000000.40     01650 01000                  
00015070584340001E167590675900000034330800141800000010100E0F8C80001 00000000000.00404040404040404040404040404040404040404040404040400610A04001220000000000000000000000FF00000000000000000000000000  0001084039000000008000230725A00F9295DF0CC97A5C5B1633404040400840A00000000410100000000000000000003F73269A45BC506800120000000000004040401E40404040 000000018.29 000000000.001E03000000000000000000    80                                                                                                                                                                                                                                                                                                                  
