01602870573090002BH6759067590000000017480000180000090171026202229922000000000000602    0000090001010001N8000016759C10272022                                                                                                                                                                                                                                                                                                                                                                                                                                                                                                                                                                                                 
01602880573090003DT67590675900000000174800001800000010180000124001192299900010100019102620220000000060229922000000000000602410039XXXXXX6426       VK04VS111111111   NYV1 A E462299596920106N840000000000602JJ8B00    05DNVERMONT STATE BANK       56205D    VS84000000000602 N  549975551542                            000000000+                D CD 12057                     000000000  N000000000 452   0000000000000.00 0000000.00   0000000.00                             000000000000000                                                                                                                                                     01418 F000000000000 0000000000000.13     02200 00000                  
01602890573090004BH6759067590000000017480000180000090171026202229922000000000000957    0000090001020002N8000016759C10272022                                                                                                                                                                                                                                                                                                                                                                                                                                                                                                                                                                                                 
01602900573090005DT67590675900000000174800001800000010180000176509752299900010200015102620220000000053129922000000000000957364877XXXX2280     BA05                  NY41 0 N812257814778060N840000000000531    00    07DNVERMONT STATE BANK       006857    DZ84000000000531 N  601275549271830                         000000000+0000004910H00   DMCDI11557201000  083117000000 000000000  0          811   0000000000000.00 0000000.0000 0000000.00                             000000000000000                                                                                                                                                     01418  000000000000 0000000000000.20     01900 01000                  
01602910573090006DT67590675900000000174800001800000010180000124001192299900010200025102620220000000042629922000000000000957474489XXXXXX3159       VS11    0001111   NYV1 A E582299494817051N840000000000426ZWLM00    05DNVERMONT STATE BANK       104040    VD84000000000426 N  601275549271                            000000000+                F DF 10433                     000000000  Y000000000 338   0000000000000.00 0000000.00   0000000.00                             000000000000000                                                                                                                                                     01418 A000000000000 0000000000000.22     00050 02200                  
01602920573090007BH6759067590000000017480000180000090171026202229922000000000000596    0000090001020001N8000016759C10272022                                                                                                                                                                                                                                                                                                                                                                                                                                                                                                                                                                                                 
01602930573090008DT67590675900000000174800001800000010180000124001192299900010200017102620220000000059629922000000000000596410039XXXXXX6426       VK04VS111111111   NYV1 A E462299780188823N840000000000596M7NG00    05DNVERMONT STATE BANK       59470D    VS84000000000596 N  549975551542                            000000000+                D CD 12057                     000000000  N000000000 452   0000000000000.00 0000000.00   0000000.00                             000000000000000                                                                                                                                                     01418 F000000000000 0000000000000.13     02200 00000                  
