06789440243306718AD675906759000000268498001258000009071900014348860000002245007102023NYY19123ND6759800125071220232023191028722                                                                                                                                                                                                                                                                                                                                                                                                                                                                                                                                                                                              
06789450243306721AD675906759000000268498001258000009071900017065670000001489207102023NYY19123ND6759800125071220232023191029291                                                                                                                                                                                                                                                                                                                                                                                                                                                                                                                                                                                              
06789460243306724AD675906759000000268498001258000009071900012980920000000619807102023NYY19123ND6759800125071220232023191030263                                                                                                                                                                                                                                                                                                                                                                                                                                                                                                                                                                                              
06789470243306727AD675906759000000268498001258000009071900012980900000002477007102023NYY19123ND6759800125071220232023191030265                                                                                                                                                                                                                                                                                                                                                                                                                                                                                                                                                                                              
06789480243306730AD675906759000000277308001268000009071900011700950000002391007102023NYY19123ND6759800126071220232023191014013                                                                                                                                                                                                                                                                                                                                                                                                                                                                                                                                                                                              
06789490243306733AD675906759000000232598001168000009071900015822720000001307907102023NYY19123ND6759800116071220232023191014014                                                                                                                                                                                                                                                                                                                                                                                                                                                                                                                                                                                              
06789500243306736AD675906759000000142748001028000009071900018710450000001987007102023NYY19123ND6759800102071220232023191014015                                                                                                                                                                                                                                                                                                                                                                                                                                                                                                                                                                                              
06789510243612078AD675906759000000176738001068000009077231430472010000002178907102023NYY19123YC6759800106071220232023143047201                                                                                                                                                                                                                                                                                                                                                                                                                                                                                                                                                                                              
06789520243612081AD675906759000000151648008888000009071231660298420000000990607102023NYY19123ND6759800888071220232023166029842                                                                                                                                                                                                                                                                                                                                                                                                                                                                                                                                                                                              
06789530243612084AD675906759000000151648008888000009071231670308450000000519007102023NYY19123ND6759800888071220232023167030845                                                                                                                                                                                                                                                                                                                                                                                                                                                                                                                                                                                              
06789540245009914BH6759067590000003201180013680000090170711202319223000000001613857    0000090001630721N8001366759C07122023000                                                                                                                                                                                                                                                                                                                                                                                                                                                                                                                                                                                              
06789550245009915DT67590675900000032011800136800000010180013673011003192900016388685071020230000161385719223000000001613857371536XXXXX3000                          YY 4 07N005700191395300N840000001613857          01DNCHOICE BOTANICALS INC    161337    AM84000001613857 N  549971004114                            000000000+6004S0600140 258     11263                     000000000                   0000000000000.00 0000000.00   0000000.00                             000000000000000 61248972086759675900000032011                          5390 GREENS RD                           77032                                               015WPE 000000000000 0000000000387.43     02400 00000                  
06789560245000001G2675906759000000320118001368000000101HOUSTON                  TX           9                  00                                      NNNN                          000000000000                                                                   71004114                                                                                                                                                                                                                                                                                                                                                                                                                                               
06789570245009918BH6759067590000003201180013680000090170711202319223000000000589875    0000090001630721N8001366759C07122023000                                                                                                                                                                                                                                                                                                                                                                                                                                                                                                                                                                                              
06789580245009919DT67590675900000032011800136800000010180013673011003192900016385947071020230000058987519223000000000589875371536XXXXX3000                          YY 4 07N008291865744061N840000000589875          01DNCHOICE BOTANICALS INC    189734    AM84000000589875 N  549971004114                            000000000+6004S0600140 258     11263                     000000000                   0000000000000.00 0000000.00   0000000.00                             000000000000000 61248972086759675900000032011                          5390 GREENS RD                           77032                                               015WPE 000000000000 0000000000141.67     02400 00000                  
06789590245000001G2675906759000000320118001368000000101HOUSTON                  TX           9                  00                                      NNNN                          000000000000                                                                   71004114                                                                                                                                                                                                                                                                                                                                                                                                                                               
06789600245009922BH6759067590000003201180013680000090170711202319223000000001755000    0000090001630721N8001366759C07122023000                                                                                                                                                                                                                                                                                                                                                                                                                                                                                                                                                                                              
06789610245009923DT67590675900000032011800136800000010180013673011003192900016384528071020230000175500019223000000001755000371536XXXXX3000                          YY 4 07N007558691718076N840000001755000          01DNCHOICE BOTANICALS INC    161635    AM84000001755000 N  549971004114                            000000000+6004S0600140 258     11263                     000000000                   0000000000000.00 0000000.00   0000000.00                             000000000000000 61248972086759675900000032011                          5390 GREENS RD                           77032                                               015WPE 000000000000 0000000000421.30     02400 00000                  
06789620245000001G2675906759000000320118001368000000101HOUSTON                  TX           9                  00                                      NNNN                          000000000000                                                                   71004114                                                                                                                                                                                                                                                                                                                                                                                                                                               
06789630245009926BH6759067590000003201180013680000090170711202319223000000000631275    0000090001630721N8001366759C07122023000                                                                                                                                                                                                                                                                                                                                                                                                                                                                                                                                                                                              
06789640245009927DT67590675900000032011800136800000010180013673011003192900016393800071020230000063127519223000000000631275371536XXXXX3000                          YY 4 07N008291860768065N840000000631275          01DNCHOICE BOTANICALS INC    187221    AM84000000631275 N  549971004114                            000000000+6004S0600140 258     11263                     000000000                   0000000000000.00 0000000.00   0000000.00                             000000000000000 61248972086759675900000032011                          5390 GREENS RD                           77032                                               015WPE 000000000000 0000000000151.61     02400 00000                  
06789650245000001G2675906759000000320118001368000000101HOUSTON                  TX           9                  00                                      NNNN                          000000000000                                                                   71004114                                                                                                                                                                                                                                                                                                                                                                                                                                               
06789660245710002BH6759067590000000288180088880000090170711202319223000000000073232    0000090001580014N8008886759C07122023158                                                                                                                                                                                                                                                                                                                                                                                                                                                                                                                                                                                              
06789670245710003DT67590675900000002881800888800000010180088877287283192900015800017071120230000000231519223000000000073232510404XXXXXX0252       MS02WI09          NY 1 0 AMDJLVUG2K0711  N840000000002315          07DNHAPPY HIPPIE             045623    MD84000000002315 N  549976487134                            000000000+M10101M0034C    MDJ  00402                     000000000  N                0000000000000.00 0000000.00   0000000.00                             000000000000000                                                                                                                                                   B101418  000000000000 0000000000000.39     01050 01500                  
06789680245710001E167590675900000002881800888800000010100000848029A 00000000000.00404040404040404040404040404040404040404040404040400110A04001220000000000000000000000FF00000000000000000000000000  0000084019800000008001230711D211627863897E62D2591F09404040400840A00000000410100000000000000000000D1F5C19F02B023000120000000000004040401F40404040 000000023.15 000000000.001F03020000000000000000    80                                                                                                                                                                                                                                                                                                                  
06789690245710002G2675906759000000028818008888000000101SEVIERVILLE              TN           5 J                                                        NNNN              000000000000000000000000       03               7                                          76487134                                                                                                                                                                                                                                                                                                                                                                                                                                               
06789700245710004DT67590675900000002881800888800000010180088824001193192900015800023071120230000000691319223000000000073232419090XXXXXX1754       VS11    0001111   NYV1 A E463192540122194N840000000006913R5GX00    05DNHAPPY HIPPIE             787117    VD84000000006913 N  549976487134                            000000000+                F DF 00381                     000000000  N000000000       0000000000000.00 0000000.00   0000000.00                             000000000000000                                                                                                                                                     01418 A000000000000 0000000000000.70     00800 01500                  
06789710245710001E167590675900000002881800888800000010100E0F8C800C6 00000000000.004040404040404040404040404040404040404040404040404006011203A0A000000000000000000000404040404040404040404040404040  0001084018008080008000230711EBF3D50239FDC493599C6C8D404040400840A0000000031010000000000000000000D50BCB780080000000000000000000004040401E40404040 000000069.13 000000000.001E00000000000000000000    80                                                                                                                                                                                                                                                                                                                  
06789720245710002G2675906759000000028818008888000000101SEVIERVILLE              TN           5 D                00                                      NNNN00 N 00                   000000000000                                                                   76487134                                                                                                                                                                                                                                                                                                                                                                                                                                               
06789730245710005DT67590675900000002881800888800000010180088877287283192900015800033071120230000000752119223000000000073232531257XXXXXX4477       MS02WI09          NY 1 0 AMDJARFC0L0711  N840000000007521          05DNHAPPY HIPPIE             151478    MD84000000007521 N  549976487134                            000000000+M10101C5434C    MDJ  10815                     000000000  1                0000000000000.00 0000000.00   0000000.00                             000000000000000                                                                                                                                                   B101418  000000000000 0000000000000.26     00050 02200                  
06789740245710001E167590675900000002881800888800000010100E0F8C80970 00000000000.00404040404040404040404040404040404040404040404040400114A00201A20000000000000000000000FF00000000000000000000000000  00000840180080000080002307112BD0633DF42550D443DF6E56404040400840A0000000041010000000000000000000A1D0B140D065514C00100000000000004040401E40404040 000000075.21 000000000.001E03000000000000000000    80                                                                                                                                                                                                                                                                                                                  
06789750245710002G2675906759000000028818008888000000101SEVIERVILLE              TN           5 J                                                        NNNN              000000000000000000000000                        7                                          76487134                                                                                                                                                                                                                                                                                                                                                                                                                                               
06789760245710006DT67590675900000002881800888800000010180088824001193192900015800049071120230000000578619223000000000073232427178XXXXXX3752       VS11    0001111   NYV1 A E383192646958657N8400000000057867WSG00    07DNHAPPY HIPPIE             075064    VD84000000005786 N  549976487134                            000000000+                F DF 10433                     000000000  Y000000000 338   0000000000000.00 0000000.00   0000000.00                             000000000000000                                                                                                                                                     01418 A000000000000 0000000000000.25     00050 02200                  
06789770245710001E167590675900000002881800888800000010100E068C803F3 00000000000.004040404040404040404040404040404040404040404040404006011203A00000000000000000000000404040404040404040404040404040  0001084020000000000000230711746D0EC8162D71BB3CA71300404040400840A0000000031010000000000000000000A69148620082000000000000000000004040404040404040 000000057.86 000000000.004040400000000000000000    80                                                                                                                                                                                                                                                                                                                  
06789780245710002G2675906759000000028818008888000000101SEVIERVILLE              TN           5 D                00                                      NNNN00 N 00                   000000000000                                                                   76487134                                                                                                                                                                                                                                                                                                                                                                                                                                               
06789790245710007DT67590675900000002881800888800000010180088876509753192900015800054071120230000000312419223000000000073232601101XXXXXX1222   BA05                  NY41 0 N743165533701008N840000000003124    00    07DNHAPPY HIPPIE             01164B    DZ84000000003124 N  549976487134830                         000000000+0000004910H00   DMCDI01012498401  110930000000 000000000  0          124   0000000000000.00 0000000.00   0000000.00                             000000000000000                                                                                                                                                     01418  000000000000 0000000000000.92     02450 01500                  
06789800245710001E167590675900000002881800888800000010100E068C801C8 00000000000.00404040404040404040404040404040404040404040404040400115209000003500B800010000000031240000000000000000000000000000  0001084019008000008000230711193F36A0033854104D73BEF3404040400840A00000015230100000000000000000002B43D5A9063098B500320000000000004040403F40404040 000000031.24 000000000.003F00000000000000000000    80                                                                                                                                                                                                                                                                                                                  
06789810245710002G2675906759000000028818008888000000101SEVIERVILLE              TN           5 C                00                                      NNNN                          000000000000                         00000650975601179750000063                76487134                                                                                                                                                                                                                                                                                                                                                                                                                                               
06789820245710008DT67590675900000002881800888800000010180088824001193192900015800064071120230000000128319223000000000073232443238XXXXXX0228       VK04VS111111111   NYV1 A E303192654986108N8400000000012838WGS00    05DNHAPPY HIPPIE             041139    VD84000000001283 N  549976487134                            000000000+                F DF 00451                     000000000  N000000000 214   0000000000000.00 0000000.00   0000000.00                             000000000000000                                                                                                                                                     01418 F000000000000 0000000000000.24     01550 00400                  
06789830245710001E167590675900000002881800888800000010100E0F8C80073 00000000000.004040404040404040404040404040404040404040404040404006011203A02000000000000000000000404040404040404040404040404040  0000084018008080008000230711ECDBE30F32AC335A66A6E46A404040400840A0000000031010000000000000000000404040404040404040404040404040404040401E40404040 000000012.83 000000000.001E00000000000000000000    80                                                                                                                                                                                                                                                                                                                  
06789840245710002G2675906759000000028818008888000000101SEVIERVILLE              TN           5 D                00                                      NNNN00 N 00                   000000000000                                                                   76487134                                                                                                                                                                                                                                                                                                                                                                                                                                               
06789850245710009DT67590675900000002881800888800000010180088877287283192900015800074071120230000000057719223000000000073232515676XXXXXX8158       MS02WI09          NY 1 0 AMWEXF8ZP20711  N840000000000577          07DNHAPPY HIPPIE             08463Z    MC84000000000577 N  549976487134                            000000000+M10101M0034C    MWE  00743                     000000000  N                0000000000000.00 0000000.00   0000000.00                             000000000000000                                                                                                                                                   B101418  000000000000 0000000000000.17     02300 00400                  
06789860245710001E1675906759000000028818008888000000101000008480050 00000000000.00404040404040404040404040404040404040404040404040400110A04001220000000000000000000000FF00000000000000000000000000  0001084019800000008001230711A9D35389CD79686F61398386404040400840A0000000041010000000000000000000404040404040404040404040404040404040401F40404040 000000005.77 000000000.001F03020000000000000000    80                                                                                                                                                                                                                                                                                                                  
06789870245710002G2675906759000000028818008888000000101SEVIERVILLE              TN           5 E                                                        NNNN              000000000000000000000000       03               7                                          76487134                                                                                                                                                                                                                                                                                                                                                                                                                                               
06789880245710010DT67590675900000002881800888800000010180088877287283192900015800082071120230000000952619223000000000073232537993XXXXXX2076       MS02WI09          NY 1 0 AMPLLBNO160711  N840000000009526          07DNHAPPY HIPPIE             01192Z    MC84000000009526 N  549976487134                            000000000+M10101M5434C    MPL  00043                     000000000  N                0000000000000.00 0000000.00   0000000.00                             000000000000000                                                                                                                                                   B101418  000000000000 0000000000001.61     01650 00400                  
06789890245710001E1675906759000000028818008888000000101000060C80007 00000000000.00404040404040404040404040404040404040404040404040400710A04001220000000000000000000000FF00000000000000000000000000  000108401980000000800123071165629D16BB77AE27FD64D8C3404040400840A0000000041010000000000000000000404040404040404040404040404040404040401E40404040 000000095.26 000000000.001E03000000000000000000    80                                                                                                                                                                                                                                                                                                                  
06789900245710002G2675906759000000028818008888000000101SEVIERVILLE              TN           5 L                                                        NNNN              000000000000000000000000       03               7                                          76487134                                                                                                                                                                                                                                                                                                                                                                                                                                               
06789910245710011DT67590675900000002881800888800000010180088824001193192900015800098071120230000000436119223000000000073232401659XXXXXX5475       VS11    0001111   NYV1 A E583192706494121N840000000004361CBL200    05DNHAPPY HIPPIE             143730    VD84000000004361 N  549976487134                            000000000+                F DF 00381                     000000000  N000000000       0000000000000.00 0000000.00   0000000.00                             000000000000000                                                                                                                                                     01418 A000000000000 0000000000000.50     00800 01500                  
06789920245710001E167590675900000002881800888800000010100E0F8C800A0 00000000000.004040404040404040404040404040404040404040404040404006011203A02000000000000000000000404040404040404040404040404040  0001084018008080008000230711EC7D28CFA1A4020AFEA4430E404040400840A0000000031010000000000000000000566387600082000000000000000000004040401E40404040 000000043.61 000000000.001E00000000000000000000    80                                                                                                                                                                                                                                                                                                                  
06789930245710002G2675906759000000028818008888000000101SEVIERVILLE              TN           5 D                00                                      NNNN00 N 00                   000000000000                                                                   76487134                                                                                                                                                                                                                                                                                                                                                                                                                                               
06789940245710012DT67590675900000002881800888800000010180088877287283192900015800108071120230000000159419223000000000073232542418XXXXXX9145       MS02WI09          NY 1 0 AMWET97I160711  N840000000001594          05DNHAPPY HIPPIE             12650P    MC84000000001594 N  549976487134                            000000000+M10101C5434C    MWE  00743                     000000000  N                0000000000000.00 0000000.00   0000000.00                             000000000000000                                                                                                                                                   B101418  000000000000 0000000000000.41     02300 00400                  
06789950245710001E167590675900000002881800888800000010100E0F8C801D8 00000000000.00404040404040404040404040404040404040404040404040400110A04001220000000000000000000000FF00000000000000000000000000  0001084039000000008000230711DA57F076A166DC6408975C37404040400840A0000000041010000000000000000000A1253758D801EF0200120000000000004040401E40404040 000000015.94 000000000.001E03000000000000000000    80                                                                                                                                                                                                                                                                                                                  
06789960245710002G2675906759000000028818008888000000101SEVIERVILLE              TN           5 E                                                        NNNN              000000000000000000000000                        7                                          76487134                                                                                                                                                                                                                                                                                                                                                                                                                                               
06789970245710013DT67590675900000002881800888800000010180088824001193192900015800114071120230000000177019223000000000073232410801XXXXXX2825       VS11    0001111   NYV1 A E463192714006889N840000000001770GVWQ00    05DNHAPPY HIPPIE             055000    VD84000000001770 N  549976487134                            000000000+                F DF 00381                     000000000  N000000000       0000000000000.00 0000000.00   0000000.00                             000000000000000                                                                                                                                                     01418 A000000000000 0000000000000.29     00800 01500                  
06789980245710001E167590675900000002881800888800000010100E0F8C8046C 00000000000.004040404040404040404040404040404040404040404040404006011203A00000000000000000000000404040404040404040404040404040  000008401800808000800023071138607EED2B218FFBCBD3EEAB404040400840A0000000031010000000000000000000404040404040404040404040404040404040401E40404040 000000017.70 000000000.001E00000000000000000000    80                                                                                                                                                                                                                                                                                                                  
06789990245710002G2675906759000000028818008888000000101SEVIERVILLE              TN           5 D                00                                      NNNN00 N 00                   000000000000                                                                   76487134                                                                                                                                                                                                                                                                                                                                                                                                                                               
06790000245710014DT67590675900000002881800888800000010180088824001193192900015800122071120230000001133819223000000000073232476585XXXXXX8474       VS11    0001111   NYV1 A E583192739444448N840000000011338VVNM00    05DNHAPPY HIPPIE             153224    VD84000000011338 N  549976487134                            000000000+                F DF 00381                     000000000  N000000000       0000000000000.00 0000000.00   0000000.00                             000000000000000                                                                                                                                                     01418 A000000000000 0000000000001.06     00800 01500                  
06790010245710001E167590675900000002881800888800000010100E0F8C8036B 00000000000.004040404040404040404040404040404040404040404040404006011203A02000000000000000000000404040404040404040404040404040  00000840180080800080002307118CB3B1C0ACE6088DD028EC10404040400840A00000000310100000000000000000009D65FA800082000000000000000000004040401E40404040 000000113.38 000000000.001E00000000000000000000    80                                                                                                                                                                                                                                                                                                                  
06790020245710002G2675906759000000028818008888000000101SEVIERVILLE              TN           5 D                00                                      NNNN00 N 00                   000000000000                                                                   76487134                                                                                                                                                                                                                                                                                                                                                                                                                                               
06790030245710015DT67590675900000002881800888800000010180088824001193192900015800130071120230000000231019223000000000073232443047XXXXXX0619       VS11    0001111   NYV1 A E463192741686881N840000000002310WDC800    05DNHAPPY HIPPIE             371036    VD84000000002310 N  549976487134                            000000000+                F DF 10433                     000000000  Y000000000 338   0000000000000.00 0000000.00   0000000.00                             000000000000000                                                                                                                                                     01418 A000000000000 0000000000000.23     00050 02200                  
06790040245710001E167590675900000002881800888800000010100E0F8C8037D 00000000000.004040404040404040404040404040404040404040404040404006011203A08000000000000000000000404040404040404040404040404040  0003084018008080008000230711CFB0189B74BAF56B450C591B404040400840A0000000031010000000000000000000835963620082000000000000000000004040401E40404040 000000023.10 000000000.001E00000000000000000000    80                                                                                                                                                                                                                                                                                                                  
06790050245710002G2675906759000000028818008888000000101SEVIERVILLE              TN           5 D                00                                      NNNN00 N 00                   000000000000                                                                   76487134                                                                                                                                                                                                                                                                                                                                                                                                                                               
06790060245710016DT67590675900000002881800888800000010180088824001193192900015800148071120230000001481419223000000000073232480639XXXXXX2932       VS11    0001111   NYV1 A E463192757519691N8400000000148146M8C00    05DNHAPPY HIPPIE             740234    VD84000000014814 N  549976487134                            000000000+                F DF 00381                     000000000  N000000000       0000000000000.00 0000000.00   0000000.00                             000000000000000                                                                                                                                                     01418 A000000000000 0000000000001.34     00800 01500                  
06790070245710001E167590675900000002881800888800000010100E0F8C80312 00000000000.004040404040404040404040404040404040404040404040404006011203A02000000000000000000000404040404040404040404040404040  0000084018008080008000230711ED556447BD0A35A391B4A556404040400840A00000000310100000000000000000001E5257010080000000000000000000004040401E40404040 000000148.14 000000000.001E00000000000000000000    80                                                                                                                                                                                                                                                                                                                  
06790080245710002G2675906759000000028818008888000000101SEVIERVILLE              TN           5 D                00                                      NNNN00 N 00                   000000000000                                                                   76487134                                                                                                                                                                                                                                                                                                                                                                                                                                               
06790090245710017BH6759067590000000288180088880000090170711202319223000000000029135    0000090001700007N8008886759C07122023170                                                                                                                                                                                                                                                                                                                                                                                                                                                                                                                                                                                              
06790100245710018DT67590675900000002881800888800000010180088877287283192900017000012071120230000000405319223000000000029135514377XXXXXX7120       MS02WI09          NY 1 0 AMDJH1410L0711  N840000000004053          05DNHAPPY HIPPIE             1ND0MQ    MD84000000004053 N  549976487158                            000000000+M10101C5434C    MDJ  00402                     000000000  N                0000000000000.00 0000000.00   0000000.00                             000000000000000                                                                                                                                                   B101418  000000000000 0000000000000.58     01050 01500                  
06790110245710001E167590675900000002881800888800000010100E0F8C8010C 00000000000.00404040404040404040404040404040404040404040404040400110A04001220000000000000000000000FF00000000000000000000000000  000108403900000000800023071169AD5F374DE24146A6816042404040400840A000000004101000000000000000000048871EA1DFF745C700100000000000004040401E40404040 000000040.53 000000000.001E03000000000000000000    80                                                                                                                                                                                                                                                                                                                  
06790120245710002G2675906759000000028818008888000000101SEVIERVILLE              TN           5 J                                                        NNNN              000000000000000000000000                        7                                          76487158                                                                                                                                                                                                                                                                                                                                                                                                                                               
06790130245710019DT67590675900000002881800888800000010180088824001193192900017000028071120230000000449819223000000000029135426684XXXXXX8061       VS11    0001111   NYV1 A E383192548191034N840000000004498D6KX00    05DNHAPPY HIPPIE             00182D    VS84000000004498 N  549976487158                            000000000+                D CD 12113                     000000000  N000000000 499   0000000000000.00 0000000.00   0000000.00                             000000000000000                                                                                                                                                     01418 A000000000000 0000000000001.04     02100 01000                  
06790140245710001E167590675900000002881800888800000010100E0F8C80498 00000000000.004040404040404040404040404040404040404040404040404006021203A0A002000000000000000000404040404040404040404040404040  000908403800008000800023071130BB288DD8B601C45A808DD4404040400840A0000000031010000000000000000000982F32800082000000000000000000004040401E40404040 000000044.98 000000000.001E00000000000000000000    80                                                                                                                                                                                                                                                                                                                  
06790150245710002G2675906759000000028818008888000000101SEVIERVILLE              TN           5 C                00                                      NNNN00 Y 00                   000000000000                                                                   76487158                                                                                                                                                                                                                                                                                                                                                                                                                                               
06790160245710020DT67590675900000002881800888800000010180088877287283192900017000038071120230000000325819223000000000029135517148XXXXXX1652       MS02WI09          NY 1 0 AMWELET9OW0711  N840000000003258          05DNHAPPY HIPPIE             01527Z    MC84000000003258 N  549976487158                            000000000+M10101C5434C    MWE  00743                     000000000  N                0000000000000.00 0000000.00   0000000.00                             000000000000000                                                                                                                                                   B101418  000000000000 0000000000000.79     02300 00400                  
06790170245710001E167590675900000002881800888800000010100E0F8C8006E 00000000000.00404040404040404040404040404040404040404040404040400110A04001220000000000000000000000FF00000000000000000000000000  000108403900000000800023071139C9E86C6ADE9BC4D03C3554404040400840A0000000041010000000000000000000ED5B36E4A2484D0E00120000000000004040401E40404040 000000032.58 000000000.001E03000000000000000000    80                                                                                                                                                                                                                                                                                                                  
06790180245710002G2675906759000000028818008888000000101SEVIERVILLE              TN           5 E                                                        NNNN              000000000000000000000000                        7                                          76487158                                                                                                                                                                                                                                                                                                                                                                                                                                               
06790190245710021DT67590675900000002881800888800000010180088824001193192900017000044071120230000000032819223000000000029135433477XXXXXX9118       VK04VS111111111   NYV1 A E463192684455127N840000000000328ZNNH00    05DNHAPPY HIPPIE             674816    VD84000000000328 N  549976487158                            000000000+                F DF 10439                     000000000  Y000000000 331   0000000000000.00 0000000.00   0000000.00                             000000000000000                                                                                                                                                     01418 F000000000000 0000000000000.22     00050 02200                  
06790200245710001E167590675900000002881800888800000010100E0F8C8014B 00000000000.004040404040404040404040404040404040404040404040404006011203A0A000000000000000000000404040404040404040404040404040  0002084018008080008000230711048BA401F766E6F46787A4D2404040400840A0000000031010000000000000000000875E43420082000000000000000000004040401E40404040 000000003.28 000000000.001E00000000000000000000    80                                                                                                                                                                                                                                                                                                                  
06790210245710002G2675906759000000028818008888000000101SEVIERVILLE              TN           5 D                00                                      NNNN00 N 00                   000000000000                                                                   76487158                                                                                                                                                                                                                                                                                                                                                                                                                                               
06790220245710022DT67590675900000002881800888800000010180088824001193192900017000051071120230000000054119223000000000029135480639XXXXXX1517       VK04VS111111111   NYV1 A E383192773725658N8400000000005416GF400    05DNHAPPY HIPPIE             740992    VD84000000000541 N  549976487158                            000000000+                F DF 00451                     000000000  N000000000 214   0000000000000.00 0000000.00   0000000.00                             000000000000000                                                                                                                                                     01418 F000000000000 0000000000000.12     01550 00400                  
06790230245710001E167590675900000002881800888800000010100E0F8C800A0 00000000000.004040404040404040404040404040404040404040404040404006011203A02000000000000000000000404040404040404040404040404040  00000840180080800080002307112904E03CB51C0084D5C9BAD7404040400840A0000000031010000000000000000000F11192F30080000000000000000000004040401E40404040 000000005.41 000000000.001E00000000000000000000    80                                                                                                                                                                                                                                                                                                                  
06790240245710002G2675906759000000028818008888000000101SEVIERVILLE              TN           5 D                00                                      NNNN00 N 00                   000000000000                                                                   76487158                                                                                                                                                                                                                                                                                                                                                                                                                                               
06790250245710023DT67590675900000002881800888800000010180088877287283192900017000061071120230000001097419223000000000029135552433XXXXXX2922       ME03MS02WI09      NY 1 0 AMPLVYM5AC0711  N840000000010974          01DNHAPPY HIPPIE             09699M    MC84000000010974 N  549976487158                            000000000+M1010115434C    MPL  00581                     000000000  N                0000000000000.00 0000000.00   0000000.00                             000000000000000                                                                                                                                                   E101418  000000000000 0000000000002.40     02100 01000                  
06790260245710001G2675906759000000028818008888000000101SEVIERVILLE              TN           5 L                                                        NNNN              000000000000000000000000                        7                                          76487158                                                                                                                                                                                                                                                                                                                                                                                                                                               
06790270245710024DT67590675900000002881800888800000010180088824001193192900017000077071120230000000548319223000000000029135424631XXXXXX4638       VS11    0001111   NYV1 A E303192781819113N8400000000054836PN500    05DNHAPPY HIPPIE             09041G    VB84000000005483 N  549976487158                            000000000+                G CG 00693                     000000000  N000000000 232   0000000000000.00 0000000.00   0000000.00                             000000000000000                                                                                                                                                     01418 A000000000000 0000000000001.14     01900 01000                  
06790280245710001E167590675900000002881800888800000010100E0F8C8005E 00000000000.004040404040404040404040404040404040404040404040404006010A03A0A006000000000000000000404040404040404040404040404040  000208403C000080008000230711EB33B9A9C14CE0F9076F20AF404040400840A00000000310100000000000000000009BE931CECDB266A030300000000000004040401E40404040 000000054.83 000000000.001E00000000000000000000    80                                                                                                                                                                                                                                                                                                                  
06790290245710002G2675906759000000028818008888000000101SEVIERVILLE              TN           5 C                00                                      NNNN00 Y 00                   000000000000                                                                   76487158                                                                                                                                                                                                                                                                                                                                                                                                                                               
06790300245710025BH6759067590000000288180088880000090170711202319223000000000145280    0000090001590020N8008886759C07122023059                                                                                                                                                                                                                                                                                                                                                                                                                                                                                                                                                                                              
06790310245710026DT67590675900000002881800888800000010180088824001193192900015900013071120230000000833219223000000000145280443264XXXXXX1577       VS11    0001111   NYV1 A E463192521008100N840000000008332BNX200    05DNHAPPY HIPPIE             015831    VD84000000008332 N  549976487169                            000000000+                F DF 10433                     000000000  Y000000000 338   0000000000000.00 0000000.00   0000000.00                             000000000000000                                                                                                                                                     01418 A000000000000 0000000000000.26     00050 02200                  
06790320245710001E167590675900000002881800888800000010100E0F8C80306 00000000000.004040404040404040404040404040404040404040404040404006011203A08000000000000000000000404040404040404040404040404040  00000840180080800080002307117CC41B7C4A6EA4D417102430404040400840A0000000031010000000000000000000CA2D64E70080000000000000000000004040401E40404040 000000083.32 000000000.001E00000000000000000000    80                                                                                                                                                                                                                                                                                                                  
06790330245710002G2675906759000000028818008888000000101SEVIERVILLE              TN           5 D                00                                      NNNN00 N 00                   000000000000                                                                   76487169                                                                                                                                                                                                                                                                                                                                                                                                                                               
06790340245710027DT67590675900000002881800888800000010180088877287283192900015900023071120230000000578519223000000000145280528149XXXXXX2571       MS02WI09          NY 1 0 AMDJTBN87X0711  N840000000005785          05DNHAPPY HIPPIE             037945    MD84000000005785 N  549976487169                            000000000+M10101C5434C    MDJ  00402                     000000000  N                0000000000000.00 0000000.00   0000000.00                             000000000000000                                                                                                                                                   B101418  000000000000 0000000000000.76     01050 01500                  
06790350245710001E167590675900000002881800888800000010100E0F8C8000A 00000000000.00404040404040404040404040404040404040404040404040400110A00001220000000000000000000000FF00000000000000000000000000  000008401800800000800023071180CC1B2A584F79B9113EE7EC404040400840A00000000410100000000000000000009EF97FE952BC2B3703120000000000004040401E40404040 000000057.85 000000000.001E03000000000000000000    80                                                                                                                                                                                                                                                                                                                  
06790360245710002G2675906759000000028818008888000000101SEVIERVILLE              TN           5 J                                                        NNNN              000000000000000000000000                        7                                          76487169                                                                                                                                                                                                                                                                                                                                                                                                                                               
06790370245710028DT67590675900000002881800888800000010180088824001193192900015900039071120230000000493819223000000000145280445101XXXXXX0629       VS11    0001111   NYV1 A E303192525449150N8400000000049389XWK00    05DNHAPPY HIPPIE             255919    VD84000000004938 N  549976487169                            000000000+                F DF 10433                     000000000  Y000000000 338   0000000000000.00 0000000.00   0000000.00                             000000000000000                                                                                                                                                     01418 A000000000000 0000000000000.24     00050 02200                  
06790380245710001E167590675900000002881800888800000010100E0F8C8017E 00000000000.004040404040404040404040404040404040404040404040404006011203A08000000000000000000000404040404040404040404040404040  00010840180080800080002307118F83719E5458E7041040DBE1404040400840A0000000031010000000000000000000E6E468210082000000000000000000004040401E40404040 000000049.38 000000000.001E00000000000000000000    80                                                                                                                                                                                                                                                                                                                  
06790390245710002G2675906759000000028818008888000000101SEVIERVILLE              TN           5 D                00                                      NNNN00 N 00                   000000000000                                                                   76487169                                                                                                                                                                                                                                                                                                                                                                                                                                               
06790400245710029DT67590675900000002881800888800000010180088824001193192900015900047071120230000000694519223000000000145280415978XXXXXX9354       VS11    0001111   NYV1 A E303192569157731N8400000000069453NMS00    05DNHAPPY HIPPIE             070481    VD84000000006945 N  549976487169                            000000000+                F DF 10433                     000000000  Y000000000 338   0000000000000.00 0000000.00   0000000.00                             000000000000000                                                                                                                                                     01418 A000000000000 0000000000000.25     00050 02200                  
06790410245710001E167590675900000002881800888800000010100E0F8C80136 00000000000.004040404040404040404040404040404040404040404040404006011203A02000000000000000000000404040404040404040404040404040  00000840180080800080002307118CCA14F0142A2F1D550DA028404040400840A00000000310100000000000000000009F0CF44E8F0C47CD30300000000000004040401E40404040 000000069.45 000000000.001E00000000000000000000    80                                                                                                                                                                                                                                                                                                                  
06790420245710002G2675906759000000028818008888000000101SEVIERVILLE              TN           5 D                00                                      NNNN00 N 00                   000000000000                                                                   76487169                                                                                                                                                                                                                                                                                                                                                                                                                                               
06790430245710030DT67590675900000002881800888800000010180088824001193192900015900054071120230000000497719223000000000145280407272XXXXXX7182       VS11    0001111   NYV1 A E303192584528858N840000000004977F8BD00    05DNHAPPY HIPPIE             832489    VD84000000004977 N  549976487169                            000000000+                F DF 00381                     000000000  N000000000       0000000000000.00 0000000.00   0000000.00                             000000000000000                                                                                                                                                     01418 A000000000000 0000000000000.55     00800 01500                  
06790440245710001E167590675900000002881800888800000010100E0F8C80080 00000000000.004040404040404040404040404040404040404040404040404006011203A0A000000000000000000000404040404040404040404040404040  0000084018008080008000230711AD6F0A1257318EC223CAAFAF404040400840A000000003101000000000000000000005D38FF70080000000000000000000004040401E40404040 000000049.77 000000000.001E00000000000000000000    80                                                                                                                                                                                                                                                                                                                  
06790450245710002G2675906759000000028818008888000000101SEVIERVILLE              TN           5 D                00                                      NNNN00 N 00                   000000000000                                                                   76487169                                                                                                                                                                                                                                                                                                                                                                                                                                               
06790460245710031DT67590675900000002881800888800000010180088876509753192900015900060071120230000003619819223000000000145280601100XXXXXX5898   BA50                  NY41 0 N803165469094306N840000000036198    00    05DNHAPPY HIPPIE             01126R    DS84000000036198 N  549976487169050                         000000000+0000004910H00   DCCDI01000002711  122149000000 000000000  0          112   0000000000000.00 0000000.00   0000000.00                             000000000000000                                                                                                                                                     01418  000000000000 0000000000006.33     01720 01000                  
06790470245710001E167590675900000002881800888800000010100E0F8C80288 00000000000.00404040404040404040404040404040404040404040404040400105A0800F8000000000000000000000404040404040404040404040404040  000108407800000000800023071137E2CF672A90F2D76420428C404040400840A0000001523010000000000000000000A1CBBA8582BF4E8200320000000000004040401E40404040 000000361.98 000000000.001E03000000000000000000    80                                                                                                                                                                                                                                                                                                                  
06790480245710002G2675906759000000028818008888000000101SEVIERVILLE              TN           5 C                00                                      NNNN                          000000000000                         00000650975601179750000063                76487169                                                                                                                                                                                                                                                                                                                                                                                                                                               
06790490245710032DT67590675900000002881800888800000010180088876509753192900015900078071120230000000532319223000000000145280601100XXXXXX5898   BA50                  NY41 0 N863165472253838N840000000005323    00    05DNHAPPY HIPPIE             01145R    DS84000000005323 N  549976487169050                         000000000+0000004910H00   DCCDI01000501340  122705000000 000000000  0          112   0000000000000.00 0000000.00   0000000.00                             000000000000000                                                                                                                                                     01418  000000000000 0000000000001.02     01720 01000                  
06790500245710001E167590675900000002881800888800000010100E0F8C80289 00000000000.00404040404040404040404040404040404040404040404040400105A0800F8000000000000000000000404040404040404040404040404040  00010840780000000080002307114B67A2FA8490C4A9FF0637F2404040400840A0000001523010000000000000000000C5F0E8D94C5210D200320000000000004040401E40404040 000000053.23 000000000.001E03000000000000000000    80                                                                                                                                                                                                                                                                                                                  
06790510245710002G2675906759000000028818008888000000101SEVIERVILLE              TN           5 C                00                                      NNNN                          000000000000                         00000650975601179750000063                76487169                                                                                                                                                                                                                                                                                                                                                                                                                                               
06790520245710033DT67590675900000002881800888800000010180088824001193192900015900088071120230000000416619223000000000145280423223XXXXXX4850       VS11    0001111   NYV1 A E583192600402299N84000000000416638WX00    07DNHAPPY HIPPIE             089445    VD84000000004166 N  549976487169                            000000000+                F DF 00381                     000000000  N000000000       0000000000000.00 0000000.00   0000000.00                             000000000000000                                                                                                                                                     01418 A000000000000 0000000000000.48     00800 01500                  
06790530245710001E167590675900000002881800888800000010100E068C800C7 00000000000.004040404040404040404040404040404040404040404040404006011203A00000000000000000000000404040404040404040404040404040  0000084020000000000000230711D3F4108BCCAAF8D48F16FB4B404040400840A0000000031010000000000000000000E7C11F8F0080000000000000000000004040404040404040 000000041.66 000000000.004040400000000000000000    80                                                                                                                                                                                                                                                                                                                  
06790540245710002G2675906759000000028818008888000000101SEVIERVILLE              TN           5 D                00                                      NNNN00 N 00                   000000000000                                                                   76487169                                                                                                                                                                                                                                                                                                                                                                                                                                               
06790550245710034DT67590675900000002881800888800000010180088824001193192900015900096071120230000000260319223000000000145280483950XXXXXX4838       VS11    0001111   NYV1 A E463192653967319N840000000002603F2C200    07DNHAPPY HIPPIE             08708D    VS84000000002603 N  549976487169                            000000000+                D CD 12113                     000000000  N000000000 499   0000000000000.00 0000000.00   0000000.00                             000000000000000                                                                                                                                                     01418 A000000000000 0000000000000.65     02100 01000                  
06790560245710001E167590675900000002881800888800000010100E068C8065F 00000000000.004040404040404040404040404040404040404040404040404006060A03A00000000000000000000000404040404040404040404040404040  0002084020000000000000230711F4000733AD133E041BFA9854404040400840A0000000031010000000000000000000404040404040404040404040404040404040404040404040 000000026.03 000000000.004040400000000000000000    80                                                                                                                                                                                                                                                                                                                  
06790570245710002G2675906759000000028818008888000000101SEVIERVILLE              TN           5 C                00                                      NNNN00 Y 00                   000000000000                                                                   76487169                                                                                                                                                                                                                                                                                                                                                                                                                                               
06790580245710035DT67590675900000002881800888800000010180088824001193192900015900104071120230000000520919223000000000145280419090XXXXXX0535       VS11    0001111   NYV1 A E583192667882631N840000000005209G8V600    05DNHAPPY HIPPIE             794488    VD84000000005209 N  549976487169                            000000000+                F DF 00381                     000000000  N000000000       0000000000000.00 0000000.00   0000000.00                             000000000000000                                                                                                                                                     01418 A000000000000 0000000000000.57     00800 01500                  
06790590245710001E167590675900000002881800888800000010100E0F8C8022D 00000000000.004040404040404040404040404040404040404040404040404006010A03A0A000000000000000000000404040404040404040404040404040  00010840180080800080002307110ABAF87D83978D604B580B8C404040400840A0000000031010000000000000000000AE7A37A7993535E230300000000000004040401E40404040 000000052.09 000000000.001E00000000000000000000    80                                                                                                                                                                                                                                                                                                                  
06790600245710002G2675906759000000028818008888000000101SEVIERVILLE              TN           5 D                00                                      NNNN00 N 00                   000000000000                                                                   76487169                                                                                                                                                                                                                                                                                                                                                                                                                                               
06790610245710036DT67590675900000002881800888800000010180088824001193192900015900112071120230000000300819223000000000145280445101XXXXXX6463       VS11    0001111   NYV1 A E583192677499047N840000000003008WLL700    05DNHAPPY HIPPIE             395922    VD84000000003008 N  549976487169                            000000000+                F DF 10433                     000000000  Y000000000 338   0000000000000.00 0000000.00   0000000.00                             000000000000000                                                                                                                                                     01418 A000000000000 0000000000000.24     00050 02200                  
06790620245710001E167590675900000002881800888800000010100E0F8C806C2 00000000000.004040404040404040404040404040404040404040404040404006010A03A08000000000000000000000404040404040404040404040404040  000108401800808000800023071133E1ECC692E64286A338BD89404040400840A0000000031010000000000000000000ACF9CE4F0F7D492730300000000000004040401E40404040 000000030.08 000000000.001E00000000000000000000    80                                                                                                                                                                                                                                                                                                                  
06790630245710002G2675906759000000028818008888000000101SEVIERVILLE              TN           5 D                00                                      NNNN00 N 00                   000000000000                                                                   76487169                                                                                                                                                                                                                                                                                                                                                                                                                                               
06790640245710037DT67590675900000002881800888800000010180088824001193192900015900120071120230000000231519223000000000145280423223XXXXXX6886       VS11    0001111   NYV1 A E383192677964874N8400000000023158VQ900    05DNHAPPY HIPPIE             093325    VD84000000002315 N  549976487169                            000000000+                F DF 00381                     000000000  N000000000       0000000000000.00 0000000.00   0000000.00                             000000000000000                                                                                                                                                     01418 A000000000000 0000000000000.34     00800 01500                  
06790650245710001E167590675900000002881800888800000010100E0F8C80063 00000000000.004040404040404040404040404040404040404040404040404006011203A08000000000000000000000404040404040404040404040404040  0000084018008080008000230711B55970EA05E88B43C40BFE25404040400840A0000000031010000000000000000000BB05C9EC0080000000000000000000004040401E40404040 000000023.15 000000000.001E00000000000000000000    80                                                                                                                                                                                                                                                                                                                  
06790660245710002G2675906759000000028818008888000000101SEVIERVILLE              TN           5 D                00                                      NNNN00 N 00                   000000000000                                                                   76487169                                                                                                                                                                                                                                                                                                                                                                                                                                               
06790670245710038DT67590675900000002881800888800000010180088824001193192900015900138071120230000000208419223000000000145280422921XXXXXX9947       VS11    0001111   NYV1 A E463192709030856N8400000000020842R3R00    05DNHAPPY HIPPIE             056504    VD84000000002084 N  549976487169                            000000000+                F DF 00381                     000000000  N000000000       0000000000000.00 0000000.00   0000000.00                             000000000000000                                                                                                                                                     01418 A000000000000 0000000000000.32     00800 01500                  
06790680245710001E167590675900000002881800888800000010100E0F8C800C8 00000000000.004040404040404040404040404040404040404040404040404006011203A08000000000000000000000404040404040404040404040404040  000008401800808000800023071183A730D69ADF31FE4D3D54E1404040400840A00000000310100000000000000000007488CB5F0382000000000000000000004040401E40404040 000000020.84 000000000.001E00000000000000000000    80                                                                                                                                                                                                                                                                                                                  
06790690245710002G2675906759000000028818008888000000101SEVIERVILLE              TN           5 D                00                                      NNNN00 N 00                   000000000000                                                                   76487169                                                                                                                                                                                                                                                                                                                                                                                                                                               
06790700245710039DT67590675900000002881800888800000010180088824001193192900015900146071120230000000625919223000000000145280419090XXXXXX6209       VS11    0001111   NYV1 A E463192714720173N840000000006259S8P700    05DNHAPPY HIPPIE             797040    VD84000000006259 N  549976487169                            000000000+                F DF 00381                     000000000  N000000000       0000000000000.00 0000000.00   0000000.00                             000000000000000                                                                                                                                                     01418 A000000000000 0000000000000.65     00800 01500                  
06790710245710001E167590675900000002881800888800000010100E0F8C8005E 00000000000.004040404040404040404040404040404040404040404040404006011203A0A000000000000000000000404040404040404040404040404040  0002084018008080008000230711F119B38932749C38C2FB762D404040400840A0000000031010000000000000000000079D62390082000000000000000000004040401E40404040 000000062.59 000000000.001E00000000000000000000    80                                                                                                                                                                                                                                                                                                                  
06790720245710002G2675906759000000028818008888000000101SEVIERVILLE              TN           5 D                00                                      NNNN00 N 00                   000000000000                                                                   76487169                                                                                                                                                                                                                                                                                                                                                                                                                                               
06790730245710040DT67590675900000002881800888800000010180088824001193192900015900153071120230000000405819223000000000145280443238XXXXXX0990       VS11    0001111   NYV1 A E303192737119614N840000000004058GXXK00    05DNHAPPY HIPPIE             062831    VD84000000004058 N  549976487169                            000000000+                F DF 00381                     000000000  N000000000       0000000000000.00 0000000.00   0000000.00                             000000000000000                                                                                                                                                     01418 A000000000000 0000000000000.47     00800 01500                  
06790740245710001E167590675900000002881800888800000010100E0F8C801F8 00000000000.004040404040404040404040404040404040404040404040404006011203A0A000000000000000000000404040404040404040404040404040  00000840180080800080002307112EEA3374931C869E394D519B404040400840A0000000031010000000000000000000404040404040404040404040404040404040401E40404040 000000040.58 000000000.001E00000000000000000000    80                                                                                                                                                                                                                                                                                                                  
06790750245710002G2675906759000000028818008888000000101SEVIERVILLE              TN           5 D                00                                      NNNN00 N 00                   000000000000                                                                   76487169                                                                                                                                                                                                                                                                                                                                                                                                                                               
06790760245710041DT67590675900000002881800888800000010180088824001193192900015900161071120230000001502819223000000000145280455225XXXXXX3102       VS11    0001111   NYV1 A E463192742876952N840000000015028D73C00    05DNHAPPY HIPPIE             H68881    VD84000000015028 N  549976487169                            000000000+                F DF 10433                     000000000  Y000000000 338   0000000000000.00 0000000.00   0000000.00                             000000000000000                                                                                                                                                     01418 A000000000000 0000000000000.30     00050 02200                  
06790770245710001E167590675900000002881800888800000010100E0F8C80533 00000000000.004040404040404040404040404040404040404040404040404006010A03A0A806000000000000000000404040404040404040404040404040  000008403D000080008000230711723696D4DDEA46B8249DCCC8404040400840A0000000031010000000000000000000D15E511B0D18C19930300000000000004040401E40404040 000000150.28 000000000.001E03000000000000000000    80                                                                                                                                                                                                                                                                                                                  
06790780245710002G2675906759000000028818008888000000101SEVIERVILLE              TN           5 D                00                                      NNNN00 N 00                   000000000000                                                                   76487169                                                                                                                                                                                                                                                                                                                                                                                                                                               
06790790245710042DT67590675900000002881800888800000010180088877287283192900015900171071120230000000347319223000000000145280515942XXXXXX7340       MS02WI09          NY 1 0 AMPLTWJIP20711  N840000000003473          05DNHAPPY HIPPIE             011596    MC84000000003473 N  549976487169                            000000000+M10101C5434C    MPL  00043                     000000000  N                0000000000000.00 0000000.00   0000000.00                             000000000000000                                                                                                                                                   B101418  000000000000 0000000000000.61     01650 00400                  
06790800245710001E167590675900000002881800888800000010100E0F8C80025 00000000000.00404040404040404040404040404040404040404040404040400110A04003220000000000000000000000FF00000000000000000000000000  0001084039000000008000230711BCD31A1C7B28554EA3AD7B93404040400840A000000004101000000000000000000085EF3DA83234E7C300120000000000004040401E40404040 000000034.73 000000000.001E03000000000000000000    80                                                                                                                                                                                                                                                                                                                  
06790810245710002G2675906759000000028818008888000000101SEVIERVILLE              TN           5 L                                                        NNNN              000000000000000000000000                        7                                          76487169                                                                                                                                                                                                                                                                                                                                                                                                                                               
06790820245710043DT67590675900000002881800888800000010180088824001193192900015900187071120230000001486919223000000000145280423534XXXXXX7604       VS11    0001111   NYV1 A E383192788611639N840000000014869BX6700    05DNHAPPY HIPPIE             075421    VS84000000014869 N  549976487169                            000000000+                C CC 12112                     000000000  N000000000 497   0000000000000.00 0000000.00   0000000.00                             000000000000000                                                                                                                                                     01418 A000000000000 0000000000002.55     01650 01000                  
06790830245710001E167590675900000002881800888800000010100E0F8C80296 00000000000.004040404040404040404040404040404040404040404040404006011203A0A000000000000000000000404040404040404040404040404040  0000084018008080008000230711E01E782B505A502DBF82FE45404040400840A0000000031010000000000000000000404040404040404040404040404040404040401E40404040 000000148.69 000000000.001E00000000000000000000    80                                                                                                                                                                                                                                                                                                                  
06790840245710002G2675906759000000028818008888000000101SEVIERVILLE              TN           5 C                00                                      NNNN00 N 00                   000000000000                                                                   76487169                                                                                                                                                                                                                                                                                                                                                                                                                                               
06790850245710044DT67590675900000002881800888800000010180088877287283192900015900197071120230000000446119223000000000145280542418XXXXXX1182       MS02WI09          NY 1 0 AMWEWGP9AC0711  N840000000004461          07DNHAPPY HIPPIE             45994P    MC84000000004461 N  549976487169                            000000000+M10101M0034C    MWE  00743                     000000000  N                0000000000000.00 0000000.00   0000000.00                             000000000000000                                                                                                                                                   B101418  000000000000 0000000000001.07     02300 00400                  
