00005920378770002BH6759067590000000288180088880000090170216202304723000000000003840    0000090001580120Y8008886759C02172023                                                                                                                                                                                                                                                                                                                                                                                                                                                                                                                                                                                                 
00005930378770003DT67590675900000002881800888800000010180088824001193047900015801200021620230000000384004723000000000003840422921XXXXXX2523               2111111   NYV4 A7W303047547274699N840000000003840NKJ500    01DNHAPPY HIPPIE             036729    VD84000000003840 NP1549976044904   1939                     000000000+                F DF 00415                     000000000  N000000000       0000000000000.00 0000000.00   0000000.00                             000000000000000                                                                                                                                                     01424 G000000003840 0000000000000.78     01650 01500                  
00005940378770001P16759067590000000288180088880000001010000000000000000                             2000000000000000000000000              000000000000                    0000000000000000000000000                    000000000000                                                                                                                                                                                                                                                                                                                                                                                                                                                                                        
00005950378770004BH6759067590000000370780088880000090170216202304723000000000038846    0000090001340249Y8008886759C02172023                                                                                                                                                                                                                                                                                                                                                                                                                                                                                                                                                                                                 
00005960378770005DT67590675900000003707800888800000010180088824001193047900013402464021520230000000849904723000000000038846400022XXXXXX4452               2111111   NYV4 A7W583047157082153N8400000000084997F2300    01DNMR HEMP FLOWER           670675    VD84000000008499 NP1549976053336   85915                    000000000+                F DF 10420                     000000000  Y000000000 338   0000000000000.00 0000000.00   0000000.00                             000000000000000                                                                                                                                                     01424 G000000008499 0000000000000.26     00050 02200                  
00005970378770001P16759067590000000370780088880000001010000000000000000                             2000000000000000000000000              000000000000                    0000000000000000000000000                    000000000000                                                                                                                                                                                                                                                                                                                                                                                                                                                                                        
00005980378770006DT67590675900000003707800888800000010180088824001193047900013402472021620230000001087504723000000000038846414720XXXXXX7613               2111111   NYV4 A7W303047258577785N84000000001087554Q900    01DNMR HEMP FLOWER           01720C    VS84000000010875 NP1549976053336   85916                    000000000+                C CC 12108                     000000000  N000000000 496   0000000000000.00 0000000.00   0000000.00                             000000000000000                                                                                                                                                     01424 G000000010875 0000000000002.33     02050 01000                  
00005990378770001P16759067590000000370780088880000001010000000000000000                             2000000000000000000000000              000000000000                    0000000000000000000000000                    000000000000                                                                                                                                                                                                                                                                                                                                                                                                                                                                                        
00006000378770007DT67590675900000003707800888800000010180088887287283047900013402481021620230000001429904723000000000038846544974XXXXXX2007       ME03KE06MS02      NY 4607AMCGLSHYOW0216  N840000000014299          81DNMR HEMP FLOWER           68293B    MC84000000014299 N  549976053336   85934                    000000000+600450S00130    MCG  00580                     000000000  N                0000000000000.00 0000000.00   0000000.00                             000000000000000                                                                                                                                                   U001424  000000000000 0000000000003.10     02100 01000                  
00006010378770008DT67590675900000003707800888800000010180088824001193047900013402498021620230000000517304723000000000038846475583XXXXXX1722               2111111   NYV4 A7W583047706740443N840000000005173VRQ200    01DNMR HEMP FLOWER           043754    VS84000000005173 NP1549976053336   85935                    000000000+                B CB 12107                     000000000  N000000000 494   0000000000000.00 0000000.00   0000000.00                             000000000000000                                                                                                                                                     01424 G000000005173 0000000000001.16     02040 01000                  
00006020378770001P16759067590000000370780088880000001010000000000000000                             2000000000000000000000000              000000000000                    0000000000000000000000000                    000000000000                                                                                                                                                                                                                                                                                                                                                                                                                                                                                        
00006030378770009BH6759067590000001330080010280000090170216202304723000000000022506    0000090001010028Y8001026759C02172023                                                                                                                                                                                                                                                                                                                                                                                                                                                                                                                                                                                                 
00006040378770010DT67590675900000013300800102800000010180010224001193047900010100103021620230000001987004723000000000022506441913XXXXXX4473               2111111   NYV4 A7W583047718903494N840000000019870PW5M00    01DNCBD8666317293            365225    VD84000000019870 NP1549977133133   DBCDBA6A31TF35167316464  000000000+                F DF 00415                     000000000  N000000000       0000000000000.00 0000000.00   0000000.00                             000000000000000                                                                                                                                                     01424 G000000019870 0000000000003.43     01650 01500                  
00006050378770001P16759067590000001330080010280000001010000000000000000                             2000000000000000000000000              000000000000                    0000000000000000000000000                    000000000000                                                                                                                                                                                                                                                                                                                                                                                                                                                                                        
00006060378770011DT67590675900000013300800102800000010180010224001193047900010100111021620230000000103604723000000000022506441913XXXXXX4473               2111111   NYV4 A7W303047718955050N840000000001036QMLQ00    01DNCBD8666317293            367462    VD84000000001036 NP1549977133133   DBCDBA6A31TA38778E02306  000000000+                F DF 00415                     000000000  N000000000       0000000000000.00 0000000.00   0000000.00                             000000000000000                                                                                                                                                     01424 G000000001036 0000000000000.32     01650 01500                  
00006070378770001P16759067590000001330080010280000001010000000000000000                             2000000000000000000000000              000000000000                    0000000000000000000000000                    000000000000                                                                                                                                                                                                                                                                                                                                                                                                                                                                                        
00006080378770012DT67590675900000013300800102800000010180010287287283047900010100286021620230000000160004723000000000022506512107XXXXXX2651       ME03KE06PT01      NY 4607AMCWFW8QCJ0216  N840000000001600          81DNCBD8666317293            01652P    MC84000000001600 N  549977133133   36D64A22DDTF522BE980AD8  000000000+600450S00130    MCW  00642                     000000000  N                0000000000000.00 0000000.00   0000000.00                             000000000000000                                                                                                                                                   U001424  000000000000 0000000000000.45     02200 01000                  
00006090378770013BH6759067590000001427480010280000090170216202304723000000000037361    0000090001010031Y8001026759C02172023                                                                                                                                                                                                                                                                                                                                                                                                                                                                                                                                                                                                 
00006100378770014DT67590675900000014274800102800000010180010224001193047900010100152021620230000001499104723000000000037361472221XXXXXX4461               2111111   NYV4 A7W463047829385370N8400000000149916WH300    01DNCBD8666317293            06559C    VS84000000014991 NP1549977145232   DC3BE0334FT9292D066786E  000000000+                C CC 12108                     000000000  N000000000 496   0000000000000.00 0000000.00   0000000.00                             000000000000000                                                                                                                                                     01424 G000000014991 0000000000003.17     02050 01000                  
00006110378770001P16759067590000001427480010280000001010000000000000000                             2000000000000000000000000              000000000000                    0000000000000000000000000                    000000000000                                                                                                                                                                                                                                                                                                                                                                                                                                                                                        
00006120378770015DT67590675900000014274800102800000010180010287287283047900010100302021620230000002126104723000000000037361512107XXXXXX2651       ME03KE06PT01      NY 4607AMCWLVQIEN0216  N840000000021261          81DNCBD8666317293            01652P    MC84000000021261 N  549977145232   36D64A22DDTCD937303E0C9  000000000+600450S00130    MCW  00642                     000000000  N                0000000000000.00 0000000.00   0000000.00                             000000000000000                                                                                                                                                   U001424  000000000000 0000000000004.78     02200 01000                  
00006130378770016DT67590675900000014274800102800000010180010287287283047900010100310021620230000000110904723000000000037361512107XXXXXX2651       ME03KE06PT01      NY 4607AMCWHGMXQQ0216  N840000000001109          81DNCBD8666317293            01626P    MC84000000001109 N  549977145232   36D64A22DDT1DB9DF294E13  000000000+600450S00130    MCW  00642                     000000000  N                0000000000000.00 0000000.00   0000000.00                             000000000000000                                                                                                                                                   U001424  000000000000 0000000000000.34     02200 01000                  
