07831600296596001AD675906759000000151648008888000009077900014061190000000596107122023NYY19323YC6759800888071420232023193026079                                                                                                                                                                                                                                                                                                                                                                                                                                                                                                                                                                                              
07831610296596004AD675906759000000133008001028000009071900015360110000001987007122023NYY19323ND6759800102071420232023193022342                                                                                                                                                                                                                                                                                                                                                                                                                                                                                                                                                                                              
07831620296596007AD675906759000000268498001258000009071900013096640000001977007122023NYY19323ND6759800125071420232023193022343                                                                                                                                                                                                                                                                                                                                                                                                                                                                                                                                                                                              
07831630296596010AD675906759000000057028008888000009071900019895020000000330007122023NYY19323ND6759800888071420232023193022344                                                                                                                                                                                                                                                                                                                                                                                                                                                                                                                                                                                              
07831640296596013AD675906759000000133008001028000009071900013597900000002159907122023NYY19323ND6759800102071420232023193022345                                                                                                                                                                                                                                                                                                                                                                                                                                                                                                                                                                                              
07831650296596016AD675906759000000133008001028000009071900013600590000002673507122023NYY19323ND6759800102071420232023193022346                                                                                                                                                                                                                                                                                                                                                                                                                                                                                                                                                                                              
07831660296596019AD675906759000000161968001028000009071900018967060000002136007122023NYY19323ND6759800102071420232023193022347                                                                                                                                                                                                                                                                                                                                                                                                                                                                                                                                                                                              
07831670296596022AD675906759000000176738001068000009071900015120730000000654007122023NYY19323ND6759800106071420232023193022348                                                                                                                                                                                                                                                                                                                                                                                                                                                                                                                                                                                              
07831680296596025AD675906759000000176738001068000009071900012410130000001306707122023NYY19323ND6759800106071420232023193022349                                                                                                                                                                                                                                                                                                                                                                                                                                                                                                                                                                                              
07831690296596028AD675906759000000198288001098000009071900012240140000001987007122023NYY19323ND6759800109071420232023193022350                                                                                                                                                                                                                                                                                                                                                                                                                                                                                                                                                                                              
07831700296596046AD675906759000000232598001168000009077900012912970000002178907122023NYY19323YC6759800116071420232023172006408                                                                                                                                                                                                                                                                                                                                                                                                                                                                                                                                                                                              
07831710296952405AD675906759000000151648008888000009071231690002160000002487007122023NYY19323ND6759800888071420232023169000216                                                                                                                                                                                                                                                                                                                                                                                                                                                                                                                                                                                              
07831720296952408AD675906759000000151648008888000009071231690002320000000519007122023NYY19323ND6759800888071420232023169000232                                                                                                                                                                                                                                                                                                                                                                                                                                                                                                                                                                                              
07831730296952411AD675906759000000058928001018000009077231930292230000000599807122023NYY19323YC6759800101071420232023193029223                                                                                                                                                                                                                                                                                                                                                                                                                                                                                                                                                                                              
07831740298280833BH6759067590000003201180013680000090170713202319423000000000048048    0000090001662932N8001366759D07142023066                                                                                                                                                                                                                                                                                                                                                                                                                                                                                                                                                                                              
07831750298280834DT67590675900000032011800136800000010180013687287283194900016693608071220230000001500019423000000000048048514377XXXXXX4607       ME03KE06MS02      YY 4607AMDJLI17JF0712  N840000000015000          81DNCHOICE BOTANICALS INC    1KIHK8    MD84000000015000 N  549971004114   2756                     000000000+600450S00140    MDJ  00401                     000000000  N                0000000000000.00 0000000.00   0000000.00                             000000000000000                                                                                                                                                   U0015WPE 000000000000 0000000000002.63     01650 01500                  
07831760298280001G26759067590000003201180013680000001018884377779               TX           9 J               210                                      NNNN           210000000000000000000000000                        7                                          71004114                                                                                                                                                                                                                                                                                                                                                                                                                                               
07831770298280835DT67590675900000032011800136800000010680013673011003194900016656519071220230000012740019423000000000048048376743XXXXX2014                          YY 4 07N008312260240065N840000000127400          01CNCHOICE BOTANICALS INC    199538    AM84000000127400 N  549971004114                            000000000+6004S0600140 258     11314                     000000000                   0000000000000.00 0000000.00   0000000.00                             000000000000000 61248972086759675900000032011                          5390 GREENS RD                           77032                                               015WPE 000000000000 0000000000000.00     00000 00000                  
07831780298280001G2675906759000000320118001368000000106HOUSTON                  TX           9                  00                                      NNNN                          000000000000                                                                   71004114                                                                                                                                                                                                                                                                                                                                                                                                                                               
07831790298280836DT67590675900000032011800136800000010180013624001193194900016658055071220230000002094419423000000000048048440393XXXXXX9964               2111111   YYV4 A7W463193593457114N840000000020944GJFN00    01DNCHOICE BOTANICALS INC    821618    VD84000000020944 NDR549971004114   RHLMH4F3L693DWU0F3VB     000000000+                F PF 08175                     000000000  N000000000       0000000000000.00 0000000.00   0000000.00                             000000000000000                                                                                                                                                     015WPEG000000020944 0000000000003.87     01750 02000                  
07831800298280836DR675906759000000320118001368000000101RHLMH4F3L693DWU0F3VB     Y000000020944                 P1                                                                                                                                                                                                                                                                                                                                                                                                                                                                                                                                                                                                            
07831810298280001P16759067590000003201180013680000001010000000000000000                             2000000000000000000000000              000000000000                    0000000000000000000000000                    000000000000                                                                                                                                                                                                                                                                                                                                                                                                                                                                                        
07831820298280002G2675906759000000320118001368000000101888-4377779              TX           9 P                00                                      NNNN   N                      000000000000                                                                   71004114                                                                                                                                                                                                                                                                                                                                                                                                                                               
07831830298280837DT67590675900000032011800136800000010180013624001193194900016601758071220230000002076519423000000000048048428702XXXXXX1083               2111111   YYV4 A7W383193689541555N840000000020765MQ8800    01DNCHOICE BOTANICALS INC    316951    VD84000000020765 NDR549971004114   RLWELY9UEWNZRSRQDSAH     000000000+                F DF 00415                     000000000  N000000000       0000000000000.00 0000000.00   0000000.00                             000000000000000                                                                                                                                                     015WPEG000000020765 0000000000003.58     01650 01500                  
07831840298280837DR675906759000000320118001368000000101RLWELY9UEWNZRSRQDSAH     Y000000020765                 P1                                                                                                                                                                                                                                                                                                                                                                                                                                                                                                                                                                                                            
07831850298280001P16759067590000003201180013680000001010000000000000000                             2000000000000000000000000              000000000000                    0000000000000000000000000                    000000000000                                                                                                                                                                                                                                                                                                                                                                                                                                                                                        
07831860298280002G2675906759000000320118001368000000101888-4377779              TX           9 D                00                                      NNNN   N                      000000000000                                                                   71004114                                                                                                                                                                                                                                                                                                                                                                                                                                               
07831870298280838DT67590675900000032011800136800000010180013687287283194900016629321071220230000002264319423000000000048048518941XXXXXX5489       ME03KE06MS02      YY 4607AMWEJX3MK70712  N840000000022643          81DNCHOICE BOTANICALS INC    67868Z    MC84000000022643 NDR549971004114   rh5KtRy0pZN58RUp1xxw     000000000+600450S00140    MWE  00737                     000000000  N                0000000000000.00 0000000.00   0000000.00                             000000000000000                                                                                                                                                   U0015WPE 000000000000 0000000000005.99     02600 01000                  
07831880298280838DR675906759000000320118001368000000101rh5KtRy0pZN58RUp1xxw     Y000000000000                                                                                                                                                                                                                                                                                                                                                                                                                                                                                                                                                                                                                               
07831890298280001G26759067590000003201180013680000001018884377779               TX           9 E               210                                      NNNN           210000000000000000000000000                        7                                          71004114                                                                                                                                                                                                                                                                                                                                                                                                                                               
07831900298280841BH6759067590000002684980012580000090170713202319423000000000009885    0000090001918121N8001256759D07142023091                                                                                                                                                                                                                                                                                                                                                                                                                                                                                                                                                                                              
07831910298280842DT67590675900000026849800125800000010680012587287283194900019181213071220230000000988519423000000000009885539241XXXXXX7063                         YY 4607AMPLY22QZN0712  N840000000009885          81CNCBD8885133385            124250    MC84000000009885 NDR599978220273   881FCC92F6TE543CB7E2708  000000000+600450S00130    MPL  00564                     000000000  N                0000000000000.00 0000000.00   0000000.00                             000000000000000                                                                                                                                                     015WPE 000000000000-0000000000001.73     01750 00000                  
07831920298280842DR675906759000000268498001258000000106881FCC92F6TE543CB7E2708  U000000000000                                                                                                                                                                                                                                                                                                                                                                                                                                                                                                                                                                                                                               
07831930298280001G26759067590000002684980012580000001068885133385               WY           9 L               210                                      NNNN           210000000000000000000000000                                                                   78220273                                                                                                                                                                                                                                                                                                                                                                                                                                               
07831940299170002BH6759067590000000288180088880000090170713202319423000000000123912    0000090001720024N8008886759C07142023172                                                                                                                                                                                                                                                                                                                                                                                                                                                                                                                                                                                              
07831950299170003DT67590675900000002881800888800000010180088877287283194900017200016071320230000000131319423000000000123912541413XXXXXX2919       MS02WI09          NY 1 0 AMCWF592850713  N840000000001313          05DNHAPPY HIPPIE             06669S    MC84000000001313 N  549976487158                            000000000+M10101C5434C    MCW  02188                     000000000  N                0000000000000.00 0000000.00   0000000.00                             000000000000000                                                                                                                                                   B101418  000000000000 0000000000000.34     02300 00400                  
07831960299170001E167590675900000002881800888800000010100E0F8C8055B 00000000000.00404040404040404040404040404040404040404040404040400110A04001220000000000000000000000FF00000000000000000000000000  00020840390000000080002307131BFF890411497325925E26A7404040400840A0000000041010000000000000000000D8DFFBB3F8B24A5100120000000000004040401E40404040 000000013.13 000000000.001E03000000000000000000    80                                                                                                                                                                                                                                                                                                                  
07831970299170002G2675906759000000028818008888000000101SEVIERVILLE              TN           5 W                                                        NNNN              000000000000000000000000                        7                                          76487158                                                                                                                                                                                                                                                                                                                                                                                                                                               
07831980299170004DT67590675900000002881800888800000010180088824001193194900017200022071320230000000890319423000000000123912473703XXXXXX6675               1001111   NYV1 A K583194553936683N840000000008903PTJN00    01DNHAPPY HIPPIE             053443    VD84000000008903 NDR549976487158                            000000000+                F DF 10436                     000000000  Y000000000 338   0000000000000.00 0000000.00   0000000.00                             000000000000000                                                                                                                                                     01418 E000000000000 0000000000000.26     00050 02200                  
07831990299170004DR675906759000000028818008888000000101                         Z000000000000                                                                                                                                                                                                                                                                                                                                                                                                                                                                                                                                                                                                                               
07832000299170001G2675906759000000028818008888000000101865-3663142              TN           5 D                00                                      NNNN   N                      000000000000                                                                   76487158                                                                                                                                                                                                                                                                                                                                                                                                                                               
07832010299170005DT67590675900000002881800888800000010180088877287283194900017200032071320230000000317819423000000000123912514348XXXXXX5418       MS02WI09          NY 2 0 AMDJPLSH850713  N840000000003178          05DNHAPPY HIPPIE             177189    MD84000000003178 N  549976487158                            000000000+M10101C1334C    MDJ  00402                     000000000  N                0000000000000.00 0000000.00   0000000.00                             000000000000000                                                                                                                                                   B101418  000000000000 0000000000000.48     01050 01500                  
07832020299170001E167590675900000002881800888800000010100E0F8C80295 00000000000.00404040404040404040404040404040404040404040404040400110A00001220800000000000000000000FF00000000000000000000000000  0002084018008000048000230713EE89B64FA9EB1C4973AA73C9404040400840A000000004101000000000000000000081631594E08F9CB900140000000000004040400240404040 000000031.78 000000000.000203000000000000000000    80                                                                                                                                                                                                                                                                                                                  
07832030299170002G2675906759000000028818008888000000101SEVIERVILLE              TN           5 J                                                        NNNN              000000000000000000000000                                                                   76487158                                                                                                                                                                                                                                                                                                                                                                                                                                               
07832040299170006DT67590675900000002881800888800000010180088824001193194900017200048071320230000000444119423000000000123912422921XXXXXX6624       VS11    0001111   NYV1 A E303194583623674N8400000000044412CT400    07DNHAPPY HIPPIE             043964    VD84000000004441 N  549976487158                            000000000+                F DF 00381                     000000000  N000000000       0000000000000.00 0000000.00   0000000.00                             000000000000000                                                                                                                                                     01418 A000000000000 0000000000000.51     00800 01500                  
07832050299170001E167590675900000002881800888800000010100E068C804ED 00000000000.004040404040404040404040404040404040404040404040404006011203A00000000000000000000000404040404040404040404040404040  00000840000000000000002307134B7A49B5391C7189BD015294404040400840A0000000031010000000000000000000B303FAD10382000000000000000000004040404040404040 000000044.41 000000000.004040400000000000000000    80                                                                                                                                                                                                                                                                                                                  
07832060299170002G2675906759000000028818008888000000101SEVIERVILLE              TN           5 D                00                                      NNNN00 N 00                   000000000000                                                                   76487158                                                                                                                                                                                                                                                                                                                                                                                                                                               
07832070299170007DT67590675900000002881800888800000010180088824001193194900017200055071320230000000142519423000000000123912420767XXXXXX5270       VK04VS111111111   NYV1 A E583194592896946N840000000001425M9Z900    07DNHAPPY HIPPIE             002812    VD84000000001425 N  549976487158                            000000000+                F DF 10439                     000000000  Y000000000 331   0000000000000.00 0000000.00   0000000.00                             000000000000000                                                                                                                                                     01418 F000000000000 0000000000000.23     00050 02200                  
07832080299170001E167590675900000002881800888800000010100E068C8040E 00000000000.004040404040404040404040404040404040404040404040404006011203A00000000000000000000000404040404040404040404040404040  000008400000000000000023071395B77AAD083DF41F2609133B404040400840A0000000031010000000000000000000404040404040404040404040404040404040404040404040 000000014.25 000000000.004040400000000000000000    80                                                                                                                                                                                                                                                                                                                  
07832090299170002G2675906759000000028818008888000000101SEVIERVILLE              TN           5 D                00                                      NNNN00 N 00                   000000000000                                                                   76487158                                                                                                                                                                                                                                                                                                                                                                                                                                               
07832100299170008DT67590675900000002881800888800000010180088824001193194900017200063071320230000001372219423000000000123912477351XXXXXX3703       VS11    0001111   NYV1 A E303194601838591N8400000000137226G5H00    05DNHAPPY HIPPIE             014303    VD84000000013722 N  549976487158                            000000000+                F DF 10433                     000000000  Y000000000 338   0000000000000.00 0000000.00   0000000.00                             000000000000000                                                                                                                                                     01418 A000000000000 0000000000000.29     00050 02200                  
07832110299170001E167590675900000002881800888800000010100E0F8C80275 00000000000.004040404040404040404040404040404040404040404040404006011203A08000000000000000000000404040404040404040404040404040  0000084018008080008000230713E63DE30DAE1C676ACDD11AAE404040400840A0000000031010000000000000000000404040404040404040404040404040404040401E40404040 000000137.22 000000000.001E00000000000000000000    80                                                                                                                                                                                                                                                                                                                  
07832120299170002G2675906759000000028818008888000000101SEVIERVILLE              TN           5 D                00                                      NNNN00 N 00                   000000000000                                                                   76487158                                                                                                                                                                                                                                                                                                                                                                                                                                               
07832130299170009DT67590675900000002881800888800000010180088877287283194900017200073071320230000001636319423000000000123912516693XXXXXX5530       ME03MS02WI09      NY 1 0 AMDSGVOG7E0713  N840000000016363          01DNHAPPY HIPPIE             251092    MD84000000016363 N  549976487158                            000000000+M1010115434C    MDS  00399                     000000000  N                0000000000000.00 0000000.00   0000000.00                             000000000000000                                                                                                                                                   E101418  000000000000 0000000000002.85     01650 01500                  
07832140299170001G2675906759000000028818008888000000101SEVIERVILLE              TN           5 S                                                        NNNN              000000000000000000000000                        7                                          76487158                                                                                                                                                                                                                                                                                                                                                                                                                                               
07832150299170010DT67590675900000002881800888800000010180088876509753194900017200087071320230000000242619423000000000123912601100XXXXXX7367   BA05                  NY41 0 N873167230102824N840000000002426    00    07DNHAPPY HIPPIE             01305R    DS84000000002426 N  549976487158830                         000000000+0000004910H00   DCCDI01000168785  101650000000 000000000  0          112   0000000000000.00 0000000.00   0000000.00                             000000000000000                                                                                                                                                     01418  000000000000 0000000000000.52     01720 01000                  
07832160299170001E167590675900000002881800888800000010100E068C80014 00000000000.00404040404040404040404040404040404040404040404040400115209000003500B800010000000024260000000000000000000000000000  0004084019008000008000230713020A611E387D36FFCCFE3B6C404040400840A0000001523010000000000000000000CECE5B7758B59E3700320000000000004040403F40404040 000000024.26 000000000.003F00000000000000000000    80                                                                                                                                                                                                                                                                                                                  
07832170299170002G2675906759000000028818008888000000101SEVIERVILLE              TN           5 C                00                                      NNNN                          000000000000                         00000650975601179750000063                76487158                                                                                                                                                                                                                                                                                                                                                                                                                                               
07832180299170011DT67590675900000002881800888800000010180088873011003194900017200093071320230000001732819423000000000123912372728XXXXX3000                          NY 1 0 N008332593361065N840000000017328          05DNHAPPY HIPPIE             817671    AM84000000017328 N  549976487158                            000000000+51010155434C 258     11262                     000000000                   0000000000000.00 0000000.00   0000000.00                             000000000000000 61248972086759675900000002881 HAPPY HIPPIE             832 PARKWAY              8656540830      37862     HAPPYHIPPIE832@GMAIL.COM                  01418  000000000000 0000000000003.48     01950 00000                  
07832190299170001E167590675900000002881800888800000010100E0F8C803A0 00000000000.004040404040404040404040404040404040404040404040404006560103A0A002000000000000000000404040404040404040404040404040  000008403C000000008000230713981365B9A829EBEF17939D51404040400840A000000025010801000000000000000074E6B238168A968E30300000000000004040401E40404040 000000173.28 000000000.001E03000000000000000000    80                                                                                                                                                                                                                                                                                                                  
07832200299170002G2675906759000000028818008888000000101SEVIERVILLE              TN           5                  00                                      NNNN                          000000000000                                                                   76487158                                                                                                                                                                                                                                                                                                                                                                                                                                               
07832210299170012DT67590675900000002881800888800000010180088824001193194900017200105071320230000000208319423000000000123912448261XXXXXX6910       VS11    0001111   NYV1 A E583194636011534N840000000002083BTQG00    07DNHAPPY HIPPIE             335343    VD84000000002083 N  549976487158                            000000000+                F DF 10433                     000000000  Y000000000 338   0000000000000.00 0000000.00   0000000.00                             000000000000000                                                                                                                                                     01418 A000000000000 0000000000000.23     00050 02200                  
07832220299170001E167590675900000002881800888800000010100E068C801E1 00000000000.004040404040404040404040404040404040404040404040404006011203A00000000000000000000000404040404040404040404040404040  000108400000000000000023071395D4EFC3FF7D1DA2C959FCA9404040400840A0000000031010000000000000000000B66521400382000000000000000000004040404040404040 000000020.83 000000000.004040400000000000000000    80                                                                                                                                                                                                                                                                                                                  
07832230299170002G2675906759000000028818008888000000101SEVIERVILLE              TN           5 D                00                                      NNNN00 N 00                   000000000000                                                                   76487158                                                                                                                                                                                                                                                                                                                                                                                                                                               
07832240299170013DT67590675900000002881800888800000010180088824001193194900017200113071320230000000285119423000000000123912410881XXXXXX1271       VS11    0001111   NYV1 A E383194636790801N840000000002851HCLB00    07DNHAPPY HIPPIE             277921    VD84000000002851 N  549976487158                            000000000+                F DF 00381                     000000000  N000000000       0000000000000.00 0000000.00   0000000.00                             000000000000000                                                                                                                                                     01418 A000000000000 0000000000000.38     00800 01500                  
07832250299170001E167590675900000002881800888800000010100E068C8001C 00000000000.004040404040404040404040404040404040404040404040404006011203A00000000000000000000000404040404040404040404040404040  000008402000000000000023071316E08800D003514B0285A28B404040400840A0000000031010000000000000000000404040404040404040404040404040404040404040404040 000000028.51 000000000.004040400000000000000000    80                                                                                                                                                                                                                                                                                                                  
07832260299170002G2675906759000000028818008888000000101SEVIERVILLE              TN           5 D                00                                      NNNN00 N 00                   000000000000                                                                   76487158                                                                                                                                                                                                                                                                                                                                                                                                                                               
07832270299170014DT67590675900000002881800888800000010180088877287283194900017200123071320230000000076719423000000000123912511308XXXXXX5145       MS02WI09          NY 2 0 AMDJP3HVBI0713  N840000000000767          05DNHAPPY HIPPIE             025215    MD84000000000767 N  549976487158                            000000000+M10101C1334C    MDJ  10831                     000000000  1                0000000000000.00 0000000.00   0000000.00                             000000000000000                                                                                                                                                   B101418  000000000000 0000000000000.22     00050 02200                  
07832280299170001E167590675900000002881800888800000010100E0F8C8019A 00000000000.00404040404040404040404040404040404040404040404040400110A00001220000000000000000000000FF00000000000000000000000000  000008401800800004800023071339FE897596D1AF6215D2CB03404040400840A00000000410100000000000000000000928FCB1639BA2B9031A0000000000004040400240404040 000000007.67 000000000.000203000000000000000000    80                                                                                                                                                                                                                                                                                                                  
07832290299170002G2675906759000000028818008888000000101SEVIERVILLE              TN           5 J                                                        NNNN              000000000000000000000000                                                                   76487158                                                                                                                                                                                                                                                                                                                                                                                                                                               
07832300299170015DT67590675900000002881800888800000010180088824001193194900017200139071320230000000419619423000000000123912434769XXXXXX3699       VS11    0001111   NYV1 A E463194651059910N840000000004196ZVNF00    07DNHAPPY HIPPIE             050514    VD84000000004196 N  549976487158                            000000000+                F DF 10433                     000000000  Y000000000 338   0000000000000.00 0000000.00   0000000.00                             000000000000000                                                                                                                                                     01418 A000000000000 0000000000000.24     00050 02200                  
07832310299170001E167590675900000002881800888800000010100E068C801CE 00000000000.004040404040404040404040404040404040404040404040404006011203A00000000000000000000000404040404040404040404040404040  0000084000000000000000230713DAD91329E7CE34F54CA4CDAD404040400840A0000000031010000000000000000000404040404040404040404040404040404040404040404040 000000041.96 000000000.004040400000000000000000    80                                                                                                                                                                                                                                                                                                                  
07832320299170002G2675906759000000028818008888000000101SEVIERVILLE              TN           5 D                00                                      NNNN00 N 00                   000000000000                                                                   76487158                                                                                                                                                                                                                                                                                                                                                                                                                                               
07832330299170016DT67590675900000002881800888800000010180088877287283194900017200149071320230000000614419423000000000123912515599XXXXXX0474       MS02WI09          NY 1 0 AMPLQNHXBI0713  N840000000006144          05DNHAPPY HIPPIE             00502B    MC84000000006144 N  549976487158                            000000000+M10101C5434C    MPL  00364                     000000000  N                0000000000000.00 0000000.00   0000000.00                             000000000000000                                                                                                                                                   B101418  000000000000 0000000000001.15     01800 00400                  
07832340299170001E167590675900000002881800888800000010100E0F8C80019 00000000000.00404040404040404040404040404040404040404040404040400110A04001220000000000000000000000FF00000000000000000000000000  0002084039000000008000230713776270CBAF5A8EFB22E928D5404040400840A0000000041010000000000000000000BD89A4A1E8F4363600120000000000004040401E40404040 000000061.44 000000000.001E03000000000000000000    80                                                                                                                                                                                                                                                                                                                  
07832350299170002G2675906759000000028818008888000000101SEVIERVILLE              TN           5 L                                                        NNNN              000000000000000000000000                        7                                          76487158                                                                                                                                                                                                                                                                                                                                                                                                                                               
07832360299170017DT67590675900000002881800888800000010180088824001193194900017200154071320230000000318119423000000000123912400022XXXXXX4326       VS11    0001111   NYV1 A E583194655798122N8400000000031818M4V00    07DNHAPPY HIPPIE             311903    VD84000000003181 N  549976487158                            000000000+                F DF 10433                     000000000  Y000000000 338   0000000000000.00 0000000.00   0000000.00                             000000000000000                                                                                                                                                     01418 A000000000000 0000000000000.24     00050 02200                  
07832370299170001E167590675900000002881800888800000010100E068C8004D 00000000000.004040404040404040404040404040404040404040404040404006021203A00000000000000000000000404040404040404040404040404040  00000840000000000000002307137379E9A627E34806C32113A3404040400840A0000000031010000000000000000000404040404040404040404040404040404040404040404040 000000031.81 000000000.004040400000000000000000    80                                                                                                                                                                                                                                                                                                                  
07832380299170002G2675906759000000028818008888000000101SEVIERVILLE              TN           5 D                00                                      NNNN00 N 00                   000000000000                                                                   76487158                                                                                                                                                                                                                                                                                                                                                                                                                                               
07832390299170018DT67590675900000002881800888800000010180088824001193194900017200162071320230000000268419423000000000123912435544XXXXXX1984       VS11    0001111   NYV1 A E383194662993576N840000000002684LFKJ00    07DNHAPPY HIPPIE             029086    VD84000000002684 N  549976487158                            000000000+                F DF 10433                     000000000  Y000000000 338   0000000000000.00 0000000.00   0000000.00                             000000000000000                                                                                                                                                     01418 A000000000000 0000000000000.23     00050 02200                  
07832400299170001E167590675900000002881800888800000010100E068C80050 00000000000.004040404040404040404040404040404040404040404040404006011203A00000000000000000000000404040404040404040404040404040  000108400000000000000023071339903EEFEFA75A9958BF5D9A404040400840A0000000031010000000000000000000BCBB715E0082000000000000000000004040404040404040 000000026.84 000000000.004040400000000000000000    80                                                                                                                                                                                                                                                                                                                  
07832410299170002G2675906759000000028818008888000000101SEVIERVILLE              TN           5 D                00                                      NNNN00 N 00                   000000000000                                                                   76487158                                                                                                                                                                                                                                                                                                                                                                                                                                               
07832420299170019DT67590675900000002881800888800000010180088877287283194900017200172071320230000000277019423000000000123912514348XXXXXX6781       MS02WI09          NY 2 0 AMDJG31FRE0713  N840000000002770          05DNHAPPY HIPPIE             830917    MD84000000002770 N  549976487158                            000000000+M10101C1334C    MDJ  00402                     000000000  N                0000000000000.00 0000000.00   0000000.00                             000000000000000                                                                                                                                                   B101418  000000000000 0000000000000.44     01050 01500                  
07832430299170001E167590675900000002881800888800000010100E0F8C800E9 00000000000.00404040404040404040404040404040404040404040404040400110A00001220800000000000000000000FF00000000000000000000000000  0000084018008000048000230713E57B477D68A4E1F7C2726107404040400840A000000004101000000000000000000039B3946A2F81482300140000000000004040400240404040 000000027.70 000000000.000203000000000000000000    80                                                                                                                                                                                                                                                                                                                  
07832440299170002G2675906759000000028818008888000000101SEVIERVILLE              TN           5 J                                                        NNNN              000000000000000000000000                                                                   76487158                                                                                                                                                                                                                                                                                                                                                                                                                                               
07832450299170020DT67590675900000002881800888800000010180088824001193194900017200188071320230000000120619423000000000123912400022XXXXXX4326       VK04VS111111111   NYV1 A E463194666839004N840000000001206GFZH00    07DNHAPPY HIPPIE             110006    VD84000000001206 N  549976487158                            000000000+                F DF 10439                     000000000  Y000000000 331   0000000000000.00 0000000.00   0000000.00                             000000000000000                                                                                                                                                     01418 F000000000000 0000000000000.23     00050 02200                  
07832460299170001E167590675900000002881800888800000010100E068C8004E 00000000000.004040404040404040404040404040404040404040404040404006021203A00000000000000000000000404040404040404040404040404040  0000084000000000000000230713421F791DC46612062F04B471404040400840A0000000031010000000000000000000404040404040404040404040404040404040404040404040 000000012.06 000000000.004040400000000000000000    80                                                                                                                                                                                                                                                                                                                  
07832470299170002G2675906759000000028818008888000000101SEVIERVILLE              TN           5 D                00                                      NNNN00 N 00                   000000000000                                                                   76487158                                                                                                                                                                                                                                                                                                                                                                                                                                               
07832480299170021DT67590675900000002881800888800000010180088824001193194900017200196071320230000001264719423000000000123912405302XXXXXX7273       VS11    0001111   NYV1 A E383194678981084N840000000012647D5GT00    05DNHAPPY HIPPIE             013203    VS84000000012647 N  549976487158                            000000000+                B CB 12111                     000000000  N000000000 495   0000000000000.00 0000000.00   0000000.00                             000000000000000                                                                                                                                                     01418 A000000000000 0000000000002.19     01650 01000                  
07832490299170001E167590675900000002881800888800000010100E0F8C80007 00000000000.004040404040404040404040404040404040404040404040404006011203A0A000000000000000000000404040404040404040404040404040  000308401800808000800023071350544E89677F7D458CE26268404040400840A00000000310100000000000000000003EDAD0D40082000000000000000000004040401E40404040 000000126.47 000000000.001E00000000000000000000    80                                                                                                                                                                                                                                                                                                                  
07832500299170002G2675906759000000028818008888000000101SEVIERVILLE              TN           5 C                00                                      NNNN00 Y 00                   000000000000                                                                   76487158                                                                                                                                                                                                                                                                                                                                                                                                                                               
07832510299170022DT67590675900000002881800888800000010180088824001193194900017200204071320230000000087619423000000000123912440393XXXXXX2048       VK04VS111111111   NYV1 A E583194702812003N8400000000008763HTL00    07DNHAPPY HIPPIE             108520    VD84000000000876 N  549976487158                            000000000+                F PF 08165                     000000000  N000000000       0000000000000.00 0000000.00   0000000.00                             000000000000000                                                                                                                                                     01418 F000000000000 0000000000000.19     01600 00500                  
07832520299170001E167590675900000002881800888800000010100E068C800DC 00000000000.004040404040404040404040404040404040404040404040404006011203A00000000000000000000000404040404040404040404040404040  00000840200000000000002307138154FA12A5A4DECFE8F71D2B404040400840A0000000031010000000000000000000B87F97DF65D19A0230300000000000004040404040404040 000000008.76 000000000.004040400000000000000000    80                                                                                                                                                                                                                                                                                                                  
07832530299170002G2675906759000000028818008888000000101SEVIERVILLE              TN           5 P                00                                      NNNN00 N 00                   000000000000                                                                   76487158                                                                                                                                                                                                                                                                                                                                                                                                                                               
07832540299170023DT67590675900000002881800888800000010180088824001193194900017200212071320230000000288219423000000000123912440393XXXXXX7207       VS11    0001111   NYV1 A E383194715918305N840000000002882R3RS00    07DNHAPPY HIPPIE             870475    VD84000000002882 N  549976487158                            000000000+                F PF 08170                     000000000  N000000000       0000000000000.00 0000000.00   0000000.00                             000000000000000                                                                                                                                                     01418 A000000000000 0000000000000.48     01150 01500                  
07832550299170001E167590675900000002881800888800000010100E068C80215 00000000000.004040404040404040404040404040404040404040404040404006011203A00000000000000000000000404040404040404040404040404040  00000840200000000000002307130AF081308CECAB240A742EF4404040400840A0000000031010000000000000000000920A4734D209C7B430300000000000004040404040404040 000000028.82 000000000.004040400000000000000000    80                                                                                                                                                                                                                                                                                                                  
07832560299170002G2675906759000000028818008888000000101SEVIERVILLE              TN           5 P                00                                      NNNN00 N 00                   000000000000                                                                   76487158                                                                                                                                                                                                                                                                                                                                                                                                                                               
07832570299170024DT67590675900000002881800888800000010180088824001193194900017200220071320230000000669019423000000000123912474476XXXXXX6849       VS11    0001111   NYV1 A E463194730147320N840000000006690ZXFC00    07DNHAPPY HIPPIE             171767    VD84000000006690 N  549976487158                            000000000+                F DF 10433                     000000000  Y000000000 338   0000000000000.00 0000000.00   0000000.00                             000000000000000                                                                                                                                                     01418 A000000000000 0000000000000.25     00050 02200                  
07832580299170001E167590675900000002881800888800000010100E068C80088 00000000000.004040404040404040404040404040404040404040404040404006011203A00000000000000000000000404040404040404040404040404040  000008402000000000000023071330FAD3C41D4E3DE0268958C6404040400840A0000000031010000000000000000000404040404040404040404040404040404040404040404040 000000066.90 000000000.004040400000000000000000    80                                                                                                                                                                                                                                                                                                                  
07832590299170002G2675906759000000028818008888000000101SEVIERVILLE              TN           5 D                00                                      NNNN00 N 00                   000000000000                                                                   76487158                                                                                                                                                                                                                                                                                                                                                                                                                                               
07832600299170025DT67590675900000002881800888800000010180088877287283194900017200230071320230000000120619423000000000123912517546XXXXXX5777       MS02WI09          NY 1 0 AMDJYTPDBO0713  N840000000001206          07DNHAPPY HIPPIE             013560    MD84000000001206 N  549976487158                            000000000+M10101M0034C    MDJ  10831                     000000000  1                0000000000000.00 0000000.00   0000000.00                             000000000000000                                                                                                                                                   B101418  000000000000 0000000000000.23     00050 02200                  
07832610299170001E1675906759000000028818008888000000101000008480004 00000000000.00404040404040404040404040404040404040404040404040400110A040002A0000000000000000000000FF00000000000000000000000000  000108401980000000800123071338D64A9D7EC51CE91ABA0A82404040400840A0000000041010000000000000000000404040404040404040404040404040404040401F40404040 000000012.06 000000000.001F03020000000000000000    80                                                                                                                                                                                                                                                                                                                  
07832620299170002G2675906759000000028818008888000000101SEVIERVILLE              TN           5 J                                                        NNNN              000000000000000000000000       03               7                                          76487158                                                                                                                                                                                                                                                                                                                                                                                                                                               
07832630299170026DT67590675900000002881800888800000010180088824001193194900017200246071320230000000463019423000000000123912422921XXXXXX2053       VS11    0001111   NYV1 A E303194784327616N840000000004630BW3V00    05DNHAPPY HIPPIE             064033    VD84000000004630 N  549976487158                            000000000+                F DF 00381                     000000000  N000000000       0000000000000.00 0000000.00   0000000.00                             000000000000000                                                                                                                                                     01418 A000000000000 0000000000000.52     00800 01500                  
07832640299170001E167590675900000002881800888800000010100E0F8C802FE 00000000000.004040404040404040404040404040404040404040404040404006011203A08000000000000000000000404040404040404040404040404040  0000084018008080008000230713E29420702548F6DE5B8D8F86404040400840A00000000310100000000000000000006CBAD9850382000000000000000000004040401E40404040 000000046.30 000000000.001E00000000000000000000    80                                                                                                                                                                                                                                                                                                                  
07832650299170002G2675906759000000028818008888000000101SEVIERVILLE              TN           5 D                00                                      NNNN00 N 00                   000000000000                                                                   76487158                                                                                                                                                                                                                                                                                                                                                                                                                                               
07832660299170027BH6759067590000000215480088880000090170713202319423000000000023400    0000090001316200N8008886759C07142023831                                                                                                                                                                                                                                                                                                                                                                                                                                                                                                                                                                                              
07832670299170028DT67590675900000002154800888800000010180088887287283194900013162003071320230000002340019423000000000023400547415XXXXXX8154                         NY 4607AMEBGE42850713  N840000000023400          81DNDRIP DROP DISTRO LLC     09050C    MB84000000023400 NDR519900000001   18042                    000000000+600450S00140    MEB  11033                     000000000  N                0000000000000.00 0000000.00   0000000.00                             000000000000000                                                                                                                                                   U001418  000000000000 0000000000006.30     02650 01000                  
07832680299170028DR67590675900000002154800888800000010118042                    Y000000000000                 P1                                                                                                                                                                                                                                                                                                                                                                                                                                                                                                                                                                                                            
07832690299170001P1675906759000000021548008888000000101                                                          000000000000          8000            471534935                                                                                                                                                                                                                                                                                                                                                                                                                                                                                                                                                            
07832700299170002G2675906759000000021548008888000000101208-7033453              ID           9 B               210                  471534935           YNNN           210000000000000000000000000                        7                                          71004114                                                                                                                                                                                                                                                                                                                                                                                                                                               
07832710299170029BH6759067590000000288180088880000090170713202319423000000000118313    0000090001610019N8008886759C07142023061                                                                                                                                                                                                                                                                                                                                                                                                                                                                                                                                                                                              
07832720299170030DT67590675900000002881800888800000010180088824001193194900016100017071320230000001031019423000000000118313422921XXXXXX3999       VS11    0001111   NYV1 A E463194598070519N84000000001031066LH00    05DNHAPPY HIPPIE             045408    VD84000000010310 N  549976487169                            000000000+                F DF 00381                     000000000  N000000000       0000000000000.00 0000000.00   0000000.00                             000000000000000                                                                                                                                                     01418 A000000000000 0000000000000.97     00800 01500                  
07832730299170001E167590675900000002881800888800000010100E0F8C80078 00000000000.004040404040404040404040404040404040404040404040404006011203A08000000000000000000000404040404040404040404040404040  0000084018008080008000230713CBC957D95D768691CEE6298A404040400840A000000003101000000000000000000089FBF38F0382000000000000000000004040401E40404040 000000103.10 000000000.001E00000000000000000000    80                                                                                                                                                                                                                                                                                                                  
07832740299170002G2675906759000000028818008888000000101SEVIERVILLE              TN           5 D                00                                      NNNN00 N 00                   000000000000                                                                   76487169                                                                                                                                                                                                                                                                                                                                                                                                                                               
07832750299170031DT67590675900000002881800888800000010180088824001193194900016100025071320230000000096619423000000000118313443238XXXXXX9152       VK04VS111111111   NYV1 A E383194599904946N8400000000009669VNK00    07DNHAPPY HIPPIE             023951    VD84000000000966 N  549976487169                            000000000+                F DF 00451                     000000000  N000000000 214   0000000000000.00 0000000.00   0000000.00                             000000000000000                                                                                                                                                     01418 F000000000000 0000000000000.19     01550 00400                  
07832760299170001E167590675900000002881800888800000010100E068C80057 00000000000.004040404040404040404040404040404040404040404040404006011203A00000000000000000000000404040404040404040404040404040  0000084000000000000000230713D1E4D223993791CD66F2AEE8404040400840A0000000031010000000000000000000404040404040404040404040404040404040404040404040 000000009.66 000000000.004040400000000000000000    80                                                                                                                                                                                                                                                                                                                  
07832770299170002G2675906759000000028818008888000000101SEVIERVILLE              TN           5 D                00                                      NNNN00 N 00                   000000000000                                                                   76487169                                                                                                                                                                                                                                                                                                                                                                                                                                               
07832780299170032DT67590675900000002881800888800000010180088824001193194900016100033071320230000001392619423000000000118313449507XXXXXX2805       VS11    0001111   NYV1 A E463194602108550N840000000013926KN8200    05DNHAPPY HIPPIE             024331    VD84000000013926 N  549976487169                            000000000+                F DF 00381                     000000000  N000000000       0000000000000.00 0000000.00   0000000.00                             000000000000000                                                                                                                                                     01418 A000000000000 0000000000001.26     00800 01500                  
07832790299170001E167590675900000002881800888800000010100E0F8C80048 00000000000.004040404040404040404040404040404040404040404040404006011203A02000000000000000000000404040404040404040404040404040  000008401800808000800023071302D7816253055AE87191B0A2404040400840A0000000031010000000000000000000404040404040404040404040404040404040401E40404040 000000139.26 000000000.001E00000000000000000000    80                                                                                                                                                                                                                                                                                                                  
07832800299170002G2675906759000000028818008888000000101SEVIERVILLE              TN           5 D                00                                      NNNN00 N 00                   000000000000                                                                   76487169                                                                                                                                                                                                                                                                                                                                                                                                                                               
07832810299170033DT67590675900000002881800888800000010180088824001193194900016100041071320230000001252019423000000000118313438857XXXXXX6684       VS11    0001111   NYV1 A E383194606469051N840000000012520ZVQN00    05DNHAPPY HIPPIE             01401D    VS84000000012520 N  549976487169                            000000000+                D CD 12113                     000000000  N000000000 499   0000000000000.00 0000000.00   0000000.00                             000000000000000                                                                                                                                                     01418 A000000000000 0000000000002.73     02100 01000                  
07832820299170001E167590675900000002881800888800000010100E0F8C80032 00000000000.004040404040404040404040404040404040404040404040404006021203A0A006000000000000000000404040404040404040404040404040  00010840380000800080002307134BF647B1284B71297B1C2817404040400840A00000000310100000000000000000000E0C26FB0082000000000000000000004040401E40404040 000000125.20 000000000.001E00000000000000000000    80                                                                                                                                                                                                                                                                                                                  
07832830299170002G2675906759000000028818008888000000101SEVIERVILLE              TN           5 C                00                                      NNNN00 Y 00                   000000000000                                                                   76487169                                                                                                                                                                                                                                                                                                                                                                                                                                               
07832840299170034DT67590675900000002881800888800000010180088824001193194900016100058071320230000000833319423000000000118313443238XXXXXX7857       VS11    0001111   NYV1 A E303194623867678N840000000008333PXT800    07DNHAPPY HIPPIE             031946    VD84000000008333 N  549976487169                            000000000+                F DF 00381                     000000000  N000000000       0000000000000.00 0000000.00   0000000.00                             000000000000000                                                                                                                                                     01418 A000000000000 0000000000000.82     00800 01500                  
07832850299170001E167590675900000002881800888800000010100E068C8052A 00000000000.004040404040404040404040404040404040404040404040404006011203A00000000000000000000000404040404040404040404040404040  000008402000000000000023071364024006BE12D7084B23DBD5404040400840A0000000031010000000000000000000404040404040404040404040404040404040404040404040 000000083.33 000000000.004040400000000000000000    80                                                                                                                                                                                                                                                                                                                  
07832860299170002G2675906759000000028818008888000000101SEVIERVILLE              TN           5 D                00                                      NNNN00 N 00                   000000000000                                                                   76487169                                                                                                                                                                                                                                                                                                                                                                                                                                               
07832870299170035DT67590675900000002881800888800000010180088877287283194900016100068071320230000000289319423000000000118313521333XXXXXX9451       MS02WI09          NY 1 0 AMWECYT1RN0713  N840000000002893          05DNHAPPY HIPPIE             01355P    MC84000000002893 N  549976487169                            000000000+M10101C5434C    MWE  00743                     000000000  N                0000000000000.00 0000000.00   0000000.00                             000000000000000                                                                                                                                                   B101418  000000000000 0000000000000.71     02300 00400                  
07832880299170001E167590675900000002881800888800000010100E0F8C8003D 00000000000.00404040404040404040404040404040404040404040404040400410A04001220000000000000000000000FF00000000000000000000000000  0001084039000000008000230713F84AEE513C2F3F4C5C05F4E1404040400840A0000000041010000000000000000000344B6A46614E116600120000000000004040401E40404040 000000028.93 000000000.001E03000000000000000000    80                                                                                                                                                                                                                                                                                                                  
07832890299170002G2675906759000000028818008888000000101SEVIERVILLE              TN           5 E                                                        NNNN              000000000000000000000000                        7                                          76487169                                                                                                                                                                                                                                                                                                                                                                                                                                               
07832900299170036DT67590675900000002881800888800000010180088824001193194900016100074071320230000000347119423000000000118313421783XXXXXX6026       VS11    0001111   NYV1 A E463194693517524N84000000000347166VV00    05DNHAPPY HIPPIE             091480    VS84000000003471 N  549976487169                            000000000+                A CA 12110                     000000000  N000000000 493   0000000000000.00 0000000.00   0000000.00                             000000000000000                                                                                                                                                     01418 A000000000000 0000000000000.62     01510 01000                  
07832910299170001E167590675900000002881800888800000010100E0F8C8034A 00000000000.004040404040404040404040404040404040404040404040404006010A03A0A000000000000000000000404040404040404040404040404040  0000084018008080008000230713060D54A4F5ACE90A618ABFEB404040400840A0000000031010000000000000000000E95005187A6542D930300000000000004040401E40404040 000000034.71 000000000.001E00000000000000000000    80                                                                                                                                                                                                                                                                                                                  
07832920299170002G2675906759000000028818008888000000101SEVIERVILLE              TN           5 C                00                                      NNNN00 N 00                   000000000000                                                                   76487169                                                                                                                                                                                                                                                                                                                                                                                                                                               
07832930299170037DT67590675900000002881800888800000010180088824001193194900016100082071320230000000312419423000000000118313422921XXXXXX1467       VS11    0001111   NYV1 A E383194698387974N84000000000312429HC00    07DNHAPPY HIPPIE             055439    VD84000000003124 N  549976487169                            000000000+                F DF 00381                     000000000  N000000000       0000000000000.00 0000000.00   0000000.00                             000000000000000                                                                                                                                                     01418 A000000000000 0000000000000.40     00800 01500                  
07832940299170001E167590675900000002881800888800000010100E068C80087 00000000000.004040404040404040404040404040404040404040404040404006011203A00000000000000000000000404040404040404040404040404040  00000840000000000000002307132FCF7586BECBE5B1441126D9404040400840A0000000031010000000000000000000829C87DB0382000000000000000000004040404040404040 000000031.24 000000000.004040400000000000000000    80                                                                                                                                                                                                                                                                                                                  
07832950299170002G2675906759000000028818008888000000101SEVIERVILLE              TN           5 D                00                                      NNNN00 N 00                   000000000000                                                                   76487169                                                                                                                                                                                                                                                                                                                                                                                                                                               
07832960299170038DT67590675900000002881800888800000010180088876509753194900016100098071320230000000667219423000000000118313601100XXXXXX1558   BA50                  NY41 0 N863167312356965N840000000006672    00    05DNHAPPY HIPPIE             01342R    DS84000000006672 N  549976487169050                         000000000+0000004910H00   DCCDI01000500406  153355000000 000000000  0          112   0000000000000.00 0000000.00   0000000.00                             000000000000000                                                                                                                                                     01418  000000000000 0000000000001.25     01720 01000                  
07832970299170001E167590675900000002881800888800000010100E0F8C80003 00000000000.00404040404040404040404040404040404040404040404040400105A0800F0000000000000000000000404040404040404040404040404040  0002084078000000008000230713772AC1240B60475CD98CFB6F404040400840A0000001523010000000000000000000EF0B7B22F83EAB8600320000000000004040401E40404040 000000066.72 000000000.001E03000000000000000000    80                                                                                                                                                                                                                                                                                                                  
07832980299170002G2675906759000000028818008888000000101SEVIERVILLE              TN           5 C                00                                      NNNN                          000000000000                         00000650975601179750000063                76487169                                                                                                                                                                                                                                                                                                                                                                                                                                               
07832990299170039DT67590675900000002881800888800000010180088877287283194900016100100071320230000000925919423000000000118313548042XXXXXX6822       MS02WI09          NY 1 0 AMCCS7HSBI0713  N840000000009259          05DNHAPPY HIPPIE             07206B    MC84000000009259 N  549976487169                            000000000+M10101C5434C    MCC  00364                     000000000  N                0000000000000.00 0000000.00   0000000.00                             000000000000000                                                                                                                                                   B101418  000000000000 0000000000001.71     01800 00400                  
07833000299170001E167590675900000002881800888800000010100E0F8C80042 00000000000.00404040404040404040404040404040404040404040404040400110A04001220000000000000000000000FF00000000000000000000000000  0001084039000000008000230713A96661B151B1A53CF61CA775404040400840A0000000041010000000000000000000067FCECA1C5FFF5400120000000000004040401E40404040 000000092.59 000000000.001E03000000000000000000    80                                                                                                                                                                                                                                                                                                                  
07833010299170002G2675906759000000028818008888000000101SEVIERVILLE              TN           5 C                                                        NNNN              000000000000000000000000                        7                                          76487169                                                                                                                                                                                                                                                                                                                                                                                                                                               
