02745260532270002BH6759067590000000215480088880000090171223202235722000000000093600    0000090001669203N8008886759C12262022                                                                                                                                                                                                                                                                                                                                                                                                                                                                                                                                                                                                 
02745270532270003DT67590675900000002154800888800000010180088824001192357900016692034122320220000009360035722000000000093600426938XXXXXX9452               2111111   NYV4 A7W382357648905706N840000000093600NDWP00    01DNDRIP DROP DISTRO LLC     023550    VS84000000093600 NP1519971004114   INV-27983                000000000+                B CB 12107                     000000000  N000000000 494   0000000000000.00 0000000.00   0000000.00                             000000000000000                                                                                                                                                     01418 G000000093600 0000000000019.19     02040 01000                  
02745280532270001P16759067590000000215480088880000001010000000000000000                             2000000000000000000000000              000000000000                    0000000000000000000000000                    000000000000                                                                                                                                                                                                                                                                                                                                                                                                                                                                                        
02745290532270004BH6759067590000000288180088880000090171223202235722000000000007497    0000090001280074N8008886759C12262022                                                                                                                                                                                                                                                                                                                                                                                                                                                                                                                                                                                                 
02745300532270005DT67590675900000002881800888800000010180088824001192357900012800748122320220000000749735722000000000007497403784XXXXXX1554               2111111   NYV4 A7W382357809768203N840000000007497WRMR00    01DNHAPPY HIPPIE             613292    VS84000000007497 NP1549976044904   1892                     000000000+                D CD 12109                     000000000  N000000000 498   0000000000000.00 0000000.00   0000000.00                             000000000000000                                                                                                                                                     01418 G000000007497 0000000000001.97     02500 01000                  
02745310532270001P16759067590000000288180088880000001010000000000000000                             2000000000000000000000000              000000000000                    0000000000000000000000000                    000000000000                                                                                                                                                                                                                                                                                                                                                                                                                                                                                        
