01663260554360002BH6759067590000000215480088880000090170124202302423000000000068856    0000090001905811N8008886759C01252023                                                                                                                                                                                                                                                                                                                                                                                                                                                                                                                                                                                                 
01663270554360003DT67590675900000002154800888800000010180088887287283024900019058110012420230000006885602423000000000068856542418XXXXXX3234       ME03KE06MS02      NY 4607AMWEPNHISA0124  N840000000068856          81DNDRIP DROP DISTRO LLC     93712P    MC84000000068856 N  519900000001   17318                    000000000+600450S00140    MWE  00737                     000000000  N                0000000000000.00 0000000.00   0000000.00                             000000000000000                                                                                                                                                   U001418  000000000000 0000000000018.00     02600 01000                  
01663280554360004BH6759067590000000288180088880000090170124202302423000000000055779    0000090001270014N8008886759C01252023                                                                                                                                                                                                                                                                                                                                                                                                                                                                                                                                                                                                 
01663290554360005DT67590675900000002881800888800000010180088824001193024900012700014012420230000000690002423000000000055779461608XXXXXX1580       VS11    0001111   NYV1 A E303024550104144N840000000006900X56600    05DNHAPPY HIPPIE             65105D    VS84000000006900 N  549976487158                            000000000+                D CD 12113                     000000000  N000000000 499   0000000000000.00 0000000.00   0000000.00                             000000000000000                                                                                                                                                     01418 A000000000000 0000000000001.55     02100 01000                  
01663300554360006DT67590675900000002881800888800000010180088877287283024900012700024012420230000000040602423000000000055779518941XXXXXX4253                         NY 1 0 AMWEV2STDE0124  N840000000000406          05DNHAPPY HIPPIE             29712Z    MC84000000000406 N  549976487158                            000000000+M10101C5434C    MWE  12147                     000000000  N                0000000000000.00 0000000.00   0000000.00                             000000000000000                                                                                                                                                   B101418  000000000000 0000000000000.11     02300 00200                  
01663310554360007DT67590675900000002881800888800000010180088824001193024900012700030012420230000000024902423000000000055779491523XXXXXX7823       VK04VS111111111   NYV1 A E383024595597261N84000000000024992DL00    07DNHAPPY HIPPIE             006845    VD84000000000249 N  549976487158                            000000000+                F DF 10439                     000000000  Y000000000 331   0000000000000.00 0000000.00   0000000.00                             000000000000000                                                                                                                                                     01418 F000000000000 0000000000000.22     00050 02200                  
01663320554360008DT67590675900000002881800888800000010180088824001193024900012700048012420230000000474002423000000000055779419090XXXXXX8251       VS11    0001111   NYV1 A E463024599755184N840000000004740KPHH00    05DNHAPPY HIPPIE             999241    VD84000000004740 N  549976487158                            000000000+                F DF 00381                     000000000  N000000000       0000000000000.00 0000000.00   0000000.00                             000000000000000                                                                                                                                                     01418 A000000000000 0000000000000.53     00800 01500                  
01663330554360009DT67590675900000002881800888800000010180088824001193024900012700055012420230000000197402423000000000055779445101XXXXXX7889       VS11    0001111   NYV1 A E583024606530851N840000000001974VQ3400    05DNHAPPY HIPPIE             082625    VD84000000001974 N  549976487158                            000000000+                F DF 10433                     000000000  Y000000000 338   0000000000000.00 0000000.00   0000000.00                             000000000000000                                                                                                                                                     01418 A000000000000 0000000000000.23     00050 02200                  
01663340554360010DT67590675900000002881800888800000010180088824001193024900012700063012420230000000483802423000000000055779459954XXXXXX5604       VS11    0001111   NYV1 A E383024612143238N840000000004838HLQW00    05DNHAPPY HIPPIE             H14918    VD84000000004838 N  549976487158                            000000000+                F DF 10433                     000000000  Y000000000 338   0000000000000.00 0000000.00   0000000.00                             000000000000000                                                                                                                                                     01418 A000000000000 0000000000000.24     00050 02200                  
01663350554360011DT67590675900000002881800888800000010180088824001193024900012700071012420230000000051702423000000000055779417021XXXXXX1375       VK04VS111111111   NYV1 A E303024633472927N840000000000517ZCW500    05DNHAPPY HIPPIE             744368    VD84000000000517 N  549976487158                            000000000+                F PF 08165                     000000000  N000000000       0000000000000.00 0000000.00   0000000.00                             000000000000000                                                                                                                                                     01418 F000000000000 0000000000000.13     01600 00500                  
01663360554360012DT67590675900000002881800888800000010180088824001193024900012700089012420230000000898502423000000000055779419090XXXXXX3166       VS11    0001111   NYV1 A E463024636011948N840000000008985R67J00    05DNHAPPY HIPPIE             001146    VD84000000008985 N  549976487158                            000000000+                F DF 00381                     000000000  N000000000       0000000000000.00 0000000.00   0000000.00                             000000000000000                                                                                                                                                     01418 A000000000000 0000000000000.87     00800 01500                  
01663370554360013DT67590675900000002881800888800000010180088824001193024900012700097012420230000000768302423000000000055779443238XXXXXX8270       VS11    0001111   NYV1 A E583024637896924N840000000007683L68900    05DNHAPPY HIPPIE             024309    VD84000000007683 N  549976487158                            000000000+                F DF 00381                     000000000  N000000000       0000000000000.00 0000000.00   0000000.00                             000000000000000                                                                                                                                                     01418 A000000000000 0000000000000.76     00800 01500                  
01663380554360014DT67590675900000002881800888800000010180088824001193024900012700105012420230000000437802423000000000055779419090XXXXXX6649       VS11    0001111   NYV1 A E463024638899755N840000000004378CC4X00    05DNHAPPY HIPPIE             001318    VD84000000004378 N  549976487158                            000000000+                F DF 00381                     000000000  N000000000       0000000000000.00 0000000.00   0000000.00                             000000000000000                                                                                                                                                     01418 A000000000000 0000000000000.50     00800 01500                  
01663390554360015DT67590675900000002881800888800000010180088877287283024900012700115012420230000000325802423000000000055779511953XXXXXX3911       MS02WI09          NY 1 0 AMDJLL1YSA0124  N840000000003258          05DNHAPPY HIPPIE             084706    MD84000000003258 N  549976487158                            000000000+M10101C5434C    MDJ  00402                     000000000  N                0000000000000.00 0000000.00   0000000.00                             000000000000000                                                                                                                                                   B101418  000000000000 0000000000000.49     01050 01500                  
01663400554360016DT67590675900000002881800888800000010180088877287283024900012700123012420230000000355602423000000000055779511558XXXXXX0276       MS02WI09          NY 2 0 AMPVLOBOR90124  N840000000003556          05DNHAPPY HIPPIE             AWI7ZV    MD84000000003556 N  549976487158                            000000000+M10101C1334C    MPV  11964                     000000000  N                0000000000000.00 0000000.00   0000000.00                             000000000000000                                                                                                                                                     01418  000000000000 0000000000000.56     01150 01500                  
01663410554360017DT67590675900000002881800888800000010180088877287283024900012700131012420230000000493802423000000000055779533248XXXXXX3044       MS02WI09          NY 2 0 AMPVSDYWSA0124  N840000000004938          05DNHAPPY HIPPIE             H5TFIU    MD84000000004938 N  549976487158                            000000000+M10101C1334C    MPV  11964                     000000000  N                0000000000000.00 0000000.00   0000000.00                             000000000000000                                                                                                                                                     01418  000000000000 0000000000000.72     01150 01500                  
01663420554360018DT67590675900000002881800888800000010180088824001193024900012700147012420230000000335702423000000000055779400022XXXXXX0750       VS11    0001111   NYV1 A E303024683592289N840000000003357ZQ5L00    05DNHAPPY HIPPIE             691349    VD84000000003357 N  549976487158                            000000000+                F DF 10433                     000000000  Y000000000 338   0000000000000.00 0000000.00   0000000.00                             000000000000000                                                                                                                                                     01418 A000000000000 0000000000000.24     00050 02200                  
01663430554360019BH6759067590000000288180088880000090170124202302423000000000086904    0000090001270017N8008886759C01252023                                                                                                                                                                                                                                                                                                                                                                                                                                                                                                                                                                                                 
01663440554360020DT67590675900000002881800888800000010180088824001193024900012700014012420230000000591302423000000000086904429413XXXXXX6616       VS11    0001111   NYV1 A E303024567019291N84000000000591348RK00    05DNHAPPY HIPPIE             733173    VD84000000005913 N  549976487134                            000000000+                F DF 00381                     000000000  N000000000       0000000000000.00 0000000.00   0000000.00                             000000000000000                                                                                                                                                     01418 A000000000000 0000000000000.62     00800 01500                  
01663450554360021DT67590675900000002881800888800000010180088824001193024900012700022012420230000000395002423000000000086904445101XXXXXX8489       VS11    0001111   NYV1 A E383024620281395N840000000003950849S00    05DNHAPPY HIPPIE             094835    VD84000000003950 N  549976487134                            000000000+                F DF 10433                     000000000  Y000000000 338   0000000000000.00 0000000.00   0000000.00                             000000000000000                                                                                                                                                     01418 A000000000000 0000000000000.24     00050 02200                  
01663460554360022DT67590675900000002881800888800000010180088824001193024900012700030012420230000000158002423000000000086904415978XXXXXX6979       VS11    0001111   NYV1 A E383024636010913N8400000000015808QBR00    05DNHAPPY HIPPIE             042504    VD84000000001580 N  549976487134                            000000000+                F DF 10433                     000000000  Y000000000 338   0000000000000.00 0000000.00   0000000.00                             000000000000000                                                                                                                                                     01418 A000000000000 0000000000000.23     00050 02200                  
01663470554360023DT67590675900000002881800888800000010180088877287283024900012700040012420230000000395002423000000000086904517805XXXXXX6048       MS02WI09          NY 1 0 AMWERJ7ZFH0124  N840000000003950          05DNHAPPY HIPPIE             08952P    MC84000000003950 N  549976487134                            000000000+M10101C5434C    MWE  00743                     000000000  N                0000000000000.00 0000000.00   0000000.00                             000000000000000                                                                                                                                                   B101418  000000000000 0000000000000.95     02300 00400                  
01663480554360024DT67590675900000002881800888800000010180088877287283024900012700057012420230000000548802423000000000086904533248XXXXXX4906       MS02WI09          NY 2 0 AMPVM89SR90124  N840000000005488          05DNHAPPY HIPPIE             H5VIAQ    MD84000000005488 N  549976487134                            000000000+M10101C1334C    MPV  11964                     000000000  N                0000000000000.00 0000000.00   0000000.00                             000000000000000                                                                                                                                                     01418  000000000000 0000000000000.78     01150 01500                  
01663490554360025DT67590675900000002881800888800000010180088824001193024900012700063012420230000000375102423000000000086904443238XXXXXX2057       VS11    0001111   NYV1 A E383024711801381N840000000003751JRHW00    05DNHAPPY HIPPIE             044621    VD84000000003751 N  549976487134                            000000000+                F DF 00381                     000000000  N000000000       0000000000000.00 0000000.00   0000000.00                             000000000000000                                                                                                                                                     01418 A000000000000 0000000000000.45     00800 01500                  
01663500554360026DT67590675900000002881800888800000010180088824001193024900012700071012420230000000177802423000000000086904443238XXXXXX2057       VS11    0001111   NYV1 A E463024712970831N840000000001778V3F600    05DNHAPPY HIPPIE             044817    VD84000000001778 N  549976487134                            000000000+                F DF 00381                     000000000  N000000000       0000000000000.00 0000000.00   0000000.00                             000000000000000                                                                                                                                                     01418 A000000000000 0000000000000.29     00800 01500                  
01663510554360027DT67590675900000002881800888800000010180088824001193024900012700089012420230000000296202423000000000086904437303XXXXXX1202       VS11    0001111   NYV1 A E583024716207959N840000000002962W4MZ00    05DNHAPPY HIPPIE             083484    VD84000000002962 N  549976487134                            000000000+                F PF 08170                     000000000  N000000000       0000000000000.00 0000000.00   0000000.00                             000000000000000                                                                                                                                                     01418 A000000000000 0000000000000.49     01150 01500                  
01663520554360028DT67590675900000002881800888800000010180088824001193024900012700097012420230000000548802423000000000086904445101XXXXXX0323       VS11    0001111   NYV1 A E303024738983875N84000000000548893GB00    05DNHAPPY HIPPIE             098973    VD84000000005488 N  549976487134                            000000000+                F DF 10433                     000000000  Y000000000 338   0000000000000.00 0000000.00   0000000.00                             000000000000000                                                                                                                                                     01418 A000000000000 0000000000000.25     00050 02200                  
01663530554360029DT67590675900000002881800888800000010180088824001193024900012700105012420230000001434802423000000000086904480639XXXXXX5051       VS11    0001111   NYV1 A E583024773870401N8400000000143488BC700    05DNHAPPY HIPPIE             681337    VD84000000014348 N  549976487134                            000000000+                F DF 00381                     000000000  N000000000       0000000000000.00 0000000.00   0000000.00                             000000000000000                                                                                                                                                     01418 A000000000000 0000000000001.30     00800 01500                  
01663540554360030DT67590675900000002881800888800000010180088877287283024900012700115012420230000002083902423000000000086904511953XXXXXX2849       MS02WI09          NY 1 0 AMDJWM7YSA0124  N840000000020839          05DNHAPPY HIPPIE             098857    MD84000000020839 N  549976487134                            000000000+M10101C5434C    MDJ  00402                     000000000  N                0000000000000.00 0000000.00   0000000.00                             000000000000000                                                                                                                                                   B101418  000000000000 0000000000002.34     01050 01500                  
01663550554360031DT67590675900000002881800888800000010180088877287283024900012700123012420230000000021802423000000000086904514377XXXXXX8029       MS02WI09          NY 1 0 AMDJWYBBFH0124  N840000000000218          05DNHAPPY HIPPIE             15XCD5    MD84000000000218 N  549976487134                            000000000+M10101C5434C    MDJ  00505                     000000000  N                0000000000000.00 0000000.00   0000000.00                             000000000000000                                                                                                                                                   B101418  000000000000 0000000000000.07     01550 00400                  
01663560554360032DT67590675900000002881800888800000010180088877287283024900012700131012420230000000142502423000000000086904514377XXXXXX8029       MS02WI09          NY 1 0 AMDJQR73R90124  N840000000001425          07DNHAPPY HIPPIE             1TN75O    MD84000000001425 N  549976487134                            000000000+M10101M0034C    MDJ  00505                     000000000  N                0000000000000.00 0000000.00   0000000.00                             000000000000000                                                                                                                                                   B101418  000000000000 0000000000000.26     01550 00400                  
01663570554360033DT67590675900000002881800888800000010180088824001193024900012700147012420230000000142102423000000000086904491523XXXXXX7823       VK04VS111111111   NYV1 A E463024782290729N840000000001421GMZM00    07DNHAPPY HIPPIE             026670    VD84000000001421 N  549976487134                            000000000+                F DF 10439                     000000000  Y000000000 331   0000000000000.00 0000000.00   0000000.00                             000000000000000                                                                                                                                                     01418 F000000000000 0000000000000.23     00050 02200                  
01663580554360034DT67590675900000002881800888800000010180088824001193024900012700154012420230000000387302423000000000086904435722XXXXXX5736       VS11    0001111   NYV1 A E463024784177947N840000000003873QNFT00    05DNHAPPY HIPPIE             054657    VD84000000003873 N  549976487134                            000000000+                F DF 00381                     000000000  N000000000       0000000000000.00 0000000.00   0000000.00                             000000000000000                                                                                                                                                     01418 A000000000000 0000000000000.46     00800 01500                  
01663590554360035DT67590675900000002881800888800000010180088876509753024900012700160012420230000000553102423000000000086904601101XXXXXX0847   BA50                  NY41 0 N803020479240632N840000000005531    00    05DNHAPPY HIPPIE             02498R    DS84000000005531 N  549976487134050                         000000000+0000004910H00   DCCDI01000000099  145203000000 000000000  0          112   0000000000000.00 0000000.00   0000000.00                             000000000000000                                                                                                                                                     01418  000000000000 0000000000001.05     01720 01000                  
01663600554360036DT67590675900000002881800888800000010180088824001193024900012700170012420230000000438902423000000000086904432739XXXXXX3345       VS11    0001111   NYV1 A E583024799217613N8400000000043895VBX00    05DNHAPPY HIPPIE             163550    VD84000000004389 N  549976487134                            000000000+                F DF 10433                     000000000  Y000000000 338   0000000000000.00 0000000.00   0000000.00                             000000000000000                                                                                                                                                     01418 A000000000000 0000000000000.24     00050 02200                  
01663610554360037BH6759067590000000561180088880000090170124202302423000000000016989    0000090001034455N8008886759C01252023                                                                                                                                                                                                                                                                                                                                                                                                                                                                                                                                                                                                 
01663620554360038DT67590675900000005611800888800000010180088824001193024900010344559012420230000001698902423000000000016989435866XXXXXX6585               2111111   NYV4 A7W583024584290157N840000000016989DJGN00    01DNK DIVINE 503-689-7182    000284    VD84000000016989 NP1549971004114   5160                     000000000+                F PF 08175                     000000000  N000000000       0000000000000.00 0000000.00   0000000.00                             000000000000000                                                                                                                                                     01418 G000000016989 0000000000003.17     01750 02000                  
01663630554360001P16759067590000000561180088880000001010000000000000000                             2000000000000000000000000              000000000000                    0000000000000000000000000                    000000000000                                                                                                                                                                                                                                                                                                                                                                                                                                                                                        
01663640554360039BH6759067590000000096880088880000090170124202302423000000000006841    0000090001284436N8008886759C01252023                                                                                                                                                                                                                                                                                                                                                                                                                                                                                                                                                                                                 
01663650554360040DT67590675900000000968800888800000010180088824001193024900012844366012420230000000684102423000000000006841473702XXXXXX9936               2111111   NYV4 A7W463024201528165N840000000006841N84700    01DNHIGHER FLOUR LLC         093276    VD84000000006841 NP1546271004114   RO6KLG9IYBJ2LKFE8CU8     000000000+                F DF 10420                     000000000  Y000000000 338   0000000000000.00 0000000.00   0000000.00                             000000000000000                                                                                                                                                     01418 G000000006841 0000000000000.25     00050 02200                  
01663660554360001P16759067590000000096880088880000001010000000000000000                             2000000000000000000000000              000000000000                    0000000000000000000000000                    000000000000                                                                                                                                                                                                                                                                                                                                                                                                                                                                                        
