00011220653750002BH6759067590000000370780088880000090170328202308723000000000020559    0000090001740492Y8008886759C03292023                                                                                                                                                                                                                                                                                                                                                                                                                                                                                                                                                                                                 
00011230653750003DT67590675900000003707800888800000010180088824001193087900017404913032820230000001449708723000000000020559435603XXXXXX2800               2111111   NYV4 A7W583087506873264N840000000014497DTHK00    01DNMR HEMP FLOWER           140547    VD84000000014497 NP1549976053336   87790                    000000000+                F DF 10420                     000000000  Y000000000 338   0000000000000.00 0000000.00   0000000.00                             000000000000000                                                                                                                                                     01424 G000000014497 0000000000000.29     00050 02200                  
00011240653750001P16759067590000000370780088880000001010000000000000000                             2000000000000000000000000              000000000000                    0000000000000000000000000                    000000000000                                                                                                                                                                                                                                                                                                                                                                                                                                                                                        
00011250653750004DT67590675900000003707800888800000010180088824001193087900017404921032820230000000606208723000000000020559490097XXXXXX1730               2111111   NYV4 A7W383087743001930N840000000006062NP9300    01DNMR HEMP FLOWER           063820    VD84000000006062 NP1549976053336   87804                    000000000+                F DF 00415                     000000000  N000000000       0000000000000.00 0000000.00   0000000.00                             000000000000000                                                                                                                                                     01424 G000000006062 0000000000001.15     01650 01500                  
00011260653750001P16759067590000000370780088880000001010000000000000000                             2000000000000000000000000              000000000000                    0000000000000000000000000                    000000000000                                                                                                                                                                                                                                                                                                                                                                                                                                                                                        
00011270653750005BH6759067590000001427480010280000090170328202308723000000000124757    0000090001413544Y8001026759C03292023                                                                                                                                                                                                                                                                                                                                                                                                                                                                                                                                                                                                 
00011280653750006DT67590675900000014274800102800000010180010224001193087900014131667032720230000001938508723000000000124757473702XXXXXX1195               2111111   NYV4 A7W383083561053393N840000000019385G29T00    01DNCBD8666317293            053804    VD84000000019385 NP1549977145232   79290FCF0CTCCD47EC26F9D  000000000+                F DF 10420                     000000000  Y000000000 338   0000000000000.00 0000000.00   0000000.00                             000000000000000                                                                                                                                                     01424 G000000019385 0000000000000.32     00050 02200                  
00011290653750001P16759067590000001427480010280000001010000000000000000                             2000000000000000000000000              000000000000                    0000000000000000000000000                    000000000000                                                                                                                                                                                                                                                                                                                                                                                                                                                                                        
00011300653750007DT67590675900000014274800102800000010180010224001193087900014132269032720230000001499108723000000000124757425836XXXXXX2885               2111111   NYV4 A7W383083813044217N840000000014991VVMN00    01DNCBD8666317293            041059    VD84000000014991 NP1549977145232   A54D10185ETD0061074E738  000000000+                F DF 10420                     000000000  Y000000000 338   0000000000000.00 0000000.00   0000000.00                             000000000000000                                                                                                                                                     01424 G000000014991 0000000000000.29     00050 02200                  
00011310653750001P16759067590000001427480010280000001010000000000000000                             2000000000000000000000000              000000000000                    0000000000000000000000000                    000000000000                                                                                                                                                                                                                                                                                                                                                                                                                                                                                        
00011320653750008DT67590675900000014274800102800000010180010224001193087900014132277032720230000000600408723000000000124757414718XXXXXX1309               2111111   NYV4 A7W383083828934436N840000000006004MS3600    01DNCBD8666317293            024747    VS84000000006004 NP1549977145232   97A6944134TFF08EDD0E4BE  000000000+                D CD 12109                     000000000  N000000000 498   0000000000000.00 0000000.00   0000000.00                             000000000000000                                                                                                                                                     01424 G000000006004 0000000000001.60     02500 01000                  
00011330653750001P16759067590000001427480010280000001010000000000000000                             2000000000000000000000000              000000000000                    0000000000000000000000000                    000000000000                                                                                                                                                                                                                                                                                                                                                                                                                                                                                        
00011340653750009DT67590675900000014274800102800000010180010224001193087900014132293032720230000000642408723000000000124757444796XXXXXX7819               2111111   NYV4 A7W303083861046487N84000000000642423KL00    01DNCBD8666317293            024607    VS84000000006424 NP1549977145232   A237136DE5TBCA0B82081E5  000000000+                A CA 12106                     000000000  N000000000 492   0000000000000.00 0000000.00   0000000.00                             000000000000000                                                                                                                                                     01424 G000000006424 0000000000001.31     01890 01000                  
00011350653750001P16759067590000001427480010280000001010000000000000000                             2000000000000000000000000              000000000000                    0000000000000000000000000                    000000000000                                                                                                                                                                                                                                                                                                                                                                                                                                                                                        
00011360653750010DT67590675900000014274800102800000010180010224001193087900014132319032720230000000700408723000000000124757449465XXXXXX3981               2111111   NYV4 A7W383084054041609N840000000007004CMQ200    01DNCBD8666317293            145463    VD84000000007004 NP1549977145232   3BA13D45B9T54A9E3A1EB87  000000000+                F DF 10420                     000000000  Y000000000 338   0000000000000.00 0000000.00   0000000.00                             000000000000000                                                                                                                                                     01424 G000000007004 0000000000000.26     00050 02200                  
00011370653750001P16759067590000001427480010280000001010000000000000000                             2000000000000000000000000              000000000000                    0000000000000000000000000                    000000000000                                                                                                                                                                                                                                                                                                                                                                                                                                                                                        
00011380653750011DT67590675900000014274800102800000010180010224001193087900014134869032720230000000019908723000000000124757440393XXXXXX7331               2111111   NYV4 A7W303087004920639N840000000000199QL6200    01DNCBD8666317293            886569    VD84000000000199 NP1549977145232   A9A44CCD8DTC9EBD5929A79  000000000+                F PF 08175                     000000000  N000000000       0000000000000.00 0000000.00   0000000.00                             000000000000000                                                                                                                                                     01424 G000000000199 0000000000000.23     01750 02000                  
00011390653750001P16759067590000001427480010280000001010000000000000000                             2000000000000000000000000              000000000000                    0000000000000000000000000                    000000000000                                                                                                                                                                                                                                                                                                                                                                                                                                                                                        
00011400653750012DT67590675900000014274800102800000010180010224001193087900014134877032720230000000019908723000000000124757408544XXXXXX9313               2111111   NYV4 A7W583087009288323N8400000000001997LF400    01DNCBD8666317293            762008    VB84000000000199 NP1549977145232   FE6F20764AT2FD666F10E5A  000000000+                K CK 00691                     000000000  N000000000 234   0000000000000.00 0000000.00   0000000.00                             000000000000000                                                                                                                                                     01424 G000000000199 0000000000000.15     02700 01000                  
00011410653750001P16759067590000001427480010280000001010000000000000000                             2000000000000000000000000              000000000000                    0000000000000000000000000                    000000000000                                                                                                                                                                                                                                                                                                                                                                                                                                                                                        
00011420653750013DT67590675900000014274800102800000010180010224001193087900014134885032720230000000019908723000000000124757489683XXXXXX1349               2111111   NYV4 A7W303087009648139N840000000000199GH5G00    01DNCBD8666317293            1VB3WN    VD84000000000199 NP1549977145232   9E2F867E3ETD6E2D20C482C  000000000+                S PS 10179                     000000000  N000000000 364   0000000000000.00 0000000.00   0000000.00                             000000000000000                                                                                                                                                     01424 G000000000199 0000000000000.15     02650 01000                  
00011430653750001P16759067590000001427480010280000001010000000000000000                             2000000000000000000000000              000000000000                    0000000000000000000000000                    000000000000                                                                                                                                                                                                                                                                                                                                                                                                                                                                                        
00011440653750014DT67590675900000014274800102800000010180010224001193087900014134919032720230000000534908723000000000124757432739XXXXXX6071               2111111   NYV4 A7W383087041387047N84000000000534968B500    01DNCBD8666317293            953416    VD84000000005349 NP1549977145232   CFB2826AF8T9EF67E08D10D  000000000+                F DF 10420                     000000000  Y000000000 338   0000000000000.00 0000000.00   0000000.00                             000000000000000                                                                                                                                                     01424 G000000005349 0000000000000.25     00050 02200                  
00011450653750001P16759067590000001427480010280000001010000000000000000                             2000000000000000000000000              000000000000                    0000000000000000000000000                    000000000000                                                                                                                                                                                                                                                                                                                                                                                                                                                                                        
00011460653750015DT67590675900000014274800102800000010180010224001193087900014134943032720230000001987008723000000000124757435278XXXXXX9814               2111111   NYV4 A7W463087050381379N840000000019870NVFB00    01DNCBD8666317293            152635    VD84000000019870 NP1549977145232   D64B8F98F0T08DF8E83F402  000000000+                F DF 10420                     000000000  Y000000000 338   0000000000000.00 0000000.00   0000000.00                             000000000000000                                                                                                                                                     01424 G000000019870 0000000000000.32     00050 02200                  
00011470653750001P16759067590000001427480010280000001010000000000000000                             2000000000000000000000000              000000000000                    0000000000000000000000000                    000000000000                                                                                                                                                                                                                                                                                                                                                                                                                                                                                        
00011480653750016DT67590675900000014274800102800000010180010224001193087900014134984032720230000000019908723000000000124757428813XXXXXX7117               2111111   NYV4 A7W303087055277202N840000000000199S3LL00    01DNCBD8666317293            973714    VB84000000000199 NP1549977145232   CF94777F08T6BE015BC012D  000000000+                S CS 00692                     000000000  N000000000 237   0000000000000.00 0000000.00   0000000.00                             000000000000000                                                                                                                                                     01424 G000000000199 0000000000000.15     02700 01000                  
00011490653750001P16759067590000001427480010280000001010000000000000000                             2000000000000000000000000              000000000000                    0000000000000000000000000                    000000000000                                                                                                                                                                                                                                                                                                                                                                                                                                                                                        
00011500653750017DT67590675900000014274800102800000010180010224001193087900014135015032720230000002681008723000000000124757426684XXXXXX5460               2111111   NYV4 A7W463087066049652N8400000000268108ZF600    01DNCBD8666317293            00148C    VS84000000026810 NP1549977145232   7C073144FCTD58E9B72B776  000000000+                C CC 12108                     000000000  N000000000 496   0000000000000.00 0000000.00   0000000.00                             000000000000000                                                                                                                                                     01424 G000000026810 0000000000005.60     02050 01000                  
00011510653750001P16759067590000001427480010280000001010000000000000000                             2000000000000000000000000              000000000000                    0000000000000000000000000                    000000000000                                                                                                                                                                                                                                                                                                                                                                                                                                                                                        
00011520653750018DT67590675900000014274800102800000010180010224001193087900014135031032720230000000019908723000000000124757428821XXXXXX8724               2111111   NYV4 A7W463087069744146N840000000000199RBMT00    01DNCBD8666317293            966760    VB84000000000199 NP1549977145232   247C8BA185T1B9B3EADAA05  000000000+                S CS 00692                     000000000  N000000000 237   0000000000000.00 0000000.00   0000000.00                             000000000000000                                                                                                                                                     01424 G000000000199 0000000000000.15     02700 01000                  
00011530653750001P16759067590000001427480010280000001010000000000000000                             2000000000000000000000000              000000000000                    0000000000000000000000000                    000000000000                                                                                                                                                                                                                                                                                                                                                                                                                                                                                        
00011540653750019DT67590675900000014274800102800000010680010287287283087900014135040032720230000000756408723000000000124757527519XXXXXX2572                         NY 4607AMDJF6FP120327  N840000000007564          81CNCBD8666317293            428546    MD84000000007564 N  549977145232   40F6F97690TA8354EEBC26E  000000000+600450S00130    MDJ  10828                     000000000  1                0000000000000.00 0000000.00   0000000.00                             000000000000000                                                                                                                                                     01424  000000000000 0000000000000.00     00000 00000                  
00011550653750020DT67590675900000014274800102800000010180010287287283087900014135073032720230000000019908723000000000124757556150XXXXXX0784                         NY 4607AMCFNDWJ120327  N840000000000199          81DNCBD8666317293            N1LA4T    MB84000000000199 NP1549977145232   8F9E0A70E9T6EBD596313D6  000000000+600450S00130    MCF  00060                     000000000  N                0000000000000.00 0000000.00   0000000.00                             000000000000000                                                                                                                                                     01424  000000000000 0000000000000.16     02950 01000                  
00011560653750001P1675906759000000142748001028000000101                                                          000000000000          8000            871584967                                                                                                                                                                                                                                                                                                                                                                                                                                                                                                                                                            
00011570653750021DT67590675900000014274800102800000010180010224001193087900014135080032720230000000019908723000000000124757428813XXXXXX2542               2111111   NYV4 A7W583087085401713N840000000000199D94W00    01DNCBD8666317293            685904    VB84000000000199 NP1549977145232   8410939838T1699BE3543F5  000000000+                S CS 00692                     000000000  N000000000 237   0000000000000.00 0000000.00   0000000.00                             000000000000000                                                                                                                                                     01424 G000000000199 0000000000000.15     02700 01000                  
00011580653750001P16759067590000001427480010280000001010000000000000000                             2000000000000000000000000              000000000000                    0000000000000000000000000                    000000000000                                                                                                                                                                                                                                                                                                                                                                                                                                                                                        
00011590653750022DT67590675900000014274800102800000010180010224001193087900014135098032720230000002106208723000000000124757468014XXXXXX8420               2111111   NYV4 A7W303087088024730N840000000021062QBVN00    01DNCBD8666317293            847126    VS84000000021062 NP1549977145232   5573CA682ETAEDD7C31EAA6  000000000+                D CD 12109                     000000000  N000000000 498   0000000000000.00 0000000.00   0000000.00                             000000000000000                                                                                                                                                     01424 G000000021062 0000000000005.37     02500 01000                  
00011600653750001P16759067590000001427480010280000001010000000000000000                             2000000000000000000000000              000000000000                    0000000000000000000000000                    000000000000                                                                                                                                                                                                                                                                                                                                                                                                                                                                                        
00011610653750023DT67590675900000014274800102800000010180010287287283087900014135107032720230000000019908723000000000124757534786XXXXXX9038                         NY 4607AMCOPHIU1X0327  N840000000000199          81DNCBD8666317293            W8R4QX    MB84000000000199 NP1549977145232   AA32789FAFT5B49C375FB3E  000000000+600450S00130    MCO  00303                     000000000  N                0000000000000.00 0000000.00   0000000.00                             000000000000000                                                                                                                                                   U001424  000000000000 0000000000000.15     02700 01000                  
00011620653750001P1675906759000000142748001028000000101                                                          000000000000          8000            871584967                                                                                                                                                                                                                                                                                                                                                                                                                                                                                                                                                            
00011630653750024DT67590675900000014274800102800000010180010224001193087900014135122032720230000000019908723000000000124757428813XXXXXX9980               2111111   NYV4 A7W303087171025785N8400000000001994SR700    01DNCBD8666317293            074223    VB84000000000199 NP1549977145232   FCEF1D994CTDB7464C0BC23  000000000+                S CS 00692                     000000000  N000000000 237   0000000000000.00 0000000.00   0000000.00                             000000000000000                                                                                                                                                     01424 G000000000199 0000000000000.15     02700 01000                  
00011640653750001P16759067590000001427480010280000001010000000000000000                             2000000000000000000000000              000000000000                    0000000000000000000000000                    000000000000                                                                                                                                                                                                                                                                                                                                                                                                                                                                                        
00011650653750025DT67590675900000014274800102800000010180010224001193087900014135130032720230000000019908723000000000124757404038XXXXXX6522               2111111   NYV4 A7W303087176440298N840000000000199XDMD00    01DNCBD8666317293            VWE2OW    VD84000000000199 NP1549977145232   E0AB332673T6AA8C1C5496C  000000000+                S PS 10179                     000000000  N000000000 364   0000000000000.00 0000000.00   0000000.00                             000000000000000                                                                                                                                                     01424 G000000000199 0000000000000.15     02650 01000                  
00011660653750001P16759067590000001427480010280000001010000000000000000                             2000000000000000000000000              000000000000                    0000000000000000000000000                    000000000000                                                                                                                                                                                                                                                                                                                                                                                                                                                                                        
00011670653750026DT67590675900000014274800102800000010180010224001193087900014135148032820230000000019908723000000000124757428821XXXXXX5799               2111111   NYV4 A7W303087247882030N840000000000199KDKF00    01DNCBD8666317293            854707    VB84000000000199 NP1549977145232   3637DD2CFCTCF3817BE2BDE  000000000+                S CS 00692                     000000000  N000000000 237   0000000000000.00 0000000.00   0000000.00                             000000000000000                                                                                                                                                     01424 G000000000199 0000000000000.15     02700 01000                  
00011680653750001P16759067590000001427480010280000001010000000000000000                             2000000000000000000000000              000000000000                    0000000000000000000000000                    000000000000                                                                                                                                                                                                                                                                                                                                                                                                                                                                                        
00011690653750027DT67590675900000014274800102800000010180010224001193087900014135155032820230000000019908723000000000124757412076XXXXXX0765               2111111   NYV4 A7W583087251430780N840000000000199QRGM00    01DNCBD8666317293            833162    VS84000000000199 NP1549977145232   7D0073EE0BT10D740363E31  000000000+                A CA 12106                     000000000  N000000000 492   0000000000000.00 0000000.00   0000000.00                             000000000000000                                                                                                                                                     01424 G000000000199 0000000000000.14     01890 01000                  
00011700653750001P16759067590000001427480010280000001010000000000000000                             2000000000000000000000000              000000000000                    0000000000000000000000000                    000000000000                                                                                                                                                                                                                                                                                                                                                                                                                                                                                        
00011710653750028DT67590675900000014274800102800000010180010224001193087900014135163032820230000000019908723000000000124757433451XXXXXX0919               2111111   NYV4 A7W463087271829732N8400000000001998JBM00    01DNCBD8666317293            UKM790    VD84000000000199 NP1549977145232   0AFA8EA0E2T87A3DC1D86C3  000000000+                S PS 10179                     000000000  N000000000 364   0000000000000.00 0000000.00   0000000.00                             000000000000000                                                                                                                                                     01424 G000000000199 0000000000000.15     02650 01000                  
00011720653750001P16759067590000001427480010280000001010000000000000000                             2000000000000000000000000              000000000000                    0000000000000000000000000                    000000000000                                                                                                                                                                                                                                                                                                                                                                                                                                                                                        
00011730653750029DT67590675900000014274800102800000010180010224001193087900014135171032820230000000019908723000000000124757485932XXXXXX4736               2111111   NYV4 A7W463087328343089N8400000000001995WW900    01DNCBD8666317293            803041    VB84000000000199 NP1549977145232   C45FF24BF6T199314A6514B  000000000+                S CS 00692                     000000000  N000000000 237   0000000000000.00 0000000.00   0000000.00                             000000000000000                                                                                                                                                     01424 G000000000199 0000000000000.15     02700 01000                  
00011740653750001P16759067590000001427480010280000001010000000000000000                             2000000000000000000000000              000000000000                    0000000000000000000000000                    000000000000                                                                                                                                                                                                                                                                                                                                                                                                                                                                                        
00011750653750030DT67590675900000014274800102800000010680010274001193087900014135200032820230000001000008723000000000124757440066XXXXXX1761               0000000   NYV4 07T463087472837944N840000000010000DZS400    01CNCBD8666317293            00346D    VS84000000010000 NP1549977145232   19203C509DT92BD034834B8  000000000+                D CD 00245                     000000000  N000000000 166   0000000000000.00 0000000.00   0000000.00                             000000000000000                                                                                                                                                     01424  000000010000-0000000000001.76     01760 00000                  
00011760653750001P16759067590000001427480010280000001060000000000000000                             2000000000000000000000000              000000000000                    0000000000000000000000000                    000000000000                                                                                                                                                                                                                                                                                                                                                                                                                                                                                        
00011770653750031DT67590675900000014274800102800000010680010287287283087900014135214032820230000000999808723000000000124757550114XXXXXX8874                         NY 4607AMCSB74ORE0328  N840000000009998          81CNCBD8666317293            028438    MC84000000009998 N  549977145232   B1FB1D1269TCF6FA8D340A9  000000000+600450S00130    MCS  00565                     000000000  N                0000000000000.00 0000000.00   0000000.00                             000000000000000                                                                                                                                                     01424  000000000000-0000000000001.75     01750 00000                  
00011780653750032DT67590675900000014274800102800000010680010274001193087900014135267032820230000000500008723000000000124757449497XXXXXX4014               0000000   NYV4 07T583087640798061N840000000005000HWZG85    01CNCBD8666317293            066285    VD84000000005000 NP1549977145232   9C2B577D26T150EAF63EE72  000000000+                F DF 08168                     000000000  N000000000 369   0000000000000.00 0000000.00   0000000.00                             000000000000000                                                                                                                                                     01424  000000005000 0000000000000.00     00000 00000                  
00011790653750001P16759067590000001427480010280000001060000000000000000                             2000000000000000000000000              000000000000                    0000000000000000000000000                    000000000000                                                                                                                                                                                                                                                                                                                                                                                                                                                                                        
00011800653750033DT67590675900000014274800102800000010180010287287283087900014135305032820230000000019908723000000000124757524897XXXXXX3533                         NY 4607AMCOV9PGJW0328  N840000000000199          81DNCBD8666317293            JRCRZ2    MB84000000000199 NP1549977145232   EE79D14F38T4548195DF666  000000000+600450S00130    MCO  00303                     000000000  N                0000000000000.00 0000000.00   0000000.00                             000000000000000                                                                                                                                                   U001424  000000000000 0000000000000.15     02700 01000                  
00011810653750001P1675906759000000142748001028000000101                                                          000000000000          8000            871584967                                                                                                                                                                                                                                                                                                                                                                                                                                                                                                                                                            
00011820653750034DT67590675900000014274800102800000010180010224001193087900014135312032820230000002604208723000000000124757463895XXXXXX9652               2111111   NYV4 A7W463087735847521N840000000026042RSNR00    01DNCBD8666317293            668420    VD84000000026042 NP1549977145232   A7BAA25B15T9D0FCF985CA4  000000000+                F DF 00415                     000000000  N000000000       0000000000000.00 0000000.00   0000000.00                             000000000000000                                                                                                                                                     01424 G000000026042 0000000000004.45     01650 01500                  
00011830653750001P16759067590000001427480010280000001010000000000000000                             2000000000000000000000000              000000000000                    0000000000000000000000000                    000000000000                                                                                                                                                                                                                                                                                                                                                                                                                                                                                        
00011840653750035DT67590675900000014274800102800000010180010287287283087900014135321032820230000000019908723000000000124757515177XXXXXX3827                         NY 4607AMPLQ0MSJW0328  N840000000000199          81DNCBD8666317293            019534    MC84000000000199 N  549977145232   4C320F45E5TDD2341A76309  000000000+600450S00130    MPL  12148                     000000000  N                0000000000000.00 0000000.00   0000000.00                             000000000000000                                                                                                                                                   U001424  000000000000 0000000000000.06     01950 00200                  
00011850653750036DT67590675900000014274800102800000010180010224001193087900014135346032820230000000019908723000000000124757428803XXXXXX0383               2111111   NYV4 A7W583087772459327N8400000000001995V8J00    01DNCBD8666317293            255871    VD84000000000199 NP1549977145232   61993338D4T7914E50DCA6D  000000000+                S PS 10179                     000000000  N000000000 364   0000000000000.00 0000000.00   0000000.00                             000000000000000                                                                                                                                                     01424 G000000000199 0000000000000.15     02650 01000                  
00011860653750001P16759067590000001427480010280000001010000000000000000                             2000000000000000000000000              000000000000                    0000000000000000000000000                    000000000000                                                                                                                                                                                                                                                                                                                                                                                                                                                                                        
00011870653750037DT67590675900000014274800102800000010180010287287283087900014135388032820230000000019908723000000000124757559292XXXXXX1531                         NY 4607AMCOKCO2VP0328  N840000000000199          81DNCBD8666317293            ER7HEQ    MB84000000000199 NP1549977145232   7BDF9B7A7CTDE79A27EE93A  000000000+600450S00130    MCO  00303                     000000000  N                0000000000000.00 0000000.00   0000000.00                             000000000000000                                                                                                                                                     01424  000000000000 0000000000000.15     02700 01000                  
00011880653750001P1675906759000000142748001028000000101                                                          000000000000          8000            871584967                                                                                                                                                                                                                                                                                                                                                                                                                                                                                                                                                            
00011890653750038DT67590675900000014274800102800000010180010224001193087900014135395032820230000000019908723000000000124757428821XXXXXX1727               2111111   NYV4 A7W303087809456193N84000000000019986MM00    01DNCBD8666317293            220845    VB84000000000199 NP1549977145232   3D3E39DDE9T44DB11351037  000000000+                S CS 00692                     000000000  N000000000 237   0000000000000.00 0000000.00   0000000.00                             000000000000000                                                                                                                                                     01424 G000000000199 0000000000000.15     02700 01000                  
00011900653750001P16759067590000001427480010280000001010000000000000000                             2000000000000000000000000              000000000000                    0000000000000000000000000                    000000000000                                                                                                                                                                                                                                                                                                                                                                                                                                                                                        
00011910653750039DT67590675900000014274800102800000010180010224001193087900014135403032820230000000019908723000000000124757412076XXXXXX5437               2111111   NYV4 A7W303087813064827N840000000000199LC5500    01DNCBD8666317293            582430    VS84000000000199 NP1549977145232   D7CD595D13T0C5EF4992EBC  000000000+                A CA 12106                     000000000  N000000000 492   0000000000000.00 0000000.00   0000000.00                             000000000000000                                                                                                                                                     01424 G000000000199 0000000000000.14     01890 01000                  
00011920653750001P16759067590000001427480010280000001010000000000000000                             2000000000000000000000000              000000000000                    0000000000000000000000000                    000000000000                                                                                                                                                                                                                                                                                                                                                                                                                                                                                        
00011930653750040DT67590675900000014274800102800000010180010224001193087900014135411032820230000000019908723000000000124757408544XXXXXX7960               2111111   NYV4 A7W303087816089117N840000000000199MTMT00    01DNCBD8666317293            559378    VB84000000000199 NP1549977145232   959E96F71FT7333DC732E59  000000000+                K CK 00691                     000000000  N000000000 234   0000000000000.00 0000000.00   0000000.00                             000000000000000                                                                                                                                                     01424 G000000000199 0000000000000.15     02700 01000                  
00011940653750001P16759067590000001427480010280000001010000000000000000                             2000000000000000000000000              000000000000                    0000000000000000000000000                    000000000000                                                                                                                                                                                                                                                                                                                                                                                                                                                                                        
00011950653750041DT67590675900000014274800102800000010180010287287283087900014135446032820230000000019908723000000000124757553437XXXXXX7605                         NY 4607AMBSMAMAVP0328  N840000000000199          81DNCBD8666317293            ZFHS30    MB84000000000199 NP1549977145232   21F16714D3T86BA070D57F0  000000000+600450S00130    MBS  00303                     000000000  N                0000000000000.00 0000000.00   0000000.00                             000000000000000                                                                                                                                                   U001424  000000000000 0000000000000.15     02700 01000                  
00011960653750001P1675906759000000142748001028000000101                                                          000000000000          8000            871584967                                                                                                                                                                                                                                                                                                                                                                                                                                                                                                                                                            
00011970653750042BH6759067590000001516480088880000090170328202308723000000002618485    0000090001287949Y8008886759C03292023                                                                                                                                                                                                                                                                                                                                                                                                                                                                                                                                                                                                 
00011980653750043DT67590675900000015164800888800000010180088887287283087900012858510032720230000001291608723000000002618485542418XXXXXX0108       ME03KE06MS02      NY 4607AMPLFVHLK40324  N840000000012916          81DNKETOFUSION833-923-3587   00627B    MC84000000012916 N  599977360677   20B5787A1FTBB2F2D8AADBB  000000000+600450S00130    MPL  00580                     000000000  N                0000000000000.00 0000000.00   0000000.00                             000000000000000                                                                                                                                                   U001424  000000000000 0000000000002.81     02100 01000                  
00011990653750044DT67590675900000015164800888800000010180088887287283087900012859237032720230000001616608723000000002618485521333XXXXXX0863       ME03KE06MS02      NY 4607AMWEBMJDX50324  N840000000016166          81DNKETOFUSION833-923-3587   02454Y    MC84000000016166 N  599977360677   6E45D2981FT8BD515EEF1EF  000000000+600450S00130    MWE  00642                     000000000  N                0000000000000.00 0000000.00   0000000.00                             000000000000000                                                                                                                                                   U001424  000000000000 0000000000003.66     02200 01000                  
00012000653750045DT67590675900000015164800888800000010180088824001193087900012874342032720230000000654808723000000002618485443264XXXXXX3599               2111111   NYV4 A7W303087000191196N840000000006548XDD600    01DNKETOFUSION833-923-3587   000666    VD84000000006548 NP1599977360677   F0616D389CT2728996D44B0  000000000+                F DF 10420                     000000000  Y000000000 338   0000000000000.00 0000000.00   0000000.00                             000000000000000                                                                                                                                                     01424 G000000006548 0000000000000.25     00050 02200                  
00012010653750001P16759067590000001516480088880000001010000000000000000                             2000000000000000000000000              000000000000                    0000000000000000000000000                    000000000000                                                                                                                                                                                                                                                                                                                                                                                                                                                                                        
00012020653750046DT67590675900000015164800888800000010180088824001193087900012874367032720230000000519008723000000002618485443264XXXXXX3599               2111111   NYV4 A7W303087000399583N840000000005190NC6Q00    01DNKETOFUSION833-923-3587   020963    VD84000000005190 NP1599977360677   F0616D389CTB501B26AC8CE  000000000+                F DF 10420                     000000000  Y000000000 338   0000000000000.00 0000000.00   0000000.00                             000000000000000                                                                                                                                                     01424 G000000005190 0000000000000.25     00050 02200                  
00012030653750001P16759067590000001516480088880000001010000000000000000                             2000000000000000000000000              000000000000                    0000000000000000000000000                    000000000000                                                                                                                                                                                                                                                                                                                                                                                                                                                                                        
00012040653750047DT67590675900000015164800888800000010180088887287283087900012874384032720230000001499008723000000002618485552433XXXXXX9773       ME03KE06MS02      NY 4607AMPL7IPS110327  N840000000014990          81DNKETOFUSION833-923-3587   04176M    MC84000000014990 N  599977360677   8D9277A502T161CAE1BC97C  000000000+600450S00130    MPL  00580                     000000000  N                0000000000000.00 0000000.00   0000000.00                             000000000000000                                                                                                                                                   U001424  000000000000 0000000000003.25     02100 01000                  
00012050653750048DT67590675900000015164800888800000010180088824001193087900012874417032720230000001987008723000000002618485441839XXXXXX6025               2111111   NYV4 A7W383087005066742N840000000019870HL4200    01DNKETOFUSION833-923-3587   964786    VS84000000019870 NP1599977360677   1716FB654ATE192B1B592E8  000000000+                C CC 12108                     000000000  N000000000 496   0000000000000.00 0000000.00   0000000.00                             000000000000000                                                                                                                                                     01424 G000000019870 0000000000004.17     02050 01000                  
00012060653750001P16759067590000001516480088880000001010000000000000000                             2000000000000000000000000              000000000000                    0000000000000000000000000                    000000000000                                                                                                                                                                                                                                                                                                                                                                                                                                                                                        
00012070653750049DT67590675900000015164800888800000010180088887287283087900012874426032720230000001987008723000000002618485538843XXXXXX4650       ME03KE06MS02      NY 4607AMDJYH4U170327  N840000000019870          81DNKETOFUSION833-923-3587   014894    MD84000000019870 N  599977360677   1409624492T7509F9FBA498  000000000+600450S00130    MDJ  00401                     000000000  N                0000000000000.00 0000000.00   0000000.00                             000000000000000                                                                                                                                                   U001424  000000000000 0000000000003.43     01650 01500                  
00012080653750050DT67590675900000015164800888800000010180088887287283087900012874434032720230000000654808723000000002618485538843XXXXXX4650       ME03KE06MS02      NY 4607AMDJNH4N1X0327  N840000000006548          81DNKETOFUSION833-923-3587   014895    MD84000000006548 N  599977360677   1409624492T8F5C2B718A54  000000000+600450S00130    MDJ  00401                     000000000  N                0000000000000.00 0000000.00   0000000.00                             000000000000000                                                                                                                                                   U001424  000000000000 0000000000001.23     01650 01500                  
00012090653750051DT67590675900000015164800888800000010180088824001193087900012874441032720230000002487008723000000002618485427082XXXXXX3406               2111111   NYV4 A7W463087008155412N840000000024870J5DP00    01DNKETOFUSION833-923-3587   027772    VS84000000024870 NP1599977360677   F160FFB922T2EFADF91CEFB  000000000+                D CD 12109                     000000000  N000000000 498   0000000000000.00 0000000.00   0000000.00                             000000000000000                                                                                                                                                     01424 G000000024870 0000000000006.32     02500 01000                  
00012100653750001P16759067590000001516480088880000001010000000000000000                             2000000000000000000000000              000000000000                    0000000000000000000000000                    000000000000                                                                                                                                                                                                                                                                                                                                                                                                                                                                                        
00012110653750052DT67590675900000015164800888800000010180088824001193087900012874458032720230000000654808723000000002618485427082XXXXXX3406               2111111   NYV4 A7W303087008537590N8400000000065485FSN00    01DNKETOFUSION833-923-3587   027001    VS84000000006548 NP1599977360677   F160FFB922TD13D838DDA8E  000000000+                D CD 12109                     000000000  N000000000 498   0000000000000.00 0000000.00   0000000.00                             000000000000000                                                                                                                                                     01424 G000000006548 0000000000001.74     02500 01000                  
00012120653750001P16759067590000001516480088880000001010000000000000000                             2000000000000000000000000              000000000000                    0000000000000000000000000                    000000000000                                                                                                                                                                                                                                                                                                                                                                                                                                                                                        
00012130653750053DT67590675900000015164800888800000010680088887287283087900012874491032720230000000928408723000000002618485528749XXXXXX1802                         NY 4607AMDJNN6H1X0327  N840000000009284          81CNKETOFUSION833-923-3587   854888    MD84000000009284 N  599977360677   66E5A047DFT534AFD20C1FE  000000000+600450S00130    MDJ  10828                     000000000  1                0000000000000.00 0000000.00   0000000.00                             000000000000000                                                                                                                                                     01424  000000000000 0000000000000.00     00000 00000                  
00012140653750054DT67590675900000015164800888800000010180088824001193087900012874508032720230000001987008723000000002618485410039XXXXXX0881               2111111   NYV4 A7W303087014301846N8400000000198702BQV00    01DNKETOFUSION833-923-3587   81064D    VS84000000019870 NP1599977360677   74C2E15689T2D29CF28C7B3  000000000+                D CD 12109                     000000000  N000000000 498   0000000000000.00 0000000.00   0000000.00                             000000000000000                                                                                                                                                     01424 G000000019870 0000000000005.07     02500 01000                  
00012150653750001P16759067590000001516480088880000001010000000000000000                             2000000000000000000000000              000000000000                    0000000000000000000000000                    000000000000                                                                                                                                                                                                                                                                                                                                                                                                                                                                                        
00012160653750055DT67590675900000015164800888800000010180088824001193087900012874516032720230000000519008723000000002618485410039XXXXXX0881               2111111   NYV4 A7W463087014534297N840000000005190V9Z600    01DNKETOFUSION833-923-3587   90710D    VS84000000005190 NP1599977360677   74C2E15689T40749301A4BC  000000000+                D CD 12109                     000000000  N000000000 498   0000000000000.00 0000000.00   0000000.00                             000000000000000                                                                                                                                                     01424 G000000005190 0000000000001.40     02500 01000                  
00012170653750001P16759067590000001516480088880000001010000000000000000                             2000000000000000000000000              000000000000                    0000000000000000000000000                    000000000000                                                                                                                                                                                                                                                                                                                                                                                                                                                                                        
00012180653750056DT67590675900000015164800888800000010180088824001193087900012874524032720230000001578508723000000002618485434769XXXXXX7411               2111111   NYV4 A7W303087015701847N840000000015785NS4K00    01DNKETOFUSION833-923-3587   012620    VD84000000015785 NP1599977360677   EDB19E677BT1168016D6950  000000000+                F DF 10420                     000000000  Y000000000 338   0000000000000.00 0000000.00   0000000.00                             000000000000000                                                                                                                                                     01424 G000000015785 0000000000000.30     00050 02200                  
00012190653750001P16759067590000001516480088880000001010000000000000000                             2000000000000000000000000              000000000000                    0000000000000000000000000                    000000000000                                                                                                                                                                                                                                                                                                                                                                                                                                                                                        
00012200653750057DT67590675900000015164800888800000010180088824001193087900012874532032720230000000519008723000000002618485434769XXXXXX7411               2111111   NYV4 A7W383087015955870N840000000005190BM7400    01DNKETOFUSION833-923-3587   052620    VD84000000005190 NP1599977360677   EDB19E677BTFB8D424A9C7B  000000000+                F DF 10420                     000000000  Y000000000 338   0000000000000.00 0000000.00   0000000.00                             000000000000000                                                                                                                                                     01424 G000000005190 0000000000000.25     00050 02200                  
00012210653750001P16759067590000001516480088880000001010000000000000000                             2000000000000000000000000              000000000000                    0000000000000000000000000                    000000000000                                                                                                                                                                                                                                                                                                                                                                                                                                                                                        
00012220653750058DT67590675900000015164800888800000010180088824001193087900012874540032720230000002487008723000000002618485426290XXXXXX8804               2111111   NYV4 A7W303087016384823N840000000024870FTXC00    01DNKETOFUSION833-923-3587   01566A    VS84000000024870 NP1599977360677   E4C794BD88TB085D96F1F9B  000000000+                A CA 12106                     000000000  N000000000 492   0000000000000.00 0000000.00   0000000.00                             000000000000000                                                                                                                                                     01424 G000000024870 0000000000004.80     01890 01000                  
00012230653750001P16759067590000001516480088880000001010000000000000000                             2000000000000000000000000              000000000000                    0000000000000000000000000                    000000000000                                                                                                                                                                                                                                                                                                                                                                                                                                                                                        
00012240653750059DT67590675900000015164800888800000010180088824001193087900012874573032720230000002487008723000000002618485446542XXXXXX1790               2111111   NYV4 A7W303087018040611N840000000024870WP8W00    01DNKETOFUSION833-923-3587   027351    VS84000000024870 NP1599977360677   E3F98B1EE8T7B109D7E71C5  000000000+                D CD 12109                     000000000  N000000000 498   0000000000000.00 0000000.00   0000000.00                             000000000000000                                                                                                                                                     01424 G000000024870 0000000000006.32     02500 01000                  
00012250653750001P16759067590000001516480088880000001010000000000000000                             2000000000000000000000000              000000000000                    0000000000000000000000000                    000000000000                                                                                                                                                                                                                                                                                                                                                                                                                                                                                        
00012260653750060DT67590675900000015164800888800000010680088887287283087900012874582032720230000000327408723000000002618485521333XXXXXX9801                         NY 4607AMPLYWTA170327  N840000000003274          81CNKETOFUSION833-923-3587   027648    MC84000000003274 N  599977360677   77BAA31ABBT5233A49406A9  000000000+600450S00130    MPL  00564                     000000000  N                0000000000000.00 0000000.00   0000000.00                             000000000000000                                                                                                                                                     01424  000000000000-0000000000000.57     01750 00000                  
00012270653750061DT67590675900000015164800888800000010680088887287283087900012874590032720230000000259508723000000002618485521333XXXXXX9801                         NY 4607AMPLNWRO1X0327  N840000000002595          81CNKETOFUSION833-923-3587   027572    MC84000000002595 N  599977360677   77BAA31ABBT7F19AD54C2E7  000000000+600450S00130    MPL  00564                     000000000  N                0000000000000.00 0000000.00   0000000.00                             000000000000000                                                                                                                                                     01424  000000000000-0000000000000.45     01750 00000                  
00012280653750062DT67590675900000015164800888800000010680088874001193087900012874602032720230000000654808723000000002618485414709XXXXXX5971               0000000   NYV4 07T303087020427067N840000000006548Q8WF85    01CNKETOFUSION833-923-3587   038641    VS84000000006548 NP1599977360677   F63463DC99TA332933112A4  000000000+                D CD 00245                     000000000  N000000000 166   0000000000000.00 0000000.00   0000000.00                             000000000000000                                                                                                                                                     01424  000000006548-0000000000001.15     01760 00000                  
00012290653750001P16759067590000001516480088880000001060000000000000000                             2000000000000000000000000              000000000000                    0000000000000000000000000                    000000000000                                                                                                                                                                                                                                                                                                                                                                                                                                                                                        
00012300653750063DT67590675900000015164800888800000010680088874001193087900012874610032720230000000519008723000000002618485414709XXXXXX5971               0000000   NYV4 07T583087020527615N840000000005190T4FW85    01CNKETOFUSION833-923-3587   048432    VS84000000005190 NP1599977360677   F63463DC99TA493D3EA7D65  000000000+                D CD 00245                     000000000  N000000000 166   0000000000000.00 0000000.00   0000000.00                             000000000000000                                                                                                                                                     01424  000000005190-0000000000000.91     01760 00000                  
00012310653750001P16759067590000001516480088880000001060000000000000000                             2000000000000000000000000              000000000000                    0000000000000000000000000                    000000000000                                                                                                                                                                                                                                                                                                                                                                                                                                                                                        
00012320653750064DT67590675900000015164800888800000010180088887287283087900012874632032720230000001194808723000000002618485546325XXXXXX0883       ME03KE06MS02      NY 4607AMWE79S4110327  N840000000011948          81DNKETOFUSION833-923-3587   00723P    MC84000000011948 N  599977360677   76DDB00608T04A99C922B09  000000000+600450S00130    MWE  00737                     000000000  N                0000000000000.00 0000000.00   0000000.00                             000000000000000                                                                                                                                                   U001424  000000000000 0000000000003.21     02600 01000                  
00012330653750065DT67590675900000015164800888800000010680088874001193087900012874685032720230000000993508723000000002618485406632XXXXXX3135               0000000   NYV4 07T583087035357214N840000000009935LNPF00    01CNKETOFUSION833-923-3587   095622    VD84000000009935 NP1599977360677   FEA0366702TA7F3395D3346  000000000+                F DF 08168                     000000000  N000000000 369   0000000000000.00 0000000.00   0000000.00                             000000000000000                                                                                                                                                     01424  000000009935 0000000000000.00     00000 00000                  
00012340653750001P16759067590000001516480088880000001060000000000000000                             2000000000000000000000000              000000000000                    0000000000000000000000000                    000000000000                                                                                                                                                                                                                                                                                                                                                                                                                                                                                        
00012350653750066DT67590675900000015164800888800000010680088887287283087900012874715032720230000000993508723000000002618485549033XXXXXX3385                         NY 4607AMPLOF4I1X0327  N840000000009935          81CNKETOFUSION833-923-3587   036898    MC84000000009935 N  599977360677   4E46AD2D85TC515739E3F93  000000000+600450S00130    MPL  00564                     000000000  N                0000000000000.00 0000000.00   0000000.00                             000000000000000                                                                                                                                                     01424  000000000000-0000000000001.74     01750 00000                  
00012360653750067DT67590675900000015164800888800000010180088824001193087900012874748032720230000001499008723000000002618485414720XXXXXX7620               2111111   NYV4 A7W583087048040377N8400000000149906WVL00    01DNKETOFUSION833-923-3587   00138D    VS84000000014990 NP1599977360677   F4CF12F131TEAEB02C3C89C  000000000+                D CD 12109                     000000000  N000000000 498   0000000000000.00 0000000.00   0000000.00                             000000000000000                                                                                                                                                     01424 G000000014990 0000000000003.85     02500 01000                  
00012370653750001P16759067590000001516480088880000001010000000000000000                             2000000000000000000000000              000000000000                    0000000000000000000000000                    000000000000                                                                                                                                                                                                                                                                                                                                                                                                                                                                                        
00012380653750068DT67590675900000015164800888800000010180088887287283087900012874756032720230000002487008723000000002618485517800XXXXXX1348       ME03KE06MS02      NY 4607AMCSOMY21X0327  N840000000024870          81DNKETOFUSION833-923-3587   027996    MC84000000024870 N  599977360677   1669379D90TE217923D0C8D  000000000+600450S00130    MCS  00013                     000000000  N                0000000000000.00 0000000.00   0000000.00                             000000000000000                                                                                                                                                   U001424  000000000000 0000000000004.95     01950 01000                  
00012390653750069DT67590675900000015164800888800000010180088887287283087900012874764032720230000000654808723000000002618485517800XXXXXX1348       ME03KE06MS02      NY 4607AMCSVMX51X0327  N840000000006548          81DNKETOFUSION833-923-3587   027901    MC84000000006548 N  599977360677   1669379D90TD651537AA4F7  000000000+600450S00130    MCS  00013                     000000000  N                0000000000000.00 0000000.00   0000000.00                             000000000000000                                                                                                                                                   U001424  000000000000 0000000000001.38     01950 01000                  
00012400653750070DT67590675900000015164800888800000010180088887287283087900012874798032720230000002487008723000000002618485542418XXXXXX4459       ME03KE06MS02      NY 4607AMWEZOFA170327  N840000000024870          81DNKETOFUSION833-923-3587   28244P    MC84000000024870 N  599977360677   C443E89AAFT49B1637F31FB  000000000+600450S00130    MWE  00737                     000000000  N                0000000000000.00 0000000.00   0000000.00                             000000000000000                                                                                                                                                   U001424  000000000000 0000000000006.57     02600 01000                  
00012410653750071DT67590675900000015164800888800000010180088887287283087900012874806032720230000000519008723000000002618485542418XXXXXX4459       ME03KE06MS02      NY 4607AMWEVOML1X0327  N840000000005190          81DNKETOFUSION833-923-3587   94061P    MC84000000005190 N  599977360677   C443E89AAFT5ED16049978D  000000000+600450S00130    MWE  00737                     000000000  N                0000000000000.00 0000000.00   0000000.00                             000000000000000                                                                                                                                                   U001424  000000000000 0000000000001.45     02600 01000                  
00012420653750072DT67590675900000015164800888800000010180088887287283087900012874822032720230000001987008723000000002618485521853XXXXXX3105       ME03KE06PT01      NY 4607AMCWMR45120327  N840000000019870          81DNKETOFUSION833-923-3587   02742T    MC84000000019870 N  599977360677   F29FA38C4CTE11715EBA1C4  000000000+600450S00130    MCW  02182                     000000000  N                0000000000000.00 0000000.00   0000000.00                             000000000000000                                                                                                                                                   U001424  000000000000 0000000000005.27     02600 01000                  
00012430653750073DT67590675900000015164800888800000010180088887287283087900012874830032720230000000654808723000000002618485521853XXXXXX3105       ME03KE06PT01      NY 4607AMCWOQR51X0327  N840000000006548          81DNKETOFUSION833-923-3587   02742T    MC84000000006548 N  599977360677   F29FA38C4CT1A71FA72D107  000000000+600450S00130    MCW  02182                     000000000  N                0000000000000.00 0000000.00   0000000.00                             000000000000000                                                                                                                                                   U001424  000000000000 0000000000001.80     02600 01000                  
00012440653750074DT67590675900000015164800888800000010180088887287283087900012874848032720230000000198808723000000002618485521853XXXXXX3105       ME03KE06PT01      NY 4607AMCWMSD2120327  N840000000001988          81DNKETOFUSION833-923-3587   02757T    MC84000000001988 N  599977360677   F29FA38C4CTC7642F9E9BC0  000000000+600450S00130    MCW  02182                     000000000  N                0000000000000.00 0000000.00   0000000.00                             000000000000000                                                                                                                                                   U001424  000000000000 0000000000000.62     02600 01000                  
00012450653750075DT67590675900000015164800888800000010180088887287283087900012874863032720230000001987008723000000002618485533364XXXXXX0133       ME03KE06MS02      NY 4607AMDJFTYV120327  N840000000019870          81DNKETOFUSION833-923-3587   073877    MD84000000019870 N  599977360677   7655ED9C13TA32587C7DCB2  000000000+600450S00130    MDJ  00401                     000000000  N                0000000000000.00 0000000.00   0000000.00                             000000000000000                                                                                                                                                   U001424  000000000000 0000000000003.43     01650 01500                  
00012460653750076DT67590675900000015164800888800000010180088887287283087900012874871032720230000000654808723000000002618485533364XXXXXX0133       ME03KE06MS02      NY 4607AMDJMTWK120327  N840000000006548          81DNKETOFUSION833-923-3587   073910    MD84000000006548 N  599977360677   7655ED9C13TC372D1ED06AB  000000000+600450S00130    MDJ  00401                     000000000  N                0000000000000.00 0000000.00   0000000.00                             000000000000000                                                                                                                                                   U001424  000000000000 0000000000001.23     01650 01500                  
00012470653750077DT67590675900000015164800888800000010180088887287283087900012874889032720230000000519008723000000002618485533364XXXXXX0133       ME03KE06MS02      NY 4607AMDJMT3Q120327  N840000000005190          81DNKETOFUSION833-923-3587   073936    MD84000000005190 N  599977360677   7655ED9C13T9E825AD11FA6  000000000+600450S00130    MDJ  00401                     000000000  N                0000000000000.00 0000000.00   0000000.00                             000000000000000                                                                                                                                                   U001424  000000000000 0000000000001.01     01650 01500                  
00012480653750078DT67590675900000015164800888800000010180088824001193087900012874904032720230000002487008723000000002618485414720XXXXXX3249               2111111   NYV4 A7W463087057048609N8400000000248705D5300    01DNKETOFUSION833-923-3587   05132C    VS84000000024870 NP1599977360677   39970EBC59T260D02EDEBE7  000000000+                C CC 12108                     000000000  N000000000 496   0000000000000.00 0000000.00   0000000.00                             000000000000000                                                                                                                                                     01424 G000000024870 0000000000005.20     02050 01000                  
00012490653750001P16759067590000001516480088880000001010000000000000000                             2000000000000000000000000              000000000000                    0000000000000000000000000                    000000000000                                                                                                                                                                                                                                                                                                                                                                                                                                                                                        
00012500653750079DT67590675900000015164800888800000010180088887287283087900012874913032720230000002487008723000000002618485524038XXXXXX6511       ME03KE06PT01      NY 4607AMCWVVYJ1X0327  N840000000024870          81DNKETOFUSION833-923-3587   00130T    MC84000000024870 N  599977360677   EEEE76CF7FT6AACA55D725D  000000000+600450S00130    MCW  02182                     000000000  N                0000000000000.00 0000000.00   0000000.00                             000000000000000                                                                                                                                                   U001424  000000000000 0000000000006.57     02600 01000                  
00012510653750080DT67590675900000015164800888800000010180088824001193087900012874953032720230000002487008723000000002618485430572XXXXXX7700               2111111   NYV4 A7W583087064035171N840000000024870Q7JD00    01DNKETOFUSION833-923-3587   09312C    VS84000000024870 NP1599977360677   D548580A85T54ECB37A0362  000000000+                C CC 12108                     000000000  N000000000 496   0000000000000.00 0000000.00   0000000.00                             000000000000000                                                                                                                                                     01424 G000000024870 0000000000005.20     02050 01000                  
00012520653750001P16759067590000001516480088880000001010000000000000000                             2000000000000000000000000              000000000000                    0000000000000000000000000                    000000000000                                                                                                                                                                                                                                                                                                                                                                                                                                                                                        
00012530653750081DT67590675900000015164800888800000010180088824001193087900012874961032720230000000654808723000000002618485430572XXXXXX7700               2111111   NYV4 A7W303087064631632N840000000006548TDM200    01DNKETOFUSION833-923-3587   02317C    VS84000000006548 NP1599977360677   D548580A85TC24630BE50AD  000000000+                C CC 12108                     000000000  N000000000 496   0000000000000.00 0000000.00   0000000.00                             000000000000000                                                                                                                                                     01424 G000000006548 0000000000001.44     02050 01000                  
00012540653750001P16759067590000001516480088880000001010000000000000000                             2000000000000000000000000              000000000000                    0000000000000000000000000                    000000000000                                                                                                                                                                                                                                                                                                                                                                                                                                                                                        
00012550653750082DT67590675900000015164800888800000010180088824001193087900012874979032720230000000519008723000000002618485430572XXXXXX7700               2111111   NYV4 A7W583087064912650N840000000005190TJ9L00    01DNKETOFUSION833-923-3587   04351C    VS84000000005190 NP1599977360677   D548580A85TE4BCB069B225  000000000+                C CC 12108                     000000000  N000000000 496   0000000000000.00 0000000.00   0000000.00                             000000000000000                                                                                                                                                     01424 G000000005190 0000000000001.16     02050 01000                  
00012560653750001P16759067590000001516480088880000001010000000000000000                             2000000000000000000000000              000000000000                    0000000000000000000000000                    000000000000                                                                                                                                                                                                                                                                                                                                                                                                                                                                                        
00012570653750083DT67590675900000015164800888800000010180088824001193087900012874987032720230000000198808723000000002618485430572XXXXXX7700               2111111   NYV4 A7W383087065196500N8400000000019886XMM00    01DNKETOFUSION833-923-3587   05191C    VS84000000001988 NP1599977360677   D548580A85T2ABC31F01E76  000000000+                C CC 12108                     000000000  N000000000 496   0000000000000.00 0000000.00   0000000.00                             000000000000000                                                                                                                                                     01424 G000000001988 0000000000000.51     02050 01000                  
00012580653750001P16759067590000001516480088880000001010000000000000000                             2000000000000000000000000              000000000000                    0000000000000000000000000                    000000000000                                                                                                                                                                                                                                                                                                                                                                                                                                                                                        
00012590653750084DT67590675900000015164800888800000010180088824001193087900012875000032720230000001987008723000000002618485414740XXXXXX7262               2111111   NYV4 A7W583087069041043N840000000019870M6Q600    01DNKETOFUSION833-923-3587   05138D    VS84000000019870 NP1599977360677   01375F9CFCTBBC72280FDC4  000000000+                D CD 12109                     000000000  N000000000 498   0000000000000.00 0000000.00   0000000.00                             000000000000000                                                                                                                                                     01424 G000000019870 0000000000005.07     02500 01000                  
00012600653750001P16759067590000001516480088880000001010000000000000000                             2000000000000000000000000              000000000000                    0000000000000000000000000                    000000000000                                                                                                                                                                                                                                                                                                                                                                                                                                                                                        
00012610653750085DT67590675900000015164800888800000010180088824001193087900012875042032720230000001987008723000000002618485403690XXXXXX5536               2111111   NYV4 A7W303087090031016N840000000019870X9K200    01DNKETOFUSION833-923-3587   00124C    VS84000000019870 NP1599977360677   F3A677CCF1TB2B82850EC3F  000000000+                C CC 12108                     000000000  N000000000 496   0000000000000.00 0000000.00   0000000.00                             000000000000000                                                                                                                                                     01424 G000000019870 0000000000004.17     02050 01000                  
00012620653750001P16759067590000001516480088880000001010000000000000000                             2000000000000000000000000              000000000000                    0000000000000000000000000                    000000000000                                                                                                                                                                                                                                                                                                                                                                                                                                                                                        
00012630653750086DT67590675900000015164800888800000010180088887287283087900012875050032720230000001194808723000000002618485521853XXXXXX7674       ME03KE06PT01      NY 4607AMCWGIK9120327  N840000000011948          81DNKETOFUSION833-923-3587   02765T    MC84000000011948 N  599977360677   5E34EE1B2CT3CCB399810AC  000000000+600450S00130    MCW  02182                     000000000  N                0000000000000.00 0000000.00   0000000.00                             000000000000000                                                                                                                                                   U001424  000000000000 0000000000003.21     02600 01000                  
