00013000468490002BH675906759000000176738001068000009017062020231712300000000000730501970000090001712187N8001066759D06212023071                                                                                                                                                                                                                                                                                                                                                                                                                                                                                                                                                                                              
00013010468490003DT67590675900000017673800106800000010680010687287283171900017121879062020230000000730517123000000000007305518941XXXXXX3753                         NN 4607AMWEH3M7R70620  N840000000007305          81CNVGHEMP.COM833-246-5225   5496510197MC84000000007305 NDR549977427364   B52A4D095BTE10207A4AA65  000000000+600450S00130    MWE  00000                     000000000  N                0000000000000.00 0000000.00   0000000.00             000000000007305C000000000000000                                                                                                                                                     01424  000000000000 0000000000000.00     00000 00000                  
00013020468490003DR675906759000000176738001068000000106B52A4D095BTE10207A4AA65  U000000000000                                                                                                                                                                                                                                                                                                                                                                                                                                                                                                                                                                                                                               
00013030468490001G2675906759000000176738001068000000106833-2465225              CA           9 E               210                                      NNNN           210000000000000000000000000                        7                                          77427364                                                                                                                                                                                                                                                                                                                                                                                                                                               
00013040468490004BH6759067590000001619680010280000090170620202317123000000000296825    0000090001714830Y8001026759C06212023071                                                                                                                                                                                                                                                                                                                                                                                                                                                                                                                                                                                              
00013050468490005DT67590675900000016196800102800000010180010224001193171900017143468061920230000001323317123000000000296825469558XXXXXX1740               2111111   NYV4 A7W303167336066228N840000000013233VKZG00    01DNGREEN OTTER LLC          042035    VD84000000013233 NDR549977424386   2467EB9779TF14821C15620  000000000+                F DF 00415                     000000000  N000000000       0000000000000.00 0000000.00   0000000.00                             000000000000000                                                                                                                                                     01424 G000000013233 0000000000002.33     01650 01500                  
00013060468490005DR6759067590000001619680010280000001012467EB9779TF14821C15620  Y000000013233                 P1                                                                                                                                                                                                                                                                                                                                                                                                                                                                                                                                                                                                            
00013070468490001P16759067590000001619680010280000001010000000000000000                             2000000000000000000000000              000000000000                    0000000000000000000000000                    000000000000                                                                                                                                                                                                                                                                                                                                                                                                                                                                                        
00013080468490002G2675906759000000161968001028000000101866-6317293              GA           9 D                00                                      NNNN   N                      000000000000                                                                   77424386                                                                                                                                                                                                                                                                                                                                                                                                                                               
00013090468490006DT67590675900000016196800102800000010180010224001193171900017143476061920230000001604017123000000000296825440066XXXXXX5390               2111111   NYV4 A7W583167351236681N840000000016040Q4DM00    01DNGREEN OTTER LLC          04368D    VS84000000016040 NDR549977424386   75F37A600CT9271581D20B8  000000000+                D CD 12109                     000000000  N000000000 498   0000000000000.00 0000000.00   0000000.00                             000000000000000                                                                                                                                                     01424 G000000016040 0000000000004.11     02500 01000                  
00013100468490006DR67590675900000016196800102800000010175F37A600CT9271581D20B8  Y000000016040                 P1                                                                                                                                                                                                                                                                                                                                                                                                                                                                                                                                                                                                            
00013110468490001P16759067590000001619680010280000001010000000000000000                             2000000000000000000000000              000000000000                    0000000000000000000000000                    000000000000                                                                                                                                                                                                                                                                                                                                                                                                                                                                                        
00013120468490002G2675906759000000161968001028000000101866-6317293              GA           9 C                00                                      NNNN   Y                      000000000000                                                                   77424386                                                                                                                                                                                                                                                                                                                                                                                                                                               
00013130468490007DT67590675900000016196800102800000010180010287287283171900017143519061920230000001907017123000000000296825514377XXXXXX7420       ME03KE06MS02      NY 4607AMDJF1WQ110616  N840000000019070          81DNGREEN OTTER LLC          1U5Z0A    MD84000000019070 NDR549977424386   77D128B786T42A81AA410E1  000000000+600450S00130    MDJ  00401                     000000000  N                0000000000000.00 0000000.00   0000000.00                             000000000000000                                                                                                                                                   U001424  000000000000 0000000000003.30     01650 01500                  
00013140468490007DR67590675900000016196800102800000010177D128B786T42A81AA410E1  N000000000000                                                                                                                                                                                                                                                                                                                                                                                                                                                                                                                                                                                                                               
00013150468490001G2675906759000000161968001028000000101866-6317293              GA           9 J               210                                      NNNN           210000000000000000000000000                        7                                          77424386                                                                                                                                                                                                                                                                                                                                                                                                                                               
00013160468490008DT67590675900000016196800102800000010180010287287283171900017144046061920230000002126117123000000000296825521333XXXXXX9310       ME03KE06MS02      NY 4607AMWEV3K9N90616  N840000000021261          81DNGREEN OTTER LLC          01668P    MC84000000021261 NDR549977424386   F25BBF0648TF2E2F48804B8  000000000+600450S00130    MWE  00737                     000000000  N                0000000000000.00 0000000.00   0000000.00                             000000000000000                                                                                                                                                   U001424  000000000000 0000000000005.63     02600 01000                  
00013170468490008DR675906759000000161968001028000000101F25BBF0648TF2E2F48804B8  Y000000000000                                                                                                                                                                                                                                                                                                                                                                                                                                                                                                                                                                                                                               
00013180468490001G2675906759000000161968001028000000101866-6317293              GA           9 E               210                                      NNNN           210000000000000000000000000                        7                                          77424386                                                                                                                                                                                                                                                                                                                                                                                                                                               
00013190468490009DT67590675900000016196800102800000010180010224001193171900017144078061920230000001911517123000000000296825411770XXXXXX8548               2111111   NYV4 A7W383167685750628N840000000019115TFZW00    01DNGREEN OTTER LLC          120222    VD84000000019115 NDR549977424386   DE58B49A76T1827CF0C5A5A  000000000+                F DF 10420                     000000000  Y000000000 338   0000000000000.00 0000000.00   0000000.00                             000000000000000                                                                                                                                                     01424 G000000019115 0000000000000.32     00050 02200                  
00013200468490009DR675906759000000161968001028000000101DE58B49A76T1827CF0C5A5A  Y000000019115                 P1                                                                                                                                                                                                                                                                                                                                                                                                                                                                                                                                                                                                            
00013210468490001P16759067590000001619680010280000001010000000000000000                             2000000000000000000000000              000000000000                    0000000000000000000000000                    000000000000                                                                                                                                                                                                                                                                                                                                                                                                                                                                                        
00013220468490002G2675906759000000161968001028000000101866-6317293              GA           9 D                00                                      NNNN   N                      000000000000                                                                   77424386                                                                                                                                                                                                                                                                                                                                                                                                                                               
00013230468490010DT67590675900000016196800102800000010180010224001193171900017144268061920230000001799117123000000000296825486931XXXXXX2564               2111111   NYV4 A7W463168081051118N840000000017991HNR300    01DNGREEN OTTER LLC          916584    VD84000000017991 NDR549977424386   FFF42461FCT95FF1B63298B  000000000+                F DF 00415                     000000000  N000000000       0000000000000.00 0000000.00   0000000.00                             000000000000000                                                                                                                                                     01424 G000000017991 0000000000003.12     01650 01500                  
00013240468490010DR675906759000000161968001028000000101FFF42461FCT95FF1B63298B  R000000017991                 P1                                                                                                                                                                                                                                                                                                                                                                                                                                                                                                                                                                                                            
00013250468490001P16759067590000001619680010280000001010000000000000000                             2000000000000000000000000              000000000000                    0000000000000000000000000                    000000000000                                                                                                                                                                                                                                                                                                                                                                                                                                                                                        
00013260468490002G2675906759000000161968001028000000101866-6317293              GA           9 D                00                                      NNNN   N                      000000000000                                                                   77424386                                                                                                                                                                                                                                                                                                                                                                                                                                               
00013270468490011DT67590675900000016196800102800000010180010224001193171900017144276061920230000002146017123000000000296825448232XXXXXX3234               2111111   NYV4 A7W583168111589974N840000000021460DKFL00    01DNGREEN OTTER LLC          030549    VD84000000021460 NDR549977424386   7A434D23FDTF9B16DF0DA34  000000000+                F DF 00415                     000000000  N000000000       0000000000000.00 0000000.00   0000000.00                             000000000000000                                                                                                                                                     01424 G000000021460 0000000000003.69     01650 01500                  
00013280468490011DR6759067590000001619680010280000001017A434D23FDTF9B16DF0DA34  Y000000021460                 P1                                                                                                                                                                                                                                                                                                                                                                                                                                                                                                                                                                                                            
00013290468490001P16759067590000001619680010280000001010000000000000000                             2000000000000000000000000              000000000000                    0000000000000000000000000                    000000000000                                                                                                                                                                                                                                                                                                                                                                                                                                                                                        
00013300468490002G2675906759000000161968001028000000101866-6317293              GA           9 D                00                                      NNNN   N                      000000000000                                                                   77424386                                                                                                                                                                                                                                                                                                                                                                                                                                               
00013310468490012DT67590675900000016196800102800000010180010224001193171900017147725061920230000002106217123000000000296825408185XXXXXX4280               2111111   NYV4 A7W463171044490486N840000000021062ND8L00    01DNGREEN OTTER LLC          709742    VD84000000021062 NDR549977424386   1A751A5ADDTD5B1852A9D1F  000000000+                F DF 00415                     000000000  N000000000       0000000000000.00 0000000.00   0000000.00                             000000000000000                                                                                                                                                     01424 G000000021062 0000000000003.63     01650 01500                  
00013320468490012DR6759067590000001619680010280000001011A751A5ADDTD5B1852A9D1F  Y000000021062                 P1                                                                                                                                                                                                                                                                                                                                                                                                                                                                                                                                                                                                            
00013330468490001P16759067590000001619680010280000001010000000000000000                             2000000000000000000000000              000000000000                    0000000000000000000000000                    000000000000                                                                                                                                                                                                                                                                                                                                                                                                                                                                                        
00013340468490002G2675906759000000161968001028000000101866-6317293              GA           9 D                00                                      NNNN   N                      000000000000                                                                   77424386                                                                                                                                                                                                                                                                                                                                                                                                                                               
00013350468490013DT67590675900000016196800102800000010180010224001193171900017147782061920230000000149517123000000000296825414778XXXXXX1092               2111111   NYV4 A7W463171076332998N840000000001495G8CX00    01DNGREEN OTTER LLC          129170    VS84000000001495 NDR549977424386   937C0C5BF7T8E79D87E6280  000000000+                D CD 12109                     000000000  N000000000 498   0000000000000.00 0000000.00   0000000.00                             000000000000000                                                                                                                                                     01424 G000000001495 0000000000000.47     02500 01000                  
00013360468490013DR675906759000000161968001028000000101937C0C5BF7T8E79D87E6280  Y000000001495                 P1                                                                                                                                                                                                                                                                                                                                                                                                                                                                                                                                                                                                            
00013370468490001P16759067590000001619680010280000001010000000000000000                             2000000000000000000000000              000000000000                    0000000000000000000000000                    000000000000                                                                                                                                                                                                                                                                                                                                                                                                                                                                                        
00013380468490002G2675906759000000161968001028000000101866-6317293              GA           9 C                00                                      NNNN   Y                      000000000000                                                                   77424386                                                                                                                                                                                                                                                                                                                                                                                                                                               
00013390468490014DT67590675900000016196800102800000010180010224001193171900017147816061920230000001400817123000000000296825444796XXXXXX8395               2111111   NYV4 A7W463171082005174N840000000014008PC8J00    01DNGREEN OTTER LLC          019410    VS84000000014008 NDR549977424386   9C0FCB476CT1F37DCF6D1CC  000000000+                A CA 12106                     000000000  N000000000 492   0000000000000.00 0000000.00   0000000.00                             000000000000000                                                                                                                                                     01424 G000000014008 0000000000002.75     01890 01000                  
00013400468490014DR6759067590000001619680010280000001019C0FCB476CT1F37DCF6D1CC  Y000000014008                 P1                                                                                                                                                                                                                                                                                                                                                                                                                                                                                                                                                                                                            
00013410468490001P16759067590000001619680010280000001010000000000000000                             2000000000000000000000000              000000000000                    0000000000000000000000000                    000000000000                                                                                                                                                                                                                                                                                                                                                                                                                                                                                        
00013420468490002G2675906759000000161968001028000000101866-6317293              GA           9 C                00                                      NNNN   N                      000000000000                                                                   77424386                                                                                                                                                                                                                                                                                                                                                                                                                                               
00013430468490015DT67590675900000016196800102800000010180010287287283171900017147825061920230000002106217123000000000296825541413XXXXXX7293       ME03KE06PT01      NY 4607AMCWNJ5O220619  N840000000021062          81DNGREEN OTTER LLC          00155S    MC84000000021062 NDR549977424386   464B1A95C4T94727A1EB889  000000000+600450S00130    MCW  02182                     000000000  N                0000000000000.00 0000000.00   0000000.00                             000000000000000                                                                                                                                                   U001424  000000000000 0000000000005.58     02600 01000                  
00013440468490015DR675906759000000161968001028000000101464B1A95C4T94727A1EB889  Z000000000000                                                                                                                                                                                                                                                                                                                                                                                                                                                                                                                                                                                                                               
00013450468490001G2675906759000000161968001028000000101866-6317293              GA           9 W               210                                      NNNN           210000000000000000000000000                        7                                          77424386                                                                                                                                                                                                                                                                                                                                                                                                                                               
00013460468490016DT67590675900000016196800102800000010680010287287283171900017147916062020230000001063017123000000000296825517805XXXXXX1860                         NY 4607AMPLITHMNV0620  N840000000010630          81CNGREEN OTTER LLC          035914    MC84000000010630 NDR549977424386   0B66B59281T40407B5D86A1  000000000+600450S00130    MPL  00565                     000000000  N                0000000000000.00 0000000.00   0000000.00                             000000000000000                                                                                                                                                     01424  000000000000-0000000000001.86     01750 00000                  
00013470468490016DR6759067590000001619680010280000001060B66B59281T40407B5D86A1  Z000000000000                                                                                                                                                                                                                                                                                                                                                                                                                                                                                                                                                                                                                               
00013480468490001G2675906759000000161968001028000000106866-6317293              GA           9 L               210                                      NNNN           210000000000000000000000000                        7                                          77424386                                                                                                                                                                                                                                                                                                                                                                                                                                               
00013490468490017DT67590675900000016196800102800000010680010287287283171900017147932062020230000002121117123000000000296825512107XXXXXX4078                         NY 4607AMCCMERONT0620  N840000000021211          81CNGREEN OTTER LLC          020338    MC84000000021211 NDR549977424386   160130EC7CTA5AB770F1422  000000000+600450S00130    MCC  00565                     000000000  N                0000000000000.00 0000000.00   0000000.00                             000000000000000                                                                                                                                                     01424  000000000000-0000000000003.71     01750 00000                  
00013500468490017DR675906759000000161968001028000000106160130EC7CTA5AB770F1422  R000000000000                                                                                                                                                                                                                                                                                                                                                                                                                                                                                                                                                                                                                               
00013510468490001G2675906759000000161968001028000000106866-6317293              GA           9 C               210                                      NNNN           210000000000000000000000000                        7                                          77424386                                                                                                                                                                                                                                                                                                                                                                                                                                               
00013520468490018DT67590675900000016196800102800000010180010287287283171900017147957062020230000000339117123000000000296825543229XXXXXX6348       ME03KE06MS02      NY 4607AMDSHKP2CO0620  N840000000003391          81DNGREEN OTTER LLC          248924    MD84000000003391 NDR549977424386   8D29A317D8T275676BBE3E9  000000000+600450S00130    MDS  00401                     000000000  N                0000000000000.00 0000000.00   0000000.00                             000000000000000                                                                                                                                                   U001424  000000000000 0000000000000.71     01650 01500                  
00013530468490018DR6759067590000001619680010280000001018D29A317D8T275676BBE3E9  Y000000000000                                                                                                                                                                                                                                                                                                                                                                                                                                                                                                                                                                                                                               
00013540468490001G2675906759000000161968001028000000101866-6317293              GA           9 S               210                                      NNNN           210000000000000000000000000                        7                                          77424386                                                                                                                                                                                                                                                                                                                                                                                                                                               
00013550468490019DT67590675900000016196800102800000010680010274001193171900017147969062020230000002106217123000000000296825473703XXXXXX0392               0000000   NYV4 07T303171522324749N840000000021062RLTP00    01CNGREEN OTTER LLC          078883    VD84000000021062 NDR549977424386   442DD63B7AT713FB39EF729  000000000+                F DF 08168                     000000000  Y000000000 369   0000000000000.00 0000000.00   0000000.00                             000000000000000                                                                                                                                                     01424  000000021062 0000000000000.00     00000 00000                  
00013560468490019DR675906759000000161968001028000000106442DD63B7AT713FB39EF729  Y000000021062                 P1                                                                                                                                                                                                                                                                                                                                                                                                                                                                                                                                                                                                            
00013570468490001P16759067590000001619680010280000001060000000000000000                             2000000000000000000000000              000000000000                    0000000000000000000000000                    000000000000                                                                                                                                                                                                                                                                                                                                                                                                                                                                                        
00013580468490002G2675906759000000161968001028000000106866-6317293              GA           9 D                00                                      NNNN   N                      000000000000                                                                   77424386                                                                                                                                                                                                                                                                                                                                                                                                                                               
00013590468490020DT67590675900000016196800102800000010180010287287283171900017148005062020230000002121117123000000000296825531257XXXXXX2596       ME03KE06MS02      NY 4607AMDJNDEJNT0620  N840000000021211          81DNGREEN OTTER LLC          114782    MD84000000021211 NDR549977424386   56E702BAADT5876038AC102  000000000+600450S00130    MDJ  10813                     000000000  1                0000000000000.00 0000000.00   0000000.00                             000000000000000                                                                                                                                                   U001424  000000000000 0000000000000.33     00050 02200                  
00013600468490020DR67590675900000016196800102800000010156E702BAADT5876038AC102  Y000000000000                                                                                                                                                                                                                                                                                                                                                                                                                                                                                                                                                                                                                               
00013610468490001G2675906759000000161968001028000000101866-6317293              GA           9 J               210                                      NNNN           210000000000000000000000000                        7                                          77424386                                                                                                                                                                                                                                                                                                                                                                                                                                               
00013620468490021DT67590675900000016196800102800000010180010224001193171900017148061062020230000001987017123000000000296825440393XXXXXX7109               2111111   NYV4 A7W583171548170477N8400000000198708V4M00    01DNGREEN OTTER LLC          958197    VD84000000019870 NDR549977424386   F468DF8767TA8873965B81C  000000000+                F PF 08175                     000000000  N000000000       0000000000000.00 0000000.00   0000000.00                             000000000000000                                                                                                                                                     01424 G000000019870 0000000000003.68     01750 02000                  
00013630468490021DR675906759000000161968001028000000101F468DF8767TA8873965B81C  Y000000019870                 P1                                                                                                                                                                                                                                                                                                                                                                                                                                                                                                                                                                                                            
00013640468490001P16759067590000001619680010280000001010000000000000000                             2000000000000000000000000              000000000000                    0000000000000000000000000                    000000000000                                                                                                                                                                                                                                                                                                                                                                                                                                                                                        
00013650468490002G2675906759000000161968001028000000101866-6317293              GA           9 P                00                                      NNNN   N                      000000000000                                                                   77424386                                                                                                                                                                                                                                                                                                                                                                                                                                               
00013660468490022DT67590675900000016196800102800000010180010287287283171900017148088062020230000001596517123000000000296825552499XXXXXX7678       ME03KE06MS02      NY 4607AMWEI14NCO0620  N840000000015965          81DNGREEN OTTER LLC          02037P    MC84000000015965 NDR549977424386   B3D2731783TAB8FA8864200  000000000+600450S00130    MWE  00737                     000000000  N                0000000000000.00 0000000.00   0000000.00                             000000000000000                                                                                                                                                   U001424  000000000000 0000000000004.25     02600 01000                  
00013670468490022DR675906759000000161968001028000000101B3D2731783TAB8FA8864200  Y000000000000                                                                                                                                                                                                                                                                                                                                                                                                                                                                                                                                                                                                                               
00013680468490001G2675906759000000161968001028000000101866-6317293              GA           9 E               210                                      NNNN           210000000000000000000000000                        7                                          77424386                                                                                                                                                                                                                                                                                                                                                                                                                                               
00013690468490023DT67590675900000016196800102800000010180010287287283171900017148112062020230000001281917123000000000296825542418XXXXXX6296       ME03KE06MS02      NY 4607AMWEJUOOCO0620  N840000000012819          81DNGREEN OTTER LLC          55317P    MC84000000012819 NDR549977424386   CCBDA6BFECT622DFFA2ACFC  000000000+600450S00130    MWE  00737                     000000000  N                0000000000000.00 0000000.00   0000000.00                             000000000000000                                                                                                                                                   U001424  000000000000 0000000000003.43     02600 01000                  
00013700468490023DR675906759000000161968001028000000101CCBDA6BFECT622DFFA2ACFC  Y000000000000                                                                                                                                                                                                                                                                                                                                                                                                                                                                                                                                                                                                                               
00013710468490001G2675906759000000161968001028000000101866-6317293              GA           9 E               210                                      NNNN           210000000000000000000000000                        7                                          77424386                                                                                                                                                                                                                                                                                                                                                                                                                                               
00013720468490024DT67590675900000016196800102800000010180010224001193171900017148129062020230000002184717123000000000296825473508XXXXXX5235               2111111   NYV4 A7W583171587252450N840000000021847P65G00    01DNGREEN OTTER LLC          067846    VD84000000021847 NDR549977424386   D7612BA83ATBC8B7A9FBED4  000000000+                F DF 00415                     000000000  N000000000       0000000000000.00 0000000.00   0000000.00                             000000000000000                                                                                                                                                     01424 G000000021847 0000000000003.75     01650 01500                  
00013730468490024DR675906759000000161968001028000000101D7612BA83ATBC8B7A9FBED4  Y000000021847                 P1                                                                                                                                                                                                                                                                                                                                                                                                                                                                                                                                                                                                            
00013740468490001P16759067590000001619680010280000001010000000000000000                             2000000000000000000000000              000000000000                    0000000000000000000000000                    000000000000                                                                                                                                                                                                                                                                                                                                                                                                                                                                                        
00013750468490002G2675906759000000161968001028000000101866-6317293              GA           9 D                00                                      NNNN   N                      000000000000                                                                   77424386                                                                                                                                                                                                                                                                                                                                                                                                                                               
00013760468490025DT67590675900000016196800102800000010180010287287283171900017148153062020230000002078517123000000000296825544047XXXXXX3325       ME03KE06MS02      NY 4607AMDJAIN7GR0620  N840000000020785          81DNGREEN OTTER LLC          136954    MD84000000020785 NDR549977424386   F76B9F075FTC04E0B542950  000000000+600450S00130    MDJ  00401                     000000000  N                0000000000000.00 0000000.00   0000000.00                             000000000000000                                                                                                                                                   U001424  000000000000 0000000000003.58     01650 01500                  
00013770468490025DR675906759000000161968001028000000101F76B9F075FTC04E0B542950  Y000000000000                                                                                                                                                                                                                                                                                                                                                                                                                                                                                                                                                                                                                               
00013780468490001G2675906759000000161968001028000000101866-6317293              GA           9 J               210                                      NNNN           210000000000000000000000000                        7                                          77424386                                                                                                                                                                                                                                                                                                                                                                                                                                               
00013790468490026DT67590675900000016196800102800000010180010287287283171900017148187062020230000002661117123000000000296825518941XXXXXX3153       ME03KE06MS02      NY 4607AMWEK628GQ0620  N840000000026611          81DNGREEN OTTER LLC          17117Z    MC84000000026611 NDR549977424386   5F22389E7BTA17C720EE3FD  000000000+600450S00130    MWE  00737                     000000000  N                0000000000000.00 0000000.00   0000000.00                             000000000000000                                                                                                                                                   U001424  000000000000 0000000000007.02     02600 01000                  
00013800468490026DR6759067590000001619680010280000001015F22389E7BTA17C720EE3FD  Y000000000000                                                                                                                                                                                                                                                                                                                                                                                                                                                                                                                                                                                                                               
00013810468490001G2675906759000000161968001028000000101866-6317293              GA           9 E               210                                      NNNN           210000000000000000000000000                        7                                          77424386                                                                                                                                                                                                                                                                                                                                                                                                                                               
00013820468490027DT67590675900000016196800102800000010180010224001193171900017148210062020230000001907017123000000000296825407154XXXXXX7598               2111111   NYV4 A7W383171644405167N840000000019070KRLN00    01DNGREEN OTTER LLC          020754    VS84000000019070 NDR549977424386   91FA2B3773T07A73F2077E8  000000000+                A CA 12106                     000000000  N000000000 492   0000000000000.00 0000000.00   0000000.00                             000000000000000                                                                                                                                                     01424 G000000019070 0000000000003.70     01890 01000                  
00013830468490027DR67590675900000016196800102800000010191FA2B3773T07A73F2077E8  Y000000019070                 P1                                                                                                                                                                                                                                                                                                                                                                                                                                                                                                                                                                                                            
00013840468490001P16759067590000001619680010280000001010000000000000000                             2000000000000000000000000              000000000000                    0000000000000000000000000                    000000000000                                                                                                                                                                                                                                                                                                                                                                                                                                                                                        
00013850468490002G2675906759000000161968001028000000101866-6317293              GA           9 C                00                                      NNNN   N                      000000000000                                                                   77424386                                                                                                                                                                                                                                                                                                                                                                                                                                               
00013860468490028DT67590675900000016196800102800000010680010287287283171900017148237062020230000002138017123000000000296825517805XXXXXX1643                         NY 4607AMPLWI1UGQ0620  N840000000021380          81CNGREEN OTTER LLC          006710    MC84000000021380 NDR549977424386   08EC048FFDT8A31FF96E3FC  000000000+600450S00130    MPL  00565                     000000000  N                0000000000000.00 0000000.00   0000000.00                             000000000000000                                                                                                                                                     01424  000000000000-0000000000003.74     01750 00000                  
00013870468490028DR67590675900000016196800102800000010608EC048FFDT8A31FF96E3FC  Y000000000000                                                                                                                                                                                                                                                                                                                                                                                                                                                                                                                                                                                                                               
00013880468490001G2675906759000000161968001028000000106866-6317293              GA           9 L               210                                      NNNN           210000000000000000000000000                        7                                          77424386                                                                                                                                                                                                                                                                                                                                                                                                                                               
00013890468490029DT67590675900000016196800102800000010180010224001193171900017148269062020230000002106217123000000000296825440393XXXXXX5916               2111111   NYV4 A7W463171693899759N840000000021062F7M800    01DNGREEN OTTER LLC          663737    VD84000000021062 NDR549977424386   BDC7652381TF09CD415CB8F  000000000+                F PF 08175                     000000000  N000000000       0000000000000.00 0000000.00   0000000.00                             000000000000000                                                                                                                                                     01424 G000000021062 0000000000003.89     01750 02000                  
00013900468490029DR675906759000000161968001028000000101BDC7652381TF09CD415CB8F  Y000000021062                 P1                                                                                                                                                                                                                                                                                                                                                                                                                                                                                                                                                                                                            
00013910468490001P16759067590000001619680010280000001010000000000000000                             2000000000000000000000000              000000000000                    0000000000000000000000000                    000000000000                                                                                                                                                                                                                                                                                                                                                                                                                                                                                        
00013920468490002G2675906759000000161968001028000000101866-6317293              GA           9 P                00                                      NNNN   N                      000000000000                                                                   77424386                                                                                                                                                                                                                                                                                                                                                                                                                                               
00013930468490030DT67590675900000016196800102800000010180010287287283171900017148294062020230000002255017123000000000296825534348XXXXXX4288       ME03KE06MS02      NY 4607AMPLDRSQGZ0620  N840000000022550          81DNGREEN OTTER LLC          020886    MC84000000022550 NDR549977424386   CAE05FFD3DT1AD2D39478B6  000000000+600450S00130    MPL  00013                     000000000  N                0000000000000.00 0000000.00   0000000.00                             000000000000000                                                                                                                                                   U001424  000000000000 0000000000004.50     01950 01000                  
00013940468490030DR675906759000000161968001028000000101CAE05FFD3DT1AD2D39478B6  A000000000000                                                                                                                                                                                                                                                                                                                                                                                                                                                                                                                                                                                                                               
00013950468490001G2675906759000000161968001028000000101866-6317293              GA           9 L               210                                      NNNN           210000000000000000000000000                        7                                          77424386                                                                                                                                                                                                                                                                                                                                                                                                                                               
00013960468490031DT67590675900000016196800102800000010680010287287283171900017148302062020230000001987017123000000000296825515676XXXXXX2676                         NY 4607AMWEROUKT70620  N840000000019870          81CNGREEN OTTER LLC          010028    MC84000000019870 NDR549977424386   274DBFC61BTB70F8F9B892B  000000000+600450S00130    MWE  00565                     000000000  N                0000000000000.00 0000000.00   0000000.00                             000000000000000                                                                                                                                                     01424  000000000000-0000000000003.48     01750 00000                  
00013970468490031DR675906759000000161968001028000000106274DBFC61BTB70F8F9B892B  Y000000000000                                                                                                                                                                                                                                                                                                                                                                                                                                                                                                                                                                                                                               
00013980468490001G2675906759000000161968001028000000106866-6317293              GA           9 E               210                                      NNNN           210000000000000000000000000                        7                                          77424386                                                                                                                                                                                                                                                                                                                                                                                                                                               
00013990468490032BH6759067590000001427480010280000090170620202317123000000000437201    0000090001257291Y8001026759C06212023125                                                                                                                                                                                                                                                                                                                                                                                                                                                                                                                                                                                              
00014000468490033DT67590675900000014274800102800000010180010224001193171900012565129061920230000002705917123000000000437201410039XXXXXX1266               2111111   NYV4 A7W583167256755859N8400000000270593GTB00    01DNCBD8666317293            27289D    VS84000000027059 NDR549977145232   20DDC2376BT56B0DBC240C4  000000000+                D CD 12109                     000000000  N000000000 498   0000000000000.00 0000000.00   0000000.00                             000000000000000                                                                                                                                                     01424 G000000027059 0000000000006.86     02500 01000                  
00014010468490033DR67590675900000014274800102800000010120DDC2376BT56B0DBC240C4  Y000000027059                 P1                                                                                                                                                                                                                                                                                                                                                                                                                                                                                                                                                                                                            
00014020468490001P16759067590000001427480010280000001010000000000000000                             2000000000000000000000000              000000000000                    0000000000000000000000000                    000000000000                                                                                                                                                                                                                                                                                                                                                                                                                                                                                        
00014030468490002G2675906759000000142748001028000000101866-6317293              GA           9 C                00                                      NNNN   Y                      000000000000                                                                   77145232                                                                                                                                                                                                                                                                                                                                                                                                                                               
00014040468490034DT67590675900000014274800102800000010180010287287283171900012565187061920230000001933617123000000000437201511271XXXXXX8222       ME03KE06MS02      NY 4607AMDJPDM5110616  N840000000019336          81DNCBD8666317293            0A2868    MD84000000019336 NDR549977145232   538DC8E4ABTD6862A76F345  000000000+600450S00130    MDJ  10813                     000000000  1                0000000000000.00 0000000.00   0000000.00                             000000000000000                                                                                                                                                   U001424  000000000000 0000000000000.32     00050 02200                  
00014050468490034DR675906759000000142748001028000000101538DC8E4ABTD6862A76F345  Y000000000000                                                                                                                                                                                                                                                                                                                                                                                                                                                                                                                                                                                                                               
00014060468490001G2675906759000000142748001028000000101866-6317293              GA           9 J               210                                      NNNN           210000000000000000000000000                                                                   77145232                                                                                                                                                                                                                                                                                                                                                                                                                                               
00014070468490035DT67590675900000014274800102800000010180010224001193171900012565202061920230000002636217123000000000437201442791XXXXXX0484               2111111   NYV4 A7W383167450202853N8400000000263624VKD00    01DNCBD8666317293            416859    VD84000000026362 NDR549977145232   6020421D45T32899C82BD3C  000000000+                F DF 10420                     000000000  Y000000000 338   0000000000000.00 0000000.00   0000000.00                             000000000000000                                                                                                                                                     01424 G000000026362 0000000000000.35     00050 02200                  
00014080468490035DR6759067590000001427480010280000001016020421D45T32899C82BD3C  Y000000026362                 P1                                                                                                                                                                                                                                                                                                                                                                                                                                                                                                                                                                                                            
00014090468490001P16759067590000001427480010280000001010000000000000000                             2000000000000000000000000              000000000000                    0000000000000000000000000                    000000000000                                                                                                                                                                                                                                                                                                                                                                                                                                                                                        
00014100468490002G2675906759000000142748001028000000101866-6317293              GA           9 D                00                                      NNNN   N                      000000000000                                                                   77145232                                                                                                                                                                                                                                                                                                                                                                                                                                               
00014110468490036DT67590675900000014274800102800000010180010224001193171900012566507061920230000000642417123000000000437201448915XXXXXX1975               2111111   NYV4 A7W463167825054949N8400000000064248TXM00    01DNCBD8666317293            016751    VS84000000006424 NDR549977145232   A382A25478T5A62148B5B0D  000000000+                C CC 12108                     000000000  N000000000 496   0000000000000.00 0000000.00   0000000.00                             000000000000000                                                                                                                                                     01424 G000000006424 0000000000001.42     02050 01000                  
00014120468490036DR675906759000000142748001028000000101A382A25478T5A62148B5B0D  Y000000006424                 P1                                                                                                                                                                                                                                                                                                                                                                                                                                                                                                                                                                                                            
00014130468490001P16759067590000001427480010280000001010000000000000000                             2000000000000000000000000              000000000000                    0000000000000000000000000                    000000000000                                                                                                                                                                                                                                                                                                                                                                                                                                                                                        
00014140468490002G2675906759000000142748001028000000101866-6317293              GA           9 C                00                                      NNNN   Y                      000000000000                                                                   77145232                                                                                                                                                                                                                                                                                                                                                                                                                                               
00014150468490037DT67590675900000014274800102800000010180010287287283171900012566540061920230000001499117123000000000437201551220XXXXXX1707       ME03KE06MS02      NY 4607AMDJXCMXGD0616  N840000000014991          81DNCBD8666317293            112451    MD84000000014991 NDR549977145232   9BC794A3F9T121A4037997C  000000000+600450S00130    MDJ  00401                     000000000  N                0000000000000.00 0000000.00   0000000.00                             000000000000000                                                                                                                                                   U001424  000000000000 0000000000002.62     01650 01500                  
00014160468490037DR6759067590000001427480010280000001019BC794A3F9T121A4037997C  Y000000000000                                                                                                                                                                                                                                                                                                                                                                                                                                                                                                                                                                                                                               
00014170468490001G2675906759000000142748001028000000101866-6317293              GA           9 J               210                                      NNNN           210000000000000000000000000                        7                                          77145232                                                                                                                                                                                                                                                                                                                                                                                                                                               
00014180468490038DT67590675900000014274800102800000010180010224001193171900012566556061920230000002126117123000000000437201481573XXXXXX6531               2111111   NYV4 A7W463167861050539N840000000021261BT6K00    01DNCBD8666317293            001049    VS84000000021261 NDR549977145232   D45256DABDT8EF9E8D067AB  000000000+                B CB 12107                     000000000  N000000000 494   0000000000000.00 0000000.00   0000000.00                             000000000000000                                                                                                                                                     01424 G000000021261 0000000000004.44     02040 01000                  
00014190468490038DR675906759000000142748001028000000101D45256DABDT8EF9E8D067AB  Y000000021261                 P1                                                                                                                                                                                                                                                                                                                                                                                                                                                                                                                                                                                                            
00014200468490001P16759067590000001427480010280000001010000000000000000                             2000000000000000000000000              000000000000                    0000000000000000000000000                    000000000000                                                                                                                                                                                                                                                                                                                                                                                                                                                                                        
00014210468490002G2675906759000000142748001028000000101866-6317293              GA           9 C                00                                      NNNN   N                      000000000000                                                                   77145232                                                                                                                                                                                                                                                                                                                                                                                                                                               
00014220468490039DT67590675900000014274800102800000010180010224001193171900012566606061920230000001619017123000000000437201449370XXXXXX2196               2111111   NYV4 A7W463168066050679N840000000016190C7J900    01DNCBD8666317293            625307    VD84000000016190 NDR549977145232   E6731A0A23T35C328A0F95F  000000000+                F DF 00415                     000000000  N000000000       0000000000000.00 0000000.00   0000000.00                             000000000000000                                                                                                                                                     01424 G000000016190 0000000000002.82     01650 01500                  
00014230468490039DR675906759000000142748001028000000101E6731A0A23T35C328A0F95F  Y000000016190                 P1                                                                                                                                                                                                                                                                                                                                                                                                                                                                                                                                                                                                            
00014240468490001P16759067590000001427480010280000001010000000000000000                             2000000000000000000000000              000000000000                    0000000000000000000000000                    000000000000                                                                                                                                                                                                                                                                                                                                                                                                                                                                                        
00014250468490002G2675906759000000142748001028000000101866-6317293              GA           9 D                00                                      NNNN   N                      000000000000                                                                   77145232                                                                                                                                                                                                                                                                                                                                                                                                                                               
00014260468490040DT67590675900000014274800102800000010180010287287283171900012566615061920230000000642417123000000000437201515915XXXXXX4491       ME03KE06MS02      NY 4607AMDSDX7SF30616  N840000000006424          81DNCBD8666317293            430361    MD84000000006424 NDR549977145232   206D9B1C7AT5FAAA1A85E76  000000000+600450S00130    MDS  00401                     000000000  N                0000000000000.00 0000000.00   0000000.00                             000000000000000                                                                                                                                                   U001424  000000000000 0000000000001.21     01650 01500                  
00014270468490040DR675906759000000142748001028000000101206D9B1C7AT5FAAA1A85E76  Z000000000000                                                                                                                                                                                                                                                                                                                                                                                                                                                                                                                                                                                                                               
00014280468490001G2675906759000000142748001028000000101866-6317293              GA           9 S               210                                      NNNN           210000000000000000000000000                        7                                          77145232                                                                                                                                                                                                                                                                                                                                                                                                                                               
00014290468490041DT67590675900000014274800102800000010180010287287283171900012566623061920230000001499117123000000000437201546616XXXXXX1170       ME03KE06PT01      NY 4607AMCWMCAHF20616  N840000000014991          81DNCBD8666317293            25190Z    MC84000000014991 NDR549977145232   8693187C1ET71FCF27B427F  000000000+600450S00130    MCW  00642                     000000000  N                0000000000000.00 0000000.00   0000000.00                             000000000000000                                                                                                                                                   U001424  000000000000 0000000000003.40     02200 01000                  
00014300468490041DR6759067590000001427480010280000001018693187C1ET71FCF27B427F  Y000000000000                                                                                                                                                                                                                                                                                                                                                                                                                                                                                                                                                                                                                               
00014310468490001G2675906759000000142748001028000000101866-6317293              GA           9 W               210                                      NNNN           210000000000000000000000000                        7                                          77145232                                                                                                                                                                                                                                                                                                                                                                                                                                               
00014320468490042DT67590675900000014274800102800000010180010224001193171900012571614061920230000002126117123000000000437201490097XXXXXX6926               2111111   NYV4 A7W303171009763863N84000000002126178C900    01DNCBD8666317293            001616    VD84000000021261 NDR549977145232   9ECF94EAFCT1DF0615220A8  000000000+                F DF 00415                     000000000  N000000000       0000000000000.00 0000000.00   0000000.00                             000000000000000                                                                                                                                                     01424 G000000021261 0000000000003.66     01650 01500                  
00014330468490042DR6759067590000001427480010280000001019ECF94EAFCT1DF0615220A8  Y000000021261                 P1                                                                                                                                                                                                                                                                                                                                                                                                                                                                                                                                                                                                            
00014340468490001P16759067590000001427480010280000001010000000000000000                             2000000000000000000000000              000000000000                    0000000000000000000000000                    000000000000                                                                                                                                                                                                                                                                                                                                                                                                                                                                                        
00014350468490002G2675906759000000142748001028000000101866-6317293              GA           9 D                00                                      NNNN   N                      000000000000                                                                   77145232                                                                                                                                                                                                                                                                                                                                                                                                                                               
00014360468490043DT67590675900000014274800102800000010180010224001193171900012571648061920230000002487017123000000000437201436706XXXXXX4188               2111111   NYV4 A7W303171021040150N840000000024870GD7B00    01DNCBD8666317293            133671    VD84000000024870 NDR549977145232   5F0DAAECC1T915368137FC9  000000000+                F DF 00415                     000000000  N000000000       0000000000000.00 0000000.00   0000000.00                             000000000000000                                                                                                                                                     01424 G000000024870 0000000000004.25     01650 01500                  
00014370468490043DR6759067590000001427480010280000001015F0DAAECC1T915368137FC9  Y000000024870                 P1                                                                                                                                                                                                                                                                                                                                                                                                                                                                                                                                                                                                            
00014380468490001P16759067590000001427480010280000001010000000000000000                             2000000000000000000000000              000000000000                    0000000000000000000000000                    000000000000                                                                                                                                                                                                                                                                                                                                                                                                                                                                                        
00014390468490002G2675906759000000142748001028000000101866-6317293              GA           9 D                00                                      NNNN   N                      000000000000                                                                   77145232                                                                                                                                                                                                                                                                                                                                                                                                                                               
00014400468490044DT67590675900000014274800102800000010180010224001193171900012571762061920230000000642817123000000000437201415977XXXXXX8817               2111111   NYV4 A7W383171048636491N8400000000064288VRF00    01DNCBD8666317293            000180    VD84000000006428 NDR549977145232   3B05F6931FTB0FC2062BD82  000000000+                F DF 10420                     000000000  Y000000000 338   0000000000000.00 0000000.00   0000000.00                             000000000000000                                                                                                                                                     01424 G000000006428 0000000000000.25     00050 02200                  
00014410468490044DR6759067590000001427480010280000001013B05F6931FTB0FC2062BD82  Y000000006428                 P1                                                                                                                                                                                                                                                                                                                                                                                                                                                                                                                                                                                                            
