00000680577980002BH6759067590000000017480000180000090171026202229922000000000000595    0000090001030001Y8000016759C10272022                                                                                                                                                                                                                                                                                                                                                                                                                                                                                                                                                                                                 
00000690577980003DT67590675900000000174800001800000010180000177287282299900010300017102620220000000059529922000000000000595558158XXXXXX7298                         NY 1 0 AMDBWWIU3S1026  N840000000000595          05DNVERMONT STATE BANK       2WSDLF    MD84000000000595 NP1549975551542                            000000000+M10101C5434C    MDB  00063                     000000000  N                0000000000000.00 0000000.00   0000000.00                             000000000000000                                                                                                                                                   B101424  000000000000 0000000000000.22     02050 01000                  
00000700577980001P1675906759000000001748000018000000101                                                 000000000000000000000          1000   000000000390335740            000000000000                                                                                                                                                                                                                                                                                                                                                                                                                                                                                                                                    
00000710577980004BH6759067590000000017480000180000090171026202229922000000000004975    0000090001050008Y8000016759C10272022                                                                                                                                                                                                                                                                                                                                                                                                                                                                                                                                                                                                 
00000720577980005DT67590675900000000174800001800000010180000124001192299900010500028102620220000000023229922000000000004975474489XXXXXX3159       VK04VS111111111   NYV1 A E582299628627048N840000000000232TW4N00    05DNVERMONT STATE BANK       102071    VD84000000000232 N  549975549271                            000000000+                F DF 10439                     000000000  Y000000000 331   0000000000000.00 0000000.00   0000000.00                             000000000000000                                                                                                                                                     01424 F000000000000 0000000000000.22     00050 02200                  
00000730577980006DT67590675900000000174800001800000010180000173011002299900010500032102620220000000055229922000000000004975376742XXXXX1001                          NY 1 0 N005979172535072N840000000000552          05DNVERMONT STATE BANK       806850    AM84000000000552 Y  549975549271                            000000000+51010155434C 258     11261                     000000000                   0000000000000.00 0000000.00   0000000.00                             000000000000000 61248972086759675900000000174                          106 N MAIN ST            3097842271      61484     (309)784-2271                             01324  000000000000 0000000000000.19     01600 00000                  
00000740577980007DT67590675900000000174800001800000010180000173011002299900010500040102620220000000054829922000000000004975373967XXXXX1009                          NY 1 0 N006511145807061N840000000000548          05DNVERMONT STATE BANK       813987    AM84000000000548 Y  549975549271                            000000000+51010155434C 258     11261                     000000000                   0000000000000.00 0000000.00   0000000.00                             000000000000000 61248972086759675900000000174                          106 N MAIN ST            3097842271      61484     (309)784-2271                             01324  000000000000 0000000000000.19     01600 00000                  
00000750577980008DT67590675900000000174800001800000010180000173011002299900010500057102620220000000202229922000000000004975376742XXXXX1001                          NY 1 0 N006511181466061N840000000002022          05DNVERMONT STATE BANK       801335    AM84000000002022 Y  549975549271                            000000000+51010155434C 258     11261                     000000000                   0000000000000.00 0000000.00   0000000.00                             000000000000000 61248972086759675900000000174                          106 N MAIN ST            3097842271      61484     (309)784-2271                             01324  000000000000 0000000000000.42     01600 00000                  
00000760577980009DT67590675900000000174800001800000010180000176509752299900010500067102620220000000056129922000000000004975601100XXXXXX6003   BA50                  NY41 0 N872257966027478N840000000000561    00    05DNVERMONT STATE BANK       02671R    DS84000000000561 N  549975549271050                         000000000+0000004910H00   DCCDI00996601001  124322000000 000000000  0          108   0000000000000.00 0000000.00   0000000.00                             000000000000000                                                                                                                                                     01424  000000000000 0000000000000.11     01950 00000                  
00000770577980010DT67590675900000000174800001800000033080000176759002299900010500072102620220000000047229922000000000004975474489XXXXXX3159                         NY 2 0 N               N840000000000472      IL  05DNVERMONT STATE BANK       112313    DB84000000000472 N  549975549271                            000000000+                     09580                                Y          342   0000000000000.00 0000000.00   0000000.00                             000000000000000                                                                                                                                                     01424  000000000000 0000000000000.22     00050 00000                  
00000780577980011DT67590675900000000174800001800000033080000176759002299900010500080102620220000000058829922000000000004975558158XXXXXX5954                         NY42 0 N               N840000000000588      ME  05DNVERMONT STATE BANK       287WSM    DB84000000000588 N  549975549271                            000000000+                     09599                                N                0000000000000.00 0000000.00   0000000.00                             000000000000000                                                                                                                                                     01424  000000000000 0000000000000.21     00750 00000                  
