01696290624670002BH6759067590000000215480088880000090171128202233222000000000853920    0000090001484509N8008886759C11292022                                                                                                                                                                                                                                                                                                                                                                                                                                                                                                                                                                                                 
01696300624670003DT67590675900000002154800888800000010180088873011002332900014845093112820220000085392033222000000000853920377972XXXXX1024                          NY 4 07N003321356909322N840000000853920          01DNDRIP DROP DISTRO LLC     266851    AM84000000853920 N  519971004114                            000000000+6004S0S00140 258     11245                     000000000                   0000000000000.00 0000000.00   0000000.00                             000000000000000 61248972736759675900000002154 DRIP DROP DISTRO LLC     1445 W COMMERCE AVE SUITE2087248209      83705     TROY@DRIPDROPDISTRO.COM                   01418  000000000000 0000000000200.77     02350 00000                  
01696310624670004BH6759067590000000096880088880000090171128202233222000000000001784    0000090001016986N8008886759C11292022                                                                                                                                                                                                                                                                                                                                                                                                                                                                                                                                                                                                 
01696320624670005DT67590675900000000968800888800000010180088887287282332900010154024112820220000000128433222000000000001784531260XXXXXX3486       ME03KE06MS02      NY 4607AMDJMSYA1U1128  N840000000001284          81DNHIGHER FLOUR LLC         105024    MD84000000001284 N  546200000001   r9SaxiRndZAdNCuNN4ja     000000000+600450S00140    MDJ  10813                     000000000  1                0000000000000.00 0000000.00   0000000.00                             000000000000000                                                                                                                                                   U001418  000000000000 0000000000000.23     00050 02200                  
01696330624670006DT67590675900000000968800888800000010180088887287282332900010169865112820220000000050033222000000000001784531260XXXXXX3486       ME03KE06MS02      NY 4607AMDJM9XEI01128  N840000000000500          81DNHIGHER FLOUR LLC         104051    MD84000000000500 N  546200000001   69                       000000000+600450S00140    MDJ  10813                     000000000  1                0000000000000.00 0000000.00   0000000.00                             000000000000000                                                                                                                                                   U001418  000000000000 0000000000000.22     00050 02200                  
