01469680606880002BH6759067590000000288180088880000090171227202236122000000000015896    0000090001030004N8008886759C12282022                                                                                                                                                                                                                                                                                                                                                                                                                                                                                                                                                                                                 
01469690606880003DT67590675900000002881800888800000010180088824001192361900010300018122720220000000296136122000000000015896496698XXXXXX6734       VS11    0001111   NYV1 A E582361690846340N840000000002961VLRC00    05DNHAPPY HIPPIE             551085    VS84000000002961 N  549976487134                            000000000+                B CB 12111                     000000000  N000000000 495   0000000000000.00 0000000.00   0000000.00                             000000000000000                                                                                                                                                     01418 A000000000000 0000000000000.59     01650 01000                  
01469700606880004DT67590675900000002881800888800000010180088877287282361900010300028122720220000000454336122000000000015896511953XXXXXX5656       MS02WI09          NY 1 0 AMDJCTTFGH1227  N840000000004543          07DNHAPPY HIPPIE             023228    MD84000000004543 N  549976487134                            000000000+M10101M0034C    MDJ  00402                     000000000  N                0000000000000.00 0000000.00   0000000.00                             000000000000000                                                                                                                                                   B101418  000000000000 0000000000000.63     01050 01500                  
01469710606880005DT67590675900000002881800888800000010180088877287282361900010300036122720220000000246836122000000000015896511558XXXXXX5317       MS02WI09          NY 2 0 AMPVG4PRVW1227  N840000000002468          05DNHAPPY HIPPIE             KEY4I5    MD84000000002468 N  549976487134                            000000000+M10101C1334C    MPV  11964                     000000000  N                0000000000000.00 0000000.00   0000000.00                             000000000000000                                                                                                                                                     01418  000000000000 0000000000000.43     01150 01500                  
01469720606880006DT67590675900000002881800888800000010180088824001192361900010300042122720220000000592436122000000000015896427569XXXXXX2288       VS11    0001111   NYV1 A E382361739909193N840000000005924D2PQ00    07DNHAPPY HIPPIE             952811    VD84000000005924 N  549976487134                            000000000+                F DF 00381                     000000000  N000000000       0000000000000.00 0000000.00   0000000.00                             000000000000000                                                                                                                                                     01418 A000000000000 0000000000000.62     00800 01500                  
01469730606880007BH6759067590000000288180088880000090171227202236122000000000119276    0000090001030029N8008886759C12282022                                                                                                                                                                                                                                                                                                                                                                                                                                                                                                                                                                                                 
01469740606880008DT67590675900000002881800888800000010180088824001192361900010300018122720220000000329336122000000000119276461627XXXXXX2694       VS11    0001111   NYV1 A E582361587279631N840000000003293NS7500    05DNHAPPY HIPPIE             255463    VD84000000003293 N  549976487158                            000000000+                G DG 08704                     000000000  N000000000       0000000000000.00 0000000.00   0000000.00                             000000000000000                                                                                                                                                     01418 A000000000000 0000000000000.66     01700 01000                  
01469750606880009DT67590675900000002881800888800000010180088824001192361900010300026122720220000000295036122000000000119276473336XXXXXX5051       VS11    0001111   NYV1 A E302361588808083N840000000002950DVK900    05DNHAPPY HIPPIE             092120    VD84000000002950 N  549976487158                            000000000+                F DF 00381                     000000000  N000000000       0000000000000.00 0000000.00   0000000.00                             000000000000000                                                                                                                                                     01418 A000000000000 0000000000000.39     00800 01500                  
01469760606880010DT67590675900000002881800888800000010180088824001192361900010300034122720220000000325836122000000000119276415978XXXXXX6458       VS11    0001111   NYV1 A E462361590980451N8400000000032589JLF00    05DNHAPPY HIPPIE             083519    VD84000000003258 N  549976487158                            000000000+                F DF 10433                     000000000  Y000000000 338   0000000000000.00 0000000.00   0000000.00                             000000000000000                                                                                                                                                     01418 A000000000000 0000000000000.24     00050 02200                  
01469770606880011DT67590675900000002881800888800000010180088877287282361900010300044122720220000001152236122000000000119276517805XXXXXX6556       MS02WI09          NY 1 0 AMPLCRYNTB1227  N840000000011522          05DNHAPPY HIPPIE             02648B    MC84000000011522 N  549976487158                            000000000+M10101C5434C    MPL  00364                     000000000  N                0000000000000.00 0000000.00   0000000.00                             000000000000000                                                                                                                                                   B101418  000000000000 0000000000002.11     01800 00400                  
01469780606880012DT67590675900000002881800888800000010180088877287282361900010300051122720220000000362136122000000000119276514759XXXXXX3920       MS02WI09          NY 2 0 AMDJC91RTB1227  N840000000003621          05DNHAPPY HIPPIE             012648    MD84000000003621 N  549976487158                            000000000+M10101C1334C    MDJ  10815                     000000000  1                0000000000000.00 0000000.00   0000000.00                             000000000000000                                                                                                                                                   B101418  000000000000 0000000000000.24     00050 02200                  
01469790606880013DT67590675900000002881800888800000010180088824001192361900010300067122720220000000448836122000000000119276415978XXXXXX3096       VS11    0001111   NYV1 A E382361635131125N840000000004488MGKB00    05DNHAPPY HIPPIE             041965    VD84000000004488 N  549976487158                            000000000+                F DF 10433                     000000000  Y000000000 338   0000000000000.00 0000000.00   0000000.00                             000000000000000                                                                                                                                                     01418 A000000000000 0000000000000.24     00050 02200                  
01469800606880014DT67590675900000002881800888800000010180088824001192361900010300075122720220000000888436122000000000119276422921XXXXXX6208       VS11    0001111   NYV1 A E302361649778976N840000000008884N6M500    05DNHAPPY HIPPIE             046979    VD84000000008884 N  549976487158                            000000000+                F DF 00381                     000000000  N000000000       0000000000000.00 0000000.00   0000000.00                             000000000000000                                                                                                                                                     01418 A000000000000 0000000000000.86     00800 01500                  
01469810606880015DT67590675900000002881800888800000010180088877287282361900010300085122720220000000325636122000000000119276548974XXXXXX2406       MS02WI09          NY 1 0 AMPAZMMZGG1227  N840000000003256          07DNHAPPY HIPPIE             065393    MD84000000003256 N  549976487158                            000000000+M10101M0034C    MPA  11964                     000000000  N                0000000000000.00 0000000.00   0000000.00                             000000000000000                                                                                                                                                   A101418  000000000000 0000000000000.52     01150 01500                  
01469820606880016DT67590675900000002881800888800000010180088824001192361900010300091122720220000000395036122000000000119276480639XXXXXX8689       VS11    0001111   NYV1 A E462361656786865N840000000003950M3C200    05DNHAPPY HIPPIE             045314    VD84000000003950 N  549976487158                            000000000+                F DF 00381                     000000000  N000000000       0000000000000.00 0000000.00   0000000.00                             000000000000000                                                                                                                                                     01418 A000000000000 0000000000000.47     00800 01500                  
01469830606880017DT67590675900000002881800888800000010180088824001192361900010300109122720220000000548836122000000000119276474665XXXXXX1430       VS11    0001111   NYV1 A E382361698935854N840000000005488CGRC00    05DNHAPPY HIPPIE             029034    VD84000000005488 N  549976487158                            000000000+                F DF 10433                     000000000  Y000000000 338   0000000000000.00 0000000.00   0000000.00                             000000000000000                                                                                                                                                     01418 A000000000000 0000000000000.25     00050 02200                  
01469840606880018DT67590675900000002881800888800000010180088824001192361900010300117122720220000000118536122000000000119276447931XXXXXX7819       VK04VS111111111   NYV1 A E302361701333499N840000000001185BNHQ00    07DNHAPPY HIPPIE             061217    VD84000000001185 N  549976487158                            000000000+                F DF 00451                     000000000  N000000000 214   0000000000000.00 0000000.00   0000000.00                             000000000000000                                                                                                                                                     01418 F000000000000 0000000000000.22     01550 00400                  
01469850606880019DT67590675900000002881800888800000010180088876509752361900010300123122720220000000438936122000000000119276601101XXXXXX2808   BA50                  NY41 0 N862311563795362N840000000004389    00    05DNHAPPY HIPPIE             02766B    DZ84000000004389 N  549976487158050                         000000000+0000004910H00   DMCDI01012002005  123259000000 000000000  0          124   0000000000000.00 0000000.00   0000000.00                             000000000000000                                                                                                                                                     01418  000000000000 0000000000001.23     02450 01500                  
01469860606880020DT67590675900000002881800888800000010180088824001192361900010300133122720220000000158036122000000000119276421783XXXXXX4327       VS11    0001111   NYV1 A E462361709651521N840000000001580RV2F00    05DNHAPPY HIPPIE             095229    VS84000000001580 N  549976487158                            000000000+                A CA 12110                     000000000  N000000000 493   0000000000000.00 0000000.00   0000000.00                             000000000000000                                                                                                                                                     01418 A000000000000 0000000000000.34     01510 01000                  
01469870606880021DT67590675900000002881800888800000010180088824001192361900010300141122720220000000296236122000000000119276485246XXXXXX5457       VS11    0001111   NYV1 A E462361715436305N840000000002962RMHQ00    90DNHAPPY HIPPIE             973405    VD84000000002962 N  549976487158                            000000000+                F PF 08170                     000000000  N000000000       0000000000000.00 0000000.00   0000000.00                             000000000000000                                                                                                                                                     01418 A000000000000 0000000000000.49     01150 01500                  
01469880606880022DT67590675900000002881800888800000010180088824001192361900010300158122720220000000790036122000000000119276415978XXXXXX0794       VS11    0001111   NYV1 A E382361736504054N8400000000079003SSW00    05DNHAPPY HIPPIE             061353    VD84000000007900 N  549976487158                            000000000+                F DF 10433                     000000000  Y000000000 338   0000000000000.00 0000000.00   0000000.00                             000000000000000                                                                                                                                                     01418 A000000000000 0000000000000.26     00050 02200                  
01469890606880023DT67590675900000002881800888800000010180088877287282361900010300168122720220000001020636122000000000119276511975XXXXXX4657                         NY 1 0 AMDBEHBLGH1227  N840000000010206          05DNHAPPY HIPPIE             021682    MD84000000010206 NP1549976487158                            000000000+M10101C5434C    MDB  00062                     000000000  N                0000000000000.00 0000000.00   0000000.00                             000000000000000                                                                                                                                                   B101418  000000000000 0000000000002.80     02650 01000                  
01469900606880001P1675906759000000028818008888000000101                                                          000000000000          3000            814767769                                                                                                                                                                                                                                                                                                                                                                                                                                                                                                                                                            
01469910606880024DT67590675900000002881800888800000010180088877287282361900010300176122720220000000335736122000000000119276525363XXXXXX6413       MS02WI09          NY 1 0 AMWEHJA9GG1227  N840000000003357          05DNHAPPY HIPPIE             70021Z    MC84000000003357 N  549976487158                            000000000+M10101C0034C    MWE  00743                     000000000  N                0000000000000.00 0000000.00   0000000.00                             000000000000000                                                                                                                                                   B101418  000000000000 0000000000000.81     02300 00400                  
01469920606880025DT67590675900000002881800888800000010180088824001192361900010300182122720220000000197636122000000000119276419090XXXXXX0821       VS11    0001111   NYV1 A E302361766000538N840000000001976RCG900    05DNHAPPY HIPPIE             263793    VD84000000001976 N  549976487158                            000000000+                F DF 00381                     000000000  N000000000       0000000000000.00 0000000.00   0000000.00                             000000000000000                                                                                                                                                     01418 A000000000000 0000000000000.31     00800 01500                  
01469930606880026DT67590675900000002881800888800000010180088824001192361900010300190122720220000000329136122000000000119276417046XXXXXX6756       VS11    0001111   NYV1 A E382361766823849N8400000000032913JGZ00    90DNHAPPY HIPPIE             818366    VD84000000003291 N  549976487158                            000000000+                F PF 08170                     000000000  N000000000       0000000000000.00 0000000.00   0000000.00                             000000000000000                                                                                                                                                     01418 A000000000000 0000000000000.53     01150 01500                  
01469940606880027DT67590675900000002881800888800000010180088824001192361900010300208122720220000000158036122000000000119276464018XXXXXX1740       VS11    0001111   NYV1 A E382361768895172N840000000001580M28R00    05DNHAPPY HIPPIE             03903D    VS84000000001580 N  549976487158                            000000000+                D CD 12113                     000000000  N000000000 499   0000000000000.00 0000000.00   0000000.00                             000000000000000                                                                                                                                                     01418 A000000000000 0000000000000.43     02100 01000                  
01469950606880028DT67590675900000002881800888800000010180088824001192361900010300216122720220000000158036122000000000119276464018XXXXXX1740       VS11    0001111   NYV1 A E382361769574218N840000000001580B6V600    05DNHAPPY HIPPIE             07137D    VS84000000001580 N  549976487158                            000000000+                D CD 12113                     000000000  N000000000 499   0000000000000.00 0000000.00   0000000.00                             000000000000000                                                                                                                                                     01418 A000000000000 0000000000000.43     02100 01000                  
01469960606880029DT67590675900000002881800888800000010180088824001192361900010300224122720220000000329136122000000000119276445102XXXXXX1557       VS11    0001111   NYV1 A E302361771631156N840000000003291H7RP00    05DNHAPPY HIPPIE             116336    VD84000000003291 N  549976487158                            000000000+                F DF 10433                     000000000  Y000000000 338   0000000000000.00 0000000.00   0000000.00                             000000000000000                                                                                                                                                     01418 A000000000000 0000000000000.24     00050 02200                  
01469970606880030DT67590675900000002881800888800000010180088877287282361900010300234122720220000000438936122000000000119276517279XXXXXX5827       MS02WI09          NY 1 0 AMDJZ6RLGI1227  N840000000004389          05DNHAPPY HIPPIE             075960    MD84000000004389 N  549976487158                            000000000+M10101C5434C    MDJ  00402                     000000000  N                0000000000000.00 0000000.00   0000000.00                             000000000000000                                                                                                                                                   B101418  000000000000 0000000000000.61     01050 01500                  
01469980606880031DT67590675900000002881800888800000010180088877287282361900010300242122720220000000548836122000000000119276517279XXXXXX3967       MS02WI09          NY 1 0 AMDJJA3EVW1227  N840000000005488          05DNHAPPY HIPPIE             091028    MD84000000005488 N  549976487158                            000000000+M10101C5434C    MDJ  00402                     000000000  N                0000000000000.00 0000000.00   0000000.00                             000000000000000                                                                                                                                                   B101418  000000000000 0000000000000.73     01050 01500                  
01469990606880032DT67590675900000002881800888800000010180088824001192361900010300257122720220000000296236122000000000119276445102XXXXXX2101       VS11    0001111   NYV1 A E462361778740657N84000000000296295VB00    05DNHAPPY HIPPIE             122232    VD84000000002962 N  549976487158                            000000000+                F DF 10433                     000000000  Y000000000 338   0000000000000.00 0000000.00   0000000.00                             000000000000000                                                                                                                                                     01418 A000000000000 0000000000000.23     00050 02200                  
01470000606880033DT67590675900000002881800888800000010180088877287282361900010300267122720220000000128336122000000000119276511953XXXXXX3362       MS02WI09          NY 1 0 AMDJJFRIVW1227  N840000000001283          05DNHAPPY HIPPIE             006151    MD84000000001283 N  549976487158                            000000000+M10101C5434C    MDJ  00505                     000000000  N                0000000000000.00 0000000.00   0000000.00                             000000000000000                                                                                                                                                   B101418  000000000000 0000000000000.24     01550 00400                  
01470010606880034DT67590675900000002881800888800000010180088877287282361900010300275122720220000000276636122000000000119276511953XXXXXX3362       MS02WI09          NY 1 0 AMDJH885GG1227  N840000000002766          05DNHAPPY HIPPIE             014829    MD84000000002766 N  549976487158                            000000000+M10101C5434C    MDJ  00402                     000000000  N                0000000000000.00 0000000.00   0000000.00                             000000000000000                                                                                                                                                   B101418  000000000000 0000000000000.44     01050 01500                  
01470020606880035DT67590675900000002881800888800000010180088824001192361900010300281122720220000000186436122000000000119276465123XXXXXX3022       VS11    0001111   NYV1 A E382361790121782N840000000001864HD3Z00    07DNHAPPY HIPPIE             049586    VD84000000001864 N  549976487158                            000000000+                F DF 10433                     000000000  Y000000000 338   0000000000000.00 0000000.00   0000000.00                             000000000000000                                                                                                                                                     01418 A000000000000 0000000000000.23     00050 02200                  
01470030606880036DT67590675900000002881800888800000010180088824001192361900010300299122720220000000651736122000000000119276419090XXXXXX9424       VS11    0001111   NYV1 A E382361798096629N8400000000065174RXM00    05DNHAPPY HIPPIE             265456    VD84000000006517 N  549976487158                            000000000+                F DF 00381                     000000000  N000000000       0000000000000.00 0000000.00   0000000.00                             000000000000000                                                                                                                                                     01418 A000000000000 0000000000000.67     00800 01500                  
